{
	"Dapp/Receiver.sol": {
		"Receiver": {
			"abi": [
				{
					"inputs": [],
					"name": "getBalance",
					"outputs": [
						{
							"internalType": "uint256",
							"name": "",
							"type": "uint256"
						}
					],
					"stateMutability": "view",
					"type": "function"
				},
				{
					"inputs": [
						{
							"internalType": "uint256",
							"name": "_money",
							"type": "uint256"
						}
					],
					"name": "withdrawMoney",
					"outputs": [],
					"stateMutability": "payable",
					"type": "function"
				}
			],
			"devdoc": {
				"kind": "dev",
				"methods": {},
				"version": 1
			},
			"evm": {
				"assembly": "    /* \"Dapp/Receiver.sol\":66:811  contract Receiver {... */\n  mstore(0x40, 0x80)\n  callvalue\n  dup1\n  iszero\n  tag_1\n  jumpi\n  0x00\n  dup1\n  revert\ntag_1:\n  pop\n  dataSize(sub_0)\n  dup1\n  dataOffset(sub_0)\n  0x00\n  codecopy\n  0x00\n  return\nstop\n\nsub_0: assembly {\n        /* \"Dapp/Receiver.sol\":66:811  contract Receiver {... */\n      mstore(0x40, 0x80)\n      jumpi(tag_1, lt(calldatasize, 0x04))\n      shr(0xe0, calldataload(0x00))\n      dup1\n      0x12065fe0\n      eq\n      tag_2\n      jumpi\n      dup1\n      0x54876921\n      eq\n      tag_3\n      jumpi\n    tag_1:\n      0x00\n      dup1\n      revert\n        /* \"Dapp/Receiver.sol\":708:796  function getBalance() public view returns(uint){... */\n    tag_2:\n      callvalue\n      dup1\n      iszero\n      tag_4\n      jumpi\n      0x00\n      dup1\n      revert\n    tag_4:\n      pop\n      tag_5\n      tag_6\n      jump\t// in\n    tag_5:\n      mload(0x40)\n      tag_7\n      swap2\n      swap1\n      tag_8\n      jump\t// in\n    tag_7:\n      mload(0x40)\n      dup1\n      swap2\n      sub\n      swap1\n      return\n        /* \"Dapp/Receiver.sol\":243:413  function withdrawMoney(uint _money) public payable m_checkBalance  {... */\n    tag_3:\n      tag_9\n      0x04\n      dup1\n      calldatasize\n      sub\n      dup2\n      add\n      swap1\n      tag_10\n      swap2\n      swap1\n      tag_11\n      jump\t// in\n    tag_10:\n      tag_12\n      jump\t// in\n    tag_9:\n      stop\n        /* \"Dapp/Receiver.sol\":708:796  function getBalance() public view returns(uint){... */\n    tag_6:\n        /* \"Dapp/Receiver.sol\":750:754  uint */\n      0x00\n        /* \"Dapp/Receiver.sol\":775:777  rd */\n      dup1\n        /* \"Dapp/Receiver.sol\":775:788  rd.totalFunds */\n      0x00\n      add\n      sload\n        /* \"Dapp/Receiver.sol\":768:788  return rd.totalFunds */\n      swap1\n      pop\n        /* \"Dapp/Receiver.sol\":708:796  function getBalance() public view returns(uint){... */\n      swap1\n      jump\t// out\n        /* \"Dapp/Receiver.sol\":243:413  function withdrawMoney(uint _money) public payable m_checkBalance  {... */\n    tag_12:\n        /* \"Dapp/Receiver.sol\":487:489  rd */\n      0x00\n        /* \"Dapp/Receiver.sol\":487:500  rd.totalFunds */\n      dup1\n      add\n      sload\n        /* \"Dapp/Receiver.sol\":476:478  rd */\n      0x00\n        /* \"Dapp/Receiver.sol\":476:484  rd.money */\n      0x02\n      add\n      sload\n        /* \"Dapp/Receiver.sol\":476:500  rd.money < rd.totalFunds */\n      lt\n        /* \"Dapp/Receiver.sol\":468:532  require(rd.money < rd.totalFunds, \"Not enough funds on account\") */\n      tag_15\n      jumpi\n      mload(0x40)\n      0x08c379a000000000000000000000000000000000000000000000000000000000\n      dup2\n      mstore\n      0x04\n      add\n      tag_16\n      swap1\n      tag_17\n      jump\t// in\n    tag_16:\n      mload(0x40)\n      dup1\n      swap2\n      sub\n      swap1\n      revert\n    tag_15:\n        /* \"Dapp/Receiver.sol\":362:368  _money */\n      dup1\n        /* \"Dapp/Receiver.sol\":346:348  rd */\n      0x00\n        /* \"Dapp/Receiver.sol\":346:359  rd.totalFunds */\n      dup1\n      add\n      sload\n        /* \"Dapp/Receiver.sol\":346:368  rd.totalFunds - _money */\n      tag_19\n      swap2\n      swap1\n      tag_20\n      jump\t// in\n    tag_19:\n        /* \"Dapp/Receiver.sol\":330:332  rd */\n      0x00\n        /* \"Dapp/Receiver.sol\":330:343  rd.totalFunds */\n      dup1\n      add\n        /* \"Dapp/Receiver.sol\":330:368  rd.totalFunds = rd.totalFunds - _money */\n      dup2\n      swap1\n      sstore\n      pop\n        /* \"Dapp/Receiver.sol\":390:396  _money */\n      dup1\n        /* \"Dapp/Receiver.sol\":379:381  rd */\n      0x00\n        /* \"Dapp/Receiver.sol\":379:387  rd.money */\n      0x02\n      add\n        /* \"Dapp/Receiver.sol\":379:396  rd.money = _money */\n      dup2\n      swap1\n      sstore\n      pop\n        /* \"Dapp/Receiver.sol\":243:413  function withdrawMoney(uint _money) public payable m_checkBalance  {... */\n      pop\n      jump\t// out\n        /* \"#utility.yul\":7:84   */\n    tag_21:\n        /* \"#utility.yul\":44:51   */\n      0x00\n        /* \"#utility.yul\":73:78   */\n      dup2\n        /* \"#utility.yul\":62:78   */\n      swap1\n      pop\n        /* \"#utility.yul\":7:84   */\n      swap2\n      swap1\n      pop\n      jump\t// out\n        /* \"#utility.yul\":90:208   */\n    tag_22:\n        /* \"#utility.yul\":177:201   */\n      tag_35\n        /* \"#utility.yul\":195:200   */\n      dup2\n        /* \"#utility.yul\":177:201   */\n      tag_21\n      jump\t// in\n    tag_35:\n        /* \"#utility.yul\":172:175   */\n      dup3\n        /* \"#utility.yul\":165:202   */\n      mstore\n        /* \"#utility.yul\":90:208   */\n      pop\n      pop\n      jump\t// out\n        /* \"#utility.yul\":214:436   */\n    tag_8:\n        /* \"#utility.yul\":307:311   */\n      0x00\n        /* \"#utility.yul\":345:347   */\n      0x20\n        /* \"#utility.yul\":334:343   */\n      dup3\n        /* \"#utility.yul\":330:348   */\n      add\n        /* \"#utility.yul\":322:348   */\n      swap1\n      pop\n        /* \"#utility.yul\":358:429   */\n      tag_37\n        /* \"#utility.yul\":426:427   */\n      0x00\n        /* \"#utility.yul\":415:424   */\n      dup4\n        /* \"#utility.yul\":411:428   */\n      add\n        /* \"#utility.yul\":402:408   */\n      dup5\n        /* \"#utility.yul\":358:429   */\n      tag_22\n      jump\t// in\n    tag_37:\n        /* \"#utility.yul\":214:436   */\n      swap3\n      swap2\n      pop\n      pop\n      jump\t// out\n        /* \"#utility.yul\":523:640   */\n    tag_24:\n        /* \"#utility.yul\":632:633   */\n      0x00\n        /* \"#utility.yul\":629:630   */\n      dup1\n        /* \"#utility.yul\":622:634   */\n      revert\n        /* \"#utility.yul\":769:891   */\n    tag_26:\n        /* \"#utility.yul\":842:866   */\n      tag_42\n        /* \"#utility.yul\":860:865   */\n      dup2\n        /* \"#utility.yul\":842:866   */\n      tag_21\n      jump\t// in\n    tag_42:\n        /* \"#utility.yul\":835:840   */\n      dup2\n        /* \"#utility.yul\":832:867   */\n      eq\n        /* \"#utility.yul\":822:885   */\n      tag_43\n      jumpi\n        /* \"#utility.yul\":881:882   */\n      0x00\n        /* \"#utility.yul\":878:879   */\n      dup1\n        /* \"#utility.yul\":871:883   */\n      revert\n        /* \"#utility.yul\":822:885   */\n    tag_43:\n        /* \"#utility.yul\":769:891   */\n      pop\n      jump\t// out\n        /* \"#utility.yul\":897:1036   */\n    tag_27:\n        /* \"#utility.yul\":943:948   */\n      0x00\n        /* \"#utility.yul\":981:987   */\n      dup2\n        /* \"#utility.yul\":968:988   */\n      calldataload\n        /* \"#utility.yul\":959:988   */\n      swap1\n      pop\n        /* \"#utility.yul\":997:1030   */\n      tag_45\n        /* \"#utility.yul\":1024:1029   */\n      dup2\n        /* \"#utility.yul\":997:1030   */\n      tag_26\n      jump\t// in\n    tag_45:\n        /* \"#utility.yul\":897:1036   */\n      swap3\n      swap2\n      pop\n      pop\n      jump\t// out\n        /* \"#utility.yul\":1042:1371   */\n    tag_11:\n        /* \"#utility.yul\":1101:1107   */\n      0x00\n        /* \"#utility.yul\":1150:1152   */\n      0x20\n        /* \"#utility.yul\":1138:1147   */\n      dup3\n        /* \"#utility.yul\":1129:1136   */\n      dup5\n        /* \"#utility.yul\":1125:1148   */\n      sub\n        /* \"#utility.yul\":1121:1153   */\n      slt\n        /* \"#utility.yul\":1118:1237   */\n      iszero\n      tag_47\n      jumpi\n        /* \"#utility.yul\":1156:1235   */\n      tag_48\n      tag_24\n      jump\t// in\n    tag_48:\n        /* \"#utility.yul\":1118:1237   */\n    tag_47:\n        /* \"#utility.yul\":1276:1277   */\n      0x00\n        /* \"#utility.yul\":1301:1354   */\n      tag_49\n        /* \"#utility.yul\":1346:1353   */\n      dup5\n        /* \"#utility.yul\":1337:1343   */\n      dup3\n        /* \"#utility.yul\":1326:1335   */\n      dup6\n        /* \"#utility.yul\":1322:1344   */\n      add\n        /* \"#utility.yul\":1301:1354   */\n      tag_27\n      jump\t// in\n    tag_49:\n        /* \"#utility.yul\":1291:1354   */\n      swap2\n      pop\n        /* \"#utility.yul\":1247:1364   */\n      pop\n        /* \"#utility.yul\":1042:1371   */\n      swap3\n      swap2\n      pop\n      pop\n      jump\t// out\n        /* \"#utility.yul\":1377:1546   */\n    tag_28:\n        /* \"#utility.yul\":1461:1472   */\n      0x00\n        /* \"#utility.yul\":1495:1501   */\n      dup3\n        /* \"#utility.yul\":1490:1493   */\n      dup3\n        /* \"#utility.yul\":1483:1502   */\n      mstore\n        /* \"#utility.yul\":1535:1539   */\n      0x20\n        /* \"#utility.yul\":1530:1533   */\n      dup3\n        /* \"#utility.yul\":1526:1540   */\n      add\n        /* \"#utility.yul\":1511:1540   */\n      swap1\n      pop\n        /* \"#utility.yul\":1377:1546   */\n      swap3\n      swap2\n      pop\n      pop\n      jump\t// out\n        /* \"#utility.yul\":1552:1729   */\n    tag_29:\n        /* \"#utility.yul\":1692:1721   */\n      0x4e6f7420656e6f7567682066756e6473206f6e206163636f756e740000000000\n        /* \"#utility.yul\":1688:1689   */\n      0x00\n        /* \"#utility.yul\":1680:1686   */\n      dup3\n        /* \"#utility.yul\":1676:1690   */\n      add\n        /* \"#utility.yul\":1669:1722   */\n      mstore\n        /* \"#utility.yul\":1552:1729   */\n      pop\n      jump\t// out\n        /* \"#utility.yul\":1735:2101   */\n    tag_30:\n        /* \"#utility.yul\":1877:1880   */\n      0x00\n        /* \"#utility.yul\":1898:1965   */\n      tag_53\n        /* \"#utility.yul\":1962:1964   */\n      0x1b\n        /* \"#utility.yul\":1957:1960   */\n      dup4\n        /* \"#utility.yul\":1898:1965   */\n      tag_28\n      jump\t// in\n    tag_53:\n        /* \"#utility.yul\":1891:1965   */\n      swap2\n      pop\n        /* \"#utility.yul\":1974:2067   */\n      tag_54\n        /* \"#utility.yul\":2063:2066   */\n      dup3\n        /* \"#utility.yul\":1974:2067   */\n      tag_29\n      jump\t// in\n    tag_54:\n        /* \"#utility.yul\":2092:2094   */\n      0x20\n        /* \"#utility.yul\":2087:2090   */\n      dup3\n        /* \"#utility.yul\":2083:2095   */\n      add\n        /* \"#utility.yul\":2076:2095   */\n      swap1\n      pop\n        /* \"#utility.yul\":1735:2101   */\n      swap2\n      swap1\n      pop\n      jump\t// out\n        /* \"#utility.yul\":2107:2526   */\n    tag_17:\n        /* \"#utility.yul\":2273:2277   */\n      0x00\n        /* \"#utility.yul\":2311:2313   */\n      0x20\n        /* \"#utility.yul\":2300:2309   */\n      dup3\n        /* \"#utility.yul\":2296:2314   */\n      add\n        /* \"#utility.yul\":2288:2314   */\n      swap1\n      pop\n        /* \"#utility.yul\":2360:2369   */\n      dup2\n        /* \"#utility.yul\":2354:2358   */\n      dup2\n        /* \"#utility.yul\":2350:2370   */\n      sub\n        /* \"#utility.yul\":2346:2347   */\n      0x00\n        /* \"#utility.yul\":2335:2344   */\n      dup4\n        /* \"#utility.yul\":2331:2348   */\n      add\n        /* \"#utility.yul\":2324:2371   */\n      mstore\n        /* \"#utility.yul\":2388:2519   */\n      tag_56\n        /* \"#utility.yul\":2514:2518   */\n      dup2\n        /* \"#utility.yul\":2388:2519   */\n      tag_30\n      jump\t// in\n    tag_56:\n        /* \"#utility.yul\":2380:2519   */\n      swap1\n      pop\n        /* \"#utility.yul\":2107:2526   */\n      swap2\n      swap1\n      pop\n      jump\t// out\n        /* \"#utility.yul\":2532:2712   */\n    tag_31:\n        /* \"#utility.yul\":2580:2657   */\n      0x4e487b7100000000000000000000000000000000000000000000000000000000\n        /* \"#utility.yul\":2577:2578   */\n      0x00\n        /* \"#utility.yul\":2570:2658   */\n      mstore\n        /* \"#utility.yul\":2677:2681   */\n      0x11\n        /* \"#utility.yul\":2674:2675   */\n      0x04\n        /* \"#utility.yul\":2667:2682   */\n      mstore\n        /* \"#utility.yul\":2701:2705   */\n      0x24\n        /* \"#utility.yul\":2698:2699   */\n      0x00\n        /* \"#utility.yul\":2691:2706   */\n      revert\n        /* \"#utility.yul\":2718:2912   */\n    tag_20:\n        /* \"#utility.yul\":2758:2762   */\n      0x00\n        /* \"#utility.yul\":2778:2798   */\n      tag_59\n        /* \"#utility.yul\":2796:2797   */\n      dup3\n        /* \"#utility.yul\":2778:2798   */\n      tag_21\n      jump\t// in\n    tag_59:\n        /* \"#utility.yul\":2773:2798   */\n      swap2\n      pop\n        /* \"#utility.yul\":2812:2832   */\n      tag_60\n        /* \"#utility.yul\":2830:2831   */\n      dup4\n        /* \"#utility.yul\":2812:2832   */\n      tag_21\n      jump\t// in\n    tag_60:\n        /* \"#utility.yul\":2807:2832   */\n      swap3\n      pop\n        /* \"#utility.yul\":2856:2857   */\n      dup3\n        /* \"#utility.yul\":2853:2854   */\n      dup3\n        /* \"#utility.yul\":2849:2858   */\n      sub\n        /* \"#utility.yul\":2841:2858   */\n      swap1\n      pop\n        /* \"#utility.yul\":2880:2881   */\n      dup2\n        /* \"#utility.yul\":2874:2878   */\n      dup2\n        /* \"#utility.yul\":2871:2882   */\n      gt\n        /* \"#utility.yul\":2868:2905   */\n      iszero\n      tag_61\n      jumpi\n        /* \"#utility.yul\":2885:2903   */\n      tag_62\n      tag_31\n      jump\t// in\n    tag_62:\n        /* \"#utility.yul\":2868:2905   */\n    tag_61:\n        /* \"#utility.yul\":2718:2912   */\n      swap3\n      swap2\n      pop\n      pop\n      jump\t// out\n\n    auxdata: 0xa2646970667358221220dfbee5b04a792df62ecffde1e480ce3f9c930c697f317f433780a9bc6d537fca64736f6c63430008100033\n}\n",
				"bytecode": {
					"linkReferences": {},
					"object": "608060405234801561001057600080fd5b50610299806100206000396000f3fe6080604052600436106100295760003560e01c806312065fe01461002e5780635487692114610059575b600080fd5b34801561003a57600080fd5b50610043610075565b604051610050919061010a565b60405180910390f35b610073600480360381019061006e9190610156565b610081565b005b60008060000154905090565b6000800154600060020154106100cc576040517f08c379a00000000000000000000000000000000000000000000000000000000081526004016100c3906101e0565b60405180910390fd5b8060008001546100dc919061022f565b60008001819055508060006002018190555050565b6000819050919050565b610104816100f1565b82525050565b600060208201905061011f60008301846100fb565b92915050565b600080fd5b610133816100f1565b811461013e57600080fd5b50565b6000813590506101508161012a565b92915050565b60006020828403121561016c5761016b610125565b5b600061017a84828501610141565b91505092915050565b600082825260208201905092915050565b7f4e6f7420656e6f7567682066756e6473206f6e206163636f756e740000000000600082015250565b60006101ca601b83610183565b91506101d582610194565b602082019050919050565b600060208201905081810360008301526101f9816101bd565b9050919050565b7f4e487b7100000000000000000000000000000000000000000000000000000000600052601160045260246000fd5b600061023a826100f1565b9150610245836100f1565b925082820390508181111561025d5761025c610200565b5b9291505056fea2646970667358221220dfbee5b04a792df62ecffde1e480ce3f9c930c697f317f433780a9bc6d537fca64736f6c63430008100033",
					"opcodes": "PUSH1 0x80 PUSH1 0x40 MSTORE CALLVALUE DUP1 ISZERO PUSH2 0x10 JUMPI PUSH1 0x0 DUP1 REVERT JUMPDEST POP PUSH2 0x299 DUP1 PUSH2 0x20 PUSH1 0x0 CODECOPY PUSH1 0x0 RETURN INVALID PUSH1 0x80 PUSH1 0x40 MSTORE PUSH1 0x4 CALLDATASIZE LT PUSH2 0x29 JUMPI PUSH1 0x0 CALLDATALOAD PUSH1 0xE0 SHR DUP1 PUSH4 0x12065FE0 EQ PUSH2 0x2E JUMPI DUP1 PUSH4 0x54876921 EQ PUSH2 0x59 JUMPI JUMPDEST PUSH1 0x0 DUP1 REVERT JUMPDEST CALLVALUE DUP1 ISZERO PUSH2 0x3A JUMPI PUSH1 0x0 DUP1 REVERT JUMPDEST POP PUSH2 0x43 PUSH2 0x75 JUMP JUMPDEST PUSH1 0x40 MLOAD PUSH2 0x50 SWAP2 SWAP1 PUSH2 0x10A JUMP JUMPDEST PUSH1 0x40 MLOAD DUP1 SWAP2 SUB SWAP1 RETURN JUMPDEST PUSH2 0x73 PUSH1 0x4 DUP1 CALLDATASIZE SUB DUP2 ADD SWAP1 PUSH2 0x6E SWAP2 SWAP1 PUSH2 0x156 JUMP JUMPDEST PUSH2 0x81 JUMP JUMPDEST STOP JUMPDEST PUSH1 0x0 DUP1 PUSH1 0x0 ADD SLOAD SWAP1 POP SWAP1 JUMP JUMPDEST PUSH1 0x0 DUP1 ADD SLOAD PUSH1 0x0 PUSH1 0x2 ADD SLOAD LT PUSH2 0xCC JUMPI PUSH1 0x40 MLOAD PUSH32 0x8C379A000000000000000000000000000000000000000000000000000000000 DUP2 MSTORE PUSH1 0x4 ADD PUSH2 0xC3 SWAP1 PUSH2 0x1E0 JUMP JUMPDEST PUSH1 0x40 MLOAD DUP1 SWAP2 SUB SWAP1 REVERT JUMPDEST DUP1 PUSH1 0x0 DUP1 ADD SLOAD PUSH2 0xDC SWAP2 SWAP1 PUSH2 0x22F JUMP JUMPDEST PUSH1 0x0 DUP1 ADD DUP2 SWAP1 SSTORE POP DUP1 PUSH1 0x0 PUSH1 0x2 ADD DUP2 SWAP1 SSTORE POP POP JUMP JUMPDEST PUSH1 0x0 DUP2 SWAP1 POP SWAP2 SWAP1 POP JUMP JUMPDEST PUSH2 0x104 DUP2 PUSH2 0xF1 JUMP JUMPDEST DUP3 MSTORE POP POP JUMP JUMPDEST PUSH1 0x0 PUSH1 0x20 DUP3 ADD SWAP1 POP PUSH2 0x11F PUSH1 0x0 DUP4 ADD DUP5 PUSH2 0xFB JUMP JUMPDEST SWAP3 SWAP2 POP POP JUMP JUMPDEST PUSH1 0x0 DUP1 REVERT JUMPDEST PUSH2 0x133 DUP2 PUSH2 0xF1 JUMP JUMPDEST DUP2 EQ PUSH2 0x13E JUMPI PUSH1 0x0 DUP1 REVERT JUMPDEST POP JUMP JUMPDEST PUSH1 0x0 DUP2 CALLDATALOAD SWAP1 POP PUSH2 0x150 DUP2 PUSH2 0x12A JUMP JUMPDEST SWAP3 SWAP2 POP POP JUMP JUMPDEST PUSH1 0x0 PUSH1 0x20 DUP3 DUP5 SUB SLT ISZERO PUSH2 0x16C JUMPI PUSH2 0x16B PUSH2 0x125 JUMP JUMPDEST JUMPDEST PUSH1 0x0 PUSH2 0x17A DUP5 DUP3 DUP6 ADD PUSH2 0x141 JUMP JUMPDEST SWAP2 POP POP SWAP3 SWAP2 POP POP JUMP JUMPDEST PUSH1 0x0 DUP3 DUP3 MSTORE PUSH1 0x20 DUP3 ADD SWAP1 POP SWAP3 SWAP2 POP POP JUMP JUMPDEST PUSH32 0x4E6F7420656E6F7567682066756E6473206F6E206163636F756E740000000000 PUSH1 0x0 DUP3 ADD MSTORE POP JUMP JUMPDEST PUSH1 0x0 PUSH2 0x1CA PUSH1 0x1B DUP4 PUSH2 0x183 JUMP JUMPDEST SWAP2 POP PUSH2 0x1D5 DUP3 PUSH2 0x194 JUMP JUMPDEST PUSH1 0x20 DUP3 ADD SWAP1 POP SWAP2 SWAP1 POP JUMP JUMPDEST PUSH1 0x0 PUSH1 0x20 DUP3 ADD SWAP1 POP DUP2 DUP2 SUB PUSH1 0x0 DUP4 ADD MSTORE PUSH2 0x1F9 DUP2 PUSH2 0x1BD JUMP JUMPDEST SWAP1 POP SWAP2 SWAP1 POP JUMP JUMPDEST PUSH32 0x4E487B7100000000000000000000000000000000000000000000000000000000 PUSH1 0x0 MSTORE PUSH1 0x11 PUSH1 0x4 MSTORE PUSH1 0x24 PUSH1 0x0 REVERT JUMPDEST PUSH1 0x0 PUSH2 0x23A DUP3 PUSH2 0xF1 JUMP JUMPDEST SWAP2 POP PUSH2 0x245 DUP4 PUSH2 0xF1 JUMP JUMPDEST SWAP3 POP DUP3 DUP3 SUB SWAP1 POP DUP2 DUP2 GT ISZERO PUSH2 0x25D JUMPI PUSH2 0x25C PUSH2 0x200 JUMP JUMPDEST JUMPDEST SWAP3 SWAP2 POP POP JUMP INVALID LOG2 PUSH5 0x6970667358 0x22 SLT KECCAK256 0xDF 0xBE 0xE5 0xB0 0x4A PUSH26 0x2DF62ECFFDE1E480CE3F9C930C697F317F433780A9BC6D537FCA PUSH5 0x736F6C6343 STOP ADDMOD LT STOP CALLER "
				},
				"gasEstimates": {
					"creation": {
						"codeDepositCost": "133000",
						"executionCost": "177",
						"totalCost": "133177"
					},
					"external": {
						"getBalance()": "2421",
						"withdrawMoney(uint256)": "infinite"
					},
					"internal": {
						"deposit(uint256)": "infinite"
					}
				},
				"methodIdentifiers": {
					"getBalance()": "12065fe0",
					"withdrawMoney(uint256)": "54876921"
				}
			},
			"storageLayout": {
				"storage": [
					{
						"astId": 11,
						"contract": "Dapp/Receiver.sol:Receiver",
						"label": "rd",
						"offset": 0,
						"slot": "0",
						"type": "t_struct(ReceiverDetails)8_storage"
					}
				],
				"types": {
					"t_struct(ReceiverDetails)8_storage": {
						"encoding": "inplace",
						"label": "struct Receiver.ReceiverDetails",
						"members": [
							{
								"astId": 3,
								"contract": "Dapp/Receiver.sol:Receiver",
								"label": "totalFunds",
								"offset": 0,
								"slot": "0",
								"type": "t_uint256"
							},
							{
								"astId": 5,
								"contract": "Dapp/Receiver.sol:Receiver",
								"label": "amount",
								"offset": 0,
								"slot": "1",
								"type": "t_uint256"
							},
							{
								"astId": 7,
								"contract": "Dapp/Receiver.sol:Receiver",
								"label": "money",
								"offset": 0,
								"slot": "2",
								"type": "t_uint256"
							}
						],
						"numberOfBytes": "96"
					},
					"t_uint256": {
						"encoding": "inplace",
						"label": "uint256",
						"numberOfBytes": "32"
					}
				}
			},
			"userdoc": {
				"kind": "user",
				"methods": {},
				"version": 1
			}
		}
	}
}