{
	"Dapp/MoneyTransfer.sol": {
		"MoneyTransfer": {
			"abi": [
				{
					"inputs": [
						{
							"internalType": "uint256",
							"name": "_totalFunds",
							"type": "uint256"
						},
						{
							"internalType": "string",
							"name": "_cardNumber",
							"type": "string"
						},
						{
							"internalType": "string",
							"name": "_cvv",
							"type": "string"
						}
					],
					"stateMutability": "nonpayable",
					"type": "constructor"
				},
				{
					"inputs": [],
					"name": "TotalAmount",
					"outputs": [
						{
							"internalType": "uint256",
							"name": "",
							"type": "uint256"
						}
					],
					"stateMutability": "view",
					"type": "function"
				},
				{
					"inputs": [],
					"name": "TotalFunds",
					"outputs": [
						{
							"internalType": "uint256",
							"name": "",
							"type": "uint256"
						}
					],
					"stateMutability": "view",
					"type": "function"
				},
				{
					"inputs": [],
					"name": "amount",
					"outputs": [
						{
							"internalType": "uint256",
							"name": "",
							"type": "uint256"
						}
					],
					"stateMutability": "view",
					"type": "function"
				},
				{
					"inputs": [],
					"name": "callCount",
					"outputs": [
						{
							"internalType": "uint256",
							"name": "",
							"type": "uint256"
						}
					],
					"stateMutability": "view",
					"type": "function"
				},
				{
					"inputs": [],
					"name": "cardNumber",
					"outputs": [
						{
							"internalType": "string",
							"name": "",
							"type": "string"
						}
					],
					"stateMutability": "view",
					"type": "function"
				},
				{
					"inputs": [],
					"name": "countTransfer",
					"outputs": [
						{
							"internalType": "uint256",
							"name": "",
							"type": "uint256"
						}
					],
					"stateMutability": "view",
					"type": "function"
				},
				{
					"inputs": [],
					"name": "cvv",
					"outputs": [
						{
							"internalType": "string",
							"name": "",
							"type": "string"
						}
					],
					"stateMutability": "view",
					"type": "function"
				},
				{
					"inputs": [],
					"name": "firstTransferTime",
					"outputs": [
						{
							"internalType": "uint256",
							"name": "",
							"type": "uint256"
						}
					],
					"stateMutability": "view",
					"type": "function"
				},
				{
					"inputs": [],
					"name": "getOutCard",
					"outputs": [],
					"stateMutability": "nonpayable",
					"type": "function"
				},
				{
					"inputs": [],
					"name": "message",
					"outputs": [
						{
							"internalType": "string",
							"name": "",
							"type": "string"
						}
					],
					"stateMutability": "view",
					"type": "function"
				},
				{
					"inputs": [],
					"name": "receiverFunds",
					"outputs": [
						{
							"internalType": "uint256",
							"name": "",
							"type": "uint256"
						}
					],
					"stateMutability": "view",
					"type": "function"
				},
				{
					"inputs": [
						{
							"internalType": "uint256",
							"name": "_amount",
							"type": "uint256"
						},
						{
							"internalType": "address",
							"name": "_receiver",
							"type": "address"
						}
					],
					"name": "sendMoney",
					"outputs": [],
					"stateMutability": "nonpayable",
					"type": "function"
				},
				{
					"inputs": [
						{
							"internalType": "string",
							"name": "_cardNumber",
							"type": "string"
						},
						{
							"internalType": "string",
							"name": "_cvv",
							"type": "string"
						}
					],
					"name": "setCard",
					"outputs": [],
					"stateMutability": "nonpayable",
					"type": "function"
				},
				{
					"inputs": [],
					"name": "totalWeekTransactions",
					"outputs": [
						{
							"internalType": "uint256",
							"name": "",
							"type": "uint256"
						}
					],
					"stateMutability": "view",
					"type": "function"
				}
			],
			"devdoc": {
				"kind": "dev",
				"methods": {},
				"version": 1
			},
			"evm": {
				"assembly": "    /* \"Dapp/MoneyTransfer.sol\":71:2582  contract  MoneyTransfer {... */\n  mstore(0x40, 0x80)\n    /* \"Dapp/MoneyTransfer.sol\":237:245  24 hours */\n  0x015180\n    /* \"Dapp/MoneyTransfer.sol\":226:245  uint day = 24 hours */\n  0x03\n  sstore\n    /* \"Dapp/MoneyTransfer.sol\":814:815  0 */\n  0x00\n    /* \"Dapp/MoneyTransfer.sol\":790:815  uint public callCount = 0 */\n  0x0f\n  sstore\n    /* \"Dapp/MoneyTransfer.sol\":599:778  constructor (uint256 _totalFunds, string memory _cardNumber, string memory _cvv){... */\n  callvalue\n  dup1\n  iszero\n  tag_1\n  jumpi\n  0x00\n  dup1\n  revert\ntag_1:\n  pop\n  mload(0x40)\n  sub(codesize, bytecodeSize)\n  dup1\n  bytecodeSize\n  dup4\n  codecopy\n  dup2\n  dup2\n  add\n  0x40\n  mstore\n  dup2\n  add\n  swap1\n  tag_2\n  swap2\n  swap1\n  tag_3\n  jump\t// in\ntag_2:\n    /* \"Dapp/MoneyTransfer.sol\":703:714  _cardNumber */\n  dup2\n    /* \"Dapp/MoneyTransfer.sol\":690:700  cardNumber */\n  0x0a\n    /* \"Dapp/MoneyTransfer.sol\":690:714  cardNumber = _cardNumber */\n  swap1\n  dup2\n  tag_6\n  swap2\n  swap1\n  tag_7\n  jump\t// in\ntag_6:\n  pop\n    /* \"Dapp/MoneyTransfer.sol\":731:735  _cvv */\n  dup1\n    /* \"Dapp/MoneyTransfer.sol\":725:728  cvv */\n  0x0b\n    /* \"Dapp/MoneyTransfer.sol\":725:735  cvv = _cvv */\n  swap1\n  dup2\n  tag_8\n  swap2\n  swap1\n  tag_7\n  jump\t// in\ntag_8:\n  pop\n    /* \"Dapp/MoneyTransfer.sol\":759:770  _totalFunds */\n  dup3\n    /* \"Dapp/MoneyTransfer.sol\":746:756  TotalFunds */\n  0x01\n    /* \"Dapp/MoneyTransfer.sol\":746:770  TotalFunds = _totalFunds */\n  dup2\n  swap1\n  sstore\n  pop\n    /* \"Dapp/MoneyTransfer.sol\":599:778  constructor (uint256 _totalFunds, string memory _cardNumber, string memory _cvv){... */\n  pop\n  pop\n  pop\n    /* \"Dapp/MoneyTransfer.sol\":71:2582  contract  MoneyTransfer {... */\n  jump(tag_9)\n    /* \"#utility.yul\":7:82   */\ntag_10:\n    /* \"#utility.yul\":40:46   */\n  0x00\n    /* \"#utility.yul\":73:75   */\n  0x40\n    /* \"#utility.yul\":67:76   */\n  mload\n    /* \"#utility.yul\":57:76   */\n  swap1\n  pop\n    /* \"#utility.yul\":7:82   */\n  swap1\n  jump\t// out\n    /* \"#utility.yul\":88:205   */\ntag_11:\n    /* \"#utility.yul\":197:198   */\n  0x00\n    /* \"#utility.yul\":194:195   */\n  dup1\n    /* \"#utility.yul\":187:199   */\n  revert\n    /* \"#utility.yul\":211:328   */\ntag_12:\n    /* \"#utility.yul\":320:321   */\n  0x00\n    /* \"#utility.yul\":317:318   */\n  dup1\n    /* \"#utility.yul\":310:322   */\n  revert\n    /* \"#utility.yul\":334:411   */\ntag_13:\n    /* \"#utility.yul\":371:378   */\n  0x00\n    /* \"#utility.yul\":400:405   */\n  dup2\n    /* \"#utility.yul\":389:405   */\n  swap1\n  pop\n    /* \"#utility.yul\":334:411   */\n  swap2\n  swap1\n  pop\n  jump\t// out\n    /* \"#utility.yul\":417:539   */\ntag_14:\n    /* \"#utility.yul\":490:514   */\n  tag_50\n    /* \"#utility.yul\":508:513   */\n  dup2\n    /* \"#utility.yul\":490:514   */\n  tag_13\n  jump\t// in\ntag_50:\n    /* \"#utility.yul\":483:488   */\n  dup2\n    /* \"#utility.yul\":480:515   */\n  eq\n    /* \"#utility.yul\":470:533   */\n  tag_51\n  jumpi\n    /* \"#utility.yul\":529:530   */\n  0x00\n    /* \"#utility.yul\":526:527   */\n  dup1\n    /* \"#utility.yul\":519:531   */\n  revert\n    /* \"#utility.yul\":470:533   */\ntag_51:\n    /* \"#utility.yul\":417:539   */\n  pop\n  jump\t// out\n    /* \"#utility.yul\":545:688   */\ntag_15:\n    /* \"#utility.yul\":602:607   */\n  0x00\n    /* \"#utility.yul\":633:639   */\n  dup2\n    /* \"#utility.yul\":627:640   */\n  mload\n    /* \"#utility.yul\":618:640   */\n  swap1\n  pop\n    /* \"#utility.yul\":649:682   */\n  tag_53\n    /* \"#utility.yul\":676:681   */\n  dup2\n    /* \"#utility.yul\":649:682   */\n  tag_14\n  jump\t// in\ntag_53:\n    /* \"#utility.yul\":545:688   */\n  swap3\n  swap2\n  pop\n  pop\n  jump\t// out\n    /* \"#utility.yul\":694:811   */\ntag_16:\n    /* \"#utility.yul\":803:804   */\n  0x00\n    /* \"#utility.yul\":800:801   */\n  dup1\n    /* \"#utility.yul\":793:805   */\n  revert\n    /* \"#utility.yul\":817:934   */\ntag_17:\n    /* \"#utility.yul\":926:927   */\n  0x00\n    /* \"#utility.yul\":923:924   */\n  dup1\n    /* \"#utility.yul\":916:928   */\n  revert\n    /* \"#utility.yul\":940:1042   */\ntag_18:\n    /* \"#utility.yul\":981:987   */\n  0x00\n    /* \"#utility.yul\":1032:1034   */\n  0x1f\n    /* \"#utility.yul\":1028:1035   */\n  not\n    /* \"#utility.yul\":1023:1025   */\n  0x1f\n    /* \"#utility.yul\":1016:1021   */\n  dup4\n    /* \"#utility.yul\":1012:1026   */\n  add\n    /* \"#utility.yul\":1008:1036   */\n  and\n    /* \"#utility.yul\":998:1036   */\n  swap1\n  pop\n    /* \"#utility.yul\":940:1042   */\n  swap2\n  swap1\n  pop\n  jump\t// out\n    /* \"#utility.yul\":1048:1228   */\ntag_19:\n    /* \"#utility.yul\":1096:1173   */\n  0x4e487b7100000000000000000000000000000000000000000000000000000000\n    /* \"#utility.yul\":1093:1094   */\n  0x00\n    /* \"#utility.yul\":1086:1174   */\n  mstore\n    /* \"#utility.yul\":1193:1197   */\n  0x41\n    /* \"#utility.yul\":1190:1191   */\n  0x04\n    /* \"#utility.yul\":1183:1198   */\n  mstore\n    /* \"#utility.yul\":1217:1221   */\n  0x24\n    /* \"#utility.yul\":1214:1215   */\n  0x00\n    /* \"#utility.yul\":1207:1222   */\n  revert\n    /* \"#utility.yul\":1234:1515   */\ntag_20:\n    /* \"#utility.yul\":1317:1344   */\n  tag_59\n    /* \"#utility.yul\":1339:1343   */\n  dup3\n    /* \"#utility.yul\":1317:1344   */\n  tag_18\n  jump\t// in\ntag_59:\n    /* \"#utility.yul\":1309:1315   */\n  dup2\n    /* \"#utility.yul\":1305:1345   */\n  add\n    /* \"#utility.yul\":1447:1453   */\n  dup2\n    /* \"#utility.yul\":1435:1445   */\n  dup2\n    /* \"#utility.yul\":1432:1454   */\n  lt\n    /* \"#utility.yul\":1411:1429   */\n  0xffffffffffffffff\n    /* \"#utility.yul\":1399:1409   */\n  dup3\n    /* \"#utility.yul\":1396:1430   */\n  gt\n    /* \"#utility.yul\":1393:1455   */\n  or\n    /* \"#utility.yul\":1390:1478   */\n  iszero\n  tag_60\n  jumpi\n    /* \"#utility.yul\":1458:1476   */\n  tag_61\n  tag_19\n  jump\t// in\ntag_61:\n    /* \"#utility.yul\":1390:1478   */\ntag_60:\n    /* \"#utility.yul\":1498:1508   */\n  dup1\n    /* \"#utility.yul\":1494:1496   */\n  0x40\n    /* \"#utility.yul\":1487:1509   */\n  mstore\n    /* \"#utility.yul\":1277:1515   */\n  pop\n    /* \"#utility.yul\":1234:1515   */\n  pop\n  pop\n  jump\t// out\n    /* \"#utility.yul\":1521:1650   */\ntag_21:\n    /* \"#utility.yul\":1555:1561   */\n  0x00\n    /* \"#utility.yul\":1582:1602   */\n  tag_63\n  tag_10\n  jump\t// in\ntag_63:\n    /* \"#utility.yul\":1572:1602   */\n  swap1\n  pop\n    /* \"#utility.yul\":1611:1644   */\n  tag_64\n    /* \"#utility.yul\":1639:1643   */\n  dup3\n    /* \"#utility.yul\":1631:1637   */\n  dup3\n    /* \"#utility.yul\":1611:1644   */\n  tag_20\n  jump\t// in\ntag_64:\n    /* \"#utility.yul\":1521:1650   */\n  swap2\n  swap1\n  pop\n  jump\t// out\n    /* \"#utility.yul\":1656:1964   */\ntag_22:\n    /* \"#utility.yul\":1718:1722   */\n  0x00\n    /* \"#utility.yul\":1808:1826   */\n  0xffffffffffffffff\n    /* \"#utility.yul\":1800:1806   */\n  dup3\n    /* \"#utility.yul\":1797:1827   */\n  gt\n    /* \"#utility.yul\":1794:1850   */\n  iszero\n  tag_66\n  jumpi\n    /* \"#utility.yul\":1830:1848   */\n  tag_67\n  tag_19\n  jump\t// in\ntag_67:\n    /* \"#utility.yul\":1794:1850   */\ntag_66:\n    /* \"#utility.yul\":1868:1897   */\n  tag_68\n    /* \"#utility.yul\":1890:1896   */\n  dup3\n    /* \"#utility.yul\":1868:1897   */\n  tag_18\n  jump\t// in\ntag_68:\n    /* \"#utility.yul\":1860:1897   */\n  swap1\n  pop\n    /* \"#utility.yul\":1952:1956   */\n  0x20\n    /* \"#utility.yul\":1946:1950   */\n  dup2\n    /* \"#utility.yul\":1942:1957   */\n  add\n    /* \"#utility.yul\":1934:1957   */\n  swap1\n  pop\n    /* \"#utility.yul\":1656:1964   */\n  swap2\n  swap1\n  pop\n  jump\t// out\n    /* \"#utility.yul\":1970:2277   */\ntag_23:\n    /* \"#utility.yul\":2038:2039   */\n  0x00\n    /* \"#utility.yul\":2048:2161   */\ntag_70:\n    /* \"#utility.yul\":2062:2068   */\n  dup4\n    /* \"#utility.yul\":2059:2060   */\n  dup2\n    /* \"#utility.yul\":2056:2069   */\n  lt\n    /* \"#utility.yul\":2048:2161   */\n  iszero\n  tag_72\n  jumpi\n    /* \"#utility.yul\":2147:2148   */\n  dup1\n    /* \"#utility.yul\":2142:2145   */\n  dup3\n    /* \"#utility.yul\":2138:2149   */\n  add\n    /* \"#utility.yul\":2132:2150   */\n  mload\n    /* \"#utility.yul\":2128:2129   */\n  dup2\n    /* \"#utility.yul\":2123:2126   */\n  dup5\n    /* \"#utility.yul\":2119:2130   */\n  add\n    /* \"#utility.yul\":2112:2151   */\n  mstore\n    /* \"#utility.yul\":2084:2086   */\n  0x20\n    /* \"#utility.yul\":2081:2082   */\n  dup2\n    /* \"#utility.yul\":2077:2087   */\n  add\n    /* \"#utility.yul\":2072:2087   */\n  swap1\n  pop\n    /* \"#utility.yul\":2048:2161   */\n  jump(tag_70)\ntag_72:\n    /* \"#utility.yul\":2179:2185   */\n  dup4\n    /* \"#utility.yul\":2176:2177   */\n  dup2\n    /* \"#utility.yul\":2173:2186   */\n  gt\n    /* \"#utility.yul\":2170:2271   */\n  iszero\n  tag_73\n  jumpi\n    /* \"#utility.yul\":2259:2260   */\n  0x00\n    /* \"#utility.yul\":2250:2256   */\n  dup5\n    /* \"#utility.yul\":2245:2248   */\n  dup5\n    /* \"#utility.yul\":2241:2257   */\n  add\n    /* \"#utility.yul\":2234:2261   */\n  mstore\n    /* \"#utility.yul\":2170:2271   */\ntag_73:\n    /* \"#utility.yul\":2019:2277   */\n  pop\n    /* \"#utility.yul\":1970:2277   */\n  pop\n  pop\n  pop\n  jump\t// out\n    /* \"#utility.yul\":2283:2704   */\ntag_24:\n    /* \"#utility.yul\":2372:2377   */\n  0x00\n    /* \"#utility.yul\":2397:2463   */\n  tag_75\n    /* \"#utility.yul\":2413:2462   */\n  tag_76\n    /* \"#utility.yul\":2455:2461   */\n  dup5\n    /* \"#utility.yul\":2413:2462   */\n  tag_22\n  jump\t// in\ntag_76:\n    /* \"#utility.yul\":2397:2463   */\n  tag_21\n  jump\t// in\ntag_75:\n    /* \"#utility.yul\":2388:2463   */\n  swap1\n  pop\n    /* \"#utility.yul\":2486:2492   */\n  dup3\n    /* \"#utility.yul\":2479:2484   */\n  dup2\n    /* \"#utility.yul\":2472:2493   */\n  mstore\n    /* \"#utility.yul\":2524:2528   */\n  0x20\n    /* \"#utility.yul\":2517:2522   */\n  dup2\n    /* \"#utility.yul\":2513:2529   */\n  add\n    /* \"#utility.yul\":2562:2565   */\n  dup5\n    /* \"#utility.yul\":2553:2559   */\n  dup5\n    /* \"#utility.yul\":2548:2551   */\n  dup5\n    /* \"#utility.yul\":2544:2560   */\n  add\n    /* \"#utility.yul\":2541:2566   */\n  gt\n    /* \"#utility.yul\":2538:2650   */\n  iszero\n  tag_77\n  jumpi\n    /* \"#utility.yul\":2569:2648   */\n  tag_78\n  tag_17\n  jump\t// in\ntag_78:\n    /* \"#utility.yul\":2538:2650   */\ntag_77:\n    /* \"#utility.yul\":2659:2698   */\n  tag_79\n    /* \"#utility.yul\":2691:2697   */\n  dup5\n    /* \"#utility.yul\":2686:2689   */\n  dup3\n    /* \"#utility.yul\":2681:2684   */\n  dup6\n    /* \"#utility.yul\":2659:2698   */\n  tag_23\n  jump\t// in\ntag_79:\n    /* \"#utility.yul\":2378:2704   */\n  pop\n    /* \"#utility.yul\":2283:2704   */\n  swap4\n  swap3\n  pop\n  pop\n  pop\n  jump\t// out\n    /* \"#utility.yul\":2724:3079   */\ntag_25:\n    /* \"#utility.yul\":2791:2796   */\n  0x00\n    /* \"#utility.yul\":2840:2843   */\n  dup3\n    /* \"#utility.yul\":2833:2837   */\n  0x1f\n    /* \"#utility.yul\":2825:2831   */\n  dup4\n    /* \"#utility.yul\":2821:2838   */\n  add\n    /* \"#utility.yul\":2817:2844   */\n  slt\n    /* \"#utility.yul\":2807:2929   */\n  tag_81\n  jumpi\n    /* \"#utility.yul\":2848:2927   */\n  tag_82\n  tag_16\n  jump\t// in\ntag_82:\n    /* \"#utility.yul\":2807:2929   */\ntag_81:\n    /* \"#utility.yul\":2958:2964   */\n  dup2\n    /* \"#utility.yul\":2952:2965   */\n  mload\n    /* \"#utility.yul\":2983:3073   */\n  tag_83\n    /* \"#utility.yul\":3069:3072   */\n  dup5\n    /* \"#utility.yul\":3061:3067   */\n  dup3\n    /* \"#utility.yul\":3054:3058   */\n  0x20\n    /* \"#utility.yul\":3046:3052   */\n  dup7\n    /* \"#utility.yul\":3042:3059   */\n  add\n    /* \"#utility.yul\":2983:3073   */\n  tag_24\n  jump\t// in\ntag_83:\n    /* \"#utility.yul\":2974:3073   */\n  swap2\n  pop\n    /* \"#utility.yul\":2797:3079   */\n  pop\n    /* \"#utility.yul\":2724:3079   */\n  swap3\n  swap2\n  pop\n  pop\n  jump\t// out\n    /* \"#utility.yul\":3085:4094   */\ntag_3:\n    /* \"#utility.yul\":3193:3199   */\n  0x00\n    /* \"#utility.yul\":3201:3207   */\n  dup1\n    /* \"#utility.yul\":3209:3215   */\n  0x00\n    /* \"#utility.yul\":3258:3260   */\n  0x60\n    /* \"#utility.yul\":3246:3255   */\n  dup5\n    /* \"#utility.yul\":3237:3244   */\n  dup7\n    /* \"#utility.yul\":3233:3256   */\n  sub\n    /* \"#utility.yul\":3229:3261   */\n  slt\n    /* \"#utility.yul\":3226:3345   */\n  iszero\n  tag_85\n  jumpi\n    /* \"#utility.yul\":3264:3343   */\n  tag_86\n  tag_11\n  jump\t// in\ntag_86:\n    /* \"#utility.yul\":3226:3345   */\ntag_85:\n    /* \"#utility.yul\":3384:3385   */\n  0x00\n    /* \"#utility.yul\":3409:3473   */\n  tag_87\n    /* \"#utility.yul\":3465:3472   */\n  dup7\n    /* \"#utility.yul\":3456:3462   */\n  dup3\n    /* \"#utility.yul\":3445:3454   */\n  dup8\n    /* \"#utility.yul\":3441:3463   */\n  add\n    /* \"#utility.yul\":3409:3473   */\n  tag_15\n  jump\t// in\ntag_87:\n    /* \"#utility.yul\":3399:3473   */\n  swap4\n  pop\n    /* \"#utility.yul\":3355:3483   */\n  pop\n    /* \"#utility.yul\":3543:3545   */\n  0x20\n    /* \"#utility.yul\":3532:3541   */\n  dup5\n    /* \"#utility.yul\":3528:3546   */\n  add\n    /* \"#utility.yul\":3522:3547   */\n  mload\n    /* \"#utility.yul\":3574:3592   */\n  0xffffffffffffffff\n    /* \"#utility.yul\":3566:3572   */\n  dup2\n    /* \"#utility.yul\":3563:3593   */\n  gt\n    /* \"#utility.yul\":3560:3677   */\n  iszero\n  tag_88\n  jumpi\n    /* \"#utility.yul\":3596:3675   */\n  tag_89\n  tag_12\n  jump\t// in\ntag_89:\n    /* \"#utility.yul\":3560:3677   */\ntag_88:\n    /* \"#utility.yul\":3701:3775   */\n  tag_90\n    /* \"#utility.yul\":3767:3774   */\n  dup7\n    /* \"#utility.yul\":3758:3764   */\n  dup3\n    /* \"#utility.yul\":3747:3756   */\n  dup8\n    /* \"#utility.yul\":3743:3765   */\n  add\n    /* \"#utility.yul\":3701:3775   */\n  tag_25\n  jump\t// in\ntag_90:\n    /* \"#utility.yul\":3691:3775   */\n  swap3\n  pop\n    /* \"#utility.yul\":3493:3785   */\n  pop\n    /* \"#utility.yul\":3845:3847   */\n  0x40\n    /* \"#utility.yul\":3834:3843   */\n  dup5\n    /* \"#utility.yul\":3830:3848   */\n  add\n    /* \"#utility.yul\":3824:3849   */\n  mload\n    /* \"#utility.yul\":3876:3894   */\n  0xffffffffffffffff\n    /* \"#utility.yul\":3868:3874   */\n  dup2\n    /* \"#utility.yul\":3865:3895   */\n  gt\n    /* \"#utility.yul\":3862:3979   */\n  iszero\n  tag_91\n  jumpi\n    /* \"#utility.yul\":3898:3977   */\n  tag_92\n  tag_12\n  jump\t// in\ntag_92:\n    /* \"#utility.yul\":3862:3979   */\ntag_91:\n    /* \"#utility.yul\":4003:4077   */\n  tag_93\n    /* \"#utility.yul\":4069:4076   */\n  dup7\n    /* \"#utility.yul\":4060:4066   */\n  dup3\n    /* \"#utility.yul\":4049:4058   */\n  dup8\n    /* \"#utility.yul\":4045:4067   */\n  add\n    /* \"#utility.yul\":4003:4077   */\n  tag_25\n  jump\t// in\ntag_93:\n    /* \"#utility.yul\":3993:4077   */\n  swap2\n  pop\n    /* \"#utility.yul\":3795:4087   */\n  pop\n    /* \"#utility.yul\":3085:4094   */\n  swap3\n  pop\n  swap3\n  pop\n  swap3\n  jump\t// out\n    /* \"#utility.yul\":4100:4199   */\ntag_26:\n    /* \"#utility.yul\":4152:4158   */\n  0x00\n    /* \"#utility.yul\":4186:4191   */\n  dup2\n    /* \"#utility.yul\":4180:4192   */\n  mload\n    /* \"#utility.yul\":4170:4192   */\n  swap1\n  pop\n    /* \"#utility.yul\":4100:4199   */\n  swap2\n  swap1\n  pop\n  jump\t// out\n    /* \"#utility.yul\":4205:4385   */\ntag_27:\n    /* \"#utility.yul\":4253:4330   */\n  0x4e487b7100000000000000000000000000000000000000000000000000000000\n    /* \"#utility.yul\":4250:4251   */\n  0x00\n    /* \"#utility.yul\":4243:4331   */\n  mstore\n    /* \"#utility.yul\":4350:4354   */\n  0x22\n    /* \"#utility.yul\":4347:4348   */\n  0x04\n    /* \"#utility.yul\":4340:4355   */\n  mstore\n    /* \"#utility.yul\":4374:4378   */\n  0x24\n    /* \"#utility.yul\":4371:4372   */\n  0x00\n    /* \"#utility.yul\":4364:4379   */\n  revert\n    /* \"#utility.yul\":4391:4711   */\ntag_28:\n    /* \"#utility.yul\":4435:4441   */\n  0x00\n    /* \"#utility.yul\":4472:4473   */\n  0x02\n    /* \"#utility.yul\":4466:4470   */\n  dup3\n    /* \"#utility.yul\":4462:4474   */\n  div\n    /* \"#utility.yul\":4452:4474   */\n  swap1\n  pop\n    /* \"#utility.yul\":4519:4520   */\n  0x01\n    /* \"#utility.yul\":4513:4517   */\n  dup3\n    /* \"#utility.yul\":4509:4521   */\n  and\n    /* \"#utility.yul\":4540:4558   */\n  dup1\n    /* \"#utility.yul\":4530:4611   */\n  tag_97\n  jumpi\n    /* \"#utility.yul\":4596:4600   */\n  0x7f\n    /* \"#utility.yul\":4588:4594   */\n  dup3\n    /* \"#utility.yul\":4584:4601   */\n  and\n    /* \"#utility.yul\":4574:4601   */\n  swap2\n  pop\n    /* \"#utility.yul\":4530:4611   */\ntag_97:\n    /* \"#utility.yul\":4658:4660   */\n  0x20\n    /* \"#utility.yul\":4650:4656   */\n  dup3\n    /* \"#utility.yul\":4647:4661   */\n  lt\n    /* \"#utility.yul\":4627:4645   */\n  dup2\n    /* \"#utility.yul\":4624:4662   */\n  sub\n    /* \"#utility.yul\":4621:4705   */\n  tag_98\n  jumpi\n    /* \"#utility.yul\":4677:4695   */\n  tag_99\n  tag_27\n  jump\t// in\ntag_99:\n    /* \"#utility.yul\":4621:4705   */\ntag_98:\n    /* \"#utility.yul\":4442:4711   */\n  pop\n    /* \"#utility.yul\":4391:4711   */\n  swap2\n  swap1\n  pop\n  jump\t// out\n    /* \"#utility.yul\":4717:4858   */\ntag_29:\n    /* \"#utility.yul\":4766:4770   */\n  0x00\n    /* \"#utility.yul\":4789:4792   */\n  dup2\n    /* \"#utility.yul\":4781:4792   */\n  swap1\n  pop\n    /* \"#utility.yul\":4812:4815   */\n  dup2\n    /* \"#utility.yul\":4809:4810   */\n  0x00\n    /* \"#utility.yul\":4802:4816   */\n  mstore\n    /* \"#utility.yul\":4846:4850   */\n  0x20\n    /* \"#utility.yul\":4843:4844   */\n  0x00\n    /* \"#utility.yul\":4833:4851   */\n  keccak256\n    /* \"#utility.yul\":4825:4851   */\n  swap1\n  pop\n    /* \"#utility.yul\":4717:4858   */\n  swap2\n  swap1\n  pop\n  jump\t// out\n    /* \"#utility.yul\":4864:4957   */\ntag_30:\n    /* \"#utility.yul\":4901:4907   */\n  0x00\n    /* \"#utility.yul\":4948:4950   */\n  0x20\n    /* \"#utility.yul\":4943:4945   */\n  0x1f\n    /* \"#utility.yul\":4936:4941   */\n  dup4\n    /* \"#utility.yul\":4932:4946   */\n  add\n    /* \"#utility.yul\":4928:4951   */\n  div\n    /* \"#utility.yul\":4918:4951   */\n  swap1\n  pop\n    /* \"#utility.yul\":4864:4957   */\n  swap2\n  swap1\n  pop\n  jump\t// out\n    /* \"#utility.yul\":4963:5070   */\ntag_31:\n    /* \"#utility.yul\":5007:5015   */\n  0x00\n    /* \"#utility.yul\":5057:5062   */\n  dup3\n    /* \"#utility.yul\":5051:5055   */\n  dup3\n    /* \"#utility.yul\":5047:5063   */\n  shl\n    /* \"#utility.yul\":5026:5063   */\n  swap1\n  pop\n    /* \"#utility.yul\":4963:5070   */\n  swap3\n  swap2\n  pop\n  pop\n  jump\t// out\n    /* \"#utility.yul\":5076:5469   */\ntag_32:\n    /* \"#utility.yul\":5145:5151   */\n  0x00\n    /* \"#utility.yul\":5195:5196   */\n  0x08\n    /* \"#utility.yul\":5183:5193   */\n  dup4\n    /* \"#utility.yul\":5179:5197   */\n  mul\n    /* \"#utility.yul\":5218:5315   */\n  tag_104\n    /* \"#utility.yul\":5248:5314   */\n  0xffffffffffffffffffffffffffffffffffffffffffffffffffffffffffffffff\n    /* \"#utility.yul\":5237:5246   */\n  dup3\n    /* \"#utility.yul\":5218:5315   */\n  tag_31\n  jump\t// in\ntag_104:\n    /* \"#utility.yul\":5336:5375   */\n  tag_105\n    /* \"#utility.yul\":5366:5374   */\n  dup7\n    /* \"#utility.yul\":5355:5364   */\n  dup4\n    /* \"#utility.yul\":5336:5375   */\n  tag_31\n  jump\t// in\ntag_105:\n    /* \"#utility.yul\":5324:5375   */\n  swap6\n  pop\n    /* \"#utility.yul\":5408:5412   */\n  dup1\n    /* \"#utility.yul\":5404:5413   */\n  not\n    /* \"#utility.yul\":5397:5402   */\n  dup5\n    /* \"#utility.yul\":5393:5414   */\n  and\n    /* \"#utility.yul\":5384:5414   */\n  swap4\n  pop\n    /* \"#utility.yul\":5457:5461   */\n  dup1\n    /* \"#utility.yul\":5447:5455   */\n  dup7\n    /* \"#utility.yul\":5443:5462   */\n  and\n    /* \"#utility.yul\":5436:5441   */\n  dup5\n    /* \"#utility.yul\":5433:5463   */\n  or\n    /* \"#utility.yul\":5423:5463   */\n  swap3\n  pop\n    /* \"#utility.yul\":5152:5469   */\n  pop\n  pop\n    /* \"#utility.yul\":5076:5469   */\n  swap4\n  swap3\n  pop\n  pop\n  pop\n  jump\t// out\n    /* \"#utility.yul\":5475:5535   */\ntag_33:\n    /* \"#utility.yul\":5503:5506   */\n  0x00\n    /* \"#utility.yul\":5524:5529   */\n  dup2\n    /* \"#utility.yul\":5517:5529   */\n  swap1\n  pop\n    /* \"#utility.yul\":5475:5535   */\n  swap2\n  swap1\n  pop\n  jump\t// out\n    /* \"#utility.yul\":5541:5683   */\ntag_34:\n    /* \"#utility.yul\":5591:5600   */\n  0x00\n    /* \"#utility.yul\":5624:5677   */\n  tag_108\n    /* \"#utility.yul\":5642:5676   */\n  tag_109\n    /* \"#utility.yul\":5651:5675   */\n  tag_110\n    /* \"#utility.yul\":5669:5674   */\n  dup5\n    /* \"#utility.yul\":5651:5675   */\n  tag_13\n  jump\t// in\ntag_110:\n    /* \"#utility.yul\":5642:5676   */\n  tag_33\n  jump\t// in\ntag_109:\n    /* \"#utility.yul\":5624:5677   */\n  tag_13\n  jump\t// in\ntag_108:\n    /* \"#utility.yul\":5611:5677   */\n  swap1\n  pop\n    /* \"#utility.yul\":5541:5683   */\n  swap2\n  swap1\n  pop\n  jump\t// out\n    /* \"#utility.yul\":5689:5764   */\ntag_35:\n    /* \"#utility.yul\":5732:5735   */\n  0x00\n    /* \"#utility.yul\":5753:5758   */\n  dup2\n    /* \"#utility.yul\":5746:5758   */\n  swap1\n  pop\n    /* \"#utility.yul\":5689:5764   */\n  swap2\n  swap1\n  pop\n  jump\t// out\n    /* \"#utility.yul\":5770:6039   */\ntag_36:\n    /* \"#utility.yul\":5880:5919   */\n  tag_113\n    /* \"#utility.yul\":5911:5918   */\n  dup4\n    /* \"#utility.yul\":5880:5919   */\n  tag_34\n  jump\t// in\ntag_113:\n    /* \"#utility.yul\":5941:6032   */\n  tag_114\n    /* \"#utility.yul\":5990:6031   */\n  tag_115\n    /* \"#utility.yul\":6014:6030   */\n  dup3\n    /* \"#utility.yul\":5990:6031   */\n  tag_35\n  jump\t// in\ntag_115:\n    /* \"#utility.yul\":5982:5988   */\n  dup5\n    /* \"#utility.yul\":5975:5979   */\n  dup5\n    /* \"#utility.yul\":5969:5980   */\n  sload\n    /* \"#utility.yul\":5941:6032   */\n  tag_32\n  jump\t// in\ntag_114:\n    /* \"#utility.yul\":5935:5939   */\n  dup3\n    /* \"#utility.yul\":5928:6033   */\n  sstore\n    /* \"#utility.yul\":5846:6039   */\n  pop\n    /* \"#utility.yul\":5770:6039   */\n  pop\n  pop\n  pop\n  jump\t// out\n    /* \"#utility.yul\":6045:6118   */\ntag_37:\n    /* \"#utility.yul\":6090:6093   */\n  0x00\n    /* \"#utility.yul\":6045:6118   */\n  swap1\n  jump\t// out\n    /* \"#utility.yul\":6124:6313   */\ntag_38:\n    /* \"#utility.yul\":6201:6233   */\n  tag_118\n  tag_37\n  jump\t// in\ntag_118:\n    /* \"#utility.yul\":6242:6307   */\n  tag_119\n    /* \"#utility.yul\":6300:6306   */\n  dup2\n    /* \"#utility.yul\":6292:6298   */\n  dup5\n    /* \"#utility.yul\":6286:6290   */\n  dup5\n    /* \"#utility.yul\":6242:6307   */\n  tag_36\n  jump\t// in\ntag_119:\n    /* \"#utility.yul\":6177:6313   */\n  pop\n    /* \"#utility.yul\":6124:6313   */\n  pop\n  pop\n  jump\t// out\n    /* \"#utility.yul\":6319:6505   */\ntag_39:\n    /* \"#utility.yul\":6379:6499   */\ntag_121:\n    /* \"#utility.yul\":6396:6399   */\n  dup2\n    /* \"#utility.yul\":6389:6394   */\n  dup2\n    /* \"#utility.yul\":6386:6400   */\n  lt\n    /* \"#utility.yul\":6379:6499   */\n  iszero\n  tag_123\n  jumpi\n    /* \"#utility.yul\":6450:6489   */\n  tag_124\n    /* \"#utility.yul\":6487:6488   */\n  0x00\n    /* \"#utility.yul\":6480:6485   */\n  dup3\n    /* \"#utility.yul\":6450:6489   */\n  tag_38\n  jump\t// in\ntag_124:\n    /* \"#utility.yul\":6423:6424   */\n  0x01\n    /* \"#utility.yul\":6416:6421   */\n  dup2\n    /* \"#utility.yul\":6412:6425   */\n  add\n    /* \"#utility.yul\":6403:6425   */\n  swap1\n  pop\n    /* \"#utility.yul\":6379:6499   */\n  jump(tag_121)\ntag_123:\n    /* \"#utility.yul\":6319:6505   */\n  pop\n  pop\n  jump\t// out\n    /* \"#utility.yul\":6511:7054   */\ntag_40:\n    /* \"#utility.yul\":6612:6614   */\n  0x1f\n    /* \"#utility.yul\":6607:6610   */\n  dup3\n    /* \"#utility.yul\":6604:6615   */\n  gt\n    /* \"#utility.yul\":6601:7047   */\n  iszero\n  tag_126\n  jumpi\n    /* \"#utility.yul\":6646:6684   */\n  tag_127\n    /* \"#utility.yul\":6678:6683   */\n  dup2\n    /* \"#utility.yul\":6646:6684   */\n  tag_29\n  jump\t// in\ntag_127:\n    /* \"#utility.yul\":6730:6759   */\n  tag_128\n    /* \"#utility.yul\":6748:6758   */\n  dup5\n    /* \"#utility.yul\":6730:6759   */\n  tag_30\n  jump\t// in\ntag_128:\n    /* \"#utility.yul\":6720:6728   */\n  dup2\n    /* \"#utility.yul\":6716:6760   */\n  add\n    /* \"#utility.yul\":6913:6915   */\n  0x20\n    /* \"#utility.yul\":6901:6911   */\n  dup6\n    /* \"#utility.yul\":6898:6916   */\n  lt\n    /* \"#utility.yul\":6895:6944   */\n  iszero\n  tag_129\n  jumpi\n    /* \"#utility.yul\":6934:6942   */\n  dup2\n    /* \"#utility.yul\":6919:6942   */\n  swap1\n  pop\n    /* \"#utility.yul\":6895:6944   */\ntag_129:\n    /* \"#utility.yul\":6957:7037   */\n  tag_130\n    /* \"#utility.yul\":7013:7035   */\n  tag_131\n    /* \"#utility.yul\":7031:7034   */\n  dup6\n    /* \"#utility.yul\":7013:7035   */\n  tag_30\n  jump\t// in\ntag_131:\n    /* \"#utility.yul\":7003:7011   */\n  dup4\n    /* \"#utility.yul\":6999:7036   */\n  add\n    /* \"#utility.yul\":6986:6997   */\n  dup3\n    /* \"#utility.yul\":6957:7037   */\n  tag_39\n  jump\t// in\ntag_130:\n    /* \"#utility.yul\":6616:7047   */\n  pop\n  pop\n    /* \"#utility.yul\":6601:7047   */\ntag_126:\n    /* \"#utility.yul\":6511:7054   */\n  pop\n  pop\n  pop\n  jump\t// out\n    /* \"#utility.yul\":7060:7177   */\ntag_41:\n    /* \"#utility.yul\":7114:7122   */\n  0x00\n    /* \"#utility.yul\":7164:7169   */\n  dup3\n    /* \"#utility.yul\":7158:7162   */\n  dup3\n    /* \"#utility.yul\":7154:7170   */\n  shr\n    /* \"#utility.yul\":7133:7170   */\n  swap1\n  pop\n    /* \"#utility.yul\":7060:7177   */\n  swap3\n  swap2\n  pop\n  pop\n  jump\t// out\n    /* \"#utility.yul\":7183:7352   */\ntag_42:\n    /* \"#utility.yul\":7227:7233   */\n  0x00\n    /* \"#utility.yul\":7260:7311   */\n  tag_134\n    /* \"#utility.yul\":7308:7309   */\n  0x00\n    /* \"#utility.yul\":7304:7310   */\n  not\n    /* \"#utility.yul\":7296:7301   */\n  dup5\n    /* \"#utility.yul\":7293:7294   */\n  0x08\n    /* \"#utility.yul\":7289:7302   */\n  mul\n    /* \"#utility.yul\":7260:7311   */\n  tag_41\n  jump\t// in\ntag_134:\n    /* \"#utility.yul\":7256:7312   */\n  not\n    /* \"#utility.yul\":7341:7345   */\n  dup1\n    /* \"#utility.yul\":7335:7339   */\n  dup4\n    /* \"#utility.yul\":7331:7346   */\n  and\n    /* \"#utility.yul\":7321:7346   */\n  swap2\n  pop\n    /* \"#utility.yul\":7234:7352   */\n  pop\n    /* \"#utility.yul\":7183:7352   */\n  swap3\n  swap2\n  pop\n  pop\n  jump\t// out\n    /* \"#utility.yul\":7357:7652   */\ntag_43:\n    /* \"#utility.yul\":7433:7437   */\n  0x00\n    /* \"#utility.yul\":7579:7608   */\n  tag_136\n    /* \"#utility.yul\":7604:7607   */\n  dup4\n    /* \"#utility.yul\":7598:7602   */\n  dup4\n    /* \"#utility.yul\":7579:7608   */\n  tag_42\n  jump\t// in\ntag_136:\n    /* \"#utility.yul\":7571:7608   */\n  swap2\n  pop\n    /* \"#utility.yul\":7641:7644   */\n  dup3\n    /* \"#utility.yul\":7638:7639   */\n  0x02\n    /* \"#utility.yul\":7634:7645   */\n  mul\n    /* \"#utility.yul\":7628:7632   */\n  dup3\n    /* \"#utility.yul\":7625:7646   */\n  or\n    /* \"#utility.yul\":7617:7646   */\n  swap1\n  pop\n    /* \"#utility.yul\":7357:7652   */\n  swap3\n  swap2\n  pop\n  pop\n  jump\t// out\n    /* \"#utility.yul\":7657:9052   */\ntag_7:\n    /* \"#utility.yul\":7774:7811   */\n  tag_138\n    /* \"#utility.yul\":7807:7810   */\n  dup3\n    /* \"#utility.yul\":7774:7811   */\n  tag_26\n  jump\t// in\ntag_138:\n    /* \"#utility.yul\":7876:7894   */\n  0xffffffffffffffff\n    /* \"#utility.yul\":7868:7874   */\n  dup2\n    /* \"#utility.yul\":7865:7895   */\n  gt\n    /* \"#utility.yul\":7862:7918   */\n  iszero\n  tag_139\n  jumpi\n    /* \"#utility.yul\":7898:7916   */\n  tag_140\n  tag_19\n  jump\t// in\ntag_140:\n    /* \"#utility.yul\":7862:7918   */\ntag_139:\n    /* \"#utility.yul\":7942:7980   */\n  tag_141\n    /* \"#utility.yul\":7974:7978   */\n  dup3\n    /* \"#utility.yul\":7968:7979   */\n  sload\n    /* \"#utility.yul\":7942:7980   */\n  tag_28\n  jump\t// in\ntag_141:\n    /* \"#utility.yul\":8027:8094   */\n  tag_142\n    /* \"#utility.yul\":8087:8093   */\n  dup3\n    /* \"#utility.yul\":8079:8085   */\n  dup3\n    /* \"#utility.yul\":8073:8077   */\n  dup6\n    /* \"#utility.yul\":8027:8094   */\n  tag_40\n  jump\t// in\ntag_142:\n    /* \"#utility.yul\":8121:8122   */\n  0x00\n    /* \"#utility.yul\":8145:8149   */\n  0x20\n    /* \"#utility.yul\":8132:8149   */\n  swap1\n  pop\n    /* \"#utility.yul\":8177:8179   */\n  0x1f\n    /* \"#utility.yul\":8169:8175   */\n  dup4\n    /* \"#utility.yul\":8166:8180   */\n  gt\n    /* \"#utility.yul\":8194:8195   */\n  0x01\n    /* \"#utility.yul\":8189:8807   */\n  dup2\n  eq\n  tag_144\n  jumpi\n    /* \"#utility.yul\":8851:8852   */\n  0x00\n    /* \"#utility.yul\":8868:8874   */\n  dup5\n    /* \"#utility.yul\":8865:8942   */\n  iszero\n  tag_145\n  jumpi\n    /* \"#utility.yul\":8917:8926   */\n  dup3\n    /* \"#utility.yul\":8912:8915   */\n  dup8\n    /* \"#utility.yul\":8908:8927   */\n  add\n    /* \"#utility.yul\":8902:8928   */\n  mload\n    /* \"#utility.yul\":8893:8928   */\n  swap1\n  pop\n    /* \"#utility.yul\":8865:8942   */\ntag_145:\n    /* \"#utility.yul\":8968:9035   */\n  tag_146\n    /* \"#utility.yul\":9028:9034   */\n  dup6\n    /* \"#utility.yul\":9021:9026   */\n  dup3\n    /* \"#utility.yul\":8968:9035   */\n  tag_43\n  jump\t// in\ntag_146:\n    /* \"#utility.yul\":8962:8966   */\n  dup7\n    /* \"#utility.yul\":8955:9036   */\n  sstore\n    /* \"#utility.yul\":8824:9046   */\n  pop\n    /* \"#utility.yul\":8159:9046   */\n  jump(tag_143)\n    /* \"#utility.yul\":8189:8807   */\ntag_144:\n    /* \"#utility.yul\":8241:8245   */\n  0x1f\n    /* \"#utility.yul\":8237:8246   */\n  not\n    /* \"#utility.yul\":8229:8235   */\n  dup5\n    /* \"#utility.yul\":8225:8247   */\n  and\n    /* \"#utility.yul\":8275:8312   */\n  tag_147\n    /* \"#utility.yul\":8307:8311   */\n  dup7\n    /* \"#utility.yul\":8275:8312   */\n  tag_29\n  jump\t// in\ntag_147:\n    /* \"#utility.yul\":8334:8335   */\n  0x00\n    /* \"#utility.yul\":8348:8556   */\ntag_148:\n    /* \"#utility.yul\":8362:8369   */\n  dup3\n    /* \"#utility.yul\":8359:8360   */\n  dup2\n    /* \"#utility.yul\":8356:8370   */\n  lt\n    /* \"#utility.yul\":8348:8556   */\n  iszero\n  tag_150\n  jumpi\n    /* \"#utility.yul\":8441:8450   */\n  dup5\n    /* \"#utility.yul\":8436:8439   */\n  dup10\n    /* \"#utility.yul\":8432:8451   */\n  add\n    /* \"#utility.yul\":8426:8452   */\n  mload\n    /* \"#utility.yul\":8418:8424   */\n  dup3\n    /* \"#utility.yul\":8411:8453   */\n  sstore\n    /* \"#utility.yul\":8492:8493   */\n  0x01\n    /* \"#utility.yul\":8484:8490   */\n  dup3\n    /* \"#utility.yul\":8480:8494   */\n  add\n    /* \"#utility.yul\":8470:8494   */\n  swap2\n  pop\n    /* \"#utility.yul\":8539:8541   */\n  0x20\n    /* \"#utility.yul\":8528:8537   */\n  dup6\n    /* \"#utility.yul\":8524:8542   */\n  add\n    /* \"#utility.yul\":8511:8542   */\n  swap5\n  pop\n    /* \"#utility.yul\":8385:8389   */\n  0x20\n    /* \"#utility.yul\":8382:8383   */\n  dup2\n    /* \"#utility.yul\":8378:8390   */\n  add\n    /* \"#utility.yul\":8373:8390   */\n  swap1\n  pop\n    /* \"#utility.yul\":8348:8556   */\n  jump(tag_148)\ntag_150:\n    /* \"#utility.yul\":8584:8590   */\n  dup7\n    /* \"#utility.yul\":8575:8582   */\n  dup4\n    /* \"#utility.yul\":8572:8591   */\n  lt\n    /* \"#utility.yul\":8569:8748   */\n  iszero\n  tag_151\n  jumpi\n    /* \"#utility.yul\":8642:8651   */\n  dup5\n    /* \"#utility.yul\":8637:8640   */\n  dup10\n    /* \"#utility.yul\":8633:8652   */\n  add\n    /* \"#utility.yul\":8627:8653   */\n  mload\n    /* \"#utility.yul\":8685:8733   */\n  tag_152\n    /* \"#utility.yul\":8727:8731   */\n  0x1f\n    /* \"#utility.yul\":8719:8725   */\n  dup10\n    /* \"#utility.yul\":8715:8732   */\n  and\n    /* \"#utility.yul\":8704:8713   */\n  dup3\n    /* \"#utility.yul\":8685:8733   */\n  tag_42\n  jump\t// in\ntag_152:\n    /* \"#utility.yul\":8677:8683   */\n  dup4\n    /* \"#utility.yul\":8670:8734   */\n  sstore\n    /* \"#utility.yul\":8592:8748   */\n  pop\n    /* \"#utility.yul\":8569:8748   */\ntag_151:\n    /* \"#utility.yul\":8794:8795   */\n  0x01\n    /* \"#utility.yul\":8790:8791   */\n  0x02\n    /* \"#utility.yul\":8782:8788   */\n  dup9\n    /* \"#utility.yul\":8778:8792   */\n  mul\n    /* \"#utility.yul\":8774:8796   */\n  add\n    /* \"#utility.yul\":8768:8772   */\n  dup9\n    /* \"#utility.yul\":8761:8797   */\n  sstore\n    /* \"#utility.yul\":8196:8807   */\n  pop\n  pop\n  pop\n    /* \"#utility.yul\":8159:9046   */\ntag_143:\n  pop\n    /* \"#utility.yul\":7749:9052   */\n  pop\n  pop\n  pop\n    /* \"#utility.yul\":7657:9052   */\n  pop\n  pop\n  jump\t// out\n    /* \"Dapp/MoneyTransfer.sol\":71:2582  contract  MoneyTransfer {... */\ntag_9:\n  dataSize(sub_0)\n  dup1\n  dataOffset(sub_0)\n  0x00\n  codecopy\n  0x00\n  return\nstop\n\nsub_0: assembly {\n        /* \"Dapp/MoneyTransfer.sol\":71:2582  contract  MoneyTransfer {... */\n      mstore(0x40, 0x80)\n      callvalue\n      dup1\n      iszero\n      tag_1\n      jumpi\n      0x00\n      dup1\n      revert\n    tag_1:\n      pop\n      jumpi(tag_2, lt(calldatasize, 0x04))\n      shr(0xe0, calldataload(0x00))\n      dup1\n      0x7eb9f571\n      gt\n      tag_17\n      jumpi\n      dup1\n      0x94b5dcaa\n      gt\n      tag_18\n      jumpi\n      dup1\n      0x94b5dcaa\n      eq\n      tag_13\n      jumpi\n      dup1\n      0xaa8c217c\n      eq\n      tag_14\n      jumpi\n      dup1\n      0xbc309496\n      eq\n      tag_15\n      jumpi\n      dup1\n      0xe21f37ce\n      eq\n      tag_16\n      jumpi\n      jump(tag_2)\n    tag_18:\n      dup1\n      0x7eb9f571\n      eq\n      tag_10\n      jumpi\n      dup1\n      0x8e029c0b\n      eq\n      tag_11\n      jumpi\n      dup1\n      0x8fa11864\n      eq\n      tag_12\n      jumpi\n      jump(tag_2)\n    tag_17:\n      dup1\n      0x34f5ccde\n      gt\n      tag_19\n      jumpi\n      dup1\n      0x34f5ccde\n      eq\n      tag_6\n      jumpi\n      dup1\n      0x42fb7936\n      eq\n      tag_7\n      jumpi\n      dup1\n      0x4b28f9a2\n      eq\n      tag_8\n      jumpi\n      dup1\n      0x7b9a3f4c\n      eq\n      tag_9\n      jumpi\n      jump(tag_2)\n    tag_19:\n      dup1\n      0x062a7544\n      eq\n      tag_3\n      jumpi\n      dup1\n      0x0e85fa72\n      eq\n      tag_4\n      jumpi\n      dup1\n      0x12a029a4\n      eq\n      tag_5\n      jumpi\n    tag_2:\n      0x00\n      dup1\n      revert\n        /* \"Dapp/MoneyTransfer.sol\":825:1427  function sendMoney( uint _amount, address _receiver) public m_validAddress(_receiver) m_checkCard m_transferLimit{... */\n    tag_3:\n      tag_20\n      0x04\n      dup1\n      calldatasize\n      sub\n      dup2\n      add\n      swap1\n      tag_21\n      swap2\n      swap1\n      tag_22\n      jump\t// in\n    tag_21:\n      tag_23\n      jump\t// in\n    tag_20:\n      stop\n        /* \"Dapp/MoneyTransfer.sol\":524:553  uint public firstTransferTime */\n    tag_4:\n      tag_24\n      tag_25\n      jump\t// in\n    tag_24:\n      mload(0x40)\n      tag_26\n      swap2\n      swap1\n      tag_27\n      jump\t// in\n    tag_26:\n      mload(0x40)\n      dup1\n      swap2\n      sub\n      swap1\n      return\n        /* \"Dapp/MoneyTransfer.sol\":1435:1575  function setCard( string memory _cardNumber, string memory _cvv) public {... */\n    tag_5:\n      tag_28\n      0x04\n      dup1\n      calldatasize\n      sub\n      dup2\n      add\n      swap1\n      tag_29\n      swap2\n      swap1\n      tag_30\n      jump\t// in\n    tag_29:\n      tag_31\n      jump\t// in\n    tag_28:\n      stop\n        /* \"Dapp/MoneyTransfer.sol\":560:585  uint public countTransfer */\n    tag_6:\n      tag_32\n      tag_33\n      jump\t// in\n    tag_32:\n      mload(0x40)\n      tag_34\n      swap2\n      swap1\n      tag_27\n      jump\t// in\n    tag_34:\n      mload(0x40)\n      dup1\n      swap2\n      sub\n      swap1\n      return\n        /* \"Dapp/MoneyTransfer.sol\":470:487  string public cvv */\n    tag_7:\n      tag_35\n      tag_36\n      jump\t// in\n    tag_35:\n      mload(0x40)\n      tag_37\n      swap2\n      swap1\n      tag_38\n      jump\t// in\n    tag_37:\n      mload(0x40)\n      dup1\n      swap2\n      sub\n      swap1\n      return\n        /* \"Dapp/MoneyTransfer.sol\":790:815  uint public callCount = 0 */\n    tag_8:\n      tag_39\n      tag_40\n      jump\t// in\n    tag_39:\n      mload(0x40)\n      tag_41\n      swap2\n      swap1\n      tag_27\n      jump\t// in\n    tag_41:\n      mload(0x40)\n      dup1\n      swap2\n      sub\n      swap1\n      return\n        /* \"Dapp/MoneyTransfer.sol\":134:159  uint256 public TotalFunds */\n    tag_9:\n      tag_42\n      tag_43\n      jump\t// in\n    tag_42:\n      mload(0x40)\n      tag_44\n      swap2\n      swap1\n      tag_27\n      jump\t// in\n    tag_44:\n      mload(0x40)\n      dup1\n      swap2\n      sub\n      swap1\n      return\n        /* \"Dapp/MoneyTransfer.sol\":494:520  uint256 public TotalAmount */\n    tag_10:\n      tag_45\n      tag_46\n      jump\t// in\n    tag_45:\n      mload(0x40)\n      tag_47\n      swap2\n      swap1\n      tag_27\n      jump\t// in\n    tag_47:\n      mload(0x40)\n      dup1\n      swap2\n      sub\n      swap1\n      return\n        /* \"Dapp/MoneyTransfer.sol\":1585:1721  function getOutCard() public  {... */\n    tag_11:\n      tag_48\n      tag_49\n      jump\t// in\n    tag_48:\n      stop\n        /* \"Dapp/MoneyTransfer.sol\":438:462  string public cardNumber */\n    tag_12:\n      tag_50\n      tag_51\n      jump\t// in\n    tag_50:\n      mload(0x40)\n      tag_52\n      swap2\n      swap1\n      tag_38\n      jump\t// in\n    tag_52:\n      mload(0x40)\n      dup1\n      swap2\n      sub\n      swap1\n      return\n        /* \"Dapp/MoneyTransfer.sol\":252:288  uint256 public totalWeekTransactions */\n    tag_13:\n      tag_53\n      tag_54\n      jump\t// in\n    tag_53:\n      mload(0x40)\n      tag_55\n      swap2\n      swap1\n      tag_27\n      jump\t// in\n    tag_55:\n      mload(0x40)\n      dup1\n      swap2\n      sub\n      swap1\n      return\n        /* \"Dapp/MoneyTransfer.sol\":106:127  uint256 public amount */\n    tag_14:\n      tag_56\n      tag_57\n      jump\t// in\n    tag_56:\n      mload(0x40)\n      tag_58\n      swap2\n      swap1\n      tag_27\n      jump\t// in\n    tag_58:\n      mload(0x40)\n      dup1\n      swap2\n      sub\n      swap1\n      return\n        /* \"Dapp/MoneyTransfer.sol\":375:403  uint256 public receiverFunds */\n    tag_15:\n      tag_59\n      tag_60\n      jump\t// in\n    tag_59:\n      mload(0x40)\n      tag_61\n      swap2\n      swap1\n      tag_27\n      jump\t// in\n    tag_61:\n      mload(0x40)\n      dup1\n      swap2\n      sub\n      swap1\n      return\n        /* \"Dapp/MoneyTransfer.sol\":410:431  string public message */\n    tag_16:\n      tag_62\n      tag_63\n      jump\t// in\n    tag_62:\n      mload(0x40)\n      tag_64\n      swap2\n      swap1\n      tag_38\n      jump\t// in\n    tag_64:\n      mload(0x40)\n      dup1\n      swap2\n      sub\n      swap1\n      return\n        /* \"Dapp/MoneyTransfer.sol\":825:1427  function sendMoney( uint _amount, address _receiver) public m_validAddress(_receiver) m_checkCard m_transferLimit{... */\n    tag_23:\n        /* \"Dapp/MoneyTransfer.sol\":900:909  _receiver */\n      dup1\n        /* \"Dapp/MoneyTransfer.sol\":1790:1795  _addr */\n      dup1\n        /* \"Dapp/MoneyTransfer.sol\":1779:1787  receiver */\n      0x02\n      0x00\n        /* \"Dapp/MoneyTransfer.sol\":1779:1795  receiver = _addr */\n      0x0100\n      exp\n      dup2\n      sload\n      dup2\n      0xffffffffffffffffffffffffffffffffffffffff\n      mul\n      not\n      and\n      swap1\n      dup4\n      0xffffffffffffffffffffffffffffffffffffffff\n      and\n      mul\n      or\n      swap1\n      sstore\n      pop\n        /* \"Dapp/MoneyTransfer.sol\":1831:1832  0 */\n      0x00\n        /* \"Dapp/MoneyTransfer.sol\":1814:1833  _addr != address(0) */\n      0xffffffffffffffffffffffffffffffffffffffff\n      and\n        /* \"Dapp/MoneyTransfer.sol\":1814:1819  _addr */\n      dup2\n        /* \"Dapp/MoneyTransfer.sol\":1814:1833  _addr != address(0) */\n      0xffffffffffffffffffffffffffffffffffffffff\n      and\n      sub\n        /* \"Dapp/MoneyTransfer.sol\":1806:1866  require(_addr != address(0), \" This address doesn't exists\") */\n      tag_66\n      jumpi\n      mload(0x40)\n      0x08c379a000000000000000000000000000000000000000000000000000000000\n      dup2\n      mstore\n      0x04\n      add\n      tag_67\n      swap1\n      tag_68\n      jump\t// in\n    tag_67:\n      mload(0x40)\n      dup1\n      swap2\n      sub\n      swap1\n      revert\n    tag_66:\n        /* \"Dapp/MoneyTransfer.sol\":1977:1978  8 */\n      0x08\n        /* \"Dapp/MoneyTransfer.sol\":1955:1965  cardNumber */\n      0x0a\n        /* \"Dapp/MoneyTransfer.sol\":1949:1973  bytes(cardNumber).length */\n      dup1\n      sload\n      tag_70\n      swap1\n      tag_71\n      jump\t// in\n    tag_70:\n      swap1\n      pop\n        /* \"Dapp/MoneyTransfer.sol\":1949:1978  bytes(cardNumber).length == 8 */\n      eq\n        /* \"Dapp/MoneyTransfer.sol\":1949:2004  bytes(cardNumber).length == 8 && bytes(cvv).length == 3 */\n      dup1\n      iszero\n      tag_72\n      jumpi\n      pop\n        /* \"Dapp/MoneyTransfer.sol\":2003:2004  3 */\n      0x03\n        /* \"Dapp/MoneyTransfer.sol\":1988:1991  cvv */\n      0x0b\n        /* \"Dapp/MoneyTransfer.sol\":1982:1999  bytes(cvv).length */\n      dup1\n      sload\n      tag_73\n      swap1\n      tag_71\n      jump\t// in\n    tag_73:\n      swap1\n      pop\n        /* \"Dapp/MoneyTransfer.sol\":1982:2004  bytes(cvv).length == 3 */\n      eq\n        /* \"Dapp/MoneyTransfer.sol\":1949:2004  bytes(cardNumber).length == 8 && bytes(cvv).length == 3 */\n    tag_72:\n        /* \"Dapp/MoneyTransfer.sol\":1941:2029  require(bytes(cardNumber).length == 8 && bytes(cvv).length == 3, \"No valid credit card\") */\n      tag_74\n      jumpi\n      mload(0x40)\n      0x08c379a000000000000000000000000000000000000000000000000000000000\n      dup2\n      mstore\n      0x04\n      add\n      tag_75\n      swap1\n      tag_76\n      jump\t// in\n    tag_75:\n      mload(0x40)\n      dup1\n      swap2\n      sub\n      swap1\n      revert\n    tag_74:\n        /* \"Dapp/MoneyTransfer.sol\":2061:2062  0 */\n      0x00\n        /* \"Dapp/MoneyTransfer.sol\":2048:2058  TotalFunds */\n      sload(0x01)\n        /* \"Dapp/MoneyTransfer.sol\":2048:2062  TotalFunds > 0 */\n      gt\n        /* \"Dapp/MoneyTransfer.sol\":2048:2085  TotalFunds > 0 && TotalFunds > amount */\n      dup1\n      iszero\n      tag_77\n      jumpi\n      pop\n        /* \"Dapp/MoneyTransfer.sol\":2079:2085  amount */\n      sload(0x00)\n        /* \"Dapp/MoneyTransfer.sol\":2066:2076  TotalFunds */\n      sload(0x01)\n        /* \"Dapp/MoneyTransfer.sol\":2066:2085  TotalFunds > amount */\n      gt\n        /* \"Dapp/MoneyTransfer.sol\":2048:2085  TotalFunds > 0 && TotalFunds > amount */\n    tag_77:\n        /* \"Dapp/MoneyTransfer.sol\":2040:2105  require(TotalFunds > 0 && TotalFunds > amount,\"Not enough funds\") */\n      tag_78\n      jumpi\n      mload(0x40)\n      0x08c379a000000000000000000000000000000000000000000000000000000000\n      dup2\n      mstore\n      0x04\n      add\n      tag_79\n      swap1\n      tag_80\n      jump\t// in\n    tag_79:\n      mload(0x40)\n      dup1\n      swap2\n      sub\n      swap1\n      revert\n    tag_78:\n        /* \"Dapp/MoneyTransfer.sol\":2223:2227  2500 */\n      0x09c4\n        /* \"Dapp/MoneyTransfer.sol\":2208:2219  TotalAmount */\n      sload(0x0c)\n        /* \"Dapp/MoneyTransfer.sol\":2208:2227  TotalAmount <= 2500 */\n      gt\n      iszero\n        /* \"Dapp/MoneyTransfer.sol\":2199:2254  require (TotalAmount <= 2500 , \"You reached the limit\") */\n      tag_82\n      jumpi\n      mload(0x40)\n      0x08c379a000000000000000000000000000000000000000000000000000000000\n      dup2\n      mstore\n      0x04\n      add\n      tag_83\n      swap1\n      tag_84\n      jump\t// in\n    tag_83:\n      mload(0x40)\n      dup1\n      swap2\n      sub\n      swap1\n      revert\n    tag_82:\n        /* \"Dapp/MoneyTransfer.sol\":2286:2301  block.timestamp */\n      timestamp\n        /* \"Dapp/MoneyTransfer.sol\":2266:2283  firstTransferTime */\n      0x0d\n        /* \"Dapp/MoneyTransfer.sol\":2266:2301  firstTransferTime = block.timestamp */\n      dup2\n      swap1\n      sstore\n      pop\n        /* \"Dapp/MoneyTransfer.sol\":2503:2513  30 seconds */\n      0x1e\n        /* \"Dapp/MoneyTransfer.sol\":2483:2500  firstTransferTime */\n      sload(0x0d)\n        /* \"Dapp/MoneyTransfer.sol\":2483:2513  firstTransferTime + 30 seconds */\n      tag_85\n      swap2\n      swap1\n      tag_86\n      jump\t// in\n    tag_85:\n        /* \"Dapp/MoneyTransfer.sol\":2462:2479  firstTransferTime */\n      sload(0x0d)\n        /* \"Dapp/MoneyTransfer.sol\":2462:2514  firstTransferTime < (firstTransferTime + 30 seconds) */\n      lt\n        /* \"Dapp/MoneyTransfer.sol\":2454:2530  require(firstTransferTime < (firstTransferTime + 30 seconds), \"Time passed\") */\n      tag_87\n      jumpi\n      mload(0x40)\n      0x08c379a000000000000000000000000000000000000000000000000000000000\n      dup2\n      mstore\n      0x04\n      add\n      tag_88\n      swap1\n      tag_89\n      jump\t// in\n    tag_88:\n      mload(0x40)\n      dup1\n      swap2\n      sub\n      swap1\n      revert\n    tag_87:\n        /* \"Dapp/MoneyTransfer.sol\":960:969  _receiver */\n      dup2\n        /* \"Dapp/MoneyTransfer.sol\":949:957  receiver */\n      0x02\n      0x00\n        /* \"Dapp/MoneyTransfer.sol\":949:969  receiver = _receiver */\n      0x0100\n      exp\n      dup2\n      sload\n      dup2\n      0xffffffffffffffffffffffffffffffffffffffff\n      mul\n      not\n      and\n      swap1\n      dup4\n      0xffffffffffffffffffffffffffffffffffffffff\n      and\n      mul\n      or\n      swap1\n      sstore\n      pop\n        /* \"Dapp/MoneyTransfer.sol\":989:996  _amount */\n      dup3\n        /* \"Dapp/MoneyTransfer.sol\":980:986  amount */\n      0x00\n        /* \"Dapp/MoneyTransfer.sol\":980:996  amount = _amount */\n      dup2\n      swap1\n      sstore\n      pop\n        /* \"Dapp/MoneyTransfer.sol\":1066:1067  1 */\n      0x01\n        /* \"Dapp/MoneyTransfer.sol\":1053:1062  callCount */\n      0x0f\n      0x00\n        /* \"Dapp/MoneyTransfer.sol\":1053:1067  callCount += 1 */\n      dup3\n      dup3\n      sload\n      tag_91\n      swap2\n      swap1\n      tag_86\n      jump\t// in\n    tag_91:\n      swap3\n      pop\n      pop\n      dup2\n      swap1\n      sstore\n      pop\n        /* \"Dapp/MoneyTransfer.sol\":1123:1124  0 */\n      0x00\n        /* \"Dapp/MoneyTransfer.sol\":1110:1120  TotalFunds */\n      sload(0x01)\n        /* \"Dapp/MoneyTransfer.sol\":1110:1124  TotalFunds > 0 */\n      gt\n        /* \"Dapp/MoneyTransfer.sol\":1110:1147  TotalFunds > 0 && TotalFunds > amount */\n      dup1\n      iszero\n      tag_92\n      jumpi\n      pop\n        /* \"Dapp/MoneyTransfer.sol\":1141:1147  amount */\n      sload(0x00)\n        /* \"Dapp/MoneyTransfer.sol\":1128:1138  TotalFunds */\n      sload(0x01)\n        /* \"Dapp/MoneyTransfer.sol\":1128:1147  TotalFunds > amount */\n      gt\n        /* \"Dapp/MoneyTransfer.sol\":1110:1147  TotalFunds > 0 && TotalFunds > amount */\n    tag_92:\n        /* \"Dapp/MoneyTransfer.sol\":1107:1388  if(TotalFunds > 0 && TotalFunds > amount){... */\n      iszero\n      tag_93\n      jumpi\n        /* \"Dapp/MoneyTransfer.sol\":1185:1191  amount */\n      sload(0x00)\n        /* \"Dapp/MoneyTransfer.sol\":1171:1181  TotalFunds */\n      0x01\n      0x00\n        /* \"Dapp/MoneyTransfer.sol\":1171:1191  TotalFunds -= amount */\n      dup3\n      dup3\n      sload\n      tag_94\n      swap2\n      swap1\n      tag_95\n      jump\t// in\n    tag_94:\n      swap3\n      pop\n      pop\n      dup2\n      swap1\n      sstore\n      pop\n        /* \"Dapp/MoneyTransfer.sol\":1229:1235  amount */\n      sload(0x00)\n        /* \"Dapp/MoneyTransfer.sol\":1214:1225  TotalAmount */\n      0x0c\n      0x00\n        /* \"Dapp/MoneyTransfer.sol\":1214:1235  TotalAmount += amount */\n      dup3\n      dup3\n      sload\n      tag_96\n      swap2\n      swap1\n      tag_86\n      jump\t// in\n    tag_96:\n      swap3\n      pop\n      pop\n      dup2\n      swap1\n      sstore\n      pop\n        /* \"Dapp/MoneyTransfer.sol\":1280:1310  message = \"Transfer completed\" */\n      mload(0x40)\n      dup1\n      0x40\n      add\n      0x40\n      mstore\n      dup1\n      0x12\n      dup2\n      mstore\n      0x20\n      add\n      0x5472616e7366657220636f6d706c657465640000000000000000000000000000\n      dup2\n      mstore\n      pop\n        /* \"Dapp/MoneyTransfer.sol\":1280:1287  message */\n      0x09\n        /* \"Dapp/MoneyTransfer.sol\":1280:1310  message = \"Transfer completed\" */\n      swap1\n      dup2\n      tag_97\n      swap2\n      swap1\n      tag_98\n      jump\t// in\n    tag_97:\n      pop\n        /* \"Dapp/MoneyTransfer.sol\":1355:1367  getOutCard() */\n      tag_99\n        /* \"Dapp/MoneyTransfer.sol\":1355:1365  getOutCard */\n      tag_49\n        /* \"Dapp/MoneyTransfer.sol\":1355:1367  getOutCard() */\n      jump\t// in\n    tag_99:\n        /* \"Dapp/MoneyTransfer.sol\":1107:1388  if(TotalFunds > 0 && TotalFunds > amount){... */\n    tag_93:\n        /* \"Dapp/MoneyTransfer.sol\":825:1427  function sendMoney( uint _amount, address _receiver) public m_validAddress(_receiver) m_checkCard m_transferLimit{... */\n      pop\n      pop\n      pop\n      jump\t// out\n        /* \"Dapp/MoneyTransfer.sol\":524:553  uint public firstTransferTime */\n    tag_25:\n      sload(0x0d)\n      dup2\n      jump\t// out\n        /* \"Dapp/MoneyTransfer.sol\":1435:1575  function setCard( string memory _cardNumber, string memory _cvv) public {... */\n    tag_31:\n        /* \"Dapp/MoneyTransfer.sol\":1535:1546  _cardNumber */\n      dup2\n        /* \"Dapp/MoneyTransfer.sol\":1522:1532  cardNumber */\n      0x0a\n        /* \"Dapp/MoneyTransfer.sol\":1522:1546  cardNumber = _cardNumber */\n      swap1\n      dup2\n      tag_101\n      swap2\n      swap1\n      tag_98\n      jump\t// in\n    tag_101:\n      pop\n        /* \"Dapp/MoneyTransfer.sol\":1563:1567  _cvv */\n      dup1\n        /* \"Dapp/MoneyTransfer.sol\":1557:1560  cvv */\n      0x0b\n        /* \"Dapp/MoneyTransfer.sol\":1557:1567  cvv = _cvv */\n      swap1\n      dup2\n      tag_102\n      swap2\n      swap1\n      tag_98\n      jump\t// in\n    tag_102:\n      pop\n        /* \"Dapp/MoneyTransfer.sol\":1435:1575  function setCard( string memory _cardNumber, string memory _cvv) public {... */\n      pop\n      pop\n      jump\t// out\n        /* \"Dapp/MoneyTransfer.sol\":560:585  uint public countTransfer */\n    tag_33:\n      sload(0x0e)\n      dup2\n      jump\t// out\n        /* \"Dapp/MoneyTransfer.sol\":470:487  string public cvv */\n    tag_36:\n      0x0b\n      dup1\n      sload\n      tag_103\n      swap1\n      tag_71\n      jump\t// in\n    tag_103:\n      dup1\n      0x1f\n      add\n      0x20\n      dup1\n      swap2\n      div\n      mul\n      0x20\n      add\n      mload(0x40)\n      swap1\n      dup2\n      add\n      0x40\n      mstore\n      dup1\n      swap3\n      swap2\n      swap1\n      dup2\n      dup2\n      mstore\n      0x20\n      add\n      dup3\n      dup1\n      sload\n      tag_104\n      swap1\n      tag_71\n      jump\t// in\n    tag_104:\n      dup1\n      iszero\n      tag_105\n      jumpi\n      dup1\n      0x1f\n      lt\n      tag_106\n      jumpi\n      0x0100\n      dup1\n      dup4\n      sload\n      div\n      mul\n      dup4\n      mstore\n      swap2\n      0x20\n      add\n      swap2\n      jump(tag_105)\n    tag_106:\n      dup3\n      add\n      swap2\n      swap1\n      0x00\n      mstore\n      keccak256(0x00, 0x20)\n      swap1\n    tag_107:\n      dup2\n      sload\n      dup2\n      mstore\n      swap1\n      0x01\n      add\n      swap1\n      0x20\n      add\n      dup1\n      dup4\n      gt\n      tag_107\n      jumpi\n      dup3\n      swap1\n      sub\n      0x1f\n      and\n      dup3\n      add\n      swap2\n    tag_105:\n      pop\n      pop\n      pop\n      pop\n      pop\n      dup2\n      jump\t// out\n        /* \"Dapp/MoneyTransfer.sol\":790:815  uint public callCount = 0 */\n    tag_40:\n      sload(0x0f)\n      dup2\n      jump\t// out\n        /* \"Dapp/MoneyTransfer.sol\":134:159  uint256 public TotalFunds */\n    tag_43:\n      sload(0x01)\n      dup2\n      jump\t// out\n        /* \"Dapp/MoneyTransfer.sol\":494:520  uint256 public TotalAmount */\n    tag_46:\n      sload(0x0c)\n      dup2\n      jump\t// out\n        /* \"Dapp/MoneyTransfer.sol\":1585:1721  function getOutCard() public  {... */\n    tag_49:\n        /* \"Dapp/MoneyTransfer.sol\":1651:1652  0 */\n      0x00\n        /* \"Dapp/MoneyTransfer.sol\":1638:1647  callCount */\n      sload(0x0f)\n        /* \"Dapp/MoneyTransfer.sol\":1638:1652  callCount != 0 */\n      eq\n        /* \"Dapp/MoneyTransfer.sol\":1635:1714  if(callCount != 0) {... */\n      tag_109\n      jumpi\n        /* \"Dapp/MoneyTransfer.sol\":1688:1703  block.timestamp */\n      timestamp\n        /* \"Dapp/MoneyTransfer.sol\":1668:1685  firstTransferTime */\n      0x0d\n        /* \"Dapp/MoneyTransfer.sol\":1668:1703  firstTransferTime = block.timestamp */\n      dup2\n      swap1\n      sstore\n      pop\n        /* \"Dapp/MoneyTransfer.sol\":1635:1714  if(callCount != 0) {... */\n    tag_109:\n        /* \"Dapp/MoneyTransfer.sol\":1585:1721  function getOutCard() public  {... */\n      jump\t// out\n        /* \"Dapp/MoneyTransfer.sol\":438:462  string public cardNumber */\n    tag_51:\n      0x0a\n      dup1\n      sload\n      tag_110\n      swap1\n      tag_71\n      jump\t// in\n    tag_110:\n      dup1\n      0x1f\n      add\n      0x20\n      dup1\n      swap2\n      div\n      mul\n      0x20\n      add\n      mload(0x40)\n      swap1\n      dup2\n      add\n      0x40\n      mstore\n      dup1\n      swap3\n      swap2\n      swap1\n      dup2\n      dup2\n      mstore\n      0x20\n      add\n      dup3\n      dup1\n      sload\n      tag_111\n      swap1\n      tag_71\n      jump\t// in\n    tag_111:\n      dup1\n      iszero\n      tag_112\n      jumpi\n      dup1\n      0x1f\n      lt\n      tag_113\n      jumpi\n      0x0100\n      dup1\n      dup4\n      sload\n      div\n      mul\n      dup4\n      mstore\n      swap2\n      0x20\n      add\n      swap2\n      jump(tag_112)\n    tag_113:\n      dup3\n      add\n      swap2\n      swap1\n      0x00\n      mstore\n      keccak256(0x00, 0x20)\n      swap1\n    tag_114:\n      dup2\n      sload\n      dup2\n      mstore\n      swap1\n      0x01\n      add\n      swap1\n      0x20\n      add\n      dup1\n      dup4\n      gt\n      tag_114\n      jumpi\n      dup3\n      swap1\n      sub\n      0x1f\n      and\n      dup3\n      add\n      swap2\n    tag_112:\n      pop\n      pop\n      pop\n      pop\n      pop\n      dup2\n      jump\t// out\n        /* \"Dapp/MoneyTransfer.sol\":252:288  uint256 public totalWeekTransactions */\n    tag_54:\n      sload(0x04)\n      dup2\n      jump\t// out\n        /* \"Dapp/MoneyTransfer.sol\":106:127  uint256 public amount */\n    tag_57:\n      sload(0x00)\n      dup2\n      jump\t// out\n        /* \"Dapp/MoneyTransfer.sol\":375:403  uint256 public receiverFunds */\n    tag_60:\n      sload(0x08)\n      dup2\n      jump\t// out\n        /* \"Dapp/MoneyTransfer.sol\":410:431  string public message */\n    tag_63:\n      0x09\n      dup1\n      sload\n      tag_115\n      swap1\n      tag_71\n      jump\t// in\n    tag_115:\n      dup1\n      0x1f\n      add\n      0x20\n      dup1\n      swap2\n      div\n      mul\n      0x20\n      add\n      mload(0x40)\n      swap1\n      dup2\n      add\n      0x40\n      mstore\n      dup1\n      swap3\n      swap2\n      swap1\n      dup2\n      dup2\n      mstore\n      0x20\n      add\n      dup3\n      dup1\n      sload\n      tag_116\n      swap1\n      tag_71\n      jump\t// in\n    tag_116:\n      dup1\n      iszero\n      tag_117\n      jumpi\n      dup1\n      0x1f\n      lt\n      tag_118\n      jumpi\n      0x0100\n      dup1\n      dup4\n      sload\n      div\n      mul\n      dup4\n      mstore\n      swap2\n      0x20\n      add\n      swap2\n      jump(tag_117)\n    tag_118:\n      dup3\n      add\n      swap2\n      swap1\n      0x00\n      mstore\n      keccak256(0x00, 0x20)\n      swap1\n    tag_119:\n      dup2\n      sload\n      dup2\n      mstore\n      swap1\n      0x01\n      add\n      swap1\n      0x20\n      add\n      dup1\n      dup4\n      gt\n      tag_119\n      jumpi\n      dup3\n      swap1\n      sub\n      0x1f\n      and\n      dup3\n      add\n      swap2\n    tag_117:\n      pop\n      pop\n      pop\n      pop\n      pop\n      dup2\n      jump\t// out\n        /* \"#utility.yul\":7:82   */\n    tag_120:\n        /* \"#utility.yul\":40:46   */\n      0x00\n        /* \"#utility.yul\":73:75   */\n      0x40\n        /* \"#utility.yul\":67:76   */\n      mload\n        /* \"#utility.yul\":57:76   */\n      swap1\n      pop\n        /* \"#utility.yul\":7:82   */\n      swap1\n      jump\t// out\n        /* \"#utility.yul\":88:205   */\n    tag_121:\n        /* \"#utility.yul\":197:198   */\n      0x00\n        /* \"#utility.yul\":194:195   */\n      dup1\n        /* \"#utility.yul\":187:199   */\n      revert\n        /* \"#utility.yul\":211:328   */\n    tag_122:\n        /* \"#utility.yul\":320:321   */\n      0x00\n        /* \"#utility.yul\":317:318   */\n      dup1\n        /* \"#utility.yul\":310:322   */\n      revert\n        /* \"#utility.yul\":334:411   */\n    tag_123:\n        /* \"#utility.yul\":371:378   */\n      0x00\n        /* \"#utility.yul\":400:405   */\n      dup2\n        /* \"#utility.yul\":389:405   */\n      swap1\n      pop\n        /* \"#utility.yul\":334:411   */\n      swap2\n      swap1\n      pop\n      jump\t// out\n        /* \"#utility.yul\":417:539   */\n    tag_124:\n        /* \"#utility.yul\":490:514   */\n      tag_178\n        /* \"#utility.yul\":508:513   */\n      dup2\n        /* \"#utility.yul\":490:514   */\n      tag_123\n      jump\t// in\n    tag_178:\n        /* \"#utility.yul\":483:488   */\n      dup2\n        /* \"#utility.yul\":480:515   */\n      eq\n        /* \"#utility.yul\":470:533   */\n      tag_179\n      jumpi\n        /* \"#utility.yul\":529:530   */\n      0x00\n        /* \"#utility.yul\":526:527   */\n      dup1\n        /* \"#utility.yul\":519:531   */\n      revert\n        /* \"#utility.yul\":470:533   */\n    tag_179:\n        /* \"#utility.yul\":417:539   */\n      pop\n      jump\t// out\n        /* \"#utility.yul\":545:684   */\n    tag_125:\n        /* \"#utility.yul\":591:596   */\n      0x00\n        /* \"#utility.yul\":629:635   */\n      dup2\n        /* \"#utility.yul\":616:636   */\n      calldataload\n        /* \"#utility.yul\":607:636   */\n      swap1\n      pop\n        /* \"#utility.yul\":645:678   */\n      tag_181\n        /* \"#utility.yul\":672:677   */\n      dup2\n        /* \"#utility.yul\":645:678   */\n      tag_124\n      jump\t// in\n    tag_181:\n        /* \"#utility.yul\":545:684   */\n      swap3\n      swap2\n      pop\n      pop\n      jump\t// out\n        /* \"#utility.yul\":690:816   */\n    tag_126:\n        /* \"#utility.yul\":727:734   */\n      0x00\n        /* \"#utility.yul\":767:809   */\n      0xffffffffffffffffffffffffffffffffffffffff\n        /* \"#utility.yul\":760:765   */\n      dup3\n        /* \"#utility.yul\":756:810   */\n      and\n        /* \"#utility.yul\":745:810   */\n      swap1\n      pop\n        /* \"#utility.yul\":690:816   */\n      swap2\n      swap1\n      pop\n      jump\t// out\n        /* \"#utility.yul\":822:918   */\n    tag_127:\n        /* \"#utility.yul\":859:866   */\n      0x00\n        /* \"#utility.yul\":888:912   */\n      tag_184\n        /* \"#utility.yul\":906:911   */\n      dup3\n        /* \"#utility.yul\":888:912   */\n      tag_126\n      jump\t// in\n    tag_184:\n        /* \"#utility.yul\":877:912   */\n      swap1\n      pop\n        /* \"#utility.yul\":822:918   */\n      swap2\n      swap1\n      pop\n      jump\t// out\n        /* \"#utility.yul\":924:1046   */\n    tag_128:\n        /* \"#utility.yul\":997:1021   */\n      tag_186\n        /* \"#utility.yul\":1015:1020   */\n      dup2\n        /* \"#utility.yul\":997:1021   */\n      tag_127\n      jump\t// in\n    tag_186:\n        /* \"#utility.yul\":990:995   */\n      dup2\n        /* \"#utility.yul\":987:1022   */\n      eq\n        /* \"#utility.yul\":977:1040   */\n      tag_187\n      jumpi\n        /* \"#utility.yul\":1036:1037   */\n      0x00\n        /* \"#utility.yul\":1033:1034   */\n      dup1\n        /* \"#utility.yul\":1026:1038   */\n      revert\n        /* \"#utility.yul\":977:1040   */\n    tag_187:\n        /* \"#utility.yul\":924:1046   */\n      pop\n      jump\t// out\n        /* \"#utility.yul\":1052:1191   */\n    tag_129:\n        /* \"#utility.yul\":1098:1103   */\n      0x00\n        /* \"#utility.yul\":1136:1142   */\n      dup2\n        /* \"#utility.yul\":1123:1143   */\n      calldataload\n        /* \"#utility.yul\":1114:1143   */\n      swap1\n      pop\n        /* \"#utility.yul\":1152:1185   */\n      tag_189\n        /* \"#utility.yul\":1179:1184   */\n      dup2\n        /* \"#utility.yul\":1152:1185   */\n      tag_128\n      jump\t// in\n    tag_189:\n        /* \"#utility.yul\":1052:1191   */\n      swap3\n      swap2\n      pop\n      pop\n      jump\t// out\n        /* \"#utility.yul\":1197:1671   */\n    tag_22:\n        /* \"#utility.yul\":1265:1271   */\n      0x00\n        /* \"#utility.yul\":1273:1279   */\n      dup1\n        /* \"#utility.yul\":1322:1324   */\n      0x40\n        /* \"#utility.yul\":1310:1319   */\n      dup4\n        /* \"#utility.yul\":1301:1308   */\n      dup6\n        /* \"#utility.yul\":1297:1320   */\n      sub\n        /* \"#utility.yul\":1293:1325   */\n      slt\n        /* \"#utility.yul\":1290:1409   */\n      iszero\n      tag_191\n      jumpi\n        /* \"#utility.yul\":1328:1407   */\n      tag_192\n      tag_121\n      jump\t// in\n    tag_192:\n        /* \"#utility.yul\":1290:1409   */\n    tag_191:\n        /* \"#utility.yul\":1448:1449   */\n      0x00\n        /* \"#utility.yul\":1473:1526   */\n      tag_193\n        /* \"#utility.yul\":1518:1525   */\n      dup6\n        /* \"#utility.yul\":1509:1515   */\n      dup3\n        /* \"#utility.yul\":1498:1507   */\n      dup7\n        /* \"#utility.yul\":1494:1516   */\n      add\n        /* \"#utility.yul\":1473:1526   */\n      tag_125\n      jump\t// in\n    tag_193:\n        /* \"#utility.yul\":1463:1526   */\n      swap3\n      pop\n        /* \"#utility.yul\":1419:1536   */\n      pop\n        /* \"#utility.yul\":1575:1577   */\n      0x20\n        /* \"#utility.yul\":1601:1654   */\n      tag_194\n        /* \"#utility.yul\":1646:1653   */\n      dup6\n        /* \"#utility.yul\":1637:1643   */\n      dup3\n        /* \"#utility.yul\":1626:1635   */\n      dup7\n        /* \"#utility.yul\":1622:1644   */\n      add\n        /* \"#utility.yul\":1601:1654   */\n      tag_129\n      jump\t// in\n    tag_194:\n        /* \"#utility.yul\":1591:1654   */\n      swap2\n      pop\n        /* \"#utility.yul\":1546:1664   */\n      pop\n        /* \"#utility.yul\":1197:1671   */\n      swap3\n      pop\n      swap3\n      swap1\n      pop\n      jump\t// out\n        /* \"#utility.yul\":1677:1795   */\n    tag_130:\n        /* \"#utility.yul\":1764:1788   */\n      tag_196\n        /* \"#utility.yul\":1782:1787   */\n      dup2\n        /* \"#utility.yul\":1764:1788   */\n      tag_123\n      jump\t// in\n    tag_196:\n        /* \"#utility.yul\":1759:1762   */\n      dup3\n        /* \"#utility.yul\":1752:1789   */\n      mstore\n        /* \"#utility.yul\":1677:1795   */\n      pop\n      pop\n      jump\t// out\n        /* \"#utility.yul\":1801:2023   */\n    tag_27:\n        /* \"#utility.yul\":1894:1898   */\n      0x00\n        /* \"#utility.yul\":1932:1934   */\n      0x20\n        /* \"#utility.yul\":1921:1930   */\n      dup3\n        /* \"#utility.yul\":1917:1935   */\n      add\n        /* \"#utility.yul\":1909:1935   */\n      swap1\n      pop\n        /* \"#utility.yul\":1945:2016   */\n      tag_198\n        /* \"#utility.yul\":2013:2014   */\n      0x00\n        /* \"#utility.yul\":2002:2011   */\n      dup4\n        /* \"#utility.yul\":1998:2015   */\n      add\n        /* \"#utility.yul\":1989:1995   */\n      dup5\n        /* \"#utility.yul\":1945:2016   */\n      tag_130\n      jump\t// in\n    tag_198:\n        /* \"#utility.yul\":1801:2023   */\n      swap3\n      swap2\n      pop\n      pop\n      jump\t// out\n        /* \"#utility.yul\":2029:2146   */\n    tag_131:\n        /* \"#utility.yul\":2138:2139   */\n      0x00\n        /* \"#utility.yul\":2135:2136   */\n      dup1\n        /* \"#utility.yul\":2128:2140   */\n      revert\n        /* \"#utility.yul\":2152:2269   */\n    tag_132:\n        /* \"#utility.yul\":2261:2262   */\n      0x00\n        /* \"#utility.yul\":2258:2259   */\n      dup1\n        /* \"#utility.yul\":2251:2263   */\n      revert\n        /* \"#utility.yul\":2275:2377   */\n    tag_133:\n        /* \"#utility.yul\":2316:2322   */\n      0x00\n        /* \"#utility.yul\":2367:2369   */\n      0x1f\n        /* \"#utility.yul\":2363:2370   */\n      not\n        /* \"#utility.yul\":2358:2360   */\n      0x1f\n        /* \"#utility.yul\":2351:2356   */\n      dup4\n        /* \"#utility.yul\":2347:2361   */\n      add\n        /* \"#utility.yul\":2343:2371   */\n      and\n        /* \"#utility.yul\":2333:2371   */\n      swap1\n      pop\n        /* \"#utility.yul\":2275:2377   */\n      swap2\n      swap1\n      pop\n      jump\t// out\n        /* \"#utility.yul\":2383:2563   */\n    tag_134:\n        /* \"#utility.yul\":2431:2508   */\n      0x4e487b7100000000000000000000000000000000000000000000000000000000\n        /* \"#utility.yul\":2428:2429   */\n      0x00\n        /* \"#utility.yul\":2421:2509   */\n      mstore\n        /* \"#utility.yul\":2528:2532   */\n      0x41\n        /* \"#utility.yul\":2525:2526   */\n      0x04\n        /* \"#utility.yul\":2518:2533   */\n      mstore\n        /* \"#utility.yul\":2552:2556   */\n      0x24\n        /* \"#utility.yul\":2549:2550   */\n      0x00\n        /* \"#utility.yul\":2542:2557   */\n      revert\n        /* \"#utility.yul\":2569:2850   */\n    tag_135:\n        /* \"#utility.yul\":2652:2679   */\n      tag_204\n        /* \"#utility.yul\":2674:2678   */\n      dup3\n        /* \"#utility.yul\":2652:2679   */\n      tag_133\n      jump\t// in\n    tag_204:\n        /* \"#utility.yul\":2644:2650   */\n      dup2\n        /* \"#utility.yul\":2640:2680   */\n      add\n        /* \"#utility.yul\":2782:2788   */\n      dup2\n        /* \"#utility.yul\":2770:2780   */\n      dup2\n        /* \"#utility.yul\":2767:2789   */\n      lt\n        /* \"#utility.yul\":2746:2764   */\n      0xffffffffffffffff\n        /* \"#utility.yul\":2734:2744   */\n      dup3\n        /* \"#utility.yul\":2731:2765   */\n      gt\n        /* \"#utility.yul\":2728:2790   */\n      or\n        /* \"#utility.yul\":2725:2813   */\n      iszero\n      tag_205\n      jumpi\n        /* \"#utility.yul\":2793:2811   */\n      tag_206\n      tag_134\n      jump\t// in\n    tag_206:\n        /* \"#utility.yul\":2725:2813   */\n    tag_205:\n        /* \"#utility.yul\":2833:2843   */\n      dup1\n        /* \"#utility.yul\":2829:2831   */\n      0x40\n        /* \"#utility.yul\":2822:2844   */\n      mstore\n        /* \"#utility.yul\":2612:2850   */\n      pop\n        /* \"#utility.yul\":2569:2850   */\n      pop\n      pop\n      jump\t// out\n        /* \"#utility.yul\":2856:2985   */\n    tag_136:\n        /* \"#utility.yul\":2890:2896   */\n      0x00\n        /* \"#utility.yul\":2917:2937   */\n      tag_208\n      tag_120\n      jump\t// in\n    tag_208:\n        /* \"#utility.yul\":2907:2937   */\n      swap1\n      pop\n        /* \"#utility.yul\":2946:2979   */\n      tag_209\n        /* \"#utility.yul\":2974:2978   */\n      dup3\n        /* \"#utility.yul\":2966:2972   */\n      dup3\n        /* \"#utility.yul\":2946:2979   */\n      tag_135\n      jump\t// in\n    tag_209:\n        /* \"#utility.yul\":2856:2985   */\n      swap2\n      swap1\n      pop\n      jump\t// out\n        /* \"#utility.yul\":2991:3299   */\n    tag_137:\n        /* \"#utility.yul\":3053:3057   */\n      0x00\n        /* \"#utility.yul\":3143:3161   */\n      0xffffffffffffffff\n        /* \"#utility.yul\":3135:3141   */\n      dup3\n        /* \"#utility.yul\":3132:3162   */\n      gt\n        /* \"#utility.yul\":3129:3185   */\n      iszero\n      tag_211\n      jumpi\n        /* \"#utility.yul\":3165:3183   */\n      tag_212\n      tag_134\n      jump\t// in\n    tag_212:\n        /* \"#utility.yul\":3129:3185   */\n    tag_211:\n        /* \"#utility.yul\":3203:3232   */\n      tag_213\n        /* \"#utility.yul\":3225:3231   */\n      dup3\n        /* \"#utility.yul\":3203:3232   */\n      tag_133\n      jump\t// in\n    tag_213:\n        /* \"#utility.yul\":3195:3232   */\n      swap1\n      pop\n        /* \"#utility.yul\":3287:3291   */\n      0x20\n        /* \"#utility.yul\":3281:3285   */\n      dup2\n        /* \"#utility.yul\":3277:3292   */\n      add\n        /* \"#utility.yul\":3269:3292   */\n      swap1\n      pop\n        /* \"#utility.yul\":2991:3299   */\n      swap2\n      swap1\n      pop\n      jump\t// out\n        /* \"#utility.yul\":3305:3459   */\n    tag_138:\n        /* \"#utility.yul\":3389:3395   */\n      dup3\n        /* \"#utility.yul\":3384:3387   */\n      dup2\n        /* \"#utility.yul\":3379:3382   */\n      dup4\n        /* \"#utility.yul\":3366:3396   */\n      calldatacopy\n        /* \"#utility.yul\":3451:3452   */\n      0x00\n        /* \"#utility.yul\":3442:3448   */\n      dup4\n        /* \"#utility.yul\":3437:3440   */\n      dup4\n        /* \"#utility.yul\":3433:3449   */\n      add\n        /* \"#utility.yul\":3426:3453   */\n      mstore\n        /* \"#utility.yul\":3305:3459   */\n      pop\n      pop\n      pop\n      jump\t// out\n        /* \"#utility.yul\":3465:3877   */\n    tag_139:\n        /* \"#utility.yul\":3543:3548   */\n      0x00\n        /* \"#utility.yul\":3568:3634   */\n      tag_216\n        /* \"#utility.yul\":3584:3633   */\n      tag_217\n        /* \"#utility.yul\":3626:3632   */\n      dup5\n        /* \"#utility.yul\":3584:3633   */\n      tag_137\n      jump\t// in\n    tag_217:\n        /* \"#utility.yul\":3568:3634   */\n      tag_136\n      jump\t// in\n    tag_216:\n        /* \"#utility.yul\":3559:3634   */\n      swap1\n      pop\n        /* \"#utility.yul\":3657:3663   */\n      dup3\n        /* \"#utility.yul\":3650:3655   */\n      dup2\n        /* \"#utility.yul\":3643:3664   */\n      mstore\n        /* \"#utility.yul\":3695:3699   */\n      0x20\n        /* \"#utility.yul\":3688:3693   */\n      dup2\n        /* \"#utility.yul\":3684:3700   */\n      add\n        /* \"#utility.yul\":3733:3736   */\n      dup5\n        /* \"#utility.yul\":3724:3730   */\n      dup5\n        /* \"#utility.yul\":3719:3722   */\n      dup5\n        /* \"#utility.yul\":3715:3731   */\n      add\n        /* \"#utility.yul\":3712:3737   */\n      gt\n        /* \"#utility.yul\":3709:3821   */\n      iszero\n      tag_218\n      jumpi\n        /* \"#utility.yul\":3740:3819   */\n      tag_219\n      tag_132\n      jump\t// in\n    tag_219:\n        /* \"#utility.yul\":3709:3821   */\n    tag_218:\n        /* \"#utility.yul\":3830:3871   */\n      tag_220\n        /* \"#utility.yul\":3864:3870   */\n      dup5\n        /* \"#utility.yul\":3859:3862   */\n      dup3\n        /* \"#utility.yul\":3854:3857   */\n      dup6\n        /* \"#utility.yul\":3830:3871   */\n      tag_138\n      jump\t// in\n    tag_220:\n        /* \"#utility.yul\":3549:3877   */\n      pop\n        /* \"#utility.yul\":3465:3877   */\n      swap4\n      swap3\n      pop\n      pop\n      pop\n      jump\t// out\n        /* \"#utility.yul\":3897:4237   */\n    tag_140:\n        /* \"#utility.yul\":3953:3958   */\n      0x00\n        /* \"#utility.yul\":4002:4005   */\n      dup3\n        /* \"#utility.yul\":3995:3999   */\n      0x1f\n        /* \"#utility.yul\":3987:3993   */\n      dup4\n        /* \"#utility.yul\":3983:4000   */\n      add\n        /* \"#utility.yul\":3979:4006   */\n      slt\n        /* \"#utility.yul\":3969:4091   */\n      tag_222\n      jumpi\n        /* \"#utility.yul\":4010:4089   */\n      tag_223\n      tag_131\n      jump\t// in\n    tag_223:\n        /* \"#utility.yul\":3969:4091   */\n    tag_222:\n        /* \"#utility.yul\":4127:4133   */\n      dup2\n        /* \"#utility.yul\":4114:4134   */\n      calldataload\n        /* \"#utility.yul\":4152:4231   */\n      tag_224\n        /* \"#utility.yul\":4227:4230   */\n      dup5\n        /* \"#utility.yul\":4219:4225   */\n      dup3\n        /* \"#utility.yul\":4212:4216   */\n      0x20\n        /* \"#utility.yul\":4204:4210   */\n      dup7\n        /* \"#utility.yul\":4200:4217   */\n      add\n        /* \"#utility.yul\":4152:4231   */\n      tag_139\n      jump\t// in\n    tag_224:\n        /* \"#utility.yul\":4143:4231   */\n      swap2\n      pop\n        /* \"#utility.yul\":3959:4237   */\n      pop\n        /* \"#utility.yul\":3897:4237   */\n      swap3\n      swap2\n      pop\n      pop\n      jump\t// out\n        /* \"#utility.yul\":4243:5077   */\n    tag_30:\n        /* \"#utility.yul\":4331:4337   */\n      0x00\n        /* \"#utility.yul\":4339:4345   */\n      dup1\n        /* \"#utility.yul\":4388:4390   */\n      0x40\n        /* \"#utility.yul\":4376:4385   */\n      dup4\n        /* \"#utility.yul\":4367:4374   */\n      dup6\n        /* \"#utility.yul\":4363:4386   */\n      sub\n        /* \"#utility.yul\":4359:4391   */\n      slt\n        /* \"#utility.yul\":4356:4475   */\n      iszero\n      tag_226\n      jumpi\n        /* \"#utility.yul\":4394:4473   */\n      tag_227\n      tag_121\n      jump\t// in\n    tag_227:\n        /* \"#utility.yul\":4356:4475   */\n    tag_226:\n        /* \"#utility.yul\":4542:4543   */\n      0x00\n        /* \"#utility.yul\":4531:4540   */\n      dup4\n        /* \"#utility.yul\":4527:4544   */\n      add\n        /* \"#utility.yul\":4514:4545   */\n      calldataload\n        /* \"#utility.yul\":4572:4590   */\n      0xffffffffffffffff\n        /* \"#utility.yul\":4564:4570   */\n      dup2\n        /* \"#utility.yul\":4561:4591   */\n      gt\n        /* \"#utility.yul\":4558:4675   */\n      iszero\n      tag_228\n      jumpi\n        /* \"#utility.yul\":4594:4673   */\n      tag_229\n      tag_122\n      jump\t// in\n    tag_229:\n        /* \"#utility.yul\":4558:4675   */\n    tag_228:\n        /* \"#utility.yul\":4699:4762   */\n      tag_230\n        /* \"#utility.yul\":4754:4761   */\n      dup6\n        /* \"#utility.yul\":4745:4751   */\n      dup3\n        /* \"#utility.yul\":4734:4743   */\n      dup7\n        /* \"#utility.yul\":4730:4752   */\n      add\n        /* \"#utility.yul\":4699:4762   */\n      tag_140\n      jump\t// in\n    tag_230:\n        /* \"#utility.yul\":4689:4762   */\n      swap3\n      pop\n        /* \"#utility.yul\":4485:4772   */\n      pop\n        /* \"#utility.yul\":4839:4841   */\n      0x20\n        /* \"#utility.yul\":4828:4837   */\n      dup4\n        /* \"#utility.yul\":4824:4842   */\n      add\n        /* \"#utility.yul\":4811:4843   */\n      calldataload\n        /* \"#utility.yul\":4870:4888   */\n      0xffffffffffffffff\n        /* \"#utility.yul\":4862:4868   */\n      dup2\n        /* \"#utility.yul\":4859:4889   */\n      gt\n        /* \"#utility.yul\":4856:4973   */\n      iszero\n      tag_231\n      jumpi\n        /* \"#utility.yul\":4892:4971   */\n      tag_232\n      tag_122\n      jump\t// in\n    tag_232:\n        /* \"#utility.yul\":4856:4973   */\n    tag_231:\n        /* \"#utility.yul\":4997:5060   */\n      tag_233\n        /* \"#utility.yul\":5052:5059   */\n      dup6\n        /* \"#utility.yul\":5043:5049   */\n      dup3\n        /* \"#utility.yul\":5032:5041   */\n      dup7\n        /* \"#utility.yul\":5028:5050   */\n      add\n        /* \"#utility.yul\":4997:5060   */\n      tag_140\n      jump\t// in\n    tag_233:\n        /* \"#utility.yul\":4987:5060   */\n      swap2\n      pop\n        /* \"#utility.yul\":4782:5070   */\n      pop\n        /* \"#utility.yul\":4243:5077   */\n      swap3\n      pop\n      swap3\n      swap1\n      pop\n      jump\t// out\n        /* \"#utility.yul\":5083:5182   */\n    tag_141:\n        /* \"#utility.yul\":5135:5141   */\n      0x00\n        /* \"#utility.yul\":5169:5174   */\n      dup2\n        /* \"#utility.yul\":5163:5175   */\n      mload\n        /* \"#utility.yul\":5153:5175   */\n      swap1\n      pop\n        /* \"#utility.yul\":5083:5182   */\n      swap2\n      swap1\n      pop\n      jump\t// out\n        /* \"#utility.yul\":5188:5357   */\n    tag_142:\n        /* \"#utility.yul\":5272:5283   */\n      0x00\n        /* \"#utility.yul\":5306:5312   */\n      dup3\n        /* \"#utility.yul\":5301:5304   */\n      dup3\n        /* \"#utility.yul\":5294:5313   */\n      mstore\n        /* \"#utility.yul\":5346:5350   */\n      0x20\n        /* \"#utility.yul\":5341:5344   */\n      dup3\n        /* \"#utility.yul\":5337:5351   */\n      add\n        /* \"#utility.yul\":5322:5351   */\n      swap1\n      pop\n        /* \"#utility.yul\":5188:5357   */\n      swap3\n      swap2\n      pop\n      pop\n      jump\t// out\n        /* \"#utility.yul\":5363:5670   */\n    tag_143:\n        /* \"#utility.yul\":5431:5432   */\n      0x00\n        /* \"#utility.yul\":5441:5554   */\n    tag_237:\n        /* \"#utility.yul\":5455:5461   */\n      dup4\n        /* \"#utility.yul\":5452:5453   */\n      dup2\n        /* \"#utility.yul\":5449:5462   */\n      lt\n        /* \"#utility.yul\":5441:5554   */\n      iszero\n      tag_239\n      jumpi\n        /* \"#utility.yul\":5540:5541   */\n      dup1\n        /* \"#utility.yul\":5535:5538   */\n      dup3\n        /* \"#utility.yul\":5531:5542   */\n      add\n        /* \"#utility.yul\":5525:5543   */\n      mload\n        /* \"#utility.yul\":5521:5522   */\n      dup2\n        /* \"#utility.yul\":5516:5519   */\n      dup5\n        /* \"#utility.yul\":5512:5523   */\n      add\n        /* \"#utility.yul\":5505:5544   */\n      mstore\n        /* \"#utility.yul\":5477:5479   */\n      0x20\n        /* \"#utility.yul\":5474:5475   */\n      dup2\n        /* \"#utility.yul\":5470:5480   */\n      add\n        /* \"#utility.yul\":5465:5480   */\n      swap1\n      pop\n        /* \"#utility.yul\":5441:5554   */\n      jump(tag_237)\n    tag_239:\n        /* \"#utility.yul\":5572:5578   */\n      dup4\n        /* \"#utility.yul\":5569:5570   */\n      dup2\n        /* \"#utility.yul\":5566:5579   */\n      gt\n        /* \"#utility.yul\":5563:5664   */\n      iszero\n      tag_240\n      jumpi\n        /* \"#utility.yul\":5652:5653   */\n      0x00\n        /* \"#utility.yul\":5643:5649   */\n      dup5\n        /* \"#utility.yul\":5638:5641   */\n      dup5\n        /* \"#utility.yul\":5634:5650   */\n      add\n        /* \"#utility.yul\":5627:5654   */\n      mstore\n        /* \"#utility.yul\":5563:5664   */\n    tag_240:\n        /* \"#utility.yul\":5412:5670   */\n      pop\n        /* \"#utility.yul\":5363:5670   */\n      pop\n      pop\n      pop\n      jump\t// out\n        /* \"#utility.yul\":5676:6040   */\n    tag_144:\n        /* \"#utility.yul\":5764:5767   */\n      0x00\n        /* \"#utility.yul\":5792:5831   */\n      tag_242\n        /* \"#utility.yul\":5825:5830   */\n      dup3\n        /* \"#utility.yul\":5792:5831   */\n      tag_141\n      jump\t// in\n    tag_242:\n        /* \"#utility.yul\":5847:5918   */\n      tag_243\n        /* \"#utility.yul\":5911:5917   */\n      dup2\n        /* \"#utility.yul\":5906:5909   */\n      dup6\n        /* \"#utility.yul\":5847:5918   */\n      tag_142\n      jump\t// in\n    tag_243:\n        /* \"#utility.yul\":5840:5918   */\n      swap4\n      pop\n        /* \"#utility.yul\":5927:5979   */\n      tag_244\n        /* \"#utility.yul\":5972:5978   */\n      dup2\n        /* \"#utility.yul\":5967:5970   */\n      dup6\n        /* \"#utility.yul\":5960:5964   */\n      0x20\n        /* \"#utility.yul\":5953:5958   */\n      dup7\n        /* \"#utility.yul\":5949:5965   */\n      add\n        /* \"#utility.yul\":5927:5979   */\n      tag_143\n      jump\t// in\n    tag_244:\n        /* \"#utility.yul\":6004:6033   */\n      tag_245\n        /* \"#utility.yul\":6026:6032   */\n      dup2\n        /* \"#utility.yul\":6004:6033   */\n      tag_133\n      jump\t// in\n    tag_245:\n        /* \"#utility.yul\":5999:6002   */\n      dup5\n        /* \"#utility.yul\":5995:6034   */\n      add\n        /* \"#utility.yul\":5988:6034   */\n      swap2\n      pop\n        /* \"#utility.yul\":5768:6040   */\n      pop\n        /* \"#utility.yul\":5676:6040   */\n      swap3\n      swap2\n      pop\n      pop\n      jump\t// out\n        /* \"#utility.yul\":6046:6359   */\n    tag_38:\n        /* \"#utility.yul\":6159:6163   */\n      0x00\n        /* \"#utility.yul\":6197:6199   */\n      0x20\n        /* \"#utility.yul\":6186:6195   */\n      dup3\n        /* \"#utility.yul\":6182:6200   */\n      add\n        /* \"#utility.yul\":6174:6200   */\n      swap1\n      pop\n        /* \"#utility.yul\":6246:6255   */\n      dup2\n        /* \"#utility.yul\":6240:6244   */\n      dup2\n        /* \"#utility.yul\":6236:6256   */\n      sub\n        /* \"#utility.yul\":6232:6233   */\n      0x00\n        /* \"#utility.yul\":6221:6230   */\n      dup4\n        /* \"#utility.yul\":6217:6234   */\n      add\n        /* \"#utility.yul\":6210:6257   */\n      mstore\n        /* \"#utility.yul\":6274:6352   */\n      tag_247\n        /* \"#utility.yul\":6347:6351   */\n      dup2\n        /* \"#utility.yul\":6338:6344   */\n      dup5\n        /* \"#utility.yul\":6274:6352   */\n      tag_144\n      jump\t// in\n    tag_247:\n        /* \"#utility.yul\":6266:6352   */\n      swap1\n      pop\n        /* \"#utility.yul\":6046:6359   */\n      swap3\n      swap2\n      pop\n      pop\n      jump\t// out\n        /* \"#utility.yul\":6365:6543   */\n    tag_145:\n        /* \"#utility.yul\":6505:6535   */\n      0x2054686973206164647265737320646f65736e27742065786973747300000000\n        /* \"#utility.yul\":6501:6502   */\n      0x00\n        /* \"#utility.yul\":6493:6499   */\n      dup3\n        /* \"#utility.yul\":6489:6503   */\n      add\n        /* \"#utility.yul\":6482:6536   */\n      mstore\n        /* \"#utility.yul\":6365:6543   */\n      pop\n      jump\t// out\n        /* \"#utility.yul\":6549:6915   */\n    tag_146:\n        /* \"#utility.yul\":6691:6694   */\n      0x00\n        /* \"#utility.yul\":6712:6779   */\n      tag_250\n        /* \"#utility.yul\":6776:6778   */\n      0x1c\n        /* \"#utility.yul\":6771:6774   */\n      dup4\n        /* \"#utility.yul\":6712:6779   */\n      tag_142\n      jump\t// in\n    tag_250:\n        /* \"#utility.yul\":6705:6779   */\n      swap2\n      pop\n        /* \"#utility.yul\":6788:6881   */\n      tag_251\n        /* \"#utility.yul\":6877:6880   */\n      dup3\n        /* \"#utility.yul\":6788:6881   */\n      tag_145\n      jump\t// in\n    tag_251:\n        /* \"#utility.yul\":6906:6908   */\n      0x20\n        /* \"#utility.yul\":6901:6904   */\n      dup3\n        /* \"#utility.yul\":6897:6909   */\n      add\n        /* \"#utility.yul\":6890:6909   */\n      swap1\n      pop\n        /* \"#utility.yul\":6549:6915   */\n      swap2\n      swap1\n      pop\n      jump\t// out\n        /* \"#utility.yul\":6921:7340   */\n    tag_68:\n        /* \"#utility.yul\":7087:7091   */\n      0x00\n        /* \"#utility.yul\":7125:7127   */\n      0x20\n        /* \"#utility.yul\":7114:7123   */\n      dup3\n        /* \"#utility.yul\":7110:7128   */\n      add\n        /* \"#utility.yul\":7102:7128   */\n      swap1\n      pop\n        /* \"#utility.yul\":7174:7183   */\n      dup2\n        /* \"#utility.yul\":7168:7172   */\n      dup2\n        /* \"#utility.yul\":7164:7184   */\n      sub\n        /* \"#utility.yul\":7160:7161   */\n      0x00\n        /* \"#utility.yul\":7149:7158   */\n      dup4\n        /* \"#utility.yul\":7145:7162   */\n      add\n        /* \"#utility.yul\":7138:7185   */\n      mstore\n        /* \"#utility.yul\":7202:7333   */\n      tag_253\n        /* \"#utility.yul\":7328:7332   */\n      dup2\n        /* \"#utility.yul\":7202:7333   */\n      tag_146\n      jump\t// in\n    tag_253:\n        /* \"#utility.yul\":7194:7333   */\n      swap1\n      pop\n        /* \"#utility.yul\":6921:7340   */\n      swap2\n      swap1\n      pop\n      jump\t// out\n        /* \"#utility.yul\":7346:7526   */\n    tag_147:\n        /* \"#utility.yul\":7394:7471   */\n      0x4e487b7100000000000000000000000000000000000000000000000000000000\n        /* \"#utility.yul\":7391:7392   */\n      0x00\n        /* \"#utility.yul\":7384:7472   */\n      mstore\n        /* \"#utility.yul\":7491:7495   */\n      0x22\n        /* \"#utility.yul\":7488:7489   */\n      0x04\n        /* \"#utility.yul\":7481:7496   */\n      mstore\n        /* \"#utility.yul\":7515:7519   */\n      0x24\n        /* \"#utility.yul\":7512:7513   */\n      0x00\n        /* \"#utility.yul\":7505:7520   */\n      revert\n        /* \"#utility.yul\":7532:7852   */\n    tag_71:\n        /* \"#utility.yul\":7576:7582   */\n      0x00\n        /* \"#utility.yul\":7613:7614   */\n      0x02\n        /* \"#utility.yul\":7607:7611   */\n      dup3\n        /* \"#utility.yul\":7603:7615   */\n      div\n        /* \"#utility.yul\":7593:7615   */\n      swap1\n      pop\n        /* \"#utility.yul\":7660:7661   */\n      0x01\n        /* \"#utility.yul\":7654:7658   */\n      dup3\n        /* \"#utility.yul\":7650:7662   */\n      and\n        /* \"#utility.yul\":7681:7699   */\n      dup1\n        /* \"#utility.yul\":7671:7752   */\n      tag_256\n      jumpi\n        /* \"#utility.yul\":7737:7741   */\n      0x7f\n        /* \"#utility.yul\":7729:7735   */\n      dup3\n        /* \"#utility.yul\":7725:7742   */\n      and\n        /* \"#utility.yul\":7715:7742   */\n      swap2\n      pop\n        /* \"#utility.yul\":7671:7752   */\n    tag_256:\n        /* \"#utility.yul\":7799:7801   */\n      0x20\n        /* \"#utility.yul\":7791:7797   */\n      dup3\n        /* \"#utility.yul\":7788:7802   */\n      lt\n        /* \"#utility.yul\":7768:7786   */\n      dup2\n        /* \"#utility.yul\":7765:7803   */\n      sub\n        /* \"#utility.yul\":7762:7846   */\n      tag_257\n      jumpi\n        /* \"#utility.yul\":7818:7836   */\n      tag_258\n      tag_147\n      jump\t// in\n    tag_258:\n        /* \"#utility.yul\":7762:7846   */\n    tag_257:\n        /* \"#utility.yul\":7583:7852   */\n      pop\n        /* \"#utility.yul\":7532:7852   */\n      swap2\n      swap1\n      pop\n      jump\t// out\n        /* \"#utility.yul\":7858:8028   */\n    tag_148:\n        /* \"#utility.yul\":7998:8020   */\n      0x4e6f2076616c6964206372656469742063617264000000000000000000000000\n        /* \"#utility.yul\":7994:7995   */\n      0x00\n        /* \"#utility.yul\":7986:7992   */\n      dup3\n        /* \"#utility.yul\":7982:7996   */\n      add\n        /* \"#utility.yul\":7975:8021   */\n      mstore\n        /* \"#utility.yul\":7858:8028   */\n      pop\n      jump\t// out\n        /* \"#utility.yul\":8034:8400   */\n    tag_149:\n        /* \"#utility.yul\":8176:8179   */\n      0x00\n        /* \"#utility.yul\":8197:8264   */\n      tag_261\n        /* \"#utility.yul\":8261:8263   */\n      0x14\n        /* \"#utility.yul\":8256:8259   */\n      dup4\n        /* \"#utility.yul\":8197:8264   */\n      tag_142\n      jump\t// in\n    tag_261:\n        /* \"#utility.yul\":8190:8264   */\n      swap2\n      pop\n        /* \"#utility.yul\":8273:8366   */\n      tag_262\n        /* \"#utility.yul\":8362:8365   */\n      dup3\n        /* \"#utility.yul\":8273:8366   */\n      tag_148\n      jump\t// in\n    tag_262:\n        /* \"#utility.yul\":8391:8393   */\n      0x20\n        /* \"#utility.yul\":8386:8389   */\n      dup3\n        /* \"#utility.yul\":8382:8394   */\n      add\n        /* \"#utility.yul\":8375:8394   */\n      swap1\n      pop\n        /* \"#utility.yul\":8034:8400   */\n      swap2\n      swap1\n      pop\n      jump\t// out\n        /* \"#utility.yul\":8406:8825   */\n    tag_76:\n        /* \"#utility.yul\":8572:8576   */\n      0x00\n        /* \"#utility.yul\":8610:8612   */\n      0x20\n        /* \"#utility.yul\":8599:8608   */\n      dup3\n        /* \"#utility.yul\":8595:8613   */\n      add\n        /* \"#utility.yul\":8587:8613   */\n      swap1\n      pop\n        /* \"#utility.yul\":8659:8668   */\n      dup2\n        /* \"#utility.yul\":8653:8657   */\n      dup2\n        /* \"#utility.yul\":8649:8669   */\n      sub\n        /* \"#utility.yul\":8645:8646   */\n      0x00\n        /* \"#utility.yul\":8634:8643   */\n      dup4\n        /* \"#utility.yul\":8630:8647   */\n      add\n        /* \"#utility.yul\":8623:8670   */\n      mstore\n        /* \"#utility.yul\":8687:8818   */\n      tag_264\n        /* \"#utility.yul\":8813:8817   */\n      dup2\n        /* \"#utility.yul\":8687:8818   */\n      tag_149\n      jump\t// in\n    tag_264:\n        /* \"#utility.yul\":8679:8818   */\n      swap1\n      pop\n        /* \"#utility.yul\":8406:8825   */\n      swap2\n      swap1\n      pop\n      jump\t// out\n        /* \"#utility.yul\":8831:8997   */\n    tag_150:\n        /* \"#utility.yul\":8971:8989   */\n      0x4e6f7420656e6f7567682066756e647300000000000000000000000000000000\n        /* \"#utility.yul\":8967:8968   */\n      0x00\n        /* \"#utility.yul\":8959:8965   */\n      dup3\n        /* \"#utility.yul\":8955:8969   */\n      add\n        /* \"#utility.yul\":8948:8990   */\n      mstore\n        /* \"#utility.yul\":8831:8997   */\n      pop\n      jump\t// out\n        /* \"#utility.yul\":9003:9369   */\n    tag_151:\n        /* \"#utility.yul\":9145:9148   */\n      0x00\n        /* \"#utility.yul\":9166:9233   */\n      tag_267\n        /* \"#utility.yul\":9230:9232   */\n      0x10\n        /* \"#utility.yul\":9225:9228   */\n      dup4\n        /* \"#utility.yul\":9166:9233   */\n      tag_142\n      jump\t// in\n    tag_267:\n        /* \"#utility.yul\":9159:9233   */\n      swap2\n      pop\n        /* \"#utility.yul\":9242:9335   */\n      tag_268\n        /* \"#utility.yul\":9331:9334   */\n      dup3\n        /* \"#utility.yul\":9242:9335   */\n      tag_150\n      jump\t// in\n    tag_268:\n        /* \"#utility.yul\":9360:9362   */\n      0x20\n        /* \"#utility.yul\":9355:9358   */\n      dup3\n        /* \"#utility.yul\":9351:9363   */\n      add\n        /* \"#utility.yul\":9344:9363   */\n      swap1\n      pop\n        /* \"#utility.yul\":9003:9369   */\n      swap2\n      swap1\n      pop\n      jump\t// out\n        /* \"#utility.yul\":9375:9794   */\n    tag_80:\n        /* \"#utility.yul\":9541:9545   */\n      0x00\n        /* \"#utility.yul\":9579:9581   */\n      0x20\n        /* \"#utility.yul\":9568:9577   */\n      dup3\n        /* \"#utility.yul\":9564:9582   */\n      add\n        /* \"#utility.yul\":9556:9582   */\n      swap1\n      pop\n        /* \"#utility.yul\":9628:9637   */\n      dup2\n        /* \"#utility.yul\":9622:9626   */\n      dup2\n        /* \"#utility.yul\":9618:9638   */\n      sub\n        /* \"#utility.yul\":9614:9615   */\n      0x00\n        /* \"#utility.yul\":9603:9612   */\n      dup4\n        /* \"#utility.yul\":9599:9616   */\n      add\n        /* \"#utility.yul\":9592:9639   */\n      mstore\n        /* \"#utility.yul\":9656:9787   */\n      tag_270\n        /* \"#utility.yul\":9782:9786   */\n      dup2\n        /* \"#utility.yul\":9656:9787   */\n      tag_151\n      jump\t// in\n    tag_270:\n        /* \"#utility.yul\":9648:9787   */\n      swap1\n      pop\n        /* \"#utility.yul\":9375:9794   */\n      swap2\n      swap1\n      pop\n      jump\t// out\n        /* \"#utility.yul\":9800:9971   */\n    tag_152:\n        /* \"#utility.yul\":9940:9963   */\n      0x596f75207265616368656420746865206c696d69740000000000000000000000\n        /* \"#utility.yul\":9936:9937   */\n      0x00\n        /* \"#utility.yul\":9928:9934   */\n      dup3\n        /* \"#utility.yul\":9924:9938   */\n      add\n        /* \"#utility.yul\":9917:9964   */\n      mstore\n        /* \"#utility.yul\":9800:9971   */\n      pop\n      jump\t// out\n        /* \"#utility.yul\":9977:10343   */\n    tag_153:\n        /* \"#utility.yul\":10119:10122   */\n      0x00\n        /* \"#utility.yul\":10140:10207   */\n      tag_273\n        /* \"#utility.yul\":10204:10206   */\n      0x15\n        /* \"#utility.yul\":10199:10202   */\n      dup4\n        /* \"#utility.yul\":10140:10207   */\n      tag_142\n      jump\t// in\n    tag_273:\n        /* \"#utility.yul\":10133:10207   */\n      swap2\n      pop\n        /* \"#utility.yul\":10216:10309   */\n      tag_274\n        /* \"#utility.yul\":10305:10308   */\n      dup3\n        /* \"#utility.yul\":10216:10309   */\n      tag_152\n      jump\t// in\n    tag_274:\n        /* \"#utility.yul\":10334:10336   */\n      0x20\n        /* \"#utility.yul\":10329:10332   */\n      dup3\n        /* \"#utility.yul\":10325:10337   */\n      add\n        /* \"#utility.yul\":10318:10337   */\n      swap1\n      pop\n        /* \"#utility.yul\":9977:10343   */\n      swap2\n      swap1\n      pop\n      jump\t// out\n        /* \"#utility.yul\":10349:10768   */\n    tag_84:\n        /* \"#utility.yul\":10515:10519   */\n      0x00\n        /* \"#utility.yul\":10553:10555   */\n      0x20\n        /* \"#utility.yul\":10542:10551   */\n      dup3\n        /* \"#utility.yul\":10538:10556   */\n      add\n        /* \"#utility.yul\":10530:10556   */\n      swap1\n      pop\n        /* \"#utility.yul\":10602:10611   */\n      dup2\n        /* \"#utility.yul\":10596:10600   */\n      dup2\n        /* \"#utility.yul\":10592:10612   */\n      sub\n        /* \"#utility.yul\":10588:10589   */\n      0x00\n        /* \"#utility.yul\":10577:10586   */\n      dup4\n        /* \"#utility.yul\":10573:10590   */\n      add\n        /* \"#utility.yul\":10566:10613   */\n      mstore\n        /* \"#utility.yul\":10630:10761   */\n      tag_276\n        /* \"#utility.yul\":10756:10760   */\n      dup2\n        /* \"#utility.yul\":10630:10761   */\n      tag_153\n      jump\t// in\n    tag_276:\n        /* \"#utility.yul\":10622:10761   */\n      swap1\n      pop\n        /* \"#utility.yul\":10349:10768   */\n      swap2\n      swap1\n      pop\n      jump\t// out\n        /* \"#utility.yul\":10774:10954   */\n    tag_154:\n        /* \"#utility.yul\":10822:10899   */\n      0x4e487b7100000000000000000000000000000000000000000000000000000000\n        /* \"#utility.yul\":10819:10820   */\n      0x00\n        /* \"#utility.yul\":10812:10900   */\n      mstore\n        /* \"#utility.yul\":10919:10923   */\n      0x11\n        /* \"#utility.yul\":10916:10917   */\n      0x04\n        /* \"#utility.yul\":10909:10924   */\n      mstore\n        /* \"#utility.yul\":10943:10947   */\n      0x24\n        /* \"#utility.yul\":10940:10941   */\n      0x00\n        /* \"#utility.yul\":10933:10948   */\n      revert\n        /* \"#utility.yul\":10960:11265   */\n    tag_86:\n        /* \"#utility.yul\":11000:11003   */\n      0x00\n        /* \"#utility.yul\":11019:11039   */\n      tag_279\n        /* \"#utility.yul\":11037:11038   */\n      dup3\n        /* \"#utility.yul\":11019:11039   */\n      tag_123\n      jump\t// in\n    tag_279:\n        /* \"#utility.yul\":11014:11039   */\n      swap2\n      pop\n        /* \"#utility.yul\":11053:11073   */\n      tag_280\n        /* \"#utility.yul\":11071:11072   */\n      dup4\n        /* \"#utility.yul\":11053:11073   */\n      tag_123\n      jump\t// in\n    tag_280:\n        /* \"#utility.yul\":11048:11073   */\n      swap3\n      pop\n        /* \"#utility.yul\":11207:11208   */\n      dup3\n        /* \"#utility.yul\":11139:11205   */\n      0xffffffffffffffffffffffffffffffffffffffffffffffffffffffffffffffff\n        /* \"#utility.yul\":11135:11209   */\n      sub\n        /* \"#utility.yul\":11132:11133   */\n      dup3\n        /* \"#utility.yul\":11129:11210   */\n      gt\n        /* \"#utility.yul\":11126:11233   */\n      iszero\n      tag_281\n      jumpi\n        /* \"#utility.yul\":11213:11231   */\n      tag_282\n      tag_154\n      jump\t// in\n    tag_282:\n        /* \"#utility.yul\":11126:11233   */\n    tag_281:\n        /* \"#utility.yul\":11257:11258   */\n      dup3\n        /* \"#utility.yul\":11254:11255   */\n      dup3\n        /* \"#utility.yul\":11250:11259   */\n      add\n        /* \"#utility.yul\":11243:11259   */\n      swap1\n      pop\n        /* \"#utility.yul\":10960:11265   */\n      swap3\n      swap2\n      pop\n      pop\n      jump\t// out\n        /* \"#utility.yul\":11271:11432   */\n    tag_155:\n        /* \"#utility.yul\":11411:11424   */\n      0x54696d6520706173736564000000000000000000000000000000000000000000\n        /* \"#utility.yul\":11407:11408   */\n      0x00\n        /* \"#utility.yul\":11399:11405   */\n      dup3\n        /* \"#utility.yul\":11395:11409   */\n      add\n        /* \"#utility.yul\":11388:11425   */\n      mstore\n        /* \"#utility.yul\":11271:11432   */\n      pop\n      jump\t// out\n        /* \"#utility.yul\":11438:11804   */\n    tag_156:\n        /* \"#utility.yul\":11580:11583   */\n      0x00\n        /* \"#utility.yul\":11601:11668   */\n      tag_285\n        /* \"#utility.yul\":11665:11667   */\n      0x0b\n        /* \"#utility.yul\":11660:11663   */\n      dup4\n        /* \"#utility.yul\":11601:11668   */\n      tag_142\n      jump\t// in\n    tag_285:\n        /* \"#utility.yul\":11594:11668   */\n      swap2\n      pop\n        /* \"#utility.yul\":11677:11770   */\n      tag_286\n        /* \"#utility.yul\":11766:11769   */\n      dup3\n        /* \"#utility.yul\":11677:11770   */\n      tag_155\n      jump\t// in\n    tag_286:\n        /* \"#utility.yul\":11795:11797   */\n      0x20\n        /* \"#utility.yul\":11790:11793   */\n      dup3\n        /* \"#utility.yul\":11786:11798   */\n      add\n        /* \"#utility.yul\":11779:11798   */\n      swap1\n      pop\n        /* \"#utility.yul\":11438:11804   */\n      swap2\n      swap1\n      pop\n      jump\t// out\n        /* \"#utility.yul\":11810:12229   */\n    tag_89:\n        /* \"#utility.yul\":11976:11980   */\n      0x00\n        /* \"#utility.yul\":12014:12016   */\n      0x20\n        /* \"#utility.yul\":12003:12012   */\n      dup3\n        /* \"#utility.yul\":11999:12017   */\n      add\n        /* \"#utility.yul\":11991:12017   */\n      swap1\n      pop\n        /* \"#utility.yul\":12063:12072   */\n      dup2\n        /* \"#utility.yul\":12057:12061   */\n      dup2\n        /* \"#utility.yul\":12053:12073   */\n      sub\n        /* \"#utility.yul\":12049:12050   */\n      0x00\n        /* \"#utility.yul\":12038:12047   */\n      dup4\n        /* \"#utility.yul\":12034:12051   */\n      add\n        /* \"#utility.yul\":12027:12074   */\n      mstore\n        /* \"#utility.yul\":12091:12222   */\n      tag_288\n        /* \"#utility.yul\":12217:12221   */\n      dup2\n        /* \"#utility.yul\":12091:12222   */\n      tag_156\n      jump\t// in\n    tag_288:\n        /* \"#utility.yul\":12083:12222   */\n      swap1\n      pop\n        /* \"#utility.yul\":11810:12229   */\n      swap2\n      swap1\n      pop\n      jump\t// out\n        /* \"#utility.yul\":12235:12426   */\n    tag_95:\n        /* \"#utility.yul\":12275:12279   */\n      0x00\n        /* \"#utility.yul\":12295:12315   */\n      tag_290\n        /* \"#utility.yul\":12313:12314   */\n      dup3\n        /* \"#utility.yul\":12295:12315   */\n      tag_123\n      jump\t// in\n    tag_290:\n        /* \"#utility.yul\":12290:12315   */\n      swap2\n      pop\n        /* \"#utility.yul\":12329:12349   */\n      tag_291\n        /* \"#utility.yul\":12347:12348   */\n      dup4\n        /* \"#utility.yul\":12329:12349   */\n      tag_123\n      jump\t// in\n    tag_291:\n        /* \"#utility.yul\":12324:12349   */\n      swap3\n      pop\n        /* \"#utility.yul\":12368:12369   */\n      dup3\n        /* \"#utility.yul\":12365:12366   */\n      dup3\n        /* \"#utility.yul\":12362:12370   */\n      lt\n        /* \"#utility.yul\":12359:12393   */\n      iszero\n      tag_292\n      jumpi\n        /* \"#utility.yul\":12373:12391   */\n      tag_293\n      tag_154\n      jump\t// in\n    tag_293:\n        /* \"#utility.yul\":12359:12393   */\n    tag_292:\n        /* \"#utility.yul\":12418:12419   */\n      dup3\n        /* \"#utility.yul\":12415:12416   */\n      dup3\n        /* \"#utility.yul\":12411:12420   */\n      sub\n        /* \"#utility.yul\":12403:12420   */\n      swap1\n      pop\n        /* \"#utility.yul\":12235:12426   */\n      swap3\n      swap2\n      pop\n      pop\n      jump\t// out\n        /* \"#utility.yul\":12432:12573   */\n    tag_157:\n        /* \"#utility.yul\":12481:12485   */\n      0x00\n        /* \"#utility.yul\":12504:12507   */\n      dup2\n        /* \"#utility.yul\":12496:12507   */\n      swap1\n      pop\n        /* \"#utility.yul\":12527:12530   */\n      dup2\n        /* \"#utility.yul\":12524:12525   */\n      0x00\n        /* \"#utility.yul\":12517:12531   */\n      mstore\n        /* \"#utility.yul\":12561:12565   */\n      0x20\n        /* \"#utility.yul\":12558:12559   */\n      0x00\n        /* \"#utility.yul\":12548:12566   */\n      keccak256\n        /* \"#utility.yul\":12540:12566   */\n      swap1\n      pop\n        /* \"#utility.yul\":12432:12573   */\n      swap2\n      swap1\n      pop\n      jump\t// out\n        /* \"#utility.yul\":12579:12672   */\n    tag_158:\n        /* \"#utility.yul\":12616:12622   */\n      0x00\n        /* \"#utility.yul\":12663:12665   */\n      0x20\n        /* \"#utility.yul\":12658:12660   */\n      0x1f\n        /* \"#utility.yul\":12651:12656   */\n      dup4\n        /* \"#utility.yul\":12647:12661   */\n      add\n        /* \"#utility.yul\":12643:12666   */\n      div\n        /* \"#utility.yul\":12633:12666   */\n      swap1\n      pop\n        /* \"#utility.yul\":12579:12672   */\n      swap2\n      swap1\n      pop\n      jump\t// out\n        /* \"#utility.yul\":12678:12785   */\n    tag_159:\n        /* \"#utility.yul\":12722:12730   */\n      0x00\n        /* \"#utility.yul\":12772:12777   */\n      dup3\n        /* \"#utility.yul\":12766:12770   */\n      dup3\n        /* \"#utility.yul\":12762:12778   */\n      shl\n        /* \"#utility.yul\":12741:12778   */\n      swap1\n      pop\n        /* \"#utility.yul\":12678:12785   */\n      swap3\n      swap2\n      pop\n      pop\n      jump\t// out\n        /* \"#utility.yul\":12791:13184   */\n    tag_160:\n        /* \"#utility.yul\":12860:12866   */\n      0x00\n        /* \"#utility.yul\":12910:12911   */\n      0x08\n        /* \"#utility.yul\":12898:12908   */\n      dup4\n        /* \"#utility.yul\":12894:12912   */\n      mul\n        /* \"#utility.yul\":12933:13030   */\n      tag_298\n        /* \"#utility.yul\":12963:13029   */\n      0xffffffffffffffffffffffffffffffffffffffffffffffffffffffffffffffff\n        /* \"#utility.yul\":12952:12961   */\n      dup3\n        /* \"#utility.yul\":12933:13030   */\n      tag_159\n      jump\t// in\n    tag_298:\n        /* \"#utility.yul\":13051:13090   */\n      tag_299\n        /* \"#utility.yul\":13081:13089   */\n      dup7\n        /* \"#utility.yul\":13070:13079   */\n      dup4\n        /* \"#utility.yul\":13051:13090   */\n      tag_159\n      jump\t// in\n    tag_299:\n        /* \"#utility.yul\":13039:13090   */\n      swap6\n      pop\n        /* \"#utility.yul\":13123:13127   */\n      dup1\n        /* \"#utility.yul\":13119:13128   */\n      not\n        /* \"#utility.yul\":13112:13117   */\n      dup5\n        /* \"#utility.yul\":13108:13129   */\n      and\n        /* \"#utility.yul\":13099:13129   */\n      swap4\n      pop\n        /* \"#utility.yul\":13172:13176   */\n      dup1\n        /* \"#utility.yul\":13162:13170   */\n      dup7\n        /* \"#utility.yul\":13158:13177   */\n      and\n        /* \"#utility.yul\":13151:13156   */\n      dup5\n        /* \"#utility.yul\":13148:13178   */\n      or\n        /* \"#utility.yul\":13138:13178   */\n      swap3\n      pop\n        /* \"#utility.yul\":12867:13184   */\n      pop\n      pop\n        /* \"#utility.yul\":12791:13184   */\n      swap4\n      swap3\n      pop\n      pop\n      pop\n      jump\t// out\n        /* \"#utility.yul\":13190:13250   */\n    tag_161:\n        /* \"#utility.yul\":13218:13221   */\n      0x00\n        /* \"#utility.yul\":13239:13244   */\n      dup2\n        /* \"#utility.yul\":13232:13244   */\n      swap1\n      pop\n        /* \"#utility.yul\":13190:13250   */\n      swap2\n      swap1\n      pop\n      jump\t// out\n        /* \"#utility.yul\":13256:13398   */\n    tag_162:\n        /* \"#utility.yul\":13306:13315   */\n      0x00\n        /* \"#utility.yul\":13339:13392   */\n      tag_302\n        /* \"#utility.yul\":13357:13391   */\n      tag_303\n        /* \"#utility.yul\":13366:13390   */\n      tag_304\n        /* \"#utility.yul\":13384:13389   */\n      dup5\n        /* \"#utility.yul\":13366:13390   */\n      tag_123\n      jump\t// in\n    tag_304:\n        /* \"#utility.yul\":13357:13391   */\n      tag_161\n      jump\t// in\n    tag_303:\n        /* \"#utility.yul\":13339:13392   */\n      tag_123\n      jump\t// in\n    tag_302:\n        /* \"#utility.yul\":13326:13392   */\n      swap1\n      pop\n        /* \"#utility.yul\":13256:13398   */\n      swap2\n      swap1\n      pop\n      jump\t// out\n        /* \"#utility.yul\":13404:13479   */\n    tag_163:\n        /* \"#utility.yul\":13447:13450   */\n      0x00\n        /* \"#utility.yul\":13468:13473   */\n      dup2\n        /* \"#utility.yul\":13461:13473   */\n      swap1\n      pop\n        /* \"#utility.yul\":13404:13479   */\n      swap2\n      swap1\n      pop\n      jump\t// out\n        /* \"#utility.yul\":13485:13754   */\n    tag_164:\n        /* \"#utility.yul\":13595:13634   */\n      tag_307\n        /* \"#utility.yul\":13626:13633   */\n      dup4\n        /* \"#utility.yul\":13595:13634   */\n      tag_162\n      jump\t// in\n    tag_307:\n        /* \"#utility.yul\":13656:13747   */\n      tag_308\n        /* \"#utility.yul\":13705:13746   */\n      tag_309\n        /* \"#utility.yul\":13729:13745   */\n      dup3\n        /* \"#utility.yul\":13705:13746   */\n      tag_163\n      jump\t// in\n    tag_309:\n        /* \"#utility.yul\":13697:13703   */\n      dup5\n        /* \"#utility.yul\":13690:13694   */\n      dup5\n        /* \"#utility.yul\":13684:13695   */\n      sload\n        /* \"#utility.yul\":13656:13747   */\n      tag_160\n      jump\t// in\n    tag_308:\n        /* \"#utility.yul\":13650:13654   */\n      dup3\n        /* \"#utility.yul\":13643:13748   */\n      sstore\n        /* \"#utility.yul\":13561:13754   */\n      pop\n        /* \"#utility.yul\":13485:13754   */\n      pop\n      pop\n      pop\n      jump\t// out\n        /* \"#utility.yul\":13760:13833   */\n    tag_165:\n        /* \"#utility.yul\":13805:13808   */\n      0x00\n        /* \"#utility.yul\":13760:13833   */\n      swap1\n      jump\t// out\n        /* \"#utility.yul\":13839:14028   */\n    tag_166:\n        /* \"#utility.yul\":13916:13948   */\n      tag_312\n      tag_165\n      jump\t// in\n    tag_312:\n        /* \"#utility.yul\":13957:14022   */\n      tag_313\n        /* \"#utility.yul\":14015:14021   */\n      dup2\n        /* \"#utility.yul\":14007:14013   */\n      dup5\n        /* \"#utility.yul\":14001:14005   */\n      dup5\n        /* \"#utility.yul\":13957:14022   */\n      tag_164\n      jump\t// in\n    tag_313:\n        /* \"#utility.yul\":13892:14028   */\n      pop\n        /* \"#utility.yul\":13839:14028   */\n      pop\n      pop\n      jump\t// out\n        /* \"#utility.yul\":14034:14220   */\n    tag_167:\n        /* \"#utility.yul\":14094:14214   */\n    tag_315:\n        /* \"#utility.yul\":14111:14114   */\n      dup2\n        /* \"#utility.yul\":14104:14109   */\n      dup2\n        /* \"#utility.yul\":14101:14115   */\n      lt\n        /* \"#utility.yul\":14094:14214   */\n      iszero\n      tag_317\n      jumpi\n        /* \"#utility.yul\":14165:14204   */\n      tag_318\n        /* \"#utility.yul\":14202:14203   */\n      0x00\n        /* \"#utility.yul\":14195:14200   */\n      dup3\n        /* \"#utility.yul\":14165:14204   */\n      tag_166\n      jump\t// in\n    tag_318:\n        /* \"#utility.yul\":14138:14139   */\n      0x01\n        /* \"#utility.yul\":14131:14136   */\n      dup2\n        /* \"#utility.yul\":14127:14140   */\n      add\n        /* \"#utility.yul\":14118:14140   */\n      swap1\n      pop\n        /* \"#utility.yul\":14094:14214   */\n      jump(tag_315)\n    tag_317:\n        /* \"#utility.yul\":14034:14220   */\n      pop\n      pop\n      jump\t// out\n        /* \"#utility.yul\":14226:14769   */\n    tag_168:\n        /* \"#utility.yul\":14327:14329   */\n      0x1f\n        /* \"#utility.yul\":14322:14325   */\n      dup3\n        /* \"#utility.yul\":14319:14330   */\n      gt\n        /* \"#utility.yul\":14316:14762   */\n      iszero\n      tag_320\n      jumpi\n        /* \"#utility.yul\":14361:14399   */\n      tag_321\n        /* \"#utility.yul\":14393:14398   */\n      dup2\n        /* \"#utility.yul\":14361:14399   */\n      tag_157\n      jump\t// in\n    tag_321:\n        /* \"#utility.yul\":14445:14474   */\n      tag_322\n        /* \"#utility.yul\":14463:14473   */\n      dup5\n        /* \"#utility.yul\":14445:14474   */\n      tag_158\n      jump\t// in\n    tag_322:\n        /* \"#utility.yul\":14435:14443   */\n      dup2\n        /* \"#utility.yul\":14431:14475   */\n      add\n        /* \"#utility.yul\":14628:14630   */\n      0x20\n        /* \"#utility.yul\":14616:14626   */\n      dup6\n        /* \"#utility.yul\":14613:14631   */\n      lt\n        /* \"#utility.yul\":14610:14659   */\n      iszero\n      tag_323\n      jumpi\n        /* \"#utility.yul\":14649:14657   */\n      dup2\n        /* \"#utility.yul\":14634:14657   */\n      swap1\n      pop\n        /* \"#utility.yul\":14610:14659   */\n    tag_323:\n        /* \"#utility.yul\":14672:14752   */\n      tag_324\n        /* \"#utility.yul\":14728:14750   */\n      tag_325\n        /* \"#utility.yul\":14746:14749   */\n      dup6\n        /* \"#utility.yul\":14728:14750   */\n      tag_158\n      jump\t// in\n    tag_325:\n        /* \"#utility.yul\":14718:14726   */\n      dup4\n        /* \"#utility.yul\":14714:14751   */\n      add\n        /* \"#utility.yul\":14701:14712   */\n      dup3\n        /* \"#utility.yul\":14672:14752   */\n      tag_167\n      jump\t// in\n    tag_324:\n        /* \"#utility.yul\":14331:14762   */\n      pop\n      pop\n        /* \"#utility.yul\":14316:14762   */\n    tag_320:\n        /* \"#utility.yul\":14226:14769   */\n      pop\n      pop\n      pop\n      jump\t// out\n        /* \"#utility.yul\":14775:14892   */\n    tag_169:\n        /* \"#utility.yul\":14829:14837   */\n      0x00\n        /* \"#utility.yul\":14879:14884   */\n      dup3\n        /* \"#utility.yul\":14873:14877   */\n      dup3\n        /* \"#utility.yul\":14869:14885   */\n      shr\n        /* \"#utility.yul\":14848:14885   */\n      swap1\n      pop\n        /* \"#utility.yul\":14775:14892   */\n      swap3\n      swap2\n      pop\n      pop\n      jump\t// out\n        /* \"#utility.yul\":14898:15067   */\n    tag_170:\n        /* \"#utility.yul\":14942:14948   */\n      0x00\n        /* \"#utility.yul\":14975:15026   */\n      tag_328\n        /* \"#utility.yul\":15023:15024   */\n      0x00\n        /* \"#utility.yul\":15019:15025   */\n      not\n        /* \"#utility.yul\":15011:15016   */\n      dup5\n        /* \"#utility.yul\":15008:15009   */\n      0x08\n        /* \"#utility.yul\":15004:15017   */\n      mul\n        /* \"#utility.yul\":14975:15026   */\n      tag_169\n      jump\t// in\n    tag_328:\n        /* \"#utility.yul\":14971:15027   */\n      not\n        /* \"#utility.yul\":15056:15060   */\n      dup1\n        /* \"#utility.yul\":15050:15054   */\n      dup4\n        /* \"#utility.yul\":15046:15061   */\n      and\n        /* \"#utility.yul\":15036:15061   */\n      swap2\n      pop\n        /* \"#utility.yul\":14949:15067   */\n      pop\n        /* \"#utility.yul\":14898:15067   */\n      swap3\n      swap2\n      pop\n      pop\n      jump\t// out\n        /* \"#utility.yul\":15072:15367   */\n    tag_171:\n        /* \"#utility.yul\":15148:15152   */\n      0x00\n        /* \"#utility.yul\":15294:15323   */\n      tag_330\n        /* \"#utility.yul\":15319:15322   */\n      dup4\n        /* \"#utility.yul\":15313:15317   */\n      dup4\n        /* \"#utility.yul\":15294:15323   */\n      tag_170\n      jump\t// in\n    tag_330:\n        /* \"#utility.yul\":15286:15323   */\n      swap2\n      pop\n        /* \"#utility.yul\":15356:15359   */\n      dup3\n        /* \"#utility.yul\":15353:15354   */\n      0x02\n        /* \"#utility.yul\":15349:15360   */\n      mul\n        /* \"#utility.yul\":15343:15347   */\n      dup3\n        /* \"#utility.yul\":15340:15361   */\n      or\n        /* \"#utility.yul\":15332:15361   */\n      swap1\n      pop\n        /* \"#utility.yul\":15072:15367   */\n      swap3\n      swap2\n      pop\n      pop\n      jump\t// out\n        /* \"#utility.yul\":15372:16767   */\n    tag_98:\n        /* \"#utility.yul\":15489:15526   */\n      tag_332\n        /* \"#utility.yul\":15522:15525   */\n      dup3\n        /* \"#utility.yul\":15489:15526   */\n      tag_141\n      jump\t// in\n    tag_332:\n        /* \"#utility.yul\":15591:15609   */\n      0xffffffffffffffff\n        /* \"#utility.yul\":15583:15589   */\n      dup2\n        /* \"#utility.yul\":15580:15610   */\n      gt\n        /* \"#utility.yul\":15577:15633   */\n      iszero\n      tag_333\n      jumpi\n        /* \"#utility.yul\":15613:15631   */\n      tag_334\n      tag_134\n      jump\t// in\n    tag_334:\n        /* \"#utility.yul\":15577:15633   */\n    tag_333:\n        /* \"#utility.yul\":15657:15695   */\n      tag_335\n        /* \"#utility.yul\":15689:15693   */\n      dup3\n        /* \"#utility.yul\":15683:15694   */\n      sload\n        /* \"#utility.yul\":15657:15695   */\n      tag_71\n      jump\t// in\n    tag_335:\n        /* \"#utility.yul\":15742:15809   */\n      tag_336\n        /* \"#utility.yul\":15802:15808   */\n      dup3\n        /* \"#utility.yul\":15794:15800   */\n      dup3\n        /* \"#utility.yul\":15788:15792   */\n      dup6\n        /* \"#utility.yul\":15742:15809   */\n      tag_168\n      jump\t// in\n    tag_336:\n        /* \"#utility.yul\":15836:15837   */\n      0x00\n        /* \"#utility.yul\":15860:15864   */\n      0x20\n        /* \"#utility.yul\":15847:15864   */\n      swap1\n      pop\n        /* \"#utility.yul\":15892:15894   */\n      0x1f\n        /* \"#utility.yul\":15884:15890   */\n      dup4\n        /* \"#utility.yul\":15881:15895   */\n      gt\n        /* \"#utility.yul\":15909:15910   */\n      0x01\n        /* \"#utility.yul\":15904:16522   */\n      dup2\n      eq\n      tag_338\n      jumpi\n        /* \"#utility.yul\":16566:16567   */\n      0x00\n        /* \"#utility.yul\":16583:16589   */\n      dup5\n        /* \"#utility.yul\":16580:16657   */\n      iszero\n      tag_339\n      jumpi\n        /* \"#utility.yul\":16632:16641   */\n      dup3\n        /* \"#utility.yul\":16627:16630   */\n      dup8\n        /* \"#utility.yul\":16623:16642   */\n      add\n        /* \"#utility.yul\":16617:16643   */\n      mload\n        /* \"#utility.yul\":16608:16643   */\n      swap1\n      pop\n        /* \"#utility.yul\":16580:16657   */\n    tag_339:\n        /* \"#utility.yul\":16683:16750   */\n      tag_340\n        /* \"#utility.yul\":16743:16749   */\n      dup6\n        /* \"#utility.yul\":16736:16741   */\n      dup3\n        /* \"#utility.yul\":16683:16750   */\n      tag_171\n      jump\t// in\n    tag_340:\n        /* \"#utility.yul\":16677:16681   */\n      dup7\n        /* \"#utility.yul\":16670:16751   */\n      sstore\n        /* \"#utility.yul\":16539:16761   */\n      pop\n        /* \"#utility.yul\":15874:16761   */\n      jump(tag_337)\n        /* \"#utility.yul\":15904:16522   */\n    tag_338:\n        /* \"#utility.yul\":15956:15960   */\n      0x1f\n        /* \"#utility.yul\":15952:15961   */\n      not\n        /* \"#utility.yul\":15944:15950   */\n      dup5\n        /* \"#utility.yul\":15940:15962   */\n      and\n        /* \"#utility.yul\":15990:16027   */\n      tag_341\n        /* \"#utility.yul\":16022:16026   */\n      dup7\n        /* \"#utility.yul\":15990:16027   */\n      tag_157\n      jump\t// in\n    tag_341:\n        /* \"#utility.yul\":16049:16050   */\n      0x00\n        /* \"#utility.yul\":16063:16271   */\n    tag_342:\n        /* \"#utility.yul\":16077:16084   */\n      dup3\n        /* \"#utility.yul\":16074:16075   */\n      dup2\n        /* \"#utility.yul\":16071:16085   */\n      lt\n        /* \"#utility.yul\":16063:16271   */\n      iszero\n      tag_344\n      jumpi\n        /* \"#utility.yul\":16156:16165   */\n      dup5\n        /* \"#utility.yul\":16151:16154   */\n      dup10\n        /* \"#utility.yul\":16147:16166   */\n      add\n        /* \"#utility.yul\":16141:16167   */\n      mload\n        /* \"#utility.yul\":16133:16139   */\n      dup3\n        /* \"#utility.yul\":16126:16168   */\n      sstore\n        /* \"#utility.yul\":16207:16208   */\n      0x01\n        /* \"#utility.yul\":16199:16205   */\n      dup3\n        /* \"#utility.yul\":16195:16209   */\n      add\n        /* \"#utility.yul\":16185:16209   */\n      swap2\n      pop\n        /* \"#utility.yul\":16254:16256   */\n      0x20\n        /* \"#utility.yul\":16243:16252   */\n      dup6\n        /* \"#utility.yul\":16239:16257   */\n      add\n        /* \"#utility.yul\":16226:16257   */\n      swap5\n      pop\n        /* \"#utility.yul\":16100:16104   */\n      0x20\n        /* \"#utility.yul\":16097:16098   */\n      dup2\n        /* \"#utility.yul\":16093:16105   */\n      add\n        /* \"#utility.yul\":16088:16105   */\n      swap1\n      pop\n        /* \"#utility.yul\":16063:16271   */\n      jump(tag_342)\n    tag_344:\n        /* \"#utility.yul\":16299:16305   */\n      dup7\n        /* \"#utility.yul\":16290:16297   */\n      dup4\n        /* \"#utility.yul\":16287:16306   */\n      lt\n        /* \"#utility.yul\":16284:16463   */\n      iszero\n      tag_345\n      jumpi\n        /* \"#utility.yul\":16357:16366   */\n      dup5\n        /* \"#utility.yul\":16352:16355   */\n      dup10\n        /* \"#utility.yul\":16348:16367   */\n      add\n        /* \"#utility.yul\":16342:16368   */\n      mload\n        /* \"#utility.yul\":16400:16448   */\n      tag_346\n        /* \"#utility.yul\":16442:16446   */\n      0x1f\n        /* \"#utility.yul\":16434:16440   */\n      dup10\n        /* \"#utility.yul\":16430:16447   */\n      and\n        /* \"#utility.yul\":16419:16428   */\n      dup3\n        /* \"#utility.yul\":16400:16448   */\n      tag_170\n      jump\t// in\n    tag_346:\n        /* \"#utility.yul\":16392:16398   */\n      dup4\n        /* \"#utility.yul\":16385:16449   */\n      sstore\n        /* \"#utility.yul\":16307:16463   */\n      pop\n        /* \"#utility.yul\":16284:16463   */\n    tag_345:\n        /* \"#utility.yul\":16509:16510   */\n      0x01\n        /* \"#utility.yul\":16505:16506   */\n      0x02\n        /* \"#utility.yul\":16497:16503   */\n      dup9\n        /* \"#utility.yul\":16493:16507   */\n      mul\n        /* \"#utility.yul\":16489:16511   */\n      add\n        /* \"#utility.yul\":16483:16487   */\n      dup9\n        /* \"#utility.yul\":16476:16512   */\n      sstore\n        /* \"#utility.yul\":15911:16522   */\n      pop\n      pop\n      pop\n        /* \"#utility.yul\":15874:16761   */\n    tag_337:\n      pop\n        /* \"#utility.yul\":15464:16767   */\n      pop\n      pop\n      pop\n        /* \"#utility.yul\":15372:16767   */\n      pop\n      pop\n      jump\t// out\n\n    auxdata: 0xa264697066735822122079af264f3c6045cbd068734231667c6871c7b85e108348f12082b6eb598a92fa64736f6c634300080f0033\n}\n",
				"bytecode": {
					"linkReferences": {},
					"object": "6080604052620151806003556000600f553480156200001d57600080fd5b50604051620017263803806200172683398181016040528101906200004391906200024f565b81600a90816200005491906200052a565b5080600b90816200006691906200052a565b508260018190555050505062000611565b6000604051905090565b600080fd5b600080fd5b6000819050919050565b620000a0816200008b565b8114620000ac57600080fd5b50565b600081519050620000c08162000095565b92915050565b600080fd5b600080fd5b6000601f19601f8301169050919050565b7f4e487b7100000000000000000000000000000000000000000000000000000000600052604160045260246000fd5b6200011b82620000d0565b810181811067ffffffffffffffff821117156200013d576200013c620000e1565b5b80604052505050565b60006200015262000077565b905062000160828262000110565b919050565b600067ffffffffffffffff821115620001835762000182620000e1565b5b6200018e82620000d0565b9050602081019050919050565b60005b83811015620001bb5780820151818401526020810190506200019e565b83811115620001cb576000848401525b50505050565b6000620001e8620001e28462000165565b62000146565b905082815260208101848484011115620002075762000206620000cb565b5b620002148482856200019b565b509392505050565b600082601f830112620002345762000233620000c6565b5b815162000246848260208601620001d1565b91505092915050565b6000806000606084860312156200026b576200026a62000081565b5b60006200027b86828701620000af565b935050602084015167ffffffffffffffff8111156200029f576200029e62000086565b5b620002ad868287016200021c565b925050604084015167ffffffffffffffff811115620002d157620002d062000086565b5b620002df868287016200021c565b9150509250925092565b600081519050919050565b7f4e487b7100000000000000000000000000000000000000000000000000000000600052602260045260246000fd5b600060028204905060018216806200033c57607f821691505b602082108103620003525762000351620002f4565b5b50919050565b60008190508160005260206000209050919050565b60006020601f8301049050919050565b600082821b905092915050565b600060088302620003bc7fffffffffffffffffffffffffffffffffffffffffffffffffffffffffffffffff826200037d565b620003c886836200037d565b95508019841693508086168417925050509392505050565b6000819050919050565b60006200040b62000405620003ff846200008b565b620003e0565b6200008b565b9050919050565b6000819050919050565b6200042783620003ea565b6200043f620004368262000412565b8484546200038a565b825550505050565b600090565b6200045662000447565b620004638184846200041c565b505050565b5b818110156200048b576200047f6000826200044c565b60018101905062000469565b5050565b601f821115620004da57620004a48162000358565b620004af846200036d565b81016020851015620004bf578190505b620004d7620004ce856200036d565b83018262000468565b50505b505050565b600082821c905092915050565b6000620004ff60001984600802620004df565b1980831691505092915050565b60006200051a8383620004ec565b9150826002028217905092915050565b6200053582620002e9565b67ffffffffffffffff811115620005515762000550620000e1565b5b6200055d825462000323565b6200056a8282856200048f565b600060209050601f831160018114620005a257600084156200058d578287015190505b6200059985826200050c565b86555062000609565b601f198416620005b28662000358565b60005b82811015620005dc57848901518255600182019150602085019450602081019050620005b5565b86831015620005fc5784890151620005f8601f891682620004ec565b8355505b6001600288020188555050505b505050505050565b61110580620006216000396000f3fe608060405234801561001057600080fd5b50600436106100ea5760003560e01c80637eb9f5711161008c57806394b5dcaa1161006657806394b5dcaa14610203578063aa8c217c14610221578063bc3094961461023f578063e21f37ce1461025d576100ea565b80637eb9f571146101bd5780638e029c0b146101db5780638fa11864146101e5576100ea565b806334f5ccde116100c857806334f5ccde1461014557806342fb7936146101635780634b28f9a2146101815780637b9a3f4c1461019f576100ea565b8063062a7544146100ef5780630e85fa721461010b57806312a029a414610129575b600080fd5b6101096004803603810190610104919061084a565b61027b565b005b610113610590565b6040516101209190610899565b60405180910390f35b610143600480360381019061013e91906109fa565b610596565b005b61014d6105ba565b60405161015a9190610899565b60405180910390f35b61016b6105c0565b6040516101789190610afa565b60405180910390f35b61018961064e565b6040516101969190610899565b60405180910390f35b6101a7610654565b6040516101b49190610899565b60405180910390f35b6101c561065a565b6040516101d29190610899565b60405180910390f35b6101e3610660565b005b6101ed610674565b6040516101fa9190610afa565b60405180910390f35b61020b610702565b6040516102189190610899565b60405180910390f35b610229610708565b6040516102369190610899565b60405180910390f35b61024761070e565b6040516102549190610899565b60405180910390f35b610265610714565b6040516102729190610afa565b60405180910390f35b8080600260006101000a81548173ffffffffffffffffffffffffffffffffffffffff021916908373ffffffffffffffffffffffffffffffffffffffff160217905550600073ffffffffffffffffffffffffffffffffffffffff168173ffffffffffffffffffffffffffffffffffffffff160361032c576040517f08c379a000000000000000000000000000000000000000000000000000000000815260040161032390610b68565b60405180910390fd5b6008600a805461033b90610bb7565b905014801561035857506003600b805461035490610bb7565b9050145b610397576040517f08c379a000000000000000000000000000000000000000000000000000000000815260040161038e90610c34565b60405180910390fd5b60006001541180156103ac5750600054600154115b6103eb576040517f08c379a00000000000000000000000000000000000000000000000000000000081526004016103e290610ca0565b60405180910390fd5b6109c4600c541115610432576040517f08c379a000000000000000000000000000000000000000000000000000000000815260040161042990610d0c565b60405180910390fd5b42600d81905550601e600d546104489190610d5b565b600d541061048b576040517f08c379a000000000000000000000000000000000000000000000000000000000815260040161048290610dfd565b60405180910390fd5b81600260006101000a81548173ffffffffffffffffffffffffffffffffffffffff021916908373ffffffffffffffffffffffffffffffffffffffff160217905550826000819055506001600f60008282546104e69190610d5b565b9250508190555060006001541180156105025750600054600154115b1561058b576000546001600082825461051b9190610e1d565b92505081905550600054600c60008282546105369190610d5b565b925050819055506040518060400160405280601281526020017f5472616e7366657220636f6d706c657465640000000000000000000000000000815250600990816105819190610ffd565b5061058a610660565b5b505050565b600d5481565b81600a90816105a59190610ffd565b5080600b90816105b59190610ffd565b505050565b600e5481565b600b80546105cd90610bb7565b80601f01602080910402602001604051908101604052809291908181526020018280546105f990610bb7565b80156106465780601f1061061b57610100808354040283529160200191610646565b820191906000526020600020905b81548152906001019060200180831161062957829003601f168201915b505050505081565b600f5481565b60015481565b600c5481565b6000600f54146106725742600d819055505b565b600a805461068190610bb7565b80601f01602080910402602001604051908101604052809291908181526020018280546106ad90610bb7565b80156106fa5780601f106106cf576101008083540402835291602001916106fa565b820191906000526020600020905b8154815290600101906020018083116106dd57829003601f168201915b505050505081565b60045481565b60005481565b60085481565b6009805461072190610bb7565b80601f016020809104026020016040519081016040528092919081815260200182805461074d90610bb7565b801561079a5780601f1061076f5761010080835404028352916020019161079a565b820191906000526020600020905b81548152906001019060200180831161077d57829003601f168201915b505050505081565b6000604051905090565b600080fd5b600080fd5b6000819050919050565b6107c9816107b6565b81146107d457600080fd5b50565b6000813590506107e6816107c0565b92915050565b600073ffffffffffffffffffffffffffffffffffffffff82169050919050565b6000610817826107ec565b9050919050565b6108278161080c565b811461083257600080fd5b50565b6000813590506108448161081e565b92915050565b60008060408385031215610861576108606107ac565b5b600061086f858286016107d7565b925050602061088085828601610835565b9150509250929050565b610893816107b6565b82525050565b60006020820190506108ae600083018461088a565b92915050565b600080fd5b600080fd5b6000601f19601f8301169050919050565b7f4e487b7100000000000000000000000000000000000000000000000000000000600052604160045260246000fd5b610907826108be565b810181811067ffffffffffffffff82111715610926576109256108cf565b5b80604052505050565b60006109396107a2565b905061094582826108fe565b919050565b600067ffffffffffffffff821115610965576109646108cf565b5b61096e826108be565b9050602081019050919050565b82818337600083830152505050565b600061099d6109988461094a565b61092f565b9050828152602081018484840111156109b9576109b86108b9565b5b6109c484828561097b565b509392505050565b600082601f8301126109e1576109e06108b4565b5b81356109f184826020860161098a565b91505092915050565b60008060408385031215610a1157610a106107ac565b5b600083013567ffffffffffffffff811115610a2f57610a2e6107b1565b5b610a3b858286016109cc565b925050602083013567ffffffffffffffff811115610a5c57610a5b6107b1565b5b610a68858286016109cc565b9150509250929050565b600081519050919050565b600082825260208201905092915050565b60005b83811015610aac578082015181840152602081019050610a91565b83811115610abb576000848401525b50505050565b6000610acc82610a72565b610ad68185610a7d565b9350610ae6818560208601610a8e565b610aef816108be565b840191505092915050565b60006020820190508181036000830152610b148184610ac1565b905092915050565b7f2054686973206164647265737320646f65736e27742065786973747300000000600082015250565b6000610b52601c83610a7d565b9150610b5d82610b1c565b602082019050919050565b60006020820190508181036000830152610b8181610b45565b9050919050565b7f4e487b7100000000000000000000000000000000000000000000000000000000600052602260045260246000fd5b60006002820490506001821680610bcf57607f821691505b602082108103610be257610be1610b88565b5b50919050565b7f4e6f2076616c6964206372656469742063617264000000000000000000000000600082015250565b6000610c1e601483610a7d565b9150610c2982610be8565b602082019050919050565b60006020820190508181036000830152610c4d81610c11565b9050919050565b7f4e6f7420656e6f7567682066756e647300000000000000000000000000000000600082015250565b6000610c8a601083610a7d565b9150610c9582610c54565b602082019050919050565b60006020820190508181036000830152610cb981610c7d565b9050919050565b7f596f75207265616368656420746865206c696d69740000000000000000000000600082015250565b6000610cf6601583610a7d565b9150610d0182610cc0565b602082019050919050565b60006020820190508181036000830152610d2581610ce9565b9050919050565b7f4e487b7100000000000000000000000000000000000000000000000000000000600052601160045260246000fd5b6000610d66826107b6565b9150610d71836107b6565b9250827fffffffffffffffffffffffffffffffffffffffffffffffffffffffffffffffff03821115610da657610da5610d2c565b5b828201905092915050565b7f54696d6520706173736564000000000000000000000000000000000000000000600082015250565b6000610de7600b83610a7d565b9150610df282610db1565b602082019050919050565b60006020820190508181036000830152610e1681610dda565b9050919050565b6000610e28826107b6565b9150610e33836107b6565b925082821015610e4657610e45610d2c565b5b828203905092915050565b60008190508160005260206000209050919050565b60006020601f8301049050919050565b600082821b905092915050565b600060088302610eb37fffffffffffffffffffffffffffffffffffffffffffffffffffffffffffffffff82610e76565b610ebd8683610e76565b95508019841693508086168417925050509392505050565b6000819050919050565b6000610efa610ef5610ef0846107b6565b610ed5565b6107b6565b9050919050565b6000819050919050565b610f1483610edf565b610f28610f2082610f01565b848454610e83565b825550505050565b600090565b610f3d610f30565b610f48818484610f0b565b505050565b5b81811015610f6c57610f61600082610f35565b600181019050610f4e565b5050565b601f821115610fb157610f8281610e51565b610f8b84610e66565b81016020851015610f9a578190505b610fae610fa685610e66565b830182610f4d565b50505b505050565b600082821c905092915050565b6000610fd460001984600802610fb6565b1980831691505092915050565b6000610fed8383610fc3565b9150826002028217905092915050565b61100682610a72565b67ffffffffffffffff81111561101f5761101e6108cf565b5b6110298254610bb7565b611034828285610f70565b600060209050601f8311600181146110675760008415611055578287015190505b61105f8582610fe1565b8655506110c7565b601f19841661107586610e51565b60005b8281101561109d57848901518255600182019150602085019450602081019050611078565b868310156110ba57848901516110b6601f891682610fc3565b8355505b6001600288020188555050505b50505050505056fea264697066735822122079af264f3c6045cbd068734231667c6871c7b85e108348f12082b6eb598a92fa64736f6c634300080f0033",
					"opcodes": "PUSH1 0x80 PUSH1 0x40 MSTORE PUSH3 0x15180 PUSH1 0x3 SSTORE PUSH1 0x0 PUSH1 0xF SSTORE CALLVALUE DUP1 ISZERO PUSH3 0x1D JUMPI PUSH1 0x0 DUP1 REVERT JUMPDEST POP PUSH1 0x40 MLOAD PUSH3 0x1726 CODESIZE SUB DUP1 PUSH3 0x1726 DUP4 CODECOPY DUP2 DUP2 ADD PUSH1 0x40 MSTORE DUP2 ADD SWAP1 PUSH3 0x43 SWAP2 SWAP1 PUSH3 0x24F JUMP JUMPDEST DUP2 PUSH1 0xA SWAP1 DUP2 PUSH3 0x54 SWAP2 SWAP1 PUSH3 0x52A JUMP JUMPDEST POP DUP1 PUSH1 0xB SWAP1 DUP2 PUSH3 0x66 SWAP2 SWAP1 PUSH3 0x52A JUMP JUMPDEST POP DUP3 PUSH1 0x1 DUP2 SWAP1 SSTORE POP POP POP POP PUSH3 0x611 JUMP JUMPDEST PUSH1 0x0 PUSH1 0x40 MLOAD SWAP1 POP SWAP1 JUMP JUMPDEST PUSH1 0x0 DUP1 REVERT JUMPDEST PUSH1 0x0 DUP1 REVERT JUMPDEST PUSH1 0x0 DUP2 SWAP1 POP SWAP2 SWAP1 POP JUMP JUMPDEST PUSH3 0xA0 DUP2 PUSH3 0x8B JUMP JUMPDEST DUP2 EQ PUSH3 0xAC JUMPI PUSH1 0x0 DUP1 REVERT JUMPDEST POP JUMP JUMPDEST PUSH1 0x0 DUP2 MLOAD SWAP1 POP PUSH3 0xC0 DUP2 PUSH3 0x95 JUMP JUMPDEST SWAP3 SWAP2 POP POP JUMP JUMPDEST PUSH1 0x0 DUP1 REVERT JUMPDEST PUSH1 0x0 DUP1 REVERT JUMPDEST PUSH1 0x0 PUSH1 0x1F NOT PUSH1 0x1F DUP4 ADD AND SWAP1 POP SWAP2 SWAP1 POP JUMP JUMPDEST PUSH32 0x4E487B7100000000000000000000000000000000000000000000000000000000 PUSH1 0x0 MSTORE PUSH1 0x41 PUSH1 0x4 MSTORE PUSH1 0x24 PUSH1 0x0 REVERT JUMPDEST PUSH3 0x11B DUP3 PUSH3 0xD0 JUMP JUMPDEST DUP2 ADD DUP2 DUP2 LT PUSH8 0xFFFFFFFFFFFFFFFF DUP3 GT OR ISZERO PUSH3 0x13D JUMPI PUSH3 0x13C PUSH3 0xE1 JUMP JUMPDEST JUMPDEST DUP1 PUSH1 0x40 MSTORE POP POP POP JUMP JUMPDEST PUSH1 0x0 PUSH3 0x152 PUSH3 0x77 JUMP JUMPDEST SWAP1 POP PUSH3 0x160 DUP3 DUP3 PUSH3 0x110 JUMP JUMPDEST SWAP2 SWAP1 POP JUMP JUMPDEST PUSH1 0x0 PUSH8 0xFFFFFFFFFFFFFFFF DUP3 GT ISZERO PUSH3 0x183 JUMPI PUSH3 0x182 PUSH3 0xE1 JUMP JUMPDEST JUMPDEST PUSH3 0x18E DUP3 PUSH3 0xD0 JUMP JUMPDEST SWAP1 POP PUSH1 0x20 DUP2 ADD SWAP1 POP SWAP2 SWAP1 POP JUMP JUMPDEST PUSH1 0x0 JUMPDEST DUP4 DUP2 LT ISZERO PUSH3 0x1BB JUMPI DUP1 DUP3 ADD MLOAD DUP2 DUP5 ADD MSTORE PUSH1 0x20 DUP2 ADD SWAP1 POP PUSH3 0x19E JUMP JUMPDEST DUP4 DUP2 GT ISZERO PUSH3 0x1CB JUMPI PUSH1 0x0 DUP5 DUP5 ADD MSTORE JUMPDEST POP POP POP POP JUMP JUMPDEST PUSH1 0x0 PUSH3 0x1E8 PUSH3 0x1E2 DUP5 PUSH3 0x165 JUMP JUMPDEST PUSH3 0x146 JUMP JUMPDEST SWAP1 POP DUP3 DUP2 MSTORE PUSH1 0x20 DUP2 ADD DUP5 DUP5 DUP5 ADD GT ISZERO PUSH3 0x207 JUMPI PUSH3 0x206 PUSH3 0xCB JUMP JUMPDEST JUMPDEST PUSH3 0x214 DUP5 DUP3 DUP6 PUSH3 0x19B JUMP JUMPDEST POP SWAP4 SWAP3 POP POP POP JUMP JUMPDEST PUSH1 0x0 DUP3 PUSH1 0x1F DUP4 ADD SLT PUSH3 0x234 JUMPI PUSH3 0x233 PUSH3 0xC6 JUMP JUMPDEST JUMPDEST DUP2 MLOAD PUSH3 0x246 DUP5 DUP3 PUSH1 0x20 DUP7 ADD PUSH3 0x1D1 JUMP JUMPDEST SWAP2 POP POP SWAP3 SWAP2 POP POP JUMP JUMPDEST PUSH1 0x0 DUP1 PUSH1 0x0 PUSH1 0x60 DUP5 DUP7 SUB SLT ISZERO PUSH3 0x26B JUMPI PUSH3 0x26A PUSH3 0x81 JUMP JUMPDEST JUMPDEST PUSH1 0x0 PUSH3 0x27B DUP7 DUP3 DUP8 ADD PUSH3 0xAF JUMP JUMPDEST SWAP4 POP POP PUSH1 0x20 DUP5 ADD MLOAD PUSH8 0xFFFFFFFFFFFFFFFF DUP2 GT ISZERO PUSH3 0x29F JUMPI PUSH3 0x29E PUSH3 0x86 JUMP JUMPDEST JUMPDEST PUSH3 0x2AD DUP7 DUP3 DUP8 ADD PUSH3 0x21C JUMP JUMPDEST SWAP3 POP POP PUSH1 0x40 DUP5 ADD MLOAD PUSH8 0xFFFFFFFFFFFFFFFF DUP2 GT ISZERO PUSH3 0x2D1 JUMPI PUSH3 0x2D0 PUSH3 0x86 JUMP JUMPDEST JUMPDEST PUSH3 0x2DF DUP7 DUP3 DUP8 ADD PUSH3 0x21C JUMP JUMPDEST SWAP2 POP POP SWAP3 POP SWAP3 POP SWAP3 JUMP JUMPDEST PUSH1 0x0 DUP2 MLOAD SWAP1 POP SWAP2 SWAP1 POP JUMP JUMPDEST PUSH32 0x4E487B7100000000000000000000000000000000000000000000000000000000 PUSH1 0x0 MSTORE PUSH1 0x22 PUSH1 0x4 MSTORE PUSH1 0x24 PUSH1 0x0 REVERT JUMPDEST PUSH1 0x0 PUSH1 0x2 DUP3 DIV SWAP1 POP PUSH1 0x1 DUP3 AND DUP1 PUSH3 0x33C JUMPI PUSH1 0x7F DUP3 AND SWAP2 POP JUMPDEST PUSH1 0x20 DUP3 LT DUP2 SUB PUSH3 0x352 JUMPI PUSH3 0x351 PUSH3 0x2F4 JUMP JUMPDEST JUMPDEST POP SWAP2 SWAP1 POP JUMP JUMPDEST PUSH1 0x0 DUP2 SWAP1 POP DUP2 PUSH1 0x0 MSTORE PUSH1 0x20 PUSH1 0x0 KECCAK256 SWAP1 POP SWAP2 SWAP1 POP JUMP JUMPDEST PUSH1 0x0 PUSH1 0x20 PUSH1 0x1F DUP4 ADD DIV SWAP1 POP SWAP2 SWAP1 POP JUMP JUMPDEST PUSH1 0x0 DUP3 DUP3 SHL SWAP1 POP SWAP3 SWAP2 POP POP JUMP JUMPDEST PUSH1 0x0 PUSH1 0x8 DUP4 MUL PUSH3 0x3BC PUSH32 0xFFFFFFFFFFFFFFFFFFFFFFFFFFFFFFFFFFFFFFFFFFFFFFFFFFFFFFFFFFFFFFFF DUP3 PUSH3 0x37D JUMP JUMPDEST PUSH3 0x3C8 DUP7 DUP4 PUSH3 0x37D JUMP JUMPDEST SWAP6 POP DUP1 NOT DUP5 AND SWAP4 POP DUP1 DUP7 AND DUP5 OR SWAP3 POP POP POP SWAP4 SWAP3 POP POP POP JUMP JUMPDEST PUSH1 0x0 DUP2 SWAP1 POP SWAP2 SWAP1 POP JUMP JUMPDEST PUSH1 0x0 PUSH3 0x40B PUSH3 0x405 PUSH3 0x3FF DUP5 PUSH3 0x8B JUMP JUMPDEST PUSH3 0x3E0 JUMP JUMPDEST PUSH3 0x8B JUMP JUMPDEST SWAP1 POP SWAP2 SWAP1 POP JUMP JUMPDEST PUSH1 0x0 DUP2 SWAP1 POP SWAP2 SWAP1 POP JUMP JUMPDEST PUSH3 0x427 DUP4 PUSH3 0x3EA JUMP JUMPDEST PUSH3 0x43F PUSH3 0x436 DUP3 PUSH3 0x412 JUMP JUMPDEST DUP5 DUP5 SLOAD PUSH3 0x38A JUMP JUMPDEST DUP3 SSTORE POP POP POP POP JUMP JUMPDEST PUSH1 0x0 SWAP1 JUMP JUMPDEST PUSH3 0x456 PUSH3 0x447 JUMP JUMPDEST PUSH3 0x463 DUP2 DUP5 DUP5 PUSH3 0x41C JUMP JUMPDEST POP POP POP JUMP JUMPDEST JUMPDEST DUP2 DUP2 LT ISZERO PUSH3 0x48B JUMPI PUSH3 0x47F PUSH1 0x0 DUP3 PUSH3 0x44C JUMP JUMPDEST PUSH1 0x1 DUP2 ADD SWAP1 POP PUSH3 0x469 JUMP JUMPDEST POP POP JUMP JUMPDEST PUSH1 0x1F DUP3 GT ISZERO PUSH3 0x4DA JUMPI PUSH3 0x4A4 DUP2 PUSH3 0x358 JUMP JUMPDEST PUSH3 0x4AF DUP5 PUSH3 0x36D JUMP JUMPDEST DUP2 ADD PUSH1 0x20 DUP6 LT ISZERO PUSH3 0x4BF JUMPI DUP2 SWAP1 POP JUMPDEST PUSH3 0x4D7 PUSH3 0x4CE DUP6 PUSH3 0x36D JUMP JUMPDEST DUP4 ADD DUP3 PUSH3 0x468 JUMP JUMPDEST POP POP JUMPDEST POP POP POP JUMP JUMPDEST PUSH1 0x0 DUP3 DUP3 SHR SWAP1 POP SWAP3 SWAP2 POP POP JUMP JUMPDEST PUSH1 0x0 PUSH3 0x4FF PUSH1 0x0 NOT DUP5 PUSH1 0x8 MUL PUSH3 0x4DF JUMP JUMPDEST NOT DUP1 DUP4 AND SWAP2 POP POP SWAP3 SWAP2 POP POP JUMP JUMPDEST PUSH1 0x0 PUSH3 0x51A DUP4 DUP4 PUSH3 0x4EC JUMP JUMPDEST SWAP2 POP DUP3 PUSH1 0x2 MUL DUP3 OR SWAP1 POP SWAP3 SWAP2 POP POP JUMP JUMPDEST PUSH3 0x535 DUP3 PUSH3 0x2E9 JUMP JUMPDEST PUSH8 0xFFFFFFFFFFFFFFFF DUP2 GT ISZERO PUSH3 0x551 JUMPI PUSH3 0x550 PUSH3 0xE1 JUMP JUMPDEST JUMPDEST PUSH3 0x55D DUP3 SLOAD PUSH3 0x323 JUMP JUMPDEST PUSH3 0x56A DUP3 DUP3 DUP6 PUSH3 0x48F JUMP JUMPDEST PUSH1 0x0 PUSH1 0x20 SWAP1 POP PUSH1 0x1F DUP4 GT PUSH1 0x1 DUP2 EQ PUSH3 0x5A2 JUMPI PUSH1 0x0 DUP5 ISZERO PUSH3 0x58D JUMPI DUP3 DUP8 ADD MLOAD SWAP1 POP JUMPDEST PUSH3 0x599 DUP6 DUP3 PUSH3 0x50C JUMP JUMPDEST DUP7 SSTORE POP PUSH3 0x609 JUMP JUMPDEST PUSH1 0x1F NOT DUP5 AND PUSH3 0x5B2 DUP7 PUSH3 0x358 JUMP JUMPDEST PUSH1 0x0 JUMPDEST DUP3 DUP2 LT ISZERO PUSH3 0x5DC JUMPI DUP5 DUP10 ADD MLOAD DUP3 SSTORE PUSH1 0x1 DUP3 ADD SWAP2 POP PUSH1 0x20 DUP6 ADD SWAP5 POP PUSH1 0x20 DUP2 ADD SWAP1 POP PUSH3 0x5B5 JUMP JUMPDEST DUP7 DUP4 LT ISZERO PUSH3 0x5FC JUMPI DUP5 DUP10 ADD MLOAD PUSH3 0x5F8 PUSH1 0x1F DUP10 AND DUP3 PUSH3 0x4EC JUMP JUMPDEST DUP4 SSTORE POP JUMPDEST PUSH1 0x1 PUSH1 0x2 DUP9 MUL ADD DUP9 SSTORE POP POP POP JUMPDEST POP POP POP POP POP POP JUMP JUMPDEST PUSH2 0x1105 DUP1 PUSH3 0x621 PUSH1 0x0 CODECOPY PUSH1 0x0 RETURN INVALID PUSH1 0x80 PUSH1 0x40 MSTORE CALLVALUE DUP1 ISZERO PUSH2 0x10 JUMPI PUSH1 0x0 DUP1 REVERT JUMPDEST POP PUSH1 0x4 CALLDATASIZE LT PUSH2 0xEA JUMPI PUSH1 0x0 CALLDATALOAD PUSH1 0xE0 SHR DUP1 PUSH4 0x7EB9F571 GT PUSH2 0x8C JUMPI DUP1 PUSH4 0x94B5DCAA GT PUSH2 0x66 JUMPI DUP1 PUSH4 0x94B5DCAA EQ PUSH2 0x203 JUMPI DUP1 PUSH4 0xAA8C217C EQ PUSH2 0x221 JUMPI DUP1 PUSH4 0xBC309496 EQ PUSH2 0x23F JUMPI DUP1 PUSH4 0xE21F37CE EQ PUSH2 0x25D JUMPI PUSH2 0xEA JUMP JUMPDEST DUP1 PUSH4 0x7EB9F571 EQ PUSH2 0x1BD JUMPI DUP1 PUSH4 0x8E029C0B EQ PUSH2 0x1DB JUMPI DUP1 PUSH4 0x8FA11864 EQ PUSH2 0x1E5 JUMPI PUSH2 0xEA JUMP JUMPDEST DUP1 PUSH4 0x34F5CCDE GT PUSH2 0xC8 JUMPI DUP1 PUSH4 0x34F5CCDE EQ PUSH2 0x145 JUMPI DUP1 PUSH4 0x42FB7936 EQ PUSH2 0x163 JUMPI DUP1 PUSH4 0x4B28F9A2 EQ PUSH2 0x181 JUMPI DUP1 PUSH4 0x7B9A3F4C EQ PUSH2 0x19F JUMPI PUSH2 0xEA JUMP JUMPDEST DUP1 PUSH4 0x62A7544 EQ PUSH2 0xEF JUMPI DUP1 PUSH4 0xE85FA72 EQ PUSH2 0x10B JUMPI DUP1 PUSH4 0x12A029A4 EQ PUSH2 0x129 JUMPI JUMPDEST PUSH1 0x0 DUP1 REVERT JUMPDEST PUSH2 0x109 PUSH1 0x4 DUP1 CALLDATASIZE SUB DUP2 ADD SWAP1 PUSH2 0x104 SWAP2 SWAP1 PUSH2 0x84A JUMP JUMPDEST PUSH2 0x27B JUMP JUMPDEST STOP JUMPDEST PUSH2 0x113 PUSH2 0x590 JUMP JUMPDEST PUSH1 0x40 MLOAD PUSH2 0x120 SWAP2 SWAP1 PUSH2 0x899 JUMP JUMPDEST PUSH1 0x40 MLOAD DUP1 SWAP2 SUB SWAP1 RETURN JUMPDEST PUSH2 0x143 PUSH1 0x4 DUP1 CALLDATASIZE SUB DUP2 ADD SWAP1 PUSH2 0x13E SWAP2 SWAP1 PUSH2 0x9FA JUMP JUMPDEST PUSH2 0x596 JUMP JUMPDEST STOP JUMPDEST PUSH2 0x14D PUSH2 0x5BA JUMP JUMPDEST PUSH1 0x40 MLOAD PUSH2 0x15A SWAP2 SWAP1 PUSH2 0x899 JUMP JUMPDEST PUSH1 0x40 MLOAD DUP1 SWAP2 SUB SWAP1 RETURN JUMPDEST PUSH2 0x16B PUSH2 0x5C0 JUMP JUMPDEST PUSH1 0x40 MLOAD PUSH2 0x178 SWAP2 SWAP1 PUSH2 0xAFA JUMP JUMPDEST PUSH1 0x40 MLOAD DUP1 SWAP2 SUB SWAP1 RETURN JUMPDEST PUSH2 0x189 PUSH2 0x64E JUMP JUMPDEST PUSH1 0x40 MLOAD PUSH2 0x196 SWAP2 SWAP1 PUSH2 0x899 JUMP JUMPDEST PUSH1 0x40 MLOAD DUP1 SWAP2 SUB SWAP1 RETURN JUMPDEST PUSH2 0x1A7 PUSH2 0x654 JUMP JUMPDEST PUSH1 0x40 MLOAD PUSH2 0x1B4 SWAP2 SWAP1 PUSH2 0x899 JUMP JUMPDEST PUSH1 0x40 MLOAD DUP1 SWAP2 SUB SWAP1 RETURN JUMPDEST PUSH2 0x1C5 PUSH2 0x65A JUMP JUMPDEST PUSH1 0x40 MLOAD PUSH2 0x1D2 SWAP2 SWAP1 PUSH2 0x899 JUMP JUMPDEST PUSH1 0x40 MLOAD DUP1 SWAP2 SUB SWAP1 RETURN JUMPDEST PUSH2 0x1E3 PUSH2 0x660 JUMP JUMPDEST STOP JUMPDEST PUSH2 0x1ED PUSH2 0x674 JUMP JUMPDEST PUSH1 0x40 MLOAD PUSH2 0x1FA SWAP2 SWAP1 PUSH2 0xAFA JUMP JUMPDEST PUSH1 0x40 MLOAD DUP1 SWAP2 SUB SWAP1 RETURN JUMPDEST PUSH2 0x20B PUSH2 0x702 JUMP JUMPDEST PUSH1 0x40 MLOAD PUSH2 0x218 SWAP2 SWAP1 PUSH2 0x899 JUMP JUMPDEST PUSH1 0x40 MLOAD DUP1 SWAP2 SUB SWAP1 RETURN JUMPDEST PUSH2 0x229 PUSH2 0x708 JUMP JUMPDEST PUSH1 0x40 MLOAD PUSH2 0x236 SWAP2 SWAP1 PUSH2 0x899 JUMP JUMPDEST PUSH1 0x40 MLOAD DUP1 SWAP2 SUB SWAP1 RETURN JUMPDEST PUSH2 0x247 PUSH2 0x70E JUMP JUMPDEST PUSH1 0x40 MLOAD PUSH2 0x254 SWAP2 SWAP1 PUSH2 0x899 JUMP JUMPDEST PUSH1 0x40 MLOAD DUP1 SWAP2 SUB SWAP1 RETURN JUMPDEST PUSH2 0x265 PUSH2 0x714 JUMP JUMPDEST PUSH1 0x40 MLOAD PUSH2 0x272 SWAP2 SWAP1 PUSH2 0xAFA JUMP JUMPDEST PUSH1 0x40 MLOAD DUP1 SWAP2 SUB SWAP1 RETURN JUMPDEST DUP1 DUP1 PUSH1 0x2 PUSH1 0x0 PUSH2 0x100 EXP DUP2 SLOAD DUP2 PUSH20 0xFFFFFFFFFFFFFFFFFFFFFFFFFFFFFFFFFFFFFFFF MUL NOT AND SWAP1 DUP4 PUSH20 0xFFFFFFFFFFFFFFFFFFFFFFFFFFFFFFFFFFFFFFFF AND MUL OR SWAP1 SSTORE POP PUSH1 0x0 PUSH20 0xFFFFFFFFFFFFFFFFFFFFFFFFFFFFFFFFFFFFFFFF AND DUP2 PUSH20 0xFFFFFFFFFFFFFFFFFFFFFFFFFFFFFFFFFFFFFFFF AND SUB PUSH2 0x32C JUMPI PUSH1 0x40 MLOAD PUSH32 0x8C379A000000000000000000000000000000000000000000000000000000000 DUP2 MSTORE PUSH1 0x4 ADD PUSH2 0x323 SWAP1 PUSH2 0xB68 JUMP JUMPDEST PUSH1 0x40 MLOAD DUP1 SWAP2 SUB SWAP1 REVERT JUMPDEST PUSH1 0x8 PUSH1 0xA DUP1 SLOAD PUSH2 0x33B SWAP1 PUSH2 0xBB7 JUMP JUMPDEST SWAP1 POP EQ DUP1 ISZERO PUSH2 0x358 JUMPI POP PUSH1 0x3 PUSH1 0xB DUP1 SLOAD PUSH2 0x354 SWAP1 PUSH2 0xBB7 JUMP JUMPDEST SWAP1 POP EQ JUMPDEST PUSH2 0x397 JUMPI PUSH1 0x40 MLOAD PUSH32 0x8C379A000000000000000000000000000000000000000000000000000000000 DUP2 MSTORE PUSH1 0x4 ADD PUSH2 0x38E SWAP1 PUSH2 0xC34 JUMP JUMPDEST PUSH1 0x40 MLOAD DUP1 SWAP2 SUB SWAP1 REVERT JUMPDEST PUSH1 0x0 PUSH1 0x1 SLOAD GT DUP1 ISZERO PUSH2 0x3AC JUMPI POP PUSH1 0x0 SLOAD PUSH1 0x1 SLOAD GT JUMPDEST PUSH2 0x3EB JUMPI PUSH1 0x40 MLOAD PUSH32 0x8C379A000000000000000000000000000000000000000000000000000000000 DUP2 MSTORE PUSH1 0x4 ADD PUSH2 0x3E2 SWAP1 PUSH2 0xCA0 JUMP JUMPDEST PUSH1 0x40 MLOAD DUP1 SWAP2 SUB SWAP1 REVERT JUMPDEST PUSH2 0x9C4 PUSH1 0xC SLOAD GT ISZERO PUSH2 0x432 JUMPI PUSH1 0x40 MLOAD PUSH32 0x8C379A000000000000000000000000000000000000000000000000000000000 DUP2 MSTORE PUSH1 0x4 ADD PUSH2 0x429 SWAP1 PUSH2 0xD0C JUMP JUMPDEST PUSH1 0x40 MLOAD DUP1 SWAP2 SUB SWAP1 REVERT JUMPDEST TIMESTAMP PUSH1 0xD DUP2 SWAP1 SSTORE POP PUSH1 0x1E PUSH1 0xD SLOAD PUSH2 0x448 SWAP2 SWAP1 PUSH2 0xD5B JUMP JUMPDEST PUSH1 0xD SLOAD LT PUSH2 0x48B JUMPI PUSH1 0x40 MLOAD PUSH32 0x8C379A000000000000000000000000000000000000000000000000000000000 DUP2 MSTORE PUSH1 0x4 ADD PUSH2 0x482 SWAP1 PUSH2 0xDFD JUMP JUMPDEST PUSH1 0x40 MLOAD DUP1 SWAP2 SUB SWAP1 REVERT JUMPDEST DUP2 PUSH1 0x2 PUSH1 0x0 PUSH2 0x100 EXP DUP2 SLOAD DUP2 PUSH20 0xFFFFFFFFFFFFFFFFFFFFFFFFFFFFFFFFFFFFFFFF MUL NOT AND SWAP1 DUP4 PUSH20 0xFFFFFFFFFFFFFFFFFFFFFFFFFFFFFFFFFFFFFFFF AND MUL OR SWAP1 SSTORE POP DUP3 PUSH1 0x0 DUP2 SWAP1 SSTORE POP PUSH1 0x1 PUSH1 0xF PUSH1 0x0 DUP3 DUP3 SLOAD PUSH2 0x4E6 SWAP2 SWAP1 PUSH2 0xD5B JUMP JUMPDEST SWAP3 POP POP DUP2 SWAP1 SSTORE POP PUSH1 0x0 PUSH1 0x1 SLOAD GT DUP1 ISZERO PUSH2 0x502 JUMPI POP PUSH1 0x0 SLOAD PUSH1 0x1 SLOAD GT JUMPDEST ISZERO PUSH2 0x58B JUMPI PUSH1 0x0 SLOAD PUSH1 0x1 PUSH1 0x0 DUP3 DUP3 SLOAD PUSH2 0x51B SWAP2 SWAP1 PUSH2 0xE1D JUMP JUMPDEST SWAP3 POP POP DUP2 SWAP1 SSTORE POP PUSH1 0x0 SLOAD PUSH1 0xC PUSH1 0x0 DUP3 DUP3 SLOAD PUSH2 0x536 SWAP2 SWAP1 PUSH2 0xD5B JUMP JUMPDEST SWAP3 POP POP DUP2 SWAP1 SSTORE POP PUSH1 0x40 MLOAD DUP1 PUSH1 0x40 ADD PUSH1 0x40 MSTORE DUP1 PUSH1 0x12 DUP2 MSTORE PUSH1 0x20 ADD PUSH32 0x5472616E7366657220636F6D706C657465640000000000000000000000000000 DUP2 MSTORE POP PUSH1 0x9 SWAP1 DUP2 PUSH2 0x581 SWAP2 SWAP1 PUSH2 0xFFD JUMP JUMPDEST POP PUSH2 0x58A PUSH2 0x660 JUMP JUMPDEST JUMPDEST POP POP POP JUMP JUMPDEST PUSH1 0xD SLOAD DUP2 JUMP JUMPDEST DUP2 PUSH1 0xA SWAP1 DUP2 PUSH2 0x5A5 SWAP2 SWAP1 PUSH2 0xFFD JUMP JUMPDEST POP DUP1 PUSH1 0xB SWAP1 DUP2 PUSH2 0x5B5 SWAP2 SWAP1 PUSH2 0xFFD JUMP JUMPDEST POP POP POP JUMP JUMPDEST PUSH1 0xE SLOAD DUP2 JUMP JUMPDEST PUSH1 0xB DUP1 SLOAD PUSH2 0x5CD SWAP1 PUSH2 0xBB7 JUMP JUMPDEST DUP1 PUSH1 0x1F ADD PUSH1 0x20 DUP1 SWAP2 DIV MUL PUSH1 0x20 ADD PUSH1 0x40 MLOAD SWAP1 DUP2 ADD PUSH1 0x40 MSTORE DUP1 SWAP3 SWAP2 SWAP1 DUP2 DUP2 MSTORE PUSH1 0x20 ADD DUP3 DUP1 SLOAD PUSH2 0x5F9 SWAP1 PUSH2 0xBB7 JUMP JUMPDEST DUP1 ISZERO PUSH2 0x646 JUMPI DUP1 PUSH1 0x1F LT PUSH2 0x61B JUMPI PUSH2 0x100 DUP1 DUP4 SLOAD DIV MUL DUP4 MSTORE SWAP2 PUSH1 0x20 ADD SWAP2 PUSH2 0x646 JUMP JUMPDEST DUP3 ADD SWAP2 SWAP1 PUSH1 0x0 MSTORE PUSH1 0x20 PUSH1 0x0 KECCAK256 SWAP1 JUMPDEST DUP2 SLOAD DUP2 MSTORE SWAP1 PUSH1 0x1 ADD SWAP1 PUSH1 0x20 ADD DUP1 DUP4 GT PUSH2 0x629 JUMPI DUP3 SWAP1 SUB PUSH1 0x1F AND DUP3 ADD SWAP2 JUMPDEST POP POP POP POP POP DUP2 JUMP JUMPDEST PUSH1 0xF SLOAD DUP2 JUMP JUMPDEST PUSH1 0x1 SLOAD DUP2 JUMP JUMPDEST PUSH1 0xC SLOAD DUP2 JUMP JUMPDEST PUSH1 0x0 PUSH1 0xF SLOAD EQ PUSH2 0x672 JUMPI TIMESTAMP PUSH1 0xD DUP2 SWAP1 SSTORE POP JUMPDEST JUMP JUMPDEST PUSH1 0xA DUP1 SLOAD PUSH2 0x681 SWAP1 PUSH2 0xBB7 JUMP JUMPDEST DUP1 PUSH1 0x1F ADD PUSH1 0x20 DUP1 SWAP2 DIV MUL PUSH1 0x20 ADD PUSH1 0x40 MLOAD SWAP1 DUP2 ADD PUSH1 0x40 MSTORE DUP1 SWAP3 SWAP2 SWAP1 DUP2 DUP2 MSTORE PUSH1 0x20 ADD DUP3 DUP1 SLOAD PUSH2 0x6AD SWAP1 PUSH2 0xBB7 JUMP JUMPDEST DUP1 ISZERO PUSH2 0x6FA JUMPI DUP1 PUSH1 0x1F LT PUSH2 0x6CF JUMPI PUSH2 0x100 DUP1 DUP4 SLOAD DIV MUL DUP4 MSTORE SWAP2 PUSH1 0x20 ADD SWAP2 PUSH2 0x6FA JUMP JUMPDEST DUP3 ADD SWAP2 SWAP1 PUSH1 0x0 MSTORE PUSH1 0x20 PUSH1 0x0 KECCAK256 SWAP1 JUMPDEST DUP2 SLOAD DUP2 MSTORE SWAP1 PUSH1 0x1 ADD SWAP1 PUSH1 0x20 ADD DUP1 DUP4 GT PUSH2 0x6DD JUMPI DUP3 SWAP1 SUB PUSH1 0x1F AND DUP3 ADD SWAP2 JUMPDEST POP POP POP POP POP DUP2 JUMP JUMPDEST PUSH1 0x4 SLOAD DUP2 JUMP JUMPDEST PUSH1 0x0 SLOAD DUP2 JUMP JUMPDEST PUSH1 0x8 SLOAD DUP2 JUMP JUMPDEST PUSH1 0x9 DUP1 SLOAD PUSH2 0x721 SWAP1 PUSH2 0xBB7 JUMP JUMPDEST DUP1 PUSH1 0x1F ADD PUSH1 0x20 DUP1 SWAP2 DIV MUL PUSH1 0x20 ADD PUSH1 0x40 MLOAD SWAP1 DUP2 ADD PUSH1 0x40 MSTORE DUP1 SWAP3 SWAP2 SWAP1 DUP2 DUP2 MSTORE PUSH1 0x20 ADD DUP3 DUP1 SLOAD PUSH2 0x74D SWAP1 PUSH2 0xBB7 JUMP JUMPDEST DUP1 ISZERO PUSH2 0x79A JUMPI DUP1 PUSH1 0x1F LT PUSH2 0x76F JUMPI PUSH2 0x100 DUP1 DUP4 SLOAD DIV MUL DUP4 MSTORE SWAP2 PUSH1 0x20 ADD SWAP2 PUSH2 0x79A JUMP JUMPDEST DUP3 ADD SWAP2 SWAP1 PUSH1 0x0 MSTORE PUSH1 0x20 PUSH1 0x0 KECCAK256 SWAP1 JUMPDEST DUP2 SLOAD DUP2 MSTORE SWAP1 PUSH1 0x1 ADD SWAP1 PUSH1 0x20 ADD DUP1 DUP4 GT PUSH2 0x77D JUMPI DUP3 SWAP1 SUB PUSH1 0x1F AND DUP3 ADD SWAP2 JUMPDEST POP POP POP POP POP DUP2 JUMP JUMPDEST PUSH1 0x0 PUSH1 0x40 MLOAD SWAP1 POP SWAP1 JUMP JUMPDEST PUSH1 0x0 DUP1 REVERT JUMPDEST PUSH1 0x0 DUP1 REVERT JUMPDEST PUSH1 0x0 DUP2 SWAP1 POP SWAP2 SWAP1 POP JUMP JUMPDEST PUSH2 0x7C9 DUP2 PUSH2 0x7B6 JUMP JUMPDEST DUP2 EQ PUSH2 0x7D4 JUMPI PUSH1 0x0 DUP1 REVERT JUMPDEST POP JUMP JUMPDEST PUSH1 0x0 DUP2 CALLDATALOAD SWAP1 POP PUSH2 0x7E6 DUP2 PUSH2 0x7C0 JUMP JUMPDEST SWAP3 SWAP2 POP POP JUMP JUMPDEST PUSH1 0x0 PUSH20 0xFFFFFFFFFFFFFFFFFFFFFFFFFFFFFFFFFFFFFFFF DUP3 AND SWAP1 POP SWAP2 SWAP1 POP JUMP JUMPDEST PUSH1 0x0 PUSH2 0x817 DUP3 PUSH2 0x7EC JUMP JUMPDEST SWAP1 POP SWAP2 SWAP1 POP JUMP JUMPDEST PUSH2 0x827 DUP2 PUSH2 0x80C JUMP JUMPDEST DUP2 EQ PUSH2 0x832 JUMPI PUSH1 0x0 DUP1 REVERT JUMPDEST POP JUMP JUMPDEST PUSH1 0x0 DUP2 CALLDATALOAD SWAP1 POP PUSH2 0x844 DUP2 PUSH2 0x81E JUMP JUMPDEST SWAP3 SWAP2 POP POP JUMP JUMPDEST PUSH1 0x0 DUP1 PUSH1 0x40 DUP4 DUP6 SUB SLT ISZERO PUSH2 0x861 JUMPI PUSH2 0x860 PUSH2 0x7AC JUMP JUMPDEST JUMPDEST PUSH1 0x0 PUSH2 0x86F DUP6 DUP3 DUP7 ADD PUSH2 0x7D7 JUMP JUMPDEST SWAP3 POP POP PUSH1 0x20 PUSH2 0x880 DUP6 DUP3 DUP7 ADD PUSH2 0x835 JUMP JUMPDEST SWAP2 POP POP SWAP3 POP SWAP3 SWAP1 POP JUMP JUMPDEST PUSH2 0x893 DUP2 PUSH2 0x7B6 JUMP JUMPDEST DUP3 MSTORE POP POP JUMP JUMPDEST PUSH1 0x0 PUSH1 0x20 DUP3 ADD SWAP1 POP PUSH2 0x8AE PUSH1 0x0 DUP4 ADD DUP5 PUSH2 0x88A JUMP JUMPDEST SWAP3 SWAP2 POP POP JUMP JUMPDEST PUSH1 0x0 DUP1 REVERT JUMPDEST PUSH1 0x0 DUP1 REVERT JUMPDEST PUSH1 0x0 PUSH1 0x1F NOT PUSH1 0x1F DUP4 ADD AND SWAP1 POP SWAP2 SWAP1 POP JUMP JUMPDEST PUSH32 0x4E487B7100000000000000000000000000000000000000000000000000000000 PUSH1 0x0 MSTORE PUSH1 0x41 PUSH1 0x4 MSTORE PUSH1 0x24 PUSH1 0x0 REVERT JUMPDEST PUSH2 0x907 DUP3 PUSH2 0x8BE JUMP JUMPDEST DUP2 ADD DUP2 DUP2 LT PUSH8 0xFFFFFFFFFFFFFFFF DUP3 GT OR ISZERO PUSH2 0x926 JUMPI PUSH2 0x925 PUSH2 0x8CF JUMP JUMPDEST JUMPDEST DUP1 PUSH1 0x40 MSTORE POP POP POP JUMP JUMPDEST PUSH1 0x0 PUSH2 0x939 PUSH2 0x7A2 JUMP JUMPDEST SWAP1 POP PUSH2 0x945 DUP3 DUP3 PUSH2 0x8FE JUMP JUMPDEST SWAP2 SWAP1 POP JUMP JUMPDEST PUSH1 0x0 PUSH8 0xFFFFFFFFFFFFFFFF DUP3 GT ISZERO PUSH2 0x965 JUMPI PUSH2 0x964 PUSH2 0x8CF JUMP JUMPDEST JUMPDEST PUSH2 0x96E DUP3 PUSH2 0x8BE JUMP JUMPDEST SWAP1 POP PUSH1 0x20 DUP2 ADD SWAP1 POP SWAP2 SWAP1 POP JUMP JUMPDEST DUP3 DUP2 DUP4 CALLDATACOPY PUSH1 0x0 DUP4 DUP4 ADD MSTORE POP POP POP JUMP JUMPDEST PUSH1 0x0 PUSH2 0x99D PUSH2 0x998 DUP5 PUSH2 0x94A JUMP JUMPDEST PUSH2 0x92F JUMP JUMPDEST SWAP1 POP DUP3 DUP2 MSTORE PUSH1 0x20 DUP2 ADD DUP5 DUP5 DUP5 ADD GT ISZERO PUSH2 0x9B9 JUMPI PUSH2 0x9B8 PUSH2 0x8B9 JUMP JUMPDEST JUMPDEST PUSH2 0x9C4 DUP5 DUP3 DUP6 PUSH2 0x97B JUMP JUMPDEST POP SWAP4 SWAP3 POP POP POP JUMP JUMPDEST PUSH1 0x0 DUP3 PUSH1 0x1F DUP4 ADD SLT PUSH2 0x9E1 JUMPI PUSH2 0x9E0 PUSH2 0x8B4 JUMP JUMPDEST JUMPDEST DUP2 CALLDATALOAD PUSH2 0x9F1 DUP5 DUP3 PUSH1 0x20 DUP7 ADD PUSH2 0x98A JUMP JUMPDEST SWAP2 POP POP SWAP3 SWAP2 POP POP JUMP JUMPDEST PUSH1 0x0 DUP1 PUSH1 0x40 DUP4 DUP6 SUB SLT ISZERO PUSH2 0xA11 JUMPI PUSH2 0xA10 PUSH2 0x7AC JUMP JUMPDEST JUMPDEST PUSH1 0x0 DUP4 ADD CALLDATALOAD PUSH8 0xFFFFFFFFFFFFFFFF DUP2 GT ISZERO PUSH2 0xA2F JUMPI PUSH2 0xA2E PUSH2 0x7B1 JUMP JUMPDEST JUMPDEST PUSH2 0xA3B DUP6 DUP3 DUP7 ADD PUSH2 0x9CC JUMP JUMPDEST SWAP3 POP POP PUSH1 0x20 DUP4 ADD CALLDATALOAD PUSH8 0xFFFFFFFFFFFFFFFF DUP2 GT ISZERO PUSH2 0xA5C JUMPI PUSH2 0xA5B PUSH2 0x7B1 JUMP JUMPDEST JUMPDEST PUSH2 0xA68 DUP6 DUP3 DUP7 ADD PUSH2 0x9CC JUMP JUMPDEST SWAP2 POP POP SWAP3 POP SWAP3 SWAP1 POP JUMP JUMPDEST PUSH1 0x0 DUP2 MLOAD SWAP1 POP SWAP2 SWAP1 POP JUMP JUMPDEST PUSH1 0x0 DUP3 DUP3 MSTORE PUSH1 0x20 DUP3 ADD SWAP1 POP SWAP3 SWAP2 POP POP JUMP JUMPDEST PUSH1 0x0 JUMPDEST DUP4 DUP2 LT ISZERO PUSH2 0xAAC JUMPI DUP1 DUP3 ADD MLOAD DUP2 DUP5 ADD MSTORE PUSH1 0x20 DUP2 ADD SWAP1 POP PUSH2 0xA91 JUMP JUMPDEST DUP4 DUP2 GT ISZERO PUSH2 0xABB JUMPI PUSH1 0x0 DUP5 DUP5 ADD MSTORE JUMPDEST POP POP POP POP JUMP JUMPDEST PUSH1 0x0 PUSH2 0xACC DUP3 PUSH2 0xA72 JUMP JUMPDEST PUSH2 0xAD6 DUP2 DUP6 PUSH2 0xA7D JUMP JUMPDEST SWAP4 POP PUSH2 0xAE6 DUP2 DUP6 PUSH1 0x20 DUP7 ADD PUSH2 0xA8E JUMP JUMPDEST PUSH2 0xAEF DUP2 PUSH2 0x8BE JUMP JUMPDEST DUP5 ADD SWAP2 POP POP SWAP3 SWAP2 POP POP JUMP JUMPDEST PUSH1 0x0 PUSH1 0x20 DUP3 ADD SWAP1 POP DUP2 DUP2 SUB PUSH1 0x0 DUP4 ADD MSTORE PUSH2 0xB14 DUP2 DUP5 PUSH2 0xAC1 JUMP JUMPDEST SWAP1 POP SWAP3 SWAP2 POP POP JUMP JUMPDEST PUSH32 0x2054686973206164647265737320646F65736E27742065786973747300000000 PUSH1 0x0 DUP3 ADD MSTORE POP JUMP JUMPDEST PUSH1 0x0 PUSH2 0xB52 PUSH1 0x1C DUP4 PUSH2 0xA7D JUMP JUMPDEST SWAP2 POP PUSH2 0xB5D DUP3 PUSH2 0xB1C JUMP JUMPDEST PUSH1 0x20 DUP3 ADD SWAP1 POP SWAP2 SWAP1 POP JUMP JUMPDEST PUSH1 0x0 PUSH1 0x20 DUP3 ADD SWAP1 POP DUP2 DUP2 SUB PUSH1 0x0 DUP4 ADD MSTORE PUSH2 0xB81 DUP2 PUSH2 0xB45 JUMP JUMPDEST SWAP1 POP SWAP2 SWAP1 POP JUMP JUMPDEST PUSH32 0x4E487B7100000000000000000000000000000000000000000000000000000000 PUSH1 0x0 MSTORE PUSH1 0x22 PUSH1 0x4 MSTORE PUSH1 0x24 PUSH1 0x0 REVERT JUMPDEST PUSH1 0x0 PUSH1 0x2 DUP3 DIV SWAP1 POP PUSH1 0x1 DUP3 AND DUP1 PUSH2 0xBCF JUMPI PUSH1 0x7F DUP3 AND SWAP2 POP JUMPDEST PUSH1 0x20 DUP3 LT DUP2 SUB PUSH2 0xBE2 JUMPI PUSH2 0xBE1 PUSH2 0xB88 JUMP JUMPDEST JUMPDEST POP SWAP2 SWAP1 POP JUMP JUMPDEST PUSH32 0x4E6F2076616C6964206372656469742063617264000000000000000000000000 PUSH1 0x0 DUP3 ADD MSTORE POP JUMP JUMPDEST PUSH1 0x0 PUSH2 0xC1E PUSH1 0x14 DUP4 PUSH2 0xA7D JUMP JUMPDEST SWAP2 POP PUSH2 0xC29 DUP3 PUSH2 0xBE8 JUMP JUMPDEST PUSH1 0x20 DUP3 ADD SWAP1 POP SWAP2 SWAP1 POP JUMP JUMPDEST PUSH1 0x0 PUSH1 0x20 DUP3 ADD SWAP1 POP DUP2 DUP2 SUB PUSH1 0x0 DUP4 ADD MSTORE PUSH2 0xC4D DUP2 PUSH2 0xC11 JUMP JUMPDEST SWAP1 POP SWAP2 SWAP1 POP JUMP JUMPDEST PUSH32 0x4E6F7420656E6F7567682066756E647300000000000000000000000000000000 PUSH1 0x0 DUP3 ADD MSTORE POP JUMP JUMPDEST PUSH1 0x0 PUSH2 0xC8A PUSH1 0x10 DUP4 PUSH2 0xA7D JUMP JUMPDEST SWAP2 POP PUSH2 0xC95 DUP3 PUSH2 0xC54 JUMP JUMPDEST PUSH1 0x20 DUP3 ADD SWAP1 POP SWAP2 SWAP1 POP JUMP JUMPDEST PUSH1 0x0 PUSH1 0x20 DUP3 ADD SWAP1 POP DUP2 DUP2 SUB PUSH1 0x0 DUP4 ADD MSTORE PUSH2 0xCB9 DUP2 PUSH2 0xC7D JUMP JUMPDEST SWAP1 POP SWAP2 SWAP1 POP JUMP JUMPDEST PUSH32 0x596F75207265616368656420746865206C696D69740000000000000000000000 PUSH1 0x0 DUP3 ADD MSTORE POP JUMP JUMPDEST PUSH1 0x0 PUSH2 0xCF6 PUSH1 0x15 DUP4 PUSH2 0xA7D JUMP JUMPDEST SWAP2 POP PUSH2 0xD01 DUP3 PUSH2 0xCC0 JUMP JUMPDEST PUSH1 0x20 DUP3 ADD SWAP1 POP SWAP2 SWAP1 POP JUMP JUMPDEST PUSH1 0x0 PUSH1 0x20 DUP3 ADD SWAP1 POP DUP2 DUP2 SUB PUSH1 0x0 DUP4 ADD MSTORE PUSH2 0xD25 DUP2 PUSH2 0xCE9 JUMP JUMPDEST SWAP1 POP SWAP2 SWAP1 POP JUMP JUMPDEST PUSH32 0x4E487B7100000000000000000000000000000000000000000000000000000000 PUSH1 0x0 MSTORE PUSH1 0x11 PUSH1 0x4 MSTORE PUSH1 0x24 PUSH1 0x0 REVERT JUMPDEST PUSH1 0x0 PUSH2 0xD66 DUP3 PUSH2 0x7B6 JUMP JUMPDEST SWAP2 POP PUSH2 0xD71 DUP4 PUSH2 0x7B6 JUMP JUMPDEST SWAP3 POP DUP3 PUSH32 0xFFFFFFFFFFFFFFFFFFFFFFFFFFFFFFFFFFFFFFFFFFFFFFFFFFFFFFFFFFFFFFFF SUB DUP3 GT ISZERO PUSH2 0xDA6 JUMPI PUSH2 0xDA5 PUSH2 0xD2C JUMP JUMPDEST JUMPDEST DUP3 DUP3 ADD SWAP1 POP SWAP3 SWAP2 POP POP JUMP JUMPDEST PUSH32 0x54696D6520706173736564000000000000000000000000000000000000000000 PUSH1 0x0 DUP3 ADD MSTORE POP JUMP JUMPDEST PUSH1 0x0 PUSH2 0xDE7 PUSH1 0xB DUP4 PUSH2 0xA7D JUMP JUMPDEST SWAP2 POP PUSH2 0xDF2 DUP3 PUSH2 0xDB1 JUMP JUMPDEST PUSH1 0x20 DUP3 ADD SWAP1 POP SWAP2 SWAP1 POP JUMP JUMPDEST PUSH1 0x0 PUSH1 0x20 DUP3 ADD SWAP1 POP DUP2 DUP2 SUB PUSH1 0x0 DUP4 ADD MSTORE PUSH2 0xE16 DUP2 PUSH2 0xDDA JUMP JUMPDEST SWAP1 POP SWAP2 SWAP1 POP JUMP JUMPDEST PUSH1 0x0 PUSH2 0xE28 DUP3 PUSH2 0x7B6 JUMP JUMPDEST SWAP2 POP PUSH2 0xE33 DUP4 PUSH2 0x7B6 JUMP JUMPDEST SWAP3 POP DUP3 DUP3 LT ISZERO PUSH2 0xE46 JUMPI PUSH2 0xE45 PUSH2 0xD2C JUMP JUMPDEST JUMPDEST DUP3 DUP3 SUB SWAP1 POP SWAP3 SWAP2 POP POP JUMP JUMPDEST PUSH1 0x0 DUP2 SWAP1 POP DUP2 PUSH1 0x0 MSTORE PUSH1 0x20 PUSH1 0x0 KECCAK256 SWAP1 POP SWAP2 SWAP1 POP JUMP JUMPDEST PUSH1 0x0 PUSH1 0x20 PUSH1 0x1F DUP4 ADD DIV SWAP1 POP SWAP2 SWAP1 POP JUMP JUMPDEST PUSH1 0x0 DUP3 DUP3 SHL SWAP1 POP SWAP3 SWAP2 POP POP JUMP JUMPDEST PUSH1 0x0 PUSH1 0x8 DUP4 MUL PUSH2 0xEB3 PUSH32 0xFFFFFFFFFFFFFFFFFFFFFFFFFFFFFFFFFFFFFFFFFFFFFFFFFFFFFFFFFFFFFFFF DUP3 PUSH2 0xE76 JUMP JUMPDEST PUSH2 0xEBD DUP7 DUP4 PUSH2 0xE76 JUMP JUMPDEST SWAP6 POP DUP1 NOT DUP5 AND SWAP4 POP DUP1 DUP7 AND DUP5 OR SWAP3 POP POP POP SWAP4 SWAP3 POP POP POP JUMP JUMPDEST PUSH1 0x0 DUP2 SWAP1 POP SWAP2 SWAP1 POP JUMP JUMPDEST PUSH1 0x0 PUSH2 0xEFA PUSH2 0xEF5 PUSH2 0xEF0 DUP5 PUSH2 0x7B6 JUMP JUMPDEST PUSH2 0xED5 JUMP JUMPDEST PUSH2 0x7B6 JUMP JUMPDEST SWAP1 POP SWAP2 SWAP1 POP JUMP JUMPDEST PUSH1 0x0 DUP2 SWAP1 POP SWAP2 SWAP1 POP JUMP JUMPDEST PUSH2 0xF14 DUP4 PUSH2 0xEDF JUMP JUMPDEST PUSH2 0xF28 PUSH2 0xF20 DUP3 PUSH2 0xF01 JUMP JUMPDEST DUP5 DUP5 SLOAD PUSH2 0xE83 JUMP JUMPDEST DUP3 SSTORE POP POP POP POP JUMP JUMPDEST PUSH1 0x0 SWAP1 JUMP JUMPDEST PUSH2 0xF3D PUSH2 0xF30 JUMP JUMPDEST PUSH2 0xF48 DUP2 DUP5 DUP5 PUSH2 0xF0B JUMP JUMPDEST POP POP POP JUMP JUMPDEST JUMPDEST DUP2 DUP2 LT ISZERO PUSH2 0xF6C JUMPI PUSH2 0xF61 PUSH1 0x0 DUP3 PUSH2 0xF35 JUMP JUMPDEST PUSH1 0x1 DUP2 ADD SWAP1 POP PUSH2 0xF4E JUMP JUMPDEST POP POP JUMP JUMPDEST PUSH1 0x1F DUP3 GT ISZERO PUSH2 0xFB1 JUMPI PUSH2 0xF82 DUP2 PUSH2 0xE51 JUMP JUMPDEST PUSH2 0xF8B DUP5 PUSH2 0xE66 JUMP JUMPDEST DUP2 ADD PUSH1 0x20 DUP6 LT ISZERO PUSH2 0xF9A JUMPI DUP2 SWAP1 POP JUMPDEST PUSH2 0xFAE PUSH2 0xFA6 DUP6 PUSH2 0xE66 JUMP JUMPDEST DUP4 ADD DUP3 PUSH2 0xF4D JUMP JUMPDEST POP POP JUMPDEST POP POP POP JUMP JUMPDEST PUSH1 0x0 DUP3 DUP3 SHR SWAP1 POP SWAP3 SWAP2 POP POP JUMP JUMPDEST PUSH1 0x0 PUSH2 0xFD4 PUSH1 0x0 NOT DUP5 PUSH1 0x8 MUL PUSH2 0xFB6 JUMP JUMPDEST NOT DUP1 DUP4 AND SWAP2 POP POP SWAP3 SWAP2 POP POP JUMP JUMPDEST PUSH1 0x0 PUSH2 0xFED DUP4 DUP4 PUSH2 0xFC3 JUMP JUMPDEST SWAP2 POP DUP3 PUSH1 0x2 MUL DUP3 OR SWAP1 POP SWAP3 SWAP2 POP POP JUMP JUMPDEST PUSH2 0x1006 DUP3 PUSH2 0xA72 JUMP JUMPDEST PUSH8 0xFFFFFFFFFFFFFFFF DUP2 GT ISZERO PUSH2 0x101F JUMPI PUSH2 0x101E PUSH2 0x8CF JUMP JUMPDEST JUMPDEST PUSH2 0x1029 DUP3 SLOAD PUSH2 0xBB7 JUMP JUMPDEST PUSH2 0x1034 DUP3 DUP3 DUP6 PUSH2 0xF70 JUMP JUMPDEST PUSH1 0x0 PUSH1 0x20 SWAP1 POP PUSH1 0x1F DUP4 GT PUSH1 0x1 DUP2 EQ PUSH2 0x1067 JUMPI PUSH1 0x0 DUP5 ISZERO PUSH2 0x1055 JUMPI DUP3 DUP8 ADD MLOAD SWAP1 POP JUMPDEST PUSH2 0x105F DUP6 DUP3 PUSH2 0xFE1 JUMP JUMPDEST DUP7 SSTORE POP PUSH2 0x10C7 JUMP JUMPDEST PUSH1 0x1F NOT DUP5 AND PUSH2 0x1075 DUP7 PUSH2 0xE51 JUMP JUMPDEST PUSH1 0x0 JUMPDEST DUP3 DUP2 LT ISZERO PUSH2 0x109D JUMPI DUP5 DUP10 ADD MLOAD DUP3 SSTORE PUSH1 0x1 DUP3 ADD SWAP2 POP PUSH1 0x20 DUP6 ADD SWAP5 POP PUSH1 0x20 DUP2 ADD SWAP1 POP PUSH2 0x1078 JUMP JUMPDEST DUP7 DUP4 LT ISZERO PUSH2 0x10BA JUMPI DUP5 DUP10 ADD MLOAD PUSH2 0x10B6 PUSH1 0x1F DUP10 AND DUP3 PUSH2 0xFC3 JUMP JUMPDEST DUP4 SSTORE POP JUMPDEST PUSH1 0x1 PUSH1 0x2 DUP9 MUL ADD DUP9 SSTORE POP POP POP JUMPDEST POP POP POP POP POP POP JUMP INVALID LOG2 PUSH5 0x6970667358 0x22 SLT KECCAK256 PUSH26 0xAF264F3C6045CBD068734231667C6871C7B85E108348F12082B6 0xEB MSIZE DUP11 SWAP3 STATICCALL PUSH5 0x736F6C6343 STOP ADDMOD 0xF STOP CALLER "
				},
				"gasEstimates": {
					"creation": {
						"codeDepositCost": "871400",
						"executionCost": "infinite",
						"totalCost": "infinite"
					},
					"external": {
						"TotalAmount()": "2452",
						"TotalFunds()": "2518",
						"amount()": "2473",
						"callCount()": "2496",
						"cardNumber()": "infinite",
						"countTransfer()": "2452",
						"cvv()": "infinite",
						"firstTransferTime()": "2475",
						"getOutCard()": "24425",
						"message()": "infinite",
						"receiverFunds()": "2495",
						"sendMoney(uint256,address)": "infinite",
						"setCard(string,string)": "infinite",
						"totalWeekTransactions()": "2451"
					}
				},
				"methodIdentifiers": {
					"TotalAmount()": "7eb9f571",
					"TotalFunds()": "7b9a3f4c",
					"amount()": "aa8c217c",
					"callCount()": "4b28f9a2",
					"cardNumber()": "8fa11864",
					"countTransfer()": "34f5ccde",
					"cvv()": "42fb7936",
					"firstTransferTime()": "0e85fa72",
					"getOutCard()": "8e029c0b",
					"message()": "e21f37ce",
					"receiverFunds()": "bc309496",
					"sendMoney(uint256,address)": "062a7544",
					"setCard(string,string)": "12a029a4",
					"totalWeekTransactions()": "94b5dcaa"
				}
			},
			"storageLayout": {
				"storage": [
					{
						"astId": 3,
						"contract": "Dapp/MoneyTransfer.sol:MoneyTransfer",
						"label": "amount",
						"offset": 0,
						"slot": "0",
						"type": "t_uint256"
					},
					{
						"astId": 5,
						"contract": "Dapp/MoneyTransfer.sol:MoneyTransfer",
						"label": "TotalFunds",
						"offset": 0,
						"slot": "1",
						"type": "t_uint256"
					},
					{
						"astId": 7,
						"contract": "Dapp/MoneyTransfer.sol:MoneyTransfer",
						"label": "receiver",
						"offset": 0,
						"slot": "2",
						"type": "t_address"
					},
					{
						"astId": 13,
						"contract": "Dapp/MoneyTransfer.sol:MoneyTransfer",
						"label": "day",
						"offset": 0,
						"slot": "3",
						"type": "t_uint256"
					},
					{
						"astId": 15,
						"contract": "Dapp/MoneyTransfer.sol:MoneyTransfer",
						"label": "totalWeekTransactions",
						"offset": 0,
						"slot": "4",
						"type": "t_uint256"
					},
					{
						"astId": 17,
						"contract": "Dapp/MoneyTransfer.sol:MoneyTransfer",
						"label": "maxTransaction",
						"offset": 0,
						"slot": "5",
						"type": "t_uint256"
					},
					{
						"astId": 19,
						"contract": "Dapp/MoneyTransfer.sol:MoneyTransfer",
						"label": "minTransaction",
						"offset": 0,
						"slot": "6",
						"type": "t_uint256"
					},
					{
						"astId": 22,
						"contract": "Dapp/MoneyTransfer.sol:MoneyTransfer",
						"label": "countries",
						"offset": 0,
						"slot": "7",
						"type": "t_array(t_uint256)dyn_storage"
					},
					{
						"astId": 24,
						"contract": "Dapp/MoneyTransfer.sol:MoneyTransfer",
						"label": "receiverFunds",
						"offset": 0,
						"slot": "8",
						"type": "t_uint256"
					},
					{
						"astId": 26,
						"contract": "Dapp/MoneyTransfer.sol:MoneyTransfer",
						"label": "message",
						"offset": 0,
						"slot": "9",
						"type": "t_string_storage"
					},
					{
						"astId": 28,
						"contract": "Dapp/MoneyTransfer.sol:MoneyTransfer",
						"label": "cardNumber",
						"offset": 0,
						"slot": "10",
						"type": "t_string_storage"
					},
					{
						"astId": 30,
						"contract": "Dapp/MoneyTransfer.sol:MoneyTransfer",
						"label": "cvv",
						"offset": 0,
						"slot": "11",
						"type": "t_string_storage"
					},
					{
						"astId": 32,
						"contract": "Dapp/MoneyTransfer.sol:MoneyTransfer",
						"label": "TotalAmount",
						"offset": 0,
						"slot": "12",
						"type": "t_uint256"
					},
					{
						"astId": 34,
						"contract": "Dapp/MoneyTransfer.sol:MoneyTransfer",
						"label": "firstTransferTime",
						"offset": 0,
						"slot": "13",
						"type": "t_uint256"
					},
					{
						"astId": 36,
						"contract": "Dapp/MoneyTransfer.sol:MoneyTransfer",
						"label": "countTransfer",
						"offset": 0,
						"slot": "14",
						"type": "t_uint256"
					},
					{
						"astId": 61,
						"contract": "Dapp/MoneyTransfer.sol:MoneyTransfer",
						"label": "callCount",
						"offset": 0,
						"slot": "15",
						"type": "t_uint256"
					}
				],
				"types": {
					"t_address": {
						"encoding": "inplace",
						"label": "address",
						"numberOfBytes": "20"
					},
					"t_array(t_uint256)dyn_storage": {
						"base": "t_uint256",
						"encoding": "dynamic_array",
						"label": "uint256[]",
						"numberOfBytes": "32"
					},
					"t_string_storage": {
						"encoding": "bytes",
						"label": "string",
						"numberOfBytes": "32"
					},
					"t_uint256": {
						"encoding": "inplace",
						"label": "uint256",
						"numberOfBytes": "32"
					}
				}
			},
			"userdoc": {
				"kind": "user",
				"methods": {},
				"version": 1
			}
		}
	}
}