{
	"Dapp/MoneyTransfer.sol": {
		"MoneyTransfer": {
			"abi": [
				{
					"inputs": [
						{
							"internalType": "uint256",
							"name": "_totalFunds",
							"type": "uint256"
						}
					],
					"stateMutability": "nonpayable",
					"type": "constructor"
				},
				{
					"inputs": [],
					"name": "TotalAmount",
					"outputs": [
						{
							"internalType": "uint256",
							"name": "",
							"type": "uint256"
						}
					],
					"stateMutability": "view",
					"type": "function"
				},
				{
					"inputs": [],
					"name": "TotalFunds",
					"outputs": [
						{
							"internalType": "uint256",
							"name": "",
							"type": "uint256"
						}
					],
					"stateMutability": "view",
					"type": "function"
				},
				{
					"inputs": [],
					"name": "amount",
					"outputs": [
						{
							"internalType": "uint256",
							"name": "",
							"type": "uint256"
						}
					],
					"stateMutability": "view",
					"type": "function"
				},
				{
					"inputs": [],
					"name": "callCount",
					"outputs": [
						{
							"internalType": "uint256",
							"name": "",
							"type": "uint256"
						}
					],
					"stateMutability": "view",
					"type": "function"
				},
				{
					"inputs": [],
					"name": "callPutCard",
					"outputs": [
						{
							"internalType": "bool",
							"name": "",
							"type": "bool"
						}
					],
					"stateMutability": "view",
					"type": "function"
				},
				{
					"inputs": [],
					"name": "cardNumber",
					"outputs": [
						{
							"internalType": "string",
							"name": "",
							"type": "string"
						}
					],
					"stateMutability": "view",
					"type": "function"
				},
				{
					"inputs": [],
					"name": "countTransfer",
					"outputs": [
						{
							"internalType": "uint256",
							"name": "",
							"type": "uint256"
						}
					],
					"stateMutability": "view",
					"type": "function"
				},
				{
					"inputs": [],
					"name": "cvv",
					"outputs": [
						{
							"internalType": "string",
							"name": "",
							"type": "string"
						}
					],
					"stateMutability": "view",
					"type": "function"
				},
				{
					"inputs": [],
					"name": "firstTransferTime",
					"outputs": [
						{
							"internalType": "uint256",
							"name": "",
							"type": "uint256"
						}
					],
					"stateMutability": "view",
					"type": "function"
				},
				{
					"inputs": [],
					"name": "getOutCard",
					"outputs": [],
					"stateMutability": "nonpayable",
					"type": "function"
				},
				{
					"inputs": [],
					"name": "message",
					"outputs": [
						{
							"internalType": "string",
							"name": "",
							"type": "string"
						}
					],
					"stateMutability": "view",
					"type": "function"
				},
				{
					"inputs": [],
					"name": "receiverFunds",
					"outputs": [
						{
							"internalType": "uint256",
							"name": "",
							"type": "uint256"
						}
					],
					"stateMutability": "view",
					"type": "function"
				},
				{
					"inputs": [
						{
							"internalType": "uint256",
							"name": "_amount",
							"type": "uint256"
						},
						{
							"internalType": "address",
							"name": "_receiver",
							"type": "address"
						}
					],
					"name": "sendMoney",
					"outputs": [],
					"stateMutability": "nonpayable",
					"type": "function"
				},
				{
					"inputs": [
						{
							"internalType": "string",
							"name": "_cardNumber",
							"type": "string"
						},
						{
							"internalType": "string",
							"name": "_cvv",
							"type": "string"
						}
					],
					"name": "setCard",
					"outputs": [],
					"stateMutability": "nonpayable",
					"type": "function"
				},
				{
					"inputs": [],
					"name": "totalWeekTransactions",
					"outputs": [
						{
							"internalType": "uint256",
							"name": "",
							"type": "uint256"
						}
					],
					"stateMutability": "view",
					"type": "function"
				}
			],
			"devdoc": {
				"kind": "dev",
				"methods": {},
				"version": 1
			},
			"evm": {
				"assembly": "    /* \"Dapp/MoneyTransfer.sol\":71:2761  contract  MoneyTransfer {... */\n  mstore(0x40, 0x80)\n    /* \"Dapp/MoneyTransfer.sol\":237:245  24 hours */\n  0x015180\n    /* \"Dapp/MoneyTransfer.sol\":226:245  uint day = 24 hours */\n  0x03\n  sstore\n    /* \"Dapp/MoneyTransfer.sol\":773:774  0 */\n  0x00\n    /* \"Dapp/MoneyTransfer.sol\":749:774  uint public callCount = 0 */\n  0x0f\n  sstore\n    /* \"Dapp/MoneyTransfer.sol\":808:813  false */\n  0x00\n    /* \"Dapp/MoneyTransfer.sol\":782:813  bool public callPutCard = false */\n  0x10\n  exp(0x0100, 0x00)\n  dup2\n  sload\n  dup2\n  0xff\n  mul\n  not\n  and\n  swap1\n  dup4\n  iszero\n  iszero\n  mul\n  or\n  swap1\n  sstore\n  pop\n    /* \"Dapp/MoneyTransfer.sol\":599:737  constructor (uint256 _totalFunds){... */\n  callvalue\n  dup1\n  iszero\n  tag_1\n  jumpi\n  0x00\n  dup1\n  revert\ntag_1:\n  pop\n  mload(0x40)\n  sub(codesize, bytecodeSize)\n  dup1\n  bytecodeSize\n  dup4\n  codecopy\n  dup2\n  dup2\n  add\n  0x40\n  mstore\n  dup2\n  add\n  swap1\n  tag_2\n  swap2\n  swap1\n  tag_3\n  jump\t// in\ntag_2:\n    /* \"Dapp/MoneyTransfer.sol\":718:729  _totalFunds */\n  dup1\n    /* \"Dapp/MoneyTransfer.sol\":705:715  TotalFunds */\n  0x01\n    /* \"Dapp/MoneyTransfer.sol\":705:729  TotalFunds = _totalFunds */\n  dup2\n  swap1\n  sstore\n  pop\n    /* \"Dapp/MoneyTransfer.sol\":599:737  constructor (uint256 _totalFunds){... */\n  pop\n    /* \"Dapp/MoneyTransfer.sol\":71:2761  contract  MoneyTransfer {... */\n  jump(tag_6)\n    /* \"#utility.yul\":88:205   */\ntag_8:\n    /* \"#utility.yul\":197:198   */\n  0x00\n    /* \"#utility.yul\":194:195   */\n  dup1\n    /* \"#utility.yul\":187:199   */\n  revert\n    /* \"#utility.yul\":334:411   */\ntag_10:\n    /* \"#utility.yul\":371:378   */\n  0x00\n    /* \"#utility.yul\":400:405   */\n  dup2\n    /* \"#utility.yul\":389:405   */\n  swap1\n  pop\n    /* \"#utility.yul\":334:411   */\n  swap2\n  swap1\n  pop\n  jump\t// out\n    /* \"#utility.yul\":417:539   */\ntag_11:\n    /* \"#utility.yul\":490:514   */\n  tag_19\n    /* \"#utility.yul\":508:513   */\n  dup2\n    /* \"#utility.yul\":490:514   */\n  tag_10\n  jump\t// in\ntag_19:\n    /* \"#utility.yul\":483:488   */\n  dup2\n    /* \"#utility.yul\":480:515   */\n  eq\n    /* \"#utility.yul\":470:533   */\n  tag_20\n  jumpi\n    /* \"#utility.yul\":529:530   */\n  0x00\n    /* \"#utility.yul\":526:527   */\n  dup1\n    /* \"#utility.yul\":519:531   */\n  revert\n    /* \"#utility.yul\":470:533   */\ntag_20:\n    /* \"#utility.yul\":417:539   */\n  pop\n  jump\t// out\n    /* \"#utility.yul\":545:688   */\ntag_12:\n    /* \"#utility.yul\":602:607   */\n  0x00\n    /* \"#utility.yul\":633:639   */\n  dup2\n    /* \"#utility.yul\":627:640   */\n  mload\n    /* \"#utility.yul\":618:640   */\n  swap1\n  pop\n    /* \"#utility.yul\":649:682   */\n  tag_22\n    /* \"#utility.yul\":676:681   */\n  dup2\n    /* \"#utility.yul\":649:682   */\n  tag_11\n  jump\t// in\ntag_22:\n    /* \"#utility.yul\":545:688   */\n  swap3\n  swap2\n  pop\n  pop\n  jump\t// out\n    /* \"#utility.yul\":694:1045   */\ntag_3:\n    /* \"#utility.yul\":764:770   */\n  0x00\n    /* \"#utility.yul\":813:815   */\n  0x20\n    /* \"#utility.yul\":801:810   */\n  dup3\n    /* \"#utility.yul\":792:799   */\n  dup5\n    /* \"#utility.yul\":788:811   */\n  sub\n    /* \"#utility.yul\":784:816   */\n  slt\n    /* \"#utility.yul\":781:900   */\n  iszero\n  tag_24\n  jumpi\n    /* \"#utility.yul\":819:898   */\n  tag_25\n  tag_8\n  jump\t// in\ntag_25:\n    /* \"#utility.yul\":781:900   */\ntag_24:\n    /* \"#utility.yul\":939:940   */\n  0x00\n    /* \"#utility.yul\":964:1028   */\n  tag_26\n    /* \"#utility.yul\":1020:1027   */\n  dup5\n    /* \"#utility.yul\":1011:1017   */\n  dup3\n    /* \"#utility.yul\":1000:1009   */\n  dup6\n    /* \"#utility.yul\":996:1018   */\n  add\n    /* \"#utility.yul\":964:1028   */\n  tag_12\n  jump\t// in\ntag_26:\n    /* \"#utility.yul\":954:1028   */\n  swap2\n  pop\n    /* \"#utility.yul\":910:1038   */\n  pop\n    /* \"#utility.yul\":694:1045   */\n  swap3\n  swap2\n  pop\n  pop\n  jump\t// out\n    /* \"Dapp/MoneyTransfer.sol\":71:2761  contract  MoneyTransfer {... */\ntag_6:\n  dataSize(sub_0)\n  dup1\n  dataOffset(sub_0)\n  0x00\n  codecopy\n  0x00\n  return\nstop\n\nsub_0: assembly {\n        /* \"Dapp/MoneyTransfer.sol\":71:2761  contract  MoneyTransfer {... */\n      mstore(0x40, 0x80)\n      callvalue\n      dup1\n      iszero\n      tag_1\n      jumpi\n      0x00\n      dup1\n      revert\n    tag_1:\n      pop\n      jumpi(tag_2, lt(calldatasize, 0x04))\n      shr(0xe0, calldataload(0x00))\n      dup1\n      0x7b9a3f4c\n      gt\n      tag_18\n      jumpi\n      dup1\n      0x94b5dcaa\n      gt\n      tag_19\n      jumpi\n      dup1\n      0x94b5dcaa\n      eq\n      tag_14\n      jumpi\n      dup1\n      0xaa8c217c\n      eq\n      tag_15\n      jumpi\n      dup1\n      0xbc309496\n      eq\n      tag_16\n      jumpi\n      dup1\n      0xe21f37ce\n      eq\n      tag_17\n      jumpi\n      jump(tag_2)\n    tag_19:\n      dup1\n      0x7b9a3f4c\n      eq\n      tag_10\n      jumpi\n      dup1\n      0x7eb9f571\n      eq\n      tag_11\n      jumpi\n      dup1\n      0x8e029c0b\n      eq\n      tag_12\n      jumpi\n      dup1\n      0x8fa11864\n      eq\n      tag_13\n      jumpi\n      jump(tag_2)\n    tag_18:\n      dup1\n      0x34f5ccde\n      gt\n      tag_20\n      jumpi\n      dup1\n      0x34f5ccde\n      eq\n      tag_6\n      jumpi\n      dup1\n      0x3c626f00\n      eq\n      tag_7\n      jumpi\n      dup1\n      0x42fb7936\n      eq\n      tag_8\n      jumpi\n      dup1\n      0x4b28f9a2\n      eq\n      tag_9\n      jumpi\n      jump(tag_2)\n    tag_20:\n      dup1\n      0x062a7544\n      eq\n      tag_3\n      jumpi\n      dup1\n      0x0e85fa72\n      eq\n      tag_4\n      jumpi\n      dup1\n      0x12a029a4\n      eq\n      tag_5\n      jumpi\n    tag_2:\n      0x00\n      dup1\n      revert\n        /* \"Dapp/MoneyTransfer.sol\":823:1525  function sendMoney( uint _amount, address _receiver) public m_validAddress(_receiver) m_ifCardExists m_transferLimit{... */\n    tag_3:\n      tag_21\n      0x04\n      dup1\n      calldatasize\n      sub\n      dup2\n      add\n      swap1\n      tag_22\n      swap2\n      swap1\n      tag_23\n      jump\t// in\n    tag_22:\n      tag_24\n      jump\t// in\n    tag_21:\n      stop\n        /* \"Dapp/MoneyTransfer.sol\":524:553  uint public firstTransferTime */\n    tag_4:\n      tag_25\n      tag_26\n      jump\t// in\n    tag_25:\n      mload(0x40)\n      tag_27\n      swap2\n      swap1\n      tag_28\n      jump\t// in\n    tag_27:\n      mload(0x40)\n      dup1\n      swap2\n      sub\n      swap1\n      return\n        /* \"Dapp/MoneyTransfer.sol\":1533:1782  function setCard( string memory _cardNumber, string memory _cvv) public m_checkCard {... */\n    tag_5:\n      tag_29\n      0x04\n      dup1\n      calldatasize\n      sub\n      dup2\n      add\n      swap1\n      tag_30\n      swap2\n      swap1\n      tag_31\n      jump\t// in\n    tag_30:\n      tag_32\n      jump\t// in\n    tag_29:\n      stop\n        /* \"Dapp/MoneyTransfer.sol\":560:585  uint public countTransfer */\n    tag_6:\n      tag_33\n      tag_34\n      jump\t// in\n    tag_33:\n      mload(0x40)\n      tag_35\n      swap2\n      swap1\n      tag_28\n      jump\t// in\n    tag_35:\n      mload(0x40)\n      dup1\n      swap2\n      sub\n      swap1\n      return\n        /* \"Dapp/MoneyTransfer.sol\":782:813  bool public callPutCard = false */\n    tag_7:\n      tag_36\n      tag_37\n      jump\t// in\n    tag_36:\n      mload(0x40)\n      tag_38\n      swap2\n      swap1\n      tag_39\n      jump\t// in\n    tag_38:\n      mload(0x40)\n      dup1\n      swap2\n      sub\n      swap1\n      return\n        /* \"Dapp/MoneyTransfer.sol\":470:487  string public cvv */\n    tag_8:\n      tag_40\n      tag_41\n      jump\t// in\n    tag_40:\n      mload(0x40)\n      tag_42\n      swap2\n      swap1\n      tag_43\n      jump\t// in\n    tag_42:\n      mload(0x40)\n      dup1\n      swap2\n      sub\n      swap1\n      return\n        /* \"Dapp/MoneyTransfer.sol\":749:774  uint public callCount = 0 */\n    tag_9:\n      tag_44\n      tag_45\n      jump\t// in\n    tag_44:\n      mload(0x40)\n      tag_46\n      swap2\n      swap1\n      tag_28\n      jump\t// in\n    tag_46:\n      mload(0x40)\n      dup1\n      swap2\n      sub\n      swap1\n      return\n        /* \"Dapp/MoneyTransfer.sol\":134:159  uint256 public TotalFunds */\n    tag_10:\n      tag_47\n      tag_48\n      jump\t// in\n    tag_47:\n      mload(0x40)\n      tag_49\n      swap2\n      swap1\n      tag_28\n      jump\t// in\n    tag_49:\n      mload(0x40)\n      dup1\n      swap2\n      sub\n      swap1\n      return\n        /* \"Dapp/MoneyTransfer.sol\":494:520  uint256 public TotalAmount */\n    tag_11:\n      tag_50\n      tag_51\n      jump\t// in\n    tag_50:\n      mload(0x40)\n      tag_52\n      swap2\n      swap1\n      tag_28\n      jump\t// in\n    tag_52:\n      mload(0x40)\n      dup1\n      swap2\n      sub\n      swap1\n      return\n        /* \"Dapp/MoneyTransfer.sol\":1792:1861  function getOutCard() public  {... */\n    tag_12:\n      tag_53\n      tag_54\n      jump\t// in\n    tag_53:\n      stop\n        /* \"Dapp/MoneyTransfer.sol\":438:462  string public cardNumber */\n    tag_13:\n      tag_55\n      tag_56\n      jump\t// in\n    tag_55:\n      mload(0x40)\n      tag_57\n      swap2\n      swap1\n      tag_43\n      jump\t// in\n    tag_57:\n      mload(0x40)\n      dup1\n      swap2\n      sub\n      swap1\n      return\n        /* \"Dapp/MoneyTransfer.sol\":252:288  uint256 public totalWeekTransactions */\n    tag_14:\n      tag_58\n      tag_59\n      jump\t// in\n    tag_58:\n      mload(0x40)\n      tag_60\n      swap2\n      swap1\n      tag_28\n      jump\t// in\n    tag_60:\n      mload(0x40)\n      dup1\n      swap2\n      sub\n      swap1\n      return\n        /* \"Dapp/MoneyTransfer.sol\":106:127  uint256 public amount */\n    tag_15:\n      tag_61\n      tag_62\n      jump\t// in\n    tag_61:\n      mload(0x40)\n      tag_63\n      swap2\n      swap1\n      tag_28\n      jump\t// in\n    tag_63:\n      mload(0x40)\n      dup1\n      swap2\n      sub\n      swap1\n      return\n        /* \"Dapp/MoneyTransfer.sol\":375:403  uint256 public receiverFunds */\n    tag_16:\n      tag_64\n      tag_65\n      jump\t// in\n    tag_64:\n      mload(0x40)\n      tag_66\n      swap2\n      swap1\n      tag_28\n      jump\t// in\n    tag_66:\n      mload(0x40)\n      dup1\n      swap2\n      sub\n      swap1\n      return\n        /* \"Dapp/MoneyTransfer.sol\":410:431  string public message */\n    tag_17:\n      tag_67\n      tag_68\n      jump\t// in\n    tag_67:\n      mload(0x40)\n      tag_69\n      swap2\n      swap1\n      tag_43\n      jump\t// in\n    tag_69:\n      mload(0x40)\n      dup1\n      swap2\n      sub\n      swap1\n      return\n        /* \"Dapp/MoneyTransfer.sol\":823:1525  function sendMoney( uint _amount, address _receiver) public m_validAddress(_receiver) m_ifCardExists m_transferLimit{... */\n    tag_24:\n        /* \"Dapp/MoneyTransfer.sol\":898:907  _receiver */\n      dup1\n        /* \"Dapp/MoneyTransfer.sol\":1930:1935  _addr */\n      dup1\n        /* \"Dapp/MoneyTransfer.sol\":1919:1927  receiver */\n      0x02\n      0x00\n        /* \"Dapp/MoneyTransfer.sol\":1919:1935  receiver = _addr */\n      0x0100\n      exp\n      dup2\n      sload\n      dup2\n      0xffffffffffffffffffffffffffffffffffffffff\n      mul\n      not\n      and\n      swap1\n      dup4\n      0xffffffffffffffffffffffffffffffffffffffff\n      and\n      mul\n      or\n      swap1\n      sstore\n      pop\n        /* \"Dapp/MoneyTransfer.sol\":1971:1972  0 */\n      0x00\n        /* \"Dapp/MoneyTransfer.sol\":1954:1973  _addr != address(0) */\n      0xffffffffffffffffffffffffffffffffffffffff\n      and\n        /* \"Dapp/MoneyTransfer.sol\":1954:1959  _addr */\n      dup2\n        /* \"Dapp/MoneyTransfer.sol\":1954:1973  _addr != address(0) */\n      0xffffffffffffffffffffffffffffffffffffffff\n      and\n      sub\n        /* \"Dapp/MoneyTransfer.sol\":1946:2006  require(_addr != address(0), \" This address doesn't exists\") */\n      tag_71\n      jumpi\n      mload(0x40)\n      0x08c379a000000000000000000000000000000000000000000000000000000000\n      dup2\n      mstore\n      0x04\n      add\n      tag_72\n      swap1\n      tag_73\n      jump\t// in\n    tag_72:\n      mload(0x40)\n      dup1\n      swap2\n      sub\n      swap1\n      revert\n    tag_71:\n        /* \"Dapp/MoneyTransfer.sol\":2274:2279  false */\n      0x00\n        /* \"Dapp/MoneyTransfer.sol\":2259:2279  callPutCard != false */\n      iszero\n      iszero\n        /* \"Dapp/MoneyTransfer.sol\":2259:2270  callPutCard */\n      0x10\n      0x00\n      swap1\n      sload\n      swap1\n      0x0100\n      exp\n      swap1\n      div\n      0xff\n      and\n        /* \"Dapp/MoneyTransfer.sol\":2259:2279  callPutCard != false */\n      iszero\n      iszero\n      sub\n        /* \"Dapp/MoneyTransfer.sol\":2251:2289  require(callPutCard != false,\"Please\") */\n      tag_75\n      jumpi\n      mload(0x40)\n      0x08c379a000000000000000000000000000000000000000000000000000000000\n      dup2\n      mstore\n      0x04\n      add\n      tag_76\n      swap1\n      tag_77\n      jump\t// in\n    tag_76:\n      mload(0x40)\n      dup1\n      swap2\n      sub\n      swap1\n      revert\n    tag_75:\n        /* \"Dapp/MoneyTransfer.sol\":2403:2407  2500 */\n      0x09c4\n        /* \"Dapp/MoneyTransfer.sol\":2388:2399  TotalAmount */\n      sload(0x0c)\n        /* \"Dapp/MoneyTransfer.sol\":2388:2407  TotalAmount <= 2500 */\n      gt\n      iszero\n        /* \"Dapp/MoneyTransfer.sol\":2379:2434  require (TotalAmount <= 2500 , \"You reached the limit\") */\n      tag_79\n      jumpi\n      mload(0x40)\n      0x08c379a000000000000000000000000000000000000000000000000000000000\n      dup2\n      mstore\n      0x04\n      add\n      tag_80\n      swap1\n      tag_81\n      jump\t// in\n    tag_80:\n      mload(0x40)\n      dup1\n      swap2\n      sub\n      swap1\n      revert\n    tag_79:\n        /* \"Dapp/MoneyTransfer.sol\":2466:2481  block.timestamp */\n      timestamp\n        /* \"Dapp/MoneyTransfer.sol\":2446:2463  firstTransferTime */\n      0x0d\n        /* \"Dapp/MoneyTransfer.sol\":2446:2481  firstTransferTime = block.timestamp */\n      dup2\n      swap1\n      sstore\n      pop\n        /* \"Dapp/MoneyTransfer.sol\":2682:2692  30 seconds */\n      0x1e\n        /* \"Dapp/MoneyTransfer.sol\":2662:2679  firstTransferTime */\n      sload(0x0d)\n        /* \"Dapp/MoneyTransfer.sol\":2662:2692  firstTransferTime + 30 seconds */\n      tag_82\n      swap2\n      swap1\n      tag_83\n      jump\t// in\n    tag_82:\n        /* \"Dapp/MoneyTransfer.sol\":2642:2657  block.timestamp */\n      timestamp\n        /* \"Dapp/MoneyTransfer.sol\":2642:2693  block.timestamp <= (firstTransferTime + 30 seconds) */\n      gt\n      iszero\n        /* \"Dapp/MoneyTransfer.sol\":2634:2709  require(block.timestamp <= (firstTransferTime + 30 seconds), \"Time passed\") */\n      tag_84\n      jumpi\n      mload(0x40)\n      0x08c379a000000000000000000000000000000000000000000000000000000000\n      dup2\n      mstore\n      0x04\n      add\n      tag_85\n      swap1\n      tag_86\n      jump\t// in\n    tag_85:\n      mload(0x40)\n      dup1\n      swap2\n      sub\n      swap1\n      revert\n    tag_84:\n        /* \"Dapp/MoneyTransfer.sol\":961:970  _receiver */\n      dup2\n        /* \"Dapp/MoneyTransfer.sol\":950:958  receiver */\n      0x02\n      0x00\n        /* \"Dapp/MoneyTransfer.sol\":950:970  receiver = _receiver */\n      0x0100\n      exp\n      dup2\n      sload\n      dup2\n      0xffffffffffffffffffffffffffffffffffffffff\n      mul\n      not\n      and\n      swap1\n      dup4\n      0xffffffffffffffffffffffffffffffffffffffff\n      and\n      mul\n      or\n      swap1\n      sstore\n      pop\n        /* \"Dapp/MoneyTransfer.sol\":990:997  _amount */\n      dup3\n        /* \"Dapp/MoneyTransfer.sol\":981:987  amount */\n      0x00\n        /* \"Dapp/MoneyTransfer.sol\":981:997  amount = _amount */\n      dup2\n      swap1\n      sstore\n      pop\n        /* \"Dapp/MoneyTransfer.sol\":1067:1068  1 */\n      0x01\n        /* \"Dapp/MoneyTransfer.sol\":1054:1063  callCount */\n      0x0f\n      0x00\n        /* \"Dapp/MoneyTransfer.sol\":1054:1068  callCount += 1 */\n      dup3\n      dup3\n      sload\n      tag_88\n      swap2\n      swap1\n      tag_83\n      jump\t// in\n    tag_88:\n      swap3\n      pop\n      pop\n      dup2\n      swap1\n      sstore\n      pop\n        /* \"Dapp/MoneyTransfer.sol\":1124:1125  0 */\n      0x00\n        /* \"Dapp/MoneyTransfer.sol\":1111:1121  TotalFunds */\n      sload(0x01)\n        /* \"Dapp/MoneyTransfer.sol\":1111:1125  TotalFunds > 0 */\n      gt\n        /* \"Dapp/MoneyTransfer.sol\":1111:1148  TotalFunds > 0 && TotalFunds > amount */\n      dup1\n      iszero\n      tag_89\n      jumpi\n      pop\n        /* \"Dapp/MoneyTransfer.sol\":1142:1148  amount */\n      sload(0x00)\n        /* \"Dapp/MoneyTransfer.sol\":1129:1139  TotalFunds */\n      sload(0x01)\n        /* \"Dapp/MoneyTransfer.sol\":1129:1148  TotalFunds > amount */\n      gt\n        /* \"Dapp/MoneyTransfer.sol\":1111:1148  TotalFunds > 0 && TotalFunds > amount */\n    tag_89:\n        /* \"Dapp/MoneyTransfer.sol\":1108:1486  if(TotalFunds > 0 && TotalFunds > amount){... */\n      iszero\n      tag_90\n      jumpi\n        /* \"Dapp/MoneyTransfer.sol\":1186:1192  amount */\n      sload(0x00)\n        /* \"Dapp/MoneyTransfer.sol\":1172:1182  TotalFunds */\n      0x01\n      0x00\n        /* \"Dapp/MoneyTransfer.sol\":1172:1192  TotalFunds -= amount */\n      dup3\n      dup3\n      sload\n      tag_91\n      swap2\n      swap1\n      tag_92\n      jump\t// in\n    tag_91:\n      swap3\n      pop\n      pop\n      dup2\n      swap1\n      sstore\n      pop\n        /* \"Dapp/MoneyTransfer.sol\":1230:1236  amount */\n      sload(0x00)\n        /* \"Dapp/MoneyTransfer.sol\":1215:1226  TotalAmount */\n      0x0c\n      0x00\n        /* \"Dapp/MoneyTransfer.sol\":1215:1236  TotalAmount += amount */\n      dup3\n      dup3\n      sload\n      tag_93\n      swap2\n      swap1\n      tag_83\n      jump\t// in\n    tag_93:\n      swap3\n      pop\n      pop\n      dup2\n      swap1\n      sstore\n      pop\n        /* \"Dapp/MoneyTransfer.sol\":1281:1311  message = \"Transfer completed\" */\n      mload(0x40)\n      dup1\n      0x40\n      add\n      0x40\n      mstore\n      dup1\n      0x12\n      dup2\n      mstore\n      0x20\n      add\n      0x5472616e7366657220636f6d706c657465640000000000000000000000000000\n      dup2\n      mstore\n      pop\n        /* \"Dapp/MoneyTransfer.sol\":1281:1288  message */\n      0x09\n        /* \"Dapp/MoneyTransfer.sol\":1281:1311  message = \"Transfer completed\" */\n      swap1\n      dup2\n      tag_94\n      swap2\n      swap1\n      tag_95\n      jump\t// in\n    tag_94:\n      pop\n        /* \"Dapp/MoneyTransfer.sol\":1108:1486  if(TotalFunds > 0 && TotalFunds > amount){... */\n      jump(tag_96)\n    tag_90:\n        /* \"Dapp/MoneyTransfer.sol\":1439:1465  revert(\"Not enough funds\") */\n      mload(0x40)\n      0x08c379a000000000000000000000000000000000000000000000000000000000\n      dup2\n      mstore\n      0x04\n      add\n      tag_97\n      swap1\n      tag_98\n      jump\t// in\n    tag_97:\n      mload(0x40)\n      dup1\n      swap2\n      sub\n      swap1\n      revert\n        /* \"Dapp/MoneyTransfer.sol\":1108:1486  if(TotalFunds > 0 && TotalFunds > amount){... */\n    tag_96:\n        /* \"Dapp/MoneyTransfer.sol\":823:1525  function sendMoney( uint _amount, address _receiver) public m_validAddress(_receiver) m_ifCardExists m_transferLimit{... */\n      pop\n      pop\n      pop\n      jump\t// out\n        /* \"Dapp/MoneyTransfer.sol\":524:553  uint public firstTransferTime */\n    tag_26:\n      sload(0x0d)\n      dup2\n      jump\t// out\n        /* \"Dapp/MoneyTransfer.sol\":1533:1782  function setCard( string memory _cardNumber, string memory _cvv) public m_checkCard {... */\n    tag_32:\n        /* \"Dapp/MoneyTransfer.sol\":2117:2118  8 */\n      0x08\n        /* \"Dapp/MoneyTransfer.sol\":2095:2105  cardNumber */\n      0x0a\n        /* \"Dapp/MoneyTransfer.sol\":2089:2113  bytes(cardNumber).length */\n      dup1\n      sload\n      tag_100\n      swap1\n      tag_101\n      jump\t// in\n    tag_100:\n      swap1\n      pop\n        /* \"Dapp/MoneyTransfer.sol\":2089:2118  bytes(cardNumber).length == 8 */\n      eq\n        /* \"Dapp/MoneyTransfer.sol\":2089:2144  bytes(cardNumber).length == 8 && bytes(cvv).length == 3 */\n      dup1\n      iszero\n      tag_102\n      jumpi\n      pop\n        /* \"Dapp/MoneyTransfer.sol\":2143:2144  3 */\n      0x03\n        /* \"Dapp/MoneyTransfer.sol\":2128:2131  cvv */\n      0x0b\n        /* \"Dapp/MoneyTransfer.sol\":2122:2139  bytes(cvv).length */\n      dup1\n      sload\n      tag_103\n      swap1\n      tag_101\n      jump\t// in\n    tag_103:\n      swap1\n      pop\n        /* \"Dapp/MoneyTransfer.sol\":2122:2144  bytes(cvv).length == 3 */\n      eq\n        /* \"Dapp/MoneyTransfer.sol\":2089:2144  bytes(cardNumber).length == 8 && bytes(cvv).length == 3 */\n    tag_102:\n        /* \"Dapp/MoneyTransfer.sol\":2081:2169  require(bytes(cardNumber).length == 8 && bytes(cvv).length == 3, \"No valid credit card\") */\n      tag_104\n      jumpi\n      mload(0x40)\n      0x08c379a000000000000000000000000000000000000000000000000000000000\n      dup2\n      mstore\n      0x04\n      add\n      tag_105\n      swap1\n      tag_106\n      jump\t// in\n    tag_105:\n      mload(0x40)\n      dup1\n      swap2\n      sub\n      swap1\n      revert\n    tag_104:\n        /* \"Dapp/MoneyTransfer.sol\":1647:1658  _cardNumber */\n      dup2\n        /* \"Dapp/MoneyTransfer.sol\":1634:1644  cardNumber */\n      0x0a\n        /* \"Dapp/MoneyTransfer.sol\":1634:1658  cardNumber = _cardNumber */\n      swap1\n      dup2\n      tag_108\n      swap2\n      swap1\n      tag_95\n      jump\t// in\n    tag_108:\n      pop\n        /* \"Dapp/MoneyTransfer.sol\":1679:1683  _cvv */\n      dup1\n        /* \"Dapp/MoneyTransfer.sol\":1673:1676  cvv */\n      0x0b\n        /* \"Dapp/MoneyTransfer.sol\":1673:1683  cvv = _cvv */\n      swap1\n      dup2\n      tag_109\n      swap2\n      swap1\n      tag_95\n      jump\t// in\n    tag_109:\n      pop\n        /* \"Dapp/MoneyTransfer.sol\":1714:1718  true */\n      0x01\n        /* \"Dapp/MoneyTransfer.sol\":1700:1711  callPutCard */\n      0x10\n      0x00\n        /* \"Dapp/MoneyTransfer.sol\":1700:1718  callPutCard = true */\n      0x0100\n      exp\n      dup2\n      sload\n      dup2\n      0xff\n      mul\n      not\n      and\n      swap1\n      dup4\n      iszero\n      iszero\n      mul\n      or\n      swap1\n      sstore\n      pop\n        /* \"Dapp/MoneyTransfer.sol\":1757:1772  block.timestamp */\n      timestamp\n        /* \"Dapp/MoneyTransfer.sol\":1737:1754  firstTransferTime */\n      0x0d\n        /* \"Dapp/MoneyTransfer.sol\":1737:1772  firstTransferTime = block.timestamp */\n      dup2\n      swap1\n      sstore\n      pop\n        /* \"Dapp/MoneyTransfer.sol\":1533:1782  function setCard( string memory _cardNumber, string memory _cvv) public m_checkCard {... */\n      pop\n      pop\n      jump\t// out\n        /* \"Dapp/MoneyTransfer.sol\":560:585  uint public countTransfer */\n    tag_34:\n      sload(0x0e)\n      dup2\n      jump\t// out\n        /* \"Dapp/MoneyTransfer.sol\":782:813  bool public callPutCard = false */\n    tag_37:\n      0x10\n      0x00\n      swap1\n      sload\n      swap1\n      0x0100\n      exp\n      swap1\n      div\n      0xff\n      and\n      dup2\n      jump\t// out\n        /* \"Dapp/MoneyTransfer.sol\":470:487  string public cvv */\n    tag_41:\n      0x0b\n      dup1\n      sload\n      tag_110\n      swap1\n      tag_101\n      jump\t// in\n    tag_110:\n      dup1\n      0x1f\n      add\n      0x20\n      dup1\n      swap2\n      div\n      mul\n      0x20\n      add\n      mload(0x40)\n      swap1\n      dup2\n      add\n      0x40\n      mstore\n      dup1\n      swap3\n      swap2\n      swap1\n      dup2\n      dup2\n      mstore\n      0x20\n      add\n      dup3\n      dup1\n      sload\n      tag_111\n      swap1\n      tag_101\n      jump\t// in\n    tag_111:\n      dup1\n      iszero\n      tag_112\n      jumpi\n      dup1\n      0x1f\n      lt\n      tag_113\n      jumpi\n      0x0100\n      dup1\n      dup4\n      sload\n      div\n      mul\n      dup4\n      mstore\n      swap2\n      0x20\n      add\n      swap2\n      jump(tag_112)\n    tag_113:\n      dup3\n      add\n      swap2\n      swap1\n      0x00\n      mstore\n      keccak256(0x00, 0x20)\n      swap1\n    tag_114:\n      dup2\n      sload\n      dup2\n      mstore\n      swap1\n      0x01\n      add\n      swap1\n      0x20\n      add\n      dup1\n      dup4\n      gt\n      tag_114\n      jumpi\n      dup3\n      swap1\n      sub\n      0x1f\n      and\n      dup3\n      add\n      swap2\n    tag_112:\n      pop\n      pop\n      pop\n      pop\n      pop\n      dup2\n      jump\t// out\n        /* \"Dapp/MoneyTransfer.sol\":749:774  uint public callCount = 0 */\n    tag_45:\n      sload(0x0f)\n      dup2\n      jump\t// out\n        /* \"Dapp/MoneyTransfer.sol\":134:159  uint256 public TotalFunds */\n    tag_48:\n      sload(0x01)\n      dup2\n      jump\t// out\n        /* \"Dapp/MoneyTransfer.sol\":494:520  uint256 public TotalAmount */\n    tag_51:\n      sload(0x0c)\n      dup2\n      jump\t// out\n        /* \"Dapp/MoneyTransfer.sol\":1792:1861  function getOutCard() public  {... */\n    tag_54:\n        /* \"Dapp/MoneyTransfer.sol\":1846:1851  false */\n      0x00\n        /* \"Dapp/MoneyTransfer.sol\":1832:1843  callPutCard */\n      0x10\n      0x00\n        /* \"Dapp/MoneyTransfer.sol\":1832:1851  callPutCard = false */\n      0x0100\n      exp\n      dup2\n      sload\n      dup2\n      0xff\n      mul\n      not\n      and\n      swap1\n      dup4\n      iszero\n      iszero\n      mul\n      or\n      swap1\n      sstore\n      pop\n        /* \"Dapp/MoneyTransfer.sol\":1792:1861  function getOutCard() public  {... */\n      jump\t// out\n        /* \"Dapp/MoneyTransfer.sol\":438:462  string public cardNumber */\n    tag_56:\n      0x0a\n      dup1\n      sload\n      tag_116\n      swap1\n      tag_101\n      jump\t// in\n    tag_116:\n      dup1\n      0x1f\n      add\n      0x20\n      dup1\n      swap2\n      div\n      mul\n      0x20\n      add\n      mload(0x40)\n      swap1\n      dup2\n      add\n      0x40\n      mstore\n      dup1\n      swap3\n      swap2\n      swap1\n      dup2\n      dup2\n      mstore\n      0x20\n      add\n      dup3\n      dup1\n      sload\n      tag_117\n      swap1\n      tag_101\n      jump\t// in\n    tag_117:\n      dup1\n      iszero\n      tag_118\n      jumpi\n      dup1\n      0x1f\n      lt\n      tag_119\n      jumpi\n      0x0100\n      dup1\n      dup4\n      sload\n      div\n      mul\n      dup4\n      mstore\n      swap2\n      0x20\n      add\n      swap2\n      jump(tag_118)\n    tag_119:\n      dup3\n      add\n      swap2\n      swap1\n      0x00\n      mstore\n      keccak256(0x00, 0x20)\n      swap1\n    tag_120:\n      dup2\n      sload\n      dup2\n      mstore\n      swap1\n      0x01\n      add\n      swap1\n      0x20\n      add\n      dup1\n      dup4\n      gt\n      tag_120\n      jumpi\n      dup3\n      swap1\n      sub\n      0x1f\n      and\n      dup3\n      add\n      swap2\n    tag_118:\n      pop\n      pop\n      pop\n      pop\n      pop\n      dup2\n      jump\t// out\n        /* \"Dapp/MoneyTransfer.sol\":252:288  uint256 public totalWeekTransactions */\n    tag_59:\n      sload(0x04)\n      dup2\n      jump\t// out\n        /* \"Dapp/MoneyTransfer.sol\":106:127  uint256 public amount */\n    tag_62:\n      sload(0x00)\n      dup2\n      jump\t// out\n        /* \"Dapp/MoneyTransfer.sol\":375:403  uint256 public receiverFunds */\n    tag_65:\n      sload(0x08)\n      dup2\n      jump\t// out\n        /* \"Dapp/MoneyTransfer.sol\":410:431  string public message */\n    tag_68:\n      0x09\n      dup1\n      sload\n      tag_121\n      swap1\n      tag_101\n      jump\t// in\n    tag_121:\n      dup1\n      0x1f\n      add\n      0x20\n      dup1\n      swap2\n      div\n      mul\n      0x20\n      add\n      mload(0x40)\n      swap1\n      dup2\n      add\n      0x40\n      mstore\n      dup1\n      swap3\n      swap2\n      swap1\n      dup2\n      dup2\n      mstore\n      0x20\n      add\n      dup3\n      dup1\n      sload\n      tag_122\n      swap1\n      tag_101\n      jump\t// in\n    tag_122:\n      dup1\n      iszero\n      tag_123\n      jumpi\n      dup1\n      0x1f\n      lt\n      tag_124\n      jumpi\n      0x0100\n      dup1\n      dup4\n      sload\n      div\n      mul\n      dup4\n      mstore\n      swap2\n      0x20\n      add\n      swap2\n      jump(tag_123)\n    tag_124:\n      dup3\n      add\n      swap2\n      swap1\n      0x00\n      mstore\n      keccak256(0x00, 0x20)\n      swap1\n    tag_125:\n      dup2\n      sload\n      dup2\n      mstore\n      swap1\n      0x01\n      add\n      swap1\n      0x20\n      add\n      dup1\n      dup4\n      gt\n      tag_125\n      jumpi\n      dup3\n      swap1\n      sub\n      0x1f\n      and\n      dup3\n      add\n      swap2\n    tag_123:\n      pop\n      pop\n      pop\n      pop\n      pop\n      dup2\n      jump\t// out\n        /* \"#utility.yul\":7:82   */\n    tag_126:\n        /* \"#utility.yul\":40:46   */\n      0x00\n        /* \"#utility.yul\":73:75   */\n      0x40\n        /* \"#utility.yul\":67:76   */\n      mload\n        /* \"#utility.yul\":57:76   */\n      swap1\n      pop\n        /* \"#utility.yul\":7:82   */\n      swap1\n      jump\t// out\n        /* \"#utility.yul\":88:205   */\n    tag_127:\n        /* \"#utility.yul\":197:198   */\n      0x00\n        /* \"#utility.yul\":194:195   */\n      dup1\n        /* \"#utility.yul\":187:199   */\n      revert\n        /* \"#utility.yul\":211:328   */\n    tag_128:\n        /* \"#utility.yul\":320:321   */\n      0x00\n        /* \"#utility.yul\":317:318   */\n      dup1\n        /* \"#utility.yul\":310:322   */\n      revert\n        /* \"#utility.yul\":334:411   */\n    tag_129:\n        /* \"#utility.yul\":371:378   */\n      0x00\n        /* \"#utility.yul\":400:405   */\n      dup2\n        /* \"#utility.yul\":389:405   */\n      swap1\n      pop\n        /* \"#utility.yul\":334:411   */\n      swap2\n      swap1\n      pop\n      jump\t// out\n        /* \"#utility.yul\":417:539   */\n    tag_130:\n        /* \"#utility.yul\":490:514   */\n      tag_188\n        /* \"#utility.yul\":508:513   */\n      dup2\n        /* \"#utility.yul\":490:514   */\n      tag_129\n      jump\t// in\n    tag_188:\n        /* \"#utility.yul\":483:488   */\n      dup2\n        /* \"#utility.yul\":480:515   */\n      eq\n        /* \"#utility.yul\":470:533   */\n      tag_189\n      jumpi\n        /* \"#utility.yul\":529:530   */\n      0x00\n        /* \"#utility.yul\":526:527   */\n      dup1\n        /* \"#utility.yul\":519:531   */\n      revert\n        /* \"#utility.yul\":470:533   */\n    tag_189:\n        /* \"#utility.yul\":417:539   */\n      pop\n      jump\t// out\n        /* \"#utility.yul\":545:684   */\n    tag_131:\n        /* \"#utility.yul\":591:596   */\n      0x00\n        /* \"#utility.yul\":629:635   */\n      dup2\n        /* \"#utility.yul\":616:636   */\n      calldataload\n        /* \"#utility.yul\":607:636   */\n      swap1\n      pop\n        /* \"#utility.yul\":645:678   */\n      tag_191\n        /* \"#utility.yul\":672:677   */\n      dup2\n        /* \"#utility.yul\":645:678   */\n      tag_130\n      jump\t// in\n    tag_191:\n        /* \"#utility.yul\":545:684   */\n      swap3\n      swap2\n      pop\n      pop\n      jump\t// out\n        /* \"#utility.yul\":690:816   */\n    tag_132:\n        /* \"#utility.yul\":727:734   */\n      0x00\n        /* \"#utility.yul\":767:809   */\n      0xffffffffffffffffffffffffffffffffffffffff\n        /* \"#utility.yul\":760:765   */\n      dup3\n        /* \"#utility.yul\":756:810   */\n      and\n        /* \"#utility.yul\":745:810   */\n      swap1\n      pop\n        /* \"#utility.yul\":690:816   */\n      swap2\n      swap1\n      pop\n      jump\t// out\n        /* \"#utility.yul\":822:918   */\n    tag_133:\n        /* \"#utility.yul\":859:866   */\n      0x00\n        /* \"#utility.yul\":888:912   */\n      tag_194\n        /* \"#utility.yul\":906:911   */\n      dup3\n        /* \"#utility.yul\":888:912   */\n      tag_132\n      jump\t// in\n    tag_194:\n        /* \"#utility.yul\":877:912   */\n      swap1\n      pop\n        /* \"#utility.yul\":822:918   */\n      swap2\n      swap1\n      pop\n      jump\t// out\n        /* \"#utility.yul\":924:1046   */\n    tag_134:\n        /* \"#utility.yul\":997:1021   */\n      tag_196\n        /* \"#utility.yul\":1015:1020   */\n      dup2\n        /* \"#utility.yul\":997:1021   */\n      tag_133\n      jump\t// in\n    tag_196:\n        /* \"#utility.yul\":990:995   */\n      dup2\n        /* \"#utility.yul\":987:1022   */\n      eq\n        /* \"#utility.yul\":977:1040   */\n      tag_197\n      jumpi\n        /* \"#utility.yul\":1036:1037   */\n      0x00\n        /* \"#utility.yul\":1033:1034   */\n      dup1\n        /* \"#utility.yul\":1026:1038   */\n      revert\n        /* \"#utility.yul\":977:1040   */\n    tag_197:\n        /* \"#utility.yul\":924:1046   */\n      pop\n      jump\t// out\n        /* \"#utility.yul\":1052:1191   */\n    tag_135:\n        /* \"#utility.yul\":1098:1103   */\n      0x00\n        /* \"#utility.yul\":1136:1142   */\n      dup2\n        /* \"#utility.yul\":1123:1143   */\n      calldataload\n        /* \"#utility.yul\":1114:1143   */\n      swap1\n      pop\n        /* \"#utility.yul\":1152:1185   */\n      tag_199\n        /* \"#utility.yul\":1179:1184   */\n      dup2\n        /* \"#utility.yul\":1152:1185   */\n      tag_134\n      jump\t// in\n    tag_199:\n        /* \"#utility.yul\":1052:1191   */\n      swap3\n      swap2\n      pop\n      pop\n      jump\t// out\n        /* \"#utility.yul\":1197:1671   */\n    tag_23:\n        /* \"#utility.yul\":1265:1271   */\n      0x00\n        /* \"#utility.yul\":1273:1279   */\n      dup1\n        /* \"#utility.yul\":1322:1324   */\n      0x40\n        /* \"#utility.yul\":1310:1319   */\n      dup4\n        /* \"#utility.yul\":1301:1308   */\n      dup6\n        /* \"#utility.yul\":1297:1320   */\n      sub\n        /* \"#utility.yul\":1293:1325   */\n      slt\n        /* \"#utility.yul\":1290:1409   */\n      iszero\n      tag_201\n      jumpi\n        /* \"#utility.yul\":1328:1407   */\n      tag_202\n      tag_127\n      jump\t// in\n    tag_202:\n        /* \"#utility.yul\":1290:1409   */\n    tag_201:\n        /* \"#utility.yul\":1448:1449   */\n      0x00\n        /* \"#utility.yul\":1473:1526   */\n      tag_203\n        /* \"#utility.yul\":1518:1525   */\n      dup6\n        /* \"#utility.yul\":1509:1515   */\n      dup3\n        /* \"#utility.yul\":1498:1507   */\n      dup7\n        /* \"#utility.yul\":1494:1516   */\n      add\n        /* \"#utility.yul\":1473:1526   */\n      tag_131\n      jump\t// in\n    tag_203:\n        /* \"#utility.yul\":1463:1526   */\n      swap3\n      pop\n        /* \"#utility.yul\":1419:1536   */\n      pop\n        /* \"#utility.yul\":1575:1577   */\n      0x20\n        /* \"#utility.yul\":1601:1654   */\n      tag_204\n        /* \"#utility.yul\":1646:1653   */\n      dup6\n        /* \"#utility.yul\":1637:1643   */\n      dup3\n        /* \"#utility.yul\":1626:1635   */\n      dup7\n        /* \"#utility.yul\":1622:1644   */\n      add\n        /* \"#utility.yul\":1601:1654   */\n      tag_135\n      jump\t// in\n    tag_204:\n        /* \"#utility.yul\":1591:1654   */\n      swap2\n      pop\n        /* \"#utility.yul\":1546:1664   */\n      pop\n        /* \"#utility.yul\":1197:1671   */\n      swap3\n      pop\n      swap3\n      swap1\n      pop\n      jump\t// out\n        /* \"#utility.yul\":1677:1795   */\n    tag_136:\n        /* \"#utility.yul\":1764:1788   */\n      tag_206\n        /* \"#utility.yul\":1782:1787   */\n      dup2\n        /* \"#utility.yul\":1764:1788   */\n      tag_129\n      jump\t// in\n    tag_206:\n        /* \"#utility.yul\":1759:1762   */\n      dup3\n        /* \"#utility.yul\":1752:1789   */\n      mstore\n        /* \"#utility.yul\":1677:1795   */\n      pop\n      pop\n      jump\t// out\n        /* \"#utility.yul\":1801:2023   */\n    tag_28:\n        /* \"#utility.yul\":1894:1898   */\n      0x00\n        /* \"#utility.yul\":1932:1934   */\n      0x20\n        /* \"#utility.yul\":1921:1930   */\n      dup3\n        /* \"#utility.yul\":1917:1935   */\n      add\n        /* \"#utility.yul\":1909:1935   */\n      swap1\n      pop\n        /* \"#utility.yul\":1945:2016   */\n      tag_208\n        /* \"#utility.yul\":2013:2014   */\n      0x00\n        /* \"#utility.yul\":2002:2011   */\n      dup4\n        /* \"#utility.yul\":1998:2015   */\n      add\n        /* \"#utility.yul\":1989:1995   */\n      dup5\n        /* \"#utility.yul\":1945:2016   */\n      tag_136\n      jump\t// in\n    tag_208:\n        /* \"#utility.yul\":1801:2023   */\n      swap3\n      swap2\n      pop\n      pop\n      jump\t// out\n        /* \"#utility.yul\":2029:2146   */\n    tag_137:\n        /* \"#utility.yul\":2138:2139   */\n      0x00\n        /* \"#utility.yul\":2135:2136   */\n      dup1\n        /* \"#utility.yul\":2128:2140   */\n      revert\n        /* \"#utility.yul\":2152:2269   */\n    tag_138:\n        /* \"#utility.yul\":2261:2262   */\n      0x00\n        /* \"#utility.yul\":2258:2259   */\n      dup1\n        /* \"#utility.yul\":2251:2263   */\n      revert\n        /* \"#utility.yul\":2275:2377   */\n    tag_139:\n        /* \"#utility.yul\":2316:2322   */\n      0x00\n        /* \"#utility.yul\":2367:2369   */\n      0x1f\n        /* \"#utility.yul\":2363:2370   */\n      not\n        /* \"#utility.yul\":2358:2360   */\n      0x1f\n        /* \"#utility.yul\":2351:2356   */\n      dup4\n        /* \"#utility.yul\":2347:2361   */\n      add\n        /* \"#utility.yul\":2343:2371   */\n      and\n        /* \"#utility.yul\":2333:2371   */\n      swap1\n      pop\n        /* \"#utility.yul\":2275:2377   */\n      swap2\n      swap1\n      pop\n      jump\t// out\n        /* \"#utility.yul\":2383:2563   */\n    tag_140:\n        /* \"#utility.yul\":2431:2508   */\n      0x4e487b7100000000000000000000000000000000000000000000000000000000\n        /* \"#utility.yul\":2428:2429   */\n      0x00\n        /* \"#utility.yul\":2421:2509   */\n      mstore\n        /* \"#utility.yul\":2528:2532   */\n      0x41\n        /* \"#utility.yul\":2525:2526   */\n      0x04\n        /* \"#utility.yul\":2518:2533   */\n      mstore\n        /* \"#utility.yul\":2552:2556   */\n      0x24\n        /* \"#utility.yul\":2549:2550   */\n      0x00\n        /* \"#utility.yul\":2542:2557   */\n      revert\n        /* \"#utility.yul\":2569:2850   */\n    tag_141:\n        /* \"#utility.yul\":2652:2679   */\n      tag_214\n        /* \"#utility.yul\":2674:2678   */\n      dup3\n        /* \"#utility.yul\":2652:2679   */\n      tag_139\n      jump\t// in\n    tag_214:\n        /* \"#utility.yul\":2644:2650   */\n      dup2\n        /* \"#utility.yul\":2640:2680   */\n      add\n        /* \"#utility.yul\":2782:2788   */\n      dup2\n        /* \"#utility.yul\":2770:2780   */\n      dup2\n        /* \"#utility.yul\":2767:2789   */\n      lt\n        /* \"#utility.yul\":2746:2764   */\n      0xffffffffffffffff\n        /* \"#utility.yul\":2734:2744   */\n      dup3\n        /* \"#utility.yul\":2731:2765   */\n      gt\n        /* \"#utility.yul\":2728:2790   */\n      or\n        /* \"#utility.yul\":2725:2813   */\n      iszero\n      tag_215\n      jumpi\n        /* \"#utility.yul\":2793:2811   */\n      tag_216\n      tag_140\n      jump\t// in\n    tag_216:\n        /* \"#utility.yul\":2725:2813   */\n    tag_215:\n        /* \"#utility.yul\":2833:2843   */\n      dup1\n        /* \"#utility.yul\":2829:2831   */\n      0x40\n        /* \"#utility.yul\":2822:2844   */\n      mstore\n        /* \"#utility.yul\":2612:2850   */\n      pop\n        /* \"#utility.yul\":2569:2850   */\n      pop\n      pop\n      jump\t// out\n        /* \"#utility.yul\":2856:2985   */\n    tag_142:\n        /* \"#utility.yul\":2890:2896   */\n      0x00\n        /* \"#utility.yul\":2917:2937   */\n      tag_218\n      tag_126\n      jump\t// in\n    tag_218:\n        /* \"#utility.yul\":2907:2937   */\n      swap1\n      pop\n        /* \"#utility.yul\":2946:2979   */\n      tag_219\n        /* \"#utility.yul\":2974:2978   */\n      dup3\n        /* \"#utility.yul\":2966:2972   */\n      dup3\n        /* \"#utility.yul\":2946:2979   */\n      tag_141\n      jump\t// in\n    tag_219:\n        /* \"#utility.yul\":2856:2985   */\n      swap2\n      swap1\n      pop\n      jump\t// out\n        /* \"#utility.yul\":2991:3299   */\n    tag_143:\n        /* \"#utility.yul\":3053:3057   */\n      0x00\n        /* \"#utility.yul\":3143:3161   */\n      0xffffffffffffffff\n        /* \"#utility.yul\":3135:3141   */\n      dup3\n        /* \"#utility.yul\":3132:3162   */\n      gt\n        /* \"#utility.yul\":3129:3185   */\n      iszero\n      tag_221\n      jumpi\n        /* \"#utility.yul\":3165:3183   */\n      tag_222\n      tag_140\n      jump\t// in\n    tag_222:\n        /* \"#utility.yul\":3129:3185   */\n    tag_221:\n        /* \"#utility.yul\":3203:3232   */\n      tag_223\n        /* \"#utility.yul\":3225:3231   */\n      dup3\n        /* \"#utility.yul\":3203:3232   */\n      tag_139\n      jump\t// in\n    tag_223:\n        /* \"#utility.yul\":3195:3232   */\n      swap1\n      pop\n        /* \"#utility.yul\":3287:3291   */\n      0x20\n        /* \"#utility.yul\":3281:3285   */\n      dup2\n        /* \"#utility.yul\":3277:3292   */\n      add\n        /* \"#utility.yul\":3269:3292   */\n      swap1\n      pop\n        /* \"#utility.yul\":2991:3299   */\n      swap2\n      swap1\n      pop\n      jump\t// out\n        /* \"#utility.yul\":3305:3459   */\n    tag_144:\n        /* \"#utility.yul\":3389:3395   */\n      dup3\n        /* \"#utility.yul\":3384:3387   */\n      dup2\n        /* \"#utility.yul\":3379:3382   */\n      dup4\n        /* \"#utility.yul\":3366:3396   */\n      calldatacopy\n        /* \"#utility.yul\":3451:3452   */\n      0x00\n        /* \"#utility.yul\":3442:3448   */\n      dup4\n        /* \"#utility.yul\":3437:3440   */\n      dup4\n        /* \"#utility.yul\":3433:3449   */\n      add\n        /* \"#utility.yul\":3426:3453   */\n      mstore\n        /* \"#utility.yul\":3305:3459   */\n      pop\n      pop\n      pop\n      jump\t// out\n        /* \"#utility.yul\":3465:3877   */\n    tag_145:\n        /* \"#utility.yul\":3543:3548   */\n      0x00\n        /* \"#utility.yul\":3568:3634   */\n      tag_226\n        /* \"#utility.yul\":3584:3633   */\n      tag_227\n        /* \"#utility.yul\":3626:3632   */\n      dup5\n        /* \"#utility.yul\":3584:3633   */\n      tag_143\n      jump\t// in\n    tag_227:\n        /* \"#utility.yul\":3568:3634   */\n      tag_142\n      jump\t// in\n    tag_226:\n        /* \"#utility.yul\":3559:3634   */\n      swap1\n      pop\n        /* \"#utility.yul\":3657:3663   */\n      dup3\n        /* \"#utility.yul\":3650:3655   */\n      dup2\n        /* \"#utility.yul\":3643:3664   */\n      mstore\n        /* \"#utility.yul\":3695:3699   */\n      0x20\n        /* \"#utility.yul\":3688:3693   */\n      dup2\n        /* \"#utility.yul\":3684:3700   */\n      add\n        /* \"#utility.yul\":3733:3736   */\n      dup5\n        /* \"#utility.yul\":3724:3730   */\n      dup5\n        /* \"#utility.yul\":3719:3722   */\n      dup5\n        /* \"#utility.yul\":3715:3731   */\n      add\n        /* \"#utility.yul\":3712:3737   */\n      gt\n        /* \"#utility.yul\":3709:3821   */\n      iszero\n      tag_228\n      jumpi\n        /* \"#utility.yul\":3740:3819   */\n      tag_229\n      tag_138\n      jump\t// in\n    tag_229:\n        /* \"#utility.yul\":3709:3821   */\n    tag_228:\n        /* \"#utility.yul\":3830:3871   */\n      tag_230\n        /* \"#utility.yul\":3864:3870   */\n      dup5\n        /* \"#utility.yul\":3859:3862   */\n      dup3\n        /* \"#utility.yul\":3854:3857   */\n      dup6\n        /* \"#utility.yul\":3830:3871   */\n      tag_144\n      jump\t// in\n    tag_230:\n        /* \"#utility.yul\":3549:3877   */\n      pop\n        /* \"#utility.yul\":3465:3877   */\n      swap4\n      swap3\n      pop\n      pop\n      pop\n      jump\t// out\n        /* \"#utility.yul\":3897:4237   */\n    tag_146:\n        /* \"#utility.yul\":3953:3958   */\n      0x00\n        /* \"#utility.yul\":4002:4005   */\n      dup3\n        /* \"#utility.yul\":3995:3999   */\n      0x1f\n        /* \"#utility.yul\":3987:3993   */\n      dup4\n        /* \"#utility.yul\":3983:4000   */\n      add\n        /* \"#utility.yul\":3979:4006   */\n      slt\n        /* \"#utility.yul\":3969:4091   */\n      tag_232\n      jumpi\n        /* \"#utility.yul\":4010:4089   */\n      tag_233\n      tag_137\n      jump\t// in\n    tag_233:\n        /* \"#utility.yul\":3969:4091   */\n    tag_232:\n        /* \"#utility.yul\":4127:4133   */\n      dup2\n        /* \"#utility.yul\":4114:4134   */\n      calldataload\n        /* \"#utility.yul\":4152:4231   */\n      tag_234\n        /* \"#utility.yul\":4227:4230   */\n      dup5\n        /* \"#utility.yul\":4219:4225   */\n      dup3\n        /* \"#utility.yul\":4212:4216   */\n      0x20\n        /* \"#utility.yul\":4204:4210   */\n      dup7\n        /* \"#utility.yul\":4200:4217   */\n      add\n        /* \"#utility.yul\":4152:4231   */\n      tag_145\n      jump\t// in\n    tag_234:\n        /* \"#utility.yul\":4143:4231   */\n      swap2\n      pop\n        /* \"#utility.yul\":3959:4237   */\n      pop\n        /* \"#utility.yul\":3897:4237   */\n      swap3\n      swap2\n      pop\n      pop\n      jump\t// out\n        /* \"#utility.yul\":4243:5077   */\n    tag_31:\n        /* \"#utility.yul\":4331:4337   */\n      0x00\n        /* \"#utility.yul\":4339:4345   */\n      dup1\n        /* \"#utility.yul\":4388:4390   */\n      0x40\n        /* \"#utility.yul\":4376:4385   */\n      dup4\n        /* \"#utility.yul\":4367:4374   */\n      dup6\n        /* \"#utility.yul\":4363:4386   */\n      sub\n        /* \"#utility.yul\":4359:4391   */\n      slt\n        /* \"#utility.yul\":4356:4475   */\n      iszero\n      tag_236\n      jumpi\n        /* \"#utility.yul\":4394:4473   */\n      tag_237\n      tag_127\n      jump\t// in\n    tag_237:\n        /* \"#utility.yul\":4356:4475   */\n    tag_236:\n        /* \"#utility.yul\":4542:4543   */\n      0x00\n        /* \"#utility.yul\":4531:4540   */\n      dup4\n        /* \"#utility.yul\":4527:4544   */\n      add\n        /* \"#utility.yul\":4514:4545   */\n      calldataload\n        /* \"#utility.yul\":4572:4590   */\n      0xffffffffffffffff\n        /* \"#utility.yul\":4564:4570   */\n      dup2\n        /* \"#utility.yul\":4561:4591   */\n      gt\n        /* \"#utility.yul\":4558:4675   */\n      iszero\n      tag_238\n      jumpi\n        /* \"#utility.yul\":4594:4673   */\n      tag_239\n      tag_128\n      jump\t// in\n    tag_239:\n        /* \"#utility.yul\":4558:4675   */\n    tag_238:\n        /* \"#utility.yul\":4699:4762   */\n      tag_240\n        /* \"#utility.yul\":4754:4761   */\n      dup6\n        /* \"#utility.yul\":4745:4751   */\n      dup3\n        /* \"#utility.yul\":4734:4743   */\n      dup7\n        /* \"#utility.yul\":4730:4752   */\n      add\n        /* \"#utility.yul\":4699:4762   */\n      tag_146\n      jump\t// in\n    tag_240:\n        /* \"#utility.yul\":4689:4762   */\n      swap3\n      pop\n        /* \"#utility.yul\":4485:4772   */\n      pop\n        /* \"#utility.yul\":4839:4841   */\n      0x20\n        /* \"#utility.yul\":4828:4837   */\n      dup4\n        /* \"#utility.yul\":4824:4842   */\n      add\n        /* \"#utility.yul\":4811:4843   */\n      calldataload\n        /* \"#utility.yul\":4870:4888   */\n      0xffffffffffffffff\n        /* \"#utility.yul\":4862:4868   */\n      dup2\n        /* \"#utility.yul\":4859:4889   */\n      gt\n        /* \"#utility.yul\":4856:4973   */\n      iszero\n      tag_241\n      jumpi\n        /* \"#utility.yul\":4892:4971   */\n      tag_242\n      tag_128\n      jump\t// in\n    tag_242:\n        /* \"#utility.yul\":4856:4973   */\n    tag_241:\n        /* \"#utility.yul\":4997:5060   */\n      tag_243\n        /* \"#utility.yul\":5052:5059   */\n      dup6\n        /* \"#utility.yul\":5043:5049   */\n      dup3\n        /* \"#utility.yul\":5032:5041   */\n      dup7\n        /* \"#utility.yul\":5028:5050   */\n      add\n        /* \"#utility.yul\":4997:5060   */\n      tag_146\n      jump\t// in\n    tag_243:\n        /* \"#utility.yul\":4987:5060   */\n      swap2\n      pop\n        /* \"#utility.yul\":4782:5070   */\n      pop\n        /* \"#utility.yul\":4243:5077   */\n      swap3\n      pop\n      swap3\n      swap1\n      pop\n      jump\t// out\n        /* \"#utility.yul\":5083:5173   */\n    tag_147:\n        /* \"#utility.yul\":5117:5124   */\n      0x00\n        /* \"#utility.yul\":5160:5165   */\n      dup2\n        /* \"#utility.yul\":5153:5166   */\n      iszero\n        /* \"#utility.yul\":5146:5167   */\n      iszero\n        /* \"#utility.yul\":5135:5167   */\n      swap1\n      pop\n        /* \"#utility.yul\":5083:5173   */\n      swap2\n      swap1\n      pop\n      jump\t// out\n        /* \"#utility.yul\":5179:5288   */\n    tag_148:\n        /* \"#utility.yul\":5260:5281   */\n      tag_246\n        /* \"#utility.yul\":5275:5280   */\n      dup2\n        /* \"#utility.yul\":5260:5281   */\n      tag_147\n      jump\t// in\n    tag_246:\n        /* \"#utility.yul\":5255:5258   */\n      dup3\n        /* \"#utility.yul\":5248:5282   */\n      mstore\n        /* \"#utility.yul\":5179:5288   */\n      pop\n      pop\n      jump\t// out\n        /* \"#utility.yul\":5294:5504   */\n    tag_39:\n        /* \"#utility.yul\":5381:5385   */\n      0x00\n        /* \"#utility.yul\":5419:5421   */\n      0x20\n        /* \"#utility.yul\":5408:5417   */\n      dup3\n        /* \"#utility.yul\":5404:5422   */\n      add\n        /* \"#utility.yul\":5396:5422   */\n      swap1\n      pop\n        /* \"#utility.yul\":5432:5497   */\n      tag_248\n        /* \"#utility.yul\":5494:5495   */\n      0x00\n        /* \"#utility.yul\":5483:5492   */\n      dup4\n        /* \"#utility.yul\":5479:5496   */\n      add\n        /* \"#utility.yul\":5470:5476   */\n      dup5\n        /* \"#utility.yul\":5432:5497   */\n      tag_148\n      jump\t// in\n    tag_248:\n        /* \"#utility.yul\":5294:5504   */\n      swap3\n      swap2\n      pop\n      pop\n      jump\t// out\n        /* \"#utility.yul\":5510:5609   */\n    tag_149:\n        /* \"#utility.yul\":5562:5568   */\n      0x00\n        /* \"#utility.yul\":5596:5601   */\n      dup2\n        /* \"#utility.yul\":5590:5602   */\n      mload\n        /* \"#utility.yul\":5580:5602   */\n      swap1\n      pop\n        /* \"#utility.yul\":5510:5609   */\n      swap2\n      swap1\n      pop\n      jump\t// out\n        /* \"#utility.yul\":5615:5784   */\n    tag_150:\n        /* \"#utility.yul\":5699:5710   */\n      0x00\n        /* \"#utility.yul\":5733:5739   */\n      dup3\n        /* \"#utility.yul\":5728:5731   */\n      dup3\n        /* \"#utility.yul\":5721:5740   */\n      mstore\n        /* \"#utility.yul\":5773:5777   */\n      0x20\n        /* \"#utility.yul\":5768:5771   */\n      dup3\n        /* \"#utility.yul\":5764:5778   */\n      add\n        /* \"#utility.yul\":5749:5778   */\n      swap1\n      pop\n        /* \"#utility.yul\":5615:5784   */\n      swap3\n      swap2\n      pop\n      pop\n      jump\t// out\n        /* \"#utility.yul\":5790:6097   */\n    tag_151:\n        /* \"#utility.yul\":5858:5859   */\n      0x00\n        /* \"#utility.yul\":5868:5981   */\n    tag_252:\n        /* \"#utility.yul\":5882:5888   */\n      dup4\n        /* \"#utility.yul\":5879:5880   */\n      dup2\n        /* \"#utility.yul\":5876:5889   */\n      lt\n        /* \"#utility.yul\":5868:5981   */\n      iszero\n      tag_254\n      jumpi\n        /* \"#utility.yul\":5967:5968   */\n      dup1\n        /* \"#utility.yul\":5962:5965   */\n      dup3\n        /* \"#utility.yul\":5958:5969   */\n      add\n        /* \"#utility.yul\":5952:5970   */\n      mload\n        /* \"#utility.yul\":5948:5949   */\n      dup2\n        /* \"#utility.yul\":5943:5946   */\n      dup5\n        /* \"#utility.yul\":5939:5950   */\n      add\n        /* \"#utility.yul\":5932:5971   */\n      mstore\n        /* \"#utility.yul\":5904:5906   */\n      0x20\n        /* \"#utility.yul\":5901:5902   */\n      dup2\n        /* \"#utility.yul\":5897:5907   */\n      add\n        /* \"#utility.yul\":5892:5907   */\n      swap1\n      pop\n        /* \"#utility.yul\":5868:5981   */\n      jump(tag_252)\n    tag_254:\n        /* \"#utility.yul\":5999:6005   */\n      dup4\n        /* \"#utility.yul\":5996:5997   */\n      dup2\n        /* \"#utility.yul\":5993:6006   */\n      gt\n        /* \"#utility.yul\":5990:6091   */\n      iszero\n      tag_255\n      jumpi\n        /* \"#utility.yul\":6079:6080   */\n      0x00\n        /* \"#utility.yul\":6070:6076   */\n      dup5\n        /* \"#utility.yul\":6065:6068   */\n      dup5\n        /* \"#utility.yul\":6061:6077   */\n      add\n        /* \"#utility.yul\":6054:6081   */\n      mstore\n        /* \"#utility.yul\":5990:6091   */\n    tag_255:\n        /* \"#utility.yul\":5839:6097   */\n      pop\n        /* \"#utility.yul\":5790:6097   */\n      pop\n      pop\n      pop\n      jump\t// out\n        /* \"#utility.yul\":6103:6467   */\n    tag_152:\n        /* \"#utility.yul\":6191:6194   */\n      0x00\n        /* \"#utility.yul\":6219:6258   */\n      tag_257\n        /* \"#utility.yul\":6252:6257   */\n      dup3\n        /* \"#utility.yul\":6219:6258   */\n      tag_149\n      jump\t// in\n    tag_257:\n        /* \"#utility.yul\":6274:6345   */\n      tag_258\n        /* \"#utility.yul\":6338:6344   */\n      dup2\n        /* \"#utility.yul\":6333:6336   */\n      dup6\n        /* \"#utility.yul\":6274:6345   */\n      tag_150\n      jump\t// in\n    tag_258:\n        /* \"#utility.yul\":6267:6345   */\n      swap4\n      pop\n        /* \"#utility.yul\":6354:6406   */\n      tag_259\n        /* \"#utility.yul\":6399:6405   */\n      dup2\n        /* \"#utility.yul\":6394:6397   */\n      dup6\n        /* \"#utility.yul\":6387:6391   */\n      0x20\n        /* \"#utility.yul\":6380:6385   */\n      dup7\n        /* \"#utility.yul\":6376:6392   */\n      add\n        /* \"#utility.yul\":6354:6406   */\n      tag_151\n      jump\t// in\n    tag_259:\n        /* \"#utility.yul\":6431:6460   */\n      tag_260\n        /* \"#utility.yul\":6453:6459   */\n      dup2\n        /* \"#utility.yul\":6431:6460   */\n      tag_139\n      jump\t// in\n    tag_260:\n        /* \"#utility.yul\":6426:6429   */\n      dup5\n        /* \"#utility.yul\":6422:6461   */\n      add\n        /* \"#utility.yul\":6415:6461   */\n      swap2\n      pop\n        /* \"#utility.yul\":6195:6467   */\n      pop\n        /* \"#utility.yul\":6103:6467   */\n      swap3\n      swap2\n      pop\n      pop\n      jump\t// out\n        /* \"#utility.yul\":6473:6786   */\n    tag_43:\n        /* \"#utility.yul\":6586:6590   */\n      0x00\n        /* \"#utility.yul\":6624:6626   */\n      0x20\n        /* \"#utility.yul\":6613:6622   */\n      dup3\n        /* \"#utility.yul\":6609:6627   */\n      add\n        /* \"#utility.yul\":6601:6627   */\n      swap1\n      pop\n        /* \"#utility.yul\":6673:6682   */\n      dup2\n        /* \"#utility.yul\":6667:6671   */\n      dup2\n        /* \"#utility.yul\":6663:6683   */\n      sub\n        /* \"#utility.yul\":6659:6660   */\n      0x00\n        /* \"#utility.yul\":6648:6657   */\n      dup4\n        /* \"#utility.yul\":6644:6661   */\n      add\n        /* \"#utility.yul\":6637:6684   */\n      mstore\n        /* \"#utility.yul\":6701:6779   */\n      tag_262\n        /* \"#utility.yul\":6774:6778   */\n      dup2\n        /* \"#utility.yul\":6765:6771   */\n      dup5\n        /* \"#utility.yul\":6701:6779   */\n      tag_152\n      jump\t// in\n    tag_262:\n        /* \"#utility.yul\":6693:6779   */\n      swap1\n      pop\n        /* \"#utility.yul\":6473:6786   */\n      swap3\n      swap2\n      pop\n      pop\n      jump\t// out\n        /* \"#utility.yul\":6792:6970   */\n    tag_153:\n        /* \"#utility.yul\":6932:6962   */\n      0x2054686973206164647265737320646f65736e27742065786973747300000000\n        /* \"#utility.yul\":6928:6929   */\n      0x00\n        /* \"#utility.yul\":6920:6926   */\n      dup3\n        /* \"#utility.yul\":6916:6930   */\n      add\n        /* \"#utility.yul\":6909:6963   */\n      mstore\n        /* \"#utility.yul\":6792:6970   */\n      pop\n      jump\t// out\n        /* \"#utility.yul\":6976:7342   */\n    tag_154:\n        /* \"#utility.yul\":7118:7121   */\n      0x00\n        /* \"#utility.yul\":7139:7206   */\n      tag_265\n        /* \"#utility.yul\":7203:7205   */\n      0x1c\n        /* \"#utility.yul\":7198:7201   */\n      dup4\n        /* \"#utility.yul\":7139:7206   */\n      tag_150\n      jump\t// in\n    tag_265:\n        /* \"#utility.yul\":7132:7206   */\n      swap2\n      pop\n        /* \"#utility.yul\":7215:7308   */\n      tag_266\n        /* \"#utility.yul\":7304:7307   */\n      dup3\n        /* \"#utility.yul\":7215:7308   */\n      tag_153\n      jump\t// in\n    tag_266:\n        /* \"#utility.yul\":7333:7335   */\n      0x20\n        /* \"#utility.yul\":7328:7331   */\n      dup3\n        /* \"#utility.yul\":7324:7336   */\n      add\n        /* \"#utility.yul\":7317:7336   */\n      swap1\n      pop\n        /* \"#utility.yul\":6976:7342   */\n      swap2\n      swap1\n      pop\n      jump\t// out\n        /* \"#utility.yul\":7348:7767   */\n    tag_73:\n        /* \"#utility.yul\":7514:7518   */\n      0x00\n        /* \"#utility.yul\":7552:7554   */\n      0x20\n        /* \"#utility.yul\":7541:7550   */\n      dup3\n        /* \"#utility.yul\":7537:7555   */\n      add\n        /* \"#utility.yul\":7529:7555   */\n      swap1\n      pop\n        /* \"#utility.yul\":7601:7610   */\n      dup2\n        /* \"#utility.yul\":7595:7599   */\n      dup2\n        /* \"#utility.yul\":7591:7611   */\n      sub\n        /* \"#utility.yul\":7587:7588   */\n      0x00\n        /* \"#utility.yul\":7576:7585   */\n      dup4\n        /* \"#utility.yul\":7572:7589   */\n      add\n        /* \"#utility.yul\":7565:7612   */\n      mstore\n        /* \"#utility.yul\":7629:7760   */\n      tag_268\n        /* \"#utility.yul\":7755:7759   */\n      dup2\n        /* \"#utility.yul\":7629:7760   */\n      tag_154\n      jump\t// in\n    tag_268:\n        /* \"#utility.yul\":7621:7760   */\n      swap1\n      pop\n        /* \"#utility.yul\":7348:7767   */\n      swap2\n      swap1\n      pop\n      jump\t// out\n        /* \"#utility.yul\":7773:7929   */\n    tag_155:\n        /* \"#utility.yul\":7913:7921   */\n      0x506c656173650000000000000000000000000000000000000000000000000000\n        /* \"#utility.yul\":7909:7910   */\n      0x00\n        /* \"#utility.yul\":7901:7907   */\n      dup3\n        /* \"#utility.yul\":7897:7911   */\n      add\n        /* \"#utility.yul\":7890:7922   */\n      mstore\n        /* \"#utility.yul\":7773:7929   */\n      pop\n      jump\t// out\n        /* \"#utility.yul\":7935:8300   */\n    tag_156:\n        /* \"#utility.yul\":8077:8080   */\n      0x00\n        /* \"#utility.yul\":8098:8164   */\n      tag_271\n        /* \"#utility.yul\":8162:8163   */\n      0x06\n        /* \"#utility.yul\":8157:8160   */\n      dup4\n        /* \"#utility.yul\":8098:8164   */\n      tag_150\n      jump\t// in\n    tag_271:\n        /* \"#utility.yul\":8091:8164   */\n      swap2\n      pop\n        /* \"#utility.yul\":8173:8266   */\n      tag_272\n        /* \"#utility.yul\":8262:8265   */\n      dup3\n        /* \"#utility.yul\":8173:8266   */\n      tag_155\n      jump\t// in\n    tag_272:\n        /* \"#utility.yul\":8291:8293   */\n      0x20\n        /* \"#utility.yul\":8286:8289   */\n      dup3\n        /* \"#utility.yul\":8282:8294   */\n      add\n        /* \"#utility.yul\":8275:8294   */\n      swap1\n      pop\n        /* \"#utility.yul\":7935:8300   */\n      swap2\n      swap1\n      pop\n      jump\t// out\n        /* \"#utility.yul\":8306:8725   */\n    tag_77:\n        /* \"#utility.yul\":8472:8476   */\n      0x00\n        /* \"#utility.yul\":8510:8512   */\n      0x20\n        /* \"#utility.yul\":8499:8508   */\n      dup3\n        /* \"#utility.yul\":8495:8513   */\n      add\n        /* \"#utility.yul\":8487:8513   */\n      swap1\n      pop\n        /* \"#utility.yul\":8559:8568   */\n      dup2\n        /* \"#utility.yul\":8553:8557   */\n      dup2\n        /* \"#utility.yul\":8549:8569   */\n      sub\n        /* \"#utility.yul\":8545:8546   */\n      0x00\n        /* \"#utility.yul\":8534:8543   */\n      dup4\n        /* \"#utility.yul\":8530:8547   */\n      add\n        /* \"#utility.yul\":8523:8570   */\n      mstore\n        /* \"#utility.yul\":8587:8718   */\n      tag_274\n        /* \"#utility.yul\":8713:8717   */\n      dup2\n        /* \"#utility.yul\":8587:8718   */\n      tag_156\n      jump\t// in\n    tag_274:\n        /* \"#utility.yul\":8579:8718   */\n      swap1\n      pop\n        /* \"#utility.yul\":8306:8725   */\n      swap2\n      swap1\n      pop\n      jump\t// out\n        /* \"#utility.yul\":8731:8902   */\n    tag_157:\n        /* \"#utility.yul\":8871:8894   */\n      0x596f75207265616368656420746865206c696d69740000000000000000000000\n        /* \"#utility.yul\":8867:8868   */\n      0x00\n        /* \"#utility.yul\":8859:8865   */\n      dup3\n        /* \"#utility.yul\":8855:8869   */\n      add\n        /* \"#utility.yul\":8848:8895   */\n      mstore\n        /* \"#utility.yul\":8731:8902   */\n      pop\n      jump\t// out\n        /* \"#utility.yul\":8908:9274   */\n    tag_158:\n        /* \"#utility.yul\":9050:9053   */\n      0x00\n        /* \"#utility.yul\":9071:9138   */\n      tag_277\n        /* \"#utility.yul\":9135:9137   */\n      0x15\n        /* \"#utility.yul\":9130:9133   */\n      dup4\n        /* \"#utility.yul\":9071:9138   */\n      tag_150\n      jump\t// in\n    tag_277:\n        /* \"#utility.yul\":9064:9138   */\n      swap2\n      pop\n        /* \"#utility.yul\":9147:9240   */\n      tag_278\n        /* \"#utility.yul\":9236:9239   */\n      dup3\n        /* \"#utility.yul\":9147:9240   */\n      tag_157\n      jump\t// in\n    tag_278:\n        /* \"#utility.yul\":9265:9267   */\n      0x20\n        /* \"#utility.yul\":9260:9263   */\n      dup3\n        /* \"#utility.yul\":9256:9268   */\n      add\n        /* \"#utility.yul\":9249:9268   */\n      swap1\n      pop\n        /* \"#utility.yul\":8908:9274   */\n      swap2\n      swap1\n      pop\n      jump\t// out\n        /* \"#utility.yul\":9280:9699   */\n    tag_81:\n        /* \"#utility.yul\":9446:9450   */\n      0x00\n        /* \"#utility.yul\":9484:9486   */\n      0x20\n        /* \"#utility.yul\":9473:9482   */\n      dup3\n        /* \"#utility.yul\":9469:9487   */\n      add\n        /* \"#utility.yul\":9461:9487   */\n      swap1\n      pop\n        /* \"#utility.yul\":9533:9542   */\n      dup2\n        /* \"#utility.yul\":9527:9531   */\n      dup2\n        /* \"#utility.yul\":9523:9543   */\n      sub\n        /* \"#utility.yul\":9519:9520   */\n      0x00\n        /* \"#utility.yul\":9508:9517   */\n      dup4\n        /* \"#utility.yul\":9504:9521   */\n      add\n        /* \"#utility.yul\":9497:9544   */\n      mstore\n        /* \"#utility.yul\":9561:9692   */\n      tag_280\n        /* \"#utility.yul\":9687:9691   */\n      dup2\n        /* \"#utility.yul\":9561:9692   */\n      tag_158\n      jump\t// in\n    tag_280:\n        /* \"#utility.yul\":9553:9692   */\n      swap1\n      pop\n        /* \"#utility.yul\":9280:9699   */\n      swap2\n      swap1\n      pop\n      jump\t// out\n        /* \"#utility.yul\":9705:9885   */\n    tag_159:\n        /* \"#utility.yul\":9753:9830   */\n      0x4e487b7100000000000000000000000000000000000000000000000000000000\n        /* \"#utility.yul\":9750:9751   */\n      0x00\n        /* \"#utility.yul\":9743:9831   */\n      mstore\n        /* \"#utility.yul\":9850:9854   */\n      0x11\n        /* \"#utility.yul\":9847:9848   */\n      0x04\n        /* \"#utility.yul\":9840:9855   */\n      mstore\n        /* \"#utility.yul\":9874:9878   */\n      0x24\n        /* \"#utility.yul\":9871:9872   */\n      0x00\n        /* \"#utility.yul\":9864:9879   */\n      revert\n        /* \"#utility.yul\":9891:10196   */\n    tag_83:\n        /* \"#utility.yul\":9931:9934   */\n      0x00\n        /* \"#utility.yul\":9950:9970   */\n      tag_283\n        /* \"#utility.yul\":9968:9969   */\n      dup3\n        /* \"#utility.yul\":9950:9970   */\n      tag_129\n      jump\t// in\n    tag_283:\n        /* \"#utility.yul\":9945:9970   */\n      swap2\n      pop\n        /* \"#utility.yul\":9984:10004   */\n      tag_284\n        /* \"#utility.yul\":10002:10003   */\n      dup4\n        /* \"#utility.yul\":9984:10004   */\n      tag_129\n      jump\t// in\n    tag_284:\n        /* \"#utility.yul\":9979:10004   */\n      swap3\n      pop\n        /* \"#utility.yul\":10138:10139   */\n      dup3\n        /* \"#utility.yul\":10070:10136   */\n      0xffffffffffffffffffffffffffffffffffffffffffffffffffffffffffffffff\n        /* \"#utility.yul\":10066:10140   */\n      sub\n        /* \"#utility.yul\":10063:10064   */\n      dup3\n        /* \"#utility.yul\":10060:10141   */\n      gt\n        /* \"#utility.yul\":10057:10164   */\n      iszero\n      tag_285\n      jumpi\n        /* \"#utility.yul\":10144:10162   */\n      tag_286\n      tag_159\n      jump\t// in\n    tag_286:\n        /* \"#utility.yul\":10057:10164   */\n    tag_285:\n        /* \"#utility.yul\":10188:10189   */\n      dup3\n        /* \"#utility.yul\":10185:10186   */\n      dup3\n        /* \"#utility.yul\":10181:10190   */\n      add\n        /* \"#utility.yul\":10174:10190   */\n      swap1\n      pop\n        /* \"#utility.yul\":9891:10196   */\n      swap3\n      swap2\n      pop\n      pop\n      jump\t// out\n        /* \"#utility.yul\":10202:10363   */\n    tag_160:\n        /* \"#utility.yul\":10342:10355   */\n      0x54696d6520706173736564000000000000000000000000000000000000000000\n        /* \"#utility.yul\":10338:10339   */\n      0x00\n        /* \"#utility.yul\":10330:10336   */\n      dup3\n        /* \"#utility.yul\":10326:10340   */\n      add\n        /* \"#utility.yul\":10319:10356   */\n      mstore\n        /* \"#utility.yul\":10202:10363   */\n      pop\n      jump\t// out\n        /* \"#utility.yul\":10369:10735   */\n    tag_161:\n        /* \"#utility.yul\":10511:10514   */\n      0x00\n        /* \"#utility.yul\":10532:10599   */\n      tag_289\n        /* \"#utility.yul\":10596:10598   */\n      0x0b\n        /* \"#utility.yul\":10591:10594   */\n      dup4\n        /* \"#utility.yul\":10532:10599   */\n      tag_150\n      jump\t// in\n    tag_289:\n        /* \"#utility.yul\":10525:10599   */\n      swap2\n      pop\n        /* \"#utility.yul\":10608:10701   */\n      tag_290\n        /* \"#utility.yul\":10697:10700   */\n      dup3\n        /* \"#utility.yul\":10608:10701   */\n      tag_160\n      jump\t// in\n    tag_290:\n        /* \"#utility.yul\":10726:10728   */\n      0x20\n        /* \"#utility.yul\":10721:10724   */\n      dup3\n        /* \"#utility.yul\":10717:10729   */\n      add\n        /* \"#utility.yul\":10710:10729   */\n      swap1\n      pop\n        /* \"#utility.yul\":10369:10735   */\n      swap2\n      swap1\n      pop\n      jump\t// out\n        /* \"#utility.yul\":10741:11160   */\n    tag_86:\n        /* \"#utility.yul\":10907:10911   */\n      0x00\n        /* \"#utility.yul\":10945:10947   */\n      0x20\n        /* \"#utility.yul\":10934:10943   */\n      dup3\n        /* \"#utility.yul\":10930:10948   */\n      add\n        /* \"#utility.yul\":10922:10948   */\n      swap1\n      pop\n        /* \"#utility.yul\":10994:11003   */\n      dup2\n        /* \"#utility.yul\":10988:10992   */\n      dup2\n        /* \"#utility.yul\":10984:11004   */\n      sub\n        /* \"#utility.yul\":10980:10981   */\n      0x00\n        /* \"#utility.yul\":10969:10978   */\n      dup4\n        /* \"#utility.yul\":10965:10982   */\n      add\n        /* \"#utility.yul\":10958:11005   */\n      mstore\n        /* \"#utility.yul\":11022:11153   */\n      tag_292\n        /* \"#utility.yul\":11148:11152   */\n      dup2\n        /* \"#utility.yul\":11022:11153   */\n      tag_161\n      jump\t// in\n    tag_292:\n        /* \"#utility.yul\":11014:11153   */\n      swap1\n      pop\n        /* \"#utility.yul\":10741:11160   */\n      swap2\n      swap1\n      pop\n      jump\t// out\n        /* \"#utility.yul\":11166:11357   */\n    tag_92:\n        /* \"#utility.yul\":11206:11210   */\n      0x00\n        /* \"#utility.yul\":11226:11246   */\n      tag_294\n        /* \"#utility.yul\":11244:11245   */\n      dup3\n        /* \"#utility.yul\":11226:11246   */\n      tag_129\n      jump\t// in\n    tag_294:\n        /* \"#utility.yul\":11221:11246   */\n      swap2\n      pop\n        /* \"#utility.yul\":11260:11280   */\n      tag_295\n        /* \"#utility.yul\":11278:11279   */\n      dup4\n        /* \"#utility.yul\":11260:11280   */\n      tag_129\n      jump\t// in\n    tag_295:\n        /* \"#utility.yul\":11255:11280   */\n      swap3\n      pop\n        /* \"#utility.yul\":11299:11300   */\n      dup3\n        /* \"#utility.yul\":11296:11297   */\n      dup3\n        /* \"#utility.yul\":11293:11301   */\n      lt\n        /* \"#utility.yul\":11290:11324   */\n      iszero\n      tag_296\n      jumpi\n        /* \"#utility.yul\":11304:11322   */\n      tag_297\n      tag_159\n      jump\t// in\n    tag_297:\n        /* \"#utility.yul\":11290:11324   */\n    tag_296:\n        /* \"#utility.yul\":11349:11350   */\n      dup3\n        /* \"#utility.yul\":11346:11347   */\n      dup3\n        /* \"#utility.yul\":11342:11351   */\n      sub\n        /* \"#utility.yul\":11334:11351   */\n      swap1\n      pop\n        /* \"#utility.yul\":11166:11357   */\n      swap3\n      swap2\n      pop\n      pop\n      jump\t// out\n        /* \"#utility.yul\":11363:11543   */\n    tag_162:\n        /* \"#utility.yul\":11411:11488   */\n      0x4e487b7100000000000000000000000000000000000000000000000000000000\n        /* \"#utility.yul\":11408:11409   */\n      0x00\n        /* \"#utility.yul\":11401:11489   */\n      mstore\n        /* \"#utility.yul\":11508:11512   */\n      0x22\n        /* \"#utility.yul\":11505:11506   */\n      0x04\n        /* \"#utility.yul\":11498:11513   */\n      mstore\n        /* \"#utility.yul\":11532:11536   */\n      0x24\n        /* \"#utility.yul\":11529:11530   */\n      0x00\n        /* \"#utility.yul\":11522:11537   */\n      revert\n        /* \"#utility.yul\":11549:11869   */\n    tag_101:\n        /* \"#utility.yul\":11593:11599   */\n      0x00\n        /* \"#utility.yul\":11630:11631   */\n      0x02\n        /* \"#utility.yul\":11624:11628   */\n      dup3\n        /* \"#utility.yul\":11620:11632   */\n      div\n        /* \"#utility.yul\":11610:11632   */\n      swap1\n      pop\n        /* \"#utility.yul\":11677:11678   */\n      0x01\n        /* \"#utility.yul\":11671:11675   */\n      dup3\n        /* \"#utility.yul\":11667:11679   */\n      and\n        /* \"#utility.yul\":11698:11716   */\n      dup1\n        /* \"#utility.yul\":11688:11769   */\n      tag_300\n      jumpi\n        /* \"#utility.yul\":11754:11758   */\n      0x7f\n        /* \"#utility.yul\":11746:11752   */\n      dup3\n        /* \"#utility.yul\":11742:11759   */\n      and\n        /* \"#utility.yul\":11732:11759   */\n      swap2\n      pop\n        /* \"#utility.yul\":11688:11769   */\n    tag_300:\n        /* \"#utility.yul\":11816:11818   */\n      0x20\n        /* \"#utility.yul\":11808:11814   */\n      dup3\n        /* \"#utility.yul\":11805:11819   */\n      lt\n        /* \"#utility.yul\":11785:11803   */\n      dup2\n        /* \"#utility.yul\":11782:11820   */\n      sub\n        /* \"#utility.yul\":11779:11863   */\n      tag_301\n      jumpi\n        /* \"#utility.yul\":11835:11853   */\n      tag_302\n      tag_162\n      jump\t// in\n    tag_302:\n        /* \"#utility.yul\":11779:11863   */\n    tag_301:\n        /* \"#utility.yul\":11600:11869   */\n      pop\n        /* \"#utility.yul\":11549:11869   */\n      swap2\n      swap1\n      pop\n      jump\t// out\n        /* \"#utility.yul\":11875:12016   */\n    tag_163:\n        /* \"#utility.yul\":11924:11928   */\n      0x00\n        /* \"#utility.yul\":11947:11950   */\n      dup2\n        /* \"#utility.yul\":11939:11950   */\n      swap1\n      pop\n        /* \"#utility.yul\":11970:11973   */\n      dup2\n        /* \"#utility.yul\":11967:11968   */\n      0x00\n        /* \"#utility.yul\":11960:11974   */\n      mstore\n        /* \"#utility.yul\":12004:12008   */\n      0x20\n        /* \"#utility.yul\":12001:12002   */\n      0x00\n        /* \"#utility.yul\":11991:12009   */\n      keccak256\n        /* \"#utility.yul\":11983:12009   */\n      swap1\n      pop\n        /* \"#utility.yul\":11875:12016   */\n      swap2\n      swap1\n      pop\n      jump\t// out\n        /* \"#utility.yul\":12022:12115   */\n    tag_164:\n        /* \"#utility.yul\":12059:12065   */\n      0x00\n        /* \"#utility.yul\":12106:12108   */\n      0x20\n        /* \"#utility.yul\":12101:12103   */\n      0x1f\n        /* \"#utility.yul\":12094:12099   */\n      dup4\n        /* \"#utility.yul\":12090:12104   */\n      add\n        /* \"#utility.yul\":12086:12109   */\n      div\n        /* \"#utility.yul\":12076:12109   */\n      swap1\n      pop\n        /* \"#utility.yul\":12022:12115   */\n      swap2\n      swap1\n      pop\n      jump\t// out\n        /* \"#utility.yul\":12121:12228   */\n    tag_165:\n        /* \"#utility.yul\":12165:12173   */\n      0x00\n        /* \"#utility.yul\":12215:12220   */\n      dup3\n        /* \"#utility.yul\":12209:12213   */\n      dup3\n        /* \"#utility.yul\":12205:12221   */\n      shl\n        /* \"#utility.yul\":12184:12221   */\n      swap1\n      pop\n        /* \"#utility.yul\":12121:12228   */\n      swap3\n      swap2\n      pop\n      pop\n      jump\t// out\n        /* \"#utility.yul\":12234:12627   */\n    tag_166:\n        /* \"#utility.yul\":12303:12309   */\n      0x00\n        /* \"#utility.yul\":12353:12354   */\n      0x08\n        /* \"#utility.yul\":12341:12351   */\n      dup4\n        /* \"#utility.yul\":12337:12355   */\n      mul\n        /* \"#utility.yul\":12376:12473   */\n      tag_307\n        /* \"#utility.yul\":12406:12472   */\n      0xffffffffffffffffffffffffffffffffffffffffffffffffffffffffffffffff\n        /* \"#utility.yul\":12395:12404   */\n      dup3\n        /* \"#utility.yul\":12376:12473   */\n      tag_165\n      jump\t// in\n    tag_307:\n        /* \"#utility.yul\":12494:12533   */\n      tag_308\n        /* \"#utility.yul\":12524:12532   */\n      dup7\n        /* \"#utility.yul\":12513:12522   */\n      dup4\n        /* \"#utility.yul\":12494:12533   */\n      tag_165\n      jump\t// in\n    tag_308:\n        /* \"#utility.yul\":12482:12533   */\n      swap6\n      pop\n        /* \"#utility.yul\":12566:12570   */\n      dup1\n        /* \"#utility.yul\":12562:12571   */\n      not\n        /* \"#utility.yul\":12555:12560   */\n      dup5\n        /* \"#utility.yul\":12551:12572   */\n      and\n        /* \"#utility.yul\":12542:12572   */\n      swap4\n      pop\n        /* \"#utility.yul\":12615:12619   */\n      dup1\n        /* \"#utility.yul\":12605:12613   */\n      dup7\n        /* \"#utility.yul\":12601:12620   */\n      and\n        /* \"#utility.yul\":12594:12599   */\n      dup5\n        /* \"#utility.yul\":12591:12621   */\n      or\n        /* \"#utility.yul\":12581:12621   */\n      swap3\n      pop\n        /* \"#utility.yul\":12310:12627   */\n      pop\n      pop\n        /* \"#utility.yul\":12234:12627   */\n      swap4\n      swap3\n      pop\n      pop\n      pop\n      jump\t// out\n        /* \"#utility.yul\":12633:12693   */\n    tag_167:\n        /* \"#utility.yul\":12661:12664   */\n      0x00\n        /* \"#utility.yul\":12682:12687   */\n      dup2\n        /* \"#utility.yul\":12675:12687   */\n      swap1\n      pop\n        /* \"#utility.yul\":12633:12693   */\n      swap2\n      swap1\n      pop\n      jump\t// out\n        /* \"#utility.yul\":12699:12841   */\n    tag_168:\n        /* \"#utility.yul\":12749:12758   */\n      0x00\n        /* \"#utility.yul\":12782:12835   */\n      tag_311\n        /* \"#utility.yul\":12800:12834   */\n      tag_312\n        /* \"#utility.yul\":12809:12833   */\n      tag_313\n        /* \"#utility.yul\":12827:12832   */\n      dup5\n        /* \"#utility.yul\":12809:12833   */\n      tag_129\n      jump\t// in\n    tag_313:\n        /* \"#utility.yul\":12800:12834   */\n      tag_167\n      jump\t// in\n    tag_312:\n        /* \"#utility.yul\":12782:12835   */\n      tag_129\n      jump\t// in\n    tag_311:\n        /* \"#utility.yul\":12769:12835   */\n      swap1\n      pop\n        /* \"#utility.yul\":12699:12841   */\n      swap2\n      swap1\n      pop\n      jump\t// out\n        /* \"#utility.yul\":12847:12922   */\n    tag_169:\n        /* \"#utility.yul\":12890:12893   */\n      0x00\n        /* \"#utility.yul\":12911:12916   */\n      dup2\n        /* \"#utility.yul\":12904:12916   */\n      swap1\n      pop\n        /* \"#utility.yul\":12847:12922   */\n      swap2\n      swap1\n      pop\n      jump\t// out\n        /* \"#utility.yul\":12928:13197   */\n    tag_170:\n        /* \"#utility.yul\":13038:13077   */\n      tag_316\n        /* \"#utility.yul\":13069:13076   */\n      dup4\n        /* \"#utility.yul\":13038:13077   */\n      tag_168\n      jump\t// in\n    tag_316:\n        /* \"#utility.yul\":13099:13190   */\n      tag_317\n        /* \"#utility.yul\":13148:13189   */\n      tag_318\n        /* \"#utility.yul\":13172:13188   */\n      dup3\n        /* \"#utility.yul\":13148:13189   */\n      tag_169\n      jump\t// in\n    tag_318:\n        /* \"#utility.yul\":13140:13146   */\n      dup5\n        /* \"#utility.yul\":13133:13137   */\n      dup5\n        /* \"#utility.yul\":13127:13138   */\n      sload\n        /* \"#utility.yul\":13099:13190   */\n      tag_166\n      jump\t// in\n    tag_317:\n        /* \"#utility.yul\":13093:13097   */\n      dup3\n        /* \"#utility.yul\":13086:13191   */\n      sstore\n        /* \"#utility.yul\":13004:13197   */\n      pop\n        /* \"#utility.yul\":12928:13197   */\n      pop\n      pop\n      pop\n      jump\t// out\n        /* \"#utility.yul\":13203:13276   */\n    tag_171:\n        /* \"#utility.yul\":13248:13251   */\n      0x00\n        /* \"#utility.yul\":13203:13276   */\n      swap1\n      jump\t// out\n        /* \"#utility.yul\":13282:13471   */\n    tag_172:\n        /* \"#utility.yul\":13359:13391   */\n      tag_321\n      tag_171\n      jump\t// in\n    tag_321:\n        /* \"#utility.yul\":13400:13465   */\n      tag_322\n        /* \"#utility.yul\":13458:13464   */\n      dup2\n        /* \"#utility.yul\":13450:13456   */\n      dup5\n        /* \"#utility.yul\":13444:13448   */\n      dup5\n        /* \"#utility.yul\":13400:13465   */\n      tag_170\n      jump\t// in\n    tag_322:\n        /* \"#utility.yul\":13335:13471   */\n      pop\n        /* \"#utility.yul\":13282:13471   */\n      pop\n      pop\n      jump\t// out\n        /* \"#utility.yul\":13477:13663   */\n    tag_173:\n        /* \"#utility.yul\":13537:13657   */\n    tag_324:\n        /* \"#utility.yul\":13554:13557   */\n      dup2\n        /* \"#utility.yul\":13547:13552   */\n      dup2\n        /* \"#utility.yul\":13544:13558   */\n      lt\n        /* \"#utility.yul\":13537:13657   */\n      iszero\n      tag_326\n      jumpi\n        /* \"#utility.yul\":13608:13647   */\n      tag_327\n        /* \"#utility.yul\":13645:13646   */\n      0x00\n        /* \"#utility.yul\":13638:13643   */\n      dup3\n        /* \"#utility.yul\":13608:13647   */\n      tag_172\n      jump\t// in\n    tag_327:\n        /* \"#utility.yul\":13581:13582   */\n      0x01\n        /* \"#utility.yul\":13574:13579   */\n      dup2\n        /* \"#utility.yul\":13570:13583   */\n      add\n        /* \"#utility.yul\":13561:13583   */\n      swap1\n      pop\n        /* \"#utility.yul\":13537:13657   */\n      jump(tag_324)\n    tag_326:\n        /* \"#utility.yul\":13477:13663   */\n      pop\n      pop\n      jump\t// out\n        /* \"#utility.yul\":13669:14212   */\n    tag_174:\n        /* \"#utility.yul\":13770:13772   */\n      0x1f\n        /* \"#utility.yul\":13765:13768   */\n      dup3\n        /* \"#utility.yul\":13762:13773   */\n      gt\n        /* \"#utility.yul\":13759:14205   */\n      iszero\n      tag_329\n      jumpi\n        /* \"#utility.yul\":13804:13842   */\n      tag_330\n        /* \"#utility.yul\":13836:13841   */\n      dup2\n        /* \"#utility.yul\":13804:13842   */\n      tag_163\n      jump\t// in\n    tag_330:\n        /* \"#utility.yul\":13888:13917   */\n      tag_331\n        /* \"#utility.yul\":13906:13916   */\n      dup5\n        /* \"#utility.yul\":13888:13917   */\n      tag_164\n      jump\t// in\n    tag_331:\n        /* \"#utility.yul\":13878:13886   */\n      dup2\n        /* \"#utility.yul\":13874:13918   */\n      add\n        /* \"#utility.yul\":14071:14073   */\n      0x20\n        /* \"#utility.yul\":14059:14069   */\n      dup6\n        /* \"#utility.yul\":14056:14074   */\n      lt\n        /* \"#utility.yul\":14053:14102   */\n      iszero\n      tag_332\n      jumpi\n        /* \"#utility.yul\":14092:14100   */\n      dup2\n        /* \"#utility.yul\":14077:14100   */\n      swap1\n      pop\n        /* \"#utility.yul\":14053:14102   */\n    tag_332:\n        /* \"#utility.yul\":14115:14195   */\n      tag_333\n        /* \"#utility.yul\":14171:14193   */\n      tag_334\n        /* \"#utility.yul\":14189:14192   */\n      dup6\n        /* \"#utility.yul\":14171:14193   */\n      tag_164\n      jump\t// in\n    tag_334:\n        /* \"#utility.yul\":14161:14169   */\n      dup4\n        /* \"#utility.yul\":14157:14194   */\n      add\n        /* \"#utility.yul\":14144:14155   */\n      dup3\n        /* \"#utility.yul\":14115:14195   */\n      tag_173\n      jump\t// in\n    tag_333:\n        /* \"#utility.yul\":13774:14205   */\n      pop\n      pop\n        /* \"#utility.yul\":13759:14205   */\n    tag_329:\n        /* \"#utility.yul\":13669:14212   */\n      pop\n      pop\n      pop\n      jump\t// out\n        /* \"#utility.yul\":14218:14335   */\n    tag_175:\n        /* \"#utility.yul\":14272:14280   */\n      0x00\n        /* \"#utility.yul\":14322:14327   */\n      dup3\n        /* \"#utility.yul\":14316:14320   */\n      dup3\n        /* \"#utility.yul\":14312:14328   */\n      shr\n        /* \"#utility.yul\":14291:14328   */\n      swap1\n      pop\n        /* \"#utility.yul\":14218:14335   */\n      swap3\n      swap2\n      pop\n      pop\n      jump\t// out\n        /* \"#utility.yul\":14341:14510   */\n    tag_176:\n        /* \"#utility.yul\":14385:14391   */\n      0x00\n        /* \"#utility.yul\":14418:14469   */\n      tag_337\n        /* \"#utility.yul\":14466:14467   */\n      0x00\n        /* \"#utility.yul\":14462:14468   */\n      not\n        /* \"#utility.yul\":14454:14459   */\n      dup5\n        /* \"#utility.yul\":14451:14452   */\n      0x08\n        /* \"#utility.yul\":14447:14460   */\n      mul\n        /* \"#utility.yul\":14418:14469   */\n      tag_175\n      jump\t// in\n    tag_337:\n        /* \"#utility.yul\":14414:14470   */\n      not\n        /* \"#utility.yul\":14499:14503   */\n      dup1\n        /* \"#utility.yul\":14493:14497   */\n      dup4\n        /* \"#utility.yul\":14489:14504   */\n      and\n        /* \"#utility.yul\":14479:14504   */\n      swap2\n      pop\n        /* \"#utility.yul\":14392:14510   */\n      pop\n        /* \"#utility.yul\":14341:14510   */\n      swap3\n      swap2\n      pop\n      pop\n      jump\t// out\n        /* \"#utility.yul\":14515:14810   */\n    tag_177:\n        /* \"#utility.yul\":14591:14595   */\n      0x00\n        /* \"#utility.yul\":14737:14766   */\n      tag_339\n        /* \"#utility.yul\":14762:14765   */\n      dup4\n        /* \"#utility.yul\":14756:14760   */\n      dup4\n        /* \"#utility.yul\":14737:14766   */\n      tag_176\n      jump\t// in\n    tag_339:\n        /* \"#utility.yul\":14729:14766   */\n      swap2\n      pop\n        /* \"#utility.yul\":14799:14802   */\n      dup3\n        /* \"#utility.yul\":14796:14797   */\n      0x02\n        /* \"#utility.yul\":14792:14803   */\n      mul\n        /* \"#utility.yul\":14786:14790   */\n      dup3\n        /* \"#utility.yul\":14783:14804   */\n      or\n        /* \"#utility.yul\":14775:14804   */\n      swap1\n      pop\n        /* \"#utility.yul\":14515:14810   */\n      swap3\n      swap2\n      pop\n      pop\n      jump\t// out\n        /* \"#utility.yul\":14815:16210   */\n    tag_95:\n        /* \"#utility.yul\":14932:14969   */\n      tag_341\n        /* \"#utility.yul\":14965:14968   */\n      dup3\n        /* \"#utility.yul\":14932:14969   */\n      tag_149\n      jump\t// in\n    tag_341:\n        /* \"#utility.yul\":15034:15052   */\n      0xffffffffffffffff\n        /* \"#utility.yul\":15026:15032   */\n      dup2\n        /* \"#utility.yul\":15023:15053   */\n      gt\n        /* \"#utility.yul\":15020:15076   */\n      iszero\n      tag_342\n      jumpi\n        /* \"#utility.yul\":15056:15074   */\n      tag_343\n      tag_140\n      jump\t// in\n    tag_343:\n        /* \"#utility.yul\":15020:15076   */\n    tag_342:\n        /* \"#utility.yul\":15100:15138   */\n      tag_344\n        /* \"#utility.yul\":15132:15136   */\n      dup3\n        /* \"#utility.yul\":15126:15137   */\n      sload\n        /* \"#utility.yul\":15100:15138   */\n      tag_101\n      jump\t// in\n    tag_344:\n        /* \"#utility.yul\":15185:15252   */\n      tag_345\n        /* \"#utility.yul\":15245:15251   */\n      dup3\n        /* \"#utility.yul\":15237:15243   */\n      dup3\n        /* \"#utility.yul\":15231:15235   */\n      dup6\n        /* \"#utility.yul\":15185:15252   */\n      tag_174\n      jump\t// in\n    tag_345:\n        /* \"#utility.yul\":15279:15280   */\n      0x00\n        /* \"#utility.yul\":15303:15307   */\n      0x20\n        /* \"#utility.yul\":15290:15307   */\n      swap1\n      pop\n        /* \"#utility.yul\":15335:15337   */\n      0x1f\n        /* \"#utility.yul\":15327:15333   */\n      dup4\n        /* \"#utility.yul\":15324:15338   */\n      gt\n        /* \"#utility.yul\":15352:15353   */\n      0x01\n        /* \"#utility.yul\":15347:15965   */\n      dup2\n      eq\n      tag_347\n      jumpi\n        /* \"#utility.yul\":16009:16010   */\n      0x00\n        /* \"#utility.yul\":16026:16032   */\n      dup5\n        /* \"#utility.yul\":16023:16100   */\n      iszero\n      tag_348\n      jumpi\n        /* \"#utility.yul\":16075:16084   */\n      dup3\n        /* \"#utility.yul\":16070:16073   */\n      dup8\n        /* \"#utility.yul\":16066:16085   */\n      add\n        /* \"#utility.yul\":16060:16086   */\n      mload\n        /* \"#utility.yul\":16051:16086   */\n      swap1\n      pop\n        /* \"#utility.yul\":16023:16100   */\n    tag_348:\n        /* \"#utility.yul\":16126:16193   */\n      tag_349\n        /* \"#utility.yul\":16186:16192   */\n      dup6\n        /* \"#utility.yul\":16179:16184   */\n      dup3\n        /* \"#utility.yul\":16126:16193   */\n      tag_177\n      jump\t// in\n    tag_349:\n        /* \"#utility.yul\":16120:16124   */\n      dup7\n        /* \"#utility.yul\":16113:16194   */\n      sstore\n        /* \"#utility.yul\":15982:16204   */\n      pop\n        /* \"#utility.yul\":15317:16204   */\n      jump(tag_346)\n        /* \"#utility.yul\":15347:15965   */\n    tag_347:\n        /* \"#utility.yul\":15399:15403   */\n      0x1f\n        /* \"#utility.yul\":15395:15404   */\n      not\n        /* \"#utility.yul\":15387:15393   */\n      dup5\n        /* \"#utility.yul\":15383:15405   */\n      and\n        /* \"#utility.yul\":15433:15470   */\n      tag_350\n        /* \"#utility.yul\":15465:15469   */\n      dup7\n        /* \"#utility.yul\":15433:15470   */\n      tag_163\n      jump\t// in\n    tag_350:\n        /* \"#utility.yul\":15492:15493   */\n      0x00\n        /* \"#utility.yul\":15506:15714   */\n    tag_351:\n        /* \"#utility.yul\":15520:15527   */\n      dup3\n        /* \"#utility.yul\":15517:15518   */\n      dup2\n        /* \"#utility.yul\":15514:15528   */\n      lt\n        /* \"#utility.yul\":15506:15714   */\n      iszero\n      tag_353\n      jumpi\n        /* \"#utility.yul\":15599:15608   */\n      dup5\n        /* \"#utility.yul\":15594:15597   */\n      dup10\n        /* \"#utility.yul\":15590:15609   */\n      add\n        /* \"#utility.yul\":15584:15610   */\n      mload\n        /* \"#utility.yul\":15576:15582   */\n      dup3\n        /* \"#utility.yul\":15569:15611   */\n      sstore\n        /* \"#utility.yul\":15650:15651   */\n      0x01\n        /* \"#utility.yul\":15642:15648   */\n      dup3\n        /* \"#utility.yul\":15638:15652   */\n      add\n        /* \"#utility.yul\":15628:15652   */\n      swap2\n      pop\n        /* \"#utility.yul\":15697:15699   */\n      0x20\n        /* \"#utility.yul\":15686:15695   */\n      dup6\n        /* \"#utility.yul\":15682:15700   */\n      add\n        /* \"#utility.yul\":15669:15700   */\n      swap5\n      pop\n        /* \"#utility.yul\":15543:15547   */\n      0x20\n        /* \"#utility.yul\":15540:15541   */\n      dup2\n        /* \"#utility.yul\":15536:15548   */\n      add\n        /* \"#utility.yul\":15531:15548   */\n      swap1\n      pop\n        /* \"#utility.yul\":15506:15714   */\n      jump(tag_351)\n    tag_353:\n        /* \"#utility.yul\":15742:15748   */\n      dup7\n        /* \"#utility.yul\":15733:15740   */\n      dup4\n        /* \"#utility.yul\":15730:15749   */\n      lt\n        /* \"#utility.yul\":15727:15906   */\n      iszero\n      tag_354\n      jumpi\n        /* \"#utility.yul\":15800:15809   */\n      dup5\n        /* \"#utility.yul\":15795:15798   */\n      dup10\n        /* \"#utility.yul\":15791:15810   */\n      add\n        /* \"#utility.yul\":15785:15811   */\n      mload\n        /* \"#utility.yul\":15843:15891   */\n      tag_355\n        /* \"#utility.yul\":15885:15889   */\n      0x1f\n        /* \"#utility.yul\":15877:15883   */\n      dup10\n        /* \"#utility.yul\":15873:15890   */\n      and\n        /* \"#utility.yul\":15862:15871   */\n      dup3\n        /* \"#utility.yul\":15843:15891   */\n      tag_176\n      jump\t// in\n    tag_355:\n        /* \"#utility.yul\":15835:15841   */\n      dup4\n        /* \"#utility.yul\":15828:15892   */\n      sstore\n        /* \"#utility.yul\":15750:15906   */\n      pop\n        /* \"#utility.yul\":15727:15906   */\n    tag_354:\n        /* \"#utility.yul\":15952:15953   */\n      0x01\n        /* \"#utility.yul\":15948:15949   */\n      0x02\n        /* \"#utility.yul\":15940:15946   */\n      dup9\n        /* \"#utility.yul\":15936:15950   */\n      mul\n        /* \"#utility.yul\":15932:15954   */\n      add\n        /* \"#utility.yul\":15926:15930   */\n      dup9\n        /* \"#utility.yul\":15919:15955   */\n      sstore\n        /* \"#utility.yul\":15354:15965   */\n      pop\n      pop\n      pop\n        /* \"#utility.yul\":15317:16204   */\n    tag_346:\n      pop\n        /* \"#utility.yul\":14907:16210   */\n      pop\n      pop\n      pop\n        /* \"#utility.yul\":14815:16210   */\n      pop\n      pop\n      jump\t// out\n        /* \"#utility.yul\":16216:16382   */\n    tag_178:\n        /* \"#utility.yul\":16356:16374   */\n      0x4e6f7420656e6f7567682066756e647300000000000000000000000000000000\n        /* \"#utility.yul\":16352:16353   */\n      0x00\n        /* \"#utility.yul\":16344:16350   */\n      dup3\n        /* \"#utility.yul\":16340:16354   */\n      add\n        /* \"#utility.yul\":16333:16375   */\n      mstore\n        /* \"#utility.yul\":16216:16382   */\n      pop\n      jump\t// out\n        /* \"#utility.yul\":16388:16754   */\n    tag_179:\n        /* \"#utility.yul\":16530:16533   */\n      0x00\n        /* \"#utility.yul\":16551:16618   */\n      tag_358\n        /* \"#utility.yul\":16615:16617   */\n      0x10\n        /* \"#utility.yul\":16610:16613   */\n      dup4\n        /* \"#utility.yul\":16551:16618   */\n      tag_150\n      jump\t// in\n    tag_358:\n        /* \"#utility.yul\":16544:16618   */\n      swap2\n      pop\n        /* \"#utility.yul\":16627:16720   */\n      tag_359\n        /* \"#utility.yul\":16716:16719   */\n      dup3\n        /* \"#utility.yul\":16627:16720   */\n      tag_178\n      jump\t// in\n    tag_359:\n        /* \"#utility.yul\":16745:16747   */\n      0x20\n        /* \"#utility.yul\":16740:16743   */\n      dup3\n        /* \"#utility.yul\":16736:16748   */\n      add\n        /* \"#utility.yul\":16729:16748   */\n      swap1\n      pop\n        /* \"#utility.yul\":16388:16754   */\n      swap2\n      swap1\n      pop\n      jump\t// out\n        /* \"#utility.yul\":16760:17179   */\n    tag_98:\n        /* \"#utility.yul\":16926:16930   */\n      0x00\n        /* \"#utility.yul\":16964:16966   */\n      0x20\n        /* \"#utility.yul\":16953:16962   */\n      dup3\n        /* \"#utility.yul\":16949:16967   */\n      add\n        /* \"#utility.yul\":16941:16967   */\n      swap1\n      pop\n        /* \"#utility.yul\":17013:17022   */\n      dup2\n        /* \"#utility.yul\":17007:17011   */\n      dup2\n        /* \"#utility.yul\":17003:17023   */\n      sub\n        /* \"#utility.yul\":16999:17000   */\n      0x00\n        /* \"#utility.yul\":16988:16997   */\n      dup4\n        /* \"#utility.yul\":16984:17001   */\n      add\n        /* \"#utility.yul\":16977:17024   */\n      mstore\n        /* \"#utility.yul\":17041:17172   */\n      tag_361\n        /* \"#utility.yul\":17167:17171   */\n      dup2\n        /* \"#utility.yul\":17041:17172   */\n      tag_179\n      jump\t// in\n    tag_361:\n        /* \"#utility.yul\":17033:17172   */\n      swap1\n      pop\n        /* \"#utility.yul\":16760:17179   */\n      swap2\n      swap1\n      pop\n      jump\t// out\n        /* \"#utility.yul\":17185:17355   */\n    tag_180:\n        /* \"#utility.yul\":17325:17347   */\n      0x4e6f2076616c6964206372656469742063617264000000000000000000000000\n        /* \"#utility.yul\":17321:17322   */\n      0x00\n        /* \"#utility.yul\":17313:17319   */\n      dup3\n        /* \"#utility.yul\":17309:17323   */\n      add\n        /* \"#utility.yul\":17302:17348   */\n      mstore\n        /* \"#utility.yul\":17185:17355   */\n      pop\n      jump\t// out\n        /* \"#utility.yul\":17361:17727   */\n    tag_181:\n        /* \"#utility.yul\":17503:17506   */\n      0x00\n        /* \"#utility.yul\":17524:17591   */\n      tag_364\n        /* \"#utility.yul\":17588:17590   */\n      0x14\n        /* \"#utility.yul\":17583:17586   */\n      dup4\n        /* \"#utility.yul\":17524:17591   */\n      tag_150\n      jump\t// in\n    tag_364:\n        /* \"#utility.yul\":17517:17591   */\n      swap2\n      pop\n        /* \"#utility.yul\":17600:17693   */\n      tag_365\n        /* \"#utility.yul\":17689:17692   */\n      dup3\n        /* \"#utility.yul\":17600:17693   */\n      tag_180\n      jump\t// in\n    tag_365:\n        /* \"#utility.yul\":17718:17720   */\n      0x20\n        /* \"#utility.yul\":17713:17716   */\n      dup3\n        /* \"#utility.yul\":17709:17721   */\n      add\n        /* \"#utility.yul\":17702:17721   */\n      swap1\n      pop\n        /* \"#utility.yul\":17361:17727   */\n      swap2\n      swap1\n      pop\n      jump\t// out\n        /* \"#utility.yul\":17733:18152   */\n    tag_106:\n        /* \"#utility.yul\":17899:17903   */\n      0x00\n        /* \"#utility.yul\":17937:17939   */\n      0x20\n        /* \"#utility.yul\":17926:17935   */\n      dup3\n        /* \"#utility.yul\":17922:17940   */\n      add\n        /* \"#utility.yul\":17914:17940   */\n      swap1\n      pop\n        /* \"#utility.yul\":17986:17995   */\n      dup2\n        /* \"#utility.yul\":17980:17984   */\n      dup2\n        /* \"#utility.yul\":17976:17996   */\n      sub\n        /* \"#utility.yul\":17972:17973   */\n      0x00\n        /* \"#utility.yul\":17961:17970   */\n      dup4\n        /* \"#utility.yul\":17957:17974   */\n      add\n        /* \"#utility.yul\":17950:17997   */\n      mstore\n        /* \"#utility.yul\":18014:18145   */\n      tag_367\n        /* \"#utility.yul\":18140:18144   */\n      dup2\n        /* \"#utility.yul\":18014:18145   */\n      tag_181\n      jump\t// in\n    tag_367:\n        /* \"#utility.yul\":18006:18145   */\n      swap1\n      pop\n        /* \"#utility.yul\":17733:18152   */\n      swap2\n      swap1\n      pop\n      jump\t// out\n\n    auxdata: 0xa264697066735822122016657721c8355346848f41015d1d050ac5f46a74b8b77caf2cbac3af0303154764736f6c634300080f0033\n}\n",
				"bytecode": {
					"linkReferences": {},
					"object": "6080604052620151806003556000600f556000601060006101000a81548160ff0219169083151502179055503480156200003857600080fd5b50604051620013343803806200133483398181016040528101906200005e9190620000ac565b8060018190555050620000de565b600080fd5b6000819050919050565b620000868162000071565b81146200009257600080fd5b50565b600081519050620000a6816200007b565b92915050565b600060208284031215620000c557620000c46200006c565b5b6000620000d58482850162000095565b91505092915050565b61124680620000ee6000396000f3fe608060405234801561001057600080fd5b50600436106100f55760003560e01c80637b9a3f4c1161009757806394b5dcaa1161006657806394b5dcaa1461022c578063aa8c217c1461024a578063bc30949614610268578063e21f37ce14610286576100f5565b80637b9a3f4c146101c85780637eb9f571146101e65780638e029c0b146102045780638fa118641461020e576100f5565b806334f5ccde116100d357806334f5ccde146101505780633c626f001461016e57806342fb79361461018c5780634b28f9a2146101aa576100f5565b8063062a7544146100fa5780630e85fa721461011657806312a029a414610134575b600080fd5b610114600480360381019061010f91906108e9565b6102a4565b005b61011e610586565b60405161012b9190610938565b60405180910390f35b61014e60048036038101906101499190610a99565b61058c565b005b61015861063d565b6040516101659190610938565b60405180910390f35b610176610643565b6040516101839190610b2c565b60405180910390f35b610194610656565b6040516101a19190610bcf565b60405180910390f35b6101b26106e4565b6040516101bf9190610938565b60405180910390f35b6101d06106ea565b6040516101dd9190610938565b60405180910390f35b6101ee6106f0565b6040516101fb9190610938565b60405180910390f35b61020c6106f6565b005b610216610713565b6040516102239190610bcf565b60405180910390f35b6102346107a1565b6040516102419190610938565b60405180910390f35b6102526107a7565b60405161025f9190610938565b60405180910390f35b6102706107ad565b60405161027d9190610938565b60405180910390f35b61028e6107b3565b60405161029b9190610bcf565b60405180910390f35b8080600260006101000a81548173ffffffffffffffffffffffffffffffffffffffff021916908373ffffffffffffffffffffffffffffffffffffffff160217905550600073ffffffffffffffffffffffffffffffffffffffff168173ffffffffffffffffffffffffffffffffffffffff1603610355576040517f08c379a000000000000000000000000000000000000000000000000000000000815260040161034c90610c3d565b60405180910390fd5b60001515601060009054906101000a900460ff161515036103ab576040517f08c379a00000000000000000000000000000000000000000000000000000000081526004016103a290610ca9565b60405180910390fd5b6109c4600c5411156103f2576040517f08c379a00000000000000000000000000000000000000000000000000000000081526004016103e990610d15565b60405180910390fd5b42600d81905550601e600d546104089190610d64565b42111561044a576040517f08c379a000000000000000000000000000000000000000000000000000000000815260040161044190610e06565b60405180910390fd5b81600260006101000a81548173ffffffffffffffffffffffffffffffffffffffff021916908373ffffffffffffffffffffffffffffffffffffffff160217905550826000819055506001600f60008282546104a59190610d64565b9250508190555060006001541180156104c15750600054600154115b1561054657600054600160008282546104da9190610e26565b92505081905550600054600c60008282546104f59190610d64565b925050819055506040518060400160405280601281526020017f5472616e7366657220636f6d706c657465640000000000000000000000000000815250600990816105409190611066565b50610581565b6040517f08c379a000000000000000000000000000000000000000000000000000000000815260040161057890611184565b60405180910390fd5b505050565b600d5481565b6008600a805461059b90610e89565b90501480156105b857506003600b80546105b490610e89565b9050145b6105f7576040517f08c379a00000000000000000000000000000000000000000000000000000000081526004016105ee906111f0565b60405180910390fd5b81600a90816106069190611066565b5080600b90816106169190611066565b506001601060006101000a81548160ff02191690831515021790555042600d819055505050565b600e5481565b601060009054906101000a900460ff1681565b600b805461066390610e89565b80601f016020809104026020016040519081016040528092919081815260200182805461068f90610e89565b80156106dc5780601f106106b1576101008083540402835291602001916106dc565b820191906000526020600020905b8154815290600101906020018083116106bf57829003601f168201915b505050505081565b600f5481565b60015481565b600c5481565b6000601060006101000a81548160ff021916908315150217905550565b600a805461072090610e89565b80601f016020809104026020016040519081016040528092919081815260200182805461074c90610e89565b80156107995780601f1061076e57610100808354040283529160200191610799565b820191906000526020600020905b81548152906001019060200180831161077c57829003601f168201915b505050505081565b60045481565b60005481565b60085481565b600980546107c090610e89565b80601f01602080910402602001604051908101604052809291908181526020018280546107ec90610e89565b80156108395780601f1061080e57610100808354040283529160200191610839565b820191906000526020600020905b81548152906001019060200180831161081c57829003601f168201915b505050505081565b6000604051905090565b600080fd5b600080fd5b6000819050919050565b61086881610855565b811461087357600080fd5b50565b6000813590506108858161085f565b92915050565b600073ffffffffffffffffffffffffffffffffffffffff82169050919050565b60006108b68261088b565b9050919050565b6108c6816108ab565b81146108d157600080fd5b50565b6000813590506108e3816108bd565b92915050565b60008060408385031215610900576108ff61084b565b5b600061090e85828601610876565b925050602061091f858286016108d4565b9150509250929050565b61093281610855565b82525050565b600060208201905061094d6000830184610929565b92915050565b600080fd5b600080fd5b6000601f19601f8301169050919050565b7f4e487b7100000000000000000000000000000000000000000000000000000000600052604160045260246000fd5b6109a68261095d565b810181811067ffffffffffffffff821117156109c5576109c461096e565b5b80604052505050565b60006109d8610841565b90506109e4828261099d565b919050565b600067ffffffffffffffff821115610a0457610a0361096e565b5b610a0d8261095d565b9050602081019050919050565b82818337600083830152505050565b6000610a3c610a37846109e9565b6109ce565b905082815260208101848484011115610a5857610a57610958565b5b610a63848285610a1a565b509392505050565b600082601f830112610a8057610a7f610953565b5b8135610a90848260208601610a29565b91505092915050565b60008060408385031215610ab057610aaf61084b565b5b600083013567ffffffffffffffff811115610ace57610acd610850565b5b610ada85828601610a6b565b925050602083013567ffffffffffffffff811115610afb57610afa610850565b5b610b0785828601610a6b565b9150509250929050565b60008115159050919050565b610b2681610b11565b82525050565b6000602082019050610b416000830184610b1d565b92915050565b600081519050919050565b600082825260208201905092915050565b60005b83811015610b81578082015181840152602081019050610b66565b83811115610b90576000848401525b50505050565b6000610ba182610b47565b610bab8185610b52565b9350610bbb818560208601610b63565b610bc48161095d565b840191505092915050565b60006020820190508181036000830152610be98184610b96565b905092915050565b7f2054686973206164647265737320646f65736e27742065786973747300000000600082015250565b6000610c27601c83610b52565b9150610c3282610bf1565b602082019050919050565b60006020820190508181036000830152610c5681610c1a565b9050919050565b7f506c656173650000000000000000000000000000000000000000000000000000600082015250565b6000610c93600683610b52565b9150610c9e82610c5d565b602082019050919050565b60006020820190508181036000830152610cc281610c86565b9050919050565b7f596f75207265616368656420746865206c696d69740000000000000000000000600082015250565b6000610cff601583610b52565b9150610d0a82610cc9565b602082019050919050565b60006020820190508181036000830152610d2e81610cf2565b9050919050565b7f4e487b7100000000000000000000000000000000000000000000000000000000600052601160045260246000fd5b6000610d6f82610855565b9150610d7a83610855565b9250827fffffffffffffffffffffffffffffffffffffffffffffffffffffffffffffffff03821115610daf57610dae610d35565b5b828201905092915050565b7f54696d6520706173736564000000000000000000000000000000000000000000600082015250565b6000610df0600b83610b52565b9150610dfb82610dba565b602082019050919050565b60006020820190508181036000830152610e1f81610de3565b9050919050565b6000610e3182610855565b9150610e3c83610855565b925082821015610e4f57610e4e610d35565b5b828203905092915050565b7f4e487b7100000000000000000000000000000000000000000000000000000000600052602260045260246000fd5b60006002820490506001821680610ea157607f821691505b602082108103610eb457610eb3610e5a565b5b50919050565b60008190508160005260206000209050919050565b60006020601f8301049050919050565b600082821b905092915050565b600060088302610f1c7fffffffffffffffffffffffffffffffffffffffffffffffffffffffffffffffff82610edf565b610f268683610edf565b95508019841693508086168417925050509392505050565b6000819050919050565b6000610f63610f5e610f5984610855565b610f3e565b610855565b9050919050565b6000819050919050565b610f7d83610f48565b610f91610f8982610f6a565b848454610eec565b825550505050565b600090565b610fa6610f99565b610fb1818484610f74565b505050565b5b81811015610fd557610fca600082610f9e565b600181019050610fb7565b5050565b601f82111561101a57610feb81610eba565b610ff484610ecf565b81016020851015611003578190505b61101761100f85610ecf565b830182610fb6565b50505b505050565b600082821c905092915050565b600061103d6000198460080261101f565b1980831691505092915050565b6000611056838361102c565b9150826002028217905092915050565b61106f82610b47565b67ffffffffffffffff8111156110885761108761096e565b5b6110928254610e89565b61109d828285610fd9565b600060209050601f8311600181146110d057600084156110be578287015190505b6110c8858261104a565b865550611130565b601f1984166110de86610eba565b60005b82811015611106578489015182556001820191506020850194506020810190506110e1565b86831015611123578489015161111f601f89168261102c565b8355505b6001600288020188555050505b505050505050565b7f4e6f7420656e6f7567682066756e647300000000000000000000000000000000600082015250565b600061116e601083610b52565b915061117982611138565b602082019050919050565b6000602082019050818103600083015261119d81611161565b9050919050565b7f4e6f2076616c6964206372656469742063617264000000000000000000000000600082015250565b60006111da601483610b52565b91506111e5826111a4565b602082019050919050565b60006020820190508181036000830152611209816111cd565b905091905056fea264697066735822122016657721c8355346848f41015d1d050ac5f46a74b8b77caf2cbac3af0303154764736f6c634300080f0033",
					"opcodes": "PUSH1 0x80 PUSH1 0x40 MSTORE PUSH3 0x15180 PUSH1 0x3 SSTORE PUSH1 0x0 PUSH1 0xF SSTORE PUSH1 0x0 PUSH1 0x10 PUSH1 0x0 PUSH2 0x100 EXP DUP2 SLOAD DUP2 PUSH1 0xFF MUL NOT AND SWAP1 DUP4 ISZERO ISZERO MUL OR SWAP1 SSTORE POP CALLVALUE DUP1 ISZERO PUSH3 0x38 JUMPI PUSH1 0x0 DUP1 REVERT JUMPDEST POP PUSH1 0x40 MLOAD PUSH3 0x1334 CODESIZE SUB DUP1 PUSH3 0x1334 DUP4 CODECOPY DUP2 DUP2 ADD PUSH1 0x40 MSTORE DUP2 ADD SWAP1 PUSH3 0x5E SWAP2 SWAP1 PUSH3 0xAC JUMP JUMPDEST DUP1 PUSH1 0x1 DUP2 SWAP1 SSTORE POP POP PUSH3 0xDE JUMP JUMPDEST PUSH1 0x0 DUP1 REVERT JUMPDEST PUSH1 0x0 DUP2 SWAP1 POP SWAP2 SWAP1 POP JUMP JUMPDEST PUSH3 0x86 DUP2 PUSH3 0x71 JUMP JUMPDEST DUP2 EQ PUSH3 0x92 JUMPI PUSH1 0x0 DUP1 REVERT JUMPDEST POP JUMP JUMPDEST PUSH1 0x0 DUP2 MLOAD SWAP1 POP PUSH3 0xA6 DUP2 PUSH3 0x7B JUMP JUMPDEST SWAP3 SWAP2 POP POP JUMP JUMPDEST PUSH1 0x0 PUSH1 0x20 DUP3 DUP5 SUB SLT ISZERO PUSH3 0xC5 JUMPI PUSH3 0xC4 PUSH3 0x6C JUMP JUMPDEST JUMPDEST PUSH1 0x0 PUSH3 0xD5 DUP5 DUP3 DUP6 ADD PUSH3 0x95 JUMP JUMPDEST SWAP2 POP POP SWAP3 SWAP2 POP POP JUMP JUMPDEST PUSH2 0x1246 DUP1 PUSH3 0xEE PUSH1 0x0 CODECOPY PUSH1 0x0 RETURN INVALID PUSH1 0x80 PUSH1 0x40 MSTORE CALLVALUE DUP1 ISZERO PUSH2 0x10 JUMPI PUSH1 0x0 DUP1 REVERT JUMPDEST POP PUSH1 0x4 CALLDATASIZE LT PUSH2 0xF5 JUMPI PUSH1 0x0 CALLDATALOAD PUSH1 0xE0 SHR DUP1 PUSH4 0x7B9A3F4C GT PUSH2 0x97 JUMPI DUP1 PUSH4 0x94B5DCAA GT PUSH2 0x66 JUMPI DUP1 PUSH4 0x94B5DCAA EQ PUSH2 0x22C JUMPI DUP1 PUSH4 0xAA8C217C EQ PUSH2 0x24A JUMPI DUP1 PUSH4 0xBC309496 EQ PUSH2 0x268 JUMPI DUP1 PUSH4 0xE21F37CE EQ PUSH2 0x286 JUMPI PUSH2 0xF5 JUMP JUMPDEST DUP1 PUSH4 0x7B9A3F4C EQ PUSH2 0x1C8 JUMPI DUP1 PUSH4 0x7EB9F571 EQ PUSH2 0x1E6 JUMPI DUP1 PUSH4 0x8E029C0B EQ PUSH2 0x204 JUMPI DUP1 PUSH4 0x8FA11864 EQ PUSH2 0x20E JUMPI PUSH2 0xF5 JUMP JUMPDEST DUP1 PUSH4 0x34F5CCDE GT PUSH2 0xD3 JUMPI DUP1 PUSH4 0x34F5CCDE EQ PUSH2 0x150 JUMPI DUP1 PUSH4 0x3C626F00 EQ PUSH2 0x16E JUMPI DUP1 PUSH4 0x42FB7936 EQ PUSH2 0x18C JUMPI DUP1 PUSH4 0x4B28F9A2 EQ PUSH2 0x1AA JUMPI PUSH2 0xF5 JUMP JUMPDEST DUP1 PUSH4 0x62A7544 EQ PUSH2 0xFA JUMPI DUP1 PUSH4 0xE85FA72 EQ PUSH2 0x116 JUMPI DUP1 PUSH4 0x12A029A4 EQ PUSH2 0x134 JUMPI JUMPDEST PUSH1 0x0 DUP1 REVERT JUMPDEST PUSH2 0x114 PUSH1 0x4 DUP1 CALLDATASIZE SUB DUP2 ADD SWAP1 PUSH2 0x10F SWAP2 SWAP1 PUSH2 0x8E9 JUMP JUMPDEST PUSH2 0x2A4 JUMP JUMPDEST STOP JUMPDEST PUSH2 0x11E PUSH2 0x586 JUMP JUMPDEST PUSH1 0x40 MLOAD PUSH2 0x12B SWAP2 SWAP1 PUSH2 0x938 JUMP JUMPDEST PUSH1 0x40 MLOAD DUP1 SWAP2 SUB SWAP1 RETURN JUMPDEST PUSH2 0x14E PUSH1 0x4 DUP1 CALLDATASIZE SUB DUP2 ADD SWAP1 PUSH2 0x149 SWAP2 SWAP1 PUSH2 0xA99 JUMP JUMPDEST PUSH2 0x58C JUMP JUMPDEST STOP JUMPDEST PUSH2 0x158 PUSH2 0x63D JUMP JUMPDEST PUSH1 0x40 MLOAD PUSH2 0x165 SWAP2 SWAP1 PUSH2 0x938 JUMP JUMPDEST PUSH1 0x40 MLOAD DUP1 SWAP2 SUB SWAP1 RETURN JUMPDEST PUSH2 0x176 PUSH2 0x643 JUMP JUMPDEST PUSH1 0x40 MLOAD PUSH2 0x183 SWAP2 SWAP1 PUSH2 0xB2C JUMP JUMPDEST PUSH1 0x40 MLOAD DUP1 SWAP2 SUB SWAP1 RETURN JUMPDEST PUSH2 0x194 PUSH2 0x656 JUMP JUMPDEST PUSH1 0x40 MLOAD PUSH2 0x1A1 SWAP2 SWAP1 PUSH2 0xBCF JUMP JUMPDEST PUSH1 0x40 MLOAD DUP1 SWAP2 SUB SWAP1 RETURN JUMPDEST PUSH2 0x1B2 PUSH2 0x6E4 JUMP JUMPDEST PUSH1 0x40 MLOAD PUSH2 0x1BF SWAP2 SWAP1 PUSH2 0x938 JUMP JUMPDEST PUSH1 0x40 MLOAD DUP1 SWAP2 SUB SWAP1 RETURN JUMPDEST PUSH2 0x1D0 PUSH2 0x6EA JUMP JUMPDEST PUSH1 0x40 MLOAD PUSH2 0x1DD SWAP2 SWAP1 PUSH2 0x938 JUMP JUMPDEST PUSH1 0x40 MLOAD DUP1 SWAP2 SUB SWAP1 RETURN JUMPDEST PUSH2 0x1EE PUSH2 0x6F0 JUMP JUMPDEST PUSH1 0x40 MLOAD PUSH2 0x1FB SWAP2 SWAP1 PUSH2 0x938 JUMP JUMPDEST PUSH1 0x40 MLOAD DUP1 SWAP2 SUB SWAP1 RETURN JUMPDEST PUSH2 0x20C PUSH2 0x6F6 JUMP JUMPDEST STOP JUMPDEST PUSH2 0x216 PUSH2 0x713 JUMP JUMPDEST PUSH1 0x40 MLOAD PUSH2 0x223 SWAP2 SWAP1 PUSH2 0xBCF JUMP JUMPDEST PUSH1 0x40 MLOAD DUP1 SWAP2 SUB SWAP1 RETURN JUMPDEST PUSH2 0x234 PUSH2 0x7A1 JUMP JUMPDEST PUSH1 0x40 MLOAD PUSH2 0x241 SWAP2 SWAP1 PUSH2 0x938 JUMP JUMPDEST PUSH1 0x40 MLOAD DUP1 SWAP2 SUB SWAP1 RETURN JUMPDEST PUSH2 0x252 PUSH2 0x7A7 JUMP JUMPDEST PUSH1 0x40 MLOAD PUSH2 0x25F SWAP2 SWAP1 PUSH2 0x938 JUMP JUMPDEST PUSH1 0x40 MLOAD DUP1 SWAP2 SUB SWAP1 RETURN JUMPDEST PUSH2 0x270 PUSH2 0x7AD JUMP JUMPDEST PUSH1 0x40 MLOAD PUSH2 0x27D SWAP2 SWAP1 PUSH2 0x938 JUMP JUMPDEST PUSH1 0x40 MLOAD DUP1 SWAP2 SUB SWAP1 RETURN JUMPDEST PUSH2 0x28E PUSH2 0x7B3 JUMP JUMPDEST PUSH1 0x40 MLOAD PUSH2 0x29B SWAP2 SWAP1 PUSH2 0xBCF JUMP JUMPDEST PUSH1 0x40 MLOAD DUP1 SWAP2 SUB SWAP1 RETURN JUMPDEST DUP1 DUP1 PUSH1 0x2 PUSH1 0x0 PUSH2 0x100 EXP DUP2 SLOAD DUP2 PUSH20 0xFFFFFFFFFFFFFFFFFFFFFFFFFFFFFFFFFFFFFFFF MUL NOT AND SWAP1 DUP4 PUSH20 0xFFFFFFFFFFFFFFFFFFFFFFFFFFFFFFFFFFFFFFFF AND MUL OR SWAP1 SSTORE POP PUSH1 0x0 PUSH20 0xFFFFFFFFFFFFFFFFFFFFFFFFFFFFFFFFFFFFFFFF AND DUP2 PUSH20 0xFFFFFFFFFFFFFFFFFFFFFFFFFFFFFFFFFFFFFFFF AND SUB PUSH2 0x355 JUMPI PUSH1 0x40 MLOAD PUSH32 0x8C379A000000000000000000000000000000000000000000000000000000000 DUP2 MSTORE PUSH1 0x4 ADD PUSH2 0x34C SWAP1 PUSH2 0xC3D JUMP JUMPDEST PUSH1 0x40 MLOAD DUP1 SWAP2 SUB SWAP1 REVERT JUMPDEST PUSH1 0x0 ISZERO ISZERO PUSH1 0x10 PUSH1 0x0 SWAP1 SLOAD SWAP1 PUSH2 0x100 EXP SWAP1 DIV PUSH1 0xFF AND ISZERO ISZERO SUB PUSH2 0x3AB JUMPI PUSH1 0x40 MLOAD PUSH32 0x8C379A000000000000000000000000000000000000000000000000000000000 DUP2 MSTORE PUSH1 0x4 ADD PUSH2 0x3A2 SWAP1 PUSH2 0xCA9 JUMP JUMPDEST PUSH1 0x40 MLOAD DUP1 SWAP2 SUB SWAP1 REVERT JUMPDEST PUSH2 0x9C4 PUSH1 0xC SLOAD GT ISZERO PUSH2 0x3F2 JUMPI PUSH1 0x40 MLOAD PUSH32 0x8C379A000000000000000000000000000000000000000000000000000000000 DUP2 MSTORE PUSH1 0x4 ADD PUSH2 0x3E9 SWAP1 PUSH2 0xD15 JUMP JUMPDEST PUSH1 0x40 MLOAD DUP1 SWAP2 SUB SWAP1 REVERT JUMPDEST TIMESTAMP PUSH1 0xD DUP2 SWAP1 SSTORE POP PUSH1 0x1E PUSH1 0xD SLOAD PUSH2 0x408 SWAP2 SWAP1 PUSH2 0xD64 JUMP JUMPDEST TIMESTAMP GT ISZERO PUSH2 0x44A JUMPI PUSH1 0x40 MLOAD PUSH32 0x8C379A000000000000000000000000000000000000000000000000000000000 DUP2 MSTORE PUSH1 0x4 ADD PUSH2 0x441 SWAP1 PUSH2 0xE06 JUMP JUMPDEST PUSH1 0x40 MLOAD DUP1 SWAP2 SUB SWAP1 REVERT JUMPDEST DUP2 PUSH1 0x2 PUSH1 0x0 PUSH2 0x100 EXP DUP2 SLOAD DUP2 PUSH20 0xFFFFFFFFFFFFFFFFFFFFFFFFFFFFFFFFFFFFFFFF MUL NOT AND SWAP1 DUP4 PUSH20 0xFFFFFFFFFFFFFFFFFFFFFFFFFFFFFFFFFFFFFFFF AND MUL OR SWAP1 SSTORE POP DUP3 PUSH1 0x0 DUP2 SWAP1 SSTORE POP PUSH1 0x1 PUSH1 0xF PUSH1 0x0 DUP3 DUP3 SLOAD PUSH2 0x4A5 SWAP2 SWAP1 PUSH2 0xD64 JUMP JUMPDEST SWAP3 POP POP DUP2 SWAP1 SSTORE POP PUSH1 0x0 PUSH1 0x1 SLOAD GT DUP1 ISZERO PUSH2 0x4C1 JUMPI POP PUSH1 0x0 SLOAD PUSH1 0x1 SLOAD GT JUMPDEST ISZERO PUSH2 0x546 JUMPI PUSH1 0x0 SLOAD PUSH1 0x1 PUSH1 0x0 DUP3 DUP3 SLOAD PUSH2 0x4DA SWAP2 SWAP1 PUSH2 0xE26 JUMP JUMPDEST SWAP3 POP POP DUP2 SWAP1 SSTORE POP PUSH1 0x0 SLOAD PUSH1 0xC PUSH1 0x0 DUP3 DUP3 SLOAD PUSH2 0x4F5 SWAP2 SWAP1 PUSH2 0xD64 JUMP JUMPDEST SWAP3 POP POP DUP2 SWAP1 SSTORE POP PUSH1 0x40 MLOAD DUP1 PUSH1 0x40 ADD PUSH1 0x40 MSTORE DUP1 PUSH1 0x12 DUP2 MSTORE PUSH1 0x20 ADD PUSH32 0x5472616E7366657220636F6D706C657465640000000000000000000000000000 DUP2 MSTORE POP PUSH1 0x9 SWAP1 DUP2 PUSH2 0x540 SWAP2 SWAP1 PUSH2 0x1066 JUMP JUMPDEST POP PUSH2 0x581 JUMP JUMPDEST PUSH1 0x40 MLOAD PUSH32 0x8C379A000000000000000000000000000000000000000000000000000000000 DUP2 MSTORE PUSH1 0x4 ADD PUSH2 0x578 SWAP1 PUSH2 0x1184 JUMP JUMPDEST PUSH1 0x40 MLOAD DUP1 SWAP2 SUB SWAP1 REVERT JUMPDEST POP POP POP JUMP JUMPDEST PUSH1 0xD SLOAD DUP2 JUMP JUMPDEST PUSH1 0x8 PUSH1 0xA DUP1 SLOAD PUSH2 0x59B SWAP1 PUSH2 0xE89 JUMP JUMPDEST SWAP1 POP EQ DUP1 ISZERO PUSH2 0x5B8 JUMPI POP PUSH1 0x3 PUSH1 0xB DUP1 SLOAD PUSH2 0x5B4 SWAP1 PUSH2 0xE89 JUMP JUMPDEST SWAP1 POP EQ JUMPDEST PUSH2 0x5F7 JUMPI PUSH1 0x40 MLOAD PUSH32 0x8C379A000000000000000000000000000000000000000000000000000000000 DUP2 MSTORE PUSH1 0x4 ADD PUSH2 0x5EE SWAP1 PUSH2 0x11F0 JUMP JUMPDEST PUSH1 0x40 MLOAD DUP1 SWAP2 SUB SWAP1 REVERT JUMPDEST DUP2 PUSH1 0xA SWAP1 DUP2 PUSH2 0x606 SWAP2 SWAP1 PUSH2 0x1066 JUMP JUMPDEST POP DUP1 PUSH1 0xB SWAP1 DUP2 PUSH2 0x616 SWAP2 SWAP1 PUSH2 0x1066 JUMP JUMPDEST POP PUSH1 0x1 PUSH1 0x10 PUSH1 0x0 PUSH2 0x100 EXP DUP2 SLOAD DUP2 PUSH1 0xFF MUL NOT AND SWAP1 DUP4 ISZERO ISZERO MUL OR SWAP1 SSTORE POP TIMESTAMP PUSH1 0xD DUP2 SWAP1 SSTORE POP POP POP JUMP JUMPDEST PUSH1 0xE SLOAD DUP2 JUMP JUMPDEST PUSH1 0x10 PUSH1 0x0 SWAP1 SLOAD SWAP1 PUSH2 0x100 EXP SWAP1 DIV PUSH1 0xFF AND DUP2 JUMP JUMPDEST PUSH1 0xB DUP1 SLOAD PUSH2 0x663 SWAP1 PUSH2 0xE89 JUMP JUMPDEST DUP1 PUSH1 0x1F ADD PUSH1 0x20 DUP1 SWAP2 DIV MUL PUSH1 0x20 ADD PUSH1 0x40 MLOAD SWAP1 DUP2 ADD PUSH1 0x40 MSTORE DUP1 SWAP3 SWAP2 SWAP1 DUP2 DUP2 MSTORE PUSH1 0x20 ADD DUP3 DUP1 SLOAD PUSH2 0x68F SWAP1 PUSH2 0xE89 JUMP JUMPDEST DUP1 ISZERO PUSH2 0x6DC JUMPI DUP1 PUSH1 0x1F LT PUSH2 0x6B1 JUMPI PUSH2 0x100 DUP1 DUP4 SLOAD DIV MUL DUP4 MSTORE SWAP2 PUSH1 0x20 ADD SWAP2 PUSH2 0x6DC JUMP JUMPDEST DUP3 ADD SWAP2 SWAP1 PUSH1 0x0 MSTORE PUSH1 0x20 PUSH1 0x0 KECCAK256 SWAP1 JUMPDEST DUP2 SLOAD DUP2 MSTORE SWAP1 PUSH1 0x1 ADD SWAP1 PUSH1 0x20 ADD DUP1 DUP4 GT PUSH2 0x6BF JUMPI DUP3 SWAP1 SUB PUSH1 0x1F AND DUP3 ADD SWAP2 JUMPDEST POP POP POP POP POP DUP2 JUMP JUMPDEST PUSH1 0xF SLOAD DUP2 JUMP JUMPDEST PUSH1 0x1 SLOAD DUP2 JUMP JUMPDEST PUSH1 0xC SLOAD DUP2 JUMP JUMPDEST PUSH1 0x0 PUSH1 0x10 PUSH1 0x0 PUSH2 0x100 EXP DUP2 SLOAD DUP2 PUSH1 0xFF MUL NOT AND SWAP1 DUP4 ISZERO ISZERO MUL OR SWAP1 SSTORE POP JUMP JUMPDEST PUSH1 0xA DUP1 SLOAD PUSH2 0x720 SWAP1 PUSH2 0xE89 JUMP JUMPDEST DUP1 PUSH1 0x1F ADD PUSH1 0x20 DUP1 SWAP2 DIV MUL PUSH1 0x20 ADD PUSH1 0x40 MLOAD SWAP1 DUP2 ADD PUSH1 0x40 MSTORE DUP1 SWAP3 SWAP2 SWAP1 DUP2 DUP2 MSTORE PUSH1 0x20 ADD DUP3 DUP1 SLOAD PUSH2 0x74C SWAP1 PUSH2 0xE89 JUMP JUMPDEST DUP1 ISZERO PUSH2 0x799 JUMPI DUP1 PUSH1 0x1F LT PUSH2 0x76E JUMPI PUSH2 0x100 DUP1 DUP4 SLOAD DIV MUL DUP4 MSTORE SWAP2 PUSH1 0x20 ADD SWAP2 PUSH2 0x799 JUMP JUMPDEST DUP3 ADD SWAP2 SWAP1 PUSH1 0x0 MSTORE PUSH1 0x20 PUSH1 0x0 KECCAK256 SWAP1 JUMPDEST DUP2 SLOAD DUP2 MSTORE SWAP1 PUSH1 0x1 ADD SWAP1 PUSH1 0x20 ADD DUP1 DUP4 GT PUSH2 0x77C JUMPI DUP3 SWAP1 SUB PUSH1 0x1F AND DUP3 ADD SWAP2 JUMPDEST POP POP POP POP POP DUP2 JUMP JUMPDEST PUSH1 0x4 SLOAD DUP2 JUMP JUMPDEST PUSH1 0x0 SLOAD DUP2 JUMP JUMPDEST PUSH1 0x8 SLOAD DUP2 JUMP JUMPDEST PUSH1 0x9 DUP1 SLOAD PUSH2 0x7C0 SWAP1 PUSH2 0xE89 JUMP JUMPDEST DUP1 PUSH1 0x1F ADD PUSH1 0x20 DUP1 SWAP2 DIV MUL PUSH1 0x20 ADD PUSH1 0x40 MLOAD SWAP1 DUP2 ADD PUSH1 0x40 MSTORE DUP1 SWAP3 SWAP2 SWAP1 DUP2 DUP2 MSTORE PUSH1 0x20 ADD DUP3 DUP1 SLOAD PUSH2 0x7EC SWAP1 PUSH2 0xE89 JUMP JUMPDEST DUP1 ISZERO PUSH2 0x839 JUMPI DUP1 PUSH1 0x1F LT PUSH2 0x80E JUMPI PUSH2 0x100 DUP1 DUP4 SLOAD DIV MUL DUP4 MSTORE SWAP2 PUSH1 0x20 ADD SWAP2 PUSH2 0x839 JUMP JUMPDEST DUP3 ADD SWAP2 SWAP1 PUSH1 0x0 MSTORE PUSH1 0x20 PUSH1 0x0 KECCAK256 SWAP1 JUMPDEST DUP2 SLOAD DUP2 MSTORE SWAP1 PUSH1 0x1 ADD SWAP1 PUSH1 0x20 ADD DUP1 DUP4 GT PUSH2 0x81C JUMPI DUP3 SWAP1 SUB PUSH1 0x1F AND DUP3 ADD SWAP2 JUMPDEST POP POP POP POP POP DUP2 JUMP JUMPDEST PUSH1 0x0 PUSH1 0x40 MLOAD SWAP1 POP SWAP1 JUMP JUMPDEST PUSH1 0x0 DUP1 REVERT JUMPDEST PUSH1 0x0 DUP1 REVERT JUMPDEST PUSH1 0x0 DUP2 SWAP1 POP SWAP2 SWAP1 POP JUMP JUMPDEST PUSH2 0x868 DUP2 PUSH2 0x855 JUMP JUMPDEST DUP2 EQ PUSH2 0x873 JUMPI PUSH1 0x0 DUP1 REVERT JUMPDEST POP JUMP JUMPDEST PUSH1 0x0 DUP2 CALLDATALOAD SWAP1 POP PUSH2 0x885 DUP2 PUSH2 0x85F JUMP JUMPDEST SWAP3 SWAP2 POP POP JUMP JUMPDEST PUSH1 0x0 PUSH20 0xFFFFFFFFFFFFFFFFFFFFFFFFFFFFFFFFFFFFFFFF DUP3 AND SWAP1 POP SWAP2 SWAP1 POP JUMP JUMPDEST PUSH1 0x0 PUSH2 0x8B6 DUP3 PUSH2 0x88B JUMP JUMPDEST SWAP1 POP SWAP2 SWAP1 POP JUMP JUMPDEST PUSH2 0x8C6 DUP2 PUSH2 0x8AB JUMP JUMPDEST DUP2 EQ PUSH2 0x8D1 JUMPI PUSH1 0x0 DUP1 REVERT JUMPDEST POP JUMP JUMPDEST PUSH1 0x0 DUP2 CALLDATALOAD SWAP1 POP PUSH2 0x8E3 DUP2 PUSH2 0x8BD JUMP JUMPDEST SWAP3 SWAP2 POP POP JUMP JUMPDEST PUSH1 0x0 DUP1 PUSH1 0x40 DUP4 DUP6 SUB SLT ISZERO PUSH2 0x900 JUMPI PUSH2 0x8FF PUSH2 0x84B JUMP JUMPDEST JUMPDEST PUSH1 0x0 PUSH2 0x90E DUP6 DUP3 DUP7 ADD PUSH2 0x876 JUMP JUMPDEST SWAP3 POP POP PUSH1 0x20 PUSH2 0x91F DUP6 DUP3 DUP7 ADD PUSH2 0x8D4 JUMP JUMPDEST SWAP2 POP POP SWAP3 POP SWAP3 SWAP1 POP JUMP JUMPDEST PUSH2 0x932 DUP2 PUSH2 0x855 JUMP JUMPDEST DUP3 MSTORE POP POP JUMP JUMPDEST PUSH1 0x0 PUSH1 0x20 DUP3 ADD SWAP1 POP PUSH2 0x94D PUSH1 0x0 DUP4 ADD DUP5 PUSH2 0x929 JUMP JUMPDEST SWAP3 SWAP2 POP POP JUMP JUMPDEST PUSH1 0x0 DUP1 REVERT JUMPDEST PUSH1 0x0 DUP1 REVERT JUMPDEST PUSH1 0x0 PUSH1 0x1F NOT PUSH1 0x1F DUP4 ADD AND SWAP1 POP SWAP2 SWAP1 POP JUMP JUMPDEST PUSH32 0x4E487B7100000000000000000000000000000000000000000000000000000000 PUSH1 0x0 MSTORE PUSH1 0x41 PUSH1 0x4 MSTORE PUSH1 0x24 PUSH1 0x0 REVERT JUMPDEST PUSH2 0x9A6 DUP3 PUSH2 0x95D JUMP JUMPDEST DUP2 ADD DUP2 DUP2 LT PUSH8 0xFFFFFFFFFFFFFFFF DUP3 GT OR ISZERO PUSH2 0x9C5 JUMPI PUSH2 0x9C4 PUSH2 0x96E JUMP JUMPDEST JUMPDEST DUP1 PUSH1 0x40 MSTORE POP POP POP JUMP JUMPDEST PUSH1 0x0 PUSH2 0x9D8 PUSH2 0x841 JUMP JUMPDEST SWAP1 POP PUSH2 0x9E4 DUP3 DUP3 PUSH2 0x99D JUMP JUMPDEST SWAP2 SWAP1 POP JUMP JUMPDEST PUSH1 0x0 PUSH8 0xFFFFFFFFFFFFFFFF DUP3 GT ISZERO PUSH2 0xA04 JUMPI PUSH2 0xA03 PUSH2 0x96E JUMP JUMPDEST JUMPDEST PUSH2 0xA0D DUP3 PUSH2 0x95D JUMP JUMPDEST SWAP1 POP PUSH1 0x20 DUP2 ADD SWAP1 POP SWAP2 SWAP1 POP JUMP JUMPDEST DUP3 DUP2 DUP4 CALLDATACOPY PUSH1 0x0 DUP4 DUP4 ADD MSTORE POP POP POP JUMP JUMPDEST PUSH1 0x0 PUSH2 0xA3C PUSH2 0xA37 DUP5 PUSH2 0x9E9 JUMP JUMPDEST PUSH2 0x9CE JUMP JUMPDEST SWAP1 POP DUP3 DUP2 MSTORE PUSH1 0x20 DUP2 ADD DUP5 DUP5 DUP5 ADD GT ISZERO PUSH2 0xA58 JUMPI PUSH2 0xA57 PUSH2 0x958 JUMP JUMPDEST JUMPDEST PUSH2 0xA63 DUP5 DUP3 DUP6 PUSH2 0xA1A JUMP JUMPDEST POP SWAP4 SWAP3 POP POP POP JUMP JUMPDEST PUSH1 0x0 DUP3 PUSH1 0x1F DUP4 ADD SLT PUSH2 0xA80 JUMPI PUSH2 0xA7F PUSH2 0x953 JUMP JUMPDEST JUMPDEST DUP2 CALLDATALOAD PUSH2 0xA90 DUP5 DUP3 PUSH1 0x20 DUP7 ADD PUSH2 0xA29 JUMP JUMPDEST SWAP2 POP POP SWAP3 SWAP2 POP POP JUMP JUMPDEST PUSH1 0x0 DUP1 PUSH1 0x40 DUP4 DUP6 SUB SLT ISZERO PUSH2 0xAB0 JUMPI PUSH2 0xAAF PUSH2 0x84B JUMP JUMPDEST JUMPDEST PUSH1 0x0 DUP4 ADD CALLDATALOAD PUSH8 0xFFFFFFFFFFFFFFFF DUP2 GT ISZERO PUSH2 0xACE JUMPI PUSH2 0xACD PUSH2 0x850 JUMP JUMPDEST JUMPDEST PUSH2 0xADA DUP6 DUP3 DUP7 ADD PUSH2 0xA6B JUMP JUMPDEST SWAP3 POP POP PUSH1 0x20 DUP4 ADD CALLDATALOAD PUSH8 0xFFFFFFFFFFFFFFFF DUP2 GT ISZERO PUSH2 0xAFB JUMPI PUSH2 0xAFA PUSH2 0x850 JUMP JUMPDEST JUMPDEST PUSH2 0xB07 DUP6 DUP3 DUP7 ADD PUSH2 0xA6B JUMP JUMPDEST SWAP2 POP POP SWAP3 POP SWAP3 SWAP1 POP JUMP JUMPDEST PUSH1 0x0 DUP2 ISZERO ISZERO SWAP1 POP SWAP2 SWAP1 POP JUMP JUMPDEST PUSH2 0xB26 DUP2 PUSH2 0xB11 JUMP JUMPDEST DUP3 MSTORE POP POP JUMP JUMPDEST PUSH1 0x0 PUSH1 0x20 DUP3 ADD SWAP1 POP PUSH2 0xB41 PUSH1 0x0 DUP4 ADD DUP5 PUSH2 0xB1D JUMP JUMPDEST SWAP3 SWAP2 POP POP JUMP JUMPDEST PUSH1 0x0 DUP2 MLOAD SWAP1 POP SWAP2 SWAP1 POP JUMP JUMPDEST PUSH1 0x0 DUP3 DUP3 MSTORE PUSH1 0x20 DUP3 ADD SWAP1 POP SWAP3 SWAP2 POP POP JUMP JUMPDEST PUSH1 0x0 JUMPDEST DUP4 DUP2 LT ISZERO PUSH2 0xB81 JUMPI DUP1 DUP3 ADD MLOAD DUP2 DUP5 ADD MSTORE PUSH1 0x20 DUP2 ADD SWAP1 POP PUSH2 0xB66 JUMP JUMPDEST DUP4 DUP2 GT ISZERO PUSH2 0xB90 JUMPI PUSH1 0x0 DUP5 DUP5 ADD MSTORE JUMPDEST POP POP POP POP JUMP JUMPDEST PUSH1 0x0 PUSH2 0xBA1 DUP3 PUSH2 0xB47 JUMP JUMPDEST PUSH2 0xBAB DUP2 DUP6 PUSH2 0xB52 JUMP JUMPDEST SWAP4 POP PUSH2 0xBBB DUP2 DUP6 PUSH1 0x20 DUP7 ADD PUSH2 0xB63 JUMP JUMPDEST PUSH2 0xBC4 DUP2 PUSH2 0x95D JUMP JUMPDEST DUP5 ADD SWAP2 POP POP SWAP3 SWAP2 POP POP JUMP JUMPDEST PUSH1 0x0 PUSH1 0x20 DUP3 ADD SWAP1 POP DUP2 DUP2 SUB PUSH1 0x0 DUP4 ADD MSTORE PUSH2 0xBE9 DUP2 DUP5 PUSH2 0xB96 JUMP JUMPDEST SWAP1 POP SWAP3 SWAP2 POP POP JUMP JUMPDEST PUSH32 0x2054686973206164647265737320646F65736E27742065786973747300000000 PUSH1 0x0 DUP3 ADD MSTORE POP JUMP JUMPDEST PUSH1 0x0 PUSH2 0xC27 PUSH1 0x1C DUP4 PUSH2 0xB52 JUMP JUMPDEST SWAP2 POP PUSH2 0xC32 DUP3 PUSH2 0xBF1 JUMP JUMPDEST PUSH1 0x20 DUP3 ADD SWAP1 POP SWAP2 SWAP1 POP JUMP JUMPDEST PUSH1 0x0 PUSH1 0x20 DUP3 ADD SWAP1 POP DUP2 DUP2 SUB PUSH1 0x0 DUP4 ADD MSTORE PUSH2 0xC56 DUP2 PUSH2 0xC1A JUMP JUMPDEST SWAP1 POP SWAP2 SWAP1 POP JUMP JUMPDEST PUSH32 0x506C656173650000000000000000000000000000000000000000000000000000 PUSH1 0x0 DUP3 ADD MSTORE POP JUMP JUMPDEST PUSH1 0x0 PUSH2 0xC93 PUSH1 0x6 DUP4 PUSH2 0xB52 JUMP JUMPDEST SWAP2 POP PUSH2 0xC9E DUP3 PUSH2 0xC5D JUMP JUMPDEST PUSH1 0x20 DUP3 ADD SWAP1 POP SWAP2 SWAP1 POP JUMP JUMPDEST PUSH1 0x0 PUSH1 0x20 DUP3 ADD SWAP1 POP DUP2 DUP2 SUB PUSH1 0x0 DUP4 ADD MSTORE PUSH2 0xCC2 DUP2 PUSH2 0xC86 JUMP JUMPDEST SWAP1 POP SWAP2 SWAP1 POP JUMP JUMPDEST PUSH32 0x596F75207265616368656420746865206C696D69740000000000000000000000 PUSH1 0x0 DUP3 ADD MSTORE POP JUMP JUMPDEST PUSH1 0x0 PUSH2 0xCFF PUSH1 0x15 DUP4 PUSH2 0xB52 JUMP JUMPDEST SWAP2 POP PUSH2 0xD0A DUP3 PUSH2 0xCC9 JUMP JUMPDEST PUSH1 0x20 DUP3 ADD SWAP1 POP SWAP2 SWAP1 POP JUMP JUMPDEST PUSH1 0x0 PUSH1 0x20 DUP3 ADD SWAP1 POP DUP2 DUP2 SUB PUSH1 0x0 DUP4 ADD MSTORE PUSH2 0xD2E DUP2 PUSH2 0xCF2 JUMP JUMPDEST SWAP1 POP SWAP2 SWAP1 POP JUMP JUMPDEST PUSH32 0x4E487B7100000000000000000000000000000000000000000000000000000000 PUSH1 0x0 MSTORE PUSH1 0x11 PUSH1 0x4 MSTORE PUSH1 0x24 PUSH1 0x0 REVERT JUMPDEST PUSH1 0x0 PUSH2 0xD6F DUP3 PUSH2 0x855 JUMP JUMPDEST SWAP2 POP PUSH2 0xD7A DUP4 PUSH2 0x855 JUMP JUMPDEST SWAP3 POP DUP3 PUSH32 0xFFFFFFFFFFFFFFFFFFFFFFFFFFFFFFFFFFFFFFFFFFFFFFFFFFFFFFFFFFFFFFFF SUB DUP3 GT ISZERO PUSH2 0xDAF JUMPI PUSH2 0xDAE PUSH2 0xD35 JUMP JUMPDEST JUMPDEST DUP3 DUP3 ADD SWAP1 POP SWAP3 SWAP2 POP POP JUMP JUMPDEST PUSH32 0x54696D6520706173736564000000000000000000000000000000000000000000 PUSH1 0x0 DUP3 ADD MSTORE POP JUMP JUMPDEST PUSH1 0x0 PUSH2 0xDF0 PUSH1 0xB DUP4 PUSH2 0xB52 JUMP JUMPDEST SWAP2 POP PUSH2 0xDFB DUP3 PUSH2 0xDBA JUMP JUMPDEST PUSH1 0x20 DUP3 ADD SWAP1 POP SWAP2 SWAP1 POP JUMP JUMPDEST PUSH1 0x0 PUSH1 0x20 DUP3 ADD SWAP1 POP DUP2 DUP2 SUB PUSH1 0x0 DUP4 ADD MSTORE PUSH2 0xE1F DUP2 PUSH2 0xDE3 JUMP JUMPDEST SWAP1 POP SWAP2 SWAP1 POP JUMP JUMPDEST PUSH1 0x0 PUSH2 0xE31 DUP3 PUSH2 0x855 JUMP JUMPDEST SWAP2 POP PUSH2 0xE3C DUP4 PUSH2 0x855 JUMP JUMPDEST SWAP3 POP DUP3 DUP3 LT ISZERO PUSH2 0xE4F JUMPI PUSH2 0xE4E PUSH2 0xD35 JUMP JUMPDEST JUMPDEST DUP3 DUP3 SUB SWAP1 POP SWAP3 SWAP2 POP POP JUMP JUMPDEST PUSH32 0x4E487B7100000000000000000000000000000000000000000000000000000000 PUSH1 0x0 MSTORE PUSH1 0x22 PUSH1 0x4 MSTORE PUSH1 0x24 PUSH1 0x0 REVERT JUMPDEST PUSH1 0x0 PUSH1 0x2 DUP3 DIV SWAP1 POP PUSH1 0x1 DUP3 AND DUP1 PUSH2 0xEA1 JUMPI PUSH1 0x7F DUP3 AND SWAP2 POP JUMPDEST PUSH1 0x20 DUP3 LT DUP2 SUB PUSH2 0xEB4 JUMPI PUSH2 0xEB3 PUSH2 0xE5A JUMP JUMPDEST JUMPDEST POP SWAP2 SWAP1 POP JUMP JUMPDEST PUSH1 0x0 DUP2 SWAP1 POP DUP2 PUSH1 0x0 MSTORE PUSH1 0x20 PUSH1 0x0 KECCAK256 SWAP1 POP SWAP2 SWAP1 POP JUMP JUMPDEST PUSH1 0x0 PUSH1 0x20 PUSH1 0x1F DUP4 ADD DIV SWAP1 POP SWAP2 SWAP1 POP JUMP JUMPDEST PUSH1 0x0 DUP3 DUP3 SHL SWAP1 POP SWAP3 SWAP2 POP POP JUMP JUMPDEST PUSH1 0x0 PUSH1 0x8 DUP4 MUL PUSH2 0xF1C PUSH32 0xFFFFFFFFFFFFFFFFFFFFFFFFFFFFFFFFFFFFFFFFFFFFFFFFFFFFFFFFFFFFFFFF DUP3 PUSH2 0xEDF JUMP JUMPDEST PUSH2 0xF26 DUP7 DUP4 PUSH2 0xEDF JUMP JUMPDEST SWAP6 POP DUP1 NOT DUP5 AND SWAP4 POP DUP1 DUP7 AND DUP5 OR SWAP3 POP POP POP SWAP4 SWAP3 POP POP POP JUMP JUMPDEST PUSH1 0x0 DUP2 SWAP1 POP SWAP2 SWAP1 POP JUMP JUMPDEST PUSH1 0x0 PUSH2 0xF63 PUSH2 0xF5E PUSH2 0xF59 DUP5 PUSH2 0x855 JUMP JUMPDEST PUSH2 0xF3E JUMP JUMPDEST PUSH2 0x855 JUMP JUMPDEST SWAP1 POP SWAP2 SWAP1 POP JUMP JUMPDEST PUSH1 0x0 DUP2 SWAP1 POP SWAP2 SWAP1 POP JUMP JUMPDEST PUSH2 0xF7D DUP4 PUSH2 0xF48 JUMP JUMPDEST PUSH2 0xF91 PUSH2 0xF89 DUP3 PUSH2 0xF6A JUMP JUMPDEST DUP5 DUP5 SLOAD PUSH2 0xEEC JUMP JUMPDEST DUP3 SSTORE POP POP POP POP JUMP JUMPDEST PUSH1 0x0 SWAP1 JUMP JUMPDEST PUSH2 0xFA6 PUSH2 0xF99 JUMP JUMPDEST PUSH2 0xFB1 DUP2 DUP5 DUP5 PUSH2 0xF74 JUMP JUMPDEST POP POP POP JUMP JUMPDEST JUMPDEST DUP2 DUP2 LT ISZERO PUSH2 0xFD5 JUMPI PUSH2 0xFCA PUSH1 0x0 DUP3 PUSH2 0xF9E JUMP JUMPDEST PUSH1 0x1 DUP2 ADD SWAP1 POP PUSH2 0xFB7 JUMP JUMPDEST POP POP JUMP JUMPDEST PUSH1 0x1F DUP3 GT ISZERO PUSH2 0x101A JUMPI PUSH2 0xFEB DUP2 PUSH2 0xEBA JUMP JUMPDEST PUSH2 0xFF4 DUP5 PUSH2 0xECF JUMP JUMPDEST DUP2 ADD PUSH1 0x20 DUP6 LT ISZERO PUSH2 0x1003 JUMPI DUP2 SWAP1 POP JUMPDEST PUSH2 0x1017 PUSH2 0x100F DUP6 PUSH2 0xECF JUMP JUMPDEST DUP4 ADD DUP3 PUSH2 0xFB6 JUMP JUMPDEST POP POP JUMPDEST POP POP POP JUMP JUMPDEST PUSH1 0x0 DUP3 DUP3 SHR SWAP1 POP SWAP3 SWAP2 POP POP JUMP JUMPDEST PUSH1 0x0 PUSH2 0x103D PUSH1 0x0 NOT DUP5 PUSH1 0x8 MUL PUSH2 0x101F JUMP JUMPDEST NOT DUP1 DUP4 AND SWAP2 POP POP SWAP3 SWAP2 POP POP JUMP JUMPDEST PUSH1 0x0 PUSH2 0x1056 DUP4 DUP4 PUSH2 0x102C JUMP JUMPDEST SWAP2 POP DUP3 PUSH1 0x2 MUL DUP3 OR SWAP1 POP SWAP3 SWAP2 POP POP JUMP JUMPDEST PUSH2 0x106F DUP3 PUSH2 0xB47 JUMP JUMPDEST PUSH8 0xFFFFFFFFFFFFFFFF DUP2 GT ISZERO PUSH2 0x1088 JUMPI PUSH2 0x1087 PUSH2 0x96E JUMP JUMPDEST JUMPDEST PUSH2 0x1092 DUP3 SLOAD PUSH2 0xE89 JUMP JUMPDEST PUSH2 0x109D DUP3 DUP3 DUP6 PUSH2 0xFD9 JUMP JUMPDEST PUSH1 0x0 PUSH1 0x20 SWAP1 POP PUSH1 0x1F DUP4 GT PUSH1 0x1 DUP2 EQ PUSH2 0x10D0 JUMPI PUSH1 0x0 DUP5 ISZERO PUSH2 0x10BE JUMPI DUP3 DUP8 ADD MLOAD SWAP1 POP JUMPDEST PUSH2 0x10C8 DUP6 DUP3 PUSH2 0x104A JUMP JUMPDEST DUP7 SSTORE POP PUSH2 0x1130 JUMP JUMPDEST PUSH1 0x1F NOT DUP5 AND PUSH2 0x10DE DUP7 PUSH2 0xEBA JUMP JUMPDEST PUSH1 0x0 JUMPDEST DUP3 DUP2 LT ISZERO PUSH2 0x1106 JUMPI DUP5 DUP10 ADD MLOAD DUP3 SSTORE PUSH1 0x1 DUP3 ADD SWAP2 POP PUSH1 0x20 DUP6 ADD SWAP5 POP PUSH1 0x20 DUP2 ADD SWAP1 POP PUSH2 0x10E1 JUMP JUMPDEST DUP7 DUP4 LT ISZERO PUSH2 0x1123 JUMPI DUP5 DUP10 ADD MLOAD PUSH2 0x111F PUSH1 0x1F DUP10 AND DUP3 PUSH2 0x102C JUMP JUMPDEST DUP4 SSTORE POP JUMPDEST PUSH1 0x1 PUSH1 0x2 DUP9 MUL ADD DUP9 SSTORE POP POP POP JUMPDEST POP POP POP POP POP POP JUMP JUMPDEST PUSH32 0x4E6F7420656E6F7567682066756E647300000000000000000000000000000000 PUSH1 0x0 DUP3 ADD MSTORE POP JUMP JUMPDEST PUSH1 0x0 PUSH2 0x116E PUSH1 0x10 DUP4 PUSH2 0xB52 JUMP JUMPDEST SWAP2 POP PUSH2 0x1179 DUP3 PUSH2 0x1138 JUMP JUMPDEST PUSH1 0x20 DUP3 ADD SWAP1 POP SWAP2 SWAP1 POP JUMP JUMPDEST PUSH1 0x0 PUSH1 0x20 DUP3 ADD SWAP1 POP DUP2 DUP2 SUB PUSH1 0x0 DUP4 ADD MSTORE PUSH2 0x119D DUP2 PUSH2 0x1161 JUMP JUMPDEST SWAP1 POP SWAP2 SWAP1 POP JUMP JUMPDEST PUSH32 0x4E6F2076616C6964206372656469742063617264000000000000000000000000 PUSH1 0x0 DUP3 ADD MSTORE POP JUMP JUMPDEST PUSH1 0x0 PUSH2 0x11DA PUSH1 0x14 DUP4 PUSH2 0xB52 JUMP JUMPDEST SWAP2 POP PUSH2 0x11E5 DUP3 PUSH2 0x11A4 JUMP JUMPDEST PUSH1 0x20 DUP3 ADD SWAP1 POP SWAP2 SWAP1 POP JUMP JUMPDEST PUSH1 0x0 PUSH1 0x20 DUP3 ADD SWAP1 POP DUP2 DUP2 SUB PUSH1 0x0 DUP4 ADD MSTORE PUSH2 0x1209 DUP2 PUSH2 0x11CD JUMP JUMPDEST SWAP1 POP SWAP2 SWAP1 POP JUMP INVALID LOG2 PUSH5 0x6970667358 0x22 SLT KECCAK256 AND PUSH6 0x7721C8355346 DUP5 DUP16 COINBASE ADD 0x5D SAR SDIV EXP 0xC5 DELEGATECALL PUSH11 0x74B8B77CAF2CBAC3AF0303 ISZERO SELFBALANCE PUSH5 0x736F6C6343 STOP ADDMOD 0xF STOP CALLER "
				},
				"gasEstimates": {
					"creation": {
						"codeDepositCost": "935600",
						"executionCost": "infinite",
						"totalCost": "infinite"
					},
					"external": {
						"TotalAmount()": "2474",
						"TotalFunds()": "2452",
						"amount()": "2473",
						"callCount()": "2518",
						"callPutCard()": "2516",
						"cardNumber()": "infinite",
						"countTransfer()": "2452",
						"cvv()": "infinite",
						"firstTransferTime()": "2475",
						"getOutCard()": "24478",
						"message()": "infinite",
						"receiverFunds()": "2495",
						"sendMoney(uint256,address)": "infinite",
						"setCard(string,string)": "infinite",
						"totalWeekTransactions()": "2451"
					}
				},
				"methodIdentifiers": {
					"TotalAmount()": "7eb9f571",
					"TotalFunds()": "7b9a3f4c",
					"amount()": "aa8c217c",
					"callCount()": "4b28f9a2",
					"callPutCard()": "3c626f00",
					"cardNumber()": "8fa11864",
					"countTransfer()": "34f5ccde",
					"cvv()": "42fb7936",
					"firstTransferTime()": "0e85fa72",
					"getOutCard()": "8e029c0b",
					"message()": "e21f37ce",
					"receiverFunds()": "bc309496",
					"sendMoney(uint256,address)": "062a7544",
					"setCard(string,string)": "12a029a4",
					"totalWeekTransactions()": "94b5dcaa"
				}
			},
			"storageLayout": {
				"storage": [
					{
						"astId": 3,
						"contract": "Dapp/MoneyTransfer.sol:MoneyTransfer",
						"label": "amount",
						"offset": 0,
						"slot": "0",
						"type": "t_uint256"
					},
					{
						"astId": 5,
						"contract": "Dapp/MoneyTransfer.sol:MoneyTransfer",
						"label": "TotalFunds",
						"offset": 0,
						"slot": "1",
						"type": "t_uint256"
					},
					{
						"astId": 7,
						"contract": "Dapp/MoneyTransfer.sol:MoneyTransfer",
						"label": "receiver",
						"offset": 0,
						"slot": "2",
						"type": "t_address"
					},
					{
						"astId": 13,
						"contract": "Dapp/MoneyTransfer.sol:MoneyTransfer",
						"label": "day",
						"offset": 0,
						"slot": "3",
						"type": "t_uint256"
					},
					{
						"astId": 15,
						"contract": "Dapp/MoneyTransfer.sol:MoneyTransfer",
						"label": "totalWeekTransactions",
						"offset": 0,
						"slot": "4",
						"type": "t_uint256"
					},
					{
						"astId": 17,
						"contract": "Dapp/MoneyTransfer.sol:MoneyTransfer",
						"label": "maxTransaction",
						"offset": 0,
						"slot": "5",
						"type": "t_uint256"
					},
					{
						"astId": 19,
						"contract": "Dapp/MoneyTransfer.sol:MoneyTransfer",
						"label": "minTransaction",
						"offset": 0,
						"slot": "6",
						"type": "t_uint256"
					},
					{
						"astId": 22,
						"contract": "Dapp/MoneyTransfer.sol:MoneyTransfer",
						"label": "countries",
						"offset": 0,
						"slot": "7",
						"type": "t_array(t_uint256)dyn_storage"
					},
					{
						"astId": 24,
						"contract": "Dapp/MoneyTransfer.sol:MoneyTransfer",
						"label": "receiverFunds",
						"offset": 0,
						"slot": "8",
						"type": "t_uint256"
					},
					{
						"astId": 26,
						"contract": "Dapp/MoneyTransfer.sol:MoneyTransfer",
						"label": "message",
						"offset": 0,
						"slot": "9",
						"type": "t_string_storage"
					},
					{
						"astId": 28,
						"contract": "Dapp/MoneyTransfer.sol:MoneyTransfer",
						"label": "cardNumber",
						"offset": 0,
						"slot": "10",
						"type": "t_string_storage"
					},
					{
						"astId": 30,
						"contract": "Dapp/MoneyTransfer.sol:MoneyTransfer",
						"label": "cvv",
						"offset": 0,
						"slot": "11",
						"type": "t_string_storage"
					},
					{
						"astId": 32,
						"contract": "Dapp/MoneyTransfer.sol:MoneyTransfer",
						"label": "TotalAmount",
						"offset": 0,
						"slot": "12",
						"type": "t_uint256"
					},
					{
						"astId": 34,
						"contract": "Dapp/MoneyTransfer.sol:MoneyTransfer",
						"label": "firstTransferTime",
						"offset": 0,
						"slot": "13",
						"type": "t_uint256"
					},
					{
						"astId": 36,
						"contract": "Dapp/MoneyTransfer.sol:MoneyTransfer",
						"label": "countTransfer",
						"offset": 0,
						"slot": "14",
						"type": "t_uint256"
					},
					{
						"astId": 49,
						"contract": "Dapp/MoneyTransfer.sol:MoneyTransfer",
						"label": "callCount",
						"offset": 0,
						"slot": "15",
						"type": "t_uint256"
					},
					{
						"astId": 52,
						"contract": "Dapp/MoneyTransfer.sol:MoneyTransfer",
						"label": "callPutCard",
						"offset": 0,
						"slot": "16",
						"type": "t_bool"
					}
				],
				"types": {
					"t_address": {
						"encoding": "inplace",
						"label": "address",
						"numberOfBytes": "20"
					},
					"t_array(t_uint256)dyn_storage": {
						"base": "t_uint256",
						"encoding": "dynamic_array",
						"label": "uint256[]",
						"numberOfBytes": "32"
					},
					"t_bool": {
						"encoding": "inplace",
						"label": "bool",
						"numberOfBytes": "1"
					},
					"t_string_storage": {
						"encoding": "bytes",
						"label": "string",
						"numberOfBytes": "32"
					},
					"t_uint256": {
						"encoding": "inplace",
						"label": "uint256",
						"numberOfBytes": "32"
					}
				}
			},
			"userdoc": {
				"kind": "user",
				"methods": {},
				"version": 1
			}
		}
	}
}