{
	"Dapp/Transaction.sol": {
		"Transaction": {
			"abi": [
				{
					"inputs": [],
					"name": "getNumberOfTransactions",
					"outputs": [
						{
							"internalType": "uint256",
							"name": "",
							"type": "uint256"
						}
					],
					"stateMutability": "view",
					"type": "function"
				},
				{
					"inputs": [
						{
							"internalType": "uint256",
							"name": "no_transactions",
							"type": "uint256"
						}
					],
					"name": "getTransaction",
					"outputs": [
						{
							"components": [
								{
									"internalType": "address",
									"name": "address_from",
									"type": "address"
								},
								{
									"internalType": "address",
									"name": "address_to",
									"type": "address"
								},
								{
									"internalType": "uint256",
									"name": "amount",
									"type": "uint256"
								},
								{
									"internalType": "uint256",
									"name": "timestamp",
									"type": "uint256"
								}
							],
							"internalType": "struct Transaction.Transactions",
							"name": "",
							"type": "tuple"
						}
					],
					"stateMutability": "view",
					"type": "function"
				},
				{
					"inputs": [
						{
							"internalType": "uint256",
							"name": "_index",
							"type": "uint256"
						}
					],
					"name": "getTransactionById",
					"outputs": [
						{
							"components": [
								{
									"internalType": "address",
									"name": "address_from",
									"type": "address"
								},
								{
									"internalType": "address",
									"name": "address_to",
									"type": "address"
								},
								{
									"internalType": "uint256",
									"name": "amount",
									"type": "uint256"
								},
								{
									"internalType": "uint256",
									"name": "timestamp",
									"type": "uint256"
								}
							],
							"internalType": "struct Transaction.Transactions",
							"name": "",
							"type": "tuple"
						}
					],
					"stateMutability": "view",
					"type": "function"
				},
				{
					"inputs": [],
					"name": "getTransactions",
					"outputs": [
						{
							"components": [
								{
									"internalType": "address",
									"name": "address_from",
									"type": "address"
								},
								{
									"internalType": "address",
									"name": "address_to",
									"type": "address"
								},
								{
									"internalType": "uint256",
									"name": "amount",
									"type": "uint256"
								},
								{
									"internalType": "uint256",
									"name": "timestamp",
									"type": "uint256"
								}
							],
							"internalType": "struct Transaction.Transactions[]",
							"name": "",
							"type": "tuple[]"
						}
					],
					"stateMutability": "view",
					"type": "function"
				},
				{
					"inputs": [
						{
							"internalType": "uint256",
							"name": "",
							"type": "uint256"
						}
					],
					"name": "transactionList",
					"outputs": [
						{
							"internalType": "address",
							"name": "address_from",
							"type": "address"
						},
						{
							"internalType": "address",
							"name": "address_to",
							"type": "address"
						},
						{
							"internalType": "uint256",
							"name": "amount",
							"type": "uint256"
						},
						{
							"internalType": "uint256",
							"name": "timestamp",
							"type": "uint256"
						}
					],
					"stateMutability": "view",
					"type": "function"
				},
				{
					"inputs": [
						{
							"internalType": "uint256",
							"name": "",
							"type": "uint256"
						}
					],
					"name": "trn",
					"outputs": [
						{
							"internalType": "address",
							"name": "address_from",
							"type": "address"
						},
						{
							"internalType": "address",
							"name": "address_to",
							"type": "address"
						},
						{
							"internalType": "uint256",
							"name": "amount",
							"type": "uint256"
						},
						{
							"internalType": "uint256",
							"name": "timestamp",
							"type": "uint256"
						}
					],
					"stateMutability": "view",
					"type": "function"
				}
			],
			"devdoc": {
				"kind": "dev",
				"methods": {},
				"version": 1
			},
			"evm": {
				"assembly": "    /* \"Dapp/Transaction.sol\":65:1247  contract Transaction{... */\n  mstore(0x40, 0x80)\n    /* \"Dapp/Transaction.sol\":346:347  0 */\n  0x00\n    /* \"Dapp/Transaction.sol\":331:347  uint counter = 0 */\n  0x02\n  sstore\n    /* \"Dapp/Transaction.sol\":65:1247  contract Transaction{... */\n  callvalue\n  dup1\n  iszero\n  tag_1\n  jumpi\n  0x00\n  dup1\n  revert\ntag_1:\n  pop\n  dataSize(sub_0)\n  dup1\n  dataOffset(sub_0)\n  0x00\n  codecopy\n  0x00\n  return\nstop\n\nsub_0: assembly {\n        /* \"Dapp/Transaction.sol\":65:1247  contract Transaction{... */\n      mstore(0x40, 0x80)\n      callvalue\n      dup1\n      iszero\n      tag_1\n      jumpi\n      0x00\n      dup1\n      revert\n    tag_1:\n      pop\n      jumpi(tag_2, lt(calldatasize, 0x04))\n      shr(0xe0, calldataload(0x00))\n      dup1\n      0x04ef5b21\n      eq\n      tag_3\n      jumpi\n      dup1\n      0x24ba506d\n      eq\n      tag_4\n      jumpi\n      dup1\n      0x33ea3dc8\n      eq\n      tag_5\n      jumpi\n      dup1\n      0x57bf72e3\n      eq\n      tag_6\n      jumpi\n      dup1\n      0x83920e90\n      eq\n      tag_7\n      jumpi\n      dup1\n      0xf4b30eaf\n      eq\n      tag_8\n      jumpi\n    tag_2:\n      0x00\n      dup1\n      revert\n        /* \"Dapp/Transaction.sol\":237:274  Transactions[] public transactionList */\n    tag_3:\n      tag_9\n      0x04\n      dup1\n      calldatasize\n      sub\n      dup2\n      add\n      swap1\n      tag_10\n      swap2\n      swap1\n      tag_11\n      jump\t// in\n    tag_10:\n      tag_12\n      jump\t// in\n    tag_9:\n      mload(0x40)\n      tag_13\n      swap5\n      swap4\n      swap3\n      swap2\n      swap1\n      tag_14\n      jump\t// in\n    tag_13:\n      mload(0x40)\n      dup1\n      swap2\n      sub\n      swap1\n      return\n        /* \"Dapp/Transaction.sol\":961:1054  function getNumberOfTransactions() public view returns(uint){... */\n    tag_4:\n      tag_15\n      tag_16\n      jump\t// in\n    tag_15:\n      mload(0x40)\n      tag_17\n      swap2\n      swap1\n      tag_18\n      jump\t// in\n    tag_17:\n      mload(0x40)\n      dup1\n      swap2\n      sub\n      swap1\n      return\n        /* \"Dapp/Transaction.sol\":1062:1240  function getTransaction(uint no_transactions) public view returns(Transactions memory){... */\n    tag_5:\n      tag_19\n      0x04\n      dup1\n      calldatasize\n      sub\n      dup2\n      add\n      swap1\n      tag_20\n      swap2\n      swap1\n      tag_11\n      jump\t// in\n    tag_20:\n      tag_21\n      jump\t// in\n    tag_19:\n      mload(0x40)\n      tag_22\n      swap2\n      swap1\n      tag_23\n      jump\t// in\n    tag_22:\n      mload(0x40)\n      dup1\n      swap2\n      sub\n      swap1\n      return\n        /* \"Dapp/Transaction.sol\":283:324  mapping (uint => Transactions) public trn */\n    tag_6:\n      tag_24\n      0x04\n      dup1\n      calldatasize\n      sub\n      dup2\n      add\n      swap1\n      tag_25\n      swap2\n      swap1\n      tag_11\n      jump\t// in\n    tag_25:\n      tag_26\n      jump\t// in\n    tag_24:\n      mload(0x40)\n      tag_27\n      swap5\n      swap4\n      swap3\n      swap2\n      swap1\n      tag_14\n      jump\t// in\n    tag_27:\n      mload(0x40)\n      dup1\n      swap2\n      sub\n      swap1\n      return\n        /* \"Dapp/Transaction.sol\":715:827  function getTransactions() public view returns(Transactions[] memory){... */\n    tag_7:\n      tag_28\n      tag_29\n      jump\t// in\n    tag_28:\n      mload(0x40)\n      tag_30\n      swap2\n      swap1\n      tag_31\n      jump\t// in\n    tag_30:\n      mload(0x40)\n      dup1\n      swap2\n      sub\n      swap1\n      return\n        /* \"Dapp/Transaction.sol\":835:953  function getTransactionById(uint _index)public view returns(Transactions memory){... */\n    tag_8:\n      tag_32\n      0x04\n      dup1\n      calldatasize\n      sub\n      dup2\n      add\n      swap1\n      tag_33\n      swap2\n      swap1\n      tag_11\n      jump\t// in\n    tag_33:\n      tag_34\n      jump\t// in\n    tag_32:\n      mload(0x40)\n      tag_35\n      swap2\n      swap1\n      tag_23\n      jump\t// in\n    tag_35:\n      mload(0x40)\n      dup1\n      swap2\n      sub\n      swap1\n      return\n        /* \"Dapp/Transaction.sol\":237:274  Transactions[] public transactionList */\n    tag_12:\n      0x00\n      dup2\n      dup2\n      sload\n      dup2\n      lt\n      tag_36\n      jumpi\n      0x00\n      dup1\n      revert\n    tag_36:\n      swap1\n      0x00\n      mstore\n      keccak256(0x00, 0x20)\n      swap1\n      0x04\n      mul\n      add\n      0x00\n      swap2\n      pop\n      swap1\n      pop\n      dup1\n      0x00\n      add\n      0x00\n      swap1\n      sload\n      swap1\n      0x0100\n      exp\n      swap1\n      div\n      0xffffffffffffffffffffffffffffffffffffffff\n      and\n      swap1\n      dup1\n      0x01\n      add\n      0x00\n      swap1\n      sload\n      swap1\n      0x0100\n      exp\n      swap1\n      div\n      0xffffffffffffffffffffffffffffffffffffffff\n      and\n      swap1\n      dup1\n      0x02\n      add\n      sload\n      swap1\n      dup1\n      0x03\n      add\n      sload\n      swap1\n      pop\n      dup5\n      jump\t// out\n        /* \"Dapp/Transaction.sol\":961:1054  function getNumberOfTransactions() public view returns(uint){... */\n    tag_16:\n        /* \"Dapp/Transaction.sol\":1016:1020  uint */\n      0x00\n        /* \"Dapp/Transaction.sol\":1039:1046  counter */\n      sload(0x02)\n        /* \"Dapp/Transaction.sol\":1032:1046  return counter */\n      swap1\n      pop\n        /* \"Dapp/Transaction.sol\":961:1054  function getNumberOfTransactions() public view returns(uint){... */\n      swap1\n      jump\t// out\n        /* \"Dapp/Transaction.sol\":1062:1240  function getTransaction(uint no_transactions) public view returns(Transactions memory){... */\n    tag_21:\n        /* \"Dapp/Transaction.sol\":1128:1147  Transactions memory */\n      tag_39\n      tag_40\n      jump\t// in\n    tag_39:\n        /* \"Dapp/Transaction.sol\":1159:1165  uint x */\n      0x00\n        /* \"Dapp/Transaction.sol\":1193:1208  no_transactions */\n      dup3\n        /* \"Dapp/Transaction.sol\":1168:1183  transactionList */\n      0x00\n        /* \"Dapp/Transaction.sol\":1168:1190  transactionList.length */\n      dup1\n      sload\n      swap1\n      pop\n        /* \"Dapp/Transaction.sol\":1168:1208  transactionList.length - no_transactions */\n      tag_42\n      swap2\n      swap1\n      tag_43\n      jump\t// in\n    tag_42:\n        /* \"Dapp/Transaction.sol\":1159:1208  uint x = transactionList.length - no_transactions */\n      swap1\n      pop\n        /* \"Dapp/Transaction.sol\":1226:1229  trn */\n      0x01\n        /* \"Dapp/Transaction.sol\":1226:1232  trn[x] */\n      0x00\n        /* \"Dapp/Transaction.sol\":1230:1231  x */\n      dup3\n        /* \"Dapp/Transaction.sol\":1226:1232  trn[x] */\n      dup2\n      mstore\n      0x20\n      add\n      swap1\n      dup2\n      mstore\n      0x20\n      add\n      0x00\n      keccak256\n        /* \"Dapp/Transaction.sol\":1219:1232  return trn[x] */\n      mload(0x40)\n      dup1\n      0x80\n      add\n      0x40\n      mstore\n      swap1\n      dup2\n      0x00\n      dup3\n      add\n      0x00\n      swap1\n      sload\n      swap1\n      0x0100\n      exp\n      swap1\n      div\n      0xffffffffffffffffffffffffffffffffffffffff\n      and\n      0xffffffffffffffffffffffffffffffffffffffff\n      and\n      0xffffffffffffffffffffffffffffffffffffffff\n      and\n      dup2\n      mstore\n      0x20\n      add\n      0x01\n      dup3\n      add\n      0x00\n      swap1\n      sload\n      swap1\n      0x0100\n      exp\n      swap1\n      div\n      0xffffffffffffffffffffffffffffffffffffffff\n      and\n      0xffffffffffffffffffffffffffffffffffffffff\n      and\n      0xffffffffffffffffffffffffffffffffffffffff\n      and\n      dup2\n      mstore\n      0x20\n      add\n      0x02\n      dup3\n      add\n      sload\n      dup2\n      mstore\n      0x20\n      add\n      0x03\n      dup3\n      add\n      sload\n      dup2\n      mstore\n      pop\n      pop\n      swap2\n      pop\n      pop\n        /* \"Dapp/Transaction.sol\":1062:1240  function getTransaction(uint no_transactions) public view returns(Transactions memory){... */\n      swap2\n      swap1\n      pop\n      jump\t// out\n        /* \"Dapp/Transaction.sol\":283:324  mapping (uint => Transactions) public trn */\n    tag_26:\n      mstore(0x20, 0x01)\n      dup1\n      0x00\n      mstore\n      keccak256(0x00, 0x40)\n      0x00\n      swap2\n      pop\n      swap1\n      pop\n      dup1\n      0x00\n      add\n      0x00\n      swap1\n      sload\n      swap1\n      0x0100\n      exp\n      swap1\n      div\n      0xffffffffffffffffffffffffffffffffffffffff\n      and\n      swap1\n      dup1\n      0x01\n      add\n      0x00\n      swap1\n      sload\n      swap1\n      0x0100\n      exp\n      swap1\n      div\n      0xffffffffffffffffffffffffffffffffffffffff\n      and\n      swap1\n      dup1\n      0x02\n      add\n      sload\n      swap1\n      dup1\n      0x03\n      add\n      sload\n      swap1\n      pop\n      dup5\n      jump\t// out\n        /* \"Dapp/Transaction.sol\":715:827  function getTransactions() public view returns(Transactions[] memory){... */\n    tag_29:\n        /* \"Dapp/Transaction.sol\":762:783  Transactions[] memory */\n      0x60\n        /* \"Dapp/Transaction.sol\":804:819  transactionList */\n      0x00\n        /* \"Dapp/Transaction.sol\":797:819  return transactionList */\n      dup1\n      sload\n      dup1\n      0x20\n      mul\n      0x20\n      add\n      mload(0x40)\n      swap1\n      dup2\n      add\n      0x40\n      mstore\n      dup1\n      swap3\n      swap2\n      swap1\n      dup2\n      dup2\n      mstore\n      0x20\n      add\n      0x00\n      swap1\n    tag_45:\n      dup3\n      dup3\n      lt\n      iszero\n      tag_46\n      jumpi\n      dup4\n      dup3\n      swap1\n      0x00\n      mstore\n      keccak256(0x00, 0x20)\n      swap1\n      0x04\n      mul\n      add\n      mload(0x40)\n      dup1\n      0x80\n      add\n      0x40\n      mstore\n      swap1\n      dup2\n      0x00\n      dup3\n      add\n      0x00\n      swap1\n      sload\n      swap1\n      0x0100\n      exp\n      swap1\n      div\n      0xffffffffffffffffffffffffffffffffffffffff\n      and\n      0xffffffffffffffffffffffffffffffffffffffff\n      and\n      0xffffffffffffffffffffffffffffffffffffffff\n      and\n      dup2\n      mstore\n      0x20\n      add\n      0x01\n      dup3\n      add\n      0x00\n      swap1\n      sload\n      swap1\n      0x0100\n      exp\n      swap1\n      div\n      0xffffffffffffffffffffffffffffffffffffffff\n      and\n      0xffffffffffffffffffffffffffffffffffffffff\n      and\n      0xffffffffffffffffffffffffffffffffffffffff\n      and\n      dup2\n      mstore\n      0x20\n      add\n      0x02\n      dup3\n      add\n      sload\n      dup2\n      mstore\n      0x20\n      add\n      0x03\n      dup3\n      add\n      sload\n      dup2\n      mstore\n      pop\n      pop\n      dup2\n      mstore\n      0x20\n      add\n      swap1\n      0x01\n      add\n      swap1\n      jump(tag_45)\n    tag_46:\n      pop\n      pop\n      pop\n      pop\n      swap1\n      pop\n        /* \"Dapp/Transaction.sol\":715:827  function getTransactions() public view returns(Transactions[] memory){... */\n      swap1\n      jump\t// out\n        /* \"Dapp/Transaction.sol\":835:953  function getTransactionById(uint _index)public view returns(Transactions memory){... */\n    tag_34:\n        /* \"Dapp/Transaction.sol\":895:914  Transactions memory */\n      tag_48\n      tag_40\n      jump\t// in\n    tag_48:\n        /* \"Dapp/Transaction.sol\":933:936  trn */\n      0x01\n        /* \"Dapp/Transaction.sol\":933:944  trn[_index] */\n      0x00\n        /* \"Dapp/Transaction.sol\":937:943  _index */\n      dup4\n        /* \"Dapp/Transaction.sol\":933:944  trn[_index] */\n      dup2\n      mstore\n      0x20\n      add\n      swap1\n      dup2\n      mstore\n      0x20\n      add\n      0x00\n      keccak256\n        /* \"Dapp/Transaction.sol\":926:944  return trn[_index] */\n      mload(0x40)\n      dup1\n      0x80\n      add\n      0x40\n      mstore\n      swap1\n      dup2\n      0x00\n      dup3\n      add\n      0x00\n      swap1\n      sload\n      swap1\n      0x0100\n      exp\n      swap1\n      div\n      0xffffffffffffffffffffffffffffffffffffffff\n      and\n      0xffffffffffffffffffffffffffffffffffffffff\n      and\n      0xffffffffffffffffffffffffffffffffffffffff\n      and\n      dup2\n      mstore\n      0x20\n      add\n      0x01\n      dup3\n      add\n      0x00\n      swap1\n      sload\n      swap1\n      0x0100\n      exp\n      swap1\n      div\n      0xffffffffffffffffffffffffffffffffffffffff\n      and\n      0xffffffffffffffffffffffffffffffffffffffff\n      and\n      0xffffffffffffffffffffffffffffffffffffffff\n      and\n      dup2\n      mstore\n      0x20\n      add\n      0x02\n      dup3\n      add\n      sload\n      dup2\n      mstore\n      0x20\n      add\n      0x03\n      dup3\n      add\n      sload\n      dup2\n      mstore\n      pop\n      pop\n      swap1\n      pop\n        /* \"Dapp/Transaction.sol\":835:953  function getTransactionById(uint _index)public view returns(Transactions memory){... */\n      swap2\n      swap1\n      pop\n      jump\t// out\n    tag_40:\n      mload(0x40)\n      dup1\n      0x80\n      add\n      0x40\n      mstore\n      dup1\n      and(0xffffffffffffffffffffffffffffffffffffffff, 0x00)\n      dup2\n      mstore\n      0x20\n      add\n      and(0xffffffffffffffffffffffffffffffffffffffff, 0x00)\n      dup2\n      mstore\n      0x20\n      add\n      0x00\n      dup2\n      mstore\n      0x20\n      add\n      0x00\n      dup2\n      mstore\n      pop\n      swap1\n      jump\t// out\n        /* \"#utility.yul\":88:205   */\n    tag_51:\n        /* \"#utility.yul\":197:198   */\n      0x00\n        /* \"#utility.yul\":194:195   */\n      dup1\n        /* \"#utility.yul\":187:199   */\n      revert\n        /* \"#utility.yul\":334:411   */\n    tag_53:\n        /* \"#utility.yul\":371:378   */\n      0x00\n        /* \"#utility.yul\":400:405   */\n      dup2\n        /* \"#utility.yul\":389:405   */\n      swap1\n      pop\n        /* \"#utility.yul\":334:411   */\n      swap2\n      swap1\n      pop\n      jump\t// out\n        /* \"#utility.yul\":417:539   */\n    tag_54:\n        /* \"#utility.yul\":490:514   */\n      tag_77\n        /* \"#utility.yul\":508:513   */\n      dup2\n        /* \"#utility.yul\":490:514   */\n      tag_53\n      jump\t// in\n    tag_77:\n        /* \"#utility.yul\":483:488   */\n      dup2\n        /* \"#utility.yul\":480:515   */\n      eq\n        /* \"#utility.yul\":470:533   */\n      tag_78\n      jumpi\n        /* \"#utility.yul\":529:530   */\n      0x00\n        /* \"#utility.yul\":526:527   */\n      dup1\n        /* \"#utility.yul\":519:531   */\n      revert\n        /* \"#utility.yul\":470:533   */\n    tag_78:\n        /* \"#utility.yul\":417:539   */\n      pop\n      jump\t// out\n        /* \"#utility.yul\":545:684   */\n    tag_55:\n        /* \"#utility.yul\":591:596   */\n      0x00\n        /* \"#utility.yul\":629:635   */\n      dup2\n        /* \"#utility.yul\":616:636   */\n      calldataload\n        /* \"#utility.yul\":607:636   */\n      swap1\n      pop\n        /* \"#utility.yul\":645:678   */\n      tag_80\n        /* \"#utility.yul\":672:677   */\n      dup2\n        /* \"#utility.yul\":645:678   */\n      tag_54\n      jump\t// in\n    tag_80:\n        /* \"#utility.yul\":545:684   */\n      swap3\n      swap2\n      pop\n      pop\n      jump\t// out\n        /* \"#utility.yul\":690:1019   */\n    tag_11:\n        /* \"#utility.yul\":749:755   */\n      0x00\n        /* \"#utility.yul\":798:800   */\n      0x20\n        /* \"#utility.yul\":786:795   */\n      dup3\n        /* \"#utility.yul\":777:784   */\n      dup5\n        /* \"#utility.yul\":773:796   */\n      sub\n        /* \"#utility.yul\":769:801   */\n      slt\n        /* \"#utility.yul\":766:885   */\n      iszero\n      tag_82\n      jumpi\n        /* \"#utility.yul\":804:883   */\n      tag_83\n      tag_51\n      jump\t// in\n    tag_83:\n        /* \"#utility.yul\":766:885   */\n    tag_82:\n        /* \"#utility.yul\":924:925   */\n      0x00\n        /* \"#utility.yul\":949:1002   */\n      tag_84\n        /* \"#utility.yul\":994:1001   */\n      dup5\n        /* \"#utility.yul\":985:991   */\n      dup3\n        /* \"#utility.yul\":974:983   */\n      dup6\n        /* \"#utility.yul\":970:992   */\n      add\n        /* \"#utility.yul\":949:1002   */\n      tag_55\n      jump\t// in\n    tag_84:\n        /* \"#utility.yul\":939:1002   */\n      swap2\n      pop\n        /* \"#utility.yul\":895:1012   */\n      pop\n        /* \"#utility.yul\":690:1019   */\n      swap3\n      swap2\n      pop\n      pop\n      jump\t// out\n        /* \"#utility.yul\":1025:1151   */\n    tag_56:\n        /* \"#utility.yul\":1062:1069   */\n      0x00\n        /* \"#utility.yul\":1102:1144   */\n      0xffffffffffffffffffffffffffffffffffffffff\n        /* \"#utility.yul\":1095:1100   */\n      dup3\n        /* \"#utility.yul\":1091:1145   */\n      and\n        /* \"#utility.yul\":1080:1145   */\n      swap1\n      pop\n        /* \"#utility.yul\":1025:1151   */\n      swap2\n      swap1\n      pop\n      jump\t// out\n        /* \"#utility.yul\":1157:1253   */\n    tag_57:\n        /* \"#utility.yul\":1194:1201   */\n      0x00\n        /* \"#utility.yul\":1223:1247   */\n      tag_87\n        /* \"#utility.yul\":1241:1246   */\n      dup3\n        /* \"#utility.yul\":1223:1247   */\n      tag_56\n      jump\t// in\n    tag_87:\n        /* \"#utility.yul\":1212:1247   */\n      swap1\n      pop\n        /* \"#utility.yul\":1157:1253   */\n      swap2\n      swap1\n      pop\n      jump\t// out\n        /* \"#utility.yul\":1259:1377   */\n    tag_58:\n        /* \"#utility.yul\":1346:1370   */\n      tag_89\n        /* \"#utility.yul\":1364:1369   */\n      dup2\n        /* \"#utility.yul\":1346:1370   */\n      tag_57\n      jump\t// in\n    tag_89:\n        /* \"#utility.yul\":1341:1344   */\n      dup3\n        /* \"#utility.yul\":1334:1371   */\n      mstore\n        /* \"#utility.yul\":1259:1377   */\n      pop\n      pop\n      jump\t// out\n        /* \"#utility.yul\":1383:1501   */\n    tag_59:\n        /* \"#utility.yul\":1470:1494   */\n      tag_91\n        /* \"#utility.yul\":1488:1493   */\n      dup2\n        /* \"#utility.yul\":1470:1494   */\n      tag_53\n      jump\t// in\n    tag_91:\n        /* \"#utility.yul\":1465:1468   */\n      dup3\n        /* \"#utility.yul\":1458:1495   */\n      mstore\n        /* \"#utility.yul\":1383:1501   */\n      pop\n      pop\n      jump\t// out\n        /* \"#utility.yul\":1507:2060   */\n    tag_14:\n        /* \"#utility.yul\":1684:1688   */\n      0x00\n        /* \"#utility.yul\":1722:1725   */\n      0x80\n        /* \"#utility.yul\":1711:1720   */\n      dup3\n        /* \"#utility.yul\":1707:1726   */\n      add\n        /* \"#utility.yul\":1699:1726   */\n      swap1\n      pop\n        /* \"#utility.yul\":1736:1807   */\n      tag_93\n        /* \"#utility.yul\":1804:1805   */\n      0x00\n        /* \"#utility.yul\":1793:1802   */\n      dup4\n        /* \"#utility.yul\":1789:1806   */\n      add\n        /* \"#utility.yul\":1780:1786   */\n      dup8\n        /* \"#utility.yul\":1736:1807   */\n      tag_58\n      jump\t// in\n    tag_93:\n        /* \"#utility.yul\":1817:1889   */\n      tag_94\n        /* \"#utility.yul\":1885:1887   */\n      0x20\n        /* \"#utility.yul\":1874:1883   */\n      dup4\n        /* \"#utility.yul\":1870:1888   */\n      add\n        /* \"#utility.yul\":1861:1867   */\n      dup7\n        /* \"#utility.yul\":1817:1889   */\n      tag_58\n      jump\t// in\n    tag_94:\n        /* \"#utility.yul\":1899:1971   */\n      tag_95\n        /* \"#utility.yul\":1967:1969   */\n      0x40\n        /* \"#utility.yul\":1956:1965   */\n      dup4\n        /* \"#utility.yul\":1952:1970   */\n      add\n        /* \"#utility.yul\":1943:1949   */\n      dup6\n        /* \"#utility.yul\":1899:1971   */\n      tag_59\n      jump\t// in\n    tag_95:\n        /* \"#utility.yul\":1981:2053   */\n      tag_96\n        /* \"#utility.yul\":2049:2051   */\n      0x60\n        /* \"#utility.yul\":2038:2047   */\n      dup4\n        /* \"#utility.yul\":2034:2052   */\n      add\n        /* \"#utility.yul\":2025:2031   */\n      dup5\n        /* \"#utility.yul\":1981:2053   */\n      tag_59\n      jump\t// in\n    tag_96:\n        /* \"#utility.yul\":1507:2060   */\n      swap6\n      swap5\n      pop\n      pop\n      pop\n      pop\n      pop\n      jump\t// out\n        /* \"#utility.yul\":2066:2288   */\n    tag_18:\n        /* \"#utility.yul\":2159:2163   */\n      0x00\n        /* \"#utility.yul\":2197:2199   */\n      0x20\n        /* \"#utility.yul\":2186:2195   */\n      dup3\n        /* \"#utility.yul\":2182:2200   */\n      add\n        /* \"#utility.yul\":2174:2200   */\n      swap1\n      pop\n        /* \"#utility.yul\":2210:2281   */\n      tag_98\n        /* \"#utility.yul\":2278:2279   */\n      0x00\n        /* \"#utility.yul\":2267:2276   */\n      dup4\n        /* \"#utility.yul\":2263:2280   */\n      add\n        /* \"#utility.yul\":2254:2260   */\n      dup5\n        /* \"#utility.yul\":2210:2281   */\n      tag_59\n      jump\t// in\n    tag_98:\n        /* \"#utility.yul\":2066:2288   */\n      swap3\n      swap2\n      pop\n      pop\n      jump\t// out\n        /* \"#utility.yul\":2294:2402   */\n    tag_60:\n        /* \"#utility.yul\":2371:2395   */\n      tag_100\n        /* \"#utility.yul\":2389:2394   */\n      dup2\n        /* \"#utility.yul\":2371:2395   */\n      tag_57\n      jump\t// in\n    tag_100:\n        /* \"#utility.yul\":2366:2369   */\n      dup3\n        /* \"#utility.yul\":2359:2396   */\n      mstore\n        /* \"#utility.yul\":2294:2402   */\n      pop\n      pop\n      jump\t// out\n        /* \"#utility.yul\":2408:2516   */\n    tag_61:\n        /* \"#utility.yul\":2485:2509   */\n      tag_102\n        /* \"#utility.yul\":2503:2508   */\n      dup2\n        /* \"#utility.yul\":2485:2509   */\n      tag_53\n      jump\t// in\n    tag_102:\n        /* \"#utility.yul\":2480:2483   */\n      dup3\n        /* \"#utility.yul\":2473:2510   */\n      mstore\n        /* \"#utility.yul\":2408:2516   */\n      pop\n      pop\n      jump\t// out\n        /* \"#utility.yul\":2596:3478   */\n    tag_62:\n        /* \"#utility.yul\":2749:2753   */\n      0x80\n        /* \"#utility.yul\":2744:2747   */\n      dup3\n        /* \"#utility.yul\":2740:2754   */\n      add\n        /* \"#utility.yul\":2844:2848   */\n      0x00\n        /* \"#utility.yul\":2837:2842   */\n      dup3\n        /* \"#utility.yul\":2833:2849   */\n      add\n        /* \"#utility.yul\":2827:2850   */\n      mload\n        /* \"#utility.yul\":2863:2926   */\n      tag_104\n        /* \"#utility.yul\":2920:2924   */\n      0x00\n        /* \"#utility.yul\":2915:2918   */\n      dup6\n        /* \"#utility.yul\":2911:2925   */\n      add\n        /* \"#utility.yul\":2897:2909   */\n      dup3\n        /* \"#utility.yul\":2863:2926   */\n      tag_60\n      jump\t// in\n    tag_104:\n        /* \"#utility.yul\":2764:2936   */\n      pop\n        /* \"#utility.yul\":3024:3028   */\n      0x20\n        /* \"#utility.yul\":3017:3022   */\n      dup3\n        /* \"#utility.yul\":3013:3029   */\n      add\n        /* \"#utility.yul\":3007:3030   */\n      mload\n        /* \"#utility.yul\":3043:3106   */\n      tag_105\n        /* \"#utility.yul\":3100:3104   */\n      0x20\n        /* \"#utility.yul\":3095:3098   */\n      dup6\n        /* \"#utility.yul\":3091:3105   */\n      add\n        /* \"#utility.yul\":3077:3089   */\n      dup3\n        /* \"#utility.yul\":3043:3106   */\n      tag_60\n      jump\t// in\n    tag_105:\n        /* \"#utility.yul\":2946:3116   */\n      pop\n        /* \"#utility.yul\":3200:3204   */\n      0x40\n        /* \"#utility.yul\":3193:3198   */\n      dup3\n        /* \"#utility.yul\":3189:3205   */\n      add\n        /* \"#utility.yul\":3183:3206   */\n      mload\n        /* \"#utility.yul\":3219:3282   */\n      tag_106\n        /* \"#utility.yul\":3276:3280   */\n      0x40\n        /* \"#utility.yul\":3271:3274   */\n      dup6\n        /* \"#utility.yul\":3267:3281   */\n      add\n        /* \"#utility.yul\":3253:3265   */\n      dup3\n        /* \"#utility.yul\":3219:3282   */\n      tag_61\n      jump\t// in\n    tag_106:\n        /* \"#utility.yul\":3126:3292   */\n      pop\n        /* \"#utility.yul\":3379:3383   */\n      0x60\n        /* \"#utility.yul\":3372:3377   */\n      dup3\n        /* \"#utility.yul\":3368:3384   */\n      add\n        /* \"#utility.yul\":3362:3385   */\n      mload\n        /* \"#utility.yul\":3398:3461   */\n      tag_107\n        /* \"#utility.yul\":3455:3459   */\n      0x60\n        /* \"#utility.yul\":3450:3453   */\n      dup6\n        /* \"#utility.yul\":3446:3460   */\n      add\n        /* \"#utility.yul\":3432:3444   */\n      dup3\n        /* \"#utility.yul\":3398:3461   */\n      tag_61\n      jump\t// in\n    tag_107:\n        /* \"#utility.yul\":3302:3471   */\n      pop\n        /* \"#utility.yul\":2718:3478   */\n      pop\n        /* \"#utility.yul\":2596:3478   */\n      pop\n      pop\n      jump\t// out\n        /* \"#utility.yul\":3484:3819   */\n    tag_23:\n        /* \"#utility.yul\":3633:3637   */\n      0x00\n        /* \"#utility.yul\":3671:3674   */\n      0x80\n        /* \"#utility.yul\":3660:3669   */\n      dup3\n        /* \"#utility.yul\":3656:3675   */\n      add\n        /* \"#utility.yul\":3648:3675   */\n      swap1\n      pop\n        /* \"#utility.yul\":3685:3812   */\n      tag_109\n        /* \"#utility.yul\":3809:3810   */\n      0x00\n        /* \"#utility.yul\":3798:3807   */\n      dup4\n        /* \"#utility.yul\":3794:3811   */\n      add\n        /* \"#utility.yul\":3785:3791   */\n      dup5\n        /* \"#utility.yul\":3685:3812   */\n      tag_62\n      jump\t// in\n    tag_109:\n        /* \"#utility.yul\":3484:3819   */\n      swap3\n      swap2\n      pop\n      pop\n      jump\t// out\n        /* \"#utility.yul\":3825:3967   */\n    tag_63:\n        /* \"#utility.yul\":3920:3926   */\n      0x00\n        /* \"#utility.yul\":3954:3959   */\n      dup2\n        /* \"#utility.yul\":3948:3960   */\n      mload\n        /* \"#utility.yul\":3938:3960   */\n      swap1\n      pop\n        /* \"#utility.yul\":3825:3967   */\n      swap2\n      swap1\n      pop\n      jump\t// out\n        /* \"#utility.yul\":3973:4185   */\n    tag_64:\n        /* \"#utility.yul\":4100:4111   */\n      0x00\n        /* \"#utility.yul\":4134:4140   */\n      dup3\n        /* \"#utility.yul\":4129:4132   */\n      dup3\n        /* \"#utility.yul\":4122:4141   */\n      mstore\n        /* \"#utility.yul\":4174:4178   */\n      0x20\n        /* \"#utility.yul\":4169:4172   */\n      dup3\n        /* \"#utility.yul\":4165:4179   */\n      add\n        /* \"#utility.yul\":4150:4179   */\n      swap1\n      pop\n        /* \"#utility.yul\":3973:4185   */\n      swap3\n      swap2\n      pop\n      pop\n      jump\t// out\n        /* \"#utility.yul\":4191:4351   */\n    tag_65:\n        /* \"#utility.yul\":4286:4290   */\n      0x00\n        /* \"#utility.yul\":4309:4312   */\n      dup2\n        /* \"#utility.yul\":4301:4312   */\n      swap1\n      pop\n        /* \"#utility.yul\":4339:4343   */\n      0x20\n        /* \"#utility.yul\":4334:4337   */\n      dup3\n        /* \"#utility.yul\":4330:4344   */\n      add\n        /* \"#utility.yul\":4322:4344   */\n      swap1\n      pop\n        /* \"#utility.yul\":4191:4351   */\n      swap2\n      swap1\n      pop\n      jump\t// out\n        /* \"#utility.yul\":4431:5303   */\n    tag_66:\n        /* \"#utility.yul\":4574:4578   */\n      0x80\n        /* \"#utility.yul\":4569:4572   */\n      dup3\n        /* \"#utility.yul\":4565:4579   */\n      add\n        /* \"#utility.yul\":4669:4673   */\n      0x00\n        /* \"#utility.yul\":4662:4667   */\n      dup3\n        /* \"#utility.yul\":4658:4674   */\n      add\n        /* \"#utility.yul\":4652:4675   */\n      mload\n        /* \"#utility.yul\":4688:4751   */\n      tag_114\n        /* \"#utility.yul\":4745:4749   */\n      0x00\n        /* \"#utility.yul\":4740:4743   */\n      dup6\n        /* \"#utility.yul\":4736:4750   */\n      add\n        /* \"#utility.yul\":4722:4734   */\n      dup3\n        /* \"#utility.yul\":4688:4751   */\n      tag_60\n      jump\t// in\n    tag_114:\n        /* \"#utility.yul\":4589:4761   */\n      pop\n        /* \"#utility.yul\":4849:4853   */\n      0x20\n        /* \"#utility.yul\":4842:4847   */\n      dup3\n        /* \"#utility.yul\":4838:4854   */\n      add\n        /* \"#utility.yul\":4832:4855   */\n      mload\n        /* \"#utility.yul\":4868:4931   */\n      tag_115\n        /* \"#utility.yul\":4925:4929   */\n      0x20\n        /* \"#utility.yul\":4920:4923   */\n      dup6\n        /* \"#utility.yul\":4916:4930   */\n      add\n        /* \"#utility.yul\":4902:4914   */\n      dup3\n        /* \"#utility.yul\":4868:4931   */\n      tag_60\n      jump\t// in\n    tag_115:\n        /* \"#utility.yul\":4771:4941   */\n      pop\n        /* \"#utility.yul\":5025:5029   */\n      0x40\n        /* \"#utility.yul\":5018:5023   */\n      dup3\n        /* \"#utility.yul\":5014:5030   */\n      add\n        /* \"#utility.yul\":5008:5031   */\n      mload\n        /* \"#utility.yul\":5044:5107   */\n      tag_116\n        /* \"#utility.yul\":5101:5105   */\n      0x40\n        /* \"#utility.yul\":5096:5099   */\n      dup6\n        /* \"#utility.yul\":5092:5106   */\n      add\n        /* \"#utility.yul\":5078:5090   */\n      dup3\n        /* \"#utility.yul\":5044:5107   */\n      tag_61\n      jump\t// in\n    tag_116:\n        /* \"#utility.yul\":4951:5117   */\n      pop\n        /* \"#utility.yul\":5204:5208   */\n      0x60\n        /* \"#utility.yul\":5197:5202   */\n      dup3\n        /* \"#utility.yul\":5193:5209   */\n      add\n        /* \"#utility.yul\":5187:5210   */\n      mload\n        /* \"#utility.yul\":5223:5286   */\n      tag_117\n        /* \"#utility.yul\":5280:5284   */\n      0x60\n        /* \"#utility.yul\":5275:5278   */\n      dup6\n        /* \"#utility.yul\":5271:5285   */\n      add\n        /* \"#utility.yul\":5257:5269   */\n      dup3\n        /* \"#utility.yul\":5223:5286   */\n      tag_61\n      jump\t// in\n    tag_117:\n        /* \"#utility.yul\":5127:5296   */\n      pop\n        /* \"#utility.yul\":4543:5303   */\n      pop\n        /* \"#utility.yul\":4431:5303   */\n      pop\n      pop\n      jump\t// out\n        /* \"#utility.yul\":5309:5600   */\n    tag_67:\n        /* \"#utility.yul\":5434:5444   */\n      0x00\n        /* \"#utility.yul\":5455:5557   */\n      tag_119\n        /* \"#utility.yul\":5553:5556   */\n      dup4\n        /* \"#utility.yul\":5545:5551   */\n      dup4\n        /* \"#utility.yul\":5455:5557   */\n      tag_66\n      jump\t// in\n    tag_119:\n        /* \"#utility.yul\":5589:5593   */\n      0x80\n        /* \"#utility.yul\":5584:5587   */\n      dup4\n        /* \"#utility.yul\":5580:5594   */\n      add\n        /* \"#utility.yul\":5566:5594   */\n      swap1\n      pop\n        /* \"#utility.yul\":5309:5600   */\n      swap3\n      swap2\n      pop\n      pop\n      jump\t// out\n        /* \"#utility.yul\":5606:5747   */\n    tag_68:\n        /* \"#utility.yul\":5704:5708   */\n      0x00\n        /* \"#utility.yul\":5736:5740   */\n      0x20\n        /* \"#utility.yul\":5731:5734   */\n      dup3\n        /* \"#utility.yul\":5727:5741   */\n      add\n        /* \"#utility.yul\":5719:5741   */\n      swap1\n      pop\n        /* \"#utility.yul\":5606:5747   */\n      swap2\n      swap1\n      pop\n      jump\t// out\n        /* \"#utility.yul\":5831:6787   */\n    tag_69:\n        /* \"#utility.yul\":6006:6009   */\n      0x00\n        /* \"#utility.yul\":6035:6117   */\n      tag_122\n        /* \"#utility.yul\":6111:6116   */\n      dup3\n        /* \"#utility.yul\":6035:6117   */\n      tag_63\n      jump\t// in\n    tag_122:\n        /* \"#utility.yul\":6133:6247   */\n      tag_123\n        /* \"#utility.yul\":6240:6246   */\n      dup2\n        /* \"#utility.yul\":6235:6238   */\n      dup6\n        /* \"#utility.yul\":6133:6247   */\n      tag_64\n      jump\t// in\n    tag_123:\n        /* \"#utility.yul\":6126:6247   */\n      swap4\n      pop\n        /* \"#utility.yul\":6271:6355   */\n      tag_124\n        /* \"#utility.yul\":6349:6354   */\n      dup4\n        /* \"#utility.yul\":6271:6355   */\n      tag_65\n      jump\t// in\n    tag_124:\n        /* \"#utility.yul\":6378:6385   */\n      dup1\n        /* \"#utility.yul\":6409:6410   */\n      0x00\n        /* \"#utility.yul\":6394:6762   */\n    tag_125:\n        /* \"#utility.yul\":6419:6425   */\n      dup4\n        /* \"#utility.yul\":6416:6417   */\n      dup2\n        /* \"#utility.yul\":6413:6426   */\n      lt\n        /* \"#utility.yul\":6394:6762   */\n      iszero\n      tag_127\n      jumpi\n        /* \"#utility.yul\":6495:6501   */\n      dup2\n        /* \"#utility.yul\":6489:6502   */\n      mload\n        /* \"#utility.yul\":6522:6641   */\n      tag_128\n        /* \"#utility.yul\":6637:6640   */\n      dup9\n        /* \"#utility.yul\":6622:6635   */\n      dup3\n        /* \"#utility.yul\":6522:6641   */\n      tag_67\n      jump\t// in\n    tag_128:\n        /* \"#utility.yul\":6515:6641   */\n      swap8\n      pop\n        /* \"#utility.yul\":6664:6752   */\n      tag_129\n        /* \"#utility.yul\":6745:6751   */\n      dup4\n        /* \"#utility.yul\":6664:6752   */\n      tag_68\n      jump\t// in\n    tag_129:\n        /* \"#utility.yul\":6654:6752   */\n      swap3\n      pop\n        /* \"#utility.yul\":6454:6762   */\n      pop\n        /* \"#utility.yul\":6441:6442   */\n      0x01\n        /* \"#utility.yul\":6438:6439   */\n      dup2\n        /* \"#utility.yul\":6434:6443   */\n      add\n        /* \"#utility.yul\":6429:6443   */\n      swap1\n      pop\n        /* \"#utility.yul\":6394:6762   */\n      jump(tag_125)\n    tag_127:\n        /* \"#utility.yul\":6398:6412   */\n      pop\n        /* \"#utility.yul\":6778:6781   */\n      dup6\n        /* \"#utility.yul\":6771:6781   */\n      swap4\n      pop\n        /* \"#utility.yul\":6011:6787   */\n      pop\n      pop\n      pop\n        /* \"#utility.yul\":5831:6787   */\n      swap3\n      swap2\n      pop\n      pop\n      jump\t// out\n        /* \"#utility.yul\":6793:7278   */\n    tag_31:\n        /* \"#utility.yul\":6992:6996   */\n      0x00\n        /* \"#utility.yul\":7030:7032   */\n      0x20\n        /* \"#utility.yul\":7019:7028   */\n      dup3\n        /* \"#utility.yul\":7015:7033   */\n      add\n        /* \"#utility.yul\":7007:7033   */\n      swap1\n      pop\n        /* \"#utility.yul\":7079:7088   */\n      dup2\n        /* \"#utility.yul\":7073:7077   */\n      dup2\n        /* \"#utility.yul\":7069:7089   */\n      sub\n        /* \"#utility.yul\":7065:7066   */\n      0x00\n        /* \"#utility.yul\":7054:7063   */\n      dup4\n        /* \"#utility.yul\":7050:7067   */\n      add\n        /* \"#utility.yul\":7043:7090   */\n      mstore\n        /* \"#utility.yul\":7107:7271   */\n      tag_131\n        /* \"#utility.yul\":7266:7270   */\n      dup2\n        /* \"#utility.yul\":7257:7263   */\n      dup5\n        /* \"#utility.yul\":7107:7271   */\n      tag_69\n      jump\t// in\n    tag_131:\n        /* \"#utility.yul\":7099:7271   */\n      swap1\n      pop\n        /* \"#utility.yul\":6793:7278   */\n      swap3\n      swap2\n      pop\n      pop\n      jump\t// out\n        /* \"#utility.yul\":7284:7464   */\n    tag_70:\n        /* \"#utility.yul\":7332:7409   */\n      0x4e487b7100000000000000000000000000000000000000000000000000000000\n        /* \"#utility.yul\":7329:7330   */\n      0x00\n        /* \"#utility.yul\":7322:7410   */\n      mstore\n        /* \"#utility.yul\":7429:7433   */\n      0x11\n        /* \"#utility.yul\":7426:7427   */\n      0x04\n        /* \"#utility.yul\":7419:7434   */\n      mstore\n        /* \"#utility.yul\":7453:7457   */\n      0x24\n        /* \"#utility.yul\":7450:7451   */\n      0x00\n        /* \"#utility.yul\":7443:7458   */\n      revert\n        /* \"#utility.yul\":7470:7664   */\n    tag_43:\n        /* \"#utility.yul\":7510:7514   */\n      0x00\n        /* \"#utility.yul\":7530:7550   */\n      tag_134\n        /* \"#utility.yul\":7548:7549   */\n      dup3\n        /* \"#utility.yul\":7530:7550   */\n      tag_53\n      jump\t// in\n    tag_134:\n        /* \"#utility.yul\":7525:7550   */\n      swap2\n      pop\n        /* \"#utility.yul\":7564:7584   */\n      tag_135\n        /* \"#utility.yul\":7582:7583   */\n      dup4\n        /* \"#utility.yul\":7564:7584   */\n      tag_53\n      jump\t// in\n    tag_135:\n        /* \"#utility.yul\":7559:7584   */\n      swap3\n      pop\n        /* \"#utility.yul\":7608:7609   */\n      dup3\n        /* \"#utility.yul\":7605:7606   */\n      dup3\n        /* \"#utility.yul\":7601:7610   */\n      sub\n        /* \"#utility.yul\":7593:7610   */\n      swap1\n      pop\n        /* \"#utility.yul\":7632:7633   */\n      dup2\n        /* \"#utility.yul\":7626:7630   */\n      dup2\n        /* \"#utility.yul\":7623:7634   */\n      gt\n        /* \"#utility.yul\":7620:7657   */\n      iszero\n      tag_136\n      jumpi\n        /* \"#utility.yul\":7637:7655   */\n      tag_137\n      tag_70\n      jump\t// in\n    tag_137:\n        /* \"#utility.yul\":7620:7657   */\n    tag_136:\n        /* \"#utility.yul\":7470:7664   */\n      swap3\n      swap2\n      pop\n      pop\n      jump\t// out\n\n    auxdata: 0xa26469706673582212200987e0b05ecfb4c4c5e1fb9446de8cbde749e0575fd0a470a293c6a5d2e08f9c64736f6c63430008100033\n}\n",
				"bytecode": {
					"linkReferences": {},
					"object": "6080604052600060025534801561001557600080fd5b5061092b806100256000396000f3fe608060405234801561001057600080fd5b50600436106100625760003560e01c806304ef5b211461006757806324ba506d1461009a57806333ea3dc8146100b857806357bf72e3146100e857806383920e901461011b578063f4b30eaf14610139575b600080fd5b610081600480360381019061007c9190610601565b610169565b604051610091949392919061067e565b60405180910390f35b6100a26101e9565b6040516100af91906106c3565b60405180910390f35b6100d260048036038101906100cd9190610601565b6101f3565b6040516100df9190610751565b60405180910390f35b61010260048036038101906100fd9190610601565b6102f6565b604051610112949392919061067e565b60405180910390f35b610123610366565b6040516101309190610870565b60405180910390f35b610153600480360381019061014e9190610601565b610485565b6040516101609190610751565b60405180910390f35b6000818154811061017957600080fd5b90600052602060002090600402016000915090508060000160009054906101000a900473ffffffffffffffffffffffffffffffffffffffff16908060010160009054906101000a900473ffffffffffffffffffffffffffffffffffffffff16908060020154908060030154905084565b6000600254905090565b6101fb610572565b60008260008054905061020e91906108c1565b9050600160008281526020019081526020016000206040518060800160405290816000820160009054906101000a900473ffffffffffffffffffffffffffffffffffffffff1673ffffffffffffffffffffffffffffffffffffffff1673ffffffffffffffffffffffffffffffffffffffff1681526020016001820160009054906101000a900473ffffffffffffffffffffffffffffffffffffffff1673ffffffffffffffffffffffffffffffffffffffff1673ffffffffffffffffffffffffffffffffffffffff16815260200160028201548152602001600382015481525050915050919050565b60016020528060005260406000206000915090508060000160009054906101000a900473ffffffffffffffffffffffffffffffffffffffff16908060010160009054906101000a900473ffffffffffffffffffffffffffffffffffffffff16908060020154908060030154905084565b60606000805480602002602001604051908101604052809291908181526020016000905b8282101561047c57838290600052602060002090600402016040518060800160405290816000820160009054906101000a900473ffffffffffffffffffffffffffffffffffffffff1673ffffffffffffffffffffffffffffffffffffffff1673ffffffffffffffffffffffffffffffffffffffff1681526020016001820160009054906101000a900473ffffffffffffffffffffffffffffffffffffffff1673ffffffffffffffffffffffffffffffffffffffff1673ffffffffffffffffffffffffffffffffffffffff168152602001600282015481526020016003820154815250508152602001906001019061038a565b50505050905090565b61048d610572565b600160008381526020019081526020016000206040518060800160405290816000820160009054906101000a900473ffffffffffffffffffffffffffffffffffffffff1673ffffffffffffffffffffffffffffffffffffffff1673ffffffffffffffffffffffffffffffffffffffff1681526020016001820160009054906101000a900473ffffffffffffffffffffffffffffffffffffffff1673ffffffffffffffffffffffffffffffffffffffff1673ffffffffffffffffffffffffffffffffffffffff168152602001600282015481526020016003820154815250509050919050565b6040518060800160405280600073ffffffffffffffffffffffffffffffffffffffff168152602001600073ffffffffffffffffffffffffffffffffffffffff16815260200160008152602001600081525090565b600080fd5b6000819050919050565b6105de816105cb565b81146105e957600080fd5b50565b6000813590506105fb816105d5565b92915050565b600060208284031215610617576106166105c6565b5b6000610625848285016105ec565b91505092915050565b600073ffffffffffffffffffffffffffffffffffffffff82169050919050565b60006106598261062e565b9050919050565b6106698161064e565b82525050565b610678816105cb565b82525050565b60006080820190506106936000830187610660565b6106a06020830186610660565b6106ad604083018561066f565b6106ba606083018461066f565b95945050505050565b60006020820190506106d8600083018461066f565b92915050565b6106e78161064e565b82525050565b6106f6816105cb565b82525050565b60808201600082015161071260008501826106de565b50602082015161072560208501826106de565b50604082015161073860408501826106ed565b50606082015161074b60608501826106ed565b50505050565b600060808201905061076660008301846106fc565b92915050565b600081519050919050565b600082825260208201905092915050565b6000819050602082019050919050565b6080820160008201516107ae60008501826106de565b5060208201516107c160208501826106de565b5060408201516107d460408501826106ed565b5060608201516107e760608501826106ed565b50505050565b60006107f98383610798565b60808301905092915050565b6000602082019050919050565b600061081d8261076c565b6108278185610777565b935061083283610788565b8060005b8381101561086357815161084a88826107ed565b975061085583610805565b925050600181019050610836565b5085935050505092915050565b6000602082019050818103600083015261088a8184610812565b905092915050565b7f4e487b7100000000000000000000000000000000000000000000000000000000600052601160045260246000fd5b60006108cc826105cb565b91506108d7836105cb565b92508282039050818111156108ef576108ee610892565b5b9291505056fea26469706673582212200987e0b05ecfb4c4c5e1fb9446de8cbde749e0575fd0a470a293c6a5d2e08f9c64736f6c63430008100033",
					"opcodes": "PUSH1 0x80 PUSH1 0x40 MSTORE PUSH1 0x0 PUSH1 0x2 SSTORE CALLVALUE DUP1 ISZERO PUSH2 0x15 JUMPI PUSH1 0x0 DUP1 REVERT JUMPDEST POP PUSH2 0x92B DUP1 PUSH2 0x25 PUSH1 0x0 CODECOPY PUSH1 0x0 RETURN INVALID PUSH1 0x80 PUSH1 0x40 MSTORE CALLVALUE DUP1 ISZERO PUSH2 0x10 JUMPI PUSH1 0x0 DUP1 REVERT JUMPDEST POP PUSH1 0x4 CALLDATASIZE LT PUSH2 0x62 JUMPI PUSH1 0x0 CALLDATALOAD PUSH1 0xE0 SHR DUP1 PUSH4 0x4EF5B21 EQ PUSH2 0x67 JUMPI DUP1 PUSH4 0x24BA506D EQ PUSH2 0x9A JUMPI DUP1 PUSH4 0x33EA3DC8 EQ PUSH2 0xB8 JUMPI DUP1 PUSH4 0x57BF72E3 EQ PUSH2 0xE8 JUMPI DUP1 PUSH4 0x83920E90 EQ PUSH2 0x11B JUMPI DUP1 PUSH4 0xF4B30EAF EQ PUSH2 0x139 JUMPI JUMPDEST PUSH1 0x0 DUP1 REVERT JUMPDEST PUSH2 0x81 PUSH1 0x4 DUP1 CALLDATASIZE SUB DUP2 ADD SWAP1 PUSH2 0x7C SWAP2 SWAP1 PUSH2 0x601 JUMP JUMPDEST PUSH2 0x169 JUMP JUMPDEST PUSH1 0x40 MLOAD PUSH2 0x91 SWAP5 SWAP4 SWAP3 SWAP2 SWAP1 PUSH2 0x67E JUMP JUMPDEST PUSH1 0x40 MLOAD DUP1 SWAP2 SUB SWAP1 RETURN JUMPDEST PUSH2 0xA2 PUSH2 0x1E9 JUMP JUMPDEST PUSH1 0x40 MLOAD PUSH2 0xAF SWAP2 SWAP1 PUSH2 0x6C3 JUMP JUMPDEST PUSH1 0x40 MLOAD DUP1 SWAP2 SUB SWAP1 RETURN JUMPDEST PUSH2 0xD2 PUSH1 0x4 DUP1 CALLDATASIZE SUB DUP2 ADD SWAP1 PUSH2 0xCD SWAP2 SWAP1 PUSH2 0x601 JUMP JUMPDEST PUSH2 0x1F3 JUMP JUMPDEST PUSH1 0x40 MLOAD PUSH2 0xDF SWAP2 SWAP1 PUSH2 0x751 JUMP JUMPDEST PUSH1 0x40 MLOAD DUP1 SWAP2 SUB SWAP1 RETURN JUMPDEST PUSH2 0x102 PUSH1 0x4 DUP1 CALLDATASIZE SUB DUP2 ADD SWAP1 PUSH2 0xFD SWAP2 SWAP1 PUSH2 0x601 JUMP JUMPDEST PUSH2 0x2F6 JUMP JUMPDEST PUSH1 0x40 MLOAD PUSH2 0x112 SWAP5 SWAP4 SWAP3 SWAP2 SWAP1 PUSH2 0x67E JUMP JUMPDEST PUSH1 0x40 MLOAD DUP1 SWAP2 SUB SWAP1 RETURN JUMPDEST PUSH2 0x123 PUSH2 0x366 JUMP JUMPDEST PUSH1 0x40 MLOAD PUSH2 0x130 SWAP2 SWAP1 PUSH2 0x870 JUMP JUMPDEST PUSH1 0x40 MLOAD DUP1 SWAP2 SUB SWAP1 RETURN JUMPDEST PUSH2 0x153 PUSH1 0x4 DUP1 CALLDATASIZE SUB DUP2 ADD SWAP1 PUSH2 0x14E SWAP2 SWAP1 PUSH2 0x601 JUMP JUMPDEST PUSH2 0x485 JUMP JUMPDEST PUSH1 0x40 MLOAD PUSH2 0x160 SWAP2 SWAP1 PUSH2 0x751 JUMP JUMPDEST PUSH1 0x40 MLOAD DUP1 SWAP2 SUB SWAP1 RETURN JUMPDEST PUSH1 0x0 DUP2 DUP2 SLOAD DUP2 LT PUSH2 0x179 JUMPI PUSH1 0x0 DUP1 REVERT JUMPDEST SWAP1 PUSH1 0x0 MSTORE PUSH1 0x20 PUSH1 0x0 KECCAK256 SWAP1 PUSH1 0x4 MUL ADD PUSH1 0x0 SWAP2 POP SWAP1 POP DUP1 PUSH1 0x0 ADD PUSH1 0x0 SWAP1 SLOAD SWAP1 PUSH2 0x100 EXP SWAP1 DIV PUSH20 0xFFFFFFFFFFFFFFFFFFFFFFFFFFFFFFFFFFFFFFFF AND SWAP1 DUP1 PUSH1 0x1 ADD PUSH1 0x0 SWAP1 SLOAD SWAP1 PUSH2 0x100 EXP SWAP1 DIV PUSH20 0xFFFFFFFFFFFFFFFFFFFFFFFFFFFFFFFFFFFFFFFF AND SWAP1 DUP1 PUSH1 0x2 ADD SLOAD SWAP1 DUP1 PUSH1 0x3 ADD SLOAD SWAP1 POP DUP5 JUMP JUMPDEST PUSH1 0x0 PUSH1 0x2 SLOAD SWAP1 POP SWAP1 JUMP JUMPDEST PUSH2 0x1FB PUSH2 0x572 JUMP JUMPDEST PUSH1 0x0 DUP3 PUSH1 0x0 DUP1 SLOAD SWAP1 POP PUSH2 0x20E SWAP2 SWAP1 PUSH2 0x8C1 JUMP JUMPDEST SWAP1 POP PUSH1 0x1 PUSH1 0x0 DUP3 DUP2 MSTORE PUSH1 0x20 ADD SWAP1 DUP2 MSTORE PUSH1 0x20 ADD PUSH1 0x0 KECCAK256 PUSH1 0x40 MLOAD DUP1 PUSH1 0x80 ADD PUSH1 0x40 MSTORE SWAP1 DUP2 PUSH1 0x0 DUP3 ADD PUSH1 0x0 SWAP1 SLOAD SWAP1 PUSH2 0x100 EXP SWAP1 DIV PUSH20 0xFFFFFFFFFFFFFFFFFFFFFFFFFFFFFFFFFFFFFFFF AND PUSH20 0xFFFFFFFFFFFFFFFFFFFFFFFFFFFFFFFFFFFFFFFF AND PUSH20 0xFFFFFFFFFFFFFFFFFFFFFFFFFFFFFFFFFFFFFFFF AND DUP2 MSTORE PUSH1 0x20 ADD PUSH1 0x1 DUP3 ADD PUSH1 0x0 SWAP1 SLOAD SWAP1 PUSH2 0x100 EXP SWAP1 DIV PUSH20 0xFFFFFFFFFFFFFFFFFFFFFFFFFFFFFFFFFFFFFFFF AND PUSH20 0xFFFFFFFFFFFFFFFFFFFFFFFFFFFFFFFFFFFFFFFF AND PUSH20 0xFFFFFFFFFFFFFFFFFFFFFFFFFFFFFFFFFFFFFFFF AND DUP2 MSTORE PUSH1 0x20 ADD PUSH1 0x2 DUP3 ADD SLOAD DUP2 MSTORE PUSH1 0x20 ADD PUSH1 0x3 DUP3 ADD SLOAD DUP2 MSTORE POP POP SWAP2 POP POP SWAP2 SWAP1 POP JUMP JUMPDEST PUSH1 0x1 PUSH1 0x20 MSTORE DUP1 PUSH1 0x0 MSTORE PUSH1 0x40 PUSH1 0x0 KECCAK256 PUSH1 0x0 SWAP2 POP SWAP1 POP DUP1 PUSH1 0x0 ADD PUSH1 0x0 SWAP1 SLOAD SWAP1 PUSH2 0x100 EXP SWAP1 DIV PUSH20 0xFFFFFFFFFFFFFFFFFFFFFFFFFFFFFFFFFFFFFFFF AND SWAP1 DUP1 PUSH1 0x1 ADD PUSH1 0x0 SWAP1 SLOAD SWAP1 PUSH2 0x100 EXP SWAP1 DIV PUSH20 0xFFFFFFFFFFFFFFFFFFFFFFFFFFFFFFFFFFFFFFFF AND SWAP1 DUP1 PUSH1 0x2 ADD SLOAD SWAP1 DUP1 PUSH1 0x3 ADD SLOAD SWAP1 POP DUP5 JUMP JUMPDEST PUSH1 0x60 PUSH1 0x0 DUP1 SLOAD DUP1 PUSH1 0x20 MUL PUSH1 0x20 ADD PUSH1 0x40 MLOAD SWAP1 DUP2 ADD PUSH1 0x40 MSTORE DUP1 SWAP3 SWAP2 SWAP1 DUP2 DUP2 MSTORE PUSH1 0x20 ADD PUSH1 0x0 SWAP1 JUMPDEST DUP3 DUP3 LT ISZERO PUSH2 0x47C JUMPI DUP4 DUP3 SWAP1 PUSH1 0x0 MSTORE PUSH1 0x20 PUSH1 0x0 KECCAK256 SWAP1 PUSH1 0x4 MUL ADD PUSH1 0x40 MLOAD DUP1 PUSH1 0x80 ADD PUSH1 0x40 MSTORE SWAP1 DUP2 PUSH1 0x0 DUP3 ADD PUSH1 0x0 SWAP1 SLOAD SWAP1 PUSH2 0x100 EXP SWAP1 DIV PUSH20 0xFFFFFFFFFFFFFFFFFFFFFFFFFFFFFFFFFFFFFFFF AND PUSH20 0xFFFFFFFFFFFFFFFFFFFFFFFFFFFFFFFFFFFFFFFF AND PUSH20 0xFFFFFFFFFFFFFFFFFFFFFFFFFFFFFFFFFFFFFFFF AND DUP2 MSTORE PUSH1 0x20 ADD PUSH1 0x1 DUP3 ADD PUSH1 0x0 SWAP1 SLOAD SWAP1 PUSH2 0x100 EXP SWAP1 DIV PUSH20 0xFFFFFFFFFFFFFFFFFFFFFFFFFFFFFFFFFFFFFFFF AND PUSH20 0xFFFFFFFFFFFFFFFFFFFFFFFFFFFFFFFFFFFFFFFF AND PUSH20 0xFFFFFFFFFFFFFFFFFFFFFFFFFFFFFFFFFFFFFFFF AND DUP2 MSTORE PUSH1 0x20 ADD PUSH1 0x2 DUP3 ADD SLOAD DUP2 MSTORE PUSH1 0x20 ADD PUSH1 0x3 DUP3 ADD SLOAD DUP2 MSTORE POP POP DUP2 MSTORE PUSH1 0x20 ADD SWAP1 PUSH1 0x1 ADD SWAP1 PUSH2 0x38A JUMP JUMPDEST POP POP POP POP SWAP1 POP SWAP1 JUMP JUMPDEST PUSH2 0x48D PUSH2 0x572 JUMP JUMPDEST PUSH1 0x1 PUSH1 0x0 DUP4 DUP2 MSTORE PUSH1 0x20 ADD SWAP1 DUP2 MSTORE PUSH1 0x20 ADD PUSH1 0x0 KECCAK256 PUSH1 0x40 MLOAD DUP1 PUSH1 0x80 ADD PUSH1 0x40 MSTORE SWAP1 DUP2 PUSH1 0x0 DUP3 ADD PUSH1 0x0 SWAP1 SLOAD SWAP1 PUSH2 0x100 EXP SWAP1 DIV PUSH20 0xFFFFFFFFFFFFFFFFFFFFFFFFFFFFFFFFFFFFFFFF AND PUSH20 0xFFFFFFFFFFFFFFFFFFFFFFFFFFFFFFFFFFFFFFFF AND PUSH20 0xFFFFFFFFFFFFFFFFFFFFFFFFFFFFFFFFFFFFFFFF AND DUP2 MSTORE PUSH1 0x20 ADD PUSH1 0x1 DUP3 ADD PUSH1 0x0 SWAP1 SLOAD SWAP1 PUSH2 0x100 EXP SWAP1 DIV PUSH20 0xFFFFFFFFFFFFFFFFFFFFFFFFFFFFFFFFFFFFFFFF AND PUSH20 0xFFFFFFFFFFFFFFFFFFFFFFFFFFFFFFFFFFFFFFFF AND PUSH20 0xFFFFFFFFFFFFFFFFFFFFFFFFFFFFFFFFFFFFFFFF AND DUP2 MSTORE PUSH1 0x20 ADD PUSH1 0x2 DUP3 ADD SLOAD DUP2 MSTORE PUSH1 0x20 ADD PUSH1 0x3 DUP3 ADD SLOAD DUP2 MSTORE POP POP SWAP1 POP SWAP2 SWAP1 POP JUMP JUMPDEST PUSH1 0x40 MLOAD DUP1 PUSH1 0x80 ADD PUSH1 0x40 MSTORE DUP1 PUSH1 0x0 PUSH20 0xFFFFFFFFFFFFFFFFFFFFFFFFFFFFFFFFFFFFFFFF AND DUP2 MSTORE PUSH1 0x20 ADD PUSH1 0x0 PUSH20 0xFFFFFFFFFFFFFFFFFFFFFFFFFFFFFFFFFFFFFFFF AND DUP2 MSTORE PUSH1 0x20 ADD PUSH1 0x0 DUP2 MSTORE PUSH1 0x20 ADD PUSH1 0x0 DUP2 MSTORE POP SWAP1 JUMP JUMPDEST PUSH1 0x0 DUP1 REVERT JUMPDEST PUSH1 0x0 DUP2 SWAP1 POP SWAP2 SWAP1 POP JUMP JUMPDEST PUSH2 0x5DE DUP2 PUSH2 0x5CB JUMP JUMPDEST DUP2 EQ PUSH2 0x5E9 JUMPI PUSH1 0x0 DUP1 REVERT JUMPDEST POP JUMP JUMPDEST PUSH1 0x0 DUP2 CALLDATALOAD SWAP1 POP PUSH2 0x5FB DUP2 PUSH2 0x5D5 JUMP JUMPDEST SWAP3 SWAP2 POP POP JUMP JUMPDEST PUSH1 0x0 PUSH1 0x20 DUP3 DUP5 SUB SLT ISZERO PUSH2 0x617 JUMPI PUSH2 0x616 PUSH2 0x5C6 JUMP JUMPDEST JUMPDEST PUSH1 0x0 PUSH2 0x625 DUP5 DUP3 DUP6 ADD PUSH2 0x5EC JUMP JUMPDEST SWAP2 POP POP SWAP3 SWAP2 POP POP JUMP JUMPDEST PUSH1 0x0 PUSH20 0xFFFFFFFFFFFFFFFFFFFFFFFFFFFFFFFFFFFFFFFF DUP3 AND SWAP1 POP SWAP2 SWAP1 POP JUMP JUMPDEST PUSH1 0x0 PUSH2 0x659 DUP3 PUSH2 0x62E JUMP JUMPDEST SWAP1 POP SWAP2 SWAP1 POP JUMP JUMPDEST PUSH2 0x669 DUP2 PUSH2 0x64E JUMP JUMPDEST DUP3 MSTORE POP POP JUMP JUMPDEST PUSH2 0x678 DUP2 PUSH2 0x5CB JUMP JUMPDEST DUP3 MSTORE POP POP JUMP JUMPDEST PUSH1 0x0 PUSH1 0x80 DUP3 ADD SWAP1 POP PUSH2 0x693 PUSH1 0x0 DUP4 ADD DUP8 PUSH2 0x660 JUMP JUMPDEST PUSH2 0x6A0 PUSH1 0x20 DUP4 ADD DUP7 PUSH2 0x660 JUMP JUMPDEST PUSH2 0x6AD PUSH1 0x40 DUP4 ADD DUP6 PUSH2 0x66F JUMP JUMPDEST PUSH2 0x6BA PUSH1 0x60 DUP4 ADD DUP5 PUSH2 0x66F JUMP JUMPDEST SWAP6 SWAP5 POP POP POP POP POP JUMP JUMPDEST PUSH1 0x0 PUSH1 0x20 DUP3 ADD SWAP1 POP PUSH2 0x6D8 PUSH1 0x0 DUP4 ADD DUP5 PUSH2 0x66F JUMP JUMPDEST SWAP3 SWAP2 POP POP JUMP JUMPDEST PUSH2 0x6E7 DUP2 PUSH2 0x64E JUMP JUMPDEST DUP3 MSTORE POP POP JUMP JUMPDEST PUSH2 0x6F6 DUP2 PUSH2 0x5CB JUMP JUMPDEST DUP3 MSTORE POP POP JUMP JUMPDEST PUSH1 0x80 DUP3 ADD PUSH1 0x0 DUP3 ADD MLOAD PUSH2 0x712 PUSH1 0x0 DUP6 ADD DUP3 PUSH2 0x6DE JUMP JUMPDEST POP PUSH1 0x20 DUP3 ADD MLOAD PUSH2 0x725 PUSH1 0x20 DUP6 ADD DUP3 PUSH2 0x6DE JUMP JUMPDEST POP PUSH1 0x40 DUP3 ADD MLOAD PUSH2 0x738 PUSH1 0x40 DUP6 ADD DUP3 PUSH2 0x6ED JUMP JUMPDEST POP PUSH1 0x60 DUP3 ADD MLOAD PUSH2 0x74B PUSH1 0x60 DUP6 ADD DUP3 PUSH2 0x6ED JUMP JUMPDEST POP POP POP POP JUMP JUMPDEST PUSH1 0x0 PUSH1 0x80 DUP3 ADD SWAP1 POP PUSH2 0x766 PUSH1 0x0 DUP4 ADD DUP5 PUSH2 0x6FC JUMP JUMPDEST SWAP3 SWAP2 POP POP JUMP JUMPDEST PUSH1 0x0 DUP2 MLOAD SWAP1 POP SWAP2 SWAP1 POP JUMP JUMPDEST PUSH1 0x0 DUP3 DUP3 MSTORE PUSH1 0x20 DUP3 ADD SWAP1 POP SWAP3 SWAP2 POP POP JUMP JUMPDEST PUSH1 0x0 DUP2 SWAP1 POP PUSH1 0x20 DUP3 ADD SWAP1 POP SWAP2 SWAP1 POP JUMP JUMPDEST PUSH1 0x80 DUP3 ADD PUSH1 0x0 DUP3 ADD MLOAD PUSH2 0x7AE PUSH1 0x0 DUP6 ADD DUP3 PUSH2 0x6DE JUMP JUMPDEST POP PUSH1 0x20 DUP3 ADD MLOAD PUSH2 0x7C1 PUSH1 0x20 DUP6 ADD DUP3 PUSH2 0x6DE JUMP JUMPDEST POP PUSH1 0x40 DUP3 ADD MLOAD PUSH2 0x7D4 PUSH1 0x40 DUP6 ADD DUP3 PUSH2 0x6ED JUMP JUMPDEST POP PUSH1 0x60 DUP3 ADD MLOAD PUSH2 0x7E7 PUSH1 0x60 DUP6 ADD DUP3 PUSH2 0x6ED JUMP JUMPDEST POP POP POP POP JUMP JUMPDEST PUSH1 0x0 PUSH2 0x7F9 DUP4 DUP4 PUSH2 0x798 JUMP JUMPDEST PUSH1 0x80 DUP4 ADD SWAP1 POP SWAP3 SWAP2 POP POP JUMP JUMPDEST PUSH1 0x0 PUSH1 0x20 DUP3 ADD SWAP1 POP SWAP2 SWAP1 POP JUMP JUMPDEST PUSH1 0x0 PUSH2 0x81D DUP3 PUSH2 0x76C JUMP JUMPDEST PUSH2 0x827 DUP2 DUP6 PUSH2 0x777 JUMP JUMPDEST SWAP4 POP PUSH2 0x832 DUP4 PUSH2 0x788 JUMP JUMPDEST DUP1 PUSH1 0x0 JUMPDEST DUP4 DUP2 LT ISZERO PUSH2 0x863 JUMPI DUP2 MLOAD PUSH2 0x84A DUP9 DUP3 PUSH2 0x7ED JUMP JUMPDEST SWAP8 POP PUSH2 0x855 DUP4 PUSH2 0x805 JUMP JUMPDEST SWAP3 POP POP PUSH1 0x1 DUP2 ADD SWAP1 POP PUSH2 0x836 JUMP JUMPDEST POP DUP6 SWAP4 POP POP POP POP SWAP3 SWAP2 POP POP JUMP JUMPDEST PUSH1 0x0 PUSH1 0x20 DUP3 ADD SWAP1 POP DUP2 DUP2 SUB PUSH1 0x0 DUP4 ADD MSTORE PUSH2 0x88A DUP2 DUP5 PUSH2 0x812 JUMP JUMPDEST SWAP1 POP SWAP3 SWAP2 POP POP JUMP JUMPDEST PUSH32 0x4E487B7100000000000000000000000000000000000000000000000000000000 PUSH1 0x0 MSTORE PUSH1 0x11 PUSH1 0x4 MSTORE PUSH1 0x24 PUSH1 0x0 REVERT JUMPDEST PUSH1 0x0 PUSH2 0x8CC DUP3 PUSH2 0x5CB JUMP JUMPDEST SWAP2 POP PUSH2 0x8D7 DUP4 PUSH2 0x5CB JUMP JUMPDEST SWAP3 POP DUP3 DUP3 SUB SWAP1 POP DUP2 DUP2 GT ISZERO PUSH2 0x8EF JUMPI PUSH2 0x8EE PUSH2 0x892 JUMP JUMPDEST JUMPDEST SWAP3 SWAP2 POP POP JUMP INVALID LOG2 PUSH5 0x6970667358 0x22 SLT KECCAK256 MULMOD DUP8 0xE0 0xB0 0x5E 0xCF 0xB4 0xC4 0xC5 0xE1 0xFB SWAP5 CHAINID 0xDE DUP13 0xBD 0xE7 0x49 0xE0 JUMPI 0x5F 0xD0 LOG4 PUSH17 0xA293C6A5D2E08F9C64736F6C6343000810 STOP CALLER "
				},
				"gasEstimates": {
					"creation": {
						"codeDepositCost": "469400",
						"executionCost": "5511",
						"totalCost": "474911"
					},
					"external": {
						"getNumberOfTransactions()": "2437",
						"getTransaction(uint256)": "infinite",
						"getTransactionById(uint256)": "infinite",
						"getTransactions()": "infinite",
						"transactionList(uint256)": "infinite",
						"trn(uint256)": "infinite"
					},
					"internal": {
						"addTransaction(address,address,uint256,uint256)": "infinite"
					}
				},
				"methodIdentifiers": {
					"getNumberOfTransactions()": "24ba506d",
					"getTransaction(uint256)": "33ea3dc8",
					"getTransactionById(uint256)": "f4b30eaf",
					"getTransactions()": "83920e90",
					"transactionList(uint256)": "04ef5b21",
					"trn(uint256)": "57bf72e3"
				}
			},
			"storageLayout": {
				"storage": [
					{
						"astId": 14,
						"contract": "Dapp/Transaction.sol:Transaction",
						"label": "transactionList",
						"offset": 0,
						"slot": "0",
						"type": "t_array(t_struct(Transactions)10_storage)dyn_storage"
					},
					{
						"astId": 19,
						"contract": "Dapp/Transaction.sol:Transaction",
						"label": "trn",
						"offset": 0,
						"slot": "1",
						"type": "t_mapping(t_uint256,t_struct(Transactions)10_storage)"
					},
					{
						"astId": 22,
						"contract": "Dapp/Transaction.sol:Transaction",
						"label": "counter",
						"offset": 0,
						"slot": "2",
						"type": "t_uint256"
					}
				],
				"types": {
					"t_address": {
						"encoding": "inplace",
						"label": "address",
						"numberOfBytes": "20"
					},
					"t_array(t_struct(Transactions)10_storage)dyn_storage": {
						"base": "t_struct(Transactions)10_storage",
						"encoding": "dynamic_array",
						"label": "struct Transaction.Transactions[]",
						"numberOfBytes": "32"
					},
					"t_mapping(t_uint256,t_struct(Transactions)10_storage)": {
						"encoding": "mapping",
						"key": "t_uint256",
						"label": "mapping(uint256 => struct Transaction.Transactions)",
						"numberOfBytes": "32",
						"value": "t_struct(Transactions)10_storage"
					},
					"t_struct(Transactions)10_storage": {
						"encoding": "inplace",
						"label": "struct Transaction.Transactions",
						"members": [
							{
								"astId": 3,
								"contract": "Dapp/Transaction.sol:Transaction",
								"label": "address_from",
								"offset": 0,
								"slot": "0",
								"type": "t_address"
							},
							{
								"astId": 5,
								"contract": "Dapp/Transaction.sol:Transaction",
								"label": "address_to",
								"offset": 0,
								"slot": "1",
								"type": "t_address"
							},
							{
								"astId": 7,
								"contract": "Dapp/Transaction.sol:Transaction",
								"label": "amount",
								"offset": 0,
								"slot": "2",
								"type": "t_uint256"
							},
							{
								"astId": 9,
								"contract": "Dapp/Transaction.sol:Transaction",
								"label": "timestamp",
								"offset": 0,
								"slot": "3",
								"type": "t_uint256"
							}
						],
						"numberOfBytes": "128"
					},
					"t_uint256": {
						"encoding": "inplace",
						"label": "uint256",
						"numberOfBytes": "32"
					}
				}
			},
			"userdoc": {
				"kind": "user",
				"methods": {},
				"version": 1
			}
		}
	}
}