{
	"Dapp/Transaction.sol": {
		"Transaction": {
			"abi": [
				{
					"inputs": [],
					"name": "getTransaction",
					"outputs": [
						{
							"components": [
								{
									"internalType": "address",
									"name": "address_from",
									"type": "address"
								},
								{
									"internalType": "address",
									"name": "address_to",
									"type": "address"
								},
								{
									"internalType": "uint256",
									"name": "amount",
									"type": "uint256"
								},
								{
									"internalType": "uint256",
									"name": "timestamp",
									"type": "uint256"
								}
							],
							"internalType": "struct Transaction.Transactions[]",
							"name": "",
							"type": "tuple[]"
						}
					],
					"stateMutability": "view",
					"type": "function"
				},
				{
					"inputs": [
						{
							"internalType": "uint256",
							"name": "",
							"type": "uint256"
						}
					],
					"name": "transactionList",
					"outputs": [
						{
							"internalType": "address",
							"name": "address_from",
							"type": "address"
						},
						{
							"internalType": "address",
							"name": "address_to",
							"type": "address"
						},
						{
							"internalType": "uint256",
							"name": "amount",
							"type": "uint256"
						},
						{
							"internalType": "uint256",
							"name": "timestamp",
							"type": "uint256"
						}
					],
					"stateMutability": "view",
					"type": "function"
				}
			],
			"devdoc": {
				"kind": "dev",
				"methods": {},
				"version": 1
			},
			"evm": {
				"assembly": "    /* \"Dapp/Transaction.sol\":69:815  contract Transaction{... */\n  mstore(0x40, 0x80)\n  callvalue\n  dup1\n  iszero\n  tag_1\n  jumpi\n  0x00\n  dup1\n  revert\ntag_1:\n  pop\n  dataSize(sub_0)\n  dup1\n  dataOffset(sub_0)\n  0x00\n  codecopy\n  0x00\n  return\nstop\n\nsub_0: assembly {\n        /* \"Dapp/Transaction.sol\":69:815  contract Transaction{... */\n      mstore(0x40, 0x80)\n      callvalue\n      dup1\n      iszero\n      tag_1\n      jumpi\n      0x00\n      dup1\n      revert\n    tag_1:\n      pop\n      jumpi(tag_2, lt(calldatasize, 0x04))\n      shr(0xe0, calldataload(0x00))\n      dup1\n      0x04ef5b21\n      eq\n      tag_3\n      jumpi\n      dup1\n      0x59705f81\n      eq\n      tag_4\n      jumpi\n    tag_2:\n      0x00\n      dup1\n      revert\n        /* \"Dapp/Transaction.sol\":243:280  Transactions[] public transactionList */\n    tag_3:\n      tag_5\n      0x04\n      dup1\n      calldatasize\n      sub\n      dup2\n      add\n      swap1\n      tag_6\n      swap2\n      swap1\n      tag_7\n      jump\t// in\n    tag_6:\n      tag_8\n      jump\t// in\n    tag_5:\n      mload(0x40)\n      tag_9\n      swap5\n      swap4\n      swap3\n      swap2\n      swap1\n      tag_10\n      jump\t// in\n    tag_9:\n      mload(0x40)\n      dup1\n      swap2\n      sub\n      swap1\n      return\n        /* \"Dapp/Transaction.sol\":577:701  function getTransaction() public view returns(Transactions[] memory){... */\n    tag_4:\n      tag_11\n      tag_12\n      jump\t// in\n    tag_11:\n      mload(0x40)\n      tag_13\n      swap2\n      swap1\n      tag_14\n      jump\t// in\n    tag_13:\n      mload(0x40)\n      dup1\n      swap2\n      sub\n      swap1\n      return\n        /* \"Dapp/Transaction.sol\":243:280  Transactions[] public transactionList */\n    tag_8:\n      0x00\n      dup2\n      dup2\n      sload\n      dup2\n      lt\n      tag_15\n      jumpi\n      0x00\n      dup1\n      revert\n    tag_15:\n      swap1\n      0x00\n      mstore\n      keccak256(0x00, 0x20)\n      swap1\n      0x04\n      mul\n      add\n      0x00\n      swap2\n      pop\n      swap1\n      pop\n      dup1\n      0x00\n      add\n      0x00\n      swap1\n      sload\n      swap1\n      0x0100\n      exp\n      swap1\n      div\n      0xffffffffffffffffffffffffffffffffffffffff\n      and\n      swap1\n      dup1\n      0x01\n      add\n      0x00\n      swap1\n      sload\n      swap1\n      0x0100\n      exp\n      swap1\n      div\n      0xffffffffffffffffffffffffffffffffffffffff\n      and\n      swap1\n      dup1\n      0x02\n      add\n      sload\n      swap1\n      dup1\n      0x03\n      add\n      sload\n      swap1\n      pop\n      dup5\n      jump\t// out\n        /* \"Dapp/Transaction.sol\":577:701  function getTransaction() public view returns(Transactions[] memory){... */\n    tag_12:\n        /* \"Dapp/Transaction.sol\":623:644  Transactions[] memory */\n      0x60\n        /* \"Dapp/Transaction.sol\":658:668  uint total */\n      0x00\n        /* \"Dapp/Transaction.sol\":671:686  transactionList */\n      dup1\n        /* \"Dapp/Transaction.sol\":671:693  transactionList.length */\n      dup1\n      sload\n      swap1\n      pop\n        /* \"Dapp/Transaction.sol\":658:693  uint total = transactionList.length */\n      swap1\n      pop\n        /* \"Dapp/Transaction.sol\":645:701  {... */\n      pop\n        /* \"Dapp/Transaction.sol\":577:701  function getTransaction() public view returns(Transactions[] memory){... */\n      swap1\n      jump\t// out\n        /* \"#utility.yul\":88:205   */\n    tag_19:\n        /* \"#utility.yul\":197:198   */\n      0x00\n        /* \"#utility.yul\":194:195   */\n      dup1\n        /* \"#utility.yul\":187:199   */\n      revert\n        /* \"#utility.yul\":334:411   */\n    tag_21:\n        /* \"#utility.yul\":371:378   */\n      0x00\n        /* \"#utility.yul\":400:405   */\n      dup2\n        /* \"#utility.yul\":389:405   */\n      swap1\n      pop\n        /* \"#utility.yul\":334:411   */\n      swap2\n      swap1\n      pop\n      jump\t// out\n        /* \"#utility.yul\":417:539   */\n    tag_22:\n        /* \"#utility.yul\":490:514   */\n      tag_43\n        /* \"#utility.yul\":508:513   */\n      dup2\n        /* \"#utility.yul\":490:514   */\n      tag_21\n      jump\t// in\n    tag_43:\n        /* \"#utility.yul\":483:488   */\n      dup2\n        /* \"#utility.yul\":480:515   */\n      eq\n        /* \"#utility.yul\":470:533   */\n      tag_44\n      jumpi\n        /* \"#utility.yul\":529:530   */\n      0x00\n        /* \"#utility.yul\":526:527   */\n      dup1\n        /* \"#utility.yul\":519:531   */\n      revert\n        /* \"#utility.yul\":470:533   */\n    tag_44:\n        /* \"#utility.yul\":417:539   */\n      pop\n      jump\t// out\n        /* \"#utility.yul\":545:684   */\n    tag_23:\n        /* \"#utility.yul\":591:596   */\n      0x00\n        /* \"#utility.yul\":629:635   */\n      dup2\n        /* \"#utility.yul\":616:636   */\n      calldataload\n        /* \"#utility.yul\":607:636   */\n      swap1\n      pop\n        /* \"#utility.yul\":645:678   */\n      tag_46\n        /* \"#utility.yul\":672:677   */\n      dup2\n        /* \"#utility.yul\":645:678   */\n      tag_22\n      jump\t// in\n    tag_46:\n        /* \"#utility.yul\":545:684   */\n      swap3\n      swap2\n      pop\n      pop\n      jump\t// out\n        /* \"#utility.yul\":690:1019   */\n    tag_7:\n        /* \"#utility.yul\":749:755   */\n      0x00\n        /* \"#utility.yul\":798:800   */\n      0x20\n        /* \"#utility.yul\":786:795   */\n      dup3\n        /* \"#utility.yul\":777:784   */\n      dup5\n        /* \"#utility.yul\":773:796   */\n      sub\n        /* \"#utility.yul\":769:801   */\n      slt\n        /* \"#utility.yul\":766:885   */\n      iszero\n      tag_48\n      jumpi\n        /* \"#utility.yul\":804:883   */\n      tag_49\n      tag_19\n      jump\t// in\n    tag_49:\n        /* \"#utility.yul\":766:885   */\n    tag_48:\n        /* \"#utility.yul\":924:925   */\n      0x00\n        /* \"#utility.yul\":949:1002   */\n      tag_50\n        /* \"#utility.yul\":994:1001   */\n      dup5\n        /* \"#utility.yul\":985:991   */\n      dup3\n        /* \"#utility.yul\":974:983   */\n      dup6\n        /* \"#utility.yul\":970:992   */\n      add\n        /* \"#utility.yul\":949:1002   */\n      tag_23\n      jump\t// in\n    tag_50:\n        /* \"#utility.yul\":939:1002   */\n      swap2\n      pop\n        /* \"#utility.yul\":895:1012   */\n      pop\n        /* \"#utility.yul\":690:1019   */\n      swap3\n      swap2\n      pop\n      pop\n      jump\t// out\n        /* \"#utility.yul\":1025:1151   */\n    tag_24:\n        /* \"#utility.yul\":1062:1069   */\n      0x00\n        /* \"#utility.yul\":1102:1144   */\n      0xffffffffffffffffffffffffffffffffffffffff\n        /* \"#utility.yul\":1095:1100   */\n      dup3\n        /* \"#utility.yul\":1091:1145   */\n      and\n        /* \"#utility.yul\":1080:1145   */\n      swap1\n      pop\n        /* \"#utility.yul\":1025:1151   */\n      swap2\n      swap1\n      pop\n      jump\t// out\n        /* \"#utility.yul\":1157:1253   */\n    tag_25:\n        /* \"#utility.yul\":1194:1201   */\n      0x00\n        /* \"#utility.yul\":1223:1247   */\n      tag_53\n        /* \"#utility.yul\":1241:1246   */\n      dup3\n        /* \"#utility.yul\":1223:1247   */\n      tag_24\n      jump\t// in\n    tag_53:\n        /* \"#utility.yul\":1212:1247   */\n      swap1\n      pop\n        /* \"#utility.yul\":1157:1253   */\n      swap2\n      swap1\n      pop\n      jump\t// out\n        /* \"#utility.yul\":1259:1377   */\n    tag_26:\n        /* \"#utility.yul\":1346:1370   */\n      tag_55\n        /* \"#utility.yul\":1364:1369   */\n      dup2\n        /* \"#utility.yul\":1346:1370   */\n      tag_25\n      jump\t// in\n    tag_55:\n        /* \"#utility.yul\":1341:1344   */\n      dup3\n        /* \"#utility.yul\":1334:1371   */\n      mstore\n        /* \"#utility.yul\":1259:1377   */\n      pop\n      pop\n      jump\t// out\n        /* \"#utility.yul\":1383:1501   */\n    tag_27:\n        /* \"#utility.yul\":1470:1494   */\n      tag_57\n        /* \"#utility.yul\":1488:1493   */\n      dup2\n        /* \"#utility.yul\":1470:1494   */\n      tag_21\n      jump\t// in\n    tag_57:\n        /* \"#utility.yul\":1465:1468   */\n      dup3\n        /* \"#utility.yul\":1458:1495   */\n      mstore\n        /* \"#utility.yul\":1383:1501   */\n      pop\n      pop\n      jump\t// out\n        /* \"#utility.yul\":1507:2060   */\n    tag_10:\n        /* \"#utility.yul\":1684:1688   */\n      0x00\n        /* \"#utility.yul\":1722:1725   */\n      0x80\n        /* \"#utility.yul\":1711:1720   */\n      dup3\n        /* \"#utility.yul\":1707:1726   */\n      add\n        /* \"#utility.yul\":1699:1726   */\n      swap1\n      pop\n        /* \"#utility.yul\":1736:1807   */\n      tag_59\n        /* \"#utility.yul\":1804:1805   */\n      0x00\n        /* \"#utility.yul\":1793:1802   */\n      dup4\n        /* \"#utility.yul\":1789:1806   */\n      add\n        /* \"#utility.yul\":1780:1786   */\n      dup8\n        /* \"#utility.yul\":1736:1807   */\n      tag_26\n      jump\t// in\n    tag_59:\n        /* \"#utility.yul\":1817:1889   */\n      tag_60\n        /* \"#utility.yul\":1885:1887   */\n      0x20\n        /* \"#utility.yul\":1874:1883   */\n      dup4\n        /* \"#utility.yul\":1870:1888   */\n      add\n        /* \"#utility.yul\":1861:1867   */\n      dup7\n        /* \"#utility.yul\":1817:1889   */\n      tag_26\n      jump\t// in\n    tag_60:\n        /* \"#utility.yul\":1899:1971   */\n      tag_61\n        /* \"#utility.yul\":1967:1969   */\n      0x40\n        /* \"#utility.yul\":1956:1965   */\n      dup4\n        /* \"#utility.yul\":1952:1970   */\n      add\n        /* \"#utility.yul\":1943:1949   */\n      dup6\n        /* \"#utility.yul\":1899:1971   */\n      tag_27\n      jump\t// in\n    tag_61:\n        /* \"#utility.yul\":1981:2053   */\n      tag_62\n        /* \"#utility.yul\":2049:2051   */\n      0x60\n        /* \"#utility.yul\":2038:2047   */\n      dup4\n        /* \"#utility.yul\":2034:2052   */\n      add\n        /* \"#utility.yul\":2025:2031   */\n      dup5\n        /* \"#utility.yul\":1981:2053   */\n      tag_27\n      jump\t// in\n    tag_62:\n        /* \"#utility.yul\":1507:2060   */\n      swap6\n      swap5\n      pop\n      pop\n      pop\n      pop\n      pop\n      jump\t// out\n        /* \"#utility.yul\":2066:2208   */\n    tag_28:\n        /* \"#utility.yul\":2161:2167   */\n      0x00\n        /* \"#utility.yul\":2195:2200   */\n      dup2\n        /* \"#utility.yul\":2189:2201   */\n      mload\n        /* \"#utility.yul\":2179:2201   */\n      swap1\n      pop\n        /* \"#utility.yul\":2066:2208   */\n      swap2\n      swap1\n      pop\n      jump\t// out\n        /* \"#utility.yul\":2214:2426   */\n    tag_29:\n        /* \"#utility.yul\":2341:2352   */\n      0x00\n        /* \"#utility.yul\":2375:2381   */\n      dup3\n        /* \"#utility.yul\":2370:2373   */\n      dup3\n        /* \"#utility.yul\":2363:2382   */\n      mstore\n        /* \"#utility.yul\":2415:2419   */\n      0x20\n        /* \"#utility.yul\":2410:2413   */\n      dup3\n        /* \"#utility.yul\":2406:2420   */\n      add\n        /* \"#utility.yul\":2391:2420   */\n      swap1\n      pop\n        /* \"#utility.yul\":2214:2426   */\n      swap3\n      swap2\n      pop\n      pop\n      jump\t// out\n        /* \"#utility.yul\":2432:2592   */\n    tag_30:\n        /* \"#utility.yul\":2527:2531   */\n      0x00\n        /* \"#utility.yul\":2550:2553   */\n      dup2\n        /* \"#utility.yul\":2542:2553   */\n      swap1\n      pop\n        /* \"#utility.yul\":2580:2584   */\n      0x20\n        /* \"#utility.yul\":2575:2578   */\n      dup3\n        /* \"#utility.yul\":2571:2585   */\n      add\n        /* \"#utility.yul\":2563:2585   */\n      swap1\n      pop\n        /* \"#utility.yul\":2432:2592   */\n      swap2\n      swap1\n      pop\n      jump\t// out\n        /* \"#utility.yul\":2598:2706   */\n    tag_31:\n        /* \"#utility.yul\":2675:2699   */\n      tag_67\n        /* \"#utility.yul\":2693:2698   */\n      dup2\n        /* \"#utility.yul\":2675:2699   */\n      tag_25\n      jump\t// in\n    tag_67:\n        /* \"#utility.yul\":2670:2673   */\n      dup3\n        /* \"#utility.yul\":2663:2700   */\n      mstore\n        /* \"#utility.yul\":2598:2706   */\n      pop\n      pop\n      jump\t// out\n        /* \"#utility.yul\":2712:2820   */\n    tag_32:\n        /* \"#utility.yul\":2789:2813   */\n      tag_69\n        /* \"#utility.yul\":2807:2812   */\n      dup2\n        /* \"#utility.yul\":2789:2813   */\n      tag_21\n      jump\t// in\n    tag_69:\n        /* \"#utility.yul\":2784:2787   */\n      dup3\n        /* \"#utility.yul\":2777:2814   */\n      mstore\n        /* \"#utility.yul\":2712:2820   */\n      pop\n      pop\n      jump\t// out\n        /* \"#utility.yul\":2900:3772   */\n    tag_33:\n        /* \"#utility.yul\":3043:3047   */\n      0x80\n        /* \"#utility.yul\":3038:3041   */\n      dup3\n        /* \"#utility.yul\":3034:3048   */\n      add\n        /* \"#utility.yul\":3138:3142   */\n      0x00\n        /* \"#utility.yul\":3131:3136   */\n      dup3\n        /* \"#utility.yul\":3127:3143   */\n      add\n        /* \"#utility.yul\":3121:3144   */\n      mload\n        /* \"#utility.yul\":3157:3220   */\n      tag_71\n        /* \"#utility.yul\":3214:3218   */\n      0x00\n        /* \"#utility.yul\":3209:3212   */\n      dup6\n        /* \"#utility.yul\":3205:3219   */\n      add\n        /* \"#utility.yul\":3191:3203   */\n      dup3\n        /* \"#utility.yul\":3157:3220   */\n      tag_31\n      jump\t// in\n    tag_71:\n        /* \"#utility.yul\":3058:3230   */\n      pop\n        /* \"#utility.yul\":3318:3322   */\n      0x20\n        /* \"#utility.yul\":3311:3316   */\n      dup3\n        /* \"#utility.yul\":3307:3323   */\n      add\n        /* \"#utility.yul\":3301:3324   */\n      mload\n        /* \"#utility.yul\":3337:3400   */\n      tag_72\n        /* \"#utility.yul\":3394:3398   */\n      0x20\n        /* \"#utility.yul\":3389:3392   */\n      dup6\n        /* \"#utility.yul\":3385:3399   */\n      add\n        /* \"#utility.yul\":3371:3383   */\n      dup3\n        /* \"#utility.yul\":3337:3400   */\n      tag_31\n      jump\t// in\n    tag_72:\n        /* \"#utility.yul\":3240:3410   */\n      pop\n        /* \"#utility.yul\":3494:3498   */\n      0x40\n        /* \"#utility.yul\":3487:3492   */\n      dup3\n        /* \"#utility.yul\":3483:3499   */\n      add\n        /* \"#utility.yul\":3477:3500   */\n      mload\n        /* \"#utility.yul\":3513:3576   */\n      tag_73\n        /* \"#utility.yul\":3570:3574   */\n      0x40\n        /* \"#utility.yul\":3565:3568   */\n      dup6\n        /* \"#utility.yul\":3561:3575   */\n      add\n        /* \"#utility.yul\":3547:3559   */\n      dup3\n        /* \"#utility.yul\":3513:3576   */\n      tag_32\n      jump\t// in\n    tag_73:\n        /* \"#utility.yul\":3420:3586   */\n      pop\n        /* \"#utility.yul\":3673:3677   */\n      0x60\n        /* \"#utility.yul\":3666:3671   */\n      dup3\n        /* \"#utility.yul\":3662:3678   */\n      add\n        /* \"#utility.yul\":3656:3679   */\n      mload\n        /* \"#utility.yul\":3692:3755   */\n      tag_74\n        /* \"#utility.yul\":3749:3753   */\n      0x60\n        /* \"#utility.yul\":3744:3747   */\n      dup6\n        /* \"#utility.yul\":3740:3754   */\n      add\n        /* \"#utility.yul\":3726:3738   */\n      dup3\n        /* \"#utility.yul\":3692:3755   */\n      tag_32\n      jump\t// in\n    tag_74:\n        /* \"#utility.yul\":3596:3765   */\n      pop\n        /* \"#utility.yul\":3012:3772   */\n      pop\n        /* \"#utility.yul\":2900:3772   */\n      pop\n      pop\n      jump\t// out\n        /* \"#utility.yul\":3778:4069   */\n    tag_34:\n        /* \"#utility.yul\":3903:3913   */\n      0x00\n        /* \"#utility.yul\":3924:4026   */\n      tag_76\n        /* \"#utility.yul\":4022:4025   */\n      dup4\n        /* \"#utility.yul\":4014:4020   */\n      dup4\n        /* \"#utility.yul\":3924:4026   */\n      tag_33\n      jump\t// in\n    tag_76:\n        /* \"#utility.yul\":4058:4062   */\n      0x80\n        /* \"#utility.yul\":4053:4056   */\n      dup4\n        /* \"#utility.yul\":4049:4063   */\n      add\n        /* \"#utility.yul\":4035:4063   */\n      swap1\n      pop\n        /* \"#utility.yul\":3778:4069   */\n      swap3\n      swap2\n      pop\n      pop\n      jump\t// out\n        /* \"#utility.yul\":4075:4216   */\n    tag_35:\n        /* \"#utility.yul\":4173:4177   */\n      0x00\n        /* \"#utility.yul\":4205:4209   */\n      0x20\n        /* \"#utility.yul\":4200:4203   */\n      dup3\n        /* \"#utility.yul\":4196:4210   */\n      add\n        /* \"#utility.yul\":4188:4210   */\n      swap1\n      pop\n        /* \"#utility.yul\":4075:4216   */\n      swap2\n      swap1\n      pop\n      jump\t// out\n        /* \"#utility.yul\":4300:5256   */\n    tag_36:\n        /* \"#utility.yul\":4475:4478   */\n      0x00\n        /* \"#utility.yul\":4504:4586   */\n      tag_79\n        /* \"#utility.yul\":4580:4585   */\n      dup3\n        /* \"#utility.yul\":4504:4586   */\n      tag_28\n      jump\t// in\n    tag_79:\n        /* \"#utility.yul\":4602:4716   */\n      tag_80\n        /* \"#utility.yul\":4709:4715   */\n      dup2\n        /* \"#utility.yul\":4704:4707   */\n      dup6\n        /* \"#utility.yul\":4602:4716   */\n      tag_29\n      jump\t// in\n    tag_80:\n        /* \"#utility.yul\":4595:4716   */\n      swap4\n      pop\n        /* \"#utility.yul\":4740:4824   */\n      tag_81\n        /* \"#utility.yul\":4818:4823   */\n      dup4\n        /* \"#utility.yul\":4740:4824   */\n      tag_30\n      jump\t// in\n    tag_81:\n        /* \"#utility.yul\":4847:4854   */\n      dup1\n        /* \"#utility.yul\":4878:4879   */\n      0x00\n        /* \"#utility.yul\":4863:5231   */\n    tag_82:\n        /* \"#utility.yul\":4888:4894   */\n      dup4\n        /* \"#utility.yul\":4885:4886   */\n      dup2\n        /* \"#utility.yul\":4882:4895   */\n      lt\n        /* \"#utility.yul\":4863:5231   */\n      iszero\n      tag_84\n      jumpi\n        /* \"#utility.yul\":4964:4970   */\n      dup2\n        /* \"#utility.yul\":4958:4971   */\n      mload\n        /* \"#utility.yul\":4991:5110   */\n      tag_85\n        /* \"#utility.yul\":5106:5109   */\n      dup9\n        /* \"#utility.yul\":5091:5104   */\n      dup3\n        /* \"#utility.yul\":4991:5110   */\n      tag_34\n      jump\t// in\n    tag_85:\n        /* \"#utility.yul\":4984:5110   */\n      swap8\n      pop\n        /* \"#utility.yul\":5133:5221   */\n      tag_86\n        /* \"#utility.yul\":5214:5220   */\n      dup4\n        /* \"#utility.yul\":5133:5221   */\n      tag_35\n      jump\t// in\n    tag_86:\n        /* \"#utility.yul\":5123:5221   */\n      swap3\n      pop\n        /* \"#utility.yul\":4923:5231   */\n      pop\n        /* \"#utility.yul\":4910:4911   */\n      0x01\n        /* \"#utility.yul\":4907:4908   */\n      dup2\n        /* \"#utility.yul\":4903:4912   */\n      add\n        /* \"#utility.yul\":4898:4912   */\n      swap1\n      pop\n        /* \"#utility.yul\":4863:5231   */\n      jump(tag_82)\n    tag_84:\n        /* \"#utility.yul\":4867:4881   */\n      pop\n        /* \"#utility.yul\":5247:5250   */\n      dup6\n        /* \"#utility.yul\":5240:5250   */\n      swap4\n      pop\n        /* \"#utility.yul\":4480:5256   */\n      pop\n      pop\n      pop\n        /* \"#utility.yul\":4300:5256   */\n      swap3\n      swap2\n      pop\n      pop\n      jump\t// out\n        /* \"#utility.yul\":5262:5747   */\n    tag_14:\n        /* \"#utility.yul\":5461:5465   */\n      0x00\n        /* \"#utility.yul\":5499:5501   */\n      0x20\n        /* \"#utility.yul\":5488:5497   */\n      dup3\n        /* \"#utility.yul\":5484:5502   */\n      add\n        /* \"#utility.yul\":5476:5502   */\n      swap1\n      pop\n        /* \"#utility.yul\":5548:5557   */\n      dup2\n        /* \"#utility.yul\":5542:5546   */\n      dup2\n        /* \"#utility.yul\":5538:5558   */\n      sub\n        /* \"#utility.yul\":5534:5535   */\n      0x00\n        /* \"#utility.yul\":5523:5532   */\n      dup4\n        /* \"#utility.yul\":5519:5536   */\n      add\n        /* \"#utility.yul\":5512:5559   */\n      mstore\n        /* \"#utility.yul\":5576:5740   */\n      tag_88\n        /* \"#utility.yul\":5735:5739   */\n      dup2\n        /* \"#utility.yul\":5726:5732   */\n      dup5\n        /* \"#utility.yul\":5576:5740   */\n      tag_36\n      jump\t// in\n    tag_88:\n        /* \"#utility.yul\":5568:5740   */\n      swap1\n      pop\n        /* \"#utility.yul\":5262:5747   */\n      swap3\n      swap2\n      pop\n      pop\n      jump\t// out\n\n    auxdata: 0xa2646970667358221220a21e3b94adaceae633b03f458ce24c5ad72d87035d17e16c51e8ddb69d807a1864736f6c63430008100033\n}\n",
				"bytecode": {
					"linkReferences": {},
					"object": "608060405234801561001057600080fd5b50610392806100206000396000f3fe608060405234801561001057600080fd5b50600436106100365760003560e01c806304ef5b211461003b57806359705f811461006e575b600080fd5b61005560048036038101906100509190610156565b61008c565b60405161006594939291906101d3565b60405180910390f35b61007661010c565b604051610083919061033a565b60405180910390f35b6000818154811061009c57600080fd5b90600052602060002090600402016000915090508060000160009054906101000a900473ffffffffffffffffffffffffffffffffffffffff16908060010160009054906101000a900473ffffffffffffffffffffffffffffffffffffffff16908060020154908060030154905084565b60606000808054905090505090565b600080fd5b6000819050919050565b61013381610120565b811461013e57600080fd5b50565b6000813590506101508161012a565b92915050565b60006020828403121561016c5761016b61011b565b5b600061017a84828501610141565b91505092915050565b600073ffffffffffffffffffffffffffffffffffffffff82169050919050565b60006101ae82610183565b9050919050565b6101be816101a3565b82525050565b6101cd81610120565b82525050565b60006080820190506101e860008301876101b5565b6101f560208301866101b5565b61020260408301856101c4565b61020f60608301846101c4565b95945050505050565b600081519050919050565b600082825260208201905092915050565b6000819050602082019050919050565b61024d816101a3565b82525050565b61025c81610120565b82525050565b6080820160008201516102786000850182610244565b50602082015161028b6020850182610244565b50604082015161029e6040850182610253565b5060608201516102b16060850182610253565b50505050565b60006102c38383610262565b60808301905092915050565b6000602082019050919050565b60006102e782610218565b6102f18185610223565b93506102fc83610234565b8060005b8381101561032d57815161031488826102b7565b975061031f836102cf565b925050600181019050610300565b5085935050505092915050565b6000602082019050818103600083015261035481846102dc565b90509291505056fea2646970667358221220a21e3b94adaceae633b03f458ce24c5ad72d87035d17e16c51e8ddb69d807a1864736f6c63430008100033",
					"opcodes": "PUSH1 0x80 PUSH1 0x40 MSTORE CALLVALUE DUP1 ISZERO PUSH2 0x10 JUMPI PUSH1 0x0 DUP1 REVERT JUMPDEST POP PUSH2 0x392 DUP1 PUSH2 0x20 PUSH1 0x0 CODECOPY PUSH1 0x0 RETURN INVALID PUSH1 0x80 PUSH1 0x40 MSTORE CALLVALUE DUP1 ISZERO PUSH2 0x10 JUMPI PUSH1 0x0 DUP1 REVERT JUMPDEST POP PUSH1 0x4 CALLDATASIZE LT PUSH2 0x36 JUMPI PUSH1 0x0 CALLDATALOAD PUSH1 0xE0 SHR DUP1 PUSH4 0x4EF5B21 EQ PUSH2 0x3B JUMPI DUP1 PUSH4 0x59705F81 EQ PUSH2 0x6E JUMPI JUMPDEST PUSH1 0x0 DUP1 REVERT JUMPDEST PUSH2 0x55 PUSH1 0x4 DUP1 CALLDATASIZE SUB DUP2 ADD SWAP1 PUSH2 0x50 SWAP2 SWAP1 PUSH2 0x156 JUMP JUMPDEST PUSH2 0x8C JUMP JUMPDEST PUSH1 0x40 MLOAD PUSH2 0x65 SWAP5 SWAP4 SWAP3 SWAP2 SWAP1 PUSH2 0x1D3 JUMP JUMPDEST PUSH1 0x40 MLOAD DUP1 SWAP2 SUB SWAP1 RETURN JUMPDEST PUSH2 0x76 PUSH2 0x10C JUMP JUMPDEST PUSH1 0x40 MLOAD PUSH2 0x83 SWAP2 SWAP1 PUSH2 0x33A JUMP JUMPDEST PUSH1 0x40 MLOAD DUP1 SWAP2 SUB SWAP1 RETURN JUMPDEST PUSH1 0x0 DUP2 DUP2 SLOAD DUP2 LT PUSH2 0x9C JUMPI PUSH1 0x0 DUP1 REVERT JUMPDEST SWAP1 PUSH1 0x0 MSTORE PUSH1 0x20 PUSH1 0x0 KECCAK256 SWAP1 PUSH1 0x4 MUL ADD PUSH1 0x0 SWAP2 POP SWAP1 POP DUP1 PUSH1 0x0 ADD PUSH1 0x0 SWAP1 SLOAD SWAP1 PUSH2 0x100 EXP SWAP1 DIV PUSH20 0xFFFFFFFFFFFFFFFFFFFFFFFFFFFFFFFFFFFFFFFF AND SWAP1 DUP1 PUSH1 0x1 ADD PUSH1 0x0 SWAP1 SLOAD SWAP1 PUSH2 0x100 EXP SWAP1 DIV PUSH20 0xFFFFFFFFFFFFFFFFFFFFFFFFFFFFFFFFFFFFFFFF AND SWAP1 DUP1 PUSH1 0x2 ADD SLOAD SWAP1 DUP1 PUSH1 0x3 ADD SLOAD SWAP1 POP DUP5 JUMP JUMPDEST PUSH1 0x60 PUSH1 0x0 DUP1 DUP1 SLOAD SWAP1 POP SWAP1 POP POP SWAP1 JUMP JUMPDEST PUSH1 0x0 DUP1 REVERT JUMPDEST PUSH1 0x0 DUP2 SWAP1 POP SWAP2 SWAP1 POP JUMP JUMPDEST PUSH2 0x133 DUP2 PUSH2 0x120 JUMP JUMPDEST DUP2 EQ PUSH2 0x13E JUMPI PUSH1 0x0 DUP1 REVERT JUMPDEST POP JUMP JUMPDEST PUSH1 0x0 DUP2 CALLDATALOAD SWAP1 POP PUSH2 0x150 DUP2 PUSH2 0x12A JUMP JUMPDEST SWAP3 SWAP2 POP POP JUMP JUMPDEST PUSH1 0x0 PUSH1 0x20 DUP3 DUP5 SUB SLT ISZERO PUSH2 0x16C JUMPI PUSH2 0x16B PUSH2 0x11B JUMP JUMPDEST JUMPDEST PUSH1 0x0 PUSH2 0x17A DUP5 DUP3 DUP6 ADD PUSH2 0x141 JUMP JUMPDEST SWAP2 POP POP SWAP3 SWAP2 POP POP JUMP JUMPDEST PUSH1 0x0 PUSH20 0xFFFFFFFFFFFFFFFFFFFFFFFFFFFFFFFFFFFFFFFF DUP3 AND SWAP1 POP SWAP2 SWAP1 POP JUMP JUMPDEST PUSH1 0x0 PUSH2 0x1AE DUP3 PUSH2 0x183 JUMP JUMPDEST SWAP1 POP SWAP2 SWAP1 POP JUMP JUMPDEST PUSH2 0x1BE DUP2 PUSH2 0x1A3 JUMP JUMPDEST DUP3 MSTORE POP POP JUMP JUMPDEST PUSH2 0x1CD DUP2 PUSH2 0x120 JUMP JUMPDEST DUP3 MSTORE POP POP JUMP JUMPDEST PUSH1 0x0 PUSH1 0x80 DUP3 ADD SWAP1 POP PUSH2 0x1E8 PUSH1 0x0 DUP4 ADD DUP8 PUSH2 0x1B5 JUMP JUMPDEST PUSH2 0x1F5 PUSH1 0x20 DUP4 ADD DUP7 PUSH2 0x1B5 JUMP JUMPDEST PUSH2 0x202 PUSH1 0x40 DUP4 ADD DUP6 PUSH2 0x1C4 JUMP JUMPDEST PUSH2 0x20F PUSH1 0x60 DUP4 ADD DUP5 PUSH2 0x1C4 JUMP JUMPDEST SWAP6 SWAP5 POP POP POP POP POP JUMP JUMPDEST PUSH1 0x0 DUP2 MLOAD SWAP1 POP SWAP2 SWAP1 POP JUMP JUMPDEST PUSH1 0x0 DUP3 DUP3 MSTORE PUSH1 0x20 DUP3 ADD SWAP1 POP SWAP3 SWAP2 POP POP JUMP JUMPDEST PUSH1 0x0 DUP2 SWAP1 POP PUSH1 0x20 DUP3 ADD SWAP1 POP SWAP2 SWAP1 POP JUMP JUMPDEST PUSH2 0x24D DUP2 PUSH2 0x1A3 JUMP JUMPDEST DUP3 MSTORE POP POP JUMP JUMPDEST PUSH2 0x25C DUP2 PUSH2 0x120 JUMP JUMPDEST DUP3 MSTORE POP POP JUMP JUMPDEST PUSH1 0x80 DUP3 ADD PUSH1 0x0 DUP3 ADD MLOAD PUSH2 0x278 PUSH1 0x0 DUP6 ADD DUP3 PUSH2 0x244 JUMP JUMPDEST POP PUSH1 0x20 DUP3 ADD MLOAD PUSH2 0x28B PUSH1 0x20 DUP6 ADD DUP3 PUSH2 0x244 JUMP JUMPDEST POP PUSH1 0x40 DUP3 ADD MLOAD PUSH2 0x29E PUSH1 0x40 DUP6 ADD DUP3 PUSH2 0x253 JUMP JUMPDEST POP PUSH1 0x60 DUP3 ADD MLOAD PUSH2 0x2B1 PUSH1 0x60 DUP6 ADD DUP3 PUSH2 0x253 JUMP JUMPDEST POP POP POP POP JUMP JUMPDEST PUSH1 0x0 PUSH2 0x2C3 DUP4 DUP4 PUSH2 0x262 JUMP JUMPDEST PUSH1 0x80 DUP4 ADD SWAP1 POP SWAP3 SWAP2 POP POP JUMP JUMPDEST PUSH1 0x0 PUSH1 0x20 DUP3 ADD SWAP1 POP SWAP2 SWAP1 POP JUMP JUMPDEST PUSH1 0x0 PUSH2 0x2E7 DUP3 PUSH2 0x218 JUMP JUMPDEST PUSH2 0x2F1 DUP2 DUP6 PUSH2 0x223 JUMP JUMPDEST SWAP4 POP PUSH2 0x2FC DUP4 PUSH2 0x234 JUMP JUMPDEST DUP1 PUSH1 0x0 JUMPDEST DUP4 DUP2 LT ISZERO PUSH2 0x32D JUMPI DUP2 MLOAD PUSH2 0x314 DUP9 DUP3 PUSH2 0x2B7 JUMP JUMPDEST SWAP8 POP PUSH2 0x31F DUP4 PUSH2 0x2CF JUMP JUMPDEST SWAP3 POP POP PUSH1 0x1 DUP2 ADD SWAP1 POP PUSH2 0x300 JUMP JUMPDEST POP DUP6 SWAP4 POP POP POP POP SWAP3 SWAP2 POP POP JUMP JUMPDEST PUSH1 0x0 PUSH1 0x20 DUP3 ADD SWAP1 POP DUP2 DUP2 SUB PUSH1 0x0 DUP4 ADD MSTORE PUSH2 0x354 DUP2 DUP5 PUSH2 0x2DC JUMP JUMPDEST SWAP1 POP SWAP3 SWAP2 POP POP JUMP INVALID LOG2 PUSH5 0x6970667358 0x22 SLT KECCAK256 LOG2 0x1E EXTCODESIZE SWAP5 0xAD 0xAC 0xEA 0xE6 CALLER 0xB0 EXTCODEHASH GASLIMIT DUP13 0xE2 0x4C GAS 0xD7 0x2D DUP8 SUB 0x5D OR 0xE1 PUSH13 0x51E8DDB69D807A1864736F6C63 NUMBER STOP ADDMOD LT STOP CALLER "
				},
				"gasEstimates": {
					"creation": {
						"codeDepositCost": "182800",
						"executionCost": "226",
						"totalCost": "183026"
					},
					"external": {
						"getTransaction()": "infinite",
						"transactionList(uint256)": "infinite"
					},
					"internal": {
						"addTransaction(address,address,uint256,uint256)": "infinite"
					}
				},
				"methodIdentifiers": {
					"getTransaction()": "59705f81",
					"transactionList(uint256)": "04ef5b21"
				}
			},
			"storageLayout": {
				"storage": [
					{
						"astId": 14,
						"contract": "Dapp/Transaction.sol:Transaction",
						"label": "transactionList",
						"offset": 0,
						"slot": "0",
						"type": "t_array(t_struct(Transactions)10_storage)dyn_storage"
					}
				],
				"types": {
					"t_address": {
						"encoding": "inplace",
						"label": "address",
						"numberOfBytes": "20"
					},
					"t_array(t_struct(Transactions)10_storage)dyn_storage": {
						"base": "t_struct(Transactions)10_storage",
						"encoding": "dynamic_array",
						"label": "struct Transaction.Transactions[]",
						"numberOfBytes": "32"
					},
					"t_struct(Transactions)10_storage": {
						"encoding": "inplace",
						"label": "struct Transaction.Transactions",
						"members": [
							{
								"astId": 3,
								"contract": "Dapp/Transaction.sol:Transaction",
								"label": "address_from",
								"offset": 0,
								"slot": "0",
								"type": "t_address"
							},
							{
								"astId": 5,
								"contract": "Dapp/Transaction.sol:Transaction",
								"label": "address_to",
								"offset": 0,
								"slot": "1",
								"type": "t_address"
							},
							{
								"astId": 7,
								"contract": "Dapp/Transaction.sol:Transaction",
								"label": "amount",
								"offset": 0,
								"slot": "2",
								"type": "t_uint256"
							},
							{
								"astId": 9,
								"contract": "Dapp/Transaction.sol:Transaction",
								"label": "timestamp",
								"offset": 0,
								"slot": "3",
								"type": "t_uint256"
							}
						],
						"numberOfBytes": "128"
					},
					"t_uint256": {
						"encoding": "inplace",
						"label": "uint256",
						"numberOfBytes": "32"
					}
				}
			},
			"userdoc": {
				"kind": "user",
				"methods": {},
				"version": 1
			}
		}
	}
}