{
	"Dapp/MoneyTransfer.sol": {
		"MoneyTransfer": {
			"abi": [
				{
					"inputs": [
						{
							"internalType": "uint256",
							"name": "_totalFunds",
							"type": "uint256"
						}
					],
					"stateMutability": "nonpayable",
					"type": "constructor"
				},
				{
					"inputs": [],
					"name": "TotalFunds",
					"outputs": [
						{
							"internalType": "uint256",
							"name": "",
							"type": "uint256"
						}
					],
					"stateMutability": "view",
					"type": "function"
				},
				{
					"inputs": [],
					"name": "amount",
					"outputs": [
						{
							"internalType": "uint256",
							"name": "",
							"type": "uint256"
						}
					],
					"stateMutability": "view",
					"type": "function"
				},
				{
					"inputs": [],
					"name": "message",
					"outputs": [
						{
							"internalType": "string",
							"name": "",
							"type": "string"
						}
					],
					"stateMutability": "view",
					"type": "function"
				},
				{
					"inputs": [
						{
							"internalType": "uint256",
							"name": "_amount",
							"type": "uint256"
						},
						{
							"internalType": "address",
							"name": "_receiver",
							"type": "address"
						}
					],
					"name": "sendMoney",
					"outputs": [],
					"stateMutability": "nonpayable",
					"type": "function"
				},
				{
					"inputs": [],
					"name": "totalWeekTransactions",
					"outputs": [
						{
							"internalType": "uint256",
							"name": "",
							"type": "uint256"
						}
					],
					"stateMutability": "view",
					"type": "function"
				}
			],
			"devdoc": {
				"kind": "dev",
				"methods": {},
				"version": 1
			},
			"evm": {
				"assembly": "    /* \"Dapp/MoneyTransfer.sol\":67:940  contract MoneyTransfer {... */\n  mstore(0x40, 0x80)\n    /* \"Dapp/MoneyTransfer.sol\":232:240  24 hours */\n  0x015180\n    /* \"Dapp/MoneyTransfer.sol\":221:240  uint day = 24 hours */\n  0x03\n  sstore\n    /* \"Dapp/MoneyTransfer.sol\":402:478  constructor (uint256 _totalFunds){... */\n  callvalue\n  dup1\n  iszero\n  tag_1\n  jumpi\n  0x00\n  dup1\n  revert\ntag_1:\n  pop\n  mload(0x40)\n  sub(codesize, bytecodeSize)\n  dup1\n  bytecodeSize\n  dup4\n  codecopy\n  dup2\n  dup2\n  add\n  0x40\n  mstore\n  dup2\n  add\n  swap1\n  tag_2\n  swap2\n  swap1\n  tag_3\n  jump\t// in\ntag_2:\n    /* \"Dapp/MoneyTransfer.sol\":459:470  _totalFunds */\n  dup1\n    /* \"Dapp/MoneyTransfer.sol\":446:456  TotalFunds */\n  0x01\n    /* \"Dapp/MoneyTransfer.sol\":446:470  TotalFunds = _totalFunds */\n  dup2\n  swap1\n  sstore\n  pop\n    /* \"Dapp/MoneyTransfer.sol\":402:478  constructor (uint256 _totalFunds){... */\n  pop\n    /* \"Dapp/MoneyTransfer.sol\":67:940  contract MoneyTransfer {... */\n  jump(tag_6)\n    /* \"#utility.yul\":88:205   */\ntag_8:\n    /* \"#utility.yul\":197:198   */\n  0x00\n    /* \"#utility.yul\":194:195   */\n  dup1\n    /* \"#utility.yul\":187:199   */\n  revert\n    /* \"#utility.yul\":334:411   */\ntag_10:\n    /* \"#utility.yul\":371:378   */\n  0x00\n    /* \"#utility.yul\":400:405   */\n  dup2\n    /* \"#utility.yul\":389:405   */\n  swap1\n  pop\n    /* \"#utility.yul\":334:411   */\n  swap2\n  swap1\n  pop\n  jump\t// out\n    /* \"#utility.yul\":417:539   */\ntag_11:\n    /* \"#utility.yul\":490:514   */\n  tag_19\n    /* \"#utility.yul\":508:513   */\n  dup2\n    /* \"#utility.yul\":490:514   */\n  tag_10\n  jump\t// in\ntag_19:\n    /* \"#utility.yul\":483:488   */\n  dup2\n    /* \"#utility.yul\":480:515   */\n  eq\n    /* \"#utility.yul\":470:533   */\n  tag_20\n  jumpi\n    /* \"#utility.yul\":529:530   */\n  0x00\n    /* \"#utility.yul\":526:527   */\n  dup1\n    /* \"#utility.yul\":519:531   */\n  revert\n    /* \"#utility.yul\":470:533   */\ntag_20:\n    /* \"#utility.yul\":417:539   */\n  pop\n  jump\t// out\n    /* \"#utility.yul\":545:688   */\ntag_12:\n    /* \"#utility.yul\":602:607   */\n  0x00\n    /* \"#utility.yul\":633:639   */\n  dup2\n    /* \"#utility.yul\":627:640   */\n  mload\n    /* \"#utility.yul\":618:640   */\n  swap1\n  pop\n    /* \"#utility.yul\":649:682   */\n  tag_22\n    /* \"#utility.yul\":676:681   */\n  dup2\n    /* \"#utility.yul\":649:682   */\n  tag_11\n  jump\t// in\ntag_22:\n    /* \"#utility.yul\":545:688   */\n  swap3\n  swap2\n  pop\n  pop\n  jump\t// out\n    /* \"#utility.yul\":694:1045   */\ntag_3:\n    /* \"#utility.yul\":764:770   */\n  0x00\n    /* \"#utility.yul\":813:815   */\n  0x20\n    /* \"#utility.yul\":801:810   */\n  dup3\n    /* \"#utility.yul\":792:799   */\n  dup5\n    /* \"#utility.yul\":788:811   */\n  sub\n    /* \"#utility.yul\":784:816   */\n  slt\n    /* \"#utility.yul\":781:900   */\n  iszero\n  tag_24\n  jumpi\n    /* \"#utility.yul\":819:898   */\n  tag_25\n  tag_8\n  jump\t// in\ntag_25:\n    /* \"#utility.yul\":781:900   */\ntag_24:\n    /* \"#utility.yul\":939:940   */\n  0x00\n    /* \"#utility.yul\":964:1028   */\n  tag_26\n    /* \"#utility.yul\":1020:1027   */\n  dup5\n    /* \"#utility.yul\":1011:1017   */\n  dup3\n    /* \"#utility.yul\":1000:1009   */\n  dup6\n    /* \"#utility.yul\":996:1018   */\n  add\n    /* \"#utility.yul\":964:1028   */\n  tag_12\n  jump\t// in\ntag_26:\n    /* \"#utility.yul\":954:1028   */\n  swap2\n  pop\n    /* \"#utility.yul\":910:1038   */\n  pop\n    /* \"#utility.yul\":694:1045   */\n  swap3\n  swap2\n  pop\n  pop\n  jump\t// out\n    /* \"Dapp/MoneyTransfer.sol\":67:940  contract MoneyTransfer {... */\ntag_6:\n  dataSize(sub_0)\n  dup1\n  dataOffset(sub_0)\n  0x00\n  codecopy\n  0x00\n  return\nstop\n\nsub_0: assembly {\n        /* \"Dapp/MoneyTransfer.sol\":67:940  contract MoneyTransfer {... */\n      mstore(0x40, 0x80)\n      callvalue\n      dup1\n      iszero\n      tag_1\n      jumpi\n      0x00\n      dup1\n      revert\n    tag_1:\n      pop\n      jumpi(tag_2, lt(calldatasize, 0x04))\n      shr(0xe0, calldataload(0x00))\n      dup1\n      0x062a7544\n      eq\n      tag_3\n      jumpi\n      dup1\n      0x7b9a3f4c\n      eq\n      tag_4\n      jumpi\n      dup1\n      0x94b5dcaa\n      eq\n      tag_5\n      jumpi\n      dup1\n      0xaa8c217c\n      eq\n      tag_6\n      jumpi\n      dup1\n      0xe21f37ce\n      eq\n      tag_7\n      jumpi\n    tag_2:\n      0x00\n      dup1\n      revert\n        /* \"Dapp/MoneyTransfer.sol\":488:770  function sendMoney(uint _amount, address _receiver) public m_validAddress(_receiver) {... */\n    tag_3:\n      tag_8\n      0x04\n      dup1\n      calldatasize\n      sub\n      dup2\n      add\n      swap1\n      tag_9\n      swap2\n      swap1\n      tag_10\n      jump\t// in\n    tag_9:\n      tag_11\n      jump\t// in\n    tag_8:\n      stop\n        /* \"Dapp/MoneyTransfer.sol\":129:154  uint256 public TotalFunds */\n    tag_4:\n      tag_12\n      tag_13\n      jump\t// in\n    tag_12:\n      mload(0x40)\n      tag_14\n      swap2\n      swap1\n      tag_15\n      jump\t// in\n    tag_14:\n      mload(0x40)\n      dup1\n      swap2\n      sub\n      swap1\n      return\n        /* \"Dapp/MoneyTransfer.sol\":247:283  uint256 public totalWeekTransactions */\n    tag_5:\n      tag_16\n      tag_17\n      jump\t// in\n    tag_16:\n      mload(0x40)\n      tag_18\n      swap2\n      swap1\n      tag_15\n      jump\t// in\n    tag_18:\n      mload(0x40)\n      dup1\n      swap2\n      sub\n      swap1\n      return\n        /* \"Dapp/MoneyTransfer.sol\":101:122  uint256 public amount */\n    tag_6:\n      tag_19\n      tag_20\n      jump\t// in\n    tag_19:\n      mload(0x40)\n      tag_21\n      swap2\n      swap1\n      tag_15\n      jump\t// in\n    tag_21:\n      mload(0x40)\n      dup1\n      swap2\n      sub\n      swap1\n      return\n        /* \"Dapp/MoneyTransfer.sol\":370:391  string public message */\n    tag_7:\n      tag_22\n      tag_23\n      jump\t// in\n    tag_22:\n      mload(0x40)\n      tag_24\n      swap2\n      swap1\n      tag_25\n      jump\t// in\n    tag_24:\n      mload(0x40)\n      dup1\n      swap2\n      sub\n      swap1\n      return\n        /* \"Dapp/MoneyTransfer.sol\":488:770  function sendMoney(uint _amount, address _receiver) public m_validAddress(_receiver) {... */\n    tag_11:\n        /* \"Dapp/MoneyTransfer.sol\":562:571  _receiver */\n      dup1\n        /* \"Dapp/MoneyTransfer.sol\":839:844  _addr */\n      dup1\n        /* \"Dapp/MoneyTransfer.sol\":828:836  receiver */\n      0x02\n      0x00\n        /* \"Dapp/MoneyTransfer.sol\":828:844  receiver = _addr */\n      0x0100\n      exp\n      dup2\n      sload\n      dup2\n      0xffffffffffffffffffffffffffffffffffffffff\n      mul\n      not\n      and\n      swap1\n      dup4\n      0xffffffffffffffffffffffffffffffffffffffff\n      and\n      mul\n      or\n      swap1\n      sstore\n      pop\n        /* \"Dapp/MoneyTransfer.sol\":880:881  0 */\n      0x00\n        /* \"Dapp/MoneyTransfer.sol\":863:882  _addr != address(0) */\n      0xffffffffffffffffffffffffffffffffffffffff\n      and\n        /* \"Dapp/MoneyTransfer.sol\":863:868  _addr */\n      dup2\n        /* \"Dapp/MoneyTransfer.sol\":863:882  _addr != address(0) */\n      0xffffffffffffffffffffffffffffffffffffffff\n      and\n      sub\n        /* \"Dapp/MoneyTransfer.sol\":855:915  require(_addr != address(0), \" This address doesn't exists\") */\n      tag_27\n      jumpi\n      mload(0x40)\n      0x08c379a000000000000000000000000000000000000000000000000000000000\n      dup2\n      mstore\n      0x04\n      add\n      tag_28\n      swap1\n      tag_29\n      jump\t// in\n    tag_28:\n      mload(0x40)\n      dup1\n      swap2\n      sub\n      swap1\n      revert\n    tag_27:\n        /* \"Dapp/MoneyTransfer.sol\":595:604  _receiver */\n      dup2\n        /* \"Dapp/MoneyTransfer.sol\":584:592  receiver */\n      0x02\n      0x00\n        /* \"Dapp/MoneyTransfer.sol\":584:604  receiver = _receiver */\n      0x0100\n      exp\n      dup2\n      sload\n      dup2\n      0xffffffffffffffffffffffffffffffffffffffff\n      mul\n      not\n      and\n      swap1\n      dup4\n      0xffffffffffffffffffffffffffffffffffffffff\n      and\n      mul\n      or\n      swap1\n      sstore\n      pop\n        /* \"Dapp/MoneyTransfer.sol\":624:631  _amount */\n      dup3\n        /* \"Dapp/MoneyTransfer.sol\":615:621  amount */\n      0x00\n        /* \"Dapp/MoneyTransfer.sol\":615:631  amount = _amount */\n      dup2\n      swap1\n      sstore\n      pop\n        /* \"Dapp/MoneyTransfer.sol\":660:661  0 */\n      0x00\n        /* \"Dapp/MoneyTransfer.sol\":647:657  TotalFunds */\n      sload(0x01)\n        /* \"Dapp/MoneyTransfer.sol\":647:661  TotalFunds > 0 */\n      gt\n        /* \"Dapp/MoneyTransfer.sol\":647:684  TotalFunds > 0 && TotalFunds > amount */\n      dup1\n      iszero\n      tag_31\n      jumpi\n      pop\n        /* \"Dapp/MoneyTransfer.sol\":678:684  amount */\n      sload(0x00)\n        /* \"Dapp/MoneyTransfer.sol\":665:675  TotalFunds */\n      sload(0x01)\n        /* \"Dapp/MoneyTransfer.sol\":665:684  TotalFunds > amount */\n      gt\n        /* \"Dapp/MoneyTransfer.sol\":647:684  TotalFunds > 0 && TotalFunds > amount */\n    tag_31:\n        /* \"Dapp/MoneyTransfer.sol\":644:763  if(TotalFunds > 0 && TotalFunds > amount){... */\n      iszero\n      tag_32\n      jumpi\n        /* \"Dapp/MoneyTransfer.sol\":714:720  amount */\n      sload(0x00)\n        /* \"Dapp/MoneyTransfer.sol\":700:710  TotalFunds */\n      0x01\n      0x00\n        /* \"Dapp/MoneyTransfer.sol\":700:720  TotalFunds -= amount */\n      dup3\n      dup3\n      sload\n      tag_33\n      swap2\n      swap1\n      tag_34\n      jump\t// in\n    tag_33:\n      swap3\n      pop\n      pop\n      dup2\n      swap1\n      sstore\n      pop\n        /* \"Dapp/MoneyTransfer.sol\":644:763  if(TotalFunds > 0 && TotalFunds > amount){... */\n      jump(tag_35)\n    tag_32:\n    tag_35:\n        /* \"Dapp/MoneyTransfer.sol\":488:770  function sendMoney(uint _amount, address _receiver) public m_validAddress(_receiver) {... */\n      pop\n      pop\n      pop\n      jump\t// out\n        /* \"Dapp/MoneyTransfer.sol\":129:154  uint256 public TotalFunds */\n    tag_13:\n      sload(0x01)\n      dup2\n      jump\t// out\n        /* \"Dapp/MoneyTransfer.sol\":247:283  uint256 public totalWeekTransactions */\n    tag_17:\n      sload(0x04)\n      dup2\n      jump\t// out\n        /* \"Dapp/MoneyTransfer.sol\":101:122  uint256 public amount */\n    tag_20:\n      sload(0x00)\n      dup2\n      jump\t// out\n        /* \"Dapp/MoneyTransfer.sol\":370:391  string public message */\n    tag_23:\n      0x08\n      dup1\n      sload\n      tag_36\n      swap1\n      tag_37\n      jump\t// in\n    tag_36:\n      dup1\n      0x1f\n      add\n      0x20\n      dup1\n      swap2\n      div\n      mul\n      0x20\n      add\n      mload(0x40)\n      swap1\n      dup2\n      add\n      0x40\n      mstore\n      dup1\n      swap3\n      swap2\n      swap1\n      dup2\n      dup2\n      mstore\n      0x20\n      add\n      dup3\n      dup1\n      sload\n      tag_38\n      swap1\n      tag_37\n      jump\t// in\n    tag_38:\n      dup1\n      iszero\n      tag_39\n      jumpi\n      dup1\n      0x1f\n      lt\n      tag_40\n      jumpi\n      0x0100\n      dup1\n      dup4\n      sload\n      div\n      mul\n      dup4\n      mstore\n      swap2\n      0x20\n      add\n      swap2\n      jump(tag_39)\n    tag_40:\n      dup3\n      add\n      swap2\n      swap1\n      0x00\n      mstore\n      keccak256(0x00, 0x20)\n      swap1\n    tag_41:\n      dup2\n      sload\n      dup2\n      mstore\n      swap1\n      0x01\n      add\n      swap1\n      0x20\n      add\n      dup1\n      dup4\n      gt\n      tag_41\n      jumpi\n      dup3\n      swap1\n      sub\n      0x1f\n      and\n      dup3\n      add\n      swap2\n    tag_39:\n      pop\n      pop\n      pop\n      pop\n      pop\n      dup2\n      jump\t// out\n        /* \"#utility.yul\":88:205   */\n    tag_43:\n        /* \"#utility.yul\":197:198   */\n      0x00\n        /* \"#utility.yul\":194:195   */\n      dup1\n        /* \"#utility.yul\":187:199   */\n      revert\n        /* \"#utility.yul\":334:411   */\n    tag_45:\n        /* \"#utility.yul\":371:378   */\n      0x00\n        /* \"#utility.yul\":400:405   */\n      dup2\n        /* \"#utility.yul\":389:405   */\n      swap1\n      pop\n        /* \"#utility.yul\":334:411   */\n      swap2\n      swap1\n      pop\n      jump\t// out\n        /* \"#utility.yul\":417:539   */\n    tag_46:\n        /* \"#utility.yul\":490:514   */\n      tag_68\n        /* \"#utility.yul\":508:513   */\n      dup2\n        /* \"#utility.yul\":490:514   */\n      tag_45\n      jump\t// in\n    tag_68:\n        /* \"#utility.yul\":483:488   */\n      dup2\n        /* \"#utility.yul\":480:515   */\n      eq\n        /* \"#utility.yul\":470:533   */\n      tag_69\n      jumpi\n        /* \"#utility.yul\":529:530   */\n      0x00\n        /* \"#utility.yul\":526:527   */\n      dup1\n        /* \"#utility.yul\":519:531   */\n      revert\n        /* \"#utility.yul\":470:533   */\n    tag_69:\n        /* \"#utility.yul\":417:539   */\n      pop\n      jump\t// out\n        /* \"#utility.yul\":545:684   */\n    tag_47:\n        /* \"#utility.yul\":591:596   */\n      0x00\n        /* \"#utility.yul\":629:635   */\n      dup2\n        /* \"#utility.yul\":616:636   */\n      calldataload\n        /* \"#utility.yul\":607:636   */\n      swap1\n      pop\n        /* \"#utility.yul\":645:678   */\n      tag_71\n        /* \"#utility.yul\":672:677   */\n      dup2\n        /* \"#utility.yul\":645:678   */\n      tag_46\n      jump\t// in\n    tag_71:\n        /* \"#utility.yul\":545:684   */\n      swap3\n      swap2\n      pop\n      pop\n      jump\t// out\n        /* \"#utility.yul\":690:816   */\n    tag_48:\n        /* \"#utility.yul\":727:734   */\n      0x00\n        /* \"#utility.yul\":767:809   */\n      0xffffffffffffffffffffffffffffffffffffffff\n        /* \"#utility.yul\":760:765   */\n      dup3\n        /* \"#utility.yul\":756:810   */\n      and\n        /* \"#utility.yul\":745:810   */\n      swap1\n      pop\n        /* \"#utility.yul\":690:816   */\n      swap2\n      swap1\n      pop\n      jump\t// out\n        /* \"#utility.yul\":822:918   */\n    tag_49:\n        /* \"#utility.yul\":859:866   */\n      0x00\n        /* \"#utility.yul\":888:912   */\n      tag_74\n        /* \"#utility.yul\":906:911   */\n      dup3\n        /* \"#utility.yul\":888:912   */\n      tag_48\n      jump\t// in\n    tag_74:\n        /* \"#utility.yul\":877:912   */\n      swap1\n      pop\n        /* \"#utility.yul\":822:918   */\n      swap2\n      swap1\n      pop\n      jump\t// out\n        /* \"#utility.yul\":924:1046   */\n    tag_50:\n        /* \"#utility.yul\":997:1021   */\n      tag_76\n        /* \"#utility.yul\":1015:1020   */\n      dup2\n        /* \"#utility.yul\":997:1021   */\n      tag_49\n      jump\t// in\n    tag_76:\n        /* \"#utility.yul\":990:995   */\n      dup2\n        /* \"#utility.yul\":987:1022   */\n      eq\n        /* \"#utility.yul\":977:1040   */\n      tag_77\n      jumpi\n        /* \"#utility.yul\":1036:1037   */\n      0x00\n        /* \"#utility.yul\":1033:1034   */\n      dup1\n        /* \"#utility.yul\":1026:1038   */\n      revert\n        /* \"#utility.yul\":977:1040   */\n    tag_77:\n        /* \"#utility.yul\":924:1046   */\n      pop\n      jump\t// out\n        /* \"#utility.yul\":1052:1191   */\n    tag_51:\n        /* \"#utility.yul\":1098:1103   */\n      0x00\n        /* \"#utility.yul\":1136:1142   */\n      dup2\n        /* \"#utility.yul\":1123:1143   */\n      calldataload\n        /* \"#utility.yul\":1114:1143   */\n      swap1\n      pop\n        /* \"#utility.yul\":1152:1185   */\n      tag_79\n        /* \"#utility.yul\":1179:1184   */\n      dup2\n        /* \"#utility.yul\":1152:1185   */\n      tag_50\n      jump\t// in\n    tag_79:\n        /* \"#utility.yul\":1052:1191   */\n      swap3\n      swap2\n      pop\n      pop\n      jump\t// out\n        /* \"#utility.yul\":1197:1671   */\n    tag_10:\n        /* \"#utility.yul\":1265:1271   */\n      0x00\n        /* \"#utility.yul\":1273:1279   */\n      dup1\n        /* \"#utility.yul\":1322:1324   */\n      0x40\n        /* \"#utility.yul\":1310:1319   */\n      dup4\n        /* \"#utility.yul\":1301:1308   */\n      dup6\n        /* \"#utility.yul\":1297:1320   */\n      sub\n        /* \"#utility.yul\":1293:1325   */\n      slt\n        /* \"#utility.yul\":1290:1409   */\n      iszero\n      tag_81\n      jumpi\n        /* \"#utility.yul\":1328:1407   */\n      tag_82\n      tag_43\n      jump\t// in\n    tag_82:\n        /* \"#utility.yul\":1290:1409   */\n    tag_81:\n        /* \"#utility.yul\":1448:1449   */\n      0x00\n        /* \"#utility.yul\":1473:1526   */\n      tag_83\n        /* \"#utility.yul\":1518:1525   */\n      dup6\n        /* \"#utility.yul\":1509:1515   */\n      dup3\n        /* \"#utility.yul\":1498:1507   */\n      dup7\n        /* \"#utility.yul\":1494:1516   */\n      add\n        /* \"#utility.yul\":1473:1526   */\n      tag_47\n      jump\t// in\n    tag_83:\n        /* \"#utility.yul\":1463:1526   */\n      swap3\n      pop\n        /* \"#utility.yul\":1419:1536   */\n      pop\n        /* \"#utility.yul\":1575:1577   */\n      0x20\n        /* \"#utility.yul\":1601:1654   */\n      tag_84\n        /* \"#utility.yul\":1646:1653   */\n      dup6\n        /* \"#utility.yul\":1637:1643   */\n      dup3\n        /* \"#utility.yul\":1626:1635   */\n      dup7\n        /* \"#utility.yul\":1622:1644   */\n      add\n        /* \"#utility.yul\":1601:1654   */\n      tag_51\n      jump\t// in\n    tag_84:\n        /* \"#utility.yul\":1591:1654   */\n      swap2\n      pop\n        /* \"#utility.yul\":1546:1664   */\n      pop\n        /* \"#utility.yul\":1197:1671   */\n      swap3\n      pop\n      swap3\n      swap1\n      pop\n      jump\t// out\n        /* \"#utility.yul\":1677:1795   */\n    tag_52:\n        /* \"#utility.yul\":1764:1788   */\n      tag_86\n        /* \"#utility.yul\":1782:1787   */\n      dup2\n        /* \"#utility.yul\":1764:1788   */\n      tag_45\n      jump\t// in\n    tag_86:\n        /* \"#utility.yul\":1759:1762   */\n      dup3\n        /* \"#utility.yul\":1752:1789   */\n      mstore\n        /* \"#utility.yul\":1677:1795   */\n      pop\n      pop\n      jump\t// out\n        /* \"#utility.yul\":1801:2023   */\n    tag_15:\n        /* \"#utility.yul\":1894:1898   */\n      0x00\n        /* \"#utility.yul\":1932:1934   */\n      0x20\n        /* \"#utility.yul\":1921:1930   */\n      dup3\n        /* \"#utility.yul\":1917:1935   */\n      add\n        /* \"#utility.yul\":1909:1935   */\n      swap1\n      pop\n        /* \"#utility.yul\":1945:2016   */\n      tag_88\n        /* \"#utility.yul\":2013:2014   */\n      0x00\n        /* \"#utility.yul\":2002:2011   */\n      dup4\n        /* \"#utility.yul\":1998:2015   */\n      add\n        /* \"#utility.yul\":1989:1995   */\n      dup5\n        /* \"#utility.yul\":1945:2016   */\n      tag_52\n      jump\t// in\n    tag_88:\n        /* \"#utility.yul\":1801:2023   */\n      swap3\n      swap2\n      pop\n      pop\n      jump\t// out\n        /* \"#utility.yul\":2029:2128   */\n    tag_53:\n        /* \"#utility.yul\":2081:2087   */\n      0x00\n        /* \"#utility.yul\":2115:2120   */\n      dup2\n        /* \"#utility.yul\":2109:2121   */\n      mload\n        /* \"#utility.yul\":2099:2121   */\n      swap1\n      pop\n        /* \"#utility.yul\":2029:2128   */\n      swap2\n      swap1\n      pop\n      jump\t// out\n        /* \"#utility.yul\":2134:2303   */\n    tag_54:\n        /* \"#utility.yul\":2218:2229   */\n      0x00\n        /* \"#utility.yul\":2252:2258   */\n      dup3\n        /* \"#utility.yul\":2247:2250   */\n      dup3\n        /* \"#utility.yul\":2240:2259   */\n      mstore\n        /* \"#utility.yul\":2292:2296   */\n      0x20\n        /* \"#utility.yul\":2287:2290   */\n      dup3\n        /* \"#utility.yul\":2283:2297   */\n      add\n        /* \"#utility.yul\":2268:2297   */\n      swap1\n      pop\n        /* \"#utility.yul\":2134:2303   */\n      swap3\n      swap2\n      pop\n      pop\n      jump\t// out\n        /* \"#utility.yul\":2309:2616   */\n    tag_55:\n        /* \"#utility.yul\":2377:2378   */\n      0x00\n        /* \"#utility.yul\":2387:2500   */\n    tag_92:\n        /* \"#utility.yul\":2401:2407   */\n      dup4\n        /* \"#utility.yul\":2398:2399   */\n      dup2\n        /* \"#utility.yul\":2395:2408   */\n      lt\n        /* \"#utility.yul\":2387:2500   */\n      iszero\n      tag_94\n      jumpi\n        /* \"#utility.yul\":2486:2487   */\n      dup1\n        /* \"#utility.yul\":2481:2484   */\n      dup3\n        /* \"#utility.yul\":2477:2488   */\n      add\n        /* \"#utility.yul\":2471:2489   */\n      mload\n        /* \"#utility.yul\":2467:2468   */\n      dup2\n        /* \"#utility.yul\":2462:2465   */\n      dup5\n        /* \"#utility.yul\":2458:2469   */\n      add\n        /* \"#utility.yul\":2451:2490   */\n      mstore\n        /* \"#utility.yul\":2423:2425   */\n      0x20\n        /* \"#utility.yul\":2420:2421   */\n      dup2\n        /* \"#utility.yul\":2416:2426   */\n      add\n        /* \"#utility.yul\":2411:2426   */\n      swap1\n      pop\n        /* \"#utility.yul\":2387:2500   */\n      jump(tag_92)\n    tag_94:\n        /* \"#utility.yul\":2518:2524   */\n      dup4\n        /* \"#utility.yul\":2515:2516   */\n      dup2\n        /* \"#utility.yul\":2512:2525   */\n      gt\n        /* \"#utility.yul\":2509:2610   */\n      iszero\n      tag_95\n      jumpi\n        /* \"#utility.yul\":2598:2599   */\n      0x00\n        /* \"#utility.yul\":2589:2595   */\n      dup5\n        /* \"#utility.yul\":2584:2587   */\n      dup5\n        /* \"#utility.yul\":2580:2596   */\n      add\n        /* \"#utility.yul\":2573:2600   */\n      mstore\n        /* \"#utility.yul\":2509:2610   */\n    tag_95:\n        /* \"#utility.yul\":2358:2616   */\n      pop\n        /* \"#utility.yul\":2309:2616   */\n      pop\n      pop\n      pop\n      jump\t// out\n        /* \"#utility.yul\":2622:2724   */\n    tag_56:\n        /* \"#utility.yul\":2663:2669   */\n      0x00\n        /* \"#utility.yul\":2714:2716   */\n      0x1f\n        /* \"#utility.yul\":2710:2717   */\n      not\n        /* \"#utility.yul\":2705:2707   */\n      0x1f\n        /* \"#utility.yul\":2698:2703   */\n      dup4\n        /* \"#utility.yul\":2694:2708   */\n      add\n        /* \"#utility.yul\":2690:2718   */\n      and\n        /* \"#utility.yul\":2680:2718   */\n      swap1\n      pop\n        /* \"#utility.yul\":2622:2724   */\n      swap2\n      swap1\n      pop\n      jump\t// out\n        /* \"#utility.yul\":2730:3094   */\n    tag_57:\n        /* \"#utility.yul\":2818:2821   */\n      0x00\n        /* \"#utility.yul\":2846:2885   */\n      tag_98\n        /* \"#utility.yul\":2879:2884   */\n      dup3\n        /* \"#utility.yul\":2846:2885   */\n      tag_53\n      jump\t// in\n    tag_98:\n        /* \"#utility.yul\":2901:2972   */\n      tag_99\n        /* \"#utility.yul\":2965:2971   */\n      dup2\n        /* \"#utility.yul\":2960:2963   */\n      dup6\n        /* \"#utility.yul\":2901:2972   */\n      tag_54\n      jump\t// in\n    tag_99:\n        /* \"#utility.yul\":2894:2972   */\n      swap4\n      pop\n        /* \"#utility.yul\":2981:3033   */\n      tag_100\n        /* \"#utility.yul\":3026:3032   */\n      dup2\n        /* \"#utility.yul\":3021:3024   */\n      dup6\n        /* \"#utility.yul\":3014:3018   */\n      0x20\n        /* \"#utility.yul\":3007:3012   */\n      dup7\n        /* \"#utility.yul\":3003:3019   */\n      add\n        /* \"#utility.yul\":2981:3033   */\n      tag_55\n      jump\t// in\n    tag_100:\n        /* \"#utility.yul\":3058:3087   */\n      tag_101\n        /* \"#utility.yul\":3080:3086   */\n      dup2\n        /* \"#utility.yul\":3058:3087   */\n      tag_56\n      jump\t// in\n    tag_101:\n        /* \"#utility.yul\":3053:3056   */\n      dup5\n        /* \"#utility.yul\":3049:3088   */\n      add\n        /* \"#utility.yul\":3042:3088   */\n      swap2\n      pop\n        /* \"#utility.yul\":2822:3094   */\n      pop\n        /* \"#utility.yul\":2730:3094   */\n      swap3\n      swap2\n      pop\n      pop\n      jump\t// out\n        /* \"#utility.yul\":3100:3413   */\n    tag_25:\n        /* \"#utility.yul\":3213:3217   */\n      0x00\n        /* \"#utility.yul\":3251:3253   */\n      0x20\n        /* \"#utility.yul\":3240:3249   */\n      dup3\n        /* \"#utility.yul\":3236:3254   */\n      add\n        /* \"#utility.yul\":3228:3254   */\n      swap1\n      pop\n        /* \"#utility.yul\":3300:3309   */\n      dup2\n        /* \"#utility.yul\":3294:3298   */\n      dup2\n        /* \"#utility.yul\":3290:3310   */\n      sub\n        /* \"#utility.yul\":3286:3287   */\n      0x00\n        /* \"#utility.yul\":3275:3284   */\n      dup4\n        /* \"#utility.yul\":3271:3288   */\n      add\n        /* \"#utility.yul\":3264:3311   */\n      mstore\n        /* \"#utility.yul\":3328:3406   */\n      tag_103\n        /* \"#utility.yul\":3401:3405   */\n      dup2\n        /* \"#utility.yul\":3392:3398   */\n      dup5\n        /* \"#utility.yul\":3328:3406   */\n      tag_57\n      jump\t// in\n    tag_103:\n        /* \"#utility.yul\":3320:3406   */\n      swap1\n      pop\n        /* \"#utility.yul\":3100:3413   */\n      swap3\n      swap2\n      pop\n      pop\n      jump\t// out\n        /* \"#utility.yul\":3419:3597   */\n    tag_58:\n        /* \"#utility.yul\":3559:3589   */\n      0x2054686973206164647265737320646f65736e27742065786973747300000000\n        /* \"#utility.yul\":3555:3556   */\n      0x00\n        /* \"#utility.yul\":3547:3553   */\n      dup3\n        /* \"#utility.yul\":3543:3557   */\n      add\n        /* \"#utility.yul\":3536:3590   */\n      mstore\n        /* \"#utility.yul\":3419:3597   */\n      pop\n      jump\t// out\n        /* \"#utility.yul\":3603:3969   */\n    tag_59:\n        /* \"#utility.yul\":3745:3748   */\n      0x00\n        /* \"#utility.yul\":3766:3833   */\n      tag_106\n        /* \"#utility.yul\":3830:3832   */\n      0x1c\n        /* \"#utility.yul\":3825:3828   */\n      dup4\n        /* \"#utility.yul\":3766:3833   */\n      tag_54\n      jump\t// in\n    tag_106:\n        /* \"#utility.yul\":3759:3833   */\n      swap2\n      pop\n        /* \"#utility.yul\":3842:3935   */\n      tag_107\n        /* \"#utility.yul\":3931:3934   */\n      dup3\n        /* \"#utility.yul\":3842:3935   */\n      tag_58\n      jump\t// in\n    tag_107:\n        /* \"#utility.yul\":3960:3962   */\n      0x20\n        /* \"#utility.yul\":3955:3958   */\n      dup3\n        /* \"#utility.yul\":3951:3963   */\n      add\n        /* \"#utility.yul\":3944:3963   */\n      swap1\n      pop\n        /* \"#utility.yul\":3603:3969   */\n      swap2\n      swap1\n      pop\n      jump\t// out\n        /* \"#utility.yul\":3975:4394   */\n    tag_29:\n        /* \"#utility.yul\":4141:4145   */\n      0x00\n        /* \"#utility.yul\":4179:4181   */\n      0x20\n        /* \"#utility.yul\":4168:4177   */\n      dup3\n        /* \"#utility.yul\":4164:4182   */\n      add\n        /* \"#utility.yul\":4156:4182   */\n      swap1\n      pop\n        /* \"#utility.yul\":4228:4237   */\n      dup2\n        /* \"#utility.yul\":4222:4226   */\n      dup2\n        /* \"#utility.yul\":4218:4238   */\n      sub\n        /* \"#utility.yul\":4214:4215   */\n      0x00\n        /* \"#utility.yul\":4203:4212   */\n      dup4\n        /* \"#utility.yul\":4199:4216   */\n      add\n        /* \"#utility.yul\":4192:4239   */\n      mstore\n        /* \"#utility.yul\":4256:4387   */\n      tag_109\n        /* \"#utility.yul\":4382:4386   */\n      dup2\n        /* \"#utility.yul\":4256:4387   */\n      tag_59\n      jump\t// in\n    tag_109:\n        /* \"#utility.yul\":4248:4387   */\n      swap1\n      pop\n        /* \"#utility.yul\":3975:4394   */\n      swap2\n      swap1\n      pop\n      jump\t// out\n        /* \"#utility.yul\":4400:4580   */\n    tag_60:\n        /* \"#utility.yul\":4448:4525   */\n      0x4e487b7100000000000000000000000000000000000000000000000000000000\n        /* \"#utility.yul\":4445:4446   */\n      0x00\n        /* \"#utility.yul\":4438:4526   */\n      mstore\n        /* \"#utility.yul\":4545:4549   */\n      0x11\n        /* \"#utility.yul\":4542:4543   */\n      0x04\n        /* \"#utility.yul\":4535:4550   */\n      mstore\n        /* \"#utility.yul\":4569:4573   */\n      0x24\n        /* \"#utility.yul\":4566:4567   */\n      0x00\n        /* \"#utility.yul\":4559:4574   */\n      revert\n        /* \"#utility.yul\":4586:4777   */\n    tag_34:\n        /* \"#utility.yul\":4626:4630   */\n      0x00\n        /* \"#utility.yul\":4646:4666   */\n      tag_112\n        /* \"#utility.yul\":4664:4665   */\n      dup3\n        /* \"#utility.yul\":4646:4666   */\n      tag_45\n      jump\t// in\n    tag_112:\n        /* \"#utility.yul\":4641:4666   */\n      swap2\n      pop\n        /* \"#utility.yul\":4680:4700   */\n      tag_113\n        /* \"#utility.yul\":4698:4699   */\n      dup4\n        /* \"#utility.yul\":4680:4700   */\n      tag_45\n      jump\t// in\n    tag_113:\n        /* \"#utility.yul\":4675:4700   */\n      swap3\n      pop\n        /* \"#utility.yul\":4719:4720   */\n      dup3\n        /* \"#utility.yul\":4716:4717   */\n      dup3\n        /* \"#utility.yul\":4713:4721   */\n      lt\n        /* \"#utility.yul\":4710:4744   */\n      iszero\n      tag_114\n      jumpi\n        /* \"#utility.yul\":4724:4742   */\n      tag_115\n      tag_60\n      jump\t// in\n    tag_115:\n        /* \"#utility.yul\":4710:4744   */\n    tag_114:\n        /* \"#utility.yul\":4769:4770   */\n      dup3\n        /* \"#utility.yul\":4766:4767   */\n      dup3\n        /* \"#utility.yul\":4762:4771   */\n      sub\n        /* \"#utility.yul\":4754:4771   */\n      swap1\n      pop\n        /* \"#utility.yul\":4586:4777   */\n      swap3\n      swap2\n      pop\n      pop\n      jump\t// out\n        /* \"#utility.yul\":4783:4963   */\n    tag_61:\n        /* \"#utility.yul\":4831:4908   */\n      0x4e487b7100000000000000000000000000000000000000000000000000000000\n        /* \"#utility.yul\":4828:4829   */\n      0x00\n        /* \"#utility.yul\":4821:4909   */\n      mstore\n        /* \"#utility.yul\":4928:4932   */\n      0x22\n        /* \"#utility.yul\":4925:4926   */\n      0x04\n        /* \"#utility.yul\":4918:4933   */\n      mstore\n        /* \"#utility.yul\":4952:4956   */\n      0x24\n        /* \"#utility.yul\":4949:4950   */\n      0x00\n        /* \"#utility.yul\":4942:4957   */\n      revert\n        /* \"#utility.yul\":4969:5289   */\n    tag_37:\n        /* \"#utility.yul\":5013:5019   */\n      0x00\n        /* \"#utility.yul\":5050:5051   */\n      0x02\n        /* \"#utility.yul\":5044:5048   */\n      dup3\n        /* \"#utility.yul\":5040:5052   */\n      div\n        /* \"#utility.yul\":5030:5052   */\n      swap1\n      pop\n        /* \"#utility.yul\":5097:5098   */\n      0x01\n        /* \"#utility.yul\":5091:5095   */\n      dup3\n        /* \"#utility.yul\":5087:5099   */\n      and\n        /* \"#utility.yul\":5118:5136   */\n      dup1\n        /* \"#utility.yul\":5108:5189   */\n      tag_118\n      jumpi\n        /* \"#utility.yul\":5174:5178   */\n      0x7f\n        /* \"#utility.yul\":5166:5172   */\n      dup3\n        /* \"#utility.yul\":5162:5179   */\n      and\n        /* \"#utility.yul\":5152:5179   */\n      swap2\n      pop\n        /* \"#utility.yul\":5108:5189   */\n    tag_118:\n        /* \"#utility.yul\":5236:5238   */\n      0x20\n        /* \"#utility.yul\":5228:5234   */\n      dup3\n        /* \"#utility.yul\":5225:5239   */\n      lt\n        /* \"#utility.yul\":5205:5223   */\n      dup2\n        /* \"#utility.yul\":5202:5240   */\n      sub\n        /* \"#utility.yul\":5199:5283   */\n      tag_119\n      jumpi\n        /* \"#utility.yul\":5255:5273   */\n      tag_120\n      tag_61\n      jump\t// in\n    tag_120:\n        /* \"#utility.yul\":5199:5283   */\n    tag_119:\n        /* \"#utility.yul\":5020:5289   */\n      pop\n        /* \"#utility.yul\":4969:5289   */\n      swap2\n      swap1\n      pop\n      jump\t// out\n\n    auxdata: 0xa2646970667358221220c6cc9bd860d855efca65fd2cb8cf7da99fd5b47878b4aa85c26b0001d0c7b84464736f6c634300080f0033\n}\n",
				"bytecode": {
					"linkReferences": {},
					"object": "60806040526201518060035534801561001757600080fd5b506040516106a93803806106a983398181016040528101906100399190610081565b80600181905550506100ae565b600080fd5b6000819050919050565b61005e8161004b565b811461006957600080fd5b50565b60008151905061007b81610055565b92915050565b60006020828403121561009757610096610046565b5b60006100a58482850161006c565b91505092915050565b6105ec806100bd6000396000f3fe608060405234801561001057600080fd5b50600436106100575760003560e01c8063062a75441461005c5780637b9a3f4c1461007857806394b5dcaa14610096578063aa8c217c146100b4578063e21f37ce146100d2575b600080fd5b61007660048036038101906100719190610362565b6100f0565b005b610080610229565b60405161008d91906103b1565b60405180910390f35b61009e61022f565b6040516100ab91906103b1565b60405180910390f35b6100bc610235565b6040516100c991906103b1565b60405180910390f35b6100da61023b565b6040516100e79190610465565b60405180910390f35b8080600260006101000a81548173ffffffffffffffffffffffffffffffffffffffff021916908373ffffffffffffffffffffffffffffffffffffffff160217905550600073ffffffffffffffffffffffffffffffffffffffff168173ffffffffffffffffffffffffffffffffffffffff16036101a1576040517f08c379a0000000000000000000000000000000000000000000000000000000008152600401610198906104d3565b60405180910390fd5b81600260006101000a81548173ffffffffffffffffffffffffffffffffffffffff021916908373ffffffffffffffffffffffffffffffffffffffff1602179055508260008190555060006001541180156101fe5750600054600154115b1561022357600054600160008282546102179190610522565b92505081905550610224565b5b505050565b60015481565b60045481565b60005481565b6008805461024890610585565b80601f016020809104026020016040519081016040528092919081815260200182805461027490610585565b80156102c15780601f10610296576101008083540402835291602001916102c1565b820191906000526020600020905b8154815290600101906020018083116102a457829003601f168201915b505050505081565b600080fd5b6000819050919050565b6102e1816102ce565b81146102ec57600080fd5b50565b6000813590506102fe816102d8565b92915050565b600073ffffffffffffffffffffffffffffffffffffffff82169050919050565b600061032f82610304565b9050919050565b61033f81610324565b811461034a57600080fd5b50565b60008135905061035c81610336565b92915050565b60008060408385031215610379576103786102c9565b5b6000610387858286016102ef565b92505060206103988582860161034d565b9150509250929050565b6103ab816102ce565b82525050565b60006020820190506103c660008301846103a2565b92915050565b600081519050919050565b600082825260208201905092915050565b60005b838110156104065780820151818401526020810190506103eb565b83811115610415576000848401525b50505050565b6000601f19601f8301169050919050565b6000610437826103cc565b61044181856103d7565b93506104518185602086016103e8565b61045a8161041b565b840191505092915050565b6000602082019050818103600083015261047f818461042c565b905092915050565b7f2054686973206164647265737320646f65736e27742065786973747300000000600082015250565b60006104bd601c836103d7565b91506104c882610487565b602082019050919050565b600060208201905081810360008301526104ec816104b0565b9050919050565b7f4e487b7100000000000000000000000000000000000000000000000000000000600052601160045260246000fd5b600061052d826102ce565b9150610538836102ce565b92508282101561054b5761054a6104f3565b5b828203905092915050565b7f4e487b7100000000000000000000000000000000000000000000000000000000600052602260045260246000fd5b6000600282049050600182168061059d57607f821691505b6020821081036105b0576105af610556565b5b5091905056fea2646970667358221220c6cc9bd860d855efca65fd2cb8cf7da99fd5b47878b4aa85c26b0001d0c7b84464736f6c634300080f0033",
					"opcodes": "PUSH1 0x80 PUSH1 0x40 MSTORE PUSH3 0x15180 PUSH1 0x3 SSTORE CALLVALUE DUP1 ISZERO PUSH2 0x17 JUMPI PUSH1 0x0 DUP1 REVERT JUMPDEST POP PUSH1 0x40 MLOAD PUSH2 0x6A9 CODESIZE SUB DUP1 PUSH2 0x6A9 DUP4 CODECOPY DUP2 DUP2 ADD PUSH1 0x40 MSTORE DUP2 ADD SWAP1 PUSH2 0x39 SWAP2 SWAP1 PUSH2 0x81 JUMP JUMPDEST DUP1 PUSH1 0x1 DUP2 SWAP1 SSTORE POP POP PUSH2 0xAE JUMP JUMPDEST PUSH1 0x0 DUP1 REVERT JUMPDEST PUSH1 0x0 DUP2 SWAP1 POP SWAP2 SWAP1 POP JUMP JUMPDEST PUSH2 0x5E DUP2 PUSH2 0x4B JUMP JUMPDEST DUP2 EQ PUSH2 0x69 JUMPI PUSH1 0x0 DUP1 REVERT JUMPDEST POP JUMP JUMPDEST PUSH1 0x0 DUP2 MLOAD SWAP1 POP PUSH2 0x7B DUP2 PUSH2 0x55 JUMP JUMPDEST SWAP3 SWAP2 POP POP JUMP JUMPDEST PUSH1 0x0 PUSH1 0x20 DUP3 DUP5 SUB SLT ISZERO PUSH2 0x97 JUMPI PUSH2 0x96 PUSH2 0x46 JUMP JUMPDEST JUMPDEST PUSH1 0x0 PUSH2 0xA5 DUP5 DUP3 DUP6 ADD PUSH2 0x6C JUMP JUMPDEST SWAP2 POP POP SWAP3 SWAP2 POP POP JUMP JUMPDEST PUSH2 0x5EC DUP1 PUSH2 0xBD PUSH1 0x0 CODECOPY PUSH1 0x0 RETURN INVALID PUSH1 0x80 PUSH1 0x40 MSTORE CALLVALUE DUP1 ISZERO PUSH2 0x10 JUMPI PUSH1 0x0 DUP1 REVERT JUMPDEST POP PUSH1 0x4 CALLDATASIZE LT PUSH2 0x57 JUMPI PUSH1 0x0 CALLDATALOAD PUSH1 0xE0 SHR DUP1 PUSH4 0x62A7544 EQ PUSH2 0x5C JUMPI DUP1 PUSH4 0x7B9A3F4C EQ PUSH2 0x78 JUMPI DUP1 PUSH4 0x94B5DCAA EQ PUSH2 0x96 JUMPI DUP1 PUSH4 0xAA8C217C EQ PUSH2 0xB4 JUMPI DUP1 PUSH4 0xE21F37CE EQ PUSH2 0xD2 JUMPI JUMPDEST PUSH1 0x0 DUP1 REVERT JUMPDEST PUSH2 0x76 PUSH1 0x4 DUP1 CALLDATASIZE SUB DUP2 ADD SWAP1 PUSH2 0x71 SWAP2 SWAP1 PUSH2 0x362 JUMP JUMPDEST PUSH2 0xF0 JUMP JUMPDEST STOP JUMPDEST PUSH2 0x80 PUSH2 0x229 JUMP JUMPDEST PUSH1 0x40 MLOAD PUSH2 0x8D SWAP2 SWAP1 PUSH2 0x3B1 JUMP JUMPDEST PUSH1 0x40 MLOAD DUP1 SWAP2 SUB SWAP1 RETURN JUMPDEST PUSH2 0x9E PUSH2 0x22F JUMP JUMPDEST PUSH1 0x40 MLOAD PUSH2 0xAB SWAP2 SWAP1 PUSH2 0x3B1 JUMP JUMPDEST PUSH1 0x40 MLOAD DUP1 SWAP2 SUB SWAP1 RETURN JUMPDEST PUSH2 0xBC PUSH2 0x235 JUMP JUMPDEST PUSH1 0x40 MLOAD PUSH2 0xC9 SWAP2 SWAP1 PUSH2 0x3B1 JUMP JUMPDEST PUSH1 0x40 MLOAD DUP1 SWAP2 SUB SWAP1 RETURN JUMPDEST PUSH2 0xDA PUSH2 0x23B JUMP JUMPDEST PUSH1 0x40 MLOAD PUSH2 0xE7 SWAP2 SWAP1 PUSH2 0x465 JUMP JUMPDEST PUSH1 0x40 MLOAD DUP1 SWAP2 SUB SWAP1 RETURN JUMPDEST DUP1 DUP1 PUSH1 0x2 PUSH1 0x0 PUSH2 0x100 EXP DUP2 SLOAD DUP2 PUSH20 0xFFFFFFFFFFFFFFFFFFFFFFFFFFFFFFFFFFFFFFFF MUL NOT AND SWAP1 DUP4 PUSH20 0xFFFFFFFFFFFFFFFFFFFFFFFFFFFFFFFFFFFFFFFF AND MUL OR SWAP1 SSTORE POP PUSH1 0x0 PUSH20 0xFFFFFFFFFFFFFFFFFFFFFFFFFFFFFFFFFFFFFFFF AND DUP2 PUSH20 0xFFFFFFFFFFFFFFFFFFFFFFFFFFFFFFFFFFFFFFFF AND SUB PUSH2 0x1A1 JUMPI PUSH1 0x40 MLOAD PUSH32 0x8C379A000000000000000000000000000000000000000000000000000000000 DUP2 MSTORE PUSH1 0x4 ADD PUSH2 0x198 SWAP1 PUSH2 0x4D3 JUMP JUMPDEST PUSH1 0x40 MLOAD DUP1 SWAP2 SUB SWAP1 REVERT JUMPDEST DUP2 PUSH1 0x2 PUSH1 0x0 PUSH2 0x100 EXP DUP2 SLOAD DUP2 PUSH20 0xFFFFFFFFFFFFFFFFFFFFFFFFFFFFFFFFFFFFFFFF MUL NOT AND SWAP1 DUP4 PUSH20 0xFFFFFFFFFFFFFFFFFFFFFFFFFFFFFFFFFFFFFFFF AND MUL OR SWAP1 SSTORE POP DUP3 PUSH1 0x0 DUP2 SWAP1 SSTORE POP PUSH1 0x0 PUSH1 0x1 SLOAD GT DUP1 ISZERO PUSH2 0x1FE JUMPI POP PUSH1 0x0 SLOAD PUSH1 0x1 SLOAD GT JUMPDEST ISZERO PUSH2 0x223 JUMPI PUSH1 0x0 SLOAD PUSH1 0x1 PUSH1 0x0 DUP3 DUP3 SLOAD PUSH2 0x217 SWAP2 SWAP1 PUSH2 0x522 JUMP JUMPDEST SWAP3 POP POP DUP2 SWAP1 SSTORE POP PUSH2 0x224 JUMP JUMPDEST JUMPDEST POP POP POP JUMP JUMPDEST PUSH1 0x1 SLOAD DUP2 JUMP JUMPDEST PUSH1 0x4 SLOAD DUP2 JUMP JUMPDEST PUSH1 0x0 SLOAD DUP2 JUMP JUMPDEST PUSH1 0x8 DUP1 SLOAD PUSH2 0x248 SWAP1 PUSH2 0x585 JUMP JUMPDEST DUP1 PUSH1 0x1F ADD PUSH1 0x20 DUP1 SWAP2 DIV MUL PUSH1 0x20 ADD PUSH1 0x40 MLOAD SWAP1 DUP2 ADD PUSH1 0x40 MSTORE DUP1 SWAP3 SWAP2 SWAP1 DUP2 DUP2 MSTORE PUSH1 0x20 ADD DUP3 DUP1 SLOAD PUSH2 0x274 SWAP1 PUSH2 0x585 JUMP JUMPDEST DUP1 ISZERO PUSH2 0x2C1 JUMPI DUP1 PUSH1 0x1F LT PUSH2 0x296 JUMPI PUSH2 0x100 DUP1 DUP4 SLOAD DIV MUL DUP4 MSTORE SWAP2 PUSH1 0x20 ADD SWAP2 PUSH2 0x2C1 JUMP JUMPDEST DUP3 ADD SWAP2 SWAP1 PUSH1 0x0 MSTORE PUSH1 0x20 PUSH1 0x0 KECCAK256 SWAP1 JUMPDEST DUP2 SLOAD DUP2 MSTORE SWAP1 PUSH1 0x1 ADD SWAP1 PUSH1 0x20 ADD DUP1 DUP4 GT PUSH2 0x2A4 JUMPI DUP3 SWAP1 SUB PUSH1 0x1F AND DUP3 ADD SWAP2 JUMPDEST POP POP POP POP POP DUP2 JUMP JUMPDEST PUSH1 0x0 DUP1 REVERT JUMPDEST PUSH1 0x0 DUP2 SWAP1 POP SWAP2 SWAP1 POP JUMP JUMPDEST PUSH2 0x2E1 DUP2 PUSH2 0x2CE JUMP JUMPDEST DUP2 EQ PUSH2 0x2EC JUMPI PUSH1 0x0 DUP1 REVERT JUMPDEST POP JUMP JUMPDEST PUSH1 0x0 DUP2 CALLDATALOAD SWAP1 POP PUSH2 0x2FE DUP2 PUSH2 0x2D8 JUMP JUMPDEST SWAP3 SWAP2 POP POP JUMP JUMPDEST PUSH1 0x0 PUSH20 0xFFFFFFFFFFFFFFFFFFFFFFFFFFFFFFFFFFFFFFFF DUP3 AND SWAP1 POP SWAP2 SWAP1 POP JUMP JUMPDEST PUSH1 0x0 PUSH2 0x32F DUP3 PUSH2 0x304 JUMP JUMPDEST SWAP1 POP SWAP2 SWAP1 POP JUMP JUMPDEST PUSH2 0x33F DUP2 PUSH2 0x324 JUMP JUMPDEST DUP2 EQ PUSH2 0x34A JUMPI PUSH1 0x0 DUP1 REVERT JUMPDEST POP JUMP JUMPDEST PUSH1 0x0 DUP2 CALLDATALOAD SWAP1 POP PUSH2 0x35C DUP2 PUSH2 0x336 JUMP JUMPDEST SWAP3 SWAP2 POP POP JUMP JUMPDEST PUSH1 0x0 DUP1 PUSH1 0x40 DUP4 DUP6 SUB SLT ISZERO PUSH2 0x379 JUMPI PUSH2 0x378 PUSH2 0x2C9 JUMP JUMPDEST JUMPDEST PUSH1 0x0 PUSH2 0x387 DUP6 DUP3 DUP7 ADD PUSH2 0x2EF JUMP JUMPDEST SWAP3 POP POP PUSH1 0x20 PUSH2 0x398 DUP6 DUP3 DUP7 ADD PUSH2 0x34D JUMP JUMPDEST SWAP2 POP POP SWAP3 POP SWAP3 SWAP1 POP JUMP JUMPDEST PUSH2 0x3AB DUP2 PUSH2 0x2CE JUMP JUMPDEST DUP3 MSTORE POP POP JUMP JUMPDEST PUSH1 0x0 PUSH1 0x20 DUP3 ADD SWAP1 POP PUSH2 0x3C6 PUSH1 0x0 DUP4 ADD DUP5 PUSH2 0x3A2 JUMP JUMPDEST SWAP3 SWAP2 POP POP JUMP JUMPDEST PUSH1 0x0 DUP2 MLOAD SWAP1 POP SWAP2 SWAP1 POP JUMP JUMPDEST PUSH1 0x0 DUP3 DUP3 MSTORE PUSH1 0x20 DUP3 ADD SWAP1 POP SWAP3 SWAP2 POP POP JUMP JUMPDEST PUSH1 0x0 JUMPDEST DUP4 DUP2 LT ISZERO PUSH2 0x406 JUMPI DUP1 DUP3 ADD MLOAD DUP2 DUP5 ADD MSTORE PUSH1 0x20 DUP2 ADD SWAP1 POP PUSH2 0x3EB JUMP JUMPDEST DUP4 DUP2 GT ISZERO PUSH2 0x415 JUMPI PUSH1 0x0 DUP5 DUP5 ADD MSTORE JUMPDEST POP POP POP POP JUMP JUMPDEST PUSH1 0x0 PUSH1 0x1F NOT PUSH1 0x1F DUP4 ADD AND SWAP1 POP SWAP2 SWAP1 POP JUMP JUMPDEST PUSH1 0x0 PUSH2 0x437 DUP3 PUSH2 0x3CC JUMP JUMPDEST PUSH2 0x441 DUP2 DUP6 PUSH2 0x3D7 JUMP JUMPDEST SWAP4 POP PUSH2 0x451 DUP2 DUP6 PUSH1 0x20 DUP7 ADD PUSH2 0x3E8 JUMP JUMPDEST PUSH2 0x45A DUP2 PUSH2 0x41B JUMP JUMPDEST DUP5 ADD SWAP2 POP POP SWAP3 SWAP2 POP POP JUMP JUMPDEST PUSH1 0x0 PUSH1 0x20 DUP3 ADD SWAP1 POP DUP2 DUP2 SUB PUSH1 0x0 DUP4 ADD MSTORE PUSH2 0x47F DUP2 DUP5 PUSH2 0x42C JUMP JUMPDEST SWAP1 POP SWAP3 SWAP2 POP POP JUMP JUMPDEST PUSH32 0x2054686973206164647265737320646F65736E27742065786973747300000000 PUSH1 0x0 DUP3 ADD MSTORE POP JUMP JUMPDEST PUSH1 0x0 PUSH2 0x4BD PUSH1 0x1C DUP4 PUSH2 0x3D7 JUMP JUMPDEST SWAP2 POP PUSH2 0x4C8 DUP3 PUSH2 0x487 JUMP JUMPDEST PUSH1 0x20 DUP3 ADD SWAP1 POP SWAP2 SWAP1 POP JUMP JUMPDEST PUSH1 0x0 PUSH1 0x20 DUP3 ADD SWAP1 POP DUP2 DUP2 SUB PUSH1 0x0 DUP4 ADD MSTORE PUSH2 0x4EC DUP2 PUSH2 0x4B0 JUMP JUMPDEST SWAP1 POP SWAP2 SWAP1 POP JUMP JUMPDEST PUSH32 0x4E487B7100000000000000000000000000000000000000000000000000000000 PUSH1 0x0 MSTORE PUSH1 0x11 PUSH1 0x4 MSTORE PUSH1 0x24 PUSH1 0x0 REVERT JUMPDEST PUSH1 0x0 PUSH2 0x52D DUP3 PUSH2 0x2CE JUMP JUMPDEST SWAP2 POP PUSH2 0x538 DUP4 PUSH2 0x2CE JUMP JUMPDEST SWAP3 POP DUP3 DUP3 LT ISZERO PUSH2 0x54B JUMPI PUSH2 0x54A PUSH2 0x4F3 JUMP JUMPDEST JUMPDEST DUP3 DUP3 SUB SWAP1 POP SWAP3 SWAP2 POP POP JUMP JUMPDEST PUSH32 0x4E487B7100000000000000000000000000000000000000000000000000000000 PUSH1 0x0 MSTORE PUSH1 0x22 PUSH1 0x4 MSTORE PUSH1 0x24 PUSH1 0x0 REVERT JUMPDEST PUSH1 0x0 PUSH1 0x2 DUP3 DIV SWAP1 POP PUSH1 0x1 DUP3 AND DUP1 PUSH2 0x59D JUMPI PUSH1 0x7F DUP3 AND SWAP2 POP JUMPDEST PUSH1 0x20 DUP3 LT DUP2 SUB PUSH2 0x5B0 JUMPI PUSH2 0x5AF PUSH2 0x556 JUMP JUMPDEST JUMPDEST POP SWAP2 SWAP1 POP JUMP INVALID LOG2 PUSH5 0x6970667358 0x22 SLT KECCAK256 0xC6 0xCC SWAP12 0xD8 PUSH1 0xD8 SSTORE 0xEF 0xCA PUSH6 0xFD2CB8CF7DA9 SWAP16 0xD5 0xB4 PUSH25 0x78B4AA85C26B0001D0C7B84464736F6C634300080F00330000 "
				},
				"gasEstimates": {
					"creation": {
						"codeDepositCost": "303200",
						"executionCost": "infinite",
						"totalCost": "infinite"
					},
					"external": {
						"TotalFunds()": "2429",
						"amount()": "2473",
						"message()": "infinite",
						"sendMoney(uint256,address)": "infinite",
						"totalWeekTransactions()": "2451"
					}
				},
				"methodIdentifiers": {
					"TotalFunds()": "7b9a3f4c",
					"amount()": "aa8c217c",
					"message()": "e21f37ce",
					"sendMoney(uint256,address)": "062a7544",
					"totalWeekTransactions()": "94b5dcaa"
				}
			},
			"storageLayout": {
				"storage": [
					{
						"astId": 3,
						"contract": "Dapp/MoneyTransfer.sol:MoneyTransfer",
						"label": "amount",
						"offset": 0,
						"slot": "0",
						"type": "t_uint256"
					},
					{
						"astId": 5,
						"contract": "Dapp/MoneyTransfer.sol:MoneyTransfer",
						"label": "TotalFunds",
						"offset": 0,
						"slot": "1",
						"type": "t_uint256"
					},
					{
						"astId": 7,
						"contract": "Dapp/MoneyTransfer.sol:MoneyTransfer",
						"label": "receiver",
						"offset": 0,
						"slot": "2",
						"type": "t_address"
					},
					{
						"astId": 13,
						"contract": "Dapp/MoneyTransfer.sol:MoneyTransfer",
						"label": "day",
						"offset": 0,
						"slot": "3",
						"type": "t_uint256"
					},
					{
						"astId": 15,
						"contract": "Dapp/MoneyTransfer.sol:MoneyTransfer",
						"label": "totalWeekTransactions",
						"offset": 0,
						"slot": "4",
						"type": "t_uint256"
					},
					{
						"astId": 17,
						"contract": "Dapp/MoneyTransfer.sol:MoneyTransfer",
						"label": "maxTransaction",
						"offset": 0,
						"slot": "5",
						"type": "t_uint256"
					},
					{
						"astId": 19,
						"contract": "Dapp/MoneyTransfer.sol:MoneyTransfer",
						"label": "minTransaction",
						"offset": 0,
						"slot": "6",
						"type": "t_uint256"
					},
					{
						"astId": 22,
						"contract": "Dapp/MoneyTransfer.sol:MoneyTransfer",
						"label": "countries",
						"offset": 0,
						"slot": "7",
						"type": "t_array(t_uint256)dyn_storage"
					},
					{
						"astId": 24,
						"contract": "Dapp/MoneyTransfer.sol:MoneyTransfer",
						"label": "message",
						"offset": 0,
						"slot": "8",
						"type": "t_string_storage"
					}
				],
				"types": {
					"t_address": {
						"encoding": "inplace",
						"label": "address",
						"numberOfBytes": "20"
					},
					"t_array(t_uint256)dyn_storage": {
						"base": "t_uint256",
						"encoding": "dynamic_array",
						"label": "uint256[]",
						"numberOfBytes": "32"
					},
					"t_string_storage": {
						"encoding": "bytes",
						"label": "string",
						"numberOfBytes": "32"
					},
					"t_uint256": {
						"encoding": "inplace",
						"label": "uint256",
						"numberOfBytes": "32"
					}
				}
			},
			"userdoc": {
				"kind": "user",
				"methods": {},
				"version": 1
			}
		}
	}
}