{
	"Dapp/MoneyTransfer.sol": {
		"MoneyTransfer": {
			"abi": [
				{
					"inputs": [
						{
							"internalType": "uint256",
							"name": "_totalFunds",
							"type": "uint256"
						}
					],
					"stateMutability": "nonpayable",
					"type": "constructor"
				},
				{
					"inputs": [],
					"name": "TotalAmount",
					"outputs": [
						{
							"internalType": "uint256",
							"name": "",
							"type": "uint256"
						}
					],
					"stateMutability": "view",
					"type": "function"
				},
				{
					"inputs": [],
					"name": "TotalFunds",
					"outputs": [
						{
							"internalType": "uint256",
							"name": "",
							"type": "uint256"
						}
					],
					"stateMutability": "view",
					"type": "function"
				},
				{
					"inputs": [],
					"name": "amount",
					"outputs": [
						{
							"internalType": "uint256",
							"name": "",
							"type": "uint256"
						}
					],
					"stateMutability": "view",
					"type": "function"
				},
				{
					"inputs": [],
					"name": "callCount",
					"outputs": [
						{
							"internalType": "uint256",
							"name": "",
							"type": "uint256"
						}
					],
					"stateMutability": "view",
					"type": "function"
				},
				{
					"inputs": [],
					"name": "callPutCard",
					"outputs": [
						{
							"internalType": "bool",
							"name": "",
							"type": "bool"
						}
					],
					"stateMutability": "view",
					"type": "function"
				},
				{
					"inputs": [],
					"name": "cardNumber",
					"outputs": [
						{
							"internalType": "string",
							"name": "",
							"type": "string"
						}
					],
					"stateMutability": "view",
					"type": "function"
				},
				{
					"inputs": [],
					"name": "convertAmount",
					"outputs": [],
					"stateMutability": "nonpayable",
					"type": "function"
				},
				{
					"inputs": [],
					"name": "countTransfer",
					"outputs": [
						{
							"internalType": "uint256",
							"name": "",
							"type": "uint256"
						}
					],
					"stateMutability": "view",
					"type": "function"
				},
				{
					"inputs": [],
					"name": "cvv",
					"outputs": [
						{
							"internalType": "string",
							"name": "",
							"type": "string"
						}
					],
					"stateMutability": "view",
					"type": "function"
				},
				{
					"inputs": [],
					"name": "firstTransferTime",
					"outputs": [
						{
							"internalType": "uint256",
							"name": "",
							"type": "uint256"
						}
					],
					"stateMutability": "view",
					"type": "function"
				},
				{
					"inputs": [],
					"name": "getOutCard",
					"outputs": [],
					"stateMutability": "nonpayable",
					"type": "function"
				},
				{
					"inputs": [],
					"name": "getTime",
					"outputs": [
						{
							"internalType": "uint256",
							"name": "",
							"type": "uint256"
						}
					],
					"stateMutability": "view",
					"type": "function"
				},
				{
					"inputs": [],
					"name": "message",
					"outputs": [
						{
							"internalType": "string",
							"name": "",
							"type": "string"
						}
					],
					"stateMutability": "view",
					"type": "function"
				},
				{
					"inputs": [],
					"name": "receiverFunds",
					"outputs": [
						{
							"internalType": "uint256",
							"name": "",
							"type": "uint256"
						}
					],
					"stateMutability": "view",
					"type": "function"
				},
				{
					"inputs": [
						{
							"internalType": "uint256",
							"name": "_amount",
							"type": "uint256"
						},
						{
							"internalType": "address",
							"name": "_receiver",
							"type": "address"
						}
					],
					"name": "sendMoney",
					"outputs": [],
					"stateMutability": "nonpayable",
					"type": "function"
				},
				{
					"inputs": [
						{
							"internalType": "string",
							"name": "_cardNumber",
							"type": "string"
						},
						{
							"internalType": "string",
							"name": "_cvv",
							"type": "string"
						}
					],
					"name": "setCard",
					"outputs": [],
					"stateMutability": "nonpayable",
					"type": "function"
				},
				{
					"inputs": [],
					"name": "totalWeekTransactions",
					"outputs": [
						{
							"internalType": "uint256",
							"name": "",
							"type": "uint256"
						}
					],
					"stateMutability": "view",
					"type": "function"
				}
			],
			"devdoc": {
				"kind": "dev",
				"methods": {},
				"version": 1
			},
			"evm": {
				"assembly": "    /* \"Dapp/MoneyTransfer.sol\":71:4171  contract  MoneyTransfer {... */\n  mstore(0x40, 0x80)\n    /* \"Dapp/MoneyTransfer.sol\":237:245  24 hours */\n  0x015180\n    /* \"Dapp/MoneyTransfer.sol\":226:245  uint day = 24 hours */\n  0x03\n  sstore\n    /* \"Dapp/MoneyTransfer.sol\":774:775  0 */\n  0x00\n    /* \"Dapp/MoneyTransfer.sol\":750:775  uint public callCount = 0 */\n  0x0f\n  sstore\n    /* \"Dapp/MoneyTransfer.sol\":809:814  false */\n  0x00\n    /* \"Dapp/MoneyTransfer.sol\":783:814  bool public callPutCard = false */\n  0x10\n  exp(0x0100, 0x00)\n  dup2\n  sload\n  dup2\n  0xff\n  mul\n  not\n  and\n  swap1\n  dup4\n  iszero\n  iszero\n  mul\n  or\n  swap1\n  sstore\n  pop\n    /* \"Dapp/MoneyTransfer.sol\":599:738  constructor (uint256 _totalFunds) {... */\n  callvalue\n  dup1\n  iszero\n  tag_1\n  jumpi\n  0x00\n  dup1\n  revert\ntag_1:\n  pop\n  mload(0x40)\n  sub(codesize, bytecodeSize)\n  dup1\n  bytecodeSize\n  dup4\n  codecopy\n  dup2\n  dup2\n  add\n  0x40\n  mstore\n  dup2\n  add\n  swap1\n  tag_2\n  swap2\n  swap1\n  tag_3\n  jump\t// in\ntag_2:\n    /* \"Dapp/MoneyTransfer.sol\":719:730  _totalFunds */\n  dup1\n    /* \"Dapp/MoneyTransfer.sol\":706:716  TotalFunds */\n  0x01\n    /* \"Dapp/MoneyTransfer.sol\":706:730  TotalFunds = _totalFunds */\n  dup2\n  swap1\n  sstore\n  pop\n    /* \"Dapp/MoneyTransfer.sol\":599:738  constructor (uint256 _totalFunds) {... */\n  pop\n    /* \"Dapp/MoneyTransfer.sol\":71:4171  contract  MoneyTransfer {... */\n  jump(tag_6)\n    /* \"#utility.yul\":88:205   */\ntag_8:\n    /* \"#utility.yul\":197:198   */\n  0x00\n    /* \"#utility.yul\":194:195   */\n  dup1\n    /* \"#utility.yul\":187:199   */\n  revert\n    /* \"#utility.yul\":334:411   */\ntag_10:\n    /* \"#utility.yul\":371:378   */\n  0x00\n    /* \"#utility.yul\":400:405   */\n  dup2\n    /* \"#utility.yul\":389:405   */\n  swap1\n  pop\n    /* \"#utility.yul\":334:411   */\n  swap2\n  swap1\n  pop\n  jump\t// out\n    /* \"#utility.yul\":417:539   */\ntag_11:\n    /* \"#utility.yul\":490:514   */\n  tag_19\n    /* \"#utility.yul\":508:513   */\n  dup2\n    /* \"#utility.yul\":490:514   */\n  tag_10\n  jump\t// in\ntag_19:\n    /* \"#utility.yul\":483:488   */\n  dup2\n    /* \"#utility.yul\":480:515   */\n  eq\n    /* \"#utility.yul\":470:533   */\n  tag_20\n  jumpi\n    /* \"#utility.yul\":529:530   */\n  0x00\n    /* \"#utility.yul\":526:527   */\n  dup1\n    /* \"#utility.yul\":519:531   */\n  revert\n    /* \"#utility.yul\":470:533   */\ntag_20:\n    /* \"#utility.yul\":417:539   */\n  pop\n  jump\t// out\n    /* \"#utility.yul\":545:688   */\ntag_12:\n    /* \"#utility.yul\":602:607   */\n  0x00\n    /* \"#utility.yul\":633:639   */\n  dup2\n    /* \"#utility.yul\":627:640   */\n  mload\n    /* \"#utility.yul\":618:640   */\n  swap1\n  pop\n    /* \"#utility.yul\":649:682   */\n  tag_22\n    /* \"#utility.yul\":676:681   */\n  dup2\n    /* \"#utility.yul\":649:682   */\n  tag_11\n  jump\t// in\ntag_22:\n    /* \"#utility.yul\":545:688   */\n  swap3\n  swap2\n  pop\n  pop\n  jump\t// out\n    /* \"#utility.yul\":694:1045   */\ntag_3:\n    /* \"#utility.yul\":764:770   */\n  0x00\n    /* \"#utility.yul\":813:815   */\n  0x20\n    /* \"#utility.yul\":801:810   */\n  dup3\n    /* \"#utility.yul\":792:799   */\n  dup5\n    /* \"#utility.yul\":788:811   */\n  sub\n    /* \"#utility.yul\":784:816   */\n  slt\n    /* \"#utility.yul\":781:900   */\n  iszero\n  tag_24\n  jumpi\n    /* \"#utility.yul\":819:898   */\n  tag_25\n  tag_8\n  jump\t// in\ntag_25:\n    /* \"#utility.yul\":781:900   */\ntag_24:\n    /* \"#utility.yul\":939:940   */\n  0x00\n    /* \"#utility.yul\":964:1028   */\n  tag_26\n    /* \"#utility.yul\":1020:1027   */\n  dup5\n    /* \"#utility.yul\":1011:1017   */\n  dup3\n    /* \"#utility.yul\":1000:1009   */\n  dup6\n    /* \"#utility.yul\":996:1018   */\n  add\n    /* \"#utility.yul\":964:1028   */\n  tag_12\n  jump\t// in\ntag_26:\n    /* \"#utility.yul\":954:1028   */\n  swap2\n  pop\n    /* \"#utility.yul\":910:1038   */\n  pop\n    /* \"#utility.yul\":694:1045   */\n  swap3\n  swap2\n  pop\n  pop\n  jump\t// out\n    /* \"Dapp/MoneyTransfer.sol\":71:4171  contract  MoneyTransfer {... */\ntag_6:\n  dataSize(sub_0)\n  dup1\n  dataOffset(sub_0)\n  0x00\n  codecopy\n  0x00\n  return\nstop\n\nsub_0: assembly {\n        /* \"Dapp/MoneyTransfer.sol\":71:4171  contract  MoneyTransfer {... */\n      mstore(0x40, 0x80)\n      callvalue\n      dup1\n      iszero\n      tag_1\n      jumpi\n      0x00\n      dup1\n      revert\n    tag_1:\n      pop\n      jumpi(tag_2, lt(calldatasize, 0x04))\n      shr(0xe0, calldataload(0x00))\n      dup1\n      0x557ed1ba\n      gt\n      tag_20\n      jumpi\n      dup1\n      0x8fa11864\n      gt\n      tag_21\n      jumpi\n      dup1\n      0x8fa11864\n      eq\n      tag_15\n      jumpi\n      dup1\n      0x94b5dcaa\n      eq\n      tag_16\n      jumpi\n      dup1\n      0xaa8c217c\n      eq\n      tag_17\n      jumpi\n      dup1\n      0xbc309496\n      eq\n      tag_18\n      jumpi\n      dup1\n      0xe21f37ce\n      eq\n      tag_19\n      jumpi\n      jump(tag_2)\n    tag_21:\n      dup1\n      0x557ed1ba\n      eq\n      tag_11\n      jumpi\n      dup1\n      0x7b9a3f4c\n      eq\n      tag_12\n      jumpi\n      dup1\n      0x7eb9f571\n      eq\n      tag_13\n      jumpi\n      dup1\n      0x8e029c0b\n      eq\n      tag_14\n      jumpi\n      jump(tag_2)\n    tag_20:\n      dup1\n      0x34f5ccde\n      gt\n      tag_22\n      jumpi\n      dup1\n      0x34f5ccde\n      eq\n      tag_7\n      jumpi\n      dup1\n      0x3c626f00\n      eq\n      tag_8\n      jumpi\n      dup1\n      0x42fb7936\n      eq\n      tag_9\n      jumpi\n      dup1\n      0x4b28f9a2\n      eq\n      tag_10\n      jumpi\n      jump(tag_2)\n    tag_22:\n      dup1\n      0x062a7544\n      eq\n      tag_3\n      jumpi\n      dup1\n      0x0e85fa72\n      eq\n      tag_4\n      jumpi\n      dup1\n      0x0ee6324a\n      eq\n      tag_5\n      jumpi\n      dup1\n      0x12a029a4\n      eq\n      tag_6\n      jumpi\n    tag_2:\n      0x00\n      dup1\n      revert\n        /* \"Dapp/MoneyTransfer.sol\":824:1659  function sendMoney( uint _amount, address _receiver) public m_validAddress(_receiver) m_ifCardExists m_transferLimit{... */\n    tag_3:\n      tag_23\n      0x04\n      dup1\n      calldatasize\n      sub\n      dup2\n      add\n      swap1\n      tag_24\n      swap2\n      swap1\n      tag_25\n      jump\t// in\n    tag_24:\n      tag_26\n      jump\t// in\n    tag_23:\n      stop\n        /* \"Dapp/MoneyTransfer.sol\":524:553  uint public firstTransferTime */\n    tag_4:\n      tag_27\n      tag_28\n      jump\t// in\n    tag_27:\n      mload(0x40)\n      tag_29\n      swap2\n      swap1\n      tag_30\n      jump\t// in\n    tag_29:\n      mload(0x40)\n      dup1\n      swap2\n      sub\n      swap1\n      return\n        /* \"Dapp/MoneyTransfer.sol\":2029:2078  function convertAmount()public {... */\n    tag_5:\n      tag_31\n      tag_32\n      jump\t// in\n    tag_31:\n      stop\n        /* \"Dapp/MoneyTransfer.sol\":1667:1932  function setCard(string memory _cardNumber, string memory _cvv) public  m_checkCard {... */\n    tag_6:\n      tag_33\n      0x04\n      dup1\n      calldatasize\n      sub\n      dup2\n      add\n      swap1\n      tag_34\n      swap2\n      swap1\n      tag_35\n      jump\t// in\n    tag_34:\n      tag_36\n      jump\t// in\n    tag_33:\n      stop\n        /* \"Dapp/MoneyTransfer.sol\":560:585  uint public countTransfer */\n    tag_7:\n      tag_37\n      tag_38\n      jump\t// in\n    tag_37:\n      mload(0x40)\n      tag_39\n      swap2\n      swap1\n      tag_30\n      jump\t// in\n    tag_39:\n      mload(0x40)\n      dup1\n      swap2\n      sub\n      swap1\n      return\n        /* \"Dapp/MoneyTransfer.sol\":783:814  bool public callPutCard = false */\n    tag_8:\n      tag_40\n      tag_41\n      jump\t// in\n    tag_40:\n      mload(0x40)\n      tag_42\n      swap2\n      swap1\n      tag_43\n      jump\t// in\n    tag_42:\n      mload(0x40)\n      dup1\n      swap2\n      sub\n      swap1\n      return\n        /* \"Dapp/MoneyTransfer.sol\":470:487  string public cvv */\n    tag_9:\n      tag_44\n      tag_45\n      jump\t// in\n    tag_44:\n      mload(0x40)\n      tag_46\n      swap2\n      swap1\n      tag_47\n      jump\t// in\n    tag_46:\n      mload(0x40)\n      dup1\n      swap2\n      sub\n      swap1\n      return\n        /* \"Dapp/MoneyTransfer.sol\":750:775  uint public callCount = 0 */\n    tag_10:\n      tag_48\n      tag_49\n      jump\t// in\n    tag_48:\n      mload(0x40)\n      tag_50\n      swap2\n      swap1\n      tag_30\n      jump\t// in\n    tag_50:\n      mload(0x40)\n      dup1\n      swap2\n      sub\n      swap1\n      return\n        /* \"Dapp/MoneyTransfer.sol\":4074:4160  function getTime()public view returns(uint ){... */\n    tag_11:\n      tag_51\n      tag_52\n      jump\t// in\n    tag_51:\n      mload(0x40)\n      tag_53\n      swap2\n      swap1\n      tag_30\n      jump\t// in\n    tag_53:\n      mload(0x40)\n      dup1\n      swap2\n      sub\n      swap1\n      return\n        /* \"Dapp/MoneyTransfer.sol\":134:159  uint256 public TotalFunds */\n    tag_12:\n      tag_54\n      tag_55\n      jump\t// in\n    tag_54:\n      mload(0x40)\n      tag_56\n      swap2\n      swap1\n      tag_30\n      jump\t// in\n    tag_56:\n      mload(0x40)\n      dup1\n      swap2\n      sub\n      swap1\n      return\n        /* \"Dapp/MoneyTransfer.sol\":494:520  uint256 public TotalAmount */\n    tag_13:\n      tag_57\n      tag_58\n      jump\t// in\n    tag_57:\n      mload(0x40)\n      tag_59\n      swap2\n      swap1\n      tag_30\n      jump\t// in\n    tag_59:\n      mload(0x40)\n      dup1\n      swap2\n      sub\n      swap1\n      return\n        /* \"Dapp/MoneyTransfer.sol\":1948:2017  function getOutCard() public  {... */\n    tag_14:\n      tag_60\n      tag_61\n      jump\t// in\n    tag_60:\n      stop\n        /* \"Dapp/MoneyTransfer.sol\":438:462  string public cardNumber */\n    tag_15:\n      tag_62\n      tag_63\n      jump\t// in\n    tag_62:\n      mload(0x40)\n      tag_64\n      swap2\n      swap1\n      tag_47\n      jump\t// in\n    tag_64:\n      mload(0x40)\n      dup1\n      swap2\n      sub\n      swap1\n      return\n        /* \"Dapp/MoneyTransfer.sol\":252:288  uint256 public totalWeekTransactions */\n    tag_16:\n      tag_65\n      tag_66\n      jump\t// in\n    tag_65:\n      mload(0x40)\n      tag_67\n      swap2\n      swap1\n      tag_30\n      jump\t// in\n    tag_67:\n      mload(0x40)\n      dup1\n      swap2\n      sub\n      swap1\n      return\n        /* \"Dapp/MoneyTransfer.sol\":106:127  uint256 public amount */\n    tag_17:\n      tag_68\n      tag_69\n      jump\t// in\n    tag_68:\n      mload(0x40)\n      tag_70\n      swap2\n      swap1\n      tag_30\n      jump\t// in\n    tag_70:\n      mload(0x40)\n      dup1\n      swap2\n      sub\n      swap1\n      return\n        /* \"Dapp/MoneyTransfer.sol\":375:403  uint256 public receiverFunds */\n    tag_18:\n      tag_71\n      tag_72\n      jump\t// in\n    tag_71:\n      mload(0x40)\n      tag_73\n      swap2\n      swap1\n      tag_30\n      jump\t// in\n    tag_73:\n      mload(0x40)\n      dup1\n      swap2\n      sub\n      swap1\n      return\n        /* \"Dapp/MoneyTransfer.sol\":410:431  string public message */\n    tag_19:\n      tag_74\n      tag_75\n      jump\t// in\n    tag_74:\n      mload(0x40)\n      tag_76\n      swap2\n      swap1\n      tag_47\n      jump\t// in\n    tag_76:\n      mload(0x40)\n      dup1\n      swap2\n      sub\n      swap1\n      return\n        /* \"Dapp/MoneyTransfer.sol\":824:1659  function sendMoney( uint _amount, address _receiver) public m_validAddress(_receiver) m_ifCardExists m_transferLimit{... */\n    tag_26:\n        /* \"Dapp/MoneyTransfer.sol\":899:908  _receiver */\n      dup1\n        /* \"Dapp/MoneyTransfer.sol\":2147:2152  _addr */\n      dup1\n        /* \"Dapp/MoneyTransfer.sol\":2136:2144  receiver */\n      0x02\n      0x00\n        /* \"Dapp/MoneyTransfer.sol\":2136:2152  receiver = _addr */\n      0x0100\n      exp\n      dup2\n      sload\n      dup2\n      0xffffffffffffffffffffffffffffffffffffffff\n      mul\n      not\n      and\n      swap1\n      dup4\n      0xffffffffffffffffffffffffffffffffffffffff\n      and\n      mul\n      or\n      swap1\n      sstore\n      pop\n        /* \"Dapp/MoneyTransfer.sol\":2188:2189  0 */\n      0x00\n        /* \"Dapp/MoneyTransfer.sol\":2171:2190  _addr != address(0) */\n      0xffffffffffffffffffffffffffffffffffffffff\n      and\n        /* \"Dapp/MoneyTransfer.sol\":2171:2176  _addr */\n      dup2\n        /* \"Dapp/MoneyTransfer.sol\":2171:2190  _addr != address(0) */\n      0xffffffffffffffffffffffffffffffffffffffff\n      and\n      sub\n        /* \"Dapp/MoneyTransfer.sol\":2163:2223  require(_addr != address(0), \" This address doesn't exists\") */\n      tag_78\n      jumpi\n      mload(0x40)\n      0x08c379a000000000000000000000000000000000000000000000000000000000\n      dup2\n      mstore\n      0x04\n      add\n      tag_79\n      swap1\n      tag_80\n      jump\t// in\n    tag_79:\n      mload(0x40)\n      dup1\n      swap2\n      sub\n      swap1\n      revert\n    tag_78:\n        /* \"Dapp/MoneyTransfer.sol\":2322:2327  false */\n      0x00\n        /* \"Dapp/MoneyTransfer.sol\":2307:2327  callPutCard != false */\n      iszero\n      iszero\n        /* \"Dapp/MoneyTransfer.sol\":2307:2318  callPutCard */\n      0x10\n      0x00\n      swap1\n      sload\n      swap1\n      0x0100\n      exp\n      swap1\n      div\n      0xff\n      and\n        /* \"Dapp/MoneyTransfer.sol\":2307:2327  callPutCard != false */\n      iszero\n      iszero\n      sub\n        /* \"Dapp/MoneyTransfer.sol\":2299:2354  require(callPutCard != false,\"Please insert your card\") */\n      tag_82\n      jumpi\n      mload(0x40)\n      0x08c379a000000000000000000000000000000000000000000000000000000000\n      dup2\n      mstore\n      0x04\n      add\n      tag_83\n      swap1\n      tag_84\n      jump\t// in\n    tag_83:\n      mload(0x40)\n      dup1\n      swap2\n      sub\n      swap1\n      revert\n    tag_82:\n        /* \"Dapp/MoneyTransfer.sol\":3158:3162  2500 */\n      0x09c4\n        /* \"Dapp/MoneyTransfer.sol\":3144:3155  TotalAmount */\n      sload(0x0c)\n        /* \"Dapp/MoneyTransfer.sol\":3144:3162  TotalAmount > 2500 */\n      gt\n        /* \"Dapp/MoneyTransfer.sol\":3144:3217  TotalAmount > 2500 && block.timestamp <= (firstTransferTime + 30 seconds) */\n      dup1\n      iszero\n      tag_86\n      jumpi\n      pop\n        /* \"Dapp/MoneyTransfer.sol\":3206:3216  30 seconds */\n      0x1e\n        /* \"Dapp/MoneyTransfer.sol\":3186:3203  firstTransferTime */\n      sload(0x0d)\n        /* \"Dapp/MoneyTransfer.sol\":3186:3216  firstTransferTime + 30 seconds */\n      tag_87\n      swap2\n      swap1\n      tag_88\n      jump\t// in\n    tag_87:\n        /* \"Dapp/MoneyTransfer.sol\":3166:3181  block.timestamp */\n      timestamp\n        /* \"Dapp/MoneyTransfer.sol\":3166:3217  block.timestamp <= (firstTransferTime + 30 seconds) */\n      gt\n      iszero\n        /* \"Dapp/MoneyTransfer.sol\":3144:3217  TotalAmount > 2500 && block.timestamp <= (firstTransferTime + 30 seconds) */\n    tag_86:\n        /* \"Dapp/MoneyTransfer.sol\":3141:3354  if(TotalAmount > 2500 && block.timestamp <= (firstTransferTime + 30 seconds)){... */\n      iszero\n      tag_89\n      jumpi\n        /* \"Dapp/MoneyTransfer.sol\":3247:3248  0 */\n      0x00\n        /* \"Dapp/MoneyTransfer.sol\":3233:3244  TotalAmount */\n      0x0c\n        /* \"Dapp/MoneyTransfer.sol\":3233:3248  TotalAmount = 0 */\n      dup2\n      swap1\n      sstore\n      pop\n        /* \"Dapp/MoneyTransfer.sol\":3285:3286  0 */\n      0x00\n        /* \"Dapp/MoneyTransfer.sol\":3270:3281  TotalAmount */\n      sload(0x0c)\n        /* \"Dapp/MoneyTransfer.sol\":3270:3286  TotalAmount == 0 */\n      eq\n        /* \"Dapp/MoneyTransfer.sol\":3263:3287  assert(TotalAmount == 0) */\n      tag_90\n      jumpi\n      tag_91\n      tag_92\n      jump\t// in\n    tag_91:\n    tag_90:\n        /* \"Dapp/MoneyTransfer.sol\":3303:3342  revert(\"You reached the limit per day\") */\n      mload(0x40)\n      0x08c379a000000000000000000000000000000000000000000000000000000000\n      dup2\n      mstore\n      0x04\n      add\n      tag_93\n      swap1\n      tag_94\n      jump\t// in\n    tag_93:\n      mload(0x40)\n      dup1\n      swap2\n      sub\n      swap1\n      revert\n        /* \"Dapp/MoneyTransfer.sol\":3141:3354  if(TotalAmount > 2500 && block.timestamp <= (firstTransferTime + 30 seconds)){... */\n    tag_89:\n        /* \"Dapp/MoneyTransfer.sol\":3384:3388  2500 */\n      0x09c4\n        /* \"Dapp/MoneyTransfer.sol\":3369:3380  TotalAmount */\n      sload(0x0c)\n        /* \"Dapp/MoneyTransfer.sol\":3369:3388  TotalAmount <= 2500 */\n      gt\n      iszero\n        /* \"Dapp/MoneyTransfer.sol\":3369:3443  TotalAmount <= 2500 && block.timestamp >= (firstTransferTime + 30 seconds) */\n      dup1\n      iszero\n      tag_95\n      jumpi\n      pop\n        /* \"Dapp/MoneyTransfer.sol\":3432:3442  30 seconds */\n      0x1e\n        /* \"Dapp/MoneyTransfer.sol\":3412:3429  firstTransferTime */\n      sload(0x0d)\n        /* \"Dapp/MoneyTransfer.sol\":3412:3442  firstTransferTime + 30 seconds */\n      tag_96\n      swap2\n      swap1\n      tag_88\n      jump\t// in\n    tag_96:\n        /* \"Dapp/MoneyTransfer.sol\":3392:3407  block.timestamp */\n      timestamp\n        /* \"Dapp/MoneyTransfer.sol\":3392:3443  block.timestamp >= (firstTransferTime + 30 seconds) */\n      lt\n      iszero\n        /* \"Dapp/MoneyTransfer.sol\":3369:3443  TotalAmount <= 2500 && block.timestamp >= (firstTransferTime + 30 seconds) */\n    tag_95:\n        /* \"Dapp/MoneyTransfer.sol\":3366:3576  if(TotalAmount <= 2500 && block.timestamp >= (firstTransferTime + 30 seconds)){... */\n      iszero\n      tag_97\n      jumpi\n        /* \"Dapp/MoneyTransfer.sol\":3474:3475  0 */\n      0x00\n        /* \"Dapp/MoneyTransfer.sol\":3460:3471  TotalAmount */\n      0x0c\n        /* \"Dapp/MoneyTransfer.sol\":3460:3475  TotalAmount = 0 */\n      dup2\n      swap1\n      sstore\n      pop\n        /* \"Dapp/MoneyTransfer.sol\":3512:3513  0 */\n      0x00\n        /* \"Dapp/MoneyTransfer.sol\":3497:3508  TotalAmount */\n      sload(0x0c)\n        /* \"Dapp/MoneyTransfer.sol\":3497:3513  TotalAmount == 0 */\n      eq\n        /* \"Dapp/MoneyTransfer.sol\":3490:3514  assert(TotalAmount == 0) */\n      tag_98\n      jumpi\n      tag_99\n      tag_92\n      jump\t// in\n    tag_99:\n    tag_98:\n        /* \"Dapp/MoneyTransfer.sol\":3549:3564  block.timestamp */\n      timestamp\n        /* \"Dapp/MoneyTransfer.sol\":3529:3546  firstTransferTime */\n      0x0d\n        /* \"Dapp/MoneyTransfer.sol\":3529:3564  firstTransferTime = block.timestamp */\n      dup2\n      swap1\n      sstore\n      pop\n        /* \"Dapp/MoneyTransfer.sol\":3366:3576  if(TotalAmount <= 2500 && block.timestamp >= (firstTransferTime + 30 seconds)){... */\n    tag_97:\n        /* \"Dapp/MoneyTransfer.sol\":3604:3605  5 */\n      0x05\n        /* \"Dapp/MoneyTransfer.sol\":3591:3600  callCount */\n      sload(0x0f)\n        /* \"Dapp/MoneyTransfer.sol\":3591:3605  callCount >= 5 */\n      lt\n      iszero\n        /* \"Dapp/MoneyTransfer.sol\":3591:3660  callCount >= 5 && block.timestamp <= (firstTransferTime + 30 seconds) */\n      dup1\n      iszero\n      tag_100\n      jumpi\n      pop\n        /* \"Dapp/MoneyTransfer.sol\":3649:3659  30 seconds */\n      0x1e\n        /* \"Dapp/MoneyTransfer.sol\":3629:3646  firstTransferTime */\n      sload(0x0d)\n        /* \"Dapp/MoneyTransfer.sol\":3629:3659  firstTransferTime + 30 seconds */\n      tag_101\n      swap2\n      swap1\n      tag_88\n      jump\t// in\n    tag_101:\n        /* \"Dapp/MoneyTransfer.sol\":3609:3624  block.timestamp */\n      timestamp\n        /* \"Dapp/MoneyTransfer.sol\":3609:3660  block.timestamp <= (firstTransferTime + 30 seconds) */\n      gt\n      iszero\n        /* \"Dapp/MoneyTransfer.sol\":3591:3660  callCount >= 5 && block.timestamp <= (firstTransferTime + 30 seconds) */\n    tag_100:\n        /* \"Dapp/MoneyTransfer.sol\":3588:3805  if(callCount >= 5 && block.timestamp <= (firstTransferTime + 30 seconds)){... */\n      iszero\n      tag_102\n      jumpi\n        /* \"Dapp/MoneyTransfer.sol\":3688:3689  0 */\n      0x00\n        /* \"Dapp/MoneyTransfer.sol\":3676:3685  callCount */\n      0x0f\n        /* \"Dapp/MoneyTransfer.sol\":3676:3689  callCount = 0 */\n      dup2\n      swap1\n      sstore\n      pop\n        /* \"Dapp/MoneyTransfer.sol\":3724:3725  0 */\n      0x00\n        /* \"Dapp/MoneyTransfer.sol\":3711:3720  callCount */\n      sload(0x0f)\n        /* \"Dapp/MoneyTransfer.sol\":3711:3725  callCount == 0 */\n      eq\n        /* \"Dapp/MoneyTransfer.sol\":3704:3726  assert(callCount == 0) */\n      tag_103\n      jumpi\n      tag_104\n      tag_92\n      jump\t// in\n    tag_104:\n    tag_103:\n        /* \"Dapp/MoneyTransfer.sol\":3741:3779  revert(\"only 5 transactions per day\" ) */\n      mload(0x40)\n      0x08c379a000000000000000000000000000000000000000000000000000000000\n      dup2\n      mstore\n      0x04\n      add\n      tag_105\n      swap1\n      tag_106\n      jump\t// in\n    tag_105:\n      mload(0x40)\n      dup1\n      swap2\n      sub\n      swap1\n      revert\n        /* \"Dapp/MoneyTransfer.sol\":3588:3805  if(callCount >= 5 && block.timestamp <= (firstTransferTime + 30 seconds)){... */\n    tag_102:\n        /* \"Dapp/MoneyTransfer.sol\":3833:3834  5 */\n      0x05\n        /* \"Dapp/MoneyTransfer.sol\":3820:3829  callCount */\n      sload(0x0f)\n        /* \"Dapp/MoneyTransfer.sol\":3820:3834  callCount <= 5 */\n      gt\n      iszero\n        /* \"Dapp/MoneyTransfer.sol\":3820:3889  callCount <= 5 && block.timestamp >= (firstTransferTime + 30 seconds) */\n      dup1\n      iszero\n      tag_107\n      jumpi\n      pop\n        /* \"Dapp/MoneyTransfer.sol\":3878:3888  30 seconds */\n      0x1e\n        /* \"Dapp/MoneyTransfer.sol\":3858:3875  firstTransferTime */\n      sload(0x0d)\n        /* \"Dapp/MoneyTransfer.sol\":3858:3888  firstTransferTime + 30 seconds */\n      tag_108\n      swap2\n      swap1\n      tag_88\n      jump\t// in\n    tag_108:\n        /* \"Dapp/MoneyTransfer.sol\":3838:3853  block.timestamp */\n      timestamp\n        /* \"Dapp/MoneyTransfer.sol\":3838:3889  block.timestamp >= (firstTransferTime + 30 seconds) */\n      lt\n      iszero\n        /* \"Dapp/MoneyTransfer.sol\":3820:3889  callCount <= 5 && block.timestamp >= (firstTransferTime + 30 seconds) */\n    tag_107:\n        /* \"Dapp/MoneyTransfer.sol\":3817:4018  if(callCount <= 5 && block.timestamp >= (firstTransferTime + 30 seconds)){... */\n      iszero\n      tag_109\n      jumpi\n        /* \"Dapp/MoneyTransfer.sol\":3917:3918  0 */\n      0x00\n        /* \"Dapp/MoneyTransfer.sol\":3905:3914  callCount */\n      0x0f\n        /* \"Dapp/MoneyTransfer.sol\":3905:3918  callCount = 0 */\n      dup2\n      swap1\n      sstore\n      pop\n        /* \"Dapp/MoneyTransfer.sol\":3954:3955  0 */\n      0x00\n        /* \"Dapp/MoneyTransfer.sol\":3941:3950  callCount */\n      sload(0x0f)\n        /* \"Dapp/MoneyTransfer.sol\":3941:3955  callCount == 0 */\n      eq\n        /* \"Dapp/MoneyTransfer.sol\":3934:3956  assert(callCount == 0) */\n      tag_110\n      jumpi\n      tag_111\n      tag_92\n      jump\t// in\n    tag_111:\n    tag_110:\n        /* \"Dapp/MoneyTransfer.sol\":3991:4006  block.timestamp */\n      timestamp\n        /* \"Dapp/MoneyTransfer.sol\":3971:3988  firstTransferTime */\n      0x0d\n        /* \"Dapp/MoneyTransfer.sol\":3971:4006  firstTransferTime = block.timestamp */\n      dup2\n      swap1\n      sstore\n      pop\n        /* \"Dapp/MoneyTransfer.sol\":3817:4018  if(callCount <= 5 && block.timestamp >= (firstTransferTime + 30 seconds)){... */\n    tag_109:\n        /* \"Dapp/MoneyTransfer.sol\":962:971  _receiver */\n      dup2\n        /* \"Dapp/MoneyTransfer.sol\":951:959  receiver */\n      0x02\n      0x00\n        /* \"Dapp/MoneyTransfer.sol\":951:971  receiver = _receiver */\n      0x0100\n      exp\n      dup2\n      sload\n      dup2\n      0xffffffffffffffffffffffffffffffffffffffff\n      mul\n      not\n      and\n      swap1\n      dup4\n      0xffffffffffffffffffffffffffffffffffffffff\n      and\n      mul\n      or\n      swap1\n      sstore\n      pop\n        /* \"Dapp/MoneyTransfer.sol\":991:998  _amount */\n      dup3\n        /* \"Dapp/MoneyTransfer.sol\":982:988  amount */\n      0x00\n        /* \"Dapp/MoneyTransfer.sol\":982:998  amount = _amount */\n      dup2\n      swap1\n      sstore\n      pop\n        /* \"Dapp/MoneyTransfer.sol\":1023:1027  2500 */\n      0x09c4\n        /* \"Dapp/MoneyTransfer.sol\":1014:1020  amount */\n      sload(0x00)\n        /* \"Dapp/MoneyTransfer.sol\":1014:1027  amount > 2500 */\n      gt\n        /* \"Dapp/MoneyTransfer.sol\":1011:1093  if(amount > 2500){... */\n      iszero\n      tag_113\n      jumpi\n        /* \"Dapp/MoneyTransfer.sol\":1043:1081  revert(\"You reached the limit Send()\") */\n      mload(0x40)\n      0x08c379a000000000000000000000000000000000000000000000000000000000\n      dup2\n      mstore\n      0x04\n      add\n      tag_114\n      swap1\n      tag_115\n      jump\t// in\n    tag_114:\n      mload(0x40)\n      dup1\n      swap2\n      sub\n      swap1\n      revert\n        /* \"Dapp/MoneyTransfer.sol\":1011:1093  if(amount > 2500){... */\n    tag_113:\n        /* \"Dapp/MoneyTransfer.sol\":1162:1163  1 */\n      0x01\n        /* \"Dapp/MoneyTransfer.sol\":1149:1158  callCount */\n      0x0f\n      0x00\n        /* \"Dapp/MoneyTransfer.sol\":1149:1163  callCount += 1 */\n      dup3\n      dup3\n      sload\n      tag_116\n      swap2\n      swap1\n      tag_88\n      jump\t// in\n    tag_116:\n      swap3\n      pop\n      pop\n      dup2\n      swap1\n      sstore\n      pop\n        /* \"Dapp/MoneyTransfer.sol\":1219:1220  0 */\n      0x00\n        /* \"Dapp/MoneyTransfer.sol\":1206:1216  TotalFunds */\n      sload(0x01)\n        /* \"Dapp/MoneyTransfer.sol\":1206:1220  TotalFunds > 0 */\n      gt\n        /* \"Dapp/MoneyTransfer.sol\":1206:1243  TotalFunds > 0 && TotalFunds > amount */\n      dup1\n      iszero\n      tag_117\n      jumpi\n      pop\n        /* \"Dapp/MoneyTransfer.sol\":1237:1243  amount */\n      sload(0x00)\n        /* \"Dapp/MoneyTransfer.sol\":1224:1234  TotalFunds */\n      sload(0x01)\n        /* \"Dapp/MoneyTransfer.sol\":1224:1243  TotalFunds > amount */\n      gt\n        /* \"Dapp/MoneyTransfer.sol\":1206:1243  TotalFunds > 0 && TotalFunds > amount */\n    tag_117:\n        /* \"Dapp/MoneyTransfer.sol\":1203:1581  if(TotalFunds > 0 && TotalFunds > amount){... */\n      iszero\n      tag_118\n      jumpi\n        /* \"Dapp/MoneyTransfer.sol\":1281:1287  amount */\n      sload(0x00)\n        /* \"Dapp/MoneyTransfer.sol\":1267:1277  TotalFunds */\n      0x01\n      0x00\n        /* \"Dapp/MoneyTransfer.sol\":1267:1287  TotalFunds -= amount */\n      dup3\n      dup3\n      sload\n      tag_119\n      swap2\n      swap1\n      tag_120\n      jump\t// in\n    tag_119:\n      swap3\n      pop\n      pop\n      dup2\n      swap1\n      sstore\n      pop\n        /* \"Dapp/MoneyTransfer.sol\":1325:1331  amount */\n      sload(0x00)\n        /* \"Dapp/MoneyTransfer.sol\":1310:1321  TotalAmount */\n      0x0c\n      0x00\n        /* \"Dapp/MoneyTransfer.sol\":1310:1331  TotalAmount += amount */\n      dup3\n      dup3\n      sload\n      tag_121\n      swap2\n      swap1\n      tag_88\n      jump\t// in\n    tag_121:\n      swap3\n      pop\n      pop\n      dup2\n      swap1\n      sstore\n      pop\n        /* \"Dapp/MoneyTransfer.sol\":1376:1406  message = \"Transfer completed\" */\n      mload(0x40)\n      dup1\n      0x40\n      add\n      0x40\n      mstore\n      dup1\n      0x12\n      dup2\n      mstore\n      0x20\n      add\n      0x5472616e7366657220636f6d706c657465640000000000000000000000000000\n      dup2\n      mstore\n      pop\n        /* \"Dapp/MoneyTransfer.sol\":1376:1383  message */\n      0x09\n        /* \"Dapp/MoneyTransfer.sol\":1376:1406  message = \"Transfer completed\" */\n      swap1\n      dup2\n      tag_122\n      swap2\n      swap1\n      tag_123\n      jump\t// in\n    tag_122:\n      pop\n        /* \"Dapp/MoneyTransfer.sol\":1203:1581  if(TotalFunds > 0 && TotalFunds > amount){... */\n      jump(tag_124)\n    tag_118:\n        /* \"Dapp/MoneyTransfer.sol\":1534:1560  revert(\"Not enough funds\") */\n      mload(0x40)\n      0x08c379a000000000000000000000000000000000000000000000000000000000\n      dup2\n      mstore\n      0x04\n      add\n      tag_125\n      swap1\n      tag_126\n      jump\t// in\n    tag_125:\n      mload(0x40)\n      dup1\n      swap2\n      sub\n      swap1\n      revert\n        /* \"Dapp/MoneyTransfer.sol\":1203:1581  if(TotalFunds > 0 && TotalFunds > amount){... */\n    tag_124:\n        /* \"Dapp/MoneyTransfer.sol\":824:1659  function sendMoney( uint _amount, address _receiver) public m_validAddress(_receiver) m_ifCardExists m_transferLimit{... */\n      pop\n      pop\n      pop\n      jump\t// out\n        /* \"Dapp/MoneyTransfer.sol\":524:553  uint public firstTransferTime */\n    tag_28:\n      sload(0x0d)\n      dup2\n      jump\t// out\n        /* \"Dapp/MoneyTransfer.sol\":2029:2078  function convertAmount()public {... */\n    tag_32:\n      jump\t// out\n        /* \"Dapp/MoneyTransfer.sol\":1667:1932  function setCard(string memory _cardNumber, string memory _cvv) public  m_checkCard {... */\n    tag_36:\n        /* \"Dapp/MoneyTransfer.sol\":1781:1792  _cardNumber */\n      dup2\n        /* \"Dapp/MoneyTransfer.sol\":1768:1778  cardNumber */\n      0x0a\n        /* \"Dapp/MoneyTransfer.sol\":1768:1792  cardNumber = _cardNumber */\n      swap1\n      dup2\n      tag_130\n      swap2\n      swap1\n      tag_123\n      jump\t// in\n    tag_130:\n      pop\n        /* \"Dapp/MoneyTransfer.sol\":1813:1817  _cvv */\n      dup1\n        /* \"Dapp/MoneyTransfer.sol\":1807:1810  cvv */\n      0x0b\n        /* \"Dapp/MoneyTransfer.sol\":1807:1817  cvv = _cvv */\n      swap1\n      dup2\n      tag_131\n      swap2\n      swap1\n      tag_123\n      jump\t// in\n    tag_131:\n      pop\n        /* \"Dapp/MoneyTransfer.sol\":1865:1869  true */\n      0x01\n        /* \"Dapp/MoneyTransfer.sol\":1851:1862  callPutCard */\n      0x10\n      0x00\n        /* \"Dapp/MoneyTransfer.sol\":1851:1869  callPutCard = true */\n      0x0100\n      exp\n      dup2\n      sload\n      dup2\n      0xff\n      mul\n      not\n      and\n      swap1\n      dup4\n      iszero\n      iszero\n      mul\n      or\n      swap1\n      sstore\n      pop\n        /* \"Dapp/MoneyTransfer.sol\":1907:1922  block.timestamp */\n      timestamp\n        /* \"Dapp/MoneyTransfer.sol\":1887:1904  firstTransferTime */\n      0x0d\n        /* \"Dapp/MoneyTransfer.sol\":1887:1922  firstTransferTime = block.timestamp */\n      dup2\n      swap1\n      sstore\n      pop\n        /* \"Dapp/MoneyTransfer.sol\":2481:2482  8 */\n      0x08\n        /* \"Dapp/MoneyTransfer.sol\":2459:2469  cardNumber */\n      0x0a\n        /* \"Dapp/MoneyTransfer.sol\":2453:2477  bytes(cardNumber).length */\n      dup1\n      sload\n      tag_132\n      swap1\n      tag_133\n      jump\t// in\n    tag_132:\n      swap1\n      pop\n        /* \"Dapp/MoneyTransfer.sol\":2453:2482  bytes(cardNumber).length == 8 */\n      eq\n        /* \"Dapp/MoneyTransfer.sol\":2453:2508  bytes(cardNumber).length == 8 && bytes(cvv).length == 3 */\n      dup1\n      iszero\n      tag_134\n      jumpi\n      pop\n        /* \"Dapp/MoneyTransfer.sol\":2507:2508  3 */\n      0x03\n        /* \"Dapp/MoneyTransfer.sol\":2492:2495  cvv */\n      0x0b\n        /* \"Dapp/MoneyTransfer.sol\":2486:2503  bytes(cvv).length */\n      dup1\n      sload\n      tag_135\n      swap1\n      tag_133\n      jump\t// in\n    tag_135:\n      swap1\n      pop\n        /* \"Dapp/MoneyTransfer.sol\":2486:2508  bytes(cvv).length == 3 */\n      eq\n        /* \"Dapp/MoneyTransfer.sol\":2453:2508  bytes(cardNumber).length == 8 && bytes(cvv).length == 3 */\n    tag_134:\n        /* \"Dapp/MoneyTransfer.sol\":2445:2533  require(bytes(cardNumber).length == 8 && bytes(cvv).length == 3, \"No valid credit card\") */\n      tag_136\n      jumpi\n      mload(0x40)\n      0x08c379a000000000000000000000000000000000000000000000000000000000\n      dup2\n      mstore\n      0x04\n      add\n      tag_137\n      swap1\n      tag_138\n      jump\t// in\n    tag_137:\n      mload(0x40)\n      dup1\n      swap2\n      sub\n      swap1\n      revert\n    tag_136:\n        /* \"Dapp/MoneyTransfer.sol\":1667:1932  function setCard(string memory _cardNumber, string memory _cvv) public  m_checkCard {... */\n      pop\n      pop\n      jump\t// out\n        /* \"Dapp/MoneyTransfer.sol\":560:585  uint public countTransfer */\n    tag_38:\n      sload(0x0e)\n      dup2\n      jump\t// out\n        /* \"Dapp/MoneyTransfer.sol\":783:814  bool public callPutCard = false */\n    tag_41:\n      0x10\n      0x00\n      swap1\n      sload\n      swap1\n      0x0100\n      exp\n      swap1\n      div\n      0xff\n      and\n      dup2\n      jump\t// out\n        /* \"Dapp/MoneyTransfer.sol\":470:487  string public cvv */\n    tag_45:\n      0x0b\n      dup1\n      sload\n      tag_139\n      swap1\n      tag_133\n      jump\t// in\n    tag_139:\n      dup1\n      0x1f\n      add\n      0x20\n      dup1\n      swap2\n      div\n      mul\n      0x20\n      add\n      mload(0x40)\n      swap1\n      dup2\n      add\n      0x40\n      mstore\n      dup1\n      swap3\n      swap2\n      swap1\n      dup2\n      dup2\n      mstore\n      0x20\n      add\n      dup3\n      dup1\n      sload\n      tag_140\n      swap1\n      tag_133\n      jump\t// in\n    tag_140:\n      dup1\n      iszero\n      tag_141\n      jumpi\n      dup1\n      0x1f\n      lt\n      tag_142\n      jumpi\n      0x0100\n      dup1\n      dup4\n      sload\n      div\n      mul\n      dup4\n      mstore\n      swap2\n      0x20\n      add\n      swap2\n      jump(tag_141)\n    tag_142:\n      dup3\n      add\n      swap2\n      swap1\n      0x00\n      mstore\n      keccak256(0x00, 0x20)\n      swap1\n    tag_143:\n      dup2\n      sload\n      dup2\n      mstore\n      swap1\n      0x01\n      add\n      swap1\n      0x20\n      add\n      dup1\n      dup4\n      gt\n      tag_143\n      jumpi\n      dup3\n      swap1\n      sub\n      0x1f\n      and\n      dup3\n      add\n      swap2\n    tag_141:\n      pop\n      pop\n      pop\n      pop\n      pop\n      dup2\n      jump\t// out\n        /* \"Dapp/MoneyTransfer.sol\":750:775  uint public callCount = 0 */\n    tag_49:\n      sload(0x0f)\n      dup2\n      jump\t// out\n        /* \"Dapp/MoneyTransfer.sol\":4074:4160  function getTime()public view returns(uint ){... */\n    tag_52:\n        /* \"Dapp/MoneyTransfer.sol\":4112:4116  uint */\n      0x00\n        /* \"Dapp/MoneyTransfer.sol\":4137:4152  block.timestamp */\n      timestamp\n        /* \"Dapp/MoneyTransfer.sol\":4129:4152  return  block.timestamp */\n      swap1\n      pop\n        /* \"Dapp/MoneyTransfer.sol\":4074:4160  function getTime()public view returns(uint ){... */\n      swap1\n      jump\t// out\n        /* \"Dapp/MoneyTransfer.sol\":134:159  uint256 public TotalFunds */\n    tag_55:\n      sload(0x01)\n      dup2\n      jump\t// out\n        /* \"Dapp/MoneyTransfer.sol\":494:520  uint256 public TotalAmount */\n    tag_58:\n      sload(0x0c)\n      dup2\n      jump\t// out\n        /* \"Dapp/MoneyTransfer.sol\":1948:2017  function getOutCard() public  {... */\n    tag_61:\n        /* \"Dapp/MoneyTransfer.sol\":2002:2007  false */\n      0x00\n        /* \"Dapp/MoneyTransfer.sol\":1988:1999  callPutCard */\n      0x10\n      0x00\n        /* \"Dapp/MoneyTransfer.sol\":1988:2007  callPutCard = false */\n      0x0100\n      exp\n      dup2\n      sload\n      dup2\n      0xff\n      mul\n      not\n      and\n      swap1\n      dup4\n      iszero\n      iszero\n      mul\n      or\n      swap1\n      sstore\n      pop\n        /* \"Dapp/MoneyTransfer.sol\":1948:2017  function getOutCard() public  {... */\n      jump\t// out\n        /* \"Dapp/MoneyTransfer.sol\":438:462  string public cardNumber */\n    tag_63:\n      0x0a\n      dup1\n      sload\n      tag_146\n      swap1\n      tag_133\n      jump\t// in\n    tag_146:\n      dup1\n      0x1f\n      add\n      0x20\n      dup1\n      swap2\n      div\n      mul\n      0x20\n      add\n      mload(0x40)\n      swap1\n      dup2\n      add\n      0x40\n      mstore\n      dup1\n      swap3\n      swap2\n      swap1\n      dup2\n      dup2\n      mstore\n      0x20\n      add\n      dup3\n      dup1\n      sload\n      tag_147\n      swap1\n      tag_133\n      jump\t// in\n    tag_147:\n      dup1\n      iszero\n      tag_148\n      jumpi\n      dup1\n      0x1f\n      lt\n      tag_149\n      jumpi\n      0x0100\n      dup1\n      dup4\n      sload\n      div\n      mul\n      dup4\n      mstore\n      swap2\n      0x20\n      add\n      swap2\n      jump(tag_148)\n    tag_149:\n      dup3\n      add\n      swap2\n      swap1\n      0x00\n      mstore\n      keccak256(0x00, 0x20)\n      swap1\n    tag_150:\n      dup2\n      sload\n      dup2\n      mstore\n      swap1\n      0x01\n      add\n      swap1\n      0x20\n      add\n      dup1\n      dup4\n      gt\n      tag_150\n      jumpi\n      dup3\n      swap1\n      sub\n      0x1f\n      and\n      dup3\n      add\n      swap2\n    tag_148:\n      pop\n      pop\n      pop\n      pop\n      pop\n      dup2\n      jump\t// out\n        /* \"Dapp/MoneyTransfer.sol\":252:288  uint256 public totalWeekTransactions */\n    tag_66:\n      sload(0x04)\n      dup2\n      jump\t// out\n        /* \"Dapp/MoneyTransfer.sol\":106:127  uint256 public amount */\n    tag_69:\n      sload(0x00)\n      dup2\n      jump\t// out\n        /* \"Dapp/MoneyTransfer.sol\":375:403  uint256 public receiverFunds */\n    tag_72:\n      sload(0x08)\n      dup2\n      jump\t// out\n        /* \"Dapp/MoneyTransfer.sol\":410:431  string public message */\n    tag_75:\n      0x09\n      dup1\n      sload\n      tag_151\n      swap1\n      tag_133\n      jump\t// in\n    tag_151:\n      dup1\n      0x1f\n      add\n      0x20\n      dup1\n      swap2\n      div\n      mul\n      0x20\n      add\n      mload(0x40)\n      swap1\n      dup2\n      add\n      0x40\n      mstore\n      dup1\n      swap3\n      swap2\n      swap1\n      dup2\n      dup2\n      mstore\n      0x20\n      add\n      dup3\n      dup1\n      sload\n      tag_152\n      swap1\n      tag_133\n      jump\t// in\n    tag_152:\n      dup1\n      iszero\n      tag_153\n      jumpi\n      dup1\n      0x1f\n      lt\n      tag_154\n      jumpi\n      0x0100\n      dup1\n      dup4\n      sload\n      div\n      mul\n      dup4\n      mstore\n      swap2\n      0x20\n      add\n      swap2\n      jump(tag_153)\n    tag_154:\n      dup3\n      add\n      swap2\n      swap1\n      0x00\n      mstore\n      keccak256(0x00, 0x20)\n      swap1\n    tag_155:\n      dup2\n      sload\n      dup2\n      mstore\n      swap1\n      0x01\n      add\n      swap1\n      0x20\n      add\n      dup1\n      dup4\n      gt\n      tag_155\n      jumpi\n      dup3\n      swap1\n      sub\n      0x1f\n      and\n      dup3\n      add\n      swap2\n    tag_153:\n      pop\n      pop\n      pop\n      pop\n      pop\n      dup2\n      jump\t// out\n        /* \"#utility.yul\":7:82   */\n    tag_156:\n        /* \"#utility.yul\":40:46   */\n      0x00\n        /* \"#utility.yul\":73:75   */\n      0x40\n        /* \"#utility.yul\":67:76   */\n      mload\n        /* \"#utility.yul\":57:76   */\n      swap1\n      pop\n        /* \"#utility.yul\":7:82   */\n      swap1\n      jump\t// out\n        /* \"#utility.yul\":88:205   */\n    tag_157:\n        /* \"#utility.yul\":197:198   */\n      0x00\n        /* \"#utility.yul\":194:195   */\n      dup1\n        /* \"#utility.yul\":187:199   */\n      revert\n        /* \"#utility.yul\":211:328   */\n    tag_158:\n        /* \"#utility.yul\":320:321   */\n      0x00\n        /* \"#utility.yul\":317:318   */\n      dup1\n        /* \"#utility.yul\":310:322   */\n      revert\n        /* \"#utility.yul\":334:411   */\n    tag_159:\n        /* \"#utility.yul\":371:378   */\n      0x00\n        /* \"#utility.yul\":400:405   */\n      dup2\n        /* \"#utility.yul\":389:405   */\n      swap1\n      pop\n        /* \"#utility.yul\":334:411   */\n      swap2\n      swap1\n      pop\n      jump\t// out\n        /* \"#utility.yul\":417:539   */\n    tag_160:\n        /* \"#utility.yul\":490:514   */\n      tag_220\n        /* \"#utility.yul\":508:513   */\n      dup2\n        /* \"#utility.yul\":490:514   */\n      tag_159\n      jump\t// in\n    tag_220:\n        /* \"#utility.yul\":483:488   */\n      dup2\n        /* \"#utility.yul\":480:515   */\n      eq\n        /* \"#utility.yul\":470:533   */\n      tag_221\n      jumpi\n        /* \"#utility.yul\":529:530   */\n      0x00\n        /* \"#utility.yul\":526:527   */\n      dup1\n        /* \"#utility.yul\":519:531   */\n      revert\n        /* \"#utility.yul\":470:533   */\n    tag_221:\n        /* \"#utility.yul\":417:539   */\n      pop\n      jump\t// out\n        /* \"#utility.yul\":545:684   */\n    tag_161:\n        /* \"#utility.yul\":591:596   */\n      0x00\n        /* \"#utility.yul\":629:635   */\n      dup2\n        /* \"#utility.yul\":616:636   */\n      calldataload\n        /* \"#utility.yul\":607:636   */\n      swap1\n      pop\n        /* \"#utility.yul\":645:678   */\n      tag_223\n        /* \"#utility.yul\":672:677   */\n      dup2\n        /* \"#utility.yul\":645:678   */\n      tag_160\n      jump\t// in\n    tag_223:\n        /* \"#utility.yul\":545:684   */\n      swap3\n      swap2\n      pop\n      pop\n      jump\t// out\n        /* \"#utility.yul\":690:816   */\n    tag_162:\n        /* \"#utility.yul\":727:734   */\n      0x00\n        /* \"#utility.yul\":767:809   */\n      0xffffffffffffffffffffffffffffffffffffffff\n        /* \"#utility.yul\":760:765   */\n      dup3\n        /* \"#utility.yul\":756:810   */\n      and\n        /* \"#utility.yul\":745:810   */\n      swap1\n      pop\n        /* \"#utility.yul\":690:816   */\n      swap2\n      swap1\n      pop\n      jump\t// out\n        /* \"#utility.yul\":822:918   */\n    tag_163:\n        /* \"#utility.yul\":859:866   */\n      0x00\n        /* \"#utility.yul\":888:912   */\n      tag_226\n        /* \"#utility.yul\":906:911   */\n      dup3\n        /* \"#utility.yul\":888:912   */\n      tag_162\n      jump\t// in\n    tag_226:\n        /* \"#utility.yul\":877:912   */\n      swap1\n      pop\n        /* \"#utility.yul\":822:918   */\n      swap2\n      swap1\n      pop\n      jump\t// out\n        /* \"#utility.yul\":924:1046   */\n    tag_164:\n        /* \"#utility.yul\":997:1021   */\n      tag_228\n        /* \"#utility.yul\":1015:1020   */\n      dup2\n        /* \"#utility.yul\":997:1021   */\n      tag_163\n      jump\t// in\n    tag_228:\n        /* \"#utility.yul\":990:995   */\n      dup2\n        /* \"#utility.yul\":987:1022   */\n      eq\n        /* \"#utility.yul\":977:1040   */\n      tag_229\n      jumpi\n        /* \"#utility.yul\":1036:1037   */\n      0x00\n        /* \"#utility.yul\":1033:1034   */\n      dup1\n        /* \"#utility.yul\":1026:1038   */\n      revert\n        /* \"#utility.yul\":977:1040   */\n    tag_229:\n        /* \"#utility.yul\":924:1046   */\n      pop\n      jump\t// out\n        /* \"#utility.yul\":1052:1191   */\n    tag_165:\n        /* \"#utility.yul\":1098:1103   */\n      0x00\n        /* \"#utility.yul\":1136:1142   */\n      dup2\n        /* \"#utility.yul\":1123:1143   */\n      calldataload\n        /* \"#utility.yul\":1114:1143   */\n      swap1\n      pop\n        /* \"#utility.yul\":1152:1185   */\n      tag_231\n        /* \"#utility.yul\":1179:1184   */\n      dup2\n        /* \"#utility.yul\":1152:1185   */\n      tag_164\n      jump\t// in\n    tag_231:\n        /* \"#utility.yul\":1052:1191   */\n      swap3\n      swap2\n      pop\n      pop\n      jump\t// out\n        /* \"#utility.yul\":1197:1671   */\n    tag_25:\n        /* \"#utility.yul\":1265:1271   */\n      0x00\n        /* \"#utility.yul\":1273:1279   */\n      dup1\n        /* \"#utility.yul\":1322:1324   */\n      0x40\n        /* \"#utility.yul\":1310:1319   */\n      dup4\n        /* \"#utility.yul\":1301:1308   */\n      dup6\n        /* \"#utility.yul\":1297:1320   */\n      sub\n        /* \"#utility.yul\":1293:1325   */\n      slt\n        /* \"#utility.yul\":1290:1409   */\n      iszero\n      tag_233\n      jumpi\n        /* \"#utility.yul\":1328:1407   */\n      tag_234\n      tag_157\n      jump\t// in\n    tag_234:\n        /* \"#utility.yul\":1290:1409   */\n    tag_233:\n        /* \"#utility.yul\":1448:1449   */\n      0x00\n        /* \"#utility.yul\":1473:1526   */\n      tag_235\n        /* \"#utility.yul\":1518:1525   */\n      dup6\n        /* \"#utility.yul\":1509:1515   */\n      dup3\n        /* \"#utility.yul\":1498:1507   */\n      dup7\n        /* \"#utility.yul\":1494:1516   */\n      add\n        /* \"#utility.yul\":1473:1526   */\n      tag_161\n      jump\t// in\n    tag_235:\n        /* \"#utility.yul\":1463:1526   */\n      swap3\n      pop\n        /* \"#utility.yul\":1419:1536   */\n      pop\n        /* \"#utility.yul\":1575:1577   */\n      0x20\n        /* \"#utility.yul\":1601:1654   */\n      tag_236\n        /* \"#utility.yul\":1646:1653   */\n      dup6\n        /* \"#utility.yul\":1637:1643   */\n      dup3\n        /* \"#utility.yul\":1626:1635   */\n      dup7\n        /* \"#utility.yul\":1622:1644   */\n      add\n        /* \"#utility.yul\":1601:1654   */\n      tag_165\n      jump\t// in\n    tag_236:\n        /* \"#utility.yul\":1591:1654   */\n      swap2\n      pop\n        /* \"#utility.yul\":1546:1664   */\n      pop\n        /* \"#utility.yul\":1197:1671   */\n      swap3\n      pop\n      swap3\n      swap1\n      pop\n      jump\t// out\n        /* \"#utility.yul\":1677:1795   */\n    tag_166:\n        /* \"#utility.yul\":1764:1788   */\n      tag_238\n        /* \"#utility.yul\":1782:1787   */\n      dup2\n        /* \"#utility.yul\":1764:1788   */\n      tag_159\n      jump\t// in\n    tag_238:\n        /* \"#utility.yul\":1759:1762   */\n      dup3\n        /* \"#utility.yul\":1752:1789   */\n      mstore\n        /* \"#utility.yul\":1677:1795   */\n      pop\n      pop\n      jump\t// out\n        /* \"#utility.yul\":1801:2023   */\n    tag_30:\n        /* \"#utility.yul\":1894:1898   */\n      0x00\n        /* \"#utility.yul\":1932:1934   */\n      0x20\n        /* \"#utility.yul\":1921:1930   */\n      dup3\n        /* \"#utility.yul\":1917:1935   */\n      add\n        /* \"#utility.yul\":1909:1935   */\n      swap1\n      pop\n        /* \"#utility.yul\":1945:2016   */\n      tag_240\n        /* \"#utility.yul\":2013:2014   */\n      0x00\n        /* \"#utility.yul\":2002:2011   */\n      dup4\n        /* \"#utility.yul\":1998:2015   */\n      add\n        /* \"#utility.yul\":1989:1995   */\n      dup5\n        /* \"#utility.yul\":1945:2016   */\n      tag_166\n      jump\t// in\n    tag_240:\n        /* \"#utility.yul\":1801:2023   */\n      swap3\n      swap2\n      pop\n      pop\n      jump\t// out\n        /* \"#utility.yul\":2029:2146   */\n    tag_167:\n        /* \"#utility.yul\":2138:2139   */\n      0x00\n        /* \"#utility.yul\":2135:2136   */\n      dup1\n        /* \"#utility.yul\":2128:2140   */\n      revert\n        /* \"#utility.yul\":2152:2269   */\n    tag_168:\n        /* \"#utility.yul\":2261:2262   */\n      0x00\n        /* \"#utility.yul\":2258:2259   */\n      dup1\n        /* \"#utility.yul\":2251:2263   */\n      revert\n        /* \"#utility.yul\":2275:2377   */\n    tag_169:\n        /* \"#utility.yul\":2316:2322   */\n      0x00\n        /* \"#utility.yul\":2367:2369   */\n      0x1f\n        /* \"#utility.yul\":2363:2370   */\n      not\n        /* \"#utility.yul\":2358:2360   */\n      0x1f\n        /* \"#utility.yul\":2351:2356   */\n      dup4\n        /* \"#utility.yul\":2347:2361   */\n      add\n        /* \"#utility.yul\":2343:2371   */\n      and\n        /* \"#utility.yul\":2333:2371   */\n      swap1\n      pop\n        /* \"#utility.yul\":2275:2377   */\n      swap2\n      swap1\n      pop\n      jump\t// out\n        /* \"#utility.yul\":2383:2563   */\n    tag_170:\n        /* \"#utility.yul\":2431:2508   */\n      0x4e487b7100000000000000000000000000000000000000000000000000000000\n        /* \"#utility.yul\":2428:2429   */\n      0x00\n        /* \"#utility.yul\":2421:2509   */\n      mstore\n        /* \"#utility.yul\":2528:2532   */\n      0x41\n        /* \"#utility.yul\":2525:2526   */\n      0x04\n        /* \"#utility.yul\":2518:2533   */\n      mstore\n        /* \"#utility.yul\":2552:2556   */\n      0x24\n        /* \"#utility.yul\":2549:2550   */\n      0x00\n        /* \"#utility.yul\":2542:2557   */\n      revert\n        /* \"#utility.yul\":2569:2850   */\n    tag_171:\n        /* \"#utility.yul\":2652:2679   */\n      tag_246\n        /* \"#utility.yul\":2674:2678   */\n      dup3\n        /* \"#utility.yul\":2652:2679   */\n      tag_169\n      jump\t// in\n    tag_246:\n        /* \"#utility.yul\":2644:2650   */\n      dup2\n        /* \"#utility.yul\":2640:2680   */\n      add\n        /* \"#utility.yul\":2782:2788   */\n      dup2\n        /* \"#utility.yul\":2770:2780   */\n      dup2\n        /* \"#utility.yul\":2767:2789   */\n      lt\n        /* \"#utility.yul\":2746:2764   */\n      0xffffffffffffffff\n        /* \"#utility.yul\":2734:2744   */\n      dup3\n        /* \"#utility.yul\":2731:2765   */\n      gt\n        /* \"#utility.yul\":2728:2790   */\n      or\n        /* \"#utility.yul\":2725:2813   */\n      iszero\n      tag_247\n      jumpi\n        /* \"#utility.yul\":2793:2811   */\n      tag_248\n      tag_170\n      jump\t// in\n    tag_248:\n        /* \"#utility.yul\":2725:2813   */\n    tag_247:\n        /* \"#utility.yul\":2833:2843   */\n      dup1\n        /* \"#utility.yul\":2829:2831   */\n      0x40\n        /* \"#utility.yul\":2822:2844   */\n      mstore\n        /* \"#utility.yul\":2612:2850   */\n      pop\n        /* \"#utility.yul\":2569:2850   */\n      pop\n      pop\n      jump\t// out\n        /* \"#utility.yul\":2856:2985   */\n    tag_172:\n        /* \"#utility.yul\":2890:2896   */\n      0x00\n        /* \"#utility.yul\":2917:2937   */\n      tag_250\n      tag_156\n      jump\t// in\n    tag_250:\n        /* \"#utility.yul\":2907:2937   */\n      swap1\n      pop\n        /* \"#utility.yul\":2946:2979   */\n      tag_251\n        /* \"#utility.yul\":2974:2978   */\n      dup3\n        /* \"#utility.yul\":2966:2972   */\n      dup3\n        /* \"#utility.yul\":2946:2979   */\n      tag_171\n      jump\t// in\n    tag_251:\n        /* \"#utility.yul\":2856:2985   */\n      swap2\n      swap1\n      pop\n      jump\t// out\n        /* \"#utility.yul\":2991:3299   */\n    tag_173:\n        /* \"#utility.yul\":3053:3057   */\n      0x00\n        /* \"#utility.yul\":3143:3161   */\n      0xffffffffffffffff\n        /* \"#utility.yul\":3135:3141   */\n      dup3\n        /* \"#utility.yul\":3132:3162   */\n      gt\n        /* \"#utility.yul\":3129:3185   */\n      iszero\n      tag_253\n      jumpi\n        /* \"#utility.yul\":3165:3183   */\n      tag_254\n      tag_170\n      jump\t// in\n    tag_254:\n        /* \"#utility.yul\":3129:3185   */\n    tag_253:\n        /* \"#utility.yul\":3203:3232   */\n      tag_255\n        /* \"#utility.yul\":3225:3231   */\n      dup3\n        /* \"#utility.yul\":3203:3232   */\n      tag_169\n      jump\t// in\n    tag_255:\n        /* \"#utility.yul\":3195:3232   */\n      swap1\n      pop\n        /* \"#utility.yul\":3287:3291   */\n      0x20\n        /* \"#utility.yul\":3281:3285   */\n      dup2\n        /* \"#utility.yul\":3277:3292   */\n      add\n        /* \"#utility.yul\":3269:3292   */\n      swap1\n      pop\n        /* \"#utility.yul\":2991:3299   */\n      swap2\n      swap1\n      pop\n      jump\t// out\n        /* \"#utility.yul\":3305:3459   */\n    tag_174:\n        /* \"#utility.yul\":3389:3395   */\n      dup3\n        /* \"#utility.yul\":3384:3387   */\n      dup2\n        /* \"#utility.yul\":3379:3382   */\n      dup4\n        /* \"#utility.yul\":3366:3396   */\n      calldatacopy\n        /* \"#utility.yul\":3451:3452   */\n      0x00\n        /* \"#utility.yul\":3442:3448   */\n      dup4\n        /* \"#utility.yul\":3437:3440   */\n      dup4\n        /* \"#utility.yul\":3433:3449   */\n      add\n        /* \"#utility.yul\":3426:3453   */\n      mstore\n        /* \"#utility.yul\":3305:3459   */\n      pop\n      pop\n      pop\n      jump\t// out\n        /* \"#utility.yul\":3465:3877   */\n    tag_175:\n        /* \"#utility.yul\":3543:3548   */\n      0x00\n        /* \"#utility.yul\":3568:3634   */\n      tag_258\n        /* \"#utility.yul\":3584:3633   */\n      tag_259\n        /* \"#utility.yul\":3626:3632   */\n      dup5\n        /* \"#utility.yul\":3584:3633   */\n      tag_173\n      jump\t// in\n    tag_259:\n        /* \"#utility.yul\":3568:3634   */\n      tag_172\n      jump\t// in\n    tag_258:\n        /* \"#utility.yul\":3559:3634   */\n      swap1\n      pop\n        /* \"#utility.yul\":3657:3663   */\n      dup3\n        /* \"#utility.yul\":3650:3655   */\n      dup2\n        /* \"#utility.yul\":3643:3664   */\n      mstore\n        /* \"#utility.yul\":3695:3699   */\n      0x20\n        /* \"#utility.yul\":3688:3693   */\n      dup2\n        /* \"#utility.yul\":3684:3700   */\n      add\n        /* \"#utility.yul\":3733:3736   */\n      dup5\n        /* \"#utility.yul\":3724:3730   */\n      dup5\n        /* \"#utility.yul\":3719:3722   */\n      dup5\n        /* \"#utility.yul\":3715:3731   */\n      add\n        /* \"#utility.yul\":3712:3737   */\n      gt\n        /* \"#utility.yul\":3709:3821   */\n      iszero\n      tag_260\n      jumpi\n        /* \"#utility.yul\":3740:3819   */\n      tag_261\n      tag_168\n      jump\t// in\n    tag_261:\n        /* \"#utility.yul\":3709:3821   */\n    tag_260:\n        /* \"#utility.yul\":3830:3871   */\n      tag_262\n        /* \"#utility.yul\":3864:3870   */\n      dup5\n        /* \"#utility.yul\":3859:3862   */\n      dup3\n        /* \"#utility.yul\":3854:3857   */\n      dup6\n        /* \"#utility.yul\":3830:3871   */\n      tag_174\n      jump\t// in\n    tag_262:\n        /* \"#utility.yul\":3549:3877   */\n      pop\n        /* \"#utility.yul\":3465:3877   */\n      swap4\n      swap3\n      pop\n      pop\n      pop\n      jump\t// out\n        /* \"#utility.yul\":3897:4237   */\n    tag_176:\n        /* \"#utility.yul\":3953:3958   */\n      0x00\n        /* \"#utility.yul\":4002:4005   */\n      dup3\n        /* \"#utility.yul\":3995:3999   */\n      0x1f\n        /* \"#utility.yul\":3987:3993   */\n      dup4\n        /* \"#utility.yul\":3983:4000   */\n      add\n        /* \"#utility.yul\":3979:4006   */\n      slt\n        /* \"#utility.yul\":3969:4091   */\n      tag_264\n      jumpi\n        /* \"#utility.yul\":4010:4089   */\n      tag_265\n      tag_167\n      jump\t// in\n    tag_265:\n        /* \"#utility.yul\":3969:4091   */\n    tag_264:\n        /* \"#utility.yul\":4127:4133   */\n      dup2\n        /* \"#utility.yul\":4114:4134   */\n      calldataload\n        /* \"#utility.yul\":4152:4231   */\n      tag_266\n        /* \"#utility.yul\":4227:4230   */\n      dup5\n        /* \"#utility.yul\":4219:4225   */\n      dup3\n        /* \"#utility.yul\":4212:4216   */\n      0x20\n        /* \"#utility.yul\":4204:4210   */\n      dup7\n        /* \"#utility.yul\":4200:4217   */\n      add\n        /* \"#utility.yul\":4152:4231   */\n      tag_175\n      jump\t// in\n    tag_266:\n        /* \"#utility.yul\":4143:4231   */\n      swap2\n      pop\n        /* \"#utility.yul\":3959:4237   */\n      pop\n        /* \"#utility.yul\":3897:4237   */\n      swap3\n      swap2\n      pop\n      pop\n      jump\t// out\n        /* \"#utility.yul\":4243:5077   */\n    tag_35:\n        /* \"#utility.yul\":4331:4337   */\n      0x00\n        /* \"#utility.yul\":4339:4345   */\n      dup1\n        /* \"#utility.yul\":4388:4390   */\n      0x40\n        /* \"#utility.yul\":4376:4385   */\n      dup4\n        /* \"#utility.yul\":4367:4374   */\n      dup6\n        /* \"#utility.yul\":4363:4386   */\n      sub\n        /* \"#utility.yul\":4359:4391   */\n      slt\n        /* \"#utility.yul\":4356:4475   */\n      iszero\n      tag_268\n      jumpi\n        /* \"#utility.yul\":4394:4473   */\n      tag_269\n      tag_157\n      jump\t// in\n    tag_269:\n        /* \"#utility.yul\":4356:4475   */\n    tag_268:\n        /* \"#utility.yul\":4542:4543   */\n      0x00\n        /* \"#utility.yul\":4531:4540   */\n      dup4\n        /* \"#utility.yul\":4527:4544   */\n      add\n        /* \"#utility.yul\":4514:4545   */\n      calldataload\n        /* \"#utility.yul\":4572:4590   */\n      0xffffffffffffffff\n        /* \"#utility.yul\":4564:4570   */\n      dup2\n        /* \"#utility.yul\":4561:4591   */\n      gt\n        /* \"#utility.yul\":4558:4675   */\n      iszero\n      tag_270\n      jumpi\n        /* \"#utility.yul\":4594:4673   */\n      tag_271\n      tag_158\n      jump\t// in\n    tag_271:\n        /* \"#utility.yul\":4558:4675   */\n    tag_270:\n        /* \"#utility.yul\":4699:4762   */\n      tag_272\n        /* \"#utility.yul\":4754:4761   */\n      dup6\n        /* \"#utility.yul\":4745:4751   */\n      dup3\n        /* \"#utility.yul\":4734:4743   */\n      dup7\n        /* \"#utility.yul\":4730:4752   */\n      add\n        /* \"#utility.yul\":4699:4762   */\n      tag_176\n      jump\t// in\n    tag_272:\n        /* \"#utility.yul\":4689:4762   */\n      swap3\n      pop\n        /* \"#utility.yul\":4485:4772   */\n      pop\n        /* \"#utility.yul\":4839:4841   */\n      0x20\n        /* \"#utility.yul\":4828:4837   */\n      dup4\n        /* \"#utility.yul\":4824:4842   */\n      add\n        /* \"#utility.yul\":4811:4843   */\n      calldataload\n        /* \"#utility.yul\":4870:4888   */\n      0xffffffffffffffff\n        /* \"#utility.yul\":4862:4868   */\n      dup2\n        /* \"#utility.yul\":4859:4889   */\n      gt\n        /* \"#utility.yul\":4856:4973   */\n      iszero\n      tag_273\n      jumpi\n        /* \"#utility.yul\":4892:4971   */\n      tag_274\n      tag_158\n      jump\t// in\n    tag_274:\n        /* \"#utility.yul\":4856:4973   */\n    tag_273:\n        /* \"#utility.yul\":4997:5060   */\n      tag_275\n        /* \"#utility.yul\":5052:5059   */\n      dup6\n        /* \"#utility.yul\":5043:5049   */\n      dup3\n        /* \"#utility.yul\":5032:5041   */\n      dup7\n        /* \"#utility.yul\":5028:5050   */\n      add\n        /* \"#utility.yul\":4997:5060   */\n      tag_176\n      jump\t// in\n    tag_275:\n        /* \"#utility.yul\":4987:5060   */\n      swap2\n      pop\n        /* \"#utility.yul\":4782:5070   */\n      pop\n        /* \"#utility.yul\":4243:5077   */\n      swap3\n      pop\n      swap3\n      swap1\n      pop\n      jump\t// out\n        /* \"#utility.yul\":5083:5173   */\n    tag_177:\n        /* \"#utility.yul\":5117:5124   */\n      0x00\n        /* \"#utility.yul\":5160:5165   */\n      dup2\n        /* \"#utility.yul\":5153:5166   */\n      iszero\n        /* \"#utility.yul\":5146:5167   */\n      iszero\n        /* \"#utility.yul\":5135:5167   */\n      swap1\n      pop\n        /* \"#utility.yul\":5083:5173   */\n      swap2\n      swap1\n      pop\n      jump\t// out\n        /* \"#utility.yul\":5179:5288   */\n    tag_178:\n        /* \"#utility.yul\":5260:5281   */\n      tag_278\n        /* \"#utility.yul\":5275:5280   */\n      dup2\n        /* \"#utility.yul\":5260:5281   */\n      tag_177\n      jump\t// in\n    tag_278:\n        /* \"#utility.yul\":5255:5258   */\n      dup3\n        /* \"#utility.yul\":5248:5282   */\n      mstore\n        /* \"#utility.yul\":5179:5288   */\n      pop\n      pop\n      jump\t// out\n        /* \"#utility.yul\":5294:5504   */\n    tag_43:\n        /* \"#utility.yul\":5381:5385   */\n      0x00\n        /* \"#utility.yul\":5419:5421   */\n      0x20\n        /* \"#utility.yul\":5408:5417   */\n      dup3\n        /* \"#utility.yul\":5404:5422   */\n      add\n        /* \"#utility.yul\":5396:5422   */\n      swap1\n      pop\n        /* \"#utility.yul\":5432:5497   */\n      tag_280\n        /* \"#utility.yul\":5494:5495   */\n      0x00\n        /* \"#utility.yul\":5483:5492   */\n      dup4\n        /* \"#utility.yul\":5479:5496   */\n      add\n        /* \"#utility.yul\":5470:5476   */\n      dup5\n        /* \"#utility.yul\":5432:5497   */\n      tag_178\n      jump\t// in\n    tag_280:\n        /* \"#utility.yul\":5294:5504   */\n      swap3\n      swap2\n      pop\n      pop\n      jump\t// out\n        /* \"#utility.yul\":5510:5609   */\n    tag_179:\n        /* \"#utility.yul\":5562:5568   */\n      0x00\n        /* \"#utility.yul\":5596:5601   */\n      dup2\n        /* \"#utility.yul\":5590:5602   */\n      mload\n        /* \"#utility.yul\":5580:5602   */\n      swap1\n      pop\n        /* \"#utility.yul\":5510:5609   */\n      swap2\n      swap1\n      pop\n      jump\t// out\n        /* \"#utility.yul\":5615:5784   */\n    tag_180:\n        /* \"#utility.yul\":5699:5710   */\n      0x00\n        /* \"#utility.yul\":5733:5739   */\n      dup3\n        /* \"#utility.yul\":5728:5731   */\n      dup3\n        /* \"#utility.yul\":5721:5740   */\n      mstore\n        /* \"#utility.yul\":5773:5777   */\n      0x20\n        /* \"#utility.yul\":5768:5771   */\n      dup3\n        /* \"#utility.yul\":5764:5778   */\n      add\n        /* \"#utility.yul\":5749:5778   */\n      swap1\n      pop\n        /* \"#utility.yul\":5615:5784   */\n      swap3\n      swap2\n      pop\n      pop\n      jump\t// out\n        /* \"#utility.yul\":5790:6097   */\n    tag_181:\n        /* \"#utility.yul\":5858:5859   */\n      0x00\n        /* \"#utility.yul\":5868:5981   */\n    tag_284:\n        /* \"#utility.yul\":5882:5888   */\n      dup4\n        /* \"#utility.yul\":5879:5880   */\n      dup2\n        /* \"#utility.yul\":5876:5889   */\n      lt\n        /* \"#utility.yul\":5868:5981   */\n      iszero\n      tag_286\n      jumpi\n        /* \"#utility.yul\":5967:5968   */\n      dup1\n        /* \"#utility.yul\":5962:5965   */\n      dup3\n        /* \"#utility.yul\":5958:5969   */\n      add\n        /* \"#utility.yul\":5952:5970   */\n      mload\n        /* \"#utility.yul\":5948:5949   */\n      dup2\n        /* \"#utility.yul\":5943:5946   */\n      dup5\n        /* \"#utility.yul\":5939:5950   */\n      add\n        /* \"#utility.yul\":5932:5971   */\n      mstore\n        /* \"#utility.yul\":5904:5906   */\n      0x20\n        /* \"#utility.yul\":5901:5902   */\n      dup2\n        /* \"#utility.yul\":5897:5907   */\n      add\n        /* \"#utility.yul\":5892:5907   */\n      swap1\n      pop\n        /* \"#utility.yul\":5868:5981   */\n      jump(tag_284)\n    tag_286:\n        /* \"#utility.yul\":5999:6005   */\n      dup4\n        /* \"#utility.yul\":5996:5997   */\n      dup2\n        /* \"#utility.yul\":5993:6006   */\n      gt\n        /* \"#utility.yul\":5990:6091   */\n      iszero\n      tag_287\n      jumpi\n        /* \"#utility.yul\":6079:6080   */\n      0x00\n        /* \"#utility.yul\":6070:6076   */\n      dup5\n        /* \"#utility.yul\":6065:6068   */\n      dup5\n        /* \"#utility.yul\":6061:6077   */\n      add\n        /* \"#utility.yul\":6054:6081   */\n      mstore\n        /* \"#utility.yul\":5990:6091   */\n    tag_287:\n        /* \"#utility.yul\":5839:6097   */\n      pop\n        /* \"#utility.yul\":5790:6097   */\n      pop\n      pop\n      pop\n      jump\t// out\n        /* \"#utility.yul\":6103:6467   */\n    tag_182:\n        /* \"#utility.yul\":6191:6194   */\n      0x00\n        /* \"#utility.yul\":6219:6258   */\n      tag_289\n        /* \"#utility.yul\":6252:6257   */\n      dup3\n        /* \"#utility.yul\":6219:6258   */\n      tag_179\n      jump\t// in\n    tag_289:\n        /* \"#utility.yul\":6274:6345   */\n      tag_290\n        /* \"#utility.yul\":6338:6344   */\n      dup2\n        /* \"#utility.yul\":6333:6336   */\n      dup6\n        /* \"#utility.yul\":6274:6345   */\n      tag_180\n      jump\t// in\n    tag_290:\n        /* \"#utility.yul\":6267:6345   */\n      swap4\n      pop\n        /* \"#utility.yul\":6354:6406   */\n      tag_291\n        /* \"#utility.yul\":6399:6405   */\n      dup2\n        /* \"#utility.yul\":6394:6397   */\n      dup6\n        /* \"#utility.yul\":6387:6391   */\n      0x20\n        /* \"#utility.yul\":6380:6385   */\n      dup7\n        /* \"#utility.yul\":6376:6392   */\n      add\n        /* \"#utility.yul\":6354:6406   */\n      tag_181\n      jump\t// in\n    tag_291:\n        /* \"#utility.yul\":6431:6460   */\n      tag_292\n        /* \"#utility.yul\":6453:6459   */\n      dup2\n        /* \"#utility.yul\":6431:6460   */\n      tag_169\n      jump\t// in\n    tag_292:\n        /* \"#utility.yul\":6426:6429   */\n      dup5\n        /* \"#utility.yul\":6422:6461   */\n      add\n        /* \"#utility.yul\":6415:6461   */\n      swap2\n      pop\n        /* \"#utility.yul\":6195:6467   */\n      pop\n        /* \"#utility.yul\":6103:6467   */\n      swap3\n      swap2\n      pop\n      pop\n      jump\t// out\n        /* \"#utility.yul\":6473:6786   */\n    tag_47:\n        /* \"#utility.yul\":6586:6590   */\n      0x00\n        /* \"#utility.yul\":6624:6626   */\n      0x20\n        /* \"#utility.yul\":6613:6622   */\n      dup3\n        /* \"#utility.yul\":6609:6627   */\n      add\n        /* \"#utility.yul\":6601:6627   */\n      swap1\n      pop\n        /* \"#utility.yul\":6673:6682   */\n      dup2\n        /* \"#utility.yul\":6667:6671   */\n      dup2\n        /* \"#utility.yul\":6663:6683   */\n      sub\n        /* \"#utility.yul\":6659:6660   */\n      0x00\n        /* \"#utility.yul\":6648:6657   */\n      dup4\n        /* \"#utility.yul\":6644:6661   */\n      add\n        /* \"#utility.yul\":6637:6684   */\n      mstore\n        /* \"#utility.yul\":6701:6779   */\n      tag_294\n        /* \"#utility.yul\":6774:6778   */\n      dup2\n        /* \"#utility.yul\":6765:6771   */\n      dup5\n        /* \"#utility.yul\":6701:6779   */\n      tag_182\n      jump\t// in\n    tag_294:\n        /* \"#utility.yul\":6693:6779   */\n      swap1\n      pop\n        /* \"#utility.yul\":6473:6786   */\n      swap3\n      swap2\n      pop\n      pop\n      jump\t// out\n        /* \"#utility.yul\":6792:6970   */\n    tag_183:\n        /* \"#utility.yul\":6932:6962   */\n      0x2054686973206164647265737320646f65736e27742065786973747300000000\n        /* \"#utility.yul\":6928:6929   */\n      0x00\n        /* \"#utility.yul\":6920:6926   */\n      dup3\n        /* \"#utility.yul\":6916:6930   */\n      add\n        /* \"#utility.yul\":6909:6963   */\n      mstore\n        /* \"#utility.yul\":6792:6970   */\n      pop\n      jump\t// out\n        /* \"#utility.yul\":6976:7342   */\n    tag_184:\n        /* \"#utility.yul\":7118:7121   */\n      0x00\n        /* \"#utility.yul\":7139:7206   */\n      tag_297\n        /* \"#utility.yul\":7203:7205   */\n      0x1c\n        /* \"#utility.yul\":7198:7201   */\n      dup4\n        /* \"#utility.yul\":7139:7206   */\n      tag_180\n      jump\t// in\n    tag_297:\n        /* \"#utility.yul\":7132:7206   */\n      swap2\n      pop\n        /* \"#utility.yul\":7215:7308   */\n      tag_298\n        /* \"#utility.yul\":7304:7307   */\n      dup3\n        /* \"#utility.yul\":7215:7308   */\n      tag_183\n      jump\t// in\n    tag_298:\n        /* \"#utility.yul\":7333:7335   */\n      0x20\n        /* \"#utility.yul\":7328:7331   */\n      dup3\n        /* \"#utility.yul\":7324:7336   */\n      add\n        /* \"#utility.yul\":7317:7336   */\n      swap1\n      pop\n        /* \"#utility.yul\":6976:7342   */\n      swap2\n      swap1\n      pop\n      jump\t// out\n        /* \"#utility.yul\":7348:7767   */\n    tag_80:\n        /* \"#utility.yul\":7514:7518   */\n      0x00\n        /* \"#utility.yul\":7552:7554   */\n      0x20\n        /* \"#utility.yul\":7541:7550   */\n      dup3\n        /* \"#utility.yul\":7537:7555   */\n      add\n        /* \"#utility.yul\":7529:7555   */\n      swap1\n      pop\n        /* \"#utility.yul\":7601:7610   */\n      dup2\n        /* \"#utility.yul\":7595:7599   */\n      dup2\n        /* \"#utility.yul\":7591:7611   */\n      sub\n        /* \"#utility.yul\":7587:7588   */\n      0x00\n        /* \"#utility.yul\":7576:7585   */\n      dup4\n        /* \"#utility.yul\":7572:7589   */\n      add\n        /* \"#utility.yul\":7565:7612   */\n      mstore\n        /* \"#utility.yul\":7629:7760   */\n      tag_300\n        /* \"#utility.yul\":7755:7759   */\n      dup2\n        /* \"#utility.yul\":7629:7760   */\n      tag_184\n      jump\t// in\n    tag_300:\n        /* \"#utility.yul\":7621:7760   */\n      swap1\n      pop\n        /* \"#utility.yul\":7348:7767   */\n      swap2\n      swap1\n      pop\n      jump\t// out\n        /* \"#utility.yul\":7773:7946   */\n    tag_185:\n        /* \"#utility.yul\":7913:7938   */\n      0x506c6561736520696e7365727420796f75722063617264000000000000000000\n        /* \"#utility.yul\":7909:7910   */\n      0x00\n        /* \"#utility.yul\":7901:7907   */\n      dup3\n        /* \"#utility.yul\":7897:7911   */\n      add\n        /* \"#utility.yul\":7890:7939   */\n      mstore\n        /* \"#utility.yul\":7773:7946   */\n      pop\n      jump\t// out\n        /* \"#utility.yul\":7952:8318   */\n    tag_186:\n        /* \"#utility.yul\":8094:8097   */\n      0x00\n        /* \"#utility.yul\":8115:8182   */\n      tag_303\n        /* \"#utility.yul\":8179:8181   */\n      0x17\n        /* \"#utility.yul\":8174:8177   */\n      dup4\n        /* \"#utility.yul\":8115:8182   */\n      tag_180\n      jump\t// in\n    tag_303:\n        /* \"#utility.yul\":8108:8182   */\n      swap2\n      pop\n        /* \"#utility.yul\":8191:8284   */\n      tag_304\n        /* \"#utility.yul\":8280:8283   */\n      dup3\n        /* \"#utility.yul\":8191:8284   */\n      tag_185\n      jump\t// in\n    tag_304:\n        /* \"#utility.yul\":8309:8311   */\n      0x20\n        /* \"#utility.yul\":8304:8307   */\n      dup3\n        /* \"#utility.yul\":8300:8312   */\n      add\n        /* \"#utility.yul\":8293:8312   */\n      swap1\n      pop\n        /* \"#utility.yul\":7952:8318   */\n      swap2\n      swap1\n      pop\n      jump\t// out\n        /* \"#utility.yul\":8324:8743   */\n    tag_84:\n        /* \"#utility.yul\":8490:8494   */\n      0x00\n        /* \"#utility.yul\":8528:8530   */\n      0x20\n        /* \"#utility.yul\":8517:8526   */\n      dup3\n        /* \"#utility.yul\":8513:8531   */\n      add\n        /* \"#utility.yul\":8505:8531   */\n      swap1\n      pop\n        /* \"#utility.yul\":8577:8586   */\n      dup2\n        /* \"#utility.yul\":8571:8575   */\n      dup2\n        /* \"#utility.yul\":8567:8587   */\n      sub\n        /* \"#utility.yul\":8563:8564   */\n      0x00\n        /* \"#utility.yul\":8552:8561   */\n      dup4\n        /* \"#utility.yul\":8548:8565   */\n      add\n        /* \"#utility.yul\":8541:8588   */\n      mstore\n        /* \"#utility.yul\":8605:8736   */\n      tag_306\n        /* \"#utility.yul\":8731:8735   */\n      dup2\n        /* \"#utility.yul\":8605:8736   */\n      tag_186\n      jump\t// in\n    tag_306:\n        /* \"#utility.yul\":8597:8736   */\n      swap1\n      pop\n        /* \"#utility.yul\":8324:8743   */\n      swap2\n      swap1\n      pop\n      jump\t// out\n        /* \"#utility.yul\":8749:8929   */\n    tag_187:\n        /* \"#utility.yul\":8797:8874   */\n      0x4e487b7100000000000000000000000000000000000000000000000000000000\n        /* \"#utility.yul\":8794:8795   */\n      0x00\n        /* \"#utility.yul\":8787:8875   */\n      mstore\n        /* \"#utility.yul\":8894:8898   */\n      0x11\n        /* \"#utility.yul\":8891:8892   */\n      0x04\n        /* \"#utility.yul\":8884:8899   */\n      mstore\n        /* \"#utility.yul\":8918:8922   */\n      0x24\n        /* \"#utility.yul\":8915:8916   */\n      0x00\n        /* \"#utility.yul\":8908:8923   */\n      revert\n        /* \"#utility.yul\":8935:9240   */\n    tag_88:\n        /* \"#utility.yul\":8975:8978   */\n      0x00\n        /* \"#utility.yul\":8994:9014   */\n      tag_309\n        /* \"#utility.yul\":9012:9013   */\n      dup3\n        /* \"#utility.yul\":8994:9014   */\n      tag_159\n      jump\t// in\n    tag_309:\n        /* \"#utility.yul\":8989:9014   */\n      swap2\n      pop\n        /* \"#utility.yul\":9028:9048   */\n      tag_310\n        /* \"#utility.yul\":9046:9047   */\n      dup4\n        /* \"#utility.yul\":9028:9048   */\n      tag_159\n      jump\t// in\n    tag_310:\n        /* \"#utility.yul\":9023:9048   */\n      swap3\n      pop\n        /* \"#utility.yul\":9182:9183   */\n      dup3\n        /* \"#utility.yul\":9114:9180   */\n      0xffffffffffffffffffffffffffffffffffffffffffffffffffffffffffffffff\n        /* \"#utility.yul\":9110:9184   */\n      sub\n        /* \"#utility.yul\":9107:9108   */\n      dup3\n        /* \"#utility.yul\":9104:9185   */\n      gt\n        /* \"#utility.yul\":9101:9208   */\n      iszero\n      tag_311\n      jumpi\n        /* \"#utility.yul\":9188:9206   */\n      tag_312\n      tag_187\n      jump\t// in\n    tag_312:\n        /* \"#utility.yul\":9101:9208   */\n    tag_311:\n        /* \"#utility.yul\":9232:9233   */\n      dup3\n        /* \"#utility.yul\":9229:9230   */\n      dup3\n        /* \"#utility.yul\":9225:9234   */\n      add\n        /* \"#utility.yul\":9218:9234   */\n      swap1\n      pop\n        /* \"#utility.yul\":8935:9240   */\n      swap3\n      swap2\n      pop\n      pop\n      jump\t// out\n        /* \"#utility.yul\":9246:9426   */\n    tag_92:\n        /* \"#utility.yul\":9294:9371   */\n      0x4e487b7100000000000000000000000000000000000000000000000000000000\n        /* \"#utility.yul\":9291:9292   */\n      0x00\n        /* \"#utility.yul\":9284:9372   */\n      mstore\n        /* \"#utility.yul\":9391:9395   */\n      0x01\n        /* \"#utility.yul\":9388:9389   */\n      0x04\n        /* \"#utility.yul\":9381:9396   */\n      mstore\n        /* \"#utility.yul\":9415:9419   */\n      0x24\n        /* \"#utility.yul\":9412:9413   */\n      0x00\n        /* \"#utility.yul\":9405:9420   */\n      revert\n        /* \"#utility.yul\":9432:9611   */\n    tag_188:\n        /* \"#utility.yul\":9572:9603   */\n      0x596f75207265616368656420746865206c696d69742070657220646179000000\n        /* \"#utility.yul\":9568:9569   */\n      0x00\n        /* \"#utility.yul\":9560:9566   */\n      dup3\n        /* \"#utility.yul\":9556:9570   */\n      add\n        /* \"#utility.yul\":9549:9604   */\n      mstore\n        /* \"#utility.yul\":9432:9611   */\n      pop\n      jump\t// out\n        /* \"#utility.yul\":9617:9983   */\n    tag_189:\n        /* \"#utility.yul\":9759:9762   */\n      0x00\n        /* \"#utility.yul\":9780:9847   */\n      tag_316\n        /* \"#utility.yul\":9844:9846   */\n      0x1d\n        /* \"#utility.yul\":9839:9842   */\n      dup4\n        /* \"#utility.yul\":9780:9847   */\n      tag_180\n      jump\t// in\n    tag_316:\n        /* \"#utility.yul\":9773:9847   */\n      swap2\n      pop\n        /* \"#utility.yul\":9856:9949   */\n      tag_317\n        /* \"#utility.yul\":9945:9948   */\n      dup3\n        /* \"#utility.yul\":9856:9949   */\n      tag_188\n      jump\t// in\n    tag_317:\n        /* \"#utility.yul\":9974:9976   */\n      0x20\n        /* \"#utility.yul\":9969:9972   */\n      dup3\n        /* \"#utility.yul\":9965:9977   */\n      add\n        /* \"#utility.yul\":9958:9977   */\n      swap1\n      pop\n        /* \"#utility.yul\":9617:9983   */\n      swap2\n      swap1\n      pop\n      jump\t// out\n        /* \"#utility.yul\":9989:10408   */\n    tag_94:\n        /* \"#utility.yul\":10155:10159   */\n      0x00\n        /* \"#utility.yul\":10193:10195   */\n      0x20\n        /* \"#utility.yul\":10182:10191   */\n      dup3\n        /* \"#utility.yul\":10178:10196   */\n      add\n        /* \"#utility.yul\":10170:10196   */\n      swap1\n      pop\n        /* \"#utility.yul\":10242:10251   */\n      dup2\n        /* \"#utility.yul\":10236:10240   */\n      dup2\n        /* \"#utility.yul\":10232:10252   */\n      sub\n        /* \"#utility.yul\":10228:10229   */\n      0x00\n        /* \"#utility.yul\":10217:10226   */\n      dup4\n        /* \"#utility.yul\":10213:10230   */\n      add\n        /* \"#utility.yul\":10206:10253   */\n      mstore\n        /* \"#utility.yul\":10270:10401   */\n      tag_319\n        /* \"#utility.yul\":10396:10400   */\n      dup2\n        /* \"#utility.yul\":10270:10401   */\n      tag_189\n      jump\t// in\n    tag_319:\n        /* \"#utility.yul\":10262:10401   */\n      swap1\n      pop\n        /* \"#utility.yul\":9989:10408   */\n      swap2\n      swap1\n      pop\n      jump\t// out\n        /* \"#utility.yul\":10414:10591   */\n    tag_190:\n        /* \"#utility.yul\":10554:10583   */\n      0x6f6e6c792035207472616e73616374696f6e7320706572206461790000000000\n        /* \"#utility.yul\":10550:10551   */\n      0x00\n        /* \"#utility.yul\":10542:10548   */\n      dup3\n        /* \"#utility.yul\":10538:10552   */\n      add\n        /* \"#utility.yul\":10531:10584   */\n      mstore\n        /* \"#utility.yul\":10414:10591   */\n      pop\n      jump\t// out\n        /* \"#utility.yul\":10597:10963   */\n    tag_191:\n        /* \"#utility.yul\":10739:10742   */\n      0x00\n        /* \"#utility.yul\":10760:10827   */\n      tag_322\n        /* \"#utility.yul\":10824:10826   */\n      0x1b\n        /* \"#utility.yul\":10819:10822   */\n      dup4\n        /* \"#utility.yul\":10760:10827   */\n      tag_180\n      jump\t// in\n    tag_322:\n        /* \"#utility.yul\":10753:10827   */\n      swap2\n      pop\n        /* \"#utility.yul\":10836:10929   */\n      tag_323\n        /* \"#utility.yul\":10925:10928   */\n      dup3\n        /* \"#utility.yul\":10836:10929   */\n      tag_190\n      jump\t// in\n    tag_323:\n        /* \"#utility.yul\":10954:10956   */\n      0x20\n        /* \"#utility.yul\":10949:10952   */\n      dup3\n        /* \"#utility.yul\":10945:10957   */\n      add\n        /* \"#utility.yul\":10938:10957   */\n      swap1\n      pop\n        /* \"#utility.yul\":10597:10963   */\n      swap2\n      swap1\n      pop\n      jump\t// out\n        /* \"#utility.yul\":10969:11388   */\n    tag_106:\n        /* \"#utility.yul\":11135:11139   */\n      0x00\n        /* \"#utility.yul\":11173:11175   */\n      0x20\n        /* \"#utility.yul\":11162:11171   */\n      dup3\n        /* \"#utility.yul\":11158:11176   */\n      add\n        /* \"#utility.yul\":11150:11176   */\n      swap1\n      pop\n        /* \"#utility.yul\":11222:11231   */\n      dup2\n        /* \"#utility.yul\":11216:11220   */\n      dup2\n        /* \"#utility.yul\":11212:11232   */\n      sub\n        /* \"#utility.yul\":11208:11209   */\n      0x00\n        /* \"#utility.yul\":11197:11206   */\n      dup4\n        /* \"#utility.yul\":11193:11210   */\n      add\n        /* \"#utility.yul\":11186:11233   */\n      mstore\n        /* \"#utility.yul\":11250:11381   */\n      tag_325\n        /* \"#utility.yul\":11376:11380   */\n      dup2\n        /* \"#utility.yul\":11250:11381   */\n      tag_191\n      jump\t// in\n    tag_325:\n        /* \"#utility.yul\":11242:11381   */\n      swap1\n      pop\n        /* \"#utility.yul\":10969:11388   */\n      swap2\n      swap1\n      pop\n      jump\t// out\n        /* \"#utility.yul\":11394:11572   */\n    tag_192:\n        /* \"#utility.yul\":11534:11564   */\n      0x596f75207265616368656420746865206c696d69742053656e64282900000000\n        /* \"#utility.yul\":11530:11531   */\n      0x00\n        /* \"#utility.yul\":11522:11528   */\n      dup3\n        /* \"#utility.yul\":11518:11532   */\n      add\n        /* \"#utility.yul\":11511:11565   */\n      mstore\n        /* \"#utility.yul\":11394:11572   */\n      pop\n      jump\t// out\n        /* \"#utility.yul\":11578:11944   */\n    tag_193:\n        /* \"#utility.yul\":11720:11723   */\n      0x00\n        /* \"#utility.yul\":11741:11808   */\n      tag_328\n        /* \"#utility.yul\":11805:11807   */\n      0x1c\n        /* \"#utility.yul\":11800:11803   */\n      dup4\n        /* \"#utility.yul\":11741:11808   */\n      tag_180\n      jump\t// in\n    tag_328:\n        /* \"#utility.yul\":11734:11808   */\n      swap2\n      pop\n        /* \"#utility.yul\":11817:11910   */\n      tag_329\n        /* \"#utility.yul\":11906:11909   */\n      dup3\n        /* \"#utility.yul\":11817:11910   */\n      tag_192\n      jump\t// in\n    tag_329:\n        /* \"#utility.yul\":11935:11937   */\n      0x20\n        /* \"#utility.yul\":11930:11933   */\n      dup3\n        /* \"#utility.yul\":11926:11938   */\n      add\n        /* \"#utility.yul\":11919:11938   */\n      swap1\n      pop\n        /* \"#utility.yul\":11578:11944   */\n      swap2\n      swap1\n      pop\n      jump\t// out\n        /* \"#utility.yul\":11950:12369   */\n    tag_115:\n        /* \"#utility.yul\":12116:12120   */\n      0x00\n        /* \"#utility.yul\":12154:12156   */\n      0x20\n        /* \"#utility.yul\":12143:12152   */\n      dup3\n        /* \"#utility.yul\":12139:12157   */\n      add\n        /* \"#utility.yul\":12131:12157   */\n      swap1\n      pop\n        /* \"#utility.yul\":12203:12212   */\n      dup2\n        /* \"#utility.yul\":12197:12201   */\n      dup2\n        /* \"#utility.yul\":12193:12213   */\n      sub\n        /* \"#utility.yul\":12189:12190   */\n      0x00\n        /* \"#utility.yul\":12178:12187   */\n      dup4\n        /* \"#utility.yul\":12174:12191   */\n      add\n        /* \"#utility.yul\":12167:12214   */\n      mstore\n        /* \"#utility.yul\":12231:12362   */\n      tag_331\n        /* \"#utility.yul\":12357:12361   */\n      dup2\n        /* \"#utility.yul\":12231:12362   */\n      tag_193\n      jump\t// in\n    tag_331:\n        /* \"#utility.yul\":12223:12362   */\n      swap1\n      pop\n        /* \"#utility.yul\":11950:12369   */\n      swap2\n      swap1\n      pop\n      jump\t// out\n        /* \"#utility.yul\":12375:12566   */\n    tag_120:\n        /* \"#utility.yul\":12415:12419   */\n      0x00\n        /* \"#utility.yul\":12435:12455   */\n      tag_333\n        /* \"#utility.yul\":12453:12454   */\n      dup3\n        /* \"#utility.yul\":12435:12455   */\n      tag_159\n      jump\t// in\n    tag_333:\n        /* \"#utility.yul\":12430:12455   */\n      swap2\n      pop\n        /* \"#utility.yul\":12469:12489   */\n      tag_334\n        /* \"#utility.yul\":12487:12488   */\n      dup4\n        /* \"#utility.yul\":12469:12489   */\n      tag_159\n      jump\t// in\n    tag_334:\n        /* \"#utility.yul\":12464:12489   */\n      swap3\n      pop\n        /* \"#utility.yul\":12508:12509   */\n      dup3\n        /* \"#utility.yul\":12505:12506   */\n      dup3\n        /* \"#utility.yul\":12502:12510   */\n      lt\n        /* \"#utility.yul\":12499:12533   */\n      iszero\n      tag_335\n      jumpi\n        /* \"#utility.yul\":12513:12531   */\n      tag_336\n      tag_187\n      jump\t// in\n    tag_336:\n        /* \"#utility.yul\":12499:12533   */\n    tag_335:\n        /* \"#utility.yul\":12558:12559   */\n      dup3\n        /* \"#utility.yul\":12555:12556   */\n      dup3\n        /* \"#utility.yul\":12551:12560   */\n      sub\n        /* \"#utility.yul\":12543:12560   */\n      swap1\n      pop\n        /* \"#utility.yul\":12375:12566   */\n      swap3\n      swap2\n      pop\n      pop\n      jump\t// out\n        /* \"#utility.yul\":12572:12752   */\n    tag_194:\n        /* \"#utility.yul\":12620:12697   */\n      0x4e487b7100000000000000000000000000000000000000000000000000000000\n        /* \"#utility.yul\":12617:12618   */\n      0x00\n        /* \"#utility.yul\":12610:12698   */\n      mstore\n        /* \"#utility.yul\":12717:12721   */\n      0x22\n        /* \"#utility.yul\":12714:12715   */\n      0x04\n        /* \"#utility.yul\":12707:12722   */\n      mstore\n        /* \"#utility.yul\":12741:12745   */\n      0x24\n        /* \"#utility.yul\":12738:12739   */\n      0x00\n        /* \"#utility.yul\":12731:12746   */\n      revert\n        /* \"#utility.yul\":12758:13078   */\n    tag_133:\n        /* \"#utility.yul\":12802:12808   */\n      0x00\n        /* \"#utility.yul\":12839:12840   */\n      0x02\n        /* \"#utility.yul\":12833:12837   */\n      dup3\n        /* \"#utility.yul\":12829:12841   */\n      div\n        /* \"#utility.yul\":12819:12841   */\n      swap1\n      pop\n        /* \"#utility.yul\":12886:12887   */\n      0x01\n        /* \"#utility.yul\":12880:12884   */\n      dup3\n        /* \"#utility.yul\":12876:12888   */\n      and\n        /* \"#utility.yul\":12907:12925   */\n      dup1\n        /* \"#utility.yul\":12897:12978   */\n      tag_339\n      jumpi\n        /* \"#utility.yul\":12963:12967   */\n      0x7f\n        /* \"#utility.yul\":12955:12961   */\n      dup3\n        /* \"#utility.yul\":12951:12968   */\n      and\n        /* \"#utility.yul\":12941:12968   */\n      swap2\n      pop\n        /* \"#utility.yul\":12897:12978   */\n    tag_339:\n        /* \"#utility.yul\":13025:13027   */\n      0x20\n        /* \"#utility.yul\":13017:13023   */\n      dup3\n        /* \"#utility.yul\":13014:13028   */\n      lt\n        /* \"#utility.yul\":12994:13012   */\n      dup2\n        /* \"#utility.yul\":12991:13029   */\n      sub\n        /* \"#utility.yul\":12988:13072   */\n      tag_340\n      jumpi\n        /* \"#utility.yul\":13044:13062   */\n      tag_341\n      tag_194\n      jump\t// in\n    tag_341:\n        /* \"#utility.yul\":12988:13072   */\n    tag_340:\n        /* \"#utility.yul\":12809:13078   */\n      pop\n        /* \"#utility.yul\":12758:13078   */\n      swap2\n      swap1\n      pop\n      jump\t// out\n        /* \"#utility.yul\":13084:13225   */\n    tag_195:\n        /* \"#utility.yul\":13133:13137   */\n      0x00\n        /* \"#utility.yul\":13156:13159   */\n      dup2\n        /* \"#utility.yul\":13148:13159   */\n      swap1\n      pop\n        /* \"#utility.yul\":13179:13182   */\n      dup2\n        /* \"#utility.yul\":13176:13177   */\n      0x00\n        /* \"#utility.yul\":13169:13183   */\n      mstore\n        /* \"#utility.yul\":13213:13217   */\n      0x20\n        /* \"#utility.yul\":13210:13211   */\n      0x00\n        /* \"#utility.yul\":13200:13218   */\n      keccak256\n        /* \"#utility.yul\":13192:13218   */\n      swap1\n      pop\n        /* \"#utility.yul\":13084:13225   */\n      swap2\n      swap1\n      pop\n      jump\t// out\n        /* \"#utility.yul\":13231:13324   */\n    tag_196:\n        /* \"#utility.yul\":13268:13274   */\n      0x00\n        /* \"#utility.yul\":13315:13317   */\n      0x20\n        /* \"#utility.yul\":13310:13312   */\n      0x1f\n        /* \"#utility.yul\":13303:13308   */\n      dup4\n        /* \"#utility.yul\":13299:13313   */\n      add\n        /* \"#utility.yul\":13295:13318   */\n      div\n        /* \"#utility.yul\":13285:13318   */\n      swap1\n      pop\n        /* \"#utility.yul\":13231:13324   */\n      swap2\n      swap1\n      pop\n      jump\t// out\n        /* \"#utility.yul\":13330:13437   */\n    tag_197:\n        /* \"#utility.yul\":13374:13382   */\n      0x00\n        /* \"#utility.yul\":13424:13429   */\n      dup3\n        /* \"#utility.yul\":13418:13422   */\n      dup3\n        /* \"#utility.yul\":13414:13430   */\n      shl\n        /* \"#utility.yul\":13393:13430   */\n      swap1\n      pop\n        /* \"#utility.yul\":13330:13437   */\n      swap3\n      swap2\n      pop\n      pop\n      jump\t// out\n        /* \"#utility.yul\":13443:13836   */\n    tag_198:\n        /* \"#utility.yul\":13512:13518   */\n      0x00\n        /* \"#utility.yul\":13562:13563   */\n      0x08\n        /* \"#utility.yul\":13550:13560   */\n      dup4\n        /* \"#utility.yul\":13546:13564   */\n      mul\n        /* \"#utility.yul\":13585:13682   */\n      tag_346\n        /* \"#utility.yul\":13615:13681   */\n      0xffffffffffffffffffffffffffffffffffffffffffffffffffffffffffffffff\n        /* \"#utility.yul\":13604:13613   */\n      dup3\n        /* \"#utility.yul\":13585:13682   */\n      tag_197\n      jump\t// in\n    tag_346:\n        /* \"#utility.yul\":13703:13742   */\n      tag_347\n        /* \"#utility.yul\":13733:13741   */\n      dup7\n        /* \"#utility.yul\":13722:13731   */\n      dup4\n        /* \"#utility.yul\":13703:13742   */\n      tag_197\n      jump\t// in\n    tag_347:\n        /* \"#utility.yul\":13691:13742   */\n      swap6\n      pop\n        /* \"#utility.yul\":13775:13779   */\n      dup1\n        /* \"#utility.yul\":13771:13780   */\n      not\n        /* \"#utility.yul\":13764:13769   */\n      dup5\n        /* \"#utility.yul\":13760:13781   */\n      and\n        /* \"#utility.yul\":13751:13781   */\n      swap4\n      pop\n        /* \"#utility.yul\":13824:13828   */\n      dup1\n        /* \"#utility.yul\":13814:13822   */\n      dup7\n        /* \"#utility.yul\":13810:13829   */\n      and\n        /* \"#utility.yul\":13803:13808   */\n      dup5\n        /* \"#utility.yul\":13800:13830   */\n      or\n        /* \"#utility.yul\":13790:13830   */\n      swap3\n      pop\n        /* \"#utility.yul\":13519:13836   */\n      pop\n      pop\n        /* \"#utility.yul\":13443:13836   */\n      swap4\n      swap3\n      pop\n      pop\n      pop\n      jump\t// out\n        /* \"#utility.yul\":13842:13902   */\n    tag_199:\n        /* \"#utility.yul\":13870:13873   */\n      0x00\n        /* \"#utility.yul\":13891:13896   */\n      dup2\n        /* \"#utility.yul\":13884:13896   */\n      swap1\n      pop\n        /* \"#utility.yul\":13842:13902   */\n      swap2\n      swap1\n      pop\n      jump\t// out\n        /* \"#utility.yul\":13908:14050   */\n    tag_200:\n        /* \"#utility.yul\":13958:13967   */\n      0x00\n        /* \"#utility.yul\":13991:14044   */\n      tag_350\n        /* \"#utility.yul\":14009:14043   */\n      tag_351\n        /* \"#utility.yul\":14018:14042   */\n      tag_352\n        /* \"#utility.yul\":14036:14041   */\n      dup5\n        /* \"#utility.yul\":14018:14042   */\n      tag_159\n      jump\t// in\n    tag_352:\n        /* \"#utility.yul\":14009:14043   */\n      tag_199\n      jump\t// in\n    tag_351:\n        /* \"#utility.yul\":13991:14044   */\n      tag_159\n      jump\t// in\n    tag_350:\n        /* \"#utility.yul\":13978:14044   */\n      swap1\n      pop\n        /* \"#utility.yul\":13908:14050   */\n      swap2\n      swap1\n      pop\n      jump\t// out\n        /* \"#utility.yul\":14056:14131   */\n    tag_201:\n        /* \"#utility.yul\":14099:14102   */\n      0x00\n        /* \"#utility.yul\":14120:14125   */\n      dup2\n        /* \"#utility.yul\":14113:14125   */\n      swap1\n      pop\n        /* \"#utility.yul\":14056:14131   */\n      swap2\n      swap1\n      pop\n      jump\t// out\n        /* \"#utility.yul\":14137:14406   */\n    tag_202:\n        /* \"#utility.yul\":14247:14286   */\n      tag_355\n        /* \"#utility.yul\":14278:14285   */\n      dup4\n        /* \"#utility.yul\":14247:14286   */\n      tag_200\n      jump\t// in\n    tag_355:\n        /* \"#utility.yul\":14308:14399   */\n      tag_356\n        /* \"#utility.yul\":14357:14398   */\n      tag_357\n        /* \"#utility.yul\":14381:14397   */\n      dup3\n        /* \"#utility.yul\":14357:14398   */\n      tag_201\n      jump\t// in\n    tag_357:\n        /* \"#utility.yul\":14349:14355   */\n      dup5\n        /* \"#utility.yul\":14342:14346   */\n      dup5\n        /* \"#utility.yul\":14336:14347   */\n      sload\n        /* \"#utility.yul\":14308:14399   */\n      tag_198\n      jump\t// in\n    tag_356:\n        /* \"#utility.yul\":14302:14306   */\n      dup3\n        /* \"#utility.yul\":14295:14400   */\n      sstore\n        /* \"#utility.yul\":14213:14406   */\n      pop\n        /* \"#utility.yul\":14137:14406   */\n      pop\n      pop\n      pop\n      jump\t// out\n        /* \"#utility.yul\":14412:14485   */\n    tag_203:\n        /* \"#utility.yul\":14457:14460   */\n      0x00\n        /* \"#utility.yul\":14412:14485   */\n      swap1\n      jump\t// out\n        /* \"#utility.yul\":14491:14680   */\n    tag_204:\n        /* \"#utility.yul\":14568:14600   */\n      tag_360\n      tag_203\n      jump\t// in\n    tag_360:\n        /* \"#utility.yul\":14609:14674   */\n      tag_361\n        /* \"#utility.yul\":14667:14673   */\n      dup2\n        /* \"#utility.yul\":14659:14665   */\n      dup5\n        /* \"#utility.yul\":14653:14657   */\n      dup5\n        /* \"#utility.yul\":14609:14674   */\n      tag_202\n      jump\t// in\n    tag_361:\n        /* \"#utility.yul\":14544:14680   */\n      pop\n        /* \"#utility.yul\":14491:14680   */\n      pop\n      pop\n      jump\t// out\n        /* \"#utility.yul\":14686:14872   */\n    tag_205:\n        /* \"#utility.yul\":14746:14866   */\n    tag_363:\n        /* \"#utility.yul\":14763:14766   */\n      dup2\n        /* \"#utility.yul\":14756:14761   */\n      dup2\n        /* \"#utility.yul\":14753:14767   */\n      lt\n        /* \"#utility.yul\":14746:14866   */\n      iszero\n      tag_365\n      jumpi\n        /* \"#utility.yul\":14817:14856   */\n      tag_366\n        /* \"#utility.yul\":14854:14855   */\n      0x00\n        /* \"#utility.yul\":14847:14852   */\n      dup3\n        /* \"#utility.yul\":14817:14856   */\n      tag_204\n      jump\t// in\n    tag_366:\n        /* \"#utility.yul\":14790:14791   */\n      0x01\n        /* \"#utility.yul\":14783:14788   */\n      dup2\n        /* \"#utility.yul\":14779:14792   */\n      add\n        /* \"#utility.yul\":14770:14792   */\n      swap1\n      pop\n        /* \"#utility.yul\":14746:14866   */\n      jump(tag_363)\n    tag_365:\n        /* \"#utility.yul\":14686:14872   */\n      pop\n      pop\n      jump\t// out\n        /* \"#utility.yul\":14878:15421   */\n    tag_206:\n        /* \"#utility.yul\":14979:14981   */\n      0x1f\n        /* \"#utility.yul\":14974:14977   */\n      dup3\n        /* \"#utility.yul\":14971:14982   */\n      gt\n        /* \"#utility.yul\":14968:15414   */\n      iszero\n      tag_368\n      jumpi\n        /* \"#utility.yul\":15013:15051   */\n      tag_369\n        /* \"#utility.yul\":15045:15050   */\n      dup2\n        /* \"#utility.yul\":15013:15051   */\n      tag_195\n      jump\t// in\n    tag_369:\n        /* \"#utility.yul\":15097:15126   */\n      tag_370\n        /* \"#utility.yul\":15115:15125   */\n      dup5\n        /* \"#utility.yul\":15097:15126   */\n      tag_196\n      jump\t// in\n    tag_370:\n        /* \"#utility.yul\":15087:15095   */\n      dup2\n        /* \"#utility.yul\":15083:15127   */\n      add\n        /* \"#utility.yul\":15280:15282   */\n      0x20\n        /* \"#utility.yul\":15268:15278   */\n      dup6\n        /* \"#utility.yul\":15265:15283   */\n      lt\n        /* \"#utility.yul\":15262:15311   */\n      iszero\n      tag_371\n      jumpi\n        /* \"#utility.yul\":15301:15309   */\n      dup2\n        /* \"#utility.yul\":15286:15309   */\n      swap1\n      pop\n        /* \"#utility.yul\":15262:15311   */\n    tag_371:\n        /* \"#utility.yul\":15324:15404   */\n      tag_372\n        /* \"#utility.yul\":15380:15402   */\n      tag_373\n        /* \"#utility.yul\":15398:15401   */\n      dup6\n        /* \"#utility.yul\":15380:15402   */\n      tag_196\n      jump\t// in\n    tag_373:\n        /* \"#utility.yul\":15370:15378   */\n      dup4\n        /* \"#utility.yul\":15366:15403   */\n      add\n        /* \"#utility.yul\":15353:15364   */\n      dup3\n        /* \"#utility.yul\":15324:15404   */\n      tag_205\n      jump\t// in\n    tag_372:\n        /* \"#utility.yul\":14983:15414   */\n      pop\n      pop\n        /* \"#utility.yul\":14968:15414   */\n    tag_368:\n        /* \"#utility.yul\":14878:15421   */\n      pop\n      pop\n      pop\n      jump\t// out\n        /* \"#utility.yul\":15427:15544   */\n    tag_207:\n        /* \"#utility.yul\":15481:15489   */\n      0x00\n        /* \"#utility.yul\":15531:15536   */\n      dup3\n        /* \"#utility.yul\":15525:15529   */\n      dup3\n        /* \"#utility.yul\":15521:15537   */\n      shr\n        /* \"#utility.yul\":15500:15537   */\n      swap1\n      pop\n        /* \"#utility.yul\":15427:15544   */\n      swap3\n      swap2\n      pop\n      pop\n      jump\t// out\n        /* \"#utility.yul\":15550:15719   */\n    tag_208:\n        /* \"#utility.yul\":15594:15600   */\n      0x00\n        /* \"#utility.yul\":15627:15678   */\n      tag_376\n        /* \"#utility.yul\":15675:15676   */\n      0x00\n        /* \"#utility.yul\":15671:15677   */\n      not\n        /* \"#utility.yul\":15663:15668   */\n      dup5\n        /* \"#utility.yul\":15660:15661   */\n      0x08\n        /* \"#utility.yul\":15656:15669   */\n      mul\n        /* \"#utility.yul\":15627:15678   */\n      tag_207\n      jump\t// in\n    tag_376:\n        /* \"#utility.yul\":15623:15679   */\n      not\n        /* \"#utility.yul\":15708:15712   */\n      dup1\n        /* \"#utility.yul\":15702:15706   */\n      dup4\n        /* \"#utility.yul\":15698:15713   */\n      and\n        /* \"#utility.yul\":15688:15713   */\n      swap2\n      pop\n        /* \"#utility.yul\":15601:15719   */\n      pop\n        /* \"#utility.yul\":15550:15719   */\n      swap3\n      swap2\n      pop\n      pop\n      jump\t// out\n        /* \"#utility.yul\":15724:16019   */\n    tag_209:\n        /* \"#utility.yul\":15800:15804   */\n      0x00\n        /* \"#utility.yul\":15946:15975   */\n      tag_378\n        /* \"#utility.yul\":15971:15974   */\n      dup4\n        /* \"#utility.yul\":15965:15969   */\n      dup4\n        /* \"#utility.yul\":15946:15975   */\n      tag_208\n      jump\t// in\n    tag_378:\n        /* \"#utility.yul\":15938:15975   */\n      swap2\n      pop\n        /* \"#utility.yul\":16008:16011   */\n      dup3\n        /* \"#utility.yul\":16005:16006   */\n      0x02\n        /* \"#utility.yul\":16001:16012   */\n      mul\n        /* \"#utility.yul\":15995:15999   */\n      dup3\n        /* \"#utility.yul\":15992:16013   */\n      or\n        /* \"#utility.yul\":15984:16013   */\n      swap1\n      pop\n        /* \"#utility.yul\":15724:16019   */\n      swap3\n      swap2\n      pop\n      pop\n      jump\t// out\n        /* \"#utility.yul\":16024:17419   */\n    tag_123:\n        /* \"#utility.yul\":16141:16178   */\n      tag_380\n        /* \"#utility.yul\":16174:16177   */\n      dup3\n        /* \"#utility.yul\":16141:16178   */\n      tag_179\n      jump\t// in\n    tag_380:\n        /* \"#utility.yul\":16243:16261   */\n      0xffffffffffffffff\n        /* \"#utility.yul\":16235:16241   */\n      dup2\n        /* \"#utility.yul\":16232:16262   */\n      gt\n        /* \"#utility.yul\":16229:16285   */\n      iszero\n      tag_381\n      jumpi\n        /* \"#utility.yul\":16265:16283   */\n      tag_382\n      tag_170\n      jump\t// in\n    tag_382:\n        /* \"#utility.yul\":16229:16285   */\n    tag_381:\n        /* \"#utility.yul\":16309:16347   */\n      tag_383\n        /* \"#utility.yul\":16341:16345   */\n      dup3\n        /* \"#utility.yul\":16335:16346   */\n      sload\n        /* \"#utility.yul\":16309:16347   */\n      tag_133\n      jump\t// in\n    tag_383:\n        /* \"#utility.yul\":16394:16461   */\n      tag_384\n        /* \"#utility.yul\":16454:16460   */\n      dup3\n        /* \"#utility.yul\":16446:16452   */\n      dup3\n        /* \"#utility.yul\":16440:16444   */\n      dup6\n        /* \"#utility.yul\":16394:16461   */\n      tag_206\n      jump\t// in\n    tag_384:\n        /* \"#utility.yul\":16488:16489   */\n      0x00\n        /* \"#utility.yul\":16512:16516   */\n      0x20\n        /* \"#utility.yul\":16499:16516   */\n      swap1\n      pop\n        /* \"#utility.yul\":16544:16546   */\n      0x1f\n        /* \"#utility.yul\":16536:16542   */\n      dup4\n        /* \"#utility.yul\":16533:16547   */\n      gt\n        /* \"#utility.yul\":16561:16562   */\n      0x01\n        /* \"#utility.yul\":16556:17174   */\n      dup2\n      eq\n      tag_386\n      jumpi\n        /* \"#utility.yul\":17218:17219   */\n      0x00\n        /* \"#utility.yul\":17235:17241   */\n      dup5\n        /* \"#utility.yul\":17232:17309   */\n      iszero\n      tag_387\n      jumpi\n        /* \"#utility.yul\":17284:17293   */\n      dup3\n        /* \"#utility.yul\":17279:17282   */\n      dup8\n        /* \"#utility.yul\":17275:17294   */\n      add\n        /* \"#utility.yul\":17269:17295   */\n      mload\n        /* \"#utility.yul\":17260:17295   */\n      swap1\n      pop\n        /* \"#utility.yul\":17232:17309   */\n    tag_387:\n        /* \"#utility.yul\":17335:17402   */\n      tag_388\n        /* \"#utility.yul\":17395:17401   */\n      dup6\n        /* \"#utility.yul\":17388:17393   */\n      dup3\n        /* \"#utility.yul\":17335:17402   */\n      tag_209\n      jump\t// in\n    tag_388:\n        /* \"#utility.yul\":17329:17333   */\n      dup7\n        /* \"#utility.yul\":17322:17403   */\n      sstore\n        /* \"#utility.yul\":17191:17413   */\n      pop\n        /* \"#utility.yul\":16526:17413   */\n      jump(tag_385)\n        /* \"#utility.yul\":16556:17174   */\n    tag_386:\n        /* \"#utility.yul\":16608:16612   */\n      0x1f\n        /* \"#utility.yul\":16604:16613   */\n      not\n        /* \"#utility.yul\":16596:16602   */\n      dup5\n        /* \"#utility.yul\":16592:16614   */\n      and\n        /* \"#utility.yul\":16642:16679   */\n      tag_389\n        /* \"#utility.yul\":16674:16678   */\n      dup7\n        /* \"#utility.yul\":16642:16679   */\n      tag_195\n      jump\t// in\n    tag_389:\n        /* \"#utility.yul\":16701:16702   */\n      0x00\n        /* \"#utility.yul\":16715:16923   */\n    tag_390:\n        /* \"#utility.yul\":16729:16736   */\n      dup3\n        /* \"#utility.yul\":16726:16727   */\n      dup2\n        /* \"#utility.yul\":16723:16737   */\n      lt\n        /* \"#utility.yul\":16715:16923   */\n      iszero\n      tag_392\n      jumpi\n        /* \"#utility.yul\":16808:16817   */\n      dup5\n        /* \"#utility.yul\":16803:16806   */\n      dup10\n        /* \"#utility.yul\":16799:16818   */\n      add\n        /* \"#utility.yul\":16793:16819   */\n      mload\n        /* \"#utility.yul\":16785:16791   */\n      dup3\n        /* \"#utility.yul\":16778:16820   */\n      sstore\n        /* \"#utility.yul\":16859:16860   */\n      0x01\n        /* \"#utility.yul\":16851:16857   */\n      dup3\n        /* \"#utility.yul\":16847:16861   */\n      add\n        /* \"#utility.yul\":16837:16861   */\n      swap2\n      pop\n        /* \"#utility.yul\":16906:16908   */\n      0x20\n        /* \"#utility.yul\":16895:16904   */\n      dup6\n        /* \"#utility.yul\":16891:16909   */\n      add\n        /* \"#utility.yul\":16878:16909   */\n      swap5\n      pop\n        /* \"#utility.yul\":16752:16756   */\n      0x20\n        /* \"#utility.yul\":16749:16750   */\n      dup2\n        /* \"#utility.yul\":16745:16757   */\n      add\n        /* \"#utility.yul\":16740:16757   */\n      swap1\n      pop\n        /* \"#utility.yul\":16715:16923   */\n      jump(tag_390)\n    tag_392:\n        /* \"#utility.yul\":16951:16957   */\n      dup7\n        /* \"#utility.yul\":16942:16949   */\n      dup4\n        /* \"#utility.yul\":16939:16958   */\n      lt\n        /* \"#utility.yul\":16936:17115   */\n      iszero\n      tag_393\n      jumpi\n        /* \"#utility.yul\":17009:17018   */\n      dup5\n        /* \"#utility.yul\":17004:17007   */\n      dup10\n        /* \"#utility.yul\":17000:17019   */\n      add\n        /* \"#utility.yul\":16994:17020   */\n      mload\n        /* \"#utility.yul\":17052:17100   */\n      tag_394\n        /* \"#utility.yul\":17094:17098   */\n      0x1f\n        /* \"#utility.yul\":17086:17092   */\n      dup10\n        /* \"#utility.yul\":17082:17099   */\n      and\n        /* \"#utility.yul\":17071:17080   */\n      dup3\n        /* \"#utility.yul\":17052:17100   */\n      tag_208\n      jump\t// in\n    tag_394:\n        /* \"#utility.yul\":17044:17050   */\n      dup4\n        /* \"#utility.yul\":17037:17101   */\n      sstore\n        /* \"#utility.yul\":16959:17115   */\n      pop\n        /* \"#utility.yul\":16936:17115   */\n    tag_393:\n        /* \"#utility.yul\":17161:17162   */\n      0x01\n        /* \"#utility.yul\":17157:17158   */\n      0x02\n        /* \"#utility.yul\":17149:17155   */\n      dup9\n        /* \"#utility.yul\":17145:17159   */\n      mul\n        /* \"#utility.yul\":17141:17163   */\n      add\n        /* \"#utility.yul\":17135:17139   */\n      dup9\n        /* \"#utility.yul\":17128:17164   */\n      sstore\n        /* \"#utility.yul\":16563:17174   */\n      pop\n      pop\n      pop\n        /* \"#utility.yul\":16526:17413   */\n    tag_385:\n      pop\n        /* \"#utility.yul\":16116:17419   */\n      pop\n      pop\n      pop\n        /* \"#utility.yul\":16024:17419   */\n      pop\n      pop\n      jump\t// out\n        /* \"#utility.yul\":17425:17591   */\n    tag_210:\n        /* \"#utility.yul\":17565:17583   */\n      0x4e6f7420656e6f7567682066756e647300000000000000000000000000000000\n        /* \"#utility.yul\":17561:17562   */\n      0x00\n        /* \"#utility.yul\":17553:17559   */\n      dup3\n        /* \"#utility.yul\":17549:17563   */\n      add\n        /* \"#utility.yul\":17542:17584   */\n      mstore\n        /* \"#utility.yul\":17425:17591   */\n      pop\n      jump\t// out\n        /* \"#utility.yul\":17597:17963   */\n    tag_211:\n        /* \"#utility.yul\":17739:17742   */\n      0x00\n        /* \"#utility.yul\":17760:17827   */\n      tag_397\n        /* \"#utility.yul\":17824:17826   */\n      0x10\n        /* \"#utility.yul\":17819:17822   */\n      dup4\n        /* \"#utility.yul\":17760:17827   */\n      tag_180\n      jump\t// in\n    tag_397:\n        /* \"#utility.yul\":17753:17827   */\n      swap2\n      pop\n        /* \"#utility.yul\":17836:17929   */\n      tag_398\n        /* \"#utility.yul\":17925:17928   */\n      dup3\n        /* \"#utility.yul\":17836:17929   */\n      tag_210\n      jump\t// in\n    tag_398:\n        /* \"#utility.yul\":17954:17956   */\n      0x20\n        /* \"#utility.yul\":17949:17952   */\n      dup3\n        /* \"#utility.yul\":17945:17957   */\n      add\n        /* \"#utility.yul\":17938:17957   */\n      swap1\n      pop\n        /* \"#utility.yul\":17597:17963   */\n      swap2\n      swap1\n      pop\n      jump\t// out\n        /* \"#utility.yul\":17969:18388   */\n    tag_126:\n        /* \"#utility.yul\":18135:18139   */\n      0x00\n        /* \"#utility.yul\":18173:18175   */\n      0x20\n        /* \"#utility.yul\":18162:18171   */\n      dup3\n        /* \"#utility.yul\":18158:18176   */\n      add\n        /* \"#utility.yul\":18150:18176   */\n      swap1\n      pop\n        /* \"#utility.yul\":18222:18231   */\n      dup2\n        /* \"#utility.yul\":18216:18220   */\n      dup2\n        /* \"#utility.yul\":18212:18232   */\n      sub\n        /* \"#utility.yul\":18208:18209   */\n      0x00\n        /* \"#utility.yul\":18197:18206   */\n      dup4\n        /* \"#utility.yul\":18193:18210   */\n      add\n        /* \"#utility.yul\":18186:18233   */\n      mstore\n        /* \"#utility.yul\":18250:18381   */\n      tag_400\n        /* \"#utility.yul\":18376:18380   */\n      dup2\n        /* \"#utility.yul\":18250:18381   */\n      tag_211\n      jump\t// in\n    tag_400:\n        /* \"#utility.yul\":18242:18381   */\n      swap1\n      pop\n        /* \"#utility.yul\":17969:18388   */\n      swap2\n      swap1\n      pop\n      jump\t// out\n        /* \"#utility.yul\":18394:18564   */\n    tag_212:\n        /* \"#utility.yul\":18534:18556   */\n      0x4e6f2076616c6964206372656469742063617264000000000000000000000000\n        /* \"#utility.yul\":18530:18531   */\n      0x00\n        /* \"#utility.yul\":18522:18528   */\n      dup3\n        /* \"#utility.yul\":18518:18532   */\n      add\n        /* \"#utility.yul\":18511:18557   */\n      mstore\n        /* \"#utility.yul\":18394:18564   */\n      pop\n      jump\t// out\n        /* \"#utility.yul\":18570:18936   */\n    tag_213:\n        /* \"#utility.yul\":18712:18715   */\n      0x00\n        /* \"#utility.yul\":18733:18800   */\n      tag_403\n        /* \"#utility.yul\":18797:18799   */\n      0x14\n        /* \"#utility.yul\":18792:18795   */\n      dup4\n        /* \"#utility.yul\":18733:18800   */\n      tag_180\n      jump\t// in\n    tag_403:\n        /* \"#utility.yul\":18726:18800   */\n      swap2\n      pop\n        /* \"#utility.yul\":18809:18902   */\n      tag_404\n        /* \"#utility.yul\":18898:18901   */\n      dup3\n        /* \"#utility.yul\":18809:18902   */\n      tag_212\n      jump\t// in\n    tag_404:\n        /* \"#utility.yul\":18927:18929   */\n      0x20\n        /* \"#utility.yul\":18922:18925   */\n      dup3\n        /* \"#utility.yul\":18918:18930   */\n      add\n        /* \"#utility.yul\":18911:18930   */\n      swap1\n      pop\n        /* \"#utility.yul\":18570:18936   */\n      swap2\n      swap1\n      pop\n      jump\t// out\n        /* \"#utility.yul\":18942:19361   */\n    tag_138:\n        /* \"#utility.yul\":19108:19112   */\n      0x00\n        /* \"#utility.yul\":19146:19148   */\n      0x20\n        /* \"#utility.yul\":19135:19144   */\n      dup3\n        /* \"#utility.yul\":19131:19149   */\n      add\n        /* \"#utility.yul\":19123:19149   */\n      swap1\n      pop\n        /* \"#utility.yul\":19195:19204   */\n      dup2\n        /* \"#utility.yul\":19189:19193   */\n      dup2\n        /* \"#utility.yul\":19185:19205   */\n      sub\n        /* \"#utility.yul\":19181:19182   */\n      0x00\n        /* \"#utility.yul\":19170:19179   */\n      dup4\n        /* \"#utility.yul\":19166:19183   */\n      add\n        /* \"#utility.yul\":19159:19206   */\n      mstore\n        /* \"#utility.yul\":19223:19354   */\n      tag_406\n        /* \"#utility.yul\":19349:19353   */\n      dup2\n        /* \"#utility.yul\":19223:19354   */\n      tag_213\n      jump\t// in\n    tag_406:\n        /* \"#utility.yul\":19215:19354   */\n      swap1\n      pop\n        /* \"#utility.yul\":18942:19361   */\n      swap2\n      swap1\n      pop\n      jump\t// out\n\n    auxdata: 0xa2646970667358221220f527d4f245a733584d21c01e8994111442a588a4d8b7a30711d4042a5d1c91f364736f6c634300080f0033\n}\n",
				"bytecode": {
					"linkReferences": {},
					"object": "6080604052620151806003556000600f556000601060006101000a81548160ff0219169083151502179055503480156200003857600080fd5b506040516200154a3803806200154a83398181016040528101906200005e9190620000ac565b8060018190555050620000de565b600080fd5b6000819050919050565b620000868162000071565b81146200009257600080fd5b50565b600081519050620000a6816200007b565b92915050565b600060208284031215620000c557620000c46200006c565b5b6000620000d58482850162000095565b91505092915050565b61145c80620000ee6000396000f3fe608060405234801561001057600080fd5b506004361061010b5760003560e01c8063557ed1ba116100a25780638fa11864116100715780638fa118641461024c57806394b5dcaa1461026a578063aa8c217c14610288578063bc309496146102a6578063e21f37ce146102c45761010b565b8063557ed1ba146101e85780637b9a3f4c146102065780637eb9f571146102245780638e029c0b146102425761010b565b806334f5ccde116100de57806334f5ccde146101705780633c626f001461018e57806342fb7936146101ac5780634b28f9a2146101ca5761010b565b8063062a7544146101105780630e85fa721461012c5780630ee6324a1461014a57806312a029a414610154575b600080fd5b61012a60048036038101906101259190610a64565b6102e2565b005b6101346106f7565b6040516101419190610ab3565b60405180910390f35b6101526106fd565b005b61016e60048036038101906101699190610c14565b6106ff565b005b6101786107b0565b6040516101859190610ab3565b60405180910390f35b6101966107b6565b6040516101a39190610ca7565b60405180910390f35b6101b46107c9565b6040516101c19190610d4a565b60405180910390f35b6101d2610857565b6040516101df9190610ab3565b60405180910390f35b6101f061085d565b6040516101fd9190610ab3565b60405180910390f35b61020e610865565b60405161021b9190610ab3565b60405180910390f35b61022c61086b565b6040516102399190610ab3565b60405180910390f35b61024a610871565b005b61025461088e565b6040516102619190610d4a565b60405180910390f35b61027261091c565b60405161027f9190610ab3565b60405180910390f35b610290610922565b60405161029d9190610ab3565b60405180910390f35b6102ae610928565b6040516102bb9190610ab3565b60405180910390f35b6102cc61092e565b6040516102d99190610d4a565b60405180910390f35b8080600260006101000a81548173ffffffffffffffffffffffffffffffffffffffff021916908373ffffffffffffffffffffffffffffffffffffffff160217905550600073ffffffffffffffffffffffffffffffffffffffff168173ffffffffffffffffffffffffffffffffffffffff1603610393576040517f08c379a000000000000000000000000000000000000000000000000000000000815260040161038a90610db8565b60405180910390fd5b60001515601060009054906101000a900460ff161515036103e9576040517f08c379a00000000000000000000000000000000000000000000000000000000081526004016103e090610e24565b60405180910390fd5b6109c4600c5411801561040a5750601e600d546104069190610e73565b4211155b15610465576000600c819055506000600c541461042a57610429610ec9565b5b6040517f08c379a000000000000000000000000000000000000000000000000000000000815260040161045c90610f44565b60405180910390fd5b6109c4600c54111580156104875750601e600d546104839190610e73565b4210155b156104af576000600c819055506000600c54146104a7576104a6610ec9565b5b42600d819055505b6005600f54101580156104d05750601e600d546104cc9190610e73565b4211155b1561052b576000600f819055506000600f54146104f0576104ef610ec9565b5b6040517f08c379a000000000000000000000000000000000000000000000000000000000815260040161052290610fb0565b60405180910390fd5b6005600f541115801561054c5750601e600d546105489190610e73565b4210155b15610574576000600f819055506000600f541461056c5761056b610ec9565b5b42600d819055505b81600260006101000a81548173ffffffffffffffffffffffffffffffffffffffff021916908373ffffffffffffffffffffffffffffffffffffffff160217905550826000819055506109c46000541115610603576040517f08c379a00000000000000000000000000000000000000000000000000000000081526004016105fa9061101c565b60405180910390fd5b6001600f60008282546106169190610e73565b9250508190555060006001541180156106325750600054600154115b156106b7576000546001600082825461064b919061103c565b92505081905550600054600c60008282546106669190610e73565b925050819055506040518060400160405280601281526020017f5472616e7366657220636f6d706c657465640000000000000000000000000000815250600990816106b1919061127c565b506106f2565b6040517f08c379a00000000000000000000000000000000000000000000000000000000081526004016106e99061139a565b60405180910390fd5b505050565b600d5481565b565b81600a908161070e919061127c565b5080600b908161071e919061127c565b506001601060006101000a81548160ff02191690831515021790555042600d819055506008600a80546107509061109f565b905014801561076d57506003600b80546107699061109f565b9050145b6107ac576040517f08c379a00000000000000000000000000000000000000000000000000000000081526004016107a390611406565b60405180910390fd5b5050565b600e5481565b601060009054906101000a900460ff1681565b600b80546107d69061109f565b80601f01602080910402602001604051908101604052809291908181526020018280546108029061109f565b801561084f5780601f106108245761010080835404028352916020019161084f565b820191906000526020600020905b81548152906001019060200180831161083257829003601f168201915b505050505081565b600f5481565b600042905090565b60015481565b600c5481565b6000601060006101000a81548160ff021916908315150217905550565b600a805461089b9061109f565b80601f01602080910402602001604051908101604052809291908181526020018280546108c79061109f565b80156109145780601f106108e957610100808354040283529160200191610914565b820191906000526020600020905b8154815290600101906020018083116108f757829003601f168201915b505050505081565b60045481565b60005481565b60085481565b6009805461093b9061109f565b80601f01602080910402602001604051908101604052809291908181526020018280546109679061109f565b80156109b45780601f10610989576101008083540402835291602001916109b4565b820191906000526020600020905b81548152906001019060200180831161099757829003601f168201915b505050505081565b6000604051905090565b600080fd5b600080fd5b6000819050919050565b6109e3816109d0565b81146109ee57600080fd5b50565b600081359050610a00816109da565b92915050565b600073ffffffffffffffffffffffffffffffffffffffff82169050919050565b6000610a3182610a06565b9050919050565b610a4181610a26565b8114610a4c57600080fd5b50565b600081359050610a5e81610a38565b92915050565b60008060408385031215610a7b57610a7a6109c6565b5b6000610a89858286016109f1565b9250506020610a9a85828601610a4f565b9150509250929050565b610aad816109d0565b82525050565b6000602082019050610ac86000830184610aa4565b92915050565b600080fd5b600080fd5b6000601f19601f8301169050919050565b7f4e487b7100000000000000000000000000000000000000000000000000000000600052604160045260246000fd5b610b2182610ad8565b810181811067ffffffffffffffff82111715610b4057610b3f610ae9565b5b80604052505050565b6000610b536109bc565b9050610b5f8282610b18565b919050565b600067ffffffffffffffff821115610b7f57610b7e610ae9565b5b610b8882610ad8565b9050602081019050919050565b82818337600083830152505050565b6000610bb7610bb284610b64565b610b49565b905082815260208101848484011115610bd357610bd2610ad3565b5b610bde848285610b95565b509392505050565b600082601f830112610bfb57610bfa610ace565b5b8135610c0b848260208601610ba4565b91505092915050565b60008060408385031215610c2b57610c2a6109c6565b5b600083013567ffffffffffffffff811115610c4957610c486109cb565b5b610c5585828601610be6565b925050602083013567ffffffffffffffff811115610c7657610c756109cb565b5b610c8285828601610be6565b9150509250929050565b60008115159050919050565b610ca181610c8c565b82525050565b6000602082019050610cbc6000830184610c98565b92915050565b600081519050919050565b600082825260208201905092915050565b60005b83811015610cfc578082015181840152602081019050610ce1565b83811115610d0b576000848401525b50505050565b6000610d1c82610cc2565b610d268185610ccd565b9350610d36818560208601610cde565b610d3f81610ad8565b840191505092915050565b60006020820190508181036000830152610d648184610d11565b905092915050565b7f2054686973206164647265737320646f65736e27742065786973747300000000600082015250565b6000610da2601c83610ccd565b9150610dad82610d6c565b602082019050919050565b60006020820190508181036000830152610dd181610d95565b9050919050565b7f506c6561736520696e7365727420796f75722063617264000000000000000000600082015250565b6000610e0e601783610ccd565b9150610e1982610dd8565b602082019050919050565b60006020820190508181036000830152610e3d81610e01565b9050919050565b7f4e487b7100000000000000000000000000000000000000000000000000000000600052601160045260246000fd5b6000610e7e826109d0565b9150610e89836109d0565b9250827fffffffffffffffffffffffffffffffffffffffffffffffffffffffffffffffff03821115610ebe57610ebd610e44565b5b828201905092915050565b7f4e487b7100000000000000000000000000000000000000000000000000000000600052600160045260246000fd5b7f596f75207265616368656420746865206c696d69742070657220646179000000600082015250565b6000610f2e601d83610ccd565b9150610f3982610ef8565b602082019050919050565b60006020820190508181036000830152610f5d81610f21565b9050919050565b7f6f6e6c792035207472616e73616374696f6e7320706572206461790000000000600082015250565b6000610f9a601b83610ccd565b9150610fa582610f64565b602082019050919050565b60006020820190508181036000830152610fc981610f8d565b9050919050565b7f596f75207265616368656420746865206c696d69742053656e64282900000000600082015250565b6000611006601c83610ccd565b915061101182610fd0565b602082019050919050565b6000602082019050818103600083015261103581610ff9565b9050919050565b6000611047826109d0565b9150611052836109d0565b92508282101561106557611064610e44565b5b828203905092915050565b7f4e487b7100000000000000000000000000000000000000000000000000000000600052602260045260246000fd5b600060028204905060018216806110b757607f821691505b6020821081036110ca576110c9611070565b5b50919050565b60008190508160005260206000209050919050565b60006020601f8301049050919050565b600082821b905092915050565b6000600883026111327fffffffffffffffffffffffffffffffffffffffffffffffffffffffffffffffff826110f5565b61113c86836110f5565b95508019841693508086168417925050509392505050565b6000819050919050565b600061117961117461116f846109d0565b611154565b6109d0565b9050919050565b6000819050919050565b6111938361115e565b6111a761119f82611180565b848454611102565b825550505050565b600090565b6111bc6111af565b6111c781848461118a565b505050565b5b818110156111eb576111e06000826111b4565b6001810190506111cd565b5050565b601f82111561123057611201816110d0565b61120a846110e5565b81016020851015611219578190505b61122d611225856110e5565b8301826111cc565b50505b505050565b600082821c905092915050565b600061125360001984600802611235565b1980831691505092915050565b600061126c8383611242565b9150826002028217905092915050565b61128582610cc2565b67ffffffffffffffff81111561129e5761129d610ae9565b5b6112a8825461109f565b6112b38282856111ef565b600060209050601f8311600181146112e657600084156112d4578287015190505b6112de8582611260565b865550611346565b601f1984166112f4866110d0565b60005b8281101561131c578489015182556001820191506020850194506020810190506112f7565b868310156113395784890151611335601f891682611242565b8355505b6001600288020188555050505b505050505050565b7f4e6f7420656e6f7567682066756e647300000000000000000000000000000000600082015250565b6000611384601083610ccd565b915061138f8261134e565b602082019050919050565b600060208201905081810360008301526113b381611377565b9050919050565b7f4e6f2076616c6964206372656469742063617264000000000000000000000000600082015250565b60006113f0601483610ccd565b91506113fb826113ba565b602082019050919050565b6000602082019050818103600083015261141f816113e3565b905091905056fea2646970667358221220f527d4f245a733584d21c01e8994111442a588a4d8b7a30711d4042a5d1c91f364736f6c634300080f0033",
					"opcodes": "PUSH1 0x80 PUSH1 0x40 MSTORE PUSH3 0x15180 PUSH1 0x3 SSTORE PUSH1 0x0 PUSH1 0xF SSTORE PUSH1 0x0 PUSH1 0x10 PUSH1 0x0 PUSH2 0x100 EXP DUP2 SLOAD DUP2 PUSH1 0xFF MUL NOT AND SWAP1 DUP4 ISZERO ISZERO MUL OR SWAP1 SSTORE POP CALLVALUE DUP1 ISZERO PUSH3 0x38 JUMPI PUSH1 0x0 DUP1 REVERT JUMPDEST POP PUSH1 0x40 MLOAD PUSH3 0x154A CODESIZE SUB DUP1 PUSH3 0x154A DUP4 CODECOPY DUP2 DUP2 ADD PUSH1 0x40 MSTORE DUP2 ADD SWAP1 PUSH3 0x5E SWAP2 SWAP1 PUSH3 0xAC JUMP JUMPDEST DUP1 PUSH1 0x1 DUP2 SWAP1 SSTORE POP POP PUSH3 0xDE JUMP JUMPDEST PUSH1 0x0 DUP1 REVERT JUMPDEST PUSH1 0x0 DUP2 SWAP1 POP SWAP2 SWAP1 POP JUMP JUMPDEST PUSH3 0x86 DUP2 PUSH3 0x71 JUMP JUMPDEST DUP2 EQ PUSH3 0x92 JUMPI PUSH1 0x0 DUP1 REVERT JUMPDEST POP JUMP JUMPDEST PUSH1 0x0 DUP2 MLOAD SWAP1 POP PUSH3 0xA6 DUP2 PUSH3 0x7B JUMP JUMPDEST SWAP3 SWAP2 POP POP JUMP JUMPDEST PUSH1 0x0 PUSH1 0x20 DUP3 DUP5 SUB SLT ISZERO PUSH3 0xC5 JUMPI PUSH3 0xC4 PUSH3 0x6C JUMP JUMPDEST JUMPDEST PUSH1 0x0 PUSH3 0xD5 DUP5 DUP3 DUP6 ADD PUSH3 0x95 JUMP JUMPDEST SWAP2 POP POP SWAP3 SWAP2 POP POP JUMP JUMPDEST PUSH2 0x145C DUP1 PUSH3 0xEE PUSH1 0x0 CODECOPY PUSH1 0x0 RETURN INVALID PUSH1 0x80 PUSH1 0x40 MSTORE CALLVALUE DUP1 ISZERO PUSH2 0x10 JUMPI PUSH1 0x0 DUP1 REVERT JUMPDEST POP PUSH1 0x4 CALLDATASIZE LT PUSH2 0x10B JUMPI PUSH1 0x0 CALLDATALOAD PUSH1 0xE0 SHR DUP1 PUSH4 0x557ED1BA GT PUSH2 0xA2 JUMPI DUP1 PUSH4 0x8FA11864 GT PUSH2 0x71 JUMPI DUP1 PUSH4 0x8FA11864 EQ PUSH2 0x24C JUMPI DUP1 PUSH4 0x94B5DCAA EQ PUSH2 0x26A JUMPI DUP1 PUSH4 0xAA8C217C EQ PUSH2 0x288 JUMPI DUP1 PUSH4 0xBC309496 EQ PUSH2 0x2A6 JUMPI DUP1 PUSH4 0xE21F37CE EQ PUSH2 0x2C4 JUMPI PUSH2 0x10B JUMP JUMPDEST DUP1 PUSH4 0x557ED1BA EQ PUSH2 0x1E8 JUMPI DUP1 PUSH4 0x7B9A3F4C EQ PUSH2 0x206 JUMPI DUP1 PUSH4 0x7EB9F571 EQ PUSH2 0x224 JUMPI DUP1 PUSH4 0x8E029C0B EQ PUSH2 0x242 JUMPI PUSH2 0x10B JUMP JUMPDEST DUP1 PUSH4 0x34F5CCDE GT PUSH2 0xDE JUMPI DUP1 PUSH4 0x34F5CCDE EQ PUSH2 0x170 JUMPI DUP1 PUSH4 0x3C626F00 EQ PUSH2 0x18E JUMPI DUP1 PUSH4 0x42FB7936 EQ PUSH2 0x1AC JUMPI DUP1 PUSH4 0x4B28F9A2 EQ PUSH2 0x1CA JUMPI PUSH2 0x10B JUMP JUMPDEST DUP1 PUSH4 0x62A7544 EQ PUSH2 0x110 JUMPI DUP1 PUSH4 0xE85FA72 EQ PUSH2 0x12C JUMPI DUP1 PUSH4 0xEE6324A EQ PUSH2 0x14A JUMPI DUP1 PUSH4 0x12A029A4 EQ PUSH2 0x154 JUMPI JUMPDEST PUSH1 0x0 DUP1 REVERT JUMPDEST PUSH2 0x12A PUSH1 0x4 DUP1 CALLDATASIZE SUB DUP2 ADD SWAP1 PUSH2 0x125 SWAP2 SWAP1 PUSH2 0xA64 JUMP JUMPDEST PUSH2 0x2E2 JUMP JUMPDEST STOP JUMPDEST PUSH2 0x134 PUSH2 0x6F7 JUMP JUMPDEST PUSH1 0x40 MLOAD PUSH2 0x141 SWAP2 SWAP1 PUSH2 0xAB3 JUMP JUMPDEST PUSH1 0x40 MLOAD DUP1 SWAP2 SUB SWAP1 RETURN JUMPDEST PUSH2 0x152 PUSH2 0x6FD JUMP JUMPDEST STOP JUMPDEST PUSH2 0x16E PUSH1 0x4 DUP1 CALLDATASIZE SUB DUP2 ADD SWAP1 PUSH2 0x169 SWAP2 SWAP1 PUSH2 0xC14 JUMP JUMPDEST PUSH2 0x6FF JUMP JUMPDEST STOP JUMPDEST PUSH2 0x178 PUSH2 0x7B0 JUMP JUMPDEST PUSH1 0x40 MLOAD PUSH2 0x185 SWAP2 SWAP1 PUSH2 0xAB3 JUMP JUMPDEST PUSH1 0x40 MLOAD DUP1 SWAP2 SUB SWAP1 RETURN JUMPDEST PUSH2 0x196 PUSH2 0x7B6 JUMP JUMPDEST PUSH1 0x40 MLOAD PUSH2 0x1A3 SWAP2 SWAP1 PUSH2 0xCA7 JUMP JUMPDEST PUSH1 0x40 MLOAD DUP1 SWAP2 SUB SWAP1 RETURN JUMPDEST PUSH2 0x1B4 PUSH2 0x7C9 JUMP JUMPDEST PUSH1 0x40 MLOAD PUSH2 0x1C1 SWAP2 SWAP1 PUSH2 0xD4A JUMP JUMPDEST PUSH1 0x40 MLOAD DUP1 SWAP2 SUB SWAP1 RETURN JUMPDEST PUSH2 0x1D2 PUSH2 0x857 JUMP JUMPDEST PUSH1 0x40 MLOAD PUSH2 0x1DF SWAP2 SWAP1 PUSH2 0xAB3 JUMP JUMPDEST PUSH1 0x40 MLOAD DUP1 SWAP2 SUB SWAP1 RETURN JUMPDEST PUSH2 0x1F0 PUSH2 0x85D JUMP JUMPDEST PUSH1 0x40 MLOAD PUSH2 0x1FD SWAP2 SWAP1 PUSH2 0xAB3 JUMP JUMPDEST PUSH1 0x40 MLOAD DUP1 SWAP2 SUB SWAP1 RETURN JUMPDEST PUSH2 0x20E PUSH2 0x865 JUMP JUMPDEST PUSH1 0x40 MLOAD PUSH2 0x21B SWAP2 SWAP1 PUSH2 0xAB3 JUMP JUMPDEST PUSH1 0x40 MLOAD DUP1 SWAP2 SUB SWAP1 RETURN JUMPDEST PUSH2 0x22C PUSH2 0x86B JUMP JUMPDEST PUSH1 0x40 MLOAD PUSH2 0x239 SWAP2 SWAP1 PUSH2 0xAB3 JUMP JUMPDEST PUSH1 0x40 MLOAD DUP1 SWAP2 SUB SWAP1 RETURN JUMPDEST PUSH2 0x24A PUSH2 0x871 JUMP JUMPDEST STOP JUMPDEST PUSH2 0x254 PUSH2 0x88E JUMP JUMPDEST PUSH1 0x40 MLOAD PUSH2 0x261 SWAP2 SWAP1 PUSH2 0xD4A JUMP JUMPDEST PUSH1 0x40 MLOAD DUP1 SWAP2 SUB SWAP1 RETURN JUMPDEST PUSH2 0x272 PUSH2 0x91C JUMP JUMPDEST PUSH1 0x40 MLOAD PUSH2 0x27F SWAP2 SWAP1 PUSH2 0xAB3 JUMP JUMPDEST PUSH1 0x40 MLOAD DUP1 SWAP2 SUB SWAP1 RETURN JUMPDEST PUSH2 0x290 PUSH2 0x922 JUMP JUMPDEST PUSH1 0x40 MLOAD PUSH2 0x29D SWAP2 SWAP1 PUSH2 0xAB3 JUMP JUMPDEST PUSH1 0x40 MLOAD DUP1 SWAP2 SUB SWAP1 RETURN JUMPDEST PUSH2 0x2AE PUSH2 0x928 JUMP JUMPDEST PUSH1 0x40 MLOAD PUSH2 0x2BB SWAP2 SWAP1 PUSH2 0xAB3 JUMP JUMPDEST PUSH1 0x40 MLOAD DUP1 SWAP2 SUB SWAP1 RETURN JUMPDEST PUSH2 0x2CC PUSH2 0x92E JUMP JUMPDEST PUSH1 0x40 MLOAD PUSH2 0x2D9 SWAP2 SWAP1 PUSH2 0xD4A JUMP JUMPDEST PUSH1 0x40 MLOAD DUP1 SWAP2 SUB SWAP1 RETURN JUMPDEST DUP1 DUP1 PUSH1 0x2 PUSH1 0x0 PUSH2 0x100 EXP DUP2 SLOAD DUP2 PUSH20 0xFFFFFFFFFFFFFFFFFFFFFFFFFFFFFFFFFFFFFFFF MUL NOT AND SWAP1 DUP4 PUSH20 0xFFFFFFFFFFFFFFFFFFFFFFFFFFFFFFFFFFFFFFFF AND MUL OR SWAP1 SSTORE POP PUSH1 0x0 PUSH20 0xFFFFFFFFFFFFFFFFFFFFFFFFFFFFFFFFFFFFFFFF AND DUP2 PUSH20 0xFFFFFFFFFFFFFFFFFFFFFFFFFFFFFFFFFFFFFFFF AND SUB PUSH2 0x393 JUMPI PUSH1 0x40 MLOAD PUSH32 0x8C379A000000000000000000000000000000000000000000000000000000000 DUP2 MSTORE PUSH1 0x4 ADD PUSH2 0x38A SWAP1 PUSH2 0xDB8 JUMP JUMPDEST PUSH1 0x40 MLOAD DUP1 SWAP2 SUB SWAP1 REVERT JUMPDEST PUSH1 0x0 ISZERO ISZERO PUSH1 0x10 PUSH1 0x0 SWAP1 SLOAD SWAP1 PUSH2 0x100 EXP SWAP1 DIV PUSH1 0xFF AND ISZERO ISZERO SUB PUSH2 0x3E9 JUMPI PUSH1 0x40 MLOAD PUSH32 0x8C379A000000000000000000000000000000000000000000000000000000000 DUP2 MSTORE PUSH1 0x4 ADD PUSH2 0x3E0 SWAP1 PUSH2 0xE24 JUMP JUMPDEST PUSH1 0x40 MLOAD DUP1 SWAP2 SUB SWAP1 REVERT JUMPDEST PUSH2 0x9C4 PUSH1 0xC SLOAD GT DUP1 ISZERO PUSH2 0x40A JUMPI POP PUSH1 0x1E PUSH1 0xD SLOAD PUSH2 0x406 SWAP2 SWAP1 PUSH2 0xE73 JUMP JUMPDEST TIMESTAMP GT ISZERO JUMPDEST ISZERO PUSH2 0x465 JUMPI PUSH1 0x0 PUSH1 0xC DUP2 SWAP1 SSTORE POP PUSH1 0x0 PUSH1 0xC SLOAD EQ PUSH2 0x42A JUMPI PUSH2 0x429 PUSH2 0xEC9 JUMP JUMPDEST JUMPDEST PUSH1 0x40 MLOAD PUSH32 0x8C379A000000000000000000000000000000000000000000000000000000000 DUP2 MSTORE PUSH1 0x4 ADD PUSH2 0x45C SWAP1 PUSH2 0xF44 JUMP JUMPDEST PUSH1 0x40 MLOAD DUP1 SWAP2 SUB SWAP1 REVERT JUMPDEST PUSH2 0x9C4 PUSH1 0xC SLOAD GT ISZERO DUP1 ISZERO PUSH2 0x487 JUMPI POP PUSH1 0x1E PUSH1 0xD SLOAD PUSH2 0x483 SWAP2 SWAP1 PUSH2 0xE73 JUMP JUMPDEST TIMESTAMP LT ISZERO JUMPDEST ISZERO PUSH2 0x4AF JUMPI PUSH1 0x0 PUSH1 0xC DUP2 SWAP1 SSTORE POP PUSH1 0x0 PUSH1 0xC SLOAD EQ PUSH2 0x4A7 JUMPI PUSH2 0x4A6 PUSH2 0xEC9 JUMP JUMPDEST JUMPDEST TIMESTAMP PUSH1 0xD DUP2 SWAP1 SSTORE POP JUMPDEST PUSH1 0x5 PUSH1 0xF SLOAD LT ISZERO DUP1 ISZERO PUSH2 0x4D0 JUMPI POP PUSH1 0x1E PUSH1 0xD SLOAD PUSH2 0x4CC SWAP2 SWAP1 PUSH2 0xE73 JUMP JUMPDEST TIMESTAMP GT ISZERO JUMPDEST ISZERO PUSH2 0x52B JUMPI PUSH1 0x0 PUSH1 0xF DUP2 SWAP1 SSTORE POP PUSH1 0x0 PUSH1 0xF SLOAD EQ PUSH2 0x4F0 JUMPI PUSH2 0x4EF PUSH2 0xEC9 JUMP JUMPDEST JUMPDEST PUSH1 0x40 MLOAD PUSH32 0x8C379A000000000000000000000000000000000000000000000000000000000 DUP2 MSTORE PUSH1 0x4 ADD PUSH2 0x522 SWAP1 PUSH2 0xFB0 JUMP JUMPDEST PUSH1 0x40 MLOAD DUP1 SWAP2 SUB SWAP1 REVERT JUMPDEST PUSH1 0x5 PUSH1 0xF SLOAD GT ISZERO DUP1 ISZERO PUSH2 0x54C JUMPI POP PUSH1 0x1E PUSH1 0xD SLOAD PUSH2 0x548 SWAP2 SWAP1 PUSH2 0xE73 JUMP JUMPDEST TIMESTAMP LT ISZERO JUMPDEST ISZERO PUSH2 0x574 JUMPI PUSH1 0x0 PUSH1 0xF DUP2 SWAP1 SSTORE POP PUSH1 0x0 PUSH1 0xF SLOAD EQ PUSH2 0x56C JUMPI PUSH2 0x56B PUSH2 0xEC9 JUMP JUMPDEST JUMPDEST TIMESTAMP PUSH1 0xD DUP2 SWAP1 SSTORE POP JUMPDEST DUP2 PUSH1 0x2 PUSH1 0x0 PUSH2 0x100 EXP DUP2 SLOAD DUP2 PUSH20 0xFFFFFFFFFFFFFFFFFFFFFFFFFFFFFFFFFFFFFFFF MUL NOT AND SWAP1 DUP4 PUSH20 0xFFFFFFFFFFFFFFFFFFFFFFFFFFFFFFFFFFFFFFFF AND MUL OR SWAP1 SSTORE POP DUP3 PUSH1 0x0 DUP2 SWAP1 SSTORE POP PUSH2 0x9C4 PUSH1 0x0 SLOAD GT ISZERO PUSH2 0x603 JUMPI PUSH1 0x40 MLOAD PUSH32 0x8C379A000000000000000000000000000000000000000000000000000000000 DUP2 MSTORE PUSH1 0x4 ADD PUSH2 0x5FA SWAP1 PUSH2 0x101C JUMP JUMPDEST PUSH1 0x40 MLOAD DUP1 SWAP2 SUB SWAP1 REVERT JUMPDEST PUSH1 0x1 PUSH1 0xF PUSH1 0x0 DUP3 DUP3 SLOAD PUSH2 0x616 SWAP2 SWAP1 PUSH2 0xE73 JUMP JUMPDEST SWAP3 POP POP DUP2 SWAP1 SSTORE POP PUSH1 0x0 PUSH1 0x1 SLOAD GT DUP1 ISZERO PUSH2 0x632 JUMPI POP PUSH1 0x0 SLOAD PUSH1 0x1 SLOAD GT JUMPDEST ISZERO PUSH2 0x6B7 JUMPI PUSH1 0x0 SLOAD PUSH1 0x1 PUSH1 0x0 DUP3 DUP3 SLOAD PUSH2 0x64B SWAP2 SWAP1 PUSH2 0x103C JUMP JUMPDEST SWAP3 POP POP DUP2 SWAP1 SSTORE POP PUSH1 0x0 SLOAD PUSH1 0xC PUSH1 0x0 DUP3 DUP3 SLOAD PUSH2 0x666 SWAP2 SWAP1 PUSH2 0xE73 JUMP JUMPDEST SWAP3 POP POP DUP2 SWAP1 SSTORE POP PUSH1 0x40 MLOAD DUP1 PUSH1 0x40 ADD PUSH1 0x40 MSTORE DUP1 PUSH1 0x12 DUP2 MSTORE PUSH1 0x20 ADD PUSH32 0x5472616E7366657220636F6D706C657465640000000000000000000000000000 DUP2 MSTORE POP PUSH1 0x9 SWAP1 DUP2 PUSH2 0x6B1 SWAP2 SWAP1 PUSH2 0x127C JUMP JUMPDEST POP PUSH2 0x6F2 JUMP JUMPDEST PUSH1 0x40 MLOAD PUSH32 0x8C379A000000000000000000000000000000000000000000000000000000000 DUP2 MSTORE PUSH1 0x4 ADD PUSH2 0x6E9 SWAP1 PUSH2 0x139A JUMP JUMPDEST PUSH1 0x40 MLOAD DUP1 SWAP2 SUB SWAP1 REVERT JUMPDEST POP POP POP JUMP JUMPDEST PUSH1 0xD SLOAD DUP2 JUMP JUMPDEST JUMP JUMPDEST DUP2 PUSH1 0xA SWAP1 DUP2 PUSH2 0x70E SWAP2 SWAP1 PUSH2 0x127C JUMP JUMPDEST POP DUP1 PUSH1 0xB SWAP1 DUP2 PUSH2 0x71E SWAP2 SWAP1 PUSH2 0x127C JUMP JUMPDEST POP PUSH1 0x1 PUSH1 0x10 PUSH1 0x0 PUSH2 0x100 EXP DUP2 SLOAD DUP2 PUSH1 0xFF MUL NOT AND SWAP1 DUP4 ISZERO ISZERO MUL OR SWAP1 SSTORE POP TIMESTAMP PUSH1 0xD DUP2 SWAP1 SSTORE POP PUSH1 0x8 PUSH1 0xA DUP1 SLOAD PUSH2 0x750 SWAP1 PUSH2 0x109F JUMP JUMPDEST SWAP1 POP EQ DUP1 ISZERO PUSH2 0x76D JUMPI POP PUSH1 0x3 PUSH1 0xB DUP1 SLOAD PUSH2 0x769 SWAP1 PUSH2 0x109F JUMP JUMPDEST SWAP1 POP EQ JUMPDEST PUSH2 0x7AC JUMPI PUSH1 0x40 MLOAD PUSH32 0x8C379A000000000000000000000000000000000000000000000000000000000 DUP2 MSTORE PUSH1 0x4 ADD PUSH2 0x7A3 SWAP1 PUSH2 0x1406 JUMP JUMPDEST PUSH1 0x40 MLOAD DUP1 SWAP2 SUB SWAP1 REVERT JUMPDEST POP POP JUMP JUMPDEST PUSH1 0xE SLOAD DUP2 JUMP JUMPDEST PUSH1 0x10 PUSH1 0x0 SWAP1 SLOAD SWAP1 PUSH2 0x100 EXP SWAP1 DIV PUSH1 0xFF AND DUP2 JUMP JUMPDEST PUSH1 0xB DUP1 SLOAD PUSH2 0x7D6 SWAP1 PUSH2 0x109F JUMP JUMPDEST DUP1 PUSH1 0x1F ADD PUSH1 0x20 DUP1 SWAP2 DIV MUL PUSH1 0x20 ADD PUSH1 0x40 MLOAD SWAP1 DUP2 ADD PUSH1 0x40 MSTORE DUP1 SWAP3 SWAP2 SWAP1 DUP2 DUP2 MSTORE PUSH1 0x20 ADD DUP3 DUP1 SLOAD PUSH2 0x802 SWAP1 PUSH2 0x109F JUMP JUMPDEST DUP1 ISZERO PUSH2 0x84F JUMPI DUP1 PUSH1 0x1F LT PUSH2 0x824 JUMPI PUSH2 0x100 DUP1 DUP4 SLOAD DIV MUL DUP4 MSTORE SWAP2 PUSH1 0x20 ADD SWAP2 PUSH2 0x84F JUMP JUMPDEST DUP3 ADD SWAP2 SWAP1 PUSH1 0x0 MSTORE PUSH1 0x20 PUSH1 0x0 KECCAK256 SWAP1 JUMPDEST DUP2 SLOAD DUP2 MSTORE SWAP1 PUSH1 0x1 ADD SWAP1 PUSH1 0x20 ADD DUP1 DUP4 GT PUSH2 0x832 JUMPI DUP3 SWAP1 SUB PUSH1 0x1F AND DUP3 ADD SWAP2 JUMPDEST POP POP POP POP POP DUP2 JUMP JUMPDEST PUSH1 0xF SLOAD DUP2 JUMP JUMPDEST PUSH1 0x0 TIMESTAMP SWAP1 POP SWAP1 JUMP JUMPDEST PUSH1 0x1 SLOAD DUP2 JUMP JUMPDEST PUSH1 0xC SLOAD DUP2 JUMP JUMPDEST PUSH1 0x0 PUSH1 0x10 PUSH1 0x0 PUSH2 0x100 EXP DUP2 SLOAD DUP2 PUSH1 0xFF MUL NOT AND SWAP1 DUP4 ISZERO ISZERO MUL OR SWAP1 SSTORE POP JUMP JUMPDEST PUSH1 0xA DUP1 SLOAD PUSH2 0x89B SWAP1 PUSH2 0x109F JUMP JUMPDEST DUP1 PUSH1 0x1F ADD PUSH1 0x20 DUP1 SWAP2 DIV MUL PUSH1 0x20 ADD PUSH1 0x40 MLOAD SWAP1 DUP2 ADD PUSH1 0x40 MSTORE DUP1 SWAP3 SWAP2 SWAP1 DUP2 DUP2 MSTORE PUSH1 0x20 ADD DUP3 DUP1 SLOAD PUSH2 0x8C7 SWAP1 PUSH2 0x109F JUMP JUMPDEST DUP1 ISZERO PUSH2 0x914 JUMPI DUP1 PUSH1 0x1F LT PUSH2 0x8E9 JUMPI PUSH2 0x100 DUP1 DUP4 SLOAD DIV MUL DUP4 MSTORE SWAP2 PUSH1 0x20 ADD SWAP2 PUSH2 0x914 JUMP JUMPDEST DUP3 ADD SWAP2 SWAP1 PUSH1 0x0 MSTORE PUSH1 0x20 PUSH1 0x0 KECCAK256 SWAP1 JUMPDEST DUP2 SLOAD DUP2 MSTORE SWAP1 PUSH1 0x1 ADD SWAP1 PUSH1 0x20 ADD DUP1 DUP4 GT PUSH2 0x8F7 JUMPI DUP3 SWAP1 SUB PUSH1 0x1F AND DUP3 ADD SWAP2 JUMPDEST POP POP POP POP POP DUP2 JUMP JUMPDEST PUSH1 0x4 SLOAD DUP2 JUMP JUMPDEST PUSH1 0x0 SLOAD DUP2 JUMP JUMPDEST PUSH1 0x8 SLOAD DUP2 JUMP JUMPDEST PUSH1 0x9 DUP1 SLOAD PUSH2 0x93B SWAP1 PUSH2 0x109F JUMP JUMPDEST DUP1 PUSH1 0x1F ADD PUSH1 0x20 DUP1 SWAP2 DIV MUL PUSH1 0x20 ADD PUSH1 0x40 MLOAD SWAP1 DUP2 ADD PUSH1 0x40 MSTORE DUP1 SWAP3 SWAP2 SWAP1 DUP2 DUP2 MSTORE PUSH1 0x20 ADD DUP3 DUP1 SLOAD PUSH2 0x967 SWAP1 PUSH2 0x109F JUMP JUMPDEST DUP1 ISZERO PUSH2 0x9B4 JUMPI DUP1 PUSH1 0x1F LT PUSH2 0x989 JUMPI PUSH2 0x100 DUP1 DUP4 SLOAD DIV MUL DUP4 MSTORE SWAP2 PUSH1 0x20 ADD SWAP2 PUSH2 0x9B4 JUMP JUMPDEST DUP3 ADD SWAP2 SWAP1 PUSH1 0x0 MSTORE PUSH1 0x20 PUSH1 0x0 KECCAK256 SWAP1 JUMPDEST DUP2 SLOAD DUP2 MSTORE SWAP1 PUSH1 0x1 ADD SWAP1 PUSH1 0x20 ADD DUP1 DUP4 GT PUSH2 0x997 JUMPI DUP3 SWAP1 SUB PUSH1 0x1F AND DUP3 ADD SWAP2 JUMPDEST POP POP POP POP POP DUP2 JUMP JUMPDEST PUSH1 0x0 PUSH1 0x40 MLOAD SWAP1 POP SWAP1 JUMP JUMPDEST PUSH1 0x0 DUP1 REVERT JUMPDEST PUSH1 0x0 DUP1 REVERT JUMPDEST PUSH1 0x0 DUP2 SWAP1 POP SWAP2 SWAP1 POP JUMP JUMPDEST PUSH2 0x9E3 DUP2 PUSH2 0x9D0 JUMP JUMPDEST DUP2 EQ PUSH2 0x9EE JUMPI PUSH1 0x0 DUP1 REVERT JUMPDEST POP JUMP JUMPDEST PUSH1 0x0 DUP2 CALLDATALOAD SWAP1 POP PUSH2 0xA00 DUP2 PUSH2 0x9DA JUMP JUMPDEST SWAP3 SWAP2 POP POP JUMP JUMPDEST PUSH1 0x0 PUSH20 0xFFFFFFFFFFFFFFFFFFFFFFFFFFFFFFFFFFFFFFFF DUP3 AND SWAP1 POP SWAP2 SWAP1 POP JUMP JUMPDEST PUSH1 0x0 PUSH2 0xA31 DUP3 PUSH2 0xA06 JUMP JUMPDEST SWAP1 POP SWAP2 SWAP1 POP JUMP JUMPDEST PUSH2 0xA41 DUP2 PUSH2 0xA26 JUMP JUMPDEST DUP2 EQ PUSH2 0xA4C JUMPI PUSH1 0x0 DUP1 REVERT JUMPDEST POP JUMP JUMPDEST PUSH1 0x0 DUP2 CALLDATALOAD SWAP1 POP PUSH2 0xA5E DUP2 PUSH2 0xA38 JUMP JUMPDEST SWAP3 SWAP2 POP POP JUMP JUMPDEST PUSH1 0x0 DUP1 PUSH1 0x40 DUP4 DUP6 SUB SLT ISZERO PUSH2 0xA7B JUMPI PUSH2 0xA7A PUSH2 0x9C6 JUMP JUMPDEST JUMPDEST PUSH1 0x0 PUSH2 0xA89 DUP6 DUP3 DUP7 ADD PUSH2 0x9F1 JUMP JUMPDEST SWAP3 POP POP PUSH1 0x20 PUSH2 0xA9A DUP6 DUP3 DUP7 ADD PUSH2 0xA4F JUMP JUMPDEST SWAP2 POP POP SWAP3 POP SWAP3 SWAP1 POP JUMP JUMPDEST PUSH2 0xAAD DUP2 PUSH2 0x9D0 JUMP JUMPDEST DUP3 MSTORE POP POP JUMP JUMPDEST PUSH1 0x0 PUSH1 0x20 DUP3 ADD SWAP1 POP PUSH2 0xAC8 PUSH1 0x0 DUP4 ADD DUP5 PUSH2 0xAA4 JUMP JUMPDEST SWAP3 SWAP2 POP POP JUMP JUMPDEST PUSH1 0x0 DUP1 REVERT JUMPDEST PUSH1 0x0 DUP1 REVERT JUMPDEST PUSH1 0x0 PUSH1 0x1F NOT PUSH1 0x1F DUP4 ADD AND SWAP1 POP SWAP2 SWAP1 POP JUMP JUMPDEST PUSH32 0x4E487B7100000000000000000000000000000000000000000000000000000000 PUSH1 0x0 MSTORE PUSH1 0x41 PUSH1 0x4 MSTORE PUSH1 0x24 PUSH1 0x0 REVERT JUMPDEST PUSH2 0xB21 DUP3 PUSH2 0xAD8 JUMP JUMPDEST DUP2 ADD DUP2 DUP2 LT PUSH8 0xFFFFFFFFFFFFFFFF DUP3 GT OR ISZERO PUSH2 0xB40 JUMPI PUSH2 0xB3F PUSH2 0xAE9 JUMP JUMPDEST JUMPDEST DUP1 PUSH1 0x40 MSTORE POP POP POP JUMP JUMPDEST PUSH1 0x0 PUSH2 0xB53 PUSH2 0x9BC JUMP JUMPDEST SWAP1 POP PUSH2 0xB5F DUP3 DUP3 PUSH2 0xB18 JUMP JUMPDEST SWAP2 SWAP1 POP JUMP JUMPDEST PUSH1 0x0 PUSH8 0xFFFFFFFFFFFFFFFF DUP3 GT ISZERO PUSH2 0xB7F JUMPI PUSH2 0xB7E PUSH2 0xAE9 JUMP JUMPDEST JUMPDEST PUSH2 0xB88 DUP3 PUSH2 0xAD8 JUMP JUMPDEST SWAP1 POP PUSH1 0x20 DUP2 ADD SWAP1 POP SWAP2 SWAP1 POP JUMP JUMPDEST DUP3 DUP2 DUP4 CALLDATACOPY PUSH1 0x0 DUP4 DUP4 ADD MSTORE POP POP POP JUMP JUMPDEST PUSH1 0x0 PUSH2 0xBB7 PUSH2 0xBB2 DUP5 PUSH2 0xB64 JUMP JUMPDEST PUSH2 0xB49 JUMP JUMPDEST SWAP1 POP DUP3 DUP2 MSTORE PUSH1 0x20 DUP2 ADD DUP5 DUP5 DUP5 ADD GT ISZERO PUSH2 0xBD3 JUMPI PUSH2 0xBD2 PUSH2 0xAD3 JUMP JUMPDEST JUMPDEST PUSH2 0xBDE DUP5 DUP3 DUP6 PUSH2 0xB95 JUMP JUMPDEST POP SWAP4 SWAP3 POP POP POP JUMP JUMPDEST PUSH1 0x0 DUP3 PUSH1 0x1F DUP4 ADD SLT PUSH2 0xBFB JUMPI PUSH2 0xBFA PUSH2 0xACE JUMP JUMPDEST JUMPDEST DUP2 CALLDATALOAD PUSH2 0xC0B DUP5 DUP3 PUSH1 0x20 DUP7 ADD PUSH2 0xBA4 JUMP JUMPDEST SWAP2 POP POP SWAP3 SWAP2 POP POP JUMP JUMPDEST PUSH1 0x0 DUP1 PUSH1 0x40 DUP4 DUP6 SUB SLT ISZERO PUSH2 0xC2B JUMPI PUSH2 0xC2A PUSH2 0x9C6 JUMP JUMPDEST JUMPDEST PUSH1 0x0 DUP4 ADD CALLDATALOAD PUSH8 0xFFFFFFFFFFFFFFFF DUP2 GT ISZERO PUSH2 0xC49 JUMPI PUSH2 0xC48 PUSH2 0x9CB JUMP JUMPDEST JUMPDEST PUSH2 0xC55 DUP6 DUP3 DUP7 ADD PUSH2 0xBE6 JUMP JUMPDEST SWAP3 POP POP PUSH1 0x20 DUP4 ADD CALLDATALOAD PUSH8 0xFFFFFFFFFFFFFFFF DUP2 GT ISZERO PUSH2 0xC76 JUMPI PUSH2 0xC75 PUSH2 0x9CB JUMP JUMPDEST JUMPDEST PUSH2 0xC82 DUP6 DUP3 DUP7 ADD PUSH2 0xBE6 JUMP JUMPDEST SWAP2 POP POP SWAP3 POP SWAP3 SWAP1 POP JUMP JUMPDEST PUSH1 0x0 DUP2 ISZERO ISZERO SWAP1 POP SWAP2 SWAP1 POP JUMP JUMPDEST PUSH2 0xCA1 DUP2 PUSH2 0xC8C JUMP JUMPDEST DUP3 MSTORE POP POP JUMP JUMPDEST PUSH1 0x0 PUSH1 0x20 DUP3 ADD SWAP1 POP PUSH2 0xCBC PUSH1 0x0 DUP4 ADD DUP5 PUSH2 0xC98 JUMP JUMPDEST SWAP3 SWAP2 POP POP JUMP JUMPDEST PUSH1 0x0 DUP2 MLOAD SWAP1 POP SWAP2 SWAP1 POP JUMP JUMPDEST PUSH1 0x0 DUP3 DUP3 MSTORE PUSH1 0x20 DUP3 ADD SWAP1 POP SWAP3 SWAP2 POP POP JUMP JUMPDEST PUSH1 0x0 JUMPDEST DUP4 DUP2 LT ISZERO PUSH2 0xCFC JUMPI DUP1 DUP3 ADD MLOAD DUP2 DUP5 ADD MSTORE PUSH1 0x20 DUP2 ADD SWAP1 POP PUSH2 0xCE1 JUMP JUMPDEST DUP4 DUP2 GT ISZERO PUSH2 0xD0B JUMPI PUSH1 0x0 DUP5 DUP5 ADD MSTORE JUMPDEST POP POP POP POP JUMP JUMPDEST PUSH1 0x0 PUSH2 0xD1C DUP3 PUSH2 0xCC2 JUMP JUMPDEST PUSH2 0xD26 DUP2 DUP6 PUSH2 0xCCD JUMP JUMPDEST SWAP4 POP PUSH2 0xD36 DUP2 DUP6 PUSH1 0x20 DUP7 ADD PUSH2 0xCDE JUMP JUMPDEST PUSH2 0xD3F DUP2 PUSH2 0xAD8 JUMP JUMPDEST DUP5 ADD SWAP2 POP POP SWAP3 SWAP2 POP POP JUMP JUMPDEST PUSH1 0x0 PUSH1 0x20 DUP3 ADD SWAP1 POP DUP2 DUP2 SUB PUSH1 0x0 DUP4 ADD MSTORE PUSH2 0xD64 DUP2 DUP5 PUSH2 0xD11 JUMP JUMPDEST SWAP1 POP SWAP3 SWAP2 POP POP JUMP JUMPDEST PUSH32 0x2054686973206164647265737320646F65736E27742065786973747300000000 PUSH1 0x0 DUP3 ADD MSTORE POP JUMP JUMPDEST PUSH1 0x0 PUSH2 0xDA2 PUSH1 0x1C DUP4 PUSH2 0xCCD JUMP JUMPDEST SWAP2 POP PUSH2 0xDAD DUP3 PUSH2 0xD6C JUMP JUMPDEST PUSH1 0x20 DUP3 ADD SWAP1 POP SWAP2 SWAP1 POP JUMP JUMPDEST PUSH1 0x0 PUSH1 0x20 DUP3 ADD SWAP1 POP DUP2 DUP2 SUB PUSH1 0x0 DUP4 ADD MSTORE PUSH2 0xDD1 DUP2 PUSH2 0xD95 JUMP JUMPDEST SWAP1 POP SWAP2 SWAP1 POP JUMP JUMPDEST PUSH32 0x506C6561736520696E7365727420796F75722063617264000000000000000000 PUSH1 0x0 DUP3 ADD MSTORE POP JUMP JUMPDEST PUSH1 0x0 PUSH2 0xE0E PUSH1 0x17 DUP4 PUSH2 0xCCD JUMP JUMPDEST SWAP2 POP PUSH2 0xE19 DUP3 PUSH2 0xDD8 JUMP JUMPDEST PUSH1 0x20 DUP3 ADD SWAP1 POP SWAP2 SWAP1 POP JUMP JUMPDEST PUSH1 0x0 PUSH1 0x20 DUP3 ADD SWAP1 POP DUP2 DUP2 SUB PUSH1 0x0 DUP4 ADD MSTORE PUSH2 0xE3D DUP2 PUSH2 0xE01 JUMP JUMPDEST SWAP1 POP SWAP2 SWAP1 POP JUMP JUMPDEST PUSH32 0x4E487B7100000000000000000000000000000000000000000000000000000000 PUSH1 0x0 MSTORE PUSH1 0x11 PUSH1 0x4 MSTORE PUSH1 0x24 PUSH1 0x0 REVERT JUMPDEST PUSH1 0x0 PUSH2 0xE7E DUP3 PUSH2 0x9D0 JUMP JUMPDEST SWAP2 POP PUSH2 0xE89 DUP4 PUSH2 0x9D0 JUMP JUMPDEST SWAP3 POP DUP3 PUSH32 0xFFFFFFFFFFFFFFFFFFFFFFFFFFFFFFFFFFFFFFFFFFFFFFFFFFFFFFFFFFFFFFFF SUB DUP3 GT ISZERO PUSH2 0xEBE JUMPI PUSH2 0xEBD PUSH2 0xE44 JUMP JUMPDEST JUMPDEST DUP3 DUP3 ADD SWAP1 POP SWAP3 SWAP2 POP POP JUMP JUMPDEST PUSH32 0x4E487B7100000000000000000000000000000000000000000000000000000000 PUSH1 0x0 MSTORE PUSH1 0x1 PUSH1 0x4 MSTORE PUSH1 0x24 PUSH1 0x0 REVERT JUMPDEST PUSH32 0x596F75207265616368656420746865206C696D69742070657220646179000000 PUSH1 0x0 DUP3 ADD MSTORE POP JUMP JUMPDEST PUSH1 0x0 PUSH2 0xF2E PUSH1 0x1D DUP4 PUSH2 0xCCD JUMP JUMPDEST SWAP2 POP PUSH2 0xF39 DUP3 PUSH2 0xEF8 JUMP JUMPDEST PUSH1 0x20 DUP3 ADD SWAP1 POP SWAP2 SWAP1 POP JUMP JUMPDEST PUSH1 0x0 PUSH1 0x20 DUP3 ADD SWAP1 POP DUP2 DUP2 SUB PUSH1 0x0 DUP4 ADD MSTORE PUSH2 0xF5D DUP2 PUSH2 0xF21 JUMP JUMPDEST SWAP1 POP SWAP2 SWAP1 POP JUMP JUMPDEST PUSH32 0x6F6E6C792035207472616E73616374696F6E7320706572206461790000000000 PUSH1 0x0 DUP3 ADD MSTORE POP JUMP JUMPDEST PUSH1 0x0 PUSH2 0xF9A PUSH1 0x1B DUP4 PUSH2 0xCCD JUMP JUMPDEST SWAP2 POP PUSH2 0xFA5 DUP3 PUSH2 0xF64 JUMP JUMPDEST PUSH1 0x20 DUP3 ADD SWAP1 POP SWAP2 SWAP1 POP JUMP JUMPDEST PUSH1 0x0 PUSH1 0x20 DUP3 ADD SWAP1 POP DUP2 DUP2 SUB PUSH1 0x0 DUP4 ADD MSTORE PUSH2 0xFC9 DUP2 PUSH2 0xF8D JUMP JUMPDEST SWAP1 POP SWAP2 SWAP1 POP JUMP JUMPDEST PUSH32 0x596F75207265616368656420746865206C696D69742053656E64282900000000 PUSH1 0x0 DUP3 ADD MSTORE POP JUMP JUMPDEST PUSH1 0x0 PUSH2 0x1006 PUSH1 0x1C DUP4 PUSH2 0xCCD JUMP JUMPDEST SWAP2 POP PUSH2 0x1011 DUP3 PUSH2 0xFD0 JUMP JUMPDEST PUSH1 0x20 DUP3 ADD SWAP1 POP SWAP2 SWAP1 POP JUMP JUMPDEST PUSH1 0x0 PUSH1 0x20 DUP3 ADD SWAP1 POP DUP2 DUP2 SUB PUSH1 0x0 DUP4 ADD MSTORE PUSH2 0x1035 DUP2 PUSH2 0xFF9 JUMP JUMPDEST SWAP1 POP SWAP2 SWAP1 POP JUMP JUMPDEST PUSH1 0x0 PUSH2 0x1047 DUP3 PUSH2 0x9D0 JUMP JUMPDEST SWAP2 POP PUSH2 0x1052 DUP4 PUSH2 0x9D0 JUMP JUMPDEST SWAP3 POP DUP3 DUP3 LT ISZERO PUSH2 0x1065 JUMPI PUSH2 0x1064 PUSH2 0xE44 JUMP JUMPDEST JUMPDEST DUP3 DUP3 SUB SWAP1 POP SWAP3 SWAP2 POP POP JUMP JUMPDEST PUSH32 0x4E487B7100000000000000000000000000000000000000000000000000000000 PUSH1 0x0 MSTORE PUSH1 0x22 PUSH1 0x4 MSTORE PUSH1 0x24 PUSH1 0x0 REVERT JUMPDEST PUSH1 0x0 PUSH1 0x2 DUP3 DIV SWAP1 POP PUSH1 0x1 DUP3 AND DUP1 PUSH2 0x10B7 JUMPI PUSH1 0x7F DUP3 AND SWAP2 POP JUMPDEST PUSH1 0x20 DUP3 LT DUP2 SUB PUSH2 0x10CA JUMPI PUSH2 0x10C9 PUSH2 0x1070 JUMP JUMPDEST JUMPDEST POP SWAP2 SWAP1 POP JUMP JUMPDEST PUSH1 0x0 DUP2 SWAP1 POP DUP2 PUSH1 0x0 MSTORE PUSH1 0x20 PUSH1 0x0 KECCAK256 SWAP1 POP SWAP2 SWAP1 POP JUMP JUMPDEST PUSH1 0x0 PUSH1 0x20 PUSH1 0x1F DUP4 ADD DIV SWAP1 POP SWAP2 SWAP1 POP JUMP JUMPDEST PUSH1 0x0 DUP3 DUP3 SHL SWAP1 POP SWAP3 SWAP2 POP POP JUMP JUMPDEST PUSH1 0x0 PUSH1 0x8 DUP4 MUL PUSH2 0x1132 PUSH32 0xFFFFFFFFFFFFFFFFFFFFFFFFFFFFFFFFFFFFFFFFFFFFFFFFFFFFFFFFFFFFFFFF DUP3 PUSH2 0x10F5 JUMP JUMPDEST PUSH2 0x113C DUP7 DUP4 PUSH2 0x10F5 JUMP JUMPDEST SWAP6 POP DUP1 NOT DUP5 AND SWAP4 POP DUP1 DUP7 AND DUP5 OR SWAP3 POP POP POP SWAP4 SWAP3 POP POP POP JUMP JUMPDEST PUSH1 0x0 DUP2 SWAP1 POP SWAP2 SWAP1 POP JUMP JUMPDEST PUSH1 0x0 PUSH2 0x1179 PUSH2 0x1174 PUSH2 0x116F DUP5 PUSH2 0x9D0 JUMP JUMPDEST PUSH2 0x1154 JUMP JUMPDEST PUSH2 0x9D0 JUMP JUMPDEST SWAP1 POP SWAP2 SWAP1 POP JUMP JUMPDEST PUSH1 0x0 DUP2 SWAP1 POP SWAP2 SWAP1 POP JUMP JUMPDEST PUSH2 0x1193 DUP4 PUSH2 0x115E JUMP JUMPDEST PUSH2 0x11A7 PUSH2 0x119F DUP3 PUSH2 0x1180 JUMP JUMPDEST DUP5 DUP5 SLOAD PUSH2 0x1102 JUMP JUMPDEST DUP3 SSTORE POP POP POP POP JUMP JUMPDEST PUSH1 0x0 SWAP1 JUMP JUMPDEST PUSH2 0x11BC PUSH2 0x11AF JUMP JUMPDEST PUSH2 0x11C7 DUP2 DUP5 DUP5 PUSH2 0x118A JUMP JUMPDEST POP POP POP JUMP JUMPDEST JUMPDEST DUP2 DUP2 LT ISZERO PUSH2 0x11EB JUMPI PUSH2 0x11E0 PUSH1 0x0 DUP3 PUSH2 0x11B4 JUMP JUMPDEST PUSH1 0x1 DUP2 ADD SWAP1 POP PUSH2 0x11CD JUMP JUMPDEST POP POP JUMP JUMPDEST PUSH1 0x1F DUP3 GT ISZERO PUSH2 0x1230 JUMPI PUSH2 0x1201 DUP2 PUSH2 0x10D0 JUMP JUMPDEST PUSH2 0x120A DUP5 PUSH2 0x10E5 JUMP JUMPDEST DUP2 ADD PUSH1 0x20 DUP6 LT ISZERO PUSH2 0x1219 JUMPI DUP2 SWAP1 POP JUMPDEST PUSH2 0x122D PUSH2 0x1225 DUP6 PUSH2 0x10E5 JUMP JUMPDEST DUP4 ADD DUP3 PUSH2 0x11CC JUMP JUMPDEST POP POP JUMPDEST POP POP POP JUMP JUMPDEST PUSH1 0x0 DUP3 DUP3 SHR SWAP1 POP SWAP3 SWAP2 POP POP JUMP JUMPDEST PUSH1 0x0 PUSH2 0x1253 PUSH1 0x0 NOT DUP5 PUSH1 0x8 MUL PUSH2 0x1235 JUMP JUMPDEST NOT DUP1 DUP4 AND SWAP2 POP POP SWAP3 SWAP2 POP POP JUMP JUMPDEST PUSH1 0x0 PUSH2 0x126C DUP4 DUP4 PUSH2 0x1242 JUMP JUMPDEST SWAP2 POP DUP3 PUSH1 0x2 MUL DUP3 OR SWAP1 POP SWAP3 SWAP2 POP POP JUMP JUMPDEST PUSH2 0x1285 DUP3 PUSH2 0xCC2 JUMP JUMPDEST PUSH8 0xFFFFFFFFFFFFFFFF DUP2 GT ISZERO PUSH2 0x129E JUMPI PUSH2 0x129D PUSH2 0xAE9 JUMP JUMPDEST JUMPDEST PUSH2 0x12A8 DUP3 SLOAD PUSH2 0x109F JUMP JUMPDEST PUSH2 0x12B3 DUP3 DUP3 DUP6 PUSH2 0x11EF JUMP JUMPDEST PUSH1 0x0 PUSH1 0x20 SWAP1 POP PUSH1 0x1F DUP4 GT PUSH1 0x1 DUP2 EQ PUSH2 0x12E6 JUMPI PUSH1 0x0 DUP5 ISZERO PUSH2 0x12D4 JUMPI DUP3 DUP8 ADD MLOAD SWAP1 POP JUMPDEST PUSH2 0x12DE DUP6 DUP3 PUSH2 0x1260 JUMP JUMPDEST DUP7 SSTORE POP PUSH2 0x1346 JUMP JUMPDEST PUSH1 0x1F NOT DUP5 AND PUSH2 0x12F4 DUP7 PUSH2 0x10D0 JUMP JUMPDEST PUSH1 0x0 JUMPDEST DUP3 DUP2 LT ISZERO PUSH2 0x131C JUMPI DUP5 DUP10 ADD MLOAD DUP3 SSTORE PUSH1 0x1 DUP3 ADD SWAP2 POP PUSH1 0x20 DUP6 ADD SWAP5 POP PUSH1 0x20 DUP2 ADD SWAP1 POP PUSH2 0x12F7 JUMP JUMPDEST DUP7 DUP4 LT ISZERO PUSH2 0x1339 JUMPI DUP5 DUP10 ADD MLOAD PUSH2 0x1335 PUSH1 0x1F DUP10 AND DUP3 PUSH2 0x1242 JUMP JUMPDEST DUP4 SSTORE POP JUMPDEST PUSH1 0x1 PUSH1 0x2 DUP9 MUL ADD DUP9 SSTORE POP POP POP JUMPDEST POP POP POP POP POP POP JUMP JUMPDEST PUSH32 0x4E6F7420656E6F7567682066756E647300000000000000000000000000000000 PUSH1 0x0 DUP3 ADD MSTORE POP JUMP JUMPDEST PUSH1 0x0 PUSH2 0x1384 PUSH1 0x10 DUP4 PUSH2 0xCCD JUMP JUMPDEST SWAP2 POP PUSH2 0x138F DUP3 PUSH2 0x134E JUMP JUMPDEST PUSH1 0x20 DUP3 ADD SWAP1 POP SWAP2 SWAP1 POP JUMP JUMPDEST PUSH1 0x0 PUSH1 0x20 DUP3 ADD SWAP1 POP DUP2 DUP2 SUB PUSH1 0x0 DUP4 ADD MSTORE PUSH2 0x13B3 DUP2 PUSH2 0x1377 JUMP JUMPDEST SWAP1 POP SWAP2 SWAP1 POP JUMP JUMPDEST PUSH32 0x4E6F2076616C6964206372656469742063617264000000000000000000000000 PUSH1 0x0 DUP3 ADD MSTORE POP JUMP JUMPDEST PUSH1 0x0 PUSH2 0x13F0 PUSH1 0x14 DUP4 PUSH2 0xCCD JUMP JUMPDEST SWAP2 POP PUSH2 0x13FB DUP3 PUSH2 0x13BA JUMP JUMPDEST PUSH1 0x20 DUP3 ADD SWAP1 POP SWAP2 SWAP1 POP JUMP JUMPDEST PUSH1 0x0 PUSH1 0x20 DUP3 ADD SWAP1 POP DUP2 DUP2 SUB PUSH1 0x0 DUP4 ADD MSTORE PUSH2 0x141F DUP2 PUSH2 0x13E3 JUMP JUMPDEST SWAP1 POP SWAP2 SWAP1 POP JUMP INVALID LOG2 PUSH5 0x6970667358 0x22 SLT KECCAK256 CREATE2 0x27 0xD4 CALLCODE GASLIMIT 0xA7 CALLER PC 0x4D 0x21 0xC0 0x1E DUP10 SWAP5 GT EQ TIMESTAMP 0xA5 DUP9 LOG4 0xD8 0xB7 LOG3 SMOD GT 0xD4 DIV 0x2A 0x5D SHR SWAP2 RETURN PUSH5 0x736F6C6343 STOP ADDMOD 0xF STOP CALLER "
				},
				"gasEstimates": {
					"creation": {
						"codeDepositCost": "1042400",
						"executionCost": "infinite",
						"totalCost": "infinite"
					},
					"external": {
						"TotalAmount()": "2496",
						"TotalFunds()": "2474",
						"amount()": "2495",
						"callCount()": "2518",
						"callPutCard()": "2516",
						"cardNumber()": "infinite",
						"convertAmount()": "212",
						"countTransfer()": "2452",
						"cvv()": "infinite",
						"firstTransferTime()": "2475",
						"getOutCard()": "24500",
						"getTime()": "359",
						"message()": "infinite",
						"receiverFunds()": "2517",
						"sendMoney(uint256,address)": "infinite",
						"setCard(string,string)": "infinite",
						"totalWeekTransactions()": "2473"
					}
				},
				"methodIdentifiers": {
					"TotalAmount()": "7eb9f571",
					"TotalFunds()": "7b9a3f4c",
					"amount()": "aa8c217c",
					"callCount()": "4b28f9a2",
					"callPutCard()": "3c626f00",
					"cardNumber()": "8fa11864",
					"convertAmount()": "0ee6324a",
					"countTransfer()": "34f5ccde",
					"cvv()": "42fb7936",
					"firstTransferTime()": "0e85fa72",
					"getOutCard()": "8e029c0b",
					"getTime()": "557ed1ba",
					"message()": "e21f37ce",
					"receiverFunds()": "bc309496",
					"sendMoney(uint256,address)": "062a7544",
					"setCard(string,string)": "12a029a4",
					"totalWeekTransactions()": "94b5dcaa"
				}
			},
			"storageLayout": {
				"storage": [
					{
						"astId": 3,
						"contract": "Dapp/MoneyTransfer.sol:MoneyTransfer",
						"label": "amount",
						"offset": 0,
						"slot": "0",
						"type": "t_uint256"
					},
					{
						"astId": 5,
						"contract": "Dapp/MoneyTransfer.sol:MoneyTransfer",
						"label": "TotalFunds",
						"offset": 0,
						"slot": "1",
						"type": "t_uint256"
					},
					{
						"astId": 7,
						"contract": "Dapp/MoneyTransfer.sol:MoneyTransfer",
						"label": "receiver",
						"offset": 0,
						"slot": "2",
						"type": "t_address"
					},
					{
						"astId": 13,
						"contract": "Dapp/MoneyTransfer.sol:MoneyTransfer",
						"label": "day",
						"offset": 0,
						"slot": "3",
						"type": "t_uint256"
					},
					{
						"astId": 15,
						"contract": "Dapp/MoneyTransfer.sol:MoneyTransfer",
						"label": "totalWeekTransactions",
						"offset": 0,
						"slot": "4",
						"type": "t_uint256"
					},
					{
						"astId": 17,
						"contract": "Dapp/MoneyTransfer.sol:MoneyTransfer",
						"label": "maxTransaction",
						"offset": 0,
						"slot": "5",
						"type": "t_uint256"
					},
					{
						"astId": 19,
						"contract": "Dapp/MoneyTransfer.sol:MoneyTransfer",
						"label": "minTransaction",
						"offset": 0,
						"slot": "6",
						"type": "t_uint256"
					},
					{
						"astId": 22,
						"contract": "Dapp/MoneyTransfer.sol:MoneyTransfer",
						"label": "countries",
						"offset": 0,
						"slot": "7",
						"type": "t_array(t_uint256)dyn_storage"
					},
					{
						"astId": 24,
						"contract": "Dapp/MoneyTransfer.sol:MoneyTransfer",
						"label": "receiverFunds",
						"offset": 0,
						"slot": "8",
						"type": "t_uint256"
					},
					{
						"astId": 26,
						"contract": "Dapp/MoneyTransfer.sol:MoneyTransfer",
						"label": "message",
						"offset": 0,
						"slot": "9",
						"type": "t_string_storage"
					},
					{
						"astId": 28,
						"contract": "Dapp/MoneyTransfer.sol:MoneyTransfer",
						"label": "cardNumber",
						"offset": 0,
						"slot": "10",
						"type": "t_string_storage"
					},
					{
						"astId": 30,
						"contract": "Dapp/MoneyTransfer.sol:MoneyTransfer",
						"label": "cvv",
						"offset": 0,
						"slot": "11",
						"type": "t_string_storage"
					},
					{
						"astId": 32,
						"contract": "Dapp/MoneyTransfer.sol:MoneyTransfer",
						"label": "TotalAmount",
						"offset": 0,
						"slot": "12",
						"type": "t_uint256"
					},
					{
						"astId": 34,
						"contract": "Dapp/MoneyTransfer.sol:MoneyTransfer",
						"label": "firstTransferTime",
						"offset": 0,
						"slot": "13",
						"type": "t_uint256"
					},
					{
						"astId": 36,
						"contract": "Dapp/MoneyTransfer.sol:MoneyTransfer",
						"label": "countTransfer",
						"offset": 0,
						"slot": "14",
						"type": "t_uint256"
					},
					{
						"astId": 49,
						"contract": "Dapp/MoneyTransfer.sol:MoneyTransfer",
						"label": "callCount",
						"offset": 0,
						"slot": "15",
						"type": "t_uint256"
					},
					{
						"astId": 52,
						"contract": "Dapp/MoneyTransfer.sol:MoneyTransfer",
						"label": "callPutCard",
						"offset": 0,
						"slot": "16",
						"type": "t_bool"
					}
				],
				"types": {
					"t_address": {
						"encoding": "inplace",
						"label": "address",
						"numberOfBytes": "20"
					},
					"t_array(t_uint256)dyn_storage": {
						"base": "t_uint256",
						"encoding": "dynamic_array",
						"label": "uint256[]",
						"numberOfBytes": "32"
					},
					"t_bool": {
						"encoding": "inplace",
						"label": "bool",
						"numberOfBytes": "1"
					},
					"t_string_storage": {
						"encoding": "bytes",
						"label": "string",
						"numberOfBytes": "32"
					},
					"t_uint256": {
						"encoding": "inplace",
						"label": "uint256",
						"numberOfBytes": "32"
					}
				}
			},
			"userdoc": {
				"kind": "user",
				"methods": {},
				"version": 1
			}
		}
	}
}