{
	"Dapp/MoneyTransfer.sol": {
		"MoneyTransfer": {
			"abi": [
				{
					"inputs": [
						{
							"internalType": "uint256",
							"name": "_totalFunds",
							"type": "uint256"
						},
						{
							"internalType": "string",
							"name": "_cardNumber",
							"type": "string"
						},
						{
							"internalType": "string",
							"name": "_cvv",
							"type": "string"
						}
					],
					"stateMutability": "nonpayable",
					"type": "constructor"
				},
				{
					"inputs": [],
					"name": "TotalFunds",
					"outputs": [
						{
							"internalType": "uint256",
							"name": "",
							"type": "uint256"
						}
					],
					"stateMutability": "view",
					"type": "function"
				},
				{
					"inputs": [],
					"name": "amount",
					"outputs": [
						{
							"internalType": "uint256",
							"name": "",
							"type": "uint256"
						}
					],
					"stateMutability": "view",
					"type": "function"
				},
				{
					"inputs": [],
					"name": "cardNumber",
					"outputs": [
						{
							"internalType": "string",
							"name": "",
							"type": "string"
						}
					],
					"stateMutability": "view",
					"type": "function"
				},
				{
					"inputs": [],
					"name": "cvv",
					"outputs": [
						{
							"internalType": "string",
							"name": "",
							"type": "string"
						}
					],
					"stateMutability": "view",
					"type": "function"
				},
				{
					"inputs": [],
					"name": "message",
					"outputs": [
						{
							"internalType": "string",
							"name": "",
							"type": "string"
						}
					],
					"stateMutability": "view",
					"type": "function"
				},
				{
					"inputs": [],
					"name": "receiverFunds",
					"outputs": [
						{
							"internalType": "uint256",
							"name": "",
							"type": "uint256"
						}
					],
					"stateMutability": "view",
					"type": "function"
				},
				{
					"inputs": [
						{
							"internalType": "uint256",
							"name": "_amount",
							"type": "uint256"
						},
						{
							"internalType": "address",
							"name": "_receiver",
							"type": "address"
						}
					],
					"name": "sendMoney",
					"outputs": [],
					"stateMutability": "nonpayable",
					"type": "function"
				},
				{
					"inputs": [],
					"name": "totalWeekTransactions",
					"outputs": [
						{
							"internalType": "uint256",
							"name": "",
							"type": "uint256"
						}
					],
					"stateMutability": "view",
					"type": "function"
				}
			],
			"devdoc": {
				"kind": "dev",
				"methods": {},
				"version": 1
			},
			"evm": {
				"assembly": "    /* \"Dapp/MoneyTransfer.sol\":122:1600  contract MoneyTransfer {... */\n  mstore(0x40, 0x80)\n    /* \"Dapp/MoneyTransfer.sol\":287:295  24 hours */\n  0x015180\n    /* \"Dapp/MoneyTransfer.sol\":276:295  uint day = 24 hours */\n  0x03\n  sstore\n    /* \"Dapp/MoneyTransfer.sol\":550:729  constructor (uint256 _totalFunds, string memory _cardNumber, string memory _cvv){... */\n  callvalue\n  dup1\n  iszero\n  tag_1\n  jumpi\n  0x00\n  dup1\n  revert\ntag_1:\n  pop\n  mload(0x40)\n  sub(codesize, bytecodeSize)\n  dup1\n  bytecodeSize\n  dup4\n  codecopy\n  dup2\n  dup2\n  add\n  0x40\n  mstore\n  dup2\n  add\n  swap1\n  tag_2\n  swap2\n  swap1\n  tag_3\n  jump\t// in\ntag_2:\n    /* \"Dapp/MoneyTransfer.sol\":654:665  _cardNumber */\n  dup2\n    /* \"Dapp/MoneyTransfer.sol\":641:651  cardNumber */\n  0x0a\n    /* \"Dapp/MoneyTransfer.sol\":641:665  cardNumber = _cardNumber */\n  swap1\n  dup2\n  tag_6\n  swap2\n  swap1\n  tag_7\n  jump\t// in\ntag_6:\n  pop\n    /* \"Dapp/MoneyTransfer.sol\":682:686  _cvv */\n  dup1\n    /* \"Dapp/MoneyTransfer.sol\":676:679  cvv */\n  0x0b\n    /* \"Dapp/MoneyTransfer.sol\":676:686  cvv = _cvv */\n  swap1\n  dup2\n  tag_8\n  swap2\n  swap1\n  tag_7\n  jump\t// in\ntag_8:\n  pop\n    /* \"Dapp/MoneyTransfer.sol\":710:721  _totalFunds */\n  dup3\n    /* \"Dapp/MoneyTransfer.sol\":697:707  TotalFunds */\n  0x01\n    /* \"Dapp/MoneyTransfer.sol\":697:721  TotalFunds = _totalFunds */\n  dup2\n  swap1\n  sstore\n  pop\n    /* \"Dapp/MoneyTransfer.sol\":550:729  constructor (uint256 _totalFunds, string memory _cardNumber, string memory _cvv){... */\n  pop\n  pop\n  pop\n    /* \"Dapp/MoneyTransfer.sol\":122:1600  contract MoneyTransfer {... */\n  jump(tag_9)\n    /* \"#utility.yul\":7:82   */\ntag_10:\n    /* \"#utility.yul\":40:46   */\n  0x00\n    /* \"#utility.yul\":73:75   */\n  0x40\n    /* \"#utility.yul\":67:76   */\n  mload\n    /* \"#utility.yul\":57:76   */\n  swap1\n  pop\n    /* \"#utility.yul\":7:82   */\n  swap1\n  jump\t// out\n    /* \"#utility.yul\":88:205   */\ntag_11:\n    /* \"#utility.yul\":197:198   */\n  0x00\n    /* \"#utility.yul\":194:195   */\n  dup1\n    /* \"#utility.yul\":187:199   */\n  revert\n    /* \"#utility.yul\":211:328   */\ntag_12:\n    /* \"#utility.yul\":320:321   */\n  0x00\n    /* \"#utility.yul\":317:318   */\n  dup1\n    /* \"#utility.yul\":310:322   */\n  revert\n    /* \"#utility.yul\":334:411   */\ntag_13:\n    /* \"#utility.yul\":371:378   */\n  0x00\n    /* \"#utility.yul\":400:405   */\n  dup2\n    /* \"#utility.yul\":389:405   */\n  swap1\n  pop\n    /* \"#utility.yul\":334:411   */\n  swap2\n  swap1\n  pop\n  jump\t// out\n    /* \"#utility.yul\":417:539   */\ntag_14:\n    /* \"#utility.yul\":490:514   */\n  tag_50\n    /* \"#utility.yul\":508:513   */\n  dup2\n    /* \"#utility.yul\":490:514   */\n  tag_13\n  jump\t// in\ntag_50:\n    /* \"#utility.yul\":483:488   */\n  dup2\n    /* \"#utility.yul\":480:515   */\n  eq\n    /* \"#utility.yul\":470:533   */\n  tag_51\n  jumpi\n    /* \"#utility.yul\":529:530   */\n  0x00\n    /* \"#utility.yul\":526:527   */\n  dup1\n    /* \"#utility.yul\":519:531   */\n  revert\n    /* \"#utility.yul\":470:533   */\ntag_51:\n    /* \"#utility.yul\":417:539   */\n  pop\n  jump\t// out\n    /* \"#utility.yul\":545:688   */\ntag_15:\n    /* \"#utility.yul\":602:607   */\n  0x00\n    /* \"#utility.yul\":633:639   */\n  dup2\n    /* \"#utility.yul\":627:640   */\n  mload\n    /* \"#utility.yul\":618:640   */\n  swap1\n  pop\n    /* \"#utility.yul\":649:682   */\n  tag_53\n    /* \"#utility.yul\":676:681   */\n  dup2\n    /* \"#utility.yul\":649:682   */\n  tag_14\n  jump\t// in\ntag_53:\n    /* \"#utility.yul\":545:688   */\n  swap3\n  swap2\n  pop\n  pop\n  jump\t// out\n    /* \"#utility.yul\":694:811   */\ntag_16:\n    /* \"#utility.yul\":803:804   */\n  0x00\n    /* \"#utility.yul\":800:801   */\n  dup1\n    /* \"#utility.yul\":793:805   */\n  revert\n    /* \"#utility.yul\":817:934   */\ntag_17:\n    /* \"#utility.yul\":926:927   */\n  0x00\n    /* \"#utility.yul\":923:924   */\n  dup1\n    /* \"#utility.yul\":916:928   */\n  revert\n    /* \"#utility.yul\":940:1042   */\ntag_18:\n    /* \"#utility.yul\":981:987   */\n  0x00\n    /* \"#utility.yul\":1032:1034   */\n  0x1f\n    /* \"#utility.yul\":1028:1035   */\n  not\n    /* \"#utility.yul\":1023:1025   */\n  0x1f\n    /* \"#utility.yul\":1016:1021   */\n  dup4\n    /* \"#utility.yul\":1012:1026   */\n  add\n    /* \"#utility.yul\":1008:1036   */\n  and\n    /* \"#utility.yul\":998:1036   */\n  swap1\n  pop\n    /* \"#utility.yul\":940:1042   */\n  swap2\n  swap1\n  pop\n  jump\t// out\n    /* \"#utility.yul\":1048:1228   */\ntag_19:\n    /* \"#utility.yul\":1096:1173   */\n  0x4e487b7100000000000000000000000000000000000000000000000000000000\n    /* \"#utility.yul\":1093:1094   */\n  0x00\n    /* \"#utility.yul\":1086:1174   */\n  mstore\n    /* \"#utility.yul\":1193:1197   */\n  0x41\n    /* \"#utility.yul\":1190:1191   */\n  0x04\n    /* \"#utility.yul\":1183:1198   */\n  mstore\n    /* \"#utility.yul\":1217:1221   */\n  0x24\n    /* \"#utility.yul\":1214:1215   */\n  0x00\n    /* \"#utility.yul\":1207:1222   */\n  revert\n    /* \"#utility.yul\":1234:1515   */\ntag_20:\n    /* \"#utility.yul\":1317:1344   */\n  tag_59\n    /* \"#utility.yul\":1339:1343   */\n  dup3\n    /* \"#utility.yul\":1317:1344   */\n  tag_18\n  jump\t// in\ntag_59:\n    /* \"#utility.yul\":1309:1315   */\n  dup2\n    /* \"#utility.yul\":1305:1345   */\n  add\n    /* \"#utility.yul\":1447:1453   */\n  dup2\n    /* \"#utility.yul\":1435:1445   */\n  dup2\n    /* \"#utility.yul\":1432:1454   */\n  lt\n    /* \"#utility.yul\":1411:1429   */\n  0xffffffffffffffff\n    /* \"#utility.yul\":1399:1409   */\n  dup3\n    /* \"#utility.yul\":1396:1430   */\n  gt\n    /* \"#utility.yul\":1393:1455   */\n  or\n    /* \"#utility.yul\":1390:1478   */\n  iszero\n  tag_60\n  jumpi\n    /* \"#utility.yul\":1458:1476   */\n  tag_61\n  tag_19\n  jump\t// in\ntag_61:\n    /* \"#utility.yul\":1390:1478   */\ntag_60:\n    /* \"#utility.yul\":1498:1508   */\n  dup1\n    /* \"#utility.yul\":1494:1496   */\n  0x40\n    /* \"#utility.yul\":1487:1509   */\n  mstore\n    /* \"#utility.yul\":1277:1515   */\n  pop\n    /* \"#utility.yul\":1234:1515   */\n  pop\n  pop\n  jump\t// out\n    /* \"#utility.yul\":1521:1650   */\ntag_21:\n    /* \"#utility.yul\":1555:1561   */\n  0x00\n    /* \"#utility.yul\":1582:1602   */\n  tag_63\n  tag_10\n  jump\t// in\ntag_63:\n    /* \"#utility.yul\":1572:1602   */\n  swap1\n  pop\n    /* \"#utility.yul\":1611:1644   */\n  tag_64\n    /* \"#utility.yul\":1639:1643   */\n  dup3\n    /* \"#utility.yul\":1631:1637   */\n  dup3\n    /* \"#utility.yul\":1611:1644   */\n  tag_20\n  jump\t// in\ntag_64:\n    /* \"#utility.yul\":1521:1650   */\n  swap2\n  swap1\n  pop\n  jump\t// out\n    /* \"#utility.yul\":1656:1964   */\ntag_22:\n    /* \"#utility.yul\":1718:1722   */\n  0x00\n    /* \"#utility.yul\":1808:1826   */\n  0xffffffffffffffff\n    /* \"#utility.yul\":1800:1806   */\n  dup3\n    /* \"#utility.yul\":1797:1827   */\n  gt\n    /* \"#utility.yul\":1794:1850   */\n  iszero\n  tag_66\n  jumpi\n    /* \"#utility.yul\":1830:1848   */\n  tag_67\n  tag_19\n  jump\t// in\ntag_67:\n    /* \"#utility.yul\":1794:1850   */\ntag_66:\n    /* \"#utility.yul\":1868:1897   */\n  tag_68\n    /* \"#utility.yul\":1890:1896   */\n  dup3\n    /* \"#utility.yul\":1868:1897   */\n  tag_18\n  jump\t// in\ntag_68:\n    /* \"#utility.yul\":1860:1897   */\n  swap1\n  pop\n    /* \"#utility.yul\":1952:1956   */\n  0x20\n    /* \"#utility.yul\":1946:1950   */\n  dup2\n    /* \"#utility.yul\":1942:1957   */\n  add\n    /* \"#utility.yul\":1934:1957   */\n  swap1\n  pop\n    /* \"#utility.yul\":1656:1964   */\n  swap2\n  swap1\n  pop\n  jump\t// out\n    /* \"#utility.yul\":1970:2277   */\ntag_23:\n    /* \"#utility.yul\":2038:2039   */\n  0x00\n    /* \"#utility.yul\":2048:2161   */\ntag_70:\n    /* \"#utility.yul\":2062:2068   */\n  dup4\n    /* \"#utility.yul\":2059:2060   */\n  dup2\n    /* \"#utility.yul\":2056:2069   */\n  lt\n    /* \"#utility.yul\":2048:2161   */\n  iszero\n  tag_72\n  jumpi\n    /* \"#utility.yul\":2147:2148   */\n  dup1\n    /* \"#utility.yul\":2142:2145   */\n  dup3\n    /* \"#utility.yul\":2138:2149   */\n  add\n    /* \"#utility.yul\":2132:2150   */\n  mload\n    /* \"#utility.yul\":2128:2129   */\n  dup2\n    /* \"#utility.yul\":2123:2126   */\n  dup5\n    /* \"#utility.yul\":2119:2130   */\n  add\n    /* \"#utility.yul\":2112:2151   */\n  mstore\n    /* \"#utility.yul\":2084:2086   */\n  0x20\n    /* \"#utility.yul\":2081:2082   */\n  dup2\n    /* \"#utility.yul\":2077:2087   */\n  add\n    /* \"#utility.yul\":2072:2087   */\n  swap1\n  pop\n    /* \"#utility.yul\":2048:2161   */\n  jump(tag_70)\ntag_72:\n    /* \"#utility.yul\":2179:2185   */\n  dup4\n    /* \"#utility.yul\":2176:2177   */\n  dup2\n    /* \"#utility.yul\":2173:2186   */\n  gt\n    /* \"#utility.yul\":2170:2271   */\n  iszero\n  tag_73\n  jumpi\n    /* \"#utility.yul\":2259:2260   */\n  0x00\n    /* \"#utility.yul\":2250:2256   */\n  dup5\n    /* \"#utility.yul\":2245:2248   */\n  dup5\n    /* \"#utility.yul\":2241:2257   */\n  add\n    /* \"#utility.yul\":2234:2261   */\n  mstore\n    /* \"#utility.yul\":2170:2271   */\ntag_73:\n    /* \"#utility.yul\":2019:2277   */\n  pop\n    /* \"#utility.yul\":1970:2277   */\n  pop\n  pop\n  pop\n  jump\t// out\n    /* \"#utility.yul\":2283:2704   */\ntag_24:\n    /* \"#utility.yul\":2372:2377   */\n  0x00\n    /* \"#utility.yul\":2397:2463   */\n  tag_75\n    /* \"#utility.yul\":2413:2462   */\n  tag_76\n    /* \"#utility.yul\":2455:2461   */\n  dup5\n    /* \"#utility.yul\":2413:2462   */\n  tag_22\n  jump\t// in\ntag_76:\n    /* \"#utility.yul\":2397:2463   */\n  tag_21\n  jump\t// in\ntag_75:\n    /* \"#utility.yul\":2388:2463   */\n  swap1\n  pop\n    /* \"#utility.yul\":2486:2492   */\n  dup3\n    /* \"#utility.yul\":2479:2484   */\n  dup2\n    /* \"#utility.yul\":2472:2493   */\n  mstore\n    /* \"#utility.yul\":2524:2528   */\n  0x20\n    /* \"#utility.yul\":2517:2522   */\n  dup2\n    /* \"#utility.yul\":2513:2529   */\n  add\n    /* \"#utility.yul\":2562:2565   */\n  dup5\n    /* \"#utility.yul\":2553:2559   */\n  dup5\n    /* \"#utility.yul\":2548:2551   */\n  dup5\n    /* \"#utility.yul\":2544:2560   */\n  add\n    /* \"#utility.yul\":2541:2566   */\n  gt\n    /* \"#utility.yul\":2538:2650   */\n  iszero\n  tag_77\n  jumpi\n    /* \"#utility.yul\":2569:2648   */\n  tag_78\n  tag_17\n  jump\t// in\ntag_78:\n    /* \"#utility.yul\":2538:2650   */\ntag_77:\n    /* \"#utility.yul\":2659:2698   */\n  tag_79\n    /* \"#utility.yul\":2691:2697   */\n  dup5\n    /* \"#utility.yul\":2686:2689   */\n  dup3\n    /* \"#utility.yul\":2681:2684   */\n  dup6\n    /* \"#utility.yul\":2659:2698   */\n  tag_23\n  jump\t// in\ntag_79:\n    /* \"#utility.yul\":2378:2704   */\n  pop\n    /* \"#utility.yul\":2283:2704   */\n  swap4\n  swap3\n  pop\n  pop\n  pop\n  jump\t// out\n    /* \"#utility.yul\":2724:3079   */\ntag_25:\n    /* \"#utility.yul\":2791:2796   */\n  0x00\n    /* \"#utility.yul\":2840:2843   */\n  dup3\n    /* \"#utility.yul\":2833:2837   */\n  0x1f\n    /* \"#utility.yul\":2825:2831   */\n  dup4\n    /* \"#utility.yul\":2821:2838   */\n  add\n    /* \"#utility.yul\":2817:2844   */\n  slt\n    /* \"#utility.yul\":2807:2929   */\n  tag_81\n  jumpi\n    /* \"#utility.yul\":2848:2927   */\n  tag_82\n  tag_16\n  jump\t// in\ntag_82:\n    /* \"#utility.yul\":2807:2929   */\ntag_81:\n    /* \"#utility.yul\":2958:2964   */\n  dup2\n    /* \"#utility.yul\":2952:2965   */\n  mload\n    /* \"#utility.yul\":2983:3073   */\n  tag_83\n    /* \"#utility.yul\":3069:3072   */\n  dup5\n    /* \"#utility.yul\":3061:3067   */\n  dup3\n    /* \"#utility.yul\":3054:3058   */\n  0x20\n    /* \"#utility.yul\":3046:3052   */\n  dup7\n    /* \"#utility.yul\":3042:3059   */\n  add\n    /* \"#utility.yul\":2983:3073   */\n  tag_24\n  jump\t// in\ntag_83:\n    /* \"#utility.yul\":2974:3073   */\n  swap2\n  pop\n    /* \"#utility.yul\":2797:3079   */\n  pop\n    /* \"#utility.yul\":2724:3079   */\n  swap3\n  swap2\n  pop\n  pop\n  jump\t// out\n    /* \"#utility.yul\":3085:4094   */\ntag_3:\n    /* \"#utility.yul\":3193:3199   */\n  0x00\n    /* \"#utility.yul\":3201:3207   */\n  dup1\n    /* \"#utility.yul\":3209:3215   */\n  0x00\n    /* \"#utility.yul\":3258:3260   */\n  0x60\n    /* \"#utility.yul\":3246:3255   */\n  dup5\n    /* \"#utility.yul\":3237:3244   */\n  dup7\n    /* \"#utility.yul\":3233:3256   */\n  sub\n    /* \"#utility.yul\":3229:3261   */\n  slt\n    /* \"#utility.yul\":3226:3345   */\n  iszero\n  tag_85\n  jumpi\n    /* \"#utility.yul\":3264:3343   */\n  tag_86\n  tag_11\n  jump\t// in\ntag_86:\n    /* \"#utility.yul\":3226:3345   */\ntag_85:\n    /* \"#utility.yul\":3384:3385   */\n  0x00\n    /* \"#utility.yul\":3409:3473   */\n  tag_87\n    /* \"#utility.yul\":3465:3472   */\n  dup7\n    /* \"#utility.yul\":3456:3462   */\n  dup3\n    /* \"#utility.yul\":3445:3454   */\n  dup8\n    /* \"#utility.yul\":3441:3463   */\n  add\n    /* \"#utility.yul\":3409:3473   */\n  tag_15\n  jump\t// in\ntag_87:\n    /* \"#utility.yul\":3399:3473   */\n  swap4\n  pop\n    /* \"#utility.yul\":3355:3483   */\n  pop\n    /* \"#utility.yul\":3543:3545   */\n  0x20\n    /* \"#utility.yul\":3532:3541   */\n  dup5\n    /* \"#utility.yul\":3528:3546   */\n  add\n    /* \"#utility.yul\":3522:3547   */\n  mload\n    /* \"#utility.yul\":3574:3592   */\n  0xffffffffffffffff\n    /* \"#utility.yul\":3566:3572   */\n  dup2\n    /* \"#utility.yul\":3563:3593   */\n  gt\n    /* \"#utility.yul\":3560:3677   */\n  iszero\n  tag_88\n  jumpi\n    /* \"#utility.yul\":3596:3675   */\n  tag_89\n  tag_12\n  jump\t// in\ntag_89:\n    /* \"#utility.yul\":3560:3677   */\ntag_88:\n    /* \"#utility.yul\":3701:3775   */\n  tag_90\n    /* \"#utility.yul\":3767:3774   */\n  dup7\n    /* \"#utility.yul\":3758:3764   */\n  dup3\n    /* \"#utility.yul\":3747:3756   */\n  dup8\n    /* \"#utility.yul\":3743:3765   */\n  add\n    /* \"#utility.yul\":3701:3775   */\n  tag_25\n  jump\t// in\ntag_90:\n    /* \"#utility.yul\":3691:3775   */\n  swap3\n  pop\n    /* \"#utility.yul\":3493:3785   */\n  pop\n    /* \"#utility.yul\":3845:3847   */\n  0x40\n    /* \"#utility.yul\":3834:3843   */\n  dup5\n    /* \"#utility.yul\":3830:3848   */\n  add\n    /* \"#utility.yul\":3824:3849   */\n  mload\n    /* \"#utility.yul\":3876:3894   */\n  0xffffffffffffffff\n    /* \"#utility.yul\":3868:3874   */\n  dup2\n    /* \"#utility.yul\":3865:3895   */\n  gt\n    /* \"#utility.yul\":3862:3979   */\n  iszero\n  tag_91\n  jumpi\n    /* \"#utility.yul\":3898:3977   */\n  tag_92\n  tag_12\n  jump\t// in\ntag_92:\n    /* \"#utility.yul\":3862:3979   */\ntag_91:\n    /* \"#utility.yul\":4003:4077   */\n  tag_93\n    /* \"#utility.yul\":4069:4076   */\n  dup7\n    /* \"#utility.yul\":4060:4066   */\n  dup3\n    /* \"#utility.yul\":4049:4058   */\n  dup8\n    /* \"#utility.yul\":4045:4067   */\n  add\n    /* \"#utility.yul\":4003:4077   */\n  tag_25\n  jump\t// in\ntag_93:\n    /* \"#utility.yul\":3993:4077   */\n  swap2\n  pop\n    /* \"#utility.yul\":3795:4087   */\n  pop\n    /* \"#utility.yul\":3085:4094   */\n  swap3\n  pop\n  swap3\n  pop\n  swap3\n  jump\t// out\n    /* \"#utility.yul\":4100:4199   */\ntag_26:\n    /* \"#utility.yul\":4152:4158   */\n  0x00\n    /* \"#utility.yul\":4186:4191   */\n  dup2\n    /* \"#utility.yul\":4180:4192   */\n  mload\n    /* \"#utility.yul\":4170:4192   */\n  swap1\n  pop\n    /* \"#utility.yul\":4100:4199   */\n  swap2\n  swap1\n  pop\n  jump\t// out\n    /* \"#utility.yul\":4205:4385   */\ntag_27:\n    /* \"#utility.yul\":4253:4330   */\n  0x4e487b7100000000000000000000000000000000000000000000000000000000\n    /* \"#utility.yul\":4250:4251   */\n  0x00\n    /* \"#utility.yul\":4243:4331   */\n  mstore\n    /* \"#utility.yul\":4350:4354   */\n  0x22\n    /* \"#utility.yul\":4347:4348   */\n  0x04\n    /* \"#utility.yul\":4340:4355   */\n  mstore\n    /* \"#utility.yul\":4374:4378   */\n  0x24\n    /* \"#utility.yul\":4371:4372   */\n  0x00\n    /* \"#utility.yul\":4364:4379   */\n  revert\n    /* \"#utility.yul\":4391:4711   */\ntag_28:\n    /* \"#utility.yul\":4435:4441   */\n  0x00\n    /* \"#utility.yul\":4472:4473   */\n  0x02\n    /* \"#utility.yul\":4466:4470   */\n  dup3\n    /* \"#utility.yul\":4462:4474   */\n  div\n    /* \"#utility.yul\":4452:4474   */\n  swap1\n  pop\n    /* \"#utility.yul\":4519:4520   */\n  0x01\n    /* \"#utility.yul\":4513:4517   */\n  dup3\n    /* \"#utility.yul\":4509:4521   */\n  and\n    /* \"#utility.yul\":4540:4558   */\n  dup1\n    /* \"#utility.yul\":4530:4611   */\n  tag_97\n  jumpi\n    /* \"#utility.yul\":4596:4600   */\n  0x7f\n    /* \"#utility.yul\":4588:4594   */\n  dup3\n    /* \"#utility.yul\":4584:4601   */\n  and\n    /* \"#utility.yul\":4574:4601   */\n  swap2\n  pop\n    /* \"#utility.yul\":4530:4611   */\ntag_97:\n    /* \"#utility.yul\":4658:4660   */\n  0x20\n    /* \"#utility.yul\":4650:4656   */\n  dup3\n    /* \"#utility.yul\":4647:4661   */\n  lt\n    /* \"#utility.yul\":4627:4645   */\n  dup2\n    /* \"#utility.yul\":4624:4662   */\n  sub\n    /* \"#utility.yul\":4621:4705   */\n  tag_98\n  jumpi\n    /* \"#utility.yul\":4677:4695   */\n  tag_99\n  tag_27\n  jump\t// in\ntag_99:\n    /* \"#utility.yul\":4621:4705   */\ntag_98:\n    /* \"#utility.yul\":4442:4711   */\n  pop\n    /* \"#utility.yul\":4391:4711   */\n  swap2\n  swap1\n  pop\n  jump\t// out\n    /* \"#utility.yul\":4717:4858   */\ntag_29:\n    /* \"#utility.yul\":4766:4770   */\n  0x00\n    /* \"#utility.yul\":4789:4792   */\n  dup2\n    /* \"#utility.yul\":4781:4792   */\n  swap1\n  pop\n    /* \"#utility.yul\":4812:4815   */\n  dup2\n    /* \"#utility.yul\":4809:4810   */\n  0x00\n    /* \"#utility.yul\":4802:4816   */\n  mstore\n    /* \"#utility.yul\":4846:4850   */\n  0x20\n    /* \"#utility.yul\":4843:4844   */\n  0x00\n    /* \"#utility.yul\":4833:4851   */\n  keccak256\n    /* \"#utility.yul\":4825:4851   */\n  swap1\n  pop\n    /* \"#utility.yul\":4717:4858   */\n  swap2\n  swap1\n  pop\n  jump\t// out\n    /* \"#utility.yul\":4864:4957   */\ntag_30:\n    /* \"#utility.yul\":4901:4907   */\n  0x00\n    /* \"#utility.yul\":4948:4950   */\n  0x20\n    /* \"#utility.yul\":4943:4945   */\n  0x1f\n    /* \"#utility.yul\":4936:4941   */\n  dup4\n    /* \"#utility.yul\":4932:4946   */\n  add\n    /* \"#utility.yul\":4928:4951   */\n  div\n    /* \"#utility.yul\":4918:4951   */\n  swap1\n  pop\n    /* \"#utility.yul\":4864:4957   */\n  swap2\n  swap1\n  pop\n  jump\t// out\n    /* \"#utility.yul\":4963:5070   */\ntag_31:\n    /* \"#utility.yul\":5007:5015   */\n  0x00\n    /* \"#utility.yul\":5057:5062   */\n  dup3\n    /* \"#utility.yul\":5051:5055   */\n  dup3\n    /* \"#utility.yul\":5047:5063   */\n  shl\n    /* \"#utility.yul\":5026:5063   */\n  swap1\n  pop\n    /* \"#utility.yul\":4963:5070   */\n  swap3\n  swap2\n  pop\n  pop\n  jump\t// out\n    /* \"#utility.yul\":5076:5469   */\ntag_32:\n    /* \"#utility.yul\":5145:5151   */\n  0x00\n    /* \"#utility.yul\":5195:5196   */\n  0x08\n    /* \"#utility.yul\":5183:5193   */\n  dup4\n    /* \"#utility.yul\":5179:5197   */\n  mul\n    /* \"#utility.yul\":5218:5315   */\n  tag_104\n    /* \"#utility.yul\":5248:5314   */\n  0xffffffffffffffffffffffffffffffffffffffffffffffffffffffffffffffff\n    /* \"#utility.yul\":5237:5246   */\n  dup3\n    /* \"#utility.yul\":5218:5315   */\n  tag_31\n  jump\t// in\ntag_104:\n    /* \"#utility.yul\":5336:5375   */\n  tag_105\n    /* \"#utility.yul\":5366:5374   */\n  dup7\n    /* \"#utility.yul\":5355:5364   */\n  dup4\n    /* \"#utility.yul\":5336:5375   */\n  tag_31\n  jump\t// in\ntag_105:\n    /* \"#utility.yul\":5324:5375   */\n  swap6\n  pop\n    /* \"#utility.yul\":5408:5412   */\n  dup1\n    /* \"#utility.yul\":5404:5413   */\n  not\n    /* \"#utility.yul\":5397:5402   */\n  dup5\n    /* \"#utility.yul\":5393:5414   */\n  and\n    /* \"#utility.yul\":5384:5414   */\n  swap4\n  pop\n    /* \"#utility.yul\":5457:5461   */\n  dup1\n    /* \"#utility.yul\":5447:5455   */\n  dup7\n    /* \"#utility.yul\":5443:5462   */\n  and\n    /* \"#utility.yul\":5436:5441   */\n  dup5\n    /* \"#utility.yul\":5433:5463   */\n  or\n    /* \"#utility.yul\":5423:5463   */\n  swap3\n  pop\n    /* \"#utility.yul\":5152:5469   */\n  pop\n  pop\n    /* \"#utility.yul\":5076:5469   */\n  swap4\n  swap3\n  pop\n  pop\n  pop\n  jump\t// out\n    /* \"#utility.yul\":5475:5535   */\ntag_33:\n    /* \"#utility.yul\":5503:5506   */\n  0x00\n    /* \"#utility.yul\":5524:5529   */\n  dup2\n    /* \"#utility.yul\":5517:5529   */\n  swap1\n  pop\n    /* \"#utility.yul\":5475:5535   */\n  swap2\n  swap1\n  pop\n  jump\t// out\n    /* \"#utility.yul\":5541:5683   */\ntag_34:\n    /* \"#utility.yul\":5591:5600   */\n  0x00\n    /* \"#utility.yul\":5624:5677   */\n  tag_108\n    /* \"#utility.yul\":5642:5676   */\n  tag_109\n    /* \"#utility.yul\":5651:5675   */\n  tag_110\n    /* \"#utility.yul\":5669:5674   */\n  dup5\n    /* \"#utility.yul\":5651:5675   */\n  tag_13\n  jump\t// in\ntag_110:\n    /* \"#utility.yul\":5642:5676   */\n  tag_33\n  jump\t// in\ntag_109:\n    /* \"#utility.yul\":5624:5677   */\n  tag_13\n  jump\t// in\ntag_108:\n    /* \"#utility.yul\":5611:5677   */\n  swap1\n  pop\n    /* \"#utility.yul\":5541:5683   */\n  swap2\n  swap1\n  pop\n  jump\t// out\n    /* \"#utility.yul\":5689:5764   */\ntag_35:\n    /* \"#utility.yul\":5732:5735   */\n  0x00\n    /* \"#utility.yul\":5753:5758   */\n  dup2\n    /* \"#utility.yul\":5746:5758   */\n  swap1\n  pop\n    /* \"#utility.yul\":5689:5764   */\n  swap2\n  swap1\n  pop\n  jump\t// out\n    /* \"#utility.yul\":5770:6039   */\ntag_36:\n    /* \"#utility.yul\":5880:5919   */\n  tag_113\n    /* \"#utility.yul\":5911:5918   */\n  dup4\n    /* \"#utility.yul\":5880:5919   */\n  tag_34\n  jump\t// in\ntag_113:\n    /* \"#utility.yul\":5941:6032   */\n  tag_114\n    /* \"#utility.yul\":5990:6031   */\n  tag_115\n    /* \"#utility.yul\":6014:6030   */\n  dup3\n    /* \"#utility.yul\":5990:6031   */\n  tag_35\n  jump\t// in\ntag_115:\n    /* \"#utility.yul\":5982:5988   */\n  dup5\n    /* \"#utility.yul\":5975:5979   */\n  dup5\n    /* \"#utility.yul\":5969:5980   */\n  sload\n    /* \"#utility.yul\":5941:6032   */\n  tag_32\n  jump\t// in\ntag_114:\n    /* \"#utility.yul\":5935:5939   */\n  dup3\n    /* \"#utility.yul\":5928:6033   */\n  sstore\n    /* \"#utility.yul\":5846:6039   */\n  pop\n    /* \"#utility.yul\":5770:6039   */\n  pop\n  pop\n  pop\n  jump\t// out\n    /* \"#utility.yul\":6045:6118   */\ntag_37:\n    /* \"#utility.yul\":6090:6093   */\n  0x00\n    /* \"#utility.yul\":6045:6118   */\n  swap1\n  jump\t// out\n    /* \"#utility.yul\":6124:6313   */\ntag_38:\n    /* \"#utility.yul\":6201:6233   */\n  tag_118\n  tag_37\n  jump\t// in\ntag_118:\n    /* \"#utility.yul\":6242:6307   */\n  tag_119\n    /* \"#utility.yul\":6300:6306   */\n  dup2\n    /* \"#utility.yul\":6292:6298   */\n  dup5\n    /* \"#utility.yul\":6286:6290   */\n  dup5\n    /* \"#utility.yul\":6242:6307   */\n  tag_36\n  jump\t// in\ntag_119:\n    /* \"#utility.yul\":6177:6313   */\n  pop\n    /* \"#utility.yul\":6124:6313   */\n  pop\n  pop\n  jump\t// out\n    /* \"#utility.yul\":6319:6505   */\ntag_39:\n    /* \"#utility.yul\":6379:6499   */\ntag_121:\n    /* \"#utility.yul\":6396:6399   */\n  dup2\n    /* \"#utility.yul\":6389:6394   */\n  dup2\n    /* \"#utility.yul\":6386:6400   */\n  lt\n    /* \"#utility.yul\":6379:6499   */\n  iszero\n  tag_123\n  jumpi\n    /* \"#utility.yul\":6450:6489   */\n  tag_124\n    /* \"#utility.yul\":6487:6488   */\n  0x00\n    /* \"#utility.yul\":6480:6485   */\n  dup3\n    /* \"#utility.yul\":6450:6489   */\n  tag_38\n  jump\t// in\ntag_124:\n    /* \"#utility.yul\":6423:6424   */\n  0x01\n    /* \"#utility.yul\":6416:6421   */\n  dup2\n    /* \"#utility.yul\":6412:6425   */\n  add\n    /* \"#utility.yul\":6403:6425   */\n  swap1\n  pop\n    /* \"#utility.yul\":6379:6499   */\n  jump(tag_121)\ntag_123:\n    /* \"#utility.yul\":6319:6505   */\n  pop\n  pop\n  jump\t// out\n    /* \"#utility.yul\":6511:7054   */\ntag_40:\n    /* \"#utility.yul\":6612:6614   */\n  0x1f\n    /* \"#utility.yul\":6607:6610   */\n  dup3\n    /* \"#utility.yul\":6604:6615   */\n  gt\n    /* \"#utility.yul\":6601:7047   */\n  iszero\n  tag_126\n  jumpi\n    /* \"#utility.yul\":6646:6684   */\n  tag_127\n    /* \"#utility.yul\":6678:6683   */\n  dup2\n    /* \"#utility.yul\":6646:6684   */\n  tag_29\n  jump\t// in\ntag_127:\n    /* \"#utility.yul\":6730:6759   */\n  tag_128\n    /* \"#utility.yul\":6748:6758   */\n  dup5\n    /* \"#utility.yul\":6730:6759   */\n  tag_30\n  jump\t// in\ntag_128:\n    /* \"#utility.yul\":6720:6728   */\n  dup2\n    /* \"#utility.yul\":6716:6760   */\n  add\n    /* \"#utility.yul\":6913:6915   */\n  0x20\n    /* \"#utility.yul\":6901:6911   */\n  dup6\n    /* \"#utility.yul\":6898:6916   */\n  lt\n    /* \"#utility.yul\":6895:6944   */\n  iszero\n  tag_129\n  jumpi\n    /* \"#utility.yul\":6934:6942   */\n  dup2\n    /* \"#utility.yul\":6919:6942   */\n  swap1\n  pop\n    /* \"#utility.yul\":6895:6944   */\ntag_129:\n    /* \"#utility.yul\":6957:7037   */\n  tag_130\n    /* \"#utility.yul\":7013:7035   */\n  tag_131\n    /* \"#utility.yul\":7031:7034   */\n  dup6\n    /* \"#utility.yul\":7013:7035   */\n  tag_30\n  jump\t// in\ntag_131:\n    /* \"#utility.yul\":7003:7011   */\n  dup4\n    /* \"#utility.yul\":6999:7036   */\n  add\n    /* \"#utility.yul\":6986:6997   */\n  dup3\n    /* \"#utility.yul\":6957:7037   */\n  tag_39\n  jump\t// in\ntag_130:\n    /* \"#utility.yul\":6616:7047   */\n  pop\n  pop\n    /* \"#utility.yul\":6601:7047   */\ntag_126:\n    /* \"#utility.yul\":6511:7054   */\n  pop\n  pop\n  pop\n  jump\t// out\n    /* \"#utility.yul\":7060:7177   */\ntag_41:\n    /* \"#utility.yul\":7114:7122   */\n  0x00\n    /* \"#utility.yul\":7164:7169   */\n  dup3\n    /* \"#utility.yul\":7158:7162   */\n  dup3\n    /* \"#utility.yul\":7154:7170   */\n  shr\n    /* \"#utility.yul\":7133:7170   */\n  swap1\n  pop\n    /* \"#utility.yul\":7060:7177   */\n  swap3\n  swap2\n  pop\n  pop\n  jump\t// out\n    /* \"#utility.yul\":7183:7352   */\ntag_42:\n    /* \"#utility.yul\":7227:7233   */\n  0x00\n    /* \"#utility.yul\":7260:7311   */\n  tag_134\n    /* \"#utility.yul\":7308:7309   */\n  0x00\n    /* \"#utility.yul\":7304:7310   */\n  not\n    /* \"#utility.yul\":7296:7301   */\n  dup5\n    /* \"#utility.yul\":7293:7294   */\n  0x08\n    /* \"#utility.yul\":7289:7302   */\n  mul\n    /* \"#utility.yul\":7260:7311   */\n  tag_41\n  jump\t// in\ntag_134:\n    /* \"#utility.yul\":7256:7312   */\n  not\n    /* \"#utility.yul\":7341:7345   */\n  dup1\n    /* \"#utility.yul\":7335:7339   */\n  dup4\n    /* \"#utility.yul\":7331:7346   */\n  and\n    /* \"#utility.yul\":7321:7346   */\n  swap2\n  pop\n    /* \"#utility.yul\":7234:7352   */\n  pop\n    /* \"#utility.yul\":7183:7352   */\n  swap3\n  swap2\n  pop\n  pop\n  jump\t// out\n    /* \"#utility.yul\":7357:7652   */\ntag_43:\n    /* \"#utility.yul\":7433:7437   */\n  0x00\n    /* \"#utility.yul\":7579:7608   */\n  tag_136\n    /* \"#utility.yul\":7604:7607   */\n  dup4\n    /* \"#utility.yul\":7598:7602   */\n  dup4\n    /* \"#utility.yul\":7579:7608   */\n  tag_42\n  jump\t// in\ntag_136:\n    /* \"#utility.yul\":7571:7608   */\n  swap2\n  pop\n    /* \"#utility.yul\":7641:7644   */\n  dup3\n    /* \"#utility.yul\":7638:7639   */\n  0x02\n    /* \"#utility.yul\":7634:7645   */\n  mul\n    /* \"#utility.yul\":7628:7632   */\n  dup3\n    /* \"#utility.yul\":7625:7646   */\n  or\n    /* \"#utility.yul\":7617:7646   */\n  swap1\n  pop\n    /* \"#utility.yul\":7357:7652   */\n  swap3\n  swap2\n  pop\n  pop\n  jump\t// out\n    /* \"#utility.yul\":7657:9052   */\ntag_7:\n    /* \"#utility.yul\":7774:7811   */\n  tag_138\n    /* \"#utility.yul\":7807:7810   */\n  dup3\n    /* \"#utility.yul\":7774:7811   */\n  tag_26\n  jump\t// in\ntag_138:\n    /* \"#utility.yul\":7876:7894   */\n  0xffffffffffffffff\n    /* \"#utility.yul\":7868:7874   */\n  dup2\n    /* \"#utility.yul\":7865:7895   */\n  gt\n    /* \"#utility.yul\":7862:7918   */\n  iszero\n  tag_139\n  jumpi\n    /* \"#utility.yul\":7898:7916   */\n  tag_140\n  tag_19\n  jump\t// in\ntag_140:\n    /* \"#utility.yul\":7862:7918   */\ntag_139:\n    /* \"#utility.yul\":7942:7980   */\n  tag_141\n    /* \"#utility.yul\":7974:7978   */\n  dup3\n    /* \"#utility.yul\":7968:7979   */\n  sload\n    /* \"#utility.yul\":7942:7980   */\n  tag_28\n  jump\t// in\ntag_141:\n    /* \"#utility.yul\":8027:8094   */\n  tag_142\n    /* \"#utility.yul\":8087:8093   */\n  dup3\n    /* \"#utility.yul\":8079:8085   */\n  dup3\n    /* \"#utility.yul\":8073:8077   */\n  dup6\n    /* \"#utility.yul\":8027:8094   */\n  tag_40\n  jump\t// in\ntag_142:\n    /* \"#utility.yul\":8121:8122   */\n  0x00\n    /* \"#utility.yul\":8145:8149   */\n  0x20\n    /* \"#utility.yul\":8132:8149   */\n  swap1\n  pop\n    /* \"#utility.yul\":8177:8179   */\n  0x1f\n    /* \"#utility.yul\":8169:8175   */\n  dup4\n    /* \"#utility.yul\":8166:8180   */\n  gt\n    /* \"#utility.yul\":8194:8195   */\n  0x01\n    /* \"#utility.yul\":8189:8807   */\n  dup2\n  eq\n  tag_144\n  jumpi\n    /* \"#utility.yul\":8851:8852   */\n  0x00\n    /* \"#utility.yul\":8868:8874   */\n  dup5\n    /* \"#utility.yul\":8865:8942   */\n  iszero\n  tag_145\n  jumpi\n    /* \"#utility.yul\":8917:8926   */\n  dup3\n    /* \"#utility.yul\":8912:8915   */\n  dup8\n    /* \"#utility.yul\":8908:8927   */\n  add\n    /* \"#utility.yul\":8902:8928   */\n  mload\n    /* \"#utility.yul\":8893:8928   */\n  swap1\n  pop\n    /* \"#utility.yul\":8865:8942   */\ntag_145:\n    /* \"#utility.yul\":8968:9035   */\n  tag_146\n    /* \"#utility.yul\":9028:9034   */\n  dup6\n    /* \"#utility.yul\":9021:9026   */\n  dup3\n    /* \"#utility.yul\":8968:9035   */\n  tag_43\n  jump\t// in\ntag_146:\n    /* \"#utility.yul\":8962:8966   */\n  dup7\n    /* \"#utility.yul\":8955:9036   */\n  sstore\n    /* \"#utility.yul\":8824:9046   */\n  pop\n    /* \"#utility.yul\":8159:9046   */\n  jump(tag_143)\n    /* \"#utility.yul\":8189:8807   */\ntag_144:\n    /* \"#utility.yul\":8241:8245   */\n  0x1f\n    /* \"#utility.yul\":8237:8246   */\n  not\n    /* \"#utility.yul\":8229:8235   */\n  dup5\n    /* \"#utility.yul\":8225:8247   */\n  and\n    /* \"#utility.yul\":8275:8312   */\n  tag_147\n    /* \"#utility.yul\":8307:8311   */\n  dup7\n    /* \"#utility.yul\":8275:8312   */\n  tag_29\n  jump\t// in\ntag_147:\n    /* \"#utility.yul\":8334:8335   */\n  0x00\n    /* \"#utility.yul\":8348:8556   */\ntag_148:\n    /* \"#utility.yul\":8362:8369   */\n  dup3\n    /* \"#utility.yul\":8359:8360   */\n  dup2\n    /* \"#utility.yul\":8356:8370   */\n  lt\n    /* \"#utility.yul\":8348:8556   */\n  iszero\n  tag_150\n  jumpi\n    /* \"#utility.yul\":8441:8450   */\n  dup5\n    /* \"#utility.yul\":8436:8439   */\n  dup10\n    /* \"#utility.yul\":8432:8451   */\n  add\n    /* \"#utility.yul\":8426:8452   */\n  mload\n    /* \"#utility.yul\":8418:8424   */\n  dup3\n    /* \"#utility.yul\":8411:8453   */\n  sstore\n    /* \"#utility.yul\":8492:8493   */\n  0x01\n    /* \"#utility.yul\":8484:8490   */\n  dup3\n    /* \"#utility.yul\":8480:8494   */\n  add\n    /* \"#utility.yul\":8470:8494   */\n  swap2\n  pop\n    /* \"#utility.yul\":8539:8541   */\n  0x20\n    /* \"#utility.yul\":8528:8537   */\n  dup6\n    /* \"#utility.yul\":8524:8542   */\n  add\n    /* \"#utility.yul\":8511:8542   */\n  swap5\n  pop\n    /* \"#utility.yul\":8385:8389   */\n  0x20\n    /* \"#utility.yul\":8382:8383   */\n  dup2\n    /* \"#utility.yul\":8378:8390   */\n  add\n    /* \"#utility.yul\":8373:8390   */\n  swap1\n  pop\n    /* \"#utility.yul\":8348:8556   */\n  jump(tag_148)\ntag_150:\n    /* \"#utility.yul\":8584:8590   */\n  dup7\n    /* \"#utility.yul\":8575:8582   */\n  dup4\n    /* \"#utility.yul\":8572:8591   */\n  lt\n    /* \"#utility.yul\":8569:8748   */\n  iszero\n  tag_151\n  jumpi\n    /* \"#utility.yul\":8642:8651   */\n  dup5\n    /* \"#utility.yul\":8637:8640   */\n  dup10\n    /* \"#utility.yul\":8633:8652   */\n  add\n    /* \"#utility.yul\":8627:8653   */\n  mload\n    /* \"#utility.yul\":8685:8733   */\n  tag_152\n    /* \"#utility.yul\":8727:8731   */\n  0x1f\n    /* \"#utility.yul\":8719:8725   */\n  dup10\n    /* \"#utility.yul\":8715:8732   */\n  and\n    /* \"#utility.yul\":8704:8713   */\n  dup3\n    /* \"#utility.yul\":8685:8733   */\n  tag_42\n  jump\t// in\ntag_152:\n    /* \"#utility.yul\":8677:8683   */\n  dup4\n    /* \"#utility.yul\":8670:8734   */\n  sstore\n    /* \"#utility.yul\":8592:8748   */\n  pop\n    /* \"#utility.yul\":8569:8748   */\ntag_151:\n    /* \"#utility.yul\":8794:8795   */\n  0x01\n    /* \"#utility.yul\":8790:8791   */\n  0x02\n    /* \"#utility.yul\":8782:8788   */\n  dup9\n    /* \"#utility.yul\":8778:8792   */\n  mul\n    /* \"#utility.yul\":8774:8796   */\n  add\n    /* \"#utility.yul\":8768:8772   */\n  dup9\n    /* \"#utility.yul\":8761:8797   */\n  sstore\n    /* \"#utility.yul\":8196:8807   */\n  pop\n  pop\n  pop\n    /* \"#utility.yul\":8159:9046   */\ntag_143:\n  pop\n    /* \"#utility.yul\":7749:9052   */\n  pop\n  pop\n  pop\n    /* \"#utility.yul\":7657:9052   */\n  pop\n  pop\n  jump\t// out\n    /* \"Dapp/MoneyTransfer.sol\":122:1600  contract MoneyTransfer {... */\ntag_9:\n  dataSize(sub_0)\n  dup1\n  dataOffset(sub_0)\n  0x00\n  codecopy\n  0x00\n  return\nstop\n\nsub_0: assembly {\n        /* \"Dapp/MoneyTransfer.sol\":122:1600  contract MoneyTransfer {... */\n      mstore(0x40, 0x80)\n      callvalue\n      dup1\n      iszero\n      tag_1\n      jumpi\n      0x00\n      dup1\n      revert\n    tag_1:\n      pop\n      jumpi(tag_2, lt(calldatasize, 0x04))\n      shr(0xe0, calldataload(0x00))\n      dup1\n      0x94b5dcaa\n      gt\n      tag_11\n      jumpi\n      dup1\n      0x94b5dcaa\n      eq\n      tag_7\n      jumpi\n      dup1\n      0xaa8c217c\n      eq\n      tag_8\n      jumpi\n      dup1\n      0xbc309496\n      eq\n      tag_9\n      jumpi\n      dup1\n      0xe21f37ce\n      eq\n      tag_10\n      jumpi\n      jump(tag_2)\n    tag_11:\n      dup1\n      0x062a7544\n      eq\n      tag_3\n      jumpi\n      dup1\n      0x42fb7936\n      eq\n      tag_4\n      jumpi\n      dup1\n      0x7b9a3f4c\n      eq\n      tag_5\n      jumpi\n      dup1\n      0x8fa11864\n      eq\n      tag_6\n      jumpi\n    tag_2:\n      0x00\n      dup1\n      revert\n        /* \"Dapp/MoneyTransfer.sol\":739:1120  function sendMoney( uint _amount, address _receiver) public m_validAddress(_receiver) m_checkCard{... */\n    tag_3:\n      tag_12\n      0x04\n      dup1\n      calldatasize\n      sub\n      dup2\n      add\n      swap1\n      tag_13\n      swap2\n      swap1\n      tag_14\n      jump\t// in\n    tag_13:\n      tag_15\n      jump\t// in\n    tag_12:\n      stop\n        /* \"Dapp/MoneyTransfer.sol\":520:537  string public cvv */\n    tag_4:\n      tag_16\n      tag_17\n      jump\t// in\n    tag_16:\n      mload(0x40)\n      tag_18\n      swap2\n      swap1\n      tag_19\n      jump\t// in\n    tag_18:\n      mload(0x40)\n      dup1\n      swap2\n      sub\n      swap1\n      return\n        /* \"Dapp/MoneyTransfer.sol\":184:209  uint256 public TotalFunds */\n    tag_5:\n      tag_20\n      tag_21\n      jump\t// in\n    tag_20:\n      mload(0x40)\n      tag_22\n      swap2\n      swap1\n      tag_23\n      jump\t// in\n    tag_22:\n      mload(0x40)\n      dup1\n      swap2\n      sub\n      swap1\n      return\n        /* \"Dapp/MoneyTransfer.sol\":488:512  string public cardNumber */\n    tag_6:\n      tag_24\n      tag_25\n      jump\t// in\n    tag_24:\n      mload(0x40)\n      tag_26\n      swap2\n      swap1\n      tag_19\n      jump\t// in\n    tag_26:\n      mload(0x40)\n      dup1\n      swap2\n      sub\n      swap1\n      return\n        /* \"Dapp/MoneyTransfer.sol\":302:338  uint256 public totalWeekTransactions */\n    tag_7:\n      tag_27\n      tag_28\n      jump\t// in\n    tag_27:\n      mload(0x40)\n      tag_29\n      swap2\n      swap1\n      tag_23\n      jump\t// in\n    tag_29:\n      mload(0x40)\n      dup1\n      swap2\n      sub\n      swap1\n      return\n        /* \"Dapp/MoneyTransfer.sol\":156:177  uint256 public amount */\n    tag_8:\n      tag_30\n      tag_31\n      jump\t// in\n    tag_30:\n      mload(0x40)\n      tag_32\n      swap2\n      swap1\n      tag_23\n      jump\t// in\n    tag_32:\n      mload(0x40)\n      dup1\n      swap2\n      sub\n      swap1\n      return\n        /* \"Dapp/MoneyTransfer.sol\":425:453  uint256 public receiverFunds */\n    tag_9:\n      tag_33\n      tag_34\n      jump\t// in\n    tag_33:\n      mload(0x40)\n      tag_35\n      swap2\n      swap1\n      tag_23\n      jump\t// in\n    tag_35:\n      mload(0x40)\n      dup1\n      swap2\n      sub\n      swap1\n      return\n        /* \"Dapp/MoneyTransfer.sol\":460:481  string public message */\n    tag_10:\n      tag_36\n      tag_37\n      jump\t// in\n    tag_36:\n      mload(0x40)\n      tag_38\n      swap2\n      swap1\n      tag_19\n      jump\t// in\n    tag_38:\n      mload(0x40)\n      dup1\n      swap2\n      sub\n      swap1\n      return\n        /* \"Dapp/MoneyTransfer.sol\":739:1120  function sendMoney( uint _amount, address _receiver) public m_validAddress(_receiver) m_checkCard{... */\n    tag_15:\n        /* \"Dapp/MoneyTransfer.sol\":814:823  _receiver */\n      dup1\n        /* \"Dapp/MoneyTransfer.sol\":1331:1336  _addr */\n      dup1\n        /* \"Dapp/MoneyTransfer.sol\":1320:1328  receiver */\n      0x02\n      0x00\n        /* \"Dapp/MoneyTransfer.sol\":1320:1336  receiver = _addr */\n      0x0100\n      exp\n      dup2\n      sload\n      dup2\n      0xffffffffffffffffffffffffffffffffffffffff\n      mul\n      not\n      and\n      swap1\n      dup4\n      0xffffffffffffffffffffffffffffffffffffffff\n      and\n      mul\n      or\n      swap1\n      sstore\n      pop\n        /* \"Dapp/MoneyTransfer.sol\":1372:1373  0 */\n      0x00\n        /* \"Dapp/MoneyTransfer.sol\":1355:1374  _addr != address(0) */\n      0xffffffffffffffffffffffffffffffffffffffff\n      and\n        /* \"Dapp/MoneyTransfer.sol\":1355:1360  _addr */\n      dup2\n        /* \"Dapp/MoneyTransfer.sol\":1355:1374  _addr != address(0) */\n      0xffffffffffffffffffffffffffffffffffffffff\n      and\n      sub\n        /* \"Dapp/MoneyTransfer.sol\":1347:1407  require(_addr != address(0), \" This address doesn't exists\") */\n      tag_40\n      jumpi\n      mload(0x40)\n      0x08c379a000000000000000000000000000000000000000000000000000000000\n      dup2\n      mstore\n      0x04\n      add\n      tag_41\n      swap1\n      tag_42\n      jump\t// in\n    tag_41:\n      mload(0x40)\n      dup1\n      swap2\n      sub\n      swap1\n      revert\n    tag_40:\n        /* \"Dapp/MoneyTransfer.sol\":1518:1519  8 */\n      0x08\n        /* \"Dapp/MoneyTransfer.sol\":1496:1506  cardNumber */\n      0x0a\n        /* \"Dapp/MoneyTransfer.sol\":1490:1514  bytes(cardNumber).length */\n      dup1\n      sload\n      tag_44\n      swap1\n      tag_45\n      jump\t// in\n    tag_44:\n      swap1\n      pop\n        /* \"Dapp/MoneyTransfer.sol\":1490:1519  bytes(cardNumber).length == 8 */\n      eq\n        /* \"Dapp/MoneyTransfer.sol\":1490:1545  bytes(cardNumber).length == 8 && bytes(cvv).length == 3 */\n      dup1\n      iszero\n      tag_46\n      jumpi\n      pop\n        /* \"Dapp/MoneyTransfer.sol\":1544:1545  3 */\n      0x03\n        /* \"Dapp/MoneyTransfer.sol\":1529:1532  cvv */\n      0x0b\n        /* \"Dapp/MoneyTransfer.sol\":1523:1540  bytes(cvv).length */\n      dup1\n      sload\n      tag_47\n      swap1\n      tag_45\n      jump\t// in\n    tag_47:\n      swap1\n      pop\n        /* \"Dapp/MoneyTransfer.sol\":1523:1545  bytes(cvv).length == 3 */\n      eq\n        /* \"Dapp/MoneyTransfer.sol\":1490:1545  bytes(cardNumber).length == 8 && bytes(cvv).length == 3 */\n    tag_46:\n        /* \"Dapp/MoneyTransfer.sol\":1482:1565  require(bytes(cardNumber).length == 8 && bytes(cvv).length == 3, \"No valid number\") */\n      tag_48\n      jumpi\n      mload(0x40)\n      0x08c379a000000000000000000000000000000000000000000000000000000000\n      dup2\n      mstore\n      0x04\n      add\n      tag_49\n      swap1\n      tag_50\n      jump\t// in\n    tag_49:\n      mload(0x40)\n      dup1\n      swap2\n      sub\n      swap1\n      revert\n    tag_48:\n        /* \"Dapp/MoneyTransfer.sol\":858:867  _receiver */\n      dup2\n        /* \"Dapp/MoneyTransfer.sol\":847:855  receiver */\n      0x02\n      0x00\n        /* \"Dapp/MoneyTransfer.sol\":847:867  receiver = _receiver */\n      0x0100\n      exp\n      dup2\n      sload\n      dup2\n      0xffffffffffffffffffffffffffffffffffffffff\n      mul\n      not\n      and\n      swap1\n      dup4\n      0xffffffffffffffffffffffffffffffffffffffff\n      and\n      mul\n      or\n      swap1\n      sstore\n      pop\n        /* \"Dapp/MoneyTransfer.sol\":887:894  _amount */\n      dup3\n        /* \"Dapp/MoneyTransfer.sol\":878:884  amount */\n      0x00\n        /* \"Dapp/MoneyTransfer.sol\":878:894  amount = _amount */\n      dup2\n      swap1\n      sstore\n      pop\n        /* \"Dapp/MoneyTransfer.sol\":925:926  0 */\n      0x00\n        /* \"Dapp/MoneyTransfer.sol\":912:922  TotalFunds */\n      sload(0x01)\n        /* \"Dapp/MoneyTransfer.sol\":912:926  TotalFunds > 0 */\n      gt\n        /* \"Dapp/MoneyTransfer.sol\":912:949  TotalFunds > 0 && TotalFunds > amount */\n      dup1\n      iszero\n      tag_52\n      jumpi\n      pop\n        /* \"Dapp/MoneyTransfer.sol\":943:949  amount */\n      sload(0x00)\n        /* \"Dapp/MoneyTransfer.sol\":930:940  TotalFunds */\n      sload(0x01)\n        /* \"Dapp/MoneyTransfer.sol\":930:949  TotalFunds > amount */\n      gt\n        /* \"Dapp/MoneyTransfer.sol\":912:949  TotalFunds > 0 && TotalFunds > amount */\n    tag_52:\n        /* \"Dapp/MoneyTransfer.sol\":909:1113  if(TotalFunds > 0 && TotalFunds > amount){... */\n      iszero\n      tag_53\n      jumpi\n        /* \"Dapp/MoneyTransfer.sol\":979:985  amount */\n      sload(0x00)\n        /* \"Dapp/MoneyTransfer.sol\":965:975  TotalFunds */\n      0x01\n      0x00\n        /* \"Dapp/MoneyTransfer.sol\":965:985  TotalFunds -= amount */\n      dup3\n      dup3\n      sload\n      tag_54\n      swap2\n      swap1\n      tag_55\n      jump\t// in\n    tag_54:\n      swap3\n      pop\n      pop\n      dup2\n      swap1\n      sstore\n      pop\n        /* \"Dapp/MoneyTransfer.sol\":1000:1030  message = \"Transfer completed\" */\n      mload(0x40)\n      dup1\n      0x40\n      add\n      0x40\n      mstore\n      dup1\n      0x12\n      dup2\n      mstore\n      0x20\n      add\n      0x5472616e7366657220636f6d706c657465640000000000000000000000000000\n      dup2\n      mstore\n      pop\n        /* \"Dapp/MoneyTransfer.sol\":1000:1007  message */\n      0x09\n        /* \"Dapp/MoneyTransfer.sol\":1000:1030  message = \"Transfer completed\" */\n      swap1\n      dup2\n      tag_56\n      swap2\n      swap1\n      tag_57\n      jump\t// in\n    tag_56:\n      pop\n        /* \"Dapp/MoneyTransfer.sol\":909:1113  if(TotalFunds > 0 && TotalFunds > amount){... */\n      jump(tag_58)\n    tag_53:\n        /* \"Dapp/MoneyTransfer.sol\":1072:1101  message = \"Not enough founds\" */\n      mload(0x40)\n      dup1\n      0x40\n      add\n      0x40\n      mstore\n      dup1\n      0x11\n      dup2\n      mstore\n      0x20\n      add\n      0x4e6f7420656e6f75676820666f756e6473000000000000000000000000000000\n      dup2\n      mstore\n      pop\n        /* \"Dapp/MoneyTransfer.sol\":1072:1079  message */\n      0x09\n        /* \"Dapp/MoneyTransfer.sol\":1072:1101  message = \"Not enough founds\" */\n      swap1\n      dup2\n      tag_59\n      swap2\n      swap1\n      tag_57\n      jump\t// in\n    tag_59:\n      pop\n        /* \"Dapp/MoneyTransfer.sol\":909:1113  if(TotalFunds > 0 && TotalFunds > amount){... */\n    tag_58:\n        /* \"Dapp/MoneyTransfer.sol\":739:1120  function sendMoney( uint _amount, address _receiver) public m_validAddress(_receiver) m_checkCard{... */\n      pop\n      pop\n      pop\n      jump\t// out\n        /* \"Dapp/MoneyTransfer.sol\":520:537  string public cvv */\n    tag_17:\n      0x0b\n      dup1\n      sload\n      tag_60\n      swap1\n      tag_45\n      jump\t// in\n    tag_60:\n      dup1\n      0x1f\n      add\n      0x20\n      dup1\n      swap2\n      div\n      mul\n      0x20\n      add\n      mload(0x40)\n      swap1\n      dup2\n      add\n      0x40\n      mstore\n      dup1\n      swap3\n      swap2\n      swap1\n      dup2\n      dup2\n      mstore\n      0x20\n      add\n      dup3\n      dup1\n      sload\n      tag_61\n      swap1\n      tag_45\n      jump\t// in\n    tag_61:\n      dup1\n      iszero\n      tag_62\n      jumpi\n      dup1\n      0x1f\n      lt\n      tag_63\n      jumpi\n      0x0100\n      dup1\n      dup4\n      sload\n      div\n      mul\n      dup4\n      mstore\n      swap2\n      0x20\n      add\n      swap2\n      jump(tag_62)\n    tag_63:\n      dup3\n      add\n      swap2\n      swap1\n      0x00\n      mstore\n      keccak256(0x00, 0x20)\n      swap1\n    tag_64:\n      dup2\n      sload\n      dup2\n      mstore\n      swap1\n      0x01\n      add\n      swap1\n      0x20\n      add\n      dup1\n      dup4\n      gt\n      tag_64\n      jumpi\n      dup3\n      swap1\n      sub\n      0x1f\n      and\n      dup3\n      add\n      swap2\n    tag_62:\n      pop\n      pop\n      pop\n      pop\n      pop\n      dup2\n      jump\t// out\n        /* \"Dapp/MoneyTransfer.sol\":184:209  uint256 public TotalFunds */\n    tag_21:\n      sload(0x01)\n      dup2\n      jump\t// out\n        /* \"Dapp/MoneyTransfer.sol\":488:512  string public cardNumber */\n    tag_25:\n      0x0a\n      dup1\n      sload\n      tag_65\n      swap1\n      tag_45\n      jump\t// in\n    tag_65:\n      dup1\n      0x1f\n      add\n      0x20\n      dup1\n      swap2\n      div\n      mul\n      0x20\n      add\n      mload(0x40)\n      swap1\n      dup2\n      add\n      0x40\n      mstore\n      dup1\n      swap3\n      swap2\n      swap1\n      dup2\n      dup2\n      mstore\n      0x20\n      add\n      dup3\n      dup1\n      sload\n      tag_66\n      swap1\n      tag_45\n      jump\t// in\n    tag_66:\n      dup1\n      iszero\n      tag_67\n      jumpi\n      dup1\n      0x1f\n      lt\n      tag_68\n      jumpi\n      0x0100\n      dup1\n      dup4\n      sload\n      div\n      mul\n      dup4\n      mstore\n      swap2\n      0x20\n      add\n      swap2\n      jump(tag_67)\n    tag_68:\n      dup3\n      add\n      swap2\n      swap1\n      0x00\n      mstore\n      keccak256(0x00, 0x20)\n      swap1\n    tag_69:\n      dup2\n      sload\n      dup2\n      mstore\n      swap1\n      0x01\n      add\n      swap1\n      0x20\n      add\n      dup1\n      dup4\n      gt\n      tag_69\n      jumpi\n      dup3\n      swap1\n      sub\n      0x1f\n      and\n      dup3\n      add\n      swap2\n    tag_67:\n      pop\n      pop\n      pop\n      pop\n      pop\n      dup2\n      jump\t// out\n        /* \"Dapp/MoneyTransfer.sol\":302:338  uint256 public totalWeekTransactions */\n    tag_28:\n      sload(0x04)\n      dup2\n      jump\t// out\n        /* \"Dapp/MoneyTransfer.sol\":156:177  uint256 public amount */\n    tag_31:\n      sload(0x00)\n      dup2\n      jump\t// out\n        /* \"Dapp/MoneyTransfer.sol\":425:453  uint256 public receiverFunds */\n    tag_34:\n      sload(0x08)\n      dup2\n      jump\t// out\n        /* \"Dapp/MoneyTransfer.sol\":460:481  string public message */\n    tag_37:\n      0x09\n      dup1\n      sload\n      tag_70\n      swap1\n      tag_45\n      jump\t// in\n    tag_70:\n      dup1\n      0x1f\n      add\n      0x20\n      dup1\n      swap2\n      div\n      mul\n      0x20\n      add\n      mload(0x40)\n      swap1\n      dup2\n      add\n      0x40\n      mstore\n      dup1\n      swap3\n      swap2\n      swap1\n      dup2\n      dup2\n      mstore\n      0x20\n      add\n      dup3\n      dup1\n      sload\n      tag_71\n      swap1\n      tag_45\n      jump\t// in\n    tag_71:\n      dup1\n      iszero\n      tag_72\n      jumpi\n      dup1\n      0x1f\n      lt\n      tag_73\n      jumpi\n      0x0100\n      dup1\n      dup4\n      sload\n      div\n      mul\n      dup4\n      mstore\n      swap2\n      0x20\n      add\n      swap2\n      jump(tag_72)\n    tag_73:\n      dup3\n      add\n      swap2\n      swap1\n      0x00\n      mstore\n      keccak256(0x00, 0x20)\n      swap1\n    tag_74:\n      dup2\n      sload\n      dup2\n      mstore\n      swap1\n      0x01\n      add\n      swap1\n      0x20\n      add\n      dup1\n      dup4\n      gt\n      tag_74\n      jumpi\n      dup3\n      swap1\n      sub\n      0x1f\n      and\n      dup3\n      add\n      swap2\n    tag_72:\n      pop\n      pop\n      pop\n      pop\n      pop\n      dup2\n      jump\t// out\n        /* \"#utility.yul\":88:205   */\n    tag_76:\n        /* \"#utility.yul\":197:198   */\n      0x00\n        /* \"#utility.yul\":194:195   */\n      dup1\n        /* \"#utility.yul\":187:199   */\n      revert\n        /* \"#utility.yul\":334:411   */\n    tag_78:\n        /* \"#utility.yul\":371:378   */\n      0x00\n        /* \"#utility.yul\":400:405   */\n      dup2\n        /* \"#utility.yul\":389:405   */\n      swap1\n      pop\n        /* \"#utility.yul\":334:411   */\n      swap2\n      swap1\n      pop\n      jump\t// out\n        /* \"#utility.yul\":417:539   */\n    tag_79:\n        /* \"#utility.yul\":490:514   */\n      tag_119\n        /* \"#utility.yul\":508:513   */\n      dup2\n        /* \"#utility.yul\":490:514   */\n      tag_78\n      jump\t// in\n    tag_119:\n        /* \"#utility.yul\":483:488   */\n      dup2\n        /* \"#utility.yul\":480:515   */\n      eq\n        /* \"#utility.yul\":470:533   */\n      tag_120\n      jumpi\n        /* \"#utility.yul\":529:530   */\n      0x00\n        /* \"#utility.yul\":526:527   */\n      dup1\n        /* \"#utility.yul\":519:531   */\n      revert\n        /* \"#utility.yul\":470:533   */\n    tag_120:\n        /* \"#utility.yul\":417:539   */\n      pop\n      jump\t// out\n        /* \"#utility.yul\":545:684   */\n    tag_80:\n        /* \"#utility.yul\":591:596   */\n      0x00\n        /* \"#utility.yul\":629:635   */\n      dup2\n        /* \"#utility.yul\":616:636   */\n      calldataload\n        /* \"#utility.yul\":607:636   */\n      swap1\n      pop\n        /* \"#utility.yul\":645:678   */\n      tag_122\n        /* \"#utility.yul\":672:677   */\n      dup2\n        /* \"#utility.yul\":645:678   */\n      tag_79\n      jump\t// in\n    tag_122:\n        /* \"#utility.yul\":545:684   */\n      swap3\n      swap2\n      pop\n      pop\n      jump\t// out\n        /* \"#utility.yul\":690:816   */\n    tag_81:\n        /* \"#utility.yul\":727:734   */\n      0x00\n        /* \"#utility.yul\":767:809   */\n      0xffffffffffffffffffffffffffffffffffffffff\n        /* \"#utility.yul\":760:765   */\n      dup3\n        /* \"#utility.yul\":756:810   */\n      and\n        /* \"#utility.yul\":745:810   */\n      swap1\n      pop\n        /* \"#utility.yul\":690:816   */\n      swap2\n      swap1\n      pop\n      jump\t// out\n        /* \"#utility.yul\":822:918   */\n    tag_82:\n        /* \"#utility.yul\":859:866   */\n      0x00\n        /* \"#utility.yul\":888:912   */\n      tag_125\n        /* \"#utility.yul\":906:911   */\n      dup3\n        /* \"#utility.yul\":888:912   */\n      tag_81\n      jump\t// in\n    tag_125:\n        /* \"#utility.yul\":877:912   */\n      swap1\n      pop\n        /* \"#utility.yul\":822:918   */\n      swap2\n      swap1\n      pop\n      jump\t// out\n        /* \"#utility.yul\":924:1046   */\n    tag_83:\n        /* \"#utility.yul\":997:1021   */\n      tag_127\n        /* \"#utility.yul\":1015:1020   */\n      dup2\n        /* \"#utility.yul\":997:1021   */\n      tag_82\n      jump\t// in\n    tag_127:\n        /* \"#utility.yul\":990:995   */\n      dup2\n        /* \"#utility.yul\":987:1022   */\n      eq\n        /* \"#utility.yul\":977:1040   */\n      tag_128\n      jumpi\n        /* \"#utility.yul\":1036:1037   */\n      0x00\n        /* \"#utility.yul\":1033:1034   */\n      dup1\n        /* \"#utility.yul\":1026:1038   */\n      revert\n        /* \"#utility.yul\":977:1040   */\n    tag_128:\n        /* \"#utility.yul\":924:1046   */\n      pop\n      jump\t// out\n        /* \"#utility.yul\":1052:1191   */\n    tag_84:\n        /* \"#utility.yul\":1098:1103   */\n      0x00\n        /* \"#utility.yul\":1136:1142   */\n      dup2\n        /* \"#utility.yul\":1123:1143   */\n      calldataload\n        /* \"#utility.yul\":1114:1143   */\n      swap1\n      pop\n        /* \"#utility.yul\":1152:1185   */\n      tag_130\n        /* \"#utility.yul\":1179:1184   */\n      dup2\n        /* \"#utility.yul\":1152:1185   */\n      tag_83\n      jump\t// in\n    tag_130:\n        /* \"#utility.yul\":1052:1191   */\n      swap3\n      swap2\n      pop\n      pop\n      jump\t// out\n        /* \"#utility.yul\":1197:1671   */\n    tag_14:\n        /* \"#utility.yul\":1265:1271   */\n      0x00\n        /* \"#utility.yul\":1273:1279   */\n      dup1\n        /* \"#utility.yul\":1322:1324   */\n      0x40\n        /* \"#utility.yul\":1310:1319   */\n      dup4\n        /* \"#utility.yul\":1301:1308   */\n      dup6\n        /* \"#utility.yul\":1297:1320   */\n      sub\n        /* \"#utility.yul\":1293:1325   */\n      slt\n        /* \"#utility.yul\":1290:1409   */\n      iszero\n      tag_132\n      jumpi\n        /* \"#utility.yul\":1328:1407   */\n      tag_133\n      tag_76\n      jump\t// in\n    tag_133:\n        /* \"#utility.yul\":1290:1409   */\n    tag_132:\n        /* \"#utility.yul\":1448:1449   */\n      0x00\n        /* \"#utility.yul\":1473:1526   */\n      tag_134\n        /* \"#utility.yul\":1518:1525   */\n      dup6\n        /* \"#utility.yul\":1509:1515   */\n      dup3\n        /* \"#utility.yul\":1498:1507   */\n      dup7\n        /* \"#utility.yul\":1494:1516   */\n      add\n        /* \"#utility.yul\":1473:1526   */\n      tag_80\n      jump\t// in\n    tag_134:\n        /* \"#utility.yul\":1463:1526   */\n      swap3\n      pop\n        /* \"#utility.yul\":1419:1536   */\n      pop\n        /* \"#utility.yul\":1575:1577   */\n      0x20\n        /* \"#utility.yul\":1601:1654   */\n      tag_135\n        /* \"#utility.yul\":1646:1653   */\n      dup6\n        /* \"#utility.yul\":1637:1643   */\n      dup3\n        /* \"#utility.yul\":1626:1635   */\n      dup7\n        /* \"#utility.yul\":1622:1644   */\n      add\n        /* \"#utility.yul\":1601:1654   */\n      tag_84\n      jump\t// in\n    tag_135:\n        /* \"#utility.yul\":1591:1654   */\n      swap2\n      pop\n        /* \"#utility.yul\":1546:1664   */\n      pop\n        /* \"#utility.yul\":1197:1671   */\n      swap3\n      pop\n      swap3\n      swap1\n      pop\n      jump\t// out\n        /* \"#utility.yul\":1677:1776   */\n    tag_85:\n        /* \"#utility.yul\":1729:1735   */\n      0x00\n        /* \"#utility.yul\":1763:1768   */\n      dup2\n        /* \"#utility.yul\":1757:1769   */\n      mload\n        /* \"#utility.yul\":1747:1769   */\n      swap1\n      pop\n        /* \"#utility.yul\":1677:1776   */\n      swap2\n      swap1\n      pop\n      jump\t// out\n        /* \"#utility.yul\":1782:1951   */\n    tag_86:\n        /* \"#utility.yul\":1866:1877   */\n      0x00\n        /* \"#utility.yul\":1900:1906   */\n      dup3\n        /* \"#utility.yul\":1895:1898   */\n      dup3\n        /* \"#utility.yul\":1888:1907   */\n      mstore\n        /* \"#utility.yul\":1940:1944   */\n      0x20\n        /* \"#utility.yul\":1935:1938   */\n      dup3\n        /* \"#utility.yul\":1931:1945   */\n      add\n        /* \"#utility.yul\":1916:1945   */\n      swap1\n      pop\n        /* \"#utility.yul\":1782:1951   */\n      swap3\n      swap2\n      pop\n      pop\n      jump\t// out\n        /* \"#utility.yul\":1957:2264   */\n    tag_87:\n        /* \"#utility.yul\":2025:2026   */\n      0x00\n        /* \"#utility.yul\":2035:2148   */\n    tag_139:\n        /* \"#utility.yul\":2049:2055   */\n      dup4\n        /* \"#utility.yul\":2046:2047   */\n      dup2\n        /* \"#utility.yul\":2043:2056   */\n      lt\n        /* \"#utility.yul\":2035:2148   */\n      iszero\n      tag_141\n      jumpi\n        /* \"#utility.yul\":2134:2135   */\n      dup1\n        /* \"#utility.yul\":2129:2132   */\n      dup3\n        /* \"#utility.yul\":2125:2136   */\n      add\n        /* \"#utility.yul\":2119:2137   */\n      mload\n        /* \"#utility.yul\":2115:2116   */\n      dup2\n        /* \"#utility.yul\":2110:2113   */\n      dup5\n        /* \"#utility.yul\":2106:2117   */\n      add\n        /* \"#utility.yul\":2099:2138   */\n      mstore\n        /* \"#utility.yul\":2071:2073   */\n      0x20\n        /* \"#utility.yul\":2068:2069   */\n      dup2\n        /* \"#utility.yul\":2064:2074   */\n      add\n        /* \"#utility.yul\":2059:2074   */\n      swap1\n      pop\n        /* \"#utility.yul\":2035:2148   */\n      jump(tag_139)\n    tag_141:\n        /* \"#utility.yul\":2166:2172   */\n      dup4\n        /* \"#utility.yul\":2163:2164   */\n      dup2\n        /* \"#utility.yul\":2160:2173   */\n      gt\n        /* \"#utility.yul\":2157:2258   */\n      iszero\n      tag_142\n      jumpi\n        /* \"#utility.yul\":2246:2247   */\n      0x00\n        /* \"#utility.yul\":2237:2243   */\n      dup5\n        /* \"#utility.yul\":2232:2235   */\n      dup5\n        /* \"#utility.yul\":2228:2244   */\n      add\n        /* \"#utility.yul\":2221:2248   */\n      mstore\n        /* \"#utility.yul\":2157:2258   */\n    tag_142:\n        /* \"#utility.yul\":2006:2264   */\n      pop\n        /* \"#utility.yul\":1957:2264   */\n      pop\n      pop\n      pop\n      jump\t// out\n        /* \"#utility.yul\":2270:2372   */\n    tag_88:\n        /* \"#utility.yul\":2311:2317   */\n      0x00\n        /* \"#utility.yul\":2362:2364   */\n      0x1f\n        /* \"#utility.yul\":2358:2365   */\n      not\n        /* \"#utility.yul\":2353:2355   */\n      0x1f\n        /* \"#utility.yul\":2346:2351   */\n      dup4\n        /* \"#utility.yul\":2342:2356   */\n      add\n        /* \"#utility.yul\":2338:2366   */\n      and\n        /* \"#utility.yul\":2328:2366   */\n      swap1\n      pop\n        /* \"#utility.yul\":2270:2372   */\n      swap2\n      swap1\n      pop\n      jump\t// out\n        /* \"#utility.yul\":2378:2742   */\n    tag_89:\n        /* \"#utility.yul\":2466:2469   */\n      0x00\n        /* \"#utility.yul\":2494:2533   */\n      tag_145\n        /* \"#utility.yul\":2527:2532   */\n      dup3\n        /* \"#utility.yul\":2494:2533   */\n      tag_85\n      jump\t// in\n    tag_145:\n        /* \"#utility.yul\":2549:2620   */\n      tag_146\n        /* \"#utility.yul\":2613:2619   */\n      dup2\n        /* \"#utility.yul\":2608:2611   */\n      dup6\n        /* \"#utility.yul\":2549:2620   */\n      tag_86\n      jump\t// in\n    tag_146:\n        /* \"#utility.yul\":2542:2620   */\n      swap4\n      pop\n        /* \"#utility.yul\":2629:2681   */\n      tag_147\n        /* \"#utility.yul\":2674:2680   */\n      dup2\n        /* \"#utility.yul\":2669:2672   */\n      dup6\n        /* \"#utility.yul\":2662:2666   */\n      0x20\n        /* \"#utility.yul\":2655:2660   */\n      dup7\n        /* \"#utility.yul\":2651:2667   */\n      add\n        /* \"#utility.yul\":2629:2681   */\n      tag_87\n      jump\t// in\n    tag_147:\n        /* \"#utility.yul\":2706:2735   */\n      tag_148\n        /* \"#utility.yul\":2728:2734   */\n      dup2\n        /* \"#utility.yul\":2706:2735   */\n      tag_88\n      jump\t// in\n    tag_148:\n        /* \"#utility.yul\":2701:2704   */\n      dup5\n        /* \"#utility.yul\":2697:2736   */\n      add\n        /* \"#utility.yul\":2690:2736   */\n      swap2\n      pop\n        /* \"#utility.yul\":2470:2742   */\n      pop\n        /* \"#utility.yul\":2378:2742   */\n      swap3\n      swap2\n      pop\n      pop\n      jump\t// out\n        /* \"#utility.yul\":2748:3061   */\n    tag_19:\n        /* \"#utility.yul\":2861:2865   */\n      0x00\n        /* \"#utility.yul\":2899:2901   */\n      0x20\n        /* \"#utility.yul\":2888:2897   */\n      dup3\n        /* \"#utility.yul\":2884:2902   */\n      add\n        /* \"#utility.yul\":2876:2902   */\n      swap1\n      pop\n        /* \"#utility.yul\":2948:2957   */\n      dup2\n        /* \"#utility.yul\":2942:2946   */\n      dup2\n        /* \"#utility.yul\":2938:2958   */\n      sub\n        /* \"#utility.yul\":2934:2935   */\n      0x00\n        /* \"#utility.yul\":2923:2932   */\n      dup4\n        /* \"#utility.yul\":2919:2936   */\n      add\n        /* \"#utility.yul\":2912:2959   */\n      mstore\n        /* \"#utility.yul\":2976:3054   */\n      tag_150\n        /* \"#utility.yul\":3049:3053   */\n      dup2\n        /* \"#utility.yul\":3040:3046   */\n      dup5\n        /* \"#utility.yul\":2976:3054   */\n      tag_89\n      jump\t// in\n    tag_150:\n        /* \"#utility.yul\":2968:3054   */\n      swap1\n      pop\n        /* \"#utility.yul\":2748:3061   */\n      swap3\n      swap2\n      pop\n      pop\n      jump\t// out\n        /* \"#utility.yul\":3067:3185   */\n    tag_90:\n        /* \"#utility.yul\":3154:3178   */\n      tag_152\n        /* \"#utility.yul\":3172:3177   */\n      dup2\n        /* \"#utility.yul\":3154:3178   */\n      tag_78\n      jump\t// in\n    tag_152:\n        /* \"#utility.yul\":3149:3152   */\n      dup3\n        /* \"#utility.yul\":3142:3179   */\n      mstore\n        /* \"#utility.yul\":3067:3185   */\n      pop\n      pop\n      jump\t// out\n        /* \"#utility.yul\":3191:3413   */\n    tag_23:\n        /* \"#utility.yul\":3284:3288   */\n      0x00\n        /* \"#utility.yul\":3322:3324   */\n      0x20\n        /* \"#utility.yul\":3311:3320   */\n      dup3\n        /* \"#utility.yul\":3307:3325   */\n      add\n        /* \"#utility.yul\":3299:3325   */\n      swap1\n      pop\n        /* \"#utility.yul\":3335:3406   */\n      tag_154\n        /* \"#utility.yul\":3403:3404   */\n      0x00\n        /* \"#utility.yul\":3392:3401   */\n      dup4\n        /* \"#utility.yul\":3388:3405   */\n      add\n        /* \"#utility.yul\":3379:3385   */\n      dup5\n        /* \"#utility.yul\":3335:3406   */\n      tag_90\n      jump\t// in\n    tag_154:\n        /* \"#utility.yul\":3191:3413   */\n      swap3\n      swap2\n      pop\n      pop\n      jump\t// out\n        /* \"#utility.yul\":3419:3597   */\n    tag_91:\n        /* \"#utility.yul\":3559:3589   */\n      0x2054686973206164647265737320646f65736e27742065786973747300000000\n        /* \"#utility.yul\":3555:3556   */\n      0x00\n        /* \"#utility.yul\":3547:3553   */\n      dup3\n        /* \"#utility.yul\":3543:3557   */\n      add\n        /* \"#utility.yul\":3536:3590   */\n      mstore\n        /* \"#utility.yul\":3419:3597   */\n      pop\n      jump\t// out\n        /* \"#utility.yul\":3603:3969   */\n    tag_92:\n        /* \"#utility.yul\":3745:3748   */\n      0x00\n        /* \"#utility.yul\":3766:3833   */\n      tag_157\n        /* \"#utility.yul\":3830:3832   */\n      0x1c\n        /* \"#utility.yul\":3825:3828   */\n      dup4\n        /* \"#utility.yul\":3766:3833   */\n      tag_86\n      jump\t// in\n    tag_157:\n        /* \"#utility.yul\":3759:3833   */\n      swap2\n      pop\n        /* \"#utility.yul\":3842:3935   */\n      tag_158\n        /* \"#utility.yul\":3931:3934   */\n      dup3\n        /* \"#utility.yul\":3842:3935   */\n      tag_91\n      jump\t// in\n    tag_158:\n        /* \"#utility.yul\":3960:3962   */\n      0x20\n        /* \"#utility.yul\":3955:3958   */\n      dup3\n        /* \"#utility.yul\":3951:3963   */\n      add\n        /* \"#utility.yul\":3944:3963   */\n      swap1\n      pop\n        /* \"#utility.yul\":3603:3969   */\n      swap2\n      swap1\n      pop\n      jump\t// out\n        /* \"#utility.yul\":3975:4394   */\n    tag_42:\n        /* \"#utility.yul\":4141:4145   */\n      0x00\n        /* \"#utility.yul\":4179:4181   */\n      0x20\n        /* \"#utility.yul\":4168:4177   */\n      dup3\n        /* \"#utility.yul\":4164:4182   */\n      add\n        /* \"#utility.yul\":4156:4182   */\n      swap1\n      pop\n        /* \"#utility.yul\":4228:4237   */\n      dup2\n        /* \"#utility.yul\":4222:4226   */\n      dup2\n        /* \"#utility.yul\":4218:4238   */\n      sub\n        /* \"#utility.yul\":4214:4215   */\n      0x00\n        /* \"#utility.yul\":4203:4212   */\n      dup4\n        /* \"#utility.yul\":4199:4216   */\n      add\n        /* \"#utility.yul\":4192:4239   */\n      mstore\n        /* \"#utility.yul\":4256:4387   */\n      tag_160\n        /* \"#utility.yul\":4382:4386   */\n      dup2\n        /* \"#utility.yul\":4256:4387   */\n      tag_92\n      jump\t// in\n    tag_160:\n        /* \"#utility.yul\":4248:4387   */\n      swap1\n      pop\n        /* \"#utility.yul\":3975:4394   */\n      swap2\n      swap1\n      pop\n      jump\t// out\n        /* \"#utility.yul\":4400:4580   */\n    tag_93:\n        /* \"#utility.yul\":4448:4525   */\n      0x4e487b7100000000000000000000000000000000000000000000000000000000\n        /* \"#utility.yul\":4445:4446   */\n      0x00\n        /* \"#utility.yul\":4438:4526   */\n      mstore\n        /* \"#utility.yul\":4545:4549   */\n      0x22\n        /* \"#utility.yul\":4542:4543   */\n      0x04\n        /* \"#utility.yul\":4535:4550   */\n      mstore\n        /* \"#utility.yul\":4569:4573   */\n      0x24\n        /* \"#utility.yul\":4566:4567   */\n      0x00\n        /* \"#utility.yul\":4559:4574   */\n      revert\n        /* \"#utility.yul\":4586:4906   */\n    tag_45:\n        /* \"#utility.yul\":4630:4636   */\n      0x00\n        /* \"#utility.yul\":4667:4668   */\n      0x02\n        /* \"#utility.yul\":4661:4665   */\n      dup3\n        /* \"#utility.yul\":4657:4669   */\n      div\n        /* \"#utility.yul\":4647:4669   */\n      swap1\n      pop\n        /* \"#utility.yul\":4714:4715   */\n      0x01\n        /* \"#utility.yul\":4708:4712   */\n      dup3\n        /* \"#utility.yul\":4704:4716   */\n      and\n        /* \"#utility.yul\":4735:4753   */\n      dup1\n        /* \"#utility.yul\":4725:4806   */\n      tag_163\n      jumpi\n        /* \"#utility.yul\":4791:4795   */\n      0x7f\n        /* \"#utility.yul\":4783:4789   */\n      dup3\n        /* \"#utility.yul\":4779:4796   */\n      and\n        /* \"#utility.yul\":4769:4796   */\n      swap2\n      pop\n        /* \"#utility.yul\":4725:4806   */\n    tag_163:\n        /* \"#utility.yul\":4853:4855   */\n      0x20\n        /* \"#utility.yul\":4845:4851   */\n      dup3\n        /* \"#utility.yul\":4842:4856   */\n      lt\n        /* \"#utility.yul\":4822:4840   */\n      dup2\n        /* \"#utility.yul\":4819:4857   */\n      sub\n        /* \"#utility.yul\":4816:4900   */\n      tag_164\n      jumpi\n        /* \"#utility.yul\":4872:4890   */\n      tag_165\n      tag_93\n      jump\t// in\n    tag_165:\n        /* \"#utility.yul\":4816:4900   */\n    tag_164:\n        /* \"#utility.yul\":4637:4906   */\n      pop\n        /* \"#utility.yul\":4586:4906   */\n      swap2\n      swap1\n      pop\n      jump\t// out\n        /* \"#utility.yul\":4912:5077   */\n    tag_94:\n        /* \"#utility.yul\":5052:5069   */\n      0x4e6f2076616c6964206e756d6265720000000000000000000000000000000000\n        /* \"#utility.yul\":5048:5049   */\n      0x00\n        /* \"#utility.yul\":5040:5046   */\n      dup3\n        /* \"#utility.yul\":5036:5050   */\n      add\n        /* \"#utility.yul\":5029:5070   */\n      mstore\n        /* \"#utility.yul\":4912:5077   */\n      pop\n      jump\t// out\n        /* \"#utility.yul\":5083:5449   */\n    tag_95:\n        /* \"#utility.yul\":5225:5228   */\n      0x00\n        /* \"#utility.yul\":5246:5313   */\n      tag_168\n        /* \"#utility.yul\":5310:5312   */\n      0x0f\n        /* \"#utility.yul\":5305:5308   */\n      dup4\n        /* \"#utility.yul\":5246:5313   */\n      tag_86\n      jump\t// in\n    tag_168:\n        /* \"#utility.yul\":5239:5313   */\n      swap2\n      pop\n        /* \"#utility.yul\":5322:5415   */\n      tag_169\n        /* \"#utility.yul\":5411:5414   */\n      dup3\n        /* \"#utility.yul\":5322:5415   */\n      tag_94\n      jump\t// in\n    tag_169:\n        /* \"#utility.yul\":5440:5442   */\n      0x20\n        /* \"#utility.yul\":5435:5438   */\n      dup3\n        /* \"#utility.yul\":5431:5443   */\n      add\n        /* \"#utility.yul\":5424:5443   */\n      swap1\n      pop\n        /* \"#utility.yul\":5083:5449   */\n      swap2\n      swap1\n      pop\n      jump\t// out\n        /* \"#utility.yul\":5455:5874   */\n    tag_50:\n        /* \"#utility.yul\":5621:5625   */\n      0x00\n        /* \"#utility.yul\":5659:5661   */\n      0x20\n        /* \"#utility.yul\":5648:5657   */\n      dup3\n        /* \"#utility.yul\":5644:5662   */\n      add\n        /* \"#utility.yul\":5636:5662   */\n      swap1\n      pop\n        /* \"#utility.yul\":5708:5717   */\n      dup2\n        /* \"#utility.yul\":5702:5706   */\n      dup2\n        /* \"#utility.yul\":5698:5718   */\n      sub\n        /* \"#utility.yul\":5694:5695   */\n      0x00\n        /* \"#utility.yul\":5683:5692   */\n      dup4\n        /* \"#utility.yul\":5679:5696   */\n      add\n        /* \"#utility.yul\":5672:5719   */\n      mstore\n        /* \"#utility.yul\":5736:5867   */\n      tag_171\n        /* \"#utility.yul\":5862:5866   */\n      dup2\n        /* \"#utility.yul\":5736:5867   */\n      tag_95\n      jump\t// in\n    tag_171:\n        /* \"#utility.yul\":5728:5867   */\n      swap1\n      pop\n        /* \"#utility.yul\":5455:5874   */\n      swap2\n      swap1\n      pop\n      jump\t// out\n        /* \"#utility.yul\":5880:6060   */\n    tag_96:\n        /* \"#utility.yul\":5928:6005   */\n      0x4e487b7100000000000000000000000000000000000000000000000000000000\n        /* \"#utility.yul\":5925:5926   */\n      0x00\n        /* \"#utility.yul\":5918:6006   */\n      mstore\n        /* \"#utility.yul\":6025:6029   */\n      0x11\n        /* \"#utility.yul\":6022:6023   */\n      0x04\n        /* \"#utility.yul\":6015:6030   */\n      mstore\n        /* \"#utility.yul\":6049:6053   */\n      0x24\n        /* \"#utility.yul\":6046:6047   */\n      0x00\n        /* \"#utility.yul\":6039:6054   */\n      revert\n        /* \"#utility.yul\":6066:6257   */\n    tag_55:\n        /* \"#utility.yul\":6106:6110   */\n      0x00\n        /* \"#utility.yul\":6126:6146   */\n      tag_174\n        /* \"#utility.yul\":6144:6145   */\n      dup3\n        /* \"#utility.yul\":6126:6146   */\n      tag_78\n      jump\t// in\n    tag_174:\n        /* \"#utility.yul\":6121:6146   */\n      swap2\n      pop\n        /* \"#utility.yul\":6160:6180   */\n      tag_175\n        /* \"#utility.yul\":6178:6179   */\n      dup4\n        /* \"#utility.yul\":6160:6180   */\n      tag_78\n      jump\t// in\n    tag_175:\n        /* \"#utility.yul\":6155:6180   */\n      swap3\n      pop\n        /* \"#utility.yul\":6199:6200   */\n      dup3\n        /* \"#utility.yul\":6196:6197   */\n      dup3\n        /* \"#utility.yul\":6193:6201   */\n      lt\n        /* \"#utility.yul\":6190:6224   */\n      iszero\n      tag_176\n      jumpi\n        /* \"#utility.yul\":6204:6222   */\n      tag_177\n      tag_96\n      jump\t// in\n    tag_177:\n        /* \"#utility.yul\":6190:6224   */\n    tag_176:\n        /* \"#utility.yul\":6249:6250   */\n      dup3\n        /* \"#utility.yul\":6246:6247   */\n      dup3\n        /* \"#utility.yul\":6242:6251   */\n      sub\n        /* \"#utility.yul\":6234:6251   */\n      swap1\n      pop\n        /* \"#utility.yul\":6066:6257   */\n      swap3\n      swap2\n      pop\n      pop\n      jump\t// out\n        /* \"#utility.yul\":6263:6443   */\n    tag_97:\n        /* \"#utility.yul\":6311:6388   */\n      0x4e487b7100000000000000000000000000000000000000000000000000000000\n        /* \"#utility.yul\":6308:6309   */\n      0x00\n        /* \"#utility.yul\":6301:6389   */\n      mstore\n        /* \"#utility.yul\":6408:6412   */\n      0x41\n        /* \"#utility.yul\":6405:6406   */\n      0x04\n        /* \"#utility.yul\":6398:6413   */\n      mstore\n        /* \"#utility.yul\":6432:6436   */\n      0x24\n        /* \"#utility.yul\":6429:6430   */\n      0x00\n        /* \"#utility.yul\":6422:6437   */\n      revert\n        /* \"#utility.yul\":6449:6590   */\n    tag_98:\n        /* \"#utility.yul\":6498:6502   */\n      0x00\n        /* \"#utility.yul\":6521:6524   */\n      dup2\n        /* \"#utility.yul\":6513:6524   */\n      swap1\n      pop\n        /* \"#utility.yul\":6544:6547   */\n      dup2\n        /* \"#utility.yul\":6541:6542   */\n      0x00\n        /* \"#utility.yul\":6534:6548   */\n      mstore\n        /* \"#utility.yul\":6578:6582   */\n      0x20\n        /* \"#utility.yul\":6575:6576   */\n      0x00\n        /* \"#utility.yul\":6565:6583   */\n      keccak256\n        /* \"#utility.yul\":6557:6583   */\n      swap1\n      pop\n        /* \"#utility.yul\":6449:6590   */\n      swap2\n      swap1\n      pop\n      jump\t// out\n        /* \"#utility.yul\":6596:6689   */\n    tag_99:\n        /* \"#utility.yul\":6633:6639   */\n      0x00\n        /* \"#utility.yul\":6680:6682   */\n      0x20\n        /* \"#utility.yul\":6675:6677   */\n      0x1f\n        /* \"#utility.yul\":6668:6673   */\n      dup4\n        /* \"#utility.yul\":6664:6678   */\n      add\n        /* \"#utility.yul\":6660:6683   */\n      div\n        /* \"#utility.yul\":6650:6683   */\n      swap1\n      pop\n        /* \"#utility.yul\":6596:6689   */\n      swap2\n      swap1\n      pop\n      jump\t// out\n        /* \"#utility.yul\":6695:6802   */\n    tag_100:\n        /* \"#utility.yul\":6739:6747   */\n      0x00\n        /* \"#utility.yul\":6789:6794   */\n      dup3\n        /* \"#utility.yul\":6783:6787   */\n      dup3\n        /* \"#utility.yul\":6779:6795   */\n      shl\n        /* \"#utility.yul\":6758:6795   */\n      swap1\n      pop\n        /* \"#utility.yul\":6695:6802   */\n      swap3\n      swap2\n      pop\n      pop\n      jump\t// out\n        /* \"#utility.yul\":6808:7201   */\n    tag_101:\n        /* \"#utility.yul\":6877:6883   */\n      0x00\n        /* \"#utility.yul\":6927:6928   */\n      0x08\n        /* \"#utility.yul\":6915:6925   */\n      dup4\n        /* \"#utility.yul\":6911:6929   */\n      mul\n        /* \"#utility.yul\":6950:7047   */\n      tag_183\n        /* \"#utility.yul\":6980:7046   */\n      0xffffffffffffffffffffffffffffffffffffffffffffffffffffffffffffffff\n        /* \"#utility.yul\":6969:6978   */\n      dup3\n        /* \"#utility.yul\":6950:7047   */\n      tag_100\n      jump\t// in\n    tag_183:\n        /* \"#utility.yul\":7068:7107   */\n      tag_184\n        /* \"#utility.yul\":7098:7106   */\n      dup7\n        /* \"#utility.yul\":7087:7096   */\n      dup4\n        /* \"#utility.yul\":7068:7107   */\n      tag_100\n      jump\t// in\n    tag_184:\n        /* \"#utility.yul\":7056:7107   */\n      swap6\n      pop\n        /* \"#utility.yul\":7140:7144   */\n      dup1\n        /* \"#utility.yul\":7136:7145   */\n      not\n        /* \"#utility.yul\":7129:7134   */\n      dup5\n        /* \"#utility.yul\":7125:7146   */\n      and\n        /* \"#utility.yul\":7116:7146   */\n      swap4\n      pop\n        /* \"#utility.yul\":7189:7193   */\n      dup1\n        /* \"#utility.yul\":7179:7187   */\n      dup7\n        /* \"#utility.yul\":7175:7194   */\n      and\n        /* \"#utility.yul\":7168:7173   */\n      dup5\n        /* \"#utility.yul\":7165:7195   */\n      or\n        /* \"#utility.yul\":7155:7195   */\n      swap3\n      pop\n        /* \"#utility.yul\":6884:7201   */\n      pop\n      pop\n        /* \"#utility.yul\":6808:7201   */\n      swap4\n      swap3\n      pop\n      pop\n      pop\n      jump\t// out\n        /* \"#utility.yul\":7207:7267   */\n    tag_102:\n        /* \"#utility.yul\":7235:7238   */\n      0x00\n        /* \"#utility.yul\":7256:7261   */\n      dup2\n        /* \"#utility.yul\":7249:7261   */\n      swap1\n      pop\n        /* \"#utility.yul\":7207:7267   */\n      swap2\n      swap1\n      pop\n      jump\t// out\n        /* \"#utility.yul\":7273:7415   */\n    tag_103:\n        /* \"#utility.yul\":7323:7332   */\n      0x00\n        /* \"#utility.yul\":7356:7409   */\n      tag_187\n        /* \"#utility.yul\":7374:7408   */\n      tag_188\n        /* \"#utility.yul\":7383:7407   */\n      tag_189\n        /* \"#utility.yul\":7401:7406   */\n      dup5\n        /* \"#utility.yul\":7383:7407   */\n      tag_78\n      jump\t// in\n    tag_189:\n        /* \"#utility.yul\":7374:7408   */\n      tag_102\n      jump\t// in\n    tag_188:\n        /* \"#utility.yul\":7356:7409   */\n      tag_78\n      jump\t// in\n    tag_187:\n        /* \"#utility.yul\":7343:7409   */\n      swap1\n      pop\n        /* \"#utility.yul\":7273:7415   */\n      swap2\n      swap1\n      pop\n      jump\t// out\n        /* \"#utility.yul\":7421:7496   */\n    tag_104:\n        /* \"#utility.yul\":7464:7467   */\n      0x00\n        /* \"#utility.yul\":7485:7490   */\n      dup2\n        /* \"#utility.yul\":7478:7490   */\n      swap1\n      pop\n        /* \"#utility.yul\":7421:7496   */\n      swap2\n      swap1\n      pop\n      jump\t// out\n        /* \"#utility.yul\":7502:7771   */\n    tag_105:\n        /* \"#utility.yul\":7612:7651   */\n      tag_192\n        /* \"#utility.yul\":7643:7650   */\n      dup4\n        /* \"#utility.yul\":7612:7651   */\n      tag_103\n      jump\t// in\n    tag_192:\n        /* \"#utility.yul\":7673:7764   */\n      tag_193\n        /* \"#utility.yul\":7722:7763   */\n      tag_194\n        /* \"#utility.yul\":7746:7762   */\n      dup3\n        /* \"#utility.yul\":7722:7763   */\n      tag_104\n      jump\t// in\n    tag_194:\n        /* \"#utility.yul\":7714:7720   */\n      dup5\n        /* \"#utility.yul\":7707:7711   */\n      dup5\n        /* \"#utility.yul\":7701:7712   */\n      sload\n        /* \"#utility.yul\":7673:7764   */\n      tag_101\n      jump\t// in\n    tag_193:\n        /* \"#utility.yul\":7667:7671   */\n      dup3\n        /* \"#utility.yul\":7660:7765   */\n      sstore\n        /* \"#utility.yul\":7578:7771   */\n      pop\n        /* \"#utility.yul\":7502:7771   */\n      pop\n      pop\n      pop\n      jump\t// out\n        /* \"#utility.yul\":7777:7850   */\n    tag_106:\n        /* \"#utility.yul\":7822:7825   */\n      0x00\n        /* \"#utility.yul\":7777:7850   */\n      swap1\n      jump\t// out\n        /* \"#utility.yul\":7856:8045   */\n    tag_107:\n        /* \"#utility.yul\":7933:7965   */\n      tag_197\n      tag_106\n      jump\t// in\n    tag_197:\n        /* \"#utility.yul\":7974:8039   */\n      tag_198\n        /* \"#utility.yul\":8032:8038   */\n      dup2\n        /* \"#utility.yul\":8024:8030   */\n      dup5\n        /* \"#utility.yul\":8018:8022   */\n      dup5\n        /* \"#utility.yul\":7974:8039   */\n      tag_105\n      jump\t// in\n    tag_198:\n        /* \"#utility.yul\":7909:8045   */\n      pop\n        /* \"#utility.yul\":7856:8045   */\n      pop\n      pop\n      jump\t// out\n        /* \"#utility.yul\":8051:8237   */\n    tag_108:\n        /* \"#utility.yul\":8111:8231   */\n    tag_200:\n        /* \"#utility.yul\":8128:8131   */\n      dup2\n        /* \"#utility.yul\":8121:8126   */\n      dup2\n        /* \"#utility.yul\":8118:8132   */\n      lt\n        /* \"#utility.yul\":8111:8231   */\n      iszero\n      tag_202\n      jumpi\n        /* \"#utility.yul\":8182:8221   */\n      tag_203\n        /* \"#utility.yul\":8219:8220   */\n      0x00\n        /* \"#utility.yul\":8212:8217   */\n      dup3\n        /* \"#utility.yul\":8182:8221   */\n      tag_107\n      jump\t// in\n    tag_203:\n        /* \"#utility.yul\":8155:8156   */\n      0x01\n        /* \"#utility.yul\":8148:8153   */\n      dup2\n        /* \"#utility.yul\":8144:8157   */\n      add\n        /* \"#utility.yul\":8135:8157   */\n      swap1\n      pop\n        /* \"#utility.yul\":8111:8231   */\n      jump(tag_200)\n    tag_202:\n        /* \"#utility.yul\":8051:8237   */\n      pop\n      pop\n      jump\t// out\n        /* \"#utility.yul\":8243:8786   */\n    tag_109:\n        /* \"#utility.yul\":8344:8346   */\n      0x1f\n        /* \"#utility.yul\":8339:8342   */\n      dup3\n        /* \"#utility.yul\":8336:8347   */\n      gt\n        /* \"#utility.yul\":8333:8779   */\n      iszero\n      tag_205\n      jumpi\n        /* \"#utility.yul\":8378:8416   */\n      tag_206\n        /* \"#utility.yul\":8410:8415   */\n      dup2\n        /* \"#utility.yul\":8378:8416   */\n      tag_98\n      jump\t// in\n    tag_206:\n        /* \"#utility.yul\":8462:8491   */\n      tag_207\n        /* \"#utility.yul\":8480:8490   */\n      dup5\n        /* \"#utility.yul\":8462:8491   */\n      tag_99\n      jump\t// in\n    tag_207:\n        /* \"#utility.yul\":8452:8460   */\n      dup2\n        /* \"#utility.yul\":8448:8492   */\n      add\n        /* \"#utility.yul\":8645:8647   */\n      0x20\n        /* \"#utility.yul\":8633:8643   */\n      dup6\n        /* \"#utility.yul\":8630:8648   */\n      lt\n        /* \"#utility.yul\":8627:8676   */\n      iszero\n      tag_208\n      jumpi\n        /* \"#utility.yul\":8666:8674   */\n      dup2\n        /* \"#utility.yul\":8651:8674   */\n      swap1\n      pop\n        /* \"#utility.yul\":8627:8676   */\n    tag_208:\n        /* \"#utility.yul\":8689:8769   */\n      tag_209\n        /* \"#utility.yul\":8745:8767   */\n      tag_210\n        /* \"#utility.yul\":8763:8766   */\n      dup6\n        /* \"#utility.yul\":8745:8767   */\n      tag_99\n      jump\t// in\n    tag_210:\n        /* \"#utility.yul\":8735:8743   */\n      dup4\n        /* \"#utility.yul\":8731:8768   */\n      add\n        /* \"#utility.yul\":8718:8729   */\n      dup3\n        /* \"#utility.yul\":8689:8769   */\n      tag_108\n      jump\t// in\n    tag_209:\n        /* \"#utility.yul\":8348:8779   */\n      pop\n      pop\n        /* \"#utility.yul\":8333:8779   */\n    tag_205:\n        /* \"#utility.yul\":8243:8786   */\n      pop\n      pop\n      pop\n      jump\t// out\n        /* \"#utility.yul\":8792:8909   */\n    tag_110:\n        /* \"#utility.yul\":8846:8854   */\n      0x00\n        /* \"#utility.yul\":8896:8901   */\n      dup3\n        /* \"#utility.yul\":8890:8894   */\n      dup3\n        /* \"#utility.yul\":8886:8902   */\n      shr\n        /* \"#utility.yul\":8865:8902   */\n      swap1\n      pop\n        /* \"#utility.yul\":8792:8909   */\n      swap3\n      swap2\n      pop\n      pop\n      jump\t// out\n        /* \"#utility.yul\":8915:9084   */\n    tag_111:\n        /* \"#utility.yul\":8959:8965   */\n      0x00\n        /* \"#utility.yul\":8992:9043   */\n      tag_213\n        /* \"#utility.yul\":9040:9041   */\n      0x00\n        /* \"#utility.yul\":9036:9042   */\n      not\n        /* \"#utility.yul\":9028:9033   */\n      dup5\n        /* \"#utility.yul\":9025:9026   */\n      0x08\n        /* \"#utility.yul\":9021:9034   */\n      mul\n        /* \"#utility.yul\":8992:9043   */\n      tag_110\n      jump\t// in\n    tag_213:\n        /* \"#utility.yul\":8988:9044   */\n      not\n        /* \"#utility.yul\":9073:9077   */\n      dup1\n        /* \"#utility.yul\":9067:9071   */\n      dup4\n        /* \"#utility.yul\":9063:9078   */\n      and\n        /* \"#utility.yul\":9053:9078   */\n      swap2\n      pop\n        /* \"#utility.yul\":8966:9084   */\n      pop\n        /* \"#utility.yul\":8915:9084   */\n      swap3\n      swap2\n      pop\n      pop\n      jump\t// out\n        /* \"#utility.yul\":9089:9384   */\n    tag_112:\n        /* \"#utility.yul\":9165:9169   */\n      0x00\n        /* \"#utility.yul\":9311:9340   */\n      tag_215\n        /* \"#utility.yul\":9336:9339   */\n      dup4\n        /* \"#utility.yul\":9330:9334   */\n      dup4\n        /* \"#utility.yul\":9311:9340   */\n      tag_111\n      jump\t// in\n    tag_215:\n        /* \"#utility.yul\":9303:9340   */\n      swap2\n      pop\n        /* \"#utility.yul\":9373:9376   */\n      dup3\n        /* \"#utility.yul\":9370:9371   */\n      0x02\n        /* \"#utility.yul\":9366:9377   */\n      mul\n        /* \"#utility.yul\":9360:9364   */\n      dup3\n        /* \"#utility.yul\":9357:9378   */\n      or\n        /* \"#utility.yul\":9349:9378   */\n      swap1\n      pop\n        /* \"#utility.yul\":9089:9384   */\n      swap3\n      swap2\n      pop\n      pop\n      jump\t// out\n        /* \"#utility.yul\":9389:10784   */\n    tag_57:\n        /* \"#utility.yul\":9506:9543   */\n      tag_217\n        /* \"#utility.yul\":9539:9542   */\n      dup3\n        /* \"#utility.yul\":9506:9543   */\n      tag_85\n      jump\t// in\n    tag_217:\n        /* \"#utility.yul\":9608:9626   */\n      0xffffffffffffffff\n        /* \"#utility.yul\":9600:9606   */\n      dup2\n        /* \"#utility.yul\":9597:9627   */\n      gt\n        /* \"#utility.yul\":9594:9650   */\n      iszero\n      tag_218\n      jumpi\n        /* \"#utility.yul\":9630:9648   */\n      tag_219\n      tag_97\n      jump\t// in\n    tag_219:\n        /* \"#utility.yul\":9594:9650   */\n    tag_218:\n        /* \"#utility.yul\":9674:9712   */\n      tag_220\n        /* \"#utility.yul\":9706:9710   */\n      dup3\n        /* \"#utility.yul\":9700:9711   */\n      sload\n        /* \"#utility.yul\":9674:9712   */\n      tag_45\n      jump\t// in\n    tag_220:\n        /* \"#utility.yul\":9759:9826   */\n      tag_221\n        /* \"#utility.yul\":9819:9825   */\n      dup3\n        /* \"#utility.yul\":9811:9817   */\n      dup3\n        /* \"#utility.yul\":9805:9809   */\n      dup6\n        /* \"#utility.yul\":9759:9826   */\n      tag_109\n      jump\t// in\n    tag_221:\n        /* \"#utility.yul\":9853:9854   */\n      0x00\n        /* \"#utility.yul\":9877:9881   */\n      0x20\n        /* \"#utility.yul\":9864:9881   */\n      swap1\n      pop\n        /* \"#utility.yul\":9909:9911   */\n      0x1f\n        /* \"#utility.yul\":9901:9907   */\n      dup4\n        /* \"#utility.yul\":9898:9912   */\n      gt\n        /* \"#utility.yul\":9926:9927   */\n      0x01\n        /* \"#utility.yul\":9921:10539   */\n      dup2\n      eq\n      tag_223\n      jumpi\n        /* \"#utility.yul\":10583:10584   */\n      0x00\n        /* \"#utility.yul\":10600:10606   */\n      dup5\n        /* \"#utility.yul\":10597:10674   */\n      iszero\n      tag_224\n      jumpi\n        /* \"#utility.yul\":10649:10658   */\n      dup3\n        /* \"#utility.yul\":10644:10647   */\n      dup8\n        /* \"#utility.yul\":10640:10659   */\n      add\n        /* \"#utility.yul\":10634:10660   */\n      mload\n        /* \"#utility.yul\":10625:10660   */\n      swap1\n      pop\n        /* \"#utility.yul\":10597:10674   */\n    tag_224:\n        /* \"#utility.yul\":10700:10767   */\n      tag_225\n        /* \"#utility.yul\":10760:10766   */\n      dup6\n        /* \"#utility.yul\":10753:10758   */\n      dup3\n        /* \"#utility.yul\":10700:10767   */\n      tag_112\n      jump\t// in\n    tag_225:\n        /* \"#utility.yul\":10694:10698   */\n      dup7\n        /* \"#utility.yul\":10687:10768   */\n      sstore\n        /* \"#utility.yul\":10556:10778   */\n      pop\n        /* \"#utility.yul\":9891:10778   */\n      jump(tag_222)\n        /* \"#utility.yul\":9921:10539   */\n    tag_223:\n        /* \"#utility.yul\":9973:9977   */\n      0x1f\n        /* \"#utility.yul\":9969:9978   */\n      not\n        /* \"#utility.yul\":9961:9967   */\n      dup5\n        /* \"#utility.yul\":9957:9979   */\n      and\n        /* \"#utility.yul\":10007:10044   */\n      tag_226\n        /* \"#utility.yul\":10039:10043   */\n      dup7\n        /* \"#utility.yul\":10007:10044   */\n      tag_98\n      jump\t// in\n    tag_226:\n        /* \"#utility.yul\":10066:10067   */\n      0x00\n        /* \"#utility.yul\":10080:10288   */\n    tag_227:\n        /* \"#utility.yul\":10094:10101   */\n      dup3\n        /* \"#utility.yul\":10091:10092   */\n      dup2\n        /* \"#utility.yul\":10088:10102   */\n      lt\n        /* \"#utility.yul\":10080:10288   */\n      iszero\n      tag_229\n      jumpi\n        /* \"#utility.yul\":10173:10182   */\n      dup5\n        /* \"#utility.yul\":10168:10171   */\n      dup10\n        /* \"#utility.yul\":10164:10183   */\n      add\n        /* \"#utility.yul\":10158:10184   */\n      mload\n        /* \"#utility.yul\":10150:10156   */\n      dup3\n        /* \"#utility.yul\":10143:10185   */\n      sstore\n        /* \"#utility.yul\":10224:10225   */\n      0x01\n        /* \"#utility.yul\":10216:10222   */\n      dup3\n        /* \"#utility.yul\":10212:10226   */\n      add\n        /* \"#utility.yul\":10202:10226   */\n      swap2\n      pop\n        /* \"#utility.yul\":10271:10273   */\n      0x20\n        /* \"#utility.yul\":10260:10269   */\n      dup6\n        /* \"#utility.yul\":10256:10274   */\n      add\n        /* \"#utility.yul\":10243:10274   */\n      swap5\n      pop\n        /* \"#utility.yul\":10117:10121   */\n      0x20\n        /* \"#utility.yul\":10114:10115   */\n      dup2\n        /* \"#utility.yul\":10110:10122   */\n      add\n        /* \"#utility.yul\":10105:10122   */\n      swap1\n      pop\n        /* \"#utility.yul\":10080:10288   */\n      jump(tag_227)\n    tag_229:\n        /* \"#utility.yul\":10316:10322   */\n      dup7\n        /* \"#utility.yul\":10307:10314   */\n      dup4\n        /* \"#utility.yul\":10304:10323   */\n      lt\n        /* \"#utility.yul\":10301:10480   */\n      iszero\n      tag_230\n      jumpi\n        /* \"#utility.yul\":10374:10383   */\n      dup5\n        /* \"#utility.yul\":10369:10372   */\n      dup10\n        /* \"#utility.yul\":10365:10384   */\n      add\n        /* \"#utility.yul\":10359:10385   */\n      mload\n        /* \"#utility.yul\":10417:10465   */\n      tag_231\n        /* \"#utility.yul\":10459:10463   */\n      0x1f\n        /* \"#utility.yul\":10451:10457   */\n      dup10\n        /* \"#utility.yul\":10447:10464   */\n      and\n        /* \"#utility.yul\":10436:10445   */\n      dup3\n        /* \"#utility.yul\":10417:10465   */\n      tag_111\n      jump\t// in\n    tag_231:\n        /* \"#utility.yul\":10409:10415   */\n      dup4\n        /* \"#utility.yul\":10402:10466   */\n      sstore\n        /* \"#utility.yul\":10324:10480   */\n      pop\n        /* \"#utility.yul\":10301:10480   */\n    tag_230:\n        /* \"#utility.yul\":10526:10527   */\n      0x01\n        /* \"#utility.yul\":10522:10523   */\n      0x02\n        /* \"#utility.yul\":10514:10520   */\n      dup9\n        /* \"#utility.yul\":10510:10524   */\n      mul\n        /* \"#utility.yul\":10506:10528   */\n      add\n        /* \"#utility.yul\":10500:10504   */\n      dup9\n        /* \"#utility.yul\":10493:10529   */\n      sstore\n        /* \"#utility.yul\":9928:10539   */\n      pop\n      pop\n      pop\n        /* \"#utility.yul\":9891:10778   */\n    tag_222:\n      pop\n        /* \"#utility.yul\":9481:10784   */\n      pop\n      pop\n      pop\n        /* \"#utility.yul\":9389:10784   */\n      pop\n      pop\n      jump\t// out\n\n    auxdata: 0xa26469706673582212203f2efc4bf9b7f98dd96b15aaac0e9cffffee81caa421495878103cad50b1f02b64736f6c634300080f0033\n}\n",
				"bytecode": {
					"linkReferences": {},
					"object": "6080604052620151806003553480156200001857600080fd5b50604051620011c3380380620011c383398181016040528101906200003e91906200024a565b81600a90816200004f919062000525565b5080600b908162000061919062000525565b50826001819055505050506200060c565b6000604051905090565b600080fd5b600080fd5b6000819050919050565b6200009b8162000086565b8114620000a757600080fd5b50565b600081519050620000bb8162000090565b92915050565b600080fd5b600080fd5b6000601f19601f8301169050919050565b7f4e487b7100000000000000000000000000000000000000000000000000000000600052604160045260246000fd5b6200011682620000cb565b810181811067ffffffffffffffff82111715620001385762000137620000dc565b5b80604052505050565b60006200014d62000072565b90506200015b82826200010b565b919050565b600067ffffffffffffffff8211156200017e576200017d620000dc565b5b6200018982620000cb565b9050602081019050919050565b60005b83811015620001b657808201518184015260208101905062000199565b83811115620001c6576000848401525b50505050565b6000620001e3620001dd8462000160565b62000141565b905082815260208101848484011115620002025762000201620000c6565b5b6200020f84828562000196565b509392505050565b600082601f8301126200022f576200022e620000c1565b5b815162000241848260208601620001cc565b91505092915050565b6000806000606084860312156200026657620002656200007c565b5b60006200027686828701620000aa565b935050602084015167ffffffffffffffff8111156200029a576200029962000081565b5b620002a88682870162000217565b925050604084015167ffffffffffffffff811115620002cc57620002cb62000081565b5b620002da8682870162000217565b9150509250925092565b600081519050919050565b7f4e487b7100000000000000000000000000000000000000000000000000000000600052602260045260246000fd5b600060028204905060018216806200033757607f821691505b6020821081036200034d576200034c620002ef565b5b50919050565b60008190508160005260206000209050919050565b60006020601f8301049050919050565b600082821b905092915050565b600060088302620003b77fffffffffffffffffffffffffffffffffffffffffffffffffffffffffffffffff8262000378565b620003c3868362000378565b95508019841693508086168417925050509392505050565b6000819050919050565b60006200040662000400620003fa8462000086565b620003db565b62000086565b9050919050565b6000819050919050565b6200042283620003e5565b6200043a62000431826200040d565b84845462000385565b825550505050565b600090565b6200045162000442565b6200045e81848462000417565b505050565b5b8181101562000486576200047a60008262000447565b60018101905062000464565b5050565b601f821115620004d5576200049f8162000353565b620004aa8462000368565b81016020851015620004ba578190505b620004d2620004c98562000368565b83018262000463565b50505b505050565b600082821c905092915050565b6000620004fa60001984600802620004da565b1980831691505092915050565b6000620005158383620004e7565b9150826002028217905092915050565b6200053082620002e4565b67ffffffffffffffff8111156200054c576200054b620000dc565b5b6200055882546200031e565b620005658282856200048a565b600060209050601f8311600181146200059d576000841562000588578287015190505b62000594858262000507565b86555062000604565b601f198416620005ad8662000353565b60005b82811015620005d757848901518255600182019150602085019450602081019050620005b0565b86831015620005f75784890151620005f3601f891682620004e7565b8355505b6001600288020188555050505b505050505050565b610ba7806200061c6000396000f3fe608060405234801561001057600080fd5b50600436106100885760003560e01c806394b5dcaa1161005b57806394b5dcaa14610103578063aa8c217c14610121578063bc3094961461013f578063e21f37ce1461015d57610088565b8063062a75441461008d57806342fb7936146100a95780637b9a3f4c146100c75780638fa11864146100e5575b600080fd5b6100a760048036038101906100a29190610604565b61017b565b005b6100b16103a9565b6040516100be91906106dd565b60405180910390f35b6100cf610437565b6040516100dc919061070e565b60405180910390f35b6100ed61043d565b6040516100fa91906106dd565b60405180910390f35b61010b6104cb565b604051610118919061070e565b60405180910390f35b6101296104d1565b604051610136919061070e565b60405180910390f35b6101476104d7565b604051610154919061070e565b60405180910390f35b6101656104dd565b60405161017291906106dd565b60405180910390f35b8080600260006101000a81548173ffffffffffffffffffffffffffffffffffffffff021916908373ffffffffffffffffffffffffffffffffffffffff160217905550600073ffffffffffffffffffffffffffffffffffffffff168173ffffffffffffffffffffffffffffffffffffffff160361022c576040517f08c379a000000000000000000000000000000000000000000000000000000000815260040161022390610775565b60405180910390fd5b6008600a805461023b906107c4565b905014801561025857506003600b8054610254906107c4565b9050145b610297576040517f08c379a000000000000000000000000000000000000000000000000000000000815260040161028e90610841565b60405180910390fd5b81600260006101000a81548173ffffffffffffffffffffffffffffffffffffffff021916908373ffffffffffffffffffffffffffffffffffffffff1602179055508260008190555060006001541180156102f45750600054600154115b1561035e576000546001600082825461030d9190610890565b925050819055506040518060400160405280601281526020017f5472616e7366657220636f6d706c657465640000000000000000000000000000815250600990816103589190610a9f565b506103a4565b6040518060400160405280601181526020017f4e6f7420656e6f75676820666f756e6473000000000000000000000000000000815250600990816103a29190610a9f565b505b505050565b600b80546103b6906107c4565b80601f01602080910402602001604051908101604052809291908181526020018280546103e2906107c4565b801561042f5780601f106104045761010080835404028352916020019161042f565b820191906000526020600020905b81548152906001019060200180831161041257829003601f168201915b505050505081565b60015481565b600a805461044a906107c4565b80601f0160208091040260200160405190810160405280929190818152602001828054610476906107c4565b80156104c35780601f10610498576101008083540402835291602001916104c3565b820191906000526020600020905b8154815290600101906020018083116104a657829003601f168201915b505050505081565b60045481565b60005481565b60085481565b600980546104ea906107c4565b80601f0160208091040260200160405190810160405280929190818152602001828054610516906107c4565b80156105635780601f1061053857610100808354040283529160200191610563565b820191906000526020600020905b81548152906001019060200180831161054657829003601f168201915b505050505081565b600080fd5b6000819050919050565b61058381610570565b811461058e57600080fd5b50565b6000813590506105a08161057a565b92915050565b600073ffffffffffffffffffffffffffffffffffffffff82169050919050565b60006105d1826105a6565b9050919050565b6105e1816105c6565b81146105ec57600080fd5b50565b6000813590506105fe816105d8565b92915050565b6000806040838503121561061b5761061a61056b565b5b600061062985828601610591565b925050602061063a858286016105ef565b9150509250929050565b600081519050919050565b600082825260208201905092915050565b60005b8381101561067e578082015181840152602081019050610663565b8381111561068d576000848401525b50505050565b6000601f19601f8301169050919050565b60006106af82610644565b6106b9818561064f565b93506106c9818560208601610660565b6106d281610693565b840191505092915050565b600060208201905081810360008301526106f781846106a4565b905092915050565b61070881610570565b82525050565b600060208201905061072360008301846106ff565b92915050565b7f2054686973206164647265737320646f65736e27742065786973747300000000600082015250565b600061075f601c8361064f565b915061076a82610729565b602082019050919050565b6000602082019050818103600083015261078e81610752565b9050919050565b7f4e487b7100000000000000000000000000000000000000000000000000000000600052602260045260246000fd5b600060028204905060018216806107dc57607f821691505b6020821081036107ef576107ee610795565b5b50919050565b7f4e6f2076616c6964206e756d6265720000000000000000000000000000000000600082015250565b600061082b600f8361064f565b9150610836826107f5565b602082019050919050565b6000602082019050818103600083015261085a8161081e565b9050919050565b7f4e487b7100000000000000000000000000000000000000000000000000000000600052601160045260246000fd5b600061089b82610570565b91506108a683610570565b9250828210156108b9576108b8610861565b5b828203905092915050565b7f4e487b7100000000000000000000000000000000000000000000000000000000600052604160045260246000fd5b60008190508160005260206000209050919050565b60006020601f8301049050919050565b600082821b905092915050565b6000600883026109557fffffffffffffffffffffffffffffffffffffffffffffffffffffffffffffffff82610918565b61095f8683610918565b95508019841693508086168417925050509392505050565b6000819050919050565b600061099c61099761099284610570565b610977565b610570565b9050919050565b6000819050919050565b6109b683610981565b6109ca6109c2826109a3565b848454610925565b825550505050565b600090565b6109df6109d2565b6109ea8184846109ad565b505050565b5b81811015610a0e57610a036000826109d7565b6001810190506109f0565b5050565b601f821115610a5357610a24816108f3565b610a2d84610908565b81016020851015610a3c578190505b610a50610a4885610908565b8301826109ef565b50505b505050565b600082821c905092915050565b6000610a7660001984600802610a58565b1980831691505092915050565b6000610a8f8383610a65565b9150826002028217905092915050565b610aa882610644565b67ffffffffffffffff811115610ac157610ac06108c4565b5b610acb82546107c4565b610ad6828285610a12565b600060209050601f831160018114610b095760008415610af7578287015190505b610b018582610a83565b865550610b69565b601f198416610b17866108f3565b60005b82811015610b3f57848901518255600182019150602085019450602081019050610b1a565b86831015610b5c5784890151610b58601f891682610a65565b8355505b6001600288020188555050505b50505050505056fea26469706673582212203f2efc4bf9b7f98dd96b15aaac0e9cffffee81caa421495878103cad50b1f02b64736f6c634300080f0033",
					"opcodes": "PUSH1 0x80 PUSH1 0x40 MSTORE PUSH3 0x15180 PUSH1 0x3 SSTORE CALLVALUE DUP1 ISZERO PUSH3 0x18 JUMPI PUSH1 0x0 DUP1 REVERT JUMPDEST POP PUSH1 0x40 MLOAD PUSH3 0x11C3 CODESIZE SUB DUP1 PUSH3 0x11C3 DUP4 CODECOPY DUP2 DUP2 ADD PUSH1 0x40 MSTORE DUP2 ADD SWAP1 PUSH3 0x3E SWAP2 SWAP1 PUSH3 0x24A JUMP JUMPDEST DUP2 PUSH1 0xA SWAP1 DUP2 PUSH3 0x4F SWAP2 SWAP1 PUSH3 0x525 JUMP JUMPDEST POP DUP1 PUSH1 0xB SWAP1 DUP2 PUSH3 0x61 SWAP2 SWAP1 PUSH3 0x525 JUMP JUMPDEST POP DUP3 PUSH1 0x1 DUP2 SWAP1 SSTORE POP POP POP POP PUSH3 0x60C JUMP JUMPDEST PUSH1 0x0 PUSH1 0x40 MLOAD SWAP1 POP SWAP1 JUMP JUMPDEST PUSH1 0x0 DUP1 REVERT JUMPDEST PUSH1 0x0 DUP1 REVERT JUMPDEST PUSH1 0x0 DUP2 SWAP1 POP SWAP2 SWAP1 POP JUMP JUMPDEST PUSH3 0x9B DUP2 PUSH3 0x86 JUMP JUMPDEST DUP2 EQ PUSH3 0xA7 JUMPI PUSH1 0x0 DUP1 REVERT JUMPDEST POP JUMP JUMPDEST PUSH1 0x0 DUP2 MLOAD SWAP1 POP PUSH3 0xBB DUP2 PUSH3 0x90 JUMP JUMPDEST SWAP3 SWAP2 POP POP JUMP JUMPDEST PUSH1 0x0 DUP1 REVERT JUMPDEST PUSH1 0x0 DUP1 REVERT JUMPDEST PUSH1 0x0 PUSH1 0x1F NOT PUSH1 0x1F DUP4 ADD AND SWAP1 POP SWAP2 SWAP1 POP JUMP JUMPDEST PUSH32 0x4E487B7100000000000000000000000000000000000000000000000000000000 PUSH1 0x0 MSTORE PUSH1 0x41 PUSH1 0x4 MSTORE PUSH1 0x24 PUSH1 0x0 REVERT JUMPDEST PUSH3 0x116 DUP3 PUSH3 0xCB JUMP JUMPDEST DUP2 ADD DUP2 DUP2 LT PUSH8 0xFFFFFFFFFFFFFFFF DUP3 GT OR ISZERO PUSH3 0x138 JUMPI PUSH3 0x137 PUSH3 0xDC JUMP JUMPDEST JUMPDEST DUP1 PUSH1 0x40 MSTORE POP POP POP JUMP JUMPDEST PUSH1 0x0 PUSH3 0x14D PUSH3 0x72 JUMP JUMPDEST SWAP1 POP PUSH3 0x15B DUP3 DUP3 PUSH3 0x10B JUMP JUMPDEST SWAP2 SWAP1 POP JUMP JUMPDEST PUSH1 0x0 PUSH8 0xFFFFFFFFFFFFFFFF DUP3 GT ISZERO PUSH3 0x17E JUMPI PUSH3 0x17D PUSH3 0xDC JUMP JUMPDEST JUMPDEST PUSH3 0x189 DUP3 PUSH3 0xCB JUMP JUMPDEST SWAP1 POP PUSH1 0x20 DUP2 ADD SWAP1 POP SWAP2 SWAP1 POP JUMP JUMPDEST PUSH1 0x0 JUMPDEST DUP4 DUP2 LT ISZERO PUSH3 0x1B6 JUMPI DUP1 DUP3 ADD MLOAD DUP2 DUP5 ADD MSTORE PUSH1 0x20 DUP2 ADD SWAP1 POP PUSH3 0x199 JUMP JUMPDEST DUP4 DUP2 GT ISZERO PUSH3 0x1C6 JUMPI PUSH1 0x0 DUP5 DUP5 ADD MSTORE JUMPDEST POP POP POP POP JUMP JUMPDEST PUSH1 0x0 PUSH3 0x1E3 PUSH3 0x1DD DUP5 PUSH3 0x160 JUMP JUMPDEST PUSH3 0x141 JUMP JUMPDEST SWAP1 POP DUP3 DUP2 MSTORE PUSH1 0x20 DUP2 ADD DUP5 DUP5 DUP5 ADD GT ISZERO PUSH3 0x202 JUMPI PUSH3 0x201 PUSH3 0xC6 JUMP JUMPDEST JUMPDEST PUSH3 0x20F DUP5 DUP3 DUP6 PUSH3 0x196 JUMP JUMPDEST POP SWAP4 SWAP3 POP POP POP JUMP JUMPDEST PUSH1 0x0 DUP3 PUSH1 0x1F DUP4 ADD SLT PUSH3 0x22F JUMPI PUSH3 0x22E PUSH3 0xC1 JUMP JUMPDEST JUMPDEST DUP2 MLOAD PUSH3 0x241 DUP5 DUP3 PUSH1 0x20 DUP7 ADD PUSH3 0x1CC JUMP JUMPDEST SWAP2 POP POP SWAP3 SWAP2 POP POP JUMP JUMPDEST PUSH1 0x0 DUP1 PUSH1 0x0 PUSH1 0x60 DUP5 DUP7 SUB SLT ISZERO PUSH3 0x266 JUMPI PUSH3 0x265 PUSH3 0x7C JUMP JUMPDEST JUMPDEST PUSH1 0x0 PUSH3 0x276 DUP7 DUP3 DUP8 ADD PUSH3 0xAA JUMP JUMPDEST SWAP4 POP POP PUSH1 0x20 DUP5 ADD MLOAD PUSH8 0xFFFFFFFFFFFFFFFF DUP2 GT ISZERO PUSH3 0x29A JUMPI PUSH3 0x299 PUSH3 0x81 JUMP JUMPDEST JUMPDEST PUSH3 0x2A8 DUP7 DUP3 DUP8 ADD PUSH3 0x217 JUMP JUMPDEST SWAP3 POP POP PUSH1 0x40 DUP5 ADD MLOAD PUSH8 0xFFFFFFFFFFFFFFFF DUP2 GT ISZERO PUSH3 0x2CC JUMPI PUSH3 0x2CB PUSH3 0x81 JUMP JUMPDEST JUMPDEST PUSH3 0x2DA DUP7 DUP3 DUP8 ADD PUSH3 0x217 JUMP JUMPDEST SWAP2 POP POP SWAP3 POP SWAP3 POP SWAP3 JUMP JUMPDEST PUSH1 0x0 DUP2 MLOAD SWAP1 POP SWAP2 SWAP1 POP JUMP JUMPDEST PUSH32 0x4E487B7100000000000000000000000000000000000000000000000000000000 PUSH1 0x0 MSTORE PUSH1 0x22 PUSH1 0x4 MSTORE PUSH1 0x24 PUSH1 0x0 REVERT JUMPDEST PUSH1 0x0 PUSH1 0x2 DUP3 DIV SWAP1 POP PUSH1 0x1 DUP3 AND DUP1 PUSH3 0x337 JUMPI PUSH1 0x7F DUP3 AND SWAP2 POP JUMPDEST PUSH1 0x20 DUP3 LT DUP2 SUB PUSH3 0x34D JUMPI PUSH3 0x34C PUSH3 0x2EF JUMP JUMPDEST JUMPDEST POP SWAP2 SWAP1 POP JUMP JUMPDEST PUSH1 0x0 DUP2 SWAP1 POP DUP2 PUSH1 0x0 MSTORE PUSH1 0x20 PUSH1 0x0 KECCAK256 SWAP1 POP SWAP2 SWAP1 POP JUMP JUMPDEST PUSH1 0x0 PUSH1 0x20 PUSH1 0x1F DUP4 ADD DIV SWAP1 POP SWAP2 SWAP1 POP JUMP JUMPDEST PUSH1 0x0 DUP3 DUP3 SHL SWAP1 POP SWAP3 SWAP2 POP POP JUMP JUMPDEST PUSH1 0x0 PUSH1 0x8 DUP4 MUL PUSH3 0x3B7 PUSH32 0xFFFFFFFFFFFFFFFFFFFFFFFFFFFFFFFFFFFFFFFFFFFFFFFFFFFFFFFFFFFFFFFF DUP3 PUSH3 0x378 JUMP JUMPDEST PUSH3 0x3C3 DUP7 DUP4 PUSH3 0x378 JUMP JUMPDEST SWAP6 POP DUP1 NOT DUP5 AND SWAP4 POP DUP1 DUP7 AND DUP5 OR SWAP3 POP POP POP SWAP4 SWAP3 POP POP POP JUMP JUMPDEST PUSH1 0x0 DUP2 SWAP1 POP SWAP2 SWAP1 POP JUMP JUMPDEST PUSH1 0x0 PUSH3 0x406 PUSH3 0x400 PUSH3 0x3FA DUP5 PUSH3 0x86 JUMP JUMPDEST PUSH3 0x3DB JUMP JUMPDEST PUSH3 0x86 JUMP JUMPDEST SWAP1 POP SWAP2 SWAP1 POP JUMP JUMPDEST PUSH1 0x0 DUP2 SWAP1 POP SWAP2 SWAP1 POP JUMP JUMPDEST PUSH3 0x422 DUP4 PUSH3 0x3E5 JUMP JUMPDEST PUSH3 0x43A PUSH3 0x431 DUP3 PUSH3 0x40D JUMP JUMPDEST DUP5 DUP5 SLOAD PUSH3 0x385 JUMP JUMPDEST DUP3 SSTORE POP POP POP POP JUMP JUMPDEST PUSH1 0x0 SWAP1 JUMP JUMPDEST PUSH3 0x451 PUSH3 0x442 JUMP JUMPDEST PUSH3 0x45E DUP2 DUP5 DUP5 PUSH3 0x417 JUMP JUMPDEST POP POP POP JUMP JUMPDEST JUMPDEST DUP2 DUP2 LT ISZERO PUSH3 0x486 JUMPI PUSH3 0x47A PUSH1 0x0 DUP3 PUSH3 0x447 JUMP JUMPDEST PUSH1 0x1 DUP2 ADD SWAP1 POP PUSH3 0x464 JUMP JUMPDEST POP POP JUMP JUMPDEST PUSH1 0x1F DUP3 GT ISZERO PUSH3 0x4D5 JUMPI PUSH3 0x49F DUP2 PUSH3 0x353 JUMP JUMPDEST PUSH3 0x4AA DUP5 PUSH3 0x368 JUMP JUMPDEST DUP2 ADD PUSH1 0x20 DUP6 LT ISZERO PUSH3 0x4BA JUMPI DUP2 SWAP1 POP JUMPDEST PUSH3 0x4D2 PUSH3 0x4C9 DUP6 PUSH3 0x368 JUMP JUMPDEST DUP4 ADD DUP3 PUSH3 0x463 JUMP JUMPDEST POP POP JUMPDEST POP POP POP JUMP JUMPDEST PUSH1 0x0 DUP3 DUP3 SHR SWAP1 POP SWAP3 SWAP2 POP POP JUMP JUMPDEST PUSH1 0x0 PUSH3 0x4FA PUSH1 0x0 NOT DUP5 PUSH1 0x8 MUL PUSH3 0x4DA JUMP JUMPDEST NOT DUP1 DUP4 AND SWAP2 POP POP SWAP3 SWAP2 POP POP JUMP JUMPDEST PUSH1 0x0 PUSH3 0x515 DUP4 DUP4 PUSH3 0x4E7 JUMP JUMPDEST SWAP2 POP DUP3 PUSH1 0x2 MUL DUP3 OR SWAP1 POP SWAP3 SWAP2 POP POP JUMP JUMPDEST PUSH3 0x530 DUP3 PUSH3 0x2E4 JUMP JUMPDEST PUSH8 0xFFFFFFFFFFFFFFFF DUP2 GT ISZERO PUSH3 0x54C JUMPI PUSH3 0x54B PUSH3 0xDC JUMP JUMPDEST JUMPDEST PUSH3 0x558 DUP3 SLOAD PUSH3 0x31E JUMP JUMPDEST PUSH3 0x565 DUP3 DUP3 DUP6 PUSH3 0x48A JUMP JUMPDEST PUSH1 0x0 PUSH1 0x20 SWAP1 POP PUSH1 0x1F DUP4 GT PUSH1 0x1 DUP2 EQ PUSH3 0x59D JUMPI PUSH1 0x0 DUP5 ISZERO PUSH3 0x588 JUMPI DUP3 DUP8 ADD MLOAD SWAP1 POP JUMPDEST PUSH3 0x594 DUP6 DUP3 PUSH3 0x507 JUMP JUMPDEST DUP7 SSTORE POP PUSH3 0x604 JUMP JUMPDEST PUSH1 0x1F NOT DUP5 AND PUSH3 0x5AD DUP7 PUSH3 0x353 JUMP JUMPDEST PUSH1 0x0 JUMPDEST DUP3 DUP2 LT ISZERO PUSH3 0x5D7 JUMPI DUP5 DUP10 ADD MLOAD DUP3 SSTORE PUSH1 0x1 DUP3 ADD SWAP2 POP PUSH1 0x20 DUP6 ADD SWAP5 POP PUSH1 0x20 DUP2 ADD SWAP1 POP PUSH3 0x5B0 JUMP JUMPDEST DUP7 DUP4 LT ISZERO PUSH3 0x5F7 JUMPI DUP5 DUP10 ADD MLOAD PUSH3 0x5F3 PUSH1 0x1F DUP10 AND DUP3 PUSH3 0x4E7 JUMP JUMPDEST DUP4 SSTORE POP JUMPDEST PUSH1 0x1 PUSH1 0x2 DUP9 MUL ADD DUP9 SSTORE POP POP POP JUMPDEST POP POP POP POP POP POP JUMP JUMPDEST PUSH2 0xBA7 DUP1 PUSH3 0x61C PUSH1 0x0 CODECOPY PUSH1 0x0 RETURN INVALID PUSH1 0x80 PUSH1 0x40 MSTORE CALLVALUE DUP1 ISZERO PUSH2 0x10 JUMPI PUSH1 0x0 DUP1 REVERT JUMPDEST POP PUSH1 0x4 CALLDATASIZE LT PUSH2 0x88 JUMPI PUSH1 0x0 CALLDATALOAD PUSH1 0xE0 SHR DUP1 PUSH4 0x94B5DCAA GT PUSH2 0x5B JUMPI DUP1 PUSH4 0x94B5DCAA EQ PUSH2 0x103 JUMPI DUP1 PUSH4 0xAA8C217C EQ PUSH2 0x121 JUMPI DUP1 PUSH4 0xBC309496 EQ PUSH2 0x13F JUMPI DUP1 PUSH4 0xE21F37CE EQ PUSH2 0x15D JUMPI PUSH2 0x88 JUMP JUMPDEST DUP1 PUSH4 0x62A7544 EQ PUSH2 0x8D JUMPI DUP1 PUSH4 0x42FB7936 EQ PUSH2 0xA9 JUMPI DUP1 PUSH4 0x7B9A3F4C EQ PUSH2 0xC7 JUMPI DUP1 PUSH4 0x8FA11864 EQ PUSH2 0xE5 JUMPI JUMPDEST PUSH1 0x0 DUP1 REVERT JUMPDEST PUSH2 0xA7 PUSH1 0x4 DUP1 CALLDATASIZE SUB DUP2 ADD SWAP1 PUSH2 0xA2 SWAP2 SWAP1 PUSH2 0x604 JUMP JUMPDEST PUSH2 0x17B JUMP JUMPDEST STOP JUMPDEST PUSH2 0xB1 PUSH2 0x3A9 JUMP JUMPDEST PUSH1 0x40 MLOAD PUSH2 0xBE SWAP2 SWAP1 PUSH2 0x6DD JUMP JUMPDEST PUSH1 0x40 MLOAD DUP1 SWAP2 SUB SWAP1 RETURN JUMPDEST PUSH2 0xCF PUSH2 0x437 JUMP JUMPDEST PUSH1 0x40 MLOAD PUSH2 0xDC SWAP2 SWAP1 PUSH2 0x70E JUMP JUMPDEST PUSH1 0x40 MLOAD DUP1 SWAP2 SUB SWAP1 RETURN JUMPDEST PUSH2 0xED PUSH2 0x43D JUMP JUMPDEST PUSH1 0x40 MLOAD PUSH2 0xFA SWAP2 SWAP1 PUSH2 0x6DD JUMP JUMPDEST PUSH1 0x40 MLOAD DUP1 SWAP2 SUB SWAP1 RETURN JUMPDEST PUSH2 0x10B PUSH2 0x4CB JUMP JUMPDEST PUSH1 0x40 MLOAD PUSH2 0x118 SWAP2 SWAP1 PUSH2 0x70E JUMP JUMPDEST PUSH1 0x40 MLOAD DUP1 SWAP2 SUB SWAP1 RETURN JUMPDEST PUSH2 0x129 PUSH2 0x4D1 JUMP JUMPDEST PUSH1 0x40 MLOAD PUSH2 0x136 SWAP2 SWAP1 PUSH2 0x70E JUMP JUMPDEST PUSH1 0x40 MLOAD DUP1 SWAP2 SUB SWAP1 RETURN JUMPDEST PUSH2 0x147 PUSH2 0x4D7 JUMP JUMPDEST PUSH1 0x40 MLOAD PUSH2 0x154 SWAP2 SWAP1 PUSH2 0x70E JUMP JUMPDEST PUSH1 0x40 MLOAD DUP1 SWAP2 SUB SWAP1 RETURN JUMPDEST PUSH2 0x165 PUSH2 0x4DD JUMP JUMPDEST PUSH1 0x40 MLOAD PUSH2 0x172 SWAP2 SWAP1 PUSH2 0x6DD JUMP JUMPDEST PUSH1 0x40 MLOAD DUP1 SWAP2 SUB SWAP1 RETURN JUMPDEST DUP1 DUP1 PUSH1 0x2 PUSH1 0x0 PUSH2 0x100 EXP DUP2 SLOAD DUP2 PUSH20 0xFFFFFFFFFFFFFFFFFFFFFFFFFFFFFFFFFFFFFFFF MUL NOT AND SWAP1 DUP4 PUSH20 0xFFFFFFFFFFFFFFFFFFFFFFFFFFFFFFFFFFFFFFFF AND MUL OR SWAP1 SSTORE POP PUSH1 0x0 PUSH20 0xFFFFFFFFFFFFFFFFFFFFFFFFFFFFFFFFFFFFFFFF AND DUP2 PUSH20 0xFFFFFFFFFFFFFFFFFFFFFFFFFFFFFFFFFFFFFFFF AND SUB PUSH2 0x22C JUMPI PUSH1 0x40 MLOAD PUSH32 0x8C379A000000000000000000000000000000000000000000000000000000000 DUP2 MSTORE PUSH1 0x4 ADD PUSH2 0x223 SWAP1 PUSH2 0x775 JUMP JUMPDEST PUSH1 0x40 MLOAD DUP1 SWAP2 SUB SWAP1 REVERT JUMPDEST PUSH1 0x8 PUSH1 0xA DUP1 SLOAD PUSH2 0x23B SWAP1 PUSH2 0x7C4 JUMP JUMPDEST SWAP1 POP EQ DUP1 ISZERO PUSH2 0x258 JUMPI POP PUSH1 0x3 PUSH1 0xB DUP1 SLOAD PUSH2 0x254 SWAP1 PUSH2 0x7C4 JUMP JUMPDEST SWAP1 POP EQ JUMPDEST PUSH2 0x297 JUMPI PUSH1 0x40 MLOAD PUSH32 0x8C379A000000000000000000000000000000000000000000000000000000000 DUP2 MSTORE PUSH1 0x4 ADD PUSH2 0x28E SWAP1 PUSH2 0x841 JUMP JUMPDEST PUSH1 0x40 MLOAD DUP1 SWAP2 SUB SWAP1 REVERT JUMPDEST DUP2 PUSH1 0x2 PUSH1 0x0 PUSH2 0x100 EXP DUP2 SLOAD DUP2 PUSH20 0xFFFFFFFFFFFFFFFFFFFFFFFFFFFFFFFFFFFFFFFF MUL NOT AND SWAP1 DUP4 PUSH20 0xFFFFFFFFFFFFFFFFFFFFFFFFFFFFFFFFFFFFFFFF AND MUL OR SWAP1 SSTORE POP DUP3 PUSH1 0x0 DUP2 SWAP1 SSTORE POP PUSH1 0x0 PUSH1 0x1 SLOAD GT DUP1 ISZERO PUSH2 0x2F4 JUMPI POP PUSH1 0x0 SLOAD PUSH1 0x1 SLOAD GT JUMPDEST ISZERO PUSH2 0x35E JUMPI PUSH1 0x0 SLOAD PUSH1 0x1 PUSH1 0x0 DUP3 DUP3 SLOAD PUSH2 0x30D SWAP2 SWAP1 PUSH2 0x890 JUMP JUMPDEST SWAP3 POP POP DUP2 SWAP1 SSTORE POP PUSH1 0x40 MLOAD DUP1 PUSH1 0x40 ADD PUSH1 0x40 MSTORE DUP1 PUSH1 0x12 DUP2 MSTORE PUSH1 0x20 ADD PUSH32 0x5472616E7366657220636F6D706C657465640000000000000000000000000000 DUP2 MSTORE POP PUSH1 0x9 SWAP1 DUP2 PUSH2 0x358 SWAP2 SWAP1 PUSH2 0xA9F JUMP JUMPDEST POP PUSH2 0x3A4 JUMP JUMPDEST PUSH1 0x40 MLOAD DUP1 PUSH1 0x40 ADD PUSH1 0x40 MSTORE DUP1 PUSH1 0x11 DUP2 MSTORE PUSH1 0x20 ADD PUSH32 0x4E6F7420656E6F75676820666F756E6473000000000000000000000000000000 DUP2 MSTORE POP PUSH1 0x9 SWAP1 DUP2 PUSH2 0x3A2 SWAP2 SWAP1 PUSH2 0xA9F JUMP JUMPDEST POP JUMPDEST POP POP POP JUMP JUMPDEST PUSH1 0xB DUP1 SLOAD PUSH2 0x3B6 SWAP1 PUSH2 0x7C4 JUMP JUMPDEST DUP1 PUSH1 0x1F ADD PUSH1 0x20 DUP1 SWAP2 DIV MUL PUSH1 0x20 ADD PUSH1 0x40 MLOAD SWAP1 DUP2 ADD PUSH1 0x40 MSTORE DUP1 SWAP3 SWAP2 SWAP1 DUP2 DUP2 MSTORE PUSH1 0x20 ADD DUP3 DUP1 SLOAD PUSH2 0x3E2 SWAP1 PUSH2 0x7C4 JUMP JUMPDEST DUP1 ISZERO PUSH2 0x42F JUMPI DUP1 PUSH1 0x1F LT PUSH2 0x404 JUMPI PUSH2 0x100 DUP1 DUP4 SLOAD DIV MUL DUP4 MSTORE SWAP2 PUSH1 0x20 ADD SWAP2 PUSH2 0x42F JUMP JUMPDEST DUP3 ADD SWAP2 SWAP1 PUSH1 0x0 MSTORE PUSH1 0x20 PUSH1 0x0 KECCAK256 SWAP1 JUMPDEST DUP2 SLOAD DUP2 MSTORE SWAP1 PUSH1 0x1 ADD SWAP1 PUSH1 0x20 ADD DUP1 DUP4 GT PUSH2 0x412 JUMPI DUP3 SWAP1 SUB PUSH1 0x1F AND DUP3 ADD SWAP2 JUMPDEST POP POP POP POP POP DUP2 JUMP JUMPDEST PUSH1 0x1 SLOAD DUP2 JUMP JUMPDEST PUSH1 0xA DUP1 SLOAD PUSH2 0x44A SWAP1 PUSH2 0x7C4 JUMP JUMPDEST DUP1 PUSH1 0x1F ADD PUSH1 0x20 DUP1 SWAP2 DIV MUL PUSH1 0x20 ADD PUSH1 0x40 MLOAD SWAP1 DUP2 ADD PUSH1 0x40 MSTORE DUP1 SWAP3 SWAP2 SWAP1 DUP2 DUP2 MSTORE PUSH1 0x20 ADD DUP3 DUP1 SLOAD PUSH2 0x476 SWAP1 PUSH2 0x7C4 JUMP JUMPDEST DUP1 ISZERO PUSH2 0x4C3 JUMPI DUP1 PUSH1 0x1F LT PUSH2 0x498 JUMPI PUSH2 0x100 DUP1 DUP4 SLOAD DIV MUL DUP4 MSTORE SWAP2 PUSH1 0x20 ADD SWAP2 PUSH2 0x4C3 JUMP JUMPDEST DUP3 ADD SWAP2 SWAP1 PUSH1 0x0 MSTORE PUSH1 0x20 PUSH1 0x0 KECCAK256 SWAP1 JUMPDEST DUP2 SLOAD DUP2 MSTORE SWAP1 PUSH1 0x1 ADD SWAP1 PUSH1 0x20 ADD DUP1 DUP4 GT PUSH2 0x4A6 JUMPI DUP3 SWAP1 SUB PUSH1 0x1F AND DUP3 ADD SWAP2 JUMPDEST POP POP POP POP POP DUP2 JUMP JUMPDEST PUSH1 0x4 SLOAD DUP2 JUMP JUMPDEST PUSH1 0x0 SLOAD DUP2 JUMP JUMPDEST PUSH1 0x8 SLOAD DUP2 JUMP JUMPDEST PUSH1 0x9 DUP1 SLOAD PUSH2 0x4EA SWAP1 PUSH2 0x7C4 JUMP JUMPDEST DUP1 PUSH1 0x1F ADD PUSH1 0x20 DUP1 SWAP2 DIV MUL PUSH1 0x20 ADD PUSH1 0x40 MLOAD SWAP1 DUP2 ADD PUSH1 0x40 MSTORE DUP1 SWAP3 SWAP2 SWAP1 DUP2 DUP2 MSTORE PUSH1 0x20 ADD DUP3 DUP1 SLOAD PUSH2 0x516 SWAP1 PUSH2 0x7C4 JUMP JUMPDEST DUP1 ISZERO PUSH2 0x563 JUMPI DUP1 PUSH1 0x1F LT PUSH2 0x538 JUMPI PUSH2 0x100 DUP1 DUP4 SLOAD DIV MUL DUP4 MSTORE SWAP2 PUSH1 0x20 ADD SWAP2 PUSH2 0x563 JUMP JUMPDEST DUP3 ADD SWAP2 SWAP1 PUSH1 0x0 MSTORE PUSH1 0x20 PUSH1 0x0 KECCAK256 SWAP1 JUMPDEST DUP2 SLOAD DUP2 MSTORE SWAP1 PUSH1 0x1 ADD SWAP1 PUSH1 0x20 ADD DUP1 DUP4 GT PUSH2 0x546 JUMPI DUP3 SWAP1 SUB PUSH1 0x1F AND DUP3 ADD SWAP2 JUMPDEST POP POP POP POP POP DUP2 JUMP JUMPDEST PUSH1 0x0 DUP1 REVERT JUMPDEST PUSH1 0x0 DUP2 SWAP1 POP SWAP2 SWAP1 POP JUMP JUMPDEST PUSH2 0x583 DUP2 PUSH2 0x570 JUMP JUMPDEST DUP2 EQ PUSH2 0x58E JUMPI PUSH1 0x0 DUP1 REVERT JUMPDEST POP JUMP JUMPDEST PUSH1 0x0 DUP2 CALLDATALOAD SWAP1 POP PUSH2 0x5A0 DUP2 PUSH2 0x57A JUMP JUMPDEST SWAP3 SWAP2 POP POP JUMP JUMPDEST PUSH1 0x0 PUSH20 0xFFFFFFFFFFFFFFFFFFFFFFFFFFFFFFFFFFFFFFFF DUP3 AND SWAP1 POP SWAP2 SWAP1 POP JUMP JUMPDEST PUSH1 0x0 PUSH2 0x5D1 DUP3 PUSH2 0x5A6 JUMP JUMPDEST SWAP1 POP SWAP2 SWAP1 POP JUMP JUMPDEST PUSH2 0x5E1 DUP2 PUSH2 0x5C6 JUMP JUMPDEST DUP2 EQ PUSH2 0x5EC JUMPI PUSH1 0x0 DUP1 REVERT JUMPDEST POP JUMP JUMPDEST PUSH1 0x0 DUP2 CALLDATALOAD SWAP1 POP PUSH2 0x5FE DUP2 PUSH2 0x5D8 JUMP JUMPDEST SWAP3 SWAP2 POP POP JUMP JUMPDEST PUSH1 0x0 DUP1 PUSH1 0x40 DUP4 DUP6 SUB SLT ISZERO PUSH2 0x61B JUMPI PUSH2 0x61A PUSH2 0x56B JUMP JUMPDEST JUMPDEST PUSH1 0x0 PUSH2 0x629 DUP6 DUP3 DUP7 ADD PUSH2 0x591 JUMP JUMPDEST SWAP3 POP POP PUSH1 0x20 PUSH2 0x63A DUP6 DUP3 DUP7 ADD PUSH2 0x5EF JUMP JUMPDEST SWAP2 POP POP SWAP3 POP SWAP3 SWAP1 POP JUMP JUMPDEST PUSH1 0x0 DUP2 MLOAD SWAP1 POP SWAP2 SWAP1 POP JUMP JUMPDEST PUSH1 0x0 DUP3 DUP3 MSTORE PUSH1 0x20 DUP3 ADD SWAP1 POP SWAP3 SWAP2 POP POP JUMP JUMPDEST PUSH1 0x0 JUMPDEST DUP4 DUP2 LT ISZERO PUSH2 0x67E JUMPI DUP1 DUP3 ADD MLOAD DUP2 DUP5 ADD MSTORE PUSH1 0x20 DUP2 ADD SWAP1 POP PUSH2 0x663 JUMP JUMPDEST DUP4 DUP2 GT ISZERO PUSH2 0x68D JUMPI PUSH1 0x0 DUP5 DUP5 ADD MSTORE JUMPDEST POP POP POP POP JUMP JUMPDEST PUSH1 0x0 PUSH1 0x1F NOT PUSH1 0x1F DUP4 ADD AND SWAP1 POP SWAP2 SWAP1 POP JUMP JUMPDEST PUSH1 0x0 PUSH2 0x6AF DUP3 PUSH2 0x644 JUMP JUMPDEST PUSH2 0x6B9 DUP2 DUP6 PUSH2 0x64F JUMP JUMPDEST SWAP4 POP PUSH2 0x6C9 DUP2 DUP6 PUSH1 0x20 DUP7 ADD PUSH2 0x660 JUMP JUMPDEST PUSH2 0x6D2 DUP2 PUSH2 0x693 JUMP JUMPDEST DUP5 ADD SWAP2 POP POP SWAP3 SWAP2 POP POP JUMP JUMPDEST PUSH1 0x0 PUSH1 0x20 DUP3 ADD SWAP1 POP DUP2 DUP2 SUB PUSH1 0x0 DUP4 ADD MSTORE PUSH2 0x6F7 DUP2 DUP5 PUSH2 0x6A4 JUMP JUMPDEST SWAP1 POP SWAP3 SWAP2 POP POP JUMP JUMPDEST PUSH2 0x708 DUP2 PUSH2 0x570 JUMP JUMPDEST DUP3 MSTORE POP POP JUMP JUMPDEST PUSH1 0x0 PUSH1 0x20 DUP3 ADD SWAP1 POP PUSH2 0x723 PUSH1 0x0 DUP4 ADD DUP5 PUSH2 0x6FF JUMP JUMPDEST SWAP3 SWAP2 POP POP JUMP JUMPDEST PUSH32 0x2054686973206164647265737320646F65736E27742065786973747300000000 PUSH1 0x0 DUP3 ADD MSTORE POP JUMP JUMPDEST PUSH1 0x0 PUSH2 0x75F PUSH1 0x1C DUP4 PUSH2 0x64F JUMP JUMPDEST SWAP2 POP PUSH2 0x76A DUP3 PUSH2 0x729 JUMP JUMPDEST PUSH1 0x20 DUP3 ADD SWAP1 POP SWAP2 SWAP1 POP JUMP JUMPDEST PUSH1 0x0 PUSH1 0x20 DUP3 ADD SWAP1 POP DUP2 DUP2 SUB PUSH1 0x0 DUP4 ADD MSTORE PUSH2 0x78E DUP2 PUSH2 0x752 JUMP JUMPDEST SWAP1 POP SWAP2 SWAP1 POP JUMP JUMPDEST PUSH32 0x4E487B7100000000000000000000000000000000000000000000000000000000 PUSH1 0x0 MSTORE PUSH1 0x22 PUSH1 0x4 MSTORE PUSH1 0x24 PUSH1 0x0 REVERT JUMPDEST PUSH1 0x0 PUSH1 0x2 DUP3 DIV SWAP1 POP PUSH1 0x1 DUP3 AND DUP1 PUSH2 0x7DC JUMPI PUSH1 0x7F DUP3 AND SWAP2 POP JUMPDEST PUSH1 0x20 DUP3 LT DUP2 SUB PUSH2 0x7EF JUMPI PUSH2 0x7EE PUSH2 0x795 JUMP JUMPDEST JUMPDEST POP SWAP2 SWAP1 POP JUMP JUMPDEST PUSH32 0x4E6F2076616C6964206E756D6265720000000000000000000000000000000000 PUSH1 0x0 DUP3 ADD MSTORE POP JUMP JUMPDEST PUSH1 0x0 PUSH2 0x82B PUSH1 0xF DUP4 PUSH2 0x64F JUMP JUMPDEST SWAP2 POP PUSH2 0x836 DUP3 PUSH2 0x7F5 JUMP JUMPDEST PUSH1 0x20 DUP3 ADD SWAP1 POP SWAP2 SWAP1 POP JUMP JUMPDEST PUSH1 0x0 PUSH1 0x20 DUP3 ADD SWAP1 POP DUP2 DUP2 SUB PUSH1 0x0 DUP4 ADD MSTORE PUSH2 0x85A DUP2 PUSH2 0x81E JUMP JUMPDEST SWAP1 POP SWAP2 SWAP1 POP JUMP JUMPDEST PUSH32 0x4E487B7100000000000000000000000000000000000000000000000000000000 PUSH1 0x0 MSTORE PUSH1 0x11 PUSH1 0x4 MSTORE PUSH1 0x24 PUSH1 0x0 REVERT JUMPDEST PUSH1 0x0 PUSH2 0x89B DUP3 PUSH2 0x570 JUMP JUMPDEST SWAP2 POP PUSH2 0x8A6 DUP4 PUSH2 0x570 JUMP JUMPDEST SWAP3 POP DUP3 DUP3 LT ISZERO PUSH2 0x8B9 JUMPI PUSH2 0x8B8 PUSH2 0x861 JUMP JUMPDEST JUMPDEST DUP3 DUP3 SUB SWAP1 POP SWAP3 SWAP2 POP POP JUMP JUMPDEST PUSH32 0x4E487B7100000000000000000000000000000000000000000000000000000000 PUSH1 0x0 MSTORE PUSH1 0x41 PUSH1 0x4 MSTORE PUSH1 0x24 PUSH1 0x0 REVERT JUMPDEST PUSH1 0x0 DUP2 SWAP1 POP DUP2 PUSH1 0x0 MSTORE PUSH1 0x20 PUSH1 0x0 KECCAK256 SWAP1 POP SWAP2 SWAP1 POP JUMP JUMPDEST PUSH1 0x0 PUSH1 0x20 PUSH1 0x1F DUP4 ADD DIV SWAP1 POP SWAP2 SWAP1 POP JUMP JUMPDEST PUSH1 0x0 DUP3 DUP3 SHL SWAP1 POP SWAP3 SWAP2 POP POP JUMP JUMPDEST PUSH1 0x0 PUSH1 0x8 DUP4 MUL PUSH2 0x955 PUSH32 0xFFFFFFFFFFFFFFFFFFFFFFFFFFFFFFFFFFFFFFFFFFFFFFFFFFFFFFFFFFFFFFFF DUP3 PUSH2 0x918 JUMP JUMPDEST PUSH2 0x95F DUP7 DUP4 PUSH2 0x918 JUMP JUMPDEST SWAP6 POP DUP1 NOT DUP5 AND SWAP4 POP DUP1 DUP7 AND DUP5 OR SWAP3 POP POP POP SWAP4 SWAP3 POP POP POP JUMP JUMPDEST PUSH1 0x0 DUP2 SWAP1 POP SWAP2 SWAP1 POP JUMP JUMPDEST PUSH1 0x0 PUSH2 0x99C PUSH2 0x997 PUSH2 0x992 DUP5 PUSH2 0x570 JUMP JUMPDEST PUSH2 0x977 JUMP JUMPDEST PUSH2 0x570 JUMP JUMPDEST SWAP1 POP SWAP2 SWAP1 POP JUMP JUMPDEST PUSH1 0x0 DUP2 SWAP1 POP SWAP2 SWAP1 POP JUMP JUMPDEST PUSH2 0x9B6 DUP4 PUSH2 0x981 JUMP JUMPDEST PUSH2 0x9CA PUSH2 0x9C2 DUP3 PUSH2 0x9A3 JUMP JUMPDEST DUP5 DUP5 SLOAD PUSH2 0x925 JUMP JUMPDEST DUP3 SSTORE POP POP POP POP JUMP JUMPDEST PUSH1 0x0 SWAP1 JUMP JUMPDEST PUSH2 0x9DF PUSH2 0x9D2 JUMP JUMPDEST PUSH2 0x9EA DUP2 DUP5 DUP5 PUSH2 0x9AD JUMP JUMPDEST POP POP POP JUMP JUMPDEST JUMPDEST DUP2 DUP2 LT ISZERO PUSH2 0xA0E JUMPI PUSH2 0xA03 PUSH1 0x0 DUP3 PUSH2 0x9D7 JUMP JUMPDEST PUSH1 0x1 DUP2 ADD SWAP1 POP PUSH2 0x9F0 JUMP JUMPDEST POP POP JUMP JUMPDEST PUSH1 0x1F DUP3 GT ISZERO PUSH2 0xA53 JUMPI PUSH2 0xA24 DUP2 PUSH2 0x8F3 JUMP JUMPDEST PUSH2 0xA2D DUP5 PUSH2 0x908 JUMP JUMPDEST DUP2 ADD PUSH1 0x20 DUP6 LT ISZERO PUSH2 0xA3C JUMPI DUP2 SWAP1 POP JUMPDEST PUSH2 0xA50 PUSH2 0xA48 DUP6 PUSH2 0x908 JUMP JUMPDEST DUP4 ADD DUP3 PUSH2 0x9EF JUMP JUMPDEST POP POP JUMPDEST POP POP POP JUMP JUMPDEST PUSH1 0x0 DUP3 DUP3 SHR SWAP1 POP SWAP3 SWAP2 POP POP JUMP JUMPDEST PUSH1 0x0 PUSH2 0xA76 PUSH1 0x0 NOT DUP5 PUSH1 0x8 MUL PUSH2 0xA58 JUMP JUMPDEST NOT DUP1 DUP4 AND SWAP2 POP POP SWAP3 SWAP2 POP POP JUMP JUMPDEST PUSH1 0x0 PUSH2 0xA8F DUP4 DUP4 PUSH2 0xA65 JUMP JUMPDEST SWAP2 POP DUP3 PUSH1 0x2 MUL DUP3 OR SWAP1 POP SWAP3 SWAP2 POP POP JUMP JUMPDEST PUSH2 0xAA8 DUP3 PUSH2 0x644 JUMP JUMPDEST PUSH8 0xFFFFFFFFFFFFFFFF DUP2 GT ISZERO PUSH2 0xAC1 JUMPI PUSH2 0xAC0 PUSH2 0x8C4 JUMP JUMPDEST JUMPDEST PUSH2 0xACB DUP3 SLOAD PUSH2 0x7C4 JUMP JUMPDEST PUSH2 0xAD6 DUP3 DUP3 DUP6 PUSH2 0xA12 JUMP JUMPDEST PUSH1 0x0 PUSH1 0x20 SWAP1 POP PUSH1 0x1F DUP4 GT PUSH1 0x1 DUP2 EQ PUSH2 0xB09 JUMPI PUSH1 0x0 DUP5 ISZERO PUSH2 0xAF7 JUMPI DUP3 DUP8 ADD MLOAD SWAP1 POP JUMPDEST PUSH2 0xB01 DUP6 DUP3 PUSH2 0xA83 JUMP JUMPDEST DUP7 SSTORE POP PUSH2 0xB69 JUMP JUMPDEST PUSH1 0x1F NOT DUP5 AND PUSH2 0xB17 DUP7 PUSH2 0x8F3 JUMP JUMPDEST PUSH1 0x0 JUMPDEST DUP3 DUP2 LT ISZERO PUSH2 0xB3F JUMPI DUP5 DUP10 ADD MLOAD DUP3 SSTORE PUSH1 0x1 DUP3 ADD SWAP2 POP PUSH1 0x20 DUP6 ADD SWAP5 POP PUSH1 0x20 DUP2 ADD SWAP1 POP PUSH2 0xB1A JUMP JUMPDEST DUP7 DUP4 LT ISZERO PUSH2 0xB5C JUMPI DUP5 DUP10 ADD MLOAD PUSH2 0xB58 PUSH1 0x1F DUP10 AND DUP3 PUSH2 0xA65 JUMP JUMPDEST DUP4 SSTORE POP JUMPDEST PUSH1 0x1 PUSH1 0x2 DUP9 MUL ADD DUP9 SSTORE POP POP POP JUMPDEST POP POP POP POP POP POP JUMP INVALID LOG2 PUSH5 0x6970667358 0x22 SLT KECCAK256 EXTCODEHASH 0x2E 0xFC 0x4B 0xF9 0xB7 0xF9 DUP14 0xD9 PUSH12 0x15AAAC0E9CFFFFEE81CAA421 0x49 PC PUSH25 0x103CAD50B1F02B64736F6C634300080F003300000000000000 "
				},
				"gasEstimates": {
					"creation": {
						"codeDepositCost": "596600",
						"executionCost": "infinite",
						"totalCost": "infinite"
					},
					"external": {
						"TotalFunds()": "2474",
						"amount()": "2451",
						"cardNumber()": "infinite",
						"cvv()": "infinite",
						"message()": "infinite",
						"receiverFunds()": "2473",
						"sendMoney(uint256,address)": "infinite",
						"totalWeekTransactions()": "2429"
					}
				},
				"methodIdentifiers": {
					"TotalFunds()": "7b9a3f4c",
					"amount()": "aa8c217c",
					"cardNumber()": "8fa11864",
					"cvv()": "42fb7936",
					"message()": "e21f37ce",
					"receiverFunds()": "bc309496",
					"sendMoney(uint256,address)": "062a7544",
					"totalWeekTransactions()": "94b5dcaa"
				}
			},
			"storageLayout": {
				"storage": [
					{
						"astId": 230,
						"contract": "Dapp/MoneyTransfer.sol:MoneyTransfer",
						"label": "amount",
						"offset": 0,
						"slot": "0",
						"type": "t_uint256"
					},
					{
						"astId": 232,
						"contract": "Dapp/MoneyTransfer.sol:MoneyTransfer",
						"label": "TotalFunds",
						"offset": 0,
						"slot": "1",
						"type": "t_uint256"
					},
					{
						"astId": 234,
						"contract": "Dapp/MoneyTransfer.sol:MoneyTransfer",
						"label": "receiver",
						"offset": 0,
						"slot": "2",
						"type": "t_address"
					},
					{
						"astId": 240,
						"contract": "Dapp/MoneyTransfer.sol:MoneyTransfer",
						"label": "day",
						"offset": 0,
						"slot": "3",
						"type": "t_uint256"
					},
					{
						"astId": 242,
						"contract": "Dapp/MoneyTransfer.sol:MoneyTransfer",
						"label": "totalWeekTransactions",
						"offset": 0,
						"slot": "4",
						"type": "t_uint256"
					},
					{
						"astId": 244,
						"contract": "Dapp/MoneyTransfer.sol:MoneyTransfer",
						"label": "maxTransaction",
						"offset": 0,
						"slot": "5",
						"type": "t_uint256"
					},
					{
						"astId": 246,
						"contract": "Dapp/MoneyTransfer.sol:MoneyTransfer",
						"label": "minTransaction",
						"offset": 0,
						"slot": "6",
						"type": "t_uint256"
					},
					{
						"astId": 249,
						"contract": "Dapp/MoneyTransfer.sol:MoneyTransfer",
						"label": "countries",
						"offset": 0,
						"slot": "7",
						"type": "t_array(t_uint256)dyn_storage"
					},
					{
						"astId": 251,
						"contract": "Dapp/MoneyTransfer.sol:MoneyTransfer",
						"label": "receiverFunds",
						"offset": 0,
						"slot": "8",
						"type": "t_uint256"
					},
					{
						"astId": 253,
						"contract": "Dapp/MoneyTransfer.sol:MoneyTransfer",
						"label": "message",
						"offset": 0,
						"slot": "9",
						"type": "t_string_storage"
					},
					{
						"astId": 255,
						"contract": "Dapp/MoneyTransfer.sol:MoneyTransfer",
						"label": "cardNumber",
						"offset": 0,
						"slot": "10",
						"type": "t_string_storage"
					},
					{
						"astId": 257,
						"contract": "Dapp/MoneyTransfer.sol:MoneyTransfer",
						"label": "cvv",
						"offset": 0,
						"slot": "11",
						"type": "t_string_storage"
					}
				],
				"types": {
					"t_address": {
						"encoding": "inplace",
						"label": "address",
						"numberOfBytes": "20"
					},
					"t_array(t_uint256)dyn_storage": {
						"base": "t_uint256",
						"encoding": "dynamic_array",
						"label": "uint256[]",
						"numberOfBytes": "32"
					},
					"t_string_storage": {
						"encoding": "bytes",
						"label": "string",
						"numberOfBytes": "32"
					},
					"t_uint256": {
						"encoding": "inplace",
						"label": "uint256",
						"numberOfBytes": "32"
					}
				}
			},
			"userdoc": {
				"kind": "user",
				"methods": {},
				"version": 1
			}
		}
	}
}