{
	"Dapp/MoneyTransfer.sol": {
		"MoneyTransfer": {
			"abi": [
				{
					"inputs": [
						{
							"internalType": "uint256",
							"name": "_totalFunds",
							"type": "uint256"
						},
						{
							"internalType": "string",
							"name": "_cardNumber",
							"type": "string"
						},
						{
							"internalType": "string",
							"name": "_cvv",
							"type": "string"
						}
					],
					"stateMutability": "nonpayable",
					"type": "constructor"
				},
				{
					"inputs": [],
					"name": "TotalAmount",
					"outputs": [
						{
							"internalType": "uint256",
							"name": "",
							"type": "uint256"
						}
					],
					"stateMutability": "view",
					"type": "function"
				},
				{
					"inputs": [],
					"name": "TotalFunds",
					"outputs": [
						{
							"internalType": "uint256",
							"name": "",
							"type": "uint256"
						}
					],
					"stateMutability": "view",
					"type": "function"
				},
				{
					"inputs": [],
					"name": "amount",
					"outputs": [
						{
							"internalType": "uint256",
							"name": "",
							"type": "uint256"
						}
					],
					"stateMutability": "view",
					"type": "function"
				},
				{
					"inputs": [],
					"name": "callCount",
					"outputs": [
						{
							"internalType": "uint256",
							"name": "",
							"type": "uint256"
						}
					],
					"stateMutability": "view",
					"type": "function"
				},
				{
					"inputs": [],
					"name": "cardNumber",
					"outputs": [
						{
							"internalType": "string",
							"name": "",
							"type": "string"
						}
					],
					"stateMutability": "view",
					"type": "function"
				},
				{
					"inputs": [],
					"name": "countTransfer",
					"outputs": [
						{
							"internalType": "uint256",
							"name": "",
							"type": "uint256"
						}
					],
					"stateMutability": "view",
					"type": "function"
				},
				{
					"inputs": [],
					"name": "cvv",
					"outputs": [
						{
							"internalType": "string",
							"name": "",
							"type": "string"
						}
					],
					"stateMutability": "view",
					"type": "function"
				},
				{
					"inputs": [],
					"name": "firstTransferTime",
					"outputs": [
						{
							"internalType": "uint256",
							"name": "",
							"type": "uint256"
						}
					],
					"stateMutability": "view",
					"type": "function"
				},
				{
					"inputs": [],
					"name": "message",
					"outputs": [
						{
							"internalType": "string",
							"name": "",
							"type": "string"
						}
					],
					"stateMutability": "view",
					"type": "function"
				},
				{
					"inputs": [],
					"name": "receiverFunds",
					"outputs": [
						{
							"internalType": "uint256",
							"name": "",
							"type": "uint256"
						}
					],
					"stateMutability": "view",
					"type": "function"
				},
				{
					"inputs": [
						{
							"internalType": "uint256",
							"name": "_amount",
							"type": "uint256"
						},
						{
							"internalType": "address",
							"name": "_receiver",
							"type": "address"
						}
					],
					"name": "sendMoney",
					"outputs": [],
					"stateMutability": "nonpayable",
					"type": "function"
				},
				{
					"inputs": [
						{
							"internalType": "uint256",
							"name": "_firstTransfer",
							"type": "uint256"
						}
					],
					"name": "setFirstTransfer",
					"outputs": [],
					"stateMutability": "nonpayable",
					"type": "function"
				},
				{
					"inputs": [],
					"name": "totalWeekTransactions",
					"outputs": [
						{
							"internalType": "uint256",
							"name": "",
							"type": "uint256"
						}
					],
					"stateMutability": "view",
					"type": "function"
				}
			],
			"devdoc": {
				"kind": "dev",
				"methods": {},
				"version": 1
			},
			"evm": {
				"assembly": "    /* \"Dapp/MoneyTransfer.sol\":71:2360  contract  MoneyTransfer {... */\n  mstore(0x40, 0x80)\n    /* \"Dapp/MoneyTransfer.sol\":237:245  24 hours */\n  0x015180\n    /* \"Dapp/MoneyTransfer.sol\":226:245  uint day = 24 hours */\n  0x03\n  sstore\n    /* \"Dapp/MoneyTransfer.sol\":814:815  0 */\n  0x00\n    /* \"Dapp/MoneyTransfer.sol\":790:815  uint public callCount = 0 */\n  0x0f\n  sstore\n    /* \"Dapp/MoneyTransfer.sol\":599:778  constructor (uint256 _totalFunds, string memory _cardNumber, string memory _cvv){... */\n  callvalue\n  dup1\n  iszero\n  tag_1\n  jumpi\n  0x00\n  dup1\n  revert\ntag_1:\n  pop\n  mload(0x40)\n  sub(codesize, bytecodeSize)\n  dup1\n  bytecodeSize\n  dup4\n  codecopy\n  dup2\n  dup2\n  add\n  0x40\n  mstore\n  dup2\n  add\n  swap1\n  tag_2\n  swap2\n  swap1\n  tag_3\n  jump\t// in\ntag_2:\n    /* \"Dapp/MoneyTransfer.sol\":703:714  _cardNumber */\n  dup2\n    /* \"Dapp/MoneyTransfer.sol\":690:700  cardNumber */\n  0x0a\n    /* \"Dapp/MoneyTransfer.sol\":690:714  cardNumber = _cardNumber */\n  swap1\n  dup2\n  tag_6\n  swap2\n  swap1\n  tag_7\n  jump\t// in\ntag_6:\n  pop\n    /* \"Dapp/MoneyTransfer.sol\":731:735  _cvv */\n  dup1\n    /* \"Dapp/MoneyTransfer.sol\":725:728  cvv */\n  0x0b\n    /* \"Dapp/MoneyTransfer.sol\":725:735  cvv = _cvv */\n  swap1\n  dup2\n  tag_8\n  swap2\n  swap1\n  tag_7\n  jump\t// in\ntag_8:\n  pop\n    /* \"Dapp/MoneyTransfer.sol\":759:770  _totalFunds */\n  dup3\n    /* \"Dapp/MoneyTransfer.sol\":746:756  TotalFunds */\n  0x01\n    /* \"Dapp/MoneyTransfer.sol\":746:770  TotalFunds = _totalFunds */\n  dup2\n  swap1\n  sstore\n  pop\n    /* \"Dapp/MoneyTransfer.sol\":599:778  constructor (uint256 _totalFunds, string memory _cardNumber, string memory _cvv){... */\n  pop\n  pop\n  pop\n    /* \"Dapp/MoneyTransfer.sol\":71:2360  contract  MoneyTransfer {... */\n  jump(tag_9)\n    /* \"#utility.yul\":7:82   */\ntag_10:\n    /* \"#utility.yul\":40:46   */\n  0x00\n    /* \"#utility.yul\":73:75   */\n  0x40\n    /* \"#utility.yul\":67:76   */\n  mload\n    /* \"#utility.yul\":57:76   */\n  swap1\n  pop\n    /* \"#utility.yul\":7:82   */\n  swap1\n  jump\t// out\n    /* \"#utility.yul\":88:205   */\ntag_11:\n    /* \"#utility.yul\":197:198   */\n  0x00\n    /* \"#utility.yul\":194:195   */\n  dup1\n    /* \"#utility.yul\":187:199   */\n  revert\n    /* \"#utility.yul\":211:328   */\ntag_12:\n    /* \"#utility.yul\":320:321   */\n  0x00\n    /* \"#utility.yul\":317:318   */\n  dup1\n    /* \"#utility.yul\":310:322   */\n  revert\n    /* \"#utility.yul\":334:411   */\ntag_13:\n    /* \"#utility.yul\":371:378   */\n  0x00\n    /* \"#utility.yul\":400:405   */\n  dup2\n    /* \"#utility.yul\":389:405   */\n  swap1\n  pop\n    /* \"#utility.yul\":334:411   */\n  swap2\n  swap1\n  pop\n  jump\t// out\n    /* \"#utility.yul\":417:539   */\ntag_14:\n    /* \"#utility.yul\":490:514   */\n  tag_50\n    /* \"#utility.yul\":508:513   */\n  dup2\n    /* \"#utility.yul\":490:514   */\n  tag_13\n  jump\t// in\ntag_50:\n    /* \"#utility.yul\":483:488   */\n  dup2\n    /* \"#utility.yul\":480:515   */\n  eq\n    /* \"#utility.yul\":470:533   */\n  tag_51\n  jumpi\n    /* \"#utility.yul\":529:530   */\n  0x00\n    /* \"#utility.yul\":526:527   */\n  dup1\n    /* \"#utility.yul\":519:531   */\n  revert\n    /* \"#utility.yul\":470:533   */\ntag_51:\n    /* \"#utility.yul\":417:539   */\n  pop\n  jump\t// out\n    /* \"#utility.yul\":545:688   */\ntag_15:\n    /* \"#utility.yul\":602:607   */\n  0x00\n    /* \"#utility.yul\":633:639   */\n  dup2\n    /* \"#utility.yul\":627:640   */\n  mload\n    /* \"#utility.yul\":618:640   */\n  swap1\n  pop\n    /* \"#utility.yul\":649:682   */\n  tag_53\n    /* \"#utility.yul\":676:681   */\n  dup2\n    /* \"#utility.yul\":649:682   */\n  tag_14\n  jump\t// in\ntag_53:\n    /* \"#utility.yul\":545:688   */\n  swap3\n  swap2\n  pop\n  pop\n  jump\t// out\n    /* \"#utility.yul\":694:811   */\ntag_16:\n    /* \"#utility.yul\":803:804   */\n  0x00\n    /* \"#utility.yul\":800:801   */\n  dup1\n    /* \"#utility.yul\":793:805   */\n  revert\n    /* \"#utility.yul\":817:934   */\ntag_17:\n    /* \"#utility.yul\":926:927   */\n  0x00\n    /* \"#utility.yul\":923:924   */\n  dup1\n    /* \"#utility.yul\":916:928   */\n  revert\n    /* \"#utility.yul\":940:1042   */\ntag_18:\n    /* \"#utility.yul\":981:987   */\n  0x00\n    /* \"#utility.yul\":1032:1034   */\n  0x1f\n    /* \"#utility.yul\":1028:1035   */\n  not\n    /* \"#utility.yul\":1023:1025   */\n  0x1f\n    /* \"#utility.yul\":1016:1021   */\n  dup4\n    /* \"#utility.yul\":1012:1026   */\n  add\n    /* \"#utility.yul\":1008:1036   */\n  and\n    /* \"#utility.yul\":998:1036   */\n  swap1\n  pop\n    /* \"#utility.yul\":940:1042   */\n  swap2\n  swap1\n  pop\n  jump\t// out\n    /* \"#utility.yul\":1048:1228   */\ntag_19:\n    /* \"#utility.yul\":1096:1173   */\n  0x4e487b7100000000000000000000000000000000000000000000000000000000\n    /* \"#utility.yul\":1093:1094   */\n  0x00\n    /* \"#utility.yul\":1086:1174   */\n  mstore\n    /* \"#utility.yul\":1193:1197   */\n  0x41\n    /* \"#utility.yul\":1190:1191   */\n  0x04\n    /* \"#utility.yul\":1183:1198   */\n  mstore\n    /* \"#utility.yul\":1217:1221   */\n  0x24\n    /* \"#utility.yul\":1214:1215   */\n  0x00\n    /* \"#utility.yul\":1207:1222   */\n  revert\n    /* \"#utility.yul\":1234:1515   */\ntag_20:\n    /* \"#utility.yul\":1317:1344   */\n  tag_59\n    /* \"#utility.yul\":1339:1343   */\n  dup3\n    /* \"#utility.yul\":1317:1344   */\n  tag_18\n  jump\t// in\ntag_59:\n    /* \"#utility.yul\":1309:1315   */\n  dup2\n    /* \"#utility.yul\":1305:1345   */\n  add\n    /* \"#utility.yul\":1447:1453   */\n  dup2\n    /* \"#utility.yul\":1435:1445   */\n  dup2\n    /* \"#utility.yul\":1432:1454   */\n  lt\n    /* \"#utility.yul\":1411:1429   */\n  0xffffffffffffffff\n    /* \"#utility.yul\":1399:1409   */\n  dup3\n    /* \"#utility.yul\":1396:1430   */\n  gt\n    /* \"#utility.yul\":1393:1455   */\n  or\n    /* \"#utility.yul\":1390:1478   */\n  iszero\n  tag_60\n  jumpi\n    /* \"#utility.yul\":1458:1476   */\n  tag_61\n  tag_19\n  jump\t// in\ntag_61:\n    /* \"#utility.yul\":1390:1478   */\ntag_60:\n    /* \"#utility.yul\":1498:1508   */\n  dup1\n    /* \"#utility.yul\":1494:1496   */\n  0x40\n    /* \"#utility.yul\":1487:1509   */\n  mstore\n    /* \"#utility.yul\":1277:1515   */\n  pop\n    /* \"#utility.yul\":1234:1515   */\n  pop\n  pop\n  jump\t// out\n    /* \"#utility.yul\":1521:1650   */\ntag_21:\n    /* \"#utility.yul\":1555:1561   */\n  0x00\n    /* \"#utility.yul\":1582:1602   */\n  tag_63\n  tag_10\n  jump\t// in\ntag_63:\n    /* \"#utility.yul\":1572:1602   */\n  swap1\n  pop\n    /* \"#utility.yul\":1611:1644   */\n  tag_64\n    /* \"#utility.yul\":1639:1643   */\n  dup3\n    /* \"#utility.yul\":1631:1637   */\n  dup3\n    /* \"#utility.yul\":1611:1644   */\n  tag_20\n  jump\t// in\ntag_64:\n    /* \"#utility.yul\":1521:1650   */\n  swap2\n  swap1\n  pop\n  jump\t// out\n    /* \"#utility.yul\":1656:1964   */\ntag_22:\n    /* \"#utility.yul\":1718:1722   */\n  0x00\n    /* \"#utility.yul\":1808:1826   */\n  0xffffffffffffffff\n    /* \"#utility.yul\":1800:1806   */\n  dup3\n    /* \"#utility.yul\":1797:1827   */\n  gt\n    /* \"#utility.yul\":1794:1850   */\n  iszero\n  tag_66\n  jumpi\n    /* \"#utility.yul\":1830:1848   */\n  tag_67\n  tag_19\n  jump\t// in\ntag_67:\n    /* \"#utility.yul\":1794:1850   */\ntag_66:\n    /* \"#utility.yul\":1868:1897   */\n  tag_68\n    /* \"#utility.yul\":1890:1896   */\n  dup3\n    /* \"#utility.yul\":1868:1897   */\n  tag_18\n  jump\t// in\ntag_68:\n    /* \"#utility.yul\":1860:1897   */\n  swap1\n  pop\n    /* \"#utility.yul\":1952:1956   */\n  0x20\n    /* \"#utility.yul\":1946:1950   */\n  dup2\n    /* \"#utility.yul\":1942:1957   */\n  add\n    /* \"#utility.yul\":1934:1957   */\n  swap1\n  pop\n    /* \"#utility.yul\":1656:1964   */\n  swap2\n  swap1\n  pop\n  jump\t// out\n    /* \"#utility.yul\":1970:2277   */\ntag_23:\n    /* \"#utility.yul\":2038:2039   */\n  0x00\n    /* \"#utility.yul\":2048:2161   */\ntag_70:\n    /* \"#utility.yul\":2062:2068   */\n  dup4\n    /* \"#utility.yul\":2059:2060   */\n  dup2\n    /* \"#utility.yul\":2056:2069   */\n  lt\n    /* \"#utility.yul\":2048:2161   */\n  iszero\n  tag_72\n  jumpi\n    /* \"#utility.yul\":2147:2148   */\n  dup1\n    /* \"#utility.yul\":2142:2145   */\n  dup3\n    /* \"#utility.yul\":2138:2149   */\n  add\n    /* \"#utility.yul\":2132:2150   */\n  mload\n    /* \"#utility.yul\":2128:2129   */\n  dup2\n    /* \"#utility.yul\":2123:2126   */\n  dup5\n    /* \"#utility.yul\":2119:2130   */\n  add\n    /* \"#utility.yul\":2112:2151   */\n  mstore\n    /* \"#utility.yul\":2084:2086   */\n  0x20\n    /* \"#utility.yul\":2081:2082   */\n  dup2\n    /* \"#utility.yul\":2077:2087   */\n  add\n    /* \"#utility.yul\":2072:2087   */\n  swap1\n  pop\n    /* \"#utility.yul\":2048:2161   */\n  jump(tag_70)\ntag_72:\n    /* \"#utility.yul\":2179:2185   */\n  dup4\n    /* \"#utility.yul\":2176:2177   */\n  dup2\n    /* \"#utility.yul\":2173:2186   */\n  gt\n    /* \"#utility.yul\":2170:2271   */\n  iszero\n  tag_73\n  jumpi\n    /* \"#utility.yul\":2259:2260   */\n  0x00\n    /* \"#utility.yul\":2250:2256   */\n  dup5\n    /* \"#utility.yul\":2245:2248   */\n  dup5\n    /* \"#utility.yul\":2241:2257   */\n  add\n    /* \"#utility.yul\":2234:2261   */\n  mstore\n    /* \"#utility.yul\":2170:2271   */\ntag_73:\n    /* \"#utility.yul\":2019:2277   */\n  pop\n    /* \"#utility.yul\":1970:2277   */\n  pop\n  pop\n  pop\n  jump\t// out\n    /* \"#utility.yul\":2283:2704   */\ntag_24:\n    /* \"#utility.yul\":2372:2377   */\n  0x00\n    /* \"#utility.yul\":2397:2463   */\n  tag_75\n    /* \"#utility.yul\":2413:2462   */\n  tag_76\n    /* \"#utility.yul\":2455:2461   */\n  dup5\n    /* \"#utility.yul\":2413:2462   */\n  tag_22\n  jump\t// in\ntag_76:\n    /* \"#utility.yul\":2397:2463   */\n  tag_21\n  jump\t// in\ntag_75:\n    /* \"#utility.yul\":2388:2463   */\n  swap1\n  pop\n    /* \"#utility.yul\":2486:2492   */\n  dup3\n    /* \"#utility.yul\":2479:2484   */\n  dup2\n    /* \"#utility.yul\":2472:2493   */\n  mstore\n    /* \"#utility.yul\":2524:2528   */\n  0x20\n    /* \"#utility.yul\":2517:2522   */\n  dup2\n    /* \"#utility.yul\":2513:2529   */\n  add\n    /* \"#utility.yul\":2562:2565   */\n  dup5\n    /* \"#utility.yul\":2553:2559   */\n  dup5\n    /* \"#utility.yul\":2548:2551   */\n  dup5\n    /* \"#utility.yul\":2544:2560   */\n  add\n    /* \"#utility.yul\":2541:2566   */\n  gt\n    /* \"#utility.yul\":2538:2650   */\n  iszero\n  tag_77\n  jumpi\n    /* \"#utility.yul\":2569:2648   */\n  tag_78\n  tag_17\n  jump\t// in\ntag_78:\n    /* \"#utility.yul\":2538:2650   */\ntag_77:\n    /* \"#utility.yul\":2659:2698   */\n  tag_79\n    /* \"#utility.yul\":2691:2697   */\n  dup5\n    /* \"#utility.yul\":2686:2689   */\n  dup3\n    /* \"#utility.yul\":2681:2684   */\n  dup6\n    /* \"#utility.yul\":2659:2698   */\n  tag_23\n  jump\t// in\ntag_79:\n    /* \"#utility.yul\":2378:2704   */\n  pop\n    /* \"#utility.yul\":2283:2704   */\n  swap4\n  swap3\n  pop\n  pop\n  pop\n  jump\t// out\n    /* \"#utility.yul\":2724:3079   */\ntag_25:\n    /* \"#utility.yul\":2791:2796   */\n  0x00\n    /* \"#utility.yul\":2840:2843   */\n  dup3\n    /* \"#utility.yul\":2833:2837   */\n  0x1f\n    /* \"#utility.yul\":2825:2831   */\n  dup4\n    /* \"#utility.yul\":2821:2838   */\n  add\n    /* \"#utility.yul\":2817:2844   */\n  slt\n    /* \"#utility.yul\":2807:2929   */\n  tag_81\n  jumpi\n    /* \"#utility.yul\":2848:2927   */\n  tag_82\n  tag_16\n  jump\t// in\ntag_82:\n    /* \"#utility.yul\":2807:2929   */\ntag_81:\n    /* \"#utility.yul\":2958:2964   */\n  dup2\n    /* \"#utility.yul\":2952:2965   */\n  mload\n    /* \"#utility.yul\":2983:3073   */\n  tag_83\n    /* \"#utility.yul\":3069:3072   */\n  dup5\n    /* \"#utility.yul\":3061:3067   */\n  dup3\n    /* \"#utility.yul\":3054:3058   */\n  0x20\n    /* \"#utility.yul\":3046:3052   */\n  dup7\n    /* \"#utility.yul\":3042:3059   */\n  add\n    /* \"#utility.yul\":2983:3073   */\n  tag_24\n  jump\t// in\ntag_83:\n    /* \"#utility.yul\":2974:3073   */\n  swap2\n  pop\n    /* \"#utility.yul\":2797:3079   */\n  pop\n    /* \"#utility.yul\":2724:3079   */\n  swap3\n  swap2\n  pop\n  pop\n  jump\t// out\n    /* \"#utility.yul\":3085:4094   */\ntag_3:\n    /* \"#utility.yul\":3193:3199   */\n  0x00\n    /* \"#utility.yul\":3201:3207   */\n  dup1\n    /* \"#utility.yul\":3209:3215   */\n  0x00\n    /* \"#utility.yul\":3258:3260   */\n  0x60\n    /* \"#utility.yul\":3246:3255   */\n  dup5\n    /* \"#utility.yul\":3237:3244   */\n  dup7\n    /* \"#utility.yul\":3233:3256   */\n  sub\n    /* \"#utility.yul\":3229:3261   */\n  slt\n    /* \"#utility.yul\":3226:3345   */\n  iszero\n  tag_85\n  jumpi\n    /* \"#utility.yul\":3264:3343   */\n  tag_86\n  tag_11\n  jump\t// in\ntag_86:\n    /* \"#utility.yul\":3226:3345   */\ntag_85:\n    /* \"#utility.yul\":3384:3385   */\n  0x00\n    /* \"#utility.yul\":3409:3473   */\n  tag_87\n    /* \"#utility.yul\":3465:3472   */\n  dup7\n    /* \"#utility.yul\":3456:3462   */\n  dup3\n    /* \"#utility.yul\":3445:3454   */\n  dup8\n    /* \"#utility.yul\":3441:3463   */\n  add\n    /* \"#utility.yul\":3409:3473   */\n  tag_15\n  jump\t// in\ntag_87:\n    /* \"#utility.yul\":3399:3473   */\n  swap4\n  pop\n    /* \"#utility.yul\":3355:3483   */\n  pop\n    /* \"#utility.yul\":3543:3545   */\n  0x20\n    /* \"#utility.yul\":3532:3541   */\n  dup5\n    /* \"#utility.yul\":3528:3546   */\n  add\n    /* \"#utility.yul\":3522:3547   */\n  mload\n    /* \"#utility.yul\":3574:3592   */\n  0xffffffffffffffff\n    /* \"#utility.yul\":3566:3572   */\n  dup2\n    /* \"#utility.yul\":3563:3593   */\n  gt\n    /* \"#utility.yul\":3560:3677   */\n  iszero\n  tag_88\n  jumpi\n    /* \"#utility.yul\":3596:3675   */\n  tag_89\n  tag_12\n  jump\t// in\ntag_89:\n    /* \"#utility.yul\":3560:3677   */\ntag_88:\n    /* \"#utility.yul\":3701:3775   */\n  tag_90\n    /* \"#utility.yul\":3767:3774   */\n  dup7\n    /* \"#utility.yul\":3758:3764   */\n  dup3\n    /* \"#utility.yul\":3747:3756   */\n  dup8\n    /* \"#utility.yul\":3743:3765   */\n  add\n    /* \"#utility.yul\":3701:3775   */\n  tag_25\n  jump\t// in\ntag_90:\n    /* \"#utility.yul\":3691:3775   */\n  swap3\n  pop\n    /* \"#utility.yul\":3493:3785   */\n  pop\n    /* \"#utility.yul\":3845:3847   */\n  0x40\n    /* \"#utility.yul\":3834:3843   */\n  dup5\n    /* \"#utility.yul\":3830:3848   */\n  add\n    /* \"#utility.yul\":3824:3849   */\n  mload\n    /* \"#utility.yul\":3876:3894   */\n  0xffffffffffffffff\n    /* \"#utility.yul\":3868:3874   */\n  dup2\n    /* \"#utility.yul\":3865:3895   */\n  gt\n    /* \"#utility.yul\":3862:3979   */\n  iszero\n  tag_91\n  jumpi\n    /* \"#utility.yul\":3898:3977   */\n  tag_92\n  tag_12\n  jump\t// in\ntag_92:\n    /* \"#utility.yul\":3862:3979   */\ntag_91:\n    /* \"#utility.yul\":4003:4077   */\n  tag_93\n    /* \"#utility.yul\":4069:4076   */\n  dup7\n    /* \"#utility.yul\":4060:4066   */\n  dup3\n    /* \"#utility.yul\":4049:4058   */\n  dup8\n    /* \"#utility.yul\":4045:4067   */\n  add\n    /* \"#utility.yul\":4003:4077   */\n  tag_25\n  jump\t// in\ntag_93:\n    /* \"#utility.yul\":3993:4077   */\n  swap2\n  pop\n    /* \"#utility.yul\":3795:4087   */\n  pop\n    /* \"#utility.yul\":3085:4094   */\n  swap3\n  pop\n  swap3\n  pop\n  swap3\n  jump\t// out\n    /* \"#utility.yul\":4100:4199   */\ntag_26:\n    /* \"#utility.yul\":4152:4158   */\n  0x00\n    /* \"#utility.yul\":4186:4191   */\n  dup2\n    /* \"#utility.yul\":4180:4192   */\n  mload\n    /* \"#utility.yul\":4170:4192   */\n  swap1\n  pop\n    /* \"#utility.yul\":4100:4199   */\n  swap2\n  swap1\n  pop\n  jump\t// out\n    /* \"#utility.yul\":4205:4385   */\ntag_27:\n    /* \"#utility.yul\":4253:4330   */\n  0x4e487b7100000000000000000000000000000000000000000000000000000000\n    /* \"#utility.yul\":4250:4251   */\n  0x00\n    /* \"#utility.yul\":4243:4331   */\n  mstore\n    /* \"#utility.yul\":4350:4354   */\n  0x22\n    /* \"#utility.yul\":4347:4348   */\n  0x04\n    /* \"#utility.yul\":4340:4355   */\n  mstore\n    /* \"#utility.yul\":4374:4378   */\n  0x24\n    /* \"#utility.yul\":4371:4372   */\n  0x00\n    /* \"#utility.yul\":4364:4379   */\n  revert\n    /* \"#utility.yul\":4391:4711   */\ntag_28:\n    /* \"#utility.yul\":4435:4441   */\n  0x00\n    /* \"#utility.yul\":4472:4473   */\n  0x02\n    /* \"#utility.yul\":4466:4470   */\n  dup3\n    /* \"#utility.yul\":4462:4474   */\n  div\n    /* \"#utility.yul\":4452:4474   */\n  swap1\n  pop\n    /* \"#utility.yul\":4519:4520   */\n  0x01\n    /* \"#utility.yul\":4513:4517   */\n  dup3\n    /* \"#utility.yul\":4509:4521   */\n  and\n    /* \"#utility.yul\":4540:4558   */\n  dup1\n    /* \"#utility.yul\":4530:4611   */\n  tag_97\n  jumpi\n    /* \"#utility.yul\":4596:4600   */\n  0x7f\n    /* \"#utility.yul\":4588:4594   */\n  dup3\n    /* \"#utility.yul\":4584:4601   */\n  and\n    /* \"#utility.yul\":4574:4601   */\n  swap2\n  pop\n    /* \"#utility.yul\":4530:4611   */\ntag_97:\n    /* \"#utility.yul\":4658:4660   */\n  0x20\n    /* \"#utility.yul\":4650:4656   */\n  dup3\n    /* \"#utility.yul\":4647:4661   */\n  lt\n    /* \"#utility.yul\":4627:4645   */\n  dup2\n    /* \"#utility.yul\":4624:4662   */\n  sub\n    /* \"#utility.yul\":4621:4705   */\n  tag_98\n  jumpi\n    /* \"#utility.yul\":4677:4695   */\n  tag_99\n  tag_27\n  jump\t// in\ntag_99:\n    /* \"#utility.yul\":4621:4705   */\ntag_98:\n    /* \"#utility.yul\":4442:4711   */\n  pop\n    /* \"#utility.yul\":4391:4711   */\n  swap2\n  swap1\n  pop\n  jump\t// out\n    /* \"#utility.yul\":4717:4858   */\ntag_29:\n    /* \"#utility.yul\":4766:4770   */\n  0x00\n    /* \"#utility.yul\":4789:4792   */\n  dup2\n    /* \"#utility.yul\":4781:4792   */\n  swap1\n  pop\n    /* \"#utility.yul\":4812:4815   */\n  dup2\n    /* \"#utility.yul\":4809:4810   */\n  0x00\n    /* \"#utility.yul\":4802:4816   */\n  mstore\n    /* \"#utility.yul\":4846:4850   */\n  0x20\n    /* \"#utility.yul\":4843:4844   */\n  0x00\n    /* \"#utility.yul\":4833:4851   */\n  keccak256\n    /* \"#utility.yul\":4825:4851   */\n  swap1\n  pop\n    /* \"#utility.yul\":4717:4858   */\n  swap2\n  swap1\n  pop\n  jump\t// out\n    /* \"#utility.yul\":4864:4957   */\ntag_30:\n    /* \"#utility.yul\":4901:4907   */\n  0x00\n    /* \"#utility.yul\":4948:4950   */\n  0x20\n    /* \"#utility.yul\":4943:4945   */\n  0x1f\n    /* \"#utility.yul\":4936:4941   */\n  dup4\n    /* \"#utility.yul\":4932:4946   */\n  add\n    /* \"#utility.yul\":4928:4951   */\n  div\n    /* \"#utility.yul\":4918:4951   */\n  swap1\n  pop\n    /* \"#utility.yul\":4864:4957   */\n  swap2\n  swap1\n  pop\n  jump\t// out\n    /* \"#utility.yul\":4963:5070   */\ntag_31:\n    /* \"#utility.yul\":5007:5015   */\n  0x00\n    /* \"#utility.yul\":5057:5062   */\n  dup3\n    /* \"#utility.yul\":5051:5055   */\n  dup3\n    /* \"#utility.yul\":5047:5063   */\n  shl\n    /* \"#utility.yul\":5026:5063   */\n  swap1\n  pop\n    /* \"#utility.yul\":4963:5070   */\n  swap3\n  swap2\n  pop\n  pop\n  jump\t// out\n    /* \"#utility.yul\":5076:5469   */\ntag_32:\n    /* \"#utility.yul\":5145:5151   */\n  0x00\n    /* \"#utility.yul\":5195:5196   */\n  0x08\n    /* \"#utility.yul\":5183:5193   */\n  dup4\n    /* \"#utility.yul\":5179:5197   */\n  mul\n    /* \"#utility.yul\":5218:5315   */\n  tag_104\n    /* \"#utility.yul\":5248:5314   */\n  0xffffffffffffffffffffffffffffffffffffffffffffffffffffffffffffffff\n    /* \"#utility.yul\":5237:5246   */\n  dup3\n    /* \"#utility.yul\":5218:5315   */\n  tag_31\n  jump\t// in\ntag_104:\n    /* \"#utility.yul\":5336:5375   */\n  tag_105\n    /* \"#utility.yul\":5366:5374   */\n  dup7\n    /* \"#utility.yul\":5355:5364   */\n  dup4\n    /* \"#utility.yul\":5336:5375   */\n  tag_31\n  jump\t// in\ntag_105:\n    /* \"#utility.yul\":5324:5375   */\n  swap6\n  pop\n    /* \"#utility.yul\":5408:5412   */\n  dup1\n    /* \"#utility.yul\":5404:5413   */\n  not\n    /* \"#utility.yul\":5397:5402   */\n  dup5\n    /* \"#utility.yul\":5393:5414   */\n  and\n    /* \"#utility.yul\":5384:5414   */\n  swap4\n  pop\n    /* \"#utility.yul\":5457:5461   */\n  dup1\n    /* \"#utility.yul\":5447:5455   */\n  dup7\n    /* \"#utility.yul\":5443:5462   */\n  and\n    /* \"#utility.yul\":5436:5441   */\n  dup5\n    /* \"#utility.yul\":5433:5463   */\n  or\n    /* \"#utility.yul\":5423:5463   */\n  swap3\n  pop\n    /* \"#utility.yul\":5152:5469   */\n  pop\n  pop\n    /* \"#utility.yul\":5076:5469   */\n  swap4\n  swap3\n  pop\n  pop\n  pop\n  jump\t// out\n    /* \"#utility.yul\":5475:5535   */\ntag_33:\n    /* \"#utility.yul\":5503:5506   */\n  0x00\n    /* \"#utility.yul\":5524:5529   */\n  dup2\n    /* \"#utility.yul\":5517:5529   */\n  swap1\n  pop\n    /* \"#utility.yul\":5475:5535   */\n  swap2\n  swap1\n  pop\n  jump\t// out\n    /* \"#utility.yul\":5541:5683   */\ntag_34:\n    /* \"#utility.yul\":5591:5600   */\n  0x00\n    /* \"#utility.yul\":5624:5677   */\n  tag_108\n    /* \"#utility.yul\":5642:5676   */\n  tag_109\n    /* \"#utility.yul\":5651:5675   */\n  tag_110\n    /* \"#utility.yul\":5669:5674   */\n  dup5\n    /* \"#utility.yul\":5651:5675   */\n  tag_13\n  jump\t// in\ntag_110:\n    /* \"#utility.yul\":5642:5676   */\n  tag_33\n  jump\t// in\ntag_109:\n    /* \"#utility.yul\":5624:5677   */\n  tag_13\n  jump\t// in\ntag_108:\n    /* \"#utility.yul\":5611:5677   */\n  swap1\n  pop\n    /* \"#utility.yul\":5541:5683   */\n  swap2\n  swap1\n  pop\n  jump\t// out\n    /* \"#utility.yul\":5689:5764   */\ntag_35:\n    /* \"#utility.yul\":5732:5735   */\n  0x00\n    /* \"#utility.yul\":5753:5758   */\n  dup2\n    /* \"#utility.yul\":5746:5758   */\n  swap1\n  pop\n    /* \"#utility.yul\":5689:5764   */\n  swap2\n  swap1\n  pop\n  jump\t// out\n    /* \"#utility.yul\":5770:6039   */\ntag_36:\n    /* \"#utility.yul\":5880:5919   */\n  tag_113\n    /* \"#utility.yul\":5911:5918   */\n  dup4\n    /* \"#utility.yul\":5880:5919   */\n  tag_34\n  jump\t// in\ntag_113:\n    /* \"#utility.yul\":5941:6032   */\n  tag_114\n    /* \"#utility.yul\":5990:6031   */\n  tag_115\n    /* \"#utility.yul\":6014:6030   */\n  dup3\n    /* \"#utility.yul\":5990:6031   */\n  tag_35\n  jump\t// in\ntag_115:\n    /* \"#utility.yul\":5982:5988   */\n  dup5\n    /* \"#utility.yul\":5975:5979   */\n  dup5\n    /* \"#utility.yul\":5969:5980   */\n  sload\n    /* \"#utility.yul\":5941:6032   */\n  tag_32\n  jump\t// in\ntag_114:\n    /* \"#utility.yul\":5935:5939   */\n  dup3\n    /* \"#utility.yul\":5928:6033   */\n  sstore\n    /* \"#utility.yul\":5846:6039   */\n  pop\n    /* \"#utility.yul\":5770:6039   */\n  pop\n  pop\n  pop\n  jump\t// out\n    /* \"#utility.yul\":6045:6118   */\ntag_37:\n    /* \"#utility.yul\":6090:6093   */\n  0x00\n    /* \"#utility.yul\":6045:6118   */\n  swap1\n  jump\t// out\n    /* \"#utility.yul\":6124:6313   */\ntag_38:\n    /* \"#utility.yul\":6201:6233   */\n  tag_118\n  tag_37\n  jump\t// in\ntag_118:\n    /* \"#utility.yul\":6242:6307   */\n  tag_119\n    /* \"#utility.yul\":6300:6306   */\n  dup2\n    /* \"#utility.yul\":6292:6298   */\n  dup5\n    /* \"#utility.yul\":6286:6290   */\n  dup5\n    /* \"#utility.yul\":6242:6307   */\n  tag_36\n  jump\t// in\ntag_119:\n    /* \"#utility.yul\":6177:6313   */\n  pop\n    /* \"#utility.yul\":6124:6313   */\n  pop\n  pop\n  jump\t// out\n    /* \"#utility.yul\":6319:6505   */\ntag_39:\n    /* \"#utility.yul\":6379:6499   */\ntag_121:\n    /* \"#utility.yul\":6396:6399   */\n  dup2\n    /* \"#utility.yul\":6389:6394   */\n  dup2\n    /* \"#utility.yul\":6386:6400   */\n  lt\n    /* \"#utility.yul\":6379:6499   */\n  iszero\n  tag_123\n  jumpi\n    /* \"#utility.yul\":6450:6489   */\n  tag_124\n    /* \"#utility.yul\":6487:6488   */\n  0x00\n    /* \"#utility.yul\":6480:6485   */\n  dup3\n    /* \"#utility.yul\":6450:6489   */\n  tag_38\n  jump\t// in\ntag_124:\n    /* \"#utility.yul\":6423:6424   */\n  0x01\n    /* \"#utility.yul\":6416:6421   */\n  dup2\n    /* \"#utility.yul\":6412:6425   */\n  add\n    /* \"#utility.yul\":6403:6425   */\n  swap1\n  pop\n    /* \"#utility.yul\":6379:6499   */\n  jump(tag_121)\ntag_123:\n    /* \"#utility.yul\":6319:6505   */\n  pop\n  pop\n  jump\t// out\n    /* \"#utility.yul\":6511:7054   */\ntag_40:\n    /* \"#utility.yul\":6612:6614   */\n  0x1f\n    /* \"#utility.yul\":6607:6610   */\n  dup3\n    /* \"#utility.yul\":6604:6615   */\n  gt\n    /* \"#utility.yul\":6601:7047   */\n  iszero\n  tag_126\n  jumpi\n    /* \"#utility.yul\":6646:6684   */\n  tag_127\n    /* \"#utility.yul\":6678:6683   */\n  dup2\n    /* \"#utility.yul\":6646:6684   */\n  tag_29\n  jump\t// in\ntag_127:\n    /* \"#utility.yul\":6730:6759   */\n  tag_128\n    /* \"#utility.yul\":6748:6758   */\n  dup5\n    /* \"#utility.yul\":6730:6759   */\n  tag_30\n  jump\t// in\ntag_128:\n    /* \"#utility.yul\":6720:6728   */\n  dup2\n    /* \"#utility.yul\":6716:6760   */\n  add\n    /* \"#utility.yul\":6913:6915   */\n  0x20\n    /* \"#utility.yul\":6901:6911   */\n  dup6\n    /* \"#utility.yul\":6898:6916   */\n  lt\n    /* \"#utility.yul\":6895:6944   */\n  iszero\n  tag_129\n  jumpi\n    /* \"#utility.yul\":6934:6942   */\n  dup2\n    /* \"#utility.yul\":6919:6942   */\n  swap1\n  pop\n    /* \"#utility.yul\":6895:6944   */\ntag_129:\n    /* \"#utility.yul\":6957:7037   */\n  tag_130\n    /* \"#utility.yul\":7013:7035   */\n  tag_131\n    /* \"#utility.yul\":7031:7034   */\n  dup6\n    /* \"#utility.yul\":7013:7035   */\n  tag_30\n  jump\t// in\ntag_131:\n    /* \"#utility.yul\":7003:7011   */\n  dup4\n    /* \"#utility.yul\":6999:7036   */\n  add\n    /* \"#utility.yul\":6986:6997   */\n  dup3\n    /* \"#utility.yul\":6957:7037   */\n  tag_39\n  jump\t// in\ntag_130:\n    /* \"#utility.yul\":6616:7047   */\n  pop\n  pop\n    /* \"#utility.yul\":6601:7047   */\ntag_126:\n    /* \"#utility.yul\":6511:7054   */\n  pop\n  pop\n  pop\n  jump\t// out\n    /* \"#utility.yul\":7060:7177   */\ntag_41:\n    /* \"#utility.yul\":7114:7122   */\n  0x00\n    /* \"#utility.yul\":7164:7169   */\n  dup3\n    /* \"#utility.yul\":7158:7162   */\n  dup3\n    /* \"#utility.yul\":7154:7170   */\n  shr\n    /* \"#utility.yul\":7133:7170   */\n  swap1\n  pop\n    /* \"#utility.yul\":7060:7177   */\n  swap3\n  swap2\n  pop\n  pop\n  jump\t// out\n    /* \"#utility.yul\":7183:7352   */\ntag_42:\n    /* \"#utility.yul\":7227:7233   */\n  0x00\n    /* \"#utility.yul\":7260:7311   */\n  tag_134\n    /* \"#utility.yul\":7308:7309   */\n  0x00\n    /* \"#utility.yul\":7304:7310   */\n  not\n    /* \"#utility.yul\":7296:7301   */\n  dup5\n    /* \"#utility.yul\":7293:7294   */\n  0x08\n    /* \"#utility.yul\":7289:7302   */\n  mul\n    /* \"#utility.yul\":7260:7311   */\n  tag_41\n  jump\t// in\ntag_134:\n    /* \"#utility.yul\":7256:7312   */\n  not\n    /* \"#utility.yul\":7341:7345   */\n  dup1\n    /* \"#utility.yul\":7335:7339   */\n  dup4\n    /* \"#utility.yul\":7331:7346   */\n  and\n    /* \"#utility.yul\":7321:7346   */\n  swap2\n  pop\n    /* \"#utility.yul\":7234:7352   */\n  pop\n    /* \"#utility.yul\":7183:7352   */\n  swap3\n  swap2\n  pop\n  pop\n  jump\t// out\n    /* \"#utility.yul\":7357:7652   */\ntag_43:\n    /* \"#utility.yul\":7433:7437   */\n  0x00\n    /* \"#utility.yul\":7579:7608   */\n  tag_136\n    /* \"#utility.yul\":7604:7607   */\n  dup4\n    /* \"#utility.yul\":7598:7602   */\n  dup4\n    /* \"#utility.yul\":7579:7608   */\n  tag_42\n  jump\t// in\ntag_136:\n    /* \"#utility.yul\":7571:7608   */\n  swap2\n  pop\n    /* \"#utility.yul\":7641:7644   */\n  dup3\n    /* \"#utility.yul\":7638:7639   */\n  0x02\n    /* \"#utility.yul\":7634:7645   */\n  mul\n    /* \"#utility.yul\":7628:7632   */\n  dup3\n    /* \"#utility.yul\":7625:7646   */\n  or\n    /* \"#utility.yul\":7617:7646   */\n  swap1\n  pop\n    /* \"#utility.yul\":7357:7652   */\n  swap3\n  swap2\n  pop\n  pop\n  jump\t// out\n    /* \"#utility.yul\":7657:9052   */\ntag_7:\n    /* \"#utility.yul\":7774:7811   */\n  tag_138\n    /* \"#utility.yul\":7807:7810   */\n  dup3\n    /* \"#utility.yul\":7774:7811   */\n  tag_26\n  jump\t// in\ntag_138:\n    /* \"#utility.yul\":7876:7894   */\n  0xffffffffffffffff\n    /* \"#utility.yul\":7868:7874   */\n  dup2\n    /* \"#utility.yul\":7865:7895   */\n  gt\n    /* \"#utility.yul\":7862:7918   */\n  iszero\n  tag_139\n  jumpi\n    /* \"#utility.yul\":7898:7916   */\n  tag_140\n  tag_19\n  jump\t// in\ntag_140:\n    /* \"#utility.yul\":7862:7918   */\ntag_139:\n    /* \"#utility.yul\":7942:7980   */\n  tag_141\n    /* \"#utility.yul\":7974:7978   */\n  dup3\n    /* \"#utility.yul\":7968:7979   */\n  sload\n    /* \"#utility.yul\":7942:7980   */\n  tag_28\n  jump\t// in\ntag_141:\n    /* \"#utility.yul\":8027:8094   */\n  tag_142\n    /* \"#utility.yul\":8087:8093   */\n  dup3\n    /* \"#utility.yul\":8079:8085   */\n  dup3\n    /* \"#utility.yul\":8073:8077   */\n  dup6\n    /* \"#utility.yul\":8027:8094   */\n  tag_40\n  jump\t// in\ntag_142:\n    /* \"#utility.yul\":8121:8122   */\n  0x00\n    /* \"#utility.yul\":8145:8149   */\n  0x20\n    /* \"#utility.yul\":8132:8149   */\n  swap1\n  pop\n    /* \"#utility.yul\":8177:8179   */\n  0x1f\n    /* \"#utility.yul\":8169:8175   */\n  dup4\n    /* \"#utility.yul\":8166:8180   */\n  gt\n    /* \"#utility.yul\":8194:8195   */\n  0x01\n    /* \"#utility.yul\":8189:8807   */\n  dup2\n  eq\n  tag_144\n  jumpi\n    /* \"#utility.yul\":8851:8852   */\n  0x00\n    /* \"#utility.yul\":8868:8874   */\n  dup5\n    /* \"#utility.yul\":8865:8942   */\n  iszero\n  tag_145\n  jumpi\n    /* \"#utility.yul\":8917:8926   */\n  dup3\n    /* \"#utility.yul\":8912:8915   */\n  dup8\n    /* \"#utility.yul\":8908:8927   */\n  add\n    /* \"#utility.yul\":8902:8928   */\n  mload\n    /* \"#utility.yul\":8893:8928   */\n  swap1\n  pop\n    /* \"#utility.yul\":8865:8942   */\ntag_145:\n    /* \"#utility.yul\":8968:9035   */\n  tag_146\n    /* \"#utility.yul\":9028:9034   */\n  dup6\n    /* \"#utility.yul\":9021:9026   */\n  dup3\n    /* \"#utility.yul\":8968:9035   */\n  tag_43\n  jump\t// in\ntag_146:\n    /* \"#utility.yul\":8962:8966   */\n  dup7\n    /* \"#utility.yul\":8955:9036   */\n  sstore\n    /* \"#utility.yul\":8824:9046   */\n  pop\n    /* \"#utility.yul\":8159:9046   */\n  jump(tag_143)\n    /* \"#utility.yul\":8189:8807   */\ntag_144:\n    /* \"#utility.yul\":8241:8245   */\n  0x1f\n    /* \"#utility.yul\":8237:8246   */\n  not\n    /* \"#utility.yul\":8229:8235   */\n  dup5\n    /* \"#utility.yul\":8225:8247   */\n  and\n    /* \"#utility.yul\":8275:8312   */\n  tag_147\n    /* \"#utility.yul\":8307:8311   */\n  dup7\n    /* \"#utility.yul\":8275:8312   */\n  tag_29\n  jump\t// in\ntag_147:\n    /* \"#utility.yul\":8334:8335   */\n  0x00\n    /* \"#utility.yul\":8348:8556   */\ntag_148:\n    /* \"#utility.yul\":8362:8369   */\n  dup3\n    /* \"#utility.yul\":8359:8360   */\n  dup2\n    /* \"#utility.yul\":8356:8370   */\n  lt\n    /* \"#utility.yul\":8348:8556   */\n  iszero\n  tag_150\n  jumpi\n    /* \"#utility.yul\":8441:8450   */\n  dup5\n    /* \"#utility.yul\":8436:8439   */\n  dup10\n    /* \"#utility.yul\":8432:8451   */\n  add\n    /* \"#utility.yul\":8426:8452   */\n  mload\n    /* \"#utility.yul\":8418:8424   */\n  dup3\n    /* \"#utility.yul\":8411:8453   */\n  sstore\n    /* \"#utility.yul\":8492:8493   */\n  0x01\n    /* \"#utility.yul\":8484:8490   */\n  dup3\n    /* \"#utility.yul\":8480:8494   */\n  add\n    /* \"#utility.yul\":8470:8494   */\n  swap2\n  pop\n    /* \"#utility.yul\":8539:8541   */\n  0x20\n    /* \"#utility.yul\":8528:8537   */\n  dup6\n    /* \"#utility.yul\":8524:8542   */\n  add\n    /* \"#utility.yul\":8511:8542   */\n  swap5\n  pop\n    /* \"#utility.yul\":8385:8389   */\n  0x20\n    /* \"#utility.yul\":8382:8383   */\n  dup2\n    /* \"#utility.yul\":8378:8390   */\n  add\n    /* \"#utility.yul\":8373:8390   */\n  swap1\n  pop\n    /* \"#utility.yul\":8348:8556   */\n  jump(tag_148)\ntag_150:\n    /* \"#utility.yul\":8584:8590   */\n  dup7\n    /* \"#utility.yul\":8575:8582   */\n  dup4\n    /* \"#utility.yul\":8572:8591   */\n  lt\n    /* \"#utility.yul\":8569:8748   */\n  iszero\n  tag_151\n  jumpi\n    /* \"#utility.yul\":8642:8651   */\n  dup5\n    /* \"#utility.yul\":8637:8640   */\n  dup10\n    /* \"#utility.yul\":8633:8652   */\n  add\n    /* \"#utility.yul\":8627:8653   */\n  mload\n    /* \"#utility.yul\":8685:8733   */\n  tag_152\n    /* \"#utility.yul\":8727:8731   */\n  0x1f\n    /* \"#utility.yul\":8719:8725   */\n  dup10\n    /* \"#utility.yul\":8715:8732   */\n  and\n    /* \"#utility.yul\":8704:8713   */\n  dup3\n    /* \"#utility.yul\":8685:8733   */\n  tag_42\n  jump\t// in\ntag_152:\n    /* \"#utility.yul\":8677:8683   */\n  dup4\n    /* \"#utility.yul\":8670:8734   */\n  sstore\n    /* \"#utility.yul\":8592:8748   */\n  pop\n    /* \"#utility.yul\":8569:8748   */\ntag_151:\n    /* \"#utility.yul\":8794:8795   */\n  0x01\n    /* \"#utility.yul\":8790:8791   */\n  0x02\n    /* \"#utility.yul\":8782:8788   */\n  dup9\n    /* \"#utility.yul\":8778:8792   */\n  mul\n    /* \"#utility.yul\":8774:8796   */\n  add\n    /* \"#utility.yul\":8768:8772   */\n  dup9\n    /* \"#utility.yul\":8761:8797   */\n  sstore\n    /* \"#utility.yul\":8196:8807   */\n  pop\n  pop\n  pop\n    /* \"#utility.yul\":8159:9046   */\ntag_143:\n  pop\n    /* \"#utility.yul\":7749:9052   */\n  pop\n  pop\n  pop\n    /* \"#utility.yul\":7657:9052   */\n  pop\n  pop\n  jump\t// out\n    /* \"Dapp/MoneyTransfer.sol\":71:2360  contract  MoneyTransfer {... */\ntag_9:\n  dataSize(sub_0)\n  dup1\n  dataOffset(sub_0)\n  0x00\n  codecopy\n  0x00\n  return\nstop\n\nsub_0: assembly {\n        /* \"Dapp/MoneyTransfer.sol\":71:2360  contract  MoneyTransfer {... */\n      mstore(0x40, 0x80)\n      callvalue\n      dup1\n      iszero\n      tag_1\n      jumpi\n      0x00\n      dup1\n      revert\n    tag_1:\n      pop\n      jumpi(tag_2, lt(calldatasize, 0x04))\n      shr(0xe0, calldataload(0x00))\n      dup1\n      0x7b9a3f4c\n      gt\n      tag_16\n      jumpi\n      dup1\n      0x94b5dcaa\n      gt\n      tag_17\n      jumpi\n      dup1\n      0x94b5dcaa\n      eq\n      tag_12\n      jumpi\n      dup1\n      0xaa8c217c\n      eq\n      tag_13\n      jumpi\n      dup1\n      0xbc309496\n      eq\n      tag_14\n      jumpi\n      dup1\n      0xe21f37ce\n      eq\n      tag_15\n      jumpi\n      jump(tag_2)\n    tag_17:\n      dup1\n      0x7b9a3f4c\n      eq\n      tag_9\n      jumpi\n      dup1\n      0x7eb9f571\n      eq\n      tag_10\n      jumpi\n      dup1\n      0x8fa11864\n      eq\n      tag_11\n      jumpi\n      jump(tag_2)\n    tag_16:\n      dup1\n      0x062a7544\n      eq\n      tag_3\n      jumpi\n      dup1\n      0x0e85fa72\n      eq\n      tag_4\n      jumpi\n      dup1\n      0x2623dc83\n      eq\n      tag_5\n      jumpi\n      dup1\n      0x34f5ccde\n      eq\n      tag_6\n      jumpi\n      dup1\n      0x42fb7936\n      eq\n      tag_7\n      jumpi\n      dup1\n      0x4b28f9a2\n      eq\n      tag_8\n      jumpi\n    tag_2:\n      0x00\n      dup1\n      revert\n        /* \"Dapp/MoneyTransfer.sol\":825:1370  function sendMoney( uint _amount, address _receiver) public m_validAddress(_receiver) m_checkCard m_transferLimit{... */\n    tag_3:\n      tag_18\n      0x04\n      dup1\n      calldatasize\n      sub\n      dup2\n      add\n      swap1\n      tag_19\n      swap2\n      swap1\n      tag_20\n      jump\t// in\n    tag_19:\n      tag_21\n      jump\t// in\n    tag_18:\n      stop\n        /* \"Dapp/MoneyTransfer.sol\":524:553  uint public firstTransferTime */\n    tag_4:\n      tag_22\n      tag_23\n      jump\t// in\n    tag_22:\n      mload(0x40)\n      tag_24\n      swap2\n      swap1\n      tag_25\n      jump\t// in\n    tag_24:\n      mload(0x40)\n      dup1\n      swap2\n      sub\n      swap1\n      return\n        /* \"Dapp/MoneyTransfer.sol\":1380:1499  function setFirstTransfer(uint _firstTransfer) public  {... */\n    tag_5:\n      tag_26\n      0x04\n      dup1\n      calldatasize\n      sub\n      dup2\n      add\n      swap1\n      tag_27\n      swap2\n      swap1\n      tag_28\n      jump\t// in\n    tag_27:\n      tag_29\n      jump\t// in\n    tag_26:\n      stop\n        /* \"Dapp/MoneyTransfer.sol\":560:585  uint public countTransfer */\n    tag_6:\n      tag_30\n      tag_31\n      jump\t// in\n    tag_30:\n      mload(0x40)\n      tag_32\n      swap2\n      swap1\n      tag_25\n      jump\t// in\n    tag_32:\n      mload(0x40)\n      dup1\n      swap2\n      sub\n      swap1\n      return\n        /* \"Dapp/MoneyTransfer.sol\":470:487  string public cvv */\n    tag_7:\n      tag_33\n      tag_34\n      jump\t// in\n    tag_33:\n      mload(0x40)\n      tag_35\n      swap2\n      swap1\n      tag_36\n      jump\t// in\n    tag_35:\n      mload(0x40)\n      dup1\n      swap2\n      sub\n      swap1\n      return\n        /* \"Dapp/MoneyTransfer.sol\":790:815  uint public callCount = 0 */\n    tag_8:\n      tag_37\n      tag_38\n      jump\t// in\n    tag_37:\n      mload(0x40)\n      tag_39\n      swap2\n      swap1\n      tag_25\n      jump\t// in\n    tag_39:\n      mload(0x40)\n      dup1\n      swap2\n      sub\n      swap1\n      return\n        /* \"Dapp/MoneyTransfer.sol\":134:159  uint256 public TotalFunds */\n    tag_9:\n      tag_40\n      tag_41\n      jump\t// in\n    tag_40:\n      mload(0x40)\n      tag_42\n      swap2\n      swap1\n      tag_25\n      jump\t// in\n    tag_42:\n      mload(0x40)\n      dup1\n      swap2\n      sub\n      swap1\n      return\n        /* \"Dapp/MoneyTransfer.sol\":494:520  uint256 public TotalAmount */\n    tag_10:\n      tag_43\n      tag_44\n      jump\t// in\n    tag_43:\n      mload(0x40)\n      tag_45\n      swap2\n      swap1\n      tag_25\n      jump\t// in\n    tag_45:\n      mload(0x40)\n      dup1\n      swap2\n      sub\n      swap1\n      return\n        /* \"Dapp/MoneyTransfer.sol\":438:462  string public cardNumber */\n    tag_11:\n      tag_46\n      tag_47\n      jump\t// in\n    tag_46:\n      mload(0x40)\n      tag_48\n      swap2\n      swap1\n      tag_36\n      jump\t// in\n    tag_48:\n      mload(0x40)\n      dup1\n      swap2\n      sub\n      swap1\n      return\n        /* \"Dapp/MoneyTransfer.sol\":252:288  uint256 public totalWeekTransactions */\n    tag_12:\n      tag_49\n      tag_50\n      jump\t// in\n    tag_49:\n      mload(0x40)\n      tag_51\n      swap2\n      swap1\n      tag_25\n      jump\t// in\n    tag_51:\n      mload(0x40)\n      dup1\n      swap2\n      sub\n      swap1\n      return\n        /* \"Dapp/MoneyTransfer.sol\":106:127  uint256 public amount */\n    tag_13:\n      tag_52\n      tag_53\n      jump\t// in\n    tag_52:\n      mload(0x40)\n      tag_54\n      swap2\n      swap1\n      tag_25\n      jump\t// in\n    tag_54:\n      mload(0x40)\n      dup1\n      swap2\n      sub\n      swap1\n      return\n        /* \"Dapp/MoneyTransfer.sol\":375:403  uint256 public receiverFunds */\n    tag_14:\n      tag_55\n      tag_56\n      jump\t// in\n    tag_55:\n      mload(0x40)\n      tag_57\n      swap2\n      swap1\n      tag_25\n      jump\t// in\n    tag_57:\n      mload(0x40)\n      dup1\n      swap2\n      sub\n      swap1\n      return\n        /* \"Dapp/MoneyTransfer.sol\":410:431  string public message */\n    tag_15:\n      tag_58\n      tag_59\n      jump\t// in\n    tag_58:\n      mload(0x40)\n      tag_60\n      swap2\n      swap1\n      tag_36\n      jump\t// in\n    tag_60:\n      mload(0x40)\n      dup1\n      swap2\n      sub\n      swap1\n      return\n        /* \"Dapp/MoneyTransfer.sol\":825:1370  function sendMoney( uint _amount, address _receiver) public m_validAddress(_receiver) m_checkCard m_transferLimit{... */\n    tag_21:\n        /* \"Dapp/MoneyTransfer.sol\":900:909  _receiver */\n      dup1\n        /* \"Dapp/MoneyTransfer.sol\":1568:1573  _addr */\n      dup1\n        /* \"Dapp/MoneyTransfer.sol\":1557:1565  receiver */\n      0x02\n      0x00\n        /* \"Dapp/MoneyTransfer.sol\":1557:1573  receiver = _addr */\n      0x0100\n      exp\n      dup2\n      sload\n      dup2\n      0xffffffffffffffffffffffffffffffffffffffff\n      mul\n      not\n      and\n      swap1\n      dup4\n      0xffffffffffffffffffffffffffffffffffffffff\n      and\n      mul\n      or\n      swap1\n      sstore\n      pop\n        /* \"Dapp/MoneyTransfer.sol\":1609:1610  0 */\n      0x00\n        /* \"Dapp/MoneyTransfer.sol\":1592:1611  _addr != address(0) */\n      0xffffffffffffffffffffffffffffffffffffffff\n      and\n        /* \"Dapp/MoneyTransfer.sol\":1592:1597  _addr */\n      dup2\n        /* \"Dapp/MoneyTransfer.sol\":1592:1611  _addr != address(0) */\n      0xffffffffffffffffffffffffffffffffffffffff\n      and\n      sub\n        /* \"Dapp/MoneyTransfer.sol\":1584:1644  require(_addr != address(0), \" This address doesn't exists\") */\n      tag_62\n      jumpi\n      mload(0x40)\n      0x08c379a000000000000000000000000000000000000000000000000000000000\n      dup2\n      mstore\n      0x04\n      add\n      tag_63\n      swap1\n      tag_64\n      jump\t// in\n    tag_63:\n      mload(0x40)\n      dup1\n      swap2\n      sub\n      swap1\n      revert\n    tag_62:\n        /* \"Dapp/MoneyTransfer.sol\":1755:1756  8 */\n      0x08\n        /* \"Dapp/MoneyTransfer.sol\":1733:1743  cardNumber */\n      0x0a\n        /* \"Dapp/MoneyTransfer.sol\":1727:1751  bytes(cardNumber).length */\n      dup1\n      sload\n      tag_66\n      swap1\n      tag_67\n      jump\t// in\n    tag_66:\n      swap1\n      pop\n        /* \"Dapp/MoneyTransfer.sol\":1727:1756  bytes(cardNumber).length == 8 */\n      eq\n        /* \"Dapp/MoneyTransfer.sol\":1727:1782  bytes(cardNumber).length == 8 && bytes(cvv).length == 3 */\n      dup1\n      iszero\n      tag_68\n      jumpi\n      pop\n        /* \"Dapp/MoneyTransfer.sol\":1781:1782  3 */\n      0x03\n        /* \"Dapp/MoneyTransfer.sol\":1766:1769  cvv */\n      0x0b\n        /* \"Dapp/MoneyTransfer.sol\":1760:1777  bytes(cvv).length */\n      dup1\n      sload\n      tag_69\n      swap1\n      tag_67\n      jump\t// in\n    tag_69:\n      swap1\n      pop\n        /* \"Dapp/MoneyTransfer.sol\":1760:1782  bytes(cvv).length == 3 */\n      eq\n        /* \"Dapp/MoneyTransfer.sol\":1727:1782  bytes(cardNumber).length == 8 && bytes(cvv).length == 3 */\n    tag_68:\n        /* \"Dapp/MoneyTransfer.sol\":1719:1807  require(bytes(cardNumber).length == 8 && bytes(cvv).length == 3, \"No valid credit card\") */\n      tag_70\n      jumpi\n      mload(0x40)\n      0x08c379a000000000000000000000000000000000000000000000000000000000\n      dup2\n      mstore\n      0x04\n      add\n      tag_71\n      swap1\n      tag_72\n      jump\t// in\n    tag_71:\n      mload(0x40)\n      dup1\n      swap2\n      sub\n      swap1\n      revert\n    tag_70:\n        /* \"Dapp/MoneyTransfer.sol\":1839:1840  0 */\n      0x00\n        /* \"Dapp/MoneyTransfer.sol\":1826:1836  TotalFunds */\n      sload(0x01)\n        /* \"Dapp/MoneyTransfer.sol\":1826:1840  TotalFunds > 0 */\n      gt\n        /* \"Dapp/MoneyTransfer.sol\":1826:1863  TotalFunds > 0 && TotalFunds > amount */\n      dup1\n      iszero\n      tag_73\n      jumpi\n      pop\n        /* \"Dapp/MoneyTransfer.sol\":1857:1863  amount */\n      sload(0x00)\n        /* \"Dapp/MoneyTransfer.sol\":1844:1854  TotalFunds */\n      sload(0x01)\n        /* \"Dapp/MoneyTransfer.sol\":1844:1863  TotalFunds > amount */\n      gt\n        /* \"Dapp/MoneyTransfer.sol\":1826:1863  TotalFunds > 0 && TotalFunds > amount */\n    tag_73:\n        /* \"Dapp/MoneyTransfer.sol\":1818:1883  require(TotalFunds > 0 && TotalFunds > amount,\"Not enough funds\") */\n      tag_74\n      jumpi\n      mload(0x40)\n      0x08c379a000000000000000000000000000000000000000000000000000000000\n      dup2\n      mstore\n      0x04\n      add\n      tag_75\n      swap1\n      tag_76\n      jump\t// in\n    tag_75:\n      mload(0x40)\n      dup1\n      swap2\n      sub\n      swap1\n      revert\n    tag_74:\n        /* \"Dapp/MoneyTransfer.sol\":2001:2005  2500 */\n      0x09c4\n        /* \"Dapp/MoneyTransfer.sol\":1986:1997  TotalAmount */\n      sload(0x0c)\n        /* \"Dapp/MoneyTransfer.sol\":1986:2005  TotalAmount <= 2500 */\n      gt\n      iszero\n        /* \"Dapp/MoneyTransfer.sol\":1977:2032  require (TotalAmount <= 2500 , \"You reached the limit\") */\n      tag_78\n      jumpi\n      mload(0x40)\n      0x08c379a000000000000000000000000000000000000000000000000000000000\n      dup2\n      mstore\n      0x04\n      add\n      tag_79\n      swap1\n      tag_80\n      jump\t// in\n    tag_79:\n      mload(0x40)\n      dup1\n      swap2\n      sub\n      swap1\n      revert\n    tag_78:\n        /* \"Dapp/MoneyTransfer.sol\":2064:2079  block.timestamp */\n      timestamp\n        /* \"Dapp/MoneyTransfer.sol\":2044:2061  firstTransferTime */\n      0x0d\n        /* \"Dapp/MoneyTransfer.sol\":2044:2079  firstTransferTime = block.timestamp */\n      dup2\n      swap1\n      sstore\n      pop\n        /* \"Dapp/MoneyTransfer.sol\":2281:2291  30 seconds */\n      0x1e\n        /* \"Dapp/MoneyTransfer.sol\":2261:2278  firstTransferTime */\n      sload(0x0d)\n        /* \"Dapp/MoneyTransfer.sol\":2261:2291  firstTransferTime + 30 seconds */\n      tag_81\n      swap2\n      swap1\n      tag_82\n      jump\t// in\n    tag_81:\n        /* \"Dapp/MoneyTransfer.sol\":2240:2257  firstTransferTime */\n      sload(0x0d)\n        /* \"Dapp/MoneyTransfer.sol\":2240:2292  firstTransferTime < (firstTransferTime + 30 seconds) */\n      lt\n        /* \"Dapp/MoneyTransfer.sol\":2232:2308  require(firstTransferTime < (firstTransferTime + 30 seconds), \"Time passed\") */\n      tag_83\n      jumpi\n      mload(0x40)\n      0x08c379a000000000000000000000000000000000000000000000000000000000\n      dup2\n      mstore\n      0x04\n      add\n      tag_84\n      swap1\n      tag_85\n      jump\t// in\n    tag_84:\n      mload(0x40)\n      dup1\n      swap2\n      sub\n      swap1\n      revert\n    tag_83:\n        /* \"Dapp/MoneyTransfer.sol\":960:969  _receiver */\n      dup2\n        /* \"Dapp/MoneyTransfer.sol\":949:957  receiver */\n      0x02\n      0x00\n        /* \"Dapp/MoneyTransfer.sol\":949:969  receiver = _receiver */\n      0x0100\n      exp\n      dup2\n      sload\n      dup2\n      0xffffffffffffffffffffffffffffffffffffffff\n      mul\n      not\n      and\n      swap1\n      dup4\n      0xffffffffffffffffffffffffffffffffffffffff\n      and\n      mul\n      or\n      swap1\n      sstore\n      pop\n        /* \"Dapp/MoneyTransfer.sol\":989:996  _amount */\n      dup3\n        /* \"Dapp/MoneyTransfer.sol\":980:986  amount */\n      0x00\n        /* \"Dapp/MoneyTransfer.sol\":980:996  amount = _amount */\n      dup2\n      swap1\n      sstore\n      pop\n        /* \"Dapp/MoneyTransfer.sol\":1066:1067  1 */\n      0x01\n        /* \"Dapp/MoneyTransfer.sol\":1053:1062  callCount */\n      0x0f\n      0x00\n        /* \"Dapp/MoneyTransfer.sol\":1053:1067  callCount += 1 */\n      dup3\n      dup3\n      sload\n      tag_87\n      swap2\n      swap1\n      tag_82\n      jump\t// in\n    tag_87:\n      swap3\n      pop\n      pop\n      dup2\n      swap1\n      sstore\n      pop\n        /* \"Dapp/MoneyTransfer.sol\":1123:1124  0 */\n      0x00\n        /* \"Dapp/MoneyTransfer.sol\":1110:1120  TotalFunds */\n      sload(0x01)\n        /* \"Dapp/MoneyTransfer.sol\":1110:1124  TotalFunds > 0 */\n      gt\n        /* \"Dapp/MoneyTransfer.sol\":1110:1147  TotalFunds > 0 && TotalFunds > amount */\n      dup1\n      iszero\n      tag_88\n      jumpi\n      pop\n        /* \"Dapp/MoneyTransfer.sol\":1141:1147  amount */\n      sload(0x00)\n        /* \"Dapp/MoneyTransfer.sol\":1128:1138  TotalFunds */\n      sload(0x01)\n        /* \"Dapp/MoneyTransfer.sol\":1128:1147  TotalFunds > amount */\n      gt\n        /* \"Dapp/MoneyTransfer.sol\":1110:1147  TotalFunds > 0 && TotalFunds > amount */\n    tag_88:\n        /* \"Dapp/MoneyTransfer.sol\":1107:1331  if(TotalFunds > 0 && TotalFunds > amount){... */\n      iszero\n      tag_89\n      jumpi\n        /* \"Dapp/MoneyTransfer.sol\":1185:1191  amount */\n      sload(0x00)\n        /* \"Dapp/MoneyTransfer.sol\":1171:1181  TotalFunds */\n      0x01\n      0x00\n        /* \"Dapp/MoneyTransfer.sol\":1171:1191  TotalFunds -= amount */\n      dup3\n      dup3\n      sload\n      tag_90\n      swap2\n      swap1\n      tag_91\n      jump\t// in\n    tag_90:\n      swap3\n      pop\n      pop\n      dup2\n      swap1\n      sstore\n      pop\n        /* \"Dapp/MoneyTransfer.sol\":1229:1235  amount */\n      sload(0x00)\n        /* \"Dapp/MoneyTransfer.sol\":1214:1225  TotalAmount */\n      0x0c\n      0x00\n        /* \"Dapp/MoneyTransfer.sol\":1214:1235  TotalAmount += amount */\n      dup3\n      dup3\n      sload\n      tag_92\n      swap2\n      swap1\n      tag_82\n      jump\t// in\n    tag_92:\n      swap3\n      pop\n      pop\n      dup2\n      swap1\n      sstore\n      pop\n        /* \"Dapp/MoneyTransfer.sol\":1280:1310  message = \"Transfer completed\" */\n      mload(0x40)\n      dup1\n      0x40\n      add\n      0x40\n      mstore\n      dup1\n      0x12\n      dup2\n      mstore\n      0x20\n      add\n      0x5472616e7366657220636f6d706c657465640000000000000000000000000000\n      dup2\n      mstore\n      pop\n        /* \"Dapp/MoneyTransfer.sol\":1280:1287  message */\n      0x09\n        /* \"Dapp/MoneyTransfer.sol\":1280:1310  message = \"Transfer completed\" */\n      swap1\n      dup2\n      tag_93\n      swap2\n      swap1\n      tag_94\n      jump\t// in\n    tag_93:\n      pop\n        /* \"Dapp/MoneyTransfer.sol\":1107:1331  if(TotalFunds > 0 && TotalFunds > amount){... */\n    tag_89:\n        /* \"Dapp/MoneyTransfer.sol\":825:1370  function sendMoney( uint _amount, address _receiver) public m_validAddress(_receiver) m_checkCard m_transferLimit{... */\n      pop\n      pop\n      pop\n      jump\t// out\n        /* \"Dapp/MoneyTransfer.sol\":524:553  uint public firstTransferTime */\n    tag_23:\n      sload(0x0d)\n      dup2\n      jump\t// out\n        /* \"Dapp/MoneyTransfer.sol\":1380:1499  function setFirstTransfer(uint _firstTransfer) public  {... */\n    tag_29:\n        /* \"Dapp/MoneyTransfer.sol\":1466:1480  _firstTransfer */\n      dup1\n        /* \"Dapp/MoneyTransfer.sol\":1446:1463  firstTransferTime */\n      0x0d\n        /* \"Dapp/MoneyTransfer.sol\":1446:1480  firstTransferTime = _firstTransfer */\n      dup2\n      swap1\n      sstore\n      pop\n        /* \"Dapp/MoneyTransfer.sol\":1380:1499  function setFirstTransfer(uint _firstTransfer) public  {... */\n      pop\n      jump\t// out\n        /* \"Dapp/MoneyTransfer.sol\":560:585  uint public countTransfer */\n    tag_31:\n      sload(0x0e)\n      dup2\n      jump\t// out\n        /* \"Dapp/MoneyTransfer.sol\":470:487  string public cvv */\n    tag_34:\n      0x0b\n      dup1\n      sload\n      tag_96\n      swap1\n      tag_67\n      jump\t// in\n    tag_96:\n      dup1\n      0x1f\n      add\n      0x20\n      dup1\n      swap2\n      div\n      mul\n      0x20\n      add\n      mload(0x40)\n      swap1\n      dup2\n      add\n      0x40\n      mstore\n      dup1\n      swap3\n      swap2\n      swap1\n      dup2\n      dup2\n      mstore\n      0x20\n      add\n      dup3\n      dup1\n      sload\n      tag_97\n      swap1\n      tag_67\n      jump\t// in\n    tag_97:\n      dup1\n      iszero\n      tag_98\n      jumpi\n      dup1\n      0x1f\n      lt\n      tag_99\n      jumpi\n      0x0100\n      dup1\n      dup4\n      sload\n      div\n      mul\n      dup4\n      mstore\n      swap2\n      0x20\n      add\n      swap2\n      jump(tag_98)\n    tag_99:\n      dup3\n      add\n      swap2\n      swap1\n      0x00\n      mstore\n      keccak256(0x00, 0x20)\n      swap1\n    tag_100:\n      dup2\n      sload\n      dup2\n      mstore\n      swap1\n      0x01\n      add\n      swap1\n      0x20\n      add\n      dup1\n      dup4\n      gt\n      tag_100\n      jumpi\n      dup3\n      swap1\n      sub\n      0x1f\n      and\n      dup3\n      add\n      swap2\n    tag_98:\n      pop\n      pop\n      pop\n      pop\n      pop\n      dup2\n      jump\t// out\n        /* \"Dapp/MoneyTransfer.sol\":790:815  uint public callCount = 0 */\n    tag_38:\n      sload(0x0f)\n      dup2\n      jump\t// out\n        /* \"Dapp/MoneyTransfer.sol\":134:159  uint256 public TotalFunds */\n    tag_41:\n      sload(0x01)\n      dup2\n      jump\t// out\n        /* \"Dapp/MoneyTransfer.sol\":494:520  uint256 public TotalAmount */\n    tag_44:\n      sload(0x0c)\n      dup2\n      jump\t// out\n        /* \"Dapp/MoneyTransfer.sol\":438:462  string public cardNumber */\n    tag_47:\n      0x0a\n      dup1\n      sload\n      tag_101\n      swap1\n      tag_67\n      jump\t// in\n    tag_101:\n      dup1\n      0x1f\n      add\n      0x20\n      dup1\n      swap2\n      div\n      mul\n      0x20\n      add\n      mload(0x40)\n      swap1\n      dup2\n      add\n      0x40\n      mstore\n      dup1\n      swap3\n      swap2\n      swap1\n      dup2\n      dup2\n      mstore\n      0x20\n      add\n      dup3\n      dup1\n      sload\n      tag_102\n      swap1\n      tag_67\n      jump\t// in\n    tag_102:\n      dup1\n      iszero\n      tag_103\n      jumpi\n      dup1\n      0x1f\n      lt\n      tag_104\n      jumpi\n      0x0100\n      dup1\n      dup4\n      sload\n      div\n      mul\n      dup4\n      mstore\n      swap2\n      0x20\n      add\n      swap2\n      jump(tag_103)\n    tag_104:\n      dup3\n      add\n      swap2\n      swap1\n      0x00\n      mstore\n      keccak256(0x00, 0x20)\n      swap1\n    tag_105:\n      dup2\n      sload\n      dup2\n      mstore\n      swap1\n      0x01\n      add\n      swap1\n      0x20\n      add\n      dup1\n      dup4\n      gt\n      tag_105\n      jumpi\n      dup3\n      swap1\n      sub\n      0x1f\n      and\n      dup3\n      add\n      swap2\n    tag_103:\n      pop\n      pop\n      pop\n      pop\n      pop\n      dup2\n      jump\t// out\n        /* \"Dapp/MoneyTransfer.sol\":252:288  uint256 public totalWeekTransactions */\n    tag_50:\n      sload(0x04)\n      dup2\n      jump\t// out\n        /* \"Dapp/MoneyTransfer.sol\":106:127  uint256 public amount */\n    tag_53:\n      sload(0x00)\n      dup2\n      jump\t// out\n        /* \"Dapp/MoneyTransfer.sol\":375:403  uint256 public receiverFunds */\n    tag_56:\n      sload(0x08)\n      dup2\n      jump\t// out\n        /* \"Dapp/MoneyTransfer.sol\":410:431  string public message */\n    tag_59:\n      0x09\n      dup1\n      sload\n      tag_106\n      swap1\n      tag_67\n      jump\t// in\n    tag_106:\n      dup1\n      0x1f\n      add\n      0x20\n      dup1\n      swap2\n      div\n      mul\n      0x20\n      add\n      mload(0x40)\n      swap1\n      dup2\n      add\n      0x40\n      mstore\n      dup1\n      swap3\n      swap2\n      swap1\n      dup2\n      dup2\n      mstore\n      0x20\n      add\n      dup3\n      dup1\n      sload\n      tag_107\n      swap1\n      tag_67\n      jump\t// in\n    tag_107:\n      dup1\n      iszero\n      tag_108\n      jumpi\n      dup1\n      0x1f\n      lt\n      tag_109\n      jumpi\n      0x0100\n      dup1\n      dup4\n      sload\n      div\n      mul\n      dup4\n      mstore\n      swap2\n      0x20\n      add\n      swap2\n      jump(tag_108)\n    tag_109:\n      dup3\n      add\n      swap2\n      swap1\n      0x00\n      mstore\n      keccak256(0x00, 0x20)\n      swap1\n    tag_110:\n      dup2\n      sload\n      dup2\n      mstore\n      swap1\n      0x01\n      add\n      swap1\n      0x20\n      add\n      dup1\n      dup4\n      gt\n      tag_110\n      jumpi\n      dup3\n      swap1\n      sub\n      0x1f\n      and\n      dup3\n      add\n      swap2\n    tag_108:\n      pop\n      pop\n      pop\n      pop\n      pop\n      dup2\n      jump\t// out\n        /* \"#utility.yul\":88:205   */\n    tag_112:\n        /* \"#utility.yul\":197:198   */\n      0x00\n        /* \"#utility.yul\":194:195   */\n      dup1\n        /* \"#utility.yul\":187:199   */\n      revert\n        /* \"#utility.yul\":334:411   */\n    tag_114:\n        /* \"#utility.yul\":371:378   */\n      0x00\n        /* \"#utility.yul\":400:405   */\n      dup2\n        /* \"#utility.yul\":389:405   */\n      swap1\n      pop\n        /* \"#utility.yul\":334:411   */\n      swap2\n      swap1\n      pop\n      jump\t// out\n        /* \"#utility.yul\":417:539   */\n    tag_115:\n        /* \"#utility.yul\":490:514   */\n      tag_161\n        /* \"#utility.yul\":508:513   */\n      dup2\n        /* \"#utility.yul\":490:514   */\n      tag_114\n      jump\t// in\n    tag_161:\n        /* \"#utility.yul\":483:488   */\n      dup2\n        /* \"#utility.yul\":480:515   */\n      eq\n        /* \"#utility.yul\":470:533   */\n      tag_162\n      jumpi\n        /* \"#utility.yul\":529:530   */\n      0x00\n        /* \"#utility.yul\":526:527   */\n      dup1\n        /* \"#utility.yul\":519:531   */\n      revert\n        /* \"#utility.yul\":470:533   */\n    tag_162:\n        /* \"#utility.yul\":417:539   */\n      pop\n      jump\t// out\n        /* \"#utility.yul\":545:684   */\n    tag_116:\n        /* \"#utility.yul\":591:596   */\n      0x00\n        /* \"#utility.yul\":629:635   */\n      dup2\n        /* \"#utility.yul\":616:636   */\n      calldataload\n        /* \"#utility.yul\":607:636   */\n      swap1\n      pop\n        /* \"#utility.yul\":645:678   */\n      tag_164\n        /* \"#utility.yul\":672:677   */\n      dup2\n        /* \"#utility.yul\":645:678   */\n      tag_115\n      jump\t// in\n    tag_164:\n        /* \"#utility.yul\":545:684   */\n      swap3\n      swap2\n      pop\n      pop\n      jump\t// out\n        /* \"#utility.yul\":690:816   */\n    tag_117:\n        /* \"#utility.yul\":727:734   */\n      0x00\n        /* \"#utility.yul\":767:809   */\n      0xffffffffffffffffffffffffffffffffffffffff\n        /* \"#utility.yul\":760:765   */\n      dup3\n        /* \"#utility.yul\":756:810   */\n      and\n        /* \"#utility.yul\":745:810   */\n      swap1\n      pop\n        /* \"#utility.yul\":690:816   */\n      swap2\n      swap1\n      pop\n      jump\t// out\n        /* \"#utility.yul\":822:918   */\n    tag_118:\n        /* \"#utility.yul\":859:866   */\n      0x00\n        /* \"#utility.yul\":888:912   */\n      tag_167\n        /* \"#utility.yul\":906:911   */\n      dup3\n        /* \"#utility.yul\":888:912   */\n      tag_117\n      jump\t// in\n    tag_167:\n        /* \"#utility.yul\":877:912   */\n      swap1\n      pop\n        /* \"#utility.yul\":822:918   */\n      swap2\n      swap1\n      pop\n      jump\t// out\n        /* \"#utility.yul\":924:1046   */\n    tag_119:\n        /* \"#utility.yul\":997:1021   */\n      tag_169\n        /* \"#utility.yul\":1015:1020   */\n      dup2\n        /* \"#utility.yul\":997:1021   */\n      tag_118\n      jump\t// in\n    tag_169:\n        /* \"#utility.yul\":990:995   */\n      dup2\n        /* \"#utility.yul\":987:1022   */\n      eq\n        /* \"#utility.yul\":977:1040   */\n      tag_170\n      jumpi\n        /* \"#utility.yul\":1036:1037   */\n      0x00\n        /* \"#utility.yul\":1033:1034   */\n      dup1\n        /* \"#utility.yul\":1026:1038   */\n      revert\n        /* \"#utility.yul\":977:1040   */\n    tag_170:\n        /* \"#utility.yul\":924:1046   */\n      pop\n      jump\t// out\n        /* \"#utility.yul\":1052:1191   */\n    tag_120:\n        /* \"#utility.yul\":1098:1103   */\n      0x00\n        /* \"#utility.yul\":1136:1142   */\n      dup2\n        /* \"#utility.yul\":1123:1143   */\n      calldataload\n        /* \"#utility.yul\":1114:1143   */\n      swap1\n      pop\n        /* \"#utility.yul\":1152:1185   */\n      tag_172\n        /* \"#utility.yul\":1179:1184   */\n      dup2\n        /* \"#utility.yul\":1152:1185   */\n      tag_119\n      jump\t// in\n    tag_172:\n        /* \"#utility.yul\":1052:1191   */\n      swap3\n      swap2\n      pop\n      pop\n      jump\t// out\n        /* \"#utility.yul\":1197:1671   */\n    tag_20:\n        /* \"#utility.yul\":1265:1271   */\n      0x00\n        /* \"#utility.yul\":1273:1279   */\n      dup1\n        /* \"#utility.yul\":1322:1324   */\n      0x40\n        /* \"#utility.yul\":1310:1319   */\n      dup4\n        /* \"#utility.yul\":1301:1308   */\n      dup6\n        /* \"#utility.yul\":1297:1320   */\n      sub\n        /* \"#utility.yul\":1293:1325   */\n      slt\n        /* \"#utility.yul\":1290:1409   */\n      iszero\n      tag_174\n      jumpi\n        /* \"#utility.yul\":1328:1407   */\n      tag_175\n      tag_112\n      jump\t// in\n    tag_175:\n        /* \"#utility.yul\":1290:1409   */\n    tag_174:\n        /* \"#utility.yul\":1448:1449   */\n      0x00\n        /* \"#utility.yul\":1473:1526   */\n      tag_176\n        /* \"#utility.yul\":1518:1525   */\n      dup6\n        /* \"#utility.yul\":1509:1515   */\n      dup3\n        /* \"#utility.yul\":1498:1507   */\n      dup7\n        /* \"#utility.yul\":1494:1516   */\n      add\n        /* \"#utility.yul\":1473:1526   */\n      tag_116\n      jump\t// in\n    tag_176:\n        /* \"#utility.yul\":1463:1526   */\n      swap3\n      pop\n        /* \"#utility.yul\":1419:1536   */\n      pop\n        /* \"#utility.yul\":1575:1577   */\n      0x20\n        /* \"#utility.yul\":1601:1654   */\n      tag_177\n        /* \"#utility.yul\":1646:1653   */\n      dup6\n        /* \"#utility.yul\":1637:1643   */\n      dup3\n        /* \"#utility.yul\":1626:1635   */\n      dup7\n        /* \"#utility.yul\":1622:1644   */\n      add\n        /* \"#utility.yul\":1601:1654   */\n      tag_120\n      jump\t// in\n    tag_177:\n        /* \"#utility.yul\":1591:1654   */\n      swap2\n      pop\n        /* \"#utility.yul\":1546:1664   */\n      pop\n        /* \"#utility.yul\":1197:1671   */\n      swap3\n      pop\n      swap3\n      swap1\n      pop\n      jump\t// out\n        /* \"#utility.yul\":1677:1795   */\n    tag_121:\n        /* \"#utility.yul\":1764:1788   */\n      tag_179\n        /* \"#utility.yul\":1782:1787   */\n      dup2\n        /* \"#utility.yul\":1764:1788   */\n      tag_114\n      jump\t// in\n    tag_179:\n        /* \"#utility.yul\":1759:1762   */\n      dup3\n        /* \"#utility.yul\":1752:1789   */\n      mstore\n        /* \"#utility.yul\":1677:1795   */\n      pop\n      pop\n      jump\t// out\n        /* \"#utility.yul\":1801:2023   */\n    tag_25:\n        /* \"#utility.yul\":1894:1898   */\n      0x00\n        /* \"#utility.yul\":1932:1934   */\n      0x20\n        /* \"#utility.yul\":1921:1930   */\n      dup3\n        /* \"#utility.yul\":1917:1935   */\n      add\n        /* \"#utility.yul\":1909:1935   */\n      swap1\n      pop\n        /* \"#utility.yul\":1945:2016   */\n      tag_181\n        /* \"#utility.yul\":2013:2014   */\n      0x00\n        /* \"#utility.yul\":2002:2011   */\n      dup4\n        /* \"#utility.yul\":1998:2015   */\n      add\n        /* \"#utility.yul\":1989:1995   */\n      dup5\n        /* \"#utility.yul\":1945:2016   */\n      tag_121\n      jump\t// in\n    tag_181:\n        /* \"#utility.yul\":1801:2023   */\n      swap3\n      swap2\n      pop\n      pop\n      jump\t// out\n        /* \"#utility.yul\":2029:2358   */\n    tag_28:\n        /* \"#utility.yul\":2088:2094   */\n      0x00\n        /* \"#utility.yul\":2137:2139   */\n      0x20\n        /* \"#utility.yul\":2125:2134   */\n      dup3\n        /* \"#utility.yul\":2116:2123   */\n      dup5\n        /* \"#utility.yul\":2112:2135   */\n      sub\n        /* \"#utility.yul\":2108:2140   */\n      slt\n        /* \"#utility.yul\":2105:2224   */\n      iszero\n      tag_183\n      jumpi\n        /* \"#utility.yul\":2143:2222   */\n      tag_184\n      tag_112\n      jump\t// in\n    tag_184:\n        /* \"#utility.yul\":2105:2224   */\n    tag_183:\n        /* \"#utility.yul\":2263:2264   */\n      0x00\n        /* \"#utility.yul\":2288:2341   */\n      tag_185\n        /* \"#utility.yul\":2333:2340   */\n      dup5\n        /* \"#utility.yul\":2324:2330   */\n      dup3\n        /* \"#utility.yul\":2313:2322   */\n      dup6\n        /* \"#utility.yul\":2309:2331   */\n      add\n        /* \"#utility.yul\":2288:2341   */\n      tag_116\n      jump\t// in\n    tag_185:\n        /* \"#utility.yul\":2278:2341   */\n      swap2\n      pop\n        /* \"#utility.yul\":2234:2351   */\n      pop\n        /* \"#utility.yul\":2029:2358   */\n      swap3\n      swap2\n      pop\n      pop\n      jump\t// out\n        /* \"#utility.yul\":2364:2463   */\n    tag_122:\n        /* \"#utility.yul\":2416:2422   */\n      0x00\n        /* \"#utility.yul\":2450:2455   */\n      dup2\n        /* \"#utility.yul\":2444:2456   */\n      mload\n        /* \"#utility.yul\":2434:2456   */\n      swap1\n      pop\n        /* \"#utility.yul\":2364:2463   */\n      swap2\n      swap1\n      pop\n      jump\t// out\n        /* \"#utility.yul\":2469:2638   */\n    tag_123:\n        /* \"#utility.yul\":2553:2564   */\n      0x00\n        /* \"#utility.yul\":2587:2593   */\n      dup3\n        /* \"#utility.yul\":2582:2585   */\n      dup3\n        /* \"#utility.yul\":2575:2594   */\n      mstore\n        /* \"#utility.yul\":2627:2631   */\n      0x20\n        /* \"#utility.yul\":2622:2625   */\n      dup3\n        /* \"#utility.yul\":2618:2632   */\n      add\n        /* \"#utility.yul\":2603:2632   */\n      swap1\n      pop\n        /* \"#utility.yul\":2469:2638   */\n      swap3\n      swap2\n      pop\n      pop\n      jump\t// out\n        /* \"#utility.yul\":2644:2951   */\n    tag_124:\n        /* \"#utility.yul\":2712:2713   */\n      0x00\n        /* \"#utility.yul\":2722:2835   */\n    tag_189:\n        /* \"#utility.yul\":2736:2742   */\n      dup4\n        /* \"#utility.yul\":2733:2734   */\n      dup2\n        /* \"#utility.yul\":2730:2743   */\n      lt\n        /* \"#utility.yul\":2722:2835   */\n      iszero\n      tag_191\n      jumpi\n        /* \"#utility.yul\":2821:2822   */\n      dup1\n        /* \"#utility.yul\":2816:2819   */\n      dup3\n        /* \"#utility.yul\":2812:2823   */\n      add\n        /* \"#utility.yul\":2806:2824   */\n      mload\n        /* \"#utility.yul\":2802:2803   */\n      dup2\n        /* \"#utility.yul\":2797:2800   */\n      dup5\n        /* \"#utility.yul\":2793:2804   */\n      add\n        /* \"#utility.yul\":2786:2825   */\n      mstore\n        /* \"#utility.yul\":2758:2760   */\n      0x20\n        /* \"#utility.yul\":2755:2756   */\n      dup2\n        /* \"#utility.yul\":2751:2761   */\n      add\n        /* \"#utility.yul\":2746:2761   */\n      swap1\n      pop\n        /* \"#utility.yul\":2722:2835   */\n      jump(tag_189)\n    tag_191:\n        /* \"#utility.yul\":2853:2859   */\n      dup4\n        /* \"#utility.yul\":2850:2851   */\n      dup2\n        /* \"#utility.yul\":2847:2860   */\n      gt\n        /* \"#utility.yul\":2844:2945   */\n      iszero\n      tag_192\n      jumpi\n        /* \"#utility.yul\":2933:2934   */\n      0x00\n        /* \"#utility.yul\":2924:2930   */\n      dup5\n        /* \"#utility.yul\":2919:2922   */\n      dup5\n        /* \"#utility.yul\":2915:2931   */\n      add\n        /* \"#utility.yul\":2908:2935   */\n      mstore\n        /* \"#utility.yul\":2844:2945   */\n    tag_192:\n        /* \"#utility.yul\":2693:2951   */\n      pop\n        /* \"#utility.yul\":2644:2951   */\n      pop\n      pop\n      pop\n      jump\t// out\n        /* \"#utility.yul\":2957:3059   */\n    tag_125:\n        /* \"#utility.yul\":2998:3004   */\n      0x00\n        /* \"#utility.yul\":3049:3051   */\n      0x1f\n        /* \"#utility.yul\":3045:3052   */\n      not\n        /* \"#utility.yul\":3040:3042   */\n      0x1f\n        /* \"#utility.yul\":3033:3038   */\n      dup4\n        /* \"#utility.yul\":3029:3043   */\n      add\n        /* \"#utility.yul\":3025:3053   */\n      and\n        /* \"#utility.yul\":3015:3053   */\n      swap1\n      pop\n        /* \"#utility.yul\":2957:3059   */\n      swap2\n      swap1\n      pop\n      jump\t// out\n        /* \"#utility.yul\":3065:3429   */\n    tag_126:\n        /* \"#utility.yul\":3153:3156   */\n      0x00\n        /* \"#utility.yul\":3181:3220   */\n      tag_195\n        /* \"#utility.yul\":3214:3219   */\n      dup3\n        /* \"#utility.yul\":3181:3220   */\n      tag_122\n      jump\t// in\n    tag_195:\n        /* \"#utility.yul\":3236:3307   */\n      tag_196\n        /* \"#utility.yul\":3300:3306   */\n      dup2\n        /* \"#utility.yul\":3295:3298   */\n      dup6\n        /* \"#utility.yul\":3236:3307   */\n      tag_123\n      jump\t// in\n    tag_196:\n        /* \"#utility.yul\":3229:3307   */\n      swap4\n      pop\n        /* \"#utility.yul\":3316:3368   */\n      tag_197\n        /* \"#utility.yul\":3361:3367   */\n      dup2\n        /* \"#utility.yul\":3356:3359   */\n      dup6\n        /* \"#utility.yul\":3349:3353   */\n      0x20\n        /* \"#utility.yul\":3342:3347   */\n      dup7\n        /* \"#utility.yul\":3338:3354   */\n      add\n        /* \"#utility.yul\":3316:3368   */\n      tag_124\n      jump\t// in\n    tag_197:\n        /* \"#utility.yul\":3393:3422   */\n      tag_198\n        /* \"#utility.yul\":3415:3421   */\n      dup2\n        /* \"#utility.yul\":3393:3422   */\n      tag_125\n      jump\t// in\n    tag_198:\n        /* \"#utility.yul\":3388:3391   */\n      dup5\n        /* \"#utility.yul\":3384:3423   */\n      add\n        /* \"#utility.yul\":3377:3423   */\n      swap2\n      pop\n        /* \"#utility.yul\":3157:3429   */\n      pop\n        /* \"#utility.yul\":3065:3429   */\n      swap3\n      swap2\n      pop\n      pop\n      jump\t// out\n        /* \"#utility.yul\":3435:3748   */\n    tag_36:\n        /* \"#utility.yul\":3548:3552   */\n      0x00\n        /* \"#utility.yul\":3586:3588   */\n      0x20\n        /* \"#utility.yul\":3575:3584   */\n      dup3\n        /* \"#utility.yul\":3571:3589   */\n      add\n        /* \"#utility.yul\":3563:3589   */\n      swap1\n      pop\n        /* \"#utility.yul\":3635:3644   */\n      dup2\n        /* \"#utility.yul\":3629:3633   */\n      dup2\n        /* \"#utility.yul\":3625:3645   */\n      sub\n        /* \"#utility.yul\":3621:3622   */\n      0x00\n        /* \"#utility.yul\":3610:3619   */\n      dup4\n        /* \"#utility.yul\":3606:3623   */\n      add\n        /* \"#utility.yul\":3599:3646   */\n      mstore\n        /* \"#utility.yul\":3663:3741   */\n      tag_200\n        /* \"#utility.yul\":3736:3740   */\n      dup2\n        /* \"#utility.yul\":3727:3733   */\n      dup5\n        /* \"#utility.yul\":3663:3741   */\n      tag_126\n      jump\t// in\n    tag_200:\n        /* \"#utility.yul\":3655:3741   */\n      swap1\n      pop\n        /* \"#utility.yul\":3435:3748   */\n      swap3\n      swap2\n      pop\n      pop\n      jump\t// out\n        /* \"#utility.yul\":3754:3932   */\n    tag_127:\n        /* \"#utility.yul\":3894:3924   */\n      0x2054686973206164647265737320646f65736e27742065786973747300000000\n        /* \"#utility.yul\":3890:3891   */\n      0x00\n        /* \"#utility.yul\":3882:3888   */\n      dup3\n        /* \"#utility.yul\":3878:3892   */\n      add\n        /* \"#utility.yul\":3871:3925   */\n      mstore\n        /* \"#utility.yul\":3754:3932   */\n      pop\n      jump\t// out\n        /* \"#utility.yul\":3938:4304   */\n    tag_128:\n        /* \"#utility.yul\":4080:4083   */\n      0x00\n        /* \"#utility.yul\":4101:4168   */\n      tag_203\n        /* \"#utility.yul\":4165:4167   */\n      0x1c\n        /* \"#utility.yul\":4160:4163   */\n      dup4\n        /* \"#utility.yul\":4101:4168   */\n      tag_123\n      jump\t// in\n    tag_203:\n        /* \"#utility.yul\":4094:4168   */\n      swap2\n      pop\n        /* \"#utility.yul\":4177:4270   */\n      tag_204\n        /* \"#utility.yul\":4266:4269   */\n      dup3\n        /* \"#utility.yul\":4177:4270   */\n      tag_127\n      jump\t// in\n    tag_204:\n        /* \"#utility.yul\":4295:4297   */\n      0x20\n        /* \"#utility.yul\":4290:4293   */\n      dup3\n        /* \"#utility.yul\":4286:4298   */\n      add\n        /* \"#utility.yul\":4279:4298   */\n      swap1\n      pop\n        /* \"#utility.yul\":3938:4304   */\n      swap2\n      swap1\n      pop\n      jump\t// out\n        /* \"#utility.yul\":4310:4729   */\n    tag_64:\n        /* \"#utility.yul\":4476:4480   */\n      0x00\n        /* \"#utility.yul\":4514:4516   */\n      0x20\n        /* \"#utility.yul\":4503:4512   */\n      dup3\n        /* \"#utility.yul\":4499:4517   */\n      add\n        /* \"#utility.yul\":4491:4517   */\n      swap1\n      pop\n        /* \"#utility.yul\":4563:4572   */\n      dup2\n        /* \"#utility.yul\":4557:4561   */\n      dup2\n        /* \"#utility.yul\":4553:4573   */\n      sub\n        /* \"#utility.yul\":4549:4550   */\n      0x00\n        /* \"#utility.yul\":4538:4547   */\n      dup4\n        /* \"#utility.yul\":4534:4551   */\n      add\n        /* \"#utility.yul\":4527:4574   */\n      mstore\n        /* \"#utility.yul\":4591:4722   */\n      tag_206\n        /* \"#utility.yul\":4717:4721   */\n      dup2\n        /* \"#utility.yul\":4591:4722   */\n      tag_128\n      jump\t// in\n    tag_206:\n        /* \"#utility.yul\":4583:4722   */\n      swap1\n      pop\n        /* \"#utility.yul\":4310:4729   */\n      swap2\n      swap1\n      pop\n      jump\t// out\n        /* \"#utility.yul\":4735:4915   */\n    tag_129:\n        /* \"#utility.yul\":4783:4860   */\n      0x4e487b7100000000000000000000000000000000000000000000000000000000\n        /* \"#utility.yul\":4780:4781   */\n      0x00\n        /* \"#utility.yul\":4773:4861   */\n      mstore\n        /* \"#utility.yul\":4880:4884   */\n      0x22\n        /* \"#utility.yul\":4877:4878   */\n      0x04\n        /* \"#utility.yul\":4870:4885   */\n      mstore\n        /* \"#utility.yul\":4904:4908   */\n      0x24\n        /* \"#utility.yul\":4901:4902   */\n      0x00\n        /* \"#utility.yul\":4894:4909   */\n      revert\n        /* \"#utility.yul\":4921:5241   */\n    tag_67:\n        /* \"#utility.yul\":4965:4971   */\n      0x00\n        /* \"#utility.yul\":5002:5003   */\n      0x02\n        /* \"#utility.yul\":4996:5000   */\n      dup3\n        /* \"#utility.yul\":4992:5004   */\n      div\n        /* \"#utility.yul\":4982:5004   */\n      swap1\n      pop\n        /* \"#utility.yul\":5049:5050   */\n      0x01\n        /* \"#utility.yul\":5043:5047   */\n      dup3\n        /* \"#utility.yul\":5039:5051   */\n      and\n        /* \"#utility.yul\":5070:5088   */\n      dup1\n        /* \"#utility.yul\":5060:5141   */\n      tag_209\n      jumpi\n        /* \"#utility.yul\":5126:5130   */\n      0x7f\n        /* \"#utility.yul\":5118:5124   */\n      dup3\n        /* \"#utility.yul\":5114:5131   */\n      and\n        /* \"#utility.yul\":5104:5131   */\n      swap2\n      pop\n        /* \"#utility.yul\":5060:5141   */\n    tag_209:\n        /* \"#utility.yul\":5188:5190   */\n      0x20\n        /* \"#utility.yul\":5180:5186   */\n      dup3\n        /* \"#utility.yul\":5177:5191   */\n      lt\n        /* \"#utility.yul\":5157:5175   */\n      dup2\n        /* \"#utility.yul\":5154:5192   */\n      sub\n        /* \"#utility.yul\":5151:5235   */\n      tag_210\n      jumpi\n        /* \"#utility.yul\":5207:5225   */\n      tag_211\n      tag_129\n      jump\t// in\n    tag_211:\n        /* \"#utility.yul\":5151:5235   */\n    tag_210:\n        /* \"#utility.yul\":4972:5241   */\n      pop\n        /* \"#utility.yul\":4921:5241   */\n      swap2\n      swap1\n      pop\n      jump\t// out\n        /* \"#utility.yul\":5247:5417   */\n    tag_130:\n        /* \"#utility.yul\":5387:5409   */\n      0x4e6f2076616c6964206372656469742063617264000000000000000000000000\n        /* \"#utility.yul\":5383:5384   */\n      0x00\n        /* \"#utility.yul\":5375:5381   */\n      dup3\n        /* \"#utility.yul\":5371:5385   */\n      add\n        /* \"#utility.yul\":5364:5410   */\n      mstore\n        /* \"#utility.yul\":5247:5417   */\n      pop\n      jump\t// out\n        /* \"#utility.yul\":5423:5789   */\n    tag_131:\n        /* \"#utility.yul\":5565:5568   */\n      0x00\n        /* \"#utility.yul\":5586:5653   */\n      tag_214\n        /* \"#utility.yul\":5650:5652   */\n      0x14\n        /* \"#utility.yul\":5645:5648   */\n      dup4\n        /* \"#utility.yul\":5586:5653   */\n      tag_123\n      jump\t// in\n    tag_214:\n        /* \"#utility.yul\":5579:5653   */\n      swap2\n      pop\n        /* \"#utility.yul\":5662:5755   */\n      tag_215\n        /* \"#utility.yul\":5751:5754   */\n      dup3\n        /* \"#utility.yul\":5662:5755   */\n      tag_130\n      jump\t// in\n    tag_215:\n        /* \"#utility.yul\":5780:5782   */\n      0x20\n        /* \"#utility.yul\":5775:5778   */\n      dup3\n        /* \"#utility.yul\":5771:5783   */\n      add\n        /* \"#utility.yul\":5764:5783   */\n      swap1\n      pop\n        /* \"#utility.yul\":5423:5789   */\n      swap2\n      swap1\n      pop\n      jump\t// out\n        /* \"#utility.yul\":5795:6214   */\n    tag_72:\n        /* \"#utility.yul\":5961:5965   */\n      0x00\n        /* \"#utility.yul\":5999:6001   */\n      0x20\n        /* \"#utility.yul\":5988:5997   */\n      dup3\n        /* \"#utility.yul\":5984:6002   */\n      add\n        /* \"#utility.yul\":5976:6002   */\n      swap1\n      pop\n        /* \"#utility.yul\":6048:6057   */\n      dup2\n        /* \"#utility.yul\":6042:6046   */\n      dup2\n        /* \"#utility.yul\":6038:6058   */\n      sub\n        /* \"#utility.yul\":6034:6035   */\n      0x00\n        /* \"#utility.yul\":6023:6032   */\n      dup4\n        /* \"#utility.yul\":6019:6036   */\n      add\n        /* \"#utility.yul\":6012:6059   */\n      mstore\n        /* \"#utility.yul\":6076:6207   */\n      tag_217\n        /* \"#utility.yul\":6202:6206   */\n      dup2\n        /* \"#utility.yul\":6076:6207   */\n      tag_131\n      jump\t// in\n    tag_217:\n        /* \"#utility.yul\":6068:6207   */\n      swap1\n      pop\n        /* \"#utility.yul\":5795:6214   */\n      swap2\n      swap1\n      pop\n      jump\t// out\n        /* \"#utility.yul\":6220:6386   */\n    tag_132:\n        /* \"#utility.yul\":6360:6378   */\n      0x4e6f7420656e6f7567682066756e647300000000000000000000000000000000\n        /* \"#utility.yul\":6356:6357   */\n      0x00\n        /* \"#utility.yul\":6348:6354   */\n      dup3\n        /* \"#utility.yul\":6344:6358   */\n      add\n        /* \"#utility.yul\":6337:6379   */\n      mstore\n        /* \"#utility.yul\":6220:6386   */\n      pop\n      jump\t// out\n        /* \"#utility.yul\":6392:6758   */\n    tag_133:\n        /* \"#utility.yul\":6534:6537   */\n      0x00\n        /* \"#utility.yul\":6555:6622   */\n      tag_220\n        /* \"#utility.yul\":6619:6621   */\n      0x10\n        /* \"#utility.yul\":6614:6617   */\n      dup4\n        /* \"#utility.yul\":6555:6622   */\n      tag_123\n      jump\t// in\n    tag_220:\n        /* \"#utility.yul\":6548:6622   */\n      swap2\n      pop\n        /* \"#utility.yul\":6631:6724   */\n      tag_221\n        /* \"#utility.yul\":6720:6723   */\n      dup3\n        /* \"#utility.yul\":6631:6724   */\n      tag_132\n      jump\t// in\n    tag_221:\n        /* \"#utility.yul\":6749:6751   */\n      0x20\n        /* \"#utility.yul\":6744:6747   */\n      dup3\n        /* \"#utility.yul\":6740:6752   */\n      add\n        /* \"#utility.yul\":6733:6752   */\n      swap1\n      pop\n        /* \"#utility.yul\":6392:6758   */\n      swap2\n      swap1\n      pop\n      jump\t// out\n        /* \"#utility.yul\":6764:7183   */\n    tag_76:\n        /* \"#utility.yul\":6930:6934   */\n      0x00\n        /* \"#utility.yul\":6968:6970   */\n      0x20\n        /* \"#utility.yul\":6957:6966   */\n      dup3\n        /* \"#utility.yul\":6953:6971   */\n      add\n        /* \"#utility.yul\":6945:6971   */\n      swap1\n      pop\n        /* \"#utility.yul\":7017:7026   */\n      dup2\n        /* \"#utility.yul\":7011:7015   */\n      dup2\n        /* \"#utility.yul\":7007:7027   */\n      sub\n        /* \"#utility.yul\":7003:7004   */\n      0x00\n        /* \"#utility.yul\":6992:7001   */\n      dup4\n        /* \"#utility.yul\":6988:7005   */\n      add\n        /* \"#utility.yul\":6981:7028   */\n      mstore\n        /* \"#utility.yul\":7045:7176   */\n      tag_223\n        /* \"#utility.yul\":7171:7175   */\n      dup2\n        /* \"#utility.yul\":7045:7176   */\n      tag_133\n      jump\t// in\n    tag_223:\n        /* \"#utility.yul\":7037:7176   */\n      swap1\n      pop\n        /* \"#utility.yul\":6764:7183   */\n      swap2\n      swap1\n      pop\n      jump\t// out\n        /* \"#utility.yul\":7189:7360   */\n    tag_134:\n        /* \"#utility.yul\":7329:7352   */\n      0x596f75207265616368656420746865206c696d69740000000000000000000000\n        /* \"#utility.yul\":7325:7326   */\n      0x00\n        /* \"#utility.yul\":7317:7323   */\n      dup3\n        /* \"#utility.yul\":7313:7327   */\n      add\n        /* \"#utility.yul\":7306:7353   */\n      mstore\n        /* \"#utility.yul\":7189:7360   */\n      pop\n      jump\t// out\n        /* \"#utility.yul\":7366:7732   */\n    tag_135:\n        /* \"#utility.yul\":7508:7511   */\n      0x00\n        /* \"#utility.yul\":7529:7596   */\n      tag_226\n        /* \"#utility.yul\":7593:7595   */\n      0x15\n        /* \"#utility.yul\":7588:7591   */\n      dup4\n        /* \"#utility.yul\":7529:7596   */\n      tag_123\n      jump\t// in\n    tag_226:\n        /* \"#utility.yul\":7522:7596   */\n      swap2\n      pop\n        /* \"#utility.yul\":7605:7698   */\n      tag_227\n        /* \"#utility.yul\":7694:7697   */\n      dup3\n        /* \"#utility.yul\":7605:7698   */\n      tag_134\n      jump\t// in\n    tag_227:\n        /* \"#utility.yul\":7723:7725   */\n      0x20\n        /* \"#utility.yul\":7718:7721   */\n      dup3\n        /* \"#utility.yul\":7714:7726   */\n      add\n        /* \"#utility.yul\":7707:7726   */\n      swap1\n      pop\n        /* \"#utility.yul\":7366:7732   */\n      swap2\n      swap1\n      pop\n      jump\t// out\n        /* \"#utility.yul\":7738:8157   */\n    tag_80:\n        /* \"#utility.yul\":7904:7908   */\n      0x00\n        /* \"#utility.yul\":7942:7944   */\n      0x20\n        /* \"#utility.yul\":7931:7940   */\n      dup3\n        /* \"#utility.yul\":7927:7945   */\n      add\n        /* \"#utility.yul\":7919:7945   */\n      swap1\n      pop\n        /* \"#utility.yul\":7991:8000   */\n      dup2\n        /* \"#utility.yul\":7985:7989   */\n      dup2\n        /* \"#utility.yul\":7981:8001   */\n      sub\n        /* \"#utility.yul\":7977:7978   */\n      0x00\n        /* \"#utility.yul\":7966:7975   */\n      dup4\n        /* \"#utility.yul\":7962:7979   */\n      add\n        /* \"#utility.yul\":7955:8002   */\n      mstore\n        /* \"#utility.yul\":8019:8150   */\n      tag_229\n        /* \"#utility.yul\":8145:8149   */\n      dup2\n        /* \"#utility.yul\":8019:8150   */\n      tag_135\n      jump\t// in\n    tag_229:\n        /* \"#utility.yul\":8011:8150   */\n      swap1\n      pop\n        /* \"#utility.yul\":7738:8157   */\n      swap2\n      swap1\n      pop\n      jump\t// out\n        /* \"#utility.yul\":8163:8343   */\n    tag_136:\n        /* \"#utility.yul\":8211:8288   */\n      0x4e487b7100000000000000000000000000000000000000000000000000000000\n        /* \"#utility.yul\":8208:8209   */\n      0x00\n        /* \"#utility.yul\":8201:8289   */\n      mstore\n        /* \"#utility.yul\":8308:8312   */\n      0x11\n        /* \"#utility.yul\":8305:8306   */\n      0x04\n        /* \"#utility.yul\":8298:8313   */\n      mstore\n        /* \"#utility.yul\":8332:8336   */\n      0x24\n        /* \"#utility.yul\":8329:8330   */\n      0x00\n        /* \"#utility.yul\":8322:8337   */\n      revert\n        /* \"#utility.yul\":8349:8654   */\n    tag_82:\n        /* \"#utility.yul\":8389:8392   */\n      0x00\n        /* \"#utility.yul\":8408:8428   */\n      tag_232\n        /* \"#utility.yul\":8426:8427   */\n      dup3\n        /* \"#utility.yul\":8408:8428   */\n      tag_114\n      jump\t// in\n    tag_232:\n        /* \"#utility.yul\":8403:8428   */\n      swap2\n      pop\n        /* \"#utility.yul\":8442:8462   */\n      tag_233\n        /* \"#utility.yul\":8460:8461   */\n      dup4\n        /* \"#utility.yul\":8442:8462   */\n      tag_114\n      jump\t// in\n    tag_233:\n        /* \"#utility.yul\":8437:8462   */\n      swap3\n      pop\n        /* \"#utility.yul\":8596:8597   */\n      dup3\n        /* \"#utility.yul\":8528:8594   */\n      0xffffffffffffffffffffffffffffffffffffffffffffffffffffffffffffffff\n        /* \"#utility.yul\":8524:8598   */\n      sub\n        /* \"#utility.yul\":8521:8522   */\n      dup3\n        /* \"#utility.yul\":8518:8599   */\n      gt\n        /* \"#utility.yul\":8515:8622   */\n      iszero\n      tag_234\n      jumpi\n        /* \"#utility.yul\":8602:8620   */\n      tag_235\n      tag_136\n      jump\t// in\n    tag_235:\n        /* \"#utility.yul\":8515:8622   */\n    tag_234:\n        /* \"#utility.yul\":8646:8647   */\n      dup3\n        /* \"#utility.yul\":8643:8644   */\n      dup3\n        /* \"#utility.yul\":8639:8648   */\n      add\n        /* \"#utility.yul\":8632:8648   */\n      swap1\n      pop\n        /* \"#utility.yul\":8349:8654   */\n      swap3\n      swap2\n      pop\n      pop\n      jump\t// out\n        /* \"#utility.yul\":8660:8821   */\n    tag_137:\n        /* \"#utility.yul\":8800:8813   */\n      0x54696d6520706173736564000000000000000000000000000000000000000000\n        /* \"#utility.yul\":8796:8797   */\n      0x00\n        /* \"#utility.yul\":8788:8794   */\n      dup3\n        /* \"#utility.yul\":8784:8798   */\n      add\n        /* \"#utility.yul\":8777:8814   */\n      mstore\n        /* \"#utility.yul\":8660:8821   */\n      pop\n      jump\t// out\n        /* \"#utility.yul\":8827:9193   */\n    tag_138:\n        /* \"#utility.yul\":8969:8972   */\n      0x00\n        /* \"#utility.yul\":8990:9057   */\n      tag_238\n        /* \"#utility.yul\":9054:9056   */\n      0x0b\n        /* \"#utility.yul\":9049:9052   */\n      dup4\n        /* \"#utility.yul\":8990:9057   */\n      tag_123\n      jump\t// in\n    tag_238:\n        /* \"#utility.yul\":8983:9057   */\n      swap2\n      pop\n        /* \"#utility.yul\":9066:9159   */\n      tag_239\n        /* \"#utility.yul\":9155:9158   */\n      dup3\n        /* \"#utility.yul\":9066:9159   */\n      tag_137\n      jump\t// in\n    tag_239:\n        /* \"#utility.yul\":9184:9186   */\n      0x20\n        /* \"#utility.yul\":9179:9182   */\n      dup3\n        /* \"#utility.yul\":9175:9187   */\n      add\n        /* \"#utility.yul\":9168:9187   */\n      swap1\n      pop\n        /* \"#utility.yul\":8827:9193   */\n      swap2\n      swap1\n      pop\n      jump\t// out\n        /* \"#utility.yul\":9199:9618   */\n    tag_85:\n        /* \"#utility.yul\":9365:9369   */\n      0x00\n        /* \"#utility.yul\":9403:9405   */\n      0x20\n        /* \"#utility.yul\":9392:9401   */\n      dup3\n        /* \"#utility.yul\":9388:9406   */\n      add\n        /* \"#utility.yul\":9380:9406   */\n      swap1\n      pop\n        /* \"#utility.yul\":9452:9461   */\n      dup2\n        /* \"#utility.yul\":9446:9450   */\n      dup2\n        /* \"#utility.yul\":9442:9462   */\n      sub\n        /* \"#utility.yul\":9438:9439   */\n      0x00\n        /* \"#utility.yul\":9427:9436   */\n      dup4\n        /* \"#utility.yul\":9423:9440   */\n      add\n        /* \"#utility.yul\":9416:9463   */\n      mstore\n        /* \"#utility.yul\":9480:9611   */\n      tag_241\n        /* \"#utility.yul\":9606:9610   */\n      dup2\n        /* \"#utility.yul\":9480:9611   */\n      tag_138\n      jump\t// in\n    tag_241:\n        /* \"#utility.yul\":9472:9611   */\n      swap1\n      pop\n        /* \"#utility.yul\":9199:9618   */\n      swap2\n      swap1\n      pop\n      jump\t// out\n        /* \"#utility.yul\":9624:9815   */\n    tag_91:\n        /* \"#utility.yul\":9664:9668   */\n      0x00\n        /* \"#utility.yul\":9684:9704   */\n      tag_243\n        /* \"#utility.yul\":9702:9703   */\n      dup3\n        /* \"#utility.yul\":9684:9704   */\n      tag_114\n      jump\t// in\n    tag_243:\n        /* \"#utility.yul\":9679:9704   */\n      swap2\n      pop\n        /* \"#utility.yul\":9718:9738   */\n      tag_244\n        /* \"#utility.yul\":9736:9737   */\n      dup4\n        /* \"#utility.yul\":9718:9738   */\n      tag_114\n      jump\t// in\n    tag_244:\n        /* \"#utility.yul\":9713:9738   */\n      swap3\n      pop\n        /* \"#utility.yul\":9757:9758   */\n      dup3\n        /* \"#utility.yul\":9754:9755   */\n      dup3\n        /* \"#utility.yul\":9751:9759   */\n      lt\n        /* \"#utility.yul\":9748:9782   */\n      iszero\n      tag_245\n      jumpi\n        /* \"#utility.yul\":9762:9780   */\n      tag_246\n      tag_136\n      jump\t// in\n    tag_246:\n        /* \"#utility.yul\":9748:9782   */\n    tag_245:\n        /* \"#utility.yul\":9807:9808   */\n      dup3\n        /* \"#utility.yul\":9804:9805   */\n      dup3\n        /* \"#utility.yul\":9800:9809   */\n      sub\n        /* \"#utility.yul\":9792:9809   */\n      swap1\n      pop\n        /* \"#utility.yul\":9624:9815   */\n      swap3\n      swap2\n      pop\n      pop\n      jump\t// out\n        /* \"#utility.yul\":9821:10001   */\n    tag_139:\n        /* \"#utility.yul\":9869:9946   */\n      0x4e487b7100000000000000000000000000000000000000000000000000000000\n        /* \"#utility.yul\":9866:9867   */\n      0x00\n        /* \"#utility.yul\":9859:9947   */\n      mstore\n        /* \"#utility.yul\":9966:9970   */\n      0x41\n        /* \"#utility.yul\":9963:9964   */\n      0x04\n        /* \"#utility.yul\":9956:9971   */\n      mstore\n        /* \"#utility.yul\":9990:9994   */\n      0x24\n        /* \"#utility.yul\":9987:9988   */\n      0x00\n        /* \"#utility.yul\":9980:9995   */\n      revert\n        /* \"#utility.yul\":10007:10148   */\n    tag_140:\n        /* \"#utility.yul\":10056:10060   */\n      0x00\n        /* \"#utility.yul\":10079:10082   */\n      dup2\n        /* \"#utility.yul\":10071:10082   */\n      swap1\n      pop\n        /* \"#utility.yul\":10102:10105   */\n      dup2\n        /* \"#utility.yul\":10099:10100   */\n      0x00\n        /* \"#utility.yul\":10092:10106   */\n      mstore\n        /* \"#utility.yul\":10136:10140   */\n      0x20\n        /* \"#utility.yul\":10133:10134   */\n      0x00\n        /* \"#utility.yul\":10123:10141   */\n      keccak256\n        /* \"#utility.yul\":10115:10141   */\n      swap1\n      pop\n        /* \"#utility.yul\":10007:10148   */\n      swap2\n      swap1\n      pop\n      jump\t// out\n        /* \"#utility.yul\":10154:10247   */\n    tag_141:\n        /* \"#utility.yul\":10191:10197   */\n      0x00\n        /* \"#utility.yul\":10238:10240   */\n      0x20\n        /* \"#utility.yul\":10233:10235   */\n      0x1f\n        /* \"#utility.yul\":10226:10231   */\n      dup4\n        /* \"#utility.yul\":10222:10236   */\n      add\n        /* \"#utility.yul\":10218:10241   */\n      div\n        /* \"#utility.yul\":10208:10241   */\n      swap1\n      pop\n        /* \"#utility.yul\":10154:10247   */\n      swap2\n      swap1\n      pop\n      jump\t// out\n        /* \"#utility.yul\":10253:10360   */\n    tag_142:\n        /* \"#utility.yul\":10297:10305   */\n      0x00\n        /* \"#utility.yul\":10347:10352   */\n      dup3\n        /* \"#utility.yul\":10341:10345   */\n      dup3\n        /* \"#utility.yul\":10337:10353   */\n      shl\n        /* \"#utility.yul\":10316:10353   */\n      swap1\n      pop\n        /* \"#utility.yul\":10253:10360   */\n      swap3\n      swap2\n      pop\n      pop\n      jump\t// out\n        /* \"#utility.yul\":10366:10759   */\n    tag_143:\n        /* \"#utility.yul\":10435:10441   */\n      0x00\n        /* \"#utility.yul\":10485:10486   */\n      0x08\n        /* \"#utility.yul\":10473:10483   */\n      dup4\n        /* \"#utility.yul\":10469:10487   */\n      mul\n        /* \"#utility.yul\":10508:10605   */\n      tag_252\n        /* \"#utility.yul\":10538:10604   */\n      0xffffffffffffffffffffffffffffffffffffffffffffffffffffffffffffffff\n        /* \"#utility.yul\":10527:10536   */\n      dup3\n        /* \"#utility.yul\":10508:10605   */\n      tag_142\n      jump\t// in\n    tag_252:\n        /* \"#utility.yul\":10626:10665   */\n      tag_253\n        /* \"#utility.yul\":10656:10664   */\n      dup7\n        /* \"#utility.yul\":10645:10654   */\n      dup4\n        /* \"#utility.yul\":10626:10665   */\n      tag_142\n      jump\t// in\n    tag_253:\n        /* \"#utility.yul\":10614:10665   */\n      swap6\n      pop\n        /* \"#utility.yul\":10698:10702   */\n      dup1\n        /* \"#utility.yul\":10694:10703   */\n      not\n        /* \"#utility.yul\":10687:10692   */\n      dup5\n        /* \"#utility.yul\":10683:10704   */\n      and\n        /* \"#utility.yul\":10674:10704   */\n      swap4\n      pop\n        /* \"#utility.yul\":10747:10751   */\n      dup1\n        /* \"#utility.yul\":10737:10745   */\n      dup7\n        /* \"#utility.yul\":10733:10752   */\n      and\n        /* \"#utility.yul\":10726:10731   */\n      dup5\n        /* \"#utility.yul\":10723:10753   */\n      or\n        /* \"#utility.yul\":10713:10753   */\n      swap3\n      pop\n        /* \"#utility.yul\":10442:10759   */\n      pop\n      pop\n        /* \"#utility.yul\":10366:10759   */\n      swap4\n      swap3\n      pop\n      pop\n      pop\n      jump\t// out\n        /* \"#utility.yul\":10765:10825   */\n    tag_144:\n        /* \"#utility.yul\":10793:10796   */\n      0x00\n        /* \"#utility.yul\":10814:10819   */\n      dup2\n        /* \"#utility.yul\":10807:10819   */\n      swap1\n      pop\n        /* \"#utility.yul\":10765:10825   */\n      swap2\n      swap1\n      pop\n      jump\t// out\n        /* \"#utility.yul\":10831:10973   */\n    tag_145:\n        /* \"#utility.yul\":10881:10890   */\n      0x00\n        /* \"#utility.yul\":10914:10967   */\n      tag_256\n        /* \"#utility.yul\":10932:10966   */\n      tag_257\n        /* \"#utility.yul\":10941:10965   */\n      tag_258\n        /* \"#utility.yul\":10959:10964   */\n      dup5\n        /* \"#utility.yul\":10941:10965   */\n      tag_114\n      jump\t// in\n    tag_258:\n        /* \"#utility.yul\":10932:10966   */\n      tag_144\n      jump\t// in\n    tag_257:\n        /* \"#utility.yul\":10914:10967   */\n      tag_114\n      jump\t// in\n    tag_256:\n        /* \"#utility.yul\":10901:10967   */\n      swap1\n      pop\n        /* \"#utility.yul\":10831:10973   */\n      swap2\n      swap1\n      pop\n      jump\t// out\n        /* \"#utility.yul\":10979:11054   */\n    tag_146:\n        /* \"#utility.yul\":11022:11025   */\n      0x00\n        /* \"#utility.yul\":11043:11048   */\n      dup2\n        /* \"#utility.yul\":11036:11048   */\n      swap1\n      pop\n        /* \"#utility.yul\":10979:11054   */\n      swap2\n      swap1\n      pop\n      jump\t// out\n        /* \"#utility.yul\":11060:11329   */\n    tag_147:\n        /* \"#utility.yul\":11170:11209   */\n      tag_261\n        /* \"#utility.yul\":11201:11208   */\n      dup4\n        /* \"#utility.yul\":11170:11209   */\n      tag_145\n      jump\t// in\n    tag_261:\n        /* \"#utility.yul\":11231:11322   */\n      tag_262\n        /* \"#utility.yul\":11280:11321   */\n      tag_263\n        /* \"#utility.yul\":11304:11320   */\n      dup3\n        /* \"#utility.yul\":11280:11321   */\n      tag_146\n      jump\t// in\n    tag_263:\n        /* \"#utility.yul\":11272:11278   */\n      dup5\n        /* \"#utility.yul\":11265:11269   */\n      dup5\n        /* \"#utility.yul\":11259:11270   */\n      sload\n        /* \"#utility.yul\":11231:11322   */\n      tag_143\n      jump\t// in\n    tag_262:\n        /* \"#utility.yul\":11225:11229   */\n      dup3\n        /* \"#utility.yul\":11218:11323   */\n      sstore\n        /* \"#utility.yul\":11136:11329   */\n      pop\n        /* \"#utility.yul\":11060:11329   */\n      pop\n      pop\n      pop\n      jump\t// out\n        /* \"#utility.yul\":11335:11408   */\n    tag_148:\n        /* \"#utility.yul\":11380:11383   */\n      0x00\n        /* \"#utility.yul\":11335:11408   */\n      swap1\n      jump\t// out\n        /* \"#utility.yul\":11414:11603   */\n    tag_149:\n        /* \"#utility.yul\":11491:11523   */\n      tag_266\n      tag_148\n      jump\t// in\n    tag_266:\n        /* \"#utility.yul\":11532:11597   */\n      tag_267\n        /* \"#utility.yul\":11590:11596   */\n      dup2\n        /* \"#utility.yul\":11582:11588   */\n      dup5\n        /* \"#utility.yul\":11576:11580   */\n      dup5\n        /* \"#utility.yul\":11532:11597   */\n      tag_147\n      jump\t// in\n    tag_267:\n        /* \"#utility.yul\":11467:11603   */\n      pop\n        /* \"#utility.yul\":11414:11603   */\n      pop\n      pop\n      jump\t// out\n        /* \"#utility.yul\":11609:11795   */\n    tag_150:\n        /* \"#utility.yul\":11669:11789   */\n    tag_269:\n        /* \"#utility.yul\":11686:11689   */\n      dup2\n        /* \"#utility.yul\":11679:11684   */\n      dup2\n        /* \"#utility.yul\":11676:11690   */\n      lt\n        /* \"#utility.yul\":11669:11789   */\n      iszero\n      tag_271\n      jumpi\n        /* \"#utility.yul\":11740:11779   */\n      tag_272\n        /* \"#utility.yul\":11777:11778   */\n      0x00\n        /* \"#utility.yul\":11770:11775   */\n      dup3\n        /* \"#utility.yul\":11740:11779   */\n      tag_149\n      jump\t// in\n    tag_272:\n        /* \"#utility.yul\":11713:11714   */\n      0x01\n        /* \"#utility.yul\":11706:11711   */\n      dup2\n        /* \"#utility.yul\":11702:11715   */\n      add\n        /* \"#utility.yul\":11693:11715   */\n      swap1\n      pop\n        /* \"#utility.yul\":11669:11789   */\n      jump(tag_269)\n    tag_271:\n        /* \"#utility.yul\":11609:11795   */\n      pop\n      pop\n      jump\t// out\n        /* \"#utility.yul\":11801:12344   */\n    tag_151:\n        /* \"#utility.yul\":11902:11904   */\n      0x1f\n        /* \"#utility.yul\":11897:11900   */\n      dup3\n        /* \"#utility.yul\":11894:11905   */\n      gt\n        /* \"#utility.yul\":11891:12337   */\n      iszero\n      tag_274\n      jumpi\n        /* \"#utility.yul\":11936:11974   */\n      tag_275\n        /* \"#utility.yul\":11968:11973   */\n      dup2\n        /* \"#utility.yul\":11936:11974   */\n      tag_140\n      jump\t// in\n    tag_275:\n        /* \"#utility.yul\":12020:12049   */\n      tag_276\n        /* \"#utility.yul\":12038:12048   */\n      dup5\n        /* \"#utility.yul\":12020:12049   */\n      tag_141\n      jump\t// in\n    tag_276:\n        /* \"#utility.yul\":12010:12018   */\n      dup2\n        /* \"#utility.yul\":12006:12050   */\n      add\n        /* \"#utility.yul\":12203:12205   */\n      0x20\n        /* \"#utility.yul\":12191:12201   */\n      dup6\n        /* \"#utility.yul\":12188:12206   */\n      lt\n        /* \"#utility.yul\":12185:12234   */\n      iszero\n      tag_277\n      jumpi\n        /* \"#utility.yul\":12224:12232   */\n      dup2\n        /* \"#utility.yul\":12209:12232   */\n      swap1\n      pop\n        /* \"#utility.yul\":12185:12234   */\n    tag_277:\n        /* \"#utility.yul\":12247:12327   */\n      tag_278\n        /* \"#utility.yul\":12303:12325   */\n      tag_279\n        /* \"#utility.yul\":12321:12324   */\n      dup6\n        /* \"#utility.yul\":12303:12325   */\n      tag_141\n      jump\t// in\n    tag_279:\n        /* \"#utility.yul\":12293:12301   */\n      dup4\n        /* \"#utility.yul\":12289:12326   */\n      add\n        /* \"#utility.yul\":12276:12287   */\n      dup3\n        /* \"#utility.yul\":12247:12327   */\n      tag_150\n      jump\t// in\n    tag_278:\n        /* \"#utility.yul\":11906:12337   */\n      pop\n      pop\n        /* \"#utility.yul\":11891:12337   */\n    tag_274:\n        /* \"#utility.yul\":11801:12344   */\n      pop\n      pop\n      pop\n      jump\t// out\n        /* \"#utility.yul\":12350:12467   */\n    tag_152:\n        /* \"#utility.yul\":12404:12412   */\n      0x00\n        /* \"#utility.yul\":12454:12459   */\n      dup3\n        /* \"#utility.yul\":12448:12452   */\n      dup3\n        /* \"#utility.yul\":12444:12460   */\n      shr\n        /* \"#utility.yul\":12423:12460   */\n      swap1\n      pop\n        /* \"#utility.yul\":12350:12467   */\n      swap3\n      swap2\n      pop\n      pop\n      jump\t// out\n        /* \"#utility.yul\":12473:12642   */\n    tag_153:\n        /* \"#utility.yul\":12517:12523   */\n      0x00\n        /* \"#utility.yul\":12550:12601   */\n      tag_282\n        /* \"#utility.yul\":12598:12599   */\n      0x00\n        /* \"#utility.yul\":12594:12600   */\n      not\n        /* \"#utility.yul\":12586:12591   */\n      dup5\n        /* \"#utility.yul\":12583:12584   */\n      0x08\n        /* \"#utility.yul\":12579:12592   */\n      mul\n        /* \"#utility.yul\":12550:12601   */\n      tag_152\n      jump\t// in\n    tag_282:\n        /* \"#utility.yul\":12546:12602   */\n      not\n        /* \"#utility.yul\":12631:12635   */\n      dup1\n        /* \"#utility.yul\":12625:12629   */\n      dup4\n        /* \"#utility.yul\":12621:12636   */\n      and\n        /* \"#utility.yul\":12611:12636   */\n      swap2\n      pop\n        /* \"#utility.yul\":12524:12642   */\n      pop\n        /* \"#utility.yul\":12473:12642   */\n      swap3\n      swap2\n      pop\n      pop\n      jump\t// out\n        /* \"#utility.yul\":12647:12942   */\n    tag_154:\n        /* \"#utility.yul\":12723:12727   */\n      0x00\n        /* \"#utility.yul\":12869:12898   */\n      tag_284\n        /* \"#utility.yul\":12894:12897   */\n      dup4\n        /* \"#utility.yul\":12888:12892   */\n      dup4\n        /* \"#utility.yul\":12869:12898   */\n      tag_153\n      jump\t// in\n    tag_284:\n        /* \"#utility.yul\":12861:12898   */\n      swap2\n      pop\n        /* \"#utility.yul\":12931:12934   */\n      dup3\n        /* \"#utility.yul\":12928:12929   */\n      0x02\n        /* \"#utility.yul\":12924:12935   */\n      mul\n        /* \"#utility.yul\":12918:12922   */\n      dup3\n        /* \"#utility.yul\":12915:12936   */\n      or\n        /* \"#utility.yul\":12907:12936   */\n      swap1\n      pop\n        /* \"#utility.yul\":12647:12942   */\n      swap3\n      swap2\n      pop\n      pop\n      jump\t// out\n        /* \"#utility.yul\":12947:14342   */\n    tag_94:\n        /* \"#utility.yul\":13064:13101   */\n      tag_286\n        /* \"#utility.yul\":13097:13100   */\n      dup3\n        /* \"#utility.yul\":13064:13101   */\n      tag_122\n      jump\t// in\n    tag_286:\n        /* \"#utility.yul\":13166:13184   */\n      0xffffffffffffffff\n        /* \"#utility.yul\":13158:13164   */\n      dup2\n        /* \"#utility.yul\":13155:13185   */\n      gt\n        /* \"#utility.yul\":13152:13208   */\n      iszero\n      tag_287\n      jumpi\n        /* \"#utility.yul\":13188:13206   */\n      tag_288\n      tag_139\n      jump\t// in\n    tag_288:\n        /* \"#utility.yul\":13152:13208   */\n    tag_287:\n        /* \"#utility.yul\":13232:13270   */\n      tag_289\n        /* \"#utility.yul\":13264:13268   */\n      dup3\n        /* \"#utility.yul\":13258:13269   */\n      sload\n        /* \"#utility.yul\":13232:13270   */\n      tag_67\n      jump\t// in\n    tag_289:\n        /* \"#utility.yul\":13317:13384   */\n      tag_290\n        /* \"#utility.yul\":13377:13383   */\n      dup3\n        /* \"#utility.yul\":13369:13375   */\n      dup3\n        /* \"#utility.yul\":13363:13367   */\n      dup6\n        /* \"#utility.yul\":13317:13384   */\n      tag_151\n      jump\t// in\n    tag_290:\n        /* \"#utility.yul\":13411:13412   */\n      0x00\n        /* \"#utility.yul\":13435:13439   */\n      0x20\n        /* \"#utility.yul\":13422:13439   */\n      swap1\n      pop\n        /* \"#utility.yul\":13467:13469   */\n      0x1f\n        /* \"#utility.yul\":13459:13465   */\n      dup4\n        /* \"#utility.yul\":13456:13470   */\n      gt\n        /* \"#utility.yul\":13484:13485   */\n      0x01\n        /* \"#utility.yul\":13479:14097   */\n      dup2\n      eq\n      tag_292\n      jumpi\n        /* \"#utility.yul\":14141:14142   */\n      0x00\n        /* \"#utility.yul\":14158:14164   */\n      dup5\n        /* \"#utility.yul\":14155:14232   */\n      iszero\n      tag_293\n      jumpi\n        /* \"#utility.yul\":14207:14216   */\n      dup3\n        /* \"#utility.yul\":14202:14205   */\n      dup8\n        /* \"#utility.yul\":14198:14217   */\n      add\n        /* \"#utility.yul\":14192:14218   */\n      mload\n        /* \"#utility.yul\":14183:14218   */\n      swap1\n      pop\n        /* \"#utility.yul\":14155:14232   */\n    tag_293:\n        /* \"#utility.yul\":14258:14325   */\n      tag_294\n        /* \"#utility.yul\":14318:14324   */\n      dup6\n        /* \"#utility.yul\":14311:14316   */\n      dup3\n        /* \"#utility.yul\":14258:14325   */\n      tag_154\n      jump\t// in\n    tag_294:\n        /* \"#utility.yul\":14252:14256   */\n      dup7\n        /* \"#utility.yul\":14245:14326   */\n      sstore\n        /* \"#utility.yul\":14114:14336   */\n      pop\n        /* \"#utility.yul\":13449:14336   */\n      jump(tag_291)\n        /* \"#utility.yul\":13479:14097   */\n    tag_292:\n        /* \"#utility.yul\":13531:13535   */\n      0x1f\n        /* \"#utility.yul\":13527:13536   */\n      not\n        /* \"#utility.yul\":13519:13525   */\n      dup5\n        /* \"#utility.yul\":13515:13537   */\n      and\n        /* \"#utility.yul\":13565:13602   */\n      tag_295\n        /* \"#utility.yul\":13597:13601   */\n      dup7\n        /* \"#utility.yul\":13565:13602   */\n      tag_140\n      jump\t// in\n    tag_295:\n        /* \"#utility.yul\":13624:13625   */\n      0x00\n        /* \"#utility.yul\":13638:13846   */\n    tag_296:\n        /* \"#utility.yul\":13652:13659   */\n      dup3\n        /* \"#utility.yul\":13649:13650   */\n      dup2\n        /* \"#utility.yul\":13646:13660   */\n      lt\n        /* \"#utility.yul\":13638:13846   */\n      iszero\n      tag_298\n      jumpi\n        /* \"#utility.yul\":13731:13740   */\n      dup5\n        /* \"#utility.yul\":13726:13729   */\n      dup10\n        /* \"#utility.yul\":13722:13741   */\n      add\n        /* \"#utility.yul\":13716:13742   */\n      mload\n        /* \"#utility.yul\":13708:13714   */\n      dup3\n        /* \"#utility.yul\":13701:13743   */\n      sstore\n        /* \"#utility.yul\":13782:13783   */\n      0x01\n        /* \"#utility.yul\":13774:13780   */\n      dup3\n        /* \"#utility.yul\":13770:13784   */\n      add\n        /* \"#utility.yul\":13760:13784   */\n      swap2\n      pop\n        /* \"#utility.yul\":13829:13831   */\n      0x20\n        /* \"#utility.yul\":13818:13827   */\n      dup6\n        /* \"#utility.yul\":13814:13832   */\n      add\n        /* \"#utility.yul\":13801:13832   */\n      swap5\n      pop\n        /* \"#utility.yul\":13675:13679   */\n      0x20\n        /* \"#utility.yul\":13672:13673   */\n      dup2\n        /* \"#utility.yul\":13668:13680   */\n      add\n        /* \"#utility.yul\":13663:13680   */\n      swap1\n      pop\n        /* \"#utility.yul\":13638:13846   */\n      jump(tag_296)\n    tag_298:\n        /* \"#utility.yul\":13874:13880   */\n      dup7\n        /* \"#utility.yul\":13865:13872   */\n      dup4\n        /* \"#utility.yul\":13862:13881   */\n      lt\n        /* \"#utility.yul\":13859:14038   */\n      iszero\n      tag_299\n      jumpi\n        /* \"#utility.yul\":13932:13941   */\n      dup5\n        /* \"#utility.yul\":13927:13930   */\n      dup10\n        /* \"#utility.yul\":13923:13942   */\n      add\n        /* \"#utility.yul\":13917:13943   */\n      mload\n        /* \"#utility.yul\":13975:14023   */\n      tag_300\n        /* \"#utility.yul\":14017:14021   */\n      0x1f\n        /* \"#utility.yul\":14009:14015   */\n      dup10\n        /* \"#utility.yul\":14005:14022   */\n      and\n        /* \"#utility.yul\":13994:14003   */\n      dup3\n        /* \"#utility.yul\":13975:14023   */\n      tag_153\n      jump\t// in\n    tag_300:\n        /* \"#utility.yul\":13967:13973   */\n      dup4\n        /* \"#utility.yul\":13960:14024   */\n      sstore\n        /* \"#utility.yul\":13882:14038   */\n      pop\n        /* \"#utility.yul\":13859:14038   */\n    tag_299:\n        /* \"#utility.yul\":14084:14085   */\n      0x01\n        /* \"#utility.yul\":14080:14081   */\n      0x02\n        /* \"#utility.yul\":14072:14078   */\n      dup9\n        /* \"#utility.yul\":14068:14082   */\n      mul\n        /* \"#utility.yul\":14064:14086   */\n      add\n        /* \"#utility.yul\":14058:14062   */\n      dup9\n        /* \"#utility.yul\":14051:14087   */\n      sstore\n        /* \"#utility.yul\":13486:14097   */\n      pop\n      pop\n      pop\n        /* \"#utility.yul\":13449:14336   */\n    tag_291:\n      pop\n        /* \"#utility.yul\":13039:14342   */\n      pop\n      pop\n      pop\n        /* \"#utility.yul\":12947:14342   */\n      pop\n      pop\n      jump\t// out\n\n    auxdata: 0xa264697066735822122065b94d3f3c7bef92e6fbf371d3d4e3079577ee2700c9005fa0656afeb94ae8b664736f6c634300080f0033\n}\n",
				"bytecode": {
					"linkReferences": {},
					"object": "6080604052620151806003556000600f553480156200001d57600080fd5b506040516200156b3803806200156b83398181016040528101906200004391906200024f565b81600a90816200005491906200052a565b5080600b90816200006691906200052a565b508260018190555050505062000611565b6000604051905090565b600080fd5b600080fd5b6000819050919050565b620000a0816200008b565b8114620000ac57600080fd5b50565b600081519050620000c08162000095565b92915050565b600080fd5b600080fd5b6000601f19601f8301169050919050565b7f4e487b7100000000000000000000000000000000000000000000000000000000600052604160045260246000fd5b6200011b82620000d0565b810181811067ffffffffffffffff821117156200013d576200013c620000e1565b5b80604052505050565b60006200015262000077565b905062000160828262000110565b919050565b600067ffffffffffffffff821115620001835762000182620000e1565b5b6200018e82620000d0565b9050602081019050919050565b60005b83811015620001bb5780820151818401526020810190506200019e565b83811115620001cb576000848401525b50505050565b6000620001e8620001e28462000165565b62000146565b905082815260208101848484011115620002075762000206620000cb565b5b620002148482856200019b565b509392505050565b600082601f830112620002345762000233620000c6565b5b815162000246848260208601620001d1565b91505092915050565b6000806000606084860312156200026b576200026a62000081565b5b60006200027b86828701620000af565b935050602084015167ffffffffffffffff8111156200029f576200029e62000086565b5b620002ad868287016200021c565b925050604084015167ffffffffffffffff811115620002d157620002d062000086565b5b620002df868287016200021c565b9150509250925092565b600081519050919050565b7f4e487b7100000000000000000000000000000000000000000000000000000000600052602260045260246000fd5b600060028204905060018216806200033c57607f821691505b602082108103620003525762000351620002f4565b5b50919050565b60008190508160005260206000209050919050565b60006020601f8301049050919050565b600082821b905092915050565b600060088302620003bc7fffffffffffffffffffffffffffffffffffffffffffffffffffffffffffffffff826200037d565b620003c886836200037d565b95508019841693508086168417925050509392505050565b6000819050919050565b60006200040b62000405620003ff846200008b565b620003e0565b6200008b565b9050919050565b6000819050919050565b6200042783620003ea565b6200043f620004368262000412565b8484546200038a565b825550505050565b600090565b6200045662000447565b620004638184846200041c565b505050565b5b818110156200048b576200047f6000826200044c565b60018101905062000469565b5050565b601f821115620004da57620004a48162000358565b620004af846200036d565b81016020851015620004bf578190505b620004d7620004ce856200036d565b83018262000468565b50505b505050565b600082821c905092915050565b6000620004ff60001984600802620004df565b1980831691505092915050565b60006200051a8383620004ec565b9150826002028217905092915050565b6200053582620002e9565b67ffffffffffffffff811115620005515762000550620000e1565b5b6200055d825462000323565b6200056a8282856200048f565b600060209050601f831160018114620005a257600084156200058d578287015190505b6200059985826200050c565b86555062000609565b601f198416620005b28662000358565b60005b82811015620005dc57848901518255600182019150602085019450602081019050620005b5565b86831015620005fc5784890151620005f8601f891682620004ec565b8355505b6001600288020188555050505b505050505050565b610f4a80620006216000396000f3fe608060405234801561001057600080fd5b50600436106100cf5760003560e01c80637b9a3f4c1161008c57806394b5dcaa1161006657806394b5dcaa146101de578063aa8c217c146101fc578063bc3094961461021a578063e21f37ce14610238576100cf565b80637b9a3f4c146101845780637eb9f571146101a25780638fa11864146101c0576100cf565b8063062a7544146100d45780630e85fa72146100f05780632623dc831461010e57806334f5ccde1461012a57806342fb7936146101485780634b28f9a214610166575b600080fd5b6100ee60048036038101906100e991906107e0565b610256565b005b6100f8610563565b604051610105919061082f565b60405180910390f35b6101286004803603810190610123919061084a565b610569565b005b610132610573565b60405161013f919061082f565b60405180910390f35b610150610579565b60405161015d9190610910565b60405180910390f35b61016e610607565b60405161017b919061082f565b60405180910390f35b61018c61060d565b604051610199919061082f565b60405180910390f35b6101aa610613565b6040516101b7919061082f565b60405180910390f35b6101c8610619565b6040516101d59190610910565b60405180910390f35b6101e66106a7565b6040516101f3919061082f565b60405180910390f35b6102046106ad565b604051610211919061082f565b60405180910390f35b6102226106b3565b60405161022f919061082f565b60405180910390f35b6102406106b9565b60405161024d9190610910565b60405180910390f35b8080600260006101000a81548173ffffffffffffffffffffffffffffffffffffffff021916908373ffffffffffffffffffffffffffffffffffffffff160217905550600073ffffffffffffffffffffffffffffffffffffffff168173ffffffffffffffffffffffffffffffffffffffff1603610307576040517f08c379a00000000000000000000000000000000000000000000000000000000081526004016102fe9061097e565b60405180910390fd5b6008600a8054610316906109cd565b905014801561033357506003600b805461032f906109cd565b9050145b610372576040517f08c379a000000000000000000000000000000000000000000000000000000000815260040161036990610a4a565b60405180910390fd5b60006001541180156103875750600054600154115b6103c6576040517f08c379a00000000000000000000000000000000000000000000000000000000081526004016103bd90610ab6565b60405180910390fd5b6109c4600c54111561040d576040517f08c379a000000000000000000000000000000000000000000000000000000000815260040161040490610b22565b60405180910390fd5b42600d81905550601e600d546104239190610b71565b600d5410610466576040517f08c379a000000000000000000000000000000000000000000000000000000000815260040161045d90610c13565b60405180910390fd5b81600260006101000a81548173ffffffffffffffffffffffffffffffffffffffff021916908373ffffffffffffffffffffffffffffffffffffffff160217905550826000819055506001600f60008282546104c19190610b71565b9250508190555060006001541180156104dd5750600054600154115b1561055e57600054600160008282546104f69190610c33565b92505081905550600054600c60008282546105119190610b71565b925050819055506040518060400160405280601281526020017f5472616e7366657220636f6d706c6574656400000000000000000000000000008152506009908161055c9190610e42565b505b505050565b600d5481565b80600d8190555050565b600e5481565b600b8054610586906109cd565b80601f01602080910402602001604051908101604052809291908181526020018280546105b2906109cd565b80156105ff5780601f106105d4576101008083540402835291602001916105ff565b820191906000526020600020905b8154815290600101906020018083116105e257829003601f168201915b505050505081565b600f5481565b60015481565b600c5481565b600a8054610626906109cd565b80601f0160208091040260200160405190810160405280929190818152602001828054610652906109cd565b801561069f5780601f106106745761010080835404028352916020019161069f565b820191906000526020600020905b81548152906001019060200180831161068257829003601f168201915b505050505081565b60045481565b60005481565b60085481565b600980546106c6906109cd565b80601f01602080910402602001604051908101604052809291908181526020018280546106f2906109cd565b801561073f5780601f106107145761010080835404028352916020019161073f565b820191906000526020600020905b81548152906001019060200180831161072257829003601f168201915b505050505081565b600080fd5b6000819050919050565b61075f8161074c565b811461076a57600080fd5b50565b60008135905061077c81610756565b92915050565b600073ffffffffffffffffffffffffffffffffffffffff82169050919050565b60006107ad82610782565b9050919050565b6107bd816107a2565b81146107c857600080fd5b50565b6000813590506107da816107b4565b92915050565b600080604083850312156107f7576107f6610747565b5b60006108058582860161076d565b9250506020610816858286016107cb565b9150509250929050565b6108298161074c565b82525050565b60006020820190506108446000830184610820565b92915050565b6000602082840312156108605761085f610747565b5b600061086e8482850161076d565b91505092915050565b600081519050919050565b600082825260208201905092915050565b60005b838110156108b1578082015181840152602081019050610896565b838111156108c0576000848401525b50505050565b6000601f19601f8301169050919050565b60006108e282610877565b6108ec8185610882565b93506108fc818560208601610893565b610905816108c6565b840191505092915050565b6000602082019050818103600083015261092a81846108d7565b905092915050565b7f2054686973206164647265737320646f65736e27742065786973747300000000600082015250565b6000610968601c83610882565b915061097382610932565b602082019050919050565b600060208201905081810360008301526109978161095b565b9050919050565b7f4e487b7100000000000000000000000000000000000000000000000000000000600052602260045260246000fd5b600060028204905060018216806109e557607f821691505b6020821081036109f8576109f761099e565b5b50919050565b7f4e6f2076616c6964206372656469742063617264000000000000000000000000600082015250565b6000610a34601483610882565b9150610a3f826109fe565b602082019050919050565b60006020820190508181036000830152610a6381610a27565b9050919050565b7f4e6f7420656e6f7567682066756e647300000000000000000000000000000000600082015250565b6000610aa0601083610882565b9150610aab82610a6a565b602082019050919050565b60006020820190508181036000830152610acf81610a93565b9050919050565b7f596f75207265616368656420746865206c696d69740000000000000000000000600082015250565b6000610b0c601583610882565b9150610b1782610ad6565b602082019050919050565b60006020820190508181036000830152610b3b81610aff565b9050919050565b7f4e487b7100000000000000000000000000000000000000000000000000000000600052601160045260246000fd5b6000610b7c8261074c565b9150610b878361074c565b9250827fffffffffffffffffffffffffffffffffffffffffffffffffffffffffffffffff03821115610bbc57610bbb610b42565b5b828201905092915050565b7f54696d6520706173736564000000000000000000000000000000000000000000600082015250565b6000610bfd600b83610882565b9150610c0882610bc7565b602082019050919050565b60006020820190508181036000830152610c2c81610bf0565b9050919050565b6000610c3e8261074c565b9150610c498361074c565b925082821015610c5c57610c5b610b42565b5b828203905092915050565b7f4e487b7100000000000000000000000000000000000000000000000000000000600052604160045260246000fd5b60008190508160005260206000209050919050565b60006020601f8301049050919050565b600082821b905092915050565b600060088302610cf87fffffffffffffffffffffffffffffffffffffffffffffffffffffffffffffffff82610cbb565b610d028683610cbb565b95508019841693508086168417925050509392505050565b6000819050919050565b6000610d3f610d3a610d358461074c565b610d1a565b61074c565b9050919050565b6000819050919050565b610d5983610d24565b610d6d610d6582610d46565b848454610cc8565b825550505050565b600090565b610d82610d75565b610d8d818484610d50565b505050565b5b81811015610db157610da6600082610d7a565b600181019050610d93565b5050565b601f821115610df657610dc781610c96565b610dd084610cab565b81016020851015610ddf578190505b610df3610deb85610cab565b830182610d92565b50505b505050565b600082821c905092915050565b6000610e1960001984600802610dfb565b1980831691505092915050565b6000610e328383610e08565b9150826002028217905092915050565b610e4b82610877565b67ffffffffffffffff811115610e6457610e63610c67565b5b610e6e82546109cd565b610e79828285610db5565b600060209050601f831160018114610eac5760008415610e9a578287015190505b610ea48582610e26565b865550610f0c565b601f198416610eba86610c96565b60005b82811015610ee257848901518255600182019150602085019450602081019050610ebd565b86831015610eff5784890151610efb601f891682610e08565b8355505b6001600288020188555050505b50505050505056fea264697066735822122065b94d3f3c7bef92e6fbf371d3d4e3079577ee2700c9005fa0656afeb94ae8b664736f6c634300080f0033",
					"opcodes": "PUSH1 0x80 PUSH1 0x40 MSTORE PUSH3 0x15180 PUSH1 0x3 SSTORE PUSH1 0x0 PUSH1 0xF SSTORE CALLVALUE DUP1 ISZERO PUSH3 0x1D JUMPI PUSH1 0x0 DUP1 REVERT JUMPDEST POP PUSH1 0x40 MLOAD PUSH3 0x156B CODESIZE SUB DUP1 PUSH3 0x156B DUP4 CODECOPY DUP2 DUP2 ADD PUSH1 0x40 MSTORE DUP2 ADD SWAP1 PUSH3 0x43 SWAP2 SWAP1 PUSH3 0x24F JUMP JUMPDEST DUP2 PUSH1 0xA SWAP1 DUP2 PUSH3 0x54 SWAP2 SWAP1 PUSH3 0x52A JUMP JUMPDEST POP DUP1 PUSH1 0xB SWAP1 DUP2 PUSH3 0x66 SWAP2 SWAP1 PUSH3 0x52A JUMP JUMPDEST POP DUP3 PUSH1 0x1 DUP2 SWAP1 SSTORE POP POP POP POP PUSH3 0x611 JUMP JUMPDEST PUSH1 0x0 PUSH1 0x40 MLOAD SWAP1 POP SWAP1 JUMP JUMPDEST PUSH1 0x0 DUP1 REVERT JUMPDEST PUSH1 0x0 DUP1 REVERT JUMPDEST PUSH1 0x0 DUP2 SWAP1 POP SWAP2 SWAP1 POP JUMP JUMPDEST PUSH3 0xA0 DUP2 PUSH3 0x8B JUMP JUMPDEST DUP2 EQ PUSH3 0xAC JUMPI PUSH1 0x0 DUP1 REVERT JUMPDEST POP JUMP JUMPDEST PUSH1 0x0 DUP2 MLOAD SWAP1 POP PUSH3 0xC0 DUP2 PUSH3 0x95 JUMP JUMPDEST SWAP3 SWAP2 POP POP JUMP JUMPDEST PUSH1 0x0 DUP1 REVERT JUMPDEST PUSH1 0x0 DUP1 REVERT JUMPDEST PUSH1 0x0 PUSH1 0x1F NOT PUSH1 0x1F DUP4 ADD AND SWAP1 POP SWAP2 SWAP1 POP JUMP JUMPDEST PUSH32 0x4E487B7100000000000000000000000000000000000000000000000000000000 PUSH1 0x0 MSTORE PUSH1 0x41 PUSH1 0x4 MSTORE PUSH1 0x24 PUSH1 0x0 REVERT JUMPDEST PUSH3 0x11B DUP3 PUSH3 0xD0 JUMP JUMPDEST DUP2 ADD DUP2 DUP2 LT PUSH8 0xFFFFFFFFFFFFFFFF DUP3 GT OR ISZERO PUSH3 0x13D JUMPI PUSH3 0x13C PUSH3 0xE1 JUMP JUMPDEST JUMPDEST DUP1 PUSH1 0x40 MSTORE POP POP POP JUMP JUMPDEST PUSH1 0x0 PUSH3 0x152 PUSH3 0x77 JUMP JUMPDEST SWAP1 POP PUSH3 0x160 DUP3 DUP3 PUSH3 0x110 JUMP JUMPDEST SWAP2 SWAP1 POP JUMP JUMPDEST PUSH1 0x0 PUSH8 0xFFFFFFFFFFFFFFFF DUP3 GT ISZERO PUSH3 0x183 JUMPI PUSH3 0x182 PUSH3 0xE1 JUMP JUMPDEST JUMPDEST PUSH3 0x18E DUP3 PUSH3 0xD0 JUMP JUMPDEST SWAP1 POP PUSH1 0x20 DUP2 ADD SWAP1 POP SWAP2 SWAP1 POP JUMP JUMPDEST PUSH1 0x0 JUMPDEST DUP4 DUP2 LT ISZERO PUSH3 0x1BB JUMPI DUP1 DUP3 ADD MLOAD DUP2 DUP5 ADD MSTORE PUSH1 0x20 DUP2 ADD SWAP1 POP PUSH3 0x19E JUMP JUMPDEST DUP4 DUP2 GT ISZERO PUSH3 0x1CB JUMPI PUSH1 0x0 DUP5 DUP5 ADD MSTORE JUMPDEST POP POP POP POP JUMP JUMPDEST PUSH1 0x0 PUSH3 0x1E8 PUSH3 0x1E2 DUP5 PUSH3 0x165 JUMP JUMPDEST PUSH3 0x146 JUMP JUMPDEST SWAP1 POP DUP3 DUP2 MSTORE PUSH1 0x20 DUP2 ADD DUP5 DUP5 DUP5 ADD GT ISZERO PUSH3 0x207 JUMPI PUSH3 0x206 PUSH3 0xCB JUMP JUMPDEST JUMPDEST PUSH3 0x214 DUP5 DUP3 DUP6 PUSH3 0x19B JUMP JUMPDEST POP SWAP4 SWAP3 POP POP POP JUMP JUMPDEST PUSH1 0x0 DUP3 PUSH1 0x1F DUP4 ADD SLT PUSH3 0x234 JUMPI PUSH3 0x233 PUSH3 0xC6 JUMP JUMPDEST JUMPDEST DUP2 MLOAD PUSH3 0x246 DUP5 DUP3 PUSH1 0x20 DUP7 ADD PUSH3 0x1D1 JUMP JUMPDEST SWAP2 POP POP SWAP3 SWAP2 POP POP JUMP JUMPDEST PUSH1 0x0 DUP1 PUSH1 0x0 PUSH1 0x60 DUP5 DUP7 SUB SLT ISZERO PUSH3 0x26B JUMPI PUSH3 0x26A PUSH3 0x81 JUMP JUMPDEST JUMPDEST PUSH1 0x0 PUSH3 0x27B DUP7 DUP3 DUP8 ADD PUSH3 0xAF JUMP JUMPDEST SWAP4 POP POP PUSH1 0x20 DUP5 ADD MLOAD PUSH8 0xFFFFFFFFFFFFFFFF DUP2 GT ISZERO PUSH3 0x29F JUMPI PUSH3 0x29E PUSH3 0x86 JUMP JUMPDEST JUMPDEST PUSH3 0x2AD DUP7 DUP3 DUP8 ADD PUSH3 0x21C JUMP JUMPDEST SWAP3 POP POP PUSH1 0x40 DUP5 ADD MLOAD PUSH8 0xFFFFFFFFFFFFFFFF DUP2 GT ISZERO PUSH3 0x2D1 JUMPI PUSH3 0x2D0 PUSH3 0x86 JUMP JUMPDEST JUMPDEST PUSH3 0x2DF DUP7 DUP3 DUP8 ADD PUSH3 0x21C JUMP JUMPDEST SWAP2 POP POP SWAP3 POP SWAP3 POP SWAP3 JUMP JUMPDEST PUSH1 0x0 DUP2 MLOAD SWAP1 POP SWAP2 SWAP1 POP JUMP JUMPDEST PUSH32 0x4E487B7100000000000000000000000000000000000000000000000000000000 PUSH1 0x0 MSTORE PUSH1 0x22 PUSH1 0x4 MSTORE PUSH1 0x24 PUSH1 0x0 REVERT JUMPDEST PUSH1 0x0 PUSH1 0x2 DUP3 DIV SWAP1 POP PUSH1 0x1 DUP3 AND DUP1 PUSH3 0x33C JUMPI PUSH1 0x7F DUP3 AND SWAP2 POP JUMPDEST PUSH1 0x20 DUP3 LT DUP2 SUB PUSH3 0x352 JUMPI PUSH3 0x351 PUSH3 0x2F4 JUMP JUMPDEST JUMPDEST POP SWAP2 SWAP1 POP JUMP JUMPDEST PUSH1 0x0 DUP2 SWAP1 POP DUP2 PUSH1 0x0 MSTORE PUSH1 0x20 PUSH1 0x0 KECCAK256 SWAP1 POP SWAP2 SWAP1 POP JUMP JUMPDEST PUSH1 0x0 PUSH1 0x20 PUSH1 0x1F DUP4 ADD DIV SWAP1 POP SWAP2 SWAP1 POP JUMP JUMPDEST PUSH1 0x0 DUP3 DUP3 SHL SWAP1 POP SWAP3 SWAP2 POP POP JUMP JUMPDEST PUSH1 0x0 PUSH1 0x8 DUP4 MUL PUSH3 0x3BC PUSH32 0xFFFFFFFFFFFFFFFFFFFFFFFFFFFFFFFFFFFFFFFFFFFFFFFFFFFFFFFFFFFFFFFF DUP3 PUSH3 0x37D JUMP JUMPDEST PUSH3 0x3C8 DUP7 DUP4 PUSH3 0x37D JUMP JUMPDEST SWAP6 POP DUP1 NOT DUP5 AND SWAP4 POP DUP1 DUP7 AND DUP5 OR SWAP3 POP POP POP SWAP4 SWAP3 POP POP POP JUMP JUMPDEST PUSH1 0x0 DUP2 SWAP1 POP SWAP2 SWAP1 POP JUMP JUMPDEST PUSH1 0x0 PUSH3 0x40B PUSH3 0x405 PUSH3 0x3FF DUP5 PUSH3 0x8B JUMP JUMPDEST PUSH3 0x3E0 JUMP JUMPDEST PUSH3 0x8B JUMP JUMPDEST SWAP1 POP SWAP2 SWAP1 POP JUMP JUMPDEST PUSH1 0x0 DUP2 SWAP1 POP SWAP2 SWAP1 POP JUMP JUMPDEST PUSH3 0x427 DUP4 PUSH3 0x3EA JUMP JUMPDEST PUSH3 0x43F PUSH3 0x436 DUP3 PUSH3 0x412 JUMP JUMPDEST DUP5 DUP5 SLOAD PUSH3 0x38A JUMP JUMPDEST DUP3 SSTORE POP POP POP POP JUMP JUMPDEST PUSH1 0x0 SWAP1 JUMP JUMPDEST PUSH3 0x456 PUSH3 0x447 JUMP JUMPDEST PUSH3 0x463 DUP2 DUP5 DUP5 PUSH3 0x41C JUMP JUMPDEST POP POP POP JUMP JUMPDEST JUMPDEST DUP2 DUP2 LT ISZERO PUSH3 0x48B JUMPI PUSH3 0x47F PUSH1 0x0 DUP3 PUSH3 0x44C JUMP JUMPDEST PUSH1 0x1 DUP2 ADD SWAP1 POP PUSH3 0x469 JUMP JUMPDEST POP POP JUMP JUMPDEST PUSH1 0x1F DUP3 GT ISZERO PUSH3 0x4DA JUMPI PUSH3 0x4A4 DUP2 PUSH3 0x358 JUMP JUMPDEST PUSH3 0x4AF DUP5 PUSH3 0x36D JUMP JUMPDEST DUP2 ADD PUSH1 0x20 DUP6 LT ISZERO PUSH3 0x4BF JUMPI DUP2 SWAP1 POP JUMPDEST PUSH3 0x4D7 PUSH3 0x4CE DUP6 PUSH3 0x36D JUMP JUMPDEST DUP4 ADD DUP3 PUSH3 0x468 JUMP JUMPDEST POP POP JUMPDEST POP POP POP JUMP JUMPDEST PUSH1 0x0 DUP3 DUP3 SHR SWAP1 POP SWAP3 SWAP2 POP POP JUMP JUMPDEST PUSH1 0x0 PUSH3 0x4FF PUSH1 0x0 NOT DUP5 PUSH1 0x8 MUL PUSH3 0x4DF JUMP JUMPDEST NOT DUP1 DUP4 AND SWAP2 POP POP SWAP3 SWAP2 POP POP JUMP JUMPDEST PUSH1 0x0 PUSH3 0x51A DUP4 DUP4 PUSH3 0x4EC JUMP JUMPDEST SWAP2 POP DUP3 PUSH1 0x2 MUL DUP3 OR SWAP1 POP SWAP3 SWAP2 POP POP JUMP JUMPDEST PUSH3 0x535 DUP3 PUSH3 0x2E9 JUMP JUMPDEST PUSH8 0xFFFFFFFFFFFFFFFF DUP2 GT ISZERO PUSH3 0x551 JUMPI PUSH3 0x550 PUSH3 0xE1 JUMP JUMPDEST JUMPDEST PUSH3 0x55D DUP3 SLOAD PUSH3 0x323 JUMP JUMPDEST PUSH3 0x56A DUP3 DUP3 DUP6 PUSH3 0x48F JUMP JUMPDEST PUSH1 0x0 PUSH1 0x20 SWAP1 POP PUSH1 0x1F DUP4 GT PUSH1 0x1 DUP2 EQ PUSH3 0x5A2 JUMPI PUSH1 0x0 DUP5 ISZERO PUSH3 0x58D JUMPI DUP3 DUP8 ADD MLOAD SWAP1 POP JUMPDEST PUSH3 0x599 DUP6 DUP3 PUSH3 0x50C JUMP JUMPDEST DUP7 SSTORE POP PUSH3 0x609 JUMP JUMPDEST PUSH1 0x1F NOT DUP5 AND PUSH3 0x5B2 DUP7 PUSH3 0x358 JUMP JUMPDEST PUSH1 0x0 JUMPDEST DUP3 DUP2 LT ISZERO PUSH3 0x5DC JUMPI DUP5 DUP10 ADD MLOAD DUP3 SSTORE PUSH1 0x1 DUP3 ADD SWAP2 POP PUSH1 0x20 DUP6 ADD SWAP5 POP PUSH1 0x20 DUP2 ADD SWAP1 POP PUSH3 0x5B5 JUMP JUMPDEST DUP7 DUP4 LT ISZERO PUSH3 0x5FC JUMPI DUP5 DUP10 ADD MLOAD PUSH3 0x5F8 PUSH1 0x1F DUP10 AND DUP3 PUSH3 0x4EC JUMP JUMPDEST DUP4 SSTORE POP JUMPDEST PUSH1 0x1 PUSH1 0x2 DUP9 MUL ADD DUP9 SSTORE POP POP POP JUMPDEST POP POP POP POP POP POP JUMP JUMPDEST PUSH2 0xF4A DUP1 PUSH3 0x621 PUSH1 0x0 CODECOPY PUSH1 0x0 RETURN INVALID PUSH1 0x80 PUSH1 0x40 MSTORE CALLVALUE DUP1 ISZERO PUSH2 0x10 JUMPI PUSH1 0x0 DUP1 REVERT JUMPDEST POP PUSH1 0x4 CALLDATASIZE LT PUSH2 0xCF JUMPI PUSH1 0x0 CALLDATALOAD PUSH1 0xE0 SHR DUP1 PUSH4 0x7B9A3F4C GT PUSH2 0x8C JUMPI DUP1 PUSH4 0x94B5DCAA GT PUSH2 0x66 JUMPI DUP1 PUSH4 0x94B5DCAA EQ PUSH2 0x1DE JUMPI DUP1 PUSH4 0xAA8C217C EQ PUSH2 0x1FC JUMPI DUP1 PUSH4 0xBC309496 EQ PUSH2 0x21A JUMPI DUP1 PUSH4 0xE21F37CE EQ PUSH2 0x238 JUMPI PUSH2 0xCF JUMP JUMPDEST DUP1 PUSH4 0x7B9A3F4C EQ PUSH2 0x184 JUMPI DUP1 PUSH4 0x7EB9F571 EQ PUSH2 0x1A2 JUMPI DUP1 PUSH4 0x8FA11864 EQ PUSH2 0x1C0 JUMPI PUSH2 0xCF JUMP JUMPDEST DUP1 PUSH4 0x62A7544 EQ PUSH2 0xD4 JUMPI DUP1 PUSH4 0xE85FA72 EQ PUSH2 0xF0 JUMPI DUP1 PUSH4 0x2623DC83 EQ PUSH2 0x10E JUMPI DUP1 PUSH4 0x34F5CCDE EQ PUSH2 0x12A JUMPI DUP1 PUSH4 0x42FB7936 EQ PUSH2 0x148 JUMPI DUP1 PUSH4 0x4B28F9A2 EQ PUSH2 0x166 JUMPI JUMPDEST PUSH1 0x0 DUP1 REVERT JUMPDEST PUSH2 0xEE PUSH1 0x4 DUP1 CALLDATASIZE SUB DUP2 ADD SWAP1 PUSH2 0xE9 SWAP2 SWAP1 PUSH2 0x7E0 JUMP JUMPDEST PUSH2 0x256 JUMP JUMPDEST STOP JUMPDEST PUSH2 0xF8 PUSH2 0x563 JUMP JUMPDEST PUSH1 0x40 MLOAD PUSH2 0x105 SWAP2 SWAP1 PUSH2 0x82F JUMP JUMPDEST PUSH1 0x40 MLOAD DUP1 SWAP2 SUB SWAP1 RETURN JUMPDEST PUSH2 0x128 PUSH1 0x4 DUP1 CALLDATASIZE SUB DUP2 ADD SWAP1 PUSH2 0x123 SWAP2 SWAP1 PUSH2 0x84A JUMP JUMPDEST PUSH2 0x569 JUMP JUMPDEST STOP JUMPDEST PUSH2 0x132 PUSH2 0x573 JUMP JUMPDEST PUSH1 0x40 MLOAD PUSH2 0x13F SWAP2 SWAP1 PUSH2 0x82F JUMP JUMPDEST PUSH1 0x40 MLOAD DUP1 SWAP2 SUB SWAP1 RETURN JUMPDEST PUSH2 0x150 PUSH2 0x579 JUMP JUMPDEST PUSH1 0x40 MLOAD PUSH2 0x15D SWAP2 SWAP1 PUSH2 0x910 JUMP JUMPDEST PUSH1 0x40 MLOAD DUP1 SWAP2 SUB SWAP1 RETURN JUMPDEST PUSH2 0x16E PUSH2 0x607 JUMP JUMPDEST PUSH1 0x40 MLOAD PUSH2 0x17B SWAP2 SWAP1 PUSH2 0x82F JUMP JUMPDEST PUSH1 0x40 MLOAD DUP1 SWAP2 SUB SWAP1 RETURN JUMPDEST PUSH2 0x18C PUSH2 0x60D JUMP JUMPDEST PUSH1 0x40 MLOAD PUSH2 0x199 SWAP2 SWAP1 PUSH2 0x82F JUMP JUMPDEST PUSH1 0x40 MLOAD DUP1 SWAP2 SUB SWAP1 RETURN JUMPDEST PUSH2 0x1AA PUSH2 0x613 JUMP JUMPDEST PUSH1 0x40 MLOAD PUSH2 0x1B7 SWAP2 SWAP1 PUSH2 0x82F JUMP JUMPDEST PUSH1 0x40 MLOAD DUP1 SWAP2 SUB SWAP1 RETURN JUMPDEST PUSH2 0x1C8 PUSH2 0x619 JUMP JUMPDEST PUSH1 0x40 MLOAD PUSH2 0x1D5 SWAP2 SWAP1 PUSH2 0x910 JUMP JUMPDEST PUSH1 0x40 MLOAD DUP1 SWAP2 SUB SWAP1 RETURN JUMPDEST PUSH2 0x1E6 PUSH2 0x6A7 JUMP JUMPDEST PUSH1 0x40 MLOAD PUSH2 0x1F3 SWAP2 SWAP1 PUSH2 0x82F JUMP JUMPDEST PUSH1 0x40 MLOAD DUP1 SWAP2 SUB SWAP1 RETURN JUMPDEST PUSH2 0x204 PUSH2 0x6AD JUMP JUMPDEST PUSH1 0x40 MLOAD PUSH2 0x211 SWAP2 SWAP1 PUSH2 0x82F JUMP JUMPDEST PUSH1 0x40 MLOAD DUP1 SWAP2 SUB SWAP1 RETURN JUMPDEST PUSH2 0x222 PUSH2 0x6B3 JUMP JUMPDEST PUSH1 0x40 MLOAD PUSH2 0x22F SWAP2 SWAP1 PUSH2 0x82F JUMP JUMPDEST PUSH1 0x40 MLOAD DUP1 SWAP2 SUB SWAP1 RETURN JUMPDEST PUSH2 0x240 PUSH2 0x6B9 JUMP JUMPDEST PUSH1 0x40 MLOAD PUSH2 0x24D SWAP2 SWAP1 PUSH2 0x910 JUMP JUMPDEST PUSH1 0x40 MLOAD DUP1 SWAP2 SUB SWAP1 RETURN JUMPDEST DUP1 DUP1 PUSH1 0x2 PUSH1 0x0 PUSH2 0x100 EXP DUP2 SLOAD DUP2 PUSH20 0xFFFFFFFFFFFFFFFFFFFFFFFFFFFFFFFFFFFFFFFF MUL NOT AND SWAP1 DUP4 PUSH20 0xFFFFFFFFFFFFFFFFFFFFFFFFFFFFFFFFFFFFFFFF AND MUL OR SWAP1 SSTORE POP PUSH1 0x0 PUSH20 0xFFFFFFFFFFFFFFFFFFFFFFFFFFFFFFFFFFFFFFFF AND DUP2 PUSH20 0xFFFFFFFFFFFFFFFFFFFFFFFFFFFFFFFFFFFFFFFF AND SUB PUSH2 0x307 JUMPI PUSH1 0x40 MLOAD PUSH32 0x8C379A000000000000000000000000000000000000000000000000000000000 DUP2 MSTORE PUSH1 0x4 ADD PUSH2 0x2FE SWAP1 PUSH2 0x97E JUMP JUMPDEST PUSH1 0x40 MLOAD DUP1 SWAP2 SUB SWAP1 REVERT JUMPDEST PUSH1 0x8 PUSH1 0xA DUP1 SLOAD PUSH2 0x316 SWAP1 PUSH2 0x9CD JUMP JUMPDEST SWAP1 POP EQ DUP1 ISZERO PUSH2 0x333 JUMPI POP PUSH1 0x3 PUSH1 0xB DUP1 SLOAD PUSH2 0x32F SWAP1 PUSH2 0x9CD JUMP JUMPDEST SWAP1 POP EQ JUMPDEST PUSH2 0x372 JUMPI PUSH1 0x40 MLOAD PUSH32 0x8C379A000000000000000000000000000000000000000000000000000000000 DUP2 MSTORE PUSH1 0x4 ADD PUSH2 0x369 SWAP1 PUSH2 0xA4A JUMP JUMPDEST PUSH1 0x40 MLOAD DUP1 SWAP2 SUB SWAP1 REVERT JUMPDEST PUSH1 0x0 PUSH1 0x1 SLOAD GT DUP1 ISZERO PUSH2 0x387 JUMPI POP PUSH1 0x0 SLOAD PUSH1 0x1 SLOAD GT JUMPDEST PUSH2 0x3C6 JUMPI PUSH1 0x40 MLOAD PUSH32 0x8C379A000000000000000000000000000000000000000000000000000000000 DUP2 MSTORE PUSH1 0x4 ADD PUSH2 0x3BD SWAP1 PUSH2 0xAB6 JUMP JUMPDEST PUSH1 0x40 MLOAD DUP1 SWAP2 SUB SWAP1 REVERT JUMPDEST PUSH2 0x9C4 PUSH1 0xC SLOAD GT ISZERO PUSH2 0x40D JUMPI PUSH1 0x40 MLOAD PUSH32 0x8C379A000000000000000000000000000000000000000000000000000000000 DUP2 MSTORE PUSH1 0x4 ADD PUSH2 0x404 SWAP1 PUSH2 0xB22 JUMP JUMPDEST PUSH1 0x40 MLOAD DUP1 SWAP2 SUB SWAP1 REVERT JUMPDEST TIMESTAMP PUSH1 0xD DUP2 SWAP1 SSTORE POP PUSH1 0x1E PUSH1 0xD SLOAD PUSH2 0x423 SWAP2 SWAP1 PUSH2 0xB71 JUMP JUMPDEST PUSH1 0xD SLOAD LT PUSH2 0x466 JUMPI PUSH1 0x40 MLOAD PUSH32 0x8C379A000000000000000000000000000000000000000000000000000000000 DUP2 MSTORE PUSH1 0x4 ADD PUSH2 0x45D SWAP1 PUSH2 0xC13 JUMP JUMPDEST PUSH1 0x40 MLOAD DUP1 SWAP2 SUB SWAP1 REVERT JUMPDEST DUP2 PUSH1 0x2 PUSH1 0x0 PUSH2 0x100 EXP DUP2 SLOAD DUP2 PUSH20 0xFFFFFFFFFFFFFFFFFFFFFFFFFFFFFFFFFFFFFFFF MUL NOT AND SWAP1 DUP4 PUSH20 0xFFFFFFFFFFFFFFFFFFFFFFFFFFFFFFFFFFFFFFFF AND MUL OR SWAP1 SSTORE POP DUP3 PUSH1 0x0 DUP2 SWAP1 SSTORE POP PUSH1 0x1 PUSH1 0xF PUSH1 0x0 DUP3 DUP3 SLOAD PUSH2 0x4C1 SWAP2 SWAP1 PUSH2 0xB71 JUMP JUMPDEST SWAP3 POP POP DUP2 SWAP1 SSTORE POP PUSH1 0x0 PUSH1 0x1 SLOAD GT DUP1 ISZERO PUSH2 0x4DD JUMPI POP PUSH1 0x0 SLOAD PUSH1 0x1 SLOAD GT JUMPDEST ISZERO PUSH2 0x55E JUMPI PUSH1 0x0 SLOAD PUSH1 0x1 PUSH1 0x0 DUP3 DUP3 SLOAD PUSH2 0x4F6 SWAP2 SWAP1 PUSH2 0xC33 JUMP JUMPDEST SWAP3 POP POP DUP2 SWAP1 SSTORE POP PUSH1 0x0 SLOAD PUSH1 0xC PUSH1 0x0 DUP3 DUP3 SLOAD PUSH2 0x511 SWAP2 SWAP1 PUSH2 0xB71 JUMP JUMPDEST SWAP3 POP POP DUP2 SWAP1 SSTORE POP PUSH1 0x40 MLOAD DUP1 PUSH1 0x40 ADD PUSH1 0x40 MSTORE DUP1 PUSH1 0x12 DUP2 MSTORE PUSH1 0x20 ADD PUSH32 0x5472616E7366657220636F6D706C657465640000000000000000000000000000 DUP2 MSTORE POP PUSH1 0x9 SWAP1 DUP2 PUSH2 0x55C SWAP2 SWAP1 PUSH2 0xE42 JUMP JUMPDEST POP JUMPDEST POP POP POP JUMP JUMPDEST PUSH1 0xD SLOAD DUP2 JUMP JUMPDEST DUP1 PUSH1 0xD DUP2 SWAP1 SSTORE POP POP JUMP JUMPDEST PUSH1 0xE SLOAD DUP2 JUMP JUMPDEST PUSH1 0xB DUP1 SLOAD PUSH2 0x586 SWAP1 PUSH2 0x9CD JUMP JUMPDEST DUP1 PUSH1 0x1F ADD PUSH1 0x20 DUP1 SWAP2 DIV MUL PUSH1 0x20 ADD PUSH1 0x40 MLOAD SWAP1 DUP2 ADD PUSH1 0x40 MSTORE DUP1 SWAP3 SWAP2 SWAP1 DUP2 DUP2 MSTORE PUSH1 0x20 ADD DUP3 DUP1 SLOAD PUSH2 0x5B2 SWAP1 PUSH2 0x9CD JUMP JUMPDEST DUP1 ISZERO PUSH2 0x5FF JUMPI DUP1 PUSH1 0x1F LT PUSH2 0x5D4 JUMPI PUSH2 0x100 DUP1 DUP4 SLOAD DIV MUL DUP4 MSTORE SWAP2 PUSH1 0x20 ADD SWAP2 PUSH2 0x5FF JUMP JUMPDEST DUP3 ADD SWAP2 SWAP1 PUSH1 0x0 MSTORE PUSH1 0x20 PUSH1 0x0 KECCAK256 SWAP1 JUMPDEST DUP2 SLOAD DUP2 MSTORE SWAP1 PUSH1 0x1 ADD SWAP1 PUSH1 0x20 ADD DUP1 DUP4 GT PUSH2 0x5E2 JUMPI DUP3 SWAP1 SUB PUSH1 0x1F AND DUP3 ADD SWAP2 JUMPDEST POP POP POP POP POP DUP2 JUMP JUMPDEST PUSH1 0xF SLOAD DUP2 JUMP JUMPDEST PUSH1 0x1 SLOAD DUP2 JUMP JUMPDEST PUSH1 0xC SLOAD DUP2 JUMP JUMPDEST PUSH1 0xA DUP1 SLOAD PUSH2 0x626 SWAP1 PUSH2 0x9CD JUMP JUMPDEST DUP1 PUSH1 0x1F ADD PUSH1 0x20 DUP1 SWAP2 DIV MUL PUSH1 0x20 ADD PUSH1 0x40 MLOAD SWAP1 DUP2 ADD PUSH1 0x40 MSTORE DUP1 SWAP3 SWAP2 SWAP1 DUP2 DUP2 MSTORE PUSH1 0x20 ADD DUP3 DUP1 SLOAD PUSH2 0x652 SWAP1 PUSH2 0x9CD JUMP JUMPDEST DUP1 ISZERO PUSH2 0x69F JUMPI DUP1 PUSH1 0x1F LT PUSH2 0x674 JUMPI PUSH2 0x100 DUP1 DUP4 SLOAD DIV MUL DUP4 MSTORE SWAP2 PUSH1 0x20 ADD SWAP2 PUSH2 0x69F JUMP JUMPDEST DUP3 ADD SWAP2 SWAP1 PUSH1 0x0 MSTORE PUSH1 0x20 PUSH1 0x0 KECCAK256 SWAP1 JUMPDEST DUP2 SLOAD DUP2 MSTORE SWAP1 PUSH1 0x1 ADD SWAP1 PUSH1 0x20 ADD DUP1 DUP4 GT PUSH2 0x682 JUMPI DUP3 SWAP1 SUB PUSH1 0x1F AND DUP3 ADD SWAP2 JUMPDEST POP POP POP POP POP DUP2 JUMP JUMPDEST PUSH1 0x4 SLOAD DUP2 JUMP JUMPDEST PUSH1 0x0 SLOAD DUP2 JUMP JUMPDEST PUSH1 0x8 SLOAD DUP2 JUMP JUMPDEST PUSH1 0x9 DUP1 SLOAD PUSH2 0x6C6 SWAP1 PUSH2 0x9CD JUMP JUMPDEST DUP1 PUSH1 0x1F ADD PUSH1 0x20 DUP1 SWAP2 DIV MUL PUSH1 0x20 ADD PUSH1 0x40 MLOAD SWAP1 DUP2 ADD PUSH1 0x40 MSTORE DUP1 SWAP3 SWAP2 SWAP1 DUP2 DUP2 MSTORE PUSH1 0x20 ADD DUP3 DUP1 SLOAD PUSH2 0x6F2 SWAP1 PUSH2 0x9CD JUMP JUMPDEST DUP1 ISZERO PUSH2 0x73F JUMPI DUP1 PUSH1 0x1F LT PUSH2 0x714 JUMPI PUSH2 0x100 DUP1 DUP4 SLOAD DIV MUL DUP4 MSTORE SWAP2 PUSH1 0x20 ADD SWAP2 PUSH2 0x73F JUMP JUMPDEST DUP3 ADD SWAP2 SWAP1 PUSH1 0x0 MSTORE PUSH1 0x20 PUSH1 0x0 KECCAK256 SWAP1 JUMPDEST DUP2 SLOAD DUP2 MSTORE SWAP1 PUSH1 0x1 ADD SWAP1 PUSH1 0x20 ADD DUP1 DUP4 GT PUSH2 0x722 JUMPI DUP3 SWAP1 SUB PUSH1 0x1F AND DUP3 ADD SWAP2 JUMPDEST POP POP POP POP POP DUP2 JUMP JUMPDEST PUSH1 0x0 DUP1 REVERT JUMPDEST PUSH1 0x0 DUP2 SWAP1 POP SWAP2 SWAP1 POP JUMP JUMPDEST PUSH2 0x75F DUP2 PUSH2 0x74C JUMP JUMPDEST DUP2 EQ PUSH2 0x76A JUMPI PUSH1 0x0 DUP1 REVERT JUMPDEST POP JUMP JUMPDEST PUSH1 0x0 DUP2 CALLDATALOAD SWAP1 POP PUSH2 0x77C DUP2 PUSH2 0x756 JUMP JUMPDEST SWAP3 SWAP2 POP POP JUMP JUMPDEST PUSH1 0x0 PUSH20 0xFFFFFFFFFFFFFFFFFFFFFFFFFFFFFFFFFFFFFFFF DUP3 AND SWAP1 POP SWAP2 SWAP1 POP JUMP JUMPDEST PUSH1 0x0 PUSH2 0x7AD DUP3 PUSH2 0x782 JUMP JUMPDEST SWAP1 POP SWAP2 SWAP1 POP JUMP JUMPDEST PUSH2 0x7BD DUP2 PUSH2 0x7A2 JUMP JUMPDEST DUP2 EQ PUSH2 0x7C8 JUMPI PUSH1 0x0 DUP1 REVERT JUMPDEST POP JUMP JUMPDEST PUSH1 0x0 DUP2 CALLDATALOAD SWAP1 POP PUSH2 0x7DA DUP2 PUSH2 0x7B4 JUMP JUMPDEST SWAP3 SWAP2 POP POP JUMP JUMPDEST PUSH1 0x0 DUP1 PUSH1 0x40 DUP4 DUP6 SUB SLT ISZERO PUSH2 0x7F7 JUMPI PUSH2 0x7F6 PUSH2 0x747 JUMP JUMPDEST JUMPDEST PUSH1 0x0 PUSH2 0x805 DUP6 DUP3 DUP7 ADD PUSH2 0x76D JUMP JUMPDEST SWAP3 POP POP PUSH1 0x20 PUSH2 0x816 DUP6 DUP3 DUP7 ADD PUSH2 0x7CB JUMP JUMPDEST SWAP2 POP POP SWAP3 POP SWAP3 SWAP1 POP JUMP JUMPDEST PUSH2 0x829 DUP2 PUSH2 0x74C JUMP JUMPDEST DUP3 MSTORE POP POP JUMP JUMPDEST PUSH1 0x0 PUSH1 0x20 DUP3 ADD SWAP1 POP PUSH2 0x844 PUSH1 0x0 DUP4 ADD DUP5 PUSH2 0x820 JUMP JUMPDEST SWAP3 SWAP2 POP POP JUMP JUMPDEST PUSH1 0x0 PUSH1 0x20 DUP3 DUP5 SUB SLT ISZERO PUSH2 0x860 JUMPI PUSH2 0x85F PUSH2 0x747 JUMP JUMPDEST JUMPDEST PUSH1 0x0 PUSH2 0x86E DUP5 DUP3 DUP6 ADD PUSH2 0x76D JUMP JUMPDEST SWAP2 POP POP SWAP3 SWAP2 POP POP JUMP JUMPDEST PUSH1 0x0 DUP2 MLOAD SWAP1 POP SWAP2 SWAP1 POP JUMP JUMPDEST PUSH1 0x0 DUP3 DUP3 MSTORE PUSH1 0x20 DUP3 ADD SWAP1 POP SWAP3 SWAP2 POP POP JUMP JUMPDEST PUSH1 0x0 JUMPDEST DUP4 DUP2 LT ISZERO PUSH2 0x8B1 JUMPI DUP1 DUP3 ADD MLOAD DUP2 DUP5 ADD MSTORE PUSH1 0x20 DUP2 ADD SWAP1 POP PUSH2 0x896 JUMP JUMPDEST DUP4 DUP2 GT ISZERO PUSH2 0x8C0 JUMPI PUSH1 0x0 DUP5 DUP5 ADD MSTORE JUMPDEST POP POP POP POP JUMP JUMPDEST PUSH1 0x0 PUSH1 0x1F NOT PUSH1 0x1F DUP4 ADD AND SWAP1 POP SWAP2 SWAP1 POP JUMP JUMPDEST PUSH1 0x0 PUSH2 0x8E2 DUP3 PUSH2 0x877 JUMP JUMPDEST PUSH2 0x8EC DUP2 DUP6 PUSH2 0x882 JUMP JUMPDEST SWAP4 POP PUSH2 0x8FC DUP2 DUP6 PUSH1 0x20 DUP7 ADD PUSH2 0x893 JUMP JUMPDEST PUSH2 0x905 DUP2 PUSH2 0x8C6 JUMP JUMPDEST DUP5 ADD SWAP2 POP POP SWAP3 SWAP2 POP POP JUMP JUMPDEST PUSH1 0x0 PUSH1 0x20 DUP3 ADD SWAP1 POP DUP2 DUP2 SUB PUSH1 0x0 DUP4 ADD MSTORE PUSH2 0x92A DUP2 DUP5 PUSH2 0x8D7 JUMP JUMPDEST SWAP1 POP SWAP3 SWAP2 POP POP JUMP JUMPDEST PUSH32 0x2054686973206164647265737320646F65736E27742065786973747300000000 PUSH1 0x0 DUP3 ADD MSTORE POP JUMP JUMPDEST PUSH1 0x0 PUSH2 0x968 PUSH1 0x1C DUP4 PUSH2 0x882 JUMP JUMPDEST SWAP2 POP PUSH2 0x973 DUP3 PUSH2 0x932 JUMP JUMPDEST PUSH1 0x20 DUP3 ADD SWAP1 POP SWAP2 SWAP1 POP JUMP JUMPDEST PUSH1 0x0 PUSH1 0x20 DUP3 ADD SWAP1 POP DUP2 DUP2 SUB PUSH1 0x0 DUP4 ADD MSTORE PUSH2 0x997 DUP2 PUSH2 0x95B JUMP JUMPDEST SWAP1 POP SWAP2 SWAP1 POP JUMP JUMPDEST PUSH32 0x4E487B7100000000000000000000000000000000000000000000000000000000 PUSH1 0x0 MSTORE PUSH1 0x22 PUSH1 0x4 MSTORE PUSH1 0x24 PUSH1 0x0 REVERT JUMPDEST PUSH1 0x0 PUSH1 0x2 DUP3 DIV SWAP1 POP PUSH1 0x1 DUP3 AND DUP1 PUSH2 0x9E5 JUMPI PUSH1 0x7F DUP3 AND SWAP2 POP JUMPDEST PUSH1 0x20 DUP3 LT DUP2 SUB PUSH2 0x9F8 JUMPI PUSH2 0x9F7 PUSH2 0x99E JUMP JUMPDEST JUMPDEST POP SWAP2 SWAP1 POP JUMP JUMPDEST PUSH32 0x4E6F2076616C6964206372656469742063617264000000000000000000000000 PUSH1 0x0 DUP3 ADD MSTORE POP JUMP JUMPDEST PUSH1 0x0 PUSH2 0xA34 PUSH1 0x14 DUP4 PUSH2 0x882 JUMP JUMPDEST SWAP2 POP PUSH2 0xA3F DUP3 PUSH2 0x9FE JUMP JUMPDEST PUSH1 0x20 DUP3 ADD SWAP1 POP SWAP2 SWAP1 POP JUMP JUMPDEST PUSH1 0x0 PUSH1 0x20 DUP3 ADD SWAP1 POP DUP2 DUP2 SUB PUSH1 0x0 DUP4 ADD MSTORE PUSH2 0xA63 DUP2 PUSH2 0xA27 JUMP JUMPDEST SWAP1 POP SWAP2 SWAP1 POP JUMP JUMPDEST PUSH32 0x4E6F7420656E6F7567682066756E647300000000000000000000000000000000 PUSH1 0x0 DUP3 ADD MSTORE POP JUMP JUMPDEST PUSH1 0x0 PUSH2 0xAA0 PUSH1 0x10 DUP4 PUSH2 0x882 JUMP JUMPDEST SWAP2 POP PUSH2 0xAAB DUP3 PUSH2 0xA6A JUMP JUMPDEST PUSH1 0x20 DUP3 ADD SWAP1 POP SWAP2 SWAP1 POP JUMP JUMPDEST PUSH1 0x0 PUSH1 0x20 DUP3 ADD SWAP1 POP DUP2 DUP2 SUB PUSH1 0x0 DUP4 ADD MSTORE PUSH2 0xACF DUP2 PUSH2 0xA93 JUMP JUMPDEST SWAP1 POP SWAP2 SWAP1 POP JUMP JUMPDEST PUSH32 0x596F75207265616368656420746865206C696D69740000000000000000000000 PUSH1 0x0 DUP3 ADD MSTORE POP JUMP JUMPDEST PUSH1 0x0 PUSH2 0xB0C PUSH1 0x15 DUP4 PUSH2 0x882 JUMP JUMPDEST SWAP2 POP PUSH2 0xB17 DUP3 PUSH2 0xAD6 JUMP JUMPDEST PUSH1 0x20 DUP3 ADD SWAP1 POP SWAP2 SWAP1 POP JUMP JUMPDEST PUSH1 0x0 PUSH1 0x20 DUP3 ADD SWAP1 POP DUP2 DUP2 SUB PUSH1 0x0 DUP4 ADD MSTORE PUSH2 0xB3B DUP2 PUSH2 0xAFF JUMP JUMPDEST SWAP1 POP SWAP2 SWAP1 POP JUMP JUMPDEST PUSH32 0x4E487B7100000000000000000000000000000000000000000000000000000000 PUSH1 0x0 MSTORE PUSH1 0x11 PUSH1 0x4 MSTORE PUSH1 0x24 PUSH1 0x0 REVERT JUMPDEST PUSH1 0x0 PUSH2 0xB7C DUP3 PUSH2 0x74C JUMP JUMPDEST SWAP2 POP PUSH2 0xB87 DUP4 PUSH2 0x74C JUMP JUMPDEST SWAP3 POP DUP3 PUSH32 0xFFFFFFFFFFFFFFFFFFFFFFFFFFFFFFFFFFFFFFFFFFFFFFFFFFFFFFFFFFFFFFFF SUB DUP3 GT ISZERO PUSH2 0xBBC JUMPI PUSH2 0xBBB PUSH2 0xB42 JUMP JUMPDEST JUMPDEST DUP3 DUP3 ADD SWAP1 POP SWAP3 SWAP2 POP POP JUMP JUMPDEST PUSH32 0x54696D6520706173736564000000000000000000000000000000000000000000 PUSH1 0x0 DUP3 ADD MSTORE POP JUMP JUMPDEST PUSH1 0x0 PUSH2 0xBFD PUSH1 0xB DUP4 PUSH2 0x882 JUMP JUMPDEST SWAP2 POP PUSH2 0xC08 DUP3 PUSH2 0xBC7 JUMP JUMPDEST PUSH1 0x20 DUP3 ADD SWAP1 POP SWAP2 SWAP1 POP JUMP JUMPDEST PUSH1 0x0 PUSH1 0x20 DUP3 ADD SWAP1 POP DUP2 DUP2 SUB PUSH1 0x0 DUP4 ADD MSTORE PUSH2 0xC2C DUP2 PUSH2 0xBF0 JUMP JUMPDEST SWAP1 POP SWAP2 SWAP1 POP JUMP JUMPDEST PUSH1 0x0 PUSH2 0xC3E DUP3 PUSH2 0x74C JUMP JUMPDEST SWAP2 POP PUSH2 0xC49 DUP4 PUSH2 0x74C JUMP JUMPDEST SWAP3 POP DUP3 DUP3 LT ISZERO PUSH2 0xC5C JUMPI PUSH2 0xC5B PUSH2 0xB42 JUMP JUMPDEST JUMPDEST DUP3 DUP3 SUB SWAP1 POP SWAP3 SWAP2 POP POP JUMP JUMPDEST PUSH32 0x4E487B7100000000000000000000000000000000000000000000000000000000 PUSH1 0x0 MSTORE PUSH1 0x41 PUSH1 0x4 MSTORE PUSH1 0x24 PUSH1 0x0 REVERT JUMPDEST PUSH1 0x0 DUP2 SWAP1 POP DUP2 PUSH1 0x0 MSTORE PUSH1 0x20 PUSH1 0x0 KECCAK256 SWAP1 POP SWAP2 SWAP1 POP JUMP JUMPDEST PUSH1 0x0 PUSH1 0x20 PUSH1 0x1F DUP4 ADD DIV SWAP1 POP SWAP2 SWAP1 POP JUMP JUMPDEST PUSH1 0x0 DUP3 DUP3 SHL SWAP1 POP SWAP3 SWAP2 POP POP JUMP JUMPDEST PUSH1 0x0 PUSH1 0x8 DUP4 MUL PUSH2 0xCF8 PUSH32 0xFFFFFFFFFFFFFFFFFFFFFFFFFFFFFFFFFFFFFFFFFFFFFFFFFFFFFFFFFFFFFFFF DUP3 PUSH2 0xCBB JUMP JUMPDEST PUSH2 0xD02 DUP7 DUP4 PUSH2 0xCBB JUMP JUMPDEST SWAP6 POP DUP1 NOT DUP5 AND SWAP4 POP DUP1 DUP7 AND DUP5 OR SWAP3 POP POP POP SWAP4 SWAP3 POP POP POP JUMP JUMPDEST PUSH1 0x0 DUP2 SWAP1 POP SWAP2 SWAP1 POP JUMP JUMPDEST PUSH1 0x0 PUSH2 0xD3F PUSH2 0xD3A PUSH2 0xD35 DUP5 PUSH2 0x74C JUMP JUMPDEST PUSH2 0xD1A JUMP JUMPDEST PUSH2 0x74C JUMP JUMPDEST SWAP1 POP SWAP2 SWAP1 POP JUMP JUMPDEST PUSH1 0x0 DUP2 SWAP1 POP SWAP2 SWAP1 POP JUMP JUMPDEST PUSH2 0xD59 DUP4 PUSH2 0xD24 JUMP JUMPDEST PUSH2 0xD6D PUSH2 0xD65 DUP3 PUSH2 0xD46 JUMP JUMPDEST DUP5 DUP5 SLOAD PUSH2 0xCC8 JUMP JUMPDEST DUP3 SSTORE POP POP POP POP JUMP JUMPDEST PUSH1 0x0 SWAP1 JUMP JUMPDEST PUSH2 0xD82 PUSH2 0xD75 JUMP JUMPDEST PUSH2 0xD8D DUP2 DUP5 DUP5 PUSH2 0xD50 JUMP JUMPDEST POP POP POP JUMP JUMPDEST JUMPDEST DUP2 DUP2 LT ISZERO PUSH2 0xDB1 JUMPI PUSH2 0xDA6 PUSH1 0x0 DUP3 PUSH2 0xD7A JUMP JUMPDEST PUSH1 0x1 DUP2 ADD SWAP1 POP PUSH2 0xD93 JUMP JUMPDEST POP POP JUMP JUMPDEST PUSH1 0x1F DUP3 GT ISZERO PUSH2 0xDF6 JUMPI PUSH2 0xDC7 DUP2 PUSH2 0xC96 JUMP JUMPDEST PUSH2 0xDD0 DUP5 PUSH2 0xCAB JUMP JUMPDEST DUP2 ADD PUSH1 0x20 DUP6 LT ISZERO PUSH2 0xDDF JUMPI DUP2 SWAP1 POP JUMPDEST PUSH2 0xDF3 PUSH2 0xDEB DUP6 PUSH2 0xCAB JUMP JUMPDEST DUP4 ADD DUP3 PUSH2 0xD92 JUMP JUMPDEST POP POP JUMPDEST POP POP POP JUMP JUMPDEST PUSH1 0x0 DUP3 DUP3 SHR SWAP1 POP SWAP3 SWAP2 POP POP JUMP JUMPDEST PUSH1 0x0 PUSH2 0xE19 PUSH1 0x0 NOT DUP5 PUSH1 0x8 MUL PUSH2 0xDFB JUMP JUMPDEST NOT DUP1 DUP4 AND SWAP2 POP POP SWAP3 SWAP2 POP POP JUMP JUMPDEST PUSH1 0x0 PUSH2 0xE32 DUP4 DUP4 PUSH2 0xE08 JUMP JUMPDEST SWAP2 POP DUP3 PUSH1 0x2 MUL DUP3 OR SWAP1 POP SWAP3 SWAP2 POP POP JUMP JUMPDEST PUSH2 0xE4B DUP3 PUSH2 0x877 JUMP JUMPDEST PUSH8 0xFFFFFFFFFFFFFFFF DUP2 GT ISZERO PUSH2 0xE64 JUMPI PUSH2 0xE63 PUSH2 0xC67 JUMP JUMPDEST JUMPDEST PUSH2 0xE6E DUP3 SLOAD PUSH2 0x9CD JUMP JUMPDEST PUSH2 0xE79 DUP3 DUP3 DUP6 PUSH2 0xDB5 JUMP JUMPDEST PUSH1 0x0 PUSH1 0x20 SWAP1 POP PUSH1 0x1F DUP4 GT PUSH1 0x1 DUP2 EQ PUSH2 0xEAC JUMPI PUSH1 0x0 DUP5 ISZERO PUSH2 0xE9A JUMPI DUP3 DUP8 ADD MLOAD SWAP1 POP JUMPDEST PUSH2 0xEA4 DUP6 DUP3 PUSH2 0xE26 JUMP JUMPDEST DUP7 SSTORE POP PUSH2 0xF0C JUMP JUMPDEST PUSH1 0x1F NOT DUP5 AND PUSH2 0xEBA DUP7 PUSH2 0xC96 JUMP JUMPDEST PUSH1 0x0 JUMPDEST DUP3 DUP2 LT ISZERO PUSH2 0xEE2 JUMPI DUP5 DUP10 ADD MLOAD DUP3 SSTORE PUSH1 0x1 DUP3 ADD SWAP2 POP PUSH1 0x20 DUP6 ADD SWAP5 POP PUSH1 0x20 DUP2 ADD SWAP1 POP PUSH2 0xEBD JUMP JUMPDEST DUP7 DUP4 LT ISZERO PUSH2 0xEFF JUMPI DUP5 DUP10 ADD MLOAD PUSH2 0xEFB PUSH1 0x1F DUP10 AND DUP3 PUSH2 0xE08 JUMP JUMPDEST DUP4 SSTORE POP JUMPDEST PUSH1 0x1 PUSH1 0x2 DUP9 MUL ADD DUP9 SSTORE POP POP POP JUMPDEST POP POP POP POP POP POP JUMP INVALID LOG2 PUSH5 0x6970667358 0x22 SLT KECCAK256 PUSH6 0xB94D3F3C7BEF SWAP3 0xE6 0xFB RETURN PUSH18 0xD3D4E3079577EE2700C9005FA0656AFEB94A 0xE8 0xB6 PUSH5 0x736F6C6343 STOP ADDMOD 0xF STOP CALLER "
				},
				"gasEstimates": {
					"creation": {
						"codeDepositCost": "782800",
						"executionCost": "infinite",
						"totalCost": "infinite"
					},
					"external": {
						"TotalAmount()": "2474",
						"TotalFunds()": "2452",
						"amount()": "2473",
						"callCount()": "2540",
						"cardNumber()": "infinite",
						"countTransfer()": "2496",
						"cvv()": "infinite",
						"firstTransferTime()": "2452",
						"message()": "infinite",
						"receiverFunds()": "2495",
						"sendMoney(uint256,address)": "infinite",
						"setFirstTransfer(uint256)": "22565",
						"totalWeekTransactions()": "2451"
					}
				},
				"methodIdentifiers": {
					"TotalAmount()": "7eb9f571",
					"TotalFunds()": "7b9a3f4c",
					"amount()": "aa8c217c",
					"callCount()": "4b28f9a2",
					"cardNumber()": "8fa11864",
					"countTransfer()": "34f5ccde",
					"cvv()": "42fb7936",
					"firstTransferTime()": "0e85fa72",
					"message()": "e21f37ce",
					"receiverFunds()": "bc309496",
					"sendMoney(uint256,address)": "062a7544",
					"setFirstTransfer(uint256)": "2623dc83",
					"totalWeekTransactions()": "94b5dcaa"
				}
			},
			"storageLayout": {
				"storage": [
					{
						"astId": 3,
						"contract": "Dapp/MoneyTransfer.sol:MoneyTransfer",
						"label": "amount",
						"offset": 0,
						"slot": "0",
						"type": "t_uint256"
					},
					{
						"astId": 5,
						"contract": "Dapp/MoneyTransfer.sol:MoneyTransfer",
						"label": "TotalFunds",
						"offset": 0,
						"slot": "1",
						"type": "t_uint256"
					},
					{
						"astId": 7,
						"contract": "Dapp/MoneyTransfer.sol:MoneyTransfer",
						"label": "receiver",
						"offset": 0,
						"slot": "2",
						"type": "t_address"
					},
					{
						"astId": 13,
						"contract": "Dapp/MoneyTransfer.sol:MoneyTransfer",
						"label": "day",
						"offset": 0,
						"slot": "3",
						"type": "t_uint256"
					},
					{
						"astId": 15,
						"contract": "Dapp/MoneyTransfer.sol:MoneyTransfer",
						"label": "totalWeekTransactions",
						"offset": 0,
						"slot": "4",
						"type": "t_uint256"
					},
					{
						"astId": 17,
						"contract": "Dapp/MoneyTransfer.sol:MoneyTransfer",
						"label": "maxTransaction",
						"offset": 0,
						"slot": "5",
						"type": "t_uint256"
					},
					{
						"astId": 19,
						"contract": "Dapp/MoneyTransfer.sol:MoneyTransfer",
						"label": "minTransaction",
						"offset": 0,
						"slot": "6",
						"type": "t_uint256"
					},
					{
						"astId": 22,
						"contract": "Dapp/MoneyTransfer.sol:MoneyTransfer",
						"label": "countries",
						"offset": 0,
						"slot": "7",
						"type": "t_array(t_uint256)dyn_storage"
					},
					{
						"astId": 24,
						"contract": "Dapp/MoneyTransfer.sol:MoneyTransfer",
						"label": "receiverFunds",
						"offset": 0,
						"slot": "8",
						"type": "t_uint256"
					},
					{
						"astId": 26,
						"contract": "Dapp/MoneyTransfer.sol:MoneyTransfer",
						"label": "message",
						"offset": 0,
						"slot": "9",
						"type": "t_string_storage"
					},
					{
						"astId": 28,
						"contract": "Dapp/MoneyTransfer.sol:MoneyTransfer",
						"label": "cardNumber",
						"offset": 0,
						"slot": "10",
						"type": "t_string_storage"
					},
					{
						"astId": 30,
						"contract": "Dapp/MoneyTransfer.sol:MoneyTransfer",
						"label": "cvv",
						"offset": 0,
						"slot": "11",
						"type": "t_string_storage"
					},
					{
						"astId": 32,
						"contract": "Dapp/MoneyTransfer.sol:MoneyTransfer",
						"label": "TotalAmount",
						"offset": 0,
						"slot": "12",
						"type": "t_uint256"
					},
					{
						"astId": 34,
						"contract": "Dapp/MoneyTransfer.sol:MoneyTransfer",
						"label": "firstTransferTime",
						"offset": 0,
						"slot": "13",
						"type": "t_uint256"
					},
					{
						"astId": 36,
						"contract": "Dapp/MoneyTransfer.sol:MoneyTransfer",
						"label": "countTransfer",
						"offset": 0,
						"slot": "14",
						"type": "t_uint256"
					},
					{
						"astId": 61,
						"contract": "Dapp/MoneyTransfer.sol:MoneyTransfer",
						"label": "callCount",
						"offset": 0,
						"slot": "15",
						"type": "t_uint256"
					}
				],
				"types": {
					"t_address": {
						"encoding": "inplace",
						"label": "address",
						"numberOfBytes": "20"
					},
					"t_array(t_uint256)dyn_storage": {
						"base": "t_uint256",
						"encoding": "dynamic_array",
						"label": "uint256[]",
						"numberOfBytes": "32"
					},
					"t_string_storage": {
						"encoding": "bytes",
						"label": "string",
						"numberOfBytes": "32"
					},
					"t_uint256": {
						"encoding": "inplace",
						"label": "uint256",
						"numberOfBytes": "32"
					}
				}
			},
			"userdoc": {
				"kind": "user",
				"methods": {},
				"version": 1
			}
		}
	}
}