{
	"Dapp/MoneyTransfer.sol": {
		"MoneyTransfer": {
			"abi": [
				{
					"inputs": [
						{
							"internalType": "uint256",
							"name": "_totalFunds",
							"type": "uint256"
						}
					],
					"stateMutability": "nonpayable",
					"type": "constructor"
				},
				{
					"inputs": [],
					"name": "TotalAmount",
					"outputs": [
						{
							"internalType": "uint256",
							"name": "",
							"type": "uint256"
						}
					],
					"stateMutability": "view",
					"type": "function"
				},
				{
					"inputs": [],
					"name": "TotalFunds",
					"outputs": [
						{
							"internalType": "uint256",
							"name": "",
							"type": "uint256"
						}
					],
					"stateMutability": "view",
					"type": "function"
				},
				{
					"inputs": [],
					"name": "callCount",
					"outputs": [
						{
							"internalType": "uint256",
							"name": "",
							"type": "uint256"
						}
					],
					"stateMutability": "view",
					"type": "function"
				},
				{
					"inputs": [],
					"name": "callPutCard",
					"outputs": [
						{
							"internalType": "bool",
							"name": "",
							"type": "bool"
						}
					],
					"stateMutability": "view",
					"type": "function"
				},
				{
					"inputs": [],
					"name": "cardNumber",
					"outputs": [
						{
							"internalType": "string",
							"name": "",
							"type": "string"
						}
					],
					"stateMutability": "view",
					"type": "function"
				},
				{
					"inputs": [],
					"name": "cvv",
					"outputs": [
						{
							"internalType": "string",
							"name": "",
							"type": "string"
						}
					],
					"stateMutability": "view",
					"type": "function"
				},
				{
					"inputs": [],
					"name": "firstTransferTime",
					"outputs": [
						{
							"internalType": "uint256",
							"name": "",
							"type": "uint256"
						}
					],
					"stateMutability": "view",
					"type": "function"
				},
				{
					"inputs": [],
					"name": "getOutCard",
					"outputs": [],
					"stateMutability": "nonpayable",
					"type": "function"
				},
				{
					"inputs": [],
					"name": "getTime",
					"outputs": [
						{
							"internalType": "uint256",
							"name": "",
							"type": "uint256"
						}
					],
					"stateMutability": "view",
					"type": "function"
				},
				{
					"inputs": [
						{
							"internalType": "address",
							"name": "",
							"type": "address"
						},
						{
							"internalType": "uint256",
							"name": "",
							"type": "uint256"
						}
					],
					"name": "mainMap",
					"outputs": [
						{
							"internalType": "uint256",
							"name": "amount",
							"type": "uint256"
						},
						{
							"internalType": "uint256",
							"name": "timestamp",
							"type": "uint256"
						}
					],
					"stateMutability": "view",
					"type": "function"
				},
				{
					"inputs": [],
					"name": "message",
					"outputs": [
						{
							"internalType": "string",
							"name": "",
							"type": "string"
						}
					],
					"stateMutability": "view",
					"type": "function"
				},
				{
					"inputs": [
						{
							"internalType": "uint256",
							"name": "_amount",
							"type": "uint256"
						},
						{
							"internalType": "address",
							"name": "_receiver",
							"type": "address"
						},
						{
							"internalType": "uint256",
							"name": "_timestamp",
							"type": "uint256"
						}
					],
					"name": "sendMoney",
					"outputs": [],
					"stateMutability": "nonpayable",
					"type": "function"
				},
				{
					"inputs": [
						{
							"internalType": "string",
							"name": "_cardNumber",
							"type": "string"
						},
						{
							"internalType": "string",
							"name": "_cvv",
							"type": "string"
						}
					],
					"name": "setCard",
					"outputs": [],
					"stateMutability": "nonpayable",
					"type": "function"
				}
			],
			"devdoc": {
				"kind": "dev",
				"methods": {},
				"version": 1
			},
			"evm": {
				"assembly": "    /* \"Dapp/MoneyTransfer.sol\":71:4593  contract  MoneyTransfer {... */\n  mstore(0x40, 0x80)\n    /* \"Dapp/MoneyTransfer.sol\":909:910  0 */\n  0x00\n    /* \"Dapp/MoneyTransfer.sol\":885:910  uint public callCount = 0 */\n  0x08\n  sstore\n    /* \"Dapp/MoneyTransfer.sol\":944:949  false */\n  0x00\n    /* \"Dapp/MoneyTransfer.sol\":918:949  bool public callPutCard = false */\n  0x09\n  exp(0x0100, 0x00)\n  dup2\n  sload\n  dup2\n  0xff\n  mul\n  not\n  and\n  swap1\n  dup4\n  iszero\n  iszero\n  mul\n  or\n  swap1\n  sstore\n  pop\n    /* \"Dapp/MoneyTransfer.sol\":734:873  constructor (uint256 _totalFunds) {... */\n  callvalue\n  dup1\n  iszero\n  tag_1\n  jumpi\n  0x00\n  dup1\n  revert\ntag_1:\n  pop\n  mload(0x40)\n  sub(codesize, bytecodeSize)\n  dup1\n  bytecodeSize\n  dup4\n  codecopy\n  dup2\n  dup2\n  add\n  0x40\n  mstore\n  dup2\n  add\n  swap1\n  tag_2\n  swap2\n  swap1\n  tag_3\n  jump\t// in\ntag_2:\n    /* \"Dapp/MoneyTransfer.sol\":854:865  _totalFunds */\n  dup1\n    /* \"Dapp/MoneyTransfer.sol\":841:851  TotalFunds */\n  0x01\n    /* \"Dapp/MoneyTransfer.sol\":841:865  TotalFunds = _totalFunds */\n  dup2\n  swap1\n  sstore\n  pop\n    /* \"Dapp/MoneyTransfer.sol\":734:873  constructor (uint256 _totalFunds) {... */\n  pop\n    /* \"Dapp/MoneyTransfer.sol\":71:4593  contract  MoneyTransfer {... */\n  jump(tag_6)\n    /* \"#utility.yul\":88:205   */\ntag_8:\n    /* \"#utility.yul\":197:198   */\n  0x00\n    /* \"#utility.yul\":194:195   */\n  dup1\n    /* \"#utility.yul\":187:199   */\n  revert\n    /* \"#utility.yul\":334:411   */\ntag_10:\n    /* \"#utility.yul\":371:378   */\n  0x00\n    /* \"#utility.yul\":400:405   */\n  dup2\n    /* \"#utility.yul\":389:405   */\n  swap1\n  pop\n    /* \"#utility.yul\":334:411   */\n  swap2\n  swap1\n  pop\n  jump\t// out\n    /* \"#utility.yul\":417:539   */\ntag_11:\n    /* \"#utility.yul\":490:514   */\n  tag_19\n    /* \"#utility.yul\":508:513   */\n  dup2\n    /* \"#utility.yul\":490:514   */\n  tag_10\n  jump\t// in\ntag_19:\n    /* \"#utility.yul\":483:488   */\n  dup2\n    /* \"#utility.yul\":480:515   */\n  eq\n    /* \"#utility.yul\":470:533   */\n  tag_20\n  jumpi\n    /* \"#utility.yul\":529:530   */\n  0x00\n    /* \"#utility.yul\":526:527   */\n  dup1\n    /* \"#utility.yul\":519:531   */\n  revert\n    /* \"#utility.yul\":470:533   */\ntag_20:\n    /* \"#utility.yul\":417:539   */\n  pop\n  jump\t// out\n    /* \"#utility.yul\":545:688   */\ntag_12:\n    /* \"#utility.yul\":602:607   */\n  0x00\n    /* \"#utility.yul\":633:639   */\n  dup2\n    /* \"#utility.yul\":627:640   */\n  mload\n    /* \"#utility.yul\":618:640   */\n  swap1\n  pop\n    /* \"#utility.yul\":649:682   */\n  tag_22\n    /* \"#utility.yul\":676:681   */\n  dup2\n    /* \"#utility.yul\":649:682   */\n  tag_11\n  jump\t// in\ntag_22:\n    /* \"#utility.yul\":545:688   */\n  swap3\n  swap2\n  pop\n  pop\n  jump\t// out\n    /* \"#utility.yul\":694:1045   */\ntag_3:\n    /* \"#utility.yul\":764:770   */\n  0x00\n    /* \"#utility.yul\":813:815   */\n  0x20\n    /* \"#utility.yul\":801:810   */\n  dup3\n    /* \"#utility.yul\":792:799   */\n  dup5\n    /* \"#utility.yul\":788:811   */\n  sub\n    /* \"#utility.yul\":784:816   */\n  slt\n    /* \"#utility.yul\":781:900   */\n  iszero\n  tag_24\n  jumpi\n    /* \"#utility.yul\":819:898   */\n  tag_25\n  tag_8\n  jump\t// in\ntag_25:\n    /* \"#utility.yul\":781:900   */\ntag_24:\n    /* \"#utility.yul\":939:940   */\n  0x00\n    /* \"#utility.yul\":964:1028   */\n  tag_26\n    /* \"#utility.yul\":1020:1027   */\n  dup5\n    /* \"#utility.yul\":1011:1017   */\n  dup3\n    /* \"#utility.yul\":1000:1009   */\n  dup6\n    /* \"#utility.yul\":996:1018   */\n  add\n    /* \"#utility.yul\":964:1028   */\n  tag_12\n  jump\t// in\ntag_26:\n    /* \"#utility.yul\":954:1028   */\n  swap2\n  pop\n    /* \"#utility.yul\":910:1038   */\n  pop\n    /* \"#utility.yul\":694:1045   */\n  swap3\n  swap2\n  pop\n  pop\n  jump\t// out\n    /* \"Dapp/MoneyTransfer.sol\":71:4593  contract  MoneyTransfer {... */\ntag_6:\n  dataSize(sub_0)\n  dup1\n  dataOffset(sub_0)\n  0x00\n  codecopy\n  0x00\n  return\nstop\n\nsub_0: assembly {\n        /* \"Dapp/MoneyTransfer.sol\":71:4593  contract  MoneyTransfer {... */\n      mstore(0x40, 0x80)\n      callvalue\n      dup1\n      iszero\n      tag_1\n      jumpi\n      0x00\n      dup1\n      revert\n    tag_1:\n      pop\n      jumpi(tag_2, lt(calldatasize, 0x04))\n      shr(0xe0, calldataload(0x00))\n      dup1\n      0x4b28f9a2\n      gt\n      tag_16\n      jumpi\n      dup1\n      0x7eb9f571\n      gt\n      tag_17\n      jumpi\n      dup1\n      0x7eb9f571\n      eq\n      tag_12\n      jumpi\n      dup1\n      0x8e029c0b\n      eq\n      tag_13\n      jumpi\n      dup1\n      0x8fa11864\n      eq\n      tag_14\n      jumpi\n      dup1\n      0xe21f37ce\n      eq\n      tag_15\n      jumpi\n      jump(tag_2)\n    tag_17:\n      dup1\n      0x4b28f9a2\n      eq\n      tag_9\n      jumpi\n      dup1\n      0x557ed1ba\n      eq\n      tag_10\n      jumpi\n      dup1\n      0x7b9a3f4c\n      eq\n      tag_11\n      jumpi\n      jump(tag_2)\n    tag_16:\n      dup1\n      0x05d8eb96\n      eq\n      tag_3\n      jumpi\n      dup1\n      0x0e85fa72\n      eq\n      tag_4\n      jumpi\n      dup1\n      0x12a029a4\n      eq\n      tag_5\n      jumpi\n      dup1\n      0x1861929b\n      eq\n      tag_6\n      jumpi\n      dup1\n      0x3c626f00\n      eq\n      tag_7\n      jumpi\n      dup1\n      0x42fb7936\n      eq\n      tag_8\n      jumpi\n    tag_2:\n      0x00\n      dup1\n      revert\n        /* \"Dapp/MoneyTransfer.sol\":959:2116  function sendMoney( uint _amount, address _receiver, uint _timestamp) public m_validAddress(_receiver) m_ifCardExists m_transferLimit{... */\n    tag_3:\n      tag_18\n      0x04\n      dup1\n      calldatasize\n      sub\n      dup2\n      add\n      swap1\n      tag_19\n      swap2\n      swap1\n      tag_20\n      jump\t// in\n    tag_19:\n      tag_21\n      jump\t// in\n    tag_18:\n      stop\n        /* \"Dapp/MoneyTransfer.sol\":657:686  uint public firstTransferTime */\n    tag_4:\n      tag_22\n      tag_23\n      jump\t// in\n    tag_22:\n      mload(0x40)\n      tag_24\n      swap2\n      swap1\n      tag_25\n      jump\t// in\n    tag_24:\n      mload(0x40)\n      dup1\n      swap2\n      sub\n      swap1\n      return\n        /* \"Dapp/MoneyTransfer.sol\":2124:2389  function setCard(string memory _cardNumber, string memory _cvv) public  m_checkCard {... */\n    tag_5:\n      tag_26\n      0x04\n      dup1\n      calldatasize\n      sub\n      dup2\n      add\n      swap1\n      tag_27\n      swap2\n      swap1\n      tag_28\n      jump\t// in\n    tag_27:\n      tag_29\n      jump\t// in\n    tag_26:\n      stop\n        /* \"Dapp/MoneyTransfer.sol\":191:236  mapping (address => Payment[]) public mainMap */\n    tag_6:\n      tag_30\n      0x04\n      dup1\n      calldatasize\n      sub\n      dup2\n      add\n      swap1\n      tag_31\n      swap2\n      swap1\n      tag_32\n      jump\t// in\n    tag_31:\n      tag_33\n      jump\t// in\n    tag_30:\n      mload(0x40)\n      tag_34\n      swap3\n      swap2\n      swap1\n      tag_35\n      jump\t// in\n    tag_34:\n      mload(0x40)\n      dup1\n      swap2\n      sub\n      swap1\n      return\n        /* \"Dapp/MoneyTransfer.sol\":918:949  bool public callPutCard = false */\n    tag_7:\n      tag_36\n      tag_37\n      jump\t// in\n    tag_36:\n      mload(0x40)\n      tag_38\n      swap2\n      swap1\n      tag_39\n      jump\t// in\n    tag_38:\n      mload(0x40)\n      dup1\n      swap2\n      sub\n      swap1\n      return\n        /* \"Dapp/MoneyTransfer.sol\":599:616  string public cvv */\n    tag_8:\n      tag_40\n      tag_41\n      jump\t// in\n    tag_40:\n      mload(0x40)\n      tag_42\n      swap2\n      swap1\n      tag_43\n      jump\t// in\n    tag_42:\n      mload(0x40)\n      dup1\n      swap2\n      sub\n      swap1\n      return\n        /* \"Dapp/MoneyTransfer.sol\":885:910  uint public callCount = 0 */\n    tag_9:\n      tag_44\n      tag_45\n      jump\t// in\n    tag_44:\n      mload(0x40)\n      tag_46\n      swap2\n      swap1\n      tag_25\n      jump\t// in\n    tag_46:\n      mload(0x40)\n      dup1\n      swap2\n      sub\n      swap1\n      return\n        /* \"Dapp/MoneyTransfer.sol\":4496:4582  function getTime()public view returns(uint ){... */\n    tag_10:\n      tag_47\n      tag_48\n      jump\t// in\n    tag_47:\n      mload(0x40)\n      tag_49\n      swap2\n      swap1\n      tag_25\n      jump\t// in\n    tag_49:\n      mload(0x40)\n      dup1\n      swap2\n      sub\n      swap1\n      return\n        /* \"Dapp/MoneyTransfer.sol\":249:274  uint256 public TotalFunds */\n    tag_11:\n      tag_50\n      tag_51\n      jump\t// in\n    tag_50:\n      mload(0x40)\n      tag_52\n      swap2\n      swap1\n      tag_25\n      jump\t// in\n    tag_52:\n      mload(0x40)\n      dup1\n      swap2\n      sub\n      swap1\n      return\n        /* \"Dapp/MoneyTransfer.sol\":623:649  uint256 public TotalAmount */\n    tag_12:\n      tag_53\n      tag_54\n      jump\t// in\n    tag_53:\n      mload(0x40)\n      tag_55\n      swap2\n      swap1\n      tag_25\n      jump\t// in\n    tag_55:\n      mload(0x40)\n      dup1\n      swap2\n      sub\n      swap1\n      return\n        /* \"Dapp/MoneyTransfer.sol\":2410:2479  function getOutCard() public  {... */\n    tag_13:\n      tag_56\n      tag_57\n      jump\t// in\n    tag_56:\n      stop\n        /* \"Dapp/MoneyTransfer.sol\":567:591  string public cardNumber */\n    tag_14:\n      tag_58\n      tag_59\n      jump\t// in\n    tag_58:\n      mload(0x40)\n      tag_60\n      swap2\n      swap1\n      tag_43\n      jump\t// in\n    tag_60:\n      mload(0x40)\n      dup1\n      swap2\n      sub\n      swap1\n      return\n        /* \"Dapp/MoneyTransfer.sol\":539:560  string public message */\n    tag_15:\n      tag_61\n      tag_62\n      jump\t// in\n    tag_61:\n      mload(0x40)\n      tag_63\n      swap2\n      swap1\n      tag_43\n      jump\t// in\n    tag_63:\n      mload(0x40)\n      dup1\n      swap2\n      sub\n      swap1\n      return\n        /* \"Dapp/MoneyTransfer.sol\":959:2116  function sendMoney( uint _amount, address _receiver, uint _timestamp) public m_validAddress(_receiver) m_ifCardExists m_transferLimit{... */\n    tag_21:\n        /* \"Dapp/MoneyTransfer.sol\":1051:1060  _receiver */\n      dup2\n        /* \"Dapp/MoneyTransfer.sol\":2560:2565  _addr */\n      dup1\n        /* \"Dapp/MoneyTransfer.sol\":2549:2557  receiver */\n      0x02\n      0x00\n        /* \"Dapp/MoneyTransfer.sol\":2549:2565  receiver = _addr */\n      0x0100\n      exp\n      dup2\n      sload\n      dup2\n      0xffffffffffffffffffffffffffffffffffffffff\n      mul\n      not\n      and\n      swap1\n      dup4\n      0xffffffffffffffffffffffffffffffffffffffff\n      and\n      mul\n      or\n      swap1\n      sstore\n      pop\n        /* \"Dapp/MoneyTransfer.sol\":2601:2602  0 */\n      0x00\n        /* \"Dapp/MoneyTransfer.sol\":2584:2603  _addr != address(0) */\n      0xffffffffffffffffffffffffffffffffffffffff\n      and\n        /* \"Dapp/MoneyTransfer.sol\":2584:2589  _addr */\n      dup2\n        /* \"Dapp/MoneyTransfer.sol\":2584:2603  _addr != address(0) */\n      0xffffffffffffffffffffffffffffffffffffffff\n      and\n      sub\n        /* \"Dapp/MoneyTransfer.sol\":2576:2636  require(_addr != address(0), \" This address doesn't exists\") */\n      tag_65\n      jumpi\n      mload(0x40)\n      0x08c379a000000000000000000000000000000000000000000000000000000000\n      dup2\n      mstore\n      0x04\n      add\n      tag_66\n      swap1\n      tag_67\n      jump\t// in\n    tag_66:\n      mload(0x40)\n      dup1\n      swap2\n      sub\n      swap1\n      revert\n    tag_65:\n        /* \"Dapp/MoneyTransfer.sol\":2735:2740  false */\n      0x00\n        /* \"Dapp/MoneyTransfer.sol\":2720:2740  callPutCard != false */\n      iszero\n      iszero\n        /* \"Dapp/MoneyTransfer.sol\":2720:2731  callPutCard */\n      0x09\n      0x00\n      swap1\n      sload\n      swap1\n      0x0100\n      exp\n      swap1\n      div\n      0xff\n      and\n        /* \"Dapp/MoneyTransfer.sol\":2720:2740  callPutCard != false */\n      iszero\n      iszero\n      sub\n        /* \"Dapp/MoneyTransfer.sol\":2712:2767  require(callPutCard != false,\"Please insert your card\") */\n      tag_69\n      jumpi\n      mload(0x40)\n      0x08c379a000000000000000000000000000000000000000000000000000000000\n      dup2\n      mstore\n      0x04\n      add\n      tag_70\n      swap1\n      tag_71\n      jump\t// in\n    tag_70:\n      mload(0x40)\n      dup1\n      swap2\n      sub\n      swap1\n      revert\n    tag_69:\n        /* \"Dapp/MoneyTransfer.sol\":4047:4048  5 */\n      0x05\n        /* \"Dapp/MoneyTransfer.sol\":4034:4043  callCount */\n      sload(0x08)\n        /* \"Dapp/MoneyTransfer.sol\":4034:4048  callCount >= 5 */\n      lt\n      iszero\n        /* \"Dapp/MoneyTransfer.sol\":4034:4103  callCount >= 5 && block.timestamp <= (firstTransferTime + 30 seconds) */\n      dup1\n      iszero\n      tag_73\n      jumpi\n      pop\n        /* \"Dapp/MoneyTransfer.sol\":4092:4102  30 seconds */\n      0x1e\n        /* \"Dapp/MoneyTransfer.sol\":4072:4089  firstTransferTime */\n      sload(0x07)\n        /* \"Dapp/MoneyTransfer.sol\":4072:4102  firstTransferTime + 30 seconds */\n      tag_74\n      swap2\n      swap1\n      tag_75\n      jump\t// in\n    tag_74:\n        /* \"Dapp/MoneyTransfer.sol\":4052:4067  block.timestamp */\n      timestamp\n        /* \"Dapp/MoneyTransfer.sol\":4052:4103  block.timestamp <= (firstTransferTime + 30 seconds) */\n      gt\n      iszero\n        /* \"Dapp/MoneyTransfer.sol\":4034:4103  callCount >= 5 && block.timestamp <= (firstTransferTime + 30 seconds) */\n    tag_73:\n        /* \"Dapp/MoneyTransfer.sol\":4031:4248  if(callCount >= 5 && block.timestamp <= (firstTransferTime + 30 seconds)){... */\n      iszero\n      tag_76\n      jumpi\n        /* \"Dapp/MoneyTransfer.sol\":4131:4132  0 */\n      0x00\n        /* \"Dapp/MoneyTransfer.sol\":4119:4128  callCount */\n      0x08\n        /* \"Dapp/MoneyTransfer.sol\":4119:4132  callCount = 0 */\n      dup2\n      swap1\n      sstore\n      pop\n        /* \"Dapp/MoneyTransfer.sol\":4167:4168  0 */\n      0x00\n        /* \"Dapp/MoneyTransfer.sol\":4154:4163  callCount */\n      sload(0x08)\n        /* \"Dapp/MoneyTransfer.sol\":4154:4168  callCount == 0 */\n      eq\n        /* \"Dapp/MoneyTransfer.sol\":4147:4169  assert(callCount == 0) */\n      tag_77\n      jumpi\n      tag_78\n      tag_79\n      jump\t// in\n    tag_78:\n    tag_77:\n        /* \"Dapp/MoneyTransfer.sol\":4184:4222  revert(\"only 5 transactions per day\" ) */\n      mload(0x40)\n      0x08c379a000000000000000000000000000000000000000000000000000000000\n      dup2\n      mstore\n      0x04\n      add\n      tag_80\n      swap1\n      tag_81\n      jump\t// in\n    tag_80:\n      mload(0x40)\n      dup1\n      swap2\n      sub\n      swap1\n      revert\n        /* \"Dapp/MoneyTransfer.sol\":4031:4248  if(callCount >= 5 && block.timestamp <= (firstTransferTime + 30 seconds)){... */\n    tag_76:\n        /* \"Dapp/MoneyTransfer.sol\":4276:4277  5 */\n      0x05\n        /* \"Dapp/MoneyTransfer.sol\":4263:4272  callCount */\n      sload(0x08)\n        /* \"Dapp/MoneyTransfer.sol\":4263:4277  callCount <= 5 */\n      gt\n      iszero\n        /* \"Dapp/MoneyTransfer.sol\":4263:4332  callCount <= 5 && block.timestamp >= (firstTransferTime + 30 seconds) */\n      dup1\n      iszero\n      tag_82\n      jumpi\n      pop\n        /* \"Dapp/MoneyTransfer.sol\":4321:4331  30 seconds */\n      0x1e\n        /* \"Dapp/MoneyTransfer.sol\":4301:4318  firstTransferTime */\n      sload(0x07)\n        /* \"Dapp/MoneyTransfer.sol\":4301:4331  firstTransferTime + 30 seconds */\n      tag_83\n      swap2\n      swap1\n      tag_75\n      jump\t// in\n    tag_83:\n        /* \"Dapp/MoneyTransfer.sol\":4281:4296  block.timestamp */\n      timestamp\n        /* \"Dapp/MoneyTransfer.sol\":4281:4332  block.timestamp >= (firstTransferTime + 30 seconds) */\n      lt\n      iszero\n        /* \"Dapp/MoneyTransfer.sol\":4263:4332  callCount <= 5 && block.timestamp >= (firstTransferTime + 30 seconds) */\n    tag_82:\n        /* \"Dapp/MoneyTransfer.sol\":4260:4461  if(callCount <= 5 && block.timestamp >= (firstTransferTime + 30 seconds)){... */\n      iszero\n      tag_84\n      jumpi\n        /* \"Dapp/MoneyTransfer.sol\":4360:4361  0 */\n      0x00\n        /* \"Dapp/MoneyTransfer.sol\":4348:4357  callCount */\n      0x08\n        /* \"Dapp/MoneyTransfer.sol\":4348:4361  callCount = 0 */\n      dup2\n      swap1\n      sstore\n      pop\n        /* \"Dapp/MoneyTransfer.sol\":4397:4398  0 */\n      0x00\n        /* \"Dapp/MoneyTransfer.sol\":4384:4393  callCount */\n      sload(0x08)\n        /* \"Dapp/MoneyTransfer.sol\":4384:4398  callCount == 0 */\n      eq\n        /* \"Dapp/MoneyTransfer.sol\":4377:4399  assert(callCount == 0) */\n      tag_85\n      jumpi\n      tag_86\n      tag_79\n      jump\t// in\n    tag_86:\n    tag_85:\n        /* \"Dapp/MoneyTransfer.sol\":4434:4449  block.timestamp */\n      timestamp\n        /* \"Dapp/MoneyTransfer.sol\":4414:4431  firstTransferTime */\n      0x07\n        /* \"Dapp/MoneyTransfer.sol\":4414:4449  firstTransferTime = block.timestamp */\n      dup2\n      swap1\n      sstore\n      pop\n        /* \"Dapp/MoneyTransfer.sol\":4260:4461  if(callCount <= 5 && block.timestamp >= (firstTransferTime + 30 seconds)){... */\n    tag_84:\n        /* \"Dapp/MoneyTransfer.sol\":1114:1123  _receiver */\n      dup3\n        /* \"Dapp/MoneyTransfer.sol\":1103:1111  receiver */\n      0x02\n      0x00\n        /* \"Dapp/MoneyTransfer.sol\":1103:1123  receiver = _receiver */\n      0x0100\n      exp\n      dup2\n      sload\n      dup2\n      0xffffffffffffffffffffffffffffffffffffffff\n      mul\n      not\n      and\n      swap1\n      dup4\n      0xffffffffffffffffffffffffffffffffffffffff\n      and\n      mul\n      or\n      swap1\n      sstore\n      pop\n        /* \"Dapp/MoneyTransfer.sol\":1278:1307  Payment memory paymentDetails */\n      0x00\n        /* \"Dapp/MoneyTransfer.sol\":1310:1337  Payment(_amount,_timestamp) */\n      mload(0x40)\n      dup1\n      0x40\n      add\n      0x40\n      mstore\n      dup1\n        /* \"Dapp/MoneyTransfer.sol\":1318:1325  _amount */\n      dup7\n        /* \"Dapp/MoneyTransfer.sol\":1310:1337  Payment(_amount,_timestamp) */\n      dup2\n      mstore\n      0x20\n      add\n        /* \"Dapp/MoneyTransfer.sol\":1326:1336  _timestamp */\n      dup5\n        /* \"Dapp/MoneyTransfer.sol\":1310:1337  Payment(_amount,_timestamp) */\n      dup2\n      mstore\n      pop\n        /* \"Dapp/MoneyTransfer.sol\":1278:1337  Payment memory paymentDetails = Payment(_amount,_timestamp) */\n      swap1\n      pop\n        /* \"Dapp/MoneyTransfer.sol\":1393:1394  1 */\n      0x01\n        /* \"Dapp/MoneyTransfer.sol\":1380:1389  callCount */\n      0x08\n      0x00\n        /* \"Dapp/MoneyTransfer.sol\":1380:1394  callCount += 1 */\n      dup3\n      dup3\n      sload\n      tag_88\n      swap2\n      swap1\n      tag_75\n      jump\t// in\n    tag_88:\n      swap3\n      pop\n      pop\n      dup2\n      swap1\n      sstore\n      pop\n        /* \"Dapp/MoneyTransfer.sol\":1450:1451  0 */\n      0x00\n        /* \"Dapp/MoneyTransfer.sol\":1437:1447  TotalFunds */\n      sload(0x01)\n        /* \"Dapp/MoneyTransfer.sol\":1437:1451  TotalFunds > 0 */\n      gt\n        /* \"Dapp/MoneyTransfer.sol\":1437:1489  TotalFunds > 0 && TotalFunds > paymentDetails.amount */\n      dup1\n      iszero\n      tag_89\n      jumpi\n      pop\n        /* \"Dapp/MoneyTransfer.sol\":1468:1482  paymentDetails */\n      dup1\n        /* \"Dapp/MoneyTransfer.sol\":1468:1489  paymentDetails.amount */\n      0x00\n      add\n      mload\n        /* \"Dapp/MoneyTransfer.sol\":1455:1465  TotalFunds */\n      sload(0x01)\n        /* \"Dapp/MoneyTransfer.sol\":1455:1489  TotalFunds > paymentDetails.amount */\n      gt\n        /* \"Dapp/MoneyTransfer.sol\":1437:1489  TotalFunds > 0 && TotalFunds > paymentDetails.amount */\n    tag_89:\n        /* \"Dapp/MoneyTransfer.sol\":1434:2074  if(TotalFunds > 0 && TotalFunds > paymentDetails.amount){... */\n      iszero\n      tag_90\n      jumpi\n        /* \"Dapp/MoneyTransfer.sol\":1515:1540  Payment[] storage payment */\n      0x00\n        /* \"Dapp/MoneyTransfer.sol\":1543:1550  mainMap */\n      dup1\n        /* \"Dapp/MoneyTransfer.sol\":1543:1562  mainMap[msg.sender] */\n      0x00\n        /* \"Dapp/MoneyTransfer.sol\":1551:1561  msg.sender */\n      caller\n        /* \"Dapp/MoneyTransfer.sol\":1543:1562  mainMap[msg.sender] */\n      0xffffffffffffffffffffffffffffffffffffffff\n      and\n      0xffffffffffffffffffffffffffffffffffffffff\n      and\n      dup2\n      mstore\n      0x20\n      add\n      swap1\n      dup2\n      mstore\n      0x20\n      add\n      0x00\n      keccak256\n        /* \"Dapp/MoneyTransfer.sol\":1515:1562  Payment[] storage payment = mainMap[msg.sender] */\n      swap1\n      pop\n        /* \"Dapp/MoneyTransfer.sol\":1586:1593  payment */\n      dup1\n        /* \"Dapp/MoneyTransfer.sol\":1599:1652  Payment({amount:_amount, timestamp: block.timestamp}) */\n      mload(0x40)\n      dup1\n      0x40\n      add\n      0x40\n      mstore\n      dup1\n        /* \"Dapp/MoneyTransfer.sol\":1615:1622  _amount */\n      dup9\n        /* \"Dapp/MoneyTransfer.sol\":1599:1652  Payment({amount:_amount, timestamp: block.timestamp}) */\n      dup2\n      mstore\n      0x20\n      add\n        /* \"Dapp/MoneyTransfer.sol\":1635:1650  block.timestamp */\n      timestamp\n        /* \"Dapp/MoneyTransfer.sol\":1599:1652  Payment({amount:_amount, timestamp: block.timestamp}) */\n      dup2\n      mstore\n      pop\n        /* \"Dapp/MoneyTransfer.sol\":1586:1653  payment.push(Payment({amount:_amount, timestamp: block.timestamp})) */\n      swap1\n      dup1\n      0x01\n      dup2\n      sload\n      add\n      dup1\n      dup3\n      sstore\n      dup1\n      swap2\n      pop\n      pop\n      0x01\n      swap1\n      sub\n      swap1\n      0x00\n      mstore\n      keccak256(0x00, 0x20)\n      swap1\n      0x02\n      mul\n      add\n      0x00\n      swap1\n      swap2\n      swap1\n      swap2\n      swap1\n      swap2\n      pop\n      0x00\n      dup3\n      add\n      mload\n      dup2\n      0x00\n      add\n      sstore\n      0x20\n      dup3\n      add\n      mload\n      dup2\n      0x01\n      add\n      sstore\n      pop\n      pop\n        /* \"Dapp/MoneyTransfer.sol\":1699:1706  payment */\n      dup1\n        /* \"Dapp/MoneyTransfer.sol\":1677:1684  mainMap */\n      0x00\n        /* \"Dapp/MoneyTransfer.sol\":1677:1696  mainMap[msg.sender] */\n      dup1\n        /* \"Dapp/MoneyTransfer.sol\":1685:1695  msg.sender */\n      caller\n        /* \"Dapp/MoneyTransfer.sol\":1677:1696  mainMap[msg.sender] */\n      0xffffffffffffffffffffffffffffffffffffffff\n      and\n      0xffffffffffffffffffffffffffffffffffffffff\n      and\n      dup2\n      mstore\n      0x20\n      add\n      swap1\n      dup2\n      mstore\n      0x20\n      add\n      0x00\n      keccak256\n        /* \"Dapp/MoneyTransfer.sol\":1677:1706  mainMap[msg.sender] = payment */\n      swap1\n      dup1\n      sload\n      tag_92\n      swap3\n      swap2\n      swap1\n      tag_93\n      jump\t// in\n    tag_92:\n      pop\n        /* \"Dapp/MoneyTransfer.sol\":1744:1758  paymentDetails */\n      dup2\n        /* \"Dapp/MoneyTransfer.sol\":1744:1765  paymentDetails.amount */\n      0x00\n      add\n      mload\n        /* \"Dapp/MoneyTransfer.sol\":1730:1740  TotalFunds */\n      0x01\n      0x00\n        /* \"Dapp/MoneyTransfer.sol\":1730:1765  TotalFunds -= paymentDetails.amount */\n      dup3\n      dup3\n      sload\n      tag_94\n      swap2\n      swap1\n      tag_95\n      jump\t// in\n    tag_94:\n      swap3\n      pop\n      pop\n      dup2\n      swap1\n      sstore\n      pop\n        /* \"Dapp/MoneyTransfer.sol\":1803:1817  paymentDetails */\n      dup2\n        /* \"Dapp/MoneyTransfer.sol\":1803:1824  paymentDetails.amount */\n      0x00\n      add\n      mload\n        /* \"Dapp/MoneyTransfer.sol\":1788:1799  TotalAmount */\n      0x06\n      0x00\n        /* \"Dapp/MoneyTransfer.sol\":1788:1824  TotalAmount += paymentDetails.amount */\n      dup3\n      dup3\n      sload\n      tag_96\n      swap2\n      swap1\n      tag_75\n      jump\t// in\n    tag_96:\n      swap3\n      pop\n      pop\n      dup2\n      swap1\n      sstore\n      pop\n        /* \"Dapp/MoneyTransfer.sol\":1869:1899  message = \"Transfer completed\" */\n      mload(0x40)\n      dup1\n      0x40\n      add\n      0x40\n      mstore\n      dup1\n      0x12\n      dup2\n      mstore\n      0x20\n      add\n      0x5472616e7366657220636f6d706c657465640000000000000000000000000000\n      dup2\n      mstore\n      pop\n        /* \"Dapp/MoneyTransfer.sol\":1869:1876  message */\n      0x03\n        /* \"Dapp/MoneyTransfer.sol\":1869:1899  message = \"Transfer completed\" */\n      swap1\n      dup2\n      tag_97\n      swap2\n      swap1\n      tag_98\n      jump\t// in\n    tag_97:\n      pop\n        /* \"Dapp/MoneyTransfer.sol\":1490:1980  {... */\n      pop\n        /* \"Dapp/MoneyTransfer.sol\":1434:2074  if(TotalFunds > 0 && TotalFunds > paymentDetails.amount){... */\n      jump(tag_99)\n    tag_90:\n        /* \"Dapp/MoneyTransfer.sol\":2027:2053  revert(\"Not enough funds\") */\n      mload(0x40)\n      0x08c379a000000000000000000000000000000000000000000000000000000000\n      dup2\n      mstore\n      0x04\n      add\n      tag_100\n      swap1\n      tag_101\n      jump\t// in\n    tag_100:\n      mload(0x40)\n      dup1\n      swap2\n      sub\n      swap1\n      revert\n        /* \"Dapp/MoneyTransfer.sol\":1434:2074  if(TotalFunds > 0 && TotalFunds > paymentDetails.amount){... */\n    tag_99:\n        /* \"Dapp/MoneyTransfer.sol\":1092:2116  {... */\n      pop\n        /* \"Dapp/MoneyTransfer.sol\":959:2116  function sendMoney( uint _amount, address _receiver, uint _timestamp) public m_validAddress(_receiver) m_ifCardExists m_transferLimit{... */\n      pop\n      pop\n      pop\n      pop\n      jump\t// out\n        /* \"Dapp/MoneyTransfer.sol\":657:686  uint public firstTransferTime */\n    tag_23:\n      sload(0x07)\n      dup2\n      jump\t// out\n        /* \"Dapp/MoneyTransfer.sol\":2124:2389  function setCard(string memory _cardNumber, string memory _cvv) public  m_checkCard {... */\n    tag_29:\n        /* \"Dapp/MoneyTransfer.sol\":2238:2249  _cardNumber */\n      dup2\n        /* \"Dapp/MoneyTransfer.sol\":2225:2235  cardNumber */\n      0x04\n        /* \"Dapp/MoneyTransfer.sol\":2225:2249  cardNumber = _cardNumber */\n      swap1\n      dup2\n      tag_104\n      swap2\n      swap1\n      tag_98\n      jump\t// in\n    tag_104:\n      pop\n        /* \"Dapp/MoneyTransfer.sol\":2270:2274  _cvv */\n      dup1\n        /* \"Dapp/MoneyTransfer.sol\":2264:2267  cvv */\n      0x05\n        /* \"Dapp/MoneyTransfer.sol\":2264:2274  cvv = _cvv */\n      swap1\n      dup2\n      tag_105\n      swap2\n      swap1\n      tag_98\n      jump\t// in\n    tag_105:\n      pop\n        /* \"Dapp/MoneyTransfer.sol\":2322:2326  true */\n      0x01\n        /* \"Dapp/MoneyTransfer.sol\":2308:2319  callPutCard */\n      0x09\n      0x00\n        /* \"Dapp/MoneyTransfer.sol\":2308:2326  callPutCard = true */\n      0x0100\n      exp\n      dup2\n      sload\n      dup2\n      0xff\n      mul\n      not\n      and\n      swap1\n      dup4\n      iszero\n      iszero\n      mul\n      or\n      swap1\n      sstore\n      pop\n        /* \"Dapp/MoneyTransfer.sol\":2364:2379  block.timestamp */\n      timestamp\n        /* \"Dapp/MoneyTransfer.sol\":2344:2361  firstTransferTime */\n      0x07\n        /* \"Dapp/MoneyTransfer.sol\":2344:2379  firstTransferTime = block.timestamp */\n      dup2\n      swap1\n      sstore\n      pop\n        /* \"Dapp/MoneyTransfer.sol\":2896:2897  8 */\n      0x08\n        /* \"Dapp/MoneyTransfer.sol\":2874:2884  cardNumber */\n      0x04\n        /* \"Dapp/MoneyTransfer.sol\":2868:2892  bytes(cardNumber).length */\n      dup1\n      sload\n      tag_106\n      swap1\n      tag_107\n      jump\t// in\n    tag_106:\n      swap1\n      pop\n        /* \"Dapp/MoneyTransfer.sol\":2868:2897  bytes(cardNumber).length == 8 */\n      eq\n        /* \"Dapp/MoneyTransfer.sol\":2868:2923  bytes(cardNumber).length == 8 && bytes(cvv).length == 3 */\n      dup1\n      iszero\n      tag_108\n      jumpi\n      pop\n        /* \"Dapp/MoneyTransfer.sol\":2922:2923  3 */\n      0x03\n        /* \"Dapp/MoneyTransfer.sol\":2907:2910  cvv */\n      0x05\n        /* \"Dapp/MoneyTransfer.sol\":2901:2918  bytes(cvv).length */\n      dup1\n      sload\n      tag_109\n      swap1\n      tag_107\n      jump\t// in\n    tag_109:\n      swap1\n      pop\n        /* \"Dapp/MoneyTransfer.sol\":2901:2923  bytes(cvv).length == 3 */\n      eq\n        /* \"Dapp/MoneyTransfer.sol\":2868:2923  bytes(cardNumber).length == 8 && bytes(cvv).length == 3 */\n    tag_108:\n        /* \"Dapp/MoneyTransfer.sol\":2860:2948  require(bytes(cardNumber).length == 8 && bytes(cvv).length == 3, \"No valid credit card\") */\n      tag_110\n      jumpi\n      mload(0x40)\n      0x08c379a000000000000000000000000000000000000000000000000000000000\n      dup2\n      mstore\n      0x04\n      add\n      tag_111\n      swap1\n      tag_112\n      jump\t// in\n    tag_111:\n      mload(0x40)\n      dup1\n      swap2\n      sub\n      swap1\n      revert\n    tag_110:\n        /* \"Dapp/MoneyTransfer.sol\":2124:2389  function setCard(string memory _cardNumber, string memory _cvv) public  m_checkCard {... */\n      pop\n      pop\n      jump\t// out\n        /* \"Dapp/MoneyTransfer.sol\":191:236  mapping (address => Payment[]) public mainMap */\n    tag_33:\n      mstore(0x20, 0x00)\n      dup2\n      0x00\n      mstore\n      keccak256(0x00, 0x40)\n      dup2\n      dup2\n      sload\n      dup2\n      lt\n      tag_113\n      jumpi\n      0x00\n      dup1\n      revert\n    tag_113:\n      swap1\n      0x00\n      mstore\n      keccak256(0x00, 0x20)\n      swap1\n      0x02\n      mul\n      add\n      0x00\n      swap2\n      pop\n      swap2\n      pop\n      pop\n      dup1\n      0x00\n      add\n      sload\n      swap1\n      dup1\n      0x01\n      add\n      sload\n      swap1\n      pop\n      dup3\n      jump\t// out\n        /* \"Dapp/MoneyTransfer.sol\":918:949  bool public callPutCard = false */\n    tag_37:\n      0x09\n      0x00\n      swap1\n      sload\n      swap1\n      0x0100\n      exp\n      swap1\n      div\n      0xff\n      and\n      dup2\n      jump\t// out\n        /* \"Dapp/MoneyTransfer.sol\":599:616  string public cvv */\n    tag_41:\n      0x05\n      dup1\n      sload\n      tag_115\n      swap1\n      tag_107\n      jump\t// in\n    tag_115:\n      dup1\n      0x1f\n      add\n      0x20\n      dup1\n      swap2\n      div\n      mul\n      0x20\n      add\n      mload(0x40)\n      swap1\n      dup2\n      add\n      0x40\n      mstore\n      dup1\n      swap3\n      swap2\n      swap1\n      dup2\n      dup2\n      mstore\n      0x20\n      add\n      dup3\n      dup1\n      sload\n      tag_116\n      swap1\n      tag_107\n      jump\t// in\n    tag_116:\n      dup1\n      iszero\n      tag_117\n      jumpi\n      dup1\n      0x1f\n      lt\n      tag_118\n      jumpi\n      0x0100\n      dup1\n      dup4\n      sload\n      div\n      mul\n      dup4\n      mstore\n      swap2\n      0x20\n      add\n      swap2\n      jump(tag_117)\n    tag_118:\n      dup3\n      add\n      swap2\n      swap1\n      0x00\n      mstore\n      keccak256(0x00, 0x20)\n      swap1\n    tag_119:\n      dup2\n      sload\n      dup2\n      mstore\n      swap1\n      0x01\n      add\n      swap1\n      0x20\n      add\n      dup1\n      dup4\n      gt\n      tag_119\n      jumpi\n      dup3\n      swap1\n      sub\n      0x1f\n      and\n      dup3\n      add\n      swap2\n    tag_117:\n      pop\n      pop\n      pop\n      pop\n      pop\n      dup2\n      jump\t// out\n        /* \"Dapp/MoneyTransfer.sol\":885:910  uint public callCount = 0 */\n    tag_45:\n      sload(0x08)\n      dup2\n      jump\t// out\n        /* \"Dapp/MoneyTransfer.sol\":4496:4582  function getTime()public view returns(uint ){... */\n    tag_48:\n        /* \"Dapp/MoneyTransfer.sol\":4534:4538  uint */\n      0x00\n        /* \"Dapp/MoneyTransfer.sol\":4559:4574  block.timestamp */\n      timestamp\n        /* \"Dapp/MoneyTransfer.sol\":4551:4574  return  block.timestamp */\n      swap1\n      pop\n        /* \"Dapp/MoneyTransfer.sol\":4496:4582  function getTime()public view returns(uint ){... */\n      swap1\n      jump\t// out\n        /* \"Dapp/MoneyTransfer.sol\":249:274  uint256 public TotalFunds */\n    tag_51:\n      sload(0x01)\n      dup2\n      jump\t// out\n        /* \"Dapp/MoneyTransfer.sol\":623:649  uint256 public TotalAmount */\n    tag_54:\n      sload(0x06)\n      dup2\n      jump\t// out\n        /* \"Dapp/MoneyTransfer.sol\":2410:2479  function getOutCard() public  {... */\n    tag_57:\n        /* \"Dapp/MoneyTransfer.sol\":2464:2469  false */\n      0x00\n        /* \"Dapp/MoneyTransfer.sol\":2450:2461  callPutCard */\n      0x09\n      0x00\n        /* \"Dapp/MoneyTransfer.sol\":2450:2469  callPutCard = false */\n      0x0100\n      exp\n      dup2\n      sload\n      dup2\n      0xff\n      mul\n      not\n      and\n      swap1\n      dup4\n      iszero\n      iszero\n      mul\n      or\n      swap1\n      sstore\n      pop\n        /* \"Dapp/MoneyTransfer.sol\":2410:2479  function getOutCard() public  {... */\n      jump\t// out\n        /* \"Dapp/MoneyTransfer.sol\":567:591  string public cardNumber */\n    tag_59:\n      0x04\n      dup1\n      sload\n      tag_122\n      swap1\n      tag_107\n      jump\t// in\n    tag_122:\n      dup1\n      0x1f\n      add\n      0x20\n      dup1\n      swap2\n      div\n      mul\n      0x20\n      add\n      mload(0x40)\n      swap1\n      dup2\n      add\n      0x40\n      mstore\n      dup1\n      swap3\n      swap2\n      swap1\n      dup2\n      dup2\n      mstore\n      0x20\n      add\n      dup3\n      dup1\n      sload\n      tag_123\n      swap1\n      tag_107\n      jump\t// in\n    tag_123:\n      dup1\n      iszero\n      tag_124\n      jumpi\n      dup1\n      0x1f\n      lt\n      tag_125\n      jumpi\n      0x0100\n      dup1\n      dup4\n      sload\n      div\n      mul\n      dup4\n      mstore\n      swap2\n      0x20\n      add\n      swap2\n      jump(tag_124)\n    tag_125:\n      dup3\n      add\n      swap2\n      swap1\n      0x00\n      mstore\n      keccak256(0x00, 0x20)\n      swap1\n    tag_126:\n      dup2\n      sload\n      dup2\n      mstore\n      swap1\n      0x01\n      add\n      swap1\n      0x20\n      add\n      dup1\n      dup4\n      gt\n      tag_126\n      jumpi\n      dup3\n      swap1\n      sub\n      0x1f\n      and\n      dup3\n      add\n      swap2\n    tag_124:\n      pop\n      pop\n      pop\n      pop\n      pop\n      dup2\n      jump\t// out\n        /* \"Dapp/MoneyTransfer.sol\":539:560  string public message */\n    tag_62:\n      0x03\n      dup1\n      sload\n      tag_127\n      swap1\n      tag_107\n      jump\t// in\n    tag_127:\n      dup1\n      0x1f\n      add\n      0x20\n      dup1\n      swap2\n      div\n      mul\n      0x20\n      add\n      mload(0x40)\n      swap1\n      dup2\n      add\n      0x40\n      mstore\n      dup1\n      swap3\n      swap2\n      swap1\n      dup2\n      dup2\n      mstore\n      0x20\n      add\n      dup3\n      dup1\n      sload\n      tag_128\n      swap1\n      tag_107\n      jump\t// in\n    tag_128:\n      dup1\n      iszero\n      tag_129\n      jumpi\n      dup1\n      0x1f\n      lt\n      tag_130\n      jumpi\n      0x0100\n      dup1\n      dup4\n      sload\n      div\n      mul\n      dup4\n      mstore\n      swap2\n      0x20\n      add\n      swap2\n      jump(tag_129)\n    tag_130:\n      dup3\n      add\n      swap2\n      swap1\n      0x00\n      mstore\n      keccak256(0x00, 0x20)\n      swap1\n    tag_131:\n      dup2\n      sload\n      dup2\n      mstore\n      swap1\n      0x01\n      add\n      swap1\n      0x20\n      add\n      dup1\n      dup4\n      gt\n      tag_131\n      jumpi\n      dup3\n      swap1\n      sub\n      0x1f\n      and\n      dup3\n      add\n      swap2\n    tag_129:\n      pop\n      pop\n      pop\n      pop\n      pop\n      dup2\n      jump\t// out\n    tag_93:\n      dup3\n      dup1\n      sload\n      dup3\n      dup3\n      sstore\n      swap1\n      0x00\n      mstore\n      keccak256(0x00, 0x20)\n      swap1\n      0x02\n      mul\n      dup2\n      add\n      swap3\n      dup3\n      iszero\n      tag_132\n      jumpi\n      0x00\n      mstore\n      keccak256(0x00, 0x20)\n      swap2\n      0x02\n      mul\n      dup3\n      add\n    tag_133:\n      dup3\n      dup2\n      gt\n      iszero\n      tag_134\n      jumpi\n      dup3\n      dup3\n      0x00\n      dup3\n      add\n      sload\n      dup2\n      0x00\n      add\n      sstore\n      0x01\n      dup3\n      add\n      sload\n      dup2\n      0x01\n      add\n      sstore\n      pop\n      pop\n      swap2\n      0x02\n      add\n      swap2\n      swap1\n      0x02\n      add\n      swap1\n      jump(tag_133)\n    tag_134:\n    tag_132:\n      pop\n      swap1\n      pop\n      tag_135\n      swap2\n      swap1\n      tag_136\n      jump\t// in\n    tag_135:\n      pop\n      swap1\n      jump\t// out\n    tag_136:\n    tag_137:\n      dup1\n      dup3\n      gt\n      iszero\n      tag_138\n      jumpi\n      0x00\n      dup1\n      dup3\n      add\n      0x00\n      swap1\n      sstore\n      0x01\n      dup3\n      add\n      0x00\n      swap1\n      sstore\n      pop\n      0x02\n      add\n      jump(tag_137)\n    tag_138:\n      pop\n      swap1\n      jump\t// out\n        /* \"#utility.yul\":7:82   */\n    tag_139:\n        /* \"#utility.yul\":40:46   */\n      0x00\n        /* \"#utility.yul\":73:75   */\n      0x40\n        /* \"#utility.yul\":67:76   */\n      mload\n        /* \"#utility.yul\":57:76   */\n      swap1\n      pop\n        /* \"#utility.yul\":7:82   */\n      swap1\n      jump\t// out\n        /* \"#utility.yul\":88:205   */\n    tag_140:\n        /* \"#utility.yul\":197:198   */\n      0x00\n        /* \"#utility.yul\":194:195   */\n      dup1\n        /* \"#utility.yul\":187:199   */\n      revert\n        /* \"#utility.yul\":211:328   */\n    tag_141:\n        /* \"#utility.yul\":320:321   */\n      0x00\n        /* \"#utility.yul\":317:318   */\n      dup1\n        /* \"#utility.yul\":310:322   */\n      revert\n        /* \"#utility.yul\":334:411   */\n    tag_142:\n        /* \"#utility.yul\":371:378   */\n      0x00\n        /* \"#utility.yul\":400:405   */\n      dup2\n        /* \"#utility.yul\":389:405   */\n      swap1\n      pop\n        /* \"#utility.yul\":334:411   */\n      swap2\n      swap1\n      pop\n      jump\t// out\n        /* \"#utility.yul\":417:539   */\n    tag_143:\n        /* \"#utility.yul\":490:514   */\n      tag_199\n        /* \"#utility.yul\":508:513   */\n      dup2\n        /* \"#utility.yul\":490:514   */\n      tag_142\n      jump\t// in\n    tag_199:\n        /* \"#utility.yul\":483:488   */\n      dup2\n        /* \"#utility.yul\":480:515   */\n      eq\n        /* \"#utility.yul\":470:533   */\n      tag_200\n      jumpi\n        /* \"#utility.yul\":529:530   */\n      0x00\n        /* \"#utility.yul\":526:527   */\n      dup1\n        /* \"#utility.yul\":519:531   */\n      revert\n        /* \"#utility.yul\":470:533   */\n    tag_200:\n        /* \"#utility.yul\":417:539   */\n      pop\n      jump\t// out\n        /* \"#utility.yul\":545:684   */\n    tag_144:\n        /* \"#utility.yul\":591:596   */\n      0x00\n        /* \"#utility.yul\":629:635   */\n      dup2\n        /* \"#utility.yul\":616:636   */\n      calldataload\n        /* \"#utility.yul\":607:636   */\n      swap1\n      pop\n        /* \"#utility.yul\":645:678   */\n      tag_202\n        /* \"#utility.yul\":672:677   */\n      dup2\n        /* \"#utility.yul\":645:678   */\n      tag_143\n      jump\t// in\n    tag_202:\n        /* \"#utility.yul\":545:684   */\n      swap3\n      swap2\n      pop\n      pop\n      jump\t// out\n        /* \"#utility.yul\":690:816   */\n    tag_145:\n        /* \"#utility.yul\":727:734   */\n      0x00\n        /* \"#utility.yul\":767:809   */\n      0xffffffffffffffffffffffffffffffffffffffff\n        /* \"#utility.yul\":760:765   */\n      dup3\n        /* \"#utility.yul\":756:810   */\n      and\n        /* \"#utility.yul\":745:810   */\n      swap1\n      pop\n        /* \"#utility.yul\":690:816   */\n      swap2\n      swap1\n      pop\n      jump\t// out\n        /* \"#utility.yul\":822:918   */\n    tag_146:\n        /* \"#utility.yul\":859:866   */\n      0x00\n        /* \"#utility.yul\":888:912   */\n      tag_205\n        /* \"#utility.yul\":906:911   */\n      dup3\n        /* \"#utility.yul\":888:912   */\n      tag_145\n      jump\t// in\n    tag_205:\n        /* \"#utility.yul\":877:912   */\n      swap1\n      pop\n        /* \"#utility.yul\":822:918   */\n      swap2\n      swap1\n      pop\n      jump\t// out\n        /* \"#utility.yul\":924:1046   */\n    tag_147:\n        /* \"#utility.yul\":997:1021   */\n      tag_207\n        /* \"#utility.yul\":1015:1020   */\n      dup2\n        /* \"#utility.yul\":997:1021   */\n      tag_146\n      jump\t// in\n    tag_207:\n        /* \"#utility.yul\":990:995   */\n      dup2\n        /* \"#utility.yul\":987:1022   */\n      eq\n        /* \"#utility.yul\":977:1040   */\n      tag_208\n      jumpi\n        /* \"#utility.yul\":1036:1037   */\n      0x00\n        /* \"#utility.yul\":1033:1034   */\n      dup1\n        /* \"#utility.yul\":1026:1038   */\n      revert\n        /* \"#utility.yul\":977:1040   */\n    tag_208:\n        /* \"#utility.yul\":924:1046   */\n      pop\n      jump\t// out\n        /* \"#utility.yul\":1052:1191   */\n    tag_148:\n        /* \"#utility.yul\":1098:1103   */\n      0x00\n        /* \"#utility.yul\":1136:1142   */\n      dup2\n        /* \"#utility.yul\":1123:1143   */\n      calldataload\n        /* \"#utility.yul\":1114:1143   */\n      swap1\n      pop\n        /* \"#utility.yul\":1152:1185   */\n      tag_210\n        /* \"#utility.yul\":1179:1184   */\n      dup2\n        /* \"#utility.yul\":1152:1185   */\n      tag_147\n      jump\t// in\n    tag_210:\n        /* \"#utility.yul\":1052:1191   */\n      swap3\n      swap2\n      pop\n      pop\n      jump\t// out\n        /* \"#utility.yul\":1197:1816   */\n    tag_20:\n        /* \"#utility.yul\":1274:1280   */\n      0x00\n        /* \"#utility.yul\":1282:1288   */\n      dup1\n        /* \"#utility.yul\":1290:1296   */\n      0x00\n        /* \"#utility.yul\":1339:1341   */\n      0x60\n        /* \"#utility.yul\":1327:1336   */\n      dup5\n        /* \"#utility.yul\":1318:1325   */\n      dup7\n        /* \"#utility.yul\":1314:1337   */\n      sub\n        /* \"#utility.yul\":1310:1342   */\n      slt\n        /* \"#utility.yul\":1307:1426   */\n      iszero\n      tag_212\n      jumpi\n        /* \"#utility.yul\":1345:1424   */\n      tag_213\n      tag_140\n      jump\t// in\n    tag_213:\n        /* \"#utility.yul\":1307:1426   */\n    tag_212:\n        /* \"#utility.yul\":1465:1466   */\n      0x00\n        /* \"#utility.yul\":1490:1543   */\n      tag_214\n        /* \"#utility.yul\":1535:1542   */\n      dup7\n        /* \"#utility.yul\":1526:1532   */\n      dup3\n        /* \"#utility.yul\":1515:1524   */\n      dup8\n        /* \"#utility.yul\":1511:1533   */\n      add\n        /* \"#utility.yul\":1490:1543   */\n      tag_144\n      jump\t// in\n    tag_214:\n        /* \"#utility.yul\":1480:1543   */\n      swap4\n      pop\n        /* \"#utility.yul\":1436:1553   */\n      pop\n        /* \"#utility.yul\":1592:1594   */\n      0x20\n        /* \"#utility.yul\":1618:1671   */\n      tag_215\n        /* \"#utility.yul\":1663:1670   */\n      dup7\n        /* \"#utility.yul\":1654:1660   */\n      dup3\n        /* \"#utility.yul\":1643:1652   */\n      dup8\n        /* \"#utility.yul\":1639:1661   */\n      add\n        /* \"#utility.yul\":1618:1671   */\n      tag_148\n      jump\t// in\n    tag_215:\n        /* \"#utility.yul\":1608:1671   */\n      swap3\n      pop\n        /* \"#utility.yul\":1563:1681   */\n      pop\n        /* \"#utility.yul\":1720:1722   */\n      0x40\n        /* \"#utility.yul\":1746:1799   */\n      tag_216\n        /* \"#utility.yul\":1791:1798   */\n      dup7\n        /* \"#utility.yul\":1782:1788   */\n      dup3\n        /* \"#utility.yul\":1771:1780   */\n      dup8\n        /* \"#utility.yul\":1767:1789   */\n      add\n        /* \"#utility.yul\":1746:1799   */\n      tag_144\n      jump\t// in\n    tag_216:\n        /* \"#utility.yul\":1736:1799   */\n      swap2\n      pop\n        /* \"#utility.yul\":1691:1809   */\n      pop\n        /* \"#utility.yul\":1197:1816   */\n      swap3\n      pop\n      swap3\n      pop\n      swap3\n      jump\t// out\n        /* \"#utility.yul\":1822:1940   */\n    tag_149:\n        /* \"#utility.yul\":1909:1933   */\n      tag_218\n        /* \"#utility.yul\":1927:1932   */\n      dup2\n        /* \"#utility.yul\":1909:1933   */\n      tag_142\n      jump\t// in\n    tag_218:\n        /* \"#utility.yul\":1904:1907   */\n      dup3\n        /* \"#utility.yul\":1897:1934   */\n      mstore\n        /* \"#utility.yul\":1822:1940   */\n      pop\n      pop\n      jump\t// out\n        /* \"#utility.yul\":1946:2168   */\n    tag_25:\n        /* \"#utility.yul\":2039:2043   */\n      0x00\n        /* \"#utility.yul\":2077:2079   */\n      0x20\n        /* \"#utility.yul\":2066:2075   */\n      dup3\n        /* \"#utility.yul\":2062:2080   */\n      add\n        /* \"#utility.yul\":2054:2080   */\n      swap1\n      pop\n        /* \"#utility.yul\":2090:2161   */\n      tag_220\n        /* \"#utility.yul\":2158:2159   */\n      0x00\n        /* \"#utility.yul\":2147:2156   */\n      dup4\n        /* \"#utility.yul\":2143:2160   */\n      add\n        /* \"#utility.yul\":2134:2140   */\n      dup5\n        /* \"#utility.yul\":2090:2161   */\n      tag_149\n      jump\t// in\n    tag_220:\n        /* \"#utility.yul\":1946:2168   */\n      swap3\n      swap2\n      pop\n      pop\n      jump\t// out\n        /* \"#utility.yul\":2174:2291   */\n    tag_150:\n        /* \"#utility.yul\":2283:2284   */\n      0x00\n        /* \"#utility.yul\":2280:2281   */\n      dup1\n        /* \"#utility.yul\":2273:2285   */\n      revert\n        /* \"#utility.yul\":2297:2414   */\n    tag_151:\n        /* \"#utility.yul\":2406:2407   */\n      0x00\n        /* \"#utility.yul\":2403:2404   */\n      dup1\n        /* \"#utility.yul\":2396:2408   */\n      revert\n        /* \"#utility.yul\":2420:2522   */\n    tag_152:\n        /* \"#utility.yul\":2461:2467   */\n      0x00\n        /* \"#utility.yul\":2512:2514   */\n      0x1f\n        /* \"#utility.yul\":2508:2515   */\n      not\n        /* \"#utility.yul\":2503:2505   */\n      0x1f\n        /* \"#utility.yul\":2496:2501   */\n      dup4\n        /* \"#utility.yul\":2492:2506   */\n      add\n        /* \"#utility.yul\":2488:2516   */\n      and\n        /* \"#utility.yul\":2478:2516   */\n      swap1\n      pop\n        /* \"#utility.yul\":2420:2522   */\n      swap2\n      swap1\n      pop\n      jump\t// out\n        /* \"#utility.yul\":2528:2708   */\n    tag_153:\n        /* \"#utility.yul\":2576:2653   */\n      0x4e487b7100000000000000000000000000000000000000000000000000000000\n        /* \"#utility.yul\":2573:2574   */\n      0x00\n        /* \"#utility.yul\":2566:2654   */\n      mstore\n        /* \"#utility.yul\":2673:2677   */\n      0x41\n        /* \"#utility.yul\":2670:2671   */\n      0x04\n        /* \"#utility.yul\":2663:2678   */\n      mstore\n        /* \"#utility.yul\":2697:2701   */\n      0x24\n        /* \"#utility.yul\":2694:2695   */\n      0x00\n        /* \"#utility.yul\":2687:2702   */\n      revert\n        /* \"#utility.yul\":2714:2995   */\n    tag_154:\n        /* \"#utility.yul\":2797:2824   */\n      tag_226\n        /* \"#utility.yul\":2819:2823   */\n      dup3\n        /* \"#utility.yul\":2797:2824   */\n      tag_152\n      jump\t// in\n    tag_226:\n        /* \"#utility.yul\":2789:2795   */\n      dup2\n        /* \"#utility.yul\":2785:2825   */\n      add\n        /* \"#utility.yul\":2927:2933   */\n      dup2\n        /* \"#utility.yul\":2915:2925   */\n      dup2\n        /* \"#utility.yul\":2912:2934   */\n      lt\n        /* \"#utility.yul\":2891:2909   */\n      0xffffffffffffffff\n        /* \"#utility.yul\":2879:2889   */\n      dup3\n        /* \"#utility.yul\":2876:2910   */\n      gt\n        /* \"#utility.yul\":2873:2935   */\n      or\n        /* \"#utility.yul\":2870:2958   */\n      iszero\n      tag_227\n      jumpi\n        /* \"#utility.yul\":2938:2956   */\n      tag_228\n      tag_153\n      jump\t// in\n    tag_228:\n        /* \"#utility.yul\":2870:2958   */\n    tag_227:\n        /* \"#utility.yul\":2978:2988   */\n      dup1\n        /* \"#utility.yul\":2974:2976   */\n      0x40\n        /* \"#utility.yul\":2967:2989   */\n      mstore\n        /* \"#utility.yul\":2757:2995   */\n      pop\n        /* \"#utility.yul\":2714:2995   */\n      pop\n      pop\n      jump\t// out\n        /* \"#utility.yul\":3001:3130   */\n    tag_155:\n        /* \"#utility.yul\":3035:3041   */\n      0x00\n        /* \"#utility.yul\":3062:3082   */\n      tag_230\n      tag_139\n      jump\t// in\n    tag_230:\n        /* \"#utility.yul\":3052:3082   */\n      swap1\n      pop\n        /* \"#utility.yul\":3091:3124   */\n      tag_231\n        /* \"#utility.yul\":3119:3123   */\n      dup3\n        /* \"#utility.yul\":3111:3117   */\n      dup3\n        /* \"#utility.yul\":3091:3124   */\n      tag_154\n      jump\t// in\n    tag_231:\n        /* \"#utility.yul\":3001:3130   */\n      swap2\n      swap1\n      pop\n      jump\t// out\n        /* \"#utility.yul\":3136:3444   */\n    tag_156:\n        /* \"#utility.yul\":3198:3202   */\n      0x00\n        /* \"#utility.yul\":3288:3306   */\n      0xffffffffffffffff\n        /* \"#utility.yul\":3280:3286   */\n      dup3\n        /* \"#utility.yul\":3277:3307   */\n      gt\n        /* \"#utility.yul\":3274:3330   */\n      iszero\n      tag_233\n      jumpi\n        /* \"#utility.yul\":3310:3328   */\n      tag_234\n      tag_153\n      jump\t// in\n    tag_234:\n        /* \"#utility.yul\":3274:3330   */\n    tag_233:\n        /* \"#utility.yul\":3348:3377   */\n      tag_235\n        /* \"#utility.yul\":3370:3376   */\n      dup3\n        /* \"#utility.yul\":3348:3377   */\n      tag_152\n      jump\t// in\n    tag_235:\n        /* \"#utility.yul\":3340:3377   */\n      swap1\n      pop\n        /* \"#utility.yul\":3432:3436   */\n      0x20\n        /* \"#utility.yul\":3426:3430   */\n      dup2\n        /* \"#utility.yul\":3422:3437   */\n      add\n        /* \"#utility.yul\":3414:3437   */\n      swap1\n      pop\n        /* \"#utility.yul\":3136:3444   */\n      swap2\n      swap1\n      pop\n      jump\t// out\n        /* \"#utility.yul\":3450:3596   */\n    tag_157:\n        /* \"#utility.yul\":3547:3553   */\n      dup3\n        /* \"#utility.yul\":3542:3545   */\n      dup2\n        /* \"#utility.yul\":3537:3540   */\n      dup4\n        /* \"#utility.yul\":3524:3554   */\n      calldatacopy\n        /* \"#utility.yul\":3588:3589   */\n      0x00\n        /* \"#utility.yul\":3579:3585   */\n      dup4\n        /* \"#utility.yul\":3574:3577   */\n      dup4\n        /* \"#utility.yul\":3570:3586   */\n      add\n        /* \"#utility.yul\":3563:3590   */\n      mstore\n        /* \"#utility.yul\":3450:3596   */\n      pop\n      pop\n      pop\n      jump\t// out\n        /* \"#utility.yul\":3602:4027   */\n    tag_158:\n        /* \"#utility.yul\":3680:3685   */\n      0x00\n        /* \"#utility.yul\":3705:3771   */\n      tag_238\n        /* \"#utility.yul\":3721:3770   */\n      tag_239\n        /* \"#utility.yul\":3763:3769   */\n      dup5\n        /* \"#utility.yul\":3721:3770   */\n      tag_156\n      jump\t// in\n    tag_239:\n        /* \"#utility.yul\":3705:3771   */\n      tag_155\n      jump\t// in\n    tag_238:\n        /* \"#utility.yul\":3696:3771   */\n      swap1\n      pop\n        /* \"#utility.yul\":3794:3800   */\n      dup3\n        /* \"#utility.yul\":3787:3792   */\n      dup2\n        /* \"#utility.yul\":3780:3801   */\n      mstore\n        /* \"#utility.yul\":3832:3836   */\n      0x20\n        /* \"#utility.yul\":3825:3830   */\n      dup2\n        /* \"#utility.yul\":3821:3837   */\n      add\n        /* \"#utility.yul\":3870:3873   */\n      dup5\n        /* \"#utility.yul\":3861:3867   */\n      dup5\n        /* \"#utility.yul\":3856:3859   */\n      dup5\n        /* \"#utility.yul\":3852:3868   */\n      add\n        /* \"#utility.yul\":3849:3874   */\n      gt\n        /* \"#utility.yul\":3846:3958   */\n      iszero\n      tag_240\n      jumpi\n        /* \"#utility.yul\":3877:3956   */\n      tag_241\n      tag_151\n      jump\t// in\n    tag_241:\n        /* \"#utility.yul\":3846:3958   */\n    tag_240:\n        /* \"#utility.yul\":3967:4021   */\n      tag_242\n        /* \"#utility.yul\":4014:4020   */\n      dup5\n        /* \"#utility.yul\":4009:4012   */\n      dup3\n        /* \"#utility.yul\":4004:4007   */\n      dup6\n        /* \"#utility.yul\":3967:4021   */\n      tag_157\n      jump\t// in\n    tag_242:\n        /* \"#utility.yul\":3686:4027   */\n      pop\n        /* \"#utility.yul\":3602:4027   */\n      swap4\n      swap3\n      pop\n      pop\n      pop\n      jump\t// out\n        /* \"#utility.yul\":4047:4387   */\n    tag_159:\n        /* \"#utility.yul\":4103:4108   */\n      0x00\n        /* \"#utility.yul\":4152:4155   */\n      dup3\n        /* \"#utility.yul\":4145:4149   */\n      0x1f\n        /* \"#utility.yul\":4137:4143   */\n      dup4\n        /* \"#utility.yul\":4133:4150   */\n      add\n        /* \"#utility.yul\":4129:4156   */\n      slt\n        /* \"#utility.yul\":4119:4241   */\n      tag_244\n      jumpi\n        /* \"#utility.yul\":4160:4239   */\n      tag_245\n      tag_150\n      jump\t// in\n    tag_245:\n        /* \"#utility.yul\":4119:4241   */\n    tag_244:\n        /* \"#utility.yul\":4277:4283   */\n      dup2\n        /* \"#utility.yul\":4264:4284   */\n      calldataload\n        /* \"#utility.yul\":4302:4381   */\n      tag_246\n        /* \"#utility.yul\":4377:4380   */\n      dup5\n        /* \"#utility.yul\":4369:4375   */\n      dup3\n        /* \"#utility.yul\":4362:4366   */\n      0x20\n        /* \"#utility.yul\":4354:4360   */\n      dup7\n        /* \"#utility.yul\":4350:4367   */\n      add\n        /* \"#utility.yul\":4302:4381   */\n      tag_158\n      jump\t// in\n    tag_246:\n        /* \"#utility.yul\":4293:4381   */\n      swap2\n      pop\n        /* \"#utility.yul\":4109:4387   */\n      pop\n        /* \"#utility.yul\":4047:4387   */\n      swap3\n      swap2\n      pop\n      pop\n      jump\t// out\n        /* \"#utility.yul\":4393:5227   */\n    tag_28:\n        /* \"#utility.yul\":4481:4487   */\n      0x00\n        /* \"#utility.yul\":4489:4495   */\n      dup1\n        /* \"#utility.yul\":4538:4540   */\n      0x40\n        /* \"#utility.yul\":4526:4535   */\n      dup4\n        /* \"#utility.yul\":4517:4524   */\n      dup6\n        /* \"#utility.yul\":4513:4536   */\n      sub\n        /* \"#utility.yul\":4509:4541   */\n      slt\n        /* \"#utility.yul\":4506:4625   */\n      iszero\n      tag_248\n      jumpi\n        /* \"#utility.yul\":4544:4623   */\n      tag_249\n      tag_140\n      jump\t// in\n    tag_249:\n        /* \"#utility.yul\":4506:4625   */\n    tag_248:\n        /* \"#utility.yul\":4692:4693   */\n      0x00\n        /* \"#utility.yul\":4681:4690   */\n      dup4\n        /* \"#utility.yul\":4677:4694   */\n      add\n        /* \"#utility.yul\":4664:4695   */\n      calldataload\n        /* \"#utility.yul\":4722:4740   */\n      0xffffffffffffffff\n        /* \"#utility.yul\":4714:4720   */\n      dup2\n        /* \"#utility.yul\":4711:4741   */\n      gt\n        /* \"#utility.yul\":4708:4825   */\n      iszero\n      tag_250\n      jumpi\n        /* \"#utility.yul\":4744:4823   */\n      tag_251\n      tag_141\n      jump\t// in\n    tag_251:\n        /* \"#utility.yul\":4708:4825   */\n    tag_250:\n        /* \"#utility.yul\":4849:4912   */\n      tag_252\n        /* \"#utility.yul\":4904:4911   */\n      dup6\n        /* \"#utility.yul\":4895:4901   */\n      dup3\n        /* \"#utility.yul\":4884:4893   */\n      dup7\n        /* \"#utility.yul\":4880:4902   */\n      add\n        /* \"#utility.yul\":4849:4912   */\n      tag_159\n      jump\t// in\n    tag_252:\n        /* \"#utility.yul\":4839:4912   */\n      swap3\n      pop\n        /* \"#utility.yul\":4635:4922   */\n      pop\n        /* \"#utility.yul\":4989:4991   */\n      0x20\n        /* \"#utility.yul\":4978:4987   */\n      dup4\n        /* \"#utility.yul\":4974:4992   */\n      add\n        /* \"#utility.yul\":4961:4993   */\n      calldataload\n        /* \"#utility.yul\":5020:5038   */\n      0xffffffffffffffff\n        /* \"#utility.yul\":5012:5018   */\n      dup2\n        /* \"#utility.yul\":5009:5039   */\n      gt\n        /* \"#utility.yul\":5006:5123   */\n      iszero\n      tag_253\n      jumpi\n        /* \"#utility.yul\":5042:5121   */\n      tag_254\n      tag_141\n      jump\t// in\n    tag_254:\n        /* \"#utility.yul\":5006:5123   */\n    tag_253:\n        /* \"#utility.yul\":5147:5210   */\n      tag_255\n        /* \"#utility.yul\":5202:5209   */\n      dup6\n        /* \"#utility.yul\":5193:5199   */\n      dup3\n        /* \"#utility.yul\":5182:5191   */\n      dup7\n        /* \"#utility.yul\":5178:5200   */\n      add\n        /* \"#utility.yul\":5147:5210   */\n      tag_159\n      jump\t// in\n    tag_255:\n        /* \"#utility.yul\":5137:5210   */\n      swap2\n      pop\n        /* \"#utility.yul\":4932:5220   */\n      pop\n        /* \"#utility.yul\":4393:5227   */\n      swap3\n      pop\n      swap3\n      swap1\n      pop\n      jump\t// out\n        /* \"#utility.yul\":5233:5707   */\n    tag_32:\n        /* \"#utility.yul\":5301:5307   */\n      0x00\n        /* \"#utility.yul\":5309:5315   */\n      dup1\n        /* \"#utility.yul\":5358:5360   */\n      0x40\n        /* \"#utility.yul\":5346:5355   */\n      dup4\n        /* \"#utility.yul\":5337:5344   */\n      dup6\n        /* \"#utility.yul\":5333:5356   */\n      sub\n        /* \"#utility.yul\":5329:5361   */\n      slt\n        /* \"#utility.yul\":5326:5445   */\n      iszero\n      tag_257\n      jumpi\n        /* \"#utility.yul\":5364:5443   */\n      tag_258\n      tag_140\n      jump\t// in\n    tag_258:\n        /* \"#utility.yul\":5326:5445   */\n    tag_257:\n        /* \"#utility.yul\":5484:5485   */\n      0x00\n        /* \"#utility.yul\":5509:5562   */\n      tag_259\n        /* \"#utility.yul\":5554:5561   */\n      dup6\n        /* \"#utility.yul\":5545:5551   */\n      dup3\n        /* \"#utility.yul\":5534:5543   */\n      dup7\n        /* \"#utility.yul\":5530:5552   */\n      add\n        /* \"#utility.yul\":5509:5562   */\n      tag_148\n      jump\t// in\n    tag_259:\n        /* \"#utility.yul\":5499:5562   */\n      swap3\n      pop\n        /* \"#utility.yul\":5455:5572   */\n      pop\n        /* \"#utility.yul\":5611:5613   */\n      0x20\n        /* \"#utility.yul\":5637:5690   */\n      tag_260\n        /* \"#utility.yul\":5682:5689   */\n      dup6\n        /* \"#utility.yul\":5673:5679   */\n      dup3\n        /* \"#utility.yul\":5662:5671   */\n      dup7\n        /* \"#utility.yul\":5658:5680   */\n      add\n        /* \"#utility.yul\":5637:5690   */\n      tag_144\n      jump\t// in\n    tag_260:\n        /* \"#utility.yul\":5627:5690   */\n      swap2\n      pop\n        /* \"#utility.yul\":5582:5700   */\n      pop\n        /* \"#utility.yul\":5233:5707   */\n      swap3\n      pop\n      swap3\n      swap1\n      pop\n      jump\t// out\n        /* \"#utility.yul\":5713:6045   */\n    tag_35:\n        /* \"#utility.yul\":5834:5838   */\n      0x00\n        /* \"#utility.yul\":5872:5874   */\n      0x40\n        /* \"#utility.yul\":5861:5870   */\n      dup3\n        /* \"#utility.yul\":5857:5875   */\n      add\n        /* \"#utility.yul\":5849:5875   */\n      swap1\n      pop\n        /* \"#utility.yul\":5885:5956   */\n      tag_262\n        /* \"#utility.yul\":5953:5954   */\n      0x00\n        /* \"#utility.yul\":5942:5951   */\n      dup4\n        /* \"#utility.yul\":5938:5955   */\n      add\n        /* \"#utility.yul\":5929:5935   */\n      dup6\n        /* \"#utility.yul\":5885:5956   */\n      tag_149\n      jump\t// in\n    tag_262:\n        /* \"#utility.yul\":5966:6038   */\n      tag_263\n        /* \"#utility.yul\":6034:6036   */\n      0x20\n        /* \"#utility.yul\":6023:6032   */\n      dup4\n        /* \"#utility.yul\":6019:6037   */\n      add\n        /* \"#utility.yul\":6010:6016   */\n      dup5\n        /* \"#utility.yul\":5966:6038   */\n      tag_149\n      jump\t// in\n    tag_263:\n        /* \"#utility.yul\":5713:6045   */\n      swap4\n      swap3\n      pop\n      pop\n      pop\n      jump\t// out\n        /* \"#utility.yul\":6051:6141   */\n    tag_160:\n        /* \"#utility.yul\":6085:6092   */\n      0x00\n        /* \"#utility.yul\":6128:6133   */\n      dup2\n        /* \"#utility.yul\":6121:6134   */\n      iszero\n        /* \"#utility.yul\":6114:6135   */\n      iszero\n        /* \"#utility.yul\":6103:6135   */\n      swap1\n      pop\n        /* \"#utility.yul\":6051:6141   */\n      swap2\n      swap1\n      pop\n      jump\t// out\n        /* \"#utility.yul\":6147:6256   */\n    tag_161:\n        /* \"#utility.yul\":6228:6249   */\n      tag_266\n        /* \"#utility.yul\":6243:6248   */\n      dup2\n        /* \"#utility.yul\":6228:6249   */\n      tag_160\n      jump\t// in\n    tag_266:\n        /* \"#utility.yul\":6223:6226   */\n      dup3\n        /* \"#utility.yul\":6216:6250   */\n      mstore\n        /* \"#utility.yul\":6147:6256   */\n      pop\n      pop\n      jump\t// out\n        /* \"#utility.yul\":6262:6472   */\n    tag_39:\n        /* \"#utility.yul\":6349:6353   */\n      0x00\n        /* \"#utility.yul\":6387:6389   */\n      0x20\n        /* \"#utility.yul\":6376:6385   */\n      dup3\n        /* \"#utility.yul\":6372:6390   */\n      add\n        /* \"#utility.yul\":6364:6390   */\n      swap1\n      pop\n        /* \"#utility.yul\":6400:6465   */\n      tag_268\n        /* \"#utility.yul\":6462:6463   */\n      0x00\n        /* \"#utility.yul\":6451:6460   */\n      dup4\n        /* \"#utility.yul\":6447:6464   */\n      add\n        /* \"#utility.yul\":6438:6444   */\n      dup5\n        /* \"#utility.yul\":6400:6465   */\n      tag_161\n      jump\t// in\n    tag_268:\n        /* \"#utility.yul\":6262:6472   */\n      swap3\n      swap2\n      pop\n      pop\n      jump\t// out\n        /* \"#utility.yul\":6478:6577   */\n    tag_162:\n        /* \"#utility.yul\":6530:6536   */\n      0x00\n        /* \"#utility.yul\":6564:6569   */\n      dup2\n        /* \"#utility.yul\":6558:6570   */\n      mload\n        /* \"#utility.yul\":6548:6570   */\n      swap1\n      pop\n        /* \"#utility.yul\":6478:6577   */\n      swap2\n      swap1\n      pop\n      jump\t// out\n        /* \"#utility.yul\":6583:6752   */\n    tag_163:\n        /* \"#utility.yul\":6667:6678   */\n      0x00\n        /* \"#utility.yul\":6701:6707   */\n      dup3\n        /* \"#utility.yul\":6696:6699   */\n      dup3\n        /* \"#utility.yul\":6689:6708   */\n      mstore\n        /* \"#utility.yul\":6741:6745   */\n      0x20\n        /* \"#utility.yul\":6736:6739   */\n      dup3\n        /* \"#utility.yul\":6732:6746   */\n      add\n        /* \"#utility.yul\":6717:6746   */\n      swap1\n      pop\n        /* \"#utility.yul\":6583:6752   */\n      swap3\n      swap2\n      pop\n      pop\n      jump\t// out\n        /* \"#utility.yul\":6758:7004   */\n    tag_164:\n        /* \"#utility.yul\":6839:6840   */\n      0x00\n        /* \"#utility.yul\":6849:6962   */\n    tag_272:\n        /* \"#utility.yul\":6863:6869   */\n      dup4\n        /* \"#utility.yul\":6860:6861   */\n      dup2\n        /* \"#utility.yul\":6857:6870   */\n      lt\n        /* \"#utility.yul\":6849:6962   */\n      iszero\n      tag_274\n      jumpi\n        /* \"#utility.yul\":6948:6949   */\n      dup1\n        /* \"#utility.yul\":6943:6946   */\n      dup3\n        /* \"#utility.yul\":6939:6950   */\n      add\n        /* \"#utility.yul\":6933:6951   */\n      mload\n        /* \"#utility.yul\":6929:6930   */\n      dup2\n        /* \"#utility.yul\":6924:6927   */\n      dup5\n        /* \"#utility.yul\":6920:6931   */\n      add\n        /* \"#utility.yul\":6913:6952   */\n      mstore\n        /* \"#utility.yul\":6885:6887   */\n      0x20\n        /* \"#utility.yul\":6882:6883   */\n      dup2\n        /* \"#utility.yul\":6878:6888   */\n      add\n        /* \"#utility.yul\":6873:6888   */\n      swap1\n      pop\n        /* \"#utility.yul\":6849:6962   */\n      jump(tag_272)\n    tag_274:\n        /* \"#utility.yul\":6996:6997   */\n      0x00\n        /* \"#utility.yul\":6987:6993   */\n      dup5\n        /* \"#utility.yul\":6982:6985   */\n      dup5\n        /* \"#utility.yul\":6978:6994   */\n      add\n        /* \"#utility.yul\":6971:6998   */\n      mstore\n        /* \"#utility.yul\":6820:7004   */\n      pop\n        /* \"#utility.yul\":6758:7004   */\n      pop\n      pop\n      pop\n      jump\t// out\n        /* \"#utility.yul\":7010:7387   */\n    tag_165:\n        /* \"#utility.yul\":7098:7101   */\n      0x00\n        /* \"#utility.yul\":7126:7165   */\n      tag_276\n        /* \"#utility.yul\":7159:7164   */\n      dup3\n        /* \"#utility.yul\":7126:7165   */\n      tag_162\n      jump\t// in\n    tag_276:\n        /* \"#utility.yul\":7181:7252   */\n      tag_277\n        /* \"#utility.yul\":7245:7251   */\n      dup2\n        /* \"#utility.yul\":7240:7243   */\n      dup6\n        /* \"#utility.yul\":7181:7252   */\n      tag_163\n      jump\t// in\n    tag_277:\n        /* \"#utility.yul\":7174:7252   */\n      swap4\n      pop\n        /* \"#utility.yul\":7261:7326   */\n      tag_278\n        /* \"#utility.yul\":7319:7325   */\n      dup2\n        /* \"#utility.yul\":7314:7317   */\n      dup6\n        /* \"#utility.yul\":7307:7311   */\n      0x20\n        /* \"#utility.yul\":7300:7305   */\n      dup7\n        /* \"#utility.yul\":7296:7312   */\n      add\n        /* \"#utility.yul\":7261:7326   */\n      tag_164\n      jump\t// in\n    tag_278:\n        /* \"#utility.yul\":7351:7380   */\n      tag_279\n        /* \"#utility.yul\":7373:7379   */\n      dup2\n        /* \"#utility.yul\":7351:7380   */\n      tag_152\n      jump\t// in\n    tag_279:\n        /* \"#utility.yul\":7346:7349   */\n      dup5\n        /* \"#utility.yul\":7342:7381   */\n      add\n        /* \"#utility.yul\":7335:7381   */\n      swap2\n      pop\n        /* \"#utility.yul\":7102:7387   */\n      pop\n        /* \"#utility.yul\":7010:7387   */\n      swap3\n      swap2\n      pop\n      pop\n      jump\t// out\n        /* \"#utility.yul\":7393:7706   */\n    tag_43:\n        /* \"#utility.yul\":7506:7510   */\n      0x00\n        /* \"#utility.yul\":7544:7546   */\n      0x20\n        /* \"#utility.yul\":7533:7542   */\n      dup3\n        /* \"#utility.yul\":7529:7547   */\n      add\n        /* \"#utility.yul\":7521:7547   */\n      swap1\n      pop\n        /* \"#utility.yul\":7593:7602   */\n      dup2\n        /* \"#utility.yul\":7587:7591   */\n      dup2\n        /* \"#utility.yul\":7583:7603   */\n      sub\n        /* \"#utility.yul\":7579:7580   */\n      0x00\n        /* \"#utility.yul\":7568:7577   */\n      dup4\n        /* \"#utility.yul\":7564:7581   */\n      add\n        /* \"#utility.yul\":7557:7604   */\n      mstore\n        /* \"#utility.yul\":7621:7699   */\n      tag_281\n        /* \"#utility.yul\":7694:7698   */\n      dup2\n        /* \"#utility.yul\":7685:7691   */\n      dup5\n        /* \"#utility.yul\":7621:7699   */\n      tag_165\n      jump\t// in\n    tag_281:\n        /* \"#utility.yul\":7613:7699   */\n      swap1\n      pop\n        /* \"#utility.yul\":7393:7706   */\n      swap3\n      swap2\n      pop\n      pop\n      jump\t// out\n        /* \"#utility.yul\":7712:7890   */\n    tag_166:\n        /* \"#utility.yul\":7852:7882   */\n      0x2054686973206164647265737320646f65736e27742065786973747300000000\n        /* \"#utility.yul\":7848:7849   */\n      0x00\n        /* \"#utility.yul\":7840:7846   */\n      dup3\n        /* \"#utility.yul\":7836:7850   */\n      add\n        /* \"#utility.yul\":7829:7883   */\n      mstore\n        /* \"#utility.yul\":7712:7890   */\n      pop\n      jump\t// out\n        /* \"#utility.yul\":7896:8262   */\n    tag_167:\n        /* \"#utility.yul\":8038:8041   */\n      0x00\n        /* \"#utility.yul\":8059:8126   */\n      tag_284\n        /* \"#utility.yul\":8123:8125   */\n      0x1c\n        /* \"#utility.yul\":8118:8121   */\n      dup4\n        /* \"#utility.yul\":8059:8126   */\n      tag_163\n      jump\t// in\n    tag_284:\n        /* \"#utility.yul\":8052:8126   */\n      swap2\n      pop\n        /* \"#utility.yul\":8135:8228   */\n      tag_285\n        /* \"#utility.yul\":8224:8227   */\n      dup3\n        /* \"#utility.yul\":8135:8228   */\n      tag_166\n      jump\t// in\n    tag_285:\n        /* \"#utility.yul\":8253:8255   */\n      0x20\n        /* \"#utility.yul\":8248:8251   */\n      dup3\n        /* \"#utility.yul\":8244:8256   */\n      add\n        /* \"#utility.yul\":8237:8256   */\n      swap1\n      pop\n        /* \"#utility.yul\":7896:8262   */\n      swap2\n      swap1\n      pop\n      jump\t// out\n        /* \"#utility.yul\":8268:8687   */\n    tag_67:\n        /* \"#utility.yul\":8434:8438   */\n      0x00\n        /* \"#utility.yul\":8472:8474   */\n      0x20\n        /* \"#utility.yul\":8461:8470   */\n      dup3\n        /* \"#utility.yul\":8457:8475   */\n      add\n        /* \"#utility.yul\":8449:8475   */\n      swap1\n      pop\n        /* \"#utility.yul\":8521:8530   */\n      dup2\n        /* \"#utility.yul\":8515:8519   */\n      dup2\n        /* \"#utility.yul\":8511:8531   */\n      sub\n        /* \"#utility.yul\":8507:8508   */\n      0x00\n        /* \"#utility.yul\":8496:8505   */\n      dup4\n        /* \"#utility.yul\":8492:8509   */\n      add\n        /* \"#utility.yul\":8485:8532   */\n      mstore\n        /* \"#utility.yul\":8549:8680   */\n      tag_287\n        /* \"#utility.yul\":8675:8679   */\n      dup2\n        /* \"#utility.yul\":8549:8680   */\n      tag_167\n      jump\t// in\n    tag_287:\n        /* \"#utility.yul\":8541:8680   */\n      swap1\n      pop\n        /* \"#utility.yul\":8268:8687   */\n      swap2\n      swap1\n      pop\n      jump\t// out\n        /* \"#utility.yul\":8693:8866   */\n    tag_168:\n        /* \"#utility.yul\":8833:8858   */\n      0x506c6561736520696e7365727420796f75722063617264000000000000000000\n        /* \"#utility.yul\":8829:8830   */\n      0x00\n        /* \"#utility.yul\":8821:8827   */\n      dup3\n        /* \"#utility.yul\":8817:8831   */\n      add\n        /* \"#utility.yul\":8810:8859   */\n      mstore\n        /* \"#utility.yul\":8693:8866   */\n      pop\n      jump\t// out\n        /* \"#utility.yul\":8872:9238   */\n    tag_169:\n        /* \"#utility.yul\":9014:9017   */\n      0x00\n        /* \"#utility.yul\":9035:9102   */\n      tag_290\n        /* \"#utility.yul\":9099:9101   */\n      0x17\n        /* \"#utility.yul\":9094:9097   */\n      dup4\n        /* \"#utility.yul\":9035:9102   */\n      tag_163\n      jump\t// in\n    tag_290:\n        /* \"#utility.yul\":9028:9102   */\n      swap2\n      pop\n        /* \"#utility.yul\":9111:9204   */\n      tag_291\n        /* \"#utility.yul\":9200:9203   */\n      dup3\n        /* \"#utility.yul\":9111:9204   */\n      tag_168\n      jump\t// in\n    tag_291:\n        /* \"#utility.yul\":9229:9231   */\n      0x20\n        /* \"#utility.yul\":9224:9227   */\n      dup3\n        /* \"#utility.yul\":9220:9232   */\n      add\n        /* \"#utility.yul\":9213:9232   */\n      swap1\n      pop\n        /* \"#utility.yul\":8872:9238   */\n      swap2\n      swap1\n      pop\n      jump\t// out\n        /* \"#utility.yul\":9244:9663   */\n    tag_71:\n        /* \"#utility.yul\":9410:9414   */\n      0x00\n        /* \"#utility.yul\":9448:9450   */\n      0x20\n        /* \"#utility.yul\":9437:9446   */\n      dup3\n        /* \"#utility.yul\":9433:9451   */\n      add\n        /* \"#utility.yul\":9425:9451   */\n      swap1\n      pop\n        /* \"#utility.yul\":9497:9506   */\n      dup2\n        /* \"#utility.yul\":9491:9495   */\n      dup2\n        /* \"#utility.yul\":9487:9507   */\n      sub\n        /* \"#utility.yul\":9483:9484   */\n      0x00\n        /* \"#utility.yul\":9472:9481   */\n      dup4\n        /* \"#utility.yul\":9468:9485   */\n      add\n        /* \"#utility.yul\":9461:9508   */\n      mstore\n        /* \"#utility.yul\":9525:9656   */\n      tag_293\n        /* \"#utility.yul\":9651:9655   */\n      dup2\n        /* \"#utility.yul\":9525:9656   */\n      tag_169\n      jump\t// in\n    tag_293:\n        /* \"#utility.yul\":9517:9656   */\n      swap1\n      pop\n        /* \"#utility.yul\":9244:9663   */\n      swap2\n      swap1\n      pop\n      jump\t// out\n        /* \"#utility.yul\":9669:9849   */\n    tag_170:\n        /* \"#utility.yul\":9717:9794   */\n      0x4e487b7100000000000000000000000000000000000000000000000000000000\n        /* \"#utility.yul\":9714:9715   */\n      0x00\n        /* \"#utility.yul\":9707:9795   */\n      mstore\n        /* \"#utility.yul\":9814:9818   */\n      0x11\n        /* \"#utility.yul\":9811:9812   */\n      0x04\n        /* \"#utility.yul\":9804:9819   */\n      mstore\n        /* \"#utility.yul\":9838:9842   */\n      0x24\n        /* \"#utility.yul\":9835:9836   */\n      0x00\n        /* \"#utility.yul\":9828:9843   */\n      revert\n        /* \"#utility.yul\":9855:10046   */\n    tag_75:\n        /* \"#utility.yul\":9895:9898   */\n      0x00\n        /* \"#utility.yul\":9914:9934   */\n      tag_296\n        /* \"#utility.yul\":9932:9933   */\n      dup3\n        /* \"#utility.yul\":9914:9934   */\n      tag_142\n      jump\t// in\n    tag_296:\n        /* \"#utility.yul\":9909:9934   */\n      swap2\n      pop\n        /* \"#utility.yul\":9948:9968   */\n      tag_297\n        /* \"#utility.yul\":9966:9967   */\n      dup4\n        /* \"#utility.yul\":9948:9968   */\n      tag_142\n      jump\t// in\n    tag_297:\n        /* \"#utility.yul\":9943:9968   */\n      swap3\n      pop\n        /* \"#utility.yul\":9991:9992   */\n      dup3\n        /* \"#utility.yul\":9988:9989   */\n      dup3\n        /* \"#utility.yul\":9984:9993   */\n      add\n        /* \"#utility.yul\":9977:9993   */\n      swap1\n      pop\n        /* \"#utility.yul\":10012:10015   */\n      dup1\n        /* \"#utility.yul\":10009:10010   */\n      dup3\n        /* \"#utility.yul\":10006:10016   */\n      gt\n        /* \"#utility.yul\":10003:10039   */\n      iszero\n      tag_298\n      jumpi\n        /* \"#utility.yul\":10019:10037   */\n      tag_299\n      tag_170\n      jump\t// in\n    tag_299:\n        /* \"#utility.yul\":10003:10039   */\n    tag_298:\n        /* \"#utility.yul\":9855:10046   */\n      swap3\n      swap2\n      pop\n      pop\n      jump\t// out\n        /* \"#utility.yul\":10052:10232   */\n    tag_79:\n        /* \"#utility.yul\":10100:10177   */\n      0x4e487b7100000000000000000000000000000000000000000000000000000000\n        /* \"#utility.yul\":10097:10098   */\n      0x00\n        /* \"#utility.yul\":10090:10178   */\n      mstore\n        /* \"#utility.yul\":10197:10201   */\n      0x01\n        /* \"#utility.yul\":10194:10195   */\n      0x04\n        /* \"#utility.yul\":10187:10202   */\n      mstore\n        /* \"#utility.yul\":10221:10225   */\n      0x24\n        /* \"#utility.yul\":10218:10219   */\n      0x00\n        /* \"#utility.yul\":10211:10226   */\n      revert\n        /* \"#utility.yul\":10238:10415   */\n    tag_171:\n        /* \"#utility.yul\":10378:10407   */\n      0x6f6e6c792035207472616e73616374696f6e7320706572206461790000000000\n        /* \"#utility.yul\":10374:10375   */\n      0x00\n        /* \"#utility.yul\":10366:10372   */\n      dup3\n        /* \"#utility.yul\":10362:10376   */\n      add\n        /* \"#utility.yul\":10355:10408   */\n      mstore\n        /* \"#utility.yul\":10238:10415   */\n      pop\n      jump\t// out\n        /* \"#utility.yul\":10421:10787   */\n    tag_172:\n        /* \"#utility.yul\":10563:10566   */\n      0x00\n        /* \"#utility.yul\":10584:10651   */\n      tag_303\n        /* \"#utility.yul\":10648:10650   */\n      0x1b\n        /* \"#utility.yul\":10643:10646   */\n      dup4\n        /* \"#utility.yul\":10584:10651   */\n      tag_163\n      jump\t// in\n    tag_303:\n        /* \"#utility.yul\":10577:10651   */\n      swap2\n      pop\n        /* \"#utility.yul\":10660:10753   */\n      tag_304\n        /* \"#utility.yul\":10749:10752   */\n      dup3\n        /* \"#utility.yul\":10660:10753   */\n      tag_171\n      jump\t// in\n    tag_304:\n        /* \"#utility.yul\":10778:10780   */\n      0x20\n        /* \"#utility.yul\":10773:10776   */\n      dup3\n        /* \"#utility.yul\":10769:10781   */\n      add\n        /* \"#utility.yul\":10762:10781   */\n      swap1\n      pop\n        /* \"#utility.yul\":10421:10787   */\n      swap2\n      swap1\n      pop\n      jump\t// out\n        /* \"#utility.yul\":10793:11212   */\n    tag_81:\n        /* \"#utility.yul\":10959:10963   */\n      0x00\n        /* \"#utility.yul\":10997:10999   */\n      0x20\n        /* \"#utility.yul\":10986:10995   */\n      dup3\n        /* \"#utility.yul\":10982:11000   */\n      add\n        /* \"#utility.yul\":10974:11000   */\n      swap1\n      pop\n        /* \"#utility.yul\":11046:11055   */\n      dup2\n        /* \"#utility.yul\":11040:11044   */\n      dup2\n        /* \"#utility.yul\":11036:11056   */\n      sub\n        /* \"#utility.yul\":11032:11033   */\n      0x00\n        /* \"#utility.yul\":11021:11030   */\n      dup4\n        /* \"#utility.yul\":11017:11034   */\n      add\n        /* \"#utility.yul\":11010:11057   */\n      mstore\n        /* \"#utility.yul\":11074:11205   */\n      tag_306\n        /* \"#utility.yul\":11200:11204   */\n      dup2\n        /* \"#utility.yul\":11074:11205   */\n      tag_172\n      jump\t// in\n    tag_306:\n        /* \"#utility.yul\":11066:11205   */\n      swap1\n      pop\n        /* \"#utility.yul\":10793:11212   */\n      swap2\n      swap1\n      pop\n      jump\t// out\n        /* \"#utility.yul\":11218:11412   */\n    tag_95:\n        /* \"#utility.yul\":11258:11262   */\n      0x00\n        /* \"#utility.yul\":11278:11298   */\n      tag_308\n        /* \"#utility.yul\":11296:11297   */\n      dup3\n        /* \"#utility.yul\":11278:11298   */\n      tag_142\n      jump\t// in\n    tag_308:\n        /* \"#utility.yul\":11273:11298   */\n      swap2\n      pop\n        /* \"#utility.yul\":11312:11332   */\n      tag_309\n        /* \"#utility.yul\":11330:11331   */\n      dup4\n        /* \"#utility.yul\":11312:11332   */\n      tag_142\n      jump\t// in\n    tag_309:\n        /* \"#utility.yul\":11307:11332   */\n      swap3\n      pop\n        /* \"#utility.yul\":11356:11357   */\n      dup3\n        /* \"#utility.yul\":11353:11354   */\n      dup3\n        /* \"#utility.yul\":11349:11358   */\n      sub\n        /* \"#utility.yul\":11341:11358   */\n      swap1\n      pop\n        /* \"#utility.yul\":11380:11381   */\n      dup2\n        /* \"#utility.yul\":11374:11378   */\n      dup2\n        /* \"#utility.yul\":11371:11382   */\n      gt\n        /* \"#utility.yul\":11368:11405   */\n      iszero\n      tag_310\n      jumpi\n        /* \"#utility.yul\":11385:11403   */\n      tag_311\n      tag_170\n      jump\t// in\n    tag_311:\n        /* \"#utility.yul\":11368:11405   */\n    tag_310:\n        /* \"#utility.yul\":11218:11412   */\n      swap3\n      swap2\n      pop\n      pop\n      jump\t// out\n        /* \"#utility.yul\":11418:11598   */\n    tag_173:\n        /* \"#utility.yul\":11466:11543   */\n      0x4e487b7100000000000000000000000000000000000000000000000000000000\n        /* \"#utility.yul\":11463:11464   */\n      0x00\n        /* \"#utility.yul\":11456:11544   */\n      mstore\n        /* \"#utility.yul\":11563:11567   */\n      0x22\n        /* \"#utility.yul\":11560:11561   */\n      0x04\n        /* \"#utility.yul\":11553:11568   */\n      mstore\n        /* \"#utility.yul\":11587:11591   */\n      0x24\n        /* \"#utility.yul\":11584:11585   */\n      0x00\n        /* \"#utility.yul\":11577:11592   */\n      revert\n        /* \"#utility.yul\":11604:11924   */\n    tag_107:\n        /* \"#utility.yul\":11648:11654   */\n      0x00\n        /* \"#utility.yul\":11685:11686   */\n      0x02\n        /* \"#utility.yul\":11679:11683   */\n      dup3\n        /* \"#utility.yul\":11675:11687   */\n      div\n        /* \"#utility.yul\":11665:11687   */\n      swap1\n      pop\n        /* \"#utility.yul\":11732:11733   */\n      0x01\n        /* \"#utility.yul\":11726:11730   */\n      dup3\n        /* \"#utility.yul\":11722:11734   */\n      and\n        /* \"#utility.yul\":11753:11771   */\n      dup1\n        /* \"#utility.yul\":11743:11824   */\n      tag_314\n      jumpi\n        /* \"#utility.yul\":11809:11813   */\n      0x7f\n        /* \"#utility.yul\":11801:11807   */\n      dup3\n        /* \"#utility.yul\":11797:11814   */\n      and\n        /* \"#utility.yul\":11787:11814   */\n      swap2\n      pop\n        /* \"#utility.yul\":11743:11824   */\n    tag_314:\n        /* \"#utility.yul\":11871:11873   */\n      0x20\n        /* \"#utility.yul\":11863:11869   */\n      dup3\n        /* \"#utility.yul\":11860:11874   */\n      lt\n        /* \"#utility.yul\":11840:11858   */\n      dup2\n        /* \"#utility.yul\":11837:11875   */\n      sub\n        /* \"#utility.yul\":11834:11918   */\n      tag_315\n      jumpi\n        /* \"#utility.yul\":11890:11908   */\n      tag_316\n      tag_173\n      jump\t// in\n    tag_316:\n        /* \"#utility.yul\":11834:11918   */\n    tag_315:\n        /* \"#utility.yul\":11655:11924   */\n      pop\n        /* \"#utility.yul\":11604:11924   */\n      swap2\n      swap1\n      pop\n      jump\t// out\n        /* \"#utility.yul\":11930:12071   */\n    tag_174:\n        /* \"#utility.yul\":11979:11983   */\n      0x00\n        /* \"#utility.yul\":12002:12005   */\n      dup2\n        /* \"#utility.yul\":11994:12005   */\n      swap1\n      pop\n        /* \"#utility.yul\":12025:12028   */\n      dup2\n        /* \"#utility.yul\":12022:12023   */\n      0x00\n        /* \"#utility.yul\":12015:12029   */\n      mstore\n        /* \"#utility.yul\":12059:12063   */\n      0x20\n        /* \"#utility.yul\":12056:12057   */\n      0x00\n        /* \"#utility.yul\":12046:12064   */\n      keccak256\n        /* \"#utility.yul\":12038:12064   */\n      swap1\n      pop\n        /* \"#utility.yul\":11930:12071   */\n      swap2\n      swap1\n      pop\n      jump\t// out\n        /* \"#utility.yul\":12077:12170   */\n    tag_175:\n        /* \"#utility.yul\":12114:12120   */\n      0x00\n        /* \"#utility.yul\":12161:12163   */\n      0x20\n        /* \"#utility.yul\":12156:12158   */\n      0x1f\n        /* \"#utility.yul\":12149:12154   */\n      dup4\n        /* \"#utility.yul\":12145:12159   */\n      add\n        /* \"#utility.yul\":12141:12164   */\n      div\n        /* \"#utility.yul\":12131:12164   */\n      swap1\n      pop\n        /* \"#utility.yul\":12077:12170   */\n      swap2\n      swap1\n      pop\n      jump\t// out\n        /* \"#utility.yul\":12176:12283   */\n    tag_176:\n        /* \"#utility.yul\":12220:12228   */\n      0x00\n        /* \"#utility.yul\":12270:12275   */\n      dup3\n        /* \"#utility.yul\":12264:12268   */\n      dup3\n        /* \"#utility.yul\":12260:12276   */\n      shl\n        /* \"#utility.yul\":12239:12276   */\n      swap1\n      pop\n        /* \"#utility.yul\":12176:12283   */\n      swap3\n      swap2\n      pop\n      pop\n      jump\t// out\n        /* \"#utility.yul\":12289:12682   */\n    tag_177:\n        /* \"#utility.yul\":12358:12364   */\n      0x00\n        /* \"#utility.yul\":12408:12409   */\n      0x08\n        /* \"#utility.yul\":12396:12406   */\n      dup4\n        /* \"#utility.yul\":12392:12410   */\n      mul\n        /* \"#utility.yul\":12431:12528   */\n      tag_321\n        /* \"#utility.yul\":12461:12527   */\n      0xffffffffffffffffffffffffffffffffffffffffffffffffffffffffffffffff\n        /* \"#utility.yul\":12450:12459   */\n      dup3\n        /* \"#utility.yul\":12431:12528   */\n      tag_176\n      jump\t// in\n    tag_321:\n        /* \"#utility.yul\":12549:12588   */\n      tag_322\n        /* \"#utility.yul\":12579:12587   */\n      dup7\n        /* \"#utility.yul\":12568:12577   */\n      dup4\n        /* \"#utility.yul\":12549:12588   */\n      tag_176\n      jump\t// in\n    tag_322:\n        /* \"#utility.yul\":12537:12588   */\n      swap6\n      pop\n        /* \"#utility.yul\":12621:12625   */\n      dup1\n        /* \"#utility.yul\":12617:12626   */\n      not\n        /* \"#utility.yul\":12610:12615   */\n      dup5\n        /* \"#utility.yul\":12606:12627   */\n      and\n        /* \"#utility.yul\":12597:12627   */\n      swap4\n      pop\n        /* \"#utility.yul\":12670:12674   */\n      dup1\n        /* \"#utility.yul\":12660:12668   */\n      dup7\n        /* \"#utility.yul\":12656:12675   */\n      and\n        /* \"#utility.yul\":12649:12654   */\n      dup5\n        /* \"#utility.yul\":12646:12676   */\n      or\n        /* \"#utility.yul\":12636:12676   */\n      swap3\n      pop\n        /* \"#utility.yul\":12365:12682   */\n      pop\n      pop\n        /* \"#utility.yul\":12289:12682   */\n      swap4\n      swap3\n      pop\n      pop\n      pop\n      jump\t// out\n        /* \"#utility.yul\":12688:12748   */\n    tag_178:\n        /* \"#utility.yul\":12716:12719   */\n      0x00\n        /* \"#utility.yul\":12737:12742   */\n      dup2\n        /* \"#utility.yul\":12730:12742   */\n      swap1\n      pop\n        /* \"#utility.yul\":12688:12748   */\n      swap2\n      swap1\n      pop\n      jump\t// out\n        /* \"#utility.yul\":12754:12896   */\n    tag_179:\n        /* \"#utility.yul\":12804:12813   */\n      0x00\n        /* \"#utility.yul\":12837:12890   */\n      tag_325\n        /* \"#utility.yul\":12855:12889   */\n      tag_326\n        /* \"#utility.yul\":12864:12888   */\n      tag_327\n        /* \"#utility.yul\":12882:12887   */\n      dup5\n        /* \"#utility.yul\":12864:12888   */\n      tag_142\n      jump\t// in\n    tag_327:\n        /* \"#utility.yul\":12855:12889   */\n      tag_178\n      jump\t// in\n    tag_326:\n        /* \"#utility.yul\":12837:12890   */\n      tag_142\n      jump\t// in\n    tag_325:\n        /* \"#utility.yul\":12824:12890   */\n      swap1\n      pop\n        /* \"#utility.yul\":12754:12896   */\n      swap2\n      swap1\n      pop\n      jump\t// out\n        /* \"#utility.yul\":12902:12977   */\n    tag_180:\n        /* \"#utility.yul\":12945:12948   */\n      0x00\n        /* \"#utility.yul\":12966:12971   */\n      dup2\n        /* \"#utility.yul\":12959:12971   */\n      swap1\n      pop\n        /* \"#utility.yul\":12902:12977   */\n      swap2\n      swap1\n      pop\n      jump\t// out\n        /* \"#utility.yul\":12983:13252   */\n    tag_181:\n        /* \"#utility.yul\":13093:13132   */\n      tag_330\n        /* \"#utility.yul\":13124:13131   */\n      dup4\n        /* \"#utility.yul\":13093:13132   */\n      tag_179\n      jump\t// in\n    tag_330:\n        /* \"#utility.yul\":13154:13245   */\n      tag_331\n        /* \"#utility.yul\":13203:13244   */\n      tag_332\n        /* \"#utility.yul\":13227:13243   */\n      dup3\n        /* \"#utility.yul\":13203:13244   */\n      tag_180\n      jump\t// in\n    tag_332:\n        /* \"#utility.yul\":13195:13201   */\n      dup5\n        /* \"#utility.yul\":13188:13192   */\n      dup5\n        /* \"#utility.yul\":13182:13193   */\n      sload\n        /* \"#utility.yul\":13154:13245   */\n      tag_177\n      jump\t// in\n    tag_331:\n        /* \"#utility.yul\":13148:13152   */\n      dup3\n        /* \"#utility.yul\":13141:13246   */\n      sstore\n        /* \"#utility.yul\":13059:13252   */\n      pop\n        /* \"#utility.yul\":12983:13252   */\n      pop\n      pop\n      pop\n      jump\t// out\n        /* \"#utility.yul\":13258:13331   */\n    tag_182:\n        /* \"#utility.yul\":13303:13306   */\n      0x00\n        /* \"#utility.yul\":13258:13331   */\n      swap1\n      jump\t// out\n        /* \"#utility.yul\":13337:13526   */\n    tag_183:\n        /* \"#utility.yul\":13414:13446   */\n      tag_335\n      tag_182\n      jump\t// in\n    tag_335:\n        /* \"#utility.yul\":13455:13520   */\n      tag_336\n        /* \"#utility.yul\":13513:13519   */\n      dup2\n        /* \"#utility.yul\":13505:13511   */\n      dup5\n        /* \"#utility.yul\":13499:13503   */\n      dup5\n        /* \"#utility.yul\":13455:13520   */\n      tag_181\n      jump\t// in\n    tag_336:\n        /* \"#utility.yul\":13390:13526   */\n      pop\n        /* \"#utility.yul\":13337:13526   */\n      pop\n      pop\n      jump\t// out\n        /* \"#utility.yul\":13532:13718   */\n    tag_184:\n        /* \"#utility.yul\":13592:13712   */\n    tag_338:\n        /* \"#utility.yul\":13609:13612   */\n      dup2\n        /* \"#utility.yul\":13602:13607   */\n      dup2\n        /* \"#utility.yul\":13599:13613   */\n      lt\n        /* \"#utility.yul\":13592:13712   */\n      iszero\n      tag_340\n      jumpi\n        /* \"#utility.yul\":13663:13702   */\n      tag_341\n        /* \"#utility.yul\":13700:13701   */\n      0x00\n        /* \"#utility.yul\":13693:13698   */\n      dup3\n        /* \"#utility.yul\":13663:13702   */\n      tag_183\n      jump\t// in\n    tag_341:\n        /* \"#utility.yul\":13636:13637   */\n      0x01\n        /* \"#utility.yul\":13629:13634   */\n      dup2\n        /* \"#utility.yul\":13625:13638   */\n      add\n        /* \"#utility.yul\":13616:13638   */\n      swap1\n      pop\n        /* \"#utility.yul\":13592:13712   */\n      jump(tag_338)\n    tag_340:\n        /* \"#utility.yul\":13532:13718   */\n      pop\n      pop\n      jump\t// out\n        /* \"#utility.yul\":13724:14267   */\n    tag_185:\n        /* \"#utility.yul\":13825:13827   */\n      0x1f\n        /* \"#utility.yul\":13820:13823   */\n      dup3\n        /* \"#utility.yul\":13817:13828   */\n      gt\n        /* \"#utility.yul\":13814:14260   */\n      iszero\n      tag_343\n      jumpi\n        /* \"#utility.yul\":13859:13897   */\n      tag_344\n        /* \"#utility.yul\":13891:13896   */\n      dup2\n        /* \"#utility.yul\":13859:13897   */\n      tag_174\n      jump\t// in\n    tag_344:\n        /* \"#utility.yul\":13943:13972   */\n      tag_345\n        /* \"#utility.yul\":13961:13971   */\n      dup5\n        /* \"#utility.yul\":13943:13972   */\n      tag_175\n      jump\t// in\n    tag_345:\n        /* \"#utility.yul\":13933:13941   */\n      dup2\n        /* \"#utility.yul\":13929:13973   */\n      add\n        /* \"#utility.yul\":14126:14128   */\n      0x20\n        /* \"#utility.yul\":14114:14124   */\n      dup6\n        /* \"#utility.yul\":14111:14129   */\n      lt\n        /* \"#utility.yul\":14108:14157   */\n      iszero\n      tag_346\n      jumpi\n        /* \"#utility.yul\":14147:14155   */\n      dup2\n        /* \"#utility.yul\":14132:14155   */\n      swap1\n      pop\n        /* \"#utility.yul\":14108:14157   */\n    tag_346:\n        /* \"#utility.yul\":14170:14250   */\n      tag_347\n        /* \"#utility.yul\":14226:14248   */\n      tag_348\n        /* \"#utility.yul\":14244:14247   */\n      dup6\n        /* \"#utility.yul\":14226:14248   */\n      tag_175\n      jump\t// in\n    tag_348:\n        /* \"#utility.yul\":14216:14224   */\n      dup4\n        /* \"#utility.yul\":14212:14249   */\n      add\n        /* \"#utility.yul\":14199:14210   */\n      dup3\n        /* \"#utility.yul\":14170:14250   */\n      tag_184\n      jump\t// in\n    tag_347:\n        /* \"#utility.yul\":13829:14260   */\n      pop\n      pop\n        /* \"#utility.yul\":13814:14260   */\n    tag_343:\n        /* \"#utility.yul\":13724:14267   */\n      pop\n      pop\n      pop\n      jump\t// out\n        /* \"#utility.yul\":14273:14390   */\n    tag_186:\n        /* \"#utility.yul\":14327:14335   */\n      0x00\n        /* \"#utility.yul\":14377:14382   */\n      dup3\n        /* \"#utility.yul\":14371:14375   */\n      dup3\n        /* \"#utility.yul\":14367:14383   */\n      shr\n        /* \"#utility.yul\":14346:14383   */\n      swap1\n      pop\n        /* \"#utility.yul\":14273:14390   */\n      swap3\n      swap2\n      pop\n      pop\n      jump\t// out\n        /* \"#utility.yul\":14396:14565   */\n    tag_187:\n        /* \"#utility.yul\":14440:14446   */\n      0x00\n        /* \"#utility.yul\":14473:14524   */\n      tag_351\n        /* \"#utility.yul\":14521:14522   */\n      0x00\n        /* \"#utility.yul\":14517:14523   */\n      not\n        /* \"#utility.yul\":14509:14514   */\n      dup5\n        /* \"#utility.yul\":14506:14507   */\n      0x08\n        /* \"#utility.yul\":14502:14515   */\n      mul\n        /* \"#utility.yul\":14473:14524   */\n      tag_186\n      jump\t// in\n    tag_351:\n        /* \"#utility.yul\":14469:14525   */\n      not\n        /* \"#utility.yul\":14554:14558   */\n      dup1\n        /* \"#utility.yul\":14548:14552   */\n      dup4\n        /* \"#utility.yul\":14544:14559   */\n      and\n        /* \"#utility.yul\":14534:14559   */\n      swap2\n      pop\n        /* \"#utility.yul\":14447:14565   */\n      pop\n        /* \"#utility.yul\":14396:14565   */\n      swap3\n      swap2\n      pop\n      pop\n      jump\t// out\n        /* \"#utility.yul\":14570:14865   */\n    tag_188:\n        /* \"#utility.yul\":14646:14650   */\n      0x00\n        /* \"#utility.yul\":14792:14821   */\n      tag_353\n        /* \"#utility.yul\":14817:14820   */\n      dup4\n        /* \"#utility.yul\":14811:14815   */\n      dup4\n        /* \"#utility.yul\":14792:14821   */\n      tag_187\n      jump\t// in\n    tag_353:\n        /* \"#utility.yul\":14784:14821   */\n      swap2\n      pop\n        /* \"#utility.yul\":14854:14857   */\n      dup3\n        /* \"#utility.yul\":14851:14852   */\n      0x02\n        /* \"#utility.yul\":14847:14858   */\n      mul\n        /* \"#utility.yul\":14841:14845   */\n      dup3\n        /* \"#utility.yul\":14838:14859   */\n      or\n        /* \"#utility.yul\":14830:14859   */\n      swap1\n      pop\n        /* \"#utility.yul\":14570:14865   */\n      swap3\n      swap2\n      pop\n      pop\n      jump\t// out\n        /* \"#utility.yul\":14870:16265   */\n    tag_98:\n        /* \"#utility.yul\":14987:15024   */\n      tag_355\n        /* \"#utility.yul\":15020:15023   */\n      dup3\n        /* \"#utility.yul\":14987:15024   */\n      tag_162\n      jump\t// in\n    tag_355:\n        /* \"#utility.yul\":15089:15107   */\n      0xffffffffffffffff\n        /* \"#utility.yul\":15081:15087   */\n      dup2\n        /* \"#utility.yul\":15078:15108   */\n      gt\n        /* \"#utility.yul\":15075:15131   */\n      iszero\n      tag_356\n      jumpi\n        /* \"#utility.yul\":15111:15129   */\n      tag_357\n      tag_153\n      jump\t// in\n    tag_357:\n        /* \"#utility.yul\":15075:15131   */\n    tag_356:\n        /* \"#utility.yul\":15155:15193   */\n      tag_358\n        /* \"#utility.yul\":15187:15191   */\n      dup3\n        /* \"#utility.yul\":15181:15192   */\n      sload\n        /* \"#utility.yul\":15155:15193   */\n      tag_107\n      jump\t// in\n    tag_358:\n        /* \"#utility.yul\":15240:15307   */\n      tag_359\n        /* \"#utility.yul\":15300:15306   */\n      dup3\n        /* \"#utility.yul\":15292:15298   */\n      dup3\n        /* \"#utility.yul\":15286:15290   */\n      dup6\n        /* \"#utility.yul\":15240:15307   */\n      tag_185\n      jump\t// in\n    tag_359:\n        /* \"#utility.yul\":15334:15335   */\n      0x00\n        /* \"#utility.yul\":15358:15362   */\n      0x20\n        /* \"#utility.yul\":15345:15362   */\n      swap1\n      pop\n        /* \"#utility.yul\":15390:15392   */\n      0x1f\n        /* \"#utility.yul\":15382:15388   */\n      dup4\n        /* \"#utility.yul\":15379:15393   */\n      gt\n        /* \"#utility.yul\":15407:15408   */\n      0x01\n        /* \"#utility.yul\":15402:16020   */\n      dup2\n      eq\n      tag_361\n      jumpi\n        /* \"#utility.yul\":16064:16065   */\n      0x00\n        /* \"#utility.yul\":16081:16087   */\n      dup5\n        /* \"#utility.yul\":16078:16155   */\n      iszero\n      tag_362\n      jumpi\n        /* \"#utility.yul\":16130:16139   */\n      dup3\n        /* \"#utility.yul\":16125:16128   */\n      dup8\n        /* \"#utility.yul\":16121:16140   */\n      add\n        /* \"#utility.yul\":16115:16141   */\n      mload\n        /* \"#utility.yul\":16106:16141   */\n      swap1\n      pop\n        /* \"#utility.yul\":16078:16155   */\n    tag_362:\n        /* \"#utility.yul\":16181:16248   */\n      tag_363\n        /* \"#utility.yul\":16241:16247   */\n      dup6\n        /* \"#utility.yul\":16234:16239   */\n      dup3\n        /* \"#utility.yul\":16181:16248   */\n      tag_188\n      jump\t// in\n    tag_363:\n        /* \"#utility.yul\":16175:16179   */\n      dup7\n        /* \"#utility.yul\":16168:16249   */\n      sstore\n        /* \"#utility.yul\":16037:16259   */\n      pop\n        /* \"#utility.yul\":15372:16259   */\n      jump(tag_360)\n        /* \"#utility.yul\":15402:16020   */\n    tag_361:\n        /* \"#utility.yul\":15454:15458   */\n      0x1f\n        /* \"#utility.yul\":15450:15459   */\n      not\n        /* \"#utility.yul\":15442:15448   */\n      dup5\n        /* \"#utility.yul\":15438:15460   */\n      and\n        /* \"#utility.yul\":15488:15525   */\n      tag_364\n        /* \"#utility.yul\":15520:15524   */\n      dup7\n        /* \"#utility.yul\":15488:15525   */\n      tag_174\n      jump\t// in\n    tag_364:\n        /* \"#utility.yul\":15547:15548   */\n      0x00\n        /* \"#utility.yul\":15561:15769   */\n    tag_365:\n        /* \"#utility.yul\":15575:15582   */\n      dup3\n        /* \"#utility.yul\":15572:15573   */\n      dup2\n        /* \"#utility.yul\":15569:15583   */\n      lt\n        /* \"#utility.yul\":15561:15769   */\n      iszero\n      tag_367\n      jumpi\n        /* \"#utility.yul\":15654:15663   */\n      dup5\n        /* \"#utility.yul\":15649:15652   */\n      dup10\n        /* \"#utility.yul\":15645:15664   */\n      add\n        /* \"#utility.yul\":15639:15665   */\n      mload\n        /* \"#utility.yul\":15631:15637   */\n      dup3\n        /* \"#utility.yul\":15624:15666   */\n      sstore\n        /* \"#utility.yul\":15705:15706   */\n      0x01\n        /* \"#utility.yul\":15697:15703   */\n      dup3\n        /* \"#utility.yul\":15693:15707   */\n      add\n        /* \"#utility.yul\":15683:15707   */\n      swap2\n      pop\n        /* \"#utility.yul\":15752:15754   */\n      0x20\n        /* \"#utility.yul\":15741:15750   */\n      dup6\n        /* \"#utility.yul\":15737:15755   */\n      add\n        /* \"#utility.yul\":15724:15755   */\n      swap5\n      pop\n        /* \"#utility.yul\":15598:15602   */\n      0x20\n        /* \"#utility.yul\":15595:15596   */\n      dup2\n        /* \"#utility.yul\":15591:15603   */\n      add\n        /* \"#utility.yul\":15586:15603   */\n      swap1\n      pop\n        /* \"#utility.yul\":15561:15769   */\n      jump(tag_365)\n    tag_367:\n        /* \"#utility.yul\":15797:15803   */\n      dup7\n        /* \"#utility.yul\":15788:15795   */\n      dup4\n        /* \"#utility.yul\":15785:15804   */\n      lt\n        /* \"#utility.yul\":15782:15961   */\n      iszero\n      tag_368\n      jumpi\n        /* \"#utility.yul\":15855:15864   */\n      dup5\n        /* \"#utility.yul\":15850:15853   */\n      dup10\n        /* \"#utility.yul\":15846:15865   */\n      add\n        /* \"#utility.yul\":15840:15866   */\n      mload\n        /* \"#utility.yul\":15898:15946   */\n      tag_369\n        /* \"#utility.yul\":15940:15944   */\n      0x1f\n        /* \"#utility.yul\":15932:15938   */\n      dup10\n        /* \"#utility.yul\":15928:15945   */\n      and\n        /* \"#utility.yul\":15917:15926   */\n      dup3\n        /* \"#utility.yul\":15898:15946   */\n      tag_187\n      jump\t// in\n    tag_369:\n        /* \"#utility.yul\":15890:15896   */\n      dup4\n        /* \"#utility.yul\":15883:15947   */\n      sstore\n        /* \"#utility.yul\":15805:15961   */\n      pop\n        /* \"#utility.yul\":15782:15961   */\n    tag_368:\n        /* \"#utility.yul\":16007:16008   */\n      0x01\n        /* \"#utility.yul\":16003:16004   */\n      0x02\n        /* \"#utility.yul\":15995:16001   */\n      dup9\n        /* \"#utility.yul\":15991:16005   */\n      mul\n        /* \"#utility.yul\":15987:16009   */\n      add\n        /* \"#utility.yul\":15981:15985   */\n      dup9\n        /* \"#utility.yul\":15974:16010   */\n      sstore\n        /* \"#utility.yul\":15409:16020   */\n      pop\n      pop\n      pop\n        /* \"#utility.yul\":15372:16259   */\n    tag_360:\n      pop\n        /* \"#utility.yul\":14962:16265   */\n      pop\n      pop\n      pop\n        /* \"#utility.yul\":14870:16265   */\n      pop\n      pop\n      jump\t// out\n        /* \"#utility.yul\":16271:16437   */\n    tag_189:\n        /* \"#utility.yul\":16411:16429   */\n      0x4e6f7420656e6f7567682066756e647300000000000000000000000000000000\n        /* \"#utility.yul\":16407:16408   */\n      0x00\n        /* \"#utility.yul\":16399:16405   */\n      dup3\n        /* \"#utility.yul\":16395:16409   */\n      add\n        /* \"#utility.yul\":16388:16430   */\n      mstore\n        /* \"#utility.yul\":16271:16437   */\n      pop\n      jump\t// out\n        /* \"#utility.yul\":16443:16809   */\n    tag_190:\n        /* \"#utility.yul\":16585:16588   */\n      0x00\n        /* \"#utility.yul\":16606:16673   */\n      tag_372\n        /* \"#utility.yul\":16670:16672   */\n      0x10\n        /* \"#utility.yul\":16665:16668   */\n      dup4\n        /* \"#utility.yul\":16606:16673   */\n      tag_163\n      jump\t// in\n    tag_372:\n        /* \"#utility.yul\":16599:16673   */\n      swap2\n      pop\n        /* \"#utility.yul\":16682:16775   */\n      tag_373\n        /* \"#utility.yul\":16771:16774   */\n      dup3\n        /* \"#utility.yul\":16682:16775   */\n      tag_189\n      jump\t// in\n    tag_373:\n        /* \"#utility.yul\":16800:16802   */\n      0x20\n        /* \"#utility.yul\":16795:16798   */\n      dup3\n        /* \"#utility.yul\":16791:16803   */\n      add\n        /* \"#utility.yul\":16784:16803   */\n      swap1\n      pop\n        /* \"#utility.yul\":16443:16809   */\n      swap2\n      swap1\n      pop\n      jump\t// out\n        /* \"#utility.yul\":16815:17234   */\n    tag_101:\n        /* \"#utility.yul\":16981:16985   */\n      0x00\n        /* \"#utility.yul\":17019:17021   */\n      0x20\n        /* \"#utility.yul\":17008:17017   */\n      dup3\n        /* \"#utility.yul\":17004:17022   */\n      add\n        /* \"#utility.yul\":16996:17022   */\n      swap1\n      pop\n        /* \"#utility.yul\":17068:17077   */\n      dup2\n        /* \"#utility.yul\":17062:17066   */\n      dup2\n        /* \"#utility.yul\":17058:17078   */\n      sub\n        /* \"#utility.yul\":17054:17055   */\n      0x00\n        /* \"#utility.yul\":17043:17052   */\n      dup4\n        /* \"#utility.yul\":17039:17056   */\n      add\n        /* \"#utility.yul\":17032:17079   */\n      mstore\n        /* \"#utility.yul\":17096:17227   */\n      tag_375\n        /* \"#utility.yul\":17222:17226   */\n      dup2\n        /* \"#utility.yul\":17096:17227   */\n      tag_190\n      jump\t// in\n    tag_375:\n        /* \"#utility.yul\":17088:17227   */\n      swap1\n      pop\n        /* \"#utility.yul\":16815:17234   */\n      swap2\n      swap1\n      pop\n      jump\t// out\n        /* \"#utility.yul\":17240:17410   */\n    tag_191:\n        /* \"#utility.yul\":17380:17402   */\n      0x4e6f2076616c6964206372656469742063617264000000000000000000000000\n        /* \"#utility.yul\":17376:17377   */\n      0x00\n        /* \"#utility.yul\":17368:17374   */\n      dup3\n        /* \"#utility.yul\":17364:17378   */\n      add\n        /* \"#utility.yul\":17357:17403   */\n      mstore\n        /* \"#utility.yul\":17240:17410   */\n      pop\n      jump\t// out\n        /* \"#utility.yul\":17416:17782   */\n    tag_192:\n        /* \"#utility.yul\":17558:17561   */\n      0x00\n        /* \"#utility.yul\":17579:17646   */\n      tag_378\n        /* \"#utility.yul\":17643:17645   */\n      0x14\n        /* \"#utility.yul\":17638:17641   */\n      dup4\n        /* \"#utility.yul\":17579:17646   */\n      tag_163\n      jump\t// in\n    tag_378:\n        /* \"#utility.yul\":17572:17646   */\n      swap2\n      pop\n        /* \"#utility.yul\":17655:17748   */\n      tag_379\n        /* \"#utility.yul\":17744:17747   */\n      dup3\n        /* \"#utility.yul\":17655:17748   */\n      tag_191\n      jump\t// in\n    tag_379:\n        /* \"#utility.yul\":17773:17775   */\n      0x20\n        /* \"#utility.yul\":17768:17771   */\n      dup3\n        /* \"#utility.yul\":17764:17776   */\n      add\n        /* \"#utility.yul\":17757:17776   */\n      swap1\n      pop\n        /* \"#utility.yul\":17416:17782   */\n      swap2\n      swap1\n      pop\n      jump\t// out\n        /* \"#utility.yul\":17788:18207   */\n    tag_112:\n        /* \"#utility.yul\":17954:17958   */\n      0x00\n        /* \"#utility.yul\":17992:17994   */\n      0x20\n        /* \"#utility.yul\":17981:17990   */\n      dup3\n        /* \"#utility.yul\":17977:17995   */\n      add\n        /* \"#utility.yul\":17969:17995   */\n      swap1\n      pop\n        /* \"#utility.yul\":18041:18050   */\n      dup2\n        /* \"#utility.yul\":18035:18039   */\n      dup2\n        /* \"#utility.yul\":18031:18051   */\n      sub\n        /* \"#utility.yul\":18027:18028   */\n      0x00\n        /* \"#utility.yul\":18016:18025   */\n      dup4\n        /* \"#utility.yul\":18012:18029   */\n      add\n        /* \"#utility.yul\":18005:18052   */\n      mstore\n        /* \"#utility.yul\":18069:18200   */\n      tag_381\n        /* \"#utility.yul\":18195:18199   */\n      dup2\n        /* \"#utility.yul\":18069:18200   */\n      tag_192\n      jump\t// in\n    tag_381:\n        /* \"#utility.yul\":18061:18200   */\n      swap1\n      pop\n        /* \"#utility.yul\":17788:18207   */\n      swap2\n      swap1\n      pop\n      jump\t// out\n\n    auxdata: 0xa26469706673582212204b4a8acfb8e24444381d4ce6c7150637748f48852b831a2bbccd97900f90bad264736f6c63430008100033\n}\n",
				"bytecode": {
					"linkReferences": {},
					"object": "608060405260006008556000600960006101000a81548160ff0219169083151502179055503480156200003157600080fd5b50604051620014dc380380620014dc8339818101604052810190620000579190620000a5565b8060018190555050620000d7565b600080fd5b6000819050919050565b6200007f816200006a565b81146200008b57600080fd5b50565b6000815190506200009f8162000074565b92915050565b600060208284031215620000be57620000bd62000065565b5b6000620000ce848285016200008e565b91505092915050565b6113f580620000e76000396000f3fe608060405234801561001057600080fd5b50600436106100cf5760003560e01c80634b28f9a21161008c5780637eb9f571116100665780637eb9f571146101f15780638e029c0b1461020f5780638fa1186414610219578063e21f37ce14610237576100cf565b80634b28f9a214610197578063557ed1ba146101b55780637b9a3f4c146101d3576100cf565b806305d8eb96146100d45780630e85fa72146100f057806312a029a41461010e5780631861929b1461012a5780633c626f001461015b57806342fb793614610179575b600080fd5b6100ee60048036038101906100e99190610a84565b610255565b005b6100f861065d565b6040516101059190610ae6565b60405180910390f35b61012860048036038101906101239190610c47565b610663565b005b610144600480360381019061013f9190610cbf565b610714565b604051610152929190610cff565b60405180910390f35b610163610755565b6040516101709190610d43565b60405180910390f35b610181610768565b60405161018e9190610ddd565b60405180910390f35b61019f6107f6565b6040516101ac9190610ae6565b60405180910390f35b6101bd6107fc565b6040516101ca9190610ae6565b60405180910390f35b6101db610804565b6040516101e89190610ae6565b60405180910390f35b6101f961080a565b6040516102069190610ae6565b60405180910390f35b610217610810565b005b61022161082d565b60405161022e9190610ddd565b60405180910390f35b61023f6108bb565b60405161024c9190610ddd565b60405180910390f35b8180600260006101000a81548173ffffffffffffffffffffffffffffffffffffffff021916908373ffffffffffffffffffffffffffffffffffffffff160217905550600073ffffffffffffffffffffffffffffffffffffffff168173ffffffffffffffffffffffffffffffffffffffff1603610306576040517f08c379a00000000000000000000000000000000000000000000000000000000081526004016102fd90610e4b565b60405180910390fd5b60001515600960009054906101000a900460ff1615150361035c576040517f08c379a000000000000000000000000000000000000000000000000000000000815260040161035390610eb7565b60405180910390fd5b60056008541015801561037d5750601e6007546103799190610f06565b4211155b156103d857600060088190555060006008541461039d5761039c610f3a565b5b6040517f08c379a00000000000000000000000000000000000000000000000000000000081526004016103cf90610fb5565b60405180910390fd5b6005600854111580156103f95750601e6007546103f59190610f06565b4210155b1561042157600060088190555060006008541461041957610418610f3a565b5b426007819055505b82600260006101000a81548173ffffffffffffffffffffffffffffffffffffffff021916908373ffffffffffffffffffffffffffffffffffffffff1602179055506000604051806040016040528086815260200184815250905060016008600082825461048e9190610f06565b9250508190555060006001541180156104ac57508060000151600154115b1561061b5760008060003373ffffffffffffffffffffffffffffffffffffffff1673ffffffffffffffffffffffffffffffffffffffff168152602001908152602001600020905080604051806040016040528088815260200142815250908060018154018082558091505060019003906000526020600020906002020160009091909190915060008201518160000155602082015181600101555050806000803373ffffffffffffffffffffffffffffffffffffffff1673ffffffffffffffffffffffffffffffffffffffff168152602001908152602001600020908054610595929190610949565b508160000151600160008282546105ac9190610fd5565b925050819055508160000151600660008282546105c99190610f06565b925050819055506040518060400160405280601281526020017f5472616e7366657220636f6d706c657465640000000000000000000000000000815250600390816106149190611215565b5050610656565b6040517f08c379a000000000000000000000000000000000000000000000000000000000815260040161064d90611333565b60405180910390fd5b5050505050565b60075481565b81600490816106729190611215565b5080600590816106829190611215565b506001600960006101000a81548160ff021916908315150217905550426007819055506008600480546106b490611038565b90501480156106d157506003600580546106cd90611038565b9050145b610710576040517f08c379a00000000000000000000000000000000000000000000000000000000081526004016107079061139f565b60405180910390fd5b5050565b6000602052816000526040600020818154811061073057600080fd5b9060005260206000209060020201600091509150508060000154908060010154905082565b600960009054906101000a900460ff1681565b6005805461077590611038565b80601f01602080910402602001604051908101604052809291908181526020018280546107a190611038565b80156107ee5780601f106107c3576101008083540402835291602001916107ee565b820191906000526020600020905b8154815290600101906020018083116107d157829003601f168201915b505050505081565b60085481565b600042905090565b60015481565b60065481565b6000600960006101000a81548160ff021916908315150217905550565b6004805461083a90611038565b80601f016020809104026020016040519081016040528092919081815260200182805461086690611038565b80156108b35780601f10610888576101008083540402835291602001916108b3565b820191906000526020600020905b81548152906001019060200180831161089657829003601f168201915b505050505081565b600380546108c890611038565b80601f01602080910402602001604051908101604052809291908181526020018280546108f490611038565b80156109415780601f1061091657610100808354040283529160200191610941565b820191906000526020600020905b81548152906001019060200180831161092457829003601f168201915b505050505081565b8280548282559060005260206000209060020281019282156109a45760005260206000209160020282015b828111156109a35782826000820154816000015560018201548160010155505091600201919060020190610974565b5b5090506109b191906109b5565b5090565b5b808211156109d8576000808201600090556001820160009055506002016109b6565b5090565b6000604051905090565b600080fd5b600080fd5b6000819050919050565b610a03816109f0565b8114610a0e57600080fd5b50565b600081359050610a20816109fa565b92915050565b600073ffffffffffffffffffffffffffffffffffffffff82169050919050565b6000610a5182610a26565b9050919050565b610a6181610a46565b8114610a6c57600080fd5b50565b600081359050610a7e81610a58565b92915050565b600080600060608486031215610a9d57610a9c6109e6565b5b6000610aab86828701610a11565b9350506020610abc86828701610a6f565b9250506040610acd86828701610a11565b9150509250925092565b610ae0816109f0565b82525050565b6000602082019050610afb6000830184610ad7565b92915050565b600080fd5b600080fd5b6000601f19601f8301169050919050565b7f4e487b7100000000000000000000000000000000000000000000000000000000600052604160045260246000fd5b610b5482610b0b565b810181811067ffffffffffffffff82111715610b7357610b72610b1c565b5b80604052505050565b6000610b866109dc565b9050610b928282610b4b565b919050565b600067ffffffffffffffff821115610bb257610bb1610b1c565b5b610bbb82610b0b565b9050602081019050919050565b82818337600083830152505050565b6000610bea610be584610b97565b610b7c565b905082815260208101848484011115610c0657610c05610b06565b5b610c11848285610bc8565b509392505050565b600082601f830112610c2e57610c2d610b01565b5b8135610c3e848260208601610bd7565b91505092915050565b60008060408385031215610c5e57610c5d6109e6565b5b600083013567ffffffffffffffff811115610c7c57610c7b6109eb565b5b610c8885828601610c19565b925050602083013567ffffffffffffffff811115610ca957610ca86109eb565b5b610cb585828601610c19565b9150509250929050565b60008060408385031215610cd657610cd56109e6565b5b6000610ce485828601610a6f565b9250506020610cf585828601610a11565b9150509250929050565b6000604082019050610d146000830185610ad7565b610d216020830184610ad7565b9392505050565b60008115159050919050565b610d3d81610d28565b82525050565b6000602082019050610d586000830184610d34565b92915050565b600081519050919050565b600082825260208201905092915050565b60005b83811015610d98578082015181840152602081019050610d7d565b60008484015250505050565b6000610daf82610d5e565b610db98185610d69565b9350610dc9818560208601610d7a565b610dd281610b0b565b840191505092915050565b60006020820190508181036000830152610df78184610da4565b905092915050565b7f2054686973206164647265737320646f65736e27742065786973747300000000600082015250565b6000610e35601c83610d69565b9150610e4082610dff565b602082019050919050565b60006020820190508181036000830152610e6481610e28565b9050919050565b7f506c6561736520696e7365727420796f75722063617264000000000000000000600082015250565b6000610ea1601783610d69565b9150610eac82610e6b565b602082019050919050565b60006020820190508181036000830152610ed081610e94565b9050919050565b7f4e487b7100000000000000000000000000000000000000000000000000000000600052601160045260246000fd5b6000610f11826109f0565b9150610f1c836109f0565b9250828201905080821115610f3457610f33610ed7565b5b92915050565b7f4e487b7100000000000000000000000000000000000000000000000000000000600052600160045260246000fd5b7f6f6e6c792035207472616e73616374696f6e7320706572206461790000000000600082015250565b6000610f9f601b83610d69565b9150610faa82610f69565b602082019050919050565b60006020820190508181036000830152610fce81610f92565b9050919050565b6000610fe0826109f0565b9150610feb836109f0565b925082820390508181111561100357611002610ed7565b5b92915050565b7f4e487b7100000000000000000000000000000000000000000000000000000000600052602260045260246000fd5b6000600282049050600182168061105057607f821691505b60208210810361106357611062611009565b5b50919050565b60008190508160005260206000209050919050565b60006020601f8301049050919050565b600082821b905092915050565b6000600883026110cb7fffffffffffffffffffffffffffffffffffffffffffffffffffffffffffffffff8261108e565b6110d5868361108e565b95508019841693508086168417925050509392505050565b6000819050919050565b600061111261110d611108846109f0565b6110ed565b6109f0565b9050919050565b6000819050919050565b61112c836110f7565b61114061113882611119565b84845461109b565b825550505050565b600090565b611155611148565b611160818484611123565b505050565b5b818110156111845761117960008261114d565b600181019050611166565b5050565b601f8211156111c95761119a81611069565b6111a38461107e565b810160208510156111b2578190505b6111c66111be8561107e565b830182611165565b50505b505050565b600082821c905092915050565b60006111ec600019846008026111ce565b1980831691505092915050565b600061120583836111db565b9150826002028217905092915050565b61121e82610d5e565b67ffffffffffffffff81111561123757611236610b1c565b5b6112418254611038565b61124c828285611188565b600060209050601f83116001811461127f576000841561126d578287015190505b61127785826111f9565b8655506112df565b601f19841661128d86611069565b60005b828110156112b557848901518255600182019150602085019450602081019050611290565b868310156112d257848901516112ce601f8916826111db565b8355505b6001600288020188555050505b505050505050565b7f4e6f7420656e6f7567682066756e647300000000000000000000000000000000600082015250565b600061131d601083610d69565b9150611328826112e7565b602082019050919050565b6000602082019050818103600083015261134c81611310565b9050919050565b7f4e6f2076616c6964206372656469742063617264000000000000000000000000600082015250565b6000611389601483610d69565b915061139482611353565b602082019050919050565b600060208201905081810360008301526113b88161137c565b905091905056fea26469706673582212204b4a8acfb8e24444381d4ce6c7150637748f48852b831a2bbccd97900f90bad264736f6c63430008100033",
					"opcodes": "PUSH1 0x80 PUSH1 0x40 MSTORE PUSH1 0x0 PUSH1 0x8 SSTORE PUSH1 0x0 PUSH1 0x9 PUSH1 0x0 PUSH2 0x100 EXP DUP2 SLOAD DUP2 PUSH1 0xFF MUL NOT AND SWAP1 DUP4 ISZERO ISZERO MUL OR SWAP1 SSTORE POP CALLVALUE DUP1 ISZERO PUSH3 0x31 JUMPI PUSH1 0x0 DUP1 REVERT JUMPDEST POP PUSH1 0x40 MLOAD PUSH3 0x14DC CODESIZE SUB DUP1 PUSH3 0x14DC DUP4 CODECOPY DUP2 DUP2 ADD PUSH1 0x40 MSTORE DUP2 ADD SWAP1 PUSH3 0x57 SWAP2 SWAP1 PUSH3 0xA5 JUMP JUMPDEST DUP1 PUSH1 0x1 DUP2 SWAP1 SSTORE POP POP PUSH3 0xD7 JUMP JUMPDEST PUSH1 0x0 DUP1 REVERT JUMPDEST PUSH1 0x0 DUP2 SWAP1 POP SWAP2 SWAP1 POP JUMP JUMPDEST PUSH3 0x7F DUP2 PUSH3 0x6A JUMP JUMPDEST DUP2 EQ PUSH3 0x8B JUMPI PUSH1 0x0 DUP1 REVERT JUMPDEST POP JUMP JUMPDEST PUSH1 0x0 DUP2 MLOAD SWAP1 POP PUSH3 0x9F DUP2 PUSH3 0x74 JUMP JUMPDEST SWAP3 SWAP2 POP POP JUMP JUMPDEST PUSH1 0x0 PUSH1 0x20 DUP3 DUP5 SUB SLT ISZERO PUSH3 0xBE JUMPI PUSH3 0xBD PUSH3 0x65 JUMP JUMPDEST JUMPDEST PUSH1 0x0 PUSH3 0xCE DUP5 DUP3 DUP6 ADD PUSH3 0x8E JUMP JUMPDEST SWAP2 POP POP SWAP3 SWAP2 POP POP JUMP JUMPDEST PUSH2 0x13F5 DUP1 PUSH3 0xE7 PUSH1 0x0 CODECOPY PUSH1 0x0 RETURN INVALID PUSH1 0x80 PUSH1 0x40 MSTORE CALLVALUE DUP1 ISZERO PUSH2 0x10 JUMPI PUSH1 0x0 DUP1 REVERT JUMPDEST POP PUSH1 0x4 CALLDATASIZE LT PUSH2 0xCF JUMPI PUSH1 0x0 CALLDATALOAD PUSH1 0xE0 SHR DUP1 PUSH4 0x4B28F9A2 GT PUSH2 0x8C JUMPI DUP1 PUSH4 0x7EB9F571 GT PUSH2 0x66 JUMPI DUP1 PUSH4 0x7EB9F571 EQ PUSH2 0x1F1 JUMPI DUP1 PUSH4 0x8E029C0B EQ PUSH2 0x20F JUMPI DUP1 PUSH4 0x8FA11864 EQ PUSH2 0x219 JUMPI DUP1 PUSH4 0xE21F37CE EQ PUSH2 0x237 JUMPI PUSH2 0xCF JUMP JUMPDEST DUP1 PUSH4 0x4B28F9A2 EQ PUSH2 0x197 JUMPI DUP1 PUSH4 0x557ED1BA EQ PUSH2 0x1B5 JUMPI DUP1 PUSH4 0x7B9A3F4C EQ PUSH2 0x1D3 JUMPI PUSH2 0xCF JUMP JUMPDEST DUP1 PUSH4 0x5D8EB96 EQ PUSH2 0xD4 JUMPI DUP1 PUSH4 0xE85FA72 EQ PUSH2 0xF0 JUMPI DUP1 PUSH4 0x12A029A4 EQ PUSH2 0x10E JUMPI DUP1 PUSH4 0x1861929B EQ PUSH2 0x12A JUMPI DUP1 PUSH4 0x3C626F00 EQ PUSH2 0x15B JUMPI DUP1 PUSH4 0x42FB7936 EQ PUSH2 0x179 JUMPI JUMPDEST PUSH1 0x0 DUP1 REVERT JUMPDEST PUSH2 0xEE PUSH1 0x4 DUP1 CALLDATASIZE SUB DUP2 ADD SWAP1 PUSH2 0xE9 SWAP2 SWAP1 PUSH2 0xA84 JUMP JUMPDEST PUSH2 0x255 JUMP JUMPDEST STOP JUMPDEST PUSH2 0xF8 PUSH2 0x65D JUMP JUMPDEST PUSH1 0x40 MLOAD PUSH2 0x105 SWAP2 SWAP1 PUSH2 0xAE6 JUMP JUMPDEST PUSH1 0x40 MLOAD DUP1 SWAP2 SUB SWAP1 RETURN JUMPDEST PUSH2 0x128 PUSH1 0x4 DUP1 CALLDATASIZE SUB DUP2 ADD SWAP1 PUSH2 0x123 SWAP2 SWAP1 PUSH2 0xC47 JUMP JUMPDEST PUSH2 0x663 JUMP JUMPDEST STOP JUMPDEST PUSH2 0x144 PUSH1 0x4 DUP1 CALLDATASIZE SUB DUP2 ADD SWAP1 PUSH2 0x13F SWAP2 SWAP1 PUSH2 0xCBF JUMP JUMPDEST PUSH2 0x714 JUMP JUMPDEST PUSH1 0x40 MLOAD PUSH2 0x152 SWAP3 SWAP2 SWAP1 PUSH2 0xCFF JUMP JUMPDEST PUSH1 0x40 MLOAD DUP1 SWAP2 SUB SWAP1 RETURN JUMPDEST PUSH2 0x163 PUSH2 0x755 JUMP JUMPDEST PUSH1 0x40 MLOAD PUSH2 0x170 SWAP2 SWAP1 PUSH2 0xD43 JUMP JUMPDEST PUSH1 0x40 MLOAD DUP1 SWAP2 SUB SWAP1 RETURN JUMPDEST PUSH2 0x181 PUSH2 0x768 JUMP JUMPDEST PUSH1 0x40 MLOAD PUSH2 0x18E SWAP2 SWAP1 PUSH2 0xDDD JUMP JUMPDEST PUSH1 0x40 MLOAD DUP1 SWAP2 SUB SWAP1 RETURN JUMPDEST PUSH2 0x19F PUSH2 0x7F6 JUMP JUMPDEST PUSH1 0x40 MLOAD PUSH2 0x1AC SWAP2 SWAP1 PUSH2 0xAE6 JUMP JUMPDEST PUSH1 0x40 MLOAD DUP1 SWAP2 SUB SWAP1 RETURN JUMPDEST PUSH2 0x1BD PUSH2 0x7FC JUMP JUMPDEST PUSH1 0x40 MLOAD PUSH2 0x1CA SWAP2 SWAP1 PUSH2 0xAE6 JUMP JUMPDEST PUSH1 0x40 MLOAD DUP1 SWAP2 SUB SWAP1 RETURN JUMPDEST PUSH2 0x1DB PUSH2 0x804 JUMP JUMPDEST PUSH1 0x40 MLOAD PUSH2 0x1E8 SWAP2 SWAP1 PUSH2 0xAE6 JUMP JUMPDEST PUSH1 0x40 MLOAD DUP1 SWAP2 SUB SWAP1 RETURN JUMPDEST PUSH2 0x1F9 PUSH2 0x80A JUMP JUMPDEST PUSH1 0x40 MLOAD PUSH2 0x206 SWAP2 SWAP1 PUSH2 0xAE6 JUMP JUMPDEST PUSH1 0x40 MLOAD DUP1 SWAP2 SUB SWAP1 RETURN JUMPDEST PUSH2 0x217 PUSH2 0x810 JUMP JUMPDEST STOP JUMPDEST PUSH2 0x221 PUSH2 0x82D JUMP JUMPDEST PUSH1 0x40 MLOAD PUSH2 0x22E SWAP2 SWAP1 PUSH2 0xDDD JUMP JUMPDEST PUSH1 0x40 MLOAD DUP1 SWAP2 SUB SWAP1 RETURN JUMPDEST PUSH2 0x23F PUSH2 0x8BB JUMP JUMPDEST PUSH1 0x40 MLOAD PUSH2 0x24C SWAP2 SWAP1 PUSH2 0xDDD JUMP JUMPDEST PUSH1 0x40 MLOAD DUP1 SWAP2 SUB SWAP1 RETURN JUMPDEST DUP2 DUP1 PUSH1 0x2 PUSH1 0x0 PUSH2 0x100 EXP DUP2 SLOAD DUP2 PUSH20 0xFFFFFFFFFFFFFFFFFFFFFFFFFFFFFFFFFFFFFFFF MUL NOT AND SWAP1 DUP4 PUSH20 0xFFFFFFFFFFFFFFFFFFFFFFFFFFFFFFFFFFFFFFFF AND MUL OR SWAP1 SSTORE POP PUSH1 0x0 PUSH20 0xFFFFFFFFFFFFFFFFFFFFFFFFFFFFFFFFFFFFFFFF AND DUP2 PUSH20 0xFFFFFFFFFFFFFFFFFFFFFFFFFFFFFFFFFFFFFFFF AND SUB PUSH2 0x306 JUMPI PUSH1 0x40 MLOAD PUSH32 0x8C379A000000000000000000000000000000000000000000000000000000000 DUP2 MSTORE PUSH1 0x4 ADD PUSH2 0x2FD SWAP1 PUSH2 0xE4B JUMP JUMPDEST PUSH1 0x40 MLOAD DUP1 SWAP2 SUB SWAP1 REVERT JUMPDEST PUSH1 0x0 ISZERO ISZERO PUSH1 0x9 PUSH1 0x0 SWAP1 SLOAD SWAP1 PUSH2 0x100 EXP SWAP1 DIV PUSH1 0xFF AND ISZERO ISZERO SUB PUSH2 0x35C JUMPI PUSH1 0x40 MLOAD PUSH32 0x8C379A000000000000000000000000000000000000000000000000000000000 DUP2 MSTORE PUSH1 0x4 ADD PUSH2 0x353 SWAP1 PUSH2 0xEB7 JUMP JUMPDEST PUSH1 0x40 MLOAD DUP1 SWAP2 SUB SWAP1 REVERT JUMPDEST PUSH1 0x5 PUSH1 0x8 SLOAD LT ISZERO DUP1 ISZERO PUSH2 0x37D JUMPI POP PUSH1 0x1E PUSH1 0x7 SLOAD PUSH2 0x379 SWAP2 SWAP1 PUSH2 0xF06 JUMP JUMPDEST TIMESTAMP GT ISZERO JUMPDEST ISZERO PUSH2 0x3D8 JUMPI PUSH1 0x0 PUSH1 0x8 DUP2 SWAP1 SSTORE POP PUSH1 0x0 PUSH1 0x8 SLOAD EQ PUSH2 0x39D JUMPI PUSH2 0x39C PUSH2 0xF3A JUMP JUMPDEST JUMPDEST PUSH1 0x40 MLOAD PUSH32 0x8C379A000000000000000000000000000000000000000000000000000000000 DUP2 MSTORE PUSH1 0x4 ADD PUSH2 0x3CF SWAP1 PUSH2 0xFB5 JUMP JUMPDEST PUSH1 0x40 MLOAD DUP1 SWAP2 SUB SWAP1 REVERT JUMPDEST PUSH1 0x5 PUSH1 0x8 SLOAD GT ISZERO DUP1 ISZERO PUSH2 0x3F9 JUMPI POP PUSH1 0x1E PUSH1 0x7 SLOAD PUSH2 0x3F5 SWAP2 SWAP1 PUSH2 0xF06 JUMP JUMPDEST TIMESTAMP LT ISZERO JUMPDEST ISZERO PUSH2 0x421 JUMPI PUSH1 0x0 PUSH1 0x8 DUP2 SWAP1 SSTORE POP PUSH1 0x0 PUSH1 0x8 SLOAD EQ PUSH2 0x419 JUMPI PUSH2 0x418 PUSH2 0xF3A JUMP JUMPDEST JUMPDEST TIMESTAMP PUSH1 0x7 DUP2 SWAP1 SSTORE POP JUMPDEST DUP3 PUSH1 0x2 PUSH1 0x0 PUSH2 0x100 EXP DUP2 SLOAD DUP2 PUSH20 0xFFFFFFFFFFFFFFFFFFFFFFFFFFFFFFFFFFFFFFFF MUL NOT AND SWAP1 DUP4 PUSH20 0xFFFFFFFFFFFFFFFFFFFFFFFFFFFFFFFFFFFFFFFF AND MUL OR SWAP1 SSTORE POP PUSH1 0x0 PUSH1 0x40 MLOAD DUP1 PUSH1 0x40 ADD PUSH1 0x40 MSTORE DUP1 DUP7 DUP2 MSTORE PUSH1 0x20 ADD DUP5 DUP2 MSTORE POP SWAP1 POP PUSH1 0x1 PUSH1 0x8 PUSH1 0x0 DUP3 DUP3 SLOAD PUSH2 0x48E SWAP2 SWAP1 PUSH2 0xF06 JUMP JUMPDEST SWAP3 POP POP DUP2 SWAP1 SSTORE POP PUSH1 0x0 PUSH1 0x1 SLOAD GT DUP1 ISZERO PUSH2 0x4AC JUMPI POP DUP1 PUSH1 0x0 ADD MLOAD PUSH1 0x1 SLOAD GT JUMPDEST ISZERO PUSH2 0x61B JUMPI PUSH1 0x0 DUP1 PUSH1 0x0 CALLER PUSH20 0xFFFFFFFFFFFFFFFFFFFFFFFFFFFFFFFFFFFFFFFF AND PUSH20 0xFFFFFFFFFFFFFFFFFFFFFFFFFFFFFFFFFFFFFFFF AND DUP2 MSTORE PUSH1 0x20 ADD SWAP1 DUP2 MSTORE PUSH1 0x20 ADD PUSH1 0x0 KECCAK256 SWAP1 POP DUP1 PUSH1 0x40 MLOAD DUP1 PUSH1 0x40 ADD PUSH1 0x40 MSTORE DUP1 DUP9 DUP2 MSTORE PUSH1 0x20 ADD TIMESTAMP DUP2 MSTORE POP SWAP1 DUP1 PUSH1 0x1 DUP2 SLOAD ADD DUP1 DUP3 SSTORE DUP1 SWAP2 POP POP PUSH1 0x1 SWAP1 SUB SWAP1 PUSH1 0x0 MSTORE PUSH1 0x20 PUSH1 0x0 KECCAK256 SWAP1 PUSH1 0x2 MUL ADD PUSH1 0x0 SWAP1 SWAP2 SWAP1 SWAP2 SWAP1 SWAP2 POP PUSH1 0x0 DUP3 ADD MLOAD DUP2 PUSH1 0x0 ADD SSTORE PUSH1 0x20 DUP3 ADD MLOAD DUP2 PUSH1 0x1 ADD SSTORE POP POP DUP1 PUSH1 0x0 DUP1 CALLER PUSH20 0xFFFFFFFFFFFFFFFFFFFFFFFFFFFFFFFFFFFFFFFF AND PUSH20 0xFFFFFFFFFFFFFFFFFFFFFFFFFFFFFFFFFFFFFFFF AND DUP2 MSTORE PUSH1 0x20 ADD SWAP1 DUP2 MSTORE PUSH1 0x20 ADD PUSH1 0x0 KECCAK256 SWAP1 DUP1 SLOAD PUSH2 0x595 SWAP3 SWAP2 SWAP1 PUSH2 0x949 JUMP JUMPDEST POP DUP2 PUSH1 0x0 ADD MLOAD PUSH1 0x1 PUSH1 0x0 DUP3 DUP3 SLOAD PUSH2 0x5AC SWAP2 SWAP1 PUSH2 0xFD5 JUMP JUMPDEST SWAP3 POP POP DUP2 SWAP1 SSTORE POP DUP2 PUSH1 0x0 ADD MLOAD PUSH1 0x6 PUSH1 0x0 DUP3 DUP3 SLOAD PUSH2 0x5C9 SWAP2 SWAP1 PUSH2 0xF06 JUMP JUMPDEST SWAP3 POP POP DUP2 SWAP1 SSTORE POP PUSH1 0x40 MLOAD DUP1 PUSH1 0x40 ADD PUSH1 0x40 MSTORE DUP1 PUSH1 0x12 DUP2 MSTORE PUSH1 0x20 ADD PUSH32 0x5472616E7366657220636F6D706C657465640000000000000000000000000000 DUP2 MSTORE POP PUSH1 0x3 SWAP1 DUP2 PUSH2 0x614 SWAP2 SWAP1 PUSH2 0x1215 JUMP JUMPDEST POP POP PUSH2 0x656 JUMP JUMPDEST PUSH1 0x40 MLOAD PUSH32 0x8C379A000000000000000000000000000000000000000000000000000000000 DUP2 MSTORE PUSH1 0x4 ADD PUSH2 0x64D SWAP1 PUSH2 0x1333 JUMP JUMPDEST PUSH1 0x40 MLOAD DUP1 SWAP2 SUB SWAP1 REVERT JUMPDEST POP POP POP POP POP JUMP JUMPDEST PUSH1 0x7 SLOAD DUP2 JUMP JUMPDEST DUP2 PUSH1 0x4 SWAP1 DUP2 PUSH2 0x672 SWAP2 SWAP1 PUSH2 0x1215 JUMP JUMPDEST POP DUP1 PUSH1 0x5 SWAP1 DUP2 PUSH2 0x682 SWAP2 SWAP1 PUSH2 0x1215 JUMP JUMPDEST POP PUSH1 0x1 PUSH1 0x9 PUSH1 0x0 PUSH2 0x100 EXP DUP2 SLOAD DUP2 PUSH1 0xFF MUL NOT AND SWAP1 DUP4 ISZERO ISZERO MUL OR SWAP1 SSTORE POP TIMESTAMP PUSH1 0x7 DUP2 SWAP1 SSTORE POP PUSH1 0x8 PUSH1 0x4 DUP1 SLOAD PUSH2 0x6B4 SWAP1 PUSH2 0x1038 JUMP JUMPDEST SWAP1 POP EQ DUP1 ISZERO PUSH2 0x6D1 JUMPI POP PUSH1 0x3 PUSH1 0x5 DUP1 SLOAD PUSH2 0x6CD SWAP1 PUSH2 0x1038 JUMP JUMPDEST SWAP1 POP EQ JUMPDEST PUSH2 0x710 JUMPI PUSH1 0x40 MLOAD PUSH32 0x8C379A000000000000000000000000000000000000000000000000000000000 DUP2 MSTORE PUSH1 0x4 ADD PUSH2 0x707 SWAP1 PUSH2 0x139F JUMP JUMPDEST PUSH1 0x40 MLOAD DUP1 SWAP2 SUB SWAP1 REVERT JUMPDEST POP POP JUMP JUMPDEST PUSH1 0x0 PUSH1 0x20 MSTORE DUP2 PUSH1 0x0 MSTORE PUSH1 0x40 PUSH1 0x0 KECCAK256 DUP2 DUP2 SLOAD DUP2 LT PUSH2 0x730 JUMPI PUSH1 0x0 DUP1 REVERT JUMPDEST SWAP1 PUSH1 0x0 MSTORE PUSH1 0x20 PUSH1 0x0 KECCAK256 SWAP1 PUSH1 0x2 MUL ADD PUSH1 0x0 SWAP2 POP SWAP2 POP POP DUP1 PUSH1 0x0 ADD SLOAD SWAP1 DUP1 PUSH1 0x1 ADD SLOAD SWAP1 POP DUP3 JUMP JUMPDEST PUSH1 0x9 PUSH1 0x0 SWAP1 SLOAD SWAP1 PUSH2 0x100 EXP SWAP1 DIV PUSH1 0xFF AND DUP2 JUMP JUMPDEST PUSH1 0x5 DUP1 SLOAD PUSH2 0x775 SWAP1 PUSH2 0x1038 JUMP JUMPDEST DUP1 PUSH1 0x1F ADD PUSH1 0x20 DUP1 SWAP2 DIV MUL PUSH1 0x20 ADD PUSH1 0x40 MLOAD SWAP1 DUP2 ADD PUSH1 0x40 MSTORE DUP1 SWAP3 SWAP2 SWAP1 DUP2 DUP2 MSTORE PUSH1 0x20 ADD DUP3 DUP1 SLOAD PUSH2 0x7A1 SWAP1 PUSH2 0x1038 JUMP JUMPDEST DUP1 ISZERO PUSH2 0x7EE JUMPI DUP1 PUSH1 0x1F LT PUSH2 0x7C3 JUMPI PUSH2 0x100 DUP1 DUP4 SLOAD DIV MUL DUP4 MSTORE SWAP2 PUSH1 0x20 ADD SWAP2 PUSH2 0x7EE JUMP JUMPDEST DUP3 ADD SWAP2 SWAP1 PUSH1 0x0 MSTORE PUSH1 0x20 PUSH1 0x0 KECCAK256 SWAP1 JUMPDEST DUP2 SLOAD DUP2 MSTORE SWAP1 PUSH1 0x1 ADD SWAP1 PUSH1 0x20 ADD DUP1 DUP4 GT PUSH2 0x7D1 JUMPI DUP3 SWAP1 SUB PUSH1 0x1F AND DUP3 ADD SWAP2 JUMPDEST POP POP POP POP POP DUP2 JUMP JUMPDEST PUSH1 0x8 SLOAD DUP2 JUMP JUMPDEST PUSH1 0x0 TIMESTAMP SWAP1 POP SWAP1 JUMP JUMPDEST PUSH1 0x1 SLOAD DUP2 JUMP JUMPDEST PUSH1 0x6 SLOAD DUP2 JUMP JUMPDEST PUSH1 0x0 PUSH1 0x9 PUSH1 0x0 PUSH2 0x100 EXP DUP2 SLOAD DUP2 PUSH1 0xFF MUL NOT AND SWAP1 DUP4 ISZERO ISZERO MUL OR SWAP1 SSTORE POP JUMP JUMPDEST PUSH1 0x4 DUP1 SLOAD PUSH2 0x83A SWAP1 PUSH2 0x1038 JUMP JUMPDEST DUP1 PUSH1 0x1F ADD PUSH1 0x20 DUP1 SWAP2 DIV MUL PUSH1 0x20 ADD PUSH1 0x40 MLOAD SWAP1 DUP2 ADD PUSH1 0x40 MSTORE DUP1 SWAP3 SWAP2 SWAP1 DUP2 DUP2 MSTORE PUSH1 0x20 ADD DUP3 DUP1 SLOAD PUSH2 0x866 SWAP1 PUSH2 0x1038 JUMP JUMPDEST DUP1 ISZERO PUSH2 0x8B3 JUMPI DUP1 PUSH1 0x1F LT PUSH2 0x888 JUMPI PUSH2 0x100 DUP1 DUP4 SLOAD DIV MUL DUP4 MSTORE SWAP2 PUSH1 0x20 ADD SWAP2 PUSH2 0x8B3 JUMP JUMPDEST DUP3 ADD SWAP2 SWAP1 PUSH1 0x0 MSTORE PUSH1 0x20 PUSH1 0x0 KECCAK256 SWAP1 JUMPDEST DUP2 SLOAD DUP2 MSTORE SWAP1 PUSH1 0x1 ADD SWAP1 PUSH1 0x20 ADD DUP1 DUP4 GT PUSH2 0x896 JUMPI DUP3 SWAP1 SUB PUSH1 0x1F AND DUP3 ADD SWAP2 JUMPDEST POP POP POP POP POP DUP2 JUMP JUMPDEST PUSH1 0x3 DUP1 SLOAD PUSH2 0x8C8 SWAP1 PUSH2 0x1038 JUMP JUMPDEST DUP1 PUSH1 0x1F ADD PUSH1 0x20 DUP1 SWAP2 DIV MUL PUSH1 0x20 ADD PUSH1 0x40 MLOAD SWAP1 DUP2 ADD PUSH1 0x40 MSTORE DUP1 SWAP3 SWAP2 SWAP1 DUP2 DUP2 MSTORE PUSH1 0x20 ADD DUP3 DUP1 SLOAD PUSH2 0x8F4 SWAP1 PUSH2 0x1038 JUMP JUMPDEST DUP1 ISZERO PUSH2 0x941 JUMPI DUP1 PUSH1 0x1F LT PUSH2 0x916 JUMPI PUSH2 0x100 DUP1 DUP4 SLOAD DIV MUL DUP4 MSTORE SWAP2 PUSH1 0x20 ADD SWAP2 PUSH2 0x941 JUMP JUMPDEST DUP3 ADD SWAP2 SWAP1 PUSH1 0x0 MSTORE PUSH1 0x20 PUSH1 0x0 KECCAK256 SWAP1 JUMPDEST DUP2 SLOAD DUP2 MSTORE SWAP1 PUSH1 0x1 ADD SWAP1 PUSH1 0x20 ADD DUP1 DUP4 GT PUSH2 0x924 JUMPI DUP3 SWAP1 SUB PUSH1 0x1F AND DUP3 ADD SWAP2 JUMPDEST POP POP POP POP POP DUP2 JUMP JUMPDEST DUP3 DUP1 SLOAD DUP3 DUP3 SSTORE SWAP1 PUSH1 0x0 MSTORE PUSH1 0x20 PUSH1 0x0 KECCAK256 SWAP1 PUSH1 0x2 MUL DUP2 ADD SWAP3 DUP3 ISZERO PUSH2 0x9A4 JUMPI PUSH1 0x0 MSTORE PUSH1 0x20 PUSH1 0x0 KECCAK256 SWAP2 PUSH1 0x2 MUL DUP3 ADD JUMPDEST DUP3 DUP2 GT ISZERO PUSH2 0x9A3 JUMPI DUP3 DUP3 PUSH1 0x0 DUP3 ADD SLOAD DUP2 PUSH1 0x0 ADD SSTORE PUSH1 0x1 DUP3 ADD SLOAD DUP2 PUSH1 0x1 ADD SSTORE POP POP SWAP2 PUSH1 0x2 ADD SWAP2 SWAP1 PUSH1 0x2 ADD SWAP1 PUSH2 0x974 JUMP JUMPDEST JUMPDEST POP SWAP1 POP PUSH2 0x9B1 SWAP2 SWAP1 PUSH2 0x9B5 JUMP JUMPDEST POP SWAP1 JUMP JUMPDEST JUMPDEST DUP1 DUP3 GT ISZERO PUSH2 0x9D8 JUMPI PUSH1 0x0 DUP1 DUP3 ADD PUSH1 0x0 SWAP1 SSTORE PUSH1 0x1 DUP3 ADD PUSH1 0x0 SWAP1 SSTORE POP PUSH1 0x2 ADD PUSH2 0x9B6 JUMP JUMPDEST POP SWAP1 JUMP JUMPDEST PUSH1 0x0 PUSH1 0x40 MLOAD SWAP1 POP SWAP1 JUMP JUMPDEST PUSH1 0x0 DUP1 REVERT JUMPDEST PUSH1 0x0 DUP1 REVERT JUMPDEST PUSH1 0x0 DUP2 SWAP1 POP SWAP2 SWAP1 POP JUMP JUMPDEST PUSH2 0xA03 DUP2 PUSH2 0x9F0 JUMP JUMPDEST DUP2 EQ PUSH2 0xA0E JUMPI PUSH1 0x0 DUP1 REVERT JUMPDEST POP JUMP JUMPDEST PUSH1 0x0 DUP2 CALLDATALOAD SWAP1 POP PUSH2 0xA20 DUP2 PUSH2 0x9FA JUMP JUMPDEST SWAP3 SWAP2 POP POP JUMP JUMPDEST PUSH1 0x0 PUSH20 0xFFFFFFFFFFFFFFFFFFFFFFFFFFFFFFFFFFFFFFFF DUP3 AND SWAP1 POP SWAP2 SWAP1 POP JUMP JUMPDEST PUSH1 0x0 PUSH2 0xA51 DUP3 PUSH2 0xA26 JUMP JUMPDEST SWAP1 POP SWAP2 SWAP1 POP JUMP JUMPDEST PUSH2 0xA61 DUP2 PUSH2 0xA46 JUMP JUMPDEST DUP2 EQ PUSH2 0xA6C JUMPI PUSH1 0x0 DUP1 REVERT JUMPDEST POP JUMP JUMPDEST PUSH1 0x0 DUP2 CALLDATALOAD SWAP1 POP PUSH2 0xA7E DUP2 PUSH2 0xA58 JUMP JUMPDEST SWAP3 SWAP2 POP POP JUMP JUMPDEST PUSH1 0x0 DUP1 PUSH1 0x0 PUSH1 0x60 DUP5 DUP7 SUB SLT ISZERO PUSH2 0xA9D JUMPI PUSH2 0xA9C PUSH2 0x9E6 JUMP JUMPDEST JUMPDEST PUSH1 0x0 PUSH2 0xAAB DUP7 DUP3 DUP8 ADD PUSH2 0xA11 JUMP JUMPDEST SWAP4 POP POP PUSH1 0x20 PUSH2 0xABC DUP7 DUP3 DUP8 ADD PUSH2 0xA6F JUMP JUMPDEST SWAP3 POP POP PUSH1 0x40 PUSH2 0xACD DUP7 DUP3 DUP8 ADD PUSH2 0xA11 JUMP JUMPDEST SWAP2 POP POP SWAP3 POP SWAP3 POP SWAP3 JUMP JUMPDEST PUSH2 0xAE0 DUP2 PUSH2 0x9F0 JUMP JUMPDEST DUP3 MSTORE POP POP JUMP JUMPDEST PUSH1 0x0 PUSH1 0x20 DUP3 ADD SWAP1 POP PUSH2 0xAFB PUSH1 0x0 DUP4 ADD DUP5 PUSH2 0xAD7 JUMP JUMPDEST SWAP3 SWAP2 POP POP JUMP JUMPDEST PUSH1 0x0 DUP1 REVERT JUMPDEST PUSH1 0x0 DUP1 REVERT JUMPDEST PUSH1 0x0 PUSH1 0x1F NOT PUSH1 0x1F DUP4 ADD AND SWAP1 POP SWAP2 SWAP1 POP JUMP JUMPDEST PUSH32 0x4E487B7100000000000000000000000000000000000000000000000000000000 PUSH1 0x0 MSTORE PUSH1 0x41 PUSH1 0x4 MSTORE PUSH1 0x24 PUSH1 0x0 REVERT JUMPDEST PUSH2 0xB54 DUP3 PUSH2 0xB0B JUMP JUMPDEST DUP2 ADD DUP2 DUP2 LT PUSH8 0xFFFFFFFFFFFFFFFF DUP3 GT OR ISZERO PUSH2 0xB73 JUMPI PUSH2 0xB72 PUSH2 0xB1C JUMP JUMPDEST JUMPDEST DUP1 PUSH1 0x40 MSTORE POP POP POP JUMP JUMPDEST PUSH1 0x0 PUSH2 0xB86 PUSH2 0x9DC JUMP JUMPDEST SWAP1 POP PUSH2 0xB92 DUP3 DUP3 PUSH2 0xB4B JUMP JUMPDEST SWAP2 SWAP1 POP JUMP JUMPDEST PUSH1 0x0 PUSH8 0xFFFFFFFFFFFFFFFF DUP3 GT ISZERO PUSH2 0xBB2 JUMPI PUSH2 0xBB1 PUSH2 0xB1C JUMP JUMPDEST JUMPDEST PUSH2 0xBBB DUP3 PUSH2 0xB0B JUMP JUMPDEST SWAP1 POP PUSH1 0x20 DUP2 ADD SWAP1 POP SWAP2 SWAP1 POP JUMP JUMPDEST DUP3 DUP2 DUP4 CALLDATACOPY PUSH1 0x0 DUP4 DUP4 ADD MSTORE POP POP POP JUMP JUMPDEST PUSH1 0x0 PUSH2 0xBEA PUSH2 0xBE5 DUP5 PUSH2 0xB97 JUMP JUMPDEST PUSH2 0xB7C JUMP JUMPDEST SWAP1 POP DUP3 DUP2 MSTORE PUSH1 0x20 DUP2 ADD DUP5 DUP5 DUP5 ADD GT ISZERO PUSH2 0xC06 JUMPI PUSH2 0xC05 PUSH2 0xB06 JUMP JUMPDEST JUMPDEST PUSH2 0xC11 DUP5 DUP3 DUP6 PUSH2 0xBC8 JUMP JUMPDEST POP SWAP4 SWAP3 POP POP POP JUMP JUMPDEST PUSH1 0x0 DUP3 PUSH1 0x1F DUP4 ADD SLT PUSH2 0xC2E JUMPI PUSH2 0xC2D PUSH2 0xB01 JUMP JUMPDEST JUMPDEST DUP2 CALLDATALOAD PUSH2 0xC3E DUP5 DUP3 PUSH1 0x20 DUP7 ADD PUSH2 0xBD7 JUMP JUMPDEST SWAP2 POP POP SWAP3 SWAP2 POP POP JUMP JUMPDEST PUSH1 0x0 DUP1 PUSH1 0x40 DUP4 DUP6 SUB SLT ISZERO PUSH2 0xC5E JUMPI PUSH2 0xC5D PUSH2 0x9E6 JUMP JUMPDEST JUMPDEST PUSH1 0x0 DUP4 ADD CALLDATALOAD PUSH8 0xFFFFFFFFFFFFFFFF DUP2 GT ISZERO PUSH2 0xC7C JUMPI PUSH2 0xC7B PUSH2 0x9EB JUMP JUMPDEST JUMPDEST PUSH2 0xC88 DUP6 DUP3 DUP7 ADD PUSH2 0xC19 JUMP JUMPDEST SWAP3 POP POP PUSH1 0x20 DUP4 ADD CALLDATALOAD PUSH8 0xFFFFFFFFFFFFFFFF DUP2 GT ISZERO PUSH2 0xCA9 JUMPI PUSH2 0xCA8 PUSH2 0x9EB JUMP JUMPDEST JUMPDEST PUSH2 0xCB5 DUP6 DUP3 DUP7 ADD PUSH2 0xC19 JUMP JUMPDEST SWAP2 POP POP SWAP3 POP SWAP3 SWAP1 POP JUMP JUMPDEST PUSH1 0x0 DUP1 PUSH1 0x40 DUP4 DUP6 SUB SLT ISZERO PUSH2 0xCD6 JUMPI PUSH2 0xCD5 PUSH2 0x9E6 JUMP JUMPDEST JUMPDEST PUSH1 0x0 PUSH2 0xCE4 DUP6 DUP3 DUP7 ADD PUSH2 0xA6F JUMP JUMPDEST SWAP3 POP POP PUSH1 0x20 PUSH2 0xCF5 DUP6 DUP3 DUP7 ADD PUSH2 0xA11 JUMP JUMPDEST SWAP2 POP POP SWAP3 POP SWAP3 SWAP1 POP JUMP JUMPDEST PUSH1 0x0 PUSH1 0x40 DUP3 ADD SWAP1 POP PUSH2 0xD14 PUSH1 0x0 DUP4 ADD DUP6 PUSH2 0xAD7 JUMP JUMPDEST PUSH2 0xD21 PUSH1 0x20 DUP4 ADD DUP5 PUSH2 0xAD7 JUMP JUMPDEST SWAP4 SWAP3 POP POP POP JUMP JUMPDEST PUSH1 0x0 DUP2 ISZERO ISZERO SWAP1 POP SWAP2 SWAP1 POP JUMP JUMPDEST PUSH2 0xD3D DUP2 PUSH2 0xD28 JUMP JUMPDEST DUP3 MSTORE POP POP JUMP JUMPDEST PUSH1 0x0 PUSH1 0x20 DUP3 ADD SWAP1 POP PUSH2 0xD58 PUSH1 0x0 DUP4 ADD DUP5 PUSH2 0xD34 JUMP JUMPDEST SWAP3 SWAP2 POP POP JUMP JUMPDEST PUSH1 0x0 DUP2 MLOAD SWAP1 POP SWAP2 SWAP1 POP JUMP JUMPDEST PUSH1 0x0 DUP3 DUP3 MSTORE PUSH1 0x20 DUP3 ADD SWAP1 POP SWAP3 SWAP2 POP POP JUMP JUMPDEST PUSH1 0x0 JUMPDEST DUP4 DUP2 LT ISZERO PUSH2 0xD98 JUMPI DUP1 DUP3 ADD MLOAD DUP2 DUP5 ADD MSTORE PUSH1 0x20 DUP2 ADD SWAP1 POP PUSH2 0xD7D JUMP JUMPDEST PUSH1 0x0 DUP5 DUP5 ADD MSTORE POP POP POP POP JUMP JUMPDEST PUSH1 0x0 PUSH2 0xDAF DUP3 PUSH2 0xD5E JUMP JUMPDEST PUSH2 0xDB9 DUP2 DUP6 PUSH2 0xD69 JUMP JUMPDEST SWAP4 POP PUSH2 0xDC9 DUP2 DUP6 PUSH1 0x20 DUP7 ADD PUSH2 0xD7A JUMP JUMPDEST PUSH2 0xDD2 DUP2 PUSH2 0xB0B JUMP JUMPDEST DUP5 ADD SWAP2 POP POP SWAP3 SWAP2 POP POP JUMP JUMPDEST PUSH1 0x0 PUSH1 0x20 DUP3 ADD SWAP1 POP DUP2 DUP2 SUB PUSH1 0x0 DUP4 ADD MSTORE PUSH2 0xDF7 DUP2 DUP5 PUSH2 0xDA4 JUMP JUMPDEST SWAP1 POP SWAP3 SWAP2 POP POP JUMP JUMPDEST PUSH32 0x2054686973206164647265737320646F65736E27742065786973747300000000 PUSH1 0x0 DUP3 ADD MSTORE POP JUMP JUMPDEST PUSH1 0x0 PUSH2 0xE35 PUSH1 0x1C DUP4 PUSH2 0xD69 JUMP JUMPDEST SWAP2 POP PUSH2 0xE40 DUP3 PUSH2 0xDFF JUMP JUMPDEST PUSH1 0x20 DUP3 ADD SWAP1 POP SWAP2 SWAP1 POP JUMP JUMPDEST PUSH1 0x0 PUSH1 0x20 DUP3 ADD SWAP1 POP DUP2 DUP2 SUB PUSH1 0x0 DUP4 ADD MSTORE PUSH2 0xE64 DUP2 PUSH2 0xE28 JUMP JUMPDEST SWAP1 POP SWAP2 SWAP1 POP JUMP JUMPDEST PUSH32 0x506C6561736520696E7365727420796F75722063617264000000000000000000 PUSH1 0x0 DUP3 ADD MSTORE POP JUMP JUMPDEST PUSH1 0x0 PUSH2 0xEA1 PUSH1 0x17 DUP4 PUSH2 0xD69 JUMP JUMPDEST SWAP2 POP PUSH2 0xEAC DUP3 PUSH2 0xE6B JUMP JUMPDEST PUSH1 0x20 DUP3 ADD SWAP1 POP SWAP2 SWAP1 POP JUMP JUMPDEST PUSH1 0x0 PUSH1 0x20 DUP3 ADD SWAP1 POP DUP2 DUP2 SUB PUSH1 0x0 DUP4 ADD MSTORE PUSH2 0xED0 DUP2 PUSH2 0xE94 JUMP JUMPDEST SWAP1 POP SWAP2 SWAP1 POP JUMP JUMPDEST PUSH32 0x4E487B7100000000000000000000000000000000000000000000000000000000 PUSH1 0x0 MSTORE PUSH1 0x11 PUSH1 0x4 MSTORE PUSH1 0x24 PUSH1 0x0 REVERT JUMPDEST PUSH1 0x0 PUSH2 0xF11 DUP3 PUSH2 0x9F0 JUMP JUMPDEST SWAP2 POP PUSH2 0xF1C DUP4 PUSH2 0x9F0 JUMP JUMPDEST SWAP3 POP DUP3 DUP3 ADD SWAP1 POP DUP1 DUP3 GT ISZERO PUSH2 0xF34 JUMPI PUSH2 0xF33 PUSH2 0xED7 JUMP JUMPDEST JUMPDEST SWAP3 SWAP2 POP POP JUMP JUMPDEST PUSH32 0x4E487B7100000000000000000000000000000000000000000000000000000000 PUSH1 0x0 MSTORE PUSH1 0x1 PUSH1 0x4 MSTORE PUSH1 0x24 PUSH1 0x0 REVERT JUMPDEST PUSH32 0x6F6E6C792035207472616E73616374696F6E7320706572206461790000000000 PUSH1 0x0 DUP3 ADD MSTORE POP JUMP JUMPDEST PUSH1 0x0 PUSH2 0xF9F PUSH1 0x1B DUP4 PUSH2 0xD69 JUMP JUMPDEST SWAP2 POP PUSH2 0xFAA DUP3 PUSH2 0xF69 JUMP JUMPDEST PUSH1 0x20 DUP3 ADD SWAP1 POP SWAP2 SWAP1 POP JUMP JUMPDEST PUSH1 0x0 PUSH1 0x20 DUP3 ADD SWAP1 POP DUP2 DUP2 SUB PUSH1 0x0 DUP4 ADD MSTORE PUSH2 0xFCE DUP2 PUSH2 0xF92 JUMP JUMPDEST SWAP1 POP SWAP2 SWAP1 POP JUMP JUMPDEST PUSH1 0x0 PUSH2 0xFE0 DUP3 PUSH2 0x9F0 JUMP JUMPDEST SWAP2 POP PUSH2 0xFEB DUP4 PUSH2 0x9F0 JUMP JUMPDEST SWAP3 POP DUP3 DUP3 SUB SWAP1 POP DUP2 DUP2 GT ISZERO PUSH2 0x1003 JUMPI PUSH2 0x1002 PUSH2 0xED7 JUMP JUMPDEST JUMPDEST SWAP3 SWAP2 POP POP JUMP JUMPDEST PUSH32 0x4E487B7100000000000000000000000000000000000000000000000000000000 PUSH1 0x0 MSTORE PUSH1 0x22 PUSH1 0x4 MSTORE PUSH1 0x24 PUSH1 0x0 REVERT JUMPDEST PUSH1 0x0 PUSH1 0x2 DUP3 DIV SWAP1 POP PUSH1 0x1 DUP3 AND DUP1 PUSH2 0x1050 JUMPI PUSH1 0x7F DUP3 AND SWAP2 POP JUMPDEST PUSH1 0x20 DUP3 LT DUP2 SUB PUSH2 0x1063 JUMPI PUSH2 0x1062 PUSH2 0x1009 JUMP JUMPDEST JUMPDEST POP SWAP2 SWAP1 POP JUMP JUMPDEST PUSH1 0x0 DUP2 SWAP1 POP DUP2 PUSH1 0x0 MSTORE PUSH1 0x20 PUSH1 0x0 KECCAK256 SWAP1 POP SWAP2 SWAP1 POP JUMP JUMPDEST PUSH1 0x0 PUSH1 0x20 PUSH1 0x1F DUP4 ADD DIV SWAP1 POP SWAP2 SWAP1 POP JUMP JUMPDEST PUSH1 0x0 DUP3 DUP3 SHL SWAP1 POP SWAP3 SWAP2 POP POP JUMP JUMPDEST PUSH1 0x0 PUSH1 0x8 DUP4 MUL PUSH2 0x10CB PUSH32 0xFFFFFFFFFFFFFFFFFFFFFFFFFFFFFFFFFFFFFFFFFFFFFFFFFFFFFFFFFFFFFFFF DUP3 PUSH2 0x108E JUMP JUMPDEST PUSH2 0x10D5 DUP7 DUP4 PUSH2 0x108E JUMP JUMPDEST SWAP6 POP DUP1 NOT DUP5 AND SWAP4 POP DUP1 DUP7 AND DUP5 OR SWAP3 POP POP POP SWAP4 SWAP3 POP POP POP JUMP JUMPDEST PUSH1 0x0 DUP2 SWAP1 POP SWAP2 SWAP1 POP JUMP JUMPDEST PUSH1 0x0 PUSH2 0x1112 PUSH2 0x110D PUSH2 0x1108 DUP5 PUSH2 0x9F0 JUMP JUMPDEST PUSH2 0x10ED JUMP JUMPDEST PUSH2 0x9F0 JUMP JUMPDEST SWAP1 POP SWAP2 SWAP1 POP JUMP JUMPDEST PUSH1 0x0 DUP2 SWAP1 POP SWAP2 SWAP1 POP JUMP JUMPDEST PUSH2 0x112C DUP4 PUSH2 0x10F7 JUMP JUMPDEST PUSH2 0x1140 PUSH2 0x1138 DUP3 PUSH2 0x1119 JUMP JUMPDEST DUP5 DUP5 SLOAD PUSH2 0x109B JUMP JUMPDEST DUP3 SSTORE POP POP POP POP JUMP JUMPDEST PUSH1 0x0 SWAP1 JUMP JUMPDEST PUSH2 0x1155 PUSH2 0x1148 JUMP JUMPDEST PUSH2 0x1160 DUP2 DUP5 DUP5 PUSH2 0x1123 JUMP JUMPDEST POP POP POP JUMP JUMPDEST JUMPDEST DUP2 DUP2 LT ISZERO PUSH2 0x1184 JUMPI PUSH2 0x1179 PUSH1 0x0 DUP3 PUSH2 0x114D JUMP JUMPDEST PUSH1 0x1 DUP2 ADD SWAP1 POP PUSH2 0x1166 JUMP JUMPDEST POP POP JUMP JUMPDEST PUSH1 0x1F DUP3 GT ISZERO PUSH2 0x11C9 JUMPI PUSH2 0x119A DUP2 PUSH2 0x1069 JUMP JUMPDEST PUSH2 0x11A3 DUP5 PUSH2 0x107E JUMP JUMPDEST DUP2 ADD PUSH1 0x20 DUP6 LT ISZERO PUSH2 0x11B2 JUMPI DUP2 SWAP1 POP JUMPDEST PUSH2 0x11C6 PUSH2 0x11BE DUP6 PUSH2 0x107E JUMP JUMPDEST DUP4 ADD DUP3 PUSH2 0x1165 JUMP JUMPDEST POP POP JUMPDEST POP POP POP JUMP JUMPDEST PUSH1 0x0 DUP3 DUP3 SHR SWAP1 POP SWAP3 SWAP2 POP POP JUMP JUMPDEST PUSH1 0x0 PUSH2 0x11EC PUSH1 0x0 NOT DUP5 PUSH1 0x8 MUL PUSH2 0x11CE JUMP JUMPDEST NOT DUP1 DUP4 AND SWAP2 POP POP SWAP3 SWAP2 POP POP JUMP JUMPDEST PUSH1 0x0 PUSH2 0x1205 DUP4 DUP4 PUSH2 0x11DB JUMP JUMPDEST SWAP2 POP DUP3 PUSH1 0x2 MUL DUP3 OR SWAP1 POP SWAP3 SWAP2 POP POP JUMP JUMPDEST PUSH2 0x121E DUP3 PUSH2 0xD5E JUMP JUMPDEST PUSH8 0xFFFFFFFFFFFFFFFF DUP2 GT ISZERO PUSH2 0x1237 JUMPI PUSH2 0x1236 PUSH2 0xB1C JUMP JUMPDEST JUMPDEST PUSH2 0x1241 DUP3 SLOAD PUSH2 0x1038 JUMP JUMPDEST PUSH2 0x124C DUP3 DUP3 DUP6 PUSH2 0x1188 JUMP JUMPDEST PUSH1 0x0 PUSH1 0x20 SWAP1 POP PUSH1 0x1F DUP4 GT PUSH1 0x1 DUP2 EQ PUSH2 0x127F JUMPI PUSH1 0x0 DUP5 ISZERO PUSH2 0x126D JUMPI DUP3 DUP8 ADD MLOAD SWAP1 POP JUMPDEST PUSH2 0x1277 DUP6 DUP3 PUSH2 0x11F9 JUMP JUMPDEST DUP7 SSTORE POP PUSH2 0x12DF JUMP JUMPDEST PUSH1 0x1F NOT DUP5 AND PUSH2 0x128D DUP7 PUSH2 0x1069 JUMP JUMPDEST PUSH1 0x0 JUMPDEST DUP3 DUP2 LT ISZERO PUSH2 0x12B5 JUMPI DUP5 DUP10 ADD MLOAD DUP3 SSTORE PUSH1 0x1 DUP3 ADD SWAP2 POP PUSH1 0x20 DUP6 ADD SWAP5 POP PUSH1 0x20 DUP2 ADD SWAP1 POP PUSH2 0x1290 JUMP JUMPDEST DUP7 DUP4 LT ISZERO PUSH2 0x12D2 JUMPI DUP5 DUP10 ADD MLOAD PUSH2 0x12CE PUSH1 0x1F DUP10 AND DUP3 PUSH2 0x11DB JUMP JUMPDEST DUP4 SSTORE POP JUMPDEST PUSH1 0x1 PUSH1 0x2 DUP9 MUL ADD DUP9 SSTORE POP POP POP JUMPDEST POP POP POP POP POP POP JUMP JUMPDEST PUSH32 0x4E6F7420656E6F7567682066756E647300000000000000000000000000000000 PUSH1 0x0 DUP3 ADD MSTORE POP JUMP JUMPDEST PUSH1 0x0 PUSH2 0x131D PUSH1 0x10 DUP4 PUSH2 0xD69 JUMP JUMPDEST SWAP2 POP PUSH2 0x1328 DUP3 PUSH2 0x12E7 JUMP JUMPDEST PUSH1 0x20 DUP3 ADD SWAP1 POP SWAP2 SWAP1 POP JUMP JUMPDEST PUSH1 0x0 PUSH1 0x20 DUP3 ADD SWAP1 POP DUP2 DUP2 SUB PUSH1 0x0 DUP4 ADD MSTORE PUSH2 0x134C DUP2 PUSH2 0x1310 JUMP JUMPDEST SWAP1 POP SWAP2 SWAP1 POP JUMP JUMPDEST PUSH32 0x4E6F2076616C6964206372656469742063617264000000000000000000000000 PUSH1 0x0 DUP3 ADD MSTORE POP JUMP JUMPDEST PUSH1 0x0 PUSH2 0x1389 PUSH1 0x14 DUP4 PUSH2 0xD69 JUMP JUMPDEST SWAP2 POP PUSH2 0x1394 DUP3 PUSH2 0x1353 JUMP JUMPDEST PUSH1 0x20 DUP3 ADD SWAP1 POP SWAP2 SWAP1 POP JUMP JUMPDEST PUSH1 0x0 PUSH1 0x20 DUP3 ADD SWAP1 POP DUP2 DUP2 SUB PUSH1 0x0 DUP4 ADD MSTORE PUSH2 0x13B8 DUP2 PUSH2 0x137C JUMP JUMPDEST SWAP1 POP SWAP2 SWAP1 POP JUMP INVALID LOG2 PUSH5 0x6970667358 0x22 SLT KECCAK256 0x4B 0x4A DUP11 0xCF 0xB8 0xE2 DIFFICULTY DIFFICULTY CODESIZE SAR 0x4C 0xE6 0xC7 ISZERO MOD CALLDATACOPY PUSH21 0x8F48852B831A2BBCCD97900F90BAD264736F6C6343 STOP ADDMOD LT STOP CALLER "
				},
				"gasEstimates": {
					"creation": {
						"codeDepositCost": "1021800",
						"executionCost": "infinite",
						"totalCost": "infinite"
					},
					"external": {
						"TotalAmount()": "2451",
						"TotalFunds()": "2496",
						"callCount()": "2452",
						"callPutCard()": "2560",
						"cardNumber()": "infinite",
						"cvv()": "infinite",
						"firstTransferTime()": "2452",
						"getOutCard()": "24455",
						"getTime()": "381",
						"mainMap(address,uint256)": "infinite",
						"message()": "infinite",
						"sendMoney(uint256,address,uint256)": "infinite",
						"setCard(string,string)": "infinite"
					}
				},
				"methodIdentifiers": {
					"TotalAmount()": "7eb9f571",
					"TotalFunds()": "7b9a3f4c",
					"callCount()": "4b28f9a2",
					"callPutCard()": "3c626f00",
					"cardNumber()": "8fa11864",
					"cvv()": "42fb7936",
					"firstTransferTime()": "0e85fa72",
					"getOutCard()": "8e029c0b",
					"getTime()": "557ed1ba",
					"mainMap(address,uint256)": "1861929b",
					"message()": "e21f37ce",
					"sendMoney(uint256,address,uint256)": "05d8eb96",
					"setCard(string,string)": "12a029a4"
				}
			},
			"storageLayout": {
				"storage": [
					{
						"astId": 12,
						"contract": "Dapp/MoneyTransfer.sol:MoneyTransfer",
						"label": "mainMap",
						"offset": 0,
						"slot": "0",
						"type": "t_mapping(t_address,t_array(t_struct(Payment)6_storage)dyn_storage)"
					},
					{
						"astId": 14,
						"contract": "Dapp/MoneyTransfer.sol:MoneyTransfer",
						"label": "TotalFunds",
						"offset": 0,
						"slot": "1",
						"type": "t_uint256"
					},
					{
						"astId": 16,
						"contract": "Dapp/MoneyTransfer.sol:MoneyTransfer",
						"label": "receiver",
						"offset": 0,
						"slot": "2",
						"type": "t_address"
					},
					{
						"astId": 18,
						"contract": "Dapp/MoneyTransfer.sol:MoneyTransfer",
						"label": "message",
						"offset": 0,
						"slot": "3",
						"type": "t_string_storage"
					},
					{
						"astId": 20,
						"contract": "Dapp/MoneyTransfer.sol:MoneyTransfer",
						"label": "cardNumber",
						"offset": 0,
						"slot": "4",
						"type": "t_string_storage"
					},
					{
						"astId": 22,
						"contract": "Dapp/MoneyTransfer.sol:MoneyTransfer",
						"label": "cvv",
						"offset": 0,
						"slot": "5",
						"type": "t_string_storage"
					},
					{
						"astId": 24,
						"contract": "Dapp/MoneyTransfer.sol:MoneyTransfer",
						"label": "TotalAmount",
						"offset": 0,
						"slot": "6",
						"type": "t_uint256"
					},
					{
						"astId": 26,
						"contract": "Dapp/MoneyTransfer.sol:MoneyTransfer",
						"label": "firstTransferTime",
						"offset": 0,
						"slot": "7",
						"type": "t_uint256"
					},
					{
						"astId": 39,
						"contract": "Dapp/MoneyTransfer.sol:MoneyTransfer",
						"label": "callCount",
						"offset": 0,
						"slot": "8",
						"type": "t_uint256"
					},
					{
						"astId": 42,
						"contract": "Dapp/MoneyTransfer.sol:MoneyTransfer",
						"label": "callPutCard",
						"offset": 0,
						"slot": "9",
						"type": "t_bool"
					}
				],
				"types": {
					"t_address": {
						"encoding": "inplace",
						"label": "address",
						"numberOfBytes": "20"
					},
					"t_array(t_struct(Payment)6_storage)dyn_storage": {
						"base": "t_struct(Payment)6_storage",
						"encoding": "dynamic_array",
						"label": "struct MoneyTransfer.Payment[]",
						"numberOfBytes": "32"
					},
					"t_bool": {
						"encoding": "inplace",
						"label": "bool",
						"numberOfBytes": "1"
					},
					"t_mapping(t_address,t_array(t_struct(Payment)6_storage)dyn_storage)": {
						"encoding": "mapping",
						"key": "t_address",
						"label": "mapping(address => struct MoneyTransfer.Payment[])",
						"numberOfBytes": "32",
						"value": "t_array(t_struct(Payment)6_storage)dyn_storage"
					},
					"t_string_storage": {
						"encoding": "bytes",
						"label": "string",
						"numberOfBytes": "32"
					},
					"t_struct(Payment)6_storage": {
						"encoding": "inplace",
						"label": "struct MoneyTransfer.Payment",
						"members": [
							{
								"astId": 3,
								"contract": "Dapp/MoneyTransfer.sol:MoneyTransfer",
								"label": "amount",
								"offset": 0,
								"slot": "0",
								"type": "t_uint256"
							},
							{
								"astId": 5,
								"contract": "Dapp/MoneyTransfer.sol:MoneyTransfer",
								"label": "timestamp",
								"offset": 0,
								"slot": "1",
								"type": "t_uint256"
							}
						],
						"numberOfBytes": "64"
					},
					"t_uint256": {
						"encoding": "inplace",
						"label": "uint256",
						"numberOfBytes": "32"
					}
				}
			},
			"userdoc": {
				"kind": "user",
				"methods": {},
				"version": 1
			}
		}
	}
}