{
	"Dapp/MoneyTransfer.sol": {
		"MoneyTransfer": {
			"abi": [
				{
					"inputs": [
						{
							"internalType": "uint256",
							"name": "_totalFunds",
							"type": "uint256"
						},
						{
							"internalType": "string",
							"name": "_cardNumber",
							"type": "string"
						},
						{
							"internalType": "string",
							"name": "_cvv",
							"type": "string"
						}
					],
					"stateMutability": "nonpayable",
					"type": "constructor"
				},
				{
					"inputs": [],
					"name": "TotalAmount",
					"outputs": [
						{
							"internalType": "uint256",
							"name": "",
							"type": "uint256"
						}
					],
					"stateMutability": "view",
					"type": "function"
				},
				{
					"inputs": [],
					"name": "TotalFunds",
					"outputs": [
						{
							"internalType": "uint256",
							"name": "",
							"type": "uint256"
						}
					],
					"stateMutability": "view",
					"type": "function"
				},
				{
					"inputs": [],
					"name": "amount",
					"outputs": [
						{
							"internalType": "uint256",
							"name": "",
							"type": "uint256"
						}
					],
					"stateMutability": "view",
					"type": "function"
				},
				{
					"inputs": [],
					"name": "callCount",
					"outputs": [
						{
							"internalType": "uint256",
							"name": "",
							"type": "uint256"
						}
					],
					"stateMutability": "view",
					"type": "function"
				},
				{
					"inputs": [],
					"name": "cardNumber",
					"outputs": [
						{
							"internalType": "string",
							"name": "",
							"type": "string"
						}
					],
					"stateMutability": "view",
					"type": "function"
				},
				{
					"inputs": [],
					"name": "countTransfer",
					"outputs": [
						{
							"internalType": "uint256",
							"name": "",
							"type": "uint256"
						}
					],
					"stateMutability": "view",
					"type": "function"
				},
				{
					"inputs": [],
					"name": "cvv",
					"outputs": [
						{
							"internalType": "string",
							"name": "",
							"type": "string"
						}
					],
					"stateMutability": "view",
					"type": "function"
				},
				{
					"inputs": [],
					"name": "firstTransferTime",
					"outputs": [
						{
							"internalType": "uint256",
							"name": "",
							"type": "uint256"
						}
					],
					"stateMutability": "view",
					"type": "function"
				},
				{
					"inputs": [],
					"name": "message",
					"outputs": [
						{
							"internalType": "string",
							"name": "",
							"type": "string"
						}
					],
					"stateMutability": "view",
					"type": "function"
				},
				{
					"inputs": [],
					"name": "receiverFunds",
					"outputs": [
						{
							"internalType": "uint256",
							"name": "",
							"type": "uint256"
						}
					],
					"stateMutability": "view",
					"type": "function"
				},
				{
					"inputs": [
						{
							"internalType": "uint256",
							"name": "_amount",
							"type": "uint256"
						},
						{
							"internalType": "address",
							"name": "_receiver",
							"type": "address"
						}
					],
					"name": "sendMoney",
					"outputs": [],
					"stateMutability": "nonpayable",
					"type": "function"
				},
				{
					"inputs": [],
					"name": "totalWeekTransactions",
					"outputs": [
						{
							"internalType": "uint256",
							"name": "",
							"type": "uint256"
						}
					],
					"stateMutability": "view",
					"type": "function"
				}
			],
			"devdoc": {
				"kind": "dev",
				"methods": {},
				"version": 1
			},
			"evm": {
				"assembly": "    /* \"Dapp/MoneyTransfer.sol\":71:2327  contract  MoneyTransfer {... */\n  mstore(0x40, 0x80)\n    /* \"Dapp/MoneyTransfer.sol\":237:245  24 hours */\n  0x015180\n    /* \"Dapp/MoneyTransfer.sol\":226:245  uint day = 24 hours */\n  0x03\n  sstore\n    /* \"Dapp/MoneyTransfer.sol\":814:815  0 */\n  0x00\n    /* \"Dapp/MoneyTransfer.sol\":790:815  uint public callCount = 0 */\n  0x0f\n  sstore\n    /* \"Dapp/MoneyTransfer.sol\":599:778  constructor (uint256 _totalFunds, string memory _cardNumber, string memory _cvv){... */\n  callvalue\n  dup1\n  iszero\n  tag_1\n  jumpi\n  0x00\n  dup1\n  revert\ntag_1:\n  pop\n  mload(0x40)\n  sub(codesize, bytecodeSize)\n  dup1\n  bytecodeSize\n  dup4\n  codecopy\n  dup2\n  dup2\n  add\n  0x40\n  mstore\n  dup2\n  add\n  swap1\n  tag_2\n  swap2\n  swap1\n  tag_3\n  jump\t// in\ntag_2:\n    /* \"Dapp/MoneyTransfer.sol\":703:714  _cardNumber */\n  dup2\n    /* \"Dapp/MoneyTransfer.sol\":690:700  cardNumber */\n  0x0a\n    /* \"Dapp/MoneyTransfer.sol\":690:714  cardNumber = _cardNumber */\n  swap1\n  dup2\n  tag_6\n  swap2\n  swap1\n  tag_7\n  jump\t// in\ntag_6:\n  pop\n    /* \"Dapp/MoneyTransfer.sol\":731:735  _cvv */\n  dup1\n    /* \"Dapp/MoneyTransfer.sol\":725:728  cvv */\n  0x0b\n    /* \"Dapp/MoneyTransfer.sol\":725:735  cvv = _cvv */\n  swap1\n  dup2\n  tag_8\n  swap2\n  swap1\n  tag_7\n  jump\t// in\ntag_8:\n  pop\n    /* \"Dapp/MoneyTransfer.sol\":759:770  _totalFunds */\n  dup3\n    /* \"Dapp/MoneyTransfer.sol\":746:756  TotalFunds */\n  0x01\n    /* \"Dapp/MoneyTransfer.sol\":746:770  TotalFunds = _totalFunds */\n  dup2\n  swap1\n  sstore\n  pop\n    /* \"Dapp/MoneyTransfer.sol\":599:778  constructor (uint256 _totalFunds, string memory _cardNumber, string memory _cvv){... */\n  pop\n  pop\n  pop\n    /* \"Dapp/MoneyTransfer.sol\":71:2327  contract  MoneyTransfer {... */\n  jump(tag_9)\n    /* \"#utility.yul\":7:82   */\ntag_10:\n    /* \"#utility.yul\":40:46   */\n  0x00\n    /* \"#utility.yul\":73:75   */\n  0x40\n    /* \"#utility.yul\":67:76   */\n  mload\n    /* \"#utility.yul\":57:76   */\n  swap1\n  pop\n    /* \"#utility.yul\":7:82   */\n  swap1\n  jump\t// out\n    /* \"#utility.yul\":88:205   */\ntag_11:\n    /* \"#utility.yul\":197:198   */\n  0x00\n    /* \"#utility.yul\":194:195   */\n  dup1\n    /* \"#utility.yul\":187:199   */\n  revert\n    /* \"#utility.yul\":211:328   */\ntag_12:\n    /* \"#utility.yul\":320:321   */\n  0x00\n    /* \"#utility.yul\":317:318   */\n  dup1\n    /* \"#utility.yul\":310:322   */\n  revert\n    /* \"#utility.yul\":334:411   */\ntag_13:\n    /* \"#utility.yul\":371:378   */\n  0x00\n    /* \"#utility.yul\":400:405   */\n  dup2\n    /* \"#utility.yul\":389:405   */\n  swap1\n  pop\n    /* \"#utility.yul\":334:411   */\n  swap2\n  swap1\n  pop\n  jump\t// out\n    /* \"#utility.yul\":417:539   */\ntag_14:\n    /* \"#utility.yul\":490:514   */\n  tag_50\n    /* \"#utility.yul\":508:513   */\n  dup2\n    /* \"#utility.yul\":490:514   */\n  tag_13\n  jump\t// in\ntag_50:\n    /* \"#utility.yul\":483:488   */\n  dup2\n    /* \"#utility.yul\":480:515   */\n  eq\n    /* \"#utility.yul\":470:533   */\n  tag_51\n  jumpi\n    /* \"#utility.yul\":529:530   */\n  0x00\n    /* \"#utility.yul\":526:527   */\n  dup1\n    /* \"#utility.yul\":519:531   */\n  revert\n    /* \"#utility.yul\":470:533   */\ntag_51:\n    /* \"#utility.yul\":417:539   */\n  pop\n  jump\t// out\n    /* \"#utility.yul\":545:688   */\ntag_15:\n    /* \"#utility.yul\":602:607   */\n  0x00\n    /* \"#utility.yul\":633:639   */\n  dup2\n    /* \"#utility.yul\":627:640   */\n  mload\n    /* \"#utility.yul\":618:640   */\n  swap1\n  pop\n    /* \"#utility.yul\":649:682   */\n  tag_53\n    /* \"#utility.yul\":676:681   */\n  dup2\n    /* \"#utility.yul\":649:682   */\n  tag_14\n  jump\t// in\ntag_53:\n    /* \"#utility.yul\":545:688   */\n  swap3\n  swap2\n  pop\n  pop\n  jump\t// out\n    /* \"#utility.yul\":694:811   */\ntag_16:\n    /* \"#utility.yul\":803:804   */\n  0x00\n    /* \"#utility.yul\":800:801   */\n  dup1\n    /* \"#utility.yul\":793:805   */\n  revert\n    /* \"#utility.yul\":817:934   */\ntag_17:\n    /* \"#utility.yul\":926:927   */\n  0x00\n    /* \"#utility.yul\":923:924   */\n  dup1\n    /* \"#utility.yul\":916:928   */\n  revert\n    /* \"#utility.yul\":940:1042   */\ntag_18:\n    /* \"#utility.yul\":981:987   */\n  0x00\n    /* \"#utility.yul\":1032:1034   */\n  0x1f\n    /* \"#utility.yul\":1028:1035   */\n  not\n    /* \"#utility.yul\":1023:1025   */\n  0x1f\n    /* \"#utility.yul\":1016:1021   */\n  dup4\n    /* \"#utility.yul\":1012:1026   */\n  add\n    /* \"#utility.yul\":1008:1036   */\n  and\n    /* \"#utility.yul\":998:1036   */\n  swap1\n  pop\n    /* \"#utility.yul\":940:1042   */\n  swap2\n  swap1\n  pop\n  jump\t// out\n    /* \"#utility.yul\":1048:1228   */\ntag_19:\n    /* \"#utility.yul\":1096:1173   */\n  0x4e487b7100000000000000000000000000000000000000000000000000000000\n    /* \"#utility.yul\":1093:1094   */\n  0x00\n    /* \"#utility.yul\":1086:1174   */\n  mstore\n    /* \"#utility.yul\":1193:1197   */\n  0x41\n    /* \"#utility.yul\":1190:1191   */\n  0x04\n    /* \"#utility.yul\":1183:1198   */\n  mstore\n    /* \"#utility.yul\":1217:1221   */\n  0x24\n    /* \"#utility.yul\":1214:1215   */\n  0x00\n    /* \"#utility.yul\":1207:1222   */\n  revert\n    /* \"#utility.yul\":1234:1515   */\ntag_20:\n    /* \"#utility.yul\":1317:1344   */\n  tag_59\n    /* \"#utility.yul\":1339:1343   */\n  dup3\n    /* \"#utility.yul\":1317:1344   */\n  tag_18\n  jump\t// in\ntag_59:\n    /* \"#utility.yul\":1309:1315   */\n  dup2\n    /* \"#utility.yul\":1305:1345   */\n  add\n    /* \"#utility.yul\":1447:1453   */\n  dup2\n    /* \"#utility.yul\":1435:1445   */\n  dup2\n    /* \"#utility.yul\":1432:1454   */\n  lt\n    /* \"#utility.yul\":1411:1429   */\n  0xffffffffffffffff\n    /* \"#utility.yul\":1399:1409   */\n  dup3\n    /* \"#utility.yul\":1396:1430   */\n  gt\n    /* \"#utility.yul\":1393:1455   */\n  or\n    /* \"#utility.yul\":1390:1478   */\n  iszero\n  tag_60\n  jumpi\n    /* \"#utility.yul\":1458:1476   */\n  tag_61\n  tag_19\n  jump\t// in\ntag_61:\n    /* \"#utility.yul\":1390:1478   */\ntag_60:\n    /* \"#utility.yul\":1498:1508   */\n  dup1\n    /* \"#utility.yul\":1494:1496   */\n  0x40\n    /* \"#utility.yul\":1487:1509   */\n  mstore\n    /* \"#utility.yul\":1277:1515   */\n  pop\n    /* \"#utility.yul\":1234:1515   */\n  pop\n  pop\n  jump\t// out\n    /* \"#utility.yul\":1521:1650   */\ntag_21:\n    /* \"#utility.yul\":1555:1561   */\n  0x00\n    /* \"#utility.yul\":1582:1602   */\n  tag_63\n  tag_10\n  jump\t// in\ntag_63:\n    /* \"#utility.yul\":1572:1602   */\n  swap1\n  pop\n    /* \"#utility.yul\":1611:1644   */\n  tag_64\n    /* \"#utility.yul\":1639:1643   */\n  dup3\n    /* \"#utility.yul\":1631:1637   */\n  dup3\n    /* \"#utility.yul\":1611:1644   */\n  tag_20\n  jump\t// in\ntag_64:\n    /* \"#utility.yul\":1521:1650   */\n  swap2\n  swap1\n  pop\n  jump\t// out\n    /* \"#utility.yul\":1656:1964   */\ntag_22:\n    /* \"#utility.yul\":1718:1722   */\n  0x00\n    /* \"#utility.yul\":1808:1826   */\n  0xffffffffffffffff\n    /* \"#utility.yul\":1800:1806   */\n  dup3\n    /* \"#utility.yul\":1797:1827   */\n  gt\n    /* \"#utility.yul\":1794:1850   */\n  iszero\n  tag_66\n  jumpi\n    /* \"#utility.yul\":1830:1848   */\n  tag_67\n  tag_19\n  jump\t// in\ntag_67:\n    /* \"#utility.yul\":1794:1850   */\ntag_66:\n    /* \"#utility.yul\":1868:1897   */\n  tag_68\n    /* \"#utility.yul\":1890:1896   */\n  dup3\n    /* \"#utility.yul\":1868:1897   */\n  tag_18\n  jump\t// in\ntag_68:\n    /* \"#utility.yul\":1860:1897   */\n  swap1\n  pop\n    /* \"#utility.yul\":1952:1956   */\n  0x20\n    /* \"#utility.yul\":1946:1950   */\n  dup2\n    /* \"#utility.yul\":1942:1957   */\n  add\n    /* \"#utility.yul\":1934:1957   */\n  swap1\n  pop\n    /* \"#utility.yul\":1656:1964   */\n  swap2\n  swap1\n  pop\n  jump\t// out\n    /* \"#utility.yul\":1970:2277   */\ntag_23:\n    /* \"#utility.yul\":2038:2039   */\n  0x00\n    /* \"#utility.yul\":2048:2161   */\ntag_70:\n    /* \"#utility.yul\":2062:2068   */\n  dup4\n    /* \"#utility.yul\":2059:2060   */\n  dup2\n    /* \"#utility.yul\":2056:2069   */\n  lt\n    /* \"#utility.yul\":2048:2161   */\n  iszero\n  tag_72\n  jumpi\n    /* \"#utility.yul\":2147:2148   */\n  dup1\n    /* \"#utility.yul\":2142:2145   */\n  dup3\n    /* \"#utility.yul\":2138:2149   */\n  add\n    /* \"#utility.yul\":2132:2150   */\n  mload\n    /* \"#utility.yul\":2128:2129   */\n  dup2\n    /* \"#utility.yul\":2123:2126   */\n  dup5\n    /* \"#utility.yul\":2119:2130   */\n  add\n    /* \"#utility.yul\":2112:2151   */\n  mstore\n    /* \"#utility.yul\":2084:2086   */\n  0x20\n    /* \"#utility.yul\":2081:2082   */\n  dup2\n    /* \"#utility.yul\":2077:2087   */\n  add\n    /* \"#utility.yul\":2072:2087   */\n  swap1\n  pop\n    /* \"#utility.yul\":2048:2161   */\n  jump(tag_70)\ntag_72:\n    /* \"#utility.yul\":2179:2185   */\n  dup4\n    /* \"#utility.yul\":2176:2177   */\n  dup2\n    /* \"#utility.yul\":2173:2186   */\n  gt\n    /* \"#utility.yul\":2170:2271   */\n  iszero\n  tag_73\n  jumpi\n    /* \"#utility.yul\":2259:2260   */\n  0x00\n    /* \"#utility.yul\":2250:2256   */\n  dup5\n    /* \"#utility.yul\":2245:2248   */\n  dup5\n    /* \"#utility.yul\":2241:2257   */\n  add\n    /* \"#utility.yul\":2234:2261   */\n  mstore\n    /* \"#utility.yul\":2170:2271   */\ntag_73:\n    /* \"#utility.yul\":2019:2277   */\n  pop\n    /* \"#utility.yul\":1970:2277   */\n  pop\n  pop\n  pop\n  jump\t// out\n    /* \"#utility.yul\":2283:2704   */\ntag_24:\n    /* \"#utility.yul\":2372:2377   */\n  0x00\n    /* \"#utility.yul\":2397:2463   */\n  tag_75\n    /* \"#utility.yul\":2413:2462   */\n  tag_76\n    /* \"#utility.yul\":2455:2461   */\n  dup5\n    /* \"#utility.yul\":2413:2462   */\n  tag_22\n  jump\t// in\ntag_76:\n    /* \"#utility.yul\":2397:2463   */\n  tag_21\n  jump\t// in\ntag_75:\n    /* \"#utility.yul\":2388:2463   */\n  swap1\n  pop\n    /* \"#utility.yul\":2486:2492   */\n  dup3\n    /* \"#utility.yul\":2479:2484   */\n  dup2\n    /* \"#utility.yul\":2472:2493   */\n  mstore\n    /* \"#utility.yul\":2524:2528   */\n  0x20\n    /* \"#utility.yul\":2517:2522   */\n  dup2\n    /* \"#utility.yul\":2513:2529   */\n  add\n    /* \"#utility.yul\":2562:2565   */\n  dup5\n    /* \"#utility.yul\":2553:2559   */\n  dup5\n    /* \"#utility.yul\":2548:2551   */\n  dup5\n    /* \"#utility.yul\":2544:2560   */\n  add\n    /* \"#utility.yul\":2541:2566   */\n  gt\n    /* \"#utility.yul\":2538:2650   */\n  iszero\n  tag_77\n  jumpi\n    /* \"#utility.yul\":2569:2648   */\n  tag_78\n  tag_17\n  jump\t// in\ntag_78:\n    /* \"#utility.yul\":2538:2650   */\ntag_77:\n    /* \"#utility.yul\":2659:2698   */\n  tag_79\n    /* \"#utility.yul\":2691:2697   */\n  dup5\n    /* \"#utility.yul\":2686:2689   */\n  dup3\n    /* \"#utility.yul\":2681:2684   */\n  dup6\n    /* \"#utility.yul\":2659:2698   */\n  tag_23\n  jump\t// in\ntag_79:\n    /* \"#utility.yul\":2378:2704   */\n  pop\n    /* \"#utility.yul\":2283:2704   */\n  swap4\n  swap3\n  pop\n  pop\n  pop\n  jump\t// out\n    /* \"#utility.yul\":2724:3079   */\ntag_25:\n    /* \"#utility.yul\":2791:2796   */\n  0x00\n    /* \"#utility.yul\":2840:2843   */\n  dup3\n    /* \"#utility.yul\":2833:2837   */\n  0x1f\n    /* \"#utility.yul\":2825:2831   */\n  dup4\n    /* \"#utility.yul\":2821:2838   */\n  add\n    /* \"#utility.yul\":2817:2844   */\n  slt\n    /* \"#utility.yul\":2807:2929   */\n  tag_81\n  jumpi\n    /* \"#utility.yul\":2848:2927   */\n  tag_82\n  tag_16\n  jump\t// in\ntag_82:\n    /* \"#utility.yul\":2807:2929   */\ntag_81:\n    /* \"#utility.yul\":2958:2964   */\n  dup2\n    /* \"#utility.yul\":2952:2965   */\n  mload\n    /* \"#utility.yul\":2983:3073   */\n  tag_83\n    /* \"#utility.yul\":3069:3072   */\n  dup5\n    /* \"#utility.yul\":3061:3067   */\n  dup3\n    /* \"#utility.yul\":3054:3058   */\n  0x20\n    /* \"#utility.yul\":3046:3052   */\n  dup7\n    /* \"#utility.yul\":3042:3059   */\n  add\n    /* \"#utility.yul\":2983:3073   */\n  tag_24\n  jump\t// in\ntag_83:\n    /* \"#utility.yul\":2974:3073   */\n  swap2\n  pop\n    /* \"#utility.yul\":2797:3079   */\n  pop\n    /* \"#utility.yul\":2724:3079   */\n  swap3\n  swap2\n  pop\n  pop\n  jump\t// out\n    /* \"#utility.yul\":3085:4094   */\ntag_3:\n    /* \"#utility.yul\":3193:3199   */\n  0x00\n    /* \"#utility.yul\":3201:3207   */\n  dup1\n    /* \"#utility.yul\":3209:3215   */\n  0x00\n    /* \"#utility.yul\":3258:3260   */\n  0x60\n    /* \"#utility.yul\":3246:3255   */\n  dup5\n    /* \"#utility.yul\":3237:3244   */\n  dup7\n    /* \"#utility.yul\":3233:3256   */\n  sub\n    /* \"#utility.yul\":3229:3261   */\n  slt\n    /* \"#utility.yul\":3226:3345   */\n  iszero\n  tag_85\n  jumpi\n    /* \"#utility.yul\":3264:3343   */\n  tag_86\n  tag_11\n  jump\t// in\ntag_86:\n    /* \"#utility.yul\":3226:3345   */\ntag_85:\n    /* \"#utility.yul\":3384:3385   */\n  0x00\n    /* \"#utility.yul\":3409:3473   */\n  tag_87\n    /* \"#utility.yul\":3465:3472   */\n  dup7\n    /* \"#utility.yul\":3456:3462   */\n  dup3\n    /* \"#utility.yul\":3445:3454   */\n  dup8\n    /* \"#utility.yul\":3441:3463   */\n  add\n    /* \"#utility.yul\":3409:3473   */\n  tag_15\n  jump\t// in\ntag_87:\n    /* \"#utility.yul\":3399:3473   */\n  swap4\n  pop\n    /* \"#utility.yul\":3355:3483   */\n  pop\n    /* \"#utility.yul\":3543:3545   */\n  0x20\n    /* \"#utility.yul\":3532:3541   */\n  dup5\n    /* \"#utility.yul\":3528:3546   */\n  add\n    /* \"#utility.yul\":3522:3547   */\n  mload\n    /* \"#utility.yul\":3574:3592   */\n  0xffffffffffffffff\n    /* \"#utility.yul\":3566:3572   */\n  dup2\n    /* \"#utility.yul\":3563:3593   */\n  gt\n    /* \"#utility.yul\":3560:3677   */\n  iszero\n  tag_88\n  jumpi\n    /* \"#utility.yul\":3596:3675   */\n  tag_89\n  tag_12\n  jump\t// in\ntag_89:\n    /* \"#utility.yul\":3560:3677   */\ntag_88:\n    /* \"#utility.yul\":3701:3775   */\n  tag_90\n    /* \"#utility.yul\":3767:3774   */\n  dup7\n    /* \"#utility.yul\":3758:3764   */\n  dup3\n    /* \"#utility.yul\":3747:3756   */\n  dup8\n    /* \"#utility.yul\":3743:3765   */\n  add\n    /* \"#utility.yul\":3701:3775   */\n  tag_25\n  jump\t// in\ntag_90:\n    /* \"#utility.yul\":3691:3775   */\n  swap3\n  pop\n    /* \"#utility.yul\":3493:3785   */\n  pop\n    /* \"#utility.yul\":3845:3847   */\n  0x40\n    /* \"#utility.yul\":3834:3843   */\n  dup5\n    /* \"#utility.yul\":3830:3848   */\n  add\n    /* \"#utility.yul\":3824:3849   */\n  mload\n    /* \"#utility.yul\":3876:3894   */\n  0xffffffffffffffff\n    /* \"#utility.yul\":3868:3874   */\n  dup2\n    /* \"#utility.yul\":3865:3895   */\n  gt\n    /* \"#utility.yul\":3862:3979   */\n  iszero\n  tag_91\n  jumpi\n    /* \"#utility.yul\":3898:3977   */\n  tag_92\n  tag_12\n  jump\t// in\ntag_92:\n    /* \"#utility.yul\":3862:3979   */\ntag_91:\n    /* \"#utility.yul\":4003:4077   */\n  tag_93\n    /* \"#utility.yul\":4069:4076   */\n  dup7\n    /* \"#utility.yul\":4060:4066   */\n  dup3\n    /* \"#utility.yul\":4049:4058   */\n  dup8\n    /* \"#utility.yul\":4045:4067   */\n  add\n    /* \"#utility.yul\":4003:4077   */\n  tag_25\n  jump\t// in\ntag_93:\n    /* \"#utility.yul\":3993:4077   */\n  swap2\n  pop\n    /* \"#utility.yul\":3795:4087   */\n  pop\n    /* \"#utility.yul\":3085:4094   */\n  swap3\n  pop\n  swap3\n  pop\n  swap3\n  jump\t// out\n    /* \"#utility.yul\":4100:4199   */\ntag_26:\n    /* \"#utility.yul\":4152:4158   */\n  0x00\n    /* \"#utility.yul\":4186:4191   */\n  dup2\n    /* \"#utility.yul\":4180:4192   */\n  mload\n    /* \"#utility.yul\":4170:4192   */\n  swap1\n  pop\n    /* \"#utility.yul\":4100:4199   */\n  swap2\n  swap1\n  pop\n  jump\t// out\n    /* \"#utility.yul\":4205:4385   */\ntag_27:\n    /* \"#utility.yul\":4253:4330   */\n  0x4e487b7100000000000000000000000000000000000000000000000000000000\n    /* \"#utility.yul\":4250:4251   */\n  0x00\n    /* \"#utility.yul\":4243:4331   */\n  mstore\n    /* \"#utility.yul\":4350:4354   */\n  0x22\n    /* \"#utility.yul\":4347:4348   */\n  0x04\n    /* \"#utility.yul\":4340:4355   */\n  mstore\n    /* \"#utility.yul\":4374:4378   */\n  0x24\n    /* \"#utility.yul\":4371:4372   */\n  0x00\n    /* \"#utility.yul\":4364:4379   */\n  revert\n    /* \"#utility.yul\":4391:4711   */\ntag_28:\n    /* \"#utility.yul\":4435:4441   */\n  0x00\n    /* \"#utility.yul\":4472:4473   */\n  0x02\n    /* \"#utility.yul\":4466:4470   */\n  dup3\n    /* \"#utility.yul\":4462:4474   */\n  div\n    /* \"#utility.yul\":4452:4474   */\n  swap1\n  pop\n    /* \"#utility.yul\":4519:4520   */\n  0x01\n    /* \"#utility.yul\":4513:4517   */\n  dup3\n    /* \"#utility.yul\":4509:4521   */\n  and\n    /* \"#utility.yul\":4540:4558   */\n  dup1\n    /* \"#utility.yul\":4530:4611   */\n  tag_97\n  jumpi\n    /* \"#utility.yul\":4596:4600   */\n  0x7f\n    /* \"#utility.yul\":4588:4594   */\n  dup3\n    /* \"#utility.yul\":4584:4601   */\n  and\n    /* \"#utility.yul\":4574:4601   */\n  swap2\n  pop\n    /* \"#utility.yul\":4530:4611   */\ntag_97:\n    /* \"#utility.yul\":4658:4660   */\n  0x20\n    /* \"#utility.yul\":4650:4656   */\n  dup3\n    /* \"#utility.yul\":4647:4661   */\n  lt\n    /* \"#utility.yul\":4627:4645   */\n  dup2\n    /* \"#utility.yul\":4624:4662   */\n  sub\n    /* \"#utility.yul\":4621:4705   */\n  tag_98\n  jumpi\n    /* \"#utility.yul\":4677:4695   */\n  tag_99\n  tag_27\n  jump\t// in\ntag_99:\n    /* \"#utility.yul\":4621:4705   */\ntag_98:\n    /* \"#utility.yul\":4442:4711   */\n  pop\n    /* \"#utility.yul\":4391:4711   */\n  swap2\n  swap1\n  pop\n  jump\t// out\n    /* \"#utility.yul\":4717:4858   */\ntag_29:\n    /* \"#utility.yul\":4766:4770   */\n  0x00\n    /* \"#utility.yul\":4789:4792   */\n  dup2\n    /* \"#utility.yul\":4781:4792   */\n  swap1\n  pop\n    /* \"#utility.yul\":4812:4815   */\n  dup2\n    /* \"#utility.yul\":4809:4810   */\n  0x00\n    /* \"#utility.yul\":4802:4816   */\n  mstore\n    /* \"#utility.yul\":4846:4850   */\n  0x20\n    /* \"#utility.yul\":4843:4844   */\n  0x00\n    /* \"#utility.yul\":4833:4851   */\n  keccak256\n    /* \"#utility.yul\":4825:4851   */\n  swap1\n  pop\n    /* \"#utility.yul\":4717:4858   */\n  swap2\n  swap1\n  pop\n  jump\t// out\n    /* \"#utility.yul\":4864:4957   */\ntag_30:\n    /* \"#utility.yul\":4901:4907   */\n  0x00\n    /* \"#utility.yul\":4948:4950   */\n  0x20\n    /* \"#utility.yul\":4943:4945   */\n  0x1f\n    /* \"#utility.yul\":4936:4941   */\n  dup4\n    /* \"#utility.yul\":4932:4946   */\n  add\n    /* \"#utility.yul\":4928:4951   */\n  div\n    /* \"#utility.yul\":4918:4951   */\n  swap1\n  pop\n    /* \"#utility.yul\":4864:4957   */\n  swap2\n  swap1\n  pop\n  jump\t// out\n    /* \"#utility.yul\":4963:5070   */\ntag_31:\n    /* \"#utility.yul\":5007:5015   */\n  0x00\n    /* \"#utility.yul\":5057:5062   */\n  dup3\n    /* \"#utility.yul\":5051:5055   */\n  dup3\n    /* \"#utility.yul\":5047:5063   */\n  shl\n    /* \"#utility.yul\":5026:5063   */\n  swap1\n  pop\n    /* \"#utility.yul\":4963:5070   */\n  swap3\n  swap2\n  pop\n  pop\n  jump\t// out\n    /* \"#utility.yul\":5076:5469   */\ntag_32:\n    /* \"#utility.yul\":5145:5151   */\n  0x00\n    /* \"#utility.yul\":5195:5196   */\n  0x08\n    /* \"#utility.yul\":5183:5193   */\n  dup4\n    /* \"#utility.yul\":5179:5197   */\n  mul\n    /* \"#utility.yul\":5218:5315   */\n  tag_104\n    /* \"#utility.yul\":5248:5314   */\n  0xffffffffffffffffffffffffffffffffffffffffffffffffffffffffffffffff\n    /* \"#utility.yul\":5237:5246   */\n  dup3\n    /* \"#utility.yul\":5218:5315   */\n  tag_31\n  jump\t// in\ntag_104:\n    /* \"#utility.yul\":5336:5375   */\n  tag_105\n    /* \"#utility.yul\":5366:5374   */\n  dup7\n    /* \"#utility.yul\":5355:5364   */\n  dup4\n    /* \"#utility.yul\":5336:5375   */\n  tag_31\n  jump\t// in\ntag_105:\n    /* \"#utility.yul\":5324:5375   */\n  swap6\n  pop\n    /* \"#utility.yul\":5408:5412   */\n  dup1\n    /* \"#utility.yul\":5404:5413   */\n  not\n    /* \"#utility.yul\":5397:5402   */\n  dup5\n    /* \"#utility.yul\":5393:5414   */\n  and\n    /* \"#utility.yul\":5384:5414   */\n  swap4\n  pop\n    /* \"#utility.yul\":5457:5461   */\n  dup1\n    /* \"#utility.yul\":5447:5455   */\n  dup7\n    /* \"#utility.yul\":5443:5462   */\n  and\n    /* \"#utility.yul\":5436:5441   */\n  dup5\n    /* \"#utility.yul\":5433:5463   */\n  or\n    /* \"#utility.yul\":5423:5463   */\n  swap3\n  pop\n    /* \"#utility.yul\":5152:5469   */\n  pop\n  pop\n    /* \"#utility.yul\":5076:5469   */\n  swap4\n  swap3\n  pop\n  pop\n  pop\n  jump\t// out\n    /* \"#utility.yul\":5475:5535   */\ntag_33:\n    /* \"#utility.yul\":5503:5506   */\n  0x00\n    /* \"#utility.yul\":5524:5529   */\n  dup2\n    /* \"#utility.yul\":5517:5529   */\n  swap1\n  pop\n    /* \"#utility.yul\":5475:5535   */\n  swap2\n  swap1\n  pop\n  jump\t// out\n    /* \"#utility.yul\":5541:5683   */\ntag_34:\n    /* \"#utility.yul\":5591:5600   */\n  0x00\n    /* \"#utility.yul\":5624:5677   */\n  tag_108\n    /* \"#utility.yul\":5642:5676   */\n  tag_109\n    /* \"#utility.yul\":5651:5675   */\n  tag_110\n    /* \"#utility.yul\":5669:5674   */\n  dup5\n    /* \"#utility.yul\":5651:5675   */\n  tag_13\n  jump\t// in\ntag_110:\n    /* \"#utility.yul\":5642:5676   */\n  tag_33\n  jump\t// in\ntag_109:\n    /* \"#utility.yul\":5624:5677   */\n  tag_13\n  jump\t// in\ntag_108:\n    /* \"#utility.yul\":5611:5677   */\n  swap1\n  pop\n    /* \"#utility.yul\":5541:5683   */\n  swap2\n  swap1\n  pop\n  jump\t// out\n    /* \"#utility.yul\":5689:5764   */\ntag_35:\n    /* \"#utility.yul\":5732:5735   */\n  0x00\n    /* \"#utility.yul\":5753:5758   */\n  dup2\n    /* \"#utility.yul\":5746:5758   */\n  swap1\n  pop\n    /* \"#utility.yul\":5689:5764   */\n  swap2\n  swap1\n  pop\n  jump\t// out\n    /* \"#utility.yul\":5770:6039   */\ntag_36:\n    /* \"#utility.yul\":5880:5919   */\n  tag_113\n    /* \"#utility.yul\":5911:5918   */\n  dup4\n    /* \"#utility.yul\":5880:5919   */\n  tag_34\n  jump\t// in\ntag_113:\n    /* \"#utility.yul\":5941:6032   */\n  tag_114\n    /* \"#utility.yul\":5990:6031   */\n  tag_115\n    /* \"#utility.yul\":6014:6030   */\n  dup3\n    /* \"#utility.yul\":5990:6031   */\n  tag_35\n  jump\t// in\ntag_115:\n    /* \"#utility.yul\":5982:5988   */\n  dup5\n    /* \"#utility.yul\":5975:5979   */\n  dup5\n    /* \"#utility.yul\":5969:5980   */\n  sload\n    /* \"#utility.yul\":5941:6032   */\n  tag_32\n  jump\t// in\ntag_114:\n    /* \"#utility.yul\":5935:5939   */\n  dup3\n    /* \"#utility.yul\":5928:6033   */\n  sstore\n    /* \"#utility.yul\":5846:6039   */\n  pop\n    /* \"#utility.yul\":5770:6039   */\n  pop\n  pop\n  pop\n  jump\t// out\n    /* \"#utility.yul\":6045:6118   */\ntag_37:\n    /* \"#utility.yul\":6090:6093   */\n  0x00\n    /* \"#utility.yul\":6045:6118   */\n  swap1\n  jump\t// out\n    /* \"#utility.yul\":6124:6313   */\ntag_38:\n    /* \"#utility.yul\":6201:6233   */\n  tag_118\n  tag_37\n  jump\t// in\ntag_118:\n    /* \"#utility.yul\":6242:6307   */\n  tag_119\n    /* \"#utility.yul\":6300:6306   */\n  dup2\n    /* \"#utility.yul\":6292:6298   */\n  dup5\n    /* \"#utility.yul\":6286:6290   */\n  dup5\n    /* \"#utility.yul\":6242:6307   */\n  tag_36\n  jump\t// in\ntag_119:\n    /* \"#utility.yul\":6177:6313   */\n  pop\n    /* \"#utility.yul\":6124:6313   */\n  pop\n  pop\n  jump\t// out\n    /* \"#utility.yul\":6319:6505   */\ntag_39:\n    /* \"#utility.yul\":6379:6499   */\ntag_121:\n    /* \"#utility.yul\":6396:6399   */\n  dup2\n    /* \"#utility.yul\":6389:6394   */\n  dup2\n    /* \"#utility.yul\":6386:6400   */\n  lt\n    /* \"#utility.yul\":6379:6499   */\n  iszero\n  tag_123\n  jumpi\n    /* \"#utility.yul\":6450:6489   */\n  tag_124\n    /* \"#utility.yul\":6487:6488   */\n  0x00\n    /* \"#utility.yul\":6480:6485   */\n  dup3\n    /* \"#utility.yul\":6450:6489   */\n  tag_38\n  jump\t// in\ntag_124:\n    /* \"#utility.yul\":6423:6424   */\n  0x01\n    /* \"#utility.yul\":6416:6421   */\n  dup2\n    /* \"#utility.yul\":6412:6425   */\n  add\n    /* \"#utility.yul\":6403:6425   */\n  swap1\n  pop\n    /* \"#utility.yul\":6379:6499   */\n  jump(tag_121)\ntag_123:\n    /* \"#utility.yul\":6319:6505   */\n  pop\n  pop\n  jump\t// out\n    /* \"#utility.yul\":6511:7054   */\ntag_40:\n    /* \"#utility.yul\":6612:6614   */\n  0x1f\n    /* \"#utility.yul\":6607:6610   */\n  dup3\n    /* \"#utility.yul\":6604:6615   */\n  gt\n    /* \"#utility.yul\":6601:7047   */\n  iszero\n  tag_126\n  jumpi\n    /* \"#utility.yul\":6646:6684   */\n  tag_127\n    /* \"#utility.yul\":6678:6683   */\n  dup2\n    /* \"#utility.yul\":6646:6684   */\n  tag_29\n  jump\t// in\ntag_127:\n    /* \"#utility.yul\":6730:6759   */\n  tag_128\n    /* \"#utility.yul\":6748:6758   */\n  dup5\n    /* \"#utility.yul\":6730:6759   */\n  tag_30\n  jump\t// in\ntag_128:\n    /* \"#utility.yul\":6720:6728   */\n  dup2\n    /* \"#utility.yul\":6716:6760   */\n  add\n    /* \"#utility.yul\":6913:6915   */\n  0x20\n    /* \"#utility.yul\":6901:6911   */\n  dup6\n    /* \"#utility.yul\":6898:6916   */\n  lt\n    /* \"#utility.yul\":6895:6944   */\n  iszero\n  tag_129\n  jumpi\n    /* \"#utility.yul\":6934:6942   */\n  dup2\n    /* \"#utility.yul\":6919:6942   */\n  swap1\n  pop\n    /* \"#utility.yul\":6895:6944   */\ntag_129:\n    /* \"#utility.yul\":6957:7037   */\n  tag_130\n    /* \"#utility.yul\":7013:7035   */\n  tag_131\n    /* \"#utility.yul\":7031:7034   */\n  dup6\n    /* \"#utility.yul\":7013:7035   */\n  tag_30\n  jump\t// in\ntag_131:\n    /* \"#utility.yul\":7003:7011   */\n  dup4\n    /* \"#utility.yul\":6999:7036   */\n  add\n    /* \"#utility.yul\":6986:6997   */\n  dup3\n    /* \"#utility.yul\":6957:7037   */\n  tag_39\n  jump\t// in\ntag_130:\n    /* \"#utility.yul\":6616:7047   */\n  pop\n  pop\n    /* \"#utility.yul\":6601:7047   */\ntag_126:\n    /* \"#utility.yul\":6511:7054   */\n  pop\n  pop\n  pop\n  jump\t// out\n    /* \"#utility.yul\":7060:7177   */\ntag_41:\n    /* \"#utility.yul\":7114:7122   */\n  0x00\n    /* \"#utility.yul\":7164:7169   */\n  dup3\n    /* \"#utility.yul\":7158:7162   */\n  dup3\n    /* \"#utility.yul\":7154:7170   */\n  shr\n    /* \"#utility.yul\":7133:7170   */\n  swap1\n  pop\n    /* \"#utility.yul\":7060:7177   */\n  swap3\n  swap2\n  pop\n  pop\n  jump\t// out\n    /* \"#utility.yul\":7183:7352   */\ntag_42:\n    /* \"#utility.yul\":7227:7233   */\n  0x00\n    /* \"#utility.yul\":7260:7311   */\n  tag_134\n    /* \"#utility.yul\":7308:7309   */\n  0x00\n    /* \"#utility.yul\":7304:7310   */\n  not\n    /* \"#utility.yul\":7296:7301   */\n  dup5\n    /* \"#utility.yul\":7293:7294   */\n  0x08\n    /* \"#utility.yul\":7289:7302   */\n  mul\n    /* \"#utility.yul\":7260:7311   */\n  tag_41\n  jump\t// in\ntag_134:\n    /* \"#utility.yul\":7256:7312   */\n  not\n    /* \"#utility.yul\":7341:7345   */\n  dup1\n    /* \"#utility.yul\":7335:7339   */\n  dup4\n    /* \"#utility.yul\":7331:7346   */\n  and\n    /* \"#utility.yul\":7321:7346   */\n  swap2\n  pop\n    /* \"#utility.yul\":7234:7352   */\n  pop\n    /* \"#utility.yul\":7183:7352   */\n  swap3\n  swap2\n  pop\n  pop\n  jump\t// out\n    /* \"#utility.yul\":7357:7652   */\ntag_43:\n    /* \"#utility.yul\":7433:7437   */\n  0x00\n    /* \"#utility.yul\":7579:7608   */\n  tag_136\n    /* \"#utility.yul\":7604:7607   */\n  dup4\n    /* \"#utility.yul\":7598:7602   */\n  dup4\n    /* \"#utility.yul\":7579:7608   */\n  tag_42\n  jump\t// in\ntag_136:\n    /* \"#utility.yul\":7571:7608   */\n  swap2\n  pop\n    /* \"#utility.yul\":7641:7644   */\n  dup3\n    /* \"#utility.yul\":7638:7639   */\n  0x02\n    /* \"#utility.yul\":7634:7645   */\n  mul\n    /* \"#utility.yul\":7628:7632   */\n  dup3\n    /* \"#utility.yul\":7625:7646   */\n  or\n    /* \"#utility.yul\":7617:7646   */\n  swap1\n  pop\n    /* \"#utility.yul\":7357:7652   */\n  swap3\n  swap2\n  pop\n  pop\n  jump\t// out\n    /* \"#utility.yul\":7657:9052   */\ntag_7:\n    /* \"#utility.yul\":7774:7811   */\n  tag_138\n    /* \"#utility.yul\":7807:7810   */\n  dup3\n    /* \"#utility.yul\":7774:7811   */\n  tag_26\n  jump\t// in\ntag_138:\n    /* \"#utility.yul\":7876:7894   */\n  0xffffffffffffffff\n    /* \"#utility.yul\":7868:7874   */\n  dup2\n    /* \"#utility.yul\":7865:7895   */\n  gt\n    /* \"#utility.yul\":7862:7918   */\n  iszero\n  tag_139\n  jumpi\n    /* \"#utility.yul\":7898:7916   */\n  tag_140\n  tag_19\n  jump\t// in\ntag_140:\n    /* \"#utility.yul\":7862:7918   */\ntag_139:\n    /* \"#utility.yul\":7942:7980   */\n  tag_141\n    /* \"#utility.yul\":7974:7978   */\n  dup3\n    /* \"#utility.yul\":7968:7979   */\n  sload\n    /* \"#utility.yul\":7942:7980   */\n  tag_28\n  jump\t// in\ntag_141:\n    /* \"#utility.yul\":8027:8094   */\n  tag_142\n    /* \"#utility.yul\":8087:8093   */\n  dup3\n    /* \"#utility.yul\":8079:8085   */\n  dup3\n    /* \"#utility.yul\":8073:8077   */\n  dup6\n    /* \"#utility.yul\":8027:8094   */\n  tag_40\n  jump\t// in\ntag_142:\n    /* \"#utility.yul\":8121:8122   */\n  0x00\n    /* \"#utility.yul\":8145:8149   */\n  0x20\n    /* \"#utility.yul\":8132:8149   */\n  swap1\n  pop\n    /* \"#utility.yul\":8177:8179   */\n  0x1f\n    /* \"#utility.yul\":8169:8175   */\n  dup4\n    /* \"#utility.yul\":8166:8180   */\n  gt\n    /* \"#utility.yul\":8194:8195   */\n  0x01\n    /* \"#utility.yul\":8189:8807   */\n  dup2\n  eq\n  tag_144\n  jumpi\n    /* \"#utility.yul\":8851:8852   */\n  0x00\n    /* \"#utility.yul\":8868:8874   */\n  dup5\n    /* \"#utility.yul\":8865:8942   */\n  iszero\n  tag_145\n  jumpi\n    /* \"#utility.yul\":8917:8926   */\n  dup3\n    /* \"#utility.yul\":8912:8915   */\n  dup8\n    /* \"#utility.yul\":8908:8927   */\n  add\n    /* \"#utility.yul\":8902:8928   */\n  mload\n    /* \"#utility.yul\":8893:8928   */\n  swap1\n  pop\n    /* \"#utility.yul\":8865:8942   */\ntag_145:\n    /* \"#utility.yul\":8968:9035   */\n  tag_146\n    /* \"#utility.yul\":9028:9034   */\n  dup6\n    /* \"#utility.yul\":9021:9026   */\n  dup3\n    /* \"#utility.yul\":8968:9035   */\n  tag_43\n  jump\t// in\ntag_146:\n    /* \"#utility.yul\":8962:8966   */\n  dup7\n    /* \"#utility.yul\":8955:9036   */\n  sstore\n    /* \"#utility.yul\":8824:9046   */\n  pop\n    /* \"#utility.yul\":8159:9046   */\n  jump(tag_143)\n    /* \"#utility.yul\":8189:8807   */\ntag_144:\n    /* \"#utility.yul\":8241:8245   */\n  0x1f\n    /* \"#utility.yul\":8237:8246   */\n  not\n    /* \"#utility.yul\":8229:8235   */\n  dup5\n    /* \"#utility.yul\":8225:8247   */\n  and\n    /* \"#utility.yul\":8275:8312   */\n  tag_147\n    /* \"#utility.yul\":8307:8311   */\n  dup7\n    /* \"#utility.yul\":8275:8312   */\n  tag_29\n  jump\t// in\ntag_147:\n    /* \"#utility.yul\":8334:8335   */\n  0x00\n    /* \"#utility.yul\":8348:8556   */\ntag_148:\n    /* \"#utility.yul\":8362:8369   */\n  dup3\n    /* \"#utility.yul\":8359:8360   */\n  dup2\n    /* \"#utility.yul\":8356:8370   */\n  lt\n    /* \"#utility.yul\":8348:8556   */\n  iszero\n  tag_150\n  jumpi\n    /* \"#utility.yul\":8441:8450   */\n  dup5\n    /* \"#utility.yul\":8436:8439   */\n  dup10\n    /* \"#utility.yul\":8432:8451   */\n  add\n    /* \"#utility.yul\":8426:8452   */\n  mload\n    /* \"#utility.yul\":8418:8424   */\n  dup3\n    /* \"#utility.yul\":8411:8453   */\n  sstore\n    /* \"#utility.yul\":8492:8493   */\n  0x01\n    /* \"#utility.yul\":8484:8490   */\n  dup3\n    /* \"#utility.yul\":8480:8494   */\n  add\n    /* \"#utility.yul\":8470:8494   */\n  swap2\n  pop\n    /* \"#utility.yul\":8539:8541   */\n  0x20\n    /* \"#utility.yul\":8528:8537   */\n  dup6\n    /* \"#utility.yul\":8524:8542   */\n  add\n    /* \"#utility.yul\":8511:8542   */\n  swap5\n  pop\n    /* \"#utility.yul\":8385:8389   */\n  0x20\n    /* \"#utility.yul\":8382:8383   */\n  dup2\n    /* \"#utility.yul\":8378:8390   */\n  add\n    /* \"#utility.yul\":8373:8390   */\n  swap1\n  pop\n    /* \"#utility.yul\":8348:8556   */\n  jump(tag_148)\ntag_150:\n    /* \"#utility.yul\":8584:8590   */\n  dup7\n    /* \"#utility.yul\":8575:8582   */\n  dup4\n    /* \"#utility.yul\":8572:8591   */\n  lt\n    /* \"#utility.yul\":8569:8748   */\n  iszero\n  tag_151\n  jumpi\n    /* \"#utility.yul\":8642:8651   */\n  dup5\n    /* \"#utility.yul\":8637:8640   */\n  dup10\n    /* \"#utility.yul\":8633:8652   */\n  add\n    /* \"#utility.yul\":8627:8653   */\n  mload\n    /* \"#utility.yul\":8685:8733   */\n  tag_152\n    /* \"#utility.yul\":8727:8731   */\n  0x1f\n    /* \"#utility.yul\":8719:8725   */\n  dup10\n    /* \"#utility.yul\":8715:8732   */\n  and\n    /* \"#utility.yul\":8704:8713   */\n  dup3\n    /* \"#utility.yul\":8685:8733   */\n  tag_42\n  jump\t// in\ntag_152:\n    /* \"#utility.yul\":8677:8683   */\n  dup4\n    /* \"#utility.yul\":8670:8734   */\n  sstore\n    /* \"#utility.yul\":8592:8748   */\n  pop\n    /* \"#utility.yul\":8569:8748   */\ntag_151:\n    /* \"#utility.yul\":8794:8795   */\n  0x01\n    /* \"#utility.yul\":8790:8791   */\n  0x02\n    /* \"#utility.yul\":8782:8788   */\n  dup9\n    /* \"#utility.yul\":8778:8792   */\n  mul\n    /* \"#utility.yul\":8774:8796   */\n  add\n    /* \"#utility.yul\":8768:8772   */\n  dup9\n    /* \"#utility.yul\":8761:8797   */\n  sstore\n    /* \"#utility.yul\":8196:8807   */\n  pop\n  pop\n  pop\n    /* \"#utility.yul\":8159:9046   */\ntag_143:\n  pop\n    /* \"#utility.yul\":7749:9052   */\n  pop\n  pop\n  pop\n    /* \"#utility.yul\":7657:9052   */\n  pop\n  pop\n  jump\t// out\n    /* \"Dapp/MoneyTransfer.sol\":71:2327  contract  MoneyTransfer {... */\ntag_9:\n  dataSize(sub_0)\n  dup1\n  dataOffset(sub_0)\n  0x00\n  codecopy\n  0x00\n  return\nstop\n\nsub_0: assembly {\n        /* \"Dapp/MoneyTransfer.sol\":71:2327  contract  MoneyTransfer {... */\n      mstore(0x40, 0x80)\n      callvalue\n      dup1\n      iszero\n      tag_1\n      jumpi\n      0x00\n      dup1\n      revert\n    tag_1:\n      pop\n      jumpi(tag_2, lt(calldatasize, 0x04))\n      shr(0xe0, calldataload(0x00))\n      dup1\n      0x7eb9f571\n      gt\n      tag_15\n      jumpi\n      dup1\n      0x7eb9f571\n      eq\n      tag_9\n      jumpi\n      dup1\n      0x8fa11864\n      eq\n      tag_10\n      jumpi\n      dup1\n      0x94b5dcaa\n      eq\n      tag_11\n      jumpi\n      dup1\n      0xaa8c217c\n      eq\n      tag_12\n      jumpi\n      dup1\n      0xbc309496\n      eq\n      tag_13\n      jumpi\n      dup1\n      0xe21f37ce\n      eq\n      tag_14\n      jumpi\n      jump(tag_2)\n    tag_15:\n      dup1\n      0x062a7544\n      eq\n      tag_3\n      jumpi\n      dup1\n      0x0e85fa72\n      eq\n      tag_4\n      jumpi\n      dup1\n      0x34f5ccde\n      eq\n      tag_5\n      jumpi\n      dup1\n      0x42fb7936\n      eq\n      tag_6\n      jumpi\n      dup1\n      0x4b28f9a2\n      eq\n      tag_7\n      jumpi\n      dup1\n      0x7b9a3f4c\n      eq\n      tag_8\n      jumpi\n    tag_2:\n      0x00\n      dup1\n      revert\n        /* \"Dapp/MoneyTransfer.sol\":825:1371  function sendMoney( uint _amount, address _receiver) public m_validAddress(_receiver) m_checkCard m_transferLimit{... */\n    tag_3:\n      tag_16\n      0x04\n      dup1\n      calldatasize\n      sub\n      dup2\n      add\n      swap1\n      tag_17\n      swap2\n      swap1\n      tag_18\n      jump\t// in\n    tag_17:\n      tag_19\n      jump\t// in\n    tag_16:\n      stop\n        /* \"Dapp/MoneyTransfer.sol\":524:553  uint public firstTransferTime */\n    tag_4:\n      tag_20\n      tag_21\n      jump\t// in\n    tag_20:\n      mload(0x40)\n      tag_22\n      swap2\n      swap1\n      tag_23\n      jump\t// in\n    tag_22:\n      mload(0x40)\n      dup1\n      swap2\n      sub\n      swap1\n      return\n        /* \"Dapp/MoneyTransfer.sol\":560:585  uint public countTransfer */\n    tag_5:\n      tag_24\n      tag_25\n      jump\t// in\n    tag_24:\n      mload(0x40)\n      tag_26\n      swap2\n      swap1\n      tag_23\n      jump\t// in\n    tag_26:\n      mload(0x40)\n      dup1\n      swap2\n      sub\n      swap1\n      return\n        /* \"Dapp/MoneyTransfer.sol\":470:487  string public cvv */\n    tag_6:\n      tag_27\n      tag_28\n      jump\t// in\n    tag_27:\n      mload(0x40)\n      tag_29\n      swap2\n      swap1\n      tag_30\n      jump\t// in\n    tag_29:\n      mload(0x40)\n      dup1\n      swap2\n      sub\n      swap1\n      return\n        /* \"Dapp/MoneyTransfer.sol\":790:815  uint public callCount = 0 */\n    tag_7:\n      tag_31\n      tag_32\n      jump\t// in\n    tag_31:\n      mload(0x40)\n      tag_33\n      swap2\n      swap1\n      tag_23\n      jump\t// in\n    tag_33:\n      mload(0x40)\n      dup1\n      swap2\n      sub\n      swap1\n      return\n        /* \"Dapp/MoneyTransfer.sol\":134:159  uint256 public TotalFunds */\n    tag_8:\n      tag_34\n      tag_35\n      jump\t// in\n    tag_34:\n      mload(0x40)\n      tag_36\n      swap2\n      swap1\n      tag_23\n      jump\t// in\n    tag_36:\n      mload(0x40)\n      dup1\n      swap2\n      sub\n      swap1\n      return\n        /* \"Dapp/MoneyTransfer.sol\":494:520  uint256 public TotalAmount */\n    tag_9:\n      tag_37\n      tag_38\n      jump\t// in\n    tag_37:\n      mload(0x40)\n      tag_39\n      swap2\n      swap1\n      tag_23\n      jump\t// in\n    tag_39:\n      mload(0x40)\n      dup1\n      swap2\n      sub\n      swap1\n      return\n        /* \"Dapp/MoneyTransfer.sol\":438:462  string public cardNumber */\n    tag_10:\n      tag_40\n      tag_41\n      jump\t// in\n    tag_40:\n      mload(0x40)\n      tag_42\n      swap2\n      swap1\n      tag_30\n      jump\t// in\n    tag_42:\n      mload(0x40)\n      dup1\n      swap2\n      sub\n      swap1\n      return\n        /* \"Dapp/MoneyTransfer.sol\":252:288  uint256 public totalWeekTransactions */\n    tag_11:\n      tag_43\n      tag_44\n      jump\t// in\n    tag_43:\n      mload(0x40)\n      tag_45\n      swap2\n      swap1\n      tag_23\n      jump\t// in\n    tag_45:\n      mload(0x40)\n      dup1\n      swap2\n      sub\n      swap1\n      return\n        /* \"Dapp/MoneyTransfer.sol\":106:127  uint256 public amount */\n    tag_12:\n      tag_46\n      tag_47\n      jump\t// in\n    tag_46:\n      mload(0x40)\n      tag_48\n      swap2\n      swap1\n      tag_23\n      jump\t// in\n    tag_48:\n      mload(0x40)\n      dup1\n      swap2\n      sub\n      swap1\n      return\n        /* \"Dapp/MoneyTransfer.sol\":375:403  uint256 public receiverFunds */\n    tag_13:\n      tag_49\n      tag_50\n      jump\t// in\n    tag_49:\n      mload(0x40)\n      tag_51\n      swap2\n      swap1\n      tag_23\n      jump\t// in\n    tag_51:\n      mload(0x40)\n      dup1\n      swap2\n      sub\n      swap1\n      return\n        /* \"Dapp/MoneyTransfer.sol\":410:431  string public message */\n    tag_14:\n      tag_52\n      tag_53\n      jump\t// in\n    tag_52:\n      mload(0x40)\n      tag_54\n      swap2\n      swap1\n      tag_30\n      jump\t// in\n    tag_54:\n      mload(0x40)\n      dup1\n      swap2\n      sub\n      swap1\n      return\n        /* \"Dapp/MoneyTransfer.sol\":825:1371  function sendMoney( uint _amount, address _receiver) public m_validAddress(_receiver) m_checkCard m_transferLimit{... */\n    tag_19:\n        /* \"Dapp/MoneyTransfer.sol\":900:909  _receiver */\n      dup1\n        /* \"Dapp/MoneyTransfer.sol\":1582:1587  _addr */\n      dup1\n        /* \"Dapp/MoneyTransfer.sol\":1571:1579  receiver */\n      0x02\n      0x00\n        /* \"Dapp/MoneyTransfer.sol\":1571:1587  receiver = _addr */\n      0x0100\n      exp\n      dup2\n      sload\n      dup2\n      0xffffffffffffffffffffffffffffffffffffffff\n      mul\n      not\n      and\n      swap1\n      dup4\n      0xffffffffffffffffffffffffffffffffffffffff\n      and\n      mul\n      or\n      swap1\n      sstore\n      pop\n        /* \"Dapp/MoneyTransfer.sol\":1623:1624  0 */\n      0x00\n        /* \"Dapp/MoneyTransfer.sol\":1606:1625  _addr != address(0) */\n      0xffffffffffffffffffffffffffffffffffffffff\n      and\n        /* \"Dapp/MoneyTransfer.sol\":1606:1611  _addr */\n      dup2\n        /* \"Dapp/MoneyTransfer.sol\":1606:1625  _addr != address(0) */\n      0xffffffffffffffffffffffffffffffffffffffff\n      and\n      sub\n        /* \"Dapp/MoneyTransfer.sol\":1598:1658  require(_addr != address(0), \" This address doesn't exists\") */\n      tag_56\n      jumpi\n      mload(0x40)\n      0x08c379a000000000000000000000000000000000000000000000000000000000\n      dup2\n      mstore\n      0x04\n      add\n      tag_57\n      swap1\n      tag_58\n      jump\t// in\n    tag_57:\n      mload(0x40)\n      dup1\n      swap2\n      sub\n      swap1\n      revert\n    tag_56:\n        /* \"Dapp/MoneyTransfer.sol\":1769:1770  8 */\n      0x08\n        /* \"Dapp/MoneyTransfer.sol\":1747:1757  cardNumber */\n      0x0a\n        /* \"Dapp/MoneyTransfer.sol\":1741:1765  bytes(cardNumber).length */\n      dup1\n      sload\n      tag_60\n      swap1\n      tag_61\n      jump\t// in\n    tag_60:\n      swap1\n      pop\n        /* \"Dapp/MoneyTransfer.sol\":1741:1770  bytes(cardNumber).length == 8 */\n      eq\n        /* \"Dapp/MoneyTransfer.sol\":1741:1796  bytes(cardNumber).length == 8 && bytes(cvv).length == 3 */\n      dup1\n      iszero\n      tag_62\n      jumpi\n      pop\n        /* \"Dapp/MoneyTransfer.sol\":1795:1796  3 */\n      0x03\n        /* \"Dapp/MoneyTransfer.sol\":1780:1783  cvv */\n      0x0b\n        /* \"Dapp/MoneyTransfer.sol\":1774:1791  bytes(cvv).length */\n      dup1\n      sload\n      tag_63\n      swap1\n      tag_61\n      jump\t// in\n    tag_63:\n      swap1\n      pop\n        /* \"Dapp/MoneyTransfer.sol\":1774:1796  bytes(cvv).length == 3 */\n      eq\n        /* \"Dapp/MoneyTransfer.sol\":1741:1796  bytes(cardNumber).length == 8 && bytes(cvv).length == 3 */\n    tag_62:\n        /* \"Dapp/MoneyTransfer.sol\":1733:1821  require(bytes(cardNumber).length == 8 && bytes(cvv).length == 3, \"No valid credit card\") */\n      tag_64\n      jumpi\n      mload(0x40)\n      0x08c379a000000000000000000000000000000000000000000000000000000000\n      dup2\n      mstore\n      0x04\n      add\n      tag_65\n      swap1\n      tag_66\n      jump\t// in\n    tag_65:\n      mload(0x40)\n      dup1\n      swap2\n      sub\n      swap1\n      revert\n    tag_64:\n        /* \"Dapp/MoneyTransfer.sol\":1853:1854  0 */\n      0x00\n        /* \"Dapp/MoneyTransfer.sol\":1840:1850  TotalFunds */\n      sload(0x01)\n        /* \"Dapp/MoneyTransfer.sol\":1840:1854  TotalFunds > 0 */\n      gt\n        /* \"Dapp/MoneyTransfer.sol\":1840:1877  TotalFunds > 0 && TotalFunds > amount */\n      dup1\n      iszero\n      tag_67\n      jumpi\n      pop\n        /* \"Dapp/MoneyTransfer.sol\":1871:1877  amount */\n      sload(0x00)\n        /* \"Dapp/MoneyTransfer.sol\":1858:1868  TotalFunds */\n      sload(0x01)\n        /* \"Dapp/MoneyTransfer.sol\":1858:1877  TotalFunds > amount */\n      gt\n        /* \"Dapp/MoneyTransfer.sol\":1840:1877  TotalFunds > 0 && TotalFunds > amount */\n    tag_67:\n        /* \"Dapp/MoneyTransfer.sol\":1832:1897  require(TotalFunds > 0 && TotalFunds > amount,\"Not enough funds\") */\n      tag_68\n      jumpi\n      mload(0x40)\n      0x08c379a000000000000000000000000000000000000000000000000000000000\n      dup2\n      mstore\n      0x04\n      add\n      tag_69\n      swap1\n      tag_70\n      jump\t// in\n    tag_69:\n      mload(0x40)\n      dup1\n      swap2\n      sub\n      swap1\n      revert\n    tag_68:\n        /* \"Dapp/MoneyTransfer.sol\":2015:2019  2500 */\n      0x09c4\n        /* \"Dapp/MoneyTransfer.sol\":2000:2011  TotalAmount */\n      sload(0x0c)\n        /* \"Dapp/MoneyTransfer.sol\":2000:2019  TotalAmount <= 2500 */\n      gt\n      iszero\n        /* \"Dapp/MoneyTransfer.sol\":1991:2046  require (TotalAmount <= 2500 , \"You reached the limit\") */\n      tag_72\n      jumpi\n      mload(0x40)\n      0x08c379a000000000000000000000000000000000000000000000000000000000\n      dup2\n      mstore\n      0x04\n      add\n      tag_73\n      swap1\n      tag_74\n      jump\t// in\n    tag_73:\n      mload(0x40)\n      dup1\n      swap2\n      sub\n      swap1\n      revert\n    tag_72:\n        /* \"Dapp/MoneyTransfer.sol\":2080:2081  5 */\n      0x05\n        /* \"Dapp/MoneyTransfer.sol\":2067:2076  callCount */\n      sload(0x0f)\n        /* \"Dapp/MoneyTransfer.sol\":2067:2081  callCount <= 5 */\n      gt\n      iszero\n        /* \"Dapp/MoneyTransfer.sol\":2067:2136  callCount <= 5 && block.timestamp >= (firstTransferTime + 30 seconds) */\n      dup1\n      iszero\n      tag_75\n      jumpi\n      pop\n        /* \"Dapp/MoneyTransfer.sol\":2125:2135  30 seconds */\n      0x1e\n        /* \"Dapp/MoneyTransfer.sol\":2105:2122  firstTransferTime */\n      sload(0x0d)\n        /* \"Dapp/MoneyTransfer.sol\":2105:2135  firstTransferTime + 30 seconds */\n      tag_76\n      swap2\n      swap1\n      tag_77\n      jump\t// in\n    tag_76:\n        /* \"Dapp/MoneyTransfer.sol\":2085:2100  block.timestamp */\n      timestamp\n        /* \"Dapp/MoneyTransfer.sol\":2085:2136  block.timestamp >= (firstTransferTime + 30 seconds) */\n      lt\n      iszero\n        /* \"Dapp/MoneyTransfer.sol\":2067:2136  callCount <= 5 && block.timestamp >= (firstTransferTime + 30 seconds) */\n    tag_75:\n        /* \"Dapp/MoneyTransfer.sol\":2059:2188  require(callCount <= 5 && block.timestamp >= (firstTransferTime + 30 seconds),\"you cannot make more than 5 transactions per day\") */\n      tag_78\n      jumpi\n      mload(0x40)\n      0x08c379a000000000000000000000000000000000000000000000000000000000\n      dup2\n      mstore\n      0x04\n      add\n      tag_79\n      swap1\n      tag_80\n      jump\t// in\n    tag_79:\n      mload(0x40)\n      dup1\n      swap2\n      sub\n      swap1\n      revert\n    tag_78:\n        /* \"Dapp/MoneyTransfer.sol\":2248:2258  30 seconds */\n      0x1e\n        /* \"Dapp/MoneyTransfer.sol\":2228:2245  firstTransferTime */\n      sload(0x0d)\n        /* \"Dapp/MoneyTransfer.sol\":2228:2258  firstTransferTime + 30 seconds */\n      tag_81\n      swap2\n      swap1\n      tag_77\n      jump\t// in\n    tag_81:\n        /* \"Dapp/MoneyTransfer.sol\":2207:2224  firstTransferTime */\n      sload(0x0d)\n        /* \"Dapp/MoneyTransfer.sol\":2207:2259  firstTransferTime > (firstTransferTime + 30 seconds) */\n      gt\n        /* \"Dapp/MoneyTransfer.sol\":2199:2275  require(firstTransferTime > (firstTransferTime + 30 seconds), \"Time passed\") */\n      tag_82\n      jumpi\n      mload(0x40)\n      0x08c379a000000000000000000000000000000000000000000000000000000000\n      dup2\n      mstore\n      0x04\n      add\n      tag_83\n      swap1\n      tag_84\n      jump\t// in\n    tag_83:\n      mload(0x40)\n      dup1\n      swap2\n      sub\n      swap1\n      revert\n    tag_82:\n        /* \"Dapp/MoneyTransfer.sol\":960:969  _receiver */\n      dup2\n        /* \"Dapp/MoneyTransfer.sol\":949:957  receiver */\n      0x02\n      0x00\n        /* \"Dapp/MoneyTransfer.sol\":949:969  receiver = _receiver */\n      0x0100\n      exp\n      dup2\n      sload\n      dup2\n      0xffffffffffffffffffffffffffffffffffffffff\n      mul\n      not\n      and\n      swap1\n      dup4\n      0xffffffffffffffffffffffffffffffffffffffff\n      and\n      mul\n      or\n      swap1\n      sstore\n      pop\n        /* \"Dapp/MoneyTransfer.sol\":989:996  _amount */\n      dup3\n        /* \"Dapp/MoneyTransfer.sol\":980:986  amount */\n      0x00\n        /* \"Dapp/MoneyTransfer.sol\":980:996  amount = _amount */\n      dup2\n      swap1\n      sstore\n      pop\n        /* \"Dapp/MoneyTransfer.sol\":1066:1067  1 */\n      0x01\n        /* \"Dapp/MoneyTransfer.sol\":1053:1062  callCount */\n      0x0f\n      0x00\n        /* \"Dapp/MoneyTransfer.sol\":1053:1067  callCount += 1 */\n      dup3\n      dup3\n      sload\n      tag_86\n      swap2\n      swap1\n      tag_77\n      jump\t// in\n    tag_86:\n      swap3\n      pop\n      pop\n      dup2\n      swap1\n      sstore\n      pop\n        /* \"Dapp/MoneyTransfer.sol\":1123:1124  0 */\n      0x00\n        /* \"Dapp/MoneyTransfer.sol\":1110:1120  TotalFunds */\n      sload(0x01)\n        /* \"Dapp/MoneyTransfer.sol\":1110:1124  TotalFunds > 0 */\n      gt\n        /* \"Dapp/MoneyTransfer.sol\":1110:1147  TotalFunds > 0 && TotalFunds > amount */\n      dup1\n      iszero\n      tag_87\n      jumpi\n      pop\n        /* \"Dapp/MoneyTransfer.sol\":1141:1147  amount */\n      sload(0x00)\n        /* \"Dapp/MoneyTransfer.sol\":1128:1138  TotalFunds */\n      sload(0x01)\n        /* \"Dapp/MoneyTransfer.sol\":1128:1147  TotalFunds > amount */\n      gt\n        /* \"Dapp/MoneyTransfer.sol\":1110:1147  TotalFunds > 0 && TotalFunds > amount */\n    tag_87:\n        /* \"Dapp/MoneyTransfer.sol\":1107:1332  if(TotalFunds > 0 && TotalFunds > amount){... */\n      iszero\n      tag_88\n      jumpi\n        /* \"Dapp/MoneyTransfer.sol\":1185:1191  amount */\n      sload(0x00)\n        /* \"Dapp/MoneyTransfer.sol\":1171:1181  TotalFunds */\n      0x01\n      0x00\n        /* \"Dapp/MoneyTransfer.sol\":1171:1191  TotalFunds -= amount */\n      dup3\n      dup3\n      sload\n      tag_89\n      swap2\n      swap1\n      tag_90\n      jump\t// in\n    tag_89:\n      swap3\n      pop\n      pop\n      dup2\n      swap1\n      sstore\n      pop\n        /* \"Dapp/MoneyTransfer.sol\":1229:1235  amount */\n      sload(0x00)\n        /* \"Dapp/MoneyTransfer.sol\":1214:1225  TotalAmount */\n      0x0c\n      0x00\n        /* \"Dapp/MoneyTransfer.sol\":1214:1235  TotalAmount += amount */\n      dup3\n      dup3\n      sload\n      tag_91\n      swap2\n      swap1\n      tag_77\n      jump\t// in\n    tag_91:\n      swap3\n      pop\n      pop\n      dup2\n      swap1\n      sstore\n      pop\n        /* \"Dapp/MoneyTransfer.sol\":1281:1311  message = \"Transfer completed\" */\n      mload(0x40)\n      dup1\n      0x40\n      add\n      0x40\n      mstore\n      dup1\n      0x12\n      dup2\n      mstore\n      0x20\n      add\n      0x5472616e7366657220636f6d706c657465640000000000000000000000000000\n      dup2\n      mstore\n      pop\n        /* \"Dapp/MoneyTransfer.sol\":1281:1288  message */\n      0x09\n        /* \"Dapp/MoneyTransfer.sol\":1281:1311  message = \"Transfer completed\" */\n      swap1\n      dup2\n      tag_92\n      swap2\n      swap1\n      tag_93\n      jump\t// in\n    tag_92:\n      pop\n        /* \"Dapp/MoneyTransfer.sol\":1107:1332  if(TotalFunds > 0 && TotalFunds > amount){... */\n    tag_88:\n        /* \"Dapp/MoneyTransfer.sol\":825:1371  function sendMoney( uint _amount, address _receiver) public m_validAddress(_receiver) m_checkCard m_transferLimit{... */\n      pop\n      pop\n      pop\n      jump\t// out\n        /* \"Dapp/MoneyTransfer.sol\":524:553  uint public firstTransferTime */\n    tag_21:\n      sload(0x0d)\n      dup2\n      jump\t// out\n        /* \"Dapp/MoneyTransfer.sol\":560:585  uint public countTransfer */\n    tag_25:\n      sload(0x0e)\n      dup2\n      jump\t// out\n        /* \"Dapp/MoneyTransfer.sol\":470:487  string public cvv */\n    tag_28:\n      0x0b\n      dup1\n      sload\n      tag_94\n      swap1\n      tag_61\n      jump\t// in\n    tag_94:\n      dup1\n      0x1f\n      add\n      0x20\n      dup1\n      swap2\n      div\n      mul\n      0x20\n      add\n      mload(0x40)\n      swap1\n      dup2\n      add\n      0x40\n      mstore\n      dup1\n      swap3\n      swap2\n      swap1\n      dup2\n      dup2\n      mstore\n      0x20\n      add\n      dup3\n      dup1\n      sload\n      tag_95\n      swap1\n      tag_61\n      jump\t// in\n    tag_95:\n      dup1\n      iszero\n      tag_96\n      jumpi\n      dup1\n      0x1f\n      lt\n      tag_97\n      jumpi\n      0x0100\n      dup1\n      dup4\n      sload\n      div\n      mul\n      dup4\n      mstore\n      swap2\n      0x20\n      add\n      swap2\n      jump(tag_96)\n    tag_97:\n      dup3\n      add\n      swap2\n      swap1\n      0x00\n      mstore\n      keccak256(0x00, 0x20)\n      swap1\n    tag_98:\n      dup2\n      sload\n      dup2\n      mstore\n      swap1\n      0x01\n      add\n      swap1\n      0x20\n      add\n      dup1\n      dup4\n      gt\n      tag_98\n      jumpi\n      dup3\n      swap1\n      sub\n      0x1f\n      and\n      dup3\n      add\n      swap2\n    tag_96:\n      pop\n      pop\n      pop\n      pop\n      pop\n      dup2\n      jump\t// out\n        /* \"Dapp/MoneyTransfer.sol\":790:815  uint public callCount = 0 */\n    tag_32:\n      sload(0x0f)\n      dup2\n      jump\t// out\n        /* \"Dapp/MoneyTransfer.sol\":134:159  uint256 public TotalFunds */\n    tag_35:\n      sload(0x01)\n      dup2\n      jump\t// out\n        /* \"Dapp/MoneyTransfer.sol\":494:520  uint256 public TotalAmount */\n    tag_38:\n      sload(0x0c)\n      dup2\n      jump\t// out\n        /* \"Dapp/MoneyTransfer.sol\":438:462  string public cardNumber */\n    tag_41:\n      0x0a\n      dup1\n      sload\n      tag_99\n      swap1\n      tag_61\n      jump\t// in\n    tag_99:\n      dup1\n      0x1f\n      add\n      0x20\n      dup1\n      swap2\n      div\n      mul\n      0x20\n      add\n      mload(0x40)\n      swap1\n      dup2\n      add\n      0x40\n      mstore\n      dup1\n      swap3\n      swap2\n      swap1\n      dup2\n      dup2\n      mstore\n      0x20\n      add\n      dup3\n      dup1\n      sload\n      tag_100\n      swap1\n      tag_61\n      jump\t// in\n    tag_100:\n      dup1\n      iszero\n      tag_101\n      jumpi\n      dup1\n      0x1f\n      lt\n      tag_102\n      jumpi\n      0x0100\n      dup1\n      dup4\n      sload\n      div\n      mul\n      dup4\n      mstore\n      swap2\n      0x20\n      add\n      swap2\n      jump(tag_101)\n    tag_102:\n      dup3\n      add\n      swap2\n      swap1\n      0x00\n      mstore\n      keccak256(0x00, 0x20)\n      swap1\n    tag_103:\n      dup2\n      sload\n      dup2\n      mstore\n      swap1\n      0x01\n      add\n      swap1\n      0x20\n      add\n      dup1\n      dup4\n      gt\n      tag_103\n      jumpi\n      dup3\n      swap1\n      sub\n      0x1f\n      and\n      dup3\n      add\n      swap2\n    tag_101:\n      pop\n      pop\n      pop\n      pop\n      pop\n      dup2\n      jump\t// out\n        /* \"Dapp/MoneyTransfer.sol\":252:288  uint256 public totalWeekTransactions */\n    tag_44:\n      sload(0x04)\n      dup2\n      jump\t// out\n        /* \"Dapp/MoneyTransfer.sol\":106:127  uint256 public amount */\n    tag_47:\n      sload(0x00)\n      dup2\n      jump\t// out\n        /* \"Dapp/MoneyTransfer.sol\":375:403  uint256 public receiverFunds */\n    tag_50:\n      sload(0x08)\n      dup2\n      jump\t// out\n        /* \"Dapp/MoneyTransfer.sol\":410:431  string public message */\n    tag_53:\n      0x09\n      dup1\n      sload\n      tag_104\n      swap1\n      tag_61\n      jump\t// in\n    tag_104:\n      dup1\n      0x1f\n      add\n      0x20\n      dup1\n      swap2\n      div\n      mul\n      0x20\n      add\n      mload(0x40)\n      swap1\n      dup2\n      add\n      0x40\n      mstore\n      dup1\n      swap3\n      swap2\n      swap1\n      dup2\n      dup2\n      mstore\n      0x20\n      add\n      dup3\n      dup1\n      sload\n      tag_105\n      swap1\n      tag_61\n      jump\t// in\n    tag_105:\n      dup1\n      iszero\n      tag_106\n      jumpi\n      dup1\n      0x1f\n      lt\n      tag_107\n      jumpi\n      0x0100\n      dup1\n      dup4\n      sload\n      div\n      mul\n      dup4\n      mstore\n      swap2\n      0x20\n      add\n      swap2\n      jump(tag_106)\n    tag_107:\n      dup3\n      add\n      swap2\n      swap1\n      0x00\n      mstore\n      keccak256(0x00, 0x20)\n      swap1\n    tag_108:\n      dup2\n      sload\n      dup2\n      mstore\n      swap1\n      0x01\n      add\n      swap1\n      0x20\n      add\n      dup1\n      dup4\n      gt\n      tag_108\n      jumpi\n      dup3\n      swap1\n      sub\n      0x1f\n      and\n      dup3\n      add\n      swap2\n    tag_106:\n      pop\n      pop\n      pop\n      pop\n      pop\n      dup2\n      jump\t// out\n        /* \"#utility.yul\":88:205   */\n    tag_110:\n        /* \"#utility.yul\":197:198   */\n      0x00\n        /* \"#utility.yul\":194:195   */\n      dup1\n        /* \"#utility.yul\":187:199   */\n      revert\n        /* \"#utility.yul\":334:411   */\n    tag_112:\n        /* \"#utility.yul\":371:378   */\n      0x00\n        /* \"#utility.yul\":400:405   */\n      dup2\n        /* \"#utility.yul\":389:405   */\n      swap1\n      pop\n        /* \"#utility.yul\":334:411   */\n      swap2\n      swap1\n      pop\n      jump\t// out\n        /* \"#utility.yul\":417:539   */\n    tag_113:\n        /* \"#utility.yul\":490:514   */\n      tag_161\n        /* \"#utility.yul\":508:513   */\n      dup2\n        /* \"#utility.yul\":490:514   */\n      tag_112\n      jump\t// in\n    tag_161:\n        /* \"#utility.yul\":483:488   */\n      dup2\n        /* \"#utility.yul\":480:515   */\n      eq\n        /* \"#utility.yul\":470:533   */\n      tag_162\n      jumpi\n        /* \"#utility.yul\":529:530   */\n      0x00\n        /* \"#utility.yul\":526:527   */\n      dup1\n        /* \"#utility.yul\":519:531   */\n      revert\n        /* \"#utility.yul\":470:533   */\n    tag_162:\n        /* \"#utility.yul\":417:539   */\n      pop\n      jump\t// out\n        /* \"#utility.yul\":545:684   */\n    tag_114:\n        /* \"#utility.yul\":591:596   */\n      0x00\n        /* \"#utility.yul\":629:635   */\n      dup2\n        /* \"#utility.yul\":616:636   */\n      calldataload\n        /* \"#utility.yul\":607:636   */\n      swap1\n      pop\n        /* \"#utility.yul\":645:678   */\n      tag_164\n        /* \"#utility.yul\":672:677   */\n      dup2\n        /* \"#utility.yul\":645:678   */\n      tag_113\n      jump\t// in\n    tag_164:\n        /* \"#utility.yul\":545:684   */\n      swap3\n      swap2\n      pop\n      pop\n      jump\t// out\n        /* \"#utility.yul\":690:816   */\n    tag_115:\n        /* \"#utility.yul\":727:734   */\n      0x00\n        /* \"#utility.yul\":767:809   */\n      0xffffffffffffffffffffffffffffffffffffffff\n        /* \"#utility.yul\":760:765   */\n      dup3\n        /* \"#utility.yul\":756:810   */\n      and\n        /* \"#utility.yul\":745:810   */\n      swap1\n      pop\n        /* \"#utility.yul\":690:816   */\n      swap2\n      swap1\n      pop\n      jump\t// out\n        /* \"#utility.yul\":822:918   */\n    tag_116:\n        /* \"#utility.yul\":859:866   */\n      0x00\n        /* \"#utility.yul\":888:912   */\n      tag_167\n        /* \"#utility.yul\":906:911   */\n      dup3\n        /* \"#utility.yul\":888:912   */\n      tag_115\n      jump\t// in\n    tag_167:\n        /* \"#utility.yul\":877:912   */\n      swap1\n      pop\n        /* \"#utility.yul\":822:918   */\n      swap2\n      swap1\n      pop\n      jump\t// out\n        /* \"#utility.yul\":924:1046   */\n    tag_117:\n        /* \"#utility.yul\":997:1021   */\n      tag_169\n        /* \"#utility.yul\":1015:1020   */\n      dup2\n        /* \"#utility.yul\":997:1021   */\n      tag_116\n      jump\t// in\n    tag_169:\n        /* \"#utility.yul\":990:995   */\n      dup2\n        /* \"#utility.yul\":987:1022   */\n      eq\n        /* \"#utility.yul\":977:1040   */\n      tag_170\n      jumpi\n        /* \"#utility.yul\":1036:1037   */\n      0x00\n        /* \"#utility.yul\":1033:1034   */\n      dup1\n        /* \"#utility.yul\":1026:1038   */\n      revert\n        /* \"#utility.yul\":977:1040   */\n    tag_170:\n        /* \"#utility.yul\":924:1046   */\n      pop\n      jump\t// out\n        /* \"#utility.yul\":1052:1191   */\n    tag_118:\n        /* \"#utility.yul\":1098:1103   */\n      0x00\n        /* \"#utility.yul\":1136:1142   */\n      dup2\n        /* \"#utility.yul\":1123:1143   */\n      calldataload\n        /* \"#utility.yul\":1114:1143   */\n      swap1\n      pop\n        /* \"#utility.yul\":1152:1185   */\n      tag_172\n        /* \"#utility.yul\":1179:1184   */\n      dup2\n        /* \"#utility.yul\":1152:1185   */\n      tag_117\n      jump\t// in\n    tag_172:\n        /* \"#utility.yul\":1052:1191   */\n      swap3\n      swap2\n      pop\n      pop\n      jump\t// out\n        /* \"#utility.yul\":1197:1671   */\n    tag_18:\n        /* \"#utility.yul\":1265:1271   */\n      0x00\n        /* \"#utility.yul\":1273:1279   */\n      dup1\n        /* \"#utility.yul\":1322:1324   */\n      0x40\n        /* \"#utility.yul\":1310:1319   */\n      dup4\n        /* \"#utility.yul\":1301:1308   */\n      dup6\n        /* \"#utility.yul\":1297:1320   */\n      sub\n        /* \"#utility.yul\":1293:1325   */\n      slt\n        /* \"#utility.yul\":1290:1409   */\n      iszero\n      tag_174\n      jumpi\n        /* \"#utility.yul\":1328:1407   */\n      tag_175\n      tag_110\n      jump\t// in\n    tag_175:\n        /* \"#utility.yul\":1290:1409   */\n    tag_174:\n        /* \"#utility.yul\":1448:1449   */\n      0x00\n        /* \"#utility.yul\":1473:1526   */\n      tag_176\n        /* \"#utility.yul\":1518:1525   */\n      dup6\n        /* \"#utility.yul\":1509:1515   */\n      dup3\n        /* \"#utility.yul\":1498:1507   */\n      dup7\n        /* \"#utility.yul\":1494:1516   */\n      add\n        /* \"#utility.yul\":1473:1526   */\n      tag_114\n      jump\t// in\n    tag_176:\n        /* \"#utility.yul\":1463:1526   */\n      swap3\n      pop\n        /* \"#utility.yul\":1419:1536   */\n      pop\n        /* \"#utility.yul\":1575:1577   */\n      0x20\n        /* \"#utility.yul\":1601:1654   */\n      tag_177\n        /* \"#utility.yul\":1646:1653   */\n      dup6\n        /* \"#utility.yul\":1637:1643   */\n      dup3\n        /* \"#utility.yul\":1626:1635   */\n      dup7\n        /* \"#utility.yul\":1622:1644   */\n      add\n        /* \"#utility.yul\":1601:1654   */\n      tag_118\n      jump\t// in\n    tag_177:\n        /* \"#utility.yul\":1591:1654   */\n      swap2\n      pop\n        /* \"#utility.yul\":1546:1664   */\n      pop\n        /* \"#utility.yul\":1197:1671   */\n      swap3\n      pop\n      swap3\n      swap1\n      pop\n      jump\t// out\n        /* \"#utility.yul\":1677:1795   */\n    tag_119:\n        /* \"#utility.yul\":1764:1788   */\n      tag_179\n        /* \"#utility.yul\":1782:1787   */\n      dup2\n        /* \"#utility.yul\":1764:1788   */\n      tag_112\n      jump\t// in\n    tag_179:\n        /* \"#utility.yul\":1759:1762   */\n      dup3\n        /* \"#utility.yul\":1752:1789   */\n      mstore\n        /* \"#utility.yul\":1677:1795   */\n      pop\n      pop\n      jump\t// out\n        /* \"#utility.yul\":1801:2023   */\n    tag_23:\n        /* \"#utility.yul\":1894:1898   */\n      0x00\n        /* \"#utility.yul\":1932:1934   */\n      0x20\n        /* \"#utility.yul\":1921:1930   */\n      dup3\n        /* \"#utility.yul\":1917:1935   */\n      add\n        /* \"#utility.yul\":1909:1935   */\n      swap1\n      pop\n        /* \"#utility.yul\":1945:2016   */\n      tag_181\n        /* \"#utility.yul\":2013:2014   */\n      0x00\n        /* \"#utility.yul\":2002:2011   */\n      dup4\n        /* \"#utility.yul\":1998:2015   */\n      add\n        /* \"#utility.yul\":1989:1995   */\n      dup5\n        /* \"#utility.yul\":1945:2016   */\n      tag_119\n      jump\t// in\n    tag_181:\n        /* \"#utility.yul\":1801:2023   */\n      swap3\n      swap2\n      pop\n      pop\n      jump\t// out\n        /* \"#utility.yul\":2029:2128   */\n    tag_120:\n        /* \"#utility.yul\":2081:2087   */\n      0x00\n        /* \"#utility.yul\":2115:2120   */\n      dup2\n        /* \"#utility.yul\":2109:2121   */\n      mload\n        /* \"#utility.yul\":2099:2121   */\n      swap1\n      pop\n        /* \"#utility.yul\":2029:2128   */\n      swap2\n      swap1\n      pop\n      jump\t// out\n        /* \"#utility.yul\":2134:2303   */\n    tag_121:\n        /* \"#utility.yul\":2218:2229   */\n      0x00\n        /* \"#utility.yul\":2252:2258   */\n      dup3\n        /* \"#utility.yul\":2247:2250   */\n      dup3\n        /* \"#utility.yul\":2240:2259   */\n      mstore\n        /* \"#utility.yul\":2292:2296   */\n      0x20\n        /* \"#utility.yul\":2287:2290   */\n      dup3\n        /* \"#utility.yul\":2283:2297   */\n      add\n        /* \"#utility.yul\":2268:2297   */\n      swap1\n      pop\n        /* \"#utility.yul\":2134:2303   */\n      swap3\n      swap2\n      pop\n      pop\n      jump\t// out\n        /* \"#utility.yul\":2309:2616   */\n    tag_122:\n        /* \"#utility.yul\":2377:2378   */\n      0x00\n        /* \"#utility.yul\":2387:2500   */\n    tag_185:\n        /* \"#utility.yul\":2401:2407   */\n      dup4\n        /* \"#utility.yul\":2398:2399   */\n      dup2\n        /* \"#utility.yul\":2395:2408   */\n      lt\n        /* \"#utility.yul\":2387:2500   */\n      iszero\n      tag_187\n      jumpi\n        /* \"#utility.yul\":2486:2487   */\n      dup1\n        /* \"#utility.yul\":2481:2484   */\n      dup3\n        /* \"#utility.yul\":2477:2488   */\n      add\n        /* \"#utility.yul\":2471:2489   */\n      mload\n        /* \"#utility.yul\":2467:2468   */\n      dup2\n        /* \"#utility.yul\":2462:2465   */\n      dup5\n        /* \"#utility.yul\":2458:2469   */\n      add\n        /* \"#utility.yul\":2451:2490   */\n      mstore\n        /* \"#utility.yul\":2423:2425   */\n      0x20\n        /* \"#utility.yul\":2420:2421   */\n      dup2\n        /* \"#utility.yul\":2416:2426   */\n      add\n        /* \"#utility.yul\":2411:2426   */\n      swap1\n      pop\n        /* \"#utility.yul\":2387:2500   */\n      jump(tag_185)\n    tag_187:\n        /* \"#utility.yul\":2518:2524   */\n      dup4\n        /* \"#utility.yul\":2515:2516   */\n      dup2\n        /* \"#utility.yul\":2512:2525   */\n      gt\n        /* \"#utility.yul\":2509:2610   */\n      iszero\n      tag_188\n      jumpi\n        /* \"#utility.yul\":2598:2599   */\n      0x00\n        /* \"#utility.yul\":2589:2595   */\n      dup5\n        /* \"#utility.yul\":2584:2587   */\n      dup5\n        /* \"#utility.yul\":2580:2596   */\n      add\n        /* \"#utility.yul\":2573:2600   */\n      mstore\n        /* \"#utility.yul\":2509:2610   */\n    tag_188:\n        /* \"#utility.yul\":2358:2616   */\n      pop\n        /* \"#utility.yul\":2309:2616   */\n      pop\n      pop\n      pop\n      jump\t// out\n        /* \"#utility.yul\":2622:2724   */\n    tag_123:\n        /* \"#utility.yul\":2663:2669   */\n      0x00\n        /* \"#utility.yul\":2714:2716   */\n      0x1f\n        /* \"#utility.yul\":2710:2717   */\n      not\n        /* \"#utility.yul\":2705:2707   */\n      0x1f\n        /* \"#utility.yul\":2698:2703   */\n      dup4\n        /* \"#utility.yul\":2694:2708   */\n      add\n        /* \"#utility.yul\":2690:2718   */\n      and\n        /* \"#utility.yul\":2680:2718   */\n      swap1\n      pop\n        /* \"#utility.yul\":2622:2724   */\n      swap2\n      swap1\n      pop\n      jump\t// out\n        /* \"#utility.yul\":2730:3094   */\n    tag_124:\n        /* \"#utility.yul\":2818:2821   */\n      0x00\n        /* \"#utility.yul\":2846:2885   */\n      tag_191\n        /* \"#utility.yul\":2879:2884   */\n      dup3\n        /* \"#utility.yul\":2846:2885   */\n      tag_120\n      jump\t// in\n    tag_191:\n        /* \"#utility.yul\":2901:2972   */\n      tag_192\n        /* \"#utility.yul\":2965:2971   */\n      dup2\n        /* \"#utility.yul\":2960:2963   */\n      dup6\n        /* \"#utility.yul\":2901:2972   */\n      tag_121\n      jump\t// in\n    tag_192:\n        /* \"#utility.yul\":2894:2972   */\n      swap4\n      pop\n        /* \"#utility.yul\":2981:3033   */\n      tag_193\n        /* \"#utility.yul\":3026:3032   */\n      dup2\n        /* \"#utility.yul\":3021:3024   */\n      dup6\n        /* \"#utility.yul\":3014:3018   */\n      0x20\n        /* \"#utility.yul\":3007:3012   */\n      dup7\n        /* \"#utility.yul\":3003:3019   */\n      add\n        /* \"#utility.yul\":2981:3033   */\n      tag_122\n      jump\t// in\n    tag_193:\n        /* \"#utility.yul\":3058:3087   */\n      tag_194\n        /* \"#utility.yul\":3080:3086   */\n      dup2\n        /* \"#utility.yul\":3058:3087   */\n      tag_123\n      jump\t// in\n    tag_194:\n        /* \"#utility.yul\":3053:3056   */\n      dup5\n        /* \"#utility.yul\":3049:3088   */\n      add\n        /* \"#utility.yul\":3042:3088   */\n      swap2\n      pop\n        /* \"#utility.yul\":2822:3094   */\n      pop\n        /* \"#utility.yul\":2730:3094   */\n      swap3\n      swap2\n      pop\n      pop\n      jump\t// out\n        /* \"#utility.yul\":3100:3413   */\n    tag_30:\n        /* \"#utility.yul\":3213:3217   */\n      0x00\n        /* \"#utility.yul\":3251:3253   */\n      0x20\n        /* \"#utility.yul\":3240:3249   */\n      dup3\n        /* \"#utility.yul\":3236:3254   */\n      add\n        /* \"#utility.yul\":3228:3254   */\n      swap1\n      pop\n        /* \"#utility.yul\":3300:3309   */\n      dup2\n        /* \"#utility.yul\":3294:3298   */\n      dup2\n        /* \"#utility.yul\":3290:3310   */\n      sub\n        /* \"#utility.yul\":3286:3287   */\n      0x00\n        /* \"#utility.yul\":3275:3284   */\n      dup4\n        /* \"#utility.yul\":3271:3288   */\n      add\n        /* \"#utility.yul\":3264:3311   */\n      mstore\n        /* \"#utility.yul\":3328:3406   */\n      tag_196\n        /* \"#utility.yul\":3401:3405   */\n      dup2\n        /* \"#utility.yul\":3392:3398   */\n      dup5\n        /* \"#utility.yul\":3328:3406   */\n      tag_124\n      jump\t// in\n    tag_196:\n        /* \"#utility.yul\":3320:3406   */\n      swap1\n      pop\n        /* \"#utility.yul\":3100:3413   */\n      swap3\n      swap2\n      pop\n      pop\n      jump\t// out\n        /* \"#utility.yul\":3419:3597   */\n    tag_125:\n        /* \"#utility.yul\":3559:3589   */\n      0x2054686973206164647265737320646f65736e27742065786973747300000000\n        /* \"#utility.yul\":3555:3556   */\n      0x00\n        /* \"#utility.yul\":3547:3553   */\n      dup3\n        /* \"#utility.yul\":3543:3557   */\n      add\n        /* \"#utility.yul\":3536:3590   */\n      mstore\n        /* \"#utility.yul\":3419:3597   */\n      pop\n      jump\t// out\n        /* \"#utility.yul\":3603:3969   */\n    tag_126:\n        /* \"#utility.yul\":3745:3748   */\n      0x00\n        /* \"#utility.yul\":3766:3833   */\n      tag_199\n        /* \"#utility.yul\":3830:3832   */\n      0x1c\n        /* \"#utility.yul\":3825:3828   */\n      dup4\n        /* \"#utility.yul\":3766:3833   */\n      tag_121\n      jump\t// in\n    tag_199:\n        /* \"#utility.yul\":3759:3833   */\n      swap2\n      pop\n        /* \"#utility.yul\":3842:3935   */\n      tag_200\n        /* \"#utility.yul\":3931:3934   */\n      dup3\n        /* \"#utility.yul\":3842:3935   */\n      tag_125\n      jump\t// in\n    tag_200:\n        /* \"#utility.yul\":3960:3962   */\n      0x20\n        /* \"#utility.yul\":3955:3958   */\n      dup3\n        /* \"#utility.yul\":3951:3963   */\n      add\n        /* \"#utility.yul\":3944:3963   */\n      swap1\n      pop\n        /* \"#utility.yul\":3603:3969   */\n      swap2\n      swap1\n      pop\n      jump\t// out\n        /* \"#utility.yul\":3975:4394   */\n    tag_58:\n        /* \"#utility.yul\":4141:4145   */\n      0x00\n        /* \"#utility.yul\":4179:4181   */\n      0x20\n        /* \"#utility.yul\":4168:4177   */\n      dup3\n        /* \"#utility.yul\":4164:4182   */\n      add\n        /* \"#utility.yul\":4156:4182   */\n      swap1\n      pop\n        /* \"#utility.yul\":4228:4237   */\n      dup2\n        /* \"#utility.yul\":4222:4226   */\n      dup2\n        /* \"#utility.yul\":4218:4238   */\n      sub\n        /* \"#utility.yul\":4214:4215   */\n      0x00\n        /* \"#utility.yul\":4203:4212   */\n      dup4\n        /* \"#utility.yul\":4199:4216   */\n      add\n        /* \"#utility.yul\":4192:4239   */\n      mstore\n        /* \"#utility.yul\":4256:4387   */\n      tag_202\n        /* \"#utility.yul\":4382:4386   */\n      dup2\n        /* \"#utility.yul\":4256:4387   */\n      tag_126\n      jump\t// in\n    tag_202:\n        /* \"#utility.yul\":4248:4387   */\n      swap1\n      pop\n        /* \"#utility.yul\":3975:4394   */\n      swap2\n      swap1\n      pop\n      jump\t// out\n        /* \"#utility.yul\":4400:4580   */\n    tag_127:\n        /* \"#utility.yul\":4448:4525   */\n      0x4e487b7100000000000000000000000000000000000000000000000000000000\n        /* \"#utility.yul\":4445:4446   */\n      0x00\n        /* \"#utility.yul\":4438:4526   */\n      mstore\n        /* \"#utility.yul\":4545:4549   */\n      0x22\n        /* \"#utility.yul\":4542:4543   */\n      0x04\n        /* \"#utility.yul\":4535:4550   */\n      mstore\n        /* \"#utility.yul\":4569:4573   */\n      0x24\n        /* \"#utility.yul\":4566:4567   */\n      0x00\n        /* \"#utility.yul\":4559:4574   */\n      revert\n        /* \"#utility.yul\":4586:4906   */\n    tag_61:\n        /* \"#utility.yul\":4630:4636   */\n      0x00\n        /* \"#utility.yul\":4667:4668   */\n      0x02\n        /* \"#utility.yul\":4661:4665   */\n      dup3\n        /* \"#utility.yul\":4657:4669   */\n      div\n        /* \"#utility.yul\":4647:4669   */\n      swap1\n      pop\n        /* \"#utility.yul\":4714:4715   */\n      0x01\n        /* \"#utility.yul\":4708:4712   */\n      dup3\n        /* \"#utility.yul\":4704:4716   */\n      and\n        /* \"#utility.yul\":4735:4753   */\n      dup1\n        /* \"#utility.yul\":4725:4806   */\n      tag_205\n      jumpi\n        /* \"#utility.yul\":4791:4795   */\n      0x7f\n        /* \"#utility.yul\":4783:4789   */\n      dup3\n        /* \"#utility.yul\":4779:4796   */\n      and\n        /* \"#utility.yul\":4769:4796   */\n      swap2\n      pop\n        /* \"#utility.yul\":4725:4806   */\n    tag_205:\n        /* \"#utility.yul\":4853:4855   */\n      0x20\n        /* \"#utility.yul\":4845:4851   */\n      dup3\n        /* \"#utility.yul\":4842:4856   */\n      lt\n        /* \"#utility.yul\":4822:4840   */\n      dup2\n        /* \"#utility.yul\":4819:4857   */\n      sub\n        /* \"#utility.yul\":4816:4900   */\n      tag_206\n      jumpi\n        /* \"#utility.yul\":4872:4890   */\n      tag_207\n      tag_127\n      jump\t// in\n    tag_207:\n        /* \"#utility.yul\":4816:4900   */\n    tag_206:\n        /* \"#utility.yul\":4637:4906   */\n      pop\n        /* \"#utility.yul\":4586:4906   */\n      swap2\n      swap1\n      pop\n      jump\t// out\n        /* \"#utility.yul\":4912:5082   */\n    tag_128:\n        /* \"#utility.yul\":5052:5074   */\n      0x4e6f2076616c6964206372656469742063617264000000000000000000000000\n        /* \"#utility.yul\":5048:5049   */\n      0x00\n        /* \"#utility.yul\":5040:5046   */\n      dup3\n        /* \"#utility.yul\":5036:5050   */\n      add\n        /* \"#utility.yul\":5029:5075   */\n      mstore\n        /* \"#utility.yul\":4912:5082   */\n      pop\n      jump\t// out\n        /* \"#utility.yul\":5088:5454   */\n    tag_129:\n        /* \"#utility.yul\":5230:5233   */\n      0x00\n        /* \"#utility.yul\":5251:5318   */\n      tag_210\n        /* \"#utility.yul\":5315:5317   */\n      0x14\n        /* \"#utility.yul\":5310:5313   */\n      dup4\n        /* \"#utility.yul\":5251:5318   */\n      tag_121\n      jump\t// in\n    tag_210:\n        /* \"#utility.yul\":5244:5318   */\n      swap2\n      pop\n        /* \"#utility.yul\":5327:5420   */\n      tag_211\n        /* \"#utility.yul\":5416:5419   */\n      dup3\n        /* \"#utility.yul\":5327:5420   */\n      tag_128\n      jump\t// in\n    tag_211:\n        /* \"#utility.yul\":5445:5447   */\n      0x20\n        /* \"#utility.yul\":5440:5443   */\n      dup3\n        /* \"#utility.yul\":5436:5448   */\n      add\n        /* \"#utility.yul\":5429:5448   */\n      swap1\n      pop\n        /* \"#utility.yul\":5088:5454   */\n      swap2\n      swap1\n      pop\n      jump\t// out\n        /* \"#utility.yul\":5460:5879   */\n    tag_66:\n        /* \"#utility.yul\":5626:5630   */\n      0x00\n        /* \"#utility.yul\":5664:5666   */\n      0x20\n        /* \"#utility.yul\":5653:5662   */\n      dup3\n        /* \"#utility.yul\":5649:5667   */\n      add\n        /* \"#utility.yul\":5641:5667   */\n      swap1\n      pop\n        /* \"#utility.yul\":5713:5722   */\n      dup2\n        /* \"#utility.yul\":5707:5711   */\n      dup2\n        /* \"#utility.yul\":5703:5723   */\n      sub\n        /* \"#utility.yul\":5699:5700   */\n      0x00\n        /* \"#utility.yul\":5688:5697   */\n      dup4\n        /* \"#utility.yul\":5684:5701   */\n      add\n        /* \"#utility.yul\":5677:5724   */\n      mstore\n        /* \"#utility.yul\":5741:5872   */\n      tag_213\n        /* \"#utility.yul\":5867:5871   */\n      dup2\n        /* \"#utility.yul\":5741:5872   */\n      tag_129\n      jump\t// in\n    tag_213:\n        /* \"#utility.yul\":5733:5872   */\n      swap1\n      pop\n        /* \"#utility.yul\":5460:5879   */\n      swap2\n      swap1\n      pop\n      jump\t// out\n        /* \"#utility.yul\":5885:6051   */\n    tag_130:\n        /* \"#utility.yul\":6025:6043   */\n      0x4e6f7420656e6f7567682066756e647300000000000000000000000000000000\n        /* \"#utility.yul\":6021:6022   */\n      0x00\n        /* \"#utility.yul\":6013:6019   */\n      dup3\n        /* \"#utility.yul\":6009:6023   */\n      add\n        /* \"#utility.yul\":6002:6044   */\n      mstore\n        /* \"#utility.yul\":5885:6051   */\n      pop\n      jump\t// out\n        /* \"#utility.yul\":6057:6423   */\n    tag_131:\n        /* \"#utility.yul\":6199:6202   */\n      0x00\n        /* \"#utility.yul\":6220:6287   */\n      tag_216\n        /* \"#utility.yul\":6284:6286   */\n      0x10\n        /* \"#utility.yul\":6279:6282   */\n      dup4\n        /* \"#utility.yul\":6220:6287   */\n      tag_121\n      jump\t// in\n    tag_216:\n        /* \"#utility.yul\":6213:6287   */\n      swap2\n      pop\n        /* \"#utility.yul\":6296:6389   */\n      tag_217\n        /* \"#utility.yul\":6385:6388   */\n      dup3\n        /* \"#utility.yul\":6296:6389   */\n      tag_130\n      jump\t// in\n    tag_217:\n        /* \"#utility.yul\":6414:6416   */\n      0x20\n        /* \"#utility.yul\":6409:6412   */\n      dup3\n        /* \"#utility.yul\":6405:6417   */\n      add\n        /* \"#utility.yul\":6398:6417   */\n      swap1\n      pop\n        /* \"#utility.yul\":6057:6423   */\n      swap2\n      swap1\n      pop\n      jump\t// out\n        /* \"#utility.yul\":6429:6848   */\n    tag_70:\n        /* \"#utility.yul\":6595:6599   */\n      0x00\n        /* \"#utility.yul\":6633:6635   */\n      0x20\n        /* \"#utility.yul\":6622:6631   */\n      dup3\n        /* \"#utility.yul\":6618:6636   */\n      add\n        /* \"#utility.yul\":6610:6636   */\n      swap1\n      pop\n        /* \"#utility.yul\":6682:6691   */\n      dup2\n        /* \"#utility.yul\":6676:6680   */\n      dup2\n        /* \"#utility.yul\":6672:6692   */\n      sub\n        /* \"#utility.yul\":6668:6669   */\n      0x00\n        /* \"#utility.yul\":6657:6666   */\n      dup4\n        /* \"#utility.yul\":6653:6670   */\n      add\n        /* \"#utility.yul\":6646:6693   */\n      mstore\n        /* \"#utility.yul\":6710:6841   */\n      tag_219\n        /* \"#utility.yul\":6836:6840   */\n      dup2\n        /* \"#utility.yul\":6710:6841   */\n      tag_131\n      jump\t// in\n    tag_219:\n        /* \"#utility.yul\":6702:6841   */\n      swap1\n      pop\n        /* \"#utility.yul\":6429:6848   */\n      swap2\n      swap1\n      pop\n      jump\t// out\n        /* \"#utility.yul\":6854:7025   */\n    tag_132:\n        /* \"#utility.yul\":6994:7017   */\n      0x596f75207265616368656420746865206c696d69740000000000000000000000\n        /* \"#utility.yul\":6990:6991   */\n      0x00\n        /* \"#utility.yul\":6982:6988   */\n      dup3\n        /* \"#utility.yul\":6978:6992   */\n      add\n        /* \"#utility.yul\":6971:7018   */\n      mstore\n        /* \"#utility.yul\":6854:7025   */\n      pop\n      jump\t// out\n        /* \"#utility.yul\":7031:7397   */\n    tag_133:\n        /* \"#utility.yul\":7173:7176   */\n      0x00\n        /* \"#utility.yul\":7194:7261   */\n      tag_222\n        /* \"#utility.yul\":7258:7260   */\n      0x15\n        /* \"#utility.yul\":7253:7256   */\n      dup4\n        /* \"#utility.yul\":7194:7261   */\n      tag_121\n      jump\t// in\n    tag_222:\n        /* \"#utility.yul\":7187:7261   */\n      swap2\n      pop\n        /* \"#utility.yul\":7270:7363   */\n      tag_223\n        /* \"#utility.yul\":7359:7362   */\n      dup3\n        /* \"#utility.yul\":7270:7363   */\n      tag_132\n      jump\t// in\n    tag_223:\n        /* \"#utility.yul\":7388:7390   */\n      0x20\n        /* \"#utility.yul\":7383:7386   */\n      dup3\n        /* \"#utility.yul\":7379:7391   */\n      add\n        /* \"#utility.yul\":7372:7391   */\n      swap1\n      pop\n        /* \"#utility.yul\":7031:7397   */\n      swap2\n      swap1\n      pop\n      jump\t// out\n        /* \"#utility.yul\":7403:7822   */\n    tag_74:\n        /* \"#utility.yul\":7569:7573   */\n      0x00\n        /* \"#utility.yul\":7607:7609   */\n      0x20\n        /* \"#utility.yul\":7596:7605   */\n      dup3\n        /* \"#utility.yul\":7592:7610   */\n      add\n        /* \"#utility.yul\":7584:7610   */\n      swap1\n      pop\n        /* \"#utility.yul\":7656:7665   */\n      dup2\n        /* \"#utility.yul\":7650:7654   */\n      dup2\n        /* \"#utility.yul\":7646:7666   */\n      sub\n        /* \"#utility.yul\":7642:7643   */\n      0x00\n        /* \"#utility.yul\":7631:7640   */\n      dup4\n        /* \"#utility.yul\":7627:7644   */\n      add\n        /* \"#utility.yul\":7620:7667   */\n      mstore\n        /* \"#utility.yul\":7684:7815   */\n      tag_225\n        /* \"#utility.yul\":7810:7814   */\n      dup2\n        /* \"#utility.yul\":7684:7815   */\n      tag_133\n      jump\t// in\n    tag_225:\n        /* \"#utility.yul\":7676:7815   */\n      swap1\n      pop\n        /* \"#utility.yul\":7403:7822   */\n      swap2\n      swap1\n      pop\n      jump\t// out\n        /* \"#utility.yul\":7828:8008   */\n    tag_134:\n        /* \"#utility.yul\":7876:7953   */\n      0x4e487b7100000000000000000000000000000000000000000000000000000000\n        /* \"#utility.yul\":7873:7874   */\n      0x00\n        /* \"#utility.yul\":7866:7954   */\n      mstore\n        /* \"#utility.yul\":7973:7977   */\n      0x11\n        /* \"#utility.yul\":7970:7971   */\n      0x04\n        /* \"#utility.yul\":7963:7978   */\n      mstore\n        /* \"#utility.yul\":7997:8001   */\n      0x24\n        /* \"#utility.yul\":7994:7995   */\n      0x00\n        /* \"#utility.yul\":7987:8002   */\n      revert\n        /* \"#utility.yul\":8014:8319   */\n    tag_77:\n        /* \"#utility.yul\":8054:8057   */\n      0x00\n        /* \"#utility.yul\":8073:8093   */\n      tag_228\n        /* \"#utility.yul\":8091:8092   */\n      dup3\n        /* \"#utility.yul\":8073:8093   */\n      tag_112\n      jump\t// in\n    tag_228:\n        /* \"#utility.yul\":8068:8093   */\n      swap2\n      pop\n        /* \"#utility.yul\":8107:8127   */\n      tag_229\n        /* \"#utility.yul\":8125:8126   */\n      dup4\n        /* \"#utility.yul\":8107:8127   */\n      tag_112\n      jump\t// in\n    tag_229:\n        /* \"#utility.yul\":8102:8127   */\n      swap3\n      pop\n        /* \"#utility.yul\":8261:8262   */\n      dup3\n        /* \"#utility.yul\":8193:8259   */\n      0xffffffffffffffffffffffffffffffffffffffffffffffffffffffffffffffff\n        /* \"#utility.yul\":8189:8263   */\n      sub\n        /* \"#utility.yul\":8186:8187   */\n      dup3\n        /* \"#utility.yul\":8183:8264   */\n      gt\n        /* \"#utility.yul\":8180:8287   */\n      iszero\n      tag_230\n      jumpi\n        /* \"#utility.yul\":8267:8285   */\n      tag_231\n      tag_134\n      jump\t// in\n    tag_231:\n        /* \"#utility.yul\":8180:8287   */\n    tag_230:\n        /* \"#utility.yul\":8311:8312   */\n      dup3\n        /* \"#utility.yul\":8308:8309   */\n      dup3\n        /* \"#utility.yul\":8304:8313   */\n      add\n        /* \"#utility.yul\":8297:8313   */\n      swap1\n      pop\n        /* \"#utility.yul\":8014:8319   */\n      swap3\n      swap2\n      pop\n      pop\n      jump\t// out\n        /* \"#utility.yul\":8325:8560   */\n    tag_135:\n        /* \"#utility.yul\":8465:8499   */\n      0x796f752063616e6e6f74206d616b65206d6f7265207468616e2035207472616e\n        /* \"#utility.yul\":8461:8462   */\n      0x00\n        /* \"#utility.yul\":8453:8459   */\n      dup3\n        /* \"#utility.yul\":8449:8463   */\n      add\n        /* \"#utility.yul\":8442:8500   */\n      mstore\n        /* \"#utility.yul\":8534:8552   */\n      0x73616374696f6e73207065722064617900000000000000000000000000000000\n        /* \"#utility.yul\":8529:8531   */\n      0x20\n        /* \"#utility.yul\":8521:8527   */\n      dup3\n        /* \"#utility.yul\":8517:8532   */\n      add\n        /* \"#utility.yul\":8510:8553   */\n      mstore\n        /* \"#utility.yul\":8325:8560   */\n      pop\n      jump\t// out\n        /* \"#utility.yul\":8566:8932   */\n    tag_136:\n        /* \"#utility.yul\":8708:8711   */\n      0x00\n        /* \"#utility.yul\":8729:8796   */\n      tag_234\n        /* \"#utility.yul\":8793:8795   */\n      0x30\n        /* \"#utility.yul\":8788:8791   */\n      dup4\n        /* \"#utility.yul\":8729:8796   */\n      tag_121\n      jump\t// in\n    tag_234:\n        /* \"#utility.yul\":8722:8796   */\n      swap2\n      pop\n        /* \"#utility.yul\":8805:8898   */\n      tag_235\n        /* \"#utility.yul\":8894:8897   */\n      dup3\n        /* \"#utility.yul\":8805:8898   */\n      tag_135\n      jump\t// in\n    tag_235:\n        /* \"#utility.yul\":8923:8925   */\n      0x40\n        /* \"#utility.yul\":8918:8921   */\n      dup3\n        /* \"#utility.yul\":8914:8926   */\n      add\n        /* \"#utility.yul\":8907:8926   */\n      swap1\n      pop\n        /* \"#utility.yul\":8566:8932   */\n      swap2\n      swap1\n      pop\n      jump\t// out\n        /* \"#utility.yul\":8938:9357   */\n    tag_80:\n        /* \"#utility.yul\":9104:9108   */\n      0x00\n        /* \"#utility.yul\":9142:9144   */\n      0x20\n        /* \"#utility.yul\":9131:9140   */\n      dup3\n        /* \"#utility.yul\":9127:9145   */\n      add\n        /* \"#utility.yul\":9119:9145   */\n      swap1\n      pop\n        /* \"#utility.yul\":9191:9200   */\n      dup2\n        /* \"#utility.yul\":9185:9189   */\n      dup2\n        /* \"#utility.yul\":9181:9201   */\n      sub\n        /* \"#utility.yul\":9177:9178   */\n      0x00\n        /* \"#utility.yul\":9166:9175   */\n      dup4\n        /* \"#utility.yul\":9162:9179   */\n      add\n        /* \"#utility.yul\":9155:9202   */\n      mstore\n        /* \"#utility.yul\":9219:9350   */\n      tag_237\n        /* \"#utility.yul\":9345:9349   */\n      dup2\n        /* \"#utility.yul\":9219:9350   */\n      tag_136\n      jump\t// in\n    tag_237:\n        /* \"#utility.yul\":9211:9350   */\n      swap1\n      pop\n        /* \"#utility.yul\":8938:9357   */\n      swap2\n      swap1\n      pop\n      jump\t// out\n        /* \"#utility.yul\":9363:9524   */\n    tag_137:\n        /* \"#utility.yul\":9503:9516   */\n      0x54696d6520706173736564000000000000000000000000000000000000000000\n        /* \"#utility.yul\":9499:9500   */\n      0x00\n        /* \"#utility.yul\":9491:9497   */\n      dup3\n        /* \"#utility.yul\":9487:9501   */\n      add\n        /* \"#utility.yul\":9480:9517   */\n      mstore\n        /* \"#utility.yul\":9363:9524   */\n      pop\n      jump\t// out\n        /* \"#utility.yul\":9530:9896   */\n    tag_138:\n        /* \"#utility.yul\":9672:9675   */\n      0x00\n        /* \"#utility.yul\":9693:9760   */\n      tag_240\n        /* \"#utility.yul\":9757:9759   */\n      0x0b\n        /* \"#utility.yul\":9752:9755   */\n      dup4\n        /* \"#utility.yul\":9693:9760   */\n      tag_121\n      jump\t// in\n    tag_240:\n        /* \"#utility.yul\":9686:9760   */\n      swap2\n      pop\n        /* \"#utility.yul\":9769:9862   */\n      tag_241\n        /* \"#utility.yul\":9858:9861   */\n      dup3\n        /* \"#utility.yul\":9769:9862   */\n      tag_137\n      jump\t// in\n    tag_241:\n        /* \"#utility.yul\":9887:9889   */\n      0x20\n        /* \"#utility.yul\":9882:9885   */\n      dup3\n        /* \"#utility.yul\":9878:9890   */\n      add\n        /* \"#utility.yul\":9871:9890   */\n      swap1\n      pop\n        /* \"#utility.yul\":9530:9896   */\n      swap2\n      swap1\n      pop\n      jump\t// out\n        /* \"#utility.yul\":9902:10321   */\n    tag_84:\n        /* \"#utility.yul\":10068:10072   */\n      0x00\n        /* \"#utility.yul\":10106:10108   */\n      0x20\n        /* \"#utility.yul\":10095:10104   */\n      dup3\n        /* \"#utility.yul\":10091:10109   */\n      add\n        /* \"#utility.yul\":10083:10109   */\n      swap1\n      pop\n        /* \"#utility.yul\":10155:10164   */\n      dup2\n        /* \"#utility.yul\":10149:10153   */\n      dup2\n        /* \"#utility.yul\":10145:10165   */\n      sub\n        /* \"#utility.yul\":10141:10142   */\n      0x00\n        /* \"#utility.yul\":10130:10139   */\n      dup4\n        /* \"#utility.yul\":10126:10143   */\n      add\n        /* \"#utility.yul\":10119:10166   */\n      mstore\n        /* \"#utility.yul\":10183:10314   */\n      tag_243\n        /* \"#utility.yul\":10309:10313   */\n      dup2\n        /* \"#utility.yul\":10183:10314   */\n      tag_138\n      jump\t// in\n    tag_243:\n        /* \"#utility.yul\":10175:10314   */\n      swap1\n      pop\n        /* \"#utility.yul\":9902:10321   */\n      swap2\n      swap1\n      pop\n      jump\t// out\n        /* \"#utility.yul\":10327:10518   */\n    tag_90:\n        /* \"#utility.yul\":10367:10371   */\n      0x00\n        /* \"#utility.yul\":10387:10407   */\n      tag_245\n        /* \"#utility.yul\":10405:10406   */\n      dup3\n        /* \"#utility.yul\":10387:10407   */\n      tag_112\n      jump\t// in\n    tag_245:\n        /* \"#utility.yul\":10382:10407   */\n      swap2\n      pop\n        /* \"#utility.yul\":10421:10441   */\n      tag_246\n        /* \"#utility.yul\":10439:10440   */\n      dup4\n        /* \"#utility.yul\":10421:10441   */\n      tag_112\n      jump\t// in\n    tag_246:\n        /* \"#utility.yul\":10416:10441   */\n      swap3\n      pop\n        /* \"#utility.yul\":10460:10461   */\n      dup3\n        /* \"#utility.yul\":10457:10458   */\n      dup3\n        /* \"#utility.yul\":10454:10462   */\n      lt\n        /* \"#utility.yul\":10451:10485   */\n      iszero\n      tag_247\n      jumpi\n        /* \"#utility.yul\":10465:10483   */\n      tag_248\n      tag_134\n      jump\t// in\n    tag_248:\n        /* \"#utility.yul\":10451:10485   */\n    tag_247:\n        /* \"#utility.yul\":10510:10511   */\n      dup3\n        /* \"#utility.yul\":10507:10508   */\n      dup3\n        /* \"#utility.yul\":10503:10512   */\n      sub\n        /* \"#utility.yul\":10495:10512   */\n      swap1\n      pop\n        /* \"#utility.yul\":10327:10518   */\n      swap3\n      swap2\n      pop\n      pop\n      jump\t// out\n        /* \"#utility.yul\":10524:10704   */\n    tag_139:\n        /* \"#utility.yul\":10572:10649   */\n      0x4e487b7100000000000000000000000000000000000000000000000000000000\n        /* \"#utility.yul\":10569:10570   */\n      0x00\n        /* \"#utility.yul\":10562:10650   */\n      mstore\n        /* \"#utility.yul\":10669:10673   */\n      0x41\n        /* \"#utility.yul\":10666:10667   */\n      0x04\n        /* \"#utility.yul\":10659:10674   */\n      mstore\n        /* \"#utility.yul\":10693:10697   */\n      0x24\n        /* \"#utility.yul\":10690:10691   */\n      0x00\n        /* \"#utility.yul\":10683:10698   */\n      revert\n        /* \"#utility.yul\":10710:10851   */\n    tag_140:\n        /* \"#utility.yul\":10759:10763   */\n      0x00\n        /* \"#utility.yul\":10782:10785   */\n      dup2\n        /* \"#utility.yul\":10774:10785   */\n      swap1\n      pop\n        /* \"#utility.yul\":10805:10808   */\n      dup2\n        /* \"#utility.yul\":10802:10803   */\n      0x00\n        /* \"#utility.yul\":10795:10809   */\n      mstore\n        /* \"#utility.yul\":10839:10843   */\n      0x20\n        /* \"#utility.yul\":10836:10837   */\n      0x00\n        /* \"#utility.yul\":10826:10844   */\n      keccak256\n        /* \"#utility.yul\":10818:10844   */\n      swap1\n      pop\n        /* \"#utility.yul\":10710:10851   */\n      swap2\n      swap1\n      pop\n      jump\t// out\n        /* \"#utility.yul\":10857:10950   */\n    tag_141:\n        /* \"#utility.yul\":10894:10900   */\n      0x00\n        /* \"#utility.yul\":10941:10943   */\n      0x20\n        /* \"#utility.yul\":10936:10938   */\n      0x1f\n        /* \"#utility.yul\":10929:10934   */\n      dup4\n        /* \"#utility.yul\":10925:10939   */\n      add\n        /* \"#utility.yul\":10921:10944   */\n      div\n        /* \"#utility.yul\":10911:10944   */\n      swap1\n      pop\n        /* \"#utility.yul\":10857:10950   */\n      swap2\n      swap1\n      pop\n      jump\t// out\n        /* \"#utility.yul\":10956:11063   */\n    tag_142:\n        /* \"#utility.yul\":11000:11008   */\n      0x00\n        /* \"#utility.yul\":11050:11055   */\n      dup3\n        /* \"#utility.yul\":11044:11048   */\n      dup3\n        /* \"#utility.yul\":11040:11056   */\n      shl\n        /* \"#utility.yul\":11019:11056   */\n      swap1\n      pop\n        /* \"#utility.yul\":10956:11063   */\n      swap3\n      swap2\n      pop\n      pop\n      jump\t// out\n        /* \"#utility.yul\":11069:11462   */\n    tag_143:\n        /* \"#utility.yul\":11138:11144   */\n      0x00\n        /* \"#utility.yul\":11188:11189   */\n      0x08\n        /* \"#utility.yul\":11176:11186   */\n      dup4\n        /* \"#utility.yul\":11172:11190   */\n      mul\n        /* \"#utility.yul\":11211:11308   */\n      tag_254\n        /* \"#utility.yul\":11241:11307   */\n      0xffffffffffffffffffffffffffffffffffffffffffffffffffffffffffffffff\n        /* \"#utility.yul\":11230:11239   */\n      dup3\n        /* \"#utility.yul\":11211:11308   */\n      tag_142\n      jump\t// in\n    tag_254:\n        /* \"#utility.yul\":11329:11368   */\n      tag_255\n        /* \"#utility.yul\":11359:11367   */\n      dup7\n        /* \"#utility.yul\":11348:11357   */\n      dup4\n        /* \"#utility.yul\":11329:11368   */\n      tag_142\n      jump\t// in\n    tag_255:\n        /* \"#utility.yul\":11317:11368   */\n      swap6\n      pop\n        /* \"#utility.yul\":11401:11405   */\n      dup1\n        /* \"#utility.yul\":11397:11406   */\n      not\n        /* \"#utility.yul\":11390:11395   */\n      dup5\n        /* \"#utility.yul\":11386:11407   */\n      and\n        /* \"#utility.yul\":11377:11407   */\n      swap4\n      pop\n        /* \"#utility.yul\":11450:11454   */\n      dup1\n        /* \"#utility.yul\":11440:11448   */\n      dup7\n        /* \"#utility.yul\":11436:11455   */\n      and\n        /* \"#utility.yul\":11429:11434   */\n      dup5\n        /* \"#utility.yul\":11426:11456   */\n      or\n        /* \"#utility.yul\":11416:11456   */\n      swap3\n      pop\n        /* \"#utility.yul\":11145:11462   */\n      pop\n      pop\n        /* \"#utility.yul\":11069:11462   */\n      swap4\n      swap3\n      pop\n      pop\n      pop\n      jump\t// out\n        /* \"#utility.yul\":11468:11528   */\n    tag_144:\n        /* \"#utility.yul\":11496:11499   */\n      0x00\n        /* \"#utility.yul\":11517:11522   */\n      dup2\n        /* \"#utility.yul\":11510:11522   */\n      swap1\n      pop\n        /* \"#utility.yul\":11468:11528   */\n      swap2\n      swap1\n      pop\n      jump\t// out\n        /* \"#utility.yul\":11534:11676   */\n    tag_145:\n        /* \"#utility.yul\":11584:11593   */\n      0x00\n        /* \"#utility.yul\":11617:11670   */\n      tag_258\n        /* \"#utility.yul\":11635:11669   */\n      tag_259\n        /* \"#utility.yul\":11644:11668   */\n      tag_260\n        /* \"#utility.yul\":11662:11667   */\n      dup5\n        /* \"#utility.yul\":11644:11668   */\n      tag_112\n      jump\t// in\n    tag_260:\n        /* \"#utility.yul\":11635:11669   */\n      tag_144\n      jump\t// in\n    tag_259:\n        /* \"#utility.yul\":11617:11670   */\n      tag_112\n      jump\t// in\n    tag_258:\n        /* \"#utility.yul\":11604:11670   */\n      swap1\n      pop\n        /* \"#utility.yul\":11534:11676   */\n      swap2\n      swap1\n      pop\n      jump\t// out\n        /* \"#utility.yul\":11682:11757   */\n    tag_146:\n        /* \"#utility.yul\":11725:11728   */\n      0x00\n        /* \"#utility.yul\":11746:11751   */\n      dup2\n        /* \"#utility.yul\":11739:11751   */\n      swap1\n      pop\n        /* \"#utility.yul\":11682:11757   */\n      swap2\n      swap1\n      pop\n      jump\t// out\n        /* \"#utility.yul\":11763:12032   */\n    tag_147:\n        /* \"#utility.yul\":11873:11912   */\n      tag_263\n        /* \"#utility.yul\":11904:11911   */\n      dup4\n        /* \"#utility.yul\":11873:11912   */\n      tag_145\n      jump\t// in\n    tag_263:\n        /* \"#utility.yul\":11934:12025   */\n      tag_264\n        /* \"#utility.yul\":11983:12024   */\n      tag_265\n        /* \"#utility.yul\":12007:12023   */\n      dup3\n        /* \"#utility.yul\":11983:12024   */\n      tag_146\n      jump\t// in\n    tag_265:\n        /* \"#utility.yul\":11975:11981   */\n      dup5\n        /* \"#utility.yul\":11968:11972   */\n      dup5\n        /* \"#utility.yul\":11962:11973   */\n      sload\n        /* \"#utility.yul\":11934:12025   */\n      tag_143\n      jump\t// in\n    tag_264:\n        /* \"#utility.yul\":11928:11932   */\n      dup3\n        /* \"#utility.yul\":11921:12026   */\n      sstore\n        /* \"#utility.yul\":11839:12032   */\n      pop\n        /* \"#utility.yul\":11763:12032   */\n      pop\n      pop\n      pop\n      jump\t// out\n        /* \"#utility.yul\":12038:12111   */\n    tag_148:\n        /* \"#utility.yul\":12083:12086   */\n      0x00\n        /* \"#utility.yul\":12038:12111   */\n      swap1\n      jump\t// out\n        /* \"#utility.yul\":12117:12306   */\n    tag_149:\n        /* \"#utility.yul\":12194:12226   */\n      tag_268\n      tag_148\n      jump\t// in\n    tag_268:\n        /* \"#utility.yul\":12235:12300   */\n      tag_269\n        /* \"#utility.yul\":12293:12299   */\n      dup2\n        /* \"#utility.yul\":12285:12291   */\n      dup5\n        /* \"#utility.yul\":12279:12283   */\n      dup5\n        /* \"#utility.yul\":12235:12300   */\n      tag_147\n      jump\t// in\n    tag_269:\n        /* \"#utility.yul\":12170:12306   */\n      pop\n        /* \"#utility.yul\":12117:12306   */\n      pop\n      pop\n      jump\t// out\n        /* \"#utility.yul\":12312:12498   */\n    tag_150:\n        /* \"#utility.yul\":12372:12492   */\n    tag_271:\n        /* \"#utility.yul\":12389:12392   */\n      dup2\n        /* \"#utility.yul\":12382:12387   */\n      dup2\n        /* \"#utility.yul\":12379:12393   */\n      lt\n        /* \"#utility.yul\":12372:12492   */\n      iszero\n      tag_273\n      jumpi\n        /* \"#utility.yul\":12443:12482   */\n      tag_274\n        /* \"#utility.yul\":12480:12481   */\n      0x00\n        /* \"#utility.yul\":12473:12478   */\n      dup3\n        /* \"#utility.yul\":12443:12482   */\n      tag_149\n      jump\t// in\n    tag_274:\n        /* \"#utility.yul\":12416:12417   */\n      0x01\n        /* \"#utility.yul\":12409:12414   */\n      dup2\n        /* \"#utility.yul\":12405:12418   */\n      add\n        /* \"#utility.yul\":12396:12418   */\n      swap1\n      pop\n        /* \"#utility.yul\":12372:12492   */\n      jump(tag_271)\n    tag_273:\n        /* \"#utility.yul\":12312:12498   */\n      pop\n      pop\n      jump\t// out\n        /* \"#utility.yul\":12504:13047   */\n    tag_151:\n        /* \"#utility.yul\":12605:12607   */\n      0x1f\n        /* \"#utility.yul\":12600:12603   */\n      dup3\n        /* \"#utility.yul\":12597:12608   */\n      gt\n        /* \"#utility.yul\":12594:13040   */\n      iszero\n      tag_276\n      jumpi\n        /* \"#utility.yul\":12639:12677   */\n      tag_277\n        /* \"#utility.yul\":12671:12676   */\n      dup2\n        /* \"#utility.yul\":12639:12677   */\n      tag_140\n      jump\t// in\n    tag_277:\n        /* \"#utility.yul\":12723:12752   */\n      tag_278\n        /* \"#utility.yul\":12741:12751   */\n      dup5\n        /* \"#utility.yul\":12723:12752   */\n      tag_141\n      jump\t// in\n    tag_278:\n        /* \"#utility.yul\":12713:12721   */\n      dup2\n        /* \"#utility.yul\":12709:12753   */\n      add\n        /* \"#utility.yul\":12906:12908   */\n      0x20\n        /* \"#utility.yul\":12894:12904   */\n      dup6\n        /* \"#utility.yul\":12891:12909   */\n      lt\n        /* \"#utility.yul\":12888:12937   */\n      iszero\n      tag_279\n      jumpi\n        /* \"#utility.yul\":12927:12935   */\n      dup2\n        /* \"#utility.yul\":12912:12935   */\n      swap1\n      pop\n        /* \"#utility.yul\":12888:12937   */\n    tag_279:\n        /* \"#utility.yul\":12950:13030   */\n      tag_280\n        /* \"#utility.yul\":13006:13028   */\n      tag_281\n        /* \"#utility.yul\":13024:13027   */\n      dup6\n        /* \"#utility.yul\":13006:13028   */\n      tag_141\n      jump\t// in\n    tag_281:\n        /* \"#utility.yul\":12996:13004   */\n      dup4\n        /* \"#utility.yul\":12992:13029   */\n      add\n        /* \"#utility.yul\":12979:12990   */\n      dup3\n        /* \"#utility.yul\":12950:13030   */\n      tag_150\n      jump\t// in\n    tag_280:\n        /* \"#utility.yul\":12609:13040   */\n      pop\n      pop\n        /* \"#utility.yul\":12594:13040   */\n    tag_276:\n        /* \"#utility.yul\":12504:13047   */\n      pop\n      pop\n      pop\n      jump\t// out\n        /* \"#utility.yul\":13053:13170   */\n    tag_152:\n        /* \"#utility.yul\":13107:13115   */\n      0x00\n        /* \"#utility.yul\":13157:13162   */\n      dup3\n        /* \"#utility.yul\":13151:13155   */\n      dup3\n        /* \"#utility.yul\":13147:13163   */\n      shr\n        /* \"#utility.yul\":13126:13163   */\n      swap1\n      pop\n        /* \"#utility.yul\":13053:13170   */\n      swap3\n      swap2\n      pop\n      pop\n      jump\t// out\n        /* \"#utility.yul\":13176:13345   */\n    tag_153:\n        /* \"#utility.yul\":13220:13226   */\n      0x00\n        /* \"#utility.yul\":13253:13304   */\n      tag_284\n        /* \"#utility.yul\":13301:13302   */\n      0x00\n        /* \"#utility.yul\":13297:13303   */\n      not\n        /* \"#utility.yul\":13289:13294   */\n      dup5\n        /* \"#utility.yul\":13286:13287   */\n      0x08\n        /* \"#utility.yul\":13282:13295   */\n      mul\n        /* \"#utility.yul\":13253:13304   */\n      tag_152\n      jump\t// in\n    tag_284:\n        /* \"#utility.yul\":13249:13305   */\n      not\n        /* \"#utility.yul\":13334:13338   */\n      dup1\n        /* \"#utility.yul\":13328:13332   */\n      dup4\n        /* \"#utility.yul\":13324:13339   */\n      and\n        /* \"#utility.yul\":13314:13339   */\n      swap2\n      pop\n        /* \"#utility.yul\":13227:13345   */\n      pop\n        /* \"#utility.yul\":13176:13345   */\n      swap3\n      swap2\n      pop\n      pop\n      jump\t// out\n        /* \"#utility.yul\":13350:13645   */\n    tag_154:\n        /* \"#utility.yul\":13426:13430   */\n      0x00\n        /* \"#utility.yul\":13572:13601   */\n      tag_286\n        /* \"#utility.yul\":13597:13600   */\n      dup4\n        /* \"#utility.yul\":13591:13595   */\n      dup4\n        /* \"#utility.yul\":13572:13601   */\n      tag_153\n      jump\t// in\n    tag_286:\n        /* \"#utility.yul\":13564:13601   */\n      swap2\n      pop\n        /* \"#utility.yul\":13634:13637   */\n      dup3\n        /* \"#utility.yul\":13631:13632   */\n      0x02\n        /* \"#utility.yul\":13627:13638   */\n      mul\n        /* \"#utility.yul\":13621:13625   */\n      dup3\n        /* \"#utility.yul\":13618:13639   */\n      or\n        /* \"#utility.yul\":13610:13639   */\n      swap1\n      pop\n        /* \"#utility.yul\":13350:13645   */\n      swap3\n      swap2\n      pop\n      pop\n      jump\t// out\n        /* \"#utility.yul\":13650:15045   */\n    tag_93:\n        /* \"#utility.yul\":13767:13804   */\n      tag_288\n        /* \"#utility.yul\":13800:13803   */\n      dup3\n        /* \"#utility.yul\":13767:13804   */\n      tag_120\n      jump\t// in\n    tag_288:\n        /* \"#utility.yul\":13869:13887   */\n      0xffffffffffffffff\n        /* \"#utility.yul\":13861:13867   */\n      dup2\n        /* \"#utility.yul\":13858:13888   */\n      gt\n        /* \"#utility.yul\":13855:13911   */\n      iszero\n      tag_289\n      jumpi\n        /* \"#utility.yul\":13891:13909   */\n      tag_290\n      tag_139\n      jump\t// in\n    tag_290:\n        /* \"#utility.yul\":13855:13911   */\n    tag_289:\n        /* \"#utility.yul\":13935:13973   */\n      tag_291\n        /* \"#utility.yul\":13967:13971   */\n      dup3\n        /* \"#utility.yul\":13961:13972   */\n      sload\n        /* \"#utility.yul\":13935:13973   */\n      tag_61\n      jump\t// in\n    tag_291:\n        /* \"#utility.yul\":14020:14087   */\n      tag_292\n        /* \"#utility.yul\":14080:14086   */\n      dup3\n        /* \"#utility.yul\":14072:14078   */\n      dup3\n        /* \"#utility.yul\":14066:14070   */\n      dup6\n        /* \"#utility.yul\":14020:14087   */\n      tag_151\n      jump\t// in\n    tag_292:\n        /* \"#utility.yul\":14114:14115   */\n      0x00\n        /* \"#utility.yul\":14138:14142   */\n      0x20\n        /* \"#utility.yul\":14125:14142   */\n      swap1\n      pop\n        /* \"#utility.yul\":14170:14172   */\n      0x1f\n        /* \"#utility.yul\":14162:14168   */\n      dup4\n        /* \"#utility.yul\":14159:14173   */\n      gt\n        /* \"#utility.yul\":14187:14188   */\n      0x01\n        /* \"#utility.yul\":14182:14800   */\n      dup2\n      eq\n      tag_294\n      jumpi\n        /* \"#utility.yul\":14844:14845   */\n      0x00\n        /* \"#utility.yul\":14861:14867   */\n      dup5\n        /* \"#utility.yul\":14858:14935   */\n      iszero\n      tag_295\n      jumpi\n        /* \"#utility.yul\":14910:14919   */\n      dup3\n        /* \"#utility.yul\":14905:14908   */\n      dup8\n        /* \"#utility.yul\":14901:14920   */\n      add\n        /* \"#utility.yul\":14895:14921   */\n      mload\n        /* \"#utility.yul\":14886:14921   */\n      swap1\n      pop\n        /* \"#utility.yul\":14858:14935   */\n    tag_295:\n        /* \"#utility.yul\":14961:15028   */\n      tag_296\n        /* \"#utility.yul\":15021:15027   */\n      dup6\n        /* \"#utility.yul\":15014:15019   */\n      dup3\n        /* \"#utility.yul\":14961:15028   */\n      tag_154\n      jump\t// in\n    tag_296:\n        /* \"#utility.yul\":14955:14959   */\n      dup7\n        /* \"#utility.yul\":14948:15029   */\n      sstore\n        /* \"#utility.yul\":14817:15039   */\n      pop\n        /* \"#utility.yul\":14152:15039   */\n      jump(tag_293)\n        /* \"#utility.yul\":14182:14800   */\n    tag_294:\n        /* \"#utility.yul\":14234:14238   */\n      0x1f\n        /* \"#utility.yul\":14230:14239   */\n      not\n        /* \"#utility.yul\":14222:14228   */\n      dup5\n        /* \"#utility.yul\":14218:14240   */\n      and\n        /* \"#utility.yul\":14268:14305   */\n      tag_297\n        /* \"#utility.yul\":14300:14304   */\n      dup7\n        /* \"#utility.yul\":14268:14305   */\n      tag_140\n      jump\t// in\n    tag_297:\n        /* \"#utility.yul\":14327:14328   */\n      0x00\n        /* \"#utility.yul\":14341:14549   */\n    tag_298:\n        /* \"#utility.yul\":14355:14362   */\n      dup3\n        /* \"#utility.yul\":14352:14353   */\n      dup2\n        /* \"#utility.yul\":14349:14363   */\n      lt\n        /* \"#utility.yul\":14341:14549   */\n      iszero\n      tag_300\n      jumpi\n        /* \"#utility.yul\":14434:14443   */\n      dup5\n        /* \"#utility.yul\":14429:14432   */\n      dup10\n        /* \"#utility.yul\":14425:14444   */\n      add\n        /* \"#utility.yul\":14419:14445   */\n      mload\n        /* \"#utility.yul\":14411:14417   */\n      dup3\n        /* \"#utility.yul\":14404:14446   */\n      sstore\n        /* \"#utility.yul\":14485:14486   */\n      0x01\n        /* \"#utility.yul\":14477:14483   */\n      dup3\n        /* \"#utility.yul\":14473:14487   */\n      add\n        /* \"#utility.yul\":14463:14487   */\n      swap2\n      pop\n        /* \"#utility.yul\":14532:14534   */\n      0x20\n        /* \"#utility.yul\":14521:14530   */\n      dup6\n        /* \"#utility.yul\":14517:14535   */\n      add\n        /* \"#utility.yul\":14504:14535   */\n      swap5\n      pop\n        /* \"#utility.yul\":14378:14382   */\n      0x20\n        /* \"#utility.yul\":14375:14376   */\n      dup2\n        /* \"#utility.yul\":14371:14383   */\n      add\n        /* \"#utility.yul\":14366:14383   */\n      swap1\n      pop\n        /* \"#utility.yul\":14341:14549   */\n      jump(tag_298)\n    tag_300:\n        /* \"#utility.yul\":14577:14583   */\n      dup7\n        /* \"#utility.yul\":14568:14575   */\n      dup4\n        /* \"#utility.yul\":14565:14584   */\n      lt\n        /* \"#utility.yul\":14562:14741   */\n      iszero\n      tag_301\n      jumpi\n        /* \"#utility.yul\":14635:14644   */\n      dup5\n        /* \"#utility.yul\":14630:14633   */\n      dup10\n        /* \"#utility.yul\":14626:14645   */\n      add\n        /* \"#utility.yul\":14620:14646   */\n      mload\n        /* \"#utility.yul\":14678:14726   */\n      tag_302\n        /* \"#utility.yul\":14720:14724   */\n      0x1f\n        /* \"#utility.yul\":14712:14718   */\n      dup10\n        /* \"#utility.yul\":14708:14725   */\n      and\n        /* \"#utility.yul\":14697:14706   */\n      dup3\n        /* \"#utility.yul\":14678:14726   */\n      tag_153\n      jump\t// in\n    tag_302:\n        /* \"#utility.yul\":14670:14676   */\n      dup4\n        /* \"#utility.yul\":14663:14727   */\n      sstore\n        /* \"#utility.yul\":14585:14741   */\n      pop\n        /* \"#utility.yul\":14562:14741   */\n    tag_301:\n        /* \"#utility.yul\":14787:14788   */\n      0x01\n        /* \"#utility.yul\":14783:14784   */\n      0x02\n        /* \"#utility.yul\":14775:14781   */\n      dup9\n        /* \"#utility.yul\":14771:14785   */\n      mul\n        /* \"#utility.yul\":14767:14789   */\n      add\n        /* \"#utility.yul\":14761:14765   */\n      dup9\n        /* \"#utility.yul\":14754:14790   */\n      sstore\n        /* \"#utility.yul\":14189:14800   */\n      pop\n      pop\n      pop\n        /* \"#utility.yul\":14152:15039   */\n    tag_293:\n      pop\n        /* \"#utility.yul\":13742:15045   */\n      pop\n      pop\n      pop\n        /* \"#utility.yul\":13650:15045   */\n      pop\n      pop\n      jump\t// out\n\n    auxdata: 0xa2646970667358221220ed3a93c325efc9475bf6a0636d483588349cfe836b5038840d1eb306adef36eb64736f6c634300080f0033\n}\n",
				"bytecode": {
					"linkReferences": {},
					"object": "6080604052620151806003556000600f553480156200001d57600080fd5b50604051620015e8380380620015e883398181016040528101906200004391906200024f565b81600a90816200005491906200052a565b5080600b90816200006691906200052a565b508260018190555050505062000611565b6000604051905090565b600080fd5b600080fd5b6000819050919050565b620000a0816200008b565b8114620000ac57600080fd5b50565b600081519050620000c08162000095565b92915050565b600080fd5b600080fd5b6000601f19601f8301169050919050565b7f4e487b7100000000000000000000000000000000000000000000000000000000600052604160045260246000fd5b6200011b82620000d0565b810181811067ffffffffffffffff821117156200013d576200013c620000e1565b5b80604052505050565b60006200015262000077565b905062000160828262000110565b919050565b600067ffffffffffffffff821115620001835762000182620000e1565b5b6200018e82620000d0565b9050602081019050919050565b60005b83811015620001bb5780820151818401526020810190506200019e565b83811115620001cb576000848401525b50505050565b6000620001e8620001e28462000165565b62000146565b905082815260208101848484011115620002075762000206620000cb565b5b620002148482856200019b565b509392505050565b600082601f830112620002345762000233620000c6565b5b815162000246848260208601620001d1565b91505092915050565b6000806000606084860312156200026b576200026a62000081565b5b60006200027b86828701620000af565b935050602084015167ffffffffffffffff8111156200029f576200029e62000086565b5b620002ad868287016200021c565b925050604084015167ffffffffffffffff811115620002d157620002d062000086565b5b620002df868287016200021c565b9150509250925092565b600081519050919050565b7f4e487b7100000000000000000000000000000000000000000000000000000000600052602260045260246000fd5b600060028204905060018216806200033c57607f821691505b602082108103620003525762000351620002f4565b5b50919050565b60008190508160005260206000209050919050565b60006020601f8301049050919050565b600082821b905092915050565b600060088302620003bc7fffffffffffffffffffffffffffffffffffffffffffffffffffffffffffffffff826200037d565b620003c886836200037d565b95508019841693508086168417925050509392505050565b6000819050919050565b60006200040b62000405620003ff846200008b565b620003e0565b6200008b565b9050919050565b6000819050919050565b6200042783620003ea565b6200043f620004368262000412565b8484546200038a565b825550505050565b600090565b6200045662000447565b620004638184846200041c565b505050565b5b818110156200048b576200047f6000826200044c565b60018101905062000469565b5050565b601f821115620004da57620004a48162000358565b620004af846200036d565b81016020851015620004bf578190505b620004d7620004ce856200036d565b83018262000468565b50505b505050565b600082821c905092915050565b6000620004ff60001984600802620004df565b1980831691505092915050565b60006200051a8383620004ec565b9150826002028217905092915050565b6200053582620002e9565b67ffffffffffffffff811115620005515762000550620000e1565b5b6200055d825462000323565b6200056a8282856200048f565b600060209050601f831160018114620005a257600084156200058d578287015190505b6200059985826200050c565b86555062000609565b601f198416620005b28662000358565b60005b82811015620005dc57848901518255600182019150602085019450602081019050620005b5565b86831015620005fc5784890151620005f8601f891682620004ec565b8355505b6001600288020188555050505b505050505050565b610fc780620006216000396000f3fe608060405234801561001057600080fd5b50600436106100b45760003560e01c80637eb9f571116100715780637eb9f5711461016b5780638fa118641461018957806394b5dcaa146101a7578063aa8c217c146101c5578063bc309496146101e3578063e21f37ce14610201576100b4565b8063062a7544146100b95780630e85fa72146100d557806334f5ccde146100f357806342fb7936146101115780634b28f9a21461012f5780637b9a3f4c1461014d575b600080fd5b6100d360048036038101906100ce91906107f8565b61021f565b005b6100dd610585565b6040516100ea9190610847565b60405180910390f35b6100fb61058b565b6040516101089190610847565b60405180910390f35b610119610591565b60405161012691906108fb565b60405180910390f35b61013761061f565b6040516101449190610847565b60405180910390f35b610155610625565b6040516101629190610847565b60405180910390f35b61017361062b565b6040516101809190610847565b60405180910390f35b610191610631565b60405161019e91906108fb565b60405180910390f35b6101af6106bf565b6040516101bc9190610847565b60405180910390f35b6101cd6106c5565b6040516101da9190610847565b60405180910390f35b6101eb6106cb565b6040516101f89190610847565b60405180910390f35b6102096106d1565b60405161021691906108fb565b60405180910390f35b8080600260006101000a81548173ffffffffffffffffffffffffffffffffffffffff021916908373ffffffffffffffffffffffffffffffffffffffff160217905550600073ffffffffffffffffffffffffffffffffffffffff168173ffffffffffffffffffffffffffffffffffffffff16036102d0576040517f08c379a00000000000000000000000000000000000000000000000000000000081526004016102c790610969565b60405180910390fd5b6008600a80546102df906109b8565b90501480156102fc57506003600b80546102f8906109b8565b9050145b61033b576040517f08c379a000000000000000000000000000000000000000000000000000000000815260040161033290610a35565b60405180910390fd5b60006001541180156103505750600054600154115b61038f576040517f08c379a000000000000000000000000000000000000000000000000000000000815260040161038690610aa1565b60405180910390fd5b6109c4600c5411156103d6576040517f08c379a00000000000000000000000000000000000000000000000000000000081526004016103cd90610b0d565b60405180910390fd5b6005600f54111580156103f75750601e600d546103f39190610b5c565b4210155b610436576040517f08c379a000000000000000000000000000000000000000000000000000000000815260040161042d90610c24565b60405180910390fd5b601e600d546104459190610b5c565b600d5411610488576040517f08c379a000000000000000000000000000000000000000000000000000000000815260040161047f90610c90565b60405180910390fd5b81600260006101000a81548173ffffffffffffffffffffffffffffffffffffffff021916908373ffffffffffffffffffffffffffffffffffffffff160217905550826000819055506001600f60008282546104e39190610b5c565b9250508190555060006001541180156104ff5750600054600154115b1561058057600054600160008282546105189190610cb0565b92505081905550600054600c60008282546105339190610b5c565b925050819055506040518060400160405280601281526020017f5472616e7366657220636f6d706c6574656400000000000000000000000000008152506009908161057e9190610ebf565b505b505050565b600d5481565b600e5481565b600b805461059e906109b8565b80601f01602080910402602001604051908101604052809291908181526020018280546105ca906109b8565b80156106175780601f106105ec57610100808354040283529160200191610617565b820191906000526020600020905b8154815290600101906020018083116105fa57829003601f168201915b505050505081565b600f5481565b60015481565b600c5481565b600a805461063e906109b8565b80601f016020809104026020016040519081016040528092919081815260200182805461066a906109b8565b80156106b75780601f1061068c576101008083540402835291602001916106b7565b820191906000526020600020905b81548152906001019060200180831161069a57829003601f168201915b505050505081565b60045481565b60005481565b60085481565b600980546106de906109b8565b80601f016020809104026020016040519081016040528092919081815260200182805461070a906109b8565b80156107575780601f1061072c57610100808354040283529160200191610757565b820191906000526020600020905b81548152906001019060200180831161073a57829003601f168201915b505050505081565b600080fd5b6000819050919050565b61077781610764565b811461078257600080fd5b50565b6000813590506107948161076e565b92915050565b600073ffffffffffffffffffffffffffffffffffffffff82169050919050565b60006107c58261079a565b9050919050565b6107d5816107ba565b81146107e057600080fd5b50565b6000813590506107f2816107cc565b92915050565b6000806040838503121561080f5761080e61075f565b5b600061081d85828601610785565b925050602061082e858286016107e3565b9150509250929050565b61084181610764565b82525050565b600060208201905061085c6000830184610838565b92915050565b600081519050919050565b600082825260208201905092915050565b60005b8381101561089c578082015181840152602081019050610881565b838111156108ab576000848401525b50505050565b6000601f19601f8301169050919050565b60006108cd82610862565b6108d7818561086d565b93506108e781856020860161087e565b6108f0816108b1565b840191505092915050565b6000602082019050818103600083015261091581846108c2565b905092915050565b7f2054686973206164647265737320646f65736e27742065786973747300000000600082015250565b6000610953601c8361086d565b915061095e8261091d565b602082019050919050565b6000602082019050818103600083015261098281610946565b9050919050565b7f4e487b7100000000000000000000000000000000000000000000000000000000600052602260045260246000fd5b600060028204905060018216806109d057607f821691505b6020821081036109e3576109e2610989565b5b50919050565b7f4e6f2076616c6964206372656469742063617264000000000000000000000000600082015250565b6000610a1f60148361086d565b9150610a2a826109e9565b602082019050919050565b60006020820190508181036000830152610a4e81610a12565b9050919050565b7f4e6f7420656e6f7567682066756e647300000000000000000000000000000000600082015250565b6000610a8b60108361086d565b9150610a9682610a55565b602082019050919050565b60006020820190508181036000830152610aba81610a7e565b9050919050565b7f596f75207265616368656420746865206c696d69740000000000000000000000600082015250565b6000610af760158361086d565b9150610b0282610ac1565b602082019050919050565b60006020820190508181036000830152610b2681610aea565b9050919050565b7f4e487b7100000000000000000000000000000000000000000000000000000000600052601160045260246000fd5b6000610b6782610764565b9150610b7283610764565b9250827fffffffffffffffffffffffffffffffffffffffffffffffffffffffffffffffff03821115610ba757610ba6610b2d565b5b828201905092915050565b7f796f752063616e6e6f74206d616b65206d6f7265207468616e2035207472616e60008201527f73616374696f6e73207065722064617900000000000000000000000000000000602082015250565b6000610c0e60308361086d565b9150610c1982610bb2565b604082019050919050565b60006020820190508181036000830152610c3d81610c01565b9050919050565b7f54696d6520706173736564000000000000000000000000000000000000000000600082015250565b6000610c7a600b8361086d565b9150610c8582610c44565b602082019050919050565b60006020820190508181036000830152610ca981610c6d565b9050919050565b6000610cbb82610764565b9150610cc683610764565b925082821015610cd957610cd8610b2d565b5b828203905092915050565b7f4e487b7100000000000000000000000000000000000000000000000000000000600052604160045260246000fd5b60008190508160005260206000209050919050565b60006020601f8301049050919050565b600082821b905092915050565b600060088302610d757fffffffffffffffffffffffffffffffffffffffffffffffffffffffffffffffff82610d38565b610d7f8683610d38565b95508019841693508086168417925050509392505050565b6000819050919050565b6000610dbc610db7610db284610764565b610d97565b610764565b9050919050565b6000819050919050565b610dd683610da1565b610dea610de282610dc3565b848454610d45565b825550505050565b600090565b610dff610df2565b610e0a818484610dcd565b505050565b5b81811015610e2e57610e23600082610df7565b600181019050610e10565b5050565b601f821115610e7357610e4481610d13565b610e4d84610d28565b81016020851015610e5c578190505b610e70610e6885610d28565b830182610e0f565b50505b505050565b600082821c905092915050565b6000610e9660001984600802610e78565b1980831691505092915050565b6000610eaf8383610e85565b9150826002028217905092915050565b610ec882610862565b67ffffffffffffffff811115610ee157610ee0610ce4565b5b610eeb82546109b8565b610ef6828285610e32565b600060209050601f831160018114610f295760008415610f17578287015190505b610f218582610ea3565b865550610f89565b601f198416610f3786610d13565b60005b82811015610f5f57848901518255600182019150602085019450602081019050610f3a565b86831015610f7c5784890151610f78601f891682610e85565b8355505b6001600288020188555050505b50505050505056fea2646970667358221220ed3a93c325efc9475bf6a0636d483588349cfe836b5038840d1eb306adef36eb64736f6c634300080f0033",
					"opcodes": "PUSH1 0x80 PUSH1 0x40 MSTORE PUSH3 0x15180 PUSH1 0x3 SSTORE PUSH1 0x0 PUSH1 0xF SSTORE CALLVALUE DUP1 ISZERO PUSH3 0x1D JUMPI PUSH1 0x0 DUP1 REVERT JUMPDEST POP PUSH1 0x40 MLOAD PUSH3 0x15E8 CODESIZE SUB DUP1 PUSH3 0x15E8 DUP4 CODECOPY DUP2 DUP2 ADD PUSH1 0x40 MSTORE DUP2 ADD SWAP1 PUSH3 0x43 SWAP2 SWAP1 PUSH3 0x24F JUMP JUMPDEST DUP2 PUSH1 0xA SWAP1 DUP2 PUSH3 0x54 SWAP2 SWAP1 PUSH3 0x52A JUMP JUMPDEST POP DUP1 PUSH1 0xB SWAP1 DUP2 PUSH3 0x66 SWAP2 SWAP1 PUSH3 0x52A JUMP JUMPDEST POP DUP3 PUSH1 0x1 DUP2 SWAP1 SSTORE POP POP POP POP PUSH3 0x611 JUMP JUMPDEST PUSH1 0x0 PUSH1 0x40 MLOAD SWAP1 POP SWAP1 JUMP JUMPDEST PUSH1 0x0 DUP1 REVERT JUMPDEST PUSH1 0x0 DUP1 REVERT JUMPDEST PUSH1 0x0 DUP2 SWAP1 POP SWAP2 SWAP1 POP JUMP JUMPDEST PUSH3 0xA0 DUP2 PUSH3 0x8B JUMP JUMPDEST DUP2 EQ PUSH3 0xAC JUMPI PUSH1 0x0 DUP1 REVERT JUMPDEST POP JUMP JUMPDEST PUSH1 0x0 DUP2 MLOAD SWAP1 POP PUSH3 0xC0 DUP2 PUSH3 0x95 JUMP JUMPDEST SWAP3 SWAP2 POP POP JUMP JUMPDEST PUSH1 0x0 DUP1 REVERT JUMPDEST PUSH1 0x0 DUP1 REVERT JUMPDEST PUSH1 0x0 PUSH1 0x1F NOT PUSH1 0x1F DUP4 ADD AND SWAP1 POP SWAP2 SWAP1 POP JUMP JUMPDEST PUSH32 0x4E487B7100000000000000000000000000000000000000000000000000000000 PUSH1 0x0 MSTORE PUSH1 0x41 PUSH1 0x4 MSTORE PUSH1 0x24 PUSH1 0x0 REVERT JUMPDEST PUSH3 0x11B DUP3 PUSH3 0xD0 JUMP JUMPDEST DUP2 ADD DUP2 DUP2 LT PUSH8 0xFFFFFFFFFFFFFFFF DUP3 GT OR ISZERO PUSH3 0x13D JUMPI PUSH3 0x13C PUSH3 0xE1 JUMP JUMPDEST JUMPDEST DUP1 PUSH1 0x40 MSTORE POP POP POP JUMP JUMPDEST PUSH1 0x0 PUSH3 0x152 PUSH3 0x77 JUMP JUMPDEST SWAP1 POP PUSH3 0x160 DUP3 DUP3 PUSH3 0x110 JUMP JUMPDEST SWAP2 SWAP1 POP JUMP JUMPDEST PUSH1 0x0 PUSH8 0xFFFFFFFFFFFFFFFF DUP3 GT ISZERO PUSH3 0x183 JUMPI PUSH3 0x182 PUSH3 0xE1 JUMP JUMPDEST JUMPDEST PUSH3 0x18E DUP3 PUSH3 0xD0 JUMP JUMPDEST SWAP1 POP PUSH1 0x20 DUP2 ADD SWAP1 POP SWAP2 SWAP1 POP JUMP JUMPDEST PUSH1 0x0 JUMPDEST DUP4 DUP2 LT ISZERO PUSH3 0x1BB JUMPI DUP1 DUP3 ADD MLOAD DUP2 DUP5 ADD MSTORE PUSH1 0x20 DUP2 ADD SWAP1 POP PUSH3 0x19E JUMP JUMPDEST DUP4 DUP2 GT ISZERO PUSH3 0x1CB JUMPI PUSH1 0x0 DUP5 DUP5 ADD MSTORE JUMPDEST POP POP POP POP JUMP JUMPDEST PUSH1 0x0 PUSH3 0x1E8 PUSH3 0x1E2 DUP5 PUSH3 0x165 JUMP JUMPDEST PUSH3 0x146 JUMP JUMPDEST SWAP1 POP DUP3 DUP2 MSTORE PUSH1 0x20 DUP2 ADD DUP5 DUP5 DUP5 ADD GT ISZERO PUSH3 0x207 JUMPI PUSH3 0x206 PUSH3 0xCB JUMP JUMPDEST JUMPDEST PUSH3 0x214 DUP5 DUP3 DUP6 PUSH3 0x19B JUMP JUMPDEST POP SWAP4 SWAP3 POP POP POP JUMP JUMPDEST PUSH1 0x0 DUP3 PUSH1 0x1F DUP4 ADD SLT PUSH3 0x234 JUMPI PUSH3 0x233 PUSH3 0xC6 JUMP JUMPDEST JUMPDEST DUP2 MLOAD PUSH3 0x246 DUP5 DUP3 PUSH1 0x20 DUP7 ADD PUSH3 0x1D1 JUMP JUMPDEST SWAP2 POP POP SWAP3 SWAP2 POP POP JUMP JUMPDEST PUSH1 0x0 DUP1 PUSH1 0x0 PUSH1 0x60 DUP5 DUP7 SUB SLT ISZERO PUSH3 0x26B JUMPI PUSH3 0x26A PUSH3 0x81 JUMP JUMPDEST JUMPDEST PUSH1 0x0 PUSH3 0x27B DUP7 DUP3 DUP8 ADD PUSH3 0xAF JUMP JUMPDEST SWAP4 POP POP PUSH1 0x20 DUP5 ADD MLOAD PUSH8 0xFFFFFFFFFFFFFFFF DUP2 GT ISZERO PUSH3 0x29F JUMPI PUSH3 0x29E PUSH3 0x86 JUMP JUMPDEST JUMPDEST PUSH3 0x2AD DUP7 DUP3 DUP8 ADD PUSH3 0x21C JUMP JUMPDEST SWAP3 POP POP PUSH1 0x40 DUP5 ADD MLOAD PUSH8 0xFFFFFFFFFFFFFFFF DUP2 GT ISZERO PUSH3 0x2D1 JUMPI PUSH3 0x2D0 PUSH3 0x86 JUMP JUMPDEST JUMPDEST PUSH3 0x2DF DUP7 DUP3 DUP8 ADD PUSH3 0x21C JUMP JUMPDEST SWAP2 POP POP SWAP3 POP SWAP3 POP SWAP3 JUMP JUMPDEST PUSH1 0x0 DUP2 MLOAD SWAP1 POP SWAP2 SWAP1 POP JUMP JUMPDEST PUSH32 0x4E487B7100000000000000000000000000000000000000000000000000000000 PUSH1 0x0 MSTORE PUSH1 0x22 PUSH1 0x4 MSTORE PUSH1 0x24 PUSH1 0x0 REVERT JUMPDEST PUSH1 0x0 PUSH1 0x2 DUP3 DIV SWAP1 POP PUSH1 0x1 DUP3 AND DUP1 PUSH3 0x33C JUMPI PUSH1 0x7F DUP3 AND SWAP2 POP JUMPDEST PUSH1 0x20 DUP3 LT DUP2 SUB PUSH3 0x352 JUMPI PUSH3 0x351 PUSH3 0x2F4 JUMP JUMPDEST JUMPDEST POP SWAP2 SWAP1 POP JUMP JUMPDEST PUSH1 0x0 DUP2 SWAP1 POP DUP2 PUSH1 0x0 MSTORE PUSH1 0x20 PUSH1 0x0 KECCAK256 SWAP1 POP SWAP2 SWAP1 POP JUMP JUMPDEST PUSH1 0x0 PUSH1 0x20 PUSH1 0x1F DUP4 ADD DIV SWAP1 POP SWAP2 SWAP1 POP JUMP JUMPDEST PUSH1 0x0 DUP3 DUP3 SHL SWAP1 POP SWAP3 SWAP2 POP POP JUMP JUMPDEST PUSH1 0x0 PUSH1 0x8 DUP4 MUL PUSH3 0x3BC PUSH32 0xFFFFFFFFFFFFFFFFFFFFFFFFFFFFFFFFFFFFFFFFFFFFFFFFFFFFFFFFFFFFFFFF DUP3 PUSH3 0x37D JUMP JUMPDEST PUSH3 0x3C8 DUP7 DUP4 PUSH3 0x37D JUMP JUMPDEST SWAP6 POP DUP1 NOT DUP5 AND SWAP4 POP DUP1 DUP7 AND DUP5 OR SWAP3 POP POP POP SWAP4 SWAP3 POP POP POP JUMP JUMPDEST PUSH1 0x0 DUP2 SWAP1 POP SWAP2 SWAP1 POP JUMP JUMPDEST PUSH1 0x0 PUSH3 0x40B PUSH3 0x405 PUSH3 0x3FF DUP5 PUSH3 0x8B JUMP JUMPDEST PUSH3 0x3E0 JUMP JUMPDEST PUSH3 0x8B JUMP JUMPDEST SWAP1 POP SWAP2 SWAP1 POP JUMP JUMPDEST PUSH1 0x0 DUP2 SWAP1 POP SWAP2 SWAP1 POP JUMP JUMPDEST PUSH3 0x427 DUP4 PUSH3 0x3EA JUMP JUMPDEST PUSH3 0x43F PUSH3 0x436 DUP3 PUSH3 0x412 JUMP JUMPDEST DUP5 DUP5 SLOAD PUSH3 0x38A JUMP JUMPDEST DUP3 SSTORE POP POP POP POP JUMP JUMPDEST PUSH1 0x0 SWAP1 JUMP JUMPDEST PUSH3 0x456 PUSH3 0x447 JUMP JUMPDEST PUSH3 0x463 DUP2 DUP5 DUP5 PUSH3 0x41C JUMP JUMPDEST POP POP POP JUMP JUMPDEST JUMPDEST DUP2 DUP2 LT ISZERO PUSH3 0x48B JUMPI PUSH3 0x47F PUSH1 0x0 DUP3 PUSH3 0x44C JUMP JUMPDEST PUSH1 0x1 DUP2 ADD SWAP1 POP PUSH3 0x469 JUMP JUMPDEST POP POP JUMP JUMPDEST PUSH1 0x1F DUP3 GT ISZERO PUSH3 0x4DA JUMPI PUSH3 0x4A4 DUP2 PUSH3 0x358 JUMP JUMPDEST PUSH3 0x4AF DUP5 PUSH3 0x36D JUMP JUMPDEST DUP2 ADD PUSH1 0x20 DUP6 LT ISZERO PUSH3 0x4BF JUMPI DUP2 SWAP1 POP JUMPDEST PUSH3 0x4D7 PUSH3 0x4CE DUP6 PUSH3 0x36D JUMP JUMPDEST DUP4 ADD DUP3 PUSH3 0x468 JUMP JUMPDEST POP POP JUMPDEST POP POP POP JUMP JUMPDEST PUSH1 0x0 DUP3 DUP3 SHR SWAP1 POP SWAP3 SWAP2 POP POP JUMP JUMPDEST PUSH1 0x0 PUSH3 0x4FF PUSH1 0x0 NOT DUP5 PUSH1 0x8 MUL PUSH3 0x4DF JUMP JUMPDEST NOT DUP1 DUP4 AND SWAP2 POP POP SWAP3 SWAP2 POP POP JUMP JUMPDEST PUSH1 0x0 PUSH3 0x51A DUP4 DUP4 PUSH3 0x4EC JUMP JUMPDEST SWAP2 POP DUP3 PUSH1 0x2 MUL DUP3 OR SWAP1 POP SWAP3 SWAP2 POP POP JUMP JUMPDEST PUSH3 0x535 DUP3 PUSH3 0x2E9 JUMP JUMPDEST PUSH8 0xFFFFFFFFFFFFFFFF DUP2 GT ISZERO PUSH3 0x551 JUMPI PUSH3 0x550 PUSH3 0xE1 JUMP JUMPDEST JUMPDEST PUSH3 0x55D DUP3 SLOAD PUSH3 0x323 JUMP JUMPDEST PUSH3 0x56A DUP3 DUP3 DUP6 PUSH3 0x48F JUMP JUMPDEST PUSH1 0x0 PUSH1 0x20 SWAP1 POP PUSH1 0x1F DUP4 GT PUSH1 0x1 DUP2 EQ PUSH3 0x5A2 JUMPI PUSH1 0x0 DUP5 ISZERO PUSH3 0x58D JUMPI DUP3 DUP8 ADD MLOAD SWAP1 POP JUMPDEST PUSH3 0x599 DUP6 DUP3 PUSH3 0x50C JUMP JUMPDEST DUP7 SSTORE POP PUSH3 0x609 JUMP JUMPDEST PUSH1 0x1F NOT DUP5 AND PUSH3 0x5B2 DUP7 PUSH3 0x358 JUMP JUMPDEST PUSH1 0x0 JUMPDEST DUP3 DUP2 LT ISZERO PUSH3 0x5DC JUMPI DUP5 DUP10 ADD MLOAD DUP3 SSTORE PUSH1 0x1 DUP3 ADD SWAP2 POP PUSH1 0x20 DUP6 ADD SWAP5 POP PUSH1 0x20 DUP2 ADD SWAP1 POP PUSH3 0x5B5 JUMP JUMPDEST DUP7 DUP4 LT ISZERO PUSH3 0x5FC JUMPI DUP5 DUP10 ADD MLOAD PUSH3 0x5F8 PUSH1 0x1F DUP10 AND DUP3 PUSH3 0x4EC JUMP JUMPDEST DUP4 SSTORE POP JUMPDEST PUSH1 0x1 PUSH1 0x2 DUP9 MUL ADD DUP9 SSTORE POP POP POP JUMPDEST POP POP POP POP POP POP JUMP JUMPDEST PUSH2 0xFC7 DUP1 PUSH3 0x621 PUSH1 0x0 CODECOPY PUSH1 0x0 RETURN INVALID PUSH1 0x80 PUSH1 0x40 MSTORE CALLVALUE DUP1 ISZERO PUSH2 0x10 JUMPI PUSH1 0x0 DUP1 REVERT JUMPDEST POP PUSH1 0x4 CALLDATASIZE LT PUSH2 0xB4 JUMPI PUSH1 0x0 CALLDATALOAD PUSH1 0xE0 SHR DUP1 PUSH4 0x7EB9F571 GT PUSH2 0x71 JUMPI DUP1 PUSH4 0x7EB9F571 EQ PUSH2 0x16B JUMPI DUP1 PUSH4 0x8FA11864 EQ PUSH2 0x189 JUMPI DUP1 PUSH4 0x94B5DCAA EQ PUSH2 0x1A7 JUMPI DUP1 PUSH4 0xAA8C217C EQ PUSH2 0x1C5 JUMPI DUP1 PUSH4 0xBC309496 EQ PUSH2 0x1E3 JUMPI DUP1 PUSH4 0xE21F37CE EQ PUSH2 0x201 JUMPI PUSH2 0xB4 JUMP JUMPDEST DUP1 PUSH4 0x62A7544 EQ PUSH2 0xB9 JUMPI DUP1 PUSH4 0xE85FA72 EQ PUSH2 0xD5 JUMPI DUP1 PUSH4 0x34F5CCDE EQ PUSH2 0xF3 JUMPI DUP1 PUSH4 0x42FB7936 EQ PUSH2 0x111 JUMPI DUP1 PUSH4 0x4B28F9A2 EQ PUSH2 0x12F JUMPI DUP1 PUSH4 0x7B9A3F4C EQ PUSH2 0x14D JUMPI JUMPDEST PUSH1 0x0 DUP1 REVERT JUMPDEST PUSH2 0xD3 PUSH1 0x4 DUP1 CALLDATASIZE SUB DUP2 ADD SWAP1 PUSH2 0xCE SWAP2 SWAP1 PUSH2 0x7F8 JUMP JUMPDEST PUSH2 0x21F JUMP JUMPDEST STOP JUMPDEST PUSH2 0xDD PUSH2 0x585 JUMP JUMPDEST PUSH1 0x40 MLOAD PUSH2 0xEA SWAP2 SWAP1 PUSH2 0x847 JUMP JUMPDEST PUSH1 0x40 MLOAD DUP1 SWAP2 SUB SWAP1 RETURN JUMPDEST PUSH2 0xFB PUSH2 0x58B JUMP JUMPDEST PUSH1 0x40 MLOAD PUSH2 0x108 SWAP2 SWAP1 PUSH2 0x847 JUMP JUMPDEST PUSH1 0x40 MLOAD DUP1 SWAP2 SUB SWAP1 RETURN JUMPDEST PUSH2 0x119 PUSH2 0x591 JUMP JUMPDEST PUSH1 0x40 MLOAD PUSH2 0x126 SWAP2 SWAP1 PUSH2 0x8FB JUMP JUMPDEST PUSH1 0x40 MLOAD DUP1 SWAP2 SUB SWAP1 RETURN JUMPDEST PUSH2 0x137 PUSH2 0x61F JUMP JUMPDEST PUSH1 0x40 MLOAD PUSH2 0x144 SWAP2 SWAP1 PUSH2 0x847 JUMP JUMPDEST PUSH1 0x40 MLOAD DUP1 SWAP2 SUB SWAP1 RETURN JUMPDEST PUSH2 0x155 PUSH2 0x625 JUMP JUMPDEST PUSH1 0x40 MLOAD PUSH2 0x162 SWAP2 SWAP1 PUSH2 0x847 JUMP JUMPDEST PUSH1 0x40 MLOAD DUP1 SWAP2 SUB SWAP1 RETURN JUMPDEST PUSH2 0x173 PUSH2 0x62B JUMP JUMPDEST PUSH1 0x40 MLOAD PUSH2 0x180 SWAP2 SWAP1 PUSH2 0x847 JUMP JUMPDEST PUSH1 0x40 MLOAD DUP1 SWAP2 SUB SWAP1 RETURN JUMPDEST PUSH2 0x191 PUSH2 0x631 JUMP JUMPDEST PUSH1 0x40 MLOAD PUSH2 0x19E SWAP2 SWAP1 PUSH2 0x8FB JUMP JUMPDEST PUSH1 0x40 MLOAD DUP1 SWAP2 SUB SWAP1 RETURN JUMPDEST PUSH2 0x1AF PUSH2 0x6BF JUMP JUMPDEST PUSH1 0x40 MLOAD PUSH2 0x1BC SWAP2 SWAP1 PUSH2 0x847 JUMP JUMPDEST PUSH1 0x40 MLOAD DUP1 SWAP2 SUB SWAP1 RETURN JUMPDEST PUSH2 0x1CD PUSH2 0x6C5 JUMP JUMPDEST PUSH1 0x40 MLOAD PUSH2 0x1DA SWAP2 SWAP1 PUSH2 0x847 JUMP JUMPDEST PUSH1 0x40 MLOAD DUP1 SWAP2 SUB SWAP1 RETURN JUMPDEST PUSH2 0x1EB PUSH2 0x6CB JUMP JUMPDEST PUSH1 0x40 MLOAD PUSH2 0x1F8 SWAP2 SWAP1 PUSH2 0x847 JUMP JUMPDEST PUSH1 0x40 MLOAD DUP1 SWAP2 SUB SWAP1 RETURN JUMPDEST PUSH2 0x209 PUSH2 0x6D1 JUMP JUMPDEST PUSH1 0x40 MLOAD PUSH2 0x216 SWAP2 SWAP1 PUSH2 0x8FB JUMP JUMPDEST PUSH1 0x40 MLOAD DUP1 SWAP2 SUB SWAP1 RETURN JUMPDEST DUP1 DUP1 PUSH1 0x2 PUSH1 0x0 PUSH2 0x100 EXP DUP2 SLOAD DUP2 PUSH20 0xFFFFFFFFFFFFFFFFFFFFFFFFFFFFFFFFFFFFFFFF MUL NOT AND SWAP1 DUP4 PUSH20 0xFFFFFFFFFFFFFFFFFFFFFFFFFFFFFFFFFFFFFFFF AND MUL OR SWAP1 SSTORE POP PUSH1 0x0 PUSH20 0xFFFFFFFFFFFFFFFFFFFFFFFFFFFFFFFFFFFFFFFF AND DUP2 PUSH20 0xFFFFFFFFFFFFFFFFFFFFFFFFFFFFFFFFFFFFFFFF AND SUB PUSH2 0x2D0 JUMPI PUSH1 0x40 MLOAD PUSH32 0x8C379A000000000000000000000000000000000000000000000000000000000 DUP2 MSTORE PUSH1 0x4 ADD PUSH2 0x2C7 SWAP1 PUSH2 0x969 JUMP JUMPDEST PUSH1 0x40 MLOAD DUP1 SWAP2 SUB SWAP1 REVERT JUMPDEST PUSH1 0x8 PUSH1 0xA DUP1 SLOAD PUSH2 0x2DF SWAP1 PUSH2 0x9B8 JUMP JUMPDEST SWAP1 POP EQ DUP1 ISZERO PUSH2 0x2FC JUMPI POP PUSH1 0x3 PUSH1 0xB DUP1 SLOAD PUSH2 0x2F8 SWAP1 PUSH2 0x9B8 JUMP JUMPDEST SWAP1 POP EQ JUMPDEST PUSH2 0x33B JUMPI PUSH1 0x40 MLOAD PUSH32 0x8C379A000000000000000000000000000000000000000000000000000000000 DUP2 MSTORE PUSH1 0x4 ADD PUSH2 0x332 SWAP1 PUSH2 0xA35 JUMP JUMPDEST PUSH1 0x40 MLOAD DUP1 SWAP2 SUB SWAP1 REVERT JUMPDEST PUSH1 0x0 PUSH1 0x1 SLOAD GT DUP1 ISZERO PUSH2 0x350 JUMPI POP PUSH1 0x0 SLOAD PUSH1 0x1 SLOAD GT JUMPDEST PUSH2 0x38F JUMPI PUSH1 0x40 MLOAD PUSH32 0x8C379A000000000000000000000000000000000000000000000000000000000 DUP2 MSTORE PUSH1 0x4 ADD PUSH2 0x386 SWAP1 PUSH2 0xAA1 JUMP JUMPDEST PUSH1 0x40 MLOAD DUP1 SWAP2 SUB SWAP1 REVERT JUMPDEST PUSH2 0x9C4 PUSH1 0xC SLOAD GT ISZERO PUSH2 0x3D6 JUMPI PUSH1 0x40 MLOAD PUSH32 0x8C379A000000000000000000000000000000000000000000000000000000000 DUP2 MSTORE PUSH1 0x4 ADD PUSH2 0x3CD SWAP1 PUSH2 0xB0D JUMP JUMPDEST PUSH1 0x40 MLOAD DUP1 SWAP2 SUB SWAP1 REVERT JUMPDEST PUSH1 0x5 PUSH1 0xF SLOAD GT ISZERO DUP1 ISZERO PUSH2 0x3F7 JUMPI POP PUSH1 0x1E PUSH1 0xD SLOAD PUSH2 0x3F3 SWAP2 SWAP1 PUSH2 0xB5C JUMP JUMPDEST TIMESTAMP LT ISZERO JUMPDEST PUSH2 0x436 JUMPI PUSH1 0x40 MLOAD PUSH32 0x8C379A000000000000000000000000000000000000000000000000000000000 DUP2 MSTORE PUSH1 0x4 ADD PUSH2 0x42D SWAP1 PUSH2 0xC24 JUMP JUMPDEST PUSH1 0x40 MLOAD DUP1 SWAP2 SUB SWAP1 REVERT JUMPDEST PUSH1 0x1E PUSH1 0xD SLOAD PUSH2 0x445 SWAP2 SWAP1 PUSH2 0xB5C JUMP JUMPDEST PUSH1 0xD SLOAD GT PUSH2 0x488 JUMPI PUSH1 0x40 MLOAD PUSH32 0x8C379A000000000000000000000000000000000000000000000000000000000 DUP2 MSTORE PUSH1 0x4 ADD PUSH2 0x47F SWAP1 PUSH2 0xC90 JUMP JUMPDEST PUSH1 0x40 MLOAD DUP1 SWAP2 SUB SWAP1 REVERT JUMPDEST DUP2 PUSH1 0x2 PUSH1 0x0 PUSH2 0x100 EXP DUP2 SLOAD DUP2 PUSH20 0xFFFFFFFFFFFFFFFFFFFFFFFFFFFFFFFFFFFFFFFF MUL NOT AND SWAP1 DUP4 PUSH20 0xFFFFFFFFFFFFFFFFFFFFFFFFFFFFFFFFFFFFFFFF AND MUL OR SWAP1 SSTORE POP DUP3 PUSH1 0x0 DUP2 SWAP1 SSTORE POP PUSH1 0x1 PUSH1 0xF PUSH1 0x0 DUP3 DUP3 SLOAD PUSH2 0x4E3 SWAP2 SWAP1 PUSH2 0xB5C JUMP JUMPDEST SWAP3 POP POP DUP2 SWAP1 SSTORE POP PUSH1 0x0 PUSH1 0x1 SLOAD GT DUP1 ISZERO PUSH2 0x4FF JUMPI POP PUSH1 0x0 SLOAD PUSH1 0x1 SLOAD GT JUMPDEST ISZERO PUSH2 0x580 JUMPI PUSH1 0x0 SLOAD PUSH1 0x1 PUSH1 0x0 DUP3 DUP3 SLOAD PUSH2 0x518 SWAP2 SWAP1 PUSH2 0xCB0 JUMP JUMPDEST SWAP3 POP POP DUP2 SWAP1 SSTORE POP PUSH1 0x0 SLOAD PUSH1 0xC PUSH1 0x0 DUP3 DUP3 SLOAD PUSH2 0x533 SWAP2 SWAP1 PUSH2 0xB5C JUMP JUMPDEST SWAP3 POP POP DUP2 SWAP1 SSTORE POP PUSH1 0x40 MLOAD DUP1 PUSH1 0x40 ADD PUSH1 0x40 MSTORE DUP1 PUSH1 0x12 DUP2 MSTORE PUSH1 0x20 ADD PUSH32 0x5472616E7366657220636F6D706C657465640000000000000000000000000000 DUP2 MSTORE POP PUSH1 0x9 SWAP1 DUP2 PUSH2 0x57E SWAP2 SWAP1 PUSH2 0xEBF JUMP JUMPDEST POP JUMPDEST POP POP POP JUMP JUMPDEST PUSH1 0xD SLOAD DUP2 JUMP JUMPDEST PUSH1 0xE SLOAD DUP2 JUMP JUMPDEST PUSH1 0xB DUP1 SLOAD PUSH2 0x59E SWAP1 PUSH2 0x9B8 JUMP JUMPDEST DUP1 PUSH1 0x1F ADD PUSH1 0x20 DUP1 SWAP2 DIV MUL PUSH1 0x20 ADD PUSH1 0x40 MLOAD SWAP1 DUP2 ADD PUSH1 0x40 MSTORE DUP1 SWAP3 SWAP2 SWAP1 DUP2 DUP2 MSTORE PUSH1 0x20 ADD DUP3 DUP1 SLOAD PUSH2 0x5CA SWAP1 PUSH2 0x9B8 JUMP JUMPDEST DUP1 ISZERO PUSH2 0x617 JUMPI DUP1 PUSH1 0x1F LT PUSH2 0x5EC JUMPI PUSH2 0x100 DUP1 DUP4 SLOAD DIV MUL DUP4 MSTORE SWAP2 PUSH1 0x20 ADD SWAP2 PUSH2 0x617 JUMP JUMPDEST DUP3 ADD SWAP2 SWAP1 PUSH1 0x0 MSTORE PUSH1 0x20 PUSH1 0x0 KECCAK256 SWAP1 JUMPDEST DUP2 SLOAD DUP2 MSTORE SWAP1 PUSH1 0x1 ADD SWAP1 PUSH1 0x20 ADD DUP1 DUP4 GT PUSH2 0x5FA JUMPI DUP3 SWAP1 SUB PUSH1 0x1F AND DUP3 ADD SWAP2 JUMPDEST POP POP POP POP POP DUP2 JUMP JUMPDEST PUSH1 0xF SLOAD DUP2 JUMP JUMPDEST PUSH1 0x1 SLOAD DUP2 JUMP JUMPDEST PUSH1 0xC SLOAD DUP2 JUMP JUMPDEST PUSH1 0xA DUP1 SLOAD PUSH2 0x63E SWAP1 PUSH2 0x9B8 JUMP JUMPDEST DUP1 PUSH1 0x1F ADD PUSH1 0x20 DUP1 SWAP2 DIV MUL PUSH1 0x20 ADD PUSH1 0x40 MLOAD SWAP1 DUP2 ADD PUSH1 0x40 MSTORE DUP1 SWAP3 SWAP2 SWAP1 DUP2 DUP2 MSTORE PUSH1 0x20 ADD DUP3 DUP1 SLOAD PUSH2 0x66A SWAP1 PUSH2 0x9B8 JUMP JUMPDEST DUP1 ISZERO PUSH2 0x6B7 JUMPI DUP1 PUSH1 0x1F LT PUSH2 0x68C JUMPI PUSH2 0x100 DUP1 DUP4 SLOAD DIV MUL DUP4 MSTORE SWAP2 PUSH1 0x20 ADD SWAP2 PUSH2 0x6B7 JUMP JUMPDEST DUP3 ADD SWAP2 SWAP1 PUSH1 0x0 MSTORE PUSH1 0x20 PUSH1 0x0 KECCAK256 SWAP1 JUMPDEST DUP2 SLOAD DUP2 MSTORE SWAP1 PUSH1 0x1 ADD SWAP1 PUSH1 0x20 ADD DUP1 DUP4 GT PUSH2 0x69A JUMPI DUP3 SWAP1 SUB PUSH1 0x1F AND DUP3 ADD SWAP2 JUMPDEST POP POP POP POP POP DUP2 JUMP JUMPDEST PUSH1 0x4 SLOAD DUP2 JUMP JUMPDEST PUSH1 0x0 SLOAD DUP2 JUMP JUMPDEST PUSH1 0x8 SLOAD DUP2 JUMP JUMPDEST PUSH1 0x9 DUP1 SLOAD PUSH2 0x6DE SWAP1 PUSH2 0x9B8 JUMP JUMPDEST DUP1 PUSH1 0x1F ADD PUSH1 0x20 DUP1 SWAP2 DIV MUL PUSH1 0x20 ADD PUSH1 0x40 MLOAD SWAP1 DUP2 ADD PUSH1 0x40 MSTORE DUP1 SWAP3 SWAP2 SWAP1 DUP2 DUP2 MSTORE PUSH1 0x20 ADD DUP3 DUP1 SLOAD PUSH2 0x70A SWAP1 PUSH2 0x9B8 JUMP JUMPDEST DUP1 ISZERO PUSH2 0x757 JUMPI DUP1 PUSH1 0x1F LT PUSH2 0x72C JUMPI PUSH2 0x100 DUP1 DUP4 SLOAD DIV MUL DUP4 MSTORE SWAP2 PUSH1 0x20 ADD SWAP2 PUSH2 0x757 JUMP JUMPDEST DUP3 ADD SWAP2 SWAP1 PUSH1 0x0 MSTORE PUSH1 0x20 PUSH1 0x0 KECCAK256 SWAP1 JUMPDEST DUP2 SLOAD DUP2 MSTORE SWAP1 PUSH1 0x1 ADD SWAP1 PUSH1 0x20 ADD DUP1 DUP4 GT PUSH2 0x73A JUMPI DUP3 SWAP1 SUB PUSH1 0x1F AND DUP3 ADD SWAP2 JUMPDEST POP POP POP POP POP DUP2 JUMP JUMPDEST PUSH1 0x0 DUP1 REVERT JUMPDEST PUSH1 0x0 DUP2 SWAP1 POP SWAP2 SWAP1 POP JUMP JUMPDEST PUSH2 0x777 DUP2 PUSH2 0x764 JUMP JUMPDEST DUP2 EQ PUSH2 0x782 JUMPI PUSH1 0x0 DUP1 REVERT JUMPDEST POP JUMP JUMPDEST PUSH1 0x0 DUP2 CALLDATALOAD SWAP1 POP PUSH2 0x794 DUP2 PUSH2 0x76E JUMP JUMPDEST SWAP3 SWAP2 POP POP JUMP JUMPDEST PUSH1 0x0 PUSH20 0xFFFFFFFFFFFFFFFFFFFFFFFFFFFFFFFFFFFFFFFF DUP3 AND SWAP1 POP SWAP2 SWAP1 POP JUMP JUMPDEST PUSH1 0x0 PUSH2 0x7C5 DUP3 PUSH2 0x79A JUMP JUMPDEST SWAP1 POP SWAP2 SWAP1 POP JUMP JUMPDEST PUSH2 0x7D5 DUP2 PUSH2 0x7BA JUMP JUMPDEST DUP2 EQ PUSH2 0x7E0 JUMPI PUSH1 0x0 DUP1 REVERT JUMPDEST POP JUMP JUMPDEST PUSH1 0x0 DUP2 CALLDATALOAD SWAP1 POP PUSH2 0x7F2 DUP2 PUSH2 0x7CC JUMP JUMPDEST SWAP3 SWAP2 POP POP JUMP JUMPDEST PUSH1 0x0 DUP1 PUSH1 0x40 DUP4 DUP6 SUB SLT ISZERO PUSH2 0x80F JUMPI PUSH2 0x80E PUSH2 0x75F JUMP JUMPDEST JUMPDEST PUSH1 0x0 PUSH2 0x81D DUP6 DUP3 DUP7 ADD PUSH2 0x785 JUMP JUMPDEST SWAP3 POP POP PUSH1 0x20 PUSH2 0x82E DUP6 DUP3 DUP7 ADD PUSH2 0x7E3 JUMP JUMPDEST SWAP2 POP POP SWAP3 POP SWAP3 SWAP1 POP JUMP JUMPDEST PUSH2 0x841 DUP2 PUSH2 0x764 JUMP JUMPDEST DUP3 MSTORE POP POP JUMP JUMPDEST PUSH1 0x0 PUSH1 0x20 DUP3 ADD SWAP1 POP PUSH2 0x85C PUSH1 0x0 DUP4 ADD DUP5 PUSH2 0x838 JUMP JUMPDEST SWAP3 SWAP2 POP POP JUMP JUMPDEST PUSH1 0x0 DUP2 MLOAD SWAP1 POP SWAP2 SWAP1 POP JUMP JUMPDEST PUSH1 0x0 DUP3 DUP3 MSTORE PUSH1 0x20 DUP3 ADD SWAP1 POP SWAP3 SWAP2 POP POP JUMP JUMPDEST PUSH1 0x0 JUMPDEST DUP4 DUP2 LT ISZERO PUSH2 0x89C JUMPI DUP1 DUP3 ADD MLOAD DUP2 DUP5 ADD MSTORE PUSH1 0x20 DUP2 ADD SWAP1 POP PUSH2 0x881 JUMP JUMPDEST DUP4 DUP2 GT ISZERO PUSH2 0x8AB JUMPI PUSH1 0x0 DUP5 DUP5 ADD MSTORE JUMPDEST POP POP POP POP JUMP JUMPDEST PUSH1 0x0 PUSH1 0x1F NOT PUSH1 0x1F DUP4 ADD AND SWAP1 POP SWAP2 SWAP1 POP JUMP JUMPDEST PUSH1 0x0 PUSH2 0x8CD DUP3 PUSH2 0x862 JUMP JUMPDEST PUSH2 0x8D7 DUP2 DUP6 PUSH2 0x86D JUMP JUMPDEST SWAP4 POP PUSH2 0x8E7 DUP2 DUP6 PUSH1 0x20 DUP7 ADD PUSH2 0x87E JUMP JUMPDEST PUSH2 0x8F0 DUP2 PUSH2 0x8B1 JUMP JUMPDEST DUP5 ADD SWAP2 POP POP SWAP3 SWAP2 POP POP JUMP JUMPDEST PUSH1 0x0 PUSH1 0x20 DUP3 ADD SWAP1 POP DUP2 DUP2 SUB PUSH1 0x0 DUP4 ADD MSTORE PUSH2 0x915 DUP2 DUP5 PUSH2 0x8C2 JUMP JUMPDEST SWAP1 POP SWAP3 SWAP2 POP POP JUMP JUMPDEST PUSH32 0x2054686973206164647265737320646F65736E27742065786973747300000000 PUSH1 0x0 DUP3 ADD MSTORE POP JUMP JUMPDEST PUSH1 0x0 PUSH2 0x953 PUSH1 0x1C DUP4 PUSH2 0x86D JUMP JUMPDEST SWAP2 POP PUSH2 0x95E DUP3 PUSH2 0x91D JUMP JUMPDEST PUSH1 0x20 DUP3 ADD SWAP1 POP SWAP2 SWAP1 POP JUMP JUMPDEST PUSH1 0x0 PUSH1 0x20 DUP3 ADD SWAP1 POP DUP2 DUP2 SUB PUSH1 0x0 DUP4 ADD MSTORE PUSH2 0x982 DUP2 PUSH2 0x946 JUMP JUMPDEST SWAP1 POP SWAP2 SWAP1 POP JUMP JUMPDEST PUSH32 0x4E487B7100000000000000000000000000000000000000000000000000000000 PUSH1 0x0 MSTORE PUSH1 0x22 PUSH1 0x4 MSTORE PUSH1 0x24 PUSH1 0x0 REVERT JUMPDEST PUSH1 0x0 PUSH1 0x2 DUP3 DIV SWAP1 POP PUSH1 0x1 DUP3 AND DUP1 PUSH2 0x9D0 JUMPI PUSH1 0x7F DUP3 AND SWAP2 POP JUMPDEST PUSH1 0x20 DUP3 LT DUP2 SUB PUSH2 0x9E3 JUMPI PUSH2 0x9E2 PUSH2 0x989 JUMP JUMPDEST JUMPDEST POP SWAP2 SWAP1 POP JUMP JUMPDEST PUSH32 0x4E6F2076616C6964206372656469742063617264000000000000000000000000 PUSH1 0x0 DUP3 ADD MSTORE POP JUMP JUMPDEST PUSH1 0x0 PUSH2 0xA1F PUSH1 0x14 DUP4 PUSH2 0x86D JUMP JUMPDEST SWAP2 POP PUSH2 0xA2A DUP3 PUSH2 0x9E9 JUMP JUMPDEST PUSH1 0x20 DUP3 ADD SWAP1 POP SWAP2 SWAP1 POP JUMP JUMPDEST PUSH1 0x0 PUSH1 0x20 DUP3 ADD SWAP1 POP DUP2 DUP2 SUB PUSH1 0x0 DUP4 ADD MSTORE PUSH2 0xA4E DUP2 PUSH2 0xA12 JUMP JUMPDEST SWAP1 POP SWAP2 SWAP1 POP JUMP JUMPDEST PUSH32 0x4E6F7420656E6F7567682066756E647300000000000000000000000000000000 PUSH1 0x0 DUP3 ADD MSTORE POP JUMP JUMPDEST PUSH1 0x0 PUSH2 0xA8B PUSH1 0x10 DUP4 PUSH2 0x86D JUMP JUMPDEST SWAP2 POP PUSH2 0xA96 DUP3 PUSH2 0xA55 JUMP JUMPDEST PUSH1 0x20 DUP3 ADD SWAP1 POP SWAP2 SWAP1 POP JUMP JUMPDEST PUSH1 0x0 PUSH1 0x20 DUP3 ADD SWAP1 POP DUP2 DUP2 SUB PUSH1 0x0 DUP4 ADD MSTORE PUSH2 0xABA DUP2 PUSH2 0xA7E JUMP JUMPDEST SWAP1 POP SWAP2 SWAP1 POP JUMP JUMPDEST PUSH32 0x596F75207265616368656420746865206C696D69740000000000000000000000 PUSH1 0x0 DUP3 ADD MSTORE POP JUMP JUMPDEST PUSH1 0x0 PUSH2 0xAF7 PUSH1 0x15 DUP4 PUSH2 0x86D JUMP JUMPDEST SWAP2 POP PUSH2 0xB02 DUP3 PUSH2 0xAC1 JUMP JUMPDEST PUSH1 0x20 DUP3 ADD SWAP1 POP SWAP2 SWAP1 POP JUMP JUMPDEST PUSH1 0x0 PUSH1 0x20 DUP3 ADD SWAP1 POP DUP2 DUP2 SUB PUSH1 0x0 DUP4 ADD MSTORE PUSH2 0xB26 DUP2 PUSH2 0xAEA JUMP JUMPDEST SWAP1 POP SWAP2 SWAP1 POP JUMP JUMPDEST PUSH32 0x4E487B7100000000000000000000000000000000000000000000000000000000 PUSH1 0x0 MSTORE PUSH1 0x11 PUSH1 0x4 MSTORE PUSH1 0x24 PUSH1 0x0 REVERT JUMPDEST PUSH1 0x0 PUSH2 0xB67 DUP3 PUSH2 0x764 JUMP JUMPDEST SWAP2 POP PUSH2 0xB72 DUP4 PUSH2 0x764 JUMP JUMPDEST SWAP3 POP DUP3 PUSH32 0xFFFFFFFFFFFFFFFFFFFFFFFFFFFFFFFFFFFFFFFFFFFFFFFFFFFFFFFFFFFFFFFF SUB DUP3 GT ISZERO PUSH2 0xBA7 JUMPI PUSH2 0xBA6 PUSH2 0xB2D JUMP JUMPDEST JUMPDEST DUP3 DUP3 ADD SWAP1 POP SWAP3 SWAP2 POP POP JUMP JUMPDEST PUSH32 0x796F752063616E6E6F74206D616B65206D6F7265207468616E2035207472616E PUSH1 0x0 DUP3 ADD MSTORE PUSH32 0x73616374696F6E73207065722064617900000000000000000000000000000000 PUSH1 0x20 DUP3 ADD MSTORE POP JUMP JUMPDEST PUSH1 0x0 PUSH2 0xC0E PUSH1 0x30 DUP4 PUSH2 0x86D JUMP JUMPDEST SWAP2 POP PUSH2 0xC19 DUP3 PUSH2 0xBB2 JUMP JUMPDEST PUSH1 0x40 DUP3 ADD SWAP1 POP SWAP2 SWAP1 POP JUMP JUMPDEST PUSH1 0x0 PUSH1 0x20 DUP3 ADD SWAP1 POP DUP2 DUP2 SUB PUSH1 0x0 DUP4 ADD MSTORE PUSH2 0xC3D DUP2 PUSH2 0xC01 JUMP JUMPDEST SWAP1 POP SWAP2 SWAP1 POP JUMP JUMPDEST PUSH32 0x54696D6520706173736564000000000000000000000000000000000000000000 PUSH1 0x0 DUP3 ADD MSTORE POP JUMP JUMPDEST PUSH1 0x0 PUSH2 0xC7A PUSH1 0xB DUP4 PUSH2 0x86D JUMP JUMPDEST SWAP2 POP PUSH2 0xC85 DUP3 PUSH2 0xC44 JUMP JUMPDEST PUSH1 0x20 DUP3 ADD SWAP1 POP SWAP2 SWAP1 POP JUMP JUMPDEST PUSH1 0x0 PUSH1 0x20 DUP3 ADD SWAP1 POP DUP2 DUP2 SUB PUSH1 0x0 DUP4 ADD MSTORE PUSH2 0xCA9 DUP2 PUSH2 0xC6D JUMP JUMPDEST SWAP1 POP SWAP2 SWAP1 POP JUMP JUMPDEST PUSH1 0x0 PUSH2 0xCBB DUP3 PUSH2 0x764 JUMP JUMPDEST SWAP2 POP PUSH2 0xCC6 DUP4 PUSH2 0x764 JUMP JUMPDEST SWAP3 POP DUP3 DUP3 LT ISZERO PUSH2 0xCD9 JUMPI PUSH2 0xCD8 PUSH2 0xB2D JUMP JUMPDEST JUMPDEST DUP3 DUP3 SUB SWAP1 POP SWAP3 SWAP2 POP POP JUMP JUMPDEST PUSH32 0x4E487B7100000000000000000000000000000000000000000000000000000000 PUSH1 0x0 MSTORE PUSH1 0x41 PUSH1 0x4 MSTORE PUSH1 0x24 PUSH1 0x0 REVERT JUMPDEST PUSH1 0x0 DUP2 SWAP1 POP DUP2 PUSH1 0x0 MSTORE PUSH1 0x20 PUSH1 0x0 KECCAK256 SWAP1 POP SWAP2 SWAP1 POP JUMP JUMPDEST PUSH1 0x0 PUSH1 0x20 PUSH1 0x1F DUP4 ADD DIV SWAP1 POP SWAP2 SWAP1 POP JUMP JUMPDEST PUSH1 0x0 DUP3 DUP3 SHL SWAP1 POP SWAP3 SWAP2 POP POP JUMP JUMPDEST PUSH1 0x0 PUSH1 0x8 DUP4 MUL PUSH2 0xD75 PUSH32 0xFFFFFFFFFFFFFFFFFFFFFFFFFFFFFFFFFFFFFFFFFFFFFFFFFFFFFFFFFFFFFFFF DUP3 PUSH2 0xD38 JUMP JUMPDEST PUSH2 0xD7F DUP7 DUP4 PUSH2 0xD38 JUMP JUMPDEST SWAP6 POP DUP1 NOT DUP5 AND SWAP4 POP DUP1 DUP7 AND DUP5 OR SWAP3 POP POP POP SWAP4 SWAP3 POP POP POP JUMP JUMPDEST PUSH1 0x0 DUP2 SWAP1 POP SWAP2 SWAP1 POP JUMP JUMPDEST PUSH1 0x0 PUSH2 0xDBC PUSH2 0xDB7 PUSH2 0xDB2 DUP5 PUSH2 0x764 JUMP JUMPDEST PUSH2 0xD97 JUMP JUMPDEST PUSH2 0x764 JUMP JUMPDEST SWAP1 POP SWAP2 SWAP1 POP JUMP JUMPDEST PUSH1 0x0 DUP2 SWAP1 POP SWAP2 SWAP1 POP JUMP JUMPDEST PUSH2 0xDD6 DUP4 PUSH2 0xDA1 JUMP JUMPDEST PUSH2 0xDEA PUSH2 0xDE2 DUP3 PUSH2 0xDC3 JUMP JUMPDEST DUP5 DUP5 SLOAD PUSH2 0xD45 JUMP JUMPDEST DUP3 SSTORE POP POP POP POP JUMP JUMPDEST PUSH1 0x0 SWAP1 JUMP JUMPDEST PUSH2 0xDFF PUSH2 0xDF2 JUMP JUMPDEST PUSH2 0xE0A DUP2 DUP5 DUP5 PUSH2 0xDCD JUMP JUMPDEST POP POP POP JUMP JUMPDEST JUMPDEST DUP2 DUP2 LT ISZERO PUSH2 0xE2E JUMPI PUSH2 0xE23 PUSH1 0x0 DUP3 PUSH2 0xDF7 JUMP JUMPDEST PUSH1 0x1 DUP2 ADD SWAP1 POP PUSH2 0xE10 JUMP JUMPDEST POP POP JUMP JUMPDEST PUSH1 0x1F DUP3 GT ISZERO PUSH2 0xE73 JUMPI PUSH2 0xE44 DUP2 PUSH2 0xD13 JUMP JUMPDEST PUSH2 0xE4D DUP5 PUSH2 0xD28 JUMP JUMPDEST DUP2 ADD PUSH1 0x20 DUP6 LT ISZERO PUSH2 0xE5C JUMPI DUP2 SWAP1 POP JUMPDEST PUSH2 0xE70 PUSH2 0xE68 DUP6 PUSH2 0xD28 JUMP JUMPDEST DUP4 ADD DUP3 PUSH2 0xE0F JUMP JUMPDEST POP POP JUMPDEST POP POP POP JUMP JUMPDEST PUSH1 0x0 DUP3 DUP3 SHR SWAP1 POP SWAP3 SWAP2 POP POP JUMP JUMPDEST PUSH1 0x0 PUSH2 0xE96 PUSH1 0x0 NOT DUP5 PUSH1 0x8 MUL PUSH2 0xE78 JUMP JUMPDEST NOT DUP1 DUP4 AND SWAP2 POP POP SWAP3 SWAP2 POP POP JUMP JUMPDEST PUSH1 0x0 PUSH2 0xEAF DUP4 DUP4 PUSH2 0xE85 JUMP JUMPDEST SWAP2 POP DUP3 PUSH1 0x2 MUL DUP3 OR SWAP1 POP SWAP3 SWAP2 POP POP JUMP JUMPDEST PUSH2 0xEC8 DUP3 PUSH2 0x862 JUMP JUMPDEST PUSH8 0xFFFFFFFFFFFFFFFF DUP2 GT ISZERO PUSH2 0xEE1 JUMPI PUSH2 0xEE0 PUSH2 0xCE4 JUMP JUMPDEST JUMPDEST PUSH2 0xEEB DUP3 SLOAD PUSH2 0x9B8 JUMP JUMPDEST PUSH2 0xEF6 DUP3 DUP3 DUP6 PUSH2 0xE32 JUMP JUMPDEST PUSH1 0x0 PUSH1 0x20 SWAP1 POP PUSH1 0x1F DUP4 GT PUSH1 0x1 DUP2 EQ PUSH2 0xF29 JUMPI PUSH1 0x0 DUP5 ISZERO PUSH2 0xF17 JUMPI DUP3 DUP8 ADD MLOAD SWAP1 POP JUMPDEST PUSH2 0xF21 DUP6 DUP3 PUSH2 0xEA3 JUMP JUMPDEST DUP7 SSTORE POP PUSH2 0xF89 JUMP JUMPDEST PUSH1 0x1F NOT DUP5 AND PUSH2 0xF37 DUP7 PUSH2 0xD13 JUMP JUMPDEST PUSH1 0x0 JUMPDEST DUP3 DUP2 LT ISZERO PUSH2 0xF5F JUMPI DUP5 DUP10 ADD MLOAD DUP3 SSTORE PUSH1 0x1 DUP3 ADD SWAP2 POP PUSH1 0x20 DUP6 ADD SWAP5 POP PUSH1 0x20 DUP2 ADD SWAP1 POP PUSH2 0xF3A JUMP JUMPDEST DUP7 DUP4 LT ISZERO PUSH2 0xF7C JUMPI DUP5 DUP10 ADD MLOAD PUSH2 0xF78 PUSH1 0x1F DUP10 AND DUP3 PUSH2 0xE85 JUMP JUMPDEST DUP4 SSTORE POP JUMPDEST PUSH1 0x1 PUSH1 0x2 DUP9 MUL ADD DUP9 SSTORE POP POP POP JUMPDEST POP POP POP POP POP POP JUMP INVALID LOG2 PUSH5 0x6970667358 0x22 SLT KECCAK256 0xED GASPRICE SWAP4 0xC3 0x25 0xEF 0xC9 SELFBALANCE JUMPDEST 0xF6 LOG0 PUSH4 0x6D483588 CALLVALUE SWAP13 INVALID DUP4 PUSH12 0x5038840D1EB306ADEF36EB64 PUSH20 0x6F6C634300080F00330000000000000000000000 "
				},
				"gasEstimates": {
					"creation": {
						"codeDepositCost": "807800",
						"executionCost": "infinite",
						"totalCost": "infinite"
					},
					"external": {
						"TotalAmount()": "2429",
						"TotalFunds()": "2540",
						"amount()": "2495",
						"callCount()": "2518",
						"cardNumber()": "infinite",
						"countTransfer()": "2474",
						"cvv()": "infinite",
						"firstTransferTime()": "2452",
						"message()": "infinite",
						"receiverFunds()": "2517",
						"sendMoney(uint256,address)": "infinite",
						"totalWeekTransactions()": "2473"
					}
				},
				"methodIdentifiers": {
					"TotalAmount()": "7eb9f571",
					"TotalFunds()": "7b9a3f4c",
					"amount()": "aa8c217c",
					"callCount()": "4b28f9a2",
					"cardNumber()": "8fa11864",
					"countTransfer()": "34f5ccde",
					"cvv()": "42fb7936",
					"firstTransferTime()": "0e85fa72",
					"message()": "e21f37ce",
					"receiverFunds()": "bc309496",
					"sendMoney(uint256,address)": "062a7544",
					"totalWeekTransactions()": "94b5dcaa"
				}
			},
			"storageLayout": {
				"storage": [
					{
						"astId": 3,
						"contract": "Dapp/MoneyTransfer.sol:MoneyTransfer",
						"label": "amount",
						"offset": 0,
						"slot": "0",
						"type": "t_uint256"
					},
					{
						"astId": 5,
						"contract": "Dapp/MoneyTransfer.sol:MoneyTransfer",
						"label": "TotalFunds",
						"offset": 0,
						"slot": "1",
						"type": "t_uint256"
					},
					{
						"astId": 7,
						"contract": "Dapp/MoneyTransfer.sol:MoneyTransfer",
						"label": "receiver",
						"offset": 0,
						"slot": "2",
						"type": "t_address"
					},
					{
						"astId": 13,
						"contract": "Dapp/MoneyTransfer.sol:MoneyTransfer",
						"label": "day",
						"offset": 0,
						"slot": "3",
						"type": "t_uint256"
					},
					{
						"astId": 15,
						"contract": "Dapp/MoneyTransfer.sol:MoneyTransfer",
						"label": "totalWeekTransactions",
						"offset": 0,
						"slot": "4",
						"type": "t_uint256"
					},
					{
						"astId": 17,
						"contract": "Dapp/MoneyTransfer.sol:MoneyTransfer",
						"label": "maxTransaction",
						"offset": 0,
						"slot": "5",
						"type": "t_uint256"
					},
					{
						"astId": 19,
						"contract": "Dapp/MoneyTransfer.sol:MoneyTransfer",
						"label": "minTransaction",
						"offset": 0,
						"slot": "6",
						"type": "t_uint256"
					},
					{
						"astId": 22,
						"contract": "Dapp/MoneyTransfer.sol:MoneyTransfer",
						"label": "countries",
						"offset": 0,
						"slot": "7",
						"type": "t_array(t_uint256)dyn_storage"
					},
					{
						"astId": 24,
						"contract": "Dapp/MoneyTransfer.sol:MoneyTransfer",
						"label": "receiverFunds",
						"offset": 0,
						"slot": "8",
						"type": "t_uint256"
					},
					{
						"astId": 26,
						"contract": "Dapp/MoneyTransfer.sol:MoneyTransfer",
						"label": "message",
						"offset": 0,
						"slot": "9",
						"type": "t_string_storage"
					},
					{
						"astId": 28,
						"contract": "Dapp/MoneyTransfer.sol:MoneyTransfer",
						"label": "cardNumber",
						"offset": 0,
						"slot": "10",
						"type": "t_string_storage"
					},
					{
						"astId": 30,
						"contract": "Dapp/MoneyTransfer.sol:MoneyTransfer",
						"label": "cvv",
						"offset": 0,
						"slot": "11",
						"type": "t_string_storage"
					},
					{
						"astId": 32,
						"contract": "Dapp/MoneyTransfer.sol:MoneyTransfer",
						"label": "TotalAmount",
						"offset": 0,
						"slot": "12",
						"type": "t_uint256"
					},
					{
						"astId": 34,
						"contract": "Dapp/MoneyTransfer.sol:MoneyTransfer",
						"label": "firstTransferTime",
						"offset": 0,
						"slot": "13",
						"type": "t_uint256"
					},
					{
						"astId": 36,
						"contract": "Dapp/MoneyTransfer.sol:MoneyTransfer",
						"label": "countTransfer",
						"offset": 0,
						"slot": "14",
						"type": "t_uint256"
					},
					{
						"astId": 61,
						"contract": "Dapp/MoneyTransfer.sol:MoneyTransfer",
						"label": "callCount",
						"offset": 0,
						"slot": "15",
						"type": "t_uint256"
					}
				],
				"types": {
					"t_address": {
						"encoding": "inplace",
						"label": "address",
						"numberOfBytes": "20"
					},
					"t_array(t_uint256)dyn_storage": {
						"base": "t_uint256",
						"encoding": "dynamic_array",
						"label": "uint256[]",
						"numberOfBytes": "32"
					},
					"t_string_storage": {
						"encoding": "bytes",
						"label": "string",
						"numberOfBytes": "32"
					},
					"t_uint256": {
						"encoding": "inplace",
						"label": "uint256",
						"numberOfBytes": "32"
					}
				}
			},
			"userdoc": {
				"kind": "user",
				"methods": {},
				"version": 1
			}
		}
	}
}