{
	"Dapp/Transaction.sol": {
		"Transaction": {
			"abi": [
				{
					"inputs": [],
					"name": "getTransaction",
					"outputs": [
						{
							"components": [
								{
									"internalType": "address",
									"name": "address_from",
									"type": "address"
								},
								{
									"internalType": "address",
									"name": "address_to",
									"type": "address"
								},
								{
									"internalType": "uint256",
									"name": "amount",
									"type": "uint256"
								},
								{
									"internalType": "uint256",
									"name": "timestamp",
									"type": "uint256"
								}
							],
							"internalType": "struct Transaction.Transactions[]",
							"name": "",
							"type": "tuple[]"
						}
					],
					"stateMutability": "view",
					"type": "function"
				},
				{
					"inputs": [
						{
							"internalType": "uint256",
							"name": "",
							"type": "uint256"
						}
					],
					"name": "transactionList",
					"outputs": [
						{
							"internalType": "address",
							"name": "address_from",
							"type": "address"
						},
						{
							"internalType": "address",
							"name": "address_to",
							"type": "address"
						},
						{
							"internalType": "uint256",
							"name": "amount",
							"type": "uint256"
						},
						{
							"internalType": "uint256",
							"name": "timestamp",
							"type": "uint256"
						}
					],
					"stateMutability": "view",
					"type": "function"
				}
			],
			"devdoc": {
				"kind": "dev",
				"methods": {},
				"version": 1
			},
			"evm": {
				"assembly": "    /* \"Dapp/Transaction.sol\":69:694  contract Transaction{... */\n  mstore(0x40, 0x80)\n  callvalue\n  dup1\n  iszero\n  tag_1\n  jumpi\n  0x00\n  dup1\n  revert\ntag_1:\n  pop\n  dataSize(sub_0)\n  dup1\n  dataOffset(sub_0)\n  0x00\n  codecopy\n  0x00\n  return\nstop\n\nsub_0: assembly {\n        /* \"Dapp/Transaction.sol\":69:694  contract Transaction{... */\n      mstore(0x40, 0x80)\n      callvalue\n      dup1\n      iszero\n      tag_1\n      jumpi\n      0x00\n      dup1\n      revert\n    tag_1:\n      pop\n      jumpi(tag_2, lt(calldatasize, 0x04))\n      shr(0xe0, calldataload(0x00))\n      dup1\n      0x04ef5b21\n      eq\n      tag_3\n      jumpi\n      dup1\n      0x59705f81\n      eq\n      tag_4\n      jumpi\n    tag_2:\n      0x00\n      dup1\n      revert\n        /* \"Dapp/Transaction.sol\":243:280  Transactions[] public transactionList */\n    tag_3:\n      tag_5\n      0x04\n      dup1\n      calldatasize\n      sub\n      dup2\n      add\n      swap1\n      tag_6\n      swap2\n      swap1\n      tag_7\n      jump\t// in\n    tag_6:\n      tag_8\n      jump\t// in\n    tag_5:\n      mload(0x40)\n      tag_9\n      swap5\n      swap4\n      swap3\n      swap2\n      swap1\n      tag_10\n      jump\t// in\n    tag_9:\n      mload(0x40)\n      dup1\n      swap2\n      sub\n      swap1\n      return\n        /* \"Dapp/Transaction.sol\":577:687  function getTransaction() public view returns(Transactions[] memory){... */\n    tag_4:\n      tag_11\n      tag_12\n      jump\t// in\n    tag_11:\n      mload(0x40)\n      tag_13\n      swap2\n      swap1\n      tag_14\n      jump\t// in\n    tag_13:\n      mload(0x40)\n      dup1\n      swap2\n      sub\n      swap1\n      return\n        /* \"Dapp/Transaction.sol\":243:280  Transactions[] public transactionList */\n    tag_8:\n      0x00\n      dup2\n      dup2\n      sload\n      dup2\n      lt\n      tag_15\n      jumpi\n      0x00\n      dup1\n      revert\n    tag_15:\n      swap1\n      0x00\n      mstore\n      keccak256(0x00, 0x20)\n      swap1\n      0x04\n      mul\n      add\n      0x00\n      swap2\n      pop\n      swap1\n      pop\n      dup1\n      0x00\n      add\n      0x00\n      swap1\n      sload\n      swap1\n      0x0100\n      exp\n      swap1\n      div\n      0xffffffffffffffffffffffffffffffffffffffff\n      and\n      swap1\n      dup1\n      0x01\n      add\n      0x00\n      swap1\n      sload\n      swap1\n      0x0100\n      exp\n      swap1\n      div\n      0xffffffffffffffffffffffffffffffffffffffff\n      and\n      swap1\n      dup1\n      0x02\n      add\n      sload\n      swap1\n      dup1\n      0x03\n      add\n      sload\n      swap1\n      pop\n      dup5\n      jump\t// out\n        /* \"Dapp/Transaction.sol\":577:687  function getTransaction() public view returns(Transactions[] memory){... */\n    tag_12:\n        /* \"Dapp/Transaction.sol\":623:644  Transactions[] memory */\n      0x60\n        /* \"Dapp/Transaction.sol\":664:679  transactionList */\n      0x00\n        /* \"Dapp/Transaction.sol\":657:679  return transactionList */\n      dup1\n      sload\n      dup1\n      0x20\n      mul\n      0x20\n      add\n      mload(0x40)\n      swap1\n      dup2\n      add\n      0x40\n      mstore\n      dup1\n      swap3\n      swap2\n      swap1\n      dup2\n      dup2\n      mstore\n      0x20\n      add\n      0x00\n      swap1\n    tag_18:\n      dup3\n      dup3\n      lt\n      iszero\n      tag_19\n      jumpi\n      dup4\n      dup3\n      swap1\n      0x00\n      mstore\n      keccak256(0x00, 0x20)\n      swap1\n      0x04\n      mul\n      add\n      mload(0x40)\n      dup1\n      0x80\n      add\n      0x40\n      mstore\n      swap1\n      dup2\n      0x00\n      dup3\n      add\n      0x00\n      swap1\n      sload\n      swap1\n      0x0100\n      exp\n      swap1\n      div\n      0xffffffffffffffffffffffffffffffffffffffff\n      and\n      0xffffffffffffffffffffffffffffffffffffffff\n      and\n      0xffffffffffffffffffffffffffffffffffffffff\n      and\n      dup2\n      mstore\n      0x20\n      add\n      0x01\n      dup3\n      add\n      0x00\n      swap1\n      sload\n      swap1\n      0x0100\n      exp\n      swap1\n      div\n      0xffffffffffffffffffffffffffffffffffffffff\n      and\n      0xffffffffffffffffffffffffffffffffffffffff\n      and\n      0xffffffffffffffffffffffffffffffffffffffff\n      and\n      dup2\n      mstore\n      0x20\n      add\n      0x02\n      dup3\n      add\n      sload\n      dup2\n      mstore\n      0x20\n      add\n      0x03\n      dup3\n      add\n      sload\n      dup2\n      mstore\n      pop\n      pop\n      dup2\n      mstore\n      0x20\n      add\n      swap1\n      0x01\n      add\n      swap1\n      jump(tag_18)\n    tag_19:\n      pop\n      pop\n      pop\n      pop\n      swap1\n      pop\n        /* \"Dapp/Transaction.sol\":577:687  function getTransaction() public view returns(Transactions[] memory){... */\n      swap1\n      jump\t// out\n        /* \"#utility.yul\":88:205   */\n    tag_22:\n        /* \"#utility.yul\":197:198   */\n      0x00\n        /* \"#utility.yul\":194:195   */\n      dup1\n        /* \"#utility.yul\":187:199   */\n      revert\n        /* \"#utility.yul\":334:411   */\n    tag_24:\n        /* \"#utility.yul\":371:378   */\n      0x00\n        /* \"#utility.yul\":400:405   */\n      dup2\n        /* \"#utility.yul\":389:405   */\n      swap1\n      pop\n        /* \"#utility.yul\":334:411   */\n      swap2\n      swap1\n      pop\n      jump\t// out\n        /* \"#utility.yul\":417:539   */\n    tag_25:\n        /* \"#utility.yul\":490:514   */\n      tag_46\n        /* \"#utility.yul\":508:513   */\n      dup2\n        /* \"#utility.yul\":490:514   */\n      tag_24\n      jump\t// in\n    tag_46:\n        /* \"#utility.yul\":483:488   */\n      dup2\n        /* \"#utility.yul\":480:515   */\n      eq\n        /* \"#utility.yul\":470:533   */\n      tag_47\n      jumpi\n        /* \"#utility.yul\":529:530   */\n      0x00\n        /* \"#utility.yul\":526:527   */\n      dup1\n        /* \"#utility.yul\":519:531   */\n      revert\n        /* \"#utility.yul\":470:533   */\n    tag_47:\n        /* \"#utility.yul\":417:539   */\n      pop\n      jump\t// out\n        /* \"#utility.yul\":545:684   */\n    tag_26:\n        /* \"#utility.yul\":591:596   */\n      0x00\n        /* \"#utility.yul\":629:635   */\n      dup2\n        /* \"#utility.yul\":616:636   */\n      calldataload\n        /* \"#utility.yul\":607:636   */\n      swap1\n      pop\n        /* \"#utility.yul\":645:678   */\n      tag_49\n        /* \"#utility.yul\":672:677   */\n      dup2\n        /* \"#utility.yul\":645:678   */\n      tag_25\n      jump\t// in\n    tag_49:\n        /* \"#utility.yul\":545:684   */\n      swap3\n      swap2\n      pop\n      pop\n      jump\t// out\n        /* \"#utility.yul\":690:1019   */\n    tag_7:\n        /* \"#utility.yul\":749:755   */\n      0x00\n        /* \"#utility.yul\":798:800   */\n      0x20\n        /* \"#utility.yul\":786:795   */\n      dup3\n        /* \"#utility.yul\":777:784   */\n      dup5\n        /* \"#utility.yul\":773:796   */\n      sub\n        /* \"#utility.yul\":769:801   */\n      slt\n        /* \"#utility.yul\":766:885   */\n      iszero\n      tag_51\n      jumpi\n        /* \"#utility.yul\":804:883   */\n      tag_52\n      tag_22\n      jump\t// in\n    tag_52:\n        /* \"#utility.yul\":766:885   */\n    tag_51:\n        /* \"#utility.yul\":924:925   */\n      0x00\n        /* \"#utility.yul\":949:1002   */\n      tag_53\n        /* \"#utility.yul\":994:1001   */\n      dup5\n        /* \"#utility.yul\":985:991   */\n      dup3\n        /* \"#utility.yul\":974:983   */\n      dup6\n        /* \"#utility.yul\":970:992   */\n      add\n        /* \"#utility.yul\":949:1002   */\n      tag_26\n      jump\t// in\n    tag_53:\n        /* \"#utility.yul\":939:1002   */\n      swap2\n      pop\n        /* \"#utility.yul\":895:1012   */\n      pop\n        /* \"#utility.yul\":690:1019   */\n      swap3\n      swap2\n      pop\n      pop\n      jump\t// out\n        /* \"#utility.yul\":1025:1151   */\n    tag_27:\n        /* \"#utility.yul\":1062:1069   */\n      0x00\n        /* \"#utility.yul\":1102:1144   */\n      0xffffffffffffffffffffffffffffffffffffffff\n        /* \"#utility.yul\":1095:1100   */\n      dup3\n        /* \"#utility.yul\":1091:1145   */\n      and\n        /* \"#utility.yul\":1080:1145   */\n      swap1\n      pop\n        /* \"#utility.yul\":1025:1151   */\n      swap2\n      swap1\n      pop\n      jump\t// out\n        /* \"#utility.yul\":1157:1253   */\n    tag_28:\n        /* \"#utility.yul\":1194:1201   */\n      0x00\n        /* \"#utility.yul\":1223:1247   */\n      tag_56\n        /* \"#utility.yul\":1241:1246   */\n      dup3\n        /* \"#utility.yul\":1223:1247   */\n      tag_27\n      jump\t// in\n    tag_56:\n        /* \"#utility.yul\":1212:1247   */\n      swap1\n      pop\n        /* \"#utility.yul\":1157:1253   */\n      swap2\n      swap1\n      pop\n      jump\t// out\n        /* \"#utility.yul\":1259:1377   */\n    tag_29:\n        /* \"#utility.yul\":1346:1370   */\n      tag_58\n        /* \"#utility.yul\":1364:1369   */\n      dup2\n        /* \"#utility.yul\":1346:1370   */\n      tag_28\n      jump\t// in\n    tag_58:\n        /* \"#utility.yul\":1341:1344   */\n      dup3\n        /* \"#utility.yul\":1334:1371   */\n      mstore\n        /* \"#utility.yul\":1259:1377   */\n      pop\n      pop\n      jump\t// out\n        /* \"#utility.yul\":1383:1501   */\n    tag_30:\n        /* \"#utility.yul\":1470:1494   */\n      tag_60\n        /* \"#utility.yul\":1488:1493   */\n      dup2\n        /* \"#utility.yul\":1470:1494   */\n      tag_24\n      jump\t// in\n    tag_60:\n        /* \"#utility.yul\":1465:1468   */\n      dup3\n        /* \"#utility.yul\":1458:1495   */\n      mstore\n        /* \"#utility.yul\":1383:1501   */\n      pop\n      pop\n      jump\t// out\n        /* \"#utility.yul\":1507:2060   */\n    tag_10:\n        /* \"#utility.yul\":1684:1688   */\n      0x00\n        /* \"#utility.yul\":1722:1725   */\n      0x80\n        /* \"#utility.yul\":1711:1720   */\n      dup3\n        /* \"#utility.yul\":1707:1726   */\n      add\n        /* \"#utility.yul\":1699:1726   */\n      swap1\n      pop\n        /* \"#utility.yul\":1736:1807   */\n      tag_62\n        /* \"#utility.yul\":1804:1805   */\n      0x00\n        /* \"#utility.yul\":1793:1802   */\n      dup4\n        /* \"#utility.yul\":1789:1806   */\n      add\n        /* \"#utility.yul\":1780:1786   */\n      dup8\n        /* \"#utility.yul\":1736:1807   */\n      tag_29\n      jump\t// in\n    tag_62:\n        /* \"#utility.yul\":1817:1889   */\n      tag_63\n        /* \"#utility.yul\":1885:1887   */\n      0x20\n        /* \"#utility.yul\":1874:1883   */\n      dup4\n        /* \"#utility.yul\":1870:1888   */\n      add\n        /* \"#utility.yul\":1861:1867   */\n      dup7\n        /* \"#utility.yul\":1817:1889   */\n      tag_29\n      jump\t// in\n    tag_63:\n        /* \"#utility.yul\":1899:1971   */\n      tag_64\n        /* \"#utility.yul\":1967:1969   */\n      0x40\n        /* \"#utility.yul\":1956:1965   */\n      dup4\n        /* \"#utility.yul\":1952:1970   */\n      add\n        /* \"#utility.yul\":1943:1949   */\n      dup6\n        /* \"#utility.yul\":1899:1971   */\n      tag_30\n      jump\t// in\n    tag_64:\n        /* \"#utility.yul\":1981:2053   */\n      tag_65\n        /* \"#utility.yul\":2049:2051   */\n      0x60\n        /* \"#utility.yul\":2038:2047   */\n      dup4\n        /* \"#utility.yul\":2034:2052   */\n      add\n        /* \"#utility.yul\":2025:2031   */\n      dup5\n        /* \"#utility.yul\":1981:2053   */\n      tag_30\n      jump\t// in\n    tag_65:\n        /* \"#utility.yul\":1507:2060   */\n      swap6\n      swap5\n      pop\n      pop\n      pop\n      pop\n      pop\n      jump\t// out\n        /* \"#utility.yul\":2066:2209   */\n    tag_31:\n        /* \"#utility.yul\":2162:2168   */\n      0x00\n        /* \"#utility.yul\":2196:2201   */\n      dup2\n        /* \"#utility.yul\":2190:2202   */\n      mload\n        /* \"#utility.yul\":2180:2202   */\n      swap1\n      pop\n        /* \"#utility.yul\":2066:2209   */\n      swap2\n      swap1\n      pop\n      jump\t// out\n        /* \"#utility.yul\":2215:2428   */\n    tag_32:\n        /* \"#utility.yul\":2343:2354   */\n      0x00\n        /* \"#utility.yul\":2377:2383   */\n      dup3\n        /* \"#utility.yul\":2372:2375   */\n      dup3\n        /* \"#utility.yul\":2365:2384   */\n      mstore\n        /* \"#utility.yul\":2417:2421   */\n      0x20\n        /* \"#utility.yul\":2412:2415   */\n      dup3\n        /* \"#utility.yul\":2408:2422   */\n      add\n        /* \"#utility.yul\":2393:2422   */\n      swap1\n      pop\n        /* \"#utility.yul\":2215:2428   */\n      swap3\n      swap2\n      pop\n      pop\n      jump\t// out\n        /* \"#utility.yul\":2434:2595   */\n    tag_33:\n        /* \"#utility.yul\":2530:2534   */\n      0x00\n        /* \"#utility.yul\":2553:2556   */\n      dup2\n        /* \"#utility.yul\":2545:2556   */\n      swap1\n      pop\n        /* \"#utility.yul\":2583:2587   */\n      0x20\n        /* \"#utility.yul\":2578:2581   */\n      dup3\n        /* \"#utility.yul\":2574:2588   */\n      add\n        /* \"#utility.yul\":2566:2588   */\n      swap1\n      pop\n        /* \"#utility.yul\":2434:2595   */\n      swap2\n      swap1\n      pop\n      jump\t// out\n        /* \"#utility.yul\":2601:2709   */\n    tag_34:\n        /* \"#utility.yul\":2678:2702   */\n      tag_70\n        /* \"#utility.yul\":2696:2701   */\n      dup2\n        /* \"#utility.yul\":2678:2702   */\n      tag_28\n      jump\t// in\n    tag_70:\n        /* \"#utility.yul\":2673:2676   */\n      dup3\n        /* \"#utility.yul\":2666:2703   */\n      mstore\n        /* \"#utility.yul\":2601:2709   */\n      pop\n      pop\n      jump\t// out\n        /* \"#utility.yul\":2715:2823   */\n    tag_35:\n        /* \"#utility.yul\":2792:2816   */\n      tag_72\n        /* \"#utility.yul\":2810:2815   */\n      dup2\n        /* \"#utility.yul\":2792:2816   */\n      tag_24\n      jump\t// in\n    tag_72:\n        /* \"#utility.yul\":2787:2790   */\n      dup3\n        /* \"#utility.yul\":2780:2817   */\n      mstore\n        /* \"#utility.yul\":2715:2823   */\n      pop\n      pop\n      jump\t// out\n        /* \"#utility.yul\":2903:3777   */\n    tag_36:\n        /* \"#utility.yul\":3048:3052   */\n      0x80\n        /* \"#utility.yul\":3043:3046   */\n      dup3\n        /* \"#utility.yul\":3039:3053   */\n      add\n        /* \"#utility.yul\":3143:3147   */\n      0x00\n        /* \"#utility.yul\":3136:3141   */\n      dup3\n        /* \"#utility.yul\":3132:3148   */\n      add\n        /* \"#utility.yul\":3126:3149   */\n      mload\n        /* \"#utility.yul\":3162:3225   */\n      tag_74\n        /* \"#utility.yul\":3219:3223   */\n      0x00\n        /* \"#utility.yul\":3214:3217   */\n      dup6\n        /* \"#utility.yul\":3210:3224   */\n      add\n        /* \"#utility.yul\":3196:3208   */\n      dup3\n        /* \"#utility.yul\":3162:3225   */\n      tag_34\n      jump\t// in\n    tag_74:\n        /* \"#utility.yul\":3063:3235   */\n      pop\n        /* \"#utility.yul\":3323:3327   */\n      0x20\n        /* \"#utility.yul\":3316:3321   */\n      dup3\n        /* \"#utility.yul\":3312:3328   */\n      add\n        /* \"#utility.yul\":3306:3329   */\n      mload\n        /* \"#utility.yul\":3342:3405   */\n      tag_75\n        /* \"#utility.yul\":3399:3403   */\n      0x20\n        /* \"#utility.yul\":3394:3397   */\n      dup6\n        /* \"#utility.yul\":3390:3404   */\n      add\n        /* \"#utility.yul\":3376:3388   */\n      dup3\n        /* \"#utility.yul\":3342:3405   */\n      tag_34\n      jump\t// in\n    tag_75:\n        /* \"#utility.yul\":3245:3415   */\n      pop\n        /* \"#utility.yul\":3499:3503   */\n      0x40\n        /* \"#utility.yul\":3492:3497   */\n      dup3\n        /* \"#utility.yul\":3488:3504   */\n      add\n        /* \"#utility.yul\":3482:3505   */\n      mload\n        /* \"#utility.yul\":3518:3581   */\n      tag_76\n        /* \"#utility.yul\":3575:3579   */\n      0x40\n        /* \"#utility.yul\":3570:3573   */\n      dup6\n        /* \"#utility.yul\":3566:3580   */\n      add\n        /* \"#utility.yul\":3552:3564   */\n      dup3\n        /* \"#utility.yul\":3518:3581   */\n      tag_35\n      jump\t// in\n    tag_76:\n        /* \"#utility.yul\":3425:3591   */\n      pop\n        /* \"#utility.yul\":3678:3682   */\n      0x60\n        /* \"#utility.yul\":3671:3676   */\n      dup3\n        /* \"#utility.yul\":3667:3683   */\n      add\n        /* \"#utility.yul\":3661:3684   */\n      mload\n        /* \"#utility.yul\":3697:3760   */\n      tag_77\n        /* \"#utility.yul\":3754:3758   */\n      0x60\n        /* \"#utility.yul\":3749:3752   */\n      dup6\n        /* \"#utility.yul\":3745:3759   */\n      add\n        /* \"#utility.yul\":3731:3743   */\n      dup3\n        /* \"#utility.yul\":3697:3760   */\n      tag_35\n      jump\t// in\n    tag_77:\n        /* \"#utility.yul\":3601:3770   */\n      pop\n        /* \"#utility.yul\":3017:3777   */\n      pop\n        /* \"#utility.yul\":2903:3777   */\n      pop\n      pop\n      jump\t// out\n        /* \"#utility.yul\":3783:4078   */\n    tag_37:\n        /* \"#utility.yul\":3910:3920   */\n      0x00\n        /* \"#utility.yul\":3931:4035   */\n      tag_79\n        /* \"#utility.yul\":4031:4034   */\n      dup4\n        /* \"#utility.yul\":4023:4029   */\n      dup4\n        /* \"#utility.yul\":3931:4035   */\n      tag_36\n      jump\t// in\n    tag_79:\n        /* \"#utility.yul\":4067:4071   */\n      0x80\n        /* \"#utility.yul\":4062:4065   */\n      dup4\n        /* \"#utility.yul\":4058:4072   */\n      add\n        /* \"#utility.yul\":4044:4072   */\n      swap1\n      pop\n        /* \"#utility.yul\":3783:4078   */\n      swap3\n      swap2\n      pop\n      pop\n      jump\t// out\n        /* \"#utility.yul\":4084:4226   */\n    tag_38:\n        /* \"#utility.yul\":4183:4187   */\n      0x00\n        /* \"#utility.yul\":4215:4219   */\n      0x20\n        /* \"#utility.yul\":4210:4213   */\n      dup3\n        /* \"#utility.yul\":4206:4220   */\n      add\n        /* \"#utility.yul\":4198:4220   */\n      swap1\n      pop\n        /* \"#utility.yul\":4084:4226   */\n      swap2\n      swap1\n      pop\n      jump\t// out\n        /* \"#utility.yul\":4310:5274   */\n    tag_39:\n        /* \"#utility.yul\":4487:4490   */\n      0x00\n        /* \"#utility.yul\":4516:4599   */\n      tag_82\n        /* \"#utility.yul\":4593:4598   */\n      dup3\n        /* \"#utility.yul\":4516:4599   */\n      tag_31\n      jump\t// in\n    tag_82:\n        /* \"#utility.yul\":4615:4730   */\n      tag_83\n        /* \"#utility.yul\":4723:4729   */\n      dup2\n        /* \"#utility.yul\":4718:4721   */\n      dup6\n        /* \"#utility.yul\":4615:4730   */\n      tag_32\n      jump\t// in\n    tag_83:\n        /* \"#utility.yul\":4608:4730   */\n      swap4\n      pop\n        /* \"#utility.yul\":4754:4839   */\n      tag_84\n        /* \"#utility.yul\":4833:4838   */\n      dup4\n        /* \"#utility.yul\":4754:4839   */\n      tag_33\n      jump\t// in\n    tag_84:\n        /* \"#utility.yul\":4862:4869   */\n      dup1\n        /* \"#utility.yul\":4893:4894   */\n      0x00\n        /* \"#utility.yul\":4878:5249   */\n    tag_85:\n        /* \"#utility.yul\":4903:4909   */\n      dup4\n        /* \"#utility.yul\":4900:4901   */\n      dup2\n        /* \"#utility.yul\":4897:4910   */\n      lt\n        /* \"#utility.yul\":4878:5249   */\n      iszero\n      tag_87\n      jumpi\n        /* \"#utility.yul\":4979:4985   */\n      dup2\n        /* \"#utility.yul\":4973:4986   */\n      mload\n        /* \"#utility.yul\":5006:5127   */\n      tag_88\n        /* \"#utility.yul\":5123:5126   */\n      dup9\n        /* \"#utility.yul\":5108:5121   */\n      dup3\n        /* \"#utility.yul\":5006:5127   */\n      tag_37\n      jump\t// in\n    tag_88:\n        /* \"#utility.yul\":4999:5127   */\n      swap8\n      pop\n        /* \"#utility.yul\":5150:5239   */\n      tag_89\n        /* \"#utility.yul\":5232:5238   */\n      dup4\n        /* \"#utility.yul\":5150:5239   */\n      tag_38\n      jump\t// in\n    tag_89:\n        /* \"#utility.yul\":5140:5239   */\n      swap3\n      pop\n        /* \"#utility.yul\":4938:5249   */\n      pop\n        /* \"#utility.yul\":4925:4926   */\n      0x01\n        /* \"#utility.yul\":4922:4923   */\n      dup2\n        /* \"#utility.yul\":4918:4927   */\n      add\n        /* \"#utility.yul\":4913:4927   */\n      swap1\n      pop\n        /* \"#utility.yul\":4878:5249   */\n      jump(tag_85)\n    tag_87:\n        /* \"#utility.yul\":4882:4896   */\n      pop\n        /* \"#utility.yul\":5265:5268   */\n      dup6\n        /* \"#utility.yul\":5258:5268   */\n      swap4\n      pop\n        /* \"#utility.yul\":4492:5274   */\n      pop\n      pop\n      pop\n        /* \"#utility.yul\":4310:5274   */\n      swap3\n      swap2\n      pop\n      pop\n      jump\t// out\n        /* \"#utility.yul\":5280:5769   */\n    tag_14:\n        /* \"#utility.yul\":5481:5485   */\n      0x00\n        /* \"#utility.yul\":5519:5521   */\n      0x20\n        /* \"#utility.yul\":5508:5517   */\n      dup3\n        /* \"#utility.yul\":5504:5522   */\n      add\n        /* \"#utility.yul\":5496:5522   */\n      swap1\n      pop\n        /* \"#utility.yul\":5568:5577   */\n      dup2\n        /* \"#utility.yul\":5562:5566   */\n      dup2\n        /* \"#utility.yul\":5558:5578   */\n      sub\n        /* \"#utility.yul\":5554:5555   */\n      0x00\n        /* \"#utility.yul\":5543:5552   */\n      dup4\n        /* \"#utility.yul\":5539:5556   */\n      add\n        /* \"#utility.yul\":5532:5579   */\n      mstore\n        /* \"#utility.yul\":5596:5762   */\n      tag_91\n        /* \"#utility.yul\":5757:5761   */\n      dup2\n        /* \"#utility.yul\":5748:5754   */\n      dup5\n        /* \"#utility.yul\":5596:5762   */\n      tag_39\n      jump\t// in\n    tag_91:\n        /* \"#utility.yul\":5588:5762   */\n      swap1\n      pop\n        /* \"#utility.yul\":5280:5769   */\n      swap3\n      swap2\n      pop\n      pop\n      jump\t// out\n\n    auxdata: 0xa2646970667358221220c03166c61ac855297b99a63f273c88eebb98ec0946e5f985aa2c74926761ce6f64736f6c63430008100033\n}\n",
				"bytecode": {
					"linkReferences": {},
					"object": "608060405234801561001057600080fd5b506104a2806100206000396000f3fe608060405234801561001057600080fd5b50600436106100365760003560e01c806304ef5b211461003b57806359705f811461006e575b600080fd5b61005560048036038101906100509190610266565b61008c565b60405161006594939291906102e3565b60405180910390f35b61007661010c565b604051610083919061044a565b60405180910390f35b6000818154811061009c57600080fd5b90600052602060002090600402016000915090508060000160009054906101000a900473ffffffffffffffffffffffffffffffffffffffff16908060010160009054906101000a900473ffffffffffffffffffffffffffffffffffffffff16908060020154908060030154905084565b60606000805480602002602001604051908101604052809291908181526020016000905b8282101561022257838290600052602060002090600402016040518060800160405290816000820160009054906101000a900473ffffffffffffffffffffffffffffffffffffffff1673ffffffffffffffffffffffffffffffffffffffff1673ffffffffffffffffffffffffffffffffffffffff1681526020016001820160009054906101000a900473ffffffffffffffffffffffffffffffffffffffff1673ffffffffffffffffffffffffffffffffffffffff1673ffffffffffffffffffffffffffffffffffffffff1681526020016002820154815260200160038201548152505081526020019060010190610130565b50505050905090565b600080fd5b6000819050919050565b61024381610230565b811461024e57600080fd5b50565b6000813590506102608161023a565b92915050565b60006020828403121561027c5761027b61022b565b5b600061028a84828501610251565b91505092915050565b600073ffffffffffffffffffffffffffffffffffffffff82169050919050565b60006102be82610293565b9050919050565b6102ce816102b3565b82525050565b6102dd81610230565b82525050565b60006080820190506102f860008301876102c5565b61030560208301866102c5565b61031260408301856102d4565b61031f60608301846102d4565b95945050505050565b600081519050919050565b600082825260208201905092915050565b6000819050602082019050919050565b61035d816102b3565b82525050565b61036c81610230565b82525050565b6080820160008201516103886000850182610354565b50602082015161039b6020850182610354565b5060408201516103ae6040850182610363565b5060608201516103c16060850182610363565b50505050565b60006103d38383610372565b60808301905092915050565b6000602082019050919050565b60006103f782610328565b6104018185610333565b935061040c83610344565b8060005b8381101561043d57815161042488826103c7565b975061042f836103df565b925050600181019050610410565b5085935050505092915050565b6000602082019050818103600083015261046481846103ec565b90509291505056fea2646970667358221220c03166c61ac855297b99a63f273c88eebb98ec0946e5f985aa2c74926761ce6f64736f6c63430008100033",
					"opcodes": "PUSH1 0x80 PUSH1 0x40 MSTORE CALLVALUE DUP1 ISZERO PUSH2 0x10 JUMPI PUSH1 0x0 DUP1 REVERT JUMPDEST POP PUSH2 0x4A2 DUP1 PUSH2 0x20 PUSH1 0x0 CODECOPY PUSH1 0x0 RETURN INVALID PUSH1 0x80 PUSH1 0x40 MSTORE CALLVALUE DUP1 ISZERO PUSH2 0x10 JUMPI PUSH1 0x0 DUP1 REVERT JUMPDEST POP PUSH1 0x4 CALLDATASIZE LT PUSH2 0x36 JUMPI PUSH1 0x0 CALLDATALOAD PUSH1 0xE0 SHR DUP1 PUSH4 0x4EF5B21 EQ PUSH2 0x3B JUMPI DUP1 PUSH4 0x59705F81 EQ PUSH2 0x6E JUMPI JUMPDEST PUSH1 0x0 DUP1 REVERT JUMPDEST PUSH2 0x55 PUSH1 0x4 DUP1 CALLDATASIZE SUB DUP2 ADD SWAP1 PUSH2 0x50 SWAP2 SWAP1 PUSH2 0x266 JUMP JUMPDEST PUSH2 0x8C JUMP JUMPDEST PUSH1 0x40 MLOAD PUSH2 0x65 SWAP5 SWAP4 SWAP3 SWAP2 SWAP1 PUSH2 0x2E3 JUMP JUMPDEST PUSH1 0x40 MLOAD DUP1 SWAP2 SUB SWAP1 RETURN JUMPDEST PUSH2 0x76 PUSH2 0x10C JUMP JUMPDEST PUSH1 0x40 MLOAD PUSH2 0x83 SWAP2 SWAP1 PUSH2 0x44A JUMP JUMPDEST PUSH1 0x40 MLOAD DUP1 SWAP2 SUB SWAP1 RETURN JUMPDEST PUSH1 0x0 DUP2 DUP2 SLOAD DUP2 LT PUSH2 0x9C JUMPI PUSH1 0x0 DUP1 REVERT JUMPDEST SWAP1 PUSH1 0x0 MSTORE PUSH1 0x20 PUSH1 0x0 KECCAK256 SWAP1 PUSH1 0x4 MUL ADD PUSH1 0x0 SWAP2 POP SWAP1 POP DUP1 PUSH1 0x0 ADD PUSH1 0x0 SWAP1 SLOAD SWAP1 PUSH2 0x100 EXP SWAP1 DIV PUSH20 0xFFFFFFFFFFFFFFFFFFFFFFFFFFFFFFFFFFFFFFFF AND SWAP1 DUP1 PUSH1 0x1 ADD PUSH1 0x0 SWAP1 SLOAD SWAP1 PUSH2 0x100 EXP SWAP1 DIV PUSH20 0xFFFFFFFFFFFFFFFFFFFFFFFFFFFFFFFFFFFFFFFF AND SWAP1 DUP1 PUSH1 0x2 ADD SLOAD SWAP1 DUP1 PUSH1 0x3 ADD SLOAD SWAP1 POP DUP5 JUMP JUMPDEST PUSH1 0x60 PUSH1 0x0 DUP1 SLOAD DUP1 PUSH1 0x20 MUL PUSH1 0x20 ADD PUSH1 0x40 MLOAD SWAP1 DUP2 ADD PUSH1 0x40 MSTORE DUP1 SWAP3 SWAP2 SWAP1 DUP2 DUP2 MSTORE PUSH1 0x20 ADD PUSH1 0x0 SWAP1 JUMPDEST DUP3 DUP3 LT ISZERO PUSH2 0x222 JUMPI DUP4 DUP3 SWAP1 PUSH1 0x0 MSTORE PUSH1 0x20 PUSH1 0x0 KECCAK256 SWAP1 PUSH1 0x4 MUL ADD PUSH1 0x40 MLOAD DUP1 PUSH1 0x80 ADD PUSH1 0x40 MSTORE SWAP1 DUP2 PUSH1 0x0 DUP3 ADD PUSH1 0x0 SWAP1 SLOAD SWAP1 PUSH2 0x100 EXP SWAP1 DIV PUSH20 0xFFFFFFFFFFFFFFFFFFFFFFFFFFFFFFFFFFFFFFFF AND PUSH20 0xFFFFFFFFFFFFFFFFFFFFFFFFFFFFFFFFFFFFFFFF AND PUSH20 0xFFFFFFFFFFFFFFFFFFFFFFFFFFFFFFFFFFFFFFFF AND DUP2 MSTORE PUSH1 0x20 ADD PUSH1 0x1 DUP3 ADD PUSH1 0x0 SWAP1 SLOAD SWAP1 PUSH2 0x100 EXP SWAP1 DIV PUSH20 0xFFFFFFFFFFFFFFFFFFFFFFFFFFFFFFFFFFFFFFFF AND PUSH20 0xFFFFFFFFFFFFFFFFFFFFFFFFFFFFFFFFFFFFFFFF AND PUSH20 0xFFFFFFFFFFFFFFFFFFFFFFFFFFFFFFFFFFFFFFFF AND DUP2 MSTORE PUSH1 0x20 ADD PUSH1 0x2 DUP3 ADD SLOAD DUP2 MSTORE PUSH1 0x20 ADD PUSH1 0x3 DUP3 ADD SLOAD DUP2 MSTORE POP POP DUP2 MSTORE PUSH1 0x20 ADD SWAP1 PUSH1 0x1 ADD SWAP1 PUSH2 0x130 JUMP JUMPDEST POP POP POP POP SWAP1 POP SWAP1 JUMP JUMPDEST PUSH1 0x0 DUP1 REVERT JUMPDEST PUSH1 0x0 DUP2 SWAP1 POP SWAP2 SWAP1 POP JUMP JUMPDEST PUSH2 0x243 DUP2 PUSH2 0x230 JUMP JUMPDEST DUP2 EQ PUSH2 0x24E JUMPI PUSH1 0x0 DUP1 REVERT JUMPDEST POP JUMP JUMPDEST PUSH1 0x0 DUP2 CALLDATALOAD SWAP1 POP PUSH2 0x260 DUP2 PUSH2 0x23A JUMP JUMPDEST SWAP3 SWAP2 POP POP JUMP JUMPDEST PUSH1 0x0 PUSH1 0x20 DUP3 DUP5 SUB SLT ISZERO PUSH2 0x27C JUMPI PUSH2 0x27B PUSH2 0x22B JUMP JUMPDEST JUMPDEST PUSH1 0x0 PUSH2 0x28A DUP5 DUP3 DUP6 ADD PUSH2 0x251 JUMP JUMPDEST SWAP2 POP POP SWAP3 SWAP2 POP POP JUMP JUMPDEST PUSH1 0x0 PUSH20 0xFFFFFFFFFFFFFFFFFFFFFFFFFFFFFFFFFFFFFFFF DUP3 AND SWAP1 POP SWAP2 SWAP1 POP JUMP JUMPDEST PUSH1 0x0 PUSH2 0x2BE DUP3 PUSH2 0x293 JUMP JUMPDEST SWAP1 POP SWAP2 SWAP1 POP JUMP JUMPDEST PUSH2 0x2CE DUP2 PUSH2 0x2B3 JUMP JUMPDEST DUP3 MSTORE POP POP JUMP JUMPDEST PUSH2 0x2DD DUP2 PUSH2 0x230 JUMP JUMPDEST DUP3 MSTORE POP POP JUMP JUMPDEST PUSH1 0x0 PUSH1 0x80 DUP3 ADD SWAP1 POP PUSH2 0x2F8 PUSH1 0x0 DUP4 ADD DUP8 PUSH2 0x2C5 JUMP JUMPDEST PUSH2 0x305 PUSH1 0x20 DUP4 ADD DUP7 PUSH2 0x2C5 JUMP JUMPDEST PUSH2 0x312 PUSH1 0x40 DUP4 ADD DUP6 PUSH2 0x2D4 JUMP JUMPDEST PUSH2 0x31F PUSH1 0x60 DUP4 ADD DUP5 PUSH2 0x2D4 JUMP JUMPDEST SWAP6 SWAP5 POP POP POP POP POP JUMP JUMPDEST PUSH1 0x0 DUP2 MLOAD SWAP1 POP SWAP2 SWAP1 POP JUMP JUMPDEST PUSH1 0x0 DUP3 DUP3 MSTORE PUSH1 0x20 DUP3 ADD SWAP1 POP SWAP3 SWAP2 POP POP JUMP JUMPDEST PUSH1 0x0 DUP2 SWAP1 POP PUSH1 0x20 DUP3 ADD SWAP1 POP SWAP2 SWAP1 POP JUMP JUMPDEST PUSH2 0x35D DUP2 PUSH2 0x2B3 JUMP JUMPDEST DUP3 MSTORE POP POP JUMP JUMPDEST PUSH2 0x36C DUP2 PUSH2 0x230 JUMP JUMPDEST DUP3 MSTORE POP POP JUMP JUMPDEST PUSH1 0x80 DUP3 ADD PUSH1 0x0 DUP3 ADD MLOAD PUSH2 0x388 PUSH1 0x0 DUP6 ADD DUP3 PUSH2 0x354 JUMP JUMPDEST POP PUSH1 0x20 DUP3 ADD MLOAD PUSH2 0x39B PUSH1 0x20 DUP6 ADD DUP3 PUSH2 0x354 JUMP JUMPDEST POP PUSH1 0x40 DUP3 ADD MLOAD PUSH2 0x3AE PUSH1 0x40 DUP6 ADD DUP3 PUSH2 0x363 JUMP JUMPDEST POP PUSH1 0x60 DUP3 ADD MLOAD PUSH2 0x3C1 PUSH1 0x60 DUP6 ADD DUP3 PUSH2 0x363 JUMP JUMPDEST POP POP POP POP JUMP JUMPDEST PUSH1 0x0 PUSH2 0x3D3 DUP4 DUP4 PUSH2 0x372 JUMP JUMPDEST PUSH1 0x80 DUP4 ADD SWAP1 POP SWAP3 SWAP2 POP POP JUMP JUMPDEST PUSH1 0x0 PUSH1 0x20 DUP3 ADD SWAP1 POP SWAP2 SWAP1 POP JUMP JUMPDEST PUSH1 0x0 PUSH2 0x3F7 DUP3 PUSH2 0x328 JUMP JUMPDEST PUSH2 0x401 DUP2 DUP6 PUSH2 0x333 JUMP JUMPDEST SWAP4 POP PUSH2 0x40C DUP4 PUSH2 0x344 JUMP JUMPDEST DUP1 PUSH1 0x0 JUMPDEST DUP4 DUP2 LT ISZERO PUSH2 0x43D JUMPI DUP2 MLOAD PUSH2 0x424 DUP9 DUP3 PUSH2 0x3C7 JUMP JUMPDEST SWAP8 POP PUSH2 0x42F DUP4 PUSH2 0x3DF JUMP JUMPDEST SWAP3 POP POP PUSH1 0x1 DUP2 ADD SWAP1 POP PUSH2 0x410 JUMP JUMPDEST POP DUP6 SWAP4 POP POP POP POP SWAP3 SWAP2 POP POP JUMP JUMPDEST PUSH1 0x0 PUSH1 0x20 DUP3 ADD SWAP1 POP DUP2 DUP2 SUB PUSH1 0x0 DUP4 ADD MSTORE PUSH2 0x464 DUP2 DUP5 PUSH2 0x3EC JUMP JUMPDEST SWAP1 POP SWAP3 SWAP2 POP POP JUMP INVALID LOG2 PUSH5 0x6970667358 0x22 SLT KECCAK256 0xC0 BALANCE PUSH7 0xC61AC855297B99 0xA6 EXTCODEHASH 0x27 EXTCODECOPY DUP9 0xEE 0xBB SWAP9 0xEC MULMOD CHAINID 0xE5 0xF9 DUP6 0xAA 0x2C PUSH21 0x926761CE6F64736F6C634300081000330000000000 "
				},
				"gasEstimates": {
					"creation": {
						"codeDepositCost": "237200",
						"executionCost": "281",
						"totalCost": "237481"
					},
					"external": {
						"getTransaction()": "infinite",
						"transactionList(uint256)": "infinite"
					},
					"internal": {
						"addTransaction(address,address,uint256,uint256)": "infinite"
					}
				},
				"methodIdentifiers": {
					"getTransaction()": "59705f81",
					"transactionList(uint256)": "04ef5b21"
				}
			},
			"storageLayout": {
				"storage": [
					{
						"astId": 271,
						"contract": "Dapp/Transaction.sol:Transaction",
						"label": "transactionList",
						"offset": 0,
						"slot": "0",
						"type": "t_array(t_struct(Transactions)267_storage)dyn_storage"
					}
				],
				"types": {
					"t_address": {
						"encoding": "inplace",
						"label": "address",
						"numberOfBytes": "20"
					},
					"t_array(t_struct(Transactions)267_storage)dyn_storage": {
						"base": "t_struct(Transactions)267_storage",
						"encoding": "dynamic_array",
						"label": "struct Transaction.Transactions[]",
						"numberOfBytes": "32"
					},
					"t_struct(Transactions)267_storage": {
						"encoding": "inplace",
						"label": "struct Transaction.Transactions",
						"members": [
							{
								"astId": 260,
								"contract": "Dapp/Transaction.sol:Transaction",
								"label": "address_from",
								"offset": 0,
								"slot": "0",
								"type": "t_address"
							},
							{
								"astId": 262,
								"contract": "Dapp/Transaction.sol:Transaction",
								"label": "address_to",
								"offset": 0,
								"slot": "1",
								"type": "t_address"
							},
							{
								"astId": 264,
								"contract": "Dapp/Transaction.sol:Transaction",
								"label": "amount",
								"offset": 0,
								"slot": "2",
								"type": "t_uint256"
							},
							{
								"astId": 266,
								"contract": "Dapp/Transaction.sol:Transaction",
								"label": "timestamp",
								"offset": 0,
								"slot": "3",
								"type": "t_uint256"
							}
						],
						"numberOfBytes": "128"
					},
					"t_uint256": {
						"encoding": "inplace",
						"label": "uint256",
						"numberOfBytes": "32"
					}
				}
			},
			"userdoc": {
				"kind": "user",
				"methods": {},
				"version": 1
			}
		}
	}
}