{
	"Dapp/MoneyTransfer.sol": {
		"MoneyTransfer": {
			"abi": [
				{
					"inputs": [
						{
							"internalType": "uint256",
							"name": "_totalFunds",
							"type": "uint256"
						}
					],
					"stateMutability": "nonpayable",
					"type": "constructor"
				},
				{
					"inputs": [],
					"name": "TotalAmount",
					"outputs": [
						{
							"internalType": "uint256",
							"name": "",
							"type": "uint256"
						}
					],
					"stateMutability": "view",
					"type": "function"
				},
				{
					"inputs": [],
					"name": "TotalFunds",
					"outputs": [
						{
							"internalType": "uint256",
							"name": "",
							"type": "uint256"
						}
					],
					"stateMutability": "view",
					"type": "function"
				},
				{
					"inputs": [],
					"name": "amount",
					"outputs": [
						{
							"internalType": "uint256",
							"name": "",
							"type": "uint256"
						}
					],
					"stateMutability": "view",
					"type": "function"
				},
				{
					"inputs": [],
					"name": "callCount",
					"outputs": [
						{
							"internalType": "uint256",
							"name": "",
							"type": "uint256"
						}
					],
					"stateMutability": "view",
					"type": "function"
				},
				{
					"inputs": [],
					"name": "callPutCard",
					"outputs": [
						{
							"internalType": "bool",
							"name": "",
							"type": "bool"
						}
					],
					"stateMutability": "view",
					"type": "function"
				},
				{
					"inputs": [],
					"name": "cardNumber",
					"outputs": [
						{
							"internalType": "string",
							"name": "",
							"type": "string"
						}
					],
					"stateMutability": "view",
					"type": "function"
				},
				{
					"inputs": [],
					"name": "cvv",
					"outputs": [
						{
							"internalType": "string",
							"name": "",
							"type": "string"
						}
					],
					"stateMutability": "view",
					"type": "function"
				},
				{
					"inputs": [],
					"name": "firstTransferTime",
					"outputs": [
						{
							"internalType": "uint256",
							"name": "",
							"type": "uint256"
						}
					],
					"stateMutability": "view",
					"type": "function"
				},
				{
					"inputs": [],
					"name": "getOutCard",
					"outputs": [],
					"stateMutability": "nonpayable",
					"type": "function"
				},
				{
					"inputs": [],
					"name": "getTime",
					"outputs": [
						{
							"internalType": "uint256",
							"name": "",
							"type": "uint256"
						}
					],
					"stateMutability": "view",
					"type": "function"
				},
				{
					"inputs": [],
					"name": "getTransaction",
					"outputs": [
						{
							"components": [
								{
									"internalType": "address",
									"name": "address_from",
									"type": "address"
								},
								{
									"internalType": "address",
									"name": "address_to",
									"type": "address"
								},
								{
									"internalType": "uint256",
									"name": "amount",
									"type": "uint256"
								},
								{
									"internalType": "uint256",
									"name": "timestamp",
									"type": "uint256"
								}
							],
							"internalType": "struct Transaction.Transactions[]",
							"name": "",
							"type": "tuple[]"
						}
					],
					"stateMutability": "view",
					"type": "function"
				},
				{
					"inputs": [],
					"name": "message",
					"outputs": [
						{
							"internalType": "string",
							"name": "",
							"type": "string"
						}
					],
					"stateMutability": "view",
					"type": "function"
				},
				{
					"inputs": [
						{
							"internalType": "uint256",
							"name": "_amount",
							"type": "uint256"
						},
						{
							"internalType": "address",
							"name": "_receiver",
							"type": "address"
						}
					],
					"name": "sendMoney",
					"outputs": [],
					"stateMutability": "nonpayable",
					"type": "function"
				},
				{
					"inputs": [
						{
							"internalType": "string",
							"name": "_cardNumber",
							"type": "string"
						},
						{
							"internalType": "string",
							"name": "_cvv",
							"type": "string"
						}
					],
					"name": "setCard",
					"outputs": [],
					"stateMutability": "nonpayable",
					"type": "function"
				},
				{
					"inputs": [
						{
							"internalType": "uint256",
							"name": "",
							"type": "uint256"
						}
					],
					"name": "transactionList",
					"outputs": [
						{
							"internalType": "address",
							"name": "address_from",
							"type": "address"
						},
						{
							"internalType": "address",
							"name": "address_to",
							"type": "address"
						},
						{
							"internalType": "uint256",
							"name": "amount",
							"type": "uint256"
						},
						{
							"internalType": "uint256",
							"name": "timestamp",
							"type": "uint256"
						}
					],
					"stateMutability": "view",
					"type": "function"
				}
			],
			"devdoc": {
				"kind": "dev",
				"methods": {},
				"version": 1
			},
			"evm": {
				"assembly": "    /* \"Dapp/MoneyTransfer.sol\":98:4247  contract  MoneyTransfer is Transaction {... */\n  mstore(0x40, 0x80)\n    /* \"Dapp/MoneyTransfer.sol\":832:833  0 */\n  0x00\n    /* \"Dapp/MoneyTransfer.sol\":808:833  uint public callCount = 0 */\n  0x09\n  sstore\n    /* \"Dapp/MoneyTransfer.sol\":867:872  false */\n  0x00\n    /* \"Dapp/MoneyTransfer.sol\":841:872  bool public callPutCard = false */\n  0x0a\n  exp(0x0100, 0x00)\n  dup2\n  sload\n  dup2\n  0xff\n  mul\n  not\n  and\n  swap1\n  dup4\n  iszero\n  iszero\n  mul\n  or\n  swap1\n  sstore\n  pop\n    /* \"Dapp/MoneyTransfer.sol\":657:796  constructor (uint256 _totalFunds) {... */\n  callvalue\n  dup1\n  iszero\n  tag_1\n  jumpi\n  0x00\n  dup1\n  revert\ntag_1:\n  pop\n  mload(0x40)\n  sub(codesize, bytecodeSize)\n  dup1\n  bytecodeSize\n  dup4\n  codecopy\n  dup2\n  dup2\n  add\n  0x40\n  mstore\n  dup2\n  add\n  swap1\n  tag_2\n  swap2\n  swap1\n  tag_3\n  jump\t// in\ntag_2:\n    /* \"Dapp/MoneyTransfer.sol\":777:788  _totalFunds */\n  dup1\n    /* \"Dapp/MoneyTransfer.sol\":764:774  TotalFunds */\n  0x02\n    /* \"Dapp/MoneyTransfer.sol\":764:788  TotalFunds = _totalFunds */\n  dup2\n  swap1\n  sstore\n  pop\n    /* \"Dapp/MoneyTransfer.sol\":657:796  constructor (uint256 _totalFunds) {... */\n  pop\n    /* \"Dapp/MoneyTransfer.sol\":98:4247  contract  MoneyTransfer is Transaction {... */\n  jump(tag_6)\n    /* \"#utility.yul\":88:205   */\ntag_8:\n    /* \"#utility.yul\":197:198   */\n  0x00\n    /* \"#utility.yul\":194:195   */\n  dup1\n    /* \"#utility.yul\":187:199   */\n  revert\n    /* \"#utility.yul\":334:411   */\ntag_10:\n    /* \"#utility.yul\":371:378   */\n  0x00\n    /* \"#utility.yul\":400:405   */\n  dup2\n    /* \"#utility.yul\":389:405   */\n  swap1\n  pop\n    /* \"#utility.yul\":334:411   */\n  swap2\n  swap1\n  pop\n  jump\t// out\n    /* \"#utility.yul\":417:539   */\ntag_11:\n    /* \"#utility.yul\":490:514   */\n  tag_19\n    /* \"#utility.yul\":508:513   */\n  dup2\n    /* \"#utility.yul\":490:514   */\n  tag_10\n  jump\t// in\ntag_19:\n    /* \"#utility.yul\":483:488   */\n  dup2\n    /* \"#utility.yul\":480:515   */\n  eq\n    /* \"#utility.yul\":470:533   */\n  tag_20\n  jumpi\n    /* \"#utility.yul\":529:530   */\n  0x00\n    /* \"#utility.yul\":526:527   */\n  dup1\n    /* \"#utility.yul\":519:531   */\n  revert\n    /* \"#utility.yul\":470:533   */\ntag_20:\n    /* \"#utility.yul\":417:539   */\n  pop\n  jump\t// out\n    /* \"#utility.yul\":545:688   */\ntag_12:\n    /* \"#utility.yul\":602:607   */\n  0x00\n    /* \"#utility.yul\":633:639   */\n  dup2\n    /* \"#utility.yul\":627:640   */\n  mload\n    /* \"#utility.yul\":618:640   */\n  swap1\n  pop\n    /* \"#utility.yul\":649:682   */\n  tag_22\n    /* \"#utility.yul\":676:681   */\n  dup2\n    /* \"#utility.yul\":649:682   */\n  tag_11\n  jump\t// in\ntag_22:\n    /* \"#utility.yul\":545:688   */\n  swap3\n  swap2\n  pop\n  pop\n  jump\t// out\n    /* \"#utility.yul\":694:1045   */\ntag_3:\n    /* \"#utility.yul\":764:770   */\n  0x00\n    /* \"#utility.yul\":813:815   */\n  0x20\n    /* \"#utility.yul\":801:810   */\n  dup3\n    /* \"#utility.yul\":792:799   */\n  dup5\n    /* \"#utility.yul\":788:811   */\n  sub\n    /* \"#utility.yul\":784:816   */\n  slt\n    /* \"#utility.yul\":781:900   */\n  iszero\n  tag_24\n  jumpi\n    /* \"#utility.yul\":819:898   */\n  tag_25\n  tag_8\n  jump\t// in\ntag_25:\n    /* \"#utility.yul\":781:900   */\ntag_24:\n    /* \"#utility.yul\":939:940   */\n  0x00\n    /* \"#utility.yul\":964:1028   */\n  tag_26\n    /* \"#utility.yul\":1020:1027   */\n  dup5\n    /* \"#utility.yul\":1011:1017   */\n  dup3\n    /* \"#utility.yul\":1000:1009   */\n  dup6\n    /* \"#utility.yul\":996:1018   */\n  add\n    /* \"#utility.yul\":964:1028   */\n  tag_12\n  jump\t// in\ntag_26:\n    /* \"#utility.yul\":954:1028   */\n  swap2\n  pop\n    /* \"#utility.yul\":910:1038   */\n  pop\n    /* \"#utility.yul\":694:1045   */\n  swap3\n  swap2\n  pop\n  pop\n  jump\t// out\n    /* \"Dapp/MoneyTransfer.sol\":98:4247  contract  MoneyTransfer is Transaction {... */\ntag_6:\n  dataSize(sub_0)\n  dup1\n  dataOffset(sub_0)\n  0x00\n  codecopy\n  0x00\n  return\nstop\n\nsub_0: assembly {\n        /* \"Dapp/MoneyTransfer.sol\":98:4247  contract  MoneyTransfer is Transaction {... */\n      mstore(0x40, 0x80)\n      callvalue\n      dup1\n      iszero\n      tag_1\n      jumpi\n      0x00\n      dup1\n      revert\n    tag_1:\n      pop\n      jumpi(tag_2, lt(calldatasize, 0x04))\n      shr(0xe0, calldataload(0x00))\n      dup1\n      0x557ed1ba\n      gt\n      tag_18\n      jumpi\n      dup1\n      0x8e029c0b\n      gt\n      tag_19\n      jumpi\n      dup1\n      0x8e029c0b\n      eq\n      tag_14\n      jumpi\n      dup1\n      0x8fa11864\n      eq\n      tag_15\n      jumpi\n      dup1\n      0xaa8c217c\n      eq\n      tag_16\n      jumpi\n      dup1\n      0xe21f37ce\n      eq\n      tag_17\n      jumpi\n      jump(tag_2)\n    tag_19:\n      dup1\n      0x557ed1ba\n      eq\n      tag_10\n      jumpi\n      dup1\n      0x59705f81\n      eq\n      tag_11\n      jumpi\n      dup1\n      0x7b9a3f4c\n      eq\n      tag_12\n      jumpi\n      dup1\n      0x7eb9f571\n      eq\n      tag_13\n      jumpi\n      jump(tag_2)\n    tag_18:\n      dup1\n      0x12a029a4\n      gt\n      tag_20\n      jumpi\n      dup1\n      0x12a029a4\n      eq\n      tag_6\n      jumpi\n      dup1\n      0x3c626f00\n      eq\n      tag_7\n      jumpi\n      dup1\n      0x42fb7936\n      eq\n      tag_8\n      jumpi\n      dup1\n      0x4b28f9a2\n      eq\n      tag_9\n      jumpi\n      jump(tag_2)\n    tag_20:\n      dup1\n      0x04ef5b21\n      eq\n      tag_3\n      jumpi\n      dup1\n      0x062a7544\n      eq\n      tag_4\n      jumpi\n      dup1\n      0x0e85fa72\n      eq\n      tag_5\n      jumpi\n    tag_2:\n      0x00\n      dup1\n      revert\n        /* \"Dapp/Transaction.sol\":243:280  Transactions[] public transactionList */\n    tag_3:\n      tag_21\n      0x04\n      dup1\n      calldatasize\n      sub\n      dup2\n      add\n      swap1\n      tag_22\n      swap2\n      swap1\n      tag_23\n      jump\t// in\n    tag_22:\n      tag_24\n      jump\t// in\n    tag_21:\n      mload(0x40)\n      tag_25\n      swap5\n      swap4\n      swap3\n      swap2\n      swap1\n      tag_26\n      jump\t// in\n    tag_25:\n      mload(0x40)\n      dup1\n      swap2\n      sub\n      swap1\n      return\n        /* \"Dapp/MoneyTransfer.sol\":882:1770  function sendMoney( uint _amount, address _receiver) public m_validAddress(_receiver) m_ifCardExists m_transferLimit{... */\n    tag_4:\n      tag_27\n      0x04\n      dup1\n      calldatasize\n      sub\n      dup2\n      add\n      swap1\n      tag_28\n      swap2\n      swap1\n      tag_29\n      jump\t// in\n    tag_28:\n      tag_30\n      jump\t// in\n    tag_27:\n      stop\n        /* \"Dapp/MoneyTransfer.sol\":580:609  uint public firstTransferTime */\n    tag_5:\n      tag_31\n      tag_32\n      jump\t// in\n    tag_31:\n      mload(0x40)\n      tag_33\n      swap2\n      swap1\n      tag_34\n      jump\t// in\n    tag_33:\n      mload(0x40)\n      dup1\n      swap2\n      sub\n      swap1\n      return\n        /* \"Dapp/MoneyTransfer.sol\":1778:2043  function setCard(string memory _cardNumber, string memory _cvv) public  m_checkCard {... */\n    tag_6:\n      tag_35\n      0x04\n      dup1\n      calldatasize\n      sub\n      dup2\n      add\n      swap1\n      tag_36\n      swap2\n      swap1\n      tag_37\n      jump\t// in\n    tag_36:\n      tag_38\n      jump\t// in\n    tag_35:\n      stop\n        /* \"Dapp/MoneyTransfer.sol\":841:872  bool public callPutCard = false */\n    tag_7:\n      tag_39\n      tag_40\n      jump\t// in\n    tag_39:\n      mload(0x40)\n      tag_41\n      swap2\n      swap1\n      tag_42\n      jump\t// in\n    tag_41:\n      mload(0x40)\n      dup1\n      swap2\n      sub\n      swap1\n      return\n        /* \"Dapp/MoneyTransfer.sol\":526:543  string public cvv */\n    tag_8:\n      tag_43\n      tag_44\n      jump\t// in\n    tag_43:\n      mload(0x40)\n      tag_45\n      swap2\n      swap1\n      tag_46\n      jump\t// in\n    tag_45:\n      mload(0x40)\n      dup1\n      swap2\n      sub\n      swap1\n      return\n        /* \"Dapp/MoneyTransfer.sol\":808:833  uint public callCount = 0 */\n    tag_9:\n      tag_47\n      tag_48\n      jump\t// in\n    tag_47:\n      mload(0x40)\n      tag_49\n      swap2\n      swap1\n      tag_34\n      jump\t// in\n    tag_49:\n      mload(0x40)\n      dup1\n      swap2\n      sub\n      swap1\n      return\n        /* \"Dapp/MoneyTransfer.sol\":4150:4236  function getTime()public view returns(uint ){... */\n    tag_10:\n      tag_50\n      tag_51\n      jump\t// in\n    tag_50:\n      mload(0x40)\n      tag_52\n      swap2\n      swap1\n      tag_34\n      jump\t// in\n    tag_52:\n      mload(0x40)\n      dup1\n      swap2\n      sub\n      swap1\n      return\n        /* \"Dapp/Transaction.sol\":577:687  function getTransaction() public view returns(Transactions[] memory){... */\n    tag_11:\n      tag_53\n      tag_54\n      jump\t// in\n    tag_53:\n      mload(0x40)\n      tag_55\n      swap2\n      swap1\n      tag_56\n      jump\t// in\n    tag_55:\n      mload(0x40)\n      dup1\n      swap2\n      sub\n      swap1\n      return\n        /* \"Dapp/MoneyTransfer.sol\":176:201  uint256 public TotalFunds */\n    tag_12:\n      tag_57\n      tag_58\n      jump\t// in\n    tag_57:\n      mload(0x40)\n      tag_59\n      swap2\n      swap1\n      tag_34\n      jump\t// in\n    tag_59:\n      mload(0x40)\n      dup1\n      swap2\n      sub\n      swap1\n      return\n        /* \"Dapp/MoneyTransfer.sol\":550:576  uint256 public TotalAmount */\n    tag_13:\n      tag_60\n      tag_61\n      jump\t// in\n    tag_60:\n      mload(0x40)\n      tag_62\n      swap2\n      swap1\n      tag_34\n      jump\t// in\n    tag_62:\n      mload(0x40)\n      dup1\n      swap2\n      sub\n      swap1\n      return\n        /* \"Dapp/MoneyTransfer.sol\":2064:2133  function getOutCard() public  {... */\n    tag_14:\n      tag_63\n      tag_64\n      jump\t// in\n    tag_63:\n      stop\n        /* \"Dapp/MoneyTransfer.sol\":494:518  string public cardNumber */\n    tag_15:\n      tag_65\n      tag_66\n      jump\t// in\n    tag_65:\n      mload(0x40)\n      tag_67\n      swap2\n      swap1\n      tag_46\n      jump\t// in\n    tag_67:\n      mload(0x40)\n      dup1\n      swap2\n      sub\n      swap1\n      return\n        /* \"Dapp/MoneyTransfer.sol\":148:169  uint256 public amount */\n    tag_16:\n      tag_68\n      tag_69\n      jump\t// in\n    tag_68:\n      mload(0x40)\n      tag_70\n      swap2\n      swap1\n      tag_34\n      jump\t// in\n    tag_70:\n      mload(0x40)\n      dup1\n      swap2\n      sub\n      swap1\n      return\n        /* \"Dapp/MoneyTransfer.sol\":466:487  string public message */\n    tag_17:\n      tag_71\n      tag_72\n      jump\t// in\n    tag_71:\n      mload(0x40)\n      tag_73\n      swap2\n      swap1\n      tag_46\n      jump\t// in\n    tag_73:\n      mload(0x40)\n      dup1\n      swap2\n      sub\n      swap1\n      return\n        /* \"Dapp/Transaction.sol\":243:280  Transactions[] public transactionList */\n    tag_24:\n      0x00\n      dup2\n      dup2\n      sload\n      dup2\n      lt\n      tag_74\n      jumpi\n      0x00\n      dup1\n      revert\n    tag_74:\n      swap1\n      0x00\n      mstore\n      keccak256(0x00, 0x20)\n      swap1\n      0x04\n      mul\n      add\n      0x00\n      swap2\n      pop\n      swap1\n      pop\n      dup1\n      0x00\n      add\n      0x00\n      swap1\n      sload\n      swap1\n      0x0100\n      exp\n      swap1\n      div\n      0xffffffffffffffffffffffffffffffffffffffff\n      and\n      swap1\n      dup1\n      0x01\n      add\n      0x00\n      swap1\n      sload\n      swap1\n      0x0100\n      exp\n      swap1\n      div\n      0xffffffffffffffffffffffffffffffffffffffff\n      and\n      swap1\n      dup1\n      0x02\n      add\n      sload\n      swap1\n      dup1\n      0x03\n      add\n      sload\n      swap1\n      pop\n      dup5\n      jump\t// out\n        /* \"Dapp/MoneyTransfer.sol\":882:1770  function sendMoney( uint _amount, address _receiver) public m_validAddress(_receiver) m_ifCardExists m_transferLimit{... */\n    tag_30:\n        /* \"Dapp/MoneyTransfer.sol\":957:966  _receiver */\n      dup1\n        /* \"Dapp/MoneyTransfer.sol\":2214:2219  _addr */\n      dup1\n        /* \"Dapp/MoneyTransfer.sol\":2203:2211  receiver */\n      0x03\n      0x00\n        /* \"Dapp/MoneyTransfer.sol\":2203:2219  receiver = _addr */\n      0x0100\n      exp\n      dup2\n      sload\n      dup2\n      0xffffffffffffffffffffffffffffffffffffffff\n      mul\n      not\n      and\n      swap1\n      dup4\n      0xffffffffffffffffffffffffffffffffffffffff\n      and\n      mul\n      or\n      swap1\n      sstore\n      pop\n        /* \"Dapp/MoneyTransfer.sol\":2255:2256  0 */\n      0x00\n        /* \"Dapp/MoneyTransfer.sol\":2238:2257  _addr != address(0) */\n      0xffffffffffffffffffffffffffffffffffffffff\n      and\n        /* \"Dapp/MoneyTransfer.sol\":2238:2243  _addr */\n      dup2\n        /* \"Dapp/MoneyTransfer.sol\":2238:2257  _addr != address(0) */\n      0xffffffffffffffffffffffffffffffffffffffff\n      and\n      sub\n        /* \"Dapp/MoneyTransfer.sol\":2230:2290  require(_addr != address(0), \" This address doesn't exists\") */\n      tag_77\n      jumpi\n      mload(0x40)\n      0x08c379a000000000000000000000000000000000000000000000000000000000\n      dup2\n      mstore\n      0x04\n      add\n      tag_78\n      swap1\n      tag_79\n      jump\t// in\n    tag_78:\n      mload(0x40)\n      dup1\n      swap2\n      sub\n      swap1\n      revert\n    tag_77:\n        /* \"Dapp/MoneyTransfer.sol\":2389:2394  false */\n      0x00\n        /* \"Dapp/MoneyTransfer.sol\":2374:2394  callPutCard != false */\n      iszero\n      iszero\n        /* \"Dapp/MoneyTransfer.sol\":2374:2385  callPutCard */\n      0x0a\n      0x00\n      swap1\n      sload\n      swap1\n      0x0100\n      exp\n      swap1\n      div\n      0xff\n      and\n        /* \"Dapp/MoneyTransfer.sol\":2374:2394  callPutCard != false */\n      iszero\n      iszero\n      sub\n        /* \"Dapp/MoneyTransfer.sol\":2366:2421  require(callPutCard != false,\"Please insert your card\") */\n      tag_81\n      jumpi\n      mload(0x40)\n      0x08c379a000000000000000000000000000000000000000000000000000000000\n      dup2\n      mstore\n      0x04\n      add\n      tag_82\n      swap1\n      tag_83\n      jump\t// in\n    tag_82:\n      mload(0x40)\n      dup1\n      swap2\n      sub\n      swap1\n      revert\n    tag_81:\n        /* \"Dapp/MoneyTransfer.sol\":3701:3702  5 */\n      0x05\n        /* \"Dapp/MoneyTransfer.sol\":3688:3697  callCount */\n      sload(0x09)\n        /* \"Dapp/MoneyTransfer.sol\":3688:3702  callCount >= 5 */\n      lt\n      iszero\n        /* \"Dapp/MoneyTransfer.sol\":3688:3757  callCount >= 5 && block.timestamp <= (firstTransferTime + 30 seconds) */\n      dup1\n      iszero\n      tag_85\n      jumpi\n      pop\n        /* \"Dapp/MoneyTransfer.sol\":3746:3756  30 seconds */\n      0x1e\n        /* \"Dapp/MoneyTransfer.sol\":3726:3743  firstTransferTime */\n      sload(0x08)\n        /* \"Dapp/MoneyTransfer.sol\":3726:3756  firstTransferTime + 30 seconds */\n      tag_86\n      swap2\n      swap1\n      tag_87\n      jump\t// in\n    tag_86:\n        /* \"Dapp/MoneyTransfer.sol\":3706:3721  block.timestamp */\n      timestamp\n        /* \"Dapp/MoneyTransfer.sol\":3706:3757  block.timestamp <= (firstTransferTime + 30 seconds) */\n      gt\n      iszero\n        /* \"Dapp/MoneyTransfer.sol\":3688:3757  callCount >= 5 && block.timestamp <= (firstTransferTime + 30 seconds) */\n    tag_85:\n        /* \"Dapp/MoneyTransfer.sol\":3685:3902  if(callCount >= 5 && block.timestamp <= (firstTransferTime + 30 seconds)){... */\n      iszero\n      tag_88\n      jumpi\n        /* \"Dapp/MoneyTransfer.sol\":3785:3786  0 */\n      0x00\n        /* \"Dapp/MoneyTransfer.sol\":3773:3782  callCount */\n      0x09\n        /* \"Dapp/MoneyTransfer.sol\":3773:3786  callCount = 0 */\n      dup2\n      swap1\n      sstore\n      pop\n        /* \"Dapp/MoneyTransfer.sol\":3821:3822  0 */\n      0x00\n        /* \"Dapp/MoneyTransfer.sol\":3808:3817  callCount */\n      sload(0x09)\n        /* \"Dapp/MoneyTransfer.sol\":3808:3822  callCount == 0 */\n      eq\n        /* \"Dapp/MoneyTransfer.sol\":3801:3823  assert(callCount == 0) */\n      tag_89\n      jumpi\n      tag_90\n      tag_91\n      jump\t// in\n    tag_90:\n    tag_89:\n        /* \"Dapp/MoneyTransfer.sol\":3838:3876  revert(\"only 5 transactions per day\" ) */\n      mload(0x40)\n      0x08c379a000000000000000000000000000000000000000000000000000000000\n      dup2\n      mstore\n      0x04\n      add\n      tag_92\n      swap1\n      tag_93\n      jump\t// in\n    tag_92:\n      mload(0x40)\n      dup1\n      swap2\n      sub\n      swap1\n      revert\n        /* \"Dapp/MoneyTransfer.sol\":3685:3902  if(callCount >= 5 && block.timestamp <= (firstTransferTime + 30 seconds)){... */\n    tag_88:\n        /* \"Dapp/MoneyTransfer.sol\":3930:3931  5 */\n      0x05\n        /* \"Dapp/MoneyTransfer.sol\":3917:3926  callCount */\n      sload(0x09)\n        /* \"Dapp/MoneyTransfer.sol\":3917:3931  callCount <= 5 */\n      gt\n      iszero\n        /* \"Dapp/MoneyTransfer.sol\":3917:3986  callCount <= 5 && block.timestamp >= (firstTransferTime + 30 seconds) */\n      dup1\n      iszero\n      tag_94\n      jumpi\n      pop\n        /* \"Dapp/MoneyTransfer.sol\":3975:3985  30 seconds */\n      0x1e\n        /* \"Dapp/MoneyTransfer.sol\":3955:3972  firstTransferTime */\n      sload(0x08)\n        /* \"Dapp/MoneyTransfer.sol\":3955:3985  firstTransferTime + 30 seconds */\n      tag_95\n      swap2\n      swap1\n      tag_87\n      jump\t// in\n    tag_95:\n        /* \"Dapp/MoneyTransfer.sol\":3935:3950  block.timestamp */\n      timestamp\n        /* \"Dapp/MoneyTransfer.sol\":3935:3986  block.timestamp >= (firstTransferTime + 30 seconds) */\n      lt\n      iszero\n        /* \"Dapp/MoneyTransfer.sol\":3917:3986  callCount <= 5 && block.timestamp >= (firstTransferTime + 30 seconds) */\n    tag_94:\n        /* \"Dapp/MoneyTransfer.sol\":3914:4115  if(callCount <= 5 && block.timestamp >= (firstTransferTime + 30 seconds)){... */\n      iszero\n      tag_96\n      jumpi\n        /* \"Dapp/MoneyTransfer.sol\":4014:4015  0 */\n      0x00\n        /* \"Dapp/MoneyTransfer.sol\":4002:4011  callCount */\n      0x09\n        /* \"Dapp/MoneyTransfer.sol\":4002:4015  callCount = 0 */\n      dup2\n      swap1\n      sstore\n      pop\n        /* \"Dapp/MoneyTransfer.sol\":4051:4052  0 */\n      0x00\n        /* \"Dapp/MoneyTransfer.sol\":4038:4047  callCount */\n      sload(0x09)\n        /* \"Dapp/MoneyTransfer.sol\":4038:4052  callCount == 0 */\n      eq\n        /* \"Dapp/MoneyTransfer.sol\":4031:4053  assert(callCount == 0) */\n      tag_97\n      jumpi\n      tag_98\n      tag_91\n      jump\t// in\n    tag_98:\n    tag_97:\n        /* \"Dapp/MoneyTransfer.sol\":4088:4103  block.timestamp */\n      timestamp\n        /* \"Dapp/MoneyTransfer.sol\":4068:4085  firstTransferTime */\n      0x08\n        /* \"Dapp/MoneyTransfer.sol\":4068:4103  firstTransferTime = block.timestamp */\n      dup2\n      swap1\n      sstore\n      pop\n        /* \"Dapp/MoneyTransfer.sol\":3914:4115  if(callCount <= 5 && block.timestamp >= (firstTransferTime + 30 seconds)){... */\n    tag_96:\n        /* \"Dapp/MoneyTransfer.sol\":1020:1029  _receiver */\n      dup2\n        /* \"Dapp/MoneyTransfer.sol\":1009:1017  receiver */\n      0x03\n      0x00\n        /* \"Dapp/MoneyTransfer.sol\":1009:1029  receiver = _receiver */\n      0x0100\n      exp\n      dup2\n      sload\n      dup2\n      0xffffffffffffffffffffffffffffffffffffffff\n      mul\n      not\n      and\n      swap1\n      dup4\n      0xffffffffffffffffffffffffffffffffffffffff\n      and\n      mul\n      or\n      swap1\n      sstore\n      pop\n        /* \"Dapp/MoneyTransfer.sol\":1049:1056  _amount */\n      dup3\n        /* \"Dapp/MoneyTransfer.sol\":1040:1046  amount */\n      0x01\n        /* \"Dapp/MoneyTransfer.sol\":1040:1056  amount = _amount */\n      dup2\n      swap1\n      sstore\n      pop\n        /* \"Dapp/MoneyTransfer.sol\":1229:1230  1 */\n      0x01\n        /* \"Dapp/MoneyTransfer.sol\":1216:1225  callCount */\n      0x09\n      0x00\n        /* \"Dapp/MoneyTransfer.sol\":1216:1230  callCount += 1 */\n      dup3\n      dup3\n      sload\n      tag_100\n      swap2\n      swap1\n      tag_87\n      jump\t// in\n    tag_100:\n      swap3\n      pop\n      pop\n      dup2\n      swap1\n      sstore\n      pop\n        /* \"Dapp/MoneyTransfer.sol\":1286:1287  0 */\n      0x00\n        /* \"Dapp/MoneyTransfer.sol\":1273:1283  TotalFunds */\n      sload(0x02)\n        /* \"Dapp/MoneyTransfer.sol\":1273:1287  TotalFunds > 0 */\n      gt\n        /* \"Dapp/MoneyTransfer.sol\":1273:1310  TotalFunds > 0 && TotalFunds > amount */\n      dup1\n      iszero\n      tag_101\n      jumpi\n      pop\n        /* \"Dapp/MoneyTransfer.sol\":1304:1310  amount */\n      sload(0x01)\n        /* \"Dapp/MoneyTransfer.sol\":1291:1301  TotalFunds */\n      sload(0x02)\n        /* \"Dapp/MoneyTransfer.sol\":1291:1310  TotalFunds > amount */\n      gt\n        /* \"Dapp/MoneyTransfer.sol\":1273:1310  TotalFunds > 0 && TotalFunds > amount */\n    tag_101:\n        /* \"Dapp/MoneyTransfer.sol\":1270:1753  if(TotalFunds > 0 && TotalFunds > amount){... */\n      iszero\n      tag_102\n      jumpi\n        /* \"Dapp/MoneyTransfer.sol\":1348:1354  amount */\n      sload(0x01)\n        /* \"Dapp/MoneyTransfer.sol\":1334:1344  TotalFunds */\n      0x02\n      0x00\n        /* \"Dapp/MoneyTransfer.sol\":1334:1354  TotalFunds -= amount */\n      dup3\n      dup3\n      sload\n      tag_103\n      swap2\n      swap1\n      tag_104\n      jump\t// in\n    tag_103:\n      swap3\n      pop\n      pop\n      dup2\n      swap1\n      sstore\n      pop\n        /* \"Dapp/MoneyTransfer.sol\":1392:1398  amount */\n      sload(0x01)\n        /* \"Dapp/MoneyTransfer.sol\":1377:1388  TotalAmount */\n      0x07\n      0x00\n        /* \"Dapp/MoneyTransfer.sol\":1377:1398  TotalAmount += amount */\n      dup3\n      dup3\n      sload\n      tag_105\n      swap2\n      swap1\n      tag_87\n      jump\t// in\n    tag_105:\n      swap3\n      pop\n      pop\n      dup2\n      swap1\n      sstore\n      pop\n        /* \"Dapp/MoneyTransfer.sol\":1465:1525  addTransaction(msg.sender,receiver, amount, block.timestamp) */\n      tag_106\n        /* \"Dapp/MoneyTransfer.sol\":1480:1490  msg.sender */\n      caller\n        /* \"Dapp/MoneyTransfer.sol\":1491:1499  receiver */\n      0x03\n      0x00\n      swap1\n      sload\n      swap1\n      0x0100\n      exp\n      swap1\n      div\n      0xffffffffffffffffffffffffffffffffffffffff\n      and\n        /* \"Dapp/MoneyTransfer.sol\":1501:1507  amount */\n      sload(0x01)\n        /* \"Dapp/MoneyTransfer.sol\":1509:1524  block.timestamp */\n      timestamp\n        /* \"Dapp/MoneyTransfer.sol\":1465:1479  addTransaction */\n      tag_107\n        /* \"Dapp/MoneyTransfer.sol\":1465:1525  addTransaction(msg.sender,receiver, amount, block.timestamp) */\n      jump\t// in\n    tag_106:\n        /* \"Dapp/MoneyTransfer.sol\":1548:1578  message = \"Transfer completed\" */\n      mload(0x40)\n      dup1\n      0x40\n      add\n      0x40\n      mstore\n      dup1\n      0x12\n      dup2\n      mstore\n      0x20\n      add\n      0x5472616e7366657220636f6d706c657465640000000000000000000000000000\n      dup2\n      mstore\n      pop\n        /* \"Dapp/MoneyTransfer.sol\":1548:1555  message */\n      0x04\n        /* \"Dapp/MoneyTransfer.sol\":1548:1578  message = \"Transfer completed\" */\n      swap1\n      dup2\n      tag_108\n      swap2\n      swap1\n      tag_109\n      jump\t// in\n    tag_108:\n      pop\n        /* \"Dapp/MoneyTransfer.sol\":1270:1753  if(TotalFunds > 0 && TotalFunds > amount){... */\n      jump(tag_110)\n    tag_102:\n        /* \"Dapp/MoneyTransfer.sol\":1706:1732  revert(\"Not enough funds\") */\n      mload(0x40)\n      0x08c379a000000000000000000000000000000000000000000000000000000000\n      dup2\n      mstore\n      0x04\n      add\n      tag_111\n      swap1\n      tag_112\n      jump\t// in\n    tag_111:\n      mload(0x40)\n      dup1\n      swap2\n      sub\n      swap1\n      revert\n        /* \"Dapp/MoneyTransfer.sol\":1270:1753  if(TotalFunds > 0 && TotalFunds > amount){... */\n    tag_110:\n        /* \"Dapp/MoneyTransfer.sol\":882:1770  function sendMoney( uint _amount, address _receiver) public m_validAddress(_receiver) m_ifCardExists m_transferLimit{... */\n      pop\n      pop\n      pop\n      jump\t// out\n        /* \"Dapp/MoneyTransfer.sol\":580:609  uint public firstTransferTime */\n    tag_32:\n      sload(0x08)\n      dup2\n      jump\t// out\n        /* \"Dapp/MoneyTransfer.sol\":1778:2043  function setCard(string memory _cardNumber, string memory _cvv) public  m_checkCard {... */\n    tag_38:\n        /* \"Dapp/MoneyTransfer.sol\":1892:1903  _cardNumber */\n      dup2\n        /* \"Dapp/MoneyTransfer.sol\":1879:1889  cardNumber */\n      0x05\n        /* \"Dapp/MoneyTransfer.sol\":1879:1903  cardNumber = _cardNumber */\n      swap1\n      dup2\n      tag_115\n      swap2\n      swap1\n      tag_109\n      jump\t// in\n    tag_115:\n      pop\n        /* \"Dapp/MoneyTransfer.sol\":1924:1928  _cvv */\n      dup1\n        /* \"Dapp/MoneyTransfer.sol\":1918:1921  cvv */\n      0x06\n        /* \"Dapp/MoneyTransfer.sol\":1918:1928  cvv = _cvv */\n      swap1\n      dup2\n      tag_116\n      swap2\n      swap1\n      tag_109\n      jump\t// in\n    tag_116:\n      pop\n        /* \"Dapp/MoneyTransfer.sol\":1976:1980  true */\n      0x01\n        /* \"Dapp/MoneyTransfer.sol\":1962:1973  callPutCard */\n      0x0a\n      0x00\n        /* \"Dapp/MoneyTransfer.sol\":1962:1980  callPutCard = true */\n      0x0100\n      exp\n      dup2\n      sload\n      dup2\n      0xff\n      mul\n      not\n      and\n      swap1\n      dup4\n      iszero\n      iszero\n      mul\n      or\n      swap1\n      sstore\n      pop\n        /* \"Dapp/MoneyTransfer.sol\":2018:2033  block.timestamp */\n      timestamp\n        /* \"Dapp/MoneyTransfer.sol\":1998:2015  firstTransferTime */\n      0x08\n        /* \"Dapp/MoneyTransfer.sol\":1998:2033  firstTransferTime = block.timestamp */\n      dup2\n      swap1\n      sstore\n      pop\n        /* \"Dapp/MoneyTransfer.sol\":2550:2551  8 */\n      0x08\n        /* \"Dapp/MoneyTransfer.sol\":2528:2538  cardNumber */\n      0x05\n        /* \"Dapp/MoneyTransfer.sol\":2522:2546  bytes(cardNumber).length */\n      dup1\n      sload\n      tag_117\n      swap1\n      tag_118\n      jump\t// in\n    tag_117:\n      swap1\n      pop\n        /* \"Dapp/MoneyTransfer.sol\":2522:2551  bytes(cardNumber).length == 8 */\n      eq\n        /* \"Dapp/MoneyTransfer.sol\":2522:2577  bytes(cardNumber).length == 8 && bytes(cvv).length == 3 */\n      dup1\n      iszero\n      tag_119\n      jumpi\n      pop\n        /* \"Dapp/MoneyTransfer.sol\":2576:2577  3 */\n      0x03\n        /* \"Dapp/MoneyTransfer.sol\":2561:2564  cvv */\n      0x06\n        /* \"Dapp/MoneyTransfer.sol\":2555:2572  bytes(cvv).length */\n      dup1\n      sload\n      tag_120\n      swap1\n      tag_118\n      jump\t// in\n    tag_120:\n      swap1\n      pop\n        /* \"Dapp/MoneyTransfer.sol\":2555:2577  bytes(cvv).length == 3 */\n      eq\n        /* \"Dapp/MoneyTransfer.sol\":2522:2577  bytes(cardNumber).length == 8 && bytes(cvv).length == 3 */\n    tag_119:\n        /* \"Dapp/MoneyTransfer.sol\":2514:2602  require(bytes(cardNumber).length == 8 && bytes(cvv).length == 3, \"No valid credit card\") */\n      tag_121\n      jumpi\n      mload(0x40)\n      0x08c379a000000000000000000000000000000000000000000000000000000000\n      dup2\n      mstore\n      0x04\n      add\n      tag_122\n      swap1\n      tag_123\n      jump\t// in\n    tag_122:\n      mload(0x40)\n      dup1\n      swap2\n      sub\n      swap1\n      revert\n    tag_121:\n        /* \"Dapp/MoneyTransfer.sol\":1778:2043  function setCard(string memory _cardNumber, string memory _cvv) public  m_checkCard {... */\n      pop\n      pop\n      jump\t// out\n        /* \"Dapp/MoneyTransfer.sol\":841:872  bool public callPutCard = false */\n    tag_40:\n      0x0a\n      0x00\n      swap1\n      sload\n      swap1\n      0x0100\n      exp\n      swap1\n      div\n      0xff\n      and\n      dup2\n      jump\t// out\n        /* \"Dapp/MoneyTransfer.sol\":526:543  string public cvv */\n    tag_44:\n      0x06\n      dup1\n      sload\n      tag_124\n      swap1\n      tag_118\n      jump\t// in\n    tag_124:\n      dup1\n      0x1f\n      add\n      0x20\n      dup1\n      swap2\n      div\n      mul\n      0x20\n      add\n      mload(0x40)\n      swap1\n      dup2\n      add\n      0x40\n      mstore\n      dup1\n      swap3\n      swap2\n      swap1\n      dup2\n      dup2\n      mstore\n      0x20\n      add\n      dup3\n      dup1\n      sload\n      tag_125\n      swap1\n      tag_118\n      jump\t// in\n    tag_125:\n      dup1\n      iszero\n      tag_126\n      jumpi\n      dup1\n      0x1f\n      lt\n      tag_127\n      jumpi\n      0x0100\n      dup1\n      dup4\n      sload\n      div\n      mul\n      dup4\n      mstore\n      swap2\n      0x20\n      add\n      swap2\n      jump(tag_126)\n    tag_127:\n      dup3\n      add\n      swap2\n      swap1\n      0x00\n      mstore\n      keccak256(0x00, 0x20)\n      swap1\n    tag_128:\n      dup2\n      sload\n      dup2\n      mstore\n      swap1\n      0x01\n      add\n      swap1\n      0x20\n      add\n      dup1\n      dup4\n      gt\n      tag_128\n      jumpi\n      dup3\n      swap1\n      sub\n      0x1f\n      and\n      dup3\n      add\n      swap2\n    tag_126:\n      pop\n      pop\n      pop\n      pop\n      pop\n      dup2\n      jump\t// out\n        /* \"Dapp/MoneyTransfer.sol\":808:833  uint public callCount = 0 */\n    tag_48:\n      sload(0x09)\n      dup2\n      jump\t// out\n        /* \"Dapp/MoneyTransfer.sol\":4150:4236  function getTime()public view returns(uint ){... */\n    tag_51:\n        /* \"Dapp/MoneyTransfer.sol\":4188:4192  uint */\n      0x00\n        /* \"Dapp/MoneyTransfer.sol\":4213:4228  block.timestamp */\n      timestamp\n        /* \"Dapp/MoneyTransfer.sol\":4205:4228  return  block.timestamp */\n      swap1\n      pop\n        /* \"Dapp/MoneyTransfer.sol\":4150:4236  function getTime()public view returns(uint ){... */\n      swap1\n      jump\t// out\n        /* \"Dapp/Transaction.sol\":577:687  function getTransaction() public view returns(Transactions[] memory){... */\n    tag_54:\n        /* \"Dapp/Transaction.sol\":623:644  Transactions[] memory */\n      0x60\n        /* \"Dapp/Transaction.sol\":664:679  transactionList */\n      0x00\n        /* \"Dapp/Transaction.sol\":657:679  return transactionList */\n      dup1\n      sload\n      dup1\n      0x20\n      mul\n      0x20\n      add\n      mload(0x40)\n      swap1\n      dup2\n      add\n      0x40\n      mstore\n      dup1\n      swap3\n      swap2\n      swap1\n      dup2\n      dup2\n      mstore\n      0x20\n      add\n      0x00\n      swap1\n    tag_131:\n      dup3\n      dup3\n      lt\n      iszero\n      tag_132\n      jumpi\n      dup4\n      dup3\n      swap1\n      0x00\n      mstore\n      keccak256(0x00, 0x20)\n      swap1\n      0x04\n      mul\n      add\n      mload(0x40)\n      dup1\n      0x80\n      add\n      0x40\n      mstore\n      swap1\n      dup2\n      0x00\n      dup3\n      add\n      0x00\n      swap1\n      sload\n      swap1\n      0x0100\n      exp\n      swap1\n      div\n      0xffffffffffffffffffffffffffffffffffffffff\n      and\n      0xffffffffffffffffffffffffffffffffffffffff\n      and\n      0xffffffffffffffffffffffffffffffffffffffff\n      and\n      dup2\n      mstore\n      0x20\n      add\n      0x01\n      dup3\n      add\n      0x00\n      swap1\n      sload\n      swap1\n      0x0100\n      exp\n      swap1\n      div\n      0xffffffffffffffffffffffffffffffffffffffff\n      and\n      0xffffffffffffffffffffffffffffffffffffffff\n      and\n      0xffffffffffffffffffffffffffffffffffffffff\n      and\n      dup2\n      mstore\n      0x20\n      add\n      0x02\n      dup3\n      add\n      sload\n      dup2\n      mstore\n      0x20\n      add\n      0x03\n      dup3\n      add\n      sload\n      dup2\n      mstore\n      pop\n      pop\n      dup2\n      mstore\n      0x20\n      add\n      swap1\n      0x01\n      add\n      swap1\n      jump(tag_131)\n    tag_132:\n      pop\n      pop\n      pop\n      pop\n      swap1\n      pop\n        /* \"Dapp/Transaction.sol\":577:687  function getTransaction() public view returns(Transactions[] memory){... */\n      swap1\n      jump\t// out\n        /* \"Dapp/MoneyTransfer.sol\":176:201  uint256 public TotalFunds */\n    tag_58:\n      sload(0x02)\n      dup2\n      jump\t// out\n        /* \"Dapp/MoneyTransfer.sol\":550:576  uint256 public TotalAmount */\n    tag_61:\n      sload(0x07)\n      dup2\n      jump\t// out\n        /* \"Dapp/MoneyTransfer.sol\":2064:2133  function getOutCard() public  {... */\n    tag_64:\n        /* \"Dapp/MoneyTransfer.sol\":2118:2123  false */\n      0x00\n        /* \"Dapp/MoneyTransfer.sol\":2104:2115  callPutCard */\n      0x0a\n      0x00\n        /* \"Dapp/MoneyTransfer.sol\":2104:2123  callPutCard = false */\n      0x0100\n      exp\n      dup2\n      sload\n      dup2\n      0xff\n      mul\n      not\n      and\n      swap1\n      dup4\n      iszero\n      iszero\n      mul\n      or\n      swap1\n      sstore\n      pop\n        /* \"Dapp/MoneyTransfer.sol\":2064:2133  function getOutCard() public  {... */\n      jump\t// out\n        /* \"Dapp/MoneyTransfer.sol\":494:518  string public cardNumber */\n    tag_66:\n      0x05\n      dup1\n      sload\n      tag_135\n      swap1\n      tag_118\n      jump\t// in\n    tag_135:\n      dup1\n      0x1f\n      add\n      0x20\n      dup1\n      swap2\n      div\n      mul\n      0x20\n      add\n      mload(0x40)\n      swap1\n      dup2\n      add\n      0x40\n      mstore\n      dup1\n      swap3\n      swap2\n      swap1\n      dup2\n      dup2\n      mstore\n      0x20\n      add\n      dup3\n      dup1\n      sload\n      tag_136\n      swap1\n      tag_118\n      jump\t// in\n    tag_136:\n      dup1\n      iszero\n      tag_137\n      jumpi\n      dup1\n      0x1f\n      lt\n      tag_138\n      jumpi\n      0x0100\n      dup1\n      dup4\n      sload\n      div\n      mul\n      dup4\n      mstore\n      swap2\n      0x20\n      add\n      swap2\n      jump(tag_137)\n    tag_138:\n      dup3\n      add\n      swap2\n      swap1\n      0x00\n      mstore\n      keccak256(0x00, 0x20)\n      swap1\n    tag_139:\n      dup2\n      sload\n      dup2\n      mstore\n      swap1\n      0x01\n      add\n      swap1\n      0x20\n      add\n      dup1\n      dup4\n      gt\n      tag_139\n      jumpi\n      dup3\n      swap1\n      sub\n      0x1f\n      and\n      dup3\n      add\n      swap2\n    tag_137:\n      pop\n      pop\n      pop\n      pop\n      pop\n      dup2\n      jump\t// out\n        /* \"Dapp/MoneyTransfer.sol\":148:169  uint256 public amount */\n    tag_69:\n      sload(0x01)\n      dup2\n      jump\t// out\n        /* \"Dapp/MoneyTransfer.sol\":466:487  string public message */\n    tag_72:\n      0x04\n      dup1\n      sload\n      tag_140\n      swap1\n      tag_118\n      jump\t// in\n    tag_140:\n      dup1\n      0x1f\n      add\n      0x20\n      dup1\n      swap2\n      div\n      mul\n      0x20\n      add\n      mload(0x40)\n      swap1\n      dup2\n      add\n      0x40\n      mstore\n      dup1\n      swap3\n      swap2\n      swap1\n      dup2\n      dup2\n      mstore\n      0x20\n      add\n      dup3\n      dup1\n      sload\n      tag_141\n      swap1\n      tag_118\n      jump\t// in\n    tag_141:\n      dup1\n      iszero\n      tag_142\n      jumpi\n      dup1\n      0x1f\n      lt\n      tag_143\n      jumpi\n      0x0100\n      dup1\n      dup4\n      sload\n      div\n      mul\n      dup4\n      mstore\n      swap2\n      0x20\n      add\n      swap2\n      jump(tag_142)\n    tag_143:\n      dup3\n      add\n      swap2\n      swap1\n      0x00\n      mstore\n      keccak256(0x00, 0x20)\n      swap1\n    tag_144:\n      dup2\n      sload\n      dup2\n      mstore\n      swap1\n      0x01\n      add\n      swap1\n      0x20\n      add\n      dup1\n      dup4\n      gt\n      tag_144\n      jumpi\n      dup3\n      swap1\n      sub\n      0x1f\n      and\n      dup3\n      add\n      swap2\n    tag_142:\n      pop\n      pop\n      pop\n      pop\n      pop\n      dup2\n      jump\t// out\n        /* \"Dapp/Transaction.sol\":289:569  function addTransaction(address _address_from ,address _address_to, uint _amount, uint _timestamp)internal{... */\n    tag_107:\n        /* \"Dapp/Transaction.sol\":416:450  Transactions memory newTransaction */\n      0x00\n        /* \"Dapp/Transaction.sol\":453:514  Transactions(_address_from, _address_to, _amount, _timestamp) */\n      mload(0x40)\n      dup1\n      0x80\n      add\n      0x40\n      mstore\n      dup1\n        /* \"Dapp/Transaction.sol\":466:479  _address_from */\n      dup7\n        /* \"Dapp/Transaction.sol\":453:514  Transactions(_address_from, _address_to, _amount, _timestamp) */\n      0xffffffffffffffffffffffffffffffffffffffff\n      and\n      dup2\n      mstore\n      0x20\n      add\n        /* \"Dapp/Transaction.sol\":481:492  _address_to */\n      dup6\n        /* \"Dapp/Transaction.sol\":453:514  Transactions(_address_from, _address_to, _amount, _timestamp) */\n      0xffffffffffffffffffffffffffffffffffffffff\n      and\n      dup2\n      mstore\n      0x20\n      add\n        /* \"Dapp/Transaction.sol\":494:501  _amount */\n      dup5\n        /* \"Dapp/Transaction.sol\":453:514  Transactions(_address_from, _address_to, _amount, _timestamp) */\n      dup2\n      mstore\n      0x20\n      add\n        /* \"Dapp/Transaction.sol\":503:513  _timestamp */\n      dup4\n        /* \"Dapp/Transaction.sol\":453:514  Transactions(_address_from, _address_to, _amount, _timestamp) */\n      dup2\n      mstore\n      pop\n        /* \"Dapp/Transaction.sol\":416:514  Transactions memory newTransaction = Transactions(_address_from, _address_to, _amount, _timestamp) */\n      swap1\n      pop\n        /* \"Dapp/Transaction.sol\":525:540  transactionList */\n      0x00\n        /* \"Dapp/Transaction.sol\":546:560  newTransaction */\n      dup2\n        /* \"Dapp/Transaction.sol\":525:561  transactionList.push(newTransaction) */\n      swap1\n      dup1\n      0x01\n      dup2\n      sload\n      add\n      dup1\n      dup3\n      sstore\n      dup1\n      swap2\n      pop\n      pop\n      0x01\n      swap1\n      sub\n      swap1\n      0x00\n      mstore\n      keccak256(0x00, 0x20)\n      swap1\n      0x04\n      mul\n      add\n      0x00\n      swap1\n      swap2\n      swap1\n      swap2\n      swap1\n      swap2\n      pop\n      0x00\n      dup3\n      add\n      mload\n      dup2\n      0x00\n      add\n      exp(0x0100, 0x00)\n      dup2\n      sload\n      dup2\n      0xffffffffffffffffffffffffffffffffffffffff\n      mul\n      not\n      and\n      swap1\n      dup4\n      0xffffffffffffffffffffffffffffffffffffffff\n      and\n      mul\n      or\n      swap1\n      sstore\n      pop\n      0x20\n      dup3\n      add\n      mload\n      dup2\n      0x01\n      add\n      exp(0x0100, 0x00)\n      dup2\n      sload\n      dup2\n      0xffffffffffffffffffffffffffffffffffffffff\n      mul\n      not\n      and\n      swap1\n      dup4\n      0xffffffffffffffffffffffffffffffffffffffff\n      and\n      mul\n      or\n      swap1\n      sstore\n      pop\n      0x40\n      dup3\n      add\n      mload\n      dup2\n      0x02\n      add\n      sstore\n      0x60\n      dup3\n      add\n      mload\n      dup2\n      0x03\n      add\n      sstore\n      pop\n      pop\n        /* \"Dapp/Transaction.sol\":395:569  {... */\n      pop\n        /* \"Dapp/Transaction.sol\":289:569  function addTransaction(address _address_from ,address _address_to, uint _amount, uint _timestamp)internal{... */\n      pop\n      pop\n      pop\n      pop\n      jump\t// out\n        /* \"#utility.yul\":7:82   */\n    tag_147:\n        /* \"#utility.yul\":40:46   */\n      0x00\n        /* \"#utility.yul\":73:75   */\n      0x40\n        /* \"#utility.yul\":67:76   */\n      mload\n        /* \"#utility.yul\":57:76   */\n      swap1\n      pop\n        /* \"#utility.yul\":7:82   */\n      swap1\n      jump\t// out\n        /* \"#utility.yul\":88:205   */\n    tag_148:\n        /* \"#utility.yul\":197:198   */\n      0x00\n        /* \"#utility.yul\":194:195   */\n      dup1\n        /* \"#utility.yul\":187:199   */\n      revert\n        /* \"#utility.yul\":211:328   */\n    tag_149:\n        /* \"#utility.yul\":320:321   */\n      0x00\n        /* \"#utility.yul\":317:318   */\n      dup1\n        /* \"#utility.yul\":310:322   */\n      revert\n        /* \"#utility.yul\":334:411   */\n    tag_150:\n        /* \"#utility.yul\":371:378   */\n      0x00\n        /* \"#utility.yul\":400:405   */\n      dup2\n        /* \"#utility.yul\":389:405   */\n      swap1\n      pop\n        /* \"#utility.yul\":334:411   */\n      swap2\n      swap1\n      pop\n      jump\t// out\n        /* \"#utility.yul\":417:539   */\n    tag_151:\n        /* \"#utility.yul\":490:514   */\n      tag_217\n        /* \"#utility.yul\":508:513   */\n      dup2\n        /* \"#utility.yul\":490:514   */\n      tag_150\n      jump\t// in\n    tag_217:\n        /* \"#utility.yul\":483:488   */\n      dup2\n        /* \"#utility.yul\":480:515   */\n      eq\n        /* \"#utility.yul\":470:533   */\n      tag_218\n      jumpi\n        /* \"#utility.yul\":529:530   */\n      0x00\n        /* \"#utility.yul\":526:527   */\n      dup1\n        /* \"#utility.yul\":519:531   */\n      revert\n        /* \"#utility.yul\":470:533   */\n    tag_218:\n        /* \"#utility.yul\":417:539   */\n      pop\n      jump\t// out\n        /* \"#utility.yul\":545:684   */\n    tag_152:\n        /* \"#utility.yul\":591:596   */\n      0x00\n        /* \"#utility.yul\":629:635   */\n      dup2\n        /* \"#utility.yul\":616:636   */\n      calldataload\n        /* \"#utility.yul\":607:636   */\n      swap1\n      pop\n        /* \"#utility.yul\":645:678   */\n      tag_220\n        /* \"#utility.yul\":672:677   */\n      dup2\n        /* \"#utility.yul\":645:678   */\n      tag_151\n      jump\t// in\n    tag_220:\n        /* \"#utility.yul\":545:684   */\n      swap3\n      swap2\n      pop\n      pop\n      jump\t// out\n        /* \"#utility.yul\":690:1019   */\n    tag_23:\n        /* \"#utility.yul\":749:755   */\n      0x00\n        /* \"#utility.yul\":798:800   */\n      0x20\n        /* \"#utility.yul\":786:795   */\n      dup3\n        /* \"#utility.yul\":777:784   */\n      dup5\n        /* \"#utility.yul\":773:796   */\n      sub\n        /* \"#utility.yul\":769:801   */\n      slt\n        /* \"#utility.yul\":766:885   */\n      iszero\n      tag_222\n      jumpi\n        /* \"#utility.yul\":804:883   */\n      tag_223\n      tag_148\n      jump\t// in\n    tag_223:\n        /* \"#utility.yul\":766:885   */\n    tag_222:\n        /* \"#utility.yul\":924:925   */\n      0x00\n        /* \"#utility.yul\":949:1002   */\n      tag_224\n        /* \"#utility.yul\":994:1001   */\n      dup5\n        /* \"#utility.yul\":985:991   */\n      dup3\n        /* \"#utility.yul\":974:983   */\n      dup6\n        /* \"#utility.yul\":970:992   */\n      add\n        /* \"#utility.yul\":949:1002   */\n      tag_152\n      jump\t// in\n    tag_224:\n        /* \"#utility.yul\":939:1002   */\n      swap2\n      pop\n        /* \"#utility.yul\":895:1012   */\n      pop\n        /* \"#utility.yul\":690:1019   */\n      swap3\n      swap2\n      pop\n      pop\n      jump\t// out\n        /* \"#utility.yul\":1025:1151   */\n    tag_153:\n        /* \"#utility.yul\":1062:1069   */\n      0x00\n        /* \"#utility.yul\":1102:1144   */\n      0xffffffffffffffffffffffffffffffffffffffff\n        /* \"#utility.yul\":1095:1100   */\n      dup3\n        /* \"#utility.yul\":1091:1145   */\n      and\n        /* \"#utility.yul\":1080:1145   */\n      swap1\n      pop\n        /* \"#utility.yul\":1025:1151   */\n      swap2\n      swap1\n      pop\n      jump\t// out\n        /* \"#utility.yul\":1157:1253   */\n    tag_154:\n        /* \"#utility.yul\":1194:1201   */\n      0x00\n        /* \"#utility.yul\":1223:1247   */\n      tag_227\n        /* \"#utility.yul\":1241:1246   */\n      dup3\n        /* \"#utility.yul\":1223:1247   */\n      tag_153\n      jump\t// in\n    tag_227:\n        /* \"#utility.yul\":1212:1247   */\n      swap1\n      pop\n        /* \"#utility.yul\":1157:1253   */\n      swap2\n      swap1\n      pop\n      jump\t// out\n        /* \"#utility.yul\":1259:1377   */\n    tag_155:\n        /* \"#utility.yul\":1346:1370   */\n      tag_229\n        /* \"#utility.yul\":1364:1369   */\n      dup2\n        /* \"#utility.yul\":1346:1370   */\n      tag_154\n      jump\t// in\n    tag_229:\n        /* \"#utility.yul\":1341:1344   */\n      dup3\n        /* \"#utility.yul\":1334:1371   */\n      mstore\n        /* \"#utility.yul\":1259:1377   */\n      pop\n      pop\n      jump\t// out\n        /* \"#utility.yul\":1383:1501   */\n    tag_156:\n        /* \"#utility.yul\":1470:1494   */\n      tag_231\n        /* \"#utility.yul\":1488:1493   */\n      dup2\n        /* \"#utility.yul\":1470:1494   */\n      tag_150\n      jump\t// in\n    tag_231:\n        /* \"#utility.yul\":1465:1468   */\n      dup3\n        /* \"#utility.yul\":1458:1495   */\n      mstore\n        /* \"#utility.yul\":1383:1501   */\n      pop\n      pop\n      jump\t// out\n        /* \"#utility.yul\":1507:2060   */\n    tag_26:\n        /* \"#utility.yul\":1684:1688   */\n      0x00\n        /* \"#utility.yul\":1722:1725   */\n      0x80\n        /* \"#utility.yul\":1711:1720   */\n      dup3\n        /* \"#utility.yul\":1707:1726   */\n      add\n        /* \"#utility.yul\":1699:1726   */\n      swap1\n      pop\n        /* \"#utility.yul\":1736:1807   */\n      tag_233\n        /* \"#utility.yul\":1804:1805   */\n      0x00\n        /* \"#utility.yul\":1793:1802   */\n      dup4\n        /* \"#utility.yul\":1789:1806   */\n      add\n        /* \"#utility.yul\":1780:1786   */\n      dup8\n        /* \"#utility.yul\":1736:1807   */\n      tag_155\n      jump\t// in\n    tag_233:\n        /* \"#utility.yul\":1817:1889   */\n      tag_234\n        /* \"#utility.yul\":1885:1887   */\n      0x20\n        /* \"#utility.yul\":1874:1883   */\n      dup4\n        /* \"#utility.yul\":1870:1888   */\n      add\n        /* \"#utility.yul\":1861:1867   */\n      dup7\n        /* \"#utility.yul\":1817:1889   */\n      tag_155\n      jump\t// in\n    tag_234:\n        /* \"#utility.yul\":1899:1971   */\n      tag_235\n        /* \"#utility.yul\":1967:1969   */\n      0x40\n        /* \"#utility.yul\":1956:1965   */\n      dup4\n        /* \"#utility.yul\":1952:1970   */\n      add\n        /* \"#utility.yul\":1943:1949   */\n      dup6\n        /* \"#utility.yul\":1899:1971   */\n      tag_156\n      jump\t// in\n    tag_235:\n        /* \"#utility.yul\":1981:2053   */\n      tag_236\n        /* \"#utility.yul\":2049:2051   */\n      0x60\n        /* \"#utility.yul\":2038:2047   */\n      dup4\n        /* \"#utility.yul\":2034:2052   */\n      add\n        /* \"#utility.yul\":2025:2031   */\n      dup5\n        /* \"#utility.yul\":1981:2053   */\n      tag_156\n      jump\t// in\n    tag_236:\n        /* \"#utility.yul\":1507:2060   */\n      swap6\n      swap5\n      pop\n      pop\n      pop\n      pop\n      pop\n      jump\t// out\n        /* \"#utility.yul\":2066:2188   */\n    tag_157:\n        /* \"#utility.yul\":2139:2163   */\n      tag_238\n        /* \"#utility.yul\":2157:2162   */\n      dup2\n        /* \"#utility.yul\":2139:2163   */\n      tag_154\n      jump\t// in\n    tag_238:\n        /* \"#utility.yul\":2132:2137   */\n      dup2\n        /* \"#utility.yul\":2129:2164   */\n      eq\n        /* \"#utility.yul\":2119:2182   */\n      tag_239\n      jumpi\n        /* \"#utility.yul\":2178:2179   */\n      0x00\n        /* \"#utility.yul\":2175:2176   */\n      dup1\n        /* \"#utility.yul\":2168:2180   */\n      revert\n        /* \"#utility.yul\":2119:2182   */\n    tag_239:\n        /* \"#utility.yul\":2066:2188   */\n      pop\n      jump\t// out\n        /* \"#utility.yul\":2194:2333   */\n    tag_158:\n        /* \"#utility.yul\":2240:2245   */\n      0x00\n        /* \"#utility.yul\":2278:2284   */\n      dup2\n        /* \"#utility.yul\":2265:2285   */\n      calldataload\n        /* \"#utility.yul\":2256:2285   */\n      swap1\n      pop\n        /* \"#utility.yul\":2294:2327   */\n      tag_241\n        /* \"#utility.yul\":2321:2326   */\n      dup2\n        /* \"#utility.yul\":2294:2327   */\n      tag_157\n      jump\t// in\n    tag_241:\n        /* \"#utility.yul\":2194:2333   */\n      swap3\n      swap2\n      pop\n      pop\n      jump\t// out\n        /* \"#utility.yul\":2339:2813   */\n    tag_29:\n        /* \"#utility.yul\":2407:2413   */\n      0x00\n        /* \"#utility.yul\":2415:2421   */\n      dup1\n        /* \"#utility.yul\":2464:2466   */\n      0x40\n        /* \"#utility.yul\":2452:2461   */\n      dup4\n        /* \"#utility.yul\":2443:2450   */\n      dup6\n        /* \"#utility.yul\":2439:2462   */\n      sub\n        /* \"#utility.yul\":2435:2467   */\n      slt\n        /* \"#utility.yul\":2432:2551   */\n      iszero\n      tag_243\n      jumpi\n        /* \"#utility.yul\":2470:2549   */\n      tag_244\n      tag_148\n      jump\t// in\n    tag_244:\n        /* \"#utility.yul\":2432:2551   */\n    tag_243:\n        /* \"#utility.yul\":2590:2591   */\n      0x00\n        /* \"#utility.yul\":2615:2668   */\n      tag_245\n        /* \"#utility.yul\":2660:2667   */\n      dup6\n        /* \"#utility.yul\":2651:2657   */\n      dup3\n        /* \"#utility.yul\":2640:2649   */\n      dup7\n        /* \"#utility.yul\":2636:2658   */\n      add\n        /* \"#utility.yul\":2615:2668   */\n      tag_152\n      jump\t// in\n    tag_245:\n        /* \"#utility.yul\":2605:2668   */\n      swap3\n      pop\n        /* \"#utility.yul\":2561:2678   */\n      pop\n        /* \"#utility.yul\":2717:2719   */\n      0x20\n        /* \"#utility.yul\":2743:2796   */\n      tag_246\n        /* \"#utility.yul\":2788:2795   */\n      dup6\n        /* \"#utility.yul\":2779:2785   */\n      dup3\n        /* \"#utility.yul\":2768:2777   */\n      dup7\n        /* \"#utility.yul\":2764:2786   */\n      add\n        /* \"#utility.yul\":2743:2796   */\n      tag_158\n      jump\t// in\n    tag_246:\n        /* \"#utility.yul\":2733:2796   */\n      swap2\n      pop\n        /* \"#utility.yul\":2688:2806   */\n      pop\n        /* \"#utility.yul\":2339:2813   */\n      swap3\n      pop\n      swap3\n      swap1\n      pop\n      jump\t// out\n        /* \"#utility.yul\":2819:3041   */\n    tag_34:\n        /* \"#utility.yul\":2912:2916   */\n      0x00\n        /* \"#utility.yul\":2950:2952   */\n      0x20\n        /* \"#utility.yul\":2939:2948   */\n      dup3\n        /* \"#utility.yul\":2935:2953   */\n      add\n        /* \"#utility.yul\":2927:2953   */\n      swap1\n      pop\n        /* \"#utility.yul\":2963:3034   */\n      tag_248\n        /* \"#utility.yul\":3031:3032   */\n      0x00\n        /* \"#utility.yul\":3020:3029   */\n      dup4\n        /* \"#utility.yul\":3016:3033   */\n      add\n        /* \"#utility.yul\":3007:3013   */\n      dup5\n        /* \"#utility.yul\":2963:3034   */\n      tag_156\n      jump\t// in\n    tag_248:\n        /* \"#utility.yul\":2819:3041   */\n      swap3\n      swap2\n      pop\n      pop\n      jump\t// out\n        /* \"#utility.yul\":3047:3164   */\n    tag_159:\n        /* \"#utility.yul\":3156:3157   */\n      0x00\n        /* \"#utility.yul\":3153:3154   */\n      dup1\n        /* \"#utility.yul\":3146:3158   */\n      revert\n        /* \"#utility.yul\":3170:3287   */\n    tag_160:\n        /* \"#utility.yul\":3279:3280   */\n      0x00\n        /* \"#utility.yul\":3276:3277   */\n      dup1\n        /* \"#utility.yul\":3269:3281   */\n      revert\n        /* \"#utility.yul\":3293:3395   */\n    tag_161:\n        /* \"#utility.yul\":3334:3340   */\n      0x00\n        /* \"#utility.yul\":3385:3387   */\n      0x1f\n        /* \"#utility.yul\":3381:3388   */\n      not\n        /* \"#utility.yul\":3376:3378   */\n      0x1f\n        /* \"#utility.yul\":3369:3374   */\n      dup4\n        /* \"#utility.yul\":3365:3379   */\n      add\n        /* \"#utility.yul\":3361:3389   */\n      and\n        /* \"#utility.yul\":3351:3389   */\n      swap1\n      pop\n        /* \"#utility.yul\":3293:3395   */\n      swap2\n      swap1\n      pop\n      jump\t// out\n        /* \"#utility.yul\":3401:3581   */\n    tag_162:\n        /* \"#utility.yul\":3449:3526   */\n      0x4e487b7100000000000000000000000000000000000000000000000000000000\n        /* \"#utility.yul\":3446:3447   */\n      0x00\n        /* \"#utility.yul\":3439:3527   */\n      mstore\n        /* \"#utility.yul\":3546:3550   */\n      0x41\n        /* \"#utility.yul\":3543:3544   */\n      0x04\n        /* \"#utility.yul\":3536:3551   */\n      mstore\n        /* \"#utility.yul\":3570:3574   */\n      0x24\n        /* \"#utility.yul\":3567:3568   */\n      0x00\n        /* \"#utility.yul\":3560:3575   */\n      revert\n        /* \"#utility.yul\":3587:3868   */\n    tag_163:\n        /* \"#utility.yul\":3670:3697   */\n      tag_254\n        /* \"#utility.yul\":3692:3696   */\n      dup3\n        /* \"#utility.yul\":3670:3697   */\n      tag_161\n      jump\t// in\n    tag_254:\n        /* \"#utility.yul\":3662:3668   */\n      dup2\n        /* \"#utility.yul\":3658:3698   */\n      add\n        /* \"#utility.yul\":3800:3806   */\n      dup2\n        /* \"#utility.yul\":3788:3798   */\n      dup2\n        /* \"#utility.yul\":3785:3807   */\n      lt\n        /* \"#utility.yul\":3764:3782   */\n      0xffffffffffffffff\n        /* \"#utility.yul\":3752:3762   */\n      dup3\n        /* \"#utility.yul\":3749:3783   */\n      gt\n        /* \"#utility.yul\":3746:3808   */\n      or\n        /* \"#utility.yul\":3743:3831   */\n      iszero\n      tag_255\n      jumpi\n        /* \"#utility.yul\":3811:3829   */\n      tag_256\n      tag_162\n      jump\t// in\n    tag_256:\n        /* \"#utility.yul\":3743:3831   */\n    tag_255:\n        /* \"#utility.yul\":3851:3861   */\n      dup1\n        /* \"#utility.yul\":3847:3849   */\n      0x40\n        /* \"#utility.yul\":3840:3862   */\n      mstore\n        /* \"#utility.yul\":3630:3868   */\n      pop\n        /* \"#utility.yul\":3587:3868   */\n      pop\n      pop\n      jump\t// out\n        /* \"#utility.yul\":3874:4003   */\n    tag_164:\n        /* \"#utility.yul\":3908:3914   */\n      0x00\n        /* \"#utility.yul\":3935:3955   */\n      tag_258\n      tag_147\n      jump\t// in\n    tag_258:\n        /* \"#utility.yul\":3925:3955   */\n      swap1\n      pop\n        /* \"#utility.yul\":3964:3997   */\n      tag_259\n        /* \"#utility.yul\":3992:3996   */\n      dup3\n        /* \"#utility.yul\":3984:3990   */\n      dup3\n        /* \"#utility.yul\":3964:3997   */\n      tag_163\n      jump\t// in\n    tag_259:\n        /* \"#utility.yul\":3874:4003   */\n      swap2\n      swap1\n      pop\n      jump\t// out\n        /* \"#utility.yul\":4009:4317   */\n    tag_165:\n        /* \"#utility.yul\":4071:4075   */\n      0x00\n        /* \"#utility.yul\":4161:4179   */\n      0xffffffffffffffff\n        /* \"#utility.yul\":4153:4159   */\n      dup3\n        /* \"#utility.yul\":4150:4180   */\n      gt\n        /* \"#utility.yul\":4147:4203   */\n      iszero\n      tag_261\n      jumpi\n        /* \"#utility.yul\":4183:4201   */\n      tag_262\n      tag_162\n      jump\t// in\n    tag_262:\n        /* \"#utility.yul\":4147:4203   */\n    tag_261:\n        /* \"#utility.yul\":4221:4250   */\n      tag_263\n        /* \"#utility.yul\":4243:4249   */\n      dup3\n        /* \"#utility.yul\":4221:4250   */\n      tag_161\n      jump\t// in\n    tag_263:\n        /* \"#utility.yul\":4213:4250   */\n      swap1\n      pop\n        /* \"#utility.yul\":4305:4309   */\n      0x20\n        /* \"#utility.yul\":4299:4303   */\n      dup2\n        /* \"#utility.yul\":4295:4310   */\n      add\n        /* \"#utility.yul\":4287:4310   */\n      swap1\n      pop\n        /* \"#utility.yul\":4009:4317   */\n      swap2\n      swap1\n      pop\n      jump\t// out\n        /* \"#utility.yul\":4323:4469   */\n    tag_166:\n        /* \"#utility.yul\":4420:4426   */\n      dup3\n        /* \"#utility.yul\":4415:4418   */\n      dup2\n        /* \"#utility.yul\":4410:4413   */\n      dup4\n        /* \"#utility.yul\":4397:4427   */\n      calldatacopy\n        /* \"#utility.yul\":4461:4462   */\n      0x00\n        /* \"#utility.yul\":4452:4458   */\n      dup4\n        /* \"#utility.yul\":4447:4450   */\n      dup4\n        /* \"#utility.yul\":4443:4459   */\n      add\n        /* \"#utility.yul\":4436:4463   */\n      mstore\n        /* \"#utility.yul\":4323:4469   */\n      pop\n      pop\n      pop\n      jump\t// out\n        /* \"#utility.yul\":4475:4900   */\n    tag_167:\n        /* \"#utility.yul\":4553:4558   */\n      0x00\n        /* \"#utility.yul\":4578:4644   */\n      tag_266\n        /* \"#utility.yul\":4594:4643   */\n      tag_267\n        /* \"#utility.yul\":4636:4642   */\n      dup5\n        /* \"#utility.yul\":4594:4643   */\n      tag_165\n      jump\t// in\n    tag_267:\n        /* \"#utility.yul\":4578:4644   */\n      tag_164\n      jump\t// in\n    tag_266:\n        /* \"#utility.yul\":4569:4644   */\n      swap1\n      pop\n        /* \"#utility.yul\":4667:4673   */\n      dup3\n        /* \"#utility.yul\":4660:4665   */\n      dup2\n        /* \"#utility.yul\":4653:4674   */\n      mstore\n        /* \"#utility.yul\":4705:4709   */\n      0x20\n        /* \"#utility.yul\":4698:4703   */\n      dup2\n        /* \"#utility.yul\":4694:4710   */\n      add\n        /* \"#utility.yul\":4743:4746   */\n      dup5\n        /* \"#utility.yul\":4734:4740   */\n      dup5\n        /* \"#utility.yul\":4729:4732   */\n      dup5\n        /* \"#utility.yul\":4725:4741   */\n      add\n        /* \"#utility.yul\":4722:4747   */\n      gt\n        /* \"#utility.yul\":4719:4831   */\n      iszero\n      tag_268\n      jumpi\n        /* \"#utility.yul\":4750:4829   */\n      tag_269\n      tag_160\n      jump\t// in\n    tag_269:\n        /* \"#utility.yul\":4719:4831   */\n    tag_268:\n        /* \"#utility.yul\":4840:4894   */\n      tag_270\n        /* \"#utility.yul\":4887:4893   */\n      dup5\n        /* \"#utility.yul\":4882:4885   */\n      dup3\n        /* \"#utility.yul\":4877:4880   */\n      dup6\n        /* \"#utility.yul\":4840:4894   */\n      tag_166\n      jump\t// in\n    tag_270:\n        /* \"#utility.yul\":4559:4900   */\n      pop\n        /* \"#utility.yul\":4475:4900   */\n      swap4\n      swap3\n      pop\n      pop\n      pop\n      jump\t// out\n        /* \"#utility.yul\":4920:5260   */\n    tag_168:\n        /* \"#utility.yul\":4976:4981   */\n      0x00\n        /* \"#utility.yul\":5025:5028   */\n      dup3\n        /* \"#utility.yul\":5018:5022   */\n      0x1f\n        /* \"#utility.yul\":5010:5016   */\n      dup4\n        /* \"#utility.yul\":5006:5023   */\n      add\n        /* \"#utility.yul\":5002:5029   */\n      slt\n        /* \"#utility.yul\":4992:5114   */\n      tag_272\n      jumpi\n        /* \"#utility.yul\":5033:5112   */\n      tag_273\n      tag_159\n      jump\t// in\n    tag_273:\n        /* \"#utility.yul\":4992:5114   */\n    tag_272:\n        /* \"#utility.yul\":5150:5156   */\n      dup2\n        /* \"#utility.yul\":5137:5157   */\n      calldataload\n        /* \"#utility.yul\":5175:5254   */\n      tag_274\n        /* \"#utility.yul\":5250:5253   */\n      dup5\n        /* \"#utility.yul\":5242:5248   */\n      dup3\n        /* \"#utility.yul\":5235:5239   */\n      0x20\n        /* \"#utility.yul\":5227:5233   */\n      dup7\n        /* \"#utility.yul\":5223:5240   */\n      add\n        /* \"#utility.yul\":5175:5254   */\n      tag_167\n      jump\t// in\n    tag_274:\n        /* \"#utility.yul\":5166:5254   */\n      swap2\n      pop\n        /* \"#utility.yul\":4982:5260   */\n      pop\n        /* \"#utility.yul\":4920:5260   */\n      swap3\n      swap2\n      pop\n      pop\n      jump\t// out\n        /* \"#utility.yul\":5266:6100   */\n    tag_37:\n        /* \"#utility.yul\":5354:5360   */\n      0x00\n        /* \"#utility.yul\":5362:5368   */\n      dup1\n        /* \"#utility.yul\":5411:5413   */\n      0x40\n        /* \"#utility.yul\":5399:5408   */\n      dup4\n        /* \"#utility.yul\":5390:5397   */\n      dup6\n        /* \"#utility.yul\":5386:5409   */\n      sub\n        /* \"#utility.yul\":5382:5414   */\n      slt\n        /* \"#utility.yul\":5379:5498   */\n      iszero\n      tag_276\n      jumpi\n        /* \"#utility.yul\":5417:5496   */\n      tag_277\n      tag_148\n      jump\t// in\n    tag_277:\n        /* \"#utility.yul\":5379:5498   */\n    tag_276:\n        /* \"#utility.yul\":5565:5566   */\n      0x00\n        /* \"#utility.yul\":5554:5563   */\n      dup4\n        /* \"#utility.yul\":5550:5567   */\n      add\n        /* \"#utility.yul\":5537:5568   */\n      calldataload\n        /* \"#utility.yul\":5595:5613   */\n      0xffffffffffffffff\n        /* \"#utility.yul\":5587:5593   */\n      dup2\n        /* \"#utility.yul\":5584:5614   */\n      gt\n        /* \"#utility.yul\":5581:5698   */\n      iszero\n      tag_278\n      jumpi\n        /* \"#utility.yul\":5617:5696   */\n      tag_279\n      tag_149\n      jump\t// in\n    tag_279:\n        /* \"#utility.yul\":5581:5698   */\n    tag_278:\n        /* \"#utility.yul\":5722:5785   */\n      tag_280\n        /* \"#utility.yul\":5777:5784   */\n      dup6\n        /* \"#utility.yul\":5768:5774   */\n      dup3\n        /* \"#utility.yul\":5757:5766   */\n      dup7\n        /* \"#utility.yul\":5753:5775   */\n      add\n        /* \"#utility.yul\":5722:5785   */\n      tag_168\n      jump\t// in\n    tag_280:\n        /* \"#utility.yul\":5712:5785   */\n      swap3\n      pop\n        /* \"#utility.yul\":5508:5795   */\n      pop\n        /* \"#utility.yul\":5862:5864   */\n      0x20\n        /* \"#utility.yul\":5851:5860   */\n      dup4\n        /* \"#utility.yul\":5847:5865   */\n      add\n        /* \"#utility.yul\":5834:5866   */\n      calldataload\n        /* \"#utility.yul\":5893:5911   */\n      0xffffffffffffffff\n        /* \"#utility.yul\":5885:5891   */\n      dup2\n        /* \"#utility.yul\":5882:5912   */\n      gt\n        /* \"#utility.yul\":5879:5996   */\n      iszero\n      tag_281\n      jumpi\n        /* \"#utility.yul\":5915:5994   */\n      tag_282\n      tag_149\n      jump\t// in\n    tag_282:\n        /* \"#utility.yul\":5879:5996   */\n    tag_281:\n        /* \"#utility.yul\":6020:6083   */\n      tag_283\n        /* \"#utility.yul\":6075:6082   */\n      dup6\n        /* \"#utility.yul\":6066:6072   */\n      dup3\n        /* \"#utility.yul\":6055:6064   */\n      dup7\n        /* \"#utility.yul\":6051:6073   */\n      add\n        /* \"#utility.yul\":6020:6083   */\n      tag_168\n      jump\t// in\n    tag_283:\n        /* \"#utility.yul\":6010:6083   */\n      swap2\n      pop\n        /* \"#utility.yul\":5805:6093   */\n      pop\n        /* \"#utility.yul\":5266:6100   */\n      swap3\n      pop\n      swap3\n      swap1\n      pop\n      jump\t// out\n        /* \"#utility.yul\":6106:6196   */\n    tag_169:\n        /* \"#utility.yul\":6140:6147   */\n      0x00\n        /* \"#utility.yul\":6183:6188   */\n      dup2\n        /* \"#utility.yul\":6176:6189   */\n      iszero\n        /* \"#utility.yul\":6169:6190   */\n      iszero\n        /* \"#utility.yul\":6158:6190   */\n      swap1\n      pop\n        /* \"#utility.yul\":6106:6196   */\n      swap2\n      swap1\n      pop\n      jump\t// out\n        /* \"#utility.yul\":6202:6311   */\n    tag_170:\n        /* \"#utility.yul\":6283:6304   */\n      tag_286\n        /* \"#utility.yul\":6298:6303   */\n      dup2\n        /* \"#utility.yul\":6283:6304   */\n      tag_169\n      jump\t// in\n    tag_286:\n        /* \"#utility.yul\":6278:6281   */\n      dup3\n        /* \"#utility.yul\":6271:6305   */\n      mstore\n        /* \"#utility.yul\":6202:6311   */\n      pop\n      pop\n      jump\t// out\n        /* \"#utility.yul\":6317:6527   */\n    tag_42:\n        /* \"#utility.yul\":6404:6408   */\n      0x00\n        /* \"#utility.yul\":6442:6444   */\n      0x20\n        /* \"#utility.yul\":6431:6440   */\n      dup3\n        /* \"#utility.yul\":6427:6445   */\n      add\n        /* \"#utility.yul\":6419:6445   */\n      swap1\n      pop\n        /* \"#utility.yul\":6455:6520   */\n      tag_288\n        /* \"#utility.yul\":6517:6518   */\n      0x00\n        /* \"#utility.yul\":6506:6515   */\n      dup4\n        /* \"#utility.yul\":6502:6519   */\n      add\n        /* \"#utility.yul\":6493:6499   */\n      dup5\n        /* \"#utility.yul\":6455:6520   */\n      tag_170\n      jump\t// in\n    tag_288:\n        /* \"#utility.yul\":6317:6527   */\n      swap3\n      swap2\n      pop\n      pop\n      jump\t// out\n        /* \"#utility.yul\":6533:6632   */\n    tag_171:\n        /* \"#utility.yul\":6585:6591   */\n      0x00\n        /* \"#utility.yul\":6619:6624   */\n      dup2\n        /* \"#utility.yul\":6613:6625   */\n      mload\n        /* \"#utility.yul\":6603:6625   */\n      swap1\n      pop\n        /* \"#utility.yul\":6533:6632   */\n      swap2\n      swap1\n      pop\n      jump\t// out\n        /* \"#utility.yul\":6638:6807   */\n    tag_172:\n        /* \"#utility.yul\":6722:6733   */\n      0x00\n        /* \"#utility.yul\":6756:6762   */\n      dup3\n        /* \"#utility.yul\":6751:6754   */\n      dup3\n        /* \"#utility.yul\":6744:6763   */\n      mstore\n        /* \"#utility.yul\":6796:6800   */\n      0x20\n        /* \"#utility.yul\":6791:6794   */\n      dup3\n        /* \"#utility.yul\":6787:6801   */\n      add\n        /* \"#utility.yul\":6772:6801   */\n      swap1\n      pop\n        /* \"#utility.yul\":6638:6807   */\n      swap3\n      swap2\n      pop\n      pop\n      jump\t// out\n        /* \"#utility.yul\":6813:7059   */\n    tag_173:\n        /* \"#utility.yul\":6894:6895   */\n      0x00\n        /* \"#utility.yul\":6904:7017   */\n    tag_292:\n        /* \"#utility.yul\":6918:6924   */\n      dup4\n        /* \"#utility.yul\":6915:6916   */\n      dup2\n        /* \"#utility.yul\":6912:6925   */\n      lt\n        /* \"#utility.yul\":6904:7017   */\n      iszero\n      tag_294\n      jumpi\n        /* \"#utility.yul\":7003:7004   */\n      dup1\n        /* \"#utility.yul\":6998:7001   */\n      dup3\n        /* \"#utility.yul\":6994:7005   */\n      add\n        /* \"#utility.yul\":6988:7006   */\n      mload\n        /* \"#utility.yul\":6984:6985   */\n      dup2\n        /* \"#utility.yul\":6979:6982   */\n      dup5\n        /* \"#utility.yul\":6975:6986   */\n      add\n        /* \"#utility.yul\":6968:7007   */\n      mstore\n        /* \"#utility.yul\":6940:6942   */\n      0x20\n        /* \"#utility.yul\":6937:6938   */\n      dup2\n        /* \"#utility.yul\":6933:6943   */\n      add\n        /* \"#utility.yul\":6928:6943   */\n      swap1\n      pop\n        /* \"#utility.yul\":6904:7017   */\n      jump(tag_292)\n    tag_294:\n        /* \"#utility.yul\":7051:7052   */\n      0x00\n        /* \"#utility.yul\":7042:7048   */\n      dup5\n        /* \"#utility.yul\":7037:7040   */\n      dup5\n        /* \"#utility.yul\":7033:7049   */\n      add\n        /* \"#utility.yul\":7026:7053   */\n      mstore\n        /* \"#utility.yul\":6875:7059   */\n      pop\n        /* \"#utility.yul\":6813:7059   */\n      pop\n      pop\n      pop\n      jump\t// out\n        /* \"#utility.yul\":7065:7442   */\n    tag_174:\n        /* \"#utility.yul\":7153:7156   */\n      0x00\n        /* \"#utility.yul\":7181:7220   */\n      tag_296\n        /* \"#utility.yul\":7214:7219   */\n      dup3\n        /* \"#utility.yul\":7181:7220   */\n      tag_171\n      jump\t// in\n    tag_296:\n        /* \"#utility.yul\":7236:7307   */\n      tag_297\n        /* \"#utility.yul\":7300:7306   */\n      dup2\n        /* \"#utility.yul\":7295:7298   */\n      dup6\n        /* \"#utility.yul\":7236:7307   */\n      tag_172\n      jump\t// in\n    tag_297:\n        /* \"#utility.yul\":7229:7307   */\n      swap4\n      pop\n        /* \"#utility.yul\":7316:7381   */\n      tag_298\n        /* \"#utility.yul\":7374:7380   */\n      dup2\n        /* \"#utility.yul\":7369:7372   */\n      dup6\n        /* \"#utility.yul\":7362:7366   */\n      0x20\n        /* \"#utility.yul\":7355:7360   */\n      dup7\n        /* \"#utility.yul\":7351:7367   */\n      add\n        /* \"#utility.yul\":7316:7381   */\n      tag_173\n      jump\t// in\n    tag_298:\n        /* \"#utility.yul\":7406:7435   */\n      tag_299\n        /* \"#utility.yul\":7428:7434   */\n      dup2\n        /* \"#utility.yul\":7406:7435   */\n      tag_161\n      jump\t// in\n    tag_299:\n        /* \"#utility.yul\":7401:7404   */\n      dup5\n        /* \"#utility.yul\":7397:7436   */\n      add\n        /* \"#utility.yul\":7390:7436   */\n      swap2\n      pop\n        /* \"#utility.yul\":7157:7442   */\n      pop\n        /* \"#utility.yul\":7065:7442   */\n      swap3\n      swap2\n      pop\n      pop\n      jump\t// out\n        /* \"#utility.yul\":7448:7761   */\n    tag_46:\n        /* \"#utility.yul\":7561:7565   */\n      0x00\n        /* \"#utility.yul\":7599:7601   */\n      0x20\n        /* \"#utility.yul\":7588:7597   */\n      dup3\n        /* \"#utility.yul\":7584:7602   */\n      add\n        /* \"#utility.yul\":7576:7602   */\n      swap1\n      pop\n        /* \"#utility.yul\":7648:7657   */\n      dup2\n        /* \"#utility.yul\":7642:7646   */\n      dup2\n        /* \"#utility.yul\":7638:7658   */\n      sub\n        /* \"#utility.yul\":7634:7635   */\n      0x00\n        /* \"#utility.yul\":7623:7632   */\n      dup4\n        /* \"#utility.yul\":7619:7636   */\n      add\n        /* \"#utility.yul\":7612:7659   */\n      mstore\n        /* \"#utility.yul\":7676:7754   */\n      tag_301\n        /* \"#utility.yul\":7749:7753   */\n      dup2\n        /* \"#utility.yul\":7740:7746   */\n      dup5\n        /* \"#utility.yul\":7676:7754   */\n      tag_174\n      jump\t// in\n    tag_301:\n        /* \"#utility.yul\":7668:7754   */\n      swap1\n      pop\n        /* \"#utility.yul\":7448:7761   */\n      swap3\n      swap2\n      pop\n      pop\n      jump\t// out\n        /* \"#utility.yul\":7767:7910   */\n    tag_175:\n        /* \"#utility.yul\":7863:7869   */\n      0x00\n        /* \"#utility.yul\":7897:7902   */\n      dup2\n        /* \"#utility.yul\":7891:7903   */\n      mload\n        /* \"#utility.yul\":7881:7903   */\n      swap1\n      pop\n        /* \"#utility.yul\":7767:7910   */\n      swap2\n      swap1\n      pop\n      jump\t// out\n        /* \"#utility.yul\":7916:8129   */\n    tag_176:\n        /* \"#utility.yul\":8044:8055   */\n      0x00\n        /* \"#utility.yul\":8078:8084   */\n      dup3\n        /* \"#utility.yul\":8073:8076   */\n      dup3\n        /* \"#utility.yul\":8066:8085   */\n      mstore\n        /* \"#utility.yul\":8118:8122   */\n      0x20\n        /* \"#utility.yul\":8113:8116   */\n      dup3\n        /* \"#utility.yul\":8109:8123   */\n      add\n        /* \"#utility.yul\":8094:8123   */\n      swap1\n      pop\n        /* \"#utility.yul\":7916:8129   */\n      swap3\n      swap2\n      pop\n      pop\n      jump\t// out\n        /* \"#utility.yul\":8135:8296   */\n    tag_177:\n        /* \"#utility.yul\":8231:8235   */\n      0x00\n        /* \"#utility.yul\":8254:8257   */\n      dup2\n        /* \"#utility.yul\":8246:8257   */\n      swap1\n      pop\n        /* \"#utility.yul\":8284:8288   */\n      0x20\n        /* \"#utility.yul\":8279:8282   */\n      dup3\n        /* \"#utility.yul\":8275:8289   */\n      add\n        /* \"#utility.yul\":8267:8289   */\n      swap1\n      pop\n        /* \"#utility.yul\":8135:8296   */\n      swap2\n      swap1\n      pop\n      jump\t// out\n        /* \"#utility.yul\":8302:8410   */\n    tag_178:\n        /* \"#utility.yul\":8379:8403   */\n      tag_306\n        /* \"#utility.yul\":8397:8402   */\n      dup2\n        /* \"#utility.yul\":8379:8403   */\n      tag_154\n      jump\t// in\n    tag_306:\n        /* \"#utility.yul\":8374:8377   */\n      dup3\n        /* \"#utility.yul\":8367:8404   */\n      mstore\n        /* \"#utility.yul\":8302:8410   */\n      pop\n      pop\n      jump\t// out\n        /* \"#utility.yul\":8416:8524   */\n    tag_179:\n        /* \"#utility.yul\":8493:8517   */\n      tag_308\n        /* \"#utility.yul\":8511:8516   */\n      dup2\n        /* \"#utility.yul\":8493:8517   */\n      tag_150\n      jump\t// in\n    tag_308:\n        /* \"#utility.yul\":8488:8491   */\n      dup3\n        /* \"#utility.yul\":8481:8518   */\n      mstore\n        /* \"#utility.yul\":8416:8524   */\n      pop\n      pop\n      jump\t// out\n        /* \"#utility.yul\":8604:9478   */\n    tag_180:\n        /* \"#utility.yul\":8749:8753   */\n      0x80\n        /* \"#utility.yul\":8744:8747   */\n      dup3\n        /* \"#utility.yul\":8740:8754   */\n      add\n        /* \"#utility.yul\":8844:8848   */\n      0x00\n        /* \"#utility.yul\":8837:8842   */\n      dup3\n        /* \"#utility.yul\":8833:8849   */\n      add\n        /* \"#utility.yul\":8827:8850   */\n      mload\n        /* \"#utility.yul\":8863:8926   */\n      tag_310\n        /* \"#utility.yul\":8920:8924   */\n      0x00\n        /* \"#utility.yul\":8915:8918   */\n      dup6\n        /* \"#utility.yul\":8911:8925   */\n      add\n        /* \"#utility.yul\":8897:8909   */\n      dup3\n        /* \"#utility.yul\":8863:8926   */\n      tag_178\n      jump\t// in\n    tag_310:\n        /* \"#utility.yul\":8764:8936   */\n      pop\n        /* \"#utility.yul\":9024:9028   */\n      0x20\n        /* \"#utility.yul\":9017:9022   */\n      dup3\n        /* \"#utility.yul\":9013:9029   */\n      add\n        /* \"#utility.yul\":9007:9030   */\n      mload\n        /* \"#utility.yul\":9043:9106   */\n      tag_311\n        /* \"#utility.yul\":9100:9104   */\n      0x20\n        /* \"#utility.yul\":9095:9098   */\n      dup6\n        /* \"#utility.yul\":9091:9105   */\n      add\n        /* \"#utility.yul\":9077:9089   */\n      dup3\n        /* \"#utility.yul\":9043:9106   */\n      tag_178\n      jump\t// in\n    tag_311:\n        /* \"#utility.yul\":8946:9116   */\n      pop\n        /* \"#utility.yul\":9200:9204   */\n      0x40\n        /* \"#utility.yul\":9193:9198   */\n      dup3\n        /* \"#utility.yul\":9189:9205   */\n      add\n        /* \"#utility.yul\":9183:9206   */\n      mload\n        /* \"#utility.yul\":9219:9282   */\n      tag_312\n        /* \"#utility.yul\":9276:9280   */\n      0x40\n        /* \"#utility.yul\":9271:9274   */\n      dup6\n        /* \"#utility.yul\":9267:9281   */\n      add\n        /* \"#utility.yul\":9253:9265   */\n      dup3\n        /* \"#utility.yul\":9219:9282   */\n      tag_179\n      jump\t// in\n    tag_312:\n        /* \"#utility.yul\":9126:9292   */\n      pop\n        /* \"#utility.yul\":9379:9383   */\n      0x60\n        /* \"#utility.yul\":9372:9377   */\n      dup3\n        /* \"#utility.yul\":9368:9384   */\n      add\n        /* \"#utility.yul\":9362:9385   */\n      mload\n        /* \"#utility.yul\":9398:9461   */\n      tag_313\n        /* \"#utility.yul\":9455:9459   */\n      0x60\n        /* \"#utility.yul\":9450:9453   */\n      dup6\n        /* \"#utility.yul\":9446:9460   */\n      add\n        /* \"#utility.yul\":9432:9444   */\n      dup3\n        /* \"#utility.yul\":9398:9461   */\n      tag_179\n      jump\t// in\n    tag_313:\n        /* \"#utility.yul\":9302:9471   */\n      pop\n        /* \"#utility.yul\":8718:9478   */\n      pop\n        /* \"#utility.yul\":8604:9478   */\n      pop\n      pop\n      jump\t// out\n        /* \"#utility.yul\":9484:9779   */\n    tag_181:\n        /* \"#utility.yul\":9611:9621   */\n      0x00\n        /* \"#utility.yul\":9632:9736   */\n      tag_315\n        /* \"#utility.yul\":9732:9735   */\n      dup4\n        /* \"#utility.yul\":9724:9730   */\n      dup4\n        /* \"#utility.yul\":9632:9736   */\n      tag_180\n      jump\t// in\n    tag_315:\n        /* \"#utility.yul\":9768:9772   */\n      0x80\n        /* \"#utility.yul\":9763:9766   */\n      dup4\n        /* \"#utility.yul\":9759:9773   */\n      add\n        /* \"#utility.yul\":9745:9773   */\n      swap1\n      pop\n        /* \"#utility.yul\":9484:9779   */\n      swap3\n      swap2\n      pop\n      pop\n      jump\t// out\n        /* \"#utility.yul\":9785:9927   */\n    tag_182:\n        /* \"#utility.yul\":9884:9888   */\n      0x00\n        /* \"#utility.yul\":9916:9920   */\n      0x20\n        /* \"#utility.yul\":9911:9914   */\n      dup3\n        /* \"#utility.yul\":9907:9921   */\n      add\n        /* \"#utility.yul\":9899:9921   */\n      swap1\n      pop\n        /* \"#utility.yul\":9785:9927   */\n      swap2\n      swap1\n      pop\n      jump\t// out\n        /* \"#utility.yul\":10011:10975   */\n    tag_183:\n        /* \"#utility.yul\":10188:10191   */\n      0x00\n        /* \"#utility.yul\":10217:10300   */\n      tag_318\n        /* \"#utility.yul\":10294:10299   */\n      dup3\n        /* \"#utility.yul\":10217:10300   */\n      tag_175\n      jump\t// in\n    tag_318:\n        /* \"#utility.yul\":10316:10431   */\n      tag_319\n        /* \"#utility.yul\":10424:10430   */\n      dup2\n        /* \"#utility.yul\":10419:10422   */\n      dup6\n        /* \"#utility.yul\":10316:10431   */\n      tag_176\n      jump\t// in\n    tag_319:\n        /* \"#utility.yul\":10309:10431   */\n      swap4\n      pop\n        /* \"#utility.yul\":10455:10540   */\n      tag_320\n        /* \"#utility.yul\":10534:10539   */\n      dup4\n        /* \"#utility.yul\":10455:10540   */\n      tag_177\n      jump\t// in\n    tag_320:\n        /* \"#utility.yul\":10563:10570   */\n      dup1\n        /* \"#utility.yul\":10594:10595   */\n      0x00\n        /* \"#utility.yul\":10579:10950   */\n    tag_321:\n        /* \"#utility.yul\":10604:10610   */\n      dup4\n        /* \"#utility.yul\":10601:10602   */\n      dup2\n        /* \"#utility.yul\":10598:10611   */\n      lt\n        /* \"#utility.yul\":10579:10950   */\n      iszero\n      tag_323\n      jumpi\n        /* \"#utility.yul\":10680:10686   */\n      dup2\n        /* \"#utility.yul\":10674:10687   */\n      mload\n        /* \"#utility.yul\":10707:10828   */\n      tag_324\n        /* \"#utility.yul\":10824:10827   */\n      dup9\n        /* \"#utility.yul\":10809:10822   */\n      dup3\n        /* \"#utility.yul\":10707:10828   */\n      tag_181\n      jump\t// in\n    tag_324:\n        /* \"#utility.yul\":10700:10828   */\n      swap8\n      pop\n        /* \"#utility.yul\":10851:10940   */\n      tag_325\n        /* \"#utility.yul\":10933:10939   */\n      dup4\n        /* \"#utility.yul\":10851:10940   */\n      tag_182\n      jump\t// in\n    tag_325:\n        /* \"#utility.yul\":10841:10940   */\n      swap3\n      pop\n        /* \"#utility.yul\":10639:10950   */\n      pop\n        /* \"#utility.yul\":10626:10627   */\n      0x01\n        /* \"#utility.yul\":10623:10624   */\n      dup2\n        /* \"#utility.yul\":10619:10628   */\n      add\n        /* \"#utility.yul\":10614:10628   */\n      swap1\n      pop\n        /* \"#utility.yul\":10579:10950   */\n      jump(tag_321)\n    tag_323:\n        /* \"#utility.yul\":10583:10597   */\n      pop\n        /* \"#utility.yul\":10966:10969   */\n      dup6\n        /* \"#utility.yul\":10959:10969   */\n      swap4\n      pop\n        /* \"#utility.yul\":10193:10975   */\n      pop\n      pop\n      pop\n        /* \"#utility.yul\":10011:10975   */\n      swap3\n      swap2\n      pop\n      pop\n      jump\t// out\n        /* \"#utility.yul\":10981:11470   */\n    tag_56:\n        /* \"#utility.yul\":11182:11186   */\n      0x00\n        /* \"#utility.yul\":11220:11222   */\n      0x20\n        /* \"#utility.yul\":11209:11218   */\n      dup3\n        /* \"#utility.yul\":11205:11223   */\n      add\n        /* \"#utility.yul\":11197:11223   */\n      swap1\n      pop\n        /* \"#utility.yul\":11269:11278   */\n      dup2\n        /* \"#utility.yul\":11263:11267   */\n      dup2\n        /* \"#utility.yul\":11259:11279   */\n      sub\n        /* \"#utility.yul\":11255:11256   */\n      0x00\n        /* \"#utility.yul\":11244:11253   */\n      dup4\n        /* \"#utility.yul\":11240:11257   */\n      add\n        /* \"#utility.yul\":11233:11280   */\n      mstore\n        /* \"#utility.yul\":11297:11463   */\n      tag_327\n        /* \"#utility.yul\":11458:11462   */\n      dup2\n        /* \"#utility.yul\":11449:11455   */\n      dup5\n        /* \"#utility.yul\":11297:11463   */\n      tag_183\n      jump\t// in\n    tag_327:\n        /* \"#utility.yul\":11289:11463   */\n      swap1\n      pop\n        /* \"#utility.yul\":10981:11470   */\n      swap3\n      swap2\n      pop\n      pop\n      jump\t// out\n        /* \"#utility.yul\":11476:11654   */\n    tag_184:\n        /* \"#utility.yul\":11616:11646   */\n      0x2054686973206164647265737320646f65736e27742065786973747300000000\n        /* \"#utility.yul\":11612:11613   */\n      0x00\n        /* \"#utility.yul\":11604:11610   */\n      dup3\n        /* \"#utility.yul\":11600:11614   */\n      add\n        /* \"#utility.yul\":11593:11647   */\n      mstore\n        /* \"#utility.yul\":11476:11654   */\n      pop\n      jump\t// out\n        /* \"#utility.yul\":11660:12026   */\n    tag_185:\n        /* \"#utility.yul\":11802:11805   */\n      0x00\n        /* \"#utility.yul\":11823:11890   */\n      tag_330\n        /* \"#utility.yul\":11887:11889   */\n      0x1c\n        /* \"#utility.yul\":11882:11885   */\n      dup4\n        /* \"#utility.yul\":11823:11890   */\n      tag_172\n      jump\t// in\n    tag_330:\n        /* \"#utility.yul\":11816:11890   */\n      swap2\n      pop\n        /* \"#utility.yul\":11899:11992   */\n      tag_331\n        /* \"#utility.yul\":11988:11991   */\n      dup3\n        /* \"#utility.yul\":11899:11992   */\n      tag_184\n      jump\t// in\n    tag_331:\n        /* \"#utility.yul\":12017:12019   */\n      0x20\n        /* \"#utility.yul\":12012:12015   */\n      dup3\n        /* \"#utility.yul\":12008:12020   */\n      add\n        /* \"#utility.yul\":12001:12020   */\n      swap1\n      pop\n        /* \"#utility.yul\":11660:12026   */\n      swap2\n      swap1\n      pop\n      jump\t// out\n        /* \"#utility.yul\":12032:12451   */\n    tag_79:\n        /* \"#utility.yul\":12198:12202   */\n      0x00\n        /* \"#utility.yul\":12236:12238   */\n      0x20\n        /* \"#utility.yul\":12225:12234   */\n      dup3\n        /* \"#utility.yul\":12221:12239   */\n      add\n        /* \"#utility.yul\":12213:12239   */\n      swap1\n      pop\n        /* \"#utility.yul\":12285:12294   */\n      dup2\n        /* \"#utility.yul\":12279:12283   */\n      dup2\n        /* \"#utility.yul\":12275:12295   */\n      sub\n        /* \"#utility.yul\":12271:12272   */\n      0x00\n        /* \"#utility.yul\":12260:12269   */\n      dup4\n        /* \"#utility.yul\":12256:12273   */\n      add\n        /* \"#utility.yul\":12249:12296   */\n      mstore\n        /* \"#utility.yul\":12313:12444   */\n      tag_333\n        /* \"#utility.yul\":12439:12443   */\n      dup2\n        /* \"#utility.yul\":12313:12444   */\n      tag_185\n      jump\t// in\n    tag_333:\n        /* \"#utility.yul\":12305:12444   */\n      swap1\n      pop\n        /* \"#utility.yul\":12032:12451   */\n      swap2\n      swap1\n      pop\n      jump\t// out\n        /* \"#utility.yul\":12457:12630   */\n    tag_186:\n        /* \"#utility.yul\":12597:12622   */\n      0x506c6561736520696e7365727420796f75722063617264000000000000000000\n        /* \"#utility.yul\":12593:12594   */\n      0x00\n        /* \"#utility.yul\":12585:12591   */\n      dup3\n        /* \"#utility.yul\":12581:12595   */\n      add\n        /* \"#utility.yul\":12574:12623   */\n      mstore\n        /* \"#utility.yul\":12457:12630   */\n      pop\n      jump\t// out\n        /* \"#utility.yul\":12636:13002   */\n    tag_187:\n        /* \"#utility.yul\":12778:12781   */\n      0x00\n        /* \"#utility.yul\":12799:12866   */\n      tag_336\n        /* \"#utility.yul\":12863:12865   */\n      0x17\n        /* \"#utility.yul\":12858:12861   */\n      dup4\n        /* \"#utility.yul\":12799:12866   */\n      tag_172\n      jump\t// in\n    tag_336:\n        /* \"#utility.yul\":12792:12866   */\n      swap2\n      pop\n        /* \"#utility.yul\":12875:12968   */\n      tag_337\n        /* \"#utility.yul\":12964:12967   */\n      dup3\n        /* \"#utility.yul\":12875:12968   */\n      tag_186\n      jump\t// in\n    tag_337:\n        /* \"#utility.yul\":12993:12995   */\n      0x20\n        /* \"#utility.yul\":12988:12991   */\n      dup3\n        /* \"#utility.yul\":12984:12996   */\n      add\n        /* \"#utility.yul\":12977:12996   */\n      swap1\n      pop\n        /* \"#utility.yul\":12636:13002   */\n      swap2\n      swap1\n      pop\n      jump\t// out\n        /* \"#utility.yul\":13008:13427   */\n    tag_83:\n        /* \"#utility.yul\":13174:13178   */\n      0x00\n        /* \"#utility.yul\":13212:13214   */\n      0x20\n        /* \"#utility.yul\":13201:13210   */\n      dup3\n        /* \"#utility.yul\":13197:13215   */\n      add\n        /* \"#utility.yul\":13189:13215   */\n      swap1\n      pop\n        /* \"#utility.yul\":13261:13270   */\n      dup2\n        /* \"#utility.yul\":13255:13259   */\n      dup2\n        /* \"#utility.yul\":13251:13271   */\n      sub\n        /* \"#utility.yul\":13247:13248   */\n      0x00\n        /* \"#utility.yul\":13236:13245   */\n      dup4\n        /* \"#utility.yul\":13232:13249   */\n      add\n        /* \"#utility.yul\":13225:13272   */\n      mstore\n        /* \"#utility.yul\":13289:13420   */\n      tag_339\n        /* \"#utility.yul\":13415:13419   */\n      dup2\n        /* \"#utility.yul\":13289:13420   */\n      tag_187\n      jump\t// in\n    tag_339:\n        /* \"#utility.yul\":13281:13420   */\n      swap1\n      pop\n        /* \"#utility.yul\":13008:13427   */\n      swap2\n      swap1\n      pop\n      jump\t// out\n        /* \"#utility.yul\":13433:13613   */\n    tag_188:\n        /* \"#utility.yul\":13481:13558   */\n      0x4e487b7100000000000000000000000000000000000000000000000000000000\n        /* \"#utility.yul\":13478:13479   */\n      0x00\n        /* \"#utility.yul\":13471:13559   */\n      mstore\n        /* \"#utility.yul\":13578:13582   */\n      0x11\n        /* \"#utility.yul\":13575:13576   */\n      0x04\n        /* \"#utility.yul\":13568:13583   */\n      mstore\n        /* \"#utility.yul\":13602:13606   */\n      0x24\n        /* \"#utility.yul\":13599:13600   */\n      0x00\n        /* \"#utility.yul\":13592:13607   */\n      revert\n        /* \"#utility.yul\":13619:13810   */\n    tag_87:\n        /* \"#utility.yul\":13659:13662   */\n      0x00\n        /* \"#utility.yul\":13678:13698   */\n      tag_342\n        /* \"#utility.yul\":13696:13697   */\n      dup3\n        /* \"#utility.yul\":13678:13698   */\n      tag_150\n      jump\t// in\n    tag_342:\n        /* \"#utility.yul\":13673:13698   */\n      swap2\n      pop\n        /* \"#utility.yul\":13712:13732   */\n      tag_343\n        /* \"#utility.yul\":13730:13731   */\n      dup4\n        /* \"#utility.yul\":13712:13732   */\n      tag_150\n      jump\t// in\n    tag_343:\n        /* \"#utility.yul\":13707:13732   */\n      swap3\n      pop\n        /* \"#utility.yul\":13755:13756   */\n      dup3\n        /* \"#utility.yul\":13752:13753   */\n      dup3\n        /* \"#utility.yul\":13748:13757   */\n      add\n        /* \"#utility.yul\":13741:13757   */\n      swap1\n      pop\n        /* \"#utility.yul\":13776:13779   */\n      dup1\n        /* \"#utility.yul\":13773:13774   */\n      dup3\n        /* \"#utility.yul\":13770:13780   */\n      gt\n        /* \"#utility.yul\":13767:13803   */\n      iszero\n      tag_344\n      jumpi\n        /* \"#utility.yul\":13783:13801   */\n      tag_345\n      tag_188\n      jump\t// in\n    tag_345:\n        /* \"#utility.yul\":13767:13803   */\n    tag_344:\n        /* \"#utility.yul\":13619:13810   */\n      swap3\n      swap2\n      pop\n      pop\n      jump\t// out\n        /* \"#utility.yul\":13816:13996   */\n    tag_91:\n        /* \"#utility.yul\":13864:13941   */\n      0x4e487b7100000000000000000000000000000000000000000000000000000000\n        /* \"#utility.yul\":13861:13862   */\n      0x00\n        /* \"#utility.yul\":13854:13942   */\n      mstore\n        /* \"#utility.yul\":13961:13965   */\n      0x01\n        /* \"#utility.yul\":13958:13959   */\n      0x04\n        /* \"#utility.yul\":13951:13966   */\n      mstore\n        /* \"#utility.yul\":13985:13989   */\n      0x24\n        /* \"#utility.yul\":13982:13983   */\n      0x00\n        /* \"#utility.yul\":13975:13990   */\n      revert\n        /* \"#utility.yul\":14002:14179   */\n    tag_189:\n        /* \"#utility.yul\":14142:14171   */\n      0x6f6e6c792035207472616e73616374696f6e7320706572206461790000000000\n        /* \"#utility.yul\":14138:14139   */\n      0x00\n        /* \"#utility.yul\":14130:14136   */\n      dup3\n        /* \"#utility.yul\":14126:14140   */\n      add\n        /* \"#utility.yul\":14119:14172   */\n      mstore\n        /* \"#utility.yul\":14002:14179   */\n      pop\n      jump\t// out\n        /* \"#utility.yul\":14185:14551   */\n    tag_190:\n        /* \"#utility.yul\":14327:14330   */\n      0x00\n        /* \"#utility.yul\":14348:14415   */\n      tag_349\n        /* \"#utility.yul\":14412:14414   */\n      0x1b\n        /* \"#utility.yul\":14407:14410   */\n      dup4\n        /* \"#utility.yul\":14348:14415   */\n      tag_172\n      jump\t// in\n    tag_349:\n        /* \"#utility.yul\":14341:14415   */\n      swap2\n      pop\n        /* \"#utility.yul\":14424:14517   */\n      tag_350\n        /* \"#utility.yul\":14513:14516   */\n      dup3\n        /* \"#utility.yul\":14424:14517   */\n      tag_189\n      jump\t// in\n    tag_350:\n        /* \"#utility.yul\":14542:14544   */\n      0x20\n        /* \"#utility.yul\":14537:14540   */\n      dup3\n        /* \"#utility.yul\":14533:14545   */\n      add\n        /* \"#utility.yul\":14526:14545   */\n      swap1\n      pop\n        /* \"#utility.yul\":14185:14551   */\n      swap2\n      swap1\n      pop\n      jump\t// out\n        /* \"#utility.yul\":14557:14976   */\n    tag_93:\n        /* \"#utility.yul\":14723:14727   */\n      0x00\n        /* \"#utility.yul\":14761:14763   */\n      0x20\n        /* \"#utility.yul\":14750:14759   */\n      dup3\n        /* \"#utility.yul\":14746:14764   */\n      add\n        /* \"#utility.yul\":14738:14764   */\n      swap1\n      pop\n        /* \"#utility.yul\":14810:14819   */\n      dup2\n        /* \"#utility.yul\":14804:14808   */\n      dup2\n        /* \"#utility.yul\":14800:14820   */\n      sub\n        /* \"#utility.yul\":14796:14797   */\n      0x00\n        /* \"#utility.yul\":14785:14794   */\n      dup4\n        /* \"#utility.yul\":14781:14798   */\n      add\n        /* \"#utility.yul\":14774:14821   */\n      mstore\n        /* \"#utility.yul\":14838:14969   */\n      tag_352\n        /* \"#utility.yul\":14964:14968   */\n      dup2\n        /* \"#utility.yul\":14838:14969   */\n      tag_190\n      jump\t// in\n    tag_352:\n        /* \"#utility.yul\":14830:14969   */\n      swap1\n      pop\n        /* \"#utility.yul\":14557:14976   */\n      swap2\n      swap1\n      pop\n      jump\t// out\n        /* \"#utility.yul\":14982:15176   */\n    tag_104:\n        /* \"#utility.yul\":15022:15026   */\n      0x00\n        /* \"#utility.yul\":15042:15062   */\n      tag_354\n        /* \"#utility.yul\":15060:15061   */\n      dup3\n        /* \"#utility.yul\":15042:15062   */\n      tag_150\n      jump\t// in\n    tag_354:\n        /* \"#utility.yul\":15037:15062   */\n      swap2\n      pop\n        /* \"#utility.yul\":15076:15096   */\n      tag_355\n        /* \"#utility.yul\":15094:15095   */\n      dup4\n        /* \"#utility.yul\":15076:15096   */\n      tag_150\n      jump\t// in\n    tag_355:\n        /* \"#utility.yul\":15071:15096   */\n      swap3\n      pop\n        /* \"#utility.yul\":15120:15121   */\n      dup3\n        /* \"#utility.yul\":15117:15118   */\n      dup3\n        /* \"#utility.yul\":15113:15122   */\n      sub\n        /* \"#utility.yul\":15105:15122   */\n      swap1\n      pop\n        /* \"#utility.yul\":15144:15145   */\n      dup2\n        /* \"#utility.yul\":15138:15142   */\n      dup2\n        /* \"#utility.yul\":15135:15146   */\n      gt\n        /* \"#utility.yul\":15132:15169   */\n      iszero\n      tag_356\n      jumpi\n        /* \"#utility.yul\":15149:15167   */\n      tag_357\n      tag_188\n      jump\t// in\n    tag_357:\n        /* \"#utility.yul\":15132:15169   */\n    tag_356:\n        /* \"#utility.yul\":14982:15176   */\n      swap3\n      swap2\n      pop\n      pop\n      jump\t// out\n        /* \"#utility.yul\":15182:15362   */\n    tag_191:\n        /* \"#utility.yul\":15230:15307   */\n      0x4e487b7100000000000000000000000000000000000000000000000000000000\n        /* \"#utility.yul\":15227:15228   */\n      0x00\n        /* \"#utility.yul\":15220:15308   */\n      mstore\n        /* \"#utility.yul\":15327:15331   */\n      0x22\n        /* \"#utility.yul\":15324:15325   */\n      0x04\n        /* \"#utility.yul\":15317:15332   */\n      mstore\n        /* \"#utility.yul\":15351:15355   */\n      0x24\n        /* \"#utility.yul\":15348:15349   */\n      0x00\n        /* \"#utility.yul\":15341:15356   */\n      revert\n        /* \"#utility.yul\":15368:15688   */\n    tag_118:\n        /* \"#utility.yul\":15412:15418   */\n      0x00\n        /* \"#utility.yul\":15449:15450   */\n      0x02\n        /* \"#utility.yul\":15443:15447   */\n      dup3\n        /* \"#utility.yul\":15439:15451   */\n      div\n        /* \"#utility.yul\":15429:15451   */\n      swap1\n      pop\n        /* \"#utility.yul\":15496:15497   */\n      0x01\n        /* \"#utility.yul\":15490:15494   */\n      dup3\n        /* \"#utility.yul\":15486:15498   */\n      and\n        /* \"#utility.yul\":15517:15535   */\n      dup1\n        /* \"#utility.yul\":15507:15588   */\n      tag_360\n      jumpi\n        /* \"#utility.yul\":15573:15577   */\n      0x7f\n        /* \"#utility.yul\":15565:15571   */\n      dup3\n        /* \"#utility.yul\":15561:15578   */\n      and\n        /* \"#utility.yul\":15551:15578   */\n      swap2\n      pop\n        /* \"#utility.yul\":15507:15588   */\n    tag_360:\n        /* \"#utility.yul\":15635:15637   */\n      0x20\n        /* \"#utility.yul\":15627:15633   */\n      dup3\n        /* \"#utility.yul\":15624:15638   */\n      lt\n        /* \"#utility.yul\":15604:15622   */\n      dup2\n        /* \"#utility.yul\":15601:15639   */\n      sub\n        /* \"#utility.yul\":15598:15682   */\n      tag_361\n      jumpi\n        /* \"#utility.yul\":15654:15672   */\n      tag_362\n      tag_191\n      jump\t// in\n    tag_362:\n        /* \"#utility.yul\":15598:15682   */\n    tag_361:\n        /* \"#utility.yul\":15419:15688   */\n      pop\n        /* \"#utility.yul\":15368:15688   */\n      swap2\n      swap1\n      pop\n      jump\t// out\n        /* \"#utility.yul\":15694:15835   */\n    tag_192:\n        /* \"#utility.yul\":15743:15747   */\n      0x00\n        /* \"#utility.yul\":15766:15769   */\n      dup2\n        /* \"#utility.yul\":15758:15769   */\n      swap1\n      pop\n        /* \"#utility.yul\":15789:15792   */\n      dup2\n        /* \"#utility.yul\":15786:15787   */\n      0x00\n        /* \"#utility.yul\":15779:15793   */\n      mstore\n        /* \"#utility.yul\":15823:15827   */\n      0x20\n        /* \"#utility.yul\":15820:15821   */\n      0x00\n        /* \"#utility.yul\":15810:15828   */\n      keccak256\n        /* \"#utility.yul\":15802:15828   */\n      swap1\n      pop\n        /* \"#utility.yul\":15694:15835   */\n      swap2\n      swap1\n      pop\n      jump\t// out\n        /* \"#utility.yul\":15841:15934   */\n    tag_193:\n        /* \"#utility.yul\":15878:15884   */\n      0x00\n        /* \"#utility.yul\":15925:15927   */\n      0x20\n        /* \"#utility.yul\":15920:15922   */\n      0x1f\n        /* \"#utility.yul\":15913:15918   */\n      dup4\n        /* \"#utility.yul\":15909:15923   */\n      add\n        /* \"#utility.yul\":15905:15928   */\n      div\n        /* \"#utility.yul\":15895:15928   */\n      swap1\n      pop\n        /* \"#utility.yul\":15841:15934   */\n      swap2\n      swap1\n      pop\n      jump\t// out\n        /* \"#utility.yul\":15940:16047   */\n    tag_194:\n        /* \"#utility.yul\":15984:15992   */\n      0x00\n        /* \"#utility.yul\":16034:16039   */\n      dup3\n        /* \"#utility.yul\":16028:16032   */\n      dup3\n        /* \"#utility.yul\":16024:16040   */\n      shl\n        /* \"#utility.yul\":16003:16040   */\n      swap1\n      pop\n        /* \"#utility.yul\":15940:16047   */\n      swap3\n      swap2\n      pop\n      pop\n      jump\t// out\n        /* \"#utility.yul\":16053:16446   */\n    tag_195:\n        /* \"#utility.yul\":16122:16128   */\n      0x00\n        /* \"#utility.yul\":16172:16173   */\n      0x08\n        /* \"#utility.yul\":16160:16170   */\n      dup4\n        /* \"#utility.yul\":16156:16174   */\n      mul\n        /* \"#utility.yul\":16195:16292   */\n      tag_367\n        /* \"#utility.yul\":16225:16291   */\n      0xffffffffffffffffffffffffffffffffffffffffffffffffffffffffffffffff\n        /* \"#utility.yul\":16214:16223   */\n      dup3\n        /* \"#utility.yul\":16195:16292   */\n      tag_194\n      jump\t// in\n    tag_367:\n        /* \"#utility.yul\":16313:16352   */\n      tag_368\n        /* \"#utility.yul\":16343:16351   */\n      dup7\n        /* \"#utility.yul\":16332:16341   */\n      dup4\n        /* \"#utility.yul\":16313:16352   */\n      tag_194\n      jump\t// in\n    tag_368:\n        /* \"#utility.yul\":16301:16352   */\n      swap6\n      pop\n        /* \"#utility.yul\":16385:16389   */\n      dup1\n        /* \"#utility.yul\":16381:16390   */\n      not\n        /* \"#utility.yul\":16374:16379   */\n      dup5\n        /* \"#utility.yul\":16370:16391   */\n      and\n        /* \"#utility.yul\":16361:16391   */\n      swap4\n      pop\n        /* \"#utility.yul\":16434:16438   */\n      dup1\n        /* \"#utility.yul\":16424:16432   */\n      dup7\n        /* \"#utility.yul\":16420:16439   */\n      and\n        /* \"#utility.yul\":16413:16418   */\n      dup5\n        /* \"#utility.yul\":16410:16440   */\n      or\n        /* \"#utility.yul\":16400:16440   */\n      swap3\n      pop\n        /* \"#utility.yul\":16129:16446   */\n      pop\n      pop\n        /* \"#utility.yul\":16053:16446   */\n      swap4\n      swap3\n      pop\n      pop\n      pop\n      jump\t// out\n        /* \"#utility.yul\":16452:16512   */\n    tag_196:\n        /* \"#utility.yul\":16480:16483   */\n      0x00\n        /* \"#utility.yul\":16501:16506   */\n      dup2\n        /* \"#utility.yul\":16494:16506   */\n      swap1\n      pop\n        /* \"#utility.yul\":16452:16512   */\n      swap2\n      swap1\n      pop\n      jump\t// out\n        /* \"#utility.yul\":16518:16660   */\n    tag_197:\n        /* \"#utility.yul\":16568:16577   */\n      0x00\n        /* \"#utility.yul\":16601:16654   */\n      tag_371\n        /* \"#utility.yul\":16619:16653   */\n      tag_372\n        /* \"#utility.yul\":16628:16652   */\n      tag_373\n        /* \"#utility.yul\":16646:16651   */\n      dup5\n        /* \"#utility.yul\":16628:16652   */\n      tag_150\n      jump\t// in\n    tag_373:\n        /* \"#utility.yul\":16619:16653   */\n      tag_196\n      jump\t// in\n    tag_372:\n        /* \"#utility.yul\":16601:16654   */\n      tag_150\n      jump\t// in\n    tag_371:\n        /* \"#utility.yul\":16588:16654   */\n      swap1\n      pop\n        /* \"#utility.yul\":16518:16660   */\n      swap2\n      swap1\n      pop\n      jump\t// out\n        /* \"#utility.yul\":16666:16741   */\n    tag_198:\n        /* \"#utility.yul\":16709:16712   */\n      0x00\n        /* \"#utility.yul\":16730:16735   */\n      dup2\n        /* \"#utility.yul\":16723:16735   */\n      swap1\n      pop\n        /* \"#utility.yul\":16666:16741   */\n      swap2\n      swap1\n      pop\n      jump\t// out\n        /* \"#utility.yul\":16747:17016   */\n    tag_199:\n        /* \"#utility.yul\":16857:16896   */\n      tag_376\n        /* \"#utility.yul\":16888:16895   */\n      dup4\n        /* \"#utility.yul\":16857:16896   */\n      tag_197\n      jump\t// in\n    tag_376:\n        /* \"#utility.yul\":16918:17009   */\n      tag_377\n        /* \"#utility.yul\":16967:17008   */\n      tag_378\n        /* \"#utility.yul\":16991:17007   */\n      dup3\n        /* \"#utility.yul\":16967:17008   */\n      tag_198\n      jump\t// in\n    tag_378:\n        /* \"#utility.yul\":16959:16965   */\n      dup5\n        /* \"#utility.yul\":16952:16956   */\n      dup5\n        /* \"#utility.yul\":16946:16957   */\n      sload\n        /* \"#utility.yul\":16918:17009   */\n      tag_195\n      jump\t// in\n    tag_377:\n        /* \"#utility.yul\":16912:16916   */\n      dup3\n        /* \"#utility.yul\":16905:17010   */\n      sstore\n        /* \"#utility.yul\":16823:17016   */\n      pop\n        /* \"#utility.yul\":16747:17016   */\n      pop\n      pop\n      pop\n      jump\t// out\n        /* \"#utility.yul\":17022:17095   */\n    tag_200:\n        /* \"#utility.yul\":17067:17070   */\n      0x00\n        /* \"#utility.yul\":17022:17095   */\n      swap1\n      jump\t// out\n        /* \"#utility.yul\":17101:17290   */\n    tag_201:\n        /* \"#utility.yul\":17178:17210   */\n      tag_381\n      tag_200\n      jump\t// in\n    tag_381:\n        /* \"#utility.yul\":17219:17284   */\n      tag_382\n        /* \"#utility.yul\":17277:17283   */\n      dup2\n        /* \"#utility.yul\":17269:17275   */\n      dup5\n        /* \"#utility.yul\":17263:17267   */\n      dup5\n        /* \"#utility.yul\":17219:17284   */\n      tag_199\n      jump\t// in\n    tag_382:\n        /* \"#utility.yul\":17154:17290   */\n      pop\n        /* \"#utility.yul\":17101:17290   */\n      pop\n      pop\n      jump\t// out\n        /* \"#utility.yul\":17296:17482   */\n    tag_202:\n        /* \"#utility.yul\":17356:17476   */\n    tag_384:\n        /* \"#utility.yul\":17373:17376   */\n      dup2\n        /* \"#utility.yul\":17366:17371   */\n      dup2\n        /* \"#utility.yul\":17363:17377   */\n      lt\n        /* \"#utility.yul\":17356:17476   */\n      iszero\n      tag_386\n      jumpi\n        /* \"#utility.yul\":17427:17466   */\n      tag_387\n        /* \"#utility.yul\":17464:17465   */\n      0x00\n        /* \"#utility.yul\":17457:17462   */\n      dup3\n        /* \"#utility.yul\":17427:17466   */\n      tag_201\n      jump\t// in\n    tag_387:\n        /* \"#utility.yul\":17400:17401   */\n      0x01\n        /* \"#utility.yul\":17393:17398   */\n      dup2\n        /* \"#utility.yul\":17389:17402   */\n      add\n        /* \"#utility.yul\":17380:17402   */\n      swap1\n      pop\n        /* \"#utility.yul\":17356:17476   */\n      jump(tag_384)\n    tag_386:\n        /* \"#utility.yul\":17296:17482   */\n      pop\n      pop\n      jump\t// out\n        /* \"#utility.yul\":17488:18031   */\n    tag_203:\n        /* \"#utility.yul\":17589:17591   */\n      0x1f\n        /* \"#utility.yul\":17584:17587   */\n      dup3\n        /* \"#utility.yul\":17581:17592   */\n      gt\n        /* \"#utility.yul\":17578:18024   */\n      iszero\n      tag_389\n      jumpi\n        /* \"#utility.yul\":17623:17661   */\n      tag_390\n        /* \"#utility.yul\":17655:17660   */\n      dup2\n        /* \"#utility.yul\":17623:17661   */\n      tag_192\n      jump\t// in\n    tag_390:\n        /* \"#utility.yul\":17707:17736   */\n      tag_391\n        /* \"#utility.yul\":17725:17735   */\n      dup5\n        /* \"#utility.yul\":17707:17736   */\n      tag_193\n      jump\t// in\n    tag_391:\n        /* \"#utility.yul\":17697:17705   */\n      dup2\n        /* \"#utility.yul\":17693:17737   */\n      add\n        /* \"#utility.yul\":17890:17892   */\n      0x20\n        /* \"#utility.yul\":17878:17888   */\n      dup6\n        /* \"#utility.yul\":17875:17893   */\n      lt\n        /* \"#utility.yul\":17872:17921   */\n      iszero\n      tag_392\n      jumpi\n        /* \"#utility.yul\":17911:17919   */\n      dup2\n        /* \"#utility.yul\":17896:17919   */\n      swap1\n      pop\n        /* \"#utility.yul\":17872:17921   */\n    tag_392:\n        /* \"#utility.yul\":17934:18014   */\n      tag_393\n        /* \"#utility.yul\":17990:18012   */\n      tag_394\n        /* \"#utility.yul\":18008:18011   */\n      dup6\n        /* \"#utility.yul\":17990:18012   */\n      tag_193\n      jump\t// in\n    tag_394:\n        /* \"#utility.yul\":17980:17988   */\n      dup4\n        /* \"#utility.yul\":17976:18013   */\n      add\n        /* \"#utility.yul\":17963:17974   */\n      dup3\n        /* \"#utility.yul\":17934:18014   */\n      tag_202\n      jump\t// in\n    tag_393:\n        /* \"#utility.yul\":17593:18024   */\n      pop\n      pop\n        /* \"#utility.yul\":17578:18024   */\n    tag_389:\n        /* \"#utility.yul\":17488:18031   */\n      pop\n      pop\n      pop\n      jump\t// out\n        /* \"#utility.yul\":18037:18154   */\n    tag_204:\n        /* \"#utility.yul\":18091:18099   */\n      0x00\n        /* \"#utility.yul\":18141:18146   */\n      dup3\n        /* \"#utility.yul\":18135:18139   */\n      dup3\n        /* \"#utility.yul\":18131:18147   */\n      shr\n        /* \"#utility.yul\":18110:18147   */\n      swap1\n      pop\n        /* \"#utility.yul\":18037:18154   */\n      swap3\n      swap2\n      pop\n      pop\n      jump\t// out\n        /* \"#utility.yul\":18160:18329   */\n    tag_205:\n        /* \"#utility.yul\":18204:18210   */\n      0x00\n        /* \"#utility.yul\":18237:18288   */\n      tag_397\n        /* \"#utility.yul\":18285:18286   */\n      0x00\n        /* \"#utility.yul\":18281:18287   */\n      not\n        /* \"#utility.yul\":18273:18278   */\n      dup5\n        /* \"#utility.yul\":18270:18271   */\n      0x08\n        /* \"#utility.yul\":18266:18279   */\n      mul\n        /* \"#utility.yul\":18237:18288   */\n      tag_204\n      jump\t// in\n    tag_397:\n        /* \"#utility.yul\":18233:18289   */\n      not\n        /* \"#utility.yul\":18318:18322   */\n      dup1\n        /* \"#utility.yul\":18312:18316   */\n      dup4\n        /* \"#utility.yul\":18308:18323   */\n      and\n        /* \"#utility.yul\":18298:18323   */\n      swap2\n      pop\n        /* \"#utility.yul\":18211:18329   */\n      pop\n        /* \"#utility.yul\":18160:18329   */\n      swap3\n      swap2\n      pop\n      pop\n      jump\t// out\n        /* \"#utility.yul\":18334:18629   */\n    tag_206:\n        /* \"#utility.yul\":18410:18414   */\n      0x00\n        /* \"#utility.yul\":18556:18585   */\n      tag_399\n        /* \"#utility.yul\":18581:18584   */\n      dup4\n        /* \"#utility.yul\":18575:18579   */\n      dup4\n        /* \"#utility.yul\":18556:18585   */\n      tag_205\n      jump\t// in\n    tag_399:\n        /* \"#utility.yul\":18548:18585   */\n      swap2\n      pop\n        /* \"#utility.yul\":18618:18621   */\n      dup3\n        /* \"#utility.yul\":18615:18616   */\n      0x02\n        /* \"#utility.yul\":18611:18622   */\n      mul\n        /* \"#utility.yul\":18605:18609   */\n      dup3\n        /* \"#utility.yul\":18602:18623   */\n      or\n        /* \"#utility.yul\":18594:18623   */\n      swap1\n      pop\n        /* \"#utility.yul\":18334:18629   */\n      swap3\n      swap2\n      pop\n      pop\n      jump\t// out\n        /* \"#utility.yul\":18634:20029   */\n    tag_109:\n        /* \"#utility.yul\":18751:18788   */\n      tag_401\n        /* \"#utility.yul\":18784:18787   */\n      dup3\n        /* \"#utility.yul\":18751:18788   */\n      tag_171\n      jump\t// in\n    tag_401:\n        /* \"#utility.yul\":18853:18871   */\n      0xffffffffffffffff\n        /* \"#utility.yul\":18845:18851   */\n      dup2\n        /* \"#utility.yul\":18842:18872   */\n      gt\n        /* \"#utility.yul\":18839:18895   */\n      iszero\n      tag_402\n      jumpi\n        /* \"#utility.yul\":18875:18893   */\n      tag_403\n      tag_162\n      jump\t// in\n    tag_403:\n        /* \"#utility.yul\":18839:18895   */\n    tag_402:\n        /* \"#utility.yul\":18919:18957   */\n      tag_404\n        /* \"#utility.yul\":18951:18955   */\n      dup3\n        /* \"#utility.yul\":18945:18956   */\n      sload\n        /* \"#utility.yul\":18919:18957   */\n      tag_118\n      jump\t// in\n    tag_404:\n        /* \"#utility.yul\":19004:19071   */\n      tag_405\n        /* \"#utility.yul\":19064:19070   */\n      dup3\n        /* \"#utility.yul\":19056:19062   */\n      dup3\n        /* \"#utility.yul\":19050:19054   */\n      dup6\n        /* \"#utility.yul\":19004:19071   */\n      tag_203\n      jump\t// in\n    tag_405:\n        /* \"#utility.yul\":19098:19099   */\n      0x00\n        /* \"#utility.yul\":19122:19126   */\n      0x20\n        /* \"#utility.yul\":19109:19126   */\n      swap1\n      pop\n        /* \"#utility.yul\":19154:19156   */\n      0x1f\n        /* \"#utility.yul\":19146:19152   */\n      dup4\n        /* \"#utility.yul\":19143:19157   */\n      gt\n        /* \"#utility.yul\":19171:19172   */\n      0x01\n        /* \"#utility.yul\":19166:19784   */\n      dup2\n      eq\n      tag_407\n      jumpi\n        /* \"#utility.yul\":19828:19829   */\n      0x00\n        /* \"#utility.yul\":19845:19851   */\n      dup5\n        /* \"#utility.yul\":19842:19919   */\n      iszero\n      tag_408\n      jumpi\n        /* \"#utility.yul\":19894:19903   */\n      dup3\n        /* \"#utility.yul\":19889:19892   */\n      dup8\n        /* \"#utility.yul\":19885:19904   */\n      add\n        /* \"#utility.yul\":19879:19905   */\n      mload\n        /* \"#utility.yul\":19870:19905   */\n      swap1\n      pop\n        /* \"#utility.yul\":19842:19919   */\n    tag_408:\n        /* \"#utility.yul\":19945:20012   */\n      tag_409\n        /* \"#utility.yul\":20005:20011   */\n      dup6\n        /* \"#utility.yul\":19998:20003   */\n      dup3\n        /* \"#utility.yul\":19945:20012   */\n      tag_206\n      jump\t// in\n    tag_409:\n        /* \"#utility.yul\":19939:19943   */\n      dup7\n        /* \"#utility.yul\":19932:20013   */\n      sstore\n        /* \"#utility.yul\":19801:20023   */\n      pop\n        /* \"#utility.yul\":19136:20023   */\n      jump(tag_406)\n        /* \"#utility.yul\":19166:19784   */\n    tag_407:\n        /* \"#utility.yul\":19218:19222   */\n      0x1f\n        /* \"#utility.yul\":19214:19223   */\n      not\n        /* \"#utility.yul\":19206:19212   */\n      dup5\n        /* \"#utility.yul\":19202:19224   */\n      and\n        /* \"#utility.yul\":19252:19289   */\n      tag_410\n        /* \"#utility.yul\":19284:19288   */\n      dup7\n        /* \"#utility.yul\":19252:19289   */\n      tag_192\n      jump\t// in\n    tag_410:\n        /* \"#utility.yul\":19311:19312   */\n      0x00\n        /* \"#utility.yul\":19325:19533   */\n    tag_411:\n        /* \"#utility.yul\":19339:19346   */\n      dup3\n        /* \"#utility.yul\":19336:19337   */\n      dup2\n        /* \"#utility.yul\":19333:19347   */\n      lt\n        /* \"#utility.yul\":19325:19533   */\n      iszero\n      tag_413\n      jumpi\n        /* \"#utility.yul\":19418:19427   */\n      dup5\n        /* \"#utility.yul\":19413:19416   */\n      dup10\n        /* \"#utility.yul\":19409:19428   */\n      add\n        /* \"#utility.yul\":19403:19429   */\n      mload\n        /* \"#utility.yul\":19395:19401   */\n      dup3\n        /* \"#utility.yul\":19388:19430   */\n      sstore\n        /* \"#utility.yul\":19469:19470   */\n      0x01\n        /* \"#utility.yul\":19461:19467   */\n      dup3\n        /* \"#utility.yul\":19457:19471   */\n      add\n        /* \"#utility.yul\":19447:19471   */\n      swap2\n      pop\n        /* \"#utility.yul\":19516:19518   */\n      0x20\n        /* \"#utility.yul\":19505:19514   */\n      dup6\n        /* \"#utility.yul\":19501:19519   */\n      add\n        /* \"#utility.yul\":19488:19519   */\n      swap5\n      pop\n        /* \"#utility.yul\":19362:19366   */\n      0x20\n        /* \"#utility.yul\":19359:19360   */\n      dup2\n        /* \"#utility.yul\":19355:19367   */\n      add\n        /* \"#utility.yul\":19350:19367   */\n      swap1\n      pop\n        /* \"#utility.yul\":19325:19533   */\n      jump(tag_411)\n    tag_413:\n        /* \"#utility.yul\":19561:19567   */\n      dup7\n        /* \"#utility.yul\":19552:19559   */\n      dup4\n        /* \"#utility.yul\":19549:19568   */\n      lt\n        /* \"#utility.yul\":19546:19725   */\n      iszero\n      tag_414\n      jumpi\n        /* \"#utility.yul\":19619:19628   */\n      dup5\n        /* \"#utility.yul\":19614:19617   */\n      dup10\n        /* \"#utility.yul\":19610:19629   */\n      add\n        /* \"#utility.yul\":19604:19630   */\n      mload\n        /* \"#utility.yul\":19662:19710   */\n      tag_415\n        /* \"#utility.yul\":19704:19708   */\n      0x1f\n        /* \"#utility.yul\":19696:19702   */\n      dup10\n        /* \"#utility.yul\":19692:19709   */\n      and\n        /* \"#utility.yul\":19681:19690   */\n      dup3\n        /* \"#utility.yul\":19662:19710   */\n      tag_205\n      jump\t// in\n    tag_415:\n        /* \"#utility.yul\":19654:19660   */\n      dup4\n        /* \"#utility.yul\":19647:19711   */\n      sstore\n        /* \"#utility.yul\":19569:19725   */\n      pop\n        /* \"#utility.yul\":19546:19725   */\n    tag_414:\n        /* \"#utility.yul\":19771:19772   */\n      0x01\n        /* \"#utility.yul\":19767:19768   */\n      0x02\n        /* \"#utility.yul\":19759:19765   */\n      dup9\n        /* \"#utility.yul\":19755:19769   */\n      mul\n        /* \"#utility.yul\":19751:19773   */\n      add\n        /* \"#utility.yul\":19745:19749   */\n      dup9\n        /* \"#utility.yul\":19738:19774   */\n      sstore\n        /* \"#utility.yul\":19173:19784   */\n      pop\n      pop\n      pop\n        /* \"#utility.yul\":19136:20023   */\n    tag_406:\n      pop\n        /* \"#utility.yul\":18726:20029   */\n      pop\n      pop\n      pop\n        /* \"#utility.yul\":18634:20029   */\n      pop\n      pop\n      jump\t// out\n        /* \"#utility.yul\":20035:20201   */\n    tag_207:\n        /* \"#utility.yul\":20175:20193   */\n      0x4e6f7420656e6f7567682066756e647300000000000000000000000000000000\n        /* \"#utility.yul\":20171:20172   */\n      0x00\n        /* \"#utility.yul\":20163:20169   */\n      dup3\n        /* \"#utility.yul\":20159:20173   */\n      add\n        /* \"#utility.yul\":20152:20194   */\n      mstore\n        /* \"#utility.yul\":20035:20201   */\n      pop\n      jump\t// out\n        /* \"#utility.yul\":20207:20573   */\n    tag_208:\n        /* \"#utility.yul\":20349:20352   */\n      0x00\n        /* \"#utility.yul\":20370:20437   */\n      tag_418\n        /* \"#utility.yul\":20434:20436   */\n      0x10\n        /* \"#utility.yul\":20429:20432   */\n      dup4\n        /* \"#utility.yul\":20370:20437   */\n      tag_172\n      jump\t// in\n    tag_418:\n        /* \"#utility.yul\":20363:20437   */\n      swap2\n      pop\n        /* \"#utility.yul\":20446:20539   */\n      tag_419\n        /* \"#utility.yul\":20535:20538   */\n      dup3\n        /* \"#utility.yul\":20446:20539   */\n      tag_207\n      jump\t// in\n    tag_419:\n        /* \"#utility.yul\":20564:20566   */\n      0x20\n        /* \"#utility.yul\":20559:20562   */\n      dup3\n        /* \"#utility.yul\":20555:20567   */\n      add\n        /* \"#utility.yul\":20548:20567   */\n      swap1\n      pop\n        /* \"#utility.yul\":20207:20573   */\n      swap2\n      swap1\n      pop\n      jump\t// out\n        /* \"#utility.yul\":20579:20998   */\n    tag_112:\n        /* \"#utility.yul\":20745:20749   */\n      0x00\n        /* \"#utility.yul\":20783:20785   */\n      0x20\n        /* \"#utility.yul\":20772:20781   */\n      dup3\n        /* \"#utility.yul\":20768:20786   */\n      add\n        /* \"#utility.yul\":20760:20786   */\n      swap1\n      pop\n        /* \"#utility.yul\":20832:20841   */\n      dup2\n        /* \"#utility.yul\":20826:20830   */\n      dup2\n        /* \"#utility.yul\":20822:20842   */\n      sub\n        /* \"#utility.yul\":20818:20819   */\n      0x00\n        /* \"#utility.yul\":20807:20816   */\n      dup4\n        /* \"#utility.yul\":20803:20820   */\n      add\n        /* \"#utility.yul\":20796:20843   */\n      mstore\n        /* \"#utility.yul\":20860:20991   */\n      tag_421\n        /* \"#utility.yul\":20986:20990   */\n      dup2\n        /* \"#utility.yul\":20860:20991   */\n      tag_208\n      jump\t// in\n    tag_421:\n        /* \"#utility.yul\":20852:20991   */\n      swap1\n      pop\n        /* \"#utility.yul\":20579:20998   */\n      swap2\n      swap1\n      pop\n      jump\t// out\n        /* \"#utility.yul\":21004:21174   */\n    tag_209:\n        /* \"#utility.yul\":21144:21166   */\n      0x4e6f2076616c6964206372656469742063617264000000000000000000000000\n        /* \"#utility.yul\":21140:21141   */\n      0x00\n        /* \"#utility.yul\":21132:21138   */\n      dup3\n        /* \"#utility.yul\":21128:21142   */\n      add\n        /* \"#utility.yul\":21121:21167   */\n      mstore\n        /* \"#utility.yul\":21004:21174   */\n      pop\n      jump\t// out\n        /* \"#utility.yul\":21180:21546   */\n    tag_210:\n        /* \"#utility.yul\":21322:21325   */\n      0x00\n        /* \"#utility.yul\":21343:21410   */\n      tag_424\n        /* \"#utility.yul\":21407:21409   */\n      0x14\n        /* \"#utility.yul\":21402:21405   */\n      dup4\n        /* \"#utility.yul\":21343:21410   */\n      tag_172\n      jump\t// in\n    tag_424:\n        /* \"#utility.yul\":21336:21410   */\n      swap2\n      pop\n        /* \"#utility.yul\":21419:21512   */\n      tag_425\n        /* \"#utility.yul\":21508:21511   */\n      dup3\n        /* \"#utility.yul\":21419:21512   */\n      tag_209\n      jump\t// in\n    tag_425:\n        /* \"#utility.yul\":21537:21539   */\n      0x20\n        /* \"#utility.yul\":21532:21535   */\n      dup3\n        /* \"#utility.yul\":21528:21540   */\n      add\n        /* \"#utility.yul\":21521:21540   */\n      swap1\n      pop\n        /* \"#utility.yul\":21180:21546   */\n      swap2\n      swap1\n      pop\n      jump\t// out\n        /* \"#utility.yul\":21552:21971   */\n    tag_123:\n        /* \"#utility.yul\":21718:21722   */\n      0x00\n        /* \"#utility.yul\":21756:21758   */\n      0x20\n        /* \"#utility.yul\":21745:21754   */\n      dup3\n        /* \"#utility.yul\":21741:21759   */\n      add\n        /* \"#utility.yul\":21733:21759   */\n      swap1\n      pop\n        /* \"#utility.yul\":21805:21814   */\n      dup2\n        /* \"#utility.yul\":21799:21803   */\n      dup2\n        /* \"#utility.yul\":21795:21815   */\n      sub\n        /* \"#utility.yul\":21791:21792   */\n      0x00\n        /* \"#utility.yul\":21780:21789   */\n      dup4\n        /* \"#utility.yul\":21776:21793   */\n      add\n        /* \"#utility.yul\":21769:21816   */\n      mstore\n        /* \"#utility.yul\":21833:21964   */\n      tag_427\n        /* \"#utility.yul\":21959:21963   */\n      dup2\n        /* \"#utility.yul\":21833:21964   */\n      tag_210\n      jump\t// in\n    tag_427:\n        /* \"#utility.yul\":21825:21964   */\n      swap1\n      pop\n        /* \"#utility.yul\":21552:21971   */\n      swap2\n      swap1\n      pop\n      jump\t// out\n\n    auxdata: 0xa2646970667358221220451668e163e360a73bc3e97eb9185288560ee76b22e119f64ddcbbb45343fd3864736f6c63430008100033\n}\n",
				"bytecode": {
					"linkReferences": {},
					"object": "608060405260006009556000600a60006101000a81548160ff0219169083151502179055503480156200003157600080fd5b50604051620017b2380380620017b28339818101604052810190620000579190620000a5565b8060028190555050620000d7565b600080fd5b6000819050919050565b6200007f816200006a565b81146200008b57600080fd5b50565b6000815190506200009f8162000074565b92915050565b600060208284031215620000be57620000bd62000065565b5b6000620000ce848285016200008e565b91505092915050565b6116cb80620000e76000396000f3fe608060405234801561001057600080fd5b50600436106100f55760003560e01c8063557ed1ba116100975780638e029c0b116100665780638e029c0b146102555780638fa118641461025f578063aa8c217c1461027d578063e21f37ce1461029b576100f5565b8063557ed1ba146101dd57806359705f81146101fb5780637b9a3f4c146102195780637eb9f57114610237576100f5565b806312a029a4116100d357806312a029a4146101675780633c626f001461018357806342fb7936146101a15780634b28f9a2146101bf576100f5565b806304ef5b21146100fa578063062a75441461012d5780630e85fa7214610149575b600080fd5b610114600480360381019061010f9190610bb3565b6102b9565b6040516101249493929190610c30565b60405180910390f35b61014760048036038101906101429190610ca1565b610339565b005b610151610671565b60405161015e9190610ce1565b60405180910390f35b610181600480360381019061017c9190610e42565b610677565b005b61018b610728565b6040516101989190610ed5565b60405180910390f35b6101a961073b565b6040516101b69190610f6f565b60405180910390f35b6101c76107c9565b6040516101d49190610ce1565b60405180910390f35b6101e56107cf565b6040516101f29190610ce1565b60405180910390f35b6102036107d7565b60405161021091906110b3565b60405180910390f35b6102216108f6565b60405161022e9190610ce1565b60405180910390f35b61023f6108fc565b60405161024c9190610ce1565b60405180910390f35b61025d610902565b005b61026761091f565b6040516102749190610f6f565b60405180910390f35b6102856109ad565b6040516102929190610ce1565b60405180910390f35b6102a36109b3565b6040516102b09190610f6f565b60405180910390f35b600081815481106102c957600080fd5b90600052602060002090600402016000915090508060000160009054906101000a900473ffffffffffffffffffffffffffffffffffffffff16908060010160009054906101000a900473ffffffffffffffffffffffffffffffffffffffff16908060020154908060030154905084565b8080600360006101000a81548173ffffffffffffffffffffffffffffffffffffffff021916908373ffffffffffffffffffffffffffffffffffffffff160217905550600073ffffffffffffffffffffffffffffffffffffffff168173ffffffffffffffffffffffffffffffffffffffff16036103ea576040517f08c379a00000000000000000000000000000000000000000000000000000000081526004016103e190611121565b60405180910390fd5b60001515600a60009054906101000a900460ff16151503610440576040517f08c379a00000000000000000000000000000000000000000000000000000000081526004016104379061118d565b60405180910390fd5b6005600954101580156104615750601e60085461045d91906111dc565b4211155b156104bc57600060098190555060006009541461048157610480611210565b5b6040517f08c379a00000000000000000000000000000000000000000000000000000000081526004016104b39061128b565b60405180910390fd5b6005600954111580156104dd5750601e6008546104d991906111dc565b4210155b156105055760006009819055506000600954146104fd576104fc611210565b5b426008819055505b81600360006101000a81548173ffffffffffffffffffffffffffffffffffffffff021916908373ffffffffffffffffffffffffffffffffffffffff1602179055508260018190555060016009600082825461056091906111dc565b92505081905550600060025411801561057c5750600154600254115b15610631576001546002600082825461059591906112ab565b92505081905550600154600760008282546105b091906111dc565b925050819055506105e733600360009054906101000a900473ffffffffffffffffffffffffffffffffffffffff1660015442610a41565b6040518060400160405280601281526020017f5472616e7366657220636f6d706c6574656400000000000000000000000000008152506004908161062b91906114eb565b5061066c565b6040517f08c379a000000000000000000000000000000000000000000000000000000000815260040161066390611609565b60405180910390fd5b505050565b60085481565b816005908161068691906114eb565b50806006908161069691906114eb565b506001600a60006101000a81548160ff021916908315150217905550426008819055506008600580546106c89061130e565b90501480156106e557506003600680546106e19061130e565b9050145b610724576040517f08c379a000000000000000000000000000000000000000000000000000000000815260040161071b90611675565b60405180910390fd5b5050565b600a60009054906101000a900460ff1681565b600680546107489061130e565b80601f01602080910402602001604051908101604052809291908181526020018280546107749061130e565b80156107c15780601f10610796576101008083540402835291602001916107c1565b820191906000526020600020905b8154815290600101906020018083116107a457829003601f168201915b505050505081565b60095481565b600042905090565b60606000805480602002602001604051908101604052809291908181526020016000905b828210156108ed57838290600052602060002090600402016040518060800160405290816000820160009054906101000a900473ffffffffffffffffffffffffffffffffffffffff1673ffffffffffffffffffffffffffffffffffffffff1673ffffffffffffffffffffffffffffffffffffffff1681526020016001820160009054906101000a900473ffffffffffffffffffffffffffffffffffffffff1673ffffffffffffffffffffffffffffffffffffffff1673ffffffffffffffffffffffffffffffffffffffff16815260200160028201548152602001600382015481525050815260200190600101906107fb565b50505050905090565b60025481565b60075481565b6000600a60006101000a81548160ff021916908315150217905550565b6005805461092c9061130e565b80601f01602080910402602001604051908101604052809291908181526020018280546109589061130e565b80156109a55780601f1061097a576101008083540402835291602001916109a5565b820191906000526020600020905b81548152906001019060200180831161098857829003601f168201915b505050505081565b60015481565b600480546109c09061130e565b80601f01602080910402602001604051908101604052809291908181526020018280546109ec9061130e565b8015610a395780601f10610a0e57610100808354040283529160200191610a39565b820191906000526020600020905b815481529060010190602001808311610a1c57829003601f168201915b505050505081565b600060405180608001604052808673ffffffffffffffffffffffffffffffffffffffff1681526020018573ffffffffffffffffffffffffffffffffffffffff168152602001848152602001838152509050600081908060018154018082558091505060019003906000526020600020906004020160009091909190915060008201518160000160006101000a81548173ffffffffffffffffffffffffffffffffffffffff021916908373ffffffffffffffffffffffffffffffffffffffff16021790555060208201518160010160006101000a81548173ffffffffffffffffffffffffffffffffffffffff021916908373ffffffffffffffffffffffffffffffffffffffff160217905550604082015181600201556060820151816003015550505050505050565b6000604051905090565b600080fd5b600080fd5b6000819050919050565b610b9081610b7d565b8114610b9b57600080fd5b50565b600081359050610bad81610b87565b92915050565b600060208284031215610bc957610bc8610b73565b5b6000610bd784828501610b9e565b91505092915050565b600073ffffffffffffffffffffffffffffffffffffffff82169050919050565b6000610c0b82610be0565b9050919050565b610c1b81610c00565b82525050565b610c2a81610b7d565b82525050565b6000608082019050610c456000830187610c12565b610c526020830186610c12565b610c5f6040830185610c21565b610c6c6060830184610c21565b95945050505050565b610c7e81610c00565b8114610c8957600080fd5b50565b600081359050610c9b81610c75565b92915050565b60008060408385031215610cb857610cb7610b73565b5b6000610cc685828601610b9e565b9250506020610cd785828601610c8c565b9150509250929050565b6000602082019050610cf66000830184610c21565b92915050565b600080fd5b600080fd5b6000601f19601f8301169050919050565b7f4e487b7100000000000000000000000000000000000000000000000000000000600052604160045260246000fd5b610d4f82610d06565b810181811067ffffffffffffffff82111715610d6e57610d6d610d17565b5b80604052505050565b6000610d81610b69565b9050610d8d8282610d46565b919050565b600067ffffffffffffffff821115610dad57610dac610d17565b5b610db682610d06565b9050602081019050919050565b82818337600083830152505050565b6000610de5610de084610d92565b610d77565b905082815260208101848484011115610e0157610e00610d01565b5b610e0c848285610dc3565b509392505050565b600082601f830112610e2957610e28610cfc565b5b8135610e39848260208601610dd2565b91505092915050565b60008060408385031215610e5957610e58610b73565b5b600083013567ffffffffffffffff811115610e7757610e76610b78565b5b610e8385828601610e14565b925050602083013567ffffffffffffffff811115610ea457610ea3610b78565b5b610eb085828601610e14565b9150509250929050565b60008115159050919050565b610ecf81610eba565b82525050565b6000602082019050610eea6000830184610ec6565b92915050565b600081519050919050565b600082825260208201905092915050565b60005b83811015610f2a578082015181840152602081019050610f0f565b60008484015250505050565b6000610f4182610ef0565b610f4b8185610efb565b9350610f5b818560208601610f0c565b610f6481610d06565b840191505092915050565b60006020820190508181036000830152610f898184610f36565b905092915050565b600081519050919050565b600082825260208201905092915050565b6000819050602082019050919050565b610fc681610c00565b82525050565b610fd581610b7d565b82525050565b608082016000820151610ff16000850182610fbd565b5060208201516110046020850182610fbd565b5060408201516110176040850182610fcc565b50606082015161102a6060850182610fcc565b50505050565b600061103c8383610fdb565b60808301905092915050565b6000602082019050919050565b600061106082610f91565b61106a8185610f9c565b935061107583610fad565b8060005b838110156110a657815161108d8882611030565b975061109883611048565b925050600181019050611079565b5085935050505092915050565b600060208201905081810360008301526110cd8184611055565b905092915050565b7f2054686973206164647265737320646f65736e27742065786973747300000000600082015250565b600061110b601c83610efb565b9150611116826110d5565b602082019050919050565b6000602082019050818103600083015261113a816110fe565b9050919050565b7f506c6561736520696e7365727420796f75722063617264000000000000000000600082015250565b6000611177601783610efb565b915061118282611141565b602082019050919050565b600060208201905081810360008301526111a68161116a565b9050919050565b7f4e487b7100000000000000000000000000000000000000000000000000000000600052601160045260246000fd5b60006111e782610b7d565b91506111f283610b7d565b925082820190508082111561120a576112096111ad565b5b92915050565b7f4e487b7100000000000000000000000000000000000000000000000000000000600052600160045260246000fd5b7f6f6e6c792035207472616e73616374696f6e7320706572206461790000000000600082015250565b6000611275601b83610efb565b91506112808261123f565b602082019050919050565b600060208201905081810360008301526112a481611268565b9050919050565b60006112b682610b7d565b91506112c183610b7d565b92508282039050818111156112d9576112d86111ad565b5b92915050565b7f4e487b7100000000000000000000000000000000000000000000000000000000600052602260045260246000fd5b6000600282049050600182168061132657607f821691505b602082108103611339576113386112df565b5b50919050565b60008190508160005260206000209050919050565b60006020601f8301049050919050565b600082821b905092915050565b6000600883026113a17fffffffffffffffffffffffffffffffffffffffffffffffffffffffffffffffff82611364565b6113ab8683611364565b95508019841693508086168417925050509392505050565b6000819050919050565b60006113e86113e36113de84610b7d565b6113c3565b610b7d565b9050919050565b6000819050919050565b611402836113cd565b61141661140e826113ef565b848454611371565b825550505050565b600090565b61142b61141e565b6114368184846113f9565b505050565b5b8181101561145a5761144f600082611423565b60018101905061143c565b5050565b601f82111561149f576114708161133f565b61147984611354565b81016020851015611488578190505b61149c61149485611354565b83018261143b565b50505b505050565b600082821c905092915050565b60006114c2600019846008026114a4565b1980831691505092915050565b60006114db83836114b1565b9150826002028217905092915050565b6114f482610ef0565b67ffffffffffffffff81111561150d5761150c610d17565b5b611517825461130e565b61152282828561145e565b600060209050601f8311600181146115555760008415611543578287015190505b61154d85826114cf565b8655506115b5565b601f1984166115638661133f565b60005b8281101561158b57848901518255600182019150602085019450602081019050611566565b868310156115a857848901516115a4601f8916826114b1565b8355505b6001600288020188555050505b505050505050565b7f4e6f7420656e6f7567682066756e647300000000000000000000000000000000600082015250565b60006115f3601083610efb565b91506115fe826115bd565b602082019050919050565b60006020820190508181036000830152611622816115e6565b9050919050565b7f4e6f2076616c6964206372656469742063617264000000000000000000000000600082015250565b600061165f601483610efb565b915061166a82611629565b602082019050919050565b6000602082019050818103600083015261168e81611652565b905091905056fea2646970667358221220451668e163e360a73bc3e97eb9185288560ee76b22e119f64ddcbbb45343fd3864736f6c63430008100033",
					"opcodes": "PUSH1 0x80 PUSH1 0x40 MSTORE PUSH1 0x0 PUSH1 0x9 SSTORE PUSH1 0x0 PUSH1 0xA PUSH1 0x0 PUSH2 0x100 EXP DUP2 SLOAD DUP2 PUSH1 0xFF MUL NOT AND SWAP1 DUP4 ISZERO ISZERO MUL OR SWAP1 SSTORE POP CALLVALUE DUP1 ISZERO PUSH3 0x31 JUMPI PUSH1 0x0 DUP1 REVERT JUMPDEST POP PUSH1 0x40 MLOAD PUSH3 0x17B2 CODESIZE SUB DUP1 PUSH3 0x17B2 DUP4 CODECOPY DUP2 DUP2 ADD PUSH1 0x40 MSTORE DUP2 ADD SWAP1 PUSH3 0x57 SWAP2 SWAP1 PUSH3 0xA5 JUMP JUMPDEST DUP1 PUSH1 0x2 DUP2 SWAP1 SSTORE POP POP PUSH3 0xD7 JUMP JUMPDEST PUSH1 0x0 DUP1 REVERT JUMPDEST PUSH1 0x0 DUP2 SWAP1 POP SWAP2 SWAP1 POP JUMP JUMPDEST PUSH3 0x7F DUP2 PUSH3 0x6A JUMP JUMPDEST DUP2 EQ PUSH3 0x8B JUMPI PUSH1 0x0 DUP1 REVERT JUMPDEST POP JUMP JUMPDEST PUSH1 0x0 DUP2 MLOAD SWAP1 POP PUSH3 0x9F DUP2 PUSH3 0x74 JUMP JUMPDEST SWAP3 SWAP2 POP POP JUMP JUMPDEST PUSH1 0x0 PUSH1 0x20 DUP3 DUP5 SUB SLT ISZERO PUSH3 0xBE JUMPI PUSH3 0xBD PUSH3 0x65 JUMP JUMPDEST JUMPDEST PUSH1 0x0 PUSH3 0xCE DUP5 DUP3 DUP6 ADD PUSH3 0x8E JUMP JUMPDEST SWAP2 POP POP SWAP3 SWAP2 POP POP JUMP JUMPDEST PUSH2 0x16CB DUP1 PUSH3 0xE7 PUSH1 0x0 CODECOPY PUSH1 0x0 RETURN INVALID PUSH1 0x80 PUSH1 0x40 MSTORE CALLVALUE DUP1 ISZERO PUSH2 0x10 JUMPI PUSH1 0x0 DUP1 REVERT JUMPDEST POP PUSH1 0x4 CALLDATASIZE LT PUSH2 0xF5 JUMPI PUSH1 0x0 CALLDATALOAD PUSH1 0xE0 SHR DUP1 PUSH4 0x557ED1BA GT PUSH2 0x97 JUMPI DUP1 PUSH4 0x8E029C0B GT PUSH2 0x66 JUMPI DUP1 PUSH4 0x8E029C0B EQ PUSH2 0x255 JUMPI DUP1 PUSH4 0x8FA11864 EQ PUSH2 0x25F JUMPI DUP1 PUSH4 0xAA8C217C EQ PUSH2 0x27D JUMPI DUP1 PUSH4 0xE21F37CE EQ PUSH2 0x29B JUMPI PUSH2 0xF5 JUMP JUMPDEST DUP1 PUSH4 0x557ED1BA EQ PUSH2 0x1DD JUMPI DUP1 PUSH4 0x59705F81 EQ PUSH2 0x1FB JUMPI DUP1 PUSH4 0x7B9A3F4C EQ PUSH2 0x219 JUMPI DUP1 PUSH4 0x7EB9F571 EQ PUSH2 0x237 JUMPI PUSH2 0xF5 JUMP JUMPDEST DUP1 PUSH4 0x12A029A4 GT PUSH2 0xD3 JUMPI DUP1 PUSH4 0x12A029A4 EQ PUSH2 0x167 JUMPI DUP1 PUSH4 0x3C626F00 EQ PUSH2 0x183 JUMPI DUP1 PUSH4 0x42FB7936 EQ PUSH2 0x1A1 JUMPI DUP1 PUSH4 0x4B28F9A2 EQ PUSH2 0x1BF JUMPI PUSH2 0xF5 JUMP JUMPDEST DUP1 PUSH4 0x4EF5B21 EQ PUSH2 0xFA JUMPI DUP1 PUSH4 0x62A7544 EQ PUSH2 0x12D JUMPI DUP1 PUSH4 0xE85FA72 EQ PUSH2 0x149 JUMPI JUMPDEST PUSH1 0x0 DUP1 REVERT JUMPDEST PUSH2 0x114 PUSH1 0x4 DUP1 CALLDATASIZE SUB DUP2 ADD SWAP1 PUSH2 0x10F SWAP2 SWAP1 PUSH2 0xBB3 JUMP JUMPDEST PUSH2 0x2B9 JUMP JUMPDEST PUSH1 0x40 MLOAD PUSH2 0x124 SWAP5 SWAP4 SWAP3 SWAP2 SWAP1 PUSH2 0xC30 JUMP JUMPDEST PUSH1 0x40 MLOAD DUP1 SWAP2 SUB SWAP1 RETURN JUMPDEST PUSH2 0x147 PUSH1 0x4 DUP1 CALLDATASIZE SUB DUP2 ADD SWAP1 PUSH2 0x142 SWAP2 SWAP1 PUSH2 0xCA1 JUMP JUMPDEST PUSH2 0x339 JUMP JUMPDEST STOP JUMPDEST PUSH2 0x151 PUSH2 0x671 JUMP JUMPDEST PUSH1 0x40 MLOAD PUSH2 0x15E SWAP2 SWAP1 PUSH2 0xCE1 JUMP JUMPDEST PUSH1 0x40 MLOAD DUP1 SWAP2 SUB SWAP1 RETURN JUMPDEST PUSH2 0x181 PUSH1 0x4 DUP1 CALLDATASIZE SUB DUP2 ADD SWAP1 PUSH2 0x17C SWAP2 SWAP1 PUSH2 0xE42 JUMP JUMPDEST PUSH2 0x677 JUMP JUMPDEST STOP JUMPDEST PUSH2 0x18B PUSH2 0x728 JUMP JUMPDEST PUSH1 0x40 MLOAD PUSH2 0x198 SWAP2 SWAP1 PUSH2 0xED5 JUMP JUMPDEST PUSH1 0x40 MLOAD DUP1 SWAP2 SUB SWAP1 RETURN JUMPDEST PUSH2 0x1A9 PUSH2 0x73B JUMP JUMPDEST PUSH1 0x40 MLOAD PUSH2 0x1B6 SWAP2 SWAP1 PUSH2 0xF6F JUMP JUMPDEST PUSH1 0x40 MLOAD DUP1 SWAP2 SUB SWAP1 RETURN JUMPDEST PUSH2 0x1C7 PUSH2 0x7C9 JUMP JUMPDEST PUSH1 0x40 MLOAD PUSH2 0x1D4 SWAP2 SWAP1 PUSH2 0xCE1 JUMP JUMPDEST PUSH1 0x40 MLOAD DUP1 SWAP2 SUB SWAP1 RETURN JUMPDEST PUSH2 0x1E5 PUSH2 0x7CF JUMP JUMPDEST PUSH1 0x40 MLOAD PUSH2 0x1F2 SWAP2 SWAP1 PUSH2 0xCE1 JUMP JUMPDEST PUSH1 0x40 MLOAD DUP1 SWAP2 SUB SWAP1 RETURN JUMPDEST PUSH2 0x203 PUSH2 0x7D7 JUMP JUMPDEST PUSH1 0x40 MLOAD PUSH2 0x210 SWAP2 SWAP1 PUSH2 0x10B3 JUMP JUMPDEST PUSH1 0x40 MLOAD DUP1 SWAP2 SUB SWAP1 RETURN JUMPDEST PUSH2 0x221 PUSH2 0x8F6 JUMP JUMPDEST PUSH1 0x40 MLOAD PUSH2 0x22E SWAP2 SWAP1 PUSH2 0xCE1 JUMP JUMPDEST PUSH1 0x40 MLOAD DUP1 SWAP2 SUB SWAP1 RETURN JUMPDEST PUSH2 0x23F PUSH2 0x8FC JUMP JUMPDEST PUSH1 0x40 MLOAD PUSH2 0x24C SWAP2 SWAP1 PUSH2 0xCE1 JUMP JUMPDEST PUSH1 0x40 MLOAD DUP1 SWAP2 SUB SWAP1 RETURN JUMPDEST PUSH2 0x25D PUSH2 0x902 JUMP JUMPDEST STOP JUMPDEST PUSH2 0x267 PUSH2 0x91F JUMP JUMPDEST PUSH1 0x40 MLOAD PUSH2 0x274 SWAP2 SWAP1 PUSH2 0xF6F JUMP JUMPDEST PUSH1 0x40 MLOAD DUP1 SWAP2 SUB SWAP1 RETURN JUMPDEST PUSH2 0x285 PUSH2 0x9AD JUMP JUMPDEST PUSH1 0x40 MLOAD PUSH2 0x292 SWAP2 SWAP1 PUSH2 0xCE1 JUMP JUMPDEST PUSH1 0x40 MLOAD DUP1 SWAP2 SUB SWAP1 RETURN JUMPDEST PUSH2 0x2A3 PUSH2 0x9B3 JUMP JUMPDEST PUSH1 0x40 MLOAD PUSH2 0x2B0 SWAP2 SWAP1 PUSH2 0xF6F JUMP JUMPDEST PUSH1 0x40 MLOAD DUP1 SWAP2 SUB SWAP1 RETURN JUMPDEST PUSH1 0x0 DUP2 DUP2 SLOAD DUP2 LT PUSH2 0x2C9 JUMPI PUSH1 0x0 DUP1 REVERT JUMPDEST SWAP1 PUSH1 0x0 MSTORE PUSH1 0x20 PUSH1 0x0 KECCAK256 SWAP1 PUSH1 0x4 MUL ADD PUSH1 0x0 SWAP2 POP SWAP1 POP DUP1 PUSH1 0x0 ADD PUSH1 0x0 SWAP1 SLOAD SWAP1 PUSH2 0x100 EXP SWAP1 DIV PUSH20 0xFFFFFFFFFFFFFFFFFFFFFFFFFFFFFFFFFFFFFFFF AND SWAP1 DUP1 PUSH1 0x1 ADD PUSH1 0x0 SWAP1 SLOAD SWAP1 PUSH2 0x100 EXP SWAP1 DIV PUSH20 0xFFFFFFFFFFFFFFFFFFFFFFFFFFFFFFFFFFFFFFFF AND SWAP1 DUP1 PUSH1 0x2 ADD SLOAD SWAP1 DUP1 PUSH1 0x3 ADD SLOAD SWAP1 POP DUP5 JUMP JUMPDEST DUP1 DUP1 PUSH1 0x3 PUSH1 0x0 PUSH2 0x100 EXP DUP2 SLOAD DUP2 PUSH20 0xFFFFFFFFFFFFFFFFFFFFFFFFFFFFFFFFFFFFFFFF MUL NOT AND SWAP1 DUP4 PUSH20 0xFFFFFFFFFFFFFFFFFFFFFFFFFFFFFFFFFFFFFFFF AND MUL OR SWAP1 SSTORE POP PUSH1 0x0 PUSH20 0xFFFFFFFFFFFFFFFFFFFFFFFFFFFFFFFFFFFFFFFF AND DUP2 PUSH20 0xFFFFFFFFFFFFFFFFFFFFFFFFFFFFFFFFFFFFFFFF AND SUB PUSH2 0x3EA JUMPI PUSH1 0x40 MLOAD PUSH32 0x8C379A000000000000000000000000000000000000000000000000000000000 DUP2 MSTORE PUSH1 0x4 ADD PUSH2 0x3E1 SWAP1 PUSH2 0x1121 JUMP JUMPDEST PUSH1 0x40 MLOAD DUP1 SWAP2 SUB SWAP1 REVERT JUMPDEST PUSH1 0x0 ISZERO ISZERO PUSH1 0xA PUSH1 0x0 SWAP1 SLOAD SWAP1 PUSH2 0x100 EXP SWAP1 DIV PUSH1 0xFF AND ISZERO ISZERO SUB PUSH2 0x440 JUMPI PUSH1 0x40 MLOAD PUSH32 0x8C379A000000000000000000000000000000000000000000000000000000000 DUP2 MSTORE PUSH1 0x4 ADD PUSH2 0x437 SWAP1 PUSH2 0x118D JUMP JUMPDEST PUSH1 0x40 MLOAD DUP1 SWAP2 SUB SWAP1 REVERT JUMPDEST PUSH1 0x5 PUSH1 0x9 SLOAD LT ISZERO DUP1 ISZERO PUSH2 0x461 JUMPI POP PUSH1 0x1E PUSH1 0x8 SLOAD PUSH2 0x45D SWAP2 SWAP1 PUSH2 0x11DC JUMP JUMPDEST TIMESTAMP GT ISZERO JUMPDEST ISZERO PUSH2 0x4BC JUMPI PUSH1 0x0 PUSH1 0x9 DUP2 SWAP1 SSTORE POP PUSH1 0x0 PUSH1 0x9 SLOAD EQ PUSH2 0x481 JUMPI PUSH2 0x480 PUSH2 0x1210 JUMP JUMPDEST JUMPDEST PUSH1 0x40 MLOAD PUSH32 0x8C379A000000000000000000000000000000000000000000000000000000000 DUP2 MSTORE PUSH1 0x4 ADD PUSH2 0x4B3 SWAP1 PUSH2 0x128B JUMP JUMPDEST PUSH1 0x40 MLOAD DUP1 SWAP2 SUB SWAP1 REVERT JUMPDEST PUSH1 0x5 PUSH1 0x9 SLOAD GT ISZERO DUP1 ISZERO PUSH2 0x4DD JUMPI POP PUSH1 0x1E PUSH1 0x8 SLOAD PUSH2 0x4D9 SWAP2 SWAP1 PUSH2 0x11DC JUMP JUMPDEST TIMESTAMP LT ISZERO JUMPDEST ISZERO PUSH2 0x505 JUMPI PUSH1 0x0 PUSH1 0x9 DUP2 SWAP1 SSTORE POP PUSH1 0x0 PUSH1 0x9 SLOAD EQ PUSH2 0x4FD JUMPI PUSH2 0x4FC PUSH2 0x1210 JUMP JUMPDEST JUMPDEST TIMESTAMP PUSH1 0x8 DUP2 SWAP1 SSTORE POP JUMPDEST DUP2 PUSH1 0x3 PUSH1 0x0 PUSH2 0x100 EXP DUP2 SLOAD DUP2 PUSH20 0xFFFFFFFFFFFFFFFFFFFFFFFFFFFFFFFFFFFFFFFF MUL NOT AND SWAP1 DUP4 PUSH20 0xFFFFFFFFFFFFFFFFFFFFFFFFFFFFFFFFFFFFFFFF AND MUL OR SWAP1 SSTORE POP DUP3 PUSH1 0x1 DUP2 SWAP1 SSTORE POP PUSH1 0x1 PUSH1 0x9 PUSH1 0x0 DUP3 DUP3 SLOAD PUSH2 0x560 SWAP2 SWAP1 PUSH2 0x11DC JUMP JUMPDEST SWAP3 POP POP DUP2 SWAP1 SSTORE POP PUSH1 0x0 PUSH1 0x2 SLOAD GT DUP1 ISZERO PUSH2 0x57C JUMPI POP PUSH1 0x1 SLOAD PUSH1 0x2 SLOAD GT JUMPDEST ISZERO PUSH2 0x631 JUMPI PUSH1 0x1 SLOAD PUSH1 0x2 PUSH1 0x0 DUP3 DUP3 SLOAD PUSH2 0x595 SWAP2 SWAP1 PUSH2 0x12AB JUMP JUMPDEST SWAP3 POP POP DUP2 SWAP1 SSTORE POP PUSH1 0x1 SLOAD PUSH1 0x7 PUSH1 0x0 DUP3 DUP3 SLOAD PUSH2 0x5B0 SWAP2 SWAP1 PUSH2 0x11DC JUMP JUMPDEST SWAP3 POP POP DUP2 SWAP1 SSTORE POP PUSH2 0x5E7 CALLER PUSH1 0x3 PUSH1 0x0 SWAP1 SLOAD SWAP1 PUSH2 0x100 EXP SWAP1 DIV PUSH20 0xFFFFFFFFFFFFFFFFFFFFFFFFFFFFFFFFFFFFFFFF AND PUSH1 0x1 SLOAD TIMESTAMP PUSH2 0xA41 JUMP JUMPDEST PUSH1 0x40 MLOAD DUP1 PUSH1 0x40 ADD PUSH1 0x40 MSTORE DUP1 PUSH1 0x12 DUP2 MSTORE PUSH1 0x20 ADD PUSH32 0x5472616E7366657220636F6D706C657465640000000000000000000000000000 DUP2 MSTORE POP PUSH1 0x4 SWAP1 DUP2 PUSH2 0x62B SWAP2 SWAP1 PUSH2 0x14EB JUMP JUMPDEST POP PUSH2 0x66C JUMP JUMPDEST PUSH1 0x40 MLOAD PUSH32 0x8C379A000000000000000000000000000000000000000000000000000000000 DUP2 MSTORE PUSH1 0x4 ADD PUSH2 0x663 SWAP1 PUSH2 0x1609 JUMP JUMPDEST PUSH1 0x40 MLOAD DUP1 SWAP2 SUB SWAP1 REVERT JUMPDEST POP POP POP JUMP JUMPDEST PUSH1 0x8 SLOAD DUP2 JUMP JUMPDEST DUP2 PUSH1 0x5 SWAP1 DUP2 PUSH2 0x686 SWAP2 SWAP1 PUSH2 0x14EB JUMP JUMPDEST POP DUP1 PUSH1 0x6 SWAP1 DUP2 PUSH2 0x696 SWAP2 SWAP1 PUSH2 0x14EB JUMP JUMPDEST POP PUSH1 0x1 PUSH1 0xA PUSH1 0x0 PUSH2 0x100 EXP DUP2 SLOAD DUP2 PUSH1 0xFF MUL NOT AND SWAP1 DUP4 ISZERO ISZERO MUL OR SWAP1 SSTORE POP TIMESTAMP PUSH1 0x8 DUP2 SWAP1 SSTORE POP PUSH1 0x8 PUSH1 0x5 DUP1 SLOAD PUSH2 0x6C8 SWAP1 PUSH2 0x130E JUMP JUMPDEST SWAP1 POP EQ DUP1 ISZERO PUSH2 0x6E5 JUMPI POP PUSH1 0x3 PUSH1 0x6 DUP1 SLOAD PUSH2 0x6E1 SWAP1 PUSH2 0x130E JUMP JUMPDEST SWAP1 POP EQ JUMPDEST PUSH2 0x724 JUMPI PUSH1 0x40 MLOAD PUSH32 0x8C379A000000000000000000000000000000000000000000000000000000000 DUP2 MSTORE PUSH1 0x4 ADD PUSH2 0x71B SWAP1 PUSH2 0x1675 JUMP JUMPDEST PUSH1 0x40 MLOAD DUP1 SWAP2 SUB SWAP1 REVERT JUMPDEST POP POP JUMP JUMPDEST PUSH1 0xA PUSH1 0x0 SWAP1 SLOAD SWAP1 PUSH2 0x100 EXP SWAP1 DIV PUSH1 0xFF AND DUP2 JUMP JUMPDEST PUSH1 0x6 DUP1 SLOAD PUSH2 0x748 SWAP1 PUSH2 0x130E JUMP JUMPDEST DUP1 PUSH1 0x1F ADD PUSH1 0x20 DUP1 SWAP2 DIV MUL PUSH1 0x20 ADD PUSH1 0x40 MLOAD SWAP1 DUP2 ADD PUSH1 0x40 MSTORE DUP1 SWAP3 SWAP2 SWAP1 DUP2 DUP2 MSTORE PUSH1 0x20 ADD DUP3 DUP1 SLOAD PUSH2 0x774 SWAP1 PUSH2 0x130E JUMP JUMPDEST DUP1 ISZERO PUSH2 0x7C1 JUMPI DUP1 PUSH1 0x1F LT PUSH2 0x796 JUMPI PUSH2 0x100 DUP1 DUP4 SLOAD DIV MUL DUP4 MSTORE SWAP2 PUSH1 0x20 ADD SWAP2 PUSH2 0x7C1 JUMP JUMPDEST DUP3 ADD SWAP2 SWAP1 PUSH1 0x0 MSTORE PUSH1 0x20 PUSH1 0x0 KECCAK256 SWAP1 JUMPDEST DUP2 SLOAD DUP2 MSTORE SWAP1 PUSH1 0x1 ADD SWAP1 PUSH1 0x20 ADD DUP1 DUP4 GT PUSH2 0x7A4 JUMPI DUP3 SWAP1 SUB PUSH1 0x1F AND DUP3 ADD SWAP2 JUMPDEST POP POP POP POP POP DUP2 JUMP JUMPDEST PUSH1 0x9 SLOAD DUP2 JUMP JUMPDEST PUSH1 0x0 TIMESTAMP SWAP1 POP SWAP1 JUMP JUMPDEST PUSH1 0x60 PUSH1 0x0 DUP1 SLOAD DUP1 PUSH1 0x20 MUL PUSH1 0x20 ADD PUSH1 0x40 MLOAD SWAP1 DUP2 ADD PUSH1 0x40 MSTORE DUP1 SWAP3 SWAP2 SWAP1 DUP2 DUP2 MSTORE PUSH1 0x20 ADD PUSH1 0x0 SWAP1 JUMPDEST DUP3 DUP3 LT ISZERO PUSH2 0x8ED JUMPI DUP4 DUP3 SWAP1 PUSH1 0x0 MSTORE PUSH1 0x20 PUSH1 0x0 KECCAK256 SWAP1 PUSH1 0x4 MUL ADD PUSH1 0x40 MLOAD DUP1 PUSH1 0x80 ADD PUSH1 0x40 MSTORE SWAP1 DUP2 PUSH1 0x0 DUP3 ADD PUSH1 0x0 SWAP1 SLOAD SWAP1 PUSH2 0x100 EXP SWAP1 DIV PUSH20 0xFFFFFFFFFFFFFFFFFFFFFFFFFFFFFFFFFFFFFFFF AND PUSH20 0xFFFFFFFFFFFFFFFFFFFFFFFFFFFFFFFFFFFFFFFF AND PUSH20 0xFFFFFFFFFFFFFFFFFFFFFFFFFFFFFFFFFFFFFFFF AND DUP2 MSTORE PUSH1 0x20 ADD PUSH1 0x1 DUP3 ADD PUSH1 0x0 SWAP1 SLOAD SWAP1 PUSH2 0x100 EXP SWAP1 DIV PUSH20 0xFFFFFFFFFFFFFFFFFFFFFFFFFFFFFFFFFFFFFFFF AND PUSH20 0xFFFFFFFFFFFFFFFFFFFFFFFFFFFFFFFFFFFFFFFF AND PUSH20 0xFFFFFFFFFFFFFFFFFFFFFFFFFFFFFFFFFFFFFFFF AND DUP2 MSTORE PUSH1 0x20 ADD PUSH1 0x2 DUP3 ADD SLOAD DUP2 MSTORE PUSH1 0x20 ADD PUSH1 0x3 DUP3 ADD SLOAD DUP2 MSTORE POP POP DUP2 MSTORE PUSH1 0x20 ADD SWAP1 PUSH1 0x1 ADD SWAP1 PUSH2 0x7FB JUMP JUMPDEST POP POP POP POP SWAP1 POP SWAP1 JUMP JUMPDEST PUSH1 0x2 SLOAD DUP2 JUMP JUMPDEST PUSH1 0x7 SLOAD DUP2 JUMP JUMPDEST PUSH1 0x0 PUSH1 0xA PUSH1 0x0 PUSH2 0x100 EXP DUP2 SLOAD DUP2 PUSH1 0xFF MUL NOT AND SWAP1 DUP4 ISZERO ISZERO MUL OR SWAP1 SSTORE POP JUMP JUMPDEST PUSH1 0x5 DUP1 SLOAD PUSH2 0x92C SWAP1 PUSH2 0x130E JUMP JUMPDEST DUP1 PUSH1 0x1F ADD PUSH1 0x20 DUP1 SWAP2 DIV MUL PUSH1 0x20 ADD PUSH1 0x40 MLOAD SWAP1 DUP2 ADD PUSH1 0x40 MSTORE DUP1 SWAP3 SWAP2 SWAP1 DUP2 DUP2 MSTORE PUSH1 0x20 ADD DUP3 DUP1 SLOAD PUSH2 0x958 SWAP1 PUSH2 0x130E JUMP JUMPDEST DUP1 ISZERO PUSH2 0x9A5 JUMPI DUP1 PUSH1 0x1F LT PUSH2 0x97A JUMPI PUSH2 0x100 DUP1 DUP4 SLOAD DIV MUL DUP4 MSTORE SWAP2 PUSH1 0x20 ADD SWAP2 PUSH2 0x9A5 JUMP JUMPDEST DUP3 ADD SWAP2 SWAP1 PUSH1 0x0 MSTORE PUSH1 0x20 PUSH1 0x0 KECCAK256 SWAP1 JUMPDEST DUP2 SLOAD DUP2 MSTORE SWAP1 PUSH1 0x1 ADD SWAP1 PUSH1 0x20 ADD DUP1 DUP4 GT PUSH2 0x988 JUMPI DUP3 SWAP1 SUB PUSH1 0x1F AND DUP3 ADD SWAP2 JUMPDEST POP POP POP POP POP DUP2 JUMP JUMPDEST PUSH1 0x1 SLOAD DUP2 JUMP JUMPDEST PUSH1 0x4 DUP1 SLOAD PUSH2 0x9C0 SWAP1 PUSH2 0x130E JUMP JUMPDEST DUP1 PUSH1 0x1F ADD PUSH1 0x20 DUP1 SWAP2 DIV MUL PUSH1 0x20 ADD PUSH1 0x40 MLOAD SWAP1 DUP2 ADD PUSH1 0x40 MSTORE DUP1 SWAP3 SWAP2 SWAP1 DUP2 DUP2 MSTORE PUSH1 0x20 ADD DUP3 DUP1 SLOAD PUSH2 0x9EC SWAP1 PUSH2 0x130E JUMP JUMPDEST DUP1 ISZERO PUSH2 0xA39 JUMPI DUP1 PUSH1 0x1F LT PUSH2 0xA0E JUMPI PUSH2 0x100 DUP1 DUP4 SLOAD DIV MUL DUP4 MSTORE SWAP2 PUSH1 0x20 ADD SWAP2 PUSH2 0xA39 JUMP JUMPDEST DUP3 ADD SWAP2 SWAP1 PUSH1 0x0 MSTORE PUSH1 0x20 PUSH1 0x0 KECCAK256 SWAP1 JUMPDEST DUP2 SLOAD DUP2 MSTORE SWAP1 PUSH1 0x1 ADD SWAP1 PUSH1 0x20 ADD DUP1 DUP4 GT PUSH2 0xA1C JUMPI DUP3 SWAP1 SUB PUSH1 0x1F AND DUP3 ADD SWAP2 JUMPDEST POP POP POP POP POP DUP2 JUMP JUMPDEST PUSH1 0x0 PUSH1 0x40 MLOAD DUP1 PUSH1 0x80 ADD PUSH1 0x40 MSTORE DUP1 DUP7 PUSH20 0xFFFFFFFFFFFFFFFFFFFFFFFFFFFFFFFFFFFFFFFF AND DUP2 MSTORE PUSH1 0x20 ADD DUP6 PUSH20 0xFFFFFFFFFFFFFFFFFFFFFFFFFFFFFFFFFFFFFFFF AND DUP2 MSTORE PUSH1 0x20 ADD DUP5 DUP2 MSTORE PUSH1 0x20 ADD DUP4 DUP2 MSTORE POP SWAP1 POP PUSH1 0x0 DUP2 SWAP1 DUP1 PUSH1 0x1 DUP2 SLOAD ADD DUP1 DUP3 SSTORE DUP1 SWAP2 POP POP PUSH1 0x1 SWAP1 SUB SWAP1 PUSH1 0x0 MSTORE PUSH1 0x20 PUSH1 0x0 KECCAK256 SWAP1 PUSH1 0x4 MUL ADD PUSH1 0x0 SWAP1 SWAP2 SWAP1 SWAP2 SWAP1 SWAP2 POP PUSH1 0x0 DUP3 ADD MLOAD DUP2 PUSH1 0x0 ADD PUSH1 0x0 PUSH2 0x100 EXP DUP2 SLOAD DUP2 PUSH20 0xFFFFFFFFFFFFFFFFFFFFFFFFFFFFFFFFFFFFFFFF MUL NOT AND SWAP1 DUP4 PUSH20 0xFFFFFFFFFFFFFFFFFFFFFFFFFFFFFFFFFFFFFFFF AND MUL OR SWAP1 SSTORE POP PUSH1 0x20 DUP3 ADD MLOAD DUP2 PUSH1 0x1 ADD PUSH1 0x0 PUSH2 0x100 EXP DUP2 SLOAD DUP2 PUSH20 0xFFFFFFFFFFFFFFFFFFFFFFFFFFFFFFFFFFFFFFFF MUL NOT AND SWAP1 DUP4 PUSH20 0xFFFFFFFFFFFFFFFFFFFFFFFFFFFFFFFFFFFFFFFF AND MUL OR SWAP1 SSTORE POP PUSH1 0x40 DUP3 ADD MLOAD DUP2 PUSH1 0x2 ADD SSTORE PUSH1 0x60 DUP3 ADD MLOAD DUP2 PUSH1 0x3 ADD SSTORE POP POP POP POP POP POP POP JUMP JUMPDEST PUSH1 0x0 PUSH1 0x40 MLOAD SWAP1 POP SWAP1 JUMP JUMPDEST PUSH1 0x0 DUP1 REVERT JUMPDEST PUSH1 0x0 DUP1 REVERT JUMPDEST PUSH1 0x0 DUP2 SWAP1 POP SWAP2 SWAP1 POP JUMP JUMPDEST PUSH2 0xB90 DUP2 PUSH2 0xB7D JUMP JUMPDEST DUP2 EQ PUSH2 0xB9B JUMPI PUSH1 0x0 DUP1 REVERT JUMPDEST POP JUMP JUMPDEST PUSH1 0x0 DUP2 CALLDATALOAD SWAP1 POP PUSH2 0xBAD DUP2 PUSH2 0xB87 JUMP JUMPDEST SWAP3 SWAP2 POP POP JUMP JUMPDEST PUSH1 0x0 PUSH1 0x20 DUP3 DUP5 SUB SLT ISZERO PUSH2 0xBC9 JUMPI PUSH2 0xBC8 PUSH2 0xB73 JUMP JUMPDEST JUMPDEST PUSH1 0x0 PUSH2 0xBD7 DUP5 DUP3 DUP6 ADD PUSH2 0xB9E JUMP JUMPDEST SWAP2 POP POP SWAP3 SWAP2 POP POP JUMP JUMPDEST PUSH1 0x0 PUSH20 0xFFFFFFFFFFFFFFFFFFFFFFFFFFFFFFFFFFFFFFFF DUP3 AND SWAP1 POP SWAP2 SWAP1 POP JUMP JUMPDEST PUSH1 0x0 PUSH2 0xC0B DUP3 PUSH2 0xBE0 JUMP JUMPDEST SWAP1 POP SWAP2 SWAP1 POP JUMP JUMPDEST PUSH2 0xC1B DUP2 PUSH2 0xC00 JUMP JUMPDEST DUP3 MSTORE POP POP JUMP JUMPDEST PUSH2 0xC2A DUP2 PUSH2 0xB7D JUMP JUMPDEST DUP3 MSTORE POP POP JUMP JUMPDEST PUSH1 0x0 PUSH1 0x80 DUP3 ADD SWAP1 POP PUSH2 0xC45 PUSH1 0x0 DUP4 ADD DUP8 PUSH2 0xC12 JUMP JUMPDEST PUSH2 0xC52 PUSH1 0x20 DUP4 ADD DUP7 PUSH2 0xC12 JUMP JUMPDEST PUSH2 0xC5F PUSH1 0x40 DUP4 ADD DUP6 PUSH2 0xC21 JUMP JUMPDEST PUSH2 0xC6C PUSH1 0x60 DUP4 ADD DUP5 PUSH2 0xC21 JUMP JUMPDEST SWAP6 SWAP5 POP POP POP POP POP JUMP JUMPDEST PUSH2 0xC7E DUP2 PUSH2 0xC00 JUMP JUMPDEST DUP2 EQ PUSH2 0xC89 JUMPI PUSH1 0x0 DUP1 REVERT JUMPDEST POP JUMP JUMPDEST PUSH1 0x0 DUP2 CALLDATALOAD SWAP1 POP PUSH2 0xC9B DUP2 PUSH2 0xC75 JUMP JUMPDEST SWAP3 SWAP2 POP POP JUMP JUMPDEST PUSH1 0x0 DUP1 PUSH1 0x40 DUP4 DUP6 SUB SLT ISZERO PUSH2 0xCB8 JUMPI PUSH2 0xCB7 PUSH2 0xB73 JUMP JUMPDEST JUMPDEST PUSH1 0x0 PUSH2 0xCC6 DUP6 DUP3 DUP7 ADD PUSH2 0xB9E JUMP JUMPDEST SWAP3 POP POP PUSH1 0x20 PUSH2 0xCD7 DUP6 DUP3 DUP7 ADD PUSH2 0xC8C JUMP JUMPDEST SWAP2 POP POP SWAP3 POP SWAP3 SWAP1 POP JUMP JUMPDEST PUSH1 0x0 PUSH1 0x20 DUP3 ADD SWAP1 POP PUSH2 0xCF6 PUSH1 0x0 DUP4 ADD DUP5 PUSH2 0xC21 JUMP JUMPDEST SWAP3 SWAP2 POP POP JUMP JUMPDEST PUSH1 0x0 DUP1 REVERT JUMPDEST PUSH1 0x0 DUP1 REVERT JUMPDEST PUSH1 0x0 PUSH1 0x1F NOT PUSH1 0x1F DUP4 ADD AND SWAP1 POP SWAP2 SWAP1 POP JUMP JUMPDEST PUSH32 0x4E487B7100000000000000000000000000000000000000000000000000000000 PUSH1 0x0 MSTORE PUSH1 0x41 PUSH1 0x4 MSTORE PUSH1 0x24 PUSH1 0x0 REVERT JUMPDEST PUSH2 0xD4F DUP3 PUSH2 0xD06 JUMP JUMPDEST DUP2 ADD DUP2 DUP2 LT PUSH8 0xFFFFFFFFFFFFFFFF DUP3 GT OR ISZERO PUSH2 0xD6E JUMPI PUSH2 0xD6D PUSH2 0xD17 JUMP JUMPDEST JUMPDEST DUP1 PUSH1 0x40 MSTORE POP POP POP JUMP JUMPDEST PUSH1 0x0 PUSH2 0xD81 PUSH2 0xB69 JUMP JUMPDEST SWAP1 POP PUSH2 0xD8D DUP3 DUP3 PUSH2 0xD46 JUMP JUMPDEST SWAP2 SWAP1 POP JUMP JUMPDEST PUSH1 0x0 PUSH8 0xFFFFFFFFFFFFFFFF DUP3 GT ISZERO PUSH2 0xDAD JUMPI PUSH2 0xDAC PUSH2 0xD17 JUMP JUMPDEST JUMPDEST PUSH2 0xDB6 DUP3 PUSH2 0xD06 JUMP JUMPDEST SWAP1 POP PUSH1 0x20 DUP2 ADD SWAP1 POP SWAP2 SWAP1 POP JUMP JUMPDEST DUP3 DUP2 DUP4 CALLDATACOPY PUSH1 0x0 DUP4 DUP4 ADD MSTORE POP POP POP JUMP JUMPDEST PUSH1 0x0 PUSH2 0xDE5 PUSH2 0xDE0 DUP5 PUSH2 0xD92 JUMP JUMPDEST PUSH2 0xD77 JUMP JUMPDEST SWAP1 POP DUP3 DUP2 MSTORE PUSH1 0x20 DUP2 ADD DUP5 DUP5 DUP5 ADD GT ISZERO PUSH2 0xE01 JUMPI PUSH2 0xE00 PUSH2 0xD01 JUMP JUMPDEST JUMPDEST PUSH2 0xE0C DUP5 DUP3 DUP6 PUSH2 0xDC3 JUMP JUMPDEST POP SWAP4 SWAP3 POP POP POP JUMP JUMPDEST PUSH1 0x0 DUP3 PUSH1 0x1F DUP4 ADD SLT PUSH2 0xE29 JUMPI PUSH2 0xE28 PUSH2 0xCFC JUMP JUMPDEST JUMPDEST DUP2 CALLDATALOAD PUSH2 0xE39 DUP5 DUP3 PUSH1 0x20 DUP7 ADD PUSH2 0xDD2 JUMP JUMPDEST SWAP2 POP POP SWAP3 SWAP2 POP POP JUMP JUMPDEST PUSH1 0x0 DUP1 PUSH1 0x40 DUP4 DUP6 SUB SLT ISZERO PUSH2 0xE59 JUMPI PUSH2 0xE58 PUSH2 0xB73 JUMP JUMPDEST JUMPDEST PUSH1 0x0 DUP4 ADD CALLDATALOAD PUSH8 0xFFFFFFFFFFFFFFFF DUP2 GT ISZERO PUSH2 0xE77 JUMPI PUSH2 0xE76 PUSH2 0xB78 JUMP JUMPDEST JUMPDEST PUSH2 0xE83 DUP6 DUP3 DUP7 ADD PUSH2 0xE14 JUMP JUMPDEST SWAP3 POP POP PUSH1 0x20 DUP4 ADD CALLDATALOAD PUSH8 0xFFFFFFFFFFFFFFFF DUP2 GT ISZERO PUSH2 0xEA4 JUMPI PUSH2 0xEA3 PUSH2 0xB78 JUMP JUMPDEST JUMPDEST PUSH2 0xEB0 DUP6 DUP3 DUP7 ADD PUSH2 0xE14 JUMP JUMPDEST SWAP2 POP POP SWAP3 POP SWAP3 SWAP1 POP JUMP JUMPDEST PUSH1 0x0 DUP2 ISZERO ISZERO SWAP1 POP SWAP2 SWAP1 POP JUMP JUMPDEST PUSH2 0xECF DUP2 PUSH2 0xEBA JUMP JUMPDEST DUP3 MSTORE POP POP JUMP JUMPDEST PUSH1 0x0 PUSH1 0x20 DUP3 ADD SWAP1 POP PUSH2 0xEEA PUSH1 0x0 DUP4 ADD DUP5 PUSH2 0xEC6 JUMP JUMPDEST SWAP3 SWAP2 POP POP JUMP JUMPDEST PUSH1 0x0 DUP2 MLOAD SWAP1 POP SWAP2 SWAP1 POP JUMP JUMPDEST PUSH1 0x0 DUP3 DUP3 MSTORE PUSH1 0x20 DUP3 ADD SWAP1 POP SWAP3 SWAP2 POP POP JUMP JUMPDEST PUSH1 0x0 JUMPDEST DUP4 DUP2 LT ISZERO PUSH2 0xF2A JUMPI DUP1 DUP3 ADD MLOAD DUP2 DUP5 ADD MSTORE PUSH1 0x20 DUP2 ADD SWAP1 POP PUSH2 0xF0F JUMP JUMPDEST PUSH1 0x0 DUP5 DUP5 ADD MSTORE POP POP POP POP JUMP JUMPDEST PUSH1 0x0 PUSH2 0xF41 DUP3 PUSH2 0xEF0 JUMP JUMPDEST PUSH2 0xF4B DUP2 DUP6 PUSH2 0xEFB JUMP JUMPDEST SWAP4 POP PUSH2 0xF5B DUP2 DUP6 PUSH1 0x20 DUP7 ADD PUSH2 0xF0C JUMP JUMPDEST PUSH2 0xF64 DUP2 PUSH2 0xD06 JUMP JUMPDEST DUP5 ADD SWAP2 POP POP SWAP3 SWAP2 POP POP JUMP JUMPDEST PUSH1 0x0 PUSH1 0x20 DUP3 ADD SWAP1 POP DUP2 DUP2 SUB PUSH1 0x0 DUP4 ADD MSTORE PUSH2 0xF89 DUP2 DUP5 PUSH2 0xF36 JUMP JUMPDEST SWAP1 POP SWAP3 SWAP2 POP POP JUMP JUMPDEST PUSH1 0x0 DUP2 MLOAD SWAP1 POP SWAP2 SWAP1 POP JUMP JUMPDEST PUSH1 0x0 DUP3 DUP3 MSTORE PUSH1 0x20 DUP3 ADD SWAP1 POP SWAP3 SWAP2 POP POP JUMP JUMPDEST PUSH1 0x0 DUP2 SWAP1 POP PUSH1 0x20 DUP3 ADD SWAP1 POP SWAP2 SWAP1 POP JUMP JUMPDEST PUSH2 0xFC6 DUP2 PUSH2 0xC00 JUMP JUMPDEST DUP3 MSTORE POP POP JUMP JUMPDEST PUSH2 0xFD5 DUP2 PUSH2 0xB7D JUMP JUMPDEST DUP3 MSTORE POP POP JUMP JUMPDEST PUSH1 0x80 DUP3 ADD PUSH1 0x0 DUP3 ADD MLOAD PUSH2 0xFF1 PUSH1 0x0 DUP6 ADD DUP3 PUSH2 0xFBD JUMP JUMPDEST POP PUSH1 0x20 DUP3 ADD MLOAD PUSH2 0x1004 PUSH1 0x20 DUP6 ADD DUP3 PUSH2 0xFBD JUMP JUMPDEST POP PUSH1 0x40 DUP3 ADD MLOAD PUSH2 0x1017 PUSH1 0x40 DUP6 ADD DUP3 PUSH2 0xFCC JUMP JUMPDEST POP PUSH1 0x60 DUP3 ADD MLOAD PUSH2 0x102A PUSH1 0x60 DUP6 ADD DUP3 PUSH2 0xFCC JUMP JUMPDEST POP POP POP POP JUMP JUMPDEST PUSH1 0x0 PUSH2 0x103C DUP4 DUP4 PUSH2 0xFDB JUMP JUMPDEST PUSH1 0x80 DUP4 ADD SWAP1 POP SWAP3 SWAP2 POP POP JUMP JUMPDEST PUSH1 0x0 PUSH1 0x20 DUP3 ADD SWAP1 POP SWAP2 SWAP1 POP JUMP JUMPDEST PUSH1 0x0 PUSH2 0x1060 DUP3 PUSH2 0xF91 JUMP JUMPDEST PUSH2 0x106A DUP2 DUP6 PUSH2 0xF9C JUMP JUMPDEST SWAP4 POP PUSH2 0x1075 DUP4 PUSH2 0xFAD JUMP JUMPDEST DUP1 PUSH1 0x0 JUMPDEST DUP4 DUP2 LT ISZERO PUSH2 0x10A6 JUMPI DUP2 MLOAD PUSH2 0x108D DUP9 DUP3 PUSH2 0x1030 JUMP JUMPDEST SWAP8 POP PUSH2 0x1098 DUP4 PUSH2 0x1048 JUMP JUMPDEST SWAP3 POP POP PUSH1 0x1 DUP2 ADD SWAP1 POP PUSH2 0x1079 JUMP JUMPDEST POP DUP6 SWAP4 POP POP POP POP SWAP3 SWAP2 POP POP JUMP JUMPDEST PUSH1 0x0 PUSH1 0x20 DUP3 ADD SWAP1 POP DUP2 DUP2 SUB PUSH1 0x0 DUP4 ADD MSTORE PUSH2 0x10CD DUP2 DUP5 PUSH2 0x1055 JUMP JUMPDEST SWAP1 POP SWAP3 SWAP2 POP POP JUMP JUMPDEST PUSH32 0x2054686973206164647265737320646F65736E27742065786973747300000000 PUSH1 0x0 DUP3 ADD MSTORE POP JUMP JUMPDEST PUSH1 0x0 PUSH2 0x110B PUSH1 0x1C DUP4 PUSH2 0xEFB JUMP JUMPDEST SWAP2 POP PUSH2 0x1116 DUP3 PUSH2 0x10D5 JUMP JUMPDEST PUSH1 0x20 DUP3 ADD SWAP1 POP SWAP2 SWAP1 POP JUMP JUMPDEST PUSH1 0x0 PUSH1 0x20 DUP3 ADD SWAP1 POP DUP2 DUP2 SUB PUSH1 0x0 DUP4 ADD MSTORE PUSH2 0x113A DUP2 PUSH2 0x10FE JUMP JUMPDEST SWAP1 POP SWAP2 SWAP1 POP JUMP JUMPDEST PUSH32 0x506C6561736520696E7365727420796F75722063617264000000000000000000 PUSH1 0x0 DUP3 ADD MSTORE POP JUMP JUMPDEST PUSH1 0x0 PUSH2 0x1177 PUSH1 0x17 DUP4 PUSH2 0xEFB JUMP JUMPDEST SWAP2 POP PUSH2 0x1182 DUP3 PUSH2 0x1141 JUMP JUMPDEST PUSH1 0x20 DUP3 ADD SWAP1 POP SWAP2 SWAP1 POP JUMP JUMPDEST PUSH1 0x0 PUSH1 0x20 DUP3 ADD SWAP1 POP DUP2 DUP2 SUB PUSH1 0x0 DUP4 ADD MSTORE PUSH2 0x11A6 DUP2 PUSH2 0x116A JUMP JUMPDEST SWAP1 POP SWAP2 SWAP1 POP JUMP JUMPDEST PUSH32 0x4E487B7100000000000000000000000000000000000000000000000000000000 PUSH1 0x0 MSTORE PUSH1 0x11 PUSH1 0x4 MSTORE PUSH1 0x24 PUSH1 0x0 REVERT JUMPDEST PUSH1 0x0 PUSH2 0x11E7 DUP3 PUSH2 0xB7D JUMP JUMPDEST SWAP2 POP PUSH2 0x11F2 DUP4 PUSH2 0xB7D JUMP JUMPDEST SWAP3 POP DUP3 DUP3 ADD SWAP1 POP DUP1 DUP3 GT ISZERO PUSH2 0x120A JUMPI PUSH2 0x1209 PUSH2 0x11AD JUMP JUMPDEST JUMPDEST SWAP3 SWAP2 POP POP JUMP JUMPDEST PUSH32 0x4E487B7100000000000000000000000000000000000000000000000000000000 PUSH1 0x0 MSTORE PUSH1 0x1 PUSH1 0x4 MSTORE PUSH1 0x24 PUSH1 0x0 REVERT JUMPDEST PUSH32 0x6F6E6C792035207472616E73616374696F6E7320706572206461790000000000 PUSH1 0x0 DUP3 ADD MSTORE POP JUMP JUMPDEST PUSH1 0x0 PUSH2 0x1275 PUSH1 0x1B DUP4 PUSH2 0xEFB JUMP JUMPDEST SWAP2 POP PUSH2 0x1280 DUP3 PUSH2 0x123F JUMP JUMPDEST PUSH1 0x20 DUP3 ADD SWAP1 POP SWAP2 SWAP1 POP JUMP JUMPDEST PUSH1 0x0 PUSH1 0x20 DUP3 ADD SWAP1 POP DUP2 DUP2 SUB PUSH1 0x0 DUP4 ADD MSTORE PUSH2 0x12A4 DUP2 PUSH2 0x1268 JUMP JUMPDEST SWAP1 POP SWAP2 SWAP1 POP JUMP JUMPDEST PUSH1 0x0 PUSH2 0x12B6 DUP3 PUSH2 0xB7D JUMP JUMPDEST SWAP2 POP PUSH2 0x12C1 DUP4 PUSH2 0xB7D JUMP JUMPDEST SWAP3 POP DUP3 DUP3 SUB SWAP1 POP DUP2 DUP2 GT ISZERO PUSH2 0x12D9 JUMPI PUSH2 0x12D8 PUSH2 0x11AD JUMP JUMPDEST JUMPDEST SWAP3 SWAP2 POP POP JUMP JUMPDEST PUSH32 0x4E487B7100000000000000000000000000000000000000000000000000000000 PUSH1 0x0 MSTORE PUSH1 0x22 PUSH1 0x4 MSTORE PUSH1 0x24 PUSH1 0x0 REVERT JUMPDEST PUSH1 0x0 PUSH1 0x2 DUP3 DIV SWAP1 POP PUSH1 0x1 DUP3 AND DUP1 PUSH2 0x1326 JUMPI PUSH1 0x7F DUP3 AND SWAP2 POP JUMPDEST PUSH1 0x20 DUP3 LT DUP2 SUB PUSH2 0x1339 JUMPI PUSH2 0x1338 PUSH2 0x12DF JUMP JUMPDEST JUMPDEST POP SWAP2 SWAP1 POP JUMP JUMPDEST PUSH1 0x0 DUP2 SWAP1 POP DUP2 PUSH1 0x0 MSTORE PUSH1 0x20 PUSH1 0x0 KECCAK256 SWAP1 POP SWAP2 SWAP1 POP JUMP JUMPDEST PUSH1 0x0 PUSH1 0x20 PUSH1 0x1F DUP4 ADD DIV SWAP1 POP SWAP2 SWAP1 POP JUMP JUMPDEST PUSH1 0x0 DUP3 DUP3 SHL SWAP1 POP SWAP3 SWAP2 POP POP JUMP JUMPDEST PUSH1 0x0 PUSH1 0x8 DUP4 MUL PUSH2 0x13A1 PUSH32 0xFFFFFFFFFFFFFFFFFFFFFFFFFFFFFFFFFFFFFFFFFFFFFFFFFFFFFFFFFFFFFFFF DUP3 PUSH2 0x1364 JUMP JUMPDEST PUSH2 0x13AB DUP7 DUP4 PUSH2 0x1364 JUMP JUMPDEST SWAP6 POP DUP1 NOT DUP5 AND SWAP4 POP DUP1 DUP7 AND DUP5 OR SWAP3 POP POP POP SWAP4 SWAP3 POP POP POP JUMP JUMPDEST PUSH1 0x0 DUP2 SWAP1 POP SWAP2 SWAP1 POP JUMP JUMPDEST PUSH1 0x0 PUSH2 0x13E8 PUSH2 0x13E3 PUSH2 0x13DE DUP5 PUSH2 0xB7D JUMP JUMPDEST PUSH2 0x13C3 JUMP JUMPDEST PUSH2 0xB7D JUMP JUMPDEST SWAP1 POP SWAP2 SWAP1 POP JUMP JUMPDEST PUSH1 0x0 DUP2 SWAP1 POP SWAP2 SWAP1 POP JUMP JUMPDEST PUSH2 0x1402 DUP4 PUSH2 0x13CD JUMP JUMPDEST PUSH2 0x1416 PUSH2 0x140E DUP3 PUSH2 0x13EF JUMP JUMPDEST DUP5 DUP5 SLOAD PUSH2 0x1371 JUMP JUMPDEST DUP3 SSTORE POP POP POP POP JUMP JUMPDEST PUSH1 0x0 SWAP1 JUMP JUMPDEST PUSH2 0x142B PUSH2 0x141E JUMP JUMPDEST PUSH2 0x1436 DUP2 DUP5 DUP5 PUSH2 0x13F9 JUMP JUMPDEST POP POP POP JUMP JUMPDEST JUMPDEST DUP2 DUP2 LT ISZERO PUSH2 0x145A JUMPI PUSH2 0x144F PUSH1 0x0 DUP3 PUSH2 0x1423 JUMP JUMPDEST PUSH1 0x1 DUP2 ADD SWAP1 POP PUSH2 0x143C JUMP JUMPDEST POP POP JUMP JUMPDEST PUSH1 0x1F DUP3 GT ISZERO PUSH2 0x149F JUMPI PUSH2 0x1470 DUP2 PUSH2 0x133F JUMP JUMPDEST PUSH2 0x1479 DUP5 PUSH2 0x1354 JUMP JUMPDEST DUP2 ADD PUSH1 0x20 DUP6 LT ISZERO PUSH2 0x1488 JUMPI DUP2 SWAP1 POP JUMPDEST PUSH2 0x149C PUSH2 0x1494 DUP6 PUSH2 0x1354 JUMP JUMPDEST DUP4 ADD DUP3 PUSH2 0x143B JUMP JUMPDEST POP POP JUMPDEST POP POP POP JUMP JUMPDEST PUSH1 0x0 DUP3 DUP3 SHR SWAP1 POP SWAP3 SWAP2 POP POP JUMP JUMPDEST PUSH1 0x0 PUSH2 0x14C2 PUSH1 0x0 NOT DUP5 PUSH1 0x8 MUL PUSH2 0x14A4 JUMP JUMPDEST NOT DUP1 DUP4 AND SWAP2 POP POP SWAP3 SWAP2 POP POP JUMP JUMPDEST PUSH1 0x0 PUSH2 0x14DB DUP4 DUP4 PUSH2 0x14B1 JUMP JUMPDEST SWAP2 POP DUP3 PUSH1 0x2 MUL DUP3 OR SWAP1 POP SWAP3 SWAP2 POP POP JUMP JUMPDEST PUSH2 0x14F4 DUP3 PUSH2 0xEF0 JUMP JUMPDEST PUSH8 0xFFFFFFFFFFFFFFFF DUP2 GT ISZERO PUSH2 0x150D JUMPI PUSH2 0x150C PUSH2 0xD17 JUMP JUMPDEST JUMPDEST PUSH2 0x1517 DUP3 SLOAD PUSH2 0x130E JUMP JUMPDEST PUSH2 0x1522 DUP3 DUP3 DUP6 PUSH2 0x145E JUMP JUMPDEST PUSH1 0x0 PUSH1 0x20 SWAP1 POP PUSH1 0x1F DUP4 GT PUSH1 0x1 DUP2 EQ PUSH2 0x1555 JUMPI PUSH1 0x0 DUP5 ISZERO PUSH2 0x1543 JUMPI DUP3 DUP8 ADD MLOAD SWAP1 POP JUMPDEST PUSH2 0x154D DUP6 DUP3 PUSH2 0x14CF JUMP JUMPDEST DUP7 SSTORE POP PUSH2 0x15B5 JUMP JUMPDEST PUSH1 0x1F NOT DUP5 AND PUSH2 0x1563 DUP7 PUSH2 0x133F JUMP JUMPDEST PUSH1 0x0 JUMPDEST DUP3 DUP2 LT ISZERO PUSH2 0x158B JUMPI DUP5 DUP10 ADD MLOAD DUP3 SSTORE PUSH1 0x1 DUP3 ADD SWAP2 POP PUSH1 0x20 DUP6 ADD SWAP5 POP PUSH1 0x20 DUP2 ADD SWAP1 POP PUSH2 0x1566 JUMP JUMPDEST DUP7 DUP4 LT ISZERO PUSH2 0x15A8 JUMPI DUP5 DUP10 ADD MLOAD PUSH2 0x15A4 PUSH1 0x1F DUP10 AND DUP3 PUSH2 0x14B1 JUMP JUMPDEST DUP4 SSTORE POP JUMPDEST PUSH1 0x1 PUSH1 0x2 DUP9 MUL ADD DUP9 SSTORE POP POP POP JUMPDEST POP POP POP POP POP POP JUMP JUMPDEST PUSH32 0x4E6F7420656E6F7567682066756E647300000000000000000000000000000000 PUSH1 0x0 DUP3 ADD MSTORE POP JUMP JUMPDEST PUSH1 0x0 PUSH2 0x15F3 PUSH1 0x10 DUP4 PUSH2 0xEFB JUMP JUMPDEST SWAP2 POP PUSH2 0x15FE DUP3 PUSH2 0x15BD JUMP JUMPDEST PUSH1 0x20 DUP3 ADD SWAP1 POP SWAP2 SWAP1 POP JUMP JUMPDEST PUSH1 0x0 PUSH1 0x20 DUP3 ADD SWAP1 POP DUP2 DUP2 SUB PUSH1 0x0 DUP4 ADD MSTORE PUSH2 0x1622 DUP2 PUSH2 0x15E6 JUMP JUMPDEST SWAP1 POP SWAP2 SWAP1 POP JUMP JUMPDEST PUSH32 0x4E6F2076616C6964206372656469742063617264000000000000000000000000 PUSH1 0x0 DUP3 ADD MSTORE POP JUMP JUMPDEST PUSH1 0x0 PUSH2 0x165F PUSH1 0x14 DUP4 PUSH2 0xEFB JUMP JUMPDEST SWAP2 POP PUSH2 0x166A DUP3 PUSH2 0x1629 JUMP JUMPDEST PUSH1 0x20 DUP3 ADD SWAP1 POP SWAP2 SWAP1 POP JUMP JUMPDEST PUSH1 0x0 PUSH1 0x20 DUP3 ADD SWAP1 POP DUP2 DUP2 SUB PUSH1 0x0 DUP4 ADD MSTORE PUSH2 0x168E DUP2 PUSH2 0x1652 JUMP JUMPDEST SWAP1 POP SWAP2 SWAP1 POP JUMP INVALID LOG2 PUSH5 0x6970667358 0x22 SLT KECCAK256 GASLIMIT AND PUSH9 0xE163E360A73BC3E97E 0xB9 XOR MSTORE DUP9 JUMP 0xE 0xE7 PUSH12 0x22E119F64DDCBBB45343FD38 PUSH5 0x736F6C6343 STOP ADDMOD LT STOP CALLER "
				},
				"gasEstimates": {
					"creation": {
						"codeDepositCost": "1167000",
						"executionCost": "infinite",
						"totalCost": "infinite"
					},
					"external": {
						"TotalAmount()": "2518",
						"TotalFunds()": "2496",
						"amount()": "2495",
						"callCount()": "2518",
						"callPutCard()": "2516",
						"cardNumber()": "infinite",
						"cvv()": "infinite",
						"firstTransferTime()": "2497",
						"getOutCard()": "24433",
						"getTime()": "359",
						"getTransaction()": "infinite",
						"message()": "infinite",
						"sendMoney(uint256,address)": "infinite",
						"setCard(string,string)": "infinite",
						"transactionList(uint256)": "infinite"
					}
				},
				"methodIdentifiers": {
					"TotalAmount()": "7eb9f571",
					"TotalFunds()": "7b9a3f4c",
					"amount()": "aa8c217c",
					"callCount()": "4b28f9a2",
					"callPutCard()": "3c626f00",
					"cardNumber()": "8fa11864",
					"cvv()": "42fb7936",
					"firstTransferTime()": "0e85fa72",
					"getOutCard()": "8e029c0b",
					"getTime()": "557ed1ba",
					"getTransaction()": "59705f81",
					"message()": "e21f37ce",
					"sendMoney(uint256,address)": "062a7544",
					"setCard(string,string)": "12a029a4",
					"transactionList(uint256)": "04ef5b21"
				}
			},
			"storageLayout": {
				"storage": [
					{
						"astId": 271,
						"contract": "Dapp/MoneyTransfer.sol:MoneyTransfer",
						"label": "transactionList",
						"offset": 0,
						"slot": "0",
						"type": "t_array(t_struct(Transactions)267_storage)dyn_storage"
					},
					{
						"astId": 6,
						"contract": "Dapp/MoneyTransfer.sol:MoneyTransfer",
						"label": "amount",
						"offset": 0,
						"slot": "1",
						"type": "t_uint256"
					},
					{
						"astId": 8,
						"contract": "Dapp/MoneyTransfer.sol:MoneyTransfer",
						"label": "TotalFunds",
						"offset": 0,
						"slot": "2",
						"type": "t_uint256"
					},
					{
						"astId": 10,
						"contract": "Dapp/MoneyTransfer.sol:MoneyTransfer",
						"label": "receiver",
						"offset": 0,
						"slot": "3",
						"type": "t_address"
					},
					{
						"astId": 12,
						"contract": "Dapp/MoneyTransfer.sol:MoneyTransfer",
						"label": "message",
						"offset": 0,
						"slot": "4",
						"type": "t_string_storage"
					},
					{
						"astId": 14,
						"contract": "Dapp/MoneyTransfer.sol:MoneyTransfer",
						"label": "cardNumber",
						"offset": 0,
						"slot": "5",
						"type": "t_string_storage"
					},
					{
						"astId": 16,
						"contract": "Dapp/MoneyTransfer.sol:MoneyTransfer",
						"label": "cvv",
						"offset": 0,
						"slot": "6",
						"type": "t_string_storage"
					},
					{
						"astId": 18,
						"contract": "Dapp/MoneyTransfer.sol:MoneyTransfer",
						"label": "TotalAmount",
						"offset": 0,
						"slot": "7",
						"type": "t_uint256"
					},
					{
						"astId": 20,
						"contract": "Dapp/MoneyTransfer.sol:MoneyTransfer",
						"label": "firstTransferTime",
						"offset": 0,
						"slot": "8",
						"type": "t_uint256"
					},
					{
						"astId": 33,
						"contract": "Dapp/MoneyTransfer.sol:MoneyTransfer",
						"label": "callCount",
						"offset": 0,
						"slot": "9",
						"type": "t_uint256"
					},
					{
						"astId": 36,
						"contract": "Dapp/MoneyTransfer.sol:MoneyTransfer",
						"label": "callPutCard",
						"offset": 0,
						"slot": "10",
						"type": "t_bool"
					}
				],
				"types": {
					"t_address": {
						"encoding": "inplace",
						"label": "address",
						"numberOfBytes": "20"
					},
					"t_array(t_struct(Transactions)267_storage)dyn_storage": {
						"base": "t_struct(Transactions)267_storage",
						"encoding": "dynamic_array",
						"label": "struct Transaction.Transactions[]",
						"numberOfBytes": "32"
					},
					"t_bool": {
						"encoding": "inplace",
						"label": "bool",
						"numberOfBytes": "1"
					},
					"t_string_storage": {
						"encoding": "bytes",
						"label": "string",
						"numberOfBytes": "32"
					},
					"t_struct(Transactions)267_storage": {
						"encoding": "inplace",
						"label": "struct Transaction.Transactions",
						"members": [
							{
								"astId": 260,
								"contract": "Dapp/MoneyTransfer.sol:MoneyTransfer",
								"label": "address_from",
								"offset": 0,
								"slot": "0",
								"type": "t_address"
							},
							{
								"astId": 262,
								"contract": "Dapp/MoneyTransfer.sol:MoneyTransfer",
								"label": "address_to",
								"offset": 0,
								"slot": "1",
								"type": "t_address"
							},
							{
								"astId": 264,
								"contract": "Dapp/MoneyTransfer.sol:MoneyTransfer",
								"label": "amount",
								"offset": 0,
								"slot": "2",
								"type": "t_uint256"
							},
							{
								"astId": 266,
								"contract": "Dapp/MoneyTransfer.sol:MoneyTransfer",
								"label": "timestamp",
								"offset": 0,
								"slot": "3",
								"type": "t_uint256"
							}
						],
						"numberOfBytes": "128"
					},
					"t_uint256": {
						"encoding": "inplace",
						"label": "uint256",
						"numberOfBytes": "32"
					}
				}
			},
			"userdoc": {
				"kind": "user",
				"methods": {},
				"version": 1
			}
		}
	}
}