{
	"Dapp/MoneyTransfer.sol": {
		"MoneyTransfer": {
			"abi": [
				{
					"inputs": [
						{
							"internalType": "uint256",
							"name": "_totalFunds",
							"type": "uint256"
						},
						{
							"internalType": "string",
							"name": "_cardNumber",
							"type": "string"
						},
						{
							"internalType": "string",
							"name": "_cvv",
							"type": "string"
						}
					],
					"stateMutability": "nonpayable",
					"type": "constructor"
				},
				{
					"inputs": [],
					"name": "TotalFunds",
					"outputs": [
						{
							"internalType": "uint256",
							"name": "",
							"type": "uint256"
						}
					],
					"stateMutability": "view",
					"type": "function"
				},
				{
					"inputs": [],
					"name": "amount",
					"outputs": [
						{
							"internalType": "uint256",
							"name": "",
							"type": "uint256"
						}
					],
					"stateMutability": "view",
					"type": "function"
				},
				{
					"inputs": [],
					"name": "cardNumber",
					"outputs": [
						{
							"internalType": "string",
							"name": "",
							"type": "string"
						}
					],
					"stateMutability": "view",
					"type": "function"
				},
				{
					"inputs": [],
					"name": "countTransfer",
					"outputs": [
						{
							"internalType": "uint256",
							"name": "",
							"type": "uint256"
						}
					],
					"stateMutability": "view",
					"type": "function"
				},
				{
					"inputs": [],
					"name": "cvv",
					"outputs": [
						{
							"internalType": "string",
							"name": "",
							"type": "string"
						}
					],
					"stateMutability": "view",
					"type": "function"
				},
				{
					"inputs": [],
					"name": "message",
					"outputs": [
						{
							"internalType": "string",
							"name": "",
							"type": "string"
						}
					],
					"stateMutability": "view",
					"type": "function"
				},
				{
					"inputs": [],
					"name": "receiverFunds",
					"outputs": [
						{
							"internalType": "uint256",
							"name": "",
							"type": "uint256"
						}
					],
					"stateMutability": "view",
					"type": "function"
				},
				{
					"inputs": [
						{
							"internalType": "uint256",
							"name": "_amount",
							"type": "uint256"
						},
						{
							"internalType": "address",
							"name": "_receiver",
							"type": "address"
						}
					],
					"name": "sendMoney",
					"outputs": [],
					"stateMutability": "nonpayable",
					"type": "function"
				},
				{
					"inputs": [],
					"name": "totalWeekTransactions",
					"outputs": [
						{
							"internalType": "uint256",
							"name": "",
							"type": "uint256"
						}
					],
					"stateMutability": "view",
					"type": "function"
				}
			],
			"devdoc": {
				"kind": "dev",
				"methods": {},
				"version": 1
			},
			"evm": {
				"assembly": "    /* \"Dapp/MoneyTransfer.sol\":71:1959  contract  MoneyTransfer {... */\n  mstore(0x40, 0x80)\n    /* \"Dapp/MoneyTransfer.sol\":237:245  24 hours */\n  0x015180\n    /* \"Dapp/MoneyTransfer.sol\":226:245  uint day = 24 hours */\n  0x03\n  sstore\n    /* \"Dapp/MoneyTransfer.sol\":535:714  constructor (uint256 _totalFunds, string memory _cardNumber, string memory _cvv){... */\n  callvalue\n  dup1\n  iszero\n  tag_1\n  jumpi\n  0x00\n  dup1\n  revert\ntag_1:\n  pop\n  mload(0x40)\n  sub(codesize, bytecodeSize)\n  dup1\n  bytecodeSize\n  dup4\n  codecopy\n  dup2\n  dup2\n  add\n  0x40\n  mstore\n  dup2\n  add\n  swap1\n  tag_2\n  swap2\n  swap1\n  tag_3\n  jump\t// in\ntag_2:\n    /* \"Dapp/MoneyTransfer.sol\":639:650  _cardNumber */\n  dup2\n    /* \"Dapp/MoneyTransfer.sol\":626:636  cardNumber */\n  0x0a\n    /* \"Dapp/MoneyTransfer.sol\":626:650  cardNumber = _cardNumber */\n  swap1\n  dup2\n  tag_6\n  swap2\n  swap1\n  tag_7\n  jump\t// in\ntag_6:\n  pop\n    /* \"Dapp/MoneyTransfer.sol\":667:671  _cvv */\n  dup1\n    /* \"Dapp/MoneyTransfer.sol\":661:664  cvv */\n  0x0b\n    /* \"Dapp/MoneyTransfer.sol\":661:671  cvv = _cvv */\n  swap1\n  dup2\n  tag_8\n  swap2\n  swap1\n  tag_7\n  jump\t// in\ntag_8:\n  pop\n    /* \"Dapp/MoneyTransfer.sol\":695:706  _totalFunds */\n  dup3\n    /* \"Dapp/MoneyTransfer.sol\":682:692  TotalFunds */\n  0x01\n    /* \"Dapp/MoneyTransfer.sol\":682:706  TotalFunds = _totalFunds */\n  dup2\n  swap1\n  sstore\n  pop\n    /* \"Dapp/MoneyTransfer.sol\":535:714  constructor (uint256 _totalFunds, string memory _cardNumber, string memory _cvv){... */\n  pop\n  pop\n  pop\n    /* \"Dapp/MoneyTransfer.sol\":71:1959  contract  MoneyTransfer {... */\n  jump(tag_9)\n    /* \"#utility.yul\":7:82   */\ntag_10:\n    /* \"#utility.yul\":40:46   */\n  0x00\n    /* \"#utility.yul\":73:75   */\n  0x40\n    /* \"#utility.yul\":67:76   */\n  mload\n    /* \"#utility.yul\":57:76   */\n  swap1\n  pop\n    /* \"#utility.yul\":7:82   */\n  swap1\n  jump\t// out\n    /* \"#utility.yul\":88:205   */\ntag_11:\n    /* \"#utility.yul\":197:198   */\n  0x00\n    /* \"#utility.yul\":194:195   */\n  dup1\n    /* \"#utility.yul\":187:199   */\n  revert\n    /* \"#utility.yul\":211:328   */\ntag_12:\n    /* \"#utility.yul\":320:321   */\n  0x00\n    /* \"#utility.yul\":317:318   */\n  dup1\n    /* \"#utility.yul\":310:322   */\n  revert\n    /* \"#utility.yul\":334:411   */\ntag_13:\n    /* \"#utility.yul\":371:378   */\n  0x00\n    /* \"#utility.yul\":400:405   */\n  dup2\n    /* \"#utility.yul\":389:405   */\n  swap1\n  pop\n    /* \"#utility.yul\":334:411   */\n  swap2\n  swap1\n  pop\n  jump\t// out\n    /* \"#utility.yul\":417:539   */\ntag_14:\n    /* \"#utility.yul\":490:514   */\n  tag_50\n    /* \"#utility.yul\":508:513   */\n  dup2\n    /* \"#utility.yul\":490:514   */\n  tag_13\n  jump\t// in\ntag_50:\n    /* \"#utility.yul\":483:488   */\n  dup2\n    /* \"#utility.yul\":480:515   */\n  eq\n    /* \"#utility.yul\":470:533   */\n  tag_51\n  jumpi\n    /* \"#utility.yul\":529:530   */\n  0x00\n    /* \"#utility.yul\":526:527   */\n  dup1\n    /* \"#utility.yul\":519:531   */\n  revert\n    /* \"#utility.yul\":470:533   */\ntag_51:\n    /* \"#utility.yul\":417:539   */\n  pop\n  jump\t// out\n    /* \"#utility.yul\":545:688   */\ntag_15:\n    /* \"#utility.yul\":602:607   */\n  0x00\n    /* \"#utility.yul\":633:639   */\n  dup2\n    /* \"#utility.yul\":627:640   */\n  mload\n    /* \"#utility.yul\":618:640   */\n  swap1\n  pop\n    /* \"#utility.yul\":649:682   */\n  tag_53\n    /* \"#utility.yul\":676:681   */\n  dup2\n    /* \"#utility.yul\":649:682   */\n  tag_14\n  jump\t// in\ntag_53:\n    /* \"#utility.yul\":545:688   */\n  swap3\n  swap2\n  pop\n  pop\n  jump\t// out\n    /* \"#utility.yul\":694:811   */\ntag_16:\n    /* \"#utility.yul\":803:804   */\n  0x00\n    /* \"#utility.yul\":800:801   */\n  dup1\n    /* \"#utility.yul\":793:805   */\n  revert\n    /* \"#utility.yul\":817:934   */\ntag_17:\n    /* \"#utility.yul\":926:927   */\n  0x00\n    /* \"#utility.yul\":923:924   */\n  dup1\n    /* \"#utility.yul\":916:928   */\n  revert\n    /* \"#utility.yul\":940:1042   */\ntag_18:\n    /* \"#utility.yul\":981:987   */\n  0x00\n    /* \"#utility.yul\":1032:1034   */\n  0x1f\n    /* \"#utility.yul\":1028:1035   */\n  not\n    /* \"#utility.yul\":1023:1025   */\n  0x1f\n    /* \"#utility.yul\":1016:1021   */\n  dup4\n    /* \"#utility.yul\":1012:1026   */\n  add\n    /* \"#utility.yul\":1008:1036   */\n  and\n    /* \"#utility.yul\":998:1036   */\n  swap1\n  pop\n    /* \"#utility.yul\":940:1042   */\n  swap2\n  swap1\n  pop\n  jump\t// out\n    /* \"#utility.yul\":1048:1228   */\ntag_19:\n    /* \"#utility.yul\":1096:1173   */\n  0x4e487b7100000000000000000000000000000000000000000000000000000000\n    /* \"#utility.yul\":1093:1094   */\n  0x00\n    /* \"#utility.yul\":1086:1174   */\n  mstore\n    /* \"#utility.yul\":1193:1197   */\n  0x41\n    /* \"#utility.yul\":1190:1191   */\n  0x04\n    /* \"#utility.yul\":1183:1198   */\n  mstore\n    /* \"#utility.yul\":1217:1221   */\n  0x24\n    /* \"#utility.yul\":1214:1215   */\n  0x00\n    /* \"#utility.yul\":1207:1222   */\n  revert\n    /* \"#utility.yul\":1234:1515   */\ntag_20:\n    /* \"#utility.yul\":1317:1344   */\n  tag_59\n    /* \"#utility.yul\":1339:1343   */\n  dup3\n    /* \"#utility.yul\":1317:1344   */\n  tag_18\n  jump\t// in\ntag_59:\n    /* \"#utility.yul\":1309:1315   */\n  dup2\n    /* \"#utility.yul\":1305:1345   */\n  add\n    /* \"#utility.yul\":1447:1453   */\n  dup2\n    /* \"#utility.yul\":1435:1445   */\n  dup2\n    /* \"#utility.yul\":1432:1454   */\n  lt\n    /* \"#utility.yul\":1411:1429   */\n  0xffffffffffffffff\n    /* \"#utility.yul\":1399:1409   */\n  dup3\n    /* \"#utility.yul\":1396:1430   */\n  gt\n    /* \"#utility.yul\":1393:1455   */\n  or\n    /* \"#utility.yul\":1390:1478   */\n  iszero\n  tag_60\n  jumpi\n    /* \"#utility.yul\":1458:1476   */\n  tag_61\n  tag_19\n  jump\t// in\ntag_61:\n    /* \"#utility.yul\":1390:1478   */\ntag_60:\n    /* \"#utility.yul\":1498:1508   */\n  dup1\n    /* \"#utility.yul\":1494:1496   */\n  0x40\n    /* \"#utility.yul\":1487:1509   */\n  mstore\n    /* \"#utility.yul\":1277:1515   */\n  pop\n    /* \"#utility.yul\":1234:1515   */\n  pop\n  pop\n  jump\t// out\n    /* \"#utility.yul\":1521:1650   */\ntag_21:\n    /* \"#utility.yul\":1555:1561   */\n  0x00\n    /* \"#utility.yul\":1582:1602   */\n  tag_63\n  tag_10\n  jump\t// in\ntag_63:\n    /* \"#utility.yul\":1572:1602   */\n  swap1\n  pop\n    /* \"#utility.yul\":1611:1644   */\n  tag_64\n    /* \"#utility.yul\":1639:1643   */\n  dup3\n    /* \"#utility.yul\":1631:1637   */\n  dup3\n    /* \"#utility.yul\":1611:1644   */\n  tag_20\n  jump\t// in\ntag_64:\n    /* \"#utility.yul\":1521:1650   */\n  swap2\n  swap1\n  pop\n  jump\t// out\n    /* \"#utility.yul\":1656:1964   */\ntag_22:\n    /* \"#utility.yul\":1718:1722   */\n  0x00\n    /* \"#utility.yul\":1808:1826   */\n  0xffffffffffffffff\n    /* \"#utility.yul\":1800:1806   */\n  dup3\n    /* \"#utility.yul\":1797:1827   */\n  gt\n    /* \"#utility.yul\":1794:1850   */\n  iszero\n  tag_66\n  jumpi\n    /* \"#utility.yul\":1830:1848   */\n  tag_67\n  tag_19\n  jump\t// in\ntag_67:\n    /* \"#utility.yul\":1794:1850   */\ntag_66:\n    /* \"#utility.yul\":1868:1897   */\n  tag_68\n    /* \"#utility.yul\":1890:1896   */\n  dup3\n    /* \"#utility.yul\":1868:1897   */\n  tag_18\n  jump\t// in\ntag_68:\n    /* \"#utility.yul\":1860:1897   */\n  swap1\n  pop\n    /* \"#utility.yul\":1952:1956   */\n  0x20\n    /* \"#utility.yul\":1946:1950   */\n  dup2\n    /* \"#utility.yul\":1942:1957   */\n  add\n    /* \"#utility.yul\":1934:1957   */\n  swap1\n  pop\n    /* \"#utility.yul\":1656:1964   */\n  swap2\n  swap1\n  pop\n  jump\t// out\n    /* \"#utility.yul\":1970:2277   */\ntag_23:\n    /* \"#utility.yul\":2038:2039   */\n  0x00\n    /* \"#utility.yul\":2048:2161   */\ntag_70:\n    /* \"#utility.yul\":2062:2068   */\n  dup4\n    /* \"#utility.yul\":2059:2060   */\n  dup2\n    /* \"#utility.yul\":2056:2069   */\n  lt\n    /* \"#utility.yul\":2048:2161   */\n  iszero\n  tag_72\n  jumpi\n    /* \"#utility.yul\":2147:2148   */\n  dup1\n    /* \"#utility.yul\":2142:2145   */\n  dup3\n    /* \"#utility.yul\":2138:2149   */\n  add\n    /* \"#utility.yul\":2132:2150   */\n  mload\n    /* \"#utility.yul\":2128:2129   */\n  dup2\n    /* \"#utility.yul\":2123:2126   */\n  dup5\n    /* \"#utility.yul\":2119:2130   */\n  add\n    /* \"#utility.yul\":2112:2151   */\n  mstore\n    /* \"#utility.yul\":2084:2086   */\n  0x20\n    /* \"#utility.yul\":2081:2082   */\n  dup2\n    /* \"#utility.yul\":2077:2087   */\n  add\n    /* \"#utility.yul\":2072:2087   */\n  swap1\n  pop\n    /* \"#utility.yul\":2048:2161   */\n  jump(tag_70)\ntag_72:\n    /* \"#utility.yul\":2179:2185   */\n  dup4\n    /* \"#utility.yul\":2176:2177   */\n  dup2\n    /* \"#utility.yul\":2173:2186   */\n  gt\n    /* \"#utility.yul\":2170:2271   */\n  iszero\n  tag_73\n  jumpi\n    /* \"#utility.yul\":2259:2260   */\n  0x00\n    /* \"#utility.yul\":2250:2256   */\n  dup5\n    /* \"#utility.yul\":2245:2248   */\n  dup5\n    /* \"#utility.yul\":2241:2257   */\n  add\n    /* \"#utility.yul\":2234:2261   */\n  mstore\n    /* \"#utility.yul\":2170:2271   */\ntag_73:\n    /* \"#utility.yul\":2019:2277   */\n  pop\n    /* \"#utility.yul\":1970:2277   */\n  pop\n  pop\n  pop\n  jump\t// out\n    /* \"#utility.yul\":2283:2704   */\ntag_24:\n    /* \"#utility.yul\":2372:2377   */\n  0x00\n    /* \"#utility.yul\":2397:2463   */\n  tag_75\n    /* \"#utility.yul\":2413:2462   */\n  tag_76\n    /* \"#utility.yul\":2455:2461   */\n  dup5\n    /* \"#utility.yul\":2413:2462   */\n  tag_22\n  jump\t// in\ntag_76:\n    /* \"#utility.yul\":2397:2463   */\n  tag_21\n  jump\t// in\ntag_75:\n    /* \"#utility.yul\":2388:2463   */\n  swap1\n  pop\n    /* \"#utility.yul\":2486:2492   */\n  dup3\n    /* \"#utility.yul\":2479:2484   */\n  dup2\n    /* \"#utility.yul\":2472:2493   */\n  mstore\n    /* \"#utility.yul\":2524:2528   */\n  0x20\n    /* \"#utility.yul\":2517:2522   */\n  dup2\n    /* \"#utility.yul\":2513:2529   */\n  add\n    /* \"#utility.yul\":2562:2565   */\n  dup5\n    /* \"#utility.yul\":2553:2559   */\n  dup5\n    /* \"#utility.yul\":2548:2551   */\n  dup5\n    /* \"#utility.yul\":2544:2560   */\n  add\n    /* \"#utility.yul\":2541:2566   */\n  gt\n    /* \"#utility.yul\":2538:2650   */\n  iszero\n  tag_77\n  jumpi\n    /* \"#utility.yul\":2569:2648   */\n  tag_78\n  tag_17\n  jump\t// in\ntag_78:\n    /* \"#utility.yul\":2538:2650   */\ntag_77:\n    /* \"#utility.yul\":2659:2698   */\n  tag_79\n    /* \"#utility.yul\":2691:2697   */\n  dup5\n    /* \"#utility.yul\":2686:2689   */\n  dup3\n    /* \"#utility.yul\":2681:2684   */\n  dup6\n    /* \"#utility.yul\":2659:2698   */\n  tag_23\n  jump\t// in\ntag_79:\n    /* \"#utility.yul\":2378:2704   */\n  pop\n    /* \"#utility.yul\":2283:2704   */\n  swap4\n  swap3\n  pop\n  pop\n  pop\n  jump\t// out\n    /* \"#utility.yul\":2724:3079   */\ntag_25:\n    /* \"#utility.yul\":2791:2796   */\n  0x00\n    /* \"#utility.yul\":2840:2843   */\n  dup3\n    /* \"#utility.yul\":2833:2837   */\n  0x1f\n    /* \"#utility.yul\":2825:2831   */\n  dup4\n    /* \"#utility.yul\":2821:2838   */\n  add\n    /* \"#utility.yul\":2817:2844   */\n  slt\n    /* \"#utility.yul\":2807:2929   */\n  tag_81\n  jumpi\n    /* \"#utility.yul\":2848:2927   */\n  tag_82\n  tag_16\n  jump\t// in\ntag_82:\n    /* \"#utility.yul\":2807:2929   */\ntag_81:\n    /* \"#utility.yul\":2958:2964   */\n  dup2\n    /* \"#utility.yul\":2952:2965   */\n  mload\n    /* \"#utility.yul\":2983:3073   */\n  tag_83\n    /* \"#utility.yul\":3069:3072   */\n  dup5\n    /* \"#utility.yul\":3061:3067   */\n  dup3\n    /* \"#utility.yul\":3054:3058   */\n  0x20\n    /* \"#utility.yul\":3046:3052   */\n  dup7\n    /* \"#utility.yul\":3042:3059   */\n  add\n    /* \"#utility.yul\":2983:3073   */\n  tag_24\n  jump\t// in\ntag_83:\n    /* \"#utility.yul\":2974:3073   */\n  swap2\n  pop\n    /* \"#utility.yul\":2797:3079   */\n  pop\n    /* \"#utility.yul\":2724:3079   */\n  swap3\n  swap2\n  pop\n  pop\n  jump\t// out\n    /* \"#utility.yul\":3085:4094   */\ntag_3:\n    /* \"#utility.yul\":3193:3199   */\n  0x00\n    /* \"#utility.yul\":3201:3207   */\n  dup1\n    /* \"#utility.yul\":3209:3215   */\n  0x00\n    /* \"#utility.yul\":3258:3260   */\n  0x60\n    /* \"#utility.yul\":3246:3255   */\n  dup5\n    /* \"#utility.yul\":3237:3244   */\n  dup7\n    /* \"#utility.yul\":3233:3256   */\n  sub\n    /* \"#utility.yul\":3229:3261   */\n  slt\n    /* \"#utility.yul\":3226:3345   */\n  iszero\n  tag_85\n  jumpi\n    /* \"#utility.yul\":3264:3343   */\n  tag_86\n  tag_11\n  jump\t// in\ntag_86:\n    /* \"#utility.yul\":3226:3345   */\ntag_85:\n    /* \"#utility.yul\":3384:3385   */\n  0x00\n    /* \"#utility.yul\":3409:3473   */\n  tag_87\n    /* \"#utility.yul\":3465:3472   */\n  dup7\n    /* \"#utility.yul\":3456:3462   */\n  dup3\n    /* \"#utility.yul\":3445:3454   */\n  dup8\n    /* \"#utility.yul\":3441:3463   */\n  add\n    /* \"#utility.yul\":3409:3473   */\n  tag_15\n  jump\t// in\ntag_87:\n    /* \"#utility.yul\":3399:3473   */\n  swap4\n  pop\n    /* \"#utility.yul\":3355:3483   */\n  pop\n    /* \"#utility.yul\":3543:3545   */\n  0x20\n    /* \"#utility.yul\":3532:3541   */\n  dup5\n    /* \"#utility.yul\":3528:3546   */\n  add\n    /* \"#utility.yul\":3522:3547   */\n  mload\n    /* \"#utility.yul\":3574:3592   */\n  0xffffffffffffffff\n    /* \"#utility.yul\":3566:3572   */\n  dup2\n    /* \"#utility.yul\":3563:3593   */\n  gt\n    /* \"#utility.yul\":3560:3677   */\n  iszero\n  tag_88\n  jumpi\n    /* \"#utility.yul\":3596:3675   */\n  tag_89\n  tag_12\n  jump\t// in\ntag_89:\n    /* \"#utility.yul\":3560:3677   */\ntag_88:\n    /* \"#utility.yul\":3701:3775   */\n  tag_90\n    /* \"#utility.yul\":3767:3774   */\n  dup7\n    /* \"#utility.yul\":3758:3764   */\n  dup3\n    /* \"#utility.yul\":3747:3756   */\n  dup8\n    /* \"#utility.yul\":3743:3765   */\n  add\n    /* \"#utility.yul\":3701:3775   */\n  tag_25\n  jump\t// in\ntag_90:\n    /* \"#utility.yul\":3691:3775   */\n  swap3\n  pop\n    /* \"#utility.yul\":3493:3785   */\n  pop\n    /* \"#utility.yul\":3845:3847   */\n  0x40\n    /* \"#utility.yul\":3834:3843   */\n  dup5\n    /* \"#utility.yul\":3830:3848   */\n  add\n    /* \"#utility.yul\":3824:3849   */\n  mload\n    /* \"#utility.yul\":3876:3894   */\n  0xffffffffffffffff\n    /* \"#utility.yul\":3868:3874   */\n  dup2\n    /* \"#utility.yul\":3865:3895   */\n  gt\n    /* \"#utility.yul\":3862:3979   */\n  iszero\n  tag_91\n  jumpi\n    /* \"#utility.yul\":3898:3977   */\n  tag_92\n  tag_12\n  jump\t// in\ntag_92:\n    /* \"#utility.yul\":3862:3979   */\ntag_91:\n    /* \"#utility.yul\":4003:4077   */\n  tag_93\n    /* \"#utility.yul\":4069:4076   */\n  dup7\n    /* \"#utility.yul\":4060:4066   */\n  dup3\n    /* \"#utility.yul\":4049:4058   */\n  dup8\n    /* \"#utility.yul\":4045:4067   */\n  add\n    /* \"#utility.yul\":4003:4077   */\n  tag_25\n  jump\t// in\ntag_93:\n    /* \"#utility.yul\":3993:4077   */\n  swap2\n  pop\n    /* \"#utility.yul\":3795:4087   */\n  pop\n    /* \"#utility.yul\":3085:4094   */\n  swap3\n  pop\n  swap3\n  pop\n  swap3\n  jump\t// out\n    /* \"#utility.yul\":4100:4199   */\ntag_26:\n    /* \"#utility.yul\":4152:4158   */\n  0x00\n    /* \"#utility.yul\":4186:4191   */\n  dup2\n    /* \"#utility.yul\":4180:4192   */\n  mload\n    /* \"#utility.yul\":4170:4192   */\n  swap1\n  pop\n    /* \"#utility.yul\":4100:4199   */\n  swap2\n  swap1\n  pop\n  jump\t// out\n    /* \"#utility.yul\":4205:4385   */\ntag_27:\n    /* \"#utility.yul\":4253:4330   */\n  0x4e487b7100000000000000000000000000000000000000000000000000000000\n    /* \"#utility.yul\":4250:4251   */\n  0x00\n    /* \"#utility.yul\":4243:4331   */\n  mstore\n    /* \"#utility.yul\":4350:4354   */\n  0x22\n    /* \"#utility.yul\":4347:4348   */\n  0x04\n    /* \"#utility.yul\":4340:4355   */\n  mstore\n    /* \"#utility.yul\":4374:4378   */\n  0x24\n    /* \"#utility.yul\":4371:4372   */\n  0x00\n    /* \"#utility.yul\":4364:4379   */\n  revert\n    /* \"#utility.yul\":4391:4711   */\ntag_28:\n    /* \"#utility.yul\":4435:4441   */\n  0x00\n    /* \"#utility.yul\":4472:4473   */\n  0x02\n    /* \"#utility.yul\":4466:4470   */\n  dup3\n    /* \"#utility.yul\":4462:4474   */\n  div\n    /* \"#utility.yul\":4452:4474   */\n  swap1\n  pop\n    /* \"#utility.yul\":4519:4520   */\n  0x01\n    /* \"#utility.yul\":4513:4517   */\n  dup3\n    /* \"#utility.yul\":4509:4521   */\n  and\n    /* \"#utility.yul\":4540:4558   */\n  dup1\n    /* \"#utility.yul\":4530:4611   */\n  tag_97\n  jumpi\n    /* \"#utility.yul\":4596:4600   */\n  0x7f\n    /* \"#utility.yul\":4588:4594   */\n  dup3\n    /* \"#utility.yul\":4584:4601   */\n  and\n    /* \"#utility.yul\":4574:4601   */\n  swap2\n  pop\n    /* \"#utility.yul\":4530:4611   */\ntag_97:\n    /* \"#utility.yul\":4658:4660   */\n  0x20\n    /* \"#utility.yul\":4650:4656   */\n  dup3\n    /* \"#utility.yul\":4647:4661   */\n  lt\n    /* \"#utility.yul\":4627:4645   */\n  dup2\n    /* \"#utility.yul\":4624:4662   */\n  sub\n    /* \"#utility.yul\":4621:4705   */\n  tag_98\n  jumpi\n    /* \"#utility.yul\":4677:4695   */\n  tag_99\n  tag_27\n  jump\t// in\ntag_99:\n    /* \"#utility.yul\":4621:4705   */\ntag_98:\n    /* \"#utility.yul\":4442:4711   */\n  pop\n    /* \"#utility.yul\":4391:4711   */\n  swap2\n  swap1\n  pop\n  jump\t// out\n    /* \"#utility.yul\":4717:4858   */\ntag_29:\n    /* \"#utility.yul\":4766:4770   */\n  0x00\n    /* \"#utility.yul\":4789:4792   */\n  dup2\n    /* \"#utility.yul\":4781:4792   */\n  swap1\n  pop\n    /* \"#utility.yul\":4812:4815   */\n  dup2\n    /* \"#utility.yul\":4809:4810   */\n  0x00\n    /* \"#utility.yul\":4802:4816   */\n  mstore\n    /* \"#utility.yul\":4846:4850   */\n  0x20\n    /* \"#utility.yul\":4843:4844   */\n  0x00\n    /* \"#utility.yul\":4833:4851   */\n  keccak256\n    /* \"#utility.yul\":4825:4851   */\n  swap1\n  pop\n    /* \"#utility.yul\":4717:4858   */\n  swap2\n  swap1\n  pop\n  jump\t// out\n    /* \"#utility.yul\":4864:4957   */\ntag_30:\n    /* \"#utility.yul\":4901:4907   */\n  0x00\n    /* \"#utility.yul\":4948:4950   */\n  0x20\n    /* \"#utility.yul\":4943:4945   */\n  0x1f\n    /* \"#utility.yul\":4936:4941   */\n  dup4\n    /* \"#utility.yul\":4932:4946   */\n  add\n    /* \"#utility.yul\":4928:4951   */\n  div\n    /* \"#utility.yul\":4918:4951   */\n  swap1\n  pop\n    /* \"#utility.yul\":4864:4957   */\n  swap2\n  swap1\n  pop\n  jump\t// out\n    /* \"#utility.yul\":4963:5070   */\ntag_31:\n    /* \"#utility.yul\":5007:5015   */\n  0x00\n    /* \"#utility.yul\":5057:5062   */\n  dup3\n    /* \"#utility.yul\":5051:5055   */\n  dup3\n    /* \"#utility.yul\":5047:5063   */\n  shl\n    /* \"#utility.yul\":5026:5063   */\n  swap1\n  pop\n    /* \"#utility.yul\":4963:5070   */\n  swap3\n  swap2\n  pop\n  pop\n  jump\t// out\n    /* \"#utility.yul\":5076:5469   */\ntag_32:\n    /* \"#utility.yul\":5145:5151   */\n  0x00\n    /* \"#utility.yul\":5195:5196   */\n  0x08\n    /* \"#utility.yul\":5183:5193   */\n  dup4\n    /* \"#utility.yul\":5179:5197   */\n  mul\n    /* \"#utility.yul\":5218:5315   */\n  tag_104\n    /* \"#utility.yul\":5248:5314   */\n  0xffffffffffffffffffffffffffffffffffffffffffffffffffffffffffffffff\n    /* \"#utility.yul\":5237:5246   */\n  dup3\n    /* \"#utility.yul\":5218:5315   */\n  tag_31\n  jump\t// in\ntag_104:\n    /* \"#utility.yul\":5336:5375   */\n  tag_105\n    /* \"#utility.yul\":5366:5374   */\n  dup7\n    /* \"#utility.yul\":5355:5364   */\n  dup4\n    /* \"#utility.yul\":5336:5375   */\n  tag_31\n  jump\t// in\ntag_105:\n    /* \"#utility.yul\":5324:5375   */\n  swap6\n  pop\n    /* \"#utility.yul\":5408:5412   */\n  dup1\n    /* \"#utility.yul\":5404:5413   */\n  not\n    /* \"#utility.yul\":5397:5402   */\n  dup5\n    /* \"#utility.yul\":5393:5414   */\n  and\n    /* \"#utility.yul\":5384:5414   */\n  swap4\n  pop\n    /* \"#utility.yul\":5457:5461   */\n  dup1\n    /* \"#utility.yul\":5447:5455   */\n  dup7\n    /* \"#utility.yul\":5443:5462   */\n  and\n    /* \"#utility.yul\":5436:5441   */\n  dup5\n    /* \"#utility.yul\":5433:5463   */\n  or\n    /* \"#utility.yul\":5423:5463   */\n  swap3\n  pop\n    /* \"#utility.yul\":5152:5469   */\n  pop\n  pop\n    /* \"#utility.yul\":5076:5469   */\n  swap4\n  swap3\n  pop\n  pop\n  pop\n  jump\t// out\n    /* \"#utility.yul\":5475:5535   */\ntag_33:\n    /* \"#utility.yul\":5503:5506   */\n  0x00\n    /* \"#utility.yul\":5524:5529   */\n  dup2\n    /* \"#utility.yul\":5517:5529   */\n  swap1\n  pop\n    /* \"#utility.yul\":5475:5535   */\n  swap2\n  swap1\n  pop\n  jump\t// out\n    /* \"#utility.yul\":5541:5683   */\ntag_34:\n    /* \"#utility.yul\":5591:5600   */\n  0x00\n    /* \"#utility.yul\":5624:5677   */\n  tag_108\n    /* \"#utility.yul\":5642:5676   */\n  tag_109\n    /* \"#utility.yul\":5651:5675   */\n  tag_110\n    /* \"#utility.yul\":5669:5674   */\n  dup5\n    /* \"#utility.yul\":5651:5675   */\n  tag_13\n  jump\t// in\ntag_110:\n    /* \"#utility.yul\":5642:5676   */\n  tag_33\n  jump\t// in\ntag_109:\n    /* \"#utility.yul\":5624:5677   */\n  tag_13\n  jump\t// in\ntag_108:\n    /* \"#utility.yul\":5611:5677   */\n  swap1\n  pop\n    /* \"#utility.yul\":5541:5683   */\n  swap2\n  swap1\n  pop\n  jump\t// out\n    /* \"#utility.yul\":5689:5764   */\ntag_35:\n    /* \"#utility.yul\":5732:5735   */\n  0x00\n    /* \"#utility.yul\":5753:5758   */\n  dup2\n    /* \"#utility.yul\":5746:5758   */\n  swap1\n  pop\n    /* \"#utility.yul\":5689:5764   */\n  swap2\n  swap1\n  pop\n  jump\t// out\n    /* \"#utility.yul\":5770:6039   */\ntag_36:\n    /* \"#utility.yul\":5880:5919   */\n  tag_113\n    /* \"#utility.yul\":5911:5918   */\n  dup4\n    /* \"#utility.yul\":5880:5919   */\n  tag_34\n  jump\t// in\ntag_113:\n    /* \"#utility.yul\":5941:6032   */\n  tag_114\n    /* \"#utility.yul\":5990:6031   */\n  tag_115\n    /* \"#utility.yul\":6014:6030   */\n  dup3\n    /* \"#utility.yul\":5990:6031   */\n  tag_35\n  jump\t// in\ntag_115:\n    /* \"#utility.yul\":5982:5988   */\n  dup5\n    /* \"#utility.yul\":5975:5979   */\n  dup5\n    /* \"#utility.yul\":5969:5980   */\n  sload\n    /* \"#utility.yul\":5941:6032   */\n  tag_32\n  jump\t// in\ntag_114:\n    /* \"#utility.yul\":5935:5939   */\n  dup3\n    /* \"#utility.yul\":5928:6033   */\n  sstore\n    /* \"#utility.yul\":5846:6039   */\n  pop\n    /* \"#utility.yul\":5770:6039   */\n  pop\n  pop\n  pop\n  jump\t// out\n    /* \"#utility.yul\":6045:6118   */\ntag_37:\n    /* \"#utility.yul\":6090:6093   */\n  0x00\n    /* \"#utility.yul\":6045:6118   */\n  swap1\n  jump\t// out\n    /* \"#utility.yul\":6124:6313   */\ntag_38:\n    /* \"#utility.yul\":6201:6233   */\n  tag_118\n  tag_37\n  jump\t// in\ntag_118:\n    /* \"#utility.yul\":6242:6307   */\n  tag_119\n    /* \"#utility.yul\":6300:6306   */\n  dup2\n    /* \"#utility.yul\":6292:6298   */\n  dup5\n    /* \"#utility.yul\":6286:6290   */\n  dup5\n    /* \"#utility.yul\":6242:6307   */\n  tag_36\n  jump\t// in\ntag_119:\n    /* \"#utility.yul\":6177:6313   */\n  pop\n    /* \"#utility.yul\":6124:6313   */\n  pop\n  pop\n  jump\t// out\n    /* \"#utility.yul\":6319:6505   */\ntag_39:\n    /* \"#utility.yul\":6379:6499   */\ntag_121:\n    /* \"#utility.yul\":6396:6399   */\n  dup2\n    /* \"#utility.yul\":6389:6394   */\n  dup2\n    /* \"#utility.yul\":6386:6400   */\n  lt\n    /* \"#utility.yul\":6379:6499   */\n  iszero\n  tag_123\n  jumpi\n    /* \"#utility.yul\":6450:6489   */\n  tag_124\n    /* \"#utility.yul\":6487:6488   */\n  0x00\n    /* \"#utility.yul\":6480:6485   */\n  dup3\n    /* \"#utility.yul\":6450:6489   */\n  tag_38\n  jump\t// in\ntag_124:\n    /* \"#utility.yul\":6423:6424   */\n  0x01\n    /* \"#utility.yul\":6416:6421   */\n  dup2\n    /* \"#utility.yul\":6412:6425   */\n  add\n    /* \"#utility.yul\":6403:6425   */\n  swap1\n  pop\n    /* \"#utility.yul\":6379:6499   */\n  jump(tag_121)\ntag_123:\n    /* \"#utility.yul\":6319:6505   */\n  pop\n  pop\n  jump\t// out\n    /* \"#utility.yul\":6511:7054   */\ntag_40:\n    /* \"#utility.yul\":6612:6614   */\n  0x1f\n    /* \"#utility.yul\":6607:6610   */\n  dup3\n    /* \"#utility.yul\":6604:6615   */\n  gt\n    /* \"#utility.yul\":6601:7047   */\n  iszero\n  tag_126\n  jumpi\n    /* \"#utility.yul\":6646:6684   */\n  tag_127\n    /* \"#utility.yul\":6678:6683   */\n  dup2\n    /* \"#utility.yul\":6646:6684   */\n  tag_29\n  jump\t// in\ntag_127:\n    /* \"#utility.yul\":6730:6759   */\n  tag_128\n    /* \"#utility.yul\":6748:6758   */\n  dup5\n    /* \"#utility.yul\":6730:6759   */\n  tag_30\n  jump\t// in\ntag_128:\n    /* \"#utility.yul\":6720:6728   */\n  dup2\n    /* \"#utility.yul\":6716:6760   */\n  add\n    /* \"#utility.yul\":6913:6915   */\n  0x20\n    /* \"#utility.yul\":6901:6911   */\n  dup6\n    /* \"#utility.yul\":6898:6916   */\n  lt\n    /* \"#utility.yul\":6895:6944   */\n  iszero\n  tag_129\n  jumpi\n    /* \"#utility.yul\":6934:6942   */\n  dup2\n    /* \"#utility.yul\":6919:6942   */\n  swap1\n  pop\n    /* \"#utility.yul\":6895:6944   */\ntag_129:\n    /* \"#utility.yul\":6957:7037   */\n  tag_130\n    /* \"#utility.yul\":7013:7035   */\n  tag_131\n    /* \"#utility.yul\":7031:7034   */\n  dup6\n    /* \"#utility.yul\":7013:7035   */\n  tag_30\n  jump\t// in\ntag_131:\n    /* \"#utility.yul\":7003:7011   */\n  dup4\n    /* \"#utility.yul\":6999:7036   */\n  add\n    /* \"#utility.yul\":6986:6997   */\n  dup3\n    /* \"#utility.yul\":6957:7037   */\n  tag_39\n  jump\t// in\ntag_130:\n    /* \"#utility.yul\":6616:7047   */\n  pop\n  pop\n    /* \"#utility.yul\":6601:7047   */\ntag_126:\n    /* \"#utility.yul\":6511:7054   */\n  pop\n  pop\n  pop\n  jump\t// out\n    /* \"#utility.yul\":7060:7177   */\ntag_41:\n    /* \"#utility.yul\":7114:7122   */\n  0x00\n    /* \"#utility.yul\":7164:7169   */\n  dup3\n    /* \"#utility.yul\":7158:7162   */\n  dup3\n    /* \"#utility.yul\":7154:7170   */\n  shr\n    /* \"#utility.yul\":7133:7170   */\n  swap1\n  pop\n    /* \"#utility.yul\":7060:7177   */\n  swap3\n  swap2\n  pop\n  pop\n  jump\t// out\n    /* \"#utility.yul\":7183:7352   */\ntag_42:\n    /* \"#utility.yul\":7227:7233   */\n  0x00\n    /* \"#utility.yul\":7260:7311   */\n  tag_134\n    /* \"#utility.yul\":7308:7309   */\n  0x00\n    /* \"#utility.yul\":7304:7310   */\n  not\n    /* \"#utility.yul\":7296:7301   */\n  dup5\n    /* \"#utility.yul\":7293:7294   */\n  0x08\n    /* \"#utility.yul\":7289:7302   */\n  mul\n    /* \"#utility.yul\":7260:7311   */\n  tag_41\n  jump\t// in\ntag_134:\n    /* \"#utility.yul\":7256:7312   */\n  not\n    /* \"#utility.yul\":7341:7345   */\n  dup1\n    /* \"#utility.yul\":7335:7339   */\n  dup4\n    /* \"#utility.yul\":7331:7346   */\n  and\n    /* \"#utility.yul\":7321:7346   */\n  swap2\n  pop\n    /* \"#utility.yul\":7234:7352   */\n  pop\n    /* \"#utility.yul\":7183:7352   */\n  swap3\n  swap2\n  pop\n  pop\n  jump\t// out\n    /* \"#utility.yul\":7357:7652   */\ntag_43:\n    /* \"#utility.yul\":7433:7437   */\n  0x00\n    /* \"#utility.yul\":7579:7608   */\n  tag_136\n    /* \"#utility.yul\":7604:7607   */\n  dup4\n    /* \"#utility.yul\":7598:7602   */\n  dup4\n    /* \"#utility.yul\":7579:7608   */\n  tag_42\n  jump\t// in\ntag_136:\n    /* \"#utility.yul\":7571:7608   */\n  swap2\n  pop\n    /* \"#utility.yul\":7641:7644   */\n  dup3\n    /* \"#utility.yul\":7638:7639   */\n  0x02\n    /* \"#utility.yul\":7634:7645   */\n  mul\n    /* \"#utility.yul\":7628:7632   */\n  dup3\n    /* \"#utility.yul\":7625:7646   */\n  or\n    /* \"#utility.yul\":7617:7646   */\n  swap1\n  pop\n    /* \"#utility.yul\":7357:7652   */\n  swap3\n  swap2\n  pop\n  pop\n  jump\t// out\n    /* \"#utility.yul\":7657:9052   */\ntag_7:\n    /* \"#utility.yul\":7774:7811   */\n  tag_138\n    /* \"#utility.yul\":7807:7810   */\n  dup3\n    /* \"#utility.yul\":7774:7811   */\n  tag_26\n  jump\t// in\ntag_138:\n    /* \"#utility.yul\":7876:7894   */\n  0xffffffffffffffff\n    /* \"#utility.yul\":7868:7874   */\n  dup2\n    /* \"#utility.yul\":7865:7895   */\n  gt\n    /* \"#utility.yul\":7862:7918   */\n  iszero\n  tag_139\n  jumpi\n    /* \"#utility.yul\":7898:7916   */\n  tag_140\n  tag_19\n  jump\t// in\ntag_140:\n    /* \"#utility.yul\":7862:7918   */\ntag_139:\n    /* \"#utility.yul\":7942:7980   */\n  tag_141\n    /* \"#utility.yul\":7974:7978   */\n  dup3\n    /* \"#utility.yul\":7968:7979   */\n  sload\n    /* \"#utility.yul\":7942:7980   */\n  tag_28\n  jump\t// in\ntag_141:\n    /* \"#utility.yul\":8027:8094   */\n  tag_142\n    /* \"#utility.yul\":8087:8093   */\n  dup3\n    /* \"#utility.yul\":8079:8085   */\n  dup3\n    /* \"#utility.yul\":8073:8077   */\n  dup6\n    /* \"#utility.yul\":8027:8094   */\n  tag_40\n  jump\t// in\ntag_142:\n    /* \"#utility.yul\":8121:8122   */\n  0x00\n    /* \"#utility.yul\":8145:8149   */\n  0x20\n    /* \"#utility.yul\":8132:8149   */\n  swap1\n  pop\n    /* \"#utility.yul\":8177:8179   */\n  0x1f\n    /* \"#utility.yul\":8169:8175   */\n  dup4\n    /* \"#utility.yul\":8166:8180   */\n  gt\n    /* \"#utility.yul\":8194:8195   */\n  0x01\n    /* \"#utility.yul\":8189:8807   */\n  dup2\n  eq\n  tag_144\n  jumpi\n    /* \"#utility.yul\":8851:8852   */\n  0x00\n    /* \"#utility.yul\":8868:8874   */\n  dup5\n    /* \"#utility.yul\":8865:8942   */\n  iszero\n  tag_145\n  jumpi\n    /* \"#utility.yul\":8917:8926   */\n  dup3\n    /* \"#utility.yul\":8912:8915   */\n  dup8\n    /* \"#utility.yul\":8908:8927   */\n  add\n    /* \"#utility.yul\":8902:8928   */\n  mload\n    /* \"#utility.yul\":8893:8928   */\n  swap1\n  pop\n    /* \"#utility.yul\":8865:8942   */\ntag_145:\n    /* \"#utility.yul\":8968:9035   */\n  tag_146\n    /* \"#utility.yul\":9028:9034   */\n  dup6\n    /* \"#utility.yul\":9021:9026   */\n  dup3\n    /* \"#utility.yul\":8968:9035   */\n  tag_43\n  jump\t// in\ntag_146:\n    /* \"#utility.yul\":8962:8966   */\n  dup7\n    /* \"#utility.yul\":8955:9036   */\n  sstore\n    /* \"#utility.yul\":8824:9046   */\n  pop\n    /* \"#utility.yul\":8159:9046   */\n  jump(tag_143)\n    /* \"#utility.yul\":8189:8807   */\ntag_144:\n    /* \"#utility.yul\":8241:8245   */\n  0x1f\n    /* \"#utility.yul\":8237:8246   */\n  not\n    /* \"#utility.yul\":8229:8235   */\n  dup5\n    /* \"#utility.yul\":8225:8247   */\n  and\n    /* \"#utility.yul\":8275:8312   */\n  tag_147\n    /* \"#utility.yul\":8307:8311   */\n  dup7\n    /* \"#utility.yul\":8275:8312   */\n  tag_29\n  jump\t// in\ntag_147:\n    /* \"#utility.yul\":8334:8335   */\n  0x00\n    /* \"#utility.yul\":8348:8556   */\ntag_148:\n    /* \"#utility.yul\":8362:8369   */\n  dup3\n    /* \"#utility.yul\":8359:8360   */\n  dup2\n    /* \"#utility.yul\":8356:8370   */\n  lt\n    /* \"#utility.yul\":8348:8556   */\n  iszero\n  tag_150\n  jumpi\n    /* \"#utility.yul\":8441:8450   */\n  dup5\n    /* \"#utility.yul\":8436:8439   */\n  dup10\n    /* \"#utility.yul\":8432:8451   */\n  add\n    /* \"#utility.yul\":8426:8452   */\n  mload\n    /* \"#utility.yul\":8418:8424   */\n  dup3\n    /* \"#utility.yul\":8411:8453   */\n  sstore\n    /* \"#utility.yul\":8492:8493   */\n  0x01\n    /* \"#utility.yul\":8484:8490   */\n  dup3\n    /* \"#utility.yul\":8480:8494   */\n  add\n    /* \"#utility.yul\":8470:8494   */\n  swap2\n  pop\n    /* \"#utility.yul\":8539:8541   */\n  0x20\n    /* \"#utility.yul\":8528:8537   */\n  dup6\n    /* \"#utility.yul\":8524:8542   */\n  add\n    /* \"#utility.yul\":8511:8542   */\n  swap5\n  pop\n    /* \"#utility.yul\":8385:8389   */\n  0x20\n    /* \"#utility.yul\":8382:8383   */\n  dup2\n    /* \"#utility.yul\":8378:8390   */\n  add\n    /* \"#utility.yul\":8373:8390   */\n  swap1\n  pop\n    /* \"#utility.yul\":8348:8556   */\n  jump(tag_148)\ntag_150:\n    /* \"#utility.yul\":8584:8590   */\n  dup7\n    /* \"#utility.yul\":8575:8582   */\n  dup4\n    /* \"#utility.yul\":8572:8591   */\n  lt\n    /* \"#utility.yul\":8569:8748   */\n  iszero\n  tag_151\n  jumpi\n    /* \"#utility.yul\":8642:8651   */\n  dup5\n    /* \"#utility.yul\":8637:8640   */\n  dup10\n    /* \"#utility.yul\":8633:8652   */\n  add\n    /* \"#utility.yul\":8627:8653   */\n  mload\n    /* \"#utility.yul\":8685:8733   */\n  tag_152\n    /* \"#utility.yul\":8727:8731   */\n  0x1f\n    /* \"#utility.yul\":8719:8725   */\n  dup10\n    /* \"#utility.yul\":8715:8732   */\n  and\n    /* \"#utility.yul\":8704:8713   */\n  dup3\n    /* \"#utility.yul\":8685:8733   */\n  tag_42\n  jump\t// in\ntag_152:\n    /* \"#utility.yul\":8677:8683   */\n  dup4\n    /* \"#utility.yul\":8670:8734   */\n  sstore\n    /* \"#utility.yul\":8592:8748   */\n  pop\n    /* \"#utility.yul\":8569:8748   */\ntag_151:\n    /* \"#utility.yul\":8794:8795   */\n  0x01\n    /* \"#utility.yul\":8790:8791   */\n  0x02\n    /* \"#utility.yul\":8782:8788   */\n  dup9\n    /* \"#utility.yul\":8778:8792   */\n  mul\n    /* \"#utility.yul\":8774:8796   */\n  add\n    /* \"#utility.yul\":8768:8772   */\n  dup9\n    /* \"#utility.yul\":8761:8797   */\n  sstore\n    /* \"#utility.yul\":8196:8807   */\n  pop\n  pop\n  pop\n    /* \"#utility.yul\":8159:9046   */\ntag_143:\n  pop\n    /* \"#utility.yul\":7749:9052   */\n  pop\n  pop\n  pop\n    /* \"#utility.yul\":7657:9052   */\n  pop\n  pop\n  jump\t// out\n    /* \"Dapp/MoneyTransfer.sol\":71:1959  contract  MoneyTransfer {... */\ntag_9:\n  dataSize(sub_0)\n  dup1\n  dataOffset(sub_0)\n  0x00\n  codecopy\n  0x00\n  return\nstop\n\nsub_0: assembly {\n        /* \"Dapp/MoneyTransfer.sol\":71:1959  contract  MoneyTransfer {... */\n      mstore(0x40, 0x80)\n      callvalue\n      dup1\n      iszero\n      tag_1\n      jumpi\n      0x00\n      dup1\n      revert\n    tag_1:\n      pop\n      jumpi(tag_2, lt(calldatasize, 0x04))\n      shr(0xe0, calldataload(0x00))\n      dup1\n      0x8fa11864\n      gt\n      tag_12\n      jumpi\n      dup1\n      0x8fa11864\n      eq\n      tag_7\n      jumpi\n      dup1\n      0x94b5dcaa\n      eq\n      tag_8\n      jumpi\n      dup1\n      0xaa8c217c\n      eq\n      tag_9\n      jumpi\n      dup1\n      0xbc309496\n      eq\n      tag_10\n      jumpi\n      dup1\n      0xe21f37ce\n      eq\n      tag_11\n      jumpi\n      jump(tag_2)\n    tag_12:\n      dup1\n      0x062a7544\n      eq\n      tag_3\n      jumpi\n      dup1\n      0x34f5ccde\n      eq\n      tag_4\n      jumpi\n      dup1\n      0x42fb7936\n      eq\n      tag_5\n      jumpi\n      dup1\n      0x7b9a3f4c\n      eq\n      tag_6\n      jumpi\n    tag_2:\n      0x00\n      dup1\n      revert\n        /* \"Dapp/MoneyTransfer.sol\":728:1474  function sendMoney( uint _amount, address _receiver) public m_validAddress(_receiver) m_checkCard{... */\n    tag_3:\n      tag_13\n      0x04\n      dup1\n      calldatasize\n      sub\n      dup2\n      add\n      swap1\n      tag_14\n      swap2\n      swap1\n      tag_15\n      jump\t// in\n    tag_14:\n      tag_16\n      jump\t// in\n    tag_13:\n      stop\n        /* \"Dapp/MoneyTransfer.sol\":496:521  uint public countTransfer */\n    tag_4:\n      tag_17\n      tag_18\n      jump\t// in\n    tag_17:\n      mload(0x40)\n      tag_19\n      swap2\n      swap1\n      tag_20\n      jump\t// in\n    tag_19:\n      mload(0x40)\n      dup1\n      swap2\n      sub\n      swap1\n      return\n        /* \"Dapp/MoneyTransfer.sol\":470:487  string public cvv */\n    tag_5:\n      tag_21\n      tag_22\n      jump\t// in\n    tag_21:\n      mload(0x40)\n      tag_23\n      swap2\n      swap1\n      tag_24\n      jump\t// in\n    tag_23:\n      mload(0x40)\n      dup1\n      swap2\n      sub\n      swap1\n      return\n        /* \"Dapp/MoneyTransfer.sol\":134:159  uint256 public TotalFunds */\n    tag_6:\n      tag_25\n      tag_26\n      jump\t// in\n    tag_25:\n      mload(0x40)\n      tag_27\n      swap2\n      swap1\n      tag_20\n      jump\t// in\n    tag_27:\n      mload(0x40)\n      dup1\n      swap2\n      sub\n      swap1\n      return\n        /* \"Dapp/MoneyTransfer.sol\":438:462  string public cardNumber */\n    tag_7:\n      tag_28\n      tag_29\n      jump\t// in\n    tag_28:\n      mload(0x40)\n      tag_30\n      swap2\n      swap1\n      tag_24\n      jump\t// in\n    tag_30:\n      mload(0x40)\n      dup1\n      swap2\n      sub\n      swap1\n      return\n        /* \"Dapp/MoneyTransfer.sol\":252:288  uint256 public totalWeekTransactions */\n    tag_8:\n      tag_31\n      tag_32\n      jump\t// in\n    tag_31:\n      mload(0x40)\n      tag_33\n      swap2\n      swap1\n      tag_20\n      jump\t// in\n    tag_33:\n      mload(0x40)\n      dup1\n      swap2\n      sub\n      swap1\n      return\n        /* \"Dapp/MoneyTransfer.sol\":106:127  uint256 public amount */\n    tag_9:\n      tag_34\n      tag_35\n      jump\t// in\n    tag_34:\n      mload(0x40)\n      tag_36\n      swap2\n      swap1\n      tag_20\n      jump\t// in\n    tag_36:\n      mload(0x40)\n      dup1\n      swap2\n      sub\n      swap1\n      return\n        /* \"Dapp/MoneyTransfer.sol\":375:403  uint256 public receiverFunds */\n    tag_10:\n      tag_37\n      tag_38\n      jump\t// in\n    tag_37:\n      mload(0x40)\n      tag_39\n      swap2\n      swap1\n      tag_20\n      jump\t// in\n    tag_39:\n      mload(0x40)\n      dup1\n      swap2\n      sub\n      swap1\n      return\n        /* \"Dapp/MoneyTransfer.sol\":410:431  string public message */\n    tag_11:\n      tag_40\n      tag_41\n      jump\t// in\n    tag_40:\n      mload(0x40)\n      tag_42\n      swap2\n      swap1\n      tag_24\n      jump\t// in\n    tag_42:\n      mload(0x40)\n      dup1\n      swap2\n      sub\n      swap1\n      return\n        /* \"Dapp/MoneyTransfer.sol\":728:1474  function sendMoney( uint _amount, address _receiver) public m_validAddress(_receiver) m_checkCard{... */\n    tag_16:\n        /* \"Dapp/MoneyTransfer.sol\":803:812  _receiver */\n      dup1\n        /* \"Dapp/MoneyTransfer.sol\":1685:1690  _addr */\n      dup1\n        /* \"Dapp/MoneyTransfer.sol\":1674:1682  receiver */\n      0x02\n      0x00\n        /* \"Dapp/MoneyTransfer.sol\":1674:1690  receiver = _addr */\n      0x0100\n      exp\n      dup2\n      sload\n      dup2\n      0xffffffffffffffffffffffffffffffffffffffff\n      mul\n      not\n      and\n      swap1\n      dup4\n      0xffffffffffffffffffffffffffffffffffffffff\n      and\n      mul\n      or\n      swap1\n      sstore\n      pop\n        /* \"Dapp/MoneyTransfer.sol\":1726:1727  0 */\n      0x00\n        /* \"Dapp/MoneyTransfer.sol\":1709:1728  _addr != address(0) */\n      0xffffffffffffffffffffffffffffffffffffffff\n      and\n        /* \"Dapp/MoneyTransfer.sol\":1709:1714  _addr */\n      dup2\n        /* \"Dapp/MoneyTransfer.sol\":1709:1728  _addr != address(0) */\n      0xffffffffffffffffffffffffffffffffffffffff\n      and\n      sub\n        /* \"Dapp/MoneyTransfer.sol\":1701:1761  require(_addr != address(0), \" This address doesn't exists\") */\n      tag_44\n      jumpi\n      mload(0x40)\n      0x08c379a000000000000000000000000000000000000000000000000000000000\n      dup2\n      mstore\n      0x04\n      add\n      tag_45\n      swap1\n      tag_46\n      jump\t// in\n    tag_45:\n      mload(0x40)\n      dup1\n      swap2\n      sub\n      swap1\n      revert\n    tag_44:\n        /* \"Dapp/MoneyTransfer.sol\":1872:1873  8 */\n      0x08\n        /* \"Dapp/MoneyTransfer.sol\":1850:1860  cardNumber */\n      0x0a\n        /* \"Dapp/MoneyTransfer.sol\":1844:1868  bytes(cardNumber).length */\n      dup1\n      sload\n      tag_48\n      swap1\n      tag_49\n      jump\t// in\n    tag_48:\n      swap1\n      pop\n        /* \"Dapp/MoneyTransfer.sol\":1844:1873  bytes(cardNumber).length == 8 */\n      eq\n        /* \"Dapp/MoneyTransfer.sol\":1844:1899  bytes(cardNumber).length == 8 && bytes(cvv).length == 3 */\n      dup1\n      iszero\n      tag_50\n      jumpi\n      pop\n        /* \"Dapp/MoneyTransfer.sol\":1898:1899  3 */\n      0x03\n        /* \"Dapp/MoneyTransfer.sol\":1883:1886  cvv */\n      0x0b\n        /* \"Dapp/MoneyTransfer.sol\":1877:1894  bytes(cvv).length */\n      dup1\n      sload\n      tag_51\n      swap1\n      tag_49\n      jump\t// in\n    tag_51:\n      swap1\n      pop\n        /* \"Dapp/MoneyTransfer.sol\":1877:1899  bytes(cvv).length == 3 */\n      eq\n        /* \"Dapp/MoneyTransfer.sol\":1844:1899  bytes(cardNumber).length == 8 && bytes(cvv).length == 3 */\n    tag_50:\n        /* \"Dapp/MoneyTransfer.sol\":1836:1924  require(bytes(cardNumber).length == 8 && bytes(cvv).length == 3, \"No valid credit card\") */\n      tag_52\n      jumpi\n      mload(0x40)\n      0x08c379a000000000000000000000000000000000000000000000000000000000\n      dup2\n      mstore\n      0x04\n      add\n      tag_53\n      swap1\n      tag_54\n      jump\t// in\n    tag_53:\n      mload(0x40)\n      dup1\n      swap2\n      sub\n      swap1\n      revert\n    tag_52:\n        /* \"Dapp/MoneyTransfer.sol\":847:856  _receiver */\n      dup2\n        /* \"Dapp/MoneyTransfer.sol\":836:844  receiver */\n      0x02\n      0x00\n        /* \"Dapp/MoneyTransfer.sol\":836:856  receiver = _receiver */\n      0x0100\n      exp\n      dup2\n      sload\n      dup2\n      0xffffffffffffffffffffffffffffffffffffffff\n      mul\n      not\n      and\n      swap1\n      dup4\n      0xffffffffffffffffffffffffffffffffffffffff\n      and\n      mul\n      or\n      swap1\n      sstore\n      pop\n        /* \"Dapp/MoneyTransfer.sol\":876:883  _amount */\n      dup3\n        /* \"Dapp/MoneyTransfer.sol\":867:873  amount */\n      0x00\n        /* \"Dapp/MoneyTransfer.sol\":867:883  amount = _amount */\n      dup2\n      swap1\n      sstore\n      pop\n        /* \"Dapp/MoneyTransfer.sol\":914:915  0 */\n      0x00\n        /* \"Dapp/MoneyTransfer.sol\":898:911  countTransfer */\n      0x0c\n        /* \"Dapp/MoneyTransfer.sol\":898:915  countTransfer = 0 */\n      dup2\n      swap1\n      sstore\n      pop\n        /* \"Dapp/MoneyTransfer.sol\":968:974  uint i */\n      0x00\n        /* \"Dapp/MoneyTransfer.sol\":964:1445  for(uint i = 0; i <= 5 ; i++){... */\n    tag_56:\n        /* \"Dapp/MoneyTransfer.sol\":985:986  5 */\n      0x05\n        /* \"Dapp/MoneyTransfer.sol\":980:981  i */\n      dup2\n        /* \"Dapp/MoneyTransfer.sol\":980:986  i <= 5 */\n      gt\n        /* \"Dapp/MoneyTransfer.sol\":964:1445  for(uint i = 0; i <= 5 ; i++){... */\n      tag_57\n      jumpi\n        /* \"Dapp/MoneyTransfer.sol\":1014:1396  while (day == 24 hours && countTransfer <=5 && maxTransaction <= 2000){... */\n    tag_59:\n        /* \"Dapp/MoneyTransfer.sol\":1028:1036  24 hours */\n      0x015180\n        /* \"Dapp/MoneyTransfer.sol\":1021:1024  day */\n      sload(0x03)\n        /* \"Dapp/MoneyTransfer.sol\":1021:1036  day == 24 hours */\n      eq\n        /* \"Dapp/MoneyTransfer.sol\":1021:1057  day == 24 hours && countTransfer <=5 */\n      dup1\n      iszero\n      tag_61\n      jumpi\n      pop\n        /* \"Dapp/MoneyTransfer.sol\":1056:1057  5 */\n      0x05\n        /* \"Dapp/MoneyTransfer.sol\":1040:1053  countTransfer */\n      sload(0x0c)\n        /* \"Dapp/MoneyTransfer.sol\":1040:1057  countTransfer <=5 */\n      gt\n      iszero\n        /* \"Dapp/MoneyTransfer.sol\":1021:1057  day == 24 hours && countTransfer <=5 */\n    tag_61:\n        /* \"Dapp/MoneyTransfer.sol\":1021:1083  day == 24 hours && countTransfer <=5 && maxTransaction <= 2000 */\n      dup1\n      iszero\n      tag_62\n      jumpi\n      pop\n        /* \"Dapp/MoneyTransfer.sol\":1079:1083  2000 */\n      0x07d0\n        /* \"Dapp/MoneyTransfer.sol\":1061:1075  maxTransaction */\n      sload(0x05)\n        /* \"Dapp/MoneyTransfer.sol\":1061:1083  maxTransaction <= 2000 */\n      gt\n      iszero\n        /* \"Dapp/MoneyTransfer.sol\":1021:1083  day == 24 hours && countTransfer <=5 && maxTransaction <= 2000 */\n    tag_62:\n        /* \"Dapp/MoneyTransfer.sol\":1014:1396  while (day == 24 hours && countTransfer <=5 && maxTransaction <= 2000){... */\n      iszero\n      tag_60\n      jumpi\n        /* \"Dapp/MoneyTransfer.sol\":1139:1140  0 */\n      0x00\n        /* \"Dapp/MoneyTransfer.sol\":1126:1136  TotalFunds */\n      sload(0x01)\n        /* \"Dapp/MoneyTransfer.sol\":1126:1140  TotalFunds > 0 */\n      gt\n        /* \"Dapp/MoneyTransfer.sol\":1126:1163  TotalFunds > 0 && TotalFunds > amount */\n      dup1\n      iszero\n      tag_63\n      jumpi\n      pop\n        /* \"Dapp/MoneyTransfer.sol\":1157:1163  amount */\n      sload(0x00)\n        /* \"Dapp/MoneyTransfer.sol\":1144:1154  TotalFunds */\n      sload(0x01)\n        /* \"Dapp/MoneyTransfer.sol\":1144:1163  TotalFunds > amount */\n      gt\n        /* \"Dapp/MoneyTransfer.sol\":1126:1163  TotalFunds > 0 && TotalFunds > amount */\n    tag_63:\n        /* \"Dapp/MoneyTransfer.sol\":1123:1379  if(TotalFunds > 0 && TotalFunds > amount){... */\n      iszero\n      tag_64\n      jumpi\n        /* \"Dapp/MoneyTransfer.sol\":1201:1207  amount */\n      sload(0x00)\n        /* \"Dapp/MoneyTransfer.sol\":1187:1197  TotalFunds */\n      0x01\n      0x00\n        /* \"Dapp/MoneyTransfer.sol\":1187:1207  TotalFunds -= amount */\n      dup3\n      dup3\n      sload\n      tag_65\n      swap2\n      swap1\n      tag_66\n      jump\t// in\n    tag_65:\n      swap3\n      pop\n      pop\n      dup2\n      swap1\n      sstore\n      pop\n        /* \"Dapp/MoneyTransfer.sol\":1230:1260  message = \"Transfer completed\" */\n      mload(0x40)\n      dup1\n      0x40\n      add\n      0x40\n      mstore\n      dup1\n      0x12\n      dup2\n      mstore\n      0x20\n      add\n      0x5472616e7366657220636f6d706c657465640000000000000000000000000000\n      dup2\n      mstore\n      pop\n        /* \"Dapp/MoneyTransfer.sol\":1230:1237  message */\n      0x09\n        /* \"Dapp/MoneyTransfer.sol\":1230:1260  message = \"Transfer completed\" */\n      swap1\n      dup2\n      tag_67\n      swap2\n      swap1\n      tag_68\n      jump\t// in\n    tag_67:\n      pop\n        /* \"Dapp/MoneyTransfer.sol\":1123:1379  if(TotalFunds > 0 && TotalFunds > amount){... */\n      jump(tag_69)\n    tag_64:\n        /* \"Dapp/MoneyTransfer.sol\":1329:1358  message = \"Not enough founds\" */\n      mload(0x40)\n      dup1\n      0x40\n      add\n      0x40\n      mstore\n      dup1\n      0x11\n      dup2\n      mstore\n      0x20\n      add\n      0x4e6f7420656e6f75676820666f756e6473000000000000000000000000000000\n      dup2\n      mstore\n      pop\n        /* \"Dapp/MoneyTransfer.sol\":1329:1336  message */\n      0x09\n        /* \"Dapp/MoneyTransfer.sol\":1329:1358  message = \"Not enough founds\" */\n      swap1\n      dup2\n      tag_70\n      swap2\n      swap1\n      tag_68\n      jump\t// in\n    tag_70:\n      pop\n        /* \"Dapp/MoneyTransfer.sol\":1123:1379  if(TotalFunds > 0 && TotalFunds > amount){... */\n    tag_69:\n        /* \"Dapp/MoneyTransfer.sol\":1014:1396  while (day == 24 hours && countTransfer <=5 && maxTransaction <= 2000){... */\n      jump(tag_59)\n    tag_60:\n        /* \"Dapp/MoneyTransfer.sol\":1417:1430  countTransfer */\n      0x0c\n      0x00\n        /* \"Dapp/MoneyTransfer.sol\":1417:1433  countTransfer ++ */\n      dup2\n      sload\n      dup1\n      swap3\n      swap2\n      swap1\n      tag_71\n      swap1\n      tag_72\n      jump\t// in\n    tag_71:\n      swap2\n      swap1\n      pop\n      sstore\n      pop\n        /* \"Dapp/MoneyTransfer.sol\":989:992  i++ */\n      dup1\n      dup1\n      tag_73\n      swap1\n      tag_72\n      jump\t// in\n    tag_73:\n      swap2\n      pop\n      pop\n        /* \"Dapp/MoneyTransfer.sol\":964:1445  for(uint i = 0; i <= 5 ; i++){... */\n      jump(tag_56)\n    tag_57:\n      pop\n        /* \"Dapp/MoneyTransfer.sol\":728:1474  function sendMoney( uint _amount, address _receiver) public m_validAddress(_receiver) m_checkCard{... */\n      pop\n      pop\n      pop\n      jump\t// out\n        /* \"Dapp/MoneyTransfer.sol\":496:521  uint public countTransfer */\n    tag_18:\n      sload(0x0c)\n      dup2\n      jump\t// out\n        /* \"Dapp/MoneyTransfer.sol\":470:487  string public cvv */\n    tag_22:\n      0x0b\n      dup1\n      sload\n      tag_74\n      swap1\n      tag_49\n      jump\t// in\n    tag_74:\n      dup1\n      0x1f\n      add\n      0x20\n      dup1\n      swap2\n      div\n      mul\n      0x20\n      add\n      mload(0x40)\n      swap1\n      dup2\n      add\n      0x40\n      mstore\n      dup1\n      swap3\n      swap2\n      swap1\n      dup2\n      dup2\n      mstore\n      0x20\n      add\n      dup3\n      dup1\n      sload\n      tag_75\n      swap1\n      tag_49\n      jump\t// in\n    tag_75:\n      dup1\n      iszero\n      tag_76\n      jumpi\n      dup1\n      0x1f\n      lt\n      tag_77\n      jumpi\n      0x0100\n      dup1\n      dup4\n      sload\n      div\n      mul\n      dup4\n      mstore\n      swap2\n      0x20\n      add\n      swap2\n      jump(tag_76)\n    tag_77:\n      dup3\n      add\n      swap2\n      swap1\n      0x00\n      mstore\n      keccak256(0x00, 0x20)\n      swap1\n    tag_78:\n      dup2\n      sload\n      dup2\n      mstore\n      swap1\n      0x01\n      add\n      swap1\n      0x20\n      add\n      dup1\n      dup4\n      gt\n      tag_78\n      jumpi\n      dup3\n      swap1\n      sub\n      0x1f\n      and\n      dup3\n      add\n      swap2\n    tag_76:\n      pop\n      pop\n      pop\n      pop\n      pop\n      dup2\n      jump\t// out\n        /* \"Dapp/MoneyTransfer.sol\":134:159  uint256 public TotalFunds */\n    tag_26:\n      sload(0x01)\n      dup2\n      jump\t// out\n        /* \"Dapp/MoneyTransfer.sol\":438:462  string public cardNumber */\n    tag_29:\n      0x0a\n      dup1\n      sload\n      tag_79\n      swap1\n      tag_49\n      jump\t// in\n    tag_79:\n      dup1\n      0x1f\n      add\n      0x20\n      dup1\n      swap2\n      div\n      mul\n      0x20\n      add\n      mload(0x40)\n      swap1\n      dup2\n      add\n      0x40\n      mstore\n      dup1\n      swap3\n      swap2\n      swap1\n      dup2\n      dup2\n      mstore\n      0x20\n      add\n      dup3\n      dup1\n      sload\n      tag_80\n      swap1\n      tag_49\n      jump\t// in\n    tag_80:\n      dup1\n      iszero\n      tag_81\n      jumpi\n      dup1\n      0x1f\n      lt\n      tag_82\n      jumpi\n      0x0100\n      dup1\n      dup4\n      sload\n      div\n      mul\n      dup4\n      mstore\n      swap2\n      0x20\n      add\n      swap2\n      jump(tag_81)\n    tag_82:\n      dup3\n      add\n      swap2\n      swap1\n      0x00\n      mstore\n      keccak256(0x00, 0x20)\n      swap1\n    tag_83:\n      dup2\n      sload\n      dup2\n      mstore\n      swap1\n      0x01\n      add\n      swap1\n      0x20\n      add\n      dup1\n      dup4\n      gt\n      tag_83\n      jumpi\n      dup3\n      swap1\n      sub\n      0x1f\n      and\n      dup3\n      add\n      swap2\n    tag_81:\n      pop\n      pop\n      pop\n      pop\n      pop\n      dup2\n      jump\t// out\n        /* \"Dapp/MoneyTransfer.sol\":252:288  uint256 public totalWeekTransactions */\n    tag_32:\n      sload(0x04)\n      dup2\n      jump\t// out\n        /* \"Dapp/MoneyTransfer.sol\":106:127  uint256 public amount */\n    tag_35:\n      sload(0x00)\n      dup2\n      jump\t// out\n        /* \"Dapp/MoneyTransfer.sol\":375:403  uint256 public receiverFunds */\n    tag_38:\n      sload(0x08)\n      dup2\n      jump\t// out\n        /* \"Dapp/MoneyTransfer.sol\":410:431  string public message */\n    tag_41:\n      0x09\n      dup1\n      sload\n      tag_84\n      swap1\n      tag_49\n      jump\t// in\n    tag_84:\n      dup1\n      0x1f\n      add\n      0x20\n      dup1\n      swap2\n      div\n      mul\n      0x20\n      add\n      mload(0x40)\n      swap1\n      dup2\n      add\n      0x40\n      mstore\n      dup1\n      swap3\n      swap2\n      swap1\n      dup2\n      dup2\n      mstore\n      0x20\n      add\n      dup3\n      dup1\n      sload\n      tag_85\n      swap1\n      tag_49\n      jump\t// in\n    tag_85:\n      dup1\n      iszero\n      tag_86\n      jumpi\n      dup1\n      0x1f\n      lt\n      tag_87\n      jumpi\n      0x0100\n      dup1\n      dup4\n      sload\n      div\n      mul\n      dup4\n      mstore\n      swap2\n      0x20\n      add\n      swap2\n      jump(tag_86)\n    tag_87:\n      dup3\n      add\n      swap2\n      swap1\n      0x00\n      mstore\n      keccak256(0x00, 0x20)\n      swap1\n    tag_88:\n      dup2\n      sload\n      dup2\n      mstore\n      swap1\n      0x01\n      add\n      swap1\n      0x20\n      add\n      dup1\n      dup4\n      gt\n      tag_88\n      jumpi\n      dup3\n      swap1\n      sub\n      0x1f\n      and\n      dup3\n      add\n      swap2\n    tag_86:\n      pop\n      pop\n      pop\n      pop\n      pop\n      dup2\n      jump\t// out\n        /* \"#utility.yul\":88:205   */\n    tag_90:\n        /* \"#utility.yul\":197:198   */\n      0x00\n        /* \"#utility.yul\":194:195   */\n      dup1\n        /* \"#utility.yul\":187:199   */\n      revert\n        /* \"#utility.yul\":334:411   */\n    tag_92:\n        /* \"#utility.yul\":371:378   */\n      0x00\n        /* \"#utility.yul\":400:405   */\n      dup2\n        /* \"#utility.yul\":389:405   */\n      swap1\n      pop\n        /* \"#utility.yul\":334:411   */\n      swap2\n      swap1\n      pop\n      jump\t// out\n        /* \"#utility.yul\":417:539   */\n    tag_93:\n        /* \"#utility.yul\":490:514   */\n      tag_133\n        /* \"#utility.yul\":508:513   */\n      dup2\n        /* \"#utility.yul\":490:514   */\n      tag_92\n      jump\t// in\n    tag_133:\n        /* \"#utility.yul\":483:488   */\n      dup2\n        /* \"#utility.yul\":480:515   */\n      eq\n        /* \"#utility.yul\":470:533   */\n      tag_134\n      jumpi\n        /* \"#utility.yul\":529:530   */\n      0x00\n        /* \"#utility.yul\":526:527   */\n      dup1\n        /* \"#utility.yul\":519:531   */\n      revert\n        /* \"#utility.yul\":470:533   */\n    tag_134:\n        /* \"#utility.yul\":417:539   */\n      pop\n      jump\t// out\n        /* \"#utility.yul\":545:684   */\n    tag_94:\n        /* \"#utility.yul\":591:596   */\n      0x00\n        /* \"#utility.yul\":629:635   */\n      dup2\n        /* \"#utility.yul\":616:636   */\n      calldataload\n        /* \"#utility.yul\":607:636   */\n      swap1\n      pop\n        /* \"#utility.yul\":645:678   */\n      tag_136\n        /* \"#utility.yul\":672:677   */\n      dup2\n        /* \"#utility.yul\":645:678   */\n      tag_93\n      jump\t// in\n    tag_136:\n        /* \"#utility.yul\":545:684   */\n      swap3\n      swap2\n      pop\n      pop\n      jump\t// out\n        /* \"#utility.yul\":690:816   */\n    tag_95:\n        /* \"#utility.yul\":727:734   */\n      0x00\n        /* \"#utility.yul\":767:809   */\n      0xffffffffffffffffffffffffffffffffffffffff\n        /* \"#utility.yul\":760:765   */\n      dup3\n        /* \"#utility.yul\":756:810   */\n      and\n        /* \"#utility.yul\":745:810   */\n      swap1\n      pop\n        /* \"#utility.yul\":690:816   */\n      swap2\n      swap1\n      pop\n      jump\t// out\n        /* \"#utility.yul\":822:918   */\n    tag_96:\n        /* \"#utility.yul\":859:866   */\n      0x00\n        /* \"#utility.yul\":888:912   */\n      tag_139\n        /* \"#utility.yul\":906:911   */\n      dup3\n        /* \"#utility.yul\":888:912   */\n      tag_95\n      jump\t// in\n    tag_139:\n        /* \"#utility.yul\":877:912   */\n      swap1\n      pop\n        /* \"#utility.yul\":822:918   */\n      swap2\n      swap1\n      pop\n      jump\t// out\n        /* \"#utility.yul\":924:1046   */\n    tag_97:\n        /* \"#utility.yul\":997:1021   */\n      tag_141\n        /* \"#utility.yul\":1015:1020   */\n      dup2\n        /* \"#utility.yul\":997:1021   */\n      tag_96\n      jump\t// in\n    tag_141:\n        /* \"#utility.yul\":990:995   */\n      dup2\n        /* \"#utility.yul\":987:1022   */\n      eq\n        /* \"#utility.yul\":977:1040   */\n      tag_142\n      jumpi\n        /* \"#utility.yul\":1036:1037   */\n      0x00\n        /* \"#utility.yul\":1033:1034   */\n      dup1\n        /* \"#utility.yul\":1026:1038   */\n      revert\n        /* \"#utility.yul\":977:1040   */\n    tag_142:\n        /* \"#utility.yul\":924:1046   */\n      pop\n      jump\t// out\n        /* \"#utility.yul\":1052:1191   */\n    tag_98:\n        /* \"#utility.yul\":1098:1103   */\n      0x00\n        /* \"#utility.yul\":1136:1142   */\n      dup2\n        /* \"#utility.yul\":1123:1143   */\n      calldataload\n        /* \"#utility.yul\":1114:1143   */\n      swap1\n      pop\n        /* \"#utility.yul\":1152:1185   */\n      tag_144\n        /* \"#utility.yul\":1179:1184   */\n      dup2\n        /* \"#utility.yul\":1152:1185   */\n      tag_97\n      jump\t// in\n    tag_144:\n        /* \"#utility.yul\":1052:1191   */\n      swap3\n      swap2\n      pop\n      pop\n      jump\t// out\n        /* \"#utility.yul\":1197:1671   */\n    tag_15:\n        /* \"#utility.yul\":1265:1271   */\n      0x00\n        /* \"#utility.yul\":1273:1279   */\n      dup1\n        /* \"#utility.yul\":1322:1324   */\n      0x40\n        /* \"#utility.yul\":1310:1319   */\n      dup4\n        /* \"#utility.yul\":1301:1308   */\n      dup6\n        /* \"#utility.yul\":1297:1320   */\n      sub\n        /* \"#utility.yul\":1293:1325   */\n      slt\n        /* \"#utility.yul\":1290:1409   */\n      iszero\n      tag_146\n      jumpi\n        /* \"#utility.yul\":1328:1407   */\n      tag_147\n      tag_90\n      jump\t// in\n    tag_147:\n        /* \"#utility.yul\":1290:1409   */\n    tag_146:\n        /* \"#utility.yul\":1448:1449   */\n      0x00\n        /* \"#utility.yul\":1473:1526   */\n      tag_148\n        /* \"#utility.yul\":1518:1525   */\n      dup6\n        /* \"#utility.yul\":1509:1515   */\n      dup3\n        /* \"#utility.yul\":1498:1507   */\n      dup7\n        /* \"#utility.yul\":1494:1516   */\n      add\n        /* \"#utility.yul\":1473:1526   */\n      tag_94\n      jump\t// in\n    tag_148:\n        /* \"#utility.yul\":1463:1526   */\n      swap3\n      pop\n        /* \"#utility.yul\":1419:1536   */\n      pop\n        /* \"#utility.yul\":1575:1577   */\n      0x20\n        /* \"#utility.yul\":1601:1654   */\n      tag_149\n        /* \"#utility.yul\":1646:1653   */\n      dup6\n        /* \"#utility.yul\":1637:1643   */\n      dup3\n        /* \"#utility.yul\":1626:1635   */\n      dup7\n        /* \"#utility.yul\":1622:1644   */\n      add\n        /* \"#utility.yul\":1601:1654   */\n      tag_98\n      jump\t// in\n    tag_149:\n        /* \"#utility.yul\":1591:1654   */\n      swap2\n      pop\n        /* \"#utility.yul\":1546:1664   */\n      pop\n        /* \"#utility.yul\":1197:1671   */\n      swap3\n      pop\n      swap3\n      swap1\n      pop\n      jump\t// out\n        /* \"#utility.yul\":1677:1795   */\n    tag_99:\n        /* \"#utility.yul\":1764:1788   */\n      tag_151\n        /* \"#utility.yul\":1782:1787   */\n      dup2\n        /* \"#utility.yul\":1764:1788   */\n      tag_92\n      jump\t// in\n    tag_151:\n        /* \"#utility.yul\":1759:1762   */\n      dup3\n        /* \"#utility.yul\":1752:1789   */\n      mstore\n        /* \"#utility.yul\":1677:1795   */\n      pop\n      pop\n      jump\t// out\n        /* \"#utility.yul\":1801:2023   */\n    tag_20:\n        /* \"#utility.yul\":1894:1898   */\n      0x00\n        /* \"#utility.yul\":1932:1934   */\n      0x20\n        /* \"#utility.yul\":1921:1930   */\n      dup3\n        /* \"#utility.yul\":1917:1935   */\n      add\n        /* \"#utility.yul\":1909:1935   */\n      swap1\n      pop\n        /* \"#utility.yul\":1945:2016   */\n      tag_153\n        /* \"#utility.yul\":2013:2014   */\n      0x00\n        /* \"#utility.yul\":2002:2011   */\n      dup4\n        /* \"#utility.yul\":1998:2015   */\n      add\n        /* \"#utility.yul\":1989:1995   */\n      dup5\n        /* \"#utility.yul\":1945:2016   */\n      tag_99\n      jump\t// in\n    tag_153:\n        /* \"#utility.yul\":1801:2023   */\n      swap3\n      swap2\n      pop\n      pop\n      jump\t// out\n        /* \"#utility.yul\":2029:2128   */\n    tag_100:\n        /* \"#utility.yul\":2081:2087   */\n      0x00\n        /* \"#utility.yul\":2115:2120   */\n      dup2\n        /* \"#utility.yul\":2109:2121   */\n      mload\n        /* \"#utility.yul\":2099:2121   */\n      swap1\n      pop\n        /* \"#utility.yul\":2029:2128   */\n      swap2\n      swap1\n      pop\n      jump\t// out\n        /* \"#utility.yul\":2134:2303   */\n    tag_101:\n        /* \"#utility.yul\":2218:2229   */\n      0x00\n        /* \"#utility.yul\":2252:2258   */\n      dup3\n        /* \"#utility.yul\":2247:2250   */\n      dup3\n        /* \"#utility.yul\":2240:2259   */\n      mstore\n        /* \"#utility.yul\":2292:2296   */\n      0x20\n        /* \"#utility.yul\":2287:2290   */\n      dup3\n        /* \"#utility.yul\":2283:2297   */\n      add\n        /* \"#utility.yul\":2268:2297   */\n      swap1\n      pop\n        /* \"#utility.yul\":2134:2303   */\n      swap3\n      swap2\n      pop\n      pop\n      jump\t// out\n        /* \"#utility.yul\":2309:2616   */\n    tag_102:\n        /* \"#utility.yul\":2377:2378   */\n      0x00\n        /* \"#utility.yul\":2387:2500   */\n    tag_157:\n        /* \"#utility.yul\":2401:2407   */\n      dup4\n        /* \"#utility.yul\":2398:2399   */\n      dup2\n        /* \"#utility.yul\":2395:2408   */\n      lt\n        /* \"#utility.yul\":2387:2500   */\n      iszero\n      tag_159\n      jumpi\n        /* \"#utility.yul\":2486:2487   */\n      dup1\n        /* \"#utility.yul\":2481:2484   */\n      dup3\n        /* \"#utility.yul\":2477:2488   */\n      add\n        /* \"#utility.yul\":2471:2489   */\n      mload\n        /* \"#utility.yul\":2467:2468   */\n      dup2\n        /* \"#utility.yul\":2462:2465   */\n      dup5\n        /* \"#utility.yul\":2458:2469   */\n      add\n        /* \"#utility.yul\":2451:2490   */\n      mstore\n        /* \"#utility.yul\":2423:2425   */\n      0x20\n        /* \"#utility.yul\":2420:2421   */\n      dup2\n        /* \"#utility.yul\":2416:2426   */\n      add\n        /* \"#utility.yul\":2411:2426   */\n      swap1\n      pop\n        /* \"#utility.yul\":2387:2500   */\n      jump(tag_157)\n    tag_159:\n        /* \"#utility.yul\":2518:2524   */\n      dup4\n        /* \"#utility.yul\":2515:2516   */\n      dup2\n        /* \"#utility.yul\":2512:2525   */\n      gt\n        /* \"#utility.yul\":2509:2610   */\n      iszero\n      tag_160\n      jumpi\n        /* \"#utility.yul\":2598:2599   */\n      0x00\n        /* \"#utility.yul\":2589:2595   */\n      dup5\n        /* \"#utility.yul\":2584:2587   */\n      dup5\n        /* \"#utility.yul\":2580:2596   */\n      add\n        /* \"#utility.yul\":2573:2600   */\n      mstore\n        /* \"#utility.yul\":2509:2610   */\n    tag_160:\n        /* \"#utility.yul\":2358:2616   */\n      pop\n        /* \"#utility.yul\":2309:2616   */\n      pop\n      pop\n      pop\n      jump\t// out\n        /* \"#utility.yul\":2622:2724   */\n    tag_103:\n        /* \"#utility.yul\":2663:2669   */\n      0x00\n        /* \"#utility.yul\":2714:2716   */\n      0x1f\n        /* \"#utility.yul\":2710:2717   */\n      not\n        /* \"#utility.yul\":2705:2707   */\n      0x1f\n        /* \"#utility.yul\":2698:2703   */\n      dup4\n        /* \"#utility.yul\":2694:2708   */\n      add\n        /* \"#utility.yul\":2690:2718   */\n      and\n        /* \"#utility.yul\":2680:2718   */\n      swap1\n      pop\n        /* \"#utility.yul\":2622:2724   */\n      swap2\n      swap1\n      pop\n      jump\t// out\n        /* \"#utility.yul\":2730:3094   */\n    tag_104:\n        /* \"#utility.yul\":2818:2821   */\n      0x00\n        /* \"#utility.yul\":2846:2885   */\n      tag_163\n        /* \"#utility.yul\":2879:2884   */\n      dup3\n        /* \"#utility.yul\":2846:2885   */\n      tag_100\n      jump\t// in\n    tag_163:\n        /* \"#utility.yul\":2901:2972   */\n      tag_164\n        /* \"#utility.yul\":2965:2971   */\n      dup2\n        /* \"#utility.yul\":2960:2963   */\n      dup6\n        /* \"#utility.yul\":2901:2972   */\n      tag_101\n      jump\t// in\n    tag_164:\n        /* \"#utility.yul\":2894:2972   */\n      swap4\n      pop\n        /* \"#utility.yul\":2981:3033   */\n      tag_165\n        /* \"#utility.yul\":3026:3032   */\n      dup2\n        /* \"#utility.yul\":3021:3024   */\n      dup6\n        /* \"#utility.yul\":3014:3018   */\n      0x20\n        /* \"#utility.yul\":3007:3012   */\n      dup7\n        /* \"#utility.yul\":3003:3019   */\n      add\n        /* \"#utility.yul\":2981:3033   */\n      tag_102\n      jump\t// in\n    tag_165:\n        /* \"#utility.yul\":3058:3087   */\n      tag_166\n        /* \"#utility.yul\":3080:3086   */\n      dup2\n        /* \"#utility.yul\":3058:3087   */\n      tag_103\n      jump\t// in\n    tag_166:\n        /* \"#utility.yul\":3053:3056   */\n      dup5\n        /* \"#utility.yul\":3049:3088   */\n      add\n        /* \"#utility.yul\":3042:3088   */\n      swap2\n      pop\n        /* \"#utility.yul\":2822:3094   */\n      pop\n        /* \"#utility.yul\":2730:3094   */\n      swap3\n      swap2\n      pop\n      pop\n      jump\t// out\n        /* \"#utility.yul\":3100:3413   */\n    tag_24:\n        /* \"#utility.yul\":3213:3217   */\n      0x00\n        /* \"#utility.yul\":3251:3253   */\n      0x20\n        /* \"#utility.yul\":3240:3249   */\n      dup3\n        /* \"#utility.yul\":3236:3254   */\n      add\n        /* \"#utility.yul\":3228:3254   */\n      swap1\n      pop\n        /* \"#utility.yul\":3300:3309   */\n      dup2\n        /* \"#utility.yul\":3294:3298   */\n      dup2\n        /* \"#utility.yul\":3290:3310   */\n      sub\n        /* \"#utility.yul\":3286:3287   */\n      0x00\n        /* \"#utility.yul\":3275:3284   */\n      dup4\n        /* \"#utility.yul\":3271:3288   */\n      add\n        /* \"#utility.yul\":3264:3311   */\n      mstore\n        /* \"#utility.yul\":3328:3406   */\n      tag_168\n        /* \"#utility.yul\":3401:3405   */\n      dup2\n        /* \"#utility.yul\":3392:3398   */\n      dup5\n        /* \"#utility.yul\":3328:3406   */\n      tag_104\n      jump\t// in\n    tag_168:\n        /* \"#utility.yul\":3320:3406   */\n      swap1\n      pop\n        /* \"#utility.yul\":3100:3413   */\n      swap3\n      swap2\n      pop\n      pop\n      jump\t// out\n        /* \"#utility.yul\":3419:3597   */\n    tag_105:\n        /* \"#utility.yul\":3559:3589   */\n      0x2054686973206164647265737320646f65736e27742065786973747300000000\n        /* \"#utility.yul\":3555:3556   */\n      0x00\n        /* \"#utility.yul\":3547:3553   */\n      dup3\n        /* \"#utility.yul\":3543:3557   */\n      add\n        /* \"#utility.yul\":3536:3590   */\n      mstore\n        /* \"#utility.yul\":3419:3597   */\n      pop\n      jump\t// out\n        /* \"#utility.yul\":3603:3969   */\n    tag_106:\n        /* \"#utility.yul\":3745:3748   */\n      0x00\n        /* \"#utility.yul\":3766:3833   */\n      tag_171\n        /* \"#utility.yul\":3830:3832   */\n      0x1c\n        /* \"#utility.yul\":3825:3828   */\n      dup4\n        /* \"#utility.yul\":3766:3833   */\n      tag_101\n      jump\t// in\n    tag_171:\n        /* \"#utility.yul\":3759:3833   */\n      swap2\n      pop\n        /* \"#utility.yul\":3842:3935   */\n      tag_172\n        /* \"#utility.yul\":3931:3934   */\n      dup3\n        /* \"#utility.yul\":3842:3935   */\n      tag_105\n      jump\t// in\n    tag_172:\n        /* \"#utility.yul\":3960:3962   */\n      0x20\n        /* \"#utility.yul\":3955:3958   */\n      dup3\n        /* \"#utility.yul\":3951:3963   */\n      add\n        /* \"#utility.yul\":3944:3963   */\n      swap1\n      pop\n        /* \"#utility.yul\":3603:3969   */\n      swap2\n      swap1\n      pop\n      jump\t// out\n        /* \"#utility.yul\":3975:4394   */\n    tag_46:\n        /* \"#utility.yul\":4141:4145   */\n      0x00\n        /* \"#utility.yul\":4179:4181   */\n      0x20\n        /* \"#utility.yul\":4168:4177   */\n      dup3\n        /* \"#utility.yul\":4164:4182   */\n      add\n        /* \"#utility.yul\":4156:4182   */\n      swap1\n      pop\n        /* \"#utility.yul\":4228:4237   */\n      dup2\n        /* \"#utility.yul\":4222:4226   */\n      dup2\n        /* \"#utility.yul\":4218:4238   */\n      sub\n        /* \"#utility.yul\":4214:4215   */\n      0x00\n        /* \"#utility.yul\":4203:4212   */\n      dup4\n        /* \"#utility.yul\":4199:4216   */\n      add\n        /* \"#utility.yul\":4192:4239   */\n      mstore\n        /* \"#utility.yul\":4256:4387   */\n      tag_174\n        /* \"#utility.yul\":4382:4386   */\n      dup2\n        /* \"#utility.yul\":4256:4387   */\n      tag_106\n      jump\t// in\n    tag_174:\n        /* \"#utility.yul\":4248:4387   */\n      swap1\n      pop\n        /* \"#utility.yul\":3975:4394   */\n      swap2\n      swap1\n      pop\n      jump\t// out\n        /* \"#utility.yul\":4400:4580   */\n    tag_107:\n        /* \"#utility.yul\":4448:4525   */\n      0x4e487b7100000000000000000000000000000000000000000000000000000000\n        /* \"#utility.yul\":4445:4446   */\n      0x00\n        /* \"#utility.yul\":4438:4526   */\n      mstore\n        /* \"#utility.yul\":4545:4549   */\n      0x22\n        /* \"#utility.yul\":4542:4543   */\n      0x04\n        /* \"#utility.yul\":4535:4550   */\n      mstore\n        /* \"#utility.yul\":4569:4573   */\n      0x24\n        /* \"#utility.yul\":4566:4567   */\n      0x00\n        /* \"#utility.yul\":4559:4574   */\n      revert\n        /* \"#utility.yul\":4586:4906   */\n    tag_49:\n        /* \"#utility.yul\":4630:4636   */\n      0x00\n        /* \"#utility.yul\":4667:4668   */\n      0x02\n        /* \"#utility.yul\":4661:4665   */\n      dup3\n        /* \"#utility.yul\":4657:4669   */\n      div\n        /* \"#utility.yul\":4647:4669   */\n      swap1\n      pop\n        /* \"#utility.yul\":4714:4715   */\n      0x01\n        /* \"#utility.yul\":4708:4712   */\n      dup3\n        /* \"#utility.yul\":4704:4716   */\n      and\n        /* \"#utility.yul\":4735:4753   */\n      dup1\n        /* \"#utility.yul\":4725:4806   */\n      tag_177\n      jumpi\n        /* \"#utility.yul\":4791:4795   */\n      0x7f\n        /* \"#utility.yul\":4783:4789   */\n      dup3\n        /* \"#utility.yul\":4779:4796   */\n      and\n        /* \"#utility.yul\":4769:4796   */\n      swap2\n      pop\n        /* \"#utility.yul\":4725:4806   */\n    tag_177:\n        /* \"#utility.yul\":4853:4855   */\n      0x20\n        /* \"#utility.yul\":4845:4851   */\n      dup3\n        /* \"#utility.yul\":4842:4856   */\n      lt\n        /* \"#utility.yul\":4822:4840   */\n      dup2\n        /* \"#utility.yul\":4819:4857   */\n      sub\n        /* \"#utility.yul\":4816:4900   */\n      tag_178\n      jumpi\n        /* \"#utility.yul\":4872:4890   */\n      tag_179\n      tag_107\n      jump\t// in\n    tag_179:\n        /* \"#utility.yul\":4816:4900   */\n    tag_178:\n        /* \"#utility.yul\":4637:4906   */\n      pop\n        /* \"#utility.yul\":4586:4906   */\n      swap2\n      swap1\n      pop\n      jump\t// out\n        /* \"#utility.yul\":4912:5082   */\n    tag_108:\n        /* \"#utility.yul\":5052:5074   */\n      0x4e6f2076616c6964206372656469742063617264000000000000000000000000\n        /* \"#utility.yul\":5048:5049   */\n      0x00\n        /* \"#utility.yul\":5040:5046   */\n      dup3\n        /* \"#utility.yul\":5036:5050   */\n      add\n        /* \"#utility.yul\":5029:5075   */\n      mstore\n        /* \"#utility.yul\":4912:5082   */\n      pop\n      jump\t// out\n        /* \"#utility.yul\":5088:5454   */\n    tag_109:\n        /* \"#utility.yul\":5230:5233   */\n      0x00\n        /* \"#utility.yul\":5251:5318   */\n      tag_182\n        /* \"#utility.yul\":5315:5317   */\n      0x14\n        /* \"#utility.yul\":5310:5313   */\n      dup4\n        /* \"#utility.yul\":5251:5318   */\n      tag_101\n      jump\t// in\n    tag_182:\n        /* \"#utility.yul\":5244:5318   */\n      swap2\n      pop\n        /* \"#utility.yul\":5327:5420   */\n      tag_183\n        /* \"#utility.yul\":5416:5419   */\n      dup3\n        /* \"#utility.yul\":5327:5420   */\n      tag_108\n      jump\t// in\n    tag_183:\n        /* \"#utility.yul\":5445:5447   */\n      0x20\n        /* \"#utility.yul\":5440:5443   */\n      dup3\n        /* \"#utility.yul\":5436:5448   */\n      add\n        /* \"#utility.yul\":5429:5448   */\n      swap1\n      pop\n        /* \"#utility.yul\":5088:5454   */\n      swap2\n      swap1\n      pop\n      jump\t// out\n        /* \"#utility.yul\":5460:5879   */\n    tag_54:\n        /* \"#utility.yul\":5626:5630   */\n      0x00\n        /* \"#utility.yul\":5664:5666   */\n      0x20\n        /* \"#utility.yul\":5653:5662   */\n      dup3\n        /* \"#utility.yul\":5649:5667   */\n      add\n        /* \"#utility.yul\":5641:5667   */\n      swap1\n      pop\n        /* \"#utility.yul\":5713:5722   */\n      dup2\n        /* \"#utility.yul\":5707:5711   */\n      dup2\n        /* \"#utility.yul\":5703:5723   */\n      sub\n        /* \"#utility.yul\":5699:5700   */\n      0x00\n        /* \"#utility.yul\":5688:5697   */\n      dup4\n        /* \"#utility.yul\":5684:5701   */\n      add\n        /* \"#utility.yul\":5677:5724   */\n      mstore\n        /* \"#utility.yul\":5741:5872   */\n      tag_185\n        /* \"#utility.yul\":5867:5871   */\n      dup2\n        /* \"#utility.yul\":5741:5872   */\n      tag_109\n      jump\t// in\n    tag_185:\n        /* \"#utility.yul\":5733:5872   */\n      swap1\n      pop\n        /* \"#utility.yul\":5460:5879   */\n      swap2\n      swap1\n      pop\n      jump\t// out\n        /* \"#utility.yul\":5885:6065   */\n    tag_110:\n        /* \"#utility.yul\":5933:6010   */\n      0x4e487b7100000000000000000000000000000000000000000000000000000000\n        /* \"#utility.yul\":5930:5931   */\n      0x00\n        /* \"#utility.yul\":5923:6011   */\n      mstore\n        /* \"#utility.yul\":6030:6034   */\n      0x11\n        /* \"#utility.yul\":6027:6028   */\n      0x04\n        /* \"#utility.yul\":6020:6035   */\n      mstore\n        /* \"#utility.yul\":6054:6058   */\n      0x24\n        /* \"#utility.yul\":6051:6052   */\n      0x00\n        /* \"#utility.yul\":6044:6059   */\n      revert\n        /* \"#utility.yul\":6071:6262   */\n    tag_66:\n        /* \"#utility.yul\":6111:6115   */\n      0x00\n        /* \"#utility.yul\":6131:6151   */\n      tag_188\n        /* \"#utility.yul\":6149:6150   */\n      dup3\n        /* \"#utility.yul\":6131:6151   */\n      tag_92\n      jump\t// in\n    tag_188:\n        /* \"#utility.yul\":6126:6151   */\n      swap2\n      pop\n        /* \"#utility.yul\":6165:6185   */\n      tag_189\n        /* \"#utility.yul\":6183:6184   */\n      dup4\n        /* \"#utility.yul\":6165:6185   */\n      tag_92\n      jump\t// in\n    tag_189:\n        /* \"#utility.yul\":6160:6185   */\n      swap3\n      pop\n        /* \"#utility.yul\":6204:6205   */\n      dup3\n        /* \"#utility.yul\":6201:6202   */\n      dup3\n        /* \"#utility.yul\":6198:6206   */\n      lt\n        /* \"#utility.yul\":6195:6229   */\n      iszero\n      tag_190\n      jumpi\n        /* \"#utility.yul\":6209:6227   */\n      tag_191\n      tag_110\n      jump\t// in\n    tag_191:\n        /* \"#utility.yul\":6195:6229   */\n    tag_190:\n        /* \"#utility.yul\":6254:6255   */\n      dup3\n        /* \"#utility.yul\":6251:6252   */\n      dup3\n        /* \"#utility.yul\":6247:6256   */\n      sub\n        /* \"#utility.yul\":6239:6256   */\n      swap1\n      pop\n        /* \"#utility.yul\":6071:6262   */\n      swap3\n      swap2\n      pop\n      pop\n      jump\t// out\n        /* \"#utility.yul\":6268:6448   */\n    tag_111:\n        /* \"#utility.yul\":6316:6393   */\n      0x4e487b7100000000000000000000000000000000000000000000000000000000\n        /* \"#utility.yul\":6313:6314   */\n      0x00\n        /* \"#utility.yul\":6306:6394   */\n      mstore\n        /* \"#utility.yul\":6413:6417   */\n      0x41\n        /* \"#utility.yul\":6410:6411   */\n      0x04\n        /* \"#utility.yul\":6403:6418   */\n      mstore\n        /* \"#utility.yul\":6437:6441   */\n      0x24\n        /* \"#utility.yul\":6434:6435   */\n      0x00\n        /* \"#utility.yul\":6427:6442   */\n      revert\n        /* \"#utility.yul\":6454:6595   */\n    tag_112:\n        /* \"#utility.yul\":6503:6507   */\n      0x00\n        /* \"#utility.yul\":6526:6529   */\n      dup2\n        /* \"#utility.yul\":6518:6529   */\n      swap1\n      pop\n        /* \"#utility.yul\":6549:6552   */\n      dup2\n        /* \"#utility.yul\":6546:6547   */\n      0x00\n        /* \"#utility.yul\":6539:6553   */\n      mstore\n        /* \"#utility.yul\":6583:6587   */\n      0x20\n        /* \"#utility.yul\":6580:6581   */\n      0x00\n        /* \"#utility.yul\":6570:6588   */\n      keccak256\n        /* \"#utility.yul\":6562:6588   */\n      swap1\n      pop\n        /* \"#utility.yul\":6454:6595   */\n      swap2\n      swap1\n      pop\n      jump\t// out\n        /* \"#utility.yul\":6601:6694   */\n    tag_113:\n        /* \"#utility.yul\":6638:6644   */\n      0x00\n        /* \"#utility.yul\":6685:6687   */\n      0x20\n        /* \"#utility.yul\":6680:6682   */\n      0x1f\n        /* \"#utility.yul\":6673:6678   */\n      dup4\n        /* \"#utility.yul\":6669:6683   */\n      add\n        /* \"#utility.yul\":6665:6688   */\n      div\n        /* \"#utility.yul\":6655:6688   */\n      swap1\n      pop\n        /* \"#utility.yul\":6601:6694   */\n      swap2\n      swap1\n      pop\n      jump\t// out\n        /* \"#utility.yul\":6700:6807   */\n    tag_114:\n        /* \"#utility.yul\":6744:6752   */\n      0x00\n        /* \"#utility.yul\":6794:6799   */\n      dup3\n        /* \"#utility.yul\":6788:6792   */\n      dup3\n        /* \"#utility.yul\":6784:6800   */\n      shl\n        /* \"#utility.yul\":6763:6800   */\n      swap1\n      pop\n        /* \"#utility.yul\":6700:6807   */\n      swap3\n      swap2\n      pop\n      pop\n      jump\t// out\n        /* \"#utility.yul\":6813:7206   */\n    tag_115:\n        /* \"#utility.yul\":6882:6888   */\n      0x00\n        /* \"#utility.yul\":6932:6933   */\n      0x08\n        /* \"#utility.yul\":6920:6930   */\n      dup4\n        /* \"#utility.yul\":6916:6934   */\n      mul\n        /* \"#utility.yul\":6955:7052   */\n      tag_197\n        /* \"#utility.yul\":6985:7051   */\n      0xffffffffffffffffffffffffffffffffffffffffffffffffffffffffffffffff\n        /* \"#utility.yul\":6974:6983   */\n      dup3\n        /* \"#utility.yul\":6955:7052   */\n      tag_114\n      jump\t// in\n    tag_197:\n        /* \"#utility.yul\":7073:7112   */\n      tag_198\n        /* \"#utility.yul\":7103:7111   */\n      dup7\n        /* \"#utility.yul\":7092:7101   */\n      dup4\n        /* \"#utility.yul\":7073:7112   */\n      tag_114\n      jump\t// in\n    tag_198:\n        /* \"#utility.yul\":7061:7112   */\n      swap6\n      pop\n        /* \"#utility.yul\":7145:7149   */\n      dup1\n        /* \"#utility.yul\":7141:7150   */\n      not\n        /* \"#utility.yul\":7134:7139   */\n      dup5\n        /* \"#utility.yul\":7130:7151   */\n      and\n        /* \"#utility.yul\":7121:7151   */\n      swap4\n      pop\n        /* \"#utility.yul\":7194:7198   */\n      dup1\n        /* \"#utility.yul\":7184:7192   */\n      dup7\n        /* \"#utility.yul\":7180:7199   */\n      and\n        /* \"#utility.yul\":7173:7178   */\n      dup5\n        /* \"#utility.yul\":7170:7200   */\n      or\n        /* \"#utility.yul\":7160:7200   */\n      swap3\n      pop\n        /* \"#utility.yul\":6889:7206   */\n      pop\n      pop\n        /* \"#utility.yul\":6813:7206   */\n      swap4\n      swap3\n      pop\n      pop\n      pop\n      jump\t// out\n        /* \"#utility.yul\":7212:7272   */\n    tag_116:\n        /* \"#utility.yul\":7240:7243   */\n      0x00\n        /* \"#utility.yul\":7261:7266   */\n      dup2\n        /* \"#utility.yul\":7254:7266   */\n      swap1\n      pop\n        /* \"#utility.yul\":7212:7272   */\n      swap2\n      swap1\n      pop\n      jump\t// out\n        /* \"#utility.yul\":7278:7420   */\n    tag_117:\n        /* \"#utility.yul\":7328:7337   */\n      0x00\n        /* \"#utility.yul\":7361:7414   */\n      tag_201\n        /* \"#utility.yul\":7379:7413   */\n      tag_202\n        /* \"#utility.yul\":7388:7412   */\n      tag_203\n        /* \"#utility.yul\":7406:7411   */\n      dup5\n        /* \"#utility.yul\":7388:7412   */\n      tag_92\n      jump\t// in\n    tag_203:\n        /* \"#utility.yul\":7379:7413   */\n      tag_116\n      jump\t// in\n    tag_202:\n        /* \"#utility.yul\":7361:7414   */\n      tag_92\n      jump\t// in\n    tag_201:\n        /* \"#utility.yul\":7348:7414   */\n      swap1\n      pop\n        /* \"#utility.yul\":7278:7420   */\n      swap2\n      swap1\n      pop\n      jump\t// out\n        /* \"#utility.yul\":7426:7501   */\n    tag_118:\n        /* \"#utility.yul\":7469:7472   */\n      0x00\n        /* \"#utility.yul\":7490:7495   */\n      dup2\n        /* \"#utility.yul\":7483:7495   */\n      swap1\n      pop\n        /* \"#utility.yul\":7426:7501   */\n      swap2\n      swap1\n      pop\n      jump\t// out\n        /* \"#utility.yul\":7507:7776   */\n    tag_119:\n        /* \"#utility.yul\":7617:7656   */\n      tag_206\n        /* \"#utility.yul\":7648:7655   */\n      dup4\n        /* \"#utility.yul\":7617:7656   */\n      tag_117\n      jump\t// in\n    tag_206:\n        /* \"#utility.yul\":7678:7769   */\n      tag_207\n        /* \"#utility.yul\":7727:7768   */\n      tag_208\n        /* \"#utility.yul\":7751:7767   */\n      dup3\n        /* \"#utility.yul\":7727:7768   */\n      tag_118\n      jump\t// in\n    tag_208:\n        /* \"#utility.yul\":7719:7725   */\n      dup5\n        /* \"#utility.yul\":7712:7716   */\n      dup5\n        /* \"#utility.yul\":7706:7717   */\n      sload\n        /* \"#utility.yul\":7678:7769   */\n      tag_115\n      jump\t// in\n    tag_207:\n        /* \"#utility.yul\":7672:7676   */\n      dup3\n        /* \"#utility.yul\":7665:7770   */\n      sstore\n        /* \"#utility.yul\":7583:7776   */\n      pop\n        /* \"#utility.yul\":7507:7776   */\n      pop\n      pop\n      pop\n      jump\t// out\n        /* \"#utility.yul\":7782:7855   */\n    tag_120:\n        /* \"#utility.yul\":7827:7830   */\n      0x00\n        /* \"#utility.yul\":7782:7855   */\n      swap1\n      jump\t// out\n        /* \"#utility.yul\":7861:8050   */\n    tag_121:\n        /* \"#utility.yul\":7938:7970   */\n      tag_211\n      tag_120\n      jump\t// in\n    tag_211:\n        /* \"#utility.yul\":7979:8044   */\n      tag_212\n        /* \"#utility.yul\":8037:8043   */\n      dup2\n        /* \"#utility.yul\":8029:8035   */\n      dup5\n        /* \"#utility.yul\":8023:8027   */\n      dup5\n        /* \"#utility.yul\":7979:8044   */\n      tag_119\n      jump\t// in\n    tag_212:\n        /* \"#utility.yul\":7914:8050   */\n      pop\n        /* \"#utility.yul\":7861:8050   */\n      pop\n      pop\n      jump\t// out\n        /* \"#utility.yul\":8056:8242   */\n    tag_122:\n        /* \"#utility.yul\":8116:8236   */\n    tag_214:\n        /* \"#utility.yul\":8133:8136   */\n      dup2\n        /* \"#utility.yul\":8126:8131   */\n      dup2\n        /* \"#utility.yul\":8123:8137   */\n      lt\n        /* \"#utility.yul\":8116:8236   */\n      iszero\n      tag_216\n      jumpi\n        /* \"#utility.yul\":8187:8226   */\n      tag_217\n        /* \"#utility.yul\":8224:8225   */\n      0x00\n        /* \"#utility.yul\":8217:8222   */\n      dup3\n        /* \"#utility.yul\":8187:8226   */\n      tag_121\n      jump\t// in\n    tag_217:\n        /* \"#utility.yul\":8160:8161   */\n      0x01\n        /* \"#utility.yul\":8153:8158   */\n      dup2\n        /* \"#utility.yul\":8149:8162   */\n      add\n        /* \"#utility.yul\":8140:8162   */\n      swap1\n      pop\n        /* \"#utility.yul\":8116:8236   */\n      jump(tag_214)\n    tag_216:\n        /* \"#utility.yul\":8056:8242   */\n      pop\n      pop\n      jump\t// out\n        /* \"#utility.yul\":8248:8791   */\n    tag_123:\n        /* \"#utility.yul\":8349:8351   */\n      0x1f\n        /* \"#utility.yul\":8344:8347   */\n      dup3\n        /* \"#utility.yul\":8341:8352   */\n      gt\n        /* \"#utility.yul\":8338:8784   */\n      iszero\n      tag_219\n      jumpi\n        /* \"#utility.yul\":8383:8421   */\n      tag_220\n        /* \"#utility.yul\":8415:8420   */\n      dup2\n        /* \"#utility.yul\":8383:8421   */\n      tag_112\n      jump\t// in\n    tag_220:\n        /* \"#utility.yul\":8467:8496   */\n      tag_221\n        /* \"#utility.yul\":8485:8495   */\n      dup5\n        /* \"#utility.yul\":8467:8496   */\n      tag_113\n      jump\t// in\n    tag_221:\n        /* \"#utility.yul\":8457:8465   */\n      dup2\n        /* \"#utility.yul\":8453:8497   */\n      add\n        /* \"#utility.yul\":8650:8652   */\n      0x20\n        /* \"#utility.yul\":8638:8648   */\n      dup6\n        /* \"#utility.yul\":8635:8653   */\n      lt\n        /* \"#utility.yul\":8632:8681   */\n      iszero\n      tag_222\n      jumpi\n        /* \"#utility.yul\":8671:8679   */\n      dup2\n        /* \"#utility.yul\":8656:8679   */\n      swap1\n      pop\n        /* \"#utility.yul\":8632:8681   */\n    tag_222:\n        /* \"#utility.yul\":8694:8774   */\n      tag_223\n        /* \"#utility.yul\":8750:8772   */\n      tag_224\n        /* \"#utility.yul\":8768:8771   */\n      dup6\n        /* \"#utility.yul\":8750:8772   */\n      tag_113\n      jump\t// in\n    tag_224:\n        /* \"#utility.yul\":8740:8748   */\n      dup4\n        /* \"#utility.yul\":8736:8773   */\n      add\n        /* \"#utility.yul\":8723:8734   */\n      dup3\n        /* \"#utility.yul\":8694:8774   */\n      tag_122\n      jump\t// in\n    tag_223:\n        /* \"#utility.yul\":8353:8784   */\n      pop\n      pop\n        /* \"#utility.yul\":8338:8784   */\n    tag_219:\n        /* \"#utility.yul\":8248:8791   */\n      pop\n      pop\n      pop\n      jump\t// out\n        /* \"#utility.yul\":8797:8914   */\n    tag_124:\n        /* \"#utility.yul\":8851:8859   */\n      0x00\n        /* \"#utility.yul\":8901:8906   */\n      dup3\n        /* \"#utility.yul\":8895:8899   */\n      dup3\n        /* \"#utility.yul\":8891:8907   */\n      shr\n        /* \"#utility.yul\":8870:8907   */\n      swap1\n      pop\n        /* \"#utility.yul\":8797:8914   */\n      swap3\n      swap2\n      pop\n      pop\n      jump\t// out\n        /* \"#utility.yul\":8920:9089   */\n    tag_125:\n        /* \"#utility.yul\":8964:8970   */\n      0x00\n        /* \"#utility.yul\":8997:9048   */\n      tag_227\n        /* \"#utility.yul\":9045:9046   */\n      0x00\n        /* \"#utility.yul\":9041:9047   */\n      not\n        /* \"#utility.yul\":9033:9038   */\n      dup5\n        /* \"#utility.yul\":9030:9031   */\n      0x08\n        /* \"#utility.yul\":9026:9039   */\n      mul\n        /* \"#utility.yul\":8997:9048   */\n      tag_124\n      jump\t// in\n    tag_227:\n        /* \"#utility.yul\":8993:9049   */\n      not\n        /* \"#utility.yul\":9078:9082   */\n      dup1\n        /* \"#utility.yul\":9072:9076   */\n      dup4\n        /* \"#utility.yul\":9068:9083   */\n      and\n        /* \"#utility.yul\":9058:9083   */\n      swap2\n      pop\n        /* \"#utility.yul\":8971:9089   */\n      pop\n        /* \"#utility.yul\":8920:9089   */\n      swap3\n      swap2\n      pop\n      pop\n      jump\t// out\n        /* \"#utility.yul\":9094:9389   */\n    tag_126:\n        /* \"#utility.yul\":9170:9174   */\n      0x00\n        /* \"#utility.yul\":9316:9345   */\n      tag_229\n        /* \"#utility.yul\":9341:9344   */\n      dup4\n        /* \"#utility.yul\":9335:9339   */\n      dup4\n        /* \"#utility.yul\":9316:9345   */\n      tag_125\n      jump\t// in\n    tag_229:\n        /* \"#utility.yul\":9308:9345   */\n      swap2\n      pop\n        /* \"#utility.yul\":9378:9381   */\n      dup3\n        /* \"#utility.yul\":9375:9376   */\n      0x02\n        /* \"#utility.yul\":9371:9382   */\n      mul\n        /* \"#utility.yul\":9365:9369   */\n      dup3\n        /* \"#utility.yul\":9362:9383   */\n      or\n        /* \"#utility.yul\":9354:9383   */\n      swap1\n      pop\n        /* \"#utility.yul\":9094:9389   */\n      swap3\n      swap2\n      pop\n      pop\n      jump\t// out\n        /* \"#utility.yul\":9394:10789   */\n    tag_68:\n        /* \"#utility.yul\":9511:9548   */\n      tag_231\n        /* \"#utility.yul\":9544:9547   */\n      dup3\n        /* \"#utility.yul\":9511:9548   */\n      tag_100\n      jump\t// in\n    tag_231:\n        /* \"#utility.yul\":9613:9631   */\n      0xffffffffffffffff\n        /* \"#utility.yul\":9605:9611   */\n      dup2\n        /* \"#utility.yul\":9602:9632   */\n      gt\n        /* \"#utility.yul\":9599:9655   */\n      iszero\n      tag_232\n      jumpi\n        /* \"#utility.yul\":9635:9653   */\n      tag_233\n      tag_111\n      jump\t// in\n    tag_233:\n        /* \"#utility.yul\":9599:9655   */\n    tag_232:\n        /* \"#utility.yul\":9679:9717   */\n      tag_234\n        /* \"#utility.yul\":9711:9715   */\n      dup3\n        /* \"#utility.yul\":9705:9716   */\n      sload\n        /* \"#utility.yul\":9679:9717   */\n      tag_49\n      jump\t// in\n    tag_234:\n        /* \"#utility.yul\":9764:9831   */\n      tag_235\n        /* \"#utility.yul\":9824:9830   */\n      dup3\n        /* \"#utility.yul\":9816:9822   */\n      dup3\n        /* \"#utility.yul\":9810:9814   */\n      dup6\n        /* \"#utility.yul\":9764:9831   */\n      tag_123\n      jump\t// in\n    tag_235:\n        /* \"#utility.yul\":9858:9859   */\n      0x00\n        /* \"#utility.yul\":9882:9886   */\n      0x20\n        /* \"#utility.yul\":9869:9886   */\n      swap1\n      pop\n        /* \"#utility.yul\":9914:9916   */\n      0x1f\n        /* \"#utility.yul\":9906:9912   */\n      dup4\n        /* \"#utility.yul\":9903:9917   */\n      gt\n        /* \"#utility.yul\":9931:9932   */\n      0x01\n        /* \"#utility.yul\":9926:10544   */\n      dup2\n      eq\n      tag_237\n      jumpi\n        /* \"#utility.yul\":10588:10589   */\n      0x00\n        /* \"#utility.yul\":10605:10611   */\n      dup5\n        /* \"#utility.yul\":10602:10679   */\n      iszero\n      tag_238\n      jumpi\n        /* \"#utility.yul\":10654:10663   */\n      dup3\n        /* \"#utility.yul\":10649:10652   */\n      dup8\n        /* \"#utility.yul\":10645:10664   */\n      add\n        /* \"#utility.yul\":10639:10665   */\n      mload\n        /* \"#utility.yul\":10630:10665   */\n      swap1\n      pop\n        /* \"#utility.yul\":10602:10679   */\n    tag_238:\n        /* \"#utility.yul\":10705:10772   */\n      tag_239\n        /* \"#utility.yul\":10765:10771   */\n      dup6\n        /* \"#utility.yul\":10758:10763   */\n      dup3\n        /* \"#utility.yul\":10705:10772   */\n      tag_126\n      jump\t// in\n    tag_239:\n        /* \"#utility.yul\":10699:10703   */\n      dup7\n        /* \"#utility.yul\":10692:10773   */\n      sstore\n        /* \"#utility.yul\":10561:10783   */\n      pop\n        /* \"#utility.yul\":9896:10783   */\n      jump(tag_236)\n        /* \"#utility.yul\":9926:10544   */\n    tag_237:\n        /* \"#utility.yul\":9978:9982   */\n      0x1f\n        /* \"#utility.yul\":9974:9983   */\n      not\n        /* \"#utility.yul\":9966:9972   */\n      dup5\n        /* \"#utility.yul\":9962:9984   */\n      and\n        /* \"#utility.yul\":10012:10049   */\n      tag_240\n        /* \"#utility.yul\":10044:10048   */\n      dup7\n        /* \"#utility.yul\":10012:10049   */\n      tag_112\n      jump\t// in\n    tag_240:\n        /* \"#utility.yul\":10071:10072   */\n      0x00\n        /* \"#utility.yul\":10085:10293   */\n    tag_241:\n        /* \"#utility.yul\":10099:10106   */\n      dup3\n        /* \"#utility.yul\":10096:10097   */\n      dup2\n        /* \"#utility.yul\":10093:10107   */\n      lt\n        /* \"#utility.yul\":10085:10293   */\n      iszero\n      tag_243\n      jumpi\n        /* \"#utility.yul\":10178:10187   */\n      dup5\n        /* \"#utility.yul\":10173:10176   */\n      dup10\n        /* \"#utility.yul\":10169:10188   */\n      add\n        /* \"#utility.yul\":10163:10189   */\n      mload\n        /* \"#utility.yul\":10155:10161   */\n      dup3\n        /* \"#utility.yul\":10148:10190   */\n      sstore\n        /* \"#utility.yul\":10229:10230   */\n      0x01\n        /* \"#utility.yul\":10221:10227   */\n      dup3\n        /* \"#utility.yul\":10217:10231   */\n      add\n        /* \"#utility.yul\":10207:10231   */\n      swap2\n      pop\n        /* \"#utility.yul\":10276:10278   */\n      0x20\n        /* \"#utility.yul\":10265:10274   */\n      dup6\n        /* \"#utility.yul\":10261:10279   */\n      add\n        /* \"#utility.yul\":10248:10279   */\n      swap5\n      pop\n        /* \"#utility.yul\":10122:10126   */\n      0x20\n        /* \"#utility.yul\":10119:10120   */\n      dup2\n        /* \"#utility.yul\":10115:10127   */\n      add\n        /* \"#utility.yul\":10110:10127   */\n      swap1\n      pop\n        /* \"#utility.yul\":10085:10293   */\n      jump(tag_241)\n    tag_243:\n        /* \"#utility.yul\":10321:10327   */\n      dup7\n        /* \"#utility.yul\":10312:10319   */\n      dup4\n        /* \"#utility.yul\":10309:10328   */\n      lt\n        /* \"#utility.yul\":10306:10485   */\n      iszero\n      tag_244\n      jumpi\n        /* \"#utility.yul\":10379:10388   */\n      dup5\n        /* \"#utility.yul\":10374:10377   */\n      dup10\n        /* \"#utility.yul\":10370:10389   */\n      add\n        /* \"#utility.yul\":10364:10390   */\n      mload\n        /* \"#utility.yul\":10422:10470   */\n      tag_245\n        /* \"#utility.yul\":10464:10468   */\n      0x1f\n        /* \"#utility.yul\":10456:10462   */\n      dup10\n        /* \"#utility.yul\":10452:10469   */\n      and\n        /* \"#utility.yul\":10441:10450   */\n      dup3\n        /* \"#utility.yul\":10422:10470   */\n      tag_125\n      jump\t// in\n    tag_245:\n        /* \"#utility.yul\":10414:10420   */\n      dup4\n        /* \"#utility.yul\":10407:10471   */\n      sstore\n        /* \"#utility.yul\":10329:10485   */\n      pop\n        /* \"#utility.yul\":10306:10485   */\n    tag_244:\n        /* \"#utility.yul\":10531:10532   */\n      0x01\n        /* \"#utility.yul\":10527:10528   */\n      0x02\n        /* \"#utility.yul\":10519:10525   */\n      dup9\n        /* \"#utility.yul\":10515:10529   */\n      mul\n        /* \"#utility.yul\":10511:10533   */\n      add\n        /* \"#utility.yul\":10505:10509   */\n      dup9\n        /* \"#utility.yul\":10498:10534   */\n      sstore\n        /* \"#utility.yul\":9933:10544   */\n      pop\n      pop\n      pop\n        /* \"#utility.yul\":9896:10783   */\n    tag_236:\n      pop\n        /* \"#utility.yul\":9486:10789   */\n      pop\n      pop\n      pop\n        /* \"#utility.yul\":9394:10789   */\n      pop\n      pop\n      jump\t// out\n        /* \"#utility.yul\":10795:11028   */\n    tag_72:\n        /* \"#utility.yul\":10834:10837   */\n      0x00\n        /* \"#utility.yul\":10857:10881   */\n      tag_247\n        /* \"#utility.yul\":10875:10880   */\n      dup3\n        /* \"#utility.yul\":10857:10881   */\n      tag_92\n      jump\t// in\n    tag_247:\n        /* \"#utility.yul\":10848:10881   */\n      swap2\n      pop\n        /* \"#utility.yul\":10903:10969   */\n      0xffffffffffffffffffffffffffffffffffffffffffffffffffffffffffffffff\n        /* \"#utility.yul\":10896:10901   */\n      dup3\n        /* \"#utility.yul\":10893:10970   */\n      sub\n        /* \"#utility.yul\":10890:10993   */\n      tag_248\n      jumpi\n        /* \"#utility.yul\":10973:10991   */\n      tag_249\n      tag_110\n      jump\t// in\n    tag_249:\n        /* \"#utility.yul\":10890:10993   */\n    tag_248:\n        /* \"#utility.yul\":11020:11021   */\n      0x01\n        /* \"#utility.yul\":11013:11018   */\n      dup3\n        /* \"#utility.yul\":11009:11022   */\n      add\n        /* \"#utility.yul\":11002:11022   */\n      swap1\n      pop\n        /* \"#utility.yul\":10795:11028   */\n      swap2\n      swap1\n      pop\n      jump\t// out\n\n    auxdata: 0xa264697066735822122047dea4b8c7687e14eb2cdc0f8129960bcb63db318e5876f236befc5f9c9cc63a64736f6c634300080f0033\n}\n",
				"bytecode": {
					"linkReferences": {},
					"object": "6080604052620151806003553480156200001857600080fd5b50604051620012ab380380620012ab83398181016040528101906200003e91906200024a565b81600a90816200004f919062000525565b5080600b908162000061919062000525565b50826001819055505050506200060c565b6000604051905090565b600080fd5b600080fd5b6000819050919050565b6200009b8162000086565b8114620000a757600080fd5b50565b600081519050620000bb8162000090565b92915050565b600080fd5b600080fd5b6000601f19601f8301169050919050565b7f4e487b7100000000000000000000000000000000000000000000000000000000600052604160045260246000fd5b6200011682620000cb565b810181811067ffffffffffffffff82111715620001385762000137620000dc565b5b80604052505050565b60006200014d62000072565b90506200015b82826200010b565b919050565b600067ffffffffffffffff8211156200017e576200017d620000dc565b5b6200018982620000cb565b9050602081019050919050565b60005b83811015620001b657808201518184015260208101905062000199565b83811115620001c6576000848401525b50505050565b6000620001e3620001dd8462000160565b62000141565b905082815260208101848484011115620002025762000201620000c6565b5b6200020f84828562000196565b509392505050565b600082601f8301126200022f576200022e620000c1565b5b815162000241848260208601620001cc565b91505092915050565b6000806000606084860312156200026657620002656200007c565b5b60006200027686828701620000aa565b935050602084015167ffffffffffffffff8111156200029a576200029962000081565b5b620002a88682870162000217565b925050604084015167ffffffffffffffff811115620002cc57620002cb62000081565b5b620002da8682870162000217565b9150509250925092565b600081519050919050565b7f4e487b7100000000000000000000000000000000000000000000000000000000600052602260045260246000fd5b600060028204905060018216806200033757607f821691505b6020821081036200034d576200034c620002ef565b5b50919050565b60008190508160005260206000209050919050565b60006020601f8301049050919050565b600082821b905092915050565b600060088302620003b77fffffffffffffffffffffffffffffffffffffffffffffffffffffffffffffffff8262000378565b620003c3868362000378565b95508019841693508086168417925050509392505050565b6000819050919050565b60006200040662000400620003fa8462000086565b620003db565b62000086565b9050919050565b6000819050919050565b6200042283620003e5565b6200043a62000431826200040d565b84845462000385565b825550505050565b600090565b6200045162000442565b6200045e81848462000417565b505050565b5b8181101562000486576200047a60008262000447565b60018101905062000464565b5050565b601f821115620004d5576200049f8162000353565b620004aa8462000368565b81016020851015620004ba578190505b620004d2620004c98562000368565b83018262000463565b50505b505050565b600082821c905092915050565b6000620004fa60001984600802620004da565b1980831691505092915050565b6000620005158383620004e7565b9150826002028217905092915050565b6200053082620002e4565b67ffffffffffffffff8111156200054c576200054b620000dc565b5b6200055882546200031e565b620005658282856200048a565b600060209050601f8311600181146200059d576000841562000588578287015190505b62000594858262000507565b86555062000604565b601f198416620005ad8662000353565b60005b82811015620005d757848901518255600182019150602085019450602081019050620005b0565b86831015620005f75784890151620005f3601f891682620004e7565b8355505b6001600288020188555050505b505050505050565b610c8f806200061c6000396000f3fe608060405234801561001057600080fd5b50600436106100935760003560e01c80638fa11864116100665780638fa118641461010e57806394b5dcaa1461012c578063aa8c217c1461014a578063bc30949614610168578063e21f37ce1461018657610093565b8063062a75441461009857806334f5ccde146100b457806342fb7936146100d25780637b9a3f4c146100f0575b600080fd5b6100b260048036038101906100ad91906106a4565b6101a4565b005b6100bc610443565b6040516100c991906106f3565b60405180910390f35b6100da610449565b6040516100e791906107a7565b60405180910390f35b6100f86104d7565b60405161010591906106f3565b60405180910390f35b6101166104dd565b60405161012391906107a7565b60405180910390f35b61013461056b565b60405161014191906106f3565b60405180910390f35b610152610571565b60405161015f91906106f3565b60405180910390f35b610170610577565b60405161017d91906106f3565b60405180910390f35b61018e61057d565b60405161019b91906107a7565b60405180910390f35b8080600260006101000a81548173ffffffffffffffffffffffffffffffffffffffff021916908373ffffffffffffffffffffffffffffffffffffffff160217905550600073ffffffffffffffffffffffffffffffffffffffff168173ffffffffffffffffffffffffffffffffffffffff1603610255576040517f08c379a000000000000000000000000000000000000000000000000000000000815260040161024c90610815565b60405180910390fd5b6008600a805461026490610864565b905014801561028157506003600b805461027d90610864565b9050145b6102c0576040517f08c379a00000000000000000000000000000000000000000000000000000000081526004016102b7906108e1565b60405180910390fd5b81600260006101000a81548173ffffffffffffffffffffffffffffffffffffffff021916908373ffffffffffffffffffffffffffffffffffffffff160217905550826000819055506000600c8190555060005b6005811161043d575b6201518060035414801561033357506005600c5411155b801561034357506107d060055411155b1561041257600060015411801561035d5750600054600154115b156103c757600054600160008282546103769190610930565b925050819055506040518060400160405280601281526020017f5472616e7366657220636f6d706c657465640000000000000000000000000000815250600990816103c19190610b3f565b5061040d565b6040518060400160405280601181526020017f4e6f7420656e6f75676820666f756e64730000000000000000000000000000008152506009908161040b9190610b3f565b505b61031c565b600c600081548092919061042590610c11565b9190505550808061043590610c11565b915050610313565b50505050565b600c5481565b600b805461045690610864565b80601f016020809104026020016040519081016040528092919081815260200182805461048290610864565b80156104cf5780601f106104a4576101008083540402835291602001916104cf565b820191906000526020600020905b8154815290600101906020018083116104b257829003601f168201915b505050505081565b60015481565b600a80546104ea90610864565b80601f016020809104026020016040519081016040528092919081815260200182805461051690610864565b80156105635780601f1061053857610100808354040283529160200191610563565b820191906000526020600020905b81548152906001019060200180831161054657829003601f168201915b505050505081565b60045481565b60005481565b60085481565b6009805461058a90610864565b80601f01602080910402602001604051908101604052809291908181526020018280546105b690610864565b80156106035780601f106105d857610100808354040283529160200191610603565b820191906000526020600020905b8154815290600101906020018083116105e657829003601f168201915b505050505081565b600080fd5b6000819050919050565b61062381610610565b811461062e57600080fd5b50565b6000813590506106408161061a565b92915050565b600073ffffffffffffffffffffffffffffffffffffffff82169050919050565b600061067182610646565b9050919050565b61068181610666565b811461068c57600080fd5b50565b60008135905061069e81610678565b92915050565b600080604083850312156106bb576106ba61060b565b5b60006106c985828601610631565b92505060206106da8582860161068f565b9150509250929050565b6106ed81610610565b82525050565b600060208201905061070860008301846106e4565b92915050565b600081519050919050565b600082825260208201905092915050565b60005b8381101561074857808201518184015260208101905061072d565b83811115610757576000848401525b50505050565b6000601f19601f8301169050919050565b60006107798261070e565b6107838185610719565b935061079381856020860161072a565b61079c8161075d565b840191505092915050565b600060208201905081810360008301526107c1818461076e565b905092915050565b7f2054686973206164647265737320646f65736e27742065786973747300000000600082015250565b60006107ff601c83610719565b915061080a826107c9565b602082019050919050565b6000602082019050818103600083015261082e816107f2565b9050919050565b7f4e487b7100000000000000000000000000000000000000000000000000000000600052602260045260246000fd5b6000600282049050600182168061087c57607f821691505b60208210810361088f5761088e610835565b5b50919050565b7f4e6f2076616c6964206372656469742063617264000000000000000000000000600082015250565b60006108cb601483610719565b91506108d682610895565b602082019050919050565b600060208201905081810360008301526108fa816108be565b9050919050565b7f4e487b7100000000000000000000000000000000000000000000000000000000600052601160045260246000fd5b600061093b82610610565b915061094683610610565b92508282101561095957610958610901565b5b828203905092915050565b7f4e487b7100000000000000000000000000000000000000000000000000000000600052604160045260246000fd5b60008190508160005260206000209050919050565b60006020601f8301049050919050565b600082821b905092915050565b6000600883026109f57fffffffffffffffffffffffffffffffffffffffffffffffffffffffffffffffff826109b8565b6109ff86836109b8565b95508019841693508086168417925050509392505050565b6000819050919050565b6000610a3c610a37610a3284610610565b610a17565b610610565b9050919050565b6000819050919050565b610a5683610a21565b610a6a610a6282610a43565b8484546109c5565b825550505050565b600090565b610a7f610a72565b610a8a818484610a4d565b505050565b5b81811015610aae57610aa3600082610a77565b600181019050610a90565b5050565b601f821115610af357610ac481610993565b610acd846109a8565b81016020851015610adc578190505b610af0610ae8856109a8565b830182610a8f565b50505b505050565b600082821c905092915050565b6000610b1660001984600802610af8565b1980831691505092915050565b6000610b2f8383610b05565b9150826002028217905092915050565b610b488261070e565b67ffffffffffffffff811115610b6157610b60610964565b5b610b6b8254610864565b610b76828285610ab2565b600060209050601f831160018114610ba95760008415610b97578287015190505b610ba18582610b23565b865550610c09565b601f198416610bb786610993565b60005b82811015610bdf57848901518255600182019150602085019450602081019050610bba565b86831015610bfc5784890151610bf8601f891682610b05565b8355505b6001600288020188555050505b505050505050565b6000610c1c82610610565b91507fffffffffffffffffffffffffffffffffffffffffffffffffffffffffffffffff8203610c4e57610c4d610901565b5b60018201905091905056fea264697066735822122047dea4b8c7687e14eb2cdc0f8129960bcb63db318e5876f236befc5f9c9cc63a64736f6c634300080f0033",
					"opcodes": "PUSH1 0x80 PUSH1 0x40 MSTORE PUSH3 0x15180 PUSH1 0x3 SSTORE CALLVALUE DUP1 ISZERO PUSH3 0x18 JUMPI PUSH1 0x0 DUP1 REVERT JUMPDEST POP PUSH1 0x40 MLOAD PUSH3 0x12AB CODESIZE SUB DUP1 PUSH3 0x12AB DUP4 CODECOPY DUP2 DUP2 ADD PUSH1 0x40 MSTORE DUP2 ADD SWAP1 PUSH3 0x3E SWAP2 SWAP1 PUSH3 0x24A JUMP JUMPDEST DUP2 PUSH1 0xA SWAP1 DUP2 PUSH3 0x4F SWAP2 SWAP1 PUSH3 0x525 JUMP JUMPDEST POP DUP1 PUSH1 0xB SWAP1 DUP2 PUSH3 0x61 SWAP2 SWAP1 PUSH3 0x525 JUMP JUMPDEST POP DUP3 PUSH1 0x1 DUP2 SWAP1 SSTORE POP POP POP POP PUSH3 0x60C JUMP JUMPDEST PUSH1 0x0 PUSH1 0x40 MLOAD SWAP1 POP SWAP1 JUMP JUMPDEST PUSH1 0x0 DUP1 REVERT JUMPDEST PUSH1 0x0 DUP1 REVERT JUMPDEST PUSH1 0x0 DUP2 SWAP1 POP SWAP2 SWAP1 POP JUMP JUMPDEST PUSH3 0x9B DUP2 PUSH3 0x86 JUMP JUMPDEST DUP2 EQ PUSH3 0xA7 JUMPI PUSH1 0x0 DUP1 REVERT JUMPDEST POP JUMP JUMPDEST PUSH1 0x0 DUP2 MLOAD SWAP1 POP PUSH3 0xBB DUP2 PUSH3 0x90 JUMP JUMPDEST SWAP3 SWAP2 POP POP JUMP JUMPDEST PUSH1 0x0 DUP1 REVERT JUMPDEST PUSH1 0x0 DUP1 REVERT JUMPDEST PUSH1 0x0 PUSH1 0x1F NOT PUSH1 0x1F DUP4 ADD AND SWAP1 POP SWAP2 SWAP1 POP JUMP JUMPDEST PUSH32 0x4E487B7100000000000000000000000000000000000000000000000000000000 PUSH1 0x0 MSTORE PUSH1 0x41 PUSH1 0x4 MSTORE PUSH1 0x24 PUSH1 0x0 REVERT JUMPDEST PUSH3 0x116 DUP3 PUSH3 0xCB JUMP JUMPDEST DUP2 ADD DUP2 DUP2 LT PUSH8 0xFFFFFFFFFFFFFFFF DUP3 GT OR ISZERO PUSH3 0x138 JUMPI PUSH3 0x137 PUSH3 0xDC JUMP JUMPDEST JUMPDEST DUP1 PUSH1 0x40 MSTORE POP POP POP JUMP JUMPDEST PUSH1 0x0 PUSH3 0x14D PUSH3 0x72 JUMP JUMPDEST SWAP1 POP PUSH3 0x15B DUP3 DUP3 PUSH3 0x10B JUMP JUMPDEST SWAP2 SWAP1 POP JUMP JUMPDEST PUSH1 0x0 PUSH8 0xFFFFFFFFFFFFFFFF DUP3 GT ISZERO PUSH3 0x17E JUMPI PUSH3 0x17D PUSH3 0xDC JUMP JUMPDEST JUMPDEST PUSH3 0x189 DUP3 PUSH3 0xCB JUMP JUMPDEST SWAP1 POP PUSH1 0x20 DUP2 ADD SWAP1 POP SWAP2 SWAP1 POP JUMP JUMPDEST PUSH1 0x0 JUMPDEST DUP4 DUP2 LT ISZERO PUSH3 0x1B6 JUMPI DUP1 DUP3 ADD MLOAD DUP2 DUP5 ADD MSTORE PUSH1 0x20 DUP2 ADD SWAP1 POP PUSH3 0x199 JUMP JUMPDEST DUP4 DUP2 GT ISZERO PUSH3 0x1C6 JUMPI PUSH1 0x0 DUP5 DUP5 ADD MSTORE JUMPDEST POP POP POP POP JUMP JUMPDEST PUSH1 0x0 PUSH3 0x1E3 PUSH3 0x1DD DUP5 PUSH3 0x160 JUMP JUMPDEST PUSH3 0x141 JUMP JUMPDEST SWAP1 POP DUP3 DUP2 MSTORE PUSH1 0x20 DUP2 ADD DUP5 DUP5 DUP5 ADD GT ISZERO PUSH3 0x202 JUMPI PUSH3 0x201 PUSH3 0xC6 JUMP JUMPDEST JUMPDEST PUSH3 0x20F DUP5 DUP3 DUP6 PUSH3 0x196 JUMP JUMPDEST POP SWAP4 SWAP3 POP POP POP JUMP JUMPDEST PUSH1 0x0 DUP3 PUSH1 0x1F DUP4 ADD SLT PUSH3 0x22F JUMPI PUSH3 0x22E PUSH3 0xC1 JUMP JUMPDEST JUMPDEST DUP2 MLOAD PUSH3 0x241 DUP5 DUP3 PUSH1 0x20 DUP7 ADD PUSH3 0x1CC JUMP JUMPDEST SWAP2 POP POP SWAP3 SWAP2 POP POP JUMP JUMPDEST PUSH1 0x0 DUP1 PUSH1 0x0 PUSH1 0x60 DUP5 DUP7 SUB SLT ISZERO PUSH3 0x266 JUMPI PUSH3 0x265 PUSH3 0x7C JUMP JUMPDEST JUMPDEST PUSH1 0x0 PUSH3 0x276 DUP7 DUP3 DUP8 ADD PUSH3 0xAA JUMP JUMPDEST SWAP4 POP POP PUSH1 0x20 DUP5 ADD MLOAD PUSH8 0xFFFFFFFFFFFFFFFF DUP2 GT ISZERO PUSH3 0x29A JUMPI PUSH3 0x299 PUSH3 0x81 JUMP JUMPDEST JUMPDEST PUSH3 0x2A8 DUP7 DUP3 DUP8 ADD PUSH3 0x217 JUMP JUMPDEST SWAP3 POP POP PUSH1 0x40 DUP5 ADD MLOAD PUSH8 0xFFFFFFFFFFFFFFFF DUP2 GT ISZERO PUSH3 0x2CC JUMPI PUSH3 0x2CB PUSH3 0x81 JUMP JUMPDEST JUMPDEST PUSH3 0x2DA DUP7 DUP3 DUP8 ADD PUSH3 0x217 JUMP JUMPDEST SWAP2 POP POP SWAP3 POP SWAP3 POP SWAP3 JUMP JUMPDEST PUSH1 0x0 DUP2 MLOAD SWAP1 POP SWAP2 SWAP1 POP JUMP JUMPDEST PUSH32 0x4E487B7100000000000000000000000000000000000000000000000000000000 PUSH1 0x0 MSTORE PUSH1 0x22 PUSH1 0x4 MSTORE PUSH1 0x24 PUSH1 0x0 REVERT JUMPDEST PUSH1 0x0 PUSH1 0x2 DUP3 DIV SWAP1 POP PUSH1 0x1 DUP3 AND DUP1 PUSH3 0x337 JUMPI PUSH1 0x7F DUP3 AND SWAP2 POP JUMPDEST PUSH1 0x20 DUP3 LT DUP2 SUB PUSH3 0x34D JUMPI PUSH3 0x34C PUSH3 0x2EF JUMP JUMPDEST JUMPDEST POP SWAP2 SWAP1 POP JUMP JUMPDEST PUSH1 0x0 DUP2 SWAP1 POP DUP2 PUSH1 0x0 MSTORE PUSH1 0x20 PUSH1 0x0 KECCAK256 SWAP1 POP SWAP2 SWAP1 POP JUMP JUMPDEST PUSH1 0x0 PUSH1 0x20 PUSH1 0x1F DUP4 ADD DIV SWAP1 POP SWAP2 SWAP1 POP JUMP JUMPDEST PUSH1 0x0 DUP3 DUP3 SHL SWAP1 POP SWAP3 SWAP2 POP POP JUMP JUMPDEST PUSH1 0x0 PUSH1 0x8 DUP4 MUL PUSH3 0x3B7 PUSH32 0xFFFFFFFFFFFFFFFFFFFFFFFFFFFFFFFFFFFFFFFFFFFFFFFFFFFFFFFFFFFFFFFF DUP3 PUSH3 0x378 JUMP JUMPDEST PUSH3 0x3C3 DUP7 DUP4 PUSH3 0x378 JUMP JUMPDEST SWAP6 POP DUP1 NOT DUP5 AND SWAP4 POP DUP1 DUP7 AND DUP5 OR SWAP3 POP POP POP SWAP4 SWAP3 POP POP POP JUMP JUMPDEST PUSH1 0x0 DUP2 SWAP1 POP SWAP2 SWAP1 POP JUMP JUMPDEST PUSH1 0x0 PUSH3 0x406 PUSH3 0x400 PUSH3 0x3FA DUP5 PUSH3 0x86 JUMP JUMPDEST PUSH3 0x3DB JUMP JUMPDEST PUSH3 0x86 JUMP JUMPDEST SWAP1 POP SWAP2 SWAP1 POP JUMP JUMPDEST PUSH1 0x0 DUP2 SWAP1 POP SWAP2 SWAP1 POP JUMP JUMPDEST PUSH3 0x422 DUP4 PUSH3 0x3E5 JUMP JUMPDEST PUSH3 0x43A PUSH3 0x431 DUP3 PUSH3 0x40D JUMP JUMPDEST DUP5 DUP5 SLOAD PUSH3 0x385 JUMP JUMPDEST DUP3 SSTORE POP POP POP POP JUMP JUMPDEST PUSH1 0x0 SWAP1 JUMP JUMPDEST PUSH3 0x451 PUSH3 0x442 JUMP JUMPDEST PUSH3 0x45E DUP2 DUP5 DUP5 PUSH3 0x417 JUMP JUMPDEST POP POP POP JUMP JUMPDEST JUMPDEST DUP2 DUP2 LT ISZERO PUSH3 0x486 JUMPI PUSH3 0x47A PUSH1 0x0 DUP3 PUSH3 0x447 JUMP JUMPDEST PUSH1 0x1 DUP2 ADD SWAP1 POP PUSH3 0x464 JUMP JUMPDEST POP POP JUMP JUMPDEST PUSH1 0x1F DUP3 GT ISZERO PUSH3 0x4D5 JUMPI PUSH3 0x49F DUP2 PUSH3 0x353 JUMP JUMPDEST PUSH3 0x4AA DUP5 PUSH3 0x368 JUMP JUMPDEST DUP2 ADD PUSH1 0x20 DUP6 LT ISZERO PUSH3 0x4BA JUMPI DUP2 SWAP1 POP JUMPDEST PUSH3 0x4D2 PUSH3 0x4C9 DUP6 PUSH3 0x368 JUMP JUMPDEST DUP4 ADD DUP3 PUSH3 0x463 JUMP JUMPDEST POP POP JUMPDEST POP POP POP JUMP JUMPDEST PUSH1 0x0 DUP3 DUP3 SHR SWAP1 POP SWAP3 SWAP2 POP POP JUMP JUMPDEST PUSH1 0x0 PUSH3 0x4FA PUSH1 0x0 NOT DUP5 PUSH1 0x8 MUL PUSH3 0x4DA JUMP JUMPDEST NOT DUP1 DUP4 AND SWAP2 POP POP SWAP3 SWAP2 POP POP JUMP JUMPDEST PUSH1 0x0 PUSH3 0x515 DUP4 DUP4 PUSH3 0x4E7 JUMP JUMPDEST SWAP2 POP DUP3 PUSH1 0x2 MUL DUP3 OR SWAP1 POP SWAP3 SWAP2 POP POP JUMP JUMPDEST PUSH3 0x530 DUP3 PUSH3 0x2E4 JUMP JUMPDEST PUSH8 0xFFFFFFFFFFFFFFFF DUP2 GT ISZERO PUSH3 0x54C JUMPI PUSH3 0x54B PUSH3 0xDC JUMP JUMPDEST JUMPDEST PUSH3 0x558 DUP3 SLOAD PUSH3 0x31E JUMP JUMPDEST PUSH3 0x565 DUP3 DUP3 DUP6 PUSH3 0x48A JUMP JUMPDEST PUSH1 0x0 PUSH1 0x20 SWAP1 POP PUSH1 0x1F DUP4 GT PUSH1 0x1 DUP2 EQ PUSH3 0x59D JUMPI PUSH1 0x0 DUP5 ISZERO PUSH3 0x588 JUMPI DUP3 DUP8 ADD MLOAD SWAP1 POP JUMPDEST PUSH3 0x594 DUP6 DUP3 PUSH3 0x507 JUMP JUMPDEST DUP7 SSTORE POP PUSH3 0x604 JUMP JUMPDEST PUSH1 0x1F NOT DUP5 AND PUSH3 0x5AD DUP7 PUSH3 0x353 JUMP JUMPDEST PUSH1 0x0 JUMPDEST DUP3 DUP2 LT ISZERO PUSH3 0x5D7 JUMPI DUP5 DUP10 ADD MLOAD DUP3 SSTORE PUSH1 0x1 DUP3 ADD SWAP2 POP PUSH1 0x20 DUP6 ADD SWAP5 POP PUSH1 0x20 DUP2 ADD SWAP1 POP PUSH3 0x5B0 JUMP JUMPDEST DUP7 DUP4 LT ISZERO PUSH3 0x5F7 JUMPI DUP5 DUP10 ADD MLOAD PUSH3 0x5F3 PUSH1 0x1F DUP10 AND DUP3 PUSH3 0x4E7 JUMP JUMPDEST DUP4 SSTORE POP JUMPDEST PUSH1 0x1 PUSH1 0x2 DUP9 MUL ADD DUP9 SSTORE POP POP POP JUMPDEST POP POP POP POP POP POP JUMP JUMPDEST PUSH2 0xC8F DUP1 PUSH3 0x61C PUSH1 0x0 CODECOPY PUSH1 0x0 RETURN INVALID PUSH1 0x80 PUSH1 0x40 MSTORE CALLVALUE DUP1 ISZERO PUSH2 0x10 JUMPI PUSH1 0x0 DUP1 REVERT JUMPDEST POP PUSH1 0x4 CALLDATASIZE LT PUSH2 0x93 JUMPI PUSH1 0x0 CALLDATALOAD PUSH1 0xE0 SHR DUP1 PUSH4 0x8FA11864 GT PUSH2 0x66 JUMPI DUP1 PUSH4 0x8FA11864 EQ PUSH2 0x10E JUMPI DUP1 PUSH4 0x94B5DCAA EQ PUSH2 0x12C JUMPI DUP1 PUSH4 0xAA8C217C EQ PUSH2 0x14A JUMPI DUP1 PUSH4 0xBC309496 EQ PUSH2 0x168 JUMPI DUP1 PUSH4 0xE21F37CE EQ PUSH2 0x186 JUMPI PUSH2 0x93 JUMP JUMPDEST DUP1 PUSH4 0x62A7544 EQ PUSH2 0x98 JUMPI DUP1 PUSH4 0x34F5CCDE EQ PUSH2 0xB4 JUMPI DUP1 PUSH4 0x42FB7936 EQ PUSH2 0xD2 JUMPI DUP1 PUSH4 0x7B9A3F4C EQ PUSH2 0xF0 JUMPI JUMPDEST PUSH1 0x0 DUP1 REVERT JUMPDEST PUSH2 0xB2 PUSH1 0x4 DUP1 CALLDATASIZE SUB DUP2 ADD SWAP1 PUSH2 0xAD SWAP2 SWAP1 PUSH2 0x6A4 JUMP JUMPDEST PUSH2 0x1A4 JUMP JUMPDEST STOP JUMPDEST PUSH2 0xBC PUSH2 0x443 JUMP JUMPDEST PUSH1 0x40 MLOAD PUSH2 0xC9 SWAP2 SWAP1 PUSH2 0x6F3 JUMP JUMPDEST PUSH1 0x40 MLOAD DUP1 SWAP2 SUB SWAP1 RETURN JUMPDEST PUSH2 0xDA PUSH2 0x449 JUMP JUMPDEST PUSH1 0x40 MLOAD PUSH2 0xE7 SWAP2 SWAP1 PUSH2 0x7A7 JUMP JUMPDEST PUSH1 0x40 MLOAD DUP1 SWAP2 SUB SWAP1 RETURN JUMPDEST PUSH2 0xF8 PUSH2 0x4D7 JUMP JUMPDEST PUSH1 0x40 MLOAD PUSH2 0x105 SWAP2 SWAP1 PUSH2 0x6F3 JUMP JUMPDEST PUSH1 0x40 MLOAD DUP1 SWAP2 SUB SWAP1 RETURN JUMPDEST PUSH2 0x116 PUSH2 0x4DD JUMP JUMPDEST PUSH1 0x40 MLOAD PUSH2 0x123 SWAP2 SWAP1 PUSH2 0x7A7 JUMP JUMPDEST PUSH1 0x40 MLOAD DUP1 SWAP2 SUB SWAP1 RETURN JUMPDEST PUSH2 0x134 PUSH2 0x56B JUMP JUMPDEST PUSH1 0x40 MLOAD PUSH2 0x141 SWAP2 SWAP1 PUSH2 0x6F3 JUMP JUMPDEST PUSH1 0x40 MLOAD DUP1 SWAP2 SUB SWAP1 RETURN JUMPDEST PUSH2 0x152 PUSH2 0x571 JUMP JUMPDEST PUSH1 0x40 MLOAD PUSH2 0x15F SWAP2 SWAP1 PUSH2 0x6F3 JUMP JUMPDEST PUSH1 0x40 MLOAD DUP1 SWAP2 SUB SWAP1 RETURN JUMPDEST PUSH2 0x170 PUSH2 0x577 JUMP JUMPDEST PUSH1 0x40 MLOAD PUSH2 0x17D SWAP2 SWAP1 PUSH2 0x6F3 JUMP JUMPDEST PUSH1 0x40 MLOAD DUP1 SWAP2 SUB SWAP1 RETURN JUMPDEST PUSH2 0x18E PUSH2 0x57D JUMP JUMPDEST PUSH1 0x40 MLOAD PUSH2 0x19B SWAP2 SWAP1 PUSH2 0x7A7 JUMP JUMPDEST PUSH1 0x40 MLOAD DUP1 SWAP2 SUB SWAP1 RETURN JUMPDEST DUP1 DUP1 PUSH1 0x2 PUSH1 0x0 PUSH2 0x100 EXP DUP2 SLOAD DUP2 PUSH20 0xFFFFFFFFFFFFFFFFFFFFFFFFFFFFFFFFFFFFFFFF MUL NOT AND SWAP1 DUP4 PUSH20 0xFFFFFFFFFFFFFFFFFFFFFFFFFFFFFFFFFFFFFFFF AND MUL OR SWAP1 SSTORE POP PUSH1 0x0 PUSH20 0xFFFFFFFFFFFFFFFFFFFFFFFFFFFFFFFFFFFFFFFF AND DUP2 PUSH20 0xFFFFFFFFFFFFFFFFFFFFFFFFFFFFFFFFFFFFFFFF AND SUB PUSH2 0x255 JUMPI PUSH1 0x40 MLOAD PUSH32 0x8C379A000000000000000000000000000000000000000000000000000000000 DUP2 MSTORE PUSH1 0x4 ADD PUSH2 0x24C SWAP1 PUSH2 0x815 JUMP JUMPDEST PUSH1 0x40 MLOAD DUP1 SWAP2 SUB SWAP1 REVERT JUMPDEST PUSH1 0x8 PUSH1 0xA DUP1 SLOAD PUSH2 0x264 SWAP1 PUSH2 0x864 JUMP JUMPDEST SWAP1 POP EQ DUP1 ISZERO PUSH2 0x281 JUMPI POP PUSH1 0x3 PUSH1 0xB DUP1 SLOAD PUSH2 0x27D SWAP1 PUSH2 0x864 JUMP JUMPDEST SWAP1 POP EQ JUMPDEST PUSH2 0x2C0 JUMPI PUSH1 0x40 MLOAD PUSH32 0x8C379A000000000000000000000000000000000000000000000000000000000 DUP2 MSTORE PUSH1 0x4 ADD PUSH2 0x2B7 SWAP1 PUSH2 0x8E1 JUMP JUMPDEST PUSH1 0x40 MLOAD DUP1 SWAP2 SUB SWAP1 REVERT JUMPDEST DUP2 PUSH1 0x2 PUSH1 0x0 PUSH2 0x100 EXP DUP2 SLOAD DUP2 PUSH20 0xFFFFFFFFFFFFFFFFFFFFFFFFFFFFFFFFFFFFFFFF MUL NOT AND SWAP1 DUP4 PUSH20 0xFFFFFFFFFFFFFFFFFFFFFFFFFFFFFFFFFFFFFFFF AND MUL OR SWAP1 SSTORE POP DUP3 PUSH1 0x0 DUP2 SWAP1 SSTORE POP PUSH1 0x0 PUSH1 0xC DUP2 SWAP1 SSTORE POP PUSH1 0x0 JUMPDEST PUSH1 0x5 DUP2 GT PUSH2 0x43D JUMPI JUMPDEST PUSH3 0x15180 PUSH1 0x3 SLOAD EQ DUP1 ISZERO PUSH2 0x333 JUMPI POP PUSH1 0x5 PUSH1 0xC SLOAD GT ISZERO JUMPDEST DUP1 ISZERO PUSH2 0x343 JUMPI POP PUSH2 0x7D0 PUSH1 0x5 SLOAD GT ISZERO JUMPDEST ISZERO PUSH2 0x412 JUMPI PUSH1 0x0 PUSH1 0x1 SLOAD GT DUP1 ISZERO PUSH2 0x35D JUMPI POP PUSH1 0x0 SLOAD PUSH1 0x1 SLOAD GT JUMPDEST ISZERO PUSH2 0x3C7 JUMPI PUSH1 0x0 SLOAD PUSH1 0x1 PUSH1 0x0 DUP3 DUP3 SLOAD PUSH2 0x376 SWAP2 SWAP1 PUSH2 0x930 JUMP JUMPDEST SWAP3 POP POP DUP2 SWAP1 SSTORE POP PUSH1 0x40 MLOAD DUP1 PUSH1 0x40 ADD PUSH1 0x40 MSTORE DUP1 PUSH1 0x12 DUP2 MSTORE PUSH1 0x20 ADD PUSH32 0x5472616E7366657220636F6D706C657465640000000000000000000000000000 DUP2 MSTORE POP PUSH1 0x9 SWAP1 DUP2 PUSH2 0x3C1 SWAP2 SWAP1 PUSH2 0xB3F JUMP JUMPDEST POP PUSH2 0x40D JUMP JUMPDEST PUSH1 0x40 MLOAD DUP1 PUSH1 0x40 ADD PUSH1 0x40 MSTORE DUP1 PUSH1 0x11 DUP2 MSTORE PUSH1 0x20 ADD PUSH32 0x4E6F7420656E6F75676820666F756E6473000000000000000000000000000000 DUP2 MSTORE POP PUSH1 0x9 SWAP1 DUP2 PUSH2 0x40B SWAP2 SWAP1 PUSH2 0xB3F JUMP JUMPDEST POP JUMPDEST PUSH2 0x31C JUMP JUMPDEST PUSH1 0xC PUSH1 0x0 DUP2 SLOAD DUP1 SWAP3 SWAP2 SWAP1 PUSH2 0x425 SWAP1 PUSH2 0xC11 JUMP JUMPDEST SWAP2 SWAP1 POP SSTORE POP DUP1 DUP1 PUSH2 0x435 SWAP1 PUSH2 0xC11 JUMP JUMPDEST SWAP2 POP POP PUSH2 0x313 JUMP JUMPDEST POP POP POP POP JUMP JUMPDEST PUSH1 0xC SLOAD DUP2 JUMP JUMPDEST PUSH1 0xB DUP1 SLOAD PUSH2 0x456 SWAP1 PUSH2 0x864 JUMP JUMPDEST DUP1 PUSH1 0x1F ADD PUSH1 0x20 DUP1 SWAP2 DIV MUL PUSH1 0x20 ADD PUSH1 0x40 MLOAD SWAP1 DUP2 ADD PUSH1 0x40 MSTORE DUP1 SWAP3 SWAP2 SWAP1 DUP2 DUP2 MSTORE PUSH1 0x20 ADD DUP3 DUP1 SLOAD PUSH2 0x482 SWAP1 PUSH2 0x864 JUMP JUMPDEST DUP1 ISZERO PUSH2 0x4CF JUMPI DUP1 PUSH1 0x1F LT PUSH2 0x4A4 JUMPI PUSH2 0x100 DUP1 DUP4 SLOAD DIV MUL DUP4 MSTORE SWAP2 PUSH1 0x20 ADD SWAP2 PUSH2 0x4CF JUMP JUMPDEST DUP3 ADD SWAP2 SWAP1 PUSH1 0x0 MSTORE PUSH1 0x20 PUSH1 0x0 KECCAK256 SWAP1 JUMPDEST DUP2 SLOAD DUP2 MSTORE SWAP1 PUSH1 0x1 ADD SWAP1 PUSH1 0x20 ADD DUP1 DUP4 GT PUSH2 0x4B2 JUMPI DUP3 SWAP1 SUB PUSH1 0x1F AND DUP3 ADD SWAP2 JUMPDEST POP POP POP POP POP DUP2 JUMP JUMPDEST PUSH1 0x1 SLOAD DUP2 JUMP JUMPDEST PUSH1 0xA DUP1 SLOAD PUSH2 0x4EA SWAP1 PUSH2 0x864 JUMP JUMPDEST DUP1 PUSH1 0x1F ADD PUSH1 0x20 DUP1 SWAP2 DIV MUL PUSH1 0x20 ADD PUSH1 0x40 MLOAD SWAP1 DUP2 ADD PUSH1 0x40 MSTORE DUP1 SWAP3 SWAP2 SWAP1 DUP2 DUP2 MSTORE PUSH1 0x20 ADD DUP3 DUP1 SLOAD PUSH2 0x516 SWAP1 PUSH2 0x864 JUMP JUMPDEST DUP1 ISZERO PUSH2 0x563 JUMPI DUP1 PUSH1 0x1F LT PUSH2 0x538 JUMPI PUSH2 0x100 DUP1 DUP4 SLOAD DIV MUL DUP4 MSTORE SWAP2 PUSH1 0x20 ADD SWAP2 PUSH2 0x563 JUMP JUMPDEST DUP3 ADD SWAP2 SWAP1 PUSH1 0x0 MSTORE PUSH1 0x20 PUSH1 0x0 KECCAK256 SWAP1 JUMPDEST DUP2 SLOAD DUP2 MSTORE SWAP1 PUSH1 0x1 ADD SWAP1 PUSH1 0x20 ADD DUP1 DUP4 GT PUSH2 0x546 JUMPI DUP3 SWAP1 SUB PUSH1 0x1F AND DUP3 ADD SWAP2 JUMPDEST POP POP POP POP POP DUP2 JUMP JUMPDEST PUSH1 0x4 SLOAD DUP2 JUMP JUMPDEST PUSH1 0x0 SLOAD DUP2 JUMP JUMPDEST PUSH1 0x8 SLOAD DUP2 JUMP JUMPDEST PUSH1 0x9 DUP1 SLOAD PUSH2 0x58A SWAP1 PUSH2 0x864 JUMP JUMPDEST DUP1 PUSH1 0x1F ADD PUSH1 0x20 DUP1 SWAP2 DIV MUL PUSH1 0x20 ADD PUSH1 0x40 MLOAD SWAP1 DUP2 ADD PUSH1 0x40 MSTORE DUP1 SWAP3 SWAP2 SWAP1 DUP2 DUP2 MSTORE PUSH1 0x20 ADD DUP3 DUP1 SLOAD PUSH2 0x5B6 SWAP1 PUSH2 0x864 JUMP JUMPDEST DUP1 ISZERO PUSH2 0x603 JUMPI DUP1 PUSH1 0x1F LT PUSH2 0x5D8 JUMPI PUSH2 0x100 DUP1 DUP4 SLOAD DIV MUL DUP4 MSTORE SWAP2 PUSH1 0x20 ADD SWAP2 PUSH2 0x603 JUMP JUMPDEST DUP3 ADD SWAP2 SWAP1 PUSH1 0x0 MSTORE PUSH1 0x20 PUSH1 0x0 KECCAK256 SWAP1 JUMPDEST DUP2 SLOAD DUP2 MSTORE SWAP1 PUSH1 0x1 ADD SWAP1 PUSH1 0x20 ADD DUP1 DUP4 GT PUSH2 0x5E6 JUMPI DUP3 SWAP1 SUB PUSH1 0x1F AND DUP3 ADD SWAP2 JUMPDEST POP POP POP POP POP DUP2 JUMP JUMPDEST PUSH1 0x0 DUP1 REVERT JUMPDEST PUSH1 0x0 DUP2 SWAP1 POP SWAP2 SWAP1 POP JUMP JUMPDEST PUSH2 0x623 DUP2 PUSH2 0x610 JUMP JUMPDEST DUP2 EQ PUSH2 0x62E JUMPI PUSH1 0x0 DUP1 REVERT JUMPDEST POP JUMP JUMPDEST PUSH1 0x0 DUP2 CALLDATALOAD SWAP1 POP PUSH2 0x640 DUP2 PUSH2 0x61A JUMP JUMPDEST SWAP3 SWAP2 POP POP JUMP JUMPDEST PUSH1 0x0 PUSH20 0xFFFFFFFFFFFFFFFFFFFFFFFFFFFFFFFFFFFFFFFF DUP3 AND SWAP1 POP SWAP2 SWAP1 POP JUMP JUMPDEST PUSH1 0x0 PUSH2 0x671 DUP3 PUSH2 0x646 JUMP JUMPDEST SWAP1 POP SWAP2 SWAP1 POP JUMP JUMPDEST PUSH2 0x681 DUP2 PUSH2 0x666 JUMP JUMPDEST DUP2 EQ PUSH2 0x68C JUMPI PUSH1 0x0 DUP1 REVERT JUMPDEST POP JUMP JUMPDEST PUSH1 0x0 DUP2 CALLDATALOAD SWAP1 POP PUSH2 0x69E DUP2 PUSH2 0x678 JUMP JUMPDEST SWAP3 SWAP2 POP POP JUMP JUMPDEST PUSH1 0x0 DUP1 PUSH1 0x40 DUP4 DUP6 SUB SLT ISZERO PUSH2 0x6BB JUMPI PUSH2 0x6BA PUSH2 0x60B JUMP JUMPDEST JUMPDEST PUSH1 0x0 PUSH2 0x6C9 DUP6 DUP3 DUP7 ADD PUSH2 0x631 JUMP JUMPDEST SWAP3 POP POP PUSH1 0x20 PUSH2 0x6DA DUP6 DUP3 DUP7 ADD PUSH2 0x68F JUMP JUMPDEST SWAP2 POP POP SWAP3 POP SWAP3 SWAP1 POP JUMP JUMPDEST PUSH2 0x6ED DUP2 PUSH2 0x610 JUMP JUMPDEST DUP3 MSTORE POP POP JUMP JUMPDEST PUSH1 0x0 PUSH1 0x20 DUP3 ADD SWAP1 POP PUSH2 0x708 PUSH1 0x0 DUP4 ADD DUP5 PUSH2 0x6E4 JUMP JUMPDEST SWAP3 SWAP2 POP POP JUMP JUMPDEST PUSH1 0x0 DUP2 MLOAD SWAP1 POP SWAP2 SWAP1 POP JUMP JUMPDEST PUSH1 0x0 DUP3 DUP3 MSTORE PUSH1 0x20 DUP3 ADD SWAP1 POP SWAP3 SWAP2 POP POP JUMP JUMPDEST PUSH1 0x0 JUMPDEST DUP4 DUP2 LT ISZERO PUSH2 0x748 JUMPI DUP1 DUP3 ADD MLOAD DUP2 DUP5 ADD MSTORE PUSH1 0x20 DUP2 ADD SWAP1 POP PUSH2 0x72D JUMP JUMPDEST DUP4 DUP2 GT ISZERO PUSH2 0x757 JUMPI PUSH1 0x0 DUP5 DUP5 ADD MSTORE JUMPDEST POP POP POP POP JUMP JUMPDEST PUSH1 0x0 PUSH1 0x1F NOT PUSH1 0x1F DUP4 ADD AND SWAP1 POP SWAP2 SWAP1 POP JUMP JUMPDEST PUSH1 0x0 PUSH2 0x779 DUP3 PUSH2 0x70E JUMP JUMPDEST PUSH2 0x783 DUP2 DUP6 PUSH2 0x719 JUMP JUMPDEST SWAP4 POP PUSH2 0x793 DUP2 DUP6 PUSH1 0x20 DUP7 ADD PUSH2 0x72A JUMP JUMPDEST PUSH2 0x79C DUP2 PUSH2 0x75D JUMP JUMPDEST DUP5 ADD SWAP2 POP POP SWAP3 SWAP2 POP POP JUMP JUMPDEST PUSH1 0x0 PUSH1 0x20 DUP3 ADD SWAP1 POP DUP2 DUP2 SUB PUSH1 0x0 DUP4 ADD MSTORE PUSH2 0x7C1 DUP2 DUP5 PUSH2 0x76E JUMP JUMPDEST SWAP1 POP SWAP3 SWAP2 POP POP JUMP JUMPDEST PUSH32 0x2054686973206164647265737320646F65736E27742065786973747300000000 PUSH1 0x0 DUP3 ADD MSTORE POP JUMP JUMPDEST PUSH1 0x0 PUSH2 0x7FF PUSH1 0x1C DUP4 PUSH2 0x719 JUMP JUMPDEST SWAP2 POP PUSH2 0x80A DUP3 PUSH2 0x7C9 JUMP JUMPDEST PUSH1 0x20 DUP3 ADD SWAP1 POP SWAP2 SWAP1 POP JUMP JUMPDEST PUSH1 0x0 PUSH1 0x20 DUP3 ADD SWAP1 POP DUP2 DUP2 SUB PUSH1 0x0 DUP4 ADD MSTORE PUSH2 0x82E DUP2 PUSH2 0x7F2 JUMP JUMPDEST SWAP1 POP SWAP2 SWAP1 POP JUMP JUMPDEST PUSH32 0x4E487B7100000000000000000000000000000000000000000000000000000000 PUSH1 0x0 MSTORE PUSH1 0x22 PUSH1 0x4 MSTORE PUSH1 0x24 PUSH1 0x0 REVERT JUMPDEST PUSH1 0x0 PUSH1 0x2 DUP3 DIV SWAP1 POP PUSH1 0x1 DUP3 AND DUP1 PUSH2 0x87C JUMPI PUSH1 0x7F DUP3 AND SWAP2 POP JUMPDEST PUSH1 0x20 DUP3 LT DUP2 SUB PUSH2 0x88F JUMPI PUSH2 0x88E PUSH2 0x835 JUMP JUMPDEST JUMPDEST POP SWAP2 SWAP1 POP JUMP JUMPDEST PUSH32 0x4E6F2076616C6964206372656469742063617264000000000000000000000000 PUSH1 0x0 DUP3 ADD MSTORE POP JUMP JUMPDEST PUSH1 0x0 PUSH2 0x8CB PUSH1 0x14 DUP4 PUSH2 0x719 JUMP JUMPDEST SWAP2 POP PUSH2 0x8D6 DUP3 PUSH2 0x895 JUMP JUMPDEST PUSH1 0x20 DUP3 ADD SWAP1 POP SWAP2 SWAP1 POP JUMP JUMPDEST PUSH1 0x0 PUSH1 0x20 DUP3 ADD SWAP1 POP DUP2 DUP2 SUB PUSH1 0x0 DUP4 ADD MSTORE PUSH2 0x8FA DUP2 PUSH2 0x8BE JUMP JUMPDEST SWAP1 POP SWAP2 SWAP1 POP JUMP JUMPDEST PUSH32 0x4E487B7100000000000000000000000000000000000000000000000000000000 PUSH1 0x0 MSTORE PUSH1 0x11 PUSH1 0x4 MSTORE PUSH1 0x24 PUSH1 0x0 REVERT JUMPDEST PUSH1 0x0 PUSH2 0x93B DUP3 PUSH2 0x610 JUMP JUMPDEST SWAP2 POP PUSH2 0x946 DUP4 PUSH2 0x610 JUMP JUMPDEST SWAP3 POP DUP3 DUP3 LT ISZERO PUSH2 0x959 JUMPI PUSH2 0x958 PUSH2 0x901 JUMP JUMPDEST JUMPDEST DUP3 DUP3 SUB SWAP1 POP SWAP3 SWAP2 POP POP JUMP JUMPDEST PUSH32 0x4E487B7100000000000000000000000000000000000000000000000000000000 PUSH1 0x0 MSTORE PUSH1 0x41 PUSH1 0x4 MSTORE PUSH1 0x24 PUSH1 0x0 REVERT JUMPDEST PUSH1 0x0 DUP2 SWAP1 POP DUP2 PUSH1 0x0 MSTORE PUSH1 0x20 PUSH1 0x0 KECCAK256 SWAP1 POP SWAP2 SWAP1 POP JUMP JUMPDEST PUSH1 0x0 PUSH1 0x20 PUSH1 0x1F DUP4 ADD DIV SWAP1 POP SWAP2 SWAP1 POP JUMP JUMPDEST PUSH1 0x0 DUP3 DUP3 SHL SWAP1 POP SWAP3 SWAP2 POP POP JUMP JUMPDEST PUSH1 0x0 PUSH1 0x8 DUP4 MUL PUSH2 0x9F5 PUSH32 0xFFFFFFFFFFFFFFFFFFFFFFFFFFFFFFFFFFFFFFFFFFFFFFFFFFFFFFFFFFFFFFFF DUP3 PUSH2 0x9B8 JUMP JUMPDEST PUSH2 0x9FF DUP7 DUP4 PUSH2 0x9B8 JUMP JUMPDEST SWAP6 POP DUP1 NOT DUP5 AND SWAP4 POP DUP1 DUP7 AND DUP5 OR SWAP3 POP POP POP SWAP4 SWAP3 POP POP POP JUMP JUMPDEST PUSH1 0x0 DUP2 SWAP1 POP SWAP2 SWAP1 POP JUMP JUMPDEST PUSH1 0x0 PUSH2 0xA3C PUSH2 0xA37 PUSH2 0xA32 DUP5 PUSH2 0x610 JUMP JUMPDEST PUSH2 0xA17 JUMP JUMPDEST PUSH2 0x610 JUMP JUMPDEST SWAP1 POP SWAP2 SWAP1 POP JUMP JUMPDEST PUSH1 0x0 DUP2 SWAP1 POP SWAP2 SWAP1 POP JUMP JUMPDEST PUSH2 0xA56 DUP4 PUSH2 0xA21 JUMP JUMPDEST PUSH2 0xA6A PUSH2 0xA62 DUP3 PUSH2 0xA43 JUMP JUMPDEST DUP5 DUP5 SLOAD PUSH2 0x9C5 JUMP JUMPDEST DUP3 SSTORE POP POP POP POP JUMP JUMPDEST PUSH1 0x0 SWAP1 JUMP JUMPDEST PUSH2 0xA7F PUSH2 0xA72 JUMP JUMPDEST PUSH2 0xA8A DUP2 DUP5 DUP5 PUSH2 0xA4D JUMP JUMPDEST POP POP POP JUMP JUMPDEST JUMPDEST DUP2 DUP2 LT ISZERO PUSH2 0xAAE JUMPI PUSH2 0xAA3 PUSH1 0x0 DUP3 PUSH2 0xA77 JUMP JUMPDEST PUSH1 0x1 DUP2 ADD SWAP1 POP PUSH2 0xA90 JUMP JUMPDEST POP POP JUMP JUMPDEST PUSH1 0x1F DUP3 GT ISZERO PUSH2 0xAF3 JUMPI PUSH2 0xAC4 DUP2 PUSH2 0x993 JUMP JUMPDEST PUSH2 0xACD DUP5 PUSH2 0x9A8 JUMP JUMPDEST DUP2 ADD PUSH1 0x20 DUP6 LT ISZERO PUSH2 0xADC JUMPI DUP2 SWAP1 POP JUMPDEST PUSH2 0xAF0 PUSH2 0xAE8 DUP6 PUSH2 0x9A8 JUMP JUMPDEST DUP4 ADD DUP3 PUSH2 0xA8F JUMP JUMPDEST POP POP JUMPDEST POP POP POP JUMP JUMPDEST PUSH1 0x0 DUP3 DUP3 SHR SWAP1 POP SWAP3 SWAP2 POP POP JUMP JUMPDEST PUSH1 0x0 PUSH2 0xB16 PUSH1 0x0 NOT DUP5 PUSH1 0x8 MUL PUSH2 0xAF8 JUMP JUMPDEST NOT DUP1 DUP4 AND SWAP2 POP POP SWAP3 SWAP2 POP POP JUMP JUMPDEST PUSH1 0x0 PUSH2 0xB2F DUP4 DUP4 PUSH2 0xB05 JUMP JUMPDEST SWAP2 POP DUP3 PUSH1 0x2 MUL DUP3 OR SWAP1 POP SWAP3 SWAP2 POP POP JUMP JUMPDEST PUSH2 0xB48 DUP3 PUSH2 0x70E JUMP JUMPDEST PUSH8 0xFFFFFFFFFFFFFFFF DUP2 GT ISZERO PUSH2 0xB61 JUMPI PUSH2 0xB60 PUSH2 0x964 JUMP JUMPDEST JUMPDEST PUSH2 0xB6B DUP3 SLOAD PUSH2 0x864 JUMP JUMPDEST PUSH2 0xB76 DUP3 DUP3 DUP6 PUSH2 0xAB2 JUMP JUMPDEST PUSH1 0x0 PUSH1 0x20 SWAP1 POP PUSH1 0x1F DUP4 GT PUSH1 0x1 DUP2 EQ PUSH2 0xBA9 JUMPI PUSH1 0x0 DUP5 ISZERO PUSH2 0xB97 JUMPI DUP3 DUP8 ADD MLOAD SWAP1 POP JUMPDEST PUSH2 0xBA1 DUP6 DUP3 PUSH2 0xB23 JUMP JUMPDEST DUP7 SSTORE POP PUSH2 0xC09 JUMP JUMPDEST PUSH1 0x1F NOT DUP5 AND PUSH2 0xBB7 DUP7 PUSH2 0x993 JUMP JUMPDEST PUSH1 0x0 JUMPDEST DUP3 DUP2 LT ISZERO PUSH2 0xBDF JUMPI DUP5 DUP10 ADD MLOAD DUP3 SSTORE PUSH1 0x1 DUP3 ADD SWAP2 POP PUSH1 0x20 DUP6 ADD SWAP5 POP PUSH1 0x20 DUP2 ADD SWAP1 POP PUSH2 0xBBA JUMP JUMPDEST DUP7 DUP4 LT ISZERO PUSH2 0xBFC JUMPI DUP5 DUP10 ADD MLOAD PUSH2 0xBF8 PUSH1 0x1F DUP10 AND DUP3 PUSH2 0xB05 JUMP JUMPDEST DUP4 SSTORE POP JUMPDEST PUSH1 0x1 PUSH1 0x2 DUP9 MUL ADD DUP9 SSTORE POP POP POP JUMPDEST POP POP POP POP POP POP JUMP JUMPDEST PUSH1 0x0 PUSH2 0xC1C DUP3 PUSH2 0x610 JUMP JUMPDEST SWAP2 POP PUSH32 0xFFFFFFFFFFFFFFFFFFFFFFFFFFFFFFFFFFFFFFFFFFFFFFFFFFFFFFFFFFFFFFFF DUP3 SUB PUSH2 0xC4E JUMPI PUSH2 0xC4D PUSH2 0x901 JUMP JUMPDEST JUMPDEST PUSH1 0x1 DUP3 ADD SWAP1 POP SWAP2 SWAP1 POP JUMP INVALID LOG2 PUSH5 0x6970667358 0x22 SLT KECCAK256 SELFBALANCE 0xDE LOG4 0xB8 0xC7 PUSH9 0x7E14EB2CDC0F812996 SIGNEXTEND 0xCB PUSH4 0xDB318E58 PUSH23 0xF236BEFC5F9C9CC63A64736F6C634300080F0033000000 "
				},
				"gasEstimates": {
					"creation": {
						"codeDepositCost": "643000",
						"executionCost": "infinite",
						"totalCost": "infinite"
					},
					"external": {
						"TotalFunds()": "2496",
						"amount()": "2473",
						"cardNumber()": "infinite",
						"countTransfer()": "2452",
						"cvv()": "infinite",
						"message()": "infinite",
						"receiverFunds()": "2495",
						"sendMoney(uint256,address)": "infinite",
						"totalWeekTransactions()": "2451"
					}
				},
				"methodIdentifiers": {
					"TotalFunds()": "7b9a3f4c",
					"amount()": "aa8c217c",
					"cardNumber()": "8fa11864",
					"countTransfer()": "34f5ccde",
					"cvv()": "42fb7936",
					"message()": "e21f37ce",
					"receiverFunds()": "bc309496",
					"sendMoney(uint256,address)": "062a7544",
					"totalWeekTransactions()": "94b5dcaa"
				}
			},
			"storageLayout": {
				"storage": [
					{
						"astId": 3,
						"contract": "Dapp/MoneyTransfer.sol:MoneyTransfer",
						"label": "amount",
						"offset": 0,
						"slot": "0",
						"type": "t_uint256"
					},
					{
						"astId": 5,
						"contract": "Dapp/MoneyTransfer.sol:MoneyTransfer",
						"label": "TotalFunds",
						"offset": 0,
						"slot": "1",
						"type": "t_uint256"
					},
					{
						"astId": 7,
						"contract": "Dapp/MoneyTransfer.sol:MoneyTransfer",
						"label": "receiver",
						"offset": 0,
						"slot": "2",
						"type": "t_address"
					},
					{
						"astId": 13,
						"contract": "Dapp/MoneyTransfer.sol:MoneyTransfer",
						"label": "day",
						"offset": 0,
						"slot": "3",
						"type": "t_uint256"
					},
					{
						"astId": 15,
						"contract": "Dapp/MoneyTransfer.sol:MoneyTransfer",
						"label": "totalWeekTransactions",
						"offset": 0,
						"slot": "4",
						"type": "t_uint256"
					},
					{
						"astId": 17,
						"contract": "Dapp/MoneyTransfer.sol:MoneyTransfer",
						"label": "maxTransaction",
						"offset": 0,
						"slot": "5",
						"type": "t_uint256"
					},
					{
						"astId": 19,
						"contract": "Dapp/MoneyTransfer.sol:MoneyTransfer",
						"label": "minTransaction",
						"offset": 0,
						"slot": "6",
						"type": "t_uint256"
					},
					{
						"astId": 22,
						"contract": "Dapp/MoneyTransfer.sol:MoneyTransfer",
						"label": "countries",
						"offset": 0,
						"slot": "7",
						"type": "t_array(t_uint256)dyn_storage"
					},
					{
						"astId": 24,
						"contract": "Dapp/MoneyTransfer.sol:MoneyTransfer",
						"label": "receiverFunds",
						"offset": 0,
						"slot": "8",
						"type": "t_uint256"
					},
					{
						"astId": 26,
						"contract": "Dapp/MoneyTransfer.sol:MoneyTransfer",
						"label": "message",
						"offset": 0,
						"slot": "9",
						"type": "t_string_storage"
					},
					{
						"astId": 28,
						"contract": "Dapp/MoneyTransfer.sol:MoneyTransfer",
						"label": "cardNumber",
						"offset": 0,
						"slot": "10",
						"type": "t_string_storage"
					},
					{
						"astId": 30,
						"contract": "Dapp/MoneyTransfer.sol:MoneyTransfer",
						"label": "cvv",
						"offset": 0,
						"slot": "11",
						"type": "t_string_storage"
					},
					{
						"astId": 32,
						"contract": "Dapp/MoneyTransfer.sol:MoneyTransfer",
						"label": "countTransfer",
						"offset": 0,
						"slot": "12",
						"type": "t_uint256"
					}
				],
				"types": {
					"t_address": {
						"encoding": "inplace",
						"label": "address",
						"numberOfBytes": "20"
					},
					"t_array(t_uint256)dyn_storage": {
						"base": "t_uint256",
						"encoding": "dynamic_array",
						"label": "uint256[]",
						"numberOfBytes": "32"
					},
					"t_string_storage": {
						"encoding": "bytes",
						"label": "string",
						"numberOfBytes": "32"
					},
					"t_uint256": {
						"encoding": "inplace",
						"label": "uint256",
						"numberOfBytes": "32"
					}
				}
			},
			"userdoc": {
				"kind": "user",
				"methods": {},
				"version": 1
			}
		}
	}
}