{
	"Dapp/MoneyTransfer.sol": {
		"MoneyTransfer": {
			"abi": [
				{
					"inputs": [
						{
							"internalType": "uint256",
							"name": "_totalFunds",
							"type": "uint256"
						}
					],
					"stateMutability": "nonpayable",
					"type": "constructor"
				},
				{
					"inputs": [],
					"name": "TotalAmount",
					"outputs": [
						{
							"internalType": "uint256",
							"name": "",
							"type": "uint256"
						}
					],
					"stateMutability": "view",
					"type": "function"
				},
				{
					"inputs": [],
					"name": "TotalFunds",
					"outputs": [
						{
							"internalType": "uint256",
							"name": "",
							"type": "uint256"
						}
					],
					"stateMutability": "view",
					"type": "function"
				},
				{
					"inputs": [],
					"name": "amount",
					"outputs": [
						{
							"internalType": "uint256",
							"name": "",
							"type": "uint256"
						}
					],
					"stateMutability": "view",
					"type": "function"
				},
				{
					"inputs": [],
					"name": "callCount",
					"outputs": [
						{
							"internalType": "uint256",
							"name": "",
							"type": "uint256"
						}
					],
					"stateMutability": "view",
					"type": "function"
				},
				{
					"inputs": [],
					"name": "callPutCard",
					"outputs": [
						{
							"internalType": "bool",
							"name": "",
							"type": "bool"
						}
					],
					"stateMutability": "view",
					"type": "function"
				},
				{
					"inputs": [],
					"name": "cardNumber",
					"outputs": [
						{
							"internalType": "string",
							"name": "",
							"type": "string"
						}
					],
					"stateMutability": "view",
					"type": "function"
				},
				{
					"inputs": [],
					"name": "countTransfer",
					"outputs": [
						{
							"internalType": "uint256",
							"name": "",
							"type": "uint256"
						}
					],
					"stateMutability": "view",
					"type": "function"
				},
				{
					"inputs": [],
					"name": "cvv",
					"outputs": [
						{
							"internalType": "string",
							"name": "",
							"type": "string"
						}
					],
					"stateMutability": "view",
					"type": "function"
				},
				{
					"inputs": [],
					"name": "firstTransferTime",
					"outputs": [
						{
							"internalType": "uint256",
							"name": "",
							"type": "uint256"
						}
					],
					"stateMutability": "view",
					"type": "function"
				},
				{
					"inputs": [],
					"name": "getOutCard",
					"outputs": [],
					"stateMutability": "nonpayable",
					"type": "function"
				},
				{
					"inputs": [
						{
							"internalType": "uint256",
							"name": "time",
							"type": "uint256"
						}
					],
					"name": "getTime",
					"outputs": [
						{
							"internalType": "uint256",
							"name": "",
							"type": "uint256"
						}
					],
					"stateMutability": "nonpayable",
					"type": "function"
				},
				{
					"inputs": [],
					"name": "message",
					"outputs": [
						{
							"internalType": "string",
							"name": "",
							"type": "string"
						}
					],
					"stateMutability": "view",
					"type": "function"
				},
				{
					"inputs": [],
					"name": "receiverFunds",
					"outputs": [
						{
							"internalType": "uint256",
							"name": "",
							"type": "uint256"
						}
					],
					"stateMutability": "view",
					"type": "function"
				},
				{
					"inputs": [
						{
							"internalType": "uint256",
							"name": "_amount",
							"type": "uint256"
						},
						{
							"internalType": "address",
							"name": "_receiver",
							"type": "address"
						}
					],
					"name": "sendMoney",
					"outputs": [],
					"stateMutability": "nonpayable",
					"type": "function"
				},
				{
					"inputs": [
						{
							"internalType": "string",
							"name": "_cardNumber",
							"type": "string"
						},
						{
							"internalType": "string",
							"name": "_cvv",
							"type": "string"
						}
					],
					"name": "setCard",
					"outputs": [],
					"stateMutability": "nonpayable",
					"type": "function"
				},
				{
					"inputs": [],
					"name": "totalWeekTransactions",
					"outputs": [
						{
							"internalType": "uint256",
							"name": "",
							"type": "uint256"
						}
					],
					"stateMutability": "view",
					"type": "function"
				}
			],
			"devdoc": {
				"kind": "dev",
				"methods": {},
				"version": 1
			},
			"evm": {
				"assembly": "    /* \"Dapp/MoneyTransfer.sol\":71:2914  contract  MoneyTransfer {... */\n  mstore(0x40, 0x80)\n    /* \"Dapp/MoneyTransfer.sol\":237:245  24 hours */\n  0x015180\n    /* \"Dapp/MoneyTransfer.sol\":226:245  uint day = 24 hours */\n  0x03\n  sstore\n    /* \"Dapp/MoneyTransfer.sol\":774:775  0 */\n  0x00\n    /* \"Dapp/MoneyTransfer.sol\":750:775  uint public callCount = 0 */\n  0x0f\n  sstore\n    /* \"Dapp/MoneyTransfer.sol\":809:814  false */\n  0x00\n    /* \"Dapp/MoneyTransfer.sol\":783:814  bool public callPutCard = false */\n  0x10\n  exp(0x0100, 0x00)\n  dup2\n  sload\n  dup2\n  0xff\n  mul\n  not\n  and\n  swap1\n  dup4\n  iszero\n  iszero\n  mul\n  or\n  swap1\n  sstore\n  pop\n    /* \"Dapp/MoneyTransfer.sol\":599:738  constructor (uint256 _totalFunds) {... */\n  callvalue\n  dup1\n  iszero\n  tag_1\n  jumpi\n  0x00\n  dup1\n  revert\ntag_1:\n  pop\n  mload(0x40)\n  sub(codesize, bytecodeSize)\n  dup1\n  bytecodeSize\n  dup4\n  codecopy\n  dup2\n  dup2\n  add\n  0x40\n  mstore\n  dup2\n  add\n  swap1\n  tag_2\n  swap2\n  swap1\n  tag_3\n  jump\t// in\ntag_2:\n    /* \"Dapp/MoneyTransfer.sol\":719:730  _totalFunds */\n  dup1\n    /* \"Dapp/MoneyTransfer.sol\":706:716  TotalFunds */\n  0x01\n    /* \"Dapp/MoneyTransfer.sol\":706:730  TotalFunds = _totalFunds */\n  dup2\n  swap1\n  sstore\n  pop\n    /* \"Dapp/MoneyTransfer.sol\":599:738  constructor (uint256 _totalFunds) {... */\n  pop\n    /* \"Dapp/MoneyTransfer.sol\":71:2914  contract  MoneyTransfer {... */\n  jump(tag_6)\n    /* \"#utility.yul\":88:205   */\ntag_8:\n    /* \"#utility.yul\":197:198   */\n  0x00\n    /* \"#utility.yul\":194:195   */\n  dup1\n    /* \"#utility.yul\":187:199   */\n  revert\n    /* \"#utility.yul\":334:411   */\ntag_10:\n    /* \"#utility.yul\":371:378   */\n  0x00\n    /* \"#utility.yul\":400:405   */\n  dup2\n    /* \"#utility.yul\":389:405   */\n  swap1\n  pop\n    /* \"#utility.yul\":334:411   */\n  swap2\n  swap1\n  pop\n  jump\t// out\n    /* \"#utility.yul\":417:539   */\ntag_11:\n    /* \"#utility.yul\":490:514   */\n  tag_19\n    /* \"#utility.yul\":508:513   */\n  dup2\n    /* \"#utility.yul\":490:514   */\n  tag_10\n  jump\t// in\ntag_19:\n    /* \"#utility.yul\":483:488   */\n  dup2\n    /* \"#utility.yul\":480:515   */\n  eq\n    /* \"#utility.yul\":470:533   */\n  tag_20\n  jumpi\n    /* \"#utility.yul\":529:530   */\n  0x00\n    /* \"#utility.yul\":526:527   */\n  dup1\n    /* \"#utility.yul\":519:531   */\n  revert\n    /* \"#utility.yul\":470:533   */\ntag_20:\n    /* \"#utility.yul\":417:539   */\n  pop\n  jump\t// out\n    /* \"#utility.yul\":545:688   */\ntag_12:\n    /* \"#utility.yul\":602:607   */\n  0x00\n    /* \"#utility.yul\":633:639   */\n  dup2\n    /* \"#utility.yul\":627:640   */\n  mload\n    /* \"#utility.yul\":618:640   */\n  swap1\n  pop\n    /* \"#utility.yul\":649:682   */\n  tag_22\n    /* \"#utility.yul\":676:681   */\n  dup2\n    /* \"#utility.yul\":649:682   */\n  tag_11\n  jump\t// in\ntag_22:\n    /* \"#utility.yul\":545:688   */\n  swap3\n  swap2\n  pop\n  pop\n  jump\t// out\n    /* \"#utility.yul\":694:1045   */\ntag_3:\n    /* \"#utility.yul\":764:770   */\n  0x00\n    /* \"#utility.yul\":813:815   */\n  0x20\n    /* \"#utility.yul\":801:810   */\n  dup3\n    /* \"#utility.yul\":792:799   */\n  dup5\n    /* \"#utility.yul\":788:811   */\n  sub\n    /* \"#utility.yul\":784:816   */\n  slt\n    /* \"#utility.yul\":781:900   */\n  iszero\n  tag_24\n  jumpi\n    /* \"#utility.yul\":819:898   */\n  tag_25\n  tag_8\n  jump\t// in\ntag_25:\n    /* \"#utility.yul\":781:900   */\ntag_24:\n    /* \"#utility.yul\":939:940   */\n  0x00\n    /* \"#utility.yul\":964:1028   */\n  tag_26\n    /* \"#utility.yul\":1020:1027   */\n  dup5\n    /* \"#utility.yul\":1011:1017   */\n  dup3\n    /* \"#utility.yul\":1000:1009   */\n  dup6\n    /* \"#utility.yul\":996:1018   */\n  add\n    /* \"#utility.yul\":964:1028   */\n  tag_12\n  jump\t// in\ntag_26:\n    /* \"#utility.yul\":954:1028   */\n  swap2\n  pop\n    /* \"#utility.yul\":910:1038   */\n  pop\n    /* \"#utility.yul\":694:1045   */\n  swap3\n  swap2\n  pop\n  pop\n  jump\t// out\n    /* \"Dapp/MoneyTransfer.sol\":71:2914  contract  MoneyTransfer {... */\ntag_6:\n  dataSize(sub_0)\n  dup1\n  dataOffset(sub_0)\n  0x00\n  codecopy\n  0x00\n  return\nstop\n\nsub_0: assembly {\n        /* \"Dapp/MoneyTransfer.sol\":71:2914  contract  MoneyTransfer {... */\n      mstore(0x40, 0x80)\n      callvalue\n      dup1\n      iszero\n      tag_1\n      jumpi\n      0x00\n      dup1\n      revert\n    tag_1:\n      pop\n      jumpi(tag_2, lt(calldatasize, 0x04))\n      shr(0xe0, calldataload(0x00))\n      dup1\n      0x7b9a3f4c\n      gt\n      tag_19\n      jumpi\n      dup1\n      0x94b5dcaa\n      gt\n      tag_20\n      jumpi\n      dup1\n      0x94b5dcaa\n      eq\n      tag_15\n      jumpi\n      dup1\n      0xaa8c217c\n      eq\n      tag_16\n      jumpi\n      dup1\n      0xbc309496\n      eq\n      tag_17\n      jumpi\n      dup1\n      0xe21f37ce\n      eq\n      tag_18\n      jumpi\n      jump(tag_2)\n    tag_20:\n      dup1\n      0x7b9a3f4c\n      eq\n      tag_11\n      jumpi\n      dup1\n      0x7eb9f571\n      eq\n      tag_12\n      jumpi\n      dup1\n      0x8e029c0b\n      eq\n      tag_13\n      jumpi\n      dup1\n      0x8fa11864\n      eq\n      tag_14\n      jumpi\n      jump(tag_2)\n    tag_19:\n      dup1\n      0x3c626f00\n      gt\n      tag_21\n      jumpi\n      dup1\n      0x3c626f00\n      eq\n      tag_7\n      jumpi\n      dup1\n      0x42fb7936\n      eq\n      tag_8\n      jumpi\n      dup1\n      0x4b28f9a2\n      eq\n      tag_9\n      jumpi\n      dup1\n      0x73627826\n      eq\n      tag_10\n      jumpi\n      jump(tag_2)\n    tag_21:\n      dup1\n      0x062a7544\n      eq\n      tag_3\n      jumpi\n      dup1\n      0x0e85fa72\n      eq\n      tag_4\n      jumpi\n      dup1\n      0x12a029a4\n      eq\n      tag_5\n      jumpi\n      dup1\n      0x34f5ccde\n      eq\n      tag_6\n      jumpi\n    tag_2:\n      0x00\n      dup1\n      revert\n        /* \"Dapp/MoneyTransfer.sol\":824:1526  function sendMoney( uint _amount, address _receiver) public m_validAddress(_receiver) m_ifCardExists m_transferLimit{... */\n    tag_3:\n      tag_22\n      0x04\n      dup1\n      calldatasize\n      sub\n      dup2\n      add\n      swap1\n      tag_23\n      swap2\n      swap1\n      tag_24\n      jump\t// in\n    tag_23:\n      tag_25\n      jump\t// in\n    tag_22:\n      stop\n        /* \"Dapp/MoneyTransfer.sol\":524:553  uint public firstTransferTime */\n    tag_4:\n      tag_26\n      tag_27\n      jump\t// in\n    tag_26:\n      mload(0x40)\n      tag_28\n      swap2\n      swap1\n      tag_29\n      jump\t// in\n    tag_28:\n      mload(0x40)\n      dup1\n      swap2\n      sub\n      swap1\n      return\n        /* \"Dapp/MoneyTransfer.sol\":1534:1799  function setCard(string memory _cardNumber, string memory _cvv) public  m_checkCard {... */\n    tag_5:\n      tag_30\n      0x04\n      dup1\n      calldatasize\n      sub\n      dup2\n      add\n      swap1\n      tag_31\n      swap2\n      swap1\n      tag_32\n      jump\t// in\n    tag_31:\n      tag_33\n      jump\t// in\n    tag_30:\n      stop\n        /* \"Dapp/MoneyTransfer.sol\":560:585  uint public countTransfer */\n    tag_6:\n      tag_34\n      tag_35\n      jump\t// in\n    tag_34:\n      mload(0x40)\n      tag_36\n      swap2\n      swap1\n      tag_29\n      jump\t// in\n    tag_36:\n      mload(0x40)\n      dup1\n      swap2\n      sub\n      swap1\n      return\n        /* \"Dapp/MoneyTransfer.sol\":783:814  bool public callPutCard = false */\n    tag_7:\n      tag_37\n      tag_38\n      jump\t// in\n    tag_37:\n      mload(0x40)\n      tag_39\n      swap2\n      swap1\n      tag_40\n      jump\t// in\n    tag_39:\n      mload(0x40)\n      dup1\n      swap2\n      sub\n      swap1\n      return\n        /* \"Dapp/MoneyTransfer.sol\":470:487  string public cvv */\n    tag_8:\n      tag_41\n      tag_42\n      jump\t// in\n    tag_41:\n      mload(0x40)\n      tag_43\n      swap2\n      swap1\n      tag_44\n      jump\t// in\n    tag_43:\n      mload(0x40)\n      dup1\n      swap2\n      sub\n      swap1\n      return\n        /* \"Dapp/MoneyTransfer.sol\":750:775  uint public callCount = 0 */\n    tag_9:\n      tag_45\n      tag_46\n      jump\t// in\n    tag_45:\n      mload(0x40)\n      tag_47\n      swap2\n      swap1\n      tag_29\n      jump\t// in\n    tag_47:\n      mload(0x40)\n      dup1\n      swap2\n      sub\n      swap1\n      return\n        /* \"Dapp/MoneyTransfer.sol\":2807:2903  function getTime(uint time)public returns(uint ){... */\n    tag_10:\n      tag_48\n      0x04\n      dup1\n      calldatasize\n      sub\n      dup2\n      add\n      swap1\n      tag_49\n      swap2\n      swap1\n      tag_50\n      jump\t// in\n    tag_49:\n      tag_51\n      jump\t// in\n    tag_48:\n      mload(0x40)\n      tag_52\n      swap2\n      swap1\n      tag_29\n      jump\t// in\n    tag_52:\n      mload(0x40)\n      dup1\n      swap2\n      sub\n      swap1\n      return\n        /* \"Dapp/MoneyTransfer.sol\":134:159  uint256 public TotalFunds */\n    tag_11:\n      tag_53\n      tag_54\n      jump\t// in\n    tag_53:\n      mload(0x40)\n      tag_55\n      swap2\n      swap1\n      tag_29\n      jump\t// in\n    tag_55:\n      mload(0x40)\n      dup1\n      swap2\n      sub\n      swap1\n      return\n        /* \"Dapp/MoneyTransfer.sol\":494:520  uint256 public TotalAmount */\n    tag_12:\n      tag_56\n      tag_57\n      jump\t// in\n    tag_56:\n      mload(0x40)\n      tag_58\n      swap2\n      swap1\n      tag_29\n      jump\t// in\n    tag_58:\n      mload(0x40)\n      dup1\n      swap2\n      sub\n      swap1\n      return\n        /* \"Dapp/MoneyTransfer.sol\":1809:1878  function getOutCard() public  {... */\n    tag_13:\n      tag_59\n      tag_60\n      jump\t// in\n    tag_59:\n      stop\n        /* \"Dapp/MoneyTransfer.sol\":438:462  string public cardNumber */\n    tag_14:\n      tag_61\n      tag_62\n      jump\t// in\n    tag_61:\n      mload(0x40)\n      tag_63\n      swap2\n      swap1\n      tag_44\n      jump\t// in\n    tag_63:\n      mload(0x40)\n      dup1\n      swap2\n      sub\n      swap1\n      return\n        /* \"Dapp/MoneyTransfer.sol\":252:288  uint256 public totalWeekTransactions */\n    tag_15:\n      tag_64\n      tag_65\n      jump\t// in\n    tag_64:\n      mload(0x40)\n      tag_66\n      swap2\n      swap1\n      tag_29\n      jump\t// in\n    tag_66:\n      mload(0x40)\n      dup1\n      swap2\n      sub\n      swap1\n      return\n        /* \"Dapp/MoneyTransfer.sol\":106:127  uint256 public amount */\n    tag_16:\n      tag_67\n      tag_68\n      jump\t// in\n    tag_67:\n      mload(0x40)\n      tag_69\n      swap2\n      swap1\n      tag_29\n      jump\t// in\n    tag_69:\n      mload(0x40)\n      dup1\n      swap2\n      sub\n      swap1\n      return\n        /* \"Dapp/MoneyTransfer.sol\":375:403  uint256 public receiverFunds */\n    tag_17:\n      tag_70\n      tag_71\n      jump\t// in\n    tag_70:\n      mload(0x40)\n      tag_72\n      swap2\n      swap1\n      tag_29\n      jump\t// in\n    tag_72:\n      mload(0x40)\n      dup1\n      swap2\n      sub\n      swap1\n      return\n        /* \"Dapp/MoneyTransfer.sol\":410:431  string public message */\n    tag_18:\n      tag_73\n      tag_74\n      jump\t// in\n    tag_73:\n      mload(0x40)\n      tag_75\n      swap2\n      swap1\n      tag_44\n      jump\t// in\n    tag_75:\n      mload(0x40)\n      dup1\n      swap2\n      sub\n      swap1\n      return\n        /* \"Dapp/MoneyTransfer.sol\":824:1526  function sendMoney( uint _amount, address _receiver) public m_validAddress(_receiver) m_ifCardExists m_transferLimit{... */\n    tag_25:\n        /* \"Dapp/MoneyTransfer.sol\":899:908  _receiver */\n      dup1\n        /* \"Dapp/MoneyTransfer.sol\":1947:1952  _addr */\n      dup1\n        /* \"Dapp/MoneyTransfer.sol\":1936:1944  receiver */\n      0x02\n      0x00\n        /* \"Dapp/MoneyTransfer.sol\":1936:1952  receiver = _addr */\n      0x0100\n      exp\n      dup2\n      sload\n      dup2\n      0xffffffffffffffffffffffffffffffffffffffff\n      mul\n      not\n      and\n      swap1\n      dup4\n      0xffffffffffffffffffffffffffffffffffffffff\n      and\n      mul\n      or\n      swap1\n      sstore\n      pop\n        /* \"Dapp/MoneyTransfer.sol\":1988:1989  0 */\n      0x00\n        /* \"Dapp/MoneyTransfer.sol\":1971:1990  _addr != address(0) */\n      0xffffffffffffffffffffffffffffffffffffffff\n      and\n        /* \"Dapp/MoneyTransfer.sol\":1971:1976  _addr */\n      dup2\n        /* \"Dapp/MoneyTransfer.sol\":1971:1990  _addr != address(0) */\n      0xffffffffffffffffffffffffffffffffffffffff\n      and\n      sub\n        /* \"Dapp/MoneyTransfer.sol\":1963:2023  require(_addr != address(0), \" This address doesn't exists\") */\n      tag_77\n      jumpi\n      mload(0x40)\n      0x08c379a000000000000000000000000000000000000000000000000000000000\n      dup2\n      mstore\n      0x04\n      add\n      tag_78\n      swap1\n      tag_79\n      jump\t// in\n    tag_78:\n      mload(0x40)\n      dup1\n      swap2\n      sub\n      swap1\n      revert\n    tag_77:\n        /* \"Dapp/MoneyTransfer.sol\":2122:2127  false */\n      0x00\n        /* \"Dapp/MoneyTransfer.sol\":2107:2127  callPutCard != false */\n      iszero\n      iszero\n        /* \"Dapp/MoneyTransfer.sol\":2107:2118  callPutCard */\n      0x10\n      0x00\n      swap1\n      sload\n      swap1\n      0x0100\n      exp\n      swap1\n      div\n      0xff\n      and\n        /* \"Dapp/MoneyTransfer.sol\":2107:2127  callPutCard != false */\n      iszero\n      iszero\n      sub\n        /* \"Dapp/MoneyTransfer.sol\":2099:2154  require(callPutCard != false,\"Please insert your card\") */\n      tag_81\n      jumpi\n      mload(0x40)\n      0x08c379a000000000000000000000000000000000000000000000000000000000\n      dup2\n      mstore\n      0x04\n      add\n      tag_82\n      swap1\n      tag_83\n      jump\t// in\n    tag_82:\n      mload(0x40)\n      dup1\n      swap2\n      sub\n      swap1\n      revert\n    tag_81:\n        /* \"Dapp/MoneyTransfer.sol\":2451:2455  2500 */\n      0x09c4\n        /* \"Dapp/MoneyTransfer.sol\":2436:2447  TotalAmount */\n      sload(0x0c)\n        /* \"Dapp/MoneyTransfer.sol\":2436:2455  TotalAmount <= 2500 */\n      gt\n      iszero\n        /* \"Dapp/MoneyTransfer.sol\":2427:2482  require (TotalAmount <= 2500 , \"You reached the limit\") */\n      tag_85\n      jumpi\n      mload(0x40)\n      0x08c379a000000000000000000000000000000000000000000000000000000000\n      dup2\n      mstore\n      0x04\n      add\n      tag_86\n      swap1\n      tag_87\n      jump\t// in\n    tag_86:\n      mload(0x40)\n      dup1\n      swap2\n      sub\n      swap1\n      revert\n    tag_85:\n        /* \"Dapp/MoneyTransfer.sol\":2514:2529  block.timestamp */\n      timestamp\n        /* \"Dapp/MoneyTransfer.sol\":2494:2511  firstTransferTime */\n      0x0d\n        /* \"Dapp/MoneyTransfer.sol\":2494:2529  firstTransferTime = block.timestamp */\n      dup2\n      swap1\n      sstore\n      pop\n        /* \"Dapp/MoneyTransfer.sol\":2730:2739  1 minutes */\n      0x3c\n        /* \"Dapp/MoneyTransfer.sol\":2710:2727  firstTransferTime */\n      sload(0x0d)\n        /* \"Dapp/MoneyTransfer.sol\":2710:2739  firstTransferTime + 1 minutes */\n      tag_88\n      swap2\n      swap1\n      tag_89\n      jump\t// in\n    tag_88:\n        /* \"Dapp/MoneyTransfer.sol\":2690:2705  block.timestamp */\n      timestamp\n        /* \"Dapp/MoneyTransfer.sol\":2690:2740  block.timestamp <= (firstTransferTime + 1 minutes) */\n      gt\n      iszero\n        /* \"Dapp/MoneyTransfer.sol\":2682:2756  require(block.timestamp <= (firstTransferTime + 1 minutes), \"Time passed\") */\n      tag_90\n      jumpi\n      mload(0x40)\n      0x08c379a000000000000000000000000000000000000000000000000000000000\n      dup2\n      mstore\n      0x04\n      add\n      tag_91\n      swap1\n      tag_92\n      jump\t// in\n    tag_91:\n      mload(0x40)\n      dup1\n      swap2\n      sub\n      swap1\n      revert\n    tag_90:\n        /* \"Dapp/MoneyTransfer.sol\":962:971  _receiver */\n      dup2\n        /* \"Dapp/MoneyTransfer.sol\":951:959  receiver */\n      0x02\n      0x00\n        /* \"Dapp/MoneyTransfer.sol\":951:971  receiver = _receiver */\n      0x0100\n      exp\n      dup2\n      sload\n      dup2\n      0xffffffffffffffffffffffffffffffffffffffff\n      mul\n      not\n      and\n      swap1\n      dup4\n      0xffffffffffffffffffffffffffffffffffffffff\n      and\n      mul\n      or\n      swap1\n      sstore\n      pop\n        /* \"Dapp/MoneyTransfer.sol\":991:998  _amount */\n      dup3\n        /* \"Dapp/MoneyTransfer.sol\":982:988  amount */\n      0x00\n        /* \"Dapp/MoneyTransfer.sol\":982:998  amount = _amount */\n      dup2\n      swap1\n      sstore\n      pop\n        /* \"Dapp/MoneyTransfer.sol\":1068:1069  1 */\n      0x01\n        /* \"Dapp/MoneyTransfer.sol\":1055:1064  callCount */\n      0x0f\n      0x00\n        /* \"Dapp/MoneyTransfer.sol\":1055:1069  callCount += 1 */\n      dup3\n      dup3\n      sload\n      tag_94\n      swap2\n      swap1\n      tag_89\n      jump\t// in\n    tag_94:\n      swap3\n      pop\n      pop\n      dup2\n      swap1\n      sstore\n      pop\n        /* \"Dapp/MoneyTransfer.sol\":1125:1126  0 */\n      0x00\n        /* \"Dapp/MoneyTransfer.sol\":1112:1122  TotalFunds */\n      sload(0x01)\n        /* \"Dapp/MoneyTransfer.sol\":1112:1126  TotalFunds > 0 */\n      gt\n        /* \"Dapp/MoneyTransfer.sol\":1112:1149  TotalFunds > 0 && TotalFunds > amount */\n      dup1\n      iszero\n      tag_95\n      jumpi\n      pop\n        /* \"Dapp/MoneyTransfer.sol\":1143:1149  amount */\n      sload(0x00)\n        /* \"Dapp/MoneyTransfer.sol\":1130:1140  TotalFunds */\n      sload(0x01)\n        /* \"Dapp/MoneyTransfer.sol\":1130:1149  TotalFunds > amount */\n      gt\n        /* \"Dapp/MoneyTransfer.sol\":1112:1149  TotalFunds > 0 && TotalFunds > amount */\n    tag_95:\n        /* \"Dapp/MoneyTransfer.sol\":1109:1487  if(TotalFunds > 0 && TotalFunds > amount){... */\n      iszero\n      tag_96\n      jumpi\n        /* \"Dapp/MoneyTransfer.sol\":1187:1193  amount */\n      sload(0x00)\n        /* \"Dapp/MoneyTransfer.sol\":1173:1183  TotalFunds */\n      0x01\n      0x00\n        /* \"Dapp/MoneyTransfer.sol\":1173:1193  TotalFunds -= amount */\n      dup3\n      dup3\n      sload\n      tag_97\n      swap2\n      swap1\n      tag_98\n      jump\t// in\n    tag_97:\n      swap3\n      pop\n      pop\n      dup2\n      swap1\n      sstore\n      pop\n        /* \"Dapp/MoneyTransfer.sol\":1231:1237  amount */\n      sload(0x00)\n        /* \"Dapp/MoneyTransfer.sol\":1216:1227  TotalAmount */\n      0x0c\n      0x00\n        /* \"Dapp/MoneyTransfer.sol\":1216:1237  TotalAmount += amount */\n      dup3\n      dup3\n      sload\n      tag_99\n      swap2\n      swap1\n      tag_89\n      jump\t// in\n    tag_99:\n      swap3\n      pop\n      pop\n      dup2\n      swap1\n      sstore\n      pop\n        /* \"Dapp/MoneyTransfer.sol\":1282:1312  message = \"Transfer completed\" */\n      mload(0x40)\n      dup1\n      0x40\n      add\n      0x40\n      mstore\n      dup1\n      0x12\n      dup2\n      mstore\n      0x20\n      add\n      0x5472616e7366657220636f6d706c657465640000000000000000000000000000\n      dup2\n      mstore\n      pop\n        /* \"Dapp/MoneyTransfer.sol\":1282:1289  message */\n      0x09\n        /* \"Dapp/MoneyTransfer.sol\":1282:1312  message = \"Transfer completed\" */\n      swap1\n      dup2\n      tag_100\n      swap2\n      swap1\n      tag_101\n      jump\t// in\n    tag_100:\n      pop\n        /* \"Dapp/MoneyTransfer.sol\":1109:1487  if(TotalFunds > 0 && TotalFunds > amount){... */\n      jump(tag_102)\n    tag_96:\n        /* \"Dapp/MoneyTransfer.sol\":1440:1466  revert(\"Not enough funds\") */\n      mload(0x40)\n      0x08c379a000000000000000000000000000000000000000000000000000000000\n      dup2\n      mstore\n      0x04\n      add\n      tag_103\n      swap1\n      tag_104\n      jump\t// in\n    tag_103:\n      mload(0x40)\n      dup1\n      swap2\n      sub\n      swap1\n      revert\n        /* \"Dapp/MoneyTransfer.sol\":1109:1487  if(TotalFunds > 0 && TotalFunds > amount){... */\n    tag_102:\n        /* \"Dapp/MoneyTransfer.sol\":824:1526  function sendMoney( uint _amount, address _receiver) public m_validAddress(_receiver) m_ifCardExists m_transferLimit{... */\n      pop\n      pop\n      pop\n      jump\t// out\n        /* \"Dapp/MoneyTransfer.sol\":524:553  uint public firstTransferTime */\n    tag_27:\n      sload(0x0d)\n      dup2\n      jump\t// out\n        /* \"Dapp/MoneyTransfer.sol\":1534:1799  function setCard(string memory _cardNumber, string memory _cvv) public  m_checkCard {... */\n    tag_33:\n        /* \"Dapp/MoneyTransfer.sol\":1648:1659  _cardNumber */\n      dup2\n        /* \"Dapp/MoneyTransfer.sol\":1635:1645  cardNumber */\n      0x0a\n        /* \"Dapp/MoneyTransfer.sol\":1635:1659  cardNumber = _cardNumber */\n      swap1\n      dup2\n      tag_107\n      swap2\n      swap1\n      tag_101\n      jump\t// in\n    tag_107:\n      pop\n        /* \"Dapp/MoneyTransfer.sol\":1680:1684  _cvv */\n      dup1\n        /* \"Dapp/MoneyTransfer.sol\":1674:1677  cvv */\n      0x0b\n        /* \"Dapp/MoneyTransfer.sol\":1674:1684  cvv = _cvv */\n      swap1\n      dup2\n      tag_108\n      swap2\n      swap1\n      tag_101\n      jump\t// in\n    tag_108:\n      pop\n        /* \"Dapp/MoneyTransfer.sol\":1732:1736  true */\n      0x01\n        /* \"Dapp/MoneyTransfer.sol\":1718:1729  callPutCard */\n      0x10\n      0x00\n        /* \"Dapp/MoneyTransfer.sol\":1718:1736  callPutCard = true */\n      0x0100\n      exp\n      dup2\n      sload\n      dup2\n      0xff\n      mul\n      not\n      and\n      swap1\n      dup4\n      iszero\n      iszero\n      mul\n      or\n      swap1\n      sstore\n      pop\n        /* \"Dapp/MoneyTransfer.sol\":1774:1789  block.timestamp */\n      timestamp\n        /* \"Dapp/MoneyTransfer.sol\":1754:1771  firstTransferTime */\n      0x0d\n        /* \"Dapp/MoneyTransfer.sol\":1754:1789  firstTransferTime = block.timestamp */\n      dup2\n      swap1\n      sstore\n      pop\n        /* \"Dapp/MoneyTransfer.sol\":2281:2282  8 */\n      0x08\n        /* \"Dapp/MoneyTransfer.sol\":2259:2269  cardNumber */\n      0x0a\n        /* \"Dapp/MoneyTransfer.sol\":2253:2277  bytes(cardNumber).length */\n      dup1\n      sload\n      tag_109\n      swap1\n      tag_110\n      jump\t// in\n    tag_109:\n      swap1\n      pop\n        /* \"Dapp/MoneyTransfer.sol\":2253:2282  bytes(cardNumber).length == 8 */\n      eq\n        /* \"Dapp/MoneyTransfer.sol\":2253:2308  bytes(cardNumber).length == 8 && bytes(cvv).length == 3 */\n      dup1\n      iszero\n      tag_111\n      jumpi\n      pop\n        /* \"Dapp/MoneyTransfer.sol\":2307:2308  3 */\n      0x03\n        /* \"Dapp/MoneyTransfer.sol\":2292:2295  cvv */\n      0x0b\n        /* \"Dapp/MoneyTransfer.sol\":2286:2303  bytes(cvv).length */\n      dup1\n      sload\n      tag_112\n      swap1\n      tag_110\n      jump\t// in\n    tag_112:\n      swap1\n      pop\n        /* \"Dapp/MoneyTransfer.sol\":2286:2308  bytes(cvv).length == 3 */\n      eq\n        /* \"Dapp/MoneyTransfer.sol\":2253:2308  bytes(cardNumber).length == 8 && bytes(cvv).length == 3 */\n    tag_111:\n        /* \"Dapp/MoneyTransfer.sol\":2245:2333  require(bytes(cardNumber).length == 8 && bytes(cvv).length == 3, \"No valid credit card\") */\n      tag_113\n      jumpi\n      mload(0x40)\n      0x08c379a000000000000000000000000000000000000000000000000000000000\n      dup2\n      mstore\n      0x04\n      add\n      tag_114\n      swap1\n      tag_115\n      jump\t// in\n    tag_114:\n      mload(0x40)\n      dup1\n      swap2\n      sub\n      swap1\n      revert\n    tag_113:\n        /* \"Dapp/MoneyTransfer.sol\":1534:1799  function setCard(string memory _cardNumber, string memory _cvv) public  m_checkCard {... */\n      pop\n      pop\n      jump\t// out\n        /* \"Dapp/MoneyTransfer.sol\":560:585  uint public countTransfer */\n    tag_35:\n      sload(0x0e)\n      dup2\n      jump\t// out\n        /* \"Dapp/MoneyTransfer.sol\":783:814  bool public callPutCard = false */\n    tag_38:\n      0x10\n      0x00\n      swap1\n      sload\n      swap1\n      0x0100\n      exp\n      swap1\n      div\n      0xff\n      and\n      dup2\n      jump\t// out\n        /* \"Dapp/MoneyTransfer.sol\":470:487  string public cvv */\n    tag_42:\n      0x0b\n      dup1\n      sload\n      tag_116\n      swap1\n      tag_110\n      jump\t// in\n    tag_116:\n      dup1\n      0x1f\n      add\n      0x20\n      dup1\n      swap2\n      div\n      mul\n      0x20\n      add\n      mload(0x40)\n      swap1\n      dup2\n      add\n      0x40\n      mstore\n      dup1\n      swap3\n      swap2\n      swap1\n      dup2\n      dup2\n      mstore\n      0x20\n      add\n      dup3\n      dup1\n      sload\n      tag_117\n      swap1\n      tag_110\n      jump\t// in\n    tag_117:\n      dup1\n      iszero\n      tag_118\n      jumpi\n      dup1\n      0x1f\n      lt\n      tag_119\n      jumpi\n      0x0100\n      dup1\n      dup4\n      sload\n      div\n      mul\n      dup4\n      mstore\n      swap2\n      0x20\n      add\n      swap2\n      jump(tag_118)\n    tag_119:\n      dup3\n      add\n      swap2\n      swap1\n      0x00\n      mstore\n      keccak256(0x00, 0x20)\n      swap1\n    tag_120:\n      dup2\n      sload\n      dup2\n      mstore\n      swap1\n      0x01\n      add\n      swap1\n      0x20\n      add\n      dup1\n      dup4\n      gt\n      tag_120\n      jumpi\n      dup3\n      swap1\n      sub\n      0x1f\n      and\n      dup3\n      add\n      swap2\n    tag_118:\n      pop\n      pop\n      pop\n      pop\n      pop\n      dup2\n      jump\t// out\n        /* \"Dapp/MoneyTransfer.sol\":750:775  uint public callCount = 0 */\n    tag_46:\n      sload(0x0f)\n      dup2\n      jump\t// out\n        /* \"Dapp/MoneyTransfer.sol\":2807:2903  function getTime(uint time)public returns(uint ){... */\n    tag_51:\n        /* \"Dapp/MoneyTransfer.sol\":2849:2853  uint */\n      0x00\n        /* \"Dapp/MoneyTransfer.sol\":2880:2895  block.timestamp */\n      timestamp\n        /* \"Dapp/MoneyTransfer.sol\":2873:2895  time = block.timestamp */\n      swap2\n      pop\n      dup2\n        /* \"Dapp/MoneyTransfer.sol\":2866:2895  return time = block.timestamp */\n      swap1\n      pop\n        /* \"Dapp/MoneyTransfer.sol\":2807:2903  function getTime(uint time)public returns(uint ){... */\n      swap2\n      swap1\n      pop\n      jump\t// out\n        /* \"Dapp/MoneyTransfer.sol\":134:159  uint256 public TotalFunds */\n    tag_54:\n      sload(0x01)\n      dup2\n      jump\t// out\n        /* \"Dapp/MoneyTransfer.sol\":494:520  uint256 public TotalAmount */\n    tag_57:\n      sload(0x0c)\n      dup2\n      jump\t// out\n        /* \"Dapp/MoneyTransfer.sol\":1809:1878  function getOutCard() public  {... */\n    tag_60:\n        /* \"Dapp/MoneyTransfer.sol\":1863:1868  false */\n      0x00\n        /* \"Dapp/MoneyTransfer.sol\":1849:1860  callPutCard */\n      0x10\n      0x00\n        /* \"Dapp/MoneyTransfer.sol\":1849:1868  callPutCard = false */\n      0x0100\n      exp\n      dup2\n      sload\n      dup2\n      0xff\n      mul\n      not\n      and\n      swap1\n      dup4\n      iszero\n      iszero\n      mul\n      or\n      swap1\n      sstore\n      pop\n        /* \"Dapp/MoneyTransfer.sol\":1809:1878  function getOutCard() public  {... */\n      jump\t// out\n        /* \"Dapp/MoneyTransfer.sol\":438:462  string public cardNumber */\n    tag_62:\n      0x0a\n      dup1\n      sload\n      tag_123\n      swap1\n      tag_110\n      jump\t// in\n    tag_123:\n      dup1\n      0x1f\n      add\n      0x20\n      dup1\n      swap2\n      div\n      mul\n      0x20\n      add\n      mload(0x40)\n      swap1\n      dup2\n      add\n      0x40\n      mstore\n      dup1\n      swap3\n      swap2\n      swap1\n      dup2\n      dup2\n      mstore\n      0x20\n      add\n      dup3\n      dup1\n      sload\n      tag_124\n      swap1\n      tag_110\n      jump\t// in\n    tag_124:\n      dup1\n      iszero\n      tag_125\n      jumpi\n      dup1\n      0x1f\n      lt\n      tag_126\n      jumpi\n      0x0100\n      dup1\n      dup4\n      sload\n      div\n      mul\n      dup4\n      mstore\n      swap2\n      0x20\n      add\n      swap2\n      jump(tag_125)\n    tag_126:\n      dup3\n      add\n      swap2\n      swap1\n      0x00\n      mstore\n      keccak256(0x00, 0x20)\n      swap1\n    tag_127:\n      dup2\n      sload\n      dup2\n      mstore\n      swap1\n      0x01\n      add\n      swap1\n      0x20\n      add\n      dup1\n      dup4\n      gt\n      tag_127\n      jumpi\n      dup3\n      swap1\n      sub\n      0x1f\n      and\n      dup3\n      add\n      swap2\n    tag_125:\n      pop\n      pop\n      pop\n      pop\n      pop\n      dup2\n      jump\t// out\n        /* \"Dapp/MoneyTransfer.sol\":252:288  uint256 public totalWeekTransactions */\n    tag_65:\n      sload(0x04)\n      dup2\n      jump\t// out\n        /* \"Dapp/MoneyTransfer.sol\":106:127  uint256 public amount */\n    tag_68:\n      sload(0x00)\n      dup2\n      jump\t// out\n        /* \"Dapp/MoneyTransfer.sol\":375:403  uint256 public receiverFunds */\n    tag_71:\n      sload(0x08)\n      dup2\n      jump\t// out\n        /* \"Dapp/MoneyTransfer.sol\":410:431  string public message */\n    tag_74:\n      0x09\n      dup1\n      sload\n      tag_128\n      swap1\n      tag_110\n      jump\t// in\n    tag_128:\n      dup1\n      0x1f\n      add\n      0x20\n      dup1\n      swap2\n      div\n      mul\n      0x20\n      add\n      mload(0x40)\n      swap1\n      dup2\n      add\n      0x40\n      mstore\n      dup1\n      swap3\n      swap2\n      swap1\n      dup2\n      dup2\n      mstore\n      0x20\n      add\n      dup3\n      dup1\n      sload\n      tag_129\n      swap1\n      tag_110\n      jump\t// in\n    tag_129:\n      dup1\n      iszero\n      tag_130\n      jumpi\n      dup1\n      0x1f\n      lt\n      tag_131\n      jumpi\n      0x0100\n      dup1\n      dup4\n      sload\n      div\n      mul\n      dup4\n      mstore\n      swap2\n      0x20\n      add\n      swap2\n      jump(tag_130)\n    tag_131:\n      dup3\n      add\n      swap2\n      swap1\n      0x00\n      mstore\n      keccak256(0x00, 0x20)\n      swap1\n    tag_132:\n      dup2\n      sload\n      dup2\n      mstore\n      swap1\n      0x01\n      add\n      swap1\n      0x20\n      add\n      dup1\n      dup4\n      gt\n      tag_132\n      jumpi\n      dup3\n      swap1\n      sub\n      0x1f\n      and\n      dup3\n      add\n      swap2\n    tag_130:\n      pop\n      pop\n      pop\n      pop\n      pop\n      dup2\n      jump\t// out\n        /* \"#utility.yul\":7:82   */\n    tag_133:\n        /* \"#utility.yul\":40:46   */\n      0x00\n        /* \"#utility.yul\":73:75   */\n      0x40\n        /* \"#utility.yul\":67:76   */\n      mload\n        /* \"#utility.yul\":57:76   */\n      swap1\n      pop\n        /* \"#utility.yul\":7:82   */\n      swap1\n      jump\t// out\n        /* \"#utility.yul\":88:205   */\n    tag_134:\n        /* \"#utility.yul\":197:198   */\n      0x00\n        /* \"#utility.yul\":194:195   */\n      dup1\n        /* \"#utility.yul\":187:199   */\n      revert\n        /* \"#utility.yul\":211:328   */\n    tag_135:\n        /* \"#utility.yul\":320:321   */\n      0x00\n        /* \"#utility.yul\":317:318   */\n      dup1\n        /* \"#utility.yul\":310:322   */\n      revert\n        /* \"#utility.yul\":334:411   */\n    tag_136:\n        /* \"#utility.yul\":371:378   */\n      0x00\n        /* \"#utility.yul\":400:405   */\n      dup2\n        /* \"#utility.yul\":389:405   */\n      swap1\n      pop\n        /* \"#utility.yul\":334:411   */\n      swap2\n      swap1\n      pop\n      jump\t// out\n        /* \"#utility.yul\":417:539   */\n    tag_137:\n        /* \"#utility.yul\":490:514   */\n      tag_195\n        /* \"#utility.yul\":508:513   */\n      dup2\n        /* \"#utility.yul\":490:514   */\n      tag_136\n      jump\t// in\n    tag_195:\n        /* \"#utility.yul\":483:488   */\n      dup2\n        /* \"#utility.yul\":480:515   */\n      eq\n        /* \"#utility.yul\":470:533   */\n      tag_196\n      jumpi\n        /* \"#utility.yul\":529:530   */\n      0x00\n        /* \"#utility.yul\":526:527   */\n      dup1\n        /* \"#utility.yul\":519:531   */\n      revert\n        /* \"#utility.yul\":470:533   */\n    tag_196:\n        /* \"#utility.yul\":417:539   */\n      pop\n      jump\t// out\n        /* \"#utility.yul\":545:684   */\n    tag_138:\n        /* \"#utility.yul\":591:596   */\n      0x00\n        /* \"#utility.yul\":629:635   */\n      dup2\n        /* \"#utility.yul\":616:636   */\n      calldataload\n        /* \"#utility.yul\":607:636   */\n      swap1\n      pop\n        /* \"#utility.yul\":645:678   */\n      tag_198\n        /* \"#utility.yul\":672:677   */\n      dup2\n        /* \"#utility.yul\":645:678   */\n      tag_137\n      jump\t// in\n    tag_198:\n        /* \"#utility.yul\":545:684   */\n      swap3\n      swap2\n      pop\n      pop\n      jump\t// out\n        /* \"#utility.yul\":690:816   */\n    tag_139:\n        /* \"#utility.yul\":727:734   */\n      0x00\n        /* \"#utility.yul\":767:809   */\n      0xffffffffffffffffffffffffffffffffffffffff\n        /* \"#utility.yul\":760:765   */\n      dup3\n        /* \"#utility.yul\":756:810   */\n      and\n        /* \"#utility.yul\":745:810   */\n      swap1\n      pop\n        /* \"#utility.yul\":690:816   */\n      swap2\n      swap1\n      pop\n      jump\t// out\n        /* \"#utility.yul\":822:918   */\n    tag_140:\n        /* \"#utility.yul\":859:866   */\n      0x00\n        /* \"#utility.yul\":888:912   */\n      tag_201\n        /* \"#utility.yul\":906:911   */\n      dup3\n        /* \"#utility.yul\":888:912   */\n      tag_139\n      jump\t// in\n    tag_201:\n        /* \"#utility.yul\":877:912   */\n      swap1\n      pop\n        /* \"#utility.yul\":822:918   */\n      swap2\n      swap1\n      pop\n      jump\t// out\n        /* \"#utility.yul\":924:1046   */\n    tag_141:\n        /* \"#utility.yul\":997:1021   */\n      tag_203\n        /* \"#utility.yul\":1015:1020   */\n      dup2\n        /* \"#utility.yul\":997:1021   */\n      tag_140\n      jump\t// in\n    tag_203:\n        /* \"#utility.yul\":990:995   */\n      dup2\n        /* \"#utility.yul\":987:1022   */\n      eq\n        /* \"#utility.yul\":977:1040   */\n      tag_204\n      jumpi\n        /* \"#utility.yul\":1036:1037   */\n      0x00\n        /* \"#utility.yul\":1033:1034   */\n      dup1\n        /* \"#utility.yul\":1026:1038   */\n      revert\n        /* \"#utility.yul\":977:1040   */\n    tag_204:\n        /* \"#utility.yul\":924:1046   */\n      pop\n      jump\t// out\n        /* \"#utility.yul\":1052:1191   */\n    tag_142:\n        /* \"#utility.yul\":1098:1103   */\n      0x00\n        /* \"#utility.yul\":1136:1142   */\n      dup2\n        /* \"#utility.yul\":1123:1143   */\n      calldataload\n        /* \"#utility.yul\":1114:1143   */\n      swap1\n      pop\n        /* \"#utility.yul\":1152:1185   */\n      tag_206\n        /* \"#utility.yul\":1179:1184   */\n      dup2\n        /* \"#utility.yul\":1152:1185   */\n      tag_141\n      jump\t// in\n    tag_206:\n        /* \"#utility.yul\":1052:1191   */\n      swap3\n      swap2\n      pop\n      pop\n      jump\t// out\n        /* \"#utility.yul\":1197:1671   */\n    tag_24:\n        /* \"#utility.yul\":1265:1271   */\n      0x00\n        /* \"#utility.yul\":1273:1279   */\n      dup1\n        /* \"#utility.yul\":1322:1324   */\n      0x40\n        /* \"#utility.yul\":1310:1319   */\n      dup4\n        /* \"#utility.yul\":1301:1308   */\n      dup6\n        /* \"#utility.yul\":1297:1320   */\n      sub\n        /* \"#utility.yul\":1293:1325   */\n      slt\n        /* \"#utility.yul\":1290:1409   */\n      iszero\n      tag_208\n      jumpi\n        /* \"#utility.yul\":1328:1407   */\n      tag_209\n      tag_134\n      jump\t// in\n    tag_209:\n        /* \"#utility.yul\":1290:1409   */\n    tag_208:\n        /* \"#utility.yul\":1448:1449   */\n      0x00\n        /* \"#utility.yul\":1473:1526   */\n      tag_210\n        /* \"#utility.yul\":1518:1525   */\n      dup6\n        /* \"#utility.yul\":1509:1515   */\n      dup3\n        /* \"#utility.yul\":1498:1507   */\n      dup7\n        /* \"#utility.yul\":1494:1516   */\n      add\n        /* \"#utility.yul\":1473:1526   */\n      tag_138\n      jump\t// in\n    tag_210:\n        /* \"#utility.yul\":1463:1526   */\n      swap3\n      pop\n        /* \"#utility.yul\":1419:1536   */\n      pop\n        /* \"#utility.yul\":1575:1577   */\n      0x20\n        /* \"#utility.yul\":1601:1654   */\n      tag_211\n        /* \"#utility.yul\":1646:1653   */\n      dup6\n        /* \"#utility.yul\":1637:1643   */\n      dup3\n        /* \"#utility.yul\":1626:1635   */\n      dup7\n        /* \"#utility.yul\":1622:1644   */\n      add\n        /* \"#utility.yul\":1601:1654   */\n      tag_142\n      jump\t// in\n    tag_211:\n        /* \"#utility.yul\":1591:1654   */\n      swap2\n      pop\n        /* \"#utility.yul\":1546:1664   */\n      pop\n        /* \"#utility.yul\":1197:1671   */\n      swap3\n      pop\n      swap3\n      swap1\n      pop\n      jump\t// out\n        /* \"#utility.yul\":1677:1795   */\n    tag_143:\n        /* \"#utility.yul\":1764:1788   */\n      tag_213\n        /* \"#utility.yul\":1782:1787   */\n      dup2\n        /* \"#utility.yul\":1764:1788   */\n      tag_136\n      jump\t// in\n    tag_213:\n        /* \"#utility.yul\":1759:1762   */\n      dup3\n        /* \"#utility.yul\":1752:1789   */\n      mstore\n        /* \"#utility.yul\":1677:1795   */\n      pop\n      pop\n      jump\t// out\n        /* \"#utility.yul\":1801:2023   */\n    tag_29:\n        /* \"#utility.yul\":1894:1898   */\n      0x00\n        /* \"#utility.yul\":1932:1934   */\n      0x20\n        /* \"#utility.yul\":1921:1930   */\n      dup3\n        /* \"#utility.yul\":1917:1935   */\n      add\n        /* \"#utility.yul\":1909:1935   */\n      swap1\n      pop\n        /* \"#utility.yul\":1945:2016   */\n      tag_215\n        /* \"#utility.yul\":2013:2014   */\n      0x00\n        /* \"#utility.yul\":2002:2011   */\n      dup4\n        /* \"#utility.yul\":1998:2015   */\n      add\n        /* \"#utility.yul\":1989:1995   */\n      dup5\n        /* \"#utility.yul\":1945:2016   */\n      tag_143\n      jump\t// in\n    tag_215:\n        /* \"#utility.yul\":1801:2023   */\n      swap3\n      swap2\n      pop\n      pop\n      jump\t// out\n        /* \"#utility.yul\":2029:2146   */\n    tag_144:\n        /* \"#utility.yul\":2138:2139   */\n      0x00\n        /* \"#utility.yul\":2135:2136   */\n      dup1\n        /* \"#utility.yul\":2128:2140   */\n      revert\n        /* \"#utility.yul\":2152:2269   */\n    tag_145:\n        /* \"#utility.yul\":2261:2262   */\n      0x00\n        /* \"#utility.yul\":2258:2259   */\n      dup1\n        /* \"#utility.yul\":2251:2263   */\n      revert\n        /* \"#utility.yul\":2275:2377   */\n    tag_146:\n        /* \"#utility.yul\":2316:2322   */\n      0x00\n        /* \"#utility.yul\":2367:2369   */\n      0x1f\n        /* \"#utility.yul\":2363:2370   */\n      not\n        /* \"#utility.yul\":2358:2360   */\n      0x1f\n        /* \"#utility.yul\":2351:2356   */\n      dup4\n        /* \"#utility.yul\":2347:2361   */\n      add\n        /* \"#utility.yul\":2343:2371   */\n      and\n        /* \"#utility.yul\":2333:2371   */\n      swap1\n      pop\n        /* \"#utility.yul\":2275:2377   */\n      swap2\n      swap1\n      pop\n      jump\t// out\n        /* \"#utility.yul\":2383:2563   */\n    tag_147:\n        /* \"#utility.yul\":2431:2508   */\n      0x4e487b7100000000000000000000000000000000000000000000000000000000\n        /* \"#utility.yul\":2428:2429   */\n      0x00\n        /* \"#utility.yul\":2421:2509   */\n      mstore\n        /* \"#utility.yul\":2528:2532   */\n      0x41\n        /* \"#utility.yul\":2525:2526   */\n      0x04\n        /* \"#utility.yul\":2518:2533   */\n      mstore\n        /* \"#utility.yul\":2552:2556   */\n      0x24\n        /* \"#utility.yul\":2549:2550   */\n      0x00\n        /* \"#utility.yul\":2542:2557   */\n      revert\n        /* \"#utility.yul\":2569:2850   */\n    tag_148:\n        /* \"#utility.yul\":2652:2679   */\n      tag_221\n        /* \"#utility.yul\":2674:2678   */\n      dup3\n        /* \"#utility.yul\":2652:2679   */\n      tag_146\n      jump\t// in\n    tag_221:\n        /* \"#utility.yul\":2644:2650   */\n      dup2\n        /* \"#utility.yul\":2640:2680   */\n      add\n        /* \"#utility.yul\":2782:2788   */\n      dup2\n        /* \"#utility.yul\":2770:2780   */\n      dup2\n        /* \"#utility.yul\":2767:2789   */\n      lt\n        /* \"#utility.yul\":2746:2764   */\n      0xffffffffffffffff\n        /* \"#utility.yul\":2734:2744   */\n      dup3\n        /* \"#utility.yul\":2731:2765   */\n      gt\n        /* \"#utility.yul\":2728:2790   */\n      or\n        /* \"#utility.yul\":2725:2813   */\n      iszero\n      tag_222\n      jumpi\n        /* \"#utility.yul\":2793:2811   */\n      tag_223\n      tag_147\n      jump\t// in\n    tag_223:\n        /* \"#utility.yul\":2725:2813   */\n    tag_222:\n        /* \"#utility.yul\":2833:2843   */\n      dup1\n        /* \"#utility.yul\":2829:2831   */\n      0x40\n        /* \"#utility.yul\":2822:2844   */\n      mstore\n        /* \"#utility.yul\":2612:2850   */\n      pop\n        /* \"#utility.yul\":2569:2850   */\n      pop\n      pop\n      jump\t// out\n        /* \"#utility.yul\":2856:2985   */\n    tag_149:\n        /* \"#utility.yul\":2890:2896   */\n      0x00\n        /* \"#utility.yul\":2917:2937   */\n      tag_225\n      tag_133\n      jump\t// in\n    tag_225:\n        /* \"#utility.yul\":2907:2937   */\n      swap1\n      pop\n        /* \"#utility.yul\":2946:2979   */\n      tag_226\n        /* \"#utility.yul\":2974:2978   */\n      dup3\n        /* \"#utility.yul\":2966:2972   */\n      dup3\n        /* \"#utility.yul\":2946:2979   */\n      tag_148\n      jump\t// in\n    tag_226:\n        /* \"#utility.yul\":2856:2985   */\n      swap2\n      swap1\n      pop\n      jump\t// out\n        /* \"#utility.yul\":2991:3299   */\n    tag_150:\n        /* \"#utility.yul\":3053:3057   */\n      0x00\n        /* \"#utility.yul\":3143:3161   */\n      0xffffffffffffffff\n        /* \"#utility.yul\":3135:3141   */\n      dup3\n        /* \"#utility.yul\":3132:3162   */\n      gt\n        /* \"#utility.yul\":3129:3185   */\n      iszero\n      tag_228\n      jumpi\n        /* \"#utility.yul\":3165:3183   */\n      tag_229\n      tag_147\n      jump\t// in\n    tag_229:\n        /* \"#utility.yul\":3129:3185   */\n    tag_228:\n        /* \"#utility.yul\":3203:3232   */\n      tag_230\n        /* \"#utility.yul\":3225:3231   */\n      dup3\n        /* \"#utility.yul\":3203:3232   */\n      tag_146\n      jump\t// in\n    tag_230:\n        /* \"#utility.yul\":3195:3232   */\n      swap1\n      pop\n        /* \"#utility.yul\":3287:3291   */\n      0x20\n        /* \"#utility.yul\":3281:3285   */\n      dup2\n        /* \"#utility.yul\":3277:3292   */\n      add\n        /* \"#utility.yul\":3269:3292   */\n      swap1\n      pop\n        /* \"#utility.yul\":2991:3299   */\n      swap2\n      swap1\n      pop\n      jump\t// out\n        /* \"#utility.yul\":3305:3459   */\n    tag_151:\n        /* \"#utility.yul\":3389:3395   */\n      dup3\n        /* \"#utility.yul\":3384:3387   */\n      dup2\n        /* \"#utility.yul\":3379:3382   */\n      dup4\n        /* \"#utility.yul\":3366:3396   */\n      calldatacopy\n        /* \"#utility.yul\":3451:3452   */\n      0x00\n        /* \"#utility.yul\":3442:3448   */\n      dup4\n        /* \"#utility.yul\":3437:3440   */\n      dup4\n        /* \"#utility.yul\":3433:3449   */\n      add\n        /* \"#utility.yul\":3426:3453   */\n      mstore\n        /* \"#utility.yul\":3305:3459   */\n      pop\n      pop\n      pop\n      jump\t// out\n        /* \"#utility.yul\":3465:3877   */\n    tag_152:\n        /* \"#utility.yul\":3543:3548   */\n      0x00\n        /* \"#utility.yul\":3568:3634   */\n      tag_233\n        /* \"#utility.yul\":3584:3633   */\n      tag_234\n        /* \"#utility.yul\":3626:3632   */\n      dup5\n        /* \"#utility.yul\":3584:3633   */\n      tag_150\n      jump\t// in\n    tag_234:\n        /* \"#utility.yul\":3568:3634   */\n      tag_149\n      jump\t// in\n    tag_233:\n        /* \"#utility.yul\":3559:3634   */\n      swap1\n      pop\n        /* \"#utility.yul\":3657:3663   */\n      dup3\n        /* \"#utility.yul\":3650:3655   */\n      dup2\n        /* \"#utility.yul\":3643:3664   */\n      mstore\n        /* \"#utility.yul\":3695:3699   */\n      0x20\n        /* \"#utility.yul\":3688:3693   */\n      dup2\n        /* \"#utility.yul\":3684:3700   */\n      add\n        /* \"#utility.yul\":3733:3736   */\n      dup5\n        /* \"#utility.yul\":3724:3730   */\n      dup5\n        /* \"#utility.yul\":3719:3722   */\n      dup5\n        /* \"#utility.yul\":3715:3731   */\n      add\n        /* \"#utility.yul\":3712:3737   */\n      gt\n        /* \"#utility.yul\":3709:3821   */\n      iszero\n      tag_235\n      jumpi\n        /* \"#utility.yul\":3740:3819   */\n      tag_236\n      tag_145\n      jump\t// in\n    tag_236:\n        /* \"#utility.yul\":3709:3821   */\n    tag_235:\n        /* \"#utility.yul\":3830:3871   */\n      tag_237\n        /* \"#utility.yul\":3864:3870   */\n      dup5\n        /* \"#utility.yul\":3859:3862   */\n      dup3\n        /* \"#utility.yul\":3854:3857   */\n      dup6\n        /* \"#utility.yul\":3830:3871   */\n      tag_151\n      jump\t// in\n    tag_237:\n        /* \"#utility.yul\":3549:3877   */\n      pop\n        /* \"#utility.yul\":3465:3877   */\n      swap4\n      swap3\n      pop\n      pop\n      pop\n      jump\t// out\n        /* \"#utility.yul\":3897:4237   */\n    tag_153:\n        /* \"#utility.yul\":3953:3958   */\n      0x00\n        /* \"#utility.yul\":4002:4005   */\n      dup3\n        /* \"#utility.yul\":3995:3999   */\n      0x1f\n        /* \"#utility.yul\":3987:3993   */\n      dup4\n        /* \"#utility.yul\":3983:4000   */\n      add\n        /* \"#utility.yul\":3979:4006   */\n      slt\n        /* \"#utility.yul\":3969:4091   */\n      tag_239\n      jumpi\n        /* \"#utility.yul\":4010:4089   */\n      tag_240\n      tag_144\n      jump\t// in\n    tag_240:\n        /* \"#utility.yul\":3969:4091   */\n    tag_239:\n        /* \"#utility.yul\":4127:4133   */\n      dup2\n        /* \"#utility.yul\":4114:4134   */\n      calldataload\n        /* \"#utility.yul\":4152:4231   */\n      tag_241\n        /* \"#utility.yul\":4227:4230   */\n      dup5\n        /* \"#utility.yul\":4219:4225   */\n      dup3\n        /* \"#utility.yul\":4212:4216   */\n      0x20\n        /* \"#utility.yul\":4204:4210   */\n      dup7\n        /* \"#utility.yul\":4200:4217   */\n      add\n        /* \"#utility.yul\":4152:4231   */\n      tag_152\n      jump\t// in\n    tag_241:\n        /* \"#utility.yul\":4143:4231   */\n      swap2\n      pop\n        /* \"#utility.yul\":3959:4237   */\n      pop\n        /* \"#utility.yul\":3897:4237   */\n      swap3\n      swap2\n      pop\n      pop\n      jump\t// out\n        /* \"#utility.yul\":4243:5077   */\n    tag_32:\n        /* \"#utility.yul\":4331:4337   */\n      0x00\n        /* \"#utility.yul\":4339:4345   */\n      dup1\n        /* \"#utility.yul\":4388:4390   */\n      0x40\n        /* \"#utility.yul\":4376:4385   */\n      dup4\n        /* \"#utility.yul\":4367:4374   */\n      dup6\n        /* \"#utility.yul\":4363:4386   */\n      sub\n        /* \"#utility.yul\":4359:4391   */\n      slt\n        /* \"#utility.yul\":4356:4475   */\n      iszero\n      tag_243\n      jumpi\n        /* \"#utility.yul\":4394:4473   */\n      tag_244\n      tag_134\n      jump\t// in\n    tag_244:\n        /* \"#utility.yul\":4356:4475   */\n    tag_243:\n        /* \"#utility.yul\":4542:4543   */\n      0x00\n        /* \"#utility.yul\":4531:4540   */\n      dup4\n        /* \"#utility.yul\":4527:4544   */\n      add\n        /* \"#utility.yul\":4514:4545   */\n      calldataload\n        /* \"#utility.yul\":4572:4590   */\n      0xffffffffffffffff\n        /* \"#utility.yul\":4564:4570   */\n      dup2\n        /* \"#utility.yul\":4561:4591   */\n      gt\n        /* \"#utility.yul\":4558:4675   */\n      iszero\n      tag_245\n      jumpi\n        /* \"#utility.yul\":4594:4673   */\n      tag_246\n      tag_135\n      jump\t// in\n    tag_246:\n        /* \"#utility.yul\":4558:4675   */\n    tag_245:\n        /* \"#utility.yul\":4699:4762   */\n      tag_247\n        /* \"#utility.yul\":4754:4761   */\n      dup6\n        /* \"#utility.yul\":4745:4751   */\n      dup3\n        /* \"#utility.yul\":4734:4743   */\n      dup7\n        /* \"#utility.yul\":4730:4752   */\n      add\n        /* \"#utility.yul\":4699:4762   */\n      tag_153\n      jump\t// in\n    tag_247:\n        /* \"#utility.yul\":4689:4762   */\n      swap3\n      pop\n        /* \"#utility.yul\":4485:4772   */\n      pop\n        /* \"#utility.yul\":4839:4841   */\n      0x20\n        /* \"#utility.yul\":4828:4837   */\n      dup4\n        /* \"#utility.yul\":4824:4842   */\n      add\n        /* \"#utility.yul\":4811:4843   */\n      calldataload\n        /* \"#utility.yul\":4870:4888   */\n      0xffffffffffffffff\n        /* \"#utility.yul\":4862:4868   */\n      dup2\n        /* \"#utility.yul\":4859:4889   */\n      gt\n        /* \"#utility.yul\":4856:4973   */\n      iszero\n      tag_248\n      jumpi\n        /* \"#utility.yul\":4892:4971   */\n      tag_249\n      tag_135\n      jump\t// in\n    tag_249:\n        /* \"#utility.yul\":4856:4973   */\n    tag_248:\n        /* \"#utility.yul\":4997:5060   */\n      tag_250\n        /* \"#utility.yul\":5052:5059   */\n      dup6\n        /* \"#utility.yul\":5043:5049   */\n      dup3\n        /* \"#utility.yul\":5032:5041   */\n      dup7\n        /* \"#utility.yul\":5028:5050   */\n      add\n        /* \"#utility.yul\":4997:5060   */\n      tag_153\n      jump\t// in\n    tag_250:\n        /* \"#utility.yul\":4987:5060   */\n      swap2\n      pop\n        /* \"#utility.yul\":4782:5070   */\n      pop\n        /* \"#utility.yul\":4243:5077   */\n      swap3\n      pop\n      swap3\n      swap1\n      pop\n      jump\t// out\n        /* \"#utility.yul\":5083:5173   */\n    tag_154:\n        /* \"#utility.yul\":5117:5124   */\n      0x00\n        /* \"#utility.yul\":5160:5165   */\n      dup2\n        /* \"#utility.yul\":5153:5166   */\n      iszero\n        /* \"#utility.yul\":5146:5167   */\n      iszero\n        /* \"#utility.yul\":5135:5167   */\n      swap1\n      pop\n        /* \"#utility.yul\":5083:5173   */\n      swap2\n      swap1\n      pop\n      jump\t// out\n        /* \"#utility.yul\":5179:5288   */\n    tag_155:\n        /* \"#utility.yul\":5260:5281   */\n      tag_253\n        /* \"#utility.yul\":5275:5280   */\n      dup2\n        /* \"#utility.yul\":5260:5281   */\n      tag_154\n      jump\t// in\n    tag_253:\n        /* \"#utility.yul\":5255:5258   */\n      dup3\n        /* \"#utility.yul\":5248:5282   */\n      mstore\n        /* \"#utility.yul\":5179:5288   */\n      pop\n      pop\n      jump\t// out\n        /* \"#utility.yul\":5294:5504   */\n    tag_40:\n        /* \"#utility.yul\":5381:5385   */\n      0x00\n        /* \"#utility.yul\":5419:5421   */\n      0x20\n        /* \"#utility.yul\":5408:5417   */\n      dup3\n        /* \"#utility.yul\":5404:5422   */\n      add\n        /* \"#utility.yul\":5396:5422   */\n      swap1\n      pop\n        /* \"#utility.yul\":5432:5497   */\n      tag_255\n        /* \"#utility.yul\":5494:5495   */\n      0x00\n        /* \"#utility.yul\":5483:5492   */\n      dup4\n        /* \"#utility.yul\":5479:5496   */\n      add\n        /* \"#utility.yul\":5470:5476   */\n      dup5\n        /* \"#utility.yul\":5432:5497   */\n      tag_155\n      jump\t// in\n    tag_255:\n        /* \"#utility.yul\":5294:5504   */\n      swap3\n      swap2\n      pop\n      pop\n      jump\t// out\n        /* \"#utility.yul\":5510:5609   */\n    tag_156:\n        /* \"#utility.yul\":5562:5568   */\n      0x00\n        /* \"#utility.yul\":5596:5601   */\n      dup2\n        /* \"#utility.yul\":5590:5602   */\n      mload\n        /* \"#utility.yul\":5580:5602   */\n      swap1\n      pop\n        /* \"#utility.yul\":5510:5609   */\n      swap2\n      swap1\n      pop\n      jump\t// out\n        /* \"#utility.yul\":5615:5784   */\n    tag_157:\n        /* \"#utility.yul\":5699:5710   */\n      0x00\n        /* \"#utility.yul\":5733:5739   */\n      dup3\n        /* \"#utility.yul\":5728:5731   */\n      dup3\n        /* \"#utility.yul\":5721:5740   */\n      mstore\n        /* \"#utility.yul\":5773:5777   */\n      0x20\n        /* \"#utility.yul\":5768:5771   */\n      dup3\n        /* \"#utility.yul\":5764:5778   */\n      add\n        /* \"#utility.yul\":5749:5778   */\n      swap1\n      pop\n        /* \"#utility.yul\":5615:5784   */\n      swap3\n      swap2\n      pop\n      pop\n      jump\t// out\n        /* \"#utility.yul\":5790:6097   */\n    tag_158:\n        /* \"#utility.yul\":5858:5859   */\n      0x00\n        /* \"#utility.yul\":5868:5981   */\n    tag_259:\n        /* \"#utility.yul\":5882:5888   */\n      dup4\n        /* \"#utility.yul\":5879:5880   */\n      dup2\n        /* \"#utility.yul\":5876:5889   */\n      lt\n        /* \"#utility.yul\":5868:5981   */\n      iszero\n      tag_261\n      jumpi\n        /* \"#utility.yul\":5967:5968   */\n      dup1\n        /* \"#utility.yul\":5962:5965   */\n      dup3\n        /* \"#utility.yul\":5958:5969   */\n      add\n        /* \"#utility.yul\":5952:5970   */\n      mload\n        /* \"#utility.yul\":5948:5949   */\n      dup2\n        /* \"#utility.yul\":5943:5946   */\n      dup5\n        /* \"#utility.yul\":5939:5950   */\n      add\n        /* \"#utility.yul\":5932:5971   */\n      mstore\n        /* \"#utility.yul\":5904:5906   */\n      0x20\n        /* \"#utility.yul\":5901:5902   */\n      dup2\n        /* \"#utility.yul\":5897:5907   */\n      add\n        /* \"#utility.yul\":5892:5907   */\n      swap1\n      pop\n        /* \"#utility.yul\":5868:5981   */\n      jump(tag_259)\n    tag_261:\n        /* \"#utility.yul\":5999:6005   */\n      dup4\n        /* \"#utility.yul\":5996:5997   */\n      dup2\n        /* \"#utility.yul\":5993:6006   */\n      gt\n        /* \"#utility.yul\":5990:6091   */\n      iszero\n      tag_262\n      jumpi\n        /* \"#utility.yul\":6079:6080   */\n      0x00\n        /* \"#utility.yul\":6070:6076   */\n      dup5\n        /* \"#utility.yul\":6065:6068   */\n      dup5\n        /* \"#utility.yul\":6061:6077   */\n      add\n        /* \"#utility.yul\":6054:6081   */\n      mstore\n        /* \"#utility.yul\":5990:6091   */\n    tag_262:\n        /* \"#utility.yul\":5839:6097   */\n      pop\n        /* \"#utility.yul\":5790:6097   */\n      pop\n      pop\n      pop\n      jump\t// out\n        /* \"#utility.yul\":6103:6467   */\n    tag_159:\n        /* \"#utility.yul\":6191:6194   */\n      0x00\n        /* \"#utility.yul\":6219:6258   */\n      tag_264\n        /* \"#utility.yul\":6252:6257   */\n      dup3\n        /* \"#utility.yul\":6219:6258   */\n      tag_156\n      jump\t// in\n    tag_264:\n        /* \"#utility.yul\":6274:6345   */\n      tag_265\n        /* \"#utility.yul\":6338:6344   */\n      dup2\n        /* \"#utility.yul\":6333:6336   */\n      dup6\n        /* \"#utility.yul\":6274:6345   */\n      tag_157\n      jump\t// in\n    tag_265:\n        /* \"#utility.yul\":6267:6345   */\n      swap4\n      pop\n        /* \"#utility.yul\":6354:6406   */\n      tag_266\n        /* \"#utility.yul\":6399:6405   */\n      dup2\n        /* \"#utility.yul\":6394:6397   */\n      dup6\n        /* \"#utility.yul\":6387:6391   */\n      0x20\n        /* \"#utility.yul\":6380:6385   */\n      dup7\n        /* \"#utility.yul\":6376:6392   */\n      add\n        /* \"#utility.yul\":6354:6406   */\n      tag_158\n      jump\t// in\n    tag_266:\n        /* \"#utility.yul\":6431:6460   */\n      tag_267\n        /* \"#utility.yul\":6453:6459   */\n      dup2\n        /* \"#utility.yul\":6431:6460   */\n      tag_146\n      jump\t// in\n    tag_267:\n        /* \"#utility.yul\":6426:6429   */\n      dup5\n        /* \"#utility.yul\":6422:6461   */\n      add\n        /* \"#utility.yul\":6415:6461   */\n      swap2\n      pop\n        /* \"#utility.yul\":6195:6467   */\n      pop\n        /* \"#utility.yul\":6103:6467   */\n      swap3\n      swap2\n      pop\n      pop\n      jump\t// out\n        /* \"#utility.yul\":6473:6786   */\n    tag_44:\n        /* \"#utility.yul\":6586:6590   */\n      0x00\n        /* \"#utility.yul\":6624:6626   */\n      0x20\n        /* \"#utility.yul\":6613:6622   */\n      dup3\n        /* \"#utility.yul\":6609:6627   */\n      add\n        /* \"#utility.yul\":6601:6627   */\n      swap1\n      pop\n        /* \"#utility.yul\":6673:6682   */\n      dup2\n        /* \"#utility.yul\":6667:6671   */\n      dup2\n        /* \"#utility.yul\":6663:6683   */\n      sub\n        /* \"#utility.yul\":6659:6660   */\n      0x00\n        /* \"#utility.yul\":6648:6657   */\n      dup4\n        /* \"#utility.yul\":6644:6661   */\n      add\n        /* \"#utility.yul\":6637:6684   */\n      mstore\n        /* \"#utility.yul\":6701:6779   */\n      tag_269\n        /* \"#utility.yul\":6774:6778   */\n      dup2\n        /* \"#utility.yul\":6765:6771   */\n      dup5\n        /* \"#utility.yul\":6701:6779   */\n      tag_159\n      jump\t// in\n    tag_269:\n        /* \"#utility.yul\":6693:6779   */\n      swap1\n      pop\n        /* \"#utility.yul\":6473:6786   */\n      swap3\n      swap2\n      pop\n      pop\n      jump\t// out\n        /* \"#utility.yul\":6792:7121   */\n    tag_50:\n        /* \"#utility.yul\":6851:6857   */\n      0x00\n        /* \"#utility.yul\":6900:6902   */\n      0x20\n        /* \"#utility.yul\":6888:6897   */\n      dup3\n        /* \"#utility.yul\":6879:6886   */\n      dup5\n        /* \"#utility.yul\":6875:6898   */\n      sub\n        /* \"#utility.yul\":6871:6903   */\n      slt\n        /* \"#utility.yul\":6868:6987   */\n      iszero\n      tag_271\n      jumpi\n        /* \"#utility.yul\":6906:6985   */\n      tag_272\n      tag_134\n      jump\t// in\n    tag_272:\n        /* \"#utility.yul\":6868:6987   */\n    tag_271:\n        /* \"#utility.yul\":7026:7027   */\n      0x00\n        /* \"#utility.yul\":7051:7104   */\n      tag_273\n        /* \"#utility.yul\":7096:7103   */\n      dup5\n        /* \"#utility.yul\":7087:7093   */\n      dup3\n        /* \"#utility.yul\":7076:7085   */\n      dup6\n        /* \"#utility.yul\":7072:7094   */\n      add\n        /* \"#utility.yul\":7051:7104   */\n      tag_138\n      jump\t// in\n    tag_273:\n        /* \"#utility.yul\":7041:7104   */\n      swap2\n      pop\n        /* \"#utility.yul\":6997:7114   */\n      pop\n        /* \"#utility.yul\":6792:7121   */\n      swap3\n      swap2\n      pop\n      pop\n      jump\t// out\n        /* \"#utility.yul\":7127:7305   */\n    tag_160:\n        /* \"#utility.yul\":7267:7297   */\n      0x2054686973206164647265737320646f65736e27742065786973747300000000\n        /* \"#utility.yul\":7263:7264   */\n      0x00\n        /* \"#utility.yul\":7255:7261   */\n      dup3\n        /* \"#utility.yul\":7251:7265   */\n      add\n        /* \"#utility.yul\":7244:7298   */\n      mstore\n        /* \"#utility.yul\":7127:7305   */\n      pop\n      jump\t// out\n        /* \"#utility.yul\":7311:7677   */\n    tag_161:\n        /* \"#utility.yul\":7453:7456   */\n      0x00\n        /* \"#utility.yul\":7474:7541   */\n      tag_276\n        /* \"#utility.yul\":7538:7540   */\n      0x1c\n        /* \"#utility.yul\":7533:7536   */\n      dup4\n        /* \"#utility.yul\":7474:7541   */\n      tag_157\n      jump\t// in\n    tag_276:\n        /* \"#utility.yul\":7467:7541   */\n      swap2\n      pop\n        /* \"#utility.yul\":7550:7643   */\n      tag_277\n        /* \"#utility.yul\":7639:7642   */\n      dup3\n        /* \"#utility.yul\":7550:7643   */\n      tag_160\n      jump\t// in\n    tag_277:\n        /* \"#utility.yul\":7668:7670   */\n      0x20\n        /* \"#utility.yul\":7663:7666   */\n      dup3\n        /* \"#utility.yul\":7659:7671   */\n      add\n        /* \"#utility.yul\":7652:7671   */\n      swap1\n      pop\n        /* \"#utility.yul\":7311:7677   */\n      swap2\n      swap1\n      pop\n      jump\t// out\n        /* \"#utility.yul\":7683:8102   */\n    tag_79:\n        /* \"#utility.yul\":7849:7853   */\n      0x00\n        /* \"#utility.yul\":7887:7889   */\n      0x20\n        /* \"#utility.yul\":7876:7885   */\n      dup3\n        /* \"#utility.yul\":7872:7890   */\n      add\n        /* \"#utility.yul\":7864:7890   */\n      swap1\n      pop\n        /* \"#utility.yul\":7936:7945   */\n      dup2\n        /* \"#utility.yul\":7930:7934   */\n      dup2\n        /* \"#utility.yul\":7926:7946   */\n      sub\n        /* \"#utility.yul\":7922:7923   */\n      0x00\n        /* \"#utility.yul\":7911:7920   */\n      dup4\n        /* \"#utility.yul\":7907:7924   */\n      add\n        /* \"#utility.yul\":7900:7947   */\n      mstore\n        /* \"#utility.yul\":7964:8095   */\n      tag_279\n        /* \"#utility.yul\":8090:8094   */\n      dup2\n        /* \"#utility.yul\":7964:8095   */\n      tag_161\n      jump\t// in\n    tag_279:\n        /* \"#utility.yul\":7956:8095   */\n      swap1\n      pop\n        /* \"#utility.yul\":7683:8102   */\n      swap2\n      swap1\n      pop\n      jump\t// out\n        /* \"#utility.yul\":8108:8281   */\n    tag_162:\n        /* \"#utility.yul\":8248:8273   */\n      0x506c6561736520696e7365727420796f75722063617264000000000000000000\n        /* \"#utility.yul\":8244:8245   */\n      0x00\n        /* \"#utility.yul\":8236:8242   */\n      dup3\n        /* \"#utility.yul\":8232:8246   */\n      add\n        /* \"#utility.yul\":8225:8274   */\n      mstore\n        /* \"#utility.yul\":8108:8281   */\n      pop\n      jump\t// out\n        /* \"#utility.yul\":8287:8653   */\n    tag_163:\n        /* \"#utility.yul\":8429:8432   */\n      0x00\n        /* \"#utility.yul\":8450:8517   */\n      tag_282\n        /* \"#utility.yul\":8514:8516   */\n      0x17\n        /* \"#utility.yul\":8509:8512   */\n      dup4\n        /* \"#utility.yul\":8450:8517   */\n      tag_157\n      jump\t// in\n    tag_282:\n        /* \"#utility.yul\":8443:8517   */\n      swap2\n      pop\n        /* \"#utility.yul\":8526:8619   */\n      tag_283\n        /* \"#utility.yul\":8615:8618   */\n      dup3\n        /* \"#utility.yul\":8526:8619   */\n      tag_162\n      jump\t// in\n    tag_283:\n        /* \"#utility.yul\":8644:8646   */\n      0x20\n        /* \"#utility.yul\":8639:8642   */\n      dup3\n        /* \"#utility.yul\":8635:8647   */\n      add\n        /* \"#utility.yul\":8628:8647   */\n      swap1\n      pop\n        /* \"#utility.yul\":8287:8653   */\n      swap2\n      swap1\n      pop\n      jump\t// out\n        /* \"#utility.yul\":8659:9078   */\n    tag_83:\n        /* \"#utility.yul\":8825:8829   */\n      0x00\n        /* \"#utility.yul\":8863:8865   */\n      0x20\n        /* \"#utility.yul\":8852:8861   */\n      dup3\n        /* \"#utility.yul\":8848:8866   */\n      add\n        /* \"#utility.yul\":8840:8866   */\n      swap1\n      pop\n        /* \"#utility.yul\":8912:8921   */\n      dup2\n        /* \"#utility.yul\":8906:8910   */\n      dup2\n        /* \"#utility.yul\":8902:8922   */\n      sub\n        /* \"#utility.yul\":8898:8899   */\n      0x00\n        /* \"#utility.yul\":8887:8896   */\n      dup4\n        /* \"#utility.yul\":8883:8900   */\n      add\n        /* \"#utility.yul\":8876:8923   */\n      mstore\n        /* \"#utility.yul\":8940:9071   */\n      tag_285\n        /* \"#utility.yul\":9066:9070   */\n      dup2\n        /* \"#utility.yul\":8940:9071   */\n      tag_163\n      jump\t// in\n    tag_285:\n        /* \"#utility.yul\":8932:9071   */\n      swap1\n      pop\n        /* \"#utility.yul\":8659:9078   */\n      swap2\n      swap1\n      pop\n      jump\t// out\n        /* \"#utility.yul\":9084:9255   */\n    tag_164:\n        /* \"#utility.yul\":9224:9247   */\n      0x596f75207265616368656420746865206c696d69740000000000000000000000\n        /* \"#utility.yul\":9220:9221   */\n      0x00\n        /* \"#utility.yul\":9212:9218   */\n      dup3\n        /* \"#utility.yul\":9208:9222   */\n      add\n        /* \"#utility.yul\":9201:9248   */\n      mstore\n        /* \"#utility.yul\":9084:9255   */\n      pop\n      jump\t// out\n        /* \"#utility.yul\":9261:9627   */\n    tag_165:\n        /* \"#utility.yul\":9403:9406   */\n      0x00\n        /* \"#utility.yul\":9424:9491   */\n      tag_288\n        /* \"#utility.yul\":9488:9490   */\n      0x15\n        /* \"#utility.yul\":9483:9486   */\n      dup4\n        /* \"#utility.yul\":9424:9491   */\n      tag_157\n      jump\t// in\n    tag_288:\n        /* \"#utility.yul\":9417:9491   */\n      swap2\n      pop\n        /* \"#utility.yul\":9500:9593   */\n      tag_289\n        /* \"#utility.yul\":9589:9592   */\n      dup3\n        /* \"#utility.yul\":9500:9593   */\n      tag_164\n      jump\t// in\n    tag_289:\n        /* \"#utility.yul\":9618:9620   */\n      0x20\n        /* \"#utility.yul\":9613:9616   */\n      dup3\n        /* \"#utility.yul\":9609:9621   */\n      add\n        /* \"#utility.yul\":9602:9621   */\n      swap1\n      pop\n        /* \"#utility.yul\":9261:9627   */\n      swap2\n      swap1\n      pop\n      jump\t// out\n        /* \"#utility.yul\":9633:10052   */\n    tag_87:\n        /* \"#utility.yul\":9799:9803   */\n      0x00\n        /* \"#utility.yul\":9837:9839   */\n      0x20\n        /* \"#utility.yul\":9826:9835   */\n      dup3\n        /* \"#utility.yul\":9822:9840   */\n      add\n        /* \"#utility.yul\":9814:9840   */\n      swap1\n      pop\n        /* \"#utility.yul\":9886:9895   */\n      dup2\n        /* \"#utility.yul\":9880:9884   */\n      dup2\n        /* \"#utility.yul\":9876:9896   */\n      sub\n        /* \"#utility.yul\":9872:9873   */\n      0x00\n        /* \"#utility.yul\":9861:9870   */\n      dup4\n        /* \"#utility.yul\":9857:9874   */\n      add\n        /* \"#utility.yul\":9850:9897   */\n      mstore\n        /* \"#utility.yul\":9914:10045   */\n      tag_291\n        /* \"#utility.yul\":10040:10044   */\n      dup2\n        /* \"#utility.yul\":9914:10045   */\n      tag_165\n      jump\t// in\n    tag_291:\n        /* \"#utility.yul\":9906:10045   */\n      swap1\n      pop\n        /* \"#utility.yul\":9633:10052   */\n      swap2\n      swap1\n      pop\n      jump\t// out\n        /* \"#utility.yul\":10058:10238   */\n    tag_166:\n        /* \"#utility.yul\":10106:10183   */\n      0x4e487b7100000000000000000000000000000000000000000000000000000000\n        /* \"#utility.yul\":10103:10104   */\n      0x00\n        /* \"#utility.yul\":10096:10184   */\n      mstore\n        /* \"#utility.yul\":10203:10207   */\n      0x11\n        /* \"#utility.yul\":10200:10201   */\n      0x04\n        /* \"#utility.yul\":10193:10208   */\n      mstore\n        /* \"#utility.yul\":10227:10231   */\n      0x24\n        /* \"#utility.yul\":10224:10225   */\n      0x00\n        /* \"#utility.yul\":10217:10232   */\n      revert\n        /* \"#utility.yul\":10244:10549   */\n    tag_89:\n        /* \"#utility.yul\":10284:10287   */\n      0x00\n        /* \"#utility.yul\":10303:10323   */\n      tag_294\n        /* \"#utility.yul\":10321:10322   */\n      dup3\n        /* \"#utility.yul\":10303:10323   */\n      tag_136\n      jump\t// in\n    tag_294:\n        /* \"#utility.yul\":10298:10323   */\n      swap2\n      pop\n        /* \"#utility.yul\":10337:10357   */\n      tag_295\n        /* \"#utility.yul\":10355:10356   */\n      dup4\n        /* \"#utility.yul\":10337:10357   */\n      tag_136\n      jump\t// in\n    tag_295:\n        /* \"#utility.yul\":10332:10357   */\n      swap3\n      pop\n        /* \"#utility.yul\":10491:10492   */\n      dup3\n        /* \"#utility.yul\":10423:10489   */\n      0xffffffffffffffffffffffffffffffffffffffffffffffffffffffffffffffff\n        /* \"#utility.yul\":10419:10493   */\n      sub\n        /* \"#utility.yul\":10416:10417   */\n      dup3\n        /* \"#utility.yul\":10413:10494   */\n      gt\n        /* \"#utility.yul\":10410:10517   */\n      iszero\n      tag_296\n      jumpi\n        /* \"#utility.yul\":10497:10515   */\n      tag_297\n      tag_166\n      jump\t// in\n    tag_297:\n        /* \"#utility.yul\":10410:10517   */\n    tag_296:\n        /* \"#utility.yul\":10541:10542   */\n      dup3\n        /* \"#utility.yul\":10538:10539   */\n      dup3\n        /* \"#utility.yul\":10534:10543   */\n      add\n        /* \"#utility.yul\":10527:10543   */\n      swap1\n      pop\n        /* \"#utility.yul\":10244:10549   */\n      swap3\n      swap2\n      pop\n      pop\n      jump\t// out\n        /* \"#utility.yul\":10555:10716   */\n    tag_167:\n        /* \"#utility.yul\":10695:10708   */\n      0x54696d6520706173736564000000000000000000000000000000000000000000\n        /* \"#utility.yul\":10691:10692   */\n      0x00\n        /* \"#utility.yul\":10683:10689   */\n      dup3\n        /* \"#utility.yul\":10679:10693   */\n      add\n        /* \"#utility.yul\":10672:10709   */\n      mstore\n        /* \"#utility.yul\":10555:10716   */\n      pop\n      jump\t// out\n        /* \"#utility.yul\":10722:11088   */\n    tag_168:\n        /* \"#utility.yul\":10864:10867   */\n      0x00\n        /* \"#utility.yul\":10885:10952   */\n      tag_300\n        /* \"#utility.yul\":10949:10951   */\n      0x0b\n        /* \"#utility.yul\":10944:10947   */\n      dup4\n        /* \"#utility.yul\":10885:10952   */\n      tag_157\n      jump\t// in\n    tag_300:\n        /* \"#utility.yul\":10878:10952   */\n      swap2\n      pop\n        /* \"#utility.yul\":10961:11054   */\n      tag_301\n        /* \"#utility.yul\":11050:11053   */\n      dup3\n        /* \"#utility.yul\":10961:11054   */\n      tag_167\n      jump\t// in\n    tag_301:\n        /* \"#utility.yul\":11079:11081   */\n      0x20\n        /* \"#utility.yul\":11074:11077   */\n      dup3\n        /* \"#utility.yul\":11070:11082   */\n      add\n        /* \"#utility.yul\":11063:11082   */\n      swap1\n      pop\n        /* \"#utility.yul\":10722:11088   */\n      swap2\n      swap1\n      pop\n      jump\t// out\n        /* \"#utility.yul\":11094:11513   */\n    tag_92:\n        /* \"#utility.yul\":11260:11264   */\n      0x00\n        /* \"#utility.yul\":11298:11300   */\n      0x20\n        /* \"#utility.yul\":11287:11296   */\n      dup3\n        /* \"#utility.yul\":11283:11301   */\n      add\n        /* \"#utility.yul\":11275:11301   */\n      swap1\n      pop\n        /* \"#utility.yul\":11347:11356   */\n      dup2\n        /* \"#utility.yul\":11341:11345   */\n      dup2\n        /* \"#utility.yul\":11337:11357   */\n      sub\n        /* \"#utility.yul\":11333:11334   */\n      0x00\n        /* \"#utility.yul\":11322:11331   */\n      dup4\n        /* \"#utility.yul\":11318:11335   */\n      add\n        /* \"#utility.yul\":11311:11358   */\n      mstore\n        /* \"#utility.yul\":11375:11506   */\n      tag_303\n        /* \"#utility.yul\":11501:11505   */\n      dup2\n        /* \"#utility.yul\":11375:11506   */\n      tag_168\n      jump\t// in\n    tag_303:\n        /* \"#utility.yul\":11367:11506   */\n      swap1\n      pop\n        /* \"#utility.yul\":11094:11513   */\n      swap2\n      swap1\n      pop\n      jump\t// out\n        /* \"#utility.yul\":11519:11710   */\n    tag_98:\n        /* \"#utility.yul\":11559:11563   */\n      0x00\n        /* \"#utility.yul\":11579:11599   */\n      tag_305\n        /* \"#utility.yul\":11597:11598   */\n      dup3\n        /* \"#utility.yul\":11579:11599   */\n      tag_136\n      jump\t// in\n    tag_305:\n        /* \"#utility.yul\":11574:11599   */\n      swap2\n      pop\n        /* \"#utility.yul\":11613:11633   */\n      tag_306\n        /* \"#utility.yul\":11631:11632   */\n      dup4\n        /* \"#utility.yul\":11613:11633   */\n      tag_136\n      jump\t// in\n    tag_306:\n        /* \"#utility.yul\":11608:11633   */\n      swap3\n      pop\n        /* \"#utility.yul\":11652:11653   */\n      dup3\n        /* \"#utility.yul\":11649:11650   */\n      dup3\n        /* \"#utility.yul\":11646:11654   */\n      lt\n        /* \"#utility.yul\":11643:11677   */\n      iszero\n      tag_307\n      jumpi\n        /* \"#utility.yul\":11657:11675   */\n      tag_308\n      tag_166\n      jump\t// in\n    tag_308:\n        /* \"#utility.yul\":11643:11677   */\n    tag_307:\n        /* \"#utility.yul\":11702:11703   */\n      dup3\n        /* \"#utility.yul\":11699:11700   */\n      dup3\n        /* \"#utility.yul\":11695:11704   */\n      sub\n        /* \"#utility.yul\":11687:11704   */\n      swap1\n      pop\n        /* \"#utility.yul\":11519:11710   */\n      swap3\n      swap2\n      pop\n      pop\n      jump\t// out\n        /* \"#utility.yul\":11716:11896   */\n    tag_169:\n        /* \"#utility.yul\":11764:11841   */\n      0x4e487b7100000000000000000000000000000000000000000000000000000000\n        /* \"#utility.yul\":11761:11762   */\n      0x00\n        /* \"#utility.yul\":11754:11842   */\n      mstore\n        /* \"#utility.yul\":11861:11865   */\n      0x22\n        /* \"#utility.yul\":11858:11859   */\n      0x04\n        /* \"#utility.yul\":11851:11866   */\n      mstore\n        /* \"#utility.yul\":11885:11889   */\n      0x24\n        /* \"#utility.yul\":11882:11883   */\n      0x00\n        /* \"#utility.yul\":11875:11890   */\n      revert\n        /* \"#utility.yul\":11902:12222   */\n    tag_110:\n        /* \"#utility.yul\":11946:11952   */\n      0x00\n        /* \"#utility.yul\":11983:11984   */\n      0x02\n        /* \"#utility.yul\":11977:11981   */\n      dup3\n        /* \"#utility.yul\":11973:11985   */\n      div\n        /* \"#utility.yul\":11963:11985   */\n      swap1\n      pop\n        /* \"#utility.yul\":12030:12031   */\n      0x01\n        /* \"#utility.yul\":12024:12028   */\n      dup3\n        /* \"#utility.yul\":12020:12032   */\n      and\n        /* \"#utility.yul\":12051:12069   */\n      dup1\n        /* \"#utility.yul\":12041:12122   */\n      tag_311\n      jumpi\n        /* \"#utility.yul\":12107:12111   */\n      0x7f\n        /* \"#utility.yul\":12099:12105   */\n      dup3\n        /* \"#utility.yul\":12095:12112   */\n      and\n        /* \"#utility.yul\":12085:12112   */\n      swap2\n      pop\n        /* \"#utility.yul\":12041:12122   */\n    tag_311:\n        /* \"#utility.yul\":12169:12171   */\n      0x20\n        /* \"#utility.yul\":12161:12167   */\n      dup3\n        /* \"#utility.yul\":12158:12172   */\n      lt\n        /* \"#utility.yul\":12138:12156   */\n      dup2\n        /* \"#utility.yul\":12135:12173   */\n      sub\n        /* \"#utility.yul\":12132:12216   */\n      tag_312\n      jumpi\n        /* \"#utility.yul\":12188:12206   */\n      tag_313\n      tag_169\n      jump\t// in\n    tag_313:\n        /* \"#utility.yul\":12132:12216   */\n    tag_312:\n        /* \"#utility.yul\":11953:12222   */\n      pop\n        /* \"#utility.yul\":11902:12222   */\n      swap2\n      swap1\n      pop\n      jump\t// out\n        /* \"#utility.yul\":12228:12369   */\n    tag_170:\n        /* \"#utility.yul\":12277:12281   */\n      0x00\n        /* \"#utility.yul\":12300:12303   */\n      dup2\n        /* \"#utility.yul\":12292:12303   */\n      swap1\n      pop\n        /* \"#utility.yul\":12323:12326   */\n      dup2\n        /* \"#utility.yul\":12320:12321   */\n      0x00\n        /* \"#utility.yul\":12313:12327   */\n      mstore\n        /* \"#utility.yul\":12357:12361   */\n      0x20\n        /* \"#utility.yul\":12354:12355   */\n      0x00\n        /* \"#utility.yul\":12344:12362   */\n      keccak256\n        /* \"#utility.yul\":12336:12362   */\n      swap1\n      pop\n        /* \"#utility.yul\":12228:12369   */\n      swap2\n      swap1\n      pop\n      jump\t// out\n        /* \"#utility.yul\":12375:12468   */\n    tag_171:\n        /* \"#utility.yul\":12412:12418   */\n      0x00\n        /* \"#utility.yul\":12459:12461   */\n      0x20\n        /* \"#utility.yul\":12454:12456   */\n      0x1f\n        /* \"#utility.yul\":12447:12452   */\n      dup4\n        /* \"#utility.yul\":12443:12457   */\n      add\n        /* \"#utility.yul\":12439:12462   */\n      div\n        /* \"#utility.yul\":12429:12462   */\n      swap1\n      pop\n        /* \"#utility.yul\":12375:12468   */\n      swap2\n      swap1\n      pop\n      jump\t// out\n        /* \"#utility.yul\":12474:12581   */\n    tag_172:\n        /* \"#utility.yul\":12518:12526   */\n      0x00\n        /* \"#utility.yul\":12568:12573   */\n      dup3\n        /* \"#utility.yul\":12562:12566   */\n      dup3\n        /* \"#utility.yul\":12558:12574   */\n      shl\n        /* \"#utility.yul\":12537:12574   */\n      swap1\n      pop\n        /* \"#utility.yul\":12474:12581   */\n      swap3\n      swap2\n      pop\n      pop\n      jump\t// out\n        /* \"#utility.yul\":12587:12980   */\n    tag_173:\n        /* \"#utility.yul\":12656:12662   */\n      0x00\n        /* \"#utility.yul\":12706:12707   */\n      0x08\n        /* \"#utility.yul\":12694:12704   */\n      dup4\n        /* \"#utility.yul\":12690:12708   */\n      mul\n        /* \"#utility.yul\":12729:12826   */\n      tag_318\n        /* \"#utility.yul\":12759:12825   */\n      0xffffffffffffffffffffffffffffffffffffffffffffffffffffffffffffffff\n        /* \"#utility.yul\":12748:12757   */\n      dup3\n        /* \"#utility.yul\":12729:12826   */\n      tag_172\n      jump\t// in\n    tag_318:\n        /* \"#utility.yul\":12847:12886   */\n      tag_319\n        /* \"#utility.yul\":12877:12885   */\n      dup7\n        /* \"#utility.yul\":12866:12875   */\n      dup4\n        /* \"#utility.yul\":12847:12886   */\n      tag_172\n      jump\t// in\n    tag_319:\n        /* \"#utility.yul\":12835:12886   */\n      swap6\n      pop\n        /* \"#utility.yul\":12919:12923   */\n      dup1\n        /* \"#utility.yul\":12915:12924   */\n      not\n        /* \"#utility.yul\":12908:12913   */\n      dup5\n        /* \"#utility.yul\":12904:12925   */\n      and\n        /* \"#utility.yul\":12895:12925   */\n      swap4\n      pop\n        /* \"#utility.yul\":12968:12972   */\n      dup1\n        /* \"#utility.yul\":12958:12966   */\n      dup7\n        /* \"#utility.yul\":12954:12973   */\n      and\n        /* \"#utility.yul\":12947:12952   */\n      dup5\n        /* \"#utility.yul\":12944:12974   */\n      or\n        /* \"#utility.yul\":12934:12974   */\n      swap3\n      pop\n        /* \"#utility.yul\":12663:12980   */\n      pop\n      pop\n        /* \"#utility.yul\":12587:12980   */\n      swap4\n      swap3\n      pop\n      pop\n      pop\n      jump\t// out\n        /* \"#utility.yul\":12986:13046   */\n    tag_174:\n        /* \"#utility.yul\":13014:13017   */\n      0x00\n        /* \"#utility.yul\":13035:13040   */\n      dup2\n        /* \"#utility.yul\":13028:13040   */\n      swap1\n      pop\n        /* \"#utility.yul\":12986:13046   */\n      swap2\n      swap1\n      pop\n      jump\t// out\n        /* \"#utility.yul\":13052:13194   */\n    tag_175:\n        /* \"#utility.yul\":13102:13111   */\n      0x00\n        /* \"#utility.yul\":13135:13188   */\n      tag_322\n        /* \"#utility.yul\":13153:13187   */\n      tag_323\n        /* \"#utility.yul\":13162:13186   */\n      tag_324\n        /* \"#utility.yul\":13180:13185   */\n      dup5\n        /* \"#utility.yul\":13162:13186   */\n      tag_136\n      jump\t// in\n    tag_324:\n        /* \"#utility.yul\":13153:13187   */\n      tag_174\n      jump\t// in\n    tag_323:\n        /* \"#utility.yul\":13135:13188   */\n      tag_136\n      jump\t// in\n    tag_322:\n        /* \"#utility.yul\":13122:13188   */\n      swap1\n      pop\n        /* \"#utility.yul\":13052:13194   */\n      swap2\n      swap1\n      pop\n      jump\t// out\n        /* \"#utility.yul\":13200:13275   */\n    tag_176:\n        /* \"#utility.yul\":13243:13246   */\n      0x00\n        /* \"#utility.yul\":13264:13269   */\n      dup2\n        /* \"#utility.yul\":13257:13269   */\n      swap1\n      pop\n        /* \"#utility.yul\":13200:13275   */\n      swap2\n      swap1\n      pop\n      jump\t// out\n        /* \"#utility.yul\":13281:13550   */\n    tag_177:\n        /* \"#utility.yul\":13391:13430   */\n      tag_327\n        /* \"#utility.yul\":13422:13429   */\n      dup4\n        /* \"#utility.yul\":13391:13430   */\n      tag_175\n      jump\t// in\n    tag_327:\n        /* \"#utility.yul\":13452:13543   */\n      tag_328\n        /* \"#utility.yul\":13501:13542   */\n      tag_329\n        /* \"#utility.yul\":13525:13541   */\n      dup3\n        /* \"#utility.yul\":13501:13542   */\n      tag_176\n      jump\t// in\n    tag_329:\n        /* \"#utility.yul\":13493:13499   */\n      dup5\n        /* \"#utility.yul\":13486:13490   */\n      dup5\n        /* \"#utility.yul\":13480:13491   */\n      sload\n        /* \"#utility.yul\":13452:13543   */\n      tag_173\n      jump\t// in\n    tag_328:\n        /* \"#utility.yul\":13446:13450   */\n      dup3\n        /* \"#utility.yul\":13439:13544   */\n      sstore\n        /* \"#utility.yul\":13357:13550   */\n      pop\n        /* \"#utility.yul\":13281:13550   */\n      pop\n      pop\n      pop\n      jump\t// out\n        /* \"#utility.yul\":13556:13629   */\n    tag_178:\n        /* \"#utility.yul\":13601:13604   */\n      0x00\n        /* \"#utility.yul\":13556:13629   */\n      swap1\n      jump\t// out\n        /* \"#utility.yul\":13635:13824   */\n    tag_179:\n        /* \"#utility.yul\":13712:13744   */\n      tag_332\n      tag_178\n      jump\t// in\n    tag_332:\n        /* \"#utility.yul\":13753:13818   */\n      tag_333\n        /* \"#utility.yul\":13811:13817   */\n      dup2\n        /* \"#utility.yul\":13803:13809   */\n      dup5\n        /* \"#utility.yul\":13797:13801   */\n      dup5\n        /* \"#utility.yul\":13753:13818   */\n      tag_177\n      jump\t// in\n    tag_333:\n        /* \"#utility.yul\":13688:13824   */\n      pop\n        /* \"#utility.yul\":13635:13824   */\n      pop\n      pop\n      jump\t// out\n        /* \"#utility.yul\":13830:14016   */\n    tag_180:\n        /* \"#utility.yul\":13890:14010   */\n    tag_335:\n        /* \"#utility.yul\":13907:13910   */\n      dup2\n        /* \"#utility.yul\":13900:13905   */\n      dup2\n        /* \"#utility.yul\":13897:13911   */\n      lt\n        /* \"#utility.yul\":13890:14010   */\n      iszero\n      tag_337\n      jumpi\n        /* \"#utility.yul\":13961:14000   */\n      tag_338\n        /* \"#utility.yul\":13998:13999   */\n      0x00\n        /* \"#utility.yul\":13991:13996   */\n      dup3\n        /* \"#utility.yul\":13961:14000   */\n      tag_179\n      jump\t// in\n    tag_338:\n        /* \"#utility.yul\":13934:13935   */\n      0x01\n        /* \"#utility.yul\":13927:13932   */\n      dup2\n        /* \"#utility.yul\":13923:13936   */\n      add\n        /* \"#utility.yul\":13914:13936   */\n      swap1\n      pop\n        /* \"#utility.yul\":13890:14010   */\n      jump(tag_335)\n    tag_337:\n        /* \"#utility.yul\":13830:14016   */\n      pop\n      pop\n      jump\t// out\n        /* \"#utility.yul\":14022:14565   */\n    tag_181:\n        /* \"#utility.yul\":14123:14125   */\n      0x1f\n        /* \"#utility.yul\":14118:14121   */\n      dup3\n        /* \"#utility.yul\":14115:14126   */\n      gt\n        /* \"#utility.yul\":14112:14558   */\n      iszero\n      tag_340\n      jumpi\n        /* \"#utility.yul\":14157:14195   */\n      tag_341\n        /* \"#utility.yul\":14189:14194   */\n      dup2\n        /* \"#utility.yul\":14157:14195   */\n      tag_170\n      jump\t// in\n    tag_341:\n        /* \"#utility.yul\":14241:14270   */\n      tag_342\n        /* \"#utility.yul\":14259:14269   */\n      dup5\n        /* \"#utility.yul\":14241:14270   */\n      tag_171\n      jump\t// in\n    tag_342:\n        /* \"#utility.yul\":14231:14239   */\n      dup2\n        /* \"#utility.yul\":14227:14271   */\n      add\n        /* \"#utility.yul\":14424:14426   */\n      0x20\n        /* \"#utility.yul\":14412:14422   */\n      dup6\n        /* \"#utility.yul\":14409:14427   */\n      lt\n        /* \"#utility.yul\":14406:14455   */\n      iszero\n      tag_343\n      jumpi\n        /* \"#utility.yul\":14445:14453   */\n      dup2\n        /* \"#utility.yul\":14430:14453   */\n      swap1\n      pop\n        /* \"#utility.yul\":14406:14455   */\n    tag_343:\n        /* \"#utility.yul\":14468:14548   */\n      tag_344\n        /* \"#utility.yul\":14524:14546   */\n      tag_345\n        /* \"#utility.yul\":14542:14545   */\n      dup6\n        /* \"#utility.yul\":14524:14546   */\n      tag_171\n      jump\t// in\n    tag_345:\n        /* \"#utility.yul\":14514:14522   */\n      dup4\n        /* \"#utility.yul\":14510:14547   */\n      add\n        /* \"#utility.yul\":14497:14508   */\n      dup3\n        /* \"#utility.yul\":14468:14548   */\n      tag_180\n      jump\t// in\n    tag_344:\n        /* \"#utility.yul\":14127:14558   */\n      pop\n      pop\n        /* \"#utility.yul\":14112:14558   */\n    tag_340:\n        /* \"#utility.yul\":14022:14565   */\n      pop\n      pop\n      pop\n      jump\t// out\n        /* \"#utility.yul\":14571:14688   */\n    tag_182:\n        /* \"#utility.yul\":14625:14633   */\n      0x00\n        /* \"#utility.yul\":14675:14680   */\n      dup3\n        /* \"#utility.yul\":14669:14673   */\n      dup3\n        /* \"#utility.yul\":14665:14681   */\n      shr\n        /* \"#utility.yul\":14644:14681   */\n      swap1\n      pop\n        /* \"#utility.yul\":14571:14688   */\n      swap3\n      swap2\n      pop\n      pop\n      jump\t// out\n        /* \"#utility.yul\":14694:14863   */\n    tag_183:\n        /* \"#utility.yul\":14738:14744   */\n      0x00\n        /* \"#utility.yul\":14771:14822   */\n      tag_348\n        /* \"#utility.yul\":14819:14820   */\n      0x00\n        /* \"#utility.yul\":14815:14821   */\n      not\n        /* \"#utility.yul\":14807:14812   */\n      dup5\n        /* \"#utility.yul\":14804:14805   */\n      0x08\n        /* \"#utility.yul\":14800:14813   */\n      mul\n        /* \"#utility.yul\":14771:14822   */\n      tag_182\n      jump\t// in\n    tag_348:\n        /* \"#utility.yul\":14767:14823   */\n      not\n        /* \"#utility.yul\":14852:14856   */\n      dup1\n        /* \"#utility.yul\":14846:14850   */\n      dup4\n        /* \"#utility.yul\":14842:14857   */\n      and\n        /* \"#utility.yul\":14832:14857   */\n      swap2\n      pop\n        /* \"#utility.yul\":14745:14863   */\n      pop\n        /* \"#utility.yul\":14694:14863   */\n      swap3\n      swap2\n      pop\n      pop\n      jump\t// out\n        /* \"#utility.yul\":14868:15163   */\n    tag_184:\n        /* \"#utility.yul\":14944:14948   */\n      0x00\n        /* \"#utility.yul\":15090:15119   */\n      tag_350\n        /* \"#utility.yul\":15115:15118   */\n      dup4\n        /* \"#utility.yul\":15109:15113   */\n      dup4\n        /* \"#utility.yul\":15090:15119   */\n      tag_183\n      jump\t// in\n    tag_350:\n        /* \"#utility.yul\":15082:15119   */\n      swap2\n      pop\n        /* \"#utility.yul\":15152:15155   */\n      dup3\n        /* \"#utility.yul\":15149:15150   */\n      0x02\n        /* \"#utility.yul\":15145:15156   */\n      mul\n        /* \"#utility.yul\":15139:15143   */\n      dup3\n        /* \"#utility.yul\":15136:15157   */\n      or\n        /* \"#utility.yul\":15128:15157   */\n      swap1\n      pop\n        /* \"#utility.yul\":14868:15163   */\n      swap3\n      swap2\n      pop\n      pop\n      jump\t// out\n        /* \"#utility.yul\":15168:16563   */\n    tag_101:\n        /* \"#utility.yul\":15285:15322   */\n      tag_352\n        /* \"#utility.yul\":15318:15321   */\n      dup3\n        /* \"#utility.yul\":15285:15322   */\n      tag_156\n      jump\t// in\n    tag_352:\n        /* \"#utility.yul\":15387:15405   */\n      0xffffffffffffffff\n        /* \"#utility.yul\":15379:15385   */\n      dup2\n        /* \"#utility.yul\":15376:15406   */\n      gt\n        /* \"#utility.yul\":15373:15429   */\n      iszero\n      tag_353\n      jumpi\n        /* \"#utility.yul\":15409:15427   */\n      tag_354\n      tag_147\n      jump\t// in\n    tag_354:\n        /* \"#utility.yul\":15373:15429   */\n    tag_353:\n        /* \"#utility.yul\":15453:15491   */\n      tag_355\n        /* \"#utility.yul\":15485:15489   */\n      dup3\n        /* \"#utility.yul\":15479:15490   */\n      sload\n        /* \"#utility.yul\":15453:15491   */\n      tag_110\n      jump\t// in\n    tag_355:\n        /* \"#utility.yul\":15538:15605   */\n      tag_356\n        /* \"#utility.yul\":15598:15604   */\n      dup3\n        /* \"#utility.yul\":15590:15596   */\n      dup3\n        /* \"#utility.yul\":15584:15588   */\n      dup6\n        /* \"#utility.yul\":15538:15605   */\n      tag_181\n      jump\t// in\n    tag_356:\n        /* \"#utility.yul\":15632:15633   */\n      0x00\n        /* \"#utility.yul\":15656:15660   */\n      0x20\n        /* \"#utility.yul\":15643:15660   */\n      swap1\n      pop\n        /* \"#utility.yul\":15688:15690   */\n      0x1f\n        /* \"#utility.yul\":15680:15686   */\n      dup4\n        /* \"#utility.yul\":15677:15691   */\n      gt\n        /* \"#utility.yul\":15705:15706   */\n      0x01\n        /* \"#utility.yul\":15700:16318   */\n      dup2\n      eq\n      tag_358\n      jumpi\n        /* \"#utility.yul\":16362:16363   */\n      0x00\n        /* \"#utility.yul\":16379:16385   */\n      dup5\n        /* \"#utility.yul\":16376:16453   */\n      iszero\n      tag_359\n      jumpi\n        /* \"#utility.yul\":16428:16437   */\n      dup3\n        /* \"#utility.yul\":16423:16426   */\n      dup8\n        /* \"#utility.yul\":16419:16438   */\n      add\n        /* \"#utility.yul\":16413:16439   */\n      mload\n        /* \"#utility.yul\":16404:16439   */\n      swap1\n      pop\n        /* \"#utility.yul\":16376:16453   */\n    tag_359:\n        /* \"#utility.yul\":16479:16546   */\n      tag_360\n        /* \"#utility.yul\":16539:16545   */\n      dup6\n        /* \"#utility.yul\":16532:16537   */\n      dup3\n        /* \"#utility.yul\":16479:16546   */\n      tag_184\n      jump\t// in\n    tag_360:\n        /* \"#utility.yul\":16473:16477   */\n      dup7\n        /* \"#utility.yul\":16466:16547   */\n      sstore\n        /* \"#utility.yul\":16335:16557   */\n      pop\n        /* \"#utility.yul\":15670:16557   */\n      jump(tag_357)\n        /* \"#utility.yul\":15700:16318   */\n    tag_358:\n        /* \"#utility.yul\":15752:15756   */\n      0x1f\n        /* \"#utility.yul\":15748:15757   */\n      not\n        /* \"#utility.yul\":15740:15746   */\n      dup5\n        /* \"#utility.yul\":15736:15758   */\n      and\n        /* \"#utility.yul\":15786:15823   */\n      tag_361\n        /* \"#utility.yul\":15818:15822   */\n      dup7\n        /* \"#utility.yul\":15786:15823   */\n      tag_170\n      jump\t// in\n    tag_361:\n        /* \"#utility.yul\":15845:15846   */\n      0x00\n        /* \"#utility.yul\":15859:16067   */\n    tag_362:\n        /* \"#utility.yul\":15873:15880   */\n      dup3\n        /* \"#utility.yul\":15870:15871   */\n      dup2\n        /* \"#utility.yul\":15867:15881   */\n      lt\n        /* \"#utility.yul\":15859:16067   */\n      iszero\n      tag_364\n      jumpi\n        /* \"#utility.yul\":15952:15961   */\n      dup5\n        /* \"#utility.yul\":15947:15950   */\n      dup10\n        /* \"#utility.yul\":15943:15962   */\n      add\n        /* \"#utility.yul\":15937:15963   */\n      mload\n        /* \"#utility.yul\":15929:15935   */\n      dup3\n        /* \"#utility.yul\":15922:15964   */\n      sstore\n        /* \"#utility.yul\":16003:16004   */\n      0x01\n        /* \"#utility.yul\":15995:16001   */\n      dup3\n        /* \"#utility.yul\":15991:16005   */\n      add\n        /* \"#utility.yul\":15981:16005   */\n      swap2\n      pop\n        /* \"#utility.yul\":16050:16052   */\n      0x20\n        /* \"#utility.yul\":16039:16048   */\n      dup6\n        /* \"#utility.yul\":16035:16053   */\n      add\n        /* \"#utility.yul\":16022:16053   */\n      swap5\n      pop\n        /* \"#utility.yul\":15896:15900   */\n      0x20\n        /* \"#utility.yul\":15893:15894   */\n      dup2\n        /* \"#utility.yul\":15889:15901   */\n      add\n        /* \"#utility.yul\":15884:15901   */\n      swap1\n      pop\n        /* \"#utility.yul\":15859:16067   */\n      jump(tag_362)\n    tag_364:\n        /* \"#utility.yul\":16095:16101   */\n      dup7\n        /* \"#utility.yul\":16086:16093   */\n      dup4\n        /* \"#utility.yul\":16083:16102   */\n      lt\n        /* \"#utility.yul\":16080:16259   */\n      iszero\n      tag_365\n      jumpi\n        /* \"#utility.yul\":16153:16162   */\n      dup5\n        /* \"#utility.yul\":16148:16151   */\n      dup10\n        /* \"#utility.yul\":16144:16163   */\n      add\n        /* \"#utility.yul\":16138:16164   */\n      mload\n        /* \"#utility.yul\":16196:16244   */\n      tag_366\n        /* \"#utility.yul\":16238:16242   */\n      0x1f\n        /* \"#utility.yul\":16230:16236   */\n      dup10\n        /* \"#utility.yul\":16226:16243   */\n      and\n        /* \"#utility.yul\":16215:16224   */\n      dup3\n        /* \"#utility.yul\":16196:16244   */\n      tag_183\n      jump\t// in\n    tag_366:\n        /* \"#utility.yul\":16188:16194   */\n      dup4\n        /* \"#utility.yul\":16181:16245   */\n      sstore\n        /* \"#utility.yul\":16103:16259   */\n      pop\n        /* \"#utility.yul\":16080:16259   */\n    tag_365:\n        /* \"#utility.yul\":16305:16306   */\n      0x01\n        /* \"#utility.yul\":16301:16302   */\n      0x02\n        /* \"#utility.yul\":16293:16299   */\n      dup9\n        /* \"#utility.yul\":16289:16303   */\n      mul\n        /* \"#utility.yul\":16285:16307   */\n      add\n        /* \"#utility.yul\":16279:16283   */\n      dup9\n        /* \"#utility.yul\":16272:16308   */\n      sstore\n        /* \"#utility.yul\":15707:16318   */\n      pop\n      pop\n      pop\n        /* \"#utility.yul\":15670:16557   */\n    tag_357:\n      pop\n        /* \"#utility.yul\":15260:16563   */\n      pop\n      pop\n      pop\n        /* \"#utility.yul\":15168:16563   */\n      pop\n      pop\n      jump\t// out\n        /* \"#utility.yul\":16569:16735   */\n    tag_185:\n        /* \"#utility.yul\":16709:16727   */\n      0x4e6f7420656e6f7567682066756e647300000000000000000000000000000000\n        /* \"#utility.yul\":16705:16706   */\n      0x00\n        /* \"#utility.yul\":16697:16703   */\n      dup3\n        /* \"#utility.yul\":16693:16707   */\n      add\n        /* \"#utility.yul\":16686:16728   */\n      mstore\n        /* \"#utility.yul\":16569:16735   */\n      pop\n      jump\t// out\n        /* \"#utility.yul\":16741:17107   */\n    tag_186:\n        /* \"#utility.yul\":16883:16886   */\n      0x00\n        /* \"#utility.yul\":16904:16971   */\n      tag_369\n        /* \"#utility.yul\":16968:16970   */\n      0x10\n        /* \"#utility.yul\":16963:16966   */\n      dup4\n        /* \"#utility.yul\":16904:16971   */\n      tag_157\n      jump\t// in\n    tag_369:\n        /* \"#utility.yul\":16897:16971   */\n      swap2\n      pop\n        /* \"#utility.yul\":16980:17073   */\n      tag_370\n        /* \"#utility.yul\":17069:17072   */\n      dup3\n        /* \"#utility.yul\":16980:17073   */\n      tag_185\n      jump\t// in\n    tag_370:\n        /* \"#utility.yul\":17098:17100   */\n      0x20\n        /* \"#utility.yul\":17093:17096   */\n      dup3\n        /* \"#utility.yul\":17089:17101   */\n      add\n        /* \"#utility.yul\":17082:17101   */\n      swap1\n      pop\n        /* \"#utility.yul\":16741:17107   */\n      swap2\n      swap1\n      pop\n      jump\t// out\n        /* \"#utility.yul\":17113:17532   */\n    tag_104:\n        /* \"#utility.yul\":17279:17283   */\n      0x00\n        /* \"#utility.yul\":17317:17319   */\n      0x20\n        /* \"#utility.yul\":17306:17315   */\n      dup3\n        /* \"#utility.yul\":17302:17320   */\n      add\n        /* \"#utility.yul\":17294:17320   */\n      swap1\n      pop\n        /* \"#utility.yul\":17366:17375   */\n      dup2\n        /* \"#utility.yul\":17360:17364   */\n      dup2\n        /* \"#utility.yul\":17356:17376   */\n      sub\n        /* \"#utility.yul\":17352:17353   */\n      0x00\n        /* \"#utility.yul\":17341:17350   */\n      dup4\n        /* \"#utility.yul\":17337:17354   */\n      add\n        /* \"#utility.yul\":17330:17377   */\n      mstore\n        /* \"#utility.yul\":17394:17525   */\n      tag_372\n        /* \"#utility.yul\":17520:17524   */\n      dup2\n        /* \"#utility.yul\":17394:17525   */\n      tag_186\n      jump\t// in\n    tag_372:\n        /* \"#utility.yul\":17386:17525   */\n      swap1\n      pop\n        /* \"#utility.yul\":17113:17532   */\n      swap2\n      swap1\n      pop\n      jump\t// out\n        /* \"#utility.yul\":17538:17708   */\n    tag_187:\n        /* \"#utility.yul\":17678:17700   */\n      0x4e6f2076616c6964206372656469742063617264000000000000000000000000\n        /* \"#utility.yul\":17674:17675   */\n      0x00\n        /* \"#utility.yul\":17666:17672   */\n      dup3\n        /* \"#utility.yul\":17662:17676   */\n      add\n        /* \"#utility.yul\":17655:17701   */\n      mstore\n        /* \"#utility.yul\":17538:17708   */\n      pop\n      jump\t// out\n        /* \"#utility.yul\":17714:18080   */\n    tag_188:\n        /* \"#utility.yul\":17856:17859   */\n      0x00\n        /* \"#utility.yul\":17877:17944   */\n      tag_375\n        /* \"#utility.yul\":17941:17943   */\n      0x14\n        /* \"#utility.yul\":17936:17939   */\n      dup4\n        /* \"#utility.yul\":17877:17944   */\n      tag_157\n      jump\t// in\n    tag_375:\n        /* \"#utility.yul\":17870:17944   */\n      swap2\n      pop\n        /* \"#utility.yul\":17953:18046   */\n      tag_376\n        /* \"#utility.yul\":18042:18045   */\n      dup3\n        /* \"#utility.yul\":17953:18046   */\n      tag_187\n      jump\t// in\n    tag_376:\n        /* \"#utility.yul\":18071:18073   */\n      0x20\n        /* \"#utility.yul\":18066:18069   */\n      dup3\n        /* \"#utility.yul\":18062:18074   */\n      add\n        /* \"#utility.yul\":18055:18074   */\n      swap1\n      pop\n        /* \"#utility.yul\":17714:18080   */\n      swap2\n      swap1\n      pop\n      jump\t// out\n        /* \"#utility.yul\":18086:18505   */\n    tag_115:\n        /* \"#utility.yul\":18252:18256   */\n      0x00\n        /* \"#utility.yul\":18290:18292   */\n      0x20\n        /* \"#utility.yul\":18279:18288   */\n      dup3\n        /* \"#utility.yul\":18275:18293   */\n      add\n        /* \"#utility.yul\":18267:18293   */\n      swap1\n      pop\n        /* \"#utility.yul\":18339:18348   */\n      dup2\n        /* \"#utility.yul\":18333:18337   */\n      dup2\n        /* \"#utility.yul\":18329:18349   */\n      sub\n        /* \"#utility.yul\":18325:18326   */\n      0x00\n        /* \"#utility.yul\":18314:18323   */\n      dup4\n        /* \"#utility.yul\":18310:18327   */\n      add\n        /* \"#utility.yul\":18303:18350   */\n      mstore\n        /* \"#utility.yul\":18367:18498   */\n      tag_378\n        /* \"#utility.yul\":18493:18497   */\n      dup2\n        /* \"#utility.yul\":18367:18498   */\n      tag_188\n      jump\t// in\n    tag_378:\n        /* \"#utility.yul\":18359:18498   */\n      swap1\n      pop\n        /* \"#utility.yul\":18086:18505   */\n      swap2\n      swap1\n      pop\n      jump\t// out\n\n    auxdata: 0xa2646970667358221220c0f9ad4f2cb7f49d6ca8eab906dc3abe1a5f64fca3d0762c935d8ea26e3e0f2164736f6c634300080f0033\n}\n",
				"bytecode": {
					"linkReferences": {},
					"object": "6080604052620151806003556000600f556000601060006101000a81548160ff0219169083151502179055503480156200003857600080fd5b50604051620013a9380380620013a983398181016040528101906200005e9190620000ac565b8060018190555050620000de565b600080fd5b6000819050919050565b620000868162000071565b81146200009257600080fd5b50565b600081519050620000a6816200007b565b92915050565b600060208284031215620000c557620000c46200006c565b5b6000620000d58482850162000095565b91505092915050565b6112bb80620000ee6000396000f3fe608060405234801561001057600080fd5b50600436106101005760003560e01c80637b9a3f4c1161009757806394b5dcaa1161006657806394b5dcaa14610267578063aa8c217c14610285578063bc309496146102a3578063e21f37ce146102c157610100565b80637b9a3f4c146102035780637eb9f571146102215780638e029c0b1461023f5780638fa118641461024957610100565b80633c626f00116100d35780633c626f001461017957806342fb7936146101975780634b28f9a2146101b557806373627826146101d357610100565b8063062a7544146101055780630e85fa721461012157806312a029a41461013f57806334f5ccde1461015b575b600080fd5b61011f600480360381019061011a9190610931565b6102df565b005b6101296105c1565b6040516101369190610980565b60405180910390f35b61015960048036038101906101549190610ae1565b6105c7565b005b610163610678565b6040516101709190610980565b60405180910390f35b61018161067e565b60405161018e9190610b74565b60405180910390f35b61019f610691565b6040516101ac9190610c17565b60405180910390f35b6101bd61071f565b6040516101ca9190610980565b60405180910390f35b6101ed60048036038101906101e89190610c39565b610725565b6040516101fa9190610980565b60405180910390f35b61020b610732565b6040516102189190610980565b60405180910390f35b610229610738565b6040516102369190610980565b60405180910390f35b61024761073e565b005b61025161075b565b60405161025e9190610c17565b60405180910390f35b61026f6107e9565b60405161027c9190610980565b60405180910390f35b61028d6107ef565b60405161029a9190610980565b60405180910390f35b6102ab6107f5565b6040516102b89190610980565b60405180910390f35b6102c96107fb565b6040516102d69190610c17565b60405180910390f35b8080600260006101000a81548173ffffffffffffffffffffffffffffffffffffffff021916908373ffffffffffffffffffffffffffffffffffffffff160217905550600073ffffffffffffffffffffffffffffffffffffffff168173ffffffffffffffffffffffffffffffffffffffff1603610390576040517f08c379a000000000000000000000000000000000000000000000000000000000815260040161038790610cb2565b60405180910390fd5b60001515601060009054906101000a900460ff161515036103e6576040517f08c379a00000000000000000000000000000000000000000000000000000000081526004016103dd90610d1e565b60405180910390fd5b6109c4600c54111561042d576040517f08c379a000000000000000000000000000000000000000000000000000000000815260040161042490610d8a565b60405180910390fd5b42600d81905550603c600d546104439190610dd9565b421115610485576040517f08c379a000000000000000000000000000000000000000000000000000000000815260040161047c90610e7b565b60405180910390fd5b81600260006101000a81548173ffffffffffffffffffffffffffffffffffffffff021916908373ffffffffffffffffffffffffffffffffffffffff160217905550826000819055506001600f60008282546104e09190610dd9565b9250508190555060006001541180156104fc5750600054600154115b1561058157600054600160008282546105159190610e9b565b92505081905550600054600c60008282546105309190610dd9565b925050819055506040518060400160405280601281526020017f5472616e7366657220636f6d706c6574656400000000000000000000000000008152506009908161057b91906110db565b506105bc565b6040517f08c379a00000000000000000000000000000000000000000000000000000000081526004016105b3906111f9565b60405180910390fd5b505050565b600d5481565b81600a90816105d691906110db565b5080600b90816105e691906110db565b506001601060006101000a81548160ff02191690831515021790555042600d819055506008600a805461061890610efe565b905014801561063557506003600b805461063190610efe565b9050145b610674576040517f08c379a000000000000000000000000000000000000000000000000000000000815260040161066b90611265565b60405180910390fd5b5050565b600e5481565b601060009054906101000a900460ff1681565b600b805461069e90610efe565b80601f01602080910402602001604051908101604052809291908181526020018280546106ca90610efe565b80156107175780601f106106ec57610100808354040283529160200191610717565b820191906000526020600020905b8154815290600101906020018083116106fa57829003601f168201915b505050505081565b600f5481565b6000429150819050919050565b60015481565b600c5481565b6000601060006101000a81548160ff021916908315150217905550565b600a805461076890610efe565b80601f016020809104026020016040519081016040528092919081815260200182805461079490610efe565b80156107e15780601f106107b6576101008083540402835291602001916107e1565b820191906000526020600020905b8154815290600101906020018083116107c457829003601f168201915b505050505081565b60045481565b60005481565b60085481565b6009805461080890610efe565b80601f016020809104026020016040519081016040528092919081815260200182805461083490610efe565b80156108815780601f1061085657610100808354040283529160200191610881565b820191906000526020600020905b81548152906001019060200180831161086457829003601f168201915b505050505081565b6000604051905090565b600080fd5b600080fd5b6000819050919050565b6108b08161089d565b81146108bb57600080fd5b50565b6000813590506108cd816108a7565b92915050565b600073ffffffffffffffffffffffffffffffffffffffff82169050919050565b60006108fe826108d3565b9050919050565b61090e816108f3565b811461091957600080fd5b50565b60008135905061092b81610905565b92915050565b6000806040838503121561094857610947610893565b5b6000610956858286016108be565b92505060206109678582860161091c565b9150509250929050565b61097a8161089d565b82525050565b60006020820190506109956000830184610971565b92915050565b600080fd5b600080fd5b6000601f19601f8301169050919050565b7f4e487b7100000000000000000000000000000000000000000000000000000000600052604160045260246000fd5b6109ee826109a5565b810181811067ffffffffffffffff82111715610a0d57610a0c6109b6565b5b80604052505050565b6000610a20610889565b9050610a2c82826109e5565b919050565b600067ffffffffffffffff821115610a4c57610a4b6109b6565b5b610a55826109a5565b9050602081019050919050565b82818337600083830152505050565b6000610a84610a7f84610a31565b610a16565b905082815260208101848484011115610aa057610a9f6109a0565b5b610aab848285610a62565b509392505050565b600082601f830112610ac857610ac761099b565b5b8135610ad8848260208601610a71565b91505092915050565b60008060408385031215610af857610af7610893565b5b600083013567ffffffffffffffff811115610b1657610b15610898565b5b610b2285828601610ab3565b925050602083013567ffffffffffffffff811115610b4357610b42610898565b5b610b4f85828601610ab3565b9150509250929050565b60008115159050919050565b610b6e81610b59565b82525050565b6000602082019050610b896000830184610b65565b92915050565b600081519050919050565b600082825260208201905092915050565b60005b83811015610bc9578082015181840152602081019050610bae565b83811115610bd8576000848401525b50505050565b6000610be982610b8f565b610bf38185610b9a565b9350610c03818560208601610bab565b610c0c816109a5565b840191505092915050565b60006020820190508181036000830152610c318184610bde565b905092915050565b600060208284031215610c4f57610c4e610893565b5b6000610c5d848285016108be565b91505092915050565b7f2054686973206164647265737320646f65736e27742065786973747300000000600082015250565b6000610c9c601c83610b9a565b9150610ca782610c66565b602082019050919050565b60006020820190508181036000830152610ccb81610c8f565b9050919050565b7f506c6561736520696e7365727420796f75722063617264000000000000000000600082015250565b6000610d08601783610b9a565b9150610d1382610cd2565b602082019050919050565b60006020820190508181036000830152610d3781610cfb565b9050919050565b7f596f75207265616368656420746865206c696d69740000000000000000000000600082015250565b6000610d74601583610b9a565b9150610d7f82610d3e565b602082019050919050565b60006020820190508181036000830152610da381610d67565b9050919050565b7f4e487b7100000000000000000000000000000000000000000000000000000000600052601160045260246000fd5b6000610de48261089d565b9150610def8361089d565b9250827fffffffffffffffffffffffffffffffffffffffffffffffffffffffffffffffff03821115610e2457610e23610daa565b5b828201905092915050565b7f54696d6520706173736564000000000000000000000000000000000000000000600082015250565b6000610e65600b83610b9a565b9150610e7082610e2f565b602082019050919050565b60006020820190508181036000830152610e9481610e58565b9050919050565b6000610ea68261089d565b9150610eb18361089d565b925082821015610ec457610ec3610daa565b5b828203905092915050565b7f4e487b7100000000000000000000000000000000000000000000000000000000600052602260045260246000fd5b60006002820490506001821680610f1657607f821691505b602082108103610f2957610f28610ecf565b5b50919050565b60008190508160005260206000209050919050565b60006020601f8301049050919050565b600082821b905092915050565b600060088302610f917fffffffffffffffffffffffffffffffffffffffffffffffffffffffffffffffff82610f54565b610f9b8683610f54565b95508019841693508086168417925050509392505050565b6000819050919050565b6000610fd8610fd3610fce8461089d565b610fb3565b61089d565b9050919050565b6000819050919050565b610ff283610fbd565b611006610ffe82610fdf565b848454610f61565b825550505050565b600090565b61101b61100e565b611026818484610fe9565b505050565b5b8181101561104a5761103f600082611013565b60018101905061102c565b5050565b601f82111561108f5761106081610f2f565b61106984610f44565b81016020851015611078578190505b61108c61108485610f44565b83018261102b565b50505b505050565b600082821c905092915050565b60006110b260001984600802611094565b1980831691505092915050565b60006110cb83836110a1565b9150826002028217905092915050565b6110e482610b8f565b67ffffffffffffffff8111156110fd576110fc6109b6565b5b6111078254610efe565b61111282828561104e565b600060209050601f8311600181146111455760008415611133578287015190505b61113d85826110bf565b8655506111a5565b601f19841661115386610f2f565b60005b8281101561117b57848901518255600182019150602085019450602081019050611156565b868310156111985784890151611194601f8916826110a1565b8355505b6001600288020188555050505b505050505050565b7f4e6f7420656e6f7567682066756e647300000000000000000000000000000000600082015250565b60006111e3601083610b9a565b91506111ee826111ad565b602082019050919050565b60006020820190508181036000830152611212816111d6565b9050919050565b7f4e6f2076616c6964206372656469742063617264000000000000000000000000600082015250565b600061124f601483610b9a565b915061125a82611219565b602082019050919050565b6000602082019050818103600083015261127e81611242565b905091905056fea2646970667358221220c0f9ad4f2cb7f49d6ca8eab906dc3abe1a5f64fca3d0762c935d8ea26e3e0f2164736f6c634300080f0033",
					"opcodes": "PUSH1 0x80 PUSH1 0x40 MSTORE PUSH3 0x15180 PUSH1 0x3 SSTORE PUSH1 0x0 PUSH1 0xF SSTORE PUSH1 0x0 PUSH1 0x10 PUSH1 0x0 PUSH2 0x100 EXP DUP2 SLOAD DUP2 PUSH1 0xFF MUL NOT AND SWAP1 DUP4 ISZERO ISZERO MUL OR SWAP1 SSTORE POP CALLVALUE DUP1 ISZERO PUSH3 0x38 JUMPI PUSH1 0x0 DUP1 REVERT JUMPDEST POP PUSH1 0x40 MLOAD PUSH3 0x13A9 CODESIZE SUB DUP1 PUSH3 0x13A9 DUP4 CODECOPY DUP2 DUP2 ADD PUSH1 0x40 MSTORE DUP2 ADD SWAP1 PUSH3 0x5E SWAP2 SWAP1 PUSH3 0xAC JUMP JUMPDEST DUP1 PUSH1 0x1 DUP2 SWAP1 SSTORE POP POP PUSH3 0xDE JUMP JUMPDEST PUSH1 0x0 DUP1 REVERT JUMPDEST PUSH1 0x0 DUP2 SWAP1 POP SWAP2 SWAP1 POP JUMP JUMPDEST PUSH3 0x86 DUP2 PUSH3 0x71 JUMP JUMPDEST DUP2 EQ PUSH3 0x92 JUMPI PUSH1 0x0 DUP1 REVERT JUMPDEST POP JUMP JUMPDEST PUSH1 0x0 DUP2 MLOAD SWAP1 POP PUSH3 0xA6 DUP2 PUSH3 0x7B JUMP JUMPDEST SWAP3 SWAP2 POP POP JUMP JUMPDEST PUSH1 0x0 PUSH1 0x20 DUP3 DUP5 SUB SLT ISZERO PUSH3 0xC5 JUMPI PUSH3 0xC4 PUSH3 0x6C JUMP JUMPDEST JUMPDEST PUSH1 0x0 PUSH3 0xD5 DUP5 DUP3 DUP6 ADD PUSH3 0x95 JUMP JUMPDEST SWAP2 POP POP SWAP3 SWAP2 POP POP JUMP JUMPDEST PUSH2 0x12BB DUP1 PUSH3 0xEE PUSH1 0x0 CODECOPY PUSH1 0x0 RETURN INVALID PUSH1 0x80 PUSH1 0x40 MSTORE CALLVALUE DUP1 ISZERO PUSH2 0x10 JUMPI PUSH1 0x0 DUP1 REVERT JUMPDEST POP PUSH1 0x4 CALLDATASIZE LT PUSH2 0x100 JUMPI PUSH1 0x0 CALLDATALOAD PUSH1 0xE0 SHR DUP1 PUSH4 0x7B9A3F4C GT PUSH2 0x97 JUMPI DUP1 PUSH4 0x94B5DCAA GT PUSH2 0x66 JUMPI DUP1 PUSH4 0x94B5DCAA EQ PUSH2 0x267 JUMPI DUP1 PUSH4 0xAA8C217C EQ PUSH2 0x285 JUMPI DUP1 PUSH4 0xBC309496 EQ PUSH2 0x2A3 JUMPI DUP1 PUSH4 0xE21F37CE EQ PUSH2 0x2C1 JUMPI PUSH2 0x100 JUMP JUMPDEST DUP1 PUSH4 0x7B9A3F4C EQ PUSH2 0x203 JUMPI DUP1 PUSH4 0x7EB9F571 EQ PUSH2 0x221 JUMPI DUP1 PUSH4 0x8E029C0B EQ PUSH2 0x23F JUMPI DUP1 PUSH4 0x8FA11864 EQ PUSH2 0x249 JUMPI PUSH2 0x100 JUMP JUMPDEST DUP1 PUSH4 0x3C626F00 GT PUSH2 0xD3 JUMPI DUP1 PUSH4 0x3C626F00 EQ PUSH2 0x179 JUMPI DUP1 PUSH4 0x42FB7936 EQ PUSH2 0x197 JUMPI DUP1 PUSH4 0x4B28F9A2 EQ PUSH2 0x1B5 JUMPI DUP1 PUSH4 0x73627826 EQ PUSH2 0x1D3 JUMPI PUSH2 0x100 JUMP JUMPDEST DUP1 PUSH4 0x62A7544 EQ PUSH2 0x105 JUMPI DUP1 PUSH4 0xE85FA72 EQ PUSH2 0x121 JUMPI DUP1 PUSH4 0x12A029A4 EQ PUSH2 0x13F JUMPI DUP1 PUSH4 0x34F5CCDE EQ PUSH2 0x15B JUMPI JUMPDEST PUSH1 0x0 DUP1 REVERT JUMPDEST PUSH2 0x11F PUSH1 0x4 DUP1 CALLDATASIZE SUB DUP2 ADD SWAP1 PUSH2 0x11A SWAP2 SWAP1 PUSH2 0x931 JUMP JUMPDEST PUSH2 0x2DF JUMP JUMPDEST STOP JUMPDEST PUSH2 0x129 PUSH2 0x5C1 JUMP JUMPDEST PUSH1 0x40 MLOAD PUSH2 0x136 SWAP2 SWAP1 PUSH2 0x980 JUMP JUMPDEST PUSH1 0x40 MLOAD DUP1 SWAP2 SUB SWAP1 RETURN JUMPDEST PUSH2 0x159 PUSH1 0x4 DUP1 CALLDATASIZE SUB DUP2 ADD SWAP1 PUSH2 0x154 SWAP2 SWAP1 PUSH2 0xAE1 JUMP JUMPDEST PUSH2 0x5C7 JUMP JUMPDEST STOP JUMPDEST PUSH2 0x163 PUSH2 0x678 JUMP JUMPDEST PUSH1 0x40 MLOAD PUSH2 0x170 SWAP2 SWAP1 PUSH2 0x980 JUMP JUMPDEST PUSH1 0x40 MLOAD DUP1 SWAP2 SUB SWAP1 RETURN JUMPDEST PUSH2 0x181 PUSH2 0x67E JUMP JUMPDEST PUSH1 0x40 MLOAD PUSH2 0x18E SWAP2 SWAP1 PUSH2 0xB74 JUMP JUMPDEST PUSH1 0x40 MLOAD DUP1 SWAP2 SUB SWAP1 RETURN JUMPDEST PUSH2 0x19F PUSH2 0x691 JUMP JUMPDEST PUSH1 0x40 MLOAD PUSH2 0x1AC SWAP2 SWAP1 PUSH2 0xC17 JUMP JUMPDEST PUSH1 0x40 MLOAD DUP1 SWAP2 SUB SWAP1 RETURN JUMPDEST PUSH2 0x1BD PUSH2 0x71F JUMP JUMPDEST PUSH1 0x40 MLOAD PUSH2 0x1CA SWAP2 SWAP1 PUSH2 0x980 JUMP JUMPDEST PUSH1 0x40 MLOAD DUP1 SWAP2 SUB SWAP1 RETURN JUMPDEST PUSH2 0x1ED PUSH1 0x4 DUP1 CALLDATASIZE SUB DUP2 ADD SWAP1 PUSH2 0x1E8 SWAP2 SWAP1 PUSH2 0xC39 JUMP JUMPDEST PUSH2 0x725 JUMP JUMPDEST PUSH1 0x40 MLOAD PUSH2 0x1FA SWAP2 SWAP1 PUSH2 0x980 JUMP JUMPDEST PUSH1 0x40 MLOAD DUP1 SWAP2 SUB SWAP1 RETURN JUMPDEST PUSH2 0x20B PUSH2 0x732 JUMP JUMPDEST PUSH1 0x40 MLOAD PUSH2 0x218 SWAP2 SWAP1 PUSH2 0x980 JUMP JUMPDEST PUSH1 0x40 MLOAD DUP1 SWAP2 SUB SWAP1 RETURN JUMPDEST PUSH2 0x229 PUSH2 0x738 JUMP JUMPDEST PUSH1 0x40 MLOAD PUSH2 0x236 SWAP2 SWAP1 PUSH2 0x980 JUMP JUMPDEST PUSH1 0x40 MLOAD DUP1 SWAP2 SUB SWAP1 RETURN JUMPDEST PUSH2 0x247 PUSH2 0x73E JUMP JUMPDEST STOP JUMPDEST PUSH2 0x251 PUSH2 0x75B JUMP JUMPDEST PUSH1 0x40 MLOAD PUSH2 0x25E SWAP2 SWAP1 PUSH2 0xC17 JUMP JUMPDEST PUSH1 0x40 MLOAD DUP1 SWAP2 SUB SWAP1 RETURN JUMPDEST PUSH2 0x26F PUSH2 0x7E9 JUMP JUMPDEST PUSH1 0x40 MLOAD PUSH2 0x27C SWAP2 SWAP1 PUSH2 0x980 JUMP JUMPDEST PUSH1 0x40 MLOAD DUP1 SWAP2 SUB SWAP1 RETURN JUMPDEST PUSH2 0x28D PUSH2 0x7EF JUMP JUMPDEST PUSH1 0x40 MLOAD PUSH2 0x29A SWAP2 SWAP1 PUSH2 0x980 JUMP JUMPDEST PUSH1 0x40 MLOAD DUP1 SWAP2 SUB SWAP1 RETURN JUMPDEST PUSH2 0x2AB PUSH2 0x7F5 JUMP JUMPDEST PUSH1 0x40 MLOAD PUSH2 0x2B8 SWAP2 SWAP1 PUSH2 0x980 JUMP JUMPDEST PUSH1 0x40 MLOAD DUP1 SWAP2 SUB SWAP1 RETURN JUMPDEST PUSH2 0x2C9 PUSH2 0x7FB JUMP JUMPDEST PUSH1 0x40 MLOAD PUSH2 0x2D6 SWAP2 SWAP1 PUSH2 0xC17 JUMP JUMPDEST PUSH1 0x40 MLOAD DUP1 SWAP2 SUB SWAP1 RETURN JUMPDEST DUP1 DUP1 PUSH1 0x2 PUSH1 0x0 PUSH2 0x100 EXP DUP2 SLOAD DUP2 PUSH20 0xFFFFFFFFFFFFFFFFFFFFFFFFFFFFFFFFFFFFFFFF MUL NOT AND SWAP1 DUP4 PUSH20 0xFFFFFFFFFFFFFFFFFFFFFFFFFFFFFFFFFFFFFFFF AND MUL OR SWAP1 SSTORE POP PUSH1 0x0 PUSH20 0xFFFFFFFFFFFFFFFFFFFFFFFFFFFFFFFFFFFFFFFF AND DUP2 PUSH20 0xFFFFFFFFFFFFFFFFFFFFFFFFFFFFFFFFFFFFFFFF AND SUB PUSH2 0x390 JUMPI PUSH1 0x40 MLOAD PUSH32 0x8C379A000000000000000000000000000000000000000000000000000000000 DUP2 MSTORE PUSH1 0x4 ADD PUSH2 0x387 SWAP1 PUSH2 0xCB2 JUMP JUMPDEST PUSH1 0x40 MLOAD DUP1 SWAP2 SUB SWAP1 REVERT JUMPDEST PUSH1 0x0 ISZERO ISZERO PUSH1 0x10 PUSH1 0x0 SWAP1 SLOAD SWAP1 PUSH2 0x100 EXP SWAP1 DIV PUSH1 0xFF AND ISZERO ISZERO SUB PUSH2 0x3E6 JUMPI PUSH1 0x40 MLOAD PUSH32 0x8C379A000000000000000000000000000000000000000000000000000000000 DUP2 MSTORE PUSH1 0x4 ADD PUSH2 0x3DD SWAP1 PUSH2 0xD1E JUMP JUMPDEST PUSH1 0x40 MLOAD DUP1 SWAP2 SUB SWAP1 REVERT JUMPDEST PUSH2 0x9C4 PUSH1 0xC SLOAD GT ISZERO PUSH2 0x42D JUMPI PUSH1 0x40 MLOAD PUSH32 0x8C379A000000000000000000000000000000000000000000000000000000000 DUP2 MSTORE PUSH1 0x4 ADD PUSH2 0x424 SWAP1 PUSH2 0xD8A JUMP JUMPDEST PUSH1 0x40 MLOAD DUP1 SWAP2 SUB SWAP1 REVERT JUMPDEST TIMESTAMP PUSH1 0xD DUP2 SWAP1 SSTORE POP PUSH1 0x3C PUSH1 0xD SLOAD PUSH2 0x443 SWAP2 SWAP1 PUSH2 0xDD9 JUMP JUMPDEST TIMESTAMP GT ISZERO PUSH2 0x485 JUMPI PUSH1 0x40 MLOAD PUSH32 0x8C379A000000000000000000000000000000000000000000000000000000000 DUP2 MSTORE PUSH1 0x4 ADD PUSH2 0x47C SWAP1 PUSH2 0xE7B JUMP JUMPDEST PUSH1 0x40 MLOAD DUP1 SWAP2 SUB SWAP1 REVERT JUMPDEST DUP2 PUSH1 0x2 PUSH1 0x0 PUSH2 0x100 EXP DUP2 SLOAD DUP2 PUSH20 0xFFFFFFFFFFFFFFFFFFFFFFFFFFFFFFFFFFFFFFFF MUL NOT AND SWAP1 DUP4 PUSH20 0xFFFFFFFFFFFFFFFFFFFFFFFFFFFFFFFFFFFFFFFF AND MUL OR SWAP1 SSTORE POP DUP3 PUSH1 0x0 DUP2 SWAP1 SSTORE POP PUSH1 0x1 PUSH1 0xF PUSH1 0x0 DUP3 DUP3 SLOAD PUSH2 0x4E0 SWAP2 SWAP1 PUSH2 0xDD9 JUMP JUMPDEST SWAP3 POP POP DUP2 SWAP1 SSTORE POP PUSH1 0x0 PUSH1 0x1 SLOAD GT DUP1 ISZERO PUSH2 0x4FC JUMPI POP PUSH1 0x0 SLOAD PUSH1 0x1 SLOAD GT JUMPDEST ISZERO PUSH2 0x581 JUMPI PUSH1 0x0 SLOAD PUSH1 0x1 PUSH1 0x0 DUP3 DUP3 SLOAD PUSH2 0x515 SWAP2 SWAP1 PUSH2 0xE9B JUMP JUMPDEST SWAP3 POP POP DUP2 SWAP1 SSTORE POP PUSH1 0x0 SLOAD PUSH1 0xC PUSH1 0x0 DUP3 DUP3 SLOAD PUSH2 0x530 SWAP2 SWAP1 PUSH2 0xDD9 JUMP JUMPDEST SWAP3 POP POP DUP2 SWAP1 SSTORE POP PUSH1 0x40 MLOAD DUP1 PUSH1 0x40 ADD PUSH1 0x40 MSTORE DUP1 PUSH1 0x12 DUP2 MSTORE PUSH1 0x20 ADD PUSH32 0x5472616E7366657220636F6D706C657465640000000000000000000000000000 DUP2 MSTORE POP PUSH1 0x9 SWAP1 DUP2 PUSH2 0x57B SWAP2 SWAP1 PUSH2 0x10DB JUMP JUMPDEST POP PUSH2 0x5BC JUMP JUMPDEST PUSH1 0x40 MLOAD PUSH32 0x8C379A000000000000000000000000000000000000000000000000000000000 DUP2 MSTORE PUSH1 0x4 ADD PUSH2 0x5B3 SWAP1 PUSH2 0x11F9 JUMP JUMPDEST PUSH1 0x40 MLOAD DUP1 SWAP2 SUB SWAP1 REVERT JUMPDEST POP POP POP JUMP JUMPDEST PUSH1 0xD SLOAD DUP2 JUMP JUMPDEST DUP2 PUSH1 0xA SWAP1 DUP2 PUSH2 0x5D6 SWAP2 SWAP1 PUSH2 0x10DB JUMP JUMPDEST POP DUP1 PUSH1 0xB SWAP1 DUP2 PUSH2 0x5E6 SWAP2 SWAP1 PUSH2 0x10DB JUMP JUMPDEST POP PUSH1 0x1 PUSH1 0x10 PUSH1 0x0 PUSH2 0x100 EXP DUP2 SLOAD DUP2 PUSH1 0xFF MUL NOT AND SWAP1 DUP4 ISZERO ISZERO MUL OR SWAP1 SSTORE POP TIMESTAMP PUSH1 0xD DUP2 SWAP1 SSTORE POP PUSH1 0x8 PUSH1 0xA DUP1 SLOAD PUSH2 0x618 SWAP1 PUSH2 0xEFE JUMP JUMPDEST SWAP1 POP EQ DUP1 ISZERO PUSH2 0x635 JUMPI POP PUSH1 0x3 PUSH1 0xB DUP1 SLOAD PUSH2 0x631 SWAP1 PUSH2 0xEFE JUMP JUMPDEST SWAP1 POP EQ JUMPDEST PUSH2 0x674 JUMPI PUSH1 0x40 MLOAD PUSH32 0x8C379A000000000000000000000000000000000000000000000000000000000 DUP2 MSTORE PUSH1 0x4 ADD PUSH2 0x66B SWAP1 PUSH2 0x1265 JUMP JUMPDEST PUSH1 0x40 MLOAD DUP1 SWAP2 SUB SWAP1 REVERT JUMPDEST POP POP JUMP JUMPDEST PUSH1 0xE SLOAD DUP2 JUMP JUMPDEST PUSH1 0x10 PUSH1 0x0 SWAP1 SLOAD SWAP1 PUSH2 0x100 EXP SWAP1 DIV PUSH1 0xFF AND DUP2 JUMP JUMPDEST PUSH1 0xB DUP1 SLOAD PUSH2 0x69E SWAP1 PUSH2 0xEFE JUMP JUMPDEST DUP1 PUSH1 0x1F ADD PUSH1 0x20 DUP1 SWAP2 DIV MUL PUSH1 0x20 ADD PUSH1 0x40 MLOAD SWAP1 DUP2 ADD PUSH1 0x40 MSTORE DUP1 SWAP3 SWAP2 SWAP1 DUP2 DUP2 MSTORE PUSH1 0x20 ADD DUP3 DUP1 SLOAD PUSH2 0x6CA SWAP1 PUSH2 0xEFE JUMP JUMPDEST DUP1 ISZERO PUSH2 0x717 JUMPI DUP1 PUSH1 0x1F LT PUSH2 0x6EC JUMPI PUSH2 0x100 DUP1 DUP4 SLOAD DIV MUL DUP4 MSTORE SWAP2 PUSH1 0x20 ADD SWAP2 PUSH2 0x717 JUMP JUMPDEST DUP3 ADD SWAP2 SWAP1 PUSH1 0x0 MSTORE PUSH1 0x20 PUSH1 0x0 KECCAK256 SWAP1 JUMPDEST DUP2 SLOAD DUP2 MSTORE SWAP1 PUSH1 0x1 ADD SWAP1 PUSH1 0x20 ADD DUP1 DUP4 GT PUSH2 0x6FA JUMPI DUP3 SWAP1 SUB PUSH1 0x1F AND DUP3 ADD SWAP2 JUMPDEST POP POP POP POP POP DUP2 JUMP JUMPDEST PUSH1 0xF SLOAD DUP2 JUMP JUMPDEST PUSH1 0x0 TIMESTAMP SWAP2 POP DUP2 SWAP1 POP SWAP2 SWAP1 POP JUMP JUMPDEST PUSH1 0x1 SLOAD DUP2 JUMP JUMPDEST PUSH1 0xC SLOAD DUP2 JUMP JUMPDEST PUSH1 0x0 PUSH1 0x10 PUSH1 0x0 PUSH2 0x100 EXP DUP2 SLOAD DUP2 PUSH1 0xFF MUL NOT AND SWAP1 DUP4 ISZERO ISZERO MUL OR SWAP1 SSTORE POP JUMP JUMPDEST PUSH1 0xA DUP1 SLOAD PUSH2 0x768 SWAP1 PUSH2 0xEFE JUMP JUMPDEST DUP1 PUSH1 0x1F ADD PUSH1 0x20 DUP1 SWAP2 DIV MUL PUSH1 0x20 ADD PUSH1 0x40 MLOAD SWAP1 DUP2 ADD PUSH1 0x40 MSTORE DUP1 SWAP3 SWAP2 SWAP1 DUP2 DUP2 MSTORE PUSH1 0x20 ADD DUP3 DUP1 SLOAD PUSH2 0x794 SWAP1 PUSH2 0xEFE JUMP JUMPDEST DUP1 ISZERO PUSH2 0x7E1 JUMPI DUP1 PUSH1 0x1F LT PUSH2 0x7B6 JUMPI PUSH2 0x100 DUP1 DUP4 SLOAD DIV MUL DUP4 MSTORE SWAP2 PUSH1 0x20 ADD SWAP2 PUSH2 0x7E1 JUMP JUMPDEST DUP3 ADD SWAP2 SWAP1 PUSH1 0x0 MSTORE PUSH1 0x20 PUSH1 0x0 KECCAK256 SWAP1 JUMPDEST DUP2 SLOAD DUP2 MSTORE SWAP1 PUSH1 0x1 ADD SWAP1 PUSH1 0x20 ADD DUP1 DUP4 GT PUSH2 0x7C4 JUMPI DUP3 SWAP1 SUB PUSH1 0x1F AND DUP3 ADD SWAP2 JUMPDEST POP POP POP POP POP DUP2 JUMP JUMPDEST PUSH1 0x4 SLOAD DUP2 JUMP JUMPDEST PUSH1 0x0 SLOAD DUP2 JUMP JUMPDEST PUSH1 0x8 SLOAD DUP2 JUMP JUMPDEST PUSH1 0x9 DUP1 SLOAD PUSH2 0x808 SWAP1 PUSH2 0xEFE JUMP JUMPDEST DUP1 PUSH1 0x1F ADD PUSH1 0x20 DUP1 SWAP2 DIV MUL PUSH1 0x20 ADD PUSH1 0x40 MLOAD SWAP1 DUP2 ADD PUSH1 0x40 MSTORE DUP1 SWAP3 SWAP2 SWAP1 DUP2 DUP2 MSTORE PUSH1 0x20 ADD DUP3 DUP1 SLOAD PUSH2 0x834 SWAP1 PUSH2 0xEFE JUMP JUMPDEST DUP1 ISZERO PUSH2 0x881 JUMPI DUP1 PUSH1 0x1F LT PUSH2 0x856 JUMPI PUSH2 0x100 DUP1 DUP4 SLOAD DIV MUL DUP4 MSTORE SWAP2 PUSH1 0x20 ADD SWAP2 PUSH2 0x881 JUMP JUMPDEST DUP3 ADD SWAP2 SWAP1 PUSH1 0x0 MSTORE PUSH1 0x20 PUSH1 0x0 KECCAK256 SWAP1 JUMPDEST DUP2 SLOAD DUP2 MSTORE SWAP1 PUSH1 0x1 ADD SWAP1 PUSH1 0x20 ADD DUP1 DUP4 GT PUSH2 0x864 JUMPI DUP3 SWAP1 SUB PUSH1 0x1F AND DUP3 ADD SWAP2 JUMPDEST POP POP POP POP POP DUP2 JUMP JUMPDEST PUSH1 0x0 PUSH1 0x40 MLOAD SWAP1 POP SWAP1 JUMP JUMPDEST PUSH1 0x0 DUP1 REVERT JUMPDEST PUSH1 0x0 DUP1 REVERT JUMPDEST PUSH1 0x0 DUP2 SWAP1 POP SWAP2 SWAP1 POP JUMP JUMPDEST PUSH2 0x8B0 DUP2 PUSH2 0x89D JUMP JUMPDEST DUP2 EQ PUSH2 0x8BB JUMPI PUSH1 0x0 DUP1 REVERT JUMPDEST POP JUMP JUMPDEST PUSH1 0x0 DUP2 CALLDATALOAD SWAP1 POP PUSH2 0x8CD DUP2 PUSH2 0x8A7 JUMP JUMPDEST SWAP3 SWAP2 POP POP JUMP JUMPDEST PUSH1 0x0 PUSH20 0xFFFFFFFFFFFFFFFFFFFFFFFFFFFFFFFFFFFFFFFF DUP3 AND SWAP1 POP SWAP2 SWAP1 POP JUMP JUMPDEST PUSH1 0x0 PUSH2 0x8FE DUP3 PUSH2 0x8D3 JUMP JUMPDEST SWAP1 POP SWAP2 SWAP1 POP JUMP JUMPDEST PUSH2 0x90E DUP2 PUSH2 0x8F3 JUMP JUMPDEST DUP2 EQ PUSH2 0x919 JUMPI PUSH1 0x0 DUP1 REVERT JUMPDEST POP JUMP JUMPDEST PUSH1 0x0 DUP2 CALLDATALOAD SWAP1 POP PUSH2 0x92B DUP2 PUSH2 0x905 JUMP JUMPDEST SWAP3 SWAP2 POP POP JUMP JUMPDEST PUSH1 0x0 DUP1 PUSH1 0x40 DUP4 DUP6 SUB SLT ISZERO PUSH2 0x948 JUMPI PUSH2 0x947 PUSH2 0x893 JUMP JUMPDEST JUMPDEST PUSH1 0x0 PUSH2 0x956 DUP6 DUP3 DUP7 ADD PUSH2 0x8BE JUMP JUMPDEST SWAP3 POP POP PUSH1 0x20 PUSH2 0x967 DUP6 DUP3 DUP7 ADD PUSH2 0x91C JUMP JUMPDEST SWAP2 POP POP SWAP3 POP SWAP3 SWAP1 POP JUMP JUMPDEST PUSH2 0x97A DUP2 PUSH2 0x89D JUMP JUMPDEST DUP3 MSTORE POP POP JUMP JUMPDEST PUSH1 0x0 PUSH1 0x20 DUP3 ADD SWAP1 POP PUSH2 0x995 PUSH1 0x0 DUP4 ADD DUP5 PUSH2 0x971 JUMP JUMPDEST SWAP3 SWAP2 POP POP JUMP JUMPDEST PUSH1 0x0 DUP1 REVERT JUMPDEST PUSH1 0x0 DUP1 REVERT JUMPDEST PUSH1 0x0 PUSH1 0x1F NOT PUSH1 0x1F DUP4 ADD AND SWAP1 POP SWAP2 SWAP1 POP JUMP JUMPDEST PUSH32 0x4E487B7100000000000000000000000000000000000000000000000000000000 PUSH1 0x0 MSTORE PUSH1 0x41 PUSH1 0x4 MSTORE PUSH1 0x24 PUSH1 0x0 REVERT JUMPDEST PUSH2 0x9EE DUP3 PUSH2 0x9A5 JUMP JUMPDEST DUP2 ADD DUP2 DUP2 LT PUSH8 0xFFFFFFFFFFFFFFFF DUP3 GT OR ISZERO PUSH2 0xA0D JUMPI PUSH2 0xA0C PUSH2 0x9B6 JUMP JUMPDEST JUMPDEST DUP1 PUSH1 0x40 MSTORE POP POP POP JUMP JUMPDEST PUSH1 0x0 PUSH2 0xA20 PUSH2 0x889 JUMP JUMPDEST SWAP1 POP PUSH2 0xA2C DUP3 DUP3 PUSH2 0x9E5 JUMP JUMPDEST SWAP2 SWAP1 POP JUMP JUMPDEST PUSH1 0x0 PUSH8 0xFFFFFFFFFFFFFFFF DUP3 GT ISZERO PUSH2 0xA4C JUMPI PUSH2 0xA4B PUSH2 0x9B6 JUMP JUMPDEST JUMPDEST PUSH2 0xA55 DUP3 PUSH2 0x9A5 JUMP JUMPDEST SWAP1 POP PUSH1 0x20 DUP2 ADD SWAP1 POP SWAP2 SWAP1 POP JUMP JUMPDEST DUP3 DUP2 DUP4 CALLDATACOPY PUSH1 0x0 DUP4 DUP4 ADD MSTORE POP POP POP JUMP JUMPDEST PUSH1 0x0 PUSH2 0xA84 PUSH2 0xA7F DUP5 PUSH2 0xA31 JUMP JUMPDEST PUSH2 0xA16 JUMP JUMPDEST SWAP1 POP DUP3 DUP2 MSTORE PUSH1 0x20 DUP2 ADD DUP5 DUP5 DUP5 ADD GT ISZERO PUSH2 0xAA0 JUMPI PUSH2 0xA9F PUSH2 0x9A0 JUMP JUMPDEST JUMPDEST PUSH2 0xAAB DUP5 DUP3 DUP6 PUSH2 0xA62 JUMP JUMPDEST POP SWAP4 SWAP3 POP POP POP JUMP JUMPDEST PUSH1 0x0 DUP3 PUSH1 0x1F DUP4 ADD SLT PUSH2 0xAC8 JUMPI PUSH2 0xAC7 PUSH2 0x99B JUMP JUMPDEST JUMPDEST DUP2 CALLDATALOAD PUSH2 0xAD8 DUP5 DUP3 PUSH1 0x20 DUP7 ADD PUSH2 0xA71 JUMP JUMPDEST SWAP2 POP POP SWAP3 SWAP2 POP POP JUMP JUMPDEST PUSH1 0x0 DUP1 PUSH1 0x40 DUP4 DUP6 SUB SLT ISZERO PUSH2 0xAF8 JUMPI PUSH2 0xAF7 PUSH2 0x893 JUMP JUMPDEST JUMPDEST PUSH1 0x0 DUP4 ADD CALLDATALOAD PUSH8 0xFFFFFFFFFFFFFFFF DUP2 GT ISZERO PUSH2 0xB16 JUMPI PUSH2 0xB15 PUSH2 0x898 JUMP JUMPDEST JUMPDEST PUSH2 0xB22 DUP6 DUP3 DUP7 ADD PUSH2 0xAB3 JUMP JUMPDEST SWAP3 POP POP PUSH1 0x20 DUP4 ADD CALLDATALOAD PUSH8 0xFFFFFFFFFFFFFFFF DUP2 GT ISZERO PUSH2 0xB43 JUMPI PUSH2 0xB42 PUSH2 0x898 JUMP JUMPDEST JUMPDEST PUSH2 0xB4F DUP6 DUP3 DUP7 ADD PUSH2 0xAB3 JUMP JUMPDEST SWAP2 POP POP SWAP3 POP SWAP3 SWAP1 POP JUMP JUMPDEST PUSH1 0x0 DUP2 ISZERO ISZERO SWAP1 POP SWAP2 SWAP1 POP JUMP JUMPDEST PUSH2 0xB6E DUP2 PUSH2 0xB59 JUMP JUMPDEST DUP3 MSTORE POP POP JUMP JUMPDEST PUSH1 0x0 PUSH1 0x20 DUP3 ADD SWAP1 POP PUSH2 0xB89 PUSH1 0x0 DUP4 ADD DUP5 PUSH2 0xB65 JUMP JUMPDEST SWAP3 SWAP2 POP POP JUMP JUMPDEST PUSH1 0x0 DUP2 MLOAD SWAP1 POP SWAP2 SWAP1 POP JUMP JUMPDEST PUSH1 0x0 DUP3 DUP3 MSTORE PUSH1 0x20 DUP3 ADD SWAP1 POP SWAP3 SWAP2 POP POP JUMP JUMPDEST PUSH1 0x0 JUMPDEST DUP4 DUP2 LT ISZERO PUSH2 0xBC9 JUMPI DUP1 DUP3 ADD MLOAD DUP2 DUP5 ADD MSTORE PUSH1 0x20 DUP2 ADD SWAP1 POP PUSH2 0xBAE JUMP JUMPDEST DUP4 DUP2 GT ISZERO PUSH2 0xBD8 JUMPI PUSH1 0x0 DUP5 DUP5 ADD MSTORE JUMPDEST POP POP POP POP JUMP JUMPDEST PUSH1 0x0 PUSH2 0xBE9 DUP3 PUSH2 0xB8F JUMP JUMPDEST PUSH2 0xBF3 DUP2 DUP6 PUSH2 0xB9A JUMP JUMPDEST SWAP4 POP PUSH2 0xC03 DUP2 DUP6 PUSH1 0x20 DUP7 ADD PUSH2 0xBAB JUMP JUMPDEST PUSH2 0xC0C DUP2 PUSH2 0x9A5 JUMP JUMPDEST DUP5 ADD SWAP2 POP POP SWAP3 SWAP2 POP POP JUMP JUMPDEST PUSH1 0x0 PUSH1 0x20 DUP3 ADD SWAP1 POP DUP2 DUP2 SUB PUSH1 0x0 DUP4 ADD MSTORE PUSH2 0xC31 DUP2 DUP5 PUSH2 0xBDE JUMP JUMPDEST SWAP1 POP SWAP3 SWAP2 POP POP JUMP JUMPDEST PUSH1 0x0 PUSH1 0x20 DUP3 DUP5 SUB SLT ISZERO PUSH2 0xC4F JUMPI PUSH2 0xC4E PUSH2 0x893 JUMP JUMPDEST JUMPDEST PUSH1 0x0 PUSH2 0xC5D DUP5 DUP3 DUP6 ADD PUSH2 0x8BE JUMP JUMPDEST SWAP2 POP POP SWAP3 SWAP2 POP POP JUMP JUMPDEST PUSH32 0x2054686973206164647265737320646F65736E27742065786973747300000000 PUSH1 0x0 DUP3 ADD MSTORE POP JUMP JUMPDEST PUSH1 0x0 PUSH2 0xC9C PUSH1 0x1C DUP4 PUSH2 0xB9A JUMP JUMPDEST SWAP2 POP PUSH2 0xCA7 DUP3 PUSH2 0xC66 JUMP JUMPDEST PUSH1 0x20 DUP3 ADD SWAP1 POP SWAP2 SWAP1 POP JUMP JUMPDEST PUSH1 0x0 PUSH1 0x20 DUP3 ADD SWAP1 POP DUP2 DUP2 SUB PUSH1 0x0 DUP4 ADD MSTORE PUSH2 0xCCB DUP2 PUSH2 0xC8F JUMP JUMPDEST SWAP1 POP SWAP2 SWAP1 POP JUMP JUMPDEST PUSH32 0x506C6561736520696E7365727420796F75722063617264000000000000000000 PUSH1 0x0 DUP3 ADD MSTORE POP JUMP JUMPDEST PUSH1 0x0 PUSH2 0xD08 PUSH1 0x17 DUP4 PUSH2 0xB9A JUMP JUMPDEST SWAP2 POP PUSH2 0xD13 DUP3 PUSH2 0xCD2 JUMP JUMPDEST PUSH1 0x20 DUP3 ADD SWAP1 POP SWAP2 SWAP1 POP JUMP JUMPDEST PUSH1 0x0 PUSH1 0x20 DUP3 ADD SWAP1 POP DUP2 DUP2 SUB PUSH1 0x0 DUP4 ADD MSTORE PUSH2 0xD37 DUP2 PUSH2 0xCFB JUMP JUMPDEST SWAP1 POP SWAP2 SWAP1 POP JUMP JUMPDEST PUSH32 0x596F75207265616368656420746865206C696D69740000000000000000000000 PUSH1 0x0 DUP3 ADD MSTORE POP JUMP JUMPDEST PUSH1 0x0 PUSH2 0xD74 PUSH1 0x15 DUP4 PUSH2 0xB9A JUMP JUMPDEST SWAP2 POP PUSH2 0xD7F DUP3 PUSH2 0xD3E JUMP JUMPDEST PUSH1 0x20 DUP3 ADD SWAP1 POP SWAP2 SWAP1 POP JUMP JUMPDEST PUSH1 0x0 PUSH1 0x20 DUP3 ADD SWAP1 POP DUP2 DUP2 SUB PUSH1 0x0 DUP4 ADD MSTORE PUSH2 0xDA3 DUP2 PUSH2 0xD67 JUMP JUMPDEST SWAP1 POP SWAP2 SWAP1 POP JUMP JUMPDEST PUSH32 0x4E487B7100000000000000000000000000000000000000000000000000000000 PUSH1 0x0 MSTORE PUSH1 0x11 PUSH1 0x4 MSTORE PUSH1 0x24 PUSH1 0x0 REVERT JUMPDEST PUSH1 0x0 PUSH2 0xDE4 DUP3 PUSH2 0x89D JUMP JUMPDEST SWAP2 POP PUSH2 0xDEF DUP4 PUSH2 0x89D JUMP JUMPDEST SWAP3 POP DUP3 PUSH32 0xFFFFFFFFFFFFFFFFFFFFFFFFFFFFFFFFFFFFFFFFFFFFFFFFFFFFFFFFFFFFFFFF SUB DUP3 GT ISZERO PUSH2 0xE24 JUMPI PUSH2 0xE23 PUSH2 0xDAA JUMP JUMPDEST JUMPDEST DUP3 DUP3 ADD SWAP1 POP SWAP3 SWAP2 POP POP JUMP JUMPDEST PUSH32 0x54696D6520706173736564000000000000000000000000000000000000000000 PUSH1 0x0 DUP3 ADD MSTORE POP JUMP JUMPDEST PUSH1 0x0 PUSH2 0xE65 PUSH1 0xB DUP4 PUSH2 0xB9A JUMP JUMPDEST SWAP2 POP PUSH2 0xE70 DUP3 PUSH2 0xE2F JUMP JUMPDEST PUSH1 0x20 DUP3 ADD SWAP1 POP SWAP2 SWAP1 POP JUMP JUMPDEST PUSH1 0x0 PUSH1 0x20 DUP3 ADD SWAP1 POP DUP2 DUP2 SUB PUSH1 0x0 DUP4 ADD MSTORE PUSH2 0xE94 DUP2 PUSH2 0xE58 JUMP JUMPDEST SWAP1 POP SWAP2 SWAP1 POP JUMP JUMPDEST PUSH1 0x0 PUSH2 0xEA6 DUP3 PUSH2 0x89D JUMP JUMPDEST SWAP2 POP PUSH2 0xEB1 DUP4 PUSH2 0x89D JUMP JUMPDEST SWAP3 POP DUP3 DUP3 LT ISZERO PUSH2 0xEC4 JUMPI PUSH2 0xEC3 PUSH2 0xDAA JUMP JUMPDEST JUMPDEST DUP3 DUP3 SUB SWAP1 POP SWAP3 SWAP2 POP POP JUMP JUMPDEST PUSH32 0x4E487B7100000000000000000000000000000000000000000000000000000000 PUSH1 0x0 MSTORE PUSH1 0x22 PUSH1 0x4 MSTORE PUSH1 0x24 PUSH1 0x0 REVERT JUMPDEST PUSH1 0x0 PUSH1 0x2 DUP3 DIV SWAP1 POP PUSH1 0x1 DUP3 AND DUP1 PUSH2 0xF16 JUMPI PUSH1 0x7F DUP3 AND SWAP2 POP JUMPDEST PUSH1 0x20 DUP3 LT DUP2 SUB PUSH2 0xF29 JUMPI PUSH2 0xF28 PUSH2 0xECF JUMP JUMPDEST JUMPDEST POP SWAP2 SWAP1 POP JUMP JUMPDEST PUSH1 0x0 DUP2 SWAP1 POP DUP2 PUSH1 0x0 MSTORE PUSH1 0x20 PUSH1 0x0 KECCAK256 SWAP1 POP SWAP2 SWAP1 POP JUMP JUMPDEST PUSH1 0x0 PUSH1 0x20 PUSH1 0x1F DUP4 ADD DIV SWAP1 POP SWAP2 SWAP1 POP JUMP JUMPDEST PUSH1 0x0 DUP3 DUP3 SHL SWAP1 POP SWAP3 SWAP2 POP POP JUMP JUMPDEST PUSH1 0x0 PUSH1 0x8 DUP4 MUL PUSH2 0xF91 PUSH32 0xFFFFFFFFFFFFFFFFFFFFFFFFFFFFFFFFFFFFFFFFFFFFFFFFFFFFFFFFFFFFFFFF DUP3 PUSH2 0xF54 JUMP JUMPDEST PUSH2 0xF9B DUP7 DUP4 PUSH2 0xF54 JUMP JUMPDEST SWAP6 POP DUP1 NOT DUP5 AND SWAP4 POP DUP1 DUP7 AND DUP5 OR SWAP3 POP POP POP SWAP4 SWAP3 POP POP POP JUMP JUMPDEST PUSH1 0x0 DUP2 SWAP1 POP SWAP2 SWAP1 POP JUMP JUMPDEST PUSH1 0x0 PUSH2 0xFD8 PUSH2 0xFD3 PUSH2 0xFCE DUP5 PUSH2 0x89D JUMP JUMPDEST PUSH2 0xFB3 JUMP JUMPDEST PUSH2 0x89D JUMP JUMPDEST SWAP1 POP SWAP2 SWAP1 POP JUMP JUMPDEST PUSH1 0x0 DUP2 SWAP1 POP SWAP2 SWAP1 POP JUMP JUMPDEST PUSH2 0xFF2 DUP4 PUSH2 0xFBD JUMP JUMPDEST PUSH2 0x1006 PUSH2 0xFFE DUP3 PUSH2 0xFDF JUMP JUMPDEST DUP5 DUP5 SLOAD PUSH2 0xF61 JUMP JUMPDEST DUP3 SSTORE POP POP POP POP JUMP JUMPDEST PUSH1 0x0 SWAP1 JUMP JUMPDEST PUSH2 0x101B PUSH2 0x100E JUMP JUMPDEST PUSH2 0x1026 DUP2 DUP5 DUP5 PUSH2 0xFE9 JUMP JUMPDEST POP POP POP JUMP JUMPDEST JUMPDEST DUP2 DUP2 LT ISZERO PUSH2 0x104A JUMPI PUSH2 0x103F PUSH1 0x0 DUP3 PUSH2 0x1013 JUMP JUMPDEST PUSH1 0x1 DUP2 ADD SWAP1 POP PUSH2 0x102C JUMP JUMPDEST POP POP JUMP JUMPDEST PUSH1 0x1F DUP3 GT ISZERO PUSH2 0x108F JUMPI PUSH2 0x1060 DUP2 PUSH2 0xF2F JUMP JUMPDEST PUSH2 0x1069 DUP5 PUSH2 0xF44 JUMP JUMPDEST DUP2 ADD PUSH1 0x20 DUP6 LT ISZERO PUSH2 0x1078 JUMPI DUP2 SWAP1 POP JUMPDEST PUSH2 0x108C PUSH2 0x1084 DUP6 PUSH2 0xF44 JUMP JUMPDEST DUP4 ADD DUP3 PUSH2 0x102B JUMP JUMPDEST POP POP JUMPDEST POP POP POP JUMP JUMPDEST PUSH1 0x0 DUP3 DUP3 SHR SWAP1 POP SWAP3 SWAP2 POP POP JUMP JUMPDEST PUSH1 0x0 PUSH2 0x10B2 PUSH1 0x0 NOT DUP5 PUSH1 0x8 MUL PUSH2 0x1094 JUMP JUMPDEST NOT DUP1 DUP4 AND SWAP2 POP POP SWAP3 SWAP2 POP POP JUMP JUMPDEST PUSH1 0x0 PUSH2 0x10CB DUP4 DUP4 PUSH2 0x10A1 JUMP JUMPDEST SWAP2 POP DUP3 PUSH1 0x2 MUL DUP3 OR SWAP1 POP SWAP3 SWAP2 POP POP JUMP JUMPDEST PUSH2 0x10E4 DUP3 PUSH2 0xB8F JUMP JUMPDEST PUSH8 0xFFFFFFFFFFFFFFFF DUP2 GT ISZERO PUSH2 0x10FD JUMPI PUSH2 0x10FC PUSH2 0x9B6 JUMP JUMPDEST JUMPDEST PUSH2 0x1107 DUP3 SLOAD PUSH2 0xEFE JUMP JUMPDEST PUSH2 0x1112 DUP3 DUP3 DUP6 PUSH2 0x104E JUMP JUMPDEST PUSH1 0x0 PUSH1 0x20 SWAP1 POP PUSH1 0x1F DUP4 GT PUSH1 0x1 DUP2 EQ PUSH2 0x1145 JUMPI PUSH1 0x0 DUP5 ISZERO PUSH2 0x1133 JUMPI DUP3 DUP8 ADD MLOAD SWAP1 POP JUMPDEST PUSH2 0x113D DUP6 DUP3 PUSH2 0x10BF JUMP JUMPDEST DUP7 SSTORE POP PUSH2 0x11A5 JUMP JUMPDEST PUSH1 0x1F NOT DUP5 AND PUSH2 0x1153 DUP7 PUSH2 0xF2F JUMP JUMPDEST PUSH1 0x0 JUMPDEST DUP3 DUP2 LT ISZERO PUSH2 0x117B JUMPI DUP5 DUP10 ADD MLOAD DUP3 SSTORE PUSH1 0x1 DUP3 ADD SWAP2 POP PUSH1 0x20 DUP6 ADD SWAP5 POP PUSH1 0x20 DUP2 ADD SWAP1 POP PUSH2 0x1156 JUMP JUMPDEST DUP7 DUP4 LT ISZERO PUSH2 0x1198 JUMPI DUP5 DUP10 ADD MLOAD PUSH2 0x1194 PUSH1 0x1F DUP10 AND DUP3 PUSH2 0x10A1 JUMP JUMPDEST DUP4 SSTORE POP JUMPDEST PUSH1 0x1 PUSH1 0x2 DUP9 MUL ADD DUP9 SSTORE POP POP POP JUMPDEST POP POP POP POP POP POP JUMP JUMPDEST PUSH32 0x4E6F7420656E6F7567682066756E647300000000000000000000000000000000 PUSH1 0x0 DUP3 ADD MSTORE POP JUMP JUMPDEST PUSH1 0x0 PUSH2 0x11E3 PUSH1 0x10 DUP4 PUSH2 0xB9A JUMP JUMPDEST SWAP2 POP PUSH2 0x11EE DUP3 PUSH2 0x11AD JUMP JUMPDEST PUSH1 0x20 DUP3 ADD SWAP1 POP SWAP2 SWAP1 POP JUMP JUMPDEST PUSH1 0x0 PUSH1 0x20 DUP3 ADD SWAP1 POP DUP2 DUP2 SUB PUSH1 0x0 DUP4 ADD MSTORE PUSH2 0x1212 DUP2 PUSH2 0x11D6 JUMP JUMPDEST SWAP1 POP SWAP2 SWAP1 POP JUMP JUMPDEST PUSH32 0x4E6F2076616C6964206372656469742063617264000000000000000000000000 PUSH1 0x0 DUP3 ADD MSTORE POP JUMP JUMPDEST PUSH1 0x0 PUSH2 0x124F PUSH1 0x14 DUP4 PUSH2 0xB9A JUMP JUMPDEST SWAP2 POP PUSH2 0x125A DUP3 PUSH2 0x1219 JUMP JUMPDEST PUSH1 0x20 DUP3 ADD SWAP1 POP SWAP2 SWAP1 POP JUMP JUMPDEST PUSH1 0x0 PUSH1 0x20 DUP3 ADD SWAP1 POP DUP2 DUP2 SUB PUSH1 0x0 DUP4 ADD MSTORE PUSH2 0x127E DUP2 PUSH2 0x1242 JUMP JUMPDEST SWAP1 POP SWAP2 SWAP1 POP JUMP INVALID LOG2 PUSH5 0x6970667358 0x22 SLT KECCAK256 0xC0 0xF9 0xAD 0x4F 0x2C 0xB7 DELEGATECALL SWAP14 PUSH13 0xA8EAB906DC3ABE1A5F64FCA3D0 PUSH23 0x2C935D8EA26E3E0F2164736F6C634300080F0033000000 "
				},
				"gasEstimates": {
					"creation": {
						"codeDepositCost": "959000",
						"executionCost": "infinite",
						"totalCost": "infinite"
					},
					"external": {
						"TotalAmount()": "2474",
						"TotalFunds()": "2452",
						"amount()": "2473",
						"callCount()": "2496",
						"callPutCard()": "2494",
						"cardNumber()": "infinite",
						"countTransfer()": "2519",
						"cvv()": "infinite",
						"firstTransferTime()": "2475",
						"getOutCard()": "24478",
						"getTime(uint256)": "infinite",
						"message()": "infinite",
						"receiverFunds()": "2495",
						"sendMoney(uint256,address)": "infinite",
						"setCard(string,string)": "infinite",
						"totalWeekTransactions()": "2451"
					}
				},
				"methodIdentifiers": {
					"TotalAmount()": "7eb9f571",
					"TotalFunds()": "7b9a3f4c",
					"amount()": "aa8c217c",
					"callCount()": "4b28f9a2",
					"callPutCard()": "3c626f00",
					"cardNumber()": "8fa11864",
					"countTransfer()": "34f5ccde",
					"cvv()": "42fb7936",
					"firstTransferTime()": "0e85fa72",
					"getOutCard()": "8e029c0b",
					"getTime(uint256)": "73627826",
					"message()": "e21f37ce",
					"receiverFunds()": "bc309496",
					"sendMoney(uint256,address)": "062a7544",
					"setCard(string,string)": "12a029a4",
					"totalWeekTransactions()": "94b5dcaa"
				}
			},
			"storageLayout": {
				"storage": [
					{
						"astId": 3,
						"contract": "Dapp/MoneyTransfer.sol:MoneyTransfer",
						"label": "amount",
						"offset": 0,
						"slot": "0",
						"type": "t_uint256"
					},
					{
						"astId": 5,
						"contract": "Dapp/MoneyTransfer.sol:MoneyTransfer",
						"label": "TotalFunds",
						"offset": 0,
						"slot": "1",
						"type": "t_uint256"
					},
					{
						"astId": 7,
						"contract": "Dapp/MoneyTransfer.sol:MoneyTransfer",
						"label": "receiver",
						"offset": 0,
						"slot": "2",
						"type": "t_address"
					},
					{
						"astId": 13,
						"contract": "Dapp/MoneyTransfer.sol:MoneyTransfer",
						"label": "day",
						"offset": 0,
						"slot": "3",
						"type": "t_uint256"
					},
					{
						"astId": 15,
						"contract": "Dapp/MoneyTransfer.sol:MoneyTransfer",
						"label": "totalWeekTransactions",
						"offset": 0,
						"slot": "4",
						"type": "t_uint256"
					},
					{
						"astId": 17,
						"contract": "Dapp/MoneyTransfer.sol:MoneyTransfer",
						"label": "maxTransaction",
						"offset": 0,
						"slot": "5",
						"type": "t_uint256"
					},
					{
						"astId": 19,
						"contract": "Dapp/MoneyTransfer.sol:MoneyTransfer",
						"label": "minTransaction",
						"offset": 0,
						"slot": "6",
						"type": "t_uint256"
					},
					{
						"astId": 22,
						"contract": "Dapp/MoneyTransfer.sol:MoneyTransfer",
						"label": "countries",
						"offset": 0,
						"slot": "7",
						"type": "t_array(t_uint256)dyn_storage"
					},
					{
						"astId": 24,
						"contract": "Dapp/MoneyTransfer.sol:MoneyTransfer",
						"label": "receiverFunds",
						"offset": 0,
						"slot": "8",
						"type": "t_uint256"
					},
					{
						"astId": 26,
						"contract": "Dapp/MoneyTransfer.sol:MoneyTransfer",
						"label": "message",
						"offset": 0,
						"slot": "9",
						"type": "t_string_storage"
					},
					{
						"astId": 28,
						"contract": "Dapp/MoneyTransfer.sol:MoneyTransfer",
						"label": "cardNumber",
						"offset": 0,
						"slot": "10",
						"type": "t_string_storage"
					},
					{
						"astId": 30,
						"contract": "Dapp/MoneyTransfer.sol:MoneyTransfer",
						"label": "cvv",
						"offset": 0,
						"slot": "11",
						"type": "t_string_storage"
					},
					{
						"astId": 32,
						"contract": "Dapp/MoneyTransfer.sol:MoneyTransfer",
						"label": "TotalAmount",
						"offset": 0,
						"slot": "12",
						"type": "t_uint256"
					},
					{
						"astId": 34,
						"contract": "Dapp/MoneyTransfer.sol:MoneyTransfer",
						"label": "firstTransferTime",
						"offset": 0,
						"slot": "13",
						"type": "t_uint256"
					},
					{
						"astId": 36,
						"contract": "Dapp/MoneyTransfer.sol:MoneyTransfer",
						"label": "countTransfer",
						"offset": 0,
						"slot": "14",
						"type": "t_uint256"
					},
					{
						"astId": 49,
						"contract": "Dapp/MoneyTransfer.sol:MoneyTransfer",
						"label": "callCount",
						"offset": 0,
						"slot": "15",
						"type": "t_uint256"
					},
					{
						"astId": 52,
						"contract": "Dapp/MoneyTransfer.sol:MoneyTransfer",
						"label": "callPutCard",
						"offset": 0,
						"slot": "16",
						"type": "t_bool"
					}
				],
				"types": {
					"t_address": {
						"encoding": "inplace",
						"label": "address",
						"numberOfBytes": "20"
					},
					"t_array(t_uint256)dyn_storage": {
						"base": "t_uint256",
						"encoding": "dynamic_array",
						"label": "uint256[]",
						"numberOfBytes": "32"
					},
					"t_bool": {
						"encoding": "inplace",
						"label": "bool",
						"numberOfBytes": "1"
					},
					"t_string_storage": {
						"encoding": "bytes",
						"label": "string",
						"numberOfBytes": "32"
					},
					"t_uint256": {
						"encoding": "inplace",
						"label": "uint256",
						"numberOfBytes": "32"
					}
				}
			},
			"userdoc": {
				"kind": "user",
				"methods": {},
				"version": 1
			}
		}
	}
}