{
	"Dapp/MoneyTransfer.sol": {
		"MoneyTransfer": {
			"abi": [
				{
					"inputs": [
						{
							"internalType": "uint256",
							"name": "_totalFunds",
							"type": "uint256"
						}
					],
					"stateMutability": "nonpayable",
					"type": "constructor"
				},
				{
					"inputs": [],
					"name": "TotalAmount",
					"outputs": [
						{
							"internalType": "uint256",
							"name": "",
							"type": "uint256"
						}
					],
					"stateMutability": "view",
					"type": "function"
				},
				{
					"inputs": [],
					"name": "TotalFunds",
					"outputs": [
						{
							"internalType": "uint256",
							"name": "",
							"type": "uint256"
						}
					],
					"stateMutability": "view",
					"type": "function"
				},
				{
					"inputs": [],
					"name": "amount",
					"outputs": [
						{
							"internalType": "uint256",
							"name": "",
							"type": "uint256"
						}
					],
					"stateMutability": "view",
					"type": "function"
				},
				{
					"inputs": [],
					"name": "callCount",
					"outputs": [
						{
							"internalType": "uint256",
							"name": "",
							"type": "uint256"
						}
					],
					"stateMutability": "view",
					"type": "function"
				},
				{
					"inputs": [],
					"name": "callPutCard",
					"outputs": [
						{
							"internalType": "bool",
							"name": "",
							"type": "bool"
						}
					],
					"stateMutability": "view",
					"type": "function"
				},
				{
					"inputs": [],
					"name": "cardNumber",
					"outputs": [
						{
							"internalType": "string",
							"name": "",
							"type": "string"
						}
					],
					"stateMutability": "view",
					"type": "function"
				},
				{
					"inputs": [],
					"name": "countTransfer",
					"outputs": [
						{
							"internalType": "uint256",
							"name": "",
							"type": "uint256"
						}
					],
					"stateMutability": "view",
					"type": "function"
				},
				{
					"inputs": [],
					"name": "cvv",
					"outputs": [
						{
							"internalType": "string",
							"name": "",
							"type": "string"
						}
					],
					"stateMutability": "view",
					"type": "function"
				},
				{
					"inputs": [],
					"name": "firstTransferTime",
					"outputs": [
						{
							"internalType": "uint256",
							"name": "",
							"type": "uint256"
						}
					],
					"stateMutability": "view",
					"type": "function"
				},
				{
					"inputs": [],
					"name": "getOutCard",
					"outputs": [],
					"stateMutability": "nonpayable",
					"type": "function"
				},
				{
					"inputs": [],
					"name": "getTime",
					"outputs": [
						{
							"internalType": "uint256",
							"name": "",
							"type": "uint256"
						}
					],
					"stateMutability": "view",
					"type": "function"
				},
				{
					"inputs": [],
					"name": "message",
					"outputs": [
						{
							"internalType": "string",
							"name": "",
							"type": "string"
						}
					],
					"stateMutability": "view",
					"type": "function"
				},
				{
					"inputs": [],
					"name": "receiverFunds",
					"outputs": [
						{
							"internalType": "uint256",
							"name": "",
							"type": "uint256"
						}
					],
					"stateMutability": "view",
					"type": "function"
				},
				{
					"inputs": [
						{
							"internalType": "uint256",
							"name": "_amount",
							"type": "uint256"
						},
						{
							"internalType": "address",
							"name": "_receiver",
							"type": "address"
						}
					],
					"name": "sendMoney",
					"outputs": [],
					"stateMutability": "nonpayable",
					"type": "function"
				},
				{
					"inputs": [
						{
							"internalType": "string",
							"name": "_cardNumber",
							"type": "string"
						},
						{
							"internalType": "string",
							"name": "_cvv",
							"type": "string"
						}
					],
					"name": "setCard",
					"outputs": [],
					"stateMutability": "nonpayable",
					"type": "function"
				},
				{
					"inputs": [],
					"name": "totalWeekTransactions",
					"outputs": [
						{
							"internalType": "uint256",
							"name": "",
							"type": "uint256"
						}
					],
					"stateMutability": "view",
					"type": "function"
				}
			],
			"devdoc": {
				"kind": "dev",
				"methods": {},
				"version": 1
			},
			"evm": {
				"assembly": "    /* \"Dapp/MoneyTransfer.sol\":71:3944  contract  MoneyTransfer {... */\n  mstore(0x40, 0x80)\n    /* \"Dapp/MoneyTransfer.sol\":237:245  24 hours */\n  0x015180\n    /* \"Dapp/MoneyTransfer.sol\":226:245  uint day = 24 hours */\n  0x03\n  sstore\n    /* \"Dapp/MoneyTransfer.sol\":774:775  0 */\n  0x00\n    /* \"Dapp/MoneyTransfer.sol\":750:775  uint public callCount = 0 */\n  0x0f\n  sstore\n    /* \"Dapp/MoneyTransfer.sol\":809:814  false */\n  0x00\n    /* \"Dapp/MoneyTransfer.sol\":783:814  bool public callPutCard = false */\n  0x10\n  exp(0x0100, 0x00)\n  dup2\n  sload\n  dup2\n  0xff\n  mul\n  not\n  and\n  swap1\n  dup4\n  iszero\n  iszero\n  mul\n  or\n  swap1\n  sstore\n  pop\n    /* \"Dapp/MoneyTransfer.sol\":599:738  constructor (uint256 _totalFunds) {... */\n  callvalue\n  dup1\n  iszero\n  tag_1\n  jumpi\n  0x00\n  dup1\n  revert\ntag_1:\n  pop\n  mload(0x40)\n  sub(codesize, bytecodeSize)\n  dup1\n  bytecodeSize\n  dup4\n  codecopy\n  dup2\n  dup2\n  add\n  0x40\n  mstore\n  dup2\n  add\n  swap1\n  tag_2\n  swap2\n  swap1\n  tag_3\n  jump\t// in\ntag_2:\n    /* \"Dapp/MoneyTransfer.sol\":719:730  _totalFunds */\n  dup1\n    /* \"Dapp/MoneyTransfer.sol\":706:716  TotalFunds */\n  0x01\n    /* \"Dapp/MoneyTransfer.sol\":706:730  TotalFunds = _totalFunds */\n  dup2\n  swap1\n  sstore\n  pop\n    /* \"Dapp/MoneyTransfer.sol\":599:738  constructor (uint256 _totalFunds) {... */\n  pop\n    /* \"Dapp/MoneyTransfer.sol\":71:3944  contract  MoneyTransfer {... */\n  jump(tag_6)\n    /* \"#utility.yul\":88:205   */\ntag_8:\n    /* \"#utility.yul\":197:198   */\n  0x00\n    /* \"#utility.yul\":194:195   */\n  dup1\n    /* \"#utility.yul\":187:199   */\n  revert\n    /* \"#utility.yul\":334:411   */\ntag_10:\n    /* \"#utility.yul\":371:378   */\n  0x00\n    /* \"#utility.yul\":400:405   */\n  dup2\n    /* \"#utility.yul\":389:405   */\n  swap1\n  pop\n    /* \"#utility.yul\":334:411   */\n  swap2\n  swap1\n  pop\n  jump\t// out\n    /* \"#utility.yul\":417:539   */\ntag_11:\n    /* \"#utility.yul\":490:514   */\n  tag_19\n    /* \"#utility.yul\":508:513   */\n  dup2\n    /* \"#utility.yul\":490:514   */\n  tag_10\n  jump\t// in\ntag_19:\n    /* \"#utility.yul\":483:488   */\n  dup2\n    /* \"#utility.yul\":480:515   */\n  eq\n    /* \"#utility.yul\":470:533   */\n  tag_20\n  jumpi\n    /* \"#utility.yul\":529:530   */\n  0x00\n    /* \"#utility.yul\":526:527   */\n  dup1\n    /* \"#utility.yul\":519:531   */\n  revert\n    /* \"#utility.yul\":470:533   */\ntag_20:\n    /* \"#utility.yul\":417:539   */\n  pop\n  jump\t// out\n    /* \"#utility.yul\":545:688   */\ntag_12:\n    /* \"#utility.yul\":602:607   */\n  0x00\n    /* \"#utility.yul\":633:639   */\n  dup2\n    /* \"#utility.yul\":627:640   */\n  mload\n    /* \"#utility.yul\":618:640   */\n  swap1\n  pop\n    /* \"#utility.yul\":649:682   */\n  tag_22\n    /* \"#utility.yul\":676:681   */\n  dup2\n    /* \"#utility.yul\":649:682   */\n  tag_11\n  jump\t// in\ntag_22:\n    /* \"#utility.yul\":545:688   */\n  swap3\n  swap2\n  pop\n  pop\n  jump\t// out\n    /* \"#utility.yul\":694:1045   */\ntag_3:\n    /* \"#utility.yul\":764:770   */\n  0x00\n    /* \"#utility.yul\":813:815   */\n  0x20\n    /* \"#utility.yul\":801:810   */\n  dup3\n    /* \"#utility.yul\":792:799   */\n  dup5\n    /* \"#utility.yul\":788:811   */\n  sub\n    /* \"#utility.yul\":784:816   */\n  slt\n    /* \"#utility.yul\":781:900   */\n  iszero\n  tag_24\n  jumpi\n    /* \"#utility.yul\":819:898   */\n  tag_25\n  tag_8\n  jump\t// in\ntag_25:\n    /* \"#utility.yul\":781:900   */\ntag_24:\n    /* \"#utility.yul\":939:940   */\n  0x00\n    /* \"#utility.yul\":964:1028   */\n  tag_26\n    /* \"#utility.yul\":1020:1027   */\n  dup5\n    /* \"#utility.yul\":1011:1017   */\n  dup3\n    /* \"#utility.yul\":1000:1009   */\n  dup6\n    /* \"#utility.yul\":996:1018   */\n  add\n    /* \"#utility.yul\":964:1028   */\n  tag_12\n  jump\t// in\ntag_26:\n    /* \"#utility.yul\":954:1028   */\n  swap2\n  pop\n    /* \"#utility.yul\":910:1038   */\n  pop\n    /* \"#utility.yul\":694:1045   */\n  swap3\n  swap2\n  pop\n  pop\n  jump\t// out\n    /* \"Dapp/MoneyTransfer.sol\":71:3944  contract  MoneyTransfer {... */\ntag_6:\n  dataSize(sub_0)\n  dup1\n  dataOffset(sub_0)\n  0x00\n  codecopy\n  0x00\n  return\nstop\n\nsub_0: assembly {\n        /* \"Dapp/MoneyTransfer.sol\":71:3944  contract  MoneyTransfer {... */\n      mstore(0x40, 0x80)\n      callvalue\n      dup1\n      iszero\n      tag_1\n      jumpi\n      0x00\n      dup1\n      revert\n    tag_1:\n      pop\n      jumpi(tag_2, lt(calldatasize, 0x04))\n      shr(0xe0, calldataload(0x00))\n      dup1\n      0x7b9a3f4c\n      gt\n      tag_19\n      jumpi\n      dup1\n      0x94b5dcaa\n      gt\n      tag_20\n      jumpi\n      dup1\n      0x94b5dcaa\n      eq\n      tag_15\n      jumpi\n      dup1\n      0xaa8c217c\n      eq\n      tag_16\n      jumpi\n      dup1\n      0xbc309496\n      eq\n      tag_17\n      jumpi\n      dup1\n      0xe21f37ce\n      eq\n      tag_18\n      jumpi\n      jump(tag_2)\n    tag_20:\n      dup1\n      0x7b9a3f4c\n      eq\n      tag_11\n      jumpi\n      dup1\n      0x7eb9f571\n      eq\n      tag_12\n      jumpi\n      dup1\n      0x8e029c0b\n      eq\n      tag_13\n      jumpi\n      dup1\n      0x8fa11864\n      eq\n      tag_14\n      jumpi\n      jump(tag_2)\n    tag_19:\n      dup1\n      0x3c626f00\n      gt\n      tag_21\n      jumpi\n      dup1\n      0x3c626f00\n      eq\n      tag_7\n      jumpi\n      dup1\n      0x42fb7936\n      eq\n      tag_8\n      jumpi\n      dup1\n      0x4b28f9a2\n      eq\n      tag_9\n      jumpi\n      dup1\n      0x557ed1ba\n      eq\n      tag_10\n      jumpi\n      jump(tag_2)\n    tag_21:\n      dup1\n      0x062a7544\n      eq\n      tag_3\n      jumpi\n      dup1\n      0x0e85fa72\n      eq\n      tag_4\n      jumpi\n      dup1\n      0x12a029a4\n      eq\n      tag_5\n      jumpi\n      dup1\n      0x34f5ccde\n      eq\n      tag_6\n      jumpi\n    tag_2:\n      0x00\n      dup1\n      revert\n        /* \"Dapp/MoneyTransfer.sol\":824:1659  function sendMoney( uint _amount, address _receiver) public m_validAddress(_receiver) m_ifCardExists m_transferLimit{... */\n    tag_3:\n      tag_22\n      0x04\n      dup1\n      calldatasize\n      sub\n      dup2\n      add\n      swap1\n      tag_23\n      swap2\n      swap1\n      tag_24\n      jump\t// in\n    tag_23:\n      tag_25\n      jump\t// in\n    tag_22:\n      stop\n        /* \"Dapp/MoneyTransfer.sol\":524:553  uint public firstTransferTime */\n    tag_4:\n      tag_26\n      tag_27\n      jump\t// in\n    tag_26:\n      mload(0x40)\n      tag_28\n      swap2\n      swap1\n      tag_29\n      jump\t// in\n    tag_28:\n      mload(0x40)\n      dup1\n      swap2\n      sub\n      swap1\n      return\n        /* \"Dapp/MoneyTransfer.sol\":1667:1932  function setCard(string memory _cardNumber, string memory _cvv) public  m_checkCard {... */\n    tag_5:\n      tag_30\n      0x04\n      dup1\n      calldatasize\n      sub\n      dup2\n      add\n      swap1\n      tag_31\n      swap2\n      swap1\n      tag_32\n      jump\t// in\n    tag_31:\n      tag_33\n      jump\t// in\n    tag_30:\n      stop\n        /* \"Dapp/MoneyTransfer.sol\":560:585  uint public countTransfer */\n    tag_6:\n      tag_34\n      tag_35\n      jump\t// in\n    tag_34:\n      mload(0x40)\n      tag_36\n      swap2\n      swap1\n      tag_29\n      jump\t// in\n    tag_36:\n      mload(0x40)\n      dup1\n      swap2\n      sub\n      swap1\n      return\n        /* \"Dapp/MoneyTransfer.sol\":783:814  bool public callPutCard = false */\n    tag_7:\n      tag_37\n      tag_38\n      jump\t// in\n    tag_37:\n      mload(0x40)\n      tag_39\n      swap2\n      swap1\n      tag_40\n      jump\t// in\n    tag_39:\n      mload(0x40)\n      dup1\n      swap2\n      sub\n      swap1\n      return\n        /* \"Dapp/MoneyTransfer.sol\":470:487  string public cvv */\n    tag_8:\n      tag_41\n      tag_42\n      jump\t// in\n    tag_41:\n      mload(0x40)\n      tag_43\n      swap2\n      swap1\n      tag_44\n      jump\t// in\n    tag_43:\n      mload(0x40)\n      dup1\n      swap2\n      sub\n      swap1\n      return\n        /* \"Dapp/MoneyTransfer.sol\":750:775  uint public callCount = 0 */\n    tag_9:\n      tag_45\n      tag_46\n      jump\t// in\n    tag_45:\n      mload(0x40)\n      tag_47\n      swap2\n      swap1\n      tag_29\n      jump\t// in\n    tag_47:\n      mload(0x40)\n      dup1\n      swap2\n      sub\n      swap1\n      return\n        /* \"Dapp/MoneyTransfer.sol\":3847:3933  function getTime()public view returns(uint ){... */\n    tag_10:\n      tag_48\n      tag_49\n      jump\t// in\n    tag_48:\n      mload(0x40)\n      tag_50\n      swap2\n      swap1\n      tag_29\n      jump\t// in\n    tag_50:\n      mload(0x40)\n      dup1\n      swap2\n      sub\n      swap1\n      return\n        /* \"Dapp/MoneyTransfer.sol\":134:159  uint256 public TotalFunds */\n    tag_11:\n      tag_51\n      tag_52\n      jump\t// in\n    tag_51:\n      mload(0x40)\n      tag_53\n      swap2\n      swap1\n      tag_29\n      jump\t// in\n    tag_53:\n      mload(0x40)\n      dup1\n      swap2\n      sub\n      swap1\n      return\n        /* \"Dapp/MoneyTransfer.sol\":494:520  uint256 public TotalAmount */\n    tag_12:\n      tag_54\n      tag_55\n      jump\t// in\n    tag_54:\n      mload(0x40)\n      tag_56\n      swap2\n      swap1\n      tag_29\n      jump\t// in\n    tag_56:\n      mload(0x40)\n      dup1\n      swap2\n      sub\n      swap1\n      return\n        /* \"Dapp/MoneyTransfer.sol\":1942:2011  function getOutCard() public  {... */\n    tag_13:\n      tag_57\n      tag_58\n      jump\t// in\n    tag_57:\n      stop\n        /* \"Dapp/MoneyTransfer.sol\":438:462  string public cardNumber */\n    tag_14:\n      tag_59\n      tag_60\n      jump\t// in\n    tag_59:\n      mload(0x40)\n      tag_61\n      swap2\n      swap1\n      tag_44\n      jump\t// in\n    tag_61:\n      mload(0x40)\n      dup1\n      swap2\n      sub\n      swap1\n      return\n        /* \"Dapp/MoneyTransfer.sol\":252:288  uint256 public totalWeekTransactions */\n    tag_15:\n      tag_62\n      tag_63\n      jump\t// in\n    tag_62:\n      mload(0x40)\n      tag_64\n      swap2\n      swap1\n      tag_29\n      jump\t// in\n    tag_64:\n      mload(0x40)\n      dup1\n      swap2\n      sub\n      swap1\n      return\n        /* \"Dapp/MoneyTransfer.sol\":106:127  uint256 public amount */\n    tag_16:\n      tag_65\n      tag_66\n      jump\t// in\n    tag_65:\n      mload(0x40)\n      tag_67\n      swap2\n      swap1\n      tag_29\n      jump\t// in\n    tag_67:\n      mload(0x40)\n      dup1\n      swap2\n      sub\n      swap1\n      return\n        /* \"Dapp/MoneyTransfer.sol\":375:403  uint256 public receiverFunds */\n    tag_17:\n      tag_68\n      tag_69\n      jump\t// in\n    tag_68:\n      mload(0x40)\n      tag_70\n      swap2\n      swap1\n      tag_29\n      jump\t// in\n    tag_70:\n      mload(0x40)\n      dup1\n      swap2\n      sub\n      swap1\n      return\n        /* \"Dapp/MoneyTransfer.sol\":410:431  string public message */\n    tag_18:\n      tag_71\n      tag_72\n      jump\t// in\n    tag_71:\n      mload(0x40)\n      tag_73\n      swap2\n      swap1\n      tag_44\n      jump\t// in\n    tag_73:\n      mload(0x40)\n      dup1\n      swap2\n      sub\n      swap1\n      return\n        /* \"Dapp/MoneyTransfer.sol\":824:1659  function sendMoney( uint _amount, address _receiver) public m_validAddress(_receiver) m_ifCardExists m_transferLimit{... */\n    tag_25:\n        /* \"Dapp/MoneyTransfer.sol\":899:908  _receiver */\n      dup1\n        /* \"Dapp/MoneyTransfer.sol\":2080:2085  _addr */\n      dup1\n        /* \"Dapp/MoneyTransfer.sol\":2069:2077  receiver */\n      0x02\n      0x00\n        /* \"Dapp/MoneyTransfer.sol\":2069:2085  receiver = _addr */\n      0x0100\n      exp\n      dup2\n      sload\n      dup2\n      0xffffffffffffffffffffffffffffffffffffffff\n      mul\n      not\n      and\n      swap1\n      dup4\n      0xffffffffffffffffffffffffffffffffffffffff\n      and\n      mul\n      or\n      swap1\n      sstore\n      pop\n        /* \"Dapp/MoneyTransfer.sol\":2121:2122  0 */\n      0x00\n        /* \"Dapp/MoneyTransfer.sol\":2104:2123  _addr != address(0) */\n      0xffffffffffffffffffffffffffffffffffffffff\n      and\n        /* \"Dapp/MoneyTransfer.sol\":2104:2109  _addr */\n      dup2\n        /* \"Dapp/MoneyTransfer.sol\":2104:2123  _addr != address(0) */\n      0xffffffffffffffffffffffffffffffffffffffff\n      and\n      sub\n        /* \"Dapp/MoneyTransfer.sol\":2096:2156  require(_addr != address(0), \" This address doesn't exists\") */\n      tag_75\n      jumpi\n      mload(0x40)\n      0x08c379a000000000000000000000000000000000000000000000000000000000\n      dup2\n      mstore\n      0x04\n      add\n      tag_76\n      swap1\n      tag_77\n      jump\t// in\n    tag_76:\n      mload(0x40)\n      dup1\n      swap2\n      sub\n      swap1\n      revert\n    tag_75:\n        /* \"Dapp/MoneyTransfer.sol\":2255:2260  false */\n      0x00\n        /* \"Dapp/MoneyTransfer.sol\":2240:2260  callPutCard != false */\n      iszero\n      iszero\n        /* \"Dapp/MoneyTransfer.sol\":2240:2251  callPutCard */\n      0x10\n      0x00\n      swap1\n      sload\n      swap1\n      0x0100\n      exp\n      swap1\n      div\n      0xff\n      and\n        /* \"Dapp/MoneyTransfer.sol\":2240:2260  callPutCard != false */\n      iszero\n      iszero\n      sub\n        /* \"Dapp/MoneyTransfer.sol\":2232:2287  require(callPutCard != false,\"Please insert your card\") */\n      tag_79\n      jumpi\n      mload(0x40)\n      0x08c379a000000000000000000000000000000000000000000000000000000000\n      dup2\n      mstore\n      0x04\n      add\n      tag_80\n      swap1\n      tag_81\n      jump\t// in\n    tag_80:\n      mload(0x40)\n      dup1\n      swap2\n      sub\n      swap1\n      revert\n    tag_79:\n        /* \"Dapp/MoneyTransfer.sol\":3091:3095  2500 */\n      0x09c4\n        /* \"Dapp/MoneyTransfer.sol\":3077:3088  TotalAmount */\n      sload(0x0c)\n        /* \"Dapp/MoneyTransfer.sol\":3077:3095  TotalAmount > 2500 */\n      gt\n        /* \"Dapp/MoneyTransfer.sol\":3077:3150  TotalAmount > 2500 && block.timestamp <= (firstTransferTime + 30 seconds) */\n      dup1\n      iszero\n      tag_83\n      jumpi\n      pop\n        /* \"Dapp/MoneyTransfer.sol\":3139:3149  30 seconds */\n      0x1e\n        /* \"Dapp/MoneyTransfer.sol\":3119:3136  firstTransferTime */\n      sload(0x0d)\n        /* \"Dapp/MoneyTransfer.sol\":3119:3149  firstTransferTime + 30 seconds */\n      tag_84\n      swap2\n      swap1\n      tag_85\n      jump\t// in\n    tag_84:\n        /* \"Dapp/MoneyTransfer.sol\":3099:3114  block.timestamp */\n      timestamp\n        /* \"Dapp/MoneyTransfer.sol\":3099:3150  block.timestamp <= (firstTransferTime + 30 seconds) */\n      gt\n      iszero\n        /* \"Dapp/MoneyTransfer.sol\":3077:3150  TotalAmount > 2500 && block.timestamp <= (firstTransferTime + 30 seconds) */\n    tag_83:\n        /* \"Dapp/MoneyTransfer.sol\":3074:3248  if(TotalAmount > 2500 && block.timestamp <= (firstTransferTime + 30 seconds)){... */\n      iszero\n      tag_86\n      jumpi\n        /* \"Dapp/MoneyTransfer.sol\":3180:3181  0 */\n      0x00\n        /* \"Dapp/MoneyTransfer.sol\":3166:3177  TotalAmount */\n      0x0c\n        /* \"Dapp/MoneyTransfer.sol\":3166:3181  TotalAmount = 0 */\n      dup2\n      swap1\n      sstore\n      pop\n        /* \"Dapp/MoneyTransfer.sol\":3197:3236  revert(\"You reached the limit per day\") */\n      mload(0x40)\n      0x08c379a000000000000000000000000000000000000000000000000000000000\n      dup2\n      mstore\n      0x04\n      add\n      tag_87\n      swap1\n      tag_88\n      jump\t// in\n    tag_87:\n      mload(0x40)\n      dup1\n      swap2\n      sub\n      swap1\n      revert\n        /* \"Dapp/MoneyTransfer.sol\":3074:3248  if(TotalAmount > 2500 && block.timestamp <= (firstTransferTime + 30 seconds)){... */\n    tag_86:\n        /* \"Dapp/MoneyTransfer.sol\":3276:3280  2500 */\n      0x09c4\n        /* \"Dapp/MoneyTransfer.sol\":3261:3272  TotalAmount */\n      sload(0x0c)\n        /* \"Dapp/MoneyTransfer.sol\":3261:3280  TotalAmount <= 2500 */\n      gt\n      iszero\n        /* \"Dapp/MoneyTransfer.sol\":3261:3335  TotalAmount <= 2500 && block.timestamp >= (firstTransferTime + 30 seconds) */\n      dup1\n      iszero\n      tag_89\n      jumpi\n      pop\n        /* \"Dapp/MoneyTransfer.sol\":3324:3334  30 seconds */\n      0x1e\n        /* \"Dapp/MoneyTransfer.sol\":3304:3321  firstTransferTime */\n      sload(0x0d)\n        /* \"Dapp/MoneyTransfer.sol\":3304:3334  firstTransferTime + 30 seconds */\n      tag_90\n      swap2\n      swap1\n      tag_85\n      jump\t// in\n    tag_90:\n        /* \"Dapp/MoneyTransfer.sol\":3284:3299  block.timestamp */\n      timestamp\n        /* \"Dapp/MoneyTransfer.sol\":3284:3335  block.timestamp >= (firstTransferTime + 30 seconds) */\n      lt\n      iszero\n        /* \"Dapp/MoneyTransfer.sol\":3261:3335  TotalAmount <= 2500 && block.timestamp >= (firstTransferTime + 30 seconds) */\n    tag_89:\n        /* \"Dapp/MoneyTransfer.sol\":3258:3428  if(TotalAmount <= 2500 && block.timestamp >= (firstTransferTime + 30 seconds)){... */\n      iszero\n      tag_91\n      jumpi\n        /* \"Dapp/MoneyTransfer.sol\":3365:3366  0 */\n      0x00\n        /* \"Dapp/MoneyTransfer.sol\":3351:3362  TotalAmount */\n      0x0c\n        /* \"Dapp/MoneyTransfer.sol\":3351:3366  TotalAmount = 0 */\n      dup2\n      swap1\n      sstore\n      pop\n        /* \"Dapp/MoneyTransfer.sol\":3401:3416  block.timestamp */\n      timestamp\n        /* \"Dapp/MoneyTransfer.sol\":3381:3398  firstTransferTime */\n      0x0d\n        /* \"Dapp/MoneyTransfer.sol\":3381:3416  firstTransferTime = block.timestamp */\n      dup2\n      swap1\n      sstore\n      pop\n        /* \"Dapp/MoneyTransfer.sol\":3258:3428  if(TotalAmount <= 2500 && block.timestamp >= (firstTransferTime + 30 seconds)){... */\n    tag_91:\n        /* \"Dapp/MoneyTransfer.sol\":3455:3456  5 */\n      0x05\n        /* \"Dapp/MoneyTransfer.sol\":3443:3452  callCount */\n      sload(0x0f)\n        /* \"Dapp/MoneyTransfer.sol\":3443:3456  callCount > 5 */\n      gt\n        /* \"Dapp/MoneyTransfer.sol\":3443:3511  callCount > 5 && block.timestamp <= (firstTransferTime + 30 seconds) */\n      dup1\n      iszero\n      tag_92\n      jumpi\n      pop\n        /* \"Dapp/MoneyTransfer.sol\":3500:3510  30 seconds */\n      0x1e\n        /* \"Dapp/MoneyTransfer.sol\":3480:3497  firstTransferTime */\n      sload(0x0d)\n        /* \"Dapp/MoneyTransfer.sol\":3480:3510  firstTransferTime + 30 seconds */\n      tag_93\n      swap2\n      swap1\n      tag_85\n      jump\t// in\n    tag_93:\n        /* \"Dapp/MoneyTransfer.sol\":3460:3475  block.timestamp */\n      timestamp\n        /* \"Dapp/MoneyTransfer.sol\":3460:3511  block.timestamp <= (firstTransferTime + 30 seconds) */\n      gt\n      iszero\n        /* \"Dapp/MoneyTransfer.sol\":3443:3511  callCount > 5 && block.timestamp <= (firstTransferTime + 30 seconds) */\n    tag_92:\n        /* \"Dapp/MoneyTransfer.sol\":3440:3618  if(callCount > 5 && block.timestamp <= (firstTransferTime + 30 seconds)){... */\n      iszero\n      tag_94\n      jumpi\n        /* \"Dapp/MoneyTransfer.sol\":3539:3540  0 */\n      0x00\n        /* \"Dapp/MoneyTransfer.sol\":3527:3536  callCount */\n      0x0f\n        /* \"Dapp/MoneyTransfer.sol\":3527:3540  callCount = 0 */\n      dup2\n      swap1\n      sstore\n      pop\n        /* \"Dapp/MoneyTransfer.sol\":3555:3592  revert(\"only 5 transactions per day\") */\n      mload(0x40)\n      0x08c379a000000000000000000000000000000000000000000000000000000000\n      dup2\n      mstore\n      0x04\n      add\n      tag_95\n      swap1\n      tag_96\n      jump\t// in\n    tag_95:\n      mload(0x40)\n      dup1\n      swap2\n      sub\n      swap1\n      revert\n        /* \"Dapp/MoneyTransfer.sol\":3440:3618  if(callCount > 5 && block.timestamp <= (firstTransferTime + 30 seconds)){... */\n    tag_94:\n        /* \"Dapp/MoneyTransfer.sol\":3644:3645  5 */\n      0x05\n        /* \"Dapp/MoneyTransfer.sol\":3631:3640  callCount */\n      sload(0x0f)\n        /* \"Dapp/MoneyTransfer.sol\":3631:3645  callCount <= 5 */\n      gt\n      iszero\n        /* \"Dapp/MoneyTransfer.sol\":3631:3700  callCount <= 5 && block.timestamp >= (firstTransferTime + 30 seconds) */\n      dup1\n      iszero\n      tag_97\n      jumpi\n      pop\n        /* \"Dapp/MoneyTransfer.sol\":3689:3699  30 seconds */\n      0x1e\n        /* \"Dapp/MoneyTransfer.sol\":3669:3686  firstTransferTime */\n      sload(0x0d)\n        /* \"Dapp/MoneyTransfer.sol\":3669:3699  firstTransferTime + 30 seconds */\n      tag_98\n      swap2\n      swap1\n      tag_85\n      jump\t// in\n    tag_98:\n        /* \"Dapp/MoneyTransfer.sol\":3649:3664  block.timestamp */\n      timestamp\n        /* \"Dapp/MoneyTransfer.sol\":3649:3700  block.timestamp >= (firstTransferTime + 30 seconds) */\n      lt\n      iszero\n        /* \"Dapp/MoneyTransfer.sol\":3631:3700  callCount <= 5 && block.timestamp >= (firstTransferTime + 30 seconds) */\n    tag_97:\n        /* \"Dapp/MoneyTransfer.sol\":3628:3791  if(callCount <= 5 && block.timestamp >= (firstTransferTime + 30 seconds)){... */\n      iszero\n      tag_99\n      jumpi\n        /* \"Dapp/MoneyTransfer.sol\":3728:3729  0 */\n      0x00\n        /* \"Dapp/MoneyTransfer.sol\":3716:3725  callCount */\n      0x0f\n        /* \"Dapp/MoneyTransfer.sol\":3716:3729  callCount = 0 */\n      dup2\n      swap1\n      sstore\n      pop\n        /* \"Dapp/MoneyTransfer.sol\":3764:3779  block.timestamp */\n      timestamp\n        /* \"Dapp/MoneyTransfer.sol\":3744:3761  firstTransferTime */\n      0x0d\n        /* \"Dapp/MoneyTransfer.sol\":3744:3779  firstTransferTime = block.timestamp */\n      dup2\n      swap1\n      sstore\n      pop\n        /* \"Dapp/MoneyTransfer.sol\":3628:3791  if(callCount <= 5 && block.timestamp >= (firstTransferTime + 30 seconds)){... */\n    tag_99:\n        /* \"Dapp/MoneyTransfer.sol\":962:971  _receiver */\n      dup2\n        /* \"Dapp/MoneyTransfer.sol\":951:959  receiver */\n      0x02\n      0x00\n        /* \"Dapp/MoneyTransfer.sol\":951:971  receiver = _receiver */\n      0x0100\n      exp\n      dup2\n      sload\n      dup2\n      0xffffffffffffffffffffffffffffffffffffffff\n      mul\n      not\n      and\n      swap1\n      dup4\n      0xffffffffffffffffffffffffffffffffffffffff\n      and\n      mul\n      or\n      swap1\n      sstore\n      pop\n        /* \"Dapp/MoneyTransfer.sol\":991:998  _amount */\n      dup3\n        /* \"Dapp/MoneyTransfer.sol\":982:988  amount */\n      0x00\n        /* \"Dapp/MoneyTransfer.sol\":982:998  amount = _amount */\n      dup2\n      swap1\n      sstore\n      pop\n        /* \"Dapp/MoneyTransfer.sol\":1023:1027  2500 */\n      0x09c4\n        /* \"Dapp/MoneyTransfer.sol\":1014:1020  amount */\n      sload(0x00)\n        /* \"Dapp/MoneyTransfer.sol\":1014:1027  amount > 2500 */\n      gt\n        /* \"Dapp/MoneyTransfer.sol\":1011:1093  if(amount > 2500){... */\n      iszero\n      tag_101\n      jumpi\n        /* \"Dapp/MoneyTransfer.sol\":1043:1081  revert(\"You reached the limit Send()\") */\n      mload(0x40)\n      0x08c379a000000000000000000000000000000000000000000000000000000000\n      dup2\n      mstore\n      0x04\n      add\n      tag_102\n      swap1\n      tag_103\n      jump\t// in\n    tag_102:\n      mload(0x40)\n      dup1\n      swap2\n      sub\n      swap1\n      revert\n        /* \"Dapp/MoneyTransfer.sol\":1011:1093  if(amount > 2500){... */\n    tag_101:\n        /* \"Dapp/MoneyTransfer.sol\":1162:1163  1 */\n      0x01\n        /* \"Dapp/MoneyTransfer.sol\":1149:1158  callCount */\n      0x0f\n      0x00\n        /* \"Dapp/MoneyTransfer.sol\":1149:1163  callCount += 1 */\n      dup3\n      dup3\n      sload\n      tag_104\n      swap2\n      swap1\n      tag_85\n      jump\t// in\n    tag_104:\n      swap3\n      pop\n      pop\n      dup2\n      swap1\n      sstore\n      pop\n        /* \"Dapp/MoneyTransfer.sol\":1219:1220  0 */\n      0x00\n        /* \"Dapp/MoneyTransfer.sol\":1206:1216  TotalFunds */\n      sload(0x01)\n        /* \"Dapp/MoneyTransfer.sol\":1206:1220  TotalFunds > 0 */\n      gt\n        /* \"Dapp/MoneyTransfer.sol\":1206:1243  TotalFunds > 0 && TotalFunds > amount */\n      dup1\n      iszero\n      tag_105\n      jumpi\n      pop\n        /* \"Dapp/MoneyTransfer.sol\":1237:1243  amount */\n      sload(0x00)\n        /* \"Dapp/MoneyTransfer.sol\":1224:1234  TotalFunds */\n      sload(0x01)\n        /* \"Dapp/MoneyTransfer.sol\":1224:1243  TotalFunds > amount */\n      gt\n        /* \"Dapp/MoneyTransfer.sol\":1206:1243  TotalFunds > 0 && TotalFunds > amount */\n    tag_105:\n        /* \"Dapp/MoneyTransfer.sol\":1203:1581  if(TotalFunds > 0 && TotalFunds > amount){... */\n      iszero\n      tag_106\n      jumpi\n        /* \"Dapp/MoneyTransfer.sol\":1281:1287  amount */\n      sload(0x00)\n        /* \"Dapp/MoneyTransfer.sol\":1267:1277  TotalFunds */\n      0x01\n      0x00\n        /* \"Dapp/MoneyTransfer.sol\":1267:1287  TotalFunds -= amount */\n      dup3\n      dup3\n      sload\n      tag_107\n      swap2\n      swap1\n      tag_108\n      jump\t// in\n    tag_107:\n      swap3\n      pop\n      pop\n      dup2\n      swap1\n      sstore\n      pop\n        /* \"Dapp/MoneyTransfer.sol\":1325:1331  amount */\n      sload(0x00)\n        /* \"Dapp/MoneyTransfer.sol\":1310:1321  TotalAmount */\n      0x0c\n      0x00\n        /* \"Dapp/MoneyTransfer.sol\":1310:1331  TotalAmount += amount */\n      dup3\n      dup3\n      sload\n      tag_109\n      swap2\n      swap1\n      tag_85\n      jump\t// in\n    tag_109:\n      swap3\n      pop\n      pop\n      dup2\n      swap1\n      sstore\n      pop\n        /* \"Dapp/MoneyTransfer.sol\":1376:1406  message = \"Transfer completed\" */\n      mload(0x40)\n      dup1\n      0x40\n      add\n      0x40\n      mstore\n      dup1\n      0x12\n      dup2\n      mstore\n      0x20\n      add\n      0x5472616e7366657220636f6d706c657465640000000000000000000000000000\n      dup2\n      mstore\n      pop\n        /* \"Dapp/MoneyTransfer.sol\":1376:1383  message */\n      0x09\n        /* \"Dapp/MoneyTransfer.sol\":1376:1406  message = \"Transfer completed\" */\n      swap1\n      dup2\n      tag_110\n      swap2\n      swap1\n      tag_111\n      jump\t// in\n    tag_110:\n      pop\n        /* \"Dapp/MoneyTransfer.sol\":1203:1581  if(TotalFunds > 0 && TotalFunds > amount){... */\n      jump(tag_112)\n    tag_106:\n        /* \"Dapp/MoneyTransfer.sol\":1534:1560  revert(\"Not enough funds\") */\n      mload(0x40)\n      0x08c379a000000000000000000000000000000000000000000000000000000000\n      dup2\n      mstore\n      0x04\n      add\n      tag_113\n      swap1\n      tag_114\n      jump\t// in\n    tag_113:\n      mload(0x40)\n      dup1\n      swap2\n      sub\n      swap1\n      revert\n        /* \"Dapp/MoneyTransfer.sol\":1203:1581  if(TotalFunds > 0 && TotalFunds > amount){... */\n    tag_112:\n        /* \"Dapp/MoneyTransfer.sol\":824:1659  function sendMoney( uint _amount, address _receiver) public m_validAddress(_receiver) m_ifCardExists m_transferLimit{... */\n      pop\n      pop\n      pop\n      jump\t// out\n        /* \"Dapp/MoneyTransfer.sol\":524:553  uint public firstTransferTime */\n    tag_27:\n      sload(0x0d)\n      dup2\n      jump\t// out\n        /* \"Dapp/MoneyTransfer.sol\":1667:1932  function setCard(string memory _cardNumber, string memory _cvv) public  m_checkCard {... */\n    tag_33:\n        /* \"Dapp/MoneyTransfer.sol\":1781:1792  _cardNumber */\n      dup2\n        /* \"Dapp/MoneyTransfer.sol\":1768:1778  cardNumber */\n      0x0a\n        /* \"Dapp/MoneyTransfer.sol\":1768:1792  cardNumber = _cardNumber */\n      swap1\n      dup2\n      tag_117\n      swap2\n      swap1\n      tag_111\n      jump\t// in\n    tag_117:\n      pop\n        /* \"Dapp/MoneyTransfer.sol\":1813:1817  _cvv */\n      dup1\n        /* \"Dapp/MoneyTransfer.sol\":1807:1810  cvv */\n      0x0b\n        /* \"Dapp/MoneyTransfer.sol\":1807:1817  cvv = _cvv */\n      swap1\n      dup2\n      tag_118\n      swap2\n      swap1\n      tag_111\n      jump\t// in\n    tag_118:\n      pop\n        /* \"Dapp/MoneyTransfer.sol\":1865:1869  true */\n      0x01\n        /* \"Dapp/MoneyTransfer.sol\":1851:1862  callPutCard */\n      0x10\n      0x00\n        /* \"Dapp/MoneyTransfer.sol\":1851:1869  callPutCard = true */\n      0x0100\n      exp\n      dup2\n      sload\n      dup2\n      0xff\n      mul\n      not\n      and\n      swap1\n      dup4\n      iszero\n      iszero\n      mul\n      or\n      swap1\n      sstore\n      pop\n        /* \"Dapp/MoneyTransfer.sol\":1907:1922  block.timestamp */\n      timestamp\n        /* \"Dapp/MoneyTransfer.sol\":1887:1904  firstTransferTime */\n      0x0d\n        /* \"Dapp/MoneyTransfer.sol\":1887:1922  firstTransferTime = block.timestamp */\n      dup2\n      swap1\n      sstore\n      pop\n        /* \"Dapp/MoneyTransfer.sol\":2414:2415  8 */\n      0x08\n        /* \"Dapp/MoneyTransfer.sol\":2392:2402  cardNumber */\n      0x0a\n        /* \"Dapp/MoneyTransfer.sol\":2386:2410  bytes(cardNumber).length */\n      dup1\n      sload\n      tag_119\n      swap1\n      tag_120\n      jump\t// in\n    tag_119:\n      swap1\n      pop\n        /* \"Dapp/MoneyTransfer.sol\":2386:2415  bytes(cardNumber).length == 8 */\n      eq\n        /* \"Dapp/MoneyTransfer.sol\":2386:2441  bytes(cardNumber).length == 8 && bytes(cvv).length == 3 */\n      dup1\n      iszero\n      tag_121\n      jumpi\n      pop\n        /* \"Dapp/MoneyTransfer.sol\":2440:2441  3 */\n      0x03\n        /* \"Dapp/MoneyTransfer.sol\":2425:2428  cvv */\n      0x0b\n        /* \"Dapp/MoneyTransfer.sol\":2419:2436  bytes(cvv).length */\n      dup1\n      sload\n      tag_122\n      swap1\n      tag_120\n      jump\t// in\n    tag_122:\n      swap1\n      pop\n        /* \"Dapp/MoneyTransfer.sol\":2419:2441  bytes(cvv).length == 3 */\n      eq\n        /* \"Dapp/MoneyTransfer.sol\":2386:2441  bytes(cardNumber).length == 8 && bytes(cvv).length == 3 */\n    tag_121:\n        /* \"Dapp/MoneyTransfer.sol\":2378:2466  require(bytes(cardNumber).length == 8 && bytes(cvv).length == 3, \"No valid credit card\") */\n      tag_123\n      jumpi\n      mload(0x40)\n      0x08c379a000000000000000000000000000000000000000000000000000000000\n      dup2\n      mstore\n      0x04\n      add\n      tag_124\n      swap1\n      tag_125\n      jump\t// in\n    tag_124:\n      mload(0x40)\n      dup1\n      swap2\n      sub\n      swap1\n      revert\n    tag_123:\n        /* \"Dapp/MoneyTransfer.sol\":1667:1932  function setCard(string memory _cardNumber, string memory _cvv) public  m_checkCard {... */\n      pop\n      pop\n      jump\t// out\n        /* \"Dapp/MoneyTransfer.sol\":560:585  uint public countTransfer */\n    tag_35:\n      sload(0x0e)\n      dup2\n      jump\t// out\n        /* \"Dapp/MoneyTransfer.sol\":783:814  bool public callPutCard = false */\n    tag_38:\n      0x10\n      0x00\n      swap1\n      sload\n      swap1\n      0x0100\n      exp\n      swap1\n      div\n      0xff\n      and\n      dup2\n      jump\t// out\n        /* \"Dapp/MoneyTransfer.sol\":470:487  string public cvv */\n    tag_42:\n      0x0b\n      dup1\n      sload\n      tag_126\n      swap1\n      tag_120\n      jump\t// in\n    tag_126:\n      dup1\n      0x1f\n      add\n      0x20\n      dup1\n      swap2\n      div\n      mul\n      0x20\n      add\n      mload(0x40)\n      swap1\n      dup2\n      add\n      0x40\n      mstore\n      dup1\n      swap3\n      swap2\n      swap1\n      dup2\n      dup2\n      mstore\n      0x20\n      add\n      dup3\n      dup1\n      sload\n      tag_127\n      swap1\n      tag_120\n      jump\t// in\n    tag_127:\n      dup1\n      iszero\n      tag_128\n      jumpi\n      dup1\n      0x1f\n      lt\n      tag_129\n      jumpi\n      0x0100\n      dup1\n      dup4\n      sload\n      div\n      mul\n      dup4\n      mstore\n      swap2\n      0x20\n      add\n      swap2\n      jump(tag_128)\n    tag_129:\n      dup3\n      add\n      swap2\n      swap1\n      0x00\n      mstore\n      keccak256(0x00, 0x20)\n      swap1\n    tag_130:\n      dup2\n      sload\n      dup2\n      mstore\n      swap1\n      0x01\n      add\n      swap1\n      0x20\n      add\n      dup1\n      dup4\n      gt\n      tag_130\n      jumpi\n      dup3\n      swap1\n      sub\n      0x1f\n      and\n      dup3\n      add\n      swap2\n    tag_128:\n      pop\n      pop\n      pop\n      pop\n      pop\n      dup2\n      jump\t// out\n        /* \"Dapp/MoneyTransfer.sol\":750:775  uint public callCount = 0 */\n    tag_46:\n      sload(0x0f)\n      dup2\n      jump\t// out\n        /* \"Dapp/MoneyTransfer.sol\":3847:3933  function getTime()public view returns(uint ){... */\n    tag_49:\n        /* \"Dapp/MoneyTransfer.sol\":3885:3889  uint */\n      0x00\n        /* \"Dapp/MoneyTransfer.sol\":3910:3925  block.timestamp */\n      timestamp\n        /* \"Dapp/MoneyTransfer.sol\":3902:3925  return  block.timestamp */\n      swap1\n      pop\n        /* \"Dapp/MoneyTransfer.sol\":3847:3933  function getTime()public view returns(uint ){... */\n      swap1\n      jump\t// out\n        /* \"Dapp/MoneyTransfer.sol\":134:159  uint256 public TotalFunds */\n    tag_52:\n      sload(0x01)\n      dup2\n      jump\t// out\n        /* \"Dapp/MoneyTransfer.sol\":494:520  uint256 public TotalAmount */\n    tag_55:\n      sload(0x0c)\n      dup2\n      jump\t// out\n        /* \"Dapp/MoneyTransfer.sol\":1942:2011  function getOutCard() public  {... */\n    tag_58:\n        /* \"Dapp/MoneyTransfer.sol\":1996:2001  false */\n      0x00\n        /* \"Dapp/MoneyTransfer.sol\":1982:1993  callPutCard */\n      0x10\n      0x00\n        /* \"Dapp/MoneyTransfer.sol\":1982:2001  callPutCard = false */\n      0x0100\n      exp\n      dup2\n      sload\n      dup2\n      0xff\n      mul\n      not\n      and\n      swap1\n      dup4\n      iszero\n      iszero\n      mul\n      or\n      swap1\n      sstore\n      pop\n        /* \"Dapp/MoneyTransfer.sol\":1942:2011  function getOutCard() public  {... */\n      jump\t// out\n        /* \"Dapp/MoneyTransfer.sol\":438:462  string public cardNumber */\n    tag_60:\n      0x0a\n      dup1\n      sload\n      tag_133\n      swap1\n      tag_120\n      jump\t// in\n    tag_133:\n      dup1\n      0x1f\n      add\n      0x20\n      dup1\n      swap2\n      div\n      mul\n      0x20\n      add\n      mload(0x40)\n      swap1\n      dup2\n      add\n      0x40\n      mstore\n      dup1\n      swap3\n      swap2\n      swap1\n      dup2\n      dup2\n      mstore\n      0x20\n      add\n      dup3\n      dup1\n      sload\n      tag_134\n      swap1\n      tag_120\n      jump\t// in\n    tag_134:\n      dup1\n      iszero\n      tag_135\n      jumpi\n      dup1\n      0x1f\n      lt\n      tag_136\n      jumpi\n      0x0100\n      dup1\n      dup4\n      sload\n      div\n      mul\n      dup4\n      mstore\n      swap2\n      0x20\n      add\n      swap2\n      jump(tag_135)\n    tag_136:\n      dup3\n      add\n      swap2\n      swap1\n      0x00\n      mstore\n      keccak256(0x00, 0x20)\n      swap1\n    tag_137:\n      dup2\n      sload\n      dup2\n      mstore\n      swap1\n      0x01\n      add\n      swap1\n      0x20\n      add\n      dup1\n      dup4\n      gt\n      tag_137\n      jumpi\n      dup3\n      swap1\n      sub\n      0x1f\n      and\n      dup3\n      add\n      swap2\n    tag_135:\n      pop\n      pop\n      pop\n      pop\n      pop\n      dup2\n      jump\t// out\n        /* \"Dapp/MoneyTransfer.sol\":252:288  uint256 public totalWeekTransactions */\n    tag_63:\n      sload(0x04)\n      dup2\n      jump\t// out\n        /* \"Dapp/MoneyTransfer.sol\":106:127  uint256 public amount */\n    tag_66:\n      sload(0x00)\n      dup2\n      jump\t// out\n        /* \"Dapp/MoneyTransfer.sol\":375:403  uint256 public receiverFunds */\n    tag_69:\n      sload(0x08)\n      dup2\n      jump\t// out\n        /* \"Dapp/MoneyTransfer.sol\":410:431  string public message */\n    tag_72:\n      0x09\n      dup1\n      sload\n      tag_138\n      swap1\n      tag_120\n      jump\t// in\n    tag_138:\n      dup1\n      0x1f\n      add\n      0x20\n      dup1\n      swap2\n      div\n      mul\n      0x20\n      add\n      mload(0x40)\n      swap1\n      dup2\n      add\n      0x40\n      mstore\n      dup1\n      swap3\n      swap2\n      swap1\n      dup2\n      dup2\n      mstore\n      0x20\n      add\n      dup3\n      dup1\n      sload\n      tag_139\n      swap1\n      tag_120\n      jump\t// in\n    tag_139:\n      dup1\n      iszero\n      tag_140\n      jumpi\n      dup1\n      0x1f\n      lt\n      tag_141\n      jumpi\n      0x0100\n      dup1\n      dup4\n      sload\n      div\n      mul\n      dup4\n      mstore\n      swap2\n      0x20\n      add\n      swap2\n      jump(tag_140)\n    tag_141:\n      dup3\n      add\n      swap2\n      swap1\n      0x00\n      mstore\n      keccak256(0x00, 0x20)\n      swap1\n    tag_142:\n      dup2\n      sload\n      dup2\n      mstore\n      swap1\n      0x01\n      add\n      swap1\n      0x20\n      add\n      dup1\n      dup4\n      gt\n      tag_142\n      jumpi\n      dup3\n      swap1\n      sub\n      0x1f\n      and\n      dup3\n      add\n      swap2\n    tag_140:\n      pop\n      pop\n      pop\n      pop\n      pop\n      dup2\n      jump\t// out\n        /* \"#utility.yul\":7:82   */\n    tag_143:\n        /* \"#utility.yul\":40:46   */\n      0x00\n        /* \"#utility.yul\":73:75   */\n      0x40\n        /* \"#utility.yul\":67:76   */\n      mload\n        /* \"#utility.yul\":57:76   */\n      swap1\n      pop\n        /* \"#utility.yul\":7:82   */\n      swap1\n      jump\t// out\n        /* \"#utility.yul\":88:205   */\n    tag_144:\n        /* \"#utility.yul\":197:198   */\n      0x00\n        /* \"#utility.yul\":194:195   */\n      dup1\n        /* \"#utility.yul\":187:199   */\n      revert\n        /* \"#utility.yul\":211:328   */\n    tag_145:\n        /* \"#utility.yul\":320:321   */\n      0x00\n        /* \"#utility.yul\":317:318   */\n      dup1\n        /* \"#utility.yul\":310:322   */\n      revert\n        /* \"#utility.yul\":334:411   */\n    tag_146:\n        /* \"#utility.yul\":371:378   */\n      0x00\n        /* \"#utility.yul\":400:405   */\n      dup2\n        /* \"#utility.yul\":389:405   */\n      swap1\n      pop\n        /* \"#utility.yul\":334:411   */\n      swap2\n      swap1\n      pop\n      jump\t// out\n        /* \"#utility.yul\":417:539   */\n    tag_147:\n        /* \"#utility.yul\":490:514   */\n      tag_207\n        /* \"#utility.yul\":508:513   */\n      dup2\n        /* \"#utility.yul\":490:514   */\n      tag_146\n      jump\t// in\n    tag_207:\n        /* \"#utility.yul\":483:488   */\n      dup2\n        /* \"#utility.yul\":480:515   */\n      eq\n        /* \"#utility.yul\":470:533   */\n      tag_208\n      jumpi\n        /* \"#utility.yul\":529:530   */\n      0x00\n        /* \"#utility.yul\":526:527   */\n      dup1\n        /* \"#utility.yul\":519:531   */\n      revert\n        /* \"#utility.yul\":470:533   */\n    tag_208:\n        /* \"#utility.yul\":417:539   */\n      pop\n      jump\t// out\n        /* \"#utility.yul\":545:684   */\n    tag_148:\n        /* \"#utility.yul\":591:596   */\n      0x00\n        /* \"#utility.yul\":629:635   */\n      dup2\n        /* \"#utility.yul\":616:636   */\n      calldataload\n        /* \"#utility.yul\":607:636   */\n      swap1\n      pop\n        /* \"#utility.yul\":645:678   */\n      tag_210\n        /* \"#utility.yul\":672:677   */\n      dup2\n        /* \"#utility.yul\":645:678   */\n      tag_147\n      jump\t// in\n    tag_210:\n        /* \"#utility.yul\":545:684   */\n      swap3\n      swap2\n      pop\n      pop\n      jump\t// out\n        /* \"#utility.yul\":690:816   */\n    tag_149:\n        /* \"#utility.yul\":727:734   */\n      0x00\n        /* \"#utility.yul\":767:809   */\n      0xffffffffffffffffffffffffffffffffffffffff\n        /* \"#utility.yul\":760:765   */\n      dup3\n        /* \"#utility.yul\":756:810   */\n      and\n        /* \"#utility.yul\":745:810   */\n      swap1\n      pop\n        /* \"#utility.yul\":690:816   */\n      swap2\n      swap1\n      pop\n      jump\t// out\n        /* \"#utility.yul\":822:918   */\n    tag_150:\n        /* \"#utility.yul\":859:866   */\n      0x00\n        /* \"#utility.yul\":888:912   */\n      tag_213\n        /* \"#utility.yul\":906:911   */\n      dup3\n        /* \"#utility.yul\":888:912   */\n      tag_149\n      jump\t// in\n    tag_213:\n        /* \"#utility.yul\":877:912   */\n      swap1\n      pop\n        /* \"#utility.yul\":822:918   */\n      swap2\n      swap1\n      pop\n      jump\t// out\n        /* \"#utility.yul\":924:1046   */\n    tag_151:\n        /* \"#utility.yul\":997:1021   */\n      tag_215\n        /* \"#utility.yul\":1015:1020   */\n      dup2\n        /* \"#utility.yul\":997:1021   */\n      tag_150\n      jump\t// in\n    tag_215:\n        /* \"#utility.yul\":990:995   */\n      dup2\n        /* \"#utility.yul\":987:1022   */\n      eq\n        /* \"#utility.yul\":977:1040   */\n      tag_216\n      jumpi\n        /* \"#utility.yul\":1036:1037   */\n      0x00\n        /* \"#utility.yul\":1033:1034   */\n      dup1\n        /* \"#utility.yul\":1026:1038   */\n      revert\n        /* \"#utility.yul\":977:1040   */\n    tag_216:\n        /* \"#utility.yul\":924:1046   */\n      pop\n      jump\t// out\n        /* \"#utility.yul\":1052:1191   */\n    tag_152:\n        /* \"#utility.yul\":1098:1103   */\n      0x00\n        /* \"#utility.yul\":1136:1142   */\n      dup2\n        /* \"#utility.yul\":1123:1143   */\n      calldataload\n        /* \"#utility.yul\":1114:1143   */\n      swap1\n      pop\n        /* \"#utility.yul\":1152:1185   */\n      tag_218\n        /* \"#utility.yul\":1179:1184   */\n      dup2\n        /* \"#utility.yul\":1152:1185   */\n      tag_151\n      jump\t// in\n    tag_218:\n        /* \"#utility.yul\":1052:1191   */\n      swap3\n      swap2\n      pop\n      pop\n      jump\t// out\n        /* \"#utility.yul\":1197:1671   */\n    tag_24:\n        /* \"#utility.yul\":1265:1271   */\n      0x00\n        /* \"#utility.yul\":1273:1279   */\n      dup1\n        /* \"#utility.yul\":1322:1324   */\n      0x40\n        /* \"#utility.yul\":1310:1319   */\n      dup4\n        /* \"#utility.yul\":1301:1308   */\n      dup6\n        /* \"#utility.yul\":1297:1320   */\n      sub\n        /* \"#utility.yul\":1293:1325   */\n      slt\n        /* \"#utility.yul\":1290:1409   */\n      iszero\n      tag_220\n      jumpi\n        /* \"#utility.yul\":1328:1407   */\n      tag_221\n      tag_144\n      jump\t// in\n    tag_221:\n        /* \"#utility.yul\":1290:1409   */\n    tag_220:\n        /* \"#utility.yul\":1448:1449   */\n      0x00\n        /* \"#utility.yul\":1473:1526   */\n      tag_222\n        /* \"#utility.yul\":1518:1525   */\n      dup6\n        /* \"#utility.yul\":1509:1515   */\n      dup3\n        /* \"#utility.yul\":1498:1507   */\n      dup7\n        /* \"#utility.yul\":1494:1516   */\n      add\n        /* \"#utility.yul\":1473:1526   */\n      tag_148\n      jump\t// in\n    tag_222:\n        /* \"#utility.yul\":1463:1526   */\n      swap3\n      pop\n        /* \"#utility.yul\":1419:1536   */\n      pop\n        /* \"#utility.yul\":1575:1577   */\n      0x20\n        /* \"#utility.yul\":1601:1654   */\n      tag_223\n        /* \"#utility.yul\":1646:1653   */\n      dup6\n        /* \"#utility.yul\":1637:1643   */\n      dup3\n        /* \"#utility.yul\":1626:1635   */\n      dup7\n        /* \"#utility.yul\":1622:1644   */\n      add\n        /* \"#utility.yul\":1601:1654   */\n      tag_152\n      jump\t// in\n    tag_223:\n        /* \"#utility.yul\":1591:1654   */\n      swap2\n      pop\n        /* \"#utility.yul\":1546:1664   */\n      pop\n        /* \"#utility.yul\":1197:1671   */\n      swap3\n      pop\n      swap3\n      swap1\n      pop\n      jump\t// out\n        /* \"#utility.yul\":1677:1795   */\n    tag_153:\n        /* \"#utility.yul\":1764:1788   */\n      tag_225\n        /* \"#utility.yul\":1782:1787   */\n      dup2\n        /* \"#utility.yul\":1764:1788   */\n      tag_146\n      jump\t// in\n    tag_225:\n        /* \"#utility.yul\":1759:1762   */\n      dup3\n        /* \"#utility.yul\":1752:1789   */\n      mstore\n        /* \"#utility.yul\":1677:1795   */\n      pop\n      pop\n      jump\t// out\n        /* \"#utility.yul\":1801:2023   */\n    tag_29:\n        /* \"#utility.yul\":1894:1898   */\n      0x00\n        /* \"#utility.yul\":1932:1934   */\n      0x20\n        /* \"#utility.yul\":1921:1930   */\n      dup3\n        /* \"#utility.yul\":1917:1935   */\n      add\n        /* \"#utility.yul\":1909:1935   */\n      swap1\n      pop\n        /* \"#utility.yul\":1945:2016   */\n      tag_227\n        /* \"#utility.yul\":2013:2014   */\n      0x00\n        /* \"#utility.yul\":2002:2011   */\n      dup4\n        /* \"#utility.yul\":1998:2015   */\n      add\n        /* \"#utility.yul\":1989:1995   */\n      dup5\n        /* \"#utility.yul\":1945:2016   */\n      tag_153\n      jump\t// in\n    tag_227:\n        /* \"#utility.yul\":1801:2023   */\n      swap3\n      swap2\n      pop\n      pop\n      jump\t// out\n        /* \"#utility.yul\":2029:2146   */\n    tag_154:\n        /* \"#utility.yul\":2138:2139   */\n      0x00\n        /* \"#utility.yul\":2135:2136   */\n      dup1\n        /* \"#utility.yul\":2128:2140   */\n      revert\n        /* \"#utility.yul\":2152:2269   */\n    tag_155:\n        /* \"#utility.yul\":2261:2262   */\n      0x00\n        /* \"#utility.yul\":2258:2259   */\n      dup1\n        /* \"#utility.yul\":2251:2263   */\n      revert\n        /* \"#utility.yul\":2275:2377   */\n    tag_156:\n        /* \"#utility.yul\":2316:2322   */\n      0x00\n        /* \"#utility.yul\":2367:2369   */\n      0x1f\n        /* \"#utility.yul\":2363:2370   */\n      not\n        /* \"#utility.yul\":2358:2360   */\n      0x1f\n        /* \"#utility.yul\":2351:2356   */\n      dup4\n        /* \"#utility.yul\":2347:2361   */\n      add\n        /* \"#utility.yul\":2343:2371   */\n      and\n        /* \"#utility.yul\":2333:2371   */\n      swap1\n      pop\n        /* \"#utility.yul\":2275:2377   */\n      swap2\n      swap1\n      pop\n      jump\t// out\n        /* \"#utility.yul\":2383:2563   */\n    tag_157:\n        /* \"#utility.yul\":2431:2508   */\n      0x4e487b7100000000000000000000000000000000000000000000000000000000\n        /* \"#utility.yul\":2428:2429   */\n      0x00\n        /* \"#utility.yul\":2421:2509   */\n      mstore\n        /* \"#utility.yul\":2528:2532   */\n      0x41\n        /* \"#utility.yul\":2525:2526   */\n      0x04\n        /* \"#utility.yul\":2518:2533   */\n      mstore\n        /* \"#utility.yul\":2552:2556   */\n      0x24\n        /* \"#utility.yul\":2549:2550   */\n      0x00\n        /* \"#utility.yul\":2542:2557   */\n      revert\n        /* \"#utility.yul\":2569:2850   */\n    tag_158:\n        /* \"#utility.yul\":2652:2679   */\n      tag_233\n        /* \"#utility.yul\":2674:2678   */\n      dup3\n        /* \"#utility.yul\":2652:2679   */\n      tag_156\n      jump\t// in\n    tag_233:\n        /* \"#utility.yul\":2644:2650   */\n      dup2\n        /* \"#utility.yul\":2640:2680   */\n      add\n        /* \"#utility.yul\":2782:2788   */\n      dup2\n        /* \"#utility.yul\":2770:2780   */\n      dup2\n        /* \"#utility.yul\":2767:2789   */\n      lt\n        /* \"#utility.yul\":2746:2764   */\n      0xffffffffffffffff\n        /* \"#utility.yul\":2734:2744   */\n      dup3\n        /* \"#utility.yul\":2731:2765   */\n      gt\n        /* \"#utility.yul\":2728:2790   */\n      or\n        /* \"#utility.yul\":2725:2813   */\n      iszero\n      tag_234\n      jumpi\n        /* \"#utility.yul\":2793:2811   */\n      tag_235\n      tag_157\n      jump\t// in\n    tag_235:\n        /* \"#utility.yul\":2725:2813   */\n    tag_234:\n        /* \"#utility.yul\":2833:2843   */\n      dup1\n        /* \"#utility.yul\":2829:2831   */\n      0x40\n        /* \"#utility.yul\":2822:2844   */\n      mstore\n        /* \"#utility.yul\":2612:2850   */\n      pop\n        /* \"#utility.yul\":2569:2850   */\n      pop\n      pop\n      jump\t// out\n        /* \"#utility.yul\":2856:2985   */\n    tag_159:\n        /* \"#utility.yul\":2890:2896   */\n      0x00\n        /* \"#utility.yul\":2917:2937   */\n      tag_237\n      tag_143\n      jump\t// in\n    tag_237:\n        /* \"#utility.yul\":2907:2937   */\n      swap1\n      pop\n        /* \"#utility.yul\":2946:2979   */\n      tag_238\n        /* \"#utility.yul\":2974:2978   */\n      dup3\n        /* \"#utility.yul\":2966:2972   */\n      dup3\n        /* \"#utility.yul\":2946:2979   */\n      tag_158\n      jump\t// in\n    tag_238:\n        /* \"#utility.yul\":2856:2985   */\n      swap2\n      swap1\n      pop\n      jump\t// out\n        /* \"#utility.yul\":2991:3299   */\n    tag_160:\n        /* \"#utility.yul\":3053:3057   */\n      0x00\n        /* \"#utility.yul\":3143:3161   */\n      0xffffffffffffffff\n        /* \"#utility.yul\":3135:3141   */\n      dup3\n        /* \"#utility.yul\":3132:3162   */\n      gt\n        /* \"#utility.yul\":3129:3185   */\n      iszero\n      tag_240\n      jumpi\n        /* \"#utility.yul\":3165:3183   */\n      tag_241\n      tag_157\n      jump\t// in\n    tag_241:\n        /* \"#utility.yul\":3129:3185   */\n    tag_240:\n        /* \"#utility.yul\":3203:3232   */\n      tag_242\n        /* \"#utility.yul\":3225:3231   */\n      dup3\n        /* \"#utility.yul\":3203:3232   */\n      tag_156\n      jump\t// in\n    tag_242:\n        /* \"#utility.yul\":3195:3232   */\n      swap1\n      pop\n        /* \"#utility.yul\":3287:3291   */\n      0x20\n        /* \"#utility.yul\":3281:3285   */\n      dup2\n        /* \"#utility.yul\":3277:3292   */\n      add\n        /* \"#utility.yul\":3269:3292   */\n      swap1\n      pop\n        /* \"#utility.yul\":2991:3299   */\n      swap2\n      swap1\n      pop\n      jump\t// out\n        /* \"#utility.yul\":3305:3459   */\n    tag_161:\n        /* \"#utility.yul\":3389:3395   */\n      dup3\n        /* \"#utility.yul\":3384:3387   */\n      dup2\n        /* \"#utility.yul\":3379:3382   */\n      dup4\n        /* \"#utility.yul\":3366:3396   */\n      calldatacopy\n        /* \"#utility.yul\":3451:3452   */\n      0x00\n        /* \"#utility.yul\":3442:3448   */\n      dup4\n        /* \"#utility.yul\":3437:3440   */\n      dup4\n        /* \"#utility.yul\":3433:3449   */\n      add\n        /* \"#utility.yul\":3426:3453   */\n      mstore\n        /* \"#utility.yul\":3305:3459   */\n      pop\n      pop\n      pop\n      jump\t// out\n        /* \"#utility.yul\":3465:3877   */\n    tag_162:\n        /* \"#utility.yul\":3543:3548   */\n      0x00\n        /* \"#utility.yul\":3568:3634   */\n      tag_245\n        /* \"#utility.yul\":3584:3633   */\n      tag_246\n        /* \"#utility.yul\":3626:3632   */\n      dup5\n        /* \"#utility.yul\":3584:3633   */\n      tag_160\n      jump\t// in\n    tag_246:\n        /* \"#utility.yul\":3568:3634   */\n      tag_159\n      jump\t// in\n    tag_245:\n        /* \"#utility.yul\":3559:3634   */\n      swap1\n      pop\n        /* \"#utility.yul\":3657:3663   */\n      dup3\n        /* \"#utility.yul\":3650:3655   */\n      dup2\n        /* \"#utility.yul\":3643:3664   */\n      mstore\n        /* \"#utility.yul\":3695:3699   */\n      0x20\n        /* \"#utility.yul\":3688:3693   */\n      dup2\n        /* \"#utility.yul\":3684:3700   */\n      add\n        /* \"#utility.yul\":3733:3736   */\n      dup5\n        /* \"#utility.yul\":3724:3730   */\n      dup5\n        /* \"#utility.yul\":3719:3722   */\n      dup5\n        /* \"#utility.yul\":3715:3731   */\n      add\n        /* \"#utility.yul\":3712:3737   */\n      gt\n        /* \"#utility.yul\":3709:3821   */\n      iszero\n      tag_247\n      jumpi\n        /* \"#utility.yul\":3740:3819   */\n      tag_248\n      tag_155\n      jump\t// in\n    tag_248:\n        /* \"#utility.yul\":3709:3821   */\n    tag_247:\n        /* \"#utility.yul\":3830:3871   */\n      tag_249\n        /* \"#utility.yul\":3864:3870   */\n      dup5\n        /* \"#utility.yul\":3859:3862   */\n      dup3\n        /* \"#utility.yul\":3854:3857   */\n      dup6\n        /* \"#utility.yul\":3830:3871   */\n      tag_161\n      jump\t// in\n    tag_249:\n        /* \"#utility.yul\":3549:3877   */\n      pop\n        /* \"#utility.yul\":3465:3877   */\n      swap4\n      swap3\n      pop\n      pop\n      pop\n      jump\t// out\n        /* \"#utility.yul\":3897:4237   */\n    tag_163:\n        /* \"#utility.yul\":3953:3958   */\n      0x00\n        /* \"#utility.yul\":4002:4005   */\n      dup3\n        /* \"#utility.yul\":3995:3999   */\n      0x1f\n        /* \"#utility.yul\":3987:3993   */\n      dup4\n        /* \"#utility.yul\":3983:4000   */\n      add\n        /* \"#utility.yul\":3979:4006   */\n      slt\n        /* \"#utility.yul\":3969:4091   */\n      tag_251\n      jumpi\n        /* \"#utility.yul\":4010:4089   */\n      tag_252\n      tag_154\n      jump\t// in\n    tag_252:\n        /* \"#utility.yul\":3969:4091   */\n    tag_251:\n        /* \"#utility.yul\":4127:4133   */\n      dup2\n        /* \"#utility.yul\":4114:4134   */\n      calldataload\n        /* \"#utility.yul\":4152:4231   */\n      tag_253\n        /* \"#utility.yul\":4227:4230   */\n      dup5\n        /* \"#utility.yul\":4219:4225   */\n      dup3\n        /* \"#utility.yul\":4212:4216   */\n      0x20\n        /* \"#utility.yul\":4204:4210   */\n      dup7\n        /* \"#utility.yul\":4200:4217   */\n      add\n        /* \"#utility.yul\":4152:4231   */\n      tag_162\n      jump\t// in\n    tag_253:\n        /* \"#utility.yul\":4143:4231   */\n      swap2\n      pop\n        /* \"#utility.yul\":3959:4237   */\n      pop\n        /* \"#utility.yul\":3897:4237   */\n      swap3\n      swap2\n      pop\n      pop\n      jump\t// out\n        /* \"#utility.yul\":4243:5077   */\n    tag_32:\n        /* \"#utility.yul\":4331:4337   */\n      0x00\n        /* \"#utility.yul\":4339:4345   */\n      dup1\n        /* \"#utility.yul\":4388:4390   */\n      0x40\n        /* \"#utility.yul\":4376:4385   */\n      dup4\n        /* \"#utility.yul\":4367:4374   */\n      dup6\n        /* \"#utility.yul\":4363:4386   */\n      sub\n        /* \"#utility.yul\":4359:4391   */\n      slt\n        /* \"#utility.yul\":4356:4475   */\n      iszero\n      tag_255\n      jumpi\n        /* \"#utility.yul\":4394:4473   */\n      tag_256\n      tag_144\n      jump\t// in\n    tag_256:\n        /* \"#utility.yul\":4356:4475   */\n    tag_255:\n        /* \"#utility.yul\":4542:4543   */\n      0x00\n        /* \"#utility.yul\":4531:4540   */\n      dup4\n        /* \"#utility.yul\":4527:4544   */\n      add\n        /* \"#utility.yul\":4514:4545   */\n      calldataload\n        /* \"#utility.yul\":4572:4590   */\n      0xffffffffffffffff\n        /* \"#utility.yul\":4564:4570   */\n      dup2\n        /* \"#utility.yul\":4561:4591   */\n      gt\n        /* \"#utility.yul\":4558:4675   */\n      iszero\n      tag_257\n      jumpi\n        /* \"#utility.yul\":4594:4673   */\n      tag_258\n      tag_145\n      jump\t// in\n    tag_258:\n        /* \"#utility.yul\":4558:4675   */\n    tag_257:\n        /* \"#utility.yul\":4699:4762   */\n      tag_259\n        /* \"#utility.yul\":4754:4761   */\n      dup6\n        /* \"#utility.yul\":4745:4751   */\n      dup3\n        /* \"#utility.yul\":4734:4743   */\n      dup7\n        /* \"#utility.yul\":4730:4752   */\n      add\n        /* \"#utility.yul\":4699:4762   */\n      tag_163\n      jump\t// in\n    tag_259:\n        /* \"#utility.yul\":4689:4762   */\n      swap3\n      pop\n        /* \"#utility.yul\":4485:4772   */\n      pop\n        /* \"#utility.yul\":4839:4841   */\n      0x20\n        /* \"#utility.yul\":4828:4837   */\n      dup4\n        /* \"#utility.yul\":4824:4842   */\n      add\n        /* \"#utility.yul\":4811:4843   */\n      calldataload\n        /* \"#utility.yul\":4870:4888   */\n      0xffffffffffffffff\n        /* \"#utility.yul\":4862:4868   */\n      dup2\n        /* \"#utility.yul\":4859:4889   */\n      gt\n        /* \"#utility.yul\":4856:4973   */\n      iszero\n      tag_260\n      jumpi\n        /* \"#utility.yul\":4892:4971   */\n      tag_261\n      tag_145\n      jump\t// in\n    tag_261:\n        /* \"#utility.yul\":4856:4973   */\n    tag_260:\n        /* \"#utility.yul\":4997:5060   */\n      tag_262\n        /* \"#utility.yul\":5052:5059   */\n      dup6\n        /* \"#utility.yul\":5043:5049   */\n      dup3\n        /* \"#utility.yul\":5032:5041   */\n      dup7\n        /* \"#utility.yul\":5028:5050   */\n      add\n        /* \"#utility.yul\":4997:5060   */\n      tag_163\n      jump\t// in\n    tag_262:\n        /* \"#utility.yul\":4987:5060   */\n      swap2\n      pop\n        /* \"#utility.yul\":4782:5070   */\n      pop\n        /* \"#utility.yul\":4243:5077   */\n      swap3\n      pop\n      swap3\n      swap1\n      pop\n      jump\t// out\n        /* \"#utility.yul\":5083:5173   */\n    tag_164:\n        /* \"#utility.yul\":5117:5124   */\n      0x00\n        /* \"#utility.yul\":5160:5165   */\n      dup2\n        /* \"#utility.yul\":5153:5166   */\n      iszero\n        /* \"#utility.yul\":5146:5167   */\n      iszero\n        /* \"#utility.yul\":5135:5167   */\n      swap1\n      pop\n        /* \"#utility.yul\":5083:5173   */\n      swap2\n      swap1\n      pop\n      jump\t// out\n        /* \"#utility.yul\":5179:5288   */\n    tag_165:\n        /* \"#utility.yul\":5260:5281   */\n      tag_265\n        /* \"#utility.yul\":5275:5280   */\n      dup2\n        /* \"#utility.yul\":5260:5281   */\n      tag_164\n      jump\t// in\n    tag_265:\n        /* \"#utility.yul\":5255:5258   */\n      dup3\n        /* \"#utility.yul\":5248:5282   */\n      mstore\n        /* \"#utility.yul\":5179:5288   */\n      pop\n      pop\n      jump\t// out\n        /* \"#utility.yul\":5294:5504   */\n    tag_40:\n        /* \"#utility.yul\":5381:5385   */\n      0x00\n        /* \"#utility.yul\":5419:5421   */\n      0x20\n        /* \"#utility.yul\":5408:5417   */\n      dup3\n        /* \"#utility.yul\":5404:5422   */\n      add\n        /* \"#utility.yul\":5396:5422   */\n      swap1\n      pop\n        /* \"#utility.yul\":5432:5497   */\n      tag_267\n        /* \"#utility.yul\":5494:5495   */\n      0x00\n        /* \"#utility.yul\":5483:5492   */\n      dup4\n        /* \"#utility.yul\":5479:5496   */\n      add\n        /* \"#utility.yul\":5470:5476   */\n      dup5\n        /* \"#utility.yul\":5432:5497   */\n      tag_165\n      jump\t// in\n    tag_267:\n        /* \"#utility.yul\":5294:5504   */\n      swap3\n      swap2\n      pop\n      pop\n      jump\t// out\n        /* \"#utility.yul\":5510:5609   */\n    tag_166:\n        /* \"#utility.yul\":5562:5568   */\n      0x00\n        /* \"#utility.yul\":5596:5601   */\n      dup2\n        /* \"#utility.yul\":5590:5602   */\n      mload\n        /* \"#utility.yul\":5580:5602   */\n      swap1\n      pop\n        /* \"#utility.yul\":5510:5609   */\n      swap2\n      swap1\n      pop\n      jump\t// out\n        /* \"#utility.yul\":5615:5784   */\n    tag_167:\n        /* \"#utility.yul\":5699:5710   */\n      0x00\n        /* \"#utility.yul\":5733:5739   */\n      dup3\n        /* \"#utility.yul\":5728:5731   */\n      dup3\n        /* \"#utility.yul\":5721:5740   */\n      mstore\n        /* \"#utility.yul\":5773:5777   */\n      0x20\n        /* \"#utility.yul\":5768:5771   */\n      dup3\n        /* \"#utility.yul\":5764:5778   */\n      add\n        /* \"#utility.yul\":5749:5778   */\n      swap1\n      pop\n        /* \"#utility.yul\":5615:5784   */\n      swap3\n      swap2\n      pop\n      pop\n      jump\t// out\n        /* \"#utility.yul\":5790:6097   */\n    tag_168:\n        /* \"#utility.yul\":5858:5859   */\n      0x00\n        /* \"#utility.yul\":5868:5981   */\n    tag_271:\n        /* \"#utility.yul\":5882:5888   */\n      dup4\n        /* \"#utility.yul\":5879:5880   */\n      dup2\n        /* \"#utility.yul\":5876:5889   */\n      lt\n        /* \"#utility.yul\":5868:5981   */\n      iszero\n      tag_273\n      jumpi\n        /* \"#utility.yul\":5967:5968   */\n      dup1\n        /* \"#utility.yul\":5962:5965   */\n      dup3\n        /* \"#utility.yul\":5958:5969   */\n      add\n        /* \"#utility.yul\":5952:5970   */\n      mload\n        /* \"#utility.yul\":5948:5949   */\n      dup2\n        /* \"#utility.yul\":5943:5946   */\n      dup5\n        /* \"#utility.yul\":5939:5950   */\n      add\n        /* \"#utility.yul\":5932:5971   */\n      mstore\n        /* \"#utility.yul\":5904:5906   */\n      0x20\n        /* \"#utility.yul\":5901:5902   */\n      dup2\n        /* \"#utility.yul\":5897:5907   */\n      add\n        /* \"#utility.yul\":5892:5907   */\n      swap1\n      pop\n        /* \"#utility.yul\":5868:5981   */\n      jump(tag_271)\n    tag_273:\n        /* \"#utility.yul\":5999:6005   */\n      dup4\n        /* \"#utility.yul\":5996:5997   */\n      dup2\n        /* \"#utility.yul\":5993:6006   */\n      gt\n        /* \"#utility.yul\":5990:6091   */\n      iszero\n      tag_274\n      jumpi\n        /* \"#utility.yul\":6079:6080   */\n      0x00\n        /* \"#utility.yul\":6070:6076   */\n      dup5\n        /* \"#utility.yul\":6065:6068   */\n      dup5\n        /* \"#utility.yul\":6061:6077   */\n      add\n        /* \"#utility.yul\":6054:6081   */\n      mstore\n        /* \"#utility.yul\":5990:6091   */\n    tag_274:\n        /* \"#utility.yul\":5839:6097   */\n      pop\n        /* \"#utility.yul\":5790:6097   */\n      pop\n      pop\n      pop\n      jump\t// out\n        /* \"#utility.yul\":6103:6467   */\n    tag_169:\n        /* \"#utility.yul\":6191:6194   */\n      0x00\n        /* \"#utility.yul\":6219:6258   */\n      tag_276\n        /* \"#utility.yul\":6252:6257   */\n      dup3\n        /* \"#utility.yul\":6219:6258   */\n      tag_166\n      jump\t// in\n    tag_276:\n        /* \"#utility.yul\":6274:6345   */\n      tag_277\n        /* \"#utility.yul\":6338:6344   */\n      dup2\n        /* \"#utility.yul\":6333:6336   */\n      dup6\n        /* \"#utility.yul\":6274:6345   */\n      tag_167\n      jump\t// in\n    tag_277:\n        /* \"#utility.yul\":6267:6345   */\n      swap4\n      pop\n        /* \"#utility.yul\":6354:6406   */\n      tag_278\n        /* \"#utility.yul\":6399:6405   */\n      dup2\n        /* \"#utility.yul\":6394:6397   */\n      dup6\n        /* \"#utility.yul\":6387:6391   */\n      0x20\n        /* \"#utility.yul\":6380:6385   */\n      dup7\n        /* \"#utility.yul\":6376:6392   */\n      add\n        /* \"#utility.yul\":6354:6406   */\n      tag_168\n      jump\t// in\n    tag_278:\n        /* \"#utility.yul\":6431:6460   */\n      tag_279\n        /* \"#utility.yul\":6453:6459   */\n      dup2\n        /* \"#utility.yul\":6431:6460   */\n      tag_156\n      jump\t// in\n    tag_279:\n        /* \"#utility.yul\":6426:6429   */\n      dup5\n        /* \"#utility.yul\":6422:6461   */\n      add\n        /* \"#utility.yul\":6415:6461   */\n      swap2\n      pop\n        /* \"#utility.yul\":6195:6467   */\n      pop\n        /* \"#utility.yul\":6103:6467   */\n      swap3\n      swap2\n      pop\n      pop\n      jump\t// out\n        /* \"#utility.yul\":6473:6786   */\n    tag_44:\n        /* \"#utility.yul\":6586:6590   */\n      0x00\n        /* \"#utility.yul\":6624:6626   */\n      0x20\n        /* \"#utility.yul\":6613:6622   */\n      dup3\n        /* \"#utility.yul\":6609:6627   */\n      add\n        /* \"#utility.yul\":6601:6627   */\n      swap1\n      pop\n        /* \"#utility.yul\":6673:6682   */\n      dup2\n        /* \"#utility.yul\":6667:6671   */\n      dup2\n        /* \"#utility.yul\":6663:6683   */\n      sub\n        /* \"#utility.yul\":6659:6660   */\n      0x00\n        /* \"#utility.yul\":6648:6657   */\n      dup4\n        /* \"#utility.yul\":6644:6661   */\n      add\n        /* \"#utility.yul\":6637:6684   */\n      mstore\n        /* \"#utility.yul\":6701:6779   */\n      tag_281\n        /* \"#utility.yul\":6774:6778   */\n      dup2\n        /* \"#utility.yul\":6765:6771   */\n      dup5\n        /* \"#utility.yul\":6701:6779   */\n      tag_169\n      jump\t// in\n    tag_281:\n        /* \"#utility.yul\":6693:6779   */\n      swap1\n      pop\n        /* \"#utility.yul\":6473:6786   */\n      swap3\n      swap2\n      pop\n      pop\n      jump\t// out\n        /* \"#utility.yul\":6792:6970   */\n    tag_170:\n        /* \"#utility.yul\":6932:6962   */\n      0x2054686973206164647265737320646f65736e27742065786973747300000000\n        /* \"#utility.yul\":6928:6929   */\n      0x00\n        /* \"#utility.yul\":6920:6926   */\n      dup3\n        /* \"#utility.yul\":6916:6930   */\n      add\n        /* \"#utility.yul\":6909:6963   */\n      mstore\n        /* \"#utility.yul\":6792:6970   */\n      pop\n      jump\t// out\n        /* \"#utility.yul\":6976:7342   */\n    tag_171:\n        /* \"#utility.yul\":7118:7121   */\n      0x00\n        /* \"#utility.yul\":7139:7206   */\n      tag_284\n        /* \"#utility.yul\":7203:7205   */\n      0x1c\n        /* \"#utility.yul\":7198:7201   */\n      dup4\n        /* \"#utility.yul\":7139:7206   */\n      tag_167\n      jump\t// in\n    tag_284:\n        /* \"#utility.yul\":7132:7206   */\n      swap2\n      pop\n        /* \"#utility.yul\":7215:7308   */\n      tag_285\n        /* \"#utility.yul\":7304:7307   */\n      dup3\n        /* \"#utility.yul\":7215:7308   */\n      tag_170\n      jump\t// in\n    tag_285:\n        /* \"#utility.yul\":7333:7335   */\n      0x20\n        /* \"#utility.yul\":7328:7331   */\n      dup3\n        /* \"#utility.yul\":7324:7336   */\n      add\n        /* \"#utility.yul\":7317:7336   */\n      swap1\n      pop\n        /* \"#utility.yul\":6976:7342   */\n      swap2\n      swap1\n      pop\n      jump\t// out\n        /* \"#utility.yul\":7348:7767   */\n    tag_77:\n        /* \"#utility.yul\":7514:7518   */\n      0x00\n        /* \"#utility.yul\":7552:7554   */\n      0x20\n        /* \"#utility.yul\":7541:7550   */\n      dup3\n        /* \"#utility.yul\":7537:7555   */\n      add\n        /* \"#utility.yul\":7529:7555   */\n      swap1\n      pop\n        /* \"#utility.yul\":7601:7610   */\n      dup2\n        /* \"#utility.yul\":7595:7599   */\n      dup2\n        /* \"#utility.yul\":7591:7611   */\n      sub\n        /* \"#utility.yul\":7587:7588   */\n      0x00\n        /* \"#utility.yul\":7576:7585   */\n      dup4\n        /* \"#utility.yul\":7572:7589   */\n      add\n        /* \"#utility.yul\":7565:7612   */\n      mstore\n        /* \"#utility.yul\":7629:7760   */\n      tag_287\n        /* \"#utility.yul\":7755:7759   */\n      dup2\n        /* \"#utility.yul\":7629:7760   */\n      tag_171\n      jump\t// in\n    tag_287:\n        /* \"#utility.yul\":7621:7760   */\n      swap1\n      pop\n        /* \"#utility.yul\":7348:7767   */\n      swap2\n      swap1\n      pop\n      jump\t// out\n        /* \"#utility.yul\":7773:7946   */\n    tag_172:\n        /* \"#utility.yul\":7913:7938   */\n      0x506c6561736520696e7365727420796f75722063617264000000000000000000\n        /* \"#utility.yul\":7909:7910   */\n      0x00\n        /* \"#utility.yul\":7901:7907   */\n      dup3\n        /* \"#utility.yul\":7897:7911   */\n      add\n        /* \"#utility.yul\":7890:7939   */\n      mstore\n        /* \"#utility.yul\":7773:7946   */\n      pop\n      jump\t// out\n        /* \"#utility.yul\":7952:8318   */\n    tag_173:\n        /* \"#utility.yul\":8094:8097   */\n      0x00\n        /* \"#utility.yul\":8115:8182   */\n      tag_290\n        /* \"#utility.yul\":8179:8181   */\n      0x17\n        /* \"#utility.yul\":8174:8177   */\n      dup4\n        /* \"#utility.yul\":8115:8182   */\n      tag_167\n      jump\t// in\n    tag_290:\n        /* \"#utility.yul\":8108:8182   */\n      swap2\n      pop\n        /* \"#utility.yul\":8191:8284   */\n      tag_291\n        /* \"#utility.yul\":8280:8283   */\n      dup3\n        /* \"#utility.yul\":8191:8284   */\n      tag_172\n      jump\t// in\n    tag_291:\n        /* \"#utility.yul\":8309:8311   */\n      0x20\n        /* \"#utility.yul\":8304:8307   */\n      dup3\n        /* \"#utility.yul\":8300:8312   */\n      add\n        /* \"#utility.yul\":8293:8312   */\n      swap1\n      pop\n        /* \"#utility.yul\":7952:8318   */\n      swap2\n      swap1\n      pop\n      jump\t// out\n        /* \"#utility.yul\":8324:8743   */\n    tag_81:\n        /* \"#utility.yul\":8490:8494   */\n      0x00\n        /* \"#utility.yul\":8528:8530   */\n      0x20\n        /* \"#utility.yul\":8517:8526   */\n      dup3\n        /* \"#utility.yul\":8513:8531   */\n      add\n        /* \"#utility.yul\":8505:8531   */\n      swap1\n      pop\n        /* \"#utility.yul\":8577:8586   */\n      dup2\n        /* \"#utility.yul\":8571:8575   */\n      dup2\n        /* \"#utility.yul\":8567:8587   */\n      sub\n        /* \"#utility.yul\":8563:8564   */\n      0x00\n        /* \"#utility.yul\":8552:8561   */\n      dup4\n        /* \"#utility.yul\":8548:8565   */\n      add\n        /* \"#utility.yul\":8541:8588   */\n      mstore\n        /* \"#utility.yul\":8605:8736   */\n      tag_293\n        /* \"#utility.yul\":8731:8735   */\n      dup2\n        /* \"#utility.yul\":8605:8736   */\n      tag_173\n      jump\t// in\n    tag_293:\n        /* \"#utility.yul\":8597:8736   */\n      swap1\n      pop\n        /* \"#utility.yul\":8324:8743   */\n      swap2\n      swap1\n      pop\n      jump\t// out\n        /* \"#utility.yul\":8749:8929   */\n    tag_174:\n        /* \"#utility.yul\":8797:8874   */\n      0x4e487b7100000000000000000000000000000000000000000000000000000000\n        /* \"#utility.yul\":8794:8795   */\n      0x00\n        /* \"#utility.yul\":8787:8875   */\n      mstore\n        /* \"#utility.yul\":8894:8898   */\n      0x11\n        /* \"#utility.yul\":8891:8892   */\n      0x04\n        /* \"#utility.yul\":8884:8899   */\n      mstore\n        /* \"#utility.yul\":8918:8922   */\n      0x24\n        /* \"#utility.yul\":8915:8916   */\n      0x00\n        /* \"#utility.yul\":8908:8923   */\n      revert\n        /* \"#utility.yul\":8935:9240   */\n    tag_85:\n        /* \"#utility.yul\":8975:8978   */\n      0x00\n        /* \"#utility.yul\":8994:9014   */\n      tag_296\n        /* \"#utility.yul\":9012:9013   */\n      dup3\n        /* \"#utility.yul\":8994:9014   */\n      tag_146\n      jump\t// in\n    tag_296:\n        /* \"#utility.yul\":8989:9014   */\n      swap2\n      pop\n        /* \"#utility.yul\":9028:9048   */\n      tag_297\n        /* \"#utility.yul\":9046:9047   */\n      dup4\n        /* \"#utility.yul\":9028:9048   */\n      tag_146\n      jump\t// in\n    tag_297:\n        /* \"#utility.yul\":9023:9048   */\n      swap3\n      pop\n        /* \"#utility.yul\":9182:9183   */\n      dup3\n        /* \"#utility.yul\":9114:9180   */\n      0xffffffffffffffffffffffffffffffffffffffffffffffffffffffffffffffff\n        /* \"#utility.yul\":9110:9184   */\n      sub\n        /* \"#utility.yul\":9107:9108   */\n      dup3\n        /* \"#utility.yul\":9104:9185   */\n      gt\n        /* \"#utility.yul\":9101:9208   */\n      iszero\n      tag_298\n      jumpi\n        /* \"#utility.yul\":9188:9206   */\n      tag_299\n      tag_174\n      jump\t// in\n    tag_299:\n        /* \"#utility.yul\":9101:9208   */\n    tag_298:\n        /* \"#utility.yul\":9232:9233   */\n      dup3\n        /* \"#utility.yul\":9229:9230   */\n      dup3\n        /* \"#utility.yul\":9225:9234   */\n      add\n        /* \"#utility.yul\":9218:9234   */\n      swap1\n      pop\n        /* \"#utility.yul\":8935:9240   */\n      swap3\n      swap2\n      pop\n      pop\n      jump\t// out\n        /* \"#utility.yul\":9246:9425   */\n    tag_175:\n        /* \"#utility.yul\":9386:9417   */\n      0x596f75207265616368656420746865206c696d69742070657220646179000000\n        /* \"#utility.yul\":9382:9383   */\n      0x00\n        /* \"#utility.yul\":9374:9380   */\n      dup3\n        /* \"#utility.yul\":9370:9384   */\n      add\n        /* \"#utility.yul\":9363:9418   */\n      mstore\n        /* \"#utility.yul\":9246:9425   */\n      pop\n      jump\t// out\n        /* \"#utility.yul\":9431:9797   */\n    tag_176:\n        /* \"#utility.yul\":9573:9576   */\n      0x00\n        /* \"#utility.yul\":9594:9661   */\n      tag_302\n        /* \"#utility.yul\":9658:9660   */\n      0x1d\n        /* \"#utility.yul\":9653:9656   */\n      dup4\n        /* \"#utility.yul\":9594:9661   */\n      tag_167\n      jump\t// in\n    tag_302:\n        /* \"#utility.yul\":9587:9661   */\n      swap2\n      pop\n        /* \"#utility.yul\":9670:9763   */\n      tag_303\n        /* \"#utility.yul\":9759:9762   */\n      dup3\n        /* \"#utility.yul\":9670:9763   */\n      tag_175\n      jump\t// in\n    tag_303:\n        /* \"#utility.yul\":9788:9790   */\n      0x20\n        /* \"#utility.yul\":9783:9786   */\n      dup3\n        /* \"#utility.yul\":9779:9791   */\n      add\n        /* \"#utility.yul\":9772:9791   */\n      swap1\n      pop\n        /* \"#utility.yul\":9431:9797   */\n      swap2\n      swap1\n      pop\n      jump\t// out\n        /* \"#utility.yul\":9803:10222   */\n    tag_88:\n        /* \"#utility.yul\":9969:9973   */\n      0x00\n        /* \"#utility.yul\":10007:10009   */\n      0x20\n        /* \"#utility.yul\":9996:10005   */\n      dup3\n        /* \"#utility.yul\":9992:10010   */\n      add\n        /* \"#utility.yul\":9984:10010   */\n      swap1\n      pop\n        /* \"#utility.yul\":10056:10065   */\n      dup2\n        /* \"#utility.yul\":10050:10054   */\n      dup2\n        /* \"#utility.yul\":10046:10066   */\n      sub\n        /* \"#utility.yul\":10042:10043   */\n      0x00\n        /* \"#utility.yul\":10031:10040   */\n      dup4\n        /* \"#utility.yul\":10027:10044   */\n      add\n        /* \"#utility.yul\":10020:10067   */\n      mstore\n        /* \"#utility.yul\":10084:10215   */\n      tag_305\n        /* \"#utility.yul\":10210:10214   */\n      dup2\n        /* \"#utility.yul\":10084:10215   */\n      tag_176\n      jump\t// in\n    tag_305:\n        /* \"#utility.yul\":10076:10215   */\n      swap1\n      pop\n        /* \"#utility.yul\":9803:10222   */\n      swap2\n      swap1\n      pop\n      jump\t// out\n        /* \"#utility.yul\":10228:10405   */\n    tag_177:\n        /* \"#utility.yul\":10368:10397   */\n      0x6f6e6c792035207472616e73616374696f6e7320706572206461790000000000\n        /* \"#utility.yul\":10364:10365   */\n      0x00\n        /* \"#utility.yul\":10356:10362   */\n      dup3\n        /* \"#utility.yul\":10352:10366   */\n      add\n        /* \"#utility.yul\":10345:10398   */\n      mstore\n        /* \"#utility.yul\":10228:10405   */\n      pop\n      jump\t// out\n        /* \"#utility.yul\":10411:10777   */\n    tag_178:\n        /* \"#utility.yul\":10553:10556   */\n      0x00\n        /* \"#utility.yul\":10574:10641   */\n      tag_308\n        /* \"#utility.yul\":10638:10640   */\n      0x1b\n        /* \"#utility.yul\":10633:10636   */\n      dup4\n        /* \"#utility.yul\":10574:10641   */\n      tag_167\n      jump\t// in\n    tag_308:\n        /* \"#utility.yul\":10567:10641   */\n      swap2\n      pop\n        /* \"#utility.yul\":10650:10743   */\n      tag_309\n        /* \"#utility.yul\":10739:10742   */\n      dup3\n        /* \"#utility.yul\":10650:10743   */\n      tag_177\n      jump\t// in\n    tag_309:\n        /* \"#utility.yul\":10768:10770   */\n      0x20\n        /* \"#utility.yul\":10763:10766   */\n      dup3\n        /* \"#utility.yul\":10759:10771   */\n      add\n        /* \"#utility.yul\":10752:10771   */\n      swap1\n      pop\n        /* \"#utility.yul\":10411:10777   */\n      swap2\n      swap1\n      pop\n      jump\t// out\n        /* \"#utility.yul\":10783:11202   */\n    tag_96:\n        /* \"#utility.yul\":10949:10953   */\n      0x00\n        /* \"#utility.yul\":10987:10989   */\n      0x20\n        /* \"#utility.yul\":10976:10985   */\n      dup3\n        /* \"#utility.yul\":10972:10990   */\n      add\n        /* \"#utility.yul\":10964:10990   */\n      swap1\n      pop\n        /* \"#utility.yul\":11036:11045   */\n      dup2\n        /* \"#utility.yul\":11030:11034   */\n      dup2\n        /* \"#utility.yul\":11026:11046   */\n      sub\n        /* \"#utility.yul\":11022:11023   */\n      0x00\n        /* \"#utility.yul\":11011:11020   */\n      dup4\n        /* \"#utility.yul\":11007:11024   */\n      add\n        /* \"#utility.yul\":11000:11047   */\n      mstore\n        /* \"#utility.yul\":11064:11195   */\n      tag_311\n        /* \"#utility.yul\":11190:11194   */\n      dup2\n        /* \"#utility.yul\":11064:11195   */\n      tag_178\n      jump\t// in\n    tag_311:\n        /* \"#utility.yul\":11056:11195   */\n      swap1\n      pop\n        /* \"#utility.yul\":10783:11202   */\n      swap2\n      swap1\n      pop\n      jump\t// out\n        /* \"#utility.yul\":11208:11386   */\n    tag_179:\n        /* \"#utility.yul\":11348:11378   */\n      0x596f75207265616368656420746865206c696d69742053656e64282900000000\n        /* \"#utility.yul\":11344:11345   */\n      0x00\n        /* \"#utility.yul\":11336:11342   */\n      dup3\n        /* \"#utility.yul\":11332:11346   */\n      add\n        /* \"#utility.yul\":11325:11379   */\n      mstore\n        /* \"#utility.yul\":11208:11386   */\n      pop\n      jump\t// out\n        /* \"#utility.yul\":11392:11758   */\n    tag_180:\n        /* \"#utility.yul\":11534:11537   */\n      0x00\n        /* \"#utility.yul\":11555:11622   */\n      tag_314\n        /* \"#utility.yul\":11619:11621   */\n      0x1c\n        /* \"#utility.yul\":11614:11617   */\n      dup4\n        /* \"#utility.yul\":11555:11622   */\n      tag_167\n      jump\t// in\n    tag_314:\n        /* \"#utility.yul\":11548:11622   */\n      swap2\n      pop\n        /* \"#utility.yul\":11631:11724   */\n      tag_315\n        /* \"#utility.yul\":11720:11723   */\n      dup3\n        /* \"#utility.yul\":11631:11724   */\n      tag_179\n      jump\t// in\n    tag_315:\n        /* \"#utility.yul\":11749:11751   */\n      0x20\n        /* \"#utility.yul\":11744:11747   */\n      dup3\n        /* \"#utility.yul\":11740:11752   */\n      add\n        /* \"#utility.yul\":11733:11752   */\n      swap1\n      pop\n        /* \"#utility.yul\":11392:11758   */\n      swap2\n      swap1\n      pop\n      jump\t// out\n        /* \"#utility.yul\":11764:12183   */\n    tag_103:\n        /* \"#utility.yul\":11930:11934   */\n      0x00\n        /* \"#utility.yul\":11968:11970   */\n      0x20\n        /* \"#utility.yul\":11957:11966   */\n      dup3\n        /* \"#utility.yul\":11953:11971   */\n      add\n        /* \"#utility.yul\":11945:11971   */\n      swap1\n      pop\n        /* \"#utility.yul\":12017:12026   */\n      dup2\n        /* \"#utility.yul\":12011:12015   */\n      dup2\n        /* \"#utility.yul\":12007:12027   */\n      sub\n        /* \"#utility.yul\":12003:12004   */\n      0x00\n        /* \"#utility.yul\":11992:12001   */\n      dup4\n        /* \"#utility.yul\":11988:12005   */\n      add\n        /* \"#utility.yul\":11981:12028   */\n      mstore\n        /* \"#utility.yul\":12045:12176   */\n      tag_317\n        /* \"#utility.yul\":12171:12175   */\n      dup2\n        /* \"#utility.yul\":12045:12176   */\n      tag_180\n      jump\t// in\n    tag_317:\n        /* \"#utility.yul\":12037:12176   */\n      swap1\n      pop\n        /* \"#utility.yul\":11764:12183   */\n      swap2\n      swap1\n      pop\n      jump\t// out\n        /* \"#utility.yul\":12189:12380   */\n    tag_108:\n        /* \"#utility.yul\":12229:12233   */\n      0x00\n        /* \"#utility.yul\":12249:12269   */\n      tag_319\n        /* \"#utility.yul\":12267:12268   */\n      dup3\n        /* \"#utility.yul\":12249:12269   */\n      tag_146\n      jump\t// in\n    tag_319:\n        /* \"#utility.yul\":12244:12269   */\n      swap2\n      pop\n        /* \"#utility.yul\":12283:12303   */\n      tag_320\n        /* \"#utility.yul\":12301:12302   */\n      dup4\n        /* \"#utility.yul\":12283:12303   */\n      tag_146\n      jump\t// in\n    tag_320:\n        /* \"#utility.yul\":12278:12303   */\n      swap3\n      pop\n        /* \"#utility.yul\":12322:12323   */\n      dup3\n        /* \"#utility.yul\":12319:12320   */\n      dup3\n        /* \"#utility.yul\":12316:12324   */\n      lt\n        /* \"#utility.yul\":12313:12347   */\n      iszero\n      tag_321\n      jumpi\n        /* \"#utility.yul\":12327:12345   */\n      tag_322\n      tag_174\n      jump\t// in\n    tag_322:\n        /* \"#utility.yul\":12313:12347   */\n    tag_321:\n        /* \"#utility.yul\":12372:12373   */\n      dup3\n        /* \"#utility.yul\":12369:12370   */\n      dup3\n        /* \"#utility.yul\":12365:12374   */\n      sub\n        /* \"#utility.yul\":12357:12374   */\n      swap1\n      pop\n        /* \"#utility.yul\":12189:12380   */\n      swap3\n      swap2\n      pop\n      pop\n      jump\t// out\n        /* \"#utility.yul\":12386:12566   */\n    tag_181:\n        /* \"#utility.yul\":12434:12511   */\n      0x4e487b7100000000000000000000000000000000000000000000000000000000\n        /* \"#utility.yul\":12431:12432   */\n      0x00\n        /* \"#utility.yul\":12424:12512   */\n      mstore\n        /* \"#utility.yul\":12531:12535   */\n      0x22\n        /* \"#utility.yul\":12528:12529   */\n      0x04\n        /* \"#utility.yul\":12521:12536   */\n      mstore\n        /* \"#utility.yul\":12555:12559   */\n      0x24\n        /* \"#utility.yul\":12552:12553   */\n      0x00\n        /* \"#utility.yul\":12545:12560   */\n      revert\n        /* \"#utility.yul\":12572:12892   */\n    tag_120:\n        /* \"#utility.yul\":12616:12622   */\n      0x00\n        /* \"#utility.yul\":12653:12654   */\n      0x02\n        /* \"#utility.yul\":12647:12651   */\n      dup3\n        /* \"#utility.yul\":12643:12655   */\n      div\n        /* \"#utility.yul\":12633:12655   */\n      swap1\n      pop\n        /* \"#utility.yul\":12700:12701   */\n      0x01\n        /* \"#utility.yul\":12694:12698   */\n      dup3\n        /* \"#utility.yul\":12690:12702   */\n      and\n        /* \"#utility.yul\":12721:12739   */\n      dup1\n        /* \"#utility.yul\":12711:12792   */\n      tag_325\n      jumpi\n        /* \"#utility.yul\":12777:12781   */\n      0x7f\n        /* \"#utility.yul\":12769:12775   */\n      dup3\n        /* \"#utility.yul\":12765:12782   */\n      and\n        /* \"#utility.yul\":12755:12782   */\n      swap2\n      pop\n        /* \"#utility.yul\":12711:12792   */\n    tag_325:\n        /* \"#utility.yul\":12839:12841   */\n      0x20\n        /* \"#utility.yul\":12831:12837   */\n      dup3\n        /* \"#utility.yul\":12828:12842   */\n      lt\n        /* \"#utility.yul\":12808:12826   */\n      dup2\n        /* \"#utility.yul\":12805:12843   */\n      sub\n        /* \"#utility.yul\":12802:12886   */\n      tag_326\n      jumpi\n        /* \"#utility.yul\":12858:12876   */\n      tag_327\n      tag_181\n      jump\t// in\n    tag_327:\n        /* \"#utility.yul\":12802:12886   */\n    tag_326:\n        /* \"#utility.yul\":12623:12892   */\n      pop\n        /* \"#utility.yul\":12572:12892   */\n      swap2\n      swap1\n      pop\n      jump\t// out\n        /* \"#utility.yul\":12898:13039   */\n    tag_182:\n        /* \"#utility.yul\":12947:12951   */\n      0x00\n        /* \"#utility.yul\":12970:12973   */\n      dup2\n        /* \"#utility.yul\":12962:12973   */\n      swap1\n      pop\n        /* \"#utility.yul\":12993:12996   */\n      dup2\n        /* \"#utility.yul\":12990:12991   */\n      0x00\n        /* \"#utility.yul\":12983:12997   */\n      mstore\n        /* \"#utility.yul\":13027:13031   */\n      0x20\n        /* \"#utility.yul\":13024:13025   */\n      0x00\n        /* \"#utility.yul\":13014:13032   */\n      keccak256\n        /* \"#utility.yul\":13006:13032   */\n      swap1\n      pop\n        /* \"#utility.yul\":12898:13039   */\n      swap2\n      swap1\n      pop\n      jump\t// out\n        /* \"#utility.yul\":13045:13138   */\n    tag_183:\n        /* \"#utility.yul\":13082:13088   */\n      0x00\n        /* \"#utility.yul\":13129:13131   */\n      0x20\n        /* \"#utility.yul\":13124:13126   */\n      0x1f\n        /* \"#utility.yul\":13117:13122   */\n      dup4\n        /* \"#utility.yul\":13113:13127   */\n      add\n        /* \"#utility.yul\":13109:13132   */\n      div\n        /* \"#utility.yul\":13099:13132   */\n      swap1\n      pop\n        /* \"#utility.yul\":13045:13138   */\n      swap2\n      swap1\n      pop\n      jump\t// out\n        /* \"#utility.yul\":13144:13251   */\n    tag_184:\n        /* \"#utility.yul\":13188:13196   */\n      0x00\n        /* \"#utility.yul\":13238:13243   */\n      dup3\n        /* \"#utility.yul\":13232:13236   */\n      dup3\n        /* \"#utility.yul\":13228:13244   */\n      shl\n        /* \"#utility.yul\":13207:13244   */\n      swap1\n      pop\n        /* \"#utility.yul\":13144:13251   */\n      swap3\n      swap2\n      pop\n      pop\n      jump\t// out\n        /* \"#utility.yul\":13257:13650   */\n    tag_185:\n        /* \"#utility.yul\":13326:13332   */\n      0x00\n        /* \"#utility.yul\":13376:13377   */\n      0x08\n        /* \"#utility.yul\":13364:13374   */\n      dup4\n        /* \"#utility.yul\":13360:13378   */\n      mul\n        /* \"#utility.yul\":13399:13496   */\n      tag_332\n        /* \"#utility.yul\":13429:13495   */\n      0xffffffffffffffffffffffffffffffffffffffffffffffffffffffffffffffff\n        /* \"#utility.yul\":13418:13427   */\n      dup3\n        /* \"#utility.yul\":13399:13496   */\n      tag_184\n      jump\t// in\n    tag_332:\n        /* \"#utility.yul\":13517:13556   */\n      tag_333\n        /* \"#utility.yul\":13547:13555   */\n      dup7\n        /* \"#utility.yul\":13536:13545   */\n      dup4\n        /* \"#utility.yul\":13517:13556   */\n      tag_184\n      jump\t// in\n    tag_333:\n        /* \"#utility.yul\":13505:13556   */\n      swap6\n      pop\n        /* \"#utility.yul\":13589:13593   */\n      dup1\n        /* \"#utility.yul\":13585:13594   */\n      not\n        /* \"#utility.yul\":13578:13583   */\n      dup5\n        /* \"#utility.yul\":13574:13595   */\n      and\n        /* \"#utility.yul\":13565:13595   */\n      swap4\n      pop\n        /* \"#utility.yul\":13638:13642   */\n      dup1\n        /* \"#utility.yul\":13628:13636   */\n      dup7\n        /* \"#utility.yul\":13624:13643   */\n      and\n        /* \"#utility.yul\":13617:13622   */\n      dup5\n        /* \"#utility.yul\":13614:13644   */\n      or\n        /* \"#utility.yul\":13604:13644   */\n      swap3\n      pop\n        /* \"#utility.yul\":13333:13650   */\n      pop\n      pop\n        /* \"#utility.yul\":13257:13650   */\n      swap4\n      swap3\n      pop\n      pop\n      pop\n      jump\t// out\n        /* \"#utility.yul\":13656:13716   */\n    tag_186:\n        /* \"#utility.yul\":13684:13687   */\n      0x00\n        /* \"#utility.yul\":13705:13710   */\n      dup2\n        /* \"#utility.yul\":13698:13710   */\n      swap1\n      pop\n        /* \"#utility.yul\":13656:13716   */\n      swap2\n      swap1\n      pop\n      jump\t// out\n        /* \"#utility.yul\":13722:13864   */\n    tag_187:\n        /* \"#utility.yul\":13772:13781   */\n      0x00\n        /* \"#utility.yul\":13805:13858   */\n      tag_336\n        /* \"#utility.yul\":13823:13857   */\n      tag_337\n        /* \"#utility.yul\":13832:13856   */\n      tag_338\n        /* \"#utility.yul\":13850:13855   */\n      dup5\n        /* \"#utility.yul\":13832:13856   */\n      tag_146\n      jump\t// in\n    tag_338:\n        /* \"#utility.yul\":13823:13857   */\n      tag_186\n      jump\t// in\n    tag_337:\n        /* \"#utility.yul\":13805:13858   */\n      tag_146\n      jump\t// in\n    tag_336:\n        /* \"#utility.yul\":13792:13858   */\n      swap1\n      pop\n        /* \"#utility.yul\":13722:13864   */\n      swap2\n      swap1\n      pop\n      jump\t// out\n        /* \"#utility.yul\":13870:13945   */\n    tag_188:\n        /* \"#utility.yul\":13913:13916   */\n      0x00\n        /* \"#utility.yul\":13934:13939   */\n      dup2\n        /* \"#utility.yul\":13927:13939   */\n      swap1\n      pop\n        /* \"#utility.yul\":13870:13945   */\n      swap2\n      swap1\n      pop\n      jump\t// out\n        /* \"#utility.yul\":13951:14220   */\n    tag_189:\n        /* \"#utility.yul\":14061:14100   */\n      tag_341\n        /* \"#utility.yul\":14092:14099   */\n      dup4\n        /* \"#utility.yul\":14061:14100   */\n      tag_187\n      jump\t// in\n    tag_341:\n        /* \"#utility.yul\":14122:14213   */\n      tag_342\n        /* \"#utility.yul\":14171:14212   */\n      tag_343\n        /* \"#utility.yul\":14195:14211   */\n      dup3\n        /* \"#utility.yul\":14171:14212   */\n      tag_188\n      jump\t// in\n    tag_343:\n        /* \"#utility.yul\":14163:14169   */\n      dup5\n        /* \"#utility.yul\":14156:14160   */\n      dup5\n        /* \"#utility.yul\":14150:14161   */\n      sload\n        /* \"#utility.yul\":14122:14213   */\n      tag_185\n      jump\t// in\n    tag_342:\n        /* \"#utility.yul\":14116:14120   */\n      dup3\n        /* \"#utility.yul\":14109:14214   */\n      sstore\n        /* \"#utility.yul\":14027:14220   */\n      pop\n        /* \"#utility.yul\":13951:14220   */\n      pop\n      pop\n      pop\n      jump\t// out\n        /* \"#utility.yul\":14226:14299   */\n    tag_190:\n        /* \"#utility.yul\":14271:14274   */\n      0x00\n        /* \"#utility.yul\":14226:14299   */\n      swap1\n      jump\t// out\n        /* \"#utility.yul\":14305:14494   */\n    tag_191:\n        /* \"#utility.yul\":14382:14414   */\n      tag_346\n      tag_190\n      jump\t// in\n    tag_346:\n        /* \"#utility.yul\":14423:14488   */\n      tag_347\n        /* \"#utility.yul\":14481:14487   */\n      dup2\n        /* \"#utility.yul\":14473:14479   */\n      dup5\n        /* \"#utility.yul\":14467:14471   */\n      dup5\n        /* \"#utility.yul\":14423:14488   */\n      tag_189\n      jump\t// in\n    tag_347:\n        /* \"#utility.yul\":14358:14494   */\n      pop\n        /* \"#utility.yul\":14305:14494   */\n      pop\n      pop\n      jump\t// out\n        /* \"#utility.yul\":14500:14686   */\n    tag_192:\n        /* \"#utility.yul\":14560:14680   */\n    tag_349:\n        /* \"#utility.yul\":14577:14580   */\n      dup2\n        /* \"#utility.yul\":14570:14575   */\n      dup2\n        /* \"#utility.yul\":14567:14581   */\n      lt\n        /* \"#utility.yul\":14560:14680   */\n      iszero\n      tag_351\n      jumpi\n        /* \"#utility.yul\":14631:14670   */\n      tag_352\n        /* \"#utility.yul\":14668:14669   */\n      0x00\n        /* \"#utility.yul\":14661:14666   */\n      dup3\n        /* \"#utility.yul\":14631:14670   */\n      tag_191\n      jump\t// in\n    tag_352:\n        /* \"#utility.yul\":14604:14605   */\n      0x01\n        /* \"#utility.yul\":14597:14602   */\n      dup2\n        /* \"#utility.yul\":14593:14606   */\n      add\n        /* \"#utility.yul\":14584:14606   */\n      swap1\n      pop\n        /* \"#utility.yul\":14560:14680   */\n      jump(tag_349)\n    tag_351:\n        /* \"#utility.yul\":14500:14686   */\n      pop\n      pop\n      jump\t// out\n        /* \"#utility.yul\":14692:15235   */\n    tag_193:\n        /* \"#utility.yul\":14793:14795   */\n      0x1f\n        /* \"#utility.yul\":14788:14791   */\n      dup3\n        /* \"#utility.yul\":14785:14796   */\n      gt\n        /* \"#utility.yul\":14782:15228   */\n      iszero\n      tag_354\n      jumpi\n        /* \"#utility.yul\":14827:14865   */\n      tag_355\n        /* \"#utility.yul\":14859:14864   */\n      dup2\n        /* \"#utility.yul\":14827:14865   */\n      tag_182\n      jump\t// in\n    tag_355:\n        /* \"#utility.yul\":14911:14940   */\n      tag_356\n        /* \"#utility.yul\":14929:14939   */\n      dup5\n        /* \"#utility.yul\":14911:14940   */\n      tag_183\n      jump\t// in\n    tag_356:\n        /* \"#utility.yul\":14901:14909   */\n      dup2\n        /* \"#utility.yul\":14897:14941   */\n      add\n        /* \"#utility.yul\":15094:15096   */\n      0x20\n        /* \"#utility.yul\":15082:15092   */\n      dup6\n        /* \"#utility.yul\":15079:15097   */\n      lt\n        /* \"#utility.yul\":15076:15125   */\n      iszero\n      tag_357\n      jumpi\n        /* \"#utility.yul\":15115:15123   */\n      dup2\n        /* \"#utility.yul\":15100:15123   */\n      swap1\n      pop\n        /* \"#utility.yul\":15076:15125   */\n    tag_357:\n        /* \"#utility.yul\":15138:15218   */\n      tag_358\n        /* \"#utility.yul\":15194:15216   */\n      tag_359\n        /* \"#utility.yul\":15212:15215   */\n      dup6\n        /* \"#utility.yul\":15194:15216   */\n      tag_183\n      jump\t// in\n    tag_359:\n        /* \"#utility.yul\":15184:15192   */\n      dup4\n        /* \"#utility.yul\":15180:15217   */\n      add\n        /* \"#utility.yul\":15167:15178   */\n      dup3\n        /* \"#utility.yul\":15138:15218   */\n      tag_192\n      jump\t// in\n    tag_358:\n        /* \"#utility.yul\":14797:15228   */\n      pop\n      pop\n        /* \"#utility.yul\":14782:15228   */\n    tag_354:\n        /* \"#utility.yul\":14692:15235   */\n      pop\n      pop\n      pop\n      jump\t// out\n        /* \"#utility.yul\":15241:15358   */\n    tag_194:\n        /* \"#utility.yul\":15295:15303   */\n      0x00\n        /* \"#utility.yul\":15345:15350   */\n      dup3\n        /* \"#utility.yul\":15339:15343   */\n      dup3\n        /* \"#utility.yul\":15335:15351   */\n      shr\n        /* \"#utility.yul\":15314:15351   */\n      swap1\n      pop\n        /* \"#utility.yul\":15241:15358   */\n      swap3\n      swap2\n      pop\n      pop\n      jump\t// out\n        /* \"#utility.yul\":15364:15533   */\n    tag_195:\n        /* \"#utility.yul\":15408:15414   */\n      0x00\n        /* \"#utility.yul\":15441:15492   */\n      tag_362\n        /* \"#utility.yul\":15489:15490   */\n      0x00\n        /* \"#utility.yul\":15485:15491   */\n      not\n        /* \"#utility.yul\":15477:15482   */\n      dup5\n        /* \"#utility.yul\":15474:15475   */\n      0x08\n        /* \"#utility.yul\":15470:15483   */\n      mul\n        /* \"#utility.yul\":15441:15492   */\n      tag_194\n      jump\t// in\n    tag_362:\n        /* \"#utility.yul\":15437:15493   */\n      not\n        /* \"#utility.yul\":15522:15526   */\n      dup1\n        /* \"#utility.yul\":15516:15520   */\n      dup4\n        /* \"#utility.yul\":15512:15527   */\n      and\n        /* \"#utility.yul\":15502:15527   */\n      swap2\n      pop\n        /* \"#utility.yul\":15415:15533   */\n      pop\n        /* \"#utility.yul\":15364:15533   */\n      swap3\n      swap2\n      pop\n      pop\n      jump\t// out\n        /* \"#utility.yul\":15538:15833   */\n    tag_196:\n        /* \"#utility.yul\":15614:15618   */\n      0x00\n        /* \"#utility.yul\":15760:15789   */\n      tag_364\n        /* \"#utility.yul\":15785:15788   */\n      dup4\n        /* \"#utility.yul\":15779:15783   */\n      dup4\n        /* \"#utility.yul\":15760:15789   */\n      tag_195\n      jump\t// in\n    tag_364:\n        /* \"#utility.yul\":15752:15789   */\n      swap2\n      pop\n        /* \"#utility.yul\":15822:15825   */\n      dup3\n        /* \"#utility.yul\":15819:15820   */\n      0x02\n        /* \"#utility.yul\":15815:15826   */\n      mul\n        /* \"#utility.yul\":15809:15813   */\n      dup3\n        /* \"#utility.yul\":15806:15827   */\n      or\n        /* \"#utility.yul\":15798:15827   */\n      swap1\n      pop\n        /* \"#utility.yul\":15538:15833   */\n      swap3\n      swap2\n      pop\n      pop\n      jump\t// out\n        /* \"#utility.yul\":15838:17233   */\n    tag_111:\n        /* \"#utility.yul\":15955:15992   */\n      tag_366\n        /* \"#utility.yul\":15988:15991   */\n      dup3\n        /* \"#utility.yul\":15955:15992   */\n      tag_166\n      jump\t// in\n    tag_366:\n        /* \"#utility.yul\":16057:16075   */\n      0xffffffffffffffff\n        /* \"#utility.yul\":16049:16055   */\n      dup2\n        /* \"#utility.yul\":16046:16076   */\n      gt\n        /* \"#utility.yul\":16043:16099   */\n      iszero\n      tag_367\n      jumpi\n        /* \"#utility.yul\":16079:16097   */\n      tag_368\n      tag_157\n      jump\t// in\n    tag_368:\n        /* \"#utility.yul\":16043:16099   */\n    tag_367:\n        /* \"#utility.yul\":16123:16161   */\n      tag_369\n        /* \"#utility.yul\":16155:16159   */\n      dup3\n        /* \"#utility.yul\":16149:16160   */\n      sload\n        /* \"#utility.yul\":16123:16161   */\n      tag_120\n      jump\t// in\n    tag_369:\n        /* \"#utility.yul\":16208:16275   */\n      tag_370\n        /* \"#utility.yul\":16268:16274   */\n      dup3\n        /* \"#utility.yul\":16260:16266   */\n      dup3\n        /* \"#utility.yul\":16254:16258   */\n      dup6\n        /* \"#utility.yul\":16208:16275   */\n      tag_193\n      jump\t// in\n    tag_370:\n        /* \"#utility.yul\":16302:16303   */\n      0x00\n        /* \"#utility.yul\":16326:16330   */\n      0x20\n        /* \"#utility.yul\":16313:16330   */\n      swap1\n      pop\n        /* \"#utility.yul\":16358:16360   */\n      0x1f\n        /* \"#utility.yul\":16350:16356   */\n      dup4\n        /* \"#utility.yul\":16347:16361   */\n      gt\n        /* \"#utility.yul\":16375:16376   */\n      0x01\n        /* \"#utility.yul\":16370:16988   */\n      dup2\n      eq\n      tag_372\n      jumpi\n        /* \"#utility.yul\":17032:17033   */\n      0x00\n        /* \"#utility.yul\":17049:17055   */\n      dup5\n        /* \"#utility.yul\":17046:17123   */\n      iszero\n      tag_373\n      jumpi\n        /* \"#utility.yul\":17098:17107   */\n      dup3\n        /* \"#utility.yul\":17093:17096   */\n      dup8\n        /* \"#utility.yul\":17089:17108   */\n      add\n        /* \"#utility.yul\":17083:17109   */\n      mload\n        /* \"#utility.yul\":17074:17109   */\n      swap1\n      pop\n        /* \"#utility.yul\":17046:17123   */\n    tag_373:\n        /* \"#utility.yul\":17149:17216   */\n      tag_374\n        /* \"#utility.yul\":17209:17215   */\n      dup6\n        /* \"#utility.yul\":17202:17207   */\n      dup3\n        /* \"#utility.yul\":17149:17216   */\n      tag_196\n      jump\t// in\n    tag_374:\n        /* \"#utility.yul\":17143:17147   */\n      dup7\n        /* \"#utility.yul\":17136:17217   */\n      sstore\n        /* \"#utility.yul\":17005:17227   */\n      pop\n        /* \"#utility.yul\":16340:17227   */\n      jump(tag_371)\n        /* \"#utility.yul\":16370:16988   */\n    tag_372:\n        /* \"#utility.yul\":16422:16426   */\n      0x1f\n        /* \"#utility.yul\":16418:16427   */\n      not\n        /* \"#utility.yul\":16410:16416   */\n      dup5\n        /* \"#utility.yul\":16406:16428   */\n      and\n        /* \"#utility.yul\":16456:16493   */\n      tag_375\n        /* \"#utility.yul\":16488:16492   */\n      dup7\n        /* \"#utility.yul\":16456:16493   */\n      tag_182\n      jump\t// in\n    tag_375:\n        /* \"#utility.yul\":16515:16516   */\n      0x00\n        /* \"#utility.yul\":16529:16737   */\n    tag_376:\n        /* \"#utility.yul\":16543:16550   */\n      dup3\n        /* \"#utility.yul\":16540:16541   */\n      dup2\n        /* \"#utility.yul\":16537:16551   */\n      lt\n        /* \"#utility.yul\":16529:16737   */\n      iszero\n      tag_378\n      jumpi\n        /* \"#utility.yul\":16622:16631   */\n      dup5\n        /* \"#utility.yul\":16617:16620   */\n      dup10\n        /* \"#utility.yul\":16613:16632   */\n      add\n        /* \"#utility.yul\":16607:16633   */\n      mload\n        /* \"#utility.yul\":16599:16605   */\n      dup3\n        /* \"#utility.yul\":16592:16634   */\n      sstore\n        /* \"#utility.yul\":16673:16674   */\n      0x01\n        /* \"#utility.yul\":16665:16671   */\n      dup3\n        /* \"#utility.yul\":16661:16675   */\n      add\n        /* \"#utility.yul\":16651:16675   */\n      swap2\n      pop\n        /* \"#utility.yul\":16720:16722   */\n      0x20\n        /* \"#utility.yul\":16709:16718   */\n      dup6\n        /* \"#utility.yul\":16705:16723   */\n      add\n        /* \"#utility.yul\":16692:16723   */\n      swap5\n      pop\n        /* \"#utility.yul\":16566:16570   */\n      0x20\n        /* \"#utility.yul\":16563:16564   */\n      dup2\n        /* \"#utility.yul\":16559:16571   */\n      add\n        /* \"#utility.yul\":16554:16571   */\n      swap1\n      pop\n        /* \"#utility.yul\":16529:16737   */\n      jump(tag_376)\n    tag_378:\n        /* \"#utility.yul\":16765:16771   */\n      dup7\n        /* \"#utility.yul\":16756:16763   */\n      dup4\n        /* \"#utility.yul\":16753:16772   */\n      lt\n        /* \"#utility.yul\":16750:16929   */\n      iszero\n      tag_379\n      jumpi\n        /* \"#utility.yul\":16823:16832   */\n      dup5\n        /* \"#utility.yul\":16818:16821   */\n      dup10\n        /* \"#utility.yul\":16814:16833   */\n      add\n        /* \"#utility.yul\":16808:16834   */\n      mload\n        /* \"#utility.yul\":16866:16914   */\n      tag_380\n        /* \"#utility.yul\":16908:16912   */\n      0x1f\n        /* \"#utility.yul\":16900:16906   */\n      dup10\n        /* \"#utility.yul\":16896:16913   */\n      and\n        /* \"#utility.yul\":16885:16894   */\n      dup3\n        /* \"#utility.yul\":16866:16914   */\n      tag_195\n      jump\t// in\n    tag_380:\n        /* \"#utility.yul\":16858:16864   */\n      dup4\n        /* \"#utility.yul\":16851:16915   */\n      sstore\n        /* \"#utility.yul\":16773:16929   */\n      pop\n        /* \"#utility.yul\":16750:16929   */\n    tag_379:\n        /* \"#utility.yul\":16975:16976   */\n      0x01\n        /* \"#utility.yul\":16971:16972   */\n      0x02\n        /* \"#utility.yul\":16963:16969   */\n      dup9\n        /* \"#utility.yul\":16959:16973   */\n      mul\n        /* \"#utility.yul\":16955:16977   */\n      add\n        /* \"#utility.yul\":16949:16953   */\n      dup9\n        /* \"#utility.yul\":16942:16978   */\n      sstore\n        /* \"#utility.yul\":16377:16988   */\n      pop\n      pop\n      pop\n        /* \"#utility.yul\":16340:17227   */\n    tag_371:\n      pop\n        /* \"#utility.yul\":15930:17233   */\n      pop\n      pop\n      pop\n        /* \"#utility.yul\":15838:17233   */\n      pop\n      pop\n      jump\t// out\n        /* \"#utility.yul\":17239:17405   */\n    tag_197:\n        /* \"#utility.yul\":17379:17397   */\n      0x4e6f7420656e6f7567682066756e647300000000000000000000000000000000\n        /* \"#utility.yul\":17375:17376   */\n      0x00\n        /* \"#utility.yul\":17367:17373   */\n      dup3\n        /* \"#utility.yul\":17363:17377   */\n      add\n        /* \"#utility.yul\":17356:17398   */\n      mstore\n        /* \"#utility.yul\":17239:17405   */\n      pop\n      jump\t// out\n        /* \"#utility.yul\":17411:17777   */\n    tag_198:\n        /* \"#utility.yul\":17553:17556   */\n      0x00\n        /* \"#utility.yul\":17574:17641   */\n      tag_383\n        /* \"#utility.yul\":17638:17640   */\n      0x10\n        /* \"#utility.yul\":17633:17636   */\n      dup4\n        /* \"#utility.yul\":17574:17641   */\n      tag_167\n      jump\t// in\n    tag_383:\n        /* \"#utility.yul\":17567:17641   */\n      swap2\n      pop\n        /* \"#utility.yul\":17650:17743   */\n      tag_384\n        /* \"#utility.yul\":17739:17742   */\n      dup3\n        /* \"#utility.yul\":17650:17743   */\n      tag_197\n      jump\t// in\n    tag_384:\n        /* \"#utility.yul\":17768:17770   */\n      0x20\n        /* \"#utility.yul\":17763:17766   */\n      dup3\n        /* \"#utility.yul\":17759:17771   */\n      add\n        /* \"#utility.yul\":17752:17771   */\n      swap1\n      pop\n        /* \"#utility.yul\":17411:17777   */\n      swap2\n      swap1\n      pop\n      jump\t// out\n        /* \"#utility.yul\":17783:18202   */\n    tag_114:\n        /* \"#utility.yul\":17949:17953   */\n      0x00\n        /* \"#utility.yul\":17987:17989   */\n      0x20\n        /* \"#utility.yul\":17976:17985   */\n      dup3\n        /* \"#utility.yul\":17972:17990   */\n      add\n        /* \"#utility.yul\":17964:17990   */\n      swap1\n      pop\n        /* \"#utility.yul\":18036:18045   */\n      dup2\n        /* \"#utility.yul\":18030:18034   */\n      dup2\n        /* \"#utility.yul\":18026:18046   */\n      sub\n        /* \"#utility.yul\":18022:18023   */\n      0x00\n        /* \"#utility.yul\":18011:18020   */\n      dup4\n        /* \"#utility.yul\":18007:18024   */\n      add\n        /* \"#utility.yul\":18000:18047   */\n      mstore\n        /* \"#utility.yul\":18064:18195   */\n      tag_386\n        /* \"#utility.yul\":18190:18194   */\n      dup2\n        /* \"#utility.yul\":18064:18195   */\n      tag_198\n      jump\t// in\n    tag_386:\n        /* \"#utility.yul\":18056:18195   */\n      swap1\n      pop\n        /* \"#utility.yul\":17783:18202   */\n      swap2\n      swap1\n      pop\n      jump\t// out\n        /* \"#utility.yul\":18208:18378   */\n    tag_199:\n        /* \"#utility.yul\":18348:18370   */\n      0x4e6f2076616c6964206372656469742063617264000000000000000000000000\n        /* \"#utility.yul\":18344:18345   */\n      0x00\n        /* \"#utility.yul\":18336:18342   */\n      dup3\n        /* \"#utility.yul\":18332:18346   */\n      add\n        /* \"#utility.yul\":18325:18371   */\n      mstore\n        /* \"#utility.yul\":18208:18378   */\n      pop\n      jump\t// out\n        /* \"#utility.yul\":18384:18750   */\n    tag_200:\n        /* \"#utility.yul\":18526:18529   */\n      0x00\n        /* \"#utility.yul\":18547:18614   */\n      tag_389\n        /* \"#utility.yul\":18611:18613   */\n      0x14\n        /* \"#utility.yul\":18606:18609   */\n      dup4\n        /* \"#utility.yul\":18547:18614   */\n      tag_167\n      jump\t// in\n    tag_389:\n        /* \"#utility.yul\":18540:18614   */\n      swap2\n      pop\n        /* \"#utility.yul\":18623:18716   */\n      tag_390\n        /* \"#utility.yul\":18712:18715   */\n      dup3\n        /* \"#utility.yul\":18623:18716   */\n      tag_199\n      jump\t// in\n    tag_390:\n        /* \"#utility.yul\":18741:18743   */\n      0x20\n        /* \"#utility.yul\":18736:18739   */\n      dup3\n        /* \"#utility.yul\":18732:18744   */\n      add\n        /* \"#utility.yul\":18725:18744   */\n      swap1\n      pop\n        /* \"#utility.yul\":18384:18750   */\n      swap2\n      swap1\n      pop\n      jump\t// out\n        /* \"#utility.yul\":18756:19175   */\n    tag_125:\n        /* \"#utility.yul\":18922:18926   */\n      0x00\n        /* \"#utility.yul\":18960:18962   */\n      0x20\n        /* \"#utility.yul\":18949:18958   */\n      dup3\n        /* \"#utility.yul\":18945:18963   */\n      add\n        /* \"#utility.yul\":18937:18963   */\n      swap1\n      pop\n        /* \"#utility.yul\":19009:19018   */\n      dup2\n        /* \"#utility.yul\":19003:19007   */\n      dup2\n        /* \"#utility.yul\":18999:19019   */\n      sub\n        /* \"#utility.yul\":18995:18996   */\n      0x00\n        /* \"#utility.yul\":18984:18993   */\n      dup4\n        /* \"#utility.yul\":18980:18997   */\n      add\n        /* \"#utility.yul\":18973:19020   */\n      mstore\n        /* \"#utility.yul\":19037:19168   */\n      tag_392\n        /* \"#utility.yul\":19163:19167   */\n      dup2\n        /* \"#utility.yul\":19037:19168   */\n      tag_200\n      jump\t// in\n    tag_392:\n        /* \"#utility.yul\":19029:19168   */\n      swap1\n      pop\n        /* \"#utility.yul\":18756:19175   */\n      swap2\n      swap1\n      pop\n      jump\t// out\n\n    auxdata: 0xa26469706673582212204787c37932999f020f7fe43fe73c6cf8d73af7bdd22cbdda5ac1a9ebddd4d07a64736f6c634300080f0033\n}\n",
				"bytecode": {
					"linkReferences": {},
					"object": "6080604052620151806003556000600f556000601060006101000a81548160ff0219169083151502179055503480156200003857600080fd5b50604051620014b7380380620014b783398181016040528101906200005e9190620000ac565b8060018190555050620000de565b600080fd5b6000819050919050565b620000868162000071565b81146200009257600080fd5b50565b600081519050620000a6816200007b565b92915050565b600060208284031215620000c557620000c46200006c565b5b6000620000d58482850162000095565b91505092915050565b6113c980620000ee6000396000f3fe608060405234801561001057600080fd5b50600436106101005760003560e01c80637b9a3f4c1161009757806394b5dcaa1161006657806394b5dcaa14610255578063aa8c217c14610273578063bc30949614610291578063e21f37ce146102af57610100565b80637b9a3f4c146101f15780637eb9f5711461020f5780638e029c0b1461022d5780638fa118641461023757610100565b80633c626f00116100d35780633c626f001461017957806342fb7936146101975780634b28f9a2146101b5578063557ed1ba146101d357610100565b8063062a7544146101055780630e85fa721461012157806312a029a41461013f57806334f5ccde1461015b575b600080fd5b61011f600480360381019061011a9190610a00565b6102cd565b005b610129610695565b6040516101369190610a4f565b60405180910390f35b61015960048036038101906101549190610bb0565b61069b565b005b61016361074c565b6040516101709190610a4f565b60405180910390f35b610181610752565b60405161018e9190610c43565b60405180910390f35b61019f610765565b6040516101ac9190610ce6565b60405180910390f35b6101bd6107f3565b6040516101ca9190610a4f565b60405180910390f35b6101db6107f9565b6040516101e89190610a4f565b60405180910390f35b6101f9610801565b6040516102069190610a4f565b60405180910390f35b610217610807565b6040516102249190610a4f565b60405180910390f35b61023561080d565b005b61023f61082a565b60405161024c9190610ce6565b60405180910390f35b61025d6108b8565b60405161026a9190610a4f565b60405180910390f35b61027b6108be565b6040516102889190610a4f565b60405180910390f35b6102996108c4565b6040516102a69190610a4f565b60405180910390f35b6102b76108ca565b6040516102c49190610ce6565b60405180910390f35b8080600260006101000a81548173ffffffffffffffffffffffffffffffffffffffff021916908373ffffffffffffffffffffffffffffffffffffffff160217905550600073ffffffffffffffffffffffffffffffffffffffff168173ffffffffffffffffffffffffffffffffffffffff160361037e576040517f08c379a000000000000000000000000000000000000000000000000000000000815260040161037590610d54565b60405180910390fd5b60001515601060009054906101000a900460ff161515036103d4576040517f08c379a00000000000000000000000000000000000000000000000000000000081526004016103cb90610dc0565b60405180910390fd5b6109c4600c541180156103f55750601e600d546103f19190610e0f565b4211155b1561043d576000600c819055506040517f08c379a000000000000000000000000000000000000000000000000000000000815260040161043490610eb1565b60405180910390fd5b6109c4600c541115801561045f5750601e600d5461045b9190610e0f565b4210155b15610474576000600c8190555042600d819055505b6005600f541180156104945750601e600d546104909190610e0f565b4211155b156104dc576000600f819055506040517f08c379a00000000000000000000000000000000000000000000000000000000081526004016104d390610f1d565b60405180910390fd5b6005600f54111580156104fd5750601e600d546104f99190610e0f565b4210155b15610512576000600f8190555042600d819055505b81600260006101000a81548173ffffffffffffffffffffffffffffffffffffffff021916908373ffffffffffffffffffffffffffffffffffffffff160217905550826000819055506109c460005411156105a1576040517f08c379a000000000000000000000000000000000000000000000000000000000815260040161059890610f89565b60405180910390fd5b6001600f60008282546105b49190610e0f565b9250508190555060006001541180156105d05750600054600154115b1561065557600054600160008282546105e99190610fa9565b92505081905550600054600c60008282546106049190610e0f565b925050819055506040518060400160405280601281526020017f5472616e7366657220636f6d706c6574656400000000000000000000000000008152506009908161064f91906111e9565b50610690565b6040517f08c379a000000000000000000000000000000000000000000000000000000000815260040161068790611307565b60405180910390fd5b505050565b600d5481565b81600a90816106aa91906111e9565b5080600b90816106ba91906111e9565b506001601060006101000a81548160ff02191690831515021790555042600d819055506008600a80546106ec9061100c565b905014801561070957506003600b80546107059061100c565b9050145b610748576040517f08c379a000000000000000000000000000000000000000000000000000000000815260040161073f90611373565b60405180910390fd5b5050565b600e5481565b601060009054906101000a900460ff1681565b600b80546107729061100c565b80601f016020809104026020016040519081016040528092919081815260200182805461079e9061100c565b80156107eb5780601f106107c0576101008083540402835291602001916107eb565b820191906000526020600020905b8154815290600101906020018083116107ce57829003601f168201915b505050505081565b600f5481565b600042905090565b60015481565b600c5481565b6000601060006101000a81548160ff021916908315150217905550565b600a80546108379061100c565b80601f01602080910402602001604051908101604052809291908181526020018280546108639061100c565b80156108b05780601f10610885576101008083540402835291602001916108b0565b820191906000526020600020905b81548152906001019060200180831161089357829003601f168201915b505050505081565b60045481565b60005481565b60085481565b600980546108d79061100c565b80601f01602080910402602001604051908101604052809291908181526020018280546109039061100c565b80156109505780601f1061092557610100808354040283529160200191610950565b820191906000526020600020905b81548152906001019060200180831161093357829003601f168201915b505050505081565b6000604051905090565b600080fd5b600080fd5b6000819050919050565b61097f8161096c565b811461098a57600080fd5b50565b60008135905061099c81610976565b92915050565b600073ffffffffffffffffffffffffffffffffffffffff82169050919050565b60006109cd826109a2565b9050919050565b6109dd816109c2565b81146109e857600080fd5b50565b6000813590506109fa816109d4565b92915050565b60008060408385031215610a1757610a16610962565b5b6000610a258582860161098d565b9250506020610a36858286016109eb565b9150509250929050565b610a498161096c565b82525050565b6000602082019050610a646000830184610a40565b92915050565b600080fd5b600080fd5b6000601f19601f8301169050919050565b7f4e487b7100000000000000000000000000000000000000000000000000000000600052604160045260246000fd5b610abd82610a74565b810181811067ffffffffffffffff82111715610adc57610adb610a85565b5b80604052505050565b6000610aef610958565b9050610afb8282610ab4565b919050565b600067ffffffffffffffff821115610b1b57610b1a610a85565b5b610b2482610a74565b9050602081019050919050565b82818337600083830152505050565b6000610b53610b4e84610b00565b610ae5565b905082815260208101848484011115610b6f57610b6e610a6f565b5b610b7a848285610b31565b509392505050565b600082601f830112610b9757610b96610a6a565b5b8135610ba7848260208601610b40565b91505092915050565b60008060408385031215610bc757610bc6610962565b5b600083013567ffffffffffffffff811115610be557610be4610967565b5b610bf185828601610b82565b925050602083013567ffffffffffffffff811115610c1257610c11610967565b5b610c1e85828601610b82565b9150509250929050565b60008115159050919050565b610c3d81610c28565b82525050565b6000602082019050610c586000830184610c34565b92915050565b600081519050919050565b600082825260208201905092915050565b60005b83811015610c98578082015181840152602081019050610c7d565b83811115610ca7576000848401525b50505050565b6000610cb882610c5e565b610cc28185610c69565b9350610cd2818560208601610c7a565b610cdb81610a74565b840191505092915050565b60006020820190508181036000830152610d008184610cad565b905092915050565b7f2054686973206164647265737320646f65736e27742065786973747300000000600082015250565b6000610d3e601c83610c69565b9150610d4982610d08565b602082019050919050565b60006020820190508181036000830152610d6d81610d31565b9050919050565b7f506c6561736520696e7365727420796f75722063617264000000000000000000600082015250565b6000610daa601783610c69565b9150610db582610d74565b602082019050919050565b60006020820190508181036000830152610dd981610d9d565b9050919050565b7f4e487b7100000000000000000000000000000000000000000000000000000000600052601160045260246000fd5b6000610e1a8261096c565b9150610e258361096c565b9250827fffffffffffffffffffffffffffffffffffffffffffffffffffffffffffffffff03821115610e5a57610e59610de0565b5b828201905092915050565b7f596f75207265616368656420746865206c696d69742070657220646179000000600082015250565b6000610e9b601d83610c69565b9150610ea682610e65565b602082019050919050565b60006020820190508181036000830152610eca81610e8e565b9050919050565b7f6f6e6c792035207472616e73616374696f6e7320706572206461790000000000600082015250565b6000610f07601b83610c69565b9150610f1282610ed1565b602082019050919050565b60006020820190508181036000830152610f3681610efa565b9050919050565b7f596f75207265616368656420746865206c696d69742053656e64282900000000600082015250565b6000610f73601c83610c69565b9150610f7e82610f3d565b602082019050919050565b60006020820190508181036000830152610fa281610f66565b9050919050565b6000610fb48261096c565b9150610fbf8361096c565b925082821015610fd257610fd1610de0565b5b828203905092915050565b7f4e487b7100000000000000000000000000000000000000000000000000000000600052602260045260246000fd5b6000600282049050600182168061102457607f821691505b60208210810361103757611036610fdd565b5b50919050565b60008190508160005260206000209050919050565b60006020601f8301049050919050565b600082821b905092915050565b60006008830261109f7fffffffffffffffffffffffffffffffffffffffffffffffffffffffffffffffff82611062565b6110a98683611062565b95508019841693508086168417925050509392505050565b6000819050919050565b60006110e66110e16110dc8461096c565b6110c1565b61096c565b9050919050565b6000819050919050565b611100836110cb565b61111461110c826110ed565b84845461106f565b825550505050565b600090565b61112961111c565b6111348184846110f7565b505050565b5b818110156111585761114d600082611121565b60018101905061113a565b5050565b601f82111561119d5761116e8161103d565b61117784611052565b81016020851015611186578190505b61119a61119285611052565b830182611139565b50505b505050565b600082821c905092915050565b60006111c0600019846008026111a2565b1980831691505092915050565b60006111d983836111af565b9150826002028217905092915050565b6111f282610c5e565b67ffffffffffffffff81111561120b5761120a610a85565b5b611215825461100c565b61122082828561115c565b600060209050601f8311600181146112535760008415611241578287015190505b61124b85826111cd565b8655506112b3565b601f1984166112618661103d565b60005b8281101561128957848901518255600182019150602085019450602081019050611264565b868310156112a657848901516112a2601f8916826111af565b8355505b6001600288020188555050505b505050505050565b7f4e6f7420656e6f7567682066756e647300000000000000000000000000000000600082015250565b60006112f1601083610c69565b91506112fc826112bb565b602082019050919050565b60006020820190508181036000830152611320816112e4565b9050919050565b7f4e6f2076616c6964206372656469742063617264000000000000000000000000600082015250565b600061135d601483610c69565b915061136882611327565b602082019050919050565b6000602082019050818103600083015261138c81611350565b905091905056fea26469706673582212204787c37932999f020f7fe43fe73c6cf8d73af7bdd22cbdda5ac1a9ebddd4d07a64736f6c634300080f0033",
					"opcodes": "PUSH1 0x80 PUSH1 0x40 MSTORE PUSH3 0x15180 PUSH1 0x3 SSTORE PUSH1 0x0 PUSH1 0xF SSTORE PUSH1 0x0 PUSH1 0x10 PUSH1 0x0 PUSH2 0x100 EXP DUP2 SLOAD DUP2 PUSH1 0xFF MUL NOT AND SWAP1 DUP4 ISZERO ISZERO MUL OR SWAP1 SSTORE POP CALLVALUE DUP1 ISZERO PUSH3 0x38 JUMPI PUSH1 0x0 DUP1 REVERT JUMPDEST POP PUSH1 0x40 MLOAD PUSH3 0x14B7 CODESIZE SUB DUP1 PUSH3 0x14B7 DUP4 CODECOPY DUP2 DUP2 ADD PUSH1 0x40 MSTORE DUP2 ADD SWAP1 PUSH3 0x5E SWAP2 SWAP1 PUSH3 0xAC JUMP JUMPDEST DUP1 PUSH1 0x1 DUP2 SWAP1 SSTORE POP POP PUSH3 0xDE JUMP JUMPDEST PUSH1 0x0 DUP1 REVERT JUMPDEST PUSH1 0x0 DUP2 SWAP1 POP SWAP2 SWAP1 POP JUMP JUMPDEST PUSH3 0x86 DUP2 PUSH3 0x71 JUMP JUMPDEST DUP2 EQ PUSH3 0x92 JUMPI PUSH1 0x0 DUP1 REVERT JUMPDEST POP JUMP JUMPDEST PUSH1 0x0 DUP2 MLOAD SWAP1 POP PUSH3 0xA6 DUP2 PUSH3 0x7B JUMP JUMPDEST SWAP3 SWAP2 POP POP JUMP JUMPDEST PUSH1 0x0 PUSH1 0x20 DUP3 DUP5 SUB SLT ISZERO PUSH3 0xC5 JUMPI PUSH3 0xC4 PUSH3 0x6C JUMP JUMPDEST JUMPDEST PUSH1 0x0 PUSH3 0xD5 DUP5 DUP3 DUP6 ADD PUSH3 0x95 JUMP JUMPDEST SWAP2 POP POP SWAP3 SWAP2 POP POP JUMP JUMPDEST PUSH2 0x13C9 DUP1 PUSH3 0xEE PUSH1 0x0 CODECOPY PUSH1 0x0 RETURN INVALID PUSH1 0x80 PUSH1 0x40 MSTORE CALLVALUE DUP1 ISZERO PUSH2 0x10 JUMPI PUSH1 0x0 DUP1 REVERT JUMPDEST POP PUSH1 0x4 CALLDATASIZE LT PUSH2 0x100 JUMPI PUSH1 0x0 CALLDATALOAD PUSH1 0xE0 SHR DUP1 PUSH4 0x7B9A3F4C GT PUSH2 0x97 JUMPI DUP1 PUSH4 0x94B5DCAA GT PUSH2 0x66 JUMPI DUP1 PUSH4 0x94B5DCAA EQ PUSH2 0x255 JUMPI DUP1 PUSH4 0xAA8C217C EQ PUSH2 0x273 JUMPI DUP1 PUSH4 0xBC309496 EQ PUSH2 0x291 JUMPI DUP1 PUSH4 0xE21F37CE EQ PUSH2 0x2AF JUMPI PUSH2 0x100 JUMP JUMPDEST DUP1 PUSH4 0x7B9A3F4C EQ PUSH2 0x1F1 JUMPI DUP1 PUSH4 0x7EB9F571 EQ PUSH2 0x20F JUMPI DUP1 PUSH4 0x8E029C0B EQ PUSH2 0x22D JUMPI DUP1 PUSH4 0x8FA11864 EQ PUSH2 0x237 JUMPI PUSH2 0x100 JUMP JUMPDEST DUP1 PUSH4 0x3C626F00 GT PUSH2 0xD3 JUMPI DUP1 PUSH4 0x3C626F00 EQ PUSH2 0x179 JUMPI DUP1 PUSH4 0x42FB7936 EQ PUSH2 0x197 JUMPI DUP1 PUSH4 0x4B28F9A2 EQ PUSH2 0x1B5 JUMPI DUP1 PUSH4 0x557ED1BA EQ PUSH2 0x1D3 JUMPI PUSH2 0x100 JUMP JUMPDEST DUP1 PUSH4 0x62A7544 EQ PUSH2 0x105 JUMPI DUP1 PUSH4 0xE85FA72 EQ PUSH2 0x121 JUMPI DUP1 PUSH4 0x12A029A4 EQ PUSH2 0x13F JUMPI DUP1 PUSH4 0x34F5CCDE EQ PUSH2 0x15B JUMPI JUMPDEST PUSH1 0x0 DUP1 REVERT JUMPDEST PUSH2 0x11F PUSH1 0x4 DUP1 CALLDATASIZE SUB DUP2 ADD SWAP1 PUSH2 0x11A SWAP2 SWAP1 PUSH2 0xA00 JUMP JUMPDEST PUSH2 0x2CD JUMP JUMPDEST STOP JUMPDEST PUSH2 0x129 PUSH2 0x695 JUMP JUMPDEST PUSH1 0x40 MLOAD PUSH2 0x136 SWAP2 SWAP1 PUSH2 0xA4F JUMP JUMPDEST PUSH1 0x40 MLOAD DUP1 SWAP2 SUB SWAP1 RETURN JUMPDEST PUSH2 0x159 PUSH1 0x4 DUP1 CALLDATASIZE SUB DUP2 ADD SWAP1 PUSH2 0x154 SWAP2 SWAP1 PUSH2 0xBB0 JUMP JUMPDEST PUSH2 0x69B JUMP JUMPDEST STOP JUMPDEST PUSH2 0x163 PUSH2 0x74C JUMP JUMPDEST PUSH1 0x40 MLOAD PUSH2 0x170 SWAP2 SWAP1 PUSH2 0xA4F JUMP JUMPDEST PUSH1 0x40 MLOAD DUP1 SWAP2 SUB SWAP1 RETURN JUMPDEST PUSH2 0x181 PUSH2 0x752 JUMP JUMPDEST PUSH1 0x40 MLOAD PUSH2 0x18E SWAP2 SWAP1 PUSH2 0xC43 JUMP JUMPDEST PUSH1 0x40 MLOAD DUP1 SWAP2 SUB SWAP1 RETURN JUMPDEST PUSH2 0x19F PUSH2 0x765 JUMP JUMPDEST PUSH1 0x40 MLOAD PUSH2 0x1AC SWAP2 SWAP1 PUSH2 0xCE6 JUMP JUMPDEST PUSH1 0x40 MLOAD DUP1 SWAP2 SUB SWAP1 RETURN JUMPDEST PUSH2 0x1BD PUSH2 0x7F3 JUMP JUMPDEST PUSH1 0x40 MLOAD PUSH2 0x1CA SWAP2 SWAP1 PUSH2 0xA4F JUMP JUMPDEST PUSH1 0x40 MLOAD DUP1 SWAP2 SUB SWAP1 RETURN JUMPDEST PUSH2 0x1DB PUSH2 0x7F9 JUMP JUMPDEST PUSH1 0x40 MLOAD PUSH2 0x1E8 SWAP2 SWAP1 PUSH2 0xA4F JUMP JUMPDEST PUSH1 0x40 MLOAD DUP1 SWAP2 SUB SWAP1 RETURN JUMPDEST PUSH2 0x1F9 PUSH2 0x801 JUMP JUMPDEST PUSH1 0x40 MLOAD PUSH2 0x206 SWAP2 SWAP1 PUSH2 0xA4F JUMP JUMPDEST PUSH1 0x40 MLOAD DUP1 SWAP2 SUB SWAP1 RETURN JUMPDEST PUSH2 0x217 PUSH2 0x807 JUMP JUMPDEST PUSH1 0x40 MLOAD PUSH2 0x224 SWAP2 SWAP1 PUSH2 0xA4F JUMP JUMPDEST PUSH1 0x40 MLOAD DUP1 SWAP2 SUB SWAP1 RETURN JUMPDEST PUSH2 0x235 PUSH2 0x80D JUMP JUMPDEST STOP JUMPDEST PUSH2 0x23F PUSH2 0x82A JUMP JUMPDEST PUSH1 0x40 MLOAD PUSH2 0x24C SWAP2 SWAP1 PUSH2 0xCE6 JUMP JUMPDEST PUSH1 0x40 MLOAD DUP1 SWAP2 SUB SWAP1 RETURN JUMPDEST PUSH2 0x25D PUSH2 0x8B8 JUMP JUMPDEST PUSH1 0x40 MLOAD PUSH2 0x26A SWAP2 SWAP1 PUSH2 0xA4F JUMP JUMPDEST PUSH1 0x40 MLOAD DUP1 SWAP2 SUB SWAP1 RETURN JUMPDEST PUSH2 0x27B PUSH2 0x8BE JUMP JUMPDEST PUSH1 0x40 MLOAD PUSH2 0x288 SWAP2 SWAP1 PUSH2 0xA4F JUMP JUMPDEST PUSH1 0x40 MLOAD DUP1 SWAP2 SUB SWAP1 RETURN JUMPDEST PUSH2 0x299 PUSH2 0x8C4 JUMP JUMPDEST PUSH1 0x40 MLOAD PUSH2 0x2A6 SWAP2 SWAP1 PUSH2 0xA4F JUMP JUMPDEST PUSH1 0x40 MLOAD DUP1 SWAP2 SUB SWAP1 RETURN JUMPDEST PUSH2 0x2B7 PUSH2 0x8CA JUMP JUMPDEST PUSH1 0x40 MLOAD PUSH2 0x2C4 SWAP2 SWAP1 PUSH2 0xCE6 JUMP JUMPDEST PUSH1 0x40 MLOAD DUP1 SWAP2 SUB SWAP1 RETURN JUMPDEST DUP1 DUP1 PUSH1 0x2 PUSH1 0x0 PUSH2 0x100 EXP DUP2 SLOAD DUP2 PUSH20 0xFFFFFFFFFFFFFFFFFFFFFFFFFFFFFFFFFFFFFFFF MUL NOT AND SWAP1 DUP4 PUSH20 0xFFFFFFFFFFFFFFFFFFFFFFFFFFFFFFFFFFFFFFFF AND MUL OR SWAP1 SSTORE POP PUSH1 0x0 PUSH20 0xFFFFFFFFFFFFFFFFFFFFFFFFFFFFFFFFFFFFFFFF AND DUP2 PUSH20 0xFFFFFFFFFFFFFFFFFFFFFFFFFFFFFFFFFFFFFFFF AND SUB PUSH2 0x37E JUMPI PUSH1 0x40 MLOAD PUSH32 0x8C379A000000000000000000000000000000000000000000000000000000000 DUP2 MSTORE PUSH1 0x4 ADD PUSH2 0x375 SWAP1 PUSH2 0xD54 JUMP JUMPDEST PUSH1 0x40 MLOAD DUP1 SWAP2 SUB SWAP1 REVERT JUMPDEST PUSH1 0x0 ISZERO ISZERO PUSH1 0x10 PUSH1 0x0 SWAP1 SLOAD SWAP1 PUSH2 0x100 EXP SWAP1 DIV PUSH1 0xFF AND ISZERO ISZERO SUB PUSH2 0x3D4 JUMPI PUSH1 0x40 MLOAD PUSH32 0x8C379A000000000000000000000000000000000000000000000000000000000 DUP2 MSTORE PUSH1 0x4 ADD PUSH2 0x3CB SWAP1 PUSH2 0xDC0 JUMP JUMPDEST PUSH1 0x40 MLOAD DUP1 SWAP2 SUB SWAP1 REVERT JUMPDEST PUSH2 0x9C4 PUSH1 0xC SLOAD GT DUP1 ISZERO PUSH2 0x3F5 JUMPI POP PUSH1 0x1E PUSH1 0xD SLOAD PUSH2 0x3F1 SWAP2 SWAP1 PUSH2 0xE0F JUMP JUMPDEST TIMESTAMP GT ISZERO JUMPDEST ISZERO PUSH2 0x43D JUMPI PUSH1 0x0 PUSH1 0xC DUP2 SWAP1 SSTORE POP PUSH1 0x40 MLOAD PUSH32 0x8C379A000000000000000000000000000000000000000000000000000000000 DUP2 MSTORE PUSH1 0x4 ADD PUSH2 0x434 SWAP1 PUSH2 0xEB1 JUMP JUMPDEST PUSH1 0x40 MLOAD DUP1 SWAP2 SUB SWAP1 REVERT JUMPDEST PUSH2 0x9C4 PUSH1 0xC SLOAD GT ISZERO DUP1 ISZERO PUSH2 0x45F JUMPI POP PUSH1 0x1E PUSH1 0xD SLOAD PUSH2 0x45B SWAP2 SWAP1 PUSH2 0xE0F JUMP JUMPDEST TIMESTAMP LT ISZERO JUMPDEST ISZERO PUSH2 0x474 JUMPI PUSH1 0x0 PUSH1 0xC DUP2 SWAP1 SSTORE POP TIMESTAMP PUSH1 0xD DUP2 SWAP1 SSTORE POP JUMPDEST PUSH1 0x5 PUSH1 0xF SLOAD GT DUP1 ISZERO PUSH2 0x494 JUMPI POP PUSH1 0x1E PUSH1 0xD SLOAD PUSH2 0x490 SWAP2 SWAP1 PUSH2 0xE0F JUMP JUMPDEST TIMESTAMP GT ISZERO JUMPDEST ISZERO PUSH2 0x4DC JUMPI PUSH1 0x0 PUSH1 0xF DUP2 SWAP1 SSTORE POP PUSH1 0x40 MLOAD PUSH32 0x8C379A000000000000000000000000000000000000000000000000000000000 DUP2 MSTORE PUSH1 0x4 ADD PUSH2 0x4D3 SWAP1 PUSH2 0xF1D JUMP JUMPDEST PUSH1 0x40 MLOAD DUP1 SWAP2 SUB SWAP1 REVERT JUMPDEST PUSH1 0x5 PUSH1 0xF SLOAD GT ISZERO DUP1 ISZERO PUSH2 0x4FD JUMPI POP PUSH1 0x1E PUSH1 0xD SLOAD PUSH2 0x4F9 SWAP2 SWAP1 PUSH2 0xE0F JUMP JUMPDEST TIMESTAMP LT ISZERO JUMPDEST ISZERO PUSH2 0x512 JUMPI PUSH1 0x0 PUSH1 0xF DUP2 SWAP1 SSTORE POP TIMESTAMP PUSH1 0xD DUP2 SWAP1 SSTORE POP JUMPDEST DUP2 PUSH1 0x2 PUSH1 0x0 PUSH2 0x100 EXP DUP2 SLOAD DUP2 PUSH20 0xFFFFFFFFFFFFFFFFFFFFFFFFFFFFFFFFFFFFFFFF MUL NOT AND SWAP1 DUP4 PUSH20 0xFFFFFFFFFFFFFFFFFFFFFFFFFFFFFFFFFFFFFFFF AND MUL OR SWAP1 SSTORE POP DUP3 PUSH1 0x0 DUP2 SWAP1 SSTORE POP PUSH2 0x9C4 PUSH1 0x0 SLOAD GT ISZERO PUSH2 0x5A1 JUMPI PUSH1 0x40 MLOAD PUSH32 0x8C379A000000000000000000000000000000000000000000000000000000000 DUP2 MSTORE PUSH1 0x4 ADD PUSH2 0x598 SWAP1 PUSH2 0xF89 JUMP JUMPDEST PUSH1 0x40 MLOAD DUP1 SWAP2 SUB SWAP1 REVERT JUMPDEST PUSH1 0x1 PUSH1 0xF PUSH1 0x0 DUP3 DUP3 SLOAD PUSH2 0x5B4 SWAP2 SWAP1 PUSH2 0xE0F JUMP JUMPDEST SWAP3 POP POP DUP2 SWAP1 SSTORE POP PUSH1 0x0 PUSH1 0x1 SLOAD GT DUP1 ISZERO PUSH2 0x5D0 JUMPI POP PUSH1 0x0 SLOAD PUSH1 0x1 SLOAD GT JUMPDEST ISZERO PUSH2 0x655 JUMPI PUSH1 0x0 SLOAD PUSH1 0x1 PUSH1 0x0 DUP3 DUP3 SLOAD PUSH2 0x5E9 SWAP2 SWAP1 PUSH2 0xFA9 JUMP JUMPDEST SWAP3 POP POP DUP2 SWAP1 SSTORE POP PUSH1 0x0 SLOAD PUSH1 0xC PUSH1 0x0 DUP3 DUP3 SLOAD PUSH2 0x604 SWAP2 SWAP1 PUSH2 0xE0F JUMP JUMPDEST SWAP3 POP POP DUP2 SWAP1 SSTORE POP PUSH1 0x40 MLOAD DUP1 PUSH1 0x40 ADD PUSH1 0x40 MSTORE DUP1 PUSH1 0x12 DUP2 MSTORE PUSH1 0x20 ADD PUSH32 0x5472616E7366657220636F6D706C657465640000000000000000000000000000 DUP2 MSTORE POP PUSH1 0x9 SWAP1 DUP2 PUSH2 0x64F SWAP2 SWAP1 PUSH2 0x11E9 JUMP JUMPDEST POP PUSH2 0x690 JUMP JUMPDEST PUSH1 0x40 MLOAD PUSH32 0x8C379A000000000000000000000000000000000000000000000000000000000 DUP2 MSTORE PUSH1 0x4 ADD PUSH2 0x687 SWAP1 PUSH2 0x1307 JUMP JUMPDEST PUSH1 0x40 MLOAD DUP1 SWAP2 SUB SWAP1 REVERT JUMPDEST POP POP POP JUMP JUMPDEST PUSH1 0xD SLOAD DUP2 JUMP JUMPDEST DUP2 PUSH1 0xA SWAP1 DUP2 PUSH2 0x6AA SWAP2 SWAP1 PUSH2 0x11E9 JUMP JUMPDEST POP DUP1 PUSH1 0xB SWAP1 DUP2 PUSH2 0x6BA SWAP2 SWAP1 PUSH2 0x11E9 JUMP JUMPDEST POP PUSH1 0x1 PUSH1 0x10 PUSH1 0x0 PUSH2 0x100 EXP DUP2 SLOAD DUP2 PUSH1 0xFF MUL NOT AND SWAP1 DUP4 ISZERO ISZERO MUL OR SWAP1 SSTORE POP TIMESTAMP PUSH1 0xD DUP2 SWAP1 SSTORE POP PUSH1 0x8 PUSH1 0xA DUP1 SLOAD PUSH2 0x6EC SWAP1 PUSH2 0x100C JUMP JUMPDEST SWAP1 POP EQ DUP1 ISZERO PUSH2 0x709 JUMPI POP PUSH1 0x3 PUSH1 0xB DUP1 SLOAD PUSH2 0x705 SWAP1 PUSH2 0x100C JUMP JUMPDEST SWAP1 POP EQ JUMPDEST PUSH2 0x748 JUMPI PUSH1 0x40 MLOAD PUSH32 0x8C379A000000000000000000000000000000000000000000000000000000000 DUP2 MSTORE PUSH1 0x4 ADD PUSH2 0x73F SWAP1 PUSH2 0x1373 JUMP JUMPDEST PUSH1 0x40 MLOAD DUP1 SWAP2 SUB SWAP1 REVERT JUMPDEST POP POP JUMP JUMPDEST PUSH1 0xE SLOAD DUP2 JUMP JUMPDEST PUSH1 0x10 PUSH1 0x0 SWAP1 SLOAD SWAP1 PUSH2 0x100 EXP SWAP1 DIV PUSH1 0xFF AND DUP2 JUMP JUMPDEST PUSH1 0xB DUP1 SLOAD PUSH2 0x772 SWAP1 PUSH2 0x100C JUMP JUMPDEST DUP1 PUSH1 0x1F ADD PUSH1 0x20 DUP1 SWAP2 DIV MUL PUSH1 0x20 ADD PUSH1 0x40 MLOAD SWAP1 DUP2 ADD PUSH1 0x40 MSTORE DUP1 SWAP3 SWAP2 SWAP1 DUP2 DUP2 MSTORE PUSH1 0x20 ADD DUP3 DUP1 SLOAD PUSH2 0x79E SWAP1 PUSH2 0x100C JUMP JUMPDEST DUP1 ISZERO PUSH2 0x7EB JUMPI DUP1 PUSH1 0x1F LT PUSH2 0x7C0 JUMPI PUSH2 0x100 DUP1 DUP4 SLOAD DIV MUL DUP4 MSTORE SWAP2 PUSH1 0x20 ADD SWAP2 PUSH2 0x7EB JUMP JUMPDEST DUP3 ADD SWAP2 SWAP1 PUSH1 0x0 MSTORE PUSH1 0x20 PUSH1 0x0 KECCAK256 SWAP1 JUMPDEST DUP2 SLOAD DUP2 MSTORE SWAP1 PUSH1 0x1 ADD SWAP1 PUSH1 0x20 ADD DUP1 DUP4 GT PUSH2 0x7CE JUMPI DUP3 SWAP1 SUB PUSH1 0x1F AND DUP3 ADD SWAP2 JUMPDEST POP POP POP POP POP DUP2 JUMP JUMPDEST PUSH1 0xF SLOAD DUP2 JUMP JUMPDEST PUSH1 0x0 TIMESTAMP SWAP1 POP SWAP1 JUMP JUMPDEST PUSH1 0x1 SLOAD DUP2 JUMP JUMPDEST PUSH1 0xC SLOAD DUP2 JUMP JUMPDEST PUSH1 0x0 PUSH1 0x10 PUSH1 0x0 PUSH2 0x100 EXP DUP2 SLOAD DUP2 PUSH1 0xFF MUL NOT AND SWAP1 DUP4 ISZERO ISZERO MUL OR SWAP1 SSTORE POP JUMP JUMPDEST PUSH1 0xA DUP1 SLOAD PUSH2 0x837 SWAP1 PUSH2 0x100C JUMP JUMPDEST DUP1 PUSH1 0x1F ADD PUSH1 0x20 DUP1 SWAP2 DIV MUL PUSH1 0x20 ADD PUSH1 0x40 MLOAD SWAP1 DUP2 ADD PUSH1 0x40 MSTORE DUP1 SWAP3 SWAP2 SWAP1 DUP2 DUP2 MSTORE PUSH1 0x20 ADD DUP3 DUP1 SLOAD PUSH2 0x863 SWAP1 PUSH2 0x100C JUMP JUMPDEST DUP1 ISZERO PUSH2 0x8B0 JUMPI DUP1 PUSH1 0x1F LT PUSH2 0x885 JUMPI PUSH2 0x100 DUP1 DUP4 SLOAD DIV MUL DUP4 MSTORE SWAP2 PUSH1 0x20 ADD SWAP2 PUSH2 0x8B0 JUMP JUMPDEST DUP3 ADD SWAP2 SWAP1 PUSH1 0x0 MSTORE PUSH1 0x20 PUSH1 0x0 KECCAK256 SWAP1 JUMPDEST DUP2 SLOAD DUP2 MSTORE SWAP1 PUSH1 0x1 ADD SWAP1 PUSH1 0x20 ADD DUP1 DUP4 GT PUSH2 0x893 JUMPI DUP3 SWAP1 SUB PUSH1 0x1F AND DUP3 ADD SWAP2 JUMPDEST POP POP POP POP POP DUP2 JUMP JUMPDEST PUSH1 0x4 SLOAD DUP2 JUMP JUMPDEST PUSH1 0x0 SLOAD DUP2 JUMP JUMPDEST PUSH1 0x8 SLOAD DUP2 JUMP JUMPDEST PUSH1 0x9 DUP1 SLOAD PUSH2 0x8D7 SWAP1 PUSH2 0x100C JUMP JUMPDEST DUP1 PUSH1 0x1F ADD PUSH1 0x20 DUP1 SWAP2 DIV MUL PUSH1 0x20 ADD PUSH1 0x40 MLOAD SWAP1 DUP2 ADD PUSH1 0x40 MSTORE DUP1 SWAP3 SWAP2 SWAP1 DUP2 DUP2 MSTORE PUSH1 0x20 ADD DUP3 DUP1 SLOAD PUSH2 0x903 SWAP1 PUSH2 0x100C JUMP JUMPDEST DUP1 ISZERO PUSH2 0x950 JUMPI DUP1 PUSH1 0x1F LT PUSH2 0x925 JUMPI PUSH2 0x100 DUP1 DUP4 SLOAD DIV MUL DUP4 MSTORE SWAP2 PUSH1 0x20 ADD SWAP2 PUSH2 0x950 JUMP JUMPDEST DUP3 ADD SWAP2 SWAP1 PUSH1 0x0 MSTORE PUSH1 0x20 PUSH1 0x0 KECCAK256 SWAP1 JUMPDEST DUP2 SLOAD DUP2 MSTORE SWAP1 PUSH1 0x1 ADD SWAP1 PUSH1 0x20 ADD DUP1 DUP4 GT PUSH2 0x933 JUMPI DUP3 SWAP1 SUB PUSH1 0x1F AND DUP3 ADD SWAP2 JUMPDEST POP POP POP POP POP DUP2 JUMP JUMPDEST PUSH1 0x0 PUSH1 0x40 MLOAD SWAP1 POP SWAP1 JUMP JUMPDEST PUSH1 0x0 DUP1 REVERT JUMPDEST PUSH1 0x0 DUP1 REVERT JUMPDEST PUSH1 0x0 DUP2 SWAP1 POP SWAP2 SWAP1 POP JUMP JUMPDEST PUSH2 0x97F DUP2 PUSH2 0x96C JUMP JUMPDEST DUP2 EQ PUSH2 0x98A JUMPI PUSH1 0x0 DUP1 REVERT JUMPDEST POP JUMP JUMPDEST PUSH1 0x0 DUP2 CALLDATALOAD SWAP1 POP PUSH2 0x99C DUP2 PUSH2 0x976 JUMP JUMPDEST SWAP3 SWAP2 POP POP JUMP JUMPDEST PUSH1 0x0 PUSH20 0xFFFFFFFFFFFFFFFFFFFFFFFFFFFFFFFFFFFFFFFF DUP3 AND SWAP1 POP SWAP2 SWAP1 POP JUMP JUMPDEST PUSH1 0x0 PUSH2 0x9CD DUP3 PUSH2 0x9A2 JUMP JUMPDEST SWAP1 POP SWAP2 SWAP1 POP JUMP JUMPDEST PUSH2 0x9DD DUP2 PUSH2 0x9C2 JUMP JUMPDEST DUP2 EQ PUSH2 0x9E8 JUMPI PUSH1 0x0 DUP1 REVERT JUMPDEST POP JUMP JUMPDEST PUSH1 0x0 DUP2 CALLDATALOAD SWAP1 POP PUSH2 0x9FA DUP2 PUSH2 0x9D4 JUMP JUMPDEST SWAP3 SWAP2 POP POP JUMP JUMPDEST PUSH1 0x0 DUP1 PUSH1 0x40 DUP4 DUP6 SUB SLT ISZERO PUSH2 0xA17 JUMPI PUSH2 0xA16 PUSH2 0x962 JUMP JUMPDEST JUMPDEST PUSH1 0x0 PUSH2 0xA25 DUP6 DUP3 DUP7 ADD PUSH2 0x98D JUMP JUMPDEST SWAP3 POP POP PUSH1 0x20 PUSH2 0xA36 DUP6 DUP3 DUP7 ADD PUSH2 0x9EB JUMP JUMPDEST SWAP2 POP POP SWAP3 POP SWAP3 SWAP1 POP JUMP JUMPDEST PUSH2 0xA49 DUP2 PUSH2 0x96C JUMP JUMPDEST DUP3 MSTORE POP POP JUMP JUMPDEST PUSH1 0x0 PUSH1 0x20 DUP3 ADD SWAP1 POP PUSH2 0xA64 PUSH1 0x0 DUP4 ADD DUP5 PUSH2 0xA40 JUMP JUMPDEST SWAP3 SWAP2 POP POP JUMP JUMPDEST PUSH1 0x0 DUP1 REVERT JUMPDEST PUSH1 0x0 DUP1 REVERT JUMPDEST PUSH1 0x0 PUSH1 0x1F NOT PUSH1 0x1F DUP4 ADD AND SWAP1 POP SWAP2 SWAP1 POP JUMP JUMPDEST PUSH32 0x4E487B7100000000000000000000000000000000000000000000000000000000 PUSH1 0x0 MSTORE PUSH1 0x41 PUSH1 0x4 MSTORE PUSH1 0x24 PUSH1 0x0 REVERT JUMPDEST PUSH2 0xABD DUP3 PUSH2 0xA74 JUMP JUMPDEST DUP2 ADD DUP2 DUP2 LT PUSH8 0xFFFFFFFFFFFFFFFF DUP3 GT OR ISZERO PUSH2 0xADC JUMPI PUSH2 0xADB PUSH2 0xA85 JUMP JUMPDEST JUMPDEST DUP1 PUSH1 0x40 MSTORE POP POP POP JUMP JUMPDEST PUSH1 0x0 PUSH2 0xAEF PUSH2 0x958 JUMP JUMPDEST SWAP1 POP PUSH2 0xAFB DUP3 DUP3 PUSH2 0xAB4 JUMP JUMPDEST SWAP2 SWAP1 POP JUMP JUMPDEST PUSH1 0x0 PUSH8 0xFFFFFFFFFFFFFFFF DUP3 GT ISZERO PUSH2 0xB1B JUMPI PUSH2 0xB1A PUSH2 0xA85 JUMP JUMPDEST JUMPDEST PUSH2 0xB24 DUP3 PUSH2 0xA74 JUMP JUMPDEST SWAP1 POP PUSH1 0x20 DUP2 ADD SWAP1 POP SWAP2 SWAP1 POP JUMP JUMPDEST DUP3 DUP2 DUP4 CALLDATACOPY PUSH1 0x0 DUP4 DUP4 ADD MSTORE POP POP POP JUMP JUMPDEST PUSH1 0x0 PUSH2 0xB53 PUSH2 0xB4E DUP5 PUSH2 0xB00 JUMP JUMPDEST PUSH2 0xAE5 JUMP JUMPDEST SWAP1 POP DUP3 DUP2 MSTORE PUSH1 0x20 DUP2 ADD DUP5 DUP5 DUP5 ADD GT ISZERO PUSH2 0xB6F JUMPI PUSH2 0xB6E PUSH2 0xA6F JUMP JUMPDEST JUMPDEST PUSH2 0xB7A DUP5 DUP3 DUP6 PUSH2 0xB31 JUMP JUMPDEST POP SWAP4 SWAP3 POP POP POP JUMP JUMPDEST PUSH1 0x0 DUP3 PUSH1 0x1F DUP4 ADD SLT PUSH2 0xB97 JUMPI PUSH2 0xB96 PUSH2 0xA6A JUMP JUMPDEST JUMPDEST DUP2 CALLDATALOAD PUSH2 0xBA7 DUP5 DUP3 PUSH1 0x20 DUP7 ADD PUSH2 0xB40 JUMP JUMPDEST SWAP2 POP POP SWAP3 SWAP2 POP POP JUMP JUMPDEST PUSH1 0x0 DUP1 PUSH1 0x40 DUP4 DUP6 SUB SLT ISZERO PUSH2 0xBC7 JUMPI PUSH2 0xBC6 PUSH2 0x962 JUMP JUMPDEST JUMPDEST PUSH1 0x0 DUP4 ADD CALLDATALOAD PUSH8 0xFFFFFFFFFFFFFFFF DUP2 GT ISZERO PUSH2 0xBE5 JUMPI PUSH2 0xBE4 PUSH2 0x967 JUMP JUMPDEST JUMPDEST PUSH2 0xBF1 DUP6 DUP3 DUP7 ADD PUSH2 0xB82 JUMP JUMPDEST SWAP3 POP POP PUSH1 0x20 DUP4 ADD CALLDATALOAD PUSH8 0xFFFFFFFFFFFFFFFF DUP2 GT ISZERO PUSH2 0xC12 JUMPI PUSH2 0xC11 PUSH2 0x967 JUMP JUMPDEST JUMPDEST PUSH2 0xC1E DUP6 DUP3 DUP7 ADD PUSH2 0xB82 JUMP JUMPDEST SWAP2 POP POP SWAP3 POP SWAP3 SWAP1 POP JUMP JUMPDEST PUSH1 0x0 DUP2 ISZERO ISZERO SWAP1 POP SWAP2 SWAP1 POP JUMP JUMPDEST PUSH2 0xC3D DUP2 PUSH2 0xC28 JUMP JUMPDEST DUP3 MSTORE POP POP JUMP JUMPDEST PUSH1 0x0 PUSH1 0x20 DUP3 ADD SWAP1 POP PUSH2 0xC58 PUSH1 0x0 DUP4 ADD DUP5 PUSH2 0xC34 JUMP JUMPDEST SWAP3 SWAP2 POP POP JUMP JUMPDEST PUSH1 0x0 DUP2 MLOAD SWAP1 POP SWAP2 SWAP1 POP JUMP JUMPDEST PUSH1 0x0 DUP3 DUP3 MSTORE PUSH1 0x20 DUP3 ADD SWAP1 POP SWAP3 SWAP2 POP POP JUMP JUMPDEST PUSH1 0x0 JUMPDEST DUP4 DUP2 LT ISZERO PUSH2 0xC98 JUMPI DUP1 DUP3 ADD MLOAD DUP2 DUP5 ADD MSTORE PUSH1 0x20 DUP2 ADD SWAP1 POP PUSH2 0xC7D JUMP JUMPDEST DUP4 DUP2 GT ISZERO PUSH2 0xCA7 JUMPI PUSH1 0x0 DUP5 DUP5 ADD MSTORE JUMPDEST POP POP POP POP JUMP JUMPDEST PUSH1 0x0 PUSH2 0xCB8 DUP3 PUSH2 0xC5E JUMP JUMPDEST PUSH2 0xCC2 DUP2 DUP6 PUSH2 0xC69 JUMP JUMPDEST SWAP4 POP PUSH2 0xCD2 DUP2 DUP6 PUSH1 0x20 DUP7 ADD PUSH2 0xC7A JUMP JUMPDEST PUSH2 0xCDB DUP2 PUSH2 0xA74 JUMP JUMPDEST DUP5 ADD SWAP2 POP POP SWAP3 SWAP2 POP POP JUMP JUMPDEST PUSH1 0x0 PUSH1 0x20 DUP3 ADD SWAP1 POP DUP2 DUP2 SUB PUSH1 0x0 DUP4 ADD MSTORE PUSH2 0xD00 DUP2 DUP5 PUSH2 0xCAD JUMP JUMPDEST SWAP1 POP SWAP3 SWAP2 POP POP JUMP JUMPDEST PUSH32 0x2054686973206164647265737320646F65736E27742065786973747300000000 PUSH1 0x0 DUP3 ADD MSTORE POP JUMP JUMPDEST PUSH1 0x0 PUSH2 0xD3E PUSH1 0x1C DUP4 PUSH2 0xC69 JUMP JUMPDEST SWAP2 POP PUSH2 0xD49 DUP3 PUSH2 0xD08 JUMP JUMPDEST PUSH1 0x20 DUP3 ADD SWAP1 POP SWAP2 SWAP1 POP JUMP JUMPDEST PUSH1 0x0 PUSH1 0x20 DUP3 ADD SWAP1 POP DUP2 DUP2 SUB PUSH1 0x0 DUP4 ADD MSTORE PUSH2 0xD6D DUP2 PUSH2 0xD31 JUMP JUMPDEST SWAP1 POP SWAP2 SWAP1 POP JUMP JUMPDEST PUSH32 0x506C6561736520696E7365727420796F75722063617264000000000000000000 PUSH1 0x0 DUP3 ADD MSTORE POP JUMP JUMPDEST PUSH1 0x0 PUSH2 0xDAA PUSH1 0x17 DUP4 PUSH2 0xC69 JUMP JUMPDEST SWAP2 POP PUSH2 0xDB5 DUP3 PUSH2 0xD74 JUMP JUMPDEST PUSH1 0x20 DUP3 ADD SWAP1 POP SWAP2 SWAP1 POP JUMP JUMPDEST PUSH1 0x0 PUSH1 0x20 DUP3 ADD SWAP1 POP DUP2 DUP2 SUB PUSH1 0x0 DUP4 ADD MSTORE PUSH2 0xDD9 DUP2 PUSH2 0xD9D JUMP JUMPDEST SWAP1 POP SWAP2 SWAP1 POP JUMP JUMPDEST PUSH32 0x4E487B7100000000000000000000000000000000000000000000000000000000 PUSH1 0x0 MSTORE PUSH1 0x11 PUSH1 0x4 MSTORE PUSH1 0x24 PUSH1 0x0 REVERT JUMPDEST PUSH1 0x0 PUSH2 0xE1A DUP3 PUSH2 0x96C JUMP JUMPDEST SWAP2 POP PUSH2 0xE25 DUP4 PUSH2 0x96C JUMP JUMPDEST SWAP3 POP DUP3 PUSH32 0xFFFFFFFFFFFFFFFFFFFFFFFFFFFFFFFFFFFFFFFFFFFFFFFFFFFFFFFFFFFFFFFF SUB DUP3 GT ISZERO PUSH2 0xE5A JUMPI PUSH2 0xE59 PUSH2 0xDE0 JUMP JUMPDEST JUMPDEST DUP3 DUP3 ADD SWAP1 POP SWAP3 SWAP2 POP POP JUMP JUMPDEST PUSH32 0x596F75207265616368656420746865206C696D69742070657220646179000000 PUSH1 0x0 DUP3 ADD MSTORE POP JUMP JUMPDEST PUSH1 0x0 PUSH2 0xE9B PUSH1 0x1D DUP4 PUSH2 0xC69 JUMP JUMPDEST SWAP2 POP PUSH2 0xEA6 DUP3 PUSH2 0xE65 JUMP JUMPDEST PUSH1 0x20 DUP3 ADD SWAP1 POP SWAP2 SWAP1 POP JUMP JUMPDEST PUSH1 0x0 PUSH1 0x20 DUP3 ADD SWAP1 POP DUP2 DUP2 SUB PUSH1 0x0 DUP4 ADD MSTORE PUSH2 0xECA DUP2 PUSH2 0xE8E JUMP JUMPDEST SWAP1 POP SWAP2 SWAP1 POP JUMP JUMPDEST PUSH32 0x6F6E6C792035207472616E73616374696F6E7320706572206461790000000000 PUSH1 0x0 DUP3 ADD MSTORE POP JUMP JUMPDEST PUSH1 0x0 PUSH2 0xF07 PUSH1 0x1B DUP4 PUSH2 0xC69 JUMP JUMPDEST SWAP2 POP PUSH2 0xF12 DUP3 PUSH2 0xED1 JUMP JUMPDEST PUSH1 0x20 DUP3 ADD SWAP1 POP SWAP2 SWAP1 POP JUMP JUMPDEST PUSH1 0x0 PUSH1 0x20 DUP3 ADD SWAP1 POP DUP2 DUP2 SUB PUSH1 0x0 DUP4 ADD MSTORE PUSH2 0xF36 DUP2 PUSH2 0xEFA JUMP JUMPDEST SWAP1 POP SWAP2 SWAP1 POP JUMP JUMPDEST PUSH32 0x596F75207265616368656420746865206C696D69742053656E64282900000000 PUSH1 0x0 DUP3 ADD MSTORE POP JUMP JUMPDEST PUSH1 0x0 PUSH2 0xF73 PUSH1 0x1C DUP4 PUSH2 0xC69 JUMP JUMPDEST SWAP2 POP PUSH2 0xF7E DUP3 PUSH2 0xF3D JUMP JUMPDEST PUSH1 0x20 DUP3 ADD SWAP1 POP SWAP2 SWAP1 POP JUMP JUMPDEST PUSH1 0x0 PUSH1 0x20 DUP3 ADD SWAP1 POP DUP2 DUP2 SUB PUSH1 0x0 DUP4 ADD MSTORE PUSH2 0xFA2 DUP2 PUSH2 0xF66 JUMP JUMPDEST SWAP1 POP SWAP2 SWAP1 POP JUMP JUMPDEST PUSH1 0x0 PUSH2 0xFB4 DUP3 PUSH2 0x96C JUMP JUMPDEST SWAP2 POP PUSH2 0xFBF DUP4 PUSH2 0x96C JUMP JUMPDEST SWAP3 POP DUP3 DUP3 LT ISZERO PUSH2 0xFD2 JUMPI PUSH2 0xFD1 PUSH2 0xDE0 JUMP JUMPDEST JUMPDEST DUP3 DUP3 SUB SWAP1 POP SWAP3 SWAP2 POP POP JUMP JUMPDEST PUSH32 0x4E487B7100000000000000000000000000000000000000000000000000000000 PUSH1 0x0 MSTORE PUSH1 0x22 PUSH1 0x4 MSTORE PUSH1 0x24 PUSH1 0x0 REVERT JUMPDEST PUSH1 0x0 PUSH1 0x2 DUP3 DIV SWAP1 POP PUSH1 0x1 DUP3 AND DUP1 PUSH2 0x1024 JUMPI PUSH1 0x7F DUP3 AND SWAP2 POP JUMPDEST PUSH1 0x20 DUP3 LT DUP2 SUB PUSH2 0x1037 JUMPI PUSH2 0x1036 PUSH2 0xFDD JUMP JUMPDEST JUMPDEST POP SWAP2 SWAP1 POP JUMP JUMPDEST PUSH1 0x0 DUP2 SWAP1 POP DUP2 PUSH1 0x0 MSTORE PUSH1 0x20 PUSH1 0x0 KECCAK256 SWAP1 POP SWAP2 SWAP1 POP JUMP JUMPDEST PUSH1 0x0 PUSH1 0x20 PUSH1 0x1F DUP4 ADD DIV SWAP1 POP SWAP2 SWAP1 POP JUMP JUMPDEST PUSH1 0x0 DUP3 DUP3 SHL SWAP1 POP SWAP3 SWAP2 POP POP JUMP JUMPDEST PUSH1 0x0 PUSH1 0x8 DUP4 MUL PUSH2 0x109F PUSH32 0xFFFFFFFFFFFFFFFFFFFFFFFFFFFFFFFFFFFFFFFFFFFFFFFFFFFFFFFFFFFFFFFF DUP3 PUSH2 0x1062 JUMP JUMPDEST PUSH2 0x10A9 DUP7 DUP4 PUSH2 0x1062 JUMP JUMPDEST SWAP6 POP DUP1 NOT DUP5 AND SWAP4 POP DUP1 DUP7 AND DUP5 OR SWAP3 POP POP POP SWAP4 SWAP3 POP POP POP JUMP JUMPDEST PUSH1 0x0 DUP2 SWAP1 POP SWAP2 SWAP1 POP JUMP JUMPDEST PUSH1 0x0 PUSH2 0x10E6 PUSH2 0x10E1 PUSH2 0x10DC DUP5 PUSH2 0x96C JUMP JUMPDEST PUSH2 0x10C1 JUMP JUMPDEST PUSH2 0x96C JUMP JUMPDEST SWAP1 POP SWAP2 SWAP1 POP JUMP JUMPDEST PUSH1 0x0 DUP2 SWAP1 POP SWAP2 SWAP1 POP JUMP JUMPDEST PUSH2 0x1100 DUP4 PUSH2 0x10CB JUMP JUMPDEST PUSH2 0x1114 PUSH2 0x110C DUP3 PUSH2 0x10ED JUMP JUMPDEST DUP5 DUP5 SLOAD PUSH2 0x106F JUMP JUMPDEST DUP3 SSTORE POP POP POP POP JUMP JUMPDEST PUSH1 0x0 SWAP1 JUMP JUMPDEST PUSH2 0x1129 PUSH2 0x111C JUMP JUMPDEST PUSH2 0x1134 DUP2 DUP5 DUP5 PUSH2 0x10F7 JUMP JUMPDEST POP POP POP JUMP JUMPDEST JUMPDEST DUP2 DUP2 LT ISZERO PUSH2 0x1158 JUMPI PUSH2 0x114D PUSH1 0x0 DUP3 PUSH2 0x1121 JUMP JUMPDEST PUSH1 0x1 DUP2 ADD SWAP1 POP PUSH2 0x113A JUMP JUMPDEST POP POP JUMP JUMPDEST PUSH1 0x1F DUP3 GT ISZERO PUSH2 0x119D JUMPI PUSH2 0x116E DUP2 PUSH2 0x103D JUMP JUMPDEST PUSH2 0x1177 DUP5 PUSH2 0x1052 JUMP JUMPDEST DUP2 ADD PUSH1 0x20 DUP6 LT ISZERO PUSH2 0x1186 JUMPI DUP2 SWAP1 POP JUMPDEST PUSH2 0x119A PUSH2 0x1192 DUP6 PUSH2 0x1052 JUMP JUMPDEST DUP4 ADD DUP3 PUSH2 0x1139 JUMP JUMPDEST POP POP JUMPDEST POP POP POP JUMP JUMPDEST PUSH1 0x0 DUP3 DUP3 SHR SWAP1 POP SWAP3 SWAP2 POP POP JUMP JUMPDEST PUSH1 0x0 PUSH2 0x11C0 PUSH1 0x0 NOT DUP5 PUSH1 0x8 MUL PUSH2 0x11A2 JUMP JUMPDEST NOT DUP1 DUP4 AND SWAP2 POP POP SWAP3 SWAP2 POP POP JUMP JUMPDEST PUSH1 0x0 PUSH2 0x11D9 DUP4 DUP4 PUSH2 0x11AF JUMP JUMPDEST SWAP2 POP DUP3 PUSH1 0x2 MUL DUP3 OR SWAP1 POP SWAP3 SWAP2 POP POP JUMP JUMPDEST PUSH2 0x11F2 DUP3 PUSH2 0xC5E JUMP JUMPDEST PUSH8 0xFFFFFFFFFFFFFFFF DUP2 GT ISZERO PUSH2 0x120B JUMPI PUSH2 0x120A PUSH2 0xA85 JUMP JUMPDEST JUMPDEST PUSH2 0x1215 DUP3 SLOAD PUSH2 0x100C JUMP JUMPDEST PUSH2 0x1220 DUP3 DUP3 DUP6 PUSH2 0x115C JUMP JUMPDEST PUSH1 0x0 PUSH1 0x20 SWAP1 POP PUSH1 0x1F DUP4 GT PUSH1 0x1 DUP2 EQ PUSH2 0x1253 JUMPI PUSH1 0x0 DUP5 ISZERO PUSH2 0x1241 JUMPI DUP3 DUP8 ADD MLOAD SWAP1 POP JUMPDEST PUSH2 0x124B DUP6 DUP3 PUSH2 0x11CD JUMP JUMPDEST DUP7 SSTORE POP PUSH2 0x12B3 JUMP JUMPDEST PUSH1 0x1F NOT DUP5 AND PUSH2 0x1261 DUP7 PUSH2 0x103D JUMP JUMPDEST PUSH1 0x0 JUMPDEST DUP3 DUP2 LT ISZERO PUSH2 0x1289 JUMPI DUP5 DUP10 ADD MLOAD DUP3 SSTORE PUSH1 0x1 DUP3 ADD SWAP2 POP PUSH1 0x20 DUP6 ADD SWAP5 POP PUSH1 0x20 DUP2 ADD SWAP1 POP PUSH2 0x1264 JUMP JUMPDEST DUP7 DUP4 LT ISZERO PUSH2 0x12A6 JUMPI DUP5 DUP10 ADD MLOAD PUSH2 0x12A2 PUSH1 0x1F DUP10 AND DUP3 PUSH2 0x11AF JUMP JUMPDEST DUP4 SSTORE POP JUMPDEST PUSH1 0x1 PUSH1 0x2 DUP9 MUL ADD DUP9 SSTORE POP POP POP JUMPDEST POP POP POP POP POP POP JUMP JUMPDEST PUSH32 0x4E6F7420656E6F7567682066756E647300000000000000000000000000000000 PUSH1 0x0 DUP3 ADD MSTORE POP JUMP JUMPDEST PUSH1 0x0 PUSH2 0x12F1 PUSH1 0x10 DUP4 PUSH2 0xC69 JUMP JUMPDEST SWAP2 POP PUSH2 0x12FC DUP3 PUSH2 0x12BB JUMP JUMPDEST PUSH1 0x20 DUP3 ADD SWAP1 POP SWAP2 SWAP1 POP JUMP JUMPDEST PUSH1 0x0 PUSH1 0x20 DUP3 ADD SWAP1 POP DUP2 DUP2 SUB PUSH1 0x0 DUP4 ADD MSTORE PUSH2 0x1320 DUP2 PUSH2 0x12E4 JUMP JUMPDEST SWAP1 POP SWAP2 SWAP1 POP JUMP JUMPDEST PUSH32 0x4E6F2076616C6964206372656469742063617264000000000000000000000000 PUSH1 0x0 DUP3 ADD MSTORE POP JUMP JUMPDEST PUSH1 0x0 PUSH2 0x135D PUSH1 0x14 DUP4 PUSH2 0xC69 JUMP JUMPDEST SWAP2 POP PUSH2 0x1368 DUP3 PUSH2 0x1327 JUMP JUMPDEST PUSH1 0x20 DUP3 ADD SWAP1 POP SWAP2 SWAP1 POP JUMP JUMPDEST PUSH1 0x0 PUSH1 0x20 DUP3 ADD SWAP1 POP DUP2 DUP2 SUB PUSH1 0x0 DUP4 ADD MSTORE PUSH2 0x138C DUP2 PUSH2 0x1350 JUMP JUMPDEST SWAP1 POP SWAP2 SWAP1 POP JUMP INVALID LOG2 PUSH5 0x6970667358 0x22 SLT KECCAK256 SELFBALANCE DUP8 0xC3 PUSH26 0x32999F020F7FE43FE73C6CF8D73AF7BDD22CBDDA5AC1A9EBDDD4 0xD0 PUSH27 0x64736F6C634300080F003300000000000000000000000000000000 "
				},
				"gasEstimates": {
					"creation": {
						"codeDepositCost": "1013000",
						"executionCost": "infinite",
						"totalCost": "infinite"
					},
					"external": {
						"TotalAmount()": "2474",
						"TotalFunds()": "2452",
						"amount()": "2473",
						"callCount()": "2496",
						"callPutCard()": "2494",
						"cardNumber()": "infinite",
						"countTransfer()": "2519",
						"cvv()": "infinite",
						"firstTransferTime()": "2475",
						"getOutCard()": "24478",
						"getTime()": "425",
						"message()": "infinite",
						"receiverFunds()": "2495",
						"sendMoney(uint256,address)": "infinite",
						"setCard(string,string)": "infinite",
						"totalWeekTransactions()": "2451"
					}
				},
				"methodIdentifiers": {
					"TotalAmount()": "7eb9f571",
					"TotalFunds()": "7b9a3f4c",
					"amount()": "aa8c217c",
					"callCount()": "4b28f9a2",
					"callPutCard()": "3c626f00",
					"cardNumber()": "8fa11864",
					"countTransfer()": "34f5ccde",
					"cvv()": "42fb7936",
					"firstTransferTime()": "0e85fa72",
					"getOutCard()": "8e029c0b",
					"getTime()": "557ed1ba",
					"message()": "e21f37ce",
					"receiverFunds()": "bc309496",
					"sendMoney(uint256,address)": "062a7544",
					"setCard(string,string)": "12a029a4",
					"totalWeekTransactions()": "94b5dcaa"
				}
			},
			"storageLayout": {
				"storage": [
					{
						"astId": 3,
						"contract": "Dapp/MoneyTransfer.sol:MoneyTransfer",
						"label": "amount",
						"offset": 0,
						"slot": "0",
						"type": "t_uint256"
					},
					{
						"astId": 5,
						"contract": "Dapp/MoneyTransfer.sol:MoneyTransfer",
						"label": "TotalFunds",
						"offset": 0,
						"slot": "1",
						"type": "t_uint256"
					},
					{
						"astId": 7,
						"contract": "Dapp/MoneyTransfer.sol:MoneyTransfer",
						"label": "receiver",
						"offset": 0,
						"slot": "2",
						"type": "t_address"
					},
					{
						"astId": 13,
						"contract": "Dapp/MoneyTransfer.sol:MoneyTransfer",
						"label": "day",
						"offset": 0,
						"slot": "3",
						"type": "t_uint256"
					},
					{
						"astId": 15,
						"contract": "Dapp/MoneyTransfer.sol:MoneyTransfer",
						"label": "totalWeekTransactions",
						"offset": 0,
						"slot": "4",
						"type": "t_uint256"
					},
					{
						"astId": 17,
						"contract": "Dapp/MoneyTransfer.sol:MoneyTransfer",
						"label": "maxTransaction",
						"offset": 0,
						"slot": "5",
						"type": "t_uint256"
					},
					{
						"astId": 19,
						"contract": "Dapp/MoneyTransfer.sol:MoneyTransfer",
						"label": "minTransaction",
						"offset": 0,
						"slot": "6",
						"type": "t_uint256"
					},
					{
						"astId": 22,
						"contract": "Dapp/MoneyTransfer.sol:MoneyTransfer",
						"label": "countries",
						"offset": 0,
						"slot": "7",
						"type": "t_array(t_uint256)dyn_storage"
					},
					{
						"astId": 24,
						"contract": "Dapp/MoneyTransfer.sol:MoneyTransfer",
						"label": "receiverFunds",
						"offset": 0,
						"slot": "8",
						"type": "t_uint256"
					},
					{
						"astId": 26,
						"contract": "Dapp/MoneyTransfer.sol:MoneyTransfer",
						"label": "message",
						"offset": 0,
						"slot": "9",
						"type": "t_string_storage"
					},
					{
						"astId": 28,
						"contract": "Dapp/MoneyTransfer.sol:MoneyTransfer",
						"label": "cardNumber",
						"offset": 0,
						"slot": "10",
						"type": "t_string_storage"
					},
					{
						"astId": 30,
						"contract": "Dapp/MoneyTransfer.sol:MoneyTransfer",
						"label": "cvv",
						"offset": 0,
						"slot": "11",
						"type": "t_string_storage"
					},
					{
						"astId": 32,
						"contract": "Dapp/MoneyTransfer.sol:MoneyTransfer",
						"label": "TotalAmount",
						"offset": 0,
						"slot": "12",
						"type": "t_uint256"
					},
					{
						"astId": 34,
						"contract": "Dapp/MoneyTransfer.sol:MoneyTransfer",
						"label": "firstTransferTime",
						"offset": 0,
						"slot": "13",
						"type": "t_uint256"
					},
					{
						"astId": 36,
						"contract": "Dapp/MoneyTransfer.sol:MoneyTransfer",
						"label": "countTransfer",
						"offset": 0,
						"slot": "14",
						"type": "t_uint256"
					},
					{
						"astId": 49,
						"contract": "Dapp/MoneyTransfer.sol:MoneyTransfer",
						"label": "callCount",
						"offset": 0,
						"slot": "15",
						"type": "t_uint256"
					},
					{
						"astId": 52,
						"contract": "Dapp/MoneyTransfer.sol:MoneyTransfer",
						"label": "callPutCard",
						"offset": 0,
						"slot": "16",
						"type": "t_bool"
					}
				],
				"types": {
					"t_address": {
						"encoding": "inplace",
						"label": "address",
						"numberOfBytes": "20"
					},
					"t_array(t_uint256)dyn_storage": {
						"base": "t_uint256",
						"encoding": "dynamic_array",
						"label": "uint256[]",
						"numberOfBytes": "32"
					},
					"t_bool": {
						"encoding": "inplace",
						"label": "bool",
						"numberOfBytes": "1"
					},
					"t_string_storage": {
						"encoding": "bytes",
						"label": "string",
						"numberOfBytes": "32"
					},
					"t_uint256": {
						"encoding": "inplace",
						"label": "uint256",
						"numberOfBytes": "32"
					}
				}
			},
			"userdoc": {
				"kind": "user",
				"methods": {},
				"version": 1
			}
		}
	}
}