{
	"Dapp/MoneyTransfer.sol": {
		"MoneyTransfer": {
			"abi": [
				{
					"inputs": [
						{
							"internalType": "uint256",
							"name": "_totalFunds",
							"type": "uint256"
						}
					],
					"stateMutability": "nonpayable",
					"type": "constructor"
				},
				{
					"inputs": [],
					"name": "TotalAmount",
					"outputs": [
						{
							"internalType": "uint256",
							"name": "",
							"type": "uint256"
						}
					],
					"stateMutability": "view",
					"type": "function"
				},
				{
					"inputs": [],
					"name": "TotalFunds",
					"outputs": [
						{
							"internalType": "uint256",
							"name": "",
							"type": "uint256"
						}
					],
					"stateMutability": "view",
					"type": "function"
				},
				{
					"inputs": [],
					"name": "amount",
					"outputs": [
						{
							"internalType": "uint256",
							"name": "",
							"type": "uint256"
						}
					],
					"stateMutability": "view",
					"type": "function"
				},
				{
					"inputs": [],
					"name": "callCount",
					"outputs": [
						{
							"internalType": "uint256",
							"name": "",
							"type": "uint256"
						}
					],
					"stateMutability": "view",
					"type": "function"
				},
				{
					"inputs": [],
					"name": "callPutCard",
					"outputs": [
						{
							"internalType": "bool",
							"name": "",
							"type": "bool"
						}
					],
					"stateMutability": "view",
					"type": "function"
				},
				{
					"inputs": [],
					"name": "cardNumber",
					"outputs": [
						{
							"internalType": "string",
							"name": "",
							"type": "string"
						}
					],
					"stateMutability": "view",
					"type": "function"
				},
				{
					"inputs": [],
					"name": "cvv",
					"outputs": [
						{
							"internalType": "string",
							"name": "",
							"type": "string"
						}
					],
					"stateMutability": "view",
					"type": "function"
				},
				{
					"inputs": [],
					"name": "firstTransferTime",
					"outputs": [
						{
							"internalType": "uint256",
							"name": "",
							"type": "uint256"
						}
					],
					"stateMutability": "view",
					"type": "function"
				},
				{
					"inputs": [],
					"name": "getBalance",
					"outputs": [
						{
							"internalType": "uint256",
							"name": "",
							"type": "uint256"
						}
					],
					"stateMutability": "pure",
					"type": "function"
				},
				{
					"inputs": [],
					"name": "getLastTransaction",
					"outputs": [
						{
							"components": [
								{
									"internalType": "address",
									"name": "address_from",
									"type": "address"
								},
								{
									"internalType": "address",
									"name": "address_to",
									"type": "address"
								},
								{
									"internalType": "uint256",
									"name": "amount",
									"type": "uint256"
								},
								{
									"internalType": "uint256",
									"name": "timestamp",
									"type": "uint256"
								}
							],
							"internalType": "struct Transaction.Transactions",
							"name": "",
							"type": "tuple"
						}
					],
					"stateMutability": "view",
					"type": "function"
				},
				{
					"inputs": [],
					"name": "getNumberOfTransactions",
					"outputs": [
						{
							"internalType": "uint256",
							"name": "",
							"type": "uint256"
						}
					],
					"stateMutability": "view",
					"type": "function"
				},
				{
					"inputs": [],
					"name": "getOutCard",
					"outputs": [],
					"stateMutability": "nonpayable",
					"type": "function"
				},
				{
					"inputs": [],
					"name": "getTime",
					"outputs": [
						{
							"internalType": "uint256",
							"name": "",
							"type": "uint256"
						}
					],
					"stateMutability": "view",
					"type": "function"
				},
				{
					"inputs": [
						{
							"internalType": "uint256",
							"name": "_index",
							"type": "uint256"
						}
					],
					"name": "getTransactionById",
					"outputs": [
						{
							"components": [
								{
									"internalType": "address",
									"name": "address_from",
									"type": "address"
								},
								{
									"internalType": "address",
									"name": "address_to",
									"type": "address"
								},
								{
									"internalType": "uint256",
									"name": "amount",
									"type": "uint256"
								},
								{
									"internalType": "uint256",
									"name": "timestamp",
									"type": "uint256"
								}
							],
							"internalType": "struct Transaction.Transactions",
							"name": "",
							"type": "tuple"
						}
					],
					"stateMutability": "view",
					"type": "function"
				},
				{
					"inputs": [],
					"name": "getTransactions",
					"outputs": [
						{
							"components": [
								{
									"internalType": "address",
									"name": "address_from",
									"type": "address"
								},
								{
									"internalType": "address",
									"name": "address_to",
									"type": "address"
								},
								{
									"internalType": "uint256",
									"name": "amount",
									"type": "uint256"
								},
								{
									"internalType": "uint256",
									"name": "timestamp",
									"type": "uint256"
								}
							],
							"internalType": "struct Transaction.Transactions[]",
							"name": "",
							"type": "tuple[]"
						}
					],
					"stateMutability": "view",
					"type": "function"
				},
				{
					"inputs": [],
					"name": "message",
					"outputs": [
						{
							"internalType": "string",
							"name": "",
							"type": "string"
						}
					],
					"stateMutability": "view",
					"type": "function"
				},
				{
					"inputs": [
						{
							"internalType": "uint256",
							"name": "_amount",
							"type": "uint256"
						},
						{
							"internalType": "address",
							"name": "_receiver",
							"type": "address"
						}
					],
					"name": "sendMoney",
					"outputs": [],
					"stateMutability": "nonpayable",
					"type": "function"
				},
				{
					"inputs": [
						{
							"internalType": "string",
							"name": "_cardNumber",
							"type": "string"
						},
						{
							"internalType": "string",
							"name": "_cvv",
							"type": "string"
						}
					],
					"name": "setCard",
					"outputs": [],
					"stateMutability": "nonpayable",
					"type": "function"
				},
				{
					"inputs": [
						{
							"internalType": "uint256",
							"name": "",
							"type": "uint256"
						}
					],
					"name": "transactionList",
					"outputs": [
						{
							"internalType": "address",
							"name": "address_from",
							"type": "address"
						},
						{
							"internalType": "address",
							"name": "address_to",
							"type": "address"
						},
						{
							"internalType": "uint256",
							"name": "amount",
							"type": "uint256"
						},
						{
							"internalType": "uint256",
							"name": "timestamp",
							"type": "uint256"
						}
					],
					"stateMutability": "view",
					"type": "function"
				},
				{
					"inputs": [
						{
							"internalType": "uint256",
							"name": "",
							"type": "uint256"
						}
					],
					"name": "trn",
					"outputs": [
						{
							"internalType": "address",
							"name": "address_from",
							"type": "address"
						},
						{
							"internalType": "address",
							"name": "address_to",
							"type": "address"
						},
						{
							"internalType": "uint256",
							"name": "amount",
							"type": "uint256"
						},
						{
							"internalType": "uint256",
							"name": "timestamp",
							"type": "uint256"
						}
					],
					"stateMutability": "view",
					"type": "function"
				},
				{
					"inputs": [
						{
							"internalType": "uint256",
							"name": "money",
							"type": "uint256"
						}
					],
					"name": "withdrawMoney",
					"outputs": [
						{
							"internalType": "uint256",
							"name": "",
							"type": "uint256"
						}
					],
					"stateMutability": "pure",
					"type": "function"
				}
			],
			"devdoc": {
				"kind": "dev",
				"methods": {},
				"version": 1
			},
			"evm": {
				"assembly": "    /* \"Dapp/MoneyTransfer.sol\":124:4018  contract MoneyTransfer is Transaction, Receiver {... */\n  mstore(0x40, 0x80)\n    /* \"Dapp/Transaction.sol\":346:347  0 */\n  0x00\n    /* \"Dapp/Transaction.sol\":331:347  uint counter = 0 */\n  0x02\n  sstore\n    /* \"Dapp/MoneyTransfer.sol\":602:603  0 */\n  0x00\n    /* \"Dapp/MoneyTransfer.sol\":578:603  uint public callCount = 0 */\n  0x0b\n  sstore\n    /* \"Dapp/MoneyTransfer.sol\":637:642  false */\n  0x00\n    /* \"Dapp/MoneyTransfer.sol\":611:642  bool public callPutCard = false */\n  0x0c\n  exp(0x0100, 0x00)\n  dup2\n  sload\n  dup2\n  0xff\n  mul\n  not\n  and\n  swap1\n  dup4\n  iszero\n  iszero\n  mul\n  or\n  swap1\n  sstore\n  pop\n    /* \"Dapp/MoneyTransfer.sol\":427:566  constructor (uint256 _totalFunds) {... */\n  callvalue\n  dup1\n  iszero\n  tag_1\n  jumpi\n  0x00\n  dup1\n  revert\ntag_1:\n  pop\n  mload(0x40)\n  sub(codesize, bytecodeSize)\n  dup1\n  bytecodeSize\n  dup4\n  codecopy\n  dup2\n  dup2\n  add\n  0x40\n  mstore\n  dup2\n  add\n  swap1\n  tag_2\n  swap2\n  swap1\n  tag_3\n  jump\t// in\ntag_2:\n    /* \"Dapp/MoneyTransfer.sol\":547:558  _totalFunds */\n  dup1\n    /* \"Dapp/MoneyTransfer.sol\":534:544  TotalFunds */\n  0x04\n    /* \"Dapp/MoneyTransfer.sol\":534:558  TotalFunds = _totalFunds */\n  dup2\n  swap1\n  sstore\n  pop\n    /* \"Dapp/MoneyTransfer.sol\":427:566  constructor (uint256 _totalFunds) {... */\n  pop\n    /* \"Dapp/MoneyTransfer.sol\":124:4018  contract MoneyTransfer is Transaction, Receiver {... */\n  jump(tag_6)\n    /* \"#utility.yul\":88:205   */\ntag_8:\n    /* \"#utility.yul\":197:198   */\n  0x00\n    /* \"#utility.yul\":194:195   */\n  dup1\n    /* \"#utility.yul\":187:199   */\n  revert\n    /* \"#utility.yul\":334:411   */\ntag_10:\n    /* \"#utility.yul\":371:378   */\n  0x00\n    /* \"#utility.yul\":400:405   */\n  dup2\n    /* \"#utility.yul\":389:405   */\n  swap1\n  pop\n    /* \"#utility.yul\":334:411   */\n  swap2\n  swap1\n  pop\n  jump\t// out\n    /* \"#utility.yul\":417:539   */\ntag_11:\n    /* \"#utility.yul\":490:514   */\n  tag_19\n    /* \"#utility.yul\":508:513   */\n  dup2\n    /* \"#utility.yul\":490:514   */\n  tag_10\n  jump\t// in\ntag_19:\n    /* \"#utility.yul\":483:488   */\n  dup2\n    /* \"#utility.yul\":480:515   */\n  eq\n    /* \"#utility.yul\":470:533   */\n  tag_20\n  jumpi\n    /* \"#utility.yul\":529:530   */\n  0x00\n    /* \"#utility.yul\":526:527   */\n  dup1\n    /* \"#utility.yul\":519:531   */\n  revert\n    /* \"#utility.yul\":470:533   */\ntag_20:\n    /* \"#utility.yul\":417:539   */\n  pop\n  jump\t// out\n    /* \"#utility.yul\":545:688   */\ntag_12:\n    /* \"#utility.yul\":602:607   */\n  0x00\n    /* \"#utility.yul\":633:639   */\n  dup2\n    /* \"#utility.yul\":627:640   */\n  mload\n    /* \"#utility.yul\":618:640   */\n  swap1\n  pop\n    /* \"#utility.yul\":649:682   */\n  tag_22\n    /* \"#utility.yul\":676:681   */\n  dup2\n    /* \"#utility.yul\":649:682   */\n  tag_11\n  jump\t// in\ntag_22:\n    /* \"#utility.yul\":545:688   */\n  swap3\n  swap2\n  pop\n  pop\n  jump\t// out\n    /* \"#utility.yul\":694:1045   */\ntag_3:\n    /* \"#utility.yul\":764:770   */\n  0x00\n    /* \"#utility.yul\":813:815   */\n  0x20\n    /* \"#utility.yul\":801:810   */\n  dup3\n    /* \"#utility.yul\":792:799   */\n  dup5\n    /* \"#utility.yul\":788:811   */\n  sub\n    /* \"#utility.yul\":784:816   */\n  slt\n    /* \"#utility.yul\":781:900   */\n  iszero\n  tag_24\n  jumpi\n    /* \"#utility.yul\":819:898   */\n  tag_25\n  tag_8\n  jump\t// in\ntag_25:\n    /* \"#utility.yul\":781:900   */\ntag_24:\n    /* \"#utility.yul\":939:940   */\n  0x00\n    /* \"#utility.yul\":964:1028   */\n  tag_26\n    /* \"#utility.yul\":1020:1027   */\n  dup5\n    /* \"#utility.yul\":1011:1017   */\n  dup3\n    /* \"#utility.yul\":1000:1009   */\n  dup6\n    /* \"#utility.yul\":996:1018   */\n  add\n    /* \"#utility.yul\":964:1028   */\n  tag_12\n  jump\t// in\ntag_26:\n    /* \"#utility.yul\":954:1028   */\n  swap2\n  pop\n    /* \"#utility.yul\":910:1038   */\n  pop\n    /* \"#utility.yul\":694:1045   */\n  swap3\n  swap2\n  pop\n  pop\n  jump\t// out\n    /* \"Dapp/MoneyTransfer.sol\":124:4018  contract MoneyTransfer is Transaction, Receiver {... */\ntag_6:\n  dataSize(sub_0)\n  dup1\n  dataOffset(sub_0)\n  0x00\n  codecopy\n  0x00\n  return\nstop\n\nsub_0: assembly {\n        /* \"Dapp/MoneyTransfer.sol\":124:4018  contract MoneyTransfer is Transaction, Receiver {... */\n      mstore(0x40, 0x80)\n      callvalue\n      dup1\n      iszero\n      tag_1\n      jumpi\n      0x00\n      dup1\n      revert\n    tag_1:\n      pop\n      jumpi(tag_2, lt(calldatasize, 0x04))\n      shr(0xe0, calldataload(0x00))\n      dup1\n      0x557ed1ba\n      gt\n      tag_24\n      jumpi\n      dup1\n      0x8e029c0b\n      gt\n      tag_25\n      jumpi\n      dup1\n      0x8e029c0b\n      eq\n      tag_18\n      jumpi\n      dup1\n      0x8fa11864\n      eq\n      tag_19\n      jumpi\n      dup1\n      0xaa8c217c\n      eq\n      tag_20\n      jumpi\n      dup1\n      0xe21f37ce\n      eq\n      tag_21\n      jumpi\n      dup1\n      0xf4b30eaf\n      eq\n      tag_22\n      jumpi\n      dup1\n      0xf7e03fd8\n      eq\n      tag_23\n      jumpi\n      jump(tag_2)\n    tag_25:\n      dup1\n      0x557ed1ba\n      eq\n      tag_13\n      jumpi\n      dup1\n      0x57bf72e3\n      eq\n      tag_14\n      jumpi\n      dup1\n      0x7b9a3f4c\n      eq\n      tag_15\n      jumpi\n      dup1\n      0x7eb9f571\n      eq\n      tag_16\n      jumpi\n      dup1\n      0x83920e90\n      eq\n      tag_17\n      jumpi\n      jump(tag_2)\n    tag_24:\n      dup1\n      0x24ba506d\n      gt\n      tag_26\n      jumpi\n      dup1\n      0x24ba506d\n      eq\n      tag_8\n      jumpi\n      dup1\n      0x3c626f00\n      eq\n      tag_9\n      jumpi\n      dup1\n      0x42fb7936\n      eq\n      tag_10\n      jumpi\n      dup1\n      0x4b28f9a2\n      eq\n      tag_11\n      jumpi\n      dup1\n      0x54876921\n      eq\n      tag_12\n      jumpi\n      jump(tag_2)\n    tag_26:\n      dup1\n      0x04ef5b21\n      eq\n      tag_3\n      jumpi\n      dup1\n      0x062a7544\n      eq\n      tag_4\n      jumpi\n      dup1\n      0x0e85fa72\n      eq\n      tag_5\n      jumpi\n      dup1\n      0x12065fe0\n      eq\n      tag_6\n      jumpi\n      dup1\n      0x12a029a4\n      eq\n      tag_7\n      jumpi\n    tag_2:\n      0x00\n      dup1\n      revert\n        /* \"Dapp/Transaction.sol\":237:274  Transactions[] public transactionList */\n    tag_3:\n      tag_27\n      0x04\n      dup1\n      calldatasize\n      sub\n      dup2\n      add\n      swap1\n      tag_28\n      swap2\n      swap1\n      tag_29\n      jump\t// in\n    tag_28:\n      tag_30\n      jump\t// in\n    tag_27:\n      mload(0x40)\n      tag_31\n      swap5\n      swap4\n      swap3\n      swap2\n      swap1\n      tag_32\n      jump\t// in\n    tag_31:\n      mload(0x40)\n      dup1\n      swap2\n      sub\n      swap1\n      return\n        /* \"Dapp/MoneyTransfer.sol\":652:1559  function sendMoney( uint _amount, address _receiver) public m_validAddress(_receiver) m_ifCardExists m_transferLimit{... */\n    tag_4:\n      tag_33\n      0x04\n      dup1\n      calldatasize\n      sub\n      dup2\n      add\n      swap1\n      tag_34\n      swap2\n      swap1\n      tag_35\n      jump\t// in\n    tag_34:\n      tag_36\n      jump\t// in\n    tag_33:\n      stop\n        /* \"Dapp/MoneyTransfer.sol\":385:414  uint public firstTransferTime */\n    tag_5:\n      tag_37\n      tag_38\n      jump\t// in\n    tag_37:\n      mload(0x40)\n      tag_39\n      swap2\n      swap1\n      tag_40\n      jump\t// in\n    tag_39:\n      mload(0x40)\n      dup1\n      swap2\n      sub\n      swap1\n      return\n        /* \"Dapp/Receiver.sol\":628:751  function getBalance() public pure returns(uint){... */\n    tag_6:\n      tag_41\n      tag_42\n      jump\t// in\n    tag_41:\n      mload(0x40)\n      tag_43\n      swap2\n      swap1\n      tag_40\n      jump\t// in\n    tag_43:\n      mload(0x40)\n      dup1\n      swap2\n      sub\n      swap1\n      return\n        /* \"Dapp/MoneyTransfer.sol\":1567:1832  function setCard(string memory _cardNumber, string memory _cvv) public  m_checkCard {... */\n    tag_7:\n      tag_44\n      0x04\n      dup1\n      calldatasize\n      sub\n      dup2\n      add\n      swap1\n      tag_45\n      swap2\n      swap1\n      tag_46\n      jump\t// in\n    tag_45:\n      tag_47\n      jump\t// in\n    tag_44:\n      stop\n        /* \"Dapp/Transaction.sol\":961:1054  function getNumberOfTransactions() public view returns(uint){... */\n    tag_8:\n      tag_48\n      tag_49\n      jump\t// in\n    tag_48:\n      mload(0x40)\n      tag_50\n      swap2\n      swap1\n      tag_40\n      jump\t// in\n    tag_50:\n      mload(0x40)\n      dup1\n      swap2\n      sub\n      swap1\n      return\n        /* \"Dapp/MoneyTransfer.sol\":611:642  bool public callPutCard = false */\n    tag_9:\n      tag_51\n      tag_52\n      jump\t// in\n    tag_51:\n      mload(0x40)\n      tag_53\n      swap2\n      swap1\n      tag_54\n      jump\t// in\n    tag_53:\n      mload(0x40)\n      dup1\n      swap2\n      sub\n      swap1\n      return\n        /* \"Dapp/MoneyTransfer.sol\":327:344  string public cvv */\n    tag_10:\n      tag_55\n      tag_56\n      jump\t// in\n    tag_55:\n      mload(0x40)\n      tag_57\n      swap2\n      swap1\n      tag_58\n      jump\t// in\n    tag_57:\n      mload(0x40)\n      dup1\n      swap2\n      sub\n      swap1\n      return\n        /* \"Dapp/MoneyTransfer.sol\":578:603  uint public callCount = 0 */\n    tag_11:\n      tag_59\n      tag_60\n      jump\t// in\n    tag_59:\n      mload(0x40)\n      tag_61\n      swap2\n      swap1\n      tag_40\n      jump\t// in\n    tag_61:\n      mload(0x40)\n      dup1\n      swap2\n      sub\n      swap1\n      return\n        /* \"Dapp/Receiver.sol\":229:407  function withdrawMoney(uint money) public pure returns(uint){... */\n    tag_12:\n      tag_62\n      0x04\n      dup1\n      calldatasize\n      sub\n      dup2\n      add\n      swap1\n      tag_63\n      swap2\n      swap1\n      tag_29\n      jump\t// in\n    tag_63:\n      tag_64\n      jump\t// in\n    tag_62:\n      mload(0x40)\n      tag_65\n      swap2\n      swap1\n      tag_40\n      jump\t// in\n    tag_65:\n      mload(0x40)\n      dup1\n      swap2\n      sub\n      swap1\n      return\n        /* \"Dapp/MoneyTransfer.sol\":3920:4007  function getTime() public view returns(uint ){... */\n    tag_13:\n      tag_66\n      tag_67\n      jump\t// in\n    tag_66:\n      mload(0x40)\n      tag_68\n      swap2\n      swap1\n      tag_40\n      jump\t// in\n    tag_68:\n      mload(0x40)\n      dup1\n      swap2\n      sub\n      swap1\n      return\n        /* \"Dapp/Transaction.sol\":283:324  mapping (uint => Transactions) public trn */\n    tag_14:\n      tag_69\n      0x04\n      dup1\n      calldatasize\n      sub\n      dup2\n      add\n      swap1\n      tag_70\n      swap2\n      swap1\n      tag_29\n      jump\t// in\n    tag_70:\n      tag_71\n      jump\t// in\n    tag_69:\n      mload(0x40)\n      tag_72\n      swap5\n      swap4\n      swap3\n      swap2\n      swap1\n      tag_32\n      jump\t// in\n    tag_72:\n      mload(0x40)\n      dup1\n      swap2\n      sub\n      swap1\n      return\n        /* \"Dapp/MoneyTransfer.sol\":211:236  uint256 public TotalFunds */\n    tag_15:\n      tag_73\n      tag_74\n      jump\t// in\n    tag_73:\n      mload(0x40)\n      tag_75\n      swap2\n      swap1\n      tag_40\n      jump\t// in\n    tag_75:\n      mload(0x40)\n      dup1\n      swap2\n      sub\n      swap1\n      return\n        /* \"Dapp/MoneyTransfer.sol\":351:377  uint256 public TotalAmount */\n    tag_16:\n      tag_76\n      tag_77\n      jump\t// in\n    tag_76:\n      mload(0x40)\n      tag_78\n      swap2\n      swap1\n      tag_40\n      jump\t// in\n    tag_78:\n      mload(0x40)\n      dup1\n      swap2\n      sub\n      swap1\n      return\n        /* \"Dapp/Transaction.sol\":715:827  function getTransactions() public view returns(Transactions[] memory){... */\n    tag_17:\n      tag_79\n      tag_80\n      jump\t// in\n    tag_79:\n      mload(0x40)\n      tag_81\n      swap2\n      swap1\n      tag_82\n      jump\t// in\n    tag_81:\n      mload(0x40)\n      dup1\n      swap2\n      sub\n      swap1\n      return\n        /* \"Dapp/MoneyTransfer.sol\":1847:1916  function getOutCard() public  {... */\n    tag_18:\n      tag_83\n      tag_84\n      jump\t// in\n    tag_83:\n      stop\n        /* \"Dapp/MoneyTransfer.sol\":295:319  string public cardNumber */\n    tag_19:\n      tag_85\n      tag_86\n      jump\t// in\n    tag_85:\n      mload(0x40)\n      tag_87\n      swap2\n      swap1\n      tag_58\n      jump\t// in\n    tag_87:\n      mload(0x40)\n      dup1\n      swap2\n      sub\n      swap1\n      return\n        /* \"Dapp/MoneyTransfer.sol\":183:204  uint256 public amount */\n    tag_20:\n      tag_88\n      tag_89\n      jump\t// in\n    tag_88:\n      mload(0x40)\n      tag_90\n      swap2\n      swap1\n      tag_40\n      jump\t// in\n    tag_90:\n      mload(0x40)\n      dup1\n      swap2\n      sub\n      swap1\n      return\n        /* \"Dapp/MoneyTransfer.sol\":267:288  string public message */\n    tag_21:\n      tag_91\n      tag_92\n      jump\t// in\n    tag_91:\n      mload(0x40)\n      tag_93\n      swap2\n      swap1\n      tag_58\n      jump\t// in\n    tag_93:\n      mload(0x40)\n      dup1\n      swap2\n      sub\n      swap1\n      return\n        /* \"Dapp/Transaction.sol\":835:953  function getTransactionById(uint _index)public view returns(Transactions memory){... */\n    tag_22:\n      tag_94\n      0x04\n      dup1\n      calldatasize\n      sub\n      dup2\n      add\n      swap1\n      tag_95\n      swap2\n      swap1\n      tag_29\n      jump\t// in\n    tag_95:\n      tag_96\n      jump\t// in\n    tag_94:\n      mload(0x40)\n      tag_97\n      swap2\n      swap1\n      tag_98\n      jump\t// in\n    tag_97:\n      mload(0x40)\n      dup1\n      swap2\n      sub\n      swap1\n      return\n        /* \"Dapp/Transaction.sol\":1062:1210  function getLastTransaction() public view returns(Transactions memory){... */\n    tag_23:\n      tag_99\n      tag_100\n      jump\t// in\n    tag_99:\n      mload(0x40)\n      tag_101\n      swap2\n      swap1\n      tag_98\n      jump\t// in\n    tag_101:\n      mload(0x40)\n      dup1\n      swap2\n      sub\n      swap1\n      return\n        /* \"Dapp/Transaction.sol\":237:274  Transactions[] public transactionList */\n    tag_30:\n      0x00\n      dup2\n      dup2\n      sload\n      dup2\n      lt\n      tag_102\n      jumpi\n      0x00\n      dup1\n      revert\n    tag_102:\n      swap1\n      0x00\n      mstore\n      keccak256(0x00, 0x20)\n      swap1\n      0x04\n      mul\n      add\n      0x00\n      swap2\n      pop\n      swap1\n      pop\n      dup1\n      0x00\n      add\n      0x00\n      swap1\n      sload\n      swap1\n      0x0100\n      exp\n      swap1\n      div\n      0xffffffffffffffffffffffffffffffffffffffff\n      and\n      swap1\n      dup1\n      0x01\n      add\n      0x00\n      swap1\n      sload\n      swap1\n      0x0100\n      exp\n      swap1\n      div\n      0xffffffffffffffffffffffffffffffffffffffff\n      and\n      swap1\n      dup1\n      0x02\n      add\n      sload\n      swap1\n      dup1\n      0x03\n      add\n      sload\n      swap1\n      pop\n      dup5\n      jump\t// out\n        /* \"Dapp/MoneyTransfer.sol\":652:1559  function sendMoney( uint _amount, address _receiver) public m_validAddress(_receiver) m_ifCardExists m_transferLimit{... */\n    tag_36:\n        /* \"Dapp/MoneyTransfer.sol\":727:736  _receiver */\n      dup1\n        /* \"Dapp/MoneyTransfer.sol\":1989:1994  _addr */\n      dup1\n        /* \"Dapp/MoneyTransfer.sol\":1978:1986  receiver */\n      0x05\n      0x00\n        /* \"Dapp/MoneyTransfer.sol\":1978:1994  receiver = _addr */\n      0x0100\n      exp\n      dup2\n      sload\n      dup2\n      0xffffffffffffffffffffffffffffffffffffffff\n      mul\n      not\n      and\n      swap1\n      dup4\n      0xffffffffffffffffffffffffffffffffffffffff\n      and\n      mul\n      or\n      swap1\n      sstore\n      pop\n        /* \"Dapp/MoneyTransfer.sol\":2030:2031  0 */\n      0x00\n        /* \"Dapp/MoneyTransfer.sol\":2013:2032  _addr != address(0) */\n      0xffffffffffffffffffffffffffffffffffffffff\n      and\n        /* \"Dapp/MoneyTransfer.sol\":2013:2018  _addr */\n      dup2\n        /* \"Dapp/MoneyTransfer.sol\":2013:2032  _addr != address(0) */\n      0xffffffffffffffffffffffffffffffffffffffff\n      and\n      sub\n        /* \"Dapp/MoneyTransfer.sol\":2005:2064  require(_addr != address(0), \"This address doesn't exists\") */\n      tag_105\n      jumpi\n      mload(0x40)\n      0x08c379a000000000000000000000000000000000000000000000000000000000\n      dup2\n      mstore\n      0x04\n      add\n      tag_106\n      swap1\n      tag_107\n      jump\t// in\n    tag_106:\n      mload(0x40)\n      dup1\n      swap2\n      sub\n      swap1\n      revert\n    tag_105:\n        /* \"Dapp/MoneyTransfer.sol\":2163:2168  false */\n      0x00\n        /* \"Dapp/MoneyTransfer.sol\":2148:2168  callPutCard != false */\n      iszero\n      iszero\n        /* \"Dapp/MoneyTransfer.sol\":2148:2159  callPutCard */\n      0x0c\n      0x00\n      swap1\n      sload\n      swap1\n      0x0100\n      exp\n      swap1\n      div\n      0xff\n      and\n        /* \"Dapp/MoneyTransfer.sol\":2148:2168  callPutCard != false */\n      iszero\n      iszero\n      sub\n        /* \"Dapp/MoneyTransfer.sol\":2140:2195  require(callPutCard != false,\"Please insert your card\") */\n      tag_109\n      jumpi\n      mload(0x40)\n      0x08c379a000000000000000000000000000000000000000000000000000000000\n      dup2\n      mstore\n      0x04\n      add\n      tag_110\n      swap1\n      tag_111\n      jump\t// in\n    tag_110:\n      mload(0x40)\n      dup1\n      swap2\n      sub\n      swap1\n      revert\n    tag_109:\n        /* \"Dapp/MoneyTransfer.sol\":3471:3472  5 */\n      0x05\n        /* \"Dapp/MoneyTransfer.sol\":3458:3467  callCount */\n      sload(0x0b)\n        /* \"Dapp/MoneyTransfer.sol\":3458:3472  callCount >= 5 */\n      lt\n      iszero\n        /* \"Dapp/MoneyTransfer.sol\":3458:3527  callCount >= 5 && block.timestamp <= (firstTransferTime + 30 seconds) */\n      dup1\n      iszero\n      tag_113\n      jumpi\n      pop\n        /* \"Dapp/MoneyTransfer.sol\":3516:3526  30 seconds */\n      0x1e\n        /* \"Dapp/MoneyTransfer.sol\":3496:3513  firstTransferTime */\n      sload(0x0a)\n        /* \"Dapp/MoneyTransfer.sol\":3496:3526  firstTransferTime + 30 seconds */\n      tag_114\n      swap2\n      swap1\n      tag_115\n      jump\t// in\n    tag_114:\n        /* \"Dapp/MoneyTransfer.sol\":3476:3491  block.timestamp */\n      timestamp\n        /* \"Dapp/MoneyTransfer.sol\":3476:3527  block.timestamp <= (firstTransferTime + 30 seconds) */\n      gt\n      iszero\n        /* \"Dapp/MoneyTransfer.sol\":3458:3527  callCount >= 5 && block.timestamp <= (firstTransferTime + 30 seconds) */\n    tag_113:\n        /* \"Dapp/MoneyTransfer.sol\":3455:3672  if(callCount >= 5 && block.timestamp <= (firstTransferTime + 30 seconds)){... */\n      iszero\n      tag_116\n      jumpi\n        /* \"Dapp/MoneyTransfer.sol\":3555:3556  0 */\n      0x00\n        /* \"Dapp/MoneyTransfer.sol\":3543:3552  callCount */\n      0x0b\n        /* \"Dapp/MoneyTransfer.sol\":3543:3556  callCount = 0 */\n      dup2\n      swap1\n      sstore\n      pop\n        /* \"Dapp/MoneyTransfer.sol\":3591:3592  0 */\n      0x00\n        /* \"Dapp/MoneyTransfer.sol\":3578:3587  callCount */\n      sload(0x0b)\n        /* \"Dapp/MoneyTransfer.sol\":3578:3592  callCount == 0 */\n      eq\n        /* \"Dapp/MoneyTransfer.sol\":3571:3593  assert(callCount == 0) */\n      tag_117\n      jumpi\n      tag_118\n      tag_119\n      jump\t// in\n    tag_118:\n    tag_117:\n        /* \"Dapp/MoneyTransfer.sol\":3608:3646  revert(\"only 5 transactions per day\" ) */\n      mload(0x40)\n      0x08c379a000000000000000000000000000000000000000000000000000000000\n      dup2\n      mstore\n      0x04\n      add\n      tag_120\n      swap1\n      tag_121\n      jump\t// in\n    tag_120:\n      mload(0x40)\n      dup1\n      swap2\n      sub\n      swap1\n      revert\n        /* \"Dapp/MoneyTransfer.sol\":3455:3672  if(callCount >= 5 && block.timestamp <= (firstTransferTime + 30 seconds)){... */\n    tag_116:\n        /* \"Dapp/MoneyTransfer.sol\":3700:3701  5 */\n      0x05\n        /* \"Dapp/MoneyTransfer.sol\":3687:3696  callCount */\n      sload(0x0b)\n        /* \"Dapp/MoneyTransfer.sol\":3687:3701  callCount <= 5 */\n      gt\n      iszero\n        /* \"Dapp/MoneyTransfer.sol\":3687:3756  callCount <= 5 && block.timestamp >= (firstTransferTime + 30 seconds) */\n      dup1\n      iszero\n      tag_122\n      jumpi\n      pop\n        /* \"Dapp/MoneyTransfer.sol\":3745:3755  30 seconds */\n      0x1e\n        /* \"Dapp/MoneyTransfer.sol\":3725:3742  firstTransferTime */\n      sload(0x0a)\n        /* \"Dapp/MoneyTransfer.sol\":3725:3755  firstTransferTime + 30 seconds */\n      tag_123\n      swap2\n      swap1\n      tag_115\n      jump\t// in\n    tag_123:\n        /* \"Dapp/MoneyTransfer.sol\":3705:3720  block.timestamp */\n      timestamp\n        /* \"Dapp/MoneyTransfer.sol\":3705:3756  block.timestamp >= (firstTransferTime + 30 seconds) */\n      lt\n      iszero\n        /* \"Dapp/MoneyTransfer.sol\":3687:3756  callCount <= 5 && block.timestamp >= (firstTransferTime + 30 seconds) */\n    tag_122:\n        /* \"Dapp/MoneyTransfer.sol\":3684:3885  if(callCount <= 5 && block.timestamp >= (firstTransferTime + 30 seconds)){... */\n      iszero\n      tag_124\n      jumpi\n        /* \"Dapp/MoneyTransfer.sol\":3784:3785  0 */\n      0x00\n        /* \"Dapp/MoneyTransfer.sol\":3772:3781  callCount */\n      0x0b\n        /* \"Dapp/MoneyTransfer.sol\":3772:3785  callCount = 0 */\n      dup2\n      swap1\n      sstore\n      pop\n        /* \"Dapp/MoneyTransfer.sol\":3821:3822  0 */\n      0x00\n        /* \"Dapp/MoneyTransfer.sol\":3808:3817  callCount */\n      sload(0x0b)\n        /* \"Dapp/MoneyTransfer.sol\":3808:3822  callCount == 0 */\n      eq\n        /* \"Dapp/MoneyTransfer.sol\":3801:3823  assert(callCount == 0) */\n      tag_125\n      jumpi\n      tag_126\n      tag_119\n      jump\t// in\n    tag_126:\n    tag_125:\n        /* \"Dapp/MoneyTransfer.sol\":3858:3873  block.timestamp */\n      timestamp\n        /* \"Dapp/MoneyTransfer.sol\":3838:3855  firstTransferTime */\n      0x0a\n        /* \"Dapp/MoneyTransfer.sol\":3838:3873  firstTransferTime = block.timestamp */\n      dup2\n      swap1\n      sstore\n      pop\n        /* \"Dapp/MoneyTransfer.sol\":3684:3885  if(callCount <= 5 && block.timestamp >= (firstTransferTime + 30 seconds)){... */\n    tag_124:\n        /* \"Dapp/MoneyTransfer.sol\":790:799  _receiver */\n      dup2\n        /* \"Dapp/MoneyTransfer.sol\":779:787  receiver */\n      0x05\n      0x00\n        /* \"Dapp/MoneyTransfer.sol\":779:799  receiver = _receiver */\n      0x0100\n      exp\n      dup2\n      sload\n      dup2\n      0xffffffffffffffffffffffffffffffffffffffff\n      mul\n      not\n      and\n      swap1\n      dup4\n      0xffffffffffffffffffffffffffffffffffffffff\n      and\n      mul\n      or\n      swap1\n      sstore\n      pop\n        /* \"Dapp/MoneyTransfer.sol\":819:826  _amount */\n      dup3\n        /* \"Dapp/MoneyTransfer.sol\":810:816  amount */\n      0x03\n        /* \"Dapp/MoneyTransfer.sol\":810:826  amount = _amount */\n      dup2\n      swap1\n      sstore\n      pop\n        /* \"Dapp/MoneyTransfer.sol\":983:984  1 */\n      0x01\n        /* \"Dapp/MoneyTransfer.sol\":970:979  callCount */\n      0x0b\n      0x00\n        /* \"Dapp/MoneyTransfer.sol\":970:984  callCount += 1 */\n      dup3\n      dup3\n      sload\n      tag_128\n      swap2\n      swap1\n      tag_115\n      jump\t// in\n    tag_128:\n      swap3\n      pop\n      pop\n      dup2\n      swap1\n      sstore\n      pop\n        /* \"Dapp/MoneyTransfer.sol\":1038:1039  0 */\n      0x00\n        /* \"Dapp/MoneyTransfer.sol\":1025:1035  TotalFunds */\n      sload(0x04)\n        /* \"Dapp/MoneyTransfer.sol\":1025:1039  TotalFunds > 0 */\n      gt\n        /* \"Dapp/MoneyTransfer.sol\":1025:1062  TotalFunds > 0 && TotalFunds > amount */\n      dup1\n      iszero\n      tag_129\n      jumpi\n      pop\n        /* \"Dapp/MoneyTransfer.sol\":1056:1062  amount */\n      sload(0x03)\n        /* \"Dapp/MoneyTransfer.sol\":1043:1053  TotalFunds */\n      sload(0x04)\n        /* \"Dapp/MoneyTransfer.sol\":1043:1062  TotalFunds > amount */\n      gt\n        /* \"Dapp/MoneyTransfer.sol\":1025:1062  TotalFunds > 0 && TotalFunds > amount */\n    tag_129:\n        /* \"Dapp/MoneyTransfer.sol\":1022:1542  if(TotalFunds > 0 && TotalFunds > amount){... */\n      iszero\n      tag_130\n      jumpi\n        /* \"Dapp/MoneyTransfer.sol\":1100:1106  amount */\n      sload(0x03)\n        /* \"Dapp/MoneyTransfer.sol\":1086:1096  TotalFunds */\n      0x04\n      0x00\n        /* \"Dapp/MoneyTransfer.sol\":1086:1106  TotalFunds -= amount */\n      dup3\n      dup3\n      sload\n      tag_131\n      swap2\n      swap1\n      tag_132\n      jump\t// in\n    tag_131:\n      swap3\n      pop\n      pop\n      dup2\n      swap1\n      sstore\n      pop\n        /* \"Dapp/MoneyTransfer.sol\":1144:1150  amount */\n      sload(0x03)\n        /* \"Dapp/MoneyTransfer.sol\":1129:1140  TotalAmount */\n      0x09\n      0x00\n        /* \"Dapp/MoneyTransfer.sol\":1129:1150  TotalAmount += amount */\n      dup3\n      dup3\n      sload\n      tag_133\n      swap2\n      swap1\n      tag_115\n      jump\t// in\n    tag_133:\n      swap3\n      pop\n      pop\n      dup2\n      swap1\n      sstore\n      pop\n        /* \"Dapp/MoneyTransfer.sol\":1217:1277  addTransaction(msg.sender,receiver, amount, block.timestamp) */\n      tag_134\n        /* \"Dapp/MoneyTransfer.sol\":1232:1242  msg.sender */\n      caller\n        /* \"Dapp/MoneyTransfer.sol\":1243:1251  receiver */\n      0x05\n      0x00\n      swap1\n      sload\n      swap1\n      0x0100\n      exp\n      swap1\n      div\n      0xffffffffffffffffffffffffffffffffffffffff\n      and\n        /* \"Dapp/MoneyTransfer.sol\":1253:1259  amount */\n      sload(0x03)\n        /* \"Dapp/MoneyTransfer.sol\":1261:1276  block.timestamp */\n      timestamp\n        /* \"Dapp/MoneyTransfer.sol\":1217:1231  addTransaction */\n      tag_135\n        /* \"Dapp/MoneyTransfer.sol\":1217:1277  addTransaction(msg.sender,receiver, amount, block.timestamp) */\n      jump\t// in\n    tag_134:\n        /* \"Dapp/MoneyTransfer.sol\":1300:1315  deposit(amount) */\n      tag_136\n        /* \"Dapp/MoneyTransfer.sol\":1308:1314  amount */\n      sload(0x03)\n        /* \"Dapp/MoneyTransfer.sol\":1300:1307  deposit */\n      tag_137\n        /* \"Dapp/MoneyTransfer.sol\":1300:1315  deposit(amount) */\n      jump\t// in\n    tag_136:\n      pop\n        /* \"Dapp/MoneyTransfer.sol\":1338:1368  message = \"Transfer completed\" */\n      mload(0x40)\n      dup1\n      0x40\n      add\n      0x40\n      mstore\n      dup1\n      0x12\n      dup2\n      mstore\n      0x20\n      add\n      0x5472616e7366657220636f6d706c657465640000000000000000000000000000\n      dup2\n      mstore\n      pop\n        /* \"Dapp/MoneyTransfer.sol\":1338:1345  message */\n      0x06\n        /* \"Dapp/MoneyTransfer.sol\":1338:1368  message = \"Transfer completed\" */\n      swap1\n      dup2\n      tag_138\n      swap2\n      swap1\n      tag_139\n      jump\t// in\n    tag_138:\n      pop\n        /* \"Dapp/MoneyTransfer.sol\":1022:1542  if(TotalFunds > 0 && TotalFunds > amount){... */\n      jump(tag_140)\n    tag_130:\n        /* \"Dapp/MoneyTransfer.sol\":1495:1521  revert(\"Not enough funds\") */\n      mload(0x40)\n      0x08c379a000000000000000000000000000000000000000000000000000000000\n      dup2\n      mstore\n      0x04\n      add\n      tag_141\n      swap1\n      tag_142\n      jump\t// in\n    tag_141:\n      mload(0x40)\n      dup1\n      swap2\n      sub\n      swap1\n      revert\n        /* \"Dapp/MoneyTransfer.sol\":1022:1542  if(TotalFunds > 0 && TotalFunds > amount){... */\n    tag_140:\n        /* \"Dapp/MoneyTransfer.sol\":652:1559  function sendMoney( uint _amount, address _receiver) public m_validAddress(_receiver) m_ifCardExists m_transferLimit{... */\n      pop\n      pop\n      pop\n      jump\t// out\n        /* \"Dapp/MoneyTransfer.sol\":385:414  uint public firstTransferTime */\n    tag_38:\n      sload(0x0a)\n      dup2\n      jump\t// out\n        /* \"Dapp/Receiver.sol\":628:751  function getBalance() public pure returns(uint){... */\n    tag_42:\n        /* \"Dapp/Receiver.sol\":670:674  uint */\n      0x00\n        /* \"Dapp/Receiver.sol\":686:711  ReceiverDetails memory rd */\n      tag_144\n      tag_145\n      jump\t// in\n    tag_144:\n        /* \"Dapp/Receiver.sol\":730:732  rd */\n      dup1\n        /* \"Dapp/Receiver.sol\":730:743  rd.totalFunds */\n      0x00\n      add\n      mload\n        /* \"Dapp/Receiver.sol\":723:743  return rd.totalFunds */\n      swap2\n      pop\n      pop\n        /* \"Dapp/Receiver.sol\":628:751  function getBalance() public pure returns(uint){... */\n      swap1\n      jump\t// out\n        /* \"Dapp/MoneyTransfer.sol\":1567:1832  function setCard(string memory _cardNumber, string memory _cvv) public  m_checkCard {... */\n    tag_47:\n        /* \"Dapp/MoneyTransfer.sol\":1681:1692  _cardNumber */\n      dup2\n        /* \"Dapp/MoneyTransfer.sol\":1668:1678  cardNumber */\n      0x07\n        /* \"Dapp/MoneyTransfer.sol\":1668:1692  cardNumber = _cardNumber */\n      swap1\n      dup2\n      tag_148\n      swap2\n      swap1\n      tag_139\n      jump\t// in\n    tag_148:\n      pop\n        /* \"Dapp/MoneyTransfer.sol\":1713:1717  _cvv */\n      dup1\n        /* \"Dapp/MoneyTransfer.sol\":1707:1710  cvv */\n      0x08\n        /* \"Dapp/MoneyTransfer.sol\":1707:1717  cvv = _cvv */\n      swap1\n      dup2\n      tag_149\n      swap2\n      swap1\n      tag_139\n      jump\t// in\n    tag_149:\n      pop\n        /* \"Dapp/MoneyTransfer.sol\":1765:1769  true */\n      0x01\n        /* \"Dapp/MoneyTransfer.sol\":1751:1762  callPutCard */\n      0x0c\n      0x00\n        /* \"Dapp/MoneyTransfer.sol\":1751:1769  callPutCard = true */\n      0x0100\n      exp\n      dup2\n      sload\n      dup2\n      0xff\n      mul\n      not\n      and\n      swap1\n      dup4\n      iszero\n      iszero\n      mul\n      or\n      swap1\n      sstore\n      pop\n        /* \"Dapp/MoneyTransfer.sol\":1807:1822  block.timestamp */\n      timestamp\n        /* \"Dapp/MoneyTransfer.sol\":1787:1804  firstTransferTime */\n      0x0a\n        /* \"Dapp/MoneyTransfer.sol\":1787:1822  firstTransferTime = block.timestamp */\n      dup2\n      swap1\n      sstore\n      pop\n        /* \"Dapp/MoneyTransfer.sol\":2320:2321  8 */\n      0x08\n        /* \"Dapp/MoneyTransfer.sol\":2298:2308  cardNumber */\n      0x07\n        /* \"Dapp/MoneyTransfer.sol\":2292:2316  bytes(cardNumber).length */\n      dup1\n      sload\n      tag_150\n      swap1\n      tag_151\n      jump\t// in\n    tag_150:\n      swap1\n      pop\n        /* \"Dapp/MoneyTransfer.sol\":2292:2321  bytes(cardNumber).length == 8 */\n      eq\n        /* \"Dapp/MoneyTransfer.sol\":2292:2347  bytes(cardNumber).length == 8 && bytes(cvv).length == 3 */\n      dup1\n      iszero\n      tag_152\n      jumpi\n      pop\n        /* \"Dapp/MoneyTransfer.sol\":2346:2347  3 */\n      0x03\n        /* \"Dapp/MoneyTransfer.sol\":2331:2334  cvv */\n      0x08\n        /* \"Dapp/MoneyTransfer.sol\":2325:2342  bytes(cvv).length */\n      dup1\n      sload\n      tag_153\n      swap1\n      tag_151\n      jump\t// in\n    tag_153:\n      swap1\n      pop\n        /* \"Dapp/MoneyTransfer.sol\":2325:2347  bytes(cvv).length == 3 */\n      eq\n        /* \"Dapp/MoneyTransfer.sol\":2292:2347  bytes(cardNumber).length == 8 && bytes(cvv).length == 3 */\n    tag_152:\n        /* \"Dapp/MoneyTransfer.sol\":2284:2372  require(bytes(cardNumber).length == 8 && bytes(cvv).length == 3, \"No valid credit card\") */\n      tag_154\n      jumpi\n      mload(0x40)\n      0x08c379a000000000000000000000000000000000000000000000000000000000\n      dup2\n      mstore\n      0x04\n      add\n      tag_155\n      swap1\n      tag_156\n      jump\t// in\n    tag_155:\n      mload(0x40)\n      dup1\n      swap2\n      sub\n      swap1\n      revert\n    tag_154:\n        /* \"Dapp/MoneyTransfer.sol\":1567:1832  function setCard(string memory _cardNumber, string memory _cvv) public  m_checkCard {... */\n      pop\n      pop\n      jump\t// out\n        /* \"Dapp/Transaction.sol\":961:1054  function getNumberOfTransactions() public view returns(uint){... */\n    tag_49:\n        /* \"Dapp/Transaction.sol\":1016:1020  uint */\n      0x00\n        /* \"Dapp/Transaction.sol\":1039:1046  counter */\n      sload(0x02)\n        /* \"Dapp/Transaction.sol\":1032:1046  return counter */\n      swap1\n      pop\n        /* \"Dapp/Transaction.sol\":961:1054  function getNumberOfTransactions() public view returns(uint){... */\n      swap1\n      jump\t// out\n        /* \"Dapp/MoneyTransfer.sol\":611:642  bool public callPutCard = false */\n    tag_52:\n      0x0c\n      0x00\n      swap1\n      sload\n      swap1\n      0x0100\n      exp\n      swap1\n      div\n      0xff\n      and\n      dup2\n      jump\t// out\n        /* \"Dapp/MoneyTransfer.sol\":327:344  string public cvv */\n    tag_56:\n      0x08\n      dup1\n      sload\n      tag_158\n      swap1\n      tag_151\n      jump\t// in\n    tag_158:\n      dup1\n      0x1f\n      add\n      0x20\n      dup1\n      swap2\n      div\n      mul\n      0x20\n      add\n      mload(0x40)\n      swap1\n      dup2\n      add\n      0x40\n      mstore\n      dup1\n      swap3\n      swap2\n      swap1\n      dup2\n      dup2\n      mstore\n      0x20\n      add\n      dup3\n      dup1\n      sload\n      tag_159\n      swap1\n      tag_151\n      jump\t// in\n    tag_159:\n      dup1\n      iszero\n      tag_160\n      jumpi\n      dup1\n      0x1f\n      lt\n      tag_161\n      jumpi\n      0x0100\n      dup1\n      dup4\n      sload\n      div\n      mul\n      dup4\n      mstore\n      swap2\n      0x20\n      add\n      swap2\n      jump(tag_160)\n    tag_161:\n      dup3\n      add\n      swap2\n      swap1\n      0x00\n      mstore\n      keccak256(0x00, 0x20)\n      swap1\n    tag_162:\n      dup2\n      sload\n      dup2\n      mstore\n      swap1\n      0x01\n      add\n      swap1\n      0x20\n      add\n      dup1\n      dup4\n      gt\n      tag_162\n      jumpi\n      dup3\n      swap1\n      sub\n      0x1f\n      and\n      dup3\n      add\n      swap2\n    tag_160:\n      pop\n      pop\n      pop\n      pop\n      pop\n      dup2\n      jump\t// out\n        /* \"Dapp/MoneyTransfer.sol\":578:603  uint public callCount = 0 */\n    tag_60:\n      sload(0x0b)\n      dup2\n      jump\t// out\n        /* \"Dapp/Receiver.sol\":229:407  function withdrawMoney(uint money) public pure returns(uint){... */\n    tag_64:\n        /* \"Dapp/Receiver.sol\":284:288  uint */\n      0x00\n        /* \"Dapp/Receiver.sol\":300:325  ReceiverDetails memory rd */\n      tag_164\n      tag_145\n      jump\t// in\n    tag_164:\n        /* \"Dapp/Receiver.sol\":369:374  money */\n      dup3\n        /* \"Dapp/Receiver.sol\":353:355  rd */\n      dup2\n        /* \"Dapp/Receiver.sol\":353:366  rd.totalFunds */\n      0x00\n      add\n      mload\n        /* \"Dapp/Receiver.sol\":353:374  rd.totalFunds - money */\n      tag_165\n      swap2\n      swap1\n      tag_132\n      jump\t// in\n    tag_165:\n        /* \"Dapp/Receiver.sol\":337:339  rd */\n      dup2\n        /* \"Dapp/Receiver.sol\":337:350  rd.totalFunds */\n      0x00\n      add\n        /* \"Dapp/Receiver.sol\":337:374  rd.totalFunds = rd.totalFunds - money */\n      dup2\n      dup2\n      mstore\n      pop\n      pop\n        /* \"Dapp/Receiver.sol\":392:397  money */\n      dup3\n        /* \"Dapp/Receiver.sol\":385:397  return money */\n      swap2\n      pop\n      pop\n        /* \"Dapp/Receiver.sol\":229:407  function withdrawMoney(uint money) public pure returns(uint){... */\n      swap2\n      swap1\n      pop\n      jump\t// out\n        /* \"Dapp/MoneyTransfer.sol\":3920:4007  function getTime() public view returns(uint ){... */\n    tag_67:\n        /* \"Dapp/MoneyTransfer.sol\":3959:3963  uint */\n      0x00\n        /* \"Dapp/MoneyTransfer.sol\":3984:3999  block.timestamp */\n      timestamp\n        /* \"Dapp/MoneyTransfer.sol\":3976:3999  return  block.timestamp */\n      swap1\n      pop\n        /* \"Dapp/MoneyTransfer.sol\":3920:4007  function getTime() public view returns(uint ){... */\n      swap1\n      jump\t// out\n        /* \"Dapp/Transaction.sol\":283:324  mapping (uint => Transactions) public trn */\n    tag_71:\n      mstore(0x20, 0x01)\n      dup1\n      0x00\n      mstore\n      keccak256(0x00, 0x40)\n      0x00\n      swap2\n      pop\n      swap1\n      pop\n      dup1\n      0x00\n      add\n      0x00\n      swap1\n      sload\n      swap1\n      0x0100\n      exp\n      swap1\n      div\n      0xffffffffffffffffffffffffffffffffffffffff\n      and\n      swap1\n      dup1\n      0x01\n      add\n      0x00\n      swap1\n      sload\n      swap1\n      0x0100\n      exp\n      swap1\n      div\n      0xffffffffffffffffffffffffffffffffffffffff\n      and\n      swap1\n      dup1\n      0x02\n      add\n      sload\n      swap1\n      dup1\n      0x03\n      add\n      sload\n      swap1\n      pop\n      dup5\n      jump\t// out\n        /* \"Dapp/MoneyTransfer.sol\":211:236  uint256 public TotalFunds */\n    tag_74:\n      sload(0x04)\n      dup2\n      jump\t// out\n        /* \"Dapp/MoneyTransfer.sol\":351:377  uint256 public TotalAmount */\n    tag_77:\n      sload(0x09)\n      dup2\n      jump\t// out\n        /* \"Dapp/Transaction.sol\":715:827  function getTransactions() public view returns(Transactions[] memory){... */\n    tag_80:\n        /* \"Dapp/Transaction.sol\":762:783  Transactions[] memory */\n      0x60\n        /* \"Dapp/Transaction.sol\":804:819  transactionList */\n      0x00\n        /* \"Dapp/Transaction.sol\":797:819  return transactionList */\n      dup1\n      sload\n      dup1\n      0x20\n      mul\n      0x20\n      add\n      mload(0x40)\n      swap1\n      dup2\n      add\n      0x40\n      mstore\n      dup1\n      swap3\n      swap2\n      swap1\n      dup2\n      dup2\n      mstore\n      0x20\n      add\n      0x00\n      swap1\n    tag_168:\n      dup3\n      dup3\n      lt\n      iszero\n      tag_169\n      jumpi\n      dup4\n      dup3\n      swap1\n      0x00\n      mstore\n      keccak256(0x00, 0x20)\n      swap1\n      0x04\n      mul\n      add\n      mload(0x40)\n      dup1\n      0x80\n      add\n      0x40\n      mstore\n      swap1\n      dup2\n      0x00\n      dup3\n      add\n      0x00\n      swap1\n      sload\n      swap1\n      0x0100\n      exp\n      swap1\n      div\n      0xffffffffffffffffffffffffffffffffffffffff\n      and\n      0xffffffffffffffffffffffffffffffffffffffff\n      and\n      0xffffffffffffffffffffffffffffffffffffffff\n      and\n      dup2\n      mstore\n      0x20\n      add\n      0x01\n      dup3\n      add\n      0x00\n      swap1\n      sload\n      swap1\n      0x0100\n      exp\n      swap1\n      div\n      0xffffffffffffffffffffffffffffffffffffffff\n      and\n      0xffffffffffffffffffffffffffffffffffffffff\n      and\n      0xffffffffffffffffffffffffffffffffffffffff\n      and\n      dup2\n      mstore\n      0x20\n      add\n      0x02\n      dup3\n      add\n      sload\n      dup2\n      mstore\n      0x20\n      add\n      0x03\n      dup3\n      add\n      sload\n      dup2\n      mstore\n      pop\n      pop\n      dup2\n      mstore\n      0x20\n      add\n      swap1\n      0x01\n      add\n      swap1\n      jump(tag_168)\n    tag_169:\n      pop\n      pop\n      pop\n      pop\n      swap1\n      pop\n        /* \"Dapp/Transaction.sol\":715:827  function getTransactions() public view returns(Transactions[] memory){... */\n      swap1\n      jump\t// out\n        /* \"Dapp/MoneyTransfer.sol\":1847:1916  function getOutCard() public  {... */\n    tag_84:\n        /* \"Dapp/MoneyTransfer.sol\":1901:1906  false */\n      0x00\n        /* \"Dapp/MoneyTransfer.sol\":1887:1898  callPutCard */\n      0x0c\n      0x00\n        /* \"Dapp/MoneyTransfer.sol\":1887:1906  callPutCard = false */\n      0x0100\n      exp\n      dup2\n      sload\n      dup2\n      0xff\n      mul\n      not\n      and\n      swap1\n      dup4\n      iszero\n      iszero\n      mul\n      or\n      swap1\n      sstore\n      pop\n        /* \"Dapp/MoneyTransfer.sol\":1847:1916  function getOutCard() public  {... */\n      jump\t// out\n        /* \"Dapp/MoneyTransfer.sol\":295:319  string public cardNumber */\n    tag_86:\n      0x07\n      dup1\n      sload\n      tag_172\n      swap1\n      tag_151\n      jump\t// in\n    tag_172:\n      dup1\n      0x1f\n      add\n      0x20\n      dup1\n      swap2\n      div\n      mul\n      0x20\n      add\n      mload(0x40)\n      swap1\n      dup2\n      add\n      0x40\n      mstore\n      dup1\n      swap3\n      swap2\n      swap1\n      dup2\n      dup2\n      mstore\n      0x20\n      add\n      dup3\n      dup1\n      sload\n      tag_173\n      swap1\n      tag_151\n      jump\t// in\n    tag_173:\n      dup1\n      iszero\n      tag_174\n      jumpi\n      dup1\n      0x1f\n      lt\n      tag_175\n      jumpi\n      0x0100\n      dup1\n      dup4\n      sload\n      div\n      mul\n      dup4\n      mstore\n      swap2\n      0x20\n      add\n      swap2\n      jump(tag_174)\n    tag_175:\n      dup3\n      add\n      swap2\n      swap1\n      0x00\n      mstore\n      keccak256(0x00, 0x20)\n      swap1\n    tag_176:\n      dup2\n      sload\n      dup2\n      mstore\n      swap1\n      0x01\n      add\n      swap1\n      0x20\n      add\n      dup1\n      dup4\n      gt\n      tag_176\n      jumpi\n      dup3\n      swap1\n      sub\n      0x1f\n      and\n      dup3\n      add\n      swap2\n    tag_174:\n      pop\n      pop\n      pop\n      pop\n      pop\n      dup2\n      jump\t// out\n        /* \"Dapp/MoneyTransfer.sol\":183:204  uint256 public amount */\n    tag_89:\n      sload(0x03)\n      dup2\n      jump\t// out\n        /* \"Dapp/MoneyTransfer.sol\":267:288  string public message */\n    tag_92:\n      0x06\n      dup1\n      sload\n      tag_177\n      swap1\n      tag_151\n      jump\t// in\n    tag_177:\n      dup1\n      0x1f\n      add\n      0x20\n      dup1\n      swap2\n      div\n      mul\n      0x20\n      add\n      mload(0x40)\n      swap1\n      dup2\n      add\n      0x40\n      mstore\n      dup1\n      swap3\n      swap2\n      swap1\n      dup2\n      dup2\n      mstore\n      0x20\n      add\n      dup3\n      dup1\n      sload\n      tag_178\n      swap1\n      tag_151\n      jump\t// in\n    tag_178:\n      dup1\n      iszero\n      tag_179\n      jumpi\n      dup1\n      0x1f\n      lt\n      tag_180\n      jumpi\n      0x0100\n      dup1\n      dup4\n      sload\n      div\n      mul\n      dup4\n      mstore\n      swap2\n      0x20\n      add\n      swap2\n      jump(tag_179)\n    tag_180:\n      dup3\n      add\n      swap2\n      swap1\n      0x00\n      mstore\n      keccak256(0x00, 0x20)\n      swap1\n    tag_181:\n      dup2\n      sload\n      dup2\n      mstore\n      swap1\n      0x01\n      add\n      swap1\n      0x20\n      add\n      dup1\n      dup4\n      gt\n      tag_181\n      jumpi\n      dup3\n      swap1\n      sub\n      0x1f\n      and\n      dup3\n      add\n      swap2\n    tag_179:\n      pop\n      pop\n      pop\n      pop\n      pop\n      dup2\n      jump\t// out\n        /* \"Dapp/Transaction.sol\":835:953  function getTransactionById(uint _index)public view returns(Transactions memory){... */\n    tag_96:\n        /* \"Dapp/Transaction.sol\":895:914  Transactions memory */\n      tag_182\n      tag_183\n      jump\t// in\n    tag_182:\n        /* \"Dapp/Transaction.sol\":933:936  trn */\n      0x01\n        /* \"Dapp/Transaction.sol\":933:944  trn[_index] */\n      0x00\n        /* \"Dapp/Transaction.sol\":937:943  _index */\n      dup4\n        /* \"Dapp/Transaction.sol\":933:944  trn[_index] */\n      dup2\n      mstore\n      0x20\n      add\n      swap1\n      dup2\n      mstore\n      0x20\n      add\n      0x00\n      keccak256\n        /* \"Dapp/Transaction.sol\":926:944  return trn[_index] */\n      mload(0x40)\n      dup1\n      0x80\n      add\n      0x40\n      mstore\n      swap1\n      dup2\n      0x00\n      dup3\n      add\n      0x00\n      swap1\n      sload\n      swap1\n      0x0100\n      exp\n      swap1\n      div\n      0xffffffffffffffffffffffffffffffffffffffff\n      and\n      0xffffffffffffffffffffffffffffffffffffffff\n      and\n      0xffffffffffffffffffffffffffffffffffffffff\n      and\n      dup2\n      mstore\n      0x20\n      add\n      0x01\n      dup3\n      add\n      0x00\n      swap1\n      sload\n      swap1\n      0x0100\n      exp\n      swap1\n      div\n      0xffffffffffffffffffffffffffffffffffffffff\n      and\n      0xffffffffffffffffffffffffffffffffffffffff\n      and\n      0xffffffffffffffffffffffffffffffffffffffff\n      and\n      dup2\n      mstore\n      0x20\n      add\n      0x02\n      dup3\n      add\n      sload\n      dup2\n      mstore\n      0x20\n      add\n      0x03\n      dup3\n      add\n      sload\n      dup2\n      mstore\n      pop\n      pop\n      swap1\n      pop\n        /* \"Dapp/Transaction.sol\":835:953  function getTransactionById(uint _index)public view returns(Transactions memory){... */\n      swap2\n      swap1\n      pop\n      jump\t// out\n        /* \"Dapp/Transaction.sol\":1062:1210  function getLastTransaction() public view returns(Transactions memory){... */\n    tag_100:\n        /* \"Dapp/Transaction.sol\":1112:1131  Transactions memory */\n      tag_185\n      tag_183\n      jump\t// in\n    tag_185:\n        /* \"Dapp/Transaction.sol\":1143:1149  uint x */\n      0x00\n        /* \"Dapp/Transaction.sol\":1177:1178  1 */\n      0x01\n        /* \"Dapp/Transaction.sol\":1152:1167  transactionList */\n      0x00\n        /* \"Dapp/Transaction.sol\":1152:1174  transactionList.length */\n      dup1\n      sload\n      swap1\n      pop\n        /* \"Dapp/Transaction.sol\":1152:1178  transactionList.length - 1 */\n      tag_187\n      swap2\n      swap1\n      tag_132\n      jump\t// in\n    tag_187:\n        /* \"Dapp/Transaction.sol\":1143:1178  uint x = transactionList.length - 1 */\n      swap1\n      pop\n        /* \"Dapp/Transaction.sol\":1196:1199  trn */\n      0x01\n        /* \"Dapp/Transaction.sol\":1196:1202  trn[x] */\n      0x00\n        /* \"Dapp/Transaction.sol\":1200:1201  x */\n      dup3\n        /* \"Dapp/Transaction.sol\":1196:1202  trn[x] */\n      dup2\n      mstore\n      0x20\n      add\n      swap1\n      dup2\n      mstore\n      0x20\n      add\n      0x00\n      keccak256\n        /* \"Dapp/Transaction.sol\":1189:1202  return trn[x] */\n      mload(0x40)\n      dup1\n      0x80\n      add\n      0x40\n      mstore\n      swap1\n      dup2\n      0x00\n      dup3\n      add\n      0x00\n      swap1\n      sload\n      swap1\n      0x0100\n      exp\n      swap1\n      div\n      0xffffffffffffffffffffffffffffffffffffffff\n      and\n      0xffffffffffffffffffffffffffffffffffffffff\n      and\n      0xffffffffffffffffffffffffffffffffffffffff\n      and\n      dup2\n      mstore\n      0x20\n      add\n      0x01\n      dup3\n      add\n      0x00\n      swap1\n      sload\n      swap1\n      0x0100\n      exp\n      swap1\n      div\n      0xffffffffffffffffffffffffffffffffffffffff\n      and\n      0xffffffffffffffffffffffffffffffffffffffff\n      and\n      0xffffffffffffffffffffffffffffffffffffffff\n      and\n      dup2\n      mstore\n      0x20\n      add\n      0x02\n      dup3\n      add\n      sload\n      dup2\n      mstore\n      0x20\n      add\n      0x03\n      dup3\n      add\n      sload\n      dup2\n      mstore\n      pop\n      pop\n      swap2\n      pop\n      pop\n        /* \"Dapp/Transaction.sol\":1062:1210  function getLastTransaction() public view returns(Transactions memory){... */\n      swap1\n      jump\t// out\n        /* \"Dapp/Transaction.sol\":357:707  function addTransaction(address _address_from, address _address_to, uint _amount, uint _timestamp)internal{... */\n    tag_135:\n        /* \"Dapp/Transaction.sol\":492:526  Transactions memory newTransaction */\n      0x00\n        /* \"Dapp/Transaction.sol\":529:590  Transactions(_address_from, _address_to, _amount, _timestamp) */\n      mload(0x40)\n      dup1\n      0x80\n      add\n      0x40\n      mstore\n      dup1\n        /* \"Dapp/Transaction.sol\":542:555  _address_from */\n      dup7\n        /* \"Dapp/Transaction.sol\":529:590  Transactions(_address_from, _address_to, _amount, _timestamp) */\n      0xffffffffffffffffffffffffffffffffffffffff\n      and\n      dup2\n      mstore\n      0x20\n      add\n        /* \"Dapp/Transaction.sol\":557:568  _address_to */\n      dup6\n        /* \"Dapp/Transaction.sol\":529:590  Transactions(_address_from, _address_to, _amount, _timestamp) */\n      0xffffffffffffffffffffffffffffffffffffffff\n      and\n      dup2\n      mstore\n      0x20\n      add\n        /* \"Dapp/Transaction.sol\":570:577  _amount */\n      dup5\n        /* \"Dapp/Transaction.sol\":529:590  Transactions(_address_from, _address_to, _amount, _timestamp) */\n      dup2\n      mstore\n      0x20\n      add\n        /* \"Dapp/Transaction.sol\":579:589  _timestamp */\n      dup4\n        /* \"Dapp/Transaction.sol\":529:590  Transactions(_address_from, _address_to, _amount, _timestamp) */\n      dup2\n      mstore\n      pop\n        /* \"Dapp/Transaction.sol\":492:590  Transactions memory newTransaction = Transactions(_address_from, _address_to, _amount, _timestamp) */\n      swap1\n      pop\n        /* \"Dapp/Transaction.sol\":601:616  transactionList */\n      0x00\n        /* \"Dapp/Transaction.sol\":622:636  newTransaction */\n      dup2\n        /* \"Dapp/Transaction.sol\":601:637  transactionList.push(newTransaction) */\n      swap1\n      dup1\n      0x01\n      dup2\n      sload\n      add\n      dup1\n      dup3\n      sstore\n      dup1\n      swap2\n      pop\n      pop\n      0x01\n      swap1\n      sub\n      swap1\n      0x00\n      mstore\n      keccak256(0x00, 0x20)\n      swap1\n      0x04\n      mul\n      add\n      0x00\n      swap1\n      swap2\n      swap1\n      swap2\n      swap1\n      swap2\n      pop\n      0x00\n      dup3\n      add\n      mload\n      dup2\n      0x00\n      add\n      exp(0x0100, 0x00)\n      dup2\n      sload\n      dup2\n      0xffffffffffffffffffffffffffffffffffffffff\n      mul\n      not\n      and\n      swap1\n      dup4\n      0xffffffffffffffffffffffffffffffffffffffff\n      and\n      mul\n      or\n      swap1\n      sstore\n      pop\n      0x20\n      dup3\n      add\n      mload\n      dup2\n      0x01\n      add\n      exp(0x0100, 0x00)\n      dup2\n      sload\n      dup2\n      0xffffffffffffffffffffffffffffffffffffffff\n      mul\n      not\n      and\n      swap1\n      dup4\n      0xffffffffffffffffffffffffffffffffffffffff\n      and\n      mul\n      or\n      swap1\n      sstore\n      pop\n      0x40\n      dup3\n      add\n      mload\n      dup2\n      0x02\n      add\n      sstore\n      0x60\n      dup3\n      add\n      mload\n      dup2\n      0x03\n      add\n      sstore\n      pop\n      pop\n        /* \"Dapp/Transaction.sol\":663:677  newTransaction */\n      dup1\n        /* \"Dapp/Transaction.sol\":648:651  trn */\n      0x01\n        /* \"Dapp/Transaction.sol\":648:660  trn[counter] */\n      0x00\n        /* \"Dapp/Transaction.sol\":652:659  counter */\n      sload(0x02)\n        /* \"Dapp/Transaction.sol\":648:660  trn[counter] */\n      dup2\n      mstore\n      0x20\n      add\n      swap1\n      dup2\n      mstore\n      0x20\n      add\n      0x00\n      keccak256\n        /* \"Dapp/Transaction.sol\":648:677  trn[counter] = newTransaction */\n      0x00\n      dup3\n      add\n      mload\n      dup2\n      0x00\n      add\n      exp(0x0100, 0x00)\n      dup2\n      sload\n      dup2\n      0xffffffffffffffffffffffffffffffffffffffff\n      mul\n      not\n      and\n      swap1\n      dup4\n      0xffffffffffffffffffffffffffffffffffffffff\n      and\n      mul\n      or\n      swap1\n      sstore\n      pop\n      0x20\n      dup3\n      add\n      mload\n      dup2\n      0x01\n      add\n      exp(0x0100, 0x00)\n      dup2\n      sload\n      dup2\n      0xffffffffffffffffffffffffffffffffffffffff\n      mul\n      not\n      and\n      swap1\n      dup4\n      0xffffffffffffffffffffffffffffffffffffffff\n      and\n      mul\n      or\n      swap1\n      sstore\n      pop\n      0x40\n      dup3\n      add\n      mload\n      dup2\n      0x02\n      add\n      sstore\n      0x60\n      dup3\n      add\n      mload\n      dup2\n      0x03\n      add\n      sstore\n      swap1\n      pop\n      pop\n        /* \"Dapp/Transaction.sol\":688:695  counter */\n      0x02\n      0x00\n        /* \"Dapp/Transaction.sol\":688:697  counter++ */\n      dup2\n      sload\n      dup1\n      swap3\n      swap2\n      swap1\n      tag_190\n      swap1\n      tag_191\n      jump\t// in\n    tag_190:\n      swap2\n      swap1\n      pop\n      sstore\n      pop\n        /* \"Dapp/Transaction.sol\":463:707  {... */\n      pop\n        /* \"Dapp/Transaction.sol\":357:707  function addTransaction(address _address_from, address _address_to, uint _amount, uint _timestamp)internal{... */\n      pop\n      pop\n      pop\n      pop\n      jump\t// out\n        /* \"Dapp/Receiver.sol\":417:620  function deposit(uint _amount) internal pure returns(uint){... */\n    tag_137:\n        /* \"Dapp/Receiver.sol\":470:474  uint */\n      0x00\n        /* \"Dapp/Receiver.sol\":488:513  ReceiverDetails memory rd */\n      tag_193\n      tag_145\n      jump\t// in\n    tag_193:\n        /* \"Dapp/Receiver.sol\":537:544  _amount */\n      dup3\n        /* \"Dapp/Receiver.sol\":525:527  rd */\n      dup2\n        /* \"Dapp/Receiver.sol\":525:534  rd.amount */\n      0x20\n      add\n        /* \"Dapp/Receiver.sol\":525:544  rd.amount = _amount */\n      dup2\n      dup2\n      mstore\n      pop\n      pop\n        /* \"Dapp/Receiver.sol\":572:574  rd */\n      dup1\n        /* \"Dapp/Receiver.sol\":572:581  rd.amount */\n      0x20\n      add\n      mload\n        /* \"Dapp/Receiver.sol\":555:557  rd */\n      dup2\n        /* \"Dapp/Receiver.sol\":555:568  rd.totalFunds */\n      0x00\n      add\n        /* \"Dapp/Receiver.sol\":555:581  rd.totalFunds += rd.amount */\n      dup2\n      dup2\n      mload\n      tag_194\n      swap2\n      swap1\n      tag_115\n      jump\t// in\n    tag_194:\n      swap2\n      pop\n      dup2\n      dup2\n      mstore\n      pop\n      pop\n        /* \"Dapp/Receiver.sol\":601:603  rd */\n      dup1\n        /* \"Dapp/Receiver.sol\":601:610  rd.amount */\n      0x20\n      add\n      mload\n        /* \"Dapp/Receiver.sol\":594:610  return rd.amount */\n      swap2\n      pop\n      pop\n        /* \"Dapp/Receiver.sol\":417:620  function deposit(uint _amount) internal pure returns(uint){... */\n      swap2\n      swap1\n      pop\n      jump\t// out\n    tag_145:\n      mload(0x40)\n      dup1\n      0x60\n      add\n      0x40\n      mstore\n      dup1\n      0x00\n      dup2\n      mstore\n      0x20\n      add\n      0x00\n      dup2\n      mstore\n      0x20\n      add\n      and(0xffffffffffffffffffffffffffffffffffffffff, 0x00)\n      dup2\n      mstore\n      pop\n      swap1\n      jump\t// out\n    tag_183:\n      mload(0x40)\n      dup1\n      0x80\n      add\n      0x40\n      mstore\n      dup1\n      and(0xffffffffffffffffffffffffffffffffffffffff, 0x00)\n      dup2\n      mstore\n      0x20\n      add\n      and(0xffffffffffffffffffffffffffffffffffffffff, 0x00)\n      dup2\n      mstore\n      0x20\n      add\n      0x00\n      dup2\n      mstore\n      0x20\n      add\n      0x00\n      dup2\n      mstore\n      pop\n      swap1\n      jump\t// out\n        /* \"#utility.yul\":7:82   */\n    tag_195:\n        /* \"#utility.yul\":40:46   */\n      0x00\n        /* \"#utility.yul\":73:75   */\n      0x40\n        /* \"#utility.yul\":67:76   */\n      mload\n        /* \"#utility.yul\":57:76   */\n      swap1\n      pop\n        /* \"#utility.yul\":7:82   */\n      swap1\n      jump\t// out\n        /* \"#utility.yul\":88:205   */\n    tag_196:\n        /* \"#utility.yul\":197:198   */\n      0x00\n        /* \"#utility.yul\":194:195   */\n      dup1\n        /* \"#utility.yul\":187:199   */\n      revert\n        /* \"#utility.yul\":211:328   */\n    tag_197:\n        /* \"#utility.yul\":320:321   */\n      0x00\n        /* \"#utility.yul\":317:318   */\n      dup1\n        /* \"#utility.yul\":310:322   */\n      revert\n        /* \"#utility.yul\":334:411   */\n    tag_198:\n        /* \"#utility.yul\":371:378   */\n      0x00\n        /* \"#utility.yul\":400:405   */\n      dup2\n        /* \"#utility.yul\":389:405   */\n      swap1\n      pop\n        /* \"#utility.yul\":334:411   */\n      swap2\n      swap1\n      pop\n      jump\t// out\n        /* \"#utility.yul\":417:539   */\n    tag_199:\n        /* \"#utility.yul\":490:514   */\n      tag_266\n        /* \"#utility.yul\":508:513   */\n      dup2\n        /* \"#utility.yul\":490:514   */\n      tag_198\n      jump\t// in\n    tag_266:\n        /* \"#utility.yul\":483:488   */\n      dup2\n        /* \"#utility.yul\":480:515   */\n      eq\n        /* \"#utility.yul\":470:533   */\n      tag_267\n      jumpi\n        /* \"#utility.yul\":529:530   */\n      0x00\n        /* \"#utility.yul\":526:527   */\n      dup1\n        /* \"#utility.yul\":519:531   */\n      revert\n        /* \"#utility.yul\":470:533   */\n    tag_267:\n        /* \"#utility.yul\":417:539   */\n      pop\n      jump\t// out\n        /* \"#utility.yul\":545:684   */\n    tag_200:\n        /* \"#utility.yul\":591:596   */\n      0x00\n        /* \"#utility.yul\":629:635   */\n      dup2\n        /* \"#utility.yul\":616:636   */\n      calldataload\n        /* \"#utility.yul\":607:636   */\n      swap1\n      pop\n        /* \"#utility.yul\":645:678   */\n      tag_269\n        /* \"#utility.yul\":672:677   */\n      dup2\n        /* \"#utility.yul\":645:678   */\n      tag_199\n      jump\t// in\n    tag_269:\n        /* \"#utility.yul\":545:684   */\n      swap3\n      swap2\n      pop\n      pop\n      jump\t// out\n        /* \"#utility.yul\":690:1019   */\n    tag_29:\n        /* \"#utility.yul\":749:755   */\n      0x00\n        /* \"#utility.yul\":798:800   */\n      0x20\n        /* \"#utility.yul\":786:795   */\n      dup3\n        /* \"#utility.yul\":777:784   */\n      dup5\n        /* \"#utility.yul\":773:796   */\n      sub\n        /* \"#utility.yul\":769:801   */\n      slt\n        /* \"#utility.yul\":766:885   */\n      iszero\n      tag_271\n      jumpi\n        /* \"#utility.yul\":804:883   */\n      tag_272\n      tag_196\n      jump\t// in\n    tag_272:\n        /* \"#utility.yul\":766:885   */\n    tag_271:\n        /* \"#utility.yul\":924:925   */\n      0x00\n        /* \"#utility.yul\":949:1002   */\n      tag_273\n        /* \"#utility.yul\":994:1001   */\n      dup5\n        /* \"#utility.yul\":985:991   */\n      dup3\n        /* \"#utility.yul\":974:983   */\n      dup6\n        /* \"#utility.yul\":970:992   */\n      add\n        /* \"#utility.yul\":949:1002   */\n      tag_200\n      jump\t// in\n    tag_273:\n        /* \"#utility.yul\":939:1002   */\n      swap2\n      pop\n        /* \"#utility.yul\":895:1012   */\n      pop\n        /* \"#utility.yul\":690:1019   */\n      swap3\n      swap2\n      pop\n      pop\n      jump\t// out\n        /* \"#utility.yul\":1025:1151   */\n    tag_201:\n        /* \"#utility.yul\":1062:1069   */\n      0x00\n        /* \"#utility.yul\":1102:1144   */\n      0xffffffffffffffffffffffffffffffffffffffff\n        /* \"#utility.yul\":1095:1100   */\n      dup3\n        /* \"#utility.yul\":1091:1145   */\n      and\n        /* \"#utility.yul\":1080:1145   */\n      swap1\n      pop\n        /* \"#utility.yul\":1025:1151   */\n      swap2\n      swap1\n      pop\n      jump\t// out\n        /* \"#utility.yul\":1157:1253   */\n    tag_202:\n        /* \"#utility.yul\":1194:1201   */\n      0x00\n        /* \"#utility.yul\":1223:1247   */\n      tag_276\n        /* \"#utility.yul\":1241:1246   */\n      dup3\n        /* \"#utility.yul\":1223:1247   */\n      tag_201\n      jump\t// in\n    tag_276:\n        /* \"#utility.yul\":1212:1247   */\n      swap1\n      pop\n        /* \"#utility.yul\":1157:1253   */\n      swap2\n      swap1\n      pop\n      jump\t// out\n        /* \"#utility.yul\":1259:1377   */\n    tag_203:\n        /* \"#utility.yul\":1346:1370   */\n      tag_278\n        /* \"#utility.yul\":1364:1369   */\n      dup2\n        /* \"#utility.yul\":1346:1370   */\n      tag_202\n      jump\t// in\n    tag_278:\n        /* \"#utility.yul\":1341:1344   */\n      dup3\n        /* \"#utility.yul\":1334:1371   */\n      mstore\n        /* \"#utility.yul\":1259:1377   */\n      pop\n      pop\n      jump\t// out\n        /* \"#utility.yul\":1383:1501   */\n    tag_204:\n        /* \"#utility.yul\":1470:1494   */\n      tag_280\n        /* \"#utility.yul\":1488:1493   */\n      dup2\n        /* \"#utility.yul\":1470:1494   */\n      tag_198\n      jump\t// in\n    tag_280:\n        /* \"#utility.yul\":1465:1468   */\n      dup3\n        /* \"#utility.yul\":1458:1495   */\n      mstore\n        /* \"#utility.yul\":1383:1501   */\n      pop\n      pop\n      jump\t// out\n        /* \"#utility.yul\":1507:2060   */\n    tag_32:\n        /* \"#utility.yul\":1684:1688   */\n      0x00\n        /* \"#utility.yul\":1722:1725   */\n      0x80\n        /* \"#utility.yul\":1711:1720   */\n      dup3\n        /* \"#utility.yul\":1707:1726   */\n      add\n        /* \"#utility.yul\":1699:1726   */\n      swap1\n      pop\n        /* \"#utility.yul\":1736:1807   */\n      tag_282\n        /* \"#utility.yul\":1804:1805   */\n      0x00\n        /* \"#utility.yul\":1793:1802   */\n      dup4\n        /* \"#utility.yul\":1789:1806   */\n      add\n        /* \"#utility.yul\":1780:1786   */\n      dup8\n        /* \"#utility.yul\":1736:1807   */\n      tag_203\n      jump\t// in\n    tag_282:\n        /* \"#utility.yul\":1817:1889   */\n      tag_283\n        /* \"#utility.yul\":1885:1887   */\n      0x20\n        /* \"#utility.yul\":1874:1883   */\n      dup4\n        /* \"#utility.yul\":1870:1888   */\n      add\n        /* \"#utility.yul\":1861:1867   */\n      dup7\n        /* \"#utility.yul\":1817:1889   */\n      tag_203\n      jump\t// in\n    tag_283:\n        /* \"#utility.yul\":1899:1971   */\n      tag_284\n        /* \"#utility.yul\":1967:1969   */\n      0x40\n        /* \"#utility.yul\":1956:1965   */\n      dup4\n        /* \"#utility.yul\":1952:1970   */\n      add\n        /* \"#utility.yul\":1943:1949   */\n      dup6\n        /* \"#utility.yul\":1899:1971   */\n      tag_204\n      jump\t// in\n    tag_284:\n        /* \"#utility.yul\":1981:2053   */\n      tag_285\n        /* \"#utility.yul\":2049:2051   */\n      0x60\n        /* \"#utility.yul\":2038:2047   */\n      dup4\n        /* \"#utility.yul\":2034:2052   */\n      add\n        /* \"#utility.yul\":2025:2031   */\n      dup5\n        /* \"#utility.yul\":1981:2053   */\n      tag_204\n      jump\t// in\n    tag_285:\n        /* \"#utility.yul\":1507:2060   */\n      swap6\n      swap5\n      pop\n      pop\n      pop\n      pop\n      pop\n      jump\t// out\n        /* \"#utility.yul\":2066:2188   */\n    tag_205:\n        /* \"#utility.yul\":2139:2163   */\n      tag_287\n        /* \"#utility.yul\":2157:2162   */\n      dup2\n        /* \"#utility.yul\":2139:2163   */\n      tag_202\n      jump\t// in\n    tag_287:\n        /* \"#utility.yul\":2132:2137   */\n      dup2\n        /* \"#utility.yul\":2129:2164   */\n      eq\n        /* \"#utility.yul\":2119:2182   */\n      tag_288\n      jumpi\n        /* \"#utility.yul\":2178:2179   */\n      0x00\n        /* \"#utility.yul\":2175:2176   */\n      dup1\n        /* \"#utility.yul\":2168:2180   */\n      revert\n        /* \"#utility.yul\":2119:2182   */\n    tag_288:\n        /* \"#utility.yul\":2066:2188   */\n      pop\n      jump\t// out\n        /* \"#utility.yul\":2194:2333   */\n    tag_206:\n        /* \"#utility.yul\":2240:2245   */\n      0x00\n        /* \"#utility.yul\":2278:2284   */\n      dup2\n        /* \"#utility.yul\":2265:2285   */\n      calldataload\n        /* \"#utility.yul\":2256:2285   */\n      swap1\n      pop\n        /* \"#utility.yul\":2294:2327   */\n      tag_290\n        /* \"#utility.yul\":2321:2326   */\n      dup2\n        /* \"#utility.yul\":2294:2327   */\n      tag_205\n      jump\t// in\n    tag_290:\n        /* \"#utility.yul\":2194:2333   */\n      swap3\n      swap2\n      pop\n      pop\n      jump\t// out\n        /* \"#utility.yul\":2339:2813   */\n    tag_35:\n        /* \"#utility.yul\":2407:2413   */\n      0x00\n        /* \"#utility.yul\":2415:2421   */\n      dup1\n        /* \"#utility.yul\":2464:2466   */\n      0x40\n        /* \"#utility.yul\":2452:2461   */\n      dup4\n        /* \"#utility.yul\":2443:2450   */\n      dup6\n        /* \"#utility.yul\":2439:2462   */\n      sub\n        /* \"#utility.yul\":2435:2467   */\n      slt\n        /* \"#utility.yul\":2432:2551   */\n      iszero\n      tag_292\n      jumpi\n        /* \"#utility.yul\":2470:2549   */\n      tag_293\n      tag_196\n      jump\t// in\n    tag_293:\n        /* \"#utility.yul\":2432:2551   */\n    tag_292:\n        /* \"#utility.yul\":2590:2591   */\n      0x00\n        /* \"#utility.yul\":2615:2668   */\n      tag_294\n        /* \"#utility.yul\":2660:2667   */\n      dup6\n        /* \"#utility.yul\":2651:2657   */\n      dup3\n        /* \"#utility.yul\":2640:2649   */\n      dup7\n        /* \"#utility.yul\":2636:2658   */\n      add\n        /* \"#utility.yul\":2615:2668   */\n      tag_200\n      jump\t// in\n    tag_294:\n        /* \"#utility.yul\":2605:2668   */\n      swap3\n      pop\n        /* \"#utility.yul\":2561:2678   */\n      pop\n        /* \"#utility.yul\":2717:2719   */\n      0x20\n        /* \"#utility.yul\":2743:2796   */\n      tag_295\n        /* \"#utility.yul\":2788:2795   */\n      dup6\n        /* \"#utility.yul\":2779:2785   */\n      dup3\n        /* \"#utility.yul\":2768:2777   */\n      dup7\n        /* \"#utility.yul\":2764:2786   */\n      add\n        /* \"#utility.yul\":2743:2796   */\n      tag_206\n      jump\t// in\n    tag_295:\n        /* \"#utility.yul\":2733:2796   */\n      swap2\n      pop\n        /* \"#utility.yul\":2688:2806   */\n      pop\n        /* \"#utility.yul\":2339:2813   */\n      swap3\n      pop\n      swap3\n      swap1\n      pop\n      jump\t// out\n        /* \"#utility.yul\":2819:3041   */\n    tag_40:\n        /* \"#utility.yul\":2912:2916   */\n      0x00\n        /* \"#utility.yul\":2950:2952   */\n      0x20\n        /* \"#utility.yul\":2939:2948   */\n      dup3\n        /* \"#utility.yul\":2935:2953   */\n      add\n        /* \"#utility.yul\":2927:2953   */\n      swap1\n      pop\n        /* \"#utility.yul\":2963:3034   */\n      tag_297\n        /* \"#utility.yul\":3031:3032   */\n      0x00\n        /* \"#utility.yul\":3020:3029   */\n      dup4\n        /* \"#utility.yul\":3016:3033   */\n      add\n        /* \"#utility.yul\":3007:3013   */\n      dup5\n        /* \"#utility.yul\":2963:3034   */\n      tag_204\n      jump\t// in\n    tag_297:\n        /* \"#utility.yul\":2819:3041   */\n      swap3\n      swap2\n      pop\n      pop\n      jump\t// out\n        /* \"#utility.yul\":3047:3164   */\n    tag_207:\n        /* \"#utility.yul\":3156:3157   */\n      0x00\n        /* \"#utility.yul\":3153:3154   */\n      dup1\n        /* \"#utility.yul\":3146:3158   */\n      revert\n        /* \"#utility.yul\":3170:3287   */\n    tag_208:\n        /* \"#utility.yul\":3279:3280   */\n      0x00\n        /* \"#utility.yul\":3276:3277   */\n      dup1\n        /* \"#utility.yul\":3269:3281   */\n      revert\n        /* \"#utility.yul\":3293:3395   */\n    tag_209:\n        /* \"#utility.yul\":3334:3340   */\n      0x00\n        /* \"#utility.yul\":3385:3387   */\n      0x1f\n        /* \"#utility.yul\":3381:3388   */\n      not\n        /* \"#utility.yul\":3376:3378   */\n      0x1f\n        /* \"#utility.yul\":3369:3374   */\n      dup4\n        /* \"#utility.yul\":3365:3379   */\n      add\n        /* \"#utility.yul\":3361:3389   */\n      and\n        /* \"#utility.yul\":3351:3389   */\n      swap1\n      pop\n        /* \"#utility.yul\":3293:3395   */\n      swap2\n      swap1\n      pop\n      jump\t// out\n        /* \"#utility.yul\":3401:3581   */\n    tag_210:\n        /* \"#utility.yul\":3449:3526   */\n      0x4e487b7100000000000000000000000000000000000000000000000000000000\n        /* \"#utility.yul\":3446:3447   */\n      0x00\n        /* \"#utility.yul\":3439:3527   */\n      mstore\n        /* \"#utility.yul\":3546:3550   */\n      0x41\n        /* \"#utility.yul\":3543:3544   */\n      0x04\n        /* \"#utility.yul\":3536:3551   */\n      mstore\n        /* \"#utility.yul\":3570:3574   */\n      0x24\n        /* \"#utility.yul\":3567:3568   */\n      0x00\n        /* \"#utility.yul\":3560:3575   */\n      revert\n        /* \"#utility.yul\":3587:3868   */\n    tag_211:\n        /* \"#utility.yul\":3670:3697   */\n      tag_303\n        /* \"#utility.yul\":3692:3696   */\n      dup3\n        /* \"#utility.yul\":3670:3697   */\n      tag_209\n      jump\t// in\n    tag_303:\n        /* \"#utility.yul\":3662:3668   */\n      dup2\n        /* \"#utility.yul\":3658:3698   */\n      add\n        /* \"#utility.yul\":3800:3806   */\n      dup2\n        /* \"#utility.yul\":3788:3798   */\n      dup2\n        /* \"#utility.yul\":3785:3807   */\n      lt\n        /* \"#utility.yul\":3764:3782   */\n      0xffffffffffffffff\n        /* \"#utility.yul\":3752:3762   */\n      dup3\n        /* \"#utility.yul\":3749:3783   */\n      gt\n        /* \"#utility.yul\":3746:3808   */\n      or\n        /* \"#utility.yul\":3743:3831   */\n      iszero\n      tag_304\n      jumpi\n        /* \"#utility.yul\":3811:3829   */\n      tag_305\n      tag_210\n      jump\t// in\n    tag_305:\n        /* \"#utility.yul\":3743:3831   */\n    tag_304:\n        /* \"#utility.yul\":3851:3861   */\n      dup1\n        /* \"#utility.yul\":3847:3849   */\n      0x40\n        /* \"#utility.yul\":3840:3862   */\n      mstore\n        /* \"#utility.yul\":3630:3868   */\n      pop\n        /* \"#utility.yul\":3587:3868   */\n      pop\n      pop\n      jump\t// out\n        /* \"#utility.yul\":3874:4003   */\n    tag_212:\n        /* \"#utility.yul\":3908:3914   */\n      0x00\n        /* \"#utility.yul\":3935:3955   */\n      tag_307\n      tag_195\n      jump\t// in\n    tag_307:\n        /* \"#utility.yul\":3925:3955   */\n      swap1\n      pop\n        /* \"#utility.yul\":3964:3997   */\n      tag_308\n        /* \"#utility.yul\":3992:3996   */\n      dup3\n        /* \"#utility.yul\":3984:3990   */\n      dup3\n        /* \"#utility.yul\":3964:3997   */\n      tag_211\n      jump\t// in\n    tag_308:\n        /* \"#utility.yul\":3874:4003   */\n      swap2\n      swap1\n      pop\n      jump\t// out\n        /* \"#utility.yul\":4009:4317   */\n    tag_213:\n        /* \"#utility.yul\":4071:4075   */\n      0x00\n        /* \"#utility.yul\":4161:4179   */\n      0xffffffffffffffff\n        /* \"#utility.yul\":4153:4159   */\n      dup3\n        /* \"#utility.yul\":4150:4180   */\n      gt\n        /* \"#utility.yul\":4147:4203   */\n      iszero\n      tag_310\n      jumpi\n        /* \"#utility.yul\":4183:4201   */\n      tag_311\n      tag_210\n      jump\t// in\n    tag_311:\n        /* \"#utility.yul\":4147:4203   */\n    tag_310:\n        /* \"#utility.yul\":4221:4250   */\n      tag_312\n        /* \"#utility.yul\":4243:4249   */\n      dup3\n        /* \"#utility.yul\":4221:4250   */\n      tag_209\n      jump\t// in\n    tag_312:\n        /* \"#utility.yul\":4213:4250   */\n      swap1\n      pop\n        /* \"#utility.yul\":4305:4309   */\n      0x20\n        /* \"#utility.yul\":4299:4303   */\n      dup2\n        /* \"#utility.yul\":4295:4310   */\n      add\n        /* \"#utility.yul\":4287:4310   */\n      swap1\n      pop\n        /* \"#utility.yul\":4009:4317   */\n      swap2\n      swap1\n      pop\n      jump\t// out\n        /* \"#utility.yul\":4323:4469   */\n    tag_214:\n        /* \"#utility.yul\":4420:4426   */\n      dup3\n        /* \"#utility.yul\":4415:4418   */\n      dup2\n        /* \"#utility.yul\":4410:4413   */\n      dup4\n        /* \"#utility.yul\":4397:4427   */\n      calldatacopy\n        /* \"#utility.yul\":4461:4462   */\n      0x00\n        /* \"#utility.yul\":4452:4458   */\n      dup4\n        /* \"#utility.yul\":4447:4450   */\n      dup4\n        /* \"#utility.yul\":4443:4459   */\n      add\n        /* \"#utility.yul\":4436:4463   */\n      mstore\n        /* \"#utility.yul\":4323:4469   */\n      pop\n      pop\n      pop\n      jump\t// out\n        /* \"#utility.yul\":4475:4900   */\n    tag_215:\n        /* \"#utility.yul\":4553:4558   */\n      0x00\n        /* \"#utility.yul\":4578:4644   */\n      tag_315\n        /* \"#utility.yul\":4594:4643   */\n      tag_316\n        /* \"#utility.yul\":4636:4642   */\n      dup5\n        /* \"#utility.yul\":4594:4643   */\n      tag_213\n      jump\t// in\n    tag_316:\n        /* \"#utility.yul\":4578:4644   */\n      tag_212\n      jump\t// in\n    tag_315:\n        /* \"#utility.yul\":4569:4644   */\n      swap1\n      pop\n        /* \"#utility.yul\":4667:4673   */\n      dup3\n        /* \"#utility.yul\":4660:4665   */\n      dup2\n        /* \"#utility.yul\":4653:4674   */\n      mstore\n        /* \"#utility.yul\":4705:4709   */\n      0x20\n        /* \"#utility.yul\":4698:4703   */\n      dup2\n        /* \"#utility.yul\":4694:4710   */\n      add\n        /* \"#utility.yul\":4743:4746   */\n      dup5\n        /* \"#utility.yul\":4734:4740   */\n      dup5\n        /* \"#utility.yul\":4729:4732   */\n      dup5\n        /* \"#utility.yul\":4725:4741   */\n      add\n        /* \"#utility.yul\":4722:4747   */\n      gt\n        /* \"#utility.yul\":4719:4831   */\n      iszero\n      tag_317\n      jumpi\n        /* \"#utility.yul\":4750:4829   */\n      tag_318\n      tag_208\n      jump\t// in\n    tag_318:\n        /* \"#utility.yul\":4719:4831   */\n    tag_317:\n        /* \"#utility.yul\":4840:4894   */\n      tag_319\n        /* \"#utility.yul\":4887:4893   */\n      dup5\n        /* \"#utility.yul\":4882:4885   */\n      dup3\n        /* \"#utility.yul\":4877:4880   */\n      dup6\n        /* \"#utility.yul\":4840:4894   */\n      tag_214\n      jump\t// in\n    tag_319:\n        /* \"#utility.yul\":4559:4900   */\n      pop\n        /* \"#utility.yul\":4475:4900   */\n      swap4\n      swap3\n      pop\n      pop\n      pop\n      jump\t// out\n        /* \"#utility.yul\":4920:5260   */\n    tag_216:\n        /* \"#utility.yul\":4976:4981   */\n      0x00\n        /* \"#utility.yul\":5025:5028   */\n      dup3\n        /* \"#utility.yul\":5018:5022   */\n      0x1f\n        /* \"#utility.yul\":5010:5016   */\n      dup4\n        /* \"#utility.yul\":5006:5023   */\n      add\n        /* \"#utility.yul\":5002:5029   */\n      slt\n        /* \"#utility.yul\":4992:5114   */\n      tag_321\n      jumpi\n        /* \"#utility.yul\":5033:5112   */\n      tag_322\n      tag_207\n      jump\t// in\n    tag_322:\n        /* \"#utility.yul\":4992:5114   */\n    tag_321:\n        /* \"#utility.yul\":5150:5156   */\n      dup2\n        /* \"#utility.yul\":5137:5157   */\n      calldataload\n        /* \"#utility.yul\":5175:5254   */\n      tag_323\n        /* \"#utility.yul\":5250:5253   */\n      dup5\n        /* \"#utility.yul\":5242:5248   */\n      dup3\n        /* \"#utility.yul\":5235:5239   */\n      0x20\n        /* \"#utility.yul\":5227:5233   */\n      dup7\n        /* \"#utility.yul\":5223:5240   */\n      add\n        /* \"#utility.yul\":5175:5254   */\n      tag_215\n      jump\t// in\n    tag_323:\n        /* \"#utility.yul\":5166:5254   */\n      swap2\n      pop\n        /* \"#utility.yul\":4982:5260   */\n      pop\n        /* \"#utility.yul\":4920:5260   */\n      swap3\n      swap2\n      pop\n      pop\n      jump\t// out\n        /* \"#utility.yul\":5266:6100   */\n    tag_46:\n        /* \"#utility.yul\":5354:5360   */\n      0x00\n        /* \"#utility.yul\":5362:5368   */\n      dup1\n        /* \"#utility.yul\":5411:5413   */\n      0x40\n        /* \"#utility.yul\":5399:5408   */\n      dup4\n        /* \"#utility.yul\":5390:5397   */\n      dup6\n        /* \"#utility.yul\":5386:5409   */\n      sub\n        /* \"#utility.yul\":5382:5414   */\n      slt\n        /* \"#utility.yul\":5379:5498   */\n      iszero\n      tag_325\n      jumpi\n        /* \"#utility.yul\":5417:5496   */\n      tag_326\n      tag_196\n      jump\t// in\n    tag_326:\n        /* \"#utility.yul\":5379:5498   */\n    tag_325:\n        /* \"#utility.yul\":5565:5566   */\n      0x00\n        /* \"#utility.yul\":5554:5563   */\n      dup4\n        /* \"#utility.yul\":5550:5567   */\n      add\n        /* \"#utility.yul\":5537:5568   */\n      calldataload\n        /* \"#utility.yul\":5595:5613   */\n      0xffffffffffffffff\n        /* \"#utility.yul\":5587:5593   */\n      dup2\n        /* \"#utility.yul\":5584:5614   */\n      gt\n        /* \"#utility.yul\":5581:5698   */\n      iszero\n      tag_327\n      jumpi\n        /* \"#utility.yul\":5617:5696   */\n      tag_328\n      tag_197\n      jump\t// in\n    tag_328:\n        /* \"#utility.yul\":5581:5698   */\n    tag_327:\n        /* \"#utility.yul\":5722:5785   */\n      tag_329\n        /* \"#utility.yul\":5777:5784   */\n      dup6\n        /* \"#utility.yul\":5768:5774   */\n      dup3\n        /* \"#utility.yul\":5757:5766   */\n      dup7\n        /* \"#utility.yul\":5753:5775   */\n      add\n        /* \"#utility.yul\":5722:5785   */\n      tag_216\n      jump\t// in\n    tag_329:\n        /* \"#utility.yul\":5712:5785   */\n      swap3\n      pop\n        /* \"#utility.yul\":5508:5795   */\n      pop\n        /* \"#utility.yul\":5862:5864   */\n      0x20\n        /* \"#utility.yul\":5851:5860   */\n      dup4\n        /* \"#utility.yul\":5847:5865   */\n      add\n        /* \"#utility.yul\":5834:5866   */\n      calldataload\n        /* \"#utility.yul\":5893:5911   */\n      0xffffffffffffffff\n        /* \"#utility.yul\":5885:5891   */\n      dup2\n        /* \"#utility.yul\":5882:5912   */\n      gt\n        /* \"#utility.yul\":5879:5996   */\n      iszero\n      tag_330\n      jumpi\n        /* \"#utility.yul\":5915:5994   */\n      tag_331\n      tag_197\n      jump\t// in\n    tag_331:\n        /* \"#utility.yul\":5879:5996   */\n    tag_330:\n        /* \"#utility.yul\":6020:6083   */\n      tag_332\n        /* \"#utility.yul\":6075:6082   */\n      dup6\n        /* \"#utility.yul\":6066:6072   */\n      dup3\n        /* \"#utility.yul\":6055:6064   */\n      dup7\n        /* \"#utility.yul\":6051:6073   */\n      add\n        /* \"#utility.yul\":6020:6083   */\n      tag_216\n      jump\t// in\n    tag_332:\n        /* \"#utility.yul\":6010:6083   */\n      swap2\n      pop\n        /* \"#utility.yul\":5805:6093   */\n      pop\n        /* \"#utility.yul\":5266:6100   */\n      swap3\n      pop\n      swap3\n      swap1\n      pop\n      jump\t// out\n        /* \"#utility.yul\":6106:6196   */\n    tag_217:\n        /* \"#utility.yul\":6140:6147   */\n      0x00\n        /* \"#utility.yul\":6183:6188   */\n      dup2\n        /* \"#utility.yul\":6176:6189   */\n      iszero\n        /* \"#utility.yul\":6169:6190   */\n      iszero\n        /* \"#utility.yul\":6158:6190   */\n      swap1\n      pop\n        /* \"#utility.yul\":6106:6196   */\n      swap2\n      swap1\n      pop\n      jump\t// out\n        /* \"#utility.yul\":6202:6311   */\n    tag_218:\n        /* \"#utility.yul\":6283:6304   */\n      tag_335\n        /* \"#utility.yul\":6298:6303   */\n      dup2\n        /* \"#utility.yul\":6283:6304   */\n      tag_217\n      jump\t// in\n    tag_335:\n        /* \"#utility.yul\":6278:6281   */\n      dup3\n        /* \"#utility.yul\":6271:6305   */\n      mstore\n        /* \"#utility.yul\":6202:6311   */\n      pop\n      pop\n      jump\t// out\n        /* \"#utility.yul\":6317:6527   */\n    tag_54:\n        /* \"#utility.yul\":6404:6408   */\n      0x00\n        /* \"#utility.yul\":6442:6444   */\n      0x20\n        /* \"#utility.yul\":6431:6440   */\n      dup3\n        /* \"#utility.yul\":6427:6445   */\n      add\n        /* \"#utility.yul\":6419:6445   */\n      swap1\n      pop\n        /* \"#utility.yul\":6455:6520   */\n      tag_337\n        /* \"#utility.yul\":6517:6518   */\n      0x00\n        /* \"#utility.yul\":6506:6515   */\n      dup4\n        /* \"#utility.yul\":6502:6519   */\n      add\n        /* \"#utility.yul\":6493:6499   */\n      dup5\n        /* \"#utility.yul\":6455:6520   */\n      tag_218\n      jump\t// in\n    tag_337:\n        /* \"#utility.yul\":6317:6527   */\n      swap3\n      swap2\n      pop\n      pop\n      jump\t// out\n        /* \"#utility.yul\":6533:6632   */\n    tag_219:\n        /* \"#utility.yul\":6585:6591   */\n      0x00\n        /* \"#utility.yul\":6619:6624   */\n      dup2\n        /* \"#utility.yul\":6613:6625   */\n      mload\n        /* \"#utility.yul\":6603:6625   */\n      swap1\n      pop\n        /* \"#utility.yul\":6533:6632   */\n      swap2\n      swap1\n      pop\n      jump\t// out\n        /* \"#utility.yul\":6638:6807   */\n    tag_220:\n        /* \"#utility.yul\":6722:6733   */\n      0x00\n        /* \"#utility.yul\":6756:6762   */\n      dup3\n        /* \"#utility.yul\":6751:6754   */\n      dup3\n        /* \"#utility.yul\":6744:6763   */\n      mstore\n        /* \"#utility.yul\":6796:6800   */\n      0x20\n        /* \"#utility.yul\":6791:6794   */\n      dup3\n        /* \"#utility.yul\":6787:6801   */\n      add\n        /* \"#utility.yul\":6772:6801   */\n      swap1\n      pop\n        /* \"#utility.yul\":6638:6807   */\n      swap3\n      swap2\n      pop\n      pop\n      jump\t// out\n        /* \"#utility.yul\":6813:7059   */\n    tag_221:\n        /* \"#utility.yul\":6894:6895   */\n      0x00\n        /* \"#utility.yul\":6904:7017   */\n    tag_341:\n        /* \"#utility.yul\":6918:6924   */\n      dup4\n        /* \"#utility.yul\":6915:6916   */\n      dup2\n        /* \"#utility.yul\":6912:6925   */\n      lt\n        /* \"#utility.yul\":6904:7017   */\n      iszero\n      tag_343\n      jumpi\n        /* \"#utility.yul\":7003:7004   */\n      dup1\n        /* \"#utility.yul\":6998:7001   */\n      dup3\n        /* \"#utility.yul\":6994:7005   */\n      add\n        /* \"#utility.yul\":6988:7006   */\n      mload\n        /* \"#utility.yul\":6984:6985   */\n      dup2\n        /* \"#utility.yul\":6979:6982   */\n      dup5\n        /* \"#utility.yul\":6975:6986   */\n      add\n        /* \"#utility.yul\":6968:7007   */\n      mstore\n        /* \"#utility.yul\":6940:6942   */\n      0x20\n        /* \"#utility.yul\":6937:6938   */\n      dup2\n        /* \"#utility.yul\":6933:6943   */\n      add\n        /* \"#utility.yul\":6928:6943   */\n      swap1\n      pop\n        /* \"#utility.yul\":6904:7017   */\n      jump(tag_341)\n    tag_343:\n        /* \"#utility.yul\":7051:7052   */\n      0x00\n        /* \"#utility.yul\":7042:7048   */\n      dup5\n        /* \"#utility.yul\":7037:7040   */\n      dup5\n        /* \"#utility.yul\":7033:7049   */\n      add\n        /* \"#utility.yul\":7026:7053   */\n      mstore\n        /* \"#utility.yul\":6875:7059   */\n      pop\n        /* \"#utility.yul\":6813:7059   */\n      pop\n      pop\n      pop\n      jump\t// out\n        /* \"#utility.yul\":7065:7442   */\n    tag_222:\n        /* \"#utility.yul\":7153:7156   */\n      0x00\n        /* \"#utility.yul\":7181:7220   */\n      tag_345\n        /* \"#utility.yul\":7214:7219   */\n      dup3\n        /* \"#utility.yul\":7181:7220   */\n      tag_219\n      jump\t// in\n    tag_345:\n        /* \"#utility.yul\":7236:7307   */\n      tag_346\n        /* \"#utility.yul\":7300:7306   */\n      dup2\n        /* \"#utility.yul\":7295:7298   */\n      dup6\n        /* \"#utility.yul\":7236:7307   */\n      tag_220\n      jump\t// in\n    tag_346:\n        /* \"#utility.yul\":7229:7307   */\n      swap4\n      pop\n        /* \"#utility.yul\":7316:7381   */\n      tag_347\n        /* \"#utility.yul\":7374:7380   */\n      dup2\n        /* \"#utility.yul\":7369:7372   */\n      dup6\n        /* \"#utility.yul\":7362:7366   */\n      0x20\n        /* \"#utility.yul\":7355:7360   */\n      dup7\n        /* \"#utility.yul\":7351:7367   */\n      add\n        /* \"#utility.yul\":7316:7381   */\n      tag_221\n      jump\t// in\n    tag_347:\n        /* \"#utility.yul\":7406:7435   */\n      tag_348\n        /* \"#utility.yul\":7428:7434   */\n      dup2\n        /* \"#utility.yul\":7406:7435   */\n      tag_209\n      jump\t// in\n    tag_348:\n        /* \"#utility.yul\":7401:7404   */\n      dup5\n        /* \"#utility.yul\":7397:7436   */\n      add\n        /* \"#utility.yul\":7390:7436   */\n      swap2\n      pop\n        /* \"#utility.yul\":7157:7442   */\n      pop\n        /* \"#utility.yul\":7065:7442   */\n      swap3\n      swap2\n      pop\n      pop\n      jump\t// out\n        /* \"#utility.yul\":7448:7761   */\n    tag_58:\n        /* \"#utility.yul\":7561:7565   */\n      0x00\n        /* \"#utility.yul\":7599:7601   */\n      0x20\n        /* \"#utility.yul\":7588:7597   */\n      dup3\n        /* \"#utility.yul\":7584:7602   */\n      add\n        /* \"#utility.yul\":7576:7602   */\n      swap1\n      pop\n        /* \"#utility.yul\":7648:7657   */\n      dup2\n        /* \"#utility.yul\":7642:7646   */\n      dup2\n        /* \"#utility.yul\":7638:7658   */\n      sub\n        /* \"#utility.yul\":7634:7635   */\n      0x00\n        /* \"#utility.yul\":7623:7632   */\n      dup4\n        /* \"#utility.yul\":7619:7636   */\n      add\n        /* \"#utility.yul\":7612:7659   */\n      mstore\n        /* \"#utility.yul\":7676:7754   */\n      tag_350\n        /* \"#utility.yul\":7749:7753   */\n      dup2\n        /* \"#utility.yul\":7740:7746   */\n      dup5\n        /* \"#utility.yul\":7676:7754   */\n      tag_222\n      jump\t// in\n    tag_350:\n        /* \"#utility.yul\":7668:7754   */\n      swap1\n      pop\n        /* \"#utility.yul\":7448:7761   */\n      swap3\n      swap2\n      pop\n      pop\n      jump\t// out\n        /* \"#utility.yul\":7767:7910   */\n    tag_223:\n        /* \"#utility.yul\":7863:7869   */\n      0x00\n        /* \"#utility.yul\":7897:7902   */\n      dup2\n        /* \"#utility.yul\":7891:7903   */\n      mload\n        /* \"#utility.yul\":7881:7903   */\n      swap1\n      pop\n        /* \"#utility.yul\":7767:7910   */\n      swap2\n      swap1\n      pop\n      jump\t// out\n        /* \"#utility.yul\":7916:8129   */\n    tag_224:\n        /* \"#utility.yul\":8044:8055   */\n      0x00\n        /* \"#utility.yul\":8078:8084   */\n      dup3\n        /* \"#utility.yul\":8073:8076   */\n      dup3\n        /* \"#utility.yul\":8066:8085   */\n      mstore\n        /* \"#utility.yul\":8118:8122   */\n      0x20\n        /* \"#utility.yul\":8113:8116   */\n      dup3\n        /* \"#utility.yul\":8109:8123   */\n      add\n        /* \"#utility.yul\":8094:8123   */\n      swap1\n      pop\n        /* \"#utility.yul\":7916:8129   */\n      swap3\n      swap2\n      pop\n      pop\n      jump\t// out\n        /* \"#utility.yul\":8135:8296   */\n    tag_225:\n        /* \"#utility.yul\":8231:8235   */\n      0x00\n        /* \"#utility.yul\":8254:8257   */\n      dup2\n        /* \"#utility.yul\":8246:8257   */\n      swap1\n      pop\n        /* \"#utility.yul\":8284:8288   */\n      0x20\n        /* \"#utility.yul\":8279:8282   */\n      dup3\n        /* \"#utility.yul\":8275:8289   */\n      add\n        /* \"#utility.yul\":8267:8289   */\n      swap1\n      pop\n        /* \"#utility.yul\":8135:8296   */\n      swap2\n      swap1\n      pop\n      jump\t// out\n        /* \"#utility.yul\":8302:8410   */\n    tag_226:\n        /* \"#utility.yul\":8379:8403   */\n      tag_355\n        /* \"#utility.yul\":8397:8402   */\n      dup2\n        /* \"#utility.yul\":8379:8403   */\n      tag_202\n      jump\t// in\n    tag_355:\n        /* \"#utility.yul\":8374:8377   */\n      dup3\n        /* \"#utility.yul\":8367:8404   */\n      mstore\n        /* \"#utility.yul\":8302:8410   */\n      pop\n      pop\n      jump\t// out\n        /* \"#utility.yul\":8416:8524   */\n    tag_227:\n        /* \"#utility.yul\":8493:8517   */\n      tag_357\n        /* \"#utility.yul\":8511:8516   */\n      dup2\n        /* \"#utility.yul\":8493:8517   */\n      tag_198\n      jump\t// in\n    tag_357:\n        /* \"#utility.yul\":8488:8491   */\n      dup3\n        /* \"#utility.yul\":8481:8518   */\n      mstore\n        /* \"#utility.yul\":8416:8524   */\n      pop\n      pop\n      jump\t// out\n        /* \"#utility.yul\":8604:9478   */\n    tag_228:\n        /* \"#utility.yul\":8749:8753   */\n      0x80\n        /* \"#utility.yul\":8744:8747   */\n      dup3\n        /* \"#utility.yul\":8740:8754   */\n      add\n        /* \"#utility.yul\":8844:8848   */\n      0x00\n        /* \"#utility.yul\":8837:8842   */\n      dup3\n        /* \"#utility.yul\":8833:8849   */\n      add\n        /* \"#utility.yul\":8827:8850   */\n      mload\n        /* \"#utility.yul\":8863:8926   */\n      tag_359\n        /* \"#utility.yul\":8920:8924   */\n      0x00\n        /* \"#utility.yul\":8915:8918   */\n      dup6\n        /* \"#utility.yul\":8911:8925   */\n      add\n        /* \"#utility.yul\":8897:8909   */\n      dup3\n        /* \"#utility.yul\":8863:8926   */\n      tag_226\n      jump\t// in\n    tag_359:\n        /* \"#utility.yul\":8764:8936   */\n      pop\n        /* \"#utility.yul\":9024:9028   */\n      0x20\n        /* \"#utility.yul\":9017:9022   */\n      dup3\n        /* \"#utility.yul\":9013:9029   */\n      add\n        /* \"#utility.yul\":9007:9030   */\n      mload\n        /* \"#utility.yul\":9043:9106   */\n      tag_360\n        /* \"#utility.yul\":9100:9104   */\n      0x20\n        /* \"#utility.yul\":9095:9098   */\n      dup6\n        /* \"#utility.yul\":9091:9105   */\n      add\n        /* \"#utility.yul\":9077:9089   */\n      dup3\n        /* \"#utility.yul\":9043:9106   */\n      tag_226\n      jump\t// in\n    tag_360:\n        /* \"#utility.yul\":8946:9116   */\n      pop\n        /* \"#utility.yul\":9200:9204   */\n      0x40\n        /* \"#utility.yul\":9193:9198   */\n      dup3\n        /* \"#utility.yul\":9189:9205   */\n      add\n        /* \"#utility.yul\":9183:9206   */\n      mload\n        /* \"#utility.yul\":9219:9282   */\n      tag_361\n        /* \"#utility.yul\":9276:9280   */\n      0x40\n        /* \"#utility.yul\":9271:9274   */\n      dup6\n        /* \"#utility.yul\":9267:9281   */\n      add\n        /* \"#utility.yul\":9253:9265   */\n      dup3\n        /* \"#utility.yul\":9219:9282   */\n      tag_227\n      jump\t// in\n    tag_361:\n        /* \"#utility.yul\":9126:9292   */\n      pop\n        /* \"#utility.yul\":9379:9383   */\n      0x60\n        /* \"#utility.yul\":9372:9377   */\n      dup3\n        /* \"#utility.yul\":9368:9384   */\n      add\n        /* \"#utility.yul\":9362:9385   */\n      mload\n        /* \"#utility.yul\":9398:9461   */\n      tag_362\n        /* \"#utility.yul\":9455:9459   */\n      0x60\n        /* \"#utility.yul\":9450:9453   */\n      dup6\n        /* \"#utility.yul\":9446:9460   */\n      add\n        /* \"#utility.yul\":9432:9444   */\n      dup3\n        /* \"#utility.yul\":9398:9461   */\n      tag_227\n      jump\t// in\n    tag_362:\n        /* \"#utility.yul\":9302:9471   */\n      pop\n        /* \"#utility.yul\":8718:9478   */\n      pop\n        /* \"#utility.yul\":8604:9478   */\n      pop\n      pop\n      jump\t// out\n        /* \"#utility.yul\":9484:9779   */\n    tag_229:\n        /* \"#utility.yul\":9611:9621   */\n      0x00\n        /* \"#utility.yul\":9632:9736   */\n      tag_364\n        /* \"#utility.yul\":9732:9735   */\n      dup4\n        /* \"#utility.yul\":9724:9730   */\n      dup4\n        /* \"#utility.yul\":9632:9736   */\n      tag_228\n      jump\t// in\n    tag_364:\n        /* \"#utility.yul\":9768:9772   */\n      0x80\n        /* \"#utility.yul\":9763:9766   */\n      dup4\n        /* \"#utility.yul\":9759:9773   */\n      add\n        /* \"#utility.yul\":9745:9773   */\n      swap1\n      pop\n        /* \"#utility.yul\":9484:9779   */\n      swap3\n      swap2\n      pop\n      pop\n      jump\t// out\n        /* \"#utility.yul\":9785:9927   */\n    tag_230:\n        /* \"#utility.yul\":9884:9888   */\n      0x00\n        /* \"#utility.yul\":9916:9920   */\n      0x20\n        /* \"#utility.yul\":9911:9914   */\n      dup3\n        /* \"#utility.yul\":9907:9921   */\n      add\n        /* \"#utility.yul\":9899:9921   */\n      swap1\n      pop\n        /* \"#utility.yul\":9785:9927   */\n      swap2\n      swap1\n      pop\n      jump\t// out\n        /* \"#utility.yul\":10011:10975   */\n    tag_231:\n        /* \"#utility.yul\":10188:10191   */\n      0x00\n        /* \"#utility.yul\":10217:10300   */\n      tag_367\n        /* \"#utility.yul\":10294:10299   */\n      dup3\n        /* \"#utility.yul\":10217:10300   */\n      tag_223\n      jump\t// in\n    tag_367:\n        /* \"#utility.yul\":10316:10431   */\n      tag_368\n        /* \"#utility.yul\":10424:10430   */\n      dup2\n        /* \"#utility.yul\":10419:10422   */\n      dup6\n        /* \"#utility.yul\":10316:10431   */\n      tag_224\n      jump\t// in\n    tag_368:\n        /* \"#utility.yul\":10309:10431   */\n      swap4\n      pop\n        /* \"#utility.yul\":10455:10540   */\n      tag_369\n        /* \"#utility.yul\":10534:10539   */\n      dup4\n        /* \"#utility.yul\":10455:10540   */\n      tag_225\n      jump\t// in\n    tag_369:\n        /* \"#utility.yul\":10563:10570   */\n      dup1\n        /* \"#utility.yul\":10594:10595   */\n      0x00\n        /* \"#utility.yul\":10579:10950   */\n    tag_370:\n        /* \"#utility.yul\":10604:10610   */\n      dup4\n        /* \"#utility.yul\":10601:10602   */\n      dup2\n        /* \"#utility.yul\":10598:10611   */\n      lt\n        /* \"#utility.yul\":10579:10950   */\n      iszero\n      tag_372\n      jumpi\n        /* \"#utility.yul\":10680:10686   */\n      dup2\n        /* \"#utility.yul\":10674:10687   */\n      mload\n        /* \"#utility.yul\":10707:10828   */\n      tag_373\n        /* \"#utility.yul\":10824:10827   */\n      dup9\n        /* \"#utility.yul\":10809:10822   */\n      dup3\n        /* \"#utility.yul\":10707:10828   */\n      tag_229\n      jump\t// in\n    tag_373:\n        /* \"#utility.yul\":10700:10828   */\n      swap8\n      pop\n        /* \"#utility.yul\":10851:10940   */\n      tag_374\n        /* \"#utility.yul\":10933:10939   */\n      dup4\n        /* \"#utility.yul\":10851:10940   */\n      tag_230\n      jump\t// in\n    tag_374:\n        /* \"#utility.yul\":10841:10940   */\n      swap3\n      pop\n        /* \"#utility.yul\":10639:10950   */\n      pop\n        /* \"#utility.yul\":10626:10627   */\n      0x01\n        /* \"#utility.yul\":10623:10624   */\n      dup2\n        /* \"#utility.yul\":10619:10628   */\n      add\n        /* \"#utility.yul\":10614:10628   */\n      swap1\n      pop\n        /* \"#utility.yul\":10579:10950   */\n      jump(tag_370)\n    tag_372:\n        /* \"#utility.yul\":10583:10597   */\n      pop\n        /* \"#utility.yul\":10966:10969   */\n      dup6\n        /* \"#utility.yul\":10959:10969   */\n      swap4\n      pop\n        /* \"#utility.yul\":10193:10975   */\n      pop\n      pop\n      pop\n        /* \"#utility.yul\":10011:10975   */\n      swap3\n      swap2\n      pop\n      pop\n      jump\t// out\n        /* \"#utility.yul\":10981:11470   */\n    tag_82:\n        /* \"#utility.yul\":11182:11186   */\n      0x00\n        /* \"#utility.yul\":11220:11222   */\n      0x20\n        /* \"#utility.yul\":11209:11218   */\n      dup3\n        /* \"#utility.yul\":11205:11223   */\n      add\n        /* \"#utility.yul\":11197:11223   */\n      swap1\n      pop\n        /* \"#utility.yul\":11269:11278   */\n      dup2\n        /* \"#utility.yul\":11263:11267   */\n      dup2\n        /* \"#utility.yul\":11259:11279   */\n      sub\n        /* \"#utility.yul\":11255:11256   */\n      0x00\n        /* \"#utility.yul\":11244:11253   */\n      dup4\n        /* \"#utility.yul\":11240:11257   */\n      add\n        /* \"#utility.yul\":11233:11280   */\n      mstore\n        /* \"#utility.yul\":11297:11463   */\n      tag_376\n        /* \"#utility.yul\":11458:11462   */\n      dup2\n        /* \"#utility.yul\":11449:11455   */\n      dup5\n        /* \"#utility.yul\":11297:11463   */\n      tag_231\n      jump\t// in\n    tag_376:\n        /* \"#utility.yul\":11289:11463   */\n      swap1\n      pop\n        /* \"#utility.yul\":10981:11470   */\n      swap3\n      swap2\n      pop\n      pop\n      jump\t// out\n        /* \"#utility.yul\":11550:12434   */\n    tag_232:\n        /* \"#utility.yul\":11705:11709   */\n      0x80\n        /* \"#utility.yul\":11700:11703   */\n      dup3\n        /* \"#utility.yul\":11696:11710   */\n      add\n        /* \"#utility.yul\":11800:11804   */\n      0x00\n        /* \"#utility.yul\":11793:11798   */\n      dup3\n        /* \"#utility.yul\":11789:11805   */\n      add\n        /* \"#utility.yul\":11783:11806   */\n      mload\n        /* \"#utility.yul\":11819:11882   */\n      tag_378\n        /* \"#utility.yul\":11876:11880   */\n      0x00\n        /* \"#utility.yul\":11871:11874   */\n      dup6\n        /* \"#utility.yul\":11867:11881   */\n      add\n        /* \"#utility.yul\":11853:11865   */\n      dup3\n        /* \"#utility.yul\":11819:11882   */\n      tag_226\n      jump\t// in\n    tag_378:\n        /* \"#utility.yul\":11720:11892   */\n      pop\n        /* \"#utility.yul\":11980:11984   */\n      0x20\n        /* \"#utility.yul\":11973:11978   */\n      dup3\n        /* \"#utility.yul\":11969:11985   */\n      add\n        /* \"#utility.yul\":11963:11986   */\n      mload\n        /* \"#utility.yul\":11999:12062   */\n      tag_379\n        /* \"#utility.yul\":12056:12060   */\n      0x20\n        /* \"#utility.yul\":12051:12054   */\n      dup6\n        /* \"#utility.yul\":12047:12061   */\n      add\n        /* \"#utility.yul\":12033:12045   */\n      dup3\n        /* \"#utility.yul\":11999:12062   */\n      tag_226\n      jump\t// in\n    tag_379:\n        /* \"#utility.yul\":11902:12072   */\n      pop\n        /* \"#utility.yul\":12156:12160   */\n      0x40\n        /* \"#utility.yul\":12149:12154   */\n      dup3\n        /* \"#utility.yul\":12145:12161   */\n      add\n        /* \"#utility.yul\":12139:12162   */\n      mload\n        /* \"#utility.yul\":12175:12238   */\n      tag_380\n        /* \"#utility.yul\":12232:12236   */\n      0x40\n        /* \"#utility.yul\":12227:12230   */\n      dup6\n        /* \"#utility.yul\":12223:12237   */\n      add\n        /* \"#utility.yul\":12209:12221   */\n      dup3\n        /* \"#utility.yul\":12175:12238   */\n      tag_227\n      jump\t// in\n    tag_380:\n        /* \"#utility.yul\":12082:12248   */\n      pop\n        /* \"#utility.yul\":12335:12339   */\n      0x60\n        /* \"#utility.yul\":12328:12333   */\n      dup3\n        /* \"#utility.yul\":12324:12340   */\n      add\n        /* \"#utility.yul\":12318:12341   */\n      mload\n        /* \"#utility.yul\":12354:12417   */\n      tag_381\n        /* \"#utility.yul\":12411:12415   */\n      0x60\n        /* \"#utility.yul\":12406:12409   */\n      dup6\n        /* \"#utility.yul\":12402:12416   */\n      add\n        /* \"#utility.yul\":12388:12400   */\n      dup3\n        /* \"#utility.yul\":12354:12417   */\n      tag_227\n      jump\t// in\n    tag_381:\n        /* \"#utility.yul\":12258:12427   */\n      pop\n        /* \"#utility.yul\":11674:12434   */\n      pop\n        /* \"#utility.yul\":11550:12434   */\n      pop\n      pop\n      jump\t// out\n        /* \"#utility.yul\":12440:12779   */\n    tag_98:\n        /* \"#utility.yul\":12591:12595   */\n      0x00\n        /* \"#utility.yul\":12629:12632   */\n      0x80\n        /* \"#utility.yul\":12618:12627   */\n      dup3\n        /* \"#utility.yul\":12614:12633   */\n      add\n        /* \"#utility.yul\":12606:12633   */\n      swap1\n      pop\n        /* \"#utility.yul\":12643:12772   */\n      tag_383\n        /* \"#utility.yul\":12769:12770   */\n      0x00\n        /* \"#utility.yul\":12758:12767   */\n      dup4\n        /* \"#utility.yul\":12754:12771   */\n      add\n        /* \"#utility.yul\":12745:12751   */\n      dup5\n        /* \"#utility.yul\":12643:12772   */\n      tag_232\n      jump\t// in\n    tag_383:\n        /* \"#utility.yul\":12440:12779   */\n      swap3\n      swap2\n      pop\n      pop\n      jump\t// out\n        /* \"#utility.yul\":12785:12962   */\n    tag_233:\n        /* \"#utility.yul\":12925:12954   */\n      0x54686973206164647265737320646f65736e2774206578697374730000000000\n        /* \"#utility.yul\":12921:12922   */\n      0x00\n        /* \"#utility.yul\":12913:12919   */\n      dup3\n        /* \"#utility.yul\":12909:12923   */\n      add\n        /* \"#utility.yul\":12902:12955   */\n      mstore\n        /* \"#utility.yul\":12785:12962   */\n      pop\n      jump\t// out\n        /* \"#utility.yul\":12968:13334   */\n    tag_234:\n        /* \"#utility.yul\":13110:13113   */\n      0x00\n        /* \"#utility.yul\":13131:13198   */\n      tag_386\n        /* \"#utility.yul\":13195:13197   */\n      0x1b\n        /* \"#utility.yul\":13190:13193   */\n      dup4\n        /* \"#utility.yul\":13131:13198   */\n      tag_220\n      jump\t// in\n    tag_386:\n        /* \"#utility.yul\":13124:13198   */\n      swap2\n      pop\n        /* \"#utility.yul\":13207:13300   */\n      tag_387\n        /* \"#utility.yul\":13296:13299   */\n      dup3\n        /* \"#utility.yul\":13207:13300   */\n      tag_233\n      jump\t// in\n    tag_387:\n        /* \"#utility.yul\":13325:13327   */\n      0x20\n        /* \"#utility.yul\":13320:13323   */\n      dup3\n        /* \"#utility.yul\":13316:13328   */\n      add\n        /* \"#utility.yul\":13309:13328   */\n      swap1\n      pop\n        /* \"#utility.yul\":12968:13334   */\n      swap2\n      swap1\n      pop\n      jump\t// out\n        /* \"#utility.yul\":13340:13759   */\n    tag_107:\n        /* \"#utility.yul\":13506:13510   */\n      0x00\n        /* \"#utility.yul\":13544:13546   */\n      0x20\n        /* \"#utility.yul\":13533:13542   */\n      dup3\n        /* \"#utility.yul\":13529:13547   */\n      add\n        /* \"#utility.yul\":13521:13547   */\n      swap1\n      pop\n        /* \"#utility.yul\":13593:13602   */\n      dup2\n        /* \"#utility.yul\":13587:13591   */\n      dup2\n        /* \"#utility.yul\":13583:13603   */\n      sub\n        /* \"#utility.yul\":13579:13580   */\n      0x00\n        /* \"#utility.yul\":13568:13577   */\n      dup4\n        /* \"#utility.yul\":13564:13581   */\n      add\n        /* \"#utility.yul\":13557:13604   */\n      mstore\n        /* \"#utility.yul\":13621:13752   */\n      tag_389\n        /* \"#utility.yul\":13747:13751   */\n      dup2\n        /* \"#utility.yul\":13621:13752   */\n      tag_234\n      jump\t// in\n    tag_389:\n        /* \"#utility.yul\":13613:13752   */\n      swap1\n      pop\n        /* \"#utility.yul\":13340:13759   */\n      swap2\n      swap1\n      pop\n      jump\t// out\n        /* \"#utility.yul\":13765:13938   */\n    tag_235:\n        /* \"#utility.yul\":13905:13930   */\n      0x506c6561736520696e7365727420796f75722063617264000000000000000000\n        /* \"#utility.yul\":13901:13902   */\n      0x00\n        /* \"#utility.yul\":13893:13899   */\n      dup3\n        /* \"#utility.yul\":13889:13903   */\n      add\n        /* \"#utility.yul\":13882:13931   */\n      mstore\n        /* \"#utility.yul\":13765:13938   */\n      pop\n      jump\t// out\n        /* \"#utility.yul\":13944:14310   */\n    tag_236:\n        /* \"#utility.yul\":14086:14089   */\n      0x00\n        /* \"#utility.yul\":14107:14174   */\n      tag_392\n        /* \"#utility.yul\":14171:14173   */\n      0x17\n        /* \"#utility.yul\":14166:14169   */\n      dup4\n        /* \"#utility.yul\":14107:14174   */\n      tag_220\n      jump\t// in\n    tag_392:\n        /* \"#utility.yul\":14100:14174   */\n      swap2\n      pop\n        /* \"#utility.yul\":14183:14276   */\n      tag_393\n        /* \"#utility.yul\":14272:14275   */\n      dup3\n        /* \"#utility.yul\":14183:14276   */\n      tag_235\n      jump\t// in\n    tag_393:\n        /* \"#utility.yul\":14301:14303   */\n      0x20\n        /* \"#utility.yul\":14296:14299   */\n      dup3\n        /* \"#utility.yul\":14292:14304   */\n      add\n        /* \"#utility.yul\":14285:14304   */\n      swap1\n      pop\n        /* \"#utility.yul\":13944:14310   */\n      swap2\n      swap1\n      pop\n      jump\t// out\n        /* \"#utility.yul\":14316:14735   */\n    tag_111:\n        /* \"#utility.yul\":14482:14486   */\n      0x00\n        /* \"#utility.yul\":14520:14522   */\n      0x20\n        /* \"#utility.yul\":14509:14518   */\n      dup3\n        /* \"#utility.yul\":14505:14523   */\n      add\n        /* \"#utility.yul\":14497:14523   */\n      swap1\n      pop\n        /* \"#utility.yul\":14569:14578   */\n      dup2\n        /* \"#utility.yul\":14563:14567   */\n      dup2\n        /* \"#utility.yul\":14559:14579   */\n      sub\n        /* \"#utility.yul\":14555:14556   */\n      0x00\n        /* \"#utility.yul\":14544:14553   */\n      dup4\n        /* \"#utility.yul\":14540:14557   */\n      add\n        /* \"#utility.yul\":14533:14580   */\n      mstore\n        /* \"#utility.yul\":14597:14728   */\n      tag_395\n        /* \"#utility.yul\":14723:14727   */\n      dup2\n        /* \"#utility.yul\":14597:14728   */\n      tag_236\n      jump\t// in\n    tag_395:\n        /* \"#utility.yul\":14589:14728   */\n      swap1\n      pop\n        /* \"#utility.yul\":14316:14735   */\n      swap2\n      swap1\n      pop\n      jump\t// out\n        /* \"#utility.yul\":14741:14921   */\n    tag_237:\n        /* \"#utility.yul\":14789:14866   */\n      0x4e487b7100000000000000000000000000000000000000000000000000000000\n        /* \"#utility.yul\":14786:14787   */\n      0x00\n        /* \"#utility.yul\":14779:14867   */\n      mstore\n        /* \"#utility.yul\":14886:14890   */\n      0x11\n        /* \"#utility.yul\":14883:14884   */\n      0x04\n        /* \"#utility.yul\":14876:14891   */\n      mstore\n        /* \"#utility.yul\":14910:14914   */\n      0x24\n        /* \"#utility.yul\":14907:14908   */\n      0x00\n        /* \"#utility.yul\":14900:14915   */\n      revert\n        /* \"#utility.yul\":14927:15118   */\n    tag_115:\n        /* \"#utility.yul\":14967:14970   */\n      0x00\n        /* \"#utility.yul\":14986:15006   */\n      tag_398\n        /* \"#utility.yul\":15004:15005   */\n      dup3\n        /* \"#utility.yul\":14986:15006   */\n      tag_198\n      jump\t// in\n    tag_398:\n        /* \"#utility.yul\":14981:15006   */\n      swap2\n      pop\n        /* \"#utility.yul\":15020:15040   */\n      tag_399\n        /* \"#utility.yul\":15038:15039   */\n      dup4\n        /* \"#utility.yul\":15020:15040   */\n      tag_198\n      jump\t// in\n    tag_399:\n        /* \"#utility.yul\":15015:15040   */\n      swap3\n      pop\n        /* \"#utility.yul\":15063:15064   */\n      dup3\n        /* \"#utility.yul\":15060:15061   */\n      dup3\n        /* \"#utility.yul\":15056:15065   */\n      add\n        /* \"#utility.yul\":15049:15065   */\n      swap1\n      pop\n        /* \"#utility.yul\":15084:15087   */\n      dup1\n        /* \"#utility.yul\":15081:15082   */\n      dup3\n        /* \"#utility.yul\":15078:15088   */\n      gt\n        /* \"#utility.yul\":15075:15111   */\n      iszero\n      tag_400\n      jumpi\n        /* \"#utility.yul\":15091:15109   */\n      tag_401\n      tag_237\n      jump\t// in\n    tag_401:\n        /* \"#utility.yul\":15075:15111   */\n    tag_400:\n        /* \"#utility.yul\":14927:15118   */\n      swap3\n      swap2\n      pop\n      pop\n      jump\t// out\n        /* \"#utility.yul\":15124:15304   */\n    tag_119:\n        /* \"#utility.yul\":15172:15249   */\n      0x4e487b7100000000000000000000000000000000000000000000000000000000\n        /* \"#utility.yul\":15169:15170   */\n      0x00\n        /* \"#utility.yul\":15162:15250   */\n      mstore\n        /* \"#utility.yul\":15269:15273   */\n      0x01\n        /* \"#utility.yul\":15266:15267   */\n      0x04\n        /* \"#utility.yul\":15259:15274   */\n      mstore\n        /* \"#utility.yul\":15293:15297   */\n      0x24\n        /* \"#utility.yul\":15290:15291   */\n      0x00\n        /* \"#utility.yul\":15283:15298   */\n      revert\n        /* \"#utility.yul\":15310:15487   */\n    tag_238:\n        /* \"#utility.yul\":15450:15479   */\n      0x6f6e6c792035207472616e73616374696f6e7320706572206461790000000000\n        /* \"#utility.yul\":15446:15447   */\n      0x00\n        /* \"#utility.yul\":15438:15444   */\n      dup3\n        /* \"#utility.yul\":15434:15448   */\n      add\n        /* \"#utility.yul\":15427:15480   */\n      mstore\n        /* \"#utility.yul\":15310:15487   */\n      pop\n      jump\t// out\n        /* \"#utility.yul\":15493:15859   */\n    tag_239:\n        /* \"#utility.yul\":15635:15638   */\n      0x00\n        /* \"#utility.yul\":15656:15723   */\n      tag_405\n        /* \"#utility.yul\":15720:15722   */\n      0x1b\n        /* \"#utility.yul\":15715:15718   */\n      dup4\n        /* \"#utility.yul\":15656:15723   */\n      tag_220\n      jump\t// in\n    tag_405:\n        /* \"#utility.yul\":15649:15723   */\n      swap2\n      pop\n        /* \"#utility.yul\":15732:15825   */\n      tag_406\n        /* \"#utility.yul\":15821:15824   */\n      dup3\n        /* \"#utility.yul\":15732:15825   */\n      tag_238\n      jump\t// in\n    tag_406:\n        /* \"#utility.yul\":15850:15852   */\n      0x20\n        /* \"#utility.yul\":15845:15848   */\n      dup3\n        /* \"#utility.yul\":15841:15853   */\n      add\n        /* \"#utility.yul\":15834:15853   */\n      swap1\n      pop\n        /* \"#utility.yul\":15493:15859   */\n      swap2\n      swap1\n      pop\n      jump\t// out\n        /* \"#utility.yul\":15865:16284   */\n    tag_121:\n        /* \"#utility.yul\":16031:16035   */\n      0x00\n        /* \"#utility.yul\":16069:16071   */\n      0x20\n        /* \"#utility.yul\":16058:16067   */\n      dup3\n        /* \"#utility.yul\":16054:16072   */\n      add\n        /* \"#utility.yul\":16046:16072   */\n      swap1\n      pop\n        /* \"#utility.yul\":16118:16127   */\n      dup2\n        /* \"#utility.yul\":16112:16116   */\n      dup2\n        /* \"#utility.yul\":16108:16128   */\n      sub\n        /* \"#utility.yul\":16104:16105   */\n      0x00\n        /* \"#utility.yul\":16093:16102   */\n      dup4\n        /* \"#utility.yul\":16089:16106   */\n      add\n        /* \"#utility.yul\":16082:16129   */\n      mstore\n        /* \"#utility.yul\":16146:16277   */\n      tag_408\n        /* \"#utility.yul\":16272:16276   */\n      dup2\n        /* \"#utility.yul\":16146:16277   */\n      tag_239\n      jump\t// in\n    tag_408:\n        /* \"#utility.yul\":16138:16277   */\n      swap1\n      pop\n        /* \"#utility.yul\":15865:16284   */\n      swap2\n      swap1\n      pop\n      jump\t// out\n        /* \"#utility.yul\":16290:16484   */\n    tag_132:\n        /* \"#utility.yul\":16330:16334   */\n      0x00\n        /* \"#utility.yul\":16350:16370   */\n      tag_410\n        /* \"#utility.yul\":16368:16369   */\n      dup3\n        /* \"#utility.yul\":16350:16370   */\n      tag_198\n      jump\t// in\n    tag_410:\n        /* \"#utility.yul\":16345:16370   */\n      swap2\n      pop\n        /* \"#utility.yul\":16384:16404   */\n      tag_411\n        /* \"#utility.yul\":16402:16403   */\n      dup4\n        /* \"#utility.yul\":16384:16404   */\n      tag_198\n      jump\t// in\n    tag_411:\n        /* \"#utility.yul\":16379:16404   */\n      swap3\n      pop\n        /* \"#utility.yul\":16428:16429   */\n      dup3\n        /* \"#utility.yul\":16425:16426   */\n      dup3\n        /* \"#utility.yul\":16421:16430   */\n      sub\n        /* \"#utility.yul\":16413:16430   */\n      swap1\n      pop\n        /* \"#utility.yul\":16452:16453   */\n      dup2\n        /* \"#utility.yul\":16446:16450   */\n      dup2\n        /* \"#utility.yul\":16443:16454   */\n      gt\n        /* \"#utility.yul\":16440:16477   */\n      iszero\n      tag_412\n      jumpi\n        /* \"#utility.yul\":16457:16475   */\n      tag_413\n      tag_237\n      jump\t// in\n    tag_413:\n        /* \"#utility.yul\":16440:16477   */\n    tag_412:\n        /* \"#utility.yul\":16290:16484   */\n      swap3\n      swap2\n      pop\n      pop\n      jump\t// out\n        /* \"#utility.yul\":16490:16670   */\n    tag_240:\n        /* \"#utility.yul\":16538:16615   */\n      0x4e487b7100000000000000000000000000000000000000000000000000000000\n        /* \"#utility.yul\":16535:16536   */\n      0x00\n        /* \"#utility.yul\":16528:16616   */\n      mstore\n        /* \"#utility.yul\":16635:16639   */\n      0x22\n        /* \"#utility.yul\":16632:16633   */\n      0x04\n        /* \"#utility.yul\":16625:16640   */\n      mstore\n        /* \"#utility.yul\":16659:16663   */\n      0x24\n        /* \"#utility.yul\":16656:16657   */\n      0x00\n        /* \"#utility.yul\":16649:16664   */\n      revert\n        /* \"#utility.yul\":16676:16996   */\n    tag_151:\n        /* \"#utility.yul\":16720:16726   */\n      0x00\n        /* \"#utility.yul\":16757:16758   */\n      0x02\n        /* \"#utility.yul\":16751:16755   */\n      dup3\n        /* \"#utility.yul\":16747:16759   */\n      div\n        /* \"#utility.yul\":16737:16759   */\n      swap1\n      pop\n        /* \"#utility.yul\":16804:16805   */\n      0x01\n        /* \"#utility.yul\":16798:16802   */\n      dup3\n        /* \"#utility.yul\":16794:16806   */\n      and\n        /* \"#utility.yul\":16825:16843   */\n      dup1\n        /* \"#utility.yul\":16815:16896   */\n      tag_416\n      jumpi\n        /* \"#utility.yul\":16881:16885   */\n      0x7f\n        /* \"#utility.yul\":16873:16879   */\n      dup3\n        /* \"#utility.yul\":16869:16886   */\n      and\n        /* \"#utility.yul\":16859:16886   */\n      swap2\n      pop\n        /* \"#utility.yul\":16815:16896   */\n    tag_416:\n        /* \"#utility.yul\":16943:16945   */\n      0x20\n        /* \"#utility.yul\":16935:16941   */\n      dup3\n        /* \"#utility.yul\":16932:16946   */\n      lt\n        /* \"#utility.yul\":16912:16930   */\n      dup2\n        /* \"#utility.yul\":16909:16947   */\n      sub\n        /* \"#utility.yul\":16906:16990   */\n      tag_417\n      jumpi\n        /* \"#utility.yul\":16962:16980   */\n      tag_418\n      tag_240\n      jump\t// in\n    tag_418:\n        /* \"#utility.yul\":16906:16990   */\n    tag_417:\n        /* \"#utility.yul\":16727:16996   */\n      pop\n        /* \"#utility.yul\":16676:16996   */\n      swap2\n      swap1\n      pop\n      jump\t// out\n        /* \"#utility.yul\":17002:17143   */\n    tag_241:\n        /* \"#utility.yul\":17051:17055   */\n      0x00\n        /* \"#utility.yul\":17074:17077   */\n      dup2\n        /* \"#utility.yul\":17066:17077   */\n      swap1\n      pop\n        /* \"#utility.yul\":17097:17100   */\n      dup2\n        /* \"#utility.yul\":17094:17095   */\n      0x00\n        /* \"#utility.yul\":17087:17101   */\n      mstore\n        /* \"#utility.yul\":17131:17135   */\n      0x20\n        /* \"#utility.yul\":17128:17129   */\n      0x00\n        /* \"#utility.yul\":17118:17136   */\n      keccak256\n        /* \"#utility.yul\":17110:17136   */\n      swap1\n      pop\n        /* \"#utility.yul\":17002:17143   */\n      swap2\n      swap1\n      pop\n      jump\t// out\n        /* \"#utility.yul\":17149:17242   */\n    tag_242:\n        /* \"#utility.yul\":17186:17192   */\n      0x00\n        /* \"#utility.yul\":17233:17235   */\n      0x20\n        /* \"#utility.yul\":17228:17230   */\n      0x1f\n        /* \"#utility.yul\":17221:17226   */\n      dup4\n        /* \"#utility.yul\":17217:17231   */\n      add\n        /* \"#utility.yul\":17213:17236   */\n      div\n        /* \"#utility.yul\":17203:17236   */\n      swap1\n      pop\n        /* \"#utility.yul\":17149:17242   */\n      swap2\n      swap1\n      pop\n      jump\t// out\n        /* \"#utility.yul\":17248:17355   */\n    tag_243:\n        /* \"#utility.yul\":17292:17300   */\n      0x00\n        /* \"#utility.yul\":17342:17347   */\n      dup3\n        /* \"#utility.yul\":17336:17340   */\n      dup3\n        /* \"#utility.yul\":17332:17348   */\n      shl\n        /* \"#utility.yul\":17311:17348   */\n      swap1\n      pop\n        /* \"#utility.yul\":17248:17355   */\n      swap3\n      swap2\n      pop\n      pop\n      jump\t// out\n        /* \"#utility.yul\":17361:17754   */\n    tag_244:\n        /* \"#utility.yul\":17430:17436   */\n      0x00\n        /* \"#utility.yul\":17480:17481   */\n      0x08\n        /* \"#utility.yul\":17468:17478   */\n      dup4\n        /* \"#utility.yul\":17464:17482   */\n      mul\n        /* \"#utility.yul\":17503:17600   */\n      tag_423\n        /* \"#utility.yul\":17533:17599   */\n      0xffffffffffffffffffffffffffffffffffffffffffffffffffffffffffffffff\n        /* \"#utility.yul\":17522:17531   */\n      dup3\n        /* \"#utility.yul\":17503:17600   */\n      tag_243\n      jump\t// in\n    tag_423:\n        /* \"#utility.yul\":17621:17660   */\n      tag_424\n        /* \"#utility.yul\":17651:17659   */\n      dup7\n        /* \"#utility.yul\":17640:17649   */\n      dup4\n        /* \"#utility.yul\":17621:17660   */\n      tag_243\n      jump\t// in\n    tag_424:\n        /* \"#utility.yul\":17609:17660   */\n      swap6\n      pop\n        /* \"#utility.yul\":17693:17697   */\n      dup1\n        /* \"#utility.yul\":17689:17698   */\n      not\n        /* \"#utility.yul\":17682:17687   */\n      dup5\n        /* \"#utility.yul\":17678:17699   */\n      and\n        /* \"#utility.yul\":17669:17699   */\n      swap4\n      pop\n        /* \"#utility.yul\":17742:17746   */\n      dup1\n        /* \"#utility.yul\":17732:17740   */\n      dup7\n        /* \"#utility.yul\":17728:17747   */\n      and\n        /* \"#utility.yul\":17721:17726   */\n      dup5\n        /* \"#utility.yul\":17718:17748   */\n      or\n        /* \"#utility.yul\":17708:17748   */\n      swap3\n      pop\n        /* \"#utility.yul\":17437:17754   */\n      pop\n      pop\n        /* \"#utility.yul\":17361:17754   */\n      swap4\n      swap3\n      pop\n      pop\n      pop\n      jump\t// out\n        /* \"#utility.yul\":17760:17820   */\n    tag_245:\n        /* \"#utility.yul\":17788:17791   */\n      0x00\n        /* \"#utility.yul\":17809:17814   */\n      dup2\n        /* \"#utility.yul\":17802:17814   */\n      swap1\n      pop\n        /* \"#utility.yul\":17760:17820   */\n      swap2\n      swap1\n      pop\n      jump\t// out\n        /* \"#utility.yul\":17826:17968   */\n    tag_246:\n        /* \"#utility.yul\":17876:17885   */\n      0x00\n        /* \"#utility.yul\":17909:17962   */\n      tag_427\n        /* \"#utility.yul\":17927:17961   */\n      tag_428\n        /* \"#utility.yul\":17936:17960   */\n      tag_429\n        /* \"#utility.yul\":17954:17959   */\n      dup5\n        /* \"#utility.yul\":17936:17960   */\n      tag_198\n      jump\t// in\n    tag_429:\n        /* \"#utility.yul\":17927:17961   */\n      tag_245\n      jump\t// in\n    tag_428:\n        /* \"#utility.yul\":17909:17962   */\n      tag_198\n      jump\t// in\n    tag_427:\n        /* \"#utility.yul\":17896:17962   */\n      swap1\n      pop\n        /* \"#utility.yul\":17826:17968   */\n      swap2\n      swap1\n      pop\n      jump\t// out\n        /* \"#utility.yul\":17974:18049   */\n    tag_247:\n        /* \"#utility.yul\":18017:18020   */\n      0x00\n        /* \"#utility.yul\":18038:18043   */\n      dup2\n        /* \"#utility.yul\":18031:18043   */\n      swap1\n      pop\n        /* \"#utility.yul\":17974:18049   */\n      swap2\n      swap1\n      pop\n      jump\t// out\n        /* \"#utility.yul\":18055:18324   */\n    tag_248:\n        /* \"#utility.yul\":18165:18204   */\n      tag_432\n        /* \"#utility.yul\":18196:18203   */\n      dup4\n        /* \"#utility.yul\":18165:18204   */\n      tag_246\n      jump\t// in\n    tag_432:\n        /* \"#utility.yul\":18226:18317   */\n      tag_433\n        /* \"#utility.yul\":18275:18316   */\n      tag_434\n        /* \"#utility.yul\":18299:18315   */\n      dup3\n        /* \"#utility.yul\":18275:18316   */\n      tag_247\n      jump\t// in\n    tag_434:\n        /* \"#utility.yul\":18267:18273   */\n      dup5\n        /* \"#utility.yul\":18260:18264   */\n      dup5\n        /* \"#utility.yul\":18254:18265   */\n      sload\n        /* \"#utility.yul\":18226:18317   */\n      tag_244\n      jump\t// in\n    tag_433:\n        /* \"#utility.yul\":18220:18224   */\n      dup3\n        /* \"#utility.yul\":18213:18318   */\n      sstore\n        /* \"#utility.yul\":18131:18324   */\n      pop\n        /* \"#utility.yul\":18055:18324   */\n      pop\n      pop\n      pop\n      jump\t// out\n        /* \"#utility.yul\":18330:18403   */\n    tag_249:\n        /* \"#utility.yul\":18375:18378   */\n      0x00\n        /* \"#utility.yul\":18330:18403   */\n      swap1\n      jump\t// out\n        /* \"#utility.yul\":18409:18598   */\n    tag_250:\n        /* \"#utility.yul\":18486:18518   */\n      tag_437\n      tag_249\n      jump\t// in\n    tag_437:\n        /* \"#utility.yul\":18527:18592   */\n      tag_438\n        /* \"#utility.yul\":18585:18591   */\n      dup2\n        /* \"#utility.yul\":18577:18583   */\n      dup5\n        /* \"#utility.yul\":18571:18575   */\n      dup5\n        /* \"#utility.yul\":18527:18592   */\n      tag_248\n      jump\t// in\n    tag_438:\n        /* \"#utility.yul\":18462:18598   */\n      pop\n        /* \"#utility.yul\":18409:18598   */\n      pop\n      pop\n      jump\t// out\n        /* \"#utility.yul\":18604:18790   */\n    tag_251:\n        /* \"#utility.yul\":18664:18784   */\n    tag_440:\n        /* \"#utility.yul\":18681:18684   */\n      dup2\n        /* \"#utility.yul\":18674:18679   */\n      dup2\n        /* \"#utility.yul\":18671:18685   */\n      lt\n        /* \"#utility.yul\":18664:18784   */\n      iszero\n      tag_442\n      jumpi\n        /* \"#utility.yul\":18735:18774   */\n      tag_443\n        /* \"#utility.yul\":18772:18773   */\n      0x00\n        /* \"#utility.yul\":18765:18770   */\n      dup3\n        /* \"#utility.yul\":18735:18774   */\n      tag_250\n      jump\t// in\n    tag_443:\n        /* \"#utility.yul\":18708:18709   */\n      0x01\n        /* \"#utility.yul\":18701:18706   */\n      dup2\n        /* \"#utility.yul\":18697:18710   */\n      add\n        /* \"#utility.yul\":18688:18710   */\n      swap1\n      pop\n        /* \"#utility.yul\":18664:18784   */\n      jump(tag_440)\n    tag_442:\n        /* \"#utility.yul\":18604:18790   */\n      pop\n      pop\n      jump\t// out\n        /* \"#utility.yul\":18796:19339   */\n    tag_252:\n        /* \"#utility.yul\":18897:18899   */\n      0x1f\n        /* \"#utility.yul\":18892:18895   */\n      dup3\n        /* \"#utility.yul\":18889:18900   */\n      gt\n        /* \"#utility.yul\":18886:19332   */\n      iszero\n      tag_445\n      jumpi\n        /* \"#utility.yul\":18931:18969   */\n      tag_446\n        /* \"#utility.yul\":18963:18968   */\n      dup2\n        /* \"#utility.yul\":18931:18969   */\n      tag_241\n      jump\t// in\n    tag_446:\n        /* \"#utility.yul\":19015:19044   */\n      tag_447\n        /* \"#utility.yul\":19033:19043   */\n      dup5\n        /* \"#utility.yul\":19015:19044   */\n      tag_242\n      jump\t// in\n    tag_447:\n        /* \"#utility.yul\":19005:19013   */\n      dup2\n        /* \"#utility.yul\":19001:19045   */\n      add\n        /* \"#utility.yul\":19198:19200   */\n      0x20\n        /* \"#utility.yul\":19186:19196   */\n      dup6\n        /* \"#utility.yul\":19183:19201   */\n      lt\n        /* \"#utility.yul\":19180:19229   */\n      iszero\n      tag_448\n      jumpi\n        /* \"#utility.yul\":19219:19227   */\n      dup2\n        /* \"#utility.yul\":19204:19227   */\n      swap1\n      pop\n        /* \"#utility.yul\":19180:19229   */\n    tag_448:\n        /* \"#utility.yul\":19242:19322   */\n      tag_449\n        /* \"#utility.yul\":19298:19320   */\n      tag_450\n        /* \"#utility.yul\":19316:19319   */\n      dup6\n        /* \"#utility.yul\":19298:19320   */\n      tag_242\n      jump\t// in\n    tag_450:\n        /* \"#utility.yul\":19288:19296   */\n      dup4\n        /* \"#utility.yul\":19284:19321   */\n      add\n        /* \"#utility.yul\":19271:19282   */\n      dup3\n        /* \"#utility.yul\":19242:19322   */\n      tag_251\n      jump\t// in\n    tag_449:\n        /* \"#utility.yul\":18901:19332   */\n      pop\n      pop\n        /* \"#utility.yul\":18886:19332   */\n    tag_445:\n        /* \"#utility.yul\":18796:19339   */\n      pop\n      pop\n      pop\n      jump\t// out\n        /* \"#utility.yul\":19345:19462   */\n    tag_253:\n        /* \"#utility.yul\":19399:19407   */\n      0x00\n        /* \"#utility.yul\":19449:19454   */\n      dup3\n        /* \"#utility.yul\":19443:19447   */\n      dup3\n        /* \"#utility.yul\":19439:19455   */\n      shr\n        /* \"#utility.yul\":19418:19455   */\n      swap1\n      pop\n        /* \"#utility.yul\":19345:19462   */\n      swap3\n      swap2\n      pop\n      pop\n      jump\t// out\n        /* \"#utility.yul\":19468:19637   */\n    tag_254:\n        /* \"#utility.yul\":19512:19518   */\n      0x00\n        /* \"#utility.yul\":19545:19596   */\n      tag_453\n        /* \"#utility.yul\":19593:19594   */\n      0x00\n        /* \"#utility.yul\":19589:19595   */\n      not\n        /* \"#utility.yul\":19581:19586   */\n      dup5\n        /* \"#utility.yul\":19578:19579   */\n      0x08\n        /* \"#utility.yul\":19574:19587   */\n      mul\n        /* \"#utility.yul\":19545:19596   */\n      tag_253\n      jump\t// in\n    tag_453:\n        /* \"#utility.yul\":19541:19597   */\n      not\n        /* \"#utility.yul\":19626:19630   */\n      dup1\n        /* \"#utility.yul\":19620:19624   */\n      dup4\n        /* \"#utility.yul\":19616:19631   */\n      and\n        /* \"#utility.yul\":19606:19631   */\n      swap2\n      pop\n        /* \"#utility.yul\":19519:19637   */\n      pop\n        /* \"#utility.yul\":19468:19637   */\n      swap3\n      swap2\n      pop\n      pop\n      jump\t// out\n        /* \"#utility.yul\":19642:19937   */\n    tag_255:\n        /* \"#utility.yul\":19718:19722   */\n      0x00\n        /* \"#utility.yul\":19864:19893   */\n      tag_455\n        /* \"#utility.yul\":19889:19892   */\n      dup4\n        /* \"#utility.yul\":19883:19887   */\n      dup4\n        /* \"#utility.yul\":19864:19893   */\n      tag_254\n      jump\t// in\n    tag_455:\n        /* \"#utility.yul\":19856:19893   */\n      swap2\n      pop\n        /* \"#utility.yul\":19926:19929   */\n      dup3\n        /* \"#utility.yul\":19923:19924   */\n      0x02\n        /* \"#utility.yul\":19919:19930   */\n      mul\n        /* \"#utility.yul\":19913:19917   */\n      dup3\n        /* \"#utility.yul\":19910:19931   */\n      or\n        /* \"#utility.yul\":19902:19931   */\n      swap1\n      pop\n        /* \"#utility.yul\":19642:19937   */\n      swap3\n      swap2\n      pop\n      pop\n      jump\t// out\n        /* \"#utility.yul\":19942:21337   */\n    tag_139:\n        /* \"#utility.yul\":20059:20096   */\n      tag_457\n        /* \"#utility.yul\":20092:20095   */\n      dup3\n        /* \"#utility.yul\":20059:20096   */\n      tag_219\n      jump\t// in\n    tag_457:\n        /* \"#utility.yul\":20161:20179   */\n      0xffffffffffffffff\n        /* \"#utility.yul\":20153:20159   */\n      dup2\n        /* \"#utility.yul\":20150:20180   */\n      gt\n        /* \"#utility.yul\":20147:20203   */\n      iszero\n      tag_458\n      jumpi\n        /* \"#utility.yul\":20183:20201   */\n      tag_459\n      tag_210\n      jump\t// in\n    tag_459:\n        /* \"#utility.yul\":20147:20203   */\n    tag_458:\n        /* \"#utility.yul\":20227:20265   */\n      tag_460\n        /* \"#utility.yul\":20259:20263   */\n      dup3\n        /* \"#utility.yul\":20253:20264   */\n      sload\n        /* \"#utility.yul\":20227:20265   */\n      tag_151\n      jump\t// in\n    tag_460:\n        /* \"#utility.yul\":20312:20379   */\n      tag_461\n        /* \"#utility.yul\":20372:20378   */\n      dup3\n        /* \"#utility.yul\":20364:20370   */\n      dup3\n        /* \"#utility.yul\":20358:20362   */\n      dup6\n        /* \"#utility.yul\":20312:20379   */\n      tag_252\n      jump\t// in\n    tag_461:\n        /* \"#utility.yul\":20406:20407   */\n      0x00\n        /* \"#utility.yul\":20430:20434   */\n      0x20\n        /* \"#utility.yul\":20417:20434   */\n      swap1\n      pop\n        /* \"#utility.yul\":20462:20464   */\n      0x1f\n        /* \"#utility.yul\":20454:20460   */\n      dup4\n        /* \"#utility.yul\":20451:20465   */\n      gt\n        /* \"#utility.yul\":20479:20480   */\n      0x01\n        /* \"#utility.yul\":20474:21092   */\n      dup2\n      eq\n      tag_463\n      jumpi\n        /* \"#utility.yul\":21136:21137   */\n      0x00\n        /* \"#utility.yul\":21153:21159   */\n      dup5\n        /* \"#utility.yul\":21150:21227   */\n      iszero\n      tag_464\n      jumpi\n        /* \"#utility.yul\":21202:21211   */\n      dup3\n        /* \"#utility.yul\":21197:21200   */\n      dup8\n        /* \"#utility.yul\":21193:21212   */\n      add\n        /* \"#utility.yul\":21187:21213   */\n      mload\n        /* \"#utility.yul\":21178:21213   */\n      swap1\n      pop\n        /* \"#utility.yul\":21150:21227   */\n    tag_464:\n        /* \"#utility.yul\":21253:21320   */\n      tag_465\n        /* \"#utility.yul\":21313:21319   */\n      dup6\n        /* \"#utility.yul\":21306:21311   */\n      dup3\n        /* \"#utility.yul\":21253:21320   */\n      tag_255\n      jump\t// in\n    tag_465:\n        /* \"#utility.yul\":21247:21251   */\n      dup7\n        /* \"#utility.yul\":21240:21321   */\n      sstore\n        /* \"#utility.yul\":21109:21331   */\n      pop\n        /* \"#utility.yul\":20444:21331   */\n      jump(tag_462)\n        /* \"#utility.yul\":20474:21092   */\n    tag_463:\n        /* \"#utility.yul\":20526:20530   */\n      0x1f\n        /* \"#utility.yul\":20522:20531   */\n      not\n        /* \"#utility.yul\":20514:20520   */\n      dup5\n        /* \"#utility.yul\":20510:20532   */\n      and\n        /* \"#utility.yul\":20560:20597   */\n      tag_466\n        /* \"#utility.yul\":20592:20596   */\n      dup7\n        /* \"#utility.yul\":20560:20597   */\n      tag_241\n      jump\t// in\n    tag_466:\n        /* \"#utility.yul\":20619:20620   */\n      0x00\n        /* \"#utility.yul\":20633:20841   */\n    tag_467:\n        /* \"#utility.yul\":20647:20654   */\n      dup3\n        /* \"#utility.yul\":20644:20645   */\n      dup2\n        /* \"#utility.yul\":20641:20655   */\n      lt\n        /* \"#utility.yul\":20633:20841   */\n      iszero\n      tag_469\n      jumpi\n        /* \"#utility.yul\":20726:20735   */\n      dup5\n        /* \"#utility.yul\":20721:20724   */\n      dup10\n        /* \"#utility.yul\":20717:20736   */\n      add\n        /* \"#utility.yul\":20711:20737   */\n      mload\n        /* \"#utility.yul\":20703:20709   */\n      dup3\n        /* \"#utility.yul\":20696:20738   */\n      sstore\n        /* \"#utility.yul\":20777:20778   */\n      0x01\n        /* \"#utility.yul\":20769:20775   */\n      dup3\n        /* \"#utility.yul\":20765:20779   */\n      add\n        /* \"#utility.yul\":20755:20779   */\n      swap2\n      pop\n        /* \"#utility.yul\":20824:20826   */\n      0x20\n        /* \"#utility.yul\":20813:20822   */\n      dup6\n        /* \"#utility.yul\":20809:20827   */\n      add\n        /* \"#utility.yul\":20796:20827   */\n      swap5\n      pop\n        /* \"#utility.yul\":20670:20674   */\n      0x20\n        /* \"#utility.yul\":20667:20668   */\n      dup2\n        /* \"#utility.yul\":20663:20675   */\n      add\n        /* \"#utility.yul\":20658:20675   */\n      swap1\n      pop\n        /* \"#utility.yul\":20633:20841   */\n      jump(tag_467)\n    tag_469:\n        /* \"#utility.yul\":20869:20875   */\n      dup7\n        /* \"#utility.yul\":20860:20867   */\n      dup4\n        /* \"#utility.yul\":20857:20876   */\n      lt\n        /* \"#utility.yul\":20854:21033   */\n      iszero\n      tag_470\n      jumpi\n        /* \"#utility.yul\":20927:20936   */\n      dup5\n        /* \"#utility.yul\":20922:20925   */\n      dup10\n        /* \"#utility.yul\":20918:20937   */\n      add\n        /* \"#utility.yul\":20912:20938   */\n      mload\n        /* \"#utility.yul\":20970:21018   */\n      tag_471\n        /* \"#utility.yul\":21012:21016   */\n      0x1f\n        /* \"#utility.yul\":21004:21010   */\n      dup10\n        /* \"#utility.yul\":21000:21017   */\n      and\n        /* \"#utility.yul\":20989:20998   */\n      dup3\n        /* \"#utility.yul\":20970:21018   */\n      tag_254\n      jump\t// in\n    tag_471:\n        /* \"#utility.yul\":20962:20968   */\n      dup4\n        /* \"#utility.yul\":20955:21019   */\n      sstore\n        /* \"#utility.yul\":20877:21033   */\n      pop\n        /* \"#utility.yul\":20854:21033   */\n    tag_470:\n        /* \"#utility.yul\":21079:21080   */\n      0x01\n        /* \"#utility.yul\":21075:21076   */\n      0x02\n        /* \"#utility.yul\":21067:21073   */\n      dup9\n        /* \"#utility.yul\":21063:21077   */\n      mul\n        /* \"#utility.yul\":21059:21081   */\n      add\n        /* \"#utility.yul\":21053:21057   */\n      dup9\n        /* \"#utility.yul\":21046:21082   */\n      sstore\n        /* \"#utility.yul\":20481:21092   */\n      pop\n      pop\n      pop\n        /* \"#utility.yul\":20444:21331   */\n    tag_462:\n      pop\n        /* \"#utility.yul\":20034:21337   */\n      pop\n      pop\n      pop\n        /* \"#utility.yul\":19942:21337   */\n      pop\n      pop\n      jump\t// out\n        /* \"#utility.yul\":21343:21509   */\n    tag_256:\n        /* \"#utility.yul\":21483:21501   */\n      0x4e6f7420656e6f7567682066756e647300000000000000000000000000000000\n        /* \"#utility.yul\":21479:21480   */\n      0x00\n        /* \"#utility.yul\":21471:21477   */\n      dup3\n        /* \"#utility.yul\":21467:21481   */\n      add\n        /* \"#utility.yul\":21460:21502   */\n      mstore\n        /* \"#utility.yul\":21343:21509   */\n      pop\n      jump\t// out\n        /* \"#utility.yul\":21515:21881   */\n    tag_257:\n        /* \"#utility.yul\":21657:21660   */\n      0x00\n        /* \"#utility.yul\":21678:21745   */\n      tag_474\n        /* \"#utility.yul\":21742:21744   */\n      0x10\n        /* \"#utility.yul\":21737:21740   */\n      dup4\n        /* \"#utility.yul\":21678:21745   */\n      tag_220\n      jump\t// in\n    tag_474:\n        /* \"#utility.yul\":21671:21745   */\n      swap2\n      pop\n        /* \"#utility.yul\":21754:21847   */\n      tag_475\n        /* \"#utility.yul\":21843:21846   */\n      dup3\n        /* \"#utility.yul\":21754:21847   */\n      tag_256\n      jump\t// in\n    tag_475:\n        /* \"#utility.yul\":21872:21874   */\n      0x20\n        /* \"#utility.yul\":21867:21870   */\n      dup3\n        /* \"#utility.yul\":21863:21875   */\n      add\n        /* \"#utility.yul\":21856:21875   */\n      swap1\n      pop\n        /* \"#utility.yul\":21515:21881   */\n      swap2\n      swap1\n      pop\n      jump\t// out\n        /* \"#utility.yul\":21887:22306   */\n    tag_142:\n        /* \"#utility.yul\":22053:22057   */\n      0x00\n        /* \"#utility.yul\":22091:22093   */\n      0x20\n        /* \"#utility.yul\":22080:22089   */\n      dup3\n        /* \"#utility.yul\":22076:22094   */\n      add\n        /* \"#utility.yul\":22068:22094   */\n      swap1\n      pop\n        /* \"#utility.yul\":22140:22149   */\n      dup2\n        /* \"#utility.yul\":22134:22138   */\n      dup2\n        /* \"#utility.yul\":22130:22150   */\n      sub\n        /* \"#utility.yul\":22126:22127   */\n      0x00\n        /* \"#utility.yul\":22115:22124   */\n      dup4\n        /* \"#utility.yul\":22111:22128   */\n      add\n        /* \"#utility.yul\":22104:22151   */\n      mstore\n        /* \"#utility.yul\":22168:22299   */\n      tag_477\n        /* \"#utility.yul\":22294:22298   */\n      dup2\n        /* \"#utility.yul\":22168:22299   */\n      tag_257\n      jump\t// in\n    tag_477:\n        /* \"#utility.yul\":22160:22299   */\n      swap1\n      pop\n        /* \"#utility.yul\":21887:22306   */\n      swap2\n      swap1\n      pop\n      jump\t// out\n        /* \"#utility.yul\":22312:22482   */\n    tag_258:\n        /* \"#utility.yul\":22452:22474   */\n      0x4e6f2076616c6964206372656469742063617264000000000000000000000000\n        /* \"#utility.yul\":22448:22449   */\n      0x00\n        /* \"#utility.yul\":22440:22446   */\n      dup3\n        /* \"#utility.yul\":22436:22450   */\n      add\n        /* \"#utility.yul\":22429:22475   */\n      mstore\n        /* \"#utility.yul\":22312:22482   */\n      pop\n      jump\t// out\n        /* \"#utility.yul\":22488:22854   */\n    tag_259:\n        /* \"#utility.yul\":22630:22633   */\n      0x00\n        /* \"#utility.yul\":22651:22718   */\n      tag_480\n        /* \"#utility.yul\":22715:22717   */\n      0x14\n        /* \"#utility.yul\":22710:22713   */\n      dup4\n        /* \"#utility.yul\":22651:22718   */\n      tag_220\n      jump\t// in\n    tag_480:\n        /* \"#utility.yul\":22644:22718   */\n      swap2\n      pop\n        /* \"#utility.yul\":22727:22820   */\n      tag_481\n        /* \"#utility.yul\":22816:22819   */\n      dup3\n        /* \"#utility.yul\":22727:22820   */\n      tag_258\n      jump\t// in\n    tag_481:\n        /* \"#utility.yul\":22845:22847   */\n      0x20\n        /* \"#utility.yul\":22840:22843   */\n      dup3\n        /* \"#utility.yul\":22836:22848   */\n      add\n        /* \"#utility.yul\":22829:22848   */\n      swap1\n      pop\n        /* \"#utility.yul\":22488:22854   */\n      swap2\n      swap1\n      pop\n      jump\t// out\n        /* \"#utility.yul\":22860:23279   */\n    tag_156:\n        /* \"#utility.yul\":23026:23030   */\n      0x00\n        /* \"#utility.yul\":23064:23066   */\n      0x20\n        /* \"#utility.yul\":23053:23062   */\n      dup3\n        /* \"#utility.yul\":23049:23067   */\n      add\n        /* \"#utility.yul\":23041:23067   */\n      swap1\n      pop\n        /* \"#utility.yul\":23113:23122   */\n      dup2\n        /* \"#utility.yul\":23107:23111   */\n      dup2\n        /* \"#utility.yul\":23103:23123   */\n      sub\n        /* \"#utility.yul\":23099:23100   */\n      0x00\n        /* \"#utility.yul\":23088:23097   */\n      dup4\n        /* \"#utility.yul\":23084:23101   */\n      add\n        /* \"#utility.yul\":23077:23124   */\n      mstore\n        /* \"#utility.yul\":23141:23272   */\n      tag_483\n        /* \"#utility.yul\":23267:23271   */\n      dup2\n        /* \"#utility.yul\":23141:23272   */\n      tag_259\n      jump\t// in\n    tag_483:\n        /* \"#utility.yul\":23133:23272   */\n      swap1\n      pop\n        /* \"#utility.yul\":22860:23279   */\n      swap2\n      swap1\n      pop\n      jump\t// out\n        /* \"#utility.yul\":23285:23518   */\n    tag_191:\n        /* \"#utility.yul\":23324:23327   */\n      0x00\n        /* \"#utility.yul\":23347:23371   */\n      tag_485\n        /* \"#utility.yul\":23365:23370   */\n      dup3\n        /* \"#utility.yul\":23347:23371   */\n      tag_198\n      jump\t// in\n    tag_485:\n        /* \"#utility.yul\":23338:23371   */\n      swap2\n      pop\n        /* \"#utility.yul\":23393:23459   */\n      0xffffffffffffffffffffffffffffffffffffffffffffffffffffffffffffffff\n        /* \"#utility.yul\":23386:23391   */\n      dup3\n        /* \"#utility.yul\":23383:23460   */\n      sub\n        /* \"#utility.yul\":23380:23483   */\n      tag_486\n      jumpi\n        /* \"#utility.yul\":23463:23481   */\n      tag_487\n      tag_237\n      jump\t// in\n    tag_487:\n        /* \"#utility.yul\":23380:23483   */\n    tag_486:\n        /* \"#utility.yul\":23510:23511   */\n      0x01\n        /* \"#utility.yul\":23503:23508   */\n      dup3\n        /* \"#utility.yul\":23499:23512   */\n      add\n        /* \"#utility.yul\":23492:23512   */\n      swap1\n      pop\n        /* \"#utility.yul\":23285:23518   */\n      swap2\n      swap1\n      pop\n      jump\t// out\n\n    auxdata: 0xa264697066735822122050d6c185e66b27bffd626b4328818016e401ba347d1fd12f97248a1621f2cfc164736f6c63430008100033\n}\n",
				"bytecode": {
					"linkReferences": {},
					"object": "608060405260006002556000600b556000600c60006101000a81548160ff0219169083151502179055503480156200003657600080fd5b5060405162001df038038062001df083398181016040528101906200005c9190620000aa565b8060048190555050620000dc565b600080fd5b6000819050919050565b62000084816200006f565b81146200009057600080fd5b50565b600081519050620000a48162000079565b92915050565b600060208284031215620000c357620000c26200006a565b5b6000620000d38482850162000093565b91505092915050565b611d0480620000ec6000396000f3fe608060405234801561001057600080fd5b50600436106101375760003560e01c8063557ed1ba116100b85780638e029c0b1161007c5780638e029c0b146103365780638fa1186414610340578063aa8c217c1461035e578063e21f37ce1461037c578063f4b30eaf1461039a578063f7e03fd8146103ca57610137565b8063557ed1ba1461028b57806357bf72e3146102a95780637b9a3f4c146102dc5780637eb9f571146102fa57806383920e901461031857610137565b806324ba506d116100ff57806324ba506d146101e35780633c626f001461020157806342fb79361461021f5780634b28f9a21461023d578063548769211461025b57610137565b806304ef5b211461013c578063062a75441461016f5780630e85fa721461018b57806312065fe0146101a957806312a029a4146101c7575b600080fd5b61015660048036038101906101519190611134565b6103e8565b60405161016694939291906111b1565b60405180910390f35b61018960048036038101906101849190611222565b610468565b005b6101936107ac565b6040516101a09190611262565b60405180910390f35b6101b16107b2565b6040516101be9190611262565b60405180910390f35b6101e160048036038101906101dc91906113c3565b6107c7565b005b6101eb610878565b6040516101f89190611262565b60405180910390f35b610209610882565b6040516102169190611456565b60405180910390f35b610227610895565b60405161023491906114f0565b60405180910390f35b610245610923565b6040516102529190611262565b60405180910390f35b61027560048036038101906102709190611134565b610929565b6040516102829190611262565b60405180910390f35b610293610955565b6040516102a09190611262565b60405180910390f35b6102c360048036038101906102be9190611134565b61095d565b6040516102d394939291906111b1565b60405180910390f35b6102e46109cd565b6040516102f19190611262565b60405180910390f35b6103026109d3565b60405161030f9190611262565b60405180910390f35b6103206109d9565b60405161032d9190611634565b60405180910390f35b61033e610af8565b005b610348610b15565b60405161035591906114f0565b60405180910390f35b610366610ba3565b6040516103739190611262565b60405180910390f35b610384610ba9565b60405161039191906114f0565b60405180910390f35b6103b460048036038101906103af9190611134565b610c37565b6040516103c191906116ab565b60405180910390f35b6103d2610d24565b6040516103df91906116ab565b60405180910390f35b600081815481106103f857600080fd5b90600052602060002090600402016000915090508060000160009054906101000a900473ffffffffffffffffffffffffffffffffffffffff16908060010160009054906101000a900473ffffffffffffffffffffffffffffffffffffffff16908060020154908060030154905084565b8080600560006101000a81548173ffffffffffffffffffffffffffffffffffffffff021916908373ffffffffffffffffffffffffffffffffffffffff160217905550600073ffffffffffffffffffffffffffffffffffffffff168173ffffffffffffffffffffffffffffffffffffffff1603610519576040517f08c379a000000000000000000000000000000000000000000000000000000000815260040161051090611712565b60405180910390fd5b60001515600c60009054906101000a900460ff1615150361056f576040517f08c379a00000000000000000000000000000000000000000000000000000000081526004016105669061177e565b60405180910390fd5b6005600b54101580156105905750601e600a5461058c91906117cd565b4211155b156105eb576000600b819055506000600b54146105b0576105af611801565b5b6040517f08c379a00000000000000000000000000000000000000000000000000000000081526004016105e29061187c565b60405180910390fd5b6005600b541115801561060c5750601e600a5461060891906117cd565b4210155b15610634576000600b819055506000600b541461062c5761062b611801565b5b42600a819055505b81600560006101000a81548173ffffffffffffffffffffffffffffffffffffffff021916908373ffffffffffffffffffffffffffffffffffffffff160217905550826003819055506001600b600082825461068f91906117cd565b9250508190555060006004541180156106ab5750600354600454115b1561076c57600354600460008282546106c4919061189c565b92505081905550600354600960008282546106df91906117cd565b9250508190555061071633600560009054906101000a900473ffffffffffffffffffffffffffffffffffffffff1660035442610e26565b610721600354611021565b506040518060400160405280601281526020017f5472616e7366657220636f6d706c657465640000000000000000000000000000815250600690816107669190611adc565b506107a7565b6040517f08c379a000000000000000000000000000000000000000000000000000000000815260040161079e90611bfa565b60405180910390fd5b505050565b600a5481565b60006107bc61105f565b806000015191505090565b81600790816107d69190611adc565b5080600890816107e69190611adc565b506001600c60006101000a81548160ff02191690831515021790555042600a81905550600860078054610818906118ff565b90501480156108355750600360088054610831906118ff565b9050145b610874576040517f08c379a000000000000000000000000000000000000000000000000000000000815260040161086b90611c66565b60405180910390fd5b5050565b6000600254905090565b600c60009054906101000a900460ff1681565b600880546108a2906118ff565b80601f01602080910402602001604051908101604052809291908181526020018280546108ce906118ff565b801561091b5780601f106108f05761010080835404028352916020019161091b565b820191906000526020600020905b8154815290600101906020018083116108fe57829003601f168201915b505050505081565b600b5481565b600061093361105f565b828160000151610943919061189c565b81600001818152505082915050919050565b600042905090565b60016020528060005260406000206000915090508060000160009054906101000a900473ffffffffffffffffffffffffffffffffffffffff16908060010160009054906101000a900473ffffffffffffffffffffffffffffffffffffffff16908060020154908060030154905084565b60045481565b60095481565b60606000805480602002602001604051908101604052809291908181526020016000905b82821015610aef57838290600052602060002090600402016040518060800160405290816000820160009054906101000a900473ffffffffffffffffffffffffffffffffffffffff1673ffffffffffffffffffffffffffffffffffffffff1673ffffffffffffffffffffffffffffffffffffffff1681526020016001820160009054906101000a900473ffffffffffffffffffffffffffffffffffffffff1673ffffffffffffffffffffffffffffffffffffffff1673ffffffffffffffffffffffffffffffffffffffff16815260200160028201548152602001600382015481525050815260200190600101906109fd565b50505050905090565b6000600c60006101000a81548160ff021916908315150217905550565b60078054610b22906118ff565b80601f0160208091040260200160405190810160405280929190818152602001828054610b4e906118ff565b8015610b9b5780601f10610b7057610100808354040283529160200191610b9b565b820191906000526020600020905b815481529060010190602001808311610b7e57829003601f168201915b505050505081565b60035481565b60068054610bb6906118ff565b80601f0160208091040260200160405190810160405280929190818152602001828054610be2906118ff565b8015610c2f5780601f10610c0457610100808354040283529160200191610c2f565b820191906000526020600020905b815481529060010190602001808311610c1257829003601f168201915b505050505081565b610c3f611096565b600160008381526020019081526020016000206040518060800160405290816000820160009054906101000a900473ffffffffffffffffffffffffffffffffffffffff1673ffffffffffffffffffffffffffffffffffffffff1673ffffffffffffffffffffffffffffffffffffffff1681526020016001820160009054906101000a900473ffffffffffffffffffffffffffffffffffffffff1673ffffffffffffffffffffffffffffffffffffffff1673ffffffffffffffffffffffffffffffffffffffff168152602001600282015481526020016003820154815250509050919050565b610d2c611096565b60006001600080549050610d40919061189c565b9050600160008281526020019081526020016000206040518060800160405290816000820160009054906101000a900473ffffffffffffffffffffffffffffffffffffffff1673ffffffffffffffffffffffffffffffffffffffff1673ffffffffffffffffffffffffffffffffffffffff1681526020016001820160009054906101000a900473ffffffffffffffffffffffffffffffffffffffff1673ffffffffffffffffffffffffffffffffffffffff1673ffffffffffffffffffffffffffffffffffffffff1681526020016002820154815260200160038201548152505091505090565b600060405180608001604052808673ffffffffffffffffffffffffffffffffffffffff1681526020018573ffffffffffffffffffffffffffffffffffffffff168152602001848152602001838152509050600081908060018154018082558091505060019003906000526020600020906004020160009091909190915060008201518160000160006101000a81548173ffffffffffffffffffffffffffffffffffffffff021916908373ffffffffffffffffffffffffffffffffffffffff16021790555060208201518160010160006101000a81548173ffffffffffffffffffffffffffffffffffffffff021916908373ffffffffffffffffffffffffffffffffffffffff160217905550604082015181600201556060820151816003015550508060016000600254815260200190815260200160002060008201518160000160006101000a81548173ffffffffffffffffffffffffffffffffffffffff021916908373ffffffffffffffffffffffffffffffffffffffff16021790555060208201518160010160006101000a81548173ffffffffffffffffffffffffffffffffffffffff021916908373ffffffffffffffffffffffffffffffffffffffff16021790555060408201518160020155606082015181600301559050506002600081548092919061101590611c86565b91905055505050505050565b600061102b61105f565b8281602001818152505080602001518160000181815161104b91906117cd565b915081815250508060200151915050919050565b60405180606001604052806000815260200160008152602001600073ffffffffffffffffffffffffffffffffffffffff1681525090565b6040518060800160405280600073ffffffffffffffffffffffffffffffffffffffff168152602001600073ffffffffffffffffffffffffffffffffffffffff16815260200160008152602001600081525090565b6000604051905090565b600080fd5b600080fd5b6000819050919050565b611111816110fe565b811461111c57600080fd5b50565b60008135905061112e81611108565b92915050565b60006020828403121561114a576111496110f4565b5b60006111588482850161111f565b91505092915050565b600073ffffffffffffffffffffffffffffffffffffffff82169050919050565b600061118c82611161565b9050919050565b61119c81611181565b82525050565b6111ab816110fe565b82525050565b60006080820190506111c66000830187611193565b6111d36020830186611193565b6111e060408301856111a2565b6111ed60608301846111a2565b95945050505050565b6111ff81611181565b811461120a57600080fd5b50565b60008135905061121c816111f6565b92915050565b60008060408385031215611239576112386110f4565b5b60006112478582860161111f565b92505060206112588582860161120d565b9150509250929050565b600060208201905061127760008301846111a2565b92915050565b600080fd5b600080fd5b6000601f19601f8301169050919050565b7f4e487b7100000000000000000000000000000000000000000000000000000000600052604160045260246000fd5b6112d082611287565b810181811067ffffffffffffffff821117156112ef576112ee611298565b5b80604052505050565b60006113026110ea565b905061130e82826112c7565b919050565b600067ffffffffffffffff82111561132e5761132d611298565b5b61133782611287565b9050602081019050919050565b82818337600083830152505050565b600061136661136184611313565b6112f8565b90508281526020810184848401111561138257611381611282565b5b61138d848285611344565b509392505050565b600082601f8301126113aa576113a961127d565b5b81356113ba848260208601611353565b91505092915050565b600080604083850312156113da576113d96110f4565b5b600083013567ffffffffffffffff8111156113f8576113f76110f9565b5b61140485828601611395565b925050602083013567ffffffffffffffff811115611425576114246110f9565b5b61143185828601611395565b9150509250929050565b60008115159050919050565b6114508161143b565b82525050565b600060208201905061146b6000830184611447565b92915050565b600081519050919050565b600082825260208201905092915050565b60005b838110156114ab578082015181840152602081019050611490565b60008484015250505050565b60006114c282611471565b6114cc818561147c565b93506114dc81856020860161148d565b6114e581611287565b840191505092915050565b6000602082019050818103600083015261150a81846114b7565b905092915050565b600081519050919050565b600082825260208201905092915050565b6000819050602082019050919050565b61154781611181565b82525050565b611556816110fe565b82525050565b608082016000820151611572600085018261153e565b506020820151611585602085018261153e565b506040820151611598604085018261154d565b5060608201516115ab606085018261154d565b50505050565b60006115bd838361155c565b60808301905092915050565b6000602082019050919050565b60006115e182611512565b6115eb818561151d565b93506115f68361152e565b8060005b8381101561162757815161160e88826115b1565b9750611619836115c9565b9250506001810190506115fa565b5085935050505092915050565b6000602082019050818103600083015261164e81846115d6565b905092915050565b60808201600082015161166c600085018261153e565b50602082015161167f602085018261153e565b506040820151611692604085018261154d565b5060608201516116a5606085018261154d565b50505050565b60006080820190506116c06000830184611656565b92915050565b7f54686973206164647265737320646f65736e2774206578697374730000000000600082015250565b60006116fc601b8361147c565b9150611707826116c6565b602082019050919050565b6000602082019050818103600083015261172b816116ef565b9050919050565b7f506c6561736520696e7365727420796f75722063617264000000000000000000600082015250565b600061176860178361147c565b915061177382611732565b602082019050919050565b600060208201905081810360008301526117978161175b565b9050919050565b7f4e487b7100000000000000000000000000000000000000000000000000000000600052601160045260246000fd5b60006117d8826110fe565b91506117e3836110fe565b92508282019050808211156117fb576117fa61179e565b5b92915050565b7f4e487b7100000000000000000000000000000000000000000000000000000000600052600160045260246000fd5b7f6f6e6c792035207472616e73616374696f6e7320706572206461790000000000600082015250565b6000611866601b8361147c565b915061187182611830565b602082019050919050565b6000602082019050818103600083015261189581611859565b9050919050565b60006118a7826110fe565b91506118b2836110fe565b92508282039050818111156118ca576118c961179e565b5b92915050565b7f4e487b7100000000000000000000000000000000000000000000000000000000600052602260045260246000fd5b6000600282049050600182168061191757607f821691505b60208210810361192a576119296118d0565b5b50919050565b60008190508160005260206000209050919050565b60006020601f8301049050919050565b600082821b905092915050565b6000600883026119927fffffffffffffffffffffffffffffffffffffffffffffffffffffffffffffffff82611955565b61199c8683611955565b95508019841693508086168417925050509392505050565b6000819050919050565b60006119d96119d46119cf846110fe565b6119b4565b6110fe565b9050919050565b6000819050919050565b6119f3836119be565b611a076119ff826119e0565b848454611962565b825550505050565b600090565b611a1c611a0f565b611a278184846119ea565b505050565b5b81811015611a4b57611a40600082611a14565b600181019050611a2d565b5050565b601f821115611a9057611a6181611930565b611a6a84611945565b81016020851015611a79578190505b611a8d611a8585611945565b830182611a2c565b50505b505050565b600082821c905092915050565b6000611ab360001984600802611a95565b1980831691505092915050565b6000611acc8383611aa2565b9150826002028217905092915050565b611ae582611471565b67ffffffffffffffff811115611afe57611afd611298565b5b611b0882546118ff565b611b13828285611a4f565b600060209050601f831160018114611b465760008415611b34578287015190505b611b3e8582611ac0565b865550611ba6565b601f198416611b5486611930565b60005b82811015611b7c57848901518255600182019150602085019450602081019050611b57565b86831015611b995784890151611b95601f891682611aa2565b8355505b6001600288020188555050505b505050505050565b7f4e6f7420656e6f7567682066756e647300000000000000000000000000000000600082015250565b6000611be460108361147c565b9150611bef82611bae565b602082019050919050565b60006020820190508181036000830152611c1381611bd7565b9050919050565b7f4e6f2076616c6964206372656469742063617264000000000000000000000000600082015250565b6000611c5060148361147c565b9150611c5b82611c1a565b602082019050919050565b60006020820190508181036000830152611c7f81611c43565b9050919050565b6000611c91826110fe565b91507fffffffffffffffffffffffffffffffffffffffffffffffffffffffffffffffff8203611cc357611cc261179e565b5b60018201905091905056fea264697066735822122050d6c185e66b27bffd626b4328818016e401ba347d1fd12f97248a1621f2cfc164736f6c63430008100033",
					"opcodes": "PUSH1 0x80 PUSH1 0x40 MSTORE PUSH1 0x0 PUSH1 0x2 SSTORE PUSH1 0x0 PUSH1 0xB SSTORE PUSH1 0x0 PUSH1 0xC PUSH1 0x0 PUSH2 0x100 EXP DUP2 SLOAD DUP2 PUSH1 0xFF MUL NOT AND SWAP1 DUP4 ISZERO ISZERO MUL OR SWAP1 SSTORE POP CALLVALUE DUP1 ISZERO PUSH3 0x36 JUMPI PUSH1 0x0 DUP1 REVERT JUMPDEST POP PUSH1 0x40 MLOAD PUSH3 0x1DF0 CODESIZE SUB DUP1 PUSH3 0x1DF0 DUP4 CODECOPY DUP2 DUP2 ADD PUSH1 0x40 MSTORE DUP2 ADD SWAP1 PUSH3 0x5C SWAP2 SWAP1 PUSH3 0xAA JUMP JUMPDEST DUP1 PUSH1 0x4 DUP2 SWAP1 SSTORE POP POP PUSH3 0xDC JUMP JUMPDEST PUSH1 0x0 DUP1 REVERT JUMPDEST PUSH1 0x0 DUP2 SWAP1 POP SWAP2 SWAP1 POP JUMP JUMPDEST PUSH3 0x84 DUP2 PUSH3 0x6F JUMP JUMPDEST DUP2 EQ PUSH3 0x90 JUMPI PUSH1 0x0 DUP1 REVERT JUMPDEST POP JUMP JUMPDEST PUSH1 0x0 DUP2 MLOAD SWAP1 POP PUSH3 0xA4 DUP2 PUSH3 0x79 JUMP JUMPDEST SWAP3 SWAP2 POP POP JUMP JUMPDEST PUSH1 0x0 PUSH1 0x20 DUP3 DUP5 SUB SLT ISZERO PUSH3 0xC3 JUMPI PUSH3 0xC2 PUSH3 0x6A JUMP JUMPDEST JUMPDEST PUSH1 0x0 PUSH3 0xD3 DUP5 DUP3 DUP6 ADD PUSH3 0x93 JUMP JUMPDEST SWAP2 POP POP SWAP3 SWAP2 POP POP JUMP JUMPDEST PUSH2 0x1D04 DUP1 PUSH3 0xEC PUSH1 0x0 CODECOPY PUSH1 0x0 RETURN INVALID PUSH1 0x80 PUSH1 0x40 MSTORE CALLVALUE DUP1 ISZERO PUSH2 0x10 JUMPI PUSH1 0x0 DUP1 REVERT JUMPDEST POP PUSH1 0x4 CALLDATASIZE LT PUSH2 0x137 JUMPI PUSH1 0x0 CALLDATALOAD PUSH1 0xE0 SHR DUP1 PUSH4 0x557ED1BA GT PUSH2 0xB8 JUMPI DUP1 PUSH4 0x8E029C0B GT PUSH2 0x7C JUMPI DUP1 PUSH4 0x8E029C0B EQ PUSH2 0x336 JUMPI DUP1 PUSH4 0x8FA11864 EQ PUSH2 0x340 JUMPI DUP1 PUSH4 0xAA8C217C EQ PUSH2 0x35E JUMPI DUP1 PUSH4 0xE21F37CE EQ PUSH2 0x37C JUMPI DUP1 PUSH4 0xF4B30EAF EQ PUSH2 0x39A JUMPI DUP1 PUSH4 0xF7E03FD8 EQ PUSH2 0x3CA JUMPI PUSH2 0x137 JUMP JUMPDEST DUP1 PUSH4 0x557ED1BA EQ PUSH2 0x28B JUMPI DUP1 PUSH4 0x57BF72E3 EQ PUSH2 0x2A9 JUMPI DUP1 PUSH4 0x7B9A3F4C EQ PUSH2 0x2DC JUMPI DUP1 PUSH4 0x7EB9F571 EQ PUSH2 0x2FA JUMPI DUP1 PUSH4 0x83920E90 EQ PUSH2 0x318 JUMPI PUSH2 0x137 JUMP JUMPDEST DUP1 PUSH4 0x24BA506D GT PUSH2 0xFF JUMPI DUP1 PUSH4 0x24BA506D EQ PUSH2 0x1E3 JUMPI DUP1 PUSH4 0x3C626F00 EQ PUSH2 0x201 JUMPI DUP1 PUSH4 0x42FB7936 EQ PUSH2 0x21F JUMPI DUP1 PUSH4 0x4B28F9A2 EQ PUSH2 0x23D JUMPI DUP1 PUSH4 0x54876921 EQ PUSH2 0x25B JUMPI PUSH2 0x137 JUMP JUMPDEST DUP1 PUSH4 0x4EF5B21 EQ PUSH2 0x13C JUMPI DUP1 PUSH4 0x62A7544 EQ PUSH2 0x16F JUMPI DUP1 PUSH4 0xE85FA72 EQ PUSH2 0x18B JUMPI DUP1 PUSH4 0x12065FE0 EQ PUSH2 0x1A9 JUMPI DUP1 PUSH4 0x12A029A4 EQ PUSH2 0x1C7 JUMPI JUMPDEST PUSH1 0x0 DUP1 REVERT JUMPDEST PUSH2 0x156 PUSH1 0x4 DUP1 CALLDATASIZE SUB DUP2 ADD SWAP1 PUSH2 0x151 SWAP2 SWAP1 PUSH2 0x1134 JUMP JUMPDEST PUSH2 0x3E8 JUMP JUMPDEST PUSH1 0x40 MLOAD PUSH2 0x166 SWAP5 SWAP4 SWAP3 SWAP2 SWAP1 PUSH2 0x11B1 JUMP JUMPDEST PUSH1 0x40 MLOAD DUP1 SWAP2 SUB SWAP1 RETURN JUMPDEST PUSH2 0x189 PUSH1 0x4 DUP1 CALLDATASIZE SUB DUP2 ADD SWAP1 PUSH2 0x184 SWAP2 SWAP1 PUSH2 0x1222 JUMP JUMPDEST PUSH2 0x468 JUMP JUMPDEST STOP JUMPDEST PUSH2 0x193 PUSH2 0x7AC JUMP JUMPDEST PUSH1 0x40 MLOAD PUSH2 0x1A0 SWAP2 SWAP1 PUSH2 0x1262 JUMP JUMPDEST PUSH1 0x40 MLOAD DUP1 SWAP2 SUB SWAP1 RETURN JUMPDEST PUSH2 0x1B1 PUSH2 0x7B2 JUMP JUMPDEST PUSH1 0x40 MLOAD PUSH2 0x1BE SWAP2 SWAP1 PUSH2 0x1262 JUMP JUMPDEST PUSH1 0x40 MLOAD DUP1 SWAP2 SUB SWAP1 RETURN JUMPDEST PUSH2 0x1E1 PUSH1 0x4 DUP1 CALLDATASIZE SUB DUP2 ADD SWAP1 PUSH2 0x1DC SWAP2 SWAP1 PUSH2 0x13C3 JUMP JUMPDEST PUSH2 0x7C7 JUMP JUMPDEST STOP JUMPDEST PUSH2 0x1EB PUSH2 0x878 JUMP JUMPDEST PUSH1 0x40 MLOAD PUSH2 0x1F8 SWAP2 SWAP1 PUSH2 0x1262 JUMP JUMPDEST PUSH1 0x40 MLOAD DUP1 SWAP2 SUB SWAP1 RETURN JUMPDEST PUSH2 0x209 PUSH2 0x882 JUMP JUMPDEST PUSH1 0x40 MLOAD PUSH2 0x216 SWAP2 SWAP1 PUSH2 0x1456 JUMP JUMPDEST PUSH1 0x40 MLOAD DUP1 SWAP2 SUB SWAP1 RETURN JUMPDEST PUSH2 0x227 PUSH2 0x895 JUMP JUMPDEST PUSH1 0x40 MLOAD PUSH2 0x234 SWAP2 SWAP1 PUSH2 0x14F0 JUMP JUMPDEST PUSH1 0x40 MLOAD DUP1 SWAP2 SUB SWAP1 RETURN JUMPDEST PUSH2 0x245 PUSH2 0x923 JUMP JUMPDEST PUSH1 0x40 MLOAD PUSH2 0x252 SWAP2 SWAP1 PUSH2 0x1262 JUMP JUMPDEST PUSH1 0x40 MLOAD DUP1 SWAP2 SUB SWAP1 RETURN JUMPDEST PUSH2 0x275 PUSH1 0x4 DUP1 CALLDATASIZE SUB DUP2 ADD SWAP1 PUSH2 0x270 SWAP2 SWAP1 PUSH2 0x1134 JUMP JUMPDEST PUSH2 0x929 JUMP JUMPDEST PUSH1 0x40 MLOAD PUSH2 0x282 SWAP2 SWAP1 PUSH2 0x1262 JUMP JUMPDEST PUSH1 0x40 MLOAD DUP1 SWAP2 SUB SWAP1 RETURN JUMPDEST PUSH2 0x293 PUSH2 0x955 JUMP JUMPDEST PUSH1 0x40 MLOAD PUSH2 0x2A0 SWAP2 SWAP1 PUSH2 0x1262 JUMP JUMPDEST PUSH1 0x40 MLOAD DUP1 SWAP2 SUB SWAP1 RETURN JUMPDEST PUSH2 0x2C3 PUSH1 0x4 DUP1 CALLDATASIZE SUB DUP2 ADD SWAP1 PUSH2 0x2BE SWAP2 SWAP1 PUSH2 0x1134 JUMP JUMPDEST PUSH2 0x95D JUMP JUMPDEST PUSH1 0x40 MLOAD PUSH2 0x2D3 SWAP5 SWAP4 SWAP3 SWAP2 SWAP1 PUSH2 0x11B1 JUMP JUMPDEST PUSH1 0x40 MLOAD DUP1 SWAP2 SUB SWAP1 RETURN JUMPDEST PUSH2 0x2E4 PUSH2 0x9CD JUMP JUMPDEST PUSH1 0x40 MLOAD PUSH2 0x2F1 SWAP2 SWAP1 PUSH2 0x1262 JUMP JUMPDEST PUSH1 0x40 MLOAD DUP1 SWAP2 SUB SWAP1 RETURN JUMPDEST PUSH2 0x302 PUSH2 0x9D3 JUMP JUMPDEST PUSH1 0x40 MLOAD PUSH2 0x30F SWAP2 SWAP1 PUSH2 0x1262 JUMP JUMPDEST PUSH1 0x40 MLOAD DUP1 SWAP2 SUB SWAP1 RETURN JUMPDEST PUSH2 0x320 PUSH2 0x9D9 JUMP JUMPDEST PUSH1 0x40 MLOAD PUSH2 0x32D SWAP2 SWAP1 PUSH2 0x1634 JUMP JUMPDEST PUSH1 0x40 MLOAD DUP1 SWAP2 SUB SWAP1 RETURN JUMPDEST PUSH2 0x33E PUSH2 0xAF8 JUMP JUMPDEST STOP JUMPDEST PUSH2 0x348 PUSH2 0xB15 JUMP JUMPDEST PUSH1 0x40 MLOAD PUSH2 0x355 SWAP2 SWAP1 PUSH2 0x14F0 JUMP JUMPDEST PUSH1 0x40 MLOAD DUP1 SWAP2 SUB SWAP1 RETURN JUMPDEST PUSH2 0x366 PUSH2 0xBA3 JUMP JUMPDEST PUSH1 0x40 MLOAD PUSH2 0x373 SWAP2 SWAP1 PUSH2 0x1262 JUMP JUMPDEST PUSH1 0x40 MLOAD DUP1 SWAP2 SUB SWAP1 RETURN JUMPDEST PUSH2 0x384 PUSH2 0xBA9 JUMP JUMPDEST PUSH1 0x40 MLOAD PUSH2 0x391 SWAP2 SWAP1 PUSH2 0x14F0 JUMP JUMPDEST PUSH1 0x40 MLOAD DUP1 SWAP2 SUB SWAP1 RETURN JUMPDEST PUSH2 0x3B4 PUSH1 0x4 DUP1 CALLDATASIZE SUB DUP2 ADD SWAP1 PUSH2 0x3AF SWAP2 SWAP1 PUSH2 0x1134 JUMP JUMPDEST PUSH2 0xC37 JUMP JUMPDEST PUSH1 0x40 MLOAD PUSH2 0x3C1 SWAP2 SWAP1 PUSH2 0x16AB JUMP JUMPDEST PUSH1 0x40 MLOAD DUP1 SWAP2 SUB SWAP1 RETURN JUMPDEST PUSH2 0x3D2 PUSH2 0xD24 JUMP JUMPDEST PUSH1 0x40 MLOAD PUSH2 0x3DF SWAP2 SWAP1 PUSH2 0x16AB JUMP JUMPDEST PUSH1 0x40 MLOAD DUP1 SWAP2 SUB SWAP1 RETURN JUMPDEST PUSH1 0x0 DUP2 DUP2 SLOAD DUP2 LT PUSH2 0x3F8 JUMPI PUSH1 0x0 DUP1 REVERT JUMPDEST SWAP1 PUSH1 0x0 MSTORE PUSH1 0x20 PUSH1 0x0 KECCAK256 SWAP1 PUSH1 0x4 MUL ADD PUSH1 0x0 SWAP2 POP SWAP1 POP DUP1 PUSH1 0x0 ADD PUSH1 0x0 SWAP1 SLOAD SWAP1 PUSH2 0x100 EXP SWAP1 DIV PUSH20 0xFFFFFFFFFFFFFFFFFFFFFFFFFFFFFFFFFFFFFFFF AND SWAP1 DUP1 PUSH1 0x1 ADD PUSH1 0x0 SWAP1 SLOAD SWAP1 PUSH2 0x100 EXP SWAP1 DIV PUSH20 0xFFFFFFFFFFFFFFFFFFFFFFFFFFFFFFFFFFFFFFFF AND SWAP1 DUP1 PUSH1 0x2 ADD SLOAD SWAP1 DUP1 PUSH1 0x3 ADD SLOAD SWAP1 POP DUP5 JUMP JUMPDEST DUP1 DUP1 PUSH1 0x5 PUSH1 0x0 PUSH2 0x100 EXP DUP2 SLOAD DUP2 PUSH20 0xFFFFFFFFFFFFFFFFFFFFFFFFFFFFFFFFFFFFFFFF MUL NOT AND SWAP1 DUP4 PUSH20 0xFFFFFFFFFFFFFFFFFFFFFFFFFFFFFFFFFFFFFFFF AND MUL OR SWAP1 SSTORE POP PUSH1 0x0 PUSH20 0xFFFFFFFFFFFFFFFFFFFFFFFFFFFFFFFFFFFFFFFF AND DUP2 PUSH20 0xFFFFFFFFFFFFFFFFFFFFFFFFFFFFFFFFFFFFFFFF AND SUB PUSH2 0x519 JUMPI PUSH1 0x40 MLOAD PUSH32 0x8C379A000000000000000000000000000000000000000000000000000000000 DUP2 MSTORE PUSH1 0x4 ADD PUSH2 0x510 SWAP1 PUSH2 0x1712 JUMP JUMPDEST PUSH1 0x40 MLOAD DUP1 SWAP2 SUB SWAP1 REVERT JUMPDEST PUSH1 0x0 ISZERO ISZERO PUSH1 0xC PUSH1 0x0 SWAP1 SLOAD SWAP1 PUSH2 0x100 EXP SWAP1 DIV PUSH1 0xFF AND ISZERO ISZERO SUB PUSH2 0x56F JUMPI PUSH1 0x40 MLOAD PUSH32 0x8C379A000000000000000000000000000000000000000000000000000000000 DUP2 MSTORE PUSH1 0x4 ADD PUSH2 0x566 SWAP1 PUSH2 0x177E JUMP JUMPDEST PUSH1 0x40 MLOAD DUP1 SWAP2 SUB SWAP1 REVERT JUMPDEST PUSH1 0x5 PUSH1 0xB SLOAD LT ISZERO DUP1 ISZERO PUSH2 0x590 JUMPI POP PUSH1 0x1E PUSH1 0xA SLOAD PUSH2 0x58C SWAP2 SWAP1 PUSH2 0x17CD JUMP JUMPDEST TIMESTAMP GT ISZERO JUMPDEST ISZERO PUSH2 0x5EB JUMPI PUSH1 0x0 PUSH1 0xB DUP2 SWAP1 SSTORE POP PUSH1 0x0 PUSH1 0xB SLOAD EQ PUSH2 0x5B0 JUMPI PUSH2 0x5AF PUSH2 0x1801 JUMP JUMPDEST JUMPDEST PUSH1 0x40 MLOAD PUSH32 0x8C379A000000000000000000000000000000000000000000000000000000000 DUP2 MSTORE PUSH1 0x4 ADD PUSH2 0x5E2 SWAP1 PUSH2 0x187C JUMP JUMPDEST PUSH1 0x40 MLOAD DUP1 SWAP2 SUB SWAP1 REVERT JUMPDEST PUSH1 0x5 PUSH1 0xB SLOAD GT ISZERO DUP1 ISZERO PUSH2 0x60C JUMPI POP PUSH1 0x1E PUSH1 0xA SLOAD PUSH2 0x608 SWAP2 SWAP1 PUSH2 0x17CD JUMP JUMPDEST TIMESTAMP LT ISZERO JUMPDEST ISZERO PUSH2 0x634 JUMPI PUSH1 0x0 PUSH1 0xB DUP2 SWAP1 SSTORE POP PUSH1 0x0 PUSH1 0xB SLOAD EQ PUSH2 0x62C JUMPI PUSH2 0x62B PUSH2 0x1801 JUMP JUMPDEST JUMPDEST TIMESTAMP PUSH1 0xA DUP2 SWAP1 SSTORE POP JUMPDEST DUP2 PUSH1 0x5 PUSH1 0x0 PUSH2 0x100 EXP DUP2 SLOAD DUP2 PUSH20 0xFFFFFFFFFFFFFFFFFFFFFFFFFFFFFFFFFFFFFFFF MUL NOT AND SWAP1 DUP4 PUSH20 0xFFFFFFFFFFFFFFFFFFFFFFFFFFFFFFFFFFFFFFFF AND MUL OR SWAP1 SSTORE POP DUP3 PUSH1 0x3 DUP2 SWAP1 SSTORE POP PUSH1 0x1 PUSH1 0xB PUSH1 0x0 DUP3 DUP3 SLOAD PUSH2 0x68F SWAP2 SWAP1 PUSH2 0x17CD JUMP JUMPDEST SWAP3 POP POP DUP2 SWAP1 SSTORE POP PUSH1 0x0 PUSH1 0x4 SLOAD GT DUP1 ISZERO PUSH2 0x6AB JUMPI POP PUSH1 0x3 SLOAD PUSH1 0x4 SLOAD GT JUMPDEST ISZERO PUSH2 0x76C JUMPI PUSH1 0x3 SLOAD PUSH1 0x4 PUSH1 0x0 DUP3 DUP3 SLOAD PUSH2 0x6C4 SWAP2 SWAP1 PUSH2 0x189C JUMP JUMPDEST SWAP3 POP POP DUP2 SWAP1 SSTORE POP PUSH1 0x3 SLOAD PUSH1 0x9 PUSH1 0x0 DUP3 DUP3 SLOAD PUSH2 0x6DF SWAP2 SWAP1 PUSH2 0x17CD JUMP JUMPDEST SWAP3 POP POP DUP2 SWAP1 SSTORE POP PUSH2 0x716 CALLER PUSH1 0x5 PUSH1 0x0 SWAP1 SLOAD SWAP1 PUSH2 0x100 EXP SWAP1 DIV PUSH20 0xFFFFFFFFFFFFFFFFFFFFFFFFFFFFFFFFFFFFFFFF AND PUSH1 0x3 SLOAD TIMESTAMP PUSH2 0xE26 JUMP JUMPDEST PUSH2 0x721 PUSH1 0x3 SLOAD PUSH2 0x1021 JUMP JUMPDEST POP PUSH1 0x40 MLOAD DUP1 PUSH1 0x40 ADD PUSH1 0x40 MSTORE DUP1 PUSH1 0x12 DUP2 MSTORE PUSH1 0x20 ADD PUSH32 0x5472616E7366657220636F6D706C657465640000000000000000000000000000 DUP2 MSTORE POP PUSH1 0x6 SWAP1 DUP2 PUSH2 0x766 SWAP2 SWAP1 PUSH2 0x1ADC JUMP JUMPDEST POP PUSH2 0x7A7 JUMP JUMPDEST PUSH1 0x40 MLOAD PUSH32 0x8C379A000000000000000000000000000000000000000000000000000000000 DUP2 MSTORE PUSH1 0x4 ADD PUSH2 0x79E SWAP1 PUSH2 0x1BFA JUMP JUMPDEST PUSH1 0x40 MLOAD DUP1 SWAP2 SUB SWAP1 REVERT JUMPDEST POP POP POP JUMP JUMPDEST PUSH1 0xA SLOAD DUP2 JUMP JUMPDEST PUSH1 0x0 PUSH2 0x7BC PUSH2 0x105F JUMP JUMPDEST DUP1 PUSH1 0x0 ADD MLOAD SWAP2 POP POP SWAP1 JUMP JUMPDEST DUP2 PUSH1 0x7 SWAP1 DUP2 PUSH2 0x7D6 SWAP2 SWAP1 PUSH2 0x1ADC JUMP JUMPDEST POP DUP1 PUSH1 0x8 SWAP1 DUP2 PUSH2 0x7E6 SWAP2 SWAP1 PUSH2 0x1ADC JUMP JUMPDEST POP PUSH1 0x1 PUSH1 0xC PUSH1 0x0 PUSH2 0x100 EXP DUP2 SLOAD DUP2 PUSH1 0xFF MUL NOT AND SWAP1 DUP4 ISZERO ISZERO MUL OR SWAP1 SSTORE POP TIMESTAMP PUSH1 0xA DUP2 SWAP1 SSTORE POP PUSH1 0x8 PUSH1 0x7 DUP1 SLOAD PUSH2 0x818 SWAP1 PUSH2 0x18FF JUMP JUMPDEST SWAP1 POP EQ DUP1 ISZERO PUSH2 0x835 JUMPI POP PUSH1 0x3 PUSH1 0x8 DUP1 SLOAD PUSH2 0x831 SWAP1 PUSH2 0x18FF JUMP JUMPDEST SWAP1 POP EQ JUMPDEST PUSH2 0x874 JUMPI PUSH1 0x40 MLOAD PUSH32 0x8C379A000000000000000000000000000000000000000000000000000000000 DUP2 MSTORE PUSH1 0x4 ADD PUSH2 0x86B SWAP1 PUSH2 0x1C66 JUMP JUMPDEST PUSH1 0x40 MLOAD DUP1 SWAP2 SUB SWAP1 REVERT JUMPDEST POP POP JUMP JUMPDEST PUSH1 0x0 PUSH1 0x2 SLOAD SWAP1 POP SWAP1 JUMP JUMPDEST PUSH1 0xC PUSH1 0x0 SWAP1 SLOAD SWAP1 PUSH2 0x100 EXP SWAP1 DIV PUSH1 0xFF AND DUP2 JUMP JUMPDEST PUSH1 0x8 DUP1 SLOAD PUSH2 0x8A2 SWAP1 PUSH2 0x18FF JUMP JUMPDEST DUP1 PUSH1 0x1F ADD PUSH1 0x20 DUP1 SWAP2 DIV MUL PUSH1 0x20 ADD PUSH1 0x40 MLOAD SWAP1 DUP2 ADD PUSH1 0x40 MSTORE DUP1 SWAP3 SWAP2 SWAP1 DUP2 DUP2 MSTORE PUSH1 0x20 ADD DUP3 DUP1 SLOAD PUSH2 0x8CE SWAP1 PUSH2 0x18FF JUMP JUMPDEST DUP1 ISZERO PUSH2 0x91B JUMPI DUP1 PUSH1 0x1F LT PUSH2 0x8F0 JUMPI PUSH2 0x100 DUP1 DUP4 SLOAD DIV MUL DUP4 MSTORE SWAP2 PUSH1 0x20 ADD SWAP2 PUSH2 0x91B JUMP JUMPDEST DUP3 ADD SWAP2 SWAP1 PUSH1 0x0 MSTORE PUSH1 0x20 PUSH1 0x0 KECCAK256 SWAP1 JUMPDEST DUP2 SLOAD DUP2 MSTORE SWAP1 PUSH1 0x1 ADD SWAP1 PUSH1 0x20 ADD DUP1 DUP4 GT PUSH2 0x8FE JUMPI DUP3 SWAP1 SUB PUSH1 0x1F AND DUP3 ADD SWAP2 JUMPDEST POP POP POP POP POP DUP2 JUMP JUMPDEST PUSH1 0xB SLOAD DUP2 JUMP JUMPDEST PUSH1 0x0 PUSH2 0x933 PUSH2 0x105F JUMP JUMPDEST DUP3 DUP2 PUSH1 0x0 ADD MLOAD PUSH2 0x943 SWAP2 SWAP1 PUSH2 0x189C JUMP JUMPDEST DUP2 PUSH1 0x0 ADD DUP2 DUP2 MSTORE POP POP DUP3 SWAP2 POP POP SWAP2 SWAP1 POP JUMP JUMPDEST PUSH1 0x0 TIMESTAMP SWAP1 POP SWAP1 JUMP JUMPDEST PUSH1 0x1 PUSH1 0x20 MSTORE DUP1 PUSH1 0x0 MSTORE PUSH1 0x40 PUSH1 0x0 KECCAK256 PUSH1 0x0 SWAP2 POP SWAP1 POP DUP1 PUSH1 0x0 ADD PUSH1 0x0 SWAP1 SLOAD SWAP1 PUSH2 0x100 EXP SWAP1 DIV PUSH20 0xFFFFFFFFFFFFFFFFFFFFFFFFFFFFFFFFFFFFFFFF AND SWAP1 DUP1 PUSH1 0x1 ADD PUSH1 0x0 SWAP1 SLOAD SWAP1 PUSH2 0x100 EXP SWAP1 DIV PUSH20 0xFFFFFFFFFFFFFFFFFFFFFFFFFFFFFFFFFFFFFFFF AND SWAP1 DUP1 PUSH1 0x2 ADD SLOAD SWAP1 DUP1 PUSH1 0x3 ADD SLOAD SWAP1 POP DUP5 JUMP JUMPDEST PUSH1 0x4 SLOAD DUP2 JUMP JUMPDEST PUSH1 0x9 SLOAD DUP2 JUMP JUMPDEST PUSH1 0x60 PUSH1 0x0 DUP1 SLOAD DUP1 PUSH1 0x20 MUL PUSH1 0x20 ADD PUSH1 0x40 MLOAD SWAP1 DUP2 ADD PUSH1 0x40 MSTORE DUP1 SWAP3 SWAP2 SWAP1 DUP2 DUP2 MSTORE PUSH1 0x20 ADD PUSH1 0x0 SWAP1 JUMPDEST DUP3 DUP3 LT ISZERO PUSH2 0xAEF JUMPI DUP4 DUP3 SWAP1 PUSH1 0x0 MSTORE PUSH1 0x20 PUSH1 0x0 KECCAK256 SWAP1 PUSH1 0x4 MUL ADD PUSH1 0x40 MLOAD DUP1 PUSH1 0x80 ADD PUSH1 0x40 MSTORE SWAP1 DUP2 PUSH1 0x0 DUP3 ADD PUSH1 0x0 SWAP1 SLOAD SWAP1 PUSH2 0x100 EXP SWAP1 DIV PUSH20 0xFFFFFFFFFFFFFFFFFFFFFFFFFFFFFFFFFFFFFFFF AND PUSH20 0xFFFFFFFFFFFFFFFFFFFFFFFFFFFFFFFFFFFFFFFF AND PUSH20 0xFFFFFFFFFFFFFFFFFFFFFFFFFFFFFFFFFFFFFFFF AND DUP2 MSTORE PUSH1 0x20 ADD PUSH1 0x1 DUP3 ADD PUSH1 0x0 SWAP1 SLOAD SWAP1 PUSH2 0x100 EXP SWAP1 DIV PUSH20 0xFFFFFFFFFFFFFFFFFFFFFFFFFFFFFFFFFFFFFFFF AND PUSH20 0xFFFFFFFFFFFFFFFFFFFFFFFFFFFFFFFFFFFFFFFF AND PUSH20 0xFFFFFFFFFFFFFFFFFFFFFFFFFFFFFFFFFFFFFFFF AND DUP2 MSTORE PUSH1 0x20 ADD PUSH1 0x2 DUP3 ADD SLOAD DUP2 MSTORE PUSH1 0x20 ADD PUSH1 0x3 DUP3 ADD SLOAD DUP2 MSTORE POP POP DUP2 MSTORE PUSH1 0x20 ADD SWAP1 PUSH1 0x1 ADD SWAP1 PUSH2 0x9FD JUMP JUMPDEST POP POP POP POP SWAP1 POP SWAP1 JUMP JUMPDEST PUSH1 0x0 PUSH1 0xC PUSH1 0x0 PUSH2 0x100 EXP DUP2 SLOAD DUP2 PUSH1 0xFF MUL NOT AND SWAP1 DUP4 ISZERO ISZERO MUL OR SWAP1 SSTORE POP JUMP JUMPDEST PUSH1 0x7 DUP1 SLOAD PUSH2 0xB22 SWAP1 PUSH2 0x18FF JUMP JUMPDEST DUP1 PUSH1 0x1F ADD PUSH1 0x20 DUP1 SWAP2 DIV MUL PUSH1 0x20 ADD PUSH1 0x40 MLOAD SWAP1 DUP2 ADD PUSH1 0x40 MSTORE DUP1 SWAP3 SWAP2 SWAP1 DUP2 DUP2 MSTORE PUSH1 0x20 ADD DUP3 DUP1 SLOAD PUSH2 0xB4E SWAP1 PUSH2 0x18FF JUMP JUMPDEST DUP1 ISZERO PUSH2 0xB9B JUMPI DUP1 PUSH1 0x1F LT PUSH2 0xB70 JUMPI PUSH2 0x100 DUP1 DUP4 SLOAD DIV MUL DUP4 MSTORE SWAP2 PUSH1 0x20 ADD SWAP2 PUSH2 0xB9B JUMP JUMPDEST DUP3 ADD SWAP2 SWAP1 PUSH1 0x0 MSTORE PUSH1 0x20 PUSH1 0x0 KECCAK256 SWAP1 JUMPDEST DUP2 SLOAD DUP2 MSTORE SWAP1 PUSH1 0x1 ADD SWAP1 PUSH1 0x20 ADD DUP1 DUP4 GT PUSH2 0xB7E JUMPI DUP3 SWAP1 SUB PUSH1 0x1F AND DUP3 ADD SWAP2 JUMPDEST POP POP POP POP POP DUP2 JUMP JUMPDEST PUSH1 0x3 SLOAD DUP2 JUMP JUMPDEST PUSH1 0x6 DUP1 SLOAD PUSH2 0xBB6 SWAP1 PUSH2 0x18FF JUMP JUMPDEST DUP1 PUSH1 0x1F ADD PUSH1 0x20 DUP1 SWAP2 DIV MUL PUSH1 0x20 ADD PUSH1 0x40 MLOAD SWAP1 DUP2 ADD PUSH1 0x40 MSTORE DUP1 SWAP3 SWAP2 SWAP1 DUP2 DUP2 MSTORE PUSH1 0x20 ADD DUP3 DUP1 SLOAD PUSH2 0xBE2 SWAP1 PUSH2 0x18FF JUMP JUMPDEST DUP1 ISZERO PUSH2 0xC2F JUMPI DUP1 PUSH1 0x1F LT PUSH2 0xC04 JUMPI PUSH2 0x100 DUP1 DUP4 SLOAD DIV MUL DUP4 MSTORE SWAP2 PUSH1 0x20 ADD SWAP2 PUSH2 0xC2F JUMP JUMPDEST DUP3 ADD SWAP2 SWAP1 PUSH1 0x0 MSTORE PUSH1 0x20 PUSH1 0x0 KECCAK256 SWAP1 JUMPDEST DUP2 SLOAD DUP2 MSTORE SWAP1 PUSH1 0x1 ADD SWAP1 PUSH1 0x20 ADD DUP1 DUP4 GT PUSH2 0xC12 JUMPI DUP3 SWAP1 SUB PUSH1 0x1F AND DUP3 ADD SWAP2 JUMPDEST POP POP POP POP POP DUP2 JUMP JUMPDEST PUSH2 0xC3F PUSH2 0x1096 JUMP JUMPDEST PUSH1 0x1 PUSH1 0x0 DUP4 DUP2 MSTORE PUSH1 0x20 ADD SWAP1 DUP2 MSTORE PUSH1 0x20 ADD PUSH1 0x0 KECCAK256 PUSH1 0x40 MLOAD DUP1 PUSH1 0x80 ADD PUSH1 0x40 MSTORE SWAP1 DUP2 PUSH1 0x0 DUP3 ADD PUSH1 0x0 SWAP1 SLOAD SWAP1 PUSH2 0x100 EXP SWAP1 DIV PUSH20 0xFFFFFFFFFFFFFFFFFFFFFFFFFFFFFFFFFFFFFFFF AND PUSH20 0xFFFFFFFFFFFFFFFFFFFFFFFFFFFFFFFFFFFFFFFF AND PUSH20 0xFFFFFFFFFFFFFFFFFFFFFFFFFFFFFFFFFFFFFFFF AND DUP2 MSTORE PUSH1 0x20 ADD PUSH1 0x1 DUP3 ADD PUSH1 0x0 SWAP1 SLOAD SWAP1 PUSH2 0x100 EXP SWAP1 DIV PUSH20 0xFFFFFFFFFFFFFFFFFFFFFFFFFFFFFFFFFFFFFFFF AND PUSH20 0xFFFFFFFFFFFFFFFFFFFFFFFFFFFFFFFFFFFFFFFF AND PUSH20 0xFFFFFFFFFFFFFFFFFFFFFFFFFFFFFFFFFFFFFFFF AND DUP2 MSTORE PUSH1 0x20 ADD PUSH1 0x2 DUP3 ADD SLOAD DUP2 MSTORE PUSH1 0x20 ADD PUSH1 0x3 DUP3 ADD SLOAD DUP2 MSTORE POP POP SWAP1 POP SWAP2 SWAP1 POP JUMP JUMPDEST PUSH2 0xD2C PUSH2 0x1096 JUMP JUMPDEST PUSH1 0x0 PUSH1 0x1 PUSH1 0x0 DUP1 SLOAD SWAP1 POP PUSH2 0xD40 SWAP2 SWAP1 PUSH2 0x189C JUMP JUMPDEST SWAP1 POP PUSH1 0x1 PUSH1 0x0 DUP3 DUP2 MSTORE PUSH1 0x20 ADD SWAP1 DUP2 MSTORE PUSH1 0x20 ADD PUSH1 0x0 KECCAK256 PUSH1 0x40 MLOAD DUP1 PUSH1 0x80 ADD PUSH1 0x40 MSTORE SWAP1 DUP2 PUSH1 0x0 DUP3 ADD PUSH1 0x0 SWAP1 SLOAD SWAP1 PUSH2 0x100 EXP SWAP1 DIV PUSH20 0xFFFFFFFFFFFFFFFFFFFFFFFFFFFFFFFFFFFFFFFF AND PUSH20 0xFFFFFFFFFFFFFFFFFFFFFFFFFFFFFFFFFFFFFFFF AND PUSH20 0xFFFFFFFFFFFFFFFFFFFFFFFFFFFFFFFFFFFFFFFF AND DUP2 MSTORE PUSH1 0x20 ADD PUSH1 0x1 DUP3 ADD PUSH1 0x0 SWAP1 SLOAD SWAP1 PUSH2 0x100 EXP SWAP1 DIV PUSH20 0xFFFFFFFFFFFFFFFFFFFFFFFFFFFFFFFFFFFFFFFF AND PUSH20 0xFFFFFFFFFFFFFFFFFFFFFFFFFFFFFFFFFFFFFFFF AND PUSH20 0xFFFFFFFFFFFFFFFFFFFFFFFFFFFFFFFFFFFFFFFF AND DUP2 MSTORE PUSH1 0x20 ADD PUSH1 0x2 DUP3 ADD SLOAD DUP2 MSTORE PUSH1 0x20 ADD PUSH1 0x3 DUP3 ADD SLOAD DUP2 MSTORE POP POP SWAP2 POP POP SWAP1 JUMP JUMPDEST PUSH1 0x0 PUSH1 0x40 MLOAD DUP1 PUSH1 0x80 ADD PUSH1 0x40 MSTORE DUP1 DUP7 PUSH20 0xFFFFFFFFFFFFFFFFFFFFFFFFFFFFFFFFFFFFFFFF AND DUP2 MSTORE PUSH1 0x20 ADD DUP6 PUSH20 0xFFFFFFFFFFFFFFFFFFFFFFFFFFFFFFFFFFFFFFFF AND DUP2 MSTORE PUSH1 0x20 ADD DUP5 DUP2 MSTORE PUSH1 0x20 ADD DUP4 DUP2 MSTORE POP SWAP1 POP PUSH1 0x0 DUP2 SWAP1 DUP1 PUSH1 0x1 DUP2 SLOAD ADD DUP1 DUP3 SSTORE DUP1 SWAP2 POP POP PUSH1 0x1 SWAP1 SUB SWAP1 PUSH1 0x0 MSTORE PUSH1 0x20 PUSH1 0x0 KECCAK256 SWAP1 PUSH1 0x4 MUL ADD PUSH1 0x0 SWAP1 SWAP2 SWAP1 SWAP2 SWAP1 SWAP2 POP PUSH1 0x0 DUP3 ADD MLOAD DUP2 PUSH1 0x0 ADD PUSH1 0x0 PUSH2 0x100 EXP DUP2 SLOAD DUP2 PUSH20 0xFFFFFFFFFFFFFFFFFFFFFFFFFFFFFFFFFFFFFFFF MUL NOT AND SWAP1 DUP4 PUSH20 0xFFFFFFFFFFFFFFFFFFFFFFFFFFFFFFFFFFFFFFFF AND MUL OR SWAP1 SSTORE POP PUSH1 0x20 DUP3 ADD MLOAD DUP2 PUSH1 0x1 ADD PUSH1 0x0 PUSH2 0x100 EXP DUP2 SLOAD DUP2 PUSH20 0xFFFFFFFFFFFFFFFFFFFFFFFFFFFFFFFFFFFFFFFF MUL NOT AND SWAP1 DUP4 PUSH20 0xFFFFFFFFFFFFFFFFFFFFFFFFFFFFFFFFFFFFFFFF AND MUL OR SWAP1 SSTORE POP PUSH1 0x40 DUP3 ADD MLOAD DUP2 PUSH1 0x2 ADD SSTORE PUSH1 0x60 DUP3 ADD MLOAD DUP2 PUSH1 0x3 ADD SSTORE POP POP DUP1 PUSH1 0x1 PUSH1 0x0 PUSH1 0x2 SLOAD DUP2 MSTORE PUSH1 0x20 ADD SWAP1 DUP2 MSTORE PUSH1 0x20 ADD PUSH1 0x0 KECCAK256 PUSH1 0x0 DUP3 ADD MLOAD DUP2 PUSH1 0x0 ADD PUSH1 0x0 PUSH2 0x100 EXP DUP2 SLOAD DUP2 PUSH20 0xFFFFFFFFFFFFFFFFFFFFFFFFFFFFFFFFFFFFFFFF MUL NOT AND SWAP1 DUP4 PUSH20 0xFFFFFFFFFFFFFFFFFFFFFFFFFFFFFFFFFFFFFFFF AND MUL OR SWAP1 SSTORE POP PUSH1 0x20 DUP3 ADD MLOAD DUP2 PUSH1 0x1 ADD PUSH1 0x0 PUSH2 0x100 EXP DUP2 SLOAD DUP2 PUSH20 0xFFFFFFFFFFFFFFFFFFFFFFFFFFFFFFFFFFFFFFFF MUL NOT AND SWAP1 DUP4 PUSH20 0xFFFFFFFFFFFFFFFFFFFFFFFFFFFFFFFFFFFFFFFF AND MUL OR SWAP1 SSTORE POP PUSH1 0x40 DUP3 ADD MLOAD DUP2 PUSH1 0x2 ADD SSTORE PUSH1 0x60 DUP3 ADD MLOAD DUP2 PUSH1 0x3 ADD SSTORE SWAP1 POP POP PUSH1 0x2 PUSH1 0x0 DUP2 SLOAD DUP1 SWAP3 SWAP2 SWAP1 PUSH2 0x1015 SWAP1 PUSH2 0x1C86 JUMP JUMPDEST SWAP2 SWAP1 POP SSTORE POP POP POP POP POP POP JUMP JUMPDEST PUSH1 0x0 PUSH2 0x102B PUSH2 0x105F JUMP JUMPDEST DUP3 DUP2 PUSH1 0x20 ADD DUP2 DUP2 MSTORE POP POP DUP1 PUSH1 0x20 ADD MLOAD DUP2 PUSH1 0x0 ADD DUP2 DUP2 MLOAD PUSH2 0x104B SWAP2 SWAP1 PUSH2 0x17CD JUMP JUMPDEST SWAP2 POP DUP2 DUP2 MSTORE POP POP DUP1 PUSH1 0x20 ADD MLOAD SWAP2 POP POP SWAP2 SWAP1 POP JUMP JUMPDEST PUSH1 0x40 MLOAD DUP1 PUSH1 0x60 ADD PUSH1 0x40 MSTORE DUP1 PUSH1 0x0 DUP2 MSTORE PUSH1 0x20 ADD PUSH1 0x0 DUP2 MSTORE PUSH1 0x20 ADD PUSH1 0x0 PUSH20 0xFFFFFFFFFFFFFFFFFFFFFFFFFFFFFFFFFFFFFFFF AND DUP2 MSTORE POP SWAP1 JUMP JUMPDEST PUSH1 0x40 MLOAD DUP1 PUSH1 0x80 ADD PUSH1 0x40 MSTORE DUP1 PUSH1 0x0 PUSH20 0xFFFFFFFFFFFFFFFFFFFFFFFFFFFFFFFFFFFFFFFF AND DUP2 MSTORE PUSH1 0x20 ADD PUSH1 0x0 PUSH20 0xFFFFFFFFFFFFFFFFFFFFFFFFFFFFFFFFFFFFFFFF AND DUP2 MSTORE PUSH1 0x20 ADD PUSH1 0x0 DUP2 MSTORE PUSH1 0x20 ADD PUSH1 0x0 DUP2 MSTORE POP SWAP1 JUMP JUMPDEST PUSH1 0x0 PUSH1 0x40 MLOAD SWAP1 POP SWAP1 JUMP JUMPDEST PUSH1 0x0 DUP1 REVERT JUMPDEST PUSH1 0x0 DUP1 REVERT JUMPDEST PUSH1 0x0 DUP2 SWAP1 POP SWAP2 SWAP1 POP JUMP JUMPDEST PUSH2 0x1111 DUP2 PUSH2 0x10FE JUMP JUMPDEST DUP2 EQ PUSH2 0x111C JUMPI PUSH1 0x0 DUP1 REVERT JUMPDEST POP JUMP JUMPDEST PUSH1 0x0 DUP2 CALLDATALOAD SWAP1 POP PUSH2 0x112E DUP2 PUSH2 0x1108 JUMP JUMPDEST SWAP3 SWAP2 POP POP JUMP JUMPDEST PUSH1 0x0 PUSH1 0x20 DUP3 DUP5 SUB SLT ISZERO PUSH2 0x114A JUMPI PUSH2 0x1149 PUSH2 0x10F4 JUMP JUMPDEST JUMPDEST PUSH1 0x0 PUSH2 0x1158 DUP5 DUP3 DUP6 ADD PUSH2 0x111F JUMP JUMPDEST SWAP2 POP POP SWAP3 SWAP2 POP POP JUMP JUMPDEST PUSH1 0x0 PUSH20 0xFFFFFFFFFFFFFFFFFFFFFFFFFFFFFFFFFFFFFFFF DUP3 AND SWAP1 POP SWAP2 SWAP1 POP JUMP JUMPDEST PUSH1 0x0 PUSH2 0x118C DUP3 PUSH2 0x1161 JUMP JUMPDEST SWAP1 POP SWAP2 SWAP1 POP JUMP JUMPDEST PUSH2 0x119C DUP2 PUSH2 0x1181 JUMP JUMPDEST DUP3 MSTORE POP POP JUMP JUMPDEST PUSH2 0x11AB DUP2 PUSH2 0x10FE JUMP JUMPDEST DUP3 MSTORE POP POP JUMP JUMPDEST PUSH1 0x0 PUSH1 0x80 DUP3 ADD SWAP1 POP PUSH2 0x11C6 PUSH1 0x0 DUP4 ADD DUP8 PUSH2 0x1193 JUMP JUMPDEST PUSH2 0x11D3 PUSH1 0x20 DUP4 ADD DUP7 PUSH2 0x1193 JUMP JUMPDEST PUSH2 0x11E0 PUSH1 0x40 DUP4 ADD DUP6 PUSH2 0x11A2 JUMP JUMPDEST PUSH2 0x11ED PUSH1 0x60 DUP4 ADD DUP5 PUSH2 0x11A2 JUMP JUMPDEST SWAP6 SWAP5 POP POP POP POP POP JUMP JUMPDEST PUSH2 0x11FF DUP2 PUSH2 0x1181 JUMP JUMPDEST DUP2 EQ PUSH2 0x120A JUMPI PUSH1 0x0 DUP1 REVERT JUMPDEST POP JUMP JUMPDEST PUSH1 0x0 DUP2 CALLDATALOAD SWAP1 POP PUSH2 0x121C DUP2 PUSH2 0x11F6 JUMP JUMPDEST SWAP3 SWAP2 POP POP JUMP JUMPDEST PUSH1 0x0 DUP1 PUSH1 0x40 DUP4 DUP6 SUB SLT ISZERO PUSH2 0x1239 JUMPI PUSH2 0x1238 PUSH2 0x10F4 JUMP JUMPDEST JUMPDEST PUSH1 0x0 PUSH2 0x1247 DUP6 DUP3 DUP7 ADD PUSH2 0x111F JUMP JUMPDEST SWAP3 POP POP PUSH1 0x20 PUSH2 0x1258 DUP6 DUP3 DUP7 ADD PUSH2 0x120D JUMP JUMPDEST SWAP2 POP POP SWAP3 POP SWAP3 SWAP1 POP JUMP JUMPDEST PUSH1 0x0 PUSH1 0x20 DUP3 ADD SWAP1 POP PUSH2 0x1277 PUSH1 0x0 DUP4 ADD DUP5 PUSH2 0x11A2 JUMP JUMPDEST SWAP3 SWAP2 POP POP JUMP JUMPDEST PUSH1 0x0 DUP1 REVERT JUMPDEST PUSH1 0x0 DUP1 REVERT JUMPDEST PUSH1 0x0 PUSH1 0x1F NOT PUSH1 0x1F DUP4 ADD AND SWAP1 POP SWAP2 SWAP1 POP JUMP JUMPDEST PUSH32 0x4E487B7100000000000000000000000000000000000000000000000000000000 PUSH1 0x0 MSTORE PUSH1 0x41 PUSH1 0x4 MSTORE PUSH1 0x24 PUSH1 0x0 REVERT JUMPDEST PUSH2 0x12D0 DUP3 PUSH2 0x1287 JUMP JUMPDEST DUP2 ADD DUP2 DUP2 LT PUSH8 0xFFFFFFFFFFFFFFFF DUP3 GT OR ISZERO PUSH2 0x12EF JUMPI PUSH2 0x12EE PUSH2 0x1298 JUMP JUMPDEST JUMPDEST DUP1 PUSH1 0x40 MSTORE POP POP POP JUMP JUMPDEST PUSH1 0x0 PUSH2 0x1302 PUSH2 0x10EA JUMP JUMPDEST SWAP1 POP PUSH2 0x130E DUP3 DUP3 PUSH2 0x12C7 JUMP JUMPDEST SWAP2 SWAP1 POP JUMP JUMPDEST PUSH1 0x0 PUSH8 0xFFFFFFFFFFFFFFFF DUP3 GT ISZERO PUSH2 0x132E JUMPI PUSH2 0x132D PUSH2 0x1298 JUMP JUMPDEST JUMPDEST PUSH2 0x1337 DUP3 PUSH2 0x1287 JUMP JUMPDEST SWAP1 POP PUSH1 0x20 DUP2 ADD SWAP1 POP SWAP2 SWAP1 POP JUMP JUMPDEST DUP3 DUP2 DUP4 CALLDATACOPY PUSH1 0x0 DUP4 DUP4 ADD MSTORE POP POP POP JUMP JUMPDEST PUSH1 0x0 PUSH2 0x1366 PUSH2 0x1361 DUP5 PUSH2 0x1313 JUMP JUMPDEST PUSH2 0x12F8 JUMP JUMPDEST SWAP1 POP DUP3 DUP2 MSTORE PUSH1 0x20 DUP2 ADD DUP5 DUP5 DUP5 ADD GT ISZERO PUSH2 0x1382 JUMPI PUSH2 0x1381 PUSH2 0x1282 JUMP JUMPDEST JUMPDEST PUSH2 0x138D DUP5 DUP3 DUP6 PUSH2 0x1344 JUMP JUMPDEST POP SWAP4 SWAP3 POP POP POP JUMP JUMPDEST PUSH1 0x0 DUP3 PUSH1 0x1F DUP4 ADD SLT PUSH2 0x13AA JUMPI PUSH2 0x13A9 PUSH2 0x127D JUMP JUMPDEST JUMPDEST DUP2 CALLDATALOAD PUSH2 0x13BA DUP5 DUP3 PUSH1 0x20 DUP7 ADD PUSH2 0x1353 JUMP JUMPDEST SWAP2 POP POP SWAP3 SWAP2 POP POP JUMP JUMPDEST PUSH1 0x0 DUP1 PUSH1 0x40 DUP4 DUP6 SUB SLT ISZERO PUSH2 0x13DA JUMPI PUSH2 0x13D9 PUSH2 0x10F4 JUMP JUMPDEST JUMPDEST PUSH1 0x0 DUP4 ADD CALLDATALOAD PUSH8 0xFFFFFFFFFFFFFFFF DUP2 GT ISZERO PUSH2 0x13F8 JUMPI PUSH2 0x13F7 PUSH2 0x10F9 JUMP JUMPDEST JUMPDEST PUSH2 0x1404 DUP6 DUP3 DUP7 ADD PUSH2 0x1395 JUMP JUMPDEST SWAP3 POP POP PUSH1 0x20 DUP4 ADD CALLDATALOAD PUSH8 0xFFFFFFFFFFFFFFFF DUP2 GT ISZERO PUSH2 0x1425 JUMPI PUSH2 0x1424 PUSH2 0x10F9 JUMP JUMPDEST JUMPDEST PUSH2 0x1431 DUP6 DUP3 DUP7 ADD PUSH2 0x1395 JUMP JUMPDEST SWAP2 POP POP SWAP3 POP SWAP3 SWAP1 POP JUMP JUMPDEST PUSH1 0x0 DUP2 ISZERO ISZERO SWAP1 POP SWAP2 SWAP1 POP JUMP JUMPDEST PUSH2 0x1450 DUP2 PUSH2 0x143B JUMP JUMPDEST DUP3 MSTORE POP POP JUMP JUMPDEST PUSH1 0x0 PUSH1 0x20 DUP3 ADD SWAP1 POP PUSH2 0x146B PUSH1 0x0 DUP4 ADD DUP5 PUSH2 0x1447 JUMP JUMPDEST SWAP3 SWAP2 POP POP JUMP JUMPDEST PUSH1 0x0 DUP2 MLOAD SWAP1 POP SWAP2 SWAP1 POP JUMP JUMPDEST PUSH1 0x0 DUP3 DUP3 MSTORE PUSH1 0x20 DUP3 ADD SWAP1 POP SWAP3 SWAP2 POP POP JUMP JUMPDEST PUSH1 0x0 JUMPDEST DUP4 DUP2 LT ISZERO PUSH2 0x14AB JUMPI DUP1 DUP3 ADD MLOAD DUP2 DUP5 ADD MSTORE PUSH1 0x20 DUP2 ADD SWAP1 POP PUSH2 0x1490 JUMP JUMPDEST PUSH1 0x0 DUP5 DUP5 ADD MSTORE POP POP POP POP JUMP JUMPDEST PUSH1 0x0 PUSH2 0x14C2 DUP3 PUSH2 0x1471 JUMP JUMPDEST PUSH2 0x14CC DUP2 DUP6 PUSH2 0x147C JUMP JUMPDEST SWAP4 POP PUSH2 0x14DC DUP2 DUP6 PUSH1 0x20 DUP7 ADD PUSH2 0x148D JUMP JUMPDEST PUSH2 0x14E5 DUP2 PUSH2 0x1287 JUMP JUMPDEST DUP5 ADD SWAP2 POP POP SWAP3 SWAP2 POP POP JUMP JUMPDEST PUSH1 0x0 PUSH1 0x20 DUP3 ADD SWAP1 POP DUP2 DUP2 SUB PUSH1 0x0 DUP4 ADD MSTORE PUSH2 0x150A DUP2 DUP5 PUSH2 0x14B7 JUMP JUMPDEST SWAP1 POP SWAP3 SWAP2 POP POP JUMP JUMPDEST PUSH1 0x0 DUP2 MLOAD SWAP1 POP SWAP2 SWAP1 POP JUMP JUMPDEST PUSH1 0x0 DUP3 DUP3 MSTORE PUSH1 0x20 DUP3 ADD SWAP1 POP SWAP3 SWAP2 POP POP JUMP JUMPDEST PUSH1 0x0 DUP2 SWAP1 POP PUSH1 0x20 DUP3 ADD SWAP1 POP SWAP2 SWAP1 POP JUMP JUMPDEST PUSH2 0x1547 DUP2 PUSH2 0x1181 JUMP JUMPDEST DUP3 MSTORE POP POP JUMP JUMPDEST PUSH2 0x1556 DUP2 PUSH2 0x10FE JUMP JUMPDEST DUP3 MSTORE POP POP JUMP JUMPDEST PUSH1 0x80 DUP3 ADD PUSH1 0x0 DUP3 ADD MLOAD PUSH2 0x1572 PUSH1 0x0 DUP6 ADD DUP3 PUSH2 0x153E JUMP JUMPDEST POP PUSH1 0x20 DUP3 ADD MLOAD PUSH2 0x1585 PUSH1 0x20 DUP6 ADD DUP3 PUSH2 0x153E JUMP JUMPDEST POP PUSH1 0x40 DUP3 ADD MLOAD PUSH2 0x1598 PUSH1 0x40 DUP6 ADD DUP3 PUSH2 0x154D JUMP JUMPDEST POP PUSH1 0x60 DUP3 ADD MLOAD PUSH2 0x15AB PUSH1 0x60 DUP6 ADD DUP3 PUSH2 0x154D JUMP JUMPDEST POP POP POP POP JUMP JUMPDEST PUSH1 0x0 PUSH2 0x15BD DUP4 DUP4 PUSH2 0x155C JUMP JUMPDEST PUSH1 0x80 DUP4 ADD SWAP1 POP SWAP3 SWAP2 POP POP JUMP JUMPDEST PUSH1 0x0 PUSH1 0x20 DUP3 ADD SWAP1 POP SWAP2 SWAP1 POP JUMP JUMPDEST PUSH1 0x0 PUSH2 0x15E1 DUP3 PUSH2 0x1512 JUMP JUMPDEST PUSH2 0x15EB DUP2 DUP6 PUSH2 0x151D JUMP JUMPDEST SWAP4 POP PUSH2 0x15F6 DUP4 PUSH2 0x152E JUMP JUMPDEST DUP1 PUSH1 0x0 JUMPDEST DUP4 DUP2 LT ISZERO PUSH2 0x1627 JUMPI DUP2 MLOAD PUSH2 0x160E DUP9 DUP3 PUSH2 0x15B1 JUMP JUMPDEST SWAP8 POP PUSH2 0x1619 DUP4 PUSH2 0x15C9 JUMP JUMPDEST SWAP3 POP POP PUSH1 0x1 DUP2 ADD SWAP1 POP PUSH2 0x15FA JUMP JUMPDEST POP DUP6 SWAP4 POP POP POP POP SWAP3 SWAP2 POP POP JUMP JUMPDEST PUSH1 0x0 PUSH1 0x20 DUP3 ADD SWAP1 POP DUP2 DUP2 SUB PUSH1 0x0 DUP4 ADD MSTORE PUSH2 0x164E DUP2 DUP5 PUSH2 0x15D6 JUMP JUMPDEST SWAP1 POP SWAP3 SWAP2 POP POP JUMP JUMPDEST PUSH1 0x80 DUP3 ADD PUSH1 0x0 DUP3 ADD MLOAD PUSH2 0x166C PUSH1 0x0 DUP6 ADD DUP3 PUSH2 0x153E JUMP JUMPDEST POP PUSH1 0x20 DUP3 ADD MLOAD PUSH2 0x167F PUSH1 0x20 DUP6 ADD DUP3 PUSH2 0x153E JUMP JUMPDEST POP PUSH1 0x40 DUP3 ADD MLOAD PUSH2 0x1692 PUSH1 0x40 DUP6 ADD DUP3 PUSH2 0x154D JUMP JUMPDEST POP PUSH1 0x60 DUP3 ADD MLOAD PUSH2 0x16A5 PUSH1 0x60 DUP6 ADD DUP3 PUSH2 0x154D JUMP JUMPDEST POP POP POP POP JUMP JUMPDEST PUSH1 0x0 PUSH1 0x80 DUP3 ADD SWAP1 POP PUSH2 0x16C0 PUSH1 0x0 DUP4 ADD DUP5 PUSH2 0x1656 JUMP JUMPDEST SWAP3 SWAP2 POP POP JUMP JUMPDEST PUSH32 0x54686973206164647265737320646F65736E2774206578697374730000000000 PUSH1 0x0 DUP3 ADD MSTORE POP JUMP JUMPDEST PUSH1 0x0 PUSH2 0x16FC PUSH1 0x1B DUP4 PUSH2 0x147C JUMP JUMPDEST SWAP2 POP PUSH2 0x1707 DUP3 PUSH2 0x16C6 JUMP JUMPDEST PUSH1 0x20 DUP3 ADD SWAP1 POP SWAP2 SWAP1 POP JUMP JUMPDEST PUSH1 0x0 PUSH1 0x20 DUP3 ADD SWAP1 POP DUP2 DUP2 SUB PUSH1 0x0 DUP4 ADD MSTORE PUSH2 0x172B DUP2 PUSH2 0x16EF JUMP JUMPDEST SWAP1 POP SWAP2 SWAP1 POP JUMP JUMPDEST PUSH32 0x506C6561736520696E7365727420796F75722063617264000000000000000000 PUSH1 0x0 DUP3 ADD MSTORE POP JUMP JUMPDEST PUSH1 0x0 PUSH2 0x1768 PUSH1 0x17 DUP4 PUSH2 0x147C JUMP JUMPDEST SWAP2 POP PUSH2 0x1773 DUP3 PUSH2 0x1732 JUMP JUMPDEST PUSH1 0x20 DUP3 ADD SWAP1 POP SWAP2 SWAP1 POP JUMP JUMPDEST PUSH1 0x0 PUSH1 0x20 DUP3 ADD SWAP1 POP DUP2 DUP2 SUB PUSH1 0x0 DUP4 ADD MSTORE PUSH2 0x1797 DUP2 PUSH2 0x175B JUMP JUMPDEST SWAP1 POP SWAP2 SWAP1 POP JUMP JUMPDEST PUSH32 0x4E487B7100000000000000000000000000000000000000000000000000000000 PUSH1 0x0 MSTORE PUSH1 0x11 PUSH1 0x4 MSTORE PUSH1 0x24 PUSH1 0x0 REVERT JUMPDEST PUSH1 0x0 PUSH2 0x17D8 DUP3 PUSH2 0x10FE JUMP JUMPDEST SWAP2 POP PUSH2 0x17E3 DUP4 PUSH2 0x10FE JUMP JUMPDEST SWAP3 POP DUP3 DUP3 ADD SWAP1 POP DUP1 DUP3 GT ISZERO PUSH2 0x17FB JUMPI PUSH2 0x17FA PUSH2 0x179E JUMP JUMPDEST JUMPDEST SWAP3 SWAP2 POP POP JUMP JUMPDEST PUSH32 0x4E487B7100000000000000000000000000000000000000000000000000000000 PUSH1 0x0 MSTORE PUSH1 0x1 PUSH1 0x4 MSTORE PUSH1 0x24 PUSH1 0x0 REVERT JUMPDEST PUSH32 0x6F6E6C792035207472616E73616374696F6E7320706572206461790000000000 PUSH1 0x0 DUP3 ADD MSTORE POP JUMP JUMPDEST PUSH1 0x0 PUSH2 0x1866 PUSH1 0x1B DUP4 PUSH2 0x147C JUMP JUMPDEST SWAP2 POP PUSH2 0x1871 DUP3 PUSH2 0x1830 JUMP JUMPDEST PUSH1 0x20 DUP3 ADD SWAP1 POP SWAP2 SWAP1 POP JUMP JUMPDEST PUSH1 0x0 PUSH1 0x20 DUP3 ADD SWAP1 POP DUP2 DUP2 SUB PUSH1 0x0 DUP4 ADD MSTORE PUSH2 0x1895 DUP2 PUSH2 0x1859 JUMP JUMPDEST SWAP1 POP SWAP2 SWAP1 POP JUMP JUMPDEST PUSH1 0x0 PUSH2 0x18A7 DUP3 PUSH2 0x10FE JUMP JUMPDEST SWAP2 POP PUSH2 0x18B2 DUP4 PUSH2 0x10FE JUMP JUMPDEST SWAP3 POP DUP3 DUP3 SUB SWAP1 POP DUP2 DUP2 GT ISZERO PUSH2 0x18CA JUMPI PUSH2 0x18C9 PUSH2 0x179E JUMP JUMPDEST JUMPDEST SWAP3 SWAP2 POP POP JUMP JUMPDEST PUSH32 0x4E487B7100000000000000000000000000000000000000000000000000000000 PUSH1 0x0 MSTORE PUSH1 0x22 PUSH1 0x4 MSTORE PUSH1 0x24 PUSH1 0x0 REVERT JUMPDEST PUSH1 0x0 PUSH1 0x2 DUP3 DIV SWAP1 POP PUSH1 0x1 DUP3 AND DUP1 PUSH2 0x1917 JUMPI PUSH1 0x7F DUP3 AND SWAP2 POP JUMPDEST PUSH1 0x20 DUP3 LT DUP2 SUB PUSH2 0x192A JUMPI PUSH2 0x1929 PUSH2 0x18D0 JUMP JUMPDEST JUMPDEST POP SWAP2 SWAP1 POP JUMP JUMPDEST PUSH1 0x0 DUP2 SWAP1 POP DUP2 PUSH1 0x0 MSTORE PUSH1 0x20 PUSH1 0x0 KECCAK256 SWAP1 POP SWAP2 SWAP1 POP JUMP JUMPDEST PUSH1 0x0 PUSH1 0x20 PUSH1 0x1F DUP4 ADD DIV SWAP1 POP SWAP2 SWAP1 POP JUMP JUMPDEST PUSH1 0x0 DUP3 DUP3 SHL SWAP1 POP SWAP3 SWAP2 POP POP JUMP JUMPDEST PUSH1 0x0 PUSH1 0x8 DUP4 MUL PUSH2 0x1992 PUSH32 0xFFFFFFFFFFFFFFFFFFFFFFFFFFFFFFFFFFFFFFFFFFFFFFFFFFFFFFFFFFFFFFFF DUP3 PUSH2 0x1955 JUMP JUMPDEST PUSH2 0x199C DUP7 DUP4 PUSH2 0x1955 JUMP JUMPDEST SWAP6 POP DUP1 NOT DUP5 AND SWAP4 POP DUP1 DUP7 AND DUP5 OR SWAP3 POP POP POP SWAP4 SWAP3 POP POP POP JUMP JUMPDEST PUSH1 0x0 DUP2 SWAP1 POP SWAP2 SWAP1 POP JUMP JUMPDEST PUSH1 0x0 PUSH2 0x19D9 PUSH2 0x19D4 PUSH2 0x19CF DUP5 PUSH2 0x10FE JUMP JUMPDEST PUSH2 0x19B4 JUMP JUMPDEST PUSH2 0x10FE JUMP JUMPDEST SWAP1 POP SWAP2 SWAP1 POP JUMP JUMPDEST PUSH1 0x0 DUP2 SWAP1 POP SWAP2 SWAP1 POP JUMP JUMPDEST PUSH2 0x19F3 DUP4 PUSH2 0x19BE JUMP JUMPDEST PUSH2 0x1A07 PUSH2 0x19FF DUP3 PUSH2 0x19E0 JUMP JUMPDEST DUP5 DUP5 SLOAD PUSH2 0x1962 JUMP JUMPDEST DUP3 SSTORE POP POP POP POP JUMP JUMPDEST PUSH1 0x0 SWAP1 JUMP JUMPDEST PUSH2 0x1A1C PUSH2 0x1A0F JUMP JUMPDEST PUSH2 0x1A27 DUP2 DUP5 DUP5 PUSH2 0x19EA JUMP JUMPDEST POP POP POP JUMP JUMPDEST JUMPDEST DUP2 DUP2 LT ISZERO PUSH2 0x1A4B JUMPI PUSH2 0x1A40 PUSH1 0x0 DUP3 PUSH2 0x1A14 JUMP JUMPDEST PUSH1 0x1 DUP2 ADD SWAP1 POP PUSH2 0x1A2D JUMP JUMPDEST POP POP JUMP JUMPDEST PUSH1 0x1F DUP3 GT ISZERO PUSH2 0x1A90 JUMPI PUSH2 0x1A61 DUP2 PUSH2 0x1930 JUMP JUMPDEST PUSH2 0x1A6A DUP5 PUSH2 0x1945 JUMP JUMPDEST DUP2 ADD PUSH1 0x20 DUP6 LT ISZERO PUSH2 0x1A79 JUMPI DUP2 SWAP1 POP JUMPDEST PUSH2 0x1A8D PUSH2 0x1A85 DUP6 PUSH2 0x1945 JUMP JUMPDEST DUP4 ADD DUP3 PUSH2 0x1A2C JUMP JUMPDEST POP POP JUMPDEST POP POP POP JUMP JUMPDEST PUSH1 0x0 DUP3 DUP3 SHR SWAP1 POP SWAP3 SWAP2 POP POP JUMP JUMPDEST PUSH1 0x0 PUSH2 0x1AB3 PUSH1 0x0 NOT DUP5 PUSH1 0x8 MUL PUSH2 0x1A95 JUMP JUMPDEST NOT DUP1 DUP4 AND SWAP2 POP POP SWAP3 SWAP2 POP POP JUMP JUMPDEST PUSH1 0x0 PUSH2 0x1ACC DUP4 DUP4 PUSH2 0x1AA2 JUMP JUMPDEST SWAP2 POP DUP3 PUSH1 0x2 MUL DUP3 OR SWAP1 POP SWAP3 SWAP2 POP POP JUMP JUMPDEST PUSH2 0x1AE5 DUP3 PUSH2 0x1471 JUMP JUMPDEST PUSH8 0xFFFFFFFFFFFFFFFF DUP2 GT ISZERO PUSH2 0x1AFE JUMPI PUSH2 0x1AFD PUSH2 0x1298 JUMP JUMPDEST JUMPDEST PUSH2 0x1B08 DUP3 SLOAD PUSH2 0x18FF JUMP JUMPDEST PUSH2 0x1B13 DUP3 DUP3 DUP6 PUSH2 0x1A4F JUMP JUMPDEST PUSH1 0x0 PUSH1 0x20 SWAP1 POP PUSH1 0x1F DUP4 GT PUSH1 0x1 DUP2 EQ PUSH2 0x1B46 JUMPI PUSH1 0x0 DUP5 ISZERO PUSH2 0x1B34 JUMPI DUP3 DUP8 ADD MLOAD SWAP1 POP JUMPDEST PUSH2 0x1B3E DUP6 DUP3 PUSH2 0x1AC0 JUMP JUMPDEST DUP7 SSTORE POP PUSH2 0x1BA6 JUMP JUMPDEST PUSH1 0x1F NOT DUP5 AND PUSH2 0x1B54 DUP7 PUSH2 0x1930 JUMP JUMPDEST PUSH1 0x0 JUMPDEST DUP3 DUP2 LT ISZERO PUSH2 0x1B7C JUMPI DUP5 DUP10 ADD MLOAD DUP3 SSTORE PUSH1 0x1 DUP3 ADD SWAP2 POP PUSH1 0x20 DUP6 ADD SWAP5 POP PUSH1 0x20 DUP2 ADD SWAP1 POP PUSH2 0x1B57 JUMP JUMPDEST DUP7 DUP4 LT ISZERO PUSH2 0x1B99 JUMPI DUP5 DUP10 ADD MLOAD PUSH2 0x1B95 PUSH1 0x1F DUP10 AND DUP3 PUSH2 0x1AA2 JUMP JUMPDEST DUP4 SSTORE POP JUMPDEST PUSH1 0x1 PUSH1 0x2 DUP9 MUL ADD DUP9 SSTORE POP POP POP JUMPDEST POP POP POP POP POP POP JUMP JUMPDEST PUSH32 0x4E6F7420656E6F7567682066756E647300000000000000000000000000000000 PUSH1 0x0 DUP3 ADD MSTORE POP JUMP JUMPDEST PUSH1 0x0 PUSH2 0x1BE4 PUSH1 0x10 DUP4 PUSH2 0x147C JUMP JUMPDEST SWAP2 POP PUSH2 0x1BEF DUP3 PUSH2 0x1BAE JUMP JUMPDEST PUSH1 0x20 DUP3 ADD SWAP1 POP SWAP2 SWAP1 POP JUMP JUMPDEST PUSH1 0x0 PUSH1 0x20 DUP3 ADD SWAP1 POP DUP2 DUP2 SUB PUSH1 0x0 DUP4 ADD MSTORE PUSH2 0x1C13 DUP2 PUSH2 0x1BD7 JUMP JUMPDEST SWAP1 POP SWAP2 SWAP1 POP JUMP JUMPDEST PUSH32 0x4E6F2076616C6964206372656469742063617264000000000000000000000000 PUSH1 0x0 DUP3 ADD MSTORE POP JUMP JUMPDEST PUSH1 0x0 PUSH2 0x1C50 PUSH1 0x14 DUP4 PUSH2 0x147C JUMP JUMPDEST SWAP2 POP PUSH2 0x1C5B DUP3 PUSH2 0x1C1A JUMP JUMPDEST PUSH1 0x20 DUP3 ADD SWAP1 POP SWAP2 SWAP1 POP JUMP JUMPDEST PUSH1 0x0 PUSH1 0x20 DUP3 ADD SWAP1 POP DUP2 DUP2 SUB PUSH1 0x0 DUP4 ADD MSTORE PUSH2 0x1C7F DUP2 PUSH2 0x1C43 JUMP JUMPDEST SWAP1 POP SWAP2 SWAP1 POP JUMP JUMPDEST PUSH1 0x0 PUSH2 0x1C91 DUP3 PUSH2 0x10FE JUMP JUMPDEST SWAP2 POP PUSH32 0xFFFFFFFFFFFFFFFFFFFFFFFFFFFFFFFFFFFFFFFFFFFFFFFFFFFFFFFFFFFFFFFF DUP3 SUB PUSH2 0x1CC3 JUMPI PUSH2 0x1CC2 PUSH2 0x179E JUMP JUMPDEST JUMPDEST PUSH1 0x1 DUP3 ADD SWAP1 POP SWAP2 SWAP1 POP JUMP INVALID LOG2 PUSH5 0x6970667358 0x22 SLT KECCAK256 POP 0xD6 0xC1 DUP6 0xE6 PUSH12 0x27BFFD626B4328818016E401 0xBA CALLVALUE PUSH30 0x1FD12F97248A1621F2CFC164736F6C634300081000330000000000000000 "
				},
				"gasEstimates": {
					"creation": {
						"codeDepositCost": "1485600",
						"executionCost": "infinite",
						"totalCost": "infinite"
					},
					"external": {
						"TotalAmount()": "2518",
						"TotalFunds()": "2496",
						"amount()": "2495",
						"callCount()": "2518",
						"callPutCard()": "2516",
						"cardNumber()": "infinite",
						"cvv()": "infinite",
						"firstTransferTime()": "2497",
						"getBalance()": "545",
						"getLastTransaction()": "infinite",
						"getNumberOfTransactions()": "2460",
						"getOutCard()": "24433",
						"getTime()": "359",
						"getTransactionById(uint256)": "infinite",
						"getTransactions()": "infinite",
						"message()": "infinite",
						"sendMoney(uint256,address)": "infinite",
						"setCard(string,string)": "infinite",
						"transactionList(uint256)": "infinite",
						"trn(uint256)": "infinite",
						"withdrawMoney(uint256)": "infinite"
					}
				},
				"methodIdentifiers": {
					"TotalAmount()": "7eb9f571",
					"TotalFunds()": "7b9a3f4c",
					"amount()": "aa8c217c",
					"callCount()": "4b28f9a2",
					"callPutCard()": "3c626f00",
					"cardNumber()": "8fa11864",
					"cvv()": "42fb7936",
					"firstTransferTime()": "0e85fa72",
					"getBalance()": "12065fe0",
					"getLastTransaction()": "f7e03fd8",
					"getNumberOfTransactions()": "24ba506d",
					"getOutCard()": "8e029c0b",
					"getTime()": "557ed1ba",
					"getTransactionById(uint256)": "f4b30eaf",
					"getTransactions()": "83920e90",
					"message()": "e21f37ce",
					"sendMoney(uint256,address)": "062a7544",
					"setCard(string,string)": "12a029a4",
					"transactionList(uint256)": "04ef5b21",
					"trn(uint256)": "57bf72e3",
					"withdrawMoney(uint256)": "54876921"
				}
			},
			"storageLayout": {
				"storage": [
					{
						"astId": 352,
						"contract": "Dapp/MoneyTransfer.sol:MoneyTransfer",
						"label": "transactionList",
						"offset": 0,
						"slot": "0",
						"type": "t_array(t_struct(Transactions)348_storage)dyn_storage"
					},
					{
						"astId": 357,
						"contract": "Dapp/MoneyTransfer.sol:MoneyTransfer",
						"label": "trn",
						"offset": 0,
						"slot": "1",
						"type": "t_mapping(t_uint256,t_struct(Transactions)348_storage)"
					},
					{
						"astId": 360,
						"contract": "Dapp/MoneyTransfer.sol:MoneyTransfer",
						"label": "counter",
						"offset": 0,
						"slot": "2",
						"type": "t_uint256"
					},
					{
						"astId": 9,
						"contract": "Dapp/MoneyTransfer.sol:MoneyTransfer",
						"label": "amount",
						"offset": 0,
						"slot": "3",
						"type": "t_uint256"
					},
					{
						"astId": 11,
						"contract": "Dapp/MoneyTransfer.sol:MoneyTransfer",
						"label": "TotalFunds",
						"offset": 0,
						"slot": "4",
						"type": "t_uint256"
					},
					{
						"astId": 13,
						"contract": "Dapp/MoneyTransfer.sol:MoneyTransfer",
						"label": "receiver",
						"offset": 0,
						"slot": "5",
						"type": "t_address"
					},
					{
						"astId": 15,
						"contract": "Dapp/MoneyTransfer.sol:MoneyTransfer",
						"label": "message",
						"offset": 0,
						"slot": "6",
						"type": "t_string_storage"
					},
					{
						"astId": 17,
						"contract": "Dapp/MoneyTransfer.sol:MoneyTransfer",
						"label": "cardNumber",
						"offset": 0,
						"slot": "7",
						"type": "t_string_storage"
					},
					{
						"astId": 19,
						"contract": "Dapp/MoneyTransfer.sol:MoneyTransfer",
						"label": "cvv",
						"offset": 0,
						"slot": "8",
						"type": "t_string_storage"
					},
					{
						"astId": 21,
						"contract": "Dapp/MoneyTransfer.sol:MoneyTransfer",
						"label": "TotalAmount",
						"offset": 0,
						"slot": "9",
						"type": "t_uint256"
					},
					{
						"astId": 23,
						"contract": "Dapp/MoneyTransfer.sol:MoneyTransfer",
						"label": "firstTransferTime",
						"offset": 0,
						"slot": "10",
						"type": "t_uint256"
					},
					{
						"astId": 36,
						"contract": "Dapp/MoneyTransfer.sol:MoneyTransfer",
						"label": "callCount",
						"offset": 0,
						"slot": "11",
						"type": "t_uint256"
					},
					{
						"astId": 39,
						"contract": "Dapp/MoneyTransfer.sol:MoneyTransfer",
						"label": "callPutCard",
						"offset": 0,
						"slot": "12",
						"type": "t_bool"
					}
				],
				"types": {
					"t_address": {
						"encoding": "inplace",
						"label": "address",
						"numberOfBytes": "20"
					},
					"t_array(t_struct(Transactions)348_storage)dyn_storage": {
						"base": "t_struct(Transactions)348_storage",
						"encoding": "dynamic_array",
						"label": "struct Transaction.Transactions[]",
						"numberOfBytes": "32"
					},
					"t_bool": {
						"encoding": "inplace",
						"label": "bool",
						"numberOfBytes": "1"
					},
					"t_mapping(t_uint256,t_struct(Transactions)348_storage)": {
						"encoding": "mapping",
						"key": "t_uint256",
						"label": "mapping(uint256 => struct Transaction.Transactions)",
						"numberOfBytes": "32",
						"value": "t_struct(Transactions)348_storage"
					},
					"t_string_storage": {
						"encoding": "bytes",
						"label": "string",
						"numberOfBytes": "32"
					},
					"t_struct(Transactions)348_storage": {
						"encoding": "inplace",
						"label": "struct Transaction.Transactions",
						"members": [
							{
								"astId": 341,
								"contract": "Dapp/MoneyTransfer.sol:MoneyTransfer",
								"label": "address_from",
								"offset": 0,
								"slot": "0",
								"type": "t_address"
							},
							{
								"astId": 343,
								"contract": "Dapp/MoneyTransfer.sol:MoneyTransfer",
								"label": "address_to",
								"offset": 0,
								"slot": "1",
								"type": "t_address"
							},
							{
								"astId": 345,
								"contract": "Dapp/MoneyTransfer.sol:MoneyTransfer",
								"label": "amount",
								"offset": 0,
								"slot": "2",
								"type": "t_uint256"
							},
							{
								"astId": 347,
								"contract": "Dapp/MoneyTransfer.sol:MoneyTransfer",
								"label": "timestamp",
								"offset": 0,
								"slot": "3",
								"type": "t_uint256"
							}
						],
						"numberOfBytes": "128"
					},
					"t_uint256": {
						"encoding": "inplace",
						"label": "uint256",
						"numberOfBytes": "32"
					}
				}
			},
			"userdoc": {
				"kind": "user",
				"methods": {},
				"version": 1
			}
		}
	}
}