{
	"Dapp/MoneyTransfer.sol": {
		"MoneyTransfer": {
			"abi": [
				{
					"inputs": [
						{
							"internalType": "uint256",
							"name": "_totalFunds",
							"type": "uint256"
						}
					],
					"stateMutability": "nonpayable",
					"type": "constructor"
				},
				{
					"inputs": [],
					"name": "TotalAmount",
					"outputs": [
						{
							"internalType": "uint256",
							"name": "",
							"type": "uint256"
						}
					],
					"stateMutability": "view",
					"type": "function"
				},
				{
					"inputs": [],
					"name": "TotalFunds",
					"outputs": [
						{
							"internalType": "uint256",
							"name": "",
							"type": "uint256"
						}
					],
					"stateMutability": "view",
					"type": "function"
				},
				{
					"inputs": [],
					"name": "amount",
					"outputs": [
						{
							"internalType": "uint256",
							"name": "",
							"type": "uint256"
						}
					],
					"stateMutability": "view",
					"type": "function"
				},
				{
					"inputs": [],
					"name": "callCount",
					"outputs": [
						{
							"internalType": "uint256",
							"name": "",
							"type": "uint256"
						}
					],
					"stateMutability": "view",
					"type": "function"
				},
				{
					"inputs": [],
					"name": "callPutCard",
					"outputs": [
						{
							"internalType": "bool",
							"name": "",
							"type": "bool"
						}
					],
					"stateMutability": "view",
					"type": "function"
				},
				{
					"inputs": [],
					"name": "cardNumber",
					"outputs": [
						{
							"internalType": "string",
							"name": "",
							"type": "string"
						}
					],
					"stateMutability": "view",
					"type": "function"
				},
				{
					"inputs": [],
					"name": "cvv",
					"outputs": [
						{
							"internalType": "string",
							"name": "",
							"type": "string"
						}
					],
					"stateMutability": "view",
					"type": "function"
				},
				{
					"inputs": [],
					"name": "firstTransferTime",
					"outputs": [
						{
							"internalType": "uint256",
							"name": "",
							"type": "uint256"
						}
					],
					"stateMutability": "view",
					"type": "function"
				},
				{
					"inputs": [],
					"name": "getOutCard",
					"outputs": [],
					"stateMutability": "nonpayable",
					"type": "function"
				},
				{
					"inputs": [],
					"name": "getTime",
					"outputs": [
						{
							"internalType": "uint256",
							"name": "",
							"type": "uint256"
						}
					],
					"stateMutability": "view",
					"type": "function"
				},
				{
					"inputs": [],
					"name": "message",
					"outputs": [
						{
							"internalType": "string",
							"name": "",
							"type": "string"
						}
					],
					"stateMutability": "view",
					"type": "function"
				},
				{
					"inputs": [
						{
							"internalType": "uint256",
							"name": "_amount",
							"type": "uint256"
						},
						{
							"internalType": "address",
							"name": "_receiver",
							"type": "address"
						}
					],
					"name": "sendMoney",
					"outputs": [],
					"stateMutability": "nonpayable",
					"type": "function"
				},
				{
					"inputs": [
						{
							"internalType": "string",
							"name": "_cardNumber",
							"type": "string"
						},
						{
							"internalType": "string",
							"name": "_cvv",
							"type": "string"
						}
					],
					"name": "setCard",
					"outputs": [],
					"stateMutability": "nonpayable",
					"type": "function"
				}
			],
			"devdoc": {
				"kind": "dev",
				"methods": {},
				"version": 1
			},
			"evm": {
				"assembly": "    /* \"Dapp/MoneyTransfer.sol\":71:4182  contract  MoneyTransfer {... */\n  mstore(0x40, 0x80)\n    /* \"Dapp/MoneyTransfer.sol\":790:791  0 */\n  0x00\n    /* \"Dapp/MoneyTransfer.sol\":766:791  uint public callCount = 0 */\n  0x08\n  sstore\n    /* \"Dapp/MoneyTransfer.sol\":825:830  false */\n  0x00\n    /* \"Dapp/MoneyTransfer.sol\":799:830  bool public callPutCard = false */\n  0x09\n  exp(0x0100, 0x00)\n  dup2\n  sload\n  dup2\n  0xff\n  mul\n  not\n  and\n  swap1\n  dup4\n  iszero\n  iszero\n  mul\n  or\n  swap1\n  sstore\n  pop\n    /* \"Dapp/MoneyTransfer.sol\":615:754  constructor (uint256 _totalFunds) {... */\n  callvalue\n  dup1\n  iszero\n  tag_1\n  jumpi\n  0x00\n  dup1\n  revert\ntag_1:\n  pop\n  mload(0x40)\n  sub(codesize, bytecodeSize)\n  dup1\n  bytecodeSize\n  dup4\n  codecopy\n  dup2\n  dup2\n  add\n  0x40\n  mstore\n  dup2\n  add\n  swap1\n  tag_2\n  swap2\n  swap1\n  tag_3\n  jump\t// in\ntag_2:\n    /* \"Dapp/MoneyTransfer.sol\":735:746  _totalFunds */\n  dup1\n    /* \"Dapp/MoneyTransfer.sol\":722:732  TotalFunds */\n  0x01\n    /* \"Dapp/MoneyTransfer.sol\":722:746  TotalFunds = _totalFunds */\n  dup2\n  swap1\n  sstore\n  pop\n    /* \"Dapp/MoneyTransfer.sol\":615:754  constructor (uint256 _totalFunds) {... */\n  pop\n    /* \"Dapp/MoneyTransfer.sol\":71:4182  contract  MoneyTransfer {... */\n  jump(tag_6)\n    /* \"#utility.yul\":88:205   */\ntag_8:\n    /* \"#utility.yul\":197:198   */\n  0x00\n    /* \"#utility.yul\":194:195   */\n  dup1\n    /* \"#utility.yul\":187:199   */\n  revert\n    /* \"#utility.yul\":334:411   */\ntag_10:\n    /* \"#utility.yul\":371:378   */\n  0x00\n    /* \"#utility.yul\":400:405   */\n  dup2\n    /* \"#utility.yul\":389:405   */\n  swap1\n  pop\n    /* \"#utility.yul\":334:411   */\n  swap2\n  swap1\n  pop\n  jump\t// out\n    /* \"#utility.yul\":417:539   */\ntag_11:\n    /* \"#utility.yul\":490:514   */\n  tag_19\n    /* \"#utility.yul\":508:513   */\n  dup2\n    /* \"#utility.yul\":490:514   */\n  tag_10\n  jump\t// in\ntag_19:\n    /* \"#utility.yul\":483:488   */\n  dup2\n    /* \"#utility.yul\":480:515   */\n  eq\n    /* \"#utility.yul\":470:533   */\n  tag_20\n  jumpi\n    /* \"#utility.yul\":529:530   */\n  0x00\n    /* \"#utility.yul\":526:527   */\n  dup1\n    /* \"#utility.yul\":519:531   */\n  revert\n    /* \"#utility.yul\":470:533   */\ntag_20:\n    /* \"#utility.yul\":417:539   */\n  pop\n  jump\t// out\n    /* \"#utility.yul\":545:688   */\ntag_12:\n    /* \"#utility.yul\":602:607   */\n  0x00\n    /* \"#utility.yul\":633:639   */\n  dup2\n    /* \"#utility.yul\":627:640   */\n  mload\n    /* \"#utility.yul\":618:640   */\n  swap1\n  pop\n    /* \"#utility.yul\":649:682   */\n  tag_22\n    /* \"#utility.yul\":676:681   */\n  dup2\n    /* \"#utility.yul\":649:682   */\n  tag_11\n  jump\t// in\ntag_22:\n    /* \"#utility.yul\":545:688   */\n  swap3\n  swap2\n  pop\n  pop\n  jump\t// out\n    /* \"#utility.yul\":694:1045   */\ntag_3:\n    /* \"#utility.yul\":764:770   */\n  0x00\n    /* \"#utility.yul\":813:815   */\n  0x20\n    /* \"#utility.yul\":801:810   */\n  dup3\n    /* \"#utility.yul\":792:799   */\n  dup5\n    /* \"#utility.yul\":788:811   */\n  sub\n    /* \"#utility.yul\":784:816   */\n  slt\n    /* \"#utility.yul\":781:900   */\n  iszero\n  tag_24\n  jumpi\n    /* \"#utility.yul\":819:898   */\n  tag_25\n  tag_8\n  jump\t// in\ntag_25:\n    /* \"#utility.yul\":781:900   */\ntag_24:\n    /* \"#utility.yul\":939:940   */\n  0x00\n    /* \"#utility.yul\":964:1028   */\n  tag_26\n    /* \"#utility.yul\":1020:1027   */\n  dup5\n    /* \"#utility.yul\":1011:1017   */\n  dup3\n    /* \"#utility.yul\":1000:1009   */\n  dup6\n    /* \"#utility.yul\":996:1018   */\n  add\n    /* \"#utility.yul\":964:1028   */\n  tag_12\n  jump\t// in\ntag_26:\n    /* \"#utility.yul\":954:1028   */\n  swap2\n  pop\n    /* \"#utility.yul\":910:1038   */\n  pop\n    /* \"#utility.yul\":694:1045   */\n  swap3\n  swap2\n  pop\n  pop\n  jump\t// out\n    /* \"Dapp/MoneyTransfer.sol\":71:4182  contract  MoneyTransfer {... */\ntag_6:\n  dataSize(sub_0)\n  dup1\n  dataOffset(sub_0)\n  0x00\n  codecopy\n  0x00\n  return\nstop\n\nsub_0: assembly {\n        /* \"Dapp/MoneyTransfer.sol\":71:4182  contract  MoneyTransfer {... */\n      mstore(0x40, 0x80)\n      callvalue\n      dup1\n      iszero\n      tag_1\n      jumpi\n      0x00\n      dup1\n      revert\n    tag_1:\n      pop\n      jumpi(tag_2, lt(calldatasize, 0x04))\n      shr(0xe0, calldataload(0x00))\n      dup1\n      0x557ed1ba\n      gt\n      tag_16\n      jumpi\n      dup1\n      0x8e029c0b\n      gt\n      tag_17\n      jumpi\n      dup1\n      0x8e029c0b\n      eq\n      tag_12\n      jumpi\n      dup1\n      0x8fa11864\n      eq\n      tag_13\n      jumpi\n      dup1\n      0xaa8c217c\n      eq\n      tag_14\n      jumpi\n      dup1\n      0xe21f37ce\n      eq\n      tag_15\n      jumpi\n      jump(tag_2)\n    tag_17:\n      dup1\n      0x557ed1ba\n      eq\n      tag_9\n      jumpi\n      dup1\n      0x7b9a3f4c\n      eq\n      tag_10\n      jumpi\n      dup1\n      0x7eb9f571\n      eq\n      tag_11\n      jumpi\n      jump(tag_2)\n    tag_16:\n      dup1\n      0x062a7544\n      eq\n      tag_3\n      jumpi\n      dup1\n      0x0e85fa72\n      eq\n      tag_4\n      jumpi\n      dup1\n      0x12a029a4\n      eq\n      tag_5\n      jumpi\n      dup1\n      0x3c626f00\n      eq\n      tag_6\n      jumpi\n      dup1\n      0x42fb7936\n      eq\n      tag_7\n      jumpi\n      dup1\n      0x4b28f9a2\n      eq\n      tag_8\n      jumpi\n    tag_2:\n      0x00\n      dup1\n      revert\n        /* \"Dapp/MoneyTransfer.sol\":840:1684  function sendMoney( uint _amount, address _receiver) public m_validAddress(_receiver) m_ifCardExists m_transferLimit{... */\n    tag_3:\n      tag_18\n      0x04\n      dup1\n      calldatasize\n      sub\n      dup2\n      add\n      swap1\n      tag_19\n      swap2\n      swap1\n      tag_20\n      jump\t// in\n    tag_19:\n      tag_21\n      jump\t// in\n    tag_18:\n      stop\n        /* \"Dapp/MoneyTransfer.sol\":538:567  uint public firstTransferTime */\n    tag_4:\n      tag_22\n      tag_23\n      jump\t// in\n    tag_22:\n      mload(0x40)\n      tag_24\n      swap2\n      swap1\n      tag_25\n      jump\t// in\n    tag_24:\n      mload(0x40)\n      dup1\n      swap2\n      sub\n      swap1\n      return\n        /* \"Dapp/MoneyTransfer.sol\":1692:1957  function setCard(string memory _cardNumber, string memory _cvv) public  m_checkCard {... */\n    tag_5:\n      tag_26\n      0x04\n      dup1\n      calldatasize\n      sub\n      dup2\n      add\n      swap1\n      tag_27\n      swap2\n      swap1\n      tag_28\n      jump\t// in\n    tag_27:\n      tag_29\n      jump\t// in\n    tag_26:\n      stop\n        /* \"Dapp/MoneyTransfer.sol\":799:830  bool public callPutCard = false */\n    tag_6:\n      tag_30\n      tag_31\n      jump\t// in\n    tag_30:\n      mload(0x40)\n      tag_32\n      swap2\n      swap1\n      tag_33\n      jump\t// in\n    tag_32:\n      mload(0x40)\n      dup1\n      swap2\n      sub\n      swap1\n      return\n        /* \"Dapp/MoneyTransfer.sol\":484:501  string public cvv */\n    tag_7:\n      tag_34\n      tag_35\n      jump\t// in\n    tag_34:\n      mload(0x40)\n      tag_36\n      swap2\n      swap1\n      tag_37\n      jump\t// in\n    tag_36:\n      mload(0x40)\n      dup1\n      swap2\n      sub\n      swap1\n      return\n        /* \"Dapp/MoneyTransfer.sol\":766:791  uint public callCount = 0 */\n    tag_8:\n      tag_38\n      tag_39\n      jump\t// in\n    tag_38:\n      mload(0x40)\n      tag_40\n      swap2\n      swap1\n      tag_25\n      jump\t// in\n    tag_40:\n      mload(0x40)\n      dup1\n      swap2\n      sub\n      swap1\n      return\n        /* \"Dapp/MoneyTransfer.sol\":4085:4171  function getTime()public view returns(uint ){... */\n    tag_9:\n      tag_41\n      tag_42\n      jump\t// in\n    tag_41:\n      mload(0x40)\n      tag_43\n      swap2\n      swap1\n      tag_25\n      jump\t// in\n    tag_43:\n      mload(0x40)\n      dup1\n      swap2\n      sub\n      swap1\n      return\n        /* \"Dapp/MoneyTransfer.sol\":134:159  uint256 public TotalFunds */\n    tag_10:\n      tag_44\n      tag_45\n      jump\t// in\n    tag_44:\n      mload(0x40)\n      tag_46\n      swap2\n      swap1\n      tag_25\n      jump\t// in\n    tag_46:\n      mload(0x40)\n      dup1\n      swap2\n      sub\n      swap1\n      return\n        /* \"Dapp/MoneyTransfer.sol\":508:534  uint256 public TotalAmount */\n    tag_11:\n      tag_47\n      tag_48\n      jump\t// in\n    tag_47:\n      mload(0x40)\n      tag_49\n      swap2\n      swap1\n      tag_25\n      jump\t// in\n    tag_49:\n      mload(0x40)\n      dup1\n      swap2\n      sub\n      swap1\n      return\n        /* \"Dapp/MoneyTransfer.sol\":1978:2047  function getOutCard() public  {... */\n    tag_12:\n      tag_50\n      tag_51\n      jump\t// in\n    tag_50:\n      stop\n        /* \"Dapp/MoneyTransfer.sol\":452:476  string public cardNumber */\n    tag_13:\n      tag_52\n      tag_53\n      jump\t// in\n    tag_52:\n      mload(0x40)\n      tag_54\n      swap2\n      swap1\n      tag_37\n      jump\t// in\n    tag_54:\n      mload(0x40)\n      dup1\n      swap2\n      sub\n      swap1\n      return\n        /* \"Dapp/MoneyTransfer.sol\":106:127  uint256 public amount */\n    tag_14:\n      tag_55\n      tag_56\n      jump\t// in\n    tag_55:\n      mload(0x40)\n      tag_57\n      swap2\n      swap1\n      tag_25\n      jump\t// in\n    tag_57:\n      mload(0x40)\n      dup1\n      swap2\n      sub\n      swap1\n      return\n        /* \"Dapp/MoneyTransfer.sol\":424:445  string public message */\n    tag_15:\n      tag_58\n      tag_59\n      jump\t// in\n    tag_58:\n      mload(0x40)\n      tag_60\n      swap2\n      swap1\n      tag_37\n      jump\t// in\n    tag_60:\n      mload(0x40)\n      dup1\n      swap2\n      sub\n      swap1\n      return\n        /* \"Dapp/MoneyTransfer.sol\":840:1684  function sendMoney( uint _amount, address _receiver) public m_validAddress(_receiver) m_ifCardExists m_transferLimit{... */\n    tag_21:\n        /* \"Dapp/MoneyTransfer.sol\":915:924  _receiver */\n      dup1\n        /* \"Dapp/MoneyTransfer.sol\":2128:2133  _addr */\n      dup1\n        /* \"Dapp/MoneyTransfer.sol\":2117:2125  receiver */\n      0x02\n      0x00\n        /* \"Dapp/MoneyTransfer.sol\":2117:2133  receiver = _addr */\n      0x0100\n      exp\n      dup2\n      sload\n      dup2\n      0xffffffffffffffffffffffffffffffffffffffff\n      mul\n      not\n      and\n      swap1\n      dup4\n      0xffffffffffffffffffffffffffffffffffffffff\n      and\n      mul\n      or\n      swap1\n      sstore\n      pop\n        /* \"Dapp/MoneyTransfer.sol\":2169:2170  0 */\n      0x00\n        /* \"Dapp/MoneyTransfer.sol\":2152:2171  _addr != address(0) */\n      0xffffffffffffffffffffffffffffffffffffffff\n      and\n        /* \"Dapp/MoneyTransfer.sol\":2152:2157  _addr */\n      dup2\n        /* \"Dapp/MoneyTransfer.sol\":2152:2171  _addr != address(0) */\n      0xffffffffffffffffffffffffffffffffffffffff\n      and\n      sub\n        /* \"Dapp/MoneyTransfer.sol\":2144:2204  require(_addr != address(0), \" This address doesn't exists\") */\n      tag_62\n      jumpi\n      mload(0x40)\n      0x08c379a000000000000000000000000000000000000000000000000000000000\n      dup2\n      mstore\n      0x04\n      add\n      tag_63\n      swap1\n      tag_64\n      jump\t// in\n    tag_63:\n      mload(0x40)\n      dup1\n      swap2\n      sub\n      swap1\n      revert\n    tag_62:\n        /* \"Dapp/MoneyTransfer.sol\":2303:2308  false */\n      0x00\n        /* \"Dapp/MoneyTransfer.sol\":2288:2308  callPutCard != false */\n      iszero\n      iszero\n        /* \"Dapp/MoneyTransfer.sol\":2288:2299  callPutCard */\n      0x09\n      0x00\n      swap1\n      sload\n      swap1\n      0x0100\n      exp\n      swap1\n      div\n      0xff\n      and\n        /* \"Dapp/MoneyTransfer.sol\":2288:2308  callPutCard != false */\n      iszero\n      iszero\n      sub\n        /* \"Dapp/MoneyTransfer.sol\":2280:2335  require(callPutCard != false,\"Please insert your card\") */\n      tag_66\n      jumpi\n      mload(0x40)\n      0x08c379a000000000000000000000000000000000000000000000000000000000\n      dup2\n      mstore\n      0x04\n      add\n      tag_67\n      swap1\n      tag_68\n      jump\t// in\n    tag_67:\n      mload(0x40)\n      dup1\n      swap2\n      sub\n      swap1\n      revert\n    tag_66:\n        /* \"Dapp/MoneyTransfer.sol\":3615:3616  5 */\n      0x05\n        /* \"Dapp/MoneyTransfer.sol\":3602:3611  callCount */\n      sload(0x08)\n        /* \"Dapp/MoneyTransfer.sol\":3602:3616  callCount >= 5 */\n      lt\n      iszero\n        /* \"Dapp/MoneyTransfer.sol\":3602:3671  callCount >= 5 && block.timestamp <= (firstTransferTime + 30 seconds) */\n      dup1\n      iszero\n      tag_70\n      jumpi\n      pop\n        /* \"Dapp/MoneyTransfer.sol\":3660:3670  30 seconds */\n      0x1e\n        /* \"Dapp/MoneyTransfer.sol\":3640:3657  firstTransferTime */\n      sload(0x07)\n        /* \"Dapp/MoneyTransfer.sol\":3640:3670  firstTransferTime + 30 seconds */\n      tag_71\n      swap2\n      swap1\n      tag_72\n      jump\t// in\n    tag_71:\n        /* \"Dapp/MoneyTransfer.sol\":3620:3635  block.timestamp */\n      timestamp\n        /* \"Dapp/MoneyTransfer.sol\":3620:3671  block.timestamp <= (firstTransferTime + 30 seconds) */\n      gt\n      iszero\n        /* \"Dapp/MoneyTransfer.sol\":3602:3671  callCount >= 5 && block.timestamp <= (firstTransferTime + 30 seconds) */\n    tag_70:\n        /* \"Dapp/MoneyTransfer.sol\":3599:3816  if(callCount >= 5 && block.timestamp <= (firstTransferTime + 30 seconds)){... */\n      iszero\n      tag_73\n      jumpi\n        /* \"Dapp/MoneyTransfer.sol\":3699:3700  0 */\n      0x00\n        /* \"Dapp/MoneyTransfer.sol\":3687:3696  callCount */\n      0x08\n        /* \"Dapp/MoneyTransfer.sol\":3687:3700  callCount = 0 */\n      dup2\n      swap1\n      sstore\n      pop\n        /* \"Dapp/MoneyTransfer.sol\":3735:3736  0 */\n      0x00\n        /* \"Dapp/MoneyTransfer.sol\":3722:3731  callCount */\n      sload(0x08)\n        /* \"Dapp/MoneyTransfer.sol\":3722:3736  callCount == 0 */\n      eq\n        /* \"Dapp/MoneyTransfer.sol\":3715:3737  assert(callCount == 0) */\n      tag_74\n      jumpi\n      tag_75\n      tag_76\n      jump\t// in\n    tag_75:\n    tag_74:\n        /* \"Dapp/MoneyTransfer.sol\":3752:3790  revert(\"only 5 transactions per day\" ) */\n      mload(0x40)\n      0x08c379a000000000000000000000000000000000000000000000000000000000\n      dup2\n      mstore\n      0x04\n      add\n      tag_77\n      swap1\n      tag_78\n      jump\t// in\n    tag_77:\n      mload(0x40)\n      dup1\n      swap2\n      sub\n      swap1\n      revert\n        /* \"Dapp/MoneyTransfer.sol\":3599:3816  if(callCount >= 5 && block.timestamp <= (firstTransferTime + 30 seconds)){... */\n    tag_73:\n        /* \"Dapp/MoneyTransfer.sol\":3844:3845  5 */\n      0x05\n        /* \"Dapp/MoneyTransfer.sol\":3831:3840  callCount */\n      sload(0x08)\n        /* \"Dapp/MoneyTransfer.sol\":3831:3845  callCount <= 5 */\n      gt\n      iszero\n        /* \"Dapp/MoneyTransfer.sol\":3831:3900  callCount <= 5 && block.timestamp >= (firstTransferTime + 30 seconds) */\n      dup1\n      iszero\n      tag_79\n      jumpi\n      pop\n        /* \"Dapp/MoneyTransfer.sol\":3889:3899  30 seconds */\n      0x1e\n        /* \"Dapp/MoneyTransfer.sol\":3869:3886  firstTransferTime */\n      sload(0x07)\n        /* \"Dapp/MoneyTransfer.sol\":3869:3899  firstTransferTime + 30 seconds */\n      tag_80\n      swap2\n      swap1\n      tag_72\n      jump\t// in\n    tag_80:\n        /* \"Dapp/MoneyTransfer.sol\":3849:3864  block.timestamp */\n      timestamp\n        /* \"Dapp/MoneyTransfer.sol\":3849:3900  block.timestamp >= (firstTransferTime + 30 seconds) */\n      lt\n      iszero\n        /* \"Dapp/MoneyTransfer.sol\":3831:3900  callCount <= 5 && block.timestamp >= (firstTransferTime + 30 seconds) */\n    tag_79:\n        /* \"Dapp/MoneyTransfer.sol\":3828:4029  if(callCount <= 5 && block.timestamp >= (firstTransferTime + 30 seconds)){... */\n      iszero\n      tag_81\n      jumpi\n        /* \"Dapp/MoneyTransfer.sol\":3928:3929  0 */\n      0x00\n        /* \"Dapp/MoneyTransfer.sol\":3916:3925  callCount */\n      0x08\n        /* \"Dapp/MoneyTransfer.sol\":3916:3929  callCount = 0 */\n      dup2\n      swap1\n      sstore\n      pop\n        /* \"Dapp/MoneyTransfer.sol\":3965:3966  0 */\n      0x00\n        /* \"Dapp/MoneyTransfer.sol\":3952:3961  callCount */\n      sload(0x08)\n        /* \"Dapp/MoneyTransfer.sol\":3952:3966  callCount == 0 */\n      eq\n        /* \"Dapp/MoneyTransfer.sol\":3945:3967  assert(callCount == 0) */\n      tag_82\n      jumpi\n      tag_83\n      tag_76\n      jump\t// in\n    tag_83:\n    tag_82:\n        /* \"Dapp/MoneyTransfer.sol\":4002:4017  block.timestamp */\n      timestamp\n        /* \"Dapp/MoneyTransfer.sol\":3982:3999  firstTransferTime */\n      0x07\n        /* \"Dapp/MoneyTransfer.sol\":3982:4017  firstTransferTime = block.timestamp */\n      dup2\n      swap1\n      sstore\n      pop\n        /* \"Dapp/MoneyTransfer.sol\":3828:4029  if(callCount <= 5 && block.timestamp >= (firstTransferTime + 30 seconds)){... */\n    tag_81:\n        /* \"Dapp/MoneyTransfer.sol\":978:987  _receiver */\n      dup2\n        /* \"Dapp/MoneyTransfer.sol\":967:975  receiver */\n      0x02\n      0x00\n        /* \"Dapp/MoneyTransfer.sol\":967:987  receiver = _receiver */\n      0x0100\n      exp\n      dup2\n      sload\n      dup2\n      0xffffffffffffffffffffffffffffffffffffffff\n      mul\n      not\n      and\n      swap1\n      dup4\n      0xffffffffffffffffffffffffffffffffffffffff\n      and\n      mul\n      or\n      swap1\n      sstore\n      pop\n        /* \"Dapp/MoneyTransfer.sol\":1007:1014  _amount */\n      dup3\n        /* \"Dapp/MoneyTransfer.sol\":998:1004  amount */\n      0x00\n        /* \"Dapp/MoneyTransfer.sol\":998:1014  amount = _amount */\n      dup2\n      swap1\n      sstore\n      pop\n        /* \"Dapp/MoneyTransfer.sol\":1187:1188  1 */\n      0x01\n        /* \"Dapp/MoneyTransfer.sol\":1174:1183  callCount */\n      0x08\n      0x00\n        /* \"Dapp/MoneyTransfer.sol\":1174:1188  callCount += 1 */\n      dup3\n      dup3\n      sload\n      tag_85\n      swap2\n      swap1\n      tag_72\n      jump\t// in\n    tag_85:\n      swap3\n      pop\n      pop\n      dup2\n      swap1\n      sstore\n      pop\n        /* \"Dapp/MoneyTransfer.sol\":1244:1245  0 */\n      0x00\n        /* \"Dapp/MoneyTransfer.sol\":1231:1241  TotalFunds */\n      sload(0x01)\n        /* \"Dapp/MoneyTransfer.sol\":1231:1245  TotalFunds > 0 */\n      gt\n        /* \"Dapp/MoneyTransfer.sol\":1231:1268  TotalFunds > 0 && TotalFunds > amount */\n      dup1\n      iszero\n      tag_86\n      jumpi\n      pop\n        /* \"Dapp/MoneyTransfer.sol\":1262:1268  amount */\n      sload(0x00)\n        /* \"Dapp/MoneyTransfer.sol\":1249:1259  TotalFunds */\n      sload(0x01)\n        /* \"Dapp/MoneyTransfer.sol\":1249:1268  TotalFunds > amount */\n      gt\n        /* \"Dapp/MoneyTransfer.sol\":1231:1268  TotalFunds > 0 && TotalFunds > amount */\n    tag_86:\n        /* \"Dapp/MoneyTransfer.sol\":1228:1606  if(TotalFunds > 0 && TotalFunds > amount){... */\n      iszero\n      tag_87\n      jumpi\n        /* \"Dapp/MoneyTransfer.sol\":1306:1312  amount */\n      sload(0x00)\n        /* \"Dapp/MoneyTransfer.sol\":1292:1302  TotalFunds */\n      0x01\n      0x00\n        /* \"Dapp/MoneyTransfer.sol\":1292:1312  TotalFunds -= amount */\n      dup3\n      dup3\n      sload\n      tag_88\n      swap2\n      swap1\n      tag_89\n      jump\t// in\n    tag_88:\n      swap3\n      pop\n      pop\n      dup2\n      swap1\n      sstore\n      pop\n        /* \"Dapp/MoneyTransfer.sol\":1350:1356  amount */\n      sload(0x00)\n        /* \"Dapp/MoneyTransfer.sol\":1335:1346  TotalAmount */\n      0x06\n      0x00\n        /* \"Dapp/MoneyTransfer.sol\":1335:1356  TotalAmount += amount */\n      dup3\n      dup3\n      sload\n      tag_90\n      swap2\n      swap1\n      tag_72\n      jump\t// in\n    tag_90:\n      swap3\n      pop\n      pop\n      dup2\n      swap1\n      sstore\n      pop\n        /* \"Dapp/MoneyTransfer.sol\":1401:1431  message = \"Transfer completed\" */\n      mload(0x40)\n      dup1\n      0x40\n      add\n      0x40\n      mstore\n      dup1\n      0x12\n      dup2\n      mstore\n      0x20\n      add\n      0x5472616e7366657220636f6d706c657465640000000000000000000000000000\n      dup2\n      mstore\n      pop\n        /* \"Dapp/MoneyTransfer.sol\":1401:1408  message */\n      0x03\n        /* \"Dapp/MoneyTransfer.sol\":1401:1431  message = \"Transfer completed\" */\n      swap1\n      dup2\n      tag_91\n      swap2\n      swap1\n      tag_92\n      jump\t// in\n    tag_91:\n      pop\n        /* \"Dapp/MoneyTransfer.sol\":1228:1606  if(TotalFunds > 0 && TotalFunds > amount){... */\n      jump(tag_93)\n    tag_87:\n        /* \"Dapp/MoneyTransfer.sol\":1559:1585  revert(\"Not enough funds\") */\n      mload(0x40)\n      0x08c379a000000000000000000000000000000000000000000000000000000000\n      dup2\n      mstore\n      0x04\n      add\n      tag_94\n      swap1\n      tag_95\n      jump\t// in\n    tag_94:\n      mload(0x40)\n      dup1\n      swap2\n      sub\n      swap1\n      revert\n        /* \"Dapp/MoneyTransfer.sol\":1228:1606  if(TotalFunds > 0 && TotalFunds > amount){... */\n    tag_93:\n        /* \"Dapp/MoneyTransfer.sol\":840:1684  function sendMoney( uint _amount, address _receiver) public m_validAddress(_receiver) m_ifCardExists m_transferLimit{... */\n      pop\n      pop\n      pop\n      jump\t// out\n        /* \"Dapp/MoneyTransfer.sol\":538:567  uint public firstTransferTime */\n    tag_23:\n      sload(0x07)\n      dup2\n      jump\t// out\n        /* \"Dapp/MoneyTransfer.sol\":1692:1957  function setCard(string memory _cardNumber, string memory _cvv) public  m_checkCard {... */\n    tag_29:\n        /* \"Dapp/MoneyTransfer.sol\":1806:1817  _cardNumber */\n      dup2\n        /* \"Dapp/MoneyTransfer.sol\":1793:1803  cardNumber */\n      0x04\n        /* \"Dapp/MoneyTransfer.sol\":1793:1817  cardNumber = _cardNumber */\n      swap1\n      dup2\n      tag_98\n      swap2\n      swap1\n      tag_92\n      jump\t// in\n    tag_98:\n      pop\n        /* \"Dapp/MoneyTransfer.sol\":1838:1842  _cvv */\n      dup1\n        /* \"Dapp/MoneyTransfer.sol\":1832:1835  cvv */\n      0x05\n        /* \"Dapp/MoneyTransfer.sol\":1832:1842  cvv = _cvv */\n      swap1\n      dup2\n      tag_99\n      swap2\n      swap1\n      tag_92\n      jump\t// in\n    tag_99:\n      pop\n        /* \"Dapp/MoneyTransfer.sol\":1890:1894  true */\n      0x01\n        /* \"Dapp/MoneyTransfer.sol\":1876:1887  callPutCard */\n      0x09\n      0x00\n        /* \"Dapp/MoneyTransfer.sol\":1876:1894  callPutCard = true */\n      0x0100\n      exp\n      dup2\n      sload\n      dup2\n      0xff\n      mul\n      not\n      and\n      swap1\n      dup4\n      iszero\n      iszero\n      mul\n      or\n      swap1\n      sstore\n      pop\n        /* \"Dapp/MoneyTransfer.sol\":1932:1947  block.timestamp */\n      timestamp\n        /* \"Dapp/MoneyTransfer.sol\":1912:1929  firstTransferTime */\n      0x07\n        /* \"Dapp/MoneyTransfer.sol\":1912:1947  firstTransferTime = block.timestamp */\n      dup2\n      swap1\n      sstore\n      pop\n        /* \"Dapp/MoneyTransfer.sol\":2464:2465  8 */\n      0x08\n        /* \"Dapp/MoneyTransfer.sol\":2442:2452  cardNumber */\n      0x04\n        /* \"Dapp/MoneyTransfer.sol\":2436:2460  bytes(cardNumber).length */\n      dup1\n      sload\n      tag_100\n      swap1\n      tag_101\n      jump\t// in\n    tag_100:\n      swap1\n      pop\n        /* \"Dapp/MoneyTransfer.sol\":2436:2465  bytes(cardNumber).length == 8 */\n      eq\n        /* \"Dapp/MoneyTransfer.sol\":2436:2491  bytes(cardNumber).length == 8 && bytes(cvv).length == 3 */\n      dup1\n      iszero\n      tag_102\n      jumpi\n      pop\n        /* \"Dapp/MoneyTransfer.sol\":2490:2491  3 */\n      0x03\n        /* \"Dapp/MoneyTransfer.sol\":2475:2478  cvv */\n      0x05\n        /* \"Dapp/MoneyTransfer.sol\":2469:2486  bytes(cvv).length */\n      dup1\n      sload\n      tag_103\n      swap1\n      tag_101\n      jump\t// in\n    tag_103:\n      swap1\n      pop\n        /* \"Dapp/MoneyTransfer.sol\":2469:2491  bytes(cvv).length == 3 */\n      eq\n        /* \"Dapp/MoneyTransfer.sol\":2436:2491  bytes(cardNumber).length == 8 && bytes(cvv).length == 3 */\n    tag_102:\n        /* \"Dapp/MoneyTransfer.sol\":2428:2516  require(bytes(cardNumber).length == 8 && bytes(cvv).length == 3, \"No valid credit card\") */\n      tag_104\n      jumpi\n      mload(0x40)\n      0x08c379a000000000000000000000000000000000000000000000000000000000\n      dup2\n      mstore\n      0x04\n      add\n      tag_105\n      swap1\n      tag_106\n      jump\t// in\n    tag_105:\n      mload(0x40)\n      dup1\n      swap2\n      sub\n      swap1\n      revert\n    tag_104:\n        /* \"Dapp/MoneyTransfer.sol\":1692:1957  function setCard(string memory _cardNumber, string memory _cvv) public  m_checkCard {... */\n      pop\n      pop\n      jump\t// out\n        /* \"Dapp/MoneyTransfer.sol\":799:830  bool public callPutCard = false */\n    tag_31:\n      0x09\n      0x00\n      swap1\n      sload\n      swap1\n      0x0100\n      exp\n      swap1\n      div\n      0xff\n      and\n      dup2\n      jump\t// out\n        /* \"Dapp/MoneyTransfer.sol\":484:501  string public cvv */\n    tag_35:\n      0x05\n      dup1\n      sload\n      tag_107\n      swap1\n      tag_101\n      jump\t// in\n    tag_107:\n      dup1\n      0x1f\n      add\n      0x20\n      dup1\n      swap2\n      div\n      mul\n      0x20\n      add\n      mload(0x40)\n      swap1\n      dup2\n      add\n      0x40\n      mstore\n      dup1\n      swap3\n      swap2\n      swap1\n      dup2\n      dup2\n      mstore\n      0x20\n      add\n      dup3\n      dup1\n      sload\n      tag_108\n      swap1\n      tag_101\n      jump\t// in\n    tag_108:\n      dup1\n      iszero\n      tag_109\n      jumpi\n      dup1\n      0x1f\n      lt\n      tag_110\n      jumpi\n      0x0100\n      dup1\n      dup4\n      sload\n      div\n      mul\n      dup4\n      mstore\n      swap2\n      0x20\n      add\n      swap2\n      jump(tag_109)\n    tag_110:\n      dup3\n      add\n      swap2\n      swap1\n      0x00\n      mstore\n      keccak256(0x00, 0x20)\n      swap1\n    tag_111:\n      dup2\n      sload\n      dup2\n      mstore\n      swap1\n      0x01\n      add\n      swap1\n      0x20\n      add\n      dup1\n      dup4\n      gt\n      tag_111\n      jumpi\n      dup3\n      swap1\n      sub\n      0x1f\n      and\n      dup3\n      add\n      swap2\n    tag_109:\n      pop\n      pop\n      pop\n      pop\n      pop\n      dup2\n      jump\t// out\n        /* \"Dapp/MoneyTransfer.sol\":766:791  uint public callCount = 0 */\n    tag_39:\n      sload(0x08)\n      dup2\n      jump\t// out\n        /* \"Dapp/MoneyTransfer.sol\":4085:4171  function getTime()public view returns(uint ){... */\n    tag_42:\n        /* \"Dapp/MoneyTransfer.sol\":4123:4127  uint */\n      0x00\n        /* \"Dapp/MoneyTransfer.sol\":4148:4163  block.timestamp */\n      timestamp\n        /* \"Dapp/MoneyTransfer.sol\":4140:4163  return  block.timestamp */\n      swap1\n      pop\n        /* \"Dapp/MoneyTransfer.sol\":4085:4171  function getTime()public view returns(uint ){... */\n      swap1\n      jump\t// out\n        /* \"Dapp/MoneyTransfer.sol\":134:159  uint256 public TotalFunds */\n    tag_45:\n      sload(0x01)\n      dup2\n      jump\t// out\n        /* \"Dapp/MoneyTransfer.sol\":508:534  uint256 public TotalAmount */\n    tag_48:\n      sload(0x06)\n      dup2\n      jump\t// out\n        /* \"Dapp/MoneyTransfer.sol\":1978:2047  function getOutCard() public  {... */\n    tag_51:\n        /* \"Dapp/MoneyTransfer.sol\":2032:2037  false */\n      0x00\n        /* \"Dapp/MoneyTransfer.sol\":2018:2029  callPutCard */\n      0x09\n      0x00\n        /* \"Dapp/MoneyTransfer.sol\":2018:2037  callPutCard = false */\n      0x0100\n      exp\n      dup2\n      sload\n      dup2\n      0xff\n      mul\n      not\n      and\n      swap1\n      dup4\n      iszero\n      iszero\n      mul\n      or\n      swap1\n      sstore\n      pop\n        /* \"Dapp/MoneyTransfer.sol\":1978:2047  function getOutCard() public  {... */\n      jump\t// out\n        /* \"Dapp/MoneyTransfer.sol\":452:476  string public cardNumber */\n    tag_53:\n      0x04\n      dup1\n      sload\n      tag_114\n      swap1\n      tag_101\n      jump\t// in\n    tag_114:\n      dup1\n      0x1f\n      add\n      0x20\n      dup1\n      swap2\n      div\n      mul\n      0x20\n      add\n      mload(0x40)\n      swap1\n      dup2\n      add\n      0x40\n      mstore\n      dup1\n      swap3\n      swap2\n      swap1\n      dup2\n      dup2\n      mstore\n      0x20\n      add\n      dup3\n      dup1\n      sload\n      tag_115\n      swap1\n      tag_101\n      jump\t// in\n    tag_115:\n      dup1\n      iszero\n      tag_116\n      jumpi\n      dup1\n      0x1f\n      lt\n      tag_117\n      jumpi\n      0x0100\n      dup1\n      dup4\n      sload\n      div\n      mul\n      dup4\n      mstore\n      swap2\n      0x20\n      add\n      swap2\n      jump(tag_116)\n    tag_117:\n      dup3\n      add\n      swap2\n      swap1\n      0x00\n      mstore\n      keccak256(0x00, 0x20)\n      swap1\n    tag_118:\n      dup2\n      sload\n      dup2\n      mstore\n      swap1\n      0x01\n      add\n      swap1\n      0x20\n      add\n      dup1\n      dup4\n      gt\n      tag_118\n      jumpi\n      dup3\n      swap1\n      sub\n      0x1f\n      and\n      dup3\n      add\n      swap2\n    tag_116:\n      pop\n      pop\n      pop\n      pop\n      pop\n      dup2\n      jump\t// out\n        /* \"Dapp/MoneyTransfer.sol\":106:127  uint256 public amount */\n    tag_56:\n      sload(0x00)\n      dup2\n      jump\t// out\n        /* \"Dapp/MoneyTransfer.sol\":424:445  string public message */\n    tag_59:\n      0x03\n      dup1\n      sload\n      tag_119\n      swap1\n      tag_101\n      jump\t// in\n    tag_119:\n      dup1\n      0x1f\n      add\n      0x20\n      dup1\n      swap2\n      div\n      mul\n      0x20\n      add\n      mload(0x40)\n      swap1\n      dup2\n      add\n      0x40\n      mstore\n      dup1\n      swap3\n      swap2\n      swap1\n      dup2\n      dup2\n      mstore\n      0x20\n      add\n      dup3\n      dup1\n      sload\n      tag_120\n      swap1\n      tag_101\n      jump\t// in\n    tag_120:\n      dup1\n      iszero\n      tag_121\n      jumpi\n      dup1\n      0x1f\n      lt\n      tag_122\n      jumpi\n      0x0100\n      dup1\n      dup4\n      sload\n      div\n      mul\n      dup4\n      mstore\n      swap2\n      0x20\n      add\n      swap2\n      jump(tag_121)\n    tag_122:\n      dup3\n      add\n      swap2\n      swap1\n      0x00\n      mstore\n      keccak256(0x00, 0x20)\n      swap1\n    tag_123:\n      dup2\n      sload\n      dup2\n      mstore\n      swap1\n      0x01\n      add\n      swap1\n      0x20\n      add\n      dup1\n      dup4\n      gt\n      tag_123\n      jumpi\n      dup3\n      swap1\n      sub\n      0x1f\n      and\n      dup3\n      add\n      swap2\n    tag_121:\n      pop\n      pop\n      pop\n      pop\n      pop\n      dup2\n      jump\t// out\n        /* \"#utility.yul\":7:82   */\n    tag_124:\n        /* \"#utility.yul\":40:46   */\n      0x00\n        /* \"#utility.yul\":73:75   */\n      0x40\n        /* \"#utility.yul\":67:76   */\n      mload\n        /* \"#utility.yul\":57:76   */\n      swap1\n      pop\n        /* \"#utility.yul\":7:82   */\n      swap1\n      jump\t// out\n        /* \"#utility.yul\":88:205   */\n    tag_125:\n        /* \"#utility.yul\":197:198   */\n      0x00\n        /* \"#utility.yul\":194:195   */\n      dup1\n        /* \"#utility.yul\":187:199   */\n      revert\n        /* \"#utility.yul\":211:328   */\n    tag_126:\n        /* \"#utility.yul\":320:321   */\n      0x00\n        /* \"#utility.yul\":317:318   */\n      dup1\n        /* \"#utility.yul\":310:322   */\n      revert\n        /* \"#utility.yul\":334:411   */\n    tag_127:\n        /* \"#utility.yul\":371:378   */\n      0x00\n        /* \"#utility.yul\":400:405   */\n      dup2\n        /* \"#utility.yul\":389:405   */\n      swap1\n      pop\n        /* \"#utility.yul\":334:411   */\n      swap2\n      swap1\n      pop\n      jump\t// out\n        /* \"#utility.yul\":417:539   */\n    tag_128:\n        /* \"#utility.yul\":490:514   */\n      tag_184\n        /* \"#utility.yul\":508:513   */\n      dup2\n        /* \"#utility.yul\":490:514   */\n      tag_127\n      jump\t// in\n    tag_184:\n        /* \"#utility.yul\":483:488   */\n      dup2\n        /* \"#utility.yul\":480:515   */\n      eq\n        /* \"#utility.yul\":470:533   */\n      tag_185\n      jumpi\n        /* \"#utility.yul\":529:530   */\n      0x00\n        /* \"#utility.yul\":526:527   */\n      dup1\n        /* \"#utility.yul\":519:531   */\n      revert\n        /* \"#utility.yul\":470:533   */\n    tag_185:\n        /* \"#utility.yul\":417:539   */\n      pop\n      jump\t// out\n        /* \"#utility.yul\":545:684   */\n    tag_129:\n        /* \"#utility.yul\":591:596   */\n      0x00\n        /* \"#utility.yul\":629:635   */\n      dup2\n        /* \"#utility.yul\":616:636   */\n      calldataload\n        /* \"#utility.yul\":607:636   */\n      swap1\n      pop\n        /* \"#utility.yul\":645:678   */\n      tag_187\n        /* \"#utility.yul\":672:677   */\n      dup2\n        /* \"#utility.yul\":645:678   */\n      tag_128\n      jump\t// in\n    tag_187:\n        /* \"#utility.yul\":545:684   */\n      swap3\n      swap2\n      pop\n      pop\n      jump\t// out\n        /* \"#utility.yul\":690:816   */\n    tag_130:\n        /* \"#utility.yul\":727:734   */\n      0x00\n        /* \"#utility.yul\":767:809   */\n      0xffffffffffffffffffffffffffffffffffffffff\n        /* \"#utility.yul\":760:765   */\n      dup3\n        /* \"#utility.yul\":756:810   */\n      and\n        /* \"#utility.yul\":745:810   */\n      swap1\n      pop\n        /* \"#utility.yul\":690:816   */\n      swap2\n      swap1\n      pop\n      jump\t// out\n        /* \"#utility.yul\":822:918   */\n    tag_131:\n        /* \"#utility.yul\":859:866   */\n      0x00\n        /* \"#utility.yul\":888:912   */\n      tag_190\n        /* \"#utility.yul\":906:911   */\n      dup3\n        /* \"#utility.yul\":888:912   */\n      tag_130\n      jump\t// in\n    tag_190:\n        /* \"#utility.yul\":877:912   */\n      swap1\n      pop\n        /* \"#utility.yul\":822:918   */\n      swap2\n      swap1\n      pop\n      jump\t// out\n        /* \"#utility.yul\":924:1046   */\n    tag_132:\n        /* \"#utility.yul\":997:1021   */\n      tag_192\n        /* \"#utility.yul\":1015:1020   */\n      dup2\n        /* \"#utility.yul\":997:1021   */\n      tag_131\n      jump\t// in\n    tag_192:\n        /* \"#utility.yul\":990:995   */\n      dup2\n        /* \"#utility.yul\":987:1022   */\n      eq\n        /* \"#utility.yul\":977:1040   */\n      tag_193\n      jumpi\n        /* \"#utility.yul\":1036:1037   */\n      0x00\n        /* \"#utility.yul\":1033:1034   */\n      dup1\n        /* \"#utility.yul\":1026:1038   */\n      revert\n        /* \"#utility.yul\":977:1040   */\n    tag_193:\n        /* \"#utility.yul\":924:1046   */\n      pop\n      jump\t// out\n        /* \"#utility.yul\":1052:1191   */\n    tag_133:\n        /* \"#utility.yul\":1098:1103   */\n      0x00\n        /* \"#utility.yul\":1136:1142   */\n      dup2\n        /* \"#utility.yul\":1123:1143   */\n      calldataload\n        /* \"#utility.yul\":1114:1143   */\n      swap1\n      pop\n        /* \"#utility.yul\":1152:1185   */\n      tag_195\n        /* \"#utility.yul\":1179:1184   */\n      dup2\n        /* \"#utility.yul\":1152:1185   */\n      tag_132\n      jump\t// in\n    tag_195:\n        /* \"#utility.yul\":1052:1191   */\n      swap3\n      swap2\n      pop\n      pop\n      jump\t// out\n        /* \"#utility.yul\":1197:1671   */\n    tag_20:\n        /* \"#utility.yul\":1265:1271   */\n      0x00\n        /* \"#utility.yul\":1273:1279   */\n      dup1\n        /* \"#utility.yul\":1322:1324   */\n      0x40\n        /* \"#utility.yul\":1310:1319   */\n      dup4\n        /* \"#utility.yul\":1301:1308   */\n      dup6\n        /* \"#utility.yul\":1297:1320   */\n      sub\n        /* \"#utility.yul\":1293:1325   */\n      slt\n        /* \"#utility.yul\":1290:1409   */\n      iszero\n      tag_197\n      jumpi\n        /* \"#utility.yul\":1328:1407   */\n      tag_198\n      tag_125\n      jump\t// in\n    tag_198:\n        /* \"#utility.yul\":1290:1409   */\n    tag_197:\n        /* \"#utility.yul\":1448:1449   */\n      0x00\n        /* \"#utility.yul\":1473:1526   */\n      tag_199\n        /* \"#utility.yul\":1518:1525   */\n      dup6\n        /* \"#utility.yul\":1509:1515   */\n      dup3\n        /* \"#utility.yul\":1498:1507   */\n      dup7\n        /* \"#utility.yul\":1494:1516   */\n      add\n        /* \"#utility.yul\":1473:1526   */\n      tag_129\n      jump\t// in\n    tag_199:\n        /* \"#utility.yul\":1463:1526   */\n      swap3\n      pop\n        /* \"#utility.yul\":1419:1536   */\n      pop\n        /* \"#utility.yul\":1575:1577   */\n      0x20\n        /* \"#utility.yul\":1601:1654   */\n      tag_200\n        /* \"#utility.yul\":1646:1653   */\n      dup6\n        /* \"#utility.yul\":1637:1643   */\n      dup3\n        /* \"#utility.yul\":1626:1635   */\n      dup7\n        /* \"#utility.yul\":1622:1644   */\n      add\n        /* \"#utility.yul\":1601:1654   */\n      tag_133\n      jump\t// in\n    tag_200:\n        /* \"#utility.yul\":1591:1654   */\n      swap2\n      pop\n        /* \"#utility.yul\":1546:1664   */\n      pop\n        /* \"#utility.yul\":1197:1671   */\n      swap3\n      pop\n      swap3\n      swap1\n      pop\n      jump\t// out\n        /* \"#utility.yul\":1677:1795   */\n    tag_134:\n        /* \"#utility.yul\":1764:1788   */\n      tag_202\n        /* \"#utility.yul\":1782:1787   */\n      dup2\n        /* \"#utility.yul\":1764:1788   */\n      tag_127\n      jump\t// in\n    tag_202:\n        /* \"#utility.yul\":1759:1762   */\n      dup3\n        /* \"#utility.yul\":1752:1789   */\n      mstore\n        /* \"#utility.yul\":1677:1795   */\n      pop\n      pop\n      jump\t// out\n        /* \"#utility.yul\":1801:2023   */\n    tag_25:\n        /* \"#utility.yul\":1894:1898   */\n      0x00\n        /* \"#utility.yul\":1932:1934   */\n      0x20\n        /* \"#utility.yul\":1921:1930   */\n      dup3\n        /* \"#utility.yul\":1917:1935   */\n      add\n        /* \"#utility.yul\":1909:1935   */\n      swap1\n      pop\n        /* \"#utility.yul\":1945:2016   */\n      tag_204\n        /* \"#utility.yul\":2013:2014   */\n      0x00\n        /* \"#utility.yul\":2002:2011   */\n      dup4\n        /* \"#utility.yul\":1998:2015   */\n      add\n        /* \"#utility.yul\":1989:1995   */\n      dup5\n        /* \"#utility.yul\":1945:2016   */\n      tag_134\n      jump\t// in\n    tag_204:\n        /* \"#utility.yul\":1801:2023   */\n      swap3\n      swap2\n      pop\n      pop\n      jump\t// out\n        /* \"#utility.yul\":2029:2146   */\n    tag_135:\n        /* \"#utility.yul\":2138:2139   */\n      0x00\n        /* \"#utility.yul\":2135:2136   */\n      dup1\n        /* \"#utility.yul\":2128:2140   */\n      revert\n        /* \"#utility.yul\":2152:2269   */\n    tag_136:\n        /* \"#utility.yul\":2261:2262   */\n      0x00\n        /* \"#utility.yul\":2258:2259   */\n      dup1\n        /* \"#utility.yul\":2251:2263   */\n      revert\n        /* \"#utility.yul\":2275:2377   */\n    tag_137:\n        /* \"#utility.yul\":2316:2322   */\n      0x00\n        /* \"#utility.yul\":2367:2369   */\n      0x1f\n        /* \"#utility.yul\":2363:2370   */\n      not\n        /* \"#utility.yul\":2358:2360   */\n      0x1f\n        /* \"#utility.yul\":2351:2356   */\n      dup4\n        /* \"#utility.yul\":2347:2361   */\n      add\n        /* \"#utility.yul\":2343:2371   */\n      and\n        /* \"#utility.yul\":2333:2371   */\n      swap1\n      pop\n        /* \"#utility.yul\":2275:2377   */\n      swap2\n      swap1\n      pop\n      jump\t// out\n        /* \"#utility.yul\":2383:2563   */\n    tag_138:\n        /* \"#utility.yul\":2431:2508   */\n      0x4e487b7100000000000000000000000000000000000000000000000000000000\n        /* \"#utility.yul\":2428:2429   */\n      0x00\n        /* \"#utility.yul\":2421:2509   */\n      mstore\n        /* \"#utility.yul\":2528:2532   */\n      0x41\n        /* \"#utility.yul\":2525:2526   */\n      0x04\n        /* \"#utility.yul\":2518:2533   */\n      mstore\n        /* \"#utility.yul\":2552:2556   */\n      0x24\n        /* \"#utility.yul\":2549:2550   */\n      0x00\n        /* \"#utility.yul\":2542:2557   */\n      revert\n        /* \"#utility.yul\":2569:2850   */\n    tag_139:\n        /* \"#utility.yul\":2652:2679   */\n      tag_210\n        /* \"#utility.yul\":2674:2678   */\n      dup3\n        /* \"#utility.yul\":2652:2679   */\n      tag_137\n      jump\t// in\n    tag_210:\n        /* \"#utility.yul\":2644:2650   */\n      dup2\n        /* \"#utility.yul\":2640:2680   */\n      add\n        /* \"#utility.yul\":2782:2788   */\n      dup2\n        /* \"#utility.yul\":2770:2780   */\n      dup2\n        /* \"#utility.yul\":2767:2789   */\n      lt\n        /* \"#utility.yul\":2746:2764   */\n      0xffffffffffffffff\n        /* \"#utility.yul\":2734:2744   */\n      dup3\n        /* \"#utility.yul\":2731:2765   */\n      gt\n        /* \"#utility.yul\":2728:2790   */\n      or\n        /* \"#utility.yul\":2725:2813   */\n      iszero\n      tag_211\n      jumpi\n        /* \"#utility.yul\":2793:2811   */\n      tag_212\n      tag_138\n      jump\t// in\n    tag_212:\n        /* \"#utility.yul\":2725:2813   */\n    tag_211:\n        /* \"#utility.yul\":2833:2843   */\n      dup1\n        /* \"#utility.yul\":2829:2831   */\n      0x40\n        /* \"#utility.yul\":2822:2844   */\n      mstore\n        /* \"#utility.yul\":2612:2850   */\n      pop\n        /* \"#utility.yul\":2569:2850   */\n      pop\n      pop\n      jump\t// out\n        /* \"#utility.yul\":2856:2985   */\n    tag_140:\n        /* \"#utility.yul\":2890:2896   */\n      0x00\n        /* \"#utility.yul\":2917:2937   */\n      tag_214\n      tag_124\n      jump\t// in\n    tag_214:\n        /* \"#utility.yul\":2907:2937   */\n      swap1\n      pop\n        /* \"#utility.yul\":2946:2979   */\n      tag_215\n        /* \"#utility.yul\":2974:2978   */\n      dup3\n        /* \"#utility.yul\":2966:2972   */\n      dup3\n        /* \"#utility.yul\":2946:2979   */\n      tag_139\n      jump\t// in\n    tag_215:\n        /* \"#utility.yul\":2856:2985   */\n      swap2\n      swap1\n      pop\n      jump\t// out\n        /* \"#utility.yul\":2991:3299   */\n    tag_141:\n        /* \"#utility.yul\":3053:3057   */\n      0x00\n        /* \"#utility.yul\":3143:3161   */\n      0xffffffffffffffff\n        /* \"#utility.yul\":3135:3141   */\n      dup3\n        /* \"#utility.yul\":3132:3162   */\n      gt\n        /* \"#utility.yul\":3129:3185   */\n      iszero\n      tag_217\n      jumpi\n        /* \"#utility.yul\":3165:3183   */\n      tag_218\n      tag_138\n      jump\t// in\n    tag_218:\n        /* \"#utility.yul\":3129:3185   */\n    tag_217:\n        /* \"#utility.yul\":3203:3232   */\n      tag_219\n        /* \"#utility.yul\":3225:3231   */\n      dup3\n        /* \"#utility.yul\":3203:3232   */\n      tag_137\n      jump\t// in\n    tag_219:\n        /* \"#utility.yul\":3195:3232   */\n      swap1\n      pop\n        /* \"#utility.yul\":3287:3291   */\n      0x20\n        /* \"#utility.yul\":3281:3285   */\n      dup2\n        /* \"#utility.yul\":3277:3292   */\n      add\n        /* \"#utility.yul\":3269:3292   */\n      swap1\n      pop\n        /* \"#utility.yul\":2991:3299   */\n      swap2\n      swap1\n      pop\n      jump\t// out\n        /* \"#utility.yul\":3305:3459   */\n    tag_142:\n        /* \"#utility.yul\":3389:3395   */\n      dup3\n        /* \"#utility.yul\":3384:3387   */\n      dup2\n        /* \"#utility.yul\":3379:3382   */\n      dup4\n        /* \"#utility.yul\":3366:3396   */\n      calldatacopy\n        /* \"#utility.yul\":3451:3452   */\n      0x00\n        /* \"#utility.yul\":3442:3448   */\n      dup4\n        /* \"#utility.yul\":3437:3440   */\n      dup4\n        /* \"#utility.yul\":3433:3449   */\n      add\n        /* \"#utility.yul\":3426:3453   */\n      mstore\n        /* \"#utility.yul\":3305:3459   */\n      pop\n      pop\n      pop\n      jump\t// out\n        /* \"#utility.yul\":3465:3877   */\n    tag_143:\n        /* \"#utility.yul\":3543:3548   */\n      0x00\n        /* \"#utility.yul\":3568:3634   */\n      tag_222\n        /* \"#utility.yul\":3584:3633   */\n      tag_223\n        /* \"#utility.yul\":3626:3632   */\n      dup5\n        /* \"#utility.yul\":3584:3633   */\n      tag_141\n      jump\t// in\n    tag_223:\n        /* \"#utility.yul\":3568:3634   */\n      tag_140\n      jump\t// in\n    tag_222:\n        /* \"#utility.yul\":3559:3634   */\n      swap1\n      pop\n        /* \"#utility.yul\":3657:3663   */\n      dup3\n        /* \"#utility.yul\":3650:3655   */\n      dup2\n        /* \"#utility.yul\":3643:3664   */\n      mstore\n        /* \"#utility.yul\":3695:3699   */\n      0x20\n        /* \"#utility.yul\":3688:3693   */\n      dup2\n        /* \"#utility.yul\":3684:3700   */\n      add\n        /* \"#utility.yul\":3733:3736   */\n      dup5\n        /* \"#utility.yul\":3724:3730   */\n      dup5\n        /* \"#utility.yul\":3719:3722   */\n      dup5\n        /* \"#utility.yul\":3715:3731   */\n      add\n        /* \"#utility.yul\":3712:3737   */\n      gt\n        /* \"#utility.yul\":3709:3821   */\n      iszero\n      tag_224\n      jumpi\n        /* \"#utility.yul\":3740:3819   */\n      tag_225\n      tag_136\n      jump\t// in\n    tag_225:\n        /* \"#utility.yul\":3709:3821   */\n    tag_224:\n        /* \"#utility.yul\":3830:3871   */\n      tag_226\n        /* \"#utility.yul\":3864:3870   */\n      dup5\n        /* \"#utility.yul\":3859:3862   */\n      dup3\n        /* \"#utility.yul\":3854:3857   */\n      dup6\n        /* \"#utility.yul\":3830:3871   */\n      tag_142\n      jump\t// in\n    tag_226:\n        /* \"#utility.yul\":3549:3877   */\n      pop\n        /* \"#utility.yul\":3465:3877   */\n      swap4\n      swap3\n      pop\n      pop\n      pop\n      jump\t// out\n        /* \"#utility.yul\":3897:4237   */\n    tag_144:\n        /* \"#utility.yul\":3953:3958   */\n      0x00\n        /* \"#utility.yul\":4002:4005   */\n      dup3\n        /* \"#utility.yul\":3995:3999   */\n      0x1f\n        /* \"#utility.yul\":3987:3993   */\n      dup4\n        /* \"#utility.yul\":3983:4000   */\n      add\n        /* \"#utility.yul\":3979:4006   */\n      slt\n        /* \"#utility.yul\":3969:4091   */\n      tag_228\n      jumpi\n        /* \"#utility.yul\":4010:4089   */\n      tag_229\n      tag_135\n      jump\t// in\n    tag_229:\n        /* \"#utility.yul\":3969:4091   */\n    tag_228:\n        /* \"#utility.yul\":4127:4133   */\n      dup2\n        /* \"#utility.yul\":4114:4134   */\n      calldataload\n        /* \"#utility.yul\":4152:4231   */\n      tag_230\n        /* \"#utility.yul\":4227:4230   */\n      dup5\n        /* \"#utility.yul\":4219:4225   */\n      dup3\n        /* \"#utility.yul\":4212:4216   */\n      0x20\n        /* \"#utility.yul\":4204:4210   */\n      dup7\n        /* \"#utility.yul\":4200:4217   */\n      add\n        /* \"#utility.yul\":4152:4231   */\n      tag_143\n      jump\t// in\n    tag_230:\n        /* \"#utility.yul\":4143:4231   */\n      swap2\n      pop\n        /* \"#utility.yul\":3959:4237   */\n      pop\n        /* \"#utility.yul\":3897:4237   */\n      swap3\n      swap2\n      pop\n      pop\n      jump\t// out\n        /* \"#utility.yul\":4243:5077   */\n    tag_28:\n        /* \"#utility.yul\":4331:4337   */\n      0x00\n        /* \"#utility.yul\":4339:4345   */\n      dup1\n        /* \"#utility.yul\":4388:4390   */\n      0x40\n        /* \"#utility.yul\":4376:4385   */\n      dup4\n        /* \"#utility.yul\":4367:4374   */\n      dup6\n        /* \"#utility.yul\":4363:4386   */\n      sub\n        /* \"#utility.yul\":4359:4391   */\n      slt\n        /* \"#utility.yul\":4356:4475   */\n      iszero\n      tag_232\n      jumpi\n        /* \"#utility.yul\":4394:4473   */\n      tag_233\n      tag_125\n      jump\t// in\n    tag_233:\n        /* \"#utility.yul\":4356:4475   */\n    tag_232:\n        /* \"#utility.yul\":4542:4543   */\n      0x00\n        /* \"#utility.yul\":4531:4540   */\n      dup4\n        /* \"#utility.yul\":4527:4544   */\n      add\n        /* \"#utility.yul\":4514:4545   */\n      calldataload\n        /* \"#utility.yul\":4572:4590   */\n      0xffffffffffffffff\n        /* \"#utility.yul\":4564:4570   */\n      dup2\n        /* \"#utility.yul\":4561:4591   */\n      gt\n        /* \"#utility.yul\":4558:4675   */\n      iszero\n      tag_234\n      jumpi\n        /* \"#utility.yul\":4594:4673   */\n      tag_235\n      tag_126\n      jump\t// in\n    tag_235:\n        /* \"#utility.yul\":4558:4675   */\n    tag_234:\n        /* \"#utility.yul\":4699:4762   */\n      tag_236\n        /* \"#utility.yul\":4754:4761   */\n      dup6\n        /* \"#utility.yul\":4745:4751   */\n      dup3\n        /* \"#utility.yul\":4734:4743   */\n      dup7\n        /* \"#utility.yul\":4730:4752   */\n      add\n        /* \"#utility.yul\":4699:4762   */\n      tag_144\n      jump\t// in\n    tag_236:\n        /* \"#utility.yul\":4689:4762   */\n      swap3\n      pop\n        /* \"#utility.yul\":4485:4772   */\n      pop\n        /* \"#utility.yul\":4839:4841   */\n      0x20\n        /* \"#utility.yul\":4828:4837   */\n      dup4\n        /* \"#utility.yul\":4824:4842   */\n      add\n        /* \"#utility.yul\":4811:4843   */\n      calldataload\n        /* \"#utility.yul\":4870:4888   */\n      0xffffffffffffffff\n        /* \"#utility.yul\":4862:4868   */\n      dup2\n        /* \"#utility.yul\":4859:4889   */\n      gt\n        /* \"#utility.yul\":4856:4973   */\n      iszero\n      tag_237\n      jumpi\n        /* \"#utility.yul\":4892:4971   */\n      tag_238\n      tag_126\n      jump\t// in\n    tag_238:\n        /* \"#utility.yul\":4856:4973   */\n    tag_237:\n        /* \"#utility.yul\":4997:5060   */\n      tag_239\n        /* \"#utility.yul\":5052:5059   */\n      dup6\n        /* \"#utility.yul\":5043:5049   */\n      dup3\n        /* \"#utility.yul\":5032:5041   */\n      dup7\n        /* \"#utility.yul\":5028:5050   */\n      add\n        /* \"#utility.yul\":4997:5060   */\n      tag_144\n      jump\t// in\n    tag_239:\n        /* \"#utility.yul\":4987:5060   */\n      swap2\n      pop\n        /* \"#utility.yul\":4782:5070   */\n      pop\n        /* \"#utility.yul\":4243:5077   */\n      swap3\n      pop\n      swap3\n      swap1\n      pop\n      jump\t// out\n        /* \"#utility.yul\":5083:5173   */\n    tag_145:\n        /* \"#utility.yul\":5117:5124   */\n      0x00\n        /* \"#utility.yul\":5160:5165   */\n      dup2\n        /* \"#utility.yul\":5153:5166   */\n      iszero\n        /* \"#utility.yul\":5146:5167   */\n      iszero\n        /* \"#utility.yul\":5135:5167   */\n      swap1\n      pop\n        /* \"#utility.yul\":5083:5173   */\n      swap2\n      swap1\n      pop\n      jump\t// out\n        /* \"#utility.yul\":5179:5288   */\n    tag_146:\n        /* \"#utility.yul\":5260:5281   */\n      tag_242\n        /* \"#utility.yul\":5275:5280   */\n      dup2\n        /* \"#utility.yul\":5260:5281   */\n      tag_145\n      jump\t// in\n    tag_242:\n        /* \"#utility.yul\":5255:5258   */\n      dup3\n        /* \"#utility.yul\":5248:5282   */\n      mstore\n        /* \"#utility.yul\":5179:5288   */\n      pop\n      pop\n      jump\t// out\n        /* \"#utility.yul\":5294:5504   */\n    tag_33:\n        /* \"#utility.yul\":5381:5385   */\n      0x00\n        /* \"#utility.yul\":5419:5421   */\n      0x20\n        /* \"#utility.yul\":5408:5417   */\n      dup3\n        /* \"#utility.yul\":5404:5422   */\n      add\n        /* \"#utility.yul\":5396:5422   */\n      swap1\n      pop\n        /* \"#utility.yul\":5432:5497   */\n      tag_244\n        /* \"#utility.yul\":5494:5495   */\n      0x00\n        /* \"#utility.yul\":5483:5492   */\n      dup4\n        /* \"#utility.yul\":5479:5496   */\n      add\n        /* \"#utility.yul\":5470:5476   */\n      dup5\n        /* \"#utility.yul\":5432:5497   */\n      tag_146\n      jump\t// in\n    tag_244:\n        /* \"#utility.yul\":5294:5504   */\n      swap3\n      swap2\n      pop\n      pop\n      jump\t// out\n        /* \"#utility.yul\":5510:5609   */\n    tag_147:\n        /* \"#utility.yul\":5562:5568   */\n      0x00\n        /* \"#utility.yul\":5596:5601   */\n      dup2\n        /* \"#utility.yul\":5590:5602   */\n      mload\n        /* \"#utility.yul\":5580:5602   */\n      swap1\n      pop\n        /* \"#utility.yul\":5510:5609   */\n      swap2\n      swap1\n      pop\n      jump\t// out\n        /* \"#utility.yul\":5615:5784   */\n    tag_148:\n        /* \"#utility.yul\":5699:5710   */\n      0x00\n        /* \"#utility.yul\":5733:5739   */\n      dup3\n        /* \"#utility.yul\":5728:5731   */\n      dup3\n        /* \"#utility.yul\":5721:5740   */\n      mstore\n        /* \"#utility.yul\":5773:5777   */\n      0x20\n        /* \"#utility.yul\":5768:5771   */\n      dup3\n        /* \"#utility.yul\":5764:5778   */\n      add\n        /* \"#utility.yul\":5749:5778   */\n      swap1\n      pop\n        /* \"#utility.yul\":5615:5784   */\n      swap3\n      swap2\n      pop\n      pop\n      jump\t// out\n        /* \"#utility.yul\":5790:6097   */\n    tag_149:\n        /* \"#utility.yul\":5858:5859   */\n      0x00\n        /* \"#utility.yul\":5868:5981   */\n    tag_248:\n        /* \"#utility.yul\":5882:5888   */\n      dup4\n        /* \"#utility.yul\":5879:5880   */\n      dup2\n        /* \"#utility.yul\":5876:5889   */\n      lt\n        /* \"#utility.yul\":5868:5981   */\n      iszero\n      tag_250\n      jumpi\n        /* \"#utility.yul\":5967:5968   */\n      dup1\n        /* \"#utility.yul\":5962:5965   */\n      dup3\n        /* \"#utility.yul\":5958:5969   */\n      add\n        /* \"#utility.yul\":5952:5970   */\n      mload\n        /* \"#utility.yul\":5948:5949   */\n      dup2\n        /* \"#utility.yul\":5943:5946   */\n      dup5\n        /* \"#utility.yul\":5939:5950   */\n      add\n        /* \"#utility.yul\":5932:5971   */\n      mstore\n        /* \"#utility.yul\":5904:5906   */\n      0x20\n        /* \"#utility.yul\":5901:5902   */\n      dup2\n        /* \"#utility.yul\":5897:5907   */\n      add\n        /* \"#utility.yul\":5892:5907   */\n      swap1\n      pop\n        /* \"#utility.yul\":5868:5981   */\n      jump(tag_248)\n    tag_250:\n        /* \"#utility.yul\":5999:6005   */\n      dup4\n        /* \"#utility.yul\":5996:5997   */\n      dup2\n        /* \"#utility.yul\":5993:6006   */\n      gt\n        /* \"#utility.yul\":5990:6091   */\n      iszero\n      tag_251\n      jumpi\n        /* \"#utility.yul\":6079:6080   */\n      0x00\n        /* \"#utility.yul\":6070:6076   */\n      dup5\n        /* \"#utility.yul\":6065:6068   */\n      dup5\n        /* \"#utility.yul\":6061:6077   */\n      add\n        /* \"#utility.yul\":6054:6081   */\n      mstore\n        /* \"#utility.yul\":5990:6091   */\n    tag_251:\n        /* \"#utility.yul\":5839:6097   */\n      pop\n        /* \"#utility.yul\":5790:6097   */\n      pop\n      pop\n      pop\n      jump\t// out\n        /* \"#utility.yul\":6103:6467   */\n    tag_150:\n        /* \"#utility.yul\":6191:6194   */\n      0x00\n        /* \"#utility.yul\":6219:6258   */\n      tag_253\n        /* \"#utility.yul\":6252:6257   */\n      dup3\n        /* \"#utility.yul\":6219:6258   */\n      tag_147\n      jump\t// in\n    tag_253:\n        /* \"#utility.yul\":6274:6345   */\n      tag_254\n        /* \"#utility.yul\":6338:6344   */\n      dup2\n        /* \"#utility.yul\":6333:6336   */\n      dup6\n        /* \"#utility.yul\":6274:6345   */\n      tag_148\n      jump\t// in\n    tag_254:\n        /* \"#utility.yul\":6267:6345   */\n      swap4\n      pop\n        /* \"#utility.yul\":6354:6406   */\n      tag_255\n        /* \"#utility.yul\":6399:6405   */\n      dup2\n        /* \"#utility.yul\":6394:6397   */\n      dup6\n        /* \"#utility.yul\":6387:6391   */\n      0x20\n        /* \"#utility.yul\":6380:6385   */\n      dup7\n        /* \"#utility.yul\":6376:6392   */\n      add\n        /* \"#utility.yul\":6354:6406   */\n      tag_149\n      jump\t// in\n    tag_255:\n        /* \"#utility.yul\":6431:6460   */\n      tag_256\n        /* \"#utility.yul\":6453:6459   */\n      dup2\n        /* \"#utility.yul\":6431:6460   */\n      tag_137\n      jump\t// in\n    tag_256:\n        /* \"#utility.yul\":6426:6429   */\n      dup5\n        /* \"#utility.yul\":6422:6461   */\n      add\n        /* \"#utility.yul\":6415:6461   */\n      swap2\n      pop\n        /* \"#utility.yul\":6195:6467   */\n      pop\n        /* \"#utility.yul\":6103:6467   */\n      swap3\n      swap2\n      pop\n      pop\n      jump\t// out\n        /* \"#utility.yul\":6473:6786   */\n    tag_37:\n        /* \"#utility.yul\":6586:6590   */\n      0x00\n        /* \"#utility.yul\":6624:6626   */\n      0x20\n        /* \"#utility.yul\":6613:6622   */\n      dup3\n        /* \"#utility.yul\":6609:6627   */\n      add\n        /* \"#utility.yul\":6601:6627   */\n      swap1\n      pop\n        /* \"#utility.yul\":6673:6682   */\n      dup2\n        /* \"#utility.yul\":6667:6671   */\n      dup2\n        /* \"#utility.yul\":6663:6683   */\n      sub\n        /* \"#utility.yul\":6659:6660   */\n      0x00\n        /* \"#utility.yul\":6648:6657   */\n      dup4\n        /* \"#utility.yul\":6644:6661   */\n      add\n        /* \"#utility.yul\":6637:6684   */\n      mstore\n        /* \"#utility.yul\":6701:6779   */\n      tag_258\n        /* \"#utility.yul\":6774:6778   */\n      dup2\n        /* \"#utility.yul\":6765:6771   */\n      dup5\n        /* \"#utility.yul\":6701:6779   */\n      tag_150\n      jump\t// in\n    tag_258:\n        /* \"#utility.yul\":6693:6779   */\n      swap1\n      pop\n        /* \"#utility.yul\":6473:6786   */\n      swap3\n      swap2\n      pop\n      pop\n      jump\t// out\n        /* \"#utility.yul\":6792:6970   */\n    tag_151:\n        /* \"#utility.yul\":6932:6962   */\n      0x2054686973206164647265737320646f65736e27742065786973747300000000\n        /* \"#utility.yul\":6928:6929   */\n      0x00\n        /* \"#utility.yul\":6920:6926   */\n      dup3\n        /* \"#utility.yul\":6916:6930   */\n      add\n        /* \"#utility.yul\":6909:6963   */\n      mstore\n        /* \"#utility.yul\":6792:6970   */\n      pop\n      jump\t// out\n        /* \"#utility.yul\":6976:7342   */\n    tag_152:\n        /* \"#utility.yul\":7118:7121   */\n      0x00\n        /* \"#utility.yul\":7139:7206   */\n      tag_261\n        /* \"#utility.yul\":7203:7205   */\n      0x1c\n        /* \"#utility.yul\":7198:7201   */\n      dup4\n        /* \"#utility.yul\":7139:7206   */\n      tag_148\n      jump\t// in\n    tag_261:\n        /* \"#utility.yul\":7132:7206   */\n      swap2\n      pop\n        /* \"#utility.yul\":7215:7308   */\n      tag_262\n        /* \"#utility.yul\":7304:7307   */\n      dup3\n        /* \"#utility.yul\":7215:7308   */\n      tag_151\n      jump\t// in\n    tag_262:\n        /* \"#utility.yul\":7333:7335   */\n      0x20\n        /* \"#utility.yul\":7328:7331   */\n      dup3\n        /* \"#utility.yul\":7324:7336   */\n      add\n        /* \"#utility.yul\":7317:7336   */\n      swap1\n      pop\n        /* \"#utility.yul\":6976:7342   */\n      swap2\n      swap1\n      pop\n      jump\t// out\n        /* \"#utility.yul\":7348:7767   */\n    tag_64:\n        /* \"#utility.yul\":7514:7518   */\n      0x00\n        /* \"#utility.yul\":7552:7554   */\n      0x20\n        /* \"#utility.yul\":7541:7550   */\n      dup3\n        /* \"#utility.yul\":7537:7555   */\n      add\n        /* \"#utility.yul\":7529:7555   */\n      swap1\n      pop\n        /* \"#utility.yul\":7601:7610   */\n      dup2\n        /* \"#utility.yul\":7595:7599   */\n      dup2\n        /* \"#utility.yul\":7591:7611   */\n      sub\n        /* \"#utility.yul\":7587:7588   */\n      0x00\n        /* \"#utility.yul\":7576:7585   */\n      dup4\n        /* \"#utility.yul\":7572:7589   */\n      add\n        /* \"#utility.yul\":7565:7612   */\n      mstore\n        /* \"#utility.yul\":7629:7760   */\n      tag_264\n        /* \"#utility.yul\":7755:7759   */\n      dup2\n        /* \"#utility.yul\":7629:7760   */\n      tag_152\n      jump\t// in\n    tag_264:\n        /* \"#utility.yul\":7621:7760   */\n      swap1\n      pop\n        /* \"#utility.yul\":7348:7767   */\n      swap2\n      swap1\n      pop\n      jump\t// out\n        /* \"#utility.yul\":7773:7946   */\n    tag_153:\n        /* \"#utility.yul\":7913:7938   */\n      0x506c6561736520696e7365727420796f75722063617264000000000000000000\n        /* \"#utility.yul\":7909:7910   */\n      0x00\n        /* \"#utility.yul\":7901:7907   */\n      dup3\n        /* \"#utility.yul\":7897:7911   */\n      add\n        /* \"#utility.yul\":7890:7939   */\n      mstore\n        /* \"#utility.yul\":7773:7946   */\n      pop\n      jump\t// out\n        /* \"#utility.yul\":7952:8318   */\n    tag_154:\n        /* \"#utility.yul\":8094:8097   */\n      0x00\n        /* \"#utility.yul\":8115:8182   */\n      tag_267\n        /* \"#utility.yul\":8179:8181   */\n      0x17\n        /* \"#utility.yul\":8174:8177   */\n      dup4\n        /* \"#utility.yul\":8115:8182   */\n      tag_148\n      jump\t// in\n    tag_267:\n        /* \"#utility.yul\":8108:8182   */\n      swap2\n      pop\n        /* \"#utility.yul\":8191:8284   */\n      tag_268\n        /* \"#utility.yul\":8280:8283   */\n      dup3\n        /* \"#utility.yul\":8191:8284   */\n      tag_153\n      jump\t// in\n    tag_268:\n        /* \"#utility.yul\":8309:8311   */\n      0x20\n        /* \"#utility.yul\":8304:8307   */\n      dup3\n        /* \"#utility.yul\":8300:8312   */\n      add\n        /* \"#utility.yul\":8293:8312   */\n      swap1\n      pop\n        /* \"#utility.yul\":7952:8318   */\n      swap2\n      swap1\n      pop\n      jump\t// out\n        /* \"#utility.yul\":8324:8743   */\n    tag_68:\n        /* \"#utility.yul\":8490:8494   */\n      0x00\n        /* \"#utility.yul\":8528:8530   */\n      0x20\n        /* \"#utility.yul\":8517:8526   */\n      dup3\n        /* \"#utility.yul\":8513:8531   */\n      add\n        /* \"#utility.yul\":8505:8531   */\n      swap1\n      pop\n        /* \"#utility.yul\":8577:8586   */\n      dup2\n        /* \"#utility.yul\":8571:8575   */\n      dup2\n        /* \"#utility.yul\":8567:8587   */\n      sub\n        /* \"#utility.yul\":8563:8564   */\n      0x00\n        /* \"#utility.yul\":8552:8561   */\n      dup4\n        /* \"#utility.yul\":8548:8565   */\n      add\n        /* \"#utility.yul\":8541:8588   */\n      mstore\n        /* \"#utility.yul\":8605:8736   */\n      tag_270\n        /* \"#utility.yul\":8731:8735   */\n      dup2\n        /* \"#utility.yul\":8605:8736   */\n      tag_154\n      jump\t// in\n    tag_270:\n        /* \"#utility.yul\":8597:8736   */\n      swap1\n      pop\n        /* \"#utility.yul\":8324:8743   */\n      swap2\n      swap1\n      pop\n      jump\t// out\n        /* \"#utility.yul\":8749:8929   */\n    tag_155:\n        /* \"#utility.yul\":8797:8874   */\n      0x4e487b7100000000000000000000000000000000000000000000000000000000\n        /* \"#utility.yul\":8794:8795   */\n      0x00\n        /* \"#utility.yul\":8787:8875   */\n      mstore\n        /* \"#utility.yul\":8894:8898   */\n      0x11\n        /* \"#utility.yul\":8891:8892   */\n      0x04\n        /* \"#utility.yul\":8884:8899   */\n      mstore\n        /* \"#utility.yul\":8918:8922   */\n      0x24\n        /* \"#utility.yul\":8915:8916   */\n      0x00\n        /* \"#utility.yul\":8908:8923   */\n      revert\n        /* \"#utility.yul\":8935:9240   */\n    tag_72:\n        /* \"#utility.yul\":8975:8978   */\n      0x00\n        /* \"#utility.yul\":8994:9014   */\n      tag_273\n        /* \"#utility.yul\":9012:9013   */\n      dup3\n        /* \"#utility.yul\":8994:9014   */\n      tag_127\n      jump\t// in\n    tag_273:\n        /* \"#utility.yul\":8989:9014   */\n      swap2\n      pop\n        /* \"#utility.yul\":9028:9048   */\n      tag_274\n        /* \"#utility.yul\":9046:9047   */\n      dup4\n        /* \"#utility.yul\":9028:9048   */\n      tag_127\n      jump\t// in\n    tag_274:\n        /* \"#utility.yul\":9023:9048   */\n      swap3\n      pop\n        /* \"#utility.yul\":9182:9183   */\n      dup3\n        /* \"#utility.yul\":9114:9180   */\n      0xffffffffffffffffffffffffffffffffffffffffffffffffffffffffffffffff\n        /* \"#utility.yul\":9110:9184   */\n      sub\n        /* \"#utility.yul\":9107:9108   */\n      dup3\n        /* \"#utility.yul\":9104:9185   */\n      gt\n        /* \"#utility.yul\":9101:9208   */\n      iszero\n      tag_275\n      jumpi\n        /* \"#utility.yul\":9188:9206   */\n      tag_276\n      tag_155\n      jump\t// in\n    tag_276:\n        /* \"#utility.yul\":9101:9208   */\n    tag_275:\n        /* \"#utility.yul\":9232:9233   */\n      dup3\n        /* \"#utility.yul\":9229:9230   */\n      dup3\n        /* \"#utility.yul\":9225:9234   */\n      add\n        /* \"#utility.yul\":9218:9234   */\n      swap1\n      pop\n        /* \"#utility.yul\":8935:9240   */\n      swap3\n      swap2\n      pop\n      pop\n      jump\t// out\n        /* \"#utility.yul\":9246:9426   */\n    tag_76:\n        /* \"#utility.yul\":9294:9371   */\n      0x4e487b7100000000000000000000000000000000000000000000000000000000\n        /* \"#utility.yul\":9291:9292   */\n      0x00\n        /* \"#utility.yul\":9284:9372   */\n      mstore\n        /* \"#utility.yul\":9391:9395   */\n      0x01\n        /* \"#utility.yul\":9388:9389   */\n      0x04\n        /* \"#utility.yul\":9381:9396   */\n      mstore\n        /* \"#utility.yul\":9415:9419   */\n      0x24\n        /* \"#utility.yul\":9412:9413   */\n      0x00\n        /* \"#utility.yul\":9405:9420   */\n      revert\n        /* \"#utility.yul\":9432:9609   */\n    tag_156:\n        /* \"#utility.yul\":9572:9601   */\n      0x6f6e6c792035207472616e73616374696f6e7320706572206461790000000000\n        /* \"#utility.yul\":9568:9569   */\n      0x00\n        /* \"#utility.yul\":9560:9566   */\n      dup3\n        /* \"#utility.yul\":9556:9570   */\n      add\n        /* \"#utility.yul\":9549:9602   */\n      mstore\n        /* \"#utility.yul\":9432:9609   */\n      pop\n      jump\t// out\n        /* \"#utility.yul\":9615:9981   */\n    tag_157:\n        /* \"#utility.yul\":9757:9760   */\n      0x00\n        /* \"#utility.yul\":9778:9845   */\n      tag_280\n        /* \"#utility.yul\":9842:9844   */\n      0x1b\n        /* \"#utility.yul\":9837:9840   */\n      dup4\n        /* \"#utility.yul\":9778:9845   */\n      tag_148\n      jump\t// in\n    tag_280:\n        /* \"#utility.yul\":9771:9845   */\n      swap2\n      pop\n        /* \"#utility.yul\":9854:9947   */\n      tag_281\n        /* \"#utility.yul\":9943:9946   */\n      dup3\n        /* \"#utility.yul\":9854:9947   */\n      tag_156\n      jump\t// in\n    tag_281:\n        /* \"#utility.yul\":9972:9974   */\n      0x20\n        /* \"#utility.yul\":9967:9970   */\n      dup3\n        /* \"#utility.yul\":9963:9975   */\n      add\n        /* \"#utility.yul\":9956:9975   */\n      swap1\n      pop\n        /* \"#utility.yul\":9615:9981   */\n      swap2\n      swap1\n      pop\n      jump\t// out\n        /* \"#utility.yul\":9987:10406   */\n    tag_78:\n        /* \"#utility.yul\":10153:10157   */\n      0x00\n        /* \"#utility.yul\":10191:10193   */\n      0x20\n        /* \"#utility.yul\":10180:10189   */\n      dup3\n        /* \"#utility.yul\":10176:10194   */\n      add\n        /* \"#utility.yul\":10168:10194   */\n      swap1\n      pop\n        /* \"#utility.yul\":10240:10249   */\n      dup2\n        /* \"#utility.yul\":10234:10238   */\n      dup2\n        /* \"#utility.yul\":10230:10250   */\n      sub\n        /* \"#utility.yul\":10226:10227   */\n      0x00\n        /* \"#utility.yul\":10215:10224   */\n      dup4\n        /* \"#utility.yul\":10211:10228   */\n      add\n        /* \"#utility.yul\":10204:10251   */\n      mstore\n        /* \"#utility.yul\":10268:10399   */\n      tag_283\n        /* \"#utility.yul\":10394:10398   */\n      dup2\n        /* \"#utility.yul\":10268:10399   */\n      tag_157\n      jump\t// in\n    tag_283:\n        /* \"#utility.yul\":10260:10399   */\n      swap1\n      pop\n        /* \"#utility.yul\":9987:10406   */\n      swap2\n      swap1\n      pop\n      jump\t// out\n        /* \"#utility.yul\":10412:10603   */\n    tag_89:\n        /* \"#utility.yul\":10452:10456   */\n      0x00\n        /* \"#utility.yul\":10472:10492   */\n      tag_285\n        /* \"#utility.yul\":10490:10491   */\n      dup3\n        /* \"#utility.yul\":10472:10492   */\n      tag_127\n      jump\t// in\n    tag_285:\n        /* \"#utility.yul\":10467:10492   */\n      swap2\n      pop\n        /* \"#utility.yul\":10506:10526   */\n      tag_286\n        /* \"#utility.yul\":10524:10525   */\n      dup4\n        /* \"#utility.yul\":10506:10526   */\n      tag_127\n      jump\t// in\n    tag_286:\n        /* \"#utility.yul\":10501:10526   */\n      swap3\n      pop\n        /* \"#utility.yul\":10545:10546   */\n      dup3\n        /* \"#utility.yul\":10542:10543   */\n      dup3\n        /* \"#utility.yul\":10539:10547   */\n      lt\n        /* \"#utility.yul\":10536:10570   */\n      iszero\n      tag_287\n      jumpi\n        /* \"#utility.yul\":10550:10568   */\n      tag_288\n      tag_155\n      jump\t// in\n    tag_288:\n        /* \"#utility.yul\":10536:10570   */\n    tag_287:\n        /* \"#utility.yul\":10595:10596   */\n      dup3\n        /* \"#utility.yul\":10592:10593   */\n      dup3\n        /* \"#utility.yul\":10588:10597   */\n      sub\n        /* \"#utility.yul\":10580:10597   */\n      swap1\n      pop\n        /* \"#utility.yul\":10412:10603   */\n      swap3\n      swap2\n      pop\n      pop\n      jump\t// out\n        /* \"#utility.yul\":10609:10789   */\n    tag_158:\n        /* \"#utility.yul\":10657:10734   */\n      0x4e487b7100000000000000000000000000000000000000000000000000000000\n        /* \"#utility.yul\":10654:10655   */\n      0x00\n        /* \"#utility.yul\":10647:10735   */\n      mstore\n        /* \"#utility.yul\":10754:10758   */\n      0x22\n        /* \"#utility.yul\":10751:10752   */\n      0x04\n        /* \"#utility.yul\":10744:10759   */\n      mstore\n        /* \"#utility.yul\":10778:10782   */\n      0x24\n        /* \"#utility.yul\":10775:10776   */\n      0x00\n        /* \"#utility.yul\":10768:10783   */\n      revert\n        /* \"#utility.yul\":10795:11115   */\n    tag_101:\n        /* \"#utility.yul\":10839:10845   */\n      0x00\n        /* \"#utility.yul\":10876:10877   */\n      0x02\n        /* \"#utility.yul\":10870:10874   */\n      dup3\n        /* \"#utility.yul\":10866:10878   */\n      div\n        /* \"#utility.yul\":10856:10878   */\n      swap1\n      pop\n        /* \"#utility.yul\":10923:10924   */\n      0x01\n        /* \"#utility.yul\":10917:10921   */\n      dup3\n        /* \"#utility.yul\":10913:10925   */\n      and\n        /* \"#utility.yul\":10944:10962   */\n      dup1\n        /* \"#utility.yul\":10934:11015   */\n      tag_291\n      jumpi\n        /* \"#utility.yul\":11000:11004   */\n      0x7f\n        /* \"#utility.yul\":10992:10998   */\n      dup3\n        /* \"#utility.yul\":10988:11005   */\n      and\n        /* \"#utility.yul\":10978:11005   */\n      swap2\n      pop\n        /* \"#utility.yul\":10934:11015   */\n    tag_291:\n        /* \"#utility.yul\":11062:11064   */\n      0x20\n        /* \"#utility.yul\":11054:11060   */\n      dup3\n        /* \"#utility.yul\":11051:11065   */\n      lt\n        /* \"#utility.yul\":11031:11049   */\n      dup2\n        /* \"#utility.yul\":11028:11066   */\n      sub\n        /* \"#utility.yul\":11025:11109   */\n      tag_292\n      jumpi\n        /* \"#utility.yul\":11081:11099   */\n      tag_293\n      tag_158\n      jump\t// in\n    tag_293:\n        /* \"#utility.yul\":11025:11109   */\n    tag_292:\n        /* \"#utility.yul\":10846:11115   */\n      pop\n        /* \"#utility.yul\":10795:11115   */\n      swap2\n      swap1\n      pop\n      jump\t// out\n        /* \"#utility.yul\":11121:11262   */\n    tag_159:\n        /* \"#utility.yul\":11170:11174   */\n      0x00\n        /* \"#utility.yul\":11193:11196   */\n      dup2\n        /* \"#utility.yul\":11185:11196   */\n      swap1\n      pop\n        /* \"#utility.yul\":11216:11219   */\n      dup2\n        /* \"#utility.yul\":11213:11214   */\n      0x00\n        /* \"#utility.yul\":11206:11220   */\n      mstore\n        /* \"#utility.yul\":11250:11254   */\n      0x20\n        /* \"#utility.yul\":11247:11248   */\n      0x00\n        /* \"#utility.yul\":11237:11255   */\n      keccak256\n        /* \"#utility.yul\":11229:11255   */\n      swap1\n      pop\n        /* \"#utility.yul\":11121:11262   */\n      swap2\n      swap1\n      pop\n      jump\t// out\n        /* \"#utility.yul\":11268:11361   */\n    tag_160:\n        /* \"#utility.yul\":11305:11311   */\n      0x00\n        /* \"#utility.yul\":11352:11354   */\n      0x20\n        /* \"#utility.yul\":11347:11349   */\n      0x1f\n        /* \"#utility.yul\":11340:11345   */\n      dup4\n        /* \"#utility.yul\":11336:11350   */\n      add\n        /* \"#utility.yul\":11332:11355   */\n      div\n        /* \"#utility.yul\":11322:11355   */\n      swap1\n      pop\n        /* \"#utility.yul\":11268:11361   */\n      swap2\n      swap1\n      pop\n      jump\t// out\n        /* \"#utility.yul\":11367:11474   */\n    tag_161:\n        /* \"#utility.yul\":11411:11419   */\n      0x00\n        /* \"#utility.yul\":11461:11466   */\n      dup3\n        /* \"#utility.yul\":11455:11459   */\n      dup3\n        /* \"#utility.yul\":11451:11467   */\n      shl\n        /* \"#utility.yul\":11430:11467   */\n      swap1\n      pop\n        /* \"#utility.yul\":11367:11474   */\n      swap3\n      swap2\n      pop\n      pop\n      jump\t// out\n        /* \"#utility.yul\":11480:11873   */\n    tag_162:\n        /* \"#utility.yul\":11549:11555   */\n      0x00\n        /* \"#utility.yul\":11599:11600   */\n      0x08\n        /* \"#utility.yul\":11587:11597   */\n      dup4\n        /* \"#utility.yul\":11583:11601   */\n      mul\n        /* \"#utility.yul\":11622:11719   */\n      tag_298\n        /* \"#utility.yul\":11652:11718   */\n      0xffffffffffffffffffffffffffffffffffffffffffffffffffffffffffffffff\n        /* \"#utility.yul\":11641:11650   */\n      dup3\n        /* \"#utility.yul\":11622:11719   */\n      tag_161\n      jump\t// in\n    tag_298:\n        /* \"#utility.yul\":11740:11779   */\n      tag_299\n        /* \"#utility.yul\":11770:11778   */\n      dup7\n        /* \"#utility.yul\":11759:11768   */\n      dup4\n        /* \"#utility.yul\":11740:11779   */\n      tag_161\n      jump\t// in\n    tag_299:\n        /* \"#utility.yul\":11728:11779   */\n      swap6\n      pop\n        /* \"#utility.yul\":11812:11816   */\n      dup1\n        /* \"#utility.yul\":11808:11817   */\n      not\n        /* \"#utility.yul\":11801:11806   */\n      dup5\n        /* \"#utility.yul\":11797:11818   */\n      and\n        /* \"#utility.yul\":11788:11818   */\n      swap4\n      pop\n        /* \"#utility.yul\":11861:11865   */\n      dup1\n        /* \"#utility.yul\":11851:11859   */\n      dup7\n        /* \"#utility.yul\":11847:11866   */\n      and\n        /* \"#utility.yul\":11840:11845   */\n      dup5\n        /* \"#utility.yul\":11837:11867   */\n      or\n        /* \"#utility.yul\":11827:11867   */\n      swap3\n      pop\n        /* \"#utility.yul\":11556:11873   */\n      pop\n      pop\n        /* \"#utility.yul\":11480:11873   */\n      swap4\n      swap3\n      pop\n      pop\n      pop\n      jump\t// out\n        /* \"#utility.yul\":11879:11939   */\n    tag_163:\n        /* \"#utility.yul\":11907:11910   */\n      0x00\n        /* \"#utility.yul\":11928:11933   */\n      dup2\n        /* \"#utility.yul\":11921:11933   */\n      swap1\n      pop\n        /* \"#utility.yul\":11879:11939   */\n      swap2\n      swap1\n      pop\n      jump\t// out\n        /* \"#utility.yul\":11945:12087   */\n    tag_164:\n        /* \"#utility.yul\":11995:12004   */\n      0x00\n        /* \"#utility.yul\":12028:12081   */\n      tag_302\n        /* \"#utility.yul\":12046:12080   */\n      tag_303\n        /* \"#utility.yul\":12055:12079   */\n      tag_304\n        /* \"#utility.yul\":12073:12078   */\n      dup5\n        /* \"#utility.yul\":12055:12079   */\n      tag_127\n      jump\t// in\n    tag_304:\n        /* \"#utility.yul\":12046:12080   */\n      tag_163\n      jump\t// in\n    tag_303:\n        /* \"#utility.yul\":12028:12081   */\n      tag_127\n      jump\t// in\n    tag_302:\n        /* \"#utility.yul\":12015:12081   */\n      swap1\n      pop\n        /* \"#utility.yul\":11945:12087   */\n      swap2\n      swap1\n      pop\n      jump\t// out\n        /* \"#utility.yul\":12093:12168   */\n    tag_165:\n        /* \"#utility.yul\":12136:12139   */\n      0x00\n        /* \"#utility.yul\":12157:12162   */\n      dup2\n        /* \"#utility.yul\":12150:12162   */\n      swap1\n      pop\n        /* \"#utility.yul\":12093:12168   */\n      swap2\n      swap1\n      pop\n      jump\t// out\n        /* \"#utility.yul\":12174:12443   */\n    tag_166:\n        /* \"#utility.yul\":12284:12323   */\n      tag_307\n        /* \"#utility.yul\":12315:12322   */\n      dup4\n        /* \"#utility.yul\":12284:12323   */\n      tag_164\n      jump\t// in\n    tag_307:\n        /* \"#utility.yul\":12345:12436   */\n      tag_308\n        /* \"#utility.yul\":12394:12435   */\n      tag_309\n        /* \"#utility.yul\":12418:12434   */\n      dup3\n        /* \"#utility.yul\":12394:12435   */\n      tag_165\n      jump\t// in\n    tag_309:\n        /* \"#utility.yul\":12386:12392   */\n      dup5\n        /* \"#utility.yul\":12379:12383   */\n      dup5\n        /* \"#utility.yul\":12373:12384   */\n      sload\n        /* \"#utility.yul\":12345:12436   */\n      tag_162\n      jump\t// in\n    tag_308:\n        /* \"#utility.yul\":12339:12343   */\n      dup3\n        /* \"#utility.yul\":12332:12437   */\n      sstore\n        /* \"#utility.yul\":12250:12443   */\n      pop\n        /* \"#utility.yul\":12174:12443   */\n      pop\n      pop\n      pop\n      jump\t// out\n        /* \"#utility.yul\":12449:12522   */\n    tag_167:\n        /* \"#utility.yul\":12494:12497   */\n      0x00\n        /* \"#utility.yul\":12449:12522   */\n      swap1\n      jump\t// out\n        /* \"#utility.yul\":12528:12717   */\n    tag_168:\n        /* \"#utility.yul\":12605:12637   */\n      tag_312\n      tag_167\n      jump\t// in\n    tag_312:\n        /* \"#utility.yul\":12646:12711   */\n      tag_313\n        /* \"#utility.yul\":12704:12710   */\n      dup2\n        /* \"#utility.yul\":12696:12702   */\n      dup5\n        /* \"#utility.yul\":12690:12694   */\n      dup5\n        /* \"#utility.yul\":12646:12711   */\n      tag_166\n      jump\t// in\n    tag_313:\n        /* \"#utility.yul\":12581:12717   */\n      pop\n        /* \"#utility.yul\":12528:12717   */\n      pop\n      pop\n      jump\t// out\n        /* \"#utility.yul\":12723:12909   */\n    tag_169:\n        /* \"#utility.yul\":12783:12903   */\n    tag_315:\n        /* \"#utility.yul\":12800:12803   */\n      dup2\n        /* \"#utility.yul\":12793:12798   */\n      dup2\n        /* \"#utility.yul\":12790:12804   */\n      lt\n        /* \"#utility.yul\":12783:12903   */\n      iszero\n      tag_317\n      jumpi\n        /* \"#utility.yul\":12854:12893   */\n      tag_318\n        /* \"#utility.yul\":12891:12892   */\n      0x00\n        /* \"#utility.yul\":12884:12889   */\n      dup3\n        /* \"#utility.yul\":12854:12893   */\n      tag_168\n      jump\t// in\n    tag_318:\n        /* \"#utility.yul\":12827:12828   */\n      0x01\n        /* \"#utility.yul\":12820:12825   */\n      dup2\n        /* \"#utility.yul\":12816:12829   */\n      add\n        /* \"#utility.yul\":12807:12829   */\n      swap1\n      pop\n        /* \"#utility.yul\":12783:12903   */\n      jump(tag_315)\n    tag_317:\n        /* \"#utility.yul\":12723:12909   */\n      pop\n      pop\n      jump\t// out\n        /* \"#utility.yul\":12915:13458   */\n    tag_170:\n        /* \"#utility.yul\":13016:13018   */\n      0x1f\n        /* \"#utility.yul\":13011:13014   */\n      dup3\n        /* \"#utility.yul\":13008:13019   */\n      gt\n        /* \"#utility.yul\":13005:13451   */\n      iszero\n      tag_320\n      jumpi\n        /* \"#utility.yul\":13050:13088   */\n      tag_321\n        /* \"#utility.yul\":13082:13087   */\n      dup2\n        /* \"#utility.yul\":13050:13088   */\n      tag_159\n      jump\t// in\n    tag_321:\n        /* \"#utility.yul\":13134:13163   */\n      tag_322\n        /* \"#utility.yul\":13152:13162   */\n      dup5\n        /* \"#utility.yul\":13134:13163   */\n      tag_160\n      jump\t// in\n    tag_322:\n        /* \"#utility.yul\":13124:13132   */\n      dup2\n        /* \"#utility.yul\":13120:13164   */\n      add\n        /* \"#utility.yul\":13317:13319   */\n      0x20\n        /* \"#utility.yul\":13305:13315   */\n      dup6\n        /* \"#utility.yul\":13302:13320   */\n      lt\n        /* \"#utility.yul\":13299:13348   */\n      iszero\n      tag_323\n      jumpi\n        /* \"#utility.yul\":13338:13346   */\n      dup2\n        /* \"#utility.yul\":13323:13346   */\n      swap1\n      pop\n        /* \"#utility.yul\":13299:13348   */\n    tag_323:\n        /* \"#utility.yul\":13361:13441   */\n      tag_324\n        /* \"#utility.yul\":13417:13439   */\n      tag_325\n        /* \"#utility.yul\":13435:13438   */\n      dup6\n        /* \"#utility.yul\":13417:13439   */\n      tag_160\n      jump\t// in\n    tag_325:\n        /* \"#utility.yul\":13407:13415   */\n      dup4\n        /* \"#utility.yul\":13403:13440   */\n      add\n        /* \"#utility.yul\":13390:13401   */\n      dup3\n        /* \"#utility.yul\":13361:13441   */\n      tag_169\n      jump\t// in\n    tag_324:\n        /* \"#utility.yul\":13020:13451   */\n      pop\n      pop\n        /* \"#utility.yul\":13005:13451   */\n    tag_320:\n        /* \"#utility.yul\":12915:13458   */\n      pop\n      pop\n      pop\n      jump\t// out\n        /* \"#utility.yul\":13464:13581   */\n    tag_171:\n        /* \"#utility.yul\":13518:13526   */\n      0x00\n        /* \"#utility.yul\":13568:13573   */\n      dup3\n        /* \"#utility.yul\":13562:13566   */\n      dup3\n        /* \"#utility.yul\":13558:13574   */\n      shr\n        /* \"#utility.yul\":13537:13574   */\n      swap1\n      pop\n        /* \"#utility.yul\":13464:13581   */\n      swap3\n      swap2\n      pop\n      pop\n      jump\t// out\n        /* \"#utility.yul\":13587:13756   */\n    tag_172:\n        /* \"#utility.yul\":13631:13637   */\n      0x00\n        /* \"#utility.yul\":13664:13715   */\n      tag_328\n        /* \"#utility.yul\":13712:13713   */\n      0x00\n        /* \"#utility.yul\":13708:13714   */\n      not\n        /* \"#utility.yul\":13700:13705   */\n      dup5\n        /* \"#utility.yul\":13697:13698   */\n      0x08\n        /* \"#utility.yul\":13693:13706   */\n      mul\n        /* \"#utility.yul\":13664:13715   */\n      tag_171\n      jump\t// in\n    tag_328:\n        /* \"#utility.yul\":13660:13716   */\n      not\n        /* \"#utility.yul\":13745:13749   */\n      dup1\n        /* \"#utility.yul\":13739:13743   */\n      dup4\n        /* \"#utility.yul\":13735:13750   */\n      and\n        /* \"#utility.yul\":13725:13750   */\n      swap2\n      pop\n        /* \"#utility.yul\":13638:13756   */\n      pop\n        /* \"#utility.yul\":13587:13756   */\n      swap3\n      swap2\n      pop\n      pop\n      jump\t// out\n        /* \"#utility.yul\":13761:14056   */\n    tag_173:\n        /* \"#utility.yul\":13837:13841   */\n      0x00\n        /* \"#utility.yul\":13983:14012   */\n      tag_330\n        /* \"#utility.yul\":14008:14011   */\n      dup4\n        /* \"#utility.yul\":14002:14006   */\n      dup4\n        /* \"#utility.yul\":13983:14012   */\n      tag_172\n      jump\t// in\n    tag_330:\n        /* \"#utility.yul\":13975:14012   */\n      swap2\n      pop\n        /* \"#utility.yul\":14045:14048   */\n      dup3\n        /* \"#utility.yul\":14042:14043   */\n      0x02\n        /* \"#utility.yul\":14038:14049   */\n      mul\n        /* \"#utility.yul\":14032:14036   */\n      dup3\n        /* \"#utility.yul\":14029:14050   */\n      or\n        /* \"#utility.yul\":14021:14050   */\n      swap1\n      pop\n        /* \"#utility.yul\":13761:14056   */\n      swap3\n      swap2\n      pop\n      pop\n      jump\t// out\n        /* \"#utility.yul\":14061:15456   */\n    tag_92:\n        /* \"#utility.yul\":14178:14215   */\n      tag_332\n        /* \"#utility.yul\":14211:14214   */\n      dup3\n        /* \"#utility.yul\":14178:14215   */\n      tag_147\n      jump\t// in\n    tag_332:\n        /* \"#utility.yul\":14280:14298   */\n      0xffffffffffffffff\n        /* \"#utility.yul\":14272:14278   */\n      dup2\n        /* \"#utility.yul\":14269:14299   */\n      gt\n        /* \"#utility.yul\":14266:14322   */\n      iszero\n      tag_333\n      jumpi\n        /* \"#utility.yul\":14302:14320   */\n      tag_334\n      tag_138\n      jump\t// in\n    tag_334:\n        /* \"#utility.yul\":14266:14322   */\n    tag_333:\n        /* \"#utility.yul\":14346:14384   */\n      tag_335\n        /* \"#utility.yul\":14378:14382   */\n      dup3\n        /* \"#utility.yul\":14372:14383   */\n      sload\n        /* \"#utility.yul\":14346:14384   */\n      tag_101\n      jump\t// in\n    tag_335:\n        /* \"#utility.yul\":14431:14498   */\n      tag_336\n        /* \"#utility.yul\":14491:14497   */\n      dup3\n        /* \"#utility.yul\":14483:14489   */\n      dup3\n        /* \"#utility.yul\":14477:14481   */\n      dup6\n        /* \"#utility.yul\":14431:14498   */\n      tag_170\n      jump\t// in\n    tag_336:\n        /* \"#utility.yul\":14525:14526   */\n      0x00\n        /* \"#utility.yul\":14549:14553   */\n      0x20\n        /* \"#utility.yul\":14536:14553   */\n      swap1\n      pop\n        /* \"#utility.yul\":14581:14583   */\n      0x1f\n        /* \"#utility.yul\":14573:14579   */\n      dup4\n        /* \"#utility.yul\":14570:14584   */\n      gt\n        /* \"#utility.yul\":14598:14599   */\n      0x01\n        /* \"#utility.yul\":14593:15211   */\n      dup2\n      eq\n      tag_338\n      jumpi\n        /* \"#utility.yul\":15255:15256   */\n      0x00\n        /* \"#utility.yul\":15272:15278   */\n      dup5\n        /* \"#utility.yul\":15269:15346   */\n      iszero\n      tag_339\n      jumpi\n        /* \"#utility.yul\":15321:15330   */\n      dup3\n        /* \"#utility.yul\":15316:15319   */\n      dup8\n        /* \"#utility.yul\":15312:15331   */\n      add\n        /* \"#utility.yul\":15306:15332   */\n      mload\n        /* \"#utility.yul\":15297:15332   */\n      swap1\n      pop\n        /* \"#utility.yul\":15269:15346   */\n    tag_339:\n        /* \"#utility.yul\":15372:15439   */\n      tag_340\n        /* \"#utility.yul\":15432:15438   */\n      dup6\n        /* \"#utility.yul\":15425:15430   */\n      dup3\n        /* \"#utility.yul\":15372:15439   */\n      tag_173\n      jump\t// in\n    tag_340:\n        /* \"#utility.yul\":15366:15370   */\n      dup7\n        /* \"#utility.yul\":15359:15440   */\n      sstore\n        /* \"#utility.yul\":15228:15450   */\n      pop\n        /* \"#utility.yul\":14563:15450   */\n      jump(tag_337)\n        /* \"#utility.yul\":14593:15211   */\n    tag_338:\n        /* \"#utility.yul\":14645:14649   */\n      0x1f\n        /* \"#utility.yul\":14641:14650   */\n      not\n        /* \"#utility.yul\":14633:14639   */\n      dup5\n        /* \"#utility.yul\":14629:14651   */\n      and\n        /* \"#utility.yul\":14679:14716   */\n      tag_341\n        /* \"#utility.yul\":14711:14715   */\n      dup7\n        /* \"#utility.yul\":14679:14716   */\n      tag_159\n      jump\t// in\n    tag_341:\n        /* \"#utility.yul\":14738:14739   */\n      0x00\n        /* \"#utility.yul\":14752:14960   */\n    tag_342:\n        /* \"#utility.yul\":14766:14773   */\n      dup3\n        /* \"#utility.yul\":14763:14764   */\n      dup2\n        /* \"#utility.yul\":14760:14774   */\n      lt\n        /* \"#utility.yul\":14752:14960   */\n      iszero\n      tag_344\n      jumpi\n        /* \"#utility.yul\":14845:14854   */\n      dup5\n        /* \"#utility.yul\":14840:14843   */\n      dup10\n        /* \"#utility.yul\":14836:14855   */\n      add\n        /* \"#utility.yul\":14830:14856   */\n      mload\n        /* \"#utility.yul\":14822:14828   */\n      dup3\n        /* \"#utility.yul\":14815:14857   */\n      sstore\n        /* \"#utility.yul\":14896:14897   */\n      0x01\n        /* \"#utility.yul\":14888:14894   */\n      dup3\n        /* \"#utility.yul\":14884:14898   */\n      add\n        /* \"#utility.yul\":14874:14898   */\n      swap2\n      pop\n        /* \"#utility.yul\":14943:14945   */\n      0x20\n        /* \"#utility.yul\":14932:14941   */\n      dup6\n        /* \"#utility.yul\":14928:14946   */\n      add\n        /* \"#utility.yul\":14915:14946   */\n      swap5\n      pop\n        /* \"#utility.yul\":14789:14793   */\n      0x20\n        /* \"#utility.yul\":14786:14787   */\n      dup2\n        /* \"#utility.yul\":14782:14794   */\n      add\n        /* \"#utility.yul\":14777:14794   */\n      swap1\n      pop\n        /* \"#utility.yul\":14752:14960   */\n      jump(tag_342)\n    tag_344:\n        /* \"#utility.yul\":14988:14994   */\n      dup7\n        /* \"#utility.yul\":14979:14986   */\n      dup4\n        /* \"#utility.yul\":14976:14995   */\n      lt\n        /* \"#utility.yul\":14973:15152   */\n      iszero\n      tag_345\n      jumpi\n        /* \"#utility.yul\":15046:15055   */\n      dup5\n        /* \"#utility.yul\":15041:15044   */\n      dup10\n        /* \"#utility.yul\":15037:15056   */\n      add\n        /* \"#utility.yul\":15031:15057   */\n      mload\n        /* \"#utility.yul\":15089:15137   */\n      tag_346\n        /* \"#utility.yul\":15131:15135   */\n      0x1f\n        /* \"#utility.yul\":15123:15129   */\n      dup10\n        /* \"#utility.yul\":15119:15136   */\n      and\n        /* \"#utility.yul\":15108:15117   */\n      dup3\n        /* \"#utility.yul\":15089:15137   */\n      tag_172\n      jump\t// in\n    tag_346:\n        /* \"#utility.yul\":15081:15087   */\n      dup4\n        /* \"#utility.yul\":15074:15138   */\n      sstore\n        /* \"#utility.yul\":14996:15152   */\n      pop\n        /* \"#utility.yul\":14973:15152   */\n    tag_345:\n        /* \"#utility.yul\":15198:15199   */\n      0x01\n        /* \"#utility.yul\":15194:15195   */\n      0x02\n        /* \"#utility.yul\":15186:15192   */\n      dup9\n        /* \"#utility.yul\":15182:15196   */\n      mul\n        /* \"#utility.yul\":15178:15200   */\n      add\n        /* \"#utility.yul\":15172:15176   */\n      dup9\n        /* \"#utility.yul\":15165:15201   */\n      sstore\n        /* \"#utility.yul\":14600:15211   */\n      pop\n      pop\n      pop\n        /* \"#utility.yul\":14563:15450   */\n    tag_337:\n      pop\n        /* \"#utility.yul\":14153:15456   */\n      pop\n      pop\n      pop\n        /* \"#utility.yul\":14061:15456   */\n      pop\n      pop\n      jump\t// out\n        /* \"#utility.yul\":15462:15628   */\n    tag_174:\n        /* \"#utility.yul\":15602:15620   */\n      0x4e6f7420656e6f7567682066756e647300000000000000000000000000000000\n        /* \"#utility.yul\":15598:15599   */\n      0x00\n        /* \"#utility.yul\":15590:15596   */\n      dup3\n        /* \"#utility.yul\":15586:15600   */\n      add\n        /* \"#utility.yul\":15579:15621   */\n      mstore\n        /* \"#utility.yul\":15462:15628   */\n      pop\n      jump\t// out\n        /* \"#utility.yul\":15634:16000   */\n    tag_175:\n        /* \"#utility.yul\":15776:15779   */\n      0x00\n        /* \"#utility.yul\":15797:15864   */\n      tag_349\n        /* \"#utility.yul\":15861:15863   */\n      0x10\n        /* \"#utility.yul\":15856:15859   */\n      dup4\n        /* \"#utility.yul\":15797:15864   */\n      tag_148\n      jump\t// in\n    tag_349:\n        /* \"#utility.yul\":15790:15864   */\n      swap2\n      pop\n        /* \"#utility.yul\":15873:15966   */\n      tag_350\n        /* \"#utility.yul\":15962:15965   */\n      dup3\n        /* \"#utility.yul\":15873:15966   */\n      tag_174\n      jump\t// in\n    tag_350:\n        /* \"#utility.yul\":15991:15993   */\n      0x20\n        /* \"#utility.yul\":15986:15989   */\n      dup3\n        /* \"#utility.yul\":15982:15994   */\n      add\n        /* \"#utility.yul\":15975:15994   */\n      swap1\n      pop\n        /* \"#utility.yul\":15634:16000   */\n      swap2\n      swap1\n      pop\n      jump\t// out\n        /* \"#utility.yul\":16006:16425   */\n    tag_95:\n        /* \"#utility.yul\":16172:16176   */\n      0x00\n        /* \"#utility.yul\":16210:16212   */\n      0x20\n        /* \"#utility.yul\":16199:16208   */\n      dup3\n        /* \"#utility.yul\":16195:16213   */\n      add\n        /* \"#utility.yul\":16187:16213   */\n      swap1\n      pop\n        /* \"#utility.yul\":16259:16268   */\n      dup2\n        /* \"#utility.yul\":16253:16257   */\n      dup2\n        /* \"#utility.yul\":16249:16269   */\n      sub\n        /* \"#utility.yul\":16245:16246   */\n      0x00\n        /* \"#utility.yul\":16234:16243   */\n      dup4\n        /* \"#utility.yul\":16230:16247   */\n      add\n        /* \"#utility.yul\":16223:16270   */\n      mstore\n        /* \"#utility.yul\":16287:16418   */\n      tag_352\n        /* \"#utility.yul\":16413:16417   */\n      dup2\n        /* \"#utility.yul\":16287:16418   */\n      tag_175\n      jump\t// in\n    tag_352:\n        /* \"#utility.yul\":16279:16418   */\n      swap1\n      pop\n        /* \"#utility.yul\":16006:16425   */\n      swap2\n      swap1\n      pop\n      jump\t// out\n        /* \"#utility.yul\":16431:16601   */\n    tag_176:\n        /* \"#utility.yul\":16571:16593   */\n      0x4e6f2076616c6964206372656469742063617264000000000000000000000000\n        /* \"#utility.yul\":16567:16568   */\n      0x00\n        /* \"#utility.yul\":16559:16565   */\n      dup3\n        /* \"#utility.yul\":16555:16569   */\n      add\n        /* \"#utility.yul\":16548:16594   */\n      mstore\n        /* \"#utility.yul\":16431:16601   */\n      pop\n      jump\t// out\n        /* \"#utility.yul\":16607:16973   */\n    tag_177:\n        /* \"#utility.yul\":16749:16752   */\n      0x00\n        /* \"#utility.yul\":16770:16837   */\n      tag_355\n        /* \"#utility.yul\":16834:16836   */\n      0x14\n        /* \"#utility.yul\":16829:16832   */\n      dup4\n        /* \"#utility.yul\":16770:16837   */\n      tag_148\n      jump\t// in\n    tag_355:\n        /* \"#utility.yul\":16763:16837   */\n      swap2\n      pop\n        /* \"#utility.yul\":16846:16939   */\n      tag_356\n        /* \"#utility.yul\":16935:16938   */\n      dup3\n        /* \"#utility.yul\":16846:16939   */\n      tag_176\n      jump\t// in\n    tag_356:\n        /* \"#utility.yul\":16964:16966   */\n      0x20\n        /* \"#utility.yul\":16959:16962   */\n      dup3\n        /* \"#utility.yul\":16955:16967   */\n      add\n        /* \"#utility.yul\":16948:16967   */\n      swap1\n      pop\n        /* \"#utility.yul\":16607:16973   */\n      swap2\n      swap1\n      pop\n      jump\t// out\n        /* \"#utility.yul\":16979:17398   */\n    tag_106:\n        /* \"#utility.yul\":17145:17149   */\n      0x00\n        /* \"#utility.yul\":17183:17185   */\n      0x20\n        /* \"#utility.yul\":17172:17181   */\n      dup3\n        /* \"#utility.yul\":17168:17186   */\n      add\n        /* \"#utility.yul\":17160:17186   */\n      swap1\n      pop\n        /* \"#utility.yul\":17232:17241   */\n      dup2\n        /* \"#utility.yul\":17226:17230   */\n      dup2\n        /* \"#utility.yul\":17222:17242   */\n      sub\n        /* \"#utility.yul\":17218:17219   */\n      0x00\n        /* \"#utility.yul\":17207:17216   */\n      dup4\n        /* \"#utility.yul\":17203:17220   */\n      add\n        /* \"#utility.yul\":17196:17243   */\n      mstore\n        /* \"#utility.yul\":17260:17391   */\n      tag_358\n        /* \"#utility.yul\":17386:17390   */\n      dup2\n        /* \"#utility.yul\":17260:17391   */\n      tag_177\n      jump\t// in\n    tag_358:\n        /* \"#utility.yul\":17252:17391   */\n      swap1\n      pop\n        /* \"#utility.yul\":16979:17398   */\n      swap2\n      swap1\n      pop\n      jump\t// out\n\n    auxdata: 0xa26469706673582212204733e1fb34a077bfd3e98b004e76c479fb16b28316c6244fedcef59e6e6501e764736f6c634300080f0033\n}\n",
				"bytecode": {
					"linkReferences": {},
					"object": "608060405260006008556000600960006101000a81548160ff0219169083151502179055503480156200003157600080fd5b50604051620012aa380380620012aa8339818101604052810190620000579190620000a5565b8060018190555050620000d7565b600080fd5b6000819050919050565b6200007f816200006a565b81146200008b57600080fd5b50565b6000815190506200009f8162000074565b92915050565b600060208284031215620000be57620000bd62000065565b5b6000620000ce848285016200008e565b91505092915050565b6111c380620000e76000396000f3fe608060405234801561001057600080fd5b50600436106100cf5760003560e01c8063557ed1ba1161008c5780638e029c0b116100665780638e029c0b146101de5780638fa11864146101e8578063aa8c217c14610206578063e21f37ce14610224576100cf565b8063557ed1ba146101845780637b9a3f4c146101a25780637eb9f571146101c0576100cf565b8063062a7544146100d45780630e85fa72146100f057806312a029a41461010e5780633c626f001461012a57806342fb7936146101485780634b28f9a214610166575b600080fd5b6100ee60048036038101906100e991906108a3565b610242565b005b6100f861054a565b60405161010591906108f2565b60405180910390f35b61012860048036038101906101239190610a53565b610550565b005b610132610601565b60405161013f9190610ae6565b60405180910390f35b610150610614565b60405161015d9190610b89565b60405180910390f35b61016e6106a2565b60405161017b91906108f2565b60405180910390f35b61018c6106a8565b60405161019991906108f2565b60405180910390f35b6101aa6106b0565b6040516101b791906108f2565b60405180910390f35b6101c86106b6565b6040516101d591906108f2565b60405180910390f35b6101e66106bc565b005b6101f06106d9565b6040516101fd9190610b89565b60405180910390f35b61020e610767565b60405161021b91906108f2565b60405180910390f35b61022c61076d565b6040516102399190610b89565b60405180910390f35b8080600260006101000a81548173ffffffffffffffffffffffffffffffffffffffff021916908373ffffffffffffffffffffffffffffffffffffffff160217905550600073ffffffffffffffffffffffffffffffffffffffff168173ffffffffffffffffffffffffffffffffffffffff16036102f3576040517f08c379a00000000000000000000000000000000000000000000000000000000081526004016102ea90610bf7565b60405180910390fd5b60001515600960009054906101000a900460ff16151503610349576040517f08c379a000000000000000000000000000000000000000000000000000000000815260040161034090610c63565b60405180910390fd5b60056008541015801561036a5750601e6007546103669190610cb2565b4211155b156103c557600060088190555060006008541461038a57610389610d08565b5b6040517f08c379a00000000000000000000000000000000000000000000000000000000081526004016103bc90610d83565b60405180910390fd5b6005600854111580156103e65750601e6007546103e29190610cb2565b4210155b1561040e57600060088190555060006008541461040657610405610d08565b5b426007819055505b81600260006101000a81548173ffffffffffffffffffffffffffffffffffffffff021916908373ffffffffffffffffffffffffffffffffffffffff160217905550826000819055506001600860008282546104699190610cb2565b9250508190555060006001541180156104855750600054600154115b1561050a576000546001600082825461049e9190610da3565b92505081905550600054600660008282546104b99190610cb2565b925050819055506040518060400160405280601281526020017f5472616e7366657220636f6d706c657465640000000000000000000000000000815250600390816105049190610fe3565b50610545565b6040517f08c379a000000000000000000000000000000000000000000000000000000000815260040161053c90611101565b60405180910390fd5b505050565b60075481565b816004908161055f9190610fe3565b50806005908161056f9190610fe3565b506001600960006101000a81548160ff021916908315150217905550426007819055506008600480546105a190610e06565b90501480156105be57506003600580546105ba90610e06565b9050145b6105fd576040517f08c379a00000000000000000000000000000000000000000000000000000000081526004016105f49061116d565b60405180910390fd5b5050565b600960009054906101000a900460ff1681565b6005805461062190610e06565b80601f016020809104026020016040519081016040528092919081815260200182805461064d90610e06565b801561069a5780601f1061066f5761010080835404028352916020019161069a565b820191906000526020600020905b81548152906001019060200180831161067d57829003601f168201915b505050505081565b60085481565b600042905090565b60015481565b60065481565b6000600960006101000a81548160ff021916908315150217905550565b600480546106e690610e06565b80601f016020809104026020016040519081016040528092919081815260200182805461071290610e06565b801561075f5780601f106107345761010080835404028352916020019161075f565b820191906000526020600020905b81548152906001019060200180831161074257829003601f168201915b505050505081565b60005481565b6003805461077a90610e06565b80601f01602080910402602001604051908101604052809291908181526020018280546107a690610e06565b80156107f35780601f106107c8576101008083540402835291602001916107f3565b820191906000526020600020905b8154815290600101906020018083116107d657829003601f168201915b505050505081565b6000604051905090565b600080fd5b600080fd5b6000819050919050565b6108228161080f565b811461082d57600080fd5b50565b60008135905061083f81610819565b92915050565b600073ffffffffffffffffffffffffffffffffffffffff82169050919050565b600061087082610845565b9050919050565b61088081610865565b811461088b57600080fd5b50565b60008135905061089d81610877565b92915050565b600080604083850312156108ba576108b9610805565b5b60006108c885828601610830565b92505060206108d98582860161088e565b9150509250929050565b6108ec8161080f565b82525050565b600060208201905061090760008301846108e3565b92915050565b600080fd5b600080fd5b6000601f19601f8301169050919050565b7f4e487b7100000000000000000000000000000000000000000000000000000000600052604160045260246000fd5b61096082610917565b810181811067ffffffffffffffff8211171561097f5761097e610928565b5b80604052505050565b60006109926107fb565b905061099e8282610957565b919050565b600067ffffffffffffffff8211156109be576109bd610928565b5b6109c782610917565b9050602081019050919050565b82818337600083830152505050565b60006109f66109f1846109a3565b610988565b905082815260208101848484011115610a1257610a11610912565b5b610a1d8482856109d4565b509392505050565b600082601f830112610a3a57610a3961090d565b5b8135610a4a8482602086016109e3565b91505092915050565b60008060408385031215610a6a57610a69610805565b5b600083013567ffffffffffffffff811115610a8857610a8761080a565b5b610a9485828601610a25565b925050602083013567ffffffffffffffff811115610ab557610ab461080a565b5b610ac185828601610a25565b9150509250929050565b60008115159050919050565b610ae081610acb565b82525050565b6000602082019050610afb6000830184610ad7565b92915050565b600081519050919050565b600082825260208201905092915050565b60005b83811015610b3b578082015181840152602081019050610b20565b83811115610b4a576000848401525b50505050565b6000610b5b82610b01565b610b658185610b0c565b9350610b75818560208601610b1d565b610b7e81610917565b840191505092915050565b60006020820190508181036000830152610ba38184610b50565b905092915050565b7f2054686973206164647265737320646f65736e27742065786973747300000000600082015250565b6000610be1601c83610b0c565b9150610bec82610bab565b602082019050919050565b60006020820190508181036000830152610c1081610bd4565b9050919050565b7f506c6561736520696e7365727420796f75722063617264000000000000000000600082015250565b6000610c4d601783610b0c565b9150610c5882610c17565b602082019050919050565b60006020820190508181036000830152610c7c81610c40565b9050919050565b7f4e487b7100000000000000000000000000000000000000000000000000000000600052601160045260246000fd5b6000610cbd8261080f565b9150610cc88361080f565b9250827fffffffffffffffffffffffffffffffffffffffffffffffffffffffffffffffff03821115610cfd57610cfc610c83565b5b828201905092915050565b7f4e487b7100000000000000000000000000000000000000000000000000000000600052600160045260246000fd5b7f6f6e6c792035207472616e73616374696f6e7320706572206461790000000000600082015250565b6000610d6d601b83610b0c565b9150610d7882610d37565b602082019050919050565b60006020820190508181036000830152610d9c81610d60565b9050919050565b6000610dae8261080f565b9150610db98361080f565b925082821015610dcc57610dcb610c83565b5b828203905092915050565b7f4e487b7100000000000000000000000000000000000000000000000000000000600052602260045260246000fd5b60006002820490506001821680610e1e57607f821691505b602082108103610e3157610e30610dd7565b5b50919050565b60008190508160005260206000209050919050565b60006020601f8301049050919050565b600082821b905092915050565b600060088302610e997fffffffffffffffffffffffffffffffffffffffffffffffffffffffffffffffff82610e5c565b610ea38683610e5c565b95508019841693508086168417925050509392505050565b6000819050919050565b6000610ee0610edb610ed68461080f565b610ebb565b61080f565b9050919050565b6000819050919050565b610efa83610ec5565b610f0e610f0682610ee7565b848454610e69565b825550505050565b600090565b610f23610f16565b610f2e818484610ef1565b505050565b5b81811015610f5257610f47600082610f1b565b600181019050610f34565b5050565b601f821115610f9757610f6881610e37565b610f7184610e4c565b81016020851015610f80578190505b610f94610f8c85610e4c565b830182610f33565b50505b505050565b600082821c905092915050565b6000610fba60001984600802610f9c565b1980831691505092915050565b6000610fd38383610fa9565b9150826002028217905092915050565b610fec82610b01565b67ffffffffffffffff81111561100557611004610928565b5b61100f8254610e06565b61101a828285610f56565b600060209050601f83116001811461104d576000841561103b578287015190505b6110458582610fc7565b8655506110ad565b601f19841661105b86610e37565b60005b828110156110835784890151825560018201915060208501945060208101905061105e565b868310156110a0578489015161109c601f891682610fa9565b8355505b6001600288020188555050505b505050505050565b7f4e6f7420656e6f7567682066756e647300000000000000000000000000000000600082015250565b60006110eb601083610b0c565b91506110f6826110b5565b602082019050919050565b6000602082019050818103600083015261111a816110de565b9050919050565b7f4e6f2076616c6964206372656469742063617264000000000000000000000000600082015250565b6000611157601483610b0c565b915061116282611121565b602082019050919050565b600060208201905081810360008301526111868161114a565b905091905056fea26469706673582212204733e1fb34a077bfd3e98b004e76c479fb16b28316c6244fedcef59e6e6501e764736f6c634300080f0033",
					"opcodes": "PUSH1 0x80 PUSH1 0x40 MSTORE PUSH1 0x0 PUSH1 0x8 SSTORE PUSH1 0x0 PUSH1 0x9 PUSH1 0x0 PUSH2 0x100 EXP DUP2 SLOAD DUP2 PUSH1 0xFF MUL NOT AND SWAP1 DUP4 ISZERO ISZERO MUL OR SWAP1 SSTORE POP CALLVALUE DUP1 ISZERO PUSH3 0x31 JUMPI PUSH1 0x0 DUP1 REVERT JUMPDEST POP PUSH1 0x40 MLOAD PUSH3 0x12AA CODESIZE SUB DUP1 PUSH3 0x12AA DUP4 CODECOPY DUP2 DUP2 ADD PUSH1 0x40 MSTORE DUP2 ADD SWAP1 PUSH3 0x57 SWAP2 SWAP1 PUSH3 0xA5 JUMP JUMPDEST DUP1 PUSH1 0x1 DUP2 SWAP1 SSTORE POP POP PUSH3 0xD7 JUMP JUMPDEST PUSH1 0x0 DUP1 REVERT JUMPDEST PUSH1 0x0 DUP2 SWAP1 POP SWAP2 SWAP1 POP JUMP JUMPDEST PUSH3 0x7F DUP2 PUSH3 0x6A JUMP JUMPDEST DUP2 EQ PUSH3 0x8B JUMPI PUSH1 0x0 DUP1 REVERT JUMPDEST POP JUMP JUMPDEST PUSH1 0x0 DUP2 MLOAD SWAP1 POP PUSH3 0x9F DUP2 PUSH3 0x74 JUMP JUMPDEST SWAP3 SWAP2 POP POP JUMP JUMPDEST PUSH1 0x0 PUSH1 0x20 DUP3 DUP5 SUB SLT ISZERO PUSH3 0xBE JUMPI PUSH3 0xBD PUSH3 0x65 JUMP JUMPDEST JUMPDEST PUSH1 0x0 PUSH3 0xCE DUP5 DUP3 DUP6 ADD PUSH3 0x8E JUMP JUMPDEST SWAP2 POP POP SWAP3 SWAP2 POP POP JUMP JUMPDEST PUSH2 0x11C3 DUP1 PUSH3 0xE7 PUSH1 0x0 CODECOPY PUSH1 0x0 RETURN INVALID PUSH1 0x80 PUSH1 0x40 MSTORE CALLVALUE DUP1 ISZERO PUSH2 0x10 JUMPI PUSH1 0x0 DUP1 REVERT JUMPDEST POP PUSH1 0x4 CALLDATASIZE LT PUSH2 0xCF JUMPI PUSH1 0x0 CALLDATALOAD PUSH1 0xE0 SHR DUP1 PUSH4 0x557ED1BA GT PUSH2 0x8C JUMPI DUP1 PUSH4 0x8E029C0B GT PUSH2 0x66 JUMPI DUP1 PUSH4 0x8E029C0B EQ PUSH2 0x1DE JUMPI DUP1 PUSH4 0x8FA11864 EQ PUSH2 0x1E8 JUMPI DUP1 PUSH4 0xAA8C217C EQ PUSH2 0x206 JUMPI DUP1 PUSH4 0xE21F37CE EQ PUSH2 0x224 JUMPI PUSH2 0xCF JUMP JUMPDEST DUP1 PUSH4 0x557ED1BA EQ PUSH2 0x184 JUMPI DUP1 PUSH4 0x7B9A3F4C EQ PUSH2 0x1A2 JUMPI DUP1 PUSH4 0x7EB9F571 EQ PUSH2 0x1C0 JUMPI PUSH2 0xCF JUMP JUMPDEST DUP1 PUSH4 0x62A7544 EQ PUSH2 0xD4 JUMPI DUP1 PUSH4 0xE85FA72 EQ PUSH2 0xF0 JUMPI DUP1 PUSH4 0x12A029A4 EQ PUSH2 0x10E JUMPI DUP1 PUSH4 0x3C626F00 EQ PUSH2 0x12A JUMPI DUP1 PUSH4 0x42FB7936 EQ PUSH2 0x148 JUMPI DUP1 PUSH4 0x4B28F9A2 EQ PUSH2 0x166 JUMPI JUMPDEST PUSH1 0x0 DUP1 REVERT JUMPDEST PUSH2 0xEE PUSH1 0x4 DUP1 CALLDATASIZE SUB DUP2 ADD SWAP1 PUSH2 0xE9 SWAP2 SWAP1 PUSH2 0x8A3 JUMP JUMPDEST PUSH2 0x242 JUMP JUMPDEST STOP JUMPDEST PUSH2 0xF8 PUSH2 0x54A JUMP JUMPDEST PUSH1 0x40 MLOAD PUSH2 0x105 SWAP2 SWAP1 PUSH2 0x8F2 JUMP JUMPDEST PUSH1 0x40 MLOAD DUP1 SWAP2 SUB SWAP1 RETURN JUMPDEST PUSH2 0x128 PUSH1 0x4 DUP1 CALLDATASIZE SUB DUP2 ADD SWAP1 PUSH2 0x123 SWAP2 SWAP1 PUSH2 0xA53 JUMP JUMPDEST PUSH2 0x550 JUMP JUMPDEST STOP JUMPDEST PUSH2 0x132 PUSH2 0x601 JUMP JUMPDEST PUSH1 0x40 MLOAD PUSH2 0x13F SWAP2 SWAP1 PUSH2 0xAE6 JUMP JUMPDEST PUSH1 0x40 MLOAD DUP1 SWAP2 SUB SWAP1 RETURN JUMPDEST PUSH2 0x150 PUSH2 0x614 JUMP JUMPDEST PUSH1 0x40 MLOAD PUSH2 0x15D SWAP2 SWAP1 PUSH2 0xB89 JUMP JUMPDEST PUSH1 0x40 MLOAD DUP1 SWAP2 SUB SWAP1 RETURN JUMPDEST PUSH2 0x16E PUSH2 0x6A2 JUMP JUMPDEST PUSH1 0x40 MLOAD PUSH2 0x17B SWAP2 SWAP1 PUSH2 0x8F2 JUMP JUMPDEST PUSH1 0x40 MLOAD DUP1 SWAP2 SUB SWAP1 RETURN JUMPDEST PUSH2 0x18C PUSH2 0x6A8 JUMP JUMPDEST PUSH1 0x40 MLOAD PUSH2 0x199 SWAP2 SWAP1 PUSH2 0x8F2 JUMP JUMPDEST PUSH1 0x40 MLOAD DUP1 SWAP2 SUB SWAP1 RETURN JUMPDEST PUSH2 0x1AA PUSH2 0x6B0 JUMP JUMPDEST PUSH1 0x40 MLOAD PUSH2 0x1B7 SWAP2 SWAP1 PUSH2 0x8F2 JUMP JUMPDEST PUSH1 0x40 MLOAD DUP1 SWAP2 SUB SWAP1 RETURN JUMPDEST PUSH2 0x1C8 PUSH2 0x6B6 JUMP JUMPDEST PUSH1 0x40 MLOAD PUSH2 0x1D5 SWAP2 SWAP1 PUSH2 0x8F2 JUMP JUMPDEST PUSH1 0x40 MLOAD DUP1 SWAP2 SUB SWAP1 RETURN JUMPDEST PUSH2 0x1E6 PUSH2 0x6BC JUMP JUMPDEST STOP JUMPDEST PUSH2 0x1F0 PUSH2 0x6D9 JUMP JUMPDEST PUSH1 0x40 MLOAD PUSH2 0x1FD SWAP2 SWAP1 PUSH2 0xB89 JUMP JUMPDEST PUSH1 0x40 MLOAD DUP1 SWAP2 SUB SWAP1 RETURN JUMPDEST PUSH2 0x20E PUSH2 0x767 JUMP JUMPDEST PUSH1 0x40 MLOAD PUSH2 0x21B SWAP2 SWAP1 PUSH2 0x8F2 JUMP JUMPDEST PUSH1 0x40 MLOAD DUP1 SWAP2 SUB SWAP1 RETURN JUMPDEST PUSH2 0x22C PUSH2 0x76D JUMP JUMPDEST PUSH1 0x40 MLOAD PUSH2 0x239 SWAP2 SWAP1 PUSH2 0xB89 JUMP JUMPDEST PUSH1 0x40 MLOAD DUP1 SWAP2 SUB SWAP1 RETURN JUMPDEST DUP1 DUP1 PUSH1 0x2 PUSH1 0x0 PUSH2 0x100 EXP DUP2 SLOAD DUP2 PUSH20 0xFFFFFFFFFFFFFFFFFFFFFFFFFFFFFFFFFFFFFFFF MUL NOT AND SWAP1 DUP4 PUSH20 0xFFFFFFFFFFFFFFFFFFFFFFFFFFFFFFFFFFFFFFFF AND MUL OR SWAP1 SSTORE POP PUSH1 0x0 PUSH20 0xFFFFFFFFFFFFFFFFFFFFFFFFFFFFFFFFFFFFFFFF AND DUP2 PUSH20 0xFFFFFFFFFFFFFFFFFFFFFFFFFFFFFFFFFFFFFFFF AND SUB PUSH2 0x2F3 JUMPI PUSH1 0x40 MLOAD PUSH32 0x8C379A000000000000000000000000000000000000000000000000000000000 DUP2 MSTORE PUSH1 0x4 ADD PUSH2 0x2EA SWAP1 PUSH2 0xBF7 JUMP JUMPDEST PUSH1 0x40 MLOAD DUP1 SWAP2 SUB SWAP1 REVERT JUMPDEST PUSH1 0x0 ISZERO ISZERO PUSH1 0x9 PUSH1 0x0 SWAP1 SLOAD SWAP1 PUSH2 0x100 EXP SWAP1 DIV PUSH1 0xFF AND ISZERO ISZERO SUB PUSH2 0x349 JUMPI PUSH1 0x40 MLOAD PUSH32 0x8C379A000000000000000000000000000000000000000000000000000000000 DUP2 MSTORE PUSH1 0x4 ADD PUSH2 0x340 SWAP1 PUSH2 0xC63 JUMP JUMPDEST PUSH1 0x40 MLOAD DUP1 SWAP2 SUB SWAP1 REVERT JUMPDEST PUSH1 0x5 PUSH1 0x8 SLOAD LT ISZERO DUP1 ISZERO PUSH2 0x36A JUMPI POP PUSH1 0x1E PUSH1 0x7 SLOAD PUSH2 0x366 SWAP2 SWAP1 PUSH2 0xCB2 JUMP JUMPDEST TIMESTAMP GT ISZERO JUMPDEST ISZERO PUSH2 0x3C5 JUMPI PUSH1 0x0 PUSH1 0x8 DUP2 SWAP1 SSTORE POP PUSH1 0x0 PUSH1 0x8 SLOAD EQ PUSH2 0x38A JUMPI PUSH2 0x389 PUSH2 0xD08 JUMP JUMPDEST JUMPDEST PUSH1 0x40 MLOAD PUSH32 0x8C379A000000000000000000000000000000000000000000000000000000000 DUP2 MSTORE PUSH1 0x4 ADD PUSH2 0x3BC SWAP1 PUSH2 0xD83 JUMP JUMPDEST PUSH1 0x40 MLOAD DUP1 SWAP2 SUB SWAP1 REVERT JUMPDEST PUSH1 0x5 PUSH1 0x8 SLOAD GT ISZERO DUP1 ISZERO PUSH2 0x3E6 JUMPI POP PUSH1 0x1E PUSH1 0x7 SLOAD PUSH2 0x3E2 SWAP2 SWAP1 PUSH2 0xCB2 JUMP JUMPDEST TIMESTAMP LT ISZERO JUMPDEST ISZERO PUSH2 0x40E JUMPI PUSH1 0x0 PUSH1 0x8 DUP2 SWAP1 SSTORE POP PUSH1 0x0 PUSH1 0x8 SLOAD EQ PUSH2 0x406 JUMPI PUSH2 0x405 PUSH2 0xD08 JUMP JUMPDEST JUMPDEST TIMESTAMP PUSH1 0x7 DUP2 SWAP1 SSTORE POP JUMPDEST DUP2 PUSH1 0x2 PUSH1 0x0 PUSH2 0x100 EXP DUP2 SLOAD DUP2 PUSH20 0xFFFFFFFFFFFFFFFFFFFFFFFFFFFFFFFFFFFFFFFF MUL NOT AND SWAP1 DUP4 PUSH20 0xFFFFFFFFFFFFFFFFFFFFFFFFFFFFFFFFFFFFFFFF AND MUL OR SWAP1 SSTORE POP DUP3 PUSH1 0x0 DUP2 SWAP1 SSTORE POP PUSH1 0x1 PUSH1 0x8 PUSH1 0x0 DUP3 DUP3 SLOAD PUSH2 0x469 SWAP2 SWAP1 PUSH2 0xCB2 JUMP JUMPDEST SWAP3 POP POP DUP2 SWAP1 SSTORE POP PUSH1 0x0 PUSH1 0x1 SLOAD GT DUP1 ISZERO PUSH2 0x485 JUMPI POP PUSH1 0x0 SLOAD PUSH1 0x1 SLOAD GT JUMPDEST ISZERO PUSH2 0x50A JUMPI PUSH1 0x0 SLOAD PUSH1 0x1 PUSH1 0x0 DUP3 DUP3 SLOAD PUSH2 0x49E SWAP2 SWAP1 PUSH2 0xDA3 JUMP JUMPDEST SWAP3 POP POP DUP2 SWAP1 SSTORE POP PUSH1 0x0 SLOAD PUSH1 0x6 PUSH1 0x0 DUP3 DUP3 SLOAD PUSH2 0x4B9 SWAP2 SWAP1 PUSH2 0xCB2 JUMP JUMPDEST SWAP3 POP POP DUP2 SWAP1 SSTORE POP PUSH1 0x40 MLOAD DUP1 PUSH1 0x40 ADD PUSH1 0x40 MSTORE DUP1 PUSH1 0x12 DUP2 MSTORE PUSH1 0x20 ADD PUSH32 0x5472616E7366657220636F6D706C657465640000000000000000000000000000 DUP2 MSTORE POP PUSH1 0x3 SWAP1 DUP2 PUSH2 0x504 SWAP2 SWAP1 PUSH2 0xFE3 JUMP JUMPDEST POP PUSH2 0x545 JUMP JUMPDEST PUSH1 0x40 MLOAD PUSH32 0x8C379A000000000000000000000000000000000000000000000000000000000 DUP2 MSTORE PUSH1 0x4 ADD PUSH2 0x53C SWAP1 PUSH2 0x1101 JUMP JUMPDEST PUSH1 0x40 MLOAD DUP1 SWAP2 SUB SWAP1 REVERT JUMPDEST POP POP POP JUMP JUMPDEST PUSH1 0x7 SLOAD DUP2 JUMP JUMPDEST DUP2 PUSH1 0x4 SWAP1 DUP2 PUSH2 0x55F SWAP2 SWAP1 PUSH2 0xFE3 JUMP JUMPDEST POP DUP1 PUSH1 0x5 SWAP1 DUP2 PUSH2 0x56F SWAP2 SWAP1 PUSH2 0xFE3 JUMP JUMPDEST POP PUSH1 0x1 PUSH1 0x9 PUSH1 0x0 PUSH2 0x100 EXP DUP2 SLOAD DUP2 PUSH1 0xFF MUL NOT AND SWAP1 DUP4 ISZERO ISZERO MUL OR SWAP1 SSTORE POP TIMESTAMP PUSH1 0x7 DUP2 SWAP1 SSTORE POP PUSH1 0x8 PUSH1 0x4 DUP1 SLOAD PUSH2 0x5A1 SWAP1 PUSH2 0xE06 JUMP JUMPDEST SWAP1 POP EQ DUP1 ISZERO PUSH2 0x5BE JUMPI POP PUSH1 0x3 PUSH1 0x5 DUP1 SLOAD PUSH2 0x5BA SWAP1 PUSH2 0xE06 JUMP JUMPDEST SWAP1 POP EQ JUMPDEST PUSH2 0x5FD JUMPI PUSH1 0x40 MLOAD PUSH32 0x8C379A000000000000000000000000000000000000000000000000000000000 DUP2 MSTORE PUSH1 0x4 ADD PUSH2 0x5F4 SWAP1 PUSH2 0x116D JUMP JUMPDEST PUSH1 0x40 MLOAD DUP1 SWAP2 SUB SWAP1 REVERT JUMPDEST POP POP JUMP JUMPDEST PUSH1 0x9 PUSH1 0x0 SWAP1 SLOAD SWAP1 PUSH2 0x100 EXP SWAP1 DIV PUSH1 0xFF AND DUP2 JUMP JUMPDEST PUSH1 0x5 DUP1 SLOAD PUSH2 0x621 SWAP1 PUSH2 0xE06 JUMP JUMPDEST DUP1 PUSH1 0x1F ADD PUSH1 0x20 DUP1 SWAP2 DIV MUL PUSH1 0x20 ADD PUSH1 0x40 MLOAD SWAP1 DUP2 ADD PUSH1 0x40 MSTORE DUP1 SWAP3 SWAP2 SWAP1 DUP2 DUP2 MSTORE PUSH1 0x20 ADD DUP3 DUP1 SLOAD PUSH2 0x64D SWAP1 PUSH2 0xE06 JUMP JUMPDEST DUP1 ISZERO PUSH2 0x69A JUMPI DUP1 PUSH1 0x1F LT PUSH2 0x66F JUMPI PUSH2 0x100 DUP1 DUP4 SLOAD DIV MUL DUP4 MSTORE SWAP2 PUSH1 0x20 ADD SWAP2 PUSH2 0x69A JUMP JUMPDEST DUP3 ADD SWAP2 SWAP1 PUSH1 0x0 MSTORE PUSH1 0x20 PUSH1 0x0 KECCAK256 SWAP1 JUMPDEST DUP2 SLOAD DUP2 MSTORE SWAP1 PUSH1 0x1 ADD SWAP1 PUSH1 0x20 ADD DUP1 DUP4 GT PUSH2 0x67D JUMPI DUP3 SWAP1 SUB PUSH1 0x1F AND DUP3 ADD SWAP2 JUMPDEST POP POP POP POP POP DUP2 JUMP JUMPDEST PUSH1 0x8 SLOAD DUP2 JUMP JUMPDEST PUSH1 0x0 TIMESTAMP SWAP1 POP SWAP1 JUMP JUMPDEST PUSH1 0x1 SLOAD DUP2 JUMP JUMPDEST PUSH1 0x6 SLOAD DUP2 JUMP JUMPDEST PUSH1 0x0 PUSH1 0x9 PUSH1 0x0 PUSH2 0x100 EXP DUP2 SLOAD DUP2 PUSH1 0xFF MUL NOT AND SWAP1 DUP4 ISZERO ISZERO MUL OR SWAP1 SSTORE POP JUMP JUMPDEST PUSH1 0x4 DUP1 SLOAD PUSH2 0x6E6 SWAP1 PUSH2 0xE06 JUMP JUMPDEST DUP1 PUSH1 0x1F ADD PUSH1 0x20 DUP1 SWAP2 DIV MUL PUSH1 0x20 ADD PUSH1 0x40 MLOAD SWAP1 DUP2 ADD PUSH1 0x40 MSTORE DUP1 SWAP3 SWAP2 SWAP1 DUP2 DUP2 MSTORE PUSH1 0x20 ADD DUP3 DUP1 SLOAD PUSH2 0x712 SWAP1 PUSH2 0xE06 JUMP JUMPDEST DUP1 ISZERO PUSH2 0x75F JUMPI DUP1 PUSH1 0x1F LT PUSH2 0x734 JUMPI PUSH2 0x100 DUP1 DUP4 SLOAD DIV MUL DUP4 MSTORE SWAP2 PUSH1 0x20 ADD SWAP2 PUSH2 0x75F JUMP JUMPDEST DUP3 ADD SWAP2 SWAP1 PUSH1 0x0 MSTORE PUSH1 0x20 PUSH1 0x0 KECCAK256 SWAP1 JUMPDEST DUP2 SLOAD DUP2 MSTORE SWAP1 PUSH1 0x1 ADD SWAP1 PUSH1 0x20 ADD DUP1 DUP4 GT PUSH2 0x742 JUMPI DUP3 SWAP1 SUB PUSH1 0x1F AND DUP3 ADD SWAP2 JUMPDEST POP POP POP POP POP DUP2 JUMP JUMPDEST PUSH1 0x0 SLOAD DUP2 JUMP JUMPDEST PUSH1 0x3 DUP1 SLOAD PUSH2 0x77A SWAP1 PUSH2 0xE06 JUMP JUMPDEST DUP1 PUSH1 0x1F ADD PUSH1 0x20 DUP1 SWAP2 DIV MUL PUSH1 0x20 ADD PUSH1 0x40 MLOAD SWAP1 DUP2 ADD PUSH1 0x40 MSTORE DUP1 SWAP3 SWAP2 SWAP1 DUP2 DUP2 MSTORE PUSH1 0x20 ADD DUP3 DUP1 SLOAD PUSH2 0x7A6 SWAP1 PUSH2 0xE06 JUMP JUMPDEST DUP1 ISZERO PUSH2 0x7F3 JUMPI DUP1 PUSH1 0x1F LT PUSH2 0x7C8 JUMPI PUSH2 0x100 DUP1 DUP4 SLOAD DIV MUL DUP4 MSTORE SWAP2 PUSH1 0x20 ADD SWAP2 PUSH2 0x7F3 JUMP JUMPDEST DUP3 ADD SWAP2 SWAP1 PUSH1 0x0 MSTORE PUSH1 0x20 PUSH1 0x0 KECCAK256 SWAP1 JUMPDEST DUP2 SLOAD DUP2 MSTORE SWAP1 PUSH1 0x1 ADD SWAP1 PUSH1 0x20 ADD DUP1 DUP4 GT PUSH2 0x7D6 JUMPI DUP3 SWAP1 SUB PUSH1 0x1F AND DUP3 ADD SWAP2 JUMPDEST POP POP POP POP POP DUP2 JUMP JUMPDEST PUSH1 0x0 PUSH1 0x40 MLOAD SWAP1 POP SWAP1 JUMP JUMPDEST PUSH1 0x0 DUP1 REVERT JUMPDEST PUSH1 0x0 DUP1 REVERT JUMPDEST PUSH1 0x0 DUP2 SWAP1 POP SWAP2 SWAP1 POP JUMP JUMPDEST PUSH2 0x822 DUP2 PUSH2 0x80F JUMP JUMPDEST DUP2 EQ PUSH2 0x82D JUMPI PUSH1 0x0 DUP1 REVERT JUMPDEST POP JUMP JUMPDEST PUSH1 0x0 DUP2 CALLDATALOAD SWAP1 POP PUSH2 0x83F DUP2 PUSH2 0x819 JUMP JUMPDEST SWAP3 SWAP2 POP POP JUMP JUMPDEST PUSH1 0x0 PUSH20 0xFFFFFFFFFFFFFFFFFFFFFFFFFFFFFFFFFFFFFFFF DUP3 AND SWAP1 POP SWAP2 SWAP1 POP JUMP JUMPDEST PUSH1 0x0 PUSH2 0x870 DUP3 PUSH2 0x845 JUMP JUMPDEST SWAP1 POP SWAP2 SWAP1 POP JUMP JUMPDEST PUSH2 0x880 DUP2 PUSH2 0x865 JUMP JUMPDEST DUP2 EQ PUSH2 0x88B JUMPI PUSH1 0x0 DUP1 REVERT JUMPDEST POP JUMP JUMPDEST PUSH1 0x0 DUP2 CALLDATALOAD SWAP1 POP PUSH2 0x89D DUP2 PUSH2 0x877 JUMP JUMPDEST SWAP3 SWAP2 POP POP JUMP JUMPDEST PUSH1 0x0 DUP1 PUSH1 0x40 DUP4 DUP6 SUB SLT ISZERO PUSH2 0x8BA JUMPI PUSH2 0x8B9 PUSH2 0x805 JUMP JUMPDEST JUMPDEST PUSH1 0x0 PUSH2 0x8C8 DUP6 DUP3 DUP7 ADD PUSH2 0x830 JUMP JUMPDEST SWAP3 POP POP PUSH1 0x20 PUSH2 0x8D9 DUP6 DUP3 DUP7 ADD PUSH2 0x88E JUMP JUMPDEST SWAP2 POP POP SWAP3 POP SWAP3 SWAP1 POP JUMP JUMPDEST PUSH2 0x8EC DUP2 PUSH2 0x80F JUMP JUMPDEST DUP3 MSTORE POP POP JUMP JUMPDEST PUSH1 0x0 PUSH1 0x20 DUP3 ADD SWAP1 POP PUSH2 0x907 PUSH1 0x0 DUP4 ADD DUP5 PUSH2 0x8E3 JUMP JUMPDEST SWAP3 SWAP2 POP POP JUMP JUMPDEST PUSH1 0x0 DUP1 REVERT JUMPDEST PUSH1 0x0 DUP1 REVERT JUMPDEST PUSH1 0x0 PUSH1 0x1F NOT PUSH1 0x1F DUP4 ADD AND SWAP1 POP SWAP2 SWAP1 POP JUMP JUMPDEST PUSH32 0x4E487B7100000000000000000000000000000000000000000000000000000000 PUSH1 0x0 MSTORE PUSH1 0x41 PUSH1 0x4 MSTORE PUSH1 0x24 PUSH1 0x0 REVERT JUMPDEST PUSH2 0x960 DUP3 PUSH2 0x917 JUMP JUMPDEST DUP2 ADD DUP2 DUP2 LT PUSH8 0xFFFFFFFFFFFFFFFF DUP3 GT OR ISZERO PUSH2 0x97F JUMPI PUSH2 0x97E PUSH2 0x928 JUMP JUMPDEST JUMPDEST DUP1 PUSH1 0x40 MSTORE POP POP POP JUMP JUMPDEST PUSH1 0x0 PUSH2 0x992 PUSH2 0x7FB JUMP JUMPDEST SWAP1 POP PUSH2 0x99E DUP3 DUP3 PUSH2 0x957 JUMP JUMPDEST SWAP2 SWAP1 POP JUMP JUMPDEST PUSH1 0x0 PUSH8 0xFFFFFFFFFFFFFFFF DUP3 GT ISZERO PUSH2 0x9BE JUMPI PUSH2 0x9BD PUSH2 0x928 JUMP JUMPDEST JUMPDEST PUSH2 0x9C7 DUP3 PUSH2 0x917 JUMP JUMPDEST SWAP1 POP PUSH1 0x20 DUP2 ADD SWAP1 POP SWAP2 SWAP1 POP JUMP JUMPDEST DUP3 DUP2 DUP4 CALLDATACOPY PUSH1 0x0 DUP4 DUP4 ADD MSTORE POP POP POP JUMP JUMPDEST PUSH1 0x0 PUSH2 0x9F6 PUSH2 0x9F1 DUP5 PUSH2 0x9A3 JUMP JUMPDEST PUSH2 0x988 JUMP JUMPDEST SWAP1 POP DUP3 DUP2 MSTORE PUSH1 0x20 DUP2 ADD DUP5 DUP5 DUP5 ADD GT ISZERO PUSH2 0xA12 JUMPI PUSH2 0xA11 PUSH2 0x912 JUMP JUMPDEST JUMPDEST PUSH2 0xA1D DUP5 DUP3 DUP6 PUSH2 0x9D4 JUMP JUMPDEST POP SWAP4 SWAP3 POP POP POP JUMP JUMPDEST PUSH1 0x0 DUP3 PUSH1 0x1F DUP4 ADD SLT PUSH2 0xA3A JUMPI PUSH2 0xA39 PUSH2 0x90D JUMP JUMPDEST JUMPDEST DUP2 CALLDATALOAD PUSH2 0xA4A DUP5 DUP3 PUSH1 0x20 DUP7 ADD PUSH2 0x9E3 JUMP JUMPDEST SWAP2 POP POP SWAP3 SWAP2 POP POP JUMP JUMPDEST PUSH1 0x0 DUP1 PUSH1 0x40 DUP4 DUP6 SUB SLT ISZERO PUSH2 0xA6A JUMPI PUSH2 0xA69 PUSH2 0x805 JUMP JUMPDEST JUMPDEST PUSH1 0x0 DUP4 ADD CALLDATALOAD PUSH8 0xFFFFFFFFFFFFFFFF DUP2 GT ISZERO PUSH2 0xA88 JUMPI PUSH2 0xA87 PUSH2 0x80A JUMP JUMPDEST JUMPDEST PUSH2 0xA94 DUP6 DUP3 DUP7 ADD PUSH2 0xA25 JUMP JUMPDEST SWAP3 POP POP PUSH1 0x20 DUP4 ADD CALLDATALOAD PUSH8 0xFFFFFFFFFFFFFFFF DUP2 GT ISZERO PUSH2 0xAB5 JUMPI PUSH2 0xAB4 PUSH2 0x80A JUMP JUMPDEST JUMPDEST PUSH2 0xAC1 DUP6 DUP3 DUP7 ADD PUSH2 0xA25 JUMP JUMPDEST SWAP2 POP POP SWAP3 POP SWAP3 SWAP1 POP JUMP JUMPDEST PUSH1 0x0 DUP2 ISZERO ISZERO SWAP1 POP SWAP2 SWAP1 POP JUMP JUMPDEST PUSH2 0xAE0 DUP2 PUSH2 0xACB JUMP JUMPDEST DUP3 MSTORE POP POP JUMP JUMPDEST PUSH1 0x0 PUSH1 0x20 DUP3 ADD SWAP1 POP PUSH2 0xAFB PUSH1 0x0 DUP4 ADD DUP5 PUSH2 0xAD7 JUMP JUMPDEST SWAP3 SWAP2 POP POP JUMP JUMPDEST PUSH1 0x0 DUP2 MLOAD SWAP1 POP SWAP2 SWAP1 POP JUMP JUMPDEST PUSH1 0x0 DUP3 DUP3 MSTORE PUSH1 0x20 DUP3 ADD SWAP1 POP SWAP3 SWAP2 POP POP JUMP JUMPDEST PUSH1 0x0 JUMPDEST DUP4 DUP2 LT ISZERO PUSH2 0xB3B JUMPI DUP1 DUP3 ADD MLOAD DUP2 DUP5 ADD MSTORE PUSH1 0x20 DUP2 ADD SWAP1 POP PUSH2 0xB20 JUMP JUMPDEST DUP4 DUP2 GT ISZERO PUSH2 0xB4A JUMPI PUSH1 0x0 DUP5 DUP5 ADD MSTORE JUMPDEST POP POP POP POP JUMP JUMPDEST PUSH1 0x0 PUSH2 0xB5B DUP3 PUSH2 0xB01 JUMP JUMPDEST PUSH2 0xB65 DUP2 DUP6 PUSH2 0xB0C JUMP JUMPDEST SWAP4 POP PUSH2 0xB75 DUP2 DUP6 PUSH1 0x20 DUP7 ADD PUSH2 0xB1D JUMP JUMPDEST PUSH2 0xB7E DUP2 PUSH2 0x917 JUMP JUMPDEST DUP5 ADD SWAP2 POP POP SWAP3 SWAP2 POP POP JUMP JUMPDEST PUSH1 0x0 PUSH1 0x20 DUP3 ADD SWAP1 POP DUP2 DUP2 SUB PUSH1 0x0 DUP4 ADD MSTORE PUSH2 0xBA3 DUP2 DUP5 PUSH2 0xB50 JUMP JUMPDEST SWAP1 POP SWAP3 SWAP2 POP POP JUMP JUMPDEST PUSH32 0x2054686973206164647265737320646F65736E27742065786973747300000000 PUSH1 0x0 DUP3 ADD MSTORE POP JUMP JUMPDEST PUSH1 0x0 PUSH2 0xBE1 PUSH1 0x1C DUP4 PUSH2 0xB0C JUMP JUMPDEST SWAP2 POP PUSH2 0xBEC DUP3 PUSH2 0xBAB JUMP JUMPDEST PUSH1 0x20 DUP3 ADD SWAP1 POP SWAP2 SWAP1 POP JUMP JUMPDEST PUSH1 0x0 PUSH1 0x20 DUP3 ADD SWAP1 POP DUP2 DUP2 SUB PUSH1 0x0 DUP4 ADD MSTORE PUSH2 0xC10 DUP2 PUSH2 0xBD4 JUMP JUMPDEST SWAP1 POP SWAP2 SWAP1 POP JUMP JUMPDEST PUSH32 0x506C6561736520696E7365727420796F75722063617264000000000000000000 PUSH1 0x0 DUP3 ADD MSTORE POP JUMP JUMPDEST PUSH1 0x0 PUSH2 0xC4D PUSH1 0x17 DUP4 PUSH2 0xB0C JUMP JUMPDEST SWAP2 POP PUSH2 0xC58 DUP3 PUSH2 0xC17 JUMP JUMPDEST PUSH1 0x20 DUP3 ADD SWAP1 POP SWAP2 SWAP1 POP JUMP JUMPDEST PUSH1 0x0 PUSH1 0x20 DUP3 ADD SWAP1 POP DUP2 DUP2 SUB PUSH1 0x0 DUP4 ADD MSTORE PUSH2 0xC7C DUP2 PUSH2 0xC40 JUMP JUMPDEST SWAP1 POP SWAP2 SWAP1 POP JUMP JUMPDEST PUSH32 0x4E487B7100000000000000000000000000000000000000000000000000000000 PUSH1 0x0 MSTORE PUSH1 0x11 PUSH1 0x4 MSTORE PUSH1 0x24 PUSH1 0x0 REVERT JUMPDEST PUSH1 0x0 PUSH2 0xCBD DUP3 PUSH2 0x80F JUMP JUMPDEST SWAP2 POP PUSH2 0xCC8 DUP4 PUSH2 0x80F JUMP JUMPDEST SWAP3 POP DUP3 PUSH32 0xFFFFFFFFFFFFFFFFFFFFFFFFFFFFFFFFFFFFFFFFFFFFFFFFFFFFFFFFFFFFFFFF SUB DUP3 GT ISZERO PUSH2 0xCFD JUMPI PUSH2 0xCFC PUSH2 0xC83 JUMP JUMPDEST JUMPDEST DUP3 DUP3 ADD SWAP1 POP SWAP3 SWAP2 POP POP JUMP JUMPDEST PUSH32 0x4E487B7100000000000000000000000000000000000000000000000000000000 PUSH1 0x0 MSTORE PUSH1 0x1 PUSH1 0x4 MSTORE PUSH1 0x24 PUSH1 0x0 REVERT JUMPDEST PUSH32 0x6F6E6C792035207472616E73616374696F6E7320706572206461790000000000 PUSH1 0x0 DUP3 ADD MSTORE POP JUMP JUMPDEST PUSH1 0x0 PUSH2 0xD6D PUSH1 0x1B DUP4 PUSH2 0xB0C JUMP JUMPDEST SWAP2 POP PUSH2 0xD78 DUP3 PUSH2 0xD37 JUMP JUMPDEST PUSH1 0x20 DUP3 ADD SWAP1 POP SWAP2 SWAP1 POP JUMP JUMPDEST PUSH1 0x0 PUSH1 0x20 DUP3 ADD SWAP1 POP DUP2 DUP2 SUB PUSH1 0x0 DUP4 ADD MSTORE PUSH2 0xD9C DUP2 PUSH2 0xD60 JUMP JUMPDEST SWAP1 POP SWAP2 SWAP1 POP JUMP JUMPDEST PUSH1 0x0 PUSH2 0xDAE DUP3 PUSH2 0x80F JUMP JUMPDEST SWAP2 POP PUSH2 0xDB9 DUP4 PUSH2 0x80F JUMP JUMPDEST SWAP3 POP DUP3 DUP3 LT ISZERO PUSH2 0xDCC JUMPI PUSH2 0xDCB PUSH2 0xC83 JUMP JUMPDEST JUMPDEST DUP3 DUP3 SUB SWAP1 POP SWAP3 SWAP2 POP POP JUMP JUMPDEST PUSH32 0x4E487B7100000000000000000000000000000000000000000000000000000000 PUSH1 0x0 MSTORE PUSH1 0x22 PUSH1 0x4 MSTORE PUSH1 0x24 PUSH1 0x0 REVERT JUMPDEST PUSH1 0x0 PUSH1 0x2 DUP3 DIV SWAP1 POP PUSH1 0x1 DUP3 AND DUP1 PUSH2 0xE1E JUMPI PUSH1 0x7F DUP3 AND SWAP2 POP JUMPDEST PUSH1 0x20 DUP3 LT DUP2 SUB PUSH2 0xE31 JUMPI PUSH2 0xE30 PUSH2 0xDD7 JUMP JUMPDEST JUMPDEST POP SWAP2 SWAP1 POP JUMP JUMPDEST PUSH1 0x0 DUP2 SWAP1 POP DUP2 PUSH1 0x0 MSTORE PUSH1 0x20 PUSH1 0x0 KECCAK256 SWAP1 POP SWAP2 SWAP1 POP JUMP JUMPDEST PUSH1 0x0 PUSH1 0x20 PUSH1 0x1F DUP4 ADD DIV SWAP1 POP SWAP2 SWAP1 POP JUMP JUMPDEST PUSH1 0x0 DUP3 DUP3 SHL SWAP1 POP SWAP3 SWAP2 POP POP JUMP JUMPDEST PUSH1 0x0 PUSH1 0x8 DUP4 MUL PUSH2 0xE99 PUSH32 0xFFFFFFFFFFFFFFFFFFFFFFFFFFFFFFFFFFFFFFFFFFFFFFFFFFFFFFFFFFFFFFFF DUP3 PUSH2 0xE5C JUMP JUMPDEST PUSH2 0xEA3 DUP7 DUP4 PUSH2 0xE5C JUMP JUMPDEST SWAP6 POP DUP1 NOT DUP5 AND SWAP4 POP DUP1 DUP7 AND DUP5 OR SWAP3 POP POP POP SWAP4 SWAP3 POP POP POP JUMP JUMPDEST PUSH1 0x0 DUP2 SWAP1 POP SWAP2 SWAP1 POP JUMP JUMPDEST PUSH1 0x0 PUSH2 0xEE0 PUSH2 0xEDB PUSH2 0xED6 DUP5 PUSH2 0x80F JUMP JUMPDEST PUSH2 0xEBB JUMP JUMPDEST PUSH2 0x80F JUMP JUMPDEST SWAP1 POP SWAP2 SWAP1 POP JUMP JUMPDEST PUSH1 0x0 DUP2 SWAP1 POP SWAP2 SWAP1 POP JUMP JUMPDEST PUSH2 0xEFA DUP4 PUSH2 0xEC5 JUMP JUMPDEST PUSH2 0xF0E PUSH2 0xF06 DUP3 PUSH2 0xEE7 JUMP JUMPDEST DUP5 DUP5 SLOAD PUSH2 0xE69 JUMP JUMPDEST DUP3 SSTORE POP POP POP POP JUMP JUMPDEST PUSH1 0x0 SWAP1 JUMP JUMPDEST PUSH2 0xF23 PUSH2 0xF16 JUMP JUMPDEST PUSH2 0xF2E DUP2 DUP5 DUP5 PUSH2 0xEF1 JUMP JUMPDEST POP POP POP JUMP JUMPDEST JUMPDEST DUP2 DUP2 LT ISZERO PUSH2 0xF52 JUMPI PUSH2 0xF47 PUSH1 0x0 DUP3 PUSH2 0xF1B JUMP JUMPDEST PUSH1 0x1 DUP2 ADD SWAP1 POP PUSH2 0xF34 JUMP JUMPDEST POP POP JUMP JUMPDEST PUSH1 0x1F DUP3 GT ISZERO PUSH2 0xF97 JUMPI PUSH2 0xF68 DUP2 PUSH2 0xE37 JUMP JUMPDEST PUSH2 0xF71 DUP5 PUSH2 0xE4C JUMP JUMPDEST DUP2 ADD PUSH1 0x20 DUP6 LT ISZERO PUSH2 0xF80 JUMPI DUP2 SWAP1 POP JUMPDEST PUSH2 0xF94 PUSH2 0xF8C DUP6 PUSH2 0xE4C JUMP JUMPDEST DUP4 ADD DUP3 PUSH2 0xF33 JUMP JUMPDEST POP POP JUMPDEST POP POP POP JUMP JUMPDEST PUSH1 0x0 DUP3 DUP3 SHR SWAP1 POP SWAP3 SWAP2 POP POP JUMP JUMPDEST PUSH1 0x0 PUSH2 0xFBA PUSH1 0x0 NOT DUP5 PUSH1 0x8 MUL PUSH2 0xF9C JUMP JUMPDEST NOT DUP1 DUP4 AND SWAP2 POP POP SWAP3 SWAP2 POP POP JUMP JUMPDEST PUSH1 0x0 PUSH2 0xFD3 DUP4 DUP4 PUSH2 0xFA9 JUMP JUMPDEST SWAP2 POP DUP3 PUSH1 0x2 MUL DUP3 OR SWAP1 POP SWAP3 SWAP2 POP POP JUMP JUMPDEST PUSH2 0xFEC DUP3 PUSH2 0xB01 JUMP JUMPDEST PUSH8 0xFFFFFFFFFFFFFFFF DUP2 GT ISZERO PUSH2 0x1005 JUMPI PUSH2 0x1004 PUSH2 0x928 JUMP JUMPDEST JUMPDEST PUSH2 0x100F DUP3 SLOAD PUSH2 0xE06 JUMP JUMPDEST PUSH2 0x101A DUP3 DUP3 DUP6 PUSH2 0xF56 JUMP JUMPDEST PUSH1 0x0 PUSH1 0x20 SWAP1 POP PUSH1 0x1F DUP4 GT PUSH1 0x1 DUP2 EQ PUSH2 0x104D JUMPI PUSH1 0x0 DUP5 ISZERO PUSH2 0x103B JUMPI DUP3 DUP8 ADD MLOAD SWAP1 POP JUMPDEST PUSH2 0x1045 DUP6 DUP3 PUSH2 0xFC7 JUMP JUMPDEST DUP7 SSTORE POP PUSH2 0x10AD JUMP JUMPDEST PUSH1 0x1F NOT DUP5 AND PUSH2 0x105B DUP7 PUSH2 0xE37 JUMP JUMPDEST PUSH1 0x0 JUMPDEST DUP3 DUP2 LT ISZERO PUSH2 0x1083 JUMPI DUP5 DUP10 ADD MLOAD DUP3 SSTORE PUSH1 0x1 DUP3 ADD SWAP2 POP PUSH1 0x20 DUP6 ADD SWAP5 POP PUSH1 0x20 DUP2 ADD SWAP1 POP PUSH2 0x105E JUMP JUMPDEST DUP7 DUP4 LT ISZERO PUSH2 0x10A0 JUMPI DUP5 DUP10 ADD MLOAD PUSH2 0x109C PUSH1 0x1F DUP10 AND DUP3 PUSH2 0xFA9 JUMP JUMPDEST DUP4 SSTORE POP JUMPDEST PUSH1 0x1 PUSH1 0x2 DUP9 MUL ADD DUP9 SSTORE POP POP POP JUMPDEST POP POP POP POP POP POP JUMP JUMPDEST PUSH32 0x4E6F7420656E6F7567682066756E647300000000000000000000000000000000 PUSH1 0x0 DUP3 ADD MSTORE POP JUMP JUMPDEST PUSH1 0x0 PUSH2 0x10EB PUSH1 0x10 DUP4 PUSH2 0xB0C JUMP JUMPDEST SWAP2 POP PUSH2 0x10F6 DUP3 PUSH2 0x10B5 JUMP JUMPDEST PUSH1 0x20 DUP3 ADD SWAP1 POP SWAP2 SWAP1 POP JUMP JUMPDEST PUSH1 0x0 PUSH1 0x20 DUP3 ADD SWAP1 POP DUP2 DUP2 SUB PUSH1 0x0 DUP4 ADD MSTORE PUSH2 0x111A DUP2 PUSH2 0x10DE JUMP JUMPDEST SWAP1 POP SWAP2 SWAP1 POP JUMP JUMPDEST PUSH32 0x4E6F2076616C6964206372656469742063617264000000000000000000000000 PUSH1 0x0 DUP3 ADD MSTORE POP JUMP JUMPDEST PUSH1 0x0 PUSH2 0x1157 PUSH1 0x14 DUP4 PUSH2 0xB0C JUMP JUMPDEST SWAP2 POP PUSH2 0x1162 DUP3 PUSH2 0x1121 JUMP JUMPDEST PUSH1 0x20 DUP3 ADD SWAP1 POP SWAP2 SWAP1 POP JUMP JUMPDEST PUSH1 0x0 PUSH1 0x20 DUP3 ADD SWAP1 POP DUP2 DUP2 SUB PUSH1 0x0 DUP4 ADD MSTORE PUSH2 0x1186 DUP2 PUSH2 0x114A JUMP JUMPDEST SWAP1 POP SWAP2 SWAP1 POP JUMP INVALID LOG2 PUSH5 0x6970667358 0x22 SLT KECCAK256 SELFBALANCE CALLER 0xE1 0xFB CALLVALUE LOG0 PUSH24 0xBFD3E98B004E76C479FB16B28316C6244FEDCEF59E6E6501 0xE7 PUSH5 0x736F6C6343 STOP ADDMOD 0xF STOP CALLER "
				},
				"gasEstimates": {
					"creation": {
						"codeDepositCost": "909400",
						"executionCost": "infinite",
						"totalCost": "infinite"
					},
					"external": {
						"TotalAmount()": "2496",
						"TotalFunds()": "2474",
						"amount()": "2495",
						"callCount()": "2540",
						"callPutCard()": "2538",
						"cardNumber()": "infinite",
						"cvv()": "infinite",
						"firstTransferTime()": "2452",
						"getOutCard()": "24433",
						"getTime()": "359",
						"message()": "infinite",
						"sendMoney(uint256,address)": "infinite",
						"setCard(string,string)": "infinite"
					}
				},
				"methodIdentifiers": {
					"TotalAmount()": "7eb9f571",
					"TotalFunds()": "7b9a3f4c",
					"amount()": "aa8c217c",
					"callCount()": "4b28f9a2",
					"callPutCard()": "3c626f00",
					"cardNumber()": "8fa11864",
					"cvv()": "42fb7936",
					"firstTransferTime()": "0e85fa72",
					"getOutCard()": "8e029c0b",
					"getTime()": "557ed1ba",
					"message()": "e21f37ce",
					"sendMoney(uint256,address)": "062a7544",
					"setCard(string,string)": "12a029a4"
				}
			},
			"storageLayout": {
				"storage": [
					{
						"astId": 3,
						"contract": "Dapp/MoneyTransfer.sol:MoneyTransfer",
						"label": "amount",
						"offset": 0,
						"slot": "0",
						"type": "t_uint256"
					},
					{
						"astId": 5,
						"contract": "Dapp/MoneyTransfer.sol:MoneyTransfer",
						"label": "TotalFunds",
						"offset": 0,
						"slot": "1",
						"type": "t_uint256"
					},
					{
						"astId": 7,
						"contract": "Dapp/MoneyTransfer.sol:MoneyTransfer",
						"label": "receiver",
						"offset": 0,
						"slot": "2",
						"type": "t_address"
					},
					{
						"astId": 9,
						"contract": "Dapp/MoneyTransfer.sol:MoneyTransfer",
						"label": "message",
						"offset": 0,
						"slot": "3",
						"type": "t_string_storage"
					},
					{
						"astId": 11,
						"contract": "Dapp/MoneyTransfer.sol:MoneyTransfer",
						"label": "cardNumber",
						"offset": 0,
						"slot": "4",
						"type": "t_string_storage"
					},
					{
						"astId": 13,
						"contract": "Dapp/MoneyTransfer.sol:MoneyTransfer",
						"label": "cvv",
						"offset": 0,
						"slot": "5",
						"type": "t_string_storage"
					},
					{
						"astId": 15,
						"contract": "Dapp/MoneyTransfer.sol:MoneyTransfer",
						"label": "TotalAmount",
						"offset": 0,
						"slot": "6",
						"type": "t_uint256"
					},
					{
						"astId": 17,
						"contract": "Dapp/MoneyTransfer.sol:MoneyTransfer",
						"label": "firstTransferTime",
						"offset": 0,
						"slot": "7",
						"type": "t_uint256"
					},
					{
						"astId": 30,
						"contract": "Dapp/MoneyTransfer.sol:MoneyTransfer",
						"label": "callCount",
						"offset": 0,
						"slot": "8",
						"type": "t_uint256"
					},
					{
						"astId": 33,
						"contract": "Dapp/MoneyTransfer.sol:MoneyTransfer",
						"label": "callPutCard",
						"offset": 0,
						"slot": "9",
						"type": "t_bool"
					}
				],
				"types": {
					"t_address": {
						"encoding": "inplace",
						"label": "address",
						"numberOfBytes": "20"
					},
					"t_bool": {
						"encoding": "inplace",
						"label": "bool",
						"numberOfBytes": "1"
					},
					"t_string_storage": {
						"encoding": "bytes",
						"label": "string",
						"numberOfBytes": "32"
					},
					"t_uint256": {
						"encoding": "inplace",
						"label": "uint256",
						"numberOfBytes": "32"
					}
				}
			},
			"userdoc": {
				"kind": "user",
				"methods": {},
				"version": 1
			}
		}
	}
}