{
	"Dapp/MoneyTransfer.sol": {
		"MoneyTransfer": {
			"abi": [
				{
					"inputs": [
						{
							"internalType": "uint256",
							"name": "_totalFunds",
							"type": "uint256"
						},
						{
							"internalType": "string",
							"name": "_cardNumber",
							"type": "string"
						},
						{
							"internalType": "uint256",
							"name": "_cvv",
							"type": "uint256"
						}
					],
					"stateMutability": "nonpayable",
					"type": "constructor"
				},
				{
					"inputs": [],
					"name": "TotalFunds",
					"outputs": [
						{
							"internalType": "uint256",
							"name": "",
							"type": "uint256"
						}
					],
					"stateMutability": "view",
					"type": "function"
				},
				{
					"inputs": [],
					"name": "amount",
					"outputs": [
						{
							"internalType": "uint256",
							"name": "",
							"type": "uint256"
						}
					],
					"stateMutability": "view",
					"type": "function"
				},
				{
					"inputs": [],
					"name": "cardNumber",
					"outputs": [
						{
							"internalType": "string",
							"name": "",
							"type": "string"
						}
					],
					"stateMutability": "view",
					"type": "function"
				},
				{
					"inputs": [],
					"name": "message",
					"outputs": [
						{
							"internalType": "string",
							"name": "",
							"type": "string"
						}
					],
					"stateMutability": "view",
					"type": "function"
				},
				{
					"inputs": [],
					"name": "receiverFunds",
					"outputs": [
						{
							"internalType": "uint256",
							"name": "",
							"type": "uint256"
						}
					],
					"stateMutability": "view",
					"type": "function"
				},
				{
					"inputs": [
						{
							"internalType": "uint256",
							"name": "_amount",
							"type": "uint256"
						},
						{
							"internalType": "address",
							"name": "_receiver",
							"type": "address"
						}
					],
					"name": "sendMoney",
					"outputs": [],
					"stateMutability": "nonpayable",
					"type": "function"
				},
				{
					"inputs": [],
					"name": "totalWeekTransactions",
					"outputs": [
						{
							"internalType": "uint256",
							"name": "",
							"type": "uint256"
						}
					],
					"stateMutability": "view",
					"type": "function"
				}
			],
			"devdoc": {
				"kind": "dev",
				"methods": {},
				"version": 1
			},
			"evm": {
				"assembly": "    /* \"Dapp/MoneyTransfer.sol\":122:1557  contract MoneyTransfer {... */\n  mstore(0x40, 0x80)\n    /* \"Dapp/MoneyTransfer.sol\":287:295  24 hours */\n  0x015180\n    /* \"Dapp/MoneyTransfer.sol\":276:295  uint day = 24 hours */\n  0x03\n  sstore\n    /* \"Dapp/MoneyTransfer.sol\":541:711  constructor (uint256 _totalFunds, string memory _cardNumber, uint _cvv){... */\n  callvalue\n  dup1\n  iszero\n  tag_1\n  jumpi\n  0x00\n  dup1\n  revert\ntag_1:\n  pop\n  mload(0x40)\n  sub(codesize, bytecodeSize)\n  dup1\n  bytecodeSize\n  dup4\n  codecopy\n  dup2\n  dup2\n  add\n  0x40\n  mstore\n  dup2\n  add\n  swap1\n  tag_2\n  swap2\n  swap1\n  tag_3\n  jump\t// in\ntag_2:\n    /* \"Dapp/MoneyTransfer.sol\":636:647  _cardNumber */\n  dup2\n    /* \"Dapp/MoneyTransfer.sol\":623:633  cardNumber */\n  0x0a\n    /* \"Dapp/MoneyTransfer.sol\":623:647  cardNumber = _cardNumber */\n  swap1\n  dup2\n  tag_6\n  swap2\n  swap1\n  tag_7\n  jump\t// in\ntag_6:\n  pop\n    /* \"Dapp/MoneyTransfer.sol\":664:668  _cvv */\n  dup1\n    /* \"Dapp/MoneyTransfer.sol\":658:661  cvv */\n  0x0b\n    /* \"Dapp/MoneyTransfer.sol\":658:668  cvv = _cvv */\n  dup2\n  swap1\n  sstore\n  pop\n    /* \"Dapp/MoneyTransfer.sol\":692:703  _totalFunds */\n  dup3\n    /* \"Dapp/MoneyTransfer.sol\":679:689  TotalFunds */\n  0x01\n    /* \"Dapp/MoneyTransfer.sol\":679:703  TotalFunds = _totalFunds */\n  dup2\n  swap1\n  sstore\n  pop\n    /* \"Dapp/MoneyTransfer.sol\":541:711  constructor (uint256 _totalFunds, string memory _cardNumber, uint _cvv){... */\n  pop\n  pop\n  pop\n    /* \"Dapp/MoneyTransfer.sol\":122:1557  contract MoneyTransfer {... */\n  jump(tag_8)\n    /* \"#utility.yul\":7:82   */\ntag_9:\n    /* \"#utility.yul\":40:46   */\n  0x00\n    /* \"#utility.yul\":73:75   */\n  0x40\n    /* \"#utility.yul\":67:76   */\n  mload\n    /* \"#utility.yul\":57:76   */\n  swap1\n  pop\n    /* \"#utility.yul\":7:82   */\n  swap1\n  jump\t// out\n    /* \"#utility.yul\":88:205   */\ntag_10:\n    /* \"#utility.yul\":197:198   */\n  0x00\n    /* \"#utility.yul\":194:195   */\n  dup1\n    /* \"#utility.yul\":187:199   */\n  revert\n    /* \"#utility.yul\":211:328   */\ntag_11:\n    /* \"#utility.yul\":320:321   */\n  0x00\n    /* \"#utility.yul\":317:318   */\n  dup1\n    /* \"#utility.yul\":310:322   */\n  revert\n    /* \"#utility.yul\":334:411   */\ntag_12:\n    /* \"#utility.yul\":371:378   */\n  0x00\n    /* \"#utility.yul\":400:405   */\n  dup2\n    /* \"#utility.yul\":389:405   */\n  swap1\n  pop\n    /* \"#utility.yul\":334:411   */\n  swap2\n  swap1\n  pop\n  jump\t// out\n    /* \"#utility.yul\":417:539   */\ntag_13:\n    /* \"#utility.yul\":490:514   */\n  tag_49\n    /* \"#utility.yul\":508:513   */\n  dup2\n    /* \"#utility.yul\":490:514   */\n  tag_12\n  jump\t// in\ntag_49:\n    /* \"#utility.yul\":483:488   */\n  dup2\n    /* \"#utility.yul\":480:515   */\n  eq\n    /* \"#utility.yul\":470:533   */\n  tag_50\n  jumpi\n    /* \"#utility.yul\":529:530   */\n  0x00\n    /* \"#utility.yul\":526:527   */\n  dup1\n    /* \"#utility.yul\":519:531   */\n  revert\n    /* \"#utility.yul\":470:533   */\ntag_50:\n    /* \"#utility.yul\":417:539   */\n  pop\n  jump\t// out\n    /* \"#utility.yul\":545:688   */\ntag_14:\n    /* \"#utility.yul\":602:607   */\n  0x00\n    /* \"#utility.yul\":633:639   */\n  dup2\n    /* \"#utility.yul\":627:640   */\n  mload\n    /* \"#utility.yul\":618:640   */\n  swap1\n  pop\n    /* \"#utility.yul\":649:682   */\n  tag_52\n    /* \"#utility.yul\":676:681   */\n  dup2\n    /* \"#utility.yul\":649:682   */\n  tag_13\n  jump\t// in\ntag_52:\n    /* \"#utility.yul\":545:688   */\n  swap3\n  swap2\n  pop\n  pop\n  jump\t// out\n    /* \"#utility.yul\":694:811   */\ntag_15:\n    /* \"#utility.yul\":803:804   */\n  0x00\n    /* \"#utility.yul\":800:801   */\n  dup1\n    /* \"#utility.yul\":793:805   */\n  revert\n    /* \"#utility.yul\":817:934   */\ntag_16:\n    /* \"#utility.yul\":926:927   */\n  0x00\n    /* \"#utility.yul\":923:924   */\n  dup1\n    /* \"#utility.yul\":916:928   */\n  revert\n    /* \"#utility.yul\":940:1042   */\ntag_17:\n    /* \"#utility.yul\":981:987   */\n  0x00\n    /* \"#utility.yul\":1032:1034   */\n  0x1f\n    /* \"#utility.yul\":1028:1035   */\n  not\n    /* \"#utility.yul\":1023:1025   */\n  0x1f\n    /* \"#utility.yul\":1016:1021   */\n  dup4\n    /* \"#utility.yul\":1012:1026   */\n  add\n    /* \"#utility.yul\":1008:1036   */\n  and\n    /* \"#utility.yul\":998:1036   */\n  swap1\n  pop\n    /* \"#utility.yul\":940:1042   */\n  swap2\n  swap1\n  pop\n  jump\t// out\n    /* \"#utility.yul\":1048:1228   */\ntag_18:\n    /* \"#utility.yul\":1096:1173   */\n  0x4e487b7100000000000000000000000000000000000000000000000000000000\n    /* \"#utility.yul\":1093:1094   */\n  0x00\n    /* \"#utility.yul\":1086:1174   */\n  mstore\n    /* \"#utility.yul\":1193:1197   */\n  0x41\n    /* \"#utility.yul\":1190:1191   */\n  0x04\n    /* \"#utility.yul\":1183:1198   */\n  mstore\n    /* \"#utility.yul\":1217:1221   */\n  0x24\n    /* \"#utility.yul\":1214:1215   */\n  0x00\n    /* \"#utility.yul\":1207:1222   */\n  revert\n    /* \"#utility.yul\":1234:1515   */\ntag_19:\n    /* \"#utility.yul\":1317:1344   */\n  tag_58\n    /* \"#utility.yul\":1339:1343   */\n  dup3\n    /* \"#utility.yul\":1317:1344   */\n  tag_17\n  jump\t// in\ntag_58:\n    /* \"#utility.yul\":1309:1315   */\n  dup2\n    /* \"#utility.yul\":1305:1345   */\n  add\n    /* \"#utility.yul\":1447:1453   */\n  dup2\n    /* \"#utility.yul\":1435:1445   */\n  dup2\n    /* \"#utility.yul\":1432:1454   */\n  lt\n    /* \"#utility.yul\":1411:1429   */\n  0xffffffffffffffff\n    /* \"#utility.yul\":1399:1409   */\n  dup3\n    /* \"#utility.yul\":1396:1430   */\n  gt\n    /* \"#utility.yul\":1393:1455   */\n  or\n    /* \"#utility.yul\":1390:1478   */\n  iszero\n  tag_59\n  jumpi\n    /* \"#utility.yul\":1458:1476   */\n  tag_60\n  tag_18\n  jump\t// in\ntag_60:\n    /* \"#utility.yul\":1390:1478   */\ntag_59:\n    /* \"#utility.yul\":1498:1508   */\n  dup1\n    /* \"#utility.yul\":1494:1496   */\n  0x40\n    /* \"#utility.yul\":1487:1509   */\n  mstore\n    /* \"#utility.yul\":1277:1515   */\n  pop\n    /* \"#utility.yul\":1234:1515   */\n  pop\n  pop\n  jump\t// out\n    /* \"#utility.yul\":1521:1650   */\ntag_20:\n    /* \"#utility.yul\":1555:1561   */\n  0x00\n    /* \"#utility.yul\":1582:1602   */\n  tag_62\n  tag_9\n  jump\t// in\ntag_62:\n    /* \"#utility.yul\":1572:1602   */\n  swap1\n  pop\n    /* \"#utility.yul\":1611:1644   */\n  tag_63\n    /* \"#utility.yul\":1639:1643   */\n  dup3\n    /* \"#utility.yul\":1631:1637   */\n  dup3\n    /* \"#utility.yul\":1611:1644   */\n  tag_19\n  jump\t// in\ntag_63:\n    /* \"#utility.yul\":1521:1650   */\n  swap2\n  swap1\n  pop\n  jump\t// out\n    /* \"#utility.yul\":1656:1964   */\ntag_21:\n    /* \"#utility.yul\":1718:1722   */\n  0x00\n    /* \"#utility.yul\":1808:1826   */\n  0xffffffffffffffff\n    /* \"#utility.yul\":1800:1806   */\n  dup3\n    /* \"#utility.yul\":1797:1827   */\n  gt\n    /* \"#utility.yul\":1794:1850   */\n  iszero\n  tag_65\n  jumpi\n    /* \"#utility.yul\":1830:1848   */\n  tag_66\n  tag_18\n  jump\t// in\ntag_66:\n    /* \"#utility.yul\":1794:1850   */\ntag_65:\n    /* \"#utility.yul\":1868:1897   */\n  tag_67\n    /* \"#utility.yul\":1890:1896   */\n  dup3\n    /* \"#utility.yul\":1868:1897   */\n  tag_17\n  jump\t// in\ntag_67:\n    /* \"#utility.yul\":1860:1897   */\n  swap1\n  pop\n    /* \"#utility.yul\":1952:1956   */\n  0x20\n    /* \"#utility.yul\":1946:1950   */\n  dup2\n    /* \"#utility.yul\":1942:1957   */\n  add\n    /* \"#utility.yul\":1934:1957   */\n  swap1\n  pop\n    /* \"#utility.yul\":1656:1964   */\n  swap2\n  swap1\n  pop\n  jump\t// out\n    /* \"#utility.yul\":1970:2277   */\ntag_22:\n    /* \"#utility.yul\":2038:2039   */\n  0x00\n    /* \"#utility.yul\":2048:2161   */\ntag_69:\n    /* \"#utility.yul\":2062:2068   */\n  dup4\n    /* \"#utility.yul\":2059:2060   */\n  dup2\n    /* \"#utility.yul\":2056:2069   */\n  lt\n    /* \"#utility.yul\":2048:2161   */\n  iszero\n  tag_71\n  jumpi\n    /* \"#utility.yul\":2147:2148   */\n  dup1\n    /* \"#utility.yul\":2142:2145   */\n  dup3\n    /* \"#utility.yul\":2138:2149   */\n  add\n    /* \"#utility.yul\":2132:2150   */\n  mload\n    /* \"#utility.yul\":2128:2129   */\n  dup2\n    /* \"#utility.yul\":2123:2126   */\n  dup5\n    /* \"#utility.yul\":2119:2130   */\n  add\n    /* \"#utility.yul\":2112:2151   */\n  mstore\n    /* \"#utility.yul\":2084:2086   */\n  0x20\n    /* \"#utility.yul\":2081:2082   */\n  dup2\n    /* \"#utility.yul\":2077:2087   */\n  add\n    /* \"#utility.yul\":2072:2087   */\n  swap1\n  pop\n    /* \"#utility.yul\":2048:2161   */\n  jump(tag_69)\ntag_71:\n    /* \"#utility.yul\":2179:2185   */\n  dup4\n    /* \"#utility.yul\":2176:2177   */\n  dup2\n    /* \"#utility.yul\":2173:2186   */\n  gt\n    /* \"#utility.yul\":2170:2271   */\n  iszero\n  tag_72\n  jumpi\n    /* \"#utility.yul\":2259:2260   */\n  0x00\n    /* \"#utility.yul\":2250:2256   */\n  dup5\n    /* \"#utility.yul\":2245:2248   */\n  dup5\n    /* \"#utility.yul\":2241:2257   */\n  add\n    /* \"#utility.yul\":2234:2261   */\n  mstore\n    /* \"#utility.yul\":2170:2271   */\ntag_72:\n    /* \"#utility.yul\":2019:2277   */\n  pop\n    /* \"#utility.yul\":1970:2277   */\n  pop\n  pop\n  pop\n  jump\t// out\n    /* \"#utility.yul\":2283:2704   */\ntag_23:\n    /* \"#utility.yul\":2372:2377   */\n  0x00\n    /* \"#utility.yul\":2397:2463   */\n  tag_74\n    /* \"#utility.yul\":2413:2462   */\n  tag_75\n    /* \"#utility.yul\":2455:2461   */\n  dup5\n    /* \"#utility.yul\":2413:2462   */\n  tag_21\n  jump\t// in\ntag_75:\n    /* \"#utility.yul\":2397:2463   */\n  tag_20\n  jump\t// in\ntag_74:\n    /* \"#utility.yul\":2388:2463   */\n  swap1\n  pop\n    /* \"#utility.yul\":2486:2492   */\n  dup3\n    /* \"#utility.yul\":2479:2484   */\n  dup2\n    /* \"#utility.yul\":2472:2493   */\n  mstore\n    /* \"#utility.yul\":2524:2528   */\n  0x20\n    /* \"#utility.yul\":2517:2522   */\n  dup2\n    /* \"#utility.yul\":2513:2529   */\n  add\n    /* \"#utility.yul\":2562:2565   */\n  dup5\n    /* \"#utility.yul\":2553:2559   */\n  dup5\n    /* \"#utility.yul\":2548:2551   */\n  dup5\n    /* \"#utility.yul\":2544:2560   */\n  add\n    /* \"#utility.yul\":2541:2566   */\n  gt\n    /* \"#utility.yul\":2538:2650   */\n  iszero\n  tag_76\n  jumpi\n    /* \"#utility.yul\":2569:2648   */\n  tag_77\n  tag_16\n  jump\t// in\ntag_77:\n    /* \"#utility.yul\":2538:2650   */\ntag_76:\n    /* \"#utility.yul\":2659:2698   */\n  tag_78\n    /* \"#utility.yul\":2691:2697   */\n  dup5\n    /* \"#utility.yul\":2686:2689   */\n  dup3\n    /* \"#utility.yul\":2681:2684   */\n  dup6\n    /* \"#utility.yul\":2659:2698   */\n  tag_22\n  jump\t// in\ntag_78:\n    /* \"#utility.yul\":2378:2704   */\n  pop\n    /* \"#utility.yul\":2283:2704   */\n  swap4\n  swap3\n  pop\n  pop\n  pop\n  jump\t// out\n    /* \"#utility.yul\":2724:3079   */\ntag_24:\n    /* \"#utility.yul\":2791:2796   */\n  0x00\n    /* \"#utility.yul\":2840:2843   */\n  dup3\n    /* \"#utility.yul\":2833:2837   */\n  0x1f\n    /* \"#utility.yul\":2825:2831   */\n  dup4\n    /* \"#utility.yul\":2821:2838   */\n  add\n    /* \"#utility.yul\":2817:2844   */\n  slt\n    /* \"#utility.yul\":2807:2929   */\n  tag_80\n  jumpi\n    /* \"#utility.yul\":2848:2927   */\n  tag_81\n  tag_15\n  jump\t// in\ntag_81:\n    /* \"#utility.yul\":2807:2929   */\ntag_80:\n    /* \"#utility.yul\":2958:2964   */\n  dup2\n    /* \"#utility.yul\":2952:2965   */\n  mload\n    /* \"#utility.yul\":2983:3073   */\n  tag_82\n    /* \"#utility.yul\":3069:3072   */\n  dup5\n    /* \"#utility.yul\":3061:3067   */\n  dup3\n    /* \"#utility.yul\":3054:3058   */\n  0x20\n    /* \"#utility.yul\":3046:3052   */\n  dup7\n    /* \"#utility.yul\":3042:3059   */\n  add\n    /* \"#utility.yul\":2983:3073   */\n  tag_23\n  jump\t// in\ntag_82:\n    /* \"#utility.yul\":2974:3073   */\n  swap2\n  pop\n    /* \"#utility.yul\":2797:3079   */\n  pop\n    /* \"#utility.yul\":2724:3079   */\n  swap3\n  swap2\n  pop\n  pop\n  jump\t// out\n    /* \"#utility.yul\":3085:3921   */\ntag_3:\n    /* \"#utility.yul\":3183:3189   */\n  0x00\n    /* \"#utility.yul\":3191:3197   */\n  dup1\n    /* \"#utility.yul\":3199:3205   */\n  0x00\n    /* \"#utility.yul\":3248:3250   */\n  0x60\n    /* \"#utility.yul\":3236:3245   */\n  dup5\n    /* \"#utility.yul\":3227:3234   */\n  dup7\n    /* \"#utility.yul\":3223:3246   */\n  sub\n    /* \"#utility.yul\":3219:3251   */\n  slt\n    /* \"#utility.yul\":3216:3335   */\n  iszero\n  tag_84\n  jumpi\n    /* \"#utility.yul\":3254:3333   */\n  tag_85\n  tag_10\n  jump\t// in\ntag_85:\n    /* \"#utility.yul\":3216:3335   */\ntag_84:\n    /* \"#utility.yul\":3374:3375   */\n  0x00\n    /* \"#utility.yul\":3399:3463   */\n  tag_86\n    /* \"#utility.yul\":3455:3462   */\n  dup7\n    /* \"#utility.yul\":3446:3452   */\n  dup3\n    /* \"#utility.yul\":3435:3444   */\n  dup8\n    /* \"#utility.yul\":3431:3453   */\n  add\n    /* \"#utility.yul\":3399:3463   */\n  tag_14\n  jump\t// in\ntag_86:\n    /* \"#utility.yul\":3389:3463   */\n  swap4\n  pop\n    /* \"#utility.yul\":3345:3473   */\n  pop\n    /* \"#utility.yul\":3533:3535   */\n  0x20\n    /* \"#utility.yul\":3522:3531   */\n  dup5\n    /* \"#utility.yul\":3518:3536   */\n  add\n    /* \"#utility.yul\":3512:3537   */\n  mload\n    /* \"#utility.yul\":3564:3582   */\n  0xffffffffffffffff\n    /* \"#utility.yul\":3556:3562   */\n  dup2\n    /* \"#utility.yul\":3553:3583   */\n  gt\n    /* \"#utility.yul\":3550:3667   */\n  iszero\n  tag_87\n  jumpi\n    /* \"#utility.yul\":3586:3665   */\n  tag_88\n  tag_11\n  jump\t// in\ntag_88:\n    /* \"#utility.yul\":3550:3667   */\ntag_87:\n    /* \"#utility.yul\":3691:3765   */\n  tag_89\n    /* \"#utility.yul\":3757:3764   */\n  dup7\n    /* \"#utility.yul\":3748:3754   */\n  dup3\n    /* \"#utility.yul\":3737:3746   */\n  dup8\n    /* \"#utility.yul\":3733:3755   */\n  add\n    /* \"#utility.yul\":3691:3765   */\n  tag_24\n  jump\t// in\ntag_89:\n    /* \"#utility.yul\":3681:3765   */\n  swap3\n  pop\n    /* \"#utility.yul\":3483:3775   */\n  pop\n    /* \"#utility.yul\":3814:3816   */\n  0x40\n    /* \"#utility.yul\":3840:3904   */\n  tag_90\n    /* \"#utility.yul\":3896:3903   */\n  dup7\n    /* \"#utility.yul\":3887:3893   */\n  dup3\n    /* \"#utility.yul\":3876:3885   */\n  dup8\n    /* \"#utility.yul\":3872:3894   */\n  add\n    /* \"#utility.yul\":3840:3904   */\n  tag_14\n  jump\t// in\ntag_90:\n    /* \"#utility.yul\":3830:3904   */\n  swap2\n  pop\n    /* \"#utility.yul\":3785:3914   */\n  pop\n    /* \"#utility.yul\":3085:3921   */\n  swap3\n  pop\n  swap3\n  pop\n  swap3\n  jump\t// out\n    /* \"#utility.yul\":3927:4026   */\ntag_25:\n    /* \"#utility.yul\":3979:3985   */\n  0x00\n    /* \"#utility.yul\":4013:4018   */\n  dup2\n    /* \"#utility.yul\":4007:4019   */\n  mload\n    /* \"#utility.yul\":3997:4019   */\n  swap1\n  pop\n    /* \"#utility.yul\":3927:4026   */\n  swap2\n  swap1\n  pop\n  jump\t// out\n    /* \"#utility.yul\":4032:4212   */\ntag_26:\n    /* \"#utility.yul\":4080:4157   */\n  0x4e487b7100000000000000000000000000000000000000000000000000000000\n    /* \"#utility.yul\":4077:4078   */\n  0x00\n    /* \"#utility.yul\":4070:4158   */\n  mstore\n    /* \"#utility.yul\":4177:4181   */\n  0x22\n    /* \"#utility.yul\":4174:4175   */\n  0x04\n    /* \"#utility.yul\":4167:4182   */\n  mstore\n    /* \"#utility.yul\":4201:4205   */\n  0x24\n    /* \"#utility.yul\":4198:4199   */\n  0x00\n    /* \"#utility.yul\":4191:4206   */\n  revert\n    /* \"#utility.yul\":4218:4538   */\ntag_27:\n    /* \"#utility.yul\":4262:4268   */\n  0x00\n    /* \"#utility.yul\":4299:4300   */\n  0x02\n    /* \"#utility.yul\":4293:4297   */\n  dup3\n    /* \"#utility.yul\":4289:4301   */\n  div\n    /* \"#utility.yul\":4279:4301   */\n  swap1\n  pop\n    /* \"#utility.yul\":4346:4347   */\n  0x01\n    /* \"#utility.yul\":4340:4344   */\n  dup3\n    /* \"#utility.yul\":4336:4348   */\n  and\n    /* \"#utility.yul\":4367:4385   */\n  dup1\n    /* \"#utility.yul\":4357:4438   */\n  tag_94\n  jumpi\n    /* \"#utility.yul\":4423:4427   */\n  0x7f\n    /* \"#utility.yul\":4415:4421   */\n  dup3\n    /* \"#utility.yul\":4411:4428   */\n  and\n    /* \"#utility.yul\":4401:4428   */\n  swap2\n  pop\n    /* \"#utility.yul\":4357:4438   */\ntag_94:\n    /* \"#utility.yul\":4485:4487   */\n  0x20\n    /* \"#utility.yul\":4477:4483   */\n  dup3\n    /* \"#utility.yul\":4474:4488   */\n  lt\n    /* \"#utility.yul\":4454:4472   */\n  dup2\n    /* \"#utility.yul\":4451:4489   */\n  sub\n    /* \"#utility.yul\":4448:4532   */\n  tag_95\n  jumpi\n    /* \"#utility.yul\":4504:4522   */\n  tag_96\n  tag_26\n  jump\t// in\ntag_96:\n    /* \"#utility.yul\":4448:4532   */\ntag_95:\n    /* \"#utility.yul\":4269:4538   */\n  pop\n    /* \"#utility.yul\":4218:4538   */\n  swap2\n  swap1\n  pop\n  jump\t// out\n    /* \"#utility.yul\":4544:4685   */\ntag_28:\n    /* \"#utility.yul\":4593:4597   */\n  0x00\n    /* \"#utility.yul\":4616:4619   */\n  dup2\n    /* \"#utility.yul\":4608:4619   */\n  swap1\n  pop\n    /* \"#utility.yul\":4639:4642   */\n  dup2\n    /* \"#utility.yul\":4636:4637   */\n  0x00\n    /* \"#utility.yul\":4629:4643   */\n  mstore\n    /* \"#utility.yul\":4673:4677   */\n  0x20\n    /* \"#utility.yul\":4670:4671   */\n  0x00\n    /* \"#utility.yul\":4660:4678   */\n  keccak256\n    /* \"#utility.yul\":4652:4678   */\n  swap1\n  pop\n    /* \"#utility.yul\":4544:4685   */\n  swap2\n  swap1\n  pop\n  jump\t// out\n    /* \"#utility.yul\":4691:4784   */\ntag_29:\n    /* \"#utility.yul\":4728:4734   */\n  0x00\n    /* \"#utility.yul\":4775:4777   */\n  0x20\n    /* \"#utility.yul\":4770:4772   */\n  0x1f\n    /* \"#utility.yul\":4763:4768   */\n  dup4\n    /* \"#utility.yul\":4759:4773   */\n  add\n    /* \"#utility.yul\":4755:4778   */\n  div\n    /* \"#utility.yul\":4745:4778   */\n  swap1\n  pop\n    /* \"#utility.yul\":4691:4784   */\n  swap2\n  swap1\n  pop\n  jump\t// out\n    /* \"#utility.yul\":4790:4897   */\ntag_30:\n    /* \"#utility.yul\":4834:4842   */\n  0x00\n    /* \"#utility.yul\":4884:4889   */\n  dup3\n    /* \"#utility.yul\":4878:4882   */\n  dup3\n    /* \"#utility.yul\":4874:4890   */\n  shl\n    /* \"#utility.yul\":4853:4890   */\n  swap1\n  pop\n    /* \"#utility.yul\":4790:4897   */\n  swap3\n  swap2\n  pop\n  pop\n  jump\t// out\n    /* \"#utility.yul\":4903:5296   */\ntag_31:\n    /* \"#utility.yul\":4972:4978   */\n  0x00\n    /* \"#utility.yul\":5022:5023   */\n  0x08\n    /* \"#utility.yul\":5010:5020   */\n  dup4\n    /* \"#utility.yul\":5006:5024   */\n  mul\n    /* \"#utility.yul\":5045:5142   */\n  tag_101\n    /* \"#utility.yul\":5075:5141   */\n  0xffffffffffffffffffffffffffffffffffffffffffffffffffffffffffffffff\n    /* \"#utility.yul\":5064:5073   */\n  dup3\n    /* \"#utility.yul\":5045:5142   */\n  tag_30\n  jump\t// in\ntag_101:\n    /* \"#utility.yul\":5163:5202   */\n  tag_102\n    /* \"#utility.yul\":5193:5201   */\n  dup7\n    /* \"#utility.yul\":5182:5191   */\n  dup4\n    /* \"#utility.yul\":5163:5202   */\n  tag_30\n  jump\t// in\ntag_102:\n    /* \"#utility.yul\":5151:5202   */\n  swap6\n  pop\n    /* \"#utility.yul\":5235:5239   */\n  dup1\n    /* \"#utility.yul\":5231:5240   */\n  not\n    /* \"#utility.yul\":5224:5229   */\n  dup5\n    /* \"#utility.yul\":5220:5241   */\n  and\n    /* \"#utility.yul\":5211:5241   */\n  swap4\n  pop\n    /* \"#utility.yul\":5284:5288   */\n  dup1\n    /* \"#utility.yul\":5274:5282   */\n  dup7\n    /* \"#utility.yul\":5270:5289   */\n  and\n    /* \"#utility.yul\":5263:5268   */\n  dup5\n    /* \"#utility.yul\":5260:5290   */\n  or\n    /* \"#utility.yul\":5250:5290   */\n  swap3\n  pop\n    /* \"#utility.yul\":4979:5296   */\n  pop\n  pop\n    /* \"#utility.yul\":4903:5296   */\n  swap4\n  swap3\n  pop\n  pop\n  pop\n  jump\t// out\n    /* \"#utility.yul\":5302:5362   */\ntag_32:\n    /* \"#utility.yul\":5330:5333   */\n  0x00\n    /* \"#utility.yul\":5351:5356   */\n  dup2\n    /* \"#utility.yul\":5344:5356   */\n  swap1\n  pop\n    /* \"#utility.yul\":5302:5362   */\n  swap2\n  swap1\n  pop\n  jump\t// out\n    /* \"#utility.yul\":5368:5510   */\ntag_33:\n    /* \"#utility.yul\":5418:5427   */\n  0x00\n    /* \"#utility.yul\":5451:5504   */\n  tag_105\n    /* \"#utility.yul\":5469:5503   */\n  tag_106\n    /* \"#utility.yul\":5478:5502   */\n  tag_107\n    /* \"#utility.yul\":5496:5501   */\n  dup5\n    /* \"#utility.yul\":5478:5502   */\n  tag_12\n  jump\t// in\ntag_107:\n    /* \"#utility.yul\":5469:5503   */\n  tag_32\n  jump\t// in\ntag_106:\n    /* \"#utility.yul\":5451:5504   */\n  tag_12\n  jump\t// in\ntag_105:\n    /* \"#utility.yul\":5438:5504   */\n  swap1\n  pop\n    /* \"#utility.yul\":5368:5510   */\n  swap2\n  swap1\n  pop\n  jump\t// out\n    /* \"#utility.yul\":5516:5591   */\ntag_34:\n    /* \"#utility.yul\":5559:5562   */\n  0x00\n    /* \"#utility.yul\":5580:5585   */\n  dup2\n    /* \"#utility.yul\":5573:5585   */\n  swap1\n  pop\n    /* \"#utility.yul\":5516:5591   */\n  swap2\n  swap1\n  pop\n  jump\t// out\n    /* \"#utility.yul\":5597:5866   */\ntag_35:\n    /* \"#utility.yul\":5707:5746   */\n  tag_110\n    /* \"#utility.yul\":5738:5745   */\n  dup4\n    /* \"#utility.yul\":5707:5746   */\n  tag_33\n  jump\t// in\ntag_110:\n    /* \"#utility.yul\":5768:5859   */\n  tag_111\n    /* \"#utility.yul\":5817:5858   */\n  tag_112\n    /* \"#utility.yul\":5841:5857   */\n  dup3\n    /* \"#utility.yul\":5817:5858   */\n  tag_34\n  jump\t// in\ntag_112:\n    /* \"#utility.yul\":5809:5815   */\n  dup5\n    /* \"#utility.yul\":5802:5806   */\n  dup5\n    /* \"#utility.yul\":5796:5807   */\n  sload\n    /* \"#utility.yul\":5768:5859   */\n  tag_31\n  jump\t// in\ntag_111:\n    /* \"#utility.yul\":5762:5766   */\n  dup3\n    /* \"#utility.yul\":5755:5860   */\n  sstore\n    /* \"#utility.yul\":5673:5866   */\n  pop\n    /* \"#utility.yul\":5597:5866   */\n  pop\n  pop\n  pop\n  jump\t// out\n    /* \"#utility.yul\":5872:5945   */\ntag_36:\n    /* \"#utility.yul\":5917:5920   */\n  0x00\n    /* \"#utility.yul\":5872:5945   */\n  swap1\n  jump\t// out\n    /* \"#utility.yul\":5951:6140   */\ntag_37:\n    /* \"#utility.yul\":6028:6060   */\n  tag_115\n  tag_36\n  jump\t// in\ntag_115:\n    /* \"#utility.yul\":6069:6134   */\n  tag_116\n    /* \"#utility.yul\":6127:6133   */\n  dup2\n    /* \"#utility.yul\":6119:6125   */\n  dup5\n    /* \"#utility.yul\":6113:6117   */\n  dup5\n    /* \"#utility.yul\":6069:6134   */\n  tag_35\n  jump\t// in\ntag_116:\n    /* \"#utility.yul\":6004:6140   */\n  pop\n    /* \"#utility.yul\":5951:6140   */\n  pop\n  pop\n  jump\t// out\n    /* \"#utility.yul\":6146:6332   */\ntag_38:\n    /* \"#utility.yul\":6206:6326   */\ntag_118:\n    /* \"#utility.yul\":6223:6226   */\n  dup2\n    /* \"#utility.yul\":6216:6221   */\n  dup2\n    /* \"#utility.yul\":6213:6227   */\n  lt\n    /* \"#utility.yul\":6206:6326   */\n  iszero\n  tag_120\n  jumpi\n    /* \"#utility.yul\":6277:6316   */\n  tag_121\n    /* \"#utility.yul\":6314:6315   */\n  0x00\n    /* \"#utility.yul\":6307:6312   */\n  dup3\n    /* \"#utility.yul\":6277:6316   */\n  tag_37\n  jump\t// in\ntag_121:\n    /* \"#utility.yul\":6250:6251   */\n  0x01\n    /* \"#utility.yul\":6243:6248   */\n  dup2\n    /* \"#utility.yul\":6239:6252   */\n  add\n    /* \"#utility.yul\":6230:6252   */\n  swap1\n  pop\n    /* \"#utility.yul\":6206:6326   */\n  jump(tag_118)\ntag_120:\n    /* \"#utility.yul\":6146:6332   */\n  pop\n  pop\n  jump\t// out\n    /* \"#utility.yul\":6338:6881   */\ntag_39:\n    /* \"#utility.yul\":6439:6441   */\n  0x1f\n    /* \"#utility.yul\":6434:6437   */\n  dup3\n    /* \"#utility.yul\":6431:6442   */\n  gt\n    /* \"#utility.yul\":6428:6874   */\n  iszero\n  tag_123\n  jumpi\n    /* \"#utility.yul\":6473:6511   */\n  tag_124\n    /* \"#utility.yul\":6505:6510   */\n  dup2\n    /* \"#utility.yul\":6473:6511   */\n  tag_28\n  jump\t// in\ntag_124:\n    /* \"#utility.yul\":6557:6586   */\n  tag_125\n    /* \"#utility.yul\":6575:6585   */\n  dup5\n    /* \"#utility.yul\":6557:6586   */\n  tag_29\n  jump\t// in\ntag_125:\n    /* \"#utility.yul\":6547:6555   */\n  dup2\n    /* \"#utility.yul\":6543:6587   */\n  add\n    /* \"#utility.yul\":6740:6742   */\n  0x20\n    /* \"#utility.yul\":6728:6738   */\n  dup6\n    /* \"#utility.yul\":6725:6743   */\n  lt\n    /* \"#utility.yul\":6722:6771   */\n  iszero\n  tag_126\n  jumpi\n    /* \"#utility.yul\":6761:6769   */\n  dup2\n    /* \"#utility.yul\":6746:6769   */\n  swap1\n  pop\n    /* \"#utility.yul\":6722:6771   */\ntag_126:\n    /* \"#utility.yul\":6784:6864   */\n  tag_127\n    /* \"#utility.yul\":6840:6862   */\n  tag_128\n    /* \"#utility.yul\":6858:6861   */\n  dup6\n    /* \"#utility.yul\":6840:6862   */\n  tag_29\n  jump\t// in\ntag_128:\n    /* \"#utility.yul\":6830:6838   */\n  dup4\n    /* \"#utility.yul\":6826:6863   */\n  add\n    /* \"#utility.yul\":6813:6824   */\n  dup3\n    /* \"#utility.yul\":6784:6864   */\n  tag_38\n  jump\t// in\ntag_127:\n    /* \"#utility.yul\":6443:6874   */\n  pop\n  pop\n    /* \"#utility.yul\":6428:6874   */\ntag_123:\n    /* \"#utility.yul\":6338:6881   */\n  pop\n  pop\n  pop\n  jump\t// out\n    /* \"#utility.yul\":6887:7004   */\ntag_40:\n    /* \"#utility.yul\":6941:6949   */\n  0x00\n    /* \"#utility.yul\":6991:6996   */\n  dup3\n    /* \"#utility.yul\":6985:6989   */\n  dup3\n    /* \"#utility.yul\":6981:6997   */\n  shr\n    /* \"#utility.yul\":6960:6997   */\n  swap1\n  pop\n    /* \"#utility.yul\":6887:7004   */\n  swap3\n  swap2\n  pop\n  pop\n  jump\t// out\n    /* \"#utility.yul\":7010:7179   */\ntag_41:\n    /* \"#utility.yul\":7054:7060   */\n  0x00\n    /* \"#utility.yul\":7087:7138   */\n  tag_131\n    /* \"#utility.yul\":7135:7136   */\n  0x00\n    /* \"#utility.yul\":7131:7137   */\n  not\n    /* \"#utility.yul\":7123:7128   */\n  dup5\n    /* \"#utility.yul\":7120:7121   */\n  0x08\n    /* \"#utility.yul\":7116:7129   */\n  mul\n    /* \"#utility.yul\":7087:7138   */\n  tag_40\n  jump\t// in\ntag_131:\n    /* \"#utility.yul\":7083:7139   */\n  not\n    /* \"#utility.yul\":7168:7172   */\n  dup1\n    /* \"#utility.yul\":7162:7166   */\n  dup4\n    /* \"#utility.yul\":7158:7173   */\n  and\n    /* \"#utility.yul\":7148:7173   */\n  swap2\n  pop\n    /* \"#utility.yul\":7061:7179   */\n  pop\n    /* \"#utility.yul\":7010:7179   */\n  swap3\n  swap2\n  pop\n  pop\n  jump\t// out\n    /* \"#utility.yul\":7184:7479   */\ntag_42:\n    /* \"#utility.yul\":7260:7264   */\n  0x00\n    /* \"#utility.yul\":7406:7435   */\n  tag_133\n    /* \"#utility.yul\":7431:7434   */\n  dup4\n    /* \"#utility.yul\":7425:7429   */\n  dup4\n    /* \"#utility.yul\":7406:7435   */\n  tag_41\n  jump\t// in\ntag_133:\n    /* \"#utility.yul\":7398:7435   */\n  swap2\n  pop\n    /* \"#utility.yul\":7468:7471   */\n  dup3\n    /* \"#utility.yul\":7465:7466   */\n  0x02\n    /* \"#utility.yul\":7461:7472   */\n  mul\n    /* \"#utility.yul\":7455:7459   */\n  dup3\n    /* \"#utility.yul\":7452:7473   */\n  or\n    /* \"#utility.yul\":7444:7473   */\n  swap1\n  pop\n    /* \"#utility.yul\":7184:7479   */\n  swap3\n  swap2\n  pop\n  pop\n  jump\t// out\n    /* \"#utility.yul\":7484:8879   */\ntag_7:\n    /* \"#utility.yul\":7601:7638   */\n  tag_135\n    /* \"#utility.yul\":7634:7637   */\n  dup3\n    /* \"#utility.yul\":7601:7638   */\n  tag_25\n  jump\t// in\ntag_135:\n    /* \"#utility.yul\":7703:7721   */\n  0xffffffffffffffff\n    /* \"#utility.yul\":7695:7701   */\n  dup2\n    /* \"#utility.yul\":7692:7722   */\n  gt\n    /* \"#utility.yul\":7689:7745   */\n  iszero\n  tag_136\n  jumpi\n    /* \"#utility.yul\":7725:7743   */\n  tag_137\n  tag_18\n  jump\t// in\ntag_137:\n    /* \"#utility.yul\":7689:7745   */\ntag_136:\n    /* \"#utility.yul\":7769:7807   */\n  tag_138\n    /* \"#utility.yul\":7801:7805   */\n  dup3\n    /* \"#utility.yul\":7795:7806   */\n  sload\n    /* \"#utility.yul\":7769:7807   */\n  tag_27\n  jump\t// in\ntag_138:\n    /* \"#utility.yul\":7854:7921   */\n  tag_139\n    /* \"#utility.yul\":7914:7920   */\n  dup3\n    /* \"#utility.yul\":7906:7912   */\n  dup3\n    /* \"#utility.yul\":7900:7904   */\n  dup6\n    /* \"#utility.yul\":7854:7921   */\n  tag_39\n  jump\t// in\ntag_139:\n    /* \"#utility.yul\":7948:7949   */\n  0x00\n    /* \"#utility.yul\":7972:7976   */\n  0x20\n    /* \"#utility.yul\":7959:7976   */\n  swap1\n  pop\n    /* \"#utility.yul\":8004:8006   */\n  0x1f\n    /* \"#utility.yul\":7996:8002   */\n  dup4\n    /* \"#utility.yul\":7993:8007   */\n  gt\n    /* \"#utility.yul\":8021:8022   */\n  0x01\n    /* \"#utility.yul\":8016:8634   */\n  dup2\n  eq\n  tag_141\n  jumpi\n    /* \"#utility.yul\":8678:8679   */\n  0x00\n    /* \"#utility.yul\":8695:8701   */\n  dup5\n    /* \"#utility.yul\":8692:8769   */\n  iszero\n  tag_142\n  jumpi\n    /* \"#utility.yul\":8744:8753   */\n  dup3\n    /* \"#utility.yul\":8739:8742   */\n  dup8\n    /* \"#utility.yul\":8735:8754   */\n  add\n    /* \"#utility.yul\":8729:8755   */\n  mload\n    /* \"#utility.yul\":8720:8755   */\n  swap1\n  pop\n    /* \"#utility.yul\":8692:8769   */\ntag_142:\n    /* \"#utility.yul\":8795:8862   */\n  tag_143\n    /* \"#utility.yul\":8855:8861   */\n  dup6\n    /* \"#utility.yul\":8848:8853   */\n  dup3\n    /* \"#utility.yul\":8795:8862   */\n  tag_42\n  jump\t// in\ntag_143:\n    /* \"#utility.yul\":8789:8793   */\n  dup7\n    /* \"#utility.yul\":8782:8863   */\n  sstore\n    /* \"#utility.yul\":8651:8873   */\n  pop\n    /* \"#utility.yul\":7986:8873   */\n  jump(tag_140)\n    /* \"#utility.yul\":8016:8634   */\ntag_141:\n    /* \"#utility.yul\":8068:8072   */\n  0x1f\n    /* \"#utility.yul\":8064:8073   */\n  not\n    /* \"#utility.yul\":8056:8062   */\n  dup5\n    /* \"#utility.yul\":8052:8074   */\n  and\n    /* \"#utility.yul\":8102:8139   */\n  tag_144\n    /* \"#utility.yul\":8134:8138   */\n  dup7\n    /* \"#utility.yul\":8102:8139   */\n  tag_28\n  jump\t// in\ntag_144:\n    /* \"#utility.yul\":8161:8162   */\n  0x00\n    /* \"#utility.yul\":8175:8383   */\ntag_145:\n    /* \"#utility.yul\":8189:8196   */\n  dup3\n    /* \"#utility.yul\":8186:8187   */\n  dup2\n    /* \"#utility.yul\":8183:8197   */\n  lt\n    /* \"#utility.yul\":8175:8383   */\n  iszero\n  tag_147\n  jumpi\n    /* \"#utility.yul\":8268:8277   */\n  dup5\n    /* \"#utility.yul\":8263:8266   */\n  dup10\n    /* \"#utility.yul\":8259:8278   */\n  add\n    /* \"#utility.yul\":8253:8279   */\n  mload\n    /* \"#utility.yul\":8245:8251   */\n  dup3\n    /* \"#utility.yul\":8238:8280   */\n  sstore\n    /* \"#utility.yul\":8319:8320   */\n  0x01\n    /* \"#utility.yul\":8311:8317   */\n  dup3\n    /* \"#utility.yul\":8307:8321   */\n  add\n    /* \"#utility.yul\":8297:8321   */\n  swap2\n  pop\n    /* \"#utility.yul\":8366:8368   */\n  0x20\n    /* \"#utility.yul\":8355:8364   */\n  dup6\n    /* \"#utility.yul\":8351:8369   */\n  add\n    /* \"#utility.yul\":8338:8369   */\n  swap5\n  pop\n    /* \"#utility.yul\":8212:8216   */\n  0x20\n    /* \"#utility.yul\":8209:8210   */\n  dup2\n    /* \"#utility.yul\":8205:8217   */\n  add\n    /* \"#utility.yul\":8200:8217   */\n  swap1\n  pop\n    /* \"#utility.yul\":8175:8383   */\n  jump(tag_145)\ntag_147:\n    /* \"#utility.yul\":8411:8417   */\n  dup7\n    /* \"#utility.yul\":8402:8409   */\n  dup4\n    /* \"#utility.yul\":8399:8418   */\n  lt\n    /* \"#utility.yul\":8396:8575   */\n  iszero\n  tag_148\n  jumpi\n    /* \"#utility.yul\":8469:8478   */\n  dup5\n    /* \"#utility.yul\":8464:8467   */\n  dup10\n    /* \"#utility.yul\":8460:8479   */\n  add\n    /* \"#utility.yul\":8454:8480   */\n  mload\n    /* \"#utility.yul\":8512:8560   */\n  tag_149\n    /* \"#utility.yul\":8554:8558   */\n  0x1f\n    /* \"#utility.yul\":8546:8552   */\n  dup10\n    /* \"#utility.yul\":8542:8559   */\n  and\n    /* \"#utility.yul\":8531:8540   */\n  dup3\n    /* \"#utility.yul\":8512:8560   */\n  tag_41\n  jump\t// in\ntag_149:\n    /* \"#utility.yul\":8504:8510   */\n  dup4\n    /* \"#utility.yul\":8497:8561   */\n  sstore\n    /* \"#utility.yul\":8419:8575   */\n  pop\n    /* \"#utility.yul\":8396:8575   */\ntag_148:\n    /* \"#utility.yul\":8621:8622   */\n  0x01\n    /* \"#utility.yul\":8617:8618   */\n  0x02\n    /* \"#utility.yul\":8609:8615   */\n  dup9\n    /* \"#utility.yul\":8605:8619   */\n  mul\n    /* \"#utility.yul\":8601:8623   */\n  add\n    /* \"#utility.yul\":8595:8599   */\n  dup9\n    /* \"#utility.yul\":8588:8624   */\n  sstore\n    /* \"#utility.yul\":8023:8634   */\n  pop\n  pop\n  pop\n    /* \"#utility.yul\":7986:8873   */\ntag_140:\n  pop\n    /* \"#utility.yul\":7576:8879   */\n  pop\n  pop\n  pop\n    /* \"#utility.yul\":7484:8879   */\n  pop\n  pop\n  jump\t// out\n    /* \"Dapp/MoneyTransfer.sol\":122:1557  contract MoneyTransfer {... */\ntag_8:\n  dataSize(sub_0)\n  dup1\n  dataOffset(sub_0)\n  0x00\n  codecopy\n  0x00\n  return\nstop\n\nsub_0: assembly {\n        /* \"Dapp/MoneyTransfer.sol\":122:1557  contract MoneyTransfer {... */\n      mstore(0x40, 0x80)\n      callvalue\n      dup1\n      iszero\n      tag_1\n      jumpi\n      0x00\n      dup1\n      revert\n    tag_1:\n      pop\n      jumpi(tag_2, lt(calldatasize, 0x04))\n      shr(0xe0, calldataload(0x00))\n      dup1\n      0x94b5dcaa\n      gt\n      tag_10\n      jumpi\n      dup1\n      0x94b5dcaa\n      eq\n      tag_6\n      jumpi\n      dup1\n      0xaa8c217c\n      eq\n      tag_7\n      jumpi\n      dup1\n      0xbc309496\n      eq\n      tag_8\n      jumpi\n      dup1\n      0xe21f37ce\n      eq\n      tag_9\n      jumpi\n      jump(tag_2)\n    tag_10:\n      dup1\n      0x062a7544\n      eq\n      tag_3\n      jumpi\n      dup1\n      0x7b9a3f4c\n      eq\n      tag_4\n      jumpi\n      dup1\n      0x8fa11864\n      eq\n      tag_5\n      jumpi\n    tag_2:\n      0x00\n      dup1\n      revert\n        /* \"Dapp/MoneyTransfer.sol\":721:1102  function sendMoney( uint _amount, address _receiver) public m_validAddress(_receiver) m_checkCard{... */\n    tag_3:\n      tag_11\n      0x04\n      dup1\n      calldatasize\n      sub\n      dup2\n      add\n      swap1\n      tag_12\n      swap2\n      swap1\n      tag_13\n      jump\t// in\n    tag_12:\n      tag_14\n      jump\t// in\n    tag_11:\n      stop\n        /* \"Dapp/MoneyTransfer.sol\":184:209  uint256 public TotalFunds */\n    tag_4:\n      tag_15\n      tag_16\n      jump\t// in\n    tag_15:\n      mload(0x40)\n      tag_17\n      swap2\n      swap1\n      tag_18\n      jump\t// in\n    tag_17:\n      mload(0x40)\n      dup1\n      swap2\n      sub\n      swap1\n      return\n        /* \"Dapp/MoneyTransfer.sol\":488:512  string public cardNumber */\n    tag_5:\n      tag_19\n      tag_20\n      jump\t// in\n    tag_19:\n      mload(0x40)\n      tag_21\n      swap2\n      swap1\n      tag_22\n      jump\t// in\n    tag_21:\n      mload(0x40)\n      dup1\n      swap2\n      sub\n      swap1\n      return\n        /* \"Dapp/MoneyTransfer.sol\":302:338  uint256 public totalWeekTransactions */\n    tag_6:\n      tag_23\n      tag_24\n      jump\t// in\n    tag_23:\n      mload(0x40)\n      tag_25\n      swap2\n      swap1\n      tag_18\n      jump\t// in\n    tag_25:\n      mload(0x40)\n      dup1\n      swap2\n      sub\n      swap1\n      return\n        /* \"Dapp/MoneyTransfer.sol\":156:177  uint256 public amount */\n    tag_7:\n      tag_26\n      tag_27\n      jump\t// in\n    tag_26:\n      mload(0x40)\n      tag_28\n      swap2\n      swap1\n      tag_18\n      jump\t// in\n    tag_28:\n      mload(0x40)\n      dup1\n      swap2\n      sub\n      swap1\n      return\n        /* \"Dapp/MoneyTransfer.sol\":425:453  uint256 public receiverFunds */\n    tag_8:\n      tag_29\n      tag_30\n      jump\t// in\n    tag_29:\n      mload(0x40)\n      tag_31\n      swap2\n      swap1\n      tag_18\n      jump\t// in\n    tag_31:\n      mload(0x40)\n      dup1\n      swap2\n      sub\n      swap1\n      return\n        /* \"Dapp/MoneyTransfer.sol\":460:481  string public message */\n    tag_9:\n      tag_32\n      tag_33\n      jump\t// in\n    tag_32:\n      mload(0x40)\n      tag_34\n      swap2\n      swap1\n      tag_22\n      jump\t// in\n    tag_34:\n      mload(0x40)\n      dup1\n      swap2\n      sub\n      swap1\n      return\n        /* \"Dapp/MoneyTransfer.sol\":721:1102  function sendMoney( uint _amount, address _receiver) public m_validAddress(_receiver) m_checkCard{... */\n    tag_14:\n        /* \"Dapp/MoneyTransfer.sol\":796:805  _receiver */\n      dup1\n        /* \"Dapp/MoneyTransfer.sol\":1313:1318  _addr */\n      dup1\n        /* \"Dapp/MoneyTransfer.sol\":1302:1310  receiver */\n      0x02\n      0x00\n        /* \"Dapp/MoneyTransfer.sol\":1302:1318  receiver = _addr */\n      0x0100\n      exp\n      dup2\n      sload\n      dup2\n      0xffffffffffffffffffffffffffffffffffffffff\n      mul\n      not\n      and\n      swap1\n      dup4\n      0xffffffffffffffffffffffffffffffffffffffff\n      and\n      mul\n      or\n      swap1\n      sstore\n      pop\n        /* \"Dapp/MoneyTransfer.sol\":1354:1355  0 */\n      0x00\n        /* \"Dapp/MoneyTransfer.sol\":1337:1356  _addr != address(0) */\n      0xffffffffffffffffffffffffffffffffffffffff\n      and\n        /* \"Dapp/MoneyTransfer.sol\":1337:1342  _addr */\n      dup2\n        /* \"Dapp/MoneyTransfer.sol\":1337:1356  _addr != address(0) */\n      0xffffffffffffffffffffffffffffffffffffffff\n      and\n      sub\n        /* \"Dapp/MoneyTransfer.sol\":1329:1389  require(_addr != address(0), \" This address doesn't exists\") */\n      tag_36\n      jumpi\n      mload(0x40)\n      0x08c379a000000000000000000000000000000000000000000000000000000000\n      dup2\n      mstore\n      0x04\n      add\n      tag_37\n      swap1\n      tag_38\n      jump\t// in\n    tag_37:\n      mload(0x40)\n      dup1\n      swap2\n      sub\n      swap1\n      revert\n    tag_36:\n        /* \"Dapp/MoneyTransfer.sol\":1500:1501  8 */\n      0x08\n        /* \"Dapp/MoneyTransfer.sol\":1478:1488  cardNumber */\n      0x0a\n        /* \"Dapp/MoneyTransfer.sol\":1472:1496  bytes(cardNumber).length */\n      dup1\n      sload\n      tag_40\n      swap1\n      tag_41\n      jump\t// in\n    tag_40:\n      swap1\n      pop\n        /* \"Dapp/MoneyTransfer.sol\":1472:1501  bytes(cardNumber).length == 8 */\n      eq\n        /* \"Dapp/MoneyTransfer.sol\":1464:1522  require(bytes(cardNumber).length == 8 , \"No valid number\") */\n      tag_42\n      jumpi\n      mload(0x40)\n      0x08c379a000000000000000000000000000000000000000000000000000000000\n      dup2\n      mstore\n      0x04\n      add\n      tag_43\n      swap1\n      tag_44\n      jump\t// in\n    tag_43:\n      mload(0x40)\n      dup1\n      swap2\n      sub\n      swap1\n      revert\n    tag_42:\n        /* \"Dapp/MoneyTransfer.sol\":840:849  _receiver */\n      dup2\n        /* \"Dapp/MoneyTransfer.sol\":829:837  receiver */\n      0x02\n      0x00\n        /* \"Dapp/MoneyTransfer.sol\":829:849  receiver = _receiver */\n      0x0100\n      exp\n      dup2\n      sload\n      dup2\n      0xffffffffffffffffffffffffffffffffffffffff\n      mul\n      not\n      and\n      swap1\n      dup4\n      0xffffffffffffffffffffffffffffffffffffffff\n      and\n      mul\n      or\n      swap1\n      sstore\n      pop\n        /* \"Dapp/MoneyTransfer.sol\":869:876  _amount */\n      dup3\n        /* \"Dapp/MoneyTransfer.sol\":860:866  amount */\n      0x00\n        /* \"Dapp/MoneyTransfer.sol\":860:876  amount = _amount */\n      dup2\n      swap1\n      sstore\n      pop\n        /* \"Dapp/MoneyTransfer.sol\":907:908  0 */\n      0x00\n        /* \"Dapp/MoneyTransfer.sol\":894:904  TotalFunds */\n      sload(0x01)\n        /* \"Dapp/MoneyTransfer.sol\":894:908  TotalFunds > 0 */\n      gt\n        /* \"Dapp/MoneyTransfer.sol\":894:931  TotalFunds > 0 && TotalFunds > amount */\n      dup1\n      iszero\n      tag_46\n      jumpi\n      pop\n        /* \"Dapp/MoneyTransfer.sol\":925:931  amount */\n      sload(0x00)\n        /* \"Dapp/MoneyTransfer.sol\":912:922  TotalFunds */\n      sload(0x01)\n        /* \"Dapp/MoneyTransfer.sol\":912:931  TotalFunds > amount */\n      gt\n        /* \"Dapp/MoneyTransfer.sol\":894:931  TotalFunds > 0 && TotalFunds > amount */\n    tag_46:\n        /* \"Dapp/MoneyTransfer.sol\":891:1095  if(TotalFunds > 0 && TotalFunds > amount){... */\n      iszero\n      tag_47\n      jumpi\n        /* \"Dapp/MoneyTransfer.sol\":961:967  amount */\n      sload(0x00)\n        /* \"Dapp/MoneyTransfer.sol\":947:957  TotalFunds */\n      0x01\n      0x00\n        /* \"Dapp/MoneyTransfer.sol\":947:967  TotalFunds -= amount */\n      dup3\n      dup3\n      sload\n      tag_48\n      swap2\n      swap1\n      tag_49\n      jump\t// in\n    tag_48:\n      swap3\n      pop\n      pop\n      dup2\n      swap1\n      sstore\n      pop\n        /* \"Dapp/MoneyTransfer.sol\":982:1012  message = \"Transfer completed\" */\n      mload(0x40)\n      dup1\n      0x40\n      add\n      0x40\n      mstore\n      dup1\n      0x12\n      dup2\n      mstore\n      0x20\n      add\n      0x5472616e7366657220636f6d706c657465640000000000000000000000000000\n      dup2\n      mstore\n      pop\n        /* \"Dapp/MoneyTransfer.sol\":982:989  message */\n      0x09\n        /* \"Dapp/MoneyTransfer.sol\":982:1012  message = \"Transfer completed\" */\n      swap1\n      dup2\n      tag_50\n      swap2\n      swap1\n      tag_51\n      jump\t// in\n    tag_50:\n      pop\n        /* \"Dapp/MoneyTransfer.sol\":891:1095  if(TotalFunds > 0 && TotalFunds > amount){... */\n      jump(tag_52)\n    tag_47:\n        /* \"Dapp/MoneyTransfer.sol\":1054:1083  message = \"Not enough founds\" */\n      mload(0x40)\n      dup1\n      0x40\n      add\n      0x40\n      mstore\n      dup1\n      0x11\n      dup2\n      mstore\n      0x20\n      add\n      0x4e6f7420656e6f75676820666f756e6473000000000000000000000000000000\n      dup2\n      mstore\n      pop\n        /* \"Dapp/MoneyTransfer.sol\":1054:1061  message */\n      0x09\n        /* \"Dapp/MoneyTransfer.sol\":1054:1083  message = \"Not enough founds\" */\n      swap1\n      dup2\n      tag_53\n      swap2\n      swap1\n      tag_51\n      jump\t// in\n    tag_53:\n      pop\n        /* \"Dapp/MoneyTransfer.sol\":891:1095  if(TotalFunds > 0 && TotalFunds > amount){... */\n    tag_52:\n        /* \"Dapp/MoneyTransfer.sol\":721:1102  function sendMoney( uint _amount, address _receiver) public m_validAddress(_receiver) m_checkCard{... */\n      pop\n      pop\n      pop\n      jump\t// out\n        /* \"Dapp/MoneyTransfer.sol\":184:209  uint256 public TotalFunds */\n    tag_16:\n      sload(0x01)\n      dup2\n      jump\t// out\n        /* \"Dapp/MoneyTransfer.sol\":488:512  string public cardNumber */\n    tag_20:\n      0x0a\n      dup1\n      sload\n      tag_54\n      swap1\n      tag_41\n      jump\t// in\n    tag_54:\n      dup1\n      0x1f\n      add\n      0x20\n      dup1\n      swap2\n      div\n      mul\n      0x20\n      add\n      mload(0x40)\n      swap1\n      dup2\n      add\n      0x40\n      mstore\n      dup1\n      swap3\n      swap2\n      swap1\n      dup2\n      dup2\n      mstore\n      0x20\n      add\n      dup3\n      dup1\n      sload\n      tag_55\n      swap1\n      tag_41\n      jump\t// in\n    tag_55:\n      dup1\n      iszero\n      tag_56\n      jumpi\n      dup1\n      0x1f\n      lt\n      tag_57\n      jumpi\n      0x0100\n      dup1\n      dup4\n      sload\n      div\n      mul\n      dup4\n      mstore\n      swap2\n      0x20\n      add\n      swap2\n      jump(tag_56)\n    tag_57:\n      dup3\n      add\n      swap2\n      swap1\n      0x00\n      mstore\n      keccak256(0x00, 0x20)\n      swap1\n    tag_58:\n      dup2\n      sload\n      dup2\n      mstore\n      swap1\n      0x01\n      add\n      swap1\n      0x20\n      add\n      dup1\n      dup4\n      gt\n      tag_58\n      jumpi\n      dup3\n      swap1\n      sub\n      0x1f\n      and\n      dup3\n      add\n      swap2\n    tag_56:\n      pop\n      pop\n      pop\n      pop\n      pop\n      dup2\n      jump\t// out\n        /* \"Dapp/MoneyTransfer.sol\":302:338  uint256 public totalWeekTransactions */\n    tag_24:\n      sload(0x04)\n      dup2\n      jump\t// out\n        /* \"Dapp/MoneyTransfer.sol\":156:177  uint256 public amount */\n    tag_27:\n      sload(0x00)\n      dup2\n      jump\t// out\n        /* \"Dapp/MoneyTransfer.sol\":425:453  uint256 public receiverFunds */\n    tag_30:\n      sload(0x08)\n      dup2\n      jump\t// out\n        /* \"Dapp/MoneyTransfer.sol\":460:481  string public message */\n    tag_33:\n      0x09\n      dup1\n      sload\n      tag_59\n      swap1\n      tag_41\n      jump\t// in\n    tag_59:\n      dup1\n      0x1f\n      add\n      0x20\n      dup1\n      swap2\n      div\n      mul\n      0x20\n      add\n      mload(0x40)\n      swap1\n      dup2\n      add\n      0x40\n      mstore\n      dup1\n      swap3\n      swap2\n      swap1\n      dup2\n      dup2\n      mstore\n      0x20\n      add\n      dup3\n      dup1\n      sload\n      tag_60\n      swap1\n      tag_41\n      jump\t// in\n    tag_60:\n      dup1\n      iszero\n      tag_61\n      jumpi\n      dup1\n      0x1f\n      lt\n      tag_62\n      jumpi\n      0x0100\n      dup1\n      dup4\n      sload\n      div\n      mul\n      dup4\n      mstore\n      swap2\n      0x20\n      add\n      swap2\n      jump(tag_61)\n    tag_62:\n      dup3\n      add\n      swap2\n      swap1\n      0x00\n      mstore\n      keccak256(0x00, 0x20)\n      swap1\n    tag_63:\n      dup2\n      sload\n      dup2\n      mstore\n      swap1\n      0x01\n      add\n      swap1\n      0x20\n      add\n      dup1\n      dup4\n      gt\n      tag_63\n      jumpi\n      dup3\n      swap1\n      sub\n      0x1f\n      and\n      dup3\n      add\n      swap2\n    tag_61:\n      pop\n      pop\n      pop\n      pop\n      pop\n      dup2\n      jump\t// out\n        /* \"#utility.yul\":88:205   */\n    tag_65:\n        /* \"#utility.yul\":197:198   */\n      0x00\n        /* \"#utility.yul\":194:195   */\n      dup1\n        /* \"#utility.yul\":187:199   */\n      revert\n        /* \"#utility.yul\":334:411   */\n    tag_67:\n        /* \"#utility.yul\":371:378   */\n      0x00\n        /* \"#utility.yul\":400:405   */\n      dup2\n        /* \"#utility.yul\":389:405   */\n      swap1\n      pop\n        /* \"#utility.yul\":334:411   */\n      swap2\n      swap1\n      pop\n      jump\t// out\n        /* \"#utility.yul\":417:539   */\n    tag_68:\n        /* \"#utility.yul\":490:514   */\n      tag_108\n        /* \"#utility.yul\":508:513   */\n      dup2\n        /* \"#utility.yul\":490:514   */\n      tag_67\n      jump\t// in\n    tag_108:\n        /* \"#utility.yul\":483:488   */\n      dup2\n        /* \"#utility.yul\":480:515   */\n      eq\n        /* \"#utility.yul\":470:533   */\n      tag_109\n      jumpi\n        /* \"#utility.yul\":529:530   */\n      0x00\n        /* \"#utility.yul\":526:527   */\n      dup1\n        /* \"#utility.yul\":519:531   */\n      revert\n        /* \"#utility.yul\":470:533   */\n    tag_109:\n        /* \"#utility.yul\":417:539   */\n      pop\n      jump\t// out\n        /* \"#utility.yul\":545:684   */\n    tag_69:\n        /* \"#utility.yul\":591:596   */\n      0x00\n        /* \"#utility.yul\":629:635   */\n      dup2\n        /* \"#utility.yul\":616:636   */\n      calldataload\n        /* \"#utility.yul\":607:636   */\n      swap1\n      pop\n        /* \"#utility.yul\":645:678   */\n      tag_111\n        /* \"#utility.yul\":672:677   */\n      dup2\n        /* \"#utility.yul\":645:678   */\n      tag_68\n      jump\t// in\n    tag_111:\n        /* \"#utility.yul\":545:684   */\n      swap3\n      swap2\n      pop\n      pop\n      jump\t// out\n        /* \"#utility.yul\":690:816   */\n    tag_70:\n        /* \"#utility.yul\":727:734   */\n      0x00\n        /* \"#utility.yul\":767:809   */\n      0xffffffffffffffffffffffffffffffffffffffff\n        /* \"#utility.yul\":760:765   */\n      dup3\n        /* \"#utility.yul\":756:810   */\n      and\n        /* \"#utility.yul\":745:810   */\n      swap1\n      pop\n        /* \"#utility.yul\":690:816   */\n      swap2\n      swap1\n      pop\n      jump\t// out\n        /* \"#utility.yul\":822:918   */\n    tag_71:\n        /* \"#utility.yul\":859:866   */\n      0x00\n        /* \"#utility.yul\":888:912   */\n      tag_114\n        /* \"#utility.yul\":906:911   */\n      dup3\n        /* \"#utility.yul\":888:912   */\n      tag_70\n      jump\t// in\n    tag_114:\n        /* \"#utility.yul\":877:912   */\n      swap1\n      pop\n        /* \"#utility.yul\":822:918   */\n      swap2\n      swap1\n      pop\n      jump\t// out\n        /* \"#utility.yul\":924:1046   */\n    tag_72:\n        /* \"#utility.yul\":997:1021   */\n      tag_116\n        /* \"#utility.yul\":1015:1020   */\n      dup2\n        /* \"#utility.yul\":997:1021   */\n      tag_71\n      jump\t// in\n    tag_116:\n        /* \"#utility.yul\":990:995   */\n      dup2\n        /* \"#utility.yul\":987:1022   */\n      eq\n        /* \"#utility.yul\":977:1040   */\n      tag_117\n      jumpi\n        /* \"#utility.yul\":1036:1037   */\n      0x00\n        /* \"#utility.yul\":1033:1034   */\n      dup1\n        /* \"#utility.yul\":1026:1038   */\n      revert\n        /* \"#utility.yul\":977:1040   */\n    tag_117:\n        /* \"#utility.yul\":924:1046   */\n      pop\n      jump\t// out\n        /* \"#utility.yul\":1052:1191   */\n    tag_73:\n        /* \"#utility.yul\":1098:1103   */\n      0x00\n        /* \"#utility.yul\":1136:1142   */\n      dup2\n        /* \"#utility.yul\":1123:1143   */\n      calldataload\n        /* \"#utility.yul\":1114:1143   */\n      swap1\n      pop\n        /* \"#utility.yul\":1152:1185   */\n      tag_119\n        /* \"#utility.yul\":1179:1184   */\n      dup2\n        /* \"#utility.yul\":1152:1185   */\n      tag_72\n      jump\t// in\n    tag_119:\n        /* \"#utility.yul\":1052:1191   */\n      swap3\n      swap2\n      pop\n      pop\n      jump\t// out\n        /* \"#utility.yul\":1197:1671   */\n    tag_13:\n        /* \"#utility.yul\":1265:1271   */\n      0x00\n        /* \"#utility.yul\":1273:1279   */\n      dup1\n        /* \"#utility.yul\":1322:1324   */\n      0x40\n        /* \"#utility.yul\":1310:1319   */\n      dup4\n        /* \"#utility.yul\":1301:1308   */\n      dup6\n        /* \"#utility.yul\":1297:1320   */\n      sub\n        /* \"#utility.yul\":1293:1325   */\n      slt\n        /* \"#utility.yul\":1290:1409   */\n      iszero\n      tag_121\n      jumpi\n        /* \"#utility.yul\":1328:1407   */\n      tag_122\n      tag_65\n      jump\t// in\n    tag_122:\n        /* \"#utility.yul\":1290:1409   */\n    tag_121:\n        /* \"#utility.yul\":1448:1449   */\n      0x00\n        /* \"#utility.yul\":1473:1526   */\n      tag_123\n        /* \"#utility.yul\":1518:1525   */\n      dup6\n        /* \"#utility.yul\":1509:1515   */\n      dup3\n        /* \"#utility.yul\":1498:1507   */\n      dup7\n        /* \"#utility.yul\":1494:1516   */\n      add\n        /* \"#utility.yul\":1473:1526   */\n      tag_69\n      jump\t// in\n    tag_123:\n        /* \"#utility.yul\":1463:1526   */\n      swap3\n      pop\n        /* \"#utility.yul\":1419:1536   */\n      pop\n        /* \"#utility.yul\":1575:1577   */\n      0x20\n        /* \"#utility.yul\":1601:1654   */\n      tag_124\n        /* \"#utility.yul\":1646:1653   */\n      dup6\n        /* \"#utility.yul\":1637:1643   */\n      dup3\n        /* \"#utility.yul\":1626:1635   */\n      dup7\n        /* \"#utility.yul\":1622:1644   */\n      add\n        /* \"#utility.yul\":1601:1654   */\n      tag_73\n      jump\t// in\n    tag_124:\n        /* \"#utility.yul\":1591:1654   */\n      swap2\n      pop\n        /* \"#utility.yul\":1546:1664   */\n      pop\n        /* \"#utility.yul\":1197:1671   */\n      swap3\n      pop\n      swap3\n      swap1\n      pop\n      jump\t// out\n        /* \"#utility.yul\":1677:1795   */\n    tag_74:\n        /* \"#utility.yul\":1764:1788   */\n      tag_126\n        /* \"#utility.yul\":1782:1787   */\n      dup2\n        /* \"#utility.yul\":1764:1788   */\n      tag_67\n      jump\t// in\n    tag_126:\n        /* \"#utility.yul\":1759:1762   */\n      dup3\n        /* \"#utility.yul\":1752:1789   */\n      mstore\n        /* \"#utility.yul\":1677:1795   */\n      pop\n      pop\n      jump\t// out\n        /* \"#utility.yul\":1801:2023   */\n    tag_18:\n        /* \"#utility.yul\":1894:1898   */\n      0x00\n        /* \"#utility.yul\":1932:1934   */\n      0x20\n        /* \"#utility.yul\":1921:1930   */\n      dup3\n        /* \"#utility.yul\":1917:1935   */\n      add\n        /* \"#utility.yul\":1909:1935   */\n      swap1\n      pop\n        /* \"#utility.yul\":1945:2016   */\n      tag_128\n        /* \"#utility.yul\":2013:2014   */\n      0x00\n        /* \"#utility.yul\":2002:2011   */\n      dup4\n        /* \"#utility.yul\":1998:2015   */\n      add\n        /* \"#utility.yul\":1989:1995   */\n      dup5\n        /* \"#utility.yul\":1945:2016   */\n      tag_74\n      jump\t// in\n    tag_128:\n        /* \"#utility.yul\":1801:2023   */\n      swap3\n      swap2\n      pop\n      pop\n      jump\t// out\n        /* \"#utility.yul\":2029:2128   */\n    tag_75:\n        /* \"#utility.yul\":2081:2087   */\n      0x00\n        /* \"#utility.yul\":2115:2120   */\n      dup2\n        /* \"#utility.yul\":2109:2121   */\n      mload\n        /* \"#utility.yul\":2099:2121   */\n      swap1\n      pop\n        /* \"#utility.yul\":2029:2128   */\n      swap2\n      swap1\n      pop\n      jump\t// out\n        /* \"#utility.yul\":2134:2303   */\n    tag_76:\n        /* \"#utility.yul\":2218:2229   */\n      0x00\n        /* \"#utility.yul\":2252:2258   */\n      dup3\n        /* \"#utility.yul\":2247:2250   */\n      dup3\n        /* \"#utility.yul\":2240:2259   */\n      mstore\n        /* \"#utility.yul\":2292:2296   */\n      0x20\n        /* \"#utility.yul\":2287:2290   */\n      dup3\n        /* \"#utility.yul\":2283:2297   */\n      add\n        /* \"#utility.yul\":2268:2297   */\n      swap1\n      pop\n        /* \"#utility.yul\":2134:2303   */\n      swap3\n      swap2\n      pop\n      pop\n      jump\t// out\n        /* \"#utility.yul\":2309:2616   */\n    tag_77:\n        /* \"#utility.yul\":2377:2378   */\n      0x00\n        /* \"#utility.yul\":2387:2500   */\n    tag_132:\n        /* \"#utility.yul\":2401:2407   */\n      dup4\n        /* \"#utility.yul\":2398:2399   */\n      dup2\n        /* \"#utility.yul\":2395:2408   */\n      lt\n        /* \"#utility.yul\":2387:2500   */\n      iszero\n      tag_134\n      jumpi\n        /* \"#utility.yul\":2486:2487   */\n      dup1\n        /* \"#utility.yul\":2481:2484   */\n      dup3\n        /* \"#utility.yul\":2477:2488   */\n      add\n        /* \"#utility.yul\":2471:2489   */\n      mload\n        /* \"#utility.yul\":2467:2468   */\n      dup2\n        /* \"#utility.yul\":2462:2465   */\n      dup5\n        /* \"#utility.yul\":2458:2469   */\n      add\n        /* \"#utility.yul\":2451:2490   */\n      mstore\n        /* \"#utility.yul\":2423:2425   */\n      0x20\n        /* \"#utility.yul\":2420:2421   */\n      dup2\n        /* \"#utility.yul\":2416:2426   */\n      add\n        /* \"#utility.yul\":2411:2426   */\n      swap1\n      pop\n        /* \"#utility.yul\":2387:2500   */\n      jump(tag_132)\n    tag_134:\n        /* \"#utility.yul\":2518:2524   */\n      dup4\n        /* \"#utility.yul\":2515:2516   */\n      dup2\n        /* \"#utility.yul\":2512:2525   */\n      gt\n        /* \"#utility.yul\":2509:2610   */\n      iszero\n      tag_135\n      jumpi\n        /* \"#utility.yul\":2598:2599   */\n      0x00\n        /* \"#utility.yul\":2589:2595   */\n      dup5\n        /* \"#utility.yul\":2584:2587   */\n      dup5\n        /* \"#utility.yul\":2580:2596   */\n      add\n        /* \"#utility.yul\":2573:2600   */\n      mstore\n        /* \"#utility.yul\":2509:2610   */\n    tag_135:\n        /* \"#utility.yul\":2358:2616   */\n      pop\n        /* \"#utility.yul\":2309:2616   */\n      pop\n      pop\n      pop\n      jump\t// out\n        /* \"#utility.yul\":2622:2724   */\n    tag_78:\n        /* \"#utility.yul\":2663:2669   */\n      0x00\n        /* \"#utility.yul\":2714:2716   */\n      0x1f\n        /* \"#utility.yul\":2710:2717   */\n      not\n        /* \"#utility.yul\":2705:2707   */\n      0x1f\n        /* \"#utility.yul\":2698:2703   */\n      dup4\n        /* \"#utility.yul\":2694:2708   */\n      add\n        /* \"#utility.yul\":2690:2718   */\n      and\n        /* \"#utility.yul\":2680:2718   */\n      swap1\n      pop\n        /* \"#utility.yul\":2622:2724   */\n      swap2\n      swap1\n      pop\n      jump\t// out\n        /* \"#utility.yul\":2730:3094   */\n    tag_79:\n        /* \"#utility.yul\":2818:2821   */\n      0x00\n        /* \"#utility.yul\":2846:2885   */\n      tag_138\n        /* \"#utility.yul\":2879:2884   */\n      dup3\n        /* \"#utility.yul\":2846:2885   */\n      tag_75\n      jump\t// in\n    tag_138:\n        /* \"#utility.yul\":2901:2972   */\n      tag_139\n        /* \"#utility.yul\":2965:2971   */\n      dup2\n        /* \"#utility.yul\":2960:2963   */\n      dup6\n        /* \"#utility.yul\":2901:2972   */\n      tag_76\n      jump\t// in\n    tag_139:\n        /* \"#utility.yul\":2894:2972   */\n      swap4\n      pop\n        /* \"#utility.yul\":2981:3033   */\n      tag_140\n        /* \"#utility.yul\":3026:3032   */\n      dup2\n        /* \"#utility.yul\":3021:3024   */\n      dup6\n        /* \"#utility.yul\":3014:3018   */\n      0x20\n        /* \"#utility.yul\":3007:3012   */\n      dup7\n        /* \"#utility.yul\":3003:3019   */\n      add\n        /* \"#utility.yul\":2981:3033   */\n      tag_77\n      jump\t// in\n    tag_140:\n        /* \"#utility.yul\":3058:3087   */\n      tag_141\n        /* \"#utility.yul\":3080:3086   */\n      dup2\n        /* \"#utility.yul\":3058:3087   */\n      tag_78\n      jump\t// in\n    tag_141:\n        /* \"#utility.yul\":3053:3056   */\n      dup5\n        /* \"#utility.yul\":3049:3088   */\n      add\n        /* \"#utility.yul\":3042:3088   */\n      swap2\n      pop\n        /* \"#utility.yul\":2822:3094   */\n      pop\n        /* \"#utility.yul\":2730:3094   */\n      swap3\n      swap2\n      pop\n      pop\n      jump\t// out\n        /* \"#utility.yul\":3100:3413   */\n    tag_22:\n        /* \"#utility.yul\":3213:3217   */\n      0x00\n        /* \"#utility.yul\":3251:3253   */\n      0x20\n        /* \"#utility.yul\":3240:3249   */\n      dup3\n        /* \"#utility.yul\":3236:3254   */\n      add\n        /* \"#utility.yul\":3228:3254   */\n      swap1\n      pop\n        /* \"#utility.yul\":3300:3309   */\n      dup2\n        /* \"#utility.yul\":3294:3298   */\n      dup2\n        /* \"#utility.yul\":3290:3310   */\n      sub\n        /* \"#utility.yul\":3286:3287   */\n      0x00\n        /* \"#utility.yul\":3275:3284   */\n      dup4\n        /* \"#utility.yul\":3271:3288   */\n      add\n        /* \"#utility.yul\":3264:3311   */\n      mstore\n        /* \"#utility.yul\":3328:3406   */\n      tag_143\n        /* \"#utility.yul\":3401:3405   */\n      dup2\n        /* \"#utility.yul\":3392:3398   */\n      dup5\n        /* \"#utility.yul\":3328:3406   */\n      tag_79\n      jump\t// in\n    tag_143:\n        /* \"#utility.yul\":3320:3406   */\n      swap1\n      pop\n        /* \"#utility.yul\":3100:3413   */\n      swap3\n      swap2\n      pop\n      pop\n      jump\t// out\n        /* \"#utility.yul\":3419:3597   */\n    tag_80:\n        /* \"#utility.yul\":3559:3589   */\n      0x2054686973206164647265737320646f65736e27742065786973747300000000\n        /* \"#utility.yul\":3555:3556   */\n      0x00\n        /* \"#utility.yul\":3547:3553   */\n      dup3\n        /* \"#utility.yul\":3543:3557   */\n      add\n        /* \"#utility.yul\":3536:3590   */\n      mstore\n        /* \"#utility.yul\":3419:3597   */\n      pop\n      jump\t// out\n        /* \"#utility.yul\":3603:3969   */\n    tag_81:\n        /* \"#utility.yul\":3745:3748   */\n      0x00\n        /* \"#utility.yul\":3766:3833   */\n      tag_146\n        /* \"#utility.yul\":3830:3832   */\n      0x1c\n        /* \"#utility.yul\":3825:3828   */\n      dup4\n        /* \"#utility.yul\":3766:3833   */\n      tag_76\n      jump\t// in\n    tag_146:\n        /* \"#utility.yul\":3759:3833   */\n      swap2\n      pop\n        /* \"#utility.yul\":3842:3935   */\n      tag_147\n        /* \"#utility.yul\":3931:3934   */\n      dup3\n        /* \"#utility.yul\":3842:3935   */\n      tag_80\n      jump\t// in\n    tag_147:\n        /* \"#utility.yul\":3960:3962   */\n      0x20\n        /* \"#utility.yul\":3955:3958   */\n      dup3\n        /* \"#utility.yul\":3951:3963   */\n      add\n        /* \"#utility.yul\":3944:3963   */\n      swap1\n      pop\n        /* \"#utility.yul\":3603:3969   */\n      swap2\n      swap1\n      pop\n      jump\t// out\n        /* \"#utility.yul\":3975:4394   */\n    tag_38:\n        /* \"#utility.yul\":4141:4145   */\n      0x00\n        /* \"#utility.yul\":4179:4181   */\n      0x20\n        /* \"#utility.yul\":4168:4177   */\n      dup3\n        /* \"#utility.yul\":4164:4182   */\n      add\n        /* \"#utility.yul\":4156:4182   */\n      swap1\n      pop\n        /* \"#utility.yul\":4228:4237   */\n      dup2\n        /* \"#utility.yul\":4222:4226   */\n      dup2\n        /* \"#utility.yul\":4218:4238   */\n      sub\n        /* \"#utility.yul\":4214:4215   */\n      0x00\n        /* \"#utility.yul\":4203:4212   */\n      dup4\n        /* \"#utility.yul\":4199:4216   */\n      add\n        /* \"#utility.yul\":4192:4239   */\n      mstore\n        /* \"#utility.yul\":4256:4387   */\n      tag_149\n        /* \"#utility.yul\":4382:4386   */\n      dup2\n        /* \"#utility.yul\":4256:4387   */\n      tag_81\n      jump\t// in\n    tag_149:\n        /* \"#utility.yul\":4248:4387   */\n      swap1\n      pop\n        /* \"#utility.yul\":3975:4394   */\n      swap2\n      swap1\n      pop\n      jump\t// out\n        /* \"#utility.yul\":4400:4580   */\n    tag_82:\n        /* \"#utility.yul\":4448:4525   */\n      0x4e487b7100000000000000000000000000000000000000000000000000000000\n        /* \"#utility.yul\":4445:4446   */\n      0x00\n        /* \"#utility.yul\":4438:4526   */\n      mstore\n        /* \"#utility.yul\":4545:4549   */\n      0x22\n        /* \"#utility.yul\":4542:4543   */\n      0x04\n        /* \"#utility.yul\":4535:4550   */\n      mstore\n        /* \"#utility.yul\":4569:4573   */\n      0x24\n        /* \"#utility.yul\":4566:4567   */\n      0x00\n        /* \"#utility.yul\":4559:4574   */\n      revert\n        /* \"#utility.yul\":4586:4906   */\n    tag_41:\n        /* \"#utility.yul\":4630:4636   */\n      0x00\n        /* \"#utility.yul\":4667:4668   */\n      0x02\n        /* \"#utility.yul\":4661:4665   */\n      dup3\n        /* \"#utility.yul\":4657:4669   */\n      div\n        /* \"#utility.yul\":4647:4669   */\n      swap1\n      pop\n        /* \"#utility.yul\":4714:4715   */\n      0x01\n        /* \"#utility.yul\":4708:4712   */\n      dup3\n        /* \"#utility.yul\":4704:4716   */\n      and\n        /* \"#utility.yul\":4735:4753   */\n      dup1\n        /* \"#utility.yul\":4725:4806   */\n      tag_152\n      jumpi\n        /* \"#utility.yul\":4791:4795   */\n      0x7f\n        /* \"#utility.yul\":4783:4789   */\n      dup3\n        /* \"#utility.yul\":4779:4796   */\n      and\n        /* \"#utility.yul\":4769:4796   */\n      swap2\n      pop\n        /* \"#utility.yul\":4725:4806   */\n    tag_152:\n        /* \"#utility.yul\":4853:4855   */\n      0x20\n        /* \"#utility.yul\":4845:4851   */\n      dup3\n        /* \"#utility.yul\":4842:4856   */\n      lt\n        /* \"#utility.yul\":4822:4840   */\n      dup2\n        /* \"#utility.yul\":4819:4857   */\n      sub\n        /* \"#utility.yul\":4816:4900   */\n      tag_153\n      jumpi\n        /* \"#utility.yul\":4872:4890   */\n      tag_154\n      tag_82\n      jump\t// in\n    tag_154:\n        /* \"#utility.yul\":4816:4900   */\n    tag_153:\n        /* \"#utility.yul\":4637:4906   */\n      pop\n        /* \"#utility.yul\":4586:4906   */\n      swap2\n      swap1\n      pop\n      jump\t// out\n        /* \"#utility.yul\":4912:5077   */\n    tag_83:\n        /* \"#utility.yul\":5052:5069   */\n      0x4e6f2076616c6964206e756d6265720000000000000000000000000000000000\n        /* \"#utility.yul\":5048:5049   */\n      0x00\n        /* \"#utility.yul\":5040:5046   */\n      dup3\n        /* \"#utility.yul\":5036:5050   */\n      add\n        /* \"#utility.yul\":5029:5070   */\n      mstore\n        /* \"#utility.yul\":4912:5077   */\n      pop\n      jump\t// out\n        /* \"#utility.yul\":5083:5449   */\n    tag_84:\n        /* \"#utility.yul\":5225:5228   */\n      0x00\n        /* \"#utility.yul\":5246:5313   */\n      tag_157\n        /* \"#utility.yul\":5310:5312   */\n      0x0f\n        /* \"#utility.yul\":5305:5308   */\n      dup4\n        /* \"#utility.yul\":5246:5313   */\n      tag_76\n      jump\t// in\n    tag_157:\n        /* \"#utility.yul\":5239:5313   */\n      swap2\n      pop\n        /* \"#utility.yul\":5322:5415   */\n      tag_158\n        /* \"#utility.yul\":5411:5414   */\n      dup3\n        /* \"#utility.yul\":5322:5415   */\n      tag_83\n      jump\t// in\n    tag_158:\n        /* \"#utility.yul\":5440:5442   */\n      0x20\n        /* \"#utility.yul\":5435:5438   */\n      dup3\n        /* \"#utility.yul\":5431:5443   */\n      add\n        /* \"#utility.yul\":5424:5443   */\n      swap1\n      pop\n        /* \"#utility.yul\":5083:5449   */\n      swap2\n      swap1\n      pop\n      jump\t// out\n        /* \"#utility.yul\":5455:5874   */\n    tag_44:\n        /* \"#utility.yul\":5621:5625   */\n      0x00\n        /* \"#utility.yul\":5659:5661   */\n      0x20\n        /* \"#utility.yul\":5648:5657   */\n      dup3\n        /* \"#utility.yul\":5644:5662   */\n      add\n        /* \"#utility.yul\":5636:5662   */\n      swap1\n      pop\n        /* \"#utility.yul\":5708:5717   */\n      dup2\n        /* \"#utility.yul\":5702:5706   */\n      dup2\n        /* \"#utility.yul\":5698:5718   */\n      sub\n        /* \"#utility.yul\":5694:5695   */\n      0x00\n        /* \"#utility.yul\":5683:5692   */\n      dup4\n        /* \"#utility.yul\":5679:5696   */\n      add\n        /* \"#utility.yul\":5672:5719   */\n      mstore\n        /* \"#utility.yul\":5736:5867   */\n      tag_160\n        /* \"#utility.yul\":5862:5866   */\n      dup2\n        /* \"#utility.yul\":5736:5867   */\n      tag_84\n      jump\t// in\n    tag_160:\n        /* \"#utility.yul\":5728:5867   */\n      swap1\n      pop\n        /* \"#utility.yul\":5455:5874   */\n      swap2\n      swap1\n      pop\n      jump\t// out\n        /* \"#utility.yul\":5880:6060   */\n    tag_85:\n        /* \"#utility.yul\":5928:6005   */\n      0x4e487b7100000000000000000000000000000000000000000000000000000000\n        /* \"#utility.yul\":5925:5926   */\n      0x00\n        /* \"#utility.yul\":5918:6006   */\n      mstore\n        /* \"#utility.yul\":6025:6029   */\n      0x11\n        /* \"#utility.yul\":6022:6023   */\n      0x04\n        /* \"#utility.yul\":6015:6030   */\n      mstore\n        /* \"#utility.yul\":6049:6053   */\n      0x24\n        /* \"#utility.yul\":6046:6047   */\n      0x00\n        /* \"#utility.yul\":6039:6054   */\n      revert\n        /* \"#utility.yul\":6066:6257   */\n    tag_49:\n        /* \"#utility.yul\":6106:6110   */\n      0x00\n        /* \"#utility.yul\":6126:6146   */\n      tag_163\n        /* \"#utility.yul\":6144:6145   */\n      dup3\n        /* \"#utility.yul\":6126:6146   */\n      tag_67\n      jump\t// in\n    tag_163:\n        /* \"#utility.yul\":6121:6146   */\n      swap2\n      pop\n        /* \"#utility.yul\":6160:6180   */\n      tag_164\n        /* \"#utility.yul\":6178:6179   */\n      dup4\n        /* \"#utility.yul\":6160:6180   */\n      tag_67\n      jump\t// in\n    tag_164:\n        /* \"#utility.yul\":6155:6180   */\n      swap3\n      pop\n        /* \"#utility.yul\":6199:6200   */\n      dup3\n        /* \"#utility.yul\":6196:6197   */\n      dup3\n        /* \"#utility.yul\":6193:6201   */\n      lt\n        /* \"#utility.yul\":6190:6224   */\n      iszero\n      tag_165\n      jumpi\n        /* \"#utility.yul\":6204:6222   */\n      tag_166\n      tag_85\n      jump\t// in\n    tag_166:\n        /* \"#utility.yul\":6190:6224   */\n    tag_165:\n        /* \"#utility.yul\":6249:6250   */\n      dup3\n        /* \"#utility.yul\":6246:6247   */\n      dup3\n        /* \"#utility.yul\":6242:6251   */\n      sub\n        /* \"#utility.yul\":6234:6251   */\n      swap1\n      pop\n        /* \"#utility.yul\":6066:6257   */\n      swap3\n      swap2\n      pop\n      pop\n      jump\t// out\n        /* \"#utility.yul\":6263:6443   */\n    tag_86:\n        /* \"#utility.yul\":6311:6388   */\n      0x4e487b7100000000000000000000000000000000000000000000000000000000\n        /* \"#utility.yul\":6308:6309   */\n      0x00\n        /* \"#utility.yul\":6301:6389   */\n      mstore\n        /* \"#utility.yul\":6408:6412   */\n      0x41\n        /* \"#utility.yul\":6405:6406   */\n      0x04\n        /* \"#utility.yul\":6398:6413   */\n      mstore\n        /* \"#utility.yul\":6432:6436   */\n      0x24\n        /* \"#utility.yul\":6429:6430   */\n      0x00\n        /* \"#utility.yul\":6422:6437   */\n      revert\n        /* \"#utility.yul\":6449:6590   */\n    tag_87:\n        /* \"#utility.yul\":6498:6502   */\n      0x00\n        /* \"#utility.yul\":6521:6524   */\n      dup2\n        /* \"#utility.yul\":6513:6524   */\n      swap1\n      pop\n        /* \"#utility.yul\":6544:6547   */\n      dup2\n        /* \"#utility.yul\":6541:6542   */\n      0x00\n        /* \"#utility.yul\":6534:6548   */\n      mstore\n        /* \"#utility.yul\":6578:6582   */\n      0x20\n        /* \"#utility.yul\":6575:6576   */\n      0x00\n        /* \"#utility.yul\":6565:6583   */\n      keccak256\n        /* \"#utility.yul\":6557:6583   */\n      swap1\n      pop\n        /* \"#utility.yul\":6449:6590   */\n      swap2\n      swap1\n      pop\n      jump\t// out\n        /* \"#utility.yul\":6596:6689   */\n    tag_88:\n        /* \"#utility.yul\":6633:6639   */\n      0x00\n        /* \"#utility.yul\":6680:6682   */\n      0x20\n        /* \"#utility.yul\":6675:6677   */\n      0x1f\n        /* \"#utility.yul\":6668:6673   */\n      dup4\n        /* \"#utility.yul\":6664:6678   */\n      add\n        /* \"#utility.yul\":6660:6683   */\n      div\n        /* \"#utility.yul\":6650:6683   */\n      swap1\n      pop\n        /* \"#utility.yul\":6596:6689   */\n      swap2\n      swap1\n      pop\n      jump\t// out\n        /* \"#utility.yul\":6695:6802   */\n    tag_89:\n        /* \"#utility.yul\":6739:6747   */\n      0x00\n        /* \"#utility.yul\":6789:6794   */\n      dup3\n        /* \"#utility.yul\":6783:6787   */\n      dup3\n        /* \"#utility.yul\":6779:6795   */\n      shl\n        /* \"#utility.yul\":6758:6795   */\n      swap1\n      pop\n        /* \"#utility.yul\":6695:6802   */\n      swap3\n      swap2\n      pop\n      pop\n      jump\t// out\n        /* \"#utility.yul\":6808:7201   */\n    tag_90:\n        /* \"#utility.yul\":6877:6883   */\n      0x00\n        /* \"#utility.yul\":6927:6928   */\n      0x08\n        /* \"#utility.yul\":6915:6925   */\n      dup4\n        /* \"#utility.yul\":6911:6929   */\n      mul\n        /* \"#utility.yul\":6950:7047   */\n      tag_172\n        /* \"#utility.yul\":6980:7046   */\n      0xffffffffffffffffffffffffffffffffffffffffffffffffffffffffffffffff\n        /* \"#utility.yul\":6969:6978   */\n      dup3\n        /* \"#utility.yul\":6950:7047   */\n      tag_89\n      jump\t// in\n    tag_172:\n        /* \"#utility.yul\":7068:7107   */\n      tag_173\n        /* \"#utility.yul\":7098:7106   */\n      dup7\n        /* \"#utility.yul\":7087:7096   */\n      dup4\n        /* \"#utility.yul\":7068:7107   */\n      tag_89\n      jump\t// in\n    tag_173:\n        /* \"#utility.yul\":7056:7107   */\n      swap6\n      pop\n        /* \"#utility.yul\":7140:7144   */\n      dup1\n        /* \"#utility.yul\":7136:7145   */\n      not\n        /* \"#utility.yul\":7129:7134   */\n      dup5\n        /* \"#utility.yul\":7125:7146   */\n      and\n        /* \"#utility.yul\":7116:7146   */\n      swap4\n      pop\n        /* \"#utility.yul\":7189:7193   */\n      dup1\n        /* \"#utility.yul\":7179:7187   */\n      dup7\n        /* \"#utility.yul\":7175:7194   */\n      and\n        /* \"#utility.yul\":7168:7173   */\n      dup5\n        /* \"#utility.yul\":7165:7195   */\n      or\n        /* \"#utility.yul\":7155:7195   */\n      swap3\n      pop\n        /* \"#utility.yul\":6884:7201   */\n      pop\n      pop\n        /* \"#utility.yul\":6808:7201   */\n      swap4\n      swap3\n      pop\n      pop\n      pop\n      jump\t// out\n        /* \"#utility.yul\":7207:7267   */\n    tag_91:\n        /* \"#utility.yul\":7235:7238   */\n      0x00\n        /* \"#utility.yul\":7256:7261   */\n      dup2\n        /* \"#utility.yul\":7249:7261   */\n      swap1\n      pop\n        /* \"#utility.yul\":7207:7267   */\n      swap2\n      swap1\n      pop\n      jump\t// out\n        /* \"#utility.yul\":7273:7415   */\n    tag_92:\n        /* \"#utility.yul\":7323:7332   */\n      0x00\n        /* \"#utility.yul\":7356:7409   */\n      tag_176\n        /* \"#utility.yul\":7374:7408   */\n      tag_177\n        /* \"#utility.yul\":7383:7407   */\n      tag_178\n        /* \"#utility.yul\":7401:7406   */\n      dup5\n        /* \"#utility.yul\":7383:7407   */\n      tag_67\n      jump\t// in\n    tag_178:\n        /* \"#utility.yul\":7374:7408   */\n      tag_91\n      jump\t// in\n    tag_177:\n        /* \"#utility.yul\":7356:7409   */\n      tag_67\n      jump\t// in\n    tag_176:\n        /* \"#utility.yul\":7343:7409   */\n      swap1\n      pop\n        /* \"#utility.yul\":7273:7415   */\n      swap2\n      swap1\n      pop\n      jump\t// out\n        /* \"#utility.yul\":7421:7496   */\n    tag_93:\n        /* \"#utility.yul\":7464:7467   */\n      0x00\n        /* \"#utility.yul\":7485:7490   */\n      dup2\n        /* \"#utility.yul\":7478:7490   */\n      swap1\n      pop\n        /* \"#utility.yul\":7421:7496   */\n      swap2\n      swap1\n      pop\n      jump\t// out\n        /* \"#utility.yul\":7502:7771   */\n    tag_94:\n        /* \"#utility.yul\":7612:7651   */\n      tag_181\n        /* \"#utility.yul\":7643:7650   */\n      dup4\n        /* \"#utility.yul\":7612:7651   */\n      tag_92\n      jump\t// in\n    tag_181:\n        /* \"#utility.yul\":7673:7764   */\n      tag_182\n        /* \"#utility.yul\":7722:7763   */\n      tag_183\n        /* \"#utility.yul\":7746:7762   */\n      dup3\n        /* \"#utility.yul\":7722:7763   */\n      tag_93\n      jump\t// in\n    tag_183:\n        /* \"#utility.yul\":7714:7720   */\n      dup5\n        /* \"#utility.yul\":7707:7711   */\n      dup5\n        /* \"#utility.yul\":7701:7712   */\n      sload\n        /* \"#utility.yul\":7673:7764   */\n      tag_90\n      jump\t// in\n    tag_182:\n        /* \"#utility.yul\":7667:7671   */\n      dup3\n        /* \"#utility.yul\":7660:7765   */\n      sstore\n        /* \"#utility.yul\":7578:7771   */\n      pop\n        /* \"#utility.yul\":7502:7771   */\n      pop\n      pop\n      pop\n      jump\t// out\n        /* \"#utility.yul\":7777:7850   */\n    tag_95:\n        /* \"#utility.yul\":7822:7825   */\n      0x00\n        /* \"#utility.yul\":7777:7850   */\n      swap1\n      jump\t// out\n        /* \"#utility.yul\":7856:8045   */\n    tag_96:\n        /* \"#utility.yul\":7933:7965   */\n      tag_186\n      tag_95\n      jump\t// in\n    tag_186:\n        /* \"#utility.yul\":7974:8039   */\n      tag_187\n        /* \"#utility.yul\":8032:8038   */\n      dup2\n        /* \"#utility.yul\":8024:8030   */\n      dup5\n        /* \"#utility.yul\":8018:8022   */\n      dup5\n        /* \"#utility.yul\":7974:8039   */\n      tag_94\n      jump\t// in\n    tag_187:\n        /* \"#utility.yul\":7909:8045   */\n      pop\n        /* \"#utility.yul\":7856:8045   */\n      pop\n      pop\n      jump\t// out\n        /* \"#utility.yul\":8051:8237   */\n    tag_97:\n        /* \"#utility.yul\":8111:8231   */\n    tag_189:\n        /* \"#utility.yul\":8128:8131   */\n      dup2\n        /* \"#utility.yul\":8121:8126   */\n      dup2\n        /* \"#utility.yul\":8118:8132   */\n      lt\n        /* \"#utility.yul\":8111:8231   */\n      iszero\n      tag_191\n      jumpi\n        /* \"#utility.yul\":8182:8221   */\n      tag_192\n        /* \"#utility.yul\":8219:8220   */\n      0x00\n        /* \"#utility.yul\":8212:8217   */\n      dup3\n        /* \"#utility.yul\":8182:8221   */\n      tag_96\n      jump\t// in\n    tag_192:\n        /* \"#utility.yul\":8155:8156   */\n      0x01\n        /* \"#utility.yul\":8148:8153   */\n      dup2\n        /* \"#utility.yul\":8144:8157   */\n      add\n        /* \"#utility.yul\":8135:8157   */\n      swap1\n      pop\n        /* \"#utility.yul\":8111:8231   */\n      jump(tag_189)\n    tag_191:\n        /* \"#utility.yul\":8051:8237   */\n      pop\n      pop\n      jump\t// out\n        /* \"#utility.yul\":8243:8786   */\n    tag_98:\n        /* \"#utility.yul\":8344:8346   */\n      0x1f\n        /* \"#utility.yul\":8339:8342   */\n      dup3\n        /* \"#utility.yul\":8336:8347   */\n      gt\n        /* \"#utility.yul\":8333:8779   */\n      iszero\n      tag_194\n      jumpi\n        /* \"#utility.yul\":8378:8416   */\n      tag_195\n        /* \"#utility.yul\":8410:8415   */\n      dup2\n        /* \"#utility.yul\":8378:8416   */\n      tag_87\n      jump\t// in\n    tag_195:\n        /* \"#utility.yul\":8462:8491   */\n      tag_196\n        /* \"#utility.yul\":8480:8490   */\n      dup5\n        /* \"#utility.yul\":8462:8491   */\n      tag_88\n      jump\t// in\n    tag_196:\n        /* \"#utility.yul\":8452:8460   */\n      dup2\n        /* \"#utility.yul\":8448:8492   */\n      add\n        /* \"#utility.yul\":8645:8647   */\n      0x20\n        /* \"#utility.yul\":8633:8643   */\n      dup6\n        /* \"#utility.yul\":8630:8648   */\n      lt\n        /* \"#utility.yul\":8627:8676   */\n      iszero\n      tag_197\n      jumpi\n        /* \"#utility.yul\":8666:8674   */\n      dup2\n        /* \"#utility.yul\":8651:8674   */\n      swap1\n      pop\n        /* \"#utility.yul\":8627:8676   */\n    tag_197:\n        /* \"#utility.yul\":8689:8769   */\n      tag_198\n        /* \"#utility.yul\":8745:8767   */\n      tag_199\n        /* \"#utility.yul\":8763:8766   */\n      dup6\n        /* \"#utility.yul\":8745:8767   */\n      tag_88\n      jump\t// in\n    tag_199:\n        /* \"#utility.yul\":8735:8743   */\n      dup4\n        /* \"#utility.yul\":8731:8768   */\n      add\n        /* \"#utility.yul\":8718:8729   */\n      dup3\n        /* \"#utility.yul\":8689:8769   */\n      tag_97\n      jump\t// in\n    tag_198:\n        /* \"#utility.yul\":8348:8779   */\n      pop\n      pop\n        /* \"#utility.yul\":8333:8779   */\n    tag_194:\n        /* \"#utility.yul\":8243:8786   */\n      pop\n      pop\n      pop\n      jump\t// out\n        /* \"#utility.yul\":8792:8909   */\n    tag_99:\n        /* \"#utility.yul\":8846:8854   */\n      0x00\n        /* \"#utility.yul\":8896:8901   */\n      dup3\n        /* \"#utility.yul\":8890:8894   */\n      dup3\n        /* \"#utility.yul\":8886:8902   */\n      shr\n        /* \"#utility.yul\":8865:8902   */\n      swap1\n      pop\n        /* \"#utility.yul\":8792:8909   */\n      swap3\n      swap2\n      pop\n      pop\n      jump\t// out\n        /* \"#utility.yul\":8915:9084   */\n    tag_100:\n        /* \"#utility.yul\":8959:8965   */\n      0x00\n        /* \"#utility.yul\":8992:9043   */\n      tag_202\n        /* \"#utility.yul\":9040:9041   */\n      0x00\n        /* \"#utility.yul\":9036:9042   */\n      not\n        /* \"#utility.yul\":9028:9033   */\n      dup5\n        /* \"#utility.yul\":9025:9026   */\n      0x08\n        /* \"#utility.yul\":9021:9034   */\n      mul\n        /* \"#utility.yul\":8992:9043   */\n      tag_99\n      jump\t// in\n    tag_202:\n        /* \"#utility.yul\":8988:9044   */\n      not\n        /* \"#utility.yul\":9073:9077   */\n      dup1\n        /* \"#utility.yul\":9067:9071   */\n      dup4\n        /* \"#utility.yul\":9063:9078   */\n      and\n        /* \"#utility.yul\":9053:9078   */\n      swap2\n      pop\n        /* \"#utility.yul\":8966:9084   */\n      pop\n        /* \"#utility.yul\":8915:9084   */\n      swap3\n      swap2\n      pop\n      pop\n      jump\t// out\n        /* \"#utility.yul\":9089:9384   */\n    tag_101:\n        /* \"#utility.yul\":9165:9169   */\n      0x00\n        /* \"#utility.yul\":9311:9340   */\n      tag_204\n        /* \"#utility.yul\":9336:9339   */\n      dup4\n        /* \"#utility.yul\":9330:9334   */\n      dup4\n        /* \"#utility.yul\":9311:9340   */\n      tag_100\n      jump\t// in\n    tag_204:\n        /* \"#utility.yul\":9303:9340   */\n      swap2\n      pop\n        /* \"#utility.yul\":9373:9376   */\n      dup3\n        /* \"#utility.yul\":9370:9371   */\n      0x02\n        /* \"#utility.yul\":9366:9377   */\n      mul\n        /* \"#utility.yul\":9360:9364   */\n      dup3\n        /* \"#utility.yul\":9357:9378   */\n      or\n        /* \"#utility.yul\":9349:9378   */\n      swap1\n      pop\n        /* \"#utility.yul\":9089:9384   */\n      swap3\n      swap2\n      pop\n      pop\n      jump\t// out\n        /* \"#utility.yul\":9389:10784   */\n    tag_51:\n        /* \"#utility.yul\":9506:9543   */\n      tag_206\n        /* \"#utility.yul\":9539:9542   */\n      dup3\n        /* \"#utility.yul\":9506:9543   */\n      tag_75\n      jump\t// in\n    tag_206:\n        /* \"#utility.yul\":9608:9626   */\n      0xffffffffffffffff\n        /* \"#utility.yul\":9600:9606   */\n      dup2\n        /* \"#utility.yul\":9597:9627   */\n      gt\n        /* \"#utility.yul\":9594:9650   */\n      iszero\n      tag_207\n      jumpi\n        /* \"#utility.yul\":9630:9648   */\n      tag_208\n      tag_86\n      jump\t// in\n    tag_208:\n        /* \"#utility.yul\":9594:9650   */\n    tag_207:\n        /* \"#utility.yul\":9674:9712   */\n      tag_209\n        /* \"#utility.yul\":9706:9710   */\n      dup3\n        /* \"#utility.yul\":9700:9711   */\n      sload\n        /* \"#utility.yul\":9674:9712   */\n      tag_41\n      jump\t// in\n    tag_209:\n        /* \"#utility.yul\":9759:9826   */\n      tag_210\n        /* \"#utility.yul\":9819:9825   */\n      dup3\n        /* \"#utility.yul\":9811:9817   */\n      dup3\n        /* \"#utility.yul\":9805:9809   */\n      dup6\n        /* \"#utility.yul\":9759:9826   */\n      tag_98\n      jump\t// in\n    tag_210:\n        /* \"#utility.yul\":9853:9854   */\n      0x00\n        /* \"#utility.yul\":9877:9881   */\n      0x20\n        /* \"#utility.yul\":9864:9881   */\n      swap1\n      pop\n        /* \"#utility.yul\":9909:9911   */\n      0x1f\n        /* \"#utility.yul\":9901:9907   */\n      dup4\n        /* \"#utility.yul\":9898:9912   */\n      gt\n        /* \"#utility.yul\":9926:9927   */\n      0x01\n        /* \"#utility.yul\":9921:10539   */\n      dup2\n      eq\n      tag_212\n      jumpi\n        /* \"#utility.yul\":10583:10584   */\n      0x00\n        /* \"#utility.yul\":10600:10606   */\n      dup5\n        /* \"#utility.yul\":10597:10674   */\n      iszero\n      tag_213\n      jumpi\n        /* \"#utility.yul\":10649:10658   */\n      dup3\n        /* \"#utility.yul\":10644:10647   */\n      dup8\n        /* \"#utility.yul\":10640:10659   */\n      add\n        /* \"#utility.yul\":10634:10660   */\n      mload\n        /* \"#utility.yul\":10625:10660   */\n      swap1\n      pop\n        /* \"#utility.yul\":10597:10674   */\n    tag_213:\n        /* \"#utility.yul\":10700:10767   */\n      tag_214\n        /* \"#utility.yul\":10760:10766   */\n      dup6\n        /* \"#utility.yul\":10753:10758   */\n      dup3\n        /* \"#utility.yul\":10700:10767   */\n      tag_101\n      jump\t// in\n    tag_214:\n        /* \"#utility.yul\":10694:10698   */\n      dup7\n        /* \"#utility.yul\":10687:10768   */\n      sstore\n        /* \"#utility.yul\":10556:10778   */\n      pop\n        /* \"#utility.yul\":9891:10778   */\n      jump(tag_211)\n        /* \"#utility.yul\":9921:10539   */\n    tag_212:\n        /* \"#utility.yul\":9973:9977   */\n      0x1f\n        /* \"#utility.yul\":9969:9978   */\n      not\n        /* \"#utility.yul\":9961:9967   */\n      dup5\n        /* \"#utility.yul\":9957:9979   */\n      and\n        /* \"#utility.yul\":10007:10044   */\n      tag_215\n        /* \"#utility.yul\":10039:10043   */\n      dup7\n        /* \"#utility.yul\":10007:10044   */\n      tag_87\n      jump\t// in\n    tag_215:\n        /* \"#utility.yul\":10066:10067   */\n      0x00\n        /* \"#utility.yul\":10080:10288   */\n    tag_216:\n        /* \"#utility.yul\":10094:10101   */\n      dup3\n        /* \"#utility.yul\":10091:10092   */\n      dup2\n        /* \"#utility.yul\":10088:10102   */\n      lt\n        /* \"#utility.yul\":10080:10288   */\n      iszero\n      tag_218\n      jumpi\n        /* \"#utility.yul\":10173:10182   */\n      dup5\n        /* \"#utility.yul\":10168:10171   */\n      dup10\n        /* \"#utility.yul\":10164:10183   */\n      add\n        /* \"#utility.yul\":10158:10184   */\n      mload\n        /* \"#utility.yul\":10150:10156   */\n      dup3\n        /* \"#utility.yul\":10143:10185   */\n      sstore\n        /* \"#utility.yul\":10224:10225   */\n      0x01\n        /* \"#utility.yul\":10216:10222   */\n      dup3\n        /* \"#utility.yul\":10212:10226   */\n      add\n        /* \"#utility.yul\":10202:10226   */\n      swap2\n      pop\n        /* \"#utility.yul\":10271:10273   */\n      0x20\n        /* \"#utility.yul\":10260:10269   */\n      dup6\n        /* \"#utility.yul\":10256:10274   */\n      add\n        /* \"#utility.yul\":10243:10274   */\n      swap5\n      pop\n        /* \"#utility.yul\":10117:10121   */\n      0x20\n        /* \"#utility.yul\":10114:10115   */\n      dup2\n        /* \"#utility.yul\":10110:10122   */\n      add\n        /* \"#utility.yul\":10105:10122   */\n      swap1\n      pop\n        /* \"#utility.yul\":10080:10288   */\n      jump(tag_216)\n    tag_218:\n        /* \"#utility.yul\":10316:10322   */\n      dup7\n        /* \"#utility.yul\":10307:10314   */\n      dup4\n        /* \"#utility.yul\":10304:10323   */\n      lt\n        /* \"#utility.yul\":10301:10480   */\n      iszero\n      tag_219\n      jumpi\n        /* \"#utility.yul\":10374:10383   */\n      dup5\n        /* \"#utility.yul\":10369:10372   */\n      dup10\n        /* \"#utility.yul\":10365:10384   */\n      add\n        /* \"#utility.yul\":10359:10385   */\n      mload\n        /* \"#utility.yul\":10417:10465   */\n      tag_220\n        /* \"#utility.yul\":10459:10463   */\n      0x1f\n        /* \"#utility.yul\":10451:10457   */\n      dup10\n        /* \"#utility.yul\":10447:10464   */\n      and\n        /* \"#utility.yul\":10436:10445   */\n      dup3\n        /* \"#utility.yul\":10417:10465   */\n      tag_100\n      jump\t// in\n    tag_220:\n        /* \"#utility.yul\":10409:10415   */\n      dup4\n        /* \"#utility.yul\":10402:10466   */\n      sstore\n        /* \"#utility.yul\":10324:10480   */\n      pop\n        /* \"#utility.yul\":10301:10480   */\n    tag_219:\n        /* \"#utility.yul\":10526:10527   */\n      0x01\n        /* \"#utility.yul\":10522:10523   */\n      0x02\n        /* \"#utility.yul\":10514:10520   */\n      dup9\n        /* \"#utility.yul\":10510:10524   */\n      mul\n        /* \"#utility.yul\":10506:10528   */\n      add\n        /* \"#utility.yul\":10500:10504   */\n      dup9\n        /* \"#utility.yul\":10493:10529   */\n      sstore\n        /* \"#utility.yul\":9928:10539   */\n      pop\n      pop\n      pop\n        /* \"#utility.yul\":9891:10778   */\n    tag_211:\n      pop\n        /* \"#utility.yul\":9481:10784   */\n      pop\n      pop\n      pop\n        /* \"#utility.yul\":9389:10784   */\n      pop\n      pop\n      jump\t// out\n\n    auxdata: 0xa2646970667358221220e2942e8c88909edc4e1f205fbbf94dc5d13cf3ab8cd6a39f2e972e97a7e4dc8d64736f6c634300080f0033\n}\n",
				"bytecode": {
					"linkReferences": {},
					"object": "6080604052620151806003553480156200001857600080fd5b50604051620010c8380380620010c883398181016040528101906200003e91906200023f565b81600a90816200004f9190620004fb565b5080600b8190555082600181905550505050620005e2565b6000604051905090565b600080fd5b600080fd5b6000819050919050565b62000090816200007b565b81146200009c57600080fd5b50565b600081519050620000b08162000085565b92915050565b600080fd5b600080fd5b6000601f19601f8301169050919050565b7f4e487b7100000000000000000000000000000000000000000000000000000000600052604160045260246000fd5b6200010b82620000c0565b810181811067ffffffffffffffff821117156200012d576200012c620000d1565b5b80604052505050565b60006200014262000067565b905062000150828262000100565b919050565b600067ffffffffffffffff821115620001735762000172620000d1565b5b6200017e82620000c0565b9050602081019050919050565b60005b83811015620001ab5780820151818401526020810190506200018e565b83811115620001bb576000848401525b50505050565b6000620001d8620001d28462000155565b62000136565b905082815260208101848484011115620001f757620001f6620000bb565b5b620002048482856200018b565b509392505050565b600082601f830112620002245762000223620000b6565b5b815162000236848260208601620001c1565b91505092915050565b6000806000606084860312156200025b576200025a62000071565b5b60006200026b868287016200009f565b935050602084015167ffffffffffffffff8111156200028f576200028e62000076565b5b6200029d868287016200020c565b9250506040620002b0868287016200009f565b9150509250925092565b600081519050919050565b7f4e487b7100000000000000000000000000000000000000000000000000000000600052602260045260246000fd5b600060028204905060018216806200030d57607f821691505b602082108103620003235762000322620002c5565b5b50919050565b60008190508160005260206000209050919050565b60006020601f8301049050919050565b600082821b905092915050565b6000600883026200038d7fffffffffffffffffffffffffffffffffffffffffffffffffffffffffffffffff826200034e565b6200039986836200034e565b95508019841693508086168417925050509392505050565b6000819050919050565b6000620003dc620003d6620003d0846200007b565b620003b1565b6200007b565b9050919050565b6000819050919050565b620003f883620003bb565b620004106200040782620003e3565b8484546200035b565b825550505050565b600090565b6200042762000418565b62000434818484620003ed565b505050565b5b818110156200045c57620004506000826200041d565b6001810190506200043a565b5050565b601f821115620004ab57620004758162000329565b62000480846200033e565b8101602085101562000490578190505b620004a86200049f856200033e565b83018262000439565b50505b505050565b600082821c905092915050565b6000620004d060001984600802620004b0565b1980831691505092915050565b6000620004eb8383620004bd565b9150826002028217905092915050565b6200050682620002ba565b67ffffffffffffffff811115620005225762000521620000d1565b5b6200052e8254620002f4565b6200053b82828562000460565b600060209050601f8311600181146200057357600084156200055e578287015190505b6200056a8582620004dd565b865550620005da565b601f198416620005838662000329565b60005b82811015620005ad5784890151825560018201915060208501945060208101905062000586565b86831015620005cd5784890151620005c9601f891682620004bd565b8355505b6001600288020188555050505b505050505050565b610ad680620005f26000396000f3fe608060405234801561001057600080fd5b506004361061007d5760003560e01c806394b5dcaa1161005b57806394b5dcaa146100da578063aa8c217c146100f8578063bc30949614610116578063e21f37ce146101345761007d565b8063062a7544146100825780637b9a3f4c1461009e5780638fa11864146100bc575b600080fd5b61009c60048036038101906100979190610533565b610152565b005b6100a6610366565b6040516100b39190610582565b60405180910390f35b6100c461036c565b6040516100d19190610636565b60405180910390f35b6100e26103fa565b6040516100ef9190610582565b60405180910390f35b610100610400565b60405161010d9190610582565b60405180910390f35b61011e610406565b60405161012b9190610582565b60405180910390f35b61013c61040c565b6040516101499190610636565b60405180910390f35b8080600260006101000a81548173ffffffffffffffffffffffffffffffffffffffff021916908373ffffffffffffffffffffffffffffffffffffffff160217905550600073ffffffffffffffffffffffffffffffffffffffff168173ffffffffffffffffffffffffffffffffffffffff1603610203576040517f08c379a00000000000000000000000000000000000000000000000000000000081526004016101fa906106a4565b60405180910390fd5b6008600a8054610212906106f3565b905014610254576040517f08c379a000000000000000000000000000000000000000000000000000000000815260040161024b90610770565b60405180910390fd5b81600260006101000a81548173ffffffffffffffffffffffffffffffffffffffff021916908373ffffffffffffffffffffffffffffffffffffffff1602179055508260008190555060006001541180156102b15750600054600154115b1561031b57600054600160008282546102ca91906107bf565b925050819055506040518060400160405280601281526020017f5472616e7366657220636f6d706c6574656400000000000000000000000000008152506009908161031591906109ce565b50610361565b6040518060400160405280601181526020017f4e6f7420656e6f75676820666f756e64730000000000000000000000000000008152506009908161035f91906109ce565b505b505050565b60015481565b600a8054610379906106f3565b80601f01602080910402602001604051908101604052809291908181526020018280546103a5906106f3565b80156103f25780601f106103c7576101008083540402835291602001916103f2565b820191906000526020600020905b8154815290600101906020018083116103d557829003601f168201915b505050505081565b60045481565b60005481565b60085481565b60098054610419906106f3565b80601f0160208091040260200160405190810160405280929190818152602001828054610445906106f3565b80156104925780601f1061046757610100808354040283529160200191610492565b820191906000526020600020905b81548152906001019060200180831161047557829003601f168201915b505050505081565b600080fd5b6000819050919050565b6104b28161049f565b81146104bd57600080fd5b50565b6000813590506104cf816104a9565b92915050565b600073ffffffffffffffffffffffffffffffffffffffff82169050919050565b6000610500826104d5565b9050919050565b610510816104f5565b811461051b57600080fd5b50565b60008135905061052d81610507565b92915050565b6000806040838503121561054a5761054961049a565b5b6000610558858286016104c0565b92505060206105698582860161051e565b9150509250929050565b61057c8161049f565b82525050565b60006020820190506105976000830184610573565b92915050565b600081519050919050565b600082825260208201905092915050565b60005b838110156105d75780820151818401526020810190506105bc565b838111156105e6576000848401525b50505050565b6000601f19601f8301169050919050565b60006106088261059d565b61061281856105a8565b93506106228185602086016105b9565b61062b816105ec565b840191505092915050565b6000602082019050818103600083015261065081846105fd565b905092915050565b7f2054686973206164647265737320646f65736e27742065786973747300000000600082015250565b600061068e601c836105a8565b915061069982610658565b602082019050919050565b600060208201905081810360008301526106bd81610681565b9050919050565b7f4e487b7100000000000000000000000000000000000000000000000000000000600052602260045260246000fd5b6000600282049050600182168061070b57607f821691505b60208210810361071e5761071d6106c4565b5b50919050565b7f4e6f2076616c6964206e756d6265720000000000000000000000000000000000600082015250565b600061075a600f836105a8565b915061076582610724565b602082019050919050565b600060208201905081810360008301526107898161074d565b9050919050565b7f4e487b7100000000000000000000000000000000000000000000000000000000600052601160045260246000fd5b60006107ca8261049f565b91506107d58361049f565b9250828210156107e8576107e7610790565b5b828203905092915050565b7f4e487b7100000000000000000000000000000000000000000000000000000000600052604160045260246000fd5b60008190508160005260206000209050919050565b60006020601f8301049050919050565b600082821b905092915050565b6000600883026108847fffffffffffffffffffffffffffffffffffffffffffffffffffffffffffffffff82610847565b61088e8683610847565b95508019841693508086168417925050509392505050565b6000819050919050565b60006108cb6108c66108c18461049f565b6108a6565b61049f565b9050919050565b6000819050919050565b6108e5836108b0565b6108f96108f1826108d2565b848454610854565b825550505050565b600090565b61090e610901565b6109198184846108dc565b505050565b5b8181101561093d57610932600082610906565b60018101905061091f565b5050565b601f8211156109825761095381610822565b61095c84610837565b8101602085101561096b578190505b61097f61097785610837565b83018261091e565b50505b505050565b600082821c905092915050565b60006109a560001984600802610987565b1980831691505092915050565b60006109be8383610994565b9150826002028217905092915050565b6109d78261059d565b67ffffffffffffffff8111156109f0576109ef6107f3565b5b6109fa82546106f3565b610a05828285610941565b600060209050601f831160018114610a385760008415610a26578287015190505b610a3085826109b2565b865550610a98565b601f198416610a4686610822565b60005b82811015610a6e57848901518255600182019150602085019450602081019050610a49565b86831015610a8b5784890151610a87601f891682610994565b8355505b6001600288020188555050505b50505050505056fea2646970667358221220e2942e8c88909edc4e1f205fbbf94dc5d13cf3ab8cd6a39f2e972e97a7e4dc8d64736f6c634300080f0033",
					"opcodes": "PUSH1 0x80 PUSH1 0x40 MSTORE PUSH3 0x15180 PUSH1 0x3 SSTORE CALLVALUE DUP1 ISZERO PUSH3 0x18 JUMPI PUSH1 0x0 DUP1 REVERT JUMPDEST POP PUSH1 0x40 MLOAD PUSH3 0x10C8 CODESIZE SUB DUP1 PUSH3 0x10C8 DUP4 CODECOPY DUP2 DUP2 ADD PUSH1 0x40 MSTORE DUP2 ADD SWAP1 PUSH3 0x3E SWAP2 SWAP1 PUSH3 0x23F JUMP JUMPDEST DUP2 PUSH1 0xA SWAP1 DUP2 PUSH3 0x4F SWAP2 SWAP1 PUSH3 0x4FB JUMP JUMPDEST POP DUP1 PUSH1 0xB DUP2 SWAP1 SSTORE POP DUP3 PUSH1 0x1 DUP2 SWAP1 SSTORE POP POP POP POP PUSH3 0x5E2 JUMP JUMPDEST PUSH1 0x0 PUSH1 0x40 MLOAD SWAP1 POP SWAP1 JUMP JUMPDEST PUSH1 0x0 DUP1 REVERT JUMPDEST PUSH1 0x0 DUP1 REVERT JUMPDEST PUSH1 0x0 DUP2 SWAP1 POP SWAP2 SWAP1 POP JUMP JUMPDEST PUSH3 0x90 DUP2 PUSH3 0x7B JUMP JUMPDEST DUP2 EQ PUSH3 0x9C JUMPI PUSH1 0x0 DUP1 REVERT JUMPDEST POP JUMP JUMPDEST PUSH1 0x0 DUP2 MLOAD SWAP1 POP PUSH3 0xB0 DUP2 PUSH3 0x85 JUMP JUMPDEST SWAP3 SWAP2 POP POP JUMP JUMPDEST PUSH1 0x0 DUP1 REVERT JUMPDEST PUSH1 0x0 DUP1 REVERT JUMPDEST PUSH1 0x0 PUSH1 0x1F NOT PUSH1 0x1F DUP4 ADD AND SWAP1 POP SWAP2 SWAP1 POP JUMP JUMPDEST PUSH32 0x4E487B7100000000000000000000000000000000000000000000000000000000 PUSH1 0x0 MSTORE PUSH1 0x41 PUSH1 0x4 MSTORE PUSH1 0x24 PUSH1 0x0 REVERT JUMPDEST PUSH3 0x10B DUP3 PUSH3 0xC0 JUMP JUMPDEST DUP2 ADD DUP2 DUP2 LT PUSH8 0xFFFFFFFFFFFFFFFF DUP3 GT OR ISZERO PUSH3 0x12D JUMPI PUSH3 0x12C PUSH3 0xD1 JUMP JUMPDEST JUMPDEST DUP1 PUSH1 0x40 MSTORE POP POP POP JUMP JUMPDEST PUSH1 0x0 PUSH3 0x142 PUSH3 0x67 JUMP JUMPDEST SWAP1 POP PUSH3 0x150 DUP3 DUP3 PUSH3 0x100 JUMP JUMPDEST SWAP2 SWAP1 POP JUMP JUMPDEST PUSH1 0x0 PUSH8 0xFFFFFFFFFFFFFFFF DUP3 GT ISZERO PUSH3 0x173 JUMPI PUSH3 0x172 PUSH3 0xD1 JUMP JUMPDEST JUMPDEST PUSH3 0x17E DUP3 PUSH3 0xC0 JUMP JUMPDEST SWAP1 POP PUSH1 0x20 DUP2 ADD SWAP1 POP SWAP2 SWAP1 POP JUMP JUMPDEST PUSH1 0x0 JUMPDEST DUP4 DUP2 LT ISZERO PUSH3 0x1AB JUMPI DUP1 DUP3 ADD MLOAD DUP2 DUP5 ADD MSTORE PUSH1 0x20 DUP2 ADD SWAP1 POP PUSH3 0x18E JUMP JUMPDEST DUP4 DUP2 GT ISZERO PUSH3 0x1BB JUMPI PUSH1 0x0 DUP5 DUP5 ADD MSTORE JUMPDEST POP POP POP POP JUMP JUMPDEST PUSH1 0x0 PUSH3 0x1D8 PUSH3 0x1D2 DUP5 PUSH3 0x155 JUMP JUMPDEST PUSH3 0x136 JUMP JUMPDEST SWAP1 POP DUP3 DUP2 MSTORE PUSH1 0x20 DUP2 ADD DUP5 DUP5 DUP5 ADD GT ISZERO PUSH3 0x1F7 JUMPI PUSH3 0x1F6 PUSH3 0xBB JUMP JUMPDEST JUMPDEST PUSH3 0x204 DUP5 DUP3 DUP6 PUSH3 0x18B JUMP JUMPDEST POP SWAP4 SWAP3 POP POP POP JUMP JUMPDEST PUSH1 0x0 DUP3 PUSH1 0x1F DUP4 ADD SLT PUSH3 0x224 JUMPI PUSH3 0x223 PUSH3 0xB6 JUMP JUMPDEST JUMPDEST DUP2 MLOAD PUSH3 0x236 DUP5 DUP3 PUSH1 0x20 DUP7 ADD PUSH3 0x1C1 JUMP JUMPDEST SWAP2 POP POP SWAP3 SWAP2 POP POP JUMP JUMPDEST PUSH1 0x0 DUP1 PUSH1 0x0 PUSH1 0x60 DUP5 DUP7 SUB SLT ISZERO PUSH3 0x25B JUMPI PUSH3 0x25A PUSH3 0x71 JUMP JUMPDEST JUMPDEST PUSH1 0x0 PUSH3 0x26B DUP7 DUP3 DUP8 ADD PUSH3 0x9F JUMP JUMPDEST SWAP4 POP POP PUSH1 0x20 DUP5 ADD MLOAD PUSH8 0xFFFFFFFFFFFFFFFF DUP2 GT ISZERO PUSH3 0x28F JUMPI PUSH3 0x28E PUSH3 0x76 JUMP JUMPDEST JUMPDEST PUSH3 0x29D DUP7 DUP3 DUP8 ADD PUSH3 0x20C JUMP JUMPDEST SWAP3 POP POP PUSH1 0x40 PUSH3 0x2B0 DUP7 DUP3 DUP8 ADD PUSH3 0x9F JUMP JUMPDEST SWAP2 POP POP SWAP3 POP SWAP3 POP SWAP3 JUMP JUMPDEST PUSH1 0x0 DUP2 MLOAD SWAP1 POP SWAP2 SWAP1 POP JUMP JUMPDEST PUSH32 0x4E487B7100000000000000000000000000000000000000000000000000000000 PUSH1 0x0 MSTORE PUSH1 0x22 PUSH1 0x4 MSTORE PUSH1 0x24 PUSH1 0x0 REVERT JUMPDEST PUSH1 0x0 PUSH1 0x2 DUP3 DIV SWAP1 POP PUSH1 0x1 DUP3 AND DUP1 PUSH3 0x30D JUMPI PUSH1 0x7F DUP3 AND SWAP2 POP JUMPDEST PUSH1 0x20 DUP3 LT DUP2 SUB PUSH3 0x323 JUMPI PUSH3 0x322 PUSH3 0x2C5 JUMP JUMPDEST JUMPDEST POP SWAP2 SWAP1 POP JUMP JUMPDEST PUSH1 0x0 DUP2 SWAP1 POP DUP2 PUSH1 0x0 MSTORE PUSH1 0x20 PUSH1 0x0 KECCAK256 SWAP1 POP SWAP2 SWAP1 POP JUMP JUMPDEST PUSH1 0x0 PUSH1 0x20 PUSH1 0x1F DUP4 ADD DIV SWAP1 POP SWAP2 SWAP1 POP JUMP JUMPDEST PUSH1 0x0 DUP3 DUP3 SHL SWAP1 POP SWAP3 SWAP2 POP POP JUMP JUMPDEST PUSH1 0x0 PUSH1 0x8 DUP4 MUL PUSH3 0x38D PUSH32 0xFFFFFFFFFFFFFFFFFFFFFFFFFFFFFFFFFFFFFFFFFFFFFFFFFFFFFFFFFFFFFFFF DUP3 PUSH3 0x34E JUMP JUMPDEST PUSH3 0x399 DUP7 DUP4 PUSH3 0x34E JUMP JUMPDEST SWAP6 POP DUP1 NOT DUP5 AND SWAP4 POP DUP1 DUP7 AND DUP5 OR SWAP3 POP POP POP SWAP4 SWAP3 POP POP POP JUMP JUMPDEST PUSH1 0x0 DUP2 SWAP1 POP SWAP2 SWAP1 POP JUMP JUMPDEST PUSH1 0x0 PUSH3 0x3DC PUSH3 0x3D6 PUSH3 0x3D0 DUP5 PUSH3 0x7B JUMP JUMPDEST PUSH3 0x3B1 JUMP JUMPDEST PUSH3 0x7B JUMP JUMPDEST SWAP1 POP SWAP2 SWAP1 POP JUMP JUMPDEST PUSH1 0x0 DUP2 SWAP1 POP SWAP2 SWAP1 POP JUMP JUMPDEST PUSH3 0x3F8 DUP4 PUSH3 0x3BB JUMP JUMPDEST PUSH3 0x410 PUSH3 0x407 DUP3 PUSH3 0x3E3 JUMP JUMPDEST DUP5 DUP5 SLOAD PUSH3 0x35B JUMP JUMPDEST DUP3 SSTORE POP POP POP POP JUMP JUMPDEST PUSH1 0x0 SWAP1 JUMP JUMPDEST PUSH3 0x427 PUSH3 0x418 JUMP JUMPDEST PUSH3 0x434 DUP2 DUP5 DUP5 PUSH3 0x3ED JUMP JUMPDEST POP POP POP JUMP JUMPDEST JUMPDEST DUP2 DUP2 LT ISZERO PUSH3 0x45C JUMPI PUSH3 0x450 PUSH1 0x0 DUP3 PUSH3 0x41D JUMP JUMPDEST PUSH1 0x1 DUP2 ADD SWAP1 POP PUSH3 0x43A JUMP JUMPDEST POP POP JUMP JUMPDEST PUSH1 0x1F DUP3 GT ISZERO PUSH3 0x4AB JUMPI PUSH3 0x475 DUP2 PUSH3 0x329 JUMP JUMPDEST PUSH3 0x480 DUP5 PUSH3 0x33E JUMP JUMPDEST DUP2 ADD PUSH1 0x20 DUP6 LT ISZERO PUSH3 0x490 JUMPI DUP2 SWAP1 POP JUMPDEST PUSH3 0x4A8 PUSH3 0x49F DUP6 PUSH3 0x33E JUMP JUMPDEST DUP4 ADD DUP3 PUSH3 0x439 JUMP JUMPDEST POP POP JUMPDEST POP POP POP JUMP JUMPDEST PUSH1 0x0 DUP3 DUP3 SHR SWAP1 POP SWAP3 SWAP2 POP POP JUMP JUMPDEST PUSH1 0x0 PUSH3 0x4D0 PUSH1 0x0 NOT DUP5 PUSH1 0x8 MUL PUSH3 0x4B0 JUMP JUMPDEST NOT DUP1 DUP4 AND SWAP2 POP POP SWAP3 SWAP2 POP POP JUMP JUMPDEST PUSH1 0x0 PUSH3 0x4EB DUP4 DUP4 PUSH3 0x4BD JUMP JUMPDEST SWAP2 POP DUP3 PUSH1 0x2 MUL DUP3 OR SWAP1 POP SWAP3 SWAP2 POP POP JUMP JUMPDEST PUSH3 0x506 DUP3 PUSH3 0x2BA JUMP JUMPDEST PUSH8 0xFFFFFFFFFFFFFFFF DUP2 GT ISZERO PUSH3 0x522 JUMPI PUSH3 0x521 PUSH3 0xD1 JUMP JUMPDEST JUMPDEST PUSH3 0x52E DUP3 SLOAD PUSH3 0x2F4 JUMP JUMPDEST PUSH3 0x53B DUP3 DUP3 DUP6 PUSH3 0x460 JUMP JUMPDEST PUSH1 0x0 PUSH1 0x20 SWAP1 POP PUSH1 0x1F DUP4 GT PUSH1 0x1 DUP2 EQ PUSH3 0x573 JUMPI PUSH1 0x0 DUP5 ISZERO PUSH3 0x55E JUMPI DUP3 DUP8 ADD MLOAD SWAP1 POP JUMPDEST PUSH3 0x56A DUP6 DUP3 PUSH3 0x4DD JUMP JUMPDEST DUP7 SSTORE POP PUSH3 0x5DA JUMP JUMPDEST PUSH1 0x1F NOT DUP5 AND PUSH3 0x583 DUP7 PUSH3 0x329 JUMP JUMPDEST PUSH1 0x0 JUMPDEST DUP3 DUP2 LT ISZERO PUSH3 0x5AD JUMPI DUP5 DUP10 ADD MLOAD DUP3 SSTORE PUSH1 0x1 DUP3 ADD SWAP2 POP PUSH1 0x20 DUP6 ADD SWAP5 POP PUSH1 0x20 DUP2 ADD SWAP1 POP PUSH3 0x586 JUMP JUMPDEST DUP7 DUP4 LT ISZERO PUSH3 0x5CD JUMPI DUP5 DUP10 ADD MLOAD PUSH3 0x5C9 PUSH1 0x1F DUP10 AND DUP3 PUSH3 0x4BD JUMP JUMPDEST DUP4 SSTORE POP JUMPDEST PUSH1 0x1 PUSH1 0x2 DUP9 MUL ADD DUP9 SSTORE POP POP POP JUMPDEST POP POP POP POP POP POP JUMP JUMPDEST PUSH2 0xAD6 DUP1 PUSH3 0x5F2 PUSH1 0x0 CODECOPY PUSH1 0x0 RETURN INVALID PUSH1 0x80 PUSH1 0x40 MSTORE CALLVALUE DUP1 ISZERO PUSH2 0x10 JUMPI PUSH1 0x0 DUP1 REVERT JUMPDEST POP PUSH1 0x4 CALLDATASIZE LT PUSH2 0x7D JUMPI PUSH1 0x0 CALLDATALOAD PUSH1 0xE0 SHR DUP1 PUSH4 0x94B5DCAA GT PUSH2 0x5B JUMPI DUP1 PUSH4 0x94B5DCAA EQ PUSH2 0xDA JUMPI DUP1 PUSH4 0xAA8C217C EQ PUSH2 0xF8 JUMPI DUP1 PUSH4 0xBC309496 EQ PUSH2 0x116 JUMPI DUP1 PUSH4 0xE21F37CE EQ PUSH2 0x134 JUMPI PUSH2 0x7D JUMP JUMPDEST DUP1 PUSH4 0x62A7544 EQ PUSH2 0x82 JUMPI DUP1 PUSH4 0x7B9A3F4C EQ PUSH2 0x9E JUMPI DUP1 PUSH4 0x8FA11864 EQ PUSH2 0xBC JUMPI JUMPDEST PUSH1 0x0 DUP1 REVERT JUMPDEST PUSH2 0x9C PUSH1 0x4 DUP1 CALLDATASIZE SUB DUP2 ADD SWAP1 PUSH2 0x97 SWAP2 SWAP1 PUSH2 0x533 JUMP JUMPDEST PUSH2 0x152 JUMP JUMPDEST STOP JUMPDEST PUSH2 0xA6 PUSH2 0x366 JUMP JUMPDEST PUSH1 0x40 MLOAD PUSH2 0xB3 SWAP2 SWAP1 PUSH2 0x582 JUMP JUMPDEST PUSH1 0x40 MLOAD DUP1 SWAP2 SUB SWAP1 RETURN JUMPDEST PUSH2 0xC4 PUSH2 0x36C JUMP JUMPDEST PUSH1 0x40 MLOAD PUSH2 0xD1 SWAP2 SWAP1 PUSH2 0x636 JUMP JUMPDEST PUSH1 0x40 MLOAD DUP1 SWAP2 SUB SWAP1 RETURN JUMPDEST PUSH2 0xE2 PUSH2 0x3FA JUMP JUMPDEST PUSH1 0x40 MLOAD PUSH2 0xEF SWAP2 SWAP1 PUSH2 0x582 JUMP JUMPDEST PUSH1 0x40 MLOAD DUP1 SWAP2 SUB SWAP1 RETURN JUMPDEST PUSH2 0x100 PUSH2 0x400 JUMP JUMPDEST PUSH1 0x40 MLOAD PUSH2 0x10D SWAP2 SWAP1 PUSH2 0x582 JUMP JUMPDEST PUSH1 0x40 MLOAD DUP1 SWAP2 SUB SWAP1 RETURN JUMPDEST PUSH2 0x11E PUSH2 0x406 JUMP JUMPDEST PUSH1 0x40 MLOAD PUSH2 0x12B SWAP2 SWAP1 PUSH2 0x582 JUMP JUMPDEST PUSH1 0x40 MLOAD DUP1 SWAP2 SUB SWAP1 RETURN JUMPDEST PUSH2 0x13C PUSH2 0x40C JUMP JUMPDEST PUSH1 0x40 MLOAD PUSH2 0x149 SWAP2 SWAP1 PUSH2 0x636 JUMP JUMPDEST PUSH1 0x40 MLOAD DUP1 SWAP2 SUB SWAP1 RETURN JUMPDEST DUP1 DUP1 PUSH1 0x2 PUSH1 0x0 PUSH2 0x100 EXP DUP2 SLOAD DUP2 PUSH20 0xFFFFFFFFFFFFFFFFFFFFFFFFFFFFFFFFFFFFFFFF MUL NOT AND SWAP1 DUP4 PUSH20 0xFFFFFFFFFFFFFFFFFFFFFFFFFFFFFFFFFFFFFFFF AND MUL OR SWAP1 SSTORE POP PUSH1 0x0 PUSH20 0xFFFFFFFFFFFFFFFFFFFFFFFFFFFFFFFFFFFFFFFF AND DUP2 PUSH20 0xFFFFFFFFFFFFFFFFFFFFFFFFFFFFFFFFFFFFFFFF AND SUB PUSH2 0x203 JUMPI PUSH1 0x40 MLOAD PUSH32 0x8C379A000000000000000000000000000000000000000000000000000000000 DUP2 MSTORE PUSH1 0x4 ADD PUSH2 0x1FA SWAP1 PUSH2 0x6A4 JUMP JUMPDEST PUSH1 0x40 MLOAD DUP1 SWAP2 SUB SWAP1 REVERT JUMPDEST PUSH1 0x8 PUSH1 0xA DUP1 SLOAD PUSH2 0x212 SWAP1 PUSH2 0x6F3 JUMP JUMPDEST SWAP1 POP EQ PUSH2 0x254 JUMPI PUSH1 0x40 MLOAD PUSH32 0x8C379A000000000000000000000000000000000000000000000000000000000 DUP2 MSTORE PUSH1 0x4 ADD PUSH2 0x24B SWAP1 PUSH2 0x770 JUMP JUMPDEST PUSH1 0x40 MLOAD DUP1 SWAP2 SUB SWAP1 REVERT JUMPDEST DUP2 PUSH1 0x2 PUSH1 0x0 PUSH2 0x100 EXP DUP2 SLOAD DUP2 PUSH20 0xFFFFFFFFFFFFFFFFFFFFFFFFFFFFFFFFFFFFFFFF MUL NOT AND SWAP1 DUP4 PUSH20 0xFFFFFFFFFFFFFFFFFFFFFFFFFFFFFFFFFFFFFFFF AND MUL OR SWAP1 SSTORE POP DUP3 PUSH1 0x0 DUP2 SWAP1 SSTORE POP PUSH1 0x0 PUSH1 0x1 SLOAD GT DUP1 ISZERO PUSH2 0x2B1 JUMPI POP PUSH1 0x0 SLOAD PUSH1 0x1 SLOAD GT JUMPDEST ISZERO PUSH2 0x31B JUMPI PUSH1 0x0 SLOAD PUSH1 0x1 PUSH1 0x0 DUP3 DUP3 SLOAD PUSH2 0x2CA SWAP2 SWAP1 PUSH2 0x7BF JUMP JUMPDEST SWAP3 POP POP DUP2 SWAP1 SSTORE POP PUSH1 0x40 MLOAD DUP1 PUSH1 0x40 ADD PUSH1 0x40 MSTORE DUP1 PUSH1 0x12 DUP2 MSTORE PUSH1 0x20 ADD PUSH32 0x5472616E7366657220636F6D706C657465640000000000000000000000000000 DUP2 MSTORE POP PUSH1 0x9 SWAP1 DUP2 PUSH2 0x315 SWAP2 SWAP1 PUSH2 0x9CE JUMP JUMPDEST POP PUSH2 0x361 JUMP JUMPDEST PUSH1 0x40 MLOAD DUP1 PUSH1 0x40 ADD PUSH1 0x40 MSTORE DUP1 PUSH1 0x11 DUP2 MSTORE PUSH1 0x20 ADD PUSH32 0x4E6F7420656E6F75676820666F756E6473000000000000000000000000000000 DUP2 MSTORE POP PUSH1 0x9 SWAP1 DUP2 PUSH2 0x35F SWAP2 SWAP1 PUSH2 0x9CE JUMP JUMPDEST POP JUMPDEST POP POP POP JUMP JUMPDEST PUSH1 0x1 SLOAD DUP2 JUMP JUMPDEST PUSH1 0xA DUP1 SLOAD PUSH2 0x379 SWAP1 PUSH2 0x6F3 JUMP JUMPDEST DUP1 PUSH1 0x1F ADD PUSH1 0x20 DUP1 SWAP2 DIV MUL PUSH1 0x20 ADD PUSH1 0x40 MLOAD SWAP1 DUP2 ADD PUSH1 0x40 MSTORE DUP1 SWAP3 SWAP2 SWAP1 DUP2 DUP2 MSTORE PUSH1 0x20 ADD DUP3 DUP1 SLOAD PUSH2 0x3A5 SWAP1 PUSH2 0x6F3 JUMP JUMPDEST DUP1 ISZERO PUSH2 0x3F2 JUMPI DUP1 PUSH1 0x1F LT PUSH2 0x3C7 JUMPI PUSH2 0x100 DUP1 DUP4 SLOAD DIV MUL DUP4 MSTORE SWAP2 PUSH1 0x20 ADD SWAP2 PUSH2 0x3F2 JUMP JUMPDEST DUP3 ADD SWAP2 SWAP1 PUSH1 0x0 MSTORE PUSH1 0x20 PUSH1 0x0 KECCAK256 SWAP1 JUMPDEST DUP2 SLOAD DUP2 MSTORE SWAP1 PUSH1 0x1 ADD SWAP1 PUSH1 0x20 ADD DUP1 DUP4 GT PUSH2 0x3D5 JUMPI DUP3 SWAP1 SUB PUSH1 0x1F AND DUP3 ADD SWAP2 JUMPDEST POP POP POP POP POP DUP2 JUMP JUMPDEST PUSH1 0x4 SLOAD DUP2 JUMP JUMPDEST PUSH1 0x0 SLOAD DUP2 JUMP JUMPDEST PUSH1 0x8 SLOAD DUP2 JUMP JUMPDEST PUSH1 0x9 DUP1 SLOAD PUSH2 0x419 SWAP1 PUSH2 0x6F3 JUMP JUMPDEST DUP1 PUSH1 0x1F ADD PUSH1 0x20 DUP1 SWAP2 DIV MUL PUSH1 0x20 ADD PUSH1 0x40 MLOAD SWAP1 DUP2 ADD PUSH1 0x40 MSTORE DUP1 SWAP3 SWAP2 SWAP1 DUP2 DUP2 MSTORE PUSH1 0x20 ADD DUP3 DUP1 SLOAD PUSH2 0x445 SWAP1 PUSH2 0x6F3 JUMP JUMPDEST DUP1 ISZERO PUSH2 0x492 JUMPI DUP1 PUSH1 0x1F LT PUSH2 0x467 JUMPI PUSH2 0x100 DUP1 DUP4 SLOAD DIV MUL DUP4 MSTORE SWAP2 PUSH1 0x20 ADD SWAP2 PUSH2 0x492 JUMP JUMPDEST DUP3 ADD SWAP2 SWAP1 PUSH1 0x0 MSTORE PUSH1 0x20 PUSH1 0x0 KECCAK256 SWAP1 JUMPDEST DUP2 SLOAD DUP2 MSTORE SWAP1 PUSH1 0x1 ADD SWAP1 PUSH1 0x20 ADD DUP1 DUP4 GT PUSH2 0x475 JUMPI DUP3 SWAP1 SUB PUSH1 0x1F AND DUP3 ADD SWAP2 JUMPDEST POP POP POP POP POP DUP2 JUMP JUMPDEST PUSH1 0x0 DUP1 REVERT JUMPDEST PUSH1 0x0 DUP2 SWAP1 POP SWAP2 SWAP1 POP JUMP JUMPDEST PUSH2 0x4B2 DUP2 PUSH2 0x49F JUMP JUMPDEST DUP2 EQ PUSH2 0x4BD JUMPI PUSH1 0x0 DUP1 REVERT JUMPDEST POP JUMP JUMPDEST PUSH1 0x0 DUP2 CALLDATALOAD SWAP1 POP PUSH2 0x4CF DUP2 PUSH2 0x4A9 JUMP JUMPDEST SWAP3 SWAP2 POP POP JUMP JUMPDEST PUSH1 0x0 PUSH20 0xFFFFFFFFFFFFFFFFFFFFFFFFFFFFFFFFFFFFFFFF DUP3 AND SWAP1 POP SWAP2 SWAP1 POP JUMP JUMPDEST PUSH1 0x0 PUSH2 0x500 DUP3 PUSH2 0x4D5 JUMP JUMPDEST SWAP1 POP SWAP2 SWAP1 POP JUMP JUMPDEST PUSH2 0x510 DUP2 PUSH2 0x4F5 JUMP JUMPDEST DUP2 EQ PUSH2 0x51B JUMPI PUSH1 0x0 DUP1 REVERT JUMPDEST POP JUMP JUMPDEST PUSH1 0x0 DUP2 CALLDATALOAD SWAP1 POP PUSH2 0x52D DUP2 PUSH2 0x507 JUMP JUMPDEST SWAP3 SWAP2 POP POP JUMP JUMPDEST PUSH1 0x0 DUP1 PUSH1 0x40 DUP4 DUP6 SUB SLT ISZERO PUSH2 0x54A JUMPI PUSH2 0x549 PUSH2 0x49A JUMP JUMPDEST JUMPDEST PUSH1 0x0 PUSH2 0x558 DUP6 DUP3 DUP7 ADD PUSH2 0x4C0 JUMP JUMPDEST SWAP3 POP POP PUSH1 0x20 PUSH2 0x569 DUP6 DUP3 DUP7 ADD PUSH2 0x51E JUMP JUMPDEST SWAP2 POP POP SWAP3 POP SWAP3 SWAP1 POP JUMP JUMPDEST PUSH2 0x57C DUP2 PUSH2 0x49F JUMP JUMPDEST DUP3 MSTORE POP POP JUMP JUMPDEST PUSH1 0x0 PUSH1 0x20 DUP3 ADD SWAP1 POP PUSH2 0x597 PUSH1 0x0 DUP4 ADD DUP5 PUSH2 0x573 JUMP JUMPDEST SWAP3 SWAP2 POP POP JUMP JUMPDEST PUSH1 0x0 DUP2 MLOAD SWAP1 POP SWAP2 SWAP1 POP JUMP JUMPDEST PUSH1 0x0 DUP3 DUP3 MSTORE PUSH1 0x20 DUP3 ADD SWAP1 POP SWAP3 SWAP2 POP POP JUMP JUMPDEST PUSH1 0x0 JUMPDEST DUP4 DUP2 LT ISZERO PUSH2 0x5D7 JUMPI DUP1 DUP3 ADD MLOAD DUP2 DUP5 ADD MSTORE PUSH1 0x20 DUP2 ADD SWAP1 POP PUSH2 0x5BC JUMP JUMPDEST DUP4 DUP2 GT ISZERO PUSH2 0x5E6 JUMPI PUSH1 0x0 DUP5 DUP5 ADD MSTORE JUMPDEST POP POP POP POP JUMP JUMPDEST PUSH1 0x0 PUSH1 0x1F NOT PUSH1 0x1F DUP4 ADD AND SWAP1 POP SWAP2 SWAP1 POP JUMP JUMPDEST PUSH1 0x0 PUSH2 0x608 DUP3 PUSH2 0x59D JUMP JUMPDEST PUSH2 0x612 DUP2 DUP6 PUSH2 0x5A8 JUMP JUMPDEST SWAP4 POP PUSH2 0x622 DUP2 DUP6 PUSH1 0x20 DUP7 ADD PUSH2 0x5B9 JUMP JUMPDEST PUSH2 0x62B DUP2 PUSH2 0x5EC JUMP JUMPDEST DUP5 ADD SWAP2 POP POP SWAP3 SWAP2 POP POP JUMP JUMPDEST PUSH1 0x0 PUSH1 0x20 DUP3 ADD SWAP1 POP DUP2 DUP2 SUB PUSH1 0x0 DUP4 ADD MSTORE PUSH2 0x650 DUP2 DUP5 PUSH2 0x5FD JUMP JUMPDEST SWAP1 POP SWAP3 SWAP2 POP POP JUMP JUMPDEST PUSH32 0x2054686973206164647265737320646F65736E27742065786973747300000000 PUSH1 0x0 DUP3 ADD MSTORE POP JUMP JUMPDEST PUSH1 0x0 PUSH2 0x68E PUSH1 0x1C DUP4 PUSH2 0x5A8 JUMP JUMPDEST SWAP2 POP PUSH2 0x699 DUP3 PUSH2 0x658 JUMP JUMPDEST PUSH1 0x20 DUP3 ADD SWAP1 POP SWAP2 SWAP1 POP JUMP JUMPDEST PUSH1 0x0 PUSH1 0x20 DUP3 ADD SWAP1 POP DUP2 DUP2 SUB PUSH1 0x0 DUP4 ADD MSTORE PUSH2 0x6BD DUP2 PUSH2 0x681 JUMP JUMPDEST SWAP1 POP SWAP2 SWAP1 POP JUMP JUMPDEST PUSH32 0x4E487B7100000000000000000000000000000000000000000000000000000000 PUSH1 0x0 MSTORE PUSH1 0x22 PUSH1 0x4 MSTORE PUSH1 0x24 PUSH1 0x0 REVERT JUMPDEST PUSH1 0x0 PUSH1 0x2 DUP3 DIV SWAP1 POP PUSH1 0x1 DUP3 AND DUP1 PUSH2 0x70B JUMPI PUSH1 0x7F DUP3 AND SWAP2 POP JUMPDEST PUSH1 0x20 DUP3 LT DUP2 SUB PUSH2 0x71E JUMPI PUSH2 0x71D PUSH2 0x6C4 JUMP JUMPDEST JUMPDEST POP SWAP2 SWAP1 POP JUMP JUMPDEST PUSH32 0x4E6F2076616C6964206E756D6265720000000000000000000000000000000000 PUSH1 0x0 DUP3 ADD MSTORE POP JUMP JUMPDEST PUSH1 0x0 PUSH2 0x75A PUSH1 0xF DUP4 PUSH2 0x5A8 JUMP JUMPDEST SWAP2 POP PUSH2 0x765 DUP3 PUSH2 0x724 JUMP JUMPDEST PUSH1 0x20 DUP3 ADD SWAP1 POP SWAP2 SWAP1 POP JUMP JUMPDEST PUSH1 0x0 PUSH1 0x20 DUP3 ADD SWAP1 POP DUP2 DUP2 SUB PUSH1 0x0 DUP4 ADD MSTORE PUSH2 0x789 DUP2 PUSH2 0x74D JUMP JUMPDEST SWAP1 POP SWAP2 SWAP1 POP JUMP JUMPDEST PUSH32 0x4E487B7100000000000000000000000000000000000000000000000000000000 PUSH1 0x0 MSTORE PUSH1 0x11 PUSH1 0x4 MSTORE PUSH1 0x24 PUSH1 0x0 REVERT JUMPDEST PUSH1 0x0 PUSH2 0x7CA DUP3 PUSH2 0x49F JUMP JUMPDEST SWAP2 POP PUSH2 0x7D5 DUP4 PUSH2 0x49F JUMP JUMPDEST SWAP3 POP DUP3 DUP3 LT ISZERO PUSH2 0x7E8 JUMPI PUSH2 0x7E7 PUSH2 0x790 JUMP JUMPDEST JUMPDEST DUP3 DUP3 SUB SWAP1 POP SWAP3 SWAP2 POP POP JUMP JUMPDEST PUSH32 0x4E487B7100000000000000000000000000000000000000000000000000000000 PUSH1 0x0 MSTORE PUSH1 0x41 PUSH1 0x4 MSTORE PUSH1 0x24 PUSH1 0x0 REVERT JUMPDEST PUSH1 0x0 DUP2 SWAP1 POP DUP2 PUSH1 0x0 MSTORE PUSH1 0x20 PUSH1 0x0 KECCAK256 SWAP1 POP SWAP2 SWAP1 POP JUMP JUMPDEST PUSH1 0x0 PUSH1 0x20 PUSH1 0x1F DUP4 ADD DIV SWAP1 POP SWAP2 SWAP1 POP JUMP JUMPDEST PUSH1 0x0 DUP3 DUP3 SHL SWAP1 POP SWAP3 SWAP2 POP POP JUMP JUMPDEST PUSH1 0x0 PUSH1 0x8 DUP4 MUL PUSH2 0x884 PUSH32 0xFFFFFFFFFFFFFFFFFFFFFFFFFFFFFFFFFFFFFFFFFFFFFFFFFFFFFFFFFFFFFFFF DUP3 PUSH2 0x847 JUMP JUMPDEST PUSH2 0x88E DUP7 DUP4 PUSH2 0x847 JUMP JUMPDEST SWAP6 POP DUP1 NOT DUP5 AND SWAP4 POP DUP1 DUP7 AND DUP5 OR SWAP3 POP POP POP SWAP4 SWAP3 POP POP POP JUMP JUMPDEST PUSH1 0x0 DUP2 SWAP1 POP SWAP2 SWAP1 POP JUMP JUMPDEST PUSH1 0x0 PUSH2 0x8CB PUSH2 0x8C6 PUSH2 0x8C1 DUP5 PUSH2 0x49F JUMP JUMPDEST PUSH2 0x8A6 JUMP JUMPDEST PUSH2 0x49F JUMP JUMPDEST SWAP1 POP SWAP2 SWAP1 POP JUMP JUMPDEST PUSH1 0x0 DUP2 SWAP1 POP SWAP2 SWAP1 POP JUMP JUMPDEST PUSH2 0x8E5 DUP4 PUSH2 0x8B0 JUMP JUMPDEST PUSH2 0x8F9 PUSH2 0x8F1 DUP3 PUSH2 0x8D2 JUMP JUMPDEST DUP5 DUP5 SLOAD PUSH2 0x854 JUMP JUMPDEST DUP3 SSTORE POP POP POP POP JUMP JUMPDEST PUSH1 0x0 SWAP1 JUMP JUMPDEST PUSH2 0x90E PUSH2 0x901 JUMP JUMPDEST PUSH2 0x919 DUP2 DUP5 DUP5 PUSH2 0x8DC JUMP JUMPDEST POP POP POP JUMP JUMPDEST JUMPDEST DUP2 DUP2 LT ISZERO PUSH2 0x93D JUMPI PUSH2 0x932 PUSH1 0x0 DUP3 PUSH2 0x906 JUMP JUMPDEST PUSH1 0x1 DUP2 ADD SWAP1 POP PUSH2 0x91F JUMP JUMPDEST POP POP JUMP JUMPDEST PUSH1 0x1F DUP3 GT ISZERO PUSH2 0x982 JUMPI PUSH2 0x953 DUP2 PUSH2 0x822 JUMP JUMPDEST PUSH2 0x95C DUP5 PUSH2 0x837 JUMP JUMPDEST DUP2 ADD PUSH1 0x20 DUP6 LT ISZERO PUSH2 0x96B JUMPI DUP2 SWAP1 POP JUMPDEST PUSH2 0x97F PUSH2 0x977 DUP6 PUSH2 0x837 JUMP JUMPDEST DUP4 ADD DUP3 PUSH2 0x91E JUMP JUMPDEST POP POP JUMPDEST POP POP POP JUMP JUMPDEST PUSH1 0x0 DUP3 DUP3 SHR SWAP1 POP SWAP3 SWAP2 POP POP JUMP JUMPDEST PUSH1 0x0 PUSH2 0x9A5 PUSH1 0x0 NOT DUP5 PUSH1 0x8 MUL PUSH2 0x987 JUMP JUMPDEST NOT DUP1 DUP4 AND SWAP2 POP POP SWAP3 SWAP2 POP POP JUMP JUMPDEST PUSH1 0x0 PUSH2 0x9BE DUP4 DUP4 PUSH2 0x994 JUMP JUMPDEST SWAP2 POP DUP3 PUSH1 0x2 MUL DUP3 OR SWAP1 POP SWAP3 SWAP2 POP POP JUMP JUMPDEST PUSH2 0x9D7 DUP3 PUSH2 0x59D JUMP JUMPDEST PUSH8 0xFFFFFFFFFFFFFFFF DUP2 GT ISZERO PUSH2 0x9F0 JUMPI PUSH2 0x9EF PUSH2 0x7F3 JUMP JUMPDEST JUMPDEST PUSH2 0x9FA DUP3 SLOAD PUSH2 0x6F3 JUMP JUMPDEST PUSH2 0xA05 DUP3 DUP3 DUP6 PUSH2 0x941 JUMP JUMPDEST PUSH1 0x0 PUSH1 0x20 SWAP1 POP PUSH1 0x1F DUP4 GT PUSH1 0x1 DUP2 EQ PUSH2 0xA38 JUMPI PUSH1 0x0 DUP5 ISZERO PUSH2 0xA26 JUMPI DUP3 DUP8 ADD MLOAD SWAP1 POP JUMPDEST PUSH2 0xA30 DUP6 DUP3 PUSH2 0x9B2 JUMP JUMPDEST DUP7 SSTORE POP PUSH2 0xA98 JUMP JUMPDEST PUSH1 0x1F NOT DUP5 AND PUSH2 0xA46 DUP7 PUSH2 0x822 JUMP JUMPDEST PUSH1 0x0 JUMPDEST DUP3 DUP2 LT ISZERO PUSH2 0xA6E JUMPI DUP5 DUP10 ADD MLOAD DUP3 SSTORE PUSH1 0x1 DUP3 ADD SWAP2 POP PUSH1 0x20 DUP6 ADD SWAP5 POP PUSH1 0x20 DUP2 ADD SWAP1 POP PUSH2 0xA49 JUMP JUMPDEST DUP7 DUP4 LT ISZERO PUSH2 0xA8B JUMPI DUP5 DUP10 ADD MLOAD PUSH2 0xA87 PUSH1 0x1F DUP10 AND DUP3 PUSH2 0x994 JUMP JUMPDEST DUP4 SSTORE POP JUMPDEST PUSH1 0x1 PUSH1 0x2 DUP9 MUL ADD DUP9 SSTORE POP POP POP JUMPDEST POP POP POP POP POP POP JUMP INVALID LOG2 PUSH5 0x6970667358 0x22 SLT KECCAK256 0xE2 SWAP5 0x2E DUP13 DUP9 SWAP1 SWAP15 0xDC 0x4E 0x1F KECCAK256 0x5F 0xBB 0xF9 0x4D 0xC5 0xD1 EXTCODECOPY RETURN 0xAB DUP13 0xD6 LOG3 SWAP16 0x2E SWAP8 0x2E SWAP8 0xA7 0xE4 0xDC DUP14 PUSH5 0x736F6C6343 STOP ADDMOD 0xF STOP CALLER "
				},
				"gasEstimates": {
					"creation": {
						"codeDepositCost": "554800",
						"executionCost": "infinite",
						"totalCost": "infinite"
					},
					"external": {
						"TotalFunds()": "2452",
						"amount()": "2451",
						"cardNumber()": "infinite",
						"message()": "infinite",
						"receiverFunds()": "2473",
						"sendMoney(uint256,address)": "infinite",
						"totalWeekTransactions()": "2429"
					}
				},
				"methodIdentifiers": {
					"TotalFunds()": "7b9a3f4c",
					"amount()": "aa8c217c",
					"cardNumber()": "8fa11864",
					"message()": "e21f37ce",
					"receiverFunds()": "bc309496",
					"sendMoney(uint256,address)": "062a7544",
					"totalWeekTransactions()": "94b5dcaa"
				}
			},
			"storageLayout": {
				"storage": [
					{
						"astId": 230,
						"contract": "Dapp/MoneyTransfer.sol:MoneyTransfer",
						"label": "amount",
						"offset": 0,
						"slot": "0",
						"type": "t_uint256"
					},
					{
						"astId": 232,
						"contract": "Dapp/MoneyTransfer.sol:MoneyTransfer",
						"label": "TotalFunds",
						"offset": 0,
						"slot": "1",
						"type": "t_uint256"
					},
					{
						"astId": 234,
						"contract": "Dapp/MoneyTransfer.sol:MoneyTransfer",
						"label": "receiver",
						"offset": 0,
						"slot": "2",
						"type": "t_address"
					},
					{
						"astId": 240,
						"contract": "Dapp/MoneyTransfer.sol:MoneyTransfer",
						"label": "day",
						"offset": 0,
						"slot": "3",
						"type": "t_uint256"
					},
					{
						"astId": 242,
						"contract": "Dapp/MoneyTransfer.sol:MoneyTransfer",
						"label": "totalWeekTransactions",
						"offset": 0,
						"slot": "4",
						"type": "t_uint256"
					},
					{
						"astId": 244,
						"contract": "Dapp/MoneyTransfer.sol:MoneyTransfer",
						"label": "maxTransaction",
						"offset": 0,
						"slot": "5",
						"type": "t_uint256"
					},
					{
						"astId": 246,
						"contract": "Dapp/MoneyTransfer.sol:MoneyTransfer",
						"label": "minTransaction",
						"offset": 0,
						"slot": "6",
						"type": "t_uint256"
					},
					{
						"astId": 249,
						"contract": "Dapp/MoneyTransfer.sol:MoneyTransfer",
						"label": "countries",
						"offset": 0,
						"slot": "7",
						"type": "t_array(t_uint256)dyn_storage"
					},
					{
						"astId": 251,
						"contract": "Dapp/MoneyTransfer.sol:MoneyTransfer",
						"label": "receiverFunds",
						"offset": 0,
						"slot": "8",
						"type": "t_uint256"
					},
					{
						"astId": 253,
						"contract": "Dapp/MoneyTransfer.sol:MoneyTransfer",
						"label": "message",
						"offset": 0,
						"slot": "9",
						"type": "t_string_storage"
					},
					{
						"astId": 255,
						"contract": "Dapp/MoneyTransfer.sol:MoneyTransfer",
						"label": "cardNumber",
						"offset": 0,
						"slot": "10",
						"type": "t_string_storage"
					},
					{
						"astId": 257,
						"contract": "Dapp/MoneyTransfer.sol:MoneyTransfer",
						"label": "cvv",
						"offset": 0,
						"slot": "11",
						"type": "t_uint256"
					}
				],
				"types": {
					"t_address": {
						"encoding": "inplace",
						"label": "address",
						"numberOfBytes": "20"
					},
					"t_array(t_uint256)dyn_storage": {
						"base": "t_uint256",
						"encoding": "dynamic_array",
						"label": "uint256[]",
						"numberOfBytes": "32"
					},
					"t_string_storage": {
						"encoding": "bytes",
						"label": "string",
						"numberOfBytes": "32"
					},
					"t_uint256": {
						"encoding": "inplace",
						"label": "uint256",
						"numberOfBytes": "32"
					}
				}
			},
			"userdoc": {
				"kind": "user",
				"methods": {},
				"version": 1
			}
		}
	}
}