{
	"Dapp/MoneyTransfer.sol": {
		"MoneyTransfer": {
			"abi": [
				{
					"inputs": [
						{
							"internalType": "uint256",
							"name": "_totalFunds",
							"type": "uint256"
						}
					],
					"stateMutability": "nonpayable",
					"type": "constructor"
				},
				{
					"inputs": [],
					"name": "TotalAmount",
					"outputs": [
						{
							"internalType": "uint256",
							"name": "",
							"type": "uint256"
						}
					],
					"stateMutability": "view",
					"type": "function"
				},
				{
					"inputs": [],
					"name": "TotalFunds",
					"outputs": [
						{
							"internalType": "uint256",
							"name": "",
							"type": "uint256"
						}
					],
					"stateMutability": "view",
					"type": "function"
				},
				{
					"inputs": [],
					"name": "amount",
					"outputs": [
						{
							"internalType": "uint256",
							"name": "",
							"type": "uint256"
						}
					],
					"stateMutability": "view",
					"type": "function"
				},
				{
					"inputs": [],
					"name": "callCount",
					"outputs": [
						{
							"internalType": "uint256",
							"name": "",
							"type": "uint256"
						}
					],
					"stateMutability": "view",
					"type": "function"
				},
				{
					"inputs": [],
					"name": "callPutCard",
					"outputs": [
						{
							"internalType": "bool",
							"name": "",
							"type": "bool"
						}
					],
					"stateMutability": "view",
					"type": "function"
				},
				{
					"inputs": [],
					"name": "cardNumber",
					"outputs": [
						{
							"internalType": "string",
							"name": "",
							"type": "string"
						}
					],
					"stateMutability": "view",
					"type": "function"
				},
				{
					"inputs": [
						{
							"internalType": "uint256",
							"name": "",
							"type": "uint256"
						}
					],
					"name": "convertAmount",
					"outputs": [],
					"stateMutability": "nonpayable",
					"type": "function"
				},
				{
					"inputs": [],
					"name": "countTransfer",
					"outputs": [
						{
							"internalType": "uint256",
							"name": "",
							"type": "uint256"
						}
					],
					"stateMutability": "view",
					"type": "function"
				},
				{
					"inputs": [],
					"name": "cvv",
					"outputs": [
						{
							"internalType": "string",
							"name": "",
							"type": "string"
						}
					],
					"stateMutability": "view",
					"type": "function"
				},
				{
					"inputs": [],
					"name": "firstTransferTime",
					"outputs": [
						{
							"internalType": "uint256",
							"name": "",
							"type": "uint256"
						}
					],
					"stateMutability": "view",
					"type": "function"
				},
				{
					"inputs": [],
					"name": "getOutCard",
					"outputs": [],
					"stateMutability": "nonpayable",
					"type": "function"
				},
				{
					"inputs": [],
					"name": "getTime",
					"outputs": [
						{
							"internalType": "uint256",
							"name": "",
							"type": "uint256"
						}
					],
					"stateMutability": "view",
					"type": "function"
				},
				{
					"inputs": [],
					"name": "message",
					"outputs": [
						{
							"internalType": "string",
							"name": "",
							"type": "string"
						}
					],
					"stateMutability": "view",
					"type": "function"
				},
				{
					"inputs": [],
					"name": "receiverFunds",
					"outputs": [
						{
							"internalType": "uint256",
							"name": "",
							"type": "uint256"
						}
					],
					"stateMutability": "view",
					"type": "function"
				},
				{
					"inputs": [
						{
							"internalType": "uint256",
							"name": "_amount",
							"type": "uint256"
						},
						{
							"internalType": "address",
							"name": "_receiver",
							"type": "address"
						}
					],
					"name": "sendMoney",
					"outputs": [],
					"stateMutability": "nonpayable",
					"type": "function"
				},
				{
					"inputs": [
						{
							"internalType": "string",
							"name": "_cardNumber",
							"type": "string"
						},
						{
							"internalType": "string",
							"name": "_cvv",
							"type": "string"
						}
					],
					"name": "setCard",
					"outputs": [],
					"stateMutability": "nonpayable",
					"type": "function"
				},
				{
					"inputs": [],
					"name": "totalWeekTransactions",
					"outputs": [
						{
							"internalType": "uint256",
							"name": "",
							"type": "uint256"
						}
					],
					"stateMutability": "view",
					"type": "function"
				}
			],
			"devdoc": {
				"kind": "dev",
				"methods": {},
				"version": 1
			},
			"evm": {
				"assembly": "    /* \"Dapp/MoneyTransfer.sol\":71:4168  contract  MoneyTransfer {... */\n  mstore(0x40, 0x80)\n    /* \"Dapp/MoneyTransfer.sol\":237:245  24 hours */\n  0x015180\n    /* \"Dapp/MoneyTransfer.sol\":226:245  uint day = 24 hours */\n  0x03\n  sstore\n    /* \"Dapp/MoneyTransfer.sol\":774:775  0 */\n  0x00\n    /* \"Dapp/MoneyTransfer.sol\":750:775  uint public callCount = 0 */\n  0x0f\n  sstore\n    /* \"Dapp/MoneyTransfer.sol\":809:814  false */\n  0x00\n    /* \"Dapp/MoneyTransfer.sol\":783:814  bool public callPutCard = false */\n  0x10\n  exp(0x0100, 0x00)\n  dup2\n  sload\n  dup2\n  0xff\n  mul\n  not\n  and\n  swap1\n  dup4\n  iszero\n  iszero\n  mul\n  or\n  swap1\n  sstore\n  pop\n    /* \"Dapp/MoneyTransfer.sol\":599:738  constructor (uint256 _totalFunds) {... */\n  callvalue\n  dup1\n  iszero\n  tag_1\n  jumpi\n  0x00\n  dup1\n  revert\ntag_1:\n  pop\n  mload(0x40)\n  sub(codesize, bytecodeSize)\n  dup1\n  bytecodeSize\n  dup4\n  codecopy\n  dup2\n  dup2\n  add\n  0x40\n  mstore\n  dup2\n  add\n  swap1\n  tag_2\n  swap2\n  swap1\n  tag_3\n  jump\t// in\ntag_2:\n    /* \"Dapp/MoneyTransfer.sol\":719:730  _totalFunds */\n  dup1\n    /* \"Dapp/MoneyTransfer.sol\":706:716  TotalFunds */\n  0x01\n    /* \"Dapp/MoneyTransfer.sol\":706:730  TotalFunds = _totalFunds */\n  dup2\n  swap1\n  sstore\n  pop\n    /* \"Dapp/MoneyTransfer.sol\":599:738  constructor (uint256 _totalFunds) {... */\n  pop\n    /* \"Dapp/MoneyTransfer.sol\":71:4168  contract  MoneyTransfer {... */\n  jump(tag_6)\n    /* \"#utility.yul\":88:205   */\ntag_8:\n    /* \"#utility.yul\":197:198   */\n  0x00\n    /* \"#utility.yul\":194:195   */\n  dup1\n    /* \"#utility.yul\":187:199   */\n  revert\n    /* \"#utility.yul\":334:411   */\ntag_10:\n    /* \"#utility.yul\":371:378   */\n  0x00\n    /* \"#utility.yul\":400:405   */\n  dup2\n    /* \"#utility.yul\":389:405   */\n  swap1\n  pop\n    /* \"#utility.yul\":334:411   */\n  swap2\n  swap1\n  pop\n  jump\t// out\n    /* \"#utility.yul\":417:539   */\ntag_11:\n    /* \"#utility.yul\":490:514   */\n  tag_19\n    /* \"#utility.yul\":508:513   */\n  dup2\n    /* \"#utility.yul\":490:514   */\n  tag_10\n  jump\t// in\ntag_19:\n    /* \"#utility.yul\":483:488   */\n  dup2\n    /* \"#utility.yul\":480:515   */\n  eq\n    /* \"#utility.yul\":470:533   */\n  tag_20\n  jumpi\n    /* \"#utility.yul\":529:530   */\n  0x00\n    /* \"#utility.yul\":526:527   */\n  dup1\n    /* \"#utility.yul\":519:531   */\n  revert\n    /* \"#utility.yul\":470:533   */\ntag_20:\n    /* \"#utility.yul\":417:539   */\n  pop\n  jump\t// out\n    /* \"#utility.yul\":545:688   */\ntag_12:\n    /* \"#utility.yul\":602:607   */\n  0x00\n    /* \"#utility.yul\":633:639   */\n  dup2\n    /* \"#utility.yul\":627:640   */\n  mload\n    /* \"#utility.yul\":618:640   */\n  swap1\n  pop\n    /* \"#utility.yul\":649:682   */\n  tag_22\n    /* \"#utility.yul\":676:681   */\n  dup2\n    /* \"#utility.yul\":649:682   */\n  tag_11\n  jump\t// in\ntag_22:\n    /* \"#utility.yul\":545:688   */\n  swap3\n  swap2\n  pop\n  pop\n  jump\t// out\n    /* \"#utility.yul\":694:1045   */\ntag_3:\n    /* \"#utility.yul\":764:770   */\n  0x00\n    /* \"#utility.yul\":813:815   */\n  0x20\n    /* \"#utility.yul\":801:810   */\n  dup3\n    /* \"#utility.yul\":792:799   */\n  dup5\n    /* \"#utility.yul\":788:811   */\n  sub\n    /* \"#utility.yul\":784:816   */\n  slt\n    /* \"#utility.yul\":781:900   */\n  iszero\n  tag_24\n  jumpi\n    /* \"#utility.yul\":819:898   */\n  tag_25\n  tag_8\n  jump\t// in\ntag_25:\n    /* \"#utility.yul\":781:900   */\ntag_24:\n    /* \"#utility.yul\":939:940   */\n  0x00\n    /* \"#utility.yul\":964:1028   */\n  tag_26\n    /* \"#utility.yul\":1020:1027   */\n  dup5\n    /* \"#utility.yul\":1011:1017   */\n  dup3\n    /* \"#utility.yul\":1000:1009   */\n  dup6\n    /* \"#utility.yul\":996:1018   */\n  add\n    /* \"#utility.yul\":964:1028   */\n  tag_12\n  jump\t// in\ntag_26:\n    /* \"#utility.yul\":954:1028   */\n  swap2\n  pop\n    /* \"#utility.yul\":910:1038   */\n  pop\n    /* \"#utility.yul\":694:1045   */\n  swap3\n  swap2\n  pop\n  pop\n  jump\t// out\n    /* \"Dapp/MoneyTransfer.sol\":71:4168  contract  MoneyTransfer {... */\ntag_6:\n  dataSize(sub_0)\n  dup1\n  dataOffset(sub_0)\n  0x00\n  codecopy\n  0x00\n  return\nstop\n\nsub_0: assembly {\n        /* \"Dapp/MoneyTransfer.sol\":71:4168  contract  MoneyTransfer {... */\n      mstore(0x40, 0x80)\n      callvalue\n      dup1\n      iszero\n      tag_1\n      jumpi\n      0x00\n      dup1\n      revert\n    tag_1:\n      pop\n      jumpi(tag_2, lt(calldatasize, 0x04))\n      shr(0xe0, calldataload(0x00))\n      dup1\n      0x557ed1ba\n      gt\n      tag_20\n      jumpi\n      dup1\n      0x8fa11864\n      gt\n      tag_21\n      jumpi\n      dup1\n      0x8fa11864\n      eq\n      tag_15\n      jumpi\n      dup1\n      0x94b5dcaa\n      eq\n      tag_16\n      jumpi\n      dup1\n      0xaa8c217c\n      eq\n      tag_17\n      jumpi\n      dup1\n      0xbc309496\n      eq\n      tag_18\n      jumpi\n      dup1\n      0xe21f37ce\n      eq\n      tag_19\n      jumpi\n      jump(tag_2)\n    tag_21:\n      dup1\n      0x557ed1ba\n      eq\n      tag_11\n      jumpi\n      dup1\n      0x7b9a3f4c\n      eq\n      tag_12\n      jumpi\n      dup1\n      0x7eb9f571\n      eq\n      tag_13\n      jumpi\n      dup1\n      0x8e029c0b\n      eq\n      tag_14\n      jumpi\n      jump(tag_2)\n    tag_20:\n      dup1\n      0x34f5ccde\n      gt\n      tag_22\n      jumpi\n      dup1\n      0x34f5ccde\n      eq\n      tag_7\n      jumpi\n      dup1\n      0x3c626f00\n      eq\n      tag_8\n      jumpi\n      dup1\n      0x42fb7936\n      eq\n      tag_9\n      jumpi\n      dup1\n      0x4b28f9a2\n      eq\n      tag_10\n      jumpi\n      jump(tag_2)\n    tag_22:\n      dup1\n      0x039aec2d\n      eq\n      tag_3\n      jumpi\n      dup1\n      0x062a7544\n      eq\n      tag_4\n      jumpi\n      dup1\n      0x0e85fa72\n      eq\n      tag_5\n      jumpi\n      dup1\n      0x12a029a4\n      eq\n      tag_6\n      jumpi\n    tag_2:\n      0x00\n      dup1\n      revert\n        /* \"Dapp/MoneyTransfer.sol\":2029:2075  function convertAmount(uint )public {... */\n    tag_3:\n      tag_23\n      0x04\n      dup1\n      calldatasize\n      sub\n      dup2\n      add\n      swap1\n      tag_24\n      swap2\n      swap1\n      tag_25\n      jump\t// in\n    tag_24:\n      tag_26\n      jump\t// in\n    tag_23:\n      stop\n        /* \"Dapp/MoneyTransfer.sol\":824:1659  function sendMoney( uint _amount, address _receiver) public m_validAddress(_receiver) m_ifCardExists m_transferLimit{... */\n    tag_4:\n      tag_27\n      0x04\n      dup1\n      calldatasize\n      sub\n      dup2\n      add\n      swap1\n      tag_28\n      swap2\n      swap1\n      tag_29\n      jump\t// in\n    tag_28:\n      tag_30\n      jump\t// in\n    tag_27:\n      stop\n        /* \"Dapp/MoneyTransfer.sol\":524:553  uint public firstTransferTime */\n    tag_5:\n      tag_31\n      tag_32\n      jump\t// in\n    tag_31:\n      mload(0x40)\n      tag_33\n      swap2\n      swap1\n      tag_34\n      jump\t// in\n    tag_33:\n      mload(0x40)\n      dup1\n      swap2\n      sub\n      swap1\n      return\n        /* \"Dapp/MoneyTransfer.sol\":1667:1932  function setCard(string memory _cardNumber, string memory _cvv) public  m_checkCard {... */\n    tag_6:\n      tag_35\n      0x04\n      dup1\n      calldatasize\n      sub\n      dup2\n      add\n      swap1\n      tag_36\n      swap2\n      swap1\n      tag_37\n      jump\t// in\n    tag_36:\n      tag_38\n      jump\t// in\n    tag_35:\n      stop\n        /* \"Dapp/MoneyTransfer.sol\":560:585  uint public countTransfer */\n    tag_7:\n      tag_39\n      tag_40\n      jump\t// in\n    tag_39:\n      mload(0x40)\n      tag_41\n      swap2\n      swap1\n      tag_34\n      jump\t// in\n    tag_41:\n      mload(0x40)\n      dup1\n      swap2\n      sub\n      swap1\n      return\n        /* \"Dapp/MoneyTransfer.sol\":783:814  bool public callPutCard = false */\n    tag_8:\n      tag_42\n      tag_43\n      jump\t// in\n    tag_42:\n      mload(0x40)\n      tag_44\n      swap2\n      swap1\n      tag_45\n      jump\t// in\n    tag_44:\n      mload(0x40)\n      dup1\n      swap2\n      sub\n      swap1\n      return\n        /* \"Dapp/MoneyTransfer.sol\":470:487  string public cvv */\n    tag_9:\n      tag_46\n      tag_47\n      jump\t// in\n    tag_46:\n      mload(0x40)\n      tag_48\n      swap2\n      swap1\n      tag_49\n      jump\t// in\n    tag_48:\n      mload(0x40)\n      dup1\n      swap2\n      sub\n      swap1\n      return\n        /* \"Dapp/MoneyTransfer.sol\":750:775  uint public callCount = 0 */\n    tag_10:\n      tag_50\n      tag_51\n      jump\t// in\n    tag_50:\n      mload(0x40)\n      tag_52\n      swap2\n      swap1\n      tag_34\n      jump\t// in\n    tag_52:\n      mload(0x40)\n      dup1\n      swap2\n      sub\n      swap1\n      return\n        /* \"Dapp/MoneyTransfer.sol\":4071:4157  function getTime()public view returns(uint ){... */\n    tag_11:\n      tag_53\n      tag_54\n      jump\t// in\n    tag_53:\n      mload(0x40)\n      tag_55\n      swap2\n      swap1\n      tag_34\n      jump\t// in\n    tag_55:\n      mload(0x40)\n      dup1\n      swap2\n      sub\n      swap1\n      return\n        /* \"Dapp/MoneyTransfer.sol\":134:159  uint256 public TotalFunds */\n    tag_12:\n      tag_56\n      tag_57\n      jump\t// in\n    tag_56:\n      mload(0x40)\n      tag_58\n      swap2\n      swap1\n      tag_34\n      jump\t// in\n    tag_58:\n      mload(0x40)\n      dup1\n      swap2\n      sub\n      swap1\n      return\n        /* \"Dapp/MoneyTransfer.sol\":494:520  uint256 public TotalAmount */\n    tag_13:\n      tag_59\n      tag_60\n      jump\t// in\n    tag_59:\n      mload(0x40)\n      tag_61\n      swap2\n      swap1\n      tag_34\n      jump\t// in\n    tag_61:\n      mload(0x40)\n      dup1\n      swap2\n      sub\n      swap1\n      return\n        /* \"Dapp/MoneyTransfer.sol\":1948:2017  function getOutCard() public  {... */\n    tag_14:\n      tag_62\n      tag_63\n      jump\t// in\n    tag_62:\n      stop\n        /* \"Dapp/MoneyTransfer.sol\":438:462  string public cardNumber */\n    tag_15:\n      tag_64\n      tag_65\n      jump\t// in\n    tag_64:\n      mload(0x40)\n      tag_66\n      swap2\n      swap1\n      tag_49\n      jump\t// in\n    tag_66:\n      mload(0x40)\n      dup1\n      swap2\n      sub\n      swap1\n      return\n        /* \"Dapp/MoneyTransfer.sol\":252:288  uint256 public totalWeekTransactions */\n    tag_16:\n      tag_67\n      tag_68\n      jump\t// in\n    tag_67:\n      mload(0x40)\n      tag_69\n      swap2\n      swap1\n      tag_34\n      jump\t// in\n    tag_69:\n      mload(0x40)\n      dup1\n      swap2\n      sub\n      swap1\n      return\n        /* \"Dapp/MoneyTransfer.sol\":106:127  uint256 public amount */\n    tag_17:\n      tag_70\n      tag_71\n      jump\t// in\n    tag_70:\n      mload(0x40)\n      tag_72\n      swap2\n      swap1\n      tag_34\n      jump\t// in\n    tag_72:\n      mload(0x40)\n      dup1\n      swap2\n      sub\n      swap1\n      return\n        /* \"Dapp/MoneyTransfer.sol\":375:403  uint256 public receiverFunds */\n    tag_18:\n      tag_73\n      tag_74\n      jump\t// in\n    tag_73:\n      mload(0x40)\n      tag_75\n      swap2\n      swap1\n      tag_34\n      jump\t// in\n    tag_75:\n      mload(0x40)\n      dup1\n      swap2\n      sub\n      swap1\n      return\n        /* \"Dapp/MoneyTransfer.sol\":410:431  string public message */\n    tag_19:\n      tag_76\n      tag_77\n      jump\t// in\n    tag_76:\n      mload(0x40)\n      tag_78\n      swap2\n      swap1\n      tag_49\n      jump\t// in\n    tag_78:\n      mload(0x40)\n      dup1\n      swap2\n      sub\n      swap1\n      return\n        /* \"Dapp/MoneyTransfer.sol\":2029:2075  function convertAmount(uint )public {... */\n    tag_26:\n      pop\n      jump\t// out\n        /* \"Dapp/MoneyTransfer.sol\":824:1659  function sendMoney( uint _amount, address _receiver) public m_validAddress(_receiver) m_ifCardExists m_transferLimit{... */\n    tag_30:\n        /* \"Dapp/MoneyTransfer.sol\":899:908  _receiver */\n      dup1\n        /* \"Dapp/MoneyTransfer.sol\":2144:2149  _addr */\n      dup1\n        /* \"Dapp/MoneyTransfer.sol\":2133:2141  receiver */\n      0x02\n      0x00\n        /* \"Dapp/MoneyTransfer.sol\":2133:2149  receiver = _addr */\n      0x0100\n      exp\n      dup2\n      sload\n      dup2\n      0xffffffffffffffffffffffffffffffffffffffff\n      mul\n      not\n      and\n      swap1\n      dup4\n      0xffffffffffffffffffffffffffffffffffffffff\n      and\n      mul\n      or\n      swap1\n      sstore\n      pop\n        /* \"Dapp/MoneyTransfer.sol\":2185:2186  0 */\n      0x00\n        /* \"Dapp/MoneyTransfer.sol\":2168:2187  _addr != address(0) */\n      0xffffffffffffffffffffffffffffffffffffffff\n      and\n        /* \"Dapp/MoneyTransfer.sol\":2168:2173  _addr */\n      dup2\n        /* \"Dapp/MoneyTransfer.sol\":2168:2187  _addr != address(0) */\n      0xffffffffffffffffffffffffffffffffffffffff\n      and\n      sub\n        /* \"Dapp/MoneyTransfer.sol\":2160:2220  require(_addr != address(0), \" This address doesn't exists\") */\n      tag_81\n      jumpi\n      mload(0x40)\n      0x08c379a000000000000000000000000000000000000000000000000000000000\n      dup2\n      mstore\n      0x04\n      add\n      tag_82\n      swap1\n      tag_83\n      jump\t// in\n    tag_82:\n      mload(0x40)\n      dup1\n      swap2\n      sub\n      swap1\n      revert\n    tag_81:\n        /* \"Dapp/MoneyTransfer.sol\":2319:2324  false */\n      0x00\n        /* \"Dapp/MoneyTransfer.sol\":2304:2324  callPutCard != false */\n      iszero\n      iszero\n        /* \"Dapp/MoneyTransfer.sol\":2304:2315  callPutCard */\n      0x10\n      0x00\n      swap1\n      sload\n      swap1\n      0x0100\n      exp\n      swap1\n      div\n      0xff\n      and\n        /* \"Dapp/MoneyTransfer.sol\":2304:2324  callPutCard != false */\n      iszero\n      iszero\n      sub\n        /* \"Dapp/MoneyTransfer.sol\":2296:2351  require(callPutCard != false,\"Please insert your card\") */\n      tag_85\n      jumpi\n      mload(0x40)\n      0x08c379a000000000000000000000000000000000000000000000000000000000\n      dup2\n      mstore\n      0x04\n      add\n      tag_86\n      swap1\n      tag_87\n      jump\t// in\n    tag_86:\n      mload(0x40)\n      dup1\n      swap2\n      sub\n      swap1\n      revert\n    tag_85:\n        /* \"Dapp/MoneyTransfer.sol\":3155:3159  2500 */\n      0x09c4\n        /* \"Dapp/MoneyTransfer.sol\":3141:3152  TotalAmount */\n      sload(0x0c)\n        /* \"Dapp/MoneyTransfer.sol\":3141:3159  TotalAmount > 2500 */\n      gt\n        /* \"Dapp/MoneyTransfer.sol\":3141:3214  TotalAmount > 2500 && block.timestamp <= (firstTransferTime + 30 seconds) */\n      dup1\n      iszero\n      tag_89\n      jumpi\n      pop\n        /* \"Dapp/MoneyTransfer.sol\":3203:3213  30 seconds */\n      0x1e\n        /* \"Dapp/MoneyTransfer.sol\":3183:3200  firstTransferTime */\n      sload(0x0d)\n        /* \"Dapp/MoneyTransfer.sol\":3183:3213  firstTransferTime + 30 seconds */\n      tag_90\n      swap2\n      swap1\n      tag_91\n      jump\t// in\n    tag_90:\n        /* \"Dapp/MoneyTransfer.sol\":3163:3178  block.timestamp */\n      timestamp\n        /* \"Dapp/MoneyTransfer.sol\":3163:3214  block.timestamp <= (firstTransferTime + 30 seconds) */\n      gt\n      iszero\n        /* \"Dapp/MoneyTransfer.sol\":3141:3214  TotalAmount > 2500 && block.timestamp <= (firstTransferTime + 30 seconds) */\n    tag_89:\n        /* \"Dapp/MoneyTransfer.sol\":3138:3351  if(TotalAmount > 2500 && block.timestamp <= (firstTransferTime + 30 seconds)){... */\n      iszero\n      tag_92\n      jumpi\n        /* \"Dapp/MoneyTransfer.sol\":3244:3245  0 */\n      0x00\n        /* \"Dapp/MoneyTransfer.sol\":3230:3241  TotalAmount */\n      0x0c\n        /* \"Dapp/MoneyTransfer.sol\":3230:3245  TotalAmount = 0 */\n      dup2\n      swap1\n      sstore\n      pop\n        /* \"Dapp/MoneyTransfer.sol\":3282:3283  0 */\n      0x00\n        /* \"Dapp/MoneyTransfer.sol\":3267:3278  TotalAmount */\n      sload(0x0c)\n        /* \"Dapp/MoneyTransfer.sol\":3267:3283  TotalAmount == 0 */\n      eq\n        /* \"Dapp/MoneyTransfer.sol\":3260:3284  assert(TotalAmount == 0) */\n      tag_93\n      jumpi\n      tag_94\n      tag_95\n      jump\t// in\n    tag_94:\n    tag_93:\n        /* \"Dapp/MoneyTransfer.sol\":3300:3339  revert(\"You reached the limit per day\") */\n      mload(0x40)\n      0x08c379a000000000000000000000000000000000000000000000000000000000\n      dup2\n      mstore\n      0x04\n      add\n      tag_96\n      swap1\n      tag_97\n      jump\t// in\n    tag_96:\n      mload(0x40)\n      dup1\n      swap2\n      sub\n      swap1\n      revert\n        /* \"Dapp/MoneyTransfer.sol\":3138:3351  if(TotalAmount > 2500 && block.timestamp <= (firstTransferTime + 30 seconds)){... */\n    tag_92:\n        /* \"Dapp/MoneyTransfer.sol\":3381:3385  2500 */\n      0x09c4\n        /* \"Dapp/MoneyTransfer.sol\":3366:3377  TotalAmount */\n      sload(0x0c)\n        /* \"Dapp/MoneyTransfer.sol\":3366:3385  TotalAmount <= 2500 */\n      gt\n      iszero\n        /* \"Dapp/MoneyTransfer.sol\":3366:3440  TotalAmount <= 2500 && block.timestamp >= (firstTransferTime + 30 seconds) */\n      dup1\n      iszero\n      tag_98\n      jumpi\n      pop\n        /* \"Dapp/MoneyTransfer.sol\":3429:3439  30 seconds */\n      0x1e\n        /* \"Dapp/MoneyTransfer.sol\":3409:3426  firstTransferTime */\n      sload(0x0d)\n        /* \"Dapp/MoneyTransfer.sol\":3409:3439  firstTransferTime + 30 seconds */\n      tag_99\n      swap2\n      swap1\n      tag_91\n      jump\t// in\n    tag_99:\n        /* \"Dapp/MoneyTransfer.sol\":3389:3404  block.timestamp */\n      timestamp\n        /* \"Dapp/MoneyTransfer.sol\":3389:3440  block.timestamp >= (firstTransferTime + 30 seconds) */\n      lt\n      iszero\n        /* \"Dapp/MoneyTransfer.sol\":3366:3440  TotalAmount <= 2500 && block.timestamp >= (firstTransferTime + 30 seconds) */\n    tag_98:\n        /* \"Dapp/MoneyTransfer.sol\":3363:3573  if(TotalAmount <= 2500 && block.timestamp >= (firstTransferTime + 30 seconds)){... */\n      iszero\n      tag_100\n      jumpi\n        /* \"Dapp/MoneyTransfer.sol\":3471:3472  0 */\n      0x00\n        /* \"Dapp/MoneyTransfer.sol\":3457:3468  TotalAmount */\n      0x0c\n        /* \"Dapp/MoneyTransfer.sol\":3457:3472  TotalAmount = 0 */\n      dup2\n      swap1\n      sstore\n      pop\n        /* \"Dapp/MoneyTransfer.sol\":3509:3510  0 */\n      0x00\n        /* \"Dapp/MoneyTransfer.sol\":3494:3505  TotalAmount */\n      sload(0x0c)\n        /* \"Dapp/MoneyTransfer.sol\":3494:3510  TotalAmount == 0 */\n      eq\n        /* \"Dapp/MoneyTransfer.sol\":3487:3511  assert(TotalAmount == 0) */\n      tag_101\n      jumpi\n      tag_102\n      tag_95\n      jump\t// in\n    tag_102:\n    tag_101:\n        /* \"Dapp/MoneyTransfer.sol\":3546:3561  block.timestamp */\n      timestamp\n        /* \"Dapp/MoneyTransfer.sol\":3526:3543  firstTransferTime */\n      0x0d\n        /* \"Dapp/MoneyTransfer.sol\":3526:3561  firstTransferTime = block.timestamp */\n      dup2\n      swap1\n      sstore\n      pop\n        /* \"Dapp/MoneyTransfer.sol\":3363:3573  if(TotalAmount <= 2500 && block.timestamp >= (firstTransferTime + 30 seconds)){... */\n    tag_100:\n        /* \"Dapp/MoneyTransfer.sol\":3601:3602  5 */\n      0x05\n        /* \"Dapp/MoneyTransfer.sol\":3588:3597  callCount */\n      sload(0x0f)\n        /* \"Dapp/MoneyTransfer.sol\":3588:3602  callCount >= 5 */\n      lt\n      iszero\n        /* \"Dapp/MoneyTransfer.sol\":3588:3657  callCount >= 5 && block.timestamp <= (firstTransferTime + 30 seconds) */\n      dup1\n      iszero\n      tag_103\n      jumpi\n      pop\n        /* \"Dapp/MoneyTransfer.sol\":3646:3656  30 seconds */\n      0x1e\n        /* \"Dapp/MoneyTransfer.sol\":3626:3643  firstTransferTime */\n      sload(0x0d)\n        /* \"Dapp/MoneyTransfer.sol\":3626:3656  firstTransferTime + 30 seconds */\n      tag_104\n      swap2\n      swap1\n      tag_91\n      jump\t// in\n    tag_104:\n        /* \"Dapp/MoneyTransfer.sol\":3606:3621  block.timestamp */\n      timestamp\n        /* \"Dapp/MoneyTransfer.sol\":3606:3657  block.timestamp <= (firstTransferTime + 30 seconds) */\n      gt\n      iszero\n        /* \"Dapp/MoneyTransfer.sol\":3588:3657  callCount >= 5 && block.timestamp <= (firstTransferTime + 30 seconds) */\n    tag_103:\n        /* \"Dapp/MoneyTransfer.sol\":3585:3802  if(callCount >= 5 && block.timestamp <= (firstTransferTime + 30 seconds)){... */\n      iszero\n      tag_105\n      jumpi\n        /* \"Dapp/MoneyTransfer.sol\":3685:3686  0 */\n      0x00\n        /* \"Dapp/MoneyTransfer.sol\":3673:3682  callCount */\n      0x0f\n        /* \"Dapp/MoneyTransfer.sol\":3673:3686  callCount = 0 */\n      dup2\n      swap1\n      sstore\n      pop\n        /* \"Dapp/MoneyTransfer.sol\":3721:3722  0 */\n      0x00\n        /* \"Dapp/MoneyTransfer.sol\":3708:3717  callCount */\n      sload(0x0f)\n        /* \"Dapp/MoneyTransfer.sol\":3708:3722  callCount == 0 */\n      eq\n        /* \"Dapp/MoneyTransfer.sol\":3701:3723  assert(callCount == 0) */\n      tag_106\n      jumpi\n      tag_107\n      tag_95\n      jump\t// in\n    tag_107:\n    tag_106:\n        /* \"Dapp/MoneyTransfer.sol\":3738:3776  revert(\"only 5 transactions per day\" ) */\n      mload(0x40)\n      0x08c379a000000000000000000000000000000000000000000000000000000000\n      dup2\n      mstore\n      0x04\n      add\n      tag_108\n      swap1\n      tag_109\n      jump\t// in\n    tag_108:\n      mload(0x40)\n      dup1\n      swap2\n      sub\n      swap1\n      revert\n        /* \"Dapp/MoneyTransfer.sol\":3585:3802  if(callCount >= 5 && block.timestamp <= (firstTransferTime + 30 seconds)){... */\n    tag_105:\n        /* \"Dapp/MoneyTransfer.sol\":3830:3831  5 */\n      0x05\n        /* \"Dapp/MoneyTransfer.sol\":3817:3826  callCount */\n      sload(0x0f)\n        /* \"Dapp/MoneyTransfer.sol\":3817:3831  callCount <= 5 */\n      gt\n      iszero\n        /* \"Dapp/MoneyTransfer.sol\":3817:3886  callCount <= 5 && block.timestamp >= (firstTransferTime + 30 seconds) */\n      dup1\n      iszero\n      tag_110\n      jumpi\n      pop\n        /* \"Dapp/MoneyTransfer.sol\":3875:3885  30 seconds */\n      0x1e\n        /* \"Dapp/MoneyTransfer.sol\":3855:3872  firstTransferTime */\n      sload(0x0d)\n        /* \"Dapp/MoneyTransfer.sol\":3855:3885  firstTransferTime + 30 seconds */\n      tag_111\n      swap2\n      swap1\n      tag_91\n      jump\t// in\n    tag_111:\n        /* \"Dapp/MoneyTransfer.sol\":3835:3850  block.timestamp */\n      timestamp\n        /* \"Dapp/MoneyTransfer.sol\":3835:3886  block.timestamp >= (firstTransferTime + 30 seconds) */\n      lt\n      iszero\n        /* \"Dapp/MoneyTransfer.sol\":3817:3886  callCount <= 5 && block.timestamp >= (firstTransferTime + 30 seconds) */\n    tag_110:\n        /* \"Dapp/MoneyTransfer.sol\":3814:4015  if(callCount <= 5 && block.timestamp >= (firstTransferTime + 30 seconds)){... */\n      iszero\n      tag_112\n      jumpi\n        /* \"Dapp/MoneyTransfer.sol\":3914:3915  0 */\n      0x00\n        /* \"Dapp/MoneyTransfer.sol\":3902:3911  callCount */\n      0x0f\n        /* \"Dapp/MoneyTransfer.sol\":3902:3915  callCount = 0 */\n      dup2\n      swap1\n      sstore\n      pop\n        /* \"Dapp/MoneyTransfer.sol\":3951:3952  0 */\n      0x00\n        /* \"Dapp/MoneyTransfer.sol\":3938:3947  callCount */\n      sload(0x0f)\n        /* \"Dapp/MoneyTransfer.sol\":3938:3952  callCount == 0 */\n      eq\n        /* \"Dapp/MoneyTransfer.sol\":3931:3953  assert(callCount == 0) */\n      tag_113\n      jumpi\n      tag_114\n      tag_95\n      jump\t// in\n    tag_114:\n    tag_113:\n        /* \"Dapp/MoneyTransfer.sol\":3988:4003  block.timestamp */\n      timestamp\n        /* \"Dapp/MoneyTransfer.sol\":3968:3985  firstTransferTime */\n      0x0d\n        /* \"Dapp/MoneyTransfer.sol\":3968:4003  firstTransferTime = block.timestamp */\n      dup2\n      swap1\n      sstore\n      pop\n        /* \"Dapp/MoneyTransfer.sol\":3814:4015  if(callCount <= 5 && block.timestamp >= (firstTransferTime + 30 seconds)){... */\n    tag_112:\n        /* \"Dapp/MoneyTransfer.sol\":962:971  _receiver */\n      dup2\n        /* \"Dapp/MoneyTransfer.sol\":951:959  receiver */\n      0x02\n      0x00\n        /* \"Dapp/MoneyTransfer.sol\":951:971  receiver = _receiver */\n      0x0100\n      exp\n      dup2\n      sload\n      dup2\n      0xffffffffffffffffffffffffffffffffffffffff\n      mul\n      not\n      and\n      swap1\n      dup4\n      0xffffffffffffffffffffffffffffffffffffffff\n      and\n      mul\n      or\n      swap1\n      sstore\n      pop\n        /* \"Dapp/MoneyTransfer.sol\":991:998  _amount */\n      dup3\n        /* \"Dapp/MoneyTransfer.sol\":982:988  amount */\n      0x00\n        /* \"Dapp/MoneyTransfer.sol\":982:998  amount = _amount */\n      dup2\n      swap1\n      sstore\n      pop\n        /* \"Dapp/MoneyTransfer.sol\":1023:1027  2500 */\n      0x09c4\n        /* \"Dapp/MoneyTransfer.sol\":1014:1020  amount */\n      sload(0x00)\n        /* \"Dapp/MoneyTransfer.sol\":1014:1027  amount > 2500 */\n      gt\n        /* \"Dapp/MoneyTransfer.sol\":1011:1093  if(amount > 2500){... */\n      iszero\n      tag_116\n      jumpi\n        /* \"Dapp/MoneyTransfer.sol\":1043:1081  revert(\"You reached the limit Send()\") */\n      mload(0x40)\n      0x08c379a000000000000000000000000000000000000000000000000000000000\n      dup2\n      mstore\n      0x04\n      add\n      tag_117\n      swap1\n      tag_118\n      jump\t// in\n    tag_117:\n      mload(0x40)\n      dup1\n      swap2\n      sub\n      swap1\n      revert\n        /* \"Dapp/MoneyTransfer.sol\":1011:1093  if(amount > 2500){... */\n    tag_116:\n        /* \"Dapp/MoneyTransfer.sol\":1162:1163  1 */\n      0x01\n        /* \"Dapp/MoneyTransfer.sol\":1149:1158  callCount */\n      0x0f\n      0x00\n        /* \"Dapp/MoneyTransfer.sol\":1149:1163  callCount += 1 */\n      dup3\n      dup3\n      sload\n      tag_119\n      swap2\n      swap1\n      tag_91\n      jump\t// in\n    tag_119:\n      swap3\n      pop\n      pop\n      dup2\n      swap1\n      sstore\n      pop\n        /* \"Dapp/MoneyTransfer.sol\":1219:1220  0 */\n      0x00\n        /* \"Dapp/MoneyTransfer.sol\":1206:1216  TotalFunds */\n      sload(0x01)\n        /* \"Dapp/MoneyTransfer.sol\":1206:1220  TotalFunds > 0 */\n      gt\n        /* \"Dapp/MoneyTransfer.sol\":1206:1243  TotalFunds > 0 && TotalFunds > amount */\n      dup1\n      iszero\n      tag_120\n      jumpi\n      pop\n        /* \"Dapp/MoneyTransfer.sol\":1237:1243  amount */\n      sload(0x00)\n        /* \"Dapp/MoneyTransfer.sol\":1224:1234  TotalFunds */\n      sload(0x01)\n        /* \"Dapp/MoneyTransfer.sol\":1224:1243  TotalFunds > amount */\n      gt\n        /* \"Dapp/MoneyTransfer.sol\":1206:1243  TotalFunds > 0 && TotalFunds > amount */\n    tag_120:\n        /* \"Dapp/MoneyTransfer.sol\":1203:1581  if(TotalFunds > 0 && TotalFunds > amount){... */\n      iszero\n      tag_121\n      jumpi\n        /* \"Dapp/MoneyTransfer.sol\":1281:1287  amount */\n      sload(0x00)\n        /* \"Dapp/MoneyTransfer.sol\":1267:1277  TotalFunds */\n      0x01\n      0x00\n        /* \"Dapp/MoneyTransfer.sol\":1267:1287  TotalFunds -= amount */\n      dup3\n      dup3\n      sload\n      tag_122\n      swap2\n      swap1\n      tag_123\n      jump\t// in\n    tag_122:\n      swap3\n      pop\n      pop\n      dup2\n      swap1\n      sstore\n      pop\n        /* \"Dapp/MoneyTransfer.sol\":1325:1331  amount */\n      sload(0x00)\n        /* \"Dapp/MoneyTransfer.sol\":1310:1321  TotalAmount */\n      0x0c\n      0x00\n        /* \"Dapp/MoneyTransfer.sol\":1310:1331  TotalAmount += amount */\n      dup3\n      dup3\n      sload\n      tag_124\n      swap2\n      swap1\n      tag_91\n      jump\t// in\n    tag_124:\n      swap3\n      pop\n      pop\n      dup2\n      swap1\n      sstore\n      pop\n        /* \"Dapp/MoneyTransfer.sol\":1376:1406  message = \"Transfer completed\" */\n      mload(0x40)\n      dup1\n      0x40\n      add\n      0x40\n      mstore\n      dup1\n      0x12\n      dup2\n      mstore\n      0x20\n      add\n      0x5472616e7366657220636f6d706c657465640000000000000000000000000000\n      dup2\n      mstore\n      pop\n        /* \"Dapp/MoneyTransfer.sol\":1376:1383  message */\n      0x09\n        /* \"Dapp/MoneyTransfer.sol\":1376:1406  message = \"Transfer completed\" */\n      swap1\n      dup2\n      tag_125\n      swap2\n      swap1\n      tag_126\n      jump\t// in\n    tag_125:\n      pop\n        /* \"Dapp/MoneyTransfer.sol\":1203:1581  if(TotalFunds > 0 && TotalFunds > amount){... */\n      jump(tag_127)\n    tag_121:\n        /* \"Dapp/MoneyTransfer.sol\":1534:1560  revert(\"Not enough funds\") */\n      mload(0x40)\n      0x08c379a000000000000000000000000000000000000000000000000000000000\n      dup2\n      mstore\n      0x04\n      add\n      tag_128\n      swap1\n      tag_129\n      jump\t// in\n    tag_128:\n      mload(0x40)\n      dup1\n      swap2\n      sub\n      swap1\n      revert\n        /* \"Dapp/MoneyTransfer.sol\":1203:1581  if(TotalFunds > 0 && TotalFunds > amount){... */\n    tag_127:\n        /* \"Dapp/MoneyTransfer.sol\":824:1659  function sendMoney( uint _amount, address _receiver) public m_validAddress(_receiver) m_ifCardExists m_transferLimit{... */\n      pop\n      pop\n      pop\n      jump\t// out\n        /* \"Dapp/MoneyTransfer.sol\":524:553  uint public firstTransferTime */\n    tag_32:\n      sload(0x0d)\n      dup2\n      jump\t// out\n        /* \"Dapp/MoneyTransfer.sol\":1667:1932  function setCard(string memory _cardNumber, string memory _cvv) public  m_checkCard {... */\n    tag_38:\n        /* \"Dapp/MoneyTransfer.sol\":1781:1792  _cardNumber */\n      dup2\n        /* \"Dapp/MoneyTransfer.sol\":1768:1778  cardNumber */\n      0x0a\n        /* \"Dapp/MoneyTransfer.sol\":1768:1792  cardNumber = _cardNumber */\n      swap1\n      dup2\n      tag_132\n      swap2\n      swap1\n      tag_126\n      jump\t// in\n    tag_132:\n      pop\n        /* \"Dapp/MoneyTransfer.sol\":1813:1817  _cvv */\n      dup1\n        /* \"Dapp/MoneyTransfer.sol\":1807:1810  cvv */\n      0x0b\n        /* \"Dapp/MoneyTransfer.sol\":1807:1817  cvv = _cvv */\n      swap1\n      dup2\n      tag_133\n      swap2\n      swap1\n      tag_126\n      jump\t// in\n    tag_133:\n      pop\n        /* \"Dapp/MoneyTransfer.sol\":1865:1869  true */\n      0x01\n        /* \"Dapp/MoneyTransfer.sol\":1851:1862  callPutCard */\n      0x10\n      0x00\n        /* \"Dapp/MoneyTransfer.sol\":1851:1869  callPutCard = true */\n      0x0100\n      exp\n      dup2\n      sload\n      dup2\n      0xff\n      mul\n      not\n      and\n      swap1\n      dup4\n      iszero\n      iszero\n      mul\n      or\n      swap1\n      sstore\n      pop\n        /* \"Dapp/MoneyTransfer.sol\":1907:1922  block.timestamp */\n      timestamp\n        /* \"Dapp/MoneyTransfer.sol\":1887:1904  firstTransferTime */\n      0x0d\n        /* \"Dapp/MoneyTransfer.sol\":1887:1922  firstTransferTime = block.timestamp */\n      dup2\n      swap1\n      sstore\n      pop\n        /* \"Dapp/MoneyTransfer.sol\":2478:2479  8 */\n      0x08\n        /* \"Dapp/MoneyTransfer.sol\":2456:2466  cardNumber */\n      0x0a\n        /* \"Dapp/MoneyTransfer.sol\":2450:2474  bytes(cardNumber).length */\n      dup1\n      sload\n      tag_134\n      swap1\n      tag_135\n      jump\t// in\n    tag_134:\n      swap1\n      pop\n        /* \"Dapp/MoneyTransfer.sol\":2450:2479  bytes(cardNumber).length == 8 */\n      eq\n        /* \"Dapp/MoneyTransfer.sol\":2450:2505  bytes(cardNumber).length == 8 && bytes(cvv).length == 3 */\n      dup1\n      iszero\n      tag_136\n      jumpi\n      pop\n        /* \"Dapp/MoneyTransfer.sol\":2504:2505  3 */\n      0x03\n        /* \"Dapp/MoneyTransfer.sol\":2489:2492  cvv */\n      0x0b\n        /* \"Dapp/MoneyTransfer.sol\":2483:2500  bytes(cvv).length */\n      dup1\n      sload\n      tag_137\n      swap1\n      tag_135\n      jump\t// in\n    tag_137:\n      swap1\n      pop\n        /* \"Dapp/MoneyTransfer.sol\":2483:2505  bytes(cvv).length == 3 */\n      eq\n        /* \"Dapp/MoneyTransfer.sol\":2450:2505  bytes(cardNumber).length == 8 && bytes(cvv).length == 3 */\n    tag_136:\n        /* \"Dapp/MoneyTransfer.sol\":2442:2530  require(bytes(cardNumber).length == 8 && bytes(cvv).length == 3, \"No valid credit card\") */\n      tag_138\n      jumpi\n      mload(0x40)\n      0x08c379a000000000000000000000000000000000000000000000000000000000\n      dup2\n      mstore\n      0x04\n      add\n      tag_139\n      swap1\n      tag_140\n      jump\t// in\n    tag_139:\n      mload(0x40)\n      dup1\n      swap2\n      sub\n      swap1\n      revert\n    tag_138:\n        /* \"Dapp/MoneyTransfer.sol\":1667:1932  function setCard(string memory _cardNumber, string memory _cvv) public  m_checkCard {... */\n      pop\n      pop\n      jump\t// out\n        /* \"Dapp/MoneyTransfer.sol\":560:585  uint public countTransfer */\n    tag_40:\n      sload(0x0e)\n      dup2\n      jump\t// out\n        /* \"Dapp/MoneyTransfer.sol\":783:814  bool public callPutCard = false */\n    tag_43:\n      0x10\n      0x00\n      swap1\n      sload\n      swap1\n      0x0100\n      exp\n      swap1\n      div\n      0xff\n      and\n      dup2\n      jump\t// out\n        /* \"Dapp/MoneyTransfer.sol\":470:487  string public cvv */\n    tag_47:\n      0x0b\n      dup1\n      sload\n      tag_141\n      swap1\n      tag_135\n      jump\t// in\n    tag_141:\n      dup1\n      0x1f\n      add\n      0x20\n      dup1\n      swap2\n      div\n      mul\n      0x20\n      add\n      mload(0x40)\n      swap1\n      dup2\n      add\n      0x40\n      mstore\n      dup1\n      swap3\n      swap2\n      swap1\n      dup2\n      dup2\n      mstore\n      0x20\n      add\n      dup3\n      dup1\n      sload\n      tag_142\n      swap1\n      tag_135\n      jump\t// in\n    tag_142:\n      dup1\n      iszero\n      tag_143\n      jumpi\n      dup1\n      0x1f\n      lt\n      tag_144\n      jumpi\n      0x0100\n      dup1\n      dup4\n      sload\n      div\n      mul\n      dup4\n      mstore\n      swap2\n      0x20\n      add\n      swap2\n      jump(tag_143)\n    tag_144:\n      dup3\n      add\n      swap2\n      swap1\n      0x00\n      mstore\n      keccak256(0x00, 0x20)\n      swap1\n    tag_145:\n      dup2\n      sload\n      dup2\n      mstore\n      swap1\n      0x01\n      add\n      swap1\n      0x20\n      add\n      dup1\n      dup4\n      gt\n      tag_145\n      jumpi\n      dup3\n      swap1\n      sub\n      0x1f\n      and\n      dup3\n      add\n      swap2\n    tag_143:\n      pop\n      pop\n      pop\n      pop\n      pop\n      dup2\n      jump\t// out\n        /* \"Dapp/MoneyTransfer.sol\":750:775  uint public callCount = 0 */\n    tag_51:\n      sload(0x0f)\n      dup2\n      jump\t// out\n        /* \"Dapp/MoneyTransfer.sol\":4071:4157  function getTime()public view returns(uint ){... */\n    tag_54:\n        /* \"Dapp/MoneyTransfer.sol\":4109:4113  uint */\n      0x00\n        /* \"Dapp/MoneyTransfer.sol\":4134:4149  block.timestamp */\n      timestamp\n        /* \"Dapp/MoneyTransfer.sol\":4126:4149  return  block.timestamp */\n      swap1\n      pop\n        /* \"Dapp/MoneyTransfer.sol\":4071:4157  function getTime()public view returns(uint ){... */\n      swap1\n      jump\t// out\n        /* \"Dapp/MoneyTransfer.sol\":134:159  uint256 public TotalFunds */\n    tag_57:\n      sload(0x01)\n      dup2\n      jump\t// out\n        /* \"Dapp/MoneyTransfer.sol\":494:520  uint256 public TotalAmount */\n    tag_60:\n      sload(0x0c)\n      dup2\n      jump\t// out\n        /* \"Dapp/MoneyTransfer.sol\":1948:2017  function getOutCard() public  {... */\n    tag_63:\n        /* \"Dapp/MoneyTransfer.sol\":2002:2007  false */\n      0x00\n        /* \"Dapp/MoneyTransfer.sol\":1988:1999  callPutCard */\n      0x10\n      0x00\n        /* \"Dapp/MoneyTransfer.sol\":1988:2007  callPutCard = false */\n      0x0100\n      exp\n      dup2\n      sload\n      dup2\n      0xff\n      mul\n      not\n      and\n      swap1\n      dup4\n      iszero\n      iszero\n      mul\n      or\n      swap1\n      sstore\n      pop\n        /* \"Dapp/MoneyTransfer.sol\":1948:2017  function getOutCard() public  {... */\n      jump\t// out\n        /* \"Dapp/MoneyTransfer.sol\":438:462  string public cardNumber */\n    tag_65:\n      0x0a\n      dup1\n      sload\n      tag_148\n      swap1\n      tag_135\n      jump\t// in\n    tag_148:\n      dup1\n      0x1f\n      add\n      0x20\n      dup1\n      swap2\n      div\n      mul\n      0x20\n      add\n      mload(0x40)\n      swap1\n      dup2\n      add\n      0x40\n      mstore\n      dup1\n      swap3\n      swap2\n      swap1\n      dup2\n      dup2\n      mstore\n      0x20\n      add\n      dup3\n      dup1\n      sload\n      tag_149\n      swap1\n      tag_135\n      jump\t// in\n    tag_149:\n      dup1\n      iszero\n      tag_150\n      jumpi\n      dup1\n      0x1f\n      lt\n      tag_151\n      jumpi\n      0x0100\n      dup1\n      dup4\n      sload\n      div\n      mul\n      dup4\n      mstore\n      swap2\n      0x20\n      add\n      swap2\n      jump(tag_150)\n    tag_151:\n      dup3\n      add\n      swap2\n      swap1\n      0x00\n      mstore\n      keccak256(0x00, 0x20)\n      swap1\n    tag_152:\n      dup2\n      sload\n      dup2\n      mstore\n      swap1\n      0x01\n      add\n      swap1\n      0x20\n      add\n      dup1\n      dup4\n      gt\n      tag_152\n      jumpi\n      dup3\n      swap1\n      sub\n      0x1f\n      and\n      dup3\n      add\n      swap2\n    tag_150:\n      pop\n      pop\n      pop\n      pop\n      pop\n      dup2\n      jump\t// out\n        /* \"Dapp/MoneyTransfer.sol\":252:288  uint256 public totalWeekTransactions */\n    tag_68:\n      sload(0x04)\n      dup2\n      jump\t// out\n        /* \"Dapp/MoneyTransfer.sol\":106:127  uint256 public amount */\n    tag_71:\n      sload(0x00)\n      dup2\n      jump\t// out\n        /* \"Dapp/MoneyTransfer.sol\":375:403  uint256 public receiverFunds */\n    tag_74:\n      sload(0x08)\n      dup2\n      jump\t// out\n        /* \"Dapp/MoneyTransfer.sol\":410:431  string public message */\n    tag_77:\n      0x09\n      dup1\n      sload\n      tag_153\n      swap1\n      tag_135\n      jump\t// in\n    tag_153:\n      dup1\n      0x1f\n      add\n      0x20\n      dup1\n      swap2\n      div\n      mul\n      0x20\n      add\n      mload(0x40)\n      swap1\n      dup2\n      add\n      0x40\n      mstore\n      dup1\n      swap3\n      swap2\n      swap1\n      dup2\n      dup2\n      mstore\n      0x20\n      add\n      dup3\n      dup1\n      sload\n      tag_154\n      swap1\n      tag_135\n      jump\t// in\n    tag_154:\n      dup1\n      iszero\n      tag_155\n      jumpi\n      dup1\n      0x1f\n      lt\n      tag_156\n      jumpi\n      0x0100\n      dup1\n      dup4\n      sload\n      div\n      mul\n      dup4\n      mstore\n      swap2\n      0x20\n      add\n      swap2\n      jump(tag_155)\n    tag_156:\n      dup3\n      add\n      swap2\n      swap1\n      0x00\n      mstore\n      keccak256(0x00, 0x20)\n      swap1\n    tag_157:\n      dup2\n      sload\n      dup2\n      mstore\n      swap1\n      0x01\n      add\n      swap1\n      0x20\n      add\n      dup1\n      dup4\n      gt\n      tag_157\n      jumpi\n      dup3\n      swap1\n      sub\n      0x1f\n      and\n      dup3\n      add\n      swap2\n    tag_155:\n      pop\n      pop\n      pop\n      pop\n      pop\n      dup2\n      jump\t// out\n        /* \"#utility.yul\":7:82   */\n    tag_158:\n        /* \"#utility.yul\":40:46   */\n      0x00\n        /* \"#utility.yul\":73:75   */\n      0x40\n        /* \"#utility.yul\":67:76   */\n      mload\n        /* \"#utility.yul\":57:76   */\n      swap1\n      pop\n        /* \"#utility.yul\":7:82   */\n      swap1\n      jump\t// out\n        /* \"#utility.yul\":88:205   */\n    tag_159:\n        /* \"#utility.yul\":197:198   */\n      0x00\n        /* \"#utility.yul\":194:195   */\n      dup1\n        /* \"#utility.yul\":187:199   */\n      revert\n        /* \"#utility.yul\":211:328   */\n    tag_160:\n        /* \"#utility.yul\":320:321   */\n      0x00\n        /* \"#utility.yul\":317:318   */\n      dup1\n        /* \"#utility.yul\":310:322   */\n      revert\n        /* \"#utility.yul\":334:411   */\n    tag_161:\n        /* \"#utility.yul\":371:378   */\n      0x00\n        /* \"#utility.yul\":400:405   */\n      dup2\n        /* \"#utility.yul\":389:405   */\n      swap1\n      pop\n        /* \"#utility.yul\":334:411   */\n      swap2\n      swap1\n      pop\n      jump\t// out\n        /* \"#utility.yul\":417:539   */\n    tag_162:\n        /* \"#utility.yul\":490:514   */\n      tag_222\n        /* \"#utility.yul\":508:513   */\n      dup2\n        /* \"#utility.yul\":490:514   */\n      tag_161\n      jump\t// in\n    tag_222:\n        /* \"#utility.yul\":483:488   */\n      dup2\n        /* \"#utility.yul\":480:515   */\n      eq\n        /* \"#utility.yul\":470:533   */\n      tag_223\n      jumpi\n        /* \"#utility.yul\":529:530   */\n      0x00\n        /* \"#utility.yul\":526:527   */\n      dup1\n        /* \"#utility.yul\":519:531   */\n      revert\n        /* \"#utility.yul\":470:533   */\n    tag_223:\n        /* \"#utility.yul\":417:539   */\n      pop\n      jump\t// out\n        /* \"#utility.yul\":545:684   */\n    tag_163:\n        /* \"#utility.yul\":591:596   */\n      0x00\n        /* \"#utility.yul\":629:635   */\n      dup2\n        /* \"#utility.yul\":616:636   */\n      calldataload\n        /* \"#utility.yul\":607:636   */\n      swap1\n      pop\n        /* \"#utility.yul\":645:678   */\n      tag_225\n        /* \"#utility.yul\":672:677   */\n      dup2\n        /* \"#utility.yul\":645:678   */\n      tag_162\n      jump\t// in\n    tag_225:\n        /* \"#utility.yul\":545:684   */\n      swap3\n      swap2\n      pop\n      pop\n      jump\t// out\n        /* \"#utility.yul\":690:1019   */\n    tag_25:\n        /* \"#utility.yul\":749:755   */\n      0x00\n        /* \"#utility.yul\":798:800   */\n      0x20\n        /* \"#utility.yul\":786:795   */\n      dup3\n        /* \"#utility.yul\":777:784   */\n      dup5\n        /* \"#utility.yul\":773:796   */\n      sub\n        /* \"#utility.yul\":769:801   */\n      slt\n        /* \"#utility.yul\":766:885   */\n      iszero\n      tag_227\n      jumpi\n        /* \"#utility.yul\":804:883   */\n      tag_228\n      tag_159\n      jump\t// in\n    tag_228:\n        /* \"#utility.yul\":766:885   */\n    tag_227:\n        /* \"#utility.yul\":924:925   */\n      0x00\n        /* \"#utility.yul\":949:1002   */\n      tag_229\n        /* \"#utility.yul\":994:1001   */\n      dup5\n        /* \"#utility.yul\":985:991   */\n      dup3\n        /* \"#utility.yul\":974:983   */\n      dup6\n        /* \"#utility.yul\":970:992   */\n      add\n        /* \"#utility.yul\":949:1002   */\n      tag_163\n      jump\t// in\n    tag_229:\n        /* \"#utility.yul\":939:1002   */\n      swap2\n      pop\n        /* \"#utility.yul\":895:1012   */\n      pop\n        /* \"#utility.yul\":690:1019   */\n      swap3\n      swap2\n      pop\n      pop\n      jump\t// out\n        /* \"#utility.yul\":1025:1151   */\n    tag_164:\n        /* \"#utility.yul\":1062:1069   */\n      0x00\n        /* \"#utility.yul\":1102:1144   */\n      0xffffffffffffffffffffffffffffffffffffffff\n        /* \"#utility.yul\":1095:1100   */\n      dup3\n        /* \"#utility.yul\":1091:1145   */\n      and\n        /* \"#utility.yul\":1080:1145   */\n      swap1\n      pop\n        /* \"#utility.yul\":1025:1151   */\n      swap2\n      swap1\n      pop\n      jump\t// out\n        /* \"#utility.yul\":1157:1253   */\n    tag_165:\n        /* \"#utility.yul\":1194:1201   */\n      0x00\n        /* \"#utility.yul\":1223:1247   */\n      tag_232\n        /* \"#utility.yul\":1241:1246   */\n      dup3\n        /* \"#utility.yul\":1223:1247   */\n      tag_164\n      jump\t// in\n    tag_232:\n        /* \"#utility.yul\":1212:1247   */\n      swap1\n      pop\n        /* \"#utility.yul\":1157:1253   */\n      swap2\n      swap1\n      pop\n      jump\t// out\n        /* \"#utility.yul\":1259:1381   */\n    tag_166:\n        /* \"#utility.yul\":1332:1356   */\n      tag_234\n        /* \"#utility.yul\":1350:1355   */\n      dup2\n        /* \"#utility.yul\":1332:1356   */\n      tag_165\n      jump\t// in\n    tag_234:\n        /* \"#utility.yul\":1325:1330   */\n      dup2\n        /* \"#utility.yul\":1322:1357   */\n      eq\n        /* \"#utility.yul\":1312:1375   */\n      tag_235\n      jumpi\n        /* \"#utility.yul\":1371:1372   */\n      0x00\n        /* \"#utility.yul\":1368:1369   */\n      dup1\n        /* \"#utility.yul\":1361:1373   */\n      revert\n        /* \"#utility.yul\":1312:1375   */\n    tag_235:\n        /* \"#utility.yul\":1259:1381   */\n      pop\n      jump\t// out\n        /* \"#utility.yul\":1387:1526   */\n    tag_167:\n        /* \"#utility.yul\":1433:1438   */\n      0x00\n        /* \"#utility.yul\":1471:1477   */\n      dup2\n        /* \"#utility.yul\":1458:1478   */\n      calldataload\n        /* \"#utility.yul\":1449:1478   */\n      swap1\n      pop\n        /* \"#utility.yul\":1487:1520   */\n      tag_237\n        /* \"#utility.yul\":1514:1519   */\n      dup2\n        /* \"#utility.yul\":1487:1520   */\n      tag_166\n      jump\t// in\n    tag_237:\n        /* \"#utility.yul\":1387:1526   */\n      swap3\n      swap2\n      pop\n      pop\n      jump\t// out\n        /* \"#utility.yul\":1532:2006   */\n    tag_29:\n        /* \"#utility.yul\":1600:1606   */\n      0x00\n        /* \"#utility.yul\":1608:1614   */\n      dup1\n        /* \"#utility.yul\":1657:1659   */\n      0x40\n        /* \"#utility.yul\":1645:1654   */\n      dup4\n        /* \"#utility.yul\":1636:1643   */\n      dup6\n        /* \"#utility.yul\":1632:1655   */\n      sub\n        /* \"#utility.yul\":1628:1660   */\n      slt\n        /* \"#utility.yul\":1625:1744   */\n      iszero\n      tag_239\n      jumpi\n        /* \"#utility.yul\":1663:1742   */\n      tag_240\n      tag_159\n      jump\t// in\n    tag_240:\n        /* \"#utility.yul\":1625:1744   */\n    tag_239:\n        /* \"#utility.yul\":1783:1784   */\n      0x00\n        /* \"#utility.yul\":1808:1861   */\n      tag_241\n        /* \"#utility.yul\":1853:1860   */\n      dup6\n        /* \"#utility.yul\":1844:1850   */\n      dup3\n        /* \"#utility.yul\":1833:1842   */\n      dup7\n        /* \"#utility.yul\":1829:1851   */\n      add\n        /* \"#utility.yul\":1808:1861   */\n      tag_163\n      jump\t// in\n    tag_241:\n        /* \"#utility.yul\":1798:1861   */\n      swap3\n      pop\n        /* \"#utility.yul\":1754:1871   */\n      pop\n        /* \"#utility.yul\":1910:1912   */\n      0x20\n        /* \"#utility.yul\":1936:1989   */\n      tag_242\n        /* \"#utility.yul\":1981:1988   */\n      dup6\n        /* \"#utility.yul\":1972:1978   */\n      dup3\n        /* \"#utility.yul\":1961:1970   */\n      dup7\n        /* \"#utility.yul\":1957:1979   */\n      add\n        /* \"#utility.yul\":1936:1989   */\n      tag_167\n      jump\t// in\n    tag_242:\n        /* \"#utility.yul\":1926:1989   */\n      swap2\n      pop\n        /* \"#utility.yul\":1881:1999   */\n      pop\n        /* \"#utility.yul\":1532:2006   */\n      swap3\n      pop\n      swap3\n      swap1\n      pop\n      jump\t// out\n        /* \"#utility.yul\":2012:2130   */\n    tag_168:\n        /* \"#utility.yul\":2099:2123   */\n      tag_244\n        /* \"#utility.yul\":2117:2122   */\n      dup2\n        /* \"#utility.yul\":2099:2123   */\n      tag_161\n      jump\t// in\n    tag_244:\n        /* \"#utility.yul\":2094:2097   */\n      dup3\n        /* \"#utility.yul\":2087:2124   */\n      mstore\n        /* \"#utility.yul\":2012:2130   */\n      pop\n      pop\n      jump\t// out\n        /* \"#utility.yul\":2136:2358   */\n    tag_34:\n        /* \"#utility.yul\":2229:2233   */\n      0x00\n        /* \"#utility.yul\":2267:2269   */\n      0x20\n        /* \"#utility.yul\":2256:2265   */\n      dup3\n        /* \"#utility.yul\":2252:2270   */\n      add\n        /* \"#utility.yul\":2244:2270   */\n      swap1\n      pop\n        /* \"#utility.yul\":2280:2351   */\n      tag_246\n        /* \"#utility.yul\":2348:2349   */\n      0x00\n        /* \"#utility.yul\":2337:2346   */\n      dup4\n        /* \"#utility.yul\":2333:2350   */\n      add\n        /* \"#utility.yul\":2324:2330   */\n      dup5\n        /* \"#utility.yul\":2280:2351   */\n      tag_168\n      jump\t// in\n    tag_246:\n        /* \"#utility.yul\":2136:2358   */\n      swap3\n      swap2\n      pop\n      pop\n      jump\t// out\n        /* \"#utility.yul\":2364:2481   */\n    tag_169:\n        /* \"#utility.yul\":2473:2474   */\n      0x00\n        /* \"#utility.yul\":2470:2471   */\n      dup1\n        /* \"#utility.yul\":2463:2475   */\n      revert\n        /* \"#utility.yul\":2487:2604   */\n    tag_170:\n        /* \"#utility.yul\":2596:2597   */\n      0x00\n        /* \"#utility.yul\":2593:2594   */\n      dup1\n        /* \"#utility.yul\":2586:2598   */\n      revert\n        /* \"#utility.yul\":2610:2712   */\n    tag_171:\n        /* \"#utility.yul\":2651:2657   */\n      0x00\n        /* \"#utility.yul\":2702:2704   */\n      0x1f\n        /* \"#utility.yul\":2698:2705   */\n      not\n        /* \"#utility.yul\":2693:2695   */\n      0x1f\n        /* \"#utility.yul\":2686:2691   */\n      dup4\n        /* \"#utility.yul\":2682:2696   */\n      add\n        /* \"#utility.yul\":2678:2706   */\n      and\n        /* \"#utility.yul\":2668:2706   */\n      swap1\n      pop\n        /* \"#utility.yul\":2610:2712   */\n      swap2\n      swap1\n      pop\n      jump\t// out\n        /* \"#utility.yul\":2718:2898   */\n    tag_172:\n        /* \"#utility.yul\":2766:2843   */\n      0x4e487b7100000000000000000000000000000000000000000000000000000000\n        /* \"#utility.yul\":2763:2764   */\n      0x00\n        /* \"#utility.yul\":2756:2844   */\n      mstore\n        /* \"#utility.yul\":2863:2867   */\n      0x41\n        /* \"#utility.yul\":2860:2861   */\n      0x04\n        /* \"#utility.yul\":2853:2868   */\n      mstore\n        /* \"#utility.yul\":2887:2891   */\n      0x24\n        /* \"#utility.yul\":2884:2885   */\n      0x00\n        /* \"#utility.yul\":2877:2892   */\n      revert\n        /* \"#utility.yul\":2904:3185   */\n    tag_173:\n        /* \"#utility.yul\":2987:3014   */\n      tag_252\n        /* \"#utility.yul\":3009:3013   */\n      dup3\n        /* \"#utility.yul\":2987:3014   */\n      tag_171\n      jump\t// in\n    tag_252:\n        /* \"#utility.yul\":2979:2985   */\n      dup2\n        /* \"#utility.yul\":2975:3015   */\n      add\n        /* \"#utility.yul\":3117:3123   */\n      dup2\n        /* \"#utility.yul\":3105:3115   */\n      dup2\n        /* \"#utility.yul\":3102:3124   */\n      lt\n        /* \"#utility.yul\":3081:3099   */\n      0xffffffffffffffff\n        /* \"#utility.yul\":3069:3079   */\n      dup3\n        /* \"#utility.yul\":3066:3100   */\n      gt\n        /* \"#utility.yul\":3063:3125   */\n      or\n        /* \"#utility.yul\":3060:3148   */\n      iszero\n      tag_253\n      jumpi\n        /* \"#utility.yul\":3128:3146   */\n      tag_254\n      tag_172\n      jump\t// in\n    tag_254:\n        /* \"#utility.yul\":3060:3148   */\n    tag_253:\n        /* \"#utility.yul\":3168:3178   */\n      dup1\n        /* \"#utility.yul\":3164:3166   */\n      0x40\n        /* \"#utility.yul\":3157:3179   */\n      mstore\n        /* \"#utility.yul\":2947:3185   */\n      pop\n        /* \"#utility.yul\":2904:3185   */\n      pop\n      pop\n      jump\t// out\n        /* \"#utility.yul\":3191:3320   */\n    tag_174:\n        /* \"#utility.yul\":3225:3231   */\n      0x00\n        /* \"#utility.yul\":3252:3272   */\n      tag_256\n      tag_158\n      jump\t// in\n    tag_256:\n        /* \"#utility.yul\":3242:3272   */\n      swap1\n      pop\n        /* \"#utility.yul\":3281:3314   */\n      tag_257\n        /* \"#utility.yul\":3309:3313   */\n      dup3\n        /* \"#utility.yul\":3301:3307   */\n      dup3\n        /* \"#utility.yul\":3281:3314   */\n      tag_173\n      jump\t// in\n    tag_257:\n        /* \"#utility.yul\":3191:3320   */\n      swap2\n      swap1\n      pop\n      jump\t// out\n        /* \"#utility.yul\":3326:3634   */\n    tag_175:\n        /* \"#utility.yul\":3388:3392   */\n      0x00\n        /* \"#utility.yul\":3478:3496   */\n      0xffffffffffffffff\n        /* \"#utility.yul\":3470:3476   */\n      dup3\n        /* \"#utility.yul\":3467:3497   */\n      gt\n        /* \"#utility.yul\":3464:3520   */\n      iszero\n      tag_259\n      jumpi\n        /* \"#utility.yul\":3500:3518   */\n      tag_260\n      tag_172\n      jump\t// in\n    tag_260:\n        /* \"#utility.yul\":3464:3520   */\n    tag_259:\n        /* \"#utility.yul\":3538:3567   */\n      tag_261\n        /* \"#utility.yul\":3560:3566   */\n      dup3\n        /* \"#utility.yul\":3538:3567   */\n      tag_171\n      jump\t// in\n    tag_261:\n        /* \"#utility.yul\":3530:3567   */\n      swap1\n      pop\n        /* \"#utility.yul\":3622:3626   */\n      0x20\n        /* \"#utility.yul\":3616:3620   */\n      dup2\n        /* \"#utility.yul\":3612:3627   */\n      add\n        /* \"#utility.yul\":3604:3627   */\n      swap1\n      pop\n        /* \"#utility.yul\":3326:3634   */\n      swap2\n      swap1\n      pop\n      jump\t// out\n        /* \"#utility.yul\":3640:3794   */\n    tag_176:\n        /* \"#utility.yul\":3724:3730   */\n      dup3\n        /* \"#utility.yul\":3719:3722   */\n      dup2\n        /* \"#utility.yul\":3714:3717   */\n      dup4\n        /* \"#utility.yul\":3701:3731   */\n      calldatacopy\n        /* \"#utility.yul\":3786:3787   */\n      0x00\n        /* \"#utility.yul\":3777:3783   */\n      dup4\n        /* \"#utility.yul\":3772:3775   */\n      dup4\n        /* \"#utility.yul\":3768:3784   */\n      add\n        /* \"#utility.yul\":3761:3788   */\n      mstore\n        /* \"#utility.yul\":3640:3794   */\n      pop\n      pop\n      pop\n      jump\t// out\n        /* \"#utility.yul\":3800:4212   */\n    tag_177:\n        /* \"#utility.yul\":3878:3883   */\n      0x00\n        /* \"#utility.yul\":3903:3969   */\n      tag_264\n        /* \"#utility.yul\":3919:3968   */\n      tag_265\n        /* \"#utility.yul\":3961:3967   */\n      dup5\n        /* \"#utility.yul\":3919:3968   */\n      tag_175\n      jump\t// in\n    tag_265:\n        /* \"#utility.yul\":3903:3969   */\n      tag_174\n      jump\t// in\n    tag_264:\n        /* \"#utility.yul\":3894:3969   */\n      swap1\n      pop\n        /* \"#utility.yul\":3992:3998   */\n      dup3\n        /* \"#utility.yul\":3985:3990   */\n      dup2\n        /* \"#utility.yul\":3978:3999   */\n      mstore\n        /* \"#utility.yul\":4030:4034   */\n      0x20\n        /* \"#utility.yul\":4023:4028   */\n      dup2\n        /* \"#utility.yul\":4019:4035   */\n      add\n        /* \"#utility.yul\":4068:4071   */\n      dup5\n        /* \"#utility.yul\":4059:4065   */\n      dup5\n        /* \"#utility.yul\":4054:4057   */\n      dup5\n        /* \"#utility.yul\":4050:4066   */\n      add\n        /* \"#utility.yul\":4047:4072   */\n      gt\n        /* \"#utility.yul\":4044:4156   */\n      iszero\n      tag_266\n      jumpi\n        /* \"#utility.yul\":4075:4154   */\n      tag_267\n      tag_170\n      jump\t// in\n    tag_267:\n        /* \"#utility.yul\":4044:4156   */\n    tag_266:\n        /* \"#utility.yul\":4165:4206   */\n      tag_268\n        /* \"#utility.yul\":4199:4205   */\n      dup5\n        /* \"#utility.yul\":4194:4197   */\n      dup3\n        /* \"#utility.yul\":4189:4192   */\n      dup6\n        /* \"#utility.yul\":4165:4206   */\n      tag_176\n      jump\t// in\n    tag_268:\n        /* \"#utility.yul\":3884:4212   */\n      pop\n        /* \"#utility.yul\":3800:4212   */\n      swap4\n      swap3\n      pop\n      pop\n      pop\n      jump\t// out\n        /* \"#utility.yul\":4232:4572   */\n    tag_178:\n        /* \"#utility.yul\":4288:4293   */\n      0x00\n        /* \"#utility.yul\":4337:4340   */\n      dup3\n        /* \"#utility.yul\":4330:4334   */\n      0x1f\n        /* \"#utility.yul\":4322:4328   */\n      dup4\n        /* \"#utility.yul\":4318:4335   */\n      add\n        /* \"#utility.yul\":4314:4341   */\n      slt\n        /* \"#utility.yul\":4304:4426   */\n      tag_270\n      jumpi\n        /* \"#utility.yul\":4345:4424   */\n      tag_271\n      tag_169\n      jump\t// in\n    tag_271:\n        /* \"#utility.yul\":4304:4426   */\n    tag_270:\n        /* \"#utility.yul\":4462:4468   */\n      dup2\n        /* \"#utility.yul\":4449:4469   */\n      calldataload\n        /* \"#utility.yul\":4487:4566   */\n      tag_272\n        /* \"#utility.yul\":4562:4565   */\n      dup5\n        /* \"#utility.yul\":4554:4560   */\n      dup3\n        /* \"#utility.yul\":4547:4551   */\n      0x20\n        /* \"#utility.yul\":4539:4545   */\n      dup7\n        /* \"#utility.yul\":4535:4552   */\n      add\n        /* \"#utility.yul\":4487:4566   */\n      tag_177\n      jump\t// in\n    tag_272:\n        /* \"#utility.yul\":4478:4566   */\n      swap2\n      pop\n        /* \"#utility.yul\":4294:4572   */\n      pop\n        /* \"#utility.yul\":4232:4572   */\n      swap3\n      swap2\n      pop\n      pop\n      jump\t// out\n        /* \"#utility.yul\":4578:5412   */\n    tag_37:\n        /* \"#utility.yul\":4666:4672   */\n      0x00\n        /* \"#utility.yul\":4674:4680   */\n      dup1\n        /* \"#utility.yul\":4723:4725   */\n      0x40\n        /* \"#utility.yul\":4711:4720   */\n      dup4\n        /* \"#utility.yul\":4702:4709   */\n      dup6\n        /* \"#utility.yul\":4698:4721   */\n      sub\n        /* \"#utility.yul\":4694:4726   */\n      slt\n        /* \"#utility.yul\":4691:4810   */\n      iszero\n      tag_274\n      jumpi\n        /* \"#utility.yul\":4729:4808   */\n      tag_275\n      tag_159\n      jump\t// in\n    tag_275:\n        /* \"#utility.yul\":4691:4810   */\n    tag_274:\n        /* \"#utility.yul\":4877:4878   */\n      0x00\n        /* \"#utility.yul\":4866:4875   */\n      dup4\n        /* \"#utility.yul\":4862:4879   */\n      add\n        /* \"#utility.yul\":4849:4880   */\n      calldataload\n        /* \"#utility.yul\":4907:4925   */\n      0xffffffffffffffff\n        /* \"#utility.yul\":4899:4905   */\n      dup2\n        /* \"#utility.yul\":4896:4926   */\n      gt\n        /* \"#utility.yul\":4893:5010   */\n      iszero\n      tag_276\n      jumpi\n        /* \"#utility.yul\":4929:5008   */\n      tag_277\n      tag_160\n      jump\t// in\n    tag_277:\n        /* \"#utility.yul\":4893:5010   */\n    tag_276:\n        /* \"#utility.yul\":5034:5097   */\n      tag_278\n        /* \"#utility.yul\":5089:5096   */\n      dup6\n        /* \"#utility.yul\":5080:5086   */\n      dup3\n        /* \"#utility.yul\":5069:5078   */\n      dup7\n        /* \"#utility.yul\":5065:5087   */\n      add\n        /* \"#utility.yul\":5034:5097   */\n      tag_178\n      jump\t// in\n    tag_278:\n        /* \"#utility.yul\":5024:5097   */\n      swap3\n      pop\n        /* \"#utility.yul\":4820:5107   */\n      pop\n        /* \"#utility.yul\":5174:5176   */\n      0x20\n        /* \"#utility.yul\":5163:5172   */\n      dup4\n        /* \"#utility.yul\":5159:5177   */\n      add\n        /* \"#utility.yul\":5146:5178   */\n      calldataload\n        /* \"#utility.yul\":5205:5223   */\n      0xffffffffffffffff\n        /* \"#utility.yul\":5197:5203   */\n      dup2\n        /* \"#utility.yul\":5194:5224   */\n      gt\n        /* \"#utility.yul\":5191:5308   */\n      iszero\n      tag_279\n      jumpi\n        /* \"#utility.yul\":5227:5306   */\n      tag_280\n      tag_160\n      jump\t// in\n    tag_280:\n        /* \"#utility.yul\":5191:5308   */\n    tag_279:\n        /* \"#utility.yul\":5332:5395   */\n      tag_281\n        /* \"#utility.yul\":5387:5394   */\n      dup6\n        /* \"#utility.yul\":5378:5384   */\n      dup3\n        /* \"#utility.yul\":5367:5376   */\n      dup7\n        /* \"#utility.yul\":5363:5385   */\n      add\n        /* \"#utility.yul\":5332:5395   */\n      tag_178\n      jump\t// in\n    tag_281:\n        /* \"#utility.yul\":5322:5395   */\n      swap2\n      pop\n        /* \"#utility.yul\":5117:5405   */\n      pop\n        /* \"#utility.yul\":4578:5412   */\n      swap3\n      pop\n      swap3\n      swap1\n      pop\n      jump\t// out\n        /* \"#utility.yul\":5418:5508   */\n    tag_179:\n        /* \"#utility.yul\":5452:5459   */\n      0x00\n        /* \"#utility.yul\":5495:5500   */\n      dup2\n        /* \"#utility.yul\":5488:5501   */\n      iszero\n        /* \"#utility.yul\":5481:5502   */\n      iszero\n        /* \"#utility.yul\":5470:5502   */\n      swap1\n      pop\n        /* \"#utility.yul\":5418:5508   */\n      swap2\n      swap1\n      pop\n      jump\t// out\n        /* \"#utility.yul\":5514:5623   */\n    tag_180:\n        /* \"#utility.yul\":5595:5616   */\n      tag_284\n        /* \"#utility.yul\":5610:5615   */\n      dup2\n        /* \"#utility.yul\":5595:5616   */\n      tag_179\n      jump\t// in\n    tag_284:\n        /* \"#utility.yul\":5590:5593   */\n      dup3\n        /* \"#utility.yul\":5583:5617   */\n      mstore\n        /* \"#utility.yul\":5514:5623   */\n      pop\n      pop\n      jump\t// out\n        /* \"#utility.yul\":5629:5839   */\n    tag_45:\n        /* \"#utility.yul\":5716:5720   */\n      0x00\n        /* \"#utility.yul\":5754:5756   */\n      0x20\n        /* \"#utility.yul\":5743:5752   */\n      dup3\n        /* \"#utility.yul\":5739:5757   */\n      add\n        /* \"#utility.yul\":5731:5757   */\n      swap1\n      pop\n        /* \"#utility.yul\":5767:5832   */\n      tag_286\n        /* \"#utility.yul\":5829:5830   */\n      0x00\n        /* \"#utility.yul\":5818:5827   */\n      dup4\n        /* \"#utility.yul\":5814:5831   */\n      add\n        /* \"#utility.yul\":5805:5811   */\n      dup5\n        /* \"#utility.yul\":5767:5832   */\n      tag_180\n      jump\t// in\n    tag_286:\n        /* \"#utility.yul\":5629:5839   */\n      swap3\n      swap2\n      pop\n      pop\n      jump\t// out\n        /* \"#utility.yul\":5845:5944   */\n    tag_181:\n        /* \"#utility.yul\":5897:5903   */\n      0x00\n        /* \"#utility.yul\":5931:5936   */\n      dup2\n        /* \"#utility.yul\":5925:5937   */\n      mload\n        /* \"#utility.yul\":5915:5937   */\n      swap1\n      pop\n        /* \"#utility.yul\":5845:5944   */\n      swap2\n      swap1\n      pop\n      jump\t// out\n        /* \"#utility.yul\":5950:6119   */\n    tag_182:\n        /* \"#utility.yul\":6034:6045   */\n      0x00\n        /* \"#utility.yul\":6068:6074   */\n      dup3\n        /* \"#utility.yul\":6063:6066   */\n      dup3\n        /* \"#utility.yul\":6056:6075   */\n      mstore\n        /* \"#utility.yul\":6108:6112   */\n      0x20\n        /* \"#utility.yul\":6103:6106   */\n      dup3\n        /* \"#utility.yul\":6099:6113   */\n      add\n        /* \"#utility.yul\":6084:6113   */\n      swap1\n      pop\n        /* \"#utility.yul\":5950:6119   */\n      swap3\n      swap2\n      pop\n      pop\n      jump\t// out\n        /* \"#utility.yul\":6125:6432   */\n    tag_183:\n        /* \"#utility.yul\":6193:6194   */\n      0x00\n        /* \"#utility.yul\":6203:6316   */\n    tag_290:\n        /* \"#utility.yul\":6217:6223   */\n      dup4\n        /* \"#utility.yul\":6214:6215   */\n      dup2\n        /* \"#utility.yul\":6211:6224   */\n      lt\n        /* \"#utility.yul\":6203:6316   */\n      iszero\n      tag_292\n      jumpi\n        /* \"#utility.yul\":6302:6303   */\n      dup1\n        /* \"#utility.yul\":6297:6300   */\n      dup3\n        /* \"#utility.yul\":6293:6304   */\n      add\n        /* \"#utility.yul\":6287:6305   */\n      mload\n        /* \"#utility.yul\":6283:6284   */\n      dup2\n        /* \"#utility.yul\":6278:6281   */\n      dup5\n        /* \"#utility.yul\":6274:6285   */\n      add\n        /* \"#utility.yul\":6267:6306   */\n      mstore\n        /* \"#utility.yul\":6239:6241   */\n      0x20\n        /* \"#utility.yul\":6236:6237   */\n      dup2\n        /* \"#utility.yul\":6232:6242   */\n      add\n        /* \"#utility.yul\":6227:6242   */\n      swap1\n      pop\n        /* \"#utility.yul\":6203:6316   */\n      jump(tag_290)\n    tag_292:\n        /* \"#utility.yul\":6334:6340   */\n      dup4\n        /* \"#utility.yul\":6331:6332   */\n      dup2\n        /* \"#utility.yul\":6328:6341   */\n      gt\n        /* \"#utility.yul\":6325:6426   */\n      iszero\n      tag_293\n      jumpi\n        /* \"#utility.yul\":6414:6415   */\n      0x00\n        /* \"#utility.yul\":6405:6411   */\n      dup5\n        /* \"#utility.yul\":6400:6403   */\n      dup5\n        /* \"#utility.yul\":6396:6412   */\n      add\n        /* \"#utility.yul\":6389:6416   */\n      mstore\n        /* \"#utility.yul\":6325:6426   */\n    tag_293:\n        /* \"#utility.yul\":6174:6432   */\n      pop\n        /* \"#utility.yul\":6125:6432   */\n      pop\n      pop\n      pop\n      jump\t// out\n        /* \"#utility.yul\":6438:6802   */\n    tag_184:\n        /* \"#utility.yul\":6526:6529   */\n      0x00\n        /* \"#utility.yul\":6554:6593   */\n      tag_295\n        /* \"#utility.yul\":6587:6592   */\n      dup3\n        /* \"#utility.yul\":6554:6593   */\n      tag_181\n      jump\t// in\n    tag_295:\n        /* \"#utility.yul\":6609:6680   */\n      tag_296\n        /* \"#utility.yul\":6673:6679   */\n      dup2\n        /* \"#utility.yul\":6668:6671   */\n      dup6\n        /* \"#utility.yul\":6609:6680   */\n      tag_182\n      jump\t// in\n    tag_296:\n        /* \"#utility.yul\":6602:6680   */\n      swap4\n      pop\n        /* \"#utility.yul\":6689:6741   */\n      tag_297\n        /* \"#utility.yul\":6734:6740   */\n      dup2\n        /* \"#utility.yul\":6729:6732   */\n      dup6\n        /* \"#utility.yul\":6722:6726   */\n      0x20\n        /* \"#utility.yul\":6715:6720   */\n      dup7\n        /* \"#utility.yul\":6711:6727   */\n      add\n        /* \"#utility.yul\":6689:6741   */\n      tag_183\n      jump\t// in\n    tag_297:\n        /* \"#utility.yul\":6766:6795   */\n      tag_298\n        /* \"#utility.yul\":6788:6794   */\n      dup2\n        /* \"#utility.yul\":6766:6795   */\n      tag_171\n      jump\t// in\n    tag_298:\n        /* \"#utility.yul\":6761:6764   */\n      dup5\n        /* \"#utility.yul\":6757:6796   */\n      add\n        /* \"#utility.yul\":6750:6796   */\n      swap2\n      pop\n        /* \"#utility.yul\":6530:6802   */\n      pop\n        /* \"#utility.yul\":6438:6802   */\n      swap3\n      swap2\n      pop\n      pop\n      jump\t// out\n        /* \"#utility.yul\":6808:7121   */\n    tag_49:\n        /* \"#utility.yul\":6921:6925   */\n      0x00\n        /* \"#utility.yul\":6959:6961   */\n      0x20\n        /* \"#utility.yul\":6948:6957   */\n      dup3\n        /* \"#utility.yul\":6944:6962   */\n      add\n        /* \"#utility.yul\":6936:6962   */\n      swap1\n      pop\n        /* \"#utility.yul\":7008:7017   */\n      dup2\n        /* \"#utility.yul\":7002:7006   */\n      dup2\n        /* \"#utility.yul\":6998:7018   */\n      sub\n        /* \"#utility.yul\":6994:6995   */\n      0x00\n        /* \"#utility.yul\":6983:6992   */\n      dup4\n        /* \"#utility.yul\":6979:6996   */\n      add\n        /* \"#utility.yul\":6972:7019   */\n      mstore\n        /* \"#utility.yul\":7036:7114   */\n      tag_300\n        /* \"#utility.yul\":7109:7113   */\n      dup2\n        /* \"#utility.yul\":7100:7106   */\n      dup5\n        /* \"#utility.yul\":7036:7114   */\n      tag_184\n      jump\t// in\n    tag_300:\n        /* \"#utility.yul\":7028:7114   */\n      swap1\n      pop\n        /* \"#utility.yul\":6808:7121   */\n      swap3\n      swap2\n      pop\n      pop\n      jump\t// out\n        /* \"#utility.yul\":7127:7305   */\n    tag_185:\n        /* \"#utility.yul\":7267:7297   */\n      0x2054686973206164647265737320646f65736e27742065786973747300000000\n        /* \"#utility.yul\":7263:7264   */\n      0x00\n        /* \"#utility.yul\":7255:7261   */\n      dup3\n        /* \"#utility.yul\":7251:7265   */\n      add\n        /* \"#utility.yul\":7244:7298   */\n      mstore\n        /* \"#utility.yul\":7127:7305   */\n      pop\n      jump\t// out\n        /* \"#utility.yul\":7311:7677   */\n    tag_186:\n        /* \"#utility.yul\":7453:7456   */\n      0x00\n        /* \"#utility.yul\":7474:7541   */\n      tag_303\n        /* \"#utility.yul\":7538:7540   */\n      0x1c\n        /* \"#utility.yul\":7533:7536   */\n      dup4\n        /* \"#utility.yul\":7474:7541   */\n      tag_182\n      jump\t// in\n    tag_303:\n        /* \"#utility.yul\":7467:7541   */\n      swap2\n      pop\n        /* \"#utility.yul\":7550:7643   */\n      tag_304\n        /* \"#utility.yul\":7639:7642   */\n      dup3\n        /* \"#utility.yul\":7550:7643   */\n      tag_185\n      jump\t// in\n    tag_304:\n        /* \"#utility.yul\":7668:7670   */\n      0x20\n        /* \"#utility.yul\":7663:7666   */\n      dup3\n        /* \"#utility.yul\":7659:7671   */\n      add\n        /* \"#utility.yul\":7652:7671   */\n      swap1\n      pop\n        /* \"#utility.yul\":7311:7677   */\n      swap2\n      swap1\n      pop\n      jump\t// out\n        /* \"#utility.yul\":7683:8102   */\n    tag_83:\n        /* \"#utility.yul\":7849:7853   */\n      0x00\n        /* \"#utility.yul\":7887:7889   */\n      0x20\n        /* \"#utility.yul\":7876:7885   */\n      dup3\n        /* \"#utility.yul\":7872:7890   */\n      add\n        /* \"#utility.yul\":7864:7890   */\n      swap1\n      pop\n        /* \"#utility.yul\":7936:7945   */\n      dup2\n        /* \"#utility.yul\":7930:7934   */\n      dup2\n        /* \"#utility.yul\":7926:7946   */\n      sub\n        /* \"#utility.yul\":7922:7923   */\n      0x00\n        /* \"#utility.yul\":7911:7920   */\n      dup4\n        /* \"#utility.yul\":7907:7924   */\n      add\n        /* \"#utility.yul\":7900:7947   */\n      mstore\n        /* \"#utility.yul\":7964:8095   */\n      tag_306\n        /* \"#utility.yul\":8090:8094   */\n      dup2\n        /* \"#utility.yul\":7964:8095   */\n      tag_186\n      jump\t// in\n    tag_306:\n        /* \"#utility.yul\":7956:8095   */\n      swap1\n      pop\n        /* \"#utility.yul\":7683:8102   */\n      swap2\n      swap1\n      pop\n      jump\t// out\n        /* \"#utility.yul\":8108:8281   */\n    tag_187:\n        /* \"#utility.yul\":8248:8273   */\n      0x506c6561736520696e7365727420796f75722063617264000000000000000000\n        /* \"#utility.yul\":8244:8245   */\n      0x00\n        /* \"#utility.yul\":8236:8242   */\n      dup3\n        /* \"#utility.yul\":8232:8246   */\n      add\n        /* \"#utility.yul\":8225:8274   */\n      mstore\n        /* \"#utility.yul\":8108:8281   */\n      pop\n      jump\t// out\n        /* \"#utility.yul\":8287:8653   */\n    tag_188:\n        /* \"#utility.yul\":8429:8432   */\n      0x00\n        /* \"#utility.yul\":8450:8517   */\n      tag_309\n        /* \"#utility.yul\":8514:8516   */\n      0x17\n        /* \"#utility.yul\":8509:8512   */\n      dup4\n        /* \"#utility.yul\":8450:8517   */\n      tag_182\n      jump\t// in\n    tag_309:\n        /* \"#utility.yul\":8443:8517   */\n      swap2\n      pop\n        /* \"#utility.yul\":8526:8619   */\n      tag_310\n        /* \"#utility.yul\":8615:8618   */\n      dup3\n        /* \"#utility.yul\":8526:8619   */\n      tag_187\n      jump\t// in\n    tag_310:\n        /* \"#utility.yul\":8644:8646   */\n      0x20\n        /* \"#utility.yul\":8639:8642   */\n      dup3\n        /* \"#utility.yul\":8635:8647   */\n      add\n        /* \"#utility.yul\":8628:8647   */\n      swap1\n      pop\n        /* \"#utility.yul\":8287:8653   */\n      swap2\n      swap1\n      pop\n      jump\t// out\n        /* \"#utility.yul\":8659:9078   */\n    tag_87:\n        /* \"#utility.yul\":8825:8829   */\n      0x00\n        /* \"#utility.yul\":8863:8865   */\n      0x20\n        /* \"#utility.yul\":8852:8861   */\n      dup3\n        /* \"#utility.yul\":8848:8866   */\n      add\n        /* \"#utility.yul\":8840:8866   */\n      swap1\n      pop\n        /* \"#utility.yul\":8912:8921   */\n      dup2\n        /* \"#utility.yul\":8906:8910   */\n      dup2\n        /* \"#utility.yul\":8902:8922   */\n      sub\n        /* \"#utility.yul\":8898:8899   */\n      0x00\n        /* \"#utility.yul\":8887:8896   */\n      dup4\n        /* \"#utility.yul\":8883:8900   */\n      add\n        /* \"#utility.yul\":8876:8923   */\n      mstore\n        /* \"#utility.yul\":8940:9071   */\n      tag_312\n        /* \"#utility.yul\":9066:9070   */\n      dup2\n        /* \"#utility.yul\":8940:9071   */\n      tag_188\n      jump\t// in\n    tag_312:\n        /* \"#utility.yul\":8932:9071   */\n      swap1\n      pop\n        /* \"#utility.yul\":8659:9078   */\n      swap2\n      swap1\n      pop\n      jump\t// out\n        /* \"#utility.yul\":9084:9264   */\n    tag_189:\n        /* \"#utility.yul\":9132:9209   */\n      0x4e487b7100000000000000000000000000000000000000000000000000000000\n        /* \"#utility.yul\":9129:9130   */\n      0x00\n        /* \"#utility.yul\":9122:9210   */\n      mstore\n        /* \"#utility.yul\":9229:9233   */\n      0x11\n        /* \"#utility.yul\":9226:9227   */\n      0x04\n        /* \"#utility.yul\":9219:9234   */\n      mstore\n        /* \"#utility.yul\":9253:9257   */\n      0x24\n        /* \"#utility.yul\":9250:9251   */\n      0x00\n        /* \"#utility.yul\":9243:9258   */\n      revert\n        /* \"#utility.yul\":9270:9575   */\n    tag_91:\n        /* \"#utility.yul\":9310:9313   */\n      0x00\n        /* \"#utility.yul\":9329:9349   */\n      tag_315\n        /* \"#utility.yul\":9347:9348   */\n      dup3\n        /* \"#utility.yul\":9329:9349   */\n      tag_161\n      jump\t// in\n    tag_315:\n        /* \"#utility.yul\":9324:9349   */\n      swap2\n      pop\n        /* \"#utility.yul\":9363:9383   */\n      tag_316\n        /* \"#utility.yul\":9381:9382   */\n      dup4\n        /* \"#utility.yul\":9363:9383   */\n      tag_161\n      jump\t// in\n    tag_316:\n        /* \"#utility.yul\":9358:9383   */\n      swap3\n      pop\n        /* \"#utility.yul\":9517:9518   */\n      dup3\n        /* \"#utility.yul\":9449:9515   */\n      0xffffffffffffffffffffffffffffffffffffffffffffffffffffffffffffffff\n        /* \"#utility.yul\":9445:9519   */\n      sub\n        /* \"#utility.yul\":9442:9443   */\n      dup3\n        /* \"#utility.yul\":9439:9520   */\n      gt\n        /* \"#utility.yul\":9436:9543   */\n      iszero\n      tag_317\n      jumpi\n        /* \"#utility.yul\":9523:9541   */\n      tag_318\n      tag_189\n      jump\t// in\n    tag_318:\n        /* \"#utility.yul\":9436:9543   */\n    tag_317:\n        /* \"#utility.yul\":9567:9568   */\n      dup3\n        /* \"#utility.yul\":9564:9565   */\n      dup3\n        /* \"#utility.yul\":9560:9569   */\n      add\n        /* \"#utility.yul\":9553:9569   */\n      swap1\n      pop\n        /* \"#utility.yul\":9270:9575   */\n      swap3\n      swap2\n      pop\n      pop\n      jump\t// out\n        /* \"#utility.yul\":9581:9761   */\n    tag_95:\n        /* \"#utility.yul\":9629:9706   */\n      0x4e487b7100000000000000000000000000000000000000000000000000000000\n        /* \"#utility.yul\":9626:9627   */\n      0x00\n        /* \"#utility.yul\":9619:9707   */\n      mstore\n        /* \"#utility.yul\":9726:9730   */\n      0x01\n        /* \"#utility.yul\":9723:9724   */\n      0x04\n        /* \"#utility.yul\":9716:9731   */\n      mstore\n        /* \"#utility.yul\":9750:9754   */\n      0x24\n        /* \"#utility.yul\":9747:9748   */\n      0x00\n        /* \"#utility.yul\":9740:9755   */\n      revert\n        /* \"#utility.yul\":9767:9946   */\n    tag_190:\n        /* \"#utility.yul\":9907:9938   */\n      0x596f75207265616368656420746865206c696d69742070657220646179000000\n        /* \"#utility.yul\":9903:9904   */\n      0x00\n        /* \"#utility.yul\":9895:9901   */\n      dup3\n        /* \"#utility.yul\":9891:9905   */\n      add\n        /* \"#utility.yul\":9884:9939   */\n      mstore\n        /* \"#utility.yul\":9767:9946   */\n      pop\n      jump\t// out\n        /* \"#utility.yul\":9952:10318   */\n    tag_191:\n        /* \"#utility.yul\":10094:10097   */\n      0x00\n        /* \"#utility.yul\":10115:10182   */\n      tag_322\n        /* \"#utility.yul\":10179:10181   */\n      0x1d\n        /* \"#utility.yul\":10174:10177   */\n      dup4\n        /* \"#utility.yul\":10115:10182   */\n      tag_182\n      jump\t// in\n    tag_322:\n        /* \"#utility.yul\":10108:10182   */\n      swap2\n      pop\n        /* \"#utility.yul\":10191:10284   */\n      tag_323\n        /* \"#utility.yul\":10280:10283   */\n      dup3\n        /* \"#utility.yul\":10191:10284   */\n      tag_190\n      jump\t// in\n    tag_323:\n        /* \"#utility.yul\":10309:10311   */\n      0x20\n        /* \"#utility.yul\":10304:10307   */\n      dup3\n        /* \"#utility.yul\":10300:10312   */\n      add\n        /* \"#utility.yul\":10293:10312   */\n      swap1\n      pop\n        /* \"#utility.yul\":9952:10318   */\n      swap2\n      swap1\n      pop\n      jump\t// out\n        /* \"#utility.yul\":10324:10743   */\n    tag_97:\n        /* \"#utility.yul\":10490:10494   */\n      0x00\n        /* \"#utility.yul\":10528:10530   */\n      0x20\n        /* \"#utility.yul\":10517:10526   */\n      dup3\n        /* \"#utility.yul\":10513:10531   */\n      add\n        /* \"#utility.yul\":10505:10531   */\n      swap1\n      pop\n        /* \"#utility.yul\":10577:10586   */\n      dup2\n        /* \"#utility.yul\":10571:10575   */\n      dup2\n        /* \"#utility.yul\":10567:10587   */\n      sub\n        /* \"#utility.yul\":10563:10564   */\n      0x00\n        /* \"#utility.yul\":10552:10561   */\n      dup4\n        /* \"#utility.yul\":10548:10565   */\n      add\n        /* \"#utility.yul\":10541:10588   */\n      mstore\n        /* \"#utility.yul\":10605:10736   */\n      tag_325\n        /* \"#utility.yul\":10731:10735   */\n      dup2\n        /* \"#utility.yul\":10605:10736   */\n      tag_191\n      jump\t// in\n    tag_325:\n        /* \"#utility.yul\":10597:10736   */\n      swap1\n      pop\n        /* \"#utility.yul\":10324:10743   */\n      swap2\n      swap1\n      pop\n      jump\t// out\n        /* \"#utility.yul\":10749:10926   */\n    tag_192:\n        /* \"#utility.yul\":10889:10918   */\n      0x6f6e6c792035207472616e73616374696f6e7320706572206461790000000000\n        /* \"#utility.yul\":10885:10886   */\n      0x00\n        /* \"#utility.yul\":10877:10883   */\n      dup3\n        /* \"#utility.yul\":10873:10887   */\n      add\n        /* \"#utility.yul\":10866:10919   */\n      mstore\n        /* \"#utility.yul\":10749:10926   */\n      pop\n      jump\t// out\n        /* \"#utility.yul\":10932:11298   */\n    tag_193:\n        /* \"#utility.yul\":11074:11077   */\n      0x00\n        /* \"#utility.yul\":11095:11162   */\n      tag_328\n        /* \"#utility.yul\":11159:11161   */\n      0x1b\n        /* \"#utility.yul\":11154:11157   */\n      dup4\n        /* \"#utility.yul\":11095:11162   */\n      tag_182\n      jump\t// in\n    tag_328:\n        /* \"#utility.yul\":11088:11162   */\n      swap2\n      pop\n        /* \"#utility.yul\":11171:11264   */\n      tag_329\n        /* \"#utility.yul\":11260:11263   */\n      dup3\n        /* \"#utility.yul\":11171:11264   */\n      tag_192\n      jump\t// in\n    tag_329:\n        /* \"#utility.yul\":11289:11291   */\n      0x20\n        /* \"#utility.yul\":11284:11287   */\n      dup3\n        /* \"#utility.yul\":11280:11292   */\n      add\n        /* \"#utility.yul\":11273:11292   */\n      swap1\n      pop\n        /* \"#utility.yul\":10932:11298   */\n      swap2\n      swap1\n      pop\n      jump\t// out\n        /* \"#utility.yul\":11304:11723   */\n    tag_109:\n        /* \"#utility.yul\":11470:11474   */\n      0x00\n        /* \"#utility.yul\":11508:11510   */\n      0x20\n        /* \"#utility.yul\":11497:11506   */\n      dup3\n        /* \"#utility.yul\":11493:11511   */\n      add\n        /* \"#utility.yul\":11485:11511   */\n      swap1\n      pop\n        /* \"#utility.yul\":11557:11566   */\n      dup2\n        /* \"#utility.yul\":11551:11555   */\n      dup2\n        /* \"#utility.yul\":11547:11567   */\n      sub\n        /* \"#utility.yul\":11543:11544   */\n      0x00\n        /* \"#utility.yul\":11532:11541   */\n      dup4\n        /* \"#utility.yul\":11528:11545   */\n      add\n        /* \"#utility.yul\":11521:11568   */\n      mstore\n        /* \"#utility.yul\":11585:11716   */\n      tag_331\n        /* \"#utility.yul\":11711:11715   */\n      dup2\n        /* \"#utility.yul\":11585:11716   */\n      tag_193\n      jump\t// in\n    tag_331:\n        /* \"#utility.yul\":11577:11716   */\n      swap1\n      pop\n        /* \"#utility.yul\":11304:11723   */\n      swap2\n      swap1\n      pop\n      jump\t// out\n        /* \"#utility.yul\":11729:11907   */\n    tag_194:\n        /* \"#utility.yul\":11869:11899   */\n      0x596f75207265616368656420746865206c696d69742053656e64282900000000\n        /* \"#utility.yul\":11865:11866   */\n      0x00\n        /* \"#utility.yul\":11857:11863   */\n      dup3\n        /* \"#utility.yul\":11853:11867   */\n      add\n        /* \"#utility.yul\":11846:11900   */\n      mstore\n        /* \"#utility.yul\":11729:11907   */\n      pop\n      jump\t// out\n        /* \"#utility.yul\":11913:12279   */\n    tag_195:\n        /* \"#utility.yul\":12055:12058   */\n      0x00\n        /* \"#utility.yul\":12076:12143   */\n      tag_334\n        /* \"#utility.yul\":12140:12142   */\n      0x1c\n        /* \"#utility.yul\":12135:12138   */\n      dup4\n        /* \"#utility.yul\":12076:12143   */\n      tag_182\n      jump\t// in\n    tag_334:\n        /* \"#utility.yul\":12069:12143   */\n      swap2\n      pop\n        /* \"#utility.yul\":12152:12245   */\n      tag_335\n        /* \"#utility.yul\":12241:12244   */\n      dup3\n        /* \"#utility.yul\":12152:12245   */\n      tag_194\n      jump\t// in\n    tag_335:\n        /* \"#utility.yul\":12270:12272   */\n      0x20\n        /* \"#utility.yul\":12265:12268   */\n      dup3\n        /* \"#utility.yul\":12261:12273   */\n      add\n        /* \"#utility.yul\":12254:12273   */\n      swap1\n      pop\n        /* \"#utility.yul\":11913:12279   */\n      swap2\n      swap1\n      pop\n      jump\t// out\n        /* \"#utility.yul\":12285:12704   */\n    tag_118:\n        /* \"#utility.yul\":12451:12455   */\n      0x00\n        /* \"#utility.yul\":12489:12491   */\n      0x20\n        /* \"#utility.yul\":12478:12487   */\n      dup3\n        /* \"#utility.yul\":12474:12492   */\n      add\n        /* \"#utility.yul\":12466:12492   */\n      swap1\n      pop\n        /* \"#utility.yul\":12538:12547   */\n      dup2\n        /* \"#utility.yul\":12532:12536   */\n      dup2\n        /* \"#utility.yul\":12528:12548   */\n      sub\n        /* \"#utility.yul\":12524:12525   */\n      0x00\n        /* \"#utility.yul\":12513:12522   */\n      dup4\n        /* \"#utility.yul\":12509:12526   */\n      add\n        /* \"#utility.yul\":12502:12549   */\n      mstore\n        /* \"#utility.yul\":12566:12697   */\n      tag_337\n        /* \"#utility.yul\":12692:12696   */\n      dup2\n        /* \"#utility.yul\":12566:12697   */\n      tag_195\n      jump\t// in\n    tag_337:\n        /* \"#utility.yul\":12558:12697   */\n      swap1\n      pop\n        /* \"#utility.yul\":12285:12704   */\n      swap2\n      swap1\n      pop\n      jump\t// out\n        /* \"#utility.yul\":12710:12901   */\n    tag_123:\n        /* \"#utility.yul\":12750:12754   */\n      0x00\n        /* \"#utility.yul\":12770:12790   */\n      tag_339\n        /* \"#utility.yul\":12788:12789   */\n      dup3\n        /* \"#utility.yul\":12770:12790   */\n      tag_161\n      jump\t// in\n    tag_339:\n        /* \"#utility.yul\":12765:12790   */\n      swap2\n      pop\n        /* \"#utility.yul\":12804:12824   */\n      tag_340\n        /* \"#utility.yul\":12822:12823   */\n      dup4\n        /* \"#utility.yul\":12804:12824   */\n      tag_161\n      jump\t// in\n    tag_340:\n        /* \"#utility.yul\":12799:12824   */\n      swap3\n      pop\n        /* \"#utility.yul\":12843:12844   */\n      dup3\n        /* \"#utility.yul\":12840:12841   */\n      dup3\n        /* \"#utility.yul\":12837:12845   */\n      lt\n        /* \"#utility.yul\":12834:12868   */\n      iszero\n      tag_341\n      jumpi\n        /* \"#utility.yul\":12848:12866   */\n      tag_342\n      tag_189\n      jump\t// in\n    tag_342:\n        /* \"#utility.yul\":12834:12868   */\n    tag_341:\n        /* \"#utility.yul\":12893:12894   */\n      dup3\n        /* \"#utility.yul\":12890:12891   */\n      dup3\n        /* \"#utility.yul\":12886:12895   */\n      sub\n        /* \"#utility.yul\":12878:12895   */\n      swap1\n      pop\n        /* \"#utility.yul\":12710:12901   */\n      swap3\n      swap2\n      pop\n      pop\n      jump\t// out\n        /* \"#utility.yul\":12907:13087   */\n    tag_196:\n        /* \"#utility.yul\":12955:13032   */\n      0x4e487b7100000000000000000000000000000000000000000000000000000000\n        /* \"#utility.yul\":12952:12953   */\n      0x00\n        /* \"#utility.yul\":12945:13033   */\n      mstore\n        /* \"#utility.yul\":13052:13056   */\n      0x22\n        /* \"#utility.yul\":13049:13050   */\n      0x04\n        /* \"#utility.yul\":13042:13057   */\n      mstore\n        /* \"#utility.yul\":13076:13080   */\n      0x24\n        /* \"#utility.yul\":13073:13074   */\n      0x00\n        /* \"#utility.yul\":13066:13081   */\n      revert\n        /* \"#utility.yul\":13093:13413   */\n    tag_135:\n        /* \"#utility.yul\":13137:13143   */\n      0x00\n        /* \"#utility.yul\":13174:13175   */\n      0x02\n        /* \"#utility.yul\":13168:13172   */\n      dup3\n        /* \"#utility.yul\":13164:13176   */\n      div\n        /* \"#utility.yul\":13154:13176   */\n      swap1\n      pop\n        /* \"#utility.yul\":13221:13222   */\n      0x01\n        /* \"#utility.yul\":13215:13219   */\n      dup3\n        /* \"#utility.yul\":13211:13223   */\n      and\n        /* \"#utility.yul\":13242:13260   */\n      dup1\n        /* \"#utility.yul\":13232:13313   */\n      tag_345\n      jumpi\n        /* \"#utility.yul\":13298:13302   */\n      0x7f\n        /* \"#utility.yul\":13290:13296   */\n      dup3\n        /* \"#utility.yul\":13286:13303   */\n      and\n        /* \"#utility.yul\":13276:13303   */\n      swap2\n      pop\n        /* \"#utility.yul\":13232:13313   */\n    tag_345:\n        /* \"#utility.yul\":13360:13362   */\n      0x20\n        /* \"#utility.yul\":13352:13358   */\n      dup3\n        /* \"#utility.yul\":13349:13363   */\n      lt\n        /* \"#utility.yul\":13329:13347   */\n      dup2\n        /* \"#utility.yul\":13326:13364   */\n      sub\n        /* \"#utility.yul\":13323:13407   */\n      tag_346\n      jumpi\n        /* \"#utility.yul\":13379:13397   */\n      tag_347\n      tag_196\n      jump\t// in\n    tag_347:\n        /* \"#utility.yul\":13323:13407   */\n    tag_346:\n        /* \"#utility.yul\":13144:13413   */\n      pop\n        /* \"#utility.yul\":13093:13413   */\n      swap2\n      swap1\n      pop\n      jump\t// out\n        /* \"#utility.yul\":13419:13560   */\n    tag_197:\n        /* \"#utility.yul\":13468:13472   */\n      0x00\n        /* \"#utility.yul\":13491:13494   */\n      dup2\n        /* \"#utility.yul\":13483:13494   */\n      swap1\n      pop\n        /* \"#utility.yul\":13514:13517   */\n      dup2\n        /* \"#utility.yul\":13511:13512   */\n      0x00\n        /* \"#utility.yul\":13504:13518   */\n      mstore\n        /* \"#utility.yul\":13548:13552   */\n      0x20\n        /* \"#utility.yul\":13545:13546   */\n      0x00\n        /* \"#utility.yul\":13535:13553   */\n      keccak256\n        /* \"#utility.yul\":13527:13553   */\n      swap1\n      pop\n        /* \"#utility.yul\":13419:13560   */\n      swap2\n      swap1\n      pop\n      jump\t// out\n        /* \"#utility.yul\":13566:13659   */\n    tag_198:\n        /* \"#utility.yul\":13603:13609   */\n      0x00\n        /* \"#utility.yul\":13650:13652   */\n      0x20\n        /* \"#utility.yul\":13645:13647   */\n      0x1f\n        /* \"#utility.yul\":13638:13643   */\n      dup4\n        /* \"#utility.yul\":13634:13648   */\n      add\n        /* \"#utility.yul\":13630:13653   */\n      div\n        /* \"#utility.yul\":13620:13653   */\n      swap1\n      pop\n        /* \"#utility.yul\":13566:13659   */\n      swap2\n      swap1\n      pop\n      jump\t// out\n        /* \"#utility.yul\":13665:13772   */\n    tag_199:\n        /* \"#utility.yul\":13709:13717   */\n      0x00\n        /* \"#utility.yul\":13759:13764   */\n      dup3\n        /* \"#utility.yul\":13753:13757   */\n      dup3\n        /* \"#utility.yul\":13749:13765   */\n      shl\n        /* \"#utility.yul\":13728:13765   */\n      swap1\n      pop\n        /* \"#utility.yul\":13665:13772   */\n      swap3\n      swap2\n      pop\n      pop\n      jump\t// out\n        /* \"#utility.yul\":13778:14171   */\n    tag_200:\n        /* \"#utility.yul\":13847:13853   */\n      0x00\n        /* \"#utility.yul\":13897:13898   */\n      0x08\n        /* \"#utility.yul\":13885:13895   */\n      dup4\n        /* \"#utility.yul\":13881:13899   */\n      mul\n        /* \"#utility.yul\":13920:14017   */\n      tag_352\n        /* \"#utility.yul\":13950:14016   */\n      0xffffffffffffffffffffffffffffffffffffffffffffffffffffffffffffffff\n        /* \"#utility.yul\":13939:13948   */\n      dup3\n        /* \"#utility.yul\":13920:14017   */\n      tag_199\n      jump\t// in\n    tag_352:\n        /* \"#utility.yul\":14038:14077   */\n      tag_353\n        /* \"#utility.yul\":14068:14076   */\n      dup7\n        /* \"#utility.yul\":14057:14066   */\n      dup4\n        /* \"#utility.yul\":14038:14077   */\n      tag_199\n      jump\t// in\n    tag_353:\n        /* \"#utility.yul\":14026:14077   */\n      swap6\n      pop\n        /* \"#utility.yul\":14110:14114   */\n      dup1\n        /* \"#utility.yul\":14106:14115   */\n      not\n        /* \"#utility.yul\":14099:14104   */\n      dup5\n        /* \"#utility.yul\":14095:14116   */\n      and\n        /* \"#utility.yul\":14086:14116   */\n      swap4\n      pop\n        /* \"#utility.yul\":14159:14163   */\n      dup1\n        /* \"#utility.yul\":14149:14157   */\n      dup7\n        /* \"#utility.yul\":14145:14164   */\n      and\n        /* \"#utility.yul\":14138:14143   */\n      dup5\n        /* \"#utility.yul\":14135:14165   */\n      or\n        /* \"#utility.yul\":14125:14165   */\n      swap3\n      pop\n        /* \"#utility.yul\":13854:14171   */\n      pop\n      pop\n        /* \"#utility.yul\":13778:14171   */\n      swap4\n      swap3\n      pop\n      pop\n      pop\n      jump\t// out\n        /* \"#utility.yul\":14177:14237   */\n    tag_201:\n        /* \"#utility.yul\":14205:14208   */\n      0x00\n        /* \"#utility.yul\":14226:14231   */\n      dup2\n        /* \"#utility.yul\":14219:14231   */\n      swap1\n      pop\n        /* \"#utility.yul\":14177:14237   */\n      swap2\n      swap1\n      pop\n      jump\t// out\n        /* \"#utility.yul\":14243:14385   */\n    tag_202:\n        /* \"#utility.yul\":14293:14302   */\n      0x00\n        /* \"#utility.yul\":14326:14379   */\n      tag_356\n        /* \"#utility.yul\":14344:14378   */\n      tag_357\n        /* \"#utility.yul\":14353:14377   */\n      tag_358\n        /* \"#utility.yul\":14371:14376   */\n      dup5\n        /* \"#utility.yul\":14353:14377   */\n      tag_161\n      jump\t// in\n    tag_358:\n        /* \"#utility.yul\":14344:14378   */\n      tag_201\n      jump\t// in\n    tag_357:\n        /* \"#utility.yul\":14326:14379   */\n      tag_161\n      jump\t// in\n    tag_356:\n        /* \"#utility.yul\":14313:14379   */\n      swap1\n      pop\n        /* \"#utility.yul\":14243:14385   */\n      swap2\n      swap1\n      pop\n      jump\t// out\n        /* \"#utility.yul\":14391:14466   */\n    tag_203:\n        /* \"#utility.yul\":14434:14437   */\n      0x00\n        /* \"#utility.yul\":14455:14460   */\n      dup2\n        /* \"#utility.yul\":14448:14460   */\n      swap1\n      pop\n        /* \"#utility.yul\":14391:14466   */\n      swap2\n      swap1\n      pop\n      jump\t// out\n        /* \"#utility.yul\":14472:14741   */\n    tag_204:\n        /* \"#utility.yul\":14582:14621   */\n      tag_361\n        /* \"#utility.yul\":14613:14620   */\n      dup4\n        /* \"#utility.yul\":14582:14621   */\n      tag_202\n      jump\t// in\n    tag_361:\n        /* \"#utility.yul\":14643:14734   */\n      tag_362\n        /* \"#utility.yul\":14692:14733   */\n      tag_363\n        /* \"#utility.yul\":14716:14732   */\n      dup3\n        /* \"#utility.yul\":14692:14733   */\n      tag_203\n      jump\t// in\n    tag_363:\n        /* \"#utility.yul\":14684:14690   */\n      dup5\n        /* \"#utility.yul\":14677:14681   */\n      dup5\n        /* \"#utility.yul\":14671:14682   */\n      sload\n        /* \"#utility.yul\":14643:14734   */\n      tag_200\n      jump\t// in\n    tag_362:\n        /* \"#utility.yul\":14637:14641   */\n      dup3\n        /* \"#utility.yul\":14630:14735   */\n      sstore\n        /* \"#utility.yul\":14548:14741   */\n      pop\n        /* \"#utility.yul\":14472:14741   */\n      pop\n      pop\n      pop\n      jump\t// out\n        /* \"#utility.yul\":14747:14820   */\n    tag_205:\n        /* \"#utility.yul\":14792:14795   */\n      0x00\n        /* \"#utility.yul\":14747:14820   */\n      swap1\n      jump\t// out\n        /* \"#utility.yul\":14826:15015   */\n    tag_206:\n        /* \"#utility.yul\":14903:14935   */\n      tag_366\n      tag_205\n      jump\t// in\n    tag_366:\n        /* \"#utility.yul\":14944:15009   */\n      tag_367\n        /* \"#utility.yul\":15002:15008   */\n      dup2\n        /* \"#utility.yul\":14994:15000   */\n      dup5\n        /* \"#utility.yul\":14988:14992   */\n      dup5\n        /* \"#utility.yul\":14944:15009   */\n      tag_204\n      jump\t// in\n    tag_367:\n        /* \"#utility.yul\":14879:15015   */\n      pop\n        /* \"#utility.yul\":14826:15015   */\n      pop\n      pop\n      jump\t// out\n        /* \"#utility.yul\":15021:15207   */\n    tag_207:\n        /* \"#utility.yul\":15081:15201   */\n    tag_369:\n        /* \"#utility.yul\":15098:15101   */\n      dup2\n        /* \"#utility.yul\":15091:15096   */\n      dup2\n        /* \"#utility.yul\":15088:15102   */\n      lt\n        /* \"#utility.yul\":15081:15201   */\n      iszero\n      tag_371\n      jumpi\n        /* \"#utility.yul\":15152:15191   */\n      tag_372\n        /* \"#utility.yul\":15189:15190   */\n      0x00\n        /* \"#utility.yul\":15182:15187   */\n      dup3\n        /* \"#utility.yul\":15152:15191   */\n      tag_206\n      jump\t// in\n    tag_372:\n        /* \"#utility.yul\":15125:15126   */\n      0x01\n        /* \"#utility.yul\":15118:15123   */\n      dup2\n        /* \"#utility.yul\":15114:15127   */\n      add\n        /* \"#utility.yul\":15105:15127   */\n      swap1\n      pop\n        /* \"#utility.yul\":15081:15201   */\n      jump(tag_369)\n    tag_371:\n        /* \"#utility.yul\":15021:15207   */\n      pop\n      pop\n      jump\t// out\n        /* \"#utility.yul\":15213:15756   */\n    tag_208:\n        /* \"#utility.yul\":15314:15316   */\n      0x1f\n        /* \"#utility.yul\":15309:15312   */\n      dup3\n        /* \"#utility.yul\":15306:15317   */\n      gt\n        /* \"#utility.yul\":15303:15749   */\n      iszero\n      tag_374\n      jumpi\n        /* \"#utility.yul\":15348:15386   */\n      tag_375\n        /* \"#utility.yul\":15380:15385   */\n      dup2\n        /* \"#utility.yul\":15348:15386   */\n      tag_197\n      jump\t// in\n    tag_375:\n        /* \"#utility.yul\":15432:15461   */\n      tag_376\n        /* \"#utility.yul\":15450:15460   */\n      dup5\n        /* \"#utility.yul\":15432:15461   */\n      tag_198\n      jump\t// in\n    tag_376:\n        /* \"#utility.yul\":15422:15430   */\n      dup2\n        /* \"#utility.yul\":15418:15462   */\n      add\n        /* \"#utility.yul\":15615:15617   */\n      0x20\n        /* \"#utility.yul\":15603:15613   */\n      dup6\n        /* \"#utility.yul\":15600:15618   */\n      lt\n        /* \"#utility.yul\":15597:15646   */\n      iszero\n      tag_377\n      jumpi\n        /* \"#utility.yul\":15636:15644   */\n      dup2\n        /* \"#utility.yul\":15621:15644   */\n      swap1\n      pop\n        /* \"#utility.yul\":15597:15646   */\n    tag_377:\n        /* \"#utility.yul\":15659:15739   */\n      tag_378\n        /* \"#utility.yul\":15715:15737   */\n      tag_379\n        /* \"#utility.yul\":15733:15736   */\n      dup6\n        /* \"#utility.yul\":15715:15737   */\n      tag_198\n      jump\t// in\n    tag_379:\n        /* \"#utility.yul\":15705:15713   */\n      dup4\n        /* \"#utility.yul\":15701:15738   */\n      add\n        /* \"#utility.yul\":15688:15699   */\n      dup3\n        /* \"#utility.yul\":15659:15739   */\n      tag_207\n      jump\t// in\n    tag_378:\n        /* \"#utility.yul\":15318:15749   */\n      pop\n      pop\n        /* \"#utility.yul\":15303:15749   */\n    tag_374:\n        /* \"#utility.yul\":15213:15756   */\n      pop\n      pop\n      pop\n      jump\t// out\n        /* \"#utility.yul\":15762:15879   */\n    tag_209:\n        /* \"#utility.yul\":15816:15824   */\n      0x00\n        /* \"#utility.yul\":15866:15871   */\n      dup3\n        /* \"#utility.yul\":15860:15864   */\n      dup3\n        /* \"#utility.yul\":15856:15872   */\n      shr\n        /* \"#utility.yul\":15835:15872   */\n      swap1\n      pop\n        /* \"#utility.yul\":15762:15879   */\n      swap3\n      swap2\n      pop\n      pop\n      jump\t// out\n        /* \"#utility.yul\":15885:16054   */\n    tag_210:\n        /* \"#utility.yul\":15929:15935   */\n      0x00\n        /* \"#utility.yul\":15962:16013   */\n      tag_382\n        /* \"#utility.yul\":16010:16011   */\n      0x00\n        /* \"#utility.yul\":16006:16012   */\n      not\n        /* \"#utility.yul\":15998:16003   */\n      dup5\n        /* \"#utility.yul\":15995:15996   */\n      0x08\n        /* \"#utility.yul\":15991:16004   */\n      mul\n        /* \"#utility.yul\":15962:16013   */\n      tag_209\n      jump\t// in\n    tag_382:\n        /* \"#utility.yul\":15958:16014   */\n      not\n        /* \"#utility.yul\":16043:16047   */\n      dup1\n        /* \"#utility.yul\":16037:16041   */\n      dup4\n        /* \"#utility.yul\":16033:16048   */\n      and\n        /* \"#utility.yul\":16023:16048   */\n      swap2\n      pop\n        /* \"#utility.yul\":15936:16054   */\n      pop\n        /* \"#utility.yul\":15885:16054   */\n      swap3\n      swap2\n      pop\n      pop\n      jump\t// out\n        /* \"#utility.yul\":16059:16354   */\n    tag_211:\n        /* \"#utility.yul\":16135:16139   */\n      0x00\n        /* \"#utility.yul\":16281:16310   */\n      tag_384\n        /* \"#utility.yul\":16306:16309   */\n      dup4\n        /* \"#utility.yul\":16300:16304   */\n      dup4\n        /* \"#utility.yul\":16281:16310   */\n      tag_210\n      jump\t// in\n    tag_384:\n        /* \"#utility.yul\":16273:16310   */\n      swap2\n      pop\n        /* \"#utility.yul\":16343:16346   */\n      dup3\n        /* \"#utility.yul\":16340:16341   */\n      0x02\n        /* \"#utility.yul\":16336:16347   */\n      mul\n        /* \"#utility.yul\":16330:16334   */\n      dup3\n        /* \"#utility.yul\":16327:16348   */\n      or\n        /* \"#utility.yul\":16319:16348   */\n      swap1\n      pop\n        /* \"#utility.yul\":16059:16354   */\n      swap3\n      swap2\n      pop\n      pop\n      jump\t// out\n        /* \"#utility.yul\":16359:17754   */\n    tag_126:\n        /* \"#utility.yul\":16476:16513   */\n      tag_386\n        /* \"#utility.yul\":16509:16512   */\n      dup3\n        /* \"#utility.yul\":16476:16513   */\n      tag_181\n      jump\t// in\n    tag_386:\n        /* \"#utility.yul\":16578:16596   */\n      0xffffffffffffffff\n        /* \"#utility.yul\":16570:16576   */\n      dup2\n        /* \"#utility.yul\":16567:16597   */\n      gt\n        /* \"#utility.yul\":16564:16620   */\n      iszero\n      tag_387\n      jumpi\n        /* \"#utility.yul\":16600:16618   */\n      tag_388\n      tag_172\n      jump\t// in\n    tag_388:\n        /* \"#utility.yul\":16564:16620   */\n    tag_387:\n        /* \"#utility.yul\":16644:16682   */\n      tag_389\n        /* \"#utility.yul\":16676:16680   */\n      dup3\n        /* \"#utility.yul\":16670:16681   */\n      sload\n        /* \"#utility.yul\":16644:16682   */\n      tag_135\n      jump\t// in\n    tag_389:\n        /* \"#utility.yul\":16729:16796   */\n      tag_390\n        /* \"#utility.yul\":16789:16795   */\n      dup3\n        /* \"#utility.yul\":16781:16787   */\n      dup3\n        /* \"#utility.yul\":16775:16779   */\n      dup6\n        /* \"#utility.yul\":16729:16796   */\n      tag_208\n      jump\t// in\n    tag_390:\n        /* \"#utility.yul\":16823:16824   */\n      0x00\n        /* \"#utility.yul\":16847:16851   */\n      0x20\n        /* \"#utility.yul\":16834:16851   */\n      swap1\n      pop\n        /* \"#utility.yul\":16879:16881   */\n      0x1f\n        /* \"#utility.yul\":16871:16877   */\n      dup4\n        /* \"#utility.yul\":16868:16882   */\n      gt\n        /* \"#utility.yul\":16896:16897   */\n      0x01\n        /* \"#utility.yul\":16891:17509   */\n      dup2\n      eq\n      tag_392\n      jumpi\n        /* \"#utility.yul\":17553:17554   */\n      0x00\n        /* \"#utility.yul\":17570:17576   */\n      dup5\n        /* \"#utility.yul\":17567:17644   */\n      iszero\n      tag_393\n      jumpi\n        /* \"#utility.yul\":17619:17628   */\n      dup3\n        /* \"#utility.yul\":17614:17617   */\n      dup8\n        /* \"#utility.yul\":17610:17629   */\n      add\n        /* \"#utility.yul\":17604:17630   */\n      mload\n        /* \"#utility.yul\":17595:17630   */\n      swap1\n      pop\n        /* \"#utility.yul\":17567:17644   */\n    tag_393:\n        /* \"#utility.yul\":17670:17737   */\n      tag_394\n        /* \"#utility.yul\":17730:17736   */\n      dup6\n        /* \"#utility.yul\":17723:17728   */\n      dup3\n        /* \"#utility.yul\":17670:17737   */\n      tag_211\n      jump\t// in\n    tag_394:\n        /* \"#utility.yul\":17664:17668   */\n      dup7\n        /* \"#utility.yul\":17657:17738   */\n      sstore\n        /* \"#utility.yul\":17526:17748   */\n      pop\n        /* \"#utility.yul\":16861:17748   */\n      jump(tag_391)\n        /* \"#utility.yul\":16891:17509   */\n    tag_392:\n        /* \"#utility.yul\":16943:16947   */\n      0x1f\n        /* \"#utility.yul\":16939:16948   */\n      not\n        /* \"#utility.yul\":16931:16937   */\n      dup5\n        /* \"#utility.yul\":16927:16949   */\n      and\n        /* \"#utility.yul\":16977:17014   */\n      tag_395\n        /* \"#utility.yul\":17009:17013   */\n      dup7\n        /* \"#utility.yul\":16977:17014   */\n      tag_197\n      jump\t// in\n    tag_395:\n        /* \"#utility.yul\":17036:17037   */\n      0x00\n        /* \"#utility.yul\":17050:17258   */\n    tag_396:\n        /* \"#utility.yul\":17064:17071   */\n      dup3\n        /* \"#utility.yul\":17061:17062   */\n      dup2\n        /* \"#utility.yul\":17058:17072   */\n      lt\n        /* \"#utility.yul\":17050:17258   */\n      iszero\n      tag_398\n      jumpi\n        /* \"#utility.yul\":17143:17152   */\n      dup5\n        /* \"#utility.yul\":17138:17141   */\n      dup10\n        /* \"#utility.yul\":17134:17153   */\n      add\n        /* \"#utility.yul\":17128:17154   */\n      mload\n        /* \"#utility.yul\":17120:17126   */\n      dup3\n        /* \"#utility.yul\":17113:17155   */\n      sstore\n        /* \"#utility.yul\":17194:17195   */\n      0x01\n        /* \"#utility.yul\":17186:17192   */\n      dup3\n        /* \"#utility.yul\":17182:17196   */\n      add\n        /* \"#utility.yul\":17172:17196   */\n      swap2\n      pop\n        /* \"#utility.yul\":17241:17243   */\n      0x20\n        /* \"#utility.yul\":17230:17239   */\n      dup6\n        /* \"#utility.yul\":17226:17244   */\n      add\n        /* \"#utility.yul\":17213:17244   */\n      swap5\n      pop\n        /* \"#utility.yul\":17087:17091   */\n      0x20\n        /* \"#utility.yul\":17084:17085   */\n      dup2\n        /* \"#utility.yul\":17080:17092   */\n      add\n        /* \"#utility.yul\":17075:17092   */\n      swap1\n      pop\n        /* \"#utility.yul\":17050:17258   */\n      jump(tag_396)\n    tag_398:\n        /* \"#utility.yul\":17286:17292   */\n      dup7\n        /* \"#utility.yul\":17277:17284   */\n      dup4\n        /* \"#utility.yul\":17274:17293   */\n      lt\n        /* \"#utility.yul\":17271:17450   */\n      iszero\n      tag_399\n      jumpi\n        /* \"#utility.yul\":17344:17353   */\n      dup5\n        /* \"#utility.yul\":17339:17342   */\n      dup10\n        /* \"#utility.yul\":17335:17354   */\n      add\n        /* \"#utility.yul\":17329:17355   */\n      mload\n        /* \"#utility.yul\":17387:17435   */\n      tag_400\n        /* \"#utility.yul\":17429:17433   */\n      0x1f\n        /* \"#utility.yul\":17421:17427   */\n      dup10\n        /* \"#utility.yul\":17417:17434   */\n      and\n        /* \"#utility.yul\":17406:17415   */\n      dup3\n        /* \"#utility.yul\":17387:17435   */\n      tag_210\n      jump\t// in\n    tag_400:\n        /* \"#utility.yul\":17379:17385   */\n      dup4\n        /* \"#utility.yul\":17372:17436   */\n      sstore\n        /* \"#utility.yul\":17294:17450   */\n      pop\n        /* \"#utility.yul\":17271:17450   */\n    tag_399:\n        /* \"#utility.yul\":17496:17497   */\n      0x01\n        /* \"#utility.yul\":17492:17493   */\n      0x02\n        /* \"#utility.yul\":17484:17490   */\n      dup9\n        /* \"#utility.yul\":17480:17494   */\n      mul\n        /* \"#utility.yul\":17476:17498   */\n      add\n        /* \"#utility.yul\":17470:17474   */\n      dup9\n        /* \"#utility.yul\":17463:17499   */\n      sstore\n        /* \"#utility.yul\":16898:17509   */\n      pop\n      pop\n      pop\n        /* \"#utility.yul\":16861:17748   */\n    tag_391:\n      pop\n        /* \"#utility.yul\":16451:17754   */\n      pop\n      pop\n      pop\n        /* \"#utility.yul\":16359:17754   */\n      pop\n      pop\n      jump\t// out\n        /* \"#utility.yul\":17760:17926   */\n    tag_212:\n        /* \"#utility.yul\":17900:17918   */\n      0x4e6f7420656e6f7567682066756e647300000000000000000000000000000000\n        /* \"#utility.yul\":17896:17897   */\n      0x00\n        /* \"#utility.yul\":17888:17894   */\n      dup3\n        /* \"#utility.yul\":17884:17898   */\n      add\n        /* \"#utility.yul\":17877:17919   */\n      mstore\n        /* \"#utility.yul\":17760:17926   */\n      pop\n      jump\t// out\n        /* \"#utility.yul\":17932:18298   */\n    tag_213:\n        /* \"#utility.yul\":18074:18077   */\n      0x00\n        /* \"#utility.yul\":18095:18162   */\n      tag_403\n        /* \"#utility.yul\":18159:18161   */\n      0x10\n        /* \"#utility.yul\":18154:18157   */\n      dup4\n        /* \"#utility.yul\":18095:18162   */\n      tag_182\n      jump\t// in\n    tag_403:\n        /* \"#utility.yul\":18088:18162   */\n      swap2\n      pop\n        /* \"#utility.yul\":18171:18264   */\n      tag_404\n        /* \"#utility.yul\":18260:18263   */\n      dup3\n        /* \"#utility.yul\":18171:18264   */\n      tag_212\n      jump\t// in\n    tag_404:\n        /* \"#utility.yul\":18289:18291   */\n      0x20\n        /* \"#utility.yul\":18284:18287   */\n      dup3\n        /* \"#utility.yul\":18280:18292   */\n      add\n        /* \"#utility.yul\":18273:18292   */\n      swap1\n      pop\n        /* \"#utility.yul\":17932:18298   */\n      swap2\n      swap1\n      pop\n      jump\t// out\n        /* \"#utility.yul\":18304:18723   */\n    tag_129:\n        /* \"#utility.yul\":18470:18474   */\n      0x00\n        /* \"#utility.yul\":18508:18510   */\n      0x20\n        /* \"#utility.yul\":18497:18506   */\n      dup3\n        /* \"#utility.yul\":18493:18511   */\n      add\n        /* \"#utility.yul\":18485:18511   */\n      swap1\n      pop\n        /* \"#utility.yul\":18557:18566   */\n      dup2\n        /* \"#utility.yul\":18551:18555   */\n      dup2\n        /* \"#utility.yul\":18547:18567   */\n      sub\n        /* \"#utility.yul\":18543:18544   */\n      0x00\n        /* \"#utility.yul\":18532:18541   */\n      dup4\n        /* \"#utility.yul\":18528:18545   */\n      add\n        /* \"#utility.yul\":18521:18568   */\n      mstore\n        /* \"#utility.yul\":18585:18716   */\n      tag_406\n        /* \"#utility.yul\":18711:18715   */\n      dup2\n        /* \"#utility.yul\":18585:18716   */\n      tag_213\n      jump\t// in\n    tag_406:\n        /* \"#utility.yul\":18577:18716   */\n      swap1\n      pop\n        /* \"#utility.yul\":18304:18723   */\n      swap2\n      swap1\n      pop\n      jump\t// out\n        /* \"#utility.yul\":18729:18899   */\n    tag_214:\n        /* \"#utility.yul\":18869:18891   */\n      0x4e6f2076616c6964206372656469742063617264000000000000000000000000\n        /* \"#utility.yul\":18865:18866   */\n      0x00\n        /* \"#utility.yul\":18857:18863   */\n      dup3\n        /* \"#utility.yul\":18853:18867   */\n      add\n        /* \"#utility.yul\":18846:18892   */\n      mstore\n        /* \"#utility.yul\":18729:18899   */\n      pop\n      jump\t// out\n        /* \"#utility.yul\":18905:19271   */\n    tag_215:\n        /* \"#utility.yul\":19047:19050   */\n      0x00\n        /* \"#utility.yul\":19068:19135   */\n      tag_409\n        /* \"#utility.yul\":19132:19134   */\n      0x14\n        /* \"#utility.yul\":19127:19130   */\n      dup4\n        /* \"#utility.yul\":19068:19135   */\n      tag_182\n      jump\t// in\n    tag_409:\n        /* \"#utility.yul\":19061:19135   */\n      swap2\n      pop\n        /* \"#utility.yul\":19144:19237   */\n      tag_410\n        /* \"#utility.yul\":19233:19236   */\n      dup3\n        /* \"#utility.yul\":19144:19237   */\n      tag_214\n      jump\t// in\n    tag_410:\n        /* \"#utility.yul\":19262:19264   */\n      0x20\n        /* \"#utility.yul\":19257:19260   */\n      dup3\n        /* \"#utility.yul\":19253:19265   */\n      add\n        /* \"#utility.yul\":19246:19265   */\n      swap1\n      pop\n        /* \"#utility.yul\":18905:19271   */\n      swap2\n      swap1\n      pop\n      jump\t// out\n        /* \"#utility.yul\":19277:19696   */\n    tag_140:\n        /* \"#utility.yul\":19443:19447   */\n      0x00\n        /* \"#utility.yul\":19481:19483   */\n      0x20\n        /* \"#utility.yul\":19470:19479   */\n      dup3\n        /* \"#utility.yul\":19466:19484   */\n      add\n        /* \"#utility.yul\":19458:19484   */\n      swap1\n      pop\n        /* \"#utility.yul\":19530:19539   */\n      dup2\n        /* \"#utility.yul\":19524:19528   */\n      dup2\n        /* \"#utility.yul\":19520:19540   */\n      sub\n        /* \"#utility.yul\":19516:19517   */\n      0x00\n        /* \"#utility.yul\":19505:19514   */\n      dup4\n        /* \"#utility.yul\":19501:19518   */\n      add\n        /* \"#utility.yul\":19494:19541   */\n      mstore\n        /* \"#utility.yul\":19558:19689   */\n      tag_412\n        /* \"#utility.yul\":19684:19688   */\n      dup2\n        /* \"#utility.yul\":19558:19689   */\n      tag_215\n      jump\t// in\n    tag_412:\n        /* \"#utility.yul\":19550:19689   */\n      swap1\n      pop\n        /* \"#utility.yul\":19277:19696   */\n      swap2\n      swap1\n      pop\n      jump\t// out\n\n    auxdata: 0xa264697066735822122027e1645eb9a890d2cdb0ba9d41575a4d5de81ad0fe66d7726d433592fc84190b64736f6c634300080f0033\n}\n",
				"bytecode": {
					"linkReferences": {},
					"object": "6080604052620151806003556000600f556000601060006101000a81548160ff0219169083151502179055503480156200003857600080fd5b506040516200158a3803806200158a83398181016040528101906200005e9190620000ac565b8060018190555050620000de565b600080fd5b6000819050919050565b620000868162000071565b81146200009257600080fd5b50565b600081519050620000a6816200007b565b92915050565b600060208284031215620000c557620000c46200006c565b5b6000620000d58482850162000095565b91505092915050565b61149c80620000ee6000396000f3fe608060405234801561001057600080fd5b506004361061010b5760003560e01c8063557ed1ba116100a25780638fa11864116100715780638fa118641461025e57806394b5dcaa1461027c578063aa8c217c1461029a578063bc309496146102b8578063e21f37ce146102d65761010b565b8063557ed1ba146101fa5780637b9a3f4c146102185780637eb9f571146102365780638e029c0b146102545761010b565b806334f5ccde116100de57806334f5ccde146101825780633c626f00146101a057806342fb7936146101be5780634b28f9a2146101dc5761010b565b8063039aec2d14610110578063062a75441461012c5780630e85fa721461014857806312a029a414610166575b600080fd5b61012a60048036038101906101259190610a19565b6102f4565b005b61014660048036038101906101419190610aa4565b6102f7565b005b61015061070c565b60405161015d9190610af3565b60405180910390f35b610180600480360381019061017b9190610c54565b610712565b005b61018a6107c3565b6040516101979190610af3565b60405180910390f35b6101a86107c9565b6040516101b59190610ce7565b60405180910390f35b6101c66107dc565b6040516101d39190610d8a565b60405180910390f35b6101e461086a565b6040516101f19190610af3565b60405180910390f35b610202610870565b60405161020f9190610af3565b60405180910390f35b610220610878565b60405161022d9190610af3565b60405180910390f35b61023e61087e565b60405161024b9190610af3565b60405180910390f35b61025c610884565b005b6102666108a1565b6040516102739190610d8a565b60405180910390f35b61028461092f565b6040516102919190610af3565b60405180910390f35b6102a2610935565b6040516102af9190610af3565b60405180910390f35b6102c061093b565b6040516102cd9190610af3565b60405180910390f35b6102de610941565b6040516102eb9190610d8a565b60405180910390f35b50565b8080600260006101000a81548173ffffffffffffffffffffffffffffffffffffffff021916908373ffffffffffffffffffffffffffffffffffffffff160217905550600073ffffffffffffffffffffffffffffffffffffffff168173ffffffffffffffffffffffffffffffffffffffff16036103a8576040517f08c379a000000000000000000000000000000000000000000000000000000000815260040161039f90610df8565b60405180910390fd5b60001515601060009054906101000a900460ff161515036103fe576040517f08c379a00000000000000000000000000000000000000000000000000000000081526004016103f590610e64565b60405180910390fd5b6109c4600c5411801561041f5750601e600d5461041b9190610eb3565b4211155b1561047a576000600c819055506000600c541461043f5761043e610f09565b5b6040517f08c379a000000000000000000000000000000000000000000000000000000000815260040161047190610f84565b60405180910390fd5b6109c4600c541115801561049c5750601e600d546104989190610eb3565b4210155b156104c4576000600c819055506000600c54146104bc576104bb610f09565b5b42600d819055505b6005600f54101580156104e55750601e600d546104e19190610eb3565b4211155b15610540576000600f819055506000600f541461050557610504610f09565b5b6040517f08c379a000000000000000000000000000000000000000000000000000000000815260040161053790610ff0565b60405180910390fd5b6005600f54111580156105615750601e600d5461055d9190610eb3565b4210155b15610589576000600f819055506000600f541461058157610580610f09565b5b42600d819055505b81600260006101000a81548173ffffffffffffffffffffffffffffffffffffffff021916908373ffffffffffffffffffffffffffffffffffffffff160217905550826000819055506109c46000541115610618576040517f08c379a000000000000000000000000000000000000000000000000000000000815260040161060f9061105c565b60405180910390fd5b6001600f600082825461062b9190610eb3565b9250508190555060006001541180156106475750600054600154115b156106cc5760005460016000828254610660919061107c565b92505081905550600054600c600082825461067b9190610eb3565b925050819055506040518060400160405280601281526020017f5472616e7366657220636f6d706c657465640000000000000000000000000000815250600990816106c691906112bc565b50610707565b6040517f08c379a00000000000000000000000000000000000000000000000000000000081526004016106fe906113da565b60405180910390fd5b505050565b600d5481565b81600a908161072191906112bc565b5080600b908161073191906112bc565b506001601060006101000a81548160ff02191690831515021790555042600d819055506008600a8054610763906110df565b905014801561078057506003600b805461077c906110df565b9050145b6107bf576040517f08c379a00000000000000000000000000000000000000000000000000000000081526004016107b690611446565b60405180910390fd5b5050565b600e5481565b601060009054906101000a900460ff1681565b600b80546107e9906110df565b80601f0160208091040260200160405190810160405280929190818152602001828054610815906110df565b80156108625780601f1061083757610100808354040283529160200191610862565b820191906000526020600020905b81548152906001019060200180831161084557829003601f168201915b505050505081565b600f5481565b600042905090565b60015481565b600c5481565b6000601060006101000a81548160ff021916908315150217905550565b600a80546108ae906110df565b80601f01602080910402602001604051908101604052809291908181526020018280546108da906110df565b80156109275780601f106108fc57610100808354040283529160200191610927565b820191906000526020600020905b81548152906001019060200180831161090a57829003601f168201915b505050505081565b60045481565b60005481565b60085481565b6009805461094e906110df565b80601f016020809104026020016040519081016040528092919081815260200182805461097a906110df565b80156109c75780601f1061099c576101008083540402835291602001916109c7565b820191906000526020600020905b8154815290600101906020018083116109aa57829003601f168201915b505050505081565b6000604051905090565b600080fd5b600080fd5b6000819050919050565b6109f6816109e3565b8114610a0157600080fd5b50565b600081359050610a13816109ed565b92915050565b600060208284031215610a2f57610a2e6109d9565b5b6000610a3d84828501610a04565b91505092915050565b600073ffffffffffffffffffffffffffffffffffffffff82169050919050565b6000610a7182610a46565b9050919050565b610a8181610a66565b8114610a8c57600080fd5b50565b600081359050610a9e81610a78565b92915050565b60008060408385031215610abb57610aba6109d9565b5b6000610ac985828601610a04565b9250506020610ada85828601610a8f565b9150509250929050565b610aed816109e3565b82525050565b6000602082019050610b086000830184610ae4565b92915050565b600080fd5b600080fd5b6000601f19601f8301169050919050565b7f4e487b7100000000000000000000000000000000000000000000000000000000600052604160045260246000fd5b610b6182610b18565b810181811067ffffffffffffffff82111715610b8057610b7f610b29565b5b80604052505050565b6000610b936109cf565b9050610b9f8282610b58565b919050565b600067ffffffffffffffff821115610bbf57610bbe610b29565b5b610bc882610b18565b9050602081019050919050565b82818337600083830152505050565b6000610bf7610bf284610ba4565b610b89565b905082815260208101848484011115610c1357610c12610b13565b5b610c1e848285610bd5565b509392505050565b600082601f830112610c3b57610c3a610b0e565b5b8135610c4b848260208601610be4565b91505092915050565b60008060408385031215610c6b57610c6a6109d9565b5b600083013567ffffffffffffffff811115610c8957610c886109de565b5b610c9585828601610c26565b925050602083013567ffffffffffffffff811115610cb657610cb56109de565b5b610cc285828601610c26565b9150509250929050565b60008115159050919050565b610ce181610ccc565b82525050565b6000602082019050610cfc6000830184610cd8565b92915050565b600081519050919050565b600082825260208201905092915050565b60005b83811015610d3c578082015181840152602081019050610d21565b83811115610d4b576000848401525b50505050565b6000610d5c82610d02565b610d668185610d0d565b9350610d76818560208601610d1e565b610d7f81610b18565b840191505092915050565b60006020820190508181036000830152610da48184610d51565b905092915050565b7f2054686973206164647265737320646f65736e27742065786973747300000000600082015250565b6000610de2601c83610d0d565b9150610ded82610dac565b602082019050919050565b60006020820190508181036000830152610e1181610dd5565b9050919050565b7f506c6561736520696e7365727420796f75722063617264000000000000000000600082015250565b6000610e4e601783610d0d565b9150610e5982610e18565b602082019050919050565b60006020820190508181036000830152610e7d81610e41565b9050919050565b7f4e487b7100000000000000000000000000000000000000000000000000000000600052601160045260246000fd5b6000610ebe826109e3565b9150610ec9836109e3565b9250827fffffffffffffffffffffffffffffffffffffffffffffffffffffffffffffffff03821115610efe57610efd610e84565b5b828201905092915050565b7f4e487b7100000000000000000000000000000000000000000000000000000000600052600160045260246000fd5b7f596f75207265616368656420746865206c696d69742070657220646179000000600082015250565b6000610f6e601d83610d0d565b9150610f7982610f38565b602082019050919050565b60006020820190508181036000830152610f9d81610f61565b9050919050565b7f6f6e6c792035207472616e73616374696f6e7320706572206461790000000000600082015250565b6000610fda601b83610d0d565b9150610fe582610fa4565b602082019050919050565b6000602082019050818103600083015261100981610fcd565b9050919050565b7f596f75207265616368656420746865206c696d69742053656e64282900000000600082015250565b6000611046601c83610d0d565b915061105182611010565b602082019050919050565b6000602082019050818103600083015261107581611039565b9050919050565b6000611087826109e3565b9150611092836109e3565b9250828210156110a5576110a4610e84565b5b828203905092915050565b7f4e487b7100000000000000000000000000000000000000000000000000000000600052602260045260246000fd5b600060028204905060018216806110f757607f821691505b60208210810361110a576111096110b0565b5b50919050565b60008190508160005260206000209050919050565b60006020601f8301049050919050565b600082821b905092915050565b6000600883026111727fffffffffffffffffffffffffffffffffffffffffffffffffffffffffffffffff82611135565b61117c8683611135565b95508019841693508086168417925050509392505050565b6000819050919050565b60006111b96111b46111af846109e3565b611194565b6109e3565b9050919050565b6000819050919050565b6111d38361119e565b6111e76111df826111c0565b848454611142565b825550505050565b600090565b6111fc6111ef565b6112078184846111ca565b505050565b5b8181101561122b576112206000826111f4565b60018101905061120d565b5050565b601f8211156112705761124181611110565b61124a84611125565b81016020851015611259578190505b61126d61126585611125565b83018261120c565b50505b505050565b600082821c905092915050565b600061129360001984600802611275565b1980831691505092915050565b60006112ac8383611282565b9150826002028217905092915050565b6112c582610d02565b67ffffffffffffffff8111156112de576112dd610b29565b5b6112e882546110df565b6112f382828561122f565b600060209050601f8311600181146113265760008415611314578287015190505b61131e85826112a0565b865550611386565b601f19841661133486611110565b60005b8281101561135c57848901518255600182019150602085019450602081019050611337565b868310156113795784890151611375601f891682611282565b8355505b6001600288020188555050505b505050505050565b7f4e6f7420656e6f7567682066756e647300000000000000000000000000000000600082015250565b60006113c4601083610d0d565b91506113cf8261138e565b602082019050919050565b600060208201905081810360008301526113f3816113b7565b9050919050565b7f4e6f2076616c6964206372656469742063617264000000000000000000000000600082015250565b6000611430601483610d0d565b915061143b826113fa565b602082019050919050565b6000602082019050818103600083015261145f81611423565b905091905056fea264697066735822122027e1645eb9a890d2cdb0ba9d41575a4d5de81ad0fe66d7726d433592fc84190b64736f6c634300080f0033",
					"opcodes": "PUSH1 0x80 PUSH1 0x40 MSTORE PUSH3 0x15180 PUSH1 0x3 SSTORE PUSH1 0x0 PUSH1 0xF SSTORE PUSH1 0x0 PUSH1 0x10 PUSH1 0x0 PUSH2 0x100 EXP DUP2 SLOAD DUP2 PUSH1 0xFF MUL NOT AND SWAP1 DUP4 ISZERO ISZERO MUL OR SWAP1 SSTORE POP CALLVALUE DUP1 ISZERO PUSH3 0x38 JUMPI PUSH1 0x0 DUP1 REVERT JUMPDEST POP PUSH1 0x40 MLOAD PUSH3 0x158A CODESIZE SUB DUP1 PUSH3 0x158A DUP4 CODECOPY DUP2 DUP2 ADD PUSH1 0x40 MSTORE DUP2 ADD SWAP1 PUSH3 0x5E SWAP2 SWAP1 PUSH3 0xAC JUMP JUMPDEST DUP1 PUSH1 0x1 DUP2 SWAP1 SSTORE POP POP PUSH3 0xDE JUMP JUMPDEST PUSH1 0x0 DUP1 REVERT JUMPDEST PUSH1 0x0 DUP2 SWAP1 POP SWAP2 SWAP1 POP JUMP JUMPDEST PUSH3 0x86 DUP2 PUSH3 0x71 JUMP JUMPDEST DUP2 EQ PUSH3 0x92 JUMPI PUSH1 0x0 DUP1 REVERT JUMPDEST POP JUMP JUMPDEST PUSH1 0x0 DUP2 MLOAD SWAP1 POP PUSH3 0xA6 DUP2 PUSH3 0x7B JUMP JUMPDEST SWAP3 SWAP2 POP POP JUMP JUMPDEST PUSH1 0x0 PUSH1 0x20 DUP3 DUP5 SUB SLT ISZERO PUSH3 0xC5 JUMPI PUSH3 0xC4 PUSH3 0x6C JUMP JUMPDEST JUMPDEST PUSH1 0x0 PUSH3 0xD5 DUP5 DUP3 DUP6 ADD PUSH3 0x95 JUMP JUMPDEST SWAP2 POP POP SWAP3 SWAP2 POP POP JUMP JUMPDEST PUSH2 0x149C DUP1 PUSH3 0xEE PUSH1 0x0 CODECOPY PUSH1 0x0 RETURN INVALID PUSH1 0x80 PUSH1 0x40 MSTORE CALLVALUE DUP1 ISZERO PUSH2 0x10 JUMPI PUSH1 0x0 DUP1 REVERT JUMPDEST POP PUSH1 0x4 CALLDATASIZE LT PUSH2 0x10B JUMPI PUSH1 0x0 CALLDATALOAD PUSH1 0xE0 SHR DUP1 PUSH4 0x557ED1BA GT PUSH2 0xA2 JUMPI DUP1 PUSH4 0x8FA11864 GT PUSH2 0x71 JUMPI DUP1 PUSH4 0x8FA11864 EQ PUSH2 0x25E JUMPI DUP1 PUSH4 0x94B5DCAA EQ PUSH2 0x27C JUMPI DUP1 PUSH4 0xAA8C217C EQ PUSH2 0x29A JUMPI DUP1 PUSH4 0xBC309496 EQ PUSH2 0x2B8 JUMPI DUP1 PUSH4 0xE21F37CE EQ PUSH2 0x2D6 JUMPI PUSH2 0x10B JUMP JUMPDEST DUP1 PUSH4 0x557ED1BA EQ PUSH2 0x1FA JUMPI DUP1 PUSH4 0x7B9A3F4C EQ PUSH2 0x218 JUMPI DUP1 PUSH4 0x7EB9F571 EQ PUSH2 0x236 JUMPI DUP1 PUSH4 0x8E029C0B EQ PUSH2 0x254 JUMPI PUSH2 0x10B JUMP JUMPDEST DUP1 PUSH4 0x34F5CCDE GT PUSH2 0xDE JUMPI DUP1 PUSH4 0x34F5CCDE EQ PUSH2 0x182 JUMPI DUP1 PUSH4 0x3C626F00 EQ PUSH2 0x1A0 JUMPI DUP1 PUSH4 0x42FB7936 EQ PUSH2 0x1BE JUMPI DUP1 PUSH4 0x4B28F9A2 EQ PUSH2 0x1DC JUMPI PUSH2 0x10B JUMP JUMPDEST DUP1 PUSH4 0x39AEC2D EQ PUSH2 0x110 JUMPI DUP1 PUSH4 0x62A7544 EQ PUSH2 0x12C JUMPI DUP1 PUSH4 0xE85FA72 EQ PUSH2 0x148 JUMPI DUP1 PUSH4 0x12A029A4 EQ PUSH2 0x166 JUMPI JUMPDEST PUSH1 0x0 DUP1 REVERT JUMPDEST PUSH2 0x12A PUSH1 0x4 DUP1 CALLDATASIZE SUB DUP2 ADD SWAP1 PUSH2 0x125 SWAP2 SWAP1 PUSH2 0xA19 JUMP JUMPDEST PUSH2 0x2F4 JUMP JUMPDEST STOP JUMPDEST PUSH2 0x146 PUSH1 0x4 DUP1 CALLDATASIZE SUB DUP2 ADD SWAP1 PUSH2 0x141 SWAP2 SWAP1 PUSH2 0xAA4 JUMP JUMPDEST PUSH2 0x2F7 JUMP JUMPDEST STOP JUMPDEST PUSH2 0x150 PUSH2 0x70C JUMP JUMPDEST PUSH1 0x40 MLOAD PUSH2 0x15D SWAP2 SWAP1 PUSH2 0xAF3 JUMP JUMPDEST PUSH1 0x40 MLOAD DUP1 SWAP2 SUB SWAP1 RETURN JUMPDEST PUSH2 0x180 PUSH1 0x4 DUP1 CALLDATASIZE SUB DUP2 ADD SWAP1 PUSH2 0x17B SWAP2 SWAP1 PUSH2 0xC54 JUMP JUMPDEST PUSH2 0x712 JUMP JUMPDEST STOP JUMPDEST PUSH2 0x18A PUSH2 0x7C3 JUMP JUMPDEST PUSH1 0x40 MLOAD PUSH2 0x197 SWAP2 SWAP1 PUSH2 0xAF3 JUMP JUMPDEST PUSH1 0x40 MLOAD DUP1 SWAP2 SUB SWAP1 RETURN JUMPDEST PUSH2 0x1A8 PUSH2 0x7C9 JUMP JUMPDEST PUSH1 0x40 MLOAD PUSH2 0x1B5 SWAP2 SWAP1 PUSH2 0xCE7 JUMP JUMPDEST PUSH1 0x40 MLOAD DUP1 SWAP2 SUB SWAP1 RETURN JUMPDEST PUSH2 0x1C6 PUSH2 0x7DC JUMP JUMPDEST PUSH1 0x40 MLOAD PUSH2 0x1D3 SWAP2 SWAP1 PUSH2 0xD8A JUMP JUMPDEST PUSH1 0x40 MLOAD DUP1 SWAP2 SUB SWAP1 RETURN JUMPDEST PUSH2 0x1E4 PUSH2 0x86A JUMP JUMPDEST PUSH1 0x40 MLOAD PUSH2 0x1F1 SWAP2 SWAP1 PUSH2 0xAF3 JUMP JUMPDEST PUSH1 0x40 MLOAD DUP1 SWAP2 SUB SWAP1 RETURN JUMPDEST PUSH2 0x202 PUSH2 0x870 JUMP JUMPDEST PUSH1 0x40 MLOAD PUSH2 0x20F SWAP2 SWAP1 PUSH2 0xAF3 JUMP JUMPDEST PUSH1 0x40 MLOAD DUP1 SWAP2 SUB SWAP1 RETURN JUMPDEST PUSH2 0x220 PUSH2 0x878 JUMP JUMPDEST PUSH1 0x40 MLOAD PUSH2 0x22D SWAP2 SWAP1 PUSH2 0xAF3 JUMP JUMPDEST PUSH1 0x40 MLOAD DUP1 SWAP2 SUB SWAP1 RETURN JUMPDEST PUSH2 0x23E PUSH2 0x87E JUMP JUMPDEST PUSH1 0x40 MLOAD PUSH2 0x24B SWAP2 SWAP1 PUSH2 0xAF3 JUMP JUMPDEST PUSH1 0x40 MLOAD DUP1 SWAP2 SUB SWAP1 RETURN JUMPDEST PUSH2 0x25C PUSH2 0x884 JUMP JUMPDEST STOP JUMPDEST PUSH2 0x266 PUSH2 0x8A1 JUMP JUMPDEST PUSH1 0x40 MLOAD PUSH2 0x273 SWAP2 SWAP1 PUSH2 0xD8A JUMP JUMPDEST PUSH1 0x40 MLOAD DUP1 SWAP2 SUB SWAP1 RETURN JUMPDEST PUSH2 0x284 PUSH2 0x92F JUMP JUMPDEST PUSH1 0x40 MLOAD PUSH2 0x291 SWAP2 SWAP1 PUSH2 0xAF3 JUMP JUMPDEST PUSH1 0x40 MLOAD DUP1 SWAP2 SUB SWAP1 RETURN JUMPDEST PUSH2 0x2A2 PUSH2 0x935 JUMP JUMPDEST PUSH1 0x40 MLOAD PUSH2 0x2AF SWAP2 SWAP1 PUSH2 0xAF3 JUMP JUMPDEST PUSH1 0x40 MLOAD DUP1 SWAP2 SUB SWAP1 RETURN JUMPDEST PUSH2 0x2C0 PUSH2 0x93B JUMP JUMPDEST PUSH1 0x40 MLOAD PUSH2 0x2CD SWAP2 SWAP1 PUSH2 0xAF3 JUMP JUMPDEST PUSH1 0x40 MLOAD DUP1 SWAP2 SUB SWAP1 RETURN JUMPDEST PUSH2 0x2DE PUSH2 0x941 JUMP JUMPDEST PUSH1 0x40 MLOAD PUSH2 0x2EB SWAP2 SWAP1 PUSH2 0xD8A JUMP JUMPDEST PUSH1 0x40 MLOAD DUP1 SWAP2 SUB SWAP1 RETURN JUMPDEST POP JUMP JUMPDEST DUP1 DUP1 PUSH1 0x2 PUSH1 0x0 PUSH2 0x100 EXP DUP2 SLOAD DUP2 PUSH20 0xFFFFFFFFFFFFFFFFFFFFFFFFFFFFFFFFFFFFFFFF MUL NOT AND SWAP1 DUP4 PUSH20 0xFFFFFFFFFFFFFFFFFFFFFFFFFFFFFFFFFFFFFFFF AND MUL OR SWAP1 SSTORE POP PUSH1 0x0 PUSH20 0xFFFFFFFFFFFFFFFFFFFFFFFFFFFFFFFFFFFFFFFF AND DUP2 PUSH20 0xFFFFFFFFFFFFFFFFFFFFFFFFFFFFFFFFFFFFFFFF AND SUB PUSH2 0x3A8 JUMPI PUSH1 0x40 MLOAD PUSH32 0x8C379A000000000000000000000000000000000000000000000000000000000 DUP2 MSTORE PUSH1 0x4 ADD PUSH2 0x39F SWAP1 PUSH2 0xDF8 JUMP JUMPDEST PUSH1 0x40 MLOAD DUP1 SWAP2 SUB SWAP1 REVERT JUMPDEST PUSH1 0x0 ISZERO ISZERO PUSH1 0x10 PUSH1 0x0 SWAP1 SLOAD SWAP1 PUSH2 0x100 EXP SWAP1 DIV PUSH1 0xFF AND ISZERO ISZERO SUB PUSH2 0x3FE JUMPI PUSH1 0x40 MLOAD PUSH32 0x8C379A000000000000000000000000000000000000000000000000000000000 DUP2 MSTORE PUSH1 0x4 ADD PUSH2 0x3F5 SWAP1 PUSH2 0xE64 JUMP JUMPDEST PUSH1 0x40 MLOAD DUP1 SWAP2 SUB SWAP1 REVERT JUMPDEST PUSH2 0x9C4 PUSH1 0xC SLOAD GT DUP1 ISZERO PUSH2 0x41F JUMPI POP PUSH1 0x1E PUSH1 0xD SLOAD PUSH2 0x41B SWAP2 SWAP1 PUSH2 0xEB3 JUMP JUMPDEST TIMESTAMP GT ISZERO JUMPDEST ISZERO PUSH2 0x47A JUMPI PUSH1 0x0 PUSH1 0xC DUP2 SWAP1 SSTORE POP PUSH1 0x0 PUSH1 0xC SLOAD EQ PUSH2 0x43F JUMPI PUSH2 0x43E PUSH2 0xF09 JUMP JUMPDEST JUMPDEST PUSH1 0x40 MLOAD PUSH32 0x8C379A000000000000000000000000000000000000000000000000000000000 DUP2 MSTORE PUSH1 0x4 ADD PUSH2 0x471 SWAP1 PUSH2 0xF84 JUMP JUMPDEST PUSH1 0x40 MLOAD DUP1 SWAP2 SUB SWAP1 REVERT JUMPDEST PUSH2 0x9C4 PUSH1 0xC SLOAD GT ISZERO DUP1 ISZERO PUSH2 0x49C JUMPI POP PUSH1 0x1E PUSH1 0xD SLOAD PUSH2 0x498 SWAP2 SWAP1 PUSH2 0xEB3 JUMP JUMPDEST TIMESTAMP LT ISZERO JUMPDEST ISZERO PUSH2 0x4C4 JUMPI PUSH1 0x0 PUSH1 0xC DUP2 SWAP1 SSTORE POP PUSH1 0x0 PUSH1 0xC SLOAD EQ PUSH2 0x4BC JUMPI PUSH2 0x4BB PUSH2 0xF09 JUMP JUMPDEST JUMPDEST TIMESTAMP PUSH1 0xD DUP2 SWAP1 SSTORE POP JUMPDEST PUSH1 0x5 PUSH1 0xF SLOAD LT ISZERO DUP1 ISZERO PUSH2 0x4E5 JUMPI POP PUSH1 0x1E PUSH1 0xD SLOAD PUSH2 0x4E1 SWAP2 SWAP1 PUSH2 0xEB3 JUMP JUMPDEST TIMESTAMP GT ISZERO JUMPDEST ISZERO PUSH2 0x540 JUMPI PUSH1 0x0 PUSH1 0xF DUP2 SWAP1 SSTORE POP PUSH1 0x0 PUSH1 0xF SLOAD EQ PUSH2 0x505 JUMPI PUSH2 0x504 PUSH2 0xF09 JUMP JUMPDEST JUMPDEST PUSH1 0x40 MLOAD PUSH32 0x8C379A000000000000000000000000000000000000000000000000000000000 DUP2 MSTORE PUSH1 0x4 ADD PUSH2 0x537 SWAP1 PUSH2 0xFF0 JUMP JUMPDEST PUSH1 0x40 MLOAD DUP1 SWAP2 SUB SWAP1 REVERT JUMPDEST PUSH1 0x5 PUSH1 0xF SLOAD GT ISZERO DUP1 ISZERO PUSH2 0x561 JUMPI POP PUSH1 0x1E PUSH1 0xD SLOAD PUSH2 0x55D SWAP2 SWAP1 PUSH2 0xEB3 JUMP JUMPDEST TIMESTAMP LT ISZERO JUMPDEST ISZERO PUSH2 0x589 JUMPI PUSH1 0x0 PUSH1 0xF DUP2 SWAP1 SSTORE POP PUSH1 0x0 PUSH1 0xF SLOAD EQ PUSH2 0x581 JUMPI PUSH2 0x580 PUSH2 0xF09 JUMP JUMPDEST JUMPDEST TIMESTAMP PUSH1 0xD DUP2 SWAP1 SSTORE POP JUMPDEST DUP2 PUSH1 0x2 PUSH1 0x0 PUSH2 0x100 EXP DUP2 SLOAD DUP2 PUSH20 0xFFFFFFFFFFFFFFFFFFFFFFFFFFFFFFFFFFFFFFFF MUL NOT AND SWAP1 DUP4 PUSH20 0xFFFFFFFFFFFFFFFFFFFFFFFFFFFFFFFFFFFFFFFF AND MUL OR SWAP1 SSTORE POP DUP3 PUSH1 0x0 DUP2 SWAP1 SSTORE POP PUSH2 0x9C4 PUSH1 0x0 SLOAD GT ISZERO PUSH2 0x618 JUMPI PUSH1 0x40 MLOAD PUSH32 0x8C379A000000000000000000000000000000000000000000000000000000000 DUP2 MSTORE PUSH1 0x4 ADD PUSH2 0x60F SWAP1 PUSH2 0x105C JUMP JUMPDEST PUSH1 0x40 MLOAD DUP1 SWAP2 SUB SWAP1 REVERT JUMPDEST PUSH1 0x1 PUSH1 0xF PUSH1 0x0 DUP3 DUP3 SLOAD PUSH2 0x62B SWAP2 SWAP1 PUSH2 0xEB3 JUMP JUMPDEST SWAP3 POP POP DUP2 SWAP1 SSTORE POP PUSH1 0x0 PUSH1 0x1 SLOAD GT DUP1 ISZERO PUSH2 0x647 JUMPI POP PUSH1 0x0 SLOAD PUSH1 0x1 SLOAD GT JUMPDEST ISZERO PUSH2 0x6CC JUMPI PUSH1 0x0 SLOAD PUSH1 0x1 PUSH1 0x0 DUP3 DUP3 SLOAD PUSH2 0x660 SWAP2 SWAP1 PUSH2 0x107C JUMP JUMPDEST SWAP3 POP POP DUP2 SWAP1 SSTORE POP PUSH1 0x0 SLOAD PUSH1 0xC PUSH1 0x0 DUP3 DUP3 SLOAD PUSH2 0x67B SWAP2 SWAP1 PUSH2 0xEB3 JUMP JUMPDEST SWAP3 POP POP DUP2 SWAP1 SSTORE POP PUSH1 0x40 MLOAD DUP1 PUSH1 0x40 ADD PUSH1 0x40 MSTORE DUP1 PUSH1 0x12 DUP2 MSTORE PUSH1 0x20 ADD PUSH32 0x5472616E7366657220636F6D706C657465640000000000000000000000000000 DUP2 MSTORE POP PUSH1 0x9 SWAP1 DUP2 PUSH2 0x6C6 SWAP2 SWAP1 PUSH2 0x12BC JUMP JUMPDEST POP PUSH2 0x707 JUMP JUMPDEST PUSH1 0x40 MLOAD PUSH32 0x8C379A000000000000000000000000000000000000000000000000000000000 DUP2 MSTORE PUSH1 0x4 ADD PUSH2 0x6FE SWAP1 PUSH2 0x13DA JUMP JUMPDEST PUSH1 0x40 MLOAD DUP1 SWAP2 SUB SWAP1 REVERT JUMPDEST POP POP POP JUMP JUMPDEST PUSH1 0xD SLOAD DUP2 JUMP JUMPDEST DUP2 PUSH1 0xA SWAP1 DUP2 PUSH2 0x721 SWAP2 SWAP1 PUSH2 0x12BC JUMP JUMPDEST POP DUP1 PUSH1 0xB SWAP1 DUP2 PUSH2 0x731 SWAP2 SWAP1 PUSH2 0x12BC JUMP JUMPDEST POP PUSH1 0x1 PUSH1 0x10 PUSH1 0x0 PUSH2 0x100 EXP DUP2 SLOAD DUP2 PUSH1 0xFF MUL NOT AND SWAP1 DUP4 ISZERO ISZERO MUL OR SWAP1 SSTORE POP TIMESTAMP PUSH1 0xD DUP2 SWAP1 SSTORE POP PUSH1 0x8 PUSH1 0xA DUP1 SLOAD PUSH2 0x763 SWAP1 PUSH2 0x10DF JUMP JUMPDEST SWAP1 POP EQ DUP1 ISZERO PUSH2 0x780 JUMPI POP PUSH1 0x3 PUSH1 0xB DUP1 SLOAD PUSH2 0x77C SWAP1 PUSH2 0x10DF JUMP JUMPDEST SWAP1 POP EQ JUMPDEST PUSH2 0x7BF JUMPI PUSH1 0x40 MLOAD PUSH32 0x8C379A000000000000000000000000000000000000000000000000000000000 DUP2 MSTORE PUSH1 0x4 ADD PUSH2 0x7B6 SWAP1 PUSH2 0x1446 JUMP JUMPDEST PUSH1 0x40 MLOAD DUP1 SWAP2 SUB SWAP1 REVERT JUMPDEST POP POP JUMP JUMPDEST PUSH1 0xE SLOAD DUP2 JUMP JUMPDEST PUSH1 0x10 PUSH1 0x0 SWAP1 SLOAD SWAP1 PUSH2 0x100 EXP SWAP1 DIV PUSH1 0xFF AND DUP2 JUMP JUMPDEST PUSH1 0xB DUP1 SLOAD PUSH2 0x7E9 SWAP1 PUSH2 0x10DF JUMP JUMPDEST DUP1 PUSH1 0x1F ADD PUSH1 0x20 DUP1 SWAP2 DIV MUL PUSH1 0x20 ADD PUSH1 0x40 MLOAD SWAP1 DUP2 ADD PUSH1 0x40 MSTORE DUP1 SWAP3 SWAP2 SWAP1 DUP2 DUP2 MSTORE PUSH1 0x20 ADD DUP3 DUP1 SLOAD PUSH2 0x815 SWAP1 PUSH2 0x10DF JUMP JUMPDEST DUP1 ISZERO PUSH2 0x862 JUMPI DUP1 PUSH1 0x1F LT PUSH2 0x837 JUMPI PUSH2 0x100 DUP1 DUP4 SLOAD DIV MUL DUP4 MSTORE SWAP2 PUSH1 0x20 ADD SWAP2 PUSH2 0x862 JUMP JUMPDEST DUP3 ADD SWAP2 SWAP1 PUSH1 0x0 MSTORE PUSH1 0x20 PUSH1 0x0 KECCAK256 SWAP1 JUMPDEST DUP2 SLOAD DUP2 MSTORE SWAP1 PUSH1 0x1 ADD SWAP1 PUSH1 0x20 ADD DUP1 DUP4 GT PUSH2 0x845 JUMPI DUP3 SWAP1 SUB PUSH1 0x1F AND DUP3 ADD SWAP2 JUMPDEST POP POP POP POP POP DUP2 JUMP JUMPDEST PUSH1 0xF SLOAD DUP2 JUMP JUMPDEST PUSH1 0x0 TIMESTAMP SWAP1 POP SWAP1 JUMP JUMPDEST PUSH1 0x1 SLOAD DUP2 JUMP JUMPDEST PUSH1 0xC SLOAD DUP2 JUMP JUMPDEST PUSH1 0x0 PUSH1 0x10 PUSH1 0x0 PUSH2 0x100 EXP DUP2 SLOAD DUP2 PUSH1 0xFF MUL NOT AND SWAP1 DUP4 ISZERO ISZERO MUL OR SWAP1 SSTORE POP JUMP JUMPDEST PUSH1 0xA DUP1 SLOAD PUSH2 0x8AE SWAP1 PUSH2 0x10DF JUMP JUMPDEST DUP1 PUSH1 0x1F ADD PUSH1 0x20 DUP1 SWAP2 DIV MUL PUSH1 0x20 ADD PUSH1 0x40 MLOAD SWAP1 DUP2 ADD PUSH1 0x40 MSTORE DUP1 SWAP3 SWAP2 SWAP1 DUP2 DUP2 MSTORE PUSH1 0x20 ADD DUP3 DUP1 SLOAD PUSH2 0x8DA SWAP1 PUSH2 0x10DF JUMP JUMPDEST DUP1 ISZERO PUSH2 0x927 JUMPI DUP1 PUSH1 0x1F LT PUSH2 0x8FC JUMPI PUSH2 0x100 DUP1 DUP4 SLOAD DIV MUL DUP4 MSTORE SWAP2 PUSH1 0x20 ADD SWAP2 PUSH2 0x927 JUMP JUMPDEST DUP3 ADD SWAP2 SWAP1 PUSH1 0x0 MSTORE PUSH1 0x20 PUSH1 0x0 KECCAK256 SWAP1 JUMPDEST DUP2 SLOAD DUP2 MSTORE SWAP1 PUSH1 0x1 ADD SWAP1 PUSH1 0x20 ADD DUP1 DUP4 GT PUSH2 0x90A JUMPI DUP3 SWAP1 SUB PUSH1 0x1F AND DUP3 ADD SWAP2 JUMPDEST POP POP POP POP POP DUP2 JUMP JUMPDEST PUSH1 0x4 SLOAD DUP2 JUMP JUMPDEST PUSH1 0x0 SLOAD DUP2 JUMP JUMPDEST PUSH1 0x8 SLOAD DUP2 JUMP JUMPDEST PUSH1 0x9 DUP1 SLOAD PUSH2 0x94E SWAP1 PUSH2 0x10DF JUMP JUMPDEST DUP1 PUSH1 0x1F ADD PUSH1 0x20 DUP1 SWAP2 DIV MUL PUSH1 0x20 ADD PUSH1 0x40 MLOAD SWAP1 DUP2 ADD PUSH1 0x40 MSTORE DUP1 SWAP3 SWAP2 SWAP1 DUP2 DUP2 MSTORE PUSH1 0x20 ADD DUP3 DUP1 SLOAD PUSH2 0x97A SWAP1 PUSH2 0x10DF JUMP JUMPDEST DUP1 ISZERO PUSH2 0x9C7 JUMPI DUP1 PUSH1 0x1F LT PUSH2 0x99C JUMPI PUSH2 0x100 DUP1 DUP4 SLOAD DIV MUL DUP4 MSTORE SWAP2 PUSH1 0x20 ADD SWAP2 PUSH2 0x9C7 JUMP JUMPDEST DUP3 ADD SWAP2 SWAP1 PUSH1 0x0 MSTORE PUSH1 0x20 PUSH1 0x0 KECCAK256 SWAP1 JUMPDEST DUP2 SLOAD DUP2 MSTORE SWAP1 PUSH1 0x1 ADD SWAP1 PUSH1 0x20 ADD DUP1 DUP4 GT PUSH2 0x9AA JUMPI DUP3 SWAP1 SUB PUSH1 0x1F AND DUP3 ADD SWAP2 JUMPDEST POP POP POP POP POP DUP2 JUMP JUMPDEST PUSH1 0x0 PUSH1 0x40 MLOAD SWAP1 POP SWAP1 JUMP JUMPDEST PUSH1 0x0 DUP1 REVERT JUMPDEST PUSH1 0x0 DUP1 REVERT JUMPDEST PUSH1 0x0 DUP2 SWAP1 POP SWAP2 SWAP1 POP JUMP JUMPDEST PUSH2 0x9F6 DUP2 PUSH2 0x9E3 JUMP JUMPDEST DUP2 EQ PUSH2 0xA01 JUMPI PUSH1 0x0 DUP1 REVERT JUMPDEST POP JUMP JUMPDEST PUSH1 0x0 DUP2 CALLDATALOAD SWAP1 POP PUSH2 0xA13 DUP2 PUSH2 0x9ED JUMP JUMPDEST SWAP3 SWAP2 POP POP JUMP JUMPDEST PUSH1 0x0 PUSH1 0x20 DUP3 DUP5 SUB SLT ISZERO PUSH2 0xA2F JUMPI PUSH2 0xA2E PUSH2 0x9D9 JUMP JUMPDEST JUMPDEST PUSH1 0x0 PUSH2 0xA3D DUP5 DUP3 DUP6 ADD PUSH2 0xA04 JUMP JUMPDEST SWAP2 POP POP SWAP3 SWAP2 POP POP JUMP JUMPDEST PUSH1 0x0 PUSH20 0xFFFFFFFFFFFFFFFFFFFFFFFFFFFFFFFFFFFFFFFF DUP3 AND SWAP1 POP SWAP2 SWAP1 POP JUMP JUMPDEST PUSH1 0x0 PUSH2 0xA71 DUP3 PUSH2 0xA46 JUMP JUMPDEST SWAP1 POP SWAP2 SWAP1 POP JUMP JUMPDEST PUSH2 0xA81 DUP2 PUSH2 0xA66 JUMP JUMPDEST DUP2 EQ PUSH2 0xA8C JUMPI PUSH1 0x0 DUP1 REVERT JUMPDEST POP JUMP JUMPDEST PUSH1 0x0 DUP2 CALLDATALOAD SWAP1 POP PUSH2 0xA9E DUP2 PUSH2 0xA78 JUMP JUMPDEST SWAP3 SWAP2 POP POP JUMP JUMPDEST PUSH1 0x0 DUP1 PUSH1 0x40 DUP4 DUP6 SUB SLT ISZERO PUSH2 0xABB JUMPI PUSH2 0xABA PUSH2 0x9D9 JUMP JUMPDEST JUMPDEST PUSH1 0x0 PUSH2 0xAC9 DUP6 DUP3 DUP7 ADD PUSH2 0xA04 JUMP JUMPDEST SWAP3 POP POP PUSH1 0x20 PUSH2 0xADA DUP6 DUP3 DUP7 ADD PUSH2 0xA8F JUMP JUMPDEST SWAP2 POP POP SWAP3 POP SWAP3 SWAP1 POP JUMP JUMPDEST PUSH2 0xAED DUP2 PUSH2 0x9E3 JUMP JUMPDEST DUP3 MSTORE POP POP JUMP JUMPDEST PUSH1 0x0 PUSH1 0x20 DUP3 ADD SWAP1 POP PUSH2 0xB08 PUSH1 0x0 DUP4 ADD DUP5 PUSH2 0xAE4 JUMP JUMPDEST SWAP3 SWAP2 POP POP JUMP JUMPDEST PUSH1 0x0 DUP1 REVERT JUMPDEST PUSH1 0x0 DUP1 REVERT JUMPDEST PUSH1 0x0 PUSH1 0x1F NOT PUSH1 0x1F DUP4 ADD AND SWAP1 POP SWAP2 SWAP1 POP JUMP JUMPDEST PUSH32 0x4E487B7100000000000000000000000000000000000000000000000000000000 PUSH1 0x0 MSTORE PUSH1 0x41 PUSH1 0x4 MSTORE PUSH1 0x24 PUSH1 0x0 REVERT JUMPDEST PUSH2 0xB61 DUP3 PUSH2 0xB18 JUMP JUMPDEST DUP2 ADD DUP2 DUP2 LT PUSH8 0xFFFFFFFFFFFFFFFF DUP3 GT OR ISZERO PUSH2 0xB80 JUMPI PUSH2 0xB7F PUSH2 0xB29 JUMP JUMPDEST JUMPDEST DUP1 PUSH1 0x40 MSTORE POP POP POP JUMP JUMPDEST PUSH1 0x0 PUSH2 0xB93 PUSH2 0x9CF JUMP JUMPDEST SWAP1 POP PUSH2 0xB9F DUP3 DUP3 PUSH2 0xB58 JUMP JUMPDEST SWAP2 SWAP1 POP JUMP JUMPDEST PUSH1 0x0 PUSH8 0xFFFFFFFFFFFFFFFF DUP3 GT ISZERO PUSH2 0xBBF JUMPI PUSH2 0xBBE PUSH2 0xB29 JUMP JUMPDEST JUMPDEST PUSH2 0xBC8 DUP3 PUSH2 0xB18 JUMP JUMPDEST SWAP1 POP PUSH1 0x20 DUP2 ADD SWAP1 POP SWAP2 SWAP1 POP JUMP JUMPDEST DUP3 DUP2 DUP4 CALLDATACOPY PUSH1 0x0 DUP4 DUP4 ADD MSTORE POP POP POP JUMP JUMPDEST PUSH1 0x0 PUSH2 0xBF7 PUSH2 0xBF2 DUP5 PUSH2 0xBA4 JUMP JUMPDEST PUSH2 0xB89 JUMP JUMPDEST SWAP1 POP DUP3 DUP2 MSTORE PUSH1 0x20 DUP2 ADD DUP5 DUP5 DUP5 ADD GT ISZERO PUSH2 0xC13 JUMPI PUSH2 0xC12 PUSH2 0xB13 JUMP JUMPDEST JUMPDEST PUSH2 0xC1E DUP5 DUP3 DUP6 PUSH2 0xBD5 JUMP JUMPDEST POP SWAP4 SWAP3 POP POP POP JUMP JUMPDEST PUSH1 0x0 DUP3 PUSH1 0x1F DUP4 ADD SLT PUSH2 0xC3B JUMPI PUSH2 0xC3A PUSH2 0xB0E JUMP JUMPDEST JUMPDEST DUP2 CALLDATALOAD PUSH2 0xC4B DUP5 DUP3 PUSH1 0x20 DUP7 ADD PUSH2 0xBE4 JUMP JUMPDEST SWAP2 POP POP SWAP3 SWAP2 POP POP JUMP JUMPDEST PUSH1 0x0 DUP1 PUSH1 0x40 DUP4 DUP6 SUB SLT ISZERO PUSH2 0xC6B JUMPI PUSH2 0xC6A PUSH2 0x9D9 JUMP JUMPDEST JUMPDEST PUSH1 0x0 DUP4 ADD CALLDATALOAD PUSH8 0xFFFFFFFFFFFFFFFF DUP2 GT ISZERO PUSH2 0xC89 JUMPI PUSH2 0xC88 PUSH2 0x9DE JUMP JUMPDEST JUMPDEST PUSH2 0xC95 DUP6 DUP3 DUP7 ADD PUSH2 0xC26 JUMP JUMPDEST SWAP3 POP POP PUSH1 0x20 DUP4 ADD CALLDATALOAD PUSH8 0xFFFFFFFFFFFFFFFF DUP2 GT ISZERO PUSH2 0xCB6 JUMPI PUSH2 0xCB5 PUSH2 0x9DE JUMP JUMPDEST JUMPDEST PUSH2 0xCC2 DUP6 DUP3 DUP7 ADD PUSH2 0xC26 JUMP JUMPDEST SWAP2 POP POP SWAP3 POP SWAP3 SWAP1 POP JUMP JUMPDEST PUSH1 0x0 DUP2 ISZERO ISZERO SWAP1 POP SWAP2 SWAP1 POP JUMP JUMPDEST PUSH2 0xCE1 DUP2 PUSH2 0xCCC JUMP JUMPDEST DUP3 MSTORE POP POP JUMP JUMPDEST PUSH1 0x0 PUSH1 0x20 DUP3 ADD SWAP1 POP PUSH2 0xCFC PUSH1 0x0 DUP4 ADD DUP5 PUSH2 0xCD8 JUMP JUMPDEST SWAP3 SWAP2 POP POP JUMP JUMPDEST PUSH1 0x0 DUP2 MLOAD SWAP1 POP SWAP2 SWAP1 POP JUMP JUMPDEST PUSH1 0x0 DUP3 DUP3 MSTORE PUSH1 0x20 DUP3 ADD SWAP1 POP SWAP3 SWAP2 POP POP JUMP JUMPDEST PUSH1 0x0 JUMPDEST DUP4 DUP2 LT ISZERO PUSH2 0xD3C JUMPI DUP1 DUP3 ADD MLOAD DUP2 DUP5 ADD MSTORE PUSH1 0x20 DUP2 ADD SWAP1 POP PUSH2 0xD21 JUMP JUMPDEST DUP4 DUP2 GT ISZERO PUSH2 0xD4B JUMPI PUSH1 0x0 DUP5 DUP5 ADD MSTORE JUMPDEST POP POP POP POP JUMP JUMPDEST PUSH1 0x0 PUSH2 0xD5C DUP3 PUSH2 0xD02 JUMP JUMPDEST PUSH2 0xD66 DUP2 DUP6 PUSH2 0xD0D JUMP JUMPDEST SWAP4 POP PUSH2 0xD76 DUP2 DUP6 PUSH1 0x20 DUP7 ADD PUSH2 0xD1E JUMP JUMPDEST PUSH2 0xD7F DUP2 PUSH2 0xB18 JUMP JUMPDEST DUP5 ADD SWAP2 POP POP SWAP3 SWAP2 POP POP JUMP JUMPDEST PUSH1 0x0 PUSH1 0x20 DUP3 ADD SWAP1 POP DUP2 DUP2 SUB PUSH1 0x0 DUP4 ADD MSTORE PUSH2 0xDA4 DUP2 DUP5 PUSH2 0xD51 JUMP JUMPDEST SWAP1 POP SWAP3 SWAP2 POP POP JUMP JUMPDEST PUSH32 0x2054686973206164647265737320646F65736E27742065786973747300000000 PUSH1 0x0 DUP3 ADD MSTORE POP JUMP JUMPDEST PUSH1 0x0 PUSH2 0xDE2 PUSH1 0x1C DUP4 PUSH2 0xD0D JUMP JUMPDEST SWAP2 POP PUSH2 0xDED DUP3 PUSH2 0xDAC JUMP JUMPDEST PUSH1 0x20 DUP3 ADD SWAP1 POP SWAP2 SWAP1 POP JUMP JUMPDEST PUSH1 0x0 PUSH1 0x20 DUP3 ADD SWAP1 POP DUP2 DUP2 SUB PUSH1 0x0 DUP4 ADD MSTORE PUSH2 0xE11 DUP2 PUSH2 0xDD5 JUMP JUMPDEST SWAP1 POP SWAP2 SWAP1 POP JUMP JUMPDEST PUSH32 0x506C6561736520696E7365727420796F75722063617264000000000000000000 PUSH1 0x0 DUP3 ADD MSTORE POP JUMP JUMPDEST PUSH1 0x0 PUSH2 0xE4E PUSH1 0x17 DUP4 PUSH2 0xD0D JUMP JUMPDEST SWAP2 POP PUSH2 0xE59 DUP3 PUSH2 0xE18 JUMP JUMPDEST PUSH1 0x20 DUP3 ADD SWAP1 POP SWAP2 SWAP1 POP JUMP JUMPDEST PUSH1 0x0 PUSH1 0x20 DUP3 ADD SWAP1 POP DUP2 DUP2 SUB PUSH1 0x0 DUP4 ADD MSTORE PUSH2 0xE7D DUP2 PUSH2 0xE41 JUMP JUMPDEST SWAP1 POP SWAP2 SWAP1 POP JUMP JUMPDEST PUSH32 0x4E487B7100000000000000000000000000000000000000000000000000000000 PUSH1 0x0 MSTORE PUSH1 0x11 PUSH1 0x4 MSTORE PUSH1 0x24 PUSH1 0x0 REVERT JUMPDEST PUSH1 0x0 PUSH2 0xEBE DUP3 PUSH2 0x9E3 JUMP JUMPDEST SWAP2 POP PUSH2 0xEC9 DUP4 PUSH2 0x9E3 JUMP JUMPDEST SWAP3 POP DUP3 PUSH32 0xFFFFFFFFFFFFFFFFFFFFFFFFFFFFFFFFFFFFFFFFFFFFFFFFFFFFFFFFFFFFFFFF SUB DUP3 GT ISZERO PUSH2 0xEFE JUMPI PUSH2 0xEFD PUSH2 0xE84 JUMP JUMPDEST JUMPDEST DUP3 DUP3 ADD SWAP1 POP SWAP3 SWAP2 POP POP JUMP JUMPDEST PUSH32 0x4E487B7100000000000000000000000000000000000000000000000000000000 PUSH1 0x0 MSTORE PUSH1 0x1 PUSH1 0x4 MSTORE PUSH1 0x24 PUSH1 0x0 REVERT JUMPDEST PUSH32 0x596F75207265616368656420746865206C696D69742070657220646179000000 PUSH1 0x0 DUP3 ADD MSTORE POP JUMP JUMPDEST PUSH1 0x0 PUSH2 0xF6E PUSH1 0x1D DUP4 PUSH2 0xD0D JUMP JUMPDEST SWAP2 POP PUSH2 0xF79 DUP3 PUSH2 0xF38 JUMP JUMPDEST PUSH1 0x20 DUP3 ADD SWAP1 POP SWAP2 SWAP1 POP JUMP JUMPDEST PUSH1 0x0 PUSH1 0x20 DUP3 ADD SWAP1 POP DUP2 DUP2 SUB PUSH1 0x0 DUP4 ADD MSTORE PUSH2 0xF9D DUP2 PUSH2 0xF61 JUMP JUMPDEST SWAP1 POP SWAP2 SWAP1 POP JUMP JUMPDEST PUSH32 0x6F6E6C792035207472616E73616374696F6E7320706572206461790000000000 PUSH1 0x0 DUP3 ADD MSTORE POP JUMP JUMPDEST PUSH1 0x0 PUSH2 0xFDA PUSH1 0x1B DUP4 PUSH2 0xD0D JUMP JUMPDEST SWAP2 POP PUSH2 0xFE5 DUP3 PUSH2 0xFA4 JUMP JUMPDEST PUSH1 0x20 DUP3 ADD SWAP1 POP SWAP2 SWAP1 POP JUMP JUMPDEST PUSH1 0x0 PUSH1 0x20 DUP3 ADD SWAP1 POP DUP2 DUP2 SUB PUSH1 0x0 DUP4 ADD MSTORE PUSH2 0x1009 DUP2 PUSH2 0xFCD JUMP JUMPDEST SWAP1 POP SWAP2 SWAP1 POP JUMP JUMPDEST PUSH32 0x596F75207265616368656420746865206C696D69742053656E64282900000000 PUSH1 0x0 DUP3 ADD MSTORE POP JUMP JUMPDEST PUSH1 0x0 PUSH2 0x1046 PUSH1 0x1C DUP4 PUSH2 0xD0D JUMP JUMPDEST SWAP2 POP PUSH2 0x1051 DUP3 PUSH2 0x1010 JUMP JUMPDEST PUSH1 0x20 DUP3 ADD SWAP1 POP SWAP2 SWAP1 POP JUMP JUMPDEST PUSH1 0x0 PUSH1 0x20 DUP3 ADD SWAP1 POP DUP2 DUP2 SUB PUSH1 0x0 DUP4 ADD MSTORE PUSH2 0x1075 DUP2 PUSH2 0x1039 JUMP JUMPDEST SWAP1 POP SWAP2 SWAP1 POP JUMP JUMPDEST PUSH1 0x0 PUSH2 0x1087 DUP3 PUSH2 0x9E3 JUMP JUMPDEST SWAP2 POP PUSH2 0x1092 DUP4 PUSH2 0x9E3 JUMP JUMPDEST SWAP3 POP DUP3 DUP3 LT ISZERO PUSH2 0x10A5 JUMPI PUSH2 0x10A4 PUSH2 0xE84 JUMP JUMPDEST JUMPDEST DUP3 DUP3 SUB SWAP1 POP SWAP3 SWAP2 POP POP JUMP JUMPDEST PUSH32 0x4E487B7100000000000000000000000000000000000000000000000000000000 PUSH1 0x0 MSTORE PUSH1 0x22 PUSH1 0x4 MSTORE PUSH1 0x24 PUSH1 0x0 REVERT JUMPDEST PUSH1 0x0 PUSH1 0x2 DUP3 DIV SWAP1 POP PUSH1 0x1 DUP3 AND DUP1 PUSH2 0x10F7 JUMPI PUSH1 0x7F DUP3 AND SWAP2 POP JUMPDEST PUSH1 0x20 DUP3 LT DUP2 SUB PUSH2 0x110A JUMPI PUSH2 0x1109 PUSH2 0x10B0 JUMP JUMPDEST JUMPDEST POP SWAP2 SWAP1 POP JUMP JUMPDEST PUSH1 0x0 DUP2 SWAP1 POP DUP2 PUSH1 0x0 MSTORE PUSH1 0x20 PUSH1 0x0 KECCAK256 SWAP1 POP SWAP2 SWAP1 POP JUMP JUMPDEST PUSH1 0x0 PUSH1 0x20 PUSH1 0x1F DUP4 ADD DIV SWAP1 POP SWAP2 SWAP1 POP JUMP JUMPDEST PUSH1 0x0 DUP3 DUP3 SHL SWAP1 POP SWAP3 SWAP2 POP POP JUMP JUMPDEST PUSH1 0x0 PUSH1 0x8 DUP4 MUL PUSH2 0x1172 PUSH32 0xFFFFFFFFFFFFFFFFFFFFFFFFFFFFFFFFFFFFFFFFFFFFFFFFFFFFFFFFFFFFFFFF DUP3 PUSH2 0x1135 JUMP JUMPDEST PUSH2 0x117C DUP7 DUP4 PUSH2 0x1135 JUMP JUMPDEST SWAP6 POP DUP1 NOT DUP5 AND SWAP4 POP DUP1 DUP7 AND DUP5 OR SWAP3 POP POP POP SWAP4 SWAP3 POP POP POP JUMP JUMPDEST PUSH1 0x0 DUP2 SWAP1 POP SWAP2 SWAP1 POP JUMP JUMPDEST PUSH1 0x0 PUSH2 0x11B9 PUSH2 0x11B4 PUSH2 0x11AF DUP5 PUSH2 0x9E3 JUMP JUMPDEST PUSH2 0x1194 JUMP JUMPDEST PUSH2 0x9E3 JUMP JUMPDEST SWAP1 POP SWAP2 SWAP1 POP JUMP JUMPDEST PUSH1 0x0 DUP2 SWAP1 POP SWAP2 SWAP1 POP JUMP JUMPDEST PUSH2 0x11D3 DUP4 PUSH2 0x119E JUMP JUMPDEST PUSH2 0x11E7 PUSH2 0x11DF DUP3 PUSH2 0x11C0 JUMP JUMPDEST DUP5 DUP5 SLOAD PUSH2 0x1142 JUMP JUMPDEST DUP3 SSTORE POP POP POP POP JUMP JUMPDEST PUSH1 0x0 SWAP1 JUMP JUMPDEST PUSH2 0x11FC PUSH2 0x11EF JUMP JUMPDEST PUSH2 0x1207 DUP2 DUP5 DUP5 PUSH2 0x11CA JUMP JUMPDEST POP POP POP JUMP JUMPDEST JUMPDEST DUP2 DUP2 LT ISZERO PUSH2 0x122B JUMPI PUSH2 0x1220 PUSH1 0x0 DUP3 PUSH2 0x11F4 JUMP JUMPDEST PUSH1 0x1 DUP2 ADD SWAP1 POP PUSH2 0x120D JUMP JUMPDEST POP POP JUMP JUMPDEST PUSH1 0x1F DUP3 GT ISZERO PUSH2 0x1270 JUMPI PUSH2 0x1241 DUP2 PUSH2 0x1110 JUMP JUMPDEST PUSH2 0x124A DUP5 PUSH2 0x1125 JUMP JUMPDEST DUP2 ADD PUSH1 0x20 DUP6 LT ISZERO PUSH2 0x1259 JUMPI DUP2 SWAP1 POP JUMPDEST PUSH2 0x126D PUSH2 0x1265 DUP6 PUSH2 0x1125 JUMP JUMPDEST DUP4 ADD DUP3 PUSH2 0x120C JUMP JUMPDEST POP POP JUMPDEST POP POP POP JUMP JUMPDEST PUSH1 0x0 DUP3 DUP3 SHR SWAP1 POP SWAP3 SWAP2 POP POP JUMP JUMPDEST PUSH1 0x0 PUSH2 0x1293 PUSH1 0x0 NOT DUP5 PUSH1 0x8 MUL PUSH2 0x1275 JUMP JUMPDEST NOT DUP1 DUP4 AND SWAP2 POP POP SWAP3 SWAP2 POP POP JUMP JUMPDEST PUSH1 0x0 PUSH2 0x12AC DUP4 DUP4 PUSH2 0x1282 JUMP JUMPDEST SWAP2 POP DUP3 PUSH1 0x2 MUL DUP3 OR SWAP1 POP SWAP3 SWAP2 POP POP JUMP JUMPDEST PUSH2 0x12C5 DUP3 PUSH2 0xD02 JUMP JUMPDEST PUSH8 0xFFFFFFFFFFFFFFFF DUP2 GT ISZERO PUSH2 0x12DE JUMPI PUSH2 0x12DD PUSH2 0xB29 JUMP JUMPDEST JUMPDEST PUSH2 0x12E8 DUP3 SLOAD PUSH2 0x10DF JUMP JUMPDEST PUSH2 0x12F3 DUP3 DUP3 DUP6 PUSH2 0x122F JUMP JUMPDEST PUSH1 0x0 PUSH1 0x20 SWAP1 POP PUSH1 0x1F DUP4 GT PUSH1 0x1 DUP2 EQ PUSH2 0x1326 JUMPI PUSH1 0x0 DUP5 ISZERO PUSH2 0x1314 JUMPI DUP3 DUP8 ADD MLOAD SWAP1 POP JUMPDEST PUSH2 0x131E DUP6 DUP3 PUSH2 0x12A0 JUMP JUMPDEST DUP7 SSTORE POP PUSH2 0x1386 JUMP JUMPDEST PUSH1 0x1F NOT DUP5 AND PUSH2 0x1334 DUP7 PUSH2 0x1110 JUMP JUMPDEST PUSH1 0x0 JUMPDEST DUP3 DUP2 LT ISZERO PUSH2 0x135C JUMPI DUP5 DUP10 ADD MLOAD DUP3 SSTORE PUSH1 0x1 DUP3 ADD SWAP2 POP PUSH1 0x20 DUP6 ADD SWAP5 POP PUSH1 0x20 DUP2 ADD SWAP1 POP PUSH2 0x1337 JUMP JUMPDEST DUP7 DUP4 LT ISZERO PUSH2 0x1379 JUMPI DUP5 DUP10 ADD MLOAD PUSH2 0x1375 PUSH1 0x1F DUP10 AND DUP3 PUSH2 0x1282 JUMP JUMPDEST DUP4 SSTORE POP JUMPDEST PUSH1 0x1 PUSH1 0x2 DUP9 MUL ADD DUP9 SSTORE POP POP POP JUMPDEST POP POP POP POP POP POP JUMP JUMPDEST PUSH32 0x4E6F7420656E6F7567682066756E647300000000000000000000000000000000 PUSH1 0x0 DUP3 ADD MSTORE POP JUMP JUMPDEST PUSH1 0x0 PUSH2 0x13C4 PUSH1 0x10 DUP4 PUSH2 0xD0D JUMP JUMPDEST SWAP2 POP PUSH2 0x13CF DUP3 PUSH2 0x138E JUMP JUMPDEST PUSH1 0x20 DUP3 ADD SWAP1 POP SWAP2 SWAP1 POP JUMP JUMPDEST PUSH1 0x0 PUSH1 0x20 DUP3 ADD SWAP1 POP DUP2 DUP2 SUB PUSH1 0x0 DUP4 ADD MSTORE PUSH2 0x13F3 DUP2 PUSH2 0x13B7 JUMP JUMPDEST SWAP1 POP SWAP2 SWAP1 POP JUMP JUMPDEST PUSH32 0x4E6F2076616C6964206372656469742063617264000000000000000000000000 PUSH1 0x0 DUP3 ADD MSTORE POP JUMP JUMPDEST PUSH1 0x0 PUSH2 0x1430 PUSH1 0x14 DUP4 PUSH2 0xD0D JUMP JUMPDEST SWAP2 POP PUSH2 0x143B DUP3 PUSH2 0x13FA JUMP JUMPDEST PUSH1 0x20 DUP3 ADD SWAP1 POP SWAP2 SWAP1 POP JUMP JUMPDEST PUSH1 0x0 PUSH1 0x20 DUP3 ADD SWAP1 POP DUP2 DUP2 SUB PUSH1 0x0 DUP4 ADD MSTORE PUSH2 0x145F DUP2 PUSH2 0x1423 JUMP JUMPDEST SWAP1 POP SWAP2 SWAP1 POP JUMP INVALID LOG2 PUSH5 0x6970667358 0x22 SLT KECCAK256 0x27 0xE1 PUSH5 0x5EB9A890D2 0xCD 0xB0 0xBA SWAP14 COINBASE JUMPI GAS 0x4D 0x5D 0xE8 BYTE 0xD0 INVALID PUSH7 0xD7726D433592FC DUP5 NOT SIGNEXTEND PUSH5 0x736F6C6343 STOP ADDMOD 0xF STOP CALLER "
				},
				"gasEstimates": {
					"creation": {
						"codeDepositCost": "1055200",
						"executionCost": "infinite",
						"totalCost": "infinite"
					},
					"external": {
						"TotalAmount()": "2496",
						"TotalFunds()": "2474",
						"amount()": "2495",
						"callCount()": "2518",
						"callPutCard()": "2516",
						"cardNumber()": "infinite",
						"convertAmount(uint256)": "430",
						"countTransfer()": "2452",
						"cvv()": "infinite",
						"firstTransferTime()": "2497",
						"getOutCard()": "24500",
						"getTime()": "359",
						"message()": "infinite",
						"receiverFunds()": "2517",
						"sendMoney(uint256,address)": "infinite",
						"setCard(string,string)": "infinite",
						"totalWeekTransactions()": "2473"
					}
				},
				"methodIdentifiers": {
					"TotalAmount()": "7eb9f571",
					"TotalFunds()": "7b9a3f4c",
					"amount()": "aa8c217c",
					"callCount()": "4b28f9a2",
					"callPutCard()": "3c626f00",
					"cardNumber()": "8fa11864",
					"convertAmount(uint256)": "039aec2d",
					"countTransfer()": "34f5ccde",
					"cvv()": "42fb7936",
					"firstTransferTime()": "0e85fa72",
					"getOutCard()": "8e029c0b",
					"getTime()": "557ed1ba",
					"message()": "e21f37ce",
					"receiverFunds()": "bc309496",
					"sendMoney(uint256,address)": "062a7544",
					"setCard(string,string)": "12a029a4",
					"totalWeekTransactions()": "94b5dcaa"
				}
			},
			"storageLayout": {
				"storage": [
					{
						"astId": 3,
						"contract": "Dapp/MoneyTransfer.sol:MoneyTransfer",
						"label": "amount",
						"offset": 0,
						"slot": "0",
						"type": "t_uint256"
					},
					{
						"astId": 5,
						"contract": "Dapp/MoneyTransfer.sol:MoneyTransfer",
						"label": "TotalFunds",
						"offset": 0,
						"slot": "1",
						"type": "t_uint256"
					},
					{
						"astId": 7,
						"contract": "Dapp/MoneyTransfer.sol:MoneyTransfer",
						"label": "receiver",
						"offset": 0,
						"slot": "2",
						"type": "t_address"
					},
					{
						"astId": 13,
						"contract": "Dapp/MoneyTransfer.sol:MoneyTransfer",
						"label": "day",
						"offset": 0,
						"slot": "3",
						"type": "t_uint256"
					},
					{
						"astId": 15,
						"contract": "Dapp/MoneyTransfer.sol:MoneyTransfer",
						"label": "totalWeekTransactions",
						"offset": 0,
						"slot": "4",
						"type": "t_uint256"
					},
					{
						"astId": 17,
						"contract": "Dapp/MoneyTransfer.sol:MoneyTransfer",
						"label": "maxTransaction",
						"offset": 0,
						"slot": "5",
						"type": "t_uint256"
					},
					{
						"astId": 19,
						"contract": "Dapp/MoneyTransfer.sol:MoneyTransfer",
						"label": "minTransaction",
						"offset": 0,
						"slot": "6",
						"type": "t_uint256"
					},
					{
						"astId": 22,
						"contract": "Dapp/MoneyTransfer.sol:MoneyTransfer",
						"label": "countries",
						"offset": 0,
						"slot": "7",
						"type": "t_array(t_uint256)dyn_storage"
					},
					{
						"astId": 24,
						"contract": "Dapp/MoneyTransfer.sol:MoneyTransfer",
						"label": "receiverFunds",
						"offset": 0,
						"slot": "8",
						"type": "t_uint256"
					},
					{
						"astId": 26,
						"contract": "Dapp/MoneyTransfer.sol:MoneyTransfer",
						"label": "message",
						"offset": 0,
						"slot": "9",
						"type": "t_string_storage"
					},
					{
						"astId": 28,
						"contract": "Dapp/MoneyTransfer.sol:MoneyTransfer",
						"label": "cardNumber",
						"offset": 0,
						"slot": "10",
						"type": "t_string_storage"
					},
					{
						"astId": 30,
						"contract": "Dapp/MoneyTransfer.sol:MoneyTransfer",
						"label": "cvv",
						"offset": 0,
						"slot": "11",
						"type": "t_string_storage"
					},
					{
						"astId": 32,
						"contract": "Dapp/MoneyTransfer.sol:MoneyTransfer",
						"label": "TotalAmount",
						"offset": 0,
						"slot": "12",
						"type": "t_uint256"
					},
					{
						"astId": 34,
						"contract": "Dapp/MoneyTransfer.sol:MoneyTransfer",
						"label": "firstTransferTime",
						"offset": 0,
						"slot": "13",
						"type": "t_uint256"
					},
					{
						"astId": 36,
						"contract": "Dapp/MoneyTransfer.sol:MoneyTransfer",
						"label": "countTransfer",
						"offset": 0,
						"slot": "14",
						"type": "t_uint256"
					},
					{
						"astId": 49,
						"contract": "Dapp/MoneyTransfer.sol:MoneyTransfer",
						"label": "callCount",
						"offset": 0,
						"slot": "15",
						"type": "t_uint256"
					},
					{
						"astId": 52,
						"contract": "Dapp/MoneyTransfer.sol:MoneyTransfer",
						"label": "callPutCard",
						"offset": 0,
						"slot": "16",
						"type": "t_bool"
					}
				],
				"types": {
					"t_address": {
						"encoding": "inplace",
						"label": "address",
						"numberOfBytes": "20"
					},
					"t_array(t_uint256)dyn_storage": {
						"base": "t_uint256",
						"encoding": "dynamic_array",
						"label": "uint256[]",
						"numberOfBytes": "32"
					},
					"t_bool": {
						"encoding": "inplace",
						"label": "bool",
						"numberOfBytes": "1"
					},
					"t_string_storage": {
						"encoding": "bytes",
						"label": "string",
						"numberOfBytes": "32"
					},
					"t_uint256": {
						"encoding": "inplace",
						"label": "uint256",
						"numberOfBytes": "32"
					}
				}
			},
			"userdoc": {
				"kind": "user",
				"methods": {},
				"version": 1
			}
		}
	}
}