{
	"Dapp/MoneyTransfer.sol": {
		"MoneyTransfer": {
			"abi": [
				{
					"inputs": [
						{
							"internalType": "uint256",
							"name": "_totalFunds",
							"type": "uint256"
						}
					],
					"stateMutability": "nonpayable",
					"type": "constructor"
				},
				{
					"inputs": [],
					"name": "TotalAmount",
					"outputs": [
						{
							"internalType": "uint256",
							"name": "",
							"type": "uint256"
						}
					],
					"stateMutability": "view",
					"type": "function"
				},
				{
					"inputs": [],
					"name": "TotalFunds",
					"outputs": [
						{
							"internalType": "uint256",
							"name": "",
							"type": "uint256"
						}
					],
					"stateMutability": "view",
					"type": "function"
				},
				{
					"inputs": [],
					"name": "amount",
					"outputs": [
						{
							"internalType": "uint256",
							"name": "",
							"type": "uint256"
						}
					],
					"stateMutability": "view",
					"type": "function"
				},
				{
					"inputs": [],
					"name": "callCount",
					"outputs": [
						{
							"internalType": "uint256",
							"name": "",
							"type": "uint256"
						}
					],
					"stateMutability": "view",
					"type": "function"
				},
				{
					"inputs": [],
					"name": "callPutCard",
					"outputs": [
						{
							"internalType": "bool",
							"name": "",
							"type": "bool"
						}
					],
					"stateMutability": "view",
					"type": "function"
				},
				{
					"inputs": [],
					"name": "cardNumber",
					"outputs": [
						{
							"internalType": "string",
							"name": "",
							"type": "string"
						}
					],
					"stateMutability": "view",
					"type": "function"
				},
				{
					"inputs": [],
					"name": "countTransfer",
					"outputs": [
						{
							"internalType": "uint256",
							"name": "",
							"type": "uint256"
						}
					],
					"stateMutability": "view",
					"type": "function"
				},
				{
					"inputs": [],
					"name": "cvv",
					"outputs": [
						{
							"internalType": "string",
							"name": "",
							"type": "string"
						}
					],
					"stateMutability": "view",
					"type": "function"
				},
				{
					"inputs": [],
					"name": "firstTransferTime",
					"outputs": [
						{
							"internalType": "uint256",
							"name": "",
							"type": "uint256"
						}
					],
					"stateMutability": "view",
					"type": "function"
				},
				{
					"inputs": [],
					"name": "getOutCard",
					"outputs": [],
					"stateMutability": "nonpayable",
					"type": "function"
				},
				{
					"inputs": [],
					"name": "getTime",
					"outputs": [
						{
							"internalType": "uint256",
							"name": "",
							"type": "uint256"
						}
					],
					"stateMutability": "view",
					"type": "function"
				},
				{
					"inputs": [],
					"name": "message",
					"outputs": [
						{
							"internalType": "string",
							"name": "",
							"type": "string"
						}
					],
					"stateMutability": "view",
					"type": "function"
				},
				{
					"inputs": [],
					"name": "receiverFunds",
					"outputs": [
						{
							"internalType": "uint256",
							"name": "",
							"type": "uint256"
						}
					],
					"stateMutability": "view",
					"type": "function"
				},
				{
					"inputs": [
						{
							"internalType": "uint256",
							"name": "_amount",
							"type": "uint256"
						},
						{
							"internalType": "address",
							"name": "_receiver",
							"type": "address"
						}
					],
					"name": "sendMoney",
					"outputs": [],
					"stateMutability": "nonpayable",
					"type": "function"
				},
				{
					"inputs": [
						{
							"internalType": "string",
							"name": "_cardNumber",
							"type": "string"
						},
						{
							"internalType": "string",
							"name": "_cvv",
							"type": "string"
						}
					],
					"name": "setCard",
					"outputs": [],
					"stateMutability": "nonpayable",
					"type": "function"
				},
				{
					"inputs": [],
					"name": "totalWeekTransactions",
					"outputs": [
						{
							"internalType": "uint256",
							"name": "",
							"type": "uint256"
						}
					],
					"stateMutability": "view",
					"type": "function"
				}
			],
			"devdoc": {
				"kind": "dev",
				"methods": {},
				"version": 1
			},
			"evm": {
				"assembly": "    /* \"Dapp/MoneyTransfer.sol\":71:3702  contract  MoneyTransfer {... */\n  mstore(0x40, 0x80)\n    /* \"Dapp/MoneyTransfer.sol\":237:245  24 hours */\n  0x015180\n    /* \"Dapp/MoneyTransfer.sol\":226:245  uint day = 24 hours */\n  0x03\n  sstore\n    /* \"Dapp/MoneyTransfer.sol\":774:775  0 */\n  0x00\n    /* \"Dapp/MoneyTransfer.sol\":750:775  uint public callCount = 0 */\n  0x0f\n  sstore\n    /* \"Dapp/MoneyTransfer.sol\":809:814  false */\n  0x00\n    /* \"Dapp/MoneyTransfer.sol\":783:814  bool public callPutCard = false */\n  0x10\n  exp(0x0100, 0x00)\n  dup2\n  sload\n  dup2\n  0xff\n  mul\n  not\n  and\n  swap1\n  dup4\n  iszero\n  iszero\n  mul\n  or\n  swap1\n  sstore\n  pop\n    /* \"Dapp/MoneyTransfer.sol\":599:738  constructor (uint256 _totalFunds) {... */\n  callvalue\n  dup1\n  iszero\n  tag_1\n  jumpi\n  0x00\n  dup1\n  revert\ntag_1:\n  pop\n  mload(0x40)\n  sub(codesize, bytecodeSize)\n  dup1\n  bytecodeSize\n  dup4\n  codecopy\n  dup2\n  dup2\n  add\n  0x40\n  mstore\n  dup2\n  add\n  swap1\n  tag_2\n  swap2\n  swap1\n  tag_3\n  jump\t// in\ntag_2:\n    /* \"Dapp/MoneyTransfer.sol\":719:730  _totalFunds */\n  dup1\n    /* \"Dapp/MoneyTransfer.sol\":706:716  TotalFunds */\n  0x01\n    /* \"Dapp/MoneyTransfer.sol\":706:730  TotalFunds = _totalFunds */\n  dup2\n  swap1\n  sstore\n  pop\n    /* \"Dapp/MoneyTransfer.sol\":599:738  constructor (uint256 _totalFunds) {... */\n  pop\n    /* \"Dapp/MoneyTransfer.sol\":71:3702  contract  MoneyTransfer {... */\n  jump(tag_6)\n    /* \"#utility.yul\":88:205   */\ntag_8:\n    /* \"#utility.yul\":197:198   */\n  0x00\n    /* \"#utility.yul\":194:195   */\n  dup1\n    /* \"#utility.yul\":187:199   */\n  revert\n    /* \"#utility.yul\":334:411   */\ntag_10:\n    /* \"#utility.yul\":371:378   */\n  0x00\n    /* \"#utility.yul\":400:405   */\n  dup2\n    /* \"#utility.yul\":389:405   */\n  swap1\n  pop\n    /* \"#utility.yul\":334:411   */\n  swap2\n  swap1\n  pop\n  jump\t// out\n    /* \"#utility.yul\":417:539   */\ntag_11:\n    /* \"#utility.yul\":490:514   */\n  tag_19\n    /* \"#utility.yul\":508:513   */\n  dup2\n    /* \"#utility.yul\":490:514   */\n  tag_10\n  jump\t// in\ntag_19:\n    /* \"#utility.yul\":483:488   */\n  dup2\n    /* \"#utility.yul\":480:515   */\n  eq\n    /* \"#utility.yul\":470:533   */\n  tag_20\n  jumpi\n    /* \"#utility.yul\":529:530   */\n  0x00\n    /* \"#utility.yul\":526:527   */\n  dup1\n    /* \"#utility.yul\":519:531   */\n  revert\n    /* \"#utility.yul\":470:533   */\ntag_20:\n    /* \"#utility.yul\":417:539   */\n  pop\n  jump\t// out\n    /* \"#utility.yul\":545:688   */\ntag_12:\n    /* \"#utility.yul\":602:607   */\n  0x00\n    /* \"#utility.yul\":633:639   */\n  dup2\n    /* \"#utility.yul\":627:640   */\n  mload\n    /* \"#utility.yul\":618:640   */\n  swap1\n  pop\n    /* \"#utility.yul\":649:682   */\n  tag_22\n    /* \"#utility.yul\":676:681   */\n  dup2\n    /* \"#utility.yul\":649:682   */\n  tag_11\n  jump\t// in\ntag_22:\n    /* \"#utility.yul\":545:688   */\n  swap3\n  swap2\n  pop\n  pop\n  jump\t// out\n    /* \"#utility.yul\":694:1045   */\ntag_3:\n    /* \"#utility.yul\":764:770   */\n  0x00\n    /* \"#utility.yul\":813:815   */\n  0x20\n    /* \"#utility.yul\":801:810   */\n  dup3\n    /* \"#utility.yul\":792:799   */\n  dup5\n    /* \"#utility.yul\":788:811   */\n  sub\n    /* \"#utility.yul\":784:816   */\n  slt\n    /* \"#utility.yul\":781:900   */\n  iszero\n  tag_24\n  jumpi\n    /* \"#utility.yul\":819:898   */\n  tag_25\n  tag_8\n  jump\t// in\ntag_25:\n    /* \"#utility.yul\":781:900   */\ntag_24:\n    /* \"#utility.yul\":939:940   */\n  0x00\n    /* \"#utility.yul\":964:1028   */\n  tag_26\n    /* \"#utility.yul\":1020:1027   */\n  dup5\n    /* \"#utility.yul\":1011:1017   */\n  dup3\n    /* \"#utility.yul\":1000:1009   */\n  dup6\n    /* \"#utility.yul\":996:1018   */\n  add\n    /* \"#utility.yul\":964:1028   */\n  tag_12\n  jump\t// in\ntag_26:\n    /* \"#utility.yul\":954:1028   */\n  swap2\n  pop\n    /* \"#utility.yul\":910:1038   */\n  pop\n    /* \"#utility.yul\":694:1045   */\n  swap3\n  swap2\n  pop\n  pop\n  jump\t// out\n    /* \"Dapp/MoneyTransfer.sol\":71:3702  contract  MoneyTransfer {... */\ntag_6:\n  dataSize(sub_0)\n  dup1\n  dataOffset(sub_0)\n  0x00\n  codecopy\n  0x00\n  return\nstop\n\nsub_0: assembly {\n        /* \"Dapp/MoneyTransfer.sol\":71:3702  contract  MoneyTransfer {... */\n      mstore(0x40, 0x80)\n      callvalue\n      dup1\n      iszero\n      tag_1\n      jumpi\n      0x00\n      dup1\n      revert\n    tag_1:\n      pop\n      jumpi(tag_2, lt(calldatasize, 0x04))\n      shr(0xe0, calldataload(0x00))\n      dup1\n      0x7b9a3f4c\n      gt\n      tag_19\n      jumpi\n      dup1\n      0x94b5dcaa\n      gt\n      tag_20\n      jumpi\n      dup1\n      0x94b5dcaa\n      eq\n      tag_15\n      jumpi\n      dup1\n      0xaa8c217c\n      eq\n      tag_16\n      jumpi\n      dup1\n      0xbc309496\n      eq\n      tag_17\n      jumpi\n      dup1\n      0xe21f37ce\n      eq\n      tag_18\n      jumpi\n      jump(tag_2)\n    tag_20:\n      dup1\n      0x7b9a3f4c\n      eq\n      tag_11\n      jumpi\n      dup1\n      0x7eb9f571\n      eq\n      tag_12\n      jumpi\n      dup1\n      0x8e029c0b\n      eq\n      tag_13\n      jumpi\n      dup1\n      0x8fa11864\n      eq\n      tag_14\n      jumpi\n      jump(tag_2)\n    tag_19:\n      dup1\n      0x3c626f00\n      gt\n      tag_21\n      jumpi\n      dup1\n      0x3c626f00\n      eq\n      tag_7\n      jumpi\n      dup1\n      0x42fb7936\n      eq\n      tag_8\n      jumpi\n      dup1\n      0x4b28f9a2\n      eq\n      tag_9\n      jumpi\n      dup1\n      0x557ed1ba\n      eq\n      tag_10\n      jumpi\n      jump(tag_2)\n    tag_21:\n      dup1\n      0x062a7544\n      eq\n      tag_3\n      jumpi\n      dup1\n      0x0e85fa72\n      eq\n      tag_4\n      jumpi\n      dup1\n      0x12a029a4\n      eq\n      tag_5\n      jumpi\n      dup1\n      0x34f5ccde\n      eq\n      tag_6\n      jumpi\n    tag_2:\n      0x00\n      dup1\n      revert\n        /* \"Dapp/MoneyTransfer.sol\":824:1565  function sendMoney( uint _amount, address _receiver) public m_validAddress(_receiver) m_ifCardExists m_transferLimit{... */\n    tag_3:\n      tag_22\n      0x04\n      dup1\n      calldatasize\n      sub\n      dup2\n      add\n      swap1\n      tag_23\n      swap2\n      swap1\n      tag_24\n      jump\t// in\n    tag_23:\n      tag_25\n      jump\t// in\n    tag_22:\n      stop\n        /* \"Dapp/MoneyTransfer.sol\":524:553  uint public firstTransferTime */\n    tag_4:\n      tag_26\n      tag_27\n      jump\t// in\n    tag_26:\n      mload(0x40)\n      tag_28\n      swap2\n      swap1\n      tag_29\n      jump\t// in\n    tag_28:\n      mload(0x40)\n      dup1\n      swap2\n      sub\n      swap1\n      return\n        /* \"Dapp/MoneyTransfer.sol\":1573:1838  function setCard(string memory _cardNumber, string memory _cvv) public  m_checkCard {... */\n    tag_5:\n      tag_30\n      0x04\n      dup1\n      calldatasize\n      sub\n      dup2\n      add\n      swap1\n      tag_31\n      swap2\n      swap1\n      tag_32\n      jump\t// in\n    tag_31:\n      tag_33\n      jump\t// in\n    tag_30:\n      stop\n        /* \"Dapp/MoneyTransfer.sol\":560:585  uint public countTransfer */\n    tag_6:\n      tag_34\n      tag_35\n      jump\t// in\n    tag_34:\n      mload(0x40)\n      tag_36\n      swap2\n      swap1\n      tag_29\n      jump\t// in\n    tag_36:\n      mload(0x40)\n      dup1\n      swap2\n      sub\n      swap1\n      return\n        /* \"Dapp/MoneyTransfer.sol\":783:814  bool public callPutCard = false */\n    tag_7:\n      tag_37\n      tag_38\n      jump\t// in\n    tag_37:\n      mload(0x40)\n      tag_39\n      swap2\n      swap1\n      tag_40\n      jump\t// in\n    tag_39:\n      mload(0x40)\n      dup1\n      swap2\n      sub\n      swap1\n      return\n        /* \"Dapp/MoneyTransfer.sol\":470:487  string public cvv */\n    tag_8:\n      tag_41\n      tag_42\n      jump\t// in\n    tag_41:\n      mload(0x40)\n      tag_43\n      swap2\n      swap1\n      tag_44\n      jump\t// in\n    tag_43:\n      mload(0x40)\n      dup1\n      swap2\n      sub\n      swap1\n      return\n        /* \"Dapp/MoneyTransfer.sol\":750:775  uint public callCount = 0 */\n    tag_9:\n      tag_45\n      tag_46\n      jump\t// in\n    tag_45:\n      mload(0x40)\n      tag_47\n      swap2\n      swap1\n      tag_29\n      jump\t// in\n    tag_47:\n      mload(0x40)\n      dup1\n      swap2\n      sub\n      swap1\n      return\n        /* \"Dapp/MoneyTransfer.sol\":3605:3691  function getTime()public view returns(uint ){... */\n    tag_10:\n      tag_48\n      tag_49\n      jump\t// in\n    tag_48:\n      mload(0x40)\n      tag_50\n      swap2\n      swap1\n      tag_29\n      jump\t// in\n    tag_50:\n      mload(0x40)\n      dup1\n      swap2\n      sub\n      swap1\n      return\n        /* \"Dapp/MoneyTransfer.sol\":134:159  uint256 public TotalFunds */\n    tag_11:\n      tag_51\n      tag_52\n      jump\t// in\n    tag_51:\n      mload(0x40)\n      tag_53\n      swap2\n      swap1\n      tag_29\n      jump\t// in\n    tag_53:\n      mload(0x40)\n      dup1\n      swap2\n      sub\n      swap1\n      return\n        /* \"Dapp/MoneyTransfer.sol\":494:520  uint256 public TotalAmount */\n    tag_12:\n      tag_54\n      tag_55\n      jump\t// in\n    tag_54:\n      mload(0x40)\n      tag_56\n      swap2\n      swap1\n      tag_29\n      jump\t// in\n    tag_56:\n      mload(0x40)\n      dup1\n      swap2\n      sub\n      swap1\n      return\n        /* \"Dapp/MoneyTransfer.sol\":1848:1917  function getOutCard() public  {... */\n    tag_13:\n      tag_57\n      tag_58\n      jump\t// in\n    tag_57:\n      stop\n        /* \"Dapp/MoneyTransfer.sol\":438:462  string public cardNumber */\n    tag_14:\n      tag_59\n      tag_60\n      jump\t// in\n    tag_59:\n      mload(0x40)\n      tag_61\n      swap2\n      swap1\n      tag_44\n      jump\t// in\n    tag_61:\n      mload(0x40)\n      dup1\n      swap2\n      sub\n      swap1\n      return\n        /* \"Dapp/MoneyTransfer.sol\":252:288  uint256 public totalWeekTransactions */\n    tag_15:\n      tag_62\n      tag_63\n      jump\t// in\n    tag_62:\n      mload(0x40)\n      tag_64\n      swap2\n      swap1\n      tag_29\n      jump\t// in\n    tag_64:\n      mload(0x40)\n      dup1\n      swap2\n      sub\n      swap1\n      return\n        /* \"Dapp/MoneyTransfer.sol\":106:127  uint256 public amount */\n    tag_16:\n      tag_65\n      tag_66\n      jump\t// in\n    tag_65:\n      mload(0x40)\n      tag_67\n      swap2\n      swap1\n      tag_29\n      jump\t// in\n    tag_67:\n      mload(0x40)\n      dup1\n      swap2\n      sub\n      swap1\n      return\n        /* \"Dapp/MoneyTransfer.sol\":375:403  uint256 public receiverFunds */\n    tag_17:\n      tag_68\n      tag_69\n      jump\t// in\n    tag_68:\n      mload(0x40)\n      tag_70\n      swap2\n      swap1\n      tag_29\n      jump\t// in\n    tag_70:\n      mload(0x40)\n      dup1\n      swap2\n      sub\n      swap1\n      return\n        /* \"Dapp/MoneyTransfer.sol\":410:431  string public message */\n    tag_18:\n      tag_71\n      tag_72\n      jump\t// in\n    tag_71:\n      mload(0x40)\n      tag_73\n      swap2\n      swap1\n      tag_44\n      jump\t// in\n    tag_73:\n      mload(0x40)\n      dup1\n      swap2\n      sub\n      swap1\n      return\n        /* \"Dapp/MoneyTransfer.sol\":824:1565  function sendMoney( uint _amount, address _receiver) public m_validAddress(_receiver) m_ifCardExists m_transferLimit{... */\n    tag_25:\n        /* \"Dapp/MoneyTransfer.sol\":899:908  _receiver */\n      dup1\n        /* \"Dapp/MoneyTransfer.sol\":1986:1991  _addr */\n      dup1\n        /* \"Dapp/MoneyTransfer.sol\":1975:1983  receiver */\n      0x02\n      0x00\n        /* \"Dapp/MoneyTransfer.sol\":1975:1991  receiver = _addr */\n      0x0100\n      exp\n      dup2\n      sload\n      dup2\n      0xffffffffffffffffffffffffffffffffffffffff\n      mul\n      not\n      and\n      swap1\n      dup4\n      0xffffffffffffffffffffffffffffffffffffffff\n      and\n      mul\n      or\n      swap1\n      sstore\n      pop\n        /* \"Dapp/MoneyTransfer.sol\":2027:2028  0 */\n      0x00\n        /* \"Dapp/MoneyTransfer.sol\":2010:2029  _addr != address(0) */\n      0xffffffffffffffffffffffffffffffffffffffff\n      and\n        /* \"Dapp/MoneyTransfer.sol\":2010:2015  _addr */\n      dup2\n        /* \"Dapp/MoneyTransfer.sol\":2010:2029  _addr != address(0) */\n      0xffffffffffffffffffffffffffffffffffffffff\n      and\n      sub\n        /* \"Dapp/MoneyTransfer.sol\":2002:2062  require(_addr != address(0), \" This address doesn't exists\") */\n      tag_75\n      jumpi\n      mload(0x40)\n      0x08c379a000000000000000000000000000000000000000000000000000000000\n      dup2\n      mstore\n      0x04\n      add\n      tag_76\n      swap1\n      tag_77\n      jump\t// in\n    tag_76:\n      mload(0x40)\n      dup1\n      swap2\n      sub\n      swap1\n      revert\n    tag_75:\n        /* \"Dapp/MoneyTransfer.sol\":2161:2166  false */\n      0x00\n        /* \"Dapp/MoneyTransfer.sol\":2146:2166  callPutCard != false */\n      iszero\n      iszero\n        /* \"Dapp/MoneyTransfer.sol\":2146:2157  callPutCard */\n      0x10\n      0x00\n      swap1\n      sload\n      swap1\n      0x0100\n      exp\n      swap1\n      div\n      0xff\n      and\n        /* \"Dapp/MoneyTransfer.sol\":2146:2166  callPutCard != false */\n      iszero\n      iszero\n      sub\n        /* \"Dapp/MoneyTransfer.sol\":2138:2193  require(callPutCard != false,\"Please insert your card\") */\n      tag_79\n      jumpi\n      mload(0x40)\n      0x08c379a000000000000000000000000000000000000000000000000000000000\n      dup2\n      mstore\n      0x04\n      add\n      tag_80\n      swap1\n      tag_81\n      jump\t// in\n    tag_80:\n      mload(0x40)\n      dup1\n      swap2\n      sub\n      swap1\n      revert\n    tag_79:\n        /* \"Dapp/MoneyTransfer.sol\":2490:2494  2500 */\n      0x09c4\n        /* \"Dapp/MoneyTransfer.sol\":2475:2486  TotalAmount */\n      sload(0x0c)\n        /* \"Dapp/MoneyTransfer.sol\":2475:2494  TotalAmount <= 2500 */\n      gt\n      iszero\n        /* \"Dapp/MoneyTransfer.sol\":2466:2521  require (TotalAmount <= 2500 , \"You reached the limit\") */\n      tag_83\n      jumpi\n      mload(0x40)\n      0x08c379a000000000000000000000000000000000000000000000000000000000\n      dup2\n      mstore\n      0x04\n      add\n      tag_84\n      swap1\n      tag_85\n      jump\t// in\n    tag_84:\n      mload(0x40)\n      dup1\n      swap2\n      sub\n      swap1\n      revert\n    tag_83:\n        /* \"Dapp/MoneyTransfer.sol\":2996:3000  2500 */\n      0x09c4\n        /* \"Dapp/MoneyTransfer.sol\":2981:2992  TotalAmount */\n      sload(0x0c)\n        /* \"Dapp/MoneyTransfer.sol\":2981:3000  TotalAmount >= 2500 */\n      lt\n      iszero\n        /* \"Dapp/MoneyTransfer.sol\":2981:3055  TotalAmount >= 2500 && block.timestamp <= (firstTransferTime + 30 seconds) */\n      dup1\n      iszero\n      tag_86\n      jumpi\n      pop\n        /* \"Dapp/MoneyTransfer.sol\":3044:3054  30 seconds */\n      0x1e\n        /* \"Dapp/MoneyTransfer.sol\":3024:3041  firstTransferTime */\n      sload(0x0d)\n        /* \"Dapp/MoneyTransfer.sol\":3024:3054  firstTransferTime + 30 seconds */\n      tag_87\n      swap2\n      swap1\n      tag_88\n      jump\t// in\n    tag_87:\n        /* \"Dapp/MoneyTransfer.sol\":3004:3019  block.timestamp */\n      timestamp\n        /* \"Dapp/MoneyTransfer.sol\":3004:3055  block.timestamp <= (firstTransferTime + 30 seconds) */\n      gt\n      iszero\n        /* \"Dapp/MoneyTransfer.sol\":2981:3055  TotalAmount >= 2500 && block.timestamp <= (firstTransferTime + 30 seconds) */\n    tag_86:\n        /* \"Dapp/MoneyTransfer.sol\":2978:3153  if(TotalAmount >= 2500 && block.timestamp <= (firstTransferTime + 30 seconds)){... */\n      iszero\n      tag_89\n      jumpi\n        /* \"Dapp/MoneyTransfer.sol\":3085:3086  0 */\n      0x00\n        /* \"Dapp/MoneyTransfer.sol\":3071:3082  TotalAmount */\n      0x0c\n        /* \"Dapp/MoneyTransfer.sol\":3071:3086  TotalAmount = 0 */\n      dup2\n      swap1\n      sstore\n      pop\n        /* \"Dapp/MoneyTransfer.sol\":3102:3141  revert(\"You reached the limit per day\") */\n      mload(0x40)\n      0x08c379a000000000000000000000000000000000000000000000000000000000\n      dup2\n      mstore\n      0x04\n      add\n      tag_90\n      swap1\n      tag_91\n      jump\t// in\n    tag_90:\n      mload(0x40)\n      dup1\n      swap2\n      sub\n      swap1\n      revert\n        /* \"Dapp/MoneyTransfer.sol\":2978:3153  if(TotalAmount >= 2500 && block.timestamp <= (firstTransferTime + 30 seconds)){... */\n    tag_89:\n        /* \"Dapp/MoneyTransfer.sol\":3181:3185  2500 */\n      0x09c4\n        /* \"Dapp/MoneyTransfer.sol\":3166:3177  TotalAmount */\n      sload(0x0c)\n        /* \"Dapp/MoneyTransfer.sol\":3166:3185  TotalAmount <= 2500 */\n      gt\n        /* \"Dapp/MoneyTransfer.sol\":3163:3376  if(TotalAmount <= 2500)... */\n      tag_92\n      jumpi\n        /* \"Dapp/MoneyTransfer.sol\":3213:3214  5 */\n      0x05\n        /* \"Dapp/MoneyTransfer.sol\":3201:3210  callCount */\n      sload(0x0f)\n        /* \"Dapp/MoneyTransfer.sol\":3201:3214  callCount > 5 */\n      gt\n        /* \"Dapp/MoneyTransfer.sol\":3201:3269  callCount > 5 && block.timestamp <= (firstTransferTime + 30 seconds) */\n      dup1\n      iszero\n      tag_93\n      jumpi\n      pop\n        /* \"Dapp/MoneyTransfer.sol\":3258:3268  30 seconds */\n      0x1e\n        /* \"Dapp/MoneyTransfer.sol\":3238:3255  firstTransferTime */\n      sload(0x0d)\n        /* \"Dapp/MoneyTransfer.sol\":3238:3268  firstTransferTime + 30 seconds */\n      tag_94\n      swap2\n      swap1\n      tag_88\n      jump\t// in\n    tag_94:\n        /* \"Dapp/MoneyTransfer.sol\":3218:3233  block.timestamp */\n      timestamp\n        /* \"Dapp/MoneyTransfer.sol\":3218:3269  block.timestamp <= (firstTransferTime + 30 seconds) */\n      gt\n      iszero\n        /* \"Dapp/MoneyTransfer.sol\":3201:3269  callCount > 5 && block.timestamp <= (firstTransferTime + 30 seconds) */\n    tag_93:\n        /* \"Dapp/MoneyTransfer.sol\":3198:3376  if(callCount > 5 && block.timestamp <= (firstTransferTime + 30 seconds)){... */\n      iszero\n      tag_95\n      jumpi\n        /* \"Dapp/MoneyTransfer.sol\":3297:3298  0 */\n      0x00\n        /* \"Dapp/MoneyTransfer.sol\":3285:3294  callCount */\n      0x0f\n        /* \"Dapp/MoneyTransfer.sol\":3285:3298  callCount = 0 */\n      dup2\n      swap1\n      sstore\n      pop\n        /* \"Dapp/MoneyTransfer.sol\":3313:3350  revert(\"only 5 transactions per day\") */\n      mload(0x40)\n      0x08c379a000000000000000000000000000000000000000000000000000000000\n      dup2\n      mstore\n      0x04\n      add\n      tag_96\n      swap1\n      tag_97\n      jump\t// in\n    tag_96:\n      mload(0x40)\n      dup1\n      swap2\n      sub\n      swap1\n      revert\n        /* \"Dapp/MoneyTransfer.sol\":3198:3376  if(callCount > 5 && block.timestamp <= (firstTransferTime + 30 seconds)){... */\n    tag_95:\n        /* \"Dapp/MoneyTransfer.sol\":3163:3376  if(TotalAmount <= 2500)... */\n    tag_92:\n        /* \"Dapp/MoneyTransfer.sol\":3402:3403  5 */\n      0x05\n        /* \"Dapp/MoneyTransfer.sol\":3389:3398  callCount */\n      sload(0x0f)\n        /* \"Dapp/MoneyTransfer.sol\":3389:3403  callCount <= 5 */\n      gt\n      iszero\n        /* \"Dapp/MoneyTransfer.sol\":3389:3458  callCount <= 5 && block.timestamp >= (firstTransferTime + 30 seconds) */\n      dup1\n      iszero\n      tag_98\n      jumpi\n      pop\n        /* \"Dapp/MoneyTransfer.sol\":3447:3457  30 seconds */\n      0x1e\n        /* \"Dapp/MoneyTransfer.sol\":3427:3444  firstTransferTime */\n      sload(0x0d)\n        /* \"Dapp/MoneyTransfer.sol\":3427:3457  firstTransferTime + 30 seconds */\n      tag_99\n      swap2\n      swap1\n      tag_88\n      jump\t// in\n    tag_99:\n        /* \"Dapp/MoneyTransfer.sol\":3407:3422  block.timestamp */\n      timestamp\n        /* \"Dapp/MoneyTransfer.sol\":3407:3458  block.timestamp >= (firstTransferTime + 30 seconds) */\n      lt\n      iszero\n        /* \"Dapp/MoneyTransfer.sol\":3389:3458  callCount <= 5 && block.timestamp >= (firstTransferTime + 30 seconds) */\n    tag_98:\n        /* \"Dapp/MoneyTransfer.sol\":3386:3549  if(callCount <= 5 && block.timestamp >= (firstTransferTime + 30 seconds)){... */\n      iszero\n      tag_100\n      jumpi\n        /* \"Dapp/MoneyTransfer.sol\":3486:3487  0 */\n      0x00\n        /* \"Dapp/MoneyTransfer.sol\":3474:3483  callCount */\n      0x0f\n        /* \"Dapp/MoneyTransfer.sol\":3474:3487  callCount = 0 */\n      dup2\n      swap1\n      sstore\n      pop\n        /* \"Dapp/MoneyTransfer.sol\":3522:3537  block.timestamp */\n      timestamp\n        /* \"Dapp/MoneyTransfer.sol\":3502:3519  firstTransferTime */\n      0x0d\n        /* \"Dapp/MoneyTransfer.sol\":3502:3537  firstTransferTime = block.timestamp */\n      dup2\n      swap1\n      sstore\n      pop\n        /* \"Dapp/MoneyTransfer.sol\":3386:3549  if(callCount <= 5 && block.timestamp >= (firstTransferTime + 30 seconds)){... */\n    tag_100:\n        /* \"Dapp/MoneyTransfer.sol\":962:971  _receiver */\n      dup2\n        /* \"Dapp/MoneyTransfer.sol\":951:959  receiver */\n      0x02\n      0x00\n        /* \"Dapp/MoneyTransfer.sol\":951:971  receiver = _receiver */\n      0x0100\n      exp\n      dup2\n      sload\n      dup2\n      0xffffffffffffffffffffffffffffffffffffffff\n      mul\n      not\n      and\n      swap1\n      dup4\n      0xffffffffffffffffffffffffffffffffffffffff\n      and\n      mul\n      or\n      swap1\n      sstore\n      pop\n        /* \"Dapp/MoneyTransfer.sol\":991:998  _amount */\n      dup3\n        /* \"Dapp/MoneyTransfer.sol\":982:988  amount */\n      0x00\n        /* \"Dapp/MoneyTransfer.sol\":982:998  amount = _amount */\n      dup2\n      swap1\n      sstore\n      pop\n        /* \"Dapp/MoneyTransfer.sol\":1068:1069  1 */\n      0x01\n        /* \"Dapp/MoneyTransfer.sol\":1055:1064  callCount */\n      0x0f\n      0x00\n        /* \"Dapp/MoneyTransfer.sol\":1055:1069  callCount += 1 */\n      dup3\n      dup3\n      sload\n      tag_102\n      swap2\n      swap1\n      tag_88\n      jump\t// in\n    tag_102:\n      swap3\n      pop\n      pop\n      dup2\n      swap1\n      sstore\n      pop\n        /* \"Dapp/MoneyTransfer.sol\":1125:1126  0 */\n      0x00\n        /* \"Dapp/MoneyTransfer.sol\":1112:1122  TotalFunds */\n      sload(0x01)\n        /* \"Dapp/MoneyTransfer.sol\":1112:1126  TotalFunds > 0 */\n      gt\n        /* \"Dapp/MoneyTransfer.sol\":1112:1149  TotalFunds > 0 && TotalFunds > amount */\n      dup1\n      iszero\n      tag_103\n      jumpi\n      pop\n        /* \"Dapp/MoneyTransfer.sol\":1143:1149  amount */\n      sload(0x00)\n        /* \"Dapp/MoneyTransfer.sol\":1130:1140  TotalFunds */\n      sload(0x01)\n        /* \"Dapp/MoneyTransfer.sol\":1130:1149  TotalFunds > amount */\n      gt\n        /* \"Dapp/MoneyTransfer.sol\":1112:1149  TotalFunds > 0 && TotalFunds > amount */\n    tag_103:\n        /* \"Dapp/MoneyTransfer.sol\":1109:1487  if(TotalFunds > 0 && TotalFunds > amount){... */\n      iszero\n      tag_104\n      jumpi\n        /* \"Dapp/MoneyTransfer.sol\":1187:1193  amount */\n      sload(0x00)\n        /* \"Dapp/MoneyTransfer.sol\":1173:1183  TotalFunds */\n      0x01\n      0x00\n        /* \"Dapp/MoneyTransfer.sol\":1173:1193  TotalFunds -= amount */\n      dup3\n      dup3\n      sload\n      tag_105\n      swap2\n      swap1\n      tag_106\n      jump\t// in\n    tag_105:\n      swap3\n      pop\n      pop\n      dup2\n      swap1\n      sstore\n      pop\n        /* \"Dapp/MoneyTransfer.sol\":1231:1237  amount */\n      sload(0x00)\n        /* \"Dapp/MoneyTransfer.sol\":1216:1227  TotalAmount */\n      0x0c\n      0x00\n        /* \"Dapp/MoneyTransfer.sol\":1216:1237  TotalAmount += amount */\n      dup3\n      dup3\n      sload\n      tag_107\n      swap2\n      swap1\n      tag_88\n      jump\t// in\n    tag_107:\n      swap3\n      pop\n      pop\n      dup2\n      swap1\n      sstore\n      pop\n        /* \"Dapp/MoneyTransfer.sol\":1282:1312  message = \"Transfer completed\" */\n      mload(0x40)\n      dup1\n      0x40\n      add\n      0x40\n      mstore\n      dup1\n      0x12\n      dup2\n      mstore\n      0x20\n      add\n      0x5472616e7366657220636f6d706c657465640000000000000000000000000000\n      dup2\n      mstore\n      pop\n        /* \"Dapp/MoneyTransfer.sol\":1282:1289  message */\n      0x09\n        /* \"Dapp/MoneyTransfer.sol\":1282:1312  message = \"Transfer completed\" */\n      swap1\n      dup2\n      tag_108\n      swap2\n      swap1\n      tag_109\n      jump\t// in\n    tag_108:\n      pop\n        /* \"Dapp/MoneyTransfer.sol\":1109:1487  if(TotalFunds > 0 && TotalFunds > amount){... */\n      jump(tag_110)\n    tag_104:\n        /* \"Dapp/MoneyTransfer.sol\":1440:1466  revert(\"Not enough funds\") */\n      mload(0x40)\n      0x08c379a000000000000000000000000000000000000000000000000000000000\n      dup2\n      mstore\n      0x04\n      add\n      tag_111\n      swap1\n      tag_112\n      jump\t// in\n    tag_111:\n      mload(0x40)\n      dup1\n      swap2\n      sub\n      swap1\n      revert\n        /* \"Dapp/MoneyTransfer.sol\":1109:1487  if(TotalFunds > 0 && TotalFunds > amount){... */\n    tag_110:\n        /* \"Dapp/MoneyTransfer.sol\":824:1565  function sendMoney( uint _amount, address _receiver) public m_validAddress(_receiver) m_ifCardExists m_transferLimit{... */\n      pop\n      pop\n      pop\n      jump\t// out\n        /* \"Dapp/MoneyTransfer.sol\":524:553  uint public firstTransferTime */\n    tag_27:\n      sload(0x0d)\n      dup2\n      jump\t// out\n        /* \"Dapp/MoneyTransfer.sol\":1573:1838  function setCard(string memory _cardNumber, string memory _cvv) public  m_checkCard {... */\n    tag_33:\n        /* \"Dapp/MoneyTransfer.sol\":1687:1698  _cardNumber */\n      dup2\n        /* \"Dapp/MoneyTransfer.sol\":1674:1684  cardNumber */\n      0x0a\n        /* \"Dapp/MoneyTransfer.sol\":1674:1698  cardNumber = _cardNumber */\n      swap1\n      dup2\n      tag_115\n      swap2\n      swap1\n      tag_109\n      jump\t// in\n    tag_115:\n      pop\n        /* \"Dapp/MoneyTransfer.sol\":1719:1723  _cvv */\n      dup1\n        /* \"Dapp/MoneyTransfer.sol\":1713:1716  cvv */\n      0x0b\n        /* \"Dapp/MoneyTransfer.sol\":1713:1723  cvv = _cvv */\n      swap1\n      dup2\n      tag_116\n      swap2\n      swap1\n      tag_109\n      jump\t// in\n    tag_116:\n      pop\n        /* \"Dapp/MoneyTransfer.sol\":1771:1775  true */\n      0x01\n        /* \"Dapp/MoneyTransfer.sol\":1757:1768  callPutCard */\n      0x10\n      0x00\n        /* \"Dapp/MoneyTransfer.sol\":1757:1775  callPutCard = true */\n      0x0100\n      exp\n      dup2\n      sload\n      dup2\n      0xff\n      mul\n      not\n      and\n      swap1\n      dup4\n      iszero\n      iszero\n      mul\n      or\n      swap1\n      sstore\n      pop\n        /* \"Dapp/MoneyTransfer.sol\":1813:1828  block.timestamp */\n      timestamp\n        /* \"Dapp/MoneyTransfer.sol\":1793:1810  firstTransferTime */\n      0x0d\n        /* \"Dapp/MoneyTransfer.sol\":1793:1828  firstTransferTime = block.timestamp */\n      dup2\n      swap1\n      sstore\n      pop\n        /* \"Dapp/MoneyTransfer.sol\":2320:2321  8 */\n      0x08\n        /* \"Dapp/MoneyTransfer.sol\":2298:2308  cardNumber */\n      0x0a\n        /* \"Dapp/MoneyTransfer.sol\":2292:2316  bytes(cardNumber).length */\n      dup1\n      sload\n      tag_117\n      swap1\n      tag_118\n      jump\t// in\n    tag_117:\n      swap1\n      pop\n        /* \"Dapp/MoneyTransfer.sol\":2292:2321  bytes(cardNumber).length == 8 */\n      eq\n        /* \"Dapp/MoneyTransfer.sol\":2292:2347  bytes(cardNumber).length == 8 && bytes(cvv).length == 3 */\n      dup1\n      iszero\n      tag_119\n      jumpi\n      pop\n        /* \"Dapp/MoneyTransfer.sol\":2346:2347  3 */\n      0x03\n        /* \"Dapp/MoneyTransfer.sol\":2331:2334  cvv */\n      0x0b\n        /* \"Dapp/MoneyTransfer.sol\":2325:2342  bytes(cvv).length */\n      dup1\n      sload\n      tag_120\n      swap1\n      tag_118\n      jump\t// in\n    tag_120:\n      swap1\n      pop\n        /* \"Dapp/MoneyTransfer.sol\":2325:2347  bytes(cvv).length == 3 */\n      eq\n        /* \"Dapp/MoneyTransfer.sol\":2292:2347  bytes(cardNumber).length == 8 && bytes(cvv).length == 3 */\n    tag_119:\n        /* \"Dapp/MoneyTransfer.sol\":2284:2372  require(bytes(cardNumber).length == 8 && bytes(cvv).length == 3, \"No valid credit card\") */\n      tag_121\n      jumpi\n      mload(0x40)\n      0x08c379a000000000000000000000000000000000000000000000000000000000\n      dup2\n      mstore\n      0x04\n      add\n      tag_122\n      swap1\n      tag_123\n      jump\t// in\n    tag_122:\n      mload(0x40)\n      dup1\n      swap2\n      sub\n      swap1\n      revert\n    tag_121:\n        /* \"Dapp/MoneyTransfer.sol\":1573:1838  function setCard(string memory _cardNumber, string memory _cvv) public  m_checkCard {... */\n      pop\n      pop\n      jump\t// out\n        /* \"Dapp/MoneyTransfer.sol\":560:585  uint public countTransfer */\n    tag_35:\n      sload(0x0e)\n      dup2\n      jump\t// out\n        /* \"Dapp/MoneyTransfer.sol\":783:814  bool public callPutCard = false */\n    tag_38:\n      0x10\n      0x00\n      swap1\n      sload\n      swap1\n      0x0100\n      exp\n      swap1\n      div\n      0xff\n      and\n      dup2\n      jump\t// out\n        /* \"Dapp/MoneyTransfer.sol\":470:487  string public cvv */\n    tag_42:\n      0x0b\n      dup1\n      sload\n      tag_124\n      swap1\n      tag_118\n      jump\t// in\n    tag_124:\n      dup1\n      0x1f\n      add\n      0x20\n      dup1\n      swap2\n      div\n      mul\n      0x20\n      add\n      mload(0x40)\n      swap1\n      dup2\n      add\n      0x40\n      mstore\n      dup1\n      swap3\n      swap2\n      swap1\n      dup2\n      dup2\n      mstore\n      0x20\n      add\n      dup3\n      dup1\n      sload\n      tag_125\n      swap1\n      tag_118\n      jump\t// in\n    tag_125:\n      dup1\n      iszero\n      tag_126\n      jumpi\n      dup1\n      0x1f\n      lt\n      tag_127\n      jumpi\n      0x0100\n      dup1\n      dup4\n      sload\n      div\n      mul\n      dup4\n      mstore\n      swap2\n      0x20\n      add\n      swap2\n      jump(tag_126)\n    tag_127:\n      dup3\n      add\n      swap2\n      swap1\n      0x00\n      mstore\n      keccak256(0x00, 0x20)\n      swap1\n    tag_128:\n      dup2\n      sload\n      dup2\n      mstore\n      swap1\n      0x01\n      add\n      swap1\n      0x20\n      add\n      dup1\n      dup4\n      gt\n      tag_128\n      jumpi\n      dup3\n      swap1\n      sub\n      0x1f\n      and\n      dup3\n      add\n      swap2\n    tag_126:\n      pop\n      pop\n      pop\n      pop\n      pop\n      dup2\n      jump\t// out\n        /* \"Dapp/MoneyTransfer.sol\":750:775  uint public callCount = 0 */\n    tag_46:\n      sload(0x0f)\n      dup2\n      jump\t// out\n        /* \"Dapp/MoneyTransfer.sol\":3605:3691  function getTime()public view returns(uint ){... */\n    tag_49:\n        /* \"Dapp/MoneyTransfer.sol\":3643:3647  uint */\n      0x00\n        /* \"Dapp/MoneyTransfer.sol\":3668:3683  block.timestamp */\n      timestamp\n        /* \"Dapp/MoneyTransfer.sol\":3660:3683  return  block.timestamp */\n      swap1\n      pop\n        /* \"Dapp/MoneyTransfer.sol\":3605:3691  function getTime()public view returns(uint ){... */\n      swap1\n      jump\t// out\n        /* \"Dapp/MoneyTransfer.sol\":134:159  uint256 public TotalFunds */\n    tag_52:\n      sload(0x01)\n      dup2\n      jump\t// out\n        /* \"Dapp/MoneyTransfer.sol\":494:520  uint256 public TotalAmount */\n    tag_55:\n      sload(0x0c)\n      dup2\n      jump\t// out\n        /* \"Dapp/MoneyTransfer.sol\":1848:1917  function getOutCard() public  {... */\n    tag_58:\n        /* \"Dapp/MoneyTransfer.sol\":1902:1907  false */\n      0x00\n        /* \"Dapp/MoneyTransfer.sol\":1888:1899  callPutCard */\n      0x10\n      0x00\n        /* \"Dapp/MoneyTransfer.sol\":1888:1907  callPutCard = false */\n      0x0100\n      exp\n      dup2\n      sload\n      dup2\n      0xff\n      mul\n      not\n      and\n      swap1\n      dup4\n      iszero\n      iszero\n      mul\n      or\n      swap1\n      sstore\n      pop\n        /* \"Dapp/MoneyTransfer.sol\":1848:1917  function getOutCard() public  {... */\n      jump\t// out\n        /* \"Dapp/MoneyTransfer.sol\":438:462  string public cardNumber */\n    tag_60:\n      0x0a\n      dup1\n      sload\n      tag_131\n      swap1\n      tag_118\n      jump\t// in\n    tag_131:\n      dup1\n      0x1f\n      add\n      0x20\n      dup1\n      swap2\n      div\n      mul\n      0x20\n      add\n      mload(0x40)\n      swap1\n      dup2\n      add\n      0x40\n      mstore\n      dup1\n      swap3\n      swap2\n      swap1\n      dup2\n      dup2\n      mstore\n      0x20\n      add\n      dup3\n      dup1\n      sload\n      tag_132\n      swap1\n      tag_118\n      jump\t// in\n    tag_132:\n      dup1\n      iszero\n      tag_133\n      jumpi\n      dup1\n      0x1f\n      lt\n      tag_134\n      jumpi\n      0x0100\n      dup1\n      dup4\n      sload\n      div\n      mul\n      dup4\n      mstore\n      swap2\n      0x20\n      add\n      swap2\n      jump(tag_133)\n    tag_134:\n      dup3\n      add\n      swap2\n      swap1\n      0x00\n      mstore\n      keccak256(0x00, 0x20)\n      swap1\n    tag_135:\n      dup2\n      sload\n      dup2\n      mstore\n      swap1\n      0x01\n      add\n      swap1\n      0x20\n      add\n      dup1\n      dup4\n      gt\n      tag_135\n      jumpi\n      dup3\n      swap1\n      sub\n      0x1f\n      and\n      dup3\n      add\n      swap2\n    tag_133:\n      pop\n      pop\n      pop\n      pop\n      pop\n      dup2\n      jump\t// out\n        /* \"Dapp/MoneyTransfer.sol\":252:288  uint256 public totalWeekTransactions */\n    tag_63:\n      sload(0x04)\n      dup2\n      jump\t// out\n        /* \"Dapp/MoneyTransfer.sol\":106:127  uint256 public amount */\n    tag_66:\n      sload(0x00)\n      dup2\n      jump\t// out\n        /* \"Dapp/MoneyTransfer.sol\":375:403  uint256 public receiverFunds */\n    tag_69:\n      sload(0x08)\n      dup2\n      jump\t// out\n        /* \"Dapp/MoneyTransfer.sol\":410:431  string public message */\n    tag_72:\n      0x09\n      dup1\n      sload\n      tag_136\n      swap1\n      tag_118\n      jump\t// in\n    tag_136:\n      dup1\n      0x1f\n      add\n      0x20\n      dup1\n      swap2\n      div\n      mul\n      0x20\n      add\n      mload(0x40)\n      swap1\n      dup2\n      add\n      0x40\n      mstore\n      dup1\n      swap3\n      swap2\n      swap1\n      dup2\n      dup2\n      mstore\n      0x20\n      add\n      dup3\n      dup1\n      sload\n      tag_137\n      swap1\n      tag_118\n      jump\t// in\n    tag_137:\n      dup1\n      iszero\n      tag_138\n      jumpi\n      dup1\n      0x1f\n      lt\n      tag_139\n      jumpi\n      0x0100\n      dup1\n      dup4\n      sload\n      div\n      mul\n      dup4\n      mstore\n      swap2\n      0x20\n      add\n      swap2\n      jump(tag_138)\n    tag_139:\n      dup3\n      add\n      swap2\n      swap1\n      0x00\n      mstore\n      keccak256(0x00, 0x20)\n      swap1\n    tag_140:\n      dup2\n      sload\n      dup2\n      mstore\n      swap1\n      0x01\n      add\n      swap1\n      0x20\n      add\n      dup1\n      dup4\n      gt\n      tag_140\n      jumpi\n      dup3\n      swap1\n      sub\n      0x1f\n      and\n      dup3\n      add\n      swap2\n    tag_138:\n      pop\n      pop\n      pop\n      pop\n      pop\n      dup2\n      jump\t// out\n        /* \"#utility.yul\":7:82   */\n    tag_141:\n        /* \"#utility.yul\":40:46   */\n      0x00\n        /* \"#utility.yul\":73:75   */\n      0x40\n        /* \"#utility.yul\":67:76   */\n      mload\n        /* \"#utility.yul\":57:76   */\n      swap1\n      pop\n        /* \"#utility.yul\":7:82   */\n      swap1\n      jump\t// out\n        /* \"#utility.yul\":88:205   */\n    tag_142:\n        /* \"#utility.yul\":197:198   */\n      0x00\n        /* \"#utility.yul\":194:195   */\n      dup1\n        /* \"#utility.yul\":187:199   */\n      revert\n        /* \"#utility.yul\":211:328   */\n    tag_143:\n        /* \"#utility.yul\":320:321   */\n      0x00\n        /* \"#utility.yul\":317:318   */\n      dup1\n        /* \"#utility.yul\":310:322   */\n      revert\n        /* \"#utility.yul\":334:411   */\n    tag_144:\n        /* \"#utility.yul\":371:378   */\n      0x00\n        /* \"#utility.yul\":400:405   */\n      dup2\n        /* \"#utility.yul\":389:405   */\n      swap1\n      pop\n        /* \"#utility.yul\":334:411   */\n      swap2\n      swap1\n      pop\n      jump\t// out\n        /* \"#utility.yul\":417:539   */\n    tag_145:\n        /* \"#utility.yul\":490:514   */\n      tag_205\n        /* \"#utility.yul\":508:513   */\n      dup2\n        /* \"#utility.yul\":490:514   */\n      tag_144\n      jump\t// in\n    tag_205:\n        /* \"#utility.yul\":483:488   */\n      dup2\n        /* \"#utility.yul\":480:515   */\n      eq\n        /* \"#utility.yul\":470:533   */\n      tag_206\n      jumpi\n        /* \"#utility.yul\":529:530   */\n      0x00\n        /* \"#utility.yul\":526:527   */\n      dup1\n        /* \"#utility.yul\":519:531   */\n      revert\n        /* \"#utility.yul\":470:533   */\n    tag_206:\n        /* \"#utility.yul\":417:539   */\n      pop\n      jump\t// out\n        /* \"#utility.yul\":545:684   */\n    tag_146:\n        /* \"#utility.yul\":591:596   */\n      0x00\n        /* \"#utility.yul\":629:635   */\n      dup2\n        /* \"#utility.yul\":616:636   */\n      calldataload\n        /* \"#utility.yul\":607:636   */\n      swap1\n      pop\n        /* \"#utility.yul\":645:678   */\n      tag_208\n        /* \"#utility.yul\":672:677   */\n      dup2\n        /* \"#utility.yul\":645:678   */\n      tag_145\n      jump\t// in\n    tag_208:\n        /* \"#utility.yul\":545:684   */\n      swap3\n      swap2\n      pop\n      pop\n      jump\t// out\n        /* \"#utility.yul\":690:816   */\n    tag_147:\n        /* \"#utility.yul\":727:734   */\n      0x00\n        /* \"#utility.yul\":767:809   */\n      0xffffffffffffffffffffffffffffffffffffffff\n        /* \"#utility.yul\":760:765   */\n      dup3\n        /* \"#utility.yul\":756:810   */\n      and\n        /* \"#utility.yul\":745:810   */\n      swap1\n      pop\n        /* \"#utility.yul\":690:816   */\n      swap2\n      swap1\n      pop\n      jump\t// out\n        /* \"#utility.yul\":822:918   */\n    tag_148:\n        /* \"#utility.yul\":859:866   */\n      0x00\n        /* \"#utility.yul\":888:912   */\n      tag_211\n        /* \"#utility.yul\":906:911   */\n      dup3\n        /* \"#utility.yul\":888:912   */\n      tag_147\n      jump\t// in\n    tag_211:\n        /* \"#utility.yul\":877:912   */\n      swap1\n      pop\n        /* \"#utility.yul\":822:918   */\n      swap2\n      swap1\n      pop\n      jump\t// out\n        /* \"#utility.yul\":924:1046   */\n    tag_149:\n        /* \"#utility.yul\":997:1021   */\n      tag_213\n        /* \"#utility.yul\":1015:1020   */\n      dup2\n        /* \"#utility.yul\":997:1021   */\n      tag_148\n      jump\t// in\n    tag_213:\n        /* \"#utility.yul\":990:995   */\n      dup2\n        /* \"#utility.yul\":987:1022   */\n      eq\n        /* \"#utility.yul\":977:1040   */\n      tag_214\n      jumpi\n        /* \"#utility.yul\":1036:1037   */\n      0x00\n        /* \"#utility.yul\":1033:1034   */\n      dup1\n        /* \"#utility.yul\":1026:1038   */\n      revert\n        /* \"#utility.yul\":977:1040   */\n    tag_214:\n        /* \"#utility.yul\":924:1046   */\n      pop\n      jump\t// out\n        /* \"#utility.yul\":1052:1191   */\n    tag_150:\n        /* \"#utility.yul\":1098:1103   */\n      0x00\n        /* \"#utility.yul\":1136:1142   */\n      dup2\n        /* \"#utility.yul\":1123:1143   */\n      calldataload\n        /* \"#utility.yul\":1114:1143   */\n      swap1\n      pop\n        /* \"#utility.yul\":1152:1185   */\n      tag_216\n        /* \"#utility.yul\":1179:1184   */\n      dup2\n        /* \"#utility.yul\":1152:1185   */\n      tag_149\n      jump\t// in\n    tag_216:\n        /* \"#utility.yul\":1052:1191   */\n      swap3\n      swap2\n      pop\n      pop\n      jump\t// out\n        /* \"#utility.yul\":1197:1671   */\n    tag_24:\n        /* \"#utility.yul\":1265:1271   */\n      0x00\n        /* \"#utility.yul\":1273:1279   */\n      dup1\n        /* \"#utility.yul\":1322:1324   */\n      0x40\n        /* \"#utility.yul\":1310:1319   */\n      dup4\n        /* \"#utility.yul\":1301:1308   */\n      dup6\n        /* \"#utility.yul\":1297:1320   */\n      sub\n        /* \"#utility.yul\":1293:1325   */\n      slt\n        /* \"#utility.yul\":1290:1409   */\n      iszero\n      tag_218\n      jumpi\n        /* \"#utility.yul\":1328:1407   */\n      tag_219\n      tag_142\n      jump\t// in\n    tag_219:\n        /* \"#utility.yul\":1290:1409   */\n    tag_218:\n        /* \"#utility.yul\":1448:1449   */\n      0x00\n        /* \"#utility.yul\":1473:1526   */\n      tag_220\n        /* \"#utility.yul\":1518:1525   */\n      dup6\n        /* \"#utility.yul\":1509:1515   */\n      dup3\n        /* \"#utility.yul\":1498:1507   */\n      dup7\n        /* \"#utility.yul\":1494:1516   */\n      add\n        /* \"#utility.yul\":1473:1526   */\n      tag_146\n      jump\t// in\n    tag_220:\n        /* \"#utility.yul\":1463:1526   */\n      swap3\n      pop\n        /* \"#utility.yul\":1419:1536   */\n      pop\n        /* \"#utility.yul\":1575:1577   */\n      0x20\n        /* \"#utility.yul\":1601:1654   */\n      tag_221\n        /* \"#utility.yul\":1646:1653   */\n      dup6\n        /* \"#utility.yul\":1637:1643   */\n      dup3\n        /* \"#utility.yul\":1626:1635   */\n      dup7\n        /* \"#utility.yul\":1622:1644   */\n      add\n        /* \"#utility.yul\":1601:1654   */\n      tag_150\n      jump\t// in\n    tag_221:\n        /* \"#utility.yul\":1591:1654   */\n      swap2\n      pop\n        /* \"#utility.yul\":1546:1664   */\n      pop\n        /* \"#utility.yul\":1197:1671   */\n      swap3\n      pop\n      swap3\n      swap1\n      pop\n      jump\t// out\n        /* \"#utility.yul\":1677:1795   */\n    tag_151:\n        /* \"#utility.yul\":1764:1788   */\n      tag_223\n        /* \"#utility.yul\":1782:1787   */\n      dup2\n        /* \"#utility.yul\":1764:1788   */\n      tag_144\n      jump\t// in\n    tag_223:\n        /* \"#utility.yul\":1759:1762   */\n      dup3\n        /* \"#utility.yul\":1752:1789   */\n      mstore\n        /* \"#utility.yul\":1677:1795   */\n      pop\n      pop\n      jump\t// out\n        /* \"#utility.yul\":1801:2023   */\n    tag_29:\n        /* \"#utility.yul\":1894:1898   */\n      0x00\n        /* \"#utility.yul\":1932:1934   */\n      0x20\n        /* \"#utility.yul\":1921:1930   */\n      dup3\n        /* \"#utility.yul\":1917:1935   */\n      add\n        /* \"#utility.yul\":1909:1935   */\n      swap1\n      pop\n        /* \"#utility.yul\":1945:2016   */\n      tag_225\n        /* \"#utility.yul\":2013:2014   */\n      0x00\n        /* \"#utility.yul\":2002:2011   */\n      dup4\n        /* \"#utility.yul\":1998:2015   */\n      add\n        /* \"#utility.yul\":1989:1995   */\n      dup5\n        /* \"#utility.yul\":1945:2016   */\n      tag_151\n      jump\t// in\n    tag_225:\n        /* \"#utility.yul\":1801:2023   */\n      swap3\n      swap2\n      pop\n      pop\n      jump\t// out\n        /* \"#utility.yul\":2029:2146   */\n    tag_152:\n        /* \"#utility.yul\":2138:2139   */\n      0x00\n        /* \"#utility.yul\":2135:2136   */\n      dup1\n        /* \"#utility.yul\":2128:2140   */\n      revert\n        /* \"#utility.yul\":2152:2269   */\n    tag_153:\n        /* \"#utility.yul\":2261:2262   */\n      0x00\n        /* \"#utility.yul\":2258:2259   */\n      dup1\n        /* \"#utility.yul\":2251:2263   */\n      revert\n        /* \"#utility.yul\":2275:2377   */\n    tag_154:\n        /* \"#utility.yul\":2316:2322   */\n      0x00\n        /* \"#utility.yul\":2367:2369   */\n      0x1f\n        /* \"#utility.yul\":2363:2370   */\n      not\n        /* \"#utility.yul\":2358:2360   */\n      0x1f\n        /* \"#utility.yul\":2351:2356   */\n      dup4\n        /* \"#utility.yul\":2347:2361   */\n      add\n        /* \"#utility.yul\":2343:2371   */\n      and\n        /* \"#utility.yul\":2333:2371   */\n      swap1\n      pop\n        /* \"#utility.yul\":2275:2377   */\n      swap2\n      swap1\n      pop\n      jump\t// out\n        /* \"#utility.yul\":2383:2563   */\n    tag_155:\n        /* \"#utility.yul\":2431:2508   */\n      0x4e487b7100000000000000000000000000000000000000000000000000000000\n        /* \"#utility.yul\":2428:2429   */\n      0x00\n        /* \"#utility.yul\":2421:2509   */\n      mstore\n        /* \"#utility.yul\":2528:2532   */\n      0x41\n        /* \"#utility.yul\":2525:2526   */\n      0x04\n        /* \"#utility.yul\":2518:2533   */\n      mstore\n        /* \"#utility.yul\":2552:2556   */\n      0x24\n        /* \"#utility.yul\":2549:2550   */\n      0x00\n        /* \"#utility.yul\":2542:2557   */\n      revert\n        /* \"#utility.yul\":2569:2850   */\n    tag_156:\n        /* \"#utility.yul\":2652:2679   */\n      tag_231\n        /* \"#utility.yul\":2674:2678   */\n      dup3\n        /* \"#utility.yul\":2652:2679   */\n      tag_154\n      jump\t// in\n    tag_231:\n        /* \"#utility.yul\":2644:2650   */\n      dup2\n        /* \"#utility.yul\":2640:2680   */\n      add\n        /* \"#utility.yul\":2782:2788   */\n      dup2\n        /* \"#utility.yul\":2770:2780   */\n      dup2\n        /* \"#utility.yul\":2767:2789   */\n      lt\n        /* \"#utility.yul\":2746:2764   */\n      0xffffffffffffffff\n        /* \"#utility.yul\":2734:2744   */\n      dup3\n        /* \"#utility.yul\":2731:2765   */\n      gt\n        /* \"#utility.yul\":2728:2790   */\n      or\n        /* \"#utility.yul\":2725:2813   */\n      iszero\n      tag_232\n      jumpi\n        /* \"#utility.yul\":2793:2811   */\n      tag_233\n      tag_155\n      jump\t// in\n    tag_233:\n        /* \"#utility.yul\":2725:2813   */\n    tag_232:\n        /* \"#utility.yul\":2833:2843   */\n      dup1\n        /* \"#utility.yul\":2829:2831   */\n      0x40\n        /* \"#utility.yul\":2822:2844   */\n      mstore\n        /* \"#utility.yul\":2612:2850   */\n      pop\n        /* \"#utility.yul\":2569:2850   */\n      pop\n      pop\n      jump\t// out\n        /* \"#utility.yul\":2856:2985   */\n    tag_157:\n        /* \"#utility.yul\":2890:2896   */\n      0x00\n        /* \"#utility.yul\":2917:2937   */\n      tag_235\n      tag_141\n      jump\t// in\n    tag_235:\n        /* \"#utility.yul\":2907:2937   */\n      swap1\n      pop\n        /* \"#utility.yul\":2946:2979   */\n      tag_236\n        /* \"#utility.yul\":2974:2978   */\n      dup3\n        /* \"#utility.yul\":2966:2972   */\n      dup3\n        /* \"#utility.yul\":2946:2979   */\n      tag_156\n      jump\t// in\n    tag_236:\n        /* \"#utility.yul\":2856:2985   */\n      swap2\n      swap1\n      pop\n      jump\t// out\n        /* \"#utility.yul\":2991:3299   */\n    tag_158:\n        /* \"#utility.yul\":3053:3057   */\n      0x00\n        /* \"#utility.yul\":3143:3161   */\n      0xffffffffffffffff\n        /* \"#utility.yul\":3135:3141   */\n      dup3\n        /* \"#utility.yul\":3132:3162   */\n      gt\n        /* \"#utility.yul\":3129:3185   */\n      iszero\n      tag_238\n      jumpi\n        /* \"#utility.yul\":3165:3183   */\n      tag_239\n      tag_155\n      jump\t// in\n    tag_239:\n        /* \"#utility.yul\":3129:3185   */\n    tag_238:\n        /* \"#utility.yul\":3203:3232   */\n      tag_240\n        /* \"#utility.yul\":3225:3231   */\n      dup3\n        /* \"#utility.yul\":3203:3232   */\n      tag_154\n      jump\t// in\n    tag_240:\n        /* \"#utility.yul\":3195:3232   */\n      swap1\n      pop\n        /* \"#utility.yul\":3287:3291   */\n      0x20\n        /* \"#utility.yul\":3281:3285   */\n      dup2\n        /* \"#utility.yul\":3277:3292   */\n      add\n        /* \"#utility.yul\":3269:3292   */\n      swap1\n      pop\n        /* \"#utility.yul\":2991:3299   */\n      swap2\n      swap1\n      pop\n      jump\t// out\n        /* \"#utility.yul\":3305:3459   */\n    tag_159:\n        /* \"#utility.yul\":3389:3395   */\n      dup3\n        /* \"#utility.yul\":3384:3387   */\n      dup2\n        /* \"#utility.yul\":3379:3382   */\n      dup4\n        /* \"#utility.yul\":3366:3396   */\n      calldatacopy\n        /* \"#utility.yul\":3451:3452   */\n      0x00\n        /* \"#utility.yul\":3442:3448   */\n      dup4\n        /* \"#utility.yul\":3437:3440   */\n      dup4\n        /* \"#utility.yul\":3433:3449   */\n      add\n        /* \"#utility.yul\":3426:3453   */\n      mstore\n        /* \"#utility.yul\":3305:3459   */\n      pop\n      pop\n      pop\n      jump\t// out\n        /* \"#utility.yul\":3465:3877   */\n    tag_160:\n        /* \"#utility.yul\":3543:3548   */\n      0x00\n        /* \"#utility.yul\":3568:3634   */\n      tag_243\n        /* \"#utility.yul\":3584:3633   */\n      tag_244\n        /* \"#utility.yul\":3626:3632   */\n      dup5\n        /* \"#utility.yul\":3584:3633   */\n      tag_158\n      jump\t// in\n    tag_244:\n        /* \"#utility.yul\":3568:3634   */\n      tag_157\n      jump\t// in\n    tag_243:\n        /* \"#utility.yul\":3559:3634   */\n      swap1\n      pop\n        /* \"#utility.yul\":3657:3663   */\n      dup3\n        /* \"#utility.yul\":3650:3655   */\n      dup2\n        /* \"#utility.yul\":3643:3664   */\n      mstore\n        /* \"#utility.yul\":3695:3699   */\n      0x20\n        /* \"#utility.yul\":3688:3693   */\n      dup2\n        /* \"#utility.yul\":3684:3700   */\n      add\n        /* \"#utility.yul\":3733:3736   */\n      dup5\n        /* \"#utility.yul\":3724:3730   */\n      dup5\n        /* \"#utility.yul\":3719:3722   */\n      dup5\n        /* \"#utility.yul\":3715:3731   */\n      add\n        /* \"#utility.yul\":3712:3737   */\n      gt\n        /* \"#utility.yul\":3709:3821   */\n      iszero\n      tag_245\n      jumpi\n        /* \"#utility.yul\":3740:3819   */\n      tag_246\n      tag_153\n      jump\t// in\n    tag_246:\n        /* \"#utility.yul\":3709:3821   */\n    tag_245:\n        /* \"#utility.yul\":3830:3871   */\n      tag_247\n        /* \"#utility.yul\":3864:3870   */\n      dup5\n        /* \"#utility.yul\":3859:3862   */\n      dup3\n        /* \"#utility.yul\":3854:3857   */\n      dup6\n        /* \"#utility.yul\":3830:3871   */\n      tag_159\n      jump\t// in\n    tag_247:\n        /* \"#utility.yul\":3549:3877   */\n      pop\n        /* \"#utility.yul\":3465:3877   */\n      swap4\n      swap3\n      pop\n      pop\n      pop\n      jump\t// out\n        /* \"#utility.yul\":3897:4237   */\n    tag_161:\n        /* \"#utility.yul\":3953:3958   */\n      0x00\n        /* \"#utility.yul\":4002:4005   */\n      dup3\n        /* \"#utility.yul\":3995:3999   */\n      0x1f\n        /* \"#utility.yul\":3987:3993   */\n      dup4\n        /* \"#utility.yul\":3983:4000   */\n      add\n        /* \"#utility.yul\":3979:4006   */\n      slt\n        /* \"#utility.yul\":3969:4091   */\n      tag_249\n      jumpi\n        /* \"#utility.yul\":4010:4089   */\n      tag_250\n      tag_152\n      jump\t// in\n    tag_250:\n        /* \"#utility.yul\":3969:4091   */\n    tag_249:\n        /* \"#utility.yul\":4127:4133   */\n      dup2\n        /* \"#utility.yul\":4114:4134   */\n      calldataload\n        /* \"#utility.yul\":4152:4231   */\n      tag_251\n        /* \"#utility.yul\":4227:4230   */\n      dup5\n        /* \"#utility.yul\":4219:4225   */\n      dup3\n        /* \"#utility.yul\":4212:4216   */\n      0x20\n        /* \"#utility.yul\":4204:4210   */\n      dup7\n        /* \"#utility.yul\":4200:4217   */\n      add\n        /* \"#utility.yul\":4152:4231   */\n      tag_160\n      jump\t// in\n    tag_251:\n        /* \"#utility.yul\":4143:4231   */\n      swap2\n      pop\n        /* \"#utility.yul\":3959:4237   */\n      pop\n        /* \"#utility.yul\":3897:4237   */\n      swap3\n      swap2\n      pop\n      pop\n      jump\t// out\n        /* \"#utility.yul\":4243:5077   */\n    tag_32:\n        /* \"#utility.yul\":4331:4337   */\n      0x00\n        /* \"#utility.yul\":4339:4345   */\n      dup1\n        /* \"#utility.yul\":4388:4390   */\n      0x40\n        /* \"#utility.yul\":4376:4385   */\n      dup4\n        /* \"#utility.yul\":4367:4374   */\n      dup6\n        /* \"#utility.yul\":4363:4386   */\n      sub\n        /* \"#utility.yul\":4359:4391   */\n      slt\n        /* \"#utility.yul\":4356:4475   */\n      iszero\n      tag_253\n      jumpi\n        /* \"#utility.yul\":4394:4473   */\n      tag_254\n      tag_142\n      jump\t// in\n    tag_254:\n        /* \"#utility.yul\":4356:4475   */\n    tag_253:\n        /* \"#utility.yul\":4542:4543   */\n      0x00\n        /* \"#utility.yul\":4531:4540   */\n      dup4\n        /* \"#utility.yul\":4527:4544   */\n      add\n        /* \"#utility.yul\":4514:4545   */\n      calldataload\n        /* \"#utility.yul\":4572:4590   */\n      0xffffffffffffffff\n        /* \"#utility.yul\":4564:4570   */\n      dup2\n        /* \"#utility.yul\":4561:4591   */\n      gt\n        /* \"#utility.yul\":4558:4675   */\n      iszero\n      tag_255\n      jumpi\n        /* \"#utility.yul\":4594:4673   */\n      tag_256\n      tag_143\n      jump\t// in\n    tag_256:\n        /* \"#utility.yul\":4558:4675   */\n    tag_255:\n        /* \"#utility.yul\":4699:4762   */\n      tag_257\n        /* \"#utility.yul\":4754:4761   */\n      dup6\n        /* \"#utility.yul\":4745:4751   */\n      dup3\n        /* \"#utility.yul\":4734:4743   */\n      dup7\n        /* \"#utility.yul\":4730:4752   */\n      add\n        /* \"#utility.yul\":4699:4762   */\n      tag_161\n      jump\t// in\n    tag_257:\n        /* \"#utility.yul\":4689:4762   */\n      swap3\n      pop\n        /* \"#utility.yul\":4485:4772   */\n      pop\n        /* \"#utility.yul\":4839:4841   */\n      0x20\n        /* \"#utility.yul\":4828:4837   */\n      dup4\n        /* \"#utility.yul\":4824:4842   */\n      add\n        /* \"#utility.yul\":4811:4843   */\n      calldataload\n        /* \"#utility.yul\":4870:4888   */\n      0xffffffffffffffff\n        /* \"#utility.yul\":4862:4868   */\n      dup2\n        /* \"#utility.yul\":4859:4889   */\n      gt\n        /* \"#utility.yul\":4856:4973   */\n      iszero\n      tag_258\n      jumpi\n        /* \"#utility.yul\":4892:4971   */\n      tag_259\n      tag_143\n      jump\t// in\n    tag_259:\n        /* \"#utility.yul\":4856:4973   */\n    tag_258:\n        /* \"#utility.yul\":4997:5060   */\n      tag_260\n        /* \"#utility.yul\":5052:5059   */\n      dup6\n        /* \"#utility.yul\":5043:5049   */\n      dup3\n        /* \"#utility.yul\":5032:5041   */\n      dup7\n        /* \"#utility.yul\":5028:5050   */\n      add\n        /* \"#utility.yul\":4997:5060   */\n      tag_161\n      jump\t// in\n    tag_260:\n        /* \"#utility.yul\":4987:5060   */\n      swap2\n      pop\n        /* \"#utility.yul\":4782:5070   */\n      pop\n        /* \"#utility.yul\":4243:5077   */\n      swap3\n      pop\n      swap3\n      swap1\n      pop\n      jump\t// out\n        /* \"#utility.yul\":5083:5173   */\n    tag_162:\n        /* \"#utility.yul\":5117:5124   */\n      0x00\n        /* \"#utility.yul\":5160:5165   */\n      dup2\n        /* \"#utility.yul\":5153:5166   */\n      iszero\n        /* \"#utility.yul\":5146:5167   */\n      iszero\n        /* \"#utility.yul\":5135:5167   */\n      swap1\n      pop\n        /* \"#utility.yul\":5083:5173   */\n      swap2\n      swap1\n      pop\n      jump\t// out\n        /* \"#utility.yul\":5179:5288   */\n    tag_163:\n        /* \"#utility.yul\":5260:5281   */\n      tag_263\n        /* \"#utility.yul\":5275:5280   */\n      dup2\n        /* \"#utility.yul\":5260:5281   */\n      tag_162\n      jump\t// in\n    tag_263:\n        /* \"#utility.yul\":5255:5258   */\n      dup3\n        /* \"#utility.yul\":5248:5282   */\n      mstore\n        /* \"#utility.yul\":5179:5288   */\n      pop\n      pop\n      jump\t// out\n        /* \"#utility.yul\":5294:5504   */\n    tag_40:\n        /* \"#utility.yul\":5381:5385   */\n      0x00\n        /* \"#utility.yul\":5419:5421   */\n      0x20\n        /* \"#utility.yul\":5408:5417   */\n      dup3\n        /* \"#utility.yul\":5404:5422   */\n      add\n        /* \"#utility.yul\":5396:5422   */\n      swap1\n      pop\n        /* \"#utility.yul\":5432:5497   */\n      tag_265\n        /* \"#utility.yul\":5494:5495   */\n      0x00\n        /* \"#utility.yul\":5483:5492   */\n      dup4\n        /* \"#utility.yul\":5479:5496   */\n      add\n        /* \"#utility.yul\":5470:5476   */\n      dup5\n        /* \"#utility.yul\":5432:5497   */\n      tag_163\n      jump\t// in\n    tag_265:\n        /* \"#utility.yul\":5294:5504   */\n      swap3\n      swap2\n      pop\n      pop\n      jump\t// out\n        /* \"#utility.yul\":5510:5609   */\n    tag_164:\n        /* \"#utility.yul\":5562:5568   */\n      0x00\n        /* \"#utility.yul\":5596:5601   */\n      dup2\n        /* \"#utility.yul\":5590:5602   */\n      mload\n        /* \"#utility.yul\":5580:5602   */\n      swap1\n      pop\n        /* \"#utility.yul\":5510:5609   */\n      swap2\n      swap1\n      pop\n      jump\t// out\n        /* \"#utility.yul\":5615:5784   */\n    tag_165:\n        /* \"#utility.yul\":5699:5710   */\n      0x00\n        /* \"#utility.yul\":5733:5739   */\n      dup3\n        /* \"#utility.yul\":5728:5731   */\n      dup3\n        /* \"#utility.yul\":5721:5740   */\n      mstore\n        /* \"#utility.yul\":5773:5777   */\n      0x20\n        /* \"#utility.yul\":5768:5771   */\n      dup3\n        /* \"#utility.yul\":5764:5778   */\n      add\n        /* \"#utility.yul\":5749:5778   */\n      swap1\n      pop\n        /* \"#utility.yul\":5615:5784   */\n      swap3\n      swap2\n      pop\n      pop\n      jump\t// out\n        /* \"#utility.yul\":5790:6097   */\n    tag_166:\n        /* \"#utility.yul\":5858:5859   */\n      0x00\n        /* \"#utility.yul\":5868:5981   */\n    tag_269:\n        /* \"#utility.yul\":5882:5888   */\n      dup4\n        /* \"#utility.yul\":5879:5880   */\n      dup2\n        /* \"#utility.yul\":5876:5889   */\n      lt\n        /* \"#utility.yul\":5868:5981   */\n      iszero\n      tag_271\n      jumpi\n        /* \"#utility.yul\":5967:5968   */\n      dup1\n        /* \"#utility.yul\":5962:5965   */\n      dup3\n        /* \"#utility.yul\":5958:5969   */\n      add\n        /* \"#utility.yul\":5952:5970   */\n      mload\n        /* \"#utility.yul\":5948:5949   */\n      dup2\n        /* \"#utility.yul\":5943:5946   */\n      dup5\n        /* \"#utility.yul\":5939:5950   */\n      add\n        /* \"#utility.yul\":5932:5971   */\n      mstore\n        /* \"#utility.yul\":5904:5906   */\n      0x20\n        /* \"#utility.yul\":5901:5902   */\n      dup2\n        /* \"#utility.yul\":5897:5907   */\n      add\n        /* \"#utility.yul\":5892:5907   */\n      swap1\n      pop\n        /* \"#utility.yul\":5868:5981   */\n      jump(tag_269)\n    tag_271:\n        /* \"#utility.yul\":5999:6005   */\n      dup4\n        /* \"#utility.yul\":5996:5997   */\n      dup2\n        /* \"#utility.yul\":5993:6006   */\n      gt\n        /* \"#utility.yul\":5990:6091   */\n      iszero\n      tag_272\n      jumpi\n        /* \"#utility.yul\":6079:6080   */\n      0x00\n        /* \"#utility.yul\":6070:6076   */\n      dup5\n        /* \"#utility.yul\":6065:6068   */\n      dup5\n        /* \"#utility.yul\":6061:6077   */\n      add\n        /* \"#utility.yul\":6054:6081   */\n      mstore\n        /* \"#utility.yul\":5990:6091   */\n    tag_272:\n        /* \"#utility.yul\":5839:6097   */\n      pop\n        /* \"#utility.yul\":5790:6097   */\n      pop\n      pop\n      pop\n      jump\t// out\n        /* \"#utility.yul\":6103:6467   */\n    tag_167:\n        /* \"#utility.yul\":6191:6194   */\n      0x00\n        /* \"#utility.yul\":6219:6258   */\n      tag_274\n        /* \"#utility.yul\":6252:6257   */\n      dup3\n        /* \"#utility.yul\":6219:6258   */\n      tag_164\n      jump\t// in\n    tag_274:\n        /* \"#utility.yul\":6274:6345   */\n      tag_275\n        /* \"#utility.yul\":6338:6344   */\n      dup2\n        /* \"#utility.yul\":6333:6336   */\n      dup6\n        /* \"#utility.yul\":6274:6345   */\n      tag_165\n      jump\t// in\n    tag_275:\n        /* \"#utility.yul\":6267:6345   */\n      swap4\n      pop\n        /* \"#utility.yul\":6354:6406   */\n      tag_276\n        /* \"#utility.yul\":6399:6405   */\n      dup2\n        /* \"#utility.yul\":6394:6397   */\n      dup6\n        /* \"#utility.yul\":6387:6391   */\n      0x20\n        /* \"#utility.yul\":6380:6385   */\n      dup7\n        /* \"#utility.yul\":6376:6392   */\n      add\n        /* \"#utility.yul\":6354:6406   */\n      tag_166\n      jump\t// in\n    tag_276:\n        /* \"#utility.yul\":6431:6460   */\n      tag_277\n        /* \"#utility.yul\":6453:6459   */\n      dup2\n        /* \"#utility.yul\":6431:6460   */\n      tag_154\n      jump\t// in\n    tag_277:\n        /* \"#utility.yul\":6426:6429   */\n      dup5\n        /* \"#utility.yul\":6422:6461   */\n      add\n        /* \"#utility.yul\":6415:6461   */\n      swap2\n      pop\n        /* \"#utility.yul\":6195:6467   */\n      pop\n        /* \"#utility.yul\":6103:6467   */\n      swap3\n      swap2\n      pop\n      pop\n      jump\t// out\n        /* \"#utility.yul\":6473:6786   */\n    tag_44:\n        /* \"#utility.yul\":6586:6590   */\n      0x00\n        /* \"#utility.yul\":6624:6626   */\n      0x20\n        /* \"#utility.yul\":6613:6622   */\n      dup3\n        /* \"#utility.yul\":6609:6627   */\n      add\n        /* \"#utility.yul\":6601:6627   */\n      swap1\n      pop\n        /* \"#utility.yul\":6673:6682   */\n      dup2\n        /* \"#utility.yul\":6667:6671   */\n      dup2\n        /* \"#utility.yul\":6663:6683   */\n      sub\n        /* \"#utility.yul\":6659:6660   */\n      0x00\n        /* \"#utility.yul\":6648:6657   */\n      dup4\n        /* \"#utility.yul\":6644:6661   */\n      add\n        /* \"#utility.yul\":6637:6684   */\n      mstore\n        /* \"#utility.yul\":6701:6779   */\n      tag_279\n        /* \"#utility.yul\":6774:6778   */\n      dup2\n        /* \"#utility.yul\":6765:6771   */\n      dup5\n        /* \"#utility.yul\":6701:6779   */\n      tag_167\n      jump\t// in\n    tag_279:\n        /* \"#utility.yul\":6693:6779   */\n      swap1\n      pop\n        /* \"#utility.yul\":6473:6786   */\n      swap3\n      swap2\n      pop\n      pop\n      jump\t// out\n        /* \"#utility.yul\":6792:6970   */\n    tag_168:\n        /* \"#utility.yul\":6932:6962   */\n      0x2054686973206164647265737320646f65736e27742065786973747300000000\n        /* \"#utility.yul\":6928:6929   */\n      0x00\n        /* \"#utility.yul\":6920:6926   */\n      dup3\n        /* \"#utility.yul\":6916:6930   */\n      add\n        /* \"#utility.yul\":6909:6963   */\n      mstore\n        /* \"#utility.yul\":6792:6970   */\n      pop\n      jump\t// out\n        /* \"#utility.yul\":6976:7342   */\n    tag_169:\n        /* \"#utility.yul\":7118:7121   */\n      0x00\n        /* \"#utility.yul\":7139:7206   */\n      tag_282\n        /* \"#utility.yul\":7203:7205   */\n      0x1c\n        /* \"#utility.yul\":7198:7201   */\n      dup4\n        /* \"#utility.yul\":7139:7206   */\n      tag_165\n      jump\t// in\n    tag_282:\n        /* \"#utility.yul\":7132:7206   */\n      swap2\n      pop\n        /* \"#utility.yul\":7215:7308   */\n      tag_283\n        /* \"#utility.yul\":7304:7307   */\n      dup3\n        /* \"#utility.yul\":7215:7308   */\n      tag_168\n      jump\t// in\n    tag_283:\n        /* \"#utility.yul\":7333:7335   */\n      0x20\n        /* \"#utility.yul\":7328:7331   */\n      dup3\n        /* \"#utility.yul\":7324:7336   */\n      add\n        /* \"#utility.yul\":7317:7336   */\n      swap1\n      pop\n        /* \"#utility.yul\":6976:7342   */\n      swap2\n      swap1\n      pop\n      jump\t// out\n        /* \"#utility.yul\":7348:7767   */\n    tag_77:\n        /* \"#utility.yul\":7514:7518   */\n      0x00\n        /* \"#utility.yul\":7552:7554   */\n      0x20\n        /* \"#utility.yul\":7541:7550   */\n      dup3\n        /* \"#utility.yul\":7537:7555   */\n      add\n        /* \"#utility.yul\":7529:7555   */\n      swap1\n      pop\n        /* \"#utility.yul\":7601:7610   */\n      dup2\n        /* \"#utility.yul\":7595:7599   */\n      dup2\n        /* \"#utility.yul\":7591:7611   */\n      sub\n        /* \"#utility.yul\":7587:7588   */\n      0x00\n        /* \"#utility.yul\":7576:7585   */\n      dup4\n        /* \"#utility.yul\":7572:7589   */\n      add\n        /* \"#utility.yul\":7565:7612   */\n      mstore\n        /* \"#utility.yul\":7629:7760   */\n      tag_285\n        /* \"#utility.yul\":7755:7759   */\n      dup2\n        /* \"#utility.yul\":7629:7760   */\n      tag_169\n      jump\t// in\n    tag_285:\n        /* \"#utility.yul\":7621:7760   */\n      swap1\n      pop\n        /* \"#utility.yul\":7348:7767   */\n      swap2\n      swap1\n      pop\n      jump\t// out\n        /* \"#utility.yul\":7773:7946   */\n    tag_170:\n        /* \"#utility.yul\":7913:7938   */\n      0x506c6561736520696e7365727420796f75722063617264000000000000000000\n        /* \"#utility.yul\":7909:7910   */\n      0x00\n        /* \"#utility.yul\":7901:7907   */\n      dup3\n        /* \"#utility.yul\":7897:7911   */\n      add\n        /* \"#utility.yul\":7890:7939   */\n      mstore\n        /* \"#utility.yul\":7773:7946   */\n      pop\n      jump\t// out\n        /* \"#utility.yul\":7952:8318   */\n    tag_171:\n        /* \"#utility.yul\":8094:8097   */\n      0x00\n        /* \"#utility.yul\":8115:8182   */\n      tag_288\n        /* \"#utility.yul\":8179:8181   */\n      0x17\n        /* \"#utility.yul\":8174:8177   */\n      dup4\n        /* \"#utility.yul\":8115:8182   */\n      tag_165\n      jump\t// in\n    tag_288:\n        /* \"#utility.yul\":8108:8182   */\n      swap2\n      pop\n        /* \"#utility.yul\":8191:8284   */\n      tag_289\n        /* \"#utility.yul\":8280:8283   */\n      dup3\n        /* \"#utility.yul\":8191:8284   */\n      tag_170\n      jump\t// in\n    tag_289:\n        /* \"#utility.yul\":8309:8311   */\n      0x20\n        /* \"#utility.yul\":8304:8307   */\n      dup3\n        /* \"#utility.yul\":8300:8312   */\n      add\n        /* \"#utility.yul\":8293:8312   */\n      swap1\n      pop\n        /* \"#utility.yul\":7952:8318   */\n      swap2\n      swap1\n      pop\n      jump\t// out\n        /* \"#utility.yul\":8324:8743   */\n    tag_81:\n        /* \"#utility.yul\":8490:8494   */\n      0x00\n        /* \"#utility.yul\":8528:8530   */\n      0x20\n        /* \"#utility.yul\":8517:8526   */\n      dup3\n        /* \"#utility.yul\":8513:8531   */\n      add\n        /* \"#utility.yul\":8505:8531   */\n      swap1\n      pop\n        /* \"#utility.yul\":8577:8586   */\n      dup2\n        /* \"#utility.yul\":8571:8575   */\n      dup2\n        /* \"#utility.yul\":8567:8587   */\n      sub\n        /* \"#utility.yul\":8563:8564   */\n      0x00\n        /* \"#utility.yul\":8552:8561   */\n      dup4\n        /* \"#utility.yul\":8548:8565   */\n      add\n        /* \"#utility.yul\":8541:8588   */\n      mstore\n        /* \"#utility.yul\":8605:8736   */\n      tag_291\n        /* \"#utility.yul\":8731:8735   */\n      dup2\n        /* \"#utility.yul\":8605:8736   */\n      tag_171\n      jump\t// in\n    tag_291:\n        /* \"#utility.yul\":8597:8736   */\n      swap1\n      pop\n        /* \"#utility.yul\":8324:8743   */\n      swap2\n      swap1\n      pop\n      jump\t// out\n        /* \"#utility.yul\":8749:8920   */\n    tag_172:\n        /* \"#utility.yul\":8889:8912   */\n      0x596f75207265616368656420746865206c696d69740000000000000000000000\n        /* \"#utility.yul\":8885:8886   */\n      0x00\n        /* \"#utility.yul\":8877:8883   */\n      dup3\n        /* \"#utility.yul\":8873:8887   */\n      add\n        /* \"#utility.yul\":8866:8913   */\n      mstore\n        /* \"#utility.yul\":8749:8920   */\n      pop\n      jump\t// out\n        /* \"#utility.yul\":8926:9292   */\n    tag_173:\n        /* \"#utility.yul\":9068:9071   */\n      0x00\n        /* \"#utility.yul\":9089:9156   */\n      tag_294\n        /* \"#utility.yul\":9153:9155   */\n      0x15\n        /* \"#utility.yul\":9148:9151   */\n      dup4\n        /* \"#utility.yul\":9089:9156   */\n      tag_165\n      jump\t// in\n    tag_294:\n        /* \"#utility.yul\":9082:9156   */\n      swap2\n      pop\n        /* \"#utility.yul\":9165:9258   */\n      tag_295\n        /* \"#utility.yul\":9254:9257   */\n      dup3\n        /* \"#utility.yul\":9165:9258   */\n      tag_172\n      jump\t// in\n    tag_295:\n        /* \"#utility.yul\":9283:9285   */\n      0x20\n        /* \"#utility.yul\":9278:9281   */\n      dup3\n        /* \"#utility.yul\":9274:9286   */\n      add\n        /* \"#utility.yul\":9267:9286   */\n      swap1\n      pop\n        /* \"#utility.yul\":8926:9292   */\n      swap2\n      swap1\n      pop\n      jump\t// out\n        /* \"#utility.yul\":9298:9717   */\n    tag_85:\n        /* \"#utility.yul\":9464:9468   */\n      0x00\n        /* \"#utility.yul\":9502:9504   */\n      0x20\n        /* \"#utility.yul\":9491:9500   */\n      dup3\n        /* \"#utility.yul\":9487:9505   */\n      add\n        /* \"#utility.yul\":9479:9505   */\n      swap1\n      pop\n        /* \"#utility.yul\":9551:9560   */\n      dup2\n        /* \"#utility.yul\":9545:9549   */\n      dup2\n        /* \"#utility.yul\":9541:9561   */\n      sub\n        /* \"#utility.yul\":9537:9538   */\n      0x00\n        /* \"#utility.yul\":9526:9535   */\n      dup4\n        /* \"#utility.yul\":9522:9539   */\n      add\n        /* \"#utility.yul\":9515:9562   */\n      mstore\n        /* \"#utility.yul\":9579:9710   */\n      tag_297\n        /* \"#utility.yul\":9705:9709   */\n      dup2\n        /* \"#utility.yul\":9579:9710   */\n      tag_173\n      jump\t// in\n    tag_297:\n        /* \"#utility.yul\":9571:9710   */\n      swap1\n      pop\n        /* \"#utility.yul\":9298:9717   */\n      swap2\n      swap1\n      pop\n      jump\t// out\n        /* \"#utility.yul\":9723:9903   */\n    tag_174:\n        /* \"#utility.yul\":9771:9848   */\n      0x4e487b7100000000000000000000000000000000000000000000000000000000\n        /* \"#utility.yul\":9768:9769   */\n      0x00\n        /* \"#utility.yul\":9761:9849   */\n      mstore\n        /* \"#utility.yul\":9868:9872   */\n      0x11\n        /* \"#utility.yul\":9865:9866   */\n      0x04\n        /* \"#utility.yul\":9858:9873   */\n      mstore\n        /* \"#utility.yul\":9892:9896   */\n      0x24\n        /* \"#utility.yul\":9889:9890   */\n      0x00\n        /* \"#utility.yul\":9882:9897   */\n      revert\n        /* \"#utility.yul\":9909:10214   */\n    tag_88:\n        /* \"#utility.yul\":9949:9952   */\n      0x00\n        /* \"#utility.yul\":9968:9988   */\n      tag_300\n        /* \"#utility.yul\":9986:9987   */\n      dup3\n        /* \"#utility.yul\":9968:9988   */\n      tag_144\n      jump\t// in\n    tag_300:\n        /* \"#utility.yul\":9963:9988   */\n      swap2\n      pop\n        /* \"#utility.yul\":10002:10022   */\n      tag_301\n        /* \"#utility.yul\":10020:10021   */\n      dup4\n        /* \"#utility.yul\":10002:10022   */\n      tag_144\n      jump\t// in\n    tag_301:\n        /* \"#utility.yul\":9997:10022   */\n      swap3\n      pop\n        /* \"#utility.yul\":10156:10157   */\n      dup3\n        /* \"#utility.yul\":10088:10154   */\n      0xffffffffffffffffffffffffffffffffffffffffffffffffffffffffffffffff\n        /* \"#utility.yul\":10084:10158   */\n      sub\n        /* \"#utility.yul\":10081:10082   */\n      dup3\n        /* \"#utility.yul\":10078:10159   */\n      gt\n        /* \"#utility.yul\":10075:10182   */\n      iszero\n      tag_302\n      jumpi\n        /* \"#utility.yul\":10162:10180   */\n      tag_303\n      tag_174\n      jump\t// in\n    tag_303:\n        /* \"#utility.yul\":10075:10182   */\n    tag_302:\n        /* \"#utility.yul\":10206:10207   */\n      dup3\n        /* \"#utility.yul\":10203:10204   */\n      dup3\n        /* \"#utility.yul\":10199:10208   */\n      add\n        /* \"#utility.yul\":10192:10208   */\n      swap1\n      pop\n        /* \"#utility.yul\":9909:10214   */\n      swap3\n      swap2\n      pop\n      pop\n      jump\t// out\n        /* \"#utility.yul\":10220:10399   */\n    tag_175:\n        /* \"#utility.yul\":10360:10391   */\n      0x596f75207265616368656420746865206c696d69742070657220646179000000\n        /* \"#utility.yul\":10356:10357   */\n      0x00\n        /* \"#utility.yul\":10348:10354   */\n      dup3\n        /* \"#utility.yul\":10344:10358   */\n      add\n        /* \"#utility.yul\":10337:10392   */\n      mstore\n        /* \"#utility.yul\":10220:10399   */\n      pop\n      jump\t// out\n        /* \"#utility.yul\":10405:10771   */\n    tag_176:\n        /* \"#utility.yul\":10547:10550   */\n      0x00\n        /* \"#utility.yul\":10568:10635   */\n      tag_306\n        /* \"#utility.yul\":10632:10634   */\n      0x1d\n        /* \"#utility.yul\":10627:10630   */\n      dup4\n        /* \"#utility.yul\":10568:10635   */\n      tag_165\n      jump\t// in\n    tag_306:\n        /* \"#utility.yul\":10561:10635   */\n      swap2\n      pop\n        /* \"#utility.yul\":10644:10737   */\n      tag_307\n        /* \"#utility.yul\":10733:10736   */\n      dup3\n        /* \"#utility.yul\":10644:10737   */\n      tag_175\n      jump\t// in\n    tag_307:\n        /* \"#utility.yul\":10762:10764   */\n      0x20\n        /* \"#utility.yul\":10757:10760   */\n      dup3\n        /* \"#utility.yul\":10753:10765   */\n      add\n        /* \"#utility.yul\":10746:10765   */\n      swap1\n      pop\n        /* \"#utility.yul\":10405:10771   */\n      swap2\n      swap1\n      pop\n      jump\t// out\n        /* \"#utility.yul\":10777:11196   */\n    tag_91:\n        /* \"#utility.yul\":10943:10947   */\n      0x00\n        /* \"#utility.yul\":10981:10983   */\n      0x20\n        /* \"#utility.yul\":10970:10979   */\n      dup3\n        /* \"#utility.yul\":10966:10984   */\n      add\n        /* \"#utility.yul\":10958:10984   */\n      swap1\n      pop\n        /* \"#utility.yul\":11030:11039   */\n      dup2\n        /* \"#utility.yul\":11024:11028   */\n      dup2\n        /* \"#utility.yul\":11020:11040   */\n      sub\n        /* \"#utility.yul\":11016:11017   */\n      0x00\n        /* \"#utility.yul\":11005:11014   */\n      dup4\n        /* \"#utility.yul\":11001:11018   */\n      add\n        /* \"#utility.yul\":10994:11041   */\n      mstore\n        /* \"#utility.yul\":11058:11189   */\n      tag_309\n        /* \"#utility.yul\":11184:11188   */\n      dup2\n        /* \"#utility.yul\":11058:11189   */\n      tag_176\n      jump\t// in\n    tag_309:\n        /* \"#utility.yul\":11050:11189   */\n      swap1\n      pop\n        /* \"#utility.yul\":10777:11196   */\n      swap2\n      swap1\n      pop\n      jump\t// out\n        /* \"#utility.yul\":11202:11379   */\n    tag_177:\n        /* \"#utility.yul\":11342:11371   */\n      0x6f6e6c792035207472616e73616374696f6e7320706572206461790000000000\n        /* \"#utility.yul\":11338:11339   */\n      0x00\n        /* \"#utility.yul\":11330:11336   */\n      dup3\n        /* \"#utility.yul\":11326:11340   */\n      add\n        /* \"#utility.yul\":11319:11372   */\n      mstore\n        /* \"#utility.yul\":11202:11379   */\n      pop\n      jump\t// out\n        /* \"#utility.yul\":11385:11751   */\n    tag_178:\n        /* \"#utility.yul\":11527:11530   */\n      0x00\n        /* \"#utility.yul\":11548:11615   */\n      tag_312\n        /* \"#utility.yul\":11612:11614   */\n      0x1b\n        /* \"#utility.yul\":11607:11610   */\n      dup4\n        /* \"#utility.yul\":11548:11615   */\n      tag_165\n      jump\t// in\n    tag_312:\n        /* \"#utility.yul\":11541:11615   */\n      swap2\n      pop\n        /* \"#utility.yul\":11624:11717   */\n      tag_313\n        /* \"#utility.yul\":11713:11716   */\n      dup3\n        /* \"#utility.yul\":11624:11717   */\n      tag_177\n      jump\t// in\n    tag_313:\n        /* \"#utility.yul\":11742:11744   */\n      0x20\n        /* \"#utility.yul\":11737:11740   */\n      dup3\n        /* \"#utility.yul\":11733:11745   */\n      add\n        /* \"#utility.yul\":11726:11745   */\n      swap1\n      pop\n        /* \"#utility.yul\":11385:11751   */\n      swap2\n      swap1\n      pop\n      jump\t// out\n        /* \"#utility.yul\":11757:12176   */\n    tag_97:\n        /* \"#utility.yul\":11923:11927   */\n      0x00\n        /* \"#utility.yul\":11961:11963   */\n      0x20\n        /* \"#utility.yul\":11950:11959   */\n      dup3\n        /* \"#utility.yul\":11946:11964   */\n      add\n        /* \"#utility.yul\":11938:11964   */\n      swap1\n      pop\n        /* \"#utility.yul\":12010:12019   */\n      dup2\n        /* \"#utility.yul\":12004:12008   */\n      dup2\n        /* \"#utility.yul\":12000:12020   */\n      sub\n        /* \"#utility.yul\":11996:11997   */\n      0x00\n        /* \"#utility.yul\":11985:11994   */\n      dup4\n        /* \"#utility.yul\":11981:11998   */\n      add\n        /* \"#utility.yul\":11974:12021   */\n      mstore\n        /* \"#utility.yul\":12038:12169   */\n      tag_315\n        /* \"#utility.yul\":12164:12168   */\n      dup2\n        /* \"#utility.yul\":12038:12169   */\n      tag_178\n      jump\t// in\n    tag_315:\n        /* \"#utility.yul\":12030:12169   */\n      swap1\n      pop\n        /* \"#utility.yul\":11757:12176   */\n      swap2\n      swap1\n      pop\n      jump\t// out\n        /* \"#utility.yul\":12182:12373   */\n    tag_106:\n        /* \"#utility.yul\":12222:12226   */\n      0x00\n        /* \"#utility.yul\":12242:12262   */\n      tag_317\n        /* \"#utility.yul\":12260:12261   */\n      dup3\n        /* \"#utility.yul\":12242:12262   */\n      tag_144\n      jump\t// in\n    tag_317:\n        /* \"#utility.yul\":12237:12262   */\n      swap2\n      pop\n        /* \"#utility.yul\":12276:12296   */\n      tag_318\n        /* \"#utility.yul\":12294:12295   */\n      dup4\n        /* \"#utility.yul\":12276:12296   */\n      tag_144\n      jump\t// in\n    tag_318:\n        /* \"#utility.yul\":12271:12296   */\n      swap3\n      pop\n        /* \"#utility.yul\":12315:12316   */\n      dup3\n        /* \"#utility.yul\":12312:12313   */\n      dup3\n        /* \"#utility.yul\":12309:12317   */\n      lt\n        /* \"#utility.yul\":12306:12340   */\n      iszero\n      tag_319\n      jumpi\n        /* \"#utility.yul\":12320:12338   */\n      tag_320\n      tag_174\n      jump\t// in\n    tag_320:\n        /* \"#utility.yul\":12306:12340   */\n    tag_319:\n        /* \"#utility.yul\":12365:12366   */\n      dup3\n        /* \"#utility.yul\":12362:12363   */\n      dup3\n        /* \"#utility.yul\":12358:12367   */\n      sub\n        /* \"#utility.yul\":12350:12367   */\n      swap1\n      pop\n        /* \"#utility.yul\":12182:12373   */\n      swap3\n      swap2\n      pop\n      pop\n      jump\t// out\n        /* \"#utility.yul\":12379:12559   */\n    tag_179:\n        /* \"#utility.yul\":12427:12504   */\n      0x4e487b7100000000000000000000000000000000000000000000000000000000\n        /* \"#utility.yul\":12424:12425   */\n      0x00\n        /* \"#utility.yul\":12417:12505   */\n      mstore\n        /* \"#utility.yul\":12524:12528   */\n      0x22\n        /* \"#utility.yul\":12521:12522   */\n      0x04\n        /* \"#utility.yul\":12514:12529   */\n      mstore\n        /* \"#utility.yul\":12548:12552   */\n      0x24\n        /* \"#utility.yul\":12545:12546   */\n      0x00\n        /* \"#utility.yul\":12538:12553   */\n      revert\n        /* \"#utility.yul\":12565:12885   */\n    tag_118:\n        /* \"#utility.yul\":12609:12615   */\n      0x00\n        /* \"#utility.yul\":12646:12647   */\n      0x02\n        /* \"#utility.yul\":12640:12644   */\n      dup3\n        /* \"#utility.yul\":12636:12648   */\n      div\n        /* \"#utility.yul\":12626:12648   */\n      swap1\n      pop\n        /* \"#utility.yul\":12693:12694   */\n      0x01\n        /* \"#utility.yul\":12687:12691   */\n      dup3\n        /* \"#utility.yul\":12683:12695   */\n      and\n        /* \"#utility.yul\":12714:12732   */\n      dup1\n        /* \"#utility.yul\":12704:12785   */\n      tag_323\n      jumpi\n        /* \"#utility.yul\":12770:12774   */\n      0x7f\n        /* \"#utility.yul\":12762:12768   */\n      dup3\n        /* \"#utility.yul\":12758:12775   */\n      and\n        /* \"#utility.yul\":12748:12775   */\n      swap2\n      pop\n        /* \"#utility.yul\":12704:12785   */\n    tag_323:\n        /* \"#utility.yul\":12832:12834   */\n      0x20\n        /* \"#utility.yul\":12824:12830   */\n      dup3\n        /* \"#utility.yul\":12821:12835   */\n      lt\n        /* \"#utility.yul\":12801:12819   */\n      dup2\n        /* \"#utility.yul\":12798:12836   */\n      sub\n        /* \"#utility.yul\":12795:12879   */\n      tag_324\n      jumpi\n        /* \"#utility.yul\":12851:12869   */\n      tag_325\n      tag_179\n      jump\t// in\n    tag_325:\n        /* \"#utility.yul\":12795:12879   */\n    tag_324:\n        /* \"#utility.yul\":12616:12885   */\n      pop\n        /* \"#utility.yul\":12565:12885   */\n      swap2\n      swap1\n      pop\n      jump\t// out\n        /* \"#utility.yul\":12891:13032   */\n    tag_180:\n        /* \"#utility.yul\":12940:12944   */\n      0x00\n        /* \"#utility.yul\":12963:12966   */\n      dup2\n        /* \"#utility.yul\":12955:12966   */\n      swap1\n      pop\n        /* \"#utility.yul\":12986:12989   */\n      dup2\n        /* \"#utility.yul\":12983:12984   */\n      0x00\n        /* \"#utility.yul\":12976:12990   */\n      mstore\n        /* \"#utility.yul\":13020:13024   */\n      0x20\n        /* \"#utility.yul\":13017:13018   */\n      0x00\n        /* \"#utility.yul\":13007:13025   */\n      keccak256\n        /* \"#utility.yul\":12999:13025   */\n      swap1\n      pop\n        /* \"#utility.yul\":12891:13032   */\n      swap2\n      swap1\n      pop\n      jump\t// out\n        /* \"#utility.yul\":13038:13131   */\n    tag_181:\n        /* \"#utility.yul\":13075:13081   */\n      0x00\n        /* \"#utility.yul\":13122:13124   */\n      0x20\n        /* \"#utility.yul\":13117:13119   */\n      0x1f\n        /* \"#utility.yul\":13110:13115   */\n      dup4\n        /* \"#utility.yul\":13106:13120   */\n      add\n        /* \"#utility.yul\":13102:13125   */\n      div\n        /* \"#utility.yul\":13092:13125   */\n      swap1\n      pop\n        /* \"#utility.yul\":13038:13131   */\n      swap2\n      swap1\n      pop\n      jump\t// out\n        /* \"#utility.yul\":13137:13244   */\n    tag_182:\n        /* \"#utility.yul\":13181:13189   */\n      0x00\n        /* \"#utility.yul\":13231:13236   */\n      dup3\n        /* \"#utility.yul\":13225:13229   */\n      dup3\n        /* \"#utility.yul\":13221:13237   */\n      shl\n        /* \"#utility.yul\":13200:13237   */\n      swap1\n      pop\n        /* \"#utility.yul\":13137:13244   */\n      swap3\n      swap2\n      pop\n      pop\n      jump\t// out\n        /* \"#utility.yul\":13250:13643   */\n    tag_183:\n        /* \"#utility.yul\":13319:13325   */\n      0x00\n        /* \"#utility.yul\":13369:13370   */\n      0x08\n        /* \"#utility.yul\":13357:13367   */\n      dup4\n        /* \"#utility.yul\":13353:13371   */\n      mul\n        /* \"#utility.yul\":13392:13489   */\n      tag_330\n        /* \"#utility.yul\":13422:13488   */\n      0xffffffffffffffffffffffffffffffffffffffffffffffffffffffffffffffff\n        /* \"#utility.yul\":13411:13420   */\n      dup3\n        /* \"#utility.yul\":13392:13489   */\n      tag_182\n      jump\t// in\n    tag_330:\n        /* \"#utility.yul\":13510:13549   */\n      tag_331\n        /* \"#utility.yul\":13540:13548   */\n      dup7\n        /* \"#utility.yul\":13529:13538   */\n      dup4\n        /* \"#utility.yul\":13510:13549   */\n      tag_182\n      jump\t// in\n    tag_331:\n        /* \"#utility.yul\":13498:13549   */\n      swap6\n      pop\n        /* \"#utility.yul\":13582:13586   */\n      dup1\n        /* \"#utility.yul\":13578:13587   */\n      not\n        /* \"#utility.yul\":13571:13576   */\n      dup5\n        /* \"#utility.yul\":13567:13588   */\n      and\n        /* \"#utility.yul\":13558:13588   */\n      swap4\n      pop\n        /* \"#utility.yul\":13631:13635   */\n      dup1\n        /* \"#utility.yul\":13621:13629   */\n      dup7\n        /* \"#utility.yul\":13617:13636   */\n      and\n        /* \"#utility.yul\":13610:13615   */\n      dup5\n        /* \"#utility.yul\":13607:13637   */\n      or\n        /* \"#utility.yul\":13597:13637   */\n      swap3\n      pop\n        /* \"#utility.yul\":13326:13643   */\n      pop\n      pop\n        /* \"#utility.yul\":13250:13643   */\n      swap4\n      swap3\n      pop\n      pop\n      pop\n      jump\t// out\n        /* \"#utility.yul\":13649:13709   */\n    tag_184:\n        /* \"#utility.yul\":13677:13680   */\n      0x00\n        /* \"#utility.yul\":13698:13703   */\n      dup2\n        /* \"#utility.yul\":13691:13703   */\n      swap1\n      pop\n        /* \"#utility.yul\":13649:13709   */\n      swap2\n      swap1\n      pop\n      jump\t// out\n        /* \"#utility.yul\":13715:13857   */\n    tag_185:\n        /* \"#utility.yul\":13765:13774   */\n      0x00\n        /* \"#utility.yul\":13798:13851   */\n      tag_334\n        /* \"#utility.yul\":13816:13850   */\n      tag_335\n        /* \"#utility.yul\":13825:13849   */\n      tag_336\n        /* \"#utility.yul\":13843:13848   */\n      dup5\n        /* \"#utility.yul\":13825:13849   */\n      tag_144\n      jump\t// in\n    tag_336:\n        /* \"#utility.yul\":13816:13850   */\n      tag_184\n      jump\t// in\n    tag_335:\n        /* \"#utility.yul\":13798:13851   */\n      tag_144\n      jump\t// in\n    tag_334:\n        /* \"#utility.yul\":13785:13851   */\n      swap1\n      pop\n        /* \"#utility.yul\":13715:13857   */\n      swap2\n      swap1\n      pop\n      jump\t// out\n        /* \"#utility.yul\":13863:13938   */\n    tag_186:\n        /* \"#utility.yul\":13906:13909   */\n      0x00\n        /* \"#utility.yul\":13927:13932   */\n      dup2\n        /* \"#utility.yul\":13920:13932   */\n      swap1\n      pop\n        /* \"#utility.yul\":13863:13938   */\n      swap2\n      swap1\n      pop\n      jump\t// out\n        /* \"#utility.yul\":13944:14213   */\n    tag_187:\n        /* \"#utility.yul\":14054:14093   */\n      tag_339\n        /* \"#utility.yul\":14085:14092   */\n      dup4\n        /* \"#utility.yul\":14054:14093   */\n      tag_185\n      jump\t// in\n    tag_339:\n        /* \"#utility.yul\":14115:14206   */\n      tag_340\n        /* \"#utility.yul\":14164:14205   */\n      tag_341\n        /* \"#utility.yul\":14188:14204   */\n      dup3\n        /* \"#utility.yul\":14164:14205   */\n      tag_186\n      jump\t// in\n    tag_341:\n        /* \"#utility.yul\":14156:14162   */\n      dup5\n        /* \"#utility.yul\":14149:14153   */\n      dup5\n        /* \"#utility.yul\":14143:14154   */\n      sload\n        /* \"#utility.yul\":14115:14206   */\n      tag_183\n      jump\t// in\n    tag_340:\n        /* \"#utility.yul\":14109:14113   */\n      dup3\n        /* \"#utility.yul\":14102:14207   */\n      sstore\n        /* \"#utility.yul\":14020:14213   */\n      pop\n        /* \"#utility.yul\":13944:14213   */\n      pop\n      pop\n      pop\n      jump\t// out\n        /* \"#utility.yul\":14219:14292   */\n    tag_188:\n        /* \"#utility.yul\":14264:14267   */\n      0x00\n        /* \"#utility.yul\":14219:14292   */\n      swap1\n      jump\t// out\n        /* \"#utility.yul\":14298:14487   */\n    tag_189:\n        /* \"#utility.yul\":14375:14407   */\n      tag_344\n      tag_188\n      jump\t// in\n    tag_344:\n        /* \"#utility.yul\":14416:14481   */\n      tag_345\n        /* \"#utility.yul\":14474:14480   */\n      dup2\n        /* \"#utility.yul\":14466:14472   */\n      dup5\n        /* \"#utility.yul\":14460:14464   */\n      dup5\n        /* \"#utility.yul\":14416:14481   */\n      tag_187\n      jump\t// in\n    tag_345:\n        /* \"#utility.yul\":14351:14487   */\n      pop\n        /* \"#utility.yul\":14298:14487   */\n      pop\n      pop\n      jump\t// out\n        /* \"#utility.yul\":14493:14679   */\n    tag_190:\n        /* \"#utility.yul\":14553:14673   */\n    tag_347:\n        /* \"#utility.yul\":14570:14573   */\n      dup2\n        /* \"#utility.yul\":14563:14568   */\n      dup2\n        /* \"#utility.yul\":14560:14574   */\n      lt\n        /* \"#utility.yul\":14553:14673   */\n      iszero\n      tag_349\n      jumpi\n        /* \"#utility.yul\":14624:14663   */\n      tag_350\n        /* \"#utility.yul\":14661:14662   */\n      0x00\n        /* \"#utility.yul\":14654:14659   */\n      dup3\n        /* \"#utility.yul\":14624:14663   */\n      tag_189\n      jump\t// in\n    tag_350:\n        /* \"#utility.yul\":14597:14598   */\n      0x01\n        /* \"#utility.yul\":14590:14595   */\n      dup2\n        /* \"#utility.yul\":14586:14599   */\n      add\n        /* \"#utility.yul\":14577:14599   */\n      swap1\n      pop\n        /* \"#utility.yul\":14553:14673   */\n      jump(tag_347)\n    tag_349:\n        /* \"#utility.yul\":14493:14679   */\n      pop\n      pop\n      jump\t// out\n        /* \"#utility.yul\":14685:15228   */\n    tag_191:\n        /* \"#utility.yul\":14786:14788   */\n      0x1f\n        /* \"#utility.yul\":14781:14784   */\n      dup3\n        /* \"#utility.yul\":14778:14789   */\n      gt\n        /* \"#utility.yul\":14775:15221   */\n      iszero\n      tag_352\n      jumpi\n        /* \"#utility.yul\":14820:14858   */\n      tag_353\n        /* \"#utility.yul\":14852:14857   */\n      dup2\n        /* \"#utility.yul\":14820:14858   */\n      tag_180\n      jump\t// in\n    tag_353:\n        /* \"#utility.yul\":14904:14933   */\n      tag_354\n        /* \"#utility.yul\":14922:14932   */\n      dup5\n        /* \"#utility.yul\":14904:14933   */\n      tag_181\n      jump\t// in\n    tag_354:\n        /* \"#utility.yul\":14894:14902   */\n      dup2\n        /* \"#utility.yul\":14890:14934   */\n      add\n        /* \"#utility.yul\":15087:15089   */\n      0x20\n        /* \"#utility.yul\":15075:15085   */\n      dup6\n        /* \"#utility.yul\":15072:15090   */\n      lt\n        /* \"#utility.yul\":15069:15118   */\n      iszero\n      tag_355\n      jumpi\n        /* \"#utility.yul\":15108:15116   */\n      dup2\n        /* \"#utility.yul\":15093:15116   */\n      swap1\n      pop\n        /* \"#utility.yul\":15069:15118   */\n    tag_355:\n        /* \"#utility.yul\":15131:15211   */\n      tag_356\n        /* \"#utility.yul\":15187:15209   */\n      tag_357\n        /* \"#utility.yul\":15205:15208   */\n      dup6\n        /* \"#utility.yul\":15187:15209   */\n      tag_181\n      jump\t// in\n    tag_357:\n        /* \"#utility.yul\":15177:15185   */\n      dup4\n        /* \"#utility.yul\":15173:15210   */\n      add\n        /* \"#utility.yul\":15160:15171   */\n      dup3\n        /* \"#utility.yul\":15131:15211   */\n      tag_190\n      jump\t// in\n    tag_356:\n        /* \"#utility.yul\":14790:15221   */\n      pop\n      pop\n        /* \"#utility.yul\":14775:15221   */\n    tag_352:\n        /* \"#utility.yul\":14685:15228   */\n      pop\n      pop\n      pop\n      jump\t// out\n        /* \"#utility.yul\":15234:15351   */\n    tag_192:\n        /* \"#utility.yul\":15288:15296   */\n      0x00\n        /* \"#utility.yul\":15338:15343   */\n      dup3\n        /* \"#utility.yul\":15332:15336   */\n      dup3\n        /* \"#utility.yul\":15328:15344   */\n      shr\n        /* \"#utility.yul\":15307:15344   */\n      swap1\n      pop\n        /* \"#utility.yul\":15234:15351   */\n      swap3\n      swap2\n      pop\n      pop\n      jump\t// out\n        /* \"#utility.yul\":15357:15526   */\n    tag_193:\n        /* \"#utility.yul\":15401:15407   */\n      0x00\n        /* \"#utility.yul\":15434:15485   */\n      tag_360\n        /* \"#utility.yul\":15482:15483   */\n      0x00\n        /* \"#utility.yul\":15478:15484   */\n      not\n        /* \"#utility.yul\":15470:15475   */\n      dup5\n        /* \"#utility.yul\":15467:15468   */\n      0x08\n        /* \"#utility.yul\":15463:15476   */\n      mul\n        /* \"#utility.yul\":15434:15485   */\n      tag_192\n      jump\t// in\n    tag_360:\n        /* \"#utility.yul\":15430:15486   */\n      not\n        /* \"#utility.yul\":15515:15519   */\n      dup1\n        /* \"#utility.yul\":15509:15513   */\n      dup4\n        /* \"#utility.yul\":15505:15520   */\n      and\n        /* \"#utility.yul\":15495:15520   */\n      swap2\n      pop\n        /* \"#utility.yul\":15408:15526   */\n      pop\n        /* \"#utility.yul\":15357:15526   */\n      swap3\n      swap2\n      pop\n      pop\n      jump\t// out\n        /* \"#utility.yul\":15531:15826   */\n    tag_194:\n        /* \"#utility.yul\":15607:15611   */\n      0x00\n        /* \"#utility.yul\":15753:15782   */\n      tag_362\n        /* \"#utility.yul\":15778:15781   */\n      dup4\n        /* \"#utility.yul\":15772:15776   */\n      dup4\n        /* \"#utility.yul\":15753:15782   */\n      tag_193\n      jump\t// in\n    tag_362:\n        /* \"#utility.yul\":15745:15782   */\n      swap2\n      pop\n        /* \"#utility.yul\":15815:15818   */\n      dup3\n        /* \"#utility.yul\":15812:15813   */\n      0x02\n        /* \"#utility.yul\":15808:15819   */\n      mul\n        /* \"#utility.yul\":15802:15806   */\n      dup3\n        /* \"#utility.yul\":15799:15820   */\n      or\n        /* \"#utility.yul\":15791:15820   */\n      swap1\n      pop\n        /* \"#utility.yul\":15531:15826   */\n      swap3\n      swap2\n      pop\n      pop\n      jump\t// out\n        /* \"#utility.yul\":15831:17226   */\n    tag_109:\n        /* \"#utility.yul\":15948:15985   */\n      tag_364\n        /* \"#utility.yul\":15981:15984   */\n      dup3\n        /* \"#utility.yul\":15948:15985   */\n      tag_164\n      jump\t// in\n    tag_364:\n        /* \"#utility.yul\":16050:16068   */\n      0xffffffffffffffff\n        /* \"#utility.yul\":16042:16048   */\n      dup2\n        /* \"#utility.yul\":16039:16069   */\n      gt\n        /* \"#utility.yul\":16036:16092   */\n      iszero\n      tag_365\n      jumpi\n        /* \"#utility.yul\":16072:16090   */\n      tag_366\n      tag_155\n      jump\t// in\n    tag_366:\n        /* \"#utility.yul\":16036:16092   */\n    tag_365:\n        /* \"#utility.yul\":16116:16154   */\n      tag_367\n        /* \"#utility.yul\":16148:16152   */\n      dup3\n        /* \"#utility.yul\":16142:16153   */\n      sload\n        /* \"#utility.yul\":16116:16154   */\n      tag_118\n      jump\t// in\n    tag_367:\n        /* \"#utility.yul\":16201:16268   */\n      tag_368\n        /* \"#utility.yul\":16261:16267   */\n      dup3\n        /* \"#utility.yul\":16253:16259   */\n      dup3\n        /* \"#utility.yul\":16247:16251   */\n      dup6\n        /* \"#utility.yul\":16201:16268   */\n      tag_191\n      jump\t// in\n    tag_368:\n        /* \"#utility.yul\":16295:16296   */\n      0x00\n        /* \"#utility.yul\":16319:16323   */\n      0x20\n        /* \"#utility.yul\":16306:16323   */\n      swap1\n      pop\n        /* \"#utility.yul\":16351:16353   */\n      0x1f\n        /* \"#utility.yul\":16343:16349   */\n      dup4\n        /* \"#utility.yul\":16340:16354   */\n      gt\n        /* \"#utility.yul\":16368:16369   */\n      0x01\n        /* \"#utility.yul\":16363:16981   */\n      dup2\n      eq\n      tag_370\n      jumpi\n        /* \"#utility.yul\":17025:17026   */\n      0x00\n        /* \"#utility.yul\":17042:17048   */\n      dup5\n        /* \"#utility.yul\":17039:17116   */\n      iszero\n      tag_371\n      jumpi\n        /* \"#utility.yul\":17091:17100   */\n      dup3\n        /* \"#utility.yul\":17086:17089   */\n      dup8\n        /* \"#utility.yul\":17082:17101   */\n      add\n        /* \"#utility.yul\":17076:17102   */\n      mload\n        /* \"#utility.yul\":17067:17102   */\n      swap1\n      pop\n        /* \"#utility.yul\":17039:17116   */\n    tag_371:\n        /* \"#utility.yul\":17142:17209   */\n      tag_372\n        /* \"#utility.yul\":17202:17208   */\n      dup6\n        /* \"#utility.yul\":17195:17200   */\n      dup3\n        /* \"#utility.yul\":17142:17209   */\n      tag_194\n      jump\t// in\n    tag_372:\n        /* \"#utility.yul\":17136:17140   */\n      dup7\n        /* \"#utility.yul\":17129:17210   */\n      sstore\n        /* \"#utility.yul\":16998:17220   */\n      pop\n        /* \"#utility.yul\":16333:17220   */\n      jump(tag_369)\n        /* \"#utility.yul\":16363:16981   */\n    tag_370:\n        /* \"#utility.yul\":16415:16419   */\n      0x1f\n        /* \"#utility.yul\":16411:16420   */\n      not\n        /* \"#utility.yul\":16403:16409   */\n      dup5\n        /* \"#utility.yul\":16399:16421   */\n      and\n        /* \"#utility.yul\":16449:16486   */\n      tag_373\n        /* \"#utility.yul\":16481:16485   */\n      dup7\n        /* \"#utility.yul\":16449:16486   */\n      tag_180\n      jump\t// in\n    tag_373:\n        /* \"#utility.yul\":16508:16509   */\n      0x00\n        /* \"#utility.yul\":16522:16730   */\n    tag_374:\n        /* \"#utility.yul\":16536:16543   */\n      dup3\n        /* \"#utility.yul\":16533:16534   */\n      dup2\n        /* \"#utility.yul\":16530:16544   */\n      lt\n        /* \"#utility.yul\":16522:16730   */\n      iszero\n      tag_376\n      jumpi\n        /* \"#utility.yul\":16615:16624   */\n      dup5\n        /* \"#utility.yul\":16610:16613   */\n      dup10\n        /* \"#utility.yul\":16606:16625   */\n      add\n        /* \"#utility.yul\":16600:16626   */\n      mload\n        /* \"#utility.yul\":16592:16598   */\n      dup3\n        /* \"#utility.yul\":16585:16627   */\n      sstore\n        /* \"#utility.yul\":16666:16667   */\n      0x01\n        /* \"#utility.yul\":16658:16664   */\n      dup3\n        /* \"#utility.yul\":16654:16668   */\n      add\n        /* \"#utility.yul\":16644:16668   */\n      swap2\n      pop\n        /* \"#utility.yul\":16713:16715   */\n      0x20\n        /* \"#utility.yul\":16702:16711   */\n      dup6\n        /* \"#utility.yul\":16698:16716   */\n      add\n        /* \"#utility.yul\":16685:16716   */\n      swap5\n      pop\n        /* \"#utility.yul\":16559:16563   */\n      0x20\n        /* \"#utility.yul\":16556:16557   */\n      dup2\n        /* \"#utility.yul\":16552:16564   */\n      add\n        /* \"#utility.yul\":16547:16564   */\n      swap1\n      pop\n        /* \"#utility.yul\":16522:16730   */\n      jump(tag_374)\n    tag_376:\n        /* \"#utility.yul\":16758:16764   */\n      dup7\n        /* \"#utility.yul\":16749:16756   */\n      dup4\n        /* \"#utility.yul\":16746:16765   */\n      lt\n        /* \"#utility.yul\":16743:16922   */\n      iszero\n      tag_377\n      jumpi\n        /* \"#utility.yul\":16816:16825   */\n      dup5\n        /* \"#utility.yul\":16811:16814   */\n      dup10\n        /* \"#utility.yul\":16807:16826   */\n      add\n        /* \"#utility.yul\":16801:16827   */\n      mload\n        /* \"#utility.yul\":16859:16907   */\n      tag_378\n        /* \"#utility.yul\":16901:16905   */\n      0x1f\n        /* \"#utility.yul\":16893:16899   */\n      dup10\n        /* \"#utility.yul\":16889:16906   */\n      and\n        /* \"#utility.yul\":16878:16887   */\n      dup3\n        /* \"#utility.yul\":16859:16907   */\n      tag_193\n      jump\t// in\n    tag_378:\n        /* \"#utility.yul\":16851:16857   */\n      dup4\n        /* \"#utility.yul\":16844:16908   */\n      sstore\n        /* \"#utility.yul\":16766:16922   */\n      pop\n        /* \"#utility.yul\":16743:16922   */\n    tag_377:\n        /* \"#utility.yul\":16968:16969   */\n      0x01\n        /* \"#utility.yul\":16964:16965   */\n      0x02\n        /* \"#utility.yul\":16956:16962   */\n      dup9\n        /* \"#utility.yul\":16952:16966   */\n      mul\n        /* \"#utility.yul\":16948:16970   */\n      add\n        /* \"#utility.yul\":16942:16946   */\n      dup9\n        /* \"#utility.yul\":16935:16971   */\n      sstore\n        /* \"#utility.yul\":16370:16981   */\n      pop\n      pop\n      pop\n        /* \"#utility.yul\":16333:17220   */\n    tag_369:\n      pop\n        /* \"#utility.yul\":15923:17226   */\n      pop\n      pop\n      pop\n        /* \"#utility.yul\":15831:17226   */\n      pop\n      pop\n      jump\t// out\n        /* \"#utility.yul\":17232:17398   */\n    tag_195:\n        /* \"#utility.yul\":17372:17390   */\n      0x4e6f7420656e6f7567682066756e647300000000000000000000000000000000\n        /* \"#utility.yul\":17368:17369   */\n      0x00\n        /* \"#utility.yul\":17360:17366   */\n      dup3\n        /* \"#utility.yul\":17356:17370   */\n      add\n        /* \"#utility.yul\":17349:17391   */\n      mstore\n        /* \"#utility.yul\":17232:17398   */\n      pop\n      jump\t// out\n        /* \"#utility.yul\":17404:17770   */\n    tag_196:\n        /* \"#utility.yul\":17546:17549   */\n      0x00\n        /* \"#utility.yul\":17567:17634   */\n      tag_381\n        /* \"#utility.yul\":17631:17633   */\n      0x10\n        /* \"#utility.yul\":17626:17629   */\n      dup4\n        /* \"#utility.yul\":17567:17634   */\n      tag_165\n      jump\t// in\n    tag_381:\n        /* \"#utility.yul\":17560:17634   */\n      swap2\n      pop\n        /* \"#utility.yul\":17643:17736   */\n      tag_382\n        /* \"#utility.yul\":17732:17735   */\n      dup3\n        /* \"#utility.yul\":17643:17736   */\n      tag_195\n      jump\t// in\n    tag_382:\n        /* \"#utility.yul\":17761:17763   */\n      0x20\n        /* \"#utility.yul\":17756:17759   */\n      dup3\n        /* \"#utility.yul\":17752:17764   */\n      add\n        /* \"#utility.yul\":17745:17764   */\n      swap1\n      pop\n        /* \"#utility.yul\":17404:17770   */\n      swap2\n      swap1\n      pop\n      jump\t// out\n        /* \"#utility.yul\":17776:18195   */\n    tag_112:\n        /* \"#utility.yul\":17942:17946   */\n      0x00\n        /* \"#utility.yul\":17980:17982   */\n      0x20\n        /* \"#utility.yul\":17969:17978   */\n      dup3\n        /* \"#utility.yul\":17965:17983   */\n      add\n        /* \"#utility.yul\":17957:17983   */\n      swap1\n      pop\n        /* \"#utility.yul\":18029:18038   */\n      dup2\n        /* \"#utility.yul\":18023:18027   */\n      dup2\n        /* \"#utility.yul\":18019:18039   */\n      sub\n        /* \"#utility.yul\":18015:18016   */\n      0x00\n        /* \"#utility.yul\":18004:18013   */\n      dup4\n        /* \"#utility.yul\":18000:18017   */\n      add\n        /* \"#utility.yul\":17993:18040   */\n      mstore\n        /* \"#utility.yul\":18057:18188   */\n      tag_384\n        /* \"#utility.yul\":18183:18187   */\n      dup2\n        /* \"#utility.yul\":18057:18188   */\n      tag_196\n      jump\t// in\n    tag_384:\n        /* \"#utility.yul\":18049:18188   */\n      swap1\n      pop\n        /* \"#utility.yul\":17776:18195   */\n      swap2\n      swap1\n      pop\n      jump\t// out\n        /* \"#utility.yul\":18201:18371   */\n    tag_197:\n        /* \"#utility.yul\":18341:18363   */\n      0x4e6f2076616c6964206372656469742063617264000000000000000000000000\n        /* \"#utility.yul\":18337:18338   */\n      0x00\n        /* \"#utility.yul\":18329:18335   */\n      dup3\n        /* \"#utility.yul\":18325:18339   */\n      add\n        /* \"#utility.yul\":18318:18364   */\n      mstore\n        /* \"#utility.yul\":18201:18371   */\n      pop\n      jump\t// out\n        /* \"#utility.yul\":18377:18743   */\n    tag_198:\n        /* \"#utility.yul\":18519:18522   */\n      0x00\n        /* \"#utility.yul\":18540:18607   */\n      tag_387\n        /* \"#utility.yul\":18604:18606   */\n      0x14\n        /* \"#utility.yul\":18599:18602   */\n      dup4\n        /* \"#utility.yul\":18540:18607   */\n      tag_165\n      jump\t// in\n    tag_387:\n        /* \"#utility.yul\":18533:18607   */\n      swap2\n      pop\n        /* \"#utility.yul\":18616:18709   */\n      tag_388\n        /* \"#utility.yul\":18705:18708   */\n      dup3\n        /* \"#utility.yul\":18616:18709   */\n      tag_197\n      jump\t// in\n    tag_388:\n        /* \"#utility.yul\":18734:18736   */\n      0x20\n        /* \"#utility.yul\":18729:18732   */\n      dup3\n        /* \"#utility.yul\":18725:18737   */\n      add\n        /* \"#utility.yul\":18718:18737   */\n      swap1\n      pop\n        /* \"#utility.yul\":18377:18743   */\n      swap2\n      swap1\n      pop\n      jump\t// out\n        /* \"#utility.yul\":18749:19168   */\n    tag_123:\n        /* \"#utility.yul\":18915:18919   */\n      0x00\n        /* \"#utility.yul\":18953:18955   */\n      0x20\n        /* \"#utility.yul\":18942:18951   */\n      dup3\n        /* \"#utility.yul\":18938:18956   */\n      add\n        /* \"#utility.yul\":18930:18956   */\n      swap1\n      pop\n        /* \"#utility.yul\":19002:19011   */\n      dup2\n        /* \"#utility.yul\":18996:19000   */\n      dup2\n        /* \"#utility.yul\":18992:19012   */\n      sub\n        /* \"#utility.yul\":18988:18989   */\n      0x00\n        /* \"#utility.yul\":18977:18986   */\n      dup4\n        /* \"#utility.yul\":18973:18990   */\n      add\n        /* \"#utility.yul\":18966:19013   */\n      mstore\n        /* \"#utility.yul\":19030:19161   */\n      tag_390\n        /* \"#utility.yul\":19156:19160   */\n      dup2\n        /* \"#utility.yul\":19030:19161   */\n      tag_198\n      jump\t// in\n    tag_390:\n        /* \"#utility.yul\":19022:19161   */\n      swap1\n      pop\n        /* \"#utility.yul\":18749:19168   */\n      swap2\n      swap1\n      pop\n      jump\t// out\n\n    auxdata: 0xa26469706673582212209d36f5511eb8b0f3e9426194af5b26ccf49b10c7e18f5302ee4014aaf6a0790a64736f6c634300080f0033\n}\n",
				"bytecode": {
					"linkReferences": {},
					"object": "6080604052620151806003556000600f556000601060006101000a81548160ff0219169083151502179055503480156200003857600080fd5b506040516200148d3803806200148d83398181016040528101906200005e9190620000ac565b8060018190555050620000de565b600080fd5b6000819050919050565b620000868162000071565b81146200009257600080fd5b50565b600081519050620000a6816200007b565b92915050565b600060208284031215620000c557620000c46200006c565b5b6000620000d58482850162000095565b91505092915050565b61139f80620000ee6000396000f3fe608060405234801561001057600080fd5b50600436106101005760003560e01c80637b9a3f4c1161009757806394b5dcaa1161006657806394b5dcaa14610255578063aa8c217c14610273578063bc30949614610291578063e21f37ce146102af57610100565b80637b9a3f4c146101f15780637eb9f5711461020f5780638e029c0b1461022d5780638fa118641461023757610100565b80633c626f00116100d35780633c626f001461017957806342fb7936146101975780634b28f9a2146101b5578063557ed1ba146101d357610100565b8063062a7544146101055780630e85fa721461012157806312a029a41461013f57806334f5ccde1461015b575b600080fd5b61011f600480360381019061011a91906109d6565b6102cd565b005b61012961066b565b6040516101369190610a25565b60405180910390f35b61015960048036038101906101549190610b86565b610671565b005b610163610722565b6040516101709190610a25565b60405180910390f35b610181610728565b60405161018e9190610c19565b60405180910390f35b61019f61073b565b6040516101ac9190610cbc565b60405180910390f35b6101bd6107c9565b6040516101ca9190610a25565b60405180910390f35b6101db6107cf565b6040516101e89190610a25565b60405180910390f35b6101f96107d7565b6040516102069190610a25565b60405180910390f35b6102176107dd565b6040516102249190610a25565b60405180910390f35b6102356107e3565b005b61023f610800565b60405161024c9190610cbc565b60405180910390f35b61025d61088e565b60405161026a9190610a25565b60405180910390f35b61027b610894565b6040516102889190610a25565b60405180910390f35b61029961089a565b6040516102a69190610a25565b60405180910390f35b6102b76108a0565b6040516102c49190610cbc565b60405180910390f35b8080600260006101000a81548173ffffffffffffffffffffffffffffffffffffffff021916908373ffffffffffffffffffffffffffffffffffffffff160217905550600073ffffffffffffffffffffffffffffffffffffffff168173ffffffffffffffffffffffffffffffffffffffff160361037e576040517f08c379a000000000000000000000000000000000000000000000000000000000815260040161037590610d2a565b60405180910390fd5b60001515601060009054906101000a900460ff161515036103d4576040517f08c379a00000000000000000000000000000000000000000000000000000000081526004016103cb90610d96565b60405180910390fd5b6109c4600c54111561041b576040517f08c379a000000000000000000000000000000000000000000000000000000000815260040161041290610e02565b60405180910390fd5b6109c4600c541015801561043d5750601e600d546104399190610e51565b4211155b15610485576000600c819055506040517f08c379a000000000000000000000000000000000000000000000000000000000815260040161047c90610ef3565b60405180910390fd5b6109c4600c54116104f9576005600f541180156104b05750601e600d546104ac9190610e51565b4211155b156104f8576000600f819055506040517f08c379a00000000000000000000000000000000000000000000000000000000081526004016104ef90610f5f565b60405180910390fd5b5b6005600f541115801561051a5750601e600d546105169190610e51565b4210155b1561052f576000600f8190555042600d819055505b81600260006101000a81548173ffffffffffffffffffffffffffffffffffffffff021916908373ffffffffffffffffffffffffffffffffffffffff160217905550826000819055506001600f600082825461058a9190610e51565b9250508190555060006001541180156105a65750600054600154115b1561062b57600054600160008282546105bf9190610f7f565b92505081905550600054600c60008282546105da9190610e51565b925050819055506040518060400160405280601281526020017f5472616e7366657220636f6d706c6574656400000000000000000000000000008152506009908161062591906111bf565b50610666565b6040517f08c379a000000000000000000000000000000000000000000000000000000000815260040161065d906112dd565b60405180910390fd5b505050565b600d5481565b81600a908161068091906111bf565b5080600b908161069091906111bf565b506001601060006101000a81548160ff02191690831515021790555042600d819055506008600a80546106c290610fe2565b90501480156106df57506003600b80546106db90610fe2565b9050145b61071e576040517f08c379a000000000000000000000000000000000000000000000000000000000815260040161071590611349565b60405180910390fd5b5050565b600e5481565b601060009054906101000a900460ff1681565b600b805461074890610fe2565b80601f016020809104026020016040519081016040528092919081815260200182805461077490610fe2565b80156107c15780601f10610796576101008083540402835291602001916107c1565b820191906000526020600020905b8154815290600101906020018083116107a457829003601f168201915b505050505081565b600f5481565b600042905090565b60015481565b600c5481565b6000601060006101000a81548160ff021916908315150217905550565b600a805461080d90610fe2565b80601f016020809104026020016040519081016040528092919081815260200182805461083990610fe2565b80156108865780601f1061085b57610100808354040283529160200191610886565b820191906000526020600020905b81548152906001019060200180831161086957829003601f168201915b505050505081565b60045481565b60005481565b60085481565b600980546108ad90610fe2565b80601f01602080910402602001604051908101604052809291908181526020018280546108d990610fe2565b80156109265780601f106108fb57610100808354040283529160200191610926565b820191906000526020600020905b81548152906001019060200180831161090957829003601f168201915b505050505081565b6000604051905090565b600080fd5b600080fd5b6000819050919050565b61095581610942565b811461096057600080fd5b50565b6000813590506109728161094c565b92915050565b600073ffffffffffffffffffffffffffffffffffffffff82169050919050565b60006109a382610978565b9050919050565b6109b381610998565b81146109be57600080fd5b50565b6000813590506109d0816109aa565b92915050565b600080604083850312156109ed576109ec610938565b5b60006109fb85828601610963565b9250506020610a0c858286016109c1565b9150509250929050565b610a1f81610942565b82525050565b6000602082019050610a3a6000830184610a16565b92915050565b600080fd5b600080fd5b6000601f19601f8301169050919050565b7f4e487b7100000000000000000000000000000000000000000000000000000000600052604160045260246000fd5b610a9382610a4a565b810181811067ffffffffffffffff82111715610ab257610ab1610a5b565b5b80604052505050565b6000610ac561092e565b9050610ad18282610a8a565b919050565b600067ffffffffffffffff821115610af157610af0610a5b565b5b610afa82610a4a565b9050602081019050919050565b82818337600083830152505050565b6000610b29610b2484610ad6565b610abb565b905082815260208101848484011115610b4557610b44610a45565b5b610b50848285610b07565b509392505050565b600082601f830112610b6d57610b6c610a40565b5b8135610b7d848260208601610b16565b91505092915050565b60008060408385031215610b9d57610b9c610938565b5b600083013567ffffffffffffffff811115610bbb57610bba61093d565b5b610bc785828601610b58565b925050602083013567ffffffffffffffff811115610be857610be761093d565b5b610bf485828601610b58565b9150509250929050565b60008115159050919050565b610c1381610bfe565b82525050565b6000602082019050610c2e6000830184610c0a565b92915050565b600081519050919050565b600082825260208201905092915050565b60005b83811015610c6e578082015181840152602081019050610c53565b83811115610c7d576000848401525b50505050565b6000610c8e82610c34565b610c988185610c3f565b9350610ca8818560208601610c50565b610cb181610a4a565b840191505092915050565b60006020820190508181036000830152610cd68184610c83565b905092915050565b7f2054686973206164647265737320646f65736e27742065786973747300000000600082015250565b6000610d14601c83610c3f565b9150610d1f82610cde565b602082019050919050565b60006020820190508181036000830152610d4381610d07565b9050919050565b7f506c6561736520696e7365727420796f75722063617264000000000000000000600082015250565b6000610d80601783610c3f565b9150610d8b82610d4a565b602082019050919050565b60006020820190508181036000830152610daf81610d73565b9050919050565b7f596f75207265616368656420746865206c696d69740000000000000000000000600082015250565b6000610dec601583610c3f565b9150610df782610db6565b602082019050919050565b60006020820190508181036000830152610e1b81610ddf565b9050919050565b7f4e487b7100000000000000000000000000000000000000000000000000000000600052601160045260246000fd5b6000610e5c82610942565b9150610e6783610942565b9250827fffffffffffffffffffffffffffffffffffffffffffffffffffffffffffffffff03821115610e9c57610e9b610e22565b5b828201905092915050565b7f596f75207265616368656420746865206c696d69742070657220646179000000600082015250565b6000610edd601d83610c3f565b9150610ee882610ea7565b602082019050919050565b60006020820190508181036000830152610f0c81610ed0565b9050919050565b7f6f6e6c792035207472616e73616374696f6e7320706572206461790000000000600082015250565b6000610f49601b83610c3f565b9150610f5482610f13565b602082019050919050565b60006020820190508181036000830152610f7881610f3c565b9050919050565b6000610f8a82610942565b9150610f9583610942565b925082821015610fa857610fa7610e22565b5b828203905092915050565b7f4e487b7100000000000000000000000000000000000000000000000000000000600052602260045260246000fd5b60006002820490506001821680610ffa57607f821691505b60208210810361100d5761100c610fb3565b5b50919050565b60008190508160005260206000209050919050565b60006020601f8301049050919050565b600082821b905092915050565b6000600883026110757fffffffffffffffffffffffffffffffffffffffffffffffffffffffffffffffff82611038565b61107f8683611038565b95508019841693508086168417925050509392505050565b6000819050919050565b60006110bc6110b76110b284610942565b611097565b610942565b9050919050565b6000819050919050565b6110d6836110a1565b6110ea6110e2826110c3565b848454611045565b825550505050565b600090565b6110ff6110f2565b61110a8184846110cd565b505050565b5b8181101561112e576111236000826110f7565b600181019050611110565b5050565b601f8211156111735761114481611013565b61114d84611028565b8101602085101561115c578190505b61117061116885611028565b83018261110f565b50505b505050565b600082821c905092915050565b600061119660001984600802611178565b1980831691505092915050565b60006111af8383611185565b9150826002028217905092915050565b6111c882610c34565b67ffffffffffffffff8111156111e1576111e0610a5b565b5b6111eb8254610fe2565b6111f6828285611132565b600060209050601f8311600181146112295760008415611217578287015190505b61122185826111a3565b865550611289565b601f19841661123786611013565b60005b8281101561125f5784890151825560018201915060208501945060208101905061123a565b8683101561127c5784890151611278601f891682611185565b8355505b6001600288020188555050505b505050505050565b7f4e6f7420656e6f7567682066756e647300000000000000000000000000000000600082015250565b60006112c7601083610c3f565b91506112d282611291565b602082019050919050565b600060208201905081810360008301526112f6816112ba565b9050919050565b7f4e6f2076616c6964206372656469742063617264000000000000000000000000600082015250565b6000611333601483610c3f565b915061133e826112fd565b602082019050919050565b6000602082019050818103600083015261136281611326565b905091905056fea26469706673582212209d36f5511eb8b0f3e9426194af5b26ccf49b10c7e18f5302ee4014aaf6a0790a64736f6c634300080f0033",
					"opcodes": "PUSH1 0x80 PUSH1 0x40 MSTORE PUSH3 0x15180 PUSH1 0x3 SSTORE PUSH1 0x0 PUSH1 0xF SSTORE PUSH1 0x0 PUSH1 0x10 PUSH1 0x0 PUSH2 0x100 EXP DUP2 SLOAD DUP2 PUSH1 0xFF MUL NOT AND SWAP1 DUP4 ISZERO ISZERO MUL OR SWAP1 SSTORE POP CALLVALUE DUP1 ISZERO PUSH3 0x38 JUMPI PUSH1 0x0 DUP1 REVERT JUMPDEST POP PUSH1 0x40 MLOAD PUSH3 0x148D CODESIZE SUB DUP1 PUSH3 0x148D DUP4 CODECOPY DUP2 DUP2 ADD PUSH1 0x40 MSTORE DUP2 ADD SWAP1 PUSH3 0x5E SWAP2 SWAP1 PUSH3 0xAC JUMP JUMPDEST DUP1 PUSH1 0x1 DUP2 SWAP1 SSTORE POP POP PUSH3 0xDE JUMP JUMPDEST PUSH1 0x0 DUP1 REVERT JUMPDEST PUSH1 0x0 DUP2 SWAP1 POP SWAP2 SWAP1 POP JUMP JUMPDEST PUSH3 0x86 DUP2 PUSH3 0x71 JUMP JUMPDEST DUP2 EQ PUSH3 0x92 JUMPI PUSH1 0x0 DUP1 REVERT JUMPDEST POP JUMP JUMPDEST PUSH1 0x0 DUP2 MLOAD SWAP1 POP PUSH3 0xA6 DUP2 PUSH3 0x7B JUMP JUMPDEST SWAP3 SWAP2 POP POP JUMP JUMPDEST PUSH1 0x0 PUSH1 0x20 DUP3 DUP5 SUB SLT ISZERO PUSH3 0xC5 JUMPI PUSH3 0xC4 PUSH3 0x6C JUMP JUMPDEST JUMPDEST PUSH1 0x0 PUSH3 0xD5 DUP5 DUP3 DUP6 ADD PUSH3 0x95 JUMP JUMPDEST SWAP2 POP POP SWAP3 SWAP2 POP POP JUMP JUMPDEST PUSH2 0x139F DUP1 PUSH3 0xEE PUSH1 0x0 CODECOPY PUSH1 0x0 RETURN INVALID PUSH1 0x80 PUSH1 0x40 MSTORE CALLVALUE DUP1 ISZERO PUSH2 0x10 JUMPI PUSH1 0x0 DUP1 REVERT JUMPDEST POP PUSH1 0x4 CALLDATASIZE LT PUSH2 0x100 JUMPI PUSH1 0x0 CALLDATALOAD PUSH1 0xE0 SHR DUP1 PUSH4 0x7B9A3F4C GT PUSH2 0x97 JUMPI DUP1 PUSH4 0x94B5DCAA GT PUSH2 0x66 JUMPI DUP1 PUSH4 0x94B5DCAA EQ PUSH2 0x255 JUMPI DUP1 PUSH4 0xAA8C217C EQ PUSH2 0x273 JUMPI DUP1 PUSH4 0xBC309496 EQ PUSH2 0x291 JUMPI DUP1 PUSH4 0xE21F37CE EQ PUSH2 0x2AF JUMPI PUSH2 0x100 JUMP JUMPDEST DUP1 PUSH4 0x7B9A3F4C EQ PUSH2 0x1F1 JUMPI DUP1 PUSH4 0x7EB9F571 EQ PUSH2 0x20F JUMPI DUP1 PUSH4 0x8E029C0B EQ PUSH2 0x22D JUMPI DUP1 PUSH4 0x8FA11864 EQ PUSH2 0x237 JUMPI PUSH2 0x100 JUMP JUMPDEST DUP1 PUSH4 0x3C626F00 GT PUSH2 0xD3 JUMPI DUP1 PUSH4 0x3C626F00 EQ PUSH2 0x179 JUMPI DUP1 PUSH4 0x42FB7936 EQ PUSH2 0x197 JUMPI DUP1 PUSH4 0x4B28F9A2 EQ PUSH2 0x1B5 JUMPI DUP1 PUSH4 0x557ED1BA EQ PUSH2 0x1D3 JUMPI PUSH2 0x100 JUMP JUMPDEST DUP1 PUSH4 0x62A7544 EQ PUSH2 0x105 JUMPI DUP1 PUSH4 0xE85FA72 EQ PUSH2 0x121 JUMPI DUP1 PUSH4 0x12A029A4 EQ PUSH2 0x13F JUMPI DUP1 PUSH4 0x34F5CCDE EQ PUSH2 0x15B JUMPI JUMPDEST PUSH1 0x0 DUP1 REVERT JUMPDEST PUSH2 0x11F PUSH1 0x4 DUP1 CALLDATASIZE SUB DUP2 ADD SWAP1 PUSH2 0x11A SWAP2 SWAP1 PUSH2 0x9D6 JUMP JUMPDEST PUSH2 0x2CD JUMP JUMPDEST STOP JUMPDEST PUSH2 0x129 PUSH2 0x66B JUMP JUMPDEST PUSH1 0x40 MLOAD PUSH2 0x136 SWAP2 SWAP1 PUSH2 0xA25 JUMP JUMPDEST PUSH1 0x40 MLOAD DUP1 SWAP2 SUB SWAP1 RETURN JUMPDEST PUSH2 0x159 PUSH1 0x4 DUP1 CALLDATASIZE SUB DUP2 ADD SWAP1 PUSH2 0x154 SWAP2 SWAP1 PUSH2 0xB86 JUMP JUMPDEST PUSH2 0x671 JUMP JUMPDEST STOP JUMPDEST PUSH2 0x163 PUSH2 0x722 JUMP JUMPDEST PUSH1 0x40 MLOAD PUSH2 0x170 SWAP2 SWAP1 PUSH2 0xA25 JUMP JUMPDEST PUSH1 0x40 MLOAD DUP1 SWAP2 SUB SWAP1 RETURN JUMPDEST PUSH2 0x181 PUSH2 0x728 JUMP JUMPDEST PUSH1 0x40 MLOAD PUSH2 0x18E SWAP2 SWAP1 PUSH2 0xC19 JUMP JUMPDEST PUSH1 0x40 MLOAD DUP1 SWAP2 SUB SWAP1 RETURN JUMPDEST PUSH2 0x19F PUSH2 0x73B JUMP JUMPDEST PUSH1 0x40 MLOAD PUSH2 0x1AC SWAP2 SWAP1 PUSH2 0xCBC JUMP JUMPDEST PUSH1 0x40 MLOAD DUP1 SWAP2 SUB SWAP1 RETURN JUMPDEST PUSH2 0x1BD PUSH2 0x7C9 JUMP JUMPDEST PUSH1 0x40 MLOAD PUSH2 0x1CA SWAP2 SWAP1 PUSH2 0xA25 JUMP JUMPDEST PUSH1 0x40 MLOAD DUP1 SWAP2 SUB SWAP1 RETURN JUMPDEST PUSH2 0x1DB PUSH2 0x7CF JUMP JUMPDEST PUSH1 0x40 MLOAD PUSH2 0x1E8 SWAP2 SWAP1 PUSH2 0xA25 JUMP JUMPDEST PUSH1 0x40 MLOAD DUP1 SWAP2 SUB SWAP1 RETURN JUMPDEST PUSH2 0x1F9 PUSH2 0x7D7 JUMP JUMPDEST PUSH1 0x40 MLOAD PUSH2 0x206 SWAP2 SWAP1 PUSH2 0xA25 JUMP JUMPDEST PUSH1 0x40 MLOAD DUP1 SWAP2 SUB SWAP1 RETURN JUMPDEST PUSH2 0x217 PUSH2 0x7DD JUMP JUMPDEST PUSH1 0x40 MLOAD PUSH2 0x224 SWAP2 SWAP1 PUSH2 0xA25 JUMP JUMPDEST PUSH1 0x40 MLOAD DUP1 SWAP2 SUB SWAP1 RETURN JUMPDEST PUSH2 0x235 PUSH2 0x7E3 JUMP JUMPDEST STOP JUMPDEST PUSH2 0x23F PUSH2 0x800 JUMP JUMPDEST PUSH1 0x40 MLOAD PUSH2 0x24C SWAP2 SWAP1 PUSH2 0xCBC JUMP JUMPDEST PUSH1 0x40 MLOAD DUP1 SWAP2 SUB SWAP1 RETURN JUMPDEST PUSH2 0x25D PUSH2 0x88E JUMP JUMPDEST PUSH1 0x40 MLOAD PUSH2 0x26A SWAP2 SWAP1 PUSH2 0xA25 JUMP JUMPDEST PUSH1 0x40 MLOAD DUP1 SWAP2 SUB SWAP1 RETURN JUMPDEST PUSH2 0x27B PUSH2 0x894 JUMP JUMPDEST PUSH1 0x40 MLOAD PUSH2 0x288 SWAP2 SWAP1 PUSH2 0xA25 JUMP JUMPDEST PUSH1 0x40 MLOAD DUP1 SWAP2 SUB SWAP1 RETURN JUMPDEST PUSH2 0x299 PUSH2 0x89A JUMP JUMPDEST PUSH1 0x40 MLOAD PUSH2 0x2A6 SWAP2 SWAP1 PUSH2 0xA25 JUMP JUMPDEST PUSH1 0x40 MLOAD DUP1 SWAP2 SUB SWAP1 RETURN JUMPDEST PUSH2 0x2B7 PUSH2 0x8A0 JUMP JUMPDEST PUSH1 0x40 MLOAD PUSH2 0x2C4 SWAP2 SWAP1 PUSH2 0xCBC JUMP JUMPDEST PUSH1 0x40 MLOAD DUP1 SWAP2 SUB SWAP1 RETURN JUMPDEST DUP1 DUP1 PUSH1 0x2 PUSH1 0x0 PUSH2 0x100 EXP DUP2 SLOAD DUP2 PUSH20 0xFFFFFFFFFFFFFFFFFFFFFFFFFFFFFFFFFFFFFFFF MUL NOT AND SWAP1 DUP4 PUSH20 0xFFFFFFFFFFFFFFFFFFFFFFFFFFFFFFFFFFFFFFFF AND MUL OR SWAP1 SSTORE POP PUSH1 0x0 PUSH20 0xFFFFFFFFFFFFFFFFFFFFFFFFFFFFFFFFFFFFFFFF AND DUP2 PUSH20 0xFFFFFFFFFFFFFFFFFFFFFFFFFFFFFFFFFFFFFFFF AND SUB PUSH2 0x37E JUMPI PUSH1 0x40 MLOAD PUSH32 0x8C379A000000000000000000000000000000000000000000000000000000000 DUP2 MSTORE PUSH1 0x4 ADD PUSH2 0x375 SWAP1 PUSH2 0xD2A JUMP JUMPDEST PUSH1 0x40 MLOAD DUP1 SWAP2 SUB SWAP1 REVERT JUMPDEST PUSH1 0x0 ISZERO ISZERO PUSH1 0x10 PUSH1 0x0 SWAP1 SLOAD SWAP1 PUSH2 0x100 EXP SWAP1 DIV PUSH1 0xFF AND ISZERO ISZERO SUB PUSH2 0x3D4 JUMPI PUSH1 0x40 MLOAD PUSH32 0x8C379A000000000000000000000000000000000000000000000000000000000 DUP2 MSTORE PUSH1 0x4 ADD PUSH2 0x3CB SWAP1 PUSH2 0xD96 JUMP JUMPDEST PUSH1 0x40 MLOAD DUP1 SWAP2 SUB SWAP1 REVERT JUMPDEST PUSH2 0x9C4 PUSH1 0xC SLOAD GT ISZERO PUSH2 0x41B JUMPI PUSH1 0x40 MLOAD PUSH32 0x8C379A000000000000000000000000000000000000000000000000000000000 DUP2 MSTORE PUSH1 0x4 ADD PUSH2 0x412 SWAP1 PUSH2 0xE02 JUMP JUMPDEST PUSH1 0x40 MLOAD DUP1 SWAP2 SUB SWAP1 REVERT JUMPDEST PUSH2 0x9C4 PUSH1 0xC SLOAD LT ISZERO DUP1 ISZERO PUSH2 0x43D JUMPI POP PUSH1 0x1E PUSH1 0xD SLOAD PUSH2 0x439 SWAP2 SWAP1 PUSH2 0xE51 JUMP JUMPDEST TIMESTAMP GT ISZERO JUMPDEST ISZERO PUSH2 0x485 JUMPI PUSH1 0x0 PUSH1 0xC DUP2 SWAP1 SSTORE POP PUSH1 0x40 MLOAD PUSH32 0x8C379A000000000000000000000000000000000000000000000000000000000 DUP2 MSTORE PUSH1 0x4 ADD PUSH2 0x47C SWAP1 PUSH2 0xEF3 JUMP JUMPDEST PUSH1 0x40 MLOAD DUP1 SWAP2 SUB SWAP1 REVERT JUMPDEST PUSH2 0x9C4 PUSH1 0xC SLOAD GT PUSH2 0x4F9 JUMPI PUSH1 0x5 PUSH1 0xF SLOAD GT DUP1 ISZERO PUSH2 0x4B0 JUMPI POP PUSH1 0x1E PUSH1 0xD SLOAD PUSH2 0x4AC SWAP2 SWAP1 PUSH2 0xE51 JUMP JUMPDEST TIMESTAMP GT ISZERO JUMPDEST ISZERO PUSH2 0x4F8 JUMPI PUSH1 0x0 PUSH1 0xF DUP2 SWAP1 SSTORE POP PUSH1 0x40 MLOAD PUSH32 0x8C379A000000000000000000000000000000000000000000000000000000000 DUP2 MSTORE PUSH1 0x4 ADD PUSH2 0x4EF SWAP1 PUSH2 0xF5F JUMP JUMPDEST PUSH1 0x40 MLOAD DUP1 SWAP2 SUB SWAP1 REVERT JUMPDEST JUMPDEST PUSH1 0x5 PUSH1 0xF SLOAD GT ISZERO DUP1 ISZERO PUSH2 0x51A JUMPI POP PUSH1 0x1E PUSH1 0xD SLOAD PUSH2 0x516 SWAP2 SWAP1 PUSH2 0xE51 JUMP JUMPDEST TIMESTAMP LT ISZERO JUMPDEST ISZERO PUSH2 0x52F JUMPI PUSH1 0x0 PUSH1 0xF DUP2 SWAP1 SSTORE POP TIMESTAMP PUSH1 0xD DUP2 SWAP1 SSTORE POP JUMPDEST DUP2 PUSH1 0x2 PUSH1 0x0 PUSH2 0x100 EXP DUP2 SLOAD DUP2 PUSH20 0xFFFFFFFFFFFFFFFFFFFFFFFFFFFFFFFFFFFFFFFF MUL NOT AND SWAP1 DUP4 PUSH20 0xFFFFFFFFFFFFFFFFFFFFFFFFFFFFFFFFFFFFFFFF AND MUL OR SWAP1 SSTORE POP DUP3 PUSH1 0x0 DUP2 SWAP1 SSTORE POP PUSH1 0x1 PUSH1 0xF PUSH1 0x0 DUP3 DUP3 SLOAD PUSH2 0x58A SWAP2 SWAP1 PUSH2 0xE51 JUMP JUMPDEST SWAP3 POP POP DUP2 SWAP1 SSTORE POP PUSH1 0x0 PUSH1 0x1 SLOAD GT DUP1 ISZERO PUSH2 0x5A6 JUMPI POP PUSH1 0x0 SLOAD PUSH1 0x1 SLOAD GT JUMPDEST ISZERO PUSH2 0x62B JUMPI PUSH1 0x0 SLOAD PUSH1 0x1 PUSH1 0x0 DUP3 DUP3 SLOAD PUSH2 0x5BF SWAP2 SWAP1 PUSH2 0xF7F JUMP JUMPDEST SWAP3 POP POP DUP2 SWAP1 SSTORE POP PUSH1 0x0 SLOAD PUSH1 0xC PUSH1 0x0 DUP3 DUP3 SLOAD PUSH2 0x5DA SWAP2 SWAP1 PUSH2 0xE51 JUMP JUMPDEST SWAP3 POP POP DUP2 SWAP1 SSTORE POP PUSH1 0x40 MLOAD DUP1 PUSH1 0x40 ADD PUSH1 0x40 MSTORE DUP1 PUSH1 0x12 DUP2 MSTORE PUSH1 0x20 ADD PUSH32 0x5472616E7366657220636F6D706C657465640000000000000000000000000000 DUP2 MSTORE POP PUSH1 0x9 SWAP1 DUP2 PUSH2 0x625 SWAP2 SWAP1 PUSH2 0x11BF JUMP JUMPDEST POP PUSH2 0x666 JUMP JUMPDEST PUSH1 0x40 MLOAD PUSH32 0x8C379A000000000000000000000000000000000000000000000000000000000 DUP2 MSTORE PUSH1 0x4 ADD PUSH2 0x65D SWAP1 PUSH2 0x12DD JUMP JUMPDEST PUSH1 0x40 MLOAD DUP1 SWAP2 SUB SWAP1 REVERT JUMPDEST POP POP POP JUMP JUMPDEST PUSH1 0xD SLOAD DUP2 JUMP JUMPDEST DUP2 PUSH1 0xA SWAP1 DUP2 PUSH2 0x680 SWAP2 SWAP1 PUSH2 0x11BF JUMP JUMPDEST POP DUP1 PUSH1 0xB SWAP1 DUP2 PUSH2 0x690 SWAP2 SWAP1 PUSH2 0x11BF JUMP JUMPDEST POP PUSH1 0x1 PUSH1 0x10 PUSH1 0x0 PUSH2 0x100 EXP DUP2 SLOAD DUP2 PUSH1 0xFF MUL NOT AND SWAP1 DUP4 ISZERO ISZERO MUL OR SWAP1 SSTORE POP TIMESTAMP PUSH1 0xD DUP2 SWAP1 SSTORE POP PUSH1 0x8 PUSH1 0xA DUP1 SLOAD PUSH2 0x6C2 SWAP1 PUSH2 0xFE2 JUMP JUMPDEST SWAP1 POP EQ DUP1 ISZERO PUSH2 0x6DF JUMPI POP PUSH1 0x3 PUSH1 0xB DUP1 SLOAD PUSH2 0x6DB SWAP1 PUSH2 0xFE2 JUMP JUMPDEST SWAP1 POP EQ JUMPDEST PUSH2 0x71E JUMPI PUSH1 0x40 MLOAD PUSH32 0x8C379A000000000000000000000000000000000000000000000000000000000 DUP2 MSTORE PUSH1 0x4 ADD PUSH2 0x715 SWAP1 PUSH2 0x1349 JUMP JUMPDEST PUSH1 0x40 MLOAD DUP1 SWAP2 SUB SWAP1 REVERT JUMPDEST POP POP JUMP JUMPDEST PUSH1 0xE SLOAD DUP2 JUMP JUMPDEST PUSH1 0x10 PUSH1 0x0 SWAP1 SLOAD SWAP1 PUSH2 0x100 EXP SWAP1 DIV PUSH1 0xFF AND DUP2 JUMP JUMPDEST PUSH1 0xB DUP1 SLOAD PUSH2 0x748 SWAP1 PUSH2 0xFE2 JUMP JUMPDEST DUP1 PUSH1 0x1F ADD PUSH1 0x20 DUP1 SWAP2 DIV MUL PUSH1 0x20 ADD PUSH1 0x40 MLOAD SWAP1 DUP2 ADD PUSH1 0x40 MSTORE DUP1 SWAP3 SWAP2 SWAP1 DUP2 DUP2 MSTORE PUSH1 0x20 ADD DUP3 DUP1 SLOAD PUSH2 0x774 SWAP1 PUSH2 0xFE2 JUMP JUMPDEST DUP1 ISZERO PUSH2 0x7C1 JUMPI DUP1 PUSH1 0x1F LT PUSH2 0x796 JUMPI PUSH2 0x100 DUP1 DUP4 SLOAD DIV MUL DUP4 MSTORE SWAP2 PUSH1 0x20 ADD SWAP2 PUSH2 0x7C1 JUMP JUMPDEST DUP3 ADD SWAP2 SWAP1 PUSH1 0x0 MSTORE PUSH1 0x20 PUSH1 0x0 KECCAK256 SWAP1 JUMPDEST DUP2 SLOAD DUP2 MSTORE SWAP1 PUSH1 0x1 ADD SWAP1 PUSH1 0x20 ADD DUP1 DUP4 GT PUSH2 0x7A4 JUMPI DUP3 SWAP1 SUB PUSH1 0x1F AND DUP3 ADD SWAP2 JUMPDEST POP POP POP POP POP DUP2 JUMP JUMPDEST PUSH1 0xF SLOAD DUP2 JUMP JUMPDEST PUSH1 0x0 TIMESTAMP SWAP1 POP SWAP1 JUMP JUMPDEST PUSH1 0x1 SLOAD DUP2 JUMP JUMPDEST PUSH1 0xC SLOAD DUP2 JUMP JUMPDEST PUSH1 0x0 PUSH1 0x10 PUSH1 0x0 PUSH2 0x100 EXP DUP2 SLOAD DUP2 PUSH1 0xFF MUL NOT AND SWAP1 DUP4 ISZERO ISZERO MUL OR SWAP1 SSTORE POP JUMP JUMPDEST PUSH1 0xA DUP1 SLOAD PUSH2 0x80D SWAP1 PUSH2 0xFE2 JUMP JUMPDEST DUP1 PUSH1 0x1F ADD PUSH1 0x20 DUP1 SWAP2 DIV MUL PUSH1 0x20 ADD PUSH1 0x40 MLOAD SWAP1 DUP2 ADD PUSH1 0x40 MSTORE DUP1 SWAP3 SWAP2 SWAP1 DUP2 DUP2 MSTORE PUSH1 0x20 ADD DUP3 DUP1 SLOAD PUSH2 0x839 SWAP1 PUSH2 0xFE2 JUMP JUMPDEST DUP1 ISZERO PUSH2 0x886 JUMPI DUP1 PUSH1 0x1F LT PUSH2 0x85B JUMPI PUSH2 0x100 DUP1 DUP4 SLOAD DIV MUL DUP4 MSTORE SWAP2 PUSH1 0x20 ADD SWAP2 PUSH2 0x886 JUMP JUMPDEST DUP3 ADD SWAP2 SWAP1 PUSH1 0x0 MSTORE PUSH1 0x20 PUSH1 0x0 KECCAK256 SWAP1 JUMPDEST DUP2 SLOAD DUP2 MSTORE SWAP1 PUSH1 0x1 ADD SWAP1 PUSH1 0x20 ADD DUP1 DUP4 GT PUSH2 0x869 JUMPI DUP3 SWAP1 SUB PUSH1 0x1F AND DUP3 ADD SWAP2 JUMPDEST POP POP POP POP POP DUP2 JUMP JUMPDEST PUSH1 0x4 SLOAD DUP2 JUMP JUMPDEST PUSH1 0x0 SLOAD DUP2 JUMP JUMPDEST PUSH1 0x8 SLOAD DUP2 JUMP JUMPDEST PUSH1 0x9 DUP1 SLOAD PUSH2 0x8AD SWAP1 PUSH2 0xFE2 JUMP JUMPDEST DUP1 PUSH1 0x1F ADD PUSH1 0x20 DUP1 SWAP2 DIV MUL PUSH1 0x20 ADD PUSH1 0x40 MLOAD SWAP1 DUP2 ADD PUSH1 0x40 MSTORE DUP1 SWAP3 SWAP2 SWAP1 DUP2 DUP2 MSTORE PUSH1 0x20 ADD DUP3 DUP1 SLOAD PUSH2 0x8D9 SWAP1 PUSH2 0xFE2 JUMP JUMPDEST DUP1 ISZERO PUSH2 0x926 JUMPI DUP1 PUSH1 0x1F LT PUSH2 0x8FB JUMPI PUSH2 0x100 DUP1 DUP4 SLOAD DIV MUL DUP4 MSTORE SWAP2 PUSH1 0x20 ADD SWAP2 PUSH2 0x926 JUMP JUMPDEST DUP3 ADD SWAP2 SWAP1 PUSH1 0x0 MSTORE PUSH1 0x20 PUSH1 0x0 KECCAK256 SWAP1 JUMPDEST DUP2 SLOAD DUP2 MSTORE SWAP1 PUSH1 0x1 ADD SWAP1 PUSH1 0x20 ADD DUP1 DUP4 GT PUSH2 0x909 JUMPI DUP3 SWAP1 SUB PUSH1 0x1F AND DUP3 ADD SWAP2 JUMPDEST POP POP POP POP POP DUP2 JUMP JUMPDEST PUSH1 0x0 PUSH1 0x40 MLOAD SWAP1 POP SWAP1 JUMP JUMPDEST PUSH1 0x0 DUP1 REVERT JUMPDEST PUSH1 0x0 DUP1 REVERT JUMPDEST PUSH1 0x0 DUP2 SWAP1 POP SWAP2 SWAP1 POP JUMP JUMPDEST PUSH2 0x955 DUP2 PUSH2 0x942 JUMP JUMPDEST DUP2 EQ PUSH2 0x960 JUMPI PUSH1 0x0 DUP1 REVERT JUMPDEST POP JUMP JUMPDEST PUSH1 0x0 DUP2 CALLDATALOAD SWAP1 POP PUSH2 0x972 DUP2 PUSH2 0x94C JUMP JUMPDEST SWAP3 SWAP2 POP POP JUMP JUMPDEST PUSH1 0x0 PUSH20 0xFFFFFFFFFFFFFFFFFFFFFFFFFFFFFFFFFFFFFFFF DUP3 AND SWAP1 POP SWAP2 SWAP1 POP JUMP JUMPDEST PUSH1 0x0 PUSH2 0x9A3 DUP3 PUSH2 0x978 JUMP JUMPDEST SWAP1 POP SWAP2 SWAP1 POP JUMP JUMPDEST PUSH2 0x9B3 DUP2 PUSH2 0x998 JUMP JUMPDEST DUP2 EQ PUSH2 0x9BE JUMPI PUSH1 0x0 DUP1 REVERT JUMPDEST POP JUMP JUMPDEST PUSH1 0x0 DUP2 CALLDATALOAD SWAP1 POP PUSH2 0x9D0 DUP2 PUSH2 0x9AA JUMP JUMPDEST SWAP3 SWAP2 POP POP JUMP JUMPDEST PUSH1 0x0 DUP1 PUSH1 0x40 DUP4 DUP6 SUB SLT ISZERO PUSH2 0x9ED JUMPI PUSH2 0x9EC PUSH2 0x938 JUMP JUMPDEST JUMPDEST PUSH1 0x0 PUSH2 0x9FB DUP6 DUP3 DUP7 ADD PUSH2 0x963 JUMP JUMPDEST SWAP3 POP POP PUSH1 0x20 PUSH2 0xA0C DUP6 DUP3 DUP7 ADD PUSH2 0x9C1 JUMP JUMPDEST SWAP2 POP POP SWAP3 POP SWAP3 SWAP1 POP JUMP JUMPDEST PUSH2 0xA1F DUP2 PUSH2 0x942 JUMP JUMPDEST DUP3 MSTORE POP POP JUMP JUMPDEST PUSH1 0x0 PUSH1 0x20 DUP3 ADD SWAP1 POP PUSH2 0xA3A PUSH1 0x0 DUP4 ADD DUP5 PUSH2 0xA16 JUMP JUMPDEST SWAP3 SWAP2 POP POP JUMP JUMPDEST PUSH1 0x0 DUP1 REVERT JUMPDEST PUSH1 0x0 DUP1 REVERT JUMPDEST PUSH1 0x0 PUSH1 0x1F NOT PUSH1 0x1F DUP4 ADD AND SWAP1 POP SWAP2 SWAP1 POP JUMP JUMPDEST PUSH32 0x4E487B7100000000000000000000000000000000000000000000000000000000 PUSH1 0x0 MSTORE PUSH1 0x41 PUSH1 0x4 MSTORE PUSH1 0x24 PUSH1 0x0 REVERT JUMPDEST PUSH2 0xA93 DUP3 PUSH2 0xA4A JUMP JUMPDEST DUP2 ADD DUP2 DUP2 LT PUSH8 0xFFFFFFFFFFFFFFFF DUP3 GT OR ISZERO PUSH2 0xAB2 JUMPI PUSH2 0xAB1 PUSH2 0xA5B JUMP JUMPDEST JUMPDEST DUP1 PUSH1 0x40 MSTORE POP POP POP JUMP JUMPDEST PUSH1 0x0 PUSH2 0xAC5 PUSH2 0x92E JUMP JUMPDEST SWAP1 POP PUSH2 0xAD1 DUP3 DUP3 PUSH2 0xA8A JUMP JUMPDEST SWAP2 SWAP1 POP JUMP JUMPDEST PUSH1 0x0 PUSH8 0xFFFFFFFFFFFFFFFF DUP3 GT ISZERO PUSH2 0xAF1 JUMPI PUSH2 0xAF0 PUSH2 0xA5B JUMP JUMPDEST JUMPDEST PUSH2 0xAFA DUP3 PUSH2 0xA4A JUMP JUMPDEST SWAP1 POP PUSH1 0x20 DUP2 ADD SWAP1 POP SWAP2 SWAP1 POP JUMP JUMPDEST DUP3 DUP2 DUP4 CALLDATACOPY PUSH1 0x0 DUP4 DUP4 ADD MSTORE POP POP POP JUMP JUMPDEST PUSH1 0x0 PUSH2 0xB29 PUSH2 0xB24 DUP5 PUSH2 0xAD6 JUMP JUMPDEST PUSH2 0xABB JUMP JUMPDEST SWAP1 POP DUP3 DUP2 MSTORE PUSH1 0x20 DUP2 ADD DUP5 DUP5 DUP5 ADD GT ISZERO PUSH2 0xB45 JUMPI PUSH2 0xB44 PUSH2 0xA45 JUMP JUMPDEST JUMPDEST PUSH2 0xB50 DUP5 DUP3 DUP6 PUSH2 0xB07 JUMP JUMPDEST POP SWAP4 SWAP3 POP POP POP JUMP JUMPDEST PUSH1 0x0 DUP3 PUSH1 0x1F DUP4 ADD SLT PUSH2 0xB6D JUMPI PUSH2 0xB6C PUSH2 0xA40 JUMP JUMPDEST JUMPDEST DUP2 CALLDATALOAD PUSH2 0xB7D DUP5 DUP3 PUSH1 0x20 DUP7 ADD PUSH2 0xB16 JUMP JUMPDEST SWAP2 POP POP SWAP3 SWAP2 POP POP JUMP JUMPDEST PUSH1 0x0 DUP1 PUSH1 0x40 DUP4 DUP6 SUB SLT ISZERO PUSH2 0xB9D JUMPI PUSH2 0xB9C PUSH2 0x938 JUMP JUMPDEST JUMPDEST PUSH1 0x0 DUP4 ADD CALLDATALOAD PUSH8 0xFFFFFFFFFFFFFFFF DUP2 GT ISZERO PUSH2 0xBBB JUMPI PUSH2 0xBBA PUSH2 0x93D JUMP JUMPDEST JUMPDEST PUSH2 0xBC7 DUP6 DUP3 DUP7 ADD PUSH2 0xB58 JUMP JUMPDEST SWAP3 POP POP PUSH1 0x20 DUP4 ADD CALLDATALOAD PUSH8 0xFFFFFFFFFFFFFFFF DUP2 GT ISZERO PUSH2 0xBE8 JUMPI PUSH2 0xBE7 PUSH2 0x93D JUMP JUMPDEST JUMPDEST PUSH2 0xBF4 DUP6 DUP3 DUP7 ADD PUSH2 0xB58 JUMP JUMPDEST SWAP2 POP POP SWAP3 POP SWAP3 SWAP1 POP JUMP JUMPDEST PUSH1 0x0 DUP2 ISZERO ISZERO SWAP1 POP SWAP2 SWAP1 POP JUMP JUMPDEST PUSH2 0xC13 DUP2 PUSH2 0xBFE JUMP JUMPDEST DUP3 MSTORE POP POP JUMP JUMPDEST PUSH1 0x0 PUSH1 0x20 DUP3 ADD SWAP1 POP PUSH2 0xC2E PUSH1 0x0 DUP4 ADD DUP5 PUSH2 0xC0A JUMP JUMPDEST SWAP3 SWAP2 POP POP JUMP JUMPDEST PUSH1 0x0 DUP2 MLOAD SWAP1 POP SWAP2 SWAP1 POP JUMP JUMPDEST PUSH1 0x0 DUP3 DUP3 MSTORE PUSH1 0x20 DUP3 ADD SWAP1 POP SWAP3 SWAP2 POP POP JUMP JUMPDEST PUSH1 0x0 JUMPDEST DUP4 DUP2 LT ISZERO PUSH2 0xC6E JUMPI DUP1 DUP3 ADD MLOAD DUP2 DUP5 ADD MSTORE PUSH1 0x20 DUP2 ADD SWAP1 POP PUSH2 0xC53 JUMP JUMPDEST DUP4 DUP2 GT ISZERO PUSH2 0xC7D JUMPI PUSH1 0x0 DUP5 DUP5 ADD MSTORE JUMPDEST POP POP POP POP JUMP JUMPDEST PUSH1 0x0 PUSH2 0xC8E DUP3 PUSH2 0xC34 JUMP JUMPDEST PUSH2 0xC98 DUP2 DUP6 PUSH2 0xC3F JUMP JUMPDEST SWAP4 POP PUSH2 0xCA8 DUP2 DUP6 PUSH1 0x20 DUP7 ADD PUSH2 0xC50 JUMP JUMPDEST PUSH2 0xCB1 DUP2 PUSH2 0xA4A JUMP JUMPDEST DUP5 ADD SWAP2 POP POP SWAP3 SWAP2 POP POP JUMP JUMPDEST PUSH1 0x0 PUSH1 0x20 DUP3 ADD SWAP1 POP DUP2 DUP2 SUB PUSH1 0x0 DUP4 ADD MSTORE PUSH2 0xCD6 DUP2 DUP5 PUSH2 0xC83 JUMP JUMPDEST SWAP1 POP SWAP3 SWAP2 POP POP JUMP JUMPDEST PUSH32 0x2054686973206164647265737320646F65736E27742065786973747300000000 PUSH1 0x0 DUP3 ADD MSTORE POP JUMP JUMPDEST PUSH1 0x0 PUSH2 0xD14 PUSH1 0x1C DUP4 PUSH2 0xC3F JUMP JUMPDEST SWAP2 POP PUSH2 0xD1F DUP3 PUSH2 0xCDE JUMP JUMPDEST PUSH1 0x20 DUP3 ADD SWAP1 POP SWAP2 SWAP1 POP JUMP JUMPDEST PUSH1 0x0 PUSH1 0x20 DUP3 ADD SWAP1 POP DUP2 DUP2 SUB PUSH1 0x0 DUP4 ADD MSTORE PUSH2 0xD43 DUP2 PUSH2 0xD07 JUMP JUMPDEST SWAP1 POP SWAP2 SWAP1 POP JUMP JUMPDEST PUSH32 0x506C6561736520696E7365727420796F75722063617264000000000000000000 PUSH1 0x0 DUP3 ADD MSTORE POP JUMP JUMPDEST PUSH1 0x0 PUSH2 0xD80 PUSH1 0x17 DUP4 PUSH2 0xC3F JUMP JUMPDEST SWAP2 POP PUSH2 0xD8B DUP3 PUSH2 0xD4A JUMP JUMPDEST PUSH1 0x20 DUP3 ADD SWAP1 POP SWAP2 SWAP1 POP JUMP JUMPDEST PUSH1 0x0 PUSH1 0x20 DUP3 ADD SWAP1 POP DUP2 DUP2 SUB PUSH1 0x0 DUP4 ADD MSTORE PUSH2 0xDAF DUP2 PUSH2 0xD73 JUMP JUMPDEST SWAP1 POP SWAP2 SWAP1 POP JUMP JUMPDEST PUSH32 0x596F75207265616368656420746865206C696D69740000000000000000000000 PUSH1 0x0 DUP3 ADD MSTORE POP JUMP JUMPDEST PUSH1 0x0 PUSH2 0xDEC PUSH1 0x15 DUP4 PUSH2 0xC3F JUMP JUMPDEST SWAP2 POP PUSH2 0xDF7 DUP3 PUSH2 0xDB6 JUMP JUMPDEST PUSH1 0x20 DUP3 ADD SWAP1 POP SWAP2 SWAP1 POP JUMP JUMPDEST PUSH1 0x0 PUSH1 0x20 DUP3 ADD SWAP1 POP DUP2 DUP2 SUB PUSH1 0x0 DUP4 ADD MSTORE PUSH2 0xE1B DUP2 PUSH2 0xDDF JUMP JUMPDEST SWAP1 POP SWAP2 SWAP1 POP JUMP JUMPDEST PUSH32 0x4E487B7100000000000000000000000000000000000000000000000000000000 PUSH1 0x0 MSTORE PUSH1 0x11 PUSH1 0x4 MSTORE PUSH1 0x24 PUSH1 0x0 REVERT JUMPDEST PUSH1 0x0 PUSH2 0xE5C DUP3 PUSH2 0x942 JUMP JUMPDEST SWAP2 POP PUSH2 0xE67 DUP4 PUSH2 0x942 JUMP JUMPDEST SWAP3 POP DUP3 PUSH32 0xFFFFFFFFFFFFFFFFFFFFFFFFFFFFFFFFFFFFFFFFFFFFFFFFFFFFFFFFFFFFFFFF SUB DUP3 GT ISZERO PUSH2 0xE9C JUMPI PUSH2 0xE9B PUSH2 0xE22 JUMP JUMPDEST JUMPDEST DUP3 DUP3 ADD SWAP1 POP SWAP3 SWAP2 POP POP JUMP JUMPDEST PUSH32 0x596F75207265616368656420746865206C696D69742070657220646179000000 PUSH1 0x0 DUP3 ADD MSTORE POP JUMP JUMPDEST PUSH1 0x0 PUSH2 0xEDD PUSH1 0x1D DUP4 PUSH2 0xC3F JUMP JUMPDEST SWAP2 POP PUSH2 0xEE8 DUP3 PUSH2 0xEA7 JUMP JUMPDEST PUSH1 0x20 DUP3 ADD SWAP1 POP SWAP2 SWAP1 POP JUMP JUMPDEST PUSH1 0x0 PUSH1 0x20 DUP3 ADD SWAP1 POP DUP2 DUP2 SUB PUSH1 0x0 DUP4 ADD MSTORE PUSH2 0xF0C DUP2 PUSH2 0xED0 JUMP JUMPDEST SWAP1 POP SWAP2 SWAP1 POP JUMP JUMPDEST PUSH32 0x6F6E6C792035207472616E73616374696F6E7320706572206461790000000000 PUSH1 0x0 DUP3 ADD MSTORE POP JUMP JUMPDEST PUSH1 0x0 PUSH2 0xF49 PUSH1 0x1B DUP4 PUSH2 0xC3F JUMP JUMPDEST SWAP2 POP PUSH2 0xF54 DUP3 PUSH2 0xF13 JUMP JUMPDEST PUSH1 0x20 DUP3 ADD SWAP1 POP SWAP2 SWAP1 POP JUMP JUMPDEST PUSH1 0x0 PUSH1 0x20 DUP3 ADD SWAP1 POP DUP2 DUP2 SUB PUSH1 0x0 DUP4 ADD MSTORE PUSH2 0xF78 DUP2 PUSH2 0xF3C JUMP JUMPDEST SWAP1 POP SWAP2 SWAP1 POP JUMP JUMPDEST PUSH1 0x0 PUSH2 0xF8A DUP3 PUSH2 0x942 JUMP JUMPDEST SWAP2 POP PUSH2 0xF95 DUP4 PUSH2 0x942 JUMP JUMPDEST SWAP3 POP DUP3 DUP3 LT ISZERO PUSH2 0xFA8 JUMPI PUSH2 0xFA7 PUSH2 0xE22 JUMP JUMPDEST JUMPDEST DUP3 DUP3 SUB SWAP1 POP SWAP3 SWAP2 POP POP JUMP JUMPDEST PUSH32 0x4E487B7100000000000000000000000000000000000000000000000000000000 PUSH1 0x0 MSTORE PUSH1 0x22 PUSH1 0x4 MSTORE PUSH1 0x24 PUSH1 0x0 REVERT JUMPDEST PUSH1 0x0 PUSH1 0x2 DUP3 DIV SWAP1 POP PUSH1 0x1 DUP3 AND DUP1 PUSH2 0xFFA JUMPI PUSH1 0x7F DUP3 AND SWAP2 POP JUMPDEST PUSH1 0x20 DUP3 LT DUP2 SUB PUSH2 0x100D JUMPI PUSH2 0x100C PUSH2 0xFB3 JUMP JUMPDEST JUMPDEST POP SWAP2 SWAP1 POP JUMP JUMPDEST PUSH1 0x0 DUP2 SWAP1 POP DUP2 PUSH1 0x0 MSTORE PUSH1 0x20 PUSH1 0x0 KECCAK256 SWAP1 POP SWAP2 SWAP1 POP JUMP JUMPDEST PUSH1 0x0 PUSH1 0x20 PUSH1 0x1F DUP4 ADD DIV SWAP1 POP SWAP2 SWAP1 POP JUMP JUMPDEST PUSH1 0x0 DUP3 DUP3 SHL SWAP1 POP SWAP3 SWAP2 POP POP JUMP JUMPDEST PUSH1 0x0 PUSH1 0x8 DUP4 MUL PUSH2 0x1075 PUSH32 0xFFFFFFFFFFFFFFFFFFFFFFFFFFFFFFFFFFFFFFFFFFFFFFFFFFFFFFFFFFFFFFFF DUP3 PUSH2 0x1038 JUMP JUMPDEST PUSH2 0x107F DUP7 DUP4 PUSH2 0x1038 JUMP JUMPDEST SWAP6 POP DUP1 NOT DUP5 AND SWAP4 POP DUP1 DUP7 AND DUP5 OR SWAP3 POP POP POP SWAP4 SWAP3 POP POP POP JUMP JUMPDEST PUSH1 0x0 DUP2 SWAP1 POP SWAP2 SWAP1 POP JUMP JUMPDEST PUSH1 0x0 PUSH2 0x10BC PUSH2 0x10B7 PUSH2 0x10B2 DUP5 PUSH2 0x942 JUMP JUMPDEST PUSH2 0x1097 JUMP JUMPDEST PUSH2 0x942 JUMP JUMPDEST SWAP1 POP SWAP2 SWAP1 POP JUMP JUMPDEST PUSH1 0x0 DUP2 SWAP1 POP SWAP2 SWAP1 POP JUMP JUMPDEST PUSH2 0x10D6 DUP4 PUSH2 0x10A1 JUMP JUMPDEST PUSH2 0x10EA PUSH2 0x10E2 DUP3 PUSH2 0x10C3 JUMP JUMPDEST DUP5 DUP5 SLOAD PUSH2 0x1045 JUMP JUMPDEST DUP3 SSTORE POP POP POP POP JUMP JUMPDEST PUSH1 0x0 SWAP1 JUMP JUMPDEST PUSH2 0x10FF PUSH2 0x10F2 JUMP JUMPDEST PUSH2 0x110A DUP2 DUP5 DUP5 PUSH2 0x10CD JUMP JUMPDEST POP POP POP JUMP JUMPDEST JUMPDEST DUP2 DUP2 LT ISZERO PUSH2 0x112E JUMPI PUSH2 0x1123 PUSH1 0x0 DUP3 PUSH2 0x10F7 JUMP JUMPDEST PUSH1 0x1 DUP2 ADD SWAP1 POP PUSH2 0x1110 JUMP JUMPDEST POP POP JUMP JUMPDEST PUSH1 0x1F DUP3 GT ISZERO PUSH2 0x1173 JUMPI PUSH2 0x1144 DUP2 PUSH2 0x1013 JUMP JUMPDEST PUSH2 0x114D DUP5 PUSH2 0x1028 JUMP JUMPDEST DUP2 ADD PUSH1 0x20 DUP6 LT ISZERO PUSH2 0x115C JUMPI DUP2 SWAP1 POP JUMPDEST PUSH2 0x1170 PUSH2 0x1168 DUP6 PUSH2 0x1028 JUMP JUMPDEST DUP4 ADD DUP3 PUSH2 0x110F JUMP JUMPDEST POP POP JUMPDEST POP POP POP JUMP JUMPDEST PUSH1 0x0 DUP3 DUP3 SHR SWAP1 POP SWAP3 SWAP2 POP POP JUMP JUMPDEST PUSH1 0x0 PUSH2 0x1196 PUSH1 0x0 NOT DUP5 PUSH1 0x8 MUL PUSH2 0x1178 JUMP JUMPDEST NOT DUP1 DUP4 AND SWAP2 POP POP SWAP3 SWAP2 POP POP JUMP JUMPDEST PUSH1 0x0 PUSH2 0x11AF DUP4 DUP4 PUSH2 0x1185 JUMP JUMPDEST SWAP2 POP DUP3 PUSH1 0x2 MUL DUP3 OR SWAP1 POP SWAP3 SWAP2 POP POP JUMP JUMPDEST PUSH2 0x11C8 DUP3 PUSH2 0xC34 JUMP JUMPDEST PUSH8 0xFFFFFFFFFFFFFFFF DUP2 GT ISZERO PUSH2 0x11E1 JUMPI PUSH2 0x11E0 PUSH2 0xA5B JUMP JUMPDEST JUMPDEST PUSH2 0x11EB DUP3 SLOAD PUSH2 0xFE2 JUMP JUMPDEST PUSH2 0x11F6 DUP3 DUP3 DUP6 PUSH2 0x1132 JUMP JUMPDEST PUSH1 0x0 PUSH1 0x20 SWAP1 POP PUSH1 0x1F DUP4 GT PUSH1 0x1 DUP2 EQ PUSH2 0x1229 JUMPI PUSH1 0x0 DUP5 ISZERO PUSH2 0x1217 JUMPI DUP3 DUP8 ADD MLOAD SWAP1 POP JUMPDEST PUSH2 0x1221 DUP6 DUP3 PUSH2 0x11A3 JUMP JUMPDEST DUP7 SSTORE POP PUSH2 0x1289 JUMP JUMPDEST PUSH1 0x1F NOT DUP5 AND PUSH2 0x1237 DUP7 PUSH2 0x1013 JUMP JUMPDEST PUSH1 0x0 JUMPDEST DUP3 DUP2 LT ISZERO PUSH2 0x125F JUMPI DUP5 DUP10 ADD MLOAD DUP3 SSTORE PUSH1 0x1 DUP3 ADD SWAP2 POP PUSH1 0x20 DUP6 ADD SWAP5 POP PUSH1 0x20 DUP2 ADD SWAP1 POP PUSH2 0x123A JUMP JUMPDEST DUP7 DUP4 LT ISZERO PUSH2 0x127C JUMPI DUP5 DUP10 ADD MLOAD PUSH2 0x1278 PUSH1 0x1F DUP10 AND DUP3 PUSH2 0x1185 JUMP JUMPDEST DUP4 SSTORE POP JUMPDEST PUSH1 0x1 PUSH1 0x2 DUP9 MUL ADD DUP9 SSTORE POP POP POP JUMPDEST POP POP POP POP POP POP JUMP JUMPDEST PUSH32 0x4E6F7420656E6F7567682066756E647300000000000000000000000000000000 PUSH1 0x0 DUP3 ADD MSTORE POP JUMP JUMPDEST PUSH1 0x0 PUSH2 0x12C7 PUSH1 0x10 DUP4 PUSH2 0xC3F JUMP JUMPDEST SWAP2 POP PUSH2 0x12D2 DUP3 PUSH2 0x1291 JUMP JUMPDEST PUSH1 0x20 DUP3 ADD SWAP1 POP SWAP2 SWAP1 POP JUMP JUMPDEST PUSH1 0x0 PUSH1 0x20 DUP3 ADD SWAP1 POP DUP2 DUP2 SUB PUSH1 0x0 DUP4 ADD MSTORE PUSH2 0x12F6 DUP2 PUSH2 0x12BA JUMP JUMPDEST SWAP1 POP SWAP2 SWAP1 POP JUMP JUMPDEST PUSH32 0x4E6F2076616C6964206372656469742063617264000000000000000000000000 PUSH1 0x0 DUP3 ADD MSTORE POP JUMP JUMPDEST PUSH1 0x0 PUSH2 0x1333 PUSH1 0x14 DUP4 PUSH2 0xC3F JUMP JUMPDEST SWAP2 POP PUSH2 0x133E DUP3 PUSH2 0x12FD JUMP JUMPDEST PUSH1 0x20 DUP3 ADD SWAP1 POP SWAP2 SWAP1 POP JUMP JUMPDEST PUSH1 0x0 PUSH1 0x20 DUP3 ADD SWAP1 POP DUP2 DUP2 SUB PUSH1 0x0 DUP4 ADD MSTORE PUSH2 0x1362 DUP2 PUSH2 0x1326 JUMP JUMPDEST SWAP1 POP SWAP2 SWAP1 POP JUMP INVALID LOG2 PUSH5 0x6970667358 0x22 SLT KECCAK256 SWAP14 CALLDATASIZE CREATE2 MLOAD 0x1E 0xB8 0xB0 RETURN 0xE9 TIMESTAMP PUSH2 0x94AF JUMPDEST 0x26 0xCC DELEGATECALL SWAP12 LT 0xC7 0xE1 DUP16 MSTORE8 MUL 0xEE BLOCKHASH EQ 0xAA 0xF6 LOG0 PUSH26 0xA64736F6C634300080F00330000000000000000000000000000 "
				},
				"gasEstimates": {
					"creation": {
						"codeDepositCost": "1004600",
						"executionCost": "infinite",
						"totalCost": "infinite"
					},
					"external": {
						"TotalAmount()": "2474",
						"TotalFunds()": "2452",
						"amount()": "2473",
						"callCount()": "2496",
						"callPutCard()": "2494",
						"cardNumber()": "infinite",
						"countTransfer()": "2519",
						"cvv()": "infinite",
						"firstTransferTime()": "2475",
						"getOutCard()": "24478",
						"getTime()": "425",
						"message()": "infinite",
						"receiverFunds()": "2495",
						"sendMoney(uint256,address)": "infinite",
						"setCard(string,string)": "infinite",
						"totalWeekTransactions()": "2451"
					}
				},
				"methodIdentifiers": {
					"TotalAmount()": "7eb9f571",
					"TotalFunds()": "7b9a3f4c",
					"amount()": "aa8c217c",
					"callCount()": "4b28f9a2",
					"callPutCard()": "3c626f00",
					"cardNumber()": "8fa11864",
					"countTransfer()": "34f5ccde",
					"cvv()": "42fb7936",
					"firstTransferTime()": "0e85fa72",
					"getOutCard()": "8e029c0b",
					"getTime()": "557ed1ba",
					"message()": "e21f37ce",
					"receiverFunds()": "bc309496",
					"sendMoney(uint256,address)": "062a7544",
					"setCard(string,string)": "12a029a4",
					"totalWeekTransactions()": "94b5dcaa"
				}
			},
			"storageLayout": {
				"storage": [
					{
						"astId": 3,
						"contract": "Dapp/MoneyTransfer.sol:MoneyTransfer",
						"label": "amount",
						"offset": 0,
						"slot": "0",
						"type": "t_uint256"
					},
					{
						"astId": 5,
						"contract": "Dapp/MoneyTransfer.sol:MoneyTransfer",
						"label": "TotalFunds",
						"offset": 0,
						"slot": "1",
						"type": "t_uint256"
					},
					{
						"astId": 7,
						"contract": "Dapp/MoneyTransfer.sol:MoneyTransfer",
						"label": "receiver",
						"offset": 0,
						"slot": "2",
						"type": "t_address"
					},
					{
						"astId": 13,
						"contract": "Dapp/MoneyTransfer.sol:MoneyTransfer",
						"label": "day",
						"offset": 0,
						"slot": "3",
						"type": "t_uint256"
					},
					{
						"astId": 15,
						"contract": "Dapp/MoneyTransfer.sol:MoneyTransfer",
						"label": "totalWeekTransactions",
						"offset": 0,
						"slot": "4",
						"type": "t_uint256"
					},
					{
						"astId": 17,
						"contract": "Dapp/MoneyTransfer.sol:MoneyTransfer",
						"label": "maxTransaction",
						"offset": 0,
						"slot": "5",
						"type": "t_uint256"
					},
					{
						"astId": 19,
						"contract": "Dapp/MoneyTransfer.sol:MoneyTransfer",
						"label": "minTransaction",
						"offset": 0,
						"slot": "6",
						"type": "t_uint256"
					},
					{
						"astId": 22,
						"contract": "Dapp/MoneyTransfer.sol:MoneyTransfer",
						"label": "countries",
						"offset": 0,
						"slot": "7",
						"type": "t_array(t_uint256)dyn_storage"
					},
					{
						"astId": 24,
						"contract": "Dapp/MoneyTransfer.sol:MoneyTransfer",
						"label": "receiverFunds",
						"offset": 0,
						"slot": "8",
						"type": "t_uint256"
					},
					{
						"astId": 26,
						"contract": "Dapp/MoneyTransfer.sol:MoneyTransfer",
						"label": "message",
						"offset": 0,
						"slot": "9",
						"type": "t_string_storage"
					},
					{
						"astId": 28,
						"contract": "Dapp/MoneyTransfer.sol:MoneyTransfer",
						"label": "cardNumber",
						"offset": 0,
						"slot": "10",
						"type": "t_string_storage"
					},
					{
						"astId": 30,
						"contract": "Dapp/MoneyTransfer.sol:MoneyTransfer",
						"label": "cvv",
						"offset": 0,
						"slot": "11",
						"type": "t_string_storage"
					},
					{
						"astId": 32,
						"contract": "Dapp/MoneyTransfer.sol:MoneyTransfer",
						"label": "TotalAmount",
						"offset": 0,
						"slot": "12",
						"type": "t_uint256"
					},
					{
						"astId": 34,
						"contract": "Dapp/MoneyTransfer.sol:MoneyTransfer",
						"label": "firstTransferTime",
						"offset": 0,
						"slot": "13",
						"type": "t_uint256"
					},
					{
						"astId": 36,
						"contract": "Dapp/MoneyTransfer.sol:MoneyTransfer",
						"label": "countTransfer",
						"offset": 0,
						"slot": "14",
						"type": "t_uint256"
					},
					{
						"astId": 49,
						"contract": "Dapp/MoneyTransfer.sol:MoneyTransfer",
						"label": "callCount",
						"offset": 0,
						"slot": "15",
						"type": "t_uint256"
					},
					{
						"astId": 52,
						"contract": "Dapp/MoneyTransfer.sol:MoneyTransfer",
						"label": "callPutCard",
						"offset": 0,
						"slot": "16",
						"type": "t_bool"
					}
				],
				"types": {
					"t_address": {
						"encoding": "inplace",
						"label": "address",
						"numberOfBytes": "20"
					},
					"t_array(t_uint256)dyn_storage": {
						"base": "t_uint256",
						"encoding": "dynamic_array",
						"label": "uint256[]",
						"numberOfBytes": "32"
					},
					"t_bool": {
						"encoding": "inplace",
						"label": "bool",
						"numberOfBytes": "1"
					},
					"t_string_storage": {
						"encoding": "bytes",
						"label": "string",
						"numberOfBytes": "32"
					},
					"t_uint256": {
						"encoding": "inplace",
						"label": "uint256",
						"numberOfBytes": "32"
					}
				}
			},
			"userdoc": {
				"kind": "user",
				"methods": {},
				"version": 1
			}
		}
	}
}