{
	"Dapp/MoneyTransfer.sol": {
		"MoneyTransfer": {
			"abi": [
				{
					"inputs": [
						{
							"internalType": "uint256",
							"name": "_totalFunds",
							"type": "uint256"
						}
					],
					"stateMutability": "nonpayable",
					"type": "constructor"
				},
				{
					"inputs": [],
					"name": "TotalFunds",
					"outputs": [
						{
							"internalType": "uint256",
							"name": "",
							"type": "uint256"
						}
					],
					"stateMutability": "view",
					"type": "function"
				},
				{
					"inputs": [],
					"name": "amount",
					"outputs": [
						{
							"internalType": "uint256",
							"name": "",
							"type": "uint256"
						}
					],
					"stateMutability": "view",
					"type": "function"
				},
				{
					"inputs": [],
					"name": "message",
					"outputs": [
						{
							"internalType": "string",
							"name": "",
							"type": "string"
						}
					],
					"stateMutability": "view",
					"type": "function"
				},
				{
					"inputs": [
						{
							"internalType": "uint256",
							"name": "_amount",
							"type": "uint256"
						},
						{
							"internalType": "address",
							"name": "_receiver",
							"type": "address"
						}
					],
					"name": "sendMoney",
					"outputs": [],
					"stateMutability": "nonpayable",
					"type": "function"
				},
				{
					"inputs": [],
					"name": "totalWeekTransactions",
					"outputs": [
						{
							"internalType": "uint256",
							"name": "",
							"type": "uint256"
						}
					],
					"stateMutability": "view",
					"type": "function"
				}
			],
			"devdoc": {
				"kind": "dev",
				"methods": {},
				"version": 1
			},
			"evm": {
				"assembly": "    /* \"Dapp/MoneyTransfer.sol\":67:983  contract MoneyTransfer {... */\n  mstore(0x40, 0x80)\n    /* \"Dapp/MoneyTransfer.sol\":232:240  24 hours */\n  0x015180\n    /* \"Dapp/MoneyTransfer.sol\":221:240  uint day = 24 hours */\n  0x03\n  sstore\n    /* \"Dapp/MoneyTransfer.sol\":402:478  constructor (uint256 _totalFunds){... */\n  callvalue\n  dup1\n  iszero\n  tag_1\n  jumpi\n  0x00\n  dup1\n  revert\ntag_1:\n  pop\n  mload(0x40)\n  sub(codesize, bytecodeSize)\n  dup1\n  bytecodeSize\n  dup4\n  codecopy\n  dup2\n  dup2\n  add\n  0x40\n  mstore\n  dup2\n  add\n  swap1\n  tag_2\n  swap2\n  swap1\n  tag_3\n  jump\t// in\ntag_2:\n    /* \"Dapp/MoneyTransfer.sol\":459:470  _totalFunds */\n  dup1\n    /* \"Dapp/MoneyTransfer.sol\":446:456  TotalFunds */\n  0x01\n    /* \"Dapp/MoneyTransfer.sol\":446:470  TotalFunds = _totalFunds */\n  dup2\n  swap1\n  sstore\n  pop\n    /* \"Dapp/MoneyTransfer.sol\":402:478  constructor (uint256 _totalFunds){... */\n  pop\n    /* \"Dapp/MoneyTransfer.sol\":67:983  contract MoneyTransfer {... */\n  jump(tag_6)\n    /* \"#utility.yul\":88:205   */\ntag_8:\n    /* \"#utility.yul\":197:198   */\n  0x00\n    /* \"#utility.yul\":194:195   */\n  dup1\n    /* \"#utility.yul\":187:199   */\n  revert\n    /* \"#utility.yul\":334:411   */\ntag_10:\n    /* \"#utility.yul\":371:378   */\n  0x00\n    /* \"#utility.yul\":400:405   */\n  dup2\n    /* \"#utility.yul\":389:405   */\n  swap1\n  pop\n    /* \"#utility.yul\":334:411   */\n  swap2\n  swap1\n  pop\n  jump\t// out\n    /* \"#utility.yul\":417:539   */\ntag_11:\n    /* \"#utility.yul\":490:514   */\n  tag_19\n    /* \"#utility.yul\":508:513   */\n  dup2\n    /* \"#utility.yul\":490:514   */\n  tag_10\n  jump\t// in\ntag_19:\n    /* \"#utility.yul\":483:488   */\n  dup2\n    /* \"#utility.yul\":480:515   */\n  eq\n    /* \"#utility.yul\":470:533   */\n  tag_20\n  jumpi\n    /* \"#utility.yul\":529:530   */\n  0x00\n    /* \"#utility.yul\":526:527   */\n  dup1\n    /* \"#utility.yul\":519:531   */\n  revert\n    /* \"#utility.yul\":470:533   */\ntag_20:\n    /* \"#utility.yul\":417:539   */\n  pop\n  jump\t// out\n    /* \"#utility.yul\":545:688   */\ntag_12:\n    /* \"#utility.yul\":602:607   */\n  0x00\n    /* \"#utility.yul\":633:639   */\n  dup2\n    /* \"#utility.yul\":627:640   */\n  mload\n    /* \"#utility.yul\":618:640   */\n  swap1\n  pop\n    /* \"#utility.yul\":649:682   */\n  tag_22\n    /* \"#utility.yul\":676:681   */\n  dup2\n    /* \"#utility.yul\":649:682   */\n  tag_11\n  jump\t// in\ntag_22:\n    /* \"#utility.yul\":545:688   */\n  swap3\n  swap2\n  pop\n  pop\n  jump\t// out\n    /* \"#utility.yul\":694:1045   */\ntag_3:\n    /* \"#utility.yul\":764:770   */\n  0x00\n    /* \"#utility.yul\":813:815   */\n  0x20\n    /* \"#utility.yul\":801:810   */\n  dup3\n    /* \"#utility.yul\":792:799   */\n  dup5\n    /* \"#utility.yul\":788:811   */\n  sub\n    /* \"#utility.yul\":784:816   */\n  slt\n    /* \"#utility.yul\":781:900   */\n  iszero\n  tag_24\n  jumpi\n    /* \"#utility.yul\":819:898   */\n  tag_25\n  tag_8\n  jump\t// in\ntag_25:\n    /* \"#utility.yul\":781:900   */\ntag_24:\n    /* \"#utility.yul\":939:940   */\n  0x00\n    /* \"#utility.yul\":964:1028   */\n  tag_26\n    /* \"#utility.yul\":1020:1027   */\n  dup5\n    /* \"#utility.yul\":1011:1017   */\n  dup3\n    /* \"#utility.yul\":1000:1009   */\n  dup6\n    /* \"#utility.yul\":996:1018   */\n  add\n    /* \"#utility.yul\":964:1028   */\n  tag_12\n  jump\t// in\ntag_26:\n    /* \"#utility.yul\":954:1028   */\n  swap2\n  pop\n    /* \"#utility.yul\":910:1038   */\n  pop\n    /* \"#utility.yul\":694:1045   */\n  swap3\n  swap2\n  pop\n  pop\n  jump\t// out\n    /* \"Dapp/MoneyTransfer.sol\":67:983  contract MoneyTransfer {... */\ntag_6:\n  dataSize(sub_0)\n  dup1\n  dataOffset(sub_0)\n  0x00\n  codecopy\n  0x00\n  return\nstop\n\nsub_0: assembly {\n        /* \"Dapp/MoneyTransfer.sol\":67:983  contract MoneyTransfer {... */\n      mstore(0x40, 0x80)\n      callvalue\n      dup1\n      iszero\n      tag_1\n      jumpi\n      0x00\n      dup1\n      revert\n    tag_1:\n      pop\n      jumpi(tag_2, lt(calldatasize, 0x04))\n      shr(0xe0, calldataload(0x00))\n      dup1\n      0x062a7544\n      eq\n      tag_3\n      jumpi\n      dup1\n      0x7b9a3f4c\n      eq\n      tag_4\n      jumpi\n      dup1\n      0x94b5dcaa\n      eq\n      tag_5\n      jumpi\n      dup1\n      0xaa8c217c\n      eq\n      tag_6\n      jumpi\n      dup1\n      0xe21f37ce\n      eq\n      tag_7\n      jumpi\n    tag_2:\n      0x00\n      dup1\n      revert\n        /* \"Dapp/MoneyTransfer.sol\":488:813  function sendMoney(uint _amount, address _receiver) public m_validAddress(_receiver) {... */\n    tag_3:\n      tag_8\n      0x04\n      dup1\n      calldatasize\n      sub\n      dup2\n      add\n      swap1\n      tag_9\n      swap2\n      swap1\n      tag_10\n      jump\t// in\n    tag_9:\n      tag_11\n      jump\t// in\n    tag_8:\n      stop\n        /* \"Dapp/MoneyTransfer.sol\":129:154  uint256 public TotalFunds */\n    tag_4:\n      tag_12\n      tag_13\n      jump\t// in\n    tag_12:\n      mload(0x40)\n      tag_14\n      swap2\n      swap1\n      tag_15\n      jump\t// in\n    tag_14:\n      mload(0x40)\n      dup1\n      swap2\n      sub\n      swap1\n      return\n        /* \"Dapp/MoneyTransfer.sol\":247:283  uint256 public totalWeekTransactions */\n    tag_5:\n      tag_16\n      tag_17\n      jump\t// in\n    tag_16:\n      mload(0x40)\n      tag_18\n      swap2\n      swap1\n      tag_15\n      jump\t// in\n    tag_18:\n      mload(0x40)\n      dup1\n      swap2\n      sub\n      swap1\n      return\n        /* \"Dapp/MoneyTransfer.sol\":101:122  uint256 public amount */\n    tag_6:\n      tag_19\n      tag_20\n      jump\t// in\n    tag_19:\n      mload(0x40)\n      tag_21\n      swap2\n      swap1\n      tag_15\n      jump\t// in\n    tag_21:\n      mload(0x40)\n      dup1\n      swap2\n      sub\n      swap1\n      return\n        /* \"Dapp/MoneyTransfer.sol\":370:391  string public message */\n    tag_7:\n      tag_22\n      tag_23\n      jump\t// in\n    tag_22:\n      mload(0x40)\n      tag_24\n      swap2\n      swap1\n      tag_25\n      jump\t// in\n    tag_24:\n      mload(0x40)\n      dup1\n      swap2\n      sub\n      swap1\n      return\n        /* \"Dapp/MoneyTransfer.sol\":488:813  function sendMoney(uint _amount, address _receiver) public m_validAddress(_receiver) {... */\n    tag_11:\n        /* \"Dapp/MoneyTransfer.sol\":562:571  _receiver */\n      dup1\n        /* \"Dapp/MoneyTransfer.sol\":882:887  _addr */\n      dup1\n        /* \"Dapp/MoneyTransfer.sol\":871:879  receiver */\n      0x02\n      0x00\n        /* \"Dapp/MoneyTransfer.sol\":871:887  receiver = _addr */\n      0x0100\n      exp\n      dup2\n      sload\n      dup2\n      0xffffffffffffffffffffffffffffffffffffffff\n      mul\n      not\n      and\n      swap1\n      dup4\n      0xffffffffffffffffffffffffffffffffffffffff\n      and\n      mul\n      or\n      swap1\n      sstore\n      pop\n        /* \"Dapp/MoneyTransfer.sol\":923:924  0 */\n      0x00\n        /* \"Dapp/MoneyTransfer.sol\":906:925  _addr != address(0) */\n      0xffffffffffffffffffffffffffffffffffffffff\n      and\n        /* \"Dapp/MoneyTransfer.sol\":906:911  _addr */\n      dup2\n        /* \"Dapp/MoneyTransfer.sol\":906:925  _addr != address(0) */\n      0xffffffffffffffffffffffffffffffffffffffff\n      and\n      sub\n        /* \"Dapp/MoneyTransfer.sol\":898:958  require(_addr != address(0), \" This address doesn't exists\") */\n      tag_27\n      jumpi\n      mload(0x40)\n      0x08c379a000000000000000000000000000000000000000000000000000000000\n      dup2\n      mstore\n      0x04\n      add\n      tag_28\n      swap1\n      tag_29\n      jump\t// in\n    tag_28:\n      mload(0x40)\n      dup1\n      swap2\n      sub\n      swap1\n      revert\n    tag_27:\n        /* \"Dapp/MoneyTransfer.sol\":595:604  _receiver */\n      dup2\n        /* \"Dapp/MoneyTransfer.sol\":584:592  receiver */\n      0x02\n      0x00\n        /* \"Dapp/MoneyTransfer.sol\":584:604  receiver = _receiver */\n      0x0100\n      exp\n      dup2\n      sload\n      dup2\n      0xffffffffffffffffffffffffffffffffffffffff\n      mul\n      not\n      and\n      swap1\n      dup4\n      0xffffffffffffffffffffffffffffffffffffffff\n      and\n      mul\n      or\n      swap1\n      sstore\n      pop\n        /* \"Dapp/MoneyTransfer.sol\":624:631  _amount */\n      dup3\n        /* \"Dapp/MoneyTransfer.sol\":615:621  amount */\n      0x00\n        /* \"Dapp/MoneyTransfer.sol\":615:631  amount = _amount */\n      dup2\n      swap1\n      sstore\n      pop\n        /* \"Dapp/MoneyTransfer.sol\":660:661  0 */\n      0x00\n        /* \"Dapp/MoneyTransfer.sol\":647:657  TotalFunds */\n      sload(0x01)\n        /* \"Dapp/MoneyTransfer.sol\":647:661  TotalFunds > 0 */\n      gt\n        /* \"Dapp/MoneyTransfer.sol\":647:684  TotalFunds > 0 && TotalFunds > amount */\n      dup1\n      iszero\n      tag_31\n      jumpi\n      pop\n        /* \"Dapp/MoneyTransfer.sol\":678:684  amount */\n      sload(0x00)\n        /* \"Dapp/MoneyTransfer.sol\":665:675  TotalFunds */\n      sload(0x01)\n        /* \"Dapp/MoneyTransfer.sol\":665:684  TotalFunds > amount */\n      gt\n        /* \"Dapp/MoneyTransfer.sol\":647:684  TotalFunds > 0 && TotalFunds > amount */\n    tag_31:\n        /* \"Dapp/MoneyTransfer.sol\":644:806  if(TotalFunds > 0 && TotalFunds > amount){... */\n      iszero\n      tag_32\n      jumpi\n        /* \"Dapp/MoneyTransfer.sol\":714:720  amount */\n      sload(0x00)\n        /* \"Dapp/MoneyTransfer.sol\":700:710  TotalFunds */\n      0x01\n      0x00\n        /* \"Dapp/MoneyTransfer.sol\":700:720  TotalFunds -= amount */\n      dup3\n      dup3\n      sload\n      tag_33\n      swap2\n      swap1\n      tag_34\n      jump\t// in\n    tag_33:\n      swap3\n      pop\n      pop\n      dup2\n      swap1\n      sstore\n      pop\n        /* \"Dapp/MoneyTransfer.sol\":735:765  message = \"Transfer completed\" */\n      mload(0x40)\n      dup1\n      0x40\n      add\n      0x40\n      mstore\n      dup1\n      0x12\n      dup2\n      mstore\n      0x20\n      add\n      0x5472616e7366657220636f6d706c657465640000000000000000000000000000\n      dup2\n      mstore\n      pop\n        /* \"Dapp/MoneyTransfer.sol\":735:742  message */\n      0x08\n        /* \"Dapp/MoneyTransfer.sol\":735:765  message = \"Transfer completed\" */\n      swap1\n      dup2\n      tag_35\n      swap2\n      swap1\n      tag_36\n      jump\t// in\n    tag_35:\n      pop\n        /* \"Dapp/MoneyTransfer.sol\":644:806  if(TotalFunds > 0 && TotalFunds > amount){... */\n      jump(tag_37)\n    tag_32:\n    tag_37:\n        /* \"Dapp/MoneyTransfer.sol\":488:813  function sendMoney(uint _amount, address _receiver) public m_validAddress(_receiver) {... */\n      pop\n      pop\n      pop\n      jump\t// out\n        /* \"Dapp/MoneyTransfer.sol\":129:154  uint256 public TotalFunds */\n    tag_13:\n      sload(0x01)\n      dup2\n      jump\t// out\n        /* \"Dapp/MoneyTransfer.sol\":247:283  uint256 public totalWeekTransactions */\n    tag_17:\n      sload(0x04)\n      dup2\n      jump\t// out\n        /* \"Dapp/MoneyTransfer.sol\":101:122  uint256 public amount */\n    tag_20:\n      sload(0x00)\n      dup2\n      jump\t// out\n        /* \"Dapp/MoneyTransfer.sol\":370:391  string public message */\n    tag_23:\n      0x08\n      dup1\n      sload\n      tag_38\n      swap1\n      tag_39\n      jump\t// in\n    tag_38:\n      dup1\n      0x1f\n      add\n      0x20\n      dup1\n      swap2\n      div\n      mul\n      0x20\n      add\n      mload(0x40)\n      swap1\n      dup2\n      add\n      0x40\n      mstore\n      dup1\n      swap3\n      swap2\n      swap1\n      dup2\n      dup2\n      mstore\n      0x20\n      add\n      dup3\n      dup1\n      sload\n      tag_40\n      swap1\n      tag_39\n      jump\t// in\n    tag_40:\n      dup1\n      iszero\n      tag_41\n      jumpi\n      dup1\n      0x1f\n      lt\n      tag_42\n      jumpi\n      0x0100\n      dup1\n      dup4\n      sload\n      div\n      mul\n      dup4\n      mstore\n      swap2\n      0x20\n      add\n      swap2\n      jump(tag_41)\n    tag_42:\n      dup3\n      add\n      swap2\n      swap1\n      0x00\n      mstore\n      keccak256(0x00, 0x20)\n      swap1\n    tag_43:\n      dup2\n      sload\n      dup2\n      mstore\n      swap1\n      0x01\n      add\n      swap1\n      0x20\n      add\n      dup1\n      dup4\n      gt\n      tag_43\n      jumpi\n      dup3\n      swap1\n      sub\n      0x1f\n      and\n      dup3\n      add\n      swap2\n    tag_41:\n      pop\n      pop\n      pop\n      pop\n      pop\n      dup2\n      jump\t// out\n        /* \"#utility.yul\":88:205   */\n    tag_45:\n        /* \"#utility.yul\":197:198   */\n      0x00\n        /* \"#utility.yul\":194:195   */\n      dup1\n        /* \"#utility.yul\":187:199   */\n      revert\n        /* \"#utility.yul\":334:411   */\n    tag_47:\n        /* \"#utility.yul\":371:378   */\n      0x00\n        /* \"#utility.yul\":400:405   */\n      dup2\n        /* \"#utility.yul\":389:405   */\n      swap1\n      pop\n        /* \"#utility.yul\":334:411   */\n      swap2\n      swap1\n      pop\n      jump\t// out\n        /* \"#utility.yul\":417:539   */\n    tag_48:\n        /* \"#utility.yul\":490:514   */\n      tag_86\n        /* \"#utility.yul\":508:513   */\n      dup2\n        /* \"#utility.yul\":490:514   */\n      tag_47\n      jump\t// in\n    tag_86:\n        /* \"#utility.yul\":483:488   */\n      dup2\n        /* \"#utility.yul\":480:515   */\n      eq\n        /* \"#utility.yul\":470:533   */\n      tag_87\n      jumpi\n        /* \"#utility.yul\":529:530   */\n      0x00\n        /* \"#utility.yul\":526:527   */\n      dup1\n        /* \"#utility.yul\":519:531   */\n      revert\n        /* \"#utility.yul\":470:533   */\n    tag_87:\n        /* \"#utility.yul\":417:539   */\n      pop\n      jump\t// out\n        /* \"#utility.yul\":545:684   */\n    tag_49:\n        /* \"#utility.yul\":591:596   */\n      0x00\n        /* \"#utility.yul\":629:635   */\n      dup2\n        /* \"#utility.yul\":616:636   */\n      calldataload\n        /* \"#utility.yul\":607:636   */\n      swap1\n      pop\n        /* \"#utility.yul\":645:678   */\n      tag_89\n        /* \"#utility.yul\":672:677   */\n      dup2\n        /* \"#utility.yul\":645:678   */\n      tag_48\n      jump\t// in\n    tag_89:\n        /* \"#utility.yul\":545:684   */\n      swap3\n      swap2\n      pop\n      pop\n      jump\t// out\n        /* \"#utility.yul\":690:816   */\n    tag_50:\n        /* \"#utility.yul\":727:734   */\n      0x00\n        /* \"#utility.yul\":767:809   */\n      0xffffffffffffffffffffffffffffffffffffffff\n        /* \"#utility.yul\":760:765   */\n      dup3\n        /* \"#utility.yul\":756:810   */\n      and\n        /* \"#utility.yul\":745:810   */\n      swap1\n      pop\n        /* \"#utility.yul\":690:816   */\n      swap2\n      swap1\n      pop\n      jump\t// out\n        /* \"#utility.yul\":822:918   */\n    tag_51:\n        /* \"#utility.yul\":859:866   */\n      0x00\n        /* \"#utility.yul\":888:912   */\n      tag_92\n        /* \"#utility.yul\":906:911   */\n      dup3\n        /* \"#utility.yul\":888:912   */\n      tag_50\n      jump\t// in\n    tag_92:\n        /* \"#utility.yul\":877:912   */\n      swap1\n      pop\n        /* \"#utility.yul\":822:918   */\n      swap2\n      swap1\n      pop\n      jump\t// out\n        /* \"#utility.yul\":924:1046   */\n    tag_52:\n        /* \"#utility.yul\":997:1021   */\n      tag_94\n        /* \"#utility.yul\":1015:1020   */\n      dup2\n        /* \"#utility.yul\":997:1021   */\n      tag_51\n      jump\t// in\n    tag_94:\n        /* \"#utility.yul\":990:995   */\n      dup2\n        /* \"#utility.yul\":987:1022   */\n      eq\n        /* \"#utility.yul\":977:1040   */\n      tag_95\n      jumpi\n        /* \"#utility.yul\":1036:1037   */\n      0x00\n        /* \"#utility.yul\":1033:1034   */\n      dup1\n        /* \"#utility.yul\":1026:1038   */\n      revert\n        /* \"#utility.yul\":977:1040   */\n    tag_95:\n        /* \"#utility.yul\":924:1046   */\n      pop\n      jump\t// out\n        /* \"#utility.yul\":1052:1191   */\n    tag_53:\n        /* \"#utility.yul\":1098:1103   */\n      0x00\n        /* \"#utility.yul\":1136:1142   */\n      dup2\n        /* \"#utility.yul\":1123:1143   */\n      calldataload\n        /* \"#utility.yul\":1114:1143   */\n      swap1\n      pop\n        /* \"#utility.yul\":1152:1185   */\n      tag_97\n        /* \"#utility.yul\":1179:1184   */\n      dup2\n        /* \"#utility.yul\":1152:1185   */\n      tag_52\n      jump\t// in\n    tag_97:\n        /* \"#utility.yul\":1052:1191   */\n      swap3\n      swap2\n      pop\n      pop\n      jump\t// out\n        /* \"#utility.yul\":1197:1671   */\n    tag_10:\n        /* \"#utility.yul\":1265:1271   */\n      0x00\n        /* \"#utility.yul\":1273:1279   */\n      dup1\n        /* \"#utility.yul\":1322:1324   */\n      0x40\n        /* \"#utility.yul\":1310:1319   */\n      dup4\n        /* \"#utility.yul\":1301:1308   */\n      dup6\n        /* \"#utility.yul\":1297:1320   */\n      sub\n        /* \"#utility.yul\":1293:1325   */\n      slt\n        /* \"#utility.yul\":1290:1409   */\n      iszero\n      tag_99\n      jumpi\n        /* \"#utility.yul\":1328:1407   */\n      tag_100\n      tag_45\n      jump\t// in\n    tag_100:\n        /* \"#utility.yul\":1290:1409   */\n    tag_99:\n        /* \"#utility.yul\":1448:1449   */\n      0x00\n        /* \"#utility.yul\":1473:1526   */\n      tag_101\n        /* \"#utility.yul\":1518:1525   */\n      dup6\n        /* \"#utility.yul\":1509:1515   */\n      dup3\n        /* \"#utility.yul\":1498:1507   */\n      dup7\n        /* \"#utility.yul\":1494:1516   */\n      add\n        /* \"#utility.yul\":1473:1526   */\n      tag_49\n      jump\t// in\n    tag_101:\n        /* \"#utility.yul\":1463:1526   */\n      swap3\n      pop\n        /* \"#utility.yul\":1419:1536   */\n      pop\n        /* \"#utility.yul\":1575:1577   */\n      0x20\n        /* \"#utility.yul\":1601:1654   */\n      tag_102\n        /* \"#utility.yul\":1646:1653   */\n      dup6\n        /* \"#utility.yul\":1637:1643   */\n      dup3\n        /* \"#utility.yul\":1626:1635   */\n      dup7\n        /* \"#utility.yul\":1622:1644   */\n      add\n        /* \"#utility.yul\":1601:1654   */\n      tag_53\n      jump\t// in\n    tag_102:\n        /* \"#utility.yul\":1591:1654   */\n      swap2\n      pop\n        /* \"#utility.yul\":1546:1664   */\n      pop\n        /* \"#utility.yul\":1197:1671   */\n      swap3\n      pop\n      swap3\n      swap1\n      pop\n      jump\t// out\n        /* \"#utility.yul\":1677:1795   */\n    tag_54:\n        /* \"#utility.yul\":1764:1788   */\n      tag_104\n        /* \"#utility.yul\":1782:1787   */\n      dup2\n        /* \"#utility.yul\":1764:1788   */\n      tag_47\n      jump\t// in\n    tag_104:\n        /* \"#utility.yul\":1759:1762   */\n      dup3\n        /* \"#utility.yul\":1752:1789   */\n      mstore\n        /* \"#utility.yul\":1677:1795   */\n      pop\n      pop\n      jump\t// out\n        /* \"#utility.yul\":1801:2023   */\n    tag_15:\n        /* \"#utility.yul\":1894:1898   */\n      0x00\n        /* \"#utility.yul\":1932:1934   */\n      0x20\n        /* \"#utility.yul\":1921:1930   */\n      dup3\n        /* \"#utility.yul\":1917:1935   */\n      add\n        /* \"#utility.yul\":1909:1935   */\n      swap1\n      pop\n        /* \"#utility.yul\":1945:2016   */\n      tag_106\n        /* \"#utility.yul\":2013:2014   */\n      0x00\n        /* \"#utility.yul\":2002:2011   */\n      dup4\n        /* \"#utility.yul\":1998:2015   */\n      add\n        /* \"#utility.yul\":1989:1995   */\n      dup5\n        /* \"#utility.yul\":1945:2016   */\n      tag_54\n      jump\t// in\n    tag_106:\n        /* \"#utility.yul\":1801:2023   */\n      swap3\n      swap2\n      pop\n      pop\n      jump\t// out\n        /* \"#utility.yul\":2029:2128   */\n    tag_55:\n        /* \"#utility.yul\":2081:2087   */\n      0x00\n        /* \"#utility.yul\":2115:2120   */\n      dup2\n        /* \"#utility.yul\":2109:2121   */\n      mload\n        /* \"#utility.yul\":2099:2121   */\n      swap1\n      pop\n        /* \"#utility.yul\":2029:2128   */\n      swap2\n      swap1\n      pop\n      jump\t// out\n        /* \"#utility.yul\":2134:2303   */\n    tag_56:\n        /* \"#utility.yul\":2218:2229   */\n      0x00\n        /* \"#utility.yul\":2252:2258   */\n      dup3\n        /* \"#utility.yul\":2247:2250   */\n      dup3\n        /* \"#utility.yul\":2240:2259   */\n      mstore\n        /* \"#utility.yul\":2292:2296   */\n      0x20\n        /* \"#utility.yul\":2287:2290   */\n      dup3\n        /* \"#utility.yul\":2283:2297   */\n      add\n        /* \"#utility.yul\":2268:2297   */\n      swap1\n      pop\n        /* \"#utility.yul\":2134:2303   */\n      swap3\n      swap2\n      pop\n      pop\n      jump\t// out\n        /* \"#utility.yul\":2309:2616   */\n    tag_57:\n        /* \"#utility.yul\":2377:2378   */\n      0x00\n        /* \"#utility.yul\":2387:2500   */\n    tag_110:\n        /* \"#utility.yul\":2401:2407   */\n      dup4\n        /* \"#utility.yul\":2398:2399   */\n      dup2\n        /* \"#utility.yul\":2395:2408   */\n      lt\n        /* \"#utility.yul\":2387:2500   */\n      iszero\n      tag_112\n      jumpi\n        /* \"#utility.yul\":2486:2487   */\n      dup1\n        /* \"#utility.yul\":2481:2484   */\n      dup3\n        /* \"#utility.yul\":2477:2488   */\n      add\n        /* \"#utility.yul\":2471:2489   */\n      mload\n        /* \"#utility.yul\":2467:2468   */\n      dup2\n        /* \"#utility.yul\":2462:2465   */\n      dup5\n        /* \"#utility.yul\":2458:2469   */\n      add\n        /* \"#utility.yul\":2451:2490   */\n      mstore\n        /* \"#utility.yul\":2423:2425   */\n      0x20\n        /* \"#utility.yul\":2420:2421   */\n      dup2\n        /* \"#utility.yul\":2416:2426   */\n      add\n        /* \"#utility.yul\":2411:2426   */\n      swap1\n      pop\n        /* \"#utility.yul\":2387:2500   */\n      jump(tag_110)\n    tag_112:\n        /* \"#utility.yul\":2518:2524   */\n      dup4\n        /* \"#utility.yul\":2515:2516   */\n      dup2\n        /* \"#utility.yul\":2512:2525   */\n      gt\n        /* \"#utility.yul\":2509:2610   */\n      iszero\n      tag_113\n      jumpi\n        /* \"#utility.yul\":2598:2599   */\n      0x00\n        /* \"#utility.yul\":2589:2595   */\n      dup5\n        /* \"#utility.yul\":2584:2587   */\n      dup5\n        /* \"#utility.yul\":2580:2596   */\n      add\n        /* \"#utility.yul\":2573:2600   */\n      mstore\n        /* \"#utility.yul\":2509:2610   */\n    tag_113:\n        /* \"#utility.yul\":2358:2616   */\n      pop\n        /* \"#utility.yul\":2309:2616   */\n      pop\n      pop\n      pop\n      jump\t// out\n        /* \"#utility.yul\":2622:2724   */\n    tag_58:\n        /* \"#utility.yul\":2663:2669   */\n      0x00\n        /* \"#utility.yul\":2714:2716   */\n      0x1f\n        /* \"#utility.yul\":2710:2717   */\n      not\n        /* \"#utility.yul\":2705:2707   */\n      0x1f\n        /* \"#utility.yul\":2698:2703   */\n      dup4\n        /* \"#utility.yul\":2694:2708   */\n      add\n        /* \"#utility.yul\":2690:2718   */\n      and\n        /* \"#utility.yul\":2680:2718   */\n      swap1\n      pop\n        /* \"#utility.yul\":2622:2724   */\n      swap2\n      swap1\n      pop\n      jump\t// out\n        /* \"#utility.yul\":2730:3094   */\n    tag_59:\n        /* \"#utility.yul\":2818:2821   */\n      0x00\n        /* \"#utility.yul\":2846:2885   */\n      tag_116\n        /* \"#utility.yul\":2879:2884   */\n      dup3\n        /* \"#utility.yul\":2846:2885   */\n      tag_55\n      jump\t// in\n    tag_116:\n        /* \"#utility.yul\":2901:2972   */\n      tag_117\n        /* \"#utility.yul\":2965:2971   */\n      dup2\n        /* \"#utility.yul\":2960:2963   */\n      dup6\n        /* \"#utility.yul\":2901:2972   */\n      tag_56\n      jump\t// in\n    tag_117:\n        /* \"#utility.yul\":2894:2972   */\n      swap4\n      pop\n        /* \"#utility.yul\":2981:3033   */\n      tag_118\n        /* \"#utility.yul\":3026:3032   */\n      dup2\n        /* \"#utility.yul\":3021:3024   */\n      dup6\n        /* \"#utility.yul\":3014:3018   */\n      0x20\n        /* \"#utility.yul\":3007:3012   */\n      dup7\n        /* \"#utility.yul\":3003:3019   */\n      add\n        /* \"#utility.yul\":2981:3033   */\n      tag_57\n      jump\t// in\n    tag_118:\n        /* \"#utility.yul\":3058:3087   */\n      tag_119\n        /* \"#utility.yul\":3080:3086   */\n      dup2\n        /* \"#utility.yul\":3058:3087   */\n      tag_58\n      jump\t// in\n    tag_119:\n        /* \"#utility.yul\":3053:3056   */\n      dup5\n        /* \"#utility.yul\":3049:3088   */\n      add\n        /* \"#utility.yul\":3042:3088   */\n      swap2\n      pop\n        /* \"#utility.yul\":2822:3094   */\n      pop\n        /* \"#utility.yul\":2730:3094   */\n      swap3\n      swap2\n      pop\n      pop\n      jump\t// out\n        /* \"#utility.yul\":3100:3413   */\n    tag_25:\n        /* \"#utility.yul\":3213:3217   */\n      0x00\n        /* \"#utility.yul\":3251:3253   */\n      0x20\n        /* \"#utility.yul\":3240:3249   */\n      dup3\n        /* \"#utility.yul\":3236:3254   */\n      add\n        /* \"#utility.yul\":3228:3254   */\n      swap1\n      pop\n        /* \"#utility.yul\":3300:3309   */\n      dup2\n        /* \"#utility.yul\":3294:3298   */\n      dup2\n        /* \"#utility.yul\":3290:3310   */\n      sub\n        /* \"#utility.yul\":3286:3287   */\n      0x00\n        /* \"#utility.yul\":3275:3284   */\n      dup4\n        /* \"#utility.yul\":3271:3288   */\n      add\n        /* \"#utility.yul\":3264:3311   */\n      mstore\n        /* \"#utility.yul\":3328:3406   */\n      tag_121\n        /* \"#utility.yul\":3401:3405   */\n      dup2\n        /* \"#utility.yul\":3392:3398   */\n      dup5\n        /* \"#utility.yul\":3328:3406   */\n      tag_59\n      jump\t// in\n    tag_121:\n        /* \"#utility.yul\":3320:3406   */\n      swap1\n      pop\n        /* \"#utility.yul\":3100:3413   */\n      swap3\n      swap2\n      pop\n      pop\n      jump\t// out\n        /* \"#utility.yul\":3419:3597   */\n    tag_60:\n        /* \"#utility.yul\":3559:3589   */\n      0x2054686973206164647265737320646f65736e27742065786973747300000000\n        /* \"#utility.yul\":3555:3556   */\n      0x00\n        /* \"#utility.yul\":3547:3553   */\n      dup3\n        /* \"#utility.yul\":3543:3557   */\n      add\n        /* \"#utility.yul\":3536:3590   */\n      mstore\n        /* \"#utility.yul\":3419:3597   */\n      pop\n      jump\t// out\n        /* \"#utility.yul\":3603:3969   */\n    tag_61:\n        /* \"#utility.yul\":3745:3748   */\n      0x00\n        /* \"#utility.yul\":3766:3833   */\n      tag_124\n        /* \"#utility.yul\":3830:3832   */\n      0x1c\n        /* \"#utility.yul\":3825:3828   */\n      dup4\n        /* \"#utility.yul\":3766:3833   */\n      tag_56\n      jump\t// in\n    tag_124:\n        /* \"#utility.yul\":3759:3833   */\n      swap2\n      pop\n        /* \"#utility.yul\":3842:3935   */\n      tag_125\n        /* \"#utility.yul\":3931:3934   */\n      dup3\n        /* \"#utility.yul\":3842:3935   */\n      tag_60\n      jump\t// in\n    tag_125:\n        /* \"#utility.yul\":3960:3962   */\n      0x20\n        /* \"#utility.yul\":3955:3958   */\n      dup3\n        /* \"#utility.yul\":3951:3963   */\n      add\n        /* \"#utility.yul\":3944:3963   */\n      swap1\n      pop\n        /* \"#utility.yul\":3603:3969   */\n      swap2\n      swap1\n      pop\n      jump\t// out\n        /* \"#utility.yul\":3975:4394   */\n    tag_29:\n        /* \"#utility.yul\":4141:4145   */\n      0x00\n        /* \"#utility.yul\":4179:4181   */\n      0x20\n        /* \"#utility.yul\":4168:4177   */\n      dup3\n        /* \"#utility.yul\":4164:4182   */\n      add\n        /* \"#utility.yul\":4156:4182   */\n      swap1\n      pop\n        /* \"#utility.yul\":4228:4237   */\n      dup2\n        /* \"#utility.yul\":4222:4226   */\n      dup2\n        /* \"#utility.yul\":4218:4238   */\n      sub\n        /* \"#utility.yul\":4214:4215   */\n      0x00\n        /* \"#utility.yul\":4203:4212   */\n      dup4\n        /* \"#utility.yul\":4199:4216   */\n      add\n        /* \"#utility.yul\":4192:4239   */\n      mstore\n        /* \"#utility.yul\":4256:4387   */\n      tag_127\n        /* \"#utility.yul\":4382:4386   */\n      dup2\n        /* \"#utility.yul\":4256:4387   */\n      tag_61\n      jump\t// in\n    tag_127:\n        /* \"#utility.yul\":4248:4387   */\n      swap1\n      pop\n        /* \"#utility.yul\":3975:4394   */\n      swap2\n      swap1\n      pop\n      jump\t// out\n        /* \"#utility.yul\":4400:4580   */\n    tag_62:\n        /* \"#utility.yul\":4448:4525   */\n      0x4e487b7100000000000000000000000000000000000000000000000000000000\n        /* \"#utility.yul\":4445:4446   */\n      0x00\n        /* \"#utility.yul\":4438:4526   */\n      mstore\n        /* \"#utility.yul\":4545:4549   */\n      0x11\n        /* \"#utility.yul\":4542:4543   */\n      0x04\n        /* \"#utility.yul\":4535:4550   */\n      mstore\n        /* \"#utility.yul\":4569:4573   */\n      0x24\n        /* \"#utility.yul\":4566:4567   */\n      0x00\n        /* \"#utility.yul\":4559:4574   */\n      revert\n        /* \"#utility.yul\":4586:4777   */\n    tag_34:\n        /* \"#utility.yul\":4626:4630   */\n      0x00\n        /* \"#utility.yul\":4646:4666   */\n      tag_130\n        /* \"#utility.yul\":4664:4665   */\n      dup3\n        /* \"#utility.yul\":4646:4666   */\n      tag_47\n      jump\t// in\n    tag_130:\n        /* \"#utility.yul\":4641:4666   */\n      swap2\n      pop\n        /* \"#utility.yul\":4680:4700   */\n      tag_131\n        /* \"#utility.yul\":4698:4699   */\n      dup4\n        /* \"#utility.yul\":4680:4700   */\n      tag_47\n      jump\t// in\n    tag_131:\n        /* \"#utility.yul\":4675:4700   */\n      swap3\n      pop\n        /* \"#utility.yul\":4719:4720   */\n      dup3\n        /* \"#utility.yul\":4716:4717   */\n      dup3\n        /* \"#utility.yul\":4713:4721   */\n      lt\n        /* \"#utility.yul\":4710:4744   */\n      iszero\n      tag_132\n      jumpi\n        /* \"#utility.yul\":4724:4742   */\n      tag_133\n      tag_62\n      jump\t// in\n    tag_133:\n        /* \"#utility.yul\":4710:4744   */\n    tag_132:\n        /* \"#utility.yul\":4769:4770   */\n      dup3\n        /* \"#utility.yul\":4766:4767   */\n      dup3\n        /* \"#utility.yul\":4762:4771   */\n      sub\n        /* \"#utility.yul\":4754:4771   */\n      swap1\n      pop\n        /* \"#utility.yul\":4586:4777   */\n      swap3\n      swap2\n      pop\n      pop\n      jump\t// out\n        /* \"#utility.yul\":4783:4963   */\n    tag_63:\n        /* \"#utility.yul\":4831:4908   */\n      0x4e487b7100000000000000000000000000000000000000000000000000000000\n        /* \"#utility.yul\":4828:4829   */\n      0x00\n        /* \"#utility.yul\":4821:4909   */\n      mstore\n        /* \"#utility.yul\":4928:4932   */\n      0x41\n        /* \"#utility.yul\":4925:4926   */\n      0x04\n        /* \"#utility.yul\":4918:4933   */\n      mstore\n        /* \"#utility.yul\":4952:4956   */\n      0x24\n        /* \"#utility.yul\":4949:4950   */\n      0x00\n        /* \"#utility.yul\":4942:4957   */\n      revert\n        /* \"#utility.yul\":4969:5149   */\n    tag_64:\n        /* \"#utility.yul\":5017:5094   */\n      0x4e487b7100000000000000000000000000000000000000000000000000000000\n        /* \"#utility.yul\":5014:5015   */\n      0x00\n        /* \"#utility.yul\":5007:5095   */\n      mstore\n        /* \"#utility.yul\":5114:5118   */\n      0x22\n        /* \"#utility.yul\":5111:5112   */\n      0x04\n        /* \"#utility.yul\":5104:5119   */\n      mstore\n        /* \"#utility.yul\":5138:5142   */\n      0x24\n        /* \"#utility.yul\":5135:5136   */\n      0x00\n        /* \"#utility.yul\":5128:5143   */\n      revert\n        /* \"#utility.yul\":5155:5475   */\n    tag_39:\n        /* \"#utility.yul\":5199:5205   */\n      0x00\n        /* \"#utility.yul\":5236:5237   */\n      0x02\n        /* \"#utility.yul\":5230:5234   */\n      dup3\n        /* \"#utility.yul\":5226:5238   */\n      div\n        /* \"#utility.yul\":5216:5238   */\n      swap1\n      pop\n        /* \"#utility.yul\":5283:5284   */\n      0x01\n        /* \"#utility.yul\":5277:5281   */\n      dup3\n        /* \"#utility.yul\":5273:5285   */\n      and\n        /* \"#utility.yul\":5304:5322   */\n      dup1\n        /* \"#utility.yul\":5294:5375   */\n      tag_137\n      jumpi\n        /* \"#utility.yul\":5360:5364   */\n      0x7f\n        /* \"#utility.yul\":5352:5358   */\n      dup3\n        /* \"#utility.yul\":5348:5365   */\n      and\n        /* \"#utility.yul\":5338:5365   */\n      swap2\n      pop\n        /* \"#utility.yul\":5294:5375   */\n    tag_137:\n        /* \"#utility.yul\":5422:5424   */\n      0x20\n        /* \"#utility.yul\":5414:5420   */\n      dup3\n        /* \"#utility.yul\":5411:5425   */\n      lt\n        /* \"#utility.yul\":5391:5409   */\n      dup2\n        /* \"#utility.yul\":5388:5426   */\n      sub\n        /* \"#utility.yul\":5385:5469   */\n      tag_138\n      jumpi\n        /* \"#utility.yul\":5441:5459   */\n      tag_139\n      tag_64\n      jump\t// in\n    tag_139:\n        /* \"#utility.yul\":5385:5469   */\n    tag_138:\n        /* \"#utility.yul\":5206:5475   */\n      pop\n        /* \"#utility.yul\":5155:5475   */\n      swap2\n      swap1\n      pop\n      jump\t// out\n        /* \"#utility.yul\":5481:5622   */\n    tag_65:\n        /* \"#utility.yul\":5530:5534   */\n      0x00\n        /* \"#utility.yul\":5553:5556   */\n      dup2\n        /* \"#utility.yul\":5545:5556   */\n      swap1\n      pop\n        /* \"#utility.yul\":5576:5579   */\n      dup2\n        /* \"#utility.yul\":5573:5574   */\n      0x00\n        /* \"#utility.yul\":5566:5580   */\n      mstore\n        /* \"#utility.yul\":5610:5614   */\n      0x20\n        /* \"#utility.yul\":5607:5608   */\n      0x00\n        /* \"#utility.yul\":5597:5615   */\n      keccak256\n        /* \"#utility.yul\":5589:5615   */\n      swap1\n      pop\n        /* \"#utility.yul\":5481:5622   */\n      swap2\n      swap1\n      pop\n      jump\t// out\n        /* \"#utility.yul\":5628:5721   */\n    tag_66:\n        /* \"#utility.yul\":5665:5671   */\n      0x00\n        /* \"#utility.yul\":5712:5714   */\n      0x20\n        /* \"#utility.yul\":5707:5709   */\n      0x1f\n        /* \"#utility.yul\":5700:5705   */\n      dup4\n        /* \"#utility.yul\":5696:5710   */\n      add\n        /* \"#utility.yul\":5692:5715   */\n      div\n        /* \"#utility.yul\":5682:5715   */\n      swap1\n      pop\n        /* \"#utility.yul\":5628:5721   */\n      swap2\n      swap1\n      pop\n      jump\t// out\n        /* \"#utility.yul\":5727:5834   */\n    tag_67:\n        /* \"#utility.yul\":5771:5779   */\n      0x00\n        /* \"#utility.yul\":5821:5826   */\n      dup3\n        /* \"#utility.yul\":5815:5819   */\n      dup3\n        /* \"#utility.yul\":5811:5827   */\n      shl\n        /* \"#utility.yul\":5790:5827   */\n      swap1\n      pop\n        /* \"#utility.yul\":5727:5834   */\n      swap3\n      swap2\n      pop\n      pop\n      jump\t// out\n        /* \"#utility.yul\":5840:6233   */\n    tag_68:\n        /* \"#utility.yul\":5909:5915   */\n      0x00\n        /* \"#utility.yul\":5959:5960   */\n      0x08\n        /* \"#utility.yul\":5947:5957   */\n      dup4\n        /* \"#utility.yul\":5943:5961   */\n      mul\n        /* \"#utility.yul\":5982:6079   */\n      tag_144\n        /* \"#utility.yul\":6012:6078   */\n      0xffffffffffffffffffffffffffffffffffffffffffffffffffffffffffffffff\n        /* \"#utility.yul\":6001:6010   */\n      dup3\n        /* \"#utility.yul\":5982:6079   */\n      tag_67\n      jump\t// in\n    tag_144:\n        /* \"#utility.yul\":6100:6139   */\n      tag_145\n        /* \"#utility.yul\":6130:6138   */\n      dup7\n        /* \"#utility.yul\":6119:6128   */\n      dup4\n        /* \"#utility.yul\":6100:6139   */\n      tag_67\n      jump\t// in\n    tag_145:\n        /* \"#utility.yul\":6088:6139   */\n      swap6\n      pop\n        /* \"#utility.yul\":6172:6176   */\n      dup1\n        /* \"#utility.yul\":6168:6177   */\n      not\n        /* \"#utility.yul\":6161:6166   */\n      dup5\n        /* \"#utility.yul\":6157:6178   */\n      and\n        /* \"#utility.yul\":6148:6178   */\n      swap4\n      pop\n        /* \"#utility.yul\":6221:6225   */\n      dup1\n        /* \"#utility.yul\":6211:6219   */\n      dup7\n        /* \"#utility.yul\":6207:6226   */\n      and\n        /* \"#utility.yul\":6200:6205   */\n      dup5\n        /* \"#utility.yul\":6197:6227   */\n      or\n        /* \"#utility.yul\":6187:6227   */\n      swap3\n      pop\n        /* \"#utility.yul\":5916:6233   */\n      pop\n      pop\n        /* \"#utility.yul\":5840:6233   */\n      swap4\n      swap3\n      pop\n      pop\n      pop\n      jump\t// out\n        /* \"#utility.yul\":6239:6299   */\n    tag_69:\n        /* \"#utility.yul\":6267:6270   */\n      0x00\n        /* \"#utility.yul\":6288:6293   */\n      dup2\n        /* \"#utility.yul\":6281:6293   */\n      swap1\n      pop\n        /* \"#utility.yul\":6239:6299   */\n      swap2\n      swap1\n      pop\n      jump\t// out\n        /* \"#utility.yul\":6305:6447   */\n    tag_70:\n        /* \"#utility.yul\":6355:6364   */\n      0x00\n        /* \"#utility.yul\":6388:6441   */\n      tag_148\n        /* \"#utility.yul\":6406:6440   */\n      tag_149\n        /* \"#utility.yul\":6415:6439   */\n      tag_150\n        /* \"#utility.yul\":6433:6438   */\n      dup5\n        /* \"#utility.yul\":6415:6439   */\n      tag_47\n      jump\t// in\n    tag_150:\n        /* \"#utility.yul\":6406:6440   */\n      tag_69\n      jump\t// in\n    tag_149:\n        /* \"#utility.yul\":6388:6441   */\n      tag_47\n      jump\t// in\n    tag_148:\n        /* \"#utility.yul\":6375:6441   */\n      swap1\n      pop\n        /* \"#utility.yul\":6305:6447   */\n      swap2\n      swap1\n      pop\n      jump\t// out\n        /* \"#utility.yul\":6453:6528   */\n    tag_71:\n        /* \"#utility.yul\":6496:6499   */\n      0x00\n        /* \"#utility.yul\":6517:6522   */\n      dup2\n        /* \"#utility.yul\":6510:6522   */\n      swap1\n      pop\n        /* \"#utility.yul\":6453:6528   */\n      swap2\n      swap1\n      pop\n      jump\t// out\n        /* \"#utility.yul\":6534:6803   */\n    tag_72:\n        /* \"#utility.yul\":6644:6683   */\n      tag_153\n        /* \"#utility.yul\":6675:6682   */\n      dup4\n        /* \"#utility.yul\":6644:6683   */\n      tag_70\n      jump\t// in\n    tag_153:\n        /* \"#utility.yul\":6705:6796   */\n      tag_154\n        /* \"#utility.yul\":6754:6795   */\n      tag_155\n        /* \"#utility.yul\":6778:6794   */\n      dup3\n        /* \"#utility.yul\":6754:6795   */\n      tag_71\n      jump\t// in\n    tag_155:\n        /* \"#utility.yul\":6746:6752   */\n      dup5\n        /* \"#utility.yul\":6739:6743   */\n      dup5\n        /* \"#utility.yul\":6733:6744   */\n      sload\n        /* \"#utility.yul\":6705:6796   */\n      tag_68\n      jump\t// in\n    tag_154:\n        /* \"#utility.yul\":6699:6703   */\n      dup3\n        /* \"#utility.yul\":6692:6797   */\n      sstore\n        /* \"#utility.yul\":6610:6803   */\n      pop\n        /* \"#utility.yul\":6534:6803   */\n      pop\n      pop\n      pop\n      jump\t// out\n        /* \"#utility.yul\":6809:6882   */\n    tag_73:\n        /* \"#utility.yul\":6854:6857   */\n      0x00\n        /* \"#utility.yul\":6809:6882   */\n      swap1\n      jump\t// out\n        /* \"#utility.yul\":6888:7077   */\n    tag_74:\n        /* \"#utility.yul\":6965:6997   */\n      tag_158\n      tag_73\n      jump\t// in\n    tag_158:\n        /* \"#utility.yul\":7006:7071   */\n      tag_159\n        /* \"#utility.yul\":7064:7070   */\n      dup2\n        /* \"#utility.yul\":7056:7062   */\n      dup5\n        /* \"#utility.yul\":7050:7054   */\n      dup5\n        /* \"#utility.yul\":7006:7071   */\n      tag_72\n      jump\t// in\n    tag_159:\n        /* \"#utility.yul\":6941:7077   */\n      pop\n        /* \"#utility.yul\":6888:7077   */\n      pop\n      pop\n      jump\t// out\n        /* \"#utility.yul\":7083:7269   */\n    tag_75:\n        /* \"#utility.yul\":7143:7263   */\n    tag_161:\n        /* \"#utility.yul\":7160:7163   */\n      dup2\n        /* \"#utility.yul\":7153:7158   */\n      dup2\n        /* \"#utility.yul\":7150:7164   */\n      lt\n        /* \"#utility.yul\":7143:7263   */\n      iszero\n      tag_163\n      jumpi\n        /* \"#utility.yul\":7214:7253   */\n      tag_164\n        /* \"#utility.yul\":7251:7252   */\n      0x00\n        /* \"#utility.yul\":7244:7249   */\n      dup3\n        /* \"#utility.yul\":7214:7253   */\n      tag_74\n      jump\t// in\n    tag_164:\n        /* \"#utility.yul\":7187:7188   */\n      0x01\n        /* \"#utility.yul\":7180:7185   */\n      dup2\n        /* \"#utility.yul\":7176:7189   */\n      add\n        /* \"#utility.yul\":7167:7189   */\n      swap1\n      pop\n        /* \"#utility.yul\":7143:7263   */\n      jump(tag_161)\n    tag_163:\n        /* \"#utility.yul\":7083:7269   */\n      pop\n      pop\n      jump\t// out\n        /* \"#utility.yul\":7275:7818   */\n    tag_76:\n        /* \"#utility.yul\":7376:7378   */\n      0x1f\n        /* \"#utility.yul\":7371:7374   */\n      dup3\n        /* \"#utility.yul\":7368:7379   */\n      gt\n        /* \"#utility.yul\":7365:7811   */\n      iszero\n      tag_166\n      jumpi\n        /* \"#utility.yul\":7410:7448   */\n      tag_167\n        /* \"#utility.yul\":7442:7447   */\n      dup2\n        /* \"#utility.yul\":7410:7448   */\n      tag_65\n      jump\t// in\n    tag_167:\n        /* \"#utility.yul\":7494:7523   */\n      tag_168\n        /* \"#utility.yul\":7512:7522   */\n      dup5\n        /* \"#utility.yul\":7494:7523   */\n      tag_66\n      jump\t// in\n    tag_168:\n        /* \"#utility.yul\":7484:7492   */\n      dup2\n        /* \"#utility.yul\":7480:7524   */\n      add\n        /* \"#utility.yul\":7677:7679   */\n      0x20\n        /* \"#utility.yul\":7665:7675   */\n      dup6\n        /* \"#utility.yul\":7662:7680   */\n      lt\n        /* \"#utility.yul\":7659:7708   */\n      iszero\n      tag_169\n      jumpi\n        /* \"#utility.yul\":7698:7706   */\n      dup2\n        /* \"#utility.yul\":7683:7706   */\n      swap1\n      pop\n        /* \"#utility.yul\":7659:7708   */\n    tag_169:\n        /* \"#utility.yul\":7721:7801   */\n      tag_170\n        /* \"#utility.yul\":7777:7799   */\n      tag_171\n        /* \"#utility.yul\":7795:7798   */\n      dup6\n        /* \"#utility.yul\":7777:7799   */\n      tag_66\n      jump\t// in\n    tag_171:\n        /* \"#utility.yul\":7767:7775   */\n      dup4\n        /* \"#utility.yul\":7763:7800   */\n      add\n        /* \"#utility.yul\":7750:7761   */\n      dup3\n        /* \"#utility.yul\":7721:7801   */\n      tag_75\n      jump\t// in\n    tag_170:\n        /* \"#utility.yul\":7380:7811   */\n      pop\n      pop\n        /* \"#utility.yul\":7365:7811   */\n    tag_166:\n        /* \"#utility.yul\":7275:7818   */\n      pop\n      pop\n      pop\n      jump\t// out\n        /* \"#utility.yul\":7824:7941   */\n    tag_77:\n        /* \"#utility.yul\":7878:7886   */\n      0x00\n        /* \"#utility.yul\":7928:7933   */\n      dup3\n        /* \"#utility.yul\":7922:7926   */\n      dup3\n        /* \"#utility.yul\":7918:7934   */\n      shr\n        /* \"#utility.yul\":7897:7934   */\n      swap1\n      pop\n        /* \"#utility.yul\":7824:7941   */\n      swap3\n      swap2\n      pop\n      pop\n      jump\t// out\n        /* \"#utility.yul\":7947:8116   */\n    tag_78:\n        /* \"#utility.yul\":7991:7997   */\n      0x00\n        /* \"#utility.yul\":8024:8075   */\n      tag_174\n        /* \"#utility.yul\":8072:8073   */\n      0x00\n        /* \"#utility.yul\":8068:8074   */\n      not\n        /* \"#utility.yul\":8060:8065   */\n      dup5\n        /* \"#utility.yul\":8057:8058   */\n      0x08\n        /* \"#utility.yul\":8053:8066   */\n      mul\n        /* \"#utility.yul\":8024:8075   */\n      tag_77\n      jump\t// in\n    tag_174:\n        /* \"#utility.yul\":8020:8076   */\n      not\n        /* \"#utility.yul\":8105:8109   */\n      dup1\n        /* \"#utility.yul\":8099:8103   */\n      dup4\n        /* \"#utility.yul\":8095:8110   */\n      and\n        /* \"#utility.yul\":8085:8110   */\n      swap2\n      pop\n        /* \"#utility.yul\":7998:8116   */\n      pop\n        /* \"#utility.yul\":7947:8116   */\n      swap3\n      swap2\n      pop\n      pop\n      jump\t// out\n        /* \"#utility.yul\":8121:8416   */\n    tag_79:\n        /* \"#utility.yul\":8197:8201   */\n      0x00\n        /* \"#utility.yul\":8343:8372   */\n      tag_176\n        /* \"#utility.yul\":8368:8371   */\n      dup4\n        /* \"#utility.yul\":8362:8366   */\n      dup4\n        /* \"#utility.yul\":8343:8372   */\n      tag_78\n      jump\t// in\n    tag_176:\n        /* \"#utility.yul\":8335:8372   */\n      swap2\n      pop\n        /* \"#utility.yul\":8405:8408   */\n      dup3\n        /* \"#utility.yul\":8402:8403   */\n      0x02\n        /* \"#utility.yul\":8398:8409   */\n      mul\n        /* \"#utility.yul\":8392:8396   */\n      dup3\n        /* \"#utility.yul\":8389:8410   */\n      or\n        /* \"#utility.yul\":8381:8410   */\n      swap1\n      pop\n        /* \"#utility.yul\":8121:8416   */\n      swap3\n      swap2\n      pop\n      pop\n      jump\t// out\n        /* \"#utility.yul\":8421:9816   */\n    tag_36:\n        /* \"#utility.yul\":8538:8575   */\n      tag_178\n        /* \"#utility.yul\":8571:8574   */\n      dup3\n        /* \"#utility.yul\":8538:8575   */\n      tag_55\n      jump\t// in\n    tag_178:\n        /* \"#utility.yul\":8640:8658   */\n      0xffffffffffffffff\n        /* \"#utility.yul\":8632:8638   */\n      dup2\n        /* \"#utility.yul\":8629:8659   */\n      gt\n        /* \"#utility.yul\":8626:8682   */\n      iszero\n      tag_179\n      jumpi\n        /* \"#utility.yul\":8662:8680   */\n      tag_180\n      tag_63\n      jump\t// in\n    tag_180:\n        /* \"#utility.yul\":8626:8682   */\n    tag_179:\n        /* \"#utility.yul\":8706:8744   */\n      tag_181\n        /* \"#utility.yul\":8738:8742   */\n      dup3\n        /* \"#utility.yul\":8732:8743   */\n      sload\n        /* \"#utility.yul\":8706:8744   */\n      tag_39\n      jump\t// in\n    tag_181:\n        /* \"#utility.yul\":8791:8858   */\n      tag_182\n        /* \"#utility.yul\":8851:8857   */\n      dup3\n        /* \"#utility.yul\":8843:8849   */\n      dup3\n        /* \"#utility.yul\":8837:8841   */\n      dup6\n        /* \"#utility.yul\":8791:8858   */\n      tag_76\n      jump\t// in\n    tag_182:\n        /* \"#utility.yul\":8885:8886   */\n      0x00\n        /* \"#utility.yul\":8909:8913   */\n      0x20\n        /* \"#utility.yul\":8896:8913   */\n      swap1\n      pop\n        /* \"#utility.yul\":8941:8943   */\n      0x1f\n        /* \"#utility.yul\":8933:8939   */\n      dup4\n        /* \"#utility.yul\":8930:8944   */\n      gt\n        /* \"#utility.yul\":8958:8959   */\n      0x01\n        /* \"#utility.yul\":8953:9571   */\n      dup2\n      eq\n      tag_184\n      jumpi\n        /* \"#utility.yul\":9615:9616   */\n      0x00\n        /* \"#utility.yul\":9632:9638   */\n      dup5\n        /* \"#utility.yul\":9629:9706   */\n      iszero\n      tag_185\n      jumpi\n        /* \"#utility.yul\":9681:9690   */\n      dup3\n        /* \"#utility.yul\":9676:9679   */\n      dup8\n        /* \"#utility.yul\":9672:9691   */\n      add\n        /* \"#utility.yul\":9666:9692   */\n      mload\n        /* \"#utility.yul\":9657:9692   */\n      swap1\n      pop\n        /* \"#utility.yul\":9629:9706   */\n    tag_185:\n        /* \"#utility.yul\":9732:9799   */\n      tag_186\n        /* \"#utility.yul\":9792:9798   */\n      dup6\n        /* \"#utility.yul\":9785:9790   */\n      dup3\n        /* \"#utility.yul\":9732:9799   */\n      tag_79\n      jump\t// in\n    tag_186:\n        /* \"#utility.yul\":9726:9730   */\n      dup7\n        /* \"#utility.yul\":9719:9800   */\n      sstore\n        /* \"#utility.yul\":9588:9810   */\n      pop\n        /* \"#utility.yul\":8923:9810   */\n      jump(tag_183)\n        /* \"#utility.yul\":8953:9571   */\n    tag_184:\n        /* \"#utility.yul\":9005:9009   */\n      0x1f\n        /* \"#utility.yul\":9001:9010   */\n      not\n        /* \"#utility.yul\":8993:8999   */\n      dup5\n        /* \"#utility.yul\":8989:9011   */\n      and\n        /* \"#utility.yul\":9039:9076   */\n      tag_187\n        /* \"#utility.yul\":9071:9075   */\n      dup7\n        /* \"#utility.yul\":9039:9076   */\n      tag_65\n      jump\t// in\n    tag_187:\n        /* \"#utility.yul\":9098:9099   */\n      0x00\n        /* \"#utility.yul\":9112:9320   */\n    tag_188:\n        /* \"#utility.yul\":9126:9133   */\n      dup3\n        /* \"#utility.yul\":9123:9124   */\n      dup2\n        /* \"#utility.yul\":9120:9134   */\n      lt\n        /* \"#utility.yul\":9112:9320   */\n      iszero\n      tag_190\n      jumpi\n        /* \"#utility.yul\":9205:9214   */\n      dup5\n        /* \"#utility.yul\":9200:9203   */\n      dup10\n        /* \"#utility.yul\":9196:9215   */\n      add\n        /* \"#utility.yul\":9190:9216   */\n      mload\n        /* \"#utility.yul\":9182:9188   */\n      dup3\n        /* \"#utility.yul\":9175:9217   */\n      sstore\n        /* \"#utility.yul\":9256:9257   */\n      0x01\n        /* \"#utility.yul\":9248:9254   */\n      dup3\n        /* \"#utility.yul\":9244:9258   */\n      add\n        /* \"#utility.yul\":9234:9258   */\n      swap2\n      pop\n        /* \"#utility.yul\":9303:9305   */\n      0x20\n        /* \"#utility.yul\":9292:9301   */\n      dup6\n        /* \"#utility.yul\":9288:9306   */\n      add\n        /* \"#utility.yul\":9275:9306   */\n      swap5\n      pop\n        /* \"#utility.yul\":9149:9153   */\n      0x20\n        /* \"#utility.yul\":9146:9147   */\n      dup2\n        /* \"#utility.yul\":9142:9154   */\n      add\n        /* \"#utility.yul\":9137:9154   */\n      swap1\n      pop\n        /* \"#utility.yul\":9112:9320   */\n      jump(tag_188)\n    tag_190:\n        /* \"#utility.yul\":9348:9354   */\n      dup7\n        /* \"#utility.yul\":9339:9346   */\n      dup4\n        /* \"#utility.yul\":9336:9355   */\n      lt\n        /* \"#utility.yul\":9333:9512   */\n      iszero\n      tag_191\n      jumpi\n        /* \"#utility.yul\":9406:9415   */\n      dup5\n        /* \"#utility.yul\":9401:9404   */\n      dup10\n        /* \"#utility.yul\":9397:9416   */\n      add\n        /* \"#utility.yul\":9391:9417   */\n      mload\n        /* \"#utility.yul\":9449:9497   */\n      tag_192\n        /* \"#utility.yul\":9491:9495   */\n      0x1f\n        /* \"#utility.yul\":9483:9489   */\n      dup10\n        /* \"#utility.yul\":9479:9496   */\n      and\n        /* \"#utility.yul\":9468:9477   */\n      dup3\n        /* \"#utility.yul\":9449:9497   */\n      tag_78\n      jump\t// in\n    tag_192:\n        /* \"#utility.yul\":9441:9447   */\n      dup4\n        /* \"#utility.yul\":9434:9498   */\n      sstore\n        /* \"#utility.yul\":9356:9512   */\n      pop\n        /* \"#utility.yul\":9333:9512   */\n    tag_191:\n        /* \"#utility.yul\":9558:9559   */\n      0x01\n        /* \"#utility.yul\":9554:9555   */\n      0x02\n        /* \"#utility.yul\":9546:9552   */\n      dup9\n        /* \"#utility.yul\":9542:9556   */\n      mul\n        /* \"#utility.yul\":9538:9560   */\n      add\n        /* \"#utility.yul\":9532:9536   */\n      dup9\n        /* \"#utility.yul\":9525:9561   */\n      sstore\n        /* \"#utility.yul\":8960:9571   */\n      pop\n      pop\n      pop\n        /* \"#utility.yul\":8923:9810   */\n    tag_183:\n      pop\n        /* \"#utility.yul\":8513:9816   */\n      pop\n      pop\n      pop\n        /* \"#utility.yul\":8421:9816   */\n      pop\n      pop\n      jump\t// out\n\n    auxdata: 0xa2646970667358221220a4337f2e19e63a51bc4445e4c9e727300919f30ac228289b6ccda4e8e01d807e64736f6c634300080f0033\n}\n",
				"bytecode": {
					"linkReferences": {},
					"object": "60806040526201518060035534801561001757600080fd5b5060405161099b38038061099b83398181016040528101906100399190610081565b80600181905550506100ae565b600080fd5b6000819050919050565b61005e8161004b565b811461006957600080fd5b50565b60008151905061007b81610055565b92915050565b60006020828403121561009757610096610046565b5b60006100a58482850161006c565b91505092915050565b6108de806100bd6000396000f3fe608060405234801561001057600080fd5b50600436106100575760003560e01c8063062a75441461005c5780637b9a3f4c1461007857806394b5dcaa14610096578063aa8c217c146100b4578063e21f37ce146100d2575b600080fd5b610076600480360381019061007191906103a7565b6100f0565b005b61008061026e565b60405161008d91906103f6565b60405180910390f35b61009e610274565b6040516100ab91906103f6565b60405180910390f35b6100bc61027a565b6040516100c991906103f6565b60405180910390f35b6100da610280565b6040516100e791906104aa565b60405180910390f35b8080600260006101000a81548173ffffffffffffffffffffffffffffffffffffffff021916908373ffffffffffffffffffffffffffffffffffffffff160217905550600073ffffffffffffffffffffffffffffffffffffffff168173ffffffffffffffffffffffffffffffffffffffff16036101a1576040517f08c379a000000000000000000000000000000000000000000000000000000000815260040161019890610518565b60405180910390fd5b81600260006101000a81548173ffffffffffffffffffffffffffffffffffffffff021916908373ffffffffffffffffffffffffffffffffffffffff1602179055508260008190555060006001541180156101fe5750600054600154115b1561026857600054600160008282546102179190610567565b925050819055506040518060400160405280601281526020017f5472616e7366657220636f6d706c6574656400000000000000000000000000008152506008908161026291906107d6565b50610269565b5b505050565b60015481565b60045481565b60005481565b6008805461028d906105f9565b80601f01602080910402602001604051908101604052809291908181526020018280546102b9906105f9565b80156103065780601f106102db57610100808354040283529160200191610306565b820191906000526020600020905b8154815290600101906020018083116102e957829003601f168201915b505050505081565b600080fd5b6000819050919050565b61032681610313565b811461033157600080fd5b50565b6000813590506103438161031d565b92915050565b600073ffffffffffffffffffffffffffffffffffffffff82169050919050565b600061037482610349565b9050919050565b61038481610369565b811461038f57600080fd5b50565b6000813590506103a18161037b565b92915050565b600080604083850312156103be576103bd61030e565b5b60006103cc85828601610334565b92505060206103dd85828601610392565b9150509250929050565b6103f081610313565b82525050565b600060208201905061040b60008301846103e7565b92915050565b600081519050919050565b600082825260208201905092915050565b60005b8381101561044b578082015181840152602081019050610430565b8381111561045a576000848401525b50505050565b6000601f19601f8301169050919050565b600061047c82610411565b610486818561041c565b935061049681856020860161042d565b61049f81610460565b840191505092915050565b600060208201905081810360008301526104c48184610471565b905092915050565b7f2054686973206164647265737320646f65736e27742065786973747300000000600082015250565b6000610502601c8361041c565b915061050d826104cc565b602082019050919050565b60006020820190508181036000830152610531816104f5565b9050919050565b7f4e487b7100000000000000000000000000000000000000000000000000000000600052601160045260246000fd5b600061057282610313565b915061057d83610313565b9250828210156105905761058f610538565b5b828203905092915050565b7f4e487b7100000000000000000000000000000000000000000000000000000000600052604160045260246000fd5b7f4e487b7100000000000000000000000000000000000000000000000000000000600052602260045260246000fd5b6000600282049050600182168061061157607f821691505b602082108103610624576106236105ca565b5b50919050565b60008190508160005260206000209050919050565b60006020601f8301049050919050565b600082821b905092915050565b60006008830261068c7fffffffffffffffffffffffffffffffffffffffffffffffffffffffffffffffff8261064f565b610696868361064f565b95508019841693508086168417925050509392505050565b6000819050919050565b60006106d36106ce6106c984610313565b6106ae565b610313565b9050919050565b6000819050919050565b6106ed836106b8565b6107016106f9826106da565b84845461065c565b825550505050565b600090565b610716610709565b6107218184846106e4565b505050565b5b818110156107455761073a60008261070e565b600181019050610727565b5050565b601f82111561078a5761075b8161062a565b6107648461063f565b81016020851015610773578190505b61078761077f8561063f565b830182610726565b50505b505050565b600082821c905092915050565b60006107ad6000198460080261078f565b1980831691505092915050565b60006107c6838361079c565b9150826002028217905092915050565b6107df82610411565b67ffffffffffffffff8111156107f8576107f761059b565b5b61080282546105f9565b61080d828285610749565b600060209050601f831160018114610840576000841561082e578287015190505b61083885826107ba565b8655506108a0565b601f19841661084e8661062a565b60005b8281101561087657848901518255600182019150602085019450602081019050610851565b86831015610893578489015161088f601f89168261079c565b8355505b6001600288020188555050505b50505050505056fea2646970667358221220a4337f2e19e63a51bc4445e4c9e727300919f30ac228289b6ccda4e8e01d807e64736f6c634300080f0033",
					"opcodes": "PUSH1 0x80 PUSH1 0x40 MSTORE PUSH3 0x15180 PUSH1 0x3 SSTORE CALLVALUE DUP1 ISZERO PUSH2 0x17 JUMPI PUSH1 0x0 DUP1 REVERT JUMPDEST POP PUSH1 0x40 MLOAD PUSH2 0x99B CODESIZE SUB DUP1 PUSH2 0x99B DUP4 CODECOPY DUP2 DUP2 ADD PUSH1 0x40 MSTORE DUP2 ADD SWAP1 PUSH2 0x39 SWAP2 SWAP1 PUSH2 0x81 JUMP JUMPDEST DUP1 PUSH1 0x1 DUP2 SWAP1 SSTORE POP POP PUSH2 0xAE JUMP JUMPDEST PUSH1 0x0 DUP1 REVERT JUMPDEST PUSH1 0x0 DUP2 SWAP1 POP SWAP2 SWAP1 POP JUMP JUMPDEST PUSH2 0x5E DUP2 PUSH2 0x4B JUMP JUMPDEST DUP2 EQ PUSH2 0x69 JUMPI PUSH1 0x0 DUP1 REVERT JUMPDEST POP JUMP JUMPDEST PUSH1 0x0 DUP2 MLOAD SWAP1 POP PUSH2 0x7B DUP2 PUSH2 0x55 JUMP JUMPDEST SWAP3 SWAP2 POP POP JUMP JUMPDEST PUSH1 0x0 PUSH1 0x20 DUP3 DUP5 SUB SLT ISZERO PUSH2 0x97 JUMPI PUSH2 0x96 PUSH2 0x46 JUMP JUMPDEST JUMPDEST PUSH1 0x0 PUSH2 0xA5 DUP5 DUP3 DUP6 ADD PUSH2 0x6C JUMP JUMPDEST SWAP2 POP POP SWAP3 SWAP2 POP POP JUMP JUMPDEST PUSH2 0x8DE DUP1 PUSH2 0xBD PUSH1 0x0 CODECOPY PUSH1 0x0 RETURN INVALID PUSH1 0x80 PUSH1 0x40 MSTORE CALLVALUE DUP1 ISZERO PUSH2 0x10 JUMPI PUSH1 0x0 DUP1 REVERT JUMPDEST POP PUSH1 0x4 CALLDATASIZE LT PUSH2 0x57 JUMPI PUSH1 0x0 CALLDATALOAD PUSH1 0xE0 SHR DUP1 PUSH4 0x62A7544 EQ PUSH2 0x5C JUMPI DUP1 PUSH4 0x7B9A3F4C EQ PUSH2 0x78 JUMPI DUP1 PUSH4 0x94B5DCAA EQ PUSH2 0x96 JUMPI DUP1 PUSH4 0xAA8C217C EQ PUSH2 0xB4 JUMPI DUP1 PUSH4 0xE21F37CE EQ PUSH2 0xD2 JUMPI JUMPDEST PUSH1 0x0 DUP1 REVERT JUMPDEST PUSH2 0x76 PUSH1 0x4 DUP1 CALLDATASIZE SUB DUP2 ADD SWAP1 PUSH2 0x71 SWAP2 SWAP1 PUSH2 0x3A7 JUMP JUMPDEST PUSH2 0xF0 JUMP JUMPDEST STOP JUMPDEST PUSH2 0x80 PUSH2 0x26E JUMP JUMPDEST PUSH1 0x40 MLOAD PUSH2 0x8D SWAP2 SWAP1 PUSH2 0x3F6 JUMP JUMPDEST PUSH1 0x40 MLOAD DUP1 SWAP2 SUB SWAP1 RETURN JUMPDEST PUSH2 0x9E PUSH2 0x274 JUMP JUMPDEST PUSH1 0x40 MLOAD PUSH2 0xAB SWAP2 SWAP1 PUSH2 0x3F6 JUMP JUMPDEST PUSH1 0x40 MLOAD DUP1 SWAP2 SUB SWAP1 RETURN JUMPDEST PUSH2 0xBC PUSH2 0x27A JUMP JUMPDEST PUSH1 0x40 MLOAD PUSH2 0xC9 SWAP2 SWAP1 PUSH2 0x3F6 JUMP JUMPDEST PUSH1 0x40 MLOAD DUP1 SWAP2 SUB SWAP1 RETURN JUMPDEST PUSH2 0xDA PUSH2 0x280 JUMP JUMPDEST PUSH1 0x40 MLOAD PUSH2 0xE7 SWAP2 SWAP1 PUSH2 0x4AA JUMP JUMPDEST PUSH1 0x40 MLOAD DUP1 SWAP2 SUB SWAP1 RETURN JUMPDEST DUP1 DUP1 PUSH1 0x2 PUSH1 0x0 PUSH2 0x100 EXP DUP2 SLOAD DUP2 PUSH20 0xFFFFFFFFFFFFFFFFFFFFFFFFFFFFFFFFFFFFFFFF MUL NOT AND SWAP1 DUP4 PUSH20 0xFFFFFFFFFFFFFFFFFFFFFFFFFFFFFFFFFFFFFFFF AND MUL OR SWAP1 SSTORE POP PUSH1 0x0 PUSH20 0xFFFFFFFFFFFFFFFFFFFFFFFFFFFFFFFFFFFFFFFF AND DUP2 PUSH20 0xFFFFFFFFFFFFFFFFFFFFFFFFFFFFFFFFFFFFFFFF AND SUB PUSH2 0x1A1 JUMPI PUSH1 0x40 MLOAD PUSH32 0x8C379A000000000000000000000000000000000000000000000000000000000 DUP2 MSTORE PUSH1 0x4 ADD PUSH2 0x198 SWAP1 PUSH2 0x518 JUMP JUMPDEST PUSH1 0x40 MLOAD DUP1 SWAP2 SUB SWAP1 REVERT JUMPDEST DUP2 PUSH1 0x2 PUSH1 0x0 PUSH2 0x100 EXP DUP2 SLOAD DUP2 PUSH20 0xFFFFFFFFFFFFFFFFFFFFFFFFFFFFFFFFFFFFFFFF MUL NOT AND SWAP1 DUP4 PUSH20 0xFFFFFFFFFFFFFFFFFFFFFFFFFFFFFFFFFFFFFFFF AND MUL OR SWAP1 SSTORE POP DUP3 PUSH1 0x0 DUP2 SWAP1 SSTORE POP PUSH1 0x0 PUSH1 0x1 SLOAD GT DUP1 ISZERO PUSH2 0x1FE JUMPI POP PUSH1 0x0 SLOAD PUSH1 0x1 SLOAD GT JUMPDEST ISZERO PUSH2 0x268 JUMPI PUSH1 0x0 SLOAD PUSH1 0x1 PUSH1 0x0 DUP3 DUP3 SLOAD PUSH2 0x217 SWAP2 SWAP1 PUSH2 0x567 JUMP JUMPDEST SWAP3 POP POP DUP2 SWAP1 SSTORE POP PUSH1 0x40 MLOAD DUP1 PUSH1 0x40 ADD PUSH1 0x40 MSTORE DUP1 PUSH1 0x12 DUP2 MSTORE PUSH1 0x20 ADD PUSH32 0x5472616E7366657220636F6D706C657465640000000000000000000000000000 DUP2 MSTORE POP PUSH1 0x8 SWAP1 DUP2 PUSH2 0x262 SWAP2 SWAP1 PUSH2 0x7D6 JUMP JUMPDEST POP PUSH2 0x269 JUMP JUMPDEST JUMPDEST POP POP POP JUMP JUMPDEST PUSH1 0x1 SLOAD DUP2 JUMP JUMPDEST PUSH1 0x4 SLOAD DUP2 JUMP JUMPDEST PUSH1 0x0 SLOAD DUP2 JUMP JUMPDEST PUSH1 0x8 DUP1 SLOAD PUSH2 0x28D SWAP1 PUSH2 0x5F9 JUMP JUMPDEST DUP1 PUSH1 0x1F ADD PUSH1 0x20 DUP1 SWAP2 DIV MUL PUSH1 0x20 ADD PUSH1 0x40 MLOAD SWAP1 DUP2 ADD PUSH1 0x40 MSTORE DUP1 SWAP3 SWAP2 SWAP1 DUP2 DUP2 MSTORE PUSH1 0x20 ADD DUP3 DUP1 SLOAD PUSH2 0x2B9 SWAP1 PUSH2 0x5F9 JUMP JUMPDEST DUP1 ISZERO PUSH2 0x306 JUMPI DUP1 PUSH1 0x1F LT PUSH2 0x2DB JUMPI PUSH2 0x100 DUP1 DUP4 SLOAD DIV MUL DUP4 MSTORE SWAP2 PUSH1 0x20 ADD SWAP2 PUSH2 0x306 JUMP JUMPDEST DUP3 ADD SWAP2 SWAP1 PUSH1 0x0 MSTORE PUSH1 0x20 PUSH1 0x0 KECCAK256 SWAP1 JUMPDEST DUP2 SLOAD DUP2 MSTORE SWAP1 PUSH1 0x1 ADD SWAP1 PUSH1 0x20 ADD DUP1 DUP4 GT PUSH2 0x2E9 JUMPI DUP3 SWAP1 SUB PUSH1 0x1F AND DUP3 ADD SWAP2 JUMPDEST POP POP POP POP POP DUP2 JUMP JUMPDEST PUSH1 0x0 DUP1 REVERT JUMPDEST PUSH1 0x0 DUP2 SWAP1 POP SWAP2 SWAP1 POP JUMP JUMPDEST PUSH2 0x326 DUP2 PUSH2 0x313 JUMP JUMPDEST DUP2 EQ PUSH2 0x331 JUMPI PUSH1 0x0 DUP1 REVERT JUMPDEST POP JUMP JUMPDEST PUSH1 0x0 DUP2 CALLDATALOAD SWAP1 POP PUSH2 0x343 DUP2 PUSH2 0x31D JUMP JUMPDEST SWAP3 SWAP2 POP POP JUMP JUMPDEST PUSH1 0x0 PUSH20 0xFFFFFFFFFFFFFFFFFFFFFFFFFFFFFFFFFFFFFFFF DUP3 AND SWAP1 POP SWAP2 SWAP1 POP JUMP JUMPDEST PUSH1 0x0 PUSH2 0x374 DUP3 PUSH2 0x349 JUMP JUMPDEST SWAP1 POP SWAP2 SWAP1 POP JUMP JUMPDEST PUSH2 0x384 DUP2 PUSH2 0x369 JUMP JUMPDEST DUP2 EQ PUSH2 0x38F JUMPI PUSH1 0x0 DUP1 REVERT JUMPDEST POP JUMP JUMPDEST PUSH1 0x0 DUP2 CALLDATALOAD SWAP1 POP PUSH2 0x3A1 DUP2 PUSH2 0x37B JUMP JUMPDEST SWAP3 SWAP2 POP POP JUMP JUMPDEST PUSH1 0x0 DUP1 PUSH1 0x40 DUP4 DUP6 SUB SLT ISZERO PUSH2 0x3BE JUMPI PUSH2 0x3BD PUSH2 0x30E JUMP JUMPDEST JUMPDEST PUSH1 0x0 PUSH2 0x3CC DUP6 DUP3 DUP7 ADD PUSH2 0x334 JUMP JUMPDEST SWAP3 POP POP PUSH1 0x20 PUSH2 0x3DD DUP6 DUP3 DUP7 ADD PUSH2 0x392 JUMP JUMPDEST SWAP2 POP POP SWAP3 POP SWAP3 SWAP1 POP JUMP JUMPDEST PUSH2 0x3F0 DUP2 PUSH2 0x313 JUMP JUMPDEST DUP3 MSTORE POP POP JUMP JUMPDEST PUSH1 0x0 PUSH1 0x20 DUP3 ADD SWAP1 POP PUSH2 0x40B PUSH1 0x0 DUP4 ADD DUP5 PUSH2 0x3E7 JUMP JUMPDEST SWAP3 SWAP2 POP POP JUMP JUMPDEST PUSH1 0x0 DUP2 MLOAD SWAP1 POP SWAP2 SWAP1 POP JUMP JUMPDEST PUSH1 0x0 DUP3 DUP3 MSTORE PUSH1 0x20 DUP3 ADD SWAP1 POP SWAP3 SWAP2 POP POP JUMP JUMPDEST PUSH1 0x0 JUMPDEST DUP4 DUP2 LT ISZERO PUSH2 0x44B JUMPI DUP1 DUP3 ADD MLOAD DUP2 DUP5 ADD MSTORE PUSH1 0x20 DUP2 ADD SWAP1 POP PUSH2 0x430 JUMP JUMPDEST DUP4 DUP2 GT ISZERO PUSH2 0x45A JUMPI PUSH1 0x0 DUP5 DUP5 ADD MSTORE JUMPDEST POP POP POP POP JUMP JUMPDEST PUSH1 0x0 PUSH1 0x1F NOT PUSH1 0x1F DUP4 ADD AND SWAP1 POP SWAP2 SWAP1 POP JUMP JUMPDEST PUSH1 0x0 PUSH2 0x47C DUP3 PUSH2 0x411 JUMP JUMPDEST PUSH2 0x486 DUP2 DUP6 PUSH2 0x41C JUMP JUMPDEST SWAP4 POP PUSH2 0x496 DUP2 DUP6 PUSH1 0x20 DUP7 ADD PUSH2 0x42D JUMP JUMPDEST PUSH2 0x49F DUP2 PUSH2 0x460 JUMP JUMPDEST DUP5 ADD SWAP2 POP POP SWAP3 SWAP2 POP POP JUMP JUMPDEST PUSH1 0x0 PUSH1 0x20 DUP3 ADD SWAP1 POP DUP2 DUP2 SUB PUSH1 0x0 DUP4 ADD MSTORE PUSH2 0x4C4 DUP2 DUP5 PUSH2 0x471 JUMP JUMPDEST SWAP1 POP SWAP3 SWAP2 POP POP JUMP JUMPDEST PUSH32 0x2054686973206164647265737320646F65736E27742065786973747300000000 PUSH1 0x0 DUP3 ADD MSTORE POP JUMP JUMPDEST PUSH1 0x0 PUSH2 0x502 PUSH1 0x1C DUP4 PUSH2 0x41C JUMP JUMPDEST SWAP2 POP PUSH2 0x50D DUP3 PUSH2 0x4CC JUMP JUMPDEST PUSH1 0x20 DUP3 ADD SWAP1 POP SWAP2 SWAP1 POP JUMP JUMPDEST PUSH1 0x0 PUSH1 0x20 DUP3 ADD SWAP1 POP DUP2 DUP2 SUB PUSH1 0x0 DUP4 ADD MSTORE PUSH2 0x531 DUP2 PUSH2 0x4F5 JUMP JUMPDEST SWAP1 POP SWAP2 SWAP1 POP JUMP JUMPDEST PUSH32 0x4E487B7100000000000000000000000000000000000000000000000000000000 PUSH1 0x0 MSTORE PUSH1 0x11 PUSH1 0x4 MSTORE PUSH1 0x24 PUSH1 0x0 REVERT JUMPDEST PUSH1 0x0 PUSH2 0x572 DUP3 PUSH2 0x313 JUMP JUMPDEST SWAP2 POP PUSH2 0x57D DUP4 PUSH2 0x313 JUMP JUMPDEST SWAP3 POP DUP3 DUP3 LT ISZERO PUSH2 0x590 JUMPI PUSH2 0x58F PUSH2 0x538 JUMP JUMPDEST JUMPDEST DUP3 DUP3 SUB SWAP1 POP SWAP3 SWAP2 POP POP JUMP JUMPDEST PUSH32 0x4E487B7100000000000000000000000000000000000000000000000000000000 PUSH1 0x0 MSTORE PUSH1 0x41 PUSH1 0x4 MSTORE PUSH1 0x24 PUSH1 0x0 REVERT JUMPDEST PUSH32 0x4E487B7100000000000000000000000000000000000000000000000000000000 PUSH1 0x0 MSTORE PUSH1 0x22 PUSH1 0x4 MSTORE PUSH1 0x24 PUSH1 0x0 REVERT JUMPDEST PUSH1 0x0 PUSH1 0x2 DUP3 DIV SWAP1 POP PUSH1 0x1 DUP3 AND DUP1 PUSH2 0x611 JUMPI PUSH1 0x7F DUP3 AND SWAP2 POP JUMPDEST PUSH1 0x20 DUP3 LT DUP2 SUB PUSH2 0x624 JUMPI PUSH2 0x623 PUSH2 0x5CA JUMP JUMPDEST JUMPDEST POP SWAP2 SWAP1 POP JUMP JUMPDEST PUSH1 0x0 DUP2 SWAP1 POP DUP2 PUSH1 0x0 MSTORE PUSH1 0x20 PUSH1 0x0 KECCAK256 SWAP1 POP SWAP2 SWAP1 POP JUMP JUMPDEST PUSH1 0x0 PUSH1 0x20 PUSH1 0x1F DUP4 ADD DIV SWAP1 POP SWAP2 SWAP1 POP JUMP JUMPDEST PUSH1 0x0 DUP3 DUP3 SHL SWAP1 POP SWAP3 SWAP2 POP POP JUMP JUMPDEST PUSH1 0x0 PUSH1 0x8 DUP4 MUL PUSH2 0x68C PUSH32 0xFFFFFFFFFFFFFFFFFFFFFFFFFFFFFFFFFFFFFFFFFFFFFFFFFFFFFFFFFFFFFFFF DUP3 PUSH2 0x64F JUMP JUMPDEST PUSH2 0x696 DUP7 DUP4 PUSH2 0x64F JUMP JUMPDEST SWAP6 POP DUP1 NOT DUP5 AND SWAP4 POP DUP1 DUP7 AND DUP5 OR SWAP3 POP POP POP SWAP4 SWAP3 POP POP POP JUMP JUMPDEST PUSH1 0x0 DUP2 SWAP1 POP SWAP2 SWAP1 POP JUMP JUMPDEST PUSH1 0x0 PUSH2 0x6D3 PUSH2 0x6CE PUSH2 0x6C9 DUP5 PUSH2 0x313 JUMP JUMPDEST PUSH2 0x6AE JUMP JUMPDEST PUSH2 0x313 JUMP JUMPDEST SWAP1 POP SWAP2 SWAP1 POP JUMP JUMPDEST PUSH1 0x0 DUP2 SWAP1 POP SWAP2 SWAP1 POP JUMP JUMPDEST PUSH2 0x6ED DUP4 PUSH2 0x6B8 JUMP JUMPDEST PUSH2 0x701 PUSH2 0x6F9 DUP3 PUSH2 0x6DA JUMP JUMPDEST DUP5 DUP5 SLOAD PUSH2 0x65C JUMP JUMPDEST DUP3 SSTORE POP POP POP POP JUMP JUMPDEST PUSH1 0x0 SWAP1 JUMP JUMPDEST PUSH2 0x716 PUSH2 0x709 JUMP JUMPDEST PUSH2 0x721 DUP2 DUP5 DUP5 PUSH2 0x6E4 JUMP JUMPDEST POP POP POP JUMP JUMPDEST JUMPDEST DUP2 DUP2 LT ISZERO PUSH2 0x745 JUMPI PUSH2 0x73A PUSH1 0x0 DUP3 PUSH2 0x70E JUMP JUMPDEST PUSH1 0x1 DUP2 ADD SWAP1 POP PUSH2 0x727 JUMP JUMPDEST POP POP JUMP JUMPDEST PUSH1 0x1F DUP3 GT ISZERO PUSH2 0x78A JUMPI PUSH2 0x75B DUP2 PUSH2 0x62A JUMP JUMPDEST PUSH2 0x764 DUP5 PUSH2 0x63F JUMP JUMPDEST DUP2 ADD PUSH1 0x20 DUP6 LT ISZERO PUSH2 0x773 JUMPI DUP2 SWAP1 POP JUMPDEST PUSH2 0x787 PUSH2 0x77F DUP6 PUSH2 0x63F JUMP JUMPDEST DUP4 ADD DUP3 PUSH2 0x726 JUMP JUMPDEST POP POP JUMPDEST POP POP POP JUMP JUMPDEST PUSH1 0x0 DUP3 DUP3 SHR SWAP1 POP SWAP3 SWAP2 POP POP JUMP JUMPDEST PUSH1 0x0 PUSH2 0x7AD PUSH1 0x0 NOT DUP5 PUSH1 0x8 MUL PUSH2 0x78F JUMP JUMPDEST NOT DUP1 DUP4 AND SWAP2 POP POP SWAP3 SWAP2 POP POP JUMP JUMPDEST PUSH1 0x0 PUSH2 0x7C6 DUP4 DUP4 PUSH2 0x79C JUMP JUMPDEST SWAP2 POP DUP3 PUSH1 0x2 MUL DUP3 OR SWAP1 POP SWAP3 SWAP2 POP POP JUMP JUMPDEST PUSH2 0x7DF DUP3 PUSH2 0x411 JUMP JUMPDEST PUSH8 0xFFFFFFFFFFFFFFFF DUP2 GT ISZERO PUSH2 0x7F8 JUMPI PUSH2 0x7F7 PUSH2 0x59B JUMP JUMPDEST JUMPDEST PUSH2 0x802 DUP3 SLOAD PUSH2 0x5F9 JUMP JUMPDEST PUSH2 0x80D DUP3 DUP3 DUP6 PUSH2 0x749 JUMP JUMPDEST PUSH1 0x0 PUSH1 0x20 SWAP1 POP PUSH1 0x1F DUP4 GT PUSH1 0x1 DUP2 EQ PUSH2 0x840 JUMPI PUSH1 0x0 DUP5 ISZERO PUSH2 0x82E JUMPI DUP3 DUP8 ADD MLOAD SWAP1 POP JUMPDEST PUSH2 0x838 DUP6 DUP3 PUSH2 0x7BA JUMP JUMPDEST DUP7 SSTORE POP PUSH2 0x8A0 JUMP JUMPDEST PUSH1 0x1F NOT DUP5 AND PUSH2 0x84E DUP7 PUSH2 0x62A JUMP JUMPDEST PUSH1 0x0 JUMPDEST DUP3 DUP2 LT ISZERO PUSH2 0x876 JUMPI DUP5 DUP10 ADD MLOAD DUP3 SSTORE PUSH1 0x1 DUP3 ADD SWAP2 POP PUSH1 0x20 DUP6 ADD SWAP5 POP PUSH1 0x20 DUP2 ADD SWAP1 POP PUSH2 0x851 JUMP JUMPDEST DUP7 DUP4 LT ISZERO PUSH2 0x893 JUMPI DUP5 DUP10 ADD MLOAD PUSH2 0x88F PUSH1 0x1F DUP10 AND DUP3 PUSH2 0x79C JUMP JUMPDEST DUP4 SSTORE POP JUMPDEST PUSH1 0x1 PUSH1 0x2 DUP9 MUL ADD DUP9 SSTORE POP POP POP JUMPDEST POP POP POP POP POP POP JUMP INVALID LOG2 PUSH5 0x6970667358 0x22 SLT KECCAK256 LOG4 CALLER PUSH32 0x2E19E63A51BC4445E4C9E727300919F30AC228289B6CCDA4E8E01D807E64736F PUSH13 0x634300080F0033000000000000 "
				},
				"gasEstimates": {
					"creation": {
						"codeDepositCost": "454000",
						"executionCost": "infinite",
						"totalCost": "infinite"
					},
					"external": {
						"TotalFunds()": "2429",
						"amount()": "2473",
						"message()": "infinite",
						"sendMoney(uint256,address)": "infinite",
						"totalWeekTransactions()": "2451"
					}
				},
				"methodIdentifiers": {
					"TotalFunds()": "7b9a3f4c",
					"amount()": "aa8c217c",
					"message()": "e21f37ce",
					"sendMoney(uint256,address)": "062a7544",
					"totalWeekTransactions()": "94b5dcaa"
				}
			},
			"storageLayout": {
				"storage": [
					{
						"astId": 3,
						"contract": "Dapp/MoneyTransfer.sol:MoneyTransfer",
						"label": "amount",
						"offset": 0,
						"slot": "0",
						"type": "t_uint256"
					},
					{
						"astId": 5,
						"contract": "Dapp/MoneyTransfer.sol:MoneyTransfer",
						"label": "TotalFunds",
						"offset": 0,
						"slot": "1",
						"type": "t_uint256"
					},
					{
						"astId": 7,
						"contract": "Dapp/MoneyTransfer.sol:MoneyTransfer",
						"label": "receiver",
						"offset": 0,
						"slot": "2",
						"type": "t_address"
					},
					{
						"astId": 13,
						"contract": "Dapp/MoneyTransfer.sol:MoneyTransfer",
						"label": "day",
						"offset": 0,
						"slot": "3",
						"type": "t_uint256"
					},
					{
						"astId": 15,
						"contract": "Dapp/MoneyTransfer.sol:MoneyTransfer",
						"label": "totalWeekTransactions",
						"offset": 0,
						"slot": "4",
						"type": "t_uint256"
					},
					{
						"astId": 17,
						"contract": "Dapp/MoneyTransfer.sol:MoneyTransfer",
						"label": "maxTransaction",
						"offset": 0,
						"slot": "5",
						"type": "t_uint256"
					},
					{
						"astId": 19,
						"contract": "Dapp/MoneyTransfer.sol:MoneyTransfer",
						"label": "minTransaction",
						"offset": 0,
						"slot": "6",
						"type": "t_uint256"
					},
					{
						"astId": 22,
						"contract": "Dapp/MoneyTransfer.sol:MoneyTransfer",
						"label": "countries",
						"offset": 0,
						"slot": "7",
						"type": "t_array(t_uint256)dyn_storage"
					},
					{
						"astId": 24,
						"contract": "Dapp/MoneyTransfer.sol:MoneyTransfer",
						"label": "message",
						"offset": 0,
						"slot": "8",
						"type": "t_string_storage"
					}
				],
				"types": {
					"t_address": {
						"encoding": "inplace",
						"label": "address",
						"numberOfBytes": "20"
					},
					"t_array(t_uint256)dyn_storage": {
						"base": "t_uint256",
						"encoding": "dynamic_array",
						"label": "uint256[]",
						"numberOfBytes": "32"
					},
					"t_string_storage": {
						"encoding": "bytes",
						"label": "string",
						"numberOfBytes": "32"
					},
					"t_uint256": {
						"encoding": "inplace",
						"label": "uint256",
						"numberOfBytes": "32"
					}
				}
			},
			"userdoc": {
				"kind": "user",
				"methods": {},
				"version": 1
			}
		}
	}
}