{
	"Dapp/MoneyTransfer.sol": {
		"MoneyTransfer": {
			"abi": [
				{
					"inputs": [
						{
							"internalType": "uint256",
							"name": "_totalFunds",
							"type": "uint256"
						}
					],
					"stateMutability": "nonpayable",
					"type": "constructor"
				},
				{
					"inputs": [],
					"name": "TotalAmount",
					"outputs": [
						{
							"internalType": "uint256",
							"name": "",
							"type": "uint256"
						}
					],
					"stateMutability": "view",
					"type": "function"
				},
				{
					"inputs": [],
					"name": "TotalFunds",
					"outputs": [
						{
							"internalType": "uint256",
							"name": "",
							"type": "uint256"
						}
					],
					"stateMutability": "view",
					"type": "function"
				},
				{
					"inputs": [],
					"name": "amount",
					"outputs": [
						{
							"internalType": "uint256",
							"name": "",
							"type": "uint256"
						}
					],
					"stateMutability": "view",
					"type": "function"
				},
				{
					"inputs": [],
					"name": "callCount",
					"outputs": [
						{
							"internalType": "uint256",
							"name": "",
							"type": "uint256"
						}
					],
					"stateMutability": "view",
					"type": "function"
				},
				{
					"inputs": [],
					"name": "callPutCard",
					"outputs": [
						{
							"internalType": "bool",
							"name": "",
							"type": "bool"
						}
					],
					"stateMutability": "view",
					"type": "function"
				},
				{
					"inputs": [],
					"name": "cardNumber",
					"outputs": [
						{
							"internalType": "string",
							"name": "",
							"type": "string"
						}
					],
					"stateMutability": "view",
					"type": "function"
				},
				{
					"inputs": [],
					"name": "cvv",
					"outputs": [
						{
							"internalType": "string",
							"name": "",
							"type": "string"
						}
					],
					"stateMutability": "view",
					"type": "function"
				},
				{
					"inputs": [],
					"name": "firstTransferTime",
					"outputs": [
						{
							"internalType": "uint256",
							"name": "",
							"type": "uint256"
						}
					],
					"stateMutability": "view",
					"type": "function"
				},
				{
					"inputs": [],
					"name": "getOutCard",
					"outputs": [],
					"stateMutability": "nonpayable",
					"type": "function"
				},
				{
					"inputs": [],
					"name": "getTime",
					"outputs": [
						{
							"internalType": "uint256",
							"name": "",
							"type": "uint256"
						}
					],
					"stateMutability": "view",
					"type": "function"
				},
				{
					"inputs": [],
					"name": "getTransaction",
					"outputs": [
						{
							"components": [
								{
									"internalType": "address",
									"name": "address_from",
									"type": "address"
								},
								{
									"internalType": "address",
									"name": "address_to",
									"type": "address"
								},
								{
									"internalType": "uint256",
									"name": "amount",
									"type": "uint256"
								},
								{
									"internalType": "uint256",
									"name": "timestamp",
									"type": "uint256"
								}
							],
							"internalType": "struct Transaction.Transactions[]",
							"name": "",
							"type": "tuple[]"
						}
					],
					"stateMutability": "view",
					"type": "function"
				},
				{
					"inputs": [
						{
							"internalType": "uint256",
							"name": "_index",
							"type": "uint256"
						}
					],
					"name": "getTransactionById",
					"outputs": [
						{
							"components": [
								{
									"internalType": "address",
									"name": "address_from",
									"type": "address"
								},
								{
									"internalType": "address",
									"name": "address_to",
									"type": "address"
								},
								{
									"internalType": "uint256",
									"name": "amount",
									"type": "uint256"
								},
								{
									"internalType": "uint256",
									"name": "timestamp",
									"type": "uint256"
								}
							],
							"internalType": "struct Transaction.Transactions",
							"name": "",
							"type": "tuple"
						}
					],
					"stateMutability": "view",
					"type": "function"
				},
				{
					"inputs": [],
					"name": "getTransactionPerWeek",
					"outputs": [
						{
							"internalType": "uint256",
							"name": "",
							"type": "uint256"
						}
					],
					"stateMutability": "view",
					"type": "function"
				},
				{
					"inputs": [],
					"name": "message",
					"outputs": [
						{
							"internalType": "string",
							"name": "",
							"type": "string"
						}
					],
					"stateMutability": "view",
					"type": "function"
				},
				{
					"inputs": [
						{
							"internalType": "uint256",
							"name": "_amount",
							"type": "uint256"
						},
						{
							"internalType": "address",
							"name": "_receiver",
							"type": "address"
						}
					],
					"name": "sendMoney",
					"outputs": [],
					"stateMutability": "nonpayable",
					"type": "function"
				},
				{
					"inputs": [
						{
							"internalType": "string",
							"name": "_cardNumber",
							"type": "string"
						},
						{
							"internalType": "string",
							"name": "_cvv",
							"type": "string"
						}
					],
					"name": "setCard",
					"outputs": [],
					"stateMutability": "nonpayable",
					"type": "function"
				},
				{
					"inputs": [
						{
							"internalType": "uint256",
							"name": "",
							"type": "uint256"
						}
					],
					"name": "transactionList",
					"outputs": [
						{
							"internalType": "address",
							"name": "address_from",
							"type": "address"
						},
						{
							"internalType": "address",
							"name": "address_to",
							"type": "address"
						},
						{
							"internalType": "uint256",
							"name": "amount",
							"type": "uint256"
						},
						{
							"internalType": "uint256",
							"name": "timestamp",
							"type": "uint256"
						}
					],
					"stateMutability": "view",
					"type": "function"
				},
				{
					"inputs": [
						{
							"internalType": "uint256",
							"name": "",
							"type": "uint256"
						}
					],
					"name": "trn",
					"outputs": [
						{
							"internalType": "address",
							"name": "address_from",
							"type": "address"
						},
						{
							"internalType": "address",
							"name": "address_to",
							"type": "address"
						},
						{
							"internalType": "uint256",
							"name": "amount",
							"type": "uint256"
						},
						{
							"internalType": "uint256",
							"name": "timestamp",
							"type": "uint256"
						}
					],
					"stateMutability": "view",
					"type": "function"
				}
			],
			"devdoc": {
				"kind": "dev",
				"methods": {},
				"version": 1
			},
			"evm": {
				"assembly": "    /* \"Dapp/MoneyTransfer.sol\":98:4017  contract  MoneyTransfer is Transaction {... */\n  mstore(0x40, 0x80)\n    /* \"Dapp/Transaction.sol\":346:347  0 */\n  0x00\n    /* \"Dapp/Transaction.sol\":331:347  uint counter = 0 */\n  0x02\n  sstore\n    /* \"Dapp/MoneyTransfer.sol\":602:603  0 */\n  0x00\n    /* \"Dapp/MoneyTransfer.sol\":578:603  uint public callCount = 0 */\n  0x0b\n  sstore\n    /* \"Dapp/MoneyTransfer.sol\":637:642  false */\n  0x00\n    /* \"Dapp/MoneyTransfer.sol\":611:642  bool public callPutCard = false */\n  0x0c\n  exp(0x0100, 0x00)\n  dup2\n  sload\n  dup2\n  0xff\n  mul\n  not\n  and\n  swap1\n  dup4\n  iszero\n  iszero\n  mul\n  or\n  swap1\n  sstore\n  pop\n    /* \"Dapp/MoneyTransfer.sol\":427:566  constructor (uint256 _totalFunds) {... */\n  callvalue\n  dup1\n  iszero\n  tag_1\n  jumpi\n  0x00\n  dup1\n  revert\ntag_1:\n  pop\n  mload(0x40)\n  sub(codesize, bytecodeSize)\n  dup1\n  bytecodeSize\n  dup4\n  codecopy\n  dup2\n  dup2\n  add\n  0x40\n  mstore\n  dup2\n  add\n  swap1\n  tag_2\n  swap2\n  swap1\n  tag_3\n  jump\t// in\ntag_2:\n    /* \"Dapp/MoneyTransfer.sol\":547:558  _totalFunds */\n  dup1\n    /* \"Dapp/MoneyTransfer.sol\":534:544  TotalFunds */\n  0x04\n    /* \"Dapp/MoneyTransfer.sol\":534:558  TotalFunds = _totalFunds */\n  dup2\n  swap1\n  sstore\n  pop\n    /* \"Dapp/MoneyTransfer.sol\":427:566  constructor (uint256 _totalFunds) {... */\n  pop\n    /* \"Dapp/MoneyTransfer.sol\":98:4017  contract  MoneyTransfer is Transaction {... */\n  jump(tag_6)\n    /* \"#utility.yul\":88:205   */\ntag_8:\n    /* \"#utility.yul\":197:198   */\n  0x00\n    /* \"#utility.yul\":194:195   */\n  dup1\n    /* \"#utility.yul\":187:199   */\n  revert\n    /* \"#utility.yul\":334:411   */\ntag_10:\n    /* \"#utility.yul\":371:378   */\n  0x00\n    /* \"#utility.yul\":400:405   */\n  dup2\n    /* \"#utility.yul\":389:405   */\n  swap1\n  pop\n    /* \"#utility.yul\":334:411   */\n  swap2\n  swap1\n  pop\n  jump\t// out\n    /* \"#utility.yul\":417:539   */\ntag_11:\n    /* \"#utility.yul\":490:514   */\n  tag_19\n    /* \"#utility.yul\":508:513   */\n  dup2\n    /* \"#utility.yul\":490:514   */\n  tag_10\n  jump\t// in\ntag_19:\n    /* \"#utility.yul\":483:488   */\n  dup2\n    /* \"#utility.yul\":480:515   */\n  eq\n    /* \"#utility.yul\":470:533   */\n  tag_20\n  jumpi\n    /* \"#utility.yul\":529:530   */\n  0x00\n    /* \"#utility.yul\":526:527   */\n  dup1\n    /* \"#utility.yul\":519:531   */\n  revert\n    /* \"#utility.yul\":470:533   */\ntag_20:\n    /* \"#utility.yul\":417:539   */\n  pop\n  jump\t// out\n    /* \"#utility.yul\":545:688   */\ntag_12:\n    /* \"#utility.yul\":602:607   */\n  0x00\n    /* \"#utility.yul\":633:639   */\n  dup2\n    /* \"#utility.yul\":627:640   */\n  mload\n    /* \"#utility.yul\":618:640   */\n  swap1\n  pop\n    /* \"#utility.yul\":649:682   */\n  tag_22\n    /* \"#utility.yul\":676:681   */\n  dup2\n    /* \"#utility.yul\":649:682   */\n  tag_11\n  jump\t// in\ntag_22:\n    /* \"#utility.yul\":545:688   */\n  swap3\n  swap2\n  pop\n  pop\n  jump\t// out\n    /* \"#utility.yul\":694:1045   */\ntag_3:\n    /* \"#utility.yul\":764:770   */\n  0x00\n    /* \"#utility.yul\":813:815   */\n  0x20\n    /* \"#utility.yul\":801:810   */\n  dup3\n    /* \"#utility.yul\":792:799   */\n  dup5\n    /* \"#utility.yul\":788:811   */\n  sub\n    /* \"#utility.yul\":784:816   */\n  slt\n    /* \"#utility.yul\":781:900   */\n  iszero\n  tag_24\n  jumpi\n    /* \"#utility.yul\":819:898   */\n  tag_25\n  tag_8\n  jump\t// in\ntag_25:\n    /* \"#utility.yul\":781:900   */\ntag_24:\n    /* \"#utility.yul\":939:940   */\n  0x00\n    /* \"#utility.yul\":964:1028   */\n  tag_26\n    /* \"#utility.yul\":1020:1027   */\n  dup5\n    /* \"#utility.yul\":1011:1017   */\n  dup3\n    /* \"#utility.yul\":1000:1009   */\n  dup6\n    /* \"#utility.yul\":996:1018   */\n  add\n    /* \"#utility.yul\":964:1028   */\n  tag_12\n  jump\t// in\ntag_26:\n    /* \"#utility.yul\":954:1028   */\n  swap2\n  pop\n    /* \"#utility.yul\":910:1038   */\n  pop\n    /* \"#utility.yul\":694:1045   */\n  swap3\n  swap2\n  pop\n  pop\n  jump\t// out\n    /* \"Dapp/MoneyTransfer.sol\":98:4017  contract  MoneyTransfer is Transaction {... */\ntag_6:\n  dataSize(sub_0)\n  dup1\n  dataOffset(sub_0)\n  0x00\n  codecopy\n  0x00\n  return\nstop\n\nsub_0: assembly {\n        /* \"Dapp/MoneyTransfer.sol\":98:4017  contract  MoneyTransfer is Transaction {... */\n      mstore(0x40, 0x80)\n      callvalue\n      dup1\n      iszero\n      tag_1\n      jumpi\n      0x00\n      dup1\n      revert\n    tag_1:\n      pop\n      jumpi(tag_2, lt(calldatasize, 0x04))\n      shr(0xe0, calldataload(0x00))\n      dup1\n      0x59705f81\n      gt\n      tag_21\n      jumpi\n      dup1\n      0x8fa11864\n      gt\n      tag_22\n      jumpi\n      dup1\n      0x8fa11864\n      eq\n      tag_16\n      jumpi\n      dup1\n      0xaa8c217c\n      eq\n      tag_17\n      jumpi\n      dup1\n      0xb28273c2\n      eq\n      tag_18\n      jumpi\n      dup1\n      0xe21f37ce\n      eq\n      tag_19\n      jumpi\n      dup1\n      0xf4b30eaf\n      eq\n      tag_20\n      jumpi\n      jump(tag_2)\n    tag_22:\n      dup1\n      0x59705f81\n      eq\n      tag_12\n      jumpi\n      dup1\n      0x7b9a3f4c\n      eq\n      tag_13\n      jumpi\n      dup1\n      0x7eb9f571\n      eq\n      tag_14\n      jumpi\n      dup1\n      0x8e029c0b\n      eq\n      tag_15\n      jumpi\n      jump(tag_2)\n    tag_21:\n      dup1\n      0x3c626f00\n      gt\n      tag_23\n      jumpi\n      dup1\n      0x3c626f00\n      eq\n      tag_7\n      jumpi\n      dup1\n      0x42fb7936\n      eq\n      tag_8\n      jumpi\n      dup1\n      0x4b28f9a2\n      eq\n      tag_9\n      jumpi\n      dup1\n      0x557ed1ba\n      eq\n      tag_10\n      jumpi\n      dup1\n      0x57bf72e3\n      eq\n      tag_11\n      jumpi\n      jump(tag_2)\n    tag_23:\n      dup1\n      0x04ef5b21\n      eq\n      tag_3\n      jumpi\n      dup1\n      0x062a7544\n      eq\n      tag_4\n      jumpi\n      dup1\n      0x0e85fa72\n      eq\n      tag_5\n      jumpi\n      dup1\n      0x12a029a4\n      eq\n      tag_6\n      jumpi\n    tag_2:\n      0x00\n      dup1\n      revert\n        /* \"Dapp/Transaction.sol\":237:274  Transactions[] public transactionList */\n    tag_3:\n      tag_24\n      0x04\n      dup1\n      calldatasize\n      sub\n      dup2\n      add\n      swap1\n      tag_25\n      swap2\n      swap1\n      tag_26\n      jump\t// in\n    tag_25:\n      tag_27\n      jump\t// in\n    tag_24:\n      mload(0x40)\n      tag_28\n      swap5\n      swap4\n      swap3\n      swap2\n      swap1\n      tag_29\n      jump\t// in\n    tag_28:\n      mload(0x40)\n      dup1\n      swap2\n      sub\n      swap1\n      return\n        /* \"Dapp/MoneyTransfer.sol\":652:1540  function sendMoney( uint _amount, address _receiver) public m_validAddress(_receiver) m_ifCardExists m_transferLimit{... */\n    tag_4:\n      tag_30\n      0x04\n      dup1\n      calldatasize\n      sub\n      dup2\n      add\n      swap1\n      tag_31\n      swap2\n      swap1\n      tag_32\n      jump\t// in\n    tag_31:\n      tag_33\n      jump\t// in\n    tag_30:\n      stop\n        /* \"Dapp/MoneyTransfer.sol\":350:379  uint public firstTransferTime */\n    tag_5:\n      tag_34\n      tag_35\n      jump\t// in\n    tag_34:\n      mload(0x40)\n      tag_36\n      swap2\n      swap1\n      tag_37\n      jump\t// in\n    tag_36:\n      mload(0x40)\n      dup1\n      swap2\n      sub\n      swap1\n      return\n        /* \"Dapp/MoneyTransfer.sol\":1548:1813  function setCard(string memory _cardNumber, string memory _cvv) public  m_checkCard {... */\n    tag_6:\n      tag_38\n      0x04\n      dup1\n      calldatasize\n      sub\n      dup2\n      add\n      swap1\n      tag_39\n      swap2\n      swap1\n      tag_40\n      jump\t// in\n    tag_39:\n      tag_41\n      jump\t// in\n    tag_38:\n      stop\n        /* \"Dapp/MoneyTransfer.sol\":611:642  bool public callPutCard = false */\n    tag_7:\n      tag_42\n      tag_43\n      jump\t// in\n    tag_42:\n      mload(0x40)\n      tag_44\n      swap2\n      swap1\n      tag_45\n      jump\t// in\n    tag_44:\n      mload(0x40)\n      dup1\n      swap2\n      sub\n      swap1\n      return\n        /* \"Dapp/MoneyTransfer.sol\":292:309  string public cvv */\n    tag_8:\n      tag_46\n      tag_47\n      jump\t// in\n    tag_46:\n      mload(0x40)\n      tag_48\n      swap2\n      swap1\n      tag_49\n      jump\t// in\n    tag_48:\n      mload(0x40)\n      dup1\n      swap2\n      sub\n      swap1\n      return\n        /* \"Dapp/MoneyTransfer.sol\":578:603  uint public callCount = 0 */\n    tag_9:\n      tag_50\n      tag_51\n      jump\t// in\n    tag_50:\n      mload(0x40)\n      tag_52\n      swap2\n      swap1\n      tag_37\n      jump\t// in\n    tag_52:\n      mload(0x40)\n      dup1\n      swap2\n      sub\n      swap1\n      return\n        /* \"Dapp/MoneyTransfer.sol\":3920:4006  function getTime()public view returns(uint ){... */\n    tag_10:\n      tag_53\n      tag_54\n      jump\t// in\n    tag_53:\n      mload(0x40)\n      tag_55\n      swap2\n      swap1\n      tag_37\n      jump\t// in\n    tag_55:\n      mload(0x40)\n      dup1\n      swap2\n      sub\n      swap1\n      return\n        /* \"Dapp/Transaction.sol\":283:324  mapping (uint => Transactions) public trn */\n    tag_11:\n      tag_56\n      0x04\n      dup1\n      calldatasize\n      sub\n      dup2\n      add\n      swap1\n      tag_57\n      swap2\n      swap1\n      tag_26\n      jump\t// in\n    tag_57:\n      tag_58\n      jump\t// in\n    tag_56:\n      mload(0x40)\n      tag_59\n      swap5\n      swap4\n      swap3\n      swap2\n      swap1\n      tag_29\n      jump\t// in\n    tag_59:\n      mload(0x40)\n      dup1\n      swap2\n      sub\n      swap1\n      return\n        /* \"Dapp/Transaction.sol\":707:818  function getTransaction() public view returns(Transactions[] memory){... */\n    tag_12:\n      tag_60\n      tag_61\n      jump\t// in\n    tag_60:\n      mload(0x40)\n      tag_62\n      swap2\n      swap1\n      tag_63\n      jump\t// in\n    tag_62:\n      mload(0x40)\n      dup1\n      swap2\n      sub\n      swap1\n      return\n        /* \"Dapp/MoneyTransfer.sol\":176:201  uint256 public TotalFunds */\n    tag_13:\n      tag_64\n      tag_65\n      jump\t// in\n    tag_64:\n      mload(0x40)\n      tag_66\n      swap2\n      swap1\n      tag_37\n      jump\t// in\n    tag_66:\n      mload(0x40)\n      dup1\n      swap2\n      sub\n      swap1\n      return\n        /* \"Dapp/MoneyTransfer.sol\":316:342  uint256 public TotalAmount */\n    tag_14:\n      tag_67\n      tag_68\n      jump\t// in\n    tag_67:\n      mload(0x40)\n      tag_69\n      swap2\n      swap1\n      tag_37\n      jump\t// in\n    tag_69:\n      mload(0x40)\n      dup1\n      swap2\n      sub\n      swap1\n      return\n        /* \"Dapp/MoneyTransfer.sol\":1834:1903  function getOutCard() public  {... */\n    tag_15:\n      tag_70\n      tag_71\n      jump\t// in\n    tag_70:\n      stop\n        /* \"Dapp/MoneyTransfer.sol\":260:284  string public cardNumber */\n    tag_16:\n      tag_72\n      tag_73\n      jump\t// in\n    tag_72:\n      mload(0x40)\n      tag_74\n      swap2\n      swap1\n      tag_49\n      jump\t// in\n    tag_74:\n      mload(0x40)\n      dup1\n      swap2\n      sub\n      swap1\n      return\n        /* \"Dapp/MoneyTransfer.sol\":148:169  uint256 public amount */\n    tag_17:\n      tag_75\n      tag_76\n      jump\t// in\n    tag_75:\n      mload(0x40)\n      tag_77\n      swap2\n      swap1\n      tag_37\n      jump\t// in\n    tag_77:\n      mload(0x40)\n      dup1\n      swap2\n      sub\n      swap1\n      return\n        /* \"Dapp/Transaction.sol\":952:1043  function getTransactionPerWeek() public view returns(uint){... */\n    tag_18:\n      tag_78\n      tag_79\n      jump\t// in\n    tag_78:\n      mload(0x40)\n      tag_80\n      swap2\n      swap1\n      tag_37\n      jump\t// in\n    tag_80:\n      mload(0x40)\n      dup1\n      swap2\n      sub\n      swap1\n      return\n        /* \"Dapp/MoneyTransfer.sol\":232:253  string public message */\n    tag_19:\n      tag_81\n      tag_82\n      jump\t// in\n    tag_81:\n      mload(0x40)\n      tag_83\n      swap2\n      swap1\n      tag_49\n      jump\t// in\n    tag_83:\n      mload(0x40)\n      dup1\n      swap2\n      sub\n      swap1\n      return\n        /* \"Dapp/Transaction.sol\":826:944  function getTransactionById(uint _index)public view returns(Transactions memory){... */\n    tag_20:\n      tag_84\n      0x04\n      dup1\n      calldatasize\n      sub\n      dup2\n      add\n      swap1\n      tag_85\n      swap2\n      swap1\n      tag_26\n      jump\t// in\n    tag_85:\n      tag_86\n      jump\t// in\n    tag_84:\n      mload(0x40)\n      tag_87\n      swap2\n      swap1\n      tag_88\n      jump\t// in\n    tag_87:\n      mload(0x40)\n      dup1\n      swap2\n      sub\n      swap1\n      return\n        /* \"Dapp/Transaction.sol\":237:274  Transactions[] public transactionList */\n    tag_27:\n      0x00\n      dup2\n      dup2\n      sload\n      dup2\n      lt\n      tag_89\n      jumpi\n      0x00\n      dup1\n      revert\n    tag_89:\n      swap1\n      0x00\n      mstore\n      keccak256(0x00, 0x20)\n      swap1\n      0x04\n      mul\n      add\n      0x00\n      swap2\n      pop\n      swap1\n      pop\n      dup1\n      0x00\n      add\n      0x00\n      swap1\n      sload\n      swap1\n      0x0100\n      exp\n      swap1\n      div\n      0xffffffffffffffffffffffffffffffffffffffff\n      and\n      swap1\n      dup1\n      0x01\n      add\n      0x00\n      swap1\n      sload\n      swap1\n      0x0100\n      exp\n      swap1\n      div\n      0xffffffffffffffffffffffffffffffffffffffff\n      and\n      swap1\n      dup1\n      0x02\n      add\n      sload\n      swap1\n      dup1\n      0x03\n      add\n      sload\n      swap1\n      pop\n      dup5\n      jump\t// out\n        /* \"Dapp/MoneyTransfer.sol\":652:1540  function sendMoney( uint _amount, address _receiver) public m_validAddress(_receiver) m_ifCardExists m_transferLimit{... */\n    tag_33:\n        /* \"Dapp/MoneyTransfer.sol\":727:736  _receiver */\n      dup1\n        /* \"Dapp/MoneyTransfer.sol\":1984:1989  _addr */\n      dup1\n        /* \"Dapp/MoneyTransfer.sol\":1973:1981  receiver */\n      0x05\n      0x00\n        /* \"Dapp/MoneyTransfer.sol\":1973:1989  receiver = _addr */\n      0x0100\n      exp\n      dup2\n      sload\n      dup2\n      0xffffffffffffffffffffffffffffffffffffffff\n      mul\n      not\n      and\n      swap1\n      dup4\n      0xffffffffffffffffffffffffffffffffffffffff\n      and\n      mul\n      or\n      swap1\n      sstore\n      pop\n        /* \"Dapp/MoneyTransfer.sol\":2025:2026  0 */\n      0x00\n        /* \"Dapp/MoneyTransfer.sol\":2008:2027  _addr != address(0) */\n      0xffffffffffffffffffffffffffffffffffffffff\n      and\n        /* \"Dapp/MoneyTransfer.sol\":2008:2013  _addr */\n      dup2\n        /* \"Dapp/MoneyTransfer.sol\":2008:2027  _addr != address(0) */\n      0xffffffffffffffffffffffffffffffffffffffff\n      and\n      sub\n        /* \"Dapp/MoneyTransfer.sol\":2000:2060  require(_addr != address(0), \" This address doesn't exists\") */\n      tag_92\n      jumpi\n      mload(0x40)\n      0x08c379a000000000000000000000000000000000000000000000000000000000\n      dup2\n      mstore\n      0x04\n      add\n      tag_93\n      swap1\n      tag_94\n      jump\t// in\n    tag_93:\n      mload(0x40)\n      dup1\n      swap2\n      sub\n      swap1\n      revert\n    tag_92:\n        /* \"Dapp/MoneyTransfer.sol\":2159:2164  false */\n      0x00\n        /* \"Dapp/MoneyTransfer.sol\":2144:2164  callPutCard != false */\n      iszero\n      iszero\n        /* \"Dapp/MoneyTransfer.sol\":2144:2155  callPutCard */\n      0x0c\n      0x00\n      swap1\n      sload\n      swap1\n      0x0100\n      exp\n      swap1\n      div\n      0xff\n      and\n        /* \"Dapp/MoneyTransfer.sol\":2144:2164  callPutCard != false */\n      iszero\n      iszero\n      sub\n        /* \"Dapp/MoneyTransfer.sol\":2136:2191  require(callPutCard != false,\"Please insert your card\") */\n      tag_96\n      jumpi\n      mload(0x40)\n      0x08c379a000000000000000000000000000000000000000000000000000000000\n      dup2\n      mstore\n      0x04\n      add\n      tag_97\n      swap1\n      tag_98\n      jump\t// in\n    tag_97:\n      mload(0x40)\n      dup1\n      swap2\n      sub\n      swap1\n      revert\n    tag_96:\n        /* \"Dapp/MoneyTransfer.sol\":3471:3472  5 */\n      0x05\n        /* \"Dapp/MoneyTransfer.sol\":3458:3467  callCount */\n      sload(0x0b)\n        /* \"Dapp/MoneyTransfer.sol\":3458:3472  callCount >= 5 */\n      lt\n      iszero\n        /* \"Dapp/MoneyTransfer.sol\":3458:3527  callCount >= 5 && block.timestamp <= (firstTransferTime + 30 seconds) */\n      dup1\n      iszero\n      tag_100\n      jumpi\n      pop\n        /* \"Dapp/MoneyTransfer.sol\":3516:3526  30 seconds */\n      0x1e\n        /* \"Dapp/MoneyTransfer.sol\":3496:3513  firstTransferTime */\n      sload(0x0a)\n        /* \"Dapp/MoneyTransfer.sol\":3496:3526  firstTransferTime + 30 seconds */\n      tag_101\n      swap2\n      swap1\n      tag_102\n      jump\t// in\n    tag_101:\n        /* \"Dapp/MoneyTransfer.sol\":3476:3491  block.timestamp */\n      timestamp\n        /* \"Dapp/MoneyTransfer.sol\":3476:3527  block.timestamp <= (firstTransferTime + 30 seconds) */\n      gt\n      iszero\n        /* \"Dapp/MoneyTransfer.sol\":3458:3527  callCount >= 5 && block.timestamp <= (firstTransferTime + 30 seconds) */\n    tag_100:\n        /* \"Dapp/MoneyTransfer.sol\":3455:3672  if(callCount >= 5 && block.timestamp <= (firstTransferTime + 30 seconds)){... */\n      iszero\n      tag_103\n      jumpi\n        /* \"Dapp/MoneyTransfer.sol\":3555:3556  0 */\n      0x00\n        /* \"Dapp/MoneyTransfer.sol\":3543:3552  callCount */\n      0x0b\n        /* \"Dapp/MoneyTransfer.sol\":3543:3556  callCount = 0 */\n      dup2\n      swap1\n      sstore\n      pop\n        /* \"Dapp/MoneyTransfer.sol\":3591:3592  0 */\n      0x00\n        /* \"Dapp/MoneyTransfer.sol\":3578:3587  callCount */\n      sload(0x0b)\n        /* \"Dapp/MoneyTransfer.sol\":3578:3592  callCount == 0 */\n      eq\n        /* \"Dapp/MoneyTransfer.sol\":3571:3593  assert(callCount == 0) */\n      tag_104\n      jumpi\n      tag_105\n      tag_106\n      jump\t// in\n    tag_105:\n    tag_104:\n        /* \"Dapp/MoneyTransfer.sol\":3608:3646  revert(\"only 5 transactions per day\" ) */\n      mload(0x40)\n      0x08c379a000000000000000000000000000000000000000000000000000000000\n      dup2\n      mstore\n      0x04\n      add\n      tag_107\n      swap1\n      tag_108\n      jump\t// in\n    tag_107:\n      mload(0x40)\n      dup1\n      swap2\n      sub\n      swap1\n      revert\n        /* \"Dapp/MoneyTransfer.sol\":3455:3672  if(callCount >= 5 && block.timestamp <= (firstTransferTime + 30 seconds)){... */\n    tag_103:\n        /* \"Dapp/MoneyTransfer.sol\":3700:3701  5 */\n      0x05\n        /* \"Dapp/MoneyTransfer.sol\":3687:3696  callCount */\n      sload(0x0b)\n        /* \"Dapp/MoneyTransfer.sol\":3687:3701  callCount <= 5 */\n      gt\n      iszero\n        /* \"Dapp/MoneyTransfer.sol\":3687:3756  callCount <= 5 && block.timestamp >= (firstTransferTime + 30 seconds) */\n      dup1\n      iszero\n      tag_109\n      jumpi\n      pop\n        /* \"Dapp/MoneyTransfer.sol\":3745:3755  30 seconds */\n      0x1e\n        /* \"Dapp/MoneyTransfer.sol\":3725:3742  firstTransferTime */\n      sload(0x0a)\n        /* \"Dapp/MoneyTransfer.sol\":3725:3755  firstTransferTime + 30 seconds */\n      tag_110\n      swap2\n      swap1\n      tag_102\n      jump\t// in\n    tag_110:\n        /* \"Dapp/MoneyTransfer.sol\":3705:3720  block.timestamp */\n      timestamp\n        /* \"Dapp/MoneyTransfer.sol\":3705:3756  block.timestamp >= (firstTransferTime + 30 seconds) */\n      lt\n      iszero\n        /* \"Dapp/MoneyTransfer.sol\":3687:3756  callCount <= 5 && block.timestamp >= (firstTransferTime + 30 seconds) */\n    tag_109:\n        /* \"Dapp/MoneyTransfer.sol\":3684:3885  if(callCount <= 5 && block.timestamp >= (firstTransferTime + 30 seconds)){... */\n      iszero\n      tag_111\n      jumpi\n        /* \"Dapp/MoneyTransfer.sol\":3784:3785  0 */\n      0x00\n        /* \"Dapp/MoneyTransfer.sol\":3772:3781  callCount */\n      0x0b\n        /* \"Dapp/MoneyTransfer.sol\":3772:3785  callCount = 0 */\n      dup2\n      swap1\n      sstore\n      pop\n        /* \"Dapp/MoneyTransfer.sol\":3821:3822  0 */\n      0x00\n        /* \"Dapp/MoneyTransfer.sol\":3808:3817  callCount */\n      sload(0x0b)\n        /* \"Dapp/MoneyTransfer.sol\":3808:3822  callCount == 0 */\n      eq\n        /* \"Dapp/MoneyTransfer.sol\":3801:3823  assert(callCount == 0) */\n      tag_112\n      jumpi\n      tag_113\n      tag_106\n      jump\t// in\n    tag_113:\n    tag_112:\n        /* \"Dapp/MoneyTransfer.sol\":3858:3873  block.timestamp */\n      timestamp\n        /* \"Dapp/MoneyTransfer.sol\":3838:3855  firstTransferTime */\n      0x0a\n        /* \"Dapp/MoneyTransfer.sol\":3838:3873  firstTransferTime = block.timestamp */\n      dup2\n      swap1\n      sstore\n      pop\n        /* \"Dapp/MoneyTransfer.sol\":3684:3885  if(callCount <= 5 && block.timestamp >= (firstTransferTime + 30 seconds)){... */\n    tag_111:\n        /* \"Dapp/MoneyTransfer.sol\":790:799  _receiver */\n      dup2\n        /* \"Dapp/MoneyTransfer.sol\":779:787  receiver */\n      0x05\n      0x00\n        /* \"Dapp/MoneyTransfer.sol\":779:799  receiver = _receiver */\n      0x0100\n      exp\n      dup2\n      sload\n      dup2\n      0xffffffffffffffffffffffffffffffffffffffff\n      mul\n      not\n      and\n      swap1\n      dup4\n      0xffffffffffffffffffffffffffffffffffffffff\n      and\n      mul\n      or\n      swap1\n      sstore\n      pop\n        /* \"Dapp/MoneyTransfer.sol\":819:826  _amount */\n      dup3\n        /* \"Dapp/MoneyTransfer.sol\":810:816  amount */\n      0x03\n        /* \"Dapp/MoneyTransfer.sol\":810:826  amount = _amount */\n      dup2\n      swap1\n      sstore\n      pop\n        /* \"Dapp/MoneyTransfer.sol\":999:1000  1 */\n      0x01\n        /* \"Dapp/MoneyTransfer.sol\":986:995  callCount */\n      0x0b\n      0x00\n        /* \"Dapp/MoneyTransfer.sol\":986:1000  callCount += 1 */\n      dup3\n      dup3\n      sload\n      tag_115\n      swap2\n      swap1\n      tag_102\n      jump\t// in\n    tag_115:\n      swap3\n      pop\n      pop\n      dup2\n      swap1\n      sstore\n      pop\n        /* \"Dapp/MoneyTransfer.sol\":1056:1057  0 */\n      0x00\n        /* \"Dapp/MoneyTransfer.sol\":1043:1053  TotalFunds */\n      sload(0x04)\n        /* \"Dapp/MoneyTransfer.sol\":1043:1057  TotalFunds > 0 */\n      gt\n        /* \"Dapp/MoneyTransfer.sol\":1043:1080  TotalFunds > 0 && TotalFunds > amount */\n      dup1\n      iszero\n      tag_116\n      jumpi\n      pop\n        /* \"Dapp/MoneyTransfer.sol\":1074:1080  amount */\n      sload(0x03)\n        /* \"Dapp/MoneyTransfer.sol\":1061:1071  TotalFunds */\n      sload(0x04)\n        /* \"Dapp/MoneyTransfer.sol\":1061:1080  TotalFunds > amount */\n      gt\n        /* \"Dapp/MoneyTransfer.sol\":1043:1080  TotalFunds > 0 && TotalFunds > amount */\n    tag_116:\n        /* \"Dapp/MoneyTransfer.sol\":1040:1523  if(TotalFunds > 0 && TotalFunds > amount){... */\n      iszero\n      tag_117\n      jumpi\n        /* \"Dapp/MoneyTransfer.sol\":1118:1124  amount */\n      sload(0x03)\n        /* \"Dapp/MoneyTransfer.sol\":1104:1114  TotalFunds */\n      0x04\n      0x00\n        /* \"Dapp/MoneyTransfer.sol\":1104:1124  TotalFunds -= amount */\n      dup3\n      dup3\n      sload\n      tag_118\n      swap2\n      swap1\n      tag_119\n      jump\t// in\n    tag_118:\n      swap3\n      pop\n      pop\n      dup2\n      swap1\n      sstore\n      pop\n        /* \"Dapp/MoneyTransfer.sol\":1162:1168  amount */\n      sload(0x03)\n        /* \"Dapp/MoneyTransfer.sol\":1147:1158  TotalAmount */\n      0x09\n      0x00\n        /* \"Dapp/MoneyTransfer.sol\":1147:1168  TotalAmount += amount */\n      dup3\n      dup3\n      sload\n      tag_120\n      swap2\n      swap1\n      tag_102\n      jump\t// in\n    tag_120:\n      swap3\n      pop\n      pop\n      dup2\n      swap1\n      sstore\n      pop\n        /* \"Dapp/MoneyTransfer.sol\":1235:1295  addTransaction(msg.sender,receiver, amount, block.timestamp) */\n      tag_121\n        /* \"Dapp/MoneyTransfer.sol\":1250:1260  msg.sender */\n      caller\n        /* \"Dapp/MoneyTransfer.sol\":1261:1269  receiver */\n      0x05\n      0x00\n      swap1\n      sload\n      swap1\n      0x0100\n      exp\n      swap1\n      div\n      0xffffffffffffffffffffffffffffffffffffffff\n      and\n        /* \"Dapp/MoneyTransfer.sol\":1271:1277  amount */\n      sload(0x03)\n        /* \"Dapp/MoneyTransfer.sol\":1279:1294  block.timestamp */\n      timestamp\n        /* \"Dapp/MoneyTransfer.sol\":1235:1249  addTransaction */\n      tag_122\n        /* \"Dapp/MoneyTransfer.sol\":1235:1295  addTransaction(msg.sender,receiver, amount, block.timestamp) */\n      jump\t// in\n    tag_121:\n        /* \"Dapp/MoneyTransfer.sol\":1318:1348  message = \"Transfer completed\" */\n      mload(0x40)\n      dup1\n      0x40\n      add\n      0x40\n      mstore\n      dup1\n      0x12\n      dup2\n      mstore\n      0x20\n      add\n      0x5472616e7366657220636f6d706c657465640000000000000000000000000000\n      dup2\n      mstore\n      pop\n        /* \"Dapp/MoneyTransfer.sol\":1318:1325  message */\n      0x06\n        /* \"Dapp/MoneyTransfer.sol\":1318:1348  message = \"Transfer completed\" */\n      swap1\n      dup2\n      tag_123\n      swap2\n      swap1\n      tag_124\n      jump\t// in\n    tag_123:\n      pop\n        /* \"Dapp/MoneyTransfer.sol\":1040:1523  if(TotalFunds > 0 && TotalFunds > amount){... */\n      jump(tag_125)\n    tag_117:\n        /* \"Dapp/MoneyTransfer.sol\":1476:1502  revert(\"Not enough funds\") */\n      mload(0x40)\n      0x08c379a000000000000000000000000000000000000000000000000000000000\n      dup2\n      mstore\n      0x04\n      add\n      tag_126\n      swap1\n      tag_127\n      jump\t// in\n    tag_126:\n      mload(0x40)\n      dup1\n      swap2\n      sub\n      swap1\n      revert\n        /* \"Dapp/MoneyTransfer.sol\":1040:1523  if(TotalFunds > 0 && TotalFunds > amount){... */\n    tag_125:\n        /* \"Dapp/MoneyTransfer.sol\":652:1540  function sendMoney( uint _amount, address _receiver) public m_validAddress(_receiver) m_ifCardExists m_transferLimit{... */\n      pop\n      pop\n      pop\n      jump\t// out\n        /* \"Dapp/MoneyTransfer.sol\":350:379  uint public firstTransferTime */\n    tag_35:\n      sload(0x0a)\n      dup2\n      jump\t// out\n        /* \"Dapp/MoneyTransfer.sol\":1548:1813  function setCard(string memory _cardNumber, string memory _cvv) public  m_checkCard {... */\n    tag_41:\n        /* \"Dapp/MoneyTransfer.sol\":1662:1673  _cardNumber */\n      dup2\n        /* \"Dapp/MoneyTransfer.sol\":1649:1659  cardNumber */\n      0x07\n        /* \"Dapp/MoneyTransfer.sol\":1649:1673  cardNumber = _cardNumber */\n      swap1\n      dup2\n      tag_130\n      swap2\n      swap1\n      tag_124\n      jump\t// in\n    tag_130:\n      pop\n        /* \"Dapp/MoneyTransfer.sol\":1694:1698  _cvv */\n      dup1\n        /* \"Dapp/MoneyTransfer.sol\":1688:1691  cvv */\n      0x08\n        /* \"Dapp/MoneyTransfer.sol\":1688:1698  cvv = _cvv */\n      swap1\n      dup2\n      tag_131\n      swap2\n      swap1\n      tag_124\n      jump\t// in\n    tag_131:\n      pop\n        /* \"Dapp/MoneyTransfer.sol\":1746:1750  true */\n      0x01\n        /* \"Dapp/MoneyTransfer.sol\":1732:1743  callPutCard */\n      0x0c\n      0x00\n        /* \"Dapp/MoneyTransfer.sol\":1732:1750  callPutCard = true */\n      0x0100\n      exp\n      dup2\n      sload\n      dup2\n      0xff\n      mul\n      not\n      and\n      swap1\n      dup4\n      iszero\n      iszero\n      mul\n      or\n      swap1\n      sstore\n      pop\n        /* \"Dapp/MoneyTransfer.sol\":1788:1803  block.timestamp */\n      timestamp\n        /* \"Dapp/MoneyTransfer.sol\":1768:1785  firstTransferTime */\n      0x0a\n        /* \"Dapp/MoneyTransfer.sol\":1768:1803  firstTransferTime = block.timestamp */\n      dup2\n      swap1\n      sstore\n      pop\n        /* \"Dapp/MoneyTransfer.sol\":2320:2321  8 */\n      0x08\n        /* \"Dapp/MoneyTransfer.sol\":2298:2308  cardNumber */\n      0x07\n        /* \"Dapp/MoneyTransfer.sol\":2292:2316  bytes(cardNumber).length */\n      dup1\n      sload\n      tag_132\n      swap1\n      tag_133\n      jump\t// in\n    tag_132:\n      swap1\n      pop\n        /* \"Dapp/MoneyTransfer.sol\":2292:2321  bytes(cardNumber).length == 8 */\n      eq\n        /* \"Dapp/MoneyTransfer.sol\":2292:2347  bytes(cardNumber).length == 8 && bytes(cvv).length == 3 */\n      dup1\n      iszero\n      tag_134\n      jumpi\n      pop\n        /* \"Dapp/MoneyTransfer.sol\":2346:2347  3 */\n      0x03\n        /* \"Dapp/MoneyTransfer.sol\":2331:2334  cvv */\n      0x08\n        /* \"Dapp/MoneyTransfer.sol\":2325:2342  bytes(cvv).length */\n      dup1\n      sload\n      tag_135\n      swap1\n      tag_133\n      jump\t// in\n    tag_135:\n      swap1\n      pop\n        /* \"Dapp/MoneyTransfer.sol\":2325:2347  bytes(cvv).length == 3 */\n      eq\n        /* \"Dapp/MoneyTransfer.sol\":2292:2347  bytes(cardNumber).length == 8 && bytes(cvv).length == 3 */\n    tag_134:\n        /* \"Dapp/MoneyTransfer.sol\":2284:2372  require(bytes(cardNumber).length == 8 && bytes(cvv).length == 3, \"No valid credit card\") */\n      tag_136\n      jumpi\n      mload(0x40)\n      0x08c379a000000000000000000000000000000000000000000000000000000000\n      dup2\n      mstore\n      0x04\n      add\n      tag_137\n      swap1\n      tag_138\n      jump\t// in\n    tag_137:\n      mload(0x40)\n      dup1\n      swap2\n      sub\n      swap1\n      revert\n    tag_136:\n        /* \"Dapp/MoneyTransfer.sol\":1548:1813  function setCard(string memory _cardNumber, string memory _cvv) public  m_checkCard {... */\n      pop\n      pop\n      jump\t// out\n        /* \"Dapp/MoneyTransfer.sol\":611:642  bool public callPutCard = false */\n    tag_43:\n      0x0c\n      0x00\n      swap1\n      sload\n      swap1\n      0x0100\n      exp\n      swap1\n      div\n      0xff\n      and\n      dup2\n      jump\t// out\n        /* \"Dapp/MoneyTransfer.sol\":292:309  string public cvv */\n    tag_47:\n      0x08\n      dup1\n      sload\n      tag_139\n      swap1\n      tag_133\n      jump\t// in\n    tag_139:\n      dup1\n      0x1f\n      add\n      0x20\n      dup1\n      swap2\n      div\n      mul\n      0x20\n      add\n      mload(0x40)\n      swap1\n      dup2\n      add\n      0x40\n      mstore\n      dup1\n      swap3\n      swap2\n      swap1\n      dup2\n      dup2\n      mstore\n      0x20\n      add\n      dup3\n      dup1\n      sload\n      tag_140\n      swap1\n      tag_133\n      jump\t// in\n    tag_140:\n      dup1\n      iszero\n      tag_141\n      jumpi\n      dup1\n      0x1f\n      lt\n      tag_142\n      jumpi\n      0x0100\n      dup1\n      dup4\n      sload\n      div\n      mul\n      dup4\n      mstore\n      swap2\n      0x20\n      add\n      swap2\n      jump(tag_141)\n    tag_142:\n      dup3\n      add\n      swap2\n      swap1\n      0x00\n      mstore\n      keccak256(0x00, 0x20)\n      swap1\n    tag_143:\n      dup2\n      sload\n      dup2\n      mstore\n      swap1\n      0x01\n      add\n      swap1\n      0x20\n      add\n      dup1\n      dup4\n      gt\n      tag_143\n      jumpi\n      dup3\n      swap1\n      sub\n      0x1f\n      and\n      dup3\n      add\n      swap2\n    tag_141:\n      pop\n      pop\n      pop\n      pop\n      pop\n      dup2\n      jump\t// out\n        /* \"Dapp/MoneyTransfer.sol\":578:603  uint public callCount = 0 */\n    tag_51:\n      sload(0x0b)\n      dup2\n      jump\t// out\n        /* \"Dapp/MoneyTransfer.sol\":3920:4006  function getTime()public view returns(uint ){... */\n    tag_54:\n        /* \"Dapp/MoneyTransfer.sol\":3958:3962  uint */\n      0x00\n        /* \"Dapp/MoneyTransfer.sol\":3983:3998  block.timestamp */\n      timestamp\n        /* \"Dapp/MoneyTransfer.sol\":3975:3998  return  block.timestamp */\n      swap1\n      pop\n        /* \"Dapp/MoneyTransfer.sol\":3920:4006  function getTime()public view returns(uint ){... */\n      swap1\n      jump\t// out\n        /* \"Dapp/Transaction.sol\":283:324  mapping (uint => Transactions) public trn */\n    tag_58:\n      mstore(0x20, 0x01)\n      dup1\n      0x00\n      mstore\n      keccak256(0x00, 0x40)\n      0x00\n      swap2\n      pop\n      swap1\n      pop\n      dup1\n      0x00\n      add\n      0x00\n      swap1\n      sload\n      swap1\n      0x0100\n      exp\n      swap1\n      div\n      0xffffffffffffffffffffffffffffffffffffffff\n      and\n      swap1\n      dup1\n      0x01\n      add\n      0x00\n      swap1\n      sload\n      swap1\n      0x0100\n      exp\n      swap1\n      div\n      0xffffffffffffffffffffffffffffffffffffffff\n      and\n      swap1\n      dup1\n      0x02\n      add\n      sload\n      swap1\n      dup1\n      0x03\n      add\n      sload\n      swap1\n      pop\n      dup5\n      jump\t// out\n        /* \"Dapp/Transaction.sol\":707:818  function getTransaction() public view returns(Transactions[] memory){... */\n    tag_61:\n        /* \"Dapp/Transaction.sol\":753:774  Transactions[] memory */\n      0x60\n        /* \"Dapp/Transaction.sol\":795:810  transactionList */\n      0x00\n        /* \"Dapp/Transaction.sol\":788:810  return transactionList */\n      dup1\n      sload\n      dup1\n      0x20\n      mul\n      0x20\n      add\n      mload(0x40)\n      swap1\n      dup2\n      add\n      0x40\n      mstore\n      dup1\n      swap3\n      swap2\n      swap1\n      dup2\n      dup2\n      mstore\n      0x20\n      add\n      0x00\n      swap1\n    tag_146:\n      dup3\n      dup3\n      lt\n      iszero\n      tag_147\n      jumpi\n      dup4\n      dup3\n      swap1\n      0x00\n      mstore\n      keccak256(0x00, 0x20)\n      swap1\n      0x04\n      mul\n      add\n      mload(0x40)\n      dup1\n      0x80\n      add\n      0x40\n      mstore\n      swap1\n      dup2\n      0x00\n      dup3\n      add\n      0x00\n      swap1\n      sload\n      swap1\n      0x0100\n      exp\n      swap1\n      div\n      0xffffffffffffffffffffffffffffffffffffffff\n      and\n      0xffffffffffffffffffffffffffffffffffffffff\n      and\n      0xffffffffffffffffffffffffffffffffffffffff\n      and\n      dup2\n      mstore\n      0x20\n      add\n      0x01\n      dup3\n      add\n      0x00\n      swap1\n      sload\n      swap1\n      0x0100\n      exp\n      swap1\n      div\n      0xffffffffffffffffffffffffffffffffffffffff\n      and\n      0xffffffffffffffffffffffffffffffffffffffff\n      and\n      0xffffffffffffffffffffffffffffffffffffffff\n      and\n      dup2\n      mstore\n      0x20\n      add\n      0x02\n      dup3\n      add\n      sload\n      dup2\n      mstore\n      0x20\n      add\n      0x03\n      dup3\n      add\n      sload\n      dup2\n      mstore\n      pop\n      pop\n      dup2\n      mstore\n      0x20\n      add\n      swap1\n      0x01\n      add\n      swap1\n      jump(tag_146)\n    tag_147:\n      pop\n      pop\n      pop\n      pop\n      swap1\n      pop\n        /* \"Dapp/Transaction.sol\":707:818  function getTransaction() public view returns(Transactions[] memory){... */\n      swap1\n      jump\t// out\n        /* \"Dapp/MoneyTransfer.sol\":176:201  uint256 public TotalFunds */\n    tag_65:\n      sload(0x04)\n      dup2\n      jump\t// out\n        /* \"Dapp/MoneyTransfer.sol\":316:342  uint256 public TotalAmount */\n    tag_68:\n      sload(0x09)\n      dup2\n      jump\t// out\n        /* \"Dapp/MoneyTransfer.sol\":1834:1903  function getOutCard() public  {... */\n    tag_71:\n        /* \"Dapp/MoneyTransfer.sol\":1888:1893  false */\n      0x00\n        /* \"Dapp/MoneyTransfer.sol\":1874:1885  callPutCard */\n      0x0c\n      0x00\n        /* \"Dapp/MoneyTransfer.sol\":1874:1893  callPutCard = false */\n      0x0100\n      exp\n      dup2\n      sload\n      dup2\n      0xff\n      mul\n      not\n      and\n      swap1\n      dup4\n      iszero\n      iszero\n      mul\n      or\n      swap1\n      sstore\n      pop\n        /* \"Dapp/MoneyTransfer.sol\":1834:1903  function getOutCard() public  {... */\n      jump\t// out\n        /* \"Dapp/MoneyTransfer.sol\":260:284  string public cardNumber */\n    tag_73:\n      0x07\n      dup1\n      sload\n      tag_150\n      swap1\n      tag_133\n      jump\t// in\n    tag_150:\n      dup1\n      0x1f\n      add\n      0x20\n      dup1\n      swap2\n      div\n      mul\n      0x20\n      add\n      mload(0x40)\n      swap1\n      dup2\n      add\n      0x40\n      mstore\n      dup1\n      swap3\n      swap2\n      swap1\n      dup2\n      dup2\n      mstore\n      0x20\n      add\n      dup3\n      dup1\n      sload\n      tag_151\n      swap1\n      tag_133\n      jump\t// in\n    tag_151:\n      dup1\n      iszero\n      tag_152\n      jumpi\n      dup1\n      0x1f\n      lt\n      tag_153\n      jumpi\n      0x0100\n      dup1\n      dup4\n      sload\n      div\n      mul\n      dup4\n      mstore\n      swap2\n      0x20\n      add\n      swap2\n      jump(tag_152)\n    tag_153:\n      dup3\n      add\n      swap2\n      swap1\n      0x00\n      mstore\n      keccak256(0x00, 0x20)\n      swap1\n    tag_154:\n      dup2\n      sload\n      dup2\n      mstore\n      swap1\n      0x01\n      add\n      swap1\n      0x20\n      add\n      dup1\n      dup4\n      gt\n      tag_154\n      jumpi\n      dup3\n      swap1\n      sub\n      0x1f\n      and\n      dup3\n      add\n      swap2\n    tag_152:\n      pop\n      pop\n      pop\n      pop\n      pop\n      dup2\n      jump\t// out\n        /* \"Dapp/MoneyTransfer.sol\":148:169  uint256 public amount */\n    tag_76:\n      sload(0x03)\n      dup2\n      jump\t// out\n        /* \"Dapp/Transaction.sol\":952:1043  function getTransactionPerWeek() public view returns(uint){... */\n    tag_79:\n        /* \"Dapp/Transaction.sol\":1005:1009  uint */\n      0x00\n        /* \"Dapp/Transaction.sol\":1028:1035  counter */\n      sload(0x02)\n        /* \"Dapp/Transaction.sol\":1021:1035  return counter */\n      swap1\n      pop\n        /* \"Dapp/Transaction.sol\":952:1043  function getTransactionPerWeek() public view returns(uint){... */\n      swap1\n      jump\t// out\n        /* \"Dapp/MoneyTransfer.sol\":232:253  string public message */\n    tag_82:\n      0x06\n      dup1\n      sload\n      tag_156\n      swap1\n      tag_133\n      jump\t// in\n    tag_156:\n      dup1\n      0x1f\n      add\n      0x20\n      dup1\n      swap2\n      div\n      mul\n      0x20\n      add\n      mload(0x40)\n      swap1\n      dup2\n      add\n      0x40\n      mstore\n      dup1\n      swap3\n      swap2\n      swap1\n      dup2\n      dup2\n      mstore\n      0x20\n      add\n      dup3\n      dup1\n      sload\n      tag_157\n      swap1\n      tag_133\n      jump\t// in\n    tag_157:\n      dup1\n      iszero\n      tag_158\n      jumpi\n      dup1\n      0x1f\n      lt\n      tag_159\n      jumpi\n      0x0100\n      dup1\n      dup4\n      sload\n      div\n      mul\n      dup4\n      mstore\n      swap2\n      0x20\n      add\n      swap2\n      jump(tag_158)\n    tag_159:\n      dup3\n      add\n      swap2\n      swap1\n      0x00\n      mstore\n      keccak256(0x00, 0x20)\n      swap1\n    tag_160:\n      dup2\n      sload\n      dup2\n      mstore\n      swap1\n      0x01\n      add\n      swap1\n      0x20\n      add\n      dup1\n      dup4\n      gt\n      tag_160\n      jumpi\n      dup3\n      swap1\n      sub\n      0x1f\n      and\n      dup3\n      add\n      swap2\n    tag_158:\n      pop\n      pop\n      pop\n      pop\n      pop\n      dup2\n      jump\t// out\n        /* \"Dapp/Transaction.sol\":826:944  function getTransactionById(uint _index)public view returns(Transactions memory){... */\n    tag_86:\n        /* \"Dapp/Transaction.sol\":886:905  Transactions memory */\n      tag_161\n      tag_162\n      jump\t// in\n    tag_161:\n        /* \"Dapp/Transaction.sol\":924:927  trn */\n      0x01\n        /* \"Dapp/Transaction.sol\":924:935  trn[_index] */\n      0x00\n        /* \"Dapp/Transaction.sol\":928:934  _index */\n      dup4\n        /* \"Dapp/Transaction.sol\":924:935  trn[_index] */\n      dup2\n      mstore\n      0x20\n      add\n      swap1\n      dup2\n      mstore\n      0x20\n      add\n      0x00\n      keccak256\n        /* \"Dapp/Transaction.sol\":917:935  return trn[_index] */\n      mload(0x40)\n      dup1\n      0x80\n      add\n      0x40\n      mstore\n      swap1\n      dup2\n      0x00\n      dup3\n      add\n      0x00\n      swap1\n      sload\n      swap1\n      0x0100\n      exp\n      swap1\n      div\n      0xffffffffffffffffffffffffffffffffffffffff\n      and\n      0xffffffffffffffffffffffffffffffffffffffff\n      and\n      0xffffffffffffffffffffffffffffffffffffffff\n      and\n      dup2\n      mstore\n      0x20\n      add\n      0x01\n      dup3\n      add\n      0x00\n      swap1\n      sload\n      swap1\n      0x0100\n      exp\n      swap1\n      div\n      0xffffffffffffffffffffffffffffffffffffffff\n      and\n      0xffffffffffffffffffffffffffffffffffffffff\n      and\n      0xffffffffffffffffffffffffffffffffffffffff\n      and\n      dup2\n      mstore\n      0x20\n      add\n      0x02\n      dup3\n      add\n      sload\n      dup2\n      mstore\n      0x20\n      add\n      0x03\n      dup3\n      add\n      sload\n      dup2\n      mstore\n      pop\n      pop\n      swap1\n      pop\n        /* \"Dapp/Transaction.sol\":826:944  function getTransactionById(uint _index)public view returns(Transactions memory){... */\n      swap2\n      swap1\n      pop\n      jump\t// out\n        /* \"Dapp/Transaction.sol\":357:699  function addTransaction(address _address_from ,address _address_to, uint _amount, uint _timestamp)internal{... */\n    tag_122:\n        /* \"Dapp/Transaction.sol\":484:518  Transactions memory newTransaction */\n      0x00\n        /* \"Dapp/Transaction.sol\":521:582  Transactions(_address_from, _address_to, _amount, _timestamp) */\n      mload(0x40)\n      dup1\n      0x80\n      add\n      0x40\n      mstore\n      dup1\n        /* \"Dapp/Transaction.sol\":534:547  _address_from */\n      dup7\n        /* \"Dapp/Transaction.sol\":521:582  Transactions(_address_from, _address_to, _amount, _timestamp) */\n      0xffffffffffffffffffffffffffffffffffffffff\n      and\n      dup2\n      mstore\n      0x20\n      add\n        /* \"Dapp/Transaction.sol\":549:560  _address_to */\n      dup6\n        /* \"Dapp/Transaction.sol\":521:582  Transactions(_address_from, _address_to, _amount, _timestamp) */\n      0xffffffffffffffffffffffffffffffffffffffff\n      and\n      dup2\n      mstore\n      0x20\n      add\n        /* \"Dapp/Transaction.sol\":562:569  _amount */\n      dup5\n        /* \"Dapp/Transaction.sol\":521:582  Transactions(_address_from, _address_to, _amount, _timestamp) */\n      dup2\n      mstore\n      0x20\n      add\n        /* \"Dapp/Transaction.sol\":571:581  _timestamp */\n      dup4\n        /* \"Dapp/Transaction.sol\":521:582  Transactions(_address_from, _address_to, _amount, _timestamp) */\n      dup2\n      mstore\n      pop\n        /* \"Dapp/Transaction.sol\":484:582  Transactions memory newTransaction = Transactions(_address_from, _address_to, _amount, _timestamp) */\n      swap1\n      pop\n        /* \"Dapp/Transaction.sol\":593:608  transactionList */\n      0x00\n        /* \"Dapp/Transaction.sol\":614:628  newTransaction */\n      dup2\n        /* \"Dapp/Transaction.sol\":593:629  transactionList.push(newTransaction) */\n      swap1\n      dup1\n      0x01\n      dup2\n      sload\n      add\n      dup1\n      dup3\n      sstore\n      dup1\n      swap2\n      pop\n      pop\n      0x01\n      swap1\n      sub\n      swap1\n      0x00\n      mstore\n      keccak256(0x00, 0x20)\n      swap1\n      0x04\n      mul\n      add\n      0x00\n      swap1\n      swap2\n      swap1\n      swap2\n      swap1\n      swap2\n      pop\n      0x00\n      dup3\n      add\n      mload\n      dup2\n      0x00\n      add\n      exp(0x0100, 0x00)\n      dup2\n      sload\n      dup2\n      0xffffffffffffffffffffffffffffffffffffffff\n      mul\n      not\n      and\n      swap1\n      dup4\n      0xffffffffffffffffffffffffffffffffffffffff\n      and\n      mul\n      or\n      swap1\n      sstore\n      pop\n      0x20\n      dup3\n      add\n      mload\n      dup2\n      0x01\n      add\n      exp(0x0100, 0x00)\n      dup2\n      sload\n      dup2\n      0xffffffffffffffffffffffffffffffffffffffff\n      mul\n      not\n      and\n      swap1\n      dup4\n      0xffffffffffffffffffffffffffffffffffffffff\n      and\n      mul\n      or\n      swap1\n      sstore\n      pop\n      0x40\n      dup3\n      add\n      mload\n      dup2\n      0x02\n      add\n      sstore\n      0x60\n      dup3\n      add\n      mload\n      dup2\n      0x03\n      add\n      sstore\n      pop\n      pop\n        /* \"Dapp/Transaction.sol\":655:669  newTransaction */\n      dup1\n        /* \"Dapp/Transaction.sol\":640:643  trn */\n      0x01\n        /* \"Dapp/Transaction.sol\":640:652  trn[counter] */\n      0x00\n        /* \"Dapp/Transaction.sol\":644:651  counter */\n      sload(0x02)\n        /* \"Dapp/Transaction.sol\":640:652  trn[counter] */\n      dup2\n      mstore\n      0x20\n      add\n      swap1\n      dup2\n      mstore\n      0x20\n      add\n      0x00\n      keccak256\n        /* \"Dapp/Transaction.sol\":640:669  trn[counter] = newTransaction */\n      0x00\n      dup3\n      add\n      mload\n      dup2\n      0x00\n      add\n      exp(0x0100, 0x00)\n      dup2\n      sload\n      dup2\n      0xffffffffffffffffffffffffffffffffffffffff\n      mul\n      not\n      and\n      swap1\n      dup4\n      0xffffffffffffffffffffffffffffffffffffffff\n      and\n      mul\n      or\n      swap1\n      sstore\n      pop\n      0x20\n      dup3\n      add\n      mload\n      dup2\n      0x01\n      add\n      exp(0x0100, 0x00)\n      dup2\n      sload\n      dup2\n      0xffffffffffffffffffffffffffffffffffffffff\n      mul\n      not\n      and\n      swap1\n      dup4\n      0xffffffffffffffffffffffffffffffffffffffff\n      and\n      mul\n      or\n      swap1\n      sstore\n      pop\n      0x40\n      dup3\n      add\n      mload\n      dup2\n      0x02\n      add\n      sstore\n      0x60\n      dup3\n      add\n      mload\n      dup2\n      0x03\n      add\n      sstore\n      swap1\n      pop\n      pop\n        /* \"Dapp/Transaction.sol\":680:687  counter */\n      0x02\n      0x00\n        /* \"Dapp/Transaction.sol\":680:689  counter++ */\n      dup2\n      sload\n      dup1\n      swap3\n      swap2\n      swap1\n      tag_166\n      swap1\n      tag_167\n      jump\t// in\n    tag_166:\n      swap2\n      swap1\n      pop\n      sstore\n      pop\n        /* \"Dapp/Transaction.sol\":463:699  {... */\n      pop\n        /* \"Dapp/Transaction.sol\":357:699  function addTransaction(address _address_from ,address _address_to, uint _amount, uint _timestamp)internal{... */\n      pop\n      pop\n      pop\n      pop\n      jump\t// out\n    tag_162:\n      mload(0x40)\n      dup1\n      0x80\n      add\n      0x40\n      mstore\n      dup1\n      and(0xffffffffffffffffffffffffffffffffffffffff, 0x00)\n      dup2\n      mstore\n      0x20\n      add\n      and(0xffffffffffffffffffffffffffffffffffffffff, 0x00)\n      dup2\n      mstore\n      0x20\n      add\n      0x00\n      dup2\n      mstore\n      0x20\n      add\n      0x00\n      dup2\n      mstore\n      pop\n      swap1\n      jump\t// out\n        /* \"#utility.yul\":7:82   */\n    tag_168:\n        /* \"#utility.yul\":40:46   */\n      0x00\n        /* \"#utility.yul\":73:75   */\n      0x40\n        /* \"#utility.yul\":67:76   */\n      mload\n        /* \"#utility.yul\":57:76   */\n      swap1\n      pop\n        /* \"#utility.yul\":7:82   */\n      swap1\n      jump\t// out\n        /* \"#utility.yul\":88:205   */\n    tag_169:\n        /* \"#utility.yul\":197:198   */\n      0x00\n        /* \"#utility.yul\":194:195   */\n      dup1\n        /* \"#utility.yul\":187:199   */\n      revert\n        /* \"#utility.yul\":211:328   */\n    tag_170:\n        /* \"#utility.yul\":320:321   */\n      0x00\n        /* \"#utility.yul\":317:318   */\n      dup1\n        /* \"#utility.yul\":310:322   */\n      revert\n        /* \"#utility.yul\":334:411   */\n    tag_171:\n        /* \"#utility.yul\":371:378   */\n      0x00\n        /* \"#utility.yul\":400:405   */\n      dup2\n        /* \"#utility.yul\":389:405   */\n      swap1\n      pop\n        /* \"#utility.yul\":334:411   */\n      swap2\n      swap1\n      pop\n      jump\t// out\n        /* \"#utility.yul\":417:539   */\n    tag_172:\n        /* \"#utility.yul\":490:514   */\n      tag_239\n        /* \"#utility.yul\":508:513   */\n      dup2\n        /* \"#utility.yul\":490:514   */\n      tag_171\n      jump\t// in\n    tag_239:\n        /* \"#utility.yul\":483:488   */\n      dup2\n        /* \"#utility.yul\":480:515   */\n      eq\n        /* \"#utility.yul\":470:533   */\n      tag_240\n      jumpi\n        /* \"#utility.yul\":529:530   */\n      0x00\n        /* \"#utility.yul\":526:527   */\n      dup1\n        /* \"#utility.yul\":519:531   */\n      revert\n        /* \"#utility.yul\":470:533   */\n    tag_240:\n        /* \"#utility.yul\":417:539   */\n      pop\n      jump\t// out\n        /* \"#utility.yul\":545:684   */\n    tag_173:\n        /* \"#utility.yul\":591:596   */\n      0x00\n        /* \"#utility.yul\":629:635   */\n      dup2\n        /* \"#utility.yul\":616:636   */\n      calldataload\n        /* \"#utility.yul\":607:636   */\n      swap1\n      pop\n        /* \"#utility.yul\":645:678   */\n      tag_242\n        /* \"#utility.yul\":672:677   */\n      dup2\n        /* \"#utility.yul\":645:678   */\n      tag_172\n      jump\t// in\n    tag_242:\n        /* \"#utility.yul\":545:684   */\n      swap3\n      swap2\n      pop\n      pop\n      jump\t// out\n        /* \"#utility.yul\":690:1019   */\n    tag_26:\n        /* \"#utility.yul\":749:755   */\n      0x00\n        /* \"#utility.yul\":798:800   */\n      0x20\n        /* \"#utility.yul\":786:795   */\n      dup3\n        /* \"#utility.yul\":777:784   */\n      dup5\n        /* \"#utility.yul\":773:796   */\n      sub\n        /* \"#utility.yul\":769:801   */\n      slt\n        /* \"#utility.yul\":766:885   */\n      iszero\n      tag_244\n      jumpi\n        /* \"#utility.yul\":804:883   */\n      tag_245\n      tag_169\n      jump\t// in\n    tag_245:\n        /* \"#utility.yul\":766:885   */\n    tag_244:\n        /* \"#utility.yul\":924:925   */\n      0x00\n        /* \"#utility.yul\":949:1002   */\n      tag_246\n        /* \"#utility.yul\":994:1001   */\n      dup5\n        /* \"#utility.yul\":985:991   */\n      dup3\n        /* \"#utility.yul\":974:983   */\n      dup6\n        /* \"#utility.yul\":970:992   */\n      add\n        /* \"#utility.yul\":949:1002   */\n      tag_173\n      jump\t// in\n    tag_246:\n        /* \"#utility.yul\":939:1002   */\n      swap2\n      pop\n        /* \"#utility.yul\":895:1012   */\n      pop\n        /* \"#utility.yul\":690:1019   */\n      swap3\n      swap2\n      pop\n      pop\n      jump\t// out\n        /* \"#utility.yul\":1025:1151   */\n    tag_174:\n        /* \"#utility.yul\":1062:1069   */\n      0x00\n        /* \"#utility.yul\":1102:1144   */\n      0xffffffffffffffffffffffffffffffffffffffff\n        /* \"#utility.yul\":1095:1100   */\n      dup3\n        /* \"#utility.yul\":1091:1145   */\n      and\n        /* \"#utility.yul\":1080:1145   */\n      swap1\n      pop\n        /* \"#utility.yul\":1025:1151   */\n      swap2\n      swap1\n      pop\n      jump\t// out\n        /* \"#utility.yul\":1157:1253   */\n    tag_175:\n        /* \"#utility.yul\":1194:1201   */\n      0x00\n        /* \"#utility.yul\":1223:1247   */\n      tag_249\n        /* \"#utility.yul\":1241:1246   */\n      dup3\n        /* \"#utility.yul\":1223:1247   */\n      tag_174\n      jump\t// in\n    tag_249:\n        /* \"#utility.yul\":1212:1247   */\n      swap1\n      pop\n        /* \"#utility.yul\":1157:1253   */\n      swap2\n      swap1\n      pop\n      jump\t// out\n        /* \"#utility.yul\":1259:1377   */\n    tag_176:\n        /* \"#utility.yul\":1346:1370   */\n      tag_251\n        /* \"#utility.yul\":1364:1369   */\n      dup2\n        /* \"#utility.yul\":1346:1370   */\n      tag_175\n      jump\t// in\n    tag_251:\n        /* \"#utility.yul\":1341:1344   */\n      dup3\n        /* \"#utility.yul\":1334:1371   */\n      mstore\n        /* \"#utility.yul\":1259:1377   */\n      pop\n      pop\n      jump\t// out\n        /* \"#utility.yul\":1383:1501   */\n    tag_177:\n        /* \"#utility.yul\":1470:1494   */\n      tag_253\n        /* \"#utility.yul\":1488:1493   */\n      dup2\n        /* \"#utility.yul\":1470:1494   */\n      tag_171\n      jump\t// in\n    tag_253:\n        /* \"#utility.yul\":1465:1468   */\n      dup3\n        /* \"#utility.yul\":1458:1495   */\n      mstore\n        /* \"#utility.yul\":1383:1501   */\n      pop\n      pop\n      jump\t// out\n        /* \"#utility.yul\":1507:2060   */\n    tag_29:\n        /* \"#utility.yul\":1684:1688   */\n      0x00\n        /* \"#utility.yul\":1722:1725   */\n      0x80\n        /* \"#utility.yul\":1711:1720   */\n      dup3\n        /* \"#utility.yul\":1707:1726   */\n      add\n        /* \"#utility.yul\":1699:1726   */\n      swap1\n      pop\n        /* \"#utility.yul\":1736:1807   */\n      tag_255\n        /* \"#utility.yul\":1804:1805   */\n      0x00\n        /* \"#utility.yul\":1793:1802   */\n      dup4\n        /* \"#utility.yul\":1789:1806   */\n      add\n        /* \"#utility.yul\":1780:1786   */\n      dup8\n        /* \"#utility.yul\":1736:1807   */\n      tag_176\n      jump\t// in\n    tag_255:\n        /* \"#utility.yul\":1817:1889   */\n      tag_256\n        /* \"#utility.yul\":1885:1887   */\n      0x20\n        /* \"#utility.yul\":1874:1883   */\n      dup4\n        /* \"#utility.yul\":1870:1888   */\n      add\n        /* \"#utility.yul\":1861:1867   */\n      dup7\n        /* \"#utility.yul\":1817:1889   */\n      tag_176\n      jump\t// in\n    tag_256:\n        /* \"#utility.yul\":1899:1971   */\n      tag_257\n        /* \"#utility.yul\":1967:1969   */\n      0x40\n        /* \"#utility.yul\":1956:1965   */\n      dup4\n        /* \"#utility.yul\":1952:1970   */\n      add\n        /* \"#utility.yul\":1943:1949   */\n      dup6\n        /* \"#utility.yul\":1899:1971   */\n      tag_177\n      jump\t// in\n    tag_257:\n        /* \"#utility.yul\":1981:2053   */\n      tag_258\n        /* \"#utility.yul\":2049:2051   */\n      0x60\n        /* \"#utility.yul\":2038:2047   */\n      dup4\n        /* \"#utility.yul\":2034:2052   */\n      add\n        /* \"#utility.yul\":2025:2031   */\n      dup5\n        /* \"#utility.yul\":1981:2053   */\n      tag_177\n      jump\t// in\n    tag_258:\n        /* \"#utility.yul\":1507:2060   */\n      swap6\n      swap5\n      pop\n      pop\n      pop\n      pop\n      pop\n      jump\t// out\n        /* \"#utility.yul\":2066:2188   */\n    tag_178:\n        /* \"#utility.yul\":2139:2163   */\n      tag_260\n        /* \"#utility.yul\":2157:2162   */\n      dup2\n        /* \"#utility.yul\":2139:2163   */\n      tag_175\n      jump\t// in\n    tag_260:\n        /* \"#utility.yul\":2132:2137   */\n      dup2\n        /* \"#utility.yul\":2129:2164   */\n      eq\n        /* \"#utility.yul\":2119:2182   */\n      tag_261\n      jumpi\n        /* \"#utility.yul\":2178:2179   */\n      0x00\n        /* \"#utility.yul\":2175:2176   */\n      dup1\n        /* \"#utility.yul\":2168:2180   */\n      revert\n        /* \"#utility.yul\":2119:2182   */\n    tag_261:\n        /* \"#utility.yul\":2066:2188   */\n      pop\n      jump\t// out\n        /* \"#utility.yul\":2194:2333   */\n    tag_179:\n        /* \"#utility.yul\":2240:2245   */\n      0x00\n        /* \"#utility.yul\":2278:2284   */\n      dup2\n        /* \"#utility.yul\":2265:2285   */\n      calldataload\n        /* \"#utility.yul\":2256:2285   */\n      swap1\n      pop\n        /* \"#utility.yul\":2294:2327   */\n      tag_263\n        /* \"#utility.yul\":2321:2326   */\n      dup2\n        /* \"#utility.yul\":2294:2327   */\n      tag_178\n      jump\t// in\n    tag_263:\n        /* \"#utility.yul\":2194:2333   */\n      swap3\n      swap2\n      pop\n      pop\n      jump\t// out\n        /* \"#utility.yul\":2339:2813   */\n    tag_32:\n        /* \"#utility.yul\":2407:2413   */\n      0x00\n        /* \"#utility.yul\":2415:2421   */\n      dup1\n        /* \"#utility.yul\":2464:2466   */\n      0x40\n        /* \"#utility.yul\":2452:2461   */\n      dup4\n        /* \"#utility.yul\":2443:2450   */\n      dup6\n        /* \"#utility.yul\":2439:2462   */\n      sub\n        /* \"#utility.yul\":2435:2467   */\n      slt\n        /* \"#utility.yul\":2432:2551   */\n      iszero\n      tag_265\n      jumpi\n        /* \"#utility.yul\":2470:2549   */\n      tag_266\n      tag_169\n      jump\t// in\n    tag_266:\n        /* \"#utility.yul\":2432:2551   */\n    tag_265:\n        /* \"#utility.yul\":2590:2591   */\n      0x00\n        /* \"#utility.yul\":2615:2668   */\n      tag_267\n        /* \"#utility.yul\":2660:2667   */\n      dup6\n        /* \"#utility.yul\":2651:2657   */\n      dup3\n        /* \"#utility.yul\":2640:2649   */\n      dup7\n        /* \"#utility.yul\":2636:2658   */\n      add\n        /* \"#utility.yul\":2615:2668   */\n      tag_173\n      jump\t// in\n    tag_267:\n        /* \"#utility.yul\":2605:2668   */\n      swap3\n      pop\n        /* \"#utility.yul\":2561:2678   */\n      pop\n        /* \"#utility.yul\":2717:2719   */\n      0x20\n        /* \"#utility.yul\":2743:2796   */\n      tag_268\n        /* \"#utility.yul\":2788:2795   */\n      dup6\n        /* \"#utility.yul\":2779:2785   */\n      dup3\n        /* \"#utility.yul\":2768:2777   */\n      dup7\n        /* \"#utility.yul\":2764:2786   */\n      add\n        /* \"#utility.yul\":2743:2796   */\n      tag_179\n      jump\t// in\n    tag_268:\n        /* \"#utility.yul\":2733:2796   */\n      swap2\n      pop\n        /* \"#utility.yul\":2688:2806   */\n      pop\n        /* \"#utility.yul\":2339:2813   */\n      swap3\n      pop\n      swap3\n      swap1\n      pop\n      jump\t// out\n        /* \"#utility.yul\":2819:3041   */\n    tag_37:\n        /* \"#utility.yul\":2912:2916   */\n      0x00\n        /* \"#utility.yul\":2950:2952   */\n      0x20\n        /* \"#utility.yul\":2939:2948   */\n      dup3\n        /* \"#utility.yul\":2935:2953   */\n      add\n        /* \"#utility.yul\":2927:2953   */\n      swap1\n      pop\n        /* \"#utility.yul\":2963:3034   */\n      tag_270\n        /* \"#utility.yul\":3031:3032   */\n      0x00\n        /* \"#utility.yul\":3020:3029   */\n      dup4\n        /* \"#utility.yul\":3016:3033   */\n      add\n        /* \"#utility.yul\":3007:3013   */\n      dup5\n        /* \"#utility.yul\":2963:3034   */\n      tag_177\n      jump\t// in\n    tag_270:\n        /* \"#utility.yul\":2819:3041   */\n      swap3\n      swap2\n      pop\n      pop\n      jump\t// out\n        /* \"#utility.yul\":3047:3164   */\n    tag_180:\n        /* \"#utility.yul\":3156:3157   */\n      0x00\n        /* \"#utility.yul\":3153:3154   */\n      dup1\n        /* \"#utility.yul\":3146:3158   */\n      revert\n        /* \"#utility.yul\":3170:3287   */\n    tag_181:\n        /* \"#utility.yul\":3279:3280   */\n      0x00\n        /* \"#utility.yul\":3276:3277   */\n      dup1\n        /* \"#utility.yul\":3269:3281   */\n      revert\n        /* \"#utility.yul\":3293:3395   */\n    tag_182:\n        /* \"#utility.yul\":3334:3340   */\n      0x00\n        /* \"#utility.yul\":3385:3387   */\n      0x1f\n        /* \"#utility.yul\":3381:3388   */\n      not\n        /* \"#utility.yul\":3376:3378   */\n      0x1f\n        /* \"#utility.yul\":3369:3374   */\n      dup4\n        /* \"#utility.yul\":3365:3379   */\n      add\n        /* \"#utility.yul\":3361:3389   */\n      and\n        /* \"#utility.yul\":3351:3389   */\n      swap1\n      pop\n        /* \"#utility.yul\":3293:3395   */\n      swap2\n      swap1\n      pop\n      jump\t// out\n        /* \"#utility.yul\":3401:3581   */\n    tag_183:\n        /* \"#utility.yul\":3449:3526   */\n      0x4e487b7100000000000000000000000000000000000000000000000000000000\n        /* \"#utility.yul\":3446:3447   */\n      0x00\n        /* \"#utility.yul\":3439:3527   */\n      mstore\n        /* \"#utility.yul\":3546:3550   */\n      0x41\n        /* \"#utility.yul\":3543:3544   */\n      0x04\n        /* \"#utility.yul\":3536:3551   */\n      mstore\n        /* \"#utility.yul\":3570:3574   */\n      0x24\n        /* \"#utility.yul\":3567:3568   */\n      0x00\n        /* \"#utility.yul\":3560:3575   */\n      revert\n        /* \"#utility.yul\":3587:3868   */\n    tag_184:\n        /* \"#utility.yul\":3670:3697   */\n      tag_276\n        /* \"#utility.yul\":3692:3696   */\n      dup3\n        /* \"#utility.yul\":3670:3697   */\n      tag_182\n      jump\t// in\n    tag_276:\n        /* \"#utility.yul\":3662:3668   */\n      dup2\n        /* \"#utility.yul\":3658:3698   */\n      add\n        /* \"#utility.yul\":3800:3806   */\n      dup2\n        /* \"#utility.yul\":3788:3798   */\n      dup2\n        /* \"#utility.yul\":3785:3807   */\n      lt\n        /* \"#utility.yul\":3764:3782   */\n      0xffffffffffffffff\n        /* \"#utility.yul\":3752:3762   */\n      dup3\n        /* \"#utility.yul\":3749:3783   */\n      gt\n        /* \"#utility.yul\":3746:3808   */\n      or\n        /* \"#utility.yul\":3743:3831   */\n      iszero\n      tag_277\n      jumpi\n        /* \"#utility.yul\":3811:3829   */\n      tag_278\n      tag_183\n      jump\t// in\n    tag_278:\n        /* \"#utility.yul\":3743:3831   */\n    tag_277:\n        /* \"#utility.yul\":3851:3861   */\n      dup1\n        /* \"#utility.yul\":3847:3849   */\n      0x40\n        /* \"#utility.yul\":3840:3862   */\n      mstore\n        /* \"#utility.yul\":3630:3868   */\n      pop\n        /* \"#utility.yul\":3587:3868   */\n      pop\n      pop\n      jump\t// out\n        /* \"#utility.yul\":3874:4003   */\n    tag_185:\n        /* \"#utility.yul\":3908:3914   */\n      0x00\n        /* \"#utility.yul\":3935:3955   */\n      tag_280\n      tag_168\n      jump\t// in\n    tag_280:\n        /* \"#utility.yul\":3925:3955   */\n      swap1\n      pop\n        /* \"#utility.yul\":3964:3997   */\n      tag_281\n        /* \"#utility.yul\":3992:3996   */\n      dup3\n        /* \"#utility.yul\":3984:3990   */\n      dup3\n        /* \"#utility.yul\":3964:3997   */\n      tag_184\n      jump\t// in\n    tag_281:\n        /* \"#utility.yul\":3874:4003   */\n      swap2\n      swap1\n      pop\n      jump\t// out\n        /* \"#utility.yul\":4009:4317   */\n    tag_186:\n        /* \"#utility.yul\":4071:4075   */\n      0x00\n        /* \"#utility.yul\":4161:4179   */\n      0xffffffffffffffff\n        /* \"#utility.yul\":4153:4159   */\n      dup3\n        /* \"#utility.yul\":4150:4180   */\n      gt\n        /* \"#utility.yul\":4147:4203   */\n      iszero\n      tag_283\n      jumpi\n        /* \"#utility.yul\":4183:4201   */\n      tag_284\n      tag_183\n      jump\t// in\n    tag_284:\n        /* \"#utility.yul\":4147:4203   */\n    tag_283:\n        /* \"#utility.yul\":4221:4250   */\n      tag_285\n        /* \"#utility.yul\":4243:4249   */\n      dup3\n        /* \"#utility.yul\":4221:4250   */\n      tag_182\n      jump\t// in\n    tag_285:\n        /* \"#utility.yul\":4213:4250   */\n      swap1\n      pop\n        /* \"#utility.yul\":4305:4309   */\n      0x20\n        /* \"#utility.yul\":4299:4303   */\n      dup2\n        /* \"#utility.yul\":4295:4310   */\n      add\n        /* \"#utility.yul\":4287:4310   */\n      swap1\n      pop\n        /* \"#utility.yul\":4009:4317   */\n      swap2\n      swap1\n      pop\n      jump\t// out\n        /* \"#utility.yul\":4323:4469   */\n    tag_187:\n        /* \"#utility.yul\":4420:4426   */\n      dup3\n        /* \"#utility.yul\":4415:4418   */\n      dup2\n        /* \"#utility.yul\":4410:4413   */\n      dup4\n        /* \"#utility.yul\":4397:4427   */\n      calldatacopy\n        /* \"#utility.yul\":4461:4462   */\n      0x00\n        /* \"#utility.yul\":4452:4458   */\n      dup4\n        /* \"#utility.yul\":4447:4450   */\n      dup4\n        /* \"#utility.yul\":4443:4459   */\n      add\n        /* \"#utility.yul\":4436:4463   */\n      mstore\n        /* \"#utility.yul\":4323:4469   */\n      pop\n      pop\n      pop\n      jump\t// out\n        /* \"#utility.yul\":4475:4900   */\n    tag_188:\n        /* \"#utility.yul\":4553:4558   */\n      0x00\n        /* \"#utility.yul\":4578:4644   */\n      tag_288\n        /* \"#utility.yul\":4594:4643   */\n      tag_289\n        /* \"#utility.yul\":4636:4642   */\n      dup5\n        /* \"#utility.yul\":4594:4643   */\n      tag_186\n      jump\t// in\n    tag_289:\n        /* \"#utility.yul\":4578:4644   */\n      tag_185\n      jump\t// in\n    tag_288:\n        /* \"#utility.yul\":4569:4644   */\n      swap1\n      pop\n        /* \"#utility.yul\":4667:4673   */\n      dup3\n        /* \"#utility.yul\":4660:4665   */\n      dup2\n        /* \"#utility.yul\":4653:4674   */\n      mstore\n        /* \"#utility.yul\":4705:4709   */\n      0x20\n        /* \"#utility.yul\":4698:4703   */\n      dup2\n        /* \"#utility.yul\":4694:4710   */\n      add\n        /* \"#utility.yul\":4743:4746   */\n      dup5\n        /* \"#utility.yul\":4734:4740   */\n      dup5\n        /* \"#utility.yul\":4729:4732   */\n      dup5\n        /* \"#utility.yul\":4725:4741   */\n      add\n        /* \"#utility.yul\":4722:4747   */\n      gt\n        /* \"#utility.yul\":4719:4831   */\n      iszero\n      tag_290\n      jumpi\n        /* \"#utility.yul\":4750:4829   */\n      tag_291\n      tag_181\n      jump\t// in\n    tag_291:\n        /* \"#utility.yul\":4719:4831   */\n    tag_290:\n        /* \"#utility.yul\":4840:4894   */\n      tag_292\n        /* \"#utility.yul\":4887:4893   */\n      dup5\n        /* \"#utility.yul\":4882:4885   */\n      dup3\n        /* \"#utility.yul\":4877:4880   */\n      dup6\n        /* \"#utility.yul\":4840:4894   */\n      tag_187\n      jump\t// in\n    tag_292:\n        /* \"#utility.yul\":4559:4900   */\n      pop\n        /* \"#utility.yul\":4475:4900   */\n      swap4\n      swap3\n      pop\n      pop\n      pop\n      jump\t// out\n        /* \"#utility.yul\":4920:5260   */\n    tag_189:\n        /* \"#utility.yul\":4976:4981   */\n      0x00\n        /* \"#utility.yul\":5025:5028   */\n      dup3\n        /* \"#utility.yul\":5018:5022   */\n      0x1f\n        /* \"#utility.yul\":5010:5016   */\n      dup4\n        /* \"#utility.yul\":5006:5023   */\n      add\n        /* \"#utility.yul\":5002:5029   */\n      slt\n        /* \"#utility.yul\":4992:5114   */\n      tag_294\n      jumpi\n        /* \"#utility.yul\":5033:5112   */\n      tag_295\n      tag_180\n      jump\t// in\n    tag_295:\n        /* \"#utility.yul\":4992:5114   */\n    tag_294:\n        /* \"#utility.yul\":5150:5156   */\n      dup2\n        /* \"#utility.yul\":5137:5157   */\n      calldataload\n        /* \"#utility.yul\":5175:5254   */\n      tag_296\n        /* \"#utility.yul\":5250:5253   */\n      dup5\n        /* \"#utility.yul\":5242:5248   */\n      dup3\n        /* \"#utility.yul\":5235:5239   */\n      0x20\n        /* \"#utility.yul\":5227:5233   */\n      dup7\n        /* \"#utility.yul\":5223:5240   */\n      add\n        /* \"#utility.yul\":5175:5254   */\n      tag_188\n      jump\t// in\n    tag_296:\n        /* \"#utility.yul\":5166:5254   */\n      swap2\n      pop\n        /* \"#utility.yul\":4982:5260   */\n      pop\n        /* \"#utility.yul\":4920:5260   */\n      swap3\n      swap2\n      pop\n      pop\n      jump\t// out\n        /* \"#utility.yul\":5266:6100   */\n    tag_40:\n        /* \"#utility.yul\":5354:5360   */\n      0x00\n        /* \"#utility.yul\":5362:5368   */\n      dup1\n        /* \"#utility.yul\":5411:5413   */\n      0x40\n        /* \"#utility.yul\":5399:5408   */\n      dup4\n        /* \"#utility.yul\":5390:5397   */\n      dup6\n        /* \"#utility.yul\":5386:5409   */\n      sub\n        /* \"#utility.yul\":5382:5414   */\n      slt\n        /* \"#utility.yul\":5379:5498   */\n      iszero\n      tag_298\n      jumpi\n        /* \"#utility.yul\":5417:5496   */\n      tag_299\n      tag_169\n      jump\t// in\n    tag_299:\n        /* \"#utility.yul\":5379:5498   */\n    tag_298:\n        /* \"#utility.yul\":5565:5566   */\n      0x00\n        /* \"#utility.yul\":5554:5563   */\n      dup4\n        /* \"#utility.yul\":5550:5567   */\n      add\n        /* \"#utility.yul\":5537:5568   */\n      calldataload\n        /* \"#utility.yul\":5595:5613   */\n      0xffffffffffffffff\n        /* \"#utility.yul\":5587:5593   */\n      dup2\n        /* \"#utility.yul\":5584:5614   */\n      gt\n        /* \"#utility.yul\":5581:5698   */\n      iszero\n      tag_300\n      jumpi\n        /* \"#utility.yul\":5617:5696   */\n      tag_301\n      tag_170\n      jump\t// in\n    tag_301:\n        /* \"#utility.yul\":5581:5698   */\n    tag_300:\n        /* \"#utility.yul\":5722:5785   */\n      tag_302\n        /* \"#utility.yul\":5777:5784   */\n      dup6\n        /* \"#utility.yul\":5768:5774   */\n      dup3\n        /* \"#utility.yul\":5757:5766   */\n      dup7\n        /* \"#utility.yul\":5753:5775   */\n      add\n        /* \"#utility.yul\":5722:5785   */\n      tag_189\n      jump\t// in\n    tag_302:\n        /* \"#utility.yul\":5712:5785   */\n      swap3\n      pop\n        /* \"#utility.yul\":5508:5795   */\n      pop\n        /* \"#utility.yul\":5862:5864   */\n      0x20\n        /* \"#utility.yul\":5851:5860   */\n      dup4\n        /* \"#utility.yul\":5847:5865   */\n      add\n        /* \"#utility.yul\":5834:5866   */\n      calldataload\n        /* \"#utility.yul\":5893:5911   */\n      0xffffffffffffffff\n        /* \"#utility.yul\":5885:5891   */\n      dup2\n        /* \"#utility.yul\":5882:5912   */\n      gt\n        /* \"#utility.yul\":5879:5996   */\n      iszero\n      tag_303\n      jumpi\n        /* \"#utility.yul\":5915:5994   */\n      tag_304\n      tag_170\n      jump\t// in\n    tag_304:\n        /* \"#utility.yul\":5879:5996   */\n    tag_303:\n        /* \"#utility.yul\":6020:6083   */\n      tag_305\n        /* \"#utility.yul\":6075:6082   */\n      dup6\n        /* \"#utility.yul\":6066:6072   */\n      dup3\n        /* \"#utility.yul\":6055:6064   */\n      dup7\n        /* \"#utility.yul\":6051:6073   */\n      add\n        /* \"#utility.yul\":6020:6083   */\n      tag_189\n      jump\t// in\n    tag_305:\n        /* \"#utility.yul\":6010:6083   */\n      swap2\n      pop\n        /* \"#utility.yul\":5805:6093   */\n      pop\n        /* \"#utility.yul\":5266:6100   */\n      swap3\n      pop\n      swap3\n      swap1\n      pop\n      jump\t// out\n        /* \"#utility.yul\":6106:6196   */\n    tag_190:\n        /* \"#utility.yul\":6140:6147   */\n      0x00\n        /* \"#utility.yul\":6183:6188   */\n      dup2\n        /* \"#utility.yul\":6176:6189   */\n      iszero\n        /* \"#utility.yul\":6169:6190   */\n      iszero\n        /* \"#utility.yul\":6158:6190   */\n      swap1\n      pop\n        /* \"#utility.yul\":6106:6196   */\n      swap2\n      swap1\n      pop\n      jump\t// out\n        /* \"#utility.yul\":6202:6311   */\n    tag_191:\n        /* \"#utility.yul\":6283:6304   */\n      tag_308\n        /* \"#utility.yul\":6298:6303   */\n      dup2\n        /* \"#utility.yul\":6283:6304   */\n      tag_190\n      jump\t// in\n    tag_308:\n        /* \"#utility.yul\":6278:6281   */\n      dup3\n        /* \"#utility.yul\":6271:6305   */\n      mstore\n        /* \"#utility.yul\":6202:6311   */\n      pop\n      pop\n      jump\t// out\n        /* \"#utility.yul\":6317:6527   */\n    tag_45:\n        /* \"#utility.yul\":6404:6408   */\n      0x00\n        /* \"#utility.yul\":6442:6444   */\n      0x20\n        /* \"#utility.yul\":6431:6440   */\n      dup3\n        /* \"#utility.yul\":6427:6445   */\n      add\n        /* \"#utility.yul\":6419:6445   */\n      swap1\n      pop\n        /* \"#utility.yul\":6455:6520   */\n      tag_310\n        /* \"#utility.yul\":6517:6518   */\n      0x00\n        /* \"#utility.yul\":6506:6515   */\n      dup4\n        /* \"#utility.yul\":6502:6519   */\n      add\n        /* \"#utility.yul\":6493:6499   */\n      dup5\n        /* \"#utility.yul\":6455:6520   */\n      tag_191\n      jump\t// in\n    tag_310:\n        /* \"#utility.yul\":6317:6527   */\n      swap3\n      swap2\n      pop\n      pop\n      jump\t// out\n        /* \"#utility.yul\":6533:6632   */\n    tag_192:\n        /* \"#utility.yul\":6585:6591   */\n      0x00\n        /* \"#utility.yul\":6619:6624   */\n      dup2\n        /* \"#utility.yul\":6613:6625   */\n      mload\n        /* \"#utility.yul\":6603:6625   */\n      swap1\n      pop\n        /* \"#utility.yul\":6533:6632   */\n      swap2\n      swap1\n      pop\n      jump\t// out\n        /* \"#utility.yul\":6638:6807   */\n    tag_193:\n        /* \"#utility.yul\":6722:6733   */\n      0x00\n        /* \"#utility.yul\":6756:6762   */\n      dup3\n        /* \"#utility.yul\":6751:6754   */\n      dup3\n        /* \"#utility.yul\":6744:6763   */\n      mstore\n        /* \"#utility.yul\":6796:6800   */\n      0x20\n        /* \"#utility.yul\":6791:6794   */\n      dup3\n        /* \"#utility.yul\":6787:6801   */\n      add\n        /* \"#utility.yul\":6772:6801   */\n      swap1\n      pop\n        /* \"#utility.yul\":6638:6807   */\n      swap3\n      swap2\n      pop\n      pop\n      jump\t// out\n        /* \"#utility.yul\":6813:7059   */\n    tag_194:\n        /* \"#utility.yul\":6894:6895   */\n      0x00\n        /* \"#utility.yul\":6904:7017   */\n    tag_314:\n        /* \"#utility.yul\":6918:6924   */\n      dup4\n        /* \"#utility.yul\":6915:6916   */\n      dup2\n        /* \"#utility.yul\":6912:6925   */\n      lt\n        /* \"#utility.yul\":6904:7017   */\n      iszero\n      tag_316\n      jumpi\n        /* \"#utility.yul\":7003:7004   */\n      dup1\n        /* \"#utility.yul\":6998:7001   */\n      dup3\n        /* \"#utility.yul\":6994:7005   */\n      add\n        /* \"#utility.yul\":6988:7006   */\n      mload\n        /* \"#utility.yul\":6984:6985   */\n      dup2\n        /* \"#utility.yul\":6979:6982   */\n      dup5\n        /* \"#utility.yul\":6975:6986   */\n      add\n        /* \"#utility.yul\":6968:7007   */\n      mstore\n        /* \"#utility.yul\":6940:6942   */\n      0x20\n        /* \"#utility.yul\":6937:6938   */\n      dup2\n        /* \"#utility.yul\":6933:6943   */\n      add\n        /* \"#utility.yul\":6928:6943   */\n      swap1\n      pop\n        /* \"#utility.yul\":6904:7017   */\n      jump(tag_314)\n    tag_316:\n        /* \"#utility.yul\":7051:7052   */\n      0x00\n        /* \"#utility.yul\":7042:7048   */\n      dup5\n        /* \"#utility.yul\":7037:7040   */\n      dup5\n        /* \"#utility.yul\":7033:7049   */\n      add\n        /* \"#utility.yul\":7026:7053   */\n      mstore\n        /* \"#utility.yul\":6875:7059   */\n      pop\n        /* \"#utility.yul\":6813:7059   */\n      pop\n      pop\n      pop\n      jump\t// out\n        /* \"#utility.yul\":7065:7442   */\n    tag_195:\n        /* \"#utility.yul\":7153:7156   */\n      0x00\n        /* \"#utility.yul\":7181:7220   */\n      tag_318\n        /* \"#utility.yul\":7214:7219   */\n      dup3\n        /* \"#utility.yul\":7181:7220   */\n      tag_192\n      jump\t// in\n    tag_318:\n        /* \"#utility.yul\":7236:7307   */\n      tag_319\n        /* \"#utility.yul\":7300:7306   */\n      dup2\n        /* \"#utility.yul\":7295:7298   */\n      dup6\n        /* \"#utility.yul\":7236:7307   */\n      tag_193\n      jump\t// in\n    tag_319:\n        /* \"#utility.yul\":7229:7307   */\n      swap4\n      pop\n        /* \"#utility.yul\":7316:7381   */\n      tag_320\n        /* \"#utility.yul\":7374:7380   */\n      dup2\n        /* \"#utility.yul\":7369:7372   */\n      dup6\n        /* \"#utility.yul\":7362:7366   */\n      0x20\n        /* \"#utility.yul\":7355:7360   */\n      dup7\n        /* \"#utility.yul\":7351:7367   */\n      add\n        /* \"#utility.yul\":7316:7381   */\n      tag_194\n      jump\t// in\n    tag_320:\n        /* \"#utility.yul\":7406:7435   */\n      tag_321\n        /* \"#utility.yul\":7428:7434   */\n      dup2\n        /* \"#utility.yul\":7406:7435   */\n      tag_182\n      jump\t// in\n    tag_321:\n        /* \"#utility.yul\":7401:7404   */\n      dup5\n        /* \"#utility.yul\":7397:7436   */\n      add\n        /* \"#utility.yul\":7390:7436   */\n      swap2\n      pop\n        /* \"#utility.yul\":7157:7442   */\n      pop\n        /* \"#utility.yul\":7065:7442   */\n      swap3\n      swap2\n      pop\n      pop\n      jump\t// out\n        /* \"#utility.yul\":7448:7761   */\n    tag_49:\n        /* \"#utility.yul\":7561:7565   */\n      0x00\n        /* \"#utility.yul\":7599:7601   */\n      0x20\n        /* \"#utility.yul\":7588:7597   */\n      dup3\n        /* \"#utility.yul\":7584:7602   */\n      add\n        /* \"#utility.yul\":7576:7602   */\n      swap1\n      pop\n        /* \"#utility.yul\":7648:7657   */\n      dup2\n        /* \"#utility.yul\":7642:7646   */\n      dup2\n        /* \"#utility.yul\":7638:7658   */\n      sub\n        /* \"#utility.yul\":7634:7635   */\n      0x00\n        /* \"#utility.yul\":7623:7632   */\n      dup4\n        /* \"#utility.yul\":7619:7636   */\n      add\n        /* \"#utility.yul\":7612:7659   */\n      mstore\n        /* \"#utility.yul\":7676:7754   */\n      tag_323\n        /* \"#utility.yul\":7749:7753   */\n      dup2\n        /* \"#utility.yul\":7740:7746   */\n      dup5\n        /* \"#utility.yul\":7676:7754   */\n      tag_195\n      jump\t// in\n    tag_323:\n        /* \"#utility.yul\":7668:7754   */\n      swap1\n      pop\n        /* \"#utility.yul\":7448:7761   */\n      swap3\n      swap2\n      pop\n      pop\n      jump\t// out\n        /* \"#utility.yul\":7767:7910   */\n    tag_196:\n        /* \"#utility.yul\":7863:7869   */\n      0x00\n        /* \"#utility.yul\":7897:7902   */\n      dup2\n        /* \"#utility.yul\":7891:7903   */\n      mload\n        /* \"#utility.yul\":7881:7903   */\n      swap1\n      pop\n        /* \"#utility.yul\":7767:7910   */\n      swap2\n      swap1\n      pop\n      jump\t// out\n        /* \"#utility.yul\":7916:8129   */\n    tag_197:\n        /* \"#utility.yul\":8044:8055   */\n      0x00\n        /* \"#utility.yul\":8078:8084   */\n      dup3\n        /* \"#utility.yul\":8073:8076   */\n      dup3\n        /* \"#utility.yul\":8066:8085   */\n      mstore\n        /* \"#utility.yul\":8118:8122   */\n      0x20\n        /* \"#utility.yul\":8113:8116   */\n      dup3\n        /* \"#utility.yul\":8109:8123   */\n      add\n        /* \"#utility.yul\":8094:8123   */\n      swap1\n      pop\n        /* \"#utility.yul\":7916:8129   */\n      swap3\n      swap2\n      pop\n      pop\n      jump\t// out\n        /* \"#utility.yul\":8135:8296   */\n    tag_198:\n        /* \"#utility.yul\":8231:8235   */\n      0x00\n        /* \"#utility.yul\":8254:8257   */\n      dup2\n        /* \"#utility.yul\":8246:8257   */\n      swap1\n      pop\n        /* \"#utility.yul\":8284:8288   */\n      0x20\n        /* \"#utility.yul\":8279:8282   */\n      dup3\n        /* \"#utility.yul\":8275:8289   */\n      add\n        /* \"#utility.yul\":8267:8289   */\n      swap1\n      pop\n        /* \"#utility.yul\":8135:8296   */\n      swap2\n      swap1\n      pop\n      jump\t// out\n        /* \"#utility.yul\":8302:8410   */\n    tag_199:\n        /* \"#utility.yul\":8379:8403   */\n      tag_328\n        /* \"#utility.yul\":8397:8402   */\n      dup2\n        /* \"#utility.yul\":8379:8403   */\n      tag_175\n      jump\t// in\n    tag_328:\n        /* \"#utility.yul\":8374:8377   */\n      dup3\n        /* \"#utility.yul\":8367:8404   */\n      mstore\n        /* \"#utility.yul\":8302:8410   */\n      pop\n      pop\n      jump\t// out\n        /* \"#utility.yul\":8416:8524   */\n    tag_200:\n        /* \"#utility.yul\":8493:8517   */\n      tag_330\n        /* \"#utility.yul\":8511:8516   */\n      dup2\n        /* \"#utility.yul\":8493:8517   */\n      tag_171\n      jump\t// in\n    tag_330:\n        /* \"#utility.yul\":8488:8491   */\n      dup3\n        /* \"#utility.yul\":8481:8518   */\n      mstore\n        /* \"#utility.yul\":8416:8524   */\n      pop\n      pop\n      jump\t// out\n        /* \"#utility.yul\":8604:9478   */\n    tag_201:\n        /* \"#utility.yul\":8749:8753   */\n      0x80\n        /* \"#utility.yul\":8744:8747   */\n      dup3\n        /* \"#utility.yul\":8740:8754   */\n      add\n        /* \"#utility.yul\":8844:8848   */\n      0x00\n        /* \"#utility.yul\":8837:8842   */\n      dup3\n        /* \"#utility.yul\":8833:8849   */\n      add\n        /* \"#utility.yul\":8827:8850   */\n      mload\n        /* \"#utility.yul\":8863:8926   */\n      tag_332\n        /* \"#utility.yul\":8920:8924   */\n      0x00\n        /* \"#utility.yul\":8915:8918   */\n      dup6\n        /* \"#utility.yul\":8911:8925   */\n      add\n        /* \"#utility.yul\":8897:8909   */\n      dup3\n        /* \"#utility.yul\":8863:8926   */\n      tag_199\n      jump\t// in\n    tag_332:\n        /* \"#utility.yul\":8764:8936   */\n      pop\n        /* \"#utility.yul\":9024:9028   */\n      0x20\n        /* \"#utility.yul\":9017:9022   */\n      dup3\n        /* \"#utility.yul\":9013:9029   */\n      add\n        /* \"#utility.yul\":9007:9030   */\n      mload\n        /* \"#utility.yul\":9043:9106   */\n      tag_333\n        /* \"#utility.yul\":9100:9104   */\n      0x20\n        /* \"#utility.yul\":9095:9098   */\n      dup6\n        /* \"#utility.yul\":9091:9105   */\n      add\n        /* \"#utility.yul\":9077:9089   */\n      dup3\n        /* \"#utility.yul\":9043:9106   */\n      tag_199\n      jump\t// in\n    tag_333:\n        /* \"#utility.yul\":8946:9116   */\n      pop\n        /* \"#utility.yul\":9200:9204   */\n      0x40\n        /* \"#utility.yul\":9193:9198   */\n      dup3\n        /* \"#utility.yul\":9189:9205   */\n      add\n        /* \"#utility.yul\":9183:9206   */\n      mload\n        /* \"#utility.yul\":9219:9282   */\n      tag_334\n        /* \"#utility.yul\":9276:9280   */\n      0x40\n        /* \"#utility.yul\":9271:9274   */\n      dup6\n        /* \"#utility.yul\":9267:9281   */\n      add\n        /* \"#utility.yul\":9253:9265   */\n      dup3\n        /* \"#utility.yul\":9219:9282   */\n      tag_200\n      jump\t// in\n    tag_334:\n        /* \"#utility.yul\":9126:9292   */\n      pop\n        /* \"#utility.yul\":9379:9383   */\n      0x60\n        /* \"#utility.yul\":9372:9377   */\n      dup3\n        /* \"#utility.yul\":9368:9384   */\n      add\n        /* \"#utility.yul\":9362:9385   */\n      mload\n        /* \"#utility.yul\":9398:9461   */\n      tag_335\n        /* \"#utility.yul\":9455:9459   */\n      0x60\n        /* \"#utility.yul\":9450:9453   */\n      dup6\n        /* \"#utility.yul\":9446:9460   */\n      add\n        /* \"#utility.yul\":9432:9444   */\n      dup3\n        /* \"#utility.yul\":9398:9461   */\n      tag_200\n      jump\t// in\n    tag_335:\n        /* \"#utility.yul\":9302:9471   */\n      pop\n        /* \"#utility.yul\":8718:9478   */\n      pop\n        /* \"#utility.yul\":8604:9478   */\n      pop\n      pop\n      jump\t// out\n        /* \"#utility.yul\":9484:9779   */\n    tag_202:\n        /* \"#utility.yul\":9611:9621   */\n      0x00\n        /* \"#utility.yul\":9632:9736   */\n      tag_337\n        /* \"#utility.yul\":9732:9735   */\n      dup4\n        /* \"#utility.yul\":9724:9730   */\n      dup4\n        /* \"#utility.yul\":9632:9736   */\n      tag_201\n      jump\t// in\n    tag_337:\n        /* \"#utility.yul\":9768:9772   */\n      0x80\n        /* \"#utility.yul\":9763:9766   */\n      dup4\n        /* \"#utility.yul\":9759:9773   */\n      add\n        /* \"#utility.yul\":9745:9773   */\n      swap1\n      pop\n        /* \"#utility.yul\":9484:9779   */\n      swap3\n      swap2\n      pop\n      pop\n      jump\t// out\n        /* \"#utility.yul\":9785:9927   */\n    tag_203:\n        /* \"#utility.yul\":9884:9888   */\n      0x00\n        /* \"#utility.yul\":9916:9920   */\n      0x20\n        /* \"#utility.yul\":9911:9914   */\n      dup3\n        /* \"#utility.yul\":9907:9921   */\n      add\n        /* \"#utility.yul\":9899:9921   */\n      swap1\n      pop\n        /* \"#utility.yul\":9785:9927   */\n      swap2\n      swap1\n      pop\n      jump\t// out\n        /* \"#utility.yul\":10011:10975   */\n    tag_204:\n        /* \"#utility.yul\":10188:10191   */\n      0x00\n        /* \"#utility.yul\":10217:10300   */\n      tag_340\n        /* \"#utility.yul\":10294:10299   */\n      dup3\n        /* \"#utility.yul\":10217:10300   */\n      tag_196\n      jump\t// in\n    tag_340:\n        /* \"#utility.yul\":10316:10431   */\n      tag_341\n        /* \"#utility.yul\":10424:10430   */\n      dup2\n        /* \"#utility.yul\":10419:10422   */\n      dup6\n        /* \"#utility.yul\":10316:10431   */\n      tag_197\n      jump\t// in\n    tag_341:\n        /* \"#utility.yul\":10309:10431   */\n      swap4\n      pop\n        /* \"#utility.yul\":10455:10540   */\n      tag_342\n        /* \"#utility.yul\":10534:10539   */\n      dup4\n        /* \"#utility.yul\":10455:10540   */\n      tag_198\n      jump\t// in\n    tag_342:\n        /* \"#utility.yul\":10563:10570   */\n      dup1\n        /* \"#utility.yul\":10594:10595   */\n      0x00\n        /* \"#utility.yul\":10579:10950   */\n    tag_343:\n        /* \"#utility.yul\":10604:10610   */\n      dup4\n        /* \"#utility.yul\":10601:10602   */\n      dup2\n        /* \"#utility.yul\":10598:10611   */\n      lt\n        /* \"#utility.yul\":10579:10950   */\n      iszero\n      tag_345\n      jumpi\n        /* \"#utility.yul\":10680:10686   */\n      dup2\n        /* \"#utility.yul\":10674:10687   */\n      mload\n        /* \"#utility.yul\":10707:10828   */\n      tag_346\n        /* \"#utility.yul\":10824:10827   */\n      dup9\n        /* \"#utility.yul\":10809:10822   */\n      dup3\n        /* \"#utility.yul\":10707:10828   */\n      tag_202\n      jump\t// in\n    tag_346:\n        /* \"#utility.yul\":10700:10828   */\n      swap8\n      pop\n        /* \"#utility.yul\":10851:10940   */\n      tag_347\n        /* \"#utility.yul\":10933:10939   */\n      dup4\n        /* \"#utility.yul\":10851:10940   */\n      tag_203\n      jump\t// in\n    tag_347:\n        /* \"#utility.yul\":10841:10940   */\n      swap3\n      pop\n        /* \"#utility.yul\":10639:10950   */\n      pop\n        /* \"#utility.yul\":10626:10627   */\n      0x01\n        /* \"#utility.yul\":10623:10624   */\n      dup2\n        /* \"#utility.yul\":10619:10628   */\n      add\n        /* \"#utility.yul\":10614:10628   */\n      swap1\n      pop\n        /* \"#utility.yul\":10579:10950   */\n      jump(tag_343)\n    tag_345:\n        /* \"#utility.yul\":10583:10597   */\n      pop\n        /* \"#utility.yul\":10966:10969   */\n      dup6\n        /* \"#utility.yul\":10959:10969   */\n      swap4\n      pop\n        /* \"#utility.yul\":10193:10975   */\n      pop\n      pop\n      pop\n        /* \"#utility.yul\":10011:10975   */\n      swap3\n      swap2\n      pop\n      pop\n      jump\t// out\n        /* \"#utility.yul\":10981:11470   */\n    tag_63:\n        /* \"#utility.yul\":11182:11186   */\n      0x00\n        /* \"#utility.yul\":11220:11222   */\n      0x20\n        /* \"#utility.yul\":11209:11218   */\n      dup3\n        /* \"#utility.yul\":11205:11223   */\n      add\n        /* \"#utility.yul\":11197:11223   */\n      swap1\n      pop\n        /* \"#utility.yul\":11269:11278   */\n      dup2\n        /* \"#utility.yul\":11263:11267   */\n      dup2\n        /* \"#utility.yul\":11259:11279   */\n      sub\n        /* \"#utility.yul\":11255:11256   */\n      0x00\n        /* \"#utility.yul\":11244:11253   */\n      dup4\n        /* \"#utility.yul\":11240:11257   */\n      add\n        /* \"#utility.yul\":11233:11280   */\n      mstore\n        /* \"#utility.yul\":11297:11463   */\n      tag_349\n        /* \"#utility.yul\":11458:11462   */\n      dup2\n        /* \"#utility.yul\":11449:11455   */\n      dup5\n        /* \"#utility.yul\":11297:11463   */\n      tag_204\n      jump\t// in\n    tag_349:\n        /* \"#utility.yul\":11289:11463   */\n      swap1\n      pop\n        /* \"#utility.yul\":10981:11470   */\n      swap3\n      swap2\n      pop\n      pop\n      jump\t// out\n        /* \"#utility.yul\":11550:12434   */\n    tag_205:\n        /* \"#utility.yul\":11705:11709   */\n      0x80\n        /* \"#utility.yul\":11700:11703   */\n      dup3\n        /* \"#utility.yul\":11696:11710   */\n      add\n        /* \"#utility.yul\":11800:11804   */\n      0x00\n        /* \"#utility.yul\":11793:11798   */\n      dup3\n        /* \"#utility.yul\":11789:11805   */\n      add\n        /* \"#utility.yul\":11783:11806   */\n      mload\n        /* \"#utility.yul\":11819:11882   */\n      tag_351\n        /* \"#utility.yul\":11876:11880   */\n      0x00\n        /* \"#utility.yul\":11871:11874   */\n      dup6\n        /* \"#utility.yul\":11867:11881   */\n      add\n        /* \"#utility.yul\":11853:11865   */\n      dup3\n        /* \"#utility.yul\":11819:11882   */\n      tag_199\n      jump\t// in\n    tag_351:\n        /* \"#utility.yul\":11720:11892   */\n      pop\n        /* \"#utility.yul\":11980:11984   */\n      0x20\n        /* \"#utility.yul\":11973:11978   */\n      dup3\n        /* \"#utility.yul\":11969:11985   */\n      add\n        /* \"#utility.yul\":11963:11986   */\n      mload\n        /* \"#utility.yul\":11999:12062   */\n      tag_352\n        /* \"#utility.yul\":12056:12060   */\n      0x20\n        /* \"#utility.yul\":12051:12054   */\n      dup6\n        /* \"#utility.yul\":12047:12061   */\n      add\n        /* \"#utility.yul\":12033:12045   */\n      dup3\n        /* \"#utility.yul\":11999:12062   */\n      tag_199\n      jump\t// in\n    tag_352:\n        /* \"#utility.yul\":11902:12072   */\n      pop\n        /* \"#utility.yul\":12156:12160   */\n      0x40\n        /* \"#utility.yul\":12149:12154   */\n      dup3\n        /* \"#utility.yul\":12145:12161   */\n      add\n        /* \"#utility.yul\":12139:12162   */\n      mload\n        /* \"#utility.yul\":12175:12238   */\n      tag_353\n        /* \"#utility.yul\":12232:12236   */\n      0x40\n        /* \"#utility.yul\":12227:12230   */\n      dup6\n        /* \"#utility.yul\":12223:12237   */\n      add\n        /* \"#utility.yul\":12209:12221   */\n      dup3\n        /* \"#utility.yul\":12175:12238   */\n      tag_200\n      jump\t// in\n    tag_353:\n        /* \"#utility.yul\":12082:12248   */\n      pop\n        /* \"#utility.yul\":12335:12339   */\n      0x60\n        /* \"#utility.yul\":12328:12333   */\n      dup3\n        /* \"#utility.yul\":12324:12340   */\n      add\n        /* \"#utility.yul\":12318:12341   */\n      mload\n        /* \"#utility.yul\":12354:12417   */\n      tag_354\n        /* \"#utility.yul\":12411:12415   */\n      0x60\n        /* \"#utility.yul\":12406:12409   */\n      dup6\n        /* \"#utility.yul\":12402:12416   */\n      add\n        /* \"#utility.yul\":12388:12400   */\n      dup3\n        /* \"#utility.yul\":12354:12417   */\n      tag_200\n      jump\t// in\n    tag_354:\n        /* \"#utility.yul\":12258:12427   */\n      pop\n        /* \"#utility.yul\":11674:12434   */\n      pop\n        /* \"#utility.yul\":11550:12434   */\n      pop\n      pop\n      jump\t// out\n        /* \"#utility.yul\":12440:12779   */\n    tag_88:\n        /* \"#utility.yul\":12591:12595   */\n      0x00\n        /* \"#utility.yul\":12629:12632   */\n      0x80\n        /* \"#utility.yul\":12618:12627   */\n      dup3\n        /* \"#utility.yul\":12614:12633   */\n      add\n        /* \"#utility.yul\":12606:12633   */\n      swap1\n      pop\n        /* \"#utility.yul\":12643:12772   */\n      tag_356\n        /* \"#utility.yul\":12769:12770   */\n      0x00\n        /* \"#utility.yul\":12758:12767   */\n      dup4\n        /* \"#utility.yul\":12754:12771   */\n      add\n        /* \"#utility.yul\":12745:12751   */\n      dup5\n        /* \"#utility.yul\":12643:12772   */\n      tag_205\n      jump\t// in\n    tag_356:\n        /* \"#utility.yul\":12440:12779   */\n      swap3\n      swap2\n      pop\n      pop\n      jump\t// out\n        /* \"#utility.yul\":12785:12963   */\n    tag_206:\n        /* \"#utility.yul\":12925:12955   */\n      0x2054686973206164647265737320646f65736e27742065786973747300000000\n        /* \"#utility.yul\":12921:12922   */\n      0x00\n        /* \"#utility.yul\":12913:12919   */\n      dup3\n        /* \"#utility.yul\":12909:12923   */\n      add\n        /* \"#utility.yul\":12902:12956   */\n      mstore\n        /* \"#utility.yul\":12785:12963   */\n      pop\n      jump\t// out\n        /* \"#utility.yul\":12969:13335   */\n    tag_207:\n        /* \"#utility.yul\":13111:13114   */\n      0x00\n        /* \"#utility.yul\":13132:13199   */\n      tag_359\n        /* \"#utility.yul\":13196:13198   */\n      0x1c\n        /* \"#utility.yul\":13191:13194   */\n      dup4\n        /* \"#utility.yul\":13132:13199   */\n      tag_193\n      jump\t// in\n    tag_359:\n        /* \"#utility.yul\":13125:13199   */\n      swap2\n      pop\n        /* \"#utility.yul\":13208:13301   */\n      tag_360\n        /* \"#utility.yul\":13297:13300   */\n      dup3\n        /* \"#utility.yul\":13208:13301   */\n      tag_206\n      jump\t// in\n    tag_360:\n        /* \"#utility.yul\":13326:13328   */\n      0x20\n        /* \"#utility.yul\":13321:13324   */\n      dup3\n        /* \"#utility.yul\":13317:13329   */\n      add\n        /* \"#utility.yul\":13310:13329   */\n      swap1\n      pop\n        /* \"#utility.yul\":12969:13335   */\n      swap2\n      swap1\n      pop\n      jump\t// out\n        /* \"#utility.yul\":13341:13760   */\n    tag_94:\n        /* \"#utility.yul\":13507:13511   */\n      0x00\n        /* \"#utility.yul\":13545:13547   */\n      0x20\n        /* \"#utility.yul\":13534:13543   */\n      dup3\n        /* \"#utility.yul\":13530:13548   */\n      add\n        /* \"#utility.yul\":13522:13548   */\n      swap1\n      pop\n        /* \"#utility.yul\":13594:13603   */\n      dup2\n        /* \"#utility.yul\":13588:13592   */\n      dup2\n        /* \"#utility.yul\":13584:13604   */\n      sub\n        /* \"#utility.yul\":13580:13581   */\n      0x00\n        /* \"#utility.yul\":13569:13578   */\n      dup4\n        /* \"#utility.yul\":13565:13582   */\n      add\n        /* \"#utility.yul\":13558:13605   */\n      mstore\n        /* \"#utility.yul\":13622:13753   */\n      tag_362\n        /* \"#utility.yul\":13748:13752   */\n      dup2\n        /* \"#utility.yul\":13622:13753   */\n      tag_207\n      jump\t// in\n    tag_362:\n        /* \"#utility.yul\":13614:13753   */\n      swap1\n      pop\n        /* \"#utility.yul\":13341:13760   */\n      swap2\n      swap1\n      pop\n      jump\t// out\n        /* \"#utility.yul\":13766:13939   */\n    tag_208:\n        /* \"#utility.yul\":13906:13931   */\n      0x506c6561736520696e7365727420796f75722063617264000000000000000000\n        /* \"#utility.yul\":13902:13903   */\n      0x00\n        /* \"#utility.yul\":13894:13900   */\n      dup3\n        /* \"#utility.yul\":13890:13904   */\n      add\n        /* \"#utility.yul\":13883:13932   */\n      mstore\n        /* \"#utility.yul\":13766:13939   */\n      pop\n      jump\t// out\n        /* \"#utility.yul\":13945:14311   */\n    tag_209:\n        /* \"#utility.yul\":14087:14090   */\n      0x00\n        /* \"#utility.yul\":14108:14175   */\n      tag_365\n        /* \"#utility.yul\":14172:14174   */\n      0x17\n        /* \"#utility.yul\":14167:14170   */\n      dup4\n        /* \"#utility.yul\":14108:14175   */\n      tag_193\n      jump\t// in\n    tag_365:\n        /* \"#utility.yul\":14101:14175   */\n      swap2\n      pop\n        /* \"#utility.yul\":14184:14277   */\n      tag_366\n        /* \"#utility.yul\":14273:14276   */\n      dup3\n        /* \"#utility.yul\":14184:14277   */\n      tag_208\n      jump\t// in\n    tag_366:\n        /* \"#utility.yul\":14302:14304   */\n      0x20\n        /* \"#utility.yul\":14297:14300   */\n      dup3\n        /* \"#utility.yul\":14293:14305   */\n      add\n        /* \"#utility.yul\":14286:14305   */\n      swap1\n      pop\n        /* \"#utility.yul\":13945:14311   */\n      swap2\n      swap1\n      pop\n      jump\t// out\n        /* \"#utility.yul\":14317:14736   */\n    tag_98:\n        /* \"#utility.yul\":14483:14487   */\n      0x00\n        /* \"#utility.yul\":14521:14523   */\n      0x20\n        /* \"#utility.yul\":14510:14519   */\n      dup3\n        /* \"#utility.yul\":14506:14524   */\n      add\n        /* \"#utility.yul\":14498:14524   */\n      swap1\n      pop\n        /* \"#utility.yul\":14570:14579   */\n      dup2\n        /* \"#utility.yul\":14564:14568   */\n      dup2\n        /* \"#utility.yul\":14560:14580   */\n      sub\n        /* \"#utility.yul\":14556:14557   */\n      0x00\n        /* \"#utility.yul\":14545:14554   */\n      dup4\n        /* \"#utility.yul\":14541:14558   */\n      add\n        /* \"#utility.yul\":14534:14581   */\n      mstore\n        /* \"#utility.yul\":14598:14729   */\n      tag_368\n        /* \"#utility.yul\":14724:14728   */\n      dup2\n        /* \"#utility.yul\":14598:14729   */\n      tag_209\n      jump\t// in\n    tag_368:\n        /* \"#utility.yul\":14590:14729   */\n      swap1\n      pop\n        /* \"#utility.yul\":14317:14736   */\n      swap2\n      swap1\n      pop\n      jump\t// out\n        /* \"#utility.yul\":14742:14922   */\n    tag_210:\n        /* \"#utility.yul\":14790:14867   */\n      0x4e487b7100000000000000000000000000000000000000000000000000000000\n        /* \"#utility.yul\":14787:14788   */\n      0x00\n        /* \"#utility.yul\":14780:14868   */\n      mstore\n        /* \"#utility.yul\":14887:14891   */\n      0x11\n        /* \"#utility.yul\":14884:14885   */\n      0x04\n        /* \"#utility.yul\":14877:14892   */\n      mstore\n        /* \"#utility.yul\":14911:14915   */\n      0x24\n        /* \"#utility.yul\":14908:14909   */\n      0x00\n        /* \"#utility.yul\":14901:14916   */\n      revert\n        /* \"#utility.yul\":14928:15119   */\n    tag_102:\n        /* \"#utility.yul\":14968:14971   */\n      0x00\n        /* \"#utility.yul\":14987:15007   */\n      tag_371\n        /* \"#utility.yul\":15005:15006   */\n      dup3\n        /* \"#utility.yul\":14987:15007   */\n      tag_171\n      jump\t// in\n    tag_371:\n        /* \"#utility.yul\":14982:15007   */\n      swap2\n      pop\n        /* \"#utility.yul\":15021:15041   */\n      tag_372\n        /* \"#utility.yul\":15039:15040   */\n      dup4\n        /* \"#utility.yul\":15021:15041   */\n      tag_171\n      jump\t// in\n    tag_372:\n        /* \"#utility.yul\":15016:15041   */\n      swap3\n      pop\n        /* \"#utility.yul\":15064:15065   */\n      dup3\n        /* \"#utility.yul\":15061:15062   */\n      dup3\n        /* \"#utility.yul\":15057:15066   */\n      add\n        /* \"#utility.yul\":15050:15066   */\n      swap1\n      pop\n        /* \"#utility.yul\":15085:15088   */\n      dup1\n        /* \"#utility.yul\":15082:15083   */\n      dup3\n        /* \"#utility.yul\":15079:15089   */\n      gt\n        /* \"#utility.yul\":15076:15112   */\n      iszero\n      tag_373\n      jumpi\n        /* \"#utility.yul\":15092:15110   */\n      tag_374\n      tag_210\n      jump\t// in\n    tag_374:\n        /* \"#utility.yul\":15076:15112   */\n    tag_373:\n        /* \"#utility.yul\":14928:15119   */\n      swap3\n      swap2\n      pop\n      pop\n      jump\t// out\n        /* \"#utility.yul\":15125:15305   */\n    tag_106:\n        /* \"#utility.yul\":15173:15250   */\n      0x4e487b7100000000000000000000000000000000000000000000000000000000\n        /* \"#utility.yul\":15170:15171   */\n      0x00\n        /* \"#utility.yul\":15163:15251   */\n      mstore\n        /* \"#utility.yul\":15270:15274   */\n      0x01\n        /* \"#utility.yul\":15267:15268   */\n      0x04\n        /* \"#utility.yul\":15260:15275   */\n      mstore\n        /* \"#utility.yul\":15294:15298   */\n      0x24\n        /* \"#utility.yul\":15291:15292   */\n      0x00\n        /* \"#utility.yul\":15284:15299   */\n      revert\n        /* \"#utility.yul\":15311:15488   */\n    tag_211:\n        /* \"#utility.yul\":15451:15480   */\n      0x6f6e6c792035207472616e73616374696f6e7320706572206461790000000000\n        /* \"#utility.yul\":15447:15448   */\n      0x00\n        /* \"#utility.yul\":15439:15445   */\n      dup3\n        /* \"#utility.yul\":15435:15449   */\n      add\n        /* \"#utility.yul\":15428:15481   */\n      mstore\n        /* \"#utility.yul\":15311:15488   */\n      pop\n      jump\t// out\n        /* \"#utility.yul\":15494:15860   */\n    tag_212:\n        /* \"#utility.yul\":15636:15639   */\n      0x00\n        /* \"#utility.yul\":15657:15724   */\n      tag_378\n        /* \"#utility.yul\":15721:15723   */\n      0x1b\n        /* \"#utility.yul\":15716:15719   */\n      dup4\n        /* \"#utility.yul\":15657:15724   */\n      tag_193\n      jump\t// in\n    tag_378:\n        /* \"#utility.yul\":15650:15724   */\n      swap2\n      pop\n        /* \"#utility.yul\":15733:15826   */\n      tag_379\n        /* \"#utility.yul\":15822:15825   */\n      dup3\n        /* \"#utility.yul\":15733:15826   */\n      tag_211\n      jump\t// in\n    tag_379:\n        /* \"#utility.yul\":15851:15853   */\n      0x20\n        /* \"#utility.yul\":15846:15849   */\n      dup3\n        /* \"#utility.yul\":15842:15854   */\n      add\n        /* \"#utility.yul\":15835:15854   */\n      swap1\n      pop\n        /* \"#utility.yul\":15494:15860   */\n      swap2\n      swap1\n      pop\n      jump\t// out\n        /* \"#utility.yul\":15866:16285   */\n    tag_108:\n        /* \"#utility.yul\":16032:16036   */\n      0x00\n        /* \"#utility.yul\":16070:16072   */\n      0x20\n        /* \"#utility.yul\":16059:16068   */\n      dup3\n        /* \"#utility.yul\":16055:16073   */\n      add\n        /* \"#utility.yul\":16047:16073   */\n      swap1\n      pop\n        /* \"#utility.yul\":16119:16128   */\n      dup2\n        /* \"#utility.yul\":16113:16117   */\n      dup2\n        /* \"#utility.yul\":16109:16129   */\n      sub\n        /* \"#utility.yul\":16105:16106   */\n      0x00\n        /* \"#utility.yul\":16094:16103   */\n      dup4\n        /* \"#utility.yul\":16090:16107   */\n      add\n        /* \"#utility.yul\":16083:16130   */\n      mstore\n        /* \"#utility.yul\":16147:16278   */\n      tag_381\n        /* \"#utility.yul\":16273:16277   */\n      dup2\n        /* \"#utility.yul\":16147:16278   */\n      tag_212\n      jump\t// in\n    tag_381:\n        /* \"#utility.yul\":16139:16278   */\n      swap1\n      pop\n        /* \"#utility.yul\":15866:16285   */\n      swap2\n      swap1\n      pop\n      jump\t// out\n        /* \"#utility.yul\":16291:16485   */\n    tag_119:\n        /* \"#utility.yul\":16331:16335   */\n      0x00\n        /* \"#utility.yul\":16351:16371   */\n      tag_383\n        /* \"#utility.yul\":16369:16370   */\n      dup3\n        /* \"#utility.yul\":16351:16371   */\n      tag_171\n      jump\t// in\n    tag_383:\n        /* \"#utility.yul\":16346:16371   */\n      swap2\n      pop\n        /* \"#utility.yul\":16385:16405   */\n      tag_384\n        /* \"#utility.yul\":16403:16404   */\n      dup4\n        /* \"#utility.yul\":16385:16405   */\n      tag_171\n      jump\t// in\n    tag_384:\n        /* \"#utility.yul\":16380:16405   */\n      swap3\n      pop\n        /* \"#utility.yul\":16429:16430   */\n      dup3\n        /* \"#utility.yul\":16426:16427   */\n      dup3\n        /* \"#utility.yul\":16422:16431   */\n      sub\n        /* \"#utility.yul\":16414:16431   */\n      swap1\n      pop\n        /* \"#utility.yul\":16453:16454   */\n      dup2\n        /* \"#utility.yul\":16447:16451   */\n      dup2\n        /* \"#utility.yul\":16444:16455   */\n      gt\n        /* \"#utility.yul\":16441:16478   */\n      iszero\n      tag_385\n      jumpi\n        /* \"#utility.yul\":16458:16476   */\n      tag_386\n      tag_210\n      jump\t// in\n    tag_386:\n        /* \"#utility.yul\":16441:16478   */\n    tag_385:\n        /* \"#utility.yul\":16291:16485   */\n      swap3\n      swap2\n      pop\n      pop\n      jump\t// out\n        /* \"#utility.yul\":16491:16671   */\n    tag_213:\n        /* \"#utility.yul\":16539:16616   */\n      0x4e487b7100000000000000000000000000000000000000000000000000000000\n        /* \"#utility.yul\":16536:16537   */\n      0x00\n        /* \"#utility.yul\":16529:16617   */\n      mstore\n        /* \"#utility.yul\":16636:16640   */\n      0x22\n        /* \"#utility.yul\":16633:16634   */\n      0x04\n        /* \"#utility.yul\":16626:16641   */\n      mstore\n        /* \"#utility.yul\":16660:16664   */\n      0x24\n        /* \"#utility.yul\":16657:16658   */\n      0x00\n        /* \"#utility.yul\":16650:16665   */\n      revert\n        /* \"#utility.yul\":16677:16997   */\n    tag_133:\n        /* \"#utility.yul\":16721:16727   */\n      0x00\n        /* \"#utility.yul\":16758:16759   */\n      0x02\n        /* \"#utility.yul\":16752:16756   */\n      dup3\n        /* \"#utility.yul\":16748:16760   */\n      div\n        /* \"#utility.yul\":16738:16760   */\n      swap1\n      pop\n        /* \"#utility.yul\":16805:16806   */\n      0x01\n        /* \"#utility.yul\":16799:16803   */\n      dup3\n        /* \"#utility.yul\":16795:16807   */\n      and\n        /* \"#utility.yul\":16826:16844   */\n      dup1\n        /* \"#utility.yul\":16816:16897   */\n      tag_389\n      jumpi\n        /* \"#utility.yul\":16882:16886   */\n      0x7f\n        /* \"#utility.yul\":16874:16880   */\n      dup3\n        /* \"#utility.yul\":16870:16887   */\n      and\n        /* \"#utility.yul\":16860:16887   */\n      swap2\n      pop\n        /* \"#utility.yul\":16816:16897   */\n    tag_389:\n        /* \"#utility.yul\":16944:16946   */\n      0x20\n        /* \"#utility.yul\":16936:16942   */\n      dup3\n        /* \"#utility.yul\":16933:16947   */\n      lt\n        /* \"#utility.yul\":16913:16931   */\n      dup2\n        /* \"#utility.yul\":16910:16948   */\n      sub\n        /* \"#utility.yul\":16907:16991   */\n      tag_390\n      jumpi\n        /* \"#utility.yul\":16963:16981   */\n      tag_391\n      tag_213\n      jump\t// in\n    tag_391:\n        /* \"#utility.yul\":16907:16991   */\n    tag_390:\n        /* \"#utility.yul\":16728:16997   */\n      pop\n        /* \"#utility.yul\":16677:16997   */\n      swap2\n      swap1\n      pop\n      jump\t// out\n        /* \"#utility.yul\":17003:17144   */\n    tag_214:\n        /* \"#utility.yul\":17052:17056   */\n      0x00\n        /* \"#utility.yul\":17075:17078   */\n      dup2\n        /* \"#utility.yul\":17067:17078   */\n      swap1\n      pop\n        /* \"#utility.yul\":17098:17101   */\n      dup2\n        /* \"#utility.yul\":17095:17096   */\n      0x00\n        /* \"#utility.yul\":17088:17102   */\n      mstore\n        /* \"#utility.yul\":17132:17136   */\n      0x20\n        /* \"#utility.yul\":17129:17130   */\n      0x00\n        /* \"#utility.yul\":17119:17137   */\n      keccak256\n        /* \"#utility.yul\":17111:17137   */\n      swap1\n      pop\n        /* \"#utility.yul\":17003:17144   */\n      swap2\n      swap1\n      pop\n      jump\t// out\n        /* \"#utility.yul\":17150:17243   */\n    tag_215:\n        /* \"#utility.yul\":17187:17193   */\n      0x00\n        /* \"#utility.yul\":17234:17236   */\n      0x20\n        /* \"#utility.yul\":17229:17231   */\n      0x1f\n        /* \"#utility.yul\":17222:17227   */\n      dup4\n        /* \"#utility.yul\":17218:17232   */\n      add\n        /* \"#utility.yul\":17214:17237   */\n      div\n        /* \"#utility.yul\":17204:17237   */\n      swap1\n      pop\n        /* \"#utility.yul\":17150:17243   */\n      swap2\n      swap1\n      pop\n      jump\t// out\n        /* \"#utility.yul\":17249:17356   */\n    tag_216:\n        /* \"#utility.yul\":17293:17301   */\n      0x00\n        /* \"#utility.yul\":17343:17348   */\n      dup3\n        /* \"#utility.yul\":17337:17341   */\n      dup3\n        /* \"#utility.yul\":17333:17349   */\n      shl\n        /* \"#utility.yul\":17312:17349   */\n      swap1\n      pop\n        /* \"#utility.yul\":17249:17356   */\n      swap3\n      swap2\n      pop\n      pop\n      jump\t// out\n        /* \"#utility.yul\":17362:17755   */\n    tag_217:\n        /* \"#utility.yul\":17431:17437   */\n      0x00\n        /* \"#utility.yul\":17481:17482   */\n      0x08\n        /* \"#utility.yul\":17469:17479   */\n      dup4\n        /* \"#utility.yul\":17465:17483   */\n      mul\n        /* \"#utility.yul\":17504:17601   */\n      tag_396\n        /* \"#utility.yul\":17534:17600   */\n      0xffffffffffffffffffffffffffffffffffffffffffffffffffffffffffffffff\n        /* \"#utility.yul\":17523:17532   */\n      dup3\n        /* \"#utility.yul\":17504:17601   */\n      tag_216\n      jump\t// in\n    tag_396:\n        /* \"#utility.yul\":17622:17661   */\n      tag_397\n        /* \"#utility.yul\":17652:17660   */\n      dup7\n        /* \"#utility.yul\":17641:17650   */\n      dup4\n        /* \"#utility.yul\":17622:17661   */\n      tag_216\n      jump\t// in\n    tag_397:\n        /* \"#utility.yul\":17610:17661   */\n      swap6\n      pop\n        /* \"#utility.yul\":17694:17698   */\n      dup1\n        /* \"#utility.yul\":17690:17699   */\n      not\n        /* \"#utility.yul\":17683:17688   */\n      dup5\n        /* \"#utility.yul\":17679:17700   */\n      and\n        /* \"#utility.yul\":17670:17700   */\n      swap4\n      pop\n        /* \"#utility.yul\":17743:17747   */\n      dup1\n        /* \"#utility.yul\":17733:17741   */\n      dup7\n        /* \"#utility.yul\":17729:17748   */\n      and\n        /* \"#utility.yul\":17722:17727   */\n      dup5\n        /* \"#utility.yul\":17719:17749   */\n      or\n        /* \"#utility.yul\":17709:17749   */\n      swap3\n      pop\n        /* \"#utility.yul\":17438:17755   */\n      pop\n      pop\n        /* \"#utility.yul\":17362:17755   */\n      swap4\n      swap3\n      pop\n      pop\n      pop\n      jump\t// out\n        /* \"#utility.yul\":17761:17821   */\n    tag_218:\n        /* \"#utility.yul\":17789:17792   */\n      0x00\n        /* \"#utility.yul\":17810:17815   */\n      dup2\n        /* \"#utility.yul\":17803:17815   */\n      swap1\n      pop\n        /* \"#utility.yul\":17761:17821   */\n      swap2\n      swap1\n      pop\n      jump\t// out\n        /* \"#utility.yul\":17827:17969   */\n    tag_219:\n        /* \"#utility.yul\":17877:17886   */\n      0x00\n        /* \"#utility.yul\":17910:17963   */\n      tag_400\n        /* \"#utility.yul\":17928:17962   */\n      tag_401\n        /* \"#utility.yul\":17937:17961   */\n      tag_402\n        /* \"#utility.yul\":17955:17960   */\n      dup5\n        /* \"#utility.yul\":17937:17961   */\n      tag_171\n      jump\t// in\n    tag_402:\n        /* \"#utility.yul\":17928:17962   */\n      tag_218\n      jump\t// in\n    tag_401:\n        /* \"#utility.yul\":17910:17963   */\n      tag_171\n      jump\t// in\n    tag_400:\n        /* \"#utility.yul\":17897:17963   */\n      swap1\n      pop\n        /* \"#utility.yul\":17827:17969   */\n      swap2\n      swap1\n      pop\n      jump\t// out\n        /* \"#utility.yul\":17975:18050   */\n    tag_220:\n        /* \"#utility.yul\":18018:18021   */\n      0x00\n        /* \"#utility.yul\":18039:18044   */\n      dup2\n        /* \"#utility.yul\":18032:18044   */\n      swap1\n      pop\n        /* \"#utility.yul\":17975:18050   */\n      swap2\n      swap1\n      pop\n      jump\t// out\n        /* \"#utility.yul\":18056:18325   */\n    tag_221:\n        /* \"#utility.yul\":18166:18205   */\n      tag_405\n        /* \"#utility.yul\":18197:18204   */\n      dup4\n        /* \"#utility.yul\":18166:18205   */\n      tag_219\n      jump\t// in\n    tag_405:\n        /* \"#utility.yul\":18227:18318   */\n      tag_406\n        /* \"#utility.yul\":18276:18317   */\n      tag_407\n        /* \"#utility.yul\":18300:18316   */\n      dup3\n        /* \"#utility.yul\":18276:18317   */\n      tag_220\n      jump\t// in\n    tag_407:\n        /* \"#utility.yul\":18268:18274   */\n      dup5\n        /* \"#utility.yul\":18261:18265   */\n      dup5\n        /* \"#utility.yul\":18255:18266   */\n      sload\n        /* \"#utility.yul\":18227:18318   */\n      tag_217\n      jump\t// in\n    tag_406:\n        /* \"#utility.yul\":18221:18225   */\n      dup3\n        /* \"#utility.yul\":18214:18319   */\n      sstore\n        /* \"#utility.yul\":18132:18325   */\n      pop\n        /* \"#utility.yul\":18056:18325   */\n      pop\n      pop\n      pop\n      jump\t// out\n        /* \"#utility.yul\":18331:18404   */\n    tag_222:\n        /* \"#utility.yul\":18376:18379   */\n      0x00\n        /* \"#utility.yul\":18331:18404   */\n      swap1\n      jump\t// out\n        /* \"#utility.yul\":18410:18599   */\n    tag_223:\n        /* \"#utility.yul\":18487:18519   */\n      tag_410\n      tag_222\n      jump\t// in\n    tag_410:\n        /* \"#utility.yul\":18528:18593   */\n      tag_411\n        /* \"#utility.yul\":18586:18592   */\n      dup2\n        /* \"#utility.yul\":18578:18584   */\n      dup5\n        /* \"#utility.yul\":18572:18576   */\n      dup5\n        /* \"#utility.yul\":18528:18593   */\n      tag_221\n      jump\t// in\n    tag_411:\n        /* \"#utility.yul\":18463:18599   */\n      pop\n        /* \"#utility.yul\":18410:18599   */\n      pop\n      pop\n      jump\t// out\n        /* \"#utility.yul\":18605:18791   */\n    tag_224:\n        /* \"#utility.yul\":18665:18785   */\n    tag_413:\n        /* \"#utility.yul\":18682:18685   */\n      dup2\n        /* \"#utility.yul\":18675:18680   */\n      dup2\n        /* \"#utility.yul\":18672:18686   */\n      lt\n        /* \"#utility.yul\":18665:18785   */\n      iszero\n      tag_415\n      jumpi\n        /* \"#utility.yul\":18736:18775   */\n      tag_416\n        /* \"#utility.yul\":18773:18774   */\n      0x00\n        /* \"#utility.yul\":18766:18771   */\n      dup3\n        /* \"#utility.yul\":18736:18775   */\n      tag_223\n      jump\t// in\n    tag_416:\n        /* \"#utility.yul\":18709:18710   */\n      0x01\n        /* \"#utility.yul\":18702:18707   */\n      dup2\n        /* \"#utility.yul\":18698:18711   */\n      add\n        /* \"#utility.yul\":18689:18711   */\n      swap1\n      pop\n        /* \"#utility.yul\":18665:18785   */\n      jump(tag_413)\n    tag_415:\n        /* \"#utility.yul\":18605:18791   */\n      pop\n      pop\n      jump\t// out\n        /* \"#utility.yul\":18797:19340   */\n    tag_225:\n        /* \"#utility.yul\":18898:18900   */\n      0x1f\n        /* \"#utility.yul\":18893:18896   */\n      dup3\n        /* \"#utility.yul\":18890:18901   */\n      gt\n        /* \"#utility.yul\":18887:19333   */\n      iszero\n      tag_418\n      jumpi\n        /* \"#utility.yul\":18932:18970   */\n      tag_419\n        /* \"#utility.yul\":18964:18969   */\n      dup2\n        /* \"#utility.yul\":18932:18970   */\n      tag_214\n      jump\t// in\n    tag_419:\n        /* \"#utility.yul\":19016:19045   */\n      tag_420\n        /* \"#utility.yul\":19034:19044   */\n      dup5\n        /* \"#utility.yul\":19016:19045   */\n      tag_215\n      jump\t// in\n    tag_420:\n        /* \"#utility.yul\":19006:19014   */\n      dup2\n        /* \"#utility.yul\":19002:19046   */\n      add\n        /* \"#utility.yul\":19199:19201   */\n      0x20\n        /* \"#utility.yul\":19187:19197   */\n      dup6\n        /* \"#utility.yul\":19184:19202   */\n      lt\n        /* \"#utility.yul\":19181:19230   */\n      iszero\n      tag_421\n      jumpi\n        /* \"#utility.yul\":19220:19228   */\n      dup2\n        /* \"#utility.yul\":19205:19228   */\n      swap1\n      pop\n        /* \"#utility.yul\":19181:19230   */\n    tag_421:\n        /* \"#utility.yul\":19243:19323   */\n      tag_422\n        /* \"#utility.yul\":19299:19321   */\n      tag_423\n        /* \"#utility.yul\":19317:19320   */\n      dup6\n        /* \"#utility.yul\":19299:19321   */\n      tag_215\n      jump\t// in\n    tag_423:\n        /* \"#utility.yul\":19289:19297   */\n      dup4\n        /* \"#utility.yul\":19285:19322   */\n      add\n        /* \"#utility.yul\":19272:19283   */\n      dup3\n        /* \"#utility.yul\":19243:19323   */\n      tag_224\n      jump\t// in\n    tag_422:\n        /* \"#utility.yul\":18902:19333   */\n      pop\n      pop\n        /* \"#utility.yul\":18887:19333   */\n    tag_418:\n        /* \"#utility.yul\":18797:19340   */\n      pop\n      pop\n      pop\n      jump\t// out\n        /* \"#utility.yul\":19346:19463   */\n    tag_226:\n        /* \"#utility.yul\":19400:19408   */\n      0x00\n        /* \"#utility.yul\":19450:19455   */\n      dup3\n        /* \"#utility.yul\":19444:19448   */\n      dup3\n        /* \"#utility.yul\":19440:19456   */\n      shr\n        /* \"#utility.yul\":19419:19456   */\n      swap1\n      pop\n        /* \"#utility.yul\":19346:19463   */\n      swap3\n      swap2\n      pop\n      pop\n      jump\t// out\n        /* \"#utility.yul\":19469:19638   */\n    tag_227:\n        /* \"#utility.yul\":19513:19519   */\n      0x00\n        /* \"#utility.yul\":19546:19597   */\n      tag_426\n        /* \"#utility.yul\":19594:19595   */\n      0x00\n        /* \"#utility.yul\":19590:19596   */\n      not\n        /* \"#utility.yul\":19582:19587   */\n      dup5\n        /* \"#utility.yul\":19579:19580   */\n      0x08\n        /* \"#utility.yul\":19575:19588   */\n      mul\n        /* \"#utility.yul\":19546:19597   */\n      tag_226\n      jump\t// in\n    tag_426:\n        /* \"#utility.yul\":19542:19598   */\n      not\n        /* \"#utility.yul\":19627:19631   */\n      dup1\n        /* \"#utility.yul\":19621:19625   */\n      dup4\n        /* \"#utility.yul\":19617:19632   */\n      and\n        /* \"#utility.yul\":19607:19632   */\n      swap2\n      pop\n        /* \"#utility.yul\":19520:19638   */\n      pop\n        /* \"#utility.yul\":19469:19638   */\n      swap3\n      swap2\n      pop\n      pop\n      jump\t// out\n        /* \"#utility.yul\":19643:19938   */\n    tag_228:\n        /* \"#utility.yul\":19719:19723   */\n      0x00\n        /* \"#utility.yul\":19865:19894   */\n      tag_428\n        /* \"#utility.yul\":19890:19893   */\n      dup4\n        /* \"#utility.yul\":19884:19888   */\n      dup4\n        /* \"#utility.yul\":19865:19894   */\n      tag_227\n      jump\t// in\n    tag_428:\n        /* \"#utility.yul\":19857:19894   */\n      swap2\n      pop\n        /* \"#utility.yul\":19927:19930   */\n      dup3\n        /* \"#utility.yul\":19924:19925   */\n      0x02\n        /* \"#utility.yul\":19920:19931   */\n      mul\n        /* \"#utility.yul\":19914:19918   */\n      dup3\n        /* \"#utility.yul\":19911:19932   */\n      or\n        /* \"#utility.yul\":19903:19932   */\n      swap1\n      pop\n        /* \"#utility.yul\":19643:19938   */\n      swap3\n      swap2\n      pop\n      pop\n      jump\t// out\n        /* \"#utility.yul\":19943:21338   */\n    tag_124:\n        /* \"#utility.yul\":20060:20097   */\n      tag_430\n        /* \"#utility.yul\":20093:20096   */\n      dup3\n        /* \"#utility.yul\":20060:20097   */\n      tag_192\n      jump\t// in\n    tag_430:\n        /* \"#utility.yul\":20162:20180   */\n      0xffffffffffffffff\n        /* \"#utility.yul\":20154:20160   */\n      dup2\n        /* \"#utility.yul\":20151:20181   */\n      gt\n        /* \"#utility.yul\":20148:20204   */\n      iszero\n      tag_431\n      jumpi\n        /* \"#utility.yul\":20184:20202   */\n      tag_432\n      tag_183\n      jump\t// in\n    tag_432:\n        /* \"#utility.yul\":20148:20204   */\n    tag_431:\n        /* \"#utility.yul\":20228:20266   */\n      tag_433\n        /* \"#utility.yul\":20260:20264   */\n      dup3\n        /* \"#utility.yul\":20254:20265   */\n      sload\n        /* \"#utility.yul\":20228:20266   */\n      tag_133\n      jump\t// in\n    tag_433:\n        /* \"#utility.yul\":20313:20380   */\n      tag_434\n        /* \"#utility.yul\":20373:20379   */\n      dup3\n        /* \"#utility.yul\":20365:20371   */\n      dup3\n        /* \"#utility.yul\":20359:20363   */\n      dup6\n        /* \"#utility.yul\":20313:20380   */\n      tag_225\n      jump\t// in\n    tag_434:\n        /* \"#utility.yul\":20407:20408   */\n      0x00\n        /* \"#utility.yul\":20431:20435   */\n      0x20\n        /* \"#utility.yul\":20418:20435   */\n      swap1\n      pop\n        /* \"#utility.yul\":20463:20465   */\n      0x1f\n        /* \"#utility.yul\":20455:20461   */\n      dup4\n        /* \"#utility.yul\":20452:20466   */\n      gt\n        /* \"#utility.yul\":20480:20481   */\n      0x01\n        /* \"#utility.yul\":20475:21093   */\n      dup2\n      eq\n      tag_436\n      jumpi\n        /* \"#utility.yul\":21137:21138   */\n      0x00\n        /* \"#utility.yul\":21154:21160   */\n      dup5\n        /* \"#utility.yul\":21151:21228   */\n      iszero\n      tag_437\n      jumpi\n        /* \"#utility.yul\":21203:21212   */\n      dup3\n        /* \"#utility.yul\":21198:21201   */\n      dup8\n        /* \"#utility.yul\":21194:21213   */\n      add\n        /* \"#utility.yul\":21188:21214   */\n      mload\n        /* \"#utility.yul\":21179:21214   */\n      swap1\n      pop\n        /* \"#utility.yul\":21151:21228   */\n    tag_437:\n        /* \"#utility.yul\":21254:21321   */\n      tag_438\n        /* \"#utility.yul\":21314:21320   */\n      dup6\n        /* \"#utility.yul\":21307:21312   */\n      dup3\n        /* \"#utility.yul\":21254:21321   */\n      tag_228\n      jump\t// in\n    tag_438:\n        /* \"#utility.yul\":21248:21252   */\n      dup7\n        /* \"#utility.yul\":21241:21322   */\n      sstore\n        /* \"#utility.yul\":21110:21332   */\n      pop\n        /* \"#utility.yul\":20445:21332   */\n      jump(tag_435)\n        /* \"#utility.yul\":20475:21093   */\n    tag_436:\n        /* \"#utility.yul\":20527:20531   */\n      0x1f\n        /* \"#utility.yul\":20523:20532   */\n      not\n        /* \"#utility.yul\":20515:20521   */\n      dup5\n        /* \"#utility.yul\":20511:20533   */\n      and\n        /* \"#utility.yul\":20561:20598   */\n      tag_439\n        /* \"#utility.yul\":20593:20597   */\n      dup7\n        /* \"#utility.yul\":20561:20598   */\n      tag_214\n      jump\t// in\n    tag_439:\n        /* \"#utility.yul\":20620:20621   */\n      0x00\n        /* \"#utility.yul\":20634:20842   */\n    tag_440:\n        /* \"#utility.yul\":20648:20655   */\n      dup3\n        /* \"#utility.yul\":20645:20646   */\n      dup2\n        /* \"#utility.yul\":20642:20656   */\n      lt\n        /* \"#utility.yul\":20634:20842   */\n      iszero\n      tag_442\n      jumpi\n        /* \"#utility.yul\":20727:20736   */\n      dup5\n        /* \"#utility.yul\":20722:20725   */\n      dup10\n        /* \"#utility.yul\":20718:20737   */\n      add\n        /* \"#utility.yul\":20712:20738   */\n      mload\n        /* \"#utility.yul\":20704:20710   */\n      dup3\n        /* \"#utility.yul\":20697:20739   */\n      sstore\n        /* \"#utility.yul\":20778:20779   */\n      0x01\n        /* \"#utility.yul\":20770:20776   */\n      dup3\n        /* \"#utility.yul\":20766:20780   */\n      add\n        /* \"#utility.yul\":20756:20780   */\n      swap2\n      pop\n        /* \"#utility.yul\":20825:20827   */\n      0x20\n        /* \"#utility.yul\":20814:20823   */\n      dup6\n        /* \"#utility.yul\":20810:20828   */\n      add\n        /* \"#utility.yul\":20797:20828   */\n      swap5\n      pop\n        /* \"#utility.yul\":20671:20675   */\n      0x20\n        /* \"#utility.yul\":20668:20669   */\n      dup2\n        /* \"#utility.yul\":20664:20676   */\n      add\n        /* \"#utility.yul\":20659:20676   */\n      swap1\n      pop\n        /* \"#utility.yul\":20634:20842   */\n      jump(tag_440)\n    tag_442:\n        /* \"#utility.yul\":20870:20876   */\n      dup7\n        /* \"#utility.yul\":20861:20868   */\n      dup4\n        /* \"#utility.yul\":20858:20877   */\n      lt\n        /* \"#utility.yul\":20855:21034   */\n      iszero\n      tag_443\n      jumpi\n        /* \"#utility.yul\":20928:20937   */\n      dup5\n        /* \"#utility.yul\":20923:20926   */\n      dup10\n        /* \"#utility.yul\":20919:20938   */\n      add\n        /* \"#utility.yul\":20913:20939   */\n      mload\n        /* \"#utility.yul\":20971:21019   */\n      tag_444\n        /* \"#utility.yul\":21013:21017   */\n      0x1f\n        /* \"#utility.yul\":21005:21011   */\n      dup10\n        /* \"#utility.yul\":21001:21018   */\n      and\n        /* \"#utility.yul\":20990:20999   */\n      dup3\n        /* \"#utility.yul\":20971:21019   */\n      tag_227\n      jump\t// in\n    tag_444:\n        /* \"#utility.yul\":20963:20969   */\n      dup4\n        /* \"#utility.yul\":20956:21020   */\n      sstore\n        /* \"#utility.yul\":20878:21034   */\n      pop\n        /* \"#utility.yul\":20855:21034   */\n    tag_443:\n        /* \"#utility.yul\":21080:21081   */\n      0x01\n        /* \"#utility.yul\":21076:21077   */\n      0x02\n        /* \"#utility.yul\":21068:21074   */\n      dup9\n        /* \"#utility.yul\":21064:21078   */\n      mul\n        /* \"#utility.yul\":21060:21082   */\n      add\n        /* \"#utility.yul\":21054:21058   */\n      dup9\n        /* \"#utility.yul\":21047:21083   */\n      sstore\n        /* \"#utility.yul\":20482:21093   */\n      pop\n      pop\n      pop\n        /* \"#utility.yul\":20445:21332   */\n    tag_435:\n      pop\n        /* \"#utility.yul\":20035:21338   */\n      pop\n      pop\n      pop\n        /* \"#utility.yul\":19943:21338   */\n      pop\n      pop\n      jump\t// out\n        /* \"#utility.yul\":21344:21510   */\n    tag_229:\n        /* \"#utility.yul\":21484:21502   */\n      0x4e6f7420656e6f7567682066756e647300000000000000000000000000000000\n        /* \"#utility.yul\":21480:21481   */\n      0x00\n        /* \"#utility.yul\":21472:21478   */\n      dup3\n        /* \"#utility.yul\":21468:21482   */\n      add\n        /* \"#utility.yul\":21461:21503   */\n      mstore\n        /* \"#utility.yul\":21344:21510   */\n      pop\n      jump\t// out\n        /* \"#utility.yul\":21516:21882   */\n    tag_230:\n        /* \"#utility.yul\":21658:21661   */\n      0x00\n        /* \"#utility.yul\":21679:21746   */\n      tag_447\n        /* \"#utility.yul\":21743:21745   */\n      0x10\n        /* \"#utility.yul\":21738:21741   */\n      dup4\n        /* \"#utility.yul\":21679:21746   */\n      tag_193\n      jump\t// in\n    tag_447:\n        /* \"#utility.yul\":21672:21746   */\n      swap2\n      pop\n        /* \"#utility.yul\":21755:21848   */\n      tag_448\n        /* \"#utility.yul\":21844:21847   */\n      dup3\n        /* \"#utility.yul\":21755:21848   */\n      tag_229\n      jump\t// in\n    tag_448:\n        /* \"#utility.yul\":21873:21875   */\n      0x20\n        /* \"#utility.yul\":21868:21871   */\n      dup3\n        /* \"#utility.yul\":21864:21876   */\n      add\n        /* \"#utility.yul\":21857:21876   */\n      swap1\n      pop\n        /* \"#utility.yul\":21516:21882   */\n      swap2\n      swap1\n      pop\n      jump\t// out\n        /* \"#utility.yul\":21888:22307   */\n    tag_127:\n        /* \"#utility.yul\":22054:22058   */\n      0x00\n        /* \"#utility.yul\":22092:22094   */\n      0x20\n        /* \"#utility.yul\":22081:22090   */\n      dup3\n        /* \"#utility.yul\":22077:22095   */\n      add\n        /* \"#utility.yul\":22069:22095   */\n      swap1\n      pop\n        /* \"#utility.yul\":22141:22150   */\n      dup2\n        /* \"#utility.yul\":22135:22139   */\n      dup2\n        /* \"#utility.yul\":22131:22151   */\n      sub\n        /* \"#utility.yul\":22127:22128   */\n      0x00\n        /* \"#utility.yul\":22116:22125   */\n      dup4\n        /* \"#utility.yul\":22112:22129   */\n      add\n        /* \"#utility.yul\":22105:22152   */\n      mstore\n        /* \"#utility.yul\":22169:22300   */\n      tag_450\n        /* \"#utility.yul\":22295:22299   */\n      dup2\n        /* \"#utility.yul\":22169:22300   */\n      tag_230\n      jump\t// in\n    tag_450:\n        /* \"#utility.yul\":22161:22300   */\n      swap1\n      pop\n        /* \"#utility.yul\":21888:22307   */\n      swap2\n      swap1\n      pop\n      jump\t// out\n        /* \"#utility.yul\":22313:22483   */\n    tag_231:\n        /* \"#utility.yul\":22453:22475   */\n      0x4e6f2076616c6964206372656469742063617264000000000000000000000000\n        /* \"#utility.yul\":22449:22450   */\n      0x00\n        /* \"#utility.yul\":22441:22447   */\n      dup3\n        /* \"#utility.yul\":22437:22451   */\n      add\n        /* \"#utility.yul\":22430:22476   */\n      mstore\n        /* \"#utility.yul\":22313:22483   */\n      pop\n      jump\t// out\n        /* \"#utility.yul\":22489:22855   */\n    tag_232:\n        /* \"#utility.yul\":22631:22634   */\n      0x00\n        /* \"#utility.yul\":22652:22719   */\n      tag_453\n        /* \"#utility.yul\":22716:22718   */\n      0x14\n        /* \"#utility.yul\":22711:22714   */\n      dup4\n        /* \"#utility.yul\":22652:22719   */\n      tag_193\n      jump\t// in\n    tag_453:\n        /* \"#utility.yul\":22645:22719   */\n      swap2\n      pop\n        /* \"#utility.yul\":22728:22821   */\n      tag_454\n        /* \"#utility.yul\":22817:22820   */\n      dup3\n        /* \"#utility.yul\":22728:22821   */\n      tag_231\n      jump\t// in\n    tag_454:\n        /* \"#utility.yul\":22846:22848   */\n      0x20\n        /* \"#utility.yul\":22841:22844   */\n      dup3\n        /* \"#utility.yul\":22837:22849   */\n      add\n        /* \"#utility.yul\":22830:22849   */\n      swap1\n      pop\n        /* \"#utility.yul\":22489:22855   */\n      swap2\n      swap1\n      pop\n      jump\t// out\n        /* \"#utility.yul\":22861:23280   */\n    tag_138:\n        /* \"#utility.yul\":23027:23031   */\n      0x00\n        /* \"#utility.yul\":23065:23067   */\n      0x20\n        /* \"#utility.yul\":23054:23063   */\n      dup3\n        /* \"#utility.yul\":23050:23068   */\n      add\n        /* \"#utility.yul\":23042:23068   */\n      swap1\n      pop\n        /* \"#utility.yul\":23114:23123   */\n      dup2\n        /* \"#utility.yul\":23108:23112   */\n      dup2\n        /* \"#utility.yul\":23104:23124   */\n      sub\n        /* \"#utility.yul\":23100:23101   */\n      0x00\n        /* \"#utility.yul\":23089:23098   */\n      dup4\n        /* \"#utility.yul\":23085:23102   */\n      add\n        /* \"#utility.yul\":23078:23125   */\n      mstore\n        /* \"#utility.yul\":23142:23273   */\n      tag_456\n        /* \"#utility.yul\":23268:23272   */\n      dup2\n        /* \"#utility.yul\":23142:23273   */\n      tag_232\n      jump\t// in\n    tag_456:\n        /* \"#utility.yul\":23134:23273   */\n      swap1\n      pop\n        /* \"#utility.yul\":22861:23280   */\n      swap2\n      swap1\n      pop\n      jump\t// out\n        /* \"#utility.yul\":23286:23519   */\n    tag_167:\n        /* \"#utility.yul\":23325:23328   */\n      0x00\n        /* \"#utility.yul\":23348:23372   */\n      tag_458\n        /* \"#utility.yul\":23366:23371   */\n      dup3\n        /* \"#utility.yul\":23348:23372   */\n      tag_171\n      jump\t// in\n    tag_458:\n        /* \"#utility.yul\":23339:23372   */\n      swap2\n      pop\n        /* \"#utility.yul\":23394:23460   */\n      0xffffffffffffffffffffffffffffffffffffffffffffffffffffffffffffffff\n        /* \"#utility.yul\":23387:23392   */\n      dup3\n        /* \"#utility.yul\":23384:23461   */\n      sub\n        /* \"#utility.yul\":23381:23484   */\n      tag_459\n      jumpi\n        /* \"#utility.yul\":23464:23482   */\n      tag_460\n      tag_210\n      jump\t// in\n    tag_460:\n        /* \"#utility.yul\":23381:23484   */\n    tag_459:\n        /* \"#utility.yul\":23511:23512   */\n      0x01\n        /* \"#utility.yul\":23504:23509   */\n      dup3\n        /* \"#utility.yul\":23500:23513   */\n      add\n        /* \"#utility.yul\":23493:23513   */\n      swap1\n      pop\n        /* \"#utility.yul\":23286:23519   */\n      swap2\n      swap1\n      pop\n      jump\t// out\n\n    auxdata: 0xa2646970667358221220f0ea6400151bc3766ce60c9cdb30efc2f80a7481cdd7d5b74b1520c27ff4a09664736f6c63430008100033\n}\n",
				"bytecode": {
					"linkReferences": {},
					"object": "608060405260006002556000600b556000600c60006101000a81548160ff0219169083151502179055503480156200003657600080fd5b5060405162001b9f38038062001b9f83398181016040528101906200005c9190620000aa565b8060048190555050620000dc565b600080fd5b6000819050919050565b62000084816200006f565b81146200009057600080fd5b50565b600081519050620000a48162000079565b92915050565b600060208284031215620000c357620000c26200006a565b5b6000620000d38482850162000093565b91505092915050565b611ab380620000ec6000396000f3fe608060405234801561001057600080fd5b50600436106101165760003560e01c806359705f81116100a25780638fa11864116100715780638fa11864146102b3578063aa8c217c146102d1578063b28273c2146102ef578063e21f37ce1461030d578063f4b30eaf1461032b57610116565b806359705f811461024f5780637b9a3f4c1461026d5780637eb9f5711461028b5780638e029c0b146102a957610116565b80633c626f00116100e95780633c626f00146101a457806342fb7936146101c25780634b28f9a2146101e0578063557ed1ba146101fe57806357bf72e31461021c57610116565b806304ef5b211461011b578063062a75441461014e5780630e85fa721461016a57806312a029a414610188575b600080fd5b61013560048036038101906101309190610ee3565b61035b565b6040516101459493929190610f60565b60405180910390f35b61016860048036038101906101639190610fd1565b6103db565b005b610172610713565b60405161017f9190611011565b60405180910390f35b6101a2600480360381019061019d9190611172565b610719565b005b6101ac6107ca565b6040516101b99190611205565b60405180910390f35b6101ca6107dd565b6040516101d7919061129f565b60405180910390f35b6101e861086b565b6040516101f59190611011565b60405180910390f35b610206610871565b6040516102139190611011565b60405180910390f35b61023660048036038101906102319190610ee3565b610879565b6040516102469493929190610f60565b60405180910390f35b6102576108e9565b60405161026491906113e3565b60405180910390f35b610275610a08565b6040516102829190611011565b60405180910390f35b610293610a0e565b6040516102a09190611011565b60405180910390f35b6102b1610a14565b005b6102bb610a31565b6040516102c8919061129f565b60405180910390f35b6102d9610abf565b6040516102e69190611011565b60405180910390f35b6102f7610ac5565b6040516103049190611011565b60405180910390f35b610315610acf565b604051610322919061129f565b60405180910390f35b61034560048036038101906103409190610ee3565b610b5d565b604051610352919061145a565b60405180910390f35b6000818154811061036b57600080fd5b90600052602060002090600402016000915090508060000160009054906101000a900473ffffffffffffffffffffffffffffffffffffffff16908060010160009054906101000a900473ffffffffffffffffffffffffffffffffffffffff16908060020154908060030154905084565b8080600560006101000a81548173ffffffffffffffffffffffffffffffffffffffff021916908373ffffffffffffffffffffffffffffffffffffffff160217905550600073ffffffffffffffffffffffffffffffffffffffff168173ffffffffffffffffffffffffffffffffffffffff160361048c576040517f08c379a0000000000000000000000000000000000000000000000000000000008152600401610483906114c1565b60405180910390fd5b60001515600c60009054906101000a900460ff161515036104e2576040517f08c379a00000000000000000000000000000000000000000000000000000000081526004016104d99061152d565b60405180910390fd5b6005600b54101580156105035750601e600a546104ff919061157c565b4211155b1561055e576000600b819055506000600b5414610523576105226115b0565b5b6040517f08c379a00000000000000000000000000000000000000000000000000000000081526004016105559061162b565b60405180910390fd5b6005600b541115801561057f5750601e600a5461057b919061157c565b4210155b156105a7576000600b819055506000600b541461059f5761059e6115b0565b5b42600a819055505b81600560006101000a81548173ffffffffffffffffffffffffffffffffffffffff021916908373ffffffffffffffffffffffffffffffffffffffff160217905550826003819055506001600b6000828254610602919061157c565b92505081905550600060045411801561061e5750600354600454115b156106d35760035460046000828254610637919061164b565b9250508190555060035460096000828254610652919061157c565b9250508190555061068933600560009054906101000a900473ffffffffffffffffffffffffffffffffffffffff1660035442610c4a565b6040518060400160405280601281526020017f5472616e7366657220636f6d706c657465640000000000000000000000000000815250600690816106cd919061188b565b5061070e565b6040517f08c379a0000000000000000000000000000000000000000000000000000000008152600401610705906119a9565b60405180910390fd5b505050565b600a5481565b8160079081610728919061188b565b508060089081610738919061188b565b506001600c60006101000a81548160ff02191690831515021790555042600a8190555060086007805461076a906116ae565b90501480156107875750600360088054610783906116ae565b9050145b6107c6576040517f08c379a00000000000000000000000000000000000000000000000000000000081526004016107bd90611a15565b60405180910390fd5b5050565b600c60009054906101000a900460ff1681565b600880546107ea906116ae565b80601f0160208091040260200160405190810160405280929190818152602001828054610816906116ae565b80156108635780601f1061083857610100808354040283529160200191610863565b820191906000526020600020905b81548152906001019060200180831161084657829003601f168201915b505050505081565b600b5481565b600042905090565b60016020528060005260406000206000915090508060000160009054906101000a900473ffffffffffffffffffffffffffffffffffffffff16908060010160009054906101000a900473ffffffffffffffffffffffffffffffffffffffff16908060020154908060030154905084565b60606000805480602002602001604051908101604052809291908181526020016000905b828210156109ff57838290600052602060002090600402016040518060800160405290816000820160009054906101000a900473ffffffffffffffffffffffffffffffffffffffff1673ffffffffffffffffffffffffffffffffffffffff1673ffffffffffffffffffffffffffffffffffffffff1681526020016001820160009054906101000a900473ffffffffffffffffffffffffffffffffffffffff1673ffffffffffffffffffffffffffffffffffffffff1673ffffffffffffffffffffffffffffffffffffffff168152602001600282015481526020016003820154815250508152602001906001019061090d565b50505050905090565b60045481565b60095481565b6000600c60006101000a81548160ff021916908315150217905550565b60078054610a3e906116ae565b80601f0160208091040260200160405190810160405280929190818152602001828054610a6a906116ae565b8015610ab75780601f10610a8c57610100808354040283529160200191610ab7565b820191906000526020600020905b815481529060010190602001808311610a9a57829003601f168201915b505050505081565b60035481565b6000600254905090565b60068054610adc906116ae565b80601f0160208091040260200160405190810160405280929190818152602001828054610b08906116ae565b8015610b555780601f10610b2a57610100808354040283529160200191610b55565b820191906000526020600020905b815481529060010190602001808311610b3857829003601f168201915b505050505081565b610b65610e45565b600160008381526020019081526020016000206040518060800160405290816000820160009054906101000a900473ffffffffffffffffffffffffffffffffffffffff1673ffffffffffffffffffffffffffffffffffffffff1673ffffffffffffffffffffffffffffffffffffffff1681526020016001820160009054906101000a900473ffffffffffffffffffffffffffffffffffffffff1673ffffffffffffffffffffffffffffffffffffffff1673ffffffffffffffffffffffffffffffffffffffff168152602001600282015481526020016003820154815250509050919050565b600060405180608001604052808673ffffffffffffffffffffffffffffffffffffffff1681526020018573ffffffffffffffffffffffffffffffffffffffff168152602001848152602001838152509050600081908060018154018082558091505060019003906000526020600020906004020160009091909190915060008201518160000160006101000a81548173ffffffffffffffffffffffffffffffffffffffff021916908373ffffffffffffffffffffffffffffffffffffffff16021790555060208201518160010160006101000a81548173ffffffffffffffffffffffffffffffffffffffff021916908373ffffffffffffffffffffffffffffffffffffffff160217905550604082015181600201556060820151816003015550508060016000600254815260200190815260200160002060008201518160000160006101000a81548173ffffffffffffffffffffffffffffffffffffffff021916908373ffffffffffffffffffffffffffffffffffffffff16021790555060208201518160010160006101000a81548173ffffffffffffffffffffffffffffffffffffffff021916908373ffffffffffffffffffffffffffffffffffffffff160217905550604082015181600201556060820151816003015590505060026000815480929190610e3990611a35565b91905055505050505050565b6040518060800160405280600073ffffffffffffffffffffffffffffffffffffffff168152602001600073ffffffffffffffffffffffffffffffffffffffff16815260200160008152602001600081525090565b6000604051905090565b600080fd5b600080fd5b6000819050919050565b610ec081610ead565b8114610ecb57600080fd5b50565b600081359050610edd81610eb7565b92915050565b600060208284031215610ef957610ef8610ea3565b5b6000610f0784828501610ece565b91505092915050565b600073ffffffffffffffffffffffffffffffffffffffff82169050919050565b6000610f3b82610f10565b9050919050565b610f4b81610f30565b82525050565b610f5a81610ead565b82525050565b6000608082019050610f756000830187610f42565b610f826020830186610f42565b610f8f6040830185610f51565b610f9c6060830184610f51565b95945050505050565b610fae81610f30565b8114610fb957600080fd5b50565b600081359050610fcb81610fa5565b92915050565b60008060408385031215610fe857610fe7610ea3565b5b6000610ff685828601610ece565b925050602061100785828601610fbc565b9150509250929050565b60006020820190506110266000830184610f51565b92915050565b600080fd5b600080fd5b6000601f19601f8301169050919050565b7f4e487b7100000000000000000000000000000000000000000000000000000000600052604160045260246000fd5b61107f82611036565b810181811067ffffffffffffffff8211171561109e5761109d611047565b5b80604052505050565b60006110b1610e99565b90506110bd8282611076565b919050565b600067ffffffffffffffff8211156110dd576110dc611047565b5b6110e682611036565b9050602081019050919050565b82818337600083830152505050565b6000611115611110846110c2565b6110a7565b90508281526020810184848401111561113157611130611031565b5b61113c8482856110f3565b509392505050565b600082601f8301126111595761115861102c565b5b8135611169848260208601611102565b91505092915050565b6000806040838503121561118957611188610ea3565b5b600083013567ffffffffffffffff8111156111a7576111a6610ea8565b5b6111b385828601611144565b925050602083013567ffffffffffffffff8111156111d4576111d3610ea8565b5b6111e085828601611144565b9150509250929050565b60008115159050919050565b6111ff816111ea565b82525050565b600060208201905061121a60008301846111f6565b92915050565b600081519050919050565b600082825260208201905092915050565b60005b8381101561125a57808201518184015260208101905061123f565b60008484015250505050565b600061127182611220565b61127b818561122b565b935061128b81856020860161123c565b61129481611036565b840191505092915050565b600060208201905081810360008301526112b98184611266565b905092915050565b600081519050919050565b600082825260208201905092915050565b6000819050602082019050919050565b6112f681610f30565b82525050565b61130581610ead565b82525050565b60808201600082015161132160008501826112ed565b50602082015161133460208501826112ed565b50604082015161134760408501826112fc565b50606082015161135a60608501826112fc565b50505050565b600061136c838361130b565b60808301905092915050565b6000602082019050919050565b6000611390826112c1565b61139a81856112cc565b93506113a5836112dd565b8060005b838110156113d65781516113bd8882611360565b97506113c883611378565b9250506001810190506113a9565b5085935050505092915050565b600060208201905081810360008301526113fd8184611385565b905092915050565b60808201600082015161141b60008501826112ed565b50602082015161142e60208501826112ed565b50604082015161144160408501826112fc565b50606082015161145460608501826112fc565b50505050565b600060808201905061146f6000830184611405565b92915050565b7f2054686973206164647265737320646f65736e27742065786973747300000000600082015250565b60006114ab601c8361122b565b91506114b682611475565b602082019050919050565b600060208201905081810360008301526114da8161149e565b9050919050565b7f506c6561736520696e7365727420796f75722063617264000000000000000000600082015250565b600061151760178361122b565b9150611522826114e1565b602082019050919050565b600060208201905081810360008301526115468161150a565b9050919050565b7f4e487b7100000000000000000000000000000000000000000000000000000000600052601160045260246000fd5b600061158782610ead565b915061159283610ead565b92508282019050808211156115aa576115a961154d565b5b92915050565b7f4e487b7100000000000000000000000000000000000000000000000000000000600052600160045260246000fd5b7f6f6e6c792035207472616e73616374696f6e7320706572206461790000000000600082015250565b6000611615601b8361122b565b9150611620826115df565b602082019050919050565b6000602082019050818103600083015261164481611608565b9050919050565b600061165682610ead565b915061166183610ead565b92508282039050818111156116795761167861154d565b5b92915050565b7f4e487b7100000000000000000000000000000000000000000000000000000000600052602260045260246000fd5b600060028204905060018216806116c657607f821691505b6020821081036116d9576116d861167f565b5b50919050565b60008190508160005260206000209050919050565b60006020601f8301049050919050565b600082821b905092915050565b6000600883026117417fffffffffffffffffffffffffffffffffffffffffffffffffffffffffffffffff82611704565b61174b8683611704565b95508019841693508086168417925050509392505050565b6000819050919050565b600061178861178361177e84610ead565b611763565b610ead565b9050919050565b6000819050919050565b6117a28361176d565b6117b66117ae8261178f565b848454611711565b825550505050565b600090565b6117cb6117be565b6117d6818484611799565b505050565b5b818110156117fa576117ef6000826117c3565b6001810190506117dc565b5050565b601f82111561183f57611810816116df565b611819846116f4565b81016020851015611828578190505b61183c611834856116f4565b8301826117db565b50505b505050565b600082821c905092915050565b600061186260001984600802611844565b1980831691505092915050565b600061187b8383611851565b9150826002028217905092915050565b61189482611220565b67ffffffffffffffff8111156118ad576118ac611047565b5b6118b782546116ae565b6118c28282856117fe565b600060209050601f8311600181146118f557600084156118e3578287015190505b6118ed858261186f565b865550611955565b601f198416611903866116df565b60005b8281101561192b57848901518255600182019150602085019450602081019050611906565b868310156119485784890151611944601f891682611851565b8355505b6001600288020188555050505b505050505050565b7f4e6f7420656e6f7567682066756e647300000000000000000000000000000000600082015250565b600061199360108361122b565b915061199e8261195d565b602082019050919050565b600060208201905081810360008301526119c281611986565b9050919050565b7f4e6f2076616c6964206372656469742063617264000000000000000000000000600082015250565b60006119ff60148361122b565b9150611a0a826119c9565b602082019050919050565b60006020820190508181036000830152611a2e816119f2565b9050919050565b6000611a4082610ead565b91507fffffffffffffffffffffffffffffffffffffffffffffffffffffffffffffffff8203611a7257611a7161154d565b5b60018201905091905056fea2646970667358221220f0ea6400151bc3766ce60c9cdb30efc2f80a7481cdd7d5b74b1520c27ff4a09664736f6c63430008100033",
					"opcodes": "PUSH1 0x80 PUSH1 0x40 MSTORE PUSH1 0x0 PUSH1 0x2 SSTORE PUSH1 0x0 PUSH1 0xB SSTORE PUSH1 0x0 PUSH1 0xC PUSH1 0x0 PUSH2 0x100 EXP DUP2 SLOAD DUP2 PUSH1 0xFF MUL NOT AND SWAP1 DUP4 ISZERO ISZERO MUL OR SWAP1 SSTORE POP CALLVALUE DUP1 ISZERO PUSH3 0x36 JUMPI PUSH1 0x0 DUP1 REVERT JUMPDEST POP PUSH1 0x40 MLOAD PUSH3 0x1B9F CODESIZE SUB DUP1 PUSH3 0x1B9F DUP4 CODECOPY DUP2 DUP2 ADD PUSH1 0x40 MSTORE DUP2 ADD SWAP1 PUSH3 0x5C SWAP2 SWAP1 PUSH3 0xAA JUMP JUMPDEST DUP1 PUSH1 0x4 DUP2 SWAP1 SSTORE POP POP PUSH3 0xDC JUMP JUMPDEST PUSH1 0x0 DUP1 REVERT JUMPDEST PUSH1 0x0 DUP2 SWAP1 POP SWAP2 SWAP1 POP JUMP JUMPDEST PUSH3 0x84 DUP2 PUSH3 0x6F JUMP JUMPDEST DUP2 EQ PUSH3 0x90 JUMPI PUSH1 0x0 DUP1 REVERT JUMPDEST POP JUMP JUMPDEST PUSH1 0x0 DUP2 MLOAD SWAP1 POP PUSH3 0xA4 DUP2 PUSH3 0x79 JUMP JUMPDEST SWAP3 SWAP2 POP POP JUMP JUMPDEST PUSH1 0x0 PUSH1 0x20 DUP3 DUP5 SUB SLT ISZERO PUSH3 0xC3 JUMPI PUSH3 0xC2 PUSH3 0x6A JUMP JUMPDEST JUMPDEST PUSH1 0x0 PUSH3 0xD3 DUP5 DUP3 DUP6 ADD PUSH3 0x93 JUMP JUMPDEST SWAP2 POP POP SWAP3 SWAP2 POP POP JUMP JUMPDEST PUSH2 0x1AB3 DUP1 PUSH3 0xEC PUSH1 0x0 CODECOPY PUSH1 0x0 RETURN INVALID PUSH1 0x80 PUSH1 0x40 MSTORE CALLVALUE DUP1 ISZERO PUSH2 0x10 JUMPI PUSH1 0x0 DUP1 REVERT JUMPDEST POP PUSH1 0x4 CALLDATASIZE LT PUSH2 0x116 JUMPI PUSH1 0x0 CALLDATALOAD PUSH1 0xE0 SHR DUP1 PUSH4 0x59705F81 GT PUSH2 0xA2 JUMPI DUP1 PUSH4 0x8FA11864 GT PUSH2 0x71 JUMPI DUP1 PUSH4 0x8FA11864 EQ PUSH2 0x2B3 JUMPI DUP1 PUSH4 0xAA8C217C EQ PUSH2 0x2D1 JUMPI DUP1 PUSH4 0xB28273C2 EQ PUSH2 0x2EF JUMPI DUP1 PUSH4 0xE21F37CE EQ PUSH2 0x30D JUMPI DUP1 PUSH4 0xF4B30EAF EQ PUSH2 0x32B JUMPI PUSH2 0x116 JUMP JUMPDEST DUP1 PUSH4 0x59705F81 EQ PUSH2 0x24F JUMPI DUP1 PUSH4 0x7B9A3F4C EQ PUSH2 0x26D JUMPI DUP1 PUSH4 0x7EB9F571 EQ PUSH2 0x28B JUMPI DUP1 PUSH4 0x8E029C0B EQ PUSH2 0x2A9 JUMPI PUSH2 0x116 JUMP JUMPDEST DUP1 PUSH4 0x3C626F00 GT PUSH2 0xE9 JUMPI DUP1 PUSH4 0x3C626F00 EQ PUSH2 0x1A4 JUMPI DUP1 PUSH4 0x42FB7936 EQ PUSH2 0x1C2 JUMPI DUP1 PUSH4 0x4B28F9A2 EQ PUSH2 0x1E0 JUMPI DUP1 PUSH4 0x557ED1BA EQ PUSH2 0x1FE JUMPI DUP1 PUSH4 0x57BF72E3 EQ PUSH2 0x21C JUMPI PUSH2 0x116 JUMP JUMPDEST DUP1 PUSH4 0x4EF5B21 EQ PUSH2 0x11B JUMPI DUP1 PUSH4 0x62A7544 EQ PUSH2 0x14E JUMPI DUP1 PUSH4 0xE85FA72 EQ PUSH2 0x16A JUMPI DUP1 PUSH4 0x12A029A4 EQ PUSH2 0x188 JUMPI JUMPDEST PUSH1 0x0 DUP1 REVERT JUMPDEST PUSH2 0x135 PUSH1 0x4 DUP1 CALLDATASIZE SUB DUP2 ADD SWAP1 PUSH2 0x130 SWAP2 SWAP1 PUSH2 0xEE3 JUMP JUMPDEST PUSH2 0x35B JUMP JUMPDEST PUSH1 0x40 MLOAD PUSH2 0x145 SWAP5 SWAP4 SWAP3 SWAP2 SWAP1 PUSH2 0xF60 JUMP JUMPDEST PUSH1 0x40 MLOAD DUP1 SWAP2 SUB SWAP1 RETURN JUMPDEST PUSH2 0x168 PUSH1 0x4 DUP1 CALLDATASIZE SUB DUP2 ADD SWAP1 PUSH2 0x163 SWAP2 SWAP1 PUSH2 0xFD1 JUMP JUMPDEST PUSH2 0x3DB JUMP JUMPDEST STOP JUMPDEST PUSH2 0x172 PUSH2 0x713 JUMP JUMPDEST PUSH1 0x40 MLOAD PUSH2 0x17F SWAP2 SWAP1 PUSH2 0x1011 JUMP JUMPDEST PUSH1 0x40 MLOAD DUP1 SWAP2 SUB SWAP1 RETURN JUMPDEST PUSH2 0x1A2 PUSH1 0x4 DUP1 CALLDATASIZE SUB DUP2 ADD SWAP1 PUSH2 0x19D SWAP2 SWAP1 PUSH2 0x1172 JUMP JUMPDEST PUSH2 0x719 JUMP JUMPDEST STOP JUMPDEST PUSH2 0x1AC PUSH2 0x7CA JUMP JUMPDEST PUSH1 0x40 MLOAD PUSH2 0x1B9 SWAP2 SWAP1 PUSH2 0x1205 JUMP JUMPDEST PUSH1 0x40 MLOAD DUP1 SWAP2 SUB SWAP1 RETURN JUMPDEST PUSH2 0x1CA PUSH2 0x7DD JUMP JUMPDEST PUSH1 0x40 MLOAD PUSH2 0x1D7 SWAP2 SWAP1 PUSH2 0x129F JUMP JUMPDEST PUSH1 0x40 MLOAD DUP1 SWAP2 SUB SWAP1 RETURN JUMPDEST PUSH2 0x1E8 PUSH2 0x86B JUMP JUMPDEST PUSH1 0x40 MLOAD PUSH2 0x1F5 SWAP2 SWAP1 PUSH2 0x1011 JUMP JUMPDEST PUSH1 0x40 MLOAD DUP1 SWAP2 SUB SWAP1 RETURN JUMPDEST PUSH2 0x206 PUSH2 0x871 JUMP JUMPDEST PUSH1 0x40 MLOAD PUSH2 0x213 SWAP2 SWAP1 PUSH2 0x1011 JUMP JUMPDEST PUSH1 0x40 MLOAD DUP1 SWAP2 SUB SWAP1 RETURN JUMPDEST PUSH2 0x236 PUSH1 0x4 DUP1 CALLDATASIZE SUB DUP2 ADD SWAP1 PUSH2 0x231 SWAP2 SWAP1 PUSH2 0xEE3 JUMP JUMPDEST PUSH2 0x879 JUMP JUMPDEST PUSH1 0x40 MLOAD PUSH2 0x246 SWAP5 SWAP4 SWAP3 SWAP2 SWAP1 PUSH2 0xF60 JUMP JUMPDEST PUSH1 0x40 MLOAD DUP1 SWAP2 SUB SWAP1 RETURN JUMPDEST PUSH2 0x257 PUSH2 0x8E9 JUMP JUMPDEST PUSH1 0x40 MLOAD PUSH2 0x264 SWAP2 SWAP1 PUSH2 0x13E3 JUMP JUMPDEST PUSH1 0x40 MLOAD DUP1 SWAP2 SUB SWAP1 RETURN JUMPDEST PUSH2 0x275 PUSH2 0xA08 JUMP JUMPDEST PUSH1 0x40 MLOAD PUSH2 0x282 SWAP2 SWAP1 PUSH2 0x1011 JUMP JUMPDEST PUSH1 0x40 MLOAD DUP1 SWAP2 SUB SWAP1 RETURN JUMPDEST PUSH2 0x293 PUSH2 0xA0E JUMP JUMPDEST PUSH1 0x40 MLOAD PUSH2 0x2A0 SWAP2 SWAP1 PUSH2 0x1011 JUMP JUMPDEST PUSH1 0x40 MLOAD DUP1 SWAP2 SUB SWAP1 RETURN JUMPDEST PUSH2 0x2B1 PUSH2 0xA14 JUMP JUMPDEST STOP JUMPDEST PUSH2 0x2BB PUSH2 0xA31 JUMP JUMPDEST PUSH1 0x40 MLOAD PUSH2 0x2C8 SWAP2 SWAP1 PUSH2 0x129F JUMP JUMPDEST PUSH1 0x40 MLOAD DUP1 SWAP2 SUB SWAP1 RETURN JUMPDEST PUSH2 0x2D9 PUSH2 0xABF JUMP JUMPDEST PUSH1 0x40 MLOAD PUSH2 0x2E6 SWAP2 SWAP1 PUSH2 0x1011 JUMP JUMPDEST PUSH1 0x40 MLOAD DUP1 SWAP2 SUB SWAP1 RETURN JUMPDEST PUSH2 0x2F7 PUSH2 0xAC5 JUMP JUMPDEST PUSH1 0x40 MLOAD PUSH2 0x304 SWAP2 SWAP1 PUSH2 0x1011 JUMP JUMPDEST PUSH1 0x40 MLOAD DUP1 SWAP2 SUB SWAP1 RETURN JUMPDEST PUSH2 0x315 PUSH2 0xACF JUMP JUMPDEST PUSH1 0x40 MLOAD PUSH2 0x322 SWAP2 SWAP1 PUSH2 0x129F JUMP JUMPDEST PUSH1 0x40 MLOAD DUP1 SWAP2 SUB SWAP1 RETURN JUMPDEST PUSH2 0x345 PUSH1 0x4 DUP1 CALLDATASIZE SUB DUP2 ADD SWAP1 PUSH2 0x340 SWAP2 SWAP1 PUSH2 0xEE3 JUMP JUMPDEST PUSH2 0xB5D JUMP JUMPDEST PUSH1 0x40 MLOAD PUSH2 0x352 SWAP2 SWAP1 PUSH2 0x145A JUMP JUMPDEST PUSH1 0x40 MLOAD DUP1 SWAP2 SUB SWAP1 RETURN JUMPDEST PUSH1 0x0 DUP2 DUP2 SLOAD DUP2 LT PUSH2 0x36B JUMPI PUSH1 0x0 DUP1 REVERT JUMPDEST SWAP1 PUSH1 0x0 MSTORE PUSH1 0x20 PUSH1 0x0 KECCAK256 SWAP1 PUSH1 0x4 MUL ADD PUSH1 0x0 SWAP2 POP SWAP1 POP DUP1 PUSH1 0x0 ADD PUSH1 0x0 SWAP1 SLOAD SWAP1 PUSH2 0x100 EXP SWAP1 DIV PUSH20 0xFFFFFFFFFFFFFFFFFFFFFFFFFFFFFFFFFFFFFFFF AND SWAP1 DUP1 PUSH1 0x1 ADD PUSH1 0x0 SWAP1 SLOAD SWAP1 PUSH2 0x100 EXP SWAP1 DIV PUSH20 0xFFFFFFFFFFFFFFFFFFFFFFFFFFFFFFFFFFFFFFFF AND SWAP1 DUP1 PUSH1 0x2 ADD SLOAD SWAP1 DUP1 PUSH1 0x3 ADD SLOAD SWAP1 POP DUP5 JUMP JUMPDEST DUP1 DUP1 PUSH1 0x5 PUSH1 0x0 PUSH2 0x100 EXP DUP2 SLOAD DUP2 PUSH20 0xFFFFFFFFFFFFFFFFFFFFFFFFFFFFFFFFFFFFFFFF MUL NOT AND SWAP1 DUP4 PUSH20 0xFFFFFFFFFFFFFFFFFFFFFFFFFFFFFFFFFFFFFFFF AND MUL OR SWAP1 SSTORE POP PUSH1 0x0 PUSH20 0xFFFFFFFFFFFFFFFFFFFFFFFFFFFFFFFFFFFFFFFF AND DUP2 PUSH20 0xFFFFFFFFFFFFFFFFFFFFFFFFFFFFFFFFFFFFFFFF AND SUB PUSH2 0x48C JUMPI PUSH1 0x40 MLOAD PUSH32 0x8C379A000000000000000000000000000000000000000000000000000000000 DUP2 MSTORE PUSH1 0x4 ADD PUSH2 0x483 SWAP1 PUSH2 0x14C1 JUMP JUMPDEST PUSH1 0x40 MLOAD DUP1 SWAP2 SUB SWAP1 REVERT JUMPDEST PUSH1 0x0 ISZERO ISZERO PUSH1 0xC PUSH1 0x0 SWAP1 SLOAD SWAP1 PUSH2 0x100 EXP SWAP1 DIV PUSH1 0xFF AND ISZERO ISZERO SUB PUSH2 0x4E2 JUMPI PUSH1 0x40 MLOAD PUSH32 0x8C379A000000000000000000000000000000000000000000000000000000000 DUP2 MSTORE PUSH1 0x4 ADD PUSH2 0x4D9 SWAP1 PUSH2 0x152D JUMP JUMPDEST PUSH1 0x40 MLOAD DUP1 SWAP2 SUB SWAP1 REVERT JUMPDEST PUSH1 0x5 PUSH1 0xB SLOAD LT ISZERO DUP1 ISZERO PUSH2 0x503 JUMPI POP PUSH1 0x1E PUSH1 0xA SLOAD PUSH2 0x4FF SWAP2 SWAP1 PUSH2 0x157C JUMP JUMPDEST TIMESTAMP GT ISZERO JUMPDEST ISZERO PUSH2 0x55E JUMPI PUSH1 0x0 PUSH1 0xB DUP2 SWAP1 SSTORE POP PUSH1 0x0 PUSH1 0xB SLOAD EQ PUSH2 0x523 JUMPI PUSH2 0x522 PUSH2 0x15B0 JUMP JUMPDEST JUMPDEST PUSH1 0x40 MLOAD PUSH32 0x8C379A000000000000000000000000000000000000000000000000000000000 DUP2 MSTORE PUSH1 0x4 ADD PUSH2 0x555 SWAP1 PUSH2 0x162B JUMP JUMPDEST PUSH1 0x40 MLOAD DUP1 SWAP2 SUB SWAP1 REVERT JUMPDEST PUSH1 0x5 PUSH1 0xB SLOAD GT ISZERO DUP1 ISZERO PUSH2 0x57F JUMPI POP PUSH1 0x1E PUSH1 0xA SLOAD PUSH2 0x57B SWAP2 SWAP1 PUSH2 0x157C JUMP JUMPDEST TIMESTAMP LT ISZERO JUMPDEST ISZERO PUSH2 0x5A7 JUMPI PUSH1 0x0 PUSH1 0xB DUP2 SWAP1 SSTORE POP PUSH1 0x0 PUSH1 0xB SLOAD EQ PUSH2 0x59F JUMPI PUSH2 0x59E PUSH2 0x15B0 JUMP JUMPDEST JUMPDEST TIMESTAMP PUSH1 0xA DUP2 SWAP1 SSTORE POP JUMPDEST DUP2 PUSH1 0x5 PUSH1 0x0 PUSH2 0x100 EXP DUP2 SLOAD DUP2 PUSH20 0xFFFFFFFFFFFFFFFFFFFFFFFFFFFFFFFFFFFFFFFF MUL NOT AND SWAP1 DUP4 PUSH20 0xFFFFFFFFFFFFFFFFFFFFFFFFFFFFFFFFFFFFFFFF AND MUL OR SWAP1 SSTORE POP DUP3 PUSH1 0x3 DUP2 SWAP1 SSTORE POP PUSH1 0x1 PUSH1 0xB PUSH1 0x0 DUP3 DUP3 SLOAD PUSH2 0x602 SWAP2 SWAP1 PUSH2 0x157C JUMP JUMPDEST SWAP3 POP POP DUP2 SWAP1 SSTORE POP PUSH1 0x0 PUSH1 0x4 SLOAD GT DUP1 ISZERO PUSH2 0x61E JUMPI POP PUSH1 0x3 SLOAD PUSH1 0x4 SLOAD GT JUMPDEST ISZERO PUSH2 0x6D3 JUMPI PUSH1 0x3 SLOAD PUSH1 0x4 PUSH1 0x0 DUP3 DUP3 SLOAD PUSH2 0x637 SWAP2 SWAP1 PUSH2 0x164B JUMP JUMPDEST SWAP3 POP POP DUP2 SWAP1 SSTORE POP PUSH1 0x3 SLOAD PUSH1 0x9 PUSH1 0x0 DUP3 DUP3 SLOAD PUSH2 0x652 SWAP2 SWAP1 PUSH2 0x157C JUMP JUMPDEST SWAP3 POP POP DUP2 SWAP1 SSTORE POP PUSH2 0x689 CALLER PUSH1 0x5 PUSH1 0x0 SWAP1 SLOAD SWAP1 PUSH2 0x100 EXP SWAP1 DIV PUSH20 0xFFFFFFFFFFFFFFFFFFFFFFFFFFFFFFFFFFFFFFFF AND PUSH1 0x3 SLOAD TIMESTAMP PUSH2 0xC4A JUMP JUMPDEST PUSH1 0x40 MLOAD DUP1 PUSH1 0x40 ADD PUSH1 0x40 MSTORE DUP1 PUSH1 0x12 DUP2 MSTORE PUSH1 0x20 ADD PUSH32 0x5472616E7366657220636F6D706C657465640000000000000000000000000000 DUP2 MSTORE POP PUSH1 0x6 SWAP1 DUP2 PUSH2 0x6CD SWAP2 SWAP1 PUSH2 0x188B JUMP JUMPDEST POP PUSH2 0x70E JUMP JUMPDEST PUSH1 0x40 MLOAD PUSH32 0x8C379A000000000000000000000000000000000000000000000000000000000 DUP2 MSTORE PUSH1 0x4 ADD PUSH2 0x705 SWAP1 PUSH2 0x19A9 JUMP JUMPDEST PUSH1 0x40 MLOAD DUP1 SWAP2 SUB SWAP1 REVERT JUMPDEST POP POP POP JUMP JUMPDEST PUSH1 0xA SLOAD DUP2 JUMP JUMPDEST DUP2 PUSH1 0x7 SWAP1 DUP2 PUSH2 0x728 SWAP2 SWAP1 PUSH2 0x188B JUMP JUMPDEST POP DUP1 PUSH1 0x8 SWAP1 DUP2 PUSH2 0x738 SWAP2 SWAP1 PUSH2 0x188B JUMP JUMPDEST POP PUSH1 0x1 PUSH1 0xC PUSH1 0x0 PUSH2 0x100 EXP DUP2 SLOAD DUP2 PUSH1 0xFF MUL NOT AND SWAP1 DUP4 ISZERO ISZERO MUL OR SWAP1 SSTORE POP TIMESTAMP PUSH1 0xA DUP2 SWAP1 SSTORE POP PUSH1 0x8 PUSH1 0x7 DUP1 SLOAD PUSH2 0x76A SWAP1 PUSH2 0x16AE JUMP JUMPDEST SWAP1 POP EQ DUP1 ISZERO PUSH2 0x787 JUMPI POP PUSH1 0x3 PUSH1 0x8 DUP1 SLOAD PUSH2 0x783 SWAP1 PUSH2 0x16AE JUMP JUMPDEST SWAP1 POP EQ JUMPDEST PUSH2 0x7C6 JUMPI PUSH1 0x40 MLOAD PUSH32 0x8C379A000000000000000000000000000000000000000000000000000000000 DUP2 MSTORE PUSH1 0x4 ADD PUSH2 0x7BD SWAP1 PUSH2 0x1A15 JUMP JUMPDEST PUSH1 0x40 MLOAD DUP1 SWAP2 SUB SWAP1 REVERT JUMPDEST POP POP JUMP JUMPDEST PUSH1 0xC PUSH1 0x0 SWAP1 SLOAD SWAP1 PUSH2 0x100 EXP SWAP1 DIV PUSH1 0xFF AND DUP2 JUMP JUMPDEST PUSH1 0x8 DUP1 SLOAD PUSH2 0x7EA SWAP1 PUSH2 0x16AE JUMP JUMPDEST DUP1 PUSH1 0x1F ADD PUSH1 0x20 DUP1 SWAP2 DIV MUL PUSH1 0x20 ADD PUSH1 0x40 MLOAD SWAP1 DUP2 ADD PUSH1 0x40 MSTORE DUP1 SWAP3 SWAP2 SWAP1 DUP2 DUP2 MSTORE PUSH1 0x20 ADD DUP3 DUP1 SLOAD PUSH2 0x816 SWAP1 PUSH2 0x16AE JUMP JUMPDEST DUP1 ISZERO PUSH2 0x863 JUMPI DUP1 PUSH1 0x1F LT PUSH2 0x838 JUMPI PUSH2 0x100 DUP1 DUP4 SLOAD DIV MUL DUP4 MSTORE SWAP2 PUSH1 0x20 ADD SWAP2 PUSH2 0x863 JUMP JUMPDEST DUP3 ADD SWAP2 SWAP1 PUSH1 0x0 MSTORE PUSH1 0x20 PUSH1 0x0 KECCAK256 SWAP1 JUMPDEST DUP2 SLOAD DUP2 MSTORE SWAP1 PUSH1 0x1 ADD SWAP1 PUSH1 0x20 ADD DUP1 DUP4 GT PUSH2 0x846 JUMPI DUP3 SWAP1 SUB PUSH1 0x1F AND DUP3 ADD SWAP2 JUMPDEST POP POP POP POP POP DUP2 JUMP JUMPDEST PUSH1 0xB SLOAD DUP2 JUMP JUMPDEST PUSH1 0x0 TIMESTAMP SWAP1 POP SWAP1 JUMP JUMPDEST PUSH1 0x1 PUSH1 0x20 MSTORE DUP1 PUSH1 0x0 MSTORE PUSH1 0x40 PUSH1 0x0 KECCAK256 PUSH1 0x0 SWAP2 POP SWAP1 POP DUP1 PUSH1 0x0 ADD PUSH1 0x0 SWAP1 SLOAD SWAP1 PUSH2 0x100 EXP SWAP1 DIV PUSH20 0xFFFFFFFFFFFFFFFFFFFFFFFFFFFFFFFFFFFFFFFF AND SWAP1 DUP1 PUSH1 0x1 ADD PUSH1 0x0 SWAP1 SLOAD SWAP1 PUSH2 0x100 EXP SWAP1 DIV PUSH20 0xFFFFFFFFFFFFFFFFFFFFFFFFFFFFFFFFFFFFFFFF AND SWAP1 DUP1 PUSH1 0x2 ADD SLOAD SWAP1 DUP1 PUSH1 0x3 ADD SLOAD SWAP1 POP DUP5 JUMP JUMPDEST PUSH1 0x60 PUSH1 0x0 DUP1 SLOAD DUP1 PUSH1 0x20 MUL PUSH1 0x20 ADD PUSH1 0x40 MLOAD SWAP1 DUP2 ADD PUSH1 0x40 MSTORE DUP1 SWAP3 SWAP2 SWAP1 DUP2 DUP2 MSTORE PUSH1 0x20 ADD PUSH1 0x0 SWAP1 JUMPDEST DUP3 DUP3 LT ISZERO PUSH2 0x9FF JUMPI DUP4 DUP3 SWAP1 PUSH1 0x0 MSTORE PUSH1 0x20 PUSH1 0x0 KECCAK256 SWAP1 PUSH1 0x4 MUL ADD PUSH1 0x40 MLOAD DUP1 PUSH1 0x80 ADD PUSH1 0x40 MSTORE SWAP1 DUP2 PUSH1 0x0 DUP3 ADD PUSH1 0x0 SWAP1 SLOAD SWAP1 PUSH2 0x100 EXP SWAP1 DIV PUSH20 0xFFFFFFFFFFFFFFFFFFFFFFFFFFFFFFFFFFFFFFFF AND PUSH20 0xFFFFFFFFFFFFFFFFFFFFFFFFFFFFFFFFFFFFFFFF AND PUSH20 0xFFFFFFFFFFFFFFFFFFFFFFFFFFFFFFFFFFFFFFFF AND DUP2 MSTORE PUSH1 0x20 ADD PUSH1 0x1 DUP3 ADD PUSH1 0x0 SWAP1 SLOAD SWAP1 PUSH2 0x100 EXP SWAP1 DIV PUSH20 0xFFFFFFFFFFFFFFFFFFFFFFFFFFFFFFFFFFFFFFFF AND PUSH20 0xFFFFFFFFFFFFFFFFFFFFFFFFFFFFFFFFFFFFFFFF AND PUSH20 0xFFFFFFFFFFFFFFFFFFFFFFFFFFFFFFFFFFFFFFFF AND DUP2 MSTORE PUSH1 0x20 ADD PUSH1 0x2 DUP3 ADD SLOAD DUP2 MSTORE PUSH1 0x20 ADD PUSH1 0x3 DUP3 ADD SLOAD DUP2 MSTORE POP POP DUP2 MSTORE PUSH1 0x20 ADD SWAP1 PUSH1 0x1 ADD SWAP1 PUSH2 0x90D JUMP JUMPDEST POP POP POP POP SWAP1 POP SWAP1 JUMP JUMPDEST PUSH1 0x4 SLOAD DUP2 JUMP JUMPDEST PUSH1 0x9 SLOAD DUP2 JUMP JUMPDEST PUSH1 0x0 PUSH1 0xC PUSH1 0x0 PUSH2 0x100 EXP DUP2 SLOAD DUP2 PUSH1 0xFF MUL NOT AND SWAP1 DUP4 ISZERO ISZERO MUL OR SWAP1 SSTORE POP JUMP JUMPDEST PUSH1 0x7 DUP1 SLOAD PUSH2 0xA3E SWAP1 PUSH2 0x16AE JUMP JUMPDEST DUP1 PUSH1 0x1F ADD PUSH1 0x20 DUP1 SWAP2 DIV MUL PUSH1 0x20 ADD PUSH1 0x40 MLOAD SWAP1 DUP2 ADD PUSH1 0x40 MSTORE DUP1 SWAP3 SWAP2 SWAP1 DUP2 DUP2 MSTORE PUSH1 0x20 ADD DUP3 DUP1 SLOAD PUSH2 0xA6A SWAP1 PUSH2 0x16AE JUMP JUMPDEST DUP1 ISZERO PUSH2 0xAB7 JUMPI DUP1 PUSH1 0x1F LT PUSH2 0xA8C JUMPI PUSH2 0x100 DUP1 DUP4 SLOAD DIV MUL DUP4 MSTORE SWAP2 PUSH1 0x20 ADD SWAP2 PUSH2 0xAB7 JUMP JUMPDEST DUP3 ADD SWAP2 SWAP1 PUSH1 0x0 MSTORE PUSH1 0x20 PUSH1 0x0 KECCAK256 SWAP1 JUMPDEST DUP2 SLOAD DUP2 MSTORE SWAP1 PUSH1 0x1 ADD SWAP1 PUSH1 0x20 ADD DUP1 DUP4 GT PUSH2 0xA9A JUMPI DUP3 SWAP1 SUB PUSH1 0x1F AND DUP3 ADD SWAP2 JUMPDEST POP POP POP POP POP DUP2 JUMP JUMPDEST PUSH1 0x3 SLOAD DUP2 JUMP JUMPDEST PUSH1 0x0 PUSH1 0x2 SLOAD SWAP1 POP SWAP1 JUMP JUMPDEST PUSH1 0x6 DUP1 SLOAD PUSH2 0xADC SWAP1 PUSH2 0x16AE JUMP JUMPDEST DUP1 PUSH1 0x1F ADD PUSH1 0x20 DUP1 SWAP2 DIV MUL PUSH1 0x20 ADD PUSH1 0x40 MLOAD SWAP1 DUP2 ADD PUSH1 0x40 MSTORE DUP1 SWAP3 SWAP2 SWAP1 DUP2 DUP2 MSTORE PUSH1 0x20 ADD DUP3 DUP1 SLOAD PUSH2 0xB08 SWAP1 PUSH2 0x16AE JUMP JUMPDEST DUP1 ISZERO PUSH2 0xB55 JUMPI DUP1 PUSH1 0x1F LT PUSH2 0xB2A JUMPI PUSH2 0x100 DUP1 DUP4 SLOAD DIV MUL DUP4 MSTORE SWAP2 PUSH1 0x20 ADD SWAP2 PUSH2 0xB55 JUMP JUMPDEST DUP3 ADD SWAP2 SWAP1 PUSH1 0x0 MSTORE PUSH1 0x20 PUSH1 0x0 KECCAK256 SWAP1 JUMPDEST DUP2 SLOAD DUP2 MSTORE SWAP1 PUSH1 0x1 ADD SWAP1 PUSH1 0x20 ADD DUP1 DUP4 GT PUSH2 0xB38 JUMPI DUP3 SWAP1 SUB PUSH1 0x1F AND DUP3 ADD SWAP2 JUMPDEST POP POP POP POP POP DUP2 JUMP JUMPDEST PUSH2 0xB65 PUSH2 0xE45 JUMP JUMPDEST PUSH1 0x1 PUSH1 0x0 DUP4 DUP2 MSTORE PUSH1 0x20 ADD SWAP1 DUP2 MSTORE PUSH1 0x20 ADD PUSH1 0x0 KECCAK256 PUSH1 0x40 MLOAD DUP1 PUSH1 0x80 ADD PUSH1 0x40 MSTORE SWAP1 DUP2 PUSH1 0x0 DUP3 ADD PUSH1 0x0 SWAP1 SLOAD SWAP1 PUSH2 0x100 EXP SWAP1 DIV PUSH20 0xFFFFFFFFFFFFFFFFFFFFFFFFFFFFFFFFFFFFFFFF AND PUSH20 0xFFFFFFFFFFFFFFFFFFFFFFFFFFFFFFFFFFFFFFFF AND PUSH20 0xFFFFFFFFFFFFFFFFFFFFFFFFFFFFFFFFFFFFFFFF AND DUP2 MSTORE PUSH1 0x20 ADD PUSH1 0x1 DUP3 ADD PUSH1 0x0 SWAP1 SLOAD SWAP1 PUSH2 0x100 EXP SWAP1 DIV PUSH20 0xFFFFFFFFFFFFFFFFFFFFFFFFFFFFFFFFFFFFFFFF AND PUSH20 0xFFFFFFFFFFFFFFFFFFFFFFFFFFFFFFFFFFFFFFFF AND PUSH20 0xFFFFFFFFFFFFFFFFFFFFFFFFFFFFFFFFFFFFFFFF AND DUP2 MSTORE PUSH1 0x20 ADD PUSH1 0x2 DUP3 ADD SLOAD DUP2 MSTORE PUSH1 0x20 ADD PUSH1 0x3 DUP3 ADD SLOAD DUP2 MSTORE POP POP SWAP1 POP SWAP2 SWAP1 POP JUMP JUMPDEST PUSH1 0x0 PUSH1 0x40 MLOAD DUP1 PUSH1 0x80 ADD PUSH1 0x40 MSTORE DUP1 DUP7 PUSH20 0xFFFFFFFFFFFFFFFFFFFFFFFFFFFFFFFFFFFFFFFF AND DUP2 MSTORE PUSH1 0x20 ADD DUP6 PUSH20 0xFFFFFFFFFFFFFFFFFFFFFFFFFFFFFFFFFFFFFFFF AND DUP2 MSTORE PUSH1 0x20 ADD DUP5 DUP2 MSTORE PUSH1 0x20 ADD DUP4 DUP2 MSTORE POP SWAP1 POP PUSH1 0x0 DUP2 SWAP1 DUP1 PUSH1 0x1 DUP2 SLOAD ADD DUP1 DUP3 SSTORE DUP1 SWAP2 POP POP PUSH1 0x1 SWAP1 SUB SWAP1 PUSH1 0x0 MSTORE PUSH1 0x20 PUSH1 0x0 KECCAK256 SWAP1 PUSH1 0x4 MUL ADD PUSH1 0x0 SWAP1 SWAP2 SWAP1 SWAP2 SWAP1 SWAP2 POP PUSH1 0x0 DUP3 ADD MLOAD DUP2 PUSH1 0x0 ADD PUSH1 0x0 PUSH2 0x100 EXP DUP2 SLOAD DUP2 PUSH20 0xFFFFFFFFFFFFFFFFFFFFFFFFFFFFFFFFFFFFFFFF MUL NOT AND SWAP1 DUP4 PUSH20 0xFFFFFFFFFFFFFFFFFFFFFFFFFFFFFFFFFFFFFFFF AND MUL OR SWAP1 SSTORE POP PUSH1 0x20 DUP3 ADD MLOAD DUP2 PUSH1 0x1 ADD PUSH1 0x0 PUSH2 0x100 EXP DUP2 SLOAD DUP2 PUSH20 0xFFFFFFFFFFFFFFFFFFFFFFFFFFFFFFFFFFFFFFFF MUL NOT AND SWAP1 DUP4 PUSH20 0xFFFFFFFFFFFFFFFFFFFFFFFFFFFFFFFFFFFFFFFF AND MUL OR SWAP1 SSTORE POP PUSH1 0x40 DUP3 ADD MLOAD DUP2 PUSH1 0x2 ADD SSTORE PUSH1 0x60 DUP3 ADD MLOAD DUP2 PUSH1 0x3 ADD SSTORE POP POP DUP1 PUSH1 0x1 PUSH1 0x0 PUSH1 0x2 SLOAD DUP2 MSTORE PUSH1 0x20 ADD SWAP1 DUP2 MSTORE PUSH1 0x20 ADD PUSH1 0x0 KECCAK256 PUSH1 0x0 DUP3 ADD MLOAD DUP2 PUSH1 0x0 ADD PUSH1 0x0 PUSH2 0x100 EXP DUP2 SLOAD DUP2 PUSH20 0xFFFFFFFFFFFFFFFFFFFFFFFFFFFFFFFFFFFFFFFF MUL NOT AND SWAP1 DUP4 PUSH20 0xFFFFFFFFFFFFFFFFFFFFFFFFFFFFFFFFFFFFFFFF AND MUL OR SWAP1 SSTORE POP PUSH1 0x20 DUP3 ADD MLOAD DUP2 PUSH1 0x1 ADD PUSH1 0x0 PUSH2 0x100 EXP DUP2 SLOAD DUP2 PUSH20 0xFFFFFFFFFFFFFFFFFFFFFFFFFFFFFFFFFFFFFFFF MUL NOT AND SWAP1 DUP4 PUSH20 0xFFFFFFFFFFFFFFFFFFFFFFFFFFFFFFFFFFFFFFFF AND MUL OR SWAP1 SSTORE POP PUSH1 0x40 DUP3 ADD MLOAD DUP2 PUSH1 0x2 ADD SSTORE PUSH1 0x60 DUP3 ADD MLOAD DUP2 PUSH1 0x3 ADD SSTORE SWAP1 POP POP PUSH1 0x2 PUSH1 0x0 DUP2 SLOAD DUP1 SWAP3 SWAP2 SWAP1 PUSH2 0xE39 SWAP1 PUSH2 0x1A35 JUMP JUMPDEST SWAP2 SWAP1 POP SSTORE POP POP POP POP POP POP JUMP JUMPDEST PUSH1 0x40 MLOAD DUP1 PUSH1 0x80 ADD PUSH1 0x40 MSTORE DUP1 PUSH1 0x0 PUSH20 0xFFFFFFFFFFFFFFFFFFFFFFFFFFFFFFFFFFFFFFFF AND DUP2 MSTORE PUSH1 0x20 ADD PUSH1 0x0 PUSH20 0xFFFFFFFFFFFFFFFFFFFFFFFFFFFFFFFFFFFFFFFF AND DUP2 MSTORE PUSH1 0x20 ADD PUSH1 0x0 DUP2 MSTORE PUSH1 0x20 ADD PUSH1 0x0 DUP2 MSTORE POP SWAP1 JUMP JUMPDEST PUSH1 0x0 PUSH1 0x40 MLOAD SWAP1 POP SWAP1 JUMP JUMPDEST PUSH1 0x0 DUP1 REVERT JUMPDEST PUSH1 0x0 DUP1 REVERT JUMPDEST PUSH1 0x0 DUP2 SWAP1 POP SWAP2 SWAP1 POP JUMP JUMPDEST PUSH2 0xEC0 DUP2 PUSH2 0xEAD JUMP JUMPDEST DUP2 EQ PUSH2 0xECB JUMPI PUSH1 0x0 DUP1 REVERT JUMPDEST POP JUMP JUMPDEST PUSH1 0x0 DUP2 CALLDATALOAD SWAP1 POP PUSH2 0xEDD DUP2 PUSH2 0xEB7 JUMP JUMPDEST SWAP3 SWAP2 POP POP JUMP JUMPDEST PUSH1 0x0 PUSH1 0x20 DUP3 DUP5 SUB SLT ISZERO PUSH2 0xEF9 JUMPI PUSH2 0xEF8 PUSH2 0xEA3 JUMP JUMPDEST JUMPDEST PUSH1 0x0 PUSH2 0xF07 DUP5 DUP3 DUP6 ADD PUSH2 0xECE JUMP JUMPDEST SWAP2 POP POP SWAP3 SWAP2 POP POP JUMP JUMPDEST PUSH1 0x0 PUSH20 0xFFFFFFFFFFFFFFFFFFFFFFFFFFFFFFFFFFFFFFFF DUP3 AND SWAP1 POP SWAP2 SWAP1 POP JUMP JUMPDEST PUSH1 0x0 PUSH2 0xF3B DUP3 PUSH2 0xF10 JUMP JUMPDEST SWAP1 POP SWAP2 SWAP1 POP JUMP JUMPDEST PUSH2 0xF4B DUP2 PUSH2 0xF30 JUMP JUMPDEST DUP3 MSTORE POP POP JUMP JUMPDEST PUSH2 0xF5A DUP2 PUSH2 0xEAD JUMP JUMPDEST DUP3 MSTORE POP POP JUMP JUMPDEST PUSH1 0x0 PUSH1 0x80 DUP3 ADD SWAP1 POP PUSH2 0xF75 PUSH1 0x0 DUP4 ADD DUP8 PUSH2 0xF42 JUMP JUMPDEST PUSH2 0xF82 PUSH1 0x20 DUP4 ADD DUP7 PUSH2 0xF42 JUMP JUMPDEST PUSH2 0xF8F PUSH1 0x40 DUP4 ADD DUP6 PUSH2 0xF51 JUMP JUMPDEST PUSH2 0xF9C PUSH1 0x60 DUP4 ADD DUP5 PUSH2 0xF51 JUMP JUMPDEST SWAP6 SWAP5 POP POP POP POP POP JUMP JUMPDEST PUSH2 0xFAE DUP2 PUSH2 0xF30 JUMP JUMPDEST DUP2 EQ PUSH2 0xFB9 JUMPI PUSH1 0x0 DUP1 REVERT JUMPDEST POP JUMP JUMPDEST PUSH1 0x0 DUP2 CALLDATALOAD SWAP1 POP PUSH2 0xFCB DUP2 PUSH2 0xFA5 JUMP JUMPDEST SWAP3 SWAP2 POP POP JUMP JUMPDEST PUSH1 0x0 DUP1 PUSH1 0x40 DUP4 DUP6 SUB SLT ISZERO PUSH2 0xFE8 JUMPI PUSH2 0xFE7 PUSH2 0xEA3 JUMP JUMPDEST JUMPDEST PUSH1 0x0 PUSH2 0xFF6 DUP6 DUP3 DUP7 ADD PUSH2 0xECE JUMP JUMPDEST SWAP3 POP POP PUSH1 0x20 PUSH2 0x1007 DUP6 DUP3 DUP7 ADD PUSH2 0xFBC JUMP JUMPDEST SWAP2 POP POP SWAP3 POP SWAP3 SWAP1 POP JUMP JUMPDEST PUSH1 0x0 PUSH1 0x20 DUP3 ADD SWAP1 POP PUSH2 0x1026 PUSH1 0x0 DUP4 ADD DUP5 PUSH2 0xF51 JUMP JUMPDEST SWAP3 SWAP2 POP POP JUMP JUMPDEST PUSH1 0x0 DUP1 REVERT JUMPDEST PUSH1 0x0 DUP1 REVERT JUMPDEST PUSH1 0x0 PUSH1 0x1F NOT PUSH1 0x1F DUP4 ADD AND SWAP1 POP SWAP2 SWAP1 POP JUMP JUMPDEST PUSH32 0x4E487B7100000000000000000000000000000000000000000000000000000000 PUSH1 0x0 MSTORE PUSH1 0x41 PUSH1 0x4 MSTORE PUSH1 0x24 PUSH1 0x0 REVERT JUMPDEST PUSH2 0x107F DUP3 PUSH2 0x1036 JUMP JUMPDEST DUP2 ADD DUP2 DUP2 LT PUSH8 0xFFFFFFFFFFFFFFFF DUP3 GT OR ISZERO PUSH2 0x109E JUMPI PUSH2 0x109D PUSH2 0x1047 JUMP JUMPDEST JUMPDEST DUP1 PUSH1 0x40 MSTORE POP POP POP JUMP JUMPDEST PUSH1 0x0 PUSH2 0x10B1 PUSH2 0xE99 JUMP JUMPDEST SWAP1 POP PUSH2 0x10BD DUP3 DUP3 PUSH2 0x1076 JUMP JUMPDEST SWAP2 SWAP1 POP JUMP JUMPDEST PUSH1 0x0 PUSH8 0xFFFFFFFFFFFFFFFF DUP3 GT ISZERO PUSH2 0x10DD JUMPI PUSH2 0x10DC PUSH2 0x1047 JUMP JUMPDEST JUMPDEST PUSH2 0x10E6 DUP3 PUSH2 0x1036 JUMP JUMPDEST SWAP1 POP PUSH1 0x20 DUP2 ADD SWAP1 POP SWAP2 SWAP1 POP JUMP JUMPDEST DUP3 DUP2 DUP4 CALLDATACOPY PUSH1 0x0 DUP4 DUP4 ADD MSTORE POP POP POP JUMP JUMPDEST PUSH1 0x0 PUSH2 0x1115 PUSH2 0x1110 DUP5 PUSH2 0x10C2 JUMP JUMPDEST PUSH2 0x10A7 JUMP JUMPDEST SWAP1 POP DUP3 DUP2 MSTORE PUSH1 0x20 DUP2 ADD DUP5 DUP5 DUP5 ADD GT ISZERO PUSH2 0x1131 JUMPI PUSH2 0x1130 PUSH2 0x1031 JUMP JUMPDEST JUMPDEST PUSH2 0x113C DUP5 DUP3 DUP6 PUSH2 0x10F3 JUMP JUMPDEST POP SWAP4 SWAP3 POP POP POP JUMP JUMPDEST PUSH1 0x0 DUP3 PUSH1 0x1F DUP4 ADD SLT PUSH2 0x1159 JUMPI PUSH2 0x1158 PUSH2 0x102C JUMP JUMPDEST JUMPDEST DUP2 CALLDATALOAD PUSH2 0x1169 DUP5 DUP3 PUSH1 0x20 DUP7 ADD PUSH2 0x1102 JUMP JUMPDEST SWAP2 POP POP SWAP3 SWAP2 POP POP JUMP JUMPDEST PUSH1 0x0 DUP1 PUSH1 0x40 DUP4 DUP6 SUB SLT ISZERO PUSH2 0x1189 JUMPI PUSH2 0x1188 PUSH2 0xEA3 JUMP JUMPDEST JUMPDEST PUSH1 0x0 DUP4 ADD CALLDATALOAD PUSH8 0xFFFFFFFFFFFFFFFF DUP2 GT ISZERO PUSH2 0x11A7 JUMPI PUSH2 0x11A6 PUSH2 0xEA8 JUMP JUMPDEST JUMPDEST PUSH2 0x11B3 DUP6 DUP3 DUP7 ADD PUSH2 0x1144 JUMP JUMPDEST SWAP3 POP POP PUSH1 0x20 DUP4 ADD CALLDATALOAD PUSH8 0xFFFFFFFFFFFFFFFF DUP2 GT ISZERO PUSH2 0x11D4 JUMPI PUSH2 0x11D3 PUSH2 0xEA8 JUMP JUMPDEST JUMPDEST PUSH2 0x11E0 DUP6 DUP3 DUP7 ADD PUSH2 0x1144 JUMP JUMPDEST SWAP2 POP POP SWAP3 POP SWAP3 SWAP1 POP JUMP JUMPDEST PUSH1 0x0 DUP2 ISZERO ISZERO SWAP1 POP SWAP2 SWAP1 POP JUMP JUMPDEST PUSH2 0x11FF DUP2 PUSH2 0x11EA JUMP JUMPDEST DUP3 MSTORE POP POP JUMP JUMPDEST PUSH1 0x0 PUSH1 0x20 DUP3 ADD SWAP1 POP PUSH2 0x121A PUSH1 0x0 DUP4 ADD DUP5 PUSH2 0x11F6 JUMP JUMPDEST SWAP3 SWAP2 POP POP JUMP JUMPDEST PUSH1 0x0 DUP2 MLOAD SWAP1 POP SWAP2 SWAP1 POP JUMP JUMPDEST PUSH1 0x0 DUP3 DUP3 MSTORE PUSH1 0x20 DUP3 ADD SWAP1 POP SWAP3 SWAP2 POP POP JUMP JUMPDEST PUSH1 0x0 JUMPDEST DUP4 DUP2 LT ISZERO PUSH2 0x125A JUMPI DUP1 DUP3 ADD MLOAD DUP2 DUP5 ADD MSTORE PUSH1 0x20 DUP2 ADD SWAP1 POP PUSH2 0x123F JUMP JUMPDEST PUSH1 0x0 DUP5 DUP5 ADD MSTORE POP POP POP POP JUMP JUMPDEST PUSH1 0x0 PUSH2 0x1271 DUP3 PUSH2 0x1220 JUMP JUMPDEST PUSH2 0x127B DUP2 DUP6 PUSH2 0x122B JUMP JUMPDEST SWAP4 POP PUSH2 0x128B DUP2 DUP6 PUSH1 0x20 DUP7 ADD PUSH2 0x123C JUMP JUMPDEST PUSH2 0x1294 DUP2 PUSH2 0x1036 JUMP JUMPDEST DUP5 ADD SWAP2 POP POP SWAP3 SWAP2 POP POP JUMP JUMPDEST PUSH1 0x0 PUSH1 0x20 DUP3 ADD SWAP1 POP DUP2 DUP2 SUB PUSH1 0x0 DUP4 ADD MSTORE PUSH2 0x12B9 DUP2 DUP5 PUSH2 0x1266 JUMP JUMPDEST SWAP1 POP SWAP3 SWAP2 POP POP JUMP JUMPDEST PUSH1 0x0 DUP2 MLOAD SWAP1 POP SWAP2 SWAP1 POP JUMP JUMPDEST PUSH1 0x0 DUP3 DUP3 MSTORE PUSH1 0x20 DUP3 ADD SWAP1 POP SWAP3 SWAP2 POP POP JUMP JUMPDEST PUSH1 0x0 DUP2 SWAP1 POP PUSH1 0x20 DUP3 ADD SWAP1 POP SWAP2 SWAP1 POP JUMP JUMPDEST PUSH2 0x12F6 DUP2 PUSH2 0xF30 JUMP JUMPDEST DUP3 MSTORE POP POP JUMP JUMPDEST PUSH2 0x1305 DUP2 PUSH2 0xEAD JUMP JUMPDEST DUP3 MSTORE POP POP JUMP JUMPDEST PUSH1 0x80 DUP3 ADD PUSH1 0x0 DUP3 ADD MLOAD PUSH2 0x1321 PUSH1 0x0 DUP6 ADD DUP3 PUSH2 0x12ED JUMP JUMPDEST POP PUSH1 0x20 DUP3 ADD MLOAD PUSH2 0x1334 PUSH1 0x20 DUP6 ADD DUP3 PUSH2 0x12ED JUMP JUMPDEST POP PUSH1 0x40 DUP3 ADD MLOAD PUSH2 0x1347 PUSH1 0x40 DUP6 ADD DUP3 PUSH2 0x12FC JUMP JUMPDEST POP PUSH1 0x60 DUP3 ADD MLOAD PUSH2 0x135A PUSH1 0x60 DUP6 ADD DUP3 PUSH2 0x12FC JUMP JUMPDEST POP POP POP POP JUMP JUMPDEST PUSH1 0x0 PUSH2 0x136C DUP4 DUP4 PUSH2 0x130B JUMP JUMPDEST PUSH1 0x80 DUP4 ADD SWAP1 POP SWAP3 SWAP2 POP POP JUMP JUMPDEST PUSH1 0x0 PUSH1 0x20 DUP3 ADD SWAP1 POP SWAP2 SWAP1 POP JUMP JUMPDEST PUSH1 0x0 PUSH2 0x1390 DUP3 PUSH2 0x12C1 JUMP JUMPDEST PUSH2 0x139A DUP2 DUP6 PUSH2 0x12CC JUMP JUMPDEST SWAP4 POP PUSH2 0x13A5 DUP4 PUSH2 0x12DD JUMP JUMPDEST DUP1 PUSH1 0x0 JUMPDEST DUP4 DUP2 LT ISZERO PUSH2 0x13D6 JUMPI DUP2 MLOAD PUSH2 0x13BD DUP9 DUP3 PUSH2 0x1360 JUMP JUMPDEST SWAP8 POP PUSH2 0x13C8 DUP4 PUSH2 0x1378 JUMP JUMPDEST SWAP3 POP POP PUSH1 0x1 DUP2 ADD SWAP1 POP PUSH2 0x13A9 JUMP JUMPDEST POP DUP6 SWAP4 POP POP POP POP SWAP3 SWAP2 POP POP JUMP JUMPDEST PUSH1 0x0 PUSH1 0x20 DUP3 ADD SWAP1 POP DUP2 DUP2 SUB PUSH1 0x0 DUP4 ADD MSTORE PUSH2 0x13FD DUP2 DUP5 PUSH2 0x1385 JUMP JUMPDEST SWAP1 POP SWAP3 SWAP2 POP POP JUMP JUMPDEST PUSH1 0x80 DUP3 ADD PUSH1 0x0 DUP3 ADD MLOAD PUSH2 0x141B PUSH1 0x0 DUP6 ADD DUP3 PUSH2 0x12ED JUMP JUMPDEST POP PUSH1 0x20 DUP3 ADD MLOAD PUSH2 0x142E PUSH1 0x20 DUP6 ADD DUP3 PUSH2 0x12ED JUMP JUMPDEST POP PUSH1 0x40 DUP3 ADD MLOAD PUSH2 0x1441 PUSH1 0x40 DUP6 ADD DUP3 PUSH2 0x12FC JUMP JUMPDEST POP PUSH1 0x60 DUP3 ADD MLOAD PUSH2 0x1454 PUSH1 0x60 DUP6 ADD DUP3 PUSH2 0x12FC JUMP JUMPDEST POP POP POP POP JUMP JUMPDEST PUSH1 0x0 PUSH1 0x80 DUP3 ADD SWAP1 POP PUSH2 0x146F PUSH1 0x0 DUP4 ADD DUP5 PUSH2 0x1405 JUMP JUMPDEST SWAP3 SWAP2 POP POP JUMP JUMPDEST PUSH32 0x2054686973206164647265737320646F65736E27742065786973747300000000 PUSH1 0x0 DUP3 ADD MSTORE POP JUMP JUMPDEST PUSH1 0x0 PUSH2 0x14AB PUSH1 0x1C DUP4 PUSH2 0x122B JUMP JUMPDEST SWAP2 POP PUSH2 0x14B6 DUP3 PUSH2 0x1475 JUMP JUMPDEST PUSH1 0x20 DUP3 ADD SWAP1 POP SWAP2 SWAP1 POP JUMP JUMPDEST PUSH1 0x0 PUSH1 0x20 DUP3 ADD SWAP1 POP DUP2 DUP2 SUB PUSH1 0x0 DUP4 ADD MSTORE PUSH2 0x14DA DUP2 PUSH2 0x149E JUMP JUMPDEST SWAP1 POP SWAP2 SWAP1 POP JUMP JUMPDEST PUSH32 0x506C6561736520696E7365727420796F75722063617264000000000000000000 PUSH1 0x0 DUP3 ADD MSTORE POP JUMP JUMPDEST PUSH1 0x0 PUSH2 0x1517 PUSH1 0x17 DUP4 PUSH2 0x122B JUMP JUMPDEST SWAP2 POP PUSH2 0x1522 DUP3 PUSH2 0x14E1 JUMP JUMPDEST PUSH1 0x20 DUP3 ADD SWAP1 POP SWAP2 SWAP1 POP JUMP JUMPDEST PUSH1 0x0 PUSH1 0x20 DUP3 ADD SWAP1 POP DUP2 DUP2 SUB PUSH1 0x0 DUP4 ADD MSTORE PUSH2 0x1546 DUP2 PUSH2 0x150A JUMP JUMPDEST SWAP1 POP SWAP2 SWAP1 POP JUMP JUMPDEST PUSH32 0x4E487B7100000000000000000000000000000000000000000000000000000000 PUSH1 0x0 MSTORE PUSH1 0x11 PUSH1 0x4 MSTORE PUSH1 0x24 PUSH1 0x0 REVERT JUMPDEST PUSH1 0x0 PUSH2 0x1587 DUP3 PUSH2 0xEAD JUMP JUMPDEST SWAP2 POP PUSH2 0x1592 DUP4 PUSH2 0xEAD JUMP JUMPDEST SWAP3 POP DUP3 DUP3 ADD SWAP1 POP DUP1 DUP3 GT ISZERO PUSH2 0x15AA JUMPI PUSH2 0x15A9 PUSH2 0x154D JUMP JUMPDEST JUMPDEST SWAP3 SWAP2 POP POP JUMP JUMPDEST PUSH32 0x4E487B7100000000000000000000000000000000000000000000000000000000 PUSH1 0x0 MSTORE PUSH1 0x1 PUSH1 0x4 MSTORE PUSH1 0x24 PUSH1 0x0 REVERT JUMPDEST PUSH32 0x6F6E6C792035207472616E73616374696F6E7320706572206461790000000000 PUSH1 0x0 DUP3 ADD MSTORE POP JUMP JUMPDEST PUSH1 0x0 PUSH2 0x1615 PUSH1 0x1B DUP4 PUSH2 0x122B JUMP JUMPDEST SWAP2 POP PUSH2 0x1620 DUP3 PUSH2 0x15DF JUMP JUMPDEST PUSH1 0x20 DUP3 ADD SWAP1 POP SWAP2 SWAP1 POP JUMP JUMPDEST PUSH1 0x0 PUSH1 0x20 DUP3 ADD SWAP1 POP DUP2 DUP2 SUB PUSH1 0x0 DUP4 ADD MSTORE PUSH2 0x1644 DUP2 PUSH2 0x1608 JUMP JUMPDEST SWAP1 POP SWAP2 SWAP1 POP JUMP JUMPDEST PUSH1 0x0 PUSH2 0x1656 DUP3 PUSH2 0xEAD JUMP JUMPDEST SWAP2 POP PUSH2 0x1661 DUP4 PUSH2 0xEAD JUMP JUMPDEST SWAP3 POP DUP3 DUP3 SUB SWAP1 POP DUP2 DUP2 GT ISZERO PUSH2 0x1679 JUMPI PUSH2 0x1678 PUSH2 0x154D JUMP JUMPDEST JUMPDEST SWAP3 SWAP2 POP POP JUMP JUMPDEST PUSH32 0x4E487B7100000000000000000000000000000000000000000000000000000000 PUSH1 0x0 MSTORE PUSH1 0x22 PUSH1 0x4 MSTORE PUSH1 0x24 PUSH1 0x0 REVERT JUMPDEST PUSH1 0x0 PUSH1 0x2 DUP3 DIV SWAP1 POP PUSH1 0x1 DUP3 AND DUP1 PUSH2 0x16C6 JUMPI PUSH1 0x7F DUP3 AND SWAP2 POP JUMPDEST PUSH1 0x20 DUP3 LT DUP2 SUB PUSH2 0x16D9 JUMPI PUSH2 0x16D8 PUSH2 0x167F JUMP JUMPDEST JUMPDEST POP SWAP2 SWAP1 POP JUMP JUMPDEST PUSH1 0x0 DUP2 SWAP1 POP DUP2 PUSH1 0x0 MSTORE PUSH1 0x20 PUSH1 0x0 KECCAK256 SWAP1 POP SWAP2 SWAP1 POP JUMP JUMPDEST PUSH1 0x0 PUSH1 0x20 PUSH1 0x1F DUP4 ADD DIV SWAP1 POP SWAP2 SWAP1 POP JUMP JUMPDEST PUSH1 0x0 DUP3 DUP3 SHL SWAP1 POP SWAP3 SWAP2 POP POP JUMP JUMPDEST PUSH1 0x0 PUSH1 0x8 DUP4 MUL PUSH2 0x1741 PUSH32 0xFFFFFFFFFFFFFFFFFFFFFFFFFFFFFFFFFFFFFFFFFFFFFFFFFFFFFFFFFFFFFFFF DUP3 PUSH2 0x1704 JUMP JUMPDEST PUSH2 0x174B DUP7 DUP4 PUSH2 0x1704 JUMP JUMPDEST SWAP6 POP DUP1 NOT DUP5 AND SWAP4 POP DUP1 DUP7 AND DUP5 OR SWAP3 POP POP POP SWAP4 SWAP3 POP POP POP JUMP JUMPDEST PUSH1 0x0 DUP2 SWAP1 POP SWAP2 SWAP1 POP JUMP JUMPDEST PUSH1 0x0 PUSH2 0x1788 PUSH2 0x1783 PUSH2 0x177E DUP5 PUSH2 0xEAD JUMP JUMPDEST PUSH2 0x1763 JUMP JUMPDEST PUSH2 0xEAD JUMP JUMPDEST SWAP1 POP SWAP2 SWAP1 POP JUMP JUMPDEST PUSH1 0x0 DUP2 SWAP1 POP SWAP2 SWAP1 POP JUMP JUMPDEST PUSH2 0x17A2 DUP4 PUSH2 0x176D JUMP JUMPDEST PUSH2 0x17B6 PUSH2 0x17AE DUP3 PUSH2 0x178F JUMP JUMPDEST DUP5 DUP5 SLOAD PUSH2 0x1711 JUMP JUMPDEST DUP3 SSTORE POP POP POP POP JUMP JUMPDEST PUSH1 0x0 SWAP1 JUMP JUMPDEST PUSH2 0x17CB PUSH2 0x17BE JUMP JUMPDEST PUSH2 0x17D6 DUP2 DUP5 DUP5 PUSH2 0x1799 JUMP JUMPDEST POP POP POP JUMP JUMPDEST JUMPDEST DUP2 DUP2 LT ISZERO PUSH2 0x17FA JUMPI PUSH2 0x17EF PUSH1 0x0 DUP3 PUSH2 0x17C3 JUMP JUMPDEST PUSH1 0x1 DUP2 ADD SWAP1 POP PUSH2 0x17DC JUMP JUMPDEST POP POP JUMP JUMPDEST PUSH1 0x1F DUP3 GT ISZERO PUSH2 0x183F JUMPI PUSH2 0x1810 DUP2 PUSH2 0x16DF JUMP JUMPDEST PUSH2 0x1819 DUP5 PUSH2 0x16F4 JUMP JUMPDEST DUP2 ADD PUSH1 0x20 DUP6 LT ISZERO PUSH2 0x1828 JUMPI DUP2 SWAP1 POP JUMPDEST PUSH2 0x183C PUSH2 0x1834 DUP6 PUSH2 0x16F4 JUMP JUMPDEST DUP4 ADD DUP3 PUSH2 0x17DB JUMP JUMPDEST POP POP JUMPDEST POP POP POP JUMP JUMPDEST PUSH1 0x0 DUP3 DUP3 SHR SWAP1 POP SWAP3 SWAP2 POP POP JUMP JUMPDEST PUSH1 0x0 PUSH2 0x1862 PUSH1 0x0 NOT DUP5 PUSH1 0x8 MUL PUSH2 0x1844 JUMP JUMPDEST NOT DUP1 DUP4 AND SWAP2 POP POP SWAP3 SWAP2 POP POP JUMP JUMPDEST PUSH1 0x0 PUSH2 0x187B DUP4 DUP4 PUSH2 0x1851 JUMP JUMPDEST SWAP2 POP DUP3 PUSH1 0x2 MUL DUP3 OR SWAP1 POP SWAP3 SWAP2 POP POP JUMP JUMPDEST PUSH2 0x1894 DUP3 PUSH2 0x1220 JUMP JUMPDEST PUSH8 0xFFFFFFFFFFFFFFFF DUP2 GT ISZERO PUSH2 0x18AD JUMPI PUSH2 0x18AC PUSH2 0x1047 JUMP JUMPDEST JUMPDEST PUSH2 0x18B7 DUP3 SLOAD PUSH2 0x16AE JUMP JUMPDEST PUSH2 0x18C2 DUP3 DUP3 DUP6 PUSH2 0x17FE JUMP JUMPDEST PUSH1 0x0 PUSH1 0x20 SWAP1 POP PUSH1 0x1F DUP4 GT PUSH1 0x1 DUP2 EQ PUSH2 0x18F5 JUMPI PUSH1 0x0 DUP5 ISZERO PUSH2 0x18E3 JUMPI DUP3 DUP8 ADD MLOAD SWAP1 POP JUMPDEST PUSH2 0x18ED DUP6 DUP3 PUSH2 0x186F JUMP JUMPDEST DUP7 SSTORE POP PUSH2 0x1955 JUMP JUMPDEST PUSH1 0x1F NOT DUP5 AND PUSH2 0x1903 DUP7 PUSH2 0x16DF JUMP JUMPDEST PUSH1 0x0 JUMPDEST DUP3 DUP2 LT ISZERO PUSH2 0x192B JUMPI DUP5 DUP10 ADD MLOAD DUP3 SSTORE PUSH1 0x1 DUP3 ADD SWAP2 POP PUSH1 0x20 DUP6 ADD SWAP5 POP PUSH1 0x20 DUP2 ADD SWAP1 POP PUSH2 0x1906 JUMP JUMPDEST DUP7 DUP4 LT ISZERO PUSH2 0x1948 JUMPI DUP5 DUP10 ADD MLOAD PUSH2 0x1944 PUSH1 0x1F DUP10 AND DUP3 PUSH2 0x1851 JUMP JUMPDEST DUP4 SSTORE POP JUMPDEST PUSH1 0x1 PUSH1 0x2 DUP9 MUL ADD DUP9 SSTORE POP POP POP JUMPDEST POP POP POP POP POP POP JUMP JUMPDEST PUSH32 0x4E6F7420656E6F7567682066756E647300000000000000000000000000000000 PUSH1 0x0 DUP3 ADD MSTORE POP JUMP JUMPDEST PUSH1 0x0 PUSH2 0x1993 PUSH1 0x10 DUP4 PUSH2 0x122B JUMP JUMPDEST SWAP2 POP PUSH2 0x199E DUP3 PUSH2 0x195D JUMP JUMPDEST PUSH1 0x20 DUP3 ADD SWAP1 POP SWAP2 SWAP1 POP JUMP JUMPDEST PUSH1 0x0 PUSH1 0x20 DUP3 ADD SWAP1 POP DUP2 DUP2 SUB PUSH1 0x0 DUP4 ADD MSTORE PUSH2 0x19C2 DUP2 PUSH2 0x1986 JUMP JUMPDEST SWAP1 POP SWAP2 SWAP1 POP JUMP JUMPDEST PUSH32 0x4E6F2076616C6964206372656469742063617264000000000000000000000000 PUSH1 0x0 DUP3 ADD MSTORE POP JUMP JUMPDEST PUSH1 0x0 PUSH2 0x19FF PUSH1 0x14 DUP4 PUSH2 0x122B JUMP JUMPDEST SWAP2 POP PUSH2 0x1A0A DUP3 PUSH2 0x19C9 JUMP JUMPDEST PUSH1 0x20 DUP3 ADD SWAP1 POP SWAP2 SWAP1 POP JUMP JUMPDEST PUSH1 0x0 PUSH1 0x20 DUP3 ADD SWAP1 POP DUP2 DUP2 SUB PUSH1 0x0 DUP4 ADD MSTORE PUSH2 0x1A2E DUP2 PUSH2 0x19F2 JUMP JUMPDEST SWAP1 POP SWAP2 SWAP1 POP JUMP JUMPDEST PUSH1 0x0 PUSH2 0x1A40 DUP3 PUSH2 0xEAD JUMP JUMPDEST SWAP2 POP PUSH32 0xFFFFFFFFFFFFFFFFFFFFFFFFFFFFFFFFFFFFFFFFFFFFFFFFFFFFFFFFFFFFFFFF DUP3 SUB PUSH2 0x1A72 JUMPI PUSH2 0x1A71 PUSH2 0x154D JUMP JUMPDEST JUMPDEST PUSH1 0x1 DUP3 ADD SWAP1 POP SWAP2 SWAP1 POP JUMP INVALID LOG2 PUSH5 0x6970667358 0x22 SLT KECCAK256 CREATE 0xEA PUSH5 0x151BC376 PUSH13 0xE60C9CDB30EFC2F80A7481CDD7 0xD5 0xB7 0x4B ISZERO KECCAK256 0xC2 PUSH32 0xF4A09664736F6C63430008100033000000000000000000000000000000000000 "
				},
				"gasEstimates": {
					"creation": {
						"codeDepositCost": "1367000",
						"executionCost": "infinite",
						"totalCost": "infinite"
					},
					"external": {
						"TotalAmount()": "2496",
						"TotalFunds()": "2474",
						"amount()": "2473",
						"callCount()": "2496",
						"callPutCard()": "2494",
						"cardNumber()": "infinite",
						"cvv()": "infinite",
						"firstTransferTime()": "2497",
						"getOutCard()": "24500",
						"getTime()": "425",
						"getTransaction()": "infinite",
						"getTransactionById(uint256)": "infinite",
						"getTransactionPerWeek()": "2503",
						"message()": "infinite",
						"sendMoney(uint256,address)": "infinite",
						"setCard(string,string)": "infinite",
						"transactionList(uint256)": "infinite",
						"trn(uint256)": "infinite"
					}
				},
				"methodIdentifiers": {
					"TotalAmount()": "7eb9f571",
					"TotalFunds()": "7b9a3f4c",
					"amount()": "aa8c217c",
					"callCount()": "4b28f9a2",
					"callPutCard()": "3c626f00",
					"cardNumber()": "8fa11864",
					"cvv()": "42fb7936",
					"firstTransferTime()": "0e85fa72",
					"getOutCard()": "8e029c0b",
					"getTime()": "557ed1ba",
					"getTransaction()": "59705f81",
					"getTransactionById(uint256)": "f4b30eaf",
					"getTransactionPerWeek()": "b28273c2",
					"message()": "e21f37ce",
					"sendMoney(uint256,address)": "062a7544",
					"setCard(string,string)": "12a029a4",
					"transactionList(uint256)": "04ef5b21",
					"trn(uint256)": "57bf72e3"
				}
			},
			"storageLayout": {
				"storage": [
					{
						"astId": 271,
						"contract": "Dapp/MoneyTransfer.sol:MoneyTransfer",
						"label": "transactionList",
						"offset": 0,
						"slot": "0",
						"type": "t_array(t_struct(Transactions)267_storage)dyn_storage"
					},
					{
						"astId": 276,
						"contract": "Dapp/MoneyTransfer.sol:MoneyTransfer",
						"label": "trn",
						"offset": 0,
						"slot": "1",
						"type": "t_mapping(t_uint256,t_struct(Transactions)267_storage)"
					},
					{
						"astId": 279,
						"contract": "Dapp/MoneyTransfer.sol:MoneyTransfer",
						"label": "counter",
						"offset": 0,
						"slot": "2",
						"type": "t_uint256"
					},
					{
						"astId": 6,
						"contract": "Dapp/MoneyTransfer.sol:MoneyTransfer",
						"label": "amount",
						"offset": 0,
						"slot": "3",
						"type": "t_uint256"
					},
					{
						"astId": 8,
						"contract": "Dapp/MoneyTransfer.sol:MoneyTransfer",
						"label": "TotalFunds",
						"offset": 0,
						"slot": "4",
						"type": "t_uint256"
					},
					{
						"astId": 10,
						"contract": "Dapp/MoneyTransfer.sol:MoneyTransfer",
						"label": "receiver",
						"offset": 0,
						"slot": "5",
						"type": "t_address"
					},
					{
						"astId": 12,
						"contract": "Dapp/MoneyTransfer.sol:MoneyTransfer",
						"label": "message",
						"offset": 0,
						"slot": "6",
						"type": "t_string_storage"
					},
					{
						"astId": 14,
						"contract": "Dapp/MoneyTransfer.sol:MoneyTransfer",
						"label": "cardNumber",
						"offset": 0,
						"slot": "7",
						"type": "t_string_storage"
					},
					{
						"astId": 16,
						"contract": "Dapp/MoneyTransfer.sol:MoneyTransfer",
						"label": "cvv",
						"offset": 0,
						"slot": "8",
						"type": "t_string_storage"
					},
					{
						"astId": 18,
						"contract": "Dapp/MoneyTransfer.sol:MoneyTransfer",
						"label": "TotalAmount",
						"offset": 0,
						"slot": "9",
						"type": "t_uint256"
					},
					{
						"astId": 20,
						"contract": "Dapp/MoneyTransfer.sol:MoneyTransfer",
						"label": "firstTransferTime",
						"offset": 0,
						"slot": "10",
						"type": "t_uint256"
					},
					{
						"astId": 33,
						"contract": "Dapp/MoneyTransfer.sol:MoneyTransfer",
						"label": "callCount",
						"offset": 0,
						"slot": "11",
						"type": "t_uint256"
					},
					{
						"astId": 36,
						"contract": "Dapp/MoneyTransfer.sol:MoneyTransfer",
						"label": "callPutCard",
						"offset": 0,
						"slot": "12",
						"type": "t_bool"
					}
				],
				"types": {
					"t_address": {
						"encoding": "inplace",
						"label": "address",
						"numberOfBytes": "20"
					},
					"t_array(t_struct(Transactions)267_storage)dyn_storage": {
						"base": "t_struct(Transactions)267_storage",
						"encoding": "dynamic_array",
						"label": "struct Transaction.Transactions[]",
						"numberOfBytes": "32"
					},
					"t_bool": {
						"encoding": "inplace",
						"label": "bool",
						"numberOfBytes": "1"
					},
					"t_mapping(t_uint256,t_struct(Transactions)267_storage)": {
						"encoding": "mapping",
						"key": "t_uint256",
						"label": "mapping(uint256 => struct Transaction.Transactions)",
						"numberOfBytes": "32",
						"value": "t_struct(Transactions)267_storage"
					},
					"t_string_storage": {
						"encoding": "bytes",
						"label": "string",
						"numberOfBytes": "32"
					},
					"t_struct(Transactions)267_storage": {
						"encoding": "inplace",
						"label": "struct Transaction.Transactions",
						"members": [
							{
								"astId": 260,
								"contract": "Dapp/MoneyTransfer.sol:MoneyTransfer",
								"label": "address_from",
								"offset": 0,
								"slot": "0",
								"type": "t_address"
							},
							{
								"astId": 262,
								"contract": "Dapp/MoneyTransfer.sol:MoneyTransfer",
								"label": "address_to",
								"offset": 0,
								"slot": "1",
								"type": "t_address"
							},
							{
								"astId": 264,
								"contract": "Dapp/MoneyTransfer.sol:MoneyTransfer",
								"label": "amount",
								"offset": 0,
								"slot": "2",
								"type": "t_uint256"
							},
							{
								"astId": 266,
								"contract": "Dapp/MoneyTransfer.sol:MoneyTransfer",
								"label": "timestamp",
								"offset": 0,
								"slot": "3",
								"type": "t_uint256"
							}
						],
						"numberOfBytes": "128"
					},
					"t_uint256": {
						"encoding": "inplace",
						"label": "uint256",
						"numberOfBytes": "32"
					}
				}
			},
			"userdoc": {
				"kind": "user",
				"methods": {},
				"version": 1
			}
		}
	}
}