{
	"Dapp/MoneyTransfer.sol": {
		"MoneyTransfer": {
			"abi": [
				{
					"inputs": [
						{
							"internalType": "uint256",
							"name": "_totalFunds",
							"type": "uint256"
						}
					],
					"stateMutability": "nonpayable",
					"type": "constructor"
				},
				{
					"inputs": [],
					"name": "TotalAmount",
					"outputs": [
						{
							"internalType": "uint256",
							"name": "",
							"type": "uint256"
						}
					],
					"stateMutability": "view",
					"type": "function"
				},
				{
					"inputs": [],
					"name": "TotalFunds",
					"outputs": [
						{
							"internalType": "uint256",
							"name": "",
							"type": "uint256"
						}
					],
					"stateMutability": "view",
					"type": "function"
				},
				{
					"inputs": [
						{
							"internalType": "address",
							"name": "_address_from",
							"type": "address"
						},
						{
							"internalType": "address",
							"name": "_address_to",
							"type": "address"
						},
						{
							"internalType": "uint256",
							"name": "_amount",
							"type": "uint256"
						},
						{
							"internalType": "uint256",
							"name": "_timestamp",
							"type": "uint256"
						}
					],
					"name": "addTransaction",
					"outputs": [],
					"stateMutability": "nonpayable",
					"type": "function"
				},
				{
					"inputs": [],
					"name": "amount",
					"outputs": [
						{
							"internalType": "uint256",
							"name": "",
							"type": "uint256"
						}
					],
					"stateMutability": "view",
					"type": "function"
				},
				{
					"inputs": [],
					"name": "callCount",
					"outputs": [
						{
							"internalType": "uint256",
							"name": "",
							"type": "uint256"
						}
					],
					"stateMutability": "view",
					"type": "function"
				},
				{
					"inputs": [],
					"name": "callPutCard",
					"outputs": [
						{
							"internalType": "bool",
							"name": "",
							"type": "bool"
						}
					],
					"stateMutability": "view",
					"type": "function"
				},
				{
					"inputs": [],
					"name": "cardNumber",
					"outputs": [
						{
							"internalType": "string",
							"name": "",
							"type": "string"
						}
					],
					"stateMutability": "view",
					"type": "function"
				},
				{
					"inputs": [],
					"name": "cvv",
					"outputs": [
						{
							"internalType": "string",
							"name": "",
							"type": "string"
						}
					],
					"stateMutability": "view",
					"type": "function"
				},
				{
					"inputs": [],
					"name": "firstTransferTime",
					"outputs": [
						{
							"internalType": "uint256",
							"name": "",
							"type": "uint256"
						}
					],
					"stateMutability": "view",
					"type": "function"
				},
				{
					"inputs": [],
					"name": "getOutCard",
					"outputs": [],
					"stateMutability": "nonpayable",
					"type": "function"
				},
				{
					"inputs": [],
					"name": "getTime",
					"outputs": [
						{
							"internalType": "uint256",
							"name": "",
							"type": "uint256"
						}
					],
					"stateMutability": "view",
					"type": "function"
				},
				{
					"inputs": [],
					"name": "getTransaction",
					"outputs": [
						{
							"components": [
								{
									"internalType": "address",
									"name": "address_from",
									"type": "address"
								},
								{
									"internalType": "address",
									"name": "address_to",
									"type": "address"
								},
								{
									"internalType": "uint256",
									"name": "amount",
									"type": "uint256"
								},
								{
									"internalType": "uint256",
									"name": "timestamp",
									"type": "uint256"
								}
							],
							"internalType": "struct Transaction.Transactions[]",
							"name": "",
							"type": "tuple[]"
						}
					],
					"stateMutability": "view",
					"type": "function"
				},
				{
					"inputs": [],
					"name": "message",
					"outputs": [
						{
							"internalType": "string",
							"name": "",
							"type": "string"
						}
					],
					"stateMutability": "view",
					"type": "function"
				},
				{
					"inputs": [
						{
							"internalType": "uint256",
							"name": "_amount",
							"type": "uint256"
						},
						{
							"internalType": "address",
							"name": "_receiver",
							"type": "address"
						}
					],
					"name": "sendMoney",
					"outputs": [],
					"stateMutability": "nonpayable",
					"type": "function"
				},
				{
					"inputs": [
						{
							"internalType": "string",
							"name": "_cardNumber",
							"type": "string"
						},
						{
							"internalType": "string",
							"name": "_cvv",
							"type": "string"
						}
					],
					"name": "setCard",
					"outputs": [],
					"stateMutability": "nonpayable",
					"type": "function"
				},
				{
					"inputs": [
						{
							"internalType": "uint256",
							"name": "",
							"type": "uint256"
						}
					],
					"name": "transactionList",
					"outputs": [
						{
							"internalType": "address",
							"name": "address_from",
							"type": "address"
						},
						{
							"internalType": "address",
							"name": "address_to",
							"type": "address"
						},
						{
							"internalType": "uint256",
							"name": "amount",
							"type": "uint256"
						},
						{
							"internalType": "uint256",
							"name": "timestamp",
							"type": "uint256"
						}
					],
					"stateMutability": "view",
					"type": "function"
				}
			],
			"devdoc": {
				"kind": "dev",
				"methods": {},
				"version": 1
			},
			"evm": {
				"assembly": "    /* \"Dapp/MoneyTransfer.sol\":98:4247  contract  MoneyTransfer is Transaction {... */\n  mstore(0x40, 0x80)\n    /* \"Dapp/MoneyTransfer.sol\":832:833  0 */\n  0x00\n    /* \"Dapp/MoneyTransfer.sol\":808:833  uint public callCount = 0 */\n  0x09\n  sstore\n    /* \"Dapp/MoneyTransfer.sol\":867:872  false */\n  0x00\n    /* \"Dapp/MoneyTransfer.sol\":841:872  bool public callPutCard = false */\n  0x0a\n  exp(0x0100, 0x00)\n  dup2\n  sload\n  dup2\n  0xff\n  mul\n  not\n  and\n  swap1\n  dup4\n  iszero\n  iszero\n  mul\n  or\n  swap1\n  sstore\n  pop\n    /* \"Dapp/MoneyTransfer.sol\":657:796  constructor (uint256 _totalFunds) {... */\n  callvalue\n  dup1\n  iszero\n  tag_1\n  jumpi\n  0x00\n  dup1\n  revert\ntag_1:\n  pop\n  mload(0x40)\n  sub(codesize, bytecodeSize)\n  dup1\n  bytecodeSize\n  dup4\n  codecopy\n  dup2\n  dup2\n  add\n  0x40\n  mstore\n  dup2\n  add\n  swap1\n  tag_2\n  swap2\n  swap1\n  tag_3\n  jump\t// in\ntag_2:\n    /* \"Dapp/MoneyTransfer.sol\":777:788  _totalFunds */\n  dup1\n    /* \"Dapp/MoneyTransfer.sol\":764:774  TotalFunds */\n  0x02\n    /* \"Dapp/MoneyTransfer.sol\":764:788  TotalFunds = _totalFunds */\n  dup2\n  swap1\n  sstore\n  pop\n    /* \"Dapp/MoneyTransfer.sol\":657:796  constructor (uint256 _totalFunds) {... */\n  pop\n    /* \"Dapp/MoneyTransfer.sol\":98:4247  contract  MoneyTransfer is Transaction {... */\n  jump(tag_6)\n    /* \"#utility.yul\":88:205   */\ntag_8:\n    /* \"#utility.yul\":197:198   */\n  0x00\n    /* \"#utility.yul\":194:195   */\n  dup1\n    /* \"#utility.yul\":187:199   */\n  revert\n    /* \"#utility.yul\":334:411   */\ntag_10:\n    /* \"#utility.yul\":371:378   */\n  0x00\n    /* \"#utility.yul\":400:405   */\n  dup2\n    /* \"#utility.yul\":389:405   */\n  swap1\n  pop\n    /* \"#utility.yul\":334:411   */\n  swap2\n  swap1\n  pop\n  jump\t// out\n    /* \"#utility.yul\":417:539   */\ntag_11:\n    /* \"#utility.yul\":490:514   */\n  tag_19\n    /* \"#utility.yul\":508:513   */\n  dup2\n    /* \"#utility.yul\":490:514   */\n  tag_10\n  jump\t// in\ntag_19:\n    /* \"#utility.yul\":483:488   */\n  dup2\n    /* \"#utility.yul\":480:515   */\n  eq\n    /* \"#utility.yul\":470:533   */\n  tag_20\n  jumpi\n    /* \"#utility.yul\":529:530   */\n  0x00\n    /* \"#utility.yul\":526:527   */\n  dup1\n    /* \"#utility.yul\":519:531   */\n  revert\n    /* \"#utility.yul\":470:533   */\ntag_20:\n    /* \"#utility.yul\":417:539   */\n  pop\n  jump\t// out\n    /* \"#utility.yul\":545:688   */\ntag_12:\n    /* \"#utility.yul\":602:607   */\n  0x00\n    /* \"#utility.yul\":633:639   */\n  dup2\n    /* \"#utility.yul\":627:640   */\n  mload\n    /* \"#utility.yul\":618:640   */\n  swap1\n  pop\n    /* \"#utility.yul\":649:682   */\n  tag_22\n    /* \"#utility.yul\":676:681   */\n  dup2\n    /* \"#utility.yul\":649:682   */\n  tag_11\n  jump\t// in\ntag_22:\n    /* \"#utility.yul\":545:688   */\n  swap3\n  swap2\n  pop\n  pop\n  jump\t// out\n    /* \"#utility.yul\":694:1045   */\ntag_3:\n    /* \"#utility.yul\":764:770   */\n  0x00\n    /* \"#utility.yul\":813:815   */\n  0x20\n    /* \"#utility.yul\":801:810   */\n  dup3\n    /* \"#utility.yul\":792:799   */\n  dup5\n    /* \"#utility.yul\":788:811   */\n  sub\n    /* \"#utility.yul\":784:816   */\n  slt\n    /* \"#utility.yul\":781:900   */\n  iszero\n  tag_24\n  jumpi\n    /* \"#utility.yul\":819:898   */\n  tag_25\n  tag_8\n  jump\t// in\ntag_25:\n    /* \"#utility.yul\":781:900   */\ntag_24:\n    /* \"#utility.yul\":939:940   */\n  0x00\n    /* \"#utility.yul\":964:1028   */\n  tag_26\n    /* \"#utility.yul\":1020:1027   */\n  dup5\n    /* \"#utility.yul\":1011:1017   */\n  dup3\n    /* \"#utility.yul\":1000:1009   */\n  dup6\n    /* \"#utility.yul\":996:1018   */\n  add\n    /* \"#utility.yul\":964:1028   */\n  tag_12\n  jump\t// in\ntag_26:\n    /* \"#utility.yul\":954:1028   */\n  swap2\n  pop\n    /* \"#utility.yul\":910:1038   */\n  pop\n    /* \"#utility.yul\":694:1045   */\n  swap3\n  swap2\n  pop\n  pop\n  jump\t// out\n    /* \"Dapp/MoneyTransfer.sol\":98:4247  contract  MoneyTransfer is Transaction {... */\ntag_6:\n  dataSize(sub_0)\n  dup1\n  dataOffset(sub_0)\n  0x00\n  codecopy\n  0x00\n  return\nstop\n\nsub_0: assembly {\n        /* \"Dapp/MoneyTransfer.sol\":98:4247  contract  MoneyTransfer is Transaction {... */\n      mstore(0x40, 0x80)\n      callvalue\n      dup1\n      iszero\n      tag_1\n      jumpi\n      0x00\n      dup1\n      revert\n    tag_1:\n      pop\n      jumpi(tag_2, lt(calldatasize, 0x04))\n      shr(0xe0, calldataload(0x00))\n      dup1\n      0x59705f81\n      gt\n      tag_19\n      jumpi\n      dup1\n      0x8fa11864\n      gt\n      tag_20\n      jumpi\n      dup1\n      0x8fa11864\n      eq\n      tag_15\n      jumpi\n      dup1\n      0x97838c72\n      eq\n      tag_16\n      jumpi\n      dup1\n      0xaa8c217c\n      eq\n      tag_17\n      jumpi\n      dup1\n      0xe21f37ce\n      eq\n      tag_18\n      jumpi\n      jump(tag_2)\n    tag_20:\n      dup1\n      0x59705f81\n      eq\n      tag_11\n      jumpi\n      dup1\n      0x7b9a3f4c\n      eq\n      tag_12\n      jumpi\n      dup1\n      0x7eb9f571\n      eq\n      tag_13\n      jumpi\n      dup1\n      0x8e029c0b\n      eq\n      tag_14\n      jumpi\n      jump(tag_2)\n    tag_19:\n      dup1\n      0x3c626f00\n      gt\n      tag_21\n      jumpi\n      dup1\n      0x3c626f00\n      eq\n      tag_7\n      jumpi\n      dup1\n      0x42fb7936\n      eq\n      tag_8\n      jumpi\n      dup1\n      0x4b28f9a2\n      eq\n      tag_9\n      jumpi\n      dup1\n      0x557ed1ba\n      eq\n      tag_10\n      jumpi\n      jump(tag_2)\n    tag_21:\n      dup1\n      0x04ef5b21\n      eq\n      tag_3\n      jumpi\n      dup1\n      0x062a7544\n      eq\n      tag_4\n      jumpi\n      dup1\n      0x0e85fa72\n      eq\n      tag_5\n      jumpi\n      dup1\n      0x12a029a4\n      eq\n      tag_6\n      jumpi\n    tag_2:\n      0x00\n      dup1\n      revert\n        /* \"Dapp/Transaction.sol\":243:280  Transactions[] public transactionList */\n    tag_3:\n      tag_22\n      0x04\n      dup1\n      calldatasize\n      sub\n      dup2\n      add\n      swap1\n      tag_23\n      swap2\n      swap1\n      tag_24\n      jump\t// in\n    tag_23:\n      tag_25\n      jump\t// in\n    tag_22:\n      mload(0x40)\n      tag_26\n      swap5\n      swap4\n      swap3\n      swap2\n      swap1\n      tag_27\n      jump\t// in\n    tag_26:\n      mload(0x40)\n      dup1\n      swap2\n      sub\n      swap1\n      return\n        /* \"Dapp/MoneyTransfer.sol\":882:1770  function sendMoney( uint _amount, address _receiver) public m_validAddress(_receiver) m_ifCardExists m_transferLimit{... */\n    tag_4:\n      tag_28\n      0x04\n      dup1\n      calldatasize\n      sub\n      dup2\n      add\n      swap1\n      tag_29\n      swap2\n      swap1\n      tag_30\n      jump\t// in\n    tag_29:\n      tag_31\n      jump\t// in\n    tag_28:\n      stop\n        /* \"Dapp/MoneyTransfer.sol\":580:609  uint public firstTransferTime */\n    tag_5:\n      tag_32\n      tag_33\n      jump\t// in\n    tag_32:\n      mload(0x40)\n      tag_34\n      swap2\n      swap1\n      tag_35\n      jump\t// in\n    tag_34:\n      mload(0x40)\n      dup1\n      swap2\n      sub\n      swap1\n      return\n        /* \"Dapp/MoneyTransfer.sol\":1778:2043  function setCard(string memory _cardNumber, string memory _cvv) public  m_checkCard {... */\n    tag_6:\n      tag_36\n      0x04\n      dup1\n      calldatasize\n      sub\n      dup2\n      add\n      swap1\n      tag_37\n      swap2\n      swap1\n      tag_38\n      jump\t// in\n    tag_37:\n      tag_39\n      jump\t// in\n    tag_36:\n      stop\n        /* \"Dapp/MoneyTransfer.sol\":841:872  bool public callPutCard = false */\n    tag_7:\n      tag_40\n      tag_41\n      jump\t// in\n    tag_40:\n      mload(0x40)\n      tag_42\n      swap2\n      swap1\n      tag_43\n      jump\t// in\n    tag_42:\n      mload(0x40)\n      dup1\n      swap2\n      sub\n      swap1\n      return\n        /* \"Dapp/MoneyTransfer.sol\":526:543  string public cvv */\n    tag_8:\n      tag_44\n      tag_45\n      jump\t// in\n    tag_44:\n      mload(0x40)\n      tag_46\n      swap2\n      swap1\n      tag_47\n      jump\t// in\n    tag_46:\n      mload(0x40)\n      dup1\n      swap2\n      sub\n      swap1\n      return\n        /* \"Dapp/MoneyTransfer.sol\":808:833  uint public callCount = 0 */\n    tag_9:\n      tag_48\n      tag_49\n      jump\t// in\n    tag_48:\n      mload(0x40)\n      tag_50\n      swap2\n      swap1\n      tag_35\n      jump\t// in\n    tag_50:\n      mload(0x40)\n      dup1\n      swap2\n      sub\n      swap1\n      return\n        /* \"Dapp/MoneyTransfer.sol\":4150:4236  function getTime()public view returns(uint ){... */\n    tag_10:\n      tag_51\n      tag_52\n      jump\t// in\n    tag_51:\n      mload(0x40)\n      tag_53\n      swap2\n      swap1\n      tag_35\n      jump\t// in\n    tag_53:\n      mload(0x40)\n      dup1\n      swap2\n      sub\n      swap1\n      return\n        /* \"Dapp/Transaction.sol\":575:685  function getTransaction() public view returns(Transactions[] memory){... */\n    tag_11:\n      tag_54\n      tag_55\n      jump\t// in\n    tag_54:\n      mload(0x40)\n      tag_56\n      swap2\n      swap1\n      tag_57\n      jump\t// in\n    tag_56:\n      mload(0x40)\n      dup1\n      swap2\n      sub\n      swap1\n      return\n        /* \"Dapp/MoneyTransfer.sol\":176:201  uint256 public TotalFunds */\n    tag_12:\n      tag_58\n      tag_59\n      jump\t// in\n    tag_58:\n      mload(0x40)\n      tag_60\n      swap2\n      swap1\n      tag_35\n      jump\t// in\n    tag_60:\n      mload(0x40)\n      dup1\n      swap2\n      sub\n      swap1\n      return\n        /* \"Dapp/MoneyTransfer.sol\":550:576  uint256 public TotalAmount */\n    tag_13:\n      tag_61\n      tag_62\n      jump\t// in\n    tag_61:\n      mload(0x40)\n      tag_63\n      swap2\n      swap1\n      tag_35\n      jump\t// in\n    tag_63:\n      mload(0x40)\n      dup1\n      swap2\n      sub\n      swap1\n      return\n        /* \"Dapp/MoneyTransfer.sol\":2064:2133  function getOutCard() public  {... */\n    tag_14:\n      tag_64\n      tag_65\n      jump\t// in\n    tag_64:\n      stop\n        /* \"Dapp/MoneyTransfer.sol\":494:518  string public cardNumber */\n    tag_15:\n      tag_66\n      tag_67\n      jump\t// in\n    tag_66:\n      mload(0x40)\n      tag_68\n      swap2\n      swap1\n      tag_47\n      jump\t// in\n    tag_68:\n      mload(0x40)\n      dup1\n      swap2\n      sub\n      swap1\n      return\n        /* \"Dapp/Transaction.sol\":289:567  function addTransaction(address _address_from ,address _address_to, uint _amount, uint _timestamp)public{... */\n    tag_16:\n      tag_69\n      0x04\n      dup1\n      calldatasize\n      sub\n      dup2\n      add\n      swap1\n      tag_70\n      swap2\n      swap1\n      tag_71\n      jump\t// in\n    tag_70:\n      tag_72\n      jump\t// in\n    tag_69:\n      stop\n        /* \"Dapp/MoneyTransfer.sol\":148:169  uint256 public amount */\n    tag_17:\n      tag_73\n      tag_74\n      jump\t// in\n    tag_73:\n      mload(0x40)\n      tag_75\n      swap2\n      swap1\n      tag_35\n      jump\t// in\n    tag_75:\n      mload(0x40)\n      dup1\n      swap2\n      sub\n      swap1\n      return\n        /* \"Dapp/MoneyTransfer.sol\":466:487  string public message */\n    tag_18:\n      tag_76\n      tag_77\n      jump\t// in\n    tag_76:\n      mload(0x40)\n      tag_78\n      swap2\n      swap1\n      tag_47\n      jump\t// in\n    tag_78:\n      mload(0x40)\n      dup1\n      swap2\n      sub\n      swap1\n      return\n        /* \"Dapp/Transaction.sol\":243:280  Transactions[] public transactionList */\n    tag_25:\n      0x00\n      dup2\n      dup2\n      sload\n      dup2\n      lt\n      tag_79\n      jumpi\n      0x00\n      dup1\n      revert\n    tag_79:\n      swap1\n      0x00\n      mstore\n      keccak256(0x00, 0x20)\n      swap1\n      0x04\n      mul\n      add\n      0x00\n      swap2\n      pop\n      swap1\n      pop\n      dup1\n      0x00\n      add\n      0x00\n      swap1\n      sload\n      swap1\n      0x0100\n      exp\n      swap1\n      div\n      0xffffffffffffffffffffffffffffffffffffffff\n      and\n      swap1\n      dup1\n      0x01\n      add\n      0x00\n      swap1\n      sload\n      swap1\n      0x0100\n      exp\n      swap1\n      div\n      0xffffffffffffffffffffffffffffffffffffffff\n      and\n      swap1\n      dup1\n      0x02\n      add\n      sload\n      swap1\n      dup1\n      0x03\n      add\n      sload\n      swap1\n      pop\n      dup5\n      jump\t// out\n        /* \"Dapp/MoneyTransfer.sol\":882:1770  function sendMoney( uint _amount, address _receiver) public m_validAddress(_receiver) m_ifCardExists m_transferLimit{... */\n    tag_31:\n        /* \"Dapp/MoneyTransfer.sol\":957:966  _receiver */\n      dup1\n        /* \"Dapp/MoneyTransfer.sol\":2214:2219  _addr */\n      dup1\n        /* \"Dapp/MoneyTransfer.sol\":2203:2211  receiver */\n      0x03\n      0x00\n        /* \"Dapp/MoneyTransfer.sol\":2203:2219  receiver = _addr */\n      0x0100\n      exp\n      dup2\n      sload\n      dup2\n      0xffffffffffffffffffffffffffffffffffffffff\n      mul\n      not\n      and\n      swap1\n      dup4\n      0xffffffffffffffffffffffffffffffffffffffff\n      and\n      mul\n      or\n      swap1\n      sstore\n      pop\n        /* \"Dapp/MoneyTransfer.sol\":2255:2256  0 */\n      0x00\n        /* \"Dapp/MoneyTransfer.sol\":2238:2257  _addr != address(0) */\n      0xffffffffffffffffffffffffffffffffffffffff\n      and\n        /* \"Dapp/MoneyTransfer.sol\":2238:2243  _addr */\n      dup2\n        /* \"Dapp/MoneyTransfer.sol\":2238:2257  _addr != address(0) */\n      0xffffffffffffffffffffffffffffffffffffffff\n      and\n      sub\n        /* \"Dapp/MoneyTransfer.sol\":2230:2290  require(_addr != address(0), \" This address doesn't exists\") */\n      tag_82\n      jumpi\n      mload(0x40)\n      0x08c379a000000000000000000000000000000000000000000000000000000000\n      dup2\n      mstore\n      0x04\n      add\n      tag_83\n      swap1\n      tag_84\n      jump\t// in\n    tag_83:\n      mload(0x40)\n      dup1\n      swap2\n      sub\n      swap1\n      revert\n    tag_82:\n        /* \"Dapp/MoneyTransfer.sol\":2389:2394  false */\n      0x00\n        /* \"Dapp/MoneyTransfer.sol\":2374:2394  callPutCard != false */\n      iszero\n      iszero\n        /* \"Dapp/MoneyTransfer.sol\":2374:2385  callPutCard */\n      0x0a\n      0x00\n      swap1\n      sload\n      swap1\n      0x0100\n      exp\n      swap1\n      div\n      0xff\n      and\n        /* \"Dapp/MoneyTransfer.sol\":2374:2394  callPutCard != false */\n      iszero\n      iszero\n      sub\n        /* \"Dapp/MoneyTransfer.sol\":2366:2421  require(callPutCard != false,\"Please insert your card\") */\n      tag_86\n      jumpi\n      mload(0x40)\n      0x08c379a000000000000000000000000000000000000000000000000000000000\n      dup2\n      mstore\n      0x04\n      add\n      tag_87\n      swap1\n      tag_88\n      jump\t// in\n    tag_87:\n      mload(0x40)\n      dup1\n      swap2\n      sub\n      swap1\n      revert\n    tag_86:\n        /* \"Dapp/MoneyTransfer.sol\":3701:3702  5 */\n      0x05\n        /* \"Dapp/MoneyTransfer.sol\":3688:3697  callCount */\n      sload(0x09)\n        /* \"Dapp/MoneyTransfer.sol\":3688:3702  callCount >= 5 */\n      lt\n      iszero\n        /* \"Dapp/MoneyTransfer.sol\":3688:3757  callCount >= 5 && block.timestamp <= (firstTransferTime + 30 seconds) */\n      dup1\n      iszero\n      tag_90\n      jumpi\n      pop\n        /* \"Dapp/MoneyTransfer.sol\":3746:3756  30 seconds */\n      0x1e\n        /* \"Dapp/MoneyTransfer.sol\":3726:3743  firstTransferTime */\n      sload(0x08)\n        /* \"Dapp/MoneyTransfer.sol\":3726:3756  firstTransferTime + 30 seconds */\n      tag_91\n      swap2\n      swap1\n      tag_92\n      jump\t// in\n    tag_91:\n        /* \"Dapp/MoneyTransfer.sol\":3706:3721  block.timestamp */\n      timestamp\n        /* \"Dapp/MoneyTransfer.sol\":3706:3757  block.timestamp <= (firstTransferTime + 30 seconds) */\n      gt\n      iszero\n        /* \"Dapp/MoneyTransfer.sol\":3688:3757  callCount >= 5 && block.timestamp <= (firstTransferTime + 30 seconds) */\n    tag_90:\n        /* \"Dapp/MoneyTransfer.sol\":3685:3902  if(callCount >= 5 && block.timestamp <= (firstTransferTime + 30 seconds)){... */\n      iszero\n      tag_93\n      jumpi\n        /* \"Dapp/MoneyTransfer.sol\":3785:3786  0 */\n      0x00\n        /* \"Dapp/MoneyTransfer.sol\":3773:3782  callCount */\n      0x09\n        /* \"Dapp/MoneyTransfer.sol\":3773:3786  callCount = 0 */\n      dup2\n      swap1\n      sstore\n      pop\n        /* \"Dapp/MoneyTransfer.sol\":3821:3822  0 */\n      0x00\n        /* \"Dapp/MoneyTransfer.sol\":3808:3817  callCount */\n      sload(0x09)\n        /* \"Dapp/MoneyTransfer.sol\":3808:3822  callCount == 0 */\n      eq\n        /* \"Dapp/MoneyTransfer.sol\":3801:3823  assert(callCount == 0) */\n      tag_94\n      jumpi\n      tag_95\n      tag_96\n      jump\t// in\n    tag_95:\n    tag_94:\n        /* \"Dapp/MoneyTransfer.sol\":3838:3876  revert(\"only 5 transactions per day\" ) */\n      mload(0x40)\n      0x08c379a000000000000000000000000000000000000000000000000000000000\n      dup2\n      mstore\n      0x04\n      add\n      tag_97\n      swap1\n      tag_98\n      jump\t// in\n    tag_97:\n      mload(0x40)\n      dup1\n      swap2\n      sub\n      swap1\n      revert\n        /* \"Dapp/MoneyTransfer.sol\":3685:3902  if(callCount >= 5 && block.timestamp <= (firstTransferTime + 30 seconds)){... */\n    tag_93:\n        /* \"Dapp/MoneyTransfer.sol\":3930:3931  5 */\n      0x05\n        /* \"Dapp/MoneyTransfer.sol\":3917:3926  callCount */\n      sload(0x09)\n        /* \"Dapp/MoneyTransfer.sol\":3917:3931  callCount <= 5 */\n      gt\n      iszero\n        /* \"Dapp/MoneyTransfer.sol\":3917:3986  callCount <= 5 && block.timestamp >= (firstTransferTime + 30 seconds) */\n      dup1\n      iszero\n      tag_99\n      jumpi\n      pop\n        /* \"Dapp/MoneyTransfer.sol\":3975:3985  30 seconds */\n      0x1e\n        /* \"Dapp/MoneyTransfer.sol\":3955:3972  firstTransferTime */\n      sload(0x08)\n        /* \"Dapp/MoneyTransfer.sol\":3955:3985  firstTransferTime + 30 seconds */\n      tag_100\n      swap2\n      swap1\n      tag_92\n      jump\t// in\n    tag_100:\n        /* \"Dapp/MoneyTransfer.sol\":3935:3950  block.timestamp */\n      timestamp\n        /* \"Dapp/MoneyTransfer.sol\":3935:3986  block.timestamp >= (firstTransferTime + 30 seconds) */\n      lt\n      iszero\n        /* \"Dapp/MoneyTransfer.sol\":3917:3986  callCount <= 5 && block.timestamp >= (firstTransferTime + 30 seconds) */\n    tag_99:\n        /* \"Dapp/MoneyTransfer.sol\":3914:4115  if(callCount <= 5 && block.timestamp >= (firstTransferTime + 30 seconds)){... */\n      iszero\n      tag_101\n      jumpi\n        /* \"Dapp/MoneyTransfer.sol\":4014:4015  0 */\n      0x00\n        /* \"Dapp/MoneyTransfer.sol\":4002:4011  callCount */\n      0x09\n        /* \"Dapp/MoneyTransfer.sol\":4002:4015  callCount = 0 */\n      dup2\n      swap1\n      sstore\n      pop\n        /* \"Dapp/MoneyTransfer.sol\":4051:4052  0 */\n      0x00\n        /* \"Dapp/MoneyTransfer.sol\":4038:4047  callCount */\n      sload(0x09)\n        /* \"Dapp/MoneyTransfer.sol\":4038:4052  callCount == 0 */\n      eq\n        /* \"Dapp/MoneyTransfer.sol\":4031:4053  assert(callCount == 0) */\n      tag_102\n      jumpi\n      tag_103\n      tag_96\n      jump\t// in\n    tag_103:\n    tag_102:\n        /* \"Dapp/MoneyTransfer.sol\":4088:4103  block.timestamp */\n      timestamp\n        /* \"Dapp/MoneyTransfer.sol\":4068:4085  firstTransferTime */\n      0x08\n        /* \"Dapp/MoneyTransfer.sol\":4068:4103  firstTransferTime = block.timestamp */\n      dup2\n      swap1\n      sstore\n      pop\n        /* \"Dapp/MoneyTransfer.sol\":3914:4115  if(callCount <= 5 && block.timestamp >= (firstTransferTime + 30 seconds)){... */\n    tag_101:\n        /* \"Dapp/MoneyTransfer.sol\":1020:1029  _receiver */\n      dup2\n        /* \"Dapp/MoneyTransfer.sol\":1009:1017  receiver */\n      0x03\n      0x00\n        /* \"Dapp/MoneyTransfer.sol\":1009:1029  receiver = _receiver */\n      0x0100\n      exp\n      dup2\n      sload\n      dup2\n      0xffffffffffffffffffffffffffffffffffffffff\n      mul\n      not\n      and\n      swap1\n      dup4\n      0xffffffffffffffffffffffffffffffffffffffff\n      and\n      mul\n      or\n      swap1\n      sstore\n      pop\n        /* \"Dapp/MoneyTransfer.sol\":1049:1056  _amount */\n      dup3\n        /* \"Dapp/MoneyTransfer.sol\":1040:1046  amount */\n      0x01\n        /* \"Dapp/MoneyTransfer.sol\":1040:1056  amount = _amount */\n      dup2\n      swap1\n      sstore\n      pop\n        /* \"Dapp/MoneyTransfer.sol\":1229:1230  1 */\n      0x01\n        /* \"Dapp/MoneyTransfer.sol\":1216:1225  callCount */\n      0x09\n      0x00\n        /* \"Dapp/MoneyTransfer.sol\":1216:1230  callCount += 1 */\n      dup3\n      dup3\n      sload\n      tag_105\n      swap2\n      swap1\n      tag_92\n      jump\t// in\n    tag_105:\n      swap3\n      pop\n      pop\n      dup2\n      swap1\n      sstore\n      pop\n        /* \"Dapp/MoneyTransfer.sol\":1286:1287  0 */\n      0x00\n        /* \"Dapp/MoneyTransfer.sol\":1273:1283  TotalFunds */\n      sload(0x02)\n        /* \"Dapp/MoneyTransfer.sol\":1273:1287  TotalFunds > 0 */\n      gt\n        /* \"Dapp/MoneyTransfer.sol\":1273:1310  TotalFunds > 0 && TotalFunds > amount */\n      dup1\n      iszero\n      tag_106\n      jumpi\n      pop\n        /* \"Dapp/MoneyTransfer.sol\":1304:1310  amount */\n      sload(0x01)\n        /* \"Dapp/MoneyTransfer.sol\":1291:1301  TotalFunds */\n      sload(0x02)\n        /* \"Dapp/MoneyTransfer.sol\":1291:1310  TotalFunds > amount */\n      gt\n        /* \"Dapp/MoneyTransfer.sol\":1273:1310  TotalFunds > 0 && TotalFunds > amount */\n    tag_106:\n        /* \"Dapp/MoneyTransfer.sol\":1270:1753  if(TotalFunds > 0 && TotalFunds > amount){... */\n      iszero\n      tag_107\n      jumpi\n        /* \"Dapp/MoneyTransfer.sol\":1348:1354  amount */\n      sload(0x01)\n        /* \"Dapp/MoneyTransfer.sol\":1334:1344  TotalFunds */\n      0x02\n      0x00\n        /* \"Dapp/MoneyTransfer.sol\":1334:1354  TotalFunds -= amount */\n      dup3\n      dup3\n      sload\n      tag_108\n      swap2\n      swap1\n      tag_109\n      jump\t// in\n    tag_108:\n      swap3\n      pop\n      pop\n      dup2\n      swap1\n      sstore\n      pop\n        /* \"Dapp/MoneyTransfer.sol\":1392:1398  amount */\n      sload(0x01)\n        /* \"Dapp/MoneyTransfer.sol\":1377:1388  TotalAmount */\n      0x07\n      0x00\n        /* \"Dapp/MoneyTransfer.sol\":1377:1398  TotalAmount += amount */\n      dup3\n      dup3\n      sload\n      tag_110\n      swap2\n      swap1\n      tag_92\n      jump\t// in\n    tag_110:\n      swap3\n      pop\n      pop\n      dup2\n      swap1\n      sstore\n      pop\n        /* \"Dapp/MoneyTransfer.sol\":1465:1525  addTransaction(msg.sender,receiver, amount, block.timestamp) */\n      tag_111\n        /* \"Dapp/MoneyTransfer.sol\":1480:1490  msg.sender */\n      caller\n        /* \"Dapp/MoneyTransfer.sol\":1491:1499  receiver */\n      0x03\n      0x00\n      swap1\n      sload\n      swap1\n      0x0100\n      exp\n      swap1\n      div\n      0xffffffffffffffffffffffffffffffffffffffff\n      and\n        /* \"Dapp/MoneyTransfer.sol\":1501:1507  amount */\n      sload(0x01)\n        /* \"Dapp/MoneyTransfer.sol\":1509:1524  block.timestamp */\n      timestamp\n        /* \"Dapp/MoneyTransfer.sol\":1465:1479  addTransaction */\n      tag_72\n        /* \"Dapp/MoneyTransfer.sol\":1465:1525  addTransaction(msg.sender,receiver, amount, block.timestamp) */\n      jump\t// in\n    tag_111:\n        /* \"Dapp/MoneyTransfer.sol\":1548:1578  message = \"Transfer completed\" */\n      mload(0x40)\n      dup1\n      0x40\n      add\n      0x40\n      mstore\n      dup1\n      0x12\n      dup2\n      mstore\n      0x20\n      add\n      0x5472616e7366657220636f6d706c657465640000000000000000000000000000\n      dup2\n      mstore\n      pop\n        /* \"Dapp/MoneyTransfer.sol\":1548:1555  message */\n      0x04\n        /* \"Dapp/MoneyTransfer.sol\":1548:1578  message = \"Transfer completed\" */\n      swap1\n      dup2\n      tag_112\n      swap2\n      swap1\n      tag_113\n      jump\t// in\n    tag_112:\n      pop\n        /* \"Dapp/MoneyTransfer.sol\":1270:1753  if(TotalFunds > 0 && TotalFunds > amount){... */\n      jump(tag_114)\n    tag_107:\n        /* \"Dapp/MoneyTransfer.sol\":1706:1732  revert(\"Not enough funds\") */\n      mload(0x40)\n      0x08c379a000000000000000000000000000000000000000000000000000000000\n      dup2\n      mstore\n      0x04\n      add\n      tag_115\n      swap1\n      tag_116\n      jump\t// in\n    tag_115:\n      mload(0x40)\n      dup1\n      swap2\n      sub\n      swap1\n      revert\n        /* \"Dapp/MoneyTransfer.sol\":1270:1753  if(TotalFunds > 0 && TotalFunds > amount){... */\n    tag_114:\n        /* \"Dapp/MoneyTransfer.sol\":882:1770  function sendMoney( uint _amount, address _receiver) public m_validAddress(_receiver) m_ifCardExists m_transferLimit{... */\n      pop\n      pop\n      pop\n      jump\t// out\n        /* \"Dapp/MoneyTransfer.sol\":580:609  uint public firstTransferTime */\n    tag_33:\n      sload(0x08)\n      dup2\n      jump\t// out\n        /* \"Dapp/MoneyTransfer.sol\":1778:2043  function setCard(string memory _cardNumber, string memory _cvv) public  m_checkCard {... */\n    tag_39:\n        /* \"Dapp/MoneyTransfer.sol\":1892:1903  _cardNumber */\n      dup2\n        /* \"Dapp/MoneyTransfer.sol\":1879:1889  cardNumber */\n      0x05\n        /* \"Dapp/MoneyTransfer.sol\":1879:1903  cardNumber = _cardNumber */\n      swap1\n      dup2\n      tag_119\n      swap2\n      swap1\n      tag_113\n      jump\t// in\n    tag_119:\n      pop\n        /* \"Dapp/MoneyTransfer.sol\":1924:1928  _cvv */\n      dup1\n        /* \"Dapp/MoneyTransfer.sol\":1918:1921  cvv */\n      0x06\n        /* \"Dapp/MoneyTransfer.sol\":1918:1928  cvv = _cvv */\n      swap1\n      dup2\n      tag_120\n      swap2\n      swap1\n      tag_113\n      jump\t// in\n    tag_120:\n      pop\n        /* \"Dapp/MoneyTransfer.sol\":1976:1980  true */\n      0x01\n        /* \"Dapp/MoneyTransfer.sol\":1962:1973  callPutCard */\n      0x0a\n      0x00\n        /* \"Dapp/MoneyTransfer.sol\":1962:1980  callPutCard = true */\n      0x0100\n      exp\n      dup2\n      sload\n      dup2\n      0xff\n      mul\n      not\n      and\n      swap1\n      dup4\n      iszero\n      iszero\n      mul\n      or\n      swap1\n      sstore\n      pop\n        /* \"Dapp/MoneyTransfer.sol\":2018:2033  block.timestamp */\n      timestamp\n        /* \"Dapp/MoneyTransfer.sol\":1998:2015  firstTransferTime */\n      0x08\n        /* \"Dapp/MoneyTransfer.sol\":1998:2033  firstTransferTime = block.timestamp */\n      dup2\n      swap1\n      sstore\n      pop\n        /* \"Dapp/MoneyTransfer.sol\":2550:2551  8 */\n      0x08\n        /* \"Dapp/MoneyTransfer.sol\":2528:2538  cardNumber */\n      0x05\n        /* \"Dapp/MoneyTransfer.sol\":2522:2546  bytes(cardNumber).length */\n      dup1\n      sload\n      tag_121\n      swap1\n      tag_122\n      jump\t// in\n    tag_121:\n      swap1\n      pop\n        /* \"Dapp/MoneyTransfer.sol\":2522:2551  bytes(cardNumber).length == 8 */\n      eq\n        /* \"Dapp/MoneyTransfer.sol\":2522:2577  bytes(cardNumber).length == 8 && bytes(cvv).length == 3 */\n      dup1\n      iszero\n      tag_123\n      jumpi\n      pop\n        /* \"Dapp/MoneyTransfer.sol\":2576:2577  3 */\n      0x03\n        /* \"Dapp/MoneyTransfer.sol\":2561:2564  cvv */\n      0x06\n        /* \"Dapp/MoneyTransfer.sol\":2555:2572  bytes(cvv).length */\n      dup1\n      sload\n      tag_124\n      swap1\n      tag_122\n      jump\t// in\n    tag_124:\n      swap1\n      pop\n        /* \"Dapp/MoneyTransfer.sol\":2555:2577  bytes(cvv).length == 3 */\n      eq\n        /* \"Dapp/MoneyTransfer.sol\":2522:2577  bytes(cardNumber).length == 8 && bytes(cvv).length == 3 */\n    tag_123:\n        /* \"Dapp/MoneyTransfer.sol\":2514:2602  require(bytes(cardNumber).length == 8 && bytes(cvv).length == 3, \"No valid credit card\") */\n      tag_125\n      jumpi\n      mload(0x40)\n      0x08c379a000000000000000000000000000000000000000000000000000000000\n      dup2\n      mstore\n      0x04\n      add\n      tag_126\n      swap1\n      tag_127\n      jump\t// in\n    tag_126:\n      mload(0x40)\n      dup1\n      swap2\n      sub\n      swap1\n      revert\n    tag_125:\n        /* \"Dapp/MoneyTransfer.sol\":1778:2043  function setCard(string memory _cardNumber, string memory _cvv) public  m_checkCard {... */\n      pop\n      pop\n      jump\t// out\n        /* \"Dapp/MoneyTransfer.sol\":841:872  bool public callPutCard = false */\n    tag_41:\n      0x0a\n      0x00\n      swap1\n      sload\n      swap1\n      0x0100\n      exp\n      swap1\n      div\n      0xff\n      and\n      dup2\n      jump\t// out\n        /* \"Dapp/MoneyTransfer.sol\":526:543  string public cvv */\n    tag_45:\n      0x06\n      dup1\n      sload\n      tag_128\n      swap1\n      tag_122\n      jump\t// in\n    tag_128:\n      dup1\n      0x1f\n      add\n      0x20\n      dup1\n      swap2\n      div\n      mul\n      0x20\n      add\n      mload(0x40)\n      swap1\n      dup2\n      add\n      0x40\n      mstore\n      dup1\n      swap3\n      swap2\n      swap1\n      dup2\n      dup2\n      mstore\n      0x20\n      add\n      dup3\n      dup1\n      sload\n      tag_129\n      swap1\n      tag_122\n      jump\t// in\n    tag_129:\n      dup1\n      iszero\n      tag_130\n      jumpi\n      dup1\n      0x1f\n      lt\n      tag_131\n      jumpi\n      0x0100\n      dup1\n      dup4\n      sload\n      div\n      mul\n      dup4\n      mstore\n      swap2\n      0x20\n      add\n      swap2\n      jump(tag_130)\n    tag_131:\n      dup3\n      add\n      swap2\n      swap1\n      0x00\n      mstore\n      keccak256(0x00, 0x20)\n      swap1\n    tag_132:\n      dup2\n      sload\n      dup2\n      mstore\n      swap1\n      0x01\n      add\n      swap1\n      0x20\n      add\n      dup1\n      dup4\n      gt\n      tag_132\n      jumpi\n      dup3\n      swap1\n      sub\n      0x1f\n      and\n      dup3\n      add\n      swap2\n    tag_130:\n      pop\n      pop\n      pop\n      pop\n      pop\n      dup2\n      jump\t// out\n        /* \"Dapp/MoneyTransfer.sol\":808:833  uint public callCount = 0 */\n    tag_49:\n      sload(0x09)\n      dup2\n      jump\t// out\n        /* \"Dapp/MoneyTransfer.sol\":4150:4236  function getTime()public view returns(uint ){... */\n    tag_52:\n        /* \"Dapp/MoneyTransfer.sol\":4188:4192  uint */\n      0x00\n        /* \"Dapp/MoneyTransfer.sol\":4213:4228  block.timestamp */\n      timestamp\n        /* \"Dapp/MoneyTransfer.sol\":4205:4228  return  block.timestamp */\n      swap1\n      pop\n        /* \"Dapp/MoneyTransfer.sol\":4150:4236  function getTime()public view returns(uint ){... */\n      swap1\n      jump\t// out\n        /* \"Dapp/Transaction.sol\":575:685  function getTransaction() public view returns(Transactions[] memory){... */\n    tag_55:\n        /* \"Dapp/Transaction.sol\":621:642  Transactions[] memory */\n      0x60\n        /* \"Dapp/Transaction.sol\":662:677  transactionList */\n      0x00\n        /* \"Dapp/Transaction.sol\":655:677  return transactionList */\n      dup1\n      sload\n      dup1\n      0x20\n      mul\n      0x20\n      add\n      mload(0x40)\n      swap1\n      dup2\n      add\n      0x40\n      mstore\n      dup1\n      swap3\n      swap2\n      swap1\n      dup2\n      dup2\n      mstore\n      0x20\n      add\n      0x00\n      swap1\n    tag_135:\n      dup3\n      dup3\n      lt\n      iszero\n      tag_136\n      jumpi\n      dup4\n      dup3\n      swap1\n      0x00\n      mstore\n      keccak256(0x00, 0x20)\n      swap1\n      0x04\n      mul\n      add\n      mload(0x40)\n      dup1\n      0x80\n      add\n      0x40\n      mstore\n      swap1\n      dup2\n      0x00\n      dup3\n      add\n      0x00\n      swap1\n      sload\n      swap1\n      0x0100\n      exp\n      swap1\n      div\n      0xffffffffffffffffffffffffffffffffffffffff\n      and\n      0xffffffffffffffffffffffffffffffffffffffff\n      and\n      0xffffffffffffffffffffffffffffffffffffffff\n      and\n      dup2\n      mstore\n      0x20\n      add\n      0x01\n      dup3\n      add\n      0x00\n      swap1\n      sload\n      swap1\n      0x0100\n      exp\n      swap1\n      div\n      0xffffffffffffffffffffffffffffffffffffffff\n      and\n      0xffffffffffffffffffffffffffffffffffffffff\n      and\n      0xffffffffffffffffffffffffffffffffffffffff\n      and\n      dup2\n      mstore\n      0x20\n      add\n      0x02\n      dup3\n      add\n      sload\n      dup2\n      mstore\n      0x20\n      add\n      0x03\n      dup3\n      add\n      sload\n      dup2\n      mstore\n      pop\n      pop\n      dup2\n      mstore\n      0x20\n      add\n      swap1\n      0x01\n      add\n      swap1\n      jump(tag_135)\n    tag_136:\n      pop\n      pop\n      pop\n      pop\n      swap1\n      pop\n        /* \"Dapp/Transaction.sol\":575:685  function getTransaction() public view returns(Transactions[] memory){... */\n      swap1\n      jump\t// out\n        /* \"Dapp/MoneyTransfer.sol\":176:201  uint256 public TotalFunds */\n    tag_59:\n      sload(0x02)\n      dup2\n      jump\t// out\n        /* \"Dapp/MoneyTransfer.sol\":550:576  uint256 public TotalAmount */\n    tag_62:\n      sload(0x07)\n      dup2\n      jump\t// out\n        /* \"Dapp/MoneyTransfer.sol\":2064:2133  function getOutCard() public  {... */\n    tag_65:\n        /* \"Dapp/MoneyTransfer.sol\":2118:2123  false */\n      0x00\n        /* \"Dapp/MoneyTransfer.sol\":2104:2115  callPutCard */\n      0x0a\n      0x00\n        /* \"Dapp/MoneyTransfer.sol\":2104:2123  callPutCard = false */\n      0x0100\n      exp\n      dup2\n      sload\n      dup2\n      0xff\n      mul\n      not\n      and\n      swap1\n      dup4\n      iszero\n      iszero\n      mul\n      or\n      swap1\n      sstore\n      pop\n        /* \"Dapp/MoneyTransfer.sol\":2064:2133  function getOutCard() public  {... */\n      jump\t// out\n        /* \"Dapp/MoneyTransfer.sol\":494:518  string public cardNumber */\n    tag_67:\n      0x05\n      dup1\n      sload\n      tag_139\n      swap1\n      tag_122\n      jump\t// in\n    tag_139:\n      dup1\n      0x1f\n      add\n      0x20\n      dup1\n      swap2\n      div\n      mul\n      0x20\n      add\n      mload(0x40)\n      swap1\n      dup2\n      add\n      0x40\n      mstore\n      dup1\n      swap3\n      swap2\n      swap1\n      dup2\n      dup2\n      mstore\n      0x20\n      add\n      dup3\n      dup1\n      sload\n      tag_140\n      swap1\n      tag_122\n      jump\t// in\n    tag_140:\n      dup1\n      iszero\n      tag_141\n      jumpi\n      dup1\n      0x1f\n      lt\n      tag_142\n      jumpi\n      0x0100\n      dup1\n      dup4\n      sload\n      div\n      mul\n      dup4\n      mstore\n      swap2\n      0x20\n      add\n      swap2\n      jump(tag_141)\n    tag_142:\n      dup3\n      add\n      swap2\n      swap1\n      0x00\n      mstore\n      keccak256(0x00, 0x20)\n      swap1\n    tag_143:\n      dup2\n      sload\n      dup2\n      mstore\n      swap1\n      0x01\n      add\n      swap1\n      0x20\n      add\n      dup1\n      dup4\n      gt\n      tag_143\n      jumpi\n      dup3\n      swap1\n      sub\n      0x1f\n      and\n      dup3\n      add\n      swap2\n    tag_141:\n      pop\n      pop\n      pop\n      pop\n      pop\n      dup2\n      jump\t// out\n        /* \"Dapp/Transaction.sol\":289:567  function addTransaction(address _address_from ,address _address_to, uint _amount, uint _timestamp)public{... */\n    tag_72:\n        /* \"Dapp/Transaction.sol\":414:448  Transactions memory newTransaction */\n      0x00\n        /* \"Dapp/Transaction.sol\":451:512  Transactions(_address_from, _address_to, _amount, _timestamp) */\n      mload(0x40)\n      dup1\n      0x80\n      add\n      0x40\n      mstore\n      dup1\n        /* \"Dapp/Transaction.sol\":464:477  _address_from */\n      dup7\n        /* \"Dapp/Transaction.sol\":451:512  Transactions(_address_from, _address_to, _amount, _timestamp) */\n      0xffffffffffffffffffffffffffffffffffffffff\n      and\n      dup2\n      mstore\n      0x20\n      add\n        /* \"Dapp/Transaction.sol\":479:490  _address_to */\n      dup6\n        /* \"Dapp/Transaction.sol\":451:512  Transactions(_address_from, _address_to, _amount, _timestamp) */\n      0xffffffffffffffffffffffffffffffffffffffff\n      and\n      dup2\n      mstore\n      0x20\n      add\n        /* \"Dapp/Transaction.sol\":492:499  _amount */\n      dup5\n        /* \"Dapp/Transaction.sol\":451:512  Transactions(_address_from, _address_to, _amount, _timestamp) */\n      dup2\n      mstore\n      0x20\n      add\n        /* \"Dapp/Transaction.sol\":501:511  _timestamp */\n      dup4\n        /* \"Dapp/Transaction.sol\":451:512  Transactions(_address_from, _address_to, _amount, _timestamp) */\n      dup2\n      mstore\n      pop\n        /* \"Dapp/Transaction.sol\":414:512  Transactions memory newTransaction = Transactions(_address_from, _address_to, _amount, _timestamp) */\n      swap1\n      pop\n        /* \"Dapp/Transaction.sol\":523:538  transactionList */\n      0x00\n        /* \"Dapp/Transaction.sol\":544:558  newTransaction */\n      dup2\n        /* \"Dapp/Transaction.sol\":523:559  transactionList.push(newTransaction) */\n      swap1\n      dup1\n      0x01\n      dup2\n      sload\n      add\n      dup1\n      dup3\n      sstore\n      dup1\n      swap2\n      pop\n      pop\n      0x01\n      swap1\n      sub\n      swap1\n      0x00\n      mstore\n      keccak256(0x00, 0x20)\n      swap1\n      0x04\n      mul\n      add\n      0x00\n      swap1\n      swap2\n      swap1\n      swap2\n      swap1\n      swap2\n      pop\n      0x00\n      dup3\n      add\n      mload\n      dup2\n      0x00\n      add\n      exp(0x0100, 0x00)\n      dup2\n      sload\n      dup2\n      0xffffffffffffffffffffffffffffffffffffffff\n      mul\n      not\n      and\n      swap1\n      dup4\n      0xffffffffffffffffffffffffffffffffffffffff\n      and\n      mul\n      or\n      swap1\n      sstore\n      pop\n      0x20\n      dup3\n      add\n      mload\n      dup2\n      0x01\n      add\n      exp(0x0100, 0x00)\n      dup2\n      sload\n      dup2\n      0xffffffffffffffffffffffffffffffffffffffff\n      mul\n      not\n      and\n      swap1\n      dup4\n      0xffffffffffffffffffffffffffffffffffffffff\n      and\n      mul\n      or\n      swap1\n      sstore\n      pop\n      0x40\n      dup3\n      add\n      mload\n      dup2\n      0x02\n      add\n      sstore\n      0x60\n      dup3\n      add\n      mload\n      dup2\n      0x03\n      add\n      sstore\n      pop\n      pop\n        /* \"Dapp/Transaction.sol\":393:567  {... */\n      pop\n        /* \"Dapp/Transaction.sol\":289:567  function addTransaction(address _address_from ,address _address_to, uint _amount, uint _timestamp)public{... */\n      pop\n      pop\n      pop\n      pop\n      jump\t// out\n        /* \"Dapp/MoneyTransfer.sol\":148:169  uint256 public amount */\n    tag_74:\n      sload(0x01)\n      dup2\n      jump\t// out\n        /* \"Dapp/MoneyTransfer.sol\":466:487  string public message */\n    tag_77:\n      0x04\n      dup1\n      sload\n      tag_146\n      swap1\n      tag_122\n      jump\t// in\n    tag_146:\n      dup1\n      0x1f\n      add\n      0x20\n      dup1\n      swap2\n      div\n      mul\n      0x20\n      add\n      mload(0x40)\n      swap1\n      dup2\n      add\n      0x40\n      mstore\n      dup1\n      swap3\n      swap2\n      swap1\n      dup2\n      dup2\n      mstore\n      0x20\n      add\n      dup3\n      dup1\n      sload\n      tag_147\n      swap1\n      tag_122\n      jump\t// in\n    tag_147:\n      dup1\n      iszero\n      tag_148\n      jumpi\n      dup1\n      0x1f\n      lt\n      tag_149\n      jumpi\n      0x0100\n      dup1\n      dup4\n      sload\n      div\n      mul\n      dup4\n      mstore\n      swap2\n      0x20\n      add\n      swap2\n      jump(tag_148)\n    tag_149:\n      dup3\n      add\n      swap2\n      swap1\n      0x00\n      mstore\n      keccak256(0x00, 0x20)\n      swap1\n    tag_150:\n      dup2\n      sload\n      dup2\n      mstore\n      swap1\n      0x01\n      add\n      swap1\n      0x20\n      add\n      dup1\n      dup4\n      gt\n      tag_150\n      jumpi\n      dup3\n      swap1\n      sub\n      0x1f\n      and\n      dup3\n      add\n      swap2\n    tag_148:\n      pop\n      pop\n      pop\n      pop\n      pop\n      dup2\n      jump\t// out\n        /* \"#utility.yul\":7:82   */\n    tag_151:\n        /* \"#utility.yul\":40:46   */\n      0x00\n        /* \"#utility.yul\":73:75   */\n      0x40\n        /* \"#utility.yul\":67:76   */\n      mload\n        /* \"#utility.yul\":57:76   */\n      swap1\n      pop\n        /* \"#utility.yul\":7:82   */\n      swap1\n      jump\t// out\n        /* \"#utility.yul\":88:205   */\n    tag_152:\n        /* \"#utility.yul\":197:198   */\n      0x00\n        /* \"#utility.yul\":194:195   */\n      dup1\n        /* \"#utility.yul\":187:199   */\n      revert\n        /* \"#utility.yul\":211:328   */\n    tag_153:\n        /* \"#utility.yul\":320:321   */\n      0x00\n        /* \"#utility.yul\":317:318   */\n      dup1\n        /* \"#utility.yul\":310:322   */\n      revert\n        /* \"#utility.yul\":334:411   */\n    tag_154:\n        /* \"#utility.yul\":371:378   */\n      0x00\n        /* \"#utility.yul\":400:405   */\n      dup2\n        /* \"#utility.yul\":389:405   */\n      swap1\n      pop\n        /* \"#utility.yul\":334:411   */\n      swap2\n      swap1\n      pop\n      jump\t// out\n        /* \"#utility.yul\":417:539   */\n    tag_155:\n        /* \"#utility.yul\":490:514   */\n      tag_221\n        /* \"#utility.yul\":508:513   */\n      dup2\n        /* \"#utility.yul\":490:514   */\n      tag_154\n      jump\t// in\n    tag_221:\n        /* \"#utility.yul\":483:488   */\n      dup2\n        /* \"#utility.yul\":480:515   */\n      eq\n        /* \"#utility.yul\":470:533   */\n      tag_222\n      jumpi\n        /* \"#utility.yul\":529:530   */\n      0x00\n        /* \"#utility.yul\":526:527   */\n      dup1\n        /* \"#utility.yul\":519:531   */\n      revert\n        /* \"#utility.yul\":470:533   */\n    tag_222:\n        /* \"#utility.yul\":417:539   */\n      pop\n      jump\t// out\n        /* \"#utility.yul\":545:684   */\n    tag_156:\n        /* \"#utility.yul\":591:596   */\n      0x00\n        /* \"#utility.yul\":629:635   */\n      dup2\n        /* \"#utility.yul\":616:636   */\n      calldataload\n        /* \"#utility.yul\":607:636   */\n      swap1\n      pop\n        /* \"#utility.yul\":645:678   */\n      tag_224\n        /* \"#utility.yul\":672:677   */\n      dup2\n        /* \"#utility.yul\":645:678   */\n      tag_155\n      jump\t// in\n    tag_224:\n        /* \"#utility.yul\":545:684   */\n      swap3\n      swap2\n      pop\n      pop\n      jump\t// out\n        /* \"#utility.yul\":690:1019   */\n    tag_24:\n        /* \"#utility.yul\":749:755   */\n      0x00\n        /* \"#utility.yul\":798:800   */\n      0x20\n        /* \"#utility.yul\":786:795   */\n      dup3\n        /* \"#utility.yul\":777:784   */\n      dup5\n        /* \"#utility.yul\":773:796   */\n      sub\n        /* \"#utility.yul\":769:801   */\n      slt\n        /* \"#utility.yul\":766:885   */\n      iszero\n      tag_226\n      jumpi\n        /* \"#utility.yul\":804:883   */\n      tag_227\n      tag_152\n      jump\t// in\n    tag_227:\n        /* \"#utility.yul\":766:885   */\n    tag_226:\n        /* \"#utility.yul\":924:925   */\n      0x00\n        /* \"#utility.yul\":949:1002   */\n      tag_228\n        /* \"#utility.yul\":994:1001   */\n      dup5\n        /* \"#utility.yul\":985:991   */\n      dup3\n        /* \"#utility.yul\":974:983   */\n      dup6\n        /* \"#utility.yul\":970:992   */\n      add\n        /* \"#utility.yul\":949:1002   */\n      tag_156\n      jump\t// in\n    tag_228:\n        /* \"#utility.yul\":939:1002   */\n      swap2\n      pop\n        /* \"#utility.yul\":895:1012   */\n      pop\n        /* \"#utility.yul\":690:1019   */\n      swap3\n      swap2\n      pop\n      pop\n      jump\t// out\n        /* \"#utility.yul\":1025:1151   */\n    tag_157:\n        /* \"#utility.yul\":1062:1069   */\n      0x00\n        /* \"#utility.yul\":1102:1144   */\n      0xffffffffffffffffffffffffffffffffffffffff\n        /* \"#utility.yul\":1095:1100   */\n      dup3\n        /* \"#utility.yul\":1091:1145   */\n      and\n        /* \"#utility.yul\":1080:1145   */\n      swap1\n      pop\n        /* \"#utility.yul\":1025:1151   */\n      swap2\n      swap1\n      pop\n      jump\t// out\n        /* \"#utility.yul\":1157:1253   */\n    tag_158:\n        /* \"#utility.yul\":1194:1201   */\n      0x00\n        /* \"#utility.yul\":1223:1247   */\n      tag_231\n        /* \"#utility.yul\":1241:1246   */\n      dup3\n        /* \"#utility.yul\":1223:1247   */\n      tag_157\n      jump\t// in\n    tag_231:\n        /* \"#utility.yul\":1212:1247   */\n      swap1\n      pop\n        /* \"#utility.yul\":1157:1253   */\n      swap2\n      swap1\n      pop\n      jump\t// out\n        /* \"#utility.yul\":1259:1377   */\n    tag_159:\n        /* \"#utility.yul\":1346:1370   */\n      tag_233\n        /* \"#utility.yul\":1364:1369   */\n      dup2\n        /* \"#utility.yul\":1346:1370   */\n      tag_158\n      jump\t// in\n    tag_233:\n        /* \"#utility.yul\":1341:1344   */\n      dup3\n        /* \"#utility.yul\":1334:1371   */\n      mstore\n        /* \"#utility.yul\":1259:1377   */\n      pop\n      pop\n      jump\t// out\n        /* \"#utility.yul\":1383:1501   */\n    tag_160:\n        /* \"#utility.yul\":1470:1494   */\n      tag_235\n        /* \"#utility.yul\":1488:1493   */\n      dup2\n        /* \"#utility.yul\":1470:1494   */\n      tag_154\n      jump\t// in\n    tag_235:\n        /* \"#utility.yul\":1465:1468   */\n      dup3\n        /* \"#utility.yul\":1458:1495   */\n      mstore\n        /* \"#utility.yul\":1383:1501   */\n      pop\n      pop\n      jump\t// out\n        /* \"#utility.yul\":1507:2060   */\n    tag_27:\n        /* \"#utility.yul\":1684:1688   */\n      0x00\n        /* \"#utility.yul\":1722:1725   */\n      0x80\n        /* \"#utility.yul\":1711:1720   */\n      dup3\n        /* \"#utility.yul\":1707:1726   */\n      add\n        /* \"#utility.yul\":1699:1726   */\n      swap1\n      pop\n        /* \"#utility.yul\":1736:1807   */\n      tag_237\n        /* \"#utility.yul\":1804:1805   */\n      0x00\n        /* \"#utility.yul\":1793:1802   */\n      dup4\n        /* \"#utility.yul\":1789:1806   */\n      add\n        /* \"#utility.yul\":1780:1786   */\n      dup8\n        /* \"#utility.yul\":1736:1807   */\n      tag_159\n      jump\t// in\n    tag_237:\n        /* \"#utility.yul\":1817:1889   */\n      tag_238\n        /* \"#utility.yul\":1885:1887   */\n      0x20\n        /* \"#utility.yul\":1874:1883   */\n      dup4\n        /* \"#utility.yul\":1870:1888   */\n      add\n        /* \"#utility.yul\":1861:1867   */\n      dup7\n        /* \"#utility.yul\":1817:1889   */\n      tag_159\n      jump\t// in\n    tag_238:\n        /* \"#utility.yul\":1899:1971   */\n      tag_239\n        /* \"#utility.yul\":1967:1969   */\n      0x40\n        /* \"#utility.yul\":1956:1965   */\n      dup4\n        /* \"#utility.yul\":1952:1970   */\n      add\n        /* \"#utility.yul\":1943:1949   */\n      dup6\n        /* \"#utility.yul\":1899:1971   */\n      tag_160\n      jump\t// in\n    tag_239:\n        /* \"#utility.yul\":1981:2053   */\n      tag_240\n        /* \"#utility.yul\":2049:2051   */\n      0x60\n        /* \"#utility.yul\":2038:2047   */\n      dup4\n        /* \"#utility.yul\":2034:2052   */\n      add\n        /* \"#utility.yul\":2025:2031   */\n      dup5\n        /* \"#utility.yul\":1981:2053   */\n      tag_160\n      jump\t// in\n    tag_240:\n        /* \"#utility.yul\":1507:2060   */\n      swap6\n      swap5\n      pop\n      pop\n      pop\n      pop\n      pop\n      jump\t// out\n        /* \"#utility.yul\":2066:2188   */\n    tag_161:\n        /* \"#utility.yul\":2139:2163   */\n      tag_242\n        /* \"#utility.yul\":2157:2162   */\n      dup2\n        /* \"#utility.yul\":2139:2163   */\n      tag_158\n      jump\t// in\n    tag_242:\n        /* \"#utility.yul\":2132:2137   */\n      dup2\n        /* \"#utility.yul\":2129:2164   */\n      eq\n        /* \"#utility.yul\":2119:2182   */\n      tag_243\n      jumpi\n        /* \"#utility.yul\":2178:2179   */\n      0x00\n        /* \"#utility.yul\":2175:2176   */\n      dup1\n        /* \"#utility.yul\":2168:2180   */\n      revert\n        /* \"#utility.yul\":2119:2182   */\n    tag_243:\n        /* \"#utility.yul\":2066:2188   */\n      pop\n      jump\t// out\n        /* \"#utility.yul\":2194:2333   */\n    tag_162:\n        /* \"#utility.yul\":2240:2245   */\n      0x00\n        /* \"#utility.yul\":2278:2284   */\n      dup2\n        /* \"#utility.yul\":2265:2285   */\n      calldataload\n        /* \"#utility.yul\":2256:2285   */\n      swap1\n      pop\n        /* \"#utility.yul\":2294:2327   */\n      tag_245\n        /* \"#utility.yul\":2321:2326   */\n      dup2\n        /* \"#utility.yul\":2294:2327   */\n      tag_161\n      jump\t// in\n    tag_245:\n        /* \"#utility.yul\":2194:2333   */\n      swap3\n      swap2\n      pop\n      pop\n      jump\t// out\n        /* \"#utility.yul\":2339:2813   */\n    tag_30:\n        /* \"#utility.yul\":2407:2413   */\n      0x00\n        /* \"#utility.yul\":2415:2421   */\n      dup1\n        /* \"#utility.yul\":2464:2466   */\n      0x40\n        /* \"#utility.yul\":2452:2461   */\n      dup4\n        /* \"#utility.yul\":2443:2450   */\n      dup6\n        /* \"#utility.yul\":2439:2462   */\n      sub\n        /* \"#utility.yul\":2435:2467   */\n      slt\n        /* \"#utility.yul\":2432:2551   */\n      iszero\n      tag_247\n      jumpi\n        /* \"#utility.yul\":2470:2549   */\n      tag_248\n      tag_152\n      jump\t// in\n    tag_248:\n        /* \"#utility.yul\":2432:2551   */\n    tag_247:\n        /* \"#utility.yul\":2590:2591   */\n      0x00\n        /* \"#utility.yul\":2615:2668   */\n      tag_249\n        /* \"#utility.yul\":2660:2667   */\n      dup6\n        /* \"#utility.yul\":2651:2657   */\n      dup3\n        /* \"#utility.yul\":2640:2649   */\n      dup7\n        /* \"#utility.yul\":2636:2658   */\n      add\n        /* \"#utility.yul\":2615:2668   */\n      tag_156\n      jump\t// in\n    tag_249:\n        /* \"#utility.yul\":2605:2668   */\n      swap3\n      pop\n        /* \"#utility.yul\":2561:2678   */\n      pop\n        /* \"#utility.yul\":2717:2719   */\n      0x20\n        /* \"#utility.yul\":2743:2796   */\n      tag_250\n        /* \"#utility.yul\":2788:2795   */\n      dup6\n        /* \"#utility.yul\":2779:2785   */\n      dup3\n        /* \"#utility.yul\":2768:2777   */\n      dup7\n        /* \"#utility.yul\":2764:2786   */\n      add\n        /* \"#utility.yul\":2743:2796   */\n      tag_162\n      jump\t// in\n    tag_250:\n        /* \"#utility.yul\":2733:2796   */\n      swap2\n      pop\n        /* \"#utility.yul\":2688:2806   */\n      pop\n        /* \"#utility.yul\":2339:2813   */\n      swap3\n      pop\n      swap3\n      swap1\n      pop\n      jump\t// out\n        /* \"#utility.yul\":2819:3041   */\n    tag_35:\n        /* \"#utility.yul\":2912:2916   */\n      0x00\n        /* \"#utility.yul\":2950:2952   */\n      0x20\n        /* \"#utility.yul\":2939:2948   */\n      dup3\n        /* \"#utility.yul\":2935:2953   */\n      add\n        /* \"#utility.yul\":2927:2953   */\n      swap1\n      pop\n        /* \"#utility.yul\":2963:3034   */\n      tag_252\n        /* \"#utility.yul\":3031:3032   */\n      0x00\n        /* \"#utility.yul\":3020:3029   */\n      dup4\n        /* \"#utility.yul\":3016:3033   */\n      add\n        /* \"#utility.yul\":3007:3013   */\n      dup5\n        /* \"#utility.yul\":2963:3034   */\n      tag_160\n      jump\t// in\n    tag_252:\n        /* \"#utility.yul\":2819:3041   */\n      swap3\n      swap2\n      pop\n      pop\n      jump\t// out\n        /* \"#utility.yul\":3047:3164   */\n    tag_163:\n        /* \"#utility.yul\":3156:3157   */\n      0x00\n        /* \"#utility.yul\":3153:3154   */\n      dup1\n        /* \"#utility.yul\":3146:3158   */\n      revert\n        /* \"#utility.yul\":3170:3287   */\n    tag_164:\n        /* \"#utility.yul\":3279:3280   */\n      0x00\n        /* \"#utility.yul\":3276:3277   */\n      dup1\n        /* \"#utility.yul\":3269:3281   */\n      revert\n        /* \"#utility.yul\":3293:3395   */\n    tag_165:\n        /* \"#utility.yul\":3334:3340   */\n      0x00\n        /* \"#utility.yul\":3385:3387   */\n      0x1f\n        /* \"#utility.yul\":3381:3388   */\n      not\n        /* \"#utility.yul\":3376:3378   */\n      0x1f\n        /* \"#utility.yul\":3369:3374   */\n      dup4\n        /* \"#utility.yul\":3365:3379   */\n      add\n        /* \"#utility.yul\":3361:3389   */\n      and\n        /* \"#utility.yul\":3351:3389   */\n      swap1\n      pop\n        /* \"#utility.yul\":3293:3395   */\n      swap2\n      swap1\n      pop\n      jump\t// out\n        /* \"#utility.yul\":3401:3581   */\n    tag_166:\n        /* \"#utility.yul\":3449:3526   */\n      0x4e487b7100000000000000000000000000000000000000000000000000000000\n        /* \"#utility.yul\":3446:3447   */\n      0x00\n        /* \"#utility.yul\":3439:3527   */\n      mstore\n        /* \"#utility.yul\":3546:3550   */\n      0x41\n        /* \"#utility.yul\":3543:3544   */\n      0x04\n        /* \"#utility.yul\":3536:3551   */\n      mstore\n        /* \"#utility.yul\":3570:3574   */\n      0x24\n        /* \"#utility.yul\":3567:3568   */\n      0x00\n        /* \"#utility.yul\":3560:3575   */\n      revert\n        /* \"#utility.yul\":3587:3868   */\n    tag_167:\n        /* \"#utility.yul\":3670:3697   */\n      tag_258\n        /* \"#utility.yul\":3692:3696   */\n      dup3\n        /* \"#utility.yul\":3670:3697   */\n      tag_165\n      jump\t// in\n    tag_258:\n        /* \"#utility.yul\":3662:3668   */\n      dup2\n        /* \"#utility.yul\":3658:3698   */\n      add\n        /* \"#utility.yul\":3800:3806   */\n      dup2\n        /* \"#utility.yul\":3788:3798   */\n      dup2\n        /* \"#utility.yul\":3785:3807   */\n      lt\n        /* \"#utility.yul\":3764:3782   */\n      0xffffffffffffffff\n        /* \"#utility.yul\":3752:3762   */\n      dup3\n        /* \"#utility.yul\":3749:3783   */\n      gt\n        /* \"#utility.yul\":3746:3808   */\n      or\n        /* \"#utility.yul\":3743:3831   */\n      iszero\n      tag_259\n      jumpi\n        /* \"#utility.yul\":3811:3829   */\n      tag_260\n      tag_166\n      jump\t// in\n    tag_260:\n        /* \"#utility.yul\":3743:3831   */\n    tag_259:\n        /* \"#utility.yul\":3851:3861   */\n      dup1\n        /* \"#utility.yul\":3847:3849   */\n      0x40\n        /* \"#utility.yul\":3840:3862   */\n      mstore\n        /* \"#utility.yul\":3630:3868   */\n      pop\n        /* \"#utility.yul\":3587:3868   */\n      pop\n      pop\n      jump\t// out\n        /* \"#utility.yul\":3874:4003   */\n    tag_168:\n        /* \"#utility.yul\":3908:3914   */\n      0x00\n        /* \"#utility.yul\":3935:3955   */\n      tag_262\n      tag_151\n      jump\t// in\n    tag_262:\n        /* \"#utility.yul\":3925:3955   */\n      swap1\n      pop\n        /* \"#utility.yul\":3964:3997   */\n      tag_263\n        /* \"#utility.yul\":3992:3996   */\n      dup3\n        /* \"#utility.yul\":3984:3990   */\n      dup3\n        /* \"#utility.yul\":3964:3997   */\n      tag_167\n      jump\t// in\n    tag_263:\n        /* \"#utility.yul\":3874:4003   */\n      swap2\n      swap1\n      pop\n      jump\t// out\n        /* \"#utility.yul\":4009:4317   */\n    tag_169:\n        /* \"#utility.yul\":4071:4075   */\n      0x00\n        /* \"#utility.yul\":4161:4179   */\n      0xffffffffffffffff\n        /* \"#utility.yul\":4153:4159   */\n      dup3\n        /* \"#utility.yul\":4150:4180   */\n      gt\n        /* \"#utility.yul\":4147:4203   */\n      iszero\n      tag_265\n      jumpi\n        /* \"#utility.yul\":4183:4201   */\n      tag_266\n      tag_166\n      jump\t// in\n    tag_266:\n        /* \"#utility.yul\":4147:4203   */\n    tag_265:\n        /* \"#utility.yul\":4221:4250   */\n      tag_267\n        /* \"#utility.yul\":4243:4249   */\n      dup3\n        /* \"#utility.yul\":4221:4250   */\n      tag_165\n      jump\t// in\n    tag_267:\n        /* \"#utility.yul\":4213:4250   */\n      swap1\n      pop\n        /* \"#utility.yul\":4305:4309   */\n      0x20\n        /* \"#utility.yul\":4299:4303   */\n      dup2\n        /* \"#utility.yul\":4295:4310   */\n      add\n        /* \"#utility.yul\":4287:4310   */\n      swap1\n      pop\n        /* \"#utility.yul\":4009:4317   */\n      swap2\n      swap1\n      pop\n      jump\t// out\n        /* \"#utility.yul\":4323:4469   */\n    tag_170:\n        /* \"#utility.yul\":4420:4426   */\n      dup3\n        /* \"#utility.yul\":4415:4418   */\n      dup2\n        /* \"#utility.yul\":4410:4413   */\n      dup4\n        /* \"#utility.yul\":4397:4427   */\n      calldatacopy\n        /* \"#utility.yul\":4461:4462   */\n      0x00\n        /* \"#utility.yul\":4452:4458   */\n      dup4\n        /* \"#utility.yul\":4447:4450   */\n      dup4\n        /* \"#utility.yul\":4443:4459   */\n      add\n        /* \"#utility.yul\":4436:4463   */\n      mstore\n        /* \"#utility.yul\":4323:4469   */\n      pop\n      pop\n      pop\n      jump\t// out\n        /* \"#utility.yul\":4475:4900   */\n    tag_171:\n        /* \"#utility.yul\":4553:4558   */\n      0x00\n        /* \"#utility.yul\":4578:4644   */\n      tag_270\n        /* \"#utility.yul\":4594:4643   */\n      tag_271\n        /* \"#utility.yul\":4636:4642   */\n      dup5\n        /* \"#utility.yul\":4594:4643   */\n      tag_169\n      jump\t// in\n    tag_271:\n        /* \"#utility.yul\":4578:4644   */\n      tag_168\n      jump\t// in\n    tag_270:\n        /* \"#utility.yul\":4569:4644   */\n      swap1\n      pop\n        /* \"#utility.yul\":4667:4673   */\n      dup3\n        /* \"#utility.yul\":4660:4665   */\n      dup2\n        /* \"#utility.yul\":4653:4674   */\n      mstore\n        /* \"#utility.yul\":4705:4709   */\n      0x20\n        /* \"#utility.yul\":4698:4703   */\n      dup2\n        /* \"#utility.yul\":4694:4710   */\n      add\n        /* \"#utility.yul\":4743:4746   */\n      dup5\n        /* \"#utility.yul\":4734:4740   */\n      dup5\n        /* \"#utility.yul\":4729:4732   */\n      dup5\n        /* \"#utility.yul\":4725:4741   */\n      add\n        /* \"#utility.yul\":4722:4747   */\n      gt\n        /* \"#utility.yul\":4719:4831   */\n      iszero\n      tag_272\n      jumpi\n        /* \"#utility.yul\":4750:4829   */\n      tag_273\n      tag_164\n      jump\t// in\n    tag_273:\n        /* \"#utility.yul\":4719:4831   */\n    tag_272:\n        /* \"#utility.yul\":4840:4894   */\n      tag_274\n        /* \"#utility.yul\":4887:4893   */\n      dup5\n        /* \"#utility.yul\":4882:4885   */\n      dup3\n        /* \"#utility.yul\":4877:4880   */\n      dup6\n        /* \"#utility.yul\":4840:4894   */\n      tag_170\n      jump\t// in\n    tag_274:\n        /* \"#utility.yul\":4559:4900   */\n      pop\n        /* \"#utility.yul\":4475:4900   */\n      swap4\n      swap3\n      pop\n      pop\n      pop\n      jump\t// out\n        /* \"#utility.yul\":4920:5260   */\n    tag_172:\n        /* \"#utility.yul\":4976:4981   */\n      0x00\n        /* \"#utility.yul\":5025:5028   */\n      dup3\n        /* \"#utility.yul\":5018:5022   */\n      0x1f\n        /* \"#utility.yul\":5010:5016   */\n      dup4\n        /* \"#utility.yul\":5006:5023   */\n      add\n        /* \"#utility.yul\":5002:5029   */\n      slt\n        /* \"#utility.yul\":4992:5114   */\n      tag_276\n      jumpi\n        /* \"#utility.yul\":5033:5112   */\n      tag_277\n      tag_163\n      jump\t// in\n    tag_277:\n        /* \"#utility.yul\":4992:5114   */\n    tag_276:\n        /* \"#utility.yul\":5150:5156   */\n      dup2\n        /* \"#utility.yul\":5137:5157   */\n      calldataload\n        /* \"#utility.yul\":5175:5254   */\n      tag_278\n        /* \"#utility.yul\":5250:5253   */\n      dup5\n        /* \"#utility.yul\":5242:5248   */\n      dup3\n        /* \"#utility.yul\":5235:5239   */\n      0x20\n        /* \"#utility.yul\":5227:5233   */\n      dup7\n        /* \"#utility.yul\":5223:5240   */\n      add\n        /* \"#utility.yul\":5175:5254   */\n      tag_171\n      jump\t// in\n    tag_278:\n        /* \"#utility.yul\":5166:5254   */\n      swap2\n      pop\n        /* \"#utility.yul\":4982:5260   */\n      pop\n        /* \"#utility.yul\":4920:5260   */\n      swap3\n      swap2\n      pop\n      pop\n      jump\t// out\n        /* \"#utility.yul\":5266:6100   */\n    tag_38:\n        /* \"#utility.yul\":5354:5360   */\n      0x00\n        /* \"#utility.yul\":5362:5368   */\n      dup1\n        /* \"#utility.yul\":5411:5413   */\n      0x40\n        /* \"#utility.yul\":5399:5408   */\n      dup4\n        /* \"#utility.yul\":5390:5397   */\n      dup6\n        /* \"#utility.yul\":5386:5409   */\n      sub\n        /* \"#utility.yul\":5382:5414   */\n      slt\n        /* \"#utility.yul\":5379:5498   */\n      iszero\n      tag_280\n      jumpi\n        /* \"#utility.yul\":5417:5496   */\n      tag_281\n      tag_152\n      jump\t// in\n    tag_281:\n        /* \"#utility.yul\":5379:5498   */\n    tag_280:\n        /* \"#utility.yul\":5565:5566   */\n      0x00\n        /* \"#utility.yul\":5554:5563   */\n      dup4\n        /* \"#utility.yul\":5550:5567   */\n      add\n        /* \"#utility.yul\":5537:5568   */\n      calldataload\n        /* \"#utility.yul\":5595:5613   */\n      0xffffffffffffffff\n        /* \"#utility.yul\":5587:5593   */\n      dup2\n        /* \"#utility.yul\":5584:5614   */\n      gt\n        /* \"#utility.yul\":5581:5698   */\n      iszero\n      tag_282\n      jumpi\n        /* \"#utility.yul\":5617:5696   */\n      tag_283\n      tag_153\n      jump\t// in\n    tag_283:\n        /* \"#utility.yul\":5581:5698   */\n    tag_282:\n        /* \"#utility.yul\":5722:5785   */\n      tag_284\n        /* \"#utility.yul\":5777:5784   */\n      dup6\n        /* \"#utility.yul\":5768:5774   */\n      dup3\n        /* \"#utility.yul\":5757:5766   */\n      dup7\n        /* \"#utility.yul\":5753:5775   */\n      add\n        /* \"#utility.yul\":5722:5785   */\n      tag_172\n      jump\t// in\n    tag_284:\n        /* \"#utility.yul\":5712:5785   */\n      swap3\n      pop\n        /* \"#utility.yul\":5508:5795   */\n      pop\n        /* \"#utility.yul\":5862:5864   */\n      0x20\n        /* \"#utility.yul\":5851:5860   */\n      dup4\n        /* \"#utility.yul\":5847:5865   */\n      add\n        /* \"#utility.yul\":5834:5866   */\n      calldataload\n        /* \"#utility.yul\":5893:5911   */\n      0xffffffffffffffff\n        /* \"#utility.yul\":5885:5891   */\n      dup2\n        /* \"#utility.yul\":5882:5912   */\n      gt\n        /* \"#utility.yul\":5879:5996   */\n      iszero\n      tag_285\n      jumpi\n        /* \"#utility.yul\":5915:5994   */\n      tag_286\n      tag_153\n      jump\t// in\n    tag_286:\n        /* \"#utility.yul\":5879:5996   */\n    tag_285:\n        /* \"#utility.yul\":6020:6083   */\n      tag_287\n        /* \"#utility.yul\":6075:6082   */\n      dup6\n        /* \"#utility.yul\":6066:6072   */\n      dup3\n        /* \"#utility.yul\":6055:6064   */\n      dup7\n        /* \"#utility.yul\":6051:6073   */\n      add\n        /* \"#utility.yul\":6020:6083   */\n      tag_172\n      jump\t// in\n    tag_287:\n        /* \"#utility.yul\":6010:6083   */\n      swap2\n      pop\n        /* \"#utility.yul\":5805:6093   */\n      pop\n        /* \"#utility.yul\":5266:6100   */\n      swap3\n      pop\n      swap3\n      swap1\n      pop\n      jump\t// out\n        /* \"#utility.yul\":6106:6196   */\n    tag_173:\n        /* \"#utility.yul\":6140:6147   */\n      0x00\n        /* \"#utility.yul\":6183:6188   */\n      dup2\n        /* \"#utility.yul\":6176:6189   */\n      iszero\n        /* \"#utility.yul\":6169:6190   */\n      iszero\n        /* \"#utility.yul\":6158:6190   */\n      swap1\n      pop\n        /* \"#utility.yul\":6106:6196   */\n      swap2\n      swap1\n      pop\n      jump\t// out\n        /* \"#utility.yul\":6202:6311   */\n    tag_174:\n        /* \"#utility.yul\":6283:6304   */\n      tag_290\n        /* \"#utility.yul\":6298:6303   */\n      dup2\n        /* \"#utility.yul\":6283:6304   */\n      tag_173\n      jump\t// in\n    tag_290:\n        /* \"#utility.yul\":6278:6281   */\n      dup3\n        /* \"#utility.yul\":6271:6305   */\n      mstore\n        /* \"#utility.yul\":6202:6311   */\n      pop\n      pop\n      jump\t// out\n        /* \"#utility.yul\":6317:6527   */\n    tag_43:\n        /* \"#utility.yul\":6404:6408   */\n      0x00\n        /* \"#utility.yul\":6442:6444   */\n      0x20\n        /* \"#utility.yul\":6431:6440   */\n      dup3\n        /* \"#utility.yul\":6427:6445   */\n      add\n        /* \"#utility.yul\":6419:6445   */\n      swap1\n      pop\n        /* \"#utility.yul\":6455:6520   */\n      tag_292\n        /* \"#utility.yul\":6517:6518   */\n      0x00\n        /* \"#utility.yul\":6506:6515   */\n      dup4\n        /* \"#utility.yul\":6502:6519   */\n      add\n        /* \"#utility.yul\":6493:6499   */\n      dup5\n        /* \"#utility.yul\":6455:6520   */\n      tag_174\n      jump\t// in\n    tag_292:\n        /* \"#utility.yul\":6317:6527   */\n      swap3\n      swap2\n      pop\n      pop\n      jump\t// out\n        /* \"#utility.yul\":6533:6632   */\n    tag_175:\n        /* \"#utility.yul\":6585:6591   */\n      0x00\n        /* \"#utility.yul\":6619:6624   */\n      dup2\n        /* \"#utility.yul\":6613:6625   */\n      mload\n        /* \"#utility.yul\":6603:6625   */\n      swap1\n      pop\n        /* \"#utility.yul\":6533:6632   */\n      swap2\n      swap1\n      pop\n      jump\t// out\n        /* \"#utility.yul\":6638:6807   */\n    tag_176:\n        /* \"#utility.yul\":6722:6733   */\n      0x00\n        /* \"#utility.yul\":6756:6762   */\n      dup3\n        /* \"#utility.yul\":6751:6754   */\n      dup3\n        /* \"#utility.yul\":6744:6763   */\n      mstore\n        /* \"#utility.yul\":6796:6800   */\n      0x20\n        /* \"#utility.yul\":6791:6794   */\n      dup3\n        /* \"#utility.yul\":6787:6801   */\n      add\n        /* \"#utility.yul\":6772:6801   */\n      swap1\n      pop\n        /* \"#utility.yul\":6638:6807   */\n      swap3\n      swap2\n      pop\n      pop\n      jump\t// out\n        /* \"#utility.yul\":6813:7059   */\n    tag_177:\n        /* \"#utility.yul\":6894:6895   */\n      0x00\n        /* \"#utility.yul\":6904:7017   */\n    tag_296:\n        /* \"#utility.yul\":6918:6924   */\n      dup4\n        /* \"#utility.yul\":6915:6916   */\n      dup2\n        /* \"#utility.yul\":6912:6925   */\n      lt\n        /* \"#utility.yul\":6904:7017   */\n      iszero\n      tag_298\n      jumpi\n        /* \"#utility.yul\":7003:7004   */\n      dup1\n        /* \"#utility.yul\":6998:7001   */\n      dup3\n        /* \"#utility.yul\":6994:7005   */\n      add\n        /* \"#utility.yul\":6988:7006   */\n      mload\n        /* \"#utility.yul\":6984:6985   */\n      dup2\n        /* \"#utility.yul\":6979:6982   */\n      dup5\n        /* \"#utility.yul\":6975:6986   */\n      add\n        /* \"#utility.yul\":6968:7007   */\n      mstore\n        /* \"#utility.yul\":6940:6942   */\n      0x20\n        /* \"#utility.yul\":6937:6938   */\n      dup2\n        /* \"#utility.yul\":6933:6943   */\n      add\n        /* \"#utility.yul\":6928:6943   */\n      swap1\n      pop\n        /* \"#utility.yul\":6904:7017   */\n      jump(tag_296)\n    tag_298:\n        /* \"#utility.yul\":7051:7052   */\n      0x00\n        /* \"#utility.yul\":7042:7048   */\n      dup5\n        /* \"#utility.yul\":7037:7040   */\n      dup5\n        /* \"#utility.yul\":7033:7049   */\n      add\n        /* \"#utility.yul\":7026:7053   */\n      mstore\n        /* \"#utility.yul\":6875:7059   */\n      pop\n        /* \"#utility.yul\":6813:7059   */\n      pop\n      pop\n      pop\n      jump\t// out\n        /* \"#utility.yul\":7065:7442   */\n    tag_178:\n        /* \"#utility.yul\":7153:7156   */\n      0x00\n        /* \"#utility.yul\":7181:7220   */\n      tag_300\n        /* \"#utility.yul\":7214:7219   */\n      dup3\n        /* \"#utility.yul\":7181:7220   */\n      tag_175\n      jump\t// in\n    tag_300:\n        /* \"#utility.yul\":7236:7307   */\n      tag_301\n        /* \"#utility.yul\":7300:7306   */\n      dup2\n        /* \"#utility.yul\":7295:7298   */\n      dup6\n        /* \"#utility.yul\":7236:7307   */\n      tag_176\n      jump\t// in\n    tag_301:\n        /* \"#utility.yul\":7229:7307   */\n      swap4\n      pop\n        /* \"#utility.yul\":7316:7381   */\n      tag_302\n        /* \"#utility.yul\":7374:7380   */\n      dup2\n        /* \"#utility.yul\":7369:7372   */\n      dup6\n        /* \"#utility.yul\":7362:7366   */\n      0x20\n        /* \"#utility.yul\":7355:7360   */\n      dup7\n        /* \"#utility.yul\":7351:7367   */\n      add\n        /* \"#utility.yul\":7316:7381   */\n      tag_177\n      jump\t// in\n    tag_302:\n        /* \"#utility.yul\":7406:7435   */\n      tag_303\n        /* \"#utility.yul\":7428:7434   */\n      dup2\n        /* \"#utility.yul\":7406:7435   */\n      tag_165\n      jump\t// in\n    tag_303:\n        /* \"#utility.yul\":7401:7404   */\n      dup5\n        /* \"#utility.yul\":7397:7436   */\n      add\n        /* \"#utility.yul\":7390:7436   */\n      swap2\n      pop\n        /* \"#utility.yul\":7157:7442   */\n      pop\n        /* \"#utility.yul\":7065:7442   */\n      swap3\n      swap2\n      pop\n      pop\n      jump\t// out\n        /* \"#utility.yul\":7448:7761   */\n    tag_47:\n        /* \"#utility.yul\":7561:7565   */\n      0x00\n        /* \"#utility.yul\":7599:7601   */\n      0x20\n        /* \"#utility.yul\":7588:7597   */\n      dup3\n        /* \"#utility.yul\":7584:7602   */\n      add\n        /* \"#utility.yul\":7576:7602   */\n      swap1\n      pop\n        /* \"#utility.yul\":7648:7657   */\n      dup2\n        /* \"#utility.yul\":7642:7646   */\n      dup2\n        /* \"#utility.yul\":7638:7658   */\n      sub\n        /* \"#utility.yul\":7634:7635   */\n      0x00\n        /* \"#utility.yul\":7623:7632   */\n      dup4\n        /* \"#utility.yul\":7619:7636   */\n      add\n        /* \"#utility.yul\":7612:7659   */\n      mstore\n        /* \"#utility.yul\":7676:7754   */\n      tag_305\n        /* \"#utility.yul\":7749:7753   */\n      dup2\n        /* \"#utility.yul\":7740:7746   */\n      dup5\n        /* \"#utility.yul\":7676:7754   */\n      tag_178\n      jump\t// in\n    tag_305:\n        /* \"#utility.yul\":7668:7754   */\n      swap1\n      pop\n        /* \"#utility.yul\":7448:7761   */\n      swap3\n      swap2\n      pop\n      pop\n      jump\t// out\n        /* \"#utility.yul\":7767:7910   */\n    tag_179:\n        /* \"#utility.yul\":7863:7869   */\n      0x00\n        /* \"#utility.yul\":7897:7902   */\n      dup2\n        /* \"#utility.yul\":7891:7903   */\n      mload\n        /* \"#utility.yul\":7881:7903   */\n      swap1\n      pop\n        /* \"#utility.yul\":7767:7910   */\n      swap2\n      swap1\n      pop\n      jump\t// out\n        /* \"#utility.yul\":7916:8129   */\n    tag_180:\n        /* \"#utility.yul\":8044:8055   */\n      0x00\n        /* \"#utility.yul\":8078:8084   */\n      dup3\n        /* \"#utility.yul\":8073:8076   */\n      dup3\n        /* \"#utility.yul\":8066:8085   */\n      mstore\n        /* \"#utility.yul\":8118:8122   */\n      0x20\n        /* \"#utility.yul\":8113:8116   */\n      dup3\n        /* \"#utility.yul\":8109:8123   */\n      add\n        /* \"#utility.yul\":8094:8123   */\n      swap1\n      pop\n        /* \"#utility.yul\":7916:8129   */\n      swap3\n      swap2\n      pop\n      pop\n      jump\t// out\n        /* \"#utility.yul\":8135:8296   */\n    tag_181:\n        /* \"#utility.yul\":8231:8235   */\n      0x00\n        /* \"#utility.yul\":8254:8257   */\n      dup2\n        /* \"#utility.yul\":8246:8257   */\n      swap1\n      pop\n        /* \"#utility.yul\":8284:8288   */\n      0x20\n        /* \"#utility.yul\":8279:8282   */\n      dup3\n        /* \"#utility.yul\":8275:8289   */\n      add\n        /* \"#utility.yul\":8267:8289   */\n      swap1\n      pop\n        /* \"#utility.yul\":8135:8296   */\n      swap2\n      swap1\n      pop\n      jump\t// out\n        /* \"#utility.yul\":8302:8410   */\n    tag_182:\n        /* \"#utility.yul\":8379:8403   */\n      tag_310\n        /* \"#utility.yul\":8397:8402   */\n      dup2\n        /* \"#utility.yul\":8379:8403   */\n      tag_158\n      jump\t// in\n    tag_310:\n        /* \"#utility.yul\":8374:8377   */\n      dup3\n        /* \"#utility.yul\":8367:8404   */\n      mstore\n        /* \"#utility.yul\":8302:8410   */\n      pop\n      pop\n      jump\t// out\n        /* \"#utility.yul\":8416:8524   */\n    tag_183:\n        /* \"#utility.yul\":8493:8517   */\n      tag_312\n        /* \"#utility.yul\":8511:8516   */\n      dup2\n        /* \"#utility.yul\":8493:8517   */\n      tag_154\n      jump\t// in\n    tag_312:\n        /* \"#utility.yul\":8488:8491   */\n      dup3\n        /* \"#utility.yul\":8481:8518   */\n      mstore\n        /* \"#utility.yul\":8416:8524   */\n      pop\n      pop\n      jump\t// out\n        /* \"#utility.yul\":8604:9478   */\n    tag_184:\n        /* \"#utility.yul\":8749:8753   */\n      0x80\n        /* \"#utility.yul\":8744:8747   */\n      dup3\n        /* \"#utility.yul\":8740:8754   */\n      add\n        /* \"#utility.yul\":8844:8848   */\n      0x00\n        /* \"#utility.yul\":8837:8842   */\n      dup3\n        /* \"#utility.yul\":8833:8849   */\n      add\n        /* \"#utility.yul\":8827:8850   */\n      mload\n        /* \"#utility.yul\":8863:8926   */\n      tag_314\n        /* \"#utility.yul\":8920:8924   */\n      0x00\n        /* \"#utility.yul\":8915:8918   */\n      dup6\n        /* \"#utility.yul\":8911:8925   */\n      add\n        /* \"#utility.yul\":8897:8909   */\n      dup3\n        /* \"#utility.yul\":8863:8926   */\n      tag_182\n      jump\t// in\n    tag_314:\n        /* \"#utility.yul\":8764:8936   */\n      pop\n        /* \"#utility.yul\":9024:9028   */\n      0x20\n        /* \"#utility.yul\":9017:9022   */\n      dup3\n        /* \"#utility.yul\":9013:9029   */\n      add\n        /* \"#utility.yul\":9007:9030   */\n      mload\n        /* \"#utility.yul\":9043:9106   */\n      tag_315\n        /* \"#utility.yul\":9100:9104   */\n      0x20\n        /* \"#utility.yul\":9095:9098   */\n      dup6\n        /* \"#utility.yul\":9091:9105   */\n      add\n        /* \"#utility.yul\":9077:9089   */\n      dup3\n        /* \"#utility.yul\":9043:9106   */\n      tag_182\n      jump\t// in\n    tag_315:\n        /* \"#utility.yul\":8946:9116   */\n      pop\n        /* \"#utility.yul\":9200:9204   */\n      0x40\n        /* \"#utility.yul\":9193:9198   */\n      dup3\n        /* \"#utility.yul\":9189:9205   */\n      add\n        /* \"#utility.yul\":9183:9206   */\n      mload\n        /* \"#utility.yul\":9219:9282   */\n      tag_316\n        /* \"#utility.yul\":9276:9280   */\n      0x40\n        /* \"#utility.yul\":9271:9274   */\n      dup6\n        /* \"#utility.yul\":9267:9281   */\n      add\n        /* \"#utility.yul\":9253:9265   */\n      dup3\n        /* \"#utility.yul\":9219:9282   */\n      tag_183\n      jump\t// in\n    tag_316:\n        /* \"#utility.yul\":9126:9292   */\n      pop\n        /* \"#utility.yul\":9379:9383   */\n      0x60\n        /* \"#utility.yul\":9372:9377   */\n      dup3\n        /* \"#utility.yul\":9368:9384   */\n      add\n        /* \"#utility.yul\":9362:9385   */\n      mload\n        /* \"#utility.yul\":9398:9461   */\n      tag_317\n        /* \"#utility.yul\":9455:9459   */\n      0x60\n        /* \"#utility.yul\":9450:9453   */\n      dup6\n        /* \"#utility.yul\":9446:9460   */\n      add\n        /* \"#utility.yul\":9432:9444   */\n      dup3\n        /* \"#utility.yul\":9398:9461   */\n      tag_183\n      jump\t// in\n    tag_317:\n        /* \"#utility.yul\":9302:9471   */\n      pop\n        /* \"#utility.yul\":8718:9478   */\n      pop\n        /* \"#utility.yul\":8604:9478   */\n      pop\n      pop\n      jump\t// out\n        /* \"#utility.yul\":9484:9779   */\n    tag_185:\n        /* \"#utility.yul\":9611:9621   */\n      0x00\n        /* \"#utility.yul\":9632:9736   */\n      tag_319\n        /* \"#utility.yul\":9732:9735   */\n      dup4\n        /* \"#utility.yul\":9724:9730   */\n      dup4\n        /* \"#utility.yul\":9632:9736   */\n      tag_184\n      jump\t// in\n    tag_319:\n        /* \"#utility.yul\":9768:9772   */\n      0x80\n        /* \"#utility.yul\":9763:9766   */\n      dup4\n        /* \"#utility.yul\":9759:9773   */\n      add\n        /* \"#utility.yul\":9745:9773   */\n      swap1\n      pop\n        /* \"#utility.yul\":9484:9779   */\n      swap3\n      swap2\n      pop\n      pop\n      jump\t// out\n        /* \"#utility.yul\":9785:9927   */\n    tag_186:\n        /* \"#utility.yul\":9884:9888   */\n      0x00\n        /* \"#utility.yul\":9916:9920   */\n      0x20\n        /* \"#utility.yul\":9911:9914   */\n      dup3\n        /* \"#utility.yul\":9907:9921   */\n      add\n        /* \"#utility.yul\":9899:9921   */\n      swap1\n      pop\n        /* \"#utility.yul\":9785:9927   */\n      swap2\n      swap1\n      pop\n      jump\t// out\n        /* \"#utility.yul\":10011:10975   */\n    tag_187:\n        /* \"#utility.yul\":10188:10191   */\n      0x00\n        /* \"#utility.yul\":10217:10300   */\n      tag_322\n        /* \"#utility.yul\":10294:10299   */\n      dup3\n        /* \"#utility.yul\":10217:10300   */\n      tag_179\n      jump\t// in\n    tag_322:\n        /* \"#utility.yul\":10316:10431   */\n      tag_323\n        /* \"#utility.yul\":10424:10430   */\n      dup2\n        /* \"#utility.yul\":10419:10422   */\n      dup6\n        /* \"#utility.yul\":10316:10431   */\n      tag_180\n      jump\t// in\n    tag_323:\n        /* \"#utility.yul\":10309:10431   */\n      swap4\n      pop\n        /* \"#utility.yul\":10455:10540   */\n      tag_324\n        /* \"#utility.yul\":10534:10539   */\n      dup4\n        /* \"#utility.yul\":10455:10540   */\n      tag_181\n      jump\t// in\n    tag_324:\n        /* \"#utility.yul\":10563:10570   */\n      dup1\n        /* \"#utility.yul\":10594:10595   */\n      0x00\n        /* \"#utility.yul\":10579:10950   */\n    tag_325:\n        /* \"#utility.yul\":10604:10610   */\n      dup4\n        /* \"#utility.yul\":10601:10602   */\n      dup2\n        /* \"#utility.yul\":10598:10611   */\n      lt\n        /* \"#utility.yul\":10579:10950   */\n      iszero\n      tag_327\n      jumpi\n        /* \"#utility.yul\":10680:10686   */\n      dup2\n        /* \"#utility.yul\":10674:10687   */\n      mload\n        /* \"#utility.yul\":10707:10828   */\n      tag_328\n        /* \"#utility.yul\":10824:10827   */\n      dup9\n        /* \"#utility.yul\":10809:10822   */\n      dup3\n        /* \"#utility.yul\":10707:10828   */\n      tag_185\n      jump\t// in\n    tag_328:\n        /* \"#utility.yul\":10700:10828   */\n      swap8\n      pop\n        /* \"#utility.yul\":10851:10940   */\n      tag_329\n        /* \"#utility.yul\":10933:10939   */\n      dup4\n        /* \"#utility.yul\":10851:10940   */\n      tag_186\n      jump\t// in\n    tag_329:\n        /* \"#utility.yul\":10841:10940   */\n      swap3\n      pop\n        /* \"#utility.yul\":10639:10950   */\n      pop\n        /* \"#utility.yul\":10626:10627   */\n      0x01\n        /* \"#utility.yul\":10623:10624   */\n      dup2\n        /* \"#utility.yul\":10619:10628   */\n      add\n        /* \"#utility.yul\":10614:10628   */\n      swap1\n      pop\n        /* \"#utility.yul\":10579:10950   */\n      jump(tag_325)\n    tag_327:\n        /* \"#utility.yul\":10583:10597   */\n      pop\n        /* \"#utility.yul\":10966:10969   */\n      dup6\n        /* \"#utility.yul\":10959:10969   */\n      swap4\n      pop\n        /* \"#utility.yul\":10193:10975   */\n      pop\n      pop\n      pop\n        /* \"#utility.yul\":10011:10975   */\n      swap3\n      swap2\n      pop\n      pop\n      jump\t// out\n        /* \"#utility.yul\":10981:11470   */\n    tag_57:\n        /* \"#utility.yul\":11182:11186   */\n      0x00\n        /* \"#utility.yul\":11220:11222   */\n      0x20\n        /* \"#utility.yul\":11209:11218   */\n      dup3\n        /* \"#utility.yul\":11205:11223   */\n      add\n        /* \"#utility.yul\":11197:11223   */\n      swap1\n      pop\n        /* \"#utility.yul\":11269:11278   */\n      dup2\n        /* \"#utility.yul\":11263:11267   */\n      dup2\n        /* \"#utility.yul\":11259:11279   */\n      sub\n        /* \"#utility.yul\":11255:11256   */\n      0x00\n        /* \"#utility.yul\":11244:11253   */\n      dup4\n        /* \"#utility.yul\":11240:11257   */\n      add\n        /* \"#utility.yul\":11233:11280   */\n      mstore\n        /* \"#utility.yul\":11297:11463   */\n      tag_331\n        /* \"#utility.yul\":11458:11462   */\n      dup2\n        /* \"#utility.yul\":11449:11455   */\n      dup5\n        /* \"#utility.yul\":11297:11463   */\n      tag_187\n      jump\t// in\n    tag_331:\n        /* \"#utility.yul\":11289:11463   */\n      swap1\n      pop\n        /* \"#utility.yul\":10981:11470   */\n      swap3\n      swap2\n      pop\n      pop\n      jump\t// out\n        /* \"#utility.yul\":11476:12241   */\n    tag_71:\n        /* \"#utility.yul\":11562:11568   */\n      0x00\n        /* \"#utility.yul\":11570:11576   */\n      dup1\n        /* \"#utility.yul\":11578:11584   */\n      0x00\n        /* \"#utility.yul\":11586:11592   */\n      dup1\n        /* \"#utility.yul\":11635:11638   */\n      0x80\n        /* \"#utility.yul\":11623:11632   */\n      dup6\n        /* \"#utility.yul\":11614:11621   */\n      dup8\n        /* \"#utility.yul\":11610:11633   */\n      sub\n        /* \"#utility.yul\":11606:11639   */\n      slt\n        /* \"#utility.yul\":11603:11723   */\n      iszero\n      tag_333\n      jumpi\n        /* \"#utility.yul\":11642:11721   */\n      tag_334\n      tag_152\n      jump\t// in\n    tag_334:\n        /* \"#utility.yul\":11603:11723   */\n    tag_333:\n        /* \"#utility.yul\":11762:11763   */\n      0x00\n        /* \"#utility.yul\":11787:11840   */\n      tag_335\n        /* \"#utility.yul\":11832:11839   */\n      dup8\n        /* \"#utility.yul\":11823:11829   */\n      dup3\n        /* \"#utility.yul\":11812:11821   */\n      dup9\n        /* \"#utility.yul\":11808:11830   */\n      add\n        /* \"#utility.yul\":11787:11840   */\n      tag_162\n      jump\t// in\n    tag_335:\n        /* \"#utility.yul\":11777:11840   */\n      swap5\n      pop\n        /* \"#utility.yul\":11733:11850   */\n      pop\n        /* \"#utility.yul\":11889:11891   */\n      0x20\n        /* \"#utility.yul\":11915:11968   */\n      tag_336\n        /* \"#utility.yul\":11960:11967   */\n      dup8\n        /* \"#utility.yul\":11951:11957   */\n      dup3\n        /* \"#utility.yul\":11940:11949   */\n      dup9\n        /* \"#utility.yul\":11936:11958   */\n      add\n        /* \"#utility.yul\":11915:11968   */\n      tag_162\n      jump\t// in\n    tag_336:\n        /* \"#utility.yul\":11905:11968   */\n      swap4\n      pop\n        /* \"#utility.yul\":11860:11978   */\n      pop\n        /* \"#utility.yul\":12017:12019   */\n      0x40\n        /* \"#utility.yul\":12043:12096   */\n      tag_337\n        /* \"#utility.yul\":12088:12095   */\n      dup8\n        /* \"#utility.yul\":12079:12085   */\n      dup3\n        /* \"#utility.yul\":12068:12077   */\n      dup9\n        /* \"#utility.yul\":12064:12086   */\n      add\n        /* \"#utility.yul\":12043:12096   */\n      tag_156\n      jump\t// in\n    tag_337:\n        /* \"#utility.yul\":12033:12096   */\n      swap3\n      pop\n        /* \"#utility.yul\":11988:12106   */\n      pop\n        /* \"#utility.yul\":12145:12147   */\n      0x60\n        /* \"#utility.yul\":12171:12224   */\n      tag_338\n        /* \"#utility.yul\":12216:12223   */\n      dup8\n        /* \"#utility.yul\":12207:12213   */\n      dup3\n        /* \"#utility.yul\":12196:12205   */\n      dup9\n        /* \"#utility.yul\":12192:12214   */\n      add\n        /* \"#utility.yul\":12171:12224   */\n      tag_156\n      jump\t// in\n    tag_338:\n        /* \"#utility.yul\":12161:12224   */\n      swap2\n      pop\n        /* \"#utility.yul\":12116:12234   */\n      pop\n        /* \"#utility.yul\":11476:12241   */\n      swap3\n      swap6\n      swap2\n      swap5\n      pop\n      swap3\n      pop\n      jump\t// out\n        /* \"#utility.yul\":12247:12425   */\n    tag_188:\n        /* \"#utility.yul\":12387:12417   */\n      0x2054686973206164647265737320646f65736e27742065786973747300000000\n        /* \"#utility.yul\":12383:12384   */\n      0x00\n        /* \"#utility.yul\":12375:12381   */\n      dup3\n        /* \"#utility.yul\":12371:12385   */\n      add\n        /* \"#utility.yul\":12364:12418   */\n      mstore\n        /* \"#utility.yul\":12247:12425   */\n      pop\n      jump\t// out\n        /* \"#utility.yul\":12431:12797   */\n    tag_189:\n        /* \"#utility.yul\":12573:12576   */\n      0x00\n        /* \"#utility.yul\":12594:12661   */\n      tag_341\n        /* \"#utility.yul\":12658:12660   */\n      0x1c\n        /* \"#utility.yul\":12653:12656   */\n      dup4\n        /* \"#utility.yul\":12594:12661   */\n      tag_176\n      jump\t// in\n    tag_341:\n        /* \"#utility.yul\":12587:12661   */\n      swap2\n      pop\n        /* \"#utility.yul\":12670:12763   */\n      tag_342\n        /* \"#utility.yul\":12759:12762   */\n      dup3\n        /* \"#utility.yul\":12670:12763   */\n      tag_188\n      jump\t// in\n    tag_342:\n        /* \"#utility.yul\":12788:12790   */\n      0x20\n        /* \"#utility.yul\":12783:12786   */\n      dup3\n        /* \"#utility.yul\":12779:12791   */\n      add\n        /* \"#utility.yul\":12772:12791   */\n      swap1\n      pop\n        /* \"#utility.yul\":12431:12797   */\n      swap2\n      swap1\n      pop\n      jump\t// out\n        /* \"#utility.yul\":12803:13222   */\n    tag_84:\n        /* \"#utility.yul\":12969:12973   */\n      0x00\n        /* \"#utility.yul\":13007:13009   */\n      0x20\n        /* \"#utility.yul\":12996:13005   */\n      dup3\n        /* \"#utility.yul\":12992:13010   */\n      add\n        /* \"#utility.yul\":12984:13010   */\n      swap1\n      pop\n        /* \"#utility.yul\":13056:13065   */\n      dup2\n        /* \"#utility.yul\":13050:13054   */\n      dup2\n        /* \"#utility.yul\":13046:13066   */\n      sub\n        /* \"#utility.yul\":13042:13043   */\n      0x00\n        /* \"#utility.yul\":13031:13040   */\n      dup4\n        /* \"#utility.yul\":13027:13044   */\n      add\n        /* \"#utility.yul\":13020:13067   */\n      mstore\n        /* \"#utility.yul\":13084:13215   */\n      tag_344\n        /* \"#utility.yul\":13210:13214   */\n      dup2\n        /* \"#utility.yul\":13084:13215   */\n      tag_189\n      jump\t// in\n    tag_344:\n        /* \"#utility.yul\":13076:13215   */\n      swap1\n      pop\n        /* \"#utility.yul\":12803:13222   */\n      swap2\n      swap1\n      pop\n      jump\t// out\n        /* \"#utility.yul\":13228:13401   */\n    tag_190:\n        /* \"#utility.yul\":13368:13393   */\n      0x506c6561736520696e7365727420796f75722063617264000000000000000000\n        /* \"#utility.yul\":13364:13365   */\n      0x00\n        /* \"#utility.yul\":13356:13362   */\n      dup3\n        /* \"#utility.yul\":13352:13366   */\n      add\n        /* \"#utility.yul\":13345:13394   */\n      mstore\n        /* \"#utility.yul\":13228:13401   */\n      pop\n      jump\t// out\n        /* \"#utility.yul\":13407:13773   */\n    tag_191:\n        /* \"#utility.yul\":13549:13552   */\n      0x00\n        /* \"#utility.yul\":13570:13637   */\n      tag_347\n        /* \"#utility.yul\":13634:13636   */\n      0x17\n        /* \"#utility.yul\":13629:13632   */\n      dup4\n        /* \"#utility.yul\":13570:13637   */\n      tag_176\n      jump\t// in\n    tag_347:\n        /* \"#utility.yul\":13563:13637   */\n      swap2\n      pop\n        /* \"#utility.yul\":13646:13739   */\n      tag_348\n        /* \"#utility.yul\":13735:13738   */\n      dup3\n        /* \"#utility.yul\":13646:13739   */\n      tag_190\n      jump\t// in\n    tag_348:\n        /* \"#utility.yul\":13764:13766   */\n      0x20\n        /* \"#utility.yul\":13759:13762   */\n      dup3\n        /* \"#utility.yul\":13755:13767   */\n      add\n        /* \"#utility.yul\":13748:13767   */\n      swap1\n      pop\n        /* \"#utility.yul\":13407:13773   */\n      swap2\n      swap1\n      pop\n      jump\t// out\n        /* \"#utility.yul\":13779:14198   */\n    tag_88:\n        /* \"#utility.yul\":13945:13949   */\n      0x00\n        /* \"#utility.yul\":13983:13985   */\n      0x20\n        /* \"#utility.yul\":13972:13981   */\n      dup3\n        /* \"#utility.yul\":13968:13986   */\n      add\n        /* \"#utility.yul\":13960:13986   */\n      swap1\n      pop\n        /* \"#utility.yul\":14032:14041   */\n      dup2\n        /* \"#utility.yul\":14026:14030   */\n      dup2\n        /* \"#utility.yul\":14022:14042   */\n      sub\n        /* \"#utility.yul\":14018:14019   */\n      0x00\n        /* \"#utility.yul\":14007:14016   */\n      dup4\n        /* \"#utility.yul\":14003:14020   */\n      add\n        /* \"#utility.yul\":13996:14043   */\n      mstore\n        /* \"#utility.yul\":14060:14191   */\n      tag_350\n        /* \"#utility.yul\":14186:14190   */\n      dup2\n        /* \"#utility.yul\":14060:14191   */\n      tag_191\n      jump\t// in\n    tag_350:\n        /* \"#utility.yul\":14052:14191   */\n      swap1\n      pop\n        /* \"#utility.yul\":13779:14198   */\n      swap2\n      swap1\n      pop\n      jump\t// out\n        /* \"#utility.yul\":14204:14384   */\n    tag_192:\n        /* \"#utility.yul\":14252:14329   */\n      0x4e487b7100000000000000000000000000000000000000000000000000000000\n        /* \"#utility.yul\":14249:14250   */\n      0x00\n        /* \"#utility.yul\":14242:14330   */\n      mstore\n        /* \"#utility.yul\":14349:14353   */\n      0x11\n        /* \"#utility.yul\":14346:14347   */\n      0x04\n        /* \"#utility.yul\":14339:14354   */\n      mstore\n        /* \"#utility.yul\":14373:14377   */\n      0x24\n        /* \"#utility.yul\":14370:14371   */\n      0x00\n        /* \"#utility.yul\":14363:14378   */\n      revert\n        /* \"#utility.yul\":14390:14581   */\n    tag_92:\n        /* \"#utility.yul\":14430:14433   */\n      0x00\n        /* \"#utility.yul\":14449:14469   */\n      tag_353\n        /* \"#utility.yul\":14467:14468   */\n      dup3\n        /* \"#utility.yul\":14449:14469   */\n      tag_154\n      jump\t// in\n    tag_353:\n        /* \"#utility.yul\":14444:14469   */\n      swap2\n      pop\n        /* \"#utility.yul\":14483:14503   */\n      tag_354\n        /* \"#utility.yul\":14501:14502   */\n      dup4\n        /* \"#utility.yul\":14483:14503   */\n      tag_154\n      jump\t// in\n    tag_354:\n        /* \"#utility.yul\":14478:14503   */\n      swap3\n      pop\n        /* \"#utility.yul\":14526:14527   */\n      dup3\n        /* \"#utility.yul\":14523:14524   */\n      dup3\n        /* \"#utility.yul\":14519:14528   */\n      add\n        /* \"#utility.yul\":14512:14528   */\n      swap1\n      pop\n        /* \"#utility.yul\":14547:14550   */\n      dup1\n        /* \"#utility.yul\":14544:14545   */\n      dup3\n        /* \"#utility.yul\":14541:14551   */\n      gt\n        /* \"#utility.yul\":14538:14574   */\n      iszero\n      tag_355\n      jumpi\n        /* \"#utility.yul\":14554:14572   */\n      tag_356\n      tag_192\n      jump\t// in\n    tag_356:\n        /* \"#utility.yul\":14538:14574   */\n    tag_355:\n        /* \"#utility.yul\":14390:14581   */\n      swap3\n      swap2\n      pop\n      pop\n      jump\t// out\n        /* \"#utility.yul\":14587:14767   */\n    tag_96:\n        /* \"#utility.yul\":14635:14712   */\n      0x4e487b7100000000000000000000000000000000000000000000000000000000\n        /* \"#utility.yul\":14632:14633   */\n      0x00\n        /* \"#utility.yul\":14625:14713   */\n      mstore\n        /* \"#utility.yul\":14732:14736   */\n      0x01\n        /* \"#utility.yul\":14729:14730   */\n      0x04\n        /* \"#utility.yul\":14722:14737   */\n      mstore\n        /* \"#utility.yul\":14756:14760   */\n      0x24\n        /* \"#utility.yul\":14753:14754   */\n      0x00\n        /* \"#utility.yul\":14746:14761   */\n      revert\n        /* \"#utility.yul\":14773:14950   */\n    tag_193:\n        /* \"#utility.yul\":14913:14942   */\n      0x6f6e6c792035207472616e73616374696f6e7320706572206461790000000000\n        /* \"#utility.yul\":14909:14910   */\n      0x00\n        /* \"#utility.yul\":14901:14907   */\n      dup3\n        /* \"#utility.yul\":14897:14911   */\n      add\n        /* \"#utility.yul\":14890:14943   */\n      mstore\n        /* \"#utility.yul\":14773:14950   */\n      pop\n      jump\t// out\n        /* \"#utility.yul\":14956:15322   */\n    tag_194:\n        /* \"#utility.yul\":15098:15101   */\n      0x00\n        /* \"#utility.yul\":15119:15186   */\n      tag_360\n        /* \"#utility.yul\":15183:15185   */\n      0x1b\n        /* \"#utility.yul\":15178:15181   */\n      dup4\n        /* \"#utility.yul\":15119:15186   */\n      tag_176\n      jump\t// in\n    tag_360:\n        /* \"#utility.yul\":15112:15186   */\n      swap2\n      pop\n        /* \"#utility.yul\":15195:15288   */\n      tag_361\n        /* \"#utility.yul\":15284:15287   */\n      dup3\n        /* \"#utility.yul\":15195:15288   */\n      tag_193\n      jump\t// in\n    tag_361:\n        /* \"#utility.yul\":15313:15315   */\n      0x20\n        /* \"#utility.yul\":15308:15311   */\n      dup3\n        /* \"#utility.yul\":15304:15316   */\n      add\n        /* \"#utility.yul\":15297:15316   */\n      swap1\n      pop\n        /* \"#utility.yul\":14956:15322   */\n      swap2\n      swap1\n      pop\n      jump\t// out\n        /* \"#utility.yul\":15328:15747   */\n    tag_98:\n        /* \"#utility.yul\":15494:15498   */\n      0x00\n        /* \"#utility.yul\":15532:15534   */\n      0x20\n        /* \"#utility.yul\":15521:15530   */\n      dup3\n        /* \"#utility.yul\":15517:15535   */\n      add\n        /* \"#utility.yul\":15509:15535   */\n      swap1\n      pop\n        /* \"#utility.yul\":15581:15590   */\n      dup2\n        /* \"#utility.yul\":15575:15579   */\n      dup2\n        /* \"#utility.yul\":15571:15591   */\n      sub\n        /* \"#utility.yul\":15567:15568   */\n      0x00\n        /* \"#utility.yul\":15556:15565   */\n      dup4\n        /* \"#utility.yul\":15552:15569   */\n      add\n        /* \"#utility.yul\":15545:15592   */\n      mstore\n        /* \"#utility.yul\":15609:15740   */\n      tag_363\n        /* \"#utility.yul\":15735:15739   */\n      dup2\n        /* \"#utility.yul\":15609:15740   */\n      tag_194\n      jump\t// in\n    tag_363:\n        /* \"#utility.yul\":15601:15740   */\n      swap1\n      pop\n        /* \"#utility.yul\":15328:15747   */\n      swap2\n      swap1\n      pop\n      jump\t// out\n        /* \"#utility.yul\":15753:15947   */\n    tag_109:\n        /* \"#utility.yul\":15793:15797   */\n      0x00\n        /* \"#utility.yul\":15813:15833   */\n      tag_365\n        /* \"#utility.yul\":15831:15832   */\n      dup3\n        /* \"#utility.yul\":15813:15833   */\n      tag_154\n      jump\t// in\n    tag_365:\n        /* \"#utility.yul\":15808:15833   */\n      swap2\n      pop\n        /* \"#utility.yul\":15847:15867   */\n      tag_366\n        /* \"#utility.yul\":15865:15866   */\n      dup4\n        /* \"#utility.yul\":15847:15867   */\n      tag_154\n      jump\t// in\n    tag_366:\n        /* \"#utility.yul\":15842:15867   */\n      swap3\n      pop\n        /* \"#utility.yul\":15891:15892   */\n      dup3\n        /* \"#utility.yul\":15888:15889   */\n      dup3\n        /* \"#utility.yul\":15884:15893   */\n      sub\n        /* \"#utility.yul\":15876:15893   */\n      swap1\n      pop\n        /* \"#utility.yul\":15915:15916   */\n      dup2\n        /* \"#utility.yul\":15909:15913   */\n      dup2\n        /* \"#utility.yul\":15906:15917   */\n      gt\n        /* \"#utility.yul\":15903:15940   */\n      iszero\n      tag_367\n      jumpi\n        /* \"#utility.yul\":15920:15938   */\n      tag_368\n      tag_192\n      jump\t// in\n    tag_368:\n        /* \"#utility.yul\":15903:15940   */\n    tag_367:\n        /* \"#utility.yul\":15753:15947   */\n      swap3\n      swap2\n      pop\n      pop\n      jump\t// out\n        /* \"#utility.yul\":15953:16133   */\n    tag_195:\n        /* \"#utility.yul\":16001:16078   */\n      0x4e487b7100000000000000000000000000000000000000000000000000000000\n        /* \"#utility.yul\":15998:15999   */\n      0x00\n        /* \"#utility.yul\":15991:16079   */\n      mstore\n        /* \"#utility.yul\":16098:16102   */\n      0x22\n        /* \"#utility.yul\":16095:16096   */\n      0x04\n        /* \"#utility.yul\":16088:16103   */\n      mstore\n        /* \"#utility.yul\":16122:16126   */\n      0x24\n        /* \"#utility.yul\":16119:16120   */\n      0x00\n        /* \"#utility.yul\":16112:16127   */\n      revert\n        /* \"#utility.yul\":16139:16459   */\n    tag_122:\n        /* \"#utility.yul\":16183:16189   */\n      0x00\n        /* \"#utility.yul\":16220:16221   */\n      0x02\n        /* \"#utility.yul\":16214:16218   */\n      dup3\n        /* \"#utility.yul\":16210:16222   */\n      div\n        /* \"#utility.yul\":16200:16222   */\n      swap1\n      pop\n        /* \"#utility.yul\":16267:16268   */\n      0x01\n        /* \"#utility.yul\":16261:16265   */\n      dup3\n        /* \"#utility.yul\":16257:16269   */\n      and\n        /* \"#utility.yul\":16288:16306   */\n      dup1\n        /* \"#utility.yul\":16278:16359   */\n      tag_371\n      jumpi\n        /* \"#utility.yul\":16344:16348   */\n      0x7f\n        /* \"#utility.yul\":16336:16342   */\n      dup3\n        /* \"#utility.yul\":16332:16349   */\n      and\n        /* \"#utility.yul\":16322:16349   */\n      swap2\n      pop\n        /* \"#utility.yul\":16278:16359   */\n    tag_371:\n        /* \"#utility.yul\":16406:16408   */\n      0x20\n        /* \"#utility.yul\":16398:16404   */\n      dup3\n        /* \"#utility.yul\":16395:16409   */\n      lt\n        /* \"#utility.yul\":16375:16393   */\n      dup2\n        /* \"#utility.yul\":16372:16410   */\n      sub\n        /* \"#utility.yul\":16369:16453   */\n      tag_372\n      jumpi\n        /* \"#utility.yul\":16425:16443   */\n      tag_373\n      tag_195\n      jump\t// in\n    tag_373:\n        /* \"#utility.yul\":16369:16453   */\n    tag_372:\n        /* \"#utility.yul\":16190:16459   */\n      pop\n        /* \"#utility.yul\":16139:16459   */\n      swap2\n      swap1\n      pop\n      jump\t// out\n        /* \"#utility.yul\":16465:16606   */\n    tag_196:\n        /* \"#utility.yul\":16514:16518   */\n      0x00\n        /* \"#utility.yul\":16537:16540   */\n      dup2\n        /* \"#utility.yul\":16529:16540   */\n      swap1\n      pop\n        /* \"#utility.yul\":16560:16563   */\n      dup2\n        /* \"#utility.yul\":16557:16558   */\n      0x00\n        /* \"#utility.yul\":16550:16564   */\n      mstore\n        /* \"#utility.yul\":16594:16598   */\n      0x20\n        /* \"#utility.yul\":16591:16592   */\n      0x00\n        /* \"#utility.yul\":16581:16599   */\n      keccak256\n        /* \"#utility.yul\":16573:16599   */\n      swap1\n      pop\n        /* \"#utility.yul\":16465:16606   */\n      swap2\n      swap1\n      pop\n      jump\t// out\n        /* \"#utility.yul\":16612:16705   */\n    tag_197:\n        /* \"#utility.yul\":16649:16655   */\n      0x00\n        /* \"#utility.yul\":16696:16698   */\n      0x20\n        /* \"#utility.yul\":16691:16693   */\n      0x1f\n        /* \"#utility.yul\":16684:16689   */\n      dup4\n        /* \"#utility.yul\":16680:16694   */\n      add\n        /* \"#utility.yul\":16676:16699   */\n      div\n        /* \"#utility.yul\":16666:16699   */\n      swap1\n      pop\n        /* \"#utility.yul\":16612:16705   */\n      swap2\n      swap1\n      pop\n      jump\t// out\n        /* \"#utility.yul\":16711:16818   */\n    tag_198:\n        /* \"#utility.yul\":16755:16763   */\n      0x00\n        /* \"#utility.yul\":16805:16810   */\n      dup3\n        /* \"#utility.yul\":16799:16803   */\n      dup3\n        /* \"#utility.yul\":16795:16811   */\n      shl\n        /* \"#utility.yul\":16774:16811   */\n      swap1\n      pop\n        /* \"#utility.yul\":16711:16818   */\n      swap3\n      swap2\n      pop\n      pop\n      jump\t// out\n        /* \"#utility.yul\":16824:17217   */\n    tag_199:\n        /* \"#utility.yul\":16893:16899   */\n      0x00\n        /* \"#utility.yul\":16943:16944   */\n      0x08\n        /* \"#utility.yul\":16931:16941   */\n      dup4\n        /* \"#utility.yul\":16927:16945   */\n      mul\n        /* \"#utility.yul\":16966:17063   */\n      tag_378\n        /* \"#utility.yul\":16996:17062   */\n      0xffffffffffffffffffffffffffffffffffffffffffffffffffffffffffffffff\n        /* \"#utility.yul\":16985:16994   */\n      dup3\n        /* \"#utility.yul\":16966:17063   */\n      tag_198\n      jump\t// in\n    tag_378:\n        /* \"#utility.yul\":17084:17123   */\n      tag_379\n        /* \"#utility.yul\":17114:17122   */\n      dup7\n        /* \"#utility.yul\":17103:17112   */\n      dup4\n        /* \"#utility.yul\":17084:17123   */\n      tag_198\n      jump\t// in\n    tag_379:\n        /* \"#utility.yul\":17072:17123   */\n      swap6\n      pop\n        /* \"#utility.yul\":17156:17160   */\n      dup1\n        /* \"#utility.yul\":17152:17161   */\n      not\n        /* \"#utility.yul\":17145:17150   */\n      dup5\n        /* \"#utility.yul\":17141:17162   */\n      and\n        /* \"#utility.yul\":17132:17162   */\n      swap4\n      pop\n        /* \"#utility.yul\":17205:17209   */\n      dup1\n        /* \"#utility.yul\":17195:17203   */\n      dup7\n        /* \"#utility.yul\":17191:17210   */\n      and\n        /* \"#utility.yul\":17184:17189   */\n      dup5\n        /* \"#utility.yul\":17181:17211   */\n      or\n        /* \"#utility.yul\":17171:17211   */\n      swap3\n      pop\n        /* \"#utility.yul\":16900:17217   */\n      pop\n      pop\n        /* \"#utility.yul\":16824:17217   */\n      swap4\n      swap3\n      pop\n      pop\n      pop\n      jump\t// out\n        /* \"#utility.yul\":17223:17283   */\n    tag_200:\n        /* \"#utility.yul\":17251:17254   */\n      0x00\n        /* \"#utility.yul\":17272:17277   */\n      dup2\n        /* \"#utility.yul\":17265:17277   */\n      swap1\n      pop\n        /* \"#utility.yul\":17223:17283   */\n      swap2\n      swap1\n      pop\n      jump\t// out\n        /* \"#utility.yul\":17289:17431   */\n    tag_201:\n        /* \"#utility.yul\":17339:17348   */\n      0x00\n        /* \"#utility.yul\":17372:17425   */\n      tag_382\n        /* \"#utility.yul\":17390:17424   */\n      tag_383\n        /* \"#utility.yul\":17399:17423   */\n      tag_384\n        /* \"#utility.yul\":17417:17422   */\n      dup5\n        /* \"#utility.yul\":17399:17423   */\n      tag_154\n      jump\t// in\n    tag_384:\n        /* \"#utility.yul\":17390:17424   */\n      tag_200\n      jump\t// in\n    tag_383:\n        /* \"#utility.yul\":17372:17425   */\n      tag_154\n      jump\t// in\n    tag_382:\n        /* \"#utility.yul\":17359:17425   */\n      swap1\n      pop\n        /* \"#utility.yul\":17289:17431   */\n      swap2\n      swap1\n      pop\n      jump\t// out\n        /* \"#utility.yul\":17437:17512   */\n    tag_202:\n        /* \"#utility.yul\":17480:17483   */\n      0x00\n        /* \"#utility.yul\":17501:17506   */\n      dup2\n        /* \"#utility.yul\":17494:17506   */\n      swap1\n      pop\n        /* \"#utility.yul\":17437:17512   */\n      swap2\n      swap1\n      pop\n      jump\t// out\n        /* \"#utility.yul\":17518:17787   */\n    tag_203:\n        /* \"#utility.yul\":17628:17667   */\n      tag_387\n        /* \"#utility.yul\":17659:17666   */\n      dup4\n        /* \"#utility.yul\":17628:17667   */\n      tag_201\n      jump\t// in\n    tag_387:\n        /* \"#utility.yul\":17689:17780   */\n      tag_388\n        /* \"#utility.yul\":17738:17779   */\n      tag_389\n        /* \"#utility.yul\":17762:17778   */\n      dup3\n        /* \"#utility.yul\":17738:17779   */\n      tag_202\n      jump\t// in\n    tag_389:\n        /* \"#utility.yul\":17730:17736   */\n      dup5\n        /* \"#utility.yul\":17723:17727   */\n      dup5\n        /* \"#utility.yul\":17717:17728   */\n      sload\n        /* \"#utility.yul\":17689:17780   */\n      tag_199\n      jump\t// in\n    tag_388:\n        /* \"#utility.yul\":17683:17687   */\n      dup3\n        /* \"#utility.yul\":17676:17781   */\n      sstore\n        /* \"#utility.yul\":17594:17787   */\n      pop\n        /* \"#utility.yul\":17518:17787   */\n      pop\n      pop\n      pop\n      jump\t// out\n        /* \"#utility.yul\":17793:17866   */\n    tag_204:\n        /* \"#utility.yul\":17838:17841   */\n      0x00\n        /* \"#utility.yul\":17793:17866   */\n      swap1\n      jump\t// out\n        /* \"#utility.yul\":17872:18061   */\n    tag_205:\n        /* \"#utility.yul\":17949:17981   */\n      tag_392\n      tag_204\n      jump\t// in\n    tag_392:\n        /* \"#utility.yul\":17990:18055   */\n      tag_393\n        /* \"#utility.yul\":18048:18054   */\n      dup2\n        /* \"#utility.yul\":18040:18046   */\n      dup5\n        /* \"#utility.yul\":18034:18038   */\n      dup5\n        /* \"#utility.yul\":17990:18055   */\n      tag_203\n      jump\t// in\n    tag_393:\n        /* \"#utility.yul\":17925:18061   */\n      pop\n        /* \"#utility.yul\":17872:18061   */\n      pop\n      pop\n      jump\t// out\n        /* \"#utility.yul\":18067:18253   */\n    tag_206:\n        /* \"#utility.yul\":18127:18247   */\n    tag_395:\n        /* \"#utility.yul\":18144:18147   */\n      dup2\n        /* \"#utility.yul\":18137:18142   */\n      dup2\n        /* \"#utility.yul\":18134:18148   */\n      lt\n        /* \"#utility.yul\":18127:18247   */\n      iszero\n      tag_397\n      jumpi\n        /* \"#utility.yul\":18198:18237   */\n      tag_398\n        /* \"#utility.yul\":18235:18236   */\n      0x00\n        /* \"#utility.yul\":18228:18233   */\n      dup3\n        /* \"#utility.yul\":18198:18237   */\n      tag_205\n      jump\t// in\n    tag_398:\n        /* \"#utility.yul\":18171:18172   */\n      0x01\n        /* \"#utility.yul\":18164:18169   */\n      dup2\n        /* \"#utility.yul\":18160:18173   */\n      add\n        /* \"#utility.yul\":18151:18173   */\n      swap1\n      pop\n        /* \"#utility.yul\":18127:18247   */\n      jump(tag_395)\n    tag_397:\n        /* \"#utility.yul\":18067:18253   */\n      pop\n      pop\n      jump\t// out\n        /* \"#utility.yul\":18259:18802   */\n    tag_207:\n        /* \"#utility.yul\":18360:18362   */\n      0x1f\n        /* \"#utility.yul\":18355:18358   */\n      dup3\n        /* \"#utility.yul\":18352:18363   */\n      gt\n        /* \"#utility.yul\":18349:18795   */\n      iszero\n      tag_400\n      jumpi\n        /* \"#utility.yul\":18394:18432   */\n      tag_401\n        /* \"#utility.yul\":18426:18431   */\n      dup2\n        /* \"#utility.yul\":18394:18432   */\n      tag_196\n      jump\t// in\n    tag_401:\n        /* \"#utility.yul\":18478:18507   */\n      tag_402\n        /* \"#utility.yul\":18496:18506   */\n      dup5\n        /* \"#utility.yul\":18478:18507   */\n      tag_197\n      jump\t// in\n    tag_402:\n        /* \"#utility.yul\":18468:18476   */\n      dup2\n        /* \"#utility.yul\":18464:18508   */\n      add\n        /* \"#utility.yul\":18661:18663   */\n      0x20\n        /* \"#utility.yul\":18649:18659   */\n      dup6\n        /* \"#utility.yul\":18646:18664   */\n      lt\n        /* \"#utility.yul\":18643:18692   */\n      iszero\n      tag_403\n      jumpi\n        /* \"#utility.yul\":18682:18690   */\n      dup2\n        /* \"#utility.yul\":18667:18690   */\n      swap1\n      pop\n        /* \"#utility.yul\":18643:18692   */\n    tag_403:\n        /* \"#utility.yul\":18705:18785   */\n      tag_404\n        /* \"#utility.yul\":18761:18783   */\n      tag_405\n        /* \"#utility.yul\":18779:18782   */\n      dup6\n        /* \"#utility.yul\":18761:18783   */\n      tag_197\n      jump\t// in\n    tag_405:\n        /* \"#utility.yul\":18751:18759   */\n      dup4\n        /* \"#utility.yul\":18747:18784   */\n      add\n        /* \"#utility.yul\":18734:18745   */\n      dup3\n        /* \"#utility.yul\":18705:18785   */\n      tag_206\n      jump\t// in\n    tag_404:\n        /* \"#utility.yul\":18364:18795   */\n      pop\n      pop\n        /* \"#utility.yul\":18349:18795   */\n    tag_400:\n        /* \"#utility.yul\":18259:18802   */\n      pop\n      pop\n      pop\n      jump\t// out\n        /* \"#utility.yul\":18808:18925   */\n    tag_208:\n        /* \"#utility.yul\":18862:18870   */\n      0x00\n        /* \"#utility.yul\":18912:18917   */\n      dup3\n        /* \"#utility.yul\":18906:18910   */\n      dup3\n        /* \"#utility.yul\":18902:18918   */\n      shr\n        /* \"#utility.yul\":18881:18918   */\n      swap1\n      pop\n        /* \"#utility.yul\":18808:18925   */\n      swap3\n      swap2\n      pop\n      pop\n      jump\t// out\n        /* \"#utility.yul\":18931:19100   */\n    tag_209:\n        /* \"#utility.yul\":18975:18981   */\n      0x00\n        /* \"#utility.yul\":19008:19059   */\n      tag_408\n        /* \"#utility.yul\":19056:19057   */\n      0x00\n        /* \"#utility.yul\":19052:19058   */\n      not\n        /* \"#utility.yul\":19044:19049   */\n      dup5\n        /* \"#utility.yul\":19041:19042   */\n      0x08\n        /* \"#utility.yul\":19037:19050   */\n      mul\n        /* \"#utility.yul\":19008:19059   */\n      tag_208\n      jump\t// in\n    tag_408:\n        /* \"#utility.yul\":19004:19060   */\n      not\n        /* \"#utility.yul\":19089:19093   */\n      dup1\n        /* \"#utility.yul\":19083:19087   */\n      dup4\n        /* \"#utility.yul\":19079:19094   */\n      and\n        /* \"#utility.yul\":19069:19094   */\n      swap2\n      pop\n        /* \"#utility.yul\":18982:19100   */\n      pop\n        /* \"#utility.yul\":18931:19100   */\n      swap3\n      swap2\n      pop\n      pop\n      jump\t// out\n        /* \"#utility.yul\":19105:19400   */\n    tag_210:\n        /* \"#utility.yul\":19181:19185   */\n      0x00\n        /* \"#utility.yul\":19327:19356   */\n      tag_410\n        /* \"#utility.yul\":19352:19355   */\n      dup4\n        /* \"#utility.yul\":19346:19350   */\n      dup4\n        /* \"#utility.yul\":19327:19356   */\n      tag_209\n      jump\t// in\n    tag_410:\n        /* \"#utility.yul\":19319:19356   */\n      swap2\n      pop\n        /* \"#utility.yul\":19389:19392   */\n      dup3\n        /* \"#utility.yul\":19386:19387   */\n      0x02\n        /* \"#utility.yul\":19382:19393   */\n      mul\n        /* \"#utility.yul\":19376:19380   */\n      dup3\n        /* \"#utility.yul\":19373:19394   */\n      or\n        /* \"#utility.yul\":19365:19394   */\n      swap1\n      pop\n        /* \"#utility.yul\":19105:19400   */\n      swap3\n      swap2\n      pop\n      pop\n      jump\t// out\n        /* \"#utility.yul\":19405:20800   */\n    tag_113:\n        /* \"#utility.yul\":19522:19559   */\n      tag_412\n        /* \"#utility.yul\":19555:19558   */\n      dup3\n        /* \"#utility.yul\":19522:19559   */\n      tag_175\n      jump\t// in\n    tag_412:\n        /* \"#utility.yul\":19624:19642   */\n      0xffffffffffffffff\n        /* \"#utility.yul\":19616:19622   */\n      dup2\n        /* \"#utility.yul\":19613:19643   */\n      gt\n        /* \"#utility.yul\":19610:19666   */\n      iszero\n      tag_413\n      jumpi\n        /* \"#utility.yul\":19646:19664   */\n      tag_414\n      tag_166\n      jump\t// in\n    tag_414:\n        /* \"#utility.yul\":19610:19666   */\n    tag_413:\n        /* \"#utility.yul\":19690:19728   */\n      tag_415\n        /* \"#utility.yul\":19722:19726   */\n      dup3\n        /* \"#utility.yul\":19716:19727   */\n      sload\n        /* \"#utility.yul\":19690:19728   */\n      tag_122\n      jump\t// in\n    tag_415:\n        /* \"#utility.yul\":19775:19842   */\n      tag_416\n        /* \"#utility.yul\":19835:19841   */\n      dup3\n        /* \"#utility.yul\":19827:19833   */\n      dup3\n        /* \"#utility.yul\":19821:19825   */\n      dup6\n        /* \"#utility.yul\":19775:19842   */\n      tag_207\n      jump\t// in\n    tag_416:\n        /* \"#utility.yul\":19869:19870   */\n      0x00\n        /* \"#utility.yul\":19893:19897   */\n      0x20\n        /* \"#utility.yul\":19880:19897   */\n      swap1\n      pop\n        /* \"#utility.yul\":19925:19927   */\n      0x1f\n        /* \"#utility.yul\":19917:19923   */\n      dup4\n        /* \"#utility.yul\":19914:19928   */\n      gt\n        /* \"#utility.yul\":19942:19943   */\n      0x01\n        /* \"#utility.yul\":19937:20555   */\n      dup2\n      eq\n      tag_418\n      jumpi\n        /* \"#utility.yul\":20599:20600   */\n      0x00\n        /* \"#utility.yul\":20616:20622   */\n      dup5\n        /* \"#utility.yul\":20613:20690   */\n      iszero\n      tag_419\n      jumpi\n        /* \"#utility.yul\":20665:20674   */\n      dup3\n        /* \"#utility.yul\":20660:20663   */\n      dup8\n        /* \"#utility.yul\":20656:20675   */\n      add\n        /* \"#utility.yul\":20650:20676   */\n      mload\n        /* \"#utility.yul\":20641:20676   */\n      swap1\n      pop\n        /* \"#utility.yul\":20613:20690   */\n    tag_419:\n        /* \"#utility.yul\":20716:20783   */\n      tag_420\n        /* \"#utility.yul\":20776:20782   */\n      dup6\n        /* \"#utility.yul\":20769:20774   */\n      dup3\n        /* \"#utility.yul\":20716:20783   */\n      tag_210\n      jump\t// in\n    tag_420:\n        /* \"#utility.yul\":20710:20714   */\n      dup7\n        /* \"#utility.yul\":20703:20784   */\n      sstore\n        /* \"#utility.yul\":20572:20794   */\n      pop\n        /* \"#utility.yul\":19907:20794   */\n      jump(tag_417)\n        /* \"#utility.yul\":19937:20555   */\n    tag_418:\n        /* \"#utility.yul\":19989:19993   */\n      0x1f\n        /* \"#utility.yul\":19985:19994   */\n      not\n        /* \"#utility.yul\":19977:19983   */\n      dup5\n        /* \"#utility.yul\":19973:19995   */\n      and\n        /* \"#utility.yul\":20023:20060   */\n      tag_421\n        /* \"#utility.yul\":20055:20059   */\n      dup7\n        /* \"#utility.yul\":20023:20060   */\n      tag_196\n      jump\t// in\n    tag_421:\n        /* \"#utility.yul\":20082:20083   */\n      0x00\n        /* \"#utility.yul\":20096:20304   */\n    tag_422:\n        /* \"#utility.yul\":20110:20117   */\n      dup3\n        /* \"#utility.yul\":20107:20108   */\n      dup2\n        /* \"#utility.yul\":20104:20118   */\n      lt\n        /* \"#utility.yul\":20096:20304   */\n      iszero\n      tag_424\n      jumpi\n        /* \"#utility.yul\":20189:20198   */\n      dup5\n        /* \"#utility.yul\":20184:20187   */\n      dup10\n        /* \"#utility.yul\":20180:20199   */\n      add\n        /* \"#utility.yul\":20174:20200   */\n      mload\n        /* \"#utility.yul\":20166:20172   */\n      dup3\n        /* \"#utility.yul\":20159:20201   */\n      sstore\n        /* \"#utility.yul\":20240:20241   */\n      0x01\n        /* \"#utility.yul\":20232:20238   */\n      dup3\n        /* \"#utility.yul\":20228:20242   */\n      add\n        /* \"#utility.yul\":20218:20242   */\n      swap2\n      pop\n        /* \"#utility.yul\":20287:20289   */\n      0x20\n        /* \"#utility.yul\":20276:20285   */\n      dup6\n        /* \"#utility.yul\":20272:20290   */\n      add\n        /* \"#utility.yul\":20259:20290   */\n      swap5\n      pop\n        /* \"#utility.yul\":20133:20137   */\n      0x20\n        /* \"#utility.yul\":20130:20131   */\n      dup2\n        /* \"#utility.yul\":20126:20138   */\n      add\n        /* \"#utility.yul\":20121:20138   */\n      swap1\n      pop\n        /* \"#utility.yul\":20096:20304   */\n      jump(tag_422)\n    tag_424:\n        /* \"#utility.yul\":20332:20338   */\n      dup7\n        /* \"#utility.yul\":20323:20330   */\n      dup4\n        /* \"#utility.yul\":20320:20339   */\n      lt\n        /* \"#utility.yul\":20317:20496   */\n      iszero\n      tag_425\n      jumpi\n        /* \"#utility.yul\":20390:20399   */\n      dup5\n        /* \"#utility.yul\":20385:20388   */\n      dup10\n        /* \"#utility.yul\":20381:20400   */\n      add\n        /* \"#utility.yul\":20375:20401   */\n      mload\n        /* \"#utility.yul\":20433:20481   */\n      tag_426\n        /* \"#utility.yul\":20475:20479   */\n      0x1f\n        /* \"#utility.yul\":20467:20473   */\n      dup10\n        /* \"#utility.yul\":20463:20480   */\n      and\n        /* \"#utility.yul\":20452:20461   */\n      dup3\n        /* \"#utility.yul\":20433:20481   */\n      tag_209\n      jump\t// in\n    tag_426:\n        /* \"#utility.yul\":20425:20431   */\n      dup4\n        /* \"#utility.yul\":20418:20482   */\n      sstore\n        /* \"#utility.yul\":20340:20496   */\n      pop\n        /* \"#utility.yul\":20317:20496   */\n    tag_425:\n        /* \"#utility.yul\":20542:20543   */\n      0x01\n        /* \"#utility.yul\":20538:20539   */\n      0x02\n        /* \"#utility.yul\":20530:20536   */\n      dup9\n        /* \"#utility.yul\":20526:20540   */\n      mul\n        /* \"#utility.yul\":20522:20544   */\n      add\n        /* \"#utility.yul\":20516:20520   */\n      dup9\n        /* \"#utility.yul\":20509:20545   */\n      sstore\n        /* \"#utility.yul\":19944:20555   */\n      pop\n      pop\n      pop\n        /* \"#utility.yul\":19907:20794   */\n    tag_417:\n      pop\n        /* \"#utility.yul\":19497:20800   */\n      pop\n      pop\n      pop\n        /* \"#utility.yul\":19405:20800   */\n      pop\n      pop\n      jump\t// out\n        /* \"#utility.yul\":20806:20972   */\n    tag_211:\n        /* \"#utility.yul\":20946:20964   */\n      0x4e6f7420656e6f7567682066756e647300000000000000000000000000000000\n        /* \"#utility.yul\":20942:20943   */\n      0x00\n        /* \"#utility.yul\":20934:20940   */\n      dup3\n        /* \"#utility.yul\":20930:20944   */\n      add\n        /* \"#utility.yul\":20923:20965   */\n      mstore\n        /* \"#utility.yul\":20806:20972   */\n      pop\n      jump\t// out\n        /* \"#utility.yul\":20978:21344   */\n    tag_212:\n        /* \"#utility.yul\":21120:21123   */\n      0x00\n        /* \"#utility.yul\":21141:21208   */\n      tag_429\n        /* \"#utility.yul\":21205:21207   */\n      0x10\n        /* \"#utility.yul\":21200:21203   */\n      dup4\n        /* \"#utility.yul\":21141:21208   */\n      tag_176\n      jump\t// in\n    tag_429:\n        /* \"#utility.yul\":21134:21208   */\n      swap2\n      pop\n        /* \"#utility.yul\":21217:21310   */\n      tag_430\n        /* \"#utility.yul\":21306:21309   */\n      dup3\n        /* \"#utility.yul\":21217:21310   */\n      tag_211\n      jump\t// in\n    tag_430:\n        /* \"#utility.yul\":21335:21337   */\n      0x20\n        /* \"#utility.yul\":21330:21333   */\n      dup3\n        /* \"#utility.yul\":21326:21338   */\n      add\n        /* \"#utility.yul\":21319:21338   */\n      swap1\n      pop\n        /* \"#utility.yul\":20978:21344   */\n      swap2\n      swap1\n      pop\n      jump\t// out\n        /* \"#utility.yul\":21350:21769   */\n    tag_116:\n        /* \"#utility.yul\":21516:21520   */\n      0x00\n        /* \"#utility.yul\":21554:21556   */\n      0x20\n        /* \"#utility.yul\":21543:21552   */\n      dup3\n        /* \"#utility.yul\":21539:21557   */\n      add\n        /* \"#utility.yul\":21531:21557   */\n      swap1\n      pop\n        /* \"#utility.yul\":21603:21612   */\n      dup2\n        /* \"#utility.yul\":21597:21601   */\n      dup2\n        /* \"#utility.yul\":21593:21613   */\n      sub\n        /* \"#utility.yul\":21589:21590   */\n      0x00\n        /* \"#utility.yul\":21578:21587   */\n      dup4\n        /* \"#utility.yul\":21574:21591   */\n      add\n        /* \"#utility.yul\":21567:21614   */\n      mstore\n        /* \"#utility.yul\":21631:21762   */\n      tag_432\n        /* \"#utility.yul\":21757:21761   */\n      dup2\n        /* \"#utility.yul\":21631:21762   */\n      tag_212\n      jump\t// in\n    tag_432:\n        /* \"#utility.yul\":21623:21762   */\n      swap1\n      pop\n        /* \"#utility.yul\":21350:21769   */\n      swap2\n      swap1\n      pop\n      jump\t// out\n        /* \"#utility.yul\":21775:21945   */\n    tag_213:\n        /* \"#utility.yul\":21915:21937   */\n      0x4e6f2076616c6964206372656469742063617264000000000000000000000000\n        /* \"#utility.yul\":21911:21912   */\n      0x00\n        /* \"#utility.yul\":21903:21909   */\n      dup3\n        /* \"#utility.yul\":21899:21913   */\n      add\n        /* \"#utility.yul\":21892:21938   */\n      mstore\n        /* \"#utility.yul\":21775:21945   */\n      pop\n      jump\t// out\n        /* \"#utility.yul\":21951:22317   */\n    tag_214:\n        /* \"#utility.yul\":22093:22096   */\n      0x00\n        /* \"#utility.yul\":22114:22181   */\n      tag_435\n        /* \"#utility.yul\":22178:22180   */\n      0x14\n        /* \"#utility.yul\":22173:22176   */\n      dup4\n        /* \"#utility.yul\":22114:22181   */\n      tag_176\n      jump\t// in\n    tag_435:\n        /* \"#utility.yul\":22107:22181   */\n      swap2\n      pop\n        /* \"#utility.yul\":22190:22283   */\n      tag_436\n        /* \"#utility.yul\":22279:22282   */\n      dup3\n        /* \"#utility.yul\":22190:22283   */\n      tag_213\n      jump\t// in\n    tag_436:\n        /* \"#utility.yul\":22308:22310   */\n      0x20\n        /* \"#utility.yul\":22303:22306   */\n      dup3\n        /* \"#utility.yul\":22299:22311   */\n      add\n        /* \"#utility.yul\":22292:22311   */\n      swap1\n      pop\n        /* \"#utility.yul\":21951:22317   */\n      swap2\n      swap1\n      pop\n      jump\t// out\n        /* \"#utility.yul\":22323:22742   */\n    tag_127:\n        /* \"#utility.yul\":22489:22493   */\n      0x00\n        /* \"#utility.yul\":22527:22529   */\n      0x20\n        /* \"#utility.yul\":22516:22525   */\n      dup3\n        /* \"#utility.yul\":22512:22530   */\n      add\n        /* \"#utility.yul\":22504:22530   */\n      swap1\n      pop\n        /* \"#utility.yul\":22576:22585   */\n      dup2\n        /* \"#utility.yul\":22570:22574   */\n      dup2\n        /* \"#utility.yul\":22566:22586   */\n      sub\n        /* \"#utility.yul\":22562:22563   */\n      0x00\n        /* \"#utility.yul\":22551:22560   */\n      dup4\n        /* \"#utility.yul\":22547:22564   */\n      add\n        /* \"#utility.yul\":22540:22587   */\n      mstore\n        /* \"#utility.yul\":22604:22735   */\n      tag_438\n        /* \"#utility.yul\":22730:22734   */\n      dup2\n        /* \"#utility.yul\":22604:22735   */\n      tag_214\n      jump\t// in\n    tag_438:\n        /* \"#utility.yul\":22596:22735   */\n      swap1\n      pop\n        /* \"#utility.yul\":22323:22742   */\n      swap2\n      swap1\n      pop\n      jump\t// out\n\n    auxdata: 0xa2646970667358221220474e215f24847cc4c5c10e1cf9424809e1701010488db37c1aa95da314de54bb64736f6c63430008100033\n}\n",
				"bytecode": {
					"linkReferences": {},
					"object": "608060405260006009556000600a60006101000a81548160ff0219169083151502179055503480156200003157600080fd5b5060405162001840380380620018408339818101604052810190620000579190620000a5565b8060028190555050620000d7565b600080fd5b6000819050919050565b6200007f816200006a565b81146200008b57600080fd5b50565b6000815190506200009f8162000074565b92915050565b600060208284031215620000be57620000bd62000065565b5b6000620000ce848285016200008e565b91505092915050565b61175980620000e76000396000f3fe608060405234801561001057600080fd5b50600436106101005760003560e01c806359705f81116100975780638fa11864116100665780638fa118641461026a57806397838c7214610288578063aa8c217c146102a4578063e21f37ce146102c257610100565b806359705f81146102065780637b9a3f4c146102245780637eb9f571146102425780638e029c0b1461026057610100565b80633c626f00116100d35780633c626f001461018e57806342fb7936146101ac5780634b28f9a2146101ca578063557ed1ba146101e857610100565b806304ef5b2114610105578063062a7544146101385780630e85fa721461015457806312a029a414610172575b600080fd5b61011f600480360381019061011a9190610bda565b6102e0565b60405161012f9493929190610c57565b60405180910390f35b610152600480360381019061014d9190610cc8565b610360565b005b61015c610698565b6040516101699190610d08565b60405180910390f35b61018c60048036038101906101879190610e69565b61069e565b005b61019661074f565b6040516101a39190610efc565b60405180910390f35b6101b4610762565b6040516101c19190610f96565b60405180910390f35b6101d26107f0565b6040516101df9190610d08565b60405180910390f35b6101f06107f6565b6040516101fd9190610d08565b60405180910390f35b61020e6107fe565b60405161021b91906110da565b60405180910390f35b61022c61091d565b6040516102399190610d08565b60405180910390f35b61024a610923565b6040516102579190610d08565b60405180910390f35b610268610929565b005b610272610946565b60405161027f9190610f96565b60405180910390f35b6102a2600480360381019061029d91906110fc565b6109d4565b005b6102ac610afc565b6040516102b99190610d08565b60405180910390f35b6102ca610b02565b6040516102d79190610f96565b60405180910390f35b600081815481106102f057600080fd5b90600052602060002090600402016000915090508060000160009054906101000a900473ffffffffffffffffffffffffffffffffffffffff16908060010160009054906101000a900473ffffffffffffffffffffffffffffffffffffffff16908060020154908060030154905084565b8080600360006101000a81548173ffffffffffffffffffffffffffffffffffffffff021916908373ffffffffffffffffffffffffffffffffffffffff160217905550600073ffffffffffffffffffffffffffffffffffffffff168173ffffffffffffffffffffffffffffffffffffffff1603610411576040517f08c379a0000000000000000000000000000000000000000000000000000000008152600401610408906111af565b60405180910390fd5b60001515600a60009054906101000a900460ff16151503610467576040517f08c379a000000000000000000000000000000000000000000000000000000000815260040161045e9061121b565b60405180910390fd5b6005600954101580156104885750601e600854610484919061126a565b4211155b156104e35760006009819055506000600954146104a8576104a761129e565b5b6040517f08c379a00000000000000000000000000000000000000000000000000000000081526004016104da90611319565b60405180910390fd5b6005600954111580156105045750601e600854610500919061126a565b4210155b1561052c5760006009819055506000600954146105245761052361129e565b5b426008819055505b81600360006101000a81548173ffffffffffffffffffffffffffffffffffffffff021916908373ffffffffffffffffffffffffffffffffffffffff16021790555082600181905550600160096000828254610587919061126a565b9250508190555060006002541180156105a35750600154600254115b1561065857600154600260008282546105bc9190611339565b92505081905550600154600760008282546105d7919061126a565b9250508190555061060e33600360009054906101000a900473ffffffffffffffffffffffffffffffffffffffff16600154426109d4565b6040518060400160405280601281526020017f5472616e7366657220636f6d706c657465640000000000000000000000000000815250600490816106529190611579565b50610693565b6040517f08c379a000000000000000000000000000000000000000000000000000000000815260040161068a90611697565b60405180910390fd5b505050565b60085481565b81600590816106ad9190611579565b5080600690816106bd9190611579565b506001600a60006101000a81548160ff021916908315150217905550426008819055506008600580546106ef9061139c565b905014801561070c57506003600680546107089061139c565b9050145b61074b576040517f08c379a000000000000000000000000000000000000000000000000000000000815260040161074290611703565b60405180910390fd5b5050565b600a60009054906101000a900460ff1681565b6006805461076f9061139c565b80601f016020809104026020016040519081016040528092919081815260200182805461079b9061139c565b80156107e85780601f106107bd576101008083540402835291602001916107e8565b820191906000526020600020905b8154815290600101906020018083116107cb57829003601f168201915b505050505081565b60095481565b600042905090565b60606000805480602002602001604051908101604052809291908181526020016000905b8282101561091457838290600052602060002090600402016040518060800160405290816000820160009054906101000a900473ffffffffffffffffffffffffffffffffffffffff1673ffffffffffffffffffffffffffffffffffffffff1673ffffffffffffffffffffffffffffffffffffffff1681526020016001820160009054906101000a900473ffffffffffffffffffffffffffffffffffffffff1673ffffffffffffffffffffffffffffffffffffffff1673ffffffffffffffffffffffffffffffffffffffff1681526020016002820154815260200160038201548152505081526020019060010190610822565b50505050905090565b60025481565b60075481565b6000600a60006101000a81548160ff021916908315150217905550565b600580546109539061139c565b80601f016020809104026020016040519081016040528092919081815260200182805461097f9061139c565b80156109cc5780601f106109a1576101008083540402835291602001916109cc565b820191906000526020600020905b8154815290600101906020018083116109af57829003601f168201915b505050505081565b600060405180608001604052808673ffffffffffffffffffffffffffffffffffffffff1681526020018573ffffffffffffffffffffffffffffffffffffffff168152602001848152602001838152509050600081908060018154018082558091505060019003906000526020600020906004020160009091909190915060008201518160000160006101000a81548173ffffffffffffffffffffffffffffffffffffffff021916908373ffffffffffffffffffffffffffffffffffffffff16021790555060208201518160010160006101000a81548173ffffffffffffffffffffffffffffffffffffffff021916908373ffffffffffffffffffffffffffffffffffffffff160217905550604082015181600201556060820151816003015550505050505050565b60015481565b60048054610b0f9061139c565b80601f0160208091040260200160405190810160405280929190818152602001828054610b3b9061139c565b8015610b885780601f10610b5d57610100808354040283529160200191610b88565b820191906000526020600020905b815481529060010190602001808311610b6b57829003601f168201915b505050505081565b6000604051905090565b600080fd5b600080fd5b6000819050919050565b610bb781610ba4565b8114610bc257600080fd5b50565b600081359050610bd481610bae565b92915050565b600060208284031215610bf057610bef610b9a565b5b6000610bfe84828501610bc5565b91505092915050565b600073ffffffffffffffffffffffffffffffffffffffff82169050919050565b6000610c3282610c07565b9050919050565b610c4281610c27565b82525050565b610c5181610ba4565b82525050565b6000608082019050610c6c6000830187610c39565b610c796020830186610c39565b610c866040830185610c48565b610c936060830184610c48565b95945050505050565b610ca581610c27565b8114610cb057600080fd5b50565b600081359050610cc281610c9c565b92915050565b60008060408385031215610cdf57610cde610b9a565b5b6000610ced85828601610bc5565b9250506020610cfe85828601610cb3565b9150509250929050565b6000602082019050610d1d6000830184610c48565b92915050565b600080fd5b600080fd5b6000601f19601f8301169050919050565b7f4e487b7100000000000000000000000000000000000000000000000000000000600052604160045260246000fd5b610d7682610d2d565b810181811067ffffffffffffffff82111715610d9557610d94610d3e565b5b80604052505050565b6000610da8610b90565b9050610db48282610d6d565b919050565b600067ffffffffffffffff821115610dd457610dd3610d3e565b5b610ddd82610d2d565b9050602081019050919050565b82818337600083830152505050565b6000610e0c610e0784610db9565b610d9e565b905082815260208101848484011115610e2857610e27610d28565b5b610e33848285610dea565b509392505050565b600082601f830112610e5057610e4f610d23565b5b8135610e60848260208601610df9565b91505092915050565b60008060408385031215610e8057610e7f610b9a565b5b600083013567ffffffffffffffff811115610e9e57610e9d610b9f565b5b610eaa85828601610e3b565b925050602083013567ffffffffffffffff811115610ecb57610eca610b9f565b5b610ed785828601610e3b565b9150509250929050565b60008115159050919050565b610ef681610ee1565b82525050565b6000602082019050610f116000830184610eed565b92915050565b600081519050919050565b600082825260208201905092915050565b60005b83811015610f51578082015181840152602081019050610f36565b60008484015250505050565b6000610f6882610f17565b610f728185610f22565b9350610f82818560208601610f33565b610f8b81610d2d565b840191505092915050565b60006020820190508181036000830152610fb08184610f5d565b905092915050565b600081519050919050565b600082825260208201905092915050565b6000819050602082019050919050565b610fed81610c27565b82525050565b610ffc81610ba4565b82525050565b6080820160008201516110186000850182610fe4565b50602082015161102b6020850182610fe4565b50604082015161103e6040850182610ff3565b5060608201516110516060850182610ff3565b50505050565b60006110638383611002565b60808301905092915050565b6000602082019050919050565b600061108782610fb8565b6110918185610fc3565b935061109c83610fd4565b8060005b838110156110cd5781516110b48882611057565b97506110bf8361106f565b9250506001810190506110a0565b5085935050505092915050565b600060208201905081810360008301526110f4818461107c565b905092915050565b6000806000806080858703121561111657611115610b9a565b5b600061112487828801610cb3565b945050602061113587828801610cb3565b935050604061114687828801610bc5565b925050606061115787828801610bc5565b91505092959194509250565b7f2054686973206164647265737320646f65736e27742065786973747300000000600082015250565b6000611199601c83610f22565b91506111a482611163565b602082019050919050565b600060208201905081810360008301526111c88161118c565b9050919050565b7f506c6561736520696e7365727420796f75722063617264000000000000000000600082015250565b6000611205601783610f22565b9150611210826111cf565b602082019050919050565b60006020820190508181036000830152611234816111f8565b9050919050565b7f4e487b7100000000000000000000000000000000000000000000000000000000600052601160045260246000fd5b600061127582610ba4565b915061128083610ba4565b92508282019050808211156112985761129761123b565b5b92915050565b7f4e487b7100000000000000000000000000000000000000000000000000000000600052600160045260246000fd5b7f6f6e6c792035207472616e73616374696f6e7320706572206461790000000000600082015250565b6000611303601b83610f22565b915061130e826112cd565b602082019050919050565b60006020820190508181036000830152611332816112f6565b9050919050565b600061134482610ba4565b915061134f83610ba4565b92508282039050818111156113675761136661123b565b5b92915050565b7f4e487b7100000000000000000000000000000000000000000000000000000000600052602260045260246000fd5b600060028204905060018216806113b457607f821691505b6020821081036113c7576113c661136d565b5b50919050565b60008190508160005260206000209050919050565b60006020601f8301049050919050565b600082821b905092915050565b60006008830261142f7fffffffffffffffffffffffffffffffffffffffffffffffffffffffffffffffff826113f2565b61143986836113f2565b95508019841693508086168417925050509392505050565b6000819050919050565b600061147661147161146c84610ba4565b611451565b610ba4565b9050919050565b6000819050919050565b6114908361145b565b6114a461149c8261147d565b8484546113ff565b825550505050565b600090565b6114b96114ac565b6114c4818484611487565b505050565b5b818110156114e8576114dd6000826114b1565b6001810190506114ca565b5050565b601f82111561152d576114fe816113cd565b611507846113e2565b81016020851015611516578190505b61152a611522856113e2565b8301826114c9565b50505b505050565b600082821c905092915050565b600061155060001984600802611532565b1980831691505092915050565b6000611569838361153f565b9150826002028217905092915050565b61158282610f17565b67ffffffffffffffff81111561159b5761159a610d3e565b5b6115a5825461139c565b6115b08282856114ec565b600060209050601f8311600181146115e357600084156115d1578287015190505b6115db858261155d565b865550611643565b601f1984166115f1866113cd565b60005b82811015611619578489015182556001820191506020850194506020810190506115f4565b868310156116365784890151611632601f89168261153f565b8355505b6001600288020188555050505b505050505050565b7f4e6f7420656e6f7567682066756e647300000000000000000000000000000000600082015250565b6000611681601083610f22565b915061168c8261164b565b602082019050919050565b600060208201905081810360008301526116b081611674565b9050919050565b7f4e6f2076616c6964206372656469742063617264000000000000000000000000600082015250565b60006116ed601483610f22565b91506116f8826116b7565b602082019050919050565b6000602082019050818103600083015261171c816116e0565b905091905056fea2646970667358221220474e215f24847cc4c5c10e1cf9424809e1701010488db37c1aa95da314de54bb64736f6c63430008100033",
					"opcodes": "PUSH1 0x80 PUSH1 0x40 MSTORE PUSH1 0x0 PUSH1 0x9 SSTORE PUSH1 0x0 PUSH1 0xA PUSH1 0x0 PUSH2 0x100 EXP DUP2 SLOAD DUP2 PUSH1 0xFF MUL NOT AND SWAP1 DUP4 ISZERO ISZERO MUL OR SWAP1 SSTORE POP CALLVALUE DUP1 ISZERO PUSH3 0x31 JUMPI PUSH1 0x0 DUP1 REVERT JUMPDEST POP PUSH1 0x40 MLOAD PUSH3 0x1840 CODESIZE SUB DUP1 PUSH3 0x1840 DUP4 CODECOPY DUP2 DUP2 ADD PUSH1 0x40 MSTORE DUP2 ADD SWAP1 PUSH3 0x57 SWAP2 SWAP1 PUSH3 0xA5 JUMP JUMPDEST DUP1 PUSH1 0x2 DUP2 SWAP1 SSTORE POP POP PUSH3 0xD7 JUMP JUMPDEST PUSH1 0x0 DUP1 REVERT JUMPDEST PUSH1 0x0 DUP2 SWAP1 POP SWAP2 SWAP1 POP JUMP JUMPDEST PUSH3 0x7F DUP2 PUSH3 0x6A JUMP JUMPDEST DUP2 EQ PUSH3 0x8B JUMPI PUSH1 0x0 DUP1 REVERT JUMPDEST POP JUMP JUMPDEST PUSH1 0x0 DUP2 MLOAD SWAP1 POP PUSH3 0x9F DUP2 PUSH3 0x74 JUMP JUMPDEST SWAP3 SWAP2 POP POP JUMP JUMPDEST PUSH1 0x0 PUSH1 0x20 DUP3 DUP5 SUB SLT ISZERO PUSH3 0xBE JUMPI PUSH3 0xBD PUSH3 0x65 JUMP JUMPDEST JUMPDEST PUSH1 0x0 PUSH3 0xCE DUP5 DUP3 DUP6 ADD PUSH3 0x8E JUMP JUMPDEST SWAP2 POP POP SWAP3 SWAP2 POP POP JUMP JUMPDEST PUSH2 0x1759 DUP1 PUSH3 0xE7 PUSH1 0x0 CODECOPY PUSH1 0x0 RETURN INVALID PUSH1 0x80 PUSH1 0x40 MSTORE CALLVALUE DUP1 ISZERO PUSH2 0x10 JUMPI PUSH1 0x0 DUP1 REVERT JUMPDEST POP PUSH1 0x4 CALLDATASIZE LT PUSH2 0x100 JUMPI PUSH1 0x0 CALLDATALOAD PUSH1 0xE0 SHR DUP1 PUSH4 0x59705F81 GT PUSH2 0x97 JUMPI DUP1 PUSH4 0x8FA11864 GT PUSH2 0x66 JUMPI DUP1 PUSH4 0x8FA11864 EQ PUSH2 0x26A JUMPI DUP1 PUSH4 0x97838C72 EQ PUSH2 0x288 JUMPI DUP1 PUSH4 0xAA8C217C EQ PUSH2 0x2A4 JUMPI DUP1 PUSH4 0xE21F37CE EQ PUSH2 0x2C2 JUMPI PUSH2 0x100 JUMP JUMPDEST DUP1 PUSH4 0x59705F81 EQ PUSH2 0x206 JUMPI DUP1 PUSH4 0x7B9A3F4C EQ PUSH2 0x224 JUMPI DUP1 PUSH4 0x7EB9F571 EQ PUSH2 0x242 JUMPI DUP1 PUSH4 0x8E029C0B EQ PUSH2 0x260 JUMPI PUSH2 0x100 JUMP JUMPDEST DUP1 PUSH4 0x3C626F00 GT PUSH2 0xD3 JUMPI DUP1 PUSH4 0x3C626F00 EQ PUSH2 0x18E JUMPI DUP1 PUSH4 0x42FB7936 EQ PUSH2 0x1AC JUMPI DUP1 PUSH4 0x4B28F9A2 EQ PUSH2 0x1CA JUMPI DUP1 PUSH4 0x557ED1BA EQ PUSH2 0x1E8 JUMPI PUSH2 0x100 JUMP JUMPDEST DUP1 PUSH4 0x4EF5B21 EQ PUSH2 0x105 JUMPI DUP1 PUSH4 0x62A7544 EQ PUSH2 0x138 JUMPI DUP1 PUSH4 0xE85FA72 EQ PUSH2 0x154 JUMPI DUP1 PUSH4 0x12A029A4 EQ PUSH2 0x172 JUMPI JUMPDEST PUSH1 0x0 DUP1 REVERT JUMPDEST PUSH2 0x11F PUSH1 0x4 DUP1 CALLDATASIZE SUB DUP2 ADD SWAP1 PUSH2 0x11A SWAP2 SWAP1 PUSH2 0xBDA JUMP JUMPDEST PUSH2 0x2E0 JUMP JUMPDEST PUSH1 0x40 MLOAD PUSH2 0x12F SWAP5 SWAP4 SWAP3 SWAP2 SWAP1 PUSH2 0xC57 JUMP JUMPDEST PUSH1 0x40 MLOAD DUP1 SWAP2 SUB SWAP1 RETURN JUMPDEST PUSH2 0x152 PUSH1 0x4 DUP1 CALLDATASIZE SUB DUP2 ADD SWAP1 PUSH2 0x14D SWAP2 SWAP1 PUSH2 0xCC8 JUMP JUMPDEST PUSH2 0x360 JUMP JUMPDEST STOP JUMPDEST PUSH2 0x15C PUSH2 0x698 JUMP JUMPDEST PUSH1 0x40 MLOAD PUSH2 0x169 SWAP2 SWAP1 PUSH2 0xD08 JUMP JUMPDEST PUSH1 0x40 MLOAD DUP1 SWAP2 SUB SWAP1 RETURN JUMPDEST PUSH2 0x18C PUSH1 0x4 DUP1 CALLDATASIZE SUB DUP2 ADD SWAP1 PUSH2 0x187 SWAP2 SWAP1 PUSH2 0xE69 JUMP JUMPDEST PUSH2 0x69E JUMP JUMPDEST STOP JUMPDEST PUSH2 0x196 PUSH2 0x74F JUMP JUMPDEST PUSH1 0x40 MLOAD PUSH2 0x1A3 SWAP2 SWAP1 PUSH2 0xEFC JUMP JUMPDEST PUSH1 0x40 MLOAD DUP1 SWAP2 SUB SWAP1 RETURN JUMPDEST PUSH2 0x1B4 PUSH2 0x762 JUMP JUMPDEST PUSH1 0x40 MLOAD PUSH2 0x1C1 SWAP2 SWAP1 PUSH2 0xF96 JUMP JUMPDEST PUSH1 0x40 MLOAD DUP1 SWAP2 SUB SWAP1 RETURN JUMPDEST PUSH2 0x1D2 PUSH2 0x7F0 JUMP JUMPDEST PUSH1 0x40 MLOAD PUSH2 0x1DF SWAP2 SWAP1 PUSH2 0xD08 JUMP JUMPDEST PUSH1 0x40 MLOAD DUP1 SWAP2 SUB SWAP1 RETURN JUMPDEST PUSH2 0x1F0 PUSH2 0x7F6 JUMP JUMPDEST PUSH1 0x40 MLOAD PUSH2 0x1FD SWAP2 SWAP1 PUSH2 0xD08 JUMP JUMPDEST PUSH1 0x40 MLOAD DUP1 SWAP2 SUB SWAP1 RETURN JUMPDEST PUSH2 0x20E PUSH2 0x7FE JUMP JUMPDEST PUSH1 0x40 MLOAD PUSH2 0x21B SWAP2 SWAP1 PUSH2 0x10DA JUMP JUMPDEST PUSH1 0x40 MLOAD DUP1 SWAP2 SUB SWAP1 RETURN JUMPDEST PUSH2 0x22C PUSH2 0x91D JUMP JUMPDEST PUSH1 0x40 MLOAD PUSH2 0x239 SWAP2 SWAP1 PUSH2 0xD08 JUMP JUMPDEST PUSH1 0x40 MLOAD DUP1 SWAP2 SUB SWAP1 RETURN JUMPDEST PUSH2 0x24A PUSH2 0x923 JUMP JUMPDEST PUSH1 0x40 MLOAD PUSH2 0x257 SWAP2 SWAP1 PUSH2 0xD08 JUMP JUMPDEST PUSH1 0x40 MLOAD DUP1 SWAP2 SUB SWAP1 RETURN JUMPDEST PUSH2 0x268 PUSH2 0x929 JUMP JUMPDEST STOP JUMPDEST PUSH2 0x272 PUSH2 0x946 JUMP JUMPDEST PUSH1 0x40 MLOAD PUSH2 0x27F SWAP2 SWAP1 PUSH2 0xF96 JUMP JUMPDEST PUSH1 0x40 MLOAD DUP1 SWAP2 SUB SWAP1 RETURN JUMPDEST PUSH2 0x2A2 PUSH1 0x4 DUP1 CALLDATASIZE SUB DUP2 ADD SWAP1 PUSH2 0x29D SWAP2 SWAP1 PUSH2 0x10FC JUMP JUMPDEST PUSH2 0x9D4 JUMP JUMPDEST STOP JUMPDEST PUSH2 0x2AC PUSH2 0xAFC JUMP JUMPDEST PUSH1 0x40 MLOAD PUSH2 0x2B9 SWAP2 SWAP1 PUSH2 0xD08 JUMP JUMPDEST PUSH1 0x40 MLOAD DUP1 SWAP2 SUB SWAP1 RETURN JUMPDEST PUSH2 0x2CA PUSH2 0xB02 JUMP JUMPDEST PUSH1 0x40 MLOAD PUSH2 0x2D7 SWAP2 SWAP1 PUSH2 0xF96 JUMP JUMPDEST PUSH1 0x40 MLOAD DUP1 SWAP2 SUB SWAP1 RETURN JUMPDEST PUSH1 0x0 DUP2 DUP2 SLOAD DUP2 LT PUSH2 0x2F0 JUMPI PUSH1 0x0 DUP1 REVERT JUMPDEST SWAP1 PUSH1 0x0 MSTORE PUSH1 0x20 PUSH1 0x0 KECCAK256 SWAP1 PUSH1 0x4 MUL ADD PUSH1 0x0 SWAP2 POP SWAP1 POP DUP1 PUSH1 0x0 ADD PUSH1 0x0 SWAP1 SLOAD SWAP1 PUSH2 0x100 EXP SWAP1 DIV PUSH20 0xFFFFFFFFFFFFFFFFFFFFFFFFFFFFFFFFFFFFFFFF AND SWAP1 DUP1 PUSH1 0x1 ADD PUSH1 0x0 SWAP1 SLOAD SWAP1 PUSH2 0x100 EXP SWAP1 DIV PUSH20 0xFFFFFFFFFFFFFFFFFFFFFFFFFFFFFFFFFFFFFFFF AND SWAP1 DUP1 PUSH1 0x2 ADD SLOAD SWAP1 DUP1 PUSH1 0x3 ADD SLOAD SWAP1 POP DUP5 JUMP JUMPDEST DUP1 DUP1 PUSH1 0x3 PUSH1 0x0 PUSH2 0x100 EXP DUP2 SLOAD DUP2 PUSH20 0xFFFFFFFFFFFFFFFFFFFFFFFFFFFFFFFFFFFFFFFF MUL NOT AND SWAP1 DUP4 PUSH20 0xFFFFFFFFFFFFFFFFFFFFFFFFFFFFFFFFFFFFFFFF AND MUL OR SWAP1 SSTORE POP PUSH1 0x0 PUSH20 0xFFFFFFFFFFFFFFFFFFFFFFFFFFFFFFFFFFFFFFFF AND DUP2 PUSH20 0xFFFFFFFFFFFFFFFFFFFFFFFFFFFFFFFFFFFFFFFF AND SUB PUSH2 0x411 JUMPI PUSH1 0x40 MLOAD PUSH32 0x8C379A000000000000000000000000000000000000000000000000000000000 DUP2 MSTORE PUSH1 0x4 ADD PUSH2 0x408 SWAP1 PUSH2 0x11AF JUMP JUMPDEST PUSH1 0x40 MLOAD DUP1 SWAP2 SUB SWAP1 REVERT JUMPDEST PUSH1 0x0 ISZERO ISZERO PUSH1 0xA PUSH1 0x0 SWAP1 SLOAD SWAP1 PUSH2 0x100 EXP SWAP1 DIV PUSH1 0xFF AND ISZERO ISZERO SUB PUSH2 0x467 JUMPI PUSH1 0x40 MLOAD PUSH32 0x8C379A000000000000000000000000000000000000000000000000000000000 DUP2 MSTORE PUSH1 0x4 ADD PUSH2 0x45E SWAP1 PUSH2 0x121B JUMP JUMPDEST PUSH1 0x40 MLOAD DUP1 SWAP2 SUB SWAP1 REVERT JUMPDEST PUSH1 0x5 PUSH1 0x9 SLOAD LT ISZERO DUP1 ISZERO PUSH2 0x488 JUMPI POP PUSH1 0x1E PUSH1 0x8 SLOAD PUSH2 0x484 SWAP2 SWAP1 PUSH2 0x126A JUMP JUMPDEST TIMESTAMP GT ISZERO JUMPDEST ISZERO PUSH2 0x4E3 JUMPI PUSH1 0x0 PUSH1 0x9 DUP2 SWAP1 SSTORE POP PUSH1 0x0 PUSH1 0x9 SLOAD EQ PUSH2 0x4A8 JUMPI PUSH2 0x4A7 PUSH2 0x129E JUMP JUMPDEST JUMPDEST PUSH1 0x40 MLOAD PUSH32 0x8C379A000000000000000000000000000000000000000000000000000000000 DUP2 MSTORE PUSH1 0x4 ADD PUSH2 0x4DA SWAP1 PUSH2 0x1319 JUMP JUMPDEST PUSH1 0x40 MLOAD DUP1 SWAP2 SUB SWAP1 REVERT JUMPDEST PUSH1 0x5 PUSH1 0x9 SLOAD GT ISZERO DUP1 ISZERO PUSH2 0x504 JUMPI POP PUSH1 0x1E PUSH1 0x8 SLOAD PUSH2 0x500 SWAP2 SWAP1 PUSH2 0x126A JUMP JUMPDEST TIMESTAMP LT ISZERO JUMPDEST ISZERO PUSH2 0x52C JUMPI PUSH1 0x0 PUSH1 0x9 DUP2 SWAP1 SSTORE POP PUSH1 0x0 PUSH1 0x9 SLOAD EQ PUSH2 0x524 JUMPI PUSH2 0x523 PUSH2 0x129E JUMP JUMPDEST JUMPDEST TIMESTAMP PUSH1 0x8 DUP2 SWAP1 SSTORE POP JUMPDEST DUP2 PUSH1 0x3 PUSH1 0x0 PUSH2 0x100 EXP DUP2 SLOAD DUP2 PUSH20 0xFFFFFFFFFFFFFFFFFFFFFFFFFFFFFFFFFFFFFFFF MUL NOT AND SWAP1 DUP4 PUSH20 0xFFFFFFFFFFFFFFFFFFFFFFFFFFFFFFFFFFFFFFFF AND MUL OR SWAP1 SSTORE POP DUP3 PUSH1 0x1 DUP2 SWAP1 SSTORE POP PUSH1 0x1 PUSH1 0x9 PUSH1 0x0 DUP3 DUP3 SLOAD PUSH2 0x587 SWAP2 SWAP1 PUSH2 0x126A JUMP JUMPDEST SWAP3 POP POP DUP2 SWAP1 SSTORE POP PUSH1 0x0 PUSH1 0x2 SLOAD GT DUP1 ISZERO PUSH2 0x5A3 JUMPI POP PUSH1 0x1 SLOAD PUSH1 0x2 SLOAD GT JUMPDEST ISZERO PUSH2 0x658 JUMPI PUSH1 0x1 SLOAD PUSH1 0x2 PUSH1 0x0 DUP3 DUP3 SLOAD PUSH2 0x5BC SWAP2 SWAP1 PUSH2 0x1339 JUMP JUMPDEST SWAP3 POP POP DUP2 SWAP1 SSTORE POP PUSH1 0x1 SLOAD PUSH1 0x7 PUSH1 0x0 DUP3 DUP3 SLOAD PUSH2 0x5D7 SWAP2 SWAP1 PUSH2 0x126A JUMP JUMPDEST SWAP3 POP POP DUP2 SWAP1 SSTORE POP PUSH2 0x60E CALLER PUSH1 0x3 PUSH1 0x0 SWAP1 SLOAD SWAP1 PUSH2 0x100 EXP SWAP1 DIV PUSH20 0xFFFFFFFFFFFFFFFFFFFFFFFFFFFFFFFFFFFFFFFF AND PUSH1 0x1 SLOAD TIMESTAMP PUSH2 0x9D4 JUMP JUMPDEST PUSH1 0x40 MLOAD DUP1 PUSH1 0x40 ADD PUSH1 0x40 MSTORE DUP1 PUSH1 0x12 DUP2 MSTORE PUSH1 0x20 ADD PUSH32 0x5472616E7366657220636F6D706C657465640000000000000000000000000000 DUP2 MSTORE POP PUSH1 0x4 SWAP1 DUP2 PUSH2 0x652 SWAP2 SWAP1 PUSH2 0x1579 JUMP JUMPDEST POP PUSH2 0x693 JUMP JUMPDEST PUSH1 0x40 MLOAD PUSH32 0x8C379A000000000000000000000000000000000000000000000000000000000 DUP2 MSTORE PUSH1 0x4 ADD PUSH2 0x68A SWAP1 PUSH2 0x1697 JUMP JUMPDEST PUSH1 0x40 MLOAD DUP1 SWAP2 SUB SWAP1 REVERT JUMPDEST POP POP POP JUMP JUMPDEST PUSH1 0x8 SLOAD DUP2 JUMP JUMPDEST DUP2 PUSH1 0x5 SWAP1 DUP2 PUSH2 0x6AD SWAP2 SWAP1 PUSH2 0x1579 JUMP JUMPDEST POP DUP1 PUSH1 0x6 SWAP1 DUP2 PUSH2 0x6BD SWAP2 SWAP1 PUSH2 0x1579 JUMP JUMPDEST POP PUSH1 0x1 PUSH1 0xA PUSH1 0x0 PUSH2 0x100 EXP DUP2 SLOAD DUP2 PUSH1 0xFF MUL NOT AND SWAP1 DUP4 ISZERO ISZERO MUL OR SWAP1 SSTORE POP TIMESTAMP PUSH1 0x8 DUP2 SWAP1 SSTORE POP PUSH1 0x8 PUSH1 0x5 DUP1 SLOAD PUSH2 0x6EF SWAP1 PUSH2 0x139C JUMP JUMPDEST SWAP1 POP EQ DUP1 ISZERO PUSH2 0x70C JUMPI POP PUSH1 0x3 PUSH1 0x6 DUP1 SLOAD PUSH2 0x708 SWAP1 PUSH2 0x139C JUMP JUMPDEST SWAP1 POP EQ JUMPDEST PUSH2 0x74B JUMPI PUSH1 0x40 MLOAD PUSH32 0x8C379A000000000000000000000000000000000000000000000000000000000 DUP2 MSTORE PUSH1 0x4 ADD PUSH2 0x742 SWAP1 PUSH2 0x1703 JUMP JUMPDEST PUSH1 0x40 MLOAD DUP1 SWAP2 SUB SWAP1 REVERT JUMPDEST POP POP JUMP JUMPDEST PUSH1 0xA PUSH1 0x0 SWAP1 SLOAD SWAP1 PUSH2 0x100 EXP SWAP1 DIV PUSH1 0xFF AND DUP2 JUMP JUMPDEST PUSH1 0x6 DUP1 SLOAD PUSH2 0x76F SWAP1 PUSH2 0x139C JUMP JUMPDEST DUP1 PUSH1 0x1F ADD PUSH1 0x20 DUP1 SWAP2 DIV MUL PUSH1 0x20 ADD PUSH1 0x40 MLOAD SWAP1 DUP2 ADD PUSH1 0x40 MSTORE DUP1 SWAP3 SWAP2 SWAP1 DUP2 DUP2 MSTORE PUSH1 0x20 ADD DUP3 DUP1 SLOAD PUSH2 0x79B SWAP1 PUSH2 0x139C JUMP JUMPDEST DUP1 ISZERO PUSH2 0x7E8 JUMPI DUP1 PUSH1 0x1F LT PUSH2 0x7BD JUMPI PUSH2 0x100 DUP1 DUP4 SLOAD DIV MUL DUP4 MSTORE SWAP2 PUSH1 0x20 ADD SWAP2 PUSH2 0x7E8 JUMP JUMPDEST DUP3 ADD SWAP2 SWAP1 PUSH1 0x0 MSTORE PUSH1 0x20 PUSH1 0x0 KECCAK256 SWAP1 JUMPDEST DUP2 SLOAD DUP2 MSTORE SWAP1 PUSH1 0x1 ADD SWAP1 PUSH1 0x20 ADD DUP1 DUP4 GT PUSH2 0x7CB JUMPI DUP3 SWAP1 SUB PUSH1 0x1F AND DUP3 ADD SWAP2 JUMPDEST POP POP POP POP POP DUP2 JUMP JUMPDEST PUSH1 0x9 SLOAD DUP2 JUMP JUMPDEST PUSH1 0x0 TIMESTAMP SWAP1 POP SWAP1 JUMP JUMPDEST PUSH1 0x60 PUSH1 0x0 DUP1 SLOAD DUP1 PUSH1 0x20 MUL PUSH1 0x20 ADD PUSH1 0x40 MLOAD SWAP1 DUP2 ADD PUSH1 0x40 MSTORE DUP1 SWAP3 SWAP2 SWAP1 DUP2 DUP2 MSTORE PUSH1 0x20 ADD PUSH1 0x0 SWAP1 JUMPDEST DUP3 DUP3 LT ISZERO PUSH2 0x914 JUMPI DUP4 DUP3 SWAP1 PUSH1 0x0 MSTORE PUSH1 0x20 PUSH1 0x0 KECCAK256 SWAP1 PUSH1 0x4 MUL ADD PUSH1 0x40 MLOAD DUP1 PUSH1 0x80 ADD PUSH1 0x40 MSTORE SWAP1 DUP2 PUSH1 0x0 DUP3 ADD PUSH1 0x0 SWAP1 SLOAD SWAP1 PUSH2 0x100 EXP SWAP1 DIV PUSH20 0xFFFFFFFFFFFFFFFFFFFFFFFFFFFFFFFFFFFFFFFF AND PUSH20 0xFFFFFFFFFFFFFFFFFFFFFFFFFFFFFFFFFFFFFFFF AND PUSH20 0xFFFFFFFFFFFFFFFFFFFFFFFFFFFFFFFFFFFFFFFF AND DUP2 MSTORE PUSH1 0x20 ADD PUSH1 0x1 DUP3 ADD PUSH1 0x0 SWAP1 SLOAD SWAP1 PUSH2 0x100 EXP SWAP1 DIV PUSH20 0xFFFFFFFFFFFFFFFFFFFFFFFFFFFFFFFFFFFFFFFF AND PUSH20 0xFFFFFFFFFFFFFFFFFFFFFFFFFFFFFFFFFFFFFFFF AND PUSH20 0xFFFFFFFFFFFFFFFFFFFFFFFFFFFFFFFFFFFFFFFF AND DUP2 MSTORE PUSH1 0x20 ADD PUSH1 0x2 DUP3 ADD SLOAD DUP2 MSTORE PUSH1 0x20 ADD PUSH1 0x3 DUP3 ADD SLOAD DUP2 MSTORE POP POP DUP2 MSTORE PUSH1 0x20 ADD SWAP1 PUSH1 0x1 ADD SWAP1 PUSH2 0x822 JUMP JUMPDEST POP POP POP POP SWAP1 POP SWAP1 JUMP JUMPDEST PUSH1 0x2 SLOAD DUP2 JUMP JUMPDEST PUSH1 0x7 SLOAD DUP2 JUMP JUMPDEST PUSH1 0x0 PUSH1 0xA PUSH1 0x0 PUSH2 0x100 EXP DUP2 SLOAD DUP2 PUSH1 0xFF MUL NOT AND SWAP1 DUP4 ISZERO ISZERO MUL OR SWAP1 SSTORE POP JUMP JUMPDEST PUSH1 0x5 DUP1 SLOAD PUSH2 0x953 SWAP1 PUSH2 0x139C JUMP JUMPDEST DUP1 PUSH1 0x1F ADD PUSH1 0x20 DUP1 SWAP2 DIV MUL PUSH1 0x20 ADD PUSH1 0x40 MLOAD SWAP1 DUP2 ADD PUSH1 0x40 MSTORE DUP1 SWAP3 SWAP2 SWAP1 DUP2 DUP2 MSTORE PUSH1 0x20 ADD DUP3 DUP1 SLOAD PUSH2 0x97F SWAP1 PUSH2 0x139C JUMP JUMPDEST DUP1 ISZERO PUSH2 0x9CC JUMPI DUP1 PUSH1 0x1F LT PUSH2 0x9A1 JUMPI PUSH2 0x100 DUP1 DUP4 SLOAD DIV MUL DUP4 MSTORE SWAP2 PUSH1 0x20 ADD SWAP2 PUSH2 0x9CC JUMP JUMPDEST DUP3 ADD SWAP2 SWAP1 PUSH1 0x0 MSTORE PUSH1 0x20 PUSH1 0x0 KECCAK256 SWAP1 JUMPDEST DUP2 SLOAD DUP2 MSTORE SWAP1 PUSH1 0x1 ADD SWAP1 PUSH1 0x20 ADD DUP1 DUP4 GT PUSH2 0x9AF JUMPI DUP3 SWAP1 SUB PUSH1 0x1F AND DUP3 ADD SWAP2 JUMPDEST POP POP POP POP POP DUP2 JUMP JUMPDEST PUSH1 0x0 PUSH1 0x40 MLOAD DUP1 PUSH1 0x80 ADD PUSH1 0x40 MSTORE DUP1 DUP7 PUSH20 0xFFFFFFFFFFFFFFFFFFFFFFFFFFFFFFFFFFFFFFFF AND DUP2 MSTORE PUSH1 0x20 ADD DUP6 PUSH20 0xFFFFFFFFFFFFFFFFFFFFFFFFFFFFFFFFFFFFFFFF AND DUP2 MSTORE PUSH1 0x20 ADD DUP5 DUP2 MSTORE PUSH1 0x20 ADD DUP4 DUP2 MSTORE POP SWAP1 POP PUSH1 0x0 DUP2 SWAP1 DUP1 PUSH1 0x1 DUP2 SLOAD ADD DUP1 DUP3 SSTORE DUP1 SWAP2 POP POP PUSH1 0x1 SWAP1 SUB SWAP1 PUSH1 0x0 MSTORE PUSH1 0x20 PUSH1 0x0 KECCAK256 SWAP1 PUSH1 0x4 MUL ADD PUSH1 0x0 SWAP1 SWAP2 SWAP1 SWAP2 SWAP1 SWAP2 POP PUSH1 0x0 DUP3 ADD MLOAD DUP2 PUSH1 0x0 ADD PUSH1 0x0 PUSH2 0x100 EXP DUP2 SLOAD DUP2 PUSH20 0xFFFFFFFFFFFFFFFFFFFFFFFFFFFFFFFFFFFFFFFF MUL NOT AND SWAP1 DUP4 PUSH20 0xFFFFFFFFFFFFFFFFFFFFFFFFFFFFFFFFFFFFFFFF AND MUL OR SWAP1 SSTORE POP PUSH1 0x20 DUP3 ADD MLOAD DUP2 PUSH1 0x1 ADD PUSH1 0x0 PUSH2 0x100 EXP DUP2 SLOAD DUP2 PUSH20 0xFFFFFFFFFFFFFFFFFFFFFFFFFFFFFFFFFFFFFFFF MUL NOT AND SWAP1 DUP4 PUSH20 0xFFFFFFFFFFFFFFFFFFFFFFFFFFFFFFFFFFFFFFFF AND MUL OR SWAP1 SSTORE POP PUSH1 0x40 DUP3 ADD MLOAD DUP2 PUSH1 0x2 ADD SSTORE PUSH1 0x60 DUP3 ADD MLOAD DUP2 PUSH1 0x3 ADD SSTORE POP POP POP POP POP POP POP JUMP JUMPDEST PUSH1 0x1 SLOAD DUP2 JUMP JUMPDEST PUSH1 0x4 DUP1 SLOAD PUSH2 0xB0F SWAP1 PUSH2 0x139C JUMP JUMPDEST DUP1 PUSH1 0x1F ADD PUSH1 0x20 DUP1 SWAP2 DIV MUL PUSH1 0x20 ADD PUSH1 0x40 MLOAD SWAP1 DUP2 ADD PUSH1 0x40 MSTORE DUP1 SWAP3 SWAP2 SWAP1 DUP2 DUP2 MSTORE PUSH1 0x20 ADD DUP3 DUP1 SLOAD PUSH2 0xB3B SWAP1 PUSH2 0x139C JUMP JUMPDEST DUP1 ISZERO PUSH2 0xB88 JUMPI DUP1 PUSH1 0x1F LT PUSH2 0xB5D JUMPI PUSH2 0x100 DUP1 DUP4 SLOAD DIV MUL DUP4 MSTORE SWAP2 PUSH1 0x20 ADD SWAP2 PUSH2 0xB88 JUMP JUMPDEST DUP3 ADD SWAP2 SWAP1 PUSH1 0x0 MSTORE PUSH1 0x20 PUSH1 0x0 KECCAK256 SWAP1 JUMPDEST DUP2 SLOAD DUP2 MSTORE SWAP1 PUSH1 0x1 ADD SWAP1 PUSH1 0x20 ADD DUP1 DUP4 GT PUSH2 0xB6B JUMPI DUP3 SWAP1 SUB PUSH1 0x1F AND DUP3 ADD SWAP2 JUMPDEST POP POP POP POP POP DUP2 JUMP JUMPDEST PUSH1 0x0 PUSH1 0x40 MLOAD SWAP1 POP SWAP1 JUMP JUMPDEST PUSH1 0x0 DUP1 REVERT JUMPDEST PUSH1 0x0 DUP1 REVERT JUMPDEST PUSH1 0x0 DUP2 SWAP1 POP SWAP2 SWAP1 POP JUMP JUMPDEST PUSH2 0xBB7 DUP2 PUSH2 0xBA4 JUMP JUMPDEST DUP2 EQ PUSH2 0xBC2 JUMPI PUSH1 0x0 DUP1 REVERT JUMPDEST POP JUMP JUMPDEST PUSH1 0x0 DUP2 CALLDATALOAD SWAP1 POP PUSH2 0xBD4 DUP2 PUSH2 0xBAE JUMP JUMPDEST SWAP3 SWAP2 POP POP JUMP JUMPDEST PUSH1 0x0 PUSH1 0x20 DUP3 DUP5 SUB SLT ISZERO PUSH2 0xBF0 JUMPI PUSH2 0xBEF PUSH2 0xB9A JUMP JUMPDEST JUMPDEST PUSH1 0x0 PUSH2 0xBFE DUP5 DUP3 DUP6 ADD PUSH2 0xBC5 JUMP JUMPDEST SWAP2 POP POP SWAP3 SWAP2 POP POP JUMP JUMPDEST PUSH1 0x0 PUSH20 0xFFFFFFFFFFFFFFFFFFFFFFFFFFFFFFFFFFFFFFFF DUP3 AND SWAP1 POP SWAP2 SWAP1 POP JUMP JUMPDEST PUSH1 0x0 PUSH2 0xC32 DUP3 PUSH2 0xC07 JUMP JUMPDEST SWAP1 POP SWAP2 SWAP1 POP JUMP JUMPDEST PUSH2 0xC42 DUP2 PUSH2 0xC27 JUMP JUMPDEST DUP3 MSTORE POP POP JUMP JUMPDEST PUSH2 0xC51 DUP2 PUSH2 0xBA4 JUMP JUMPDEST DUP3 MSTORE POP POP JUMP JUMPDEST PUSH1 0x0 PUSH1 0x80 DUP3 ADD SWAP1 POP PUSH2 0xC6C PUSH1 0x0 DUP4 ADD DUP8 PUSH2 0xC39 JUMP JUMPDEST PUSH2 0xC79 PUSH1 0x20 DUP4 ADD DUP7 PUSH2 0xC39 JUMP JUMPDEST PUSH2 0xC86 PUSH1 0x40 DUP4 ADD DUP6 PUSH2 0xC48 JUMP JUMPDEST PUSH2 0xC93 PUSH1 0x60 DUP4 ADD DUP5 PUSH2 0xC48 JUMP JUMPDEST SWAP6 SWAP5 POP POP POP POP POP JUMP JUMPDEST PUSH2 0xCA5 DUP2 PUSH2 0xC27 JUMP JUMPDEST DUP2 EQ PUSH2 0xCB0 JUMPI PUSH1 0x0 DUP1 REVERT JUMPDEST POP JUMP JUMPDEST PUSH1 0x0 DUP2 CALLDATALOAD SWAP1 POP PUSH2 0xCC2 DUP2 PUSH2 0xC9C JUMP JUMPDEST SWAP3 SWAP2 POP POP JUMP JUMPDEST PUSH1 0x0 DUP1 PUSH1 0x40 DUP4 DUP6 SUB SLT ISZERO PUSH2 0xCDF JUMPI PUSH2 0xCDE PUSH2 0xB9A JUMP JUMPDEST JUMPDEST PUSH1 0x0 PUSH2 0xCED DUP6 DUP3 DUP7 ADD PUSH2 0xBC5 JUMP JUMPDEST SWAP3 POP POP PUSH1 0x20 PUSH2 0xCFE DUP6 DUP3 DUP7 ADD PUSH2 0xCB3 JUMP JUMPDEST SWAP2 POP POP SWAP3 POP SWAP3 SWAP1 POP JUMP JUMPDEST PUSH1 0x0 PUSH1 0x20 DUP3 ADD SWAP1 POP PUSH2 0xD1D PUSH1 0x0 DUP4 ADD DUP5 PUSH2 0xC48 JUMP JUMPDEST SWAP3 SWAP2 POP POP JUMP JUMPDEST PUSH1 0x0 DUP1 REVERT JUMPDEST PUSH1 0x0 DUP1 REVERT JUMPDEST PUSH1 0x0 PUSH1 0x1F NOT PUSH1 0x1F DUP4 ADD AND SWAP1 POP SWAP2 SWAP1 POP JUMP JUMPDEST PUSH32 0x4E487B7100000000000000000000000000000000000000000000000000000000 PUSH1 0x0 MSTORE PUSH1 0x41 PUSH1 0x4 MSTORE PUSH1 0x24 PUSH1 0x0 REVERT JUMPDEST PUSH2 0xD76 DUP3 PUSH2 0xD2D JUMP JUMPDEST DUP2 ADD DUP2 DUP2 LT PUSH8 0xFFFFFFFFFFFFFFFF DUP3 GT OR ISZERO PUSH2 0xD95 JUMPI PUSH2 0xD94 PUSH2 0xD3E JUMP JUMPDEST JUMPDEST DUP1 PUSH1 0x40 MSTORE POP POP POP JUMP JUMPDEST PUSH1 0x0 PUSH2 0xDA8 PUSH2 0xB90 JUMP JUMPDEST SWAP1 POP PUSH2 0xDB4 DUP3 DUP3 PUSH2 0xD6D JUMP JUMPDEST SWAP2 SWAP1 POP JUMP JUMPDEST PUSH1 0x0 PUSH8 0xFFFFFFFFFFFFFFFF DUP3 GT ISZERO PUSH2 0xDD4 JUMPI PUSH2 0xDD3 PUSH2 0xD3E JUMP JUMPDEST JUMPDEST PUSH2 0xDDD DUP3 PUSH2 0xD2D JUMP JUMPDEST SWAP1 POP PUSH1 0x20 DUP2 ADD SWAP1 POP SWAP2 SWAP1 POP JUMP JUMPDEST DUP3 DUP2 DUP4 CALLDATACOPY PUSH1 0x0 DUP4 DUP4 ADD MSTORE POP POP POP JUMP JUMPDEST PUSH1 0x0 PUSH2 0xE0C PUSH2 0xE07 DUP5 PUSH2 0xDB9 JUMP JUMPDEST PUSH2 0xD9E JUMP JUMPDEST SWAP1 POP DUP3 DUP2 MSTORE PUSH1 0x20 DUP2 ADD DUP5 DUP5 DUP5 ADD GT ISZERO PUSH2 0xE28 JUMPI PUSH2 0xE27 PUSH2 0xD28 JUMP JUMPDEST JUMPDEST PUSH2 0xE33 DUP5 DUP3 DUP6 PUSH2 0xDEA JUMP JUMPDEST POP SWAP4 SWAP3 POP POP POP JUMP JUMPDEST PUSH1 0x0 DUP3 PUSH1 0x1F DUP4 ADD SLT PUSH2 0xE50 JUMPI PUSH2 0xE4F PUSH2 0xD23 JUMP JUMPDEST JUMPDEST DUP2 CALLDATALOAD PUSH2 0xE60 DUP5 DUP3 PUSH1 0x20 DUP7 ADD PUSH2 0xDF9 JUMP JUMPDEST SWAP2 POP POP SWAP3 SWAP2 POP POP JUMP JUMPDEST PUSH1 0x0 DUP1 PUSH1 0x40 DUP4 DUP6 SUB SLT ISZERO PUSH2 0xE80 JUMPI PUSH2 0xE7F PUSH2 0xB9A JUMP JUMPDEST JUMPDEST PUSH1 0x0 DUP4 ADD CALLDATALOAD PUSH8 0xFFFFFFFFFFFFFFFF DUP2 GT ISZERO PUSH2 0xE9E JUMPI PUSH2 0xE9D PUSH2 0xB9F JUMP JUMPDEST JUMPDEST PUSH2 0xEAA DUP6 DUP3 DUP7 ADD PUSH2 0xE3B JUMP JUMPDEST SWAP3 POP POP PUSH1 0x20 DUP4 ADD CALLDATALOAD PUSH8 0xFFFFFFFFFFFFFFFF DUP2 GT ISZERO PUSH2 0xECB JUMPI PUSH2 0xECA PUSH2 0xB9F JUMP JUMPDEST JUMPDEST PUSH2 0xED7 DUP6 DUP3 DUP7 ADD PUSH2 0xE3B JUMP JUMPDEST SWAP2 POP POP SWAP3 POP SWAP3 SWAP1 POP JUMP JUMPDEST PUSH1 0x0 DUP2 ISZERO ISZERO SWAP1 POP SWAP2 SWAP1 POP JUMP JUMPDEST PUSH2 0xEF6 DUP2 PUSH2 0xEE1 JUMP JUMPDEST DUP3 MSTORE POP POP JUMP JUMPDEST PUSH1 0x0 PUSH1 0x20 DUP3 ADD SWAP1 POP PUSH2 0xF11 PUSH1 0x0 DUP4 ADD DUP5 PUSH2 0xEED JUMP JUMPDEST SWAP3 SWAP2 POP POP JUMP JUMPDEST PUSH1 0x0 DUP2 MLOAD SWAP1 POP SWAP2 SWAP1 POP JUMP JUMPDEST PUSH1 0x0 DUP3 DUP3 MSTORE PUSH1 0x20 DUP3 ADD SWAP1 POP SWAP3 SWAP2 POP POP JUMP JUMPDEST PUSH1 0x0 JUMPDEST DUP4 DUP2 LT ISZERO PUSH2 0xF51 JUMPI DUP1 DUP3 ADD MLOAD DUP2 DUP5 ADD MSTORE PUSH1 0x20 DUP2 ADD SWAP1 POP PUSH2 0xF36 JUMP JUMPDEST PUSH1 0x0 DUP5 DUP5 ADD MSTORE POP POP POP POP JUMP JUMPDEST PUSH1 0x0 PUSH2 0xF68 DUP3 PUSH2 0xF17 JUMP JUMPDEST PUSH2 0xF72 DUP2 DUP6 PUSH2 0xF22 JUMP JUMPDEST SWAP4 POP PUSH2 0xF82 DUP2 DUP6 PUSH1 0x20 DUP7 ADD PUSH2 0xF33 JUMP JUMPDEST PUSH2 0xF8B DUP2 PUSH2 0xD2D JUMP JUMPDEST DUP5 ADD SWAP2 POP POP SWAP3 SWAP2 POP POP JUMP JUMPDEST PUSH1 0x0 PUSH1 0x20 DUP3 ADD SWAP1 POP DUP2 DUP2 SUB PUSH1 0x0 DUP4 ADD MSTORE PUSH2 0xFB0 DUP2 DUP5 PUSH2 0xF5D JUMP JUMPDEST SWAP1 POP SWAP3 SWAP2 POP POP JUMP JUMPDEST PUSH1 0x0 DUP2 MLOAD SWAP1 POP SWAP2 SWAP1 POP JUMP JUMPDEST PUSH1 0x0 DUP3 DUP3 MSTORE PUSH1 0x20 DUP3 ADD SWAP1 POP SWAP3 SWAP2 POP POP JUMP JUMPDEST PUSH1 0x0 DUP2 SWAP1 POP PUSH1 0x20 DUP3 ADD SWAP1 POP SWAP2 SWAP1 POP JUMP JUMPDEST PUSH2 0xFED DUP2 PUSH2 0xC27 JUMP JUMPDEST DUP3 MSTORE POP POP JUMP JUMPDEST PUSH2 0xFFC DUP2 PUSH2 0xBA4 JUMP JUMPDEST DUP3 MSTORE POP POP JUMP JUMPDEST PUSH1 0x80 DUP3 ADD PUSH1 0x0 DUP3 ADD MLOAD PUSH2 0x1018 PUSH1 0x0 DUP6 ADD DUP3 PUSH2 0xFE4 JUMP JUMPDEST POP PUSH1 0x20 DUP3 ADD MLOAD PUSH2 0x102B PUSH1 0x20 DUP6 ADD DUP3 PUSH2 0xFE4 JUMP JUMPDEST POP PUSH1 0x40 DUP3 ADD MLOAD PUSH2 0x103E PUSH1 0x40 DUP6 ADD DUP3 PUSH2 0xFF3 JUMP JUMPDEST POP PUSH1 0x60 DUP3 ADD MLOAD PUSH2 0x1051 PUSH1 0x60 DUP6 ADD DUP3 PUSH2 0xFF3 JUMP JUMPDEST POP POP POP POP JUMP JUMPDEST PUSH1 0x0 PUSH2 0x1063 DUP4 DUP4 PUSH2 0x1002 JUMP JUMPDEST PUSH1 0x80 DUP4 ADD SWAP1 POP SWAP3 SWAP2 POP POP JUMP JUMPDEST PUSH1 0x0 PUSH1 0x20 DUP3 ADD SWAP1 POP SWAP2 SWAP1 POP JUMP JUMPDEST PUSH1 0x0 PUSH2 0x1087 DUP3 PUSH2 0xFB8 JUMP JUMPDEST PUSH2 0x1091 DUP2 DUP6 PUSH2 0xFC3 JUMP JUMPDEST SWAP4 POP PUSH2 0x109C DUP4 PUSH2 0xFD4 JUMP JUMPDEST DUP1 PUSH1 0x0 JUMPDEST DUP4 DUP2 LT ISZERO PUSH2 0x10CD JUMPI DUP2 MLOAD PUSH2 0x10B4 DUP9 DUP3 PUSH2 0x1057 JUMP JUMPDEST SWAP8 POP PUSH2 0x10BF DUP4 PUSH2 0x106F JUMP JUMPDEST SWAP3 POP POP PUSH1 0x1 DUP2 ADD SWAP1 POP PUSH2 0x10A0 JUMP JUMPDEST POP DUP6 SWAP4 POP POP POP POP SWAP3 SWAP2 POP POP JUMP JUMPDEST PUSH1 0x0 PUSH1 0x20 DUP3 ADD SWAP1 POP DUP2 DUP2 SUB PUSH1 0x0 DUP4 ADD MSTORE PUSH2 0x10F4 DUP2 DUP5 PUSH2 0x107C JUMP JUMPDEST SWAP1 POP SWAP3 SWAP2 POP POP JUMP JUMPDEST PUSH1 0x0 DUP1 PUSH1 0x0 DUP1 PUSH1 0x80 DUP6 DUP8 SUB SLT ISZERO PUSH2 0x1116 JUMPI PUSH2 0x1115 PUSH2 0xB9A JUMP JUMPDEST JUMPDEST PUSH1 0x0 PUSH2 0x1124 DUP8 DUP3 DUP9 ADD PUSH2 0xCB3 JUMP JUMPDEST SWAP5 POP POP PUSH1 0x20 PUSH2 0x1135 DUP8 DUP3 DUP9 ADD PUSH2 0xCB3 JUMP JUMPDEST SWAP4 POP POP PUSH1 0x40 PUSH2 0x1146 DUP8 DUP3 DUP9 ADD PUSH2 0xBC5 JUMP JUMPDEST SWAP3 POP POP PUSH1 0x60 PUSH2 0x1157 DUP8 DUP3 DUP9 ADD PUSH2 0xBC5 JUMP JUMPDEST SWAP2 POP POP SWAP3 SWAP6 SWAP2 SWAP5 POP SWAP3 POP JUMP JUMPDEST PUSH32 0x2054686973206164647265737320646F65736E27742065786973747300000000 PUSH1 0x0 DUP3 ADD MSTORE POP JUMP JUMPDEST PUSH1 0x0 PUSH2 0x1199 PUSH1 0x1C DUP4 PUSH2 0xF22 JUMP JUMPDEST SWAP2 POP PUSH2 0x11A4 DUP3 PUSH2 0x1163 JUMP JUMPDEST PUSH1 0x20 DUP3 ADD SWAP1 POP SWAP2 SWAP1 POP JUMP JUMPDEST PUSH1 0x0 PUSH1 0x20 DUP3 ADD SWAP1 POP DUP2 DUP2 SUB PUSH1 0x0 DUP4 ADD MSTORE PUSH2 0x11C8 DUP2 PUSH2 0x118C JUMP JUMPDEST SWAP1 POP SWAP2 SWAP1 POP JUMP JUMPDEST PUSH32 0x506C6561736520696E7365727420796F75722063617264000000000000000000 PUSH1 0x0 DUP3 ADD MSTORE POP JUMP JUMPDEST PUSH1 0x0 PUSH2 0x1205 PUSH1 0x17 DUP4 PUSH2 0xF22 JUMP JUMPDEST SWAP2 POP PUSH2 0x1210 DUP3 PUSH2 0x11CF JUMP JUMPDEST PUSH1 0x20 DUP3 ADD SWAP1 POP SWAP2 SWAP1 POP JUMP JUMPDEST PUSH1 0x0 PUSH1 0x20 DUP3 ADD SWAP1 POP DUP2 DUP2 SUB PUSH1 0x0 DUP4 ADD MSTORE PUSH2 0x1234 DUP2 PUSH2 0x11F8 JUMP JUMPDEST SWAP1 POP SWAP2 SWAP1 POP JUMP JUMPDEST PUSH32 0x4E487B7100000000000000000000000000000000000000000000000000000000 PUSH1 0x0 MSTORE PUSH1 0x11 PUSH1 0x4 MSTORE PUSH1 0x24 PUSH1 0x0 REVERT JUMPDEST PUSH1 0x0 PUSH2 0x1275 DUP3 PUSH2 0xBA4 JUMP JUMPDEST SWAP2 POP PUSH2 0x1280 DUP4 PUSH2 0xBA4 JUMP JUMPDEST SWAP3 POP DUP3 DUP3 ADD SWAP1 POP DUP1 DUP3 GT ISZERO PUSH2 0x1298 JUMPI PUSH2 0x1297 PUSH2 0x123B JUMP JUMPDEST JUMPDEST SWAP3 SWAP2 POP POP JUMP JUMPDEST PUSH32 0x4E487B7100000000000000000000000000000000000000000000000000000000 PUSH1 0x0 MSTORE PUSH1 0x1 PUSH1 0x4 MSTORE PUSH1 0x24 PUSH1 0x0 REVERT JUMPDEST PUSH32 0x6F6E6C792035207472616E73616374696F6E7320706572206461790000000000 PUSH1 0x0 DUP3 ADD MSTORE POP JUMP JUMPDEST PUSH1 0x0 PUSH2 0x1303 PUSH1 0x1B DUP4 PUSH2 0xF22 JUMP JUMPDEST SWAP2 POP PUSH2 0x130E DUP3 PUSH2 0x12CD JUMP JUMPDEST PUSH1 0x20 DUP3 ADD SWAP1 POP SWAP2 SWAP1 POP JUMP JUMPDEST PUSH1 0x0 PUSH1 0x20 DUP3 ADD SWAP1 POP DUP2 DUP2 SUB PUSH1 0x0 DUP4 ADD MSTORE PUSH2 0x1332 DUP2 PUSH2 0x12F6 JUMP JUMPDEST SWAP1 POP SWAP2 SWAP1 POP JUMP JUMPDEST PUSH1 0x0 PUSH2 0x1344 DUP3 PUSH2 0xBA4 JUMP JUMPDEST SWAP2 POP PUSH2 0x134F DUP4 PUSH2 0xBA4 JUMP JUMPDEST SWAP3 POP DUP3 DUP3 SUB SWAP1 POP DUP2 DUP2 GT ISZERO PUSH2 0x1367 JUMPI PUSH2 0x1366 PUSH2 0x123B JUMP JUMPDEST JUMPDEST SWAP3 SWAP2 POP POP JUMP JUMPDEST PUSH32 0x4E487B7100000000000000000000000000000000000000000000000000000000 PUSH1 0x0 MSTORE PUSH1 0x22 PUSH1 0x4 MSTORE PUSH1 0x24 PUSH1 0x0 REVERT JUMPDEST PUSH1 0x0 PUSH1 0x2 DUP3 DIV SWAP1 POP PUSH1 0x1 DUP3 AND DUP1 PUSH2 0x13B4 JUMPI PUSH1 0x7F DUP3 AND SWAP2 POP JUMPDEST PUSH1 0x20 DUP3 LT DUP2 SUB PUSH2 0x13C7 JUMPI PUSH2 0x13C6 PUSH2 0x136D JUMP JUMPDEST JUMPDEST POP SWAP2 SWAP1 POP JUMP JUMPDEST PUSH1 0x0 DUP2 SWAP1 POP DUP2 PUSH1 0x0 MSTORE PUSH1 0x20 PUSH1 0x0 KECCAK256 SWAP1 POP SWAP2 SWAP1 POP JUMP JUMPDEST PUSH1 0x0 PUSH1 0x20 PUSH1 0x1F DUP4 ADD DIV SWAP1 POP SWAP2 SWAP1 POP JUMP JUMPDEST PUSH1 0x0 DUP3 DUP3 SHL SWAP1 POP SWAP3 SWAP2 POP POP JUMP JUMPDEST PUSH1 0x0 PUSH1 0x8 DUP4 MUL PUSH2 0x142F PUSH32 0xFFFFFFFFFFFFFFFFFFFFFFFFFFFFFFFFFFFFFFFFFFFFFFFFFFFFFFFFFFFFFFFF DUP3 PUSH2 0x13F2 JUMP JUMPDEST PUSH2 0x1439 DUP7 DUP4 PUSH2 0x13F2 JUMP JUMPDEST SWAP6 POP DUP1 NOT DUP5 AND SWAP4 POP DUP1 DUP7 AND DUP5 OR SWAP3 POP POP POP SWAP4 SWAP3 POP POP POP JUMP JUMPDEST PUSH1 0x0 DUP2 SWAP1 POP SWAP2 SWAP1 POP JUMP JUMPDEST PUSH1 0x0 PUSH2 0x1476 PUSH2 0x1471 PUSH2 0x146C DUP5 PUSH2 0xBA4 JUMP JUMPDEST PUSH2 0x1451 JUMP JUMPDEST PUSH2 0xBA4 JUMP JUMPDEST SWAP1 POP SWAP2 SWAP1 POP JUMP JUMPDEST PUSH1 0x0 DUP2 SWAP1 POP SWAP2 SWAP1 POP JUMP JUMPDEST PUSH2 0x1490 DUP4 PUSH2 0x145B JUMP JUMPDEST PUSH2 0x14A4 PUSH2 0x149C DUP3 PUSH2 0x147D JUMP JUMPDEST DUP5 DUP5 SLOAD PUSH2 0x13FF JUMP JUMPDEST DUP3 SSTORE POP POP POP POP JUMP JUMPDEST PUSH1 0x0 SWAP1 JUMP JUMPDEST PUSH2 0x14B9 PUSH2 0x14AC JUMP JUMPDEST PUSH2 0x14C4 DUP2 DUP5 DUP5 PUSH2 0x1487 JUMP JUMPDEST POP POP POP JUMP JUMPDEST JUMPDEST DUP2 DUP2 LT ISZERO PUSH2 0x14E8 JUMPI PUSH2 0x14DD PUSH1 0x0 DUP3 PUSH2 0x14B1 JUMP JUMPDEST PUSH1 0x1 DUP2 ADD SWAP1 POP PUSH2 0x14CA JUMP JUMPDEST POP POP JUMP JUMPDEST PUSH1 0x1F DUP3 GT ISZERO PUSH2 0x152D JUMPI PUSH2 0x14FE DUP2 PUSH2 0x13CD JUMP JUMPDEST PUSH2 0x1507 DUP5 PUSH2 0x13E2 JUMP JUMPDEST DUP2 ADD PUSH1 0x20 DUP6 LT ISZERO PUSH2 0x1516 JUMPI DUP2 SWAP1 POP JUMPDEST PUSH2 0x152A PUSH2 0x1522 DUP6 PUSH2 0x13E2 JUMP JUMPDEST DUP4 ADD DUP3 PUSH2 0x14C9 JUMP JUMPDEST POP POP JUMPDEST POP POP POP JUMP JUMPDEST PUSH1 0x0 DUP3 DUP3 SHR SWAP1 POP SWAP3 SWAP2 POP POP JUMP JUMPDEST PUSH1 0x0 PUSH2 0x1550 PUSH1 0x0 NOT DUP5 PUSH1 0x8 MUL PUSH2 0x1532 JUMP JUMPDEST NOT DUP1 DUP4 AND SWAP2 POP POP SWAP3 SWAP2 POP POP JUMP JUMPDEST PUSH1 0x0 PUSH2 0x1569 DUP4 DUP4 PUSH2 0x153F JUMP JUMPDEST SWAP2 POP DUP3 PUSH1 0x2 MUL DUP3 OR SWAP1 POP SWAP3 SWAP2 POP POP JUMP JUMPDEST PUSH2 0x1582 DUP3 PUSH2 0xF17 JUMP JUMPDEST PUSH8 0xFFFFFFFFFFFFFFFF DUP2 GT ISZERO PUSH2 0x159B JUMPI PUSH2 0x159A PUSH2 0xD3E JUMP JUMPDEST JUMPDEST PUSH2 0x15A5 DUP3 SLOAD PUSH2 0x139C JUMP JUMPDEST PUSH2 0x15B0 DUP3 DUP3 DUP6 PUSH2 0x14EC JUMP JUMPDEST PUSH1 0x0 PUSH1 0x20 SWAP1 POP PUSH1 0x1F DUP4 GT PUSH1 0x1 DUP2 EQ PUSH2 0x15E3 JUMPI PUSH1 0x0 DUP5 ISZERO PUSH2 0x15D1 JUMPI DUP3 DUP8 ADD MLOAD SWAP1 POP JUMPDEST PUSH2 0x15DB DUP6 DUP3 PUSH2 0x155D JUMP JUMPDEST DUP7 SSTORE POP PUSH2 0x1643 JUMP JUMPDEST PUSH1 0x1F NOT DUP5 AND PUSH2 0x15F1 DUP7 PUSH2 0x13CD JUMP JUMPDEST PUSH1 0x0 JUMPDEST DUP3 DUP2 LT ISZERO PUSH2 0x1619 JUMPI DUP5 DUP10 ADD MLOAD DUP3 SSTORE PUSH1 0x1 DUP3 ADD SWAP2 POP PUSH1 0x20 DUP6 ADD SWAP5 POP PUSH1 0x20 DUP2 ADD SWAP1 POP PUSH2 0x15F4 JUMP JUMPDEST DUP7 DUP4 LT ISZERO PUSH2 0x1636 JUMPI DUP5 DUP10 ADD MLOAD PUSH2 0x1632 PUSH1 0x1F DUP10 AND DUP3 PUSH2 0x153F JUMP JUMPDEST DUP4 SSTORE POP JUMPDEST PUSH1 0x1 PUSH1 0x2 DUP9 MUL ADD DUP9 SSTORE POP POP POP JUMPDEST POP POP POP POP POP POP JUMP JUMPDEST PUSH32 0x4E6F7420656E6F7567682066756E647300000000000000000000000000000000 PUSH1 0x0 DUP3 ADD MSTORE POP JUMP JUMPDEST PUSH1 0x0 PUSH2 0x1681 PUSH1 0x10 DUP4 PUSH2 0xF22 JUMP JUMPDEST SWAP2 POP PUSH2 0x168C DUP3 PUSH2 0x164B JUMP JUMPDEST PUSH1 0x20 DUP3 ADD SWAP1 POP SWAP2 SWAP1 POP JUMP JUMPDEST PUSH1 0x0 PUSH1 0x20 DUP3 ADD SWAP1 POP DUP2 DUP2 SUB PUSH1 0x0 DUP4 ADD MSTORE PUSH2 0x16B0 DUP2 PUSH2 0x1674 JUMP JUMPDEST SWAP1 POP SWAP2 SWAP1 POP JUMP JUMPDEST PUSH32 0x4E6F2076616C6964206372656469742063617264000000000000000000000000 PUSH1 0x0 DUP3 ADD MSTORE POP JUMP JUMPDEST PUSH1 0x0 PUSH2 0x16ED PUSH1 0x14 DUP4 PUSH2 0xF22 JUMP JUMPDEST SWAP2 POP PUSH2 0x16F8 DUP3 PUSH2 0x16B7 JUMP JUMPDEST PUSH1 0x20 DUP3 ADD SWAP1 POP SWAP2 SWAP1 POP JUMP JUMPDEST PUSH1 0x0 PUSH1 0x20 DUP3 ADD SWAP1 POP DUP2 DUP2 SUB PUSH1 0x0 DUP4 ADD MSTORE PUSH2 0x171C DUP2 PUSH2 0x16E0 JUMP JUMPDEST SWAP1 POP SWAP2 SWAP1 POP JUMP INVALID LOG2 PUSH5 0x6970667358 0x22 SLT KECCAK256 SELFBALANCE 0x4E 0x21 0x5F 0x24 DUP5 PUSH29 0xC4C5C10E1CF9424809E1701010488DB37C1AA95DA314DE54BB64736F6C PUSH4 0x43000810 STOP CALLER "
				},
				"gasEstimates": {
					"creation": {
						"codeDepositCost": "1195400",
						"executionCost": "infinite",
						"totalCost": "infinite"
					},
					"external": {
						"TotalAmount()": "2496",
						"TotalFunds()": "2474",
						"addTransaction(address,address,uint256,uint256)": "infinite",
						"amount()": "2495",
						"callCount()": "2496",
						"callPutCard()": "2494",
						"cardNumber()": "infinite",
						"cvv()": "infinite",
						"firstTransferTime()": "2497",
						"getOutCard()": "24500",
						"getTime()": "425",
						"getTransaction()": "infinite",
						"message()": "infinite",
						"sendMoney(uint256,address)": "infinite",
						"setCard(string,string)": "infinite",
						"transactionList(uint256)": "infinite"
					}
				},
				"methodIdentifiers": {
					"TotalAmount()": "7eb9f571",
					"TotalFunds()": "7b9a3f4c",
					"addTransaction(address,address,uint256,uint256)": "97838c72",
					"amount()": "aa8c217c",
					"callCount()": "4b28f9a2",
					"callPutCard()": "3c626f00",
					"cardNumber()": "8fa11864",
					"cvv()": "42fb7936",
					"firstTransferTime()": "0e85fa72",
					"getOutCard()": "8e029c0b",
					"getTime()": "557ed1ba",
					"getTransaction()": "59705f81",
					"message()": "e21f37ce",
					"sendMoney(uint256,address)": "062a7544",
					"setCard(string,string)": "12a029a4",
					"transactionList(uint256)": "04ef5b21"
				}
			},
			"storageLayout": {
				"storage": [
					{
						"astId": 271,
						"contract": "Dapp/MoneyTransfer.sol:MoneyTransfer",
						"label": "transactionList",
						"offset": 0,
						"slot": "0",
						"type": "t_array(t_struct(Transactions)267_storage)dyn_storage"
					},
					{
						"astId": 6,
						"contract": "Dapp/MoneyTransfer.sol:MoneyTransfer",
						"label": "amount",
						"offset": 0,
						"slot": "1",
						"type": "t_uint256"
					},
					{
						"astId": 8,
						"contract": "Dapp/MoneyTransfer.sol:MoneyTransfer",
						"label": "TotalFunds",
						"offset": 0,
						"slot": "2",
						"type": "t_uint256"
					},
					{
						"astId": 10,
						"contract": "Dapp/MoneyTransfer.sol:MoneyTransfer",
						"label": "receiver",
						"offset": 0,
						"slot": "3",
						"type": "t_address"
					},
					{
						"astId": 12,
						"contract": "Dapp/MoneyTransfer.sol:MoneyTransfer",
						"label": "message",
						"offset": 0,
						"slot": "4",
						"type": "t_string_storage"
					},
					{
						"astId": 14,
						"contract": "Dapp/MoneyTransfer.sol:MoneyTransfer",
						"label": "cardNumber",
						"offset": 0,
						"slot": "5",
						"type": "t_string_storage"
					},
					{
						"astId": 16,
						"contract": "Dapp/MoneyTransfer.sol:MoneyTransfer",
						"label": "cvv",
						"offset": 0,
						"slot": "6",
						"type": "t_string_storage"
					},
					{
						"astId": 18,
						"contract": "Dapp/MoneyTransfer.sol:MoneyTransfer",
						"label": "TotalAmount",
						"offset": 0,
						"slot": "7",
						"type": "t_uint256"
					},
					{
						"astId": 20,
						"contract": "Dapp/MoneyTransfer.sol:MoneyTransfer",
						"label": "firstTransferTime",
						"offset": 0,
						"slot": "8",
						"type": "t_uint256"
					},
					{
						"astId": 33,
						"contract": "Dapp/MoneyTransfer.sol:MoneyTransfer",
						"label": "callCount",
						"offset": 0,
						"slot": "9",
						"type": "t_uint256"
					},
					{
						"astId": 36,
						"contract": "Dapp/MoneyTransfer.sol:MoneyTransfer",
						"label": "callPutCard",
						"offset": 0,
						"slot": "10",
						"type": "t_bool"
					}
				],
				"types": {
					"t_address": {
						"encoding": "inplace",
						"label": "address",
						"numberOfBytes": "20"
					},
					"t_array(t_struct(Transactions)267_storage)dyn_storage": {
						"base": "t_struct(Transactions)267_storage",
						"encoding": "dynamic_array",
						"label": "struct Transaction.Transactions[]",
						"numberOfBytes": "32"
					},
					"t_bool": {
						"encoding": "inplace",
						"label": "bool",
						"numberOfBytes": "1"
					},
					"t_string_storage": {
						"encoding": "bytes",
						"label": "string",
						"numberOfBytes": "32"
					},
					"t_struct(Transactions)267_storage": {
						"encoding": "inplace",
						"label": "struct Transaction.Transactions",
						"members": [
							{
								"astId": 260,
								"contract": "Dapp/MoneyTransfer.sol:MoneyTransfer",
								"label": "address_from",
								"offset": 0,
								"slot": "0",
								"type": "t_address"
							},
							{
								"astId": 262,
								"contract": "Dapp/MoneyTransfer.sol:MoneyTransfer",
								"label": "address_to",
								"offset": 0,
								"slot": "1",
								"type": "t_address"
							},
							{
								"astId": 264,
								"contract": "Dapp/MoneyTransfer.sol:MoneyTransfer",
								"label": "amount",
								"offset": 0,
								"slot": "2",
								"type": "t_uint256"
							},
							{
								"astId": 266,
								"contract": "Dapp/MoneyTransfer.sol:MoneyTransfer",
								"label": "timestamp",
								"offset": 0,
								"slot": "3",
								"type": "t_uint256"
							}
						],
						"numberOfBytes": "128"
					},
					"t_uint256": {
						"encoding": "inplace",
						"label": "uint256",
						"numberOfBytes": "32"
					}
				}
			},
			"userdoc": {
				"kind": "user",
				"methods": {},
				"version": 1
			}
		}
	}
}