{
	"Dapp/Transaction.sol": {
		"Transaction": {
			"abi": [
				{
					"inputs": [
						{
							"internalType": "address",
							"name": "_address_from",
							"type": "address"
						},
						{
							"internalType": "address",
							"name": "_address_to",
							"type": "address"
						},
						{
							"internalType": "uint256",
							"name": "_amount",
							"type": "uint256"
						},
						{
							"internalType": "uint256",
							"name": "_timestamp",
							"type": "uint256"
						}
					],
					"name": "addTransaction",
					"outputs": [],
					"stateMutability": "nonpayable",
					"type": "function"
				},
				{
					"inputs": [],
					"name": "getTransaction",
					"outputs": [
						{
							"components": [
								{
									"internalType": "address",
									"name": "address_from",
									"type": "address"
								},
								{
									"internalType": "address",
									"name": "address_to",
									"type": "address"
								},
								{
									"internalType": "uint256",
									"name": "amount",
									"type": "uint256"
								},
								{
									"internalType": "uint256",
									"name": "timestamp",
									"type": "uint256"
								}
							],
							"internalType": "struct Transaction.Transactions[]",
							"name": "",
							"type": "tuple[]"
						}
					],
					"stateMutability": "view",
					"type": "function"
				},
				{
					"inputs": [
						{
							"internalType": "uint256",
							"name": "",
							"type": "uint256"
						}
					],
					"name": "transactionList",
					"outputs": [
						{
							"internalType": "address",
							"name": "address_from",
							"type": "address"
						},
						{
							"internalType": "address",
							"name": "address_to",
							"type": "address"
						},
						{
							"internalType": "uint256",
							"name": "amount",
							"type": "uint256"
						},
						{
							"internalType": "uint256",
							"name": "timestamp",
							"type": "uint256"
						}
					],
					"stateMutability": "view",
					"type": "function"
				}
			],
			"devdoc": {
				"kind": "dev",
				"methods": {},
				"version": 1
			},
			"evm": {
				"assembly": "    /* \"Dapp/Transaction.sol\":69:692  contract Transaction{... */\n  mstore(0x40, 0x80)\n  callvalue\n  dup1\n  iszero\n  tag_1\n  jumpi\n  0x00\n  dup1\n  revert\ntag_1:\n  pop\n  dataSize(sub_0)\n  dup1\n  dataOffset(sub_0)\n  0x00\n  codecopy\n  0x00\n  return\nstop\n\nsub_0: assembly {\n        /* \"Dapp/Transaction.sol\":69:692  contract Transaction{... */\n      mstore(0x40, 0x80)\n      callvalue\n      dup1\n      iszero\n      tag_1\n      jumpi\n      0x00\n      dup1\n      revert\n    tag_1:\n      pop\n      jumpi(tag_2, lt(calldatasize, 0x04))\n      shr(0xe0, calldataload(0x00))\n      dup1\n      0x04ef5b21\n      eq\n      tag_3\n      jumpi\n      dup1\n      0x59705f81\n      eq\n      tag_4\n      jumpi\n      dup1\n      0x97838c72\n      eq\n      tag_5\n      jumpi\n    tag_2:\n      0x00\n      dup1\n      revert\n        /* \"Dapp/Transaction.sol\":243:280  Transactions[] public transactionList */\n    tag_3:\n      tag_6\n      0x04\n      dup1\n      calldatasize\n      sub\n      dup2\n      add\n      swap1\n      tag_7\n      swap2\n      swap1\n      tag_8\n      jump\t// in\n    tag_7:\n      tag_9\n      jump\t// in\n    tag_6:\n      mload(0x40)\n      tag_10\n      swap5\n      swap4\n      swap3\n      swap2\n      swap1\n      tag_11\n      jump\t// in\n    tag_10:\n      mload(0x40)\n      dup1\n      swap2\n      sub\n      swap1\n      return\n        /* \"Dapp/Transaction.sol\":575:685  function getTransaction() public view returns(Transactions[] memory){... */\n    tag_4:\n      tag_12\n      tag_13\n      jump\t// in\n    tag_12:\n      mload(0x40)\n      tag_14\n      swap2\n      swap1\n      tag_15\n      jump\t// in\n    tag_14:\n      mload(0x40)\n      dup1\n      swap2\n      sub\n      swap1\n      return\n        /* \"Dapp/Transaction.sol\":289:567  function addTransaction(address _address_from ,address _address_to, uint _amount, uint _timestamp)public{... */\n    tag_5:\n      tag_16\n      0x04\n      dup1\n      calldatasize\n      sub\n      dup2\n      add\n      swap1\n      tag_17\n      swap2\n      swap1\n      tag_18\n      jump\t// in\n    tag_17:\n      tag_19\n      jump\t// in\n    tag_16:\n      stop\n        /* \"Dapp/Transaction.sol\":243:280  Transactions[] public transactionList */\n    tag_9:\n      0x00\n      dup2\n      dup2\n      sload\n      dup2\n      lt\n      tag_20\n      jumpi\n      0x00\n      dup1\n      revert\n    tag_20:\n      swap1\n      0x00\n      mstore\n      keccak256(0x00, 0x20)\n      swap1\n      0x04\n      mul\n      add\n      0x00\n      swap2\n      pop\n      swap1\n      pop\n      dup1\n      0x00\n      add\n      0x00\n      swap1\n      sload\n      swap1\n      0x0100\n      exp\n      swap1\n      div\n      0xffffffffffffffffffffffffffffffffffffffff\n      and\n      swap1\n      dup1\n      0x01\n      add\n      0x00\n      swap1\n      sload\n      swap1\n      0x0100\n      exp\n      swap1\n      div\n      0xffffffffffffffffffffffffffffffffffffffff\n      and\n      swap1\n      dup1\n      0x02\n      add\n      sload\n      swap1\n      dup1\n      0x03\n      add\n      sload\n      swap1\n      pop\n      dup5\n      jump\t// out\n        /* \"Dapp/Transaction.sol\":575:685  function getTransaction() public view returns(Transactions[] memory){... */\n    tag_13:\n        /* \"Dapp/Transaction.sol\":621:642  Transactions[] memory */\n      0x60\n        /* \"Dapp/Transaction.sol\":662:677  transactionList */\n      0x00\n        /* \"Dapp/Transaction.sol\":655:677  return transactionList */\n      dup1\n      sload\n      dup1\n      0x20\n      mul\n      0x20\n      add\n      mload(0x40)\n      swap1\n      dup2\n      add\n      0x40\n      mstore\n      dup1\n      swap3\n      swap2\n      swap1\n      dup2\n      dup2\n      mstore\n      0x20\n      add\n      0x00\n      swap1\n    tag_23:\n      dup3\n      dup3\n      lt\n      iszero\n      tag_24\n      jumpi\n      dup4\n      dup3\n      swap1\n      0x00\n      mstore\n      keccak256(0x00, 0x20)\n      swap1\n      0x04\n      mul\n      add\n      mload(0x40)\n      dup1\n      0x80\n      add\n      0x40\n      mstore\n      swap1\n      dup2\n      0x00\n      dup3\n      add\n      0x00\n      swap1\n      sload\n      swap1\n      0x0100\n      exp\n      swap1\n      div\n      0xffffffffffffffffffffffffffffffffffffffff\n      and\n      0xffffffffffffffffffffffffffffffffffffffff\n      and\n      0xffffffffffffffffffffffffffffffffffffffff\n      and\n      dup2\n      mstore\n      0x20\n      add\n      0x01\n      dup3\n      add\n      0x00\n      swap1\n      sload\n      swap1\n      0x0100\n      exp\n      swap1\n      div\n      0xffffffffffffffffffffffffffffffffffffffff\n      and\n      0xffffffffffffffffffffffffffffffffffffffff\n      and\n      0xffffffffffffffffffffffffffffffffffffffff\n      and\n      dup2\n      mstore\n      0x20\n      add\n      0x02\n      dup3\n      add\n      sload\n      dup2\n      mstore\n      0x20\n      add\n      0x03\n      dup3\n      add\n      sload\n      dup2\n      mstore\n      pop\n      pop\n      dup2\n      mstore\n      0x20\n      add\n      swap1\n      0x01\n      add\n      swap1\n      jump(tag_23)\n    tag_24:\n      pop\n      pop\n      pop\n      pop\n      swap1\n      pop\n        /* \"Dapp/Transaction.sol\":575:685  function getTransaction() public view returns(Transactions[] memory){... */\n      swap1\n      jump\t// out\n        /* \"Dapp/Transaction.sol\":289:567  function addTransaction(address _address_from ,address _address_to, uint _amount, uint _timestamp)public{... */\n    tag_19:\n        /* \"Dapp/Transaction.sol\":414:448  Transactions memory newTransaction */\n      0x00\n        /* \"Dapp/Transaction.sol\":451:512  Transactions(_address_from, _address_to, _amount, _timestamp) */\n      mload(0x40)\n      dup1\n      0x80\n      add\n      0x40\n      mstore\n      dup1\n        /* \"Dapp/Transaction.sol\":464:477  _address_from */\n      dup7\n        /* \"Dapp/Transaction.sol\":451:512  Transactions(_address_from, _address_to, _amount, _timestamp) */\n      0xffffffffffffffffffffffffffffffffffffffff\n      and\n      dup2\n      mstore\n      0x20\n      add\n        /* \"Dapp/Transaction.sol\":479:490  _address_to */\n      dup6\n        /* \"Dapp/Transaction.sol\":451:512  Transactions(_address_from, _address_to, _amount, _timestamp) */\n      0xffffffffffffffffffffffffffffffffffffffff\n      and\n      dup2\n      mstore\n      0x20\n      add\n        /* \"Dapp/Transaction.sol\":492:499  _amount */\n      dup5\n        /* \"Dapp/Transaction.sol\":451:512  Transactions(_address_from, _address_to, _amount, _timestamp) */\n      dup2\n      mstore\n      0x20\n      add\n        /* \"Dapp/Transaction.sol\":501:511  _timestamp */\n      dup4\n        /* \"Dapp/Transaction.sol\":451:512  Transactions(_address_from, _address_to, _amount, _timestamp) */\n      dup2\n      mstore\n      pop\n        /* \"Dapp/Transaction.sol\":414:512  Transactions memory newTransaction = Transactions(_address_from, _address_to, _amount, _timestamp) */\n      swap1\n      pop\n        /* \"Dapp/Transaction.sol\":523:538  transactionList */\n      0x00\n        /* \"Dapp/Transaction.sol\":544:558  newTransaction */\n      dup2\n        /* \"Dapp/Transaction.sol\":523:559  transactionList.push(newTransaction) */\n      swap1\n      dup1\n      0x01\n      dup2\n      sload\n      add\n      dup1\n      dup3\n      sstore\n      dup1\n      swap2\n      pop\n      pop\n      0x01\n      swap1\n      sub\n      swap1\n      0x00\n      mstore\n      keccak256(0x00, 0x20)\n      swap1\n      0x04\n      mul\n      add\n      0x00\n      swap1\n      swap2\n      swap1\n      swap2\n      swap1\n      swap2\n      pop\n      0x00\n      dup3\n      add\n      mload\n      dup2\n      0x00\n      add\n      exp(0x0100, 0x00)\n      dup2\n      sload\n      dup2\n      0xffffffffffffffffffffffffffffffffffffffff\n      mul\n      not\n      and\n      swap1\n      dup4\n      0xffffffffffffffffffffffffffffffffffffffff\n      and\n      mul\n      or\n      swap1\n      sstore\n      pop\n      0x20\n      dup3\n      add\n      mload\n      dup2\n      0x01\n      add\n      exp(0x0100, 0x00)\n      dup2\n      sload\n      dup2\n      0xffffffffffffffffffffffffffffffffffffffff\n      mul\n      not\n      and\n      swap1\n      dup4\n      0xffffffffffffffffffffffffffffffffffffffff\n      and\n      mul\n      or\n      swap1\n      sstore\n      pop\n      0x40\n      dup3\n      add\n      mload\n      dup2\n      0x02\n      add\n      sstore\n      0x60\n      dup3\n      add\n      mload\n      dup2\n      0x03\n      add\n      sstore\n      pop\n      pop\n        /* \"Dapp/Transaction.sol\":393:567  {... */\n      pop\n        /* \"Dapp/Transaction.sol\":289:567  function addTransaction(address _address_from ,address _address_to, uint _amount, uint _timestamp)public{... */\n      pop\n      pop\n      pop\n      pop\n      jump\t// out\n        /* \"#utility.yul\":88:205   */\n    tag_29:\n        /* \"#utility.yul\":197:198   */\n      0x00\n        /* \"#utility.yul\":194:195   */\n      dup1\n        /* \"#utility.yul\":187:199   */\n      revert\n        /* \"#utility.yul\":334:411   */\n    tag_31:\n        /* \"#utility.yul\":371:378   */\n      0x00\n        /* \"#utility.yul\":400:405   */\n      dup2\n        /* \"#utility.yul\":389:405   */\n      swap1\n      pop\n        /* \"#utility.yul\":334:411   */\n      swap2\n      swap1\n      pop\n      jump\t// out\n        /* \"#utility.yul\":417:539   */\n    tag_32:\n        /* \"#utility.yul\":490:514   */\n      tag_55\n        /* \"#utility.yul\":508:513   */\n      dup2\n        /* \"#utility.yul\":490:514   */\n      tag_31\n      jump\t// in\n    tag_55:\n        /* \"#utility.yul\":483:488   */\n      dup2\n        /* \"#utility.yul\":480:515   */\n      eq\n        /* \"#utility.yul\":470:533   */\n      tag_56\n      jumpi\n        /* \"#utility.yul\":529:530   */\n      0x00\n        /* \"#utility.yul\":526:527   */\n      dup1\n        /* \"#utility.yul\":519:531   */\n      revert\n        /* \"#utility.yul\":470:533   */\n    tag_56:\n        /* \"#utility.yul\":417:539   */\n      pop\n      jump\t// out\n        /* \"#utility.yul\":545:684   */\n    tag_33:\n        /* \"#utility.yul\":591:596   */\n      0x00\n        /* \"#utility.yul\":629:635   */\n      dup2\n        /* \"#utility.yul\":616:636   */\n      calldataload\n        /* \"#utility.yul\":607:636   */\n      swap1\n      pop\n        /* \"#utility.yul\":645:678   */\n      tag_58\n        /* \"#utility.yul\":672:677   */\n      dup2\n        /* \"#utility.yul\":645:678   */\n      tag_32\n      jump\t// in\n    tag_58:\n        /* \"#utility.yul\":545:684   */\n      swap3\n      swap2\n      pop\n      pop\n      jump\t// out\n        /* \"#utility.yul\":690:1019   */\n    tag_8:\n        /* \"#utility.yul\":749:755   */\n      0x00\n        /* \"#utility.yul\":798:800   */\n      0x20\n        /* \"#utility.yul\":786:795   */\n      dup3\n        /* \"#utility.yul\":777:784   */\n      dup5\n        /* \"#utility.yul\":773:796   */\n      sub\n        /* \"#utility.yul\":769:801   */\n      slt\n        /* \"#utility.yul\":766:885   */\n      iszero\n      tag_60\n      jumpi\n        /* \"#utility.yul\":804:883   */\n      tag_61\n      tag_29\n      jump\t// in\n    tag_61:\n        /* \"#utility.yul\":766:885   */\n    tag_60:\n        /* \"#utility.yul\":924:925   */\n      0x00\n        /* \"#utility.yul\":949:1002   */\n      tag_62\n        /* \"#utility.yul\":994:1001   */\n      dup5\n        /* \"#utility.yul\":985:991   */\n      dup3\n        /* \"#utility.yul\":974:983   */\n      dup6\n        /* \"#utility.yul\":970:992   */\n      add\n        /* \"#utility.yul\":949:1002   */\n      tag_33\n      jump\t// in\n    tag_62:\n        /* \"#utility.yul\":939:1002   */\n      swap2\n      pop\n        /* \"#utility.yul\":895:1012   */\n      pop\n        /* \"#utility.yul\":690:1019   */\n      swap3\n      swap2\n      pop\n      pop\n      jump\t// out\n        /* \"#utility.yul\":1025:1151   */\n    tag_34:\n        /* \"#utility.yul\":1062:1069   */\n      0x00\n        /* \"#utility.yul\":1102:1144   */\n      0xffffffffffffffffffffffffffffffffffffffff\n        /* \"#utility.yul\":1095:1100   */\n      dup3\n        /* \"#utility.yul\":1091:1145   */\n      and\n        /* \"#utility.yul\":1080:1145   */\n      swap1\n      pop\n        /* \"#utility.yul\":1025:1151   */\n      swap2\n      swap1\n      pop\n      jump\t// out\n        /* \"#utility.yul\":1157:1253   */\n    tag_35:\n        /* \"#utility.yul\":1194:1201   */\n      0x00\n        /* \"#utility.yul\":1223:1247   */\n      tag_65\n        /* \"#utility.yul\":1241:1246   */\n      dup3\n        /* \"#utility.yul\":1223:1247   */\n      tag_34\n      jump\t// in\n    tag_65:\n        /* \"#utility.yul\":1212:1247   */\n      swap1\n      pop\n        /* \"#utility.yul\":1157:1253   */\n      swap2\n      swap1\n      pop\n      jump\t// out\n        /* \"#utility.yul\":1259:1377   */\n    tag_36:\n        /* \"#utility.yul\":1346:1370   */\n      tag_67\n        /* \"#utility.yul\":1364:1369   */\n      dup2\n        /* \"#utility.yul\":1346:1370   */\n      tag_35\n      jump\t// in\n    tag_67:\n        /* \"#utility.yul\":1341:1344   */\n      dup3\n        /* \"#utility.yul\":1334:1371   */\n      mstore\n        /* \"#utility.yul\":1259:1377   */\n      pop\n      pop\n      jump\t// out\n        /* \"#utility.yul\":1383:1501   */\n    tag_37:\n        /* \"#utility.yul\":1470:1494   */\n      tag_69\n        /* \"#utility.yul\":1488:1493   */\n      dup2\n        /* \"#utility.yul\":1470:1494   */\n      tag_31\n      jump\t// in\n    tag_69:\n        /* \"#utility.yul\":1465:1468   */\n      dup3\n        /* \"#utility.yul\":1458:1495   */\n      mstore\n        /* \"#utility.yul\":1383:1501   */\n      pop\n      pop\n      jump\t// out\n        /* \"#utility.yul\":1507:2060   */\n    tag_11:\n        /* \"#utility.yul\":1684:1688   */\n      0x00\n        /* \"#utility.yul\":1722:1725   */\n      0x80\n        /* \"#utility.yul\":1711:1720   */\n      dup3\n        /* \"#utility.yul\":1707:1726   */\n      add\n        /* \"#utility.yul\":1699:1726   */\n      swap1\n      pop\n        /* \"#utility.yul\":1736:1807   */\n      tag_71\n        /* \"#utility.yul\":1804:1805   */\n      0x00\n        /* \"#utility.yul\":1793:1802   */\n      dup4\n        /* \"#utility.yul\":1789:1806   */\n      add\n        /* \"#utility.yul\":1780:1786   */\n      dup8\n        /* \"#utility.yul\":1736:1807   */\n      tag_36\n      jump\t// in\n    tag_71:\n        /* \"#utility.yul\":1817:1889   */\n      tag_72\n        /* \"#utility.yul\":1885:1887   */\n      0x20\n        /* \"#utility.yul\":1874:1883   */\n      dup4\n        /* \"#utility.yul\":1870:1888   */\n      add\n        /* \"#utility.yul\":1861:1867   */\n      dup7\n        /* \"#utility.yul\":1817:1889   */\n      tag_36\n      jump\t// in\n    tag_72:\n        /* \"#utility.yul\":1899:1971   */\n      tag_73\n        /* \"#utility.yul\":1967:1969   */\n      0x40\n        /* \"#utility.yul\":1956:1965   */\n      dup4\n        /* \"#utility.yul\":1952:1970   */\n      add\n        /* \"#utility.yul\":1943:1949   */\n      dup6\n        /* \"#utility.yul\":1899:1971   */\n      tag_37\n      jump\t// in\n    tag_73:\n        /* \"#utility.yul\":1981:2053   */\n      tag_74\n        /* \"#utility.yul\":2049:2051   */\n      0x60\n        /* \"#utility.yul\":2038:2047   */\n      dup4\n        /* \"#utility.yul\":2034:2052   */\n      add\n        /* \"#utility.yul\":2025:2031   */\n      dup5\n        /* \"#utility.yul\":1981:2053   */\n      tag_37\n      jump\t// in\n    tag_74:\n        /* \"#utility.yul\":1507:2060   */\n      swap6\n      swap5\n      pop\n      pop\n      pop\n      pop\n      pop\n      jump\t// out\n        /* \"#utility.yul\":2066:2209   */\n    tag_38:\n        /* \"#utility.yul\":2162:2168   */\n      0x00\n        /* \"#utility.yul\":2196:2201   */\n      dup2\n        /* \"#utility.yul\":2190:2202   */\n      mload\n        /* \"#utility.yul\":2180:2202   */\n      swap1\n      pop\n        /* \"#utility.yul\":2066:2209   */\n      swap2\n      swap1\n      pop\n      jump\t// out\n        /* \"#utility.yul\":2215:2428   */\n    tag_39:\n        /* \"#utility.yul\":2343:2354   */\n      0x00\n        /* \"#utility.yul\":2377:2383   */\n      dup3\n        /* \"#utility.yul\":2372:2375   */\n      dup3\n        /* \"#utility.yul\":2365:2384   */\n      mstore\n        /* \"#utility.yul\":2417:2421   */\n      0x20\n        /* \"#utility.yul\":2412:2415   */\n      dup3\n        /* \"#utility.yul\":2408:2422   */\n      add\n        /* \"#utility.yul\":2393:2422   */\n      swap1\n      pop\n        /* \"#utility.yul\":2215:2428   */\n      swap3\n      swap2\n      pop\n      pop\n      jump\t// out\n        /* \"#utility.yul\":2434:2595   */\n    tag_40:\n        /* \"#utility.yul\":2530:2534   */\n      0x00\n        /* \"#utility.yul\":2553:2556   */\n      dup2\n        /* \"#utility.yul\":2545:2556   */\n      swap1\n      pop\n        /* \"#utility.yul\":2583:2587   */\n      0x20\n        /* \"#utility.yul\":2578:2581   */\n      dup3\n        /* \"#utility.yul\":2574:2588   */\n      add\n        /* \"#utility.yul\":2566:2588   */\n      swap1\n      pop\n        /* \"#utility.yul\":2434:2595   */\n      swap2\n      swap1\n      pop\n      jump\t// out\n        /* \"#utility.yul\":2601:2709   */\n    tag_41:\n        /* \"#utility.yul\":2678:2702   */\n      tag_79\n        /* \"#utility.yul\":2696:2701   */\n      dup2\n        /* \"#utility.yul\":2678:2702   */\n      tag_35\n      jump\t// in\n    tag_79:\n        /* \"#utility.yul\":2673:2676   */\n      dup3\n        /* \"#utility.yul\":2666:2703   */\n      mstore\n        /* \"#utility.yul\":2601:2709   */\n      pop\n      pop\n      jump\t// out\n        /* \"#utility.yul\":2715:2823   */\n    tag_42:\n        /* \"#utility.yul\":2792:2816   */\n      tag_81\n        /* \"#utility.yul\":2810:2815   */\n      dup2\n        /* \"#utility.yul\":2792:2816   */\n      tag_31\n      jump\t// in\n    tag_81:\n        /* \"#utility.yul\":2787:2790   */\n      dup3\n        /* \"#utility.yul\":2780:2817   */\n      mstore\n        /* \"#utility.yul\":2715:2823   */\n      pop\n      pop\n      jump\t// out\n        /* \"#utility.yul\":2903:3777   */\n    tag_43:\n        /* \"#utility.yul\":3048:3052   */\n      0x80\n        /* \"#utility.yul\":3043:3046   */\n      dup3\n        /* \"#utility.yul\":3039:3053   */\n      add\n        /* \"#utility.yul\":3143:3147   */\n      0x00\n        /* \"#utility.yul\":3136:3141   */\n      dup3\n        /* \"#utility.yul\":3132:3148   */\n      add\n        /* \"#utility.yul\":3126:3149   */\n      mload\n        /* \"#utility.yul\":3162:3225   */\n      tag_83\n        /* \"#utility.yul\":3219:3223   */\n      0x00\n        /* \"#utility.yul\":3214:3217   */\n      dup6\n        /* \"#utility.yul\":3210:3224   */\n      add\n        /* \"#utility.yul\":3196:3208   */\n      dup3\n        /* \"#utility.yul\":3162:3225   */\n      tag_41\n      jump\t// in\n    tag_83:\n        /* \"#utility.yul\":3063:3235   */\n      pop\n        /* \"#utility.yul\":3323:3327   */\n      0x20\n        /* \"#utility.yul\":3316:3321   */\n      dup3\n        /* \"#utility.yul\":3312:3328   */\n      add\n        /* \"#utility.yul\":3306:3329   */\n      mload\n        /* \"#utility.yul\":3342:3405   */\n      tag_84\n        /* \"#utility.yul\":3399:3403   */\n      0x20\n        /* \"#utility.yul\":3394:3397   */\n      dup6\n        /* \"#utility.yul\":3390:3404   */\n      add\n        /* \"#utility.yul\":3376:3388   */\n      dup3\n        /* \"#utility.yul\":3342:3405   */\n      tag_41\n      jump\t// in\n    tag_84:\n        /* \"#utility.yul\":3245:3415   */\n      pop\n        /* \"#utility.yul\":3499:3503   */\n      0x40\n        /* \"#utility.yul\":3492:3497   */\n      dup3\n        /* \"#utility.yul\":3488:3504   */\n      add\n        /* \"#utility.yul\":3482:3505   */\n      mload\n        /* \"#utility.yul\":3518:3581   */\n      tag_85\n        /* \"#utility.yul\":3575:3579   */\n      0x40\n        /* \"#utility.yul\":3570:3573   */\n      dup6\n        /* \"#utility.yul\":3566:3580   */\n      add\n        /* \"#utility.yul\":3552:3564   */\n      dup3\n        /* \"#utility.yul\":3518:3581   */\n      tag_42\n      jump\t// in\n    tag_85:\n        /* \"#utility.yul\":3425:3591   */\n      pop\n        /* \"#utility.yul\":3678:3682   */\n      0x60\n        /* \"#utility.yul\":3671:3676   */\n      dup3\n        /* \"#utility.yul\":3667:3683   */\n      add\n        /* \"#utility.yul\":3661:3684   */\n      mload\n        /* \"#utility.yul\":3697:3760   */\n      tag_86\n        /* \"#utility.yul\":3754:3758   */\n      0x60\n        /* \"#utility.yul\":3749:3752   */\n      dup6\n        /* \"#utility.yul\":3745:3759   */\n      add\n        /* \"#utility.yul\":3731:3743   */\n      dup3\n        /* \"#utility.yul\":3697:3760   */\n      tag_42\n      jump\t// in\n    tag_86:\n        /* \"#utility.yul\":3601:3770   */\n      pop\n        /* \"#utility.yul\":3017:3777   */\n      pop\n        /* \"#utility.yul\":2903:3777   */\n      pop\n      pop\n      jump\t// out\n        /* \"#utility.yul\":3783:4078   */\n    tag_44:\n        /* \"#utility.yul\":3910:3920   */\n      0x00\n        /* \"#utility.yul\":3931:4035   */\n      tag_88\n        /* \"#utility.yul\":4031:4034   */\n      dup4\n        /* \"#utility.yul\":4023:4029   */\n      dup4\n        /* \"#utility.yul\":3931:4035   */\n      tag_43\n      jump\t// in\n    tag_88:\n        /* \"#utility.yul\":4067:4071   */\n      0x80\n        /* \"#utility.yul\":4062:4065   */\n      dup4\n        /* \"#utility.yul\":4058:4072   */\n      add\n        /* \"#utility.yul\":4044:4072   */\n      swap1\n      pop\n        /* \"#utility.yul\":3783:4078   */\n      swap3\n      swap2\n      pop\n      pop\n      jump\t// out\n        /* \"#utility.yul\":4084:4226   */\n    tag_45:\n        /* \"#utility.yul\":4183:4187   */\n      0x00\n        /* \"#utility.yul\":4215:4219   */\n      0x20\n        /* \"#utility.yul\":4210:4213   */\n      dup3\n        /* \"#utility.yul\":4206:4220   */\n      add\n        /* \"#utility.yul\":4198:4220   */\n      swap1\n      pop\n        /* \"#utility.yul\":4084:4226   */\n      swap2\n      swap1\n      pop\n      jump\t// out\n        /* \"#utility.yul\":4310:5274   */\n    tag_46:\n        /* \"#utility.yul\":4487:4490   */\n      0x00\n        /* \"#utility.yul\":4516:4599   */\n      tag_91\n        /* \"#utility.yul\":4593:4598   */\n      dup3\n        /* \"#utility.yul\":4516:4599   */\n      tag_38\n      jump\t// in\n    tag_91:\n        /* \"#utility.yul\":4615:4730   */\n      tag_92\n        /* \"#utility.yul\":4723:4729   */\n      dup2\n        /* \"#utility.yul\":4718:4721   */\n      dup6\n        /* \"#utility.yul\":4615:4730   */\n      tag_39\n      jump\t// in\n    tag_92:\n        /* \"#utility.yul\":4608:4730   */\n      swap4\n      pop\n        /* \"#utility.yul\":4754:4839   */\n      tag_93\n        /* \"#utility.yul\":4833:4838   */\n      dup4\n        /* \"#utility.yul\":4754:4839   */\n      tag_40\n      jump\t// in\n    tag_93:\n        /* \"#utility.yul\":4862:4869   */\n      dup1\n        /* \"#utility.yul\":4893:4894   */\n      0x00\n        /* \"#utility.yul\":4878:5249   */\n    tag_94:\n        /* \"#utility.yul\":4903:4909   */\n      dup4\n        /* \"#utility.yul\":4900:4901   */\n      dup2\n        /* \"#utility.yul\":4897:4910   */\n      lt\n        /* \"#utility.yul\":4878:5249   */\n      iszero\n      tag_96\n      jumpi\n        /* \"#utility.yul\":4979:4985   */\n      dup2\n        /* \"#utility.yul\":4973:4986   */\n      mload\n        /* \"#utility.yul\":5006:5127   */\n      tag_97\n        /* \"#utility.yul\":5123:5126   */\n      dup9\n        /* \"#utility.yul\":5108:5121   */\n      dup3\n        /* \"#utility.yul\":5006:5127   */\n      tag_44\n      jump\t// in\n    tag_97:\n        /* \"#utility.yul\":4999:5127   */\n      swap8\n      pop\n        /* \"#utility.yul\":5150:5239   */\n      tag_98\n        /* \"#utility.yul\":5232:5238   */\n      dup4\n        /* \"#utility.yul\":5150:5239   */\n      tag_45\n      jump\t// in\n    tag_98:\n        /* \"#utility.yul\":5140:5239   */\n      swap3\n      pop\n        /* \"#utility.yul\":4938:5249   */\n      pop\n        /* \"#utility.yul\":4925:4926   */\n      0x01\n        /* \"#utility.yul\":4922:4923   */\n      dup2\n        /* \"#utility.yul\":4918:4927   */\n      add\n        /* \"#utility.yul\":4913:4927   */\n      swap1\n      pop\n        /* \"#utility.yul\":4878:5249   */\n      jump(tag_94)\n    tag_96:\n        /* \"#utility.yul\":4882:4896   */\n      pop\n        /* \"#utility.yul\":5265:5268   */\n      dup6\n        /* \"#utility.yul\":5258:5268   */\n      swap4\n      pop\n        /* \"#utility.yul\":4492:5274   */\n      pop\n      pop\n      pop\n        /* \"#utility.yul\":4310:5274   */\n      swap3\n      swap2\n      pop\n      pop\n      jump\t// out\n        /* \"#utility.yul\":5280:5769   */\n    tag_15:\n        /* \"#utility.yul\":5481:5485   */\n      0x00\n        /* \"#utility.yul\":5519:5521   */\n      0x20\n        /* \"#utility.yul\":5508:5517   */\n      dup3\n        /* \"#utility.yul\":5504:5522   */\n      add\n        /* \"#utility.yul\":5496:5522   */\n      swap1\n      pop\n        /* \"#utility.yul\":5568:5577   */\n      dup2\n        /* \"#utility.yul\":5562:5566   */\n      dup2\n        /* \"#utility.yul\":5558:5578   */\n      sub\n        /* \"#utility.yul\":5554:5555   */\n      0x00\n        /* \"#utility.yul\":5543:5552   */\n      dup4\n        /* \"#utility.yul\":5539:5556   */\n      add\n        /* \"#utility.yul\":5532:5579   */\n      mstore\n        /* \"#utility.yul\":5596:5762   */\n      tag_100\n        /* \"#utility.yul\":5757:5761   */\n      dup2\n        /* \"#utility.yul\":5748:5754   */\n      dup5\n        /* \"#utility.yul\":5596:5762   */\n      tag_46\n      jump\t// in\n    tag_100:\n        /* \"#utility.yul\":5588:5762   */\n      swap1\n      pop\n        /* \"#utility.yul\":5280:5769   */\n      swap3\n      swap2\n      pop\n      pop\n      jump\t// out\n        /* \"#utility.yul\":5775:5897   */\n    tag_47:\n        /* \"#utility.yul\":5848:5872   */\n      tag_102\n        /* \"#utility.yul\":5866:5871   */\n      dup2\n        /* \"#utility.yul\":5848:5872   */\n      tag_35\n      jump\t// in\n    tag_102:\n        /* \"#utility.yul\":5841:5846   */\n      dup2\n        /* \"#utility.yul\":5838:5873   */\n      eq\n        /* \"#utility.yul\":5828:5891   */\n      tag_103\n      jumpi\n        /* \"#utility.yul\":5887:5888   */\n      0x00\n        /* \"#utility.yul\":5884:5885   */\n      dup1\n        /* \"#utility.yul\":5877:5889   */\n      revert\n        /* \"#utility.yul\":5828:5891   */\n    tag_103:\n        /* \"#utility.yul\":5775:5897   */\n      pop\n      jump\t// out\n        /* \"#utility.yul\":5903:6042   */\n    tag_48:\n        /* \"#utility.yul\":5949:5954   */\n      0x00\n        /* \"#utility.yul\":5987:5993   */\n      dup2\n        /* \"#utility.yul\":5974:5994   */\n      calldataload\n        /* \"#utility.yul\":5965:5994   */\n      swap1\n      pop\n        /* \"#utility.yul\":6003:6036   */\n      tag_105\n        /* \"#utility.yul\":6030:6035   */\n      dup2\n        /* \"#utility.yul\":6003:6036   */\n      tag_47\n      jump\t// in\n    tag_105:\n        /* \"#utility.yul\":5903:6042   */\n      swap3\n      swap2\n      pop\n      pop\n      jump\t// out\n        /* \"#utility.yul\":6048:6813   */\n    tag_18:\n        /* \"#utility.yul\":6134:6140   */\n      0x00\n        /* \"#utility.yul\":6142:6148   */\n      dup1\n        /* \"#utility.yul\":6150:6156   */\n      0x00\n        /* \"#utility.yul\":6158:6164   */\n      dup1\n        /* \"#utility.yul\":6207:6210   */\n      0x80\n        /* \"#utility.yul\":6195:6204   */\n      dup6\n        /* \"#utility.yul\":6186:6193   */\n      dup8\n        /* \"#utility.yul\":6182:6205   */\n      sub\n        /* \"#utility.yul\":6178:6211   */\n      slt\n        /* \"#utility.yul\":6175:6295   */\n      iszero\n      tag_107\n      jumpi\n        /* \"#utility.yul\":6214:6293   */\n      tag_108\n      tag_29\n      jump\t// in\n    tag_108:\n        /* \"#utility.yul\":6175:6295   */\n    tag_107:\n        /* \"#utility.yul\":6334:6335   */\n      0x00\n        /* \"#utility.yul\":6359:6412   */\n      tag_109\n        /* \"#utility.yul\":6404:6411   */\n      dup8\n        /* \"#utility.yul\":6395:6401   */\n      dup3\n        /* \"#utility.yul\":6384:6393   */\n      dup9\n        /* \"#utility.yul\":6380:6402   */\n      add\n        /* \"#utility.yul\":6359:6412   */\n      tag_48\n      jump\t// in\n    tag_109:\n        /* \"#utility.yul\":6349:6412   */\n      swap5\n      pop\n        /* \"#utility.yul\":6305:6422   */\n      pop\n        /* \"#utility.yul\":6461:6463   */\n      0x20\n        /* \"#utility.yul\":6487:6540   */\n      tag_110\n        /* \"#utility.yul\":6532:6539   */\n      dup8\n        /* \"#utility.yul\":6523:6529   */\n      dup3\n        /* \"#utility.yul\":6512:6521   */\n      dup9\n        /* \"#utility.yul\":6508:6530   */\n      add\n        /* \"#utility.yul\":6487:6540   */\n      tag_48\n      jump\t// in\n    tag_110:\n        /* \"#utility.yul\":6477:6540   */\n      swap4\n      pop\n        /* \"#utility.yul\":6432:6550   */\n      pop\n        /* \"#utility.yul\":6589:6591   */\n      0x40\n        /* \"#utility.yul\":6615:6668   */\n      tag_111\n        /* \"#utility.yul\":6660:6667   */\n      dup8\n        /* \"#utility.yul\":6651:6657   */\n      dup3\n        /* \"#utility.yul\":6640:6649   */\n      dup9\n        /* \"#utility.yul\":6636:6658   */\n      add\n        /* \"#utility.yul\":6615:6668   */\n      tag_33\n      jump\t// in\n    tag_111:\n        /* \"#utility.yul\":6605:6668   */\n      swap3\n      pop\n        /* \"#utility.yul\":6560:6678   */\n      pop\n        /* \"#utility.yul\":6717:6719   */\n      0x60\n        /* \"#utility.yul\":6743:6796   */\n      tag_112\n        /* \"#utility.yul\":6788:6795   */\n      dup8\n        /* \"#utility.yul\":6779:6785   */\n      dup3\n        /* \"#utility.yul\":6768:6777   */\n      dup9\n        /* \"#utility.yul\":6764:6786   */\n      add\n        /* \"#utility.yul\":6743:6796   */\n      tag_33\n      jump\t// in\n    tag_112:\n        /* \"#utility.yul\":6733:6796   */\n      swap2\n      pop\n        /* \"#utility.yul\":6688:6806   */\n      pop\n        /* \"#utility.yul\":6048:6813   */\n      swap3\n      swap6\n      swap2\n      swap5\n      pop\n      swap3\n      pop\n      jump\t// out\n\n    auxdata: 0xa2646970667358221220904d4b4202ef288ec002782c3742c1769d015aab19773cdb50e180af8f0e266464736f6c63430008100033\n}\n",
				"bytecode": {
					"linkReferences": {},
					"object": "608060405234801561001057600080fd5b50610684806100206000396000f3fe608060405234801561001057600080fd5b50600436106100415760003560e01c806304ef5b211461004657806359705f811461007957806397838c7214610097575b600080fd5b610060600480360381019061005b91906103b5565b6100b3565b6040516100709493929190610432565b60405180910390f35b610081610133565b60405161008e9190610599565b60405180910390f35b6100b160048036038101906100ac91906105e7565b610252565b005b600081815481106100c357600080fd5b90600052602060002090600402016000915090508060000160009054906101000a900473ffffffffffffffffffffffffffffffffffffffff16908060010160009054906101000a900473ffffffffffffffffffffffffffffffffffffffff16908060020154908060030154905084565b60606000805480602002602001604051908101604052809291908181526020016000905b8282101561024957838290600052602060002090600402016040518060800160405290816000820160009054906101000a900473ffffffffffffffffffffffffffffffffffffffff1673ffffffffffffffffffffffffffffffffffffffff1673ffffffffffffffffffffffffffffffffffffffff1681526020016001820160009054906101000a900473ffffffffffffffffffffffffffffffffffffffff1673ffffffffffffffffffffffffffffffffffffffff1673ffffffffffffffffffffffffffffffffffffffff1681526020016002820154815260200160038201548152505081526020019060010190610157565b50505050905090565b600060405180608001604052808673ffffffffffffffffffffffffffffffffffffffff1681526020018573ffffffffffffffffffffffffffffffffffffffff168152602001848152602001838152509050600081908060018154018082558091505060019003906000526020600020906004020160009091909190915060008201518160000160006101000a81548173ffffffffffffffffffffffffffffffffffffffff021916908373ffffffffffffffffffffffffffffffffffffffff16021790555060208201518160010160006101000a81548173ffffffffffffffffffffffffffffffffffffffff021916908373ffffffffffffffffffffffffffffffffffffffff160217905550604082015181600201556060820151816003015550505050505050565b600080fd5b6000819050919050565b6103928161037f565b811461039d57600080fd5b50565b6000813590506103af81610389565b92915050565b6000602082840312156103cb576103ca61037a565b5b60006103d9848285016103a0565b91505092915050565b600073ffffffffffffffffffffffffffffffffffffffff82169050919050565b600061040d826103e2565b9050919050565b61041d81610402565b82525050565b61042c8161037f565b82525050565b60006080820190506104476000830187610414565b6104546020830186610414565b6104616040830185610423565b61046e6060830184610423565b95945050505050565b600081519050919050565b600082825260208201905092915050565b6000819050602082019050919050565b6104ac81610402565b82525050565b6104bb8161037f565b82525050565b6080820160008201516104d760008501826104a3565b5060208201516104ea60208501826104a3565b5060408201516104fd60408501826104b2565b50606082015161051060608501826104b2565b50505050565b600061052283836104c1565b60808301905092915050565b6000602082019050919050565b600061054682610477565b6105508185610482565b935061055b83610493565b8060005b8381101561058c5781516105738882610516565b975061057e8361052e565b92505060018101905061055f565b5085935050505092915050565b600060208201905081810360008301526105b3818461053b565b905092915050565b6105c481610402565b81146105cf57600080fd5b50565b6000813590506105e1816105bb565b92915050565b600080600080608085870312156106015761060061037a565b5b600061060f878288016105d2565b9450506020610620878288016105d2565b9350506040610631878288016103a0565b9250506060610642878288016103a0565b9150509295919450925056fea2646970667358221220904d4b4202ef288ec002782c3742c1769d015aab19773cdb50e180af8f0e266464736f6c63430008100033",
					"opcodes": "PUSH1 0x80 PUSH1 0x40 MSTORE CALLVALUE DUP1 ISZERO PUSH2 0x10 JUMPI PUSH1 0x0 DUP1 REVERT JUMPDEST POP PUSH2 0x684 DUP1 PUSH2 0x20 PUSH1 0x0 CODECOPY PUSH1 0x0 RETURN INVALID PUSH1 0x80 PUSH1 0x40 MSTORE CALLVALUE DUP1 ISZERO PUSH2 0x10 JUMPI PUSH1 0x0 DUP1 REVERT JUMPDEST POP PUSH1 0x4 CALLDATASIZE LT PUSH2 0x41 JUMPI PUSH1 0x0 CALLDATALOAD PUSH1 0xE0 SHR DUP1 PUSH4 0x4EF5B21 EQ PUSH2 0x46 JUMPI DUP1 PUSH4 0x59705F81 EQ PUSH2 0x79 JUMPI DUP1 PUSH4 0x97838C72 EQ PUSH2 0x97 JUMPI JUMPDEST PUSH1 0x0 DUP1 REVERT JUMPDEST PUSH2 0x60 PUSH1 0x4 DUP1 CALLDATASIZE SUB DUP2 ADD SWAP1 PUSH2 0x5B SWAP2 SWAP1 PUSH2 0x3B5 JUMP JUMPDEST PUSH2 0xB3 JUMP JUMPDEST PUSH1 0x40 MLOAD PUSH2 0x70 SWAP5 SWAP4 SWAP3 SWAP2 SWAP1 PUSH2 0x432 JUMP JUMPDEST PUSH1 0x40 MLOAD DUP1 SWAP2 SUB SWAP1 RETURN JUMPDEST PUSH2 0x81 PUSH2 0x133 JUMP JUMPDEST PUSH1 0x40 MLOAD PUSH2 0x8E SWAP2 SWAP1 PUSH2 0x599 JUMP JUMPDEST PUSH1 0x40 MLOAD DUP1 SWAP2 SUB SWAP1 RETURN JUMPDEST PUSH2 0xB1 PUSH1 0x4 DUP1 CALLDATASIZE SUB DUP2 ADD SWAP1 PUSH2 0xAC SWAP2 SWAP1 PUSH2 0x5E7 JUMP JUMPDEST PUSH2 0x252 JUMP JUMPDEST STOP JUMPDEST PUSH1 0x0 DUP2 DUP2 SLOAD DUP2 LT PUSH2 0xC3 JUMPI PUSH1 0x0 DUP1 REVERT JUMPDEST SWAP1 PUSH1 0x0 MSTORE PUSH1 0x20 PUSH1 0x0 KECCAK256 SWAP1 PUSH1 0x4 MUL ADD PUSH1 0x0 SWAP2 POP SWAP1 POP DUP1 PUSH1 0x0 ADD PUSH1 0x0 SWAP1 SLOAD SWAP1 PUSH2 0x100 EXP SWAP1 DIV PUSH20 0xFFFFFFFFFFFFFFFFFFFFFFFFFFFFFFFFFFFFFFFF AND SWAP1 DUP1 PUSH1 0x1 ADD PUSH1 0x0 SWAP1 SLOAD SWAP1 PUSH2 0x100 EXP SWAP1 DIV PUSH20 0xFFFFFFFFFFFFFFFFFFFFFFFFFFFFFFFFFFFFFFFF AND SWAP1 DUP1 PUSH1 0x2 ADD SLOAD SWAP1 DUP1 PUSH1 0x3 ADD SLOAD SWAP1 POP DUP5 JUMP JUMPDEST PUSH1 0x60 PUSH1 0x0 DUP1 SLOAD DUP1 PUSH1 0x20 MUL PUSH1 0x20 ADD PUSH1 0x40 MLOAD SWAP1 DUP2 ADD PUSH1 0x40 MSTORE DUP1 SWAP3 SWAP2 SWAP1 DUP2 DUP2 MSTORE PUSH1 0x20 ADD PUSH1 0x0 SWAP1 JUMPDEST DUP3 DUP3 LT ISZERO PUSH2 0x249 JUMPI DUP4 DUP3 SWAP1 PUSH1 0x0 MSTORE PUSH1 0x20 PUSH1 0x0 KECCAK256 SWAP1 PUSH1 0x4 MUL ADD PUSH1 0x40 MLOAD DUP1 PUSH1 0x80 ADD PUSH1 0x40 MSTORE SWAP1 DUP2 PUSH1 0x0 DUP3 ADD PUSH1 0x0 SWAP1 SLOAD SWAP1 PUSH2 0x100 EXP SWAP1 DIV PUSH20 0xFFFFFFFFFFFFFFFFFFFFFFFFFFFFFFFFFFFFFFFF AND PUSH20 0xFFFFFFFFFFFFFFFFFFFFFFFFFFFFFFFFFFFFFFFF AND PUSH20 0xFFFFFFFFFFFFFFFFFFFFFFFFFFFFFFFFFFFFFFFF AND DUP2 MSTORE PUSH1 0x20 ADD PUSH1 0x1 DUP3 ADD PUSH1 0x0 SWAP1 SLOAD SWAP1 PUSH2 0x100 EXP SWAP1 DIV PUSH20 0xFFFFFFFFFFFFFFFFFFFFFFFFFFFFFFFFFFFFFFFF AND PUSH20 0xFFFFFFFFFFFFFFFFFFFFFFFFFFFFFFFFFFFFFFFF AND PUSH20 0xFFFFFFFFFFFFFFFFFFFFFFFFFFFFFFFFFFFFFFFF AND DUP2 MSTORE PUSH1 0x20 ADD PUSH1 0x2 DUP3 ADD SLOAD DUP2 MSTORE PUSH1 0x20 ADD PUSH1 0x3 DUP3 ADD SLOAD DUP2 MSTORE POP POP DUP2 MSTORE PUSH1 0x20 ADD SWAP1 PUSH1 0x1 ADD SWAP1 PUSH2 0x157 JUMP JUMPDEST POP POP POP POP SWAP1 POP SWAP1 JUMP JUMPDEST PUSH1 0x0 PUSH1 0x40 MLOAD DUP1 PUSH1 0x80 ADD PUSH1 0x40 MSTORE DUP1 DUP7 PUSH20 0xFFFFFFFFFFFFFFFFFFFFFFFFFFFFFFFFFFFFFFFF AND DUP2 MSTORE PUSH1 0x20 ADD DUP6 PUSH20 0xFFFFFFFFFFFFFFFFFFFFFFFFFFFFFFFFFFFFFFFF AND DUP2 MSTORE PUSH1 0x20 ADD DUP5 DUP2 MSTORE PUSH1 0x20 ADD DUP4 DUP2 MSTORE POP SWAP1 POP PUSH1 0x0 DUP2 SWAP1 DUP1 PUSH1 0x1 DUP2 SLOAD ADD DUP1 DUP3 SSTORE DUP1 SWAP2 POP POP PUSH1 0x1 SWAP1 SUB SWAP1 PUSH1 0x0 MSTORE PUSH1 0x20 PUSH1 0x0 KECCAK256 SWAP1 PUSH1 0x4 MUL ADD PUSH1 0x0 SWAP1 SWAP2 SWAP1 SWAP2 SWAP1 SWAP2 POP PUSH1 0x0 DUP3 ADD MLOAD DUP2 PUSH1 0x0 ADD PUSH1 0x0 PUSH2 0x100 EXP DUP2 SLOAD DUP2 PUSH20 0xFFFFFFFFFFFFFFFFFFFFFFFFFFFFFFFFFFFFFFFF MUL NOT AND SWAP1 DUP4 PUSH20 0xFFFFFFFFFFFFFFFFFFFFFFFFFFFFFFFFFFFFFFFF AND MUL OR SWAP1 SSTORE POP PUSH1 0x20 DUP3 ADD MLOAD DUP2 PUSH1 0x1 ADD PUSH1 0x0 PUSH2 0x100 EXP DUP2 SLOAD DUP2 PUSH20 0xFFFFFFFFFFFFFFFFFFFFFFFFFFFFFFFFFFFFFFFF MUL NOT AND SWAP1 DUP4 PUSH20 0xFFFFFFFFFFFFFFFFFFFFFFFFFFFFFFFFFFFFFFFF AND MUL OR SWAP1 SSTORE POP PUSH1 0x40 DUP3 ADD MLOAD DUP2 PUSH1 0x2 ADD SSTORE PUSH1 0x60 DUP3 ADD MLOAD DUP2 PUSH1 0x3 ADD SSTORE POP POP POP POP POP POP POP JUMP JUMPDEST PUSH1 0x0 DUP1 REVERT JUMPDEST PUSH1 0x0 DUP2 SWAP1 POP SWAP2 SWAP1 POP JUMP JUMPDEST PUSH2 0x392 DUP2 PUSH2 0x37F JUMP JUMPDEST DUP2 EQ PUSH2 0x39D JUMPI PUSH1 0x0 DUP1 REVERT JUMPDEST POP JUMP JUMPDEST PUSH1 0x0 DUP2 CALLDATALOAD SWAP1 POP PUSH2 0x3AF DUP2 PUSH2 0x389 JUMP JUMPDEST SWAP3 SWAP2 POP POP JUMP JUMPDEST PUSH1 0x0 PUSH1 0x20 DUP3 DUP5 SUB SLT ISZERO PUSH2 0x3CB JUMPI PUSH2 0x3CA PUSH2 0x37A JUMP JUMPDEST JUMPDEST PUSH1 0x0 PUSH2 0x3D9 DUP5 DUP3 DUP6 ADD PUSH2 0x3A0 JUMP JUMPDEST SWAP2 POP POP SWAP3 SWAP2 POP POP JUMP JUMPDEST PUSH1 0x0 PUSH20 0xFFFFFFFFFFFFFFFFFFFFFFFFFFFFFFFFFFFFFFFF DUP3 AND SWAP1 POP SWAP2 SWAP1 POP JUMP JUMPDEST PUSH1 0x0 PUSH2 0x40D DUP3 PUSH2 0x3E2 JUMP JUMPDEST SWAP1 POP SWAP2 SWAP1 POP JUMP JUMPDEST PUSH2 0x41D DUP2 PUSH2 0x402 JUMP JUMPDEST DUP3 MSTORE POP POP JUMP JUMPDEST PUSH2 0x42C DUP2 PUSH2 0x37F JUMP JUMPDEST DUP3 MSTORE POP POP JUMP JUMPDEST PUSH1 0x0 PUSH1 0x80 DUP3 ADD SWAP1 POP PUSH2 0x447 PUSH1 0x0 DUP4 ADD DUP8 PUSH2 0x414 JUMP JUMPDEST PUSH2 0x454 PUSH1 0x20 DUP4 ADD DUP7 PUSH2 0x414 JUMP JUMPDEST PUSH2 0x461 PUSH1 0x40 DUP4 ADD DUP6 PUSH2 0x423 JUMP JUMPDEST PUSH2 0x46E PUSH1 0x60 DUP4 ADD DUP5 PUSH2 0x423 JUMP JUMPDEST SWAP6 SWAP5 POP POP POP POP POP JUMP JUMPDEST PUSH1 0x0 DUP2 MLOAD SWAP1 POP SWAP2 SWAP1 POP JUMP JUMPDEST PUSH1 0x0 DUP3 DUP3 MSTORE PUSH1 0x20 DUP3 ADD SWAP1 POP SWAP3 SWAP2 POP POP JUMP JUMPDEST PUSH1 0x0 DUP2 SWAP1 POP PUSH1 0x20 DUP3 ADD SWAP1 POP SWAP2 SWAP1 POP JUMP JUMPDEST PUSH2 0x4AC DUP2 PUSH2 0x402 JUMP JUMPDEST DUP3 MSTORE POP POP JUMP JUMPDEST PUSH2 0x4BB DUP2 PUSH2 0x37F JUMP JUMPDEST DUP3 MSTORE POP POP JUMP JUMPDEST PUSH1 0x80 DUP3 ADD PUSH1 0x0 DUP3 ADD MLOAD PUSH2 0x4D7 PUSH1 0x0 DUP6 ADD DUP3 PUSH2 0x4A3 JUMP JUMPDEST POP PUSH1 0x20 DUP3 ADD MLOAD PUSH2 0x4EA PUSH1 0x20 DUP6 ADD DUP3 PUSH2 0x4A3 JUMP JUMPDEST POP PUSH1 0x40 DUP3 ADD MLOAD PUSH2 0x4FD PUSH1 0x40 DUP6 ADD DUP3 PUSH2 0x4B2 JUMP JUMPDEST POP PUSH1 0x60 DUP3 ADD MLOAD PUSH2 0x510 PUSH1 0x60 DUP6 ADD DUP3 PUSH2 0x4B2 JUMP JUMPDEST POP POP POP POP JUMP JUMPDEST PUSH1 0x0 PUSH2 0x522 DUP4 DUP4 PUSH2 0x4C1 JUMP JUMPDEST PUSH1 0x80 DUP4 ADD SWAP1 POP SWAP3 SWAP2 POP POP JUMP JUMPDEST PUSH1 0x0 PUSH1 0x20 DUP3 ADD SWAP1 POP SWAP2 SWAP1 POP JUMP JUMPDEST PUSH1 0x0 PUSH2 0x546 DUP3 PUSH2 0x477 JUMP JUMPDEST PUSH2 0x550 DUP2 DUP6 PUSH2 0x482 JUMP JUMPDEST SWAP4 POP PUSH2 0x55B DUP4 PUSH2 0x493 JUMP JUMPDEST DUP1 PUSH1 0x0 JUMPDEST DUP4 DUP2 LT ISZERO PUSH2 0x58C JUMPI DUP2 MLOAD PUSH2 0x573 DUP9 DUP3 PUSH2 0x516 JUMP JUMPDEST SWAP8 POP PUSH2 0x57E DUP4 PUSH2 0x52E JUMP JUMPDEST SWAP3 POP POP PUSH1 0x1 DUP2 ADD SWAP1 POP PUSH2 0x55F JUMP JUMPDEST POP DUP6 SWAP4 POP POP POP POP SWAP3 SWAP2 POP POP JUMP JUMPDEST PUSH1 0x0 PUSH1 0x20 DUP3 ADD SWAP1 POP DUP2 DUP2 SUB PUSH1 0x0 DUP4 ADD MSTORE PUSH2 0x5B3 DUP2 DUP5 PUSH2 0x53B JUMP JUMPDEST SWAP1 POP SWAP3 SWAP2 POP POP JUMP JUMPDEST PUSH2 0x5C4 DUP2 PUSH2 0x402 JUMP JUMPDEST DUP2 EQ PUSH2 0x5CF JUMPI PUSH1 0x0 DUP1 REVERT JUMPDEST POP JUMP JUMPDEST PUSH1 0x0 DUP2 CALLDATALOAD SWAP1 POP PUSH2 0x5E1 DUP2 PUSH2 0x5BB JUMP JUMPDEST SWAP3 SWAP2 POP POP JUMP JUMPDEST PUSH1 0x0 DUP1 PUSH1 0x0 DUP1 PUSH1 0x80 DUP6 DUP8 SUB SLT ISZERO PUSH2 0x601 JUMPI PUSH2 0x600 PUSH2 0x37A JUMP JUMPDEST JUMPDEST PUSH1 0x0 PUSH2 0x60F DUP8 DUP3 DUP9 ADD PUSH2 0x5D2 JUMP JUMPDEST SWAP5 POP POP PUSH1 0x20 PUSH2 0x620 DUP8 DUP3 DUP9 ADD PUSH2 0x5D2 JUMP JUMPDEST SWAP4 POP POP PUSH1 0x40 PUSH2 0x631 DUP8 DUP3 DUP9 ADD PUSH2 0x3A0 JUMP JUMPDEST SWAP3 POP POP PUSH1 0x60 PUSH2 0x642 DUP8 DUP3 DUP9 ADD PUSH2 0x3A0 JUMP JUMPDEST SWAP2 POP POP SWAP3 SWAP6 SWAP2 SWAP5 POP SWAP3 POP JUMP INVALID LOG2 PUSH5 0x6970667358 0x22 SLT KECCAK256 SWAP1 0x4D 0x4B TIMESTAMP MUL 0xEF 0x28 DUP15 0xC0 MUL PUSH25 0x2C3742C1769D015AAB19773CDB50E180AF8F0E266464736F6C PUSH4 0x43000810 STOP CALLER "
				},
				"gasEstimates": {
					"creation": {
						"codeDepositCost": "333600",
						"executionCost": "374",
						"totalCost": "333974"
					},
					"external": {
						"addTransaction(address,address,uint256,uint256)": "infinite",
						"getTransaction()": "infinite",
						"transactionList(uint256)": "infinite"
					}
				},
				"methodIdentifiers": {
					"addTransaction(address,address,uint256,uint256)": "97838c72",
					"getTransaction()": "59705f81",
					"transactionList(uint256)": "04ef5b21"
				}
			},
			"storageLayout": {
				"storage": [
					{
						"astId": 271,
						"contract": "Dapp/Transaction.sol:Transaction",
						"label": "transactionList",
						"offset": 0,
						"slot": "0",
						"type": "t_array(t_struct(Transactions)267_storage)dyn_storage"
					}
				],
				"types": {
					"t_address": {
						"encoding": "inplace",
						"label": "address",
						"numberOfBytes": "20"
					},
					"t_array(t_struct(Transactions)267_storage)dyn_storage": {
						"base": "t_struct(Transactions)267_storage",
						"encoding": "dynamic_array",
						"label": "struct Transaction.Transactions[]",
						"numberOfBytes": "32"
					},
					"t_struct(Transactions)267_storage": {
						"encoding": "inplace",
						"label": "struct Transaction.Transactions",
						"members": [
							{
								"astId": 260,
								"contract": "Dapp/Transaction.sol:Transaction",
								"label": "address_from",
								"offset": 0,
								"slot": "0",
								"type": "t_address"
							},
							{
								"astId": 262,
								"contract": "Dapp/Transaction.sol:Transaction",
								"label": "address_to",
								"offset": 0,
								"slot": "1",
								"type": "t_address"
							},
							{
								"astId": 264,
								"contract": "Dapp/Transaction.sol:Transaction",
								"label": "amount",
								"offset": 0,
								"slot": "2",
								"type": "t_uint256"
							},
							{
								"astId": 266,
								"contract": "Dapp/Transaction.sol:Transaction",
								"label": "timestamp",
								"offset": 0,
								"slot": "3",
								"type": "t_uint256"
							}
						],
						"numberOfBytes": "128"
					},
					"t_uint256": {
						"encoding": "inplace",
						"label": "uint256",
						"numberOfBytes": "32"
					}
				}
			},
			"userdoc": {
				"kind": "user",
				"methods": {},
				"version": 1
			}
		}
	}
}