{
	"Dapp/Sender.sol": {
		"Sender": {
			"abi": [
				{
					"inputs": [
						{
							"internalType": "uint256",
							"name": "_totalFunds",
							"type": "uint256"
						}
					],
					"stateMutability": "nonpayable",
					"type": "constructor"
				},
				{
					"inputs": [],
					"name": "TotalAmount",
					"outputs": [
						{
							"internalType": "uint256",
							"name": "",
							"type": "uint256"
						}
					],
					"stateMutability": "view",
					"type": "function"
				},
				{
					"inputs": [],
					"name": "TotalFunds",
					"outputs": [
						{
							"internalType": "uint256",
							"name": "",
							"type": "uint256"
						}
					],
					"stateMutability": "view",
					"type": "function"
				},
				{
					"inputs": [],
					"name": "amount",
					"outputs": [
						{
							"internalType": "uint256",
							"name": "",
							"type": "uint256"
						}
					],
					"stateMutability": "view",
					"type": "function"
				},
				{
					"inputs": [],
					"name": "callCount",
					"outputs": [
						{
							"internalType": "uint256",
							"name": "",
							"type": "uint256"
						}
					],
					"stateMutability": "view",
					"type": "function"
				},
				{
					"inputs": [],
					"name": "callPutCard",
					"outputs": [
						{
							"internalType": "bool",
							"name": "",
							"type": "bool"
						}
					],
					"stateMutability": "view",
					"type": "function"
				},
				{
					"inputs": [],
					"name": "cardNumber",
					"outputs": [
						{
							"internalType": "string",
							"name": "",
							"type": "string"
						}
					],
					"stateMutability": "view",
					"type": "function"
				},
				{
					"inputs": [],
					"name": "cvv",
					"outputs": [
						{
							"internalType": "string",
							"name": "",
							"type": "string"
						}
					],
					"stateMutability": "view",
					"type": "function"
				},
				{
					"inputs": [],
					"name": "firstTransferTime",
					"outputs": [
						{
							"internalType": "uint256",
							"name": "",
							"type": "uint256"
						}
					],
					"stateMutability": "view",
					"type": "function"
				},
				{
					"inputs": [],
					"name": "getBalance",
					"outputs": [
						{
							"internalType": "uint256",
							"name": "",
							"type": "uint256"
						}
					],
					"stateMutability": "view",
					"type": "function"
				},
				{
					"inputs": [
						{
							"internalType": "uint256",
							"name": "no_transactions",
							"type": "uint256"
						}
					],
					"name": "getLastTransaction",
					"outputs": [
						{
							"components": [
								{
									"internalType": "address",
									"name": "address_from",
									"type": "address"
								},
								{
									"internalType": "address",
									"name": "address_to",
									"type": "address"
								},
								{
									"internalType": "uint256",
									"name": "amount",
									"type": "uint256"
								},
								{
									"internalType": "uint256",
									"name": "timestamp",
									"type": "uint256"
								}
							],
							"internalType": "struct Transaction.Transactions",
							"name": "",
							"type": "tuple"
						}
					],
					"stateMutability": "view",
					"type": "function"
				},
				{
					"inputs": [],
					"name": "getNumberOfTransactions",
					"outputs": [
						{
							"internalType": "uint256",
							"name": "",
							"type": "uint256"
						}
					],
					"stateMutability": "view",
					"type": "function"
				},
				{
					"inputs": [],
					"name": "getOutCard",
					"outputs": [],
					"stateMutability": "nonpayable",
					"type": "function"
				},
				{
					"inputs": [],
					"name": "getTime",
					"outputs": [
						{
							"internalType": "uint256",
							"name": "",
							"type": "uint256"
						}
					],
					"stateMutability": "view",
					"type": "function"
				},
				{
					"inputs": [],
					"name": "getTransactions",
					"outputs": [
						{
							"components": [
								{
									"internalType": "address",
									"name": "address_from",
									"type": "address"
								},
								{
									"internalType": "address",
									"name": "address_to",
									"type": "address"
								},
								{
									"internalType": "uint256",
									"name": "amount",
									"type": "uint256"
								},
								{
									"internalType": "uint256",
									"name": "timestamp",
									"type": "uint256"
								}
							],
							"internalType": "struct Transaction.Transactions[]",
							"name": "",
							"type": "tuple[]"
						}
					],
					"stateMutability": "view",
					"type": "function"
				},
				{
					"inputs": [],
					"name": "message",
					"outputs": [
						{
							"internalType": "string",
							"name": "",
							"type": "string"
						}
					],
					"stateMutability": "view",
					"type": "function"
				},
				{
					"inputs": [
						{
							"internalType": "uint256",
							"name": "_amount",
							"type": "uint256"
						},
						{
							"internalType": "address",
							"name": "_receiver",
							"type": "address"
						}
					],
					"name": "sendMoney",
					"outputs": [],
					"stateMutability": "payable",
					"type": "function"
				},
				{
					"inputs": [
						{
							"internalType": "string",
							"name": "_cardNumber",
							"type": "string"
						},
						{
							"internalType": "string",
							"name": "_cvv",
							"type": "string"
						}
					],
					"name": "setCard",
					"outputs": [],
					"stateMutability": "nonpayable",
					"type": "function"
				},
				{
					"inputs": [
						{
							"internalType": "uint256",
							"name": "",
							"type": "uint256"
						}
					],
					"name": "transactionList",
					"outputs": [
						{
							"internalType": "address",
							"name": "address_from",
							"type": "address"
						},
						{
							"internalType": "address",
							"name": "address_to",
							"type": "address"
						},
						{
							"internalType": "uint256",
							"name": "amount",
							"type": "uint256"
						},
						{
							"internalType": "uint256",
							"name": "timestamp",
							"type": "uint256"
						}
					],
					"stateMutability": "view",
					"type": "function"
				},
				{
					"inputs": [
						{
							"internalType": "uint256",
							"name": "",
							"type": "uint256"
						}
					],
					"name": "trn",
					"outputs": [
						{
							"internalType": "address",
							"name": "address_from",
							"type": "address"
						},
						{
							"internalType": "address",
							"name": "address_to",
							"type": "address"
						},
						{
							"internalType": "uint256",
							"name": "amount",
							"type": "uint256"
						},
						{
							"internalType": "uint256",
							"name": "timestamp",
							"type": "uint256"
						}
					],
					"stateMutability": "view",
					"type": "function"
				},
				{
					"inputs": [
						{
							"internalType": "uint256",
							"name": "_money",
							"type": "uint256"
						}
					],
					"name": "withdrawMoney",
					"outputs": [],
					"stateMutability": "nonpayable",
					"type": "function"
				}
			],
			"devdoc": {
				"kind": "dev",
				"methods": {},
				"version": 1
			},
			"evm": {
				"assembly": "    /* \"Dapp/Sender.sol\":124:2862  contract Sender is Transaction, Receiver {... */\n  mstore(0x40, 0x80)\n    /* \"Dapp/Transaction.sol\":346:347  0 */\n  0x00\n    /* \"Dapp/Transaction.sol\":331:347  uint counter = 0 */\n  0x02\n  sstore\n    /* \"Dapp/Sender.sol\":595:596  0 */\n  0x00\n    /* \"Dapp/Sender.sol\":571:596  uint public callCount = 0 */\n  0x0e\n  sstore\n    /* \"Dapp/Sender.sol\":630:635  false */\n  0x00\n    /* \"Dapp/Sender.sol\":604:635  bool public callPutCard = false */\n  0x0f\n  exp(0x0100, 0x00)\n  dup2\n  sload\n  dup2\n  0xff\n  mul\n  not\n  and\n  swap1\n  dup4\n  iszero\n  iszero\n  mul\n  or\n  swap1\n  sstore\n  pop\n    /* \"Dapp/Sender.sol\":420:559  constructor (uint256 _totalFunds) {... */\n  callvalue\n  dup1\n  iszero\n  tag_1\n  jumpi\n  0x00\n  dup1\n  revert\ntag_1:\n  pop\n  mload(0x40)\n  sub(codesize, bytecodeSize)\n  dup1\n  bytecodeSize\n  dup4\n  codecopy\n  dup2\n  dup2\n  add\n  0x40\n  mstore\n  dup2\n  add\n  swap1\n  tag_2\n  swap2\n  swap1\n  tag_3\n  jump\t// in\ntag_2:\n    /* \"Dapp/Sender.sol\":540:551  _totalFunds */\n  dup1\n    /* \"Dapp/Sender.sol\":527:537  TotalFunds */\n  0x07\n    /* \"Dapp/Sender.sol\":527:551  TotalFunds = _totalFunds */\n  dup2\n  swap1\n  sstore\n  pop\n    /* \"Dapp/Sender.sol\":420:559  constructor (uint256 _totalFunds) {... */\n  pop\n    /* \"Dapp/Sender.sol\":124:2862  contract Sender is Transaction, Receiver {... */\n  jump(tag_6)\n    /* \"#utility.yul\":88:205   */\ntag_8:\n    /* \"#utility.yul\":197:198   */\n  0x00\n    /* \"#utility.yul\":194:195   */\n  dup1\n    /* \"#utility.yul\":187:199   */\n  revert\n    /* \"#utility.yul\":334:411   */\ntag_10:\n    /* \"#utility.yul\":371:378   */\n  0x00\n    /* \"#utility.yul\":400:405   */\n  dup2\n    /* \"#utility.yul\":389:405   */\n  swap1\n  pop\n    /* \"#utility.yul\":334:411   */\n  swap2\n  swap1\n  pop\n  jump\t// out\n    /* \"#utility.yul\":417:539   */\ntag_11:\n    /* \"#utility.yul\":490:514   */\n  tag_19\n    /* \"#utility.yul\":508:513   */\n  dup2\n    /* \"#utility.yul\":490:514   */\n  tag_10\n  jump\t// in\ntag_19:\n    /* \"#utility.yul\":483:488   */\n  dup2\n    /* \"#utility.yul\":480:515   */\n  eq\n    /* \"#utility.yul\":470:533   */\n  tag_20\n  jumpi\n    /* \"#utility.yul\":529:530   */\n  0x00\n    /* \"#utility.yul\":526:527   */\n  dup1\n    /* \"#utility.yul\":519:531   */\n  revert\n    /* \"#utility.yul\":470:533   */\ntag_20:\n    /* \"#utility.yul\":417:539   */\n  pop\n  jump\t// out\n    /* \"#utility.yul\":545:688   */\ntag_12:\n    /* \"#utility.yul\":602:607   */\n  0x00\n    /* \"#utility.yul\":633:639   */\n  dup2\n    /* \"#utility.yul\":627:640   */\n  mload\n    /* \"#utility.yul\":618:640   */\n  swap1\n  pop\n    /* \"#utility.yul\":649:682   */\n  tag_22\n    /* \"#utility.yul\":676:681   */\n  dup2\n    /* \"#utility.yul\":649:682   */\n  tag_11\n  jump\t// in\ntag_22:\n    /* \"#utility.yul\":545:688   */\n  swap3\n  swap2\n  pop\n  pop\n  jump\t// out\n    /* \"#utility.yul\":694:1045   */\ntag_3:\n    /* \"#utility.yul\":764:770   */\n  0x00\n    /* \"#utility.yul\":813:815   */\n  0x20\n    /* \"#utility.yul\":801:810   */\n  dup3\n    /* \"#utility.yul\":792:799   */\n  dup5\n    /* \"#utility.yul\":788:811   */\n  sub\n    /* \"#utility.yul\":784:816   */\n  slt\n    /* \"#utility.yul\":781:900   */\n  iszero\n  tag_24\n  jumpi\n    /* \"#utility.yul\":819:898   */\n  tag_25\n  tag_8\n  jump\t// in\ntag_25:\n    /* \"#utility.yul\":781:900   */\ntag_24:\n    /* \"#utility.yul\":939:940   */\n  0x00\n    /* \"#utility.yul\":964:1028   */\n  tag_26\n    /* \"#utility.yul\":1020:1027   */\n  dup5\n    /* \"#utility.yul\":1011:1017   */\n  dup3\n    /* \"#utility.yul\":1000:1009   */\n  dup6\n    /* \"#utility.yul\":996:1018   */\n  add\n    /* \"#utility.yul\":964:1028   */\n  tag_12\n  jump\t// in\ntag_26:\n    /* \"#utility.yul\":954:1028   */\n  swap2\n  pop\n    /* \"#utility.yul\":910:1038   */\n  pop\n    /* \"#utility.yul\":694:1045   */\n  swap3\n  swap2\n  pop\n  pop\n  jump\t// out\n    /* \"Dapp/Sender.sol\":124:2862  contract Sender is Transaction, Receiver {... */\ntag_6:\n  dataSize(sub_0)\n  dup1\n  dataOffset(sub_0)\n  0x00\n  codecopy\n  0x00\n  return\nstop\n\nsub_0: assembly {\n        /* \"Dapp/Sender.sol\":124:2862  contract Sender is Transaction, Receiver {... */\n      mstore(0x40, 0x80)\n      jumpi(tag_1, lt(calldatasize, 0x04))\n      shr(0xe0, calldataload(0x00))\n      dup1\n      0x54876921\n      gt\n      tag_22\n      jumpi\n      dup1\n      0x83920e90\n      gt\n      tag_23\n      jumpi\n      dup1\n      0x83920e90\n      eq\n      tag_17\n      jumpi\n      dup1\n      0x8e029c0b\n      eq\n      tag_18\n      jumpi\n      dup1\n      0x8fa11864\n      eq\n      tag_19\n      jumpi\n      dup1\n      0xaa8c217c\n      eq\n      tag_20\n      jumpi\n      dup1\n      0xe21f37ce\n      eq\n      tag_21\n      jumpi\n      jump(tag_1)\n    tag_23:\n      dup1\n      0x54876921\n      eq\n      tag_12\n      jumpi\n      dup1\n      0x557ed1ba\n      eq\n      tag_13\n      jumpi\n      dup1\n      0x57bf72e3\n      eq\n      tag_14\n      jumpi\n      dup1\n      0x7b9a3f4c\n      eq\n      tag_15\n      jumpi\n      dup1\n      0x7eb9f571\n      eq\n      tag_16\n      jumpi\n      jump(tag_1)\n    tag_22:\n      dup1\n      0x24ba506d\n      gt\n      tag_24\n      jumpi\n      dup1\n      0x24ba506d\n      eq\n      tag_7\n      jumpi\n      dup1\n      0x3c626f00\n      eq\n      tag_8\n      jumpi\n      dup1\n      0x42fb7936\n      eq\n      tag_9\n      jumpi\n      dup1\n      0x45838c42\n      eq\n      tag_10\n      jumpi\n      dup1\n      0x4b28f9a2\n      eq\n      tag_11\n      jumpi\n      jump(tag_1)\n    tag_24:\n      dup1\n      0x04ef5b21\n      eq\n      tag_2\n      jumpi\n      dup1\n      0x062a7544\n      eq\n      tag_3\n      jumpi\n      dup1\n      0x0e85fa72\n      eq\n      tag_4\n      jumpi\n      dup1\n      0x12065fe0\n      eq\n      tag_5\n      jumpi\n      dup1\n      0x12a029a4\n      eq\n      tag_6\n      jumpi\n    tag_1:\n      0x00\n      dup1\n      revert\n        /* \"Dapp/Transaction.sol\":237:274  Transactions[] public transactionList */\n    tag_2:\n      callvalue\n      dup1\n      iszero\n      tag_25\n      jumpi\n      0x00\n      dup1\n      revert\n    tag_25:\n      pop\n      tag_26\n      0x04\n      dup1\n      calldatasize\n      sub\n      dup2\n      add\n      swap1\n      tag_27\n      swap2\n      swap1\n      tag_28\n      jump\t// in\n    tag_27:\n      tag_29\n      jump\t// in\n    tag_26:\n      mload(0x40)\n      tag_30\n      swap5\n      swap4\n      swap3\n      swap2\n      swap1\n      tag_31\n      jump\t// in\n    tag_30:\n      mload(0x40)\n      dup1\n      swap2\n      sub\n      swap1\n      return\n        /* \"Dapp/Sender.sol\":645:1430  function sendMoney( uint _amount, address _receiver) public payable m_validAddress(_receiver) m_ifCardExists m_transferLimit{... */\n    tag_3:\n      tag_32\n      0x04\n      dup1\n      calldatasize\n      sub\n      dup2\n      add\n      swap1\n      tag_33\n      swap2\n      swap1\n      tag_34\n      jump\t// in\n    tag_33:\n      tag_35\n      jump\t// in\n    tag_32:\n      stop\n        /* \"Dapp/Sender.sol\":378:407  uint public firstTransferTime */\n    tag_4:\n      callvalue\n      dup1\n      iszero\n      tag_36\n      jumpi\n      0x00\n      dup1\n      revert\n    tag_36:\n      pop\n      tag_37\n      tag_38\n      jump\t// in\n    tag_37:\n      mload(0x40)\n      tag_39\n      swap2\n      swap1\n      tag_40\n      jump\t// in\n    tag_39:\n      mload(0x40)\n      dup1\n      swap2\n      sub\n      swap1\n      return\n        /* \"Dapp/Receiver.sol\":701:789  function getBalance() public view returns(uint){... */\n    tag_5:\n      callvalue\n      dup1\n      iszero\n      tag_41\n      jumpi\n      0x00\n      dup1\n      revert\n    tag_41:\n      pop\n      tag_42\n      tag_43\n      jump\t// in\n    tag_42:\n      mload(0x40)\n      tag_44\n      swap2\n      swap1\n      tag_40\n      jump\t// in\n    tag_44:\n      mload(0x40)\n      dup1\n      swap2\n      sub\n      swap1\n      return\n        /* \"Dapp/Sender.sol\":1438:1681  function setCard(string memory _cardNumber, string memory _cvv) public  m_checkCard {... */\n    tag_6:\n      callvalue\n      dup1\n      iszero\n      tag_45\n      jumpi\n      0x00\n      dup1\n      revert\n    tag_45:\n      pop\n      tag_46\n      0x04\n      dup1\n      calldatasize\n      sub\n      dup2\n      add\n      swap1\n      tag_47\n      swap2\n      swap1\n      tag_48\n      jump\t// in\n    tag_47:\n      tag_49\n      jump\t// in\n    tag_46:\n      stop\n        /* \"Dapp/Transaction.sol\":970:1063  function getNumberOfTransactions() public view returns(uint){... */\n    tag_7:\n      callvalue\n      dup1\n      iszero\n      tag_50\n      jumpi\n      0x00\n      dup1\n      revert\n    tag_50:\n      pop\n      tag_51\n      tag_52\n      jump\t// in\n    tag_51:\n      mload(0x40)\n      tag_53\n      swap2\n      swap1\n      tag_40\n      jump\t// in\n    tag_53:\n      mload(0x40)\n      dup1\n      swap2\n      sub\n      swap1\n      return\n        /* \"Dapp/Sender.sol\":604:635  bool public callPutCard = false */\n    tag_8:\n      callvalue\n      dup1\n      iszero\n      tag_54\n      jumpi\n      0x00\n      dup1\n      revert\n    tag_54:\n      pop\n      tag_55\n      tag_56\n      jump\t// in\n    tag_55:\n      mload(0x40)\n      tag_57\n      swap2\n      swap1\n      tag_58\n      jump\t// in\n    tag_57:\n      mload(0x40)\n      dup1\n      swap2\n      sub\n      swap1\n      return\n        /* \"Dapp/Sender.sol\":320:337  string public cvv */\n    tag_9:\n      callvalue\n      dup1\n      iszero\n      tag_59\n      jumpi\n      0x00\n      dup1\n      revert\n    tag_59:\n      pop\n      tag_60\n      tag_61\n      jump\t// in\n    tag_60:\n      mload(0x40)\n      tag_62\n      swap2\n      swap1\n      tag_63\n      jump\t// in\n    tag_62:\n      mload(0x40)\n      dup1\n      swap2\n      sub\n      swap1\n      return\n        /* \"Dapp/Transaction.sol\":1071:1253  function getLastTransaction(uint no_transactions) public view returns(Transactions memory){... */\n    tag_10:\n      callvalue\n      dup1\n      iszero\n      tag_64\n      jumpi\n      0x00\n      dup1\n      revert\n    tag_64:\n      pop\n      tag_65\n      0x04\n      dup1\n      calldatasize\n      sub\n      dup2\n      add\n      swap1\n      tag_66\n      swap2\n      swap1\n      tag_28\n      jump\t// in\n    tag_66:\n      tag_67\n      jump\t// in\n    tag_65:\n      mload(0x40)\n      tag_68\n      swap2\n      swap1\n      tag_69\n      jump\t// in\n    tag_68:\n      mload(0x40)\n      dup1\n      swap2\n      sub\n      swap1\n      return\n        /* \"Dapp/Sender.sol\":571:596  uint public callCount = 0 */\n    tag_11:\n      callvalue\n      dup1\n      iszero\n      tag_70\n      jumpi\n      0x00\n      dup1\n      revert\n    tag_70:\n      pop\n      tag_71\n      tag_72\n      jump\t// in\n    tag_71:\n      mload(0x40)\n      tag_73\n      swap2\n      swap1\n      tag_40\n      jump\t// in\n    tag_73:\n      mload(0x40)\n      dup1\n      swap2\n      sub\n      swap1\n      return\n        /* \"Dapp/Receiver.sol\":237:404  function withdrawMoney(uint _money) public  m_checkBalance  {... */\n    tag_12:\n      callvalue\n      dup1\n      iszero\n      tag_74\n      jumpi\n      0x00\n      dup1\n      revert\n    tag_74:\n      pop\n      tag_75\n      0x04\n      dup1\n      calldatasize\n      sub\n      dup2\n      add\n      swap1\n      tag_76\n      swap2\n      swap1\n      tag_28\n      jump\t// in\n    tag_76:\n      tag_77\n      jump\t// in\n    tag_75:\n      stop\n        /* \"Dapp/Sender.sol\":2764:2851  function getTime() public view returns(uint ){... */\n    tag_13:\n      callvalue\n      dup1\n      iszero\n      tag_78\n      jumpi\n      0x00\n      dup1\n      revert\n    tag_78:\n      pop\n      tag_79\n      tag_80\n      jump\t// in\n    tag_79:\n      mload(0x40)\n      tag_81\n      swap2\n      swap1\n      tag_40\n      jump\t// in\n    tag_81:\n      mload(0x40)\n      dup1\n      swap2\n      sub\n      swap1\n      return\n        /* \"Dapp/Transaction.sol\":283:324  mapping (uint => Transactions) public trn */\n    tag_14:\n      callvalue\n      dup1\n      iszero\n      tag_82\n      jumpi\n      0x00\n      dup1\n      revert\n    tag_82:\n      pop\n      tag_83\n      0x04\n      dup1\n      calldatasize\n      sub\n      dup2\n      add\n      swap1\n      tag_84\n      swap2\n      swap1\n      tag_28\n      jump\t// in\n    tag_84:\n      tag_85\n      jump\t// in\n    tag_83:\n      mload(0x40)\n      tag_86\n      swap5\n      swap4\n      swap3\n      swap2\n      swap1\n      tag_31\n      jump\t// in\n    tag_86:\n      mload(0x40)\n      dup1\n      swap2\n      sub\n      swap1\n      return\n        /* \"Dapp/Sender.sol\":204:229  uint256 public TotalFunds */\n    tag_15:\n      callvalue\n      dup1\n      iszero\n      tag_87\n      jumpi\n      0x00\n      dup1\n      revert\n    tag_87:\n      pop\n      tag_88\n      tag_89\n      jump\t// in\n    tag_88:\n      mload(0x40)\n      tag_90\n      swap2\n      swap1\n      tag_40\n      jump\t// in\n    tag_90:\n      mload(0x40)\n      dup1\n      swap2\n      sub\n      swap1\n      return\n        /* \"Dapp/Sender.sol\":344:370  uint256 public TotalAmount */\n    tag_16:\n      callvalue\n      dup1\n      iszero\n      tag_91\n      jumpi\n      0x00\n      dup1\n      revert\n    tag_91:\n      pop\n      tag_92\n      tag_93\n      jump\t// in\n    tag_92:\n      mload(0x40)\n      tag_94\n      swap2\n      swap1\n      tag_40\n      jump\t// in\n    tag_94:\n      mload(0x40)\n      dup1\n      swap2\n      sub\n      swap1\n      return\n        /* \"Dapp/Transaction.sol\":715:827  function getTransactions() public view returns(Transactions[] memory){... */\n    tag_17:\n      callvalue\n      dup1\n      iszero\n      tag_95\n      jumpi\n      0x00\n      dup1\n      revert\n    tag_95:\n      pop\n      tag_96\n      tag_97\n      jump\t// in\n    tag_96:\n      mload(0x40)\n      tag_98\n      swap2\n      swap1\n      tag_99\n      jump\t// in\n    tag_98:\n      mload(0x40)\n      dup1\n      swap2\n      sub\n      swap1\n      return\n        /* \"Dapp/Sender.sol\":1696:1765  function getOutCard() public  {... */\n    tag_18:\n      callvalue\n      dup1\n      iszero\n      tag_100\n      jumpi\n      0x00\n      dup1\n      revert\n    tag_100:\n      pop\n      tag_101\n      tag_102\n      jump\t// in\n    tag_101:\n      stop\n        /* \"Dapp/Sender.sol\":288:312  string public cardNumber */\n    tag_19:\n      callvalue\n      dup1\n      iszero\n      tag_103\n      jumpi\n      0x00\n      dup1\n      revert\n    tag_103:\n      pop\n      tag_104\n      tag_105\n      jump\t// in\n    tag_104:\n      mload(0x40)\n      tag_106\n      swap2\n      swap1\n      tag_63\n      jump\t// in\n    tag_106:\n      mload(0x40)\n      dup1\n      swap2\n      sub\n      swap1\n      return\n        /* \"Dapp/Sender.sol\":176:197  uint256 public amount */\n    tag_20:\n      callvalue\n      dup1\n      iszero\n      tag_107\n      jumpi\n      0x00\n      dup1\n      revert\n    tag_107:\n      pop\n      tag_108\n      tag_109\n      jump\t// in\n    tag_108:\n      mload(0x40)\n      tag_110\n      swap2\n      swap1\n      tag_40\n      jump\t// in\n    tag_110:\n      mload(0x40)\n      dup1\n      swap2\n      sub\n      swap1\n      return\n        /* \"Dapp/Sender.sol\":260:281  string public message */\n    tag_21:\n      callvalue\n      dup1\n      iszero\n      tag_111\n      jumpi\n      0x00\n      dup1\n      revert\n    tag_111:\n      pop\n      tag_112\n      tag_113\n      jump\t// in\n    tag_112:\n      mload(0x40)\n      tag_114\n      swap2\n      swap1\n      tag_63\n      jump\t// in\n    tag_114:\n      mload(0x40)\n      dup1\n      swap2\n      sub\n      swap1\n      return\n        /* \"Dapp/Transaction.sol\":237:274  Transactions[] public transactionList */\n    tag_29:\n      0x00\n      dup2\n      dup2\n      sload\n      dup2\n      lt\n      tag_115\n      jumpi\n      0x00\n      dup1\n      revert\n    tag_115:\n      swap1\n      0x00\n      mstore\n      keccak256(0x00, 0x20)\n      swap1\n      0x04\n      mul\n      add\n      0x00\n      swap2\n      pop\n      swap1\n      pop\n      dup1\n      0x00\n      add\n      0x00\n      swap1\n      sload\n      swap1\n      0x0100\n      exp\n      swap1\n      div\n      0xffffffffffffffffffffffffffffffffffffffff\n      and\n      swap1\n      dup1\n      0x01\n      add\n      0x00\n      swap1\n      sload\n      swap1\n      0x0100\n      exp\n      swap1\n      div\n      0xffffffffffffffffffffffffffffffffffffffff\n      and\n      swap1\n      dup1\n      0x02\n      add\n      sload\n      swap1\n      dup1\n      0x03\n      add\n      sload\n      swap1\n      pop\n      dup5\n      jump\t// out\n        /* \"Dapp/Sender.sol\":645:1430  function sendMoney( uint _amount, address _receiver) public payable m_validAddress(_receiver) m_ifCardExists m_transferLimit{... */\n    tag_35:\n        /* \"Dapp/Sender.sol\":728:737  _receiver */\n      dup1\n        /* \"Dapp/Sender.sol\":1838:1843  _addr */\n      dup1\n        /* \"Dapp/Sender.sol\":1827:1835  receiver */\n      0x08\n      0x00\n        /* \"Dapp/Sender.sol\":1827:1843  receiver = _addr */\n      0x0100\n      exp\n      dup2\n      sload\n      dup2\n      0xffffffffffffffffffffffffffffffffffffffff\n      mul\n      not\n      and\n      swap1\n      dup4\n      0xffffffffffffffffffffffffffffffffffffffff\n      and\n      mul\n      or\n      swap1\n      sstore\n      pop\n        /* \"Dapp/Sender.sol\":1879:1880  0 */\n      0x00\n        /* \"Dapp/Sender.sol\":1862:1881  _addr != address(0) */\n      0xffffffffffffffffffffffffffffffffffffffff\n      and\n        /* \"Dapp/Sender.sol\":1862:1867  _addr */\n      dup2\n        /* \"Dapp/Sender.sol\":1862:1881  _addr != address(0) */\n      0xffffffffffffffffffffffffffffffffffffffff\n      and\n      sub\n        /* \"Dapp/Sender.sol\":1854:1913  require(_addr != address(0), \"This address doesn't exists\") */\n      tag_118\n      jumpi\n      mload(0x40)\n      0x08c379a000000000000000000000000000000000000000000000000000000000\n      dup2\n      mstore\n      0x04\n      add\n      tag_119\n      swap1\n      tag_120\n      jump\t// in\n    tag_119:\n      mload(0x40)\n      dup1\n      swap2\n      sub\n      swap1\n      revert\n    tag_118:\n        /* \"Dapp/Sender.sol\":2012:2017  false */\n      0x00\n        /* \"Dapp/Sender.sol\":1997:2017  callPutCard != false */\n      iszero\n      iszero\n        /* \"Dapp/Sender.sol\":1997:2008  callPutCard */\n      0x0f\n      0x00\n      swap1\n      sload\n      swap1\n      0x0100\n      exp\n      swap1\n      div\n      0xff\n      and\n        /* \"Dapp/Sender.sol\":1997:2017  callPutCard != false */\n      iszero\n      iszero\n      sub\n        /* \"Dapp/Sender.sol\":1989:2044  require(callPutCard != false,\"Please insert your card\") */\n      tag_122\n      jumpi\n      mload(0x40)\n      0x08c379a000000000000000000000000000000000000000000000000000000000\n      dup2\n      mstore\n      0x04\n      add\n      tag_123\n      swap1\n      tag_124\n      jump\t// in\n    tag_123:\n      mload(0x40)\n      dup1\n      swap2\n      sub\n      swap1\n      revert\n    tag_122:\n        /* \"Dapp/Sender.sol\":2317:2318  5 */\n      0x05\n        /* \"Dapp/Sender.sol\":2304:2313  callCount */\n      sload(0x0e)\n        /* \"Dapp/Sender.sol\":2304:2318  callCount >= 5 */\n      lt\n      iszero\n        /* \"Dapp/Sender.sol\":2304:2371  callCount >= 5 && block.timestamp <= (firstTransferTime + 24 hours) */\n      dup1\n      iszero\n      tag_126\n      jumpi\n      pop\n        /* \"Dapp/Sender.sol\":2362:2370  24 hours */\n      0x015180\n        /* \"Dapp/Sender.sol\":2342:2359  firstTransferTime */\n      sload(0x0d)\n        /* \"Dapp/Sender.sol\":2342:2370  firstTransferTime + 24 hours */\n      tag_127\n      swap2\n      swap1\n      tag_128\n      jump\t// in\n    tag_127:\n        /* \"Dapp/Sender.sol\":2322:2337  block.timestamp */\n      timestamp\n        /* \"Dapp/Sender.sol\":2322:2371  block.timestamp <= (firstTransferTime + 24 hours) */\n      gt\n      iszero\n        /* \"Dapp/Sender.sol\":2304:2371  callCount >= 5 && block.timestamp <= (firstTransferTime + 24 hours) */\n    tag_126:\n        /* \"Dapp/Sender.sol\":2301:2516  if(callCount >= 5 && block.timestamp <= (firstTransferTime + 24 hours)){... */\n      iszero\n      tag_129\n      jumpi\n        /* \"Dapp/Sender.sol\":2399:2400  0 */\n      0x00\n        /* \"Dapp/Sender.sol\":2387:2396  callCount */\n      0x0e\n        /* \"Dapp/Sender.sol\":2387:2400  callCount = 0 */\n      dup2\n      swap1\n      sstore\n      pop\n        /* \"Dapp/Sender.sol\":2435:2436  0 */\n      0x00\n        /* \"Dapp/Sender.sol\":2422:2431  callCount */\n      sload(0x0e)\n        /* \"Dapp/Sender.sol\":2422:2436  callCount == 0 */\n      eq\n        /* \"Dapp/Sender.sol\":2415:2437  assert(callCount == 0) */\n      tag_130\n      jumpi\n      tag_131\n      tag_132\n      jump\t// in\n    tag_131:\n    tag_130:\n        /* \"Dapp/Sender.sol\":2452:2490  revert(\"only 5 transactions per day\" ) */\n      mload(0x40)\n      0x08c379a000000000000000000000000000000000000000000000000000000000\n      dup2\n      mstore\n      0x04\n      add\n      tag_133\n      swap1\n      tag_134\n      jump\t// in\n    tag_133:\n      mload(0x40)\n      dup1\n      swap2\n      sub\n      swap1\n      revert\n        /* \"Dapp/Sender.sol\":2301:2516  if(callCount >= 5 && block.timestamp <= (firstTransferTime + 24 hours)){... */\n    tag_129:\n        /* \"Dapp/Sender.sol\":2544:2545  5 */\n      0x05\n        /* \"Dapp/Sender.sol\":2531:2540  callCount */\n      sload(0x0e)\n        /* \"Dapp/Sender.sol\":2531:2545  callCount <= 5 */\n      gt\n      iszero\n        /* \"Dapp/Sender.sol\":2531:2600  callCount <= 5 && block.timestamp >= (firstTransferTime + 30 seconds) */\n      dup1\n      iszero\n      tag_135\n      jumpi\n      pop\n        /* \"Dapp/Sender.sol\":2589:2599  30 seconds */\n      0x1e\n        /* \"Dapp/Sender.sol\":2569:2586  firstTransferTime */\n      sload(0x0d)\n        /* \"Dapp/Sender.sol\":2569:2599  firstTransferTime + 30 seconds */\n      tag_136\n      swap2\n      swap1\n      tag_128\n      jump\t// in\n    tag_136:\n        /* \"Dapp/Sender.sol\":2549:2564  block.timestamp */\n      timestamp\n        /* \"Dapp/Sender.sol\":2549:2600  block.timestamp >= (firstTransferTime + 30 seconds) */\n      lt\n      iszero\n        /* \"Dapp/Sender.sol\":2531:2600  callCount <= 5 && block.timestamp >= (firstTransferTime + 30 seconds) */\n    tag_135:\n        /* \"Dapp/Sender.sol\":2528:2729  if(callCount <= 5 && block.timestamp >= (firstTransferTime + 30 seconds)){... */\n      iszero\n      tag_137\n      jumpi\n        /* \"Dapp/Sender.sol\":2628:2629  0 */\n      0x00\n        /* \"Dapp/Sender.sol\":2616:2625  callCount */\n      0x0e\n        /* \"Dapp/Sender.sol\":2616:2629  callCount = 0 */\n      dup2\n      swap1\n      sstore\n      pop\n        /* \"Dapp/Sender.sol\":2665:2666  0 */\n      0x00\n        /* \"Dapp/Sender.sol\":2652:2661  callCount */\n      sload(0x0e)\n        /* \"Dapp/Sender.sol\":2652:2666  callCount == 0 */\n      eq\n        /* \"Dapp/Sender.sol\":2645:2667  assert(callCount == 0) */\n      tag_138\n      jumpi\n      tag_139\n      tag_132\n      jump\t// in\n    tag_139:\n    tag_138:\n        /* \"Dapp/Sender.sol\":2702:2717  block.timestamp */\n      timestamp\n        /* \"Dapp/Sender.sol\":2682:2699  firstTransferTime */\n      0x0d\n        /* \"Dapp/Sender.sol\":2682:2717  firstTransferTime = block.timestamp */\n      dup2\n      swap1\n      sstore\n      pop\n        /* \"Dapp/Sender.sol\":2528:2729  if(callCount <= 5 && block.timestamp >= (firstTransferTime + 30 seconds)){... */\n    tag_137:\n        /* \"Dapp/Sender.sol\":791:800  _receiver */\n      dup2\n        /* \"Dapp/Sender.sol\":780:788  receiver */\n      0x08\n      0x00\n        /* \"Dapp/Sender.sol\":780:800  receiver = _receiver */\n      0x0100\n      exp\n      dup2\n      sload\n      dup2\n      0xffffffffffffffffffffffffffffffffffffffff\n      mul\n      not\n      and\n      swap1\n      dup4\n      0xffffffffffffffffffffffffffffffffffffffff\n      and\n      mul\n      or\n      swap1\n      sstore\n      pop\n        /* \"Dapp/Sender.sol\":820:827  _amount */\n      dup3\n        /* \"Dapp/Sender.sol\":811:817  amount */\n      0x06\n        /* \"Dapp/Sender.sol\":811:827  amount = _amount */\n      dup2\n      swap1\n      sstore\n      pop\n        /* \"Dapp/Sender.sol\":851:852  1 */\n      0x01\n        /* \"Dapp/Sender.sol\":838:847  callCount */\n      0x0e\n      0x00\n        /* \"Dapp/Sender.sol\":838:852  callCount += 1 */\n      dup3\n      dup3\n      sload\n      tag_141\n      swap2\n      swap1\n      tag_128\n      jump\t// in\n    tag_141:\n      swap3\n      pop\n      pop\n      dup2\n      swap1\n      sstore\n      pop\n        /* \"Dapp/Sender.sol\":909:910  0 */\n      0x00\n        /* \"Dapp/Sender.sol\":896:906  TotalFunds */\n      sload(0x07)\n        /* \"Dapp/Sender.sol\":896:910  TotalFunds > 0 */\n      gt\n        /* \"Dapp/Sender.sol\":896:933  TotalFunds > 0 && TotalFunds > amount */\n      dup1\n      iszero\n      tag_142\n      jumpi\n      pop\n        /* \"Dapp/Sender.sol\":927:933  amount */\n      sload(0x06)\n        /* \"Dapp/Sender.sol\":914:924  TotalFunds */\n      sload(0x07)\n        /* \"Dapp/Sender.sol\":914:933  TotalFunds > amount */\n      gt\n        /* \"Dapp/Sender.sol\":896:933  TotalFunds > 0 && TotalFunds > amount */\n    tag_142:\n        /* \"Dapp/Sender.sol\":893:1413  if(TotalFunds > 0 && TotalFunds > amount){... */\n      iszero\n      tag_143\n      jumpi\n        /* \"Dapp/Sender.sol\":971:977  amount */\n      sload(0x06)\n        /* \"Dapp/Sender.sol\":957:967  TotalFunds */\n      0x07\n      0x00\n        /* \"Dapp/Sender.sol\":957:977  TotalFunds -= amount */\n      dup3\n      dup3\n      sload\n      tag_144\n      swap2\n      swap1\n      tag_145\n      jump\t// in\n    tag_144:\n      swap3\n      pop\n      pop\n      dup2\n      swap1\n      sstore\n      pop\n        /* \"Dapp/Sender.sol\":1015:1021  amount */\n      sload(0x06)\n        /* \"Dapp/Sender.sol\":1000:1011  TotalAmount */\n      0x0c\n      0x00\n        /* \"Dapp/Sender.sol\":1000:1021  TotalAmount += amount */\n      dup3\n      dup3\n      sload\n      tag_146\n      swap2\n      swap1\n      tag_128\n      jump\t// in\n    tag_146:\n      swap3\n      pop\n      pop\n      dup2\n      swap1\n      sstore\n      pop\n        /* \"Dapp/Sender.sol\":1088:1148  addTransaction(msg.sender,receiver, amount, block.timestamp) */\n      tag_147\n        /* \"Dapp/Sender.sol\":1103:1113  msg.sender */\n      caller\n        /* \"Dapp/Sender.sol\":1114:1122  receiver */\n      0x08\n      0x00\n      swap1\n      sload\n      swap1\n      0x0100\n      exp\n      swap1\n      div\n      0xffffffffffffffffffffffffffffffffffffffff\n      and\n        /* \"Dapp/Sender.sol\":1124:1130  amount */\n      sload(0x06)\n        /* \"Dapp/Sender.sol\":1132:1147  block.timestamp */\n      timestamp\n        /* \"Dapp/Sender.sol\":1088:1102  addTransaction */\n      tag_148\n        /* \"Dapp/Sender.sol\":1088:1148  addTransaction(msg.sender,receiver, amount, block.timestamp) */\n      jump\t// in\n    tag_147:\n        /* \"Dapp/Sender.sol\":1171:1186  deposit(amount) */\n      tag_149\n        /* \"Dapp/Sender.sol\":1179:1185  amount */\n      sload(0x06)\n        /* \"Dapp/Sender.sol\":1171:1178  deposit */\n      tag_150\n        /* \"Dapp/Sender.sol\":1171:1186  deposit(amount) */\n      jump\t// in\n    tag_149:\n        /* \"Dapp/Sender.sol\":1209:1239  message = \"Transfer completed\" */\n      mload(0x40)\n      dup1\n      0x40\n      add\n      0x40\n      mstore\n      dup1\n      0x12\n      dup2\n      mstore\n      0x20\n      add\n      0x5472616e7366657220636f6d706c657465640000000000000000000000000000\n      dup2\n      mstore\n      pop\n        /* \"Dapp/Sender.sol\":1209:1216  message */\n      0x09\n        /* \"Dapp/Sender.sol\":1209:1239  message = \"Transfer completed\" */\n      swap1\n      dup2\n      tag_151\n      swap2\n      swap1\n      tag_152\n      jump\t// in\n    tag_151:\n      pop\n        /* \"Dapp/Sender.sol\":893:1413  if(TotalFunds > 0 && TotalFunds > amount){... */\n      jump(tag_153)\n    tag_143:\n        /* \"Dapp/Sender.sol\":1366:1392  revert(\"Not enough funds\") */\n      mload(0x40)\n      0x08c379a000000000000000000000000000000000000000000000000000000000\n      dup2\n      mstore\n      0x04\n      add\n      tag_154\n      swap1\n      tag_155\n      jump\t// in\n    tag_154:\n      mload(0x40)\n      dup1\n      swap2\n      sub\n      swap1\n      revert\n        /* \"Dapp/Sender.sol\":893:1413  if(TotalFunds > 0 && TotalFunds > amount){... */\n    tag_153:\n        /* \"Dapp/Sender.sol\":645:1430  function sendMoney( uint _amount, address _receiver) public payable m_validAddress(_receiver) m_ifCardExists m_transferLimit{... */\n      pop\n      pop\n      pop\n      jump\t// out\n        /* \"Dapp/Sender.sol\":378:407  uint public firstTransferTime */\n    tag_38:\n      sload(0x0d)\n      dup2\n      jump\t// out\n        /* \"Dapp/Receiver.sol\":701:789  function getBalance() public view returns(uint){... */\n    tag_43:\n        /* \"Dapp/Receiver.sol\":743:747  uint */\n      0x00\n        /* \"Dapp/Receiver.sol\":768:770  rd */\n      0x03\n        /* \"Dapp/Receiver.sol\":768:781  rd.totalFunds */\n      0x00\n      add\n      sload\n        /* \"Dapp/Receiver.sol\":761:781  return rd.totalFunds */\n      swap1\n      pop\n        /* \"Dapp/Receiver.sol\":701:789  function getBalance() public view returns(uint){... */\n      swap1\n      jump\t// out\n        /* \"Dapp/Sender.sol\":1438:1681  function setCard(string memory _cardNumber, string memory _cvv) public  m_checkCard {... */\n    tag_49:\n        /* \"Dapp/Sender.sol\":1552:1563  _cardNumber */\n      dup2\n        /* \"Dapp/Sender.sol\":1539:1549  cardNumber */\n      0x0a\n        /* \"Dapp/Sender.sol\":1539:1563  cardNumber = _cardNumber */\n      swap1\n      dup2\n      tag_159\n      swap2\n      swap1\n      tag_152\n      jump\t// in\n    tag_159:\n      pop\n        /* \"Dapp/Sender.sol\":1584:1588  _cvv */\n      dup1\n        /* \"Dapp/Sender.sol\":1578:1581  cvv */\n      0x0b\n        /* \"Dapp/Sender.sol\":1578:1588  cvv = _cvv */\n      swap1\n      dup2\n      tag_160\n      swap2\n      swap1\n      tag_152\n      jump\t// in\n    tag_160:\n      pop\n        /* \"Dapp/Sender.sol\":1617:1621  true */\n      0x01\n        /* \"Dapp/Sender.sol\":1603:1614  callPutCard */\n      0x0f\n      0x00\n        /* \"Dapp/Sender.sol\":1603:1621  callPutCard = true */\n      0x0100\n      exp\n      dup2\n      sload\n      dup2\n      0xff\n      mul\n      not\n      and\n      swap1\n      dup4\n      iszero\n      iszero\n      mul\n      or\n      swap1\n      sstore\n      pop\n        /* \"Dapp/Sender.sol\":1656:1671  block.timestamp */\n      timestamp\n        /* \"Dapp/Sender.sol\":1636:1653  firstTransferTime */\n      0x0d\n        /* \"Dapp/Sender.sol\":1636:1671  firstTransferTime = block.timestamp */\n      dup2\n      swap1\n      sstore\n      pop\n        /* \"Dapp/Sender.sol\":2169:2170  8 */\n      0x08\n        /* \"Dapp/Sender.sol\":2147:2157  cardNumber */\n      0x0a\n        /* \"Dapp/Sender.sol\":2141:2165  bytes(cardNumber).length */\n      dup1\n      sload\n      tag_161\n      swap1\n      tag_162\n      jump\t// in\n    tag_161:\n      swap1\n      pop\n        /* \"Dapp/Sender.sol\":2141:2170  bytes(cardNumber).length == 8 */\n      eq\n        /* \"Dapp/Sender.sol\":2141:2196  bytes(cardNumber).length == 8 && bytes(cvv).length == 3 */\n      dup1\n      iszero\n      tag_163\n      jumpi\n      pop\n        /* \"Dapp/Sender.sol\":2195:2196  3 */\n      0x03\n        /* \"Dapp/Sender.sol\":2180:2183  cvv */\n      0x0b\n        /* \"Dapp/Sender.sol\":2174:2191  bytes(cvv).length */\n      dup1\n      sload\n      tag_164\n      swap1\n      tag_162\n      jump\t// in\n    tag_164:\n      swap1\n      pop\n        /* \"Dapp/Sender.sol\":2174:2196  bytes(cvv).length == 3 */\n      eq\n        /* \"Dapp/Sender.sol\":2141:2196  bytes(cardNumber).length == 8 && bytes(cvv).length == 3 */\n    tag_163:\n        /* \"Dapp/Sender.sol\":2133:2221  require(bytes(cardNumber).length == 8 && bytes(cvv).length == 3, \"No valid credit card\") */\n      tag_165\n      jumpi\n      mload(0x40)\n      0x08c379a000000000000000000000000000000000000000000000000000000000\n      dup2\n      mstore\n      0x04\n      add\n      tag_166\n      swap1\n      tag_167\n      jump\t// in\n    tag_166:\n      mload(0x40)\n      dup1\n      swap2\n      sub\n      swap1\n      revert\n    tag_165:\n        /* \"Dapp/Sender.sol\":1438:1681  function setCard(string memory _cardNumber, string memory _cvv) public  m_checkCard {... */\n      pop\n      pop\n      jump\t// out\n        /* \"Dapp/Transaction.sol\":970:1063  function getNumberOfTransactions() public view returns(uint){... */\n    tag_52:\n        /* \"Dapp/Transaction.sol\":1025:1029  uint */\n      0x00\n        /* \"Dapp/Transaction.sol\":1048:1055  counter */\n      sload(0x02)\n        /* \"Dapp/Transaction.sol\":1041:1055  return counter */\n      swap1\n      pop\n        /* \"Dapp/Transaction.sol\":970:1063  function getNumberOfTransactions() public view returns(uint){... */\n      swap1\n      jump\t// out\n        /* \"Dapp/Sender.sol\":604:635  bool public callPutCard = false */\n    tag_56:\n      0x0f\n      0x00\n      swap1\n      sload\n      swap1\n      0x0100\n      exp\n      swap1\n      div\n      0xff\n      and\n      dup2\n      jump\t// out\n        /* \"Dapp/Sender.sol\":320:337  string public cvv */\n    tag_61:\n      0x0b\n      dup1\n      sload\n      tag_169\n      swap1\n      tag_162\n      jump\t// in\n    tag_169:\n      dup1\n      0x1f\n      add\n      0x20\n      dup1\n      swap2\n      div\n      mul\n      0x20\n      add\n      mload(0x40)\n      swap1\n      dup2\n      add\n      0x40\n      mstore\n      dup1\n      swap3\n      swap2\n      swap1\n      dup2\n      dup2\n      mstore\n      0x20\n      add\n      dup3\n      dup1\n      sload\n      tag_170\n      swap1\n      tag_162\n      jump\t// in\n    tag_170:\n      dup1\n      iszero\n      tag_171\n      jumpi\n      dup1\n      0x1f\n      lt\n      tag_172\n      jumpi\n      0x0100\n      dup1\n      dup4\n      sload\n      div\n      mul\n      dup4\n      mstore\n      swap2\n      0x20\n      add\n      swap2\n      jump(tag_171)\n    tag_172:\n      dup3\n      add\n      swap2\n      swap1\n      0x00\n      mstore\n      keccak256(0x00, 0x20)\n      swap1\n    tag_173:\n      dup2\n      sload\n      dup2\n      mstore\n      swap1\n      0x01\n      add\n      swap1\n      0x20\n      add\n      dup1\n      dup4\n      gt\n      tag_173\n      jumpi\n      dup3\n      swap1\n      sub\n      0x1f\n      and\n      dup3\n      add\n      swap2\n    tag_171:\n      pop\n      pop\n      pop\n      pop\n      pop\n      dup2\n      jump\t// out\n        /* \"Dapp/Transaction.sol\":1071:1253  function getLastTransaction(uint no_transactions) public view returns(Transactions memory){... */\n    tag_67:\n        /* \"Dapp/Transaction.sol\":1141:1160  Transactions memory */\n      tag_174\n      tag_175\n      jump\t// in\n    tag_174:\n        /* \"Dapp/Transaction.sol\":1172:1178  uint x */\n      0x00\n        /* \"Dapp/Transaction.sol\":1206:1221  no_transactions */\n      dup3\n        /* \"Dapp/Transaction.sol\":1181:1196  transactionList */\n      0x00\n        /* \"Dapp/Transaction.sol\":1181:1203  transactionList.length */\n      dup1\n      sload\n      swap1\n      pop\n        /* \"Dapp/Transaction.sol\":1181:1221  transactionList.length - no_transactions */\n      tag_177\n      swap2\n      swap1\n      tag_145\n      jump\t// in\n    tag_177:\n        /* \"Dapp/Transaction.sol\":1172:1221  uint x = transactionList.length - no_transactions */\n      swap1\n      pop\n        /* \"Dapp/Transaction.sol\":1239:1242  trn */\n      0x01\n        /* \"Dapp/Transaction.sol\":1239:1245  trn[x] */\n      0x00\n        /* \"Dapp/Transaction.sol\":1243:1244  x */\n      dup3\n        /* \"Dapp/Transaction.sol\":1239:1245  trn[x] */\n      dup2\n      mstore\n      0x20\n      add\n      swap1\n      dup2\n      mstore\n      0x20\n      add\n      0x00\n      keccak256\n        /* \"Dapp/Transaction.sol\":1232:1245  return trn[x] */\n      mload(0x40)\n      dup1\n      0x80\n      add\n      0x40\n      mstore\n      swap1\n      dup2\n      0x00\n      dup3\n      add\n      0x00\n      swap1\n      sload\n      swap1\n      0x0100\n      exp\n      swap1\n      div\n      0xffffffffffffffffffffffffffffffffffffffff\n      and\n      0xffffffffffffffffffffffffffffffffffffffff\n      and\n      0xffffffffffffffffffffffffffffffffffffffff\n      and\n      dup2\n      mstore\n      0x20\n      add\n      0x01\n      dup3\n      add\n      0x00\n      swap1\n      sload\n      swap1\n      0x0100\n      exp\n      swap1\n      div\n      0xffffffffffffffffffffffffffffffffffffffff\n      and\n      0xffffffffffffffffffffffffffffffffffffffff\n      and\n      0xffffffffffffffffffffffffffffffffffffffff\n      and\n      dup2\n      mstore\n      0x20\n      add\n      0x02\n      dup3\n      add\n      sload\n      dup2\n      mstore\n      0x20\n      add\n      0x03\n      dup3\n      add\n      sload\n      dup2\n      mstore\n      pop\n      pop\n      swap2\n      pop\n      pop\n        /* \"Dapp/Transaction.sol\":1071:1253  function getLastTransaction(uint no_transactions) public view returns(Transactions memory){... */\n      swap2\n      swap1\n      pop\n      jump\t// out\n        /* \"Dapp/Sender.sol\":571:596  uint public callCount = 0 */\n    tag_72:\n      sload(0x0e)\n      dup2\n      jump\t// out\n        /* \"Dapp/Receiver.sol\":237:404  function withdrawMoney(uint _money) public  m_checkBalance  {... */\n    tag_77:\n        /* \"Dapp/Receiver.sol\":329:335  _money */\n      dup1\n        /* \"Dapp/Receiver.sol\":318:320  rd */\n      0x03\n        /* \"Dapp/Receiver.sol\":318:326  rd.money */\n      0x02\n      add\n        /* \"Dapp/Receiver.sol\":318:335  rd.money = _money */\n      dup2\n      swap1\n      sstore\n      pop\n        /* \"Dapp/Receiver.sol\":378:380  rd */\n      0x03\n        /* \"Dapp/Receiver.sol\":378:386  rd.money */\n      0x02\n      add\n      sload\n        /* \"Dapp/Receiver.sol\":362:364  rd */\n      0x03\n        /* \"Dapp/Receiver.sol\":362:375  rd.totalFunds */\n      0x00\n      add\n      sload\n        /* \"Dapp/Receiver.sol\":362:386  rd.totalFunds - rd.money */\n      tag_180\n      swap2\n      swap1\n      tag_145\n      jump\t// in\n    tag_180:\n        /* \"Dapp/Receiver.sol\":346:348  rd */\n      0x03\n        /* \"Dapp/Receiver.sol\":346:359  rd.totalFunds */\n      0x00\n      add\n        /* \"Dapp/Receiver.sol\":346:386  rd.totalFunds = rd.totalFunds - rd.money */\n      dup2\n      swap1\n      sstore\n      pop\n        /* \"Dapp/Receiver.sol\":483:485  rd */\n      0x03\n        /* \"Dapp/Receiver.sol\":483:496  rd.totalFunds */\n      0x00\n      add\n      sload\n        /* \"Dapp/Receiver.sol\":472:474  rd */\n      0x03\n        /* \"Dapp/Receiver.sol\":472:480  rd.money */\n      0x02\n      add\n      sload\n        /* \"Dapp/Receiver.sol\":472:496  rd.money < rd.totalFunds */\n      lt\n        /* \"Dapp/Receiver.sol\":464:528  require(rd.money < rd.totalFunds, \"Not enough funds on account\") */\n      tag_181\n      jumpi\n      mload(0x40)\n      0x08c379a000000000000000000000000000000000000000000000000000000000\n      dup2\n      mstore\n      0x04\n      add\n      tag_182\n      swap1\n      tag_183\n      jump\t// in\n    tag_182:\n      mload(0x40)\n      dup1\n      swap2\n      sub\n      swap1\n      revert\n    tag_181:\n        /* \"Dapp/Receiver.sol\":237:404  function withdrawMoney(uint _money) public  m_checkBalance  {... */\n      pop\n      jump\t// out\n        /* \"Dapp/Sender.sol\":2764:2851  function getTime() public view returns(uint ){... */\n    tag_80:\n        /* \"Dapp/Sender.sol\":2803:2807  uint */\n      0x00\n        /* \"Dapp/Sender.sol\":2828:2843  block.timestamp */\n      timestamp\n        /* \"Dapp/Sender.sol\":2820:2843  return  block.timestamp */\n      swap1\n      pop\n        /* \"Dapp/Sender.sol\":2764:2851  function getTime() public view returns(uint ){... */\n      swap1\n      jump\t// out\n        /* \"Dapp/Transaction.sol\":283:324  mapping (uint => Transactions) public trn */\n    tag_85:\n      mstore(0x20, 0x01)\n      dup1\n      0x00\n      mstore\n      keccak256(0x00, 0x40)\n      0x00\n      swap2\n      pop\n      swap1\n      pop\n      dup1\n      0x00\n      add\n      0x00\n      swap1\n      sload\n      swap1\n      0x0100\n      exp\n      swap1\n      div\n      0xffffffffffffffffffffffffffffffffffffffff\n      and\n      swap1\n      dup1\n      0x01\n      add\n      0x00\n      swap1\n      sload\n      swap1\n      0x0100\n      exp\n      swap1\n      div\n      0xffffffffffffffffffffffffffffffffffffffff\n      and\n      swap1\n      dup1\n      0x02\n      add\n      sload\n      swap1\n      dup1\n      0x03\n      add\n      sload\n      swap1\n      pop\n      dup5\n      jump\t// out\n        /* \"Dapp/Sender.sol\":204:229  uint256 public TotalFunds */\n    tag_89:\n      sload(0x07)\n      dup2\n      jump\t// out\n        /* \"Dapp/Sender.sol\":344:370  uint256 public TotalAmount */\n    tag_93:\n      sload(0x0c)\n      dup2\n      jump\t// out\n        /* \"Dapp/Transaction.sol\":715:827  function getTransactions() public view returns(Transactions[] memory){... */\n    tag_97:\n        /* \"Dapp/Transaction.sol\":762:783  Transactions[] memory */\n      0x60\n        /* \"Dapp/Transaction.sol\":804:819  transactionList */\n      0x00\n        /* \"Dapp/Transaction.sol\":797:819  return transactionList */\n      dup1\n      sload\n      dup1\n      0x20\n      mul\n      0x20\n      add\n      mload(0x40)\n      swap1\n      dup2\n      add\n      0x40\n      mstore\n      dup1\n      swap3\n      swap2\n      swap1\n      dup2\n      dup2\n      mstore\n      0x20\n      add\n      0x00\n      swap1\n    tag_186:\n      dup3\n      dup3\n      lt\n      iszero\n      tag_187\n      jumpi\n      dup4\n      dup3\n      swap1\n      0x00\n      mstore\n      keccak256(0x00, 0x20)\n      swap1\n      0x04\n      mul\n      add\n      mload(0x40)\n      dup1\n      0x80\n      add\n      0x40\n      mstore\n      swap1\n      dup2\n      0x00\n      dup3\n      add\n      0x00\n      swap1\n      sload\n      swap1\n      0x0100\n      exp\n      swap1\n      div\n      0xffffffffffffffffffffffffffffffffffffffff\n      and\n      0xffffffffffffffffffffffffffffffffffffffff\n      and\n      0xffffffffffffffffffffffffffffffffffffffff\n      and\n      dup2\n      mstore\n      0x20\n      add\n      0x01\n      dup3\n      add\n      0x00\n      swap1\n      sload\n      swap1\n      0x0100\n      exp\n      swap1\n      div\n      0xffffffffffffffffffffffffffffffffffffffff\n      and\n      0xffffffffffffffffffffffffffffffffffffffff\n      and\n      0xffffffffffffffffffffffffffffffffffffffff\n      and\n      dup2\n      mstore\n      0x20\n      add\n      0x02\n      dup3\n      add\n      sload\n      dup2\n      mstore\n      0x20\n      add\n      0x03\n      dup3\n      add\n      sload\n      dup2\n      mstore\n      pop\n      pop\n      dup2\n      mstore\n      0x20\n      add\n      swap1\n      0x01\n      add\n      swap1\n      jump(tag_186)\n    tag_187:\n      pop\n      pop\n      pop\n      pop\n      swap1\n      pop\n        /* \"Dapp/Transaction.sol\":715:827  function getTransactions() public view returns(Transactions[] memory){... */\n      swap1\n      jump\t// out\n        /* \"Dapp/Sender.sol\":1696:1765  function getOutCard() public  {... */\n    tag_102:\n        /* \"Dapp/Sender.sol\":1750:1755  false */\n      0x00\n        /* \"Dapp/Sender.sol\":1736:1747  callPutCard */\n      0x0f\n      0x00\n        /* \"Dapp/Sender.sol\":1736:1755  callPutCard = false */\n      0x0100\n      exp\n      dup2\n      sload\n      dup2\n      0xff\n      mul\n      not\n      and\n      swap1\n      dup4\n      iszero\n      iszero\n      mul\n      or\n      swap1\n      sstore\n      pop\n        /* \"Dapp/Sender.sol\":1696:1765  function getOutCard() public  {... */\n      jump\t// out\n        /* \"Dapp/Sender.sol\":288:312  string public cardNumber */\n    tag_105:\n      0x0a\n      dup1\n      sload\n      tag_190\n      swap1\n      tag_162\n      jump\t// in\n    tag_190:\n      dup1\n      0x1f\n      add\n      0x20\n      dup1\n      swap2\n      div\n      mul\n      0x20\n      add\n      mload(0x40)\n      swap1\n      dup2\n      add\n      0x40\n      mstore\n      dup1\n      swap3\n      swap2\n      swap1\n      dup2\n      dup2\n      mstore\n      0x20\n      add\n      dup3\n      dup1\n      sload\n      tag_191\n      swap1\n      tag_162\n      jump\t// in\n    tag_191:\n      dup1\n      iszero\n      tag_192\n      jumpi\n      dup1\n      0x1f\n      lt\n      tag_193\n      jumpi\n      0x0100\n      dup1\n      dup4\n      sload\n      div\n      mul\n      dup4\n      mstore\n      swap2\n      0x20\n      add\n      swap2\n      jump(tag_192)\n    tag_193:\n      dup3\n      add\n      swap2\n      swap1\n      0x00\n      mstore\n      keccak256(0x00, 0x20)\n      swap1\n    tag_194:\n      dup2\n      sload\n      dup2\n      mstore\n      swap1\n      0x01\n      add\n      swap1\n      0x20\n      add\n      dup1\n      dup4\n      gt\n      tag_194\n      jumpi\n      dup3\n      swap1\n      sub\n      0x1f\n      and\n      dup3\n      add\n      swap2\n    tag_192:\n      pop\n      pop\n      pop\n      pop\n      pop\n      dup2\n      jump\t// out\n        /* \"Dapp/Sender.sol\":176:197  uint256 public amount */\n    tag_109:\n      sload(0x06)\n      dup2\n      jump\t// out\n        /* \"Dapp/Sender.sol\":260:281  string public message */\n    tag_113:\n      0x09\n      dup1\n      sload\n      tag_195\n      swap1\n      tag_162\n      jump\t// in\n    tag_195:\n      dup1\n      0x1f\n      add\n      0x20\n      dup1\n      swap2\n      div\n      mul\n      0x20\n      add\n      mload(0x40)\n      swap1\n      dup2\n      add\n      0x40\n      mstore\n      dup1\n      swap3\n      swap2\n      swap1\n      dup2\n      dup2\n      mstore\n      0x20\n      add\n      dup3\n      dup1\n      sload\n      tag_196\n      swap1\n      tag_162\n      jump\t// in\n    tag_196:\n      dup1\n      iszero\n      tag_197\n      jumpi\n      dup1\n      0x1f\n      lt\n      tag_198\n      jumpi\n      0x0100\n      dup1\n      dup4\n      sload\n      div\n      mul\n      dup4\n      mstore\n      swap2\n      0x20\n      add\n      swap2\n      jump(tag_197)\n    tag_198:\n      dup3\n      add\n      swap2\n      swap1\n      0x00\n      mstore\n      keccak256(0x00, 0x20)\n      swap1\n    tag_199:\n      dup2\n      sload\n      dup2\n      mstore\n      swap1\n      0x01\n      add\n      swap1\n      0x20\n      add\n      dup1\n      dup4\n      gt\n      tag_199\n      jumpi\n      dup3\n      swap1\n      sub\n      0x1f\n      and\n      dup3\n      add\n      swap2\n    tag_197:\n      pop\n      pop\n      pop\n      pop\n      pop\n      dup2\n      jump\t// out\n        /* \"Dapp/Transaction.sol\":357:707  function addTransaction(address _address_from, address _address_to, uint _amount, uint _timestamp)internal{... */\n    tag_148:\n        /* \"Dapp/Transaction.sol\":492:526  Transactions memory newTransaction */\n      0x00\n        /* \"Dapp/Transaction.sol\":529:590  Transactions(_address_from, _address_to, _amount, _timestamp) */\n      mload(0x40)\n      dup1\n      0x80\n      add\n      0x40\n      mstore\n      dup1\n        /* \"Dapp/Transaction.sol\":542:555  _address_from */\n      dup7\n        /* \"Dapp/Transaction.sol\":529:590  Transactions(_address_from, _address_to, _amount, _timestamp) */\n      0xffffffffffffffffffffffffffffffffffffffff\n      and\n      dup2\n      mstore\n      0x20\n      add\n        /* \"Dapp/Transaction.sol\":557:568  _address_to */\n      dup6\n        /* \"Dapp/Transaction.sol\":529:590  Transactions(_address_from, _address_to, _amount, _timestamp) */\n      0xffffffffffffffffffffffffffffffffffffffff\n      and\n      dup2\n      mstore\n      0x20\n      add\n        /* \"Dapp/Transaction.sol\":570:577  _amount */\n      dup5\n        /* \"Dapp/Transaction.sol\":529:590  Transactions(_address_from, _address_to, _amount, _timestamp) */\n      dup2\n      mstore\n      0x20\n      add\n        /* \"Dapp/Transaction.sol\":579:589  _timestamp */\n      dup4\n        /* \"Dapp/Transaction.sol\":529:590  Transactions(_address_from, _address_to, _amount, _timestamp) */\n      dup2\n      mstore\n      pop\n        /* \"Dapp/Transaction.sol\":492:590  Transactions memory newTransaction = Transactions(_address_from, _address_to, _amount, _timestamp) */\n      swap1\n      pop\n        /* \"Dapp/Transaction.sol\":601:616  transactionList */\n      0x00\n        /* \"Dapp/Transaction.sol\":622:636  newTransaction */\n      dup2\n        /* \"Dapp/Transaction.sol\":601:637  transactionList.push(newTransaction) */\n      swap1\n      dup1\n      0x01\n      dup2\n      sload\n      add\n      dup1\n      dup3\n      sstore\n      dup1\n      swap2\n      pop\n      pop\n      0x01\n      swap1\n      sub\n      swap1\n      0x00\n      mstore\n      keccak256(0x00, 0x20)\n      swap1\n      0x04\n      mul\n      add\n      0x00\n      swap1\n      swap2\n      swap1\n      swap2\n      swap1\n      swap2\n      pop\n      0x00\n      dup3\n      add\n      mload\n      dup2\n      0x00\n      add\n      exp(0x0100, 0x00)\n      dup2\n      sload\n      dup2\n      0xffffffffffffffffffffffffffffffffffffffff\n      mul\n      not\n      and\n      swap1\n      dup4\n      0xffffffffffffffffffffffffffffffffffffffff\n      and\n      mul\n      or\n      swap1\n      sstore\n      pop\n      0x20\n      dup3\n      add\n      mload\n      dup2\n      0x01\n      add\n      exp(0x0100, 0x00)\n      dup2\n      sload\n      dup2\n      0xffffffffffffffffffffffffffffffffffffffff\n      mul\n      not\n      and\n      swap1\n      dup4\n      0xffffffffffffffffffffffffffffffffffffffff\n      and\n      mul\n      or\n      swap1\n      sstore\n      pop\n      0x40\n      dup3\n      add\n      mload\n      dup2\n      0x02\n      add\n      sstore\n      0x60\n      dup3\n      add\n      mload\n      dup2\n      0x03\n      add\n      sstore\n      pop\n      pop\n        /* \"Dapp/Transaction.sol\":663:677  newTransaction */\n      dup1\n        /* \"Dapp/Transaction.sol\":648:651  trn */\n      0x01\n        /* \"Dapp/Transaction.sol\":648:660  trn[counter] */\n      0x00\n        /* \"Dapp/Transaction.sol\":652:659  counter */\n      sload(0x02)\n        /* \"Dapp/Transaction.sol\":648:660  trn[counter] */\n      dup2\n      mstore\n      0x20\n      add\n      swap1\n      dup2\n      mstore\n      0x20\n      add\n      0x00\n      keccak256\n        /* \"Dapp/Transaction.sol\":648:677  trn[counter] = newTransaction */\n      0x00\n      dup3\n      add\n      mload\n      dup2\n      0x00\n      add\n      exp(0x0100, 0x00)\n      dup2\n      sload\n      dup2\n      0xffffffffffffffffffffffffffffffffffffffff\n      mul\n      not\n      and\n      swap1\n      dup4\n      0xffffffffffffffffffffffffffffffffffffffff\n      and\n      mul\n      or\n      swap1\n      sstore\n      pop\n      0x20\n      dup3\n      add\n      mload\n      dup2\n      0x01\n      add\n      exp(0x0100, 0x00)\n      dup2\n      sload\n      dup2\n      0xffffffffffffffffffffffffffffffffffffffff\n      mul\n      not\n      and\n      swap1\n      dup4\n      0xffffffffffffffffffffffffffffffffffffffff\n      and\n      mul\n      or\n      swap1\n      sstore\n      pop\n      0x40\n      dup3\n      add\n      mload\n      dup2\n      0x02\n      add\n      sstore\n      0x60\n      dup3\n      add\n      mload\n      dup2\n      0x03\n      add\n      sstore\n      swap1\n      pop\n      pop\n        /* \"Dapp/Transaction.sol\":688:695  counter */\n      0x02\n      0x00\n        /* \"Dapp/Transaction.sol\":688:697  counter++ */\n      dup2\n      sload\n      dup1\n      swap3\n      swap2\n      swap1\n      tag_202\n      swap1\n      tag_203\n      jump\t// in\n    tag_202:\n      swap2\n      swap1\n      pop\n      sstore\n      pop\n        /* \"Dapp/Transaction.sol\":463:707  {... */\n      pop\n        /* \"Dapp/Transaction.sol\":357:707  function addTransaction(address _address_from, address _address_to, uint _amount, uint _timestamp)internal{... */\n      pop\n      pop\n      pop\n      pop\n      jump\t// out\n        /* \"Dapp/Receiver.sol\":558:693  function deposit(uint _amount) internal {... */\n    tag_150:\n        /* \"Dapp/Receiver.sol\":623:630  _amount */\n      dup1\n        /* \"Dapp/Receiver.sol\":611:613  rd */\n      0x03\n        /* \"Dapp/Receiver.sol\":611:620  rd.amount */\n      0x01\n      add\n        /* \"Dapp/Receiver.sol\":611:630  rd.amount = _amount */\n      dup2\n      swap1\n      sstore\n      pop\n        /* \"Dapp/Receiver.sol\":674:676  rd */\n      0x03\n        /* \"Dapp/Receiver.sol\":674:683  rd.amount */\n      0x01\n      add\n      sload\n        /* \"Dapp/Receiver.sol\":657:659  rd */\n      0x03\n        /* \"Dapp/Receiver.sol\":657:670  rd.totalFunds */\n      0x00\n      add\n      sload\n        /* \"Dapp/Receiver.sol\":657:683  rd.totalFunds  + rd.amount */\n      tag_205\n      swap2\n      swap1\n      tag_128\n      jump\t// in\n    tag_205:\n        /* \"Dapp/Receiver.sol\":641:643  rd */\n      0x03\n        /* \"Dapp/Receiver.sol\":641:654  rd.totalFunds */\n      0x00\n      add\n        /* \"Dapp/Receiver.sol\":641:683  rd.totalFunds = rd.totalFunds  + rd.amount */\n      dup2\n      swap1\n      sstore\n      pop\n        /* \"Dapp/Receiver.sol\":558:693  function deposit(uint _amount) internal {... */\n      pop\n      jump\t// out\n    tag_175:\n      mload(0x40)\n      dup1\n      0x80\n      add\n      0x40\n      mstore\n      dup1\n      and(0xffffffffffffffffffffffffffffffffffffffff, 0x00)\n      dup2\n      mstore\n      0x20\n      add\n      and(0xffffffffffffffffffffffffffffffffffffffff, 0x00)\n      dup2\n      mstore\n      0x20\n      add\n      0x00\n      dup2\n      mstore\n      0x20\n      add\n      0x00\n      dup2\n      mstore\n      pop\n      swap1\n      jump\t// out\n        /* \"#utility.yul\":7:82   */\n    tag_206:\n        /* \"#utility.yul\":40:46   */\n      0x00\n        /* \"#utility.yul\":73:75   */\n      0x40\n        /* \"#utility.yul\":67:76   */\n      mload\n        /* \"#utility.yul\":57:76   */\n      swap1\n      pop\n        /* \"#utility.yul\":7:82   */\n      swap1\n      jump\t// out\n        /* \"#utility.yul\":88:205   */\n    tag_207:\n        /* \"#utility.yul\":197:198   */\n      0x00\n        /* \"#utility.yul\":194:195   */\n      dup1\n        /* \"#utility.yul\":187:199   */\n      revert\n        /* \"#utility.yul\":211:328   */\n    tag_208:\n        /* \"#utility.yul\":320:321   */\n      0x00\n        /* \"#utility.yul\":317:318   */\n      dup1\n        /* \"#utility.yul\":310:322   */\n      revert\n        /* \"#utility.yul\":334:411   */\n    tag_209:\n        /* \"#utility.yul\":371:378   */\n      0x00\n        /* \"#utility.yul\":400:405   */\n      dup2\n        /* \"#utility.yul\":389:405   */\n      swap1\n      pop\n        /* \"#utility.yul\":334:411   */\n      swap2\n      swap1\n      pop\n      jump\t// out\n        /* \"#utility.yul\":417:539   */\n    tag_210:\n        /* \"#utility.yul\":490:514   */\n      tag_279\n        /* \"#utility.yul\":508:513   */\n      dup2\n        /* \"#utility.yul\":490:514   */\n      tag_209\n      jump\t// in\n    tag_279:\n        /* \"#utility.yul\":483:488   */\n      dup2\n        /* \"#utility.yul\":480:515   */\n      eq\n        /* \"#utility.yul\":470:533   */\n      tag_280\n      jumpi\n        /* \"#utility.yul\":529:530   */\n      0x00\n        /* \"#utility.yul\":526:527   */\n      dup1\n        /* \"#utility.yul\":519:531   */\n      revert\n        /* \"#utility.yul\":470:533   */\n    tag_280:\n        /* \"#utility.yul\":417:539   */\n      pop\n      jump\t// out\n        /* \"#utility.yul\":545:684   */\n    tag_211:\n        /* \"#utility.yul\":591:596   */\n      0x00\n        /* \"#utility.yul\":629:635   */\n      dup2\n        /* \"#utility.yul\":616:636   */\n      calldataload\n        /* \"#utility.yul\":607:636   */\n      swap1\n      pop\n        /* \"#utility.yul\":645:678   */\n      tag_282\n        /* \"#utility.yul\":672:677   */\n      dup2\n        /* \"#utility.yul\":645:678   */\n      tag_210\n      jump\t// in\n    tag_282:\n        /* \"#utility.yul\":545:684   */\n      swap3\n      swap2\n      pop\n      pop\n      jump\t// out\n        /* \"#utility.yul\":690:1019   */\n    tag_28:\n        /* \"#utility.yul\":749:755   */\n      0x00\n        /* \"#utility.yul\":798:800   */\n      0x20\n        /* \"#utility.yul\":786:795   */\n      dup3\n        /* \"#utility.yul\":777:784   */\n      dup5\n        /* \"#utility.yul\":773:796   */\n      sub\n        /* \"#utility.yul\":769:801   */\n      slt\n        /* \"#utility.yul\":766:885   */\n      iszero\n      tag_284\n      jumpi\n        /* \"#utility.yul\":804:883   */\n      tag_285\n      tag_207\n      jump\t// in\n    tag_285:\n        /* \"#utility.yul\":766:885   */\n    tag_284:\n        /* \"#utility.yul\":924:925   */\n      0x00\n        /* \"#utility.yul\":949:1002   */\n      tag_286\n        /* \"#utility.yul\":994:1001   */\n      dup5\n        /* \"#utility.yul\":985:991   */\n      dup3\n        /* \"#utility.yul\":974:983   */\n      dup6\n        /* \"#utility.yul\":970:992   */\n      add\n        /* \"#utility.yul\":949:1002   */\n      tag_211\n      jump\t// in\n    tag_286:\n        /* \"#utility.yul\":939:1002   */\n      swap2\n      pop\n        /* \"#utility.yul\":895:1012   */\n      pop\n        /* \"#utility.yul\":690:1019   */\n      swap3\n      swap2\n      pop\n      pop\n      jump\t// out\n        /* \"#utility.yul\":1025:1151   */\n    tag_212:\n        /* \"#utility.yul\":1062:1069   */\n      0x00\n        /* \"#utility.yul\":1102:1144   */\n      0xffffffffffffffffffffffffffffffffffffffff\n        /* \"#utility.yul\":1095:1100   */\n      dup3\n        /* \"#utility.yul\":1091:1145   */\n      and\n        /* \"#utility.yul\":1080:1145   */\n      swap1\n      pop\n        /* \"#utility.yul\":1025:1151   */\n      swap2\n      swap1\n      pop\n      jump\t// out\n        /* \"#utility.yul\":1157:1253   */\n    tag_213:\n        /* \"#utility.yul\":1194:1201   */\n      0x00\n        /* \"#utility.yul\":1223:1247   */\n      tag_289\n        /* \"#utility.yul\":1241:1246   */\n      dup3\n        /* \"#utility.yul\":1223:1247   */\n      tag_212\n      jump\t// in\n    tag_289:\n        /* \"#utility.yul\":1212:1247   */\n      swap1\n      pop\n        /* \"#utility.yul\":1157:1253   */\n      swap2\n      swap1\n      pop\n      jump\t// out\n        /* \"#utility.yul\":1259:1377   */\n    tag_214:\n        /* \"#utility.yul\":1346:1370   */\n      tag_291\n        /* \"#utility.yul\":1364:1369   */\n      dup2\n        /* \"#utility.yul\":1346:1370   */\n      tag_213\n      jump\t// in\n    tag_291:\n        /* \"#utility.yul\":1341:1344   */\n      dup3\n        /* \"#utility.yul\":1334:1371   */\n      mstore\n        /* \"#utility.yul\":1259:1377   */\n      pop\n      pop\n      jump\t// out\n        /* \"#utility.yul\":1383:1501   */\n    tag_215:\n        /* \"#utility.yul\":1470:1494   */\n      tag_293\n        /* \"#utility.yul\":1488:1493   */\n      dup2\n        /* \"#utility.yul\":1470:1494   */\n      tag_209\n      jump\t// in\n    tag_293:\n        /* \"#utility.yul\":1465:1468   */\n      dup3\n        /* \"#utility.yul\":1458:1495   */\n      mstore\n        /* \"#utility.yul\":1383:1501   */\n      pop\n      pop\n      jump\t// out\n        /* \"#utility.yul\":1507:2060   */\n    tag_31:\n        /* \"#utility.yul\":1684:1688   */\n      0x00\n        /* \"#utility.yul\":1722:1725   */\n      0x80\n        /* \"#utility.yul\":1711:1720   */\n      dup3\n        /* \"#utility.yul\":1707:1726   */\n      add\n        /* \"#utility.yul\":1699:1726   */\n      swap1\n      pop\n        /* \"#utility.yul\":1736:1807   */\n      tag_295\n        /* \"#utility.yul\":1804:1805   */\n      0x00\n        /* \"#utility.yul\":1793:1802   */\n      dup4\n        /* \"#utility.yul\":1789:1806   */\n      add\n        /* \"#utility.yul\":1780:1786   */\n      dup8\n        /* \"#utility.yul\":1736:1807   */\n      tag_214\n      jump\t// in\n    tag_295:\n        /* \"#utility.yul\":1817:1889   */\n      tag_296\n        /* \"#utility.yul\":1885:1887   */\n      0x20\n        /* \"#utility.yul\":1874:1883   */\n      dup4\n        /* \"#utility.yul\":1870:1888   */\n      add\n        /* \"#utility.yul\":1861:1867   */\n      dup7\n        /* \"#utility.yul\":1817:1889   */\n      tag_214\n      jump\t// in\n    tag_296:\n        /* \"#utility.yul\":1899:1971   */\n      tag_297\n        /* \"#utility.yul\":1967:1969   */\n      0x40\n        /* \"#utility.yul\":1956:1965   */\n      dup4\n        /* \"#utility.yul\":1952:1970   */\n      add\n        /* \"#utility.yul\":1943:1949   */\n      dup6\n        /* \"#utility.yul\":1899:1971   */\n      tag_215\n      jump\t// in\n    tag_297:\n        /* \"#utility.yul\":1981:2053   */\n      tag_298\n        /* \"#utility.yul\":2049:2051   */\n      0x60\n        /* \"#utility.yul\":2038:2047   */\n      dup4\n        /* \"#utility.yul\":2034:2052   */\n      add\n        /* \"#utility.yul\":2025:2031   */\n      dup5\n        /* \"#utility.yul\":1981:2053   */\n      tag_215\n      jump\t// in\n    tag_298:\n        /* \"#utility.yul\":1507:2060   */\n      swap6\n      swap5\n      pop\n      pop\n      pop\n      pop\n      pop\n      jump\t// out\n        /* \"#utility.yul\":2066:2188   */\n    tag_216:\n        /* \"#utility.yul\":2139:2163   */\n      tag_300\n        /* \"#utility.yul\":2157:2162   */\n      dup2\n        /* \"#utility.yul\":2139:2163   */\n      tag_213\n      jump\t// in\n    tag_300:\n        /* \"#utility.yul\":2132:2137   */\n      dup2\n        /* \"#utility.yul\":2129:2164   */\n      eq\n        /* \"#utility.yul\":2119:2182   */\n      tag_301\n      jumpi\n        /* \"#utility.yul\":2178:2179   */\n      0x00\n        /* \"#utility.yul\":2175:2176   */\n      dup1\n        /* \"#utility.yul\":2168:2180   */\n      revert\n        /* \"#utility.yul\":2119:2182   */\n    tag_301:\n        /* \"#utility.yul\":2066:2188   */\n      pop\n      jump\t// out\n        /* \"#utility.yul\":2194:2333   */\n    tag_217:\n        /* \"#utility.yul\":2240:2245   */\n      0x00\n        /* \"#utility.yul\":2278:2284   */\n      dup2\n        /* \"#utility.yul\":2265:2285   */\n      calldataload\n        /* \"#utility.yul\":2256:2285   */\n      swap1\n      pop\n        /* \"#utility.yul\":2294:2327   */\n      tag_303\n        /* \"#utility.yul\":2321:2326   */\n      dup2\n        /* \"#utility.yul\":2294:2327   */\n      tag_216\n      jump\t// in\n    tag_303:\n        /* \"#utility.yul\":2194:2333   */\n      swap3\n      swap2\n      pop\n      pop\n      jump\t// out\n        /* \"#utility.yul\":2339:2813   */\n    tag_34:\n        /* \"#utility.yul\":2407:2413   */\n      0x00\n        /* \"#utility.yul\":2415:2421   */\n      dup1\n        /* \"#utility.yul\":2464:2466   */\n      0x40\n        /* \"#utility.yul\":2452:2461   */\n      dup4\n        /* \"#utility.yul\":2443:2450   */\n      dup6\n        /* \"#utility.yul\":2439:2462   */\n      sub\n        /* \"#utility.yul\":2435:2467   */\n      slt\n        /* \"#utility.yul\":2432:2551   */\n      iszero\n      tag_305\n      jumpi\n        /* \"#utility.yul\":2470:2549   */\n      tag_306\n      tag_207\n      jump\t// in\n    tag_306:\n        /* \"#utility.yul\":2432:2551   */\n    tag_305:\n        /* \"#utility.yul\":2590:2591   */\n      0x00\n        /* \"#utility.yul\":2615:2668   */\n      tag_307\n        /* \"#utility.yul\":2660:2667   */\n      dup6\n        /* \"#utility.yul\":2651:2657   */\n      dup3\n        /* \"#utility.yul\":2640:2649   */\n      dup7\n        /* \"#utility.yul\":2636:2658   */\n      add\n        /* \"#utility.yul\":2615:2668   */\n      tag_211\n      jump\t// in\n    tag_307:\n        /* \"#utility.yul\":2605:2668   */\n      swap3\n      pop\n        /* \"#utility.yul\":2561:2678   */\n      pop\n        /* \"#utility.yul\":2717:2719   */\n      0x20\n        /* \"#utility.yul\":2743:2796   */\n      tag_308\n        /* \"#utility.yul\":2788:2795   */\n      dup6\n        /* \"#utility.yul\":2779:2785   */\n      dup3\n        /* \"#utility.yul\":2768:2777   */\n      dup7\n        /* \"#utility.yul\":2764:2786   */\n      add\n        /* \"#utility.yul\":2743:2796   */\n      tag_217\n      jump\t// in\n    tag_308:\n        /* \"#utility.yul\":2733:2796   */\n      swap2\n      pop\n        /* \"#utility.yul\":2688:2806   */\n      pop\n        /* \"#utility.yul\":2339:2813   */\n      swap3\n      pop\n      swap3\n      swap1\n      pop\n      jump\t// out\n        /* \"#utility.yul\":2819:3041   */\n    tag_40:\n        /* \"#utility.yul\":2912:2916   */\n      0x00\n        /* \"#utility.yul\":2950:2952   */\n      0x20\n        /* \"#utility.yul\":2939:2948   */\n      dup3\n        /* \"#utility.yul\":2935:2953   */\n      add\n        /* \"#utility.yul\":2927:2953   */\n      swap1\n      pop\n        /* \"#utility.yul\":2963:3034   */\n      tag_310\n        /* \"#utility.yul\":3031:3032   */\n      0x00\n        /* \"#utility.yul\":3020:3029   */\n      dup4\n        /* \"#utility.yul\":3016:3033   */\n      add\n        /* \"#utility.yul\":3007:3013   */\n      dup5\n        /* \"#utility.yul\":2963:3034   */\n      tag_215\n      jump\t// in\n    tag_310:\n        /* \"#utility.yul\":2819:3041   */\n      swap3\n      swap2\n      pop\n      pop\n      jump\t// out\n        /* \"#utility.yul\":3047:3164   */\n    tag_218:\n        /* \"#utility.yul\":3156:3157   */\n      0x00\n        /* \"#utility.yul\":3153:3154   */\n      dup1\n        /* \"#utility.yul\":3146:3158   */\n      revert\n        /* \"#utility.yul\":3170:3287   */\n    tag_219:\n        /* \"#utility.yul\":3279:3280   */\n      0x00\n        /* \"#utility.yul\":3276:3277   */\n      dup1\n        /* \"#utility.yul\":3269:3281   */\n      revert\n        /* \"#utility.yul\":3293:3395   */\n    tag_220:\n        /* \"#utility.yul\":3334:3340   */\n      0x00\n        /* \"#utility.yul\":3385:3387   */\n      0x1f\n        /* \"#utility.yul\":3381:3388   */\n      not\n        /* \"#utility.yul\":3376:3378   */\n      0x1f\n        /* \"#utility.yul\":3369:3374   */\n      dup4\n        /* \"#utility.yul\":3365:3379   */\n      add\n        /* \"#utility.yul\":3361:3389   */\n      and\n        /* \"#utility.yul\":3351:3389   */\n      swap1\n      pop\n        /* \"#utility.yul\":3293:3395   */\n      swap2\n      swap1\n      pop\n      jump\t// out\n        /* \"#utility.yul\":3401:3581   */\n    tag_221:\n        /* \"#utility.yul\":3449:3526   */\n      0x4e487b7100000000000000000000000000000000000000000000000000000000\n        /* \"#utility.yul\":3446:3447   */\n      0x00\n        /* \"#utility.yul\":3439:3527   */\n      mstore\n        /* \"#utility.yul\":3546:3550   */\n      0x41\n        /* \"#utility.yul\":3543:3544   */\n      0x04\n        /* \"#utility.yul\":3536:3551   */\n      mstore\n        /* \"#utility.yul\":3570:3574   */\n      0x24\n        /* \"#utility.yul\":3567:3568   */\n      0x00\n        /* \"#utility.yul\":3560:3575   */\n      revert\n        /* \"#utility.yul\":3587:3868   */\n    tag_222:\n        /* \"#utility.yul\":3670:3697   */\n      tag_316\n        /* \"#utility.yul\":3692:3696   */\n      dup3\n        /* \"#utility.yul\":3670:3697   */\n      tag_220\n      jump\t// in\n    tag_316:\n        /* \"#utility.yul\":3662:3668   */\n      dup2\n        /* \"#utility.yul\":3658:3698   */\n      add\n        /* \"#utility.yul\":3800:3806   */\n      dup2\n        /* \"#utility.yul\":3788:3798   */\n      dup2\n        /* \"#utility.yul\":3785:3807   */\n      lt\n        /* \"#utility.yul\":3764:3782   */\n      0xffffffffffffffff\n        /* \"#utility.yul\":3752:3762   */\n      dup3\n        /* \"#utility.yul\":3749:3783   */\n      gt\n        /* \"#utility.yul\":3746:3808   */\n      or\n        /* \"#utility.yul\":3743:3831   */\n      iszero\n      tag_317\n      jumpi\n        /* \"#utility.yul\":3811:3829   */\n      tag_318\n      tag_221\n      jump\t// in\n    tag_318:\n        /* \"#utility.yul\":3743:3831   */\n    tag_317:\n        /* \"#utility.yul\":3851:3861   */\n      dup1\n        /* \"#utility.yul\":3847:3849   */\n      0x40\n        /* \"#utility.yul\":3840:3862   */\n      mstore\n        /* \"#utility.yul\":3630:3868   */\n      pop\n        /* \"#utility.yul\":3587:3868   */\n      pop\n      pop\n      jump\t// out\n        /* \"#utility.yul\":3874:4003   */\n    tag_223:\n        /* \"#utility.yul\":3908:3914   */\n      0x00\n        /* \"#utility.yul\":3935:3955   */\n      tag_320\n      tag_206\n      jump\t// in\n    tag_320:\n        /* \"#utility.yul\":3925:3955   */\n      swap1\n      pop\n        /* \"#utility.yul\":3964:3997   */\n      tag_321\n        /* \"#utility.yul\":3992:3996   */\n      dup3\n        /* \"#utility.yul\":3984:3990   */\n      dup3\n        /* \"#utility.yul\":3964:3997   */\n      tag_222\n      jump\t// in\n    tag_321:\n        /* \"#utility.yul\":3874:4003   */\n      swap2\n      swap1\n      pop\n      jump\t// out\n        /* \"#utility.yul\":4009:4317   */\n    tag_224:\n        /* \"#utility.yul\":4071:4075   */\n      0x00\n        /* \"#utility.yul\":4161:4179   */\n      0xffffffffffffffff\n        /* \"#utility.yul\":4153:4159   */\n      dup3\n        /* \"#utility.yul\":4150:4180   */\n      gt\n        /* \"#utility.yul\":4147:4203   */\n      iszero\n      tag_323\n      jumpi\n        /* \"#utility.yul\":4183:4201   */\n      tag_324\n      tag_221\n      jump\t// in\n    tag_324:\n        /* \"#utility.yul\":4147:4203   */\n    tag_323:\n        /* \"#utility.yul\":4221:4250   */\n      tag_325\n        /* \"#utility.yul\":4243:4249   */\n      dup3\n        /* \"#utility.yul\":4221:4250   */\n      tag_220\n      jump\t// in\n    tag_325:\n        /* \"#utility.yul\":4213:4250   */\n      swap1\n      pop\n        /* \"#utility.yul\":4305:4309   */\n      0x20\n        /* \"#utility.yul\":4299:4303   */\n      dup2\n        /* \"#utility.yul\":4295:4310   */\n      add\n        /* \"#utility.yul\":4287:4310   */\n      swap1\n      pop\n        /* \"#utility.yul\":4009:4317   */\n      swap2\n      swap1\n      pop\n      jump\t// out\n        /* \"#utility.yul\":4323:4469   */\n    tag_225:\n        /* \"#utility.yul\":4420:4426   */\n      dup3\n        /* \"#utility.yul\":4415:4418   */\n      dup2\n        /* \"#utility.yul\":4410:4413   */\n      dup4\n        /* \"#utility.yul\":4397:4427   */\n      calldatacopy\n        /* \"#utility.yul\":4461:4462   */\n      0x00\n        /* \"#utility.yul\":4452:4458   */\n      dup4\n        /* \"#utility.yul\":4447:4450   */\n      dup4\n        /* \"#utility.yul\":4443:4459   */\n      add\n        /* \"#utility.yul\":4436:4463   */\n      mstore\n        /* \"#utility.yul\":4323:4469   */\n      pop\n      pop\n      pop\n      jump\t// out\n        /* \"#utility.yul\":4475:4900   */\n    tag_226:\n        /* \"#utility.yul\":4553:4558   */\n      0x00\n        /* \"#utility.yul\":4578:4644   */\n      tag_328\n        /* \"#utility.yul\":4594:4643   */\n      tag_329\n        /* \"#utility.yul\":4636:4642   */\n      dup5\n        /* \"#utility.yul\":4594:4643   */\n      tag_224\n      jump\t// in\n    tag_329:\n        /* \"#utility.yul\":4578:4644   */\n      tag_223\n      jump\t// in\n    tag_328:\n        /* \"#utility.yul\":4569:4644   */\n      swap1\n      pop\n        /* \"#utility.yul\":4667:4673   */\n      dup3\n        /* \"#utility.yul\":4660:4665   */\n      dup2\n        /* \"#utility.yul\":4653:4674   */\n      mstore\n        /* \"#utility.yul\":4705:4709   */\n      0x20\n        /* \"#utility.yul\":4698:4703   */\n      dup2\n        /* \"#utility.yul\":4694:4710   */\n      add\n        /* \"#utility.yul\":4743:4746   */\n      dup5\n        /* \"#utility.yul\":4734:4740   */\n      dup5\n        /* \"#utility.yul\":4729:4732   */\n      dup5\n        /* \"#utility.yul\":4725:4741   */\n      add\n        /* \"#utility.yul\":4722:4747   */\n      gt\n        /* \"#utility.yul\":4719:4831   */\n      iszero\n      tag_330\n      jumpi\n        /* \"#utility.yul\":4750:4829   */\n      tag_331\n      tag_219\n      jump\t// in\n    tag_331:\n        /* \"#utility.yul\":4719:4831   */\n    tag_330:\n        /* \"#utility.yul\":4840:4894   */\n      tag_332\n        /* \"#utility.yul\":4887:4893   */\n      dup5\n        /* \"#utility.yul\":4882:4885   */\n      dup3\n        /* \"#utility.yul\":4877:4880   */\n      dup6\n        /* \"#utility.yul\":4840:4894   */\n      tag_225\n      jump\t// in\n    tag_332:\n        /* \"#utility.yul\":4559:4900   */\n      pop\n        /* \"#utility.yul\":4475:4900   */\n      swap4\n      swap3\n      pop\n      pop\n      pop\n      jump\t// out\n        /* \"#utility.yul\":4920:5260   */\n    tag_227:\n        /* \"#utility.yul\":4976:4981   */\n      0x00\n        /* \"#utility.yul\":5025:5028   */\n      dup3\n        /* \"#utility.yul\":5018:5022   */\n      0x1f\n        /* \"#utility.yul\":5010:5016   */\n      dup4\n        /* \"#utility.yul\":5006:5023   */\n      add\n        /* \"#utility.yul\":5002:5029   */\n      slt\n        /* \"#utility.yul\":4992:5114   */\n      tag_334\n      jumpi\n        /* \"#utility.yul\":5033:5112   */\n      tag_335\n      tag_218\n      jump\t// in\n    tag_335:\n        /* \"#utility.yul\":4992:5114   */\n    tag_334:\n        /* \"#utility.yul\":5150:5156   */\n      dup2\n        /* \"#utility.yul\":5137:5157   */\n      calldataload\n        /* \"#utility.yul\":5175:5254   */\n      tag_336\n        /* \"#utility.yul\":5250:5253   */\n      dup5\n        /* \"#utility.yul\":5242:5248   */\n      dup3\n        /* \"#utility.yul\":5235:5239   */\n      0x20\n        /* \"#utility.yul\":5227:5233   */\n      dup7\n        /* \"#utility.yul\":5223:5240   */\n      add\n        /* \"#utility.yul\":5175:5254   */\n      tag_226\n      jump\t// in\n    tag_336:\n        /* \"#utility.yul\":5166:5254   */\n      swap2\n      pop\n        /* \"#utility.yul\":4982:5260   */\n      pop\n        /* \"#utility.yul\":4920:5260   */\n      swap3\n      swap2\n      pop\n      pop\n      jump\t// out\n        /* \"#utility.yul\":5266:6100   */\n    tag_48:\n        /* \"#utility.yul\":5354:5360   */\n      0x00\n        /* \"#utility.yul\":5362:5368   */\n      dup1\n        /* \"#utility.yul\":5411:5413   */\n      0x40\n        /* \"#utility.yul\":5399:5408   */\n      dup4\n        /* \"#utility.yul\":5390:5397   */\n      dup6\n        /* \"#utility.yul\":5386:5409   */\n      sub\n        /* \"#utility.yul\":5382:5414   */\n      slt\n        /* \"#utility.yul\":5379:5498   */\n      iszero\n      tag_338\n      jumpi\n        /* \"#utility.yul\":5417:5496   */\n      tag_339\n      tag_207\n      jump\t// in\n    tag_339:\n        /* \"#utility.yul\":5379:5498   */\n    tag_338:\n        /* \"#utility.yul\":5565:5566   */\n      0x00\n        /* \"#utility.yul\":5554:5563   */\n      dup4\n        /* \"#utility.yul\":5550:5567   */\n      add\n        /* \"#utility.yul\":5537:5568   */\n      calldataload\n        /* \"#utility.yul\":5595:5613   */\n      0xffffffffffffffff\n        /* \"#utility.yul\":5587:5593   */\n      dup2\n        /* \"#utility.yul\":5584:5614   */\n      gt\n        /* \"#utility.yul\":5581:5698   */\n      iszero\n      tag_340\n      jumpi\n        /* \"#utility.yul\":5617:5696   */\n      tag_341\n      tag_208\n      jump\t// in\n    tag_341:\n        /* \"#utility.yul\":5581:5698   */\n    tag_340:\n        /* \"#utility.yul\":5722:5785   */\n      tag_342\n        /* \"#utility.yul\":5777:5784   */\n      dup6\n        /* \"#utility.yul\":5768:5774   */\n      dup3\n        /* \"#utility.yul\":5757:5766   */\n      dup7\n        /* \"#utility.yul\":5753:5775   */\n      add\n        /* \"#utility.yul\":5722:5785   */\n      tag_227\n      jump\t// in\n    tag_342:\n        /* \"#utility.yul\":5712:5785   */\n      swap3\n      pop\n        /* \"#utility.yul\":5508:5795   */\n      pop\n        /* \"#utility.yul\":5862:5864   */\n      0x20\n        /* \"#utility.yul\":5851:5860   */\n      dup4\n        /* \"#utility.yul\":5847:5865   */\n      add\n        /* \"#utility.yul\":5834:5866   */\n      calldataload\n        /* \"#utility.yul\":5893:5911   */\n      0xffffffffffffffff\n        /* \"#utility.yul\":5885:5891   */\n      dup2\n        /* \"#utility.yul\":5882:5912   */\n      gt\n        /* \"#utility.yul\":5879:5996   */\n      iszero\n      tag_343\n      jumpi\n        /* \"#utility.yul\":5915:5994   */\n      tag_344\n      tag_208\n      jump\t// in\n    tag_344:\n        /* \"#utility.yul\":5879:5996   */\n    tag_343:\n        /* \"#utility.yul\":6020:6083   */\n      tag_345\n        /* \"#utility.yul\":6075:6082   */\n      dup6\n        /* \"#utility.yul\":6066:6072   */\n      dup3\n        /* \"#utility.yul\":6055:6064   */\n      dup7\n        /* \"#utility.yul\":6051:6073   */\n      add\n        /* \"#utility.yul\":6020:6083   */\n      tag_227\n      jump\t// in\n    tag_345:\n        /* \"#utility.yul\":6010:6083   */\n      swap2\n      pop\n        /* \"#utility.yul\":5805:6093   */\n      pop\n        /* \"#utility.yul\":5266:6100   */\n      swap3\n      pop\n      swap3\n      swap1\n      pop\n      jump\t// out\n        /* \"#utility.yul\":6106:6196   */\n    tag_228:\n        /* \"#utility.yul\":6140:6147   */\n      0x00\n        /* \"#utility.yul\":6183:6188   */\n      dup2\n        /* \"#utility.yul\":6176:6189   */\n      iszero\n        /* \"#utility.yul\":6169:6190   */\n      iszero\n        /* \"#utility.yul\":6158:6190   */\n      swap1\n      pop\n        /* \"#utility.yul\":6106:6196   */\n      swap2\n      swap1\n      pop\n      jump\t// out\n        /* \"#utility.yul\":6202:6311   */\n    tag_229:\n        /* \"#utility.yul\":6283:6304   */\n      tag_348\n        /* \"#utility.yul\":6298:6303   */\n      dup2\n        /* \"#utility.yul\":6283:6304   */\n      tag_228\n      jump\t// in\n    tag_348:\n        /* \"#utility.yul\":6278:6281   */\n      dup3\n        /* \"#utility.yul\":6271:6305   */\n      mstore\n        /* \"#utility.yul\":6202:6311   */\n      pop\n      pop\n      jump\t// out\n        /* \"#utility.yul\":6317:6527   */\n    tag_58:\n        /* \"#utility.yul\":6404:6408   */\n      0x00\n        /* \"#utility.yul\":6442:6444   */\n      0x20\n        /* \"#utility.yul\":6431:6440   */\n      dup3\n        /* \"#utility.yul\":6427:6445   */\n      add\n        /* \"#utility.yul\":6419:6445   */\n      swap1\n      pop\n        /* \"#utility.yul\":6455:6520   */\n      tag_350\n        /* \"#utility.yul\":6517:6518   */\n      0x00\n        /* \"#utility.yul\":6506:6515   */\n      dup4\n        /* \"#utility.yul\":6502:6519   */\n      add\n        /* \"#utility.yul\":6493:6499   */\n      dup5\n        /* \"#utility.yul\":6455:6520   */\n      tag_229\n      jump\t// in\n    tag_350:\n        /* \"#utility.yul\":6317:6527   */\n      swap3\n      swap2\n      pop\n      pop\n      jump\t// out\n        /* \"#utility.yul\":6533:6632   */\n    tag_230:\n        /* \"#utility.yul\":6585:6591   */\n      0x00\n        /* \"#utility.yul\":6619:6624   */\n      dup2\n        /* \"#utility.yul\":6613:6625   */\n      mload\n        /* \"#utility.yul\":6603:6625   */\n      swap1\n      pop\n        /* \"#utility.yul\":6533:6632   */\n      swap2\n      swap1\n      pop\n      jump\t// out\n        /* \"#utility.yul\":6638:6807   */\n    tag_231:\n        /* \"#utility.yul\":6722:6733   */\n      0x00\n        /* \"#utility.yul\":6756:6762   */\n      dup3\n        /* \"#utility.yul\":6751:6754   */\n      dup3\n        /* \"#utility.yul\":6744:6763   */\n      mstore\n        /* \"#utility.yul\":6796:6800   */\n      0x20\n        /* \"#utility.yul\":6791:6794   */\n      dup3\n        /* \"#utility.yul\":6787:6801   */\n      add\n        /* \"#utility.yul\":6772:6801   */\n      swap1\n      pop\n        /* \"#utility.yul\":6638:6807   */\n      swap3\n      swap2\n      pop\n      pop\n      jump\t// out\n        /* \"#utility.yul\":6813:7059   */\n    tag_232:\n        /* \"#utility.yul\":6894:6895   */\n      0x00\n        /* \"#utility.yul\":6904:7017   */\n    tag_354:\n        /* \"#utility.yul\":6918:6924   */\n      dup4\n        /* \"#utility.yul\":6915:6916   */\n      dup2\n        /* \"#utility.yul\":6912:6925   */\n      lt\n        /* \"#utility.yul\":6904:7017   */\n      iszero\n      tag_356\n      jumpi\n        /* \"#utility.yul\":7003:7004   */\n      dup1\n        /* \"#utility.yul\":6998:7001   */\n      dup3\n        /* \"#utility.yul\":6994:7005   */\n      add\n        /* \"#utility.yul\":6988:7006   */\n      mload\n        /* \"#utility.yul\":6984:6985   */\n      dup2\n        /* \"#utility.yul\":6979:6982   */\n      dup5\n        /* \"#utility.yul\":6975:6986   */\n      add\n        /* \"#utility.yul\":6968:7007   */\n      mstore\n        /* \"#utility.yul\":6940:6942   */\n      0x20\n        /* \"#utility.yul\":6937:6938   */\n      dup2\n        /* \"#utility.yul\":6933:6943   */\n      add\n        /* \"#utility.yul\":6928:6943   */\n      swap1\n      pop\n        /* \"#utility.yul\":6904:7017   */\n      jump(tag_354)\n    tag_356:\n        /* \"#utility.yul\":7051:7052   */\n      0x00\n        /* \"#utility.yul\":7042:7048   */\n      dup5\n        /* \"#utility.yul\":7037:7040   */\n      dup5\n        /* \"#utility.yul\":7033:7049   */\n      add\n        /* \"#utility.yul\":7026:7053   */\n      mstore\n        /* \"#utility.yul\":6875:7059   */\n      pop\n        /* \"#utility.yul\":6813:7059   */\n      pop\n      pop\n      pop\n      jump\t// out\n        /* \"#utility.yul\":7065:7442   */\n    tag_233:\n        /* \"#utility.yul\":7153:7156   */\n      0x00\n        /* \"#utility.yul\":7181:7220   */\n      tag_358\n        /* \"#utility.yul\":7214:7219   */\n      dup3\n        /* \"#utility.yul\":7181:7220   */\n      tag_230\n      jump\t// in\n    tag_358:\n        /* \"#utility.yul\":7236:7307   */\n      tag_359\n        /* \"#utility.yul\":7300:7306   */\n      dup2\n        /* \"#utility.yul\":7295:7298   */\n      dup6\n        /* \"#utility.yul\":7236:7307   */\n      tag_231\n      jump\t// in\n    tag_359:\n        /* \"#utility.yul\":7229:7307   */\n      swap4\n      pop\n        /* \"#utility.yul\":7316:7381   */\n      tag_360\n        /* \"#utility.yul\":7374:7380   */\n      dup2\n        /* \"#utility.yul\":7369:7372   */\n      dup6\n        /* \"#utility.yul\":7362:7366   */\n      0x20\n        /* \"#utility.yul\":7355:7360   */\n      dup7\n        /* \"#utility.yul\":7351:7367   */\n      add\n        /* \"#utility.yul\":7316:7381   */\n      tag_232\n      jump\t// in\n    tag_360:\n        /* \"#utility.yul\":7406:7435   */\n      tag_361\n        /* \"#utility.yul\":7428:7434   */\n      dup2\n        /* \"#utility.yul\":7406:7435   */\n      tag_220\n      jump\t// in\n    tag_361:\n        /* \"#utility.yul\":7401:7404   */\n      dup5\n        /* \"#utility.yul\":7397:7436   */\n      add\n        /* \"#utility.yul\":7390:7436   */\n      swap2\n      pop\n        /* \"#utility.yul\":7157:7442   */\n      pop\n        /* \"#utility.yul\":7065:7442   */\n      swap3\n      swap2\n      pop\n      pop\n      jump\t// out\n        /* \"#utility.yul\":7448:7761   */\n    tag_63:\n        /* \"#utility.yul\":7561:7565   */\n      0x00\n        /* \"#utility.yul\":7599:7601   */\n      0x20\n        /* \"#utility.yul\":7588:7597   */\n      dup3\n        /* \"#utility.yul\":7584:7602   */\n      add\n        /* \"#utility.yul\":7576:7602   */\n      swap1\n      pop\n        /* \"#utility.yul\":7648:7657   */\n      dup2\n        /* \"#utility.yul\":7642:7646   */\n      dup2\n        /* \"#utility.yul\":7638:7658   */\n      sub\n        /* \"#utility.yul\":7634:7635   */\n      0x00\n        /* \"#utility.yul\":7623:7632   */\n      dup4\n        /* \"#utility.yul\":7619:7636   */\n      add\n        /* \"#utility.yul\":7612:7659   */\n      mstore\n        /* \"#utility.yul\":7676:7754   */\n      tag_363\n        /* \"#utility.yul\":7749:7753   */\n      dup2\n        /* \"#utility.yul\":7740:7746   */\n      dup5\n        /* \"#utility.yul\":7676:7754   */\n      tag_233\n      jump\t// in\n    tag_363:\n        /* \"#utility.yul\":7668:7754   */\n      swap1\n      pop\n        /* \"#utility.yul\":7448:7761   */\n      swap3\n      swap2\n      pop\n      pop\n      jump\t// out\n        /* \"#utility.yul\":7767:7875   */\n    tag_234:\n        /* \"#utility.yul\":7844:7868   */\n      tag_365\n        /* \"#utility.yul\":7862:7867   */\n      dup2\n        /* \"#utility.yul\":7844:7868   */\n      tag_213\n      jump\t// in\n    tag_365:\n        /* \"#utility.yul\":7839:7842   */\n      dup3\n        /* \"#utility.yul\":7832:7869   */\n      mstore\n        /* \"#utility.yul\":7767:7875   */\n      pop\n      pop\n      jump\t// out\n        /* \"#utility.yul\":7881:7989   */\n    tag_235:\n        /* \"#utility.yul\":7958:7982   */\n      tag_367\n        /* \"#utility.yul\":7976:7981   */\n      dup2\n        /* \"#utility.yul\":7958:7982   */\n      tag_209\n      jump\t// in\n    tag_367:\n        /* \"#utility.yul\":7953:7956   */\n      dup3\n        /* \"#utility.yul\":7946:7983   */\n      mstore\n        /* \"#utility.yul\":7881:7989   */\n      pop\n      pop\n      jump\t// out\n        /* \"#utility.yul\":8069:8953   */\n    tag_236:\n        /* \"#utility.yul\":8224:8228   */\n      0x80\n        /* \"#utility.yul\":8219:8222   */\n      dup3\n        /* \"#utility.yul\":8215:8229   */\n      add\n        /* \"#utility.yul\":8319:8323   */\n      0x00\n        /* \"#utility.yul\":8312:8317   */\n      dup3\n        /* \"#utility.yul\":8308:8324   */\n      add\n        /* \"#utility.yul\":8302:8325   */\n      mload\n        /* \"#utility.yul\":8338:8401   */\n      tag_369\n        /* \"#utility.yul\":8395:8399   */\n      0x00\n        /* \"#utility.yul\":8390:8393   */\n      dup6\n        /* \"#utility.yul\":8386:8400   */\n      add\n        /* \"#utility.yul\":8372:8384   */\n      dup3\n        /* \"#utility.yul\":8338:8401   */\n      tag_234\n      jump\t// in\n    tag_369:\n        /* \"#utility.yul\":8239:8411   */\n      pop\n        /* \"#utility.yul\":8499:8503   */\n      0x20\n        /* \"#utility.yul\":8492:8497   */\n      dup3\n        /* \"#utility.yul\":8488:8504   */\n      add\n        /* \"#utility.yul\":8482:8505   */\n      mload\n        /* \"#utility.yul\":8518:8581   */\n      tag_370\n        /* \"#utility.yul\":8575:8579   */\n      0x20\n        /* \"#utility.yul\":8570:8573   */\n      dup6\n        /* \"#utility.yul\":8566:8580   */\n      add\n        /* \"#utility.yul\":8552:8564   */\n      dup3\n        /* \"#utility.yul\":8518:8581   */\n      tag_234\n      jump\t// in\n    tag_370:\n        /* \"#utility.yul\":8421:8591   */\n      pop\n        /* \"#utility.yul\":8675:8679   */\n      0x40\n        /* \"#utility.yul\":8668:8673   */\n      dup3\n        /* \"#utility.yul\":8664:8680   */\n      add\n        /* \"#utility.yul\":8658:8681   */\n      mload\n        /* \"#utility.yul\":8694:8757   */\n      tag_371\n        /* \"#utility.yul\":8751:8755   */\n      0x40\n        /* \"#utility.yul\":8746:8749   */\n      dup6\n        /* \"#utility.yul\":8742:8756   */\n      add\n        /* \"#utility.yul\":8728:8740   */\n      dup3\n        /* \"#utility.yul\":8694:8757   */\n      tag_235\n      jump\t// in\n    tag_371:\n        /* \"#utility.yul\":8601:8767   */\n      pop\n        /* \"#utility.yul\":8854:8858   */\n      0x60\n        /* \"#utility.yul\":8847:8852   */\n      dup3\n        /* \"#utility.yul\":8843:8859   */\n      add\n        /* \"#utility.yul\":8837:8860   */\n      mload\n        /* \"#utility.yul\":8873:8936   */\n      tag_372\n        /* \"#utility.yul\":8930:8934   */\n      0x60\n        /* \"#utility.yul\":8925:8928   */\n      dup6\n        /* \"#utility.yul\":8921:8935   */\n      add\n        /* \"#utility.yul\":8907:8919   */\n      dup3\n        /* \"#utility.yul\":8873:8936   */\n      tag_235\n      jump\t// in\n    tag_372:\n        /* \"#utility.yul\":8777:8946   */\n      pop\n        /* \"#utility.yul\":8193:8953   */\n      pop\n        /* \"#utility.yul\":8069:8953   */\n      pop\n      pop\n      jump\t// out\n        /* \"#utility.yul\":8959:9298   */\n    tag_69:\n        /* \"#utility.yul\":9110:9114   */\n      0x00\n        /* \"#utility.yul\":9148:9151   */\n      0x80\n        /* \"#utility.yul\":9137:9146   */\n      dup3\n        /* \"#utility.yul\":9133:9152   */\n      add\n        /* \"#utility.yul\":9125:9152   */\n      swap1\n      pop\n        /* \"#utility.yul\":9162:9291   */\n      tag_374\n        /* \"#utility.yul\":9288:9289   */\n      0x00\n        /* \"#utility.yul\":9277:9286   */\n      dup4\n        /* \"#utility.yul\":9273:9290   */\n      add\n        /* \"#utility.yul\":9264:9270   */\n      dup5\n        /* \"#utility.yul\":9162:9291   */\n      tag_236\n      jump\t// in\n    tag_374:\n        /* \"#utility.yul\":8959:9298   */\n      swap3\n      swap2\n      pop\n      pop\n      jump\t// out\n        /* \"#utility.yul\":9304:9447   */\n    tag_237:\n        /* \"#utility.yul\":9400:9406   */\n      0x00\n        /* \"#utility.yul\":9434:9439   */\n      dup2\n        /* \"#utility.yul\":9428:9440   */\n      mload\n        /* \"#utility.yul\":9418:9440   */\n      swap1\n      pop\n        /* \"#utility.yul\":9304:9447   */\n      swap2\n      swap1\n      pop\n      jump\t// out\n        /* \"#utility.yul\":9453:9666   */\n    tag_238:\n        /* \"#utility.yul\":9581:9592   */\n      0x00\n        /* \"#utility.yul\":9615:9621   */\n      dup3\n        /* \"#utility.yul\":9610:9613   */\n      dup3\n        /* \"#utility.yul\":9603:9622   */\n      mstore\n        /* \"#utility.yul\":9655:9659   */\n      0x20\n        /* \"#utility.yul\":9650:9653   */\n      dup3\n        /* \"#utility.yul\":9646:9660   */\n      add\n        /* \"#utility.yul\":9631:9660   */\n      swap1\n      pop\n        /* \"#utility.yul\":9453:9666   */\n      swap3\n      swap2\n      pop\n      pop\n      jump\t// out\n        /* \"#utility.yul\":9672:9833   */\n    tag_239:\n        /* \"#utility.yul\":9768:9772   */\n      0x00\n        /* \"#utility.yul\":9791:9794   */\n      dup2\n        /* \"#utility.yul\":9783:9794   */\n      swap1\n      pop\n        /* \"#utility.yul\":9821:9825   */\n      0x20\n        /* \"#utility.yul\":9816:9819   */\n      dup3\n        /* \"#utility.yul\":9812:9826   */\n      add\n        /* \"#utility.yul\":9804:9826   */\n      swap1\n      pop\n        /* \"#utility.yul\":9672:9833   */\n      swap2\n      swap1\n      pop\n      jump\t// out\n        /* \"#utility.yul\":9913:10787   */\n    tag_240:\n        /* \"#utility.yul\":10058:10062   */\n      0x80\n        /* \"#utility.yul\":10053:10056   */\n      dup3\n        /* \"#utility.yul\":10049:10063   */\n      add\n        /* \"#utility.yul\":10153:10157   */\n      0x00\n        /* \"#utility.yul\":10146:10151   */\n      dup3\n        /* \"#utility.yul\":10142:10158   */\n      add\n        /* \"#utility.yul\":10136:10159   */\n      mload\n        /* \"#utility.yul\":10172:10235   */\n      tag_379\n        /* \"#utility.yul\":10229:10233   */\n      0x00\n        /* \"#utility.yul\":10224:10227   */\n      dup6\n        /* \"#utility.yul\":10220:10234   */\n      add\n        /* \"#utility.yul\":10206:10218   */\n      dup3\n        /* \"#utility.yul\":10172:10235   */\n      tag_234\n      jump\t// in\n    tag_379:\n        /* \"#utility.yul\":10073:10245   */\n      pop\n        /* \"#utility.yul\":10333:10337   */\n      0x20\n        /* \"#utility.yul\":10326:10331   */\n      dup3\n        /* \"#utility.yul\":10322:10338   */\n      add\n        /* \"#utility.yul\":10316:10339   */\n      mload\n        /* \"#utility.yul\":10352:10415   */\n      tag_380\n        /* \"#utility.yul\":10409:10413   */\n      0x20\n        /* \"#utility.yul\":10404:10407   */\n      dup6\n        /* \"#utility.yul\":10400:10414   */\n      add\n        /* \"#utility.yul\":10386:10398   */\n      dup3\n        /* \"#utility.yul\":10352:10415   */\n      tag_234\n      jump\t// in\n    tag_380:\n        /* \"#utility.yul\":10255:10425   */\n      pop\n        /* \"#utility.yul\":10509:10513   */\n      0x40\n        /* \"#utility.yul\":10502:10507   */\n      dup3\n        /* \"#utility.yul\":10498:10514   */\n      add\n        /* \"#utility.yul\":10492:10515   */\n      mload\n        /* \"#utility.yul\":10528:10591   */\n      tag_381\n        /* \"#utility.yul\":10585:10589   */\n      0x40\n        /* \"#utility.yul\":10580:10583   */\n      dup6\n        /* \"#utility.yul\":10576:10590   */\n      add\n        /* \"#utility.yul\":10562:10574   */\n      dup3\n        /* \"#utility.yul\":10528:10591   */\n      tag_235\n      jump\t// in\n    tag_381:\n        /* \"#utility.yul\":10435:10601   */\n      pop\n        /* \"#utility.yul\":10688:10692   */\n      0x60\n        /* \"#utility.yul\":10681:10686   */\n      dup3\n        /* \"#utility.yul\":10677:10693   */\n      add\n        /* \"#utility.yul\":10671:10694   */\n      mload\n        /* \"#utility.yul\":10707:10770   */\n      tag_382\n        /* \"#utility.yul\":10764:10768   */\n      0x60\n        /* \"#utility.yul\":10759:10762   */\n      dup6\n        /* \"#utility.yul\":10755:10769   */\n      add\n        /* \"#utility.yul\":10741:10753   */\n      dup3\n        /* \"#utility.yul\":10707:10770   */\n      tag_235\n      jump\t// in\n    tag_382:\n        /* \"#utility.yul\":10611:10780   */\n      pop\n        /* \"#utility.yul\":10027:10787   */\n      pop\n        /* \"#utility.yul\":9913:10787   */\n      pop\n      pop\n      jump\t// out\n        /* \"#utility.yul\":10793:11088   */\n    tag_241:\n        /* \"#utility.yul\":10920:10930   */\n      0x00\n        /* \"#utility.yul\":10941:11045   */\n      tag_384\n        /* \"#utility.yul\":11041:11044   */\n      dup4\n        /* \"#utility.yul\":11033:11039   */\n      dup4\n        /* \"#utility.yul\":10941:11045   */\n      tag_240\n      jump\t// in\n    tag_384:\n        /* \"#utility.yul\":11077:11081   */\n      0x80\n        /* \"#utility.yul\":11072:11075   */\n      dup4\n        /* \"#utility.yul\":11068:11082   */\n      add\n        /* \"#utility.yul\":11054:11082   */\n      swap1\n      pop\n        /* \"#utility.yul\":10793:11088   */\n      swap3\n      swap2\n      pop\n      pop\n      jump\t// out\n        /* \"#utility.yul\":11094:11236   */\n    tag_242:\n        /* \"#utility.yul\":11193:11197   */\n      0x00\n        /* \"#utility.yul\":11225:11229   */\n      0x20\n        /* \"#utility.yul\":11220:11223   */\n      dup3\n        /* \"#utility.yul\":11216:11230   */\n      add\n        /* \"#utility.yul\":11208:11230   */\n      swap1\n      pop\n        /* \"#utility.yul\":11094:11236   */\n      swap2\n      swap1\n      pop\n      jump\t// out\n        /* \"#utility.yul\":11320:12284   */\n    tag_243:\n        /* \"#utility.yul\":11497:11500   */\n      0x00\n        /* \"#utility.yul\":11526:11609   */\n      tag_387\n        /* \"#utility.yul\":11603:11608   */\n      dup3\n        /* \"#utility.yul\":11526:11609   */\n      tag_237\n      jump\t// in\n    tag_387:\n        /* \"#utility.yul\":11625:11740   */\n      tag_388\n        /* \"#utility.yul\":11733:11739   */\n      dup2\n        /* \"#utility.yul\":11728:11731   */\n      dup6\n        /* \"#utility.yul\":11625:11740   */\n      tag_238\n      jump\t// in\n    tag_388:\n        /* \"#utility.yul\":11618:11740   */\n      swap4\n      pop\n        /* \"#utility.yul\":11764:11849   */\n      tag_389\n        /* \"#utility.yul\":11843:11848   */\n      dup4\n        /* \"#utility.yul\":11764:11849   */\n      tag_239\n      jump\t// in\n    tag_389:\n        /* \"#utility.yul\":11872:11879   */\n      dup1\n        /* \"#utility.yul\":11903:11904   */\n      0x00\n        /* \"#utility.yul\":11888:12259   */\n    tag_390:\n        /* \"#utility.yul\":11913:11919   */\n      dup4\n        /* \"#utility.yul\":11910:11911   */\n      dup2\n        /* \"#utility.yul\":11907:11920   */\n      lt\n        /* \"#utility.yul\":11888:12259   */\n      iszero\n      tag_392\n      jumpi\n        /* \"#utility.yul\":11989:11995   */\n      dup2\n        /* \"#utility.yul\":11983:11996   */\n      mload\n        /* \"#utility.yul\":12016:12137   */\n      tag_393\n        /* \"#utility.yul\":12133:12136   */\n      dup9\n        /* \"#utility.yul\":12118:12131   */\n      dup3\n        /* \"#utility.yul\":12016:12137   */\n      tag_241\n      jump\t// in\n    tag_393:\n        /* \"#utility.yul\":12009:12137   */\n      swap8\n      pop\n        /* \"#utility.yul\":12160:12249   */\n      tag_394\n        /* \"#utility.yul\":12242:12248   */\n      dup4\n        /* \"#utility.yul\":12160:12249   */\n      tag_242\n      jump\t// in\n    tag_394:\n        /* \"#utility.yul\":12150:12249   */\n      swap3\n      pop\n        /* \"#utility.yul\":11948:12259   */\n      pop\n        /* \"#utility.yul\":11935:11936   */\n      0x01\n        /* \"#utility.yul\":11932:11933   */\n      dup2\n        /* \"#utility.yul\":11928:11937   */\n      add\n        /* \"#utility.yul\":11923:11937   */\n      swap1\n      pop\n        /* \"#utility.yul\":11888:12259   */\n      jump(tag_390)\n    tag_392:\n        /* \"#utility.yul\":11892:11906   */\n      pop\n        /* \"#utility.yul\":12275:12278   */\n      dup6\n        /* \"#utility.yul\":12268:12278   */\n      swap4\n      pop\n        /* \"#utility.yul\":11502:12284   */\n      pop\n      pop\n      pop\n        /* \"#utility.yul\":11320:12284   */\n      swap3\n      swap2\n      pop\n      pop\n      jump\t// out\n        /* \"#utility.yul\":12290:12779   */\n    tag_99:\n        /* \"#utility.yul\":12491:12495   */\n      0x00\n        /* \"#utility.yul\":12529:12531   */\n      0x20\n        /* \"#utility.yul\":12518:12527   */\n      dup3\n        /* \"#utility.yul\":12514:12532   */\n      add\n        /* \"#utility.yul\":12506:12532   */\n      swap1\n      pop\n        /* \"#utility.yul\":12578:12587   */\n      dup2\n        /* \"#utility.yul\":12572:12576   */\n      dup2\n        /* \"#utility.yul\":12568:12588   */\n      sub\n        /* \"#utility.yul\":12564:12565   */\n      0x00\n        /* \"#utility.yul\":12553:12562   */\n      dup4\n        /* \"#utility.yul\":12549:12566   */\n      add\n        /* \"#utility.yul\":12542:12589   */\n      mstore\n        /* \"#utility.yul\":12606:12772   */\n      tag_396\n        /* \"#utility.yul\":12767:12771   */\n      dup2\n        /* \"#utility.yul\":12758:12764   */\n      dup5\n        /* \"#utility.yul\":12606:12772   */\n      tag_243\n      jump\t// in\n    tag_396:\n        /* \"#utility.yul\":12598:12772   */\n      swap1\n      pop\n        /* \"#utility.yul\":12290:12779   */\n      swap3\n      swap2\n      pop\n      pop\n      jump\t// out\n        /* \"#utility.yul\":12785:12962   */\n    tag_244:\n        /* \"#utility.yul\":12925:12954   */\n      0x54686973206164647265737320646f65736e2774206578697374730000000000\n        /* \"#utility.yul\":12921:12922   */\n      0x00\n        /* \"#utility.yul\":12913:12919   */\n      dup3\n        /* \"#utility.yul\":12909:12923   */\n      add\n        /* \"#utility.yul\":12902:12955   */\n      mstore\n        /* \"#utility.yul\":12785:12962   */\n      pop\n      jump\t// out\n        /* \"#utility.yul\":12968:13334   */\n    tag_245:\n        /* \"#utility.yul\":13110:13113   */\n      0x00\n        /* \"#utility.yul\":13131:13198   */\n      tag_399\n        /* \"#utility.yul\":13195:13197   */\n      0x1b\n        /* \"#utility.yul\":13190:13193   */\n      dup4\n        /* \"#utility.yul\":13131:13198   */\n      tag_231\n      jump\t// in\n    tag_399:\n        /* \"#utility.yul\":13124:13198   */\n      swap2\n      pop\n        /* \"#utility.yul\":13207:13300   */\n      tag_400\n        /* \"#utility.yul\":13296:13299   */\n      dup3\n        /* \"#utility.yul\":13207:13300   */\n      tag_244\n      jump\t// in\n    tag_400:\n        /* \"#utility.yul\":13325:13327   */\n      0x20\n        /* \"#utility.yul\":13320:13323   */\n      dup3\n        /* \"#utility.yul\":13316:13328   */\n      add\n        /* \"#utility.yul\":13309:13328   */\n      swap1\n      pop\n        /* \"#utility.yul\":12968:13334   */\n      swap2\n      swap1\n      pop\n      jump\t// out\n        /* \"#utility.yul\":13340:13759   */\n    tag_120:\n        /* \"#utility.yul\":13506:13510   */\n      0x00\n        /* \"#utility.yul\":13544:13546   */\n      0x20\n        /* \"#utility.yul\":13533:13542   */\n      dup3\n        /* \"#utility.yul\":13529:13547   */\n      add\n        /* \"#utility.yul\":13521:13547   */\n      swap1\n      pop\n        /* \"#utility.yul\":13593:13602   */\n      dup2\n        /* \"#utility.yul\":13587:13591   */\n      dup2\n        /* \"#utility.yul\":13583:13603   */\n      sub\n        /* \"#utility.yul\":13579:13580   */\n      0x00\n        /* \"#utility.yul\":13568:13577   */\n      dup4\n        /* \"#utility.yul\":13564:13581   */\n      add\n        /* \"#utility.yul\":13557:13604   */\n      mstore\n        /* \"#utility.yul\":13621:13752   */\n      tag_402\n        /* \"#utility.yul\":13747:13751   */\n      dup2\n        /* \"#utility.yul\":13621:13752   */\n      tag_245\n      jump\t// in\n    tag_402:\n        /* \"#utility.yul\":13613:13752   */\n      swap1\n      pop\n        /* \"#utility.yul\":13340:13759   */\n      swap2\n      swap1\n      pop\n      jump\t// out\n        /* \"#utility.yul\":13765:13938   */\n    tag_246:\n        /* \"#utility.yul\":13905:13930   */\n      0x506c6561736520696e7365727420796f75722063617264000000000000000000\n        /* \"#utility.yul\":13901:13902   */\n      0x00\n        /* \"#utility.yul\":13893:13899   */\n      dup3\n        /* \"#utility.yul\":13889:13903   */\n      add\n        /* \"#utility.yul\":13882:13931   */\n      mstore\n        /* \"#utility.yul\":13765:13938   */\n      pop\n      jump\t// out\n        /* \"#utility.yul\":13944:14310   */\n    tag_247:\n        /* \"#utility.yul\":14086:14089   */\n      0x00\n        /* \"#utility.yul\":14107:14174   */\n      tag_405\n        /* \"#utility.yul\":14171:14173   */\n      0x17\n        /* \"#utility.yul\":14166:14169   */\n      dup4\n        /* \"#utility.yul\":14107:14174   */\n      tag_231\n      jump\t// in\n    tag_405:\n        /* \"#utility.yul\":14100:14174   */\n      swap2\n      pop\n        /* \"#utility.yul\":14183:14276   */\n      tag_406\n        /* \"#utility.yul\":14272:14275   */\n      dup3\n        /* \"#utility.yul\":14183:14276   */\n      tag_246\n      jump\t// in\n    tag_406:\n        /* \"#utility.yul\":14301:14303   */\n      0x20\n        /* \"#utility.yul\":14296:14299   */\n      dup3\n        /* \"#utility.yul\":14292:14304   */\n      add\n        /* \"#utility.yul\":14285:14304   */\n      swap1\n      pop\n        /* \"#utility.yul\":13944:14310   */\n      swap2\n      swap1\n      pop\n      jump\t// out\n        /* \"#utility.yul\":14316:14735   */\n    tag_124:\n        /* \"#utility.yul\":14482:14486   */\n      0x00\n        /* \"#utility.yul\":14520:14522   */\n      0x20\n        /* \"#utility.yul\":14509:14518   */\n      dup3\n        /* \"#utility.yul\":14505:14523   */\n      add\n        /* \"#utility.yul\":14497:14523   */\n      swap1\n      pop\n        /* \"#utility.yul\":14569:14578   */\n      dup2\n        /* \"#utility.yul\":14563:14567   */\n      dup2\n        /* \"#utility.yul\":14559:14579   */\n      sub\n        /* \"#utility.yul\":14555:14556   */\n      0x00\n        /* \"#utility.yul\":14544:14553   */\n      dup4\n        /* \"#utility.yul\":14540:14557   */\n      add\n        /* \"#utility.yul\":14533:14580   */\n      mstore\n        /* \"#utility.yul\":14597:14728   */\n      tag_408\n        /* \"#utility.yul\":14723:14727   */\n      dup2\n        /* \"#utility.yul\":14597:14728   */\n      tag_247\n      jump\t// in\n    tag_408:\n        /* \"#utility.yul\":14589:14728   */\n      swap1\n      pop\n        /* \"#utility.yul\":14316:14735   */\n      swap2\n      swap1\n      pop\n      jump\t// out\n        /* \"#utility.yul\":14741:14921   */\n    tag_248:\n        /* \"#utility.yul\":14789:14866   */\n      0x4e487b7100000000000000000000000000000000000000000000000000000000\n        /* \"#utility.yul\":14786:14787   */\n      0x00\n        /* \"#utility.yul\":14779:14867   */\n      mstore\n        /* \"#utility.yul\":14886:14890   */\n      0x11\n        /* \"#utility.yul\":14883:14884   */\n      0x04\n        /* \"#utility.yul\":14876:14891   */\n      mstore\n        /* \"#utility.yul\":14910:14914   */\n      0x24\n        /* \"#utility.yul\":14907:14908   */\n      0x00\n        /* \"#utility.yul\":14900:14915   */\n      revert\n        /* \"#utility.yul\":14927:15118   */\n    tag_128:\n        /* \"#utility.yul\":14967:14970   */\n      0x00\n        /* \"#utility.yul\":14986:15006   */\n      tag_411\n        /* \"#utility.yul\":15004:15005   */\n      dup3\n        /* \"#utility.yul\":14986:15006   */\n      tag_209\n      jump\t// in\n    tag_411:\n        /* \"#utility.yul\":14981:15006   */\n      swap2\n      pop\n        /* \"#utility.yul\":15020:15040   */\n      tag_412\n        /* \"#utility.yul\":15038:15039   */\n      dup4\n        /* \"#utility.yul\":15020:15040   */\n      tag_209\n      jump\t// in\n    tag_412:\n        /* \"#utility.yul\":15015:15040   */\n      swap3\n      pop\n        /* \"#utility.yul\":15063:15064   */\n      dup3\n        /* \"#utility.yul\":15060:15061   */\n      dup3\n        /* \"#utility.yul\":15056:15065   */\n      add\n        /* \"#utility.yul\":15049:15065   */\n      swap1\n      pop\n        /* \"#utility.yul\":15084:15087   */\n      dup1\n        /* \"#utility.yul\":15081:15082   */\n      dup3\n        /* \"#utility.yul\":15078:15088   */\n      gt\n        /* \"#utility.yul\":15075:15111   */\n      iszero\n      tag_413\n      jumpi\n        /* \"#utility.yul\":15091:15109   */\n      tag_414\n      tag_248\n      jump\t// in\n    tag_414:\n        /* \"#utility.yul\":15075:15111   */\n    tag_413:\n        /* \"#utility.yul\":14927:15118   */\n      swap3\n      swap2\n      pop\n      pop\n      jump\t// out\n        /* \"#utility.yul\":15124:15304   */\n    tag_132:\n        /* \"#utility.yul\":15172:15249   */\n      0x4e487b7100000000000000000000000000000000000000000000000000000000\n        /* \"#utility.yul\":15169:15170   */\n      0x00\n        /* \"#utility.yul\":15162:15250   */\n      mstore\n        /* \"#utility.yul\":15269:15273   */\n      0x01\n        /* \"#utility.yul\":15266:15267   */\n      0x04\n        /* \"#utility.yul\":15259:15274   */\n      mstore\n        /* \"#utility.yul\":15293:15297   */\n      0x24\n        /* \"#utility.yul\":15290:15291   */\n      0x00\n        /* \"#utility.yul\":15283:15298   */\n      revert\n        /* \"#utility.yul\":15310:15487   */\n    tag_249:\n        /* \"#utility.yul\":15450:15479   */\n      0x6f6e6c792035207472616e73616374696f6e7320706572206461790000000000\n        /* \"#utility.yul\":15446:15447   */\n      0x00\n        /* \"#utility.yul\":15438:15444   */\n      dup3\n        /* \"#utility.yul\":15434:15448   */\n      add\n        /* \"#utility.yul\":15427:15480   */\n      mstore\n        /* \"#utility.yul\":15310:15487   */\n      pop\n      jump\t// out\n        /* \"#utility.yul\":15493:15859   */\n    tag_250:\n        /* \"#utility.yul\":15635:15638   */\n      0x00\n        /* \"#utility.yul\":15656:15723   */\n      tag_418\n        /* \"#utility.yul\":15720:15722   */\n      0x1b\n        /* \"#utility.yul\":15715:15718   */\n      dup4\n        /* \"#utility.yul\":15656:15723   */\n      tag_231\n      jump\t// in\n    tag_418:\n        /* \"#utility.yul\":15649:15723   */\n      swap2\n      pop\n        /* \"#utility.yul\":15732:15825   */\n      tag_419\n        /* \"#utility.yul\":15821:15824   */\n      dup3\n        /* \"#utility.yul\":15732:15825   */\n      tag_249\n      jump\t// in\n    tag_419:\n        /* \"#utility.yul\":15850:15852   */\n      0x20\n        /* \"#utility.yul\":15845:15848   */\n      dup3\n        /* \"#utility.yul\":15841:15853   */\n      add\n        /* \"#utility.yul\":15834:15853   */\n      swap1\n      pop\n        /* \"#utility.yul\":15493:15859   */\n      swap2\n      swap1\n      pop\n      jump\t// out\n        /* \"#utility.yul\":15865:16284   */\n    tag_134:\n        /* \"#utility.yul\":16031:16035   */\n      0x00\n        /* \"#utility.yul\":16069:16071   */\n      0x20\n        /* \"#utility.yul\":16058:16067   */\n      dup3\n        /* \"#utility.yul\":16054:16072   */\n      add\n        /* \"#utility.yul\":16046:16072   */\n      swap1\n      pop\n        /* \"#utility.yul\":16118:16127   */\n      dup2\n        /* \"#utility.yul\":16112:16116   */\n      dup2\n        /* \"#utility.yul\":16108:16128   */\n      sub\n        /* \"#utility.yul\":16104:16105   */\n      0x00\n        /* \"#utility.yul\":16093:16102   */\n      dup4\n        /* \"#utility.yul\":16089:16106   */\n      add\n        /* \"#utility.yul\":16082:16129   */\n      mstore\n        /* \"#utility.yul\":16146:16277   */\n      tag_421\n        /* \"#utility.yul\":16272:16276   */\n      dup2\n        /* \"#utility.yul\":16146:16277   */\n      tag_250\n      jump\t// in\n    tag_421:\n        /* \"#utility.yul\":16138:16277   */\n      swap1\n      pop\n        /* \"#utility.yul\":15865:16284   */\n      swap2\n      swap1\n      pop\n      jump\t// out\n        /* \"#utility.yul\":16290:16484   */\n    tag_145:\n        /* \"#utility.yul\":16330:16334   */\n      0x00\n        /* \"#utility.yul\":16350:16370   */\n      tag_423\n        /* \"#utility.yul\":16368:16369   */\n      dup3\n        /* \"#utility.yul\":16350:16370   */\n      tag_209\n      jump\t// in\n    tag_423:\n        /* \"#utility.yul\":16345:16370   */\n      swap2\n      pop\n        /* \"#utility.yul\":16384:16404   */\n      tag_424\n        /* \"#utility.yul\":16402:16403   */\n      dup4\n        /* \"#utility.yul\":16384:16404   */\n      tag_209\n      jump\t// in\n    tag_424:\n        /* \"#utility.yul\":16379:16404   */\n      swap3\n      pop\n        /* \"#utility.yul\":16428:16429   */\n      dup3\n        /* \"#utility.yul\":16425:16426   */\n      dup3\n        /* \"#utility.yul\":16421:16430   */\n      sub\n        /* \"#utility.yul\":16413:16430   */\n      swap1\n      pop\n        /* \"#utility.yul\":16452:16453   */\n      dup2\n        /* \"#utility.yul\":16446:16450   */\n      dup2\n        /* \"#utility.yul\":16443:16454   */\n      gt\n        /* \"#utility.yul\":16440:16477   */\n      iszero\n      tag_425\n      jumpi\n        /* \"#utility.yul\":16457:16475   */\n      tag_426\n      tag_248\n      jump\t// in\n    tag_426:\n        /* \"#utility.yul\":16440:16477   */\n    tag_425:\n        /* \"#utility.yul\":16290:16484   */\n      swap3\n      swap2\n      pop\n      pop\n      jump\t// out\n        /* \"#utility.yul\":16490:16670   */\n    tag_251:\n        /* \"#utility.yul\":16538:16615   */\n      0x4e487b7100000000000000000000000000000000000000000000000000000000\n        /* \"#utility.yul\":16535:16536   */\n      0x00\n        /* \"#utility.yul\":16528:16616   */\n      mstore\n        /* \"#utility.yul\":16635:16639   */\n      0x22\n        /* \"#utility.yul\":16632:16633   */\n      0x04\n        /* \"#utility.yul\":16625:16640   */\n      mstore\n        /* \"#utility.yul\":16659:16663   */\n      0x24\n        /* \"#utility.yul\":16656:16657   */\n      0x00\n        /* \"#utility.yul\":16649:16664   */\n      revert\n        /* \"#utility.yul\":16676:16996   */\n    tag_162:\n        /* \"#utility.yul\":16720:16726   */\n      0x00\n        /* \"#utility.yul\":16757:16758   */\n      0x02\n        /* \"#utility.yul\":16751:16755   */\n      dup3\n        /* \"#utility.yul\":16747:16759   */\n      div\n        /* \"#utility.yul\":16737:16759   */\n      swap1\n      pop\n        /* \"#utility.yul\":16804:16805   */\n      0x01\n        /* \"#utility.yul\":16798:16802   */\n      dup3\n        /* \"#utility.yul\":16794:16806   */\n      and\n        /* \"#utility.yul\":16825:16843   */\n      dup1\n        /* \"#utility.yul\":16815:16896   */\n      tag_429\n      jumpi\n        /* \"#utility.yul\":16881:16885   */\n      0x7f\n        /* \"#utility.yul\":16873:16879   */\n      dup3\n        /* \"#utility.yul\":16869:16886   */\n      and\n        /* \"#utility.yul\":16859:16886   */\n      swap2\n      pop\n        /* \"#utility.yul\":16815:16896   */\n    tag_429:\n        /* \"#utility.yul\":16943:16945   */\n      0x20\n        /* \"#utility.yul\":16935:16941   */\n      dup3\n        /* \"#utility.yul\":16932:16946   */\n      lt\n        /* \"#utility.yul\":16912:16930   */\n      dup2\n        /* \"#utility.yul\":16909:16947   */\n      sub\n        /* \"#utility.yul\":16906:16990   */\n      tag_430\n      jumpi\n        /* \"#utility.yul\":16962:16980   */\n      tag_431\n      tag_251\n      jump\t// in\n    tag_431:\n        /* \"#utility.yul\":16906:16990   */\n    tag_430:\n        /* \"#utility.yul\":16727:16996   */\n      pop\n        /* \"#utility.yul\":16676:16996   */\n      swap2\n      swap1\n      pop\n      jump\t// out\n        /* \"#utility.yul\":17002:17143   */\n    tag_252:\n        /* \"#utility.yul\":17051:17055   */\n      0x00\n        /* \"#utility.yul\":17074:17077   */\n      dup2\n        /* \"#utility.yul\":17066:17077   */\n      swap1\n      pop\n        /* \"#utility.yul\":17097:17100   */\n      dup2\n        /* \"#utility.yul\":17094:17095   */\n      0x00\n        /* \"#utility.yul\":17087:17101   */\n      mstore\n        /* \"#utility.yul\":17131:17135   */\n      0x20\n        /* \"#utility.yul\":17128:17129   */\n      0x00\n        /* \"#utility.yul\":17118:17136   */\n      keccak256\n        /* \"#utility.yul\":17110:17136   */\n      swap1\n      pop\n        /* \"#utility.yul\":17002:17143   */\n      swap2\n      swap1\n      pop\n      jump\t// out\n        /* \"#utility.yul\":17149:17242   */\n    tag_253:\n        /* \"#utility.yul\":17186:17192   */\n      0x00\n        /* \"#utility.yul\":17233:17235   */\n      0x20\n        /* \"#utility.yul\":17228:17230   */\n      0x1f\n        /* \"#utility.yul\":17221:17226   */\n      dup4\n        /* \"#utility.yul\":17217:17231   */\n      add\n        /* \"#utility.yul\":17213:17236   */\n      div\n        /* \"#utility.yul\":17203:17236   */\n      swap1\n      pop\n        /* \"#utility.yul\":17149:17242   */\n      swap2\n      swap1\n      pop\n      jump\t// out\n        /* \"#utility.yul\":17248:17355   */\n    tag_254:\n        /* \"#utility.yul\":17292:17300   */\n      0x00\n        /* \"#utility.yul\":17342:17347   */\n      dup3\n        /* \"#utility.yul\":17336:17340   */\n      dup3\n        /* \"#utility.yul\":17332:17348   */\n      shl\n        /* \"#utility.yul\":17311:17348   */\n      swap1\n      pop\n        /* \"#utility.yul\":17248:17355   */\n      swap3\n      swap2\n      pop\n      pop\n      jump\t// out\n        /* \"#utility.yul\":17361:17754   */\n    tag_255:\n        /* \"#utility.yul\":17430:17436   */\n      0x00\n        /* \"#utility.yul\":17480:17481   */\n      0x08\n        /* \"#utility.yul\":17468:17478   */\n      dup4\n        /* \"#utility.yul\":17464:17482   */\n      mul\n        /* \"#utility.yul\":17503:17600   */\n      tag_436\n        /* \"#utility.yul\":17533:17599   */\n      0xffffffffffffffffffffffffffffffffffffffffffffffffffffffffffffffff\n        /* \"#utility.yul\":17522:17531   */\n      dup3\n        /* \"#utility.yul\":17503:17600   */\n      tag_254\n      jump\t// in\n    tag_436:\n        /* \"#utility.yul\":17621:17660   */\n      tag_437\n        /* \"#utility.yul\":17651:17659   */\n      dup7\n        /* \"#utility.yul\":17640:17649   */\n      dup4\n        /* \"#utility.yul\":17621:17660   */\n      tag_254\n      jump\t// in\n    tag_437:\n        /* \"#utility.yul\":17609:17660   */\n      swap6\n      pop\n        /* \"#utility.yul\":17693:17697   */\n      dup1\n        /* \"#utility.yul\":17689:17698   */\n      not\n        /* \"#utility.yul\":17682:17687   */\n      dup5\n        /* \"#utility.yul\":17678:17699   */\n      and\n        /* \"#utility.yul\":17669:17699   */\n      swap4\n      pop\n        /* \"#utility.yul\":17742:17746   */\n      dup1\n        /* \"#utility.yul\":17732:17740   */\n      dup7\n        /* \"#utility.yul\":17728:17747   */\n      and\n        /* \"#utility.yul\":17721:17726   */\n      dup5\n        /* \"#utility.yul\":17718:17748   */\n      or\n        /* \"#utility.yul\":17708:17748   */\n      swap3\n      pop\n        /* \"#utility.yul\":17437:17754   */\n      pop\n      pop\n        /* \"#utility.yul\":17361:17754   */\n      swap4\n      swap3\n      pop\n      pop\n      pop\n      jump\t// out\n        /* \"#utility.yul\":17760:17820   */\n    tag_256:\n        /* \"#utility.yul\":17788:17791   */\n      0x00\n        /* \"#utility.yul\":17809:17814   */\n      dup2\n        /* \"#utility.yul\":17802:17814   */\n      swap1\n      pop\n        /* \"#utility.yul\":17760:17820   */\n      swap2\n      swap1\n      pop\n      jump\t// out\n        /* \"#utility.yul\":17826:17968   */\n    tag_257:\n        /* \"#utility.yul\":17876:17885   */\n      0x00\n        /* \"#utility.yul\":17909:17962   */\n      tag_440\n        /* \"#utility.yul\":17927:17961   */\n      tag_441\n        /* \"#utility.yul\":17936:17960   */\n      tag_442\n        /* \"#utility.yul\":17954:17959   */\n      dup5\n        /* \"#utility.yul\":17936:17960   */\n      tag_209\n      jump\t// in\n    tag_442:\n        /* \"#utility.yul\":17927:17961   */\n      tag_256\n      jump\t// in\n    tag_441:\n        /* \"#utility.yul\":17909:17962   */\n      tag_209\n      jump\t// in\n    tag_440:\n        /* \"#utility.yul\":17896:17962   */\n      swap1\n      pop\n        /* \"#utility.yul\":17826:17968   */\n      swap2\n      swap1\n      pop\n      jump\t// out\n        /* \"#utility.yul\":17974:18049   */\n    tag_258:\n        /* \"#utility.yul\":18017:18020   */\n      0x00\n        /* \"#utility.yul\":18038:18043   */\n      dup2\n        /* \"#utility.yul\":18031:18043   */\n      swap1\n      pop\n        /* \"#utility.yul\":17974:18049   */\n      swap2\n      swap1\n      pop\n      jump\t// out\n        /* \"#utility.yul\":18055:18324   */\n    tag_259:\n        /* \"#utility.yul\":18165:18204   */\n      tag_445\n        /* \"#utility.yul\":18196:18203   */\n      dup4\n        /* \"#utility.yul\":18165:18204   */\n      tag_257\n      jump\t// in\n    tag_445:\n        /* \"#utility.yul\":18226:18317   */\n      tag_446\n        /* \"#utility.yul\":18275:18316   */\n      tag_447\n        /* \"#utility.yul\":18299:18315   */\n      dup3\n        /* \"#utility.yul\":18275:18316   */\n      tag_258\n      jump\t// in\n    tag_447:\n        /* \"#utility.yul\":18267:18273   */\n      dup5\n        /* \"#utility.yul\":18260:18264   */\n      dup5\n        /* \"#utility.yul\":18254:18265   */\n      sload\n        /* \"#utility.yul\":18226:18317   */\n      tag_255\n      jump\t// in\n    tag_446:\n        /* \"#utility.yul\":18220:18224   */\n      dup3\n        /* \"#utility.yul\":18213:18318   */\n      sstore\n        /* \"#utility.yul\":18131:18324   */\n      pop\n        /* \"#utility.yul\":18055:18324   */\n      pop\n      pop\n      pop\n      jump\t// out\n        /* \"#utility.yul\":18330:18403   */\n    tag_260:\n        /* \"#utility.yul\":18375:18378   */\n      0x00\n        /* \"#utility.yul\":18330:18403   */\n      swap1\n      jump\t// out\n        /* \"#utility.yul\":18409:18598   */\n    tag_261:\n        /* \"#utility.yul\":18486:18518   */\n      tag_450\n      tag_260\n      jump\t// in\n    tag_450:\n        /* \"#utility.yul\":18527:18592   */\n      tag_451\n        /* \"#utility.yul\":18585:18591   */\n      dup2\n        /* \"#utility.yul\":18577:18583   */\n      dup5\n        /* \"#utility.yul\":18571:18575   */\n      dup5\n        /* \"#utility.yul\":18527:18592   */\n      tag_259\n      jump\t// in\n    tag_451:\n        /* \"#utility.yul\":18462:18598   */\n      pop\n        /* \"#utility.yul\":18409:18598   */\n      pop\n      pop\n      jump\t// out\n        /* \"#utility.yul\":18604:18790   */\n    tag_262:\n        /* \"#utility.yul\":18664:18784   */\n    tag_453:\n        /* \"#utility.yul\":18681:18684   */\n      dup2\n        /* \"#utility.yul\":18674:18679   */\n      dup2\n        /* \"#utility.yul\":18671:18685   */\n      lt\n        /* \"#utility.yul\":18664:18784   */\n      iszero\n      tag_455\n      jumpi\n        /* \"#utility.yul\":18735:18774   */\n      tag_456\n        /* \"#utility.yul\":18772:18773   */\n      0x00\n        /* \"#utility.yul\":18765:18770   */\n      dup3\n        /* \"#utility.yul\":18735:18774   */\n      tag_261\n      jump\t// in\n    tag_456:\n        /* \"#utility.yul\":18708:18709   */\n      0x01\n        /* \"#utility.yul\":18701:18706   */\n      dup2\n        /* \"#utility.yul\":18697:18710   */\n      add\n        /* \"#utility.yul\":18688:18710   */\n      swap1\n      pop\n        /* \"#utility.yul\":18664:18784   */\n      jump(tag_453)\n    tag_455:\n        /* \"#utility.yul\":18604:18790   */\n      pop\n      pop\n      jump\t// out\n        /* \"#utility.yul\":18796:19339   */\n    tag_263:\n        /* \"#utility.yul\":18897:18899   */\n      0x1f\n        /* \"#utility.yul\":18892:18895   */\n      dup3\n        /* \"#utility.yul\":18889:18900   */\n      gt\n        /* \"#utility.yul\":18886:19332   */\n      iszero\n      tag_458\n      jumpi\n        /* \"#utility.yul\":18931:18969   */\n      tag_459\n        /* \"#utility.yul\":18963:18968   */\n      dup2\n        /* \"#utility.yul\":18931:18969   */\n      tag_252\n      jump\t// in\n    tag_459:\n        /* \"#utility.yul\":19015:19044   */\n      tag_460\n        /* \"#utility.yul\":19033:19043   */\n      dup5\n        /* \"#utility.yul\":19015:19044   */\n      tag_253\n      jump\t// in\n    tag_460:\n        /* \"#utility.yul\":19005:19013   */\n      dup2\n        /* \"#utility.yul\":19001:19045   */\n      add\n        /* \"#utility.yul\":19198:19200   */\n      0x20\n        /* \"#utility.yul\":19186:19196   */\n      dup6\n        /* \"#utility.yul\":19183:19201   */\n      lt\n        /* \"#utility.yul\":19180:19229   */\n      iszero\n      tag_461\n      jumpi\n        /* \"#utility.yul\":19219:19227   */\n      dup2\n        /* \"#utility.yul\":19204:19227   */\n      swap1\n      pop\n        /* \"#utility.yul\":19180:19229   */\n    tag_461:\n        /* \"#utility.yul\":19242:19322   */\n      tag_462\n        /* \"#utility.yul\":19298:19320   */\n      tag_463\n        /* \"#utility.yul\":19316:19319   */\n      dup6\n        /* \"#utility.yul\":19298:19320   */\n      tag_253\n      jump\t// in\n    tag_463:\n        /* \"#utility.yul\":19288:19296   */\n      dup4\n        /* \"#utility.yul\":19284:19321   */\n      add\n        /* \"#utility.yul\":19271:19282   */\n      dup3\n        /* \"#utility.yul\":19242:19322   */\n      tag_262\n      jump\t// in\n    tag_462:\n        /* \"#utility.yul\":18901:19332   */\n      pop\n      pop\n        /* \"#utility.yul\":18886:19332   */\n    tag_458:\n        /* \"#utility.yul\":18796:19339   */\n      pop\n      pop\n      pop\n      jump\t// out\n        /* \"#utility.yul\":19345:19462   */\n    tag_264:\n        /* \"#utility.yul\":19399:19407   */\n      0x00\n        /* \"#utility.yul\":19449:19454   */\n      dup3\n        /* \"#utility.yul\":19443:19447   */\n      dup3\n        /* \"#utility.yul\":19439:19455   */\n      shr\n        /* \"#utility.yul\":19418:19455   */\n      swap1\n      pop\n        /* \"#utility.yul\":19345:19462   */\n      swap3\n      swap2\n      pop\n      pop\n      jump\t// out\n        /* \"#utility.yul\":19468:19637   */\n    tag_265:\n        /* \"#utility.yul\":19512:19518   */\n      0x00\n        /* \"#utility.yul\":19545:19596   */\n      tag_466\n        /* \"#utility.yul\":19593:19594   */\n      0x00\n        /* \"#utility.yul\":19589:19595   */\n      not\n        /* \"#utility.yul\":19581:19586   */\n      dup5\n        /* \"#utility.yul\":19578:19579   */\n      0x08\n        /* \"#utility.yul\":19574:19587   */\n      mul\n        /* \"#utility.yul\":19545:19596   */\n      tag_264\n      jump\t// in\n    tag_466:\n        /* \"#utility.yul\":19541:19597   */\n      not\n        /* \"#utility.yul\":19626:19630   */\n      dup1\n        /* \"#utility.yul\":19620:19624   */\n      dup4\n        /* \"#utility.yul\":19616:19631   */\n      and\n        /* \"#utility.yul\":19606:19631   */\n      swap2\n      pop\n        /* \"#utility.yul\":19519:19637   */\n      pop\n        /* \"#utility.yul\":19468:19637   */\n      swap3\n      swap2\n      pop\n      pop\n      jump\t// out\n        /* \"#utility.yul\":19642:19937   */\n    tag_266:\n        /* \"#utility.yul\":19718:19722   */\n      0x00\n        /* \"#utility.yul\":19864:19893   */\n      tag_468\n        /* \"#utility.yul\":19889:19892   */\n      dup4\n        /* \"#utility.yul\":19883:19887   */\n      dup4\n        /* \"#utility.yul\":19864:19893   */\n      tag_265\n      jump\t// in\n    tag_468:\n        /* \"#utility.yul\":19856:19893   */\n      swap2\n      pop\n        /* \"#utility.yul\":19926:19929   */\n      dup3\n        /* \"#utility.yul\":19923:19924   */\n      0x02\n        /* \"#utility.yul\":19919:19930   */\n      mul\n        /* \"#utility.yul\":19913:19917   */\n      dup3\n        /* \"#utility.yul\":19910:19931   */\n      or\n        /* \"#utility.yul\":19902:19931   */\n      swap1\n      pop\n        /* \"#utility.yul\":19642:19937   */\n      swap3\n      swap2\n      pop\n      pop\n      jump\t// out\n        /* \"#utility.yul\":19942:21337   */\n    tag_152:\n        /* \"#utility.yul\":20059:20096   */\n      tag_470\n        /* \"#utility.yul\":20092:20095   */\n      dup3\n        /* \"#utility.yul\":20059:20096   */\n      tag_230\n      jump\t// in\n    tag_470:\n        /* \"#utility.yul\":20161:20179   */\n      0xffffffffffffffff\n        /* \"#utility.yul\":20153:20159   */\n      dup2\n        /* \"#utility.yul\":20150:20180   */\n      gt\n        /* \"#utility.yul\":20147:20203   */\n      iszero\n      tag_471\n      jumpi\n        /* \"#utility.yul\":20183:20201   */\n      tag_472\n      tag_221\n      jump\t// in\n    tag_472:\n        /* \"#utility.yul\":20147:20203   */\n    tag_471:\n        /* \"#utility.yul\":20227:20265   */\n      tag_473\n        /* \"#utility.yul\":20259:20263   */\n      dup3\n        /* \"#utility.yul\":20253:20264   */\n      sload\n        /* \"#utility.yul\":20227:20265   */\n      tag_162\n      jump\t// in\n    tag_473:\n        /* \"#utility.yul\":20312:20379   */\n      tag_474\n        /* \"#utility.yul\":20372:20378   */\n      dup3\n        /* \"#utility.yul\":20364:20370   */\n      dup3\n        /* \"#utility.yul\":20358:20362   */\n      dup6\n        /* \"#utility.yul\":20312:20379   */\n      tag_263\n      jump\t// in\n    tag_474:\n        /* \"#utility.yul\":20406:20407   */\n      0x00\n        /* \"#utility.yul\":20430:20434   */\n      0x20\n        /* \"#utility.yul\":20417:20434   */\n      swap1\n      pop\n        /* \"#utility.yul\":20462:20464   */\n      0x1f\n        /* \"#utility.yul\":20454:20460   */\n      dup4\n        /* \"#utility.yul\":20451:20465   */\n      gt\n        /* \"#utility.yul\":20479:20480   */\n      0x01\n        /* \"#utility.yul\":20474:21092   */\n      dup2\n      eq\n      tag_476\n      jumpi\n        /* \"#utility.yul\":21136:21137   */\n      0x00\n        /* \"#utility.yul\":21153:21159   */\n      dup5\n        /* \"#utility.yul\":21150:21227   */\n      iszero\n      tag_477\n      jumpi\n        /* \"#utility.yul\":21202:21211   */\n      dup3\n        /* \"#utility.yul\":21197:21200   */\n      dup8\n        /* \"#utility.yul\":21193:21212   */\n      add\n        /* \"#utility.yul\":21187:21213   */\n      mload\n        /* \"#utility.yul\":21178:21213   */\n      swap1\n      pop\n        /* \"#utility.yul\":21150:21227   */\n    tag_477:\n        /* \"#utility.yul\":21253:21320   */\n      tag_478\n        /* \"#utility.yul\":21313:21319   */\n      dup6\n        /* \"#utility.yul\":21306:21311   */\n      dup3\n        /* \"#utility.yul\":21253:21320   */\n      tag_266\n      jump\t// in\n    tag_478:\n        /* \"#utility.yul\":21247:21251   */\n      dup7\n        /* \"#utility.yul\":21240:21321   */\n      sstore\n        /* \"#utility.yul\":21109:21331   */\n      pop\n        /* \"#utility.yul\":20444:21331   */\n      jump(tag_475)\n        /* \"#utility.yul\":20474:21092   */\n    tag_476:\n        /* \"#utility.yul\":20526:20530   */\n      0x1f\n        /* \"#utility.yul\":20522:20531   */\n      not\n        /* \"#utility.yul\":20514:20520   */\n      dup5\n        /* \"#utility.yul\":20510:20532   */\n      and\n        /* \"#utility.yul\":20560:20597   */\n      tag_479\n        /* \"#utility.yul\":20592:20596   */\n      dup7\n        /* \"#utility.yul\":20560:20597   */\n      tag_252\n      jump\t// in\n    tag_479:\n        /* \"#utility.yul\":20619:20620   */\n      0x00\n        /* \"#utility.yul\":20633:20841   */\n    tag_480:\n        /* \"#utility.yul\":20647:20654   */\n      dup3\n        /* \"#utility.yul\":20644:20645   */\n      dup2\n        /* \"#utility.yul\":20641:20655   */\n      lt\n        /* \"#utility.yul\":20633:20841   */\n      iszero\n      tag_482\n      jumpi\n        /* \"#utility.yul\":20726:20735   */\n      dup5\n        /* \"#utility.yul\":20721:20724   */\n      dup10\n        /* \"#utility.yul\":20717:20736   */\n      add\n        /* \"#utility.yul\":20711:20737   */\n      mload\n        /* \"#utility.yul\":20703:20709   */\n      dup3\n        /* \"#utility.yul\":20696:20738   */\n      sstore\n        /* \"#utility.yul\":20777:20778   */\n      0x01\n        /* \"#utility.yul\":20769:20775   */\n      dup3\n        /* \"#utility.yul\":20765:20779   */\n      add\n        /* \"#utility.yul\":20755:20779   */\n      swap2\n      pop\n        /* \"#utility.yul\":20824:20826   */\n      0x20\n        /* \"#utility.yul\":20813:20822   */\n      dup6\n        /* \"#utility.yul\":20809:20827   */\n      add\n        /* \"#utility.yul\":20796:20827   */\n      swap5\n      pop\n        /* \"#utility.yul\":20670:20674   */\n      0x20\n        /* \"#utility.yul\":20667:20668   */\n      dup2\n        /* \"#utility.yul\":20663:20675   */\n      add\n        /* \"#utility.yul\":20658:20675   */\n      swap1\n      pop\n        /* \"#utility.yul\":20633:20841   */\n      jump(tag_480)\n    tag_482:\n        /* \"#utility.yul\":20869:20875   */\n      dup7\n        /* \"#utility.yul\":20860:20867   */\n      dup4\n        /* \"#utility.yul\":20857:20876   */\n      lt\n        /* \"#utility.yul\":20854:21033   */\n      iszero\n      tag_483\n      jumpi\n        /* \"#utility.yul\":20927:20936   */\n      dup5\n        /* \"#utility.yul\":20922:20925   */\n      dup10\n        /* \"#utility.yul\":20918:20937   */\n      add\n        /* \"#utility.yul\":20912:20938   */\n      mload\n        /* \"#utility.yul\":20970:21018   */\n      tag_484\n        /* \"#utility.yul\":21012:21016   */\n      0x1f\n        /* \"#utility.yul\":21004:21010   */\n      dup10\n        /* \"#utility.yul\":21000:21017   */\n      and\n        /* \"#utility.yul\":20989:20998   */\n      dup3\n        /* \"#utility.yul\":20970:21018   */\n      tag_265\n      jump\t// in\n    tag_484:\n        /* \"#utility.yul\":20962:20968   */\n      dup4\n        /* \"#utility.yul\":20955:21019   */\n      sstore\n        /* \"#utility.yul\":20877:21033   */\n      pop\n        /* \"#utility.yul\":20854:21033   */\n    tag_483:\n        /* \"#utility.yul\":21079:21080   */\n      0x01\n        /* \"#utility.yul\":21075:21076   */\n      0x02\n        /* \"#utility.yul\":21067:21073   */\n      dup9\n        /* \"#utility.yul\":21063:21077   */\n      mul\n        /* \"#utility.yul\":21059:21081   */\n      add\n        /* \"#utility.yul\":21053:21057   */\n      dup9\n        /* \"#utility.yul\":21046:21082   */\n      sstore\n        /* \"#utility.yul\":20481:21092   */\n      pop\n      pop\n      pop\n        /* \"#utility.yul\":20444:21331   */\n    tag_475:\n      pop\n        /* \"#utility.yul\":20034:21337   */\n      pop\n      pop\n      pop\n        /* \"#utility.yul\":19942:21337   */\n      pop\n      pop\n      jump\t// out\n        /* \"#utility.yul\":21343:21509   */\n    tag_267:\n        /* \"#utility.yul\":21483:21501   */\n      0x4e6f7420656e6f7567682066756e647300000000000000000000000000000000\n        /* \"#utility.yul\":21479:21480   */\n      0x00\n        /* \"#utility.yul\":21471:21477   */\n      dup3\n        /* \"#utility.yul\":21467:21481   */\n      add\n        /* \"#utility.yul\":21460:21502   */\n      mstore\n        /* \"#utility.yul\":21343:21509   */\n      pop\n      jump\t// out\n        /* \"#utility.yul\":21515:21881   */\n    tag_268:\n        /* \"#utility.yul\":21657:21660   */\n      0x00\n        /* \"#utility.yul\":21678:21745   */\n      tag_487\n        /* \"#utility.yul\":21742:21744   */\n      0x10\n        /* \"#utility.yul\":21737:21740   */\n      dup4\n        /* \"#utility.yul\":21678:21745   */\n      tag_231\n      jump\t// in\n    tag_487:\n        /* \"#utility.yul\":21671:21745   */\n      swap2\n      pop\n        /* \"#utility.yul\":21754:21847   */\n      tag_488\n        /* \"#utility.yul\":21843:21846   */\n      dup3\n        /* \"#utility.yul\":21754:21847   */\n      tag_267\n      jump\t// in\n    tag_488:\n        /* \"#utility.yul\":21872:21874   */\n      0x20\n        /* \"#utility.yul\":21867:21870   */\n      dup3\n        /* \"#utility.yul\":21863:21875   */\n      add\n        /* \"#utility.yul\":21856:21875   */\n      swap1\n      pop\n        /* \"#utility.yul\":21515:21881   */\n      swap2\n      swap1\n      pop\n      jump\t// out\n        /* \"#utility.yul\":21887:22306   */\n    tag_155:\n        /* \"#utility.yul\":22053:22057   */\n      0x00\n        /* \"#utility.yul\":22091:22093   */\n      0x20\n        /* \"#utility.yul\":22080:22089   */\n      dup3\n        /* \"#utility.yul\":22076:22094   */\n      add\n        /* \"#utility.yul\":22068:22094   */\n      swap1\n      pop\n        /* \"#utility.yul\":22140:22149   */\n      dup2\n        /* \"#utility.yul\":22134:22138   */\n      dup2\n        /* \"#utility.yul\":22130:22150   */\n      sub\n        /* \"#utility.yul\":22126:22127   */\n      0x00\n        /* \"#utility.yul\":22115:22124   */\n      dup4\n        /* \"#utility.yul\":22111:22128   */\n      add\n        /* \"#utility.yul\":22104:22151   */\n      mstore\n        /* \"#utility.yul\":22168:22299   */\n      tag_490\n        /* \"#utility.yul\":22294:22298   */\n      dup2\n        /* \"#utility.yul\":22168:22299   */\n      tag_268\n      jump\t// in\n    tag_490:\n        /* \"#utility.yul\":22160:22299   */\n      swap1\n      pop\n        /* \"#utility.yul\":21887:22306   */\n      swap2\n      swap1\n      pop\n      jump\t// out\n        /* \"#utility.yul\":22312:22482   */\n    tag_269:\n        /* \"#utility.yul\":22452:22474   */\n      0x4e6f2076616c6964206372656469742063617264000000000000000000000000\n        /* \"#utility.yul\":22448:22449   */\n      0x00\n        /* \"#utility.yul\":22440:22446   */\n      dup3\n        /* \"#utility.yul\":22436:22450   */\n      add\n        /* \"#utility.yul\":22429:22475   */\n      mstore\n        /* \"#utility.yul\":22312:22482   */\n      pop\n      jump\t// out\n        /* \"#utility.yul\":22488:22854   */\n    tag_270:\n        /* \"#utility.yul\":22630:22633   */\n      0x00\n        /* \"#utility.yul\":22651:22718   */\n      tag_493\n        /* \"#utility.yul\":22715:22717   */\n      0x14\n        /* \"#utility.yul\":22710:22713   */\n      dup4\n        /* \"#utility.yul\":22651:22718   */\n      tag_231\n      jump\t// in\n    tag_493:\n        /* \"#utility.yul\":22644:22718   */\n      swap2\n      pop\n        /* \"#utility.yul\":22727:22820   */\n      tag_494\n        /* \"#utility.yul\":22816:22819   */\n      dup3\n        /* \"#utility.yul\":22727:22820   */\n      tag_269\n      jump\t// in\n    tag_494:\n        /* \"#utility.yul\":22845:22847   */\n      0x20\n        /* \"#utility.yul\":22840:22843   */\n      dup3\n        /* \"#utility.yul\":22836:22848   */\n      add\n        /* \"#utility.yul\":22829:22848   */\n      swap1\n      pop\n        /* \"#utility.yul\":22488:22854   */\n      swap2\n      swap1\n      pop\n      jump\t// out\n        /* \"#utility.yul\":22860:23279   */\n    tag_167:\n        /* \"#utility.yul\":23026:23030   */\n      0x00\n        /* \"#utility.yul\":23064:23066   */\n      0x20\n        /* \"#utility.yul\":23053:23062   */\n      dup3\n        /* \"#utility.yul\":23049:23067   */\n      add\n        /* \"#utility.yul\":23041:23067   */\n      swap1\n      pop\n        /* \"#utility.yul\":23113:23122   */\n      dup2\n        /* \"#utility.yul\":23107:23111   */\n      dup2\n        /* \"#utility.yul\":23103:23123   */\n      sub\n        /* \"#utility.yul\":23099:23100   */\n      0x00\n        /* \"#utility.yul\":23088:23097   */\n      dup4\n        /* \"#utility.yul\":23084:23101   */\n      add\n        /* \"#utility.yul\":23077:23124   */\n      mstore\n        /* \"#utility.yul\":23141:23272   */\n      tag_496\n        /* \"#utility.yul\":23267:23271   */\n      dup2\n        /* \"#utility.yul\":23141:23272   */\n      tag_270\n      jump\t// in\n    tag_496:\n        /* \"#utility.yul\":23133:23272   */\n      swap1\n      pop\n        /* \"#utility.yul\":22860:23279   */\n      swap2\n      swap1\n      pop\n      jump\t// out\n        /* \"#utility.yul\":23285:23462   */\n    tag_271:\n        /* \"#utility.yul\":23425:23454   */\n      0x4e6f7420656e6f7567682066756e6473206f6e206163636f756e740000000000\n        /* \"#utility.yul\":23421:23422   */\n      0x00\n        /* \"#utility.yul\":23413:23419   */\n      dup3\n        /* \"#utility.yul\":23409:23423   */\n      add\n        /* \"#utility.yul\":23402:23455   */\n      mstore\n        /* \"#utility.yul\":23285:23462   */\n      pop\n      jump\t// out\n        /* \"#utility.yul\":23468:23834   */\n    tag_272:\n        /* \"#utility.yul\":23610:23613   */\n      0x00\n        /* \"#utility.yul\":23631:23698   */\n      tag_499\n        /* \"#utility.yul\":23695:23697   */\n      0x1b\n        /* \"#utility.yul\":23690:23693   */\n      dup4\n        /* \"#utility.yul\":23631:23698   */\n      tag_231\n      jump\t// in\n    tag_499:\n        /* \"#utility.yul\":23624:23698   */\n      swap2\n      pop\n        /* \"#utility.yul\":23707:23800   */\n      tag_500\n        /* \"#utility.yul\":23796:23799   */\n      dup3\n        /* \"#utility.yul\":23707:23800   */\n      tag_271\n      jump\t// in\n    tag_500:\n        /* \"#utility.yul\":23825:23827   */\n      0x20\n        /* \"#utility.yul\":23820:23823   */\n      dup3\n        /* \"#utility.yul\":23816:23828   */\n      add\n        /* \"#utility.yul\":23809:23828   */\n      swap1\n      pop\n        /* \"#utility.yul\":23468:23834   */\n      swap2\n      swap1\n      pop\n      jump\t// out\n        /* \"#utility.yul\":23840:24259   */\n    tag_183:\n        /* \"#utility.yul\":24006:24010   */\n      0x00\n        /* \"#utility.yul\":24044:24046   */\n      0x20\n        /* \"#utility.yul\":24033:24042   */\n      dup3\n        /* \"#utility.yul\":24029:24047   */\n      add\n        /* \"#utility.yul\":24021:24047   */\n      swap1\n      pop\n        /* \"#utility.yul\":24093:24102   */\n      dup2\n        /* \"#utility.yul\":24087:24091   */\n      dup2\n        /* \"#utility.yul\":24083:24103   */\n      sub\n        /* \"#utility.yul\":24079:24080   */\n      0x00\n        /* \"#utility.yul\":24068:24077   */\n      dup4\n        /* \"#utility.yul\":24064:24081   */\n      add\n        /* \"#utility.yul\":24057:24104   */\n      mstore\n        /* \"#utility.yul\":24121:24252   */\n      tag_502\n        /* \"#utility.yul\":24247:24251   */\n      dup2\n        /* \"#utility.yul\":24121:24252   */\n      tag_272\n      jump\t// in\n    tag_502:\n        /* \"#utility.yul\":24113:24252   */\n      swap1\n      pop\n        /* \"#utility.yul\":23840:24259   */\n      swap2\n      swap1\n      pop\n      jump\t// out\n        /* \"#utility.yul\":24265:24498   */\n    tag_203:\n        /* \"#utility.yul\":24304:24307   */\n      0x00\n        /* \"#utility.yul\":24327:24351   */\n      tag_504\n        /* \"#utility.yul\":24345:24350   */\n      dup3\n        /* \"#utility.yul\":24327:24351   */\n      tag_209\n      jump\t// in\n    tag_504:\n        /* \"#utility.yul\":24318:24351   */\n      swap2\n      pop\n        /* \"#utility.yul\":24373:24439   */\n      0xffffffffffffffffffffffffffffffffffffffffffffffffffffffffffffffff\n        /* \"#utility.yul\":24366:24371   */\n      dup3\n        /* \"#utility.yul\":24363:24440   */\n      sub\n        /* \"#utility.yul\":24360:24463   */\n      tag_505\n      jumpi\n        /* \"#utility.yul\":24443:24461   */\n      tag_506\n      tag_248\n      jump\t// in\n    tag_506:\n        /* \"#utility.yul\":24360:24463   */\n    tag_505:\n        /* \"#utility.yul\":24490:24491   */\n      0x01\n        /* \"#utility.yul\":24483:24488   */\n      dup3\n        /* \"#utility.yul\":24479:24492   */\n      add\n        /* \"#utility.yul\":24472:24492   */\n      swap1\n      pop\n        /* \"#utility.yul\":24265:24498   */\n      swap2\n      swap1\n      pop\n      jump\t// out\n\n    auxdata: 0xa2646970667358221220b5ec9353c221f897bd5934904e6cf590a6d336360a5012f518442f876c97252b64736f6c63430008100033\n}\n",
				"bytecode": {
					"linkReferences": {},
					"object": "608060405260006002556000600e556000600f60006101000a81548160ff0219169083151502179055503480156200003657600080fd5b5060405162001e1938038062001e1983398181016040528101906200005c9190620000aa565b8060078190555050620000dc565b600080fd5b6000819050919050565b62000084816200006f565b81146200009057600080fd5b50565b600081519050620000a48162000079565b92915050565b600060208284031215620000c357620000c26200006a565b5b6000620000d38482850162000093565b91505092915050565b611d2d80620000ec6000396000f3fe60806040526004361061011f5760003560e01c806354876921116100a057806383920e901161006457806383920e90146103d25780638e029c0b146103fd5780638fa1186414610414578063aa8c217c1461043f578063e21f37ce1461046a5761011f565b806354876921146102e8578063557ed1ba1461031157806357bf72e31461033c5780637b9a3f4c1461037c5780637eb9f571146103a75761011f565b806324ba506d116100e757806324ba506d146101ff5780633c626f001461022a57806342fb79361461025557806345838c42146102805780634b28f9a2146102bd5761011f565b806304ef5b2114610124578063062a7544146101645780630e85fa721461018057806312065fe0146101ab57806312a029a4146101d6575b600080fd5b34801561013057600080fd5b5061014b600480360381019061014691906110f1565b610495565b60405161015b949392919061116e565b60405180910390f35b61017e600480360381019061017991906111df565b610515565b005b34801561018c57600080fd5b5061019561085a565b6040516101a2919061121f565b60405180910390f35b3480156101b757600080fd5b506101c0610860565b6040516101cd919061121f565b60405180910390f35b3480156101e257600080fd5b506101fd60048036038101906101f89190611380565b61086d565b005b34801561020b57600080fd5b5061021461091e565b604051610221919061121f565b60405180910390f35b34801561023657600080fd5b5061023f610928565b60405161024c9190611413565b60405180910390f35b34801561026157600080fd5b5061026a61093b565b60405161027791906114ad565b60405180910390f35b34801561028c57600080fd5b506102a760048036038101906102a291906110f1565b6109c9565b6040516102b49190611542565b60405180910390f35b3480156102c957600080fd5b506102d2610acc565b6040516102df919061121f565b60405180910390f35b3480156102f457600080fd5b5061030f600480360381019061030a91906110f1565b610ad2565b005b34801561031d57600080fd5b50610326610b4a565b604051610333919061121f565b60405180910390f35b34801561034857600080fd5b50610363600480360381019061035e91906110f1565b610b52565b604051610373949392919061116e565b60405180910390f35b34801561038857600080fd5b50610391610bc2565b60405161039e919061121f565b60405180910390f35b3480156103b357600080fd5b506103bc610bc8565b6040516103c9919061121f565b60405180910390f35b3480156103de57600080fd5b506103e7610bce565b6040516103f49190611661565b60405180910390f35b34801561040957600080fd5b50610412610ced565b005b34801561042057600080fd5b50610429610d0a565b60405161043691906114ad565b60405180910390f35b34801561044b57600080fd5b50610454610d98565b604051610461919061121f565b60405180910390f35b34801561047657600080fd5b5061047f610d9e565b60405161048c91906114ad565b60405180910390f35b600081815481106104a557600080fd5b90600052602060002090600402016000915090508060000160009054906101000a900473ffffffffffffffffffffffffffffffffffffffff16908060010160009054906101000a900473ffffffffffffffffffffffffffffffffffffffff16908060020154908060030154905084565b8080600860006101000a81548173ffffffffffffffffffffffffffffffffffffffff021916908373ffffffffffffffffffffffffffffffffffffffff160217905550600073ffffffffffffffffffffffffffffffffffffffff168173ffffffffffffffffffffffffffffffffffffffff16036105c6576040517f08c379a00000000000000000000000000000000000000000000000000000000081526004016105bd906116cf565b60405180910390fd5b60001515600f60009054906101000a900460ff1615150361061c576040517f08c379a00000000000000000000000000000000000000000000000000000000081526004016106139061173b565b60405180910390fd5b6005600e541015801561063f575062015180600d5461063b919061178a565b4211155b1561069a576000600e819055506000600e541461065f5761065e6117be565b5b6040517f08c379a000000000000000000000000000000000000000000000000000000000815260040161069190611839565b60405180910390fd5b6005600e54111580156106bb5750601e600d546106b7919061178a565b4210155b156106e3576000600e819055506000600e54146106db576106da6117be565b5b42600d819055505b81600860006101000a81548173ffffffffffffffffffffffffffffffffffffffff021916908373ffffffffffffffffffffffffffffffffffffffff160217905550826006819055506001600e600082825461073e919061178a565b92505081905550600060075411801561075a5750600654600754115b1561081a57600654600760008282546107739190611859565b92505081905550600654600c600082825461078e919061178a565b925050819055506107c533600860009054906101000a900473ffffffffffffffffffffffffffffffffffffffff1660065442610e2c565b6107d0600654611027565b6040518060400160405280601281526020017f5472616e7366657220636f6d706c657465640000000000000000000000000000815250600990816108149190611a99565b50610855565b6040517f08c379a000000000000000000000000000000000000000000000000000000000815260040161084c90611bb7565b60405180910390fd5b505050565b600d5481565b6000600360000154905090565b81600a908161087c9190611a99565b5080600b908161088c9190611a99565b506001600f60006101000a81548160ff02191690831515021790555042600d819055506008600a80546108be906118bc565b90501480156108db57506003600b80546108d7906118bc565b9050145b61091a576040517f08c379a000000000000000000000000000000000000000000000000000000000815260040161091190611c23565b60405180910390fd5b5050565b6000600254905090565b600f60009054906101000a900460ff1681565b600b8054610948906118bc565b80601f0160208091040260200160405190810160405280929190818152602001828054610974906118bc565b80156109c15780601f10610996576101008083540402835291602001916109c1565b820191906000526020600020905b8154815290600101906020018083116109a457829003601f168201915b505050505081565b6109d1611053565b6000826000805490506109e49190611859565b9050600160008281526020019081526020016000206040518060800160405290816000820160009054906101000a900473ffffffffffffffffffffffffffffffffffffffff1673ffffffffffffffffffffffffffffffffffffffff1673ffffffffffffffffffffffffffffffffffffffff1681526020016001820160009054906101000a900473ffffffffffffffffffffffffffffffffffffffff1673ffffffffffffffffffffffffffffffffffffffff1673ffffffffffffffffffffffffffffffffffffffff16815260200160028201548152602001600382015481525050915050919050565b600e5481565b80600360020181905550600360020154600360000154610af29190611859565b60036000018190555060036000015460036002015410610b47576040517f08c379a0000000000000000000000000000000000000000000000000000000008152600401610b3e90611c8f565b60405180910390fd5b50565b600042905090565b60016020528060005260406000206000915090508060000160009054906101000a900473ffffffffffffffffffffffffffffffffffffffff16908060010160009054906101000a900473ffffffffffffffffffffffffffffffffffffffff16908060020154908060030154905084565b60075481565b600c5481565b60606000805480602002602001604051908101604052809291908181526020016000905b82821015610ce457838290600052602060002090600402016040518060800160405290816000820160009054906101000a900473ffffffffffffffffffffffffffffffffffffffff1673ffffffffffffffffffffffffffffffffffffffff1673ffffffffffffffffffffffffffffffffffffffff1681526020016001820160009054906101000a900473ffffffffffffffffffffffffffffffffffffffff1673ffffffffffffffffffffffffffffffffffffffff1673ffffffffffffffffffffffffffffffffffffffff1681526020016002820154815260200160038201548152505081526020019060010190610bf2565b50505050905090565b6000600f60006101000a81548160ff021916908315150217905550565b600a8054610d17906118bc565b80601f0160208091040260200160405190810160405280929190818152602001828054610d43906118bc565b8015610d905780601f10610d6557610100808354040283529160200191610d90565b820191906000526020600020905b815481529060010190602001808311610d7357829003601f168201915b505050505081565b60065481565b60098054610dab906118bc565b80601f0160208091040260200160405190810160405280929190818152602001828054610dd7906118bc565b8015610e245780601f10610df957610100808354040283529160200191610e24565b820191906000526020600020905b815481529060010190602001808311610e0757829003601f168201915b505050505081565b600060405180608001604052808673ffffffffffffffffffffffffffffffffffffffff1681526020018573ffffffffffffffffffffffffffffffffffffffff168152602001848152602001838152509050600081908060018154018082558091505060019003906000526020600020906004020160009091909190915060008201518160000160006101000a81548173ffffffffffffffffffffffffffffffffffffffff021916908373ffffffffffffffffffffffffffffffffffffffff16021790555060208201518160010160006101000a81548173ffffffffffffffffffffffffffffffffffffffff021916908373ffffffffffffffffffffffffffffffffffffffff160217905550604082015181600201556060820151816003015550508060016000600254815260200190815260200160002060008201518160000160006101000a81548173ffffffffffffffffffffffffffffffffffffffff021916908373ffffffffffffffffffffffffffffffffffffffff16021790555060208201518160010160006101000a81548173ffffffffffffffffffffffffffffffffffffffff021916908373ffffffffffffffffffffffffffffffffffffffff16021790555060408201518160020155606082015181600301559050506002600081548092919061101b90611caf565b91905055505050505050565b80600360010181905550600360010154600360000154611047919061178a565b60036000018190555050565b6040518060800160405280600073ffffffffffffffffffffffffffffffffffffffff168152602001600073ffffffffffffffffffffffffffffffffffffffff16815260200160008152602001600081525090565b6000604051905090565b600080fd5b600080fd5b6000819050919050565b6110ce816110bb565b81146110d957600080fd5b50565b6000813590506110eb816110c5565b92915050565b600060208284031215611107576111066110b1565b5b6000611115848285016110dc565b91505092915050565b600073ffffffffffffffffffffffffffffffffffffffff82169050919050565b60006111498261111e565b9050919050565b6111598161113e565b82525050565b611168816110bb565b82525050565b60006080820190506111836000830187611150565b6111906020830186611150565b61119d604083018561115f565b6111aa606083018461115f565b95945050505050565b6111bc8161113e565b81146111c757600080fd5b50565b6000813590506111d9816111b3565b92915050565b600080604083850312156111f6576111f56110b1565b5b6000611204858286016110dc565b9250506020611215858286016111ca565b9150509250929050565b6000602082019050611234600083018461115f565b92915050565b600080fd5b600080fd5b6000601f19601f8301169050919050565b7f4e487b7100000000000000000000000000000000000000000000000000000000600052604160045260246000fd5b61128d82611244565b810181811067ffffffffffffffff821117156112ac576112ab611255565b5b80604052505050565b60006112bf6110a7565b90506112cb8282611284565b919050565b600067ffffffffffffffff8211156112eb576112ea611255565b5b6112f482611244565b9050602081019050919050565b82818337600083830152505050565b600061132361131e846112d0565b6112b5565b90508281526020810184848401111561133f5761133e61123f565b5b61134a848285611301565b509392505050565b600082601f8301126113675761136661123a565b5b8135611377848260208601611310565b91505092915050565b60008060408385031215611397576113966110b1565b5b600083013567ffffffffffffffff8111156113b5576113b46110b6565b5b6113c185828601611352565b925050602083013567ffffffffffffffff8111156113e2576113e16110b6565b5b6113ee85828601611352565b9150509250929050565b60008115159050919050565b61140d816113f8565b82525050565b60006020820190506114286000830184611404565b92915050565b600081519050919050565b600082825260208201905092915050565b60005b8381101561146857808201518184015260208101905061144d565b60008484015250505050565b600061147f8261142e565b6114898185611439565b935061149981856020860161144a565b6114a281611244565b840191505092915050565b600060208201905081810360008301526114c78184611474565b905092915050565b6114d88161113e565b82525050565b6114e7816110bb565b82525050565b60808201600082015161150360008501826114cf565b50602082015161151660208501826114cf565b50604082015161152960408501826114de565b50606082015161153c60608501826114de565b50505050565b600060808201905061155760008301846114ed565b92915050565b600081519050919050565b600082825260208201905092915050565b6000819050602082019050919050565b60808201600082015161159f60008501826114cf565b5060208201516115b260208501826114cf565b5060408201516115c560408501826114de565b5060608201516115d860608501826114de565b50505050565b60006115ea8383611589565b60808301905092915050565b6000602082019050919050565b600061160e8261155d565b6116188185611568565b935061162383611579565b8060005b8381101561165457815161163b88826115de565b9750611646836115f6565b925050600181019050611627565b5085935050505092915050565b6000602082019050818103600083015261167b8184611603565b905092915050565b7f54686973206164647265737320646f65736e2774206578697374730000000000600082015250565b60006116b9601b83611439565b91506116c482611683565b602082019050919050565b600060208201905081810360008301526116e8816116ac565b9050919050565b7f506c6561736520696e7365727420796f75722063617264000000000000000000600082015250565b6000611725601783611439565b9150611730826116ef565b602082019050919050565b6000602082019050818103600083015261175481611718565b9050919050565b7f4e487b7100000000000000000000000000000000000000000000000000000000600052601160045260246000fd5b6000611795826110bb565b91506117a0836110bb565b92508282019050808211156117b8576117b761175b565b5b92915050565b7f4e487b7100000000000000000000000000000000000000000000000000000000600052600160045260246000fd5b7f6f6e6c792035207472616e73616374696f6e7320706572206461790000000000600082015250565b6000611823601b83611439565b915061182e826117ed565b602082019050919050565b6000602082019050818103600083015261185281611816565b9050919050565b6000611864826110bb565b915061186f836110bb565b92508282039050818111156118875761188661175b565b5b92915050565b7f4e487b7100000000000000000000000000000000000000000000000000000000600052602260045260246000fd5b600060028204905060018216806118d457607f821691505b6020821081036118e7576118e661188d565b5b50919050565b60008190508160005260206000209050919050565b60006020601f8301049050919050565b600082821b905092915050565b60006008830261194f7fffffffffffffffffffffffffffffffffffffffffffffffffffffffffffffffff82611912565b6119598683611912565b95508019841693508086168417925050509392505050565b6000819050919050565b600061199661199161198c846110bb565b611971565b6110bb565b9050919050565b6000819050919050565b6119b08361197b565b6119c46119bc8261199d565b84845461191f565b825550505050565b600090565b6119d96119cc565b6119e48184846119a7565b505050565b5b81811015611a08576119fd6000826119d1565b6001810190506119ea565b5050565b601f821115611a4d57611a1e816118ed565b611a2784611902565b81016020851015611a36578190505b611a4a611a4285611902565b8301826119e9565b50505b505050565b600082821c905092915050565b6000611a7060001984600802611a52565b1980831691505092915050565b6000611a898383611a5f565b9150826002028217905092915050565b611aa28261142e565b67ffffffffffffffff811115611abb57611aba611255565b5b611ac582546118bc565b611ad0828285611a0c565b600060209050601f831160018114611b035760008415611af1578287015190505b611afb8582611a7d565b865550611b63565b601f198416611b11866118ed565b60005b82811015611b3957848901518255600182019150602085019450602081019050611b14565b86831015611b565784890151611b52601f891682611a5f565b8355505b6001600288020188555050505b505050505050565b7f4e6f7420656e6f7567682066756e647300000000000000000000000000000000600082015250565b6000611ba1601083611439565b9150611bac82611b6b565b602082019050919050565b60006020820190508181036000830152611bd081611b94565b9050919050565b7f4e6f2076616c6964206372656469742063617264000000000000000000000000600082015250565b6000611c0d601483611439565b9150611c1882611bd7565b602082019050919050565b60006020820190508181036000830152611c3c81611c00565b9050919050565b7f4e6f7420656e6f7567682066756e6473206f6e206163636f756e740000000000600082015250565b6000611c79601b83611439565b9150611c8482611c43565b602082019050919050565b60006020820190508181036000830152611ca881611c6c565b9050919050565b6000611cba826110bb565b91507fffffffffffffffffffffffffffffffffffffffffffffffffffffffffffffffff8203611cec57611ceb61175b565b5b60018201905091905056fea2646970667358221220b5ec9353c221f897bd5934904e6cf590a6d336360a5012f518442f876c97252b64736f6c63430008100033",
					"opcodes": "PUSH1 0x80 PUSH1 0x40 MSTORE PUSH1 0x0 PUSH1 0x2 SSTORE PUSH1 0x0 PUSH1 0xE SSTORE PUSH1 0x0 PUSH1 0xF PUSH1 0x0 PUSH2 0x100 EXP DUP2 SLOAD DUP2 PUSH1 0xFF MUL NOT AND SWAP1 DUP4 ISZERO ISZERO MUL OR SWAP1 SSTORE POP CALLVALUE DUP1 ISZERO PUSH3 0x36 JUMPI PUSH1 0x0 DUP1 REVERT JUMPDEST POP PUSH1 0x40 MLOAD PUSH3 0x1E19 CODESIZE SUB DUP1 PUSH3 0x1E19 DUP4 CODECOPY DUP2 DUP2 ADD PUSH1 0x40 MSTORE DUP2 ADD SWAP1 PUSH3 0x5C SWAP2 SWAP1 PUSH3 0xAA JUMP JUMPDEST DUP1 PUSH1 0x7 DUP2 SWAP1 SSTORE POP POP PUSH3 0xDC JUMP JUMPDEST PUSH1 0x0 DUP1 REVERT JUMPDEST PUSH1 0x0 DUP2 SWAP1 POP SWAP2 SWAP1 POP JUMP JUMPDEST PUSH3 0x84 DUP2 PUSH3 0x6F JUMP JUMPDEST DUP2 EQ PUSH3 0x90 JUMPI PUSH1 0x0 DUP1 REVERT JUMPDEST POP JUMP JUMPDEST PUSH1 0x0 DUP2 MLOAD SWAP1 POP PUSH3 0xA4 DUP2 PUSH3 0x79 JUMP JUMPDEST SWAP3 SWAP2 POP POP JUMP JUMPDEST PUSH1 0x0 PUSH1 0x20 DUP3 DUP5 SUB SLT ISZERO PUSH3 0xC3 JUMPI PUSH3 0xC2 PUSH3 0x6A JUMP JUMPDEST JUMPDEST PUSH1 0x0 PUSH3 0xD3 DUP5 DUP3 DUP6 ADD PUSH3 0x93 JUMP JUMPDEST SWAP2 POP POP SWAP3 SWAP2 POP POP JUMP JUMPDEST PUSH2 0x1D2D DUP1 PUSH3 0xEC PUSH1 0x0 CODECOPY PUSH1 0x0 RETURN INVALID PUSH1 0x80 PUSH1 0x40 MSTORE PUSH1 0x4 CALLDATASIZE LT PUSH2 0x11F JUMPI PUSH1 0x0 CALLDATALOAD PUSH1 0xE0 SHR DUP1 PUSH4 0x54876921 GT PUSH2 0xA0 JUMPI DUP1 PUSH4 0x83920E90 GT PUSH2 0x64 JUMPI DUP1 PUSH4 0x83920E90 EQ PUSH2 0x3D2 JUMPI DUP1 PUSH4 0x8E029C0B EQ PUSH2 0x3FD JUMPI DUP1 PUSH4 0x8FA11864 EQ PUSH2 0x414 JUMPI DUP1 PUSH4 0xAA8C217C EQ PUSH2 0x43F JUMPI DUP1 PUSH4 0xE21F37CE EQ PUSH2 0x46A JUMPI PUSH2 0x11F JUMP JUMPDEST DUP1 PUSH4 0x54876921 EQ PUSH2 0x2E8 JUMPI DUP1 PUSH4 0x557ED1BA EQ PUSH2 0x311 JUMPI DUP1 PUSH4 0x57BF72E3 EQ PUSH2 0x33C JUMPI DUP1 PUSH4 0x7B9A3F4C EQ PUSH2 0x37C JUMPI DUP1 PUSH4 0x7EB9F571 EQ PUSH2 0x3A7 JUMPI PUSH2 0x11F JUMP JUMPDEST DUP1 PUSH4 0x24BA506D GT PUSH2 0xE7 JUMPI DUP1 PUSH4 0x24BA506D EQ PUSH2 0x1FF JUMPI DUP1 PUSH4 0x3C626F00 EQ PUSH2 0x22A JUMPI DUP1 PUSH4 0x42FB7936 EQ PUSH2 0x255 JUMPI DUP1 PUSH4 0x45838C42 EQ PUSH2 0x280 JUMPI DUP1 PUSH4 0x4B28F9A2 EQ PUSH2 0x2BD JUMPI PUSH2 0x11F JUMP JUMPDEST DUP1 PUSH4 0x4EF5B21 EQ PUSH2 0x124 JUMPI DUP1 PUSH4 0x62A7544 EQ PUSH2 0x164 JUMPI DUP1 PUSH4 0xE85FA72 EQ PUSH2 0x180 JUMPI DUP1 PUSH4 0x12065FE0 EQ PUSH2 0x1AB JUMPI DUP1 PUSH4 0x12A029A4 EQ PUSH2 0x1D6 JUMPI JUMPDEST PUSH1 0x0 DUP1 REVERT JUMPDEST CALLVALUE DUP1 ISZERO PUSH2 0x130 JUMPI PUSH1 0x0 DUP1 REVERT JUMPDEST POP PUSH2 0x14B PUSH1 0x4 DUP1 CALLDATASIZE SUB DUP2 ADD SWAP1 PUSH2 0x146 SWAP2 SWAP1 PUSH2 0x10F1 JUMP JUMPDEST PUSH2 0x495 JUMP JUMPDEST PUSH1 0x40 MLOAD PUSH2 0x15B SWAP5 SWAP4 SWAP3 SWAP2 SWAP1 PUSH2 0x116E JUMP JUMPDEST PUSH1 0x40 MLOAD DUP1 SWAP2 SUB SWAP1 RETURN JUMPDEST PUSH2 0x17E PUSH1 0x4 DUP1 CALLDATASIZE SUB DUP2 ADD SWAP1 PUSH2 0x179 SWAP2 SWAP1 PUSH2 0x11DF JUMP JUMPDEST PUSH2 0x515 JUMP JUMPDEST STOP JUMPDEST CALLVALUE DUP1 ISZERO PUSH2 0x18C JUMPI PUSH1 0x0 DUP1 REVERT JUMPDEST POP PUSH2 0x195 PUSH2 0x85A JUMP JUMPDEST PUSH1 0x40 MLOAD PUSH2 0x1A2 SWAP2 SWAP1 PUSH2 0x121F JUMP JUMPDEST PUSH1 0x40 MLOAD DUP1 SWAP2 SUB SWAP1 RETURN JUMPDEST CALLVALUE DUP1 ISZERO PUSH2 0x1B7 JUMPI PUSH1 0x0 DUP1 REVERT JUMPDEST POP PUSH2 0x1C0 PUSH2 0x860 JUMP JUMPDEST PUSH1 0x40 MLOAD PUSH2 0x1CD SWAP2 SWAP1 PUSH2 0x121F JUMP JUMPDEST PUSH1 0x40 MLOAD DUP1 SWAP2 SUB SWAP1 RETURN JUMPDEST CALLVALUE DUP1 ISZERO PUSH2 0x1E2 JUMPI PUSH1 0x0 DUP1 REVERT JUMPDEST POP PUSH2 0x1FD PUSH1 0x4 DUP1 CALLDATASIZE SUB DUP2 ADD SWAP1 PUSH2 0x1F8 SWAP2 SWAP1 PUSH2 0x1380 JUMP JUMPDEST PUSH2 0x86D JUMP JUMPDEST STOP JUMPDEST CALLVALUE DUP1 ISZERO PUSH2 0x20B JUMPI PUSH1 0x0 DUP1 REVERT JUMPDEST POP PUSH2 0x214 PUSH2 0x91E JUMP JUMPDEST PUSH1 0x40 MLOAD PUSH2 0x221 SWAP2 SWAP1 PUSH2 0x121F JUMP JUMPDEST PUSH1 0x40 MLOAD DUP1 SWAP2 SUB SWAP1 RETURN JUMPDEST CALLVALUE DUP1 ISZERO PUSH2 0x236 JUMPI PUSH1 0x0 DUP1 REVERT JUMPDEST POP PUSH2 0x23F PUSH2 0x928 JUMP JUMPDEST PUSH1 0x40 MLOAD PUSH2 0x24C SWAP2 SWAP1 PUSH2 0x1413 JUMP JUMPDEST PUSH1 0x40 MLOAD DUP1 SWAP2 SUB SWAP1 RETURN JUMPDEST CALLVALUE DUP1 ISZERO PUSH2 0x261 JUMPI PUSH1 0x0 DUP1 REVERT JUMPDEST POP PUSH2 0x26A PUSH2 0x93B JUMP JUMPDEST PUSH1 0x40 MLOAD PUSH2 0x277 SWAP2 SWAP1 PUSH2 0x14AD JUMP JUMPDEST PUSH1 0x40 MLOAD DUP1 SWAP2 SUB SWAP1 RETURN JUMPDEST CALLVALUE DUP1 ISZERO PUSH2 0x28C JUMPI PUSH1 0x0 DUP1 REVERT JUMPDEST POP PUSH2 0x2A7 PUSH1 0x4 DUP1 CALLDATASIZE SUB DUP2 ADD SWAP1 PUSH2 0x2A2 SWAP2 SWAP1 PUSH2 0x10F1 JUMP JUMPDEST PUSH2 0x9C9 JUMP JUMPDEST PUSH1 0x40 MLOAD PUSH2 0x2B4 SWAP2 SWAP1 PUSH2 0x1542 JUMP JUMPDEST PUSH1 0x40 MLOAD DUP1 SWAP2 SUB SWAP1 RETURN JUMPDEST CALLVALUE DUP1 ISZERO PUSH2 0x2C9 JUMPI PUSH1 0x0 DUP1 REVERT JUMPDEST POP PUSH2 0x2D2 PUSH2 0xACC JUMP JUMPDEST PUSH1 0x40 MLOAD PUSH2 0x2DF SWAP2 SWAP1 PUSH2 0x121F JUMP JUMPDEST PUSH1 0x40 MLOAD DUP1 SWAP2 SUB SWAP1 RETURN JUMPDEST CALLVALUE DUP1 ISZERO PUSH2 0x2F4 JUMPI PUSH1 0x0 DUP1 REVERT JUMPDEST POP PUSH2 0x30F PUSH1 0x4 DUP1 CALLDATASIZE SUB DUP2 ADD SWAP1 PUSH2 0x30A SWAP2 SWAP1 PUSH2 0x10F1 JUMP JUMPDEST PUSH2 0xAD2 JUMP JUMPDEST STOP JUMPDEST CALLVALUE DUP1 ISZERO PUSH2 0x31D JUMPI PUSH1 0x0 DUP1 REVERT JUMPDEST POP PUSH2 0x326 PUSH2 0xB4A JUMP JUMPDEST PUSH1 0x40 MLOAD PUSH2 0x333 SWAP2 SWAP1 PUSH2 0x121F JUMP JUMPDEST PUSH1 0x40 MLOAD DUP1 SWAP2 SUB SWAP1 RETURN JUMPDEST CALLVALUE DUP1 ISZERO PUSH2 0x348 JUMPI PUSH1 0x0 DUP1 REVERT JUMPDEST POP PUSH2 0x363 PUSH1 0x4 DUP1 CALLDATASIZE SUB DUP2 ADD SWAP1 PUSH2 0x35E SWAP2 SWAP1 PUSH2 0x10F1 JUMP JUMPDEST PUSH2 0xB52 JUMP JUMPDEST PUSH1 0x40 MLOAD PUSH2 0x373 SWAP5 SWAP4 SWAP3 SWAP2 SWAP1 PUSH2 0x116E JUMP JUMPDEST PUSH1 0x40 MLOAD DUP1 SWAP2 SUB SWAP1 RETURN JUMPDEST CALLVALUE DUP1 ISZERO PUSH2 0x388 JUMPI PUSH1 0x0 DUP1 REVERT JUMPDEST POP PUSH2 0x391 PUSH2 0xBC2 JUMP JUMPDEST PUSH1 0x40 MLOAD PUSH2 0x39E SWAP2 SWAP1 PUSH2 0x121F JUMP JUMPDEST PUSH1 0x40 MLOAD DUP1 SWAP2 SUB SWAP1 RETURN JUMPDEST CALLVALUE DUP1 ISZERO PUSH2 0x3B3 JUMPI PUSH1 0x0 DUP1 REVERT JUMPDEST POP PUSH2 0x3BC PUSH2 0xBC8 JUMP JUMPDEST PUSH1 0x40 MLOAD PUSH2 0x3C9 SWAP2 SWAP1 PUSH2 0x121F JUMP JUMPDEST PUSH1 0x40 MLOAD DUP1 SWAP2 SUB SWAP1 RETURN JUMPDEST CALLVALUE DUP1 ISZERO PUSH2 0x3DE JUMPI PUSH1 0x0 DUP1 REVERT JUMPDEST POP PUSH2 0x3E7 PUSH2 0xBCE JUMP JUMPDEST PUSH1 0x40 MLOAD PUSH2 0x3F4 SWAP2 SWAP1 PUSH2 0x1661 JUMP JUMPDEST PUSH1 0x40 MLOAD DUP1 SWAP2 SUB SWAP1 RETURN JUMPDEST CALLVALUE DUP1 ISZERO PUSH2 0x409 JUMPI PUSH1 0x0 DUP1 REVERT JUMPDEST POP PUSH2 0x412 PUSH2 0xCED JUMP JUMPDEST STOP JUMPDEST CALLVALUE DUP1 ISZERO PUSH2 0x420 JUMPI PUSH1 0x0 DUP1 REVERT JUMPDEST POP PUSH2 0x429 PUSH2 0xD0A JUMP JUMPDEST PUSH1 0x40 MLOAD PUSH2 0x436 SWAP2 SWAP1 PUSH2 0x14AD JUMP JUMPDEST PUSH1 0x40 MLOAD DUP1 SWAP2 SUB SWAP1 RETURN JUMPDEST CALLVALUE DUP1 ISZERO PUSH2 0x44B JUMPI PUSH1 0x0 DUP1 REVERT JUMPDEST POP PUSH2 0x454 PUSH2 0xD98 JUMP JUMPDEST PUSH1 0x40 MLOAD PUSH2 0x461 SWAP2 SWAP1 PUSH2 0x121F JUMP JUMPDEST PUSH1 0x40 MLOAD DUP1 SWAP2 SUB SWAP1 RETURN JUMPDEST CALLVALUE DUP1 ISZERO PUSH2 0x476 JUMPI PUSH1 0x0 DUP1 REVERT JUMPDEST POP PUSH2 0x47F PUSH2 0xD9E JUMP JUMPDEST PUSH1 0x40 MLOAD PUSH2 0x48C SWAP2 SWAP1 PUSH2 0x14AD JUMP JUMPDEST PUSH1 0x40 MLOAD DUP1 SWAP2 SUB SWAP1 RETURN JUMPDEST PUSH1 0x0 DUP2 DUP2 SLOAD DUP2 LT PUSH2 0x4A5 JUMPI PUSH1 0x0 DUP1 REVERT JUMPDEST SWAP1 PUSH1 0x0 MSTORE PUSH1 0x20 PUSH1 0x0 KECCAK256 SWAP1 PUSH1 0x4 MUL ADD PUSH1 0x0 SWAP2 POP SWAP1 POP DUP1 PUSH1 0x0 ADD PUSH1 0x0 SWAP1 SLOAD SWAP1 PUSH2 0x100 EXP SWAP1 DIV PUSH20 0xFFFFFFFFFFFFFFFFFFFFFFFFFFFFFFFFFFFFFFFF AND SWAP1 DUP1 PUSH1 0x1 ADD PUSH1 0x0 SWAP1 SLOAD SWAP1 PUSH2 0x100 EXP SWAP1 DIV PUSH20 0xFFFFFFFFFFFFFFFFFFFFFFFFFFFFFFFFFFFFFFFF AND SWAP1 DUP1 PUSH1 0x2 ADD SLOAD SWAP1 DUP1 PUSH1 0x3 ADD SLOAD SWAP1 POP DUP5 JUMP JUMPDEST DUP1 DUP1 PUSH1 0x8 PUSH1 0x0 PUSH2 0x100 EXP DUP2 SLOAD DUP2 PUSH20 0xFFFFFFFFFFFFFFFFFFFFFFFFFFFFFFFFFFFFFFFF MUL NOT AND SWAP1 DUP4 PUSH20 0xFFFFFFFFFFFFFFFFFFFFFFFFFFFFFFFFFFFFFFFF AND MUL OR SWAP1 SSTORE POP PUSH1 0x0 PUSH20 0xFFFFFFFFFFFFFFFFFFFFFFFFFFFFFFFFFFFFFFFF AND DUP2 PUSH20 0xFFFFFFFFFFFFFFFFFFFFFFFFFFFFFFFFFFFFFFFF AND SUB PUSH2 0x5C6 JUMPI PUSH1 0x40 MLOAD PUSH32 0x8C379A000000000000000000000000000000000000000000000000000000000 DUP2 MSTORE PUSH1 0x4 ADD PUSH2 0x5BD SWAP1 PUSH2 0x16CF JUMP JUMPDEST PUSH1 0x40 MLOAD DUP1 SWAP2 SUB SWAP1 REVERT JUMPDEST PUSH1 0x0 ISZERO ISZERO PUSH1 0xF PUSH1 0x0 SWAP1 SLOAD SWAP1 PUSH2 0x100 EXP SWAP1 DIV PUSH1 0xFF AND ISZERO ISZERO SUB PUSH2 0x61C JUMPI PUSH1 0x40 MLOAD PUSH32 0x8C379A000000000000000000000000000000000000000000000000000000000 DUP2 MSTORE PUSH1 0x4 ADD PUSH2 0x613 SWAP1 PUSH2 0x173B JUMP JUMPDEST PUSH1 0x40 MLOAD DUP1 SWAP2 SUB SWAP1 REVERT JUMPDEST PUSH1 0x5 PUSH1 0xE SLOAD LT ISZERO DUP1 ISZERO PUSH2 0x63F JUMPI POP PUSH3 0x15180 PUSH1 0xD SLOAD PUSH2 0x63B SWAP2 SWAP1 PUSH2 0x178A JUMP JUMPDEST TIMESTAMP GT ISZERO JUMPDEST ISZERO PUSH2 0x69A JUMPI PUSH1 0x0 PUSH1 0xE DUP2 SWAP1 SSTORE POP PUSH1 0x0 PUSH1 0xE SLOAD EQ PUSH2 0x65F JUMPI PUSH2 0x65E PUSH2 0x17BE JUMP JUMPDEST JUMPDEST PUSH1 0x40 MLOAD PUSH32 0x8C379A000000000000000000000000000000000000000000000000000000000 DUP2 MSTORE PUSH1 0x4 ADD PUSH2 0x691 SWAP1 PUSH2 0x1839 JUMP JUMPDEST PUSH1 0x40 MLOAD DUP1 SWAP2 SUB SWAP1 REVERT JUMPDEST PUSH1 0x5 PUSH1 0xE SLOAD GT ISZERO DUP1 ISZERO PUSH2 0x6BB JUMPI POP PUSH1 0x1E PUSH1 0xD SLOAD PUSH2 0x6B7 SWAP2 SWAP1 PUSH2 0x178A JUMP JUMPDEST TIMESTAMP LT ISZERO JUMPDEST ISZERO PUSH2 0x6E3 JUMPI PUSH1 0x0 PUSH1 0xE DUP2 SWAP1 SSTORE POP PUSH1 0x0 PUSH1 0xE SLOAD EQ PUSH2 0x6DB JUMPI PUSH2 0x6DA PUSH2 0x17BE JUMP JUMPDEST JUMPDEST TIMESTAMP PUSH1 0xD DUP2 SWAP1 SSTORE POP JUMPDEST DUP2 PUSH1 0x8 PUSH1 0x0 PUSH2 0x100 EXP DUP2 SLOAD DUP2 PUSH20 0xFFFFFFFFFFFFFFFFFFFFFFFFFFFFFFFFFFFFFFFF MUL NOT AND SWAP1 DUP4 PUSH20 0xFFFFFFFFFFFFFFFFFFFFFFFFFFFFFFFFFFFFFFFF AND MUL OR SWAP1 SSTORE POP DUP3 PUSH1 0x6 DUP2 SWAP1 SSTORE POP PUSH1 0x1 PUSH1 0xE PUSH1 0x0 DUP3 DUP3 SLOAD PUSH2 0x73E SWAP2 SWAP1 PUSH2 0x178A JUMP JUMPDEST SWAP3 POP POP DUP2 SWAP1 SSTORE POP PUSH1 0x0 PUSH1 0x7 SLOAD GT DUP1 ISZERO PUSH2 0x75A JUMPI POP PUSH1 0x6 SLOAD PUSH1 0x7 SLOAD GT JUMPDEST ISZERO PUSH2 0x81A JUMPI PUSH1 0x6 SLOAD PUSH1 0x7 PUSH1 0x0 DUP3 DUP3 SLOAD PUSH2 0x773 SWAP2 SWAP1 PUSH2 0x1859 JUMP JUMPDEST SWAP3 POP POP DUP2 SWAP1 SSTORE POP PUSH1 0x6 SLOAD PUSH1 0xC PUSH1 0x0 DUP3 DUP3 SLOAD PUSH2 0x78E SWAP2 SWAP1 PUSH2 0x178A JUMP JUMPDEST SWAP3 POP POP DUP2 SWAP1 SSTORE POP PUSH2 0x7C5 CALLER PUSH1 0x8 PUSH1 0x0 SWAP1 SLOAD SWAP1 PUSH2 0x100 EXP SWAP1 DIV PUSH20 0xFFFFFFFFFFFFFFFFFFFFFFFFFFFFFFFFFFFFFFFF AND PUSH1 0x6 SLOAD TIMESTAMP PUSH2 0xE2C JUMP JUMPDEST PUSH2 0x7D0 PUSH1 0x6 SLOAD PUSH2 0x1027 JUMP JUMPDEST PUSH1 0x40 MLOAD DUP1 PUSH1 0x40 ADD PUSH1 0x40 MSTORE DUP1 PUSH1 0x12 DUP2 MSTORE PUSH1 0x20 ADD PUSH32 0x5472616E7366657220636F6D706C657465640000000000000000000000000000 DUP2 MSTORE POP PUSH1 0x9 SWAP1 DUP2 PUSH2 0x814 SWAP2 SWAP1 PUSH2 0x1A99 JUMP JUMPDEST POP PUSH2 0x855 JUMP JUMPDEST PUSH1 0x40 MLOAD PUSH32 0x8C379A000000000000000000000000000000000000000000000000000000000 DUP2 MSTORE PUSH1 0x4 ADD PUSH2 0x84C SWAP1 PUSH2 0x1BB7 JUMP JUMPDEST PUSH1 0x40 MLOAD DUP1 SWAP2 SUB SWAP1 REVERT JUMPDEST POP POP POP JUMP JUMPDEST PUSH1 0xD SLOAD DUP2 JUMP JUMPDEST PUSH1 0x0 PUSH1 0x3 PUSH1 0x0 ADD SLOAD SWAP1 POP SWAP1 JUMP JUMPDEST DUP2 PUSH1 0xA SWAP1 DUP2 PUSH2 0x87C SWAP2 SWAP1 PUSH2 0x1A99 JUMP JUMPDEST POP DUP1 PUSH1 0xB SWAP1 DUP2 PUSH2 0x88C SWAP2 SWAP1 PUSH2 0x1A99 JUMP JUMPDEST POP PUSH1 0x1 PUSH1 0xF PUSH1 0x0 PUSH2 0x100 EXP DUP2 SLOAD DUP2 PUSH1 0xFF MUL NOT AND SWAP1 DUP4 ISZERO ISZERO MUL OR SWAP1 SSTORE POP TIMESTAMP PUSH1 0xD DUP2 SWAP1 SSTORE POP PUSH1 0x8 PUSH1 0xA DUP1 SLOAD PUSH2 0x8BE SWAP1 PUSH2 0x18BC JUMP JUMPDEST SWAP1 POP EQ DUP1 ISZERO PUSH2 0x8DB JUMPI POP PUSH1 0x3 PUSH1 0xB DUP1 SLOAD PUSH2 0x8D7 SWAP1 PUSH2 0x18BC JUMP JUMPDEST SWAP1 POP EQ JUMPDEST PUSH2 0x91A JUMPI PUSH1 0x40 MLOAD PUSH32 0x8C379A000000000000000000000000000000000000000000000000000000000 DUP2 MSTORE PUSH1 0x4 ADD PUSH2 0x911 SWAP1 PUSH2 0x1C23 JUMP JUMPDEST PUSH1 0x40 MLOAD DUP1 SWAP2 SUB SWAP1 REVERT JUMPDEST POP POP JUMP JUMPDEST PUSH1 0x0 PUSH1 0x2 SLOAD SWAP1 POP SWAP1 JUMP JUMPDEST PUSH1 0xF PUSH1 0x0 SWAP1 SLOAD SWAP1 PUSH2 0x100 EXP SWAP1 DIV PUSH1 0xFF AND DUP2 JUMP JUMPDEST PUSH1 0xB DUP1 SLOAD PUSH2 0x948 SWAP1 PUSH2 0x18BC JUMP JUMPDEST DUP1 PUSH1 0x1F ADD PUSH1 0x20 DUP1 SWAP2 DIV MUL PUSH1 0x20 ADD PUSH1 0x40 MLOAD SWAP1 DUP2 ADD PUSH1 0x40 MSTORE DUP1 SWAP3 SWAP2 SWAP1 DUP2 DUP2 MSTORE PUSH1 0x20 ADD DUP3 DUP1 SLOAD PUSH2 0x974 SWAP1 PUSH2 0x18BC JUMP JUMPDEST DUP1 ISZERO PUSH2 0x9C1 JUMPI DUP1 PUSH1 0x1F LT PUSH2 0x996 JUMPI PUSH2 0x100 DUP1 DUP4 SLOAD DIV MUL DUP4 MSTORE SWAP2 PUSH1 0x20 ADD SWAP2 PUSH2 0x9C1 JUMP JUMPDEST DUP3 ADD SWAP2 SWAP1 PUSH1 0x0 MSTORE PUSH1 0x20 PUSH1 0x0 KECCAK256 SWAP1 JUMPDEST DUP2 SLOAD DUP2 MSTORE SWAP1 PUSH1 0x1 ADD SWAP1 PUSH1 0x20 ADD DUP1 DUP4 GT PUSH2 0x9A4 JUMPI DUP3 SWAP1 SUB PUSH1 0x1F AND DUP3 ADD SWAP2 JUMPDEST POP POP POP POP POP DUP2 JUMP JUMPDEST PUSH2 0x9D1 PUSH2 0x1053 JUMP JUMPDEST PUSH1 0x0 DUP3 PUSH1 0x0 DUP1 SLOAD SWAP1 POP PUSH2 0x9E4 SWAP2 SWAP1 PUSH2 0x1859 JUMP JUMPDEST SWAP1 POP PUSH1 0x1 PUSH1 0x0 DUP3 DUP2 MSTORE PUSH1 0x20 ADD SWAP1 DUP2 MSTORE PUSH1 0x20 ADD PUSH1 0x0 KECCAK256 PUSH1 0x40 MLOAD DUP1 PUSH1 0x80 ADD PUSH1 0x40 MSTORE SWAP1 DUP2 PUSH1 0x0 DUP3 ADD PUSH1 0x0 SWAP1 SLOAD SWAP1 PUSH2 0x100 EXP SWAP1 DIV PUSH20 0xFFFFFFFFFFFFFFFFFFFFFFFFFFFFFFFFFFFFFFFF AND PUSH20 0xFFFFFFFFFFFFFFFFFFFFFFFFFFFFFFFFFFFFFFFF AND PUSH20 0xFFFFFFFFFFFFFFFFFFFFFFFFFFFFFFFFFFFFFFFF AND DUP2 MSTORE PUSH1 0x20 ADD PUSH1 0x1 DUP3 ADD PUSH1 0x0 SWAP1 SLOAD SWAP1 PUSH2 0x100 EXP SWAP1 DIV PUSH20 0xFFFFFFFFFFFFFFFFFFFFFFFFFFFFFFFFFFFFFFFF AND PUSH20 0xFFFFFFFFFFFFFFFFFFFFFFFFFFFFFFFFFFFFFFFF AND PUSH20 0xFFFFFFFFFFFFFFFFFFFFFFFFFFFFFFFFFFFFFFFF AND DUP2 MSTORE PUSH1 0x20 ADD PUSH1 0x2 DUP3 ADD SLOAD DUP2 MSTORE PUSH1 0x20 ADD PUSH1 0x3 DUP3 ADD SLOAD DUP2 MSTORE POP POP SWAP2 POP POP SWAP2 SWAP1 POP JUMP JUMPDEST PUSH1 0xE SLOAD DUP2 JUMP JUMPDEST DUP1 PUSH1 0x3 PUSH1 0x2 ADD DUP2 SWAP1 SSTORE POP PUSH1 0x3 PUSH1 0x2 ADD SLOAD PUSH1 0x3 PUSH1 0x0 ADD SLOAD PUSH2 0xAF2 SWAP2 SWAP1 PUSH2 0x1859 JUMP JUMPDEST PUSH1 0x3 PUSH1 0x0 ADD DUP2 SWAP1 SSTORE POP PUSH1 0x3 PUSH1 0x0 ADD SLOAD PUSH1 0x3 PUSH1 0x2 ADD SLOAD LT PUSH2 0xB47 JUMPI PUSH1 0x40 MLOAD PUSH32 0x8C379A000000000000000000000000000000000000000000000000000000000 DUP2 MSTORE PUSH1 0x4 ADD PUSH2 0xB3E SWAP1 PUSH2 0x1C8F JUMP JUMPDEST PUSH1 0x40 MLOAD DUP1 SWAP2 SUB SWAP1 REVERT JUMPDEST POP JUMP JUMPDEST PUSH1 0x0 TIMESTAMP SWAP1 POP SWAP1 JUMP JUMPDEST PUSH1 0x1 PUSH1 0x20 MSTORE DUP1 PUSH1 0x0 MSTORE PUSH1 0x40 PUSH1 0x0 KECCAK256 PUSH1 0x0 SWAP2 POP SWAP1 POP DUP1 PUSH1 0x0 ADD PUSH1 0x0 SWAP1 SLOAD SWAP1 PUSH2 0x100 EXP SWAP1 DIV PUSH20 0xFFFFFFFFFFFFFFFFFFFFFFFFFFFFFFFFFFFFFFFF AND SWAP1 DUP1 PUSH1 0x1 ADD PUSH1 0x0 SWAP1 SLOAD SWAP1 PUSH2 0x100 EXP SWAP1 DIV PUSH20 0xFFFFFFFFFFFFFFFFFFFFFFFFFFFFFFFFFFFFFFFF AND SWAP1 DUP1 PUSH1 0x2 ADD SLOAD SWAP1 DUP1 PUSH1 0x3 ADD SLOAD SWAP1 POP DUP5 JUMP JUMPDEST PUSH1 0x7 SLOAD DUP2 JUMP JUMPDEST PUSH1 0xC SLOAD DUP2 JUMP JUMPDEST PUSH1 0x60 PUSH1 0x0 DUP1 SLOAD DUP1 PUSH1 0x20 MUL PUSH1 0x20 ADD PUSH1 0x40 MLOAD SWAP1 DUP2 ADD PUSH1 0x40 MSTORE DUP1 SWAP3 SWAP2 SWAP1 DUP2 DUP2 MSTORE PUSH1 0x20 ADD PUSH1 0x0 SWAP1 JUMPDEST DUP3 DUP3 LT ISZERO PUSH2 0xCE4 JUMPI DUP4 DUP3 SWAP1 PUSH1 0x0 MSTORE PUSH1 0x20 PUSH1 0x0 KECCAK256 SWAP1 PUSH1 0x4 MUL ADD PUSH1 0x40 MLOAD DUP1 PUSH1 0x80 ADD PUSH1 0x40 MSTORE SWAP1 DUP2 PUSH1 0x0 DUP3 ADD PUSH1 0x0 SWAP1 SLOAD SWAP1 PUSH2 0x100 EXP SWAP1 DIV PUSH20 0xFFFFFFFFFFFFFFFFFFFFFFFFFFFFFFFFFFFFFFFF AND PUSH20 0xFFFFFFFFFFFFFFFFFFFFFFFFFFFFFFFFFFFFFFFF AND PUSH20 0xFFFFFFFFFFFFFFFFFFFFFFFFFFFFFFFFFFFFFFFF AND DUP2 MSTORE PUSH1 0x20 ADD PUSH1 0x1 DUP3 ADD PUSH1 0x0 SWAP1 SLOAD SWAP1 PUSH2 0x100 EXP SWAP1 DIV PUSH20 0xFFFFFFFFFFFFFFFFFFFFFFFFFFFFFFFFFFFFFFFF AND PUSH20 0xFFFFFFFFFFFFFFFFFFFFFFFFFFFFFFFFFFFFFFFF AND PUSH20 0xFFFFFFFFFFFFFFFFFFFFFFFFFFFFFFFFFFFFFFFF AND DUP2 MSTORE PUSH1 0x20 ADD PUSH1 0x2 DUP3 ADD SLOAD DUP2 MSTORE PUSH1 0x20 ADD PUSH1 0x3 DUP3 ADD SLOAD DUP2 MSTORE POP POP DUP2 MSTORE PUSH1 0x20 ADD SWAP1 PUSH1 0x1 ADD SWAP1 PUSH2 0xBF2 JUMP JUMPDEST POP POP POP POP SWAP1 POP SWAP1 JUMP JUMPDEST PUSH1 0x0 PUSH1 0xF PUSH1 0x0 PUSH2 0x100 EXP DUP2 SLOAD DUP2 PUSH1 0xFF MUL NOT AND SWAP1 DUP4 ISZERO ISZERO MUL OR SWAP1 SSTORE POP JUMP JUMPDEST PUSH1 0xA DUP1 SLOAD PUSH2 0xD17 SWAP1 PUSH2 0x18BC JUMP JUMPDEST DUP1 PUSH1 0x1F ADD PUSH1 0x20 DUP1 SWAP2 DIV MUL PUSH1 0x20 ADD PUSH1 0x40 MLOAD SWAP1 DUP2 ADD PUSH1 0x40 MSTORE DUP1 SWAP3 SWAP2 SWAP1 DUP2 DUP2 MSTORE PUSH1 0x20 ADD DUP3 DUP1 SLOAD PUSH2 0xD43 SWAP1 PUSH2 0x18BC JUMP JUMPDEST DUP1 ISZERO PUSH2 0xD90 JUMPI DUP1 PUSH1 0x1F LT PUSH2 0xD65 JUMPI PUSH2 0x100 DUP1 DUP4 SLOAD DIV MUL DUP4 MSTORE SWAP2 PUSH1 0x20 ADD SWAP2 PUSH2 0xD90 JUMP JUMPDEST DUP3 ADD SWAP2 SWAP1 PUSH1 0x0 MSTORE PUSH1 0x20 PUSH1 0x0 KECCAK256 SWAP1 JUMPDEST DUP2 SLOAD DUP2 MSTORE SWAP1 PUSH1 0x1 ADD SWAP1 PUSH1 0x20 ADD DUP1 DUP4 GT PUSH2 0xD73 JUMPI DUP3 SWAP1 SUB PUSH1 0x1F AND DUP3 ADD SWAP2 JUMPDEST POP POP POP POP POP DUP2 JUMP JUMPDEST PUSH1 0x6 SLOAD DUP2 JUMP JUMPDEST PUSH1 0x9 DUP1 SLOAD PUSH2 0xDAB SWAP1 PUSH2 0x18BC JUMP JUMPDEST DUP1 PUSH1 0x1F ADD PUSH1 0x20 DUP1 SWAP2 DIV MUL PUSH1 0x20 ADD PUSH1 0x40 MLOAD SWAP1 DUP2 ADD PUSH1 0x40 MSTORE DUP1 SWAP3 SWAP2 SWAP1 DUP2 DUP2 MSTORE PUSH1 0x20 ADD DUP3 DUP1 SLOAD PUSH2 0xDD7 SWAP1 PUSH2 0x18BC JUMP JUMPDEST DUP1 ISZERO PUSH2 0xE24 JUMPI DUP1 PUSH1 0x1F LT PUSH2 0xDF9 JUMPI PUSH2 0x100 DUP1 DUP4 SLOAD DIV MUL DUP4 MSTORE SWAP2 PUSH1 0x20 ADD SWAP2 PUSH2 0xE24 JUMP JUMPDEST DUP3 ADD SWAP2 SWAP1 PUSH1 0x0 MSTORE PUSH1 0x20 PUSH1 0x0 KECCAK256 SWAP1 JUMPDEST DUP2 SLOAD DUP2 MSTORE SWAP1 PUSH1 0x1 ADD SWAP1 PUSH1 0x20 ADD DUP1 DUP4 GT PUSH2 0xE07 JUMPI DUP3 SWAP1 SUB PUSH1 0x1F AND DUP3 ADD SWAP2 JUMPDEST POP POP POP POP POP DUP2 JUMP JUMPDEST PUSH1 0x0 PUSH1 0x40 MLOAD DUP1 PUSH1 0x80 ADD PUSH1 0x40 MSTORE DUP1 DUP7 PUSH20 0xFFFFFFFFFFFFFFFFFFFFFFFFFFFFFFFFFFFFFFFF AND DUP2 MSTORE PUSH1 0x20 ADD DUP6 PUSH20 0xFFFFFFFFFFFFFFFFFFFFFFFFFFFFFFFFFFFFFFFF AND DUP2 MSTORE PUSH1 0x20 ADD DUP5 DUP2 MSTORE PUSH1 0x20 ADD DUP4 DUP2 MSTORE POP SWAP1 POP PUSH1 0x0 DUP2 SWAP1 DUP1 PUSH1 0x1 DUP2 SLOAD ADD DUP1 DUP3 SSTORE DUP1 SWAP2 POP POP PUSH1 0x1 SWAP1 SUB SWAP1 PUSH1 0x0 MSTORE PUSH1 0x20 PUSH1 0x0 KECCAK256 SWAP1 PUSH1 0x4 MUL ADD PUSH1 0x0 SWAP1 SWAP2 SWAP1 SWAP2 SWAP1 SWAP2 POP PUSH1 0x0 DUP3 ADD MLOAD DUP2 PUSH1 0x0 ADD PUSH1 0x0 PUSH2 0x100 EXP DUP2 SLOAD DUP2 PUSH20 0xFFFFFFFFFFFFFFFFFFFFFFFFFFFFFFFFFFFFFFFF MUL NOT AND SWAP1 DUP4 PUSH20 0xFFFFFFFFFFFFFFFFFFFFFFFFFFFFFFFFFFFFFFFF AND MUL OR SWAP1 SSTORE POP PUSH1 0x20 DUP3 ADD MLOAD DUP2 PUSH1 0x1 ADD PUSH1 0x0 PUSH2 0x100 EXP DUP2 SLOAD DUP2 PUSH20 0xFFFFFFFFFFFFFFFFFFFFFFFFFFFFFFFFFFFFFFFF MUL NOT AND SWAP1 DUP4 PUSH20 0xFFFFFFFFFFFFFFFFFFFFFFFFFFFFFFFFFFFFFFFF AND MUL OR SWAP1 SSTORE POP PUSH1 0x40 DUP3 ADD MLOAD DUP2 PUSH1 0x2 ADD SSTORE PUSH1 0x60 DUP3 ADD MLOAD DUP2 PUSH1 0x3 ADD SSTORE POP POP DUP1 PUSH1 0x1 PUSH1 0x0 PUSH1 0x2 SLOAD DUP2 MSTORE PUSH1 0x20 ADD SWAP1 DUP2 MSTORE PUSH1 0x20 ADD PUSH1 0x0 KECCAK256 PUSH1 0x0 DUP3 ADD MLOAD DUP2 PUSH1 0x0 ADD PUSH1 0x0 PUSH2 0x100 EXP DUP2 SLOAD DUP2 PUSH20 0xFFFFFFFFFFFFFFFFFFFFFFFFFFFFFFFFFFFFFFFF MUL NOT AND SWAP1 DUP4 PUSH20 0xFFFFFFFFFFFFFFFFFFFFFFFFFFFFFFFFFFFFFFFF AND MUL OR SWAP1 SSTORE POP PUSH1 0x20 DUP3 ADD MLOAD DUP2 PUSH1 0x1 ADD PUSH1 0x0 PUSH2 0x100 EXP DUP2 SLOAD DUP2 PUSH20 0xFFFFFFFFFFFFFFFFFFFFFFFFFFFFFFFFFFFFFFFF MUL NOT AND SWAP1 DUP4 PUSH20 0xFFFFFFFFFFFFFFFFFFFFFFFFFFFFFFFFFFFFFFFF AND MUL OR SWAP1 SSTORE POP PUSH1 0x40 DUP3 ADD MLOAD DUP2 PUSH1 0x2 ADD SSTORE PUSH1 0x60 DUP3 ADD MLOAD DUP2 PUSH1 0x3 ADD SSTORE SWAP1 POP POP PUSH1 0x2 PUSH1 0x0 DUP2 SLOAD DUP1 SWAP3 SWAP2 SWAP1 PUSH2 0x101B SWAP1 PUSH2 0x1CAF JUMP JUMPDEST SWAP2 SWAP1 POP SSTORE POP POP POP POP POP POP JUMP JUMPDEST DUP1 PUSH1 0x3 PUSH1 0x1 ADD DUP2 SWAP1 SSTORE POP PUSH1 0x3 PUSH1 0x1 ADD SLOAD PUSH1 0x3 PUSH1 0x0 ADD SLOAD PUSH2 0x1047 SWAP2 SWAP1 PUSH2 0x178A JUMP JUMPDEST PUSH1 0x3 PUSH1 0x0 ADD DUP2 SWAP1 SSTORE POP POP JUMP JUMPDEST PUSH1 0x40 MLOAD DUP1 PUSH1 0x80 ADD PUSH1 0x40 MSTORE DUP1 PUSH1 0x0 PUSH20 0xFFFFFFFFFFFFFFFFFFFFFFFFFFFFFFFFFFFFFFFF AND DUP2 MSTORE PUSH1 0x20 ADD PUSH1 0x0 PUSH20 0xFFFFFFFFFFFFFFFFFFFFFFFFFFFFFFFFFFFFFFFF AND DUP2 MSTORE PUSH1 0x20 ADD PUSH1 0x0 DUP2 MSTORE PUSH1 0x20 ADD PUSH1 0x0 DUP2 MSTORE POP SWAP1 JUMP JUMPDEST PUSH1 0x0 PUSH1 0x40 MLOAD SWAP1 POP SWAP1 JUMP JUMPDEST PUSH1 0x0 DUP1 REVERT JUMPDEST PUSH1 0x0 DUP1 REVERT JUMPDEST PUSH1 0x0 DUP2 SWAP1 POP SWAP2 SWAP1 POP JUMP JUMPDEST PUSH2 0x10CE DUP2 PUSH2 0x10BB JUMP JUMPDEST DUP2 EQ PUSH2 0x10D9 JUMPI PUSH1 0x0 DUP1 REVERT JUMPDEST POP JUMP JUMPDEST PUSH1 0x0 DUP2 CALLDATALOAD SWAP1 POP PUSH2 0x10EB DUP2 PUSH2 0x10C5 JUMP JUMPDEST SWAP3 SWAP2 POP POP JUMP JUMPDEST PUSH1 0x0 PUSH1 0x20 DUP3 DUP5 SUB SLT ISZERO PUSH2 0x1107 JUMPI PUSH2 0x1106 PUSH2 0x10B1 JUMP JUMPDEST JUMPDEST PUSH1 0x0 PUSH2 0x1115 DUP5 DUP3 DUP6 ADD PUSH2 0x10DC JUMP JUMPDEST SWAP2 POP POP SWAP3 SWAP2 POP POP JUMP JUMPDEST PUSH1 0x0 PUSH20 0xFFFFFFFFFFFFFFFFFFFFFFFFFFFFFFFFFFFFFFFF DUP3 AND SWAP1 POP SWAP2 SWAP1 POP JUMP JUMPDEST PUSH1 0x0 PUSH2 0x1149 DUP3 PUSH2 0x111E JUMP JUMPDEST SWAP1 POP SWAP2 SWAP1 POP JUMP JUMPDEST PUSH2 0x1159 DUP2 PUSH2 0x113E JUMP JUMPDEST DUP3 MSTORE POP POP JUMP JUMPDEST PUSH2 0x1168 DUP2 PUSH2 0x10BB JUMP JUMPDEST DUP3 MSTORE POP POP JUMP JUMPDEST PUSH1 0x0 PUSH1 0x80 DUP3 ADD SWAP1 POP PUSH2 0x1183 PUSH1 0x0 DUP4 ADD DUP8 PUSH2 0x1150 JUMP JUMPDEST PUSH2 0x1190 PUSH1 0x20 DUP4 ADD DUP7 PUSH2 0x1150 JUMP JUMPDEST PUSH2 0x119D PUSH1 0x40 DUP4 ADD DUP6 PUSH2 0x115F JUMP JUMPDEST PUSH2 0x11AA PUSH1 0x60 DUP4 ADD DUP5 PUSH2 0x115F JUMP JUMPDEST SWAP6 SWAP5 POP POP POP POP POP JUMP JUMPDEST PUSH2 0x11BC DUP2 PUSH2 0x113E JUMP JUMPDEST DUP2 EQ PUSH2 0x11C7 JUMPI PUSH1 0x0 DUP1 REVERT JUMPDEST POP JUMP JUMPDEST PUSH1 0x0 DUP2 CALLDATALOAD SWAP1 POP PUSH2 0x11D9 DUP2 PUSH2 0x11B3 JUMP JUMPDEST SWAP3 SWAP2 POP POP JUMP JUMPDEST PUSH1 0x0 DUP1 PUSH1 0x40 DUP4 DUP6 SUB SLT ISZERO PUSH2 0x11F6 JUMPI PUSH2 0x11F5 PUSH2 0x10B1 JUMP JUMPDEST JUMPDEST PUSH1 0x0 PUSH2 0x1204 DUP6 DUP3 DUP7 ADD PUSH2 0x10DC JUMP JUMPDEST SWAP3 POP POP PUSH1 0x20 PUSH2 0x1215 DUP6 DUP3 DUP7 ADD PUSH2 0x11CA JUMP JUMPDEST SWAP2 POP POP SWAP3 POP SWAP3 SWAP1 POP JUMP JUMPDEST PUSH1 0x0 PUSH1 0x20 DUP3 ADD SWAP1 POP PUSH2 0x1234 PUSH1 0x0 DUP4 ADD DUP5 PUSH2 0x115F JUMP JUMPDEST SWAP3 SWAP2 POP POP JUMP JUMPDEST PUSH1 0x0 DUP1 REVERT JUMPDEST PUSH1 0x0 DUP1 REVERT JUMPDEST PUSH1 0x0 PUSH1 0x1F NOT PUSH1 0x1F DUP4 ADD AND SWAP1 POP SWAP2 SWAP1 POP JUMP JUMPDEST PUSH32 0x4E487B7100000000000000000000000000000000000000000000000000000000 PUSH1 0x0 MSTORE PUSH1 0x41 PUSH1 0x4 MSTORE PUSH1 0x24 PUSH1 0x0 REVERT JUMPDEST PUSH2 0x128D DUP3 PUSH2 0x1244 JUMP JUMPDEST DUP2 ADD DUP2 DUP2 LT PUSH8 0xFFFFFFFFFFFFFFFF DUP3 GT OR ISZERO PUSH2 0x12AC JUMPI PUSH2 0x12AB PUSH2 0x1255 JUMP JUMPDEST JUMPDEST DUP1 PUSH1 0x40 MSTORE POP POP POP JUMP JUMPDEST PUSH1 0x0 PUSH2 0x12BF PUSH2 0x10A7 JUMP JUMPDEST SWAP1 POP PUSH2 0x12CB DUP3 DUP3 PUSH2 0x1284 JUMP JUMPDEST SWAP2 SWAP1 POP JUMP JUMPDEST PUSH1 0x0 PUSH8 0xFFFFFFFFFFFFFFFF DUP3 GT ISZERO PUSH2 0x12EB JUMPI PUSH2 0x12EA PUSH2 0x1255 JUMP JUMPDEST JUMPDEST PUSH2 0x12F4 DUP3 PUSH2 0x1244 JUMP JUMPDEST SWAP1 POP PUSH1 0x20 DUP2 ADD SWAP1 POP SWAP2 SWAP1 POP JUMP JUMPDEST DUP3 DUP2 DUP4 CALLDATACOPY PUSH1 0x0 DUP4 DUP4 ADD MSTORE POP POP POP JUMP JUMPDEST PUSH1 0x0 PUSH2 0x1323 PUSH2 0x131E DUP5 PUSH2 0x12D0 JUMP JUMPDEST PUSH2 0x12B5 JUMP JUMPDEST SWAP1 POP DUP3 DUP2 MSTORE PUSH1 0x20 DUP2 ADD DUP5 DUP5 DUP5 ADD GT ISZERO PUSH2 0x133F JUMPI PUSH2 0x133E PUSH2 0x123F JUMP JUMPDEST JUMPDEST PUSH2 0x134A DUP5 DUP3 DUP6 PUSH2 0x1301 JUMP JUMPDEST POP SWAP4 SWAP3 POP POP POP JUMP JUMPDEST PUSH1 0x0 DUP3 PUSH1 0x1F DUP4 ADD SLT PUSH2 0x1367 JUMPI PUSH2 0x1366 PUSH2 0x123A JUMP JUMPDEST JUMPDEST DUP2 CALLDATALOAD PUSH2 0x1377 DUP5 DUP3 PUSH1 0x20 DUP7 ADD PUSH2 0x1310 JUMP JUMPDEST SWAP2 POP POP SWAP3 SWAP2 POP POP JUMP JUMPDEST PUSH1 0x0 DUP1 PUSH1 0x40 DUP4 DUP6 SUB SLT ISZERO PUSH2 0x1397 JUMPI PUSH2 0x1396 PUSH2 0x10B1 JUMP JUMPDEST JUMPDEST PUSH1 0x0 DUP4 ADD CALLDATALOAD PUSH8 0xFFFFFFFFFFFFFFFF DUP2 GT ISZERO PUSH2 0x13B5 JUMPI PUSH2 0x13B4 PUSH2 0x10B6 JUMP JUMPDEST JUMPDEST PUSH2 0x13C1 DUP6 DUP3 DUP7 ADD PUSH2 0x1352 JUMP JUMPDEST SWAP3 POP POP PUSH1 0x20 DUP4 ADD CALLDATALOAD PUSH8 0xFFFFFFFFFFFFFFFF DUP2 GT ISZERO PUSH2 0x13E2 JUMPI PUSH2 0x13E1 PUSH2 0x10B6 JUMP JUMPDEST JUMPDEST PUSH2 0x13EE DUP6 DUP3 DUP7 ADD PUSH2 0x1352 JUMP JUMPDEST SWAP2 POP POP SWAP3 POP SWAP3 SWAP1 POP JUMP JUMPDEST PUSH1 0x0 DUP2 ISZERO ISZERO SWAP1 POP SWAP2 SWAP1 POP JUMP JUMPDEST PUSH2 0x140D DUP2 PUSH2 0x13F8 JUMP JUMPDEST DUP3 MSTORE POP POP JUMP JUMPDEST PUSH1 0x0 PUSH1 0x20 DUP3 ADD SWAP1 POP PUSH2 0x1428 PUSH1 0x0 DUP4 ADD DUP5 PUSH2 0x1404 JUMP JUMPDEST SWAP3 SWAP2 POP POP JUMP JUMPDEST PUSH1 0x0 DUP2 MLOAD SWAP1 POP SWAP2 SWAP1 POP JUMP JUMPDEST PUSH1 0x0 DUP3 DUP3 MSTORE PUSH1 0x20 DUP3 ADD SWAP1 POP SWAP3 SWAP2 POP POP JUMP JUMPDEST PUSH1 0x0 JUMPDEST DUP4 DUP2 LT ISZERO PUSH2 0x1468 JUMPI DUP1 DUP3 ADD MLOAD DUP2 DUP5 ADD MSTORE PUSH1 0x20 DUP2 ADD SWAP1 POP PUSH2 0x144D JUMP JUMPDEST PUSH1 0x0 DUP5 DUP5 ADD MSTORE POP POP POP POP JUMP JUMPDEST PUSH1 0x0 PUSH2 0x147F DUP3 PUSH2 0x142E JUMP JUMPDEST PUSH2 0x1489 DUP2 DUP6 PUSH2 0x1439 JUMP JUMPDEST SWAP4 POP PUSH2 0x1499 DUP2 DUP6 PUSH1 0x20 DUP7 ADD PUSH2 0x144A JUMP JUMPDEST PUSH2 0x14A2 DUP2 PUSH2 0x1244 JUMP JUMPDEST DUP5 ADD SWAP2 POP POP SWAP3 SWAP2 POP POP JUMP JUMPDEST PUSH1 0x0 PUSH1 0x20 DUP3 ADD SWAP1 POP DUP2 DUP2 SUB PUSH1 0x0 DUP4 ADD MSTORE PUSH2 0x14C7 DUP2 DUP5 PUSH2 0x1474 JUMP JUMPDEST SWAP1 POP SWAP3 SWAP2 POP POP JUMP JUMPDEST PUSH2 0x14D8 DUP2 PUSH2 0x113E JUMP JUMPDEST DUP3 MSTORE POP POP JUMP JUMPDEST PUSH2 0x14E7 DUP2 PUSH2 0x10BB JUMP JUMPDEST DUP3 MSTORE POP POP JUMP JUMPDEST PUSH1 0x80 DUP3 ADD PUSH1 0x0 DUP3 ADD MLOAD PUSH2 0x1503 PUSH1 0x0 DUP6 ADD DUP3 PUSH2 0x14CF JUMP JUMPDEST POP PUSH1 0x20 DUP3 ADD MLOAD PUSH2 0x1516 PUSH1 0x20 DUP6 ADD DUP3 PUSH2 0x14CF JUMP JUMPDEST POP PUSH1 0x40 DUP3 ADD MLOAD PUSH2 0x1529 PUSH1 0x40 DUP6 ADD DUP3 PUSH2 0x14DE JUMP JUMPDEST POP PUSH1 0x60 DUP3 ADD MLOAD PUSH2 0x153C PUSH1 0x60 DUP6 ADD DUP3 PUSH2 0x14DE JUMP JUMPDEST POP POP POP POP JUMP JUMPDEST PUSH1 0x0 PUSH1 0x80 DUP3 ADD SWAP1 POP PUSH2 0x1557 PUSH1 0x0 DUP4 ADD DUP5 PUSH2 0x14ED JUMP JUMPDEST SWAP3 SWAP2 POP POP JUMP JUMPDEST PUSH1 0x0 DUP2 MLOAD SWAP1 POP SWAP2 SWAP1 POP JUMP JUMPDEST PUSH1 0x0 DUP3 DUP3 MSTORE PUSH1 0x20 DUP3 ADD SWAP1 POP SWAP3 SWAP2 POP POP JUMP JUMPDEST PUSH1 0x0 DUP2 SWAP1 POP PUSH1 0x20 DUP3 ADD SWAP1 POP SWAP2 SWAP1 POP JUMP JUMPDEST PUSH1 0x80 DUP3 ADD PUSH1 0x0 DUP3 ADD MLOAD PUSH2 0x159F PUSH1 0x0 DUP6 ADD DUP3 PUSH2 0x14CF JUMP JUMPDEST POP PUSH1 0x20 DUP3 ADD MLOAD PUSH2 0x15B2 PUSH1 0x20 DUP6 ADD DUP3 PUSH2 0x14CF JUMP JUMPDEST POP PUSH1 0x40 DUP3 ADD MLOAD PUSH2 0x15C5 PUSH1 0x40 DUP6 ADD DUP3 PUSH2 0x14DE JUMP JUMPDEST POP PUSH1 0x60 DUP3 ADD MLOAD PUSH2 0x15D8 PUSH1 0x60 DUP6 ADD DUP3 PUSH2 0x14DE JUMP JUMPDEST POP POP POP POP JUMP JUMPDEST PUSH1 0x0 PUSH2 0x15EA DUP4 DUP4 PUSH2 0x1589 JUMP JUMPDEST PUSH1 0x80 DUP4 ADD SWAP1 POP SWAP3 SWAP2 POP POP JUMP JUMPDEST PUSH1 0x0 PUSH1 0x20 DUP3 ADD SWAP1 POP SWAP2 SWAP1 POP JUMP JUMPDEST PUSH1 0x0 PUSH2 0x160E DUP3 PUSH2 0x155D JUMP JUMPDEST PUSH2 0x1618 DUP2 DUP6 PUSH2 0x1568 JUMP JUMPDEST SWAP4 POP PUSH2 0x1623 DUP4 PUSH2 0x1579 JUMP JUMPDEST DUP1 PUSH1 0x0 JUMPDEST DUP4 DUP2 LT ISZERO PUSH2 0x1654 JUMPI DUP2 MLOAD PUSH2 0x163B DUP9 DUP3 PUSH2 0x15DE JUMP JUMPDEST SWAP8 POP PUSH2 0x1646 DUP4 PUSH2 0x15F6 JUMP JUMPDEST SWAP3 POP POP PUSH1 0x1 DUP2 ADD SWAP1 POP PUSH2 0x1627 JUMP JUMPDEST POP DUP6 SWAP4 POP POP POP POP SWAP3 SWAP2 POP POP JUMP JUMPDEST PUSH1 0x0 PUSH1 0x20 DUP3 ADD SWAP1 POP DUP2 DUP2 SUB PUSH1 0x0 DUP4 ADD MSTORE PUSH2 0x167B DUP2 DUP5 PUSH2 0x1603 JUMP JUMPDEST SWAP1 POP SWAP3 SWAP2 POP POP JUMP JUMPDEST PUSH32 0x54686973206164647265737320646F65736E2774206578697374730000000000 PUSH1 0x0 DUP3 ADD MSTORE POP JUMP JUMPDEST PUSH1 0x0 PUSH2 0x16B9 PUSH1 0x1B DUP4 PUSH2 0x1439 JUMP JUMPDEST SWAP2 POP PUSH2 0x16C4 DUP3 PUSH2 0x1683 JUMP JUMPDEST PUSH1 0x20 DUP3 ADD SWAP1 POP SWAP2 SWAP1 POP JUMP JUMPDEST PUSH1 0x0 PUSH1 0x20 DUP3 ADD SWAP1 POP DUP2 DUP2 SUB PUSH1 0x0 DUP4 ADD MSTORE PUSH2 0x16E8 DUP2 PUSH2 0x16AC JUMP JUMPDEST SWAP1 POP SWAP2 SWAP1 POP JUMP JUMPDEST PUSH32 0x506C6561736520696E7365727420796F75722063617264000000000000000000 PUSH1 0x0 DUP3 ADD MSTORE POP JUMP JUMPDEST PUSH1 0x0 PUSH2 0x1725 PUSH1 0x17 DUP4 PUSH2 0x1439 JUMP JUMPDEST SWAP2 POP PUSH2 0x1730 DUP3 PUSH2 0x16EF JUMP JUMPDEST PUSH1 0x20 DUP3 ADD SWAP1 POP SWAP2 SWAP1 POP JUMP JUMPDEST PUSH1 0x0 PUSH1 0x20 DUP3 ADD SWAP1 POP DUP2 DUP2 SUB PUSH1 0x0 DUP4 ADD MSTORE PUSH2 0x1754 DUP2 PUSH2 0x1718 JUMP JUMPDEST SWAP1 POP SWAP2 SWAP1 POP JUMP JUMPDEST PUSH32 0x4E487B7100000000000000000000000000000000000000000000000000000000 PUSH1 0x0 MSTORE PUSH1 0x11 PUSH1 0x4 MSTORE PUSH1 0x24 PUSH1 0x0 REVERT JUMPDEST PUSH1 0x0 PUSH2 0x1795 DUP3 PUSH2 0x10BB JUMP JUMPDEST SWAP2 POP PUSH2 0x17A0 DUP4 PUSH2 0x10BB JUMP JUMPDEST SWAP3 POP DUP3 DUP3 ADD SWAP1 POP DUP1 DUP3 GT ISZERO PUSH2 0x17B8 JUMPI PUSH2 0x17B7 PUSH2 0x175B JUMP JUMPDEST JUMPDEST SWAP3 SWAP2 POP POP JUMP JUMPDEST PUSH32 0x4E487B7100000000000000000000000000000000000000000000000000000000 PUSH1 0x0 MSTORE PUSH1 0x1 PUSH1 0x4 MSTORE PUSH1 0x24 PUSH1 0x0 REVERT JUMPDEST PUSH32 0x6F6E6C792035207472616E73616374696F6E7320706572206461790000000000 PUSH1 0x0 DUP3 ADD MSTORE POP JUMP JUMPDEST PUSH1 0x0 PUSH2 0x1823 PUSH1 0x1B DUP4 PUSH2 0x1439 JUMP JUMPDEST SWAP2 POP PUSH2 0x182E DUP3 PUSH2 0x17ED JUMP JUMPDEST PUSH1 0x20 DUP3 ADD SWAP1 POP SWAP2 SWAP1 POP JUMP JUMPDEST PUSH1 0x0 PUSH1 0x20 DUP3 ADD SWAP1 POP DUP2 DUP2 SUB PUSH1 0x0 DUP4 ADD MSTORE PUSH2 0x1852 DUP2 PUSH2 0x1816 JUMP JUMPDEST SWAP1 POP SWAP2 SWAP1 POP JUMP JUMPDEST PUSH1 0x0 PUSH2 0x1864 DUP3 PUSH2 0x10BB JUMP JUMPDEST SWAP2 POP PUSH2 0x186F DUP4 PUSH2 0x10BB JUMP JUMPDEST SWAP3 POP DUP3 DUP3 SUB SWAP1 POP DUP2 DUP2 GT ISZERO PUSH2 0x1887 JUMPI PUSH2 0x1886 PUSH2 0x175B JUMP JUMPDEST JUMPDEST SWAP3 SWAP2 POP POP JUMP JUMPDEST PUSH32 0x4E487B7100000000000000000000000000000000000000000000000000000000 PUSH1 0x0 MSTORE PUSH1 0x22 PUSH1 0x4 MSTORE PUSH1 0x24 PUSH1 0x0 REVERT JUMPDEST PUSH1 0x0 PUSH1 0x2 DUP3 DIV SWAP1 POP PUSH1 0x1 DUP3 AND DUP1 PUSH2 0x18D4 JUMPI PUSH1 0x7F DUP3 AND SWAP2 POP JUMPDEST PUSH1 0x20 DUP3 LT DUP2 SUB PUSH2 0x18E7 JUMPI PUSH2 0x18E6 PUSH2 0x188D JUMP JUMPDEST JUMPDEST POP SWAP2 SWAP1 POP JUMP JUMPDEST PUSH1 0x0 DUP2 SWAP1 POP DUP2 PUSH1 0x0 MSTORE PUSH1 0x20 PUSH1 0x0 KECCAK256 SWAP1 POP SWAP2 SWAP1 POP JUMP JUMPDEST PUSH1 0x0 PUSH1 0x20 PUSH1 0x1F DUP4 ADD DIV SWAP1 POP SWAP2 SWAP1 POP JUMP JUMPDEST PUSH1 0x0 DUP3 DUP3 SHL SWAP1 POP SWAP3 SWAP2 POP POP JUMP JUMPDEST PUSH1 0x0 PUSH1 0x8 DUP4 MUL PUSH2 0x194F PUSH32 0xFFFFFFFFFFFFFFFFFFFFFFFFFFFFFFFFFFFFFFFFFFFFFFFFFFFFFFFFFFFFFFFF DUP3 PUSH2 0x1912 JUMP JUMPDEST PUSH2 0x1959 DUP7 DUP4 PUSH2 0x1912 JUMP JUMPDEST SWAP6 POP DUP1 NOT DUP5 AND SWAP4 POP DUP1 DUP7 AND DUP5 OR SWAP3 POP POP POP SWAP4 SWAP3 POP POP POP JUMP JUMPDEST PUSH1 0x0 DUP2 SWAP1 POP SWAP2 SWAP1 POP JUMP JUMPDEST PUSH1 0x0 PUSH2 0x1996 PUSH2 0x1991 PUSH2 0x198C DUP5 PUSH2 0x10BB JUMP JUMPDEST PUSH2 0x1971 JUMP JUMPDEST PUSH2 0x10BB JUMP JUMPDEST SWAP1 POP SWAP2 SWAP1 POP JUMP JUMPDEST PUSH1 0x0 DUP2 SWAP1 POP SWAP2 SWAP1 POP JUMP JUMPDEST PUSH2 0x19B0 DUP4 PUSH2 0x197B JUMP JUMPDEST PUSH2 0x19C4 PUSH2 0x19BC DUP3 PUSH2 0x199D JUMP JUMPDEST DUP5 DUP5 SLOAD PUSH2 0x191F JUMP JUMPDEST DUP3 SSTORE POP POP POP POP JUMP JUMPDEST PUSH1 0x0 SWAP1 JUMP JUMPDEST PUSH2 0x19D9 PUSH2 0x19CC JUMP JUMPDEST PUSH2 0x19E4 DUP2 DUP5 DUP5 PUSH2 0x19A7 JUMP JUMPDEST POP POP POP JUMP JUMPDEST JUMPDEST DUP2 DUP2 LT ISZERO PUSH2 0x1A08 JUMPI PUSH2 0x19FD PUSH1 0x0 DUP3 PUSH2 0x19D1 JUMP JUMPDEST PUSH1 0x1 DUP2 ADD SWAP1 POP PUSH2 0x19EA JUMP JUMPDEST POP POP JUMP JUMPDEST PUSH1 0x1F DUP3 GT ISZERO PUSH2 0x1A4D JUMPI PUSH2 0x1A1E DUP2 PUSH2 0x18ED JUMP JUMPDEST PUSH2 0x1A27 DUP5 PUSH2 0x1902 JUMP JUMPDEST DUP2 ADD PUSH1 0x20 DUP6 LT ISZERO PUSH2 0x1A36 JUMPI DUP2 SWAP1 POP JUMPDEST PUSH2 0x1A4A PUSH2 0x1A42 DUP6 PUSH2 0x1902 JUMP JUMPDEST DUP4 ADD DUP3 PUSH2 0x19E9 JUMP JUMPDEST POP POP JUMPDEST POP POP POP JUMP JUMPDEST PUSH1 0x0 DUP3 DUP3 SHR SWAP1 POP SWAP3 SWAP2 POP POP JUMP JUMPDEST PUSH1 0x0 PUSH2 0x1A70 PUSH1 0x0 NOT DUP5 PUSH1 0x8 MUL PUSH2 0x1A52 JUMP JUMPDEST NOT DUP1 DUP4 AND SWAP2 POP POP SWAP3 SWAP2 POP POP JUMP JUMPDEST PUSH1 0x0 PUSH2 0x1A89 DUP4 DUP4 PUSH2 0x1A5F JUMP JUMPDEST SWAP2 POP DUP3 PUSH1 0x2 MUL DUP3 OR SWAP1 POP SWAP3 SWAP2 POP POP JUMP JUMPDEST PUSH2 0x1AA2 DUP3 PUSH2 0x142E JUMP JUMPDEST PUSH8 0xFFFFFFFFFFFFFFFF DUP2 GT ISZERO PUSH2 0x1ABB JUMPI PUSH2 0x1ABA PUSH2 0x1255 JUMP JUMPDEST JUMPDEST PUSH2 0x1AC5 DUP3 SLOAD PUSH2 0x18BC JUMP JUMPDEST PUSH2 0x1AD0 DUP3 DUP3 DUP6 PUSH2 0x1A0C JUMP JUMPDEST PUSH1 0x0 PUSH1 0x20 SWAP1 POP PUSH1 0x1F DUP4 GT PUSH1 0x1 DUP2 EQ PUSH2 0x1B03 JUMPI PUSH1 0x0 DUP5 ISZERO PUSH2 0x1AF1 JUMPI DUP3 DUP8 ADD MLOAD SWAP1 POP JUMPDEST PUSH2 0x1AFB DUP6 DUP3 PUSH2 0x1A7D JUMP JUMPDEST DUP7 SSTORE POP PUSH2 0x1B63 JUMP JUMPDEST PUSH1 0x1F NOT DUP5 AND PUSH2 0x1B11 DUP7 PUSH2 0x18ED JUMP JUMPDEST PUSH1 0x0 JUMPDEST DUP3 DUP2 LT ISZERO PUSH2 0x1B39 JUMPI DUP5 DUP10 ADD MLOAD DUP3 SSTORE PUSH1 0x1 DUP3 ADD SWAP2 POP PUSH1 0x20 DUP6 ADD SWAP5 POP PUSH1 0x20 DUP2 ADD SWAP1 POP PUSH2 0x1B14 JUMP JUMPDEST DUP7 DUP4 LT ISZERO PUSH2 0x1B56 JUMPI DUP5 DUP10 ADD MLOAD PUSH2 0x1B52 PUSH1 0x1F DUP10 AND DUP3 PUSH2 0x1A5F JUMP JUMPDEST DUP4 SSTORE POP JUMPDEST PUSH1 0x1 PUSH1 0x2 DUP9 MUL ADD DUP9 SSTORE POP POP POP JUMPDEST POP POP POP POP POP POP JUMP JUMPDEST PUSH32 0x4E6F7420656E6F7567682066756E647300000000000000000000000000000000 PUSH1 0x0 DUP3 ADD MSTORE POP JUMP JUMPDEST PUSH1 0x0 PUSH2 0x1BA1 PUSH1 0x10 DUP4 PUSH2 0x1439 JUMP JUMPDEST SWAP2 POP PUSH2 0x1BAC DUP3 PUSH2 0x1B6B JUMP JUMPDEST PUSH1 0x20 DUP3 ADD SWAP1 POP SWAP2 SWAP1 POP JUMP JUMPDEST PUSH1 0x0 PUSH1 0x20 DUP3 ADD SWAP1 POP DUP2 DUP2 SUB PUSH1 0x0 DUP4 ADD MSTORE PUSH2 0x1BD0 DUP2 PUSH2 0x1B94 JUMP JUMPDEST SWAP1 POP SWAP2 SWAP1 POP JUMP JUMPDEST PUSH32 0x4E6F2076616C6964206372656469742063617264000000000000000000000000 PUSH1 0x0 DUP3 ADD MSTORE POP JUMP JUMPDEST PUSH1 0x0 PUSH2 0x1C0D PUSH1 0x14 DUP4 PUSH2 0x1439 JUMP JUMPDEST SWAP2 POP PUSH2 0x1C18 DUP3 PUSH2 0x1BD7 JUMP JUMPDEST PUSH1 0x20 DUP3 ADD SWAP1 POP SWAP2 SWAP1 POP JUMP JUMPDEST PUSH1 0x0 PUSH1 0x20 DUP3 ADD SWAP1 POP DUP2 DUP2 SUB PUSH1 0x0 DUP4 ADD MSTORE PUSH2 0x1C3C DUP2 PUSH2 0x1C00 JUMP JUMPDEST SWAP1 POP SWAP2 SWAP1 POP JUMP JUMPDEST PUSH32 0x4E6F7420656E6F7567682066756E6473206F6E206163636F756E740000000000 PUSH1 0x0 DUP3 ADD MSTORE POP JUMP JUMPDEST PUSH1 0x0 PUSH2 0x1C79 PUSH1 0x1B DUP4 PUSH2 0x1439 JUMP JUMPDEST SWAP2 POP PUSH2 0x1C84 DUP3 PUSH2 0x1C43 JUMP JUMPDEST PUSH1 0x20 DUP3 ADD SWAP1 POP SWAP2 SWAP1 POP JUMP JUMPDEST PUSH1 0x0 PUSH1 0x20 DUP3 ADD SWAP1 POP DUP2 DUP2 SUB PUSH1 0x0 DUP4 ADD MSTORE PUSH2 0x1CA8 DUP2 PUSH2 0x1C6C JUMP JUMPDEST SWAP1 POP SWAP2 SWAP1 POP JUMP JUMPDEST PUSH1 0x0 PUSH2 0x1CBA DUP3 PUSH2 0x10BB JUMP JUMPDEST SWAP2 POP PUSH32 0xFFFFFFFFFFFFFFFFFFFFFFFFFFFFFFFFFFFFFFFFFFFFFFFFFFFFFFFFFFFFFFFF DUP3 SUB PUSH2 0x1CEC JUMPI PUSH2 0x1CEB PUSH2 0x175B JUMP JUMPDEST JUMPDEST PUSH1 0x1 DUP3 ADD SWAP1 POP SWAP2 SWAP1 POP JUMP INVALID LOG2 PUSH5 0x6970667358 0x22 SLT KECCAK256 0xB5 0xEC SWAP4 MSTORE8 0xC2 0x21 0xF8 SWAP8 0xBD MSIZE CALLVALUE SWAP1 0x4E PUSH13 0xF590A6D336360A5012F518442F DUP8 PUSH13 0x97252B64736F6C634300081000 CALLER "
				},
				"gasEstimates": {
					"creation": {
						"codeDepositCost": "1493800",
						"executionCost": "infinite",
						"totalCost": "infinite"
					},
					"external": {
						"TotalAmount()": "2540",
						"TotalFunds()": "2518",
						"amount()": "2517",
						"callCount()": "2540",
						"callPutCard()": "2516",
						"cardNumber()": "infinite",
						"cvv()": "infinite",
						"firstTransferTime()": "2497",
						"getBalance()": "2533",
						"getLastTransaction(uint256)": "infinite",
						"getNumberOfTransactions()": "2460",
						"getOutCard()": "24455",
						"getTime()": "381",
						"getTransactions()": "infinite",
						"message()": "infinite",
						"sendMoney(uint256,address)": "infinite",
						"setCard(string,string)": "infinite",
						"transactionList(uint256)": "infinite",
						"trn(uint256)": "infinite",
						"withdrawMoney(uint256)": "infinite"
					}
				},
				"methodIdentifiers": {
					"TotalAmount()": "7eb9f571",
					"TotalFunds()": "7b9a3f4c",
					"amount()": "aa8c217c",
					"callCount()": "4b28f9a2",
					"callPutCard()": "3c626f00",
					"cardNumber()": "8fa11864",
					"cvv()": "42fb7936",
					"firstTransferTime()": "0e85fa72",
					"getBalance()": "12065fe0",
					"getLastTransaction(uint256)": "45838c42",
					"getNumberOfTransactions()": "24ba506d",
					"getOutCard()": "8e029c0b",
					"getTime()": "557ed1ba",
					"getTransactions()": "83920e90",
					"message()": "e21f37ce",
					"sendMoney(uint256,address)": "062a7544",
					"setCard(string,string)": "12a029a4",
					"transactionList(uint256)": "04ef5b21",
					"trn(uint256)": "57bf72e3",
					"withdrawMoney(uint256)": "54876921"
				}
			},
			"storageLayout": {
				"storage": [
					{
						"astId": 359,
						"contract": "Dapp/Sender.sol:Sender",
						"label": "transactionList",
						"offset": 0,
						"slot": "0",
						"type": "t_array(t_struct(Transactions)355_storage)dyn_storage"
					},
					{
						"astId": 364,
						"contract": "Dapp/Sender.sol:Sender",
						"label": "trn",
						"offset": 0,
						"slot": "1",
						"type": "t_mapping(t_uint256,t_struct(Transactions)355_storage)"
					},
					{
						"astId": 367,
						"contract": "Dapp/Sender.sol:Sender",
						"label": "counter",
						"offset": 0,
						"slot": "2",
						"type": "t_uint256"
					},
					{
						"astId": 11,
						"contract": "Dapp/Sender.sol:Sender",
						"label": "rd",
						"offset": 0,
						"slot": "3",
						"type": "t_struct(ReceiverDetails)8_storage"
					},
					{
						"astId": 90,
						"contract": "Dapp/Sender.sol:Sender",
						"label": "amount",
						"offset": 0,
						"slot": "6",
						"type": "t_uint256"
					},
					{
						"astId": 92,
						"contract": "Dapp/Sender.sol:Sender",
						"label": "TotalFunds",
						"offset": 0,
						"slot": "7",
						"type": "t_uint256"
					},
					{
						"astId": 94,
						"contract": "Dapp/Sender.sol:Sender",
						"label": "receiver",
						"offset": 0,
						"slot": "8",
						"type": "t_address"
					},
					{
						"astId": 96,
						"contract": "Dapp/Sender.sol:Sender",
						"label": "message",
						"offset": 0,
						"slot": "9",
						"type": "t_string_storage"
					},
					{
						"astId": 98,
						"contract": "Dapp/Sender.sol:Sender",
						"label": "cardNumber",
						"offset": 0,
						"slot": "10",
						"type": "t_string_storage"
					},
					{
						"astId": 100,
						"contract": "Dapp/Sender.sol:Sender",
						"label": "cvv",
						"offset": 0,
						"slot": "11",
						"type": "t_string_storage"
					},
					{
						"astId": 102,
						"contract": "Dapp/Sender.sol:Sender",
						"label": "TotalAmount",
						"offset": 0,
						"slot": "12",
						"type": "t_uint256"
					},
					{
						"astId": 104,
						"contract": "Dapp/Sender.sol:Sender",
						"label": "firstTransferTime",
						"offset": 0,
						"slot": "13",
						"type": "t_uint256"
					},
					{
						"astId": 117,
						"contract": "Dapp/Sender.sol:Sender",
						"label": "callCount",
						"offset": 0,
						"slot": "14",
						"type": "t_uint256"
					},
					{
						"astId": 120,
						"contract": "Dapp/Sender.sol:Sender",
						"label": "callPutCard",
						"offset": 0,
						"slot": "15",
						"type": "t_bool"
					}
				],
				"types": {
					"t_address": {
						"encoding": "inplace",
						"label": "address",
						"numberOfBytes": "20"
					},
					"t_array(t_struct(Transactions)355_storage)dyn_storage": {
						"base": "t_struct(Transactions)355_storage",
						"encoding": "dynamic_array",
						"label": "struct Transaction.Transactions[]",
						"numberOfBytes": "32"
					},
					"t_bool": {
						"encoding": "inplace",
						"label": "bool",
						"numberOfBytes": "1"
					},
					"t_mapping(t_uint256,t_struct(Transactions)355_storage)": {
						"encoding": "mapping",
						"key": "t_uint256",
						"label": "mapping(uint256 => struct Transaction.Transactions)",
						"numberOfBytes": "32",
						"value": "t_struct(Transactions)355_storage"
					},
					"t_string_storage": {
						"encoding": "bytes",
						"label": "string",
						"numberOfBytes": "32"
					},
					"t_struct(ReceiverDetails)8_storage": {
						"encoding": "inplace",
						"label": "struct Receiver.ReceiverDetails",
						"members": [
							{
								"astId": 3,
								"contract": "Dapp/Sender.sol:Sender",
								"label": "totalFunds",
								"offset": 0,
								"slot": "0",
								"type": "t_uint256"
							},
							{
								"astId": 5,
								"contract": "Dapp/Sender.sol:Sender",
								"label": "amount",
								"offset": 0,
								"slot": "1",
								"type": "t_uint256"
							},
							{
								"astId": 7,
								"contract": "Dapp/Sender.sol:Sender",
								"label": "money",
								"offset": 0,
								"slot": "2",
								"type": "t_uint256"
							}
						],
						"numberOfBytes": "96"
					},
					"t_struct(Transactions)355_storage": {
						"encoding": "inplace",
						"label": "struct Transaction.Transactions",
						"members": [
							{
								"astId": 348,
								"contract": "Dapp/Sender.sol:Sender",
								"label": "address_from",
								"offset": 0,
								"slot": "0",
								"type": "t_address"
							},
							{
								"astId": 350,
								"contract": "Dapp/Sender.sol:Sender",
								"label": "address_to",
								"offset": 0,
								"slot": "1",
								"type": "t_address"
							},
							{
								"astId": 352,
								"contract": "Dapp/Sender.sol:Sender",
								"label": "amount",
								"offset": 0,
								"slot": "2",
								"type": "t_uint256"
							},
							{
								"astId": 354,
								"contract": "Dapp/Sender.sol:Sender",
								"label": "timestamp",
								"offset": 0,
								"slot": "3",
								"type": "t_uint256"
							}
						],
						"numberOfBytes": "128"
					},
					"t_uint256": {
						"encoding": "inplace",
						"label": "uint256",
						"numberOfBytes": "32"
					}
				}
			},
			"userdoc": {
				"kind": "user",
				"methods": {},
				"version": 1
			}
		}
	}
}