{
	"Dapp/Transaction.sol": {
		"Transaction": {
			"abi": [
				{
					"inputs": [
						{
							"internalType": "uint256",
							"name": "no_transactions",
							"type": "uint256"
						}
					],
					"name": "getLastTransaction",
					"outputs": [
						{
							"components": [
								{
									"internalType": "address",
									"name": "address_from",
									"type": "address"
								},
								{
									"internalType": "address",
									"name": "address_to",
									"type": "address"
								},
								{
									"internalType": "uint256",
									"name": "amount",
									"type": "uint256"
								},
								{
									"internalType": "uint256",
									"name": "timestamp",
									"type": "uint256"
								}
							],
							"internalType": "struct Transaction.Transactions",
							"name": "",
							"type": "tuple"
						}
					],
					"stateMutability": "view",
					"type": "function"
				},
				{
					"inputs": [],
					"name": "getNumberOfTransactions",
					"outputs": [
						{
							"internalType": "uint256",
							"name": "",
							"type": "uint256"
						}
					],
					"stateMutability": "view",
					"type": "function"
				},
				{
					"inputs": [],
					"name": "getTransactions",
					"outputs": [
						{
							"components": [
								{
									"internalType": "address",
									"name": "address_from",
									"type": "address"
								},
								{
									"internalType": "address",
									"name": "address_to",
									"type": "address"
								},
								{
									"internalType": "uint256",
									"name": "amount",
									"type": "uint256"
								},
								{
									"internalType": "uint256",
									"name": "timestamp",
									"type": "uint256"
								}
							],
							"internalType": "struct Transaction.Transactions[]",
							"name": "",
							"type": "tuple[]"
						}
					],
					"stateMutability": "view",
					"type": "function"
				},
				{
					"inputs": [
						{
							"internalType": "uint256",
							"name": "",
							"type": "uint256"
						}
					],
					"name": "transactionList",
					"outputs": [
						{
							"internalType": "address",
							"name": "address_from",
							"type": "address"
						},
						{
							"internalType": "address",
							"name": "address_to",
							"type": "address"
						},
						{
							"internalType": "uint256",
							"name": "amount",
							"type": "uint256"
						},
						{
							"internalType": "uint256",
							"name": "timestamp",
							"type": "uint256"
						}
					],
					"stateMutability": "view",
					"type": "function"
				},
				{
					"inputs": [
						{
							"internalType": "uint256",
							"name": "",
							"type": "uint256"
						}
					],
					"name": "trn",
					"outputs": [
						{
							"internalType": "address",
							"name": "address_from",
							"type": "address"
						},
						{
							"internalType": "address",
							"name": "address_to",
							"type": "address"
						},
						{
							"internalType": "uint256",
							"name": "amount",
							"type": "uint256"
						},
						{
							"internalType": "uint256",
							"name": "timestamp",
							"type": "uint256"
						}
					],
					"stateMutability": "view",
					"type": "function"
				}
			],
			"devdoc": {
				"kind": "dev",
				"methods": {},
				"version": 1
			},
			"evm": {
				"assembly": "    /* \"Dapp/Transaction.sol\":65:1260  contract Transaction{... */\n  mstore(0x40, 0x80)\n    /* \"Dapp/Transaction.sol\":346:347  0 */\n  0x00\n    /* \"Dapp/Transaction.sol\":331:347  uint counter = 0 */\n  0x02\n  sstore\n    /* \"Dapp/Transaction.sol\":65:1260  contract Transaction{... */\n  callvalue\n  dup1\n  iszero\n  tag_1\n  jumpi\n  0x00\n  dup1\n  revert\ntag_1:\n  pop\n  dataSize(sub_0)\n  dup1\n  dataOffset(sub_0)\n  0x00\n  codecopy\n  0x00\n  return\nstop\n\nsub_0: assembly {\n        /* \"Dapp/Transaction.sol\":65:1260  contract Transaction{... */\n      mstore(0x40, 0x80)\n      callvalue\n      dup1\n      iszero\n      tag_1\n      jumpi\n      0x00\n      dup1\n      revert\n    tag_1:\n      pop\n      jumpi(tag_2, lt(calldatasize, 0x04))\n      shr(0xe0, calldataload(0x00))\n      dup1\n      0x04ef5b21\n      eq\n      tag_3\n      jumpi\n      dup1\n      0x24ba506d\n      eq\n      tag_4\n      jumpi\n      dup1\n      0x45838c42\n      eq\n      tag_5\n      jumpi\n      dup1\n      0x57bf72e3\n      eq\n      tag_6\n      jumpi\n      dup1\n      0x83920e90\n      eq\n      tag_7\n      jumpi\n    tag_2:\n      0x00\n      dup1\n      revert\n        /* \"Dapp/Transaction.sol\":237:274  Transactions[] public transactionList */\n    tag_3:\n      tag_8\n      0x04\n      dup1\n      calldatasize\n      sub\n      dup2\n      add\n      swap1\n      tag_9\n      swap2\n      swap1\n      tag_10\n      jump\t// in\n    tag_9:\n      tag_11\n      jump\t// in\n    tag_8:\n      mload(0x40)\n      tag_12\n      swap5\n      swap4\n      swap3\n      swap2\n      swap1\n      tag_13\n      jump\t// in\n    tag_12:\n      mload(0x40)\n      dup1\n      swap2\n      sub\n      swap1\n      return\n        /* \"Dapp/Transaction.sol\":970:1063  function getNumberOfTransactions() public view returns(uint){... */\n    tag_4:\n      tag_14\n      tag_15\n      jump\t// in\n    tag_14:\n      mload(0x40)\n      tag_16\n      swap2\n      swap1\n      tag_17\n      jump\t// in\n    tag_16:\n      mload(0x40)\n      dup1\n      swap2\n      sub\n      swap1\n      return\n        /* \"Dapp/Transaction.sol\":1071:1253  function getLastTransaction(uint no_transactions) public view returns(Transactions memory){... */\n    tag_5:\n      tag_18\n      0x04\n      dup1\n      calldatasize\n      sub\n      dup2\n      add\n      swap1\n      tag_19\n      swap2\n      swap1\n      tag_10\n      jump\t// in\n    tag_19:\n      tag_20\n      jump\t// in\n    tag_18:\n      mload(0x40)\n      tag_21\n      swap2\n      swap1\n      tag_22\n      jump\t// in\n    tag_21:\n      mload(0x40)\n      dup1\n      swap2\n      sub\n      swap1\n      return\n        /* \"Dapp/Transaction.sol\":283:324  mapping (uint => Transactions) public trn */\n    tag_6:\n      tag_23\n      0x04\n      dup1\n      calldatasize\n      sub\n      dup2\n      add\n      swap1\n      tag_24\n      swap2\n      swap1\n      tag_10\n      jump\t// in\n    tag_24:\n      tag_25\n      jump\t// in\n    tag_23:\n      mload(0x40)\n      tag_26\n      swap5\n      swap4\n      swap3\n      swap2\n      swap1\n      tag_13\n      jump\t// in\n    tag_26:\n      mload(0x40)\n      dup1\n      swap2\n      sub\n      swap1\n      return\n        /* \"Dapp/Transaction.sol\":715:827  function getTransactions() public view returns(Transactions[] memory){... */\n    tag_7:\n      tag_27\n      tag_28\n      jump\t// in\n    tag_27:\n      mload(0x40)\n      tag_29\n      swap2\n      swap1\n      tag_30\n      jump\t// in\n    tag_29:\n      mload(0x40)\n      dup1\n      swap2\n      sub\n      swap1\n      return\n        /* \"Dapp/Transaction.sol\":237:274  Transactions[] public transactionList */\n    tag_11:\n      0x00\n      dup2\n      dup2\n      sload\n      dup2\n      lt\n      tag_31\n      jumpi\n      0x00\n      dup1\n      revert\n    tag_31:\n      swap1\n      0x00\n      mstore\n      keccak256(0x00, 0x20)\n      swap1\n      0x04\n      mul\n      add\n      0x00\n      swap2\n      pop\n      swap1\n      pop\n      dup1\n      0x00\n      add\n      0x00\n      swap1\n      sload\n      swap1\n      0x0100\n      exp\n      swap1\n      div\n      0xffffffffffffffffffffffffffffffffffffffff\n      and\n      swap1\n      dup1\n      0x01\n      add\n      0x00\n      swap1\n      sload\n      swap1\n      0x0100\n      exp\n      swap1\n      div\n      0xffffffffffffffffffffffffffffffffffffffff\n      and\n      swap1\n      dup1\n      0x02\n      add\n      sload\n      swap1\n      dup1\n      0x03\n      add\n      sload\n      swap1\n      pop\n      dup5\n      jump\t// out\n        /* \"Dapp/Transaction.sol\":970:1063  function getNumberOfTransactions() public view returns(uint){... */\n    tag_15:\n        /* \"Dapp/Transaction.sol\":1025:1029  uint */\n      0x00\n        /* \"Dapp/Transaction.sol\":1048:1055  counter */\n      sload(0x02)\n        /* \"Dapp/Transaction.sol\":1041:1055  return counter */\n      swap1\n      pop\n        /* \"Dapp/Transaction.sol\":970:1063  function getNumberOfTransactions() public view returns(uint){... */\n      swap1\n      jump\t// out\n        /* \"Dapp/Transaction.sol\":1071:1253  function getLastTransaction(uint no_transactions) public view returns(Transactions memory){... */\n    tag_20:\n        /* \"Dapp/Transaction.sol\":1141:1160  Transactions memory */\n      tag_34\n      tag_35\n      jump\t// in\n    tag_34:\n        /* \"Dapp/Transaction.sol\":1172:1178  uint x */\n      0x00\n        /* \"Dapp/Transaction.sol\":1206:1221  no_transactions */\n      dup3\n        /* \"Dapp/Transaction.sol\":1181:1196  transactionList */\n      0x00\n        /* \"Dapp/Transaction.sol\":1181:1203  transactionList.length */\n      dup1\n      sload\n      swap1\n      pop\n        /* \"Dapp/Transaction.sol\":1181:1221  transactionList.length - no_transactions */\n      tag_37\n      swap2\n      swap1\n      tag_38\n      jump\t// in\n    tag_37:\n        /* \"Dapp/Transaction.sol\":1172:1221  uint x = transactionList.length - no_transactions */\n      swap1\n      pop\n        /* \"Dapp/Transaction.sol\":1239:1242  trn */\n      0x01\n        /* \"Dapp/Transaction.sol\":1239:1245  trn[x] */\n      0x00\n        /* \"Dapp/Transaction.sol\":1243:1244  x */\n      dup3\n        /* \"Dapp/Transaction.sol\":1239:1245  trn[x] */\n      dup2\n      mstore\n      0x20\n      add\n      swap1\n      dup2\n      mstore\n      0x20\n      add\n      0x00\n      keccak256\n        /* \"Dapp/Transaction.sol\":1232:1245  return trn[x] */\n      mload(0x40)\n      dup1\n      0x80\n      add\n      0x40\n      mstore\n      swap1\n      dup2\n      0x00\n      dup3\n      add\n      0x00\n      swap1\n      sload\n      swap1\n      0x0100\n      exp\n      swap1\n      div\n      0xffffffffffffffffffffffffffffffffffffffff\n      and\n      0xffffffffffffffffffffffffffffffffffffffff\n      and\n      0xffffffffffffffffffffffffffffffffffffffff\n      and\n      dup2\n      mstore\n      0x20\n      add\n      0x01\n      dup3\n      add\n      0x00\n      swap1\n      sload\n      swap1\n      0x0100\n      exp\n      swap1\n      div\n      0xffffffffffffffffffffffffffffffffffffffff\n      and\n      0xffffffffffffffffffffffffffffffffffffffff\n      and\n      0xffffffffffffffffffffffffffffffffffffffff\n      and\n      dup2\n      mstore\n      0x20\n      add\n      0x02\n      dup3\n      add\n      sload\n      dup2\n      mstore\n      0x20\n      add\n      0x03\n      dup3\n      add\n      sload\n      dup2\n      mstore\n      pop\n      pop\n      swap2\n      pop\n      pop\n        /* \"Dapp/Transaction.sol\":1071:1253  function getLastTransaction(uint no_transactions) public view returns(Transactions memory){... */\n      swap2\n      swap1\n      pop\n      jump\t// out\n        /* \"Dapp/Transaction.sol\":283:324  mapping (uint => Transactions) public trn */\n    tag_25:\n      mstore(0x20, 0x01)\n      dup1\n      0x00\n      mstore\n      keccak256(0x00, 0x40)\n      0x00\n      swap2\n      pop\n      swap1\n      pop\n      dup1\n      0x00\n      add\n      0x00\n      swap1\n      sload\n      swap1\n      0x0100\n      exp\n      swap1\n      div\n      0xffffffffffffffffffffffffffffffffffffffff\n      and\n      swap1\n      dup1\n      0x01\n      add\n      0x00\n      swap1\n      sload\n      swap1\n      0x0100\n      exp\n      swap1\n      div\n      0xffffffffffffffffffffffffffffffffffffffff\n      and\n      swap1\n      dup1\n      0x02\n      add\n      sload\n      swap1\n      dup1\n      0x03\n      add\n      sload\n      swap1\n      pop\n      dup5\n      jump\t// out\n        /* \"Dapp/Transaction.sol\":715:827  function getTransactions() public view returns(Transactions[] memory){... */\n    tag_28:\n        /* \"Dapp/Transaction.sol\":762:783  Transactions[] memory */\n      0x60\n        /* \"Dapp/Transaction.sol\":804:819  transactionList */\n      0x00\n        /* \"Dapp/Transaction.sol\":797:819  return transactionList */\n      dup1\n      sload\n      dup1\n      0x20\n      mul\n      0x20\n      add\n      mload(0x40)\n      swap1\n      dup2\n      add\n      0x40\n      mstore\n      dup1\n      swap3\n      swap2\n      swap1\n      dup2\n      dup2\n      mstore\n      0x20\n      add\n      0x00\n      swap1\n    tag_40:\n      dup3\n      dup3\n      lt\n      iszero\n      tag_41\n      jumpi\n      dup4\n      dup3\n      swap1\n      0x00\n      mstore\n      keccak256(0x00, 0x20)\n      swap1\n      0x04\n      mul\n      add\n      mload(0x40)\n      dup1\n      0x80\n      add\n      0x40\n      mstore\n      swap1\n      dup2\n      0x00\n      dup3\n      add\n      0x00\n      swap1\n      sload\n      swap1\n      0x0100\n      exp\n      swap1\n      div\n      0xffffffffffffffffffffffffffffffffffffffff\n      and\n      0xffffffffffffffffffffffffffffffffffffffff\n      and\n      0xffffffffffffffffffffffffffffffffffffffff\n      and\n      dup2\n      mstore\n      0x20\n      add\n      0x01\n      dup3\n      add\n      0x00\n      swap1\n      sload\n      swap1\n      0x0100\n      exp\n      swap1\n      div\n      0xffffffffffffffffffffffffffffffffffffffff\n      and\n      0xffffffffffffffffffffffffffffffffffffffff\n      and\n      0xffffffffffffffffffffffffffffffffffffffff\n      and\n      dup2\n      mstore\n      0x20\n      add\n      0x02\n      dup3\n      add\n      sload\n      dup2\n      mstore\n      0x20\n      add\n      0x03\n      dup3\n      add\n      sload\n      dup2\n      mstore\n      pop\n      pop\n      dup2\n      mstore\n      0x20\n      add\n      swap1\n      0x01\n      add\n      swap1\n      jump(tag_40)\n    tag_41:\n      pop\n      pop\n      pop\n      pop\n      swap1\n      pop\n        /* \"Dapp/Transaction.sol\":715:827  function getTransactions() public view returns(Transactions[] memory){... */\n      swap1\n      jump\t// out\n    tag_35:\n      mload(0x40)\n      dup1\n      0x80\n      add\n      0x40\n      mstore\n      dup1\n      and(0xffffffffffffffffffffffffffffffffffffffff, 0x00)\n      dup2\n      mstore\n      0x20\n      add\n      and(0xffffffffffffffffffffffffffffffffffffffff, 0x00)\n      dup2\n      mstore\n      0x20\n      add\n      0x00\n      dup2\n      mstore\n      0x20\n      add\n      0x00\n      dup2\n      mstore\n      pop\n      swap1\n      jump\t// out\n        /* \"#utility.yul\":88:205   */\n    tag_44:\n        /* \"#utility.yul\":197:198   */\n      0x00\n        /* \"#utility.yul\":194:195   */\n      dup1\n        /* \"#utility.yul\":187:199   */\n      revert\n        /* \"#utility.yul\":334:411   */\n    tag_46:\n        /* \"#utility.yul\":371:378   */\n      0x00\n        /* \"#utility.yul\":400:405   */\n      dup2\n        /* \"#utility.yul\":389:405   */\n      swap1\n      pop\n        /* \"#utility.yul\":334:411   */\n      swap2\n      swap1\n      pop\n      jump\t// out\n        /* \"#utility.yul\":417:539   */\n    tag_47:\n        /* \"#utility.yul\":490:514   */\n      tag_70\n        /* \"#utility.yul\":508:513   */\n      dup2\n        /* \"#utility.yul\":490:514   */\n      tag_46\n      jump\t// in\n    tag_70:\n        /* \"#utility.yul\":483:488   */\n      dup2\n        /* \"#utility.yul\":480:515   */\n      eq\n        /* \"#utility.yul\":470:533   */\n      tag_71\n      jumpi\n        /* \"#utility.yul\":529:530   */\n      0x00\n        /* \"#utility.yul\":526:527   */\n      dup1\n        /* \"#utility.yul\":519:531   */\n      revert\n        /* \"#utility.yul\":470:533   */\n    tag_71:\n        /* \"#utility.yul\":417:539   */\n      pop\n      jump\t// out\n        /* \"#utility.yul\":545:684   */\n    tag_48:\n        /* \"#utility.yul\":591:596   */\n      0x00\n        /* \"#utility.yul\":629:635   */\n      dup2\n        /* \"#utility.yul\":616:636   */\n      calldataload\n        /* \"#utility.yul\":607:636   */\n      swap1\n      pop\n        /* \"#utility.yul\":645:678   */\n      tag_73\n        /* \"#utility.yul\":672:677   */\n      dup2\n        /* \"#utility.yul\":645:678   */\n      tag_47\n      jump\t// in\n    tag_73:\n        /* \"#utility.yul\":545:684   */\n      swap3\n      swap2\n      pop\n      pop\n      jump\t// out\n        /* \"#utility.yul\":690:1019   */\n    tag_10:\n        /* \"#utility.yul\":749:755   */\n      0x00\n        /* \"#utility.yul\":798:800   */\n      0x20\n        /* \"#utility.yul\":786:795   */\n      dup3\n        /* \"#utility.yul\":777:784   */\n      dup5\n        /* \"#utility.yul\":773:796   */\n      sub\n        /* \"#utility.yul\":769:801   */\n      slt\n        /* \"#utility.yul\":766:885   */\n      iszero\n      tag_75\n      jumpi\n        /* \"#utility.yul\":804:883   */\n      tag_76\n      tag_44\n      jump\t// in\n    tag_76:\n        /* \"#utility.yul\":766:885   */\n    tag_75:\n        /* \"#utility.yul\":924:925   */\n      0x00\n        /* \"#utility.yul\":949:1002   */\n      tag_77\n        /* \"#utility.yul\":994:1001   */\n      dup5\n        /* \"#utility.yul\":985:991   */\n      dup3\n        /* \"#utility.yul\":974:983   */\n      dup6\n        /* \"#utility.yul\":970:992   */\n      add\n        /* \"#utility.yul\":949:1002   */\n      tag_48\n      jump\t// in\n    tag_77:\n        /* \"#utility.yul\":939:1002   */\n      swap2\n      pop\n        /* \"#utility.yul\":895:1012   */\n      pop\n        /* \"#utility.yul\":690:1019   */\n      swap3\n      swap2\n      pop\n      pop\n      jump\t// out\n        /* \"#utility.yul\":1025:1151   */\n    tag_49:\n        /* \"#utility.yul\":1062:1069   */\n      0x00\n        /* \"#utility.yul\":1102:1144   */\n      0xffffffffffffffffffffffffffffffffffffffff\n        /* \"#utility.yul\":1095:1100   */\n      dup3\n        /* \"#utility.yul\":1091:1145   */\n      and\n        /* \"#utility.yul\":1080:1145   */\n      swap1\n      pop\n        /* \"#utility.yul\":1025:1151   */\n      swap2\n      swap1\n      pop\n      jump\t// out\n        /* \"#utility.yul\":1157:1253   */\n    tag_50:\n        /* \"#utility.yul\":1194:1201   */\n      0x00\n        /* \"#utility.yul\":1223:1247   */\n      tag_80\n        /* \"#utility.yul\":1241:1246   */\n      dup3\n        /* \"#utility.yul\":1223:1247   */\n      tag_49\n      jump\t// in\n    tag_80:\n        /* \"#utility.yul\":1212:1247   */\n      swap1\n      pop\n        /* \"#utility.yul\":1157:1253   */\n      swap2\n      swap1\n      pop\n      jump\t// out\n        /* \"#utility.yul\":1259:1377   */\n    tag_51:\n        /* \"#utility.yul\":1346:1370   */\n      tag_82\n        /* \"#utility.yul\":1364:1369   */\n      dup2\n        /* \"#utility.yul\":1346:1370   */\n      tag_50\n      jump\t// in\n    tag_82:\n        /* \"#utility.yul\":1341:1344   */\n      dup3\n        /* \"#utility.yul\":1334:1371   */\n      mstore\n        /* \"#utility.yul\":1259:1377   */\n      pop\n      pop\n      jump\t// out\n        /* \"#utility.yul\":1383:1501   */\n    tag_52:\n        /* \"#utility.yul\":1470:1494   */\n      tag_84\n        /* \"#utility.yul\":1488:1493   */\n      dup2\n        /* \"#utility.yul\":1470:1494   */\n      tag_46\n      jump\t// in\n    tag_84:\n        /* \"#utility.yul\":1465:1468   */\n      dup3\n        /* \"#utility.yul\":1458:1495   */\n      mstore\n        /* \"#utility.yul\":1383:1501   */\n      pop\n      pop\n      jump\t// out\n        /* \"#utility.yul\":1507:2060   */\n    tag_13:\n        /* \"#utility.yul\":1684:1688   */\n      0x00\n        /* \"#utility.yul\":1722:1725   */\n      0x80\n        /* \"#utility.yul\":1711:1720   */\n      dup3\n        /* \"#utility.yul\":1707:1726   */\n      add\n        /* \"#utility.yul\":1699:1726   */\n      swap1\n      pop\n        /* \"#utility.yul\":1736:1807   */\n      tag_86\n        /* \"#utility.yul\":1804:1805   */\n      0x00\n        /* \"#utility.yul\":1793:1802   */\n      dup4\n        /* \"#utility.yul\":1789:1806   */\n      add\n        /* \"#utility.yul\":1780:1786   */\n      dup8\n        /* \"#utility.yul\":1736:1807   */\n      tag_51\n      jump\t// in\n    tag_86:\n        /* \"#utility.yul\":1817:1889   */\n      tag_87\n        /* \"#utility.yul\":1885:1887   */\n      0x20\n        /* \"#utility.yul\":1874:1883   */\n      dup4\n        /* \"#utility.yul\":1870:1888   */\n      add\n        /* \"#utility.yul\":1861:1867   */\n      dup7\n        /* \"#utility.yul\":1817:1889   */\n      tag_51\n      jump\t// in\n    tag_87:\n        /* \"#utility.yul\":1899:1971   */\n      tag_88\n        /* \"#utility.yul\":1967:1969   */\n      0x40\n        /* \"#utility.yul\":1956:1965   */\n      dup4\n        /* \"#utility.yul\":1952:1970   */\n      add\n        /* \"#utility.yul\":1943:1949   */\n      dup6\n        /* \"#utility.yul\":1899:1971   */\n      tag_52\n      jump\t// in\n    tag_88:\n        /* \"#utility.yul\":1981:2053   */\n      tag_89\n        /* \"#utility.yul\":2049:2051   */\n      0x60\n        /* \"#utility.yul\":2038:2047   */\n      dup4\n        /* \"#utility.yul\":2034:2052   */\n      add\n        /* \"#utility.yul\":2025:2031   */\n      dup5\n        /* \"#utility.yul\":1981:2053   */\n      tag_52\n      jump\t// in\n    tag_89:\n        /* \"#utility.yul\":1507:2060   */\n      swap6\n      swap5\n      pop\n      pop\n      pop\n      pop\n      pop\n      jump\t// out\n        /* \"#utility.yul\":2066:2288   */\n    tag_17:\n        /* \"#utility.yul\":2159:2163   */\n      0x00\n        /* \"#utility.yul\":2197:2199   */\n      0x20\n        /* \"#utility.yul\":2186:2195   */\n      dup3\n        /* \"#utility.yul\":2182:2200   */\n      add\n        /* \"#utility.yul\":2174:2200   */\n      swap1\n      pop\n        /* \"#utility.yul\":2210:2281   */\n      tag_91\n        /* \"#utility.yul\":2278:2279   */\n      0x00\n        /* \"#utility.yul\":2267:2276   */\n      dup4\n        /* \"#utility.yul\":2263:2280   */\n      add\n        /* \"#utility.yul\":2254:2260   */\n      dup5\n        /* \"#utility.yul\":2210:2281   */\n      tag_52\n      jump\t// in\n    tag_91:\n        /* \"#utility.yul\":2066:2288   */\n      swap3\n      swap2\n      pop\n      pop\n      jump\t// out\n        /* \"#utility.yul\":2294:2402   */\n    tag_53:\n        /* \"#utility.yul\":2371:2395   */\n      tag_93\n        /* \"#utility.yul\":2389:2394   */\n      dup2\n        /* \"#utility.yul\":2371:2395   */\n      tag_50\n      jump\t// in\n    tag_93:\n        /* \"#utility.yul\":2366:2369   */\n      dup3\n        /* \"#utility.yul\":2359:2396   */\n      mstore\n        /* \"#utility.yul\":2294:2402   */\n      pop\n      pop\n      jump\t// out\n        /* \"#utility.yul\":2408:2516   */\n    tag_54:\n        /* \"#utility.yul\":2485:2509   */\n      tag_95\n        /* \"#utility.yul\":2503:2508   */\n      dup2\n        /* \"#utility.yul\":2485:2509   */\n      tag_46\n      jump\t// in\n    tag_95:\n        /* \"#utility.yul\":2480:2483   */\n      dup3\n        /* \"#utility.yul\":2473:2510   */\n      mstore\n        /* \"#utility.yul\":2408:2516   */\n      pop\n      pop\n      jump\t// out\n        /* \"#utility.yul\":2596:3480   */\n    tag_55:\n        /* \"#utility.yul\":2751:2755   */\n      0x80\n        /* \"#utility.yul\":2746:2749   */\n      dup3\n        /* \"#utility.yul\":2742:2756   */\n      add\n        /* \"#utility.yul\":2846:2850   */\n      0x00\n        /* \"#utility.yul\":2839:2844   */\n      dup3\n        /* \"#utility.yul\":2835:2851   */\n      add\n        /* \"#utility.yul\":2829:2852   */\n      mload\n        /* \"#utility.yul\":2865:2928   */\n      tag_97\n        /* \"#utility.yul\":2922:2926   */\n      0x00\n        /* \"#utility.yul\":2917:2920   */\n      dup6\n        /* \"#utility.yul\":2913:2927   */\n      add\n        /* \"#utility.yul\":2899:2911   */\n      dup3\n        /* \"#utility.yul\":2865:2928   */\n      tag_53\n      jump\t// in\n    tag_97:\n        /* \"#utility.yul\":2766:2938   */\n      pop\n        /* \"#utility.yul\":3026:3030   */\n      0x20\n        /* \"#utility.yul\":3019:3024   */\n      dup3\n        /* \"#utility.yul\":3015:3031   */\n      add\n        /* \"#utility.yul\":3009:3032   */\n      mload\n        /* \"#utility.yul\":3045:3108   */\n      tag_98\n        /* \"#utility.yul\":3102:3106   */\n      0x20\n        /* \"#utility.yul\":3097:3100   */\n      dup6\n        /* \"#utility.yul\":3093:3107   */\n      add\n        /* \"#utility.yul\":3079:3091   */\n      dup3\n        /* \"#utility.yul\":3045:3108   */\n      tag_53\n      jump\t// in\n    tag_98:\n        /* \"#utility.yul\":2948:3118   */\n      pop\n        /* \"#utility.yul\":3202:3206   */\n      0x40\n        /* \"#utility.yul\":3195:3200   */\n      dup3\n        /* \"#utility.yul\":3191:3207   */\n      add\n        /* \"#utility.yul\":3185:3208   */\n      mload\n        /* \"#utility.yul\":3221:3284   */\n      tag_99\n        /* \"#utility.yul\":3278:3282   */\n      0x40\n        /* \"#utility.yul\":3273:3276   */\n      dup6\n        /* \"#utility.yul\":3269:3283   */\n      add\n        /* \"#utility.yul\":3255:3267   */\n      dup3\n        /* \"#utility.yul\":3221:3284   */\n      tag_54\n      jump\t// in\n    tag_99:\n        /* \"#utility.yul\":3128:3294   */\n      pop\n        /* \"#utility.yul\":3381:3385   */\n      0x60\n        /* \"#utility.yul\":3374:3379   */\n      dup3\n        /* \"#utility.yul\":3370:3386   */\n      add\n        /* \"#utility.yul\":3364:3387   */\n      mload\n        /* \"#utility.yul\":3400:3463   */\n      tag_100\n        /* \"#utility.yul\":3457:3461   */\n      0x60\n        /* \"#utility.yul\":3452:3455   */\n      dup6\n        /* \"#utility.yul\":3448:3462   */\n      add\n        /* \"#utility.yul\":3434:3446   */\n      dup3\n        /* \"#utility.yul\":3400:3463   */\n      tag_54\n      jump\t// in\n    tag_100:\n        /* \"#utility.yul\":3304:3473   */\n      pop\n        /* \"#utility.yul\":2720:3480   */\n      pop\n        /* \"#utility.yul\":2596:3480   */\n      pop\n      pop\n      jump\t// out\n        /* \"#utility.yul\":3486:3825   */\n    tag_22:\n        /* \"#utility.yul\":3637:3641   */\n      0x00\n        /* \"#utility.yul\":3675:3678   */\n      0x80\n        /* \"#utility.yul\":3664:3673   */\n      dup3\n        /* \"#utility.yul\":3660:3679   */\n      add\n        /* \"#utility.yul\":3652:3679   */\n      swap1\n      pop\n        /* \"#utility.yul\":3689:3818   */\n      tag_102\n        /* \"#utility.yul\":3815:3816   */\n      0x00\n        /* \"#utility.yul\":3804:3813   */\n      dup4\n        /* \"#utility.yul\":3800:3817   */\n      add\n        /* \"#utility.yul\":3791:3797   */\n      dup5\n        /* \"#utility.yul\":3689:3818   */\n      tag_55\n      jump\t// in\n    tag_102:\n        /* \"#utility.yul\":3486:3825   */\n      swap3\n      swap2\n      pop\n      pop\n      jump\t// out\n        /* \"#utility.yul\":3831:3974   */\n    tag_56:\n        /* \"#utility.yul\":3927:3933   */\n      0x00\n        /* \"#utility.yul\":3961:3966   */\n      dup2\n        /* \"#utility.yul\":3955:3967   */\n      mload\n        /* \"#utility.yul\":3945:3967   */\n      swap1\n      pop\n        /* \"#utility.yul\":3831:3974   */\n      swap2\n      swap1\n      pop\n      jump\t// out\n        /* \"#utility.yul\":3980:4193   */\n    tag_57:\n        /* \"#utility.yul\":4108:4119   */\n      0x00\n        /* \"#utility.yul\":4142:4148   */\n      dup3\n        /* \"#utility.yul\":4137:4140   */\n      dup3\n        /* \"#utility.yul\":4130:4149   */\n      mstore\n        /* \"#utility.yul\":4182:4186   */\n      0x20\n        /* \"#utility.yul\":4177:4180   */\n      dup3\n        /* \"#utility.yul\":4173:4187   */\n      add\n        /* \"#utility.yul\":4158:4187   */\n      swap1\n      pop\n        /* \"#utility.yul\":3980:4193   */\n      swap3\n      swap2\n      pop\n      pop\n      jump\t// out\n        /* \"#utility.yul\":4199:4360   */\n    tag_58:\n        /* \"#utility.yul\":4295:4299   */\n      0x00\n        /* \"#utility.yul\":4318:4321   */\n      dup2\n        /* \"#utility.yul\":4310:4321   */\n      swap1\n      pop\n        /* \"#utility.yul\":4348:4352   */\n      0x20\n        /* \"#utility.yul\":4343:4346   */\n      dup3\n        /* \"#utility.yul\":4339:4353   */\n      add\n        /* \"#utility.yul\":4331:4353   */\n      swap1\n      pop\n        /* \"#utility.yul\":4199:4360   */\n      swap2\n      swap1\n      pop\n      jump\t// out\n        /* \"#utility.yul\":4440:5314   */\n    tag_59:\n        /* \"#utility.yul\":4585:4589   */\n      0x80\n        /* \"#utility.yul\":4580:4583   */\n      dup3\n        /* \"#utility.yul\":4576:4590   */\n      add\n        /* \"#utility.yul\":4680:4684   */\n      0x00\n        /* \"#utility.yul\":4673:4678   */\n      dup3\n        /* \"#utility.yul\":4669:4685   */\n      add\n        /* \"#utility.yul\":4663:4686   */\n      mload\n        /* \"#utility.yul\":4699:4762   */\n      tag_107\n        /* \"#utility.yul\":4756:4760   */\n      0x00\n        /* \"#utility.yul\":4751:4754   */\n      dup6\n        /* \"#utility.yul\":4747:4761   */\n      add\n        /* \"#utility.yul\":4733:4745   */\n      dup3\n        /* \"#utility.yul\":4699:4762   */\n      tag_53\n      jump\t// in\n    tag_107:\n        /* \"#utility.yul\":4600:4772   */\n      pop\n        /* \"#utility.yul\":4860:4864   */\n      0x20\n        /* \"#utility.yul\":4853:4858   */\n      dup3\n        /* \"#utility.yul\":4849:4865   */\n      add\n        /* \"#utility.yul\":4843:4866   */\n      mload\n        /* \"#utility.yul\":4879:4942   */\n      tag_108\n        /* \"#utility.yul\":4936:4940   */\n      0x20\n        /* \"#utility.yul\":4931:4934   */\n      dup6\n        /* \"#utility.yul\":4927:4941   */\n      add\n        /* \"#utility.yul\":4913:4925   */\n      dup3\n        /* \"#utility.yul\":4879:4942   */\n      tag_53\n      jump\t// in\n    tag_108:\n        /* \"#utility.yul\":4782:4952   */\n      pop\n        /* \"#utility.yul\":5036:5040   */\n      0x40\n        /* \"#utility.yul\":5029:5034   */\n      dup3\n        /* \"#utility.yul\":5025:5041   */\n      add\n        /* \"#utility.yul\":5019:5042   */\n      mload\n        /* \"#utility.yul\":5055:5118   */\n      tag_109\n        /* \"#utility.yul\":5112:5116   */\n      0x40\n        /* \"#utility.yul\":5107:5110   */\n      dup6\n        /* \"#utility.yul\":5103:5117   */\n      add\n        /* \"#utility.yul\":5089:5101   */\n      dup3\n        /* \"#utility.yul\":5055:5118   */\n      tag_54\n      jump\t// in\n    tag_109:\n        /* \"#utility.yul\":4962:5128   */\n      pop\n        /* \"#utility.yul\":5215:5219   */\n      0x60\n        /* \"#utility.yul\":5208:5213   */\n      dup3\n        /* \"#utility.yul\":5204:5220   */\n      add\n        /* \"#utility.yul\":5198:5221   */\n      mload\n        /* \"#utility.yul\":5234:5297   */\n      tag_110\n        /* \"#utility.yul\":5291:5295   */\n      0x60\n        /* \"#utility.yul\":5286:5289   */\n      dup6\n        /* \"#utility.yul\":5282:5296   */\n      add\n        /* \"#utility.yul\":5268:5280   */\n      dup3\n        /* \"#utility.yul\":5234:5297   */\n      tag_54\n      jump\t// in\n    tag_110:\n        /* \"#utility.yul\":5138:5307   */\n      pop\n        /* \"#utility.yul\":4554:5314   */\n      pop\n        /* \"#utility.yul\":4440:5314   */\n      pop\n      pop\n      jump\t// out\n        /* \"#utility.yul\":5320:5615   */\n    tag_60:\n        /* \"#utility.yul\":5447:5457   */\n      0x00\n        /* \"#utility.yul\":5468:5572   */\n      tag_112\n        /* \"#utility.yul\":5568:5571   */\n      dup4\n        /* \"#utility.yul\":5560:5566   */\n      dup4\n        /* \"#utility.yul\":5468:5572   */\n      tag_59\n      jump\t// in\n    tag_112:\n        /* \"#utility.yul\":5604:5608   */\n      0x80\n        /* \"#utility.yul\":5599:5602   */\n      dup4\n        /* \"#utility.yul\":5595:5609   */\n      add\n        /* \"#utility.yul\":5581:5609   */\n      swap1\n      pop\n        /* \"#utility.yul\":5320:5615   */\n      swap3\n      swap2\n      pop\n      pop\n      jump\t// out\n        /* \"#utility.yul\":5621:5763   */\n    tag_61:\n        /* \"#utility.yul\":5720:5724   */\n      0x00\n        /* \"#utility.yul\":5752:5756   */\n      0x20\n        /* \"#utility.yul\":5747:5750   */\n      dup3\n        /* \"#utility.yul\":5743:5757   */\n      add\n        /* \"#utility.yul\":5735:5757   */\n      swap1\n      pop\n        /* \"#utility.yul\":5621:5763   */\n      swap2\n      swap1\n      pop\n      jump\t// out\n        /* \"#utility.yul\":5847:6811   */\n    tag_62:\n        /* \"#utility.yul\":6024:6027   */\n      0x00\n        /* \"#utility.yul\":6053:6136   */\n      tag_115\n        /* \"#utility.yul\":6130:6135   */\n      dup3\n        /* \"#utility.yul\":6053:6136   */\n      tag_56\n      jump\t// in\n    tag_115:\n        /* \"#utility.yul\":6152:6267   */\n      tag_116\n        /* \"#utility.yul\":6260:6266   */\n      dup2\n        /* \"#utility.yul\":6255:6258   */\n      dup6\n        /* \"#utility.yul\":6152:6267   */\n      tag_57\n      jump\t// in\n    tag_116:\n        /* \"#utility.yul\":6145:6267   */\n      swap4\n      pop\n        /* \"#utility.yul\":6291:6376   */\n      tag_117\n        /* \"#utility.yul\":6370:6375   */\n      dup4\n        /* \"#utility.yul\":6291:6376   */\n      tag_58\n      jump\t// in\n    tag_117:\n        /* \"#utility.yul\":6399:6406   */\n      dup1\n        /* \"#utility.yul\":6430:6431   */\n      0x00\n        /* \"#utility.yul\":6415:6786   */\n    tag_118:\n        /* \"#utility.yul\":6440:6446   */\n      dup4\n        /* \"#utility.yul\":6437:6438   */\n      dup2\n        /* \"#utility.yul\":6434:6447   */\n      lt\n        /* \"#utility.yul\":6415:6786   */\n      iszero\n      tag_120\n      jumpi\n        /* \"#utility.yul\":6516:6522   */\n      dup2\n        /* \"#utility.yul\":6510:6523   */\n      mload\n        /* \"#utility.yul\":6543:6664   */\n      tag_121\n        /* \"#utility.yul\":6660:6663   */\n      dup9\n        /* \"#utility.yul\":6645:6658   */\n      dup3\n        /* \"#utility.yul\":6543:6664   */\n      tag_60\n      jump\t// in\n    tag_121:\n        /* \"#utility.yul\":6536:6664   */\n      swap8\n      pop\n        /* \"#utility.yul\":6687:6776   */\n      tag_122\n        /* \"#utility.yul\":6769:6775   */\n      dup4\n        /* \"#utility.yul\":6687:6776   */\n      tag_61\n      jump\t// in\n    tag_122:\n        /* \"#utility.yul\":6677:6776   */\n      swap3\n      pop\n        /* \"#utility.yul\":6475:6786   */\n      pop\n        /* \"#utility.yul\":6462:6463   */\n      0x01\n        /* \"#utility.yul\":6459:6460   */\n      dup2\n        /* \"#utility.yul\":6455:6464   */\n      add\n        /* \"#utility.yul\":6450:6464   */\n      swap1\n      pop\n        /* \"#utility.yul\":6415:6786   */\n      jump(tag_118)\n    tag_120:\n        /* \"#utility.yul\":6419:6433   */\n      pop\n        /* \"#utility.yul\":6802:6805   */\n      dup6\n        /* \"#utility.yul\":6795:6805   */\n      swap4\n      pop\n        /* \"#utility.yul\":6029:6811   */\n      pop\n      pop\n      pop\n        /* \"#utility.yul\":5847:6811   */\n      swap3\n      swap2\n      pop\n      pop\n      jump\t// out\n        /* \"#utility.yul\":6817:7306   */\n    tag_30:\n        /* \"#utility.yul\":7018:7022   */\n      0x00\n        /* \"#utility.yul\":7056:7058   */\n      0x20\n        /* \"#utility.yul\":7045:7054   */\n      dup3\n        /* \"#utility.yul\":7041:7059   */\n      add\n        /* \"#utility.yul\":7033:7059   */\n      swap1\n      pop\n        /* \"#utility.yul\":7105:7114   */\n      dup2\n        /* \"#utility.yul\":7099:7103   */\n      dup2\n        /* \"#utility.yul\":7095:7115   */\n      sub\n        /* \"#utility.yul\":7091:7092   */\n      0x00\n        /* \"#utility.yul\":7080:7089   */\n      dup4\n        /* \"#utility.yul\":7076:7093   */\n      add\n        /* \"#utility.yul\":7069:7116   */\n      mstore\n        /* \"#utility.yul\":7133:7299   */\n      tag_124\n        /* \"#utility.yul\":7294:7298   */\n      dup2\n        /* \"#utility.yul\":7285:7291   */\n      dup5\n        /* \"#utility.yul\":7133:7299   */\n      tag_62\n      jump\t// in\n    tag_124:\n        /* \"#utility.yul\":7125:7299   */\n      swap1\n      pop\n        /* \"#utility.yul\":6817:7306   */\n      swap3\n      swap2\n      pop\n      pop\n      jump\t// out\n        /* \"#utility.yul\":7312:7492   */\n    tag_63:\n        /* \"#utility.yul\":7360:7437   */\n      0x4e487b7100000000000000000000000000000000000000000000000000000000\n        /* \"#utility.yul\":7357:7358   */\n      0x00\n        /* \"#utility.yul\":7350:7438   */\n      mstore\n        /* \"#utility.yul\":7457:7461   */\n      0x11\n        /* \"#utility.yul\":7454:7455   */\n      0x04\n        /* \"#utility.yul\":7447:7462   */\n      mstore\n        /* \"#utility.yul\":7481:7485   */\n      0x24\n        /* \"#utility.yul\":7478:7479   */\n      0x00\n        /* \"#utility.yul\":7471:7486   */\n      revert\n        /* \"#utility.yul\":7498:7692   */\n    tag_38:\n        /* \"#utility.yul\":7538:7542   */\n      0x00\n        /* \"#utility.yul\":7558:7578   */\n      tag_127\n        /* \"#utility.yul\":7576:7577   */\n      dup3\n        /* \"#utility.yul\":7558:7578   */\n      tag_46\n      jump\t// in\n    tag_127:\n        /* \"#utility.yul\":7553:7578   */\n      swap2\n      pop\n        /* \"#utility.yul\":7592:7612   */\n      tag_128\n        /* \"#utility.yul\":7610:7611   */\n      dup4\n        /* \"#utility.yul\":7592:7612   */\n      tag_46\n      jump\t// in\n    tag_128:\n        /* \"#utility.yul\":7587:7612   */\n      swap3\n      pop\n        /* \"#utility.yul\":7636:7637   */\n      dup3\n        /* \"#utility.yul\":7633:7634   */\n      dup3\n        /* \"#utility.yul\":7629:7638   */\n      sub\n        /* \"#utility.yul\":7621:7638   */\n      swap1\n      pop\n        /* \"#utility.yul\":7660:7661   */\n      dup2\n        /* \"#utility.yul\":7654:7658   */\n      dup2\n        /* \"#utility.yul\":7651:7662   */\n      gt\n        /* \"#utility.yul\":7648:7685   */\n      iszero\n      tag_129\n      jumpi\n        /* \"#utility.yul\":7665:7683   */\n      tag_130\n      tag_63\n      jump\t// in\n    tag_130:\n        /* \"#utility.yul\":7648:7685   */\n    tag_129:\n        /* \"#utility.yul\":7498:7692   */\n      swap3\n      swap2\n      pop\n      pop\n      jump\t// out\n\n    auxdata: 0xa2646970667358221220631af5b354bdbd24426e259566287219de553f1071d948008813fc60ce941acc64736f6c63430008100033\n}\n",
				"bytecode": {
					"linkReferences": {},
					"object": "6080604052600060025534801561001557600080fd5b50610803806100256000396000f3fe608060405234801561001057600080fd5b50600436106100575760003560e01c806304ef5b211461005c57806324ba506d1461008f57806345838c42146100ad57806357bf72e3146100dd57806383920e9014610110575b600080fd5b610076600480360381019061007191906104d9565b61012e565b6040516100869493929190610556565b60405180910390f35b6100976101ae565b6040516100a4919061059b565b60405180910390f35b6100c760048036038101906100c291906104d9565b6101b8565b6040516100d49190610629565b60405180910390f35b6100f760048036038101906100f291906104d9565b6102bb565b6040516101079493929190610556565b60405180910390f35b61011861032b565b6040516101259190610748565b60405180910390f35b6000818154811061013e57600080fd5b90600052602060002090600402016000915090508060000160009054906101000a900473ffffffffffffffffffffffffffffffffffffffff16908060010160009054906101000a900473ffffffffffffffffffffffffffffffffffffffff16908060020154908060030154905084565b6000600254905090565b6101c061044a565b6000826000805490506101d39190610799565b9050600160008281526020019081526020016000206040518060800160405290816000820160009054906101000a900473ffffffffffffffffffffffffffffffffffffffff1673ffffffffffffffffffffffffffffffffffffffff1673ffffffffffffffffffffffffffffffffffffffff1681526020016001820160009054906101000a900473ffffffffffffffffffffffffffffffffffffffff1673ffffffffffffffffffffffffffffffffffffffff1673ffffffffffffffffffffffffffffffffffffffff16815260200160028201548152602001600382015481525050915050919050565b60016020528060005260406000206000915090508060000160009054906101000a900473ffffffffffffffffffffffffffffffffffffffff16908060010160009054906101000a900473ffffffffffffffffffffffffffffffffffffffff16908060020154908060030154905084565b60606000805480602002602001604051908101604052809291908181526020016000905b8282101561044157838290600052602060002090600402016040518060800160405290816000820160009054906101000a900473ffffffffffffffffffffffffffffffffffffffff1673ffffffffffffffffffffffffffffffffffffffff1673ffffffffffffffffffffffffffffffffffffffff1681526020016001820160009054906101000a900473ffffffffffffffffffffffffffffffffffffffff1673ffffffffffffffffffffffffffffffffffffffff1673ffffffffffffffffffffffffffffffffffffffff168152602001600282015481526020016003820154815250508152602001906001019061034f565b50505050905090565b6040518060800160405280600073ffffffffffffffffffffffffffffffffffffffff168152602001600073ffffffffffffffffffffffffffffffffffffffff16815260200160008152602001600081525090565b600080fd5b6000819050919050565b6104b6816104a3565b81146104c157600080fd5b50565b6000813590506104d3816104ad565b92915050565b6000602082840312156104ef576104ee61049e565b5b60006104fd848285016104c4565b91505092915050565b600073ffffffffffffffffffffffffffffffffffffffff82169050919050565b600061053182610506565b9050919050565b61054181610526565b82525050565b610550816104a3565b82525050565b600060808201905061056b6000830187610538565b6105786020830186610538565b6105856040830185610547565b6105926060830184610547565b95945050505050565b60006020820190506105b06000830184610547565b92915050565b6105bf81610526565b82525050565b6105ce816104a3565b82525050565b6080820160008201516105ea60008501826105b6565b5060208201516105fd60208501826105b6565b50604082015161061060408501826105c5565b50606082015161062360608501826105c5565b50505050565b600060808201905061063e60008301846105d4565b92915050565b600081519050919050565b600082825260208201905092915050565b6000819050602082019050919050565b60808201600082015161068660008501826105b6565b50602082015161069960208501826105b6565b5060408201516106ac60408501826105c5565b5060608201516106bf60608501826105c5565b50505050565b60006106d18383610670565b60808301905092915050565b6000602082019050919050565b60006106f582610644565b6106ff818561064f565b935061070a83610660565b8060005b8381101561073b57815161072288826106c5565b975061072d836106dd565b92505060018101905061070e565b5085935050505092915050565b6000602082019050818103600083015261076281846106ea565b905092915050565b7f4e487b7100000000000000000000000000000000000000000000000000000000600052601160045260246000fd5b60006107a4826104a3565b91506107af836104a3565b92508282039050818111156107c7576107c661076a565b5b9291505056fea2646970667358221220631af5b354bdbd24426e259566287219de553f1071d948008813fc60ce941acc64736f6c63430008100033",
					"opcodes": "PUSH1 0x80 PUSH1 0x40 MSTORE PUSH1 0x0 PUSH1 0x2 SSTORE CALLVALUE DUP1 ISZERO PUSH2 0x15 JUMPI PUSH1 0x0 DUP1 REVERT JUMPDEST POP PUSH2 0x803 DUP1 PUSH2 0x25 PUSH1 0x0 CODECOPY PUSH1 0x0 RETURN INVALID PUSH1 0x80 PUSH1 0x40 MSTORE CALLVALUE DUP1 ISZERO PUSH2 0x10 JUMPI PUSH1 0x0 DUP1 REVERT JUMPDEST POP PUSH1 0x4 CALLDATASIZE LT PUSH2 0x57 JUMPI PUSH1 0x0 CALLDATALOAD PUSH1 0xE0 SHR DUP1 PUSH4 0x4EF5B21 EQ PUSH2 0x5C JUMPI DUP1 PUSH4 0x24BA506D EQ PUSH2 0x8F JUMPI DUP1 PUSH4 0x45838C42 EQ PUSH2 0xAD JUMPI DUP1 PUSH4 0x57BF72E3 EQ PUSH2 0xDD JUMPI DUP1 PUSH4 0x83920E90 EQ PUSH2 0x110 JUMPI JUMPDEST PUSH1 0x0 DUP1 REVERT JUMPDEST PUSH2 0x76 PUSH1 0x4 DUP1 CALLDATASIZE SUB DUP2 ADD SWAP1 PUSH2 0x71 SWAP2 SWAP1 PUSH2 0x4D9 JUMP JUMPDEST PUSH2 0x12E JUMP JUMPDEST PUSH1 0x40 MLOAD PUSH2 0x86 SWAP5 SWAP4 SWAP3 SWAP2 SWAP1 PUSH2 0x556 JUMP JUMPDEST PUSH1 0x40 MLOAD DUP1 SWAP2 SUB SWAP1 RETURN JUMPDEST PUSH2 0x97 PUSH2 0x1AE JUMP JUMPDEST PUSH1 0x40 MLOAD PUSH2 0xA4 SWAP2 SWAP1 PUSH2 0x59B JUMP JUMPDEST PUSH1 0x40 MLOAD DUP1 SWAP2 SUB SWAP1 RETURN JUMPDEST PUSH2 0xC7 PUSH1 0x4 DUP1 CALLDATASIZE SUB DUP2 ADD SWAP1 PUSH2 0xC2 SWAP2 SWAP1 PUSH2 0x4D9 JUMP JUMPDEST PUSH2 0x1B8 JUMP JUMPDEST PUSH1 0x40 MLOAD PUSH2 0xD4 SWAP2 SWAP1 PUSH2 0x629 JUMP JUMPDEST PUSH1 0x40 MLOAD DUP1 SWAP2 SUB SWAP1 RETURN JUMPDEST PUSH2 0xF7 PUSH1 0x4 DUP1 CALLDATASIZE SUB DUP2 ADD SWAP1 PUSH2 0xF2 SWAP2 SWAP1 PUSH2 0x4D9 JUMP JUMPDEST PUSH2 0x2BB JUMP JUMPDEST PUSH1 0x40 MLOAD PUSH2 0x107 SWAP5 SWAP4 SWAP3 SWAP2 SWAP1 PUSH2 0x556 JUMP JUMPDEST PUSH1 0x40 MLOAD DUP1 SWAP2 SUB SWAP1 RETURN JUMPDEST PUSH2 0x118 PUSH2 0x32B JUMP JUMPDEST PUSH1 0x40 MLOAD PUSH2 0x125 SWAP2 SWAP1 PUSH2 0x748 JUMP JUMPDEST PUSH1 0x40 MLOAD DUP1 SWAP2 SUB SWAP1 RETURN JUMPDEST PUSH1 0x0 DUP2 DUP2 SLOAD DUP2 LT PUSH2 0x13E JUMPI PUSH1 0x0 DUP1 REVERT JUMPDEST SWAP1 PUSH1 0x0 MSTORE PUSH1 0x20 PUSH1 0x0 KECCAK256 SWAP1 PUSH1 0x4 MUL ADD PUSH1 0x0 SWAP2 POP SWAP1 POP DUP1 PUSH1 0x0 ADD PUSH1 0x0 SWAP1 SLOAD SWAP1 PUSH2 0x100 EXP SWAP1 DIV PUSH20 0xFFFFFFFFFFFFFFFFFFFFFFFFFFFFFFFFFFFFFFFF AND SWAP1 DUP1 PUSH1 0x1 ADD PUSH1 0x0 SWAP1 SLOAD SWAP1 PUSH2 0x100 EXP SWAP1 DIV PUSH20 0xFFFFFFFFFFFFFFFFFFFFFFFFFFFFFFFFFFFFFFFF AND SWAP1 DUP1 PUSH1 0x2 ADD SLOAD SWAP1 DUP1 PUSH1 0x3 ADD SLOAD SWAP1 POP DUP5 JUMP JUMPDEST PUSH1 0x0 PUSH1 0x2 SLOAD SWAP1 POP SWAP1 JUMP JUMPDEST PUSH2 0x1C0 PUSH2 0x44A JUMP JUMPDEST PUSH1 0x0 DUP3 PUSH1 0x0 DUP1 SLOAD SWAP1 POP PUSH2 0x1D3 SWAP2 SWAP1 PUSH2 0x799 JUMP JUMPDEST SWAP1 POP PUSH1 0x1 PUSH1 0x0 DUP3 DUP2 MSTORE PUSH1 0x20 ADD SWAP1 DUP2 MSTORE PUSH1 0x20 ADD PUSH1 0x0 KECCAK256 PUSH1 0x40 MLOAD DUP1 PUSH1 0x80 ADD PUSH1 0x40 MSTORE SWAP1 DUP2 PUSH1 0x0 DUP3 ADD PUSH1 0x0 SWAP1 SLOAD SWAP1 PUSH2 0x100 EXP SWAP1 DIV PUSH20 0xFFFFFFFFFFFFFFFFFFFFFFFFFFFFFFFFFFFFFFFF AND PUSH20 0xFFFFFFFFFFFFFFFFFFFFFFFFFFFFFFFFFFFFFFFF AND PUSH20 0xFFFFFFFFFFFFFFFFFFFFFFFFFFFFFFFFFFFFFFFF AND DUP2 MSTORE PUSH1 0x20 ADD PUSH1 0x1 DUP3 ADD PUSH1 0x0 SWAP1 SLOAD SWAP1 PUSH2 0x100 EXP SWAP1 DIV PUSH20 0xFFFFFFFFFFFFFFFFFFFFFFFFFFFFFFFFFFFFFFFF AND PUSH20 0xFFFFFFFFFFFFFFFFFFFFFFFFFFFFFFFFFFFFFFFF AND PUSH20 0xFFFFFFFFFFFFFFFFFFFFFFFFFFFFFFFFFFFFFFFF AND DUP2 MSTORE PUSH1 0x20 ADD PUSH1 0x2 DUP3 ADD SLOAD DUP2 MSTORE PUSH1 0x20 ADD PUSH1 0x3 DUP3 ADD SLOAD DUP2 MSTORE POP POP SWAP2 POP POP SWAP2 SWAP1 POP JUMP JUMPDEST PUSH1 0x1 PUSH1 0x20 MSTORE DUP1 PUSH1 0x0 MSTORE PUSH1 0x40 PUSH1 0x0 KECCAK256 PUSH1 0x0 SWAP2 POP SWAP1 POP DUP1 PUSH1 0x0 ADD PUSH1 0x0 SWAP1 SLOAD SWAP1 PUSH2 0x100 EXP SWAP1 DIV PUSH20 0xFFFFFFFFFFFFFFFFFFFFFFFFFFFFFFFFFFFFFFFF AND SWAP1 DUP1 PUSH1 0x1 ADD PUSH1 0x0 SWAP1 SLOAD SWAP1 PUSH2 0x100 EXP SWAP1 DIV PUSH20 0xFFFFFFFFFFFFFFFFFFFFFFFFFFFFFFFFFFFFFFFF AND SWAP1 DUP1 PUSH1 0x2 ADD SLOAD SWAP1 DUP1 PUSH1 0x3 ADD SLOAD SWAP1 POP DUP5 JUMP JUMPDEST PUSH1 0x60 PUSH1 0x0 DUP1 SLOAD DUP1 PUSH1 0x20 MUL PUSH1 0x20 ADD PUSH1 0x40 MLOAD SWAP1 DUP2 ADD PUSH1 0x40 MSTORE DUP1 SWAP3 SWAP2 SWAP1 DUP2 DUP2 MSTORE PUSH1 0x20 ADD PUSH1 0x0 SWAP1 JUMPDEST DUP3 DUP3 LT ISZERO PUSH2 0x441 JUMPI DUP4 DUP3 SWAP1 PUSH1 0x0 MSTORE PUSH1 0x20 PUSH1 0x0 KECCAK256 SWAP1 PUSH1 0x4 MUL ADD PUSH1 0x40 MLOAD DUP1 PUSH1 0x80 ADD PUSH1 0x40 MSTORE SWAP1 DUP2 PUSH1 0x0 DUP3 ADD PUSH1 0x0 SWAP1 SLOAD SWAP1 PUSH2 0x100 EXP SWAP1 DIV PUSH20 0xFFFFFFFFFFFFFFFFFFFFFFFFFFFFFFFFFFFFFFFF AND PUSH20 0xFFFFFFFFFFFFFFFFFFFFFFFFFFFFFFFFFFFFFFFF AND PUSH20 0xFFFFFFFFFFFFFFFFFFFFFFFFFFFFFFFFFFFFFFFF AND DUP2 MSTORE PUSH1 0x20 ADD PUSH1 0x1 DUP3 ADD PUSH1 0x0 SWAP1 SLOAD SWAP1 PUSH2 0x100 EXP SWAP1 DIV PUSH20 0xFFFFFFFFFFFFFFFFFFFFFFFFFFFFFFFFFFFFFFFF AND PUSH20 0xFFFFFFFFFFFFFFFFFFFFFFFFFFFFFFFFFFFFFFFF AND PUSH20 0xFFFFFFFFFFFFFFFFFFFFFFFFFFFFFFFFFFFFFFFF AND DUP2 MSTORE PUSH1 0x20 ADD PUSH1 0x2 DUP3 ADD SLOAD DUP2 MSTORE PUSH1 0x20 ADD PUSH1 0x3 DUP3 ADD SLOAD DUP2 MSTORE POP POP DUP2 MSTORE PUSH1 0x20 ADD SWAP1 PUSH1 0x1 ADD SWAP1 PUSH2 0x34F JUMP JUMPDEST POP POP POP POP SWAP1 POP SWAP1 JUMP JUMPDEST PUSH1 0x40 MLOAD DUP1 PUSH1 0x80 ADD PUSH1 0x40 MSTORE DUP1 PUSH1 0x0 PUSH20 0xFFFFFFFFFFFFFFFFFFFFFFFFFFFFFFFFFFFFFFFF AND DUP2 MSTORE PUSH1 0x20 ADD PUSH1 0x0 PUSH20 0xFFFFFFFFFFFFFFFFFFFFFFFFFFFFFFFFFFFFFFFF AND DUP2 MSTORE PUSH1 0x20 ADD PUSH1 0x0 DUP2 MSTORE PUSH1 0x20 ADD PUSH1 0x0 DUP2 MSTORE POP SWAP1 JUMP JUMPDEST PUSH1 0x0 DUP1 REVERT JUMPDEST PUSH1 0x0 DUP2 SWAP1 POP SWAP2 SWAP1 POP JUMP JUMPDEST PUSH2 0x4B6 DUP2 PUSH2 0x4A3 JUMP JUMPDEST DUP2 EQ PUSH2 0x4C1 JUMPI PUSH1 0x0 DUP1 REVERT JUMPDEST POP JUMP JUMPDEST PUSH1 0x0 DUP2 CALLDATALOAD SWAP1 POP PUSH2 0x4D3 DUP2 PUSH2 0x4AD JUMP JUMPDEST SWAP3 SWAP2 POP POP JUMP JUMPDEST PUSH1 0x0 PUSH1 0x20 DUP3 DUP5 SUB SLT ISZERO PUSH2 0x4EF JUMPI PUSH2 0x4EE PUSH2 0x49E JUMP JUMPDEST JUMPDEST PUSH1 0x0 PUSH2 0x4FD DUP5 DUP3 DUP6 ADD PUSH2 0x4C4 JUMP JUMPDEST SWAP2 POP POP SWAP3 SWAP2 POP POP JUMP JUMPDEST PUSH1 0x0 PUSH20 0xFFFFFFFFFFFFFFFFFFFFFFFFFFFFFFFFFFFFFFFF DUP3 AND SWAP1 POP SWAP2 SWAP1 POP JUMP JUMPDEST PUSH1 0x0 PUSH2 0x531 DUP3 PUSH2 0x506 JUMP JUMPDEST SWAP1 POP SWAP2 SWAP1 POP JUMP JUMPDEST PUSH2 0x541 DUP2 PUSH2 0x526 JUMP JUMPDEST DUP3 MSTORE POP POP JUMP JUMPDEST PUSH2 0x550 DUP2 PUSH2 0x4A3 JUMP JUMPDEST DUP3 MSTORE POP POP JUMP JUMPDEST PUSH1 0x0 PUSH1 0x80 DUP3 ADD SWAP1 POP PUSH2 0x56B PUSH1 0x0 DUP4 ADD DUP8 PUSH2 0x538 JUMP JUMPDEST PUSH2 0x578 PUSH1 0x20 DUP4 ADD DUP7 PUSH2 0x538 JUMP JUMPDEST PUSH2 0x585 PUSH1 0x40 DUP4 ADD DUP6 PUSH2 0x547 JUMP JUMPDEST PUSH2 0x592 PUSH1 0x60 DUP4 ADD DUP5 PUSH2 0x547 JUMP JUMPDEST SWAP6 SWAP5 POP POP POP POP POP JUMP JUMPDEST PUSH1 0x0 PUSH1 0x20 DUP3 ADD SWAP1 POP PUSH2 0x5B0 PUSH1 0x0 DUP4 ADD DUP5 PUSH2 0x547 JUMP JUMPDEST SWAP3 SWAP2 POP POP JUMP JUMPDEST PUSH2 0x5BF DUP2 PUSH2 0x526 JUMP JUMPDEST DUP3 MSTORE POP POP JUMP JUMPDEST PUSH2 0x5CE DUP2 PUSH2 0x4A3 JUMP JUMPDEST DUP3 MSTORE POP POP JUMP JUMPDEST PUSH1 0x80 DUP3 ADD PUSH1 0x0 DUP3 ADD MLOAD PUSH2 0x5EA PUSH1 0x0 DUP6 ADD DUP3 PUSH2 0x5B6 JUMP JUMPDEST POP PUSH1 0x20 DUP3 ADD MLOAD PUSH2 0x5FD PUSH1 0x20 DUP6 ADD DUP3 PUSH2 0x5B6 JUMP JUMPDEST POP PUSH1 0x40 DUP3 ADD MLOAD PUSH2 0x610 PUSH1 0x40 DUP6 ADD DUP3 PUSH2 0x5C5 JUMP JUMPDEST POP PUSH1 0x60 DUP3 ADD MLOAD PUSH2 0x623 PUSH1 0x60 DUP6 ADD DUP3 PUSH2 0x5C5 JUMP JUMPDEST POP POP POP POP JUMP JUMPDEST PUSH1 0x0 PUSH1 0x80 DUP3 ADD SWAP1 POP PUSH2 0x63E PUSH1 0x0 DUP4 ADD DUP5 PUSH2 0x5D4 JUMP JUMPDEST SWAP3 SWAP2 POP POP JUMP JUMPDEST PUSH1 0x0 DUP2 MLOAD SWAP1 POP SWAP2 SWAP1 POP JUMP JUMPDEST PUSH1 0x0 DUP3 DUP3 MSTORE PUSH1 0x20 DUP3 ADD SWAP1 POP SWAP3 SWAP2 POP POP JUMP JUMPDEST PUSH1 0x0 DUP2 SWAP1 POP PUSH1 0x20 DUP3 ADD SWAP1 POP SWAP2 SWAP1 POP JUMP JUMPDEST PUSH1 0x80 DUP3 ADD PUSH1 0x0 DUP3 ADD MLOAD PUSH2 0x686 PUSH1 0x0 DUP6 ADD DUP3 PUSH2 0x5B6 JUMP JUMPDEST POP PUSH1 0x20 DUP3 ADD MLOAD PUSH2 0x699 PUSH1 0x20 DUP6 ADD DUP3 PUSH2 0x5B6 JUMP JUMPDEST POP PUSH1 0x40 DUP3 ADD MLOAD PUSH2 0x6AC PUSH1 0x40 DUP6 ADD DUP3 PUSH2 0x5C5 JUMP JUMPDEST POP PUSH1 0x60 DUP3 ADD MLOAD PUSH2 0x6BF PUSH1 0x60 DUP6 ADD DUP3 PUSH2 0x5C5 JUMP JUMPDEST POP POP POP POP JUMP JUMPDEST PUSH1 0x0 PUSH2 0x6D1 DUP4 DUP4 PUSH2 0x670 JUMP JUMPDEST PUSH1 0x80 DUP4 ADD SWAP1 POP SWAP3 SWAP2 POP POP JUMP JUMPDEST PUSH1 0x0 PUSH1 0x20 DUP3 ADD SWAP1 POP SWAP2 SWAP1 POP JUMP JUMPDEST PUSH1 0x0 PUSH2 0x6F5 DUP3 PUSH2 0x644 JUMP JUMPDEST PUSH2 0x6FF DUP2 DUP6 PUSH2 0x64F JUMP JUMPDEST SWAP4 POP PUSH2 0x70A DUP4 PUSH2 0x660 JUMP JUMPDEST DUP1 PUSH1 0x0 JUMPDEST DUP4 DUP2 LT ISZERO PUSH2 0x73B JUMPI DUP2 MLOAD PUSH2 0x722 DUP9 DUP3 PUSH2 0x6C5 JUMP JUMPDEST SWAP8 POP PUSH2 0x72D DUP4 PUSH2 0x6DD JUMP JUMPDEST SWAP3 POP POP PUSH1 0x1 DUP2 ADD SWAP1 POP PUSH2 0x70E JUMP JUMPDEST POP DUP6 SWAP4 POP POP POP POP SWAP3 SWAP2 POP POP JUMP JUMPDEST PUSH1 0x0 PUSH1 0x20 DUP3 ADD SWAP1 POP DUP2 DUP2 SUB PUSH1 0x0 DUP4 ADD MSTORE PUSH2 0x762 DUP2 DUP5 PUSH2 0x6EA JUMP JUMPDEST SWAP1 POP SWAP3 SWAP2 POP POP JUMP JUMPDEST PUSH32 0x4E487B7100000000000000000000000000000000000000000000000000000000 PUSH1 0x0 MSTORE PUSH1 0x11 PUSH1 0x4 MSTORE PUSH1 0x24 PUSH1 0x0 REVERT JUMPDEST PUSH1 0x0 PUSH2 0x7A4 DUP3 PUSH2 0x4A3 JUMP JUMPDEST SWAP2 POP PUSH2 0x7AF DUP4 PUSH2 0x4A3 JUMP JUMPDEST SWAP3 POP DUP3 DUP3 SUB SWAP1 POP DUP2 DUP2 GT ISZERO PUSH2 0x7C7 JUMPI PUSH2 0x7C6 PUSH2 0x76A JUMP JUMPDEST JUMPDEST SWAP3 SWAP2 POP POP JUMP INVALID LOG2 PUSH5 0x6970667358 0x22 SLT KECCAK256 PUSH4 0x1AF5B354 0xBD 0xBD 0x24 TIMESTAMP PUSH15 0x259566287219DE553F1071D9480088 SGT 0xFC PUSH1 0xCE SWAP5 BYTE 0xCC PUSH5 0x736F6C6343 STOP ADDMOD LT STOP CALLER "
				},
				"gasEstimates": {
					"creation": {
						"codeDepositCost": "410200",
						"executionCost": "5455",
						"totalCost": "415655"
					},
					"external": {
						"getLastTransaction(uint256)": "infinite",
						"getNumberOfTransactions()": "2437",
						"getTransactions()": "infinite",
						"transactionList(uint256)": "infinite",
						"trn(uint256)": "infinite"
					},
					"internal": {
						"addTransaction(address,address,uint256,uint256)": "infinite"
					}
				},
				"methodIdentifiers": {
					"getLastTransaction(uint256)": "45838c42",
					"getNumberOfTransactions()": "24ba506d",
					"getTransactions()": "83920e90",
					"transactionList(uint256)": "04ef5b21",
					"trn(uint256)": "57bf72e3"
				}
			},
			"storageLayout": {
				"storage": [
					{
						"astId": 359,
						"contract": "Dapp/Transaction.sol:Transaction",
						"label": "transactionList",
						"offset": 0,
						"slot": "0",
						"type": "t_array(t_struct(Transactions)355_storage)dyn_storage"
					},
					{
						"astId": 364,
						"contract": "Dapp/Transaction.sol:Transaction",
						"label": "trn",
						"offset": 0,
						"slot": "1",
						"type": "t_mapping(t_uint256,t_struct(Transactions)355_storage)"
					},
					{
						"astId": 367,
						"contract": "Dapp/Transaction.sol:Transaction",
						"label": "counter",
						"offset": 0,
						"slot": "2",
						"type": "t_uint256"
					}
				],
				"types": {
					"t_address": {
						"encoding": "inplace",
						"label": "address",
						"numberOfBytes": "20"
					},
					"t_array(t_struct(Transactions)355_storage)dyn_storage": {
						"base": "t_struct(Transactions)355_storage",
						"encoding": "dynamic_array",
						"label": "struct Transaction.Transactions[]",
						"numberOfBytes": "32"
					},
					"t_mapping(t_uint256,t_struct(Transactions)355_storage)": {
						"encoding": "mapping",
						"key": "t_uint256",
						"label": "mapping(uint256 => struct Transaction.Transactions)",
						"numberOfBytes": "32",
						"value": "t_struct(Transactions)355_storage"
					},
					"t_struct(Transactions)355_storage": {
						"encoding": "inplace",
						"label": "struct Transaction.Transactions",
						"members": [
							{
								"astId": 348,
								"contract": "Dapp/Transaction.sol:Transaction",
								"label": "address_from",
								"offset": 0,
								"slot": "0",
								"type": "t_address"
							},
							{
								"astId": 350,
								"contract": "Dapp/Transaction.sol:Transaction",
								"label": "address_to",
								"offset": 0,
								"slot": "1",
								"type": "t_address"
							},
							{
								"astId": 352,
								"contract": "Dapp/Transaction.sol:Transaction",
								"label": "amount",
								"offset": 0,
								"slot": "2",
								"type": "t_uint256"
							},
							{
								"astId": 354,
								"contract": "Dapp/Transaction.sol:Transaction",
								"label": "timestamp",
								"offset": 0,
								"slot": "3",
								"type": "t_uint256"
							}
						],
						"numberOfBytes": "128"
					},
					"t_uint256": {
						"encoding": "inplace",
						"label": "uint256",
						"numberOfBytes": "32"
					}
				}
			},
			"userdoc": {
				"kind": "user",
				"methods": {},
				"version": 1
			}
		}
	}
}