{
	"Dapp/MoneyTransfer.sol": {
		"MoneyTransfer": {
			"abi": [
				{
					"inputs": [
						{
							"internalType": "uint256",
							"name": "_totalFunds",
							"type": "uint256"
						}
					],
					"stateMutability": "nonpayable",
					"type": "constructor"
				},
				{
					"inputs": [],
					"name": "TotalAmount",
					"outputs": [
						{
							"internalType": "uint256",
							"name": "",
							"type": "uint256"
						}
					],
					"stateMutability": "view",
					"type": "function"
				},
				{
					"inputs": [],
					"name": "TotalFunds",
					"outputs": [
						{
							"internalType": "uint256",
							"name": "",
							"type": "uint256"
						}
					],
					"stateMutability": "view",
					"type": "function"
				},
				{
					"inputs": [],
					"name": "amount",
					"outputs": [
						{
							"internalType": "uint256",
							"name": "",
							"type": "uint256"
						}
					],
					"stateMutability": "view",
					"type": "function"
				},
				{
					"inputs": [],
					"name": "callCount",
					"outputs": [
						{
							"internalType": "uint256",
							"name": "",
							"type": "uint256"
						}
					],
					"stateMutability": "view",
					"type": "function"
				},
				{
					"inputs": [],
					"name": "callPutCard",
					"outputs": [
						{
							"internalType": "bool",
							"name": "",
							"type": "bool"
						}
					],
					"stateMutability": "view",
					"type": "function"
				},
				{
					"inputs": [],
					"name": "cardNumber",
					"outputs": [
						{
							"internalType": "string",
							"name": "",
							"type": "string"
						}
					],
					"stateMutability": "view",
					"type": "function"
				},
				{
					"inputs": [],
					"name": "cvv",
					"outputs": [
						{
							"internalType": "string",
							"name": "",
							"type": "string"
						}
					],
					"stateMutability": "view",
					"type": "function"
				},
				{
					"inputs": [],
					"name": "firstTransferTime",
					"outputs": [
						{
							"internalType": "uint256",
							"name": "",
							"type": "uint256"
						}
					],
					"stateMutability": "view",
					"type": "function"
				},
				{
					"inputs": [],
					"name": "getLastTransaction",
					"outputs": [
						{
							"components": [
								{
									"internalType": "address",
									"name": "address_from",
									"type": "address"
								},
								{
									"internalType": "address",
									"name": "address_to",
									"type": "address"
								},
								{
									"internalType": "uint256",
									"name": "amount",
									"type": "uint256"
								},
								{
									"internalType": "uint256",
									"name": "timestamp",
									"type": "uint256"
								}
							],
							"internalType": "struct Transaction.Transactions",
							"name": "",
							"type": "tuple"
						}
					],
					"stateMutability": "view",
					"type": "function"
				},
				{
					"inputs": [],
					"name": "getNumberOfTransactions",
					"outputs": [
						{
							"internalType": "uint256",
							"name": "",
							"type": "uint256"
						}
					],
					"stateMutability": "view",
					"type": "function"
				},
				{
					"inputs": [],
					"name": "getOutCard",
					"outputs": [],
					"stateMutability": "nonpayable",
					"type": "function"
				},
				{
					"inputs": [],
					"name": "getTime",
					"outputs": [
						{
							"internalType": "uint256",
							"name": "",
							"type": "uint256"
						}
					],
					"stateMutability": "view",
					"type": "function"
				},
				{
					"inputs": [
						{
							"internalType": "uint256",
							"name": "_index",
							"type": "uint256"
						}
					],
					"name": "getTransactionById",
					"outputs": [
						{
							"components": [
								{
									"internalType": "address",
									"name": "address_from",
									"type": "address"
								},
								{
									"internalType": "address",
									"name": "address_to",
									"type": "address"
								},
								{
									"internalType": "uint256",
									"name": "amount",
									"type": "uint256"
								},
								{
									"internalType": "uint256",
									"name": "timestamp",
									"type": "uint256"
								}
							],
							"internalType": "struct Transaction.Transactions",
							"name": "",
							"type": "tuple"
						}
					],
					"stateMutability": "view",
					"type": "function"
				},
				{
					"inputs": [],
					"name": "getTransactions",
					"outputs": [
						{
							"components": [
								{
									"internalType": "address",
									"name": "address_from",
									"type": "address"
								},
								{
									"internalType": "address",
									"name": "address_to",
									"type": "address"
								},
								{
									"internalType": "uint256",
									"name": "amount",
									"type": "uint256"
								},
								{
									"internalType": "uint256",
									"name": "timestamp",
									"type": "uint256"
								}
							],
							"internalType": "struct Transaction.Transactions[]",
							"name": "",
							"type": "tuple[]"
						}
					],
					"stateMutability": "view",
					"type": "function"
				},
				{
					"inputs": [],
					"name": "message",
					"outputs": [
						{
							"internalType": "string",
							"name": "",
							"type": "string"
						}
					],
					"stateMutability": "view",
					"type": "function"
				},
				{
					"inputs": [
						{
							"internalType": "uint256",
							"name": "_amount",
							"type": "uint256"
						},
						{
							"internalType": "address",
							"name": "_receiver",
							"type": "address"
						}
					],
					"name": "sendMoney",
					"outputs": [],
					"stateMutability": "nonpayable",
					"type": "function"
				},
				{
					"inputs": [
						{
							"internalType": "string",
							"name": "_cardNumber",
							"type": "string"
						},
						{
							"internalType": "string",
							"name": "_cvv",
							"type": "string"
						}
					],
					"name": "setCard",
					"outputs": [],
					"stateMutability": "nonpayable",
					"type": "function"
				},
				{
					"inputs": [
						{
							"internalType": "uint256",
							"name": "",
							"type": "uint256"
						}
					],
					"name": "transactionList",
					"outputs": [
						{
							"internalType": "address",
							"name": "address_from",
							"type": "address"
						},
						{
							"internalType": "address",
							"name": "address_to",
							"type": "address"
						},
						{
							"internalType": "uint256",
							"name": "amount",
							"type": "uint256"
						},
						{
							"internalType": "uint256",
							"name": "timestamp",
							"type": "uint256"
						}
					],
					"stateMutability": "view",
					"type": "function"
				},
				{
					"inputs": [
						{
							"internalType": "uint256",
							"name": "",
							"type": "uint256"
						}
					],
					"name": "trn",
					"outputs": [
						{
							"internalType": "address",
							"name": "address_from",
							"type": "address"
						},
						{
							"internalType": "address",
							"name": "address_to",
							"type": "address"
						},
						{
							"internalType": "uint256",
							"name": "amount",
							"type": "uint256"
						},
						{
							"internalType": "uint256",
							"name": "timestamp",
							"type": "uint256"
						}
					],
					"stateMutability": "view",
					"type": "function"
				}
			],
			"devdoc": {
				"kind": "dev",
				"methods": {},
				"version": 1
			},
			"evm": {
				"assembly": "    /* \"Dapp/MoneyTransfer.sol\":98:3967  contract  MoneyTransfer is Transaction {... */\n  mstore(0x40, 0x80)\n    /* \"Dapp/Transaction.sol\":346:347  0 */\n  0x00\n    /* \"Dapp/Transaction.sol\":331:347  uint counter = 0 */\n  0x02\n  sstore\n    /* \"Dapp/MoneyTransfer.sol\":571:572  0 */\n  0x00\n    /* \"Dapp/MoneyTransfer.sol\":547:572  uint public callCount = 0 */\n  0x0b\n  sstore\n    /* \"Dapp/MoneyTransfer.sol\":606:611  false */\n  0x00\n    /* \"Dapp/MoneyTransfer.sol\":580:611  bool public callPutCard = false */\n  0x0c\n  exp(0x0100, 0x00)\n  dup2\n  sload\n  dup2\n  0xff\n  mul\n  not\n  and\n  swap1\n  dup4\n  iszero\n  iszero\n  mul\n  or\n  swap1\n  sstore\n  pop\n    /* \"Dapp/MoneyTransfer.sol\":396:535  constructor (uint256 _totalFunds) {... */\n  callvalue\n  dup1\n  iszero\n  tag_1\n  jumpi\n  0x00\n  dup1\n  revert\ntag_1:\n  pop\n  mload(0x40)\n  sub(codesize, bytecodeSize)\n  dup1\n  bytecodeSize\n  dup4\n  codecopy\n  dup2\n  dup2\n  add\n  0x40\n  mstore\n  dup2\n  add\n  swap1\n  tag_2\n  swap2\n  swap1\n  tag_3\n  jump\t// in\ntag_2:\n    /* \"Dapp/MoneyTransfer.sol\":516:527  _totalFunds */\n  dup1\n    /* \"Dapp/MoneyTransfer.sol\":503:513  TotalFunds */\n  0x04\n    /* \"Dapp/MoneyTransfer.sol\":503:527  TotalFunds = _totalFunds */\n  dup2\n  swap1\n  sstore\n  pop\n    /* \"Dapp/MoneyTransfer.sol\":396:535  constructor (uint256 _totalFunds) {... */\n  pop\n    /* \"Dapp/MoneyTransfer.sol\":98:3967  contract  MoneyTransfer is Transaction {... */\n  jump(tag_6)\n    /* \"#utility.yul\":88:205   */\ntag_8:\n    /* \"#utility.yul\":197:198   */\n  0x00\n    /* \"#utility.yul\":194:195   */\n  dup1\n    /* \"#utility.yul\":187:199   */\n  revert\n    /* \"#utility.yul\":334:411   */\ntag_10:\n    /* \"#utility.yul\":371:378   */\n  0x00\n    /* \"#utility.yul\":400:405   */\n  dup2\n    /* \"#utility.yul\":389:405   */\n  swap1\n  pop\n    /* \"#utility.yul\":334:411   */\n  swap2\n  swap1\n  pop\n  jump\t// out\n    /* \"#utility.yul\":417:539   */\ntag_11:\n    /* \"#utility.yul\":490:514   */\n  tag_19\n    /* \"#utility.yul\":508:513   */\n  dup2\n    /* \"#utility.yul\":490:514   */\n  tag_10\n  jump\t// in\ntag_19:\n    /* \"#utility.yul\":483:488   */\n  dup2\n    /* \"#utility.yul\":480:515   */\n  eq\n    /* \"#utility.yul\":470:533   */\n  tag_20\n  jumpi\n    /* \"#utility.yul\":529:530   */\n  0x00\n    /* \"#utility.yul\":526:527   */\n  dup1\n    /* \"#utility.yul\":519:531   */\n  revert\n    /* \"#utility.yul\":470:533   */\ntag_20:\n    /* \"#utility.yul\":417:539   */\n  pop\n  jump\t// out\n    /* \"#utility.yul\":545:688   */\ntag_12:\n    /* \"#utility.yul\":602:607   */\n  0x00\n    /* \"#utility.yul\":633:639   */\n  dup2\n    /* \"#utility.yul\":627:640   */\n  mload\n    /* \"#utility.yul\":618:640   */\n  swap1\n  pop\n    /* \"#utility.yul\":649:682   */\n  tag_22\n    /* \"#utility.yul\":676:681   */\n  dup2\n    /* \"#utility.yul\":649:682   */\n  tag_11\n  jump\t// in\ntag_22:\n    /* \"#utility.yul\":545:688   */\n  swap3\n  swap2\n  pop\n  pop\n  jump\t// out\n    /* \"#utility.yul\":694:1045   */\ntag_3:\n    /* \"#utility.yul\":764:770   */\n  0x00\n    /* \"#utility.yul\":813:815   */\n  0x20\n    /* \"#utility.yul\":801:810   */\n  dup3\n    /* \"#utility.yul\":792:799   */\n  dup5\n    /* \"#utility.yul\":788:811   */\n  sub\n    /* \"#utility.yul\":784:816   */\n  slt\n    /* \"#utility.yul\":781:900   */\n  iszero\n  tag_24\n  jumpi\n    /* \"#utility.yul\":819:898   */\n  tag_25\n  tag_8\n  jump\t// in\ntag_25:\n    /* \"#utility.yul\":781:900   */\ntag_24:\n    /* \"#utility.yul\":939:940   */\n  0x00\n    /* \"#utility.yul\":964:1028   */\n  tag_26\n    /* \"#utility.yul\":1020:1027   */\n  dup5\n    /* \"#utility.yul\":1011:1017   */\n  dup3\n    /* \"#utility.yul\":1000:1009   */\n  dup6\n    /* \"#utility.yul\":996:1018   */\n  add\n    /* \"#utility.yul\":964:1028   */\n  tag_12\n  jump\t// in\ntag_26:\n    /* \"#utility.yul\":954:1028   */\n  swap2\n  pop\n    /* \"#utility.yul\":910:1038   */\n  pop\n    /* \"#utility.yul\":694:1045   */\n  swap3\n  swap2\n  pop\n  pop\n  jump\t// out\n    /* \"Dapp/MoneyTransfer.sol\":98:3967  contract  MoneyTransfer is Transaction {... */\ntag_6:\n  dataSize(sub_0)\n  dup1\n  dataOffset(sub_0)\n  0x00\n  codecopy\n  0x00\n  return\nstop\n\nsub_0: assembly {\n        /* \"Dapp/MoneyTransfer.sol\":98:3967  contract  MoneyTransfer is Transaction {... */\n      mstore(0x40, 0x80)\n      callvalue\n      dup1\n      iszero\n      tag_1\n      jumpi\n      0x00\n      dup1\n      revert\n    tag_1:\n      pop\n      jumpi(tag_2, lt(calldatasize, 0x04))\n      shr(0xe0, calldataload(0x00))\n      dup1\n      0x57bf72e3\n      gt\n      tag_22\n      jumpi\n      dup1\n      0x8fa11864\n      gt\n      tag_23\n      jumpi\n      dup1\n      0x8fa11864\n      eq\n      tag_17\n      jumpi\n      dup1\n      0xaa8c217c\n      eq\n      tag_18\n      jumpi\n      dup1\n      0xe21f37ce\n      eq\n      tag_19\n      jumpi\n      dup1\n      0xf4b30eaf\n      eq\n      tag_20\n      jumpi\n      dup1\n      0xf7e03fd8\n      eq\n      tag_21\n      jumpi\n      jump(tag_2)\n    tag_23:\n      dup1\n      0x57bf72e3\n      eq\n      tag_12\n      jumpi\n      dup1\n      0x7b9a3f4c\n      eq\n      tag_13\n      jumpi\n      dup1\n      0x7eb9f571\n      eq\n      tag_14\n      jumpi\n      dup1\n      0x83920e90\n      eq\n      tag_15\n      jumpi\n      dup1\n      0x8e029c0b\n      eq\n      tag_16\n      jumpi\n      jump(tag_2)\n    tag_22:\n      dup1\n      0x24ba506d\n      gt\n      tag_24\n      jumpi\n      dup1\n      0x24ba506d\n      eq\n      tag_7\n      jumpi\n      dup1\n      0x3c626f00\n      eq\n      tag_8\n      jumpi\n      dup1\n      0x42fb7936\n      eq\n      tag_9\n      jumpi\n      dup1\n      0x4b28f9a2\n      eq\n      tag_10\n      jumpi\n      dup1\n      0x557ed1ba\n      eq\n      tag_11\n      jumpi\n      jump(tag_2)\n    tag_24:\n      dup1\n      0x04ef5b21\n      eq\n      tag_3\n      jumpi\n      dup1\n      0x062a7544\n      eq\n      tag_4\n      jumpi\n      dup1\n      0x0e85fa72\n      eq\n      tag_5\n      jumpi\n      dup1\n      0x12a029a4\n      eq\n      tag_6\n      jumpi\n    tag_2:\n      0x00\n      dup1\n      revert\n        /* \"Dapp/Transaction.sol\":237:274  Transactions[] public transactionList */\n    tag_3:\n      tag_25\n      0x04\n      dup1\n      calldatasize\n      sub\n      dup2\n      add\n      swap1\n      tag_26\n      swap2\n      swap1\n      tag_27\n      jump\t// in\n    tag_26:\n      tag_28\n      jump\t// in\n    tag_25:\n      mload(0x40)\n      tag_29\n      swap5\n      swap4\n      swap3\n      swap2\n      swap1\n      tag_30\n      jump\t// in\n    tag_29:\n      mload(0x40)\n      dup1\n      swap2\n      sub\n      swap1\n      return\n        /* \"Dapp/MoneyTransfer.sol\":621:1507  function sendMoney( uint _amount, address _receiver) public m_validAddress(_receiver) m_ifCardExists m_transferLimit{... */\n    tag_4:\n      tag_31\n      0x04\n      dup1\n      calldatasize\n      sub\n      dup2\n      add\n      swap1\n      tag_32\n      swap2\n      swap1\n      tag_33\n      jump\t// in\n    tag_32:\n      tag_34\n      jump\t// in\n    tag_31:\n      stop\n        /* \"Dapp/MoneyTransfer.sol\":350:379  uint public firstTransferTime */\n    tag_5:\n      tag_35\n      tag_36\n      jump\t// in\n    tag_35:\n      mload(0x40)\n      tag_37\n      swap2\n      swap1\n      tag_38\n      jump\t// in\n    tag_37:\n      mload(0x40)\n      dup1\n      swap2\n      sub\n      swap1\n      return\n        /* \"Dapp/MoneyTransfer.sol\":1515:1780  function setCard(string memory _cardNumber, string memory _cvv) public  m_checkCard {... */\n    tag_6:\n      tag_39\n      0x04\n      dup1\n      calldatasize\n      sub\n      dup2\n      add\n      swap1\n      tag_40\n      swap2\n      swap1\n      tag_41\n      jump\t// in\n    tag_40:\n      tag_42\n      jump\t// in\n    tag_39:\n      stop\n        /* \"Dapp/Transaction.sol\":961:1054  function getNumberOfTransactions() public view returns(uint){... */\n    tag_7:\n      tag_43\n      tag_44\n      jump\t// in\n    tag_43:\n      mload(0x40)\n      tag_45\n      swap2\n      swap1\n      tag_38\n      jump\t// in\n    tag_45:\n      mload(0x40)\n      dup1\n      swap2\n      sub\n      swap1\n      return\n        /* \"Dapp/MoneyTransfer.sol\":580:611  bool public callPutCard = false */\n    tag_8:\n      tag_46\n      tag_47\n      jump\t// in\n    tag_46:\n      mload(0x40)\n      tag_48\n      swap2\n      swap1\n      tag_49\n      jump\t// in\n    tag_48:\n      mload(0x40)\n      dup1\n      swap2\n      sub\n      swap1\n      return\n        /* \"Dapp/MoneyTransfer.sol\":292:309  string public cvv */\n    tag_9:\n      tag_50\n      tag_51\n      jump\t// in\n    tag_50:\n      mload(0x40)\n      tag_52\n      swap2\n      swap1\n      tag_53\n      jump\t// in\n    tag_52:\n      mload(0x40)\n      dup1\n      swap2\n      sub\n      swap1\n      return\n        /* \"Dapp/MoneyTransfer.sol\":547:572  uint public callCount = 0 */\n    tag_10:\n      tag_54\n      tag_55\n      jump\t// in\n    tag_54:\n      mload(0x40)\n      tag_56\n      swap2\n      swap1\n      tag_38\n      jump\t// in\n    tag_56:\n      mload(0x40)\n      dup1\n      swap2\n      sub\n      swap1\n      return\n        /* \"Dapp/MoneyTransfer.sol\":3869:3956  function getTime() public view returns(uint ){... */\n    tag_11:\n      tag_57\n      tag_58\n      jump\t// in\n    tag_57:\n      mload(0x40)\n      tag_59\n      swap2\n      swap1\n      tag_38\n      jump\t// in\n    tag_59:\n      mload(0x40)\n      dup1\n      swap2\n      sub\n      swap1\n      return\n        /* \"Dapp/Transaction.sol\":283:324  mapping (uint => Transactions) public trn */\n    tag_12:\n      tag_60\n      0x04\n      dup1\n      calldatasize\n      sub\n      dup2\n      add\n      swap1\n      tag_61\n      swap2\n      swap1\n      tag_27\n      jump\t// in\n    tag_61:\n      tag_62\n      jump\t// in\n    tag_60:\n      mload(0x40)\n      tag_63\n      swap5\n      swap4\n      swap3\n      swap2\n      swap1\n      tag_30\n      jump\t// in\n    tag_63:\n      mload(0x40)\n      dup1\n      swap2\n      sub\n      swap1\n      return\n        /* \"Dapp/MoneyTransfer.sol\":176:201  uint256 public TotalFunds */\n    tag_13:\n      tag_64\n      tag_65\n      jump\t// in\n    tag_64:\n      mload(0x40)\n      tag_66\n      swap2\n      swap1\n      tag_38\n      jump\t// in\n    tag_66:\n      mload(0x40)\n      dup1\n      swap2\n      sub\n      swap1\n      return\n        /* \"Dapp/MoneyTransfer.sol\":316:342  uint256 public TotalAmount */\n    tag_14:\n      tag_67\n      tag_68\n      jump\t// in\n    tag_67:\n      mload(0x40)\n      tag_69\n      swap2\n      swap1\n      tag_38\n      jump\t// in\n    tag_69:\n      mload(0x40)\n      dup1\n      swap2\n      sub\n      swap1\n      return\n        /* \"Dapp/Transaction.sol\":715:827  function getTransactions() public view returns(Transactions[] memory){... */\n    tag_15:\n      tag_70\n      tag_71\n      jump\t// in\n    tag_70:\n      mload(0x40)\n      tag_72\n      swap2\n      swap1\n      tag_73\n      jump\t// in\n    tag_72:\n      mload(0x40)\n      dup1\n      swap2\n      sub\n      swap1\n      return\n        /* \"Dapp/MoneyTransfer.sol\":1795:1864  function getOutCard() public  {... */\n    tag_16:\n      tag_74\n      tag_75\n      jump\t// in\n    tag_74:\n      stop\n        /* \"Dapp/MoneyTransfer.sol\":260:284  string public cardNumber */\n    tag_17:\n      tag_76\n      tag_77\n      jump\t// in\n    tag_76:\n      mload(0x40)\n      tag_78\n      swap2\n      swap1\n      tag_53\n      jump\t// in\n    tag_78:\n      mload(0x40)\n      dup1\n      swap2\n      sub\n      swap1\n      return\n        /* \"Dapp/MoneyTransfer.sol\":148:169  uint256 public amount */\n    tag_18:\n      tag_79\n      tag_80\n      jump\t// in\n    tag_79:\n      mload(0x40)\n      tag_81\n      swap2\n      swap1\n      tag_38\n      jump\t// in\n    tag_81:\n      mload(0x40)\n      dup1\n      swap2\n      sub\n      swap1\n      return\n        /* \"Dapp/MoneyTransfer.sol\":232:253  string public message */\n    tag_19:\n      tag_82\n      tag_83\n      jump\t// in\n    tag_82:\n      mload(0x40)\n      tag_84\n      swap2\n      swap1\n      tag_53\n      jump\t// in\n    tag_84:\n      mload(0x40)\n      dup1\n      swap2\n      sub\n      swap1\n      return\n        /* \"Dapp/Transaction.sol\":835:953  function getTransactionById(uint _index)public view returns(Transactions memory){... */\n    tag_20:\n      tag_85\n      0x04\n      dup1\n      calldatasize\n      sub\n      dup2\n      add\n      swap1\n      tag_86\n      swap2\n      swap1\n      tag_27\n      jump\t// in\n    tag_86:\n      tag_87\n      jump\t// in\n    tag_85:\n      mload(0x40)\n      tag_88\n      swap2\n      swap1\n      tag_89\n      jump\t// in\n    tag_88:\n      mload(0x40)\n      dup1\n      swap2\n      sub\n      swap1\n      return\n        /* \"Dapp/Transaction.sol\":1062:1210  function getLastTransaction() public view returns(Transactions memory){... */\n    tag_21:\n      tag_90\n      tag_91\n      jump\t// in\n    tag_90:\n      mload(0x40)\n      tag_92\n      swap2\n      swap1\n      tag_89\n      jump\t// in\n    tag_92:\n      mload(0x40)\n      dup1\n      swap2\n      sub\n      swap1\n      return\n        /* \"Dapp/Transaction.sol\":237:274  Transactions[] public transactionList */\n    tag_28:\n      0x00\n      dup2\n      dup2\n      sload\n      dup2\n      lt\n      tag_93\n      jumpi\n      0x00\n      dup1\n      revert\n    tag_93:\n      swap1\n      0x00\n      mstore\n      keccak256(0x00, 0x20)\n      swap1\n      0x04\n      mul\n      add\n      0x00\n      swap2\n      pop\n      swap1\n      pop\n      dup1\n      0x00\n      add\n      0x00\n      swap1\n      sload\n      swap1\n      0x0100\n      exp\n      swap1\n      div\n      0xffffffffffffffffffffffffffffffffffffffff\n      and\n      swap1\n      dup1\n      0x01\n      add\n      0x00\n      swap1\n      sload\n      swap1\n      0x0100\n      exp\n      swap1\n      div\n      0xffffffffffffffffffffffffffffffffffffffff\n      and\n      swap1\n      dup1\n      0x02\n      add\n      sload\n      swap1\n      dup1\n      0x03\n      add\n      sload\n      swap1\n      pop\n      dup5\n      jump\t// out\n        /* \"Dapp/MoneyTransfer.sol\":621:1507  function sendMoney( uint _amount, address _receiver) public m_validAddress(_receiver) m_ifCardExists m_transferLimit{... */\n    tag_34:\n        /* \"Dapp/MoneyTransfer.sol\":696:705  _receiver */\n      dup1\n        /* \"Dapp/MoneyTransfer.sol\":1937:1942  _addr */\n      dup1\n        /* \"Dapp/MoneyTransfer.sol\":1926:1934  receiver */\n      0x05\n      0x00\n        /* \"Dapp/MoneyTransfer.sol\":1926:1942  receiver = _addr */\n      0x0100\n      exp\n      dup2\n      sload\n      dup2\n      0xffffffffffffffffffffffffffffffffffffffff\n      mul\n      not\n      and\n      swap1\n      dup4\n      0xffffffffffffffffffffffffffffffffffffffff\n      and\n      mul\n      or\n      swap1\n      sstore\n      pop\n        /* \"Dapp/MoneyTransfer.sol\":1978:1979  0 */\n      0x00\n        /* \"Dapp/MoneyTransfer.sol\":1961:1980  _addr != address(0) */\n      0xffffffffffffffffffffffffffffffffffffffff\n      and\n        /* \"Dapp/MoneyTransfer.sol\":1961:1966  _addr */\n      dup2\n        /* \"Dapp/MoneyTransfer.sol\":1961:1980  _addr != address(0) */\n      0xffffffffffffffffffffffffffffffffffffffff\n      and\n      sub\n        /* \"Dapp/MoneyTransfer.sol\":1953:2013  require(_addr != address(0), \" This address doesn't exists\") */\n      tag_96\n      jumpi\n      mload(0x40)\n      0x08c379a000000000000000000000000000000000000000000000000000000000\n      dup2\n      mstore\n      0x04\n      add\n      tag_97\n      swap1\n      tag_98\n      jump\t// in\n    tag_97:\n      mload(0x40)\n      dup1\n      swap2\n      sub\n      swap1\n      revert\n    tag_96:\n        /* \"Dapp/MoneyTransfer.sol\":2112:2117  false */\n      0x00\n        /* \"Dapp/MoneyTransfer.sol\":2097:2117  callPutCard != false */\n      iszero\n      iszero\n        /* \"Dapp/MoneyTransfer.sol\":2097:2108  callPutCard */\n      0x0c\n      0x00\n      swap1\n      sload\n      swap1\n      0x0100\n      exp\n      swap1\n      div\n      0xff\n      and\n        /* \"Dapp/MoneyTransfer.sol\":2097:2117  callPutCard != false */\n      iszero\n      iszero\n      sub\n        /* \"Dapp/MoneyTransfer.sol\":2089:2144  require(callPutCard != false,\"Please insert your card\") */\n      tag_100\n      jumpi\n      mload(0x40)\n      0x08c379a000000000000000000000000000000000000000000000000000000000\n      dup2\n      mstore\n      0x04\n      add\n      tag_101\n      swap1\n      tag_102\n      jump\t// in\n    tag_101:\n      mload(0x40)\n      dup1\n      swap2\n      sub\n      swap1\n      revert\n    tag_100:\n        /* \"Dapp/MoneyTransfer.sol\":3420:3421  5 */\n      0x05\n        /* \"Dapp/MoneyTransfer.sol\":3407:3416  callCount */\n      sload(0x0b)\n        /* \"Dapp/MoneyTransfer.sol\":3407:3421  callCount >= 5 */\n      lt\n      iszero\n        /* \"Dapp/MoneyTransfer.sol\":3407:3476  callCount >= 5 && block.timestamp <= (firstTransferTime + 30 seconds) */\n      dup1\n      iszero\n      tag_104\n      jumpi\n      pop\n        /* \"Dapp/MoneyTransfer.sol\":3465:3475  30 seconds */\n      0x1e\n        /* \"Dapp/MoneyTransfer.sol\":3445:3462  firstTransferTime */\n      sload(0x0a)\n        /* \"Dapp/MoneyTransfer.sol\":3445:3475  firstTransferTime + 30 seconds */\n      tag_105\n      swap2\n      swap1\n      tag_106\n      jump\t// in\n    tag_105:\n        /* \"Dapp/MoneyTransfer.sol\":3425:3440  block.timestamp */\n      timestamp\n        /* \"Dapp/MoneyTransfer.sol\":3425:3476  block.timestamp <= (firstTransferTime + 30 seconds) */\n      gt\n      iszero\n        /* \"Dapp/MoneyTransfer.sol\":3407:3476  callCount >= 5 && block.timestamp <= (firstTransferTime + 30 seconds) */\n    tag_104:\n        /* \"Dapp/MoneyTransfer.sol\":3404:3621  if(callCount >= 5 && block.timestamp <= (firstTransferTime + 30 seconds)){... */\n      iszero\n      tag_107\n      jumpi\n        /* \"Dapp/MoneyTransfer.sol\":3504:3505  0 */\n      0x00\n        /* \"Dapp/MoneyTransfer.sol\":3492:3501  callCount */\n      0x0b\n        /* \"Dapp/MoneyTransfer.sol\":3492:3505  callCount = 0 */\n      dup2\n      swap1\n      sstore\n      pop\n        /* \"Dapp/MoneyTransfer.sol\":3540:3541  0 */\n      0x00\n        /* \"Dapp/MoneyTransfer.sol\":3527:3536  callCount */\n      sload(0x0b)\n        /* \"Dapp/MoneyTransfer.sol\":3527:3541  callCount == 0 */\n      eq\n        /* \"Dapp/MoneyTransfer.sol\":3520:3542  assert(callCount == 0) */\n      tag_108\n      jumpi\n      tag_109\n      tag_110\n      jump\t// in\n    tag_109:\n    tag_108:\n        /* \"Dapp/MoneyTransfer.sol\":3557:3595  revert(\"only 5 transactions per day\" ) */\n      mload(0x40)\n      0x08c379a000000000000000000000000000000000000000000000000000000000\n      dup2\n      mstore\n      0x04\n      add\n      tag_111\n      swap1\n      tag_112\n      jump\t// in\n    tag_111:\n      mload(0x40)\n      dup1\n      swap2\n      sub\n      swap1\n      revert\n        /* \"Dapp/MoneyTransfer.sol\":3404:3621  if(callCount >= 5 && block.timestamp <= (firstTransferTime + 30 seconds)){... */\n    tag_107:\n        /* \"Dapp/MoneyTransfer.sol\":3649:3650  5 */\n      0x05\n        /* \"Dapp/MoneyTransfer.sol\":3636:3645  callCount */\n      sload(0x0b)\n        /* \"Dapp/MoneyTransfer.sol\":3636:3650  callCount <= 5 */\n      gt\n      iszero\n        /* \"Dapp/MoneyTransfer.sol\":3636:3705  callCount <= 5 && block.timestamp >= (firstTransferTime + 30 seconds) */\n      dup1\n      iszero\n      tag_113\n      jumpi\n      pop\n        /* \"Dapp/MoneyTransfer.sol\":3694:3704  30 seconds */\n      0x1e\n        /* \"Dapp/MoneyTransfer.sol\":3674:3691  firstTransferTime */\n      sload(0x0a)\n        /* \"Dapp/MoneyTransfer.sol\":3674:3704  firstTransferTime + 30 seconds */\n      tag_114\n      swap2\n      swap1\n      tag_106\n      jump\t// in\n    tag_114:\n        /* \"Dapp/MoneyTransfer.sol\":3654:3669  block.timestamp */\n      timestamp\n        /* \"Dapp/MoneyTransfer.sol\":3654:3705  block.timestamp >= (firstTransferTime + 30 seconds) */\n      lt\n      iszero\n        /* \"Dapp/MoneyTransfer.sol\":3636:3705  callCount <= 5 && block.timestamp >= (firstTransferTime + 30 seconds) */\n    tag_113:\n        /* \"Dapp/MoneyTransfer.sol\":3633:3834  if(callCount <= 5 && block.timestamp >= (firstTransferTime + 30 seconds)){... */\n      iszero\n      tag_115\n      jumpi\n        /* \"Dapp/MoneyTransfer.sol\":3733:3734  0 */\n      0x00\n        /* \"Dapp/MoneyTransfer.sol\":3721:3730  callCount */\n      0x0b\n        /* \"Dapp/MoneyTransfer.sol\":3721:3734  callCount = 0 */\n      dup2\n      swap1\n      sstore\n      pop\n        /* \"Dapp/MoneyTransfer.sol\":3770:3771  0 */\n      0x00\n        /* \"Dapp/MoneyTransfer.sol\":3757:3766  callCount */\n      sload(0x0b)\n        /* \"Dapp/MoneyTransfer.sol\":3757:3771  callCount == 0 */\n      eq\n        /* \"Dapp/MoneyTransfer.sol\":3750:3772  assert(callCount == 0) */\n      tag_116\n      jumpi\n      tag_117\n      tag_110\n      jump\t// in\n    tag_117:\n    tag_116:\n        /* \"Dapp/MoneyTransfer.sol\":3807:3822  block.timestamp */\n      timestamp\n        /* \"Dapp/MoneyTransfer.sol\":3787:3804  firstTransferTime */\n      0x0a\n        /* \"Dapp/MoneyTransfer.sol\":3787:3822  firstTransferTime = block.timestamp */\n      dup2\n      swap1\n      sstore\n      pop\n        /* \"Dapp/MoneyTransfer.sol\":3633:3834  if(callCount <= 5 && block.timestamp >= (firstTransferTime + 30 seconds)){... */\n    tag_115:\n        /* \"Dapp/MoneyTransfer.sol\":759:768  _receiver */\n      dup2\n        /* \"Dapp/MoneyTransfer.sol\":748:756  receiver */\n      0x05\n      0x00\n        /* \"Dapp/MoneyTransfer.sol\":748:768  receiver = _receiver */\n      0x0100\n      exp\n      dup2\n      sload\n      dup2\n      0xffffffffffffffffffffffffffffffffffffffff\n      mul\n      not\n      and\n      swap1\n      dup4\n      0xffffffffffffffffffffffffffffffffffffffff\n      and\n      mul\n      or\n      swap1\n      sstore\n      pop\n        /* \"Dapp/MoneyTransfer.sol\":788:795  _amount */\n      dup3\n        /* \"Dapp/MoneyTransfer.sol\":779:785  amount */\n      0x03\n        /* \"Dapp/MoneyTransfer.sol\":779:795  amount = _amount */\n      dup2\n      swap1\n      sstore\n      pop\n        /* \"Dapp/MoneyTransfer.sol\":966:967  1 */\n      0x01\n        /* \"Dapp/MoneyTransfer.sol\":953:962  callCount */\n      0x0b\n      0x00\n        /* \"Dapp/MoneyTransfer.sol\":953:967  callCount += 1 */\n      dup3\n      dup3\n      sload\n      tag_119\n      swap2\n      swap1\n      tag_106\n      jump\t// in\n    tag_119:\n      swap3\n      pop\n      pop\n      dup2\n      swap1\n      sstore\n      pop\n        /* \"Dapp/MoneyTransfer.sol\":1023:1024  0 */\n      0x00\n        /* \"Dapp/MoneyTransfer.sol\":1010:1020  TotalFunds */\n      sload(0x04)\n        /* \"Dapp/MoneyTransfer.sol\":1010:1024  TotalFunds > 0 */\n      gt\n        /* \"Dapp/MoneyTransfer.sol\":1010:1047  TotalFunds > 0 && TotalFunds > amount */\n      dup1\n      iszero\n      tag_120\n      jumpi\n      pop\n        /* \"Dapp/MoneyTransfer.sol\":1041:1047  amount */\n      sload(0x03)\n        /* \"Dapp/MoneyTransfer.sol\":1028:1038  TotalFunds */\n      sload(0x04)\n        /* \"Dapp/MoneyTransfer.sol\":1028:1047  TotalFunds > amount */\n      gt\n        /* \"Dapp/MoneyTransfer.sol\":1010:1047  TotalFunds > 0 && TotalFunds > amount */\n    tag_120:\n        /* \"Dapp/MoneyTransfer.sol\":1007:1490  if(TotalFunds > 0 && TotalFunds > amount){... */\n      iszero\n      tag_121\n      jumpi\n        /* \"Dapp/MoneyTransfer.sol\":1085:1091  amount */\n      sload(0x03)\n        /* \"Dapp/MoneyTransfer.sol\":1071:1081  TotalFunds */\n      0x04\n      0x00\n        /* \"Dapp/MoneyTransfer.sol\":1071:1091  TotalFunds -= amount */\n      dup3\n      dup3\n      sload\n      tag_122\n      swap2\n      swap1\n      tag_123\n      jump\t// in\n    tag_122:\n      swap3\n      pop\n      pop\n      dup2\n      swap1\n      sstore\n      pop\n        /* \"Dapp/MoneyTransfer.sol\":1129:1135  amount */\n      sload(0x03)\n        /* \"Dapp/MoneyTransfer.sol\":1114:1125  TotalAmount */\n      0x09\n      0x00\n        /* \"Dapp/MoneyTransfer.sol\":1114:1135  TotalAmount += amount */\n      dup3\n      dup3\n      sload\n      tag_124\n      swap2\n      swap1\n      tag_106\n      jump\t// in\n    tag_124:\n      swap3\n      pop\n      pop\n      dup2\n      swap1\n      sstore\n      pop\n        /* \"Dapp/MoneyTransfer.sol\":1202:1262  addTransaction(msg.sender,receiver, amount, block.timestamp) */\n      tag_125\n        /* \"Dapp/MoneyTransfer.sol\":1217:1227  msg.sender */\n      caller\n        /* \"Dapp/MoneyTransfer.sol\":1228:1236  receiver */\n      0x05\n      0x00\n      swap1\n      sload\n      swap1\n      0x0100\n      exp\n      swap1\n      div\n      0xffffffffffffffffffffffffffffffffffffffff\n      and\n        /* \"Dapp/MoneyTransfer.sol\":1238:1244  amount */\n      sload(0x03)\n        /* \"Dapp/MoneyTransfer.sol\":1246:1261  block.timestamp */\n      timestamp\n        /* \"Dapp/MoneyTransfer.sol\":1202:1216  addTransaction */\n      tag_126\n        /* \"Dapp/MoneyTransfer.sol\":1202:1262  addTransaction(msg.sender,receiver, amount, block.timestamp) */\n      jump\t// in\n    tag_125:\n        /* \"Dapp/MoneyTransfer.sol\":1285:1315  message = \"Transfer completed\" */\n      mload(0x40)\n      dup1\n      0x40\n      add\n      0x40\n      mstore\n      dup1\n      0x12\n      dup2\n      mstore\n      0x20\n      add\n      0x5472616e7366657220636f6d706c657465640000000000000000000000000000\n      dup2\n      mstore\n      pop\n        /* \"Dapp/MoneyTransfer.sol\":1285:1292  message */\n      0x06\n        /* \"Dapp/MoneyTransfer.sol\":1285:1315  message = \"Transfer completed\" */\n      swap1\n      dup2\n      tag_127\n      swap2\n      swap1\n      tag_128\n      jump\t// in\n    tag_127:\n      pop\n        /* \"Dapp/MoneyTransfer.sol\":1007:1490  if(TotalFunds > 0 && TotalFunds > amount){... */\n      jump(tag_129)\n    tag_121:\n        /* \"Dapp/MoneyTransfer.sol\":1443:1469  revert(\"Not enough funds\") */\n      mload(0x40)\n      0x08c379a000000000000000000000000000000000000000000000000000000000\n      dup2\n      mstore\n      0x04\n      add\n      tag_130\n      swap1\n      tag_131\n      jump\t// in\n    tag_130:\n      mload(0x40)\n      dup1\n      swap2\n      sub\n      swap1\n      revert\n        /* \"Dapp/MoneyTransfer.sol\":1007:1490  if(TotalFunds > 0 && TotalFunds > amount){... */\n    tag_129:\n        /* \"Dapp/MoneyTransfer.sol\":621:1507  function sendMoney( uint _amount, address _receiver) public m_validAddress(_receiver) m_ifCardExists m_transferLimit{... */\n      pop\n      pop\n      pop\n      jump\t// out\n        /* \"Dapp/MoneyTransfer.sol\":350:379  uint public firstTransferTime */\n    tag_36:\n      sload(0x0a)\n      dup2\n      jump\t// out\n        /* \"Dapp/MoneyTransfer.sol\":1515:1780  function setCard(string memory _cardNumber, string memory _cvv) public  m_checkCard {... */\n    tag_42:\n        /* \"Dapp/MoneyTransfer.sol\":1629:1640  _cardNumber */\n      dup2\n        /* \"Dapp/MoneyTransfer.sol\":1616:1626  cardNumber */\n      0x07\n        /* \"Dapp/MoneyTransfer.sol\":1616:1640  cardNumber = _cardNumber */\n      swap1\n      dup2\n      tag_134\n      swap2\n      swap1\n      tag_128\n      jump\t// in\n    tag_134:\n      pop\n        /* \"Dapp/MoneyTransfer.sol\":1661:1665  _cvv */\n      dup1\n        /* \"Dapp/MoneyTransfer.sol\":1655:1658  cvv */\n      0x08\n        /* \"Dapp/MoneyTransfer.sol\":1655:1665  cvv = _cvv */\n      swap1\n      dup2\n      tag_135\n      swap2\n      swap1\n      tag_128\n      jump\t// in\n    tag_135:\n      pop\n        /* \"Dapp/MoneyTransfer.sol\":1713:1717  true */\n      0x01\n        /* \"Dapp/MoneyTransfer.sol\":1699:1710  callPutCard */\n      0x0c\n      0x00\n        /* \"Dapp/MoneyTransfer.sol\":1699:1717  callPutCard = true */\n      0x0100\n      exp\n      dup2\n      sload\n      dup2\n      0xff\n      mul\n      not\n      and\n      swap1\n      dup4\n      iszero\n      iszero\n      mul\n      or\n      swap1\n      sstore\n      pop\n        /* \"Dapp/MoneyTransfer.sol\":1755:1770  block.timestamp */\n      timestamp\n        /* \"Dapp/MoneyTransfer.sol\":1735:1752  firstTransferTime */\n      0x0a\n        /* \"Dapp/MoneyTransfer.sol\":1735:1770  firstTransferTime = block.timestamp */\n      dup2\n      swap1\n      sstore\n      pop\n        /* \"Dapp/MoneyTransfer.sol\":2269:2270  8 */\n      0x08\n        /* \"Dapp/MoneyTransfer.sol\":2247:2257  cardNumber */\n      0x07\n        /* \"Dapp/MoneyTransfer.sol\":2241:2265  bytes(cardNumber).length */\n      dup1\n      sload\n      tag_136\n      swap1\n      tag_137\n      jump\t// in\n    tag_136:\n      swap1\n      pop\n        /* \"Dapp/MoneyTransfer.sol\":2241:2270  bytes(cardNumber).length == 8 */\n      eq\n        /* \"Dapp/MoneyTransfer.sol\":2241:2296  bytes(cardNumber).length == 8 && bytes(cvv).length == 3 */\n      dup1\n      iszero\n      tag_138\n      jumpi\n      pop\n        /* \"Dapp/MoneyTransfer.sol\":2295:2296  3 */\n      0x03\n        /* \"Dapp/MoneyTransfer.sol\":2280:2283  cvv */\n      0x08\n        /* \"Dapp/MoneyTransfer.sol\":2274:2291  bytes(cvv).length */\n      dup1\n      sload\n      tag_139\n      swap1\n      tag_137\n      jump\t// in\n    tag_139:\n      swap1\n      pop\n        /* \"Dapp/MoneyTransfer.sol\":2274:2296  bytes(cvv).length == 3 */\n      eq\n        /* \"Dapp/MoneyTransfer.sol\":2241:2296  bytes(cardNumber).length == 8 && bytes(cvv).length == 3 */\n    tag_138:\n        /* \"Dapp/MoneyTransfer.sol\":2233:2321  require(bytes(cardNumber).length == 8 && bytes(cvv).length == 3, \"No valid credit card\") */\n      tag_140\n      jumpi\n      mload(0x40)\n      0x08c379a000000000000000000000000000000000000000000000000000000000\n      dup2\n      mstore\n      0x04\n      add\n      tag_141\n      swap1\n      tag_142\n      jump\t// in\n    tag_141:\n      mload(0x40)\n      dup1\n      swap2\n      sub\n      swap1\n      revert\n    tag_140:\n        /* \"Dapp/MoneyTransfer.sol\":1515:1780  function setCard(string memory _cardNumber, string memory _cvv) public  m_checkCard {... */\n      pop\n      pop\n      jump\t// out\n        /* \"Dapp/Transaction.sol\":961:1054  function getNumberOfTransactions() public view returns(uint){... */\n    tag_44:\n        /* \"Dapp/Transaction.sol\":1016:1020  uint */\n      0x00\n        /* \"Dapp/Transaction.sol\":1039:1046  counter */\n      sload(0x02)\n        /* \"Dapp/Transaction.sol\":1032:1046  return counter */\n      swap1\n      pop\n        /* \"Dapp/Transaction.sol\":961:1054  function getNumberOfTransactions() public view returns(uint){... */\n      swap1\n      jump\t// out\n        /* \"Dapp/MoneyTransfer.sol\":580:611  bool public callPutCard = false */\n    tag_47:\n      0x0c\n      0x00\n      swap1\n      sload\n      swap1\n      0x0100\n      exp\n      swap1\n      div\n      0xff\n      and\n      dup2\n      jump\t// out\n        /* \"Dapp/MoneyTransfer.sol\":292:309  string public cvv */\n    tag_51:\n      0x08\n      dup1\n      sload\n      tag_144\n      swap1\n      tag_137\n      jump\t// in\n    tag_144:\n      dup1\n      0x1f\n      add\n      0x20\n      dup1\n      swap2\n      div\n      mul\n      0x20\n      add\n      mload(0x40)\n      swap1\n      dup2\n      add\n      0x40\n      mstore\n      dup1\n      swap3\n      swap2\n      swap1\n      dup2\n      dup2\n      mstore\n      0x20\n      add\n      dup3\n      dup1\n      sload\n      tag_145\n      swap1\n      tag_137\n      jump\t// in\n    tag_145:\n      dup1\n      iszero\n      tag_146\n      jumpi\n      dup1\n      0x1f\n      lt\n      tag_147\n      jumpi\n      0x0100\n      dup1\n      dup4\n      sload\n      div\n      mul\n      dup4\n      mstore\n      swap2\n      0x20\n      add\n      swap2\n      jump(tag_146)\n    tag_147:\n      dup3\n      add\n      swap2\n      swap1\n      0x00\n      mstore\n      keccak256(0x00, 0x20)\n      swap1\n    tag_148:\n      dup2\n      sload\n      dup2\n      mstore\n      swap1\n      0x01\n      add\n      swap1\n      0x20\n      add\n      dup1\n      dup4\n      gt\n      tag_148\n      jumpi\n      dup3\n      swap1\n      sub\n      0x1f\n      and\n      dup3\n      add\n      swap2\n    tag_146:\n      pop\n      pop\n      pop\n      pop\n      pop\n      dup2\n      jump\t// out\n        /* \"Dapp/MoneyTransfer.sol\":547:572  uint public callCount = 0 */\n    tag_55:\n      sload(0x0b)\n      dup2\n      jump\t// out\n        /* \"Dapp/MoneyTransfer.sol\":3869:3956  function getTime() public view returns(uint ){... */\n    tag_58:\n        /* \"Dapp/MoneyTransfer.sol\":3908:3912  uint */\n      0x00\n        /* \"Dapp/MoneyTransfer.sol\":3933:3948  block.timestamp */\n      timestamp\n        /* \"Dapp/MoneyTransfer.sol\":3925:3948  return  block.timestamp */\n      swap1\n      pop\n        /* \"Dapp/MoneyTransfer.sol\":3869:3956  function getTime() public view returns(uint ){... */\n      swap1\n      jump\t// out\n        /* \"Dapp/Transaction.sol\":283:324  mapping (uint => Transactions) public trn */\n    tag_62:\n      mstore(0x20, 0x01)\n      dup1\n      0x00\n      mstore\n      keccak256(0x00, 0x40)\n      0x00\n      swap2\n      pop\n      swap1\n      pop\n      dup1\n      0x00\n      add\n      0x00\n      swap1\n      sload\n      swap1\n      0x0100\n      exp\n      swap1\n      div\n      0xffffffffffffffffffffffffffffffffffffffff\n      and\n      swap1\n      dup1\n      0x01\n      add\n      0x00\n      swap1\n      sload\n      swap1\n      0x0100\n      exp\n      swap1\n      div\n      0xffffffffffffffffffffffffffffffffffffffff\n      and\n      swap1\n      dup1\n      0x02\n      add\n      sload\n      swap1\n      dup1\n      0x03\n      add\n      sload\n      swap1\n      pop\n      dup5\n      jump\t// out\n        /* \"Dapp/MoneyTransfer.sol\":176:201  uint256 public TotalFunds */\n    tag_65:\n      sload(0x04)\n      dup2\n      jump\t// out\n        /* \"Dapp/MoneyTransfer.sol\":316:342  uint256 public TotalAmount */\n    tag_68:\n      sload(0x09)\n      dup2\n      jump\t// out\n        /* \"Dapp/Transaction.sol\":715:827  function getTransactions() public view returns(Transactions[] memory){... */\n    tag_71:\n        /* \"Dapp/Transaction.sol\":762:783  Transactions[] memory */\n      0x60\n        /* \"Dapp/Transaction.sol\":804:819  transactionList */\n      0x00\n        /* \"Dapp/Transaction.sol\":797:819  return transactionList */\n      dup1\n      sload\n      dup1\n      0x20\n      mul\n      0x20\n      add\n      mload(0x40)\n      swap1\n      dup2\n      add\n      0x40\n      mstore\n      dup1\n      swap3\n      swap2\n      swap1\n      dup2\n      dup2\n      mstore\n      0x20\n      add\n      0x00\n      swap1\n    tag_151:\n      dup3\n      dup3\n      lt\n      iszero\n      tag_152\n      jumpi\n      dup4\n      dup3\n      swap1\n      0x00\n      mstore\n      keccak256(0x00, 0x20)\n      swap1\n      0x04\n      mul\n      add\n      mload(0x40)\n      dup1\n      0x80\n      add\n      0x40\n      mstore\n      swap1\n      dup2\n      0x00\n      dup3\n      add\n      0x00\n      swap1\n      sload\n      swap1\n      0x0100\n      exp\n      swap1\n      div\n      0xffffffffffffffffffffffffffffffffffffffff\n      and\n      0xffffffffffffffffffffffffffffffffffffffff\n      and\n      0xffffffffffffffffffffffffffffffffffffffff\n      and\n      dup2\n      mstore\n      0x20\n      add\n      0x01\n      dup3\n      add\n      0x00\n      swap1\n      sload\n      swap1\n      0x0100\n      exp\n      swap1\n      div\n      0xffffffffffffffffffffffffffffffffffffffff\n      and\n      0xffffffffffffffffffffffffffffffffffffffff\n      and\n      0xffffffffffffffffffffffffffffffffffffffff\n      and\n      dup2\n      mstore\n      0x20\n      add\n      0x02\n      dup3\n      add\n      sload\n      dup2\n      mstore\n      0x20\n      add\n      0x03\n      dup3\n      add\n      sload\n      dup2\n      mstore\n      pop\n      pop\n      dup2\n      mstore\n      0x20\n      add\n      swap1\n      0x01\n      add\n      swap1\n      jump(tag_151)\n    tag_152:\n      pop\n      pop\n      pop\n      pop\n      swap1\n      pop\n        /* \"Dapp/Transaction.sol\":715:827  function getTransactions() public view returns(Transactions[] memory){... */\n      swap1\n      jump\t// out\n        /* \"Dapp/MoneyTransfer.sol\":1795:1864  function getOutCard() public  {... */\n    tag_75:\n        /* \"Dapp/MoneyTransfer.sol\":1849:1854  false */\n      0x00\n        /* \"Dapp/MoneyTransfer.sol\":1835:1846  callPutCard */\n      0x0c\n      0x00\n        /* \"Dapp/MoneyTransfer.sol\":1835:1854  callPutCard = false */\n      0x0100\n      exp\n      dup2\n      sload\n      dup2\n      0xff\n      mul\n      not\n      and\n      swap1\n      dup4\n      iszero\n      iszero\n      mul\n      or\n      swap1\n      sstore\n      pop\n        /* \"Dapp/MoneyTransfer.sol\":1795:1864  function getOutCard() public  {... */\n      jump\t// out\n        /* \"Dapp/MoneyTransfer.sol\":260:284  string public cardNumber */\n    tag_77:\n      0x07\n      dup1\n      sload\n      tag_155\n      swap1\n      tag_137\n      jump\t// in\n    tag_155:\n      dup1\n      0x1f\n      add\n      0x20\n      dup1\n      swap2\n      div\n      mul\n      0x20\n      add\n      mload(0x40)\n      swap1\n      dup2\n      add\n      0x40\n      mstore\n      dup1\n      swap3\n      swap2\n      swap1\n      dup2\n      dup2\n      mstore\n      0x20\n      add\n      dup3\n      dup1\n      sload\n      tag_156\n      swap1\n      tag_137\n      jump\t// in\n    tag_156:\n      dup1\n      iszero\n      tag_157\n      jumpi\n      dup1\n      0x1f\n      lt\n      tag_158\n      jumpi\n      0x0100\n      dup1\n      dup4\n      sload\n      div\n      mul\n      dup4\n      mstore\n      swap2\n      0x20\n      add\n      swap2\n      jump(tag_157)\n    tag_158:\n      dup3\n      add\n      swap2\n      swap1\n      0x00\n      mstore\n      keccak256(0x00, 0x20)\n      swap1\n    tag_159:\n      dup2\n      sload\n      dup2\n      mstore\n      swap1\n      0x01\n      add\n      swap1\n      0x20\n      add\n      dup1\n      dup4\n      gt\n      tag_159\n      jumpi\n      dup3\n      swap1\n      sub\n      0x1f\n      and\n      dup3\n      add\n      swap2\n    tag_157:\n      pop\n      pop\n      pop\n      pop\n      pop\n      dup2\n      jump\t// out\n        /* \"Dapp/MoneyTransfer.sol\":148:169  uint256 public amount */\n    tag_80:\n      sload(0x03)\n      dup2\n      jump\t// out\n        /* \"Dapp/MoneyTransfer.sol\":232:253  string public message */\n    tag_83:\n      0x06\n      dup1\n      sload\n      tag_160\n      swap1\n      tag_137\n      jump\t// in\n    tag_160:\n      dup1\n      0x1f\n      add\n      0x20\n      dup1\n      swap2\n      div\n      mul\n      0x20\n      add\n      mload(0x40)\n      swap1\n      dup2\n      add\n      0x40\n      mstore\n      dup1\n      swap3\n      swap2\n      swap1\n      dup2\n      dup2\n      mstore\n      0x20\n      add\n      dup3\n      dup1\n      sload\n      tag_161\n      swap1\n      tag_137\n      jump\t// in\n    tag_161:\n      dup1\n      iszero\n      tag_162\n      jumpi\n      dup1\n      0x1f\n      lt\n      tag_163\n      jumpi\n      0x0100\n      dup1\n      dup4\n      sload\n      div\n      mul\n      dup4\n      mstore\n      swap2\n      0x20\n      add\n      swap2\n      jump(tag_162)\n    tag_163:\n      dup3\n      add\n      swap2\n      swap1\n      0x00\n      mstore\n      keccak256(0x00, 0x20)\n      swap1\n    tag_164:\n      dup2\n      sload\n      dup2\n      mstore\n      swap1\n      0x01\n      add\n      swap1\n      0x20\n      add\n      dup1\n      dup4\n      gt\n      tag_164\n      jumpi\n      dup3\n      swap1\n      sub\n      0x1f\n      and\n      dup3\n      add\n      swap2\n    tag_162:\n      pop\n      pop\n      pop\n      pop\n      pop\n      dup2\n      jump\t// out\n        /* \"Dapp/Transaction.sol\":835:953  function getTransactionById(uint _index)public view returns(Transactions memory){... */\n    tag_87:\n        /* \"Dapp/Transaction.sol\":895:914  Transactions memory */\n      tag_165\n      tag_166\n      jump\t// in\n    tag_165:\n        /* \"Dapp/Transaction.sol\":933:936  trn */\n      0x01\n        /* \"Dapp/Transaction.sol\":933:944  trn[_index] */\n      0x00\n        /* \"Dapp/Transaction.sol\":937:943  _index */\n      dup4\n        /* \"Dapp/Transaction.sol\":933:944  trn[_index] */\n      dup2\n      mstore\n      0x20\n      add\n      swap1\n      dup2\n      mstore\n      0x20\n      add\n      0x00\n      keccak256\n        /* \"Dapp/Transaction.sol\":926:944  return trn[_index] */\n      mload(0x40)\n      dup1\n      0x80\n      add\n      0x40\n      mstore\n      swap1\n      dup2\n      0x00\n      dup3\n      add\n      0x00\n      swap1\n      sload\n      swap1\n      0x0100\n      exp\n      swap1\n      div\n      0xffffffffffffffffffffffffffffffffffffffff\n      and\n      0xffffffffffffffffffffffffffffffffffffffff\n      and\n      0xffffffffffffffffffffffffffffffffffffffff\n      and\n      dup2\n      mstore\n      0x20\n      add\n      0x01\n      dup3\n      add\n      0x00\n      swap1\n      sload\n      swap1\n      0x0100\n      exp\n      swap1\n      div\n      0xffffffffffffffffffffffffffffffffffffffff\n      and\n      0xffffffffffffffffffffffffffffffffffffffff\n      and\n      0xffffffffffffffffffffffffffffffffffffffff\n      and\n      dup2\n      mstore\n      0x20\n      add\n      0x02\n      dup3\n      add\n      sload\n      dup2\n      mstore\n      0x20\n      add\n      0x03\n      dup3\n      add\n      sload\n      dup2\n      mstore\n      pop\n      pop\n      swap1\n      pop\n        /* \"Dapp/Transaction.sol\":835:953  function getTransactionById(uint _index)public view returns(Transactions memory){... */\n      swap2\n      swap1\n      pop\n      jump\t// out\n        /* \"Dapp/Transaction.sol\":1062:1210  function getLastTransaction() public view returns(Transactions memory){... */\n    tag_91:\n        /* \"Dapp/Transaction.sol\":1112:1131  Transactions memory */\n      tag_168\n      tag_166\n      jump\t// in\n    tag_168:\n        /* \"Dapp/Transaction.sol\":1143:1149  uint x */\n      0x00\n        /* \"Dapp/Transaction.sol\":1177:1178  1 */\n      0x01\n        /* \"Dapp/Transaction.sol\":1152:1167  transactionList */\n      0x00\n        /* \"Dapp/Transaction.sol\":1152:1174  transactionList.length */\n      dup1\n      sload\n      swap1\n      pop\n        /* \"Dapp/Transaction.sol\":1152:1178  transactionList.length - 1 */\n      tag_170\n      swap2\n      swap1\n      tag_123\n      jump\t// in\n    tag_170:\n        /* \"Dapp/Transaction.sol\":1143:1178  uint x = transactionList.length - 1 */\n      swap1\n      pop\n        /* \"Dapp/Transaction.sol\":1196:1199  trn */\n      0x01\n        /* \"Dapp/Transaction.sol\":1196:1202  trn[x] */\n      0x00\n        /* \"Dapp/Transaction.sol\":1200:1201  x */\n      dup3\n        /* \"Dapp/Transaction.sol\":1196:1202  trn[x] */\n      dup2\n      mstore\n      0x20\n      add\n      swap1\n      dup2\n      mstore\n      0x20\n      add\n      0x00\n      keccak256\n        /* \"Dapp/Transaction.sol\":1189:1202  return trn[x] */\n      mload(0x40)\n      dup1\n      0x80\n      add\n      0x40\n      mstore\n      swap1\n      dup2\n      0x00\n      dup3\n      add\n      0x00\n      swap1\n      sload\n      swap1\n      0x0100\n      exp\n      swap1\n      div\n      0xffffffffffffffffffffffffffffffffffffffff\n      and\n      0xffffffffffffffffffffffffffffffffffffffff\n      and\n      0xffffffffffffffffffffffffffffffffffffffff\n      and\n      dup2\n      mstore\n      0x20\n      add\n      0x01\n      dup3\n      add\n      0x00\n      swap1\n      sload\n      swap1\n      0x0100\n      exp\n      swap1\n      div\n      0xffffffffffffffffffffffffffffffffffffffff\n      and\n      0xffffffffffffffffffffffffffffffffffffffff\n      and\n      0xffffffffffffffffffffffffffffffffffffffff\n      and\n      dup2\n      mstore\n      0x20\n      add\n      0x02\n      dup3\n      add\n      sload\n      dup2\n      mstore\n      0x20\n      add\n      0x03\n      dup3\n      add\n      sload\n      dup2\n      mstore\n      pop\n      pop\n      swap2\n      pop\n      pop\n        /* \"Dapp/Transaction.sol\":1062:1210  function getLastTransaction() public view returns(Transactions memory){... */\n      swap1\n      jump\t// out\n        /* \"Dapp/Transaction.sol\":357:707  function addTransaction(address _address_from ,address _address_to, uint _amount, uint _timestamp)internal{... */\n    tag_126:\n        /* \"Dapp/Transaction.sol\":492:526  Transactions memory newTransaction */\n      0x00\n        /* \"Dapp/Transaction.sol\":529:590  Transactions(_address_from, _address_to, _amount, _timestamp) */\n      mload(0x40)\n      dup1\n      0x80\n      add\n      0x40\n      mstore\n      dup1\n        /* \"Dapp/Transaction.sol\":542:555  _address_from */\n      dup7\n        /* \"Dapp/Transaction.sol\":529:590  Transactions(_address_from, _address_to, _amount, _timestamp) */\n      0xffffffffffffffffffffffffffffffffffffffff\n      and\n      dup2\n      mstore\n      0x20\n      add\n        /* \"Dapp/Transaction.sol\":557:568  _address_to */\n      dup6\n        /* \"Dapp/Transaction.sol\":529:590  Transactions(_address_from, _address_to, _amount, _timestamp) */\n      0xffffffffffffffffffffffffffffffffffffffff\n      and\n      dup2\n      mstore\n      0x20\n      add\n        /* \"Dapp/Transaction.sol\":570:577  _amount */\n      dup5\n        /* \"Dapp/Transaction.sol\":529:590  Transactions(_address_from, _address_to, _amount, _timestamp) */\n      dup2\n      mstore\n      0x20\n      add\n        /* \"Dapp/Transaction.sol\":579:589  _timestamp */\n      dup4\n        /* \"Dapp/Transaction.sol\":529:590  Transactions(_address_from, _address_to, _amount, _timestamp) */\n      dup2\n      mstore\n      pop\n        /* \"Dapp/Transaction.sol\":492:590  Transactions memory newTransaction = Transactions(_address_from, _address_to, _amount, _timestamp) */\n      swap1\n      pop\n        /* \"Dapp/Transaction.sol\":601:616  transactionList */\n      0x00\n        /* \"Dapp/Transaction.sol\":622:636  newTransaction */\n      dup2\n        /* \"Dapp/Transaction.sol\":601:637  transactionList.push(newTransaction) */\n      swap1\n      dup1\n      0x01\n      dup2\n      sload\n      add\n      dup1\n      dup3\n      sstore\n      dup1\n      swap2\n      pop\n      pop\n      0x01\n      swap1\n      sub\n      swap1\n      0x00\n      mstore\n      keccak256(0x00, 0x20)\n      swap1\n      0x04\n      mul\n      add\n      0x00\n      swap1\n      swap2\n      swap1\n      swap2\n      swap1\n      swap2\n      pop\n      0x00\n      dup3\n      add\n      mload\n      dup2\n      0x00\n      add\n      exp(0x0100, 0x00)\n      dup2\n      sload\n      dup2\n      0xffffffffffffffffffffffffffffffffffffffff\n      mul\n      not\n      and\n      swap1\n      dup4\n      0xffffffffffffffffffffffffffffffffffffffff\n      and\n      mul\n      or\n      swap1\n      sstore\n      pop\n      0x20\n      dup3\n      add\n      mload\n      dup2\n      0x01\n      add\n      exp(0x0100, 0x00)\n      dup2\n      sload\n      dup2\n      0xffffffffffffffffffffffffffffffffffffffff\n      mul\n      not\n      and\n      swap1\n      dup4\n      0xffffffffffffffffffffffffffffffffffffffff\n      and\n      mul\n      or\n      swap1\n      sstore\n      pop\n      0x40\n      dup3\n      add\n      mload\n      dup2\n      0x02\n      add\n      sstore\n      0x60\n      dup3\n      add\n      mload\n      dup2\n      0x03\n      add\n      sstore\n      pop\n      pop\n        /* \"Dapp/Transaction.sol\":663:677  newTransaction */\n      dup1\n        /* \"Dapp/Transaction.sol\":648:651  trn */\n      0x01\n        /* \"Dapp/Transaction.sol\":648:660  trn[counter] */\n      0x00\n        /* \"Dapp/Transaction.sol\":652:659  counter */\n      sload(0x02)\n        /* \"Dapp/Transaction.sol\":648:660  trn[counter] */\n      dup2\n      mstore\n      0x20\n      add\n      swap1\n      dup2\n      mstore\n      0x20\n      add\n      0x00\n      keccak256\n        /* \"Dapp/Transaction.sol\":648:677  trn[counter] = newTransaction */\n      0x00\n      dup3\n      add\n      mload\n      dup2\n      0x00\n      add\n      exp(0x0100, 0x00)\n      dup2\n      sload\n      dup2\n      0xffffffffffffffffffffffffffffffffffffffff\n      mul\n      not\n      and\n      swap1\n      dup4\n      0xffffffffffffffffffffffffffffffffffffffff\n      and\n      mul\n      or\n      swap1\n      sstore\n      pop\n      0x20\n      dup3\n      add\n      mload\n      dup2\n      0x01\n      add\n      exp(0x0100, 0x00)\n      dup2\n      sload\n      dup2\n      0xffffffffffffffffffffffffffffffffffffffff\n      mul\n      not\n      and\n      swap1\n      dup4\n      0xffffffffffffffffffffffffffffffffffffffff\n      and\n      mul\n      or\n      swap1\n      sstore\n      pop\n      0x40\n      dup3\n      add\n      mload\n      dup2\n      0x02\n      add\n      sstore\n      0x60\n      dup3\n      add\n      mload\n      dup2\n      0x03\n      add\n      sstore\n      swap1\n      pop\n      pop\n        /* \"Dapp/Transaction.sol\":688:695  counter */\n      0x02\n      0x00\n        /* \"Dapp/Transaction.sol\":688:697  counter++ */\n      dup2\n      sload\n      dup1\n      swap3\n      swap2\n      swap1\n      tag_173\n      swap1\n      tag_174\n      jump\t// in\n    tag_173:\n      swap2\n      swap1\n      pop\n      sstore\n      pop\n        /* \"Dapp/Transaction.sol\":463:707  {... */\n      pop\n        /* \"Dapp/Transaction.sol\":357:707  function addTransaction(address _address_from ,address _address_to, uint _amount, uint _timestamp)internal{... */\n      pop\n      pop\n      pop\n      pop\n      jump\t// out\n    tag_166:\n      mload(0x40)\n      dup1\n      0x80\n      add\n      0x40\n      mstore\n      dup1\n      and(0xffffffffffffffffffffffffffffffffffffffff, 0x00)\n      dup2\n      mstore\n      0x20\n      add\n      and(0xffffffffffffffffffffffffffffffffffffffff, 0x00)\n      dup2\n      mstore\n      0x20\n      add\n      0x00\n      dup2\n      mstore\n      0x20\n      add\n      0x00\n      dup2\n      mstore\n      pop\n      swap1\n      jump\t// out\n        /* \"#utility.yul\":7:82   */\n    tag_175:\n        /* \"#utility.yul\":40:46   */\n      0x00\n        /* \"#utility.yul\":73:75   */\n      0x40\n        /* \"#utility.yul\":67:76   */\n      mload\n        /* \"#utility.yul\":57:76   */\n      swap1\n      pop\n        /* \"#utility.yul\":7:82   */\n      swap1\n      jump\t// out\n        /* \"#utility.yul\":88:205   */\n    tag_176:\n        /* \"#utility.yul\":197:198   */\n      0x00\n        /* \"#utility.yul\":194:195   */\n      dup1\n        /* \"#utility.yul\":187:199   */\n      revert\n        /* \"#utility.yul\":211:328   */\n    tag_177:\n        /* \"#utility.yul\":320:321   */\n      0x00\n        /* \"#utility.yul\":317:318   */\n      dup1\n        /* \"#utility.yul\":310:322   */\n      revert\n        /* \"#utility.yul\":334:411   */\n    tag_178:\n        /* \"#utility.yul\":371:378   */\n      0x00\n        /* \"#utility.yul\":400:405   */\n      dup2\n        /* \"#utility.yul\":389:405   */\n      swap1\n      pop\n        /* \"#utility.yul\":334:411   */\n      swap2\n      swap1\n      pop\n      jump\t// out\n        /* \"#utility.yul\":417:539   */\n    tag_179:\n        /* \"#utility.yul\":490:514   */\n      tag_246\n        /* \"#utility.yul\":508:513   */\n      dup2\n        /* \"#utility.yul\":490:514   */\n      tag_178\n      jump\t// in\n    tag_246:\n        /* \"#utility.yul\":483:488   */\n      dup2\n        /* \"#utility.yul\":480:515   */\n      eq\n        /* \"#utility.yul\":470:533   */\n      tag_247\n      jumpi\n        /* \"#utility.yul\":529:530   */\n      0x00\n        /* \"#utility.yul\":526:527   */\n      dup1\n        /* \"#utility.yul\":519:531   */\n      revert\n        /* \"#utility.yul\":470:533   */\n    tag_247:\n        /* \"#utility.yul\":417:539   */\n      pop\n      jump\t// out\n        /* \"#utility.yul\":545:684   */\n    tag_180:\n        /* \"#utility.yul\":591:596   */\n      0x00\n        /* \"#utility.yul\":629:635   */\n      dup2\n        /* \"#utility.yul\":616:636   */\n      calldataload\n        /* \"#utility.yul\":607:636   */\n      swap1\n      pop\n        /* \"#utility.yul\":645:678   */\n      tag_249\n        /* \"#utility.yul\":672:677   */\n      dup2\n        /* \"#utility.yul\":645:678   */\n      tag_179\n      jump\t// in\n    tag_249:\n        /* \"#utility.yul\":545:684   */\n      swap3\n      swap2\n      pop\n      pop\n      jump\t// out\n        /* \"#utility.yul\":690:1019   */\n    tag_27:\n        /* \"#utility.yul\":749:755   */\n      0x00\n        /* \"#utility.yul\":798:800   */\n      0x20\n        /* \"#utility.yul\":786:795   */\n      dup3\n        /* \"#utility.yul\":777:784   */\n      dup5\n        /* \"#utility.yul\":773:796   */\n      sub\n        /* \"#utility.yul\":769:801   */\n      slt\n        /* \"#utility.yul\":766:885   */\n      iszero\n      tag_251\n      jumpi\n        /* \"#utility.yul\":804:883   */\n      tag_252\n      tag_176\n      jump\t// in\n    tag_252:\n        /* \"#utility.yul\":766:885   */\n    tag_251:\n        /* \"#utility.yul\":924:925   */\n      0x00\n        /* \"#utility.yul\":949:1002   */\n      tag_253\n        /* \"#utility.yul\":994:1001   */\n      dup5\n        /* \"#utility.yul\":985:991   */\n      dup3\n        /* \"#utility.yul\":974:983   */\n      dup6\n        /* \"#utility.yul\":970:992   */\n      add\n        /* \"#utility.yul\":949:1002   */\n      tag_180\n      jump\t// in\n    tag_253:\n        /* \"#utility.yul\":939:1002   */\n      swap2\n      pop\n        /* \"#utility.yul\":895:1012   */\n      pop\n        /* \"#utility.yul\":690:1019   */\n      swap3\n      swap2\n      pop\n      pop\n      jump\t// out\n        /* \"#utility.yul\":1025:1151   */\n    tag_181:\n        /* \"#utility.yul\":1062:1069   */\n      0x00\n        /* \"#utility.yul\":1102:1144   */\n      0xffffffffffffffffffffffffffffffffffffffff\n        /* \"#utility.yul\":1095:1100   */\n      dup3\n        /* \"#utility.yul\":1091:1145   */\n      and\n        /* \"#utility.yul\":1080:1145   */\n      swap1\n      pop\n        /* \"#utility.yul\":1025:1151   */\n      swap2\n      swap1\n      pop\n      jump\t// out\n        /* \"#utility.yul\":1157:1253   */\n    tag_182:\n        /* \"#utility.yul\":1194:1201   */\n      0x00\n        /* \"#utility.yul\":1223:1247   */\n      tag_256\n        /* \"#utility.yul\":1241:1246   */\n      dup3\n        /* \"#utility.yul\":1223:1247   */\n      tag_181\n      jump\t// in\n    tag_256:\n        /* \"#utility.yul\":1212:1247   */\n      swap1\n      pop\n        /* \"#utility.yul\":1157:1253   */\n      swap2\n      swap1\n      pop\n      jump\t// out\n        /* \"#utility.yul\":1259:1377   */\n    tag_183:\n        /* \"#utility.yul\":1346:1370   */\n      tag_258\n        /* \"#utility.yul\":1364:1369   */\n      dup2\n        /* \"#utility.yul\":1346:1370   */\n      tag_182\n      jump\t// in\n    tag_258:\n        /* \"#utility.yul\":1341:1344   */\n      dup3\n        /* \"#utility.yul\":1334:1371   */\n      mstore\n        /* \"#utility.yul\":1259:1377   */\n      pop\n      pop\n      jump\t// out\n        /* \"#utility.yul\":1383:1501   */\n    tag_184:\n        /* \"#utility.yul\":1470:1494   */\n      tag_260\n        /* \"#utility.yul\":1488:1493   */\n      dup2\n        /* \"#utility.yul\":1470:1494   */\n      tag_178\n      jump\t// in\n    tag_260:\n        /* \"#utility.yul\":1465:1468   */\n      dup3\n        /* \"#utility.yul\":1458:1495   */\n      mstore\n        /* \"#utility.yul\":1383:1501   */\n      pop\n      pop\n      jump\t// out\n        /* \"#utility.yul\":1507:2060   */\n    tag_30:\n        /* \"#utility.yul\":1684:1688   */\n      0x00\n        /* \"#utility.yul\":1722:1725   */\n      0x80\n        /* \"#utility.yul\":1711:1720   */\n      dup3\n        /* \"#utility.yul\":1707:1726   */\n      add\n        /* \"#utility.yul\":1699:1726   */\n      swap1\n      pop\n        /* \"#utility.yul\":1736:1807   */\n      tag_262\n        /* \"#utility.yul\":1804:1805   */\n      0x00\n        /* \"#utility.yul\":1793:1802   */\n      dup4\n        /* \"#utility.yul\":1789:1806   */\n      add\n        /* \"#utility.yul\":1780:1786   */\n      dup8\n        /* \"#utility.yul\":1736:1807   */\n      tag_183\n      jump\t// in\n    tag_262:\n        /* \"#utility.yul\":1817:1889   */\n      tag_263\n        /* \"#utility.yul\":1885:1887   */\n      0x20\n        /* \"#utility.yul\":1874:1883   */\n      dup4\n        /* \"#utility.yul\":1870:1888   */\n      add\n        /* \"#utility.yul\":1861:1867   */\n      dup7\n        /* \"#utility.yul\":1817:1889   */\n      tag_183\n      jump\t// in\n    tag_263:\n        /* \"#utility.yul\":1899:1971   */\n      tag_264\n        /* \"#utility.yul\":1967:1969   */\n      0x40\n        /* \"#utility.yul\":1956:1965   */\n      dup4\n        /* \"#utility.yul\":1952:1970   */\n      add\n        /* \"#utility.yul\":1943:1949   */\n      dup6\n        /* \"#utility.yul\":1899:1971   */\n      tag_184\n      jump\t// in\n    tag_264:\n        /* \"#utility.yul\":1981:2053   */\n      tag_265\n        /* \"#utility.yul\":2049:2051   */\n      0x60\n        /* \"#utility.yul\":2038:2047   */\n      dup4\n        /* \"#utility.yul\":2034:2052   */\n      add\n        /* \"#utility.yul\":2025:2031   */\n      dup5\n        /* \"#utility.yul\":1981:2053   */\n      tag_184\n      jump\t// in\n    tag_265:\n        /* \"#utility.yul\":1507:2060   */\n      swap6\n      swap5\n      pop\n      pop\n      pop\n      pop\n      pop\n      jump\t// out\n        /* \"#utility.yul\":2066:2188   */\n    tag_185:\n        /* \"#utility.yul\":2139:2163   */\n      tag_267\n        /* \"#utility.yul\":2157:2162   */\n      dup2\n        /* \"#utility.yul\":2139:2163   */\n      tag_182\n      jump\t// in\n    tag_267:\n        /* \"#utility.yul\":2132:2137   */\n      dup2\n        /* \"#utility.yul\":2129:2164   */\n      eq\n        /* \"#utility.yul\":2119:2182   */\n      tag_268\n      jumpi\n        /* \"#utility.yul\":2178:2179   */\n      0x00\n        /* \"#utility.yul\":2175:2176   */\n      dup1\n        /* \"#utility.yul\":2168:2180   */\n      revert\n        /* \"#utility.yul\":2119:2182   */\n    tag_268:\n        /* \"#utility.yul\":2066:2188   */\n      pop\n      jump\t// out\n        /* \"#utility.yul\":2194:2333   */\n    tag_186:\n        /* \"#utility.yul\":2240:2245   */\n      0x00\n        /* \"#utility.yul\":2278:2284   */\n      dup2\n        /* \"#utility.yul\":2265:2285   */\n      calldataload\n        /* \"#utility.yul\":2256:2285   */\n      swap1\n      pop\n        /* \"#utility.yul\":2294:2327   */\n      tag_270\n        /* \"#utility.yul\":2321:2326   */\n      dup2\n        /* \"#utility.yul\":2294:2327   */\n      tag_185\n      jump\t// in\n    tag_270:\n        /* \"#utility.yul\":2194:2333   */\n      swap3\n      swap2\n      pop\n      pop\n      jump\t// out\n        /* \"#utility.yul\":2339:2813   */\n    tag_33:\n        /* \"#utility.yul\":2407:2413   */\n      0x00\n        /* \"#utility.yul\":2415:2421   */\n      dup1\n        /* \"#utility.yul\":2464:2466   */\n      0x40\n        /* \"#utility.yul\":2452:2461   */\n      dup4\n        /* \"#utility.yul\":2443:2450   */\n      dup6\n        /* \"#utility.yul\":2439:2462   */\n      sub\n        /* \"#utility.yul\":2435:2467   */\n      slt\n        /* \"#utility.yul\":2432:2551   */\n      iszero\n      tag_272\n      jumpi\n        /* \"#utility.yul\":2470:2549   */\n      tag_273\n      tag_176\n      jump\t// in\n    tag_273:\n        /* \"#utility.yul\":2432:2551   */\n    tag_272:\n        /* \"#utility.yul\":2590:2591   */\n      0x00\n        /* \"#utility.yul\":2615:2668   */\n      tag_274\n        /* \"#utility.yul\":2660:2667   */\n      dup6\n        /* \"#utility.yul\":2651:2657   */\n      dup3\n        /* \"#utility.yul\":2640:2649   */\n      dup7\n        /* \"#utility.yul\":2636:2658   */\n      add\n        /* \"#utility.yul\":2615:2668   */\n      tag_180\n      jump\t// in\n    tag_274:\n        /* \"#utility.yul\":2605:2668   */\n      swap3\n      pop\n        /* \"#utility.yul\":2561:2678   */\n      pop\n        /* \"#utility.yul\":2717:2719   */\n      0x20\n        /* \"#utility.yul\":2743:2796   */\n      tag_275\n        /* \"#utility.yul\":2788:2795   */\n      dup6\n        /* \"#utility.yul\":2779:2785   */\n      dup3\n        /* \"#utility.yul\":2768:2777   */\n      dup7\n        /* \"#utility.yul\":2764:2786   */\n      add\n        /* \"#utility.yul\":2743:2796   */\n      tag_186\n      jump\t// in\n    tag_275:\n        /* \"#utility.yul\":2733:2796   */\n      swap2\n      pop\n        /* \"#utility.yul\":2688:2806   */\n      pop\n        /* \"#utility.yul\":2339:2813   */\n      swap3\n      pop\n      swap3\n      swap1\n      pop\n      jump\t// out\n        /* \"#utility.yul\":2819:3041   */\n    tag_38:\n        /* \"#utility.yul\":2912:2916   */\n      0x00\n        /* \"#utility.yul\":2950:2952   */\n      0x20\n        /* \"#utility.yul\":2939:2948   */\n      dup3\n        /* \"#utility.yul\":2935:2953   */\n      add\n        /* \"#utility.yul\":2927:2953   */\n      swap1\n      pop\n        /* \"#utility.yul\":2963:3034   */\n      tag_277\n        /* \"#utility.yul\":3031:3032   */\n      0x00\n        /* \"#utility.yul\":3020:3029   */\n      dup4\n        /* \"#utility.yul\":3016:3033   */\n      add\n        /* \"#utility.yul\":3007:3013   */\n      dup5\n        /* \"#utility.yul\":2963:3034   */\n      tag_184\n      jump\t// in\n    tag_277:\n        /* \"#utility.yul\":2819:3041   */\n      swap3\n      swap2\n      pop\n      pop\n      jump\t// out\n        /* \"#utility.yul\":3047:3164   */\n    tag_187:\n        /* \"#utility.yul\":3156:3157   */\n      0x00\n        /* \"#utility.yul\":3153:3154   */\n      dup1\n        /* \"#utility.yul\":3146:3158   */\n      revert\n        /* \"#utility.yul\":3170:3287   */\n    tag_188:\n        /* \"#utility.yul\":3279:3280   */\n      0x00\n        /* \"#utility.yul\":3276:3277   */\n      dup1\n        /* \"#utility.yul\":3269:3281   */\n      revert\n        /* \"#utility.yul\":3293:3395   */\n    tag_189:\n        /* \"#utility.yul\":3334:3340   */\n      0x00\n        /* \"#utility.yul\":3385:3387   */\n      0x1f\n        /* \"#utility.yul\":3381:3388   */\n      not\n        /* \"#utility.yul\":3376:3378   */\n      0x1f\n        /* \"#utility.yul\":3369:3374   */\n      dup4\n        /* \"#utility.yul\":3365:3379   */\n      add\n        /* \"#utility.yul\":3361:3389   */\n      and\n        /* \"#utility.yul\":3351:3389   */\n      swap1\n      pop\n        /* \"#utility.yul\":3293:3395   */\n      swap2\n      swap1\n      pop\n      jump\t// out\n        /* \"#utility.yul\":3401:3581   */\n    tag_190:\n        /* \"#utility.yul\":3449:3526   */\n      0x4e487b7100000000000000000000000000000000000000000000000000000000\n        /* \"#utility.yul\":3446:3447   */\n      0x00\n        /* \"#utility.yul\":3439:3527   */\n      mstore\n        /* \"#utility.yul\":3546:3550   */\n      0x41\n        /* \"#utility.yul\":3543:3544   */\n      0x04\n        /* \"#utility.yul\":3536:3551   */\n      mstore\n        /* \"#utility.yul\":3570:3574   */\n      0x24\n        /* \"#utility.yul\":3567:3568   */\n      0x00\n        /* \"#utility.yul\":3560:3575   */\n      revert\n        /* \"#utility.yul\":3587:3868   */\n    tag_191:\n        /* \"#utility.yul\":3670:3697   */\n      tag_283\n        /* \"#utility.yul\":3692:3696   */\n      dup3\n        /* \"#utility.yul\":3670:3697   */\n      tag_189\n      jump\t// in\n    tag_283:\n        /* \"#utility.yul\":3662:3668   */\n      dup2\n        /* \"#utility.yul\":3658:3698   */\n      add\n        /* \"#utility.yul\":3800:3806   */\n      dup2\n        /* \"#utility.yul\":3788:3798   */\n      dup2\n        /* \"#utility.yul\":3785:3807   */\n      lt\n        /* \"#utility.yul\":3764:3782   */\n      0xffffffffffffffff\n        /* \"#utility.yul\":3752:3762   */\n      dup3\n        /* \"#utility.yul\":3749:3783   */\n      gt\n        /* \"#utility.yul\":3746:3808   */\n      or\n        /* \"#utility.yul\":3743:3831   */\n      iszero\n      tag_284\n      jumpi\n        /* \"#utility.yul\":3811:3829   */\n      tag_285\n      tag_190\n      jump\t// in\n    tag_285:\n        /* \"#utility.yul\":3743:3831   */\n    tag_284:\n        /* \"#utility.yul\":3851:3861   */\n      dup1\n        /* \"#utility.yul\":3847:3849   */\n      0x40\n        /* \"#utility.yul\":3840:3862   */\n      mstore\n        /* \"#utility.yul\":3630:3868   */\n      pop\n        /* \"#utility.yul\":3587:3868   */\n      pop\n      pop\n      jump\t// out\n        /* \"#utility.yul\":3874:4003   */\n    tag_192:\n        /* \"#utility.yul\":3908:3914   */\n      0x00\n        /* \"#utility.yul\":3935:3955   */\n      tag_287\n      tag_175\n      jump\t// in\n    tag_287:\n        /* \"#utility.yul\":3925:3955   */\n      swap1\n      pop\n        /* \"#utility.yul\":3964:3997   */\n      tag_288\n        /* \"#utility.yul\":3992:3996   */\n      dup3\n        /* \"#utility.yul\":3984:3990   */\n      dup3\n        /* \"#utility.yul\":3964:3997   */\n      tag_191\n      jump\t// in\n    tag_288:\n        /* \"#utility.yul\":3874:4003   */\n      swap2\n      swap1\n      pop\n      jump\t// out\n        /* \"#utility.yul\":4009:4317   */\n    tag_193:\n        /* \"#utility.yul\":4071:4075   */\n      0x00\n        /* \"#utility.yul\":4161:4179   */\n      0xffffffffffffffff\n        /* \"#utility.yul\":4153:4159   */\n      dup3\n        /* \"#utility.yul\":4150:4180   */\n      gt\n        /* \"#utility.yul\":4147:4203   */\n      iszero\n      tag_290\n      jumpi\n        /* \"#utility.yul\":4183:4201   */\n      tag_291\n      tag_190\n      jump\t// in\n    tag_291:\n        /* \"#utility.yul\":4147:4203   */\n    tag_290:\n        /* \"#utility.yul\":4221:4250   */\n      tag_292\n        /* \"#utility.yul\":4243:4249   */\n      dup3\n        /* \"#utility.yul\":4221:4250   */\n      tag_189\n      jump\t// in\n    tag_292:\n        /* \"#utility.yul\":4213:4250   */\n      swap1\n      pop\n        /* \"#utility.yul\":4305:4309   */\n      0x20\n        /* \"#utility.yul\":4299:4303   */\n      dup2\n        /* \"#utility.yul\":4295:4310   */\n      add\n        /* \"#utility.yul\":4287:4310   */\n      swap1\n      pop\n        /* \"#utility.yul\":4009:4317   */\n      swap2\n      swap1\n      pop\n      jump\t// out\n        /* \"#utility.yul\":4323:4469   */\n    tag_194:\n        /* \"#utility.yul\":4420:4426   */\n      dup3\n        /* \"#utility.yul\":4415:4418   */\n      dup2\n        /* \"#utility.yul\":4410:4413   */\n      dup4\n        /* \"#utility.yul\":4397:4427   */\n      calldatacopy\n        /* \"#utility.yul\":4461:4462   */\n      0x00\n        /* \"#utility.yul\":4452:4458   */\n      dup4\n        /* \"#utility.yul\":4447:4450   */\n      dup4\n        /* \"#utility.yul\":4443:4459   */\n      add\n        /* \"#utility.yul\":4436:4463   */\n      mstore\n        /* \"#utility.yul\":4323:4469   */\n      pop\n      pop\n      pop\n      jump\t// out\n        /* \"#utility.yul\":4475:4900   */\n    tag_195:\n        /* \"#utility.yul\":4553:4558   */\n      0x00\n        /* \"#utility.yul\":4578:4644   */\n      tag_295\n        /* \"#utility.yul\":4594:4643   */\n      tag_296\n        /* \"#utility.yul\":4636:4642   */\n      dup5\n        /* \"#utility.yul\":4594:4643   */\n      tag_193\n      jump\t// in\n    tag_296:\n        /* \"#utility.yul\":4578:4644   */\n      tag_192\n      jump\t// in\n    tag_295:\n        /* \"#utility.yul\":4569:4644   */\n      swap1\n      pop\n        /* \"#utility.yul\":4667:4673   */\n      dup3\n        /* \"#utility.yul\":4660:4665   */\n      dup2\n        /* \"#utility.yul\":4653:4674   */\n      mstore\n        /* \"#utility.yul\":4705:4709   */\n      0x20\n        /* \"#utility.yul\":4698:4703   */\n      dup2\n        /* \"#utility.yul\":4694:4710   */\n      add\n        /* \"#utility.yul\":4743:4746   */\n      dup5\n        /* \"#utility.yul\":4734:4740   */\n      dup5\n        /* \"#utility.yul\":4729:4732   */\n      dup5\n        /* \"#utility.yul\":4725:4741   */\n      add\n        /* \"#utility.yul\":4722:4747   */\n      gt\n        /* \"#utility.yul\":4719:4831   */\n      iszero\n      tag_297\n      jumpi\n        /* \"#utility.yul\":4750:4829   */\n      tag_298\n      tag_188\n      jump\t// in\n    tag_298:\n        /* \"#utility.yul\":4719:4831   */\n    tag_297:\n        /* \"#utility.yul\":4840:4894   */\n      tag_299\n        /* \"#utility.yul\":4887:4893   */\n      dup5\n        /* \"#utility.yul\":4882:4885   */\n      dup3\n        /* \"#utility.yul\":4877:4880   */\n      dup6\n        /* \"#utility.yul\":4840:4894   */\n      tag_194\n      jump\t// in\n    tag_299:\n        /* \"#utility.yul\":4559:4900   */\n      pop\n        /* \"#utility.yul\":4475:4900   */\n      swap4\n      swap3\n      pop\n      pop\n      pop\n      jump\t// out\n        /* \"#utility.yul\":4920:5260   */\n    tag_196:\n        /* \"#utility.yul\":4976:4981   */\n      0x00\n        /* \"#utility.yul\":5025:5028   */\n      dup3\n        /* \"#utility.yul\":5018:5022   */\n      0x1f\n        /* \"#utility.yul\":5010:5016   */\n      dup4\n        /* \"#utility.yul\":5006:5023   */\n      add\n        /* \"#utility.yul\":5002:5029   */\n      slt\n        /* \"#utility.yul\":4992:5114   */\n      tag_301\n      jumpi\n        /* \"#utility.yul\":5033:5112   */\n      tag_302\n      tag_187\n      jump\t// in\n    tag_302:\n        /* \"#utility.yul\":4992:5114   */\n    tag_301:\n        /* \"#utility.yul\":5150:5156   */\n      dup2\n        /* \"#utility.yul\":5137:5157   */\n      calldataload\n        /* \"#utility.yul\":5175:5254   */\n      tag_303\n        /* \"#utility.yul\":5250:5253   */\n      dup5\n        /* \"#utility.yul\":5242:5248   */\n      dup3\n        /* \"#utility.yul\":5235:5239   */\n      0x20\n        /* \"#utility.yul\":5227:5233   */\n      dup7\n        /* \"#utility.yul\":5223:5240   */\n      add\n        /* \"#utility.yul\":5175:5254   */\n      tag_195\n      jump\t// in\n    tag_303:\n        /* \"#utility.yul\":5166:5254   */\n      swap2\n      pop\n        /* \"#utility.yul\":4982:5260   */\n      pop\n        /* \"#utility.yul\":4920:5260   */\n      swap3\n      swap2\n      pop\n      pop\n      jump\t// out\n        /* \"#utility.yul\":5266:6100   */\n    tag_41:\n        /* \"#utility.yul\":5354:5360   */\n      0x00\n        /* \"#utility.yul\":5362:5368   */\n      dup1\n        /* \"#utility.yul\":5411:5413   */\n      0x40\n        /* \"#utility.yul\":5399:5408   */\n      dup4\n        /* \"#utility.yul\":5390:5397   */\n      dup6\n        /* \"#utility.yul\":5386:5409   */\n      sub\n        /* \"#utility.yul\":5382:5414   */\n      slt\n        /* \"#utility.yul\":5379:5498   */\n      iszero\n      tag_305\n      jumpi\n        /* \"#utility.yul\":5417:5496   */\n      tag_306\n      tag_176\n      jump\t// in\n    tag_306:\n        /* \"#utility.yul\":5379:5498   */\n    tag_305:\n        /* \"#utility.yul\":5565:5566   */\n      0x00\n        /* \"#utility.yul\":5554:5563   */\n      dup4\n        /* \"#utility.yul\":5550:5567   */\n      add\n        /* \"#utility.yul\":5537:5568   */\n      calldataload\n        /* \"#utility.yul\":5595:5613   */\n      0xffffffffffffffff\n        /* \"#utility.yul\":5587:5593   */\n      dup2\n        /* \"#utility.yul\":5584:5614   */\n      gt\n        /* \"#utility.yul\":5581:5698   */\n      iszero\n      tag_307\n      jumpi\n        /* \"#utility.yul\":5617:5696   */\n      tag_308\n      tag_177\n      jump\t// in\n    tag_308:\n        /* \"#utility.yul\":5581:5698   */\n    tag_307:\n        /* \"#utility.yul\":5722:5785   */\n      tag_309\n        /* \"#utility.yul\":5777:5784   */\n      dup6\n        /* \"#utility.yul\":5768:5774   */\n      dup3\n        /* \"#utility.yul\":5757:5766   */\n      dup7\n        /* \"#utility.yul\":5753:5775   */\n      add\n        /* \"#utility.yul\":5722:5785   */\n      tag_196\n      jump\t// in\n    tag_309:\n        /* \"#utility.yul\":5712:5785   */\n      swap3\n      pop\n        /* \"#utility.yul\":5508:5795   */\n      pop\n        /* \"#utility.yul\":5862:5864   */\n      0x20\n        /* \"#utility.yul\":5851:5860   */\n      dup4\n        /* \"#utility.yul\":5847:5865   */\n      add\n        /* \"#utility.yul\":5834:5866   */\n      calldataload\n        /* \"#utility.yul\":5893:5911   */\n      0xffffffffffffffff\n        /* \"#utility.yul\":5885:5891   */\n      dup2\n        /* \"#utility.yul\":5882:5912   */\n      gt\n        /* \"#utility.yul\":5879:5996   */\n      iszero\n      tag_310\n      jumpi\n        /* \"#utility.yul\":5915:5994   */\n      tag_311\n      tag_177\n      jump\t// in\n    tag_311:\n        /* \"#utility.yul\":5879:5996   */\n    tag_310:\n        /* \"#utility.yul\":6020:6083   */\n      tag_312\n        /* \"#utility.yul\":6075:6082   */\n      dup6\n        /* \"#utility.yul\":6066:6072   */\n      dup3\n        /* \"#utility.yul\":6055:6064   */\n      dup7\n        /* \"#utility.yul\":6051:6073   */\n      add\n        /* \"#utility.yul\":6020:6083   */\n      tag_196\n      jump\t// in\n    tag_312:\n        /* \"#utility.yul\":6010:6083   */\n      swap2\n      pop\n        /* \"#utility.yul\":5805:6093   */\n      pop\n        /* \"#utility.yul\":5266:6100   */\n      swap3\n      pop\n      swap3\n      swap1\n      pop\n      jump\t// out\n        /* \"#utility.yul\":6106:6196   */\n    tag_197:\n        /* \"#utility.yul\":6140:6147   */\n      0x00\n        /* \"#utility.yul\":6183:6188   */\n      dup2\n        /* \"#utility.yul\":6176:6189   */\n      iszero\n        /* \"#utility.yul\":6169:6190   */\n      iszero\n        /* \"#utility.yul\":6158:6190   */\n      swap1\n      pop\n        /* \"#utility.yul\":6106:6196   */\n      swap2\n      swap1\n      pop\n      jump\t// out\n        /* \"#utility.yul\":6202:6311   */\n    tag_198:\n        /* \"#utility.yul\":6283:6304   */\n      tag_315\n        /* \"#utility.yul\":6298:6303   */\n      dup2\n        /* \"#utility.yul\":6283:6304   */\n      tag_197\n      jump\t// in\n    tag_315:\n        /* \"#utility.yul\":6278:6281   */\n      dup3\n        /* \"#utility.yul\":6271:6305   */\n      mstore\n        /* \"#utility.yul\":6202:6311   */\n      pop\n      pop\n      jump\t// out\n        /* \"#utility.yul\":6317:6527   */\n    tag_49:\n        /* \"#utility.yul\":6404:6408   */\n      0x00\n        /* \"#utility.yul\":6442:6444   */\n      0x20\n        /* \"#utility.yul\":6431:6440   */\n      dup3\n        /* \"#utility.yul\":6427:6445   */\n      add\n        /* \"#utility.yul\":6419:6445   */\n      swap1\n      pop\n        /* \"#utility.yul\":6455:6520   */\n      tag_317\n        /* \"#utility.yul\":6517:6518   */\n      0x00\n        /* \"#utility.yul\":6506:6515   */\n      dup4\n        /* \"#utility.yul\":6502:6519   */\n      add\n        /* \"#utility.yul\":6493:6499   */\n      dup5\n        /* \"#utility.yul\":6455:6520   */\n      tag_198\n      jump\t// in\n    tag_317:\n        /* \"#utility.yul\":6317:6527   */\n      swap3\n      swap2\n      pop\n      pop\n      jump\t// out\n        /* \"#utility.yul\":6533:6632   */\n    tag_199:\n        /* \"#utility.yul\":6585:6591   */\n      0x00\n        /* \"#utility.yul\":6619:6624   */\n      dup2\n        /* \"#utility.yul\":6613:6625   */\n      mload\n        /* \"#utility.yul\":6603:6625   */\n      swap1\n      pop\n        /* \"#utility.yul\":6533:6632   */\n      swap2\n      swap1\n      pop\n      jump\t// out\n        /* \"#utility.yul\":6638:6807   */\n    tag_200:\n        /* \"#utility.yul\":6722:6733   */\n      0x00\n        /* \"#utility.yul\":6756:6762   */\n      dup3\n        /* \"#utility.yul\":6751:6754   */\n      dup3\n        /* \"#utility.yul\":6744:6763   */\n      mstore\n        /* \"#utility.yul\":6796:6800   */\n      0x20\n        /* \"#utility.yul\":6791:6794   */\n      dup3\n        /* \"#utility.yul\":6787:6801   */\n      add\n        /* \"#utility.yul\":6772:6801   */\n      swap1\n      pop\n        /* \"#utility.yul\":6638:6807   */\n      swap3\n      swap2\n      pop\n      pop\n      jump\t// out\n        /* \"#utility.yul\":6813:7059   */\n    tag_201:\n        /* \"#utility.yul\":6894:6895   */\n      0x00\n        /* \"#utility.yul\":6904:7017   */\n    tag_321:\n        /* \"#utility.yul\":6918:6924   */\n      dup4\n        /* \"#utility.yul\":6915:6916   */\n      dup2\n        /* \"#utility.yul\":6912:6925   */\n      lt\n        /* \"#utility.yul\":6904:7017   */\n      iszero\n      tag_323\n      jumpi\n        /* \"#utility.yul\":7003:7004   */\n      dup1\n        /* \"#utility.yul\":6998:7001   */\n      dup3\n        /* \"#utility.yul\":6994:7005   */\n      add\n        /* \"#utility.yul\":6988:7006   */\n      mload\n        /* \"#utility.yul\":6984:6985   */\n      dup2\n        /* \"#utility.yul\":6979:6982   */\n      dup5\n        /* \"#utility.yul\":6975:6986   */\n      add\n        /* \"#utility.yul\":6968:7007   */\n      mstore\n        /* \"#utility.yul\":6940:6942   */\n      0x20\n        /* \"#utility.yul\":6937:6938   */\n      dup2\n        /* \"#utility.yul\":6933:6943   */\n      add\n        /* \"#utility.yul\":6928:6943   */\n      swap1\n      pop\n        /* \"#utility.yul\":6904:7017   */\n      jump(tag_321)\n    tag_323:\n        /* \"#utility.yul\":7051:7052   */\n      0x00\n        /* \"#utility.yul\":7042:7048   */\n      dup5\n        /* \"#utility.yul\":7037:7040   */\n      dup5\n        /* \"#utility.yul\":7033:7049   */\n      add\n        /* \"#utility.yul\":7026:7053   */\n      mstore\n        /* \"#utility.yul\":6875:7059   */\n      pop\n        /* \"#utility.yul\":6813:7059   */\n      pop\n      pop\n      pop\n      jump\t// out\n        /* \"#utility.yul\":7065:7442   */\n    tag_202:\n        /* \"#utility.yul\":7153:7156   */\n      0x00\n        /* \"#utility.yul\":7181:7220   */\n      tag_325\n        /* \"#utility.yul\":7214:7219   */\n      dup3\n        /* \"#utility.yul\":7181:7220   */\n      tag_199\n      jump\t// in\n    tag_325:\n        /* \"#utility.yul\":7236:7307   */\n      tag_326\n        /* \"#utility.yul\":7300:7306   */\n      dup2\n        /* \"#utility.yul\":7295:7298   */\n      dup6\n        /* \"#utility.yul\":7236:7307   */\n      tag_200\n      jump\t// in\n    tag_326:\n        /* \"#utility.yul\":7229:7307   */\n      swap4\n      pop\n        /* \"#utility.yul\":7316:7381   */\n      tag_327\n        /* \"#utility.yul\":7374:7380   */\n      dup2\n        /* \"#utility.yul\":7369:7372   */\n      dup6\n        /* \"#utility.yul\":7362:7366   */\n      0x20\n        /* \"#utility.yul\":7355:7360   */\n      dup7\n        /* \"#utility.yul\":7351:7367   */\n      add\n        /* \"#utility.yul\":7316:7381   */\n      tag_201\n      jump\t// in\n    tag_327:\n        /* \"#utility.yul\":7406:7435   */\n      tag_328\n        /* \"#utility.yul\":7428:7434   */\n      dup2\n        /* \"#utility.yul\":7406:7435   */\n      tag_189\n      jump\t// in\n    tag_328:\n        /* \"#utility.yul\":7401:7404   */\n      dup5\n        /* \"#utility.yul\":7397:7436   */\n      add\n        /* \"#utility.yul\":7390:7436   */\n      swap2\n      pop\n        /* \"#utility.yul\":7157:7442   */\n      pop\n        /* \"#utility.yul\":7065:7442   */\n      swap3\n      swap2\n      pop\n      pop\n      jump\t// out\n        /* \"#utility.yul\":7448:7761   */\n    tag_53:\n        /* \"#utility.yul\":7561:7565   */\n      0x00\n        /* \"#utility.yul\":7599:7601   */\n      0x20\n        /* \"#utility.yul\":7588:7597   */\n      dup3\n        /* \"#utility.yul\":7584:7602   */\n      add\n        /* \"#utility.yul\":7576:7602   */\n      swap1\n      pop\n        /* \"#utility.yul\":7648:7657   */\n      dup2\n        /* \"#utility.yul\":7642:7646   */\n      dup2\n        /* \"#utility.yul\":7638:7658   */\n      sub\n        /* \"#utility.yul\":7634:7635   */\n      0x00\n        /* \"#utility.yul\":7623:7632   */\n      dup4\n        /* \"#utility.yul\":7619:7636   */\n      add\n        /* \"#utility.yul\":7612:7659   */\n      mstore\n        /* \"#utility.yul\":7676:7754   */\n      tag_330\n        /* \"#utility.yul\":7749:7753   */\n      dup2\n        /* \"#utility.yul\":7740:7746   */\n      dup5\n        /* \"#utility.yul\":7676:7754   */\n      tag_202\n      jump\t// in\n    tag_330:\n        /* \"#utility.yul\":7668:7754   */\n      swap1\n      pop\n        /* \"#utility.yul\":7448:7761   */\n      swap3\n      swap2\n      pop\n      pop\n      jump\t// out\n        /* \"#utility.yul\":7767:7910   */\n    tag_203:\n        /* \"#utility.yul\":7863:7869   */\n      0x00\n        /* \"#utility.yul\":7897:7902   */\n      dup2\n        /* \"#utility.yul\":7891:7903   */\n      mload\n        /* \"#utility.yul\":7881:7903   */\n      swap1\n      pop\n        /* \"#utility.yul\":7767:7910   */\n      swap2\n      swap1\n      pop\n      jump\t// out\n        /* \"#utility.yul\":7916:8129   */\n    tag_204:\n        /* \"#utility.yul\":8044:8055   */\n      0x00\n        /* \"#utility.yul\":8078:8084   */\n      dup3\n        /* \"#utility.yul\":8073:8076   */\n      dup3\n        /* \"#utility.yul\":8066:8085   */\n      mstore\n        /* \"#utility.yul\":8118:8122   */\n      0x20\n        /* \"#utility.yul\":8113:8116   */\n      dup3\n        /* \"#utility.yul\":8109:8123   */\n      add\n        /* \"#utility.yul\":8094:8123   */\n      swap1\n      pop\n        /* \"#utility.yul\":7916:8129   */\n      swap3\n      swap2\n      pop\n      pop\n      jump\t// out\n        /* \"#utility.yul\":8135:8296   */\n    tag_205:\n        /* \"#utility.yul\":8231:8235   */\n      0x00\n        /* \"#utility.yul\":8254:8257   */\n      dup2\n        /* \"#utility.yul\":8246:8257   */\n      swap1\n      pop\n        /* \"#utility.yul\":8284:8288   */\n      0x20\n        /* \"#utility.yul\":8279:8282   */\n      dup3\n        /* \"#utility.yul\":8275:8289   */\n      add\n        /* \"#utility.yul\":8267:8289   */\n      swap1\n      pop\n        /* \"#utility.yul\":8135:8296   */\n      swap2\n      swap1\n      pop\n      jump\t// out\n        /* \"#utility.yul\":8302:8410   */\n    tag_206:\n        /* \"#utility.yul\":8379:8403   */\n      tag_335\n        /* \"#utility.yul\":8397:8402   */\n      dup2\n        /* \"#utility.yul\":8379:8403   */\n      tag_182\n      jump\t// in\n    tag_335:\n        /* \"#utility.yul\":8374:8377   */\n      dup3\n        /* \"#utility.yul\":8367:8404   */\n      mstore\n        /* \"#utility.yul\":8302:8410   */\n      pop\n      pop\n      jump\t// out\n        /* \"#utility.yul\":8416:8524   */\n    tag_207:\n        /* \"#utility.yul\":8493:8517   */\n      tag_337\n        /* \"#utility.yul\":8511:8516   */\n      dup2\n        /* \"#utility.yul\":8493:8517   */\n      tag_178\n      jump\t// in\n    tag_337:\n        /* \"#utility.yul\":8488:8491   */\n      dup3\n        /* \"#utility.yul\":8481:8518   */\n      mstore\n        /* \"#utility.yul\":8416:8524   */\n      pop\n      pop\n      jump\t// out\n        /* \"#utility.yul\":8604:9478   */\n    tag_208:\n        /* \"#utility.yul\":8749:8753   */\n      0x80\n        /* \"#utility.yul\":8744:8747   */\n      dup3\n        /* \"#utility.yul\":8740:8754   */\n      add\n        /* \"#utility.yul\":8844:8848   */\n      0x00\n        /* \"#utility.yul\":8837:8842   */\n      dup3\n        /* \"#utility.yul\":8833:8849   */\n      add\n        /* \"#utility.yul\":8827:8850   */\n      mload\n        /* \"#utility.yul\":8863:8926   */\n      tag_339\n        /* \"#utility.yul\":8920:8924   */\n      0x00\n        /* \"#utility.yul\":8915:8918   */\n      dup6\n        /* \"#utility.yul\":8911:8925   */\n      add\n        /* \"#utility.yul\":8897:8909   */\n      dup3\n        /* \"#utility.yul\":8863:8926   */\n      tag_206\n      jump\t// in\n    tag_339:\n        /* \"#utility.yul\":8764:8936   */\n      pop\n        /* \"#utility.yul\":9024:9028   */\n      0x20\n        /* \"#utility.yul\":9017:9022   */\n      dup3\n        /* \"#utility.yul\":9013:9029   */\n      add\n        /* \"#utility.yul\":9007:9030   */\n      mload\n        /* \"#utility.yul\":9043:9106   */\n      tag_340\n        /* \"#utility.yul\":9100:9104   */\n      0x20\n        /* \"#utility.yul\":9095:9098   */\n      dup6\n        /* \"#utility.yul\":9091:9105   */\n      add\n        /* \"#utility.yul\":9077:9089   */\n      dup3\n        /* \"#utility.yul\":9043:9106   */\n      tag_206\n      jump\t// in\n    tag_340:\n        /* \"#utility.yul\":8946:9116   */\n      pop\n        /* \"#utility.yul\":9200:9204   */\n      0x40\n        /* \"#utility.yul\":9193:9198   */\n      dup3\n        /* \"#utility.yul\":9189:9205   */\n      add\n        /* \"#utility.yul\":9183:9206   */\n      mload\n        /* \"#utility.yul\":9219:9282   */\n      tag_341\n        /* \"#utility.yul\":9276:9280   */\n      0x40\n        /* \"#utility.yul\":9271:9274   */\n      dup6\n        /* \"#utility.yul\":9267:9281   */\n      add\n        /* \"#utility.yul\":9253:9265   */\n      dup3\n        /* \"#utility.yul\":9219:9282   */\n      tag_207\n      jump\t// in\n    tag_341:\n        /* \"#utility.yul\":9126:9292   */\n      pop\n        /* \"#utility.yul\":9379:9383   */\n      0x60\n        /* \"#utility.yul\":9372:9377   */\n      dup3\n        /* \"#utility.yul\":9368:9384   */\n      add\n        /* \"#utility.yul\":9362:9385   */\n      mload\n        /* \"#utility.yul\":9398:9461   */\n      tag_342\n        /* \"#utility.yul\":9455:9459   */\n      0x60\n        /* \"#utility.yul\":9450:9453   */\n      dup6\n        /* \"#utility.yul\":9446:9460   */\n      add\n        /* \"#utility.yul\":9432:9444   */\n      dup3\n        /* \"#utility.yul\":9398:9461   */\n      tag_207\n      jump\t// in\n    tag_342:\n        /* \"#utility.yul\":9302:9471   */\n      pop\n        /* \"#utility.yul\":8718:9478   */\n      pop\n        /* \"#utility.yul\":8604:9478   */\n      pop\n      pop\n      jump\t// out\n        /* \"#utility.yul\":9484:9779   */\n    tag_209:\n        /* \"#utility.yul\":9611:9621   */\n      0x00\n        /* \"#utility.yul\":9632:9736   */\n      tag_344\n        /* \"#utility.yul\":9732:9735   */\n      dup4\n        /* \"#utility.yul\":9724:9730   */\n      dup4\n        /* \"#utility.yul\":9632:9736   */\n      tag_208\n      jump\t// in\n    tag_344:\n        /* \"#utility.yul\":9768:9772   */\n      0x80\n        /* \"#utility.yul\":9763:9766   */\n      dup4\n        /* \"#utility.yul\":9759:9773   */\n      add\n        /* \"#utility.yul\":9745:9773   */\n      swap1\n      pop\n        /* \"#utility.yul\":9484:9779   */\n      swap3\n      swap2\n      pop\n      pop\n      jump\t// out\n        /* \"#utility.yul\":9785:9927   */\n    tag_210:\n        /* \"#utility.yul\":9884:9888   */\n      0x00\n        /* \"#utility.yul\":9916:9920   */\n      0x20\n        /* \"#utility.yul\":9911:9914   */\n      dup3\n        /* \"#utility.yul\":9907:9921   */\n      add\n        /* \"#utility.yul\":9899:9921   */\n      swap1\n      pop\n        /* \"#utility.yul\":9785:9927   */\n      swap2\n      swap1\n      pop\n      jump\t// out\n        /* \"#utility.yul\":10011:10975   */\n    tag_211:\n        /* \"#utility.yul\":10188:10191   */\n      0x00\n        /* \"#utility.yul\":10217:10300   */\n      tag_347\n        /* \"#utility.yul\":10294:10299   */\n      dup3\n        /* \"#utility.yul\":10217:10300   */\n      tag_203\n      jump\t// in\n    tag_347:\n        /* \"#utility.yul\":10316:10431   */\n      tag_348\n        /* \"#utility.yul\":10424:10430   */\n      dup2\n        /* \"#utility.yul\":10419:10422   */\n      dup6\n        /* \"#utility.yul\":10316:10431   */\n      tag_204\n      jump\t// in\n    tag_348:\n        /* \"#utility.yul\":10309:10431   */\n      swap4\n      pop\n        /* \"#utility.yul\":10455:10540   */\n      tag_349\n        /* \"#utility.yul\":10534:10539   */\n      dup4\n        /* \"#utility.yul\":10455:10540   */\n      tag_205\n      jump\t// in\n    tag_349:\n        /* \"#utility.yul\":10563:10570   */\n      dup1\n        /* \"#utility.yul\":10594:10595   */\n      0x00\n        /* \"#utility.yul\":10579:10950   */\n    tag_350:\n        /* \"#utility.yul\":10604:10610   */\n      dup4\n        /* \"#utility.yul\":10601:10602   */\n      dup2\n        /* \"#utility.yul\":10598:10611   */\n      lt\n        /* \"#utility.yul\":10579:10950   */\n      iszero\n      tag_352\n      jumpi\n        /* \"#utility.yul\":10680:10686   */\n      dup2\n        /* \"#utility.yul\":10674:10687   */\n      mload\n        /* \"#utility.yul\":10707:10828   */\n      tag_353\n        /* \"#utility.yul\":10824:10827   */\n      dup9\n        /* \"#utility.yul\":10809:10822   */\n      dup3\n        /* \"#utility.yul\":10707:10828   */\n      tag_209\n      jump\t// in\n    tag_353:\n        /* \"#utility.yul\":10700:10828   */\n      swap8\n      pop\n        /* \"#utility.yul\":10851:10940   */\n      tag_354\n        /* \"#utility.yul\":10933:10939   */\n      dup4\n        /* \"#utility.yul\":10851:10940   */\n      tag_210\n      jump\t// in\n    tag_354:\n        /* \"#utility.yul\":10841:10940   */\n      swap3\n      pop\n        /* \"#utility.yul\":10639:10950   */\n      pop\n        /* \"#utility.yul\":10626:10627   */\n      0x01\n        /* \"#utility.yul\":10623:10624   */\n      dup2\n        /* \"#utility.yul\":10619:10628   */\n      add\n        /* \"#utility.yul\":10614:10628   */\n      swap1\n      pop\n        /* \"#utility.yul\":10579:10950   */\n      jump(tag_350)\n    tag_352:\n        /* \"#utility.yul\":10583:10597   */\n      pop\n        /* \"#utility.yul\":10966:10969   */\n      dup6\n        /* \"#utility.yul\":10959:10969   */\n      swap4\n      pop\n        /* \"#utility.yul\":10193:10975   */\n      pop\n      pop\n      pop\n        /* \"#utility.yul\":10011:10975   */\n      swap3\n      swap2\n      pop\n      pop\n      jump\t// out\n        /* \"#utility.yul\":10981:11470   */\n    tag_73:\n        /* \"#utility.yul\":11182:11186   */\n      0x00\n        /* \"#utility.yul\":11220:11222   */\n      0x20\n        /* \"#utility.yul\":11209:11218   */\n      dup3\n        /* \"#utility.yul\":11205:11223   */\n      add\n        /* \"#utility.yul\":11197:11223   */\n      swap1\n      pop\n        /* \"#utility.yul\":11269:11278   */\n      dup2\n        /* \"#utility.yul\":11263:11267   */\n      dup2\n        /* \"#utility.yul\":11259:11279   */\n      sub\n        /* \"#utility.yul\":11255:11256   */\n      0x00\n        /* \"#utility.yul\":11244:11253   */\n      dup4\n        /* \"#utility.yul\":11240:11257   */\n      add\n        /* \"#utility.yul\":11233:11280   */\n      mstore\n        /* \"#utility.yul\":11297:11463   */\n      tag_356\n        /* \"#utility.yul\":11458:11462   */\n      dup2\n        /* \"#utility.yul\":11449:11455   */\n      dup5\n        /* \"#utility.yul\":11297:11463   */\n      tag_211\n      jump\t// in\n    tag_356:\n        /* \"#utility.yul\":11289:11463   */\n      swap1\n      pop\n        /* \"#utility.yul\":10981:11470   */\n      swap3\n      swap2\n      pop\n      pop\n      jump\t// out\n        /* \"#utility.yul\":11550:12434   */\n    tag_212:\n        /* \"#utility.yul\":11705:11709   */\n      0x80\n        /* \"#utility.yul\":11700:11703   */\n      dup3\n        /* \"#utility.yul\":11696:11710   */\n      add\n        /* \"#utility.yul\":11800:11804   */\n      0x00\n        /* \"#utility.yul\":11793:11798   */\n      dup3\n        /* \"#utility.yul\":11789:11805   */\n      add\n        /* \"#utility.yul\":11783:11806   */\n      mload\n        /* \"#utility.yul\":11819:11882   */\n      tag_358\n        /* \"#utility.yul\":11876:11880   */\n      0x00\n        /* \"#utility.yul\":11871:11874   */\n      dup6\n        /* \"#utility.yul\":11867:11881   */\n      add\n        /* \"#utility.yul\":11853:11865   */\n      dup3\n        /* \"#utility.yul\":11819:11882   */\n      tag_206\n      jump\t// in\n    tag_358:\n        /* \"#utility.yul\":11720:11892   */\n      pop\n        /* \"#utility.yul\":11980:11984   */\n      0x20\n        /* \"#utility.yul\":11973:11978   */\n      dup3\n        /* \"#utility.yul\":11969:11985   */\n      add\n        /* \"#utility.yul\":11963:11986   */\n      mload\n        /* \"#utility.yul\":11999:12062   */\n      tag_359\n        /* \"#utility.yul\":12056:12060   */\n      0x20\n        /* \"#utility.yul\":12051:12054   */\n      dup6\n        /* \"#utility.yul\":12047:12061   */\n      add\n        /* \"#utility.yul\":12033:12045   */\n      dup3\n        /* \"#utility.yul\":11999:12062   */\n      tag_206\n      jump\t// in\n    tag_359:\n        /* \"#utility.yul\":11902:12072   */\n      pop\n        /* \"#utility.yul\":12156:12160   */\n      0x40\n        /* \"#utility.yul\":12149:12154   */\n      dup3\n        /* \"#utility.yul\":12145:12161   */\n      add\n        /* \"#utility.yul\":12139:12162   */\n      mload\n        /* \"#utility.yul\":12175:12238   */\n      tag_360\n        /* \"#utility.yul\":12232:12236   */\n      0x40\n        /* \"#utility.yul\":12227:12230   */\n      dup6\n        /* \"#utility.yul\":12223:12237   */\n      add\n        /* \"#utility.yul\":12209:12221   */\n      dup3\n        /* \"#utility.yul\":12175:12238   */\n      tag_207\n      jump\t// in\n    tag_360:\n        /* \"#utility.yul\":12082:12248   */\n      pop\n        /* \"#utility.yul\":12335:12339   */\n      0x60\n        /* \"#utility.yul\":12328:12333   */\n      dup3\n        /* \"#utility.yul\":12324:12340   */\n      add\n        /* \"#utility.yul\":12318:12341   */\n      mload\n        /* \"#utility.yul\":12354:12417   */\n      tag_361\n        /* \"#utility.yul\":12411:12415   */\n      0x60\n        /* \"#utility.yul\":12406:12409   */\n      dup6\n        /* \"#utility.yul\":12402:12416   */\n      add\n        /* \"#utility.yul\":12388:12400   */\n      dup3\n        /* \"#utility.yul\":12354:12417   */\n      tag_207\n      jump\t// in\n    tag_361:\n        /* \"#utility.yul\":12258:12427   */\n      pop\n        /* \"#utility.yul\":11674:12434   */\n      pop\n        /* \"#utility.yul\":11550:12434   */\n      pop\n      pop\n      jump\t// out\n        /* \"#utility.yul\":12440:12779   */\n    tag_89:\n        /* \"#utility.yul\":12591:12595   */\n      0x00\n        /* \"#utility.yul\":12629:12632   */\n      0x80\n        /* \"#utility.yul\":12618:12627   */\n      dup3\n        /* \"#utility.yul\":12614:12633   */\n      add\n        /* \"#utility.yul\":12606:12633   */\n      swap1\n      pop\n        /* \"#utility.yul\":12643:12772   */\n      tag_363\n        /* \"#utility.yul\":12769:12770   */\n      0x00\n        /* \"#utility.yul\":12758:12767   */\n      dup4\n        /* \"#utility.yul\":12754:12771   */\n      add\n        /* \"#utility.yul\":12745:12751   */\n      dup5\n        /* \"#utility.yul\":12643:12772   */\n      tag_212\n      jump\t// in\n    tag_363:\n        /* \"#utility.yul\":12440:12779   */\n      swap3\n      swap2\n      pop\n      pop\n      jump\t// out\n        /* \"#utility.yul\":12785:12963   */\n    tag_213:\n        /* \"#utility.yul\":12925:12955   */\n      0x2054686973206164647265737320646f65736e27742065786973747300000000\n        /* \"#utility.yul\":12921:12922   */\n      0x00\n        /* \"#utility.yul\":12913:12919   */\n      dup3\n        /* \"#utility.yul\":12909:12923   */\n      add\n        /* \"#utility.yul\":12902:12956   */\n      mstore\n        /* \"#utility.yul\":12785:12963   */\n      pop\n      jump\t// out\n        /* \"#utility.yul\":12969:13335   */\n    tag_214:\n        /* \"#utility.yul\":13111:13114   */\n      0x00\n        /* \"#utility.yul\":13132:13199   */\n      tag_366\n        /* \"#utility.yul\":13196:13198   */\n      0x1c\n        /* \"#utility.yul\":13191:13194   */\n      dup4\n        /* \"#utility.yul\":13132:13199   */\n      tag_200\n      jump\t// in\n    tag_366:\n        /* \"#utility.yul\":13125:13199   */\n      swap2\n      pop\n        /* \"#utility.yul\":13208:13301   */\n      tag_367\n        /* \"#utility.yul\":13297:13300   */\n      dup3\n        /* \"#utility.yul\":13208:13301   */\n      tag_213\n      jump\t// in\n    tag_367:\n        /* \"#utility.yul\":13326:13328   */\n      0x20\n        /* \"#utility.yul\":13321:13324   */\n      dup3\n        /* \"#utility.yul\":13317:13329   */\n      add\n        /* \"#utility.yul\":13310:13329   */\n      swap1\n      pop\n        /* \"#utility.yul\":12969:13335   */\n      swap2\n      swap1\n      pop\n      jump\t// out\n        /* \"#utility.yul\":13341:13760   */\n    tag_98:\n        /* \"#utility.yul\":13507:13511   */\n      0x00\n        /* \"#utility.yul\":13545:13547   */\n      0x20\n        /* \"#utility.yul\":13534:13543   */\n      dup3\n        /* \"#utility.yul\":13530:13548   */\n      add\n        /* \"#utility.yul\":13522:13548   */\n      swap1\n      pop\n        /* \"#utility.yul\":13594:13603   */\n      dup2\n        /* \"#utility.yul\":13588:13592   */\n      dup2\n        /* \"#utility.yul\":13584:13604   */\n      sub\n        /* \"#utility.yul\":13580:13581   */\n      0x00\n        /* \"#utility.yul\":13569:13578   */\n      dup4\n        /* \"#utility.yul\":13565:13582   */\n      add\n        /* \"#utility.yul\":13558:13605   */\n      mstore\n        /* \"#utility.yul\":13622:13753   */\n      tag_369\n        /* \"#utility.yul\":13748:13752   */\n      dup2\n        /* \"#utility.yul\":13622:13753   */\n      tag_214\n      jump\t// in\n    tag_369:\n        /* \"#utility.yul\":13614:13753   */\n      swap1\n      pop\n        /* \"#utility.yul\":13341:13760   */\n      swap2\n      swap1\n      pop\n      jump\t// out\n        /* \"#utility.yul\":13766:13939   */\n    tag_215:\n        /* \"#utility.yul\":13906:13931   */\n      0x506c6561736520696e7365727420796f75722063617264000000000000000000\n        /* \"#utility.yul\":13902:13903   */\n      0x00\n        /* \"#utility.yul\":13894:13900   */\n      dup3\n        /* \"#utility.yul\":13890:13904   */\n      add\n        /* \"#utility.yul\":13883:13932   */\n      mstore\n        /* \"#utility.yul\":13766:13939   */\n      pop\n      jump\t// out\n        /* \"#utility.yul\":13945:14311   */\n    tag_216:\n        /* \"#utility.yul\":14087:14090   */\n      0x00\n        /* \"#utility.yul\":14108:14175   */\n      tag_372\n        /* \"#utility.yul\":14172:14174   */\n      0x17\n        /* \"#utility.yul\":14167:14170   */\n      dup4\n        /* \"#utility.yul\":14108:14175   */\n      tag_200\n      jump\t// in\n    tag_372:\n        /* \"#utility.yul\":14101:14175   */\n      swap2\n      pop\n        /* \"#utility.yul\":14184:14277   */\n      tag_373\n        /* \"#utility.yul\":14273:14276   */\n      dup3\n        /* \"#utility.yul\":14184:14277   */\n      tag_215\n      jump\t// in\n    tag_373:\n        /* \"#utility.yul\":14302:14304   */\n      0x20\n        /* \"#utility.yul\":14297:14300   */\n      dup3\n        /* \"#utility.yul\":14293:14305   */\n      add\n        /* \"#utility.yul\":14286:14305   */\n      swap1\n      pop\n        /* \"#utility.yul\":13945:14311   */\n      swap2\n      swap1\n      pop\n      jump\t// out\n        /* \"#utility.yul\":14317:14736   */\n    tag_102:\n        /* \"#utility.yul\":14483:14487   */\n      0x00\n        /* \"#utility.yul\":14521:14523   */\n      0x20\n        /* \"#utility.yul\":14510:14519   */\n      dup3\n        /* \"#utility.yul\":14506:14524   */\n      add\n        /* \"#utility.yul\":14498:14524   */\n      swap1\n      pop\n        /* \"#utility.yul\":14570:14579   */\n      dup2\n        /* \"#utility.yul\":14564:14568   */\n      dup2\n        /* \"#utility.yul\":14560:14580   */\n      sub\n        /* \"#utility.yul\":14556:14557   */\n      0x00\n        /* \"#utility.yul\":14545:14554   */\n      dup4\n        /* \"#utility.yul\":14541:14558   */\n      add\n        /* \"#utility.yul\":14534:14581   */\n      mstore\n        /* \"#utility.yul\":14598:14729   */\n      tag_375\n        /* \"#utility.yul\":14724:14728   */\n      dup2\n        /* \"#utility.yul\":14598:14729   */\n      tag_216\n      jump\t// in\n    tag_375:\n        /* \"#utility.yul\":14590:14729   */\n      swap1\n      pop\n        /* \"#utility.yul\":14317:14736   */\n      swap2\n      swap1\n      pop\n      jump\t// out\n        /* \"#utility.yul\":14742:14922   */\n    tag_217:\n        /* \"#utility.yul\":14790:14867   */\n      0x4e487b7100000000000000000000000000000000000000000000000000000000\n        /* \"#utility.yul\":14787:14788   */\n      0x00\n        /* \"#utility.yul\":14780:14868   */\n      mstore\n        /* \"#utility.yul\":14887:14891   */\n      0x11\n        /* \"#utility.yul\":14884:14885   */\n      0x04\n        /* \"#utility.yul\":14877:14892   */\n      mstore\n        /* \"#utility.yul\":14911:14915   */\n      0x24\n        /* \"#utility.yul\":14908:14909   */\n      0x00\n        /* \"#utility.yul\":14901:14916   */\n      revert\n        /* \"#utility.yul\":14928:15119   */\n    tag_106:\n        /* \"#utility.yul\":14968:14971   */\n      0x00\n        /* \"#utility.yul\":14987:15007   */\n      tag_378\n        /* \"#utility.yul\":15005:15006   */\n      dup3\n        /* \"#utility.yul\":14987:15007   */\n      tag_178\n      jump\t// in\n    tag_378:\n        /* \"#utility.yul\":14982:15007   */\n      swap2\n      pop\n        /* \"#utility.yul\":15021:15041   */\n      tag_379\n        /* \"#utility.yul\":15039:15040   */\n      dup4\n        /* \"#utility.yul\":15021:15041   */\n      tag_178\n      jump\t// in\n    tag_379:\n        /* \"#utility.yul\":15016:15041   */\n      swap3\n      pop\n        /* \"#utility.yul\":15064:15065   */\n      dup3\n        /* \"#utility.yul\":15061:15062   */\n      dup3\n        /* \"#utility.yul\":15057:15066   */\n      add\n        /* \"#utility.yul\":15050:15066   */\n      swap1\n      pop\n        /* \"#utility.yul\":15085:15088   */\n      dup1\n        /* \"#utility.yul\":15082:15083   */\n      dup3\n        /* \"#utility.yul\":15079:15089   */\n      gt\n        /* \"#utility.yul\":15076:15112   */\n      iszero\n      tag_380\n      jumpi\n        /* \"#utility.yul\":15092:15110   */\n      tag_381\n      tag_217\n      jump\t// in\n    tag_381:\n        /* \"#utility.yul\":15076:15112   */\n    tag_380:\n        /* \"#utility.yul\":14928:15119   */\n      swap3\n      swap2\n      pop\n      pop\n      jump\t// out\n        /* \"#utility.yul\":15125:15305   */\n    tag_110:\n        /* \"#utility.yul\":15173:15250   */\n      0x4e487b7100000000000000000000000000000000000000000000000000000000\n        /* \"#utility.yul\":15170:15171   */\n      0x00\n        /* \"#utility.yul\":15163:15251   */\n      mstore\n        /* \"#utility.yul\":15270:15274   */\n      0x01\n        /* \"#utility.yul\":15267:15268   */\n      0x04\n        /* \"#utility.yul\":15260:15275   */\n      mstore\n        /* \"#utility.yul\":15294:15298   */\n      0x24\n        /* \"#utility.yul\":15291:15292   */\n      0x00\n        /* \"#utility.yul\":15284:15299   */\n      revert\n        /* \"#utility.yul\":15311:15488   */\n    tag_218:\n        /* \"#utility.yul\":15451:15480   */\n      0x6f6e6c792035207472616e73616374696f6e7320706572206461790000000000\n        /* \"#utility.yul\":15447:15448   */\n      0x00\n        /* \"#utility.yul\":15439:15445   */\n      dup3\n        /* \"#utility.yul\":15435:15449   */\n      add\n        /* \"#utility.yul\":15428:15481   */\n      mstore\n        /* \"#utility.yul\":15311:15488   */\n      pop\n      jump\t// out\n        /* \"#utility.yul\":15494:15860   */\n    tag_219:\n        /* \"#utility.yul\":15636:15639   */\n      0x00\n        /* \"#utility.yul\":15657:15724   */\n      tag_385\n        /* \"#utility.yul\":15721:15723   */\n      0x1b\n        /* \"#utility.yul\":15716:15719   */\n      dup4\n        /* \"#utility.yul\":15657:15724   */\n      tag_200\n      jump\t// in\n    tag_385:\n        /* \"#utility.yul\":15650:15724   */\n      swap2\n      pop\n        /* \"#utility.yul\":15733:15826   */\n      tag_386\n        /* \"#utility.yul\":15822:15825   */\n      dup3\n        /* \"#utility.yul\":15733:15826   */\n      tag_218\n      jump\t// in\n    tag_386:\n        /* \"#utility.yul\":15851:15853   */\n      0x20\n        /* \"#utility.yul\":15846:15849   */\n      dup3\n        /* \"#utility.yul\":15842:15854   */\n      add\n        /* \"#utility.yul\":15835:15854   */\n      swap1\n      pop\n        /* \"#utility.yul\":15494:15860   */\n      swap2\n      swap1\n      pop\n      jump\t// out\n        /* \"#utility.yul\":15866:16285   */\n    tag_112:\n        /* \"#utility.yul\":16032:16036   */\n      0x00\n        /* \"#utility.yul\":16070:16072   */\n      0x20\n        /* \"#utility.yul\":16059:16068   */\n      dup3\n        /* \"#utility.yul\":16055:16073   */\n      add\n        /* \"#utility.yul\":16047:16073   */\n      swap1\n      pop\n        /* \"#utility.yul\":16119:16128   */\n      dup2\n        /* \"#utility.yul\":16113:16117   */\n      dup2\n        /* \"#utility.yul\":16109:16129   */\n      sub\n        /* \"#utility.yul\":16105:16106   */\n      0x00\n        /* \"#utility.yul\":16094:16103   */\n      dup4\n        /* \"#utility.yul\":16090:16107   */\n      add\n        /* \"#utility.yul\":16083:16130   */\n      mstore\n        /* \"#utility.yul\":16147:16278   */\n      tag_388\n        /* \"#utility.yul\":16273:16277   */\n      dup2\n        /* \"#utility.yul\":16147:16278   */\n      tag_219\n      jump\t// in\n    tag_388:\n        /* \"#utility.yul\":16139:16278   */\n      swap1\n      pop\n        /* \"#utility.yul\":15866:16285   */\n      swap2\n      swap1\n      pop\n      jump\t// out\n        /* \"#utility.yul\":16291:16485   */\n    tag_123:\n        /* \"#utility.yul\":16331:16335   */\n      0x00\n        /* \"#utility.yul\":16351:16371   */\n      tag_390\n        /* \"#utility.yul\":16369:16370   */\n      dup3\n        /* \"#utility.yul\":16351:16371   */\n      tag_178\n      jump\t// in\n    tag_390:\n        /* \"#utility.yul\":16346:16371   */\n      swap2\n      pop\n        /* \"#utility.yul\":16385:16405   */\n      tag_391\n        /* \"#utility.yul\":16403:16404   */\n      dup4\n        /* \"#utility.yul\":16385:16405   */\n      tag_178\n      jump\t// in\n    tag_391:\n        /* \"#utility.yul\":16380:16405   */\n      swap3\n      pop\n        /* \"#utility.yul\":16429:16430   */\n      dup3\n        /* \"#utility.yul\":16426:16427   */\n      dup3\n        /* \"#utility.yul\":16422:16431   */\n      sub\n        /* \"#utility.yul\":16414:16431   */\n      swap1\n      pop\n        /* \"#utility.yul\":16453:16454   */\n      dup2\n        /* \"#utility.yul\":16447:16451   */\n      dup2\n        /* \"#utility.yul\":16444:16455   */\n      gt\n        /* \"#utility.yul\":16441:16478   */\n      iszero\n      tag_392\n      jumpi\n        /* \"#utility.yul\":16458:16476   */\n      tag_393\n      tag_217\n      jump\t// in\n    tag_393:\n        /* \"#utility.yul\":16441:16478   */\n    tag_392:\n        /* \"#utility.yul\":16291:16485   */\n      swap3\n      swap2\n      pop\n      pop\n      jump\t// out\n        /* \"#utility.yul\":16491:16671   */\n    tag_220:\n        /* \"#utility.yul\":16539:16616   */\n      0x4e487b7100000000000000000000000000000000000000000000000000000000\n        /* \"#utility.yul\":16536:16537   */\n      0x00\n        /* \"#utility.yul\":16529:16617   */\n      mstore\n        /* \"#utility.yul\":16636:16640   */\n      0x22\n        /* \"#utility.yul\":16633:16634   */\n      0x04\n        /* \"#utility.yul\":16626:16641   */\n      mstore\n        /* \"#utility.yul\":16660:16664   */\n      0x24\n        /* \"#utility.yul\":16657:16658   */\n      0x00\n        /* \"#utility.yul\":16650:16665   */\n      revert\n        /* \"#utility.yul\":16677:16997   */\n    tag_137:\n        /* \"#utility.yul\":16721:16727   */\n      0x00\n        /* \"#utility.yul\":16758:16759   */\n      0x02\n        /* \"#utility.yul\":16752:16756   */\n      dup3\n        /* \"#utility.yul\":16748:16760   */\n      div\n        /* \"#utility.yul\":16738:16760   */\n      swap1\n      pop\n        /* \"#utility.yul\":16805:16806   */\n      0x01\n        /* \"#utility.yul\":16799:16803   */\n      dup3\n        /* \"#utility.yul\":16795:16807   */\n      and\n        /* \"#utility.yul\":16826:16844   */\n      dup1\n        /* \"#utility.yul\":16816:16897   */\n      tag_396\n      jumpi\n        /* \"#utility.yul\":16882:16886   */\n      0x7f\n        /* \"#utility.yul\":16874:16880   */\n      dup3\n        /* \"#utility.yul\":16870:16887   */\n      and\n        /* \"#utility.yul\":16860:16887   */\n      swap2\n      pop\n        /* \"#utility.yul\":16816:16897   */\n    tag_396:\n        /* \"#utility.yul\":16944:16946   */\n      0x20\n        /* \"#utility.yul\":16936:16942   */\n      dup3\n        /* \"#utility.yul\":16933:16947   */\n      lt\n        /* \"#utility.yul\":16913:16931   */\n      dup2\n        /* \"#utility.yul\":16910:16948   */\n      sub\n        /* \"#utility.yul\":16907:16991   */\n      tag_397\n      jumpi\n        /* \"#utility.yul\":16963:16981   */\n      tag_398\n      tag_220\n      jump\t// in\n    tag_398:\n        /* \"#utility.yul\":16907:16991   */\n    tag_397:\n        /* \"#utility.yul\":16728:16997   */\n      pop\n        /* \"#utility.yul\":16677:16997   */\n      swap2\n      swap1\n      pop\n      jump\t// out\n        /* \"#utility.yul\":17003:17144   */\n    tag_221:\n        /* \"#utility.yul\":17052:17056   */\n      0x00\n        /* \"#utility.yul\":17075:17078   */\n      dup2\n        /* \"#utility.yul\":17067:17078   */\n      swap1\n      pop\n        /* \"#utility.yul\":17098:17101   */\n      dup2\n        /* \"#utility.yul\":17095:17096   */\n      0x00\n        /* \"#utility.yul\":17088:17102   */\n      mstore\n        /* \"#utility.yul\":17132:17136   */\n      0x20\n        /* \"#utility.yul\":17129:17130   */\n      0x00\n        /* \"#utility.yul\":17119:17137   */\n      keccak256\n        /* \"#utility.yul\":17111:17137   */\n      swap1\n      pop\n        /* \"#utility.yul\":17003:17144   */\n      swap2\n      swap1\n      pop\n      jump\t// out\n        /* \"#utility.yul\":17150:17243   */\n    tag_222:\n        /* \"#utility.yul\":17187:17193   */\n      0x00\n        /* \"#utility.yul\":17234:17236   */\n      0x20\n        /* \"#utility.yul\":17229:17231   */\n      0x1f\n        /* \"#utility.yul\":17222:17227   */\n      dup4\n        /* \"#utility.yul\":17218:17232   */\n      add\n        /* \"#utility.yul\":17214:17237   */\n      div\n        /* \"#utility.yul\":17204:17237   */\n      swap1\n      pop\n        /* \"#utility.yul\":17150:17243   */\n      swap2\n      swap1\n      pop\n      jump\t// out\n        /* \"#utility.yul\":17249:17356   */\n    tag_223:\n        /* \"#utility.yul\":17293:17301   */\n      0x00\n        /* \"#utility.yul\":17343:17348   */\n      dup3\n        /* \"#utility.yul\":17337:17341   */\n      dup3\n        /* \"#utility.yul\":17333:17349   */\n      shl\n        /* \"#utility.yul\":17312:17349   */\n      swap1\n      pop\n        /* \"#utility.yul\":17249:17356   */\n      swap3\n      swap2\n      pop\n      pop\n      jump\t// out\n        /* \"#utility.yul\":17362:17755   */\n    tag_224:\n        /* \"#utility.yul\":17431:17437   */\n      0x00\n        /* \"#utility.yul\":17481:17482   */\n      0x08\n        /* \"#utility.yul\":17469:17479   */\n      dup4\n        /* \"#utility.yul\":17465:17483   */\n      mul\n        /* \"#utility.yul\":17504:17601   */\n      tag_403\n        /* \"#utility.yul\":17534:17600   */\n      0xffffffffffffffffffffffffffffffffffffffffffffffffffffffffffffffff\n        /* \"#utility.yul\":17523:17532   */\n      dup3\n        /* \"#utility.yul\":17504:17601   */\n      tag_223\n      jump\t// in\n    tag_403:\n        /* \"#utility.yul\":17622:17661   */\n      tag_404\n        /* \"#utility.yul\":17652:17660   */\n      dup7\n        /* \"#utility.yul\":17641:17650   */\n      dup4\n        /* \"#utility.yul\":17622:17661   */\n      tag_223\n      jump\t// in\n    tag_404:\n        /* \"#utility.yul\":17610:17661   */\n      swap6\n      pop\n        /* \"#utility.yul\":17694:17698   */\n      dup1\n        /* \"#utility.yul\":17690:17699   */\n      not\n        /* \"#utility.yul\":17683:17688   */\n      dup5\n        /* \"#utility.yul\":17679:17700   */\n      and\n        /* \"#utility.yul\":17670:17700   */\n      swap4\n      pop\n        /* \"#utility.yul\":17743:17747   */\n      dup1\n        /* \"#utility.yul\":17733:17741   */\n      dup7\n        /* \"#utility.yul\":17729:17748   */\n      and\n        /* \"#utility.yul\":17722:17727   */\n      dup5\n        /* \"#utility.yul\":17719:17749   */\n      or\n        /* \"#utility.yul\":17709:17749   */\n      swap3\n      pop\n        /* \"#utility.yul\":17438:17755   */\n      pop\n      pop\n        /* \"#utility.yul\":17362:17755   */\n      swap4\n      swap3\n      pop\n      pop\n      pop\n      jump\t// out\n        /* \"#utility.yul\":17761:17821   */\n    tag_225:\n        /* \"#utility.yul\":17789:17792   */\n      0x00\n        /* \"#utility.yul\":17810:17815   */\n      dup2\n        /* \"#utility.yul\":17803:17815   */\n      swap1\n      pop\n        /* \"#utility.yul\":17761:17821   */\n      swap2\n      swap1\n      pop\n      jump\t// out\n        /* \"#utility.yul\":17827:17969   */\n    tag_226:\n        /* \"#utility.yul\":17877:17886   */\n      0x00\n        /* \"#utility.yul\":17910:17963   */\n      tag_407\n        /* \"#utility.yul\":17928:17962   */\n      tag_408\n        /* \"#utility.yul\":17937:17961   */\n      tag_409\n        /* \"#utility.yul\":17955:17960   */\n      dup5\n        /* \"#utility.yul\":17937:17961   */\n      tag_178\n      jump\t// in\n    tag_409:\n        /* \"#utility.yul\":17928:17962   */\n      tag_225\n      jump\t// in\n    tag_408:\n        /* \"#utility.yul\":17910:17963   */\n      tag_178\n      jump\t// in\n    tag_407:\n        /* \"#utility.yul\":17897:17963   */\n      swap1\n      pop\n        /* \"#utility.yul\":17827:17969   */\n      swap2\n      swap1\n      pop\n      jump\t// out\n        /* \"#utility.yul\":17975:18050   */\n    tag_227:\n        /* \"#utility.yul\":18018:18021   */\n      0x00\n        /* \"#utility.yul\":18039:18044   */\n      dup2\n        /* \"#utility.yul\":18032:18044   */\n      swap1\n      pop\n        /* \"#utility.yul\":17975:18050   */\n      swap2\n      swap1\n      pop\n      jump\t// out\n        /* \"#utility.yul\":18056:18325   */\n    tag_228:\n        /* \"#utility.yul\":18166:18205   */\n      tag_412\n        /* \"#utility.yul\":18197:18204   */\n      dup4\n        /* \"#utility.yul\":18166:18205   */\n      tag_226\n      jump\t// in\n    tag_412:\n        /* \"#utility.yul\":18227:18318   */\n      tag_413\n        /* \"#utility.yul\":18276:18317   */\n      tag_414\n        /* \"#utility.yul\":18300:18316   */\n      dup3\n        /* \"#utility.yul\":18276:18317   */\n      tag_227\n      jump\t// in\n    tag_414:\n        /* \"#utility.yul\":18268:18274   */\n      dup5\n        /* \"#utility.yul\":18261:18265   */\n      dup5\n        /* \"#utility.yul\":18255:18266   */\n      sload\n        /* \"#utility.yul\":18227:18318   */\n      tag_224\n      jump\t// in\n    tag_413:\n        /* \"#utility.yul\":18221:18225   */\n      dup3\n        /* \"#utility.yul\":18214:18319   */\n      sstore\n        /* \"#utility.yul\":18132:18325   */\n      pop\n        /* \"#utility.yul\":18056:18325   */\n      pop\n      pop\n      pop\n      jump\t// out\n        /* \"#utility.yul\":18331:18404   */\n    tag_229:\n        /* \"#utility.yul\":18376:18379   */\n      0x00\n        /* \"#utility.yul\":18331:18404   */\n      swap1\n      jump\t// out\n        /* \"#utility.yul\":18410:18599   */\n    tag_230:\n        /* \"#utility.yul\":18487:18519   */\n      tag_417\n      tag_229\n      jump\t// in\n    tag_417:\n        /* \"#utility.yul\":18528:18593   */\n      tag_418\n        /* \"#utility.yul\":18586:18592   */\n      dup2\n        /* \"#utility.yul\":18578:18584   */\n      dup5\n        /* \"#utility.yul\":18572:18576   */\n      dup5\n        /* \"#utility.yul\":18528:18593   */\n      tag_228\n      jump\t// in\n    tag_418:\n        /* \"#utility.yul\":18463:18599   */\n      pop\n        /* \"#utility.yul\":18410:18599   */\n      pop\n      pop\n      jump\t// out\n        /* \"#utility.yul\":18605:18791   */\n    tag_231:\n        /* \"#utility.yul\":18665:18785   */\n    tag_420:\n        /* \"#utility.yul\":18682:18685   */\n      dup2\n        /* \"#utility.yul\":18675:18680   */\n      dup2\n        /* \"#utility.yul\":18672:18686   */\n      lt\n        /* \"#utility.yul\":18665:18785   */\n      iszero\n      tag_422\n      jumpi\n        /* \"#utility.yul\":18736:18775   */\n      tag_423\n        /* \"#utility.yul\":18773:18774   */\n      0x00\n        /* \"#utility.yul\":18766:18771   */\n      dup3\n        /* \"#utility.yul\":18736:18775   */\n      tag_230\n      jump\t// in\n    tag_423:\n        /* \"#utility.yul\":18709:18710   */\n      0x01\n        /* \"#utility.yul\":18702:18707   */\n      dup2\n        /* \"#utility.yul\":18698:18711   */\n      add\n        /* \"#utility.yul\":18689:18711   */\n      swap1\n      pop\n        /* \"#utility.yul\":18665:18785   */\n      jump(tag_420)\n    tag_422:\n        /* \"#utility.yul\":18605:18791   */\n      pop\n      pop\n      jump\t// out\n        /* \"#utility.yul\":18797:19340   */\n    tag_232:\n        /* \"#utility.yul\":18898:18900   */\n      0x1f\n        /* \"#utility.yul\":18893:18896   */\n      dup3\n        /* \"#utility.yul\":18890:18901   */\n      gt\n        /* \"#utility.yul\":18887:19333   */\n      iszero\n      tag_425\n      jumpi\n        /* \"#utility.yul\":18932:18970   */\n      tag_426\n        /* \"#utility.yul\":18964:18969   */\n      dup2\n        /* \"#utility.yul\":18932:18970   */\n      tag_221\n      jump\t// in\n    tag_426:\n        /* \"#utility.yul\":19016:19045   */\n      tag_427\n        /* \"#utility.yul\":19034:19044   */\n      dup5\n        /* \"#utility.yul\":19016:19045   */\n      tag_222\n      jump\t// in\n    tag_427:\n        /* \"#utility.yul\":19006:19014   */\n      dup2\n        /* \"#utility.yul\":19002:19046   */\n      add\n        /* \"#utility.yul\":19199:19201   */\n      0x20\n        /* \"#utility.yul\":19187:19197   */\n      dup6\n        /* \"#utility.yul\":19184:19202   */\n      lt\n        /* \"#utility.yul\":19181:19230   */\n      iszero\n      tag_428\n      jumpi\n        /* \"#utility.yul\":19220:19228   */\n      dup2\n        /* \"#utility.yul\":19205:19228   */\n      swap1\n      pop\n        /* \"#utility.yul\":19181:19230   */\n    tag_428:\n        /* \"#utility.yul\":19243:19323   */\n      tag_429\n        /* \"#utility.yul\":19299:19321   */\n      tag_430\n        /* \"#utility.yul\":19317:19320   */\n      dup6\n        /* \"#utility.yul\":19299:19321   */\n      tag_222\n      jump\t// in\n    tag_430:\n        /* \"#utility.yul\":19289:19297   */\n      dup4\n        /* \"#utility.yul\":19285:19322   */\n      add\n        /* \"#utility.yul\":19272:19283   */\n      dup3\n        /* \"#utility.yul\":19243:19323   */\n      tag_231\n      jump\t// in\n    tag_429:\n        /* \"#utility.yul\":18902:19333   */\n      pop\n      pop\n        /* \"#utility.yul\":18887:19333   */\n    tag_425:\n        /* \"#utility.yul\":18797:19340   */\n      pop\n      pop\n      pop\n      jump\t// out\n        /* \"#utility.yul\":19346:19463   */\n    tag_233:\n        /* \"#utility.yul\":19400:19408   */\n      0x00\n        /* \"#utility.yul\":19450:19455   */\n      dup3\n        /* \"#utility.yul\":19444:19448   */\n      dup3\n        /* \"#utility.yul\":19440:19456   */\n      shr\n        /* \"#utility.yul\":19419:19456   */\n      swap1\n      pop\n        /* \"#utility.yul\":19346:19463   */\n      swap3\n      swap2\n      pop\n      pop\n      jump\t// out\n        /* \"#utility.yul\":19469:19638   */\n    tag_234:\n        /* \"#utility.yul\":19513:19519   */\n      0x00\n        /* \"#utility.yul\":19546:19597   */\n      tag_433\n        /* \"#utility.yul\":19594:19595   */\n      0x00\n        /* \"#utility.yul\":19590:19596   */\n      not\n        /* \"#utility.yul\":19582:19587   */\n      dup5\n        /* \"#utility.yul\":19579:19580   */\n      0x08\n        /* \"#utility.yul\":19575:19588   */\n      mul\n        /* \"#utility.yul\":19546:19597   */\n      tag_233\n      jump\t// in\n    tag_433:\n        /* \"#utility.yul\":19542:19598   */\n      not\n        /* \"#utility.yul\":19627:19631   */\n      dup1\n        /* \"#utility.yul\":19621:19625   */\n      dup4\n        /* \"#utility.yul\":19617:19632   */\n      and\n        /* \"#utility.yul\":19607:19632   */\n      swap2\n      pop\n        /* \"#utility.yul\":19520:19638   */\n      pop\n        /* \"#utility.yul\":19469:19638   */\n      swap3\n      swap2\n      pop\n      pop\n      jump\t// out\n        /* \"#utility.yul\":19643:19938   */\n    tag_235:\n        /* \"#utility.yul\":19719:19723   */\n      0x00\n        /* \"#utility.yul\":19865:19894   */\n      tag_435\n        /* \"#utility.yul\":19890:19893   */\n      dup4\n        /* \"#utility.yul\":19884:19888   */\n      dup4\n        /* \"#utility.yul\":19865:19894   */\n      tag_234\n      jump\t// in\n    tag_435:\n        /* \"#utility.yul\":19857:19894   */\n      swap2\n      pop\n        /* \"#utility.yul\":19927:19930   */\n      dup3\n        /* \"#utility.yul\":19924:19925   */\n      0x02\n        /* \"#utility.yul\":19920:19931   */\n      mul\n        /* \"#utility.yul\":19914:19918   */\n      dup3\n        /* \"#utility.yul\":19911:19932   */\n      or\n        /* \"#utility.yul\":19903:19932   */\n      swap1\n      pop\n        /* \"#utility.yul\":19643:19938   */\n      swap3\n      swap2\n      pop\n      pop\n      jump\t// out\n        /* \"#utility.yul\":19943:21338   */\n    tag_128:\n        /* \"#utility.yul\":20060:20097   */\n      tag_437\n        /* \"#utility.yul\":20093:20096   */\n      dup3\n        /* \"#utility.yul\":20060:20097   */\n      tag_199\n      jump\t// in\n    tag_437:\n        /* \"#utility.yul\":20162:20180   */\n      0xffffffffffffffff\n        /* \"#utility.yul\":20154:20160   */\n      dup2\n        /* \"#utility.yul\":20151:20181   */\n      gt\n        /* \"#utility.yul\":20148:20204   */\n      iszero\n      tag_438\n      jumpi\n        /* \"#utility.yul\":20184:20202   */\n      tag_439\n      tag_190\n      jump\t// in\n    tag_439:\n        /* \"#utility.yul\":20148:20204   */\n    tag_438:\n        /* \"#utility.yul\":20228:20266   */\n      tag_440\n        /* \"#utility.yul\":20260:20264   */\n      dup3\n        /* \"#utility.yul\":20254:20265   */\n      sload\n        /* \"#utility.yul\":20228:20266   */\n      tag_137\n      jump\t// in\n    tag_440:\n        /* \"#utility.yul\":20313:20380   */\n      tag_441\n        /* \"#utility.yul\":20373:20379   */\n      dup3\n        /* \"#utility.yul\":20365:20371   */\n      dup3\n        /* \"#utility.yul\":20359:20363   */\n      dup6\n        /* \"#utility.yul\":20313:20380   */\n      tag_232\n      jump\t// in\n    tag_441:\n        /* \"#utility.yul\":20407:20408   */\n      0x00\n        /* \"#utility.yul\":20431:20435   */\n      0x20\n        /* \"#utility.yul\":20418:20435   */\n      swap1\n      pop\n        /* \"#utility.yul\":20463:20465   */\n      0x1f\n        /* \"#utility.yul\":20455:20461   */\n      dup4\n        /* \"#utility.yul\":20452:20466   */\n      gt\n        /* \"#utility.yul\":20480:20481   */\n      0x01\n        /* \"#utility.yul\":20475:21093   */\n      dup2\n      eq\n      tag_443\n      jumpi\n        /* \"#utility.yul\":21137:21138   */\n      0x00\n        /* \"#utility.yul\":21154:21160   */\n      dup5\n        /* \"#utility.yul\":21151:21228   */\n      iszero\n      tag_444\n      jumpi\n        /* \"#utility.yul\":21203:21212   */\n      dup3\n        /* \"#utility.yul\":21198:21201   */\n      dup8\n        /* \"#utility.yul\":21194:21213   */\n      add\n        /* \"#utility.yul\":21188:21214   */\n      mload\n        /* \"#utility.yul\":21179:21214   */\n      swap1\n      pop\n        /* \"#utility.yul\":21151:21228   */\n    tag_444:\n        /* \"#utility.yul\":21254:21321   */\n      tag_445\n        /* \"#utility.yul\":21314:21320   */\n      dup6\n        /* \"#utility.yul\":21307:21312   */\n      dup3\n        /* \"#utility.yul\":21254:21321   */\n      tag_235\n      jump\t// in\n    tag_445:\n        /* \"#utility.yul\":21248:21252   */\n      dup7\n        /* \"#utility.yul\":21241:21322   */\n      sstore\n        /* \"#utility.yul\":21110:21332   */\n      pop\n        /* \"#utility.yul\":20445:21332   */\n      jump(tag_442)\n        /* \"#utility.yul\":20475:21093   */\n    tag_443:\n        /* \"#utility.yul\":20527:20531   */\n      0x1f\n        /* \"#utility.yul\":20523:20532   */\n      not\n        /* \"#utility.yul\":20515:20521   */\n      dup5\n        /* \"#utility.yul\":20511:20533   */\n      and\n        /* \"#utility.yul\":20561:20598   */\n      tag_446\n        /* \"#utility.yul\":20593:20597   */\n      dup7\n        /* \"#utility.yul\":20561:20598   */\n      tag_221\n      jump\t// in\n    tag_446:\n        /* \"#utility.yul\":20620:20621   */\n      0x00\n        /* \"#utility.yul\":20634:20842   */\n    tag_447:\n        /* \"#utility.yul\":20648:20655   */\n      dup3\n        /* \"#utility.yul\":20645:20646   */\n      dup2\n        /* \"#utility.yul\":20642:20656   */\n      lt\n        /* \"#utility.yul\":20634:20842   */\n      iszero\n      tag_449\n      jumpi\n        /* \"#utility.yul\":20727:20736   */\n      dup5\n        /* \"#utility.yul\":20722:20725   */\n      dup10\n        /* \"#utility.yul\":20718:20737   */\n      add\n        /* \"#utility.yul\":20712:20738   */\n      mload\n        /* \"#utility.yul\":20704:20710   */\n      dup3\n        /* \"#utility.yul\":20697:20739   */\n      sstore\n        /* \"#utility.yul\":20778:20779   */\n      0x01\n        /* \"#utility.yul\":20770:20776   */\n      dup3\n        /* \"#utility.yul\":20766:20780   */\n      add\n        /* \"#utility.yul\":20756:20780   */\n      swap2\n      pop\n        /* \"#utility.yul\":20825:20827   */\n      0x20\n        /* \"#utility.yul\":20814:20823   */\n      dup6\n        /* \"#utility.yul\":20810:20828   */\n      add\n        /* \"#utility.yul\":20797:20828   */\n      swap5\n      pop\n        /* \"#utility.yul\":20671:20675   */\n      0x20\n        /* \"#utility.yul\":20668:20669   */\n      dup2\n        /* \"#utility.yul\":20664:20676   */\n      add\n        /* \"#utility.yul\":20659:20676   */\n      swap1\n      pop\n        /* \"#utility.yul\":20634:20842   */\n      jump(tag_447)\n    tag_449:\n        /* \"#utility.yul\":20870:20876   */\n      dup7\n        /* \"#utility.yul\":20861:20868   */\n      dup4\n        /* \"#utility.yul\":20858:20877   */\n      lt\n        /* \"#utility.yul\":20855:21034   */\n      iszero\n      tag_450\n      jumpi\n        /* \"#utility.yul\":20928:20937   */\n      dup5\n        /* \"#utility.yul\":20923:20926   */\n      dup10\n        /* \"#utility.yul\":20919:20938   */\n      add\n        /* \"#utility.yul\":20913:20939   */\n      mload\n        /* \"#utility.yul\":20971:21019   */\n      tag_451\n        /* \"#utility.yul\":21013:21017   */\n      0x1f\n        /* \"#utility.yul\":21005:21011   */\n      dup10\n        /* \"#utility.yul\":21001:21018   */\n      and\n        /* \"#utility.yul\":20990:20999   */\n      dup3\n        /* \"#utility.yul\":20971:21019   */\n      tag_234\n      jump\t// in\n    tag_451:\n        /* \"#utility.yul\":20963:20969   */\n      dup4\n        /* \"#utility.yul\":20956:21020   */\n      sstore\n        /* \"#utility.yul\":20878:21034   */\n      pop\n        /* \"#utility.yul\":20855:21034   */\n    tag_450:\n        /* \"#utility.yul\":21080:21081   */\n      0x01\n        /* \"#utility.yul\":21076:21077   */\n      0x02\n        /* \"#utility.yul\":21068:21074   */\n      dup9\n        /* \"#utility.yul\":21064:21078   */\n      mul\n        /* \"#utility.yul\":21060:21082   */\n      add\n        /* \"#utility.yul\":21054:21058   */\n      dup9\n        /* \"#utility.yul\":21047:21083   */\n      sstore\n        /* \"#utility.yul\":20482:21093   */\n      pop\n      pop\n      pop\n        /* \"#utility.yul\":20445:21332   */\n    tag_442:\n      pop\n        /* \"#utility.yul\":20035:21338   */\n      pop\n      pop\n      pop\n        /* \"#utility.yul\":19943:21338   */\n      pop\n      pop\n      jump\t// out\n        /* \"#utility.yul\":21344:21510   */\n    tag_236:\n        /* \"#utility.yul\":21484:21502   */\n      0x4e6f7420656e6f7567682066756e647300000000000000000000000000000000\n        /* \"#utility.yul\":21480:21481   */\n      0x00\n        /* \"#utility.yul\":21472:21478   */\n      dup3\n        /* \"#utility.yul\":21468:21482   */\n      add\n        /* \"#utility.yul\":21461:21503   */\n      mstore\n        /* \"#utility.yul\":21344:21510   */\n      pop\n      jump\t// out\n        /* \"#utility.yul\":21516:21882   */\n    tag_237:\n        /* \"#utility.yul\":21658:21661   */\n      0x00\n        /* \"#utility.yul\":21679:21746   */\n      tag_454\n        /* \"#utility.yul\":21743:21745   */\n      0x10\n        /* \"#utility.yul\":21738:21741   */\n      dup4\n        /* \"#utility.yul\":21679:21746   */\n      tag_200\n      jump\t// in\n    tag_454:\n        /* \"#utility.yul\":21672:21746   */\n      swap2\n      pop\n        /* \"#utility.yul\":21755:21848   */\n      tag_455\n        /* \"#utility.yul\":21844:21847   */\n      dup3\n        /* \"#utility.yul\":21755:21848   */\n      tag_236\n      jump\t// in\n    tag_455:\n        /* \"#utility.yul\":21873:21875   */\n      0x20\n        /* \"#utility.yul\":21868:21871   */\n      dup3\n        /* \"#utility.yul\":21864:21876   */\n      add\n        /* \"#utility.yul\":21857:21876   */\n      swap1\n      pop\n        /* \"#utility.yul\":21516:21882   */\n      swap2\n      swap1\n      pop\n      jump\t// out\n        /* \"#utility.yul\":21888:22307   */\n    tag_131:\n        /* \"#utility.yul\":22054:22058   */\n      0x00\n        /* \"#utility.yul\":22092:22094   */\n      0x20\n        /* \"#utility.yul\":22081:22090   */\n      dup3\n        /* \"#utility.yul\":22077:22095   */\n      add\n        /* \"#utility.yul\":22069:22095   */\n      swap1\n      pop\n        /* \"#utility.yul\":22141:22150   */\n      dup2\n        /* \"#utility.yul\":22135:22139   */\n      dup2\n        /* \"#utility.yul\":22131:22151   */\n      sub\n        /* \"#utility.yul\":22127:22128   */\n      0x00\n        /* \"#utility.yul\":22116:22125   */\n      dup4\n        /* \"#utility.yul\":22112:22129   */\n      add\n        /* \"#utility.yul\":22105:22152   */\n      mstore\n        /* \"#utility.yul\":22169:22300   */\n      tag_457\n        /* \"#utility.yul\":22295:22299   */\n      dup2\n        /* \"#utility.yul\":22169:22300   */\n      tag_237\n      jump\t// in\n    tag_457:\n        /* \"#utility.yul\":22161:22300   */\n      swap1\n      pop\n        /* \"#utility.yul\":21888:22307   */\n      swap2\n      swap1\n      pop\n      jump\t// out\n        /* \"#utility.yul\":22313:22483   */\n    tag_238:\n        /* \"#utility.yul\":22453:22475   */\n      0x4e6f2076616c6964206372656469742063617264000000000000000000000000\n        /* \"#utility.yul\":22449:22450   */\n      0x00\n        /* \"#utility.yul\":22441:22447   */\n      dup3\n        /* \"#utility.yul\":22437:22451   */\n      add\n        /* \"#utility.yul\":22430:22476   */\n      mstore\n        /* \"#utility.yul\":22313:22483   */\n      pop\n      jump\t// out\n        /* \"#utility.yul\":22489:22855   */\n    tag_239:\n        /* \"#utility.yul\":22631:22634   */\n      0x00\n        /* \"#utility.yul\":22652:22719   */\n      tag_460\n        /* \"#utility.yul\":22716:22718   */\n      0x14\n        /* \"#utility.yul\":22711:22714   */\n      dup4\n        /* \"#utility.yul\":22652:22719   */\n      tag_200\n      jump\t// in\n    tag_460:\n        /* \"#utility.yul\":22645:22719   */\n      swap2\n      pop\n        /* \"#utility.yul\":22728:22821   */\n      tag_461\n        /* \"#utility.yul\":22817:22820   */\n      dup3\n        /* \"#utility.yul\":22728:22821   */\n      tag_238\n      jump\t// in\n    tag_461:\n        /* \"#utility.yul\":22846:22848   */\n      0x20\n        /* \"#utility.yul\":22841:22844   */\n      dup3\n        /* \"#utility.yul\":22837:22849   */\n      add\n        /* \"#utility.yul\":22830:22849   */\n      swap1\n      pop\n        /* \"#utility.yul\":22489:22855   */\n      swap2\n      swap1\n      pop\n      jump\t// out\n        /* \"#utility.yul\":22861:23280   */\n    tag_142:\n        /* \"#utility.yul\":23027:23031   */\n      0x00\n        /* \"#utility.yul\":23065:23067   */\n      0x20\n        /* \"#utility.yul\":23054:23063   */\n      dup3\n        /* \"#utility.yul\":23050:23068   */\n      add\n        /* \"#utility.yul\":23042:23068   */\n      swap1\n      pop\n        /* \"#utility.yul\":23114:23123   */\n      dup2\n        /* \"#utility.yul\":23108:23112   */\n      dup2\n        /* \"#utility.yul\":23104:23124   */\n      sub\n        /* \"#utility.yul\":23100:23101   */\n      0x00\n        /* \"#utility.yul\":23089:23098   */\n      dup4\n        /* \"#utility.yul\":23085:23102   */\n      add\n        /* \"#utility.yul\":23078:23125   */\n      mstore\n        /* \"#utility.yul\":23142:23273   */\n      tag_463\n        /* \"#utility.yul\":23268:23272   */\n      dup2\n        /* \"#utility.yul\":23142:23273   */\n      tag_239\n      jump\t// in\n    tag_463:\n        /* \"#utility.yul\":23134:23273   */\n      swap1\n      pop\n        /* \"#utility.yul\":22861:23280   */\n      swap2\n      swap1\n      pop\n      jump\t// out\n        /* \"#utility.yul\":23286:23519   */\n    tag_174:\n        /* \"#utility.yul\":23325:23328   */\n      0x00\n        /* \"#utility.yul\":23348:23372   */\n      tag_465\n        /* \"#utility.yul\":23366:23371   */\n      dup3\n        /* \"#utility.yul\":23348:23372   */\n      tag_178\n      jump\t// in\n    tag_465:\n        /* \"#utility.yul\":23339:23372   */\n      swap2\n      pop\n        /* \"#utility.yul\":23394:23460   */\n      0xffffffffffffffffffffffffffffffffffffffffffffffffffffffffffffffff\n        /* \"#utility.yul\":23387:23392   */\n      dup3\n        /* \"#utility.yul\":23384:23461   */\n      sub\n        /* \"#utility.yul\":23381:23484   */\n      tag_466\n      jumpi\n        /* \"#utility.yul\":23464:23482   */\n      tag_467\n      tag_217\n      jump\t// in\n    tag_467:\n        /* \"#utility.yul\":23381:23484   */\n    tag_466:\n        /* \"#utility.yul\":23511:23512   */\n      0x01\n        /* \"#utility.yul\":23504:23509   */\n      dup3\n        /* \"#utility.yul\":23500:23513   */\n      add\n        /* \"#utility.yul\":23493:23513   */\n      swap1\n      pop\n        /* \"#utility.yul\":23286:23519   */\n      swap2\n      swap1\n      pop\n      jump\t// out\n\n    auxdata: 0xa264697066735822122057bb38d18f96d4bca4a9a0dc44f9811ca456257adf38fbfd88be73a6ab49c9e164736f6c63430008100033\n}\n",
				"bytecode": {
					"linkReferences": {},
					"object": "608060405260006002556000600b556000600c60006101000a81548160ff0219169083151502179055503480156200003657600080fd5b5060405162001cca38038062001cca83398181016040528101906200005c9190620000aa565b8060048190555050620000dc565b600080fd5b6000819050919050565b62000084816200006f565b81146200009057600080fd5b50565b600081519050620000a48162000079565b92915050565b600060208284031215620000c357620000c26200006a565b5b6000620000d38482850162000093565b91505092915050565b611bde80620000ec6000396000f3fe608060405234801561001057600080fd5b50600436106101215760003560e01c806357bf72e3116100ad5780638fa11864116100715780638fa11864146102dc578063aa8c217c146102fa578063e21f37ce14610318578063f4b30eaf14610336578063f7e03fd81461036657610121565b806357bf72e3146102455780637b9a3f4c146102785780637eb9f5711461029657806383920e90146102b45780638e029c0b146102d257610121565b806324ba506d116100f457806324ba506d146101af5780633c626f00146101cd57806342fb7936146101eb5780634b28f9a214610209578063557ed1ba1461022757610121565b806304ef5b2114610126578063062a7544146101595780630e85fa721461017557806312a029a414610193575b600080fd5b610140600480360381019061013b919061100e565b610384565b604051610150949392919061108b565b60405180910390f35b610173600480360381019061016e91906110fc565b610404565b005b61017d61073c565b60405161018a919061113c565b60405180910390f35b6101ad60048036038101906101a8919061129d565b610742565b005b6101b76107f3565b6040516101c4919061113c565b60405180910390f35b6101d56107fd565b6040516101e29190611330565b60405180910390f35b6101f3610810565b60405161020091906113ca565b60405180910390f35b61021161089e565b60405161021e919061113c565b60405180910390f35b61022f6108a4565b60405161023c919061113c565b60405180910390f35b61025f600480360381019061025a919061100e565b6108ac565b60405161026f949392919061108b565b60405180910390f35b61028061091c565b60405161028d919061113c565b60405180910390f35b61029e610922565b6040516102ab919061113c565b60405180910390f35b6102bc610928565b6040516102c9919061150e565b60405180910390f35b6102da610a47565b005b6102e4610a64565b6040516102f191906113ca565b60405180910390f35b610302610af2565b60405161030f919061113c565b60405180910390f35b610320610af8565b60405161032d91906113ca565b60405180910390f35b610350600480360381019061034b919061100e565b610b86565b60405161035d9190611585565b60405180910390f35b61036e610c73565b60405161037b9190611585565b60405180910390f35b6000818154811061039457600080fd5b90600052602060002090600402016000915090508060000160009054906101000a900473ffffffffffffffffffffffffffffffffffffffff16908060010160009054906101000a900473ffffffffffffffffffffffffffffffffffffffff16908060020154908060030154905084565b8080600560006101000a81548173ffffffffffffffffffffffffffffffffffffffff021916908373ffffffffffffffffffffffffffffffffffffffff160217905550600073ffffffffffffffffffffffffffffffffffffffff168173ffffffffffffffffffffffffffffffffffffffff16036104b5576040517f08c379a00000000000000000000000000000000000000000000000000000000081526004016104ac906115ec565b60405180910390fd5b60001515600c60009054906101000a900460ff1615150361050b576040517f08c379a000000000000000000000000000000000000000000000000000000000815260040161050290611658565b60405180910390fd5b6005600b541015801561052c5750601e600a5461052891906116a7565b4211155b15610587576000600b819055506000600b541461054c5761054b6116db565b5b6040517f08c379a000000000000000000000000000000000000000000000000000000000815260040161057e90611756565b60405180910390fd5b6005600b54111580156105a85750601e600a546105a491906116a7565b4210155b156105d0576000600b819055506000600b54146105c8576105c76116db565b5b42600a819055505b81600560006101000a81548173ffffffffffffffffffffffffffffffffffffffff021916908373ffffffffffffffffffffffffffffffffffffffff160217905550826003819055506001600b600082825461062b91906116a7565b9250508190555060006004541180156106475750600354600454115b156106fc57600354600460008282546106609190611776565b925050819055506003546009600082825461067b91906116a7565b925050819055506106b233600560009054906101000a900473ffffffffffffffffffffffffffffffffffffffff1660035442610d75565b6040518060400160405280601281526020017f5472616e7366657220636f6d706c657465640000000000000000000000000000815250600690816106f691906119b6565b50610737565b6040517f08c379a000000000000000000000000000000000000000000000000000000000815260040161072e90611ad4565b60405180910390fd5b505050565b600a5481565b816007908161075191906119b6565b50806008908161076191906119b6565b506001600c60006101000a81548160ff02191690831515021790555042600a81905550600860078054610793906117d9565b90501480156107b057506003600880546107ac906117d9565b9050145b6107ef576040517f08c379a00000000000000000000000000000000000000000000000000000000081526004016107e690611b40565b60405180910390fd5b5050565b6000600254905090565b600c60009054906101000a900460ff1681565b6008805461081d906117d9565b80601f0160208091040260200160405190810160405280929190818152602001828054610849906117d9565b80156108965780601f1061086b57610100808354040283529160200191610896565b820191906000526020600020905b81548152906001019060200180831161087957829003601f168201915b505050505081565b600b5481565b600042905090565b60016020528060005260406000206000915090508060000160009054906101000a900473ffffffffffffffffffffffffffffffffffffffff16908060010160009054906101000a900473ffffffffffffffffffffffffffffffffffffffff16908060020154908060030154905084565b60045481565b60095481565b60606000805480602002602001604051908101604052809291908181526020016000905b82821015610a3e57838290600052602060002090600402016040518060800160405290816000820160009054906101000a900473ffffffffffffffffffffffffffffffffffffffff1673ffffffffffffffffffffffffffffffffffffffff1673ffffffffffffffffffffffffffffffffffffffff1681526020016001820160009054906101000a900473ffffffffffffffffffffffffffffffffffffffff1673ffffffffffffffffffffffffffffffffffffffff1673ffffffffffffffffffffffffffffffffffffffff168152602001600282015481526020016003820154815250508152602001906001019061094c565b50505050905090565b6000600c60006101000a81548160ff021916908315150217905550565b60078054610a71906117d9565b80601f0160208091040260200160405190810160405280929190818152602001828054610a9d906117d9565b8015610aea5780601f10610abf57610100808354040283529160200191610aea565b820191906000526020600020905b815481529060010190602001808311610acd57829003601f168201915b505050505081565b60035481565b60068054610b05906117d9565b80601f0160208091040260200160405190810160405280929190818152602001828054610b31906117d9565b8015610b7e5780601f10610b5357610100808354040283529160200191610b7e565b820191906000526020600020905b815481529060010190602001808311610b6157829003601f168201915b505050505081565b610b8e610f70565b600160008381526020019081526020016000206040518060800160405290816000820160009054906101000a900473ffffffffffffffffffffffffffffffffffffffff1673ffffffffffffffffffffffffffffffffffffffff1673ffffffffffffffffffffffffffffffffffffffff1681526020016001820160009054906101000a900473ffffffffffffffffffffffffffffffffffffffff1673ffffffffffffffffffffffffffffffffffffffff1673ffffffffffffffffffffffffffffffffffffffff168152602001600282015481526020016003820154815250509050919050565b610c7b610f70565b60006001600080549050610c8f9190611776565b9050600160008281526020019081526020016000206040518060800160405290816000820160009054906101000a900473ffffffffffffffffffffffffffffffffffffffff1673ffffffffffffffffffffffffffffffffffffffff1673ffffffffffffffffffffffffffffffffffffffff1681526020016001820160009054906101000a900473ffffffffffffffffffffffffffffffffffffffff1673ffffffffffffffffffffffffffffffffffffffff1673ffffffffffffffffffffffffffffffffffffffff1681526020016002820154815260200160038201548152505091505090565b600060405180608001604052808673ffffffffffffffffffffffffffffffffffffffff1681526020018573ffffffffffffffffffffffffffffffffffffffff168152602001848152602001838152509050600081908060018154018082558091505060019003906000526020600020906004020160009091909190915060008201518160000160006101000a81548173ffffffffffffffffffffffffffffffffffffffff021916908373ffffffffffffffffffffffffffffffffffffffff16021790555060208201518160010160006101000a81548173ffffffffffffffffffffffffffffffffffffffff021916908373ffffffffffffffffffffffffffffffffffffffff160217905550604082015181600201556060820151816003015550508060016000600254815260200190815260200160002060008201518160000160006101000a81548173ffffffffffffffffffffffffffffffffffffffff021916908373ffffffffffffffffffffffffffffffffffffffff16021790555060208201518160010160006101000a81548173ffffffffffffffffffffffffffffffffffffffff021916908373ffffffffffffffffffffffffffffffffffffffff160217905550604082015181600201556060820151816003015590505060026000815480929190610f6490611b60565b91905055505050505050565b6040518060800160405280600073ffffffffffffffffffffffffffffffffffffffff168152602001600073ffffffffffffffffffffffffffffffffffffffff16815260200160008152602001600081525090565b6000604051905090565b600080fd5b600080fd5b6000819050919050565b610feb81610fd8565b8114610ff657600080fd5b50565b60008135905061100881610fe2565b92915050565b60006020828403121561102457611023610fce565b5b600061103284828501610ff9565b91505092915050565b600073ffffffffffffffffffffffffffffffffffffffff82169050919050565b60006110668261103b565b9050919050565b6110768161105b565b82525050565b61108581610fd8565b82525050565b60006080820190506110a0600083018761106d565b6110ad602083018661106d565b6110ba604083018561107c565b6110c7606083018461107c565b95945050505050565b6110d98161105b565b81146110e457600080fd5b50565b6000813590506110f6816110d0565b92915050565b6000806040838503121561111357611112610fce565b5b600061112185828601610ff9565b9250506020611132858286016110e7565b9150509250929050565b6000602082019050611151600083018461107c565b92915050565b600080fd5b600080fd5b6000601f19601f8301169050919050565b7f4e487b7100000000000000000000000000000000000000000000000000000000600052604160045260246000fd5b6111aa82611161565b810181811067ffffffffffffffff821117156111c9576111c8611172565b5b80604052505050565b60006111dc610fc4565b90506111e882826111a1565b919050565b600067ffffffffffffffff82111561120857611207611172565b5b61121182611161565b9050602081019050919050565b82818337600083830152505050565b600061124061123b846111ed565b6111d2565b90508281526020810184848401111561125c5761125b61115c565b5b61126784828561121e565b509392505050565b600082601f83011261128457611283611157565b5b813561129484826020860161122d565b91505092915050565b600080604083850312156112b4576112b3610fce565b5b600083013567ffffffffffffffff8111156112d2576112d1610fd3565b5b6112de8582860161126f565b925050602083013567ffffffffffffffff8111156112ff576112fe610fd3565b5b61130b8582860161126f565b9150509250929050565b60008115159050919050565b61132a81611315565b82525050565b60006020820190506113456000830184611321565b92915050565b600081519050919050565b600082825260208201905092915050565b60005b8381101561138557808201518184015260208101905061136a565b60008484015250505050565b600061139c8261134b565b6113a68185611356565b93506113b6818560208601611367565b6113bf81611161565b840191505092915050565b600060208201905081810360008301526113e48184611391565b905092915050565b600081519050919050565b600082825260208201905092915050565b6000819050602082019050919050565b6114218161105b565b82525050565b61143081610fd8565b82525050565b60808201600082015161144c6000850182611418565b50602082015161145f6020850182611418565b5060408201516114726040850182611427565b5060608201516114856060850182611427565b50505050565b60006114978383611436565b60808301905092915050565b6000602082019050919050565b60006114bb826113ec565b6114c581856113f7565b93506114d083611408565b8060005b838110156115015781516114e8888261148b565b97506114f3836114a3565b9250506001810190506114d4565b5085935050505092915050565b6000602082019050818103600083015261152881846114b0565b905092915050565b6080820160008201516115466000850182611418565b5060208201516115596020850182611418565b50604082015161156c6040850182611427565b50606082015161157f6060850182611427565b50505050565b600060808201905061159a6000830184611530565b92915050565b7f2054686973206164647265737320646f65736e27742065786973747300000000600082015250565b60006115d6601c83611356565b91506115e1826115a0565b602082019050919050565b60006020820190508181036000830152611605816115c9565b9050919050565b7f506c6561736520696e7365727420796f75722063617264000000000000000000600082015250565b6000611642601783611356565b915061164d8261160c565b602082019050919050565b6000602082019050818103600083015261167181611635565b9050919050565b7f4e487b7100000000000000000000000000000000000000000000000000000000600052601160045260246000fd5b60006116b282610fd8565b91506116bd83610fd8565b92508282019050808211156116d5576116d4611678565b5b92915050565b7f4e487b7100000000000000000000000000000000000000000000000000000000600052600160045260246000fd5b7f6f6e6c792035207472616e73616374696f6e7320706572206461790000000000600082015250565b6000611740601b83611356565b915061174b8261170a565b602082019050919050565b6000602082019050818103600083015261176f81611733565b9050919050565b600061178182610fd8565b915061178c83610fd8565b92508282039050818111156117a4576117a3611678565b5b92915050565b7f4e487b7100000000000000000000000000000000000000000000000000000000600052602260045260246000fd5b600060028204905060018216806117f157607f821691505b602082108103611804576118036117aa565b5b50919050565b60008190508160005260206000209050919050565b60006020601f8301049050919050565b600082821b905092915050565b60006008830261186c7fffffffffffffffffffffffffffffffffffffffffffffffffffffffffffffffff8261182f565b611876868361182f565b95508019841693508086168417925050509392505050565b6000819050919050565b60006118b36118ae6118a984610fd8565b61188e565b610fd8565b9050919050565b6000819050919050565b6118cd83611898565b6118e16118d9826118ba565b84845461183c565b825550505050565b600090565b6118f66118e9565b6119018184846118c4565b505050565b5b818110156119255761191a6000826118ee565b600181019050611907565b5050565b601f82111561196a5761193b8161180a565b6119448461181f565b81016020851015611953578190505b61196761195f8561181f565b830182611906565b50505b505050565b600082821c905092915050565b600061198d6000198460080261196f565b1980831691505092915050565b60006119a6838361197c565b9150826002028217905092915050565b6119bf8261134b565b67ffffffffffffffff8111156119d8576119d7611172565b5b6119e282546117d9565b6119ed828285611929565b600060209050601f831160018114611a205760008415611a0e578287015190505b611a18858261199a565b865550611a80565b601f198416611a2e8661180a565b60005b82811015611a5657848901518255600182019150602085019450602081019050611a31565b86831015611a735784890151611a6f601f89168261197c565b8355505b6001600288020188555050505b505050505050565b7f4e6f7420656e6f7567682066756e647300000000000000000000000000000000600082015250565b6000611abe601083611356565b9150611ac982611a88565b602082019050919050565b60006020820190508181036000830152611aed81611ab1565b9050919050565b7f4e6f2076616c6964206372656469742063617264000000000000000000000000600082015250565b6000611b2a601483611356565b9150611b3582611af4565b602082019050919050565b60006020820190508181036000830152611b5981611b1d565b9050919050565b6000611b6b82610fd8565b91507fffffffffffffffffffffffffffffffffffffffffffffffffffffffffffffffff8203611b9d57611b9c611678565b5b60018201905091905056fea264697066735822122057bb38d18f96d4bca4a9a0dc44f9811ca456257adf38fbfd88be73a6ab49c9e164736f6c63430008100033",
					"opcodes": "PUSH1 0x80 PUSH1 0x40 MSTORE PUSH1 0x0 PUSH1 0x2 SSTORE PUSH1 0x0 PUSH1 0xB SSTORE PUSH1 0x0 PUSH1 0xC PUSH1 0x0 PUSH2 0x100 EXP DUP2 SLOAD DUP2 PUSH1 0xFF MUL NOT AND SWAP1 DUP4 ISZERO ISZERO MUL OR SWAP1 SSTORE POP CALLVALUE DUP1 ISZERO PUSH3 0x36 JUMPI PUSH1 0x0 DUP1 REVERT JUMPDEST POP PUSH1 0x40 MLOAD PUSH3 0x1CCA CODESIZE SUB DUP1 PUSH3 0x1CCA DUP4 CODECOPY DUP2 DUP2 ADD PUSH1 0x40 MSTORE DUP2 ADD SWAP1 PUSH3 0x5C SWAP2 SWAP1 PUSH3 0xAA JUMP JUMPDEST DUP1 PUSH1 0x4 DUP2 SWAP1 SSTORE POP POP PUSH3 0xDC JUMP JUMPDEST PUSH1 0x0 DUP1 REVERT JUMPDEST PUSH1 0x0 DUP2 SWAP1 POP SWAP2 SWAP1 POP JUMP JUMPDEST PUSH3 0x84 DUP2 PUSH3 0x6F JUMP JUMPDEST DUP2 EQ PUSH3 0x90 JUMPI PUSH1 0x0 DUP1 REVERT JUMPDEST POP JUMP JUMPDEST PUSH1 0x0 DUP2 MLOAD SWAP1 POP PUSH3 0xA4 DUP2 PUSH3 0x79 JUMP JUMPDEST SWAP3 SWAP2 POP POP JUMP JUMPDEST PUSH1 0x0 PUSH1 0x20 DUP3 DUP5 SUB SLT ISZERO PUSH3 0xC3 JUMPI PUSH3 0xC2 PUSH3 0x6A JUMP JUMPDEST JUMPDEST PUSH1 0x0 PUSH3 0xD3 DUP5 DUP3 DUP6 ADD PUSH3 0x93 JUMP JUMPDEST SWAP2 POP POP SWAP3 SWAP2 POP POP JUMP JUMPDEST PUSH2 0x1BDE DUP1 PUSH3 0xEC PUSH1 0x0 CODECOPY PUSH1 0x0 RETURN INVALID PUSH1 0x80 PUSH1 0x40 MSTORE CALLVALUE DUP1 ISZERO PUSH2 0x10 JUMPI PUSH1 0x0 DUP1 REVERT JUMPDEST POP PUSH1 0x4 CALLDATASIZE LT PUSH2 0x121 JUMPI PUSH1 0x0 CALLDATALOAD PUSH1 0xE0 SHR DUP1 PUSH4 0x57BF72E3 GT PUSH2 0xAD JUMPI DUP1 PUSH4 0x8FA11864 GT PUSH2 0x71 JUMPI DUP1 PUSH4 0x8FA11864 EQ PUSH2 0x2DC JUMPI DUP1 PUSH4 0xAA8C217C EQ PUSH2 0x2FA JUMPI DUP1 PUSH4 0xE21F37CE EQ PUSH2 0x318 JUMPI DUP1 PUSH4 0xF4B30EAF EQ PUSH2 0x336 JUMPI DUP1 PUSH4 0xF7E03FD8 EQ PUSH2 0x366 JUMPI PUSH2 0x121 JUMP JUMPDEST DUP1 PUSH4 0x57BF72E3 EQ PUSH2 0x245 JUMPI DUP1 PUSH4 0x7B9A3F4C EQ PUSH2 0x278 JUMPI DUP1 PUSH4 0x7EB9F571 EQ PUSH2 0x296 JUMPI DUP1 PUSH4 0x83920E90 EQ PUSH2 0x2B4 JUMPI DUP1 PUSH4 0x8E029C0B EQ PUSH2 0x2D2 JUMPI PUSH2 0x121 JUMP JUMPDEST DUP1 PUSH4 0x24BA506D GT PUSH2 0xF4 JUMPI DUP1 PUSH4 0x24BA506D EQ PUSH2 0x1AF JUMPI DUP1 PUSH4 0x3C626F00 EQ PUSH2 0x1CD JUMPI DUP1 PUSH4 0x42FB7936 EQ PUSH2 0x1EB JUMPI DUP1 PUSH4 0x4B28F9A2 EQ PUSH2 0x209 JUMPI DUP1 PUSH4 0x557ED1BA EQ PUSH2 0x227 JUMPI PUSH2 0x121 JUMP JUMPDEST DUP1 PUSH4 0x4EF5B21 EQ PUSH2 0x126 JUMPI DUP1 PUSH4 0x62A7544 EQ PUSH2 0x159 JUMPI DUP1 PUSH4 0xE85FA72 EQ PUSH2 0x175 JUMPI DUP1 PUSH4 0x12A029A4 EQ PUSH2 0x193 JUMPI JUMPDEST PUSH1 0x0 DUP1 REVERT JUMPDEST PUSH2 0x140 PUSH1 0x4 DUP1 CALLDATASIZE SUB DUP2 ADD SWAP1 PUSH2 0x13B SWAP2 SWAP1 PUSH2 0x100E JUMP JUMPDEST PUSH2 0x384 JUMP JUMPDEST PUSH1 0x40 MLOAD PUSH2 0x150 SWAP5 SWAP4 SWAP3 SWAP2 SWAP1 PUSH2 0x108B JUMP JUMPDEST PUSH1 0x40 MLOAD DUP1 SWAP2 SUB SWAP1 RETURN JUMPDEST PUSH2 0x173 PUSH1 0x4 DUP1 CALLDATASIZE SUB DUP2 ADD SWAP1 PUSH2 0x16E SWAP2 SWAP1 PUSH2 0x10FC JUMP JUMPDEST PUSH2 0x404 JUMP JUMPDEST STOP JUMPDEST PUSH2 0x17D PUSH2 0x73C JUMP JUMPDEST PUSH1 0x40 MLOAD PUSH2 0x18A SWAP2 SWAP1 PUSH2 0x113C JUMP JUMPDEST PUSH1 0x40 MLOAD DUP1 SWAP2 SUB SWAP1 RETURN JUMPDEST PUSH2 0x1AD PUSH1 0x4 DUP1 CALLDATASIZE SUB DUP2 ADD SWAP1 PUSH2 0x1A8 SWAP2 SWAP1 PUSH2 0x129D JUMP JUMPDEST PUSH2 0x742 JUMP JUMPDEST STOP JUMPDEST PUSH2 0x1B7 PUSH2 0x7F3 JUMP JUMPDEST PUSH1 0x40 MLOAD PUSH2 0x1C4 SWAP2 SWAP1 PUSH2 0x113C JUMP JUMPDEST PUSH1 0x40 MLOAD DUP1 SWAP2 SUB SWAP1 RETURN JUMPDEST PUSH2 0x1D5 PUSH2 0x7FD JUMP JUMPDEST PUSH1 0x40 MLOAD PUSH2 0x1E2 SWAP2 SWAP1 PUSH2 0x1330 JUMP JUMPDEST PUSH1 0x40 MLOAD DUP1 SWAP2 SUB SWAP1 RETURN JUMPDEST PUSH2 0x1F3 PUSH2 0x810 JUMP JUMPDEST PUSH1 0x40 MLOAD PUSH2 0x200 SWAP2 SWAP1 PUSH2 0x13CA JUMP JUMPDEST PUSH1 0x40 MLOAD DUP1 SWAP2 SUB SWAP1 RETURN JUMPDEST PUSH2 0x211 PUSH2 0x89E JUMP JUMPDEST PUSH1 0x40 MLOAD PUSH2 0x21E SWAP2 SWAP1 PUSH2 0x113C JUMP JUMPDEST PUSH1 0x40 MLOAD DUP1 SWAP2 SUB SWAP1 RETURN JUMPDEST PUSH2 0x22F PUSH2 0x8A4 JUMP JUMPDEST PUSH1 0x40 MLOAD PUSH2 0x23C SWAP2 SWAP1 PUSH2 0x113C JUMP JUMPDEST PUSH1 0x40 MLOAD DUP1 SWAP2 SUB SWAP1 RETURN JUMPDEST PUSH2 0x25F PUSH1 0x4 DUP1 CALLDATASIZE SUB DUP2 ADD SWAP1 PUSH2 0x25A SWAP2 SWAP1 PUSH2 0x100E JUMP JUMPDEST PUSH2 0x8AC JUMP JUMPDEST PUSH1 0x40 MLOAD PUSH2 0x26F SWAP5 SWAP4 SWAP3 SWAP2 SWAP1 PUSH2 0x108B JUMP JUMPDEST PUSH1 0x40 MLOAD DUP1 SWAP2 SUB SWAP1 RETURN JUMPDEST PUSH2 0x280 PUSH2 0x91C JUMP JUMPDEST PUSH1 0x40 MLOAD PUSH2 0x28D SWAP2 SWAP1 PUSH2 0x113C JUMP JUMPDEST PUSH1 0x40 MLOAD DUP1 SWAP2 SUB SWAP1 RETURN JUMPDEST PUSH2 0x29E PUSH2 0x922 JUMP JUMPDEST PUSH1 0x40 MLOAD PUSH2 0x2AB SWAP2 SWAP1 PUSH2 0x113C JUMP JUMPDEST PUSH1 0x40 MLOAD DUP1 SWAP2 SUB SWAP1 RETURN JUMPDEST PUSH2 0x2BC PUSH2 0x928 JUMP JUMPDEST PUSH1 0x40 MLOAD PUSH2 0x2C9 SWAP2 SWAP1 PUSH2 0x150E JUMP JUMPDEST PUSH1 0x40 MLOAD DUP1 SWAP2 SUB SWAP1 RETURN JUMPDEST PUSH2 0x2DA PUSH2 0xA47 JUMP JUMPDEST STOP JUMPDEST PUSH2 0x2E4 PUSH2 0xA64 JUMP JUMPDEST PUSH1 0x40 MLOAD PUSH2 0x2F1 SWAP2 SWAP1 PUSH2 0x13CA JUMP JUMPDEST PUSH1 0x40 MLOAD DUP1 SWAP2 SUB SWAP1 RETURN JUMPDEST PUSH2 0x302 PUSH2 0xAF2 JUMP JUMPDEST PUSH1 0x40 MLOAD PUSH2 0x30F SWAP2 SWAP1 PUSH2 0x113C JUMP JUMPDEST PUSH1 0x40 MLOAD DUP1 SWAP2 SUB SWAP1 RETURN JUMPDEST PUSH2 0x320 PUSH2 0xAF8 JUMP JUMPDEST PUSH1 0x40 MLOAD PUSH2 0x32D SWAP2 SWAP1 PUSH2 0x13CA JUMP JUMPDEST PUSH1 0x40 MLOAD DUP1 SWAP2 SUB SWAP1 RETURN JUMPDEST PUSH2 0x350 PUSH1 0x4 DUP1 CALLDATASIZE SUB DUP2 ADD SWAP1 PUSH2 0x34B SWAP2 SWAP1 PUSH2 0x100E JUMP JUMPDEST PUSH2 0xB86 JUMP JUMPDEST PUSH1 0x40 MLOAD PUSH2 0x35D SWAP2 SWAP1 PUSH2 0x1585 JUMP JUMPDEST PUSH1 0x40 MLOAD DUP1 SWAP2 SUB SWAP1 RETURN JUMPDEST PUSH2 0x36E PUSH2 0xC73 JUMP JUMPDEST PUSH1 0x40 MLOAD PUSH2 0x37B SWAP2 SWAP1 PUSH2 0x1585 JUMP JUMPDEST PUSH1 0x40 MLOAD DUP1 SWAP2 SUB SWAP1 RETURN JUMPDEST PUSH1 0x0 DUP2 DUP2 SLOAD DUP2 LT PUSH2 0x394 JUMPI PUSH1 0x0 DUP1 REVERT JUMPDEST SWAP1 PUSH1 0x0 MSTORE PUSH1 0x20 PUSH1 0x0 KECCAK256 SWAP1 PUSH1 0x4 MUL ADD PUSH1 0x0 SWAP2 POP SWAP1 POP DUP1 PUSH1 0x0 ADD PUSH1 0x0 SWAP1 SLOAD SWAP1 PUSH2 0x100 EXP SWAP1 DIV PUSH20 0xFFFFFFFFFFFFFFFFFFFFFFFFFFFFFFFFFFFFFFFF AND SWAP1 DUP1 PUSH1 0x1 ADD PUSH1 0x0 SWAP1 SLOAD SWAP1 PUSH2 0x100 EXP SWAP1 DIV PUSH20 0xFFFFFFFFFFFFFFFFFFFFFFFFFFFFFFFFFFFFFFFF AND SWAP1 DUP1 PUSH1 0x2 ADD SLOAD SWAP1 DUP1 PUSH1 0x3 ADD SLOAD SWAP1 POP DUP5 JUMP JUMPDEST DUP1 DUP1 PUSH1 0x5 PUSH1 0x0 PUSH2 0x100 EXP DUP2 SLOAD DUP2 PUSH20 0xFFFFFFFFFFFFFFFFFFFFFFFFFFFFFFFFFFFFFFFF MUL NOT AND SWAP1 DUP4 PUSH20 0xFFFFFFFFFFFFFFFFFFFFFFFFFFFFFFFFFFFFFFFF AND MUL OR SWAP1 SSTORE POP PUSH1 0x0 PUSH20 0xFFFFFFFFFFFFFFFFFFFFFFFFFFFFFFFFFFFFFFFF AND DUP2 PUSH20 0xFFFFFFFFFFFFFFFFFFFFFFFFFFFFFFFFFFFFFFFF AND SUB PUSH2 0x4B5 JUMPI PUSH1 0x40 MLOAD PUSH32 0x8C379A000000000000000000000000000000000000000000000000000000000 DUP2 MSTORE PUSH1 0x4 ADD PUSH2 0x4AC SWAP1 PUSH2 0x15EC JUMP JUMPDEST PUSH1 0x40 MLOAD DUP1 SWAP2 SUB SWAP1 REVERT JUMPDEST PUSH1 0x0 ISZERO ISZERO PUSH1 0xC PUSH1 0x0 SWAP1 SLOAD SWAP1 PUSH2 0x100 EXP SWAP1 DIV PUSH1 0xFF AND ISZERO ISZERO SUB PUSH2 0x50B JUMPI PUSH1 0x40 MLOAD PUSH32 0x8C379A000000000000000000000000000000000000000000000000000000000 DUP2 MSTORE PUSH1 0x4 ADD PUSH2 0x502 SWAP1 PUSH2 0x1658 JUMP JUMPDEST PUSH1 0x40 MLOAD DUP1 SWAP2 SUB SWAP1 REVERT JUMPDEST PUSH1 0x5 PUSH1 0xB SLOAD LT ISZERO DUP1 ISZERO PUSH2 0x52C JUMPI POP PUSH1 0x1E PUSH1 0xA SLOAD PUSH2 0x528 SWAP2 SWAP1 PUSH2 0x16A7 JUMP JUMPDEST TIMESTAMP GT ISZERO JUMPDEST ISZERO PUSH2 0x587 JUMPI PUSH1 0x0 PUSH1 0xB DUP2 SWAP1 SSTORE POP PUSH1 0x0 PUSH1 0xB SLOAD EQ PUSH2 0x54C JUMPI PUSH2 0x54B PUSH2 0x16DB JUMP JUMPDEST JUMPDEST PUSH1 0x40 MLOAD PUSH32 0x8C379A000000000000000000000000000000000000000000000000000000000 DUP2 MSTORE PUSH1 0x4 ADD PUSH2 0x57E SWAP1 PUSH2 0x1756 JUMP JUMPDEST PUSH1 0x40 MLOAD DUP1 SWAP2 SUB SWAP1 REVERT JUMPDEST PUSH1 0x5 PUSH1 0xB SLOAD GT ISZERO DUP1 ISZERO PUSH2 0x5A8 JUMPI POP PUSH1 0x1E PUSH1 0xA SLOAD PUSH2 0x5A4 SWAP2 SWAP1 PUSH2 0x16A7 JUMP JUMPDEST TIMESTAMP LT ISZERO JUMPDEST ISZERO PUSH2 0x5D0 JUMPI PUSH1 0x0 PUSH1 0xB DUP2 SWAP1 SSTORE POP PUSH1 0x0 PUSH1 0xB SLOAD EQ PUSH2 0x5C8 JUMPI PUSH2 0x5C7 PUSH2 0x16DB JUMP JUMPDEST JUMPDEST TIMESTAMP PUSH1 0xA DUP2 SWAP1 SSTORE POP JUMPDEST DUP2 PUSH1 0x5 PUSH1 0x0 PUSH2 0x100 EXP DUP2 SLOAD DUP2 PUSH20 0xFFFFFFFFFFFFFFFFFFFFFFFFFFFFFFFFFFFFFFFF MUL NOT AND SWAP1 DUP4 PUSH20 0xFFFFFFFFFFFFFFFFFFFFFFFFFFFFFFFFFFFFFFFF AND MUL OR SWAP1 SSTORE POP DUP3 PUSH1 0x3 DUP2 SWAP1 SSTORE POP PUSH1 0x1 PUSH1 0xB PUSH1 0x0 DUP3 DUP3 SLOAD PUSH2 0x62B SWAP2 SWAP1 PUSH2 0x16A7 JUMP JUMPDEST SWAP3 POP POP DUP2 SWAP1 SSTORE POP PUSH1 0x0 PUSH1 0x4 SLOAD GT DUP1 ISZERO PUSH2 0x647 JUMPI POP PUSH1 0x3 SLOAD PUSH1 0x4 SLOAD GT JUMPDEST ISZERO PUSH2 0x6FC JUMPI PUSH1 0x3 SLOAD PUSH1 0x4 PUSH1 0x0 DUP3 DUP3 SLOAD PUSH2 0x660 SWAP2 SWAP1 PUSH2 0x1776 JUMP JUMPDEST SWAP3 POP POP DUP2 SWAP1 SSTORE POP PUSH1 0x3 SLOAD PUSH1 0x9 PUSH1 0x0 DUP3 DUP3 SLOAD PUSH2 0x67B SWAP2 SWAP1 PUSH2 0x16A7 JUMP JUMPDEST SWAP3 POP POP DUP2 SWAP1 SSTORE POP PUSH2 0x6B2 CALLER PUSH1 0x5 PUSH1 0x0 SWAP1 SLOAD SWAP1 PUSH2 0x100 EXP SWAP1 DIV PUSH20 0xFFFFFFFFFFFFFFFFFFFFFFFFFFFFFFFFFFFFFFFF AND PUSH1 0x3 SLOAD TIMESTAMP PUSH2 0xD75 JUMP JUMPDEST PUSH1 0x40 MLOAD DUP1 PUSH1 0x40 ADD PUSH1 0x40 MSTORE DUP1 PUSH1 0x12 DUP2 MSTORE PUSH1 0x20 ADD PUSH32 0x5472616E7366657220636F6D706C657465640000000000000000000000000000 DUP2 MSTORE POP PUSH1 0x6 SWAP1 DUP2 PUSH2 0x6F6 SWAP2 SWAP1 PUSH2 0x19B6 JUMP JUMPDEST POP PUSH2 0x737 JUMP JUMPDEST PUSH1 0x40 MLOAD PUSH32 0x8C379A000000000000000000000000000000000000000000000000000000000 DUP2 MSTORE PUSH1 0x4 ADD PUSH2 0x72E SWAP1 PUSH2 0x1AD4 JUMP JUMPDEST PUSH1 0x40 MLOAD DUP1 SWAP2 SUB SWAP1 REVERT JUMPDEST POP POP POP JUMP JUMPDEST PUSH1 0xA SLOAD DUP2 JUMP JUMPDEST DUP2 PUSH1 0x7 SWAP1 DUP2 PUSH2 0x751 SWAP2 SWAP1 PUSH2 0x19B6 JUMP JUMPDEST POP DUP1 PUSH1 0x8 SWAP1 DUP2 PUSH2 0x761 SWAP2 SWAP1 PUSH2 0x19B6 JUMP JUMPDEST POP PUSH1 0x1 PUSH1 0xC PUSH1 0x0 PUSH2 0x100 EXP DUP2 SLOAD DUP2 PUSH1 0xFF MUL NOT AND SWAP1 DUP4 ISZERO ISZERO MUL OR SWAP1 SSTORE POP TIMESTAMP PUSH1 0xA DUP2 SWAP1 SSTORE POP PUSH1 0x8 PUSH1 0x7 DUP1 SLOAD PUSH2 0x793 SWAP1 PUSH2 0x17D9 JUMP JUMPDEST SWAP1 POP EQ DUP1 ISZERO PUSH2 0x7B0 JUMPI POP PUSH1 0x3 PUSH1 0x8 DUP1 SLOAD PUSH2 0x7AC SWAP1 PUSH2 0x17D9 JUMP JUMPDEST SWAP1 POP EQ JUMPDEST PUSH2 0x7EF JUMPI PUSH1 0x40 MLOAD PUSH32 0x8C379A000000000000000000000000000000000000000000000000000000000 DUP2 MSTORE PUSH1 0x4 ADD PUSH2 0x7E6 SWAP1 PUSH2 0x1B40 JUMP JUMPDEST PUSH1 0x40 MLOAD DUP1 SWAP2 SUB SWAP1 REVERT JUMPDEST POP POP JUMP JUMPDEST PUSH1 0x0 PUSH1 0x2 SLOAD SWAP1 POP SWAP1 JUMP JUMPDEST PUSH1 0xC PUSH1 0x0 SWAP1 SLOAD SWAP1 PUSH2 0x100 EXP SWAP1 DIV PUSH1 0xFF AND DUP2 JUMP JUMPDEST PUSH1 0x8 DUP1 SLOAD PUSH2 0x81D SWAP1 PUSH2 0x17D9 JUMP JUMPDEST DUP1 PUSH1 0x1F ADD PUSH1 0x20 DUP1 SWAP2 DIV MUL PUSH1 0x20 ADD PUSH1 0x40 MLOAD SWAP1 DUP2 ADD PUSH1 0x40 MSTORE DUP1 SWAP3 SWAP2 SWAP1 DUP2 DUP2 MSTORE PUSH1 0x20 ADD DUP3 DUP1 SLOAD PUSH2 0x849 SWAP1 PUSH2 0x17D9 JUMP JUMPDEST DUP1 ISZERO PUSH2 0x896 JUMPI DUP1 PUSH1 0x1F LT PUSH2 0x86B JUMPI PUSH2 0x100 DUP1 DUP4 SLOAD DIV MUL DUP4 MSTORE SWAP2 PUSH1 0x20 ADD SWAP2 PUSH2 0x896 JUMP JUMPDEST DUP3 ADD SWAP2 SWAP1 PUSH1 0x0 MSTORE PUSH1 0x20 PUSH1 0x0 KECCAK256 SWAP1 JUMPDEST DUP2 SLOAD DUP2 MSTORE SWAP1 PUSH1 0x1 ADD SWAP1 PUSH1 0x20 ADD DUP1 DUP4 GT PUSH2 0x879 JUMPI DUP3 SWAP1 SUB PUSH1 0x1F AND DUP3 ADD SWAP2 JUMPDEST POP POP POP POP POP DUP2 JUMP JUMPDEST PUSH1 0xB SLOAD DUP2 JUMP JUMPDEST PUSH1 0x0 TIMESTAMP SWAP1 POP SWAP1 JUMP JUMPDEST PUSH1 0x1 PUSH1 0x20 MSTORE DUP1 PUSH1 0x0 MSTORE PUSH1 0x40 PUSH1 0x0 KECCAK256 PUSH1 0x0 SWAP2 POP SWAP1 POP DUP1 PUSH1 0x0 ADD PUSH1 0x0 SWAP1 SLOAD SWAP1 PUSH2 0x100 EXP SWAP1 DIV PUSH20 0xFFFFFFFFFFFFFFFFFFFFFFFFFFFFFFFFFFFFFFFF AND SWAP1 DUP1 PUSH1 0x1 ADD PUSH1 0x0 SWAP1 SLOAD SWAP1 PUSH2 0x100 EXP SWAP1 DIV PUSH20 0xFFFFFFFFFFFFFFFFFFFFFFFFFFFFFFFFFFFFFFFF AND SWAP1 DUP1 PUSH1 0x2 ADD SLOAD SWAP1 DUP1 PUSH1 0x3 ADD SLOAD SWAP1 POP DUP5 JUMP JUMPDEST PUSH1 0x4 SLOAD DUP2 JUMP JUMPDEST PUSH1 0x9 SLOAD DUP2 JUMP JUMPDEST PUSH1 0x60 PUSH1 0x0 DUP1 SLOAD DUP1 PUSH1 0x20 MUL PUSH1 0x20 ADD PUSH1 0x40 MLOAD SWAP1 DUP2 ADD PUSH1 0x40 MSTORE DUP1 SWAP3 SWAP2 SWAP1 DUP2 DUP2 MSTORE PUSH1 0x20 ADD PUSH1 0x0 SWAP1 JUMPDEST DUP3 DUP3 LT ISZERO PUSH2 0xA3E JUMPI DUP4 DUP3 SWAP1 PUSH1 0x0 MSTORE PUSH1 0x20 PUSH1 0x0 KECCAK256 SWAP1 PUSH1 0x4 MUL ADD PUSH1 0x40 MLOAD DUP1 PUSH1 0x80 ADD PUSH1 0x40 MSTORE SWAP1 DUP2 PUSH1 0x0 DUP3 ADD PUSH1 0x0 SWAP1 SLOAD SWAP1 PUSH2 0x100 EXP SWAP1 DIV PUSH20 0xFFFFFFFFFFFFFFFFFFFFFFFFFFFFFFFFFFFFFFFF AND PUSH20 0xFFFFFFFFFFFFFFFFFFFFFFFFFFFFFFFFFFFFFFFF AND PUSH20 0xFFFFFFFFFFFFFFFFFFFFFFFFFFFFFFFFFFFFFFFF AND DUP2 MSTORE PUSH1 0x20 ADD PUSH1 0x1 DUP3 ADD PUSH1 0x0 SWAP1 SLOAD SWAP1 PUSH2 0x100 EXP SWAP1 DIV PUSH20 0xFFFFFFFFFFFFFFFFFFFFFFFFFFFFFFFFFFFFFFFF AND PUSH20 0xFFFFFFFFFFFFFFFFFFFFFFFFFFFFFFFFFFFFFFFF AND PUSH20 0xFFFFFFFFFFFFFFFFFFFFFFFFFFFFFFFFFFFFFFFF AND DUP2 MSTORE PUSH1 0x20 ADD PUSH1 0x2 DUP3 ADD SLOAD DUP2 MSTORE PUSH1 0x20 ADD PUSH1 0x3 DUP3 ADD SLOAD DUP2 MSTORE POP POP DUP2 MSTORE PUSH1 0x20 ADD SWAP1 PUSH1 0x1 ADD SWAP1 PUSH2 0x94C JUMP JUMPDEST POP POP POP POP SWAP1 POP SWAP1 JUMP JUMPDEST PUSH1 0x0 PUSH1 0xC PUSH1 0x0 PUSH2 0x100 EXP DUP2 SLOAD DUP2 PUSH1 0xFF MUL NOT AND SWAP1 DUP4 ISZERO ISZERO MUL OR SWAP1 SSTORE POP JUMP JUMPDEST PUSH1 0x7 DUP1 SLOAD PUSH2 0xA71 SWAP1 PUSH2 0x17D9 JUMP JUMPDEST DUP1 PUSH1 0x1F ADD PUSH1 0x20 DUP1 SWAP2 DIV MUL PUSH1 0x20 ADD PUSH1 0x40 MLOAD SWAP1 DUP2 ADD PUSH1 0x40 MSTORE DUP1 SWAP3 SWAP2 SWAP1 DUP2 DUP2 MSTORE PUSH1 0x20 ADD DUP3 DUP1 SLOAD PUSH2 0xA9D SWAP1 PUSH2 0x17D9 JUMP JUMPDEST DUP1 ISZERO PUSH2 0xAEA JUMPI DUP1 PUSH1 0x1F LT PUSH2 0xABF JUMPI PUSH2 0x100 DUP1 DUP4 SLOAD DIV MUL DUP4 MSTORE SWAP2 PUSH1 0x20 ADD SWAP2 PUSH2 0xAEA JUMP JUMPDEST DUP3 ADD SWAP2 SWAP1 PUSH1 0x0 MSTORE PUSH1 0x20 PUSH1 0x0 KECCAK256 SWAP1 JUMPDEST DUP2 SLOAD DUP2 MSTORE SWAP1 PUSH1 0x1 ADD SWAP1 PUSH1 0x20 ADD DUP1 DUP4 GT PUSH2 0xACD JUMPI DUP3 SWAP1 SUB PUSH1 0x1F AND DUP3 ADD SWAP2 JUMPDEST POP POP POP POP POP DUP2 JUMP JUMPDEST PUSH1 0x3 SLOAD DUP2 JUMP JUMPDEST PUSH1 0x6 DUP1 SLOAD PUSH2 0xB05 SWAP1 PUSH2 0x17D9 JUMP JUMPDEST DUP1 PUSH1 0x1F ADD PUSH1 0x20 DUP1 SWAP2 DIV MUL PUSH1 0x20 ADD PUSH1 0x40 MLOAD SWAP1 DUP2 ADD PUSH1 0x40 MSTORE DUP1 SWAP3 SWAP2 SWAP1 DUP2 DUP2 MSTORE PUSH1 0x20 ADD DUP3 DUP1 SLOAD PUSH2 0xB31 SWAP1 PUSH2 0x17D9 JUMP JUMPDEST DUP1 ISZERO PUSH2 0xB7E JUMPI DUP1 PUSH1 0x1F LT PUSH2 0xB53 JUMPI PUSH2 0x100 DUP1 DUP4 SLOAD DIV MUL DUP4 MSTORE SWAP2 PUSH1 0x20 ADD SWAP2 PUSH2 0xB7E JUMP JUMPDEST DUP3 ADD SWAP2 SWAP1 PUSH1 0x0 MSTORE PUSH1 0x20 PUSH1 0x0 KECCAK256 SWAP1 JUMPDEST DUP2 SLOAD DUP2 MSTORE SWAP1 PUSH1 0x1 ADD SWAP1 PUSH1 0x20 ADD DUP1 DUP4 GT PUSH2 0xB61 JUMPI DUP3 SWAP1 SUB PUSH1 0x1F AND DUP3 ADD SWAP2 JUMPDEST POP POP POP POP POP DUP2 JUMP JUMPDEST PUSH2 0xB8E PUSH2 0xF70 JUMP JUMPDEST PUSH1 0x1 PUSH1 0x0 DUP4 DUP2 MSTORE PUSH1 0x20 ADD SWAP1 DUP2 MSTORE PUSH1 0x20 ADD PUSH1 0x0 KECCAK256 PUSH1 0x40 MLOAD DUP1 PUSH1 0x80 ADD PUSH1 0x40 MSTORE SWAP1 DUP2 PUSH1 0x0 DUP3 ADD PUSH1 0x0 SWAP1 SLOAD SWAP1 PUSH2 0x100 EXP SWAP1 DIV PUSH20 0xFFFFFFFFFFFFFFFFFFFFFFFFFFFFFFFFFFFFFFFF AND PUSH20 0xFFFFFFFFFFFFFFFFFFFFFFFFFFFFFFFFFFFFFFFF AND PUSH20 0xFFFFFFFFFFFFFFFFFFFFFFFFFFFFFFFFFFFFFFFF AND DUP2 MSTORE PUSH1 0x20 ADD PUSH1 0x1 DUP3 ADD PUSH1 0x0 SWAP1 SLOAD SWAP1 PUSH2 0x100 EXP SWAP1 DIV PUSH20 0xFFFFFFFFFFFFFFFFFFFFFFFFFFFFFFFFFFFFFFFF AND PUSH20 0xFFFFFFFFFFFFFFFFFFFFFFFFFFFFFFFFFFFFFFFF AND PUSH20 0xFFFFFFFFFFFFFFFFFFFFFFFFFFFFFFFFFFFFFFFF AND DUP2 MSTORE PUSH1 0x20 ADD PUSH1 0x2 DUP3 ADD SLOAD DUP2 MSTORE PUSH1 0x20 ADD PUSH1 0x3 DUP3 ADD SLOAD DUP2 MSTORE POP POP SWAP1 POP SWAP2 SWAP1 POP JUMP JUMPDEST PUSH2 0xC7B PUSH2 0xF70 JUMP JUMPDEST PUSH1 0x0 PUSH1 0x1 PUSH1 0x0 DUP1 SLOAD SWAP1 POP PUSH2 0xC8F SWAP2 SWAP1 PUSH2 0x1776 JUMP JUMPDEST SWAP1 POP PUSH1 0x1 PUSH1 0x0 DUP3 DUP2 MSTORE PUSH1 0x20 ADD SWAP1 DUP2 MSTORE PUSH1 0x20 ADD PUSH1 0x0 KECCAK256 PUSH1 0x40 MLOAD DUP1 PUSH1 0x80 ADD PUSH1 0x40 MSTORE SWAP1 DUP2 PUSH1 0x0 DUP3 ADD PUSH1 0x0 SWAP1 SLOAD SWAP1 PUSH2 0x100 EXP SWAP1 DIV PUSH20 0xFFFFFFFFFFFFFFFFFFFFFFFFFFFFFFFFFFFFFFFF AND PUSH20 0xFFFFFFFFFFFFFFFFFFFFFFFFFFFFFFFFFFFFFFFF AND PUSH20 0xFFFFFFFFFFFFFFFFFFFFFFFFFFFFFFFFFFFFFFFF AND DUP2 MSTORE PUSH1 0x20 ADD PUSH1 0x1 DUP3 ADD PUSH1 0x0 SWAP1 SLOAD SWAP1 PUSH2 0x100 EXP SWAP1 DIV PUSH20 0xFFFFFFFFFFFFFFFFFFFFFFFFFFFFFFFFFFFFFFFF AND PUSH20 0xFFFFFFFFFFFFFFFFFFFFFFFFFFFFFFFFFFFFFFFF AND PUSH20 0xFFFFFFFFFFFFFFFFFFFFFFFFFFFFFFFFFFFFFFFF AND DUP2 MSTORE PUSH1 0x20 ADD PUSH1 0x2 DUP3 ADD SLOAD DUP2 MSTORE PUSH1 0x20 ADD PUSH1 0x3 DUP3 ADD SLOAD DUP2 MSTORE POP POP SWAP2 POP POP SWAP1 JUMP JUMPDEST PUSH1 0x0 PUSH1 0x40 MLOAD DUP1 PUSH1 0x80 ADD PUSH1 0x40 MSTORE DUP1 DUP7 PUSH20 0xFFFFFFFFFFFFFFFFFFFFFFFFFFFFFFFFFFFFFFFF AND DUP2 MSTORE PUSH1 0x20 ADD DUP6 PUSH20 0xFFFFFFFFFFFFFFFFFFFFFFFFFFFFFFFFFFFFFFFF AND DUP2 MSTORE PUSH1 0x20 ADD DUP5 DUP2 MSTORE PUSH1 0x20 ADD DUP4 DUP2 MSTORE POP SWAP1 POP PUSH1 0x0 DUP2 SWAP1 DUP1 PUSH1 0x1 DUP2 SLOAD ADD DUP1 DUP3 SSTORE DUP1 SWAP2 POP POP PUSH1 0x1 SWAP1 SUB SWAP1 PUSH1 0x0 MSTORE PUSH1 0x20 PUSH1 0x0 KECCAK256 SWAP1 PUSH1 0x4 MUL ADD PUSH1 0x0 SWAP1 SWAP2 SWAP1 SWAP2 SWAP1 SWAP2 POP PUSH1 0x0 DUP3 ADD MLOAD DUP2 PUSH1 0x0 ADD PUSH1 0x0 PUSH2 0x100 EXP DUP2 SLOAD DUP2 PUSH20 0xFFFFFFFFFFFFFFFFFFFFFFFFFFFFFFFFFFFFFFFF MUL NOT AND SWAP1 DUP4 PUSH20 0xFFFFFFFFFFFFFFFFFFFFFFFFFFFFFFFFFFFFFFFF AND MUL OR SWAP1 SSTORE POP PUSH1 0x20 DUP3 ADD MLOAD DUP2 PUSH1 0x1 ADD PUSH1 0x0 PUSH2 0x100 EXP DUP2 SLOAD DUP2 PUSH20 0xFFFFFFFFFFFFFFFFFFFFFFFFFFFFFFFFFFFFFFFF MUL NOT AND SWAP1 DUP4 PUSH20 0xFFFFFFFFFFFFFFFFFFFFFFFFFFFFFFFFFFFFFFFF AND MUL OR SWAP1 SSTORE POP PUSH1 0x40 DUP3 ADD MLOAD DUP2 PUSH1 0x2 ADD SSTORE PUSH1 0x60 DUP3 ADD MLOAD DUP2 PUSH1 0x3 ADD SSTORE POP POP DUP1 PUSH1 0x1 PUSH1 0x0 PUSH1 0x2 SLOAD DUP2 MSTORE PUSH1 0x20 ADD SWAP1 DUP2 MSTORE PUSH1 0x20 ADD PUSH1 0x0 KECCAK256 PUSH1 0x0 DUP3 ADD MLOAD DUP2 PUSH1 0x0 ADD PUSH1 0x0 PUSH2 0x100 EXP DUP2 SLOAD DUP2 PUSH20 0xFFFFFFFFFFFFFFFFFFFFFFFFFFFFFFFFFFFFFFFF MUL NOT AND SWAP1 DUP4 PUSH20 0xFFFFFFFFFFFFFFFFFFFFFFFFFFFFFFFFFFFFFFFF AND MUL OR SWAP1 SSTORE POP PUSH1 0x20 DUP3 ADD MLOAD DUP2 PUSH1 0x1 ADD PUSH1 0x0 PUSH2 0x100 EXP DUP2 SLOAD DUP2 PUSH20 0xFFFFFFFFFFFFFFFFFFFFFFFFFFFFFFFFFFFFFFFF MUL NOT AND SWAP1 DUP4 PUSH20 0xFFFFFFFFFFFFFFFFFFFFFFFFFFFFFFFFFFFFFFFF AND MUL OR SWAP1 SSTORE POP PUSH1 0x40 DUP3 ADD MLOAD DUP2 PUSH1 0x2 ADD SSTORE PUSH1 0x60 DUP3 ADD MLOAD DUP2 PUSH1 0x3 ADD SSTORE SWAP1 POP POP PUSH1 0x2 PUSH1 0x0 DUP2 SLOAD DUP1 SWAP3 SWAP2 SWAP1 PUSH2 0xF64 SWAP1 PUSH2 0x1B60 JUMP JUMPDEST SWAP2 SWAP1 POP SSTORE POP POP POP POP POP POP JUMP JUMPDEST PUSH1 0x40 MLOAD DUP1 PUSH1 0x80 ADD PUSH1 0x40 MSTORE DUP1 PUSH1 0x0 PUSH20 0xFFFFFFFFFFFFFFFFFFFFFFFFFFFFFFFFFFFFFFFF AND DUP2 MSTORE PUSH1 0x20 ADD PUSH1 0x0 PUSH20 0xFFFFFFFFFFFFFFFFFFFFFFFFFFFFFFFFFFFFFFFF AND DUP2 MSTORE PUSH1 0x20 ADD PUSH1 0x0 DUP2 MSTORE PUSH1 0x20 ADD PUSH1 0x0 DUP2 MSTORE POP SWAP1 JUMP JUMPDEST PUSH1 0x0 PUSH1 0x40 MLOAD SWAP1 POP SWAP1 JUMP JUMPDEST PUSH1 0x0 DUP1 REVERT JUMPDEST PUSH1 0x0 DUP1 REVERT JUMPDEST PUSH1 0x0 DUP2 SWAP1 POP SWAP2 SWAP1 POP JUMP JUMPDEST PUSH2 0xFEB DUP2 PUSH2 0xFD8 JUMP JUMPDEST DUP2 EQ PUSH2 0xFF6 JUMPI PUSH1 0x0 DUP1 REVERT JUMPDEST POP JUMP JUMPDEST PUSH1 0x0 DUP2 CALLDATALOAD SWAP1 POP PUSH2 0x1008 DUP2 PUSH2 0xFE2 JUMP JUMPDEST SWAP3 SWAP2 POP POP JUMP JUMPDEST PUSH1 0x0 PUSH1 0x20 DUP3 DUP5 SUB SLT ISZERO PUSH2 0x1024 JUMPI PUSH2 0x1023 PUSH2 0xFCE JUMP JUMPDEST JUMPDEST PUSH1 0x0 PUSH2 0x1032 DUP5 DUP3 DUP6 ADD PUSH2 0xFF9 JUMP JUMPDEST SWAP2 POP POP SWAP3 SWAP2 POP POP JUMP JUMPDEST PUSH1 0x0 PUSH20 0xFFFFFFFFFFFFFFFFFFFFFFFFFFFFFFFFFFFFFFFF DUP3 AND SWAP1 POP SWAP2 SWAP1 POP JUMP JUMPDEST PUSH1 0x0 PUSH2 0x1066 DUP3 PUSH2 0x103B JUMP JUMPDEST SWAP1 POP SWAP2 SWAP1 POP JUMP JUMPDEST PUSH2 0x1076 DUP2 PUSH2 0x105B JUMP JUMPDEST DUP3 MSTORE POP POP JUMP JUMPDEST PUSH2 0x1085 DUP2 PUSH2 0xFD8 JUMP JUMPDEST DUP3 MSTORE POP POP JUMP JUMPDEST PUSH1 0x0 PUSH1 0x80 DUP3 ADD SWAP1 POP PUSH2 0x10A0 PUSH1 0x0 DUP4 ADD DUP8 PUSH2 0x106D JUMP JUMPDEST PUSH2 0x10AD PUSH1 0x20 DUP4 ADD DUP7 PUSH2 0x106D JUMP JUMPDEST PUSH2 0x10BA PUSH1 0x40 DUP4 ADD DUP6 PUSH2 0x107C JUMP JUMPDEST PUSH2 0x10C7 PUSH1 0x60 DUP4 ADD DUP5 PUSH2 0x107C JUMP JUMPDEST SWAP6 SWAP5 POP POP POP POP POP JUMP JUMPDEST PUSH2 0x10D9 DUP2 PUSH2 0x105B JUMP JUMPDEST DUP2 EQ PUSH2 0x10E4 JUMPI PUSH1 0x0 DUP1 REVERT JUMPDEST POP JUMP JUMPDEST PUSH1 0x0 DUP2 CALLDATALOAD SWAP1 POP PUSH2 0x10F6 DUP2 PUSH2 0x10D0 JUMP JUMPDEST SWAP3 SWAP2 POP POP JUMP JUMPDEST PUSH1 0x0 DUP1 PUSH1 0x40 DUP4 DUP6 SUB SLT ISZERO PUSH2 0x1113 JUMPI PUSH2 0x1112 PUSH2 0xFCE JUMP JUMPDEST JUMPDEST PUSH1 0x0 PUSH2 0x1121 DUP6 DUP3 DUP7 ADD PUSH2 0xFF9 JUMP JUMPDEST SWAP3 POP POP PUSH1 0x20 PUSH2 0x1132 DUP6 DUP3 DUP7 ADD PUSH2 0x10E7 JUMP JUMPDEST SWAP2 POP POP SWAP3 POP SWAP3 SWAP1 POP JUMP JUMPDEST PUSH1 0x0 PUSH1 0x20 DUP3 ADD SWAP1 POP PUSH2 0x1151 PUSH1 0x0 DUP4 ADD DUP5 PUSH2 0x107C JUMP JUMPDEST SWAP3 SWAP2 POP POP JUMP JUMPDEST PUSH1 0x0 DUP1 REVERT JUMPDEST PUSH1 0x0 DUP1 REVERT JUMPDEST PUSH1 0x0 PUSH1 0x1F NOT PUSH1 0x1F DUP4 ADD AND SWAP1 POP SWAP2 SWAP1 POP JUMP JUMPDEST PUSH32 0x4E487B7100000000000000000000000000000000000000000000000000000000 PUSH1 0x0 MSTORE PUSH1 0x41 PUSH1 0x4 MSTORE PUSH1 0x24 PUSH1 0x0 REVERT JUMPDEST PUSH2 0x11AA DUP3 PUSH2 0x1161 JUMP JUMPDEST DUP2 ADD DUP2 DUP2 LT PUSH8 0xFFFFFFFFFFFFFFFF DUP3 GT OR ISZERO PUSH2 0x11C9 JUMPI PUSH2 0x11C8 PUSH2 0x1172 JUMP JUMPDEST JUMPDEST DUP1 PUSH1 0x40 MSTORE POP POP POP JUMP JUMPDEST PUSH1 0x0 PUSH2 0x11DC PUSH2 0xFC4 JUMP JUMPDEST SWAP1 POP PUSH2 0x11E8 DUP3 DUP3 PUSH2 0x11A1 JUMP JUMPDEST SWAP2 SWAP1 POP JUMP JUMPDEST PUSH1 0x0 PUSH8 0xFFFFFFFFFFFFFFFF DUP3 GT ISZERO PUSH2 0x1208 JUMPI PUSH2 0x1207 PUSH2 0x1172 JUMP JUMPDEST JUMPDEST PUSH2 0x1211 DUP3 PUSH2 0x1161 JUMP JUMPDEST SWAP1 POP PUSH1 0x20 DUP2 ADD SWAP1 POP SWAP2 SWAP1 POP JUMP JUMPDEST DUP3 DUP2 DUP4 CALLDATACOPY PUSH1 0x0 DUP4 DUP4 ADD MSTORE POP POP POP JUMP JUMPDEST PUSH1 0x0 PUSH2 0x1240 PUSH2 0x123B DUP5 PUSH2 0x11ED JUMP JUMPDEST PUSH2 0x11D2 JUMP JUMPDEST SWAP1 POP DUP3 DUP2 MSTORE PUSH1 0x20 DUP2 ADD DUP5 DUP5 DUP5 ADD GT ISZERO PUSH2 0x125C JUMPI PUSH2 0x125B PUSH2 0x115C JUMP JUMPDEST JUMPDEST PUSH2 0x1267 DUP5 DUP3 DUP6 PUSH2 0x121E JUMP JUMPDEST POP SWAP4 SWAP3 POP POP POP JUMP JUMPDEST PUSH1 0x0 DUP3 PUSH1 0x1F DUP4 ADD SLT PUSH2 0x1284 JUMPI PUSH2 0x1283 PUSH2 0x1157 JUMP JUMPDEST JUMPDEST DUP2 CALLDATALOAD PUSH2 0x1294 DUP5 DUP3 PUSH1 0x20 DUP7 ADD PUSH2 0x122D JUMP JUMPDEST SWAP2 POP POP SWAP3 SWAP2 POP POP JUMP JUMPDEST PUSH1 0x0 DUP1 PUSH1 0x40 DUP4 DUP6 SUB SLT ISZERO PUSH2 0x12B4 JUMPI PUSH2 0x12B3 PUSH2 0xFCE JUMP JUMPDEST JUMPDEST PUSH1 0x0 DUP4 ADD CALLDATALOAD PUSH8 0xFFFFFFFFFFFFFFFF DUP2 GT ISZERO PUSH2 0x12D2 JUMPI PUSH2 0x12D1 PUSH2 0xFD3 JUMP JUMPDEST JUMPDEST PUSH2 0x12DE DUP6 DUP3 DUP7 ADD PUSH2 0x126F JUMP JUMPDEST SWAP3 POP POP PUSH1 0x20 DUP4 ADD CALLDATALOAD PUSH8 0xFFFFFFFFFFFFFFFF DUP2 GT ISZERO PUSH2 0x12FF JUMPI PUSH2 0x12FE PUSH2 0xFD3 JUMP JUMPDEST JUMPDEST PUSH2 0x130B DUP6 DUP3 DUP7 ADD PUSH2 0x126F JUMP JUMPDEST SWAP2 POP POP SWAP3 POP SWAP3 SWAP1 POP JUMP JUMPDEST PUSH1 0x0 DUP2 ISZERO ISZERO SWAP1 POP SWAP2 SWAP1 POP JUMP JUMPDEST PUSH2 0x132A DUP2 PUSH2 0x1315 JUMP JUMPDEST DUP3 MSTORE POP POP JUMP JUMPDEST PUSH1 0x0 PUSH1 0x20 DUP3 ADD SWAP1 POP PUSH2 0x1345 PUSH1 0x0 DUP4 ADD DUP5 PUSH2 0x1321 JUMP JUMPDEST SWAP3 SWAP2 POP POP JUMP JUMPDEST PUSH1 0x0 DUP2 MLOAD SWAP1 POP SWAP2 SWAP1 POP JUMP JUMPDEST PUSH1 0x0 DUP3 DUP3 MSTORE PUSH1 0x20 DUP3 ADD SWAP1 POP SWAP3 SWAP2 POP POP JUMP JUMPDEST PUSH1 0x0 JUMPDEST DUP4 DUP2 LT ISZERO PUSH2 0x1385 JUMPI DUP1 DUP3 ADD MLOAD DUP2 DUP5 ADD MSTORE PUSH1 0x20 DUP2 ADD SWAP1 POP PUSH2 0x136A JUMP JUMPDEST PUSH1 0x0 DUP5 DUP5 ADD MSTORE POP POP POP POP JUMP JUMPDEST PUSH1 0x0 PUSH2 0x139C DUP3 PUSH2 0x134B JUMP JUMPDEST PUSH2 0x13A6 DUP2 DUP6 PUSH2 0x1356 JUMP JUMPDEST SWAP4 POP PUSH2 0x13B6 DUP2 DUP6 PUSH1 0x20 DUP7 ADD PUSH2 0x1367 JUMP JUMPDEST PUSH2 0x13BF DUP2 PUSH2 0x1161 JUMP JUMPDEST DUP5 ADD SWAP2 POP POP SWAP3 SWAP2 POP POP JUMP JUMPDEST PUSH1 0x0 PUSH1 0x20 DUP3 ADD SWAP1 POP DUP2 DUP2 SUB PUSH1 0x0 DUP4 ADD MSTORE PUSH2 0x13E4 DUP2 DUP5 PUSH2 0x1391 JUMP JUMPDEST SWAP1 POP SWAP3 SWAP2 POP POP JUMP JUMPDEST PUSH1 0x0 DUP2 MLOAD SWAP1 POP SWAP2 SWAP1 POP JUMP JUMPDEST PUSH1 0x0 DUP3 DUP3 MSTORE PUSH1 0x20 DUP3 ADD SWAP1 POP SWAP3 SWAP2 POP POP JUMP JUMPDEST PUSH1 0x0 DUP2 SWAP1 POP PUSH1 0x20 DUP3 ADD SWAP1 POP SWAP2 SWAP1 POP JUMP JUMPDEST PUSH2 0x1421 DUP2 PUSH2 0x105B JUMP JUMPDEST DUP3 MSTORE POP POP JUMP JUMPDEST PUSH2 0x1430 DUP2 PUSH2 0xFD8 JUMP JUMPDEST DUP3 MSTORE POP POP JUMP JUMPDEST PUSH1 0x80 DUP3 ADD PUSH1 0x0 DUP3 ADD MLOAD PUSH2 0x144C PUSH1 0x0 DUP6 ADD DUP3 PUSH2 0x1418 JUMP JUMPDEST POP PUSH1 0x20 DUP3 ADD MLOAD PUSH2 0x145F PUSH1 0x20 DUP6 ADD DUP3 PUSH2 0x1418 JUMP JUMPDEST POP PUSH1 0x40 DUP3 ADD MLOAD PUSH2 0x1472 PUSH1 0x40 DUP6 ADD DUP3 PUSH2 0x1427 JUMP JUMPDEST POP PUSH1 0x60 DUP3 ADD MLOAD PUSH2 0x1485 PUSH1 0x60 DUP6 ADD DUP3 PUSH2 0x1427 JUMP JUMPDEST POP POP POP POP JUMP JUMPDEST PUSH1 0x0 PUSH2 0x1497 DUP4 DUP4 PUSH2 0x1436 JUMP JUMPDEST PUSH1 0x80 DUP4 ADD SWAP1 POP SWAP3 SWAP2 POP POP JUMP JUMPDEST PUSH1 0x0 PUSH1 0x20 DUP3 ADD SWAP1 POP SWAP2 SWAP1 POP JUMP JUMPDEST PUSH1 0x0 PUSH2 0x14BB DUP3 PUSH2 0x13EC JUMP JUMPDEST PUSH2 0x14C5 DUP2 DUP6 PUSH2 0x13F7 JUMP JUMPDEST SWAP4 POP PUSH2 0x14D0 DUP4 PUSH2 0x1408 JUMP JUMPDEST DUP1 PUSH1 0x0 JUMPDEST DUP4 DUP2 LT ISZERO PUSH2 0x1501 JUMPI DUP2 MLOAD PUSH2 0x14E8 DUP9 DUP3 PUSH2 0x148B JUMP JUMPDEST SWAP8 POP PUSH2 0x14F3 DUP4 PUSH2 0x14A3 JUMP JUMPDEST SWAP3 POP POP PUSH1 0x1 DUP2 ADD SWAP1 POP PUSH2 0x14D4 JUMP JUMPDEST POP DUP6 SWAP4 POP POP POP POP SWAP3 SWAP2 POP POP JUMP JUMPDEST PUSH1 0x0 PUSH1 0x20 DUP3 ADD SWAP1 POP DUP2 DUP2 SUB PUSH1 0x0 DUP4 ADD MSTORE PUSH2 0x1528 DUP2 DUP5 PUSH2 0x14B0 JUMP JUMPDEST SWAP1 POP SWAP3 SWAP2 POP POP JUMP JUMPDEST PUSH1 0x80 DUP3 ADD PUSH1 0x0 DUP3 ADD MLOAD PUSH2 0x1546 PUSH1 0x0 DUP6 ADD DUP3 PUSH2 0x1418 JUMP JUMPDEST POP PUSH1 0x20 DUP3 ADD MLOAD PUSH2 0x1559 PUSH1 0x20 DUP6 ADD DUP3 PUSH2 0x1418 JUMP JUMPDEST POP PUSH1 0x40 DUP3 ADD MLOAD PUSH2 0x156C PUSH1 0x40 DUP6 ADD DUP3 PUSH2 0x1427 JUMP JUMPDEST POP PUSH1 0x60 DUP3 ADD MLOAD PUSH2 0x157F PUSH1 0x60 DUP6 ADD DUP3 PUSH2 0x1427 JUMP JUMPDEST POP POP POP POP JUMP JUMPDEST PUSH1 0x0 PUSH1 0x80 DUP3 ADD SWAP1 POP PUSH2 0x159A PUSH1 0x0 DUP4 ADD DUP5 PUSH2 0x1530 JUMP JUMPDEST SWAP3 SWAP2 POP POP JUMP JUMPDEST PUSH32 0x2054686973206164647265737320646F65736E27742065786973747300000000 PUSH1 0x0 DUP3 ADD MSTORE POP JUMP JUMPDEST PUSH1 0x0 PUSH2 0x15D6 PUSH1 0x1C DUP4 PUSH2 0x1356 JUMP JUMPDEST SWAP2 POP PUSH2 0x15E1 DUP3 PUSH2 0x15A0 JUMP JUMPDEST PUSH1 0x20 DUP3 ADD SWAP1 POP SWAP2 SWAP1 POP JUMP JUMPDEST PUSH1 0x0 PUSH1 0x20 DUP3 ADD SWAP1 POP DUP2 DUP2 SUB PUSH1 0x0 DUP4 ADD MSTORE PUSH2 0x1605 DUP2 PUSH2 0x15C9 JUMP JUMPDEST SWAP1 POP SWAP2 SWAP1 POP JUMP JUMPDEST PUSH32 0x506C6561736520696E7365727420796F75722063617264000000000000000000 PUSH1 0x0 DUP3 ADD MSTORE POP JUMP JUMPDEST PUSH1 0x0 PUSH2 0x1642 PUSH1 0x17 DUP4 PUSH2 0x1356 JUMP JUMPDEST SWAP2 POP PUSH2 0x164D DUP3 PUSH2 0x160C JUMP JUMPDEST PUSH1 0x20 DUP3 ADD SWAP1 POP SWAP2 SWAP1 POP JUMP JUMPDEST PUSH1 0x0 PUSH1 0x20 DUP3 ADD SWAP1 POP DUP2 DUP2 SUB PUSH1 0x0 DUP4 ADD MSTORE PUSH2 0x1671 DUP2 PUSH2 0x1635 JUMP JUMPDEST SWAP1 POP SWAP2 SWAP1 POP JUMP JUMPDEST PUSH32 0x4E487B7100000000000000000000000000000000000000000000000000000000 PUSH1 0x0 MSTORE PUSH1 0x11 PUSH1 0x4 MSTORE PUSH1 0x24 PUSH1 0x0 REVERT JUMPDEST PUSH1 0x0 PUSH2 0x16B2 DUP3 PUSH2 0xFD8 JUMP JUMPDEST SWAP2 POP PUSH2 0x16BD DUP4 PUSH2 0xFD8 JUMP JUMPDEST SWAP3 POP DUP3 DUP3 ADD SWAP1 POP DUP1 DUP3 GT ISZERO PUSH2 0x16D5 JUMPI PUSH2 0x16D4 PUSH2 0x1678 JUMP JUMPDEST JUMPDEST SWAP3 SWAP2 POP POP JUMP JUMPDEST PUSH32 0x4E487B7100000000000000000000000000000000000000000000000000000000 PUSH1 0x0 MSTORE PUSH1 0x1 PUSH1 0x4 MSTORE PUSH1 0x24 PUSH1 0x0 REVERT JUMPDEST PUSH32 0x6F6E6C792035207472616E73616374696F6E7320706572206461790000000000 PUSH1 0x0 DUP3 ADD MSTORE POP JUMP JUMPDEST PUSH1 0x0 PUSH2 0x1740 PUSH1 0x1B DUP4 PUSH2 0x1356 JUMP JUMPDEST SWAP2 POP PUSH2 0x174B DUP3 PUSH2 0x170A JUMP JUMPDEST PUSH1 0x20 DUP3 ADD SWAP1 POP SWAP2 SWAP1 POP JUMP JUMPDEST PUSH1 0x0 PUSH1 0x20 DUP3 ADD SWAP1 POP DUP2 DUP2 SUB PUSH1 0x0 DUP4 ADD MSTORE PUSH2 0x176F DUP2 PUSH2 0x1733 JUMP JUMPDEST SWAP1 POP SWAP2 SWAP1 POP JUMP JUMPDEST PUSH1 0x0 PUSH2 0x1781 DUP3 PUSH2 0xFD8 JUMP JUMPDEST SWAP2 POP PUSH2 0x178C DUP4 PUSH2 0xFD8 JUMP JUMPDEST SWAP3 POP DUP3 DUP3 SUB SWAP1 POP DUP2 DUP2 GT ISZERO PUSH2 0x17A4 JUMPI PUSH2 0x17A3 PUSH2 0x1678 JUMP JUMPDEST JUMPDEST SWAP3 SWAP2 POP POP JUMP JUMPDEST PUSH32 0x4E487B7100000000000000000000000000000000000000000000000000000000 PUSH1 0x0 MSTORE PUSH1 0x22 PUSH1 0x4 MSTORE PUSH1 0x24 PUSH1 0x0 REVERT JUMPDEST PUSH1 0x0 PUSH1 0x2 DUP3 DIV SWAP1 POP PUSH1 0x1 DUP3 AND DUP1 PUSH2 0x17F1 JUMPI PUSH1 0x7F DUP3 AND SWAP2 POP JUMPDEST PUSH1 0x20 DUP3 LT DUP2 SUB PUSH2 0x1804 JUMPI PUSH2 0x1803 PUSH2 0x17AA JUMP JUMPDEST JUMPDEST POP SWAP2 SWAP1 POP JUMP JUMPDEST PUSH1 0x0 DUP2 SWAP1 POP DUP2 PUSH1 0x0 MSTORE PUSH1 0x20 PUSH1 0x0 KECCAK256 SWAP1 POP SWAP2 SWAP1 POP JUMP JUMPDEST PUSH1 0x0 PUSH1 0x20 PUSH1 0x1F DUP4 ADD DIV SWAP1 POP SWAP2 SWAP1 POP JUMP JUMPDEST PUSH1 0x0 DUP3 DUP3 SHL SWAP1 POP SWAP3 SWAP2 POP POP JUMP JUMPDEST PUSH1 0x0 PUSH1 0x8 DUP4 MUL PUSH2 0x186C PUSH32 0xFFFFFFFFFFFFFFFFFFFFFFFFFFFFFFFFFFFFFFFFFFFFFFFFFFFFFFFFFFFFFFFF DUP3 PUSH2 0x182F JUMP JUMPDEST PUSH2 0x1876 DUP7 DUP4 PUSH2 0x182F JUMP JUMPDEST SWAP6 POP DUP1 NOT DUP5 AND SWAP4 POP DUP1 DUP7 AND DUP5 OR SWAP3 POP POP POP SWAP4 SWAP3 POP POP POP JUMP JUMPDEST PUSH1 0x0 DUP2 SWAP1 POP SWAP2 SWAP1 POP JUMP JUMPDEST PUSH1 0x0 PUSH2 0x18B3 PUSH2 0x18AE PUSH2 0x18A9 DUP5 PUSH2 0xFD8 JUMP JUMPDEST PUSH2 0x188E JUMP JUMPDEST PUSH2 0xFD8 JUMP JUMPDEST SWAP1 POP SWAP2 SWAP1 POP JUMP JUMPDEST PUSH1 0x0 DUP2 SWAP1 POP SWAP2 SWAP1 POP JUMP JUMPDEST PUSH2 0x18CD DUP4 PUSH2 0x1898 JUMP JUMPDEST PUSH2 0x18E1 PUSH2 0x18D9 DUP3 PUSH2 0x18BA JUMP JUMPDEST DUP5 DUP5 SLOAD PUSH2 0x183C JUMP JUMPDEST DUP3 SSTORE POP POP POP POP JUMP JUMPDEST PUSH1 0x0 SWAP1 JUMP JUMPDEST PUSH2 0x18F6 PUSH2 0x18E9 JUMP JUMPDEST PUSH2 0x1901 DUP2 DUP5 DUP5 PUSH2 0x18C4 JUMP JUMPDEST POP POP POP JUMP JUMPDEST JUMPDEST DUP2 DUP2 LT ISZERO PUSH2 0x1925 JUMPI PUSH2 0x191A PUSH1 0x0 DUP3 PUSH2 0x18EE JUMP JUMPDEST PUSH1 0x1 DUP2 ADD SWAP1 POP PUSH2 0x1907 JUMP JUMPDEST POP POP JUMP JUMPDEST PUSH1 0x1F DUP3 GT ISZERO PUSH2 0x196A JUMPI PUSH2 0x193B DUP2 PUSH2 0x180A JUMP JUMPDEST PUSH2 0x1944 DUP5 PUSH2 0x181F JUMP JUMPDEST DUP2 ADD PUSH1 0x20 DUP6 LT ISZERO PUSH2 0x1953 JUMPI DUP2 SWAP1 POP JUMPDEST PUSH2 0x1967 PUSH2 0x195F DUP6 PUSH2 0x181F JUMP JUMPDEST DUP4 ADD DUP3 PUSH2 0x1906 JUMP JUMPDEST POP POP JUMPDEST POP POP POP JUMP JUMPDEST PUSH1 0x0 DUP3 DUP3 SHR SWAP1 POP SWAP3 SWAP2 POP POP JUMP JUMPDEST PUSH1 0x0 PUSH2 0x198D PUSH1 0x0 NOT DUP5 PUSH1 0x8 MUL PUSH2 0x196F JUMP JUMPDEST NOT DUP1 DUP4 AND SWAP2 POP POP SWAP3 SWAP2 POP POP JUMP JUMPDEST PUSH1 0x0 PUSH2 0x19A6 DUP4 DUP4 PUSH2 0x197C JUMP JUMPDEST SWAP2 POP DUP3 PUSH1 0x2 MUL DUP3 OR SWAP1 POP SWAP3 SWAP2 POP POP JUMP JUMPDEST PUSH2 0x19BF DUP3 PUSH2 0x134B JUMP JUMPDEST PUSH8 0xFFFFFFFFFFFFFFFF DUP2 GT ISZERO PUSH2 0x19D8 JUMPI PUSH2 0x19D7 PUSH2 0x1172 JUMP JUMPDEST JUMPDEST PUSH2 0x19E2 DUP3 SLOAD PUSH2 0x17D9 JUMP JUMPDEST PUSH2 0x19ED DUP3 DUP3 DUP6 PUSH2 0x1929 JUMP JUMPDEST PUSH1 0x0 PUSH1 0x20 SWAP1 POP PUSH1 0x1F DUP4 GT PUSH1 0x1 DUP2 EQ PUSH2 0x1A20 JUMPI PUSH1 0x0 DUP5 ISZERO PUSH2 0x1A0E JUMPI DUP3 DUP8 ADD MLOAD SWAP1 POP JUMPDEST PUSH2 0x1A18 DUP6 DUP3 PUSH2 0x199A JUMP JUMPDEST DUP7 SSTORE POP PUSH2 0x1A80 JUMP JUMPDEST PUSH1 0x1F NOT DUP5 AND PUSH2 0x1A2E DUP7 PUSH2 0x180A JUMP JUMPDEST PUSH1 0x0 JUMPDEST DUP3 DUP2 LT ISZERO PUSH2 0x1A56 JUMPI DUP5 DUP10 ADD MLOAD DUP3 SSTORE PUSH1 0x1 DUP3 ADD SWAP2 POP PUSH1 0x20 DUP6 ADD SWAP5 POP PUSH1 0x20 DUP2 ADD SWAP1 POP PUSH2 0x1A31 JUMP JUMPDEST DUP7 DUP4 LT ISZERO PUSH2 0x1A73 JUMPI DUP5 DUP10 ADD MLOAD PUSH2 0x1A6F PUSH1 0x1F DUP10 AND DUP3 PUSH2 0x197C JUMP JUMPDEST DUP4 SSTORE POP JUMPDEST PUSH1 0x1 PUSH1 0x2 DUP9 MUL ADD DUP9 SSTORE POP POP POP JUMPDEST POP POP POP POP POP POP JUMP JUMPDEST PUSH32 0x4E6F7420656E6F7567682066756E647300000000000000000000000000000000 PUSH1 0x0 DUP3 ADD MSTORE POP JUMP JUMPDEST PUSH1 0x0 PUSH2 0x1ABE PUSH1 0x10 DUP4 PUSH2 0x1356 JUMP JUMPDEST SWAP2 POP PUSH2 0x1AC9 DUP3 PUSH2 0x1A88 JUMP JUMPDEST PUSH1 0x20 DUP3 ADD SWAP1 POP SWAP2 SWAP1 POP JUMP JUMPDEST PUSH1 0x0 PUSH1 0x20 DUP3 ADD SWAP1 POP DUP2 DUP2 SUB PUSH1 0x0 DUP4 ADD MSTORE PUSH2 0x1AED DUP2 PUSH2 0x1AB1 JUMP JUMPDEST SWAP1 POP SWAP2 SWAP1 POP JUMP JUMPDEST PUSH32 0x4E6F2076616C6964206372656469742063617264000000000000000000000000 PUSH1 0x0 DUP3 ADD MSTORE POP JUMP JUMPDEST PUSH1 0x0 PUSH2 0x1B2A PUSH1 0x14 DUP4 PUSH2 0x1356 JUMP JUMPDEST SWAP2 POP PUSH2 0x1B35 DUP3 PUSH2 0x1AF4 JUMP JUMPDEST PUSH1 0x20 DUP3 ADD SWAP1 POP SWAP2 SWAP1 POP JUMP JUMPDEST PUSH1 0x0 PUSH1 0x20 DUP3 ADD SWAP1 POP DUP2 DUP2 SUB PUSH1 0x0 DUP4 ADD MSTORE PUSH2 0x1B59 DUP2 PUSH2 0x1B1D JUMP JUMPDEST SWAP1 POP SWAP2 SWAP1 POP JUMP JUMPDEST PUSH1 0x0 PUSH2 0x1B6B DUP3 PUSH2 0xFD8 JUMP JUMPDEST SWAP2 POP PUSH32 0xFFFFFFFFFFFFFFFFFFFFFFFFFFFFFFFFFFFFFFFFFFFFFFFFFFFFFFFFFFFFFFFF DUP3 SUB PUSH2 0x1B9D JUMPI PUSH2 0x1B9C PUSH2 0x1678 JUMP JUMPDEST JUMPDEST PUSH1 0x1 DUP3 ADD SWAP1 POP SWAP2 SWAP1 POP JUMP INVALID LOG2 PUSH5 0x6970667358 0x22 SLT KECCAK256 JUMPI 0xBB CODESIZE 0xD1 DUP16 SWAP7 0xD4 0xBC LOG4 0xA9 LOG0 0xDC DIFFICULTY 0xF9 DUP2 SHR LOG4 JUMP 0x25 PUSH27 0xDF38FBFD88BE73A6AB49C9E164736F6C6343000810003300000000 "
				},
				"gasEstimates": {
					"creation": {
						"codeDepositCost": "1426800",
						"executionCost": "infinite",
						"totalCost": "infinite"
					},
					"external": {
						"TotalAmount()": "2496",
						"TotalFunds()": "2474",
						"amount()": "2473",
						"callCount()": "2518",
						"callPutCard()": "2516",
						"cardNumber()": "infinite",
						"cvv()": "infinite",
						"firstTransferTime()": "2497",
						"getLastTransaction()": "infinite",
						"getNumberOfTransactions()": "2460",
						"getOutCard()": "24522",
						"getTime()": "447",
						"getTransactionById(uint256)": "infinite",
						"getTransactions()": "infinite",
						"message()": "infinite",
						"sendMoney(uint256,address)": "infinite",
						"setCard(string,string)": "infinite",
						"transactionList(uint256)": "infinite",
						"trn(uint256)": "infinite"
					}
				},
				"methodIdentifiers": {
					"TotalAmount()": "7eb9f571",
					"TotalFunds()": "7b9a3f4c",
					"amount()": "aa8c217c",
					"callCount()": "4b28f9a2",
					"callPutCard()": "3c626f00",
					"cardNumber()": "8fa11864",
					"cvv()": "42fb7936",
					"firstTransferTime()": "0e85fa72",
					"getLastTransaction()": "f7e03fd8",
					"getNumberOfTransactions()": "24ba506d",
					"getOutCard()": "8e029c0b",
					"getTime()": "557ed1ba",
					"getTransactionById(uint256)": "f4b30eaf",
					"getTransactions()": "83920e90",
					"message()": "e21f37ce",
					"sendMoney(uint256,address)": "062a7544",
					"setCard(string,string)": "12a029a4",
					"transactionList(uint256)": "04ef5b21",
					"trn(uint256)": "57bf72e3"
				}
			},
			"storageLayout": {
				"storage": [
					{
						"astId": 271,
						"contract": "Dapp/MoneyTransfer.sol:MoneyTransfer",
						"label": "transactionList",
						"offset": 0,
						"slot": "0",
						"type": "t_array(t_struct(Transactions)267_storage)dyn_storage"
					},
					{
						"astId": 276,
						"contract": "Dapp/MoneyTransfer.sol:MoneyTransfer",
						"label": "trn",
						"offset": 0,
						"slot": "1",
						"type": "t_mapping(t_uint256,t_struct(Transactions)267_storage)"
					},
					{
						"astId": 279,
						"contract": "Dapp/MoneyTransfer.sol:MoneyTransfer",
						"label": "counter",
						"offset": 0,
						"slot": "2",
						"type": "t_uint256"
					},
					{
						"astId": 6,
						"contract": "Dapp/MoneyTransfer.sol:MoneyTransfer",
						"label": "amount",
						"offset": 0,
						"slot": "3",
						"type": "t_uint256"
					},
					{
						"astId": 8,
						"contract": "Dapp/MoneyTransfer.sol:MoneyTransfer",
						"label": "TotalFunds",
						"offset": 0,
						"slot": "4",
						"type": "t_uint256"
					},
					{
						"astId": 10,
						"contract": "Dapp/MoneyTransfer.sol:MoneyTransfer",
						"label": "receiver",
						"offset": 0,
						"slot": "5",
						"type": "t_address"
					},
					{
						"astId": 12,
						"contract": "Dapp/MoneyTransfer.sol:MoneyTransfer",
						"label": "message",
						"offset": 0,
						"slot": "6",
						"type": "t_string_storage"
					},
					{
						"astId": 14,
						"contract": "Dapp/MoneyTransfer.sol:MoneyTransfer",
						"label": "cardNumber",
						"offset": 0,
						"slot": "7",
						"type": "t_string_storage"
					},
					{
						"astId": 16,
						"contract": "Dapp/MoneyTransfer.sol:MoneyTransfer",
						"label": "cvv",
						"offset": 0,
						"slot": "8",
						"type": "t_string_storage"
					},
					{
						"astId": 18,
						"contract": "Dapp/MoneyTransfer.sol:MoneyTransfer",
						"label": "TotalAmount",
						"offset": 0,
						"slot": "9",
						"type": "t_uint256"
					},
					{
						"astId": 20,
						"contract": "Dapp/MoneyTransfer.sol:MoneyTransfer",
						"label": "firstTransferTime",
						"offset": 0,
						"slot": "10",
						"type": "t_uint256"
					},
					{
						"astId": 33,
						"contract": "Dapp/MoneyTransfer.sol:MoneyTransfer",
						"label": "callCount",
						"offset": 0,
						"slot": "11",
						"type": "t_uint256"
					},
					{
						"astId": 36,
						"contract": "Dapp/MoneyTransfer.sol:MoneyTransfer",
						"label": "callPutCard",
						"offset": 0,
						"slot": "12",
						"type": "t_bool"
					}
				],
				"types": {
					"t_address": {
						"encoding": "inplace",
						"label": "address",
						"numberOfBytes": "20"
					},
					"t_array(t_struct(Transactions)267_storage)dyn_storage": {
						"base": "t_struct(Transactions)267_storage",
						"encoding": "dynamic_array",
						"label": "struct Transaction.Transactions[]",
						"numberOfBytes": "32"
					},
					"t_bool": {
						"encoding": "inplace",
						"label": "bool",
						"numberOfBytes": "1"
					},
					"t_mapping(t_uint256,t_struct(Transactions)267_storage)": {
						"encoding": "mapping",
						"key": "t_uint256",
						"label": "mapping(uint256 => struct Transaction.Transactions)",
						"numberOfBytes": "32",
						"value": "t_struct(Transactions)267_storage"
					},
					"t_string_storage": {
						"encoding": "bytes",
						"label": "string",
						"numberOfBytes": "32"
					},
					"t_struct(Transactions)267_storage": {
						"encoding": "inplace",
						"label": "struct Transaction.Transactions",
						"members": [
							{
								"astId": 260,
								"contract": "Dapp/MoneyTransfer.sol:MoneyTransfer",
								"label": "address_from",
								"offset": 0,
								"slot": "0",
								"type": "t_address"
							},
							{
								"astId": 262,
								"contract": "Dapp/MoneyTransfer.sol:MoneyTransfer",
								"label": "address_to",
								"offset": 0,
								"slot": "1",
								"type": "t_address"
							},
							{
								"astId": 264,
								"contract": "Dapp/MoneyTransfer.sol:MoneyTransfer",
								"label": "amount",
								"offset": 0,
								"slot": "2",
								"type": "t_uint256"
							},
							{
								"astId": 266,
								"contract": "Dapp/MoneyTransfer.sol:MoneyTransfer",
								"label": "timestamp",
								"offset": 0,
								"slot": "3",
								"type": "t_uint256"
							}
						],
						"numberOfBytes": "128"
					},
					"t_uint256": {
						"encoding": "inplace",
						"label": "uint256",
						"numberOfBytes": "32"
					}
				}
			},
			"userdoc": {
				"kind": "user",
				"methods": {},
				"version": 1
			}
		}
	}
}