{
	"Dapp/MoneyTransfer.sol": {
		"MoneyTransfer": {
			"abi": [
				{
					"inputs": [
						{
							"internalType": "uint256",
							"name": "_totalFunds",
							"type": "uint256"
						}
					],
					"stateMutability": "nonpayable",
					"type": "constructor"
				},
				{
					"inputs": [],
					"name": "TotalAmount",
					"outputs": [
						{
							"internalType": "uint256",
							"name": "",
							"type": "uint256"
						}
					],
					"stateMutability": "view",
					"type": "function"
				},
				{
					"inputs": [],
					"name": "TotalFunds",
					"outputs": [
						{
							"internalType": "uint256",
							"name": "",
							"type": "uint256"
						}
					],
					"stateMutability": "view",
					"type": "function"
				},
				{
					"inputs": [],
					"name": "amount",
					"outputs": [
						{
							"internalType": "uint256",
							"name": "",
							"type": "uint256"
						}
					],
					"stateMutability": "view",
					"type": "function"
				},
				{
					"inputs": [],
					"name": "callCount",
					"outputs": [
						{
							"internalType": "uint256",
							"name": "",
							"type": "uint256"
						}
					],
					"stateMutability": "view",
					"type": "function"
				},
				{
					"inputs": [],
					"name": "callPutCard",
					"outputs": [
						{
							"internalType": "bool",
							"name": "",
							"type": "bool"
						}
					],
					"stateMutability": "view",
					"type": "function"
				},
				{
					"inputs": [],
					"name": "cardNumber",
					"outputs": [
						{
							"internalType": "string",
							"name": "",
							"type": "string"
						}
					],
					"stateMutability": "view",
					"type": "function"
				},
				{
					"inputs": [],
					"name": "countTransfer",
					"outputs": [
						{
							"internalType": "uint256",
							"name": "",
							"type": "uint256"
						}
					],
					"stateMutability": "view",
					"type": "function"
				},
				{
					"inputs": [],
					"name": "cvv",
					"outputs": [
						{
							"internalType": "string",
							"name": "",
							"type": "string"
						}
					],
					"stateMutability": "view",
					"type": "function"
				},
				{
					"inputs": [],
					"name": "firstTransferTime",
					"outputs": [
						{
							"internalType": "uint256",
							"name": "",
							"type": "uint256"
						}
					],
					"stateMutability": "view",
					"type": "function"
				},
				{
					"inputs": [],
					"name": "getOutCard",
					"outputs": [],
					"stateMutability": "nonpayable",
					"type": "function"
				},
				{
					"inputs": [],
					"name": "message",
					"outputs": [
						{
							"internalType": "string",
							"name": "",
							"type": "string"
						}
					],
					"stateMutability": "view",
					"type": "function"
				},
				{
					"inputs": [],
					"name": "receiverFunds",
					"outputs": [
						{
							"internalType": "uint256",
							"name": "",
							"type": "uint256"
						}
					],
					"stateMutability": "view",
					"type": "function"
				},
				{
					"inputs": [
						{
							"internalType": "uint256",
							"name": "_amount",
							"type": "uint256"
						},
						{
							"internalType": "address",
							"name": "_receiver",
							"type": "address"
						}
					],
					"name": "sendMoney",
					"outputs": [],
					"stateMutability": "nonpayable",
					"type": "function"
				},
				{
					"inputs": [],
					"name": "totalWeekTransactions",
					"outputs": [
						{
							"internalType": "uint256",
							"name": "",
							"type": "uint256"
						}
					],
					"stateMutability": "view",
					"type": "function"
				}
			],
			"devdoc": {
				"kind": "dev",
				"methods": {},
				"version": 1
			},
			"evm": {
				"assembly": "    /* \"Dapp/MoneyTransfer.sol\":71:2655  contract  MoneyTransfer {... */\n  mstore(0x40, 0x80)\n    /* \"Dapp/MoneyTransfer.sol\":237:245  24 hours */\n  0x015180\n    /* \"Dapp/MoneyTransfer.sol\":226:245  uint day = 24 hours */\n  0x03\n  sstore\n    /* \"Dapp/MoneyTransfer.sol\":785:786  0 */\n  0x00\n    /* \"Dapp/MoneyTransfer.sol\":761:786  uint public callCount = 0 */\n  0x0f\n  sstore\n    /* \"Dapp/MoneyTransfer.sol\":820:825  false */\n  0x00\n    /* \"Dapp/MoneyTransfer.sol\":794:825  bool public callPutCard = false */\n  0x10\n  exp(0x0100, 0x00)\n  dup2\n  sload\n  dup2\n  0xff\n  mul\n  not\n  and\n  swap1\n  dup4\n  iszero\n  iszero\n  mul\n  or\n  swap1\n  sstore\n  pop\n    /* \"Dapp/MoneyTransfer.sol\":599:749  constructor (uint256 _totalFunds) m_checkCard{... */\n  callvalue\n  dup1\n  iszero\n  tag_1\n  jumpi\n  0x00\n  dup1\n  revert\ntag_1:\n  pop\n  mload(0x40)\n  sub(codesize, bytecodeSize)\n  dup1\n  bytecodeSize\n  dup4\n  codecopy\n  dup2\n  dup2\n  add\n  0x40\n  mstore\n  dup2\n  add\n  swap1\n  tag_2\n  swap2\n  swap1\n  tag_3\n  jump\t// in\ntag_2:\n    /* \"Dapp/MoneyTransfer.sol\":1994:1995  8 */\n  0x08\n    /* \"Dapp/MoneyTransfer.sol\":1972:1982  cardNumber */\n  0x0a\n    /* \"Dapp/MoneyTransfer.sol\":1966:1990  bytes(cardNumber).length */\n  dup1\n  sload\n  tag_6\n  swap1\n  tag_7\n  jump\t// in\ntag_6:\n  swap1\n  pop\n    /* \"Dapp/MoneyTransfer.sol\":1966:1995  bytes(cardNumber).length == 8 */\n  eq\n    /* \"Dapp/MoneyTransfer.sol\":1966:2021  bytes(cardNumber).length == 8 && bytes(cvv).length == 3 */\n  dup1\n  iszero\n  tag_8\n  jumpi\n  pop\n    /* \"Dapp/MoneyTransfer.sol\":2020:2021  3 */\n  0x03\n    /* \"Dapp/MoneyTransfer.sol\":2005:2008  cvv */\n  0x0b\n    /* \"Dapp/MoneyTransfer.sol\":1999:2016  bytes(cvv).length */\n  dup1\n  sload\n  tag_9\n  swap1\n  tag_7\n  jump\t// in\ntag_9:\n  swap1\n  pop\n    /* \"Dapp/MoneyTransfer.sol\":1999:2021  bytes(cvv).length == 3 */\n  eq\n    /* \"Dapp/MoneyTransfer.sol\":1966:2021  bytes(cardNumber).length == 8 && bytes(cvv).length == 3 */\ntag_8:\n    /* \"Dapp/MoneyTransfer.sol\":1958:2046  require(bytes(cardNumber).length == 8 && bytes(cvv).length == 3, \"No valid credit card\") */\n  tag_10\n  jumpi\n  mload(0x40)\n  0x08c379a000000000000000000000000000000000000000000000000000000000\n  dup2\n  mstore\n  0x04\n  add\n  tag_11\n  swap1\n  tag_12\n  jump\t// in\ntag_11:\n  mload(0x40)\n  dup1\n  swap2\n  sub\n  swap1\n  revert\ntag_10:\n    /* \"Dapp/MoneyTransfer.sol\":730:741  _totalFunds */\n  dup1\n    /* \"Dapp/MoneyTransfer.sol\":717:727  TotalFunds */\n  0x01\n    /* \"Dapp/MoneyTransfer.sol\":717:741  TotalFunds = _totalFunds */\n  dup2\n  swap1\n  sstore\n  pop\n    /* \"Dapp/MoneyTransfer.sol\":599:749  constructor (uint256 _totalFunds) m_checkCard{... */\n  pop\n    /* \"Dapp/MoneyTransfer.sol\":71:2655  contract  MoneyTransfer {... */\n  jump(tag_14)\n    /* \"#utility.yul\":88:205   */\ntag_16:\n    /* \"#utility.yul\":197:198   */\n  0x00\n    /* \"#utility.yul\":194:195   */\n  dup1\n    /* \"#utility.yul\":187:199   */\n  revert\n    /* \"#utility.yul\":334:411   */\ntag_18:\n    /* \"#utility.yul\":371:378   */\n  0x00\n    /* \"#utility.yul\":400:405   */\n  dup2\n    /* \"#utility.yul\":389:405   */\n  swap1\n  pop\n    /* \"#utility.yul\":334:411   */\n  swap2\n  swap1\n  pop\n  jump\t// out\n    /* \"#utility.yul\":417:539   */\ntag_19:\n    /* \"#utility.yul\":490:514   */\n  tag_31\n    /* \"#utility.yul\":508:513   */\n  dup2\n    /* \"#utility.yul\":490:514   */\n  tag_18\n  jump\t// in\ntag_31:\n    /* \"#utility.yul\":483:488   */\n  dup2\n    /* \"#utility.yul\":480:515   */\n  eq\n    /* \"#utility.yul\":470:533   */\n  tag_32\n  jumpi\n    /* \"#utility.yul\":529:530   */\n  0x00\n    /* \"#utility.yul\":526:527   */\n  dup1\n    /* \"#utility.yul\":519:531   */\n  revert\n    /* \"#utility.yul\":470:533   */\ntag_32:\n    /* \"#utility.yul\":417:539   */\n  pop\n  jump\t// out\n    /* \"#utility.yul\":545:688   */\ntag_20:\n    /* \"#utility.yul\":602:607   */\n  0x00\n    /* \"#utility.yul\":633:639   */\n  dup2\n    /* \"#utility.yul\":627:640   */\n  mload\n    /* \"#utility.yul\":618:640   */\n  swap1\n  pop\n    /* \"#utility.yul\":649:682   */\n  tag_34\n    /* \"#utility.yul\":676:681   */\n  dup2\n    /* \"#utility.yul\":649:682   */\n  tag_19\n  jump\t// in\ntag_34:\n    /* \"#utility.yul\":545:688   */\n  swap3\n  swap2\n  pop\n  pop\n  jump\t// out\n    /* \"#utility.yul\":694:1045   */\ntag_3:\n    /* \"#utility.yul\":764:770   */\n  0x00\n    /* \"#utility.yul\":813:815   */\n  0x20\n    /* \"#utility.yul\":801:810   */\n  dup3\n    /* \"#utility.yul\":792:799   */\n  dup5\n    /* \"#utility.yul\":788:811   */\n  sub\n    /* \"#utility.yul\":784:816   */\n  slt\n    /* \"#utility.yul\":781:900   */\n  iszero\n  tag_36\n  jumpi\n    /* \"#utility.yul\":819:898   */\n  tag_37\n  tag_16\n  jump\t// in\ntag_37:\n    /* \"#utility.yul\":781:900   */\ntag_36:\n    /* \"#utility.yul\":939:940   */\n  0x00\n    /* \"#utility.yul\":964:1028   */\n  tag_38\n    /* \"#utility.yul\":1020:1027   */\n  dup5\n    /* \"#utility.yul\":1011:1017   */\n  dup3\n    /* \"#utility.yul\":1000:1009   */\n  dup6\n    /* \"#utility.yul\":996:1018   */\n  add\n    /* \"#utility.yul\":964:1028   */\n  tag_20\n  jump\t// in\ntag_38:\n    /* \"#utility.yul\":954:1028   */\n  swap2\n  pop\n    /* \"#utility.yul\":910:1038   */\n  pop\n    /* \"#utility.yul\":694:1045   */\n  swap3\n  swap2\n  pop\n  pop\n  jump\t// out\n    /* \"#utility.yul\":1051:1231   */\ntag_21:\n    /* \"#utility.yul\":1099:1176   */\n  0x4e487b7100000000000000000000000000000000000000000000000000000000\n    /* \"#utility.yul\":1096:1097   */\n  0x00\n    /* \"#utility.yul\":1089:1177   */\n  mstore\n    /* \"#utility.yul\":1196:1200   */\n  0x22\n    /* \"#utility.yul\":1193:1194   */\n  0x04\n    /* \"#utility.yul\":1186:1201   */\n  mstore\n    /* \"#utility.yul\":1220:1224   */\n  0x24\n    /* \"#utility.yul\":1217:1218   */\n  0x00\n    /* \"#utility.yul\":1210:1225   */\n  revert\n    /* \"#utility.yul\":1237:1557   */\ntag_7:\n    /* \"#utility.yul\":1281:1287   */\n  0x00\n    /* \"#utility.yul\":1318:1319   */\n  0x02\n    /* \"#utility.yul\":1312:1316   */\n  dup3\n    /* \"#utility.yul\":1308:1320   */\n  div\n    /* \"#utility.yul\":1298:1320   */\n  swap1\n  pop\n    /* \"#utility.yul\":1365:1366   */\n  0x01\n    /* \"#utility.yul\":1359:1363   */\n  dup3\n    /* \"#utility.yul\":1355:1367   */\n  and\n    /* \"#utility.yul\":1386:1404   */\n  dup1\n    /* \"#utility.yul\":1376:1457   */\n  tag_41\n  jumpi\n    /* \"#utility.yul\":1442:1446   */\n  0x7f\n    /* \"#utility.yul\":1434:1440   */\n  dup3\n    /* \"#utility.yul\":1430:1447   */\n  and\n    /* \"#utility.yul\":1420:1447   */\n  swap2\n  pop\n    /* \"#utility.yul\":1376:1457   */\ntag_41:\n    /* \"#utility.yul\":1504:1506   */\n  0x20\n    /* \"#utility.yul\":1496:1502   */\n  dup3\n    /* \"#utility.yul\":1493:1507   */\n  lt\n    /* \"#utility.yul\":1473:1491   */\n  dup2\n    /* \"#utility.yul\":1470:1508   */\n  sub\n    /* \"#utility.yul\":1467:1551   */\n  tag_42\n  jumpi\n    /* \"#utility.yul\":1523:1541   */\n  tag_43\n  tag_21\n  jump\t// in\ntag_43:\n    /* \"#utility.yul\":1467:1551   */\ntag_42:\n    /* \"#utility.yul\":1288:1557   */\n  pop\n    /* \"#utility.yul\":1237:1557   */\n  swap2\n  swap1\n  pop\n  jump\t// out\n    /* \"#utility.yul\":1563:1732   */\ntag_22:\n    /* \"#utility.yul\":1647:1658   */\n  0x00\n    /* \"#utility.yul\":1681:1687   */\n  dup3\n    /* \"#utility.yul\":1676:1679   */\n  dup3\n    /* \"#utility.yul\":1669:1688   */\n  mstore\n    /* \"#utility.yul\":1721:1725   */\n  0x20\n    /* \"#utility.yul\":1716:1719   */\n  dup3\n    /* \"#utility.yul\":1712:1726   */\n  add\n    /* \"#utility.yul\":1697:1726   */\n  swap1\n  pop\n    /* \"#utility.yul\":1563:1732   */\n  swap3\n  swap2\n  pop\n  pop\n  jump\t// out\n    /* \"#utility.yul\":1738:1908   */\ntag_23:\n    /* \"#utility.yul\":1878:1900   */\n  0x4e6f2076616c6964206372656469742063617264000000000000000000000000\n    /* \"#utility.yul\":1874:1875   */\n  0x00\n    /* \"#utility.yul\":1866:1872   */\n  dup3\n    /* \"#utility.yul\":1862:1876   */\n  add\n    /* \"#utility.yul\":1855:1901   */\n  mstore\n    /* \"#utility.yul\":1738:1908   */\n  pop\n  jump\t// out\n    /* \"#utility.yul\":1914:2280   */\ntag_24:\n    /* \"#utility.yul\":2056:2059   */\n  0x00\n    /* \"#utility.yul\":2077:2144   */\n  tag_47\n    /* \"#utility.yul\":2141:2143   */\n  0x14\n    /* \"#utility.yul\":2136:2139   */\n  dup4\n    /* \"#utility.yul\":2077:2144   */\n  tag_22\n  jump\t// in\ntag_47:\n    /* \"#utility.yul\":2070:2144   */\n  swap2\n  pop\n    /* \"#utility.yul\":2153:2246   */\n  tag_48\n    /* \"#utility.yul\":2242:2245   */\n  dup3\n    /* \"#utility.yul\":2153:2246   */\n  tag_23\n  jump\t// in\ntag_48:\n    /* \"#utility.yul\":2271:2273   */\n  0x20\n    /* \"#utility.yul\":2266:2269   */\n  dup3\n    /* \"#utility.yul\":2262:2274   */\n  add\n    /* \"#utility.yul\":2255:2274   */\n  swap1\n  pop\n    /* \"#utility.yul\":1914:2280   */\n  swap2\n  swap1\n  pop\n  jump\t// out\n    /* \"#utility.yul\":2286:2705   */\ntag_12:\n    /* \"#utility.yul\":2452:2456   */\n  0x00\n    /* \"#utility.yul\":2490:2492   */\n  0x20\n    /* \"#utility.yul\":2479:2488   */\n  dup3\n    /* \"#utility.yul\":2475:2493   */\n  add\n    /* \"#utility.yul\":2467:2493   */\n  swap1\n  pop\n    /* \"#utility.yul\":2539:2548   */\n  dup2\n    /* \"#utility.yul\":2533:2537   */\n  dup2\n    /* \"#utility.yul\":2529:2549   */\n  sub\n    /* \"#utility.yul\":2525:2526   */\n  0x00\n    /* \"#utility.yul\":2514:2523   */\n  dup4\n    /* \"#utility.yul\":2510:2527   */\n  add\n    /* \"#utility.yul\":2503:2550   */\n  mstore\n    /* \"#utility.yul\":2567:2698   */\n  tag_50\n    /* \"#utility.yul\":2693:2697   */\n  dup2\n    /* \"#utility.yul\":2567:2698   */\n  tag_24\n  jump\t// in\ntag_50:\n    /* \"#utility.yul\":2559:2698   */\n  swap1\n  pop\n    /* \"#utility.yul\":2286:2705   */\n  swap2\n  swap1\n  pop\n  jump\t// out\n    /* \"Dapp/MoneyTransfer.sol\":71:2655  contract  MoneyTransfer {... */\ntag_14:\n  dataSize(sub_0)\n  dup1\n  dataOffset(sub_0)\n  0x00\n  codecopy\n  0x00\n  return\nstop\n\nsub_0: assembly {\n        /* \"Dapp/MoneyTransfer.sol\":71:2655  contract  MoneyTransfer {... */\n      mstore(0x40, 0x80)\n      callvalue\n      dup1\n      iszero\n      tag_1\n      jumpi\n      0x00\n      dup1\n      revert\n    tag_1:\n      pop\n      jumpi(tag_2, lt(calldatasize, 0x04))\n      shr(0xe0, calldataload(0x00))\n      dup1\n      0x7eb9f571\n      gt\n      tag_17\n      jumpi\n      dup1\n      0x94b5dcaa\n      gt\n      tag_18\n      jumpi\n      dup1\n      0x94b5dcaa\n      eq\n      tag_13\n      jumpi\n      dup1\n      0xaa8c217c\n      eq\n      tag_14\n      jumpi\n      dup1\n      0xbc309496\n      eq\n      tag_15\n      jumpi\n      dup1\n      0xe21f37ce\n      eq\n      tag_16\n      jumpi\n      jump(tag_2)\n    tag_18:\n      dup1\n      0x7eb9f571\n      eq\n      tag_10\n      jumpi\n      dup1\n      0x8e029c0b\n      eq\n      tag_11\n      jumpi\n      dup1\n      0x8fa11864\n      eq\n      tag_12\n      jumpi\n      jump(tag_2)\n    tag_17:\n      dup1\n      0x3c626f00\n      gt\n      tag_19\n      jumpi\n      dup1\n      0x3c626f00\n      eq\n      tag_6\n      jumpi\n      dup1\n      0x42fb7936\n      eq\n      tag_7\n      jumpi\n      dup1\n      0x4b28f9a2\n      eq\n      tag_8\n      jumpi\n      dup1\n      0x7b9a3f4c\n      eq\n      tag_9\n      jumpi\n      jump(tag_2)\n    tag_19:\n      dup1\n      0x062a7544\n      eq\n      tag_3\n      jumpi\n      dup1\n      0x0e85fa72\n      eq\n      tag_4\n      jumpi\n      dup1\n      0x34f5ccde\n      eq\n      tag_5\n      jumpi\n    tag_2:\n      0x00\n      dup1\n      revert\n        /* \"Dapp/MoneyTransfer.sol\":835:1537  function sendMoney( uint _amount, address _receiver) public m_validAddress(_receiver) m_ifCardExists m_transferLimit{... */\n    tag_3:\n      tag_20\n      0x04\n      dup1\n      calldatasize\n      sub\n      dup2\n      add\n      swap1\n      tag_21\n      swap2\n      swap1\n      tag_22\n      jump\t// in\n    tag_21:\n      tag_23\n      jump\t// in\n    tag_20:\n      stop\n        /* \"Dapp/MoneyTransfer.sol\":524:553  uint public firstTransferTime */\n    tag_4:\n      tag_24\n      tag_25\n      jump\t// in\n    tag_24:\n      mload(0x40)\n      tag_26\n      swap2\n      swap1\n      tag_27\n      jump\t// in\n    tag_26:\n      mload(0x40)\n      dup1\n      swap2\n      sub\n      swap1\n      return\n        /* \"Dapp/MoneyTransfer.sol\":560:585  uint public countTransfer */\n    tag_5:\n      tag_28\n      tag_29\n      jump\t// in\n    tag_28:\n      mload(0x40)\n      tag_30\n      swap2\n      swap1\n      tag_27\n      jump\t// in\n    tag_30:\n      mload(0x40)\n      dup1\n      swap2\n      sub\n      swap1\n      return\n        /* \"Dapp/MoneyTransfer.sol\":794:825  bool public callPutCard = false */\n    tag_6:\n      tag_31\n      tag_32\n      jump\t// in\n    tag_31:\n      mload(0x40)\n      tag_33\n      swap2\n      swap1\n      tag_34\n      jump\t// in\n    tag_33:\n      mload(0x40)\n      dup1\n      swap2\n      sub\n      swap1\n      return\n        /* \"Dapp/MoneyTransfer.sol\":470:487  string public cvv */\n    tag_7:\n      tag_35\n      tag_36\n      jump\t// in\n    tag_35:\n      mload(0x40)\n      tag_37\n      swap2\n      swap1\n      tag_38\n      jump\t// in\n    tag_37:\n      mload(0x40)\n      dup1\n      swap2\n      sub\n      swap1\n      return\n        /* \"Dapp/MoneyTransfer.sol\":761:786  uint public callCount = 0 */\n    tag_8:\n      tag_39\n      tag_40\n      jump\t// in\n    tag_39:\n      mload(0x40)\n      tag_41\n      swap2\n      swap1\n      tag_27\n      jump\t// in\n    tag_41:\n      mload(0x40)\n      dup1\n      swap2\n      sub\n      swap1\n      return\n        /* \"Dapp/MoneyTransfer.sol\":134:159  uint256 public TotalFunds */\n    tag_9:\n      tag_42\n      tag_43\n      jump\t// in\n    tag_42:\n      mload(0x40)\n      tag_44\n      swap2\n      swap1\n      tag_27\n      jump\t// in\n    tag_44:\n      mload(0x40)\n      dup1\n      swap2\n      sub\n      swap1\n      return\n        /* \"Dapp/MoneyTransfer.sol\":494:520  uint256 public TotalAmount */\n    tag_10:\n      tag_45\n      tag_46\n      jump\t// in\n    tag_45:\n      mload(0x40)\n      tag_47\n      swap2\n      swap1\n      tag_27\n      jump\t// in\n    tag_47:\n      mload(0x40)\n      dup1\n      swap2\n      sub\n      swap1\n      return\n        /* \"Dapp/MoneyTransfer.sol\":1669:1738  function getOutCard() public  {... */\n    tag_11:\n      tag_48\n      tag_49\n      jump\t// in\n    tag_48:\n      stop\n        /* \"Dapp/MoneyTransfer.sol\":438:462  string public cardNumber */\n    tag_12:\n      tag_50\n      tag_51\n      jump\t// in\n    tag_50:\n      mload(0x40)\n      tag_52\n      swap2\n      swap1\n      tag_38\n      jump\t// in\n    tag_52:\n      mload(0x40)\n      dup1\n      swap2\n      sub\n      swap1\n      return\n        /* \"Dapp/MoneyTransfer.sol\":252:288  uint256 public totalWeekTransactions */\n    tag_13:\n      tag_53\n      tag_54\n      jump\t// in\n    tag_53:\n      mload(0x40)\n      tag_55\n      swap2\n      swap1\n      tag_27\n      jump\t// in\n    tag_55:\n      mload(0x40)\n      dup1\n      swap2\n      sub\n      swap1\n      return\n        /* \"Dapp/MoneyTransfer.sol\":106:127  uint256 public amount */\n    tag_14:\n      tag_56\n      tag_57\n      jump\t// in\n    tag_56:\n      mload(0x40)\n      tag_58\n      swap2\n      swap1\n      tag_27\n      jump\t// in\n    tag_58:\n      mload(0x40)\n      dup1\n      swap2\n      sub\n      swap1\n      return\n        /* \"Dapp/MoneyTransfer.sol\":375:403  uint256 public receiverFunds */\n    tag_15:\n      tag_59\n      tag_60\n      jump\t// in\n    tag_59:\n      mload(0x40)\n      tag_61\n      swap2\n      swap1\n      tag_27\n      jump\t// in\n    tag_61:\n      mload(0x40)\n      dup1\n      swap2\n      sub\n      swap1\n      return\n        /* \"Dapp/MoneyTransfer.sol\":410:431  string public message */\n    tag_16:\n      tag_62\n      tag_63\n      jump\t// in\n    tag_62:\n      mload(0x40)\n      tag_64\n      swap2\n      swap1\n      tag_38\n      jump\t// in\n    tag_64:\n      mload(0x40)\n      dup1\n      swap2\n      sub\n      swap1\n      return\n        /* \"Dapp/MoneyTransfer.sol\":835:1537  function sendMoney( uint _amount, address _receiver) public m_validAddress(_receiver) m_ifCardExists m_transferLimit{... */\n    tag_23:\n        /* \"Dapp/MoneyTransfer.sol\":910:919  _receiver */\n      dup1\n        /* \"Dapp/MoneyTransfer.sol\":1807:1812  _addr */\n      dup1\n        /* \"Dapp/MoneyTransfer.sol\":1796:1804  receiver */\n      0x02\n      0x00\n        /* \"Dapp/MoneyTransfer.sol\":1796:1812  receiver = _addr */\n      0x0100\n      exp\n      dup2\n      sload\n      dup2\n      0xffffffffffffffffffffffffffffffffffffffff\n      mul\n      not\n      and\n      swap1\n      dup4\n      0xffffffffffffffffffffffffffffffffffffffff\n      and\n      mul\n      or\n      swap1\n      sstore\n      pop\n        /* \"Dapp/MoneyTransfer.sol\":1848:1849  0 */\n      0x00\n        /* \"Dapp/MoneyTransfer.sol\":1831:1850  _addr != address(0) */\n      0xffffffffffffffffffffffffffffffffffffffff\n      and\n        /* \"Dapp/MoneyTransfer.sol\":1831:1836  _addr */\n      dup2\n        /* \"Dapp/MoneyTransfer.sol\":1831:1850  _addr != address(0) */\n      0xffffffffffffffffffffffffffffffffffffffff\n      and\n      sub\n        /* \"Dapp/MoneyTransfer.sol\":1823:1883  require(_addr != address(0), \" This address doesn't exists\") */\n      tag_66\n      jumpi\n      mload(0x40)\n      0x08c379a000000000000000000000000000000000000000000000000000000000\n      dup2\n      mstore\n      0x04\n      add\n      tag_67\n      swap1\n      tag_68\n      jump\t// in\n    tag_67:\n      mload(0x40)\n      dup1\n      swap2\n      sub\n      swap1\n      revert\n    tag_66:\n        /* \"Dapp/MoneyTransfer.sol\":2151:2156  false */\n      0x00\n        /* \"Dapp/MoneyTransfer.sol\":2136:2156  callPutCard != false */\n      iszero\n      iszero\n        /* \"Dapp/MoneyTransfer.sol\":2136:2147  callPutCard */\n      0x10\n      0x00\n      swap1\n      sload\n      swap1\n      0x0100\n      exp\n      swap1\n      div\n      0xff\n      and\n        /* \"Dapp/MoneyTransfer.sol\":2136:2156  callPutCard != false */\n      iszero\n      iszero\n      sub\n        /* \"Dapp/MoneyTransfer.sol\":2128:2183  require(callPutCard != false,\"Please insert your card\") */\n      tag_70\n      jumpi\n      mload(0x40)\n      0x08c379a000000000000000000000000000000000000000000000000000000000\n      dup2\n      mstore\n      0x04\n      add\n      tag_71\n      swap1\n      tag_72\n      jump\t// in\n    tag_71:\n      mload(0x40)\n      dup1\n      swap2\n      sub\n      swap1\n      revert\n    tag_70:\n        /* \"Dapp/MoneyTransfer.sol\":2297:2301  2500 */\n      0x09c4\n        /* \"Dapp/MoneyTransfer.sol\":2282:2293  TotalAmount */\n      sload(0x0c)\n        /* \"Dapp/MoneyTransfer.sol\":2282:2301  TotalAmount <= 2500 */\n      gt\n      iszero\n        /* \"Dapp/MoneyTransfer.sol\":2273:2328  require (TotalAmount <= 2500 , \"You reached the limit\") */\n      tag_74\n      jumpi\n      mload(0x40)\n      0x08c379a000000000000000000000000000000000000000000000000000000000\n      dup2\n      mstore\n      0x04\n      add\n      tag_75\n      swap1\n      tag_76\n      jump\t// in\n    tag_75:\n      mload(0x40)\n      dup1\n      swap2\n      sub\n      swap1\n      revert\n    tag_74:\n        /* \"Dapp/MoneyTransfer.sol\":2360:2375  block.timestamp */\n      timestamp\n        /* \"Dapp/MoneyTransfer.sol\":2340:2357  firstTransferTime */\n      0x0d\n        /* \"Dapp/MoneyTransfer.sol\":2340:2375  firstTransferTime = block.timestamp */\n      dup2\n      swap1\n      sstore\n      pop\n        /* \"Dapp/MoneyTransfer.sol\":2576:2586  30 seconds */\n      0x1e\n        /* \"Dapp/MoneyTransfer.sol\":2556:2573  firstTransferTime */\n      sload(0x0d)\n        /* \"Dapp/MoneyTransfer.sol\":2556:2586  firstTransferTime + 30 seconds */\n      tag_77\n      swap2\n      swap1\n      tag_78\n      jump\t// in\n    tag_77:\n        /* \"Dapp/MoneyTransfer.sol\":2536:2551  block.timestamp */\n      timestamp\n        /* \"Dapp/MoneyTransfer.sol\":2536:2587  block.timestamp <= (firstTransferTime + 30 seconds) */\n      gt\n      iszero\n        /* \"Dapp/MoneyTransfer.sol\":2528:2603  require(block.timestamp <= (firstTransferTime + 30 seconds), \"Time passed\") */\n      tag_79\n      jumpi\n      mload(0x40)\n      0x08c379a000000000000000000000000000000000000000000000000000000000\n      dup2\n      mstore\n      0x04\n      add\n      tag_80\n      swap1\n      tag_81\n      jump\t// in\n    tag_80:\n      mload(0x40)\n      dup1\n      swap2\n      sub\n      swap1\n      revert\n    tag_79:\n        /* \"Dapp/MoneyTransfer.sol\":973:982  _receiver */\n      dup2\n        /* \"Dapp/MoneyTransfer.sol\":962:970  receiver */\n      0x02\n      0x00\n        /* \"Dapp/MoneyTransfer.sol\":962:982  receiver = _receiver */\n      0x0100\n      exp\n      dup2\n      sload\n      dup2\n      0xffffffffffffffffffffffffffffffffffffffff\n      mul\n      not\n      and\n      swap1\n      dup4\n      0xffffffffffffffffffffffffffffffffffffffff\n      and\n      mul\n      or\n      swap1\n      sstore\n      pop\n        /* \"Dapp/MoneyTransfer.sol\":1002:1009  _amount */\n      dup3\n        /* \"Dapp/MoneyTransfer.sol\":993:999  amount */\n      0x00\n        /* \"Dapp/MoneyTransfer.sol\":993:1009  amount = _amount */\n      dup2\n      swap1\n      sstore\n      pop\n        /* \"Dapp/MoneyTransfer.sol\":1079:1080  1 */\n      0x01\n        /* \"Dapp/MoneyTransfer.sol\":1066:1075  callCount */\n      0x0f\n      0x00\n        /* \"Dapp/MoneyTransfer.sol\":1066:1080  callCount += 1 */\n      dup3\n      dup3\n      sload\n      tag_83\n      swap2\n      swap1\n      tag_78\n      jump\t// in\n    tag_83:\n      swap3\n      pop\n      pop\n      dup2\n      swap1\n      sstore\n      pop\n        /* \"Dapp/MoneyTransfer.sol\":1136:1137  0 */\n      0x00\n        /* \"Dapp/MoneyTransfer.sol\":1123:1133  TotalFunds */\n      sload(0x01)\n        /* \"Dapp/MoneyTransfer.sol\":1123:1137  TotalFunds > 0 */\n      gt\n        /* \"Dapp/MoneyTransfer.sol\":1123:1160  TotalFunds > 0 && TotalFunds > amount */\n      dup1\n      iszero\n      tag_84\n      jumpi\n      pop\n        /* \"Dapp/MoneyTransfer.sol\":1154:1160  amount */\n      sload(0x00)\n        /* \"Dapp/MoneyTransfer.sol\":1141:1151  TotalFunds */\n      sload(0x01)\n        /* \"Dapp/MoneyTransfer.sol\":1141:1160  TotalFunds > amount */\n      gt\n        /* \"Dapp/MoneyTransfer.sol\":1123:1160  TotalFunds > 0 && TotalFunds > amount */\n    tag_84:\n        /* \"Dapp/MoneyTransfer.sol\":1120:1498  if(TotalFunds > 0 && TotalFunds > amount){... */\n      iszero\n      tag_85\n      jumpi\n        /* \"Dapp/MoneyTransfer.sol\":1198:1204  amount */\n      sload(0x00)\n        /* \"Dapp/MoneyTransfer.sol\":1184:1194  TotalFunds */\n      0x01\n      0x00\n        /* \"Dapp/MoneyTransfer.sol\":1184:1204  TotalFunds -= amount */\n      dup3\n      dup3\n      sload\n      tag_86\n      swap2\n      swap1\n      tag_87\n      jump\t// in\n    tag_86:\n      swap3\n      pop\n      pop\n      dup2\n      swap1\n      sstore\n      pop\n        /* \"Dapp/MoneyTransfer.sol\":1242:1248  amount */\n      sload(0x00)\n        /* \"Dapp/MoneyTransfer.sol\":1227:1238  TotalAmount */\n      0x0c\n      0x00\n        /* \"Dapp/MoneyTransfer.sol\":1227:1248  TotalAmount += amount */\n      dup3\n      dup3\n      sload\n      tag_88\n      swap2\n      swap1\n      tag_78\n      jump\t// in\n    tag_88:\n      swap3\n      pop\n      pop\n      dup2\n      swap1\n      sstore\n      pop\n        /* \"Dapp/MoneyTransfer.sol\":1293:1323  message = \"Transfer completed\" */\n      mload(0x40)\n      dup1\n      0x40\n      add\n      0x40\n      mstore\n      dup1\n      0x12\n      dup2\n      mstore\n      0x20\n      add\n      0x5472616e7366657220636f6d706c657465640000000000000000000000000000\n      dup2\n      mstore\n      pop\n        /* \"Dapp/MoneyTransfer.sol\":1293:1300  message */\n      0x09\n        /* \"Dapp/MoneyTransfer.sol\":1293:1323  message = \"Transfer completed\" */\n      swap1\n      dup2\n      tag_89\n      swap2\n      swap1\n      tag_90\n      jump\t// in\n    tag_89:\n      pop\n        /* \"Dapp/MoneyTransfer.sol\":1120:1498  if(TotalFunds > 0 && TotalFunds > amount){... */\n      jump(tag_91)\n    tag_85:\n        /* \"Dapp/MoneyTransfer.sol\":1451:1477  revert(\"Not enough funds\") */\n      mload(0x40)\n      0x08c379a000000000000000000000000000000000000000000000000000000000\n      dup2\n      mstore\n      0x04\n      add\n      tag_92\n      swap1\n      tag_93\n      jump\t// in\n    tag_92:\n      mload(0x40)\n      dup1\n      swap2\n      sub\n      swap1\n      revert\n        /* \"Dapp/MoneyTransfer.sol\":1120:1498  if(TotalFunds > 0 && TotalFunds > amount){... */\n    tag_91:\n        /* \"Dapp/MoneyTransfer.sol\":835:1537  function sendMoney( uint _amount, address _receiver) public m_validAddress(_receiver) m_ifCardExists m_transferLimit{... */\n      pop\n      pop\n      pop\n      jump\t// out\n        /* \"Dapp/MoneyTransfer.sol\":524:553  uint public firstTransferTime */\n    tag_25:\n      sload(0x0d)\n      dup2\n      jump\t// out\n        /* \"Dapp/MoneyTransfer.sol\":560:585  uint public countTransfer */\n    tag_29:\n      sload(0x0e)\n      dup2\n      jump\t// out\n        /* \"Dapp/MoneyTransfer.sol\":794:825  bool public callPutCard = false */\n    tag_32:\n      0x10\n      0x00\n      swap1\n      sload\n      swap1\n      0x0100\n      exp\n      swap1\n      div\n      0xff\n      and\n      dup2\n      jump\t// out\n        /* \"Dapp/MoneyTransfer.sol\":470:487  string public cvv */\n    tag_36:\n      0x0b\n      dup1\n      sload\n      tag_94\n      swap1\n      tag_95\n      jump\t// in\n    tag_94:\n      dup1\n      0x1f\n      add\n      0x20\n      dup1\n      swap2\n      div\n      mul\n      0x20\n      add\n      mload(0x40)\n      swap1\n      dup2\n      add\n      0x40\n      mstore\n      dup1\n      swap3\n      swap2\n      swap1\n      dup2\n      dup2\n      mstore\n      0x20\n      add\n      dup3\n      dup1\n      sload\n      tag_96\n      swap1\n      tag_95\n      jump\t// in\n    tag_96:\n      dup1\n      iszero\n      tag_97\n      jumpi\n      dup1\n      0x1f\n      lt\n      tag_98\n      jumpi\n      0x0100\n      dup1\n      dup4\n      sload\n      div\n      mul\n      dup4\n      mstore\n      swap2\n      0x20\n      add\n      swap2\n      jump(tag_97)\n    tag_98:\n      dup3\n      add\n      swap2\n      swap1\n      0x00\n      mstore\n      keccak256(0x00, 0x20)\n      swap1\n    tag_99:\n      dup2\n      sload\n      dup2\n      mstore\n      swap1\n      0x01\n      add\n      swap1\n      0x20\n      add\n      dup1\n      dup4\n      gt\n      tag_99\n      jumpi\n      dup3\n      swap1\n      sub\n      0x1f\n      and\n      dup3\n      add\n      swap2\n    tag_97:\n      pop\n      pop\n      pop\n      pop\n      pop\n      dup2\n      jump\t// out\n        /* \"Dapp/MoneyTransfer.sol\":761:786  uint public callCount = 0 */\n    tag_40:\n      sload(0x0f)\n      dup2\n      jump\t// out\n        /* \"Dapp/MoneyTransfer.sol\":134:159  uint256 public TotalFunds */\n    tag_43:\n      sload(0x01)\n      dup2\n      jump\t// out\n        /* \"Dapp/MoneyTransfer.sol\":494:520  uint256 public TotalAmount */\n    tag_46:\n      sload(0x0c)\n      dup2\n      jump\t// out\n        /* \"Dapp/MoneyTransfer.sol\":1669:1738  function getOutCard() public  {... */\n    tag_49:\n        /* \"Dapp/MoneyTransfer.sol\":1723:1728  false */\n      0x00\n        /* \"Dapp/MoneyTransfer.sol\":1709:1720  callPutCard */\n      0x10\n      0x00\n        /* \"Dapp/MoneyTransfer.sol\":1709:1728  callPutCard = false */\n      0x0100\n      exp\n      dup2\n      sload\n      dup2\n      0xff\n      mul\n      not\n      and\n      swap1\n      dup4\n      iszero\n      iszero\n      mul\n      or\n      swap1\n      sstore\n      pop\n        /* \"Dapp/MoneyTransfer.sol\":1669:1738  function getOutCard() public  {... */\n      jump\t// out\n        /* \"Dapp/MoneyTransfer.sol\":438:462  string public cardNumber */\n    tag_51:\n      0x0a\n      dup1\n      sload\n      tag_101\n      swap1\n      tag_95\n      jump\t// in\n    tag_101:\n      dup1\n      0x1f\n      add\n      0x20\n      dup1\n      swap2\n      div\n      mul\n      0x20\n      add\n      mload(0x40)\n      swap1\n      dup2\n      add\n      0x40\n      mstore\n      dup1\n      swap3\n      swap2\n      swap1\n      dup2\n      dup2\n      mstore\n      0x20\n      add\n      dup3\n      dup1\n      sload\n      tag_102\n      swap1\n      tag_95\n      jump\t// in\n    tag_102:\n      dup1\n      iszero\n      tag_103\n      jumpi\n      dup1\n      0x1f\n      lt\n      tag_104\n      jumpi\n      0x0100\n      dup1\n      dup4\n      sload\n      div\n      mul\n      dup4\n      mstore\n      swap2\n      0x20\n      add\n      swap2\n      jump(tag_103)\n    tag_104:\n      dup3\n      add\n      swap2\n      swap1\n      0x00\n      mstore\n      keccak256(0x00, 0x20)\n      swap1\n    tag_105:\n      dup2\n      sload\n      dup2\n      mstore\n      swap1\n      0x01\n      add\n      swap1\n      0x20\n      add\n      dup1\n      dup4\n      gt\n      tag_105\n      jumpi\n      dup3\n      swap1\n      sub\n      0x1f\n      and\n      dup3\n      add\n      swap2\n    tag_103:\n      pop\n      pop\n      pop\n      pop\n      pop\n      dup2\n      jump\t// out\n        /* \"Dapp/MoneyTransfer.sol\":252:288  uint256 public totalWeekTransactions */\n    tag_54:\n      sload(0x04)\n      dup2\n      jump\t// out\n        /* \"Dapp/MoneyTransfer.sol\":106:127  uint256 public amount */\n    tag_57:\n      sload(0x00)\n      dup2\n      jump\t// out\n        /* \"Dapp/MoneyTransfer.sol\":375:403  uint256 public receiverFunds */\n    tag_60:\n      sload(0x08)\n      dup2\n      jump\t// out\n        /* \"Dapp/MoneyTransfer.sol\":410:431  string public message */\n    tag_63:\n      0x09\n      dup1\n      sload\n      tag_106\n      swap1\n      tag_95\n      jump\t// in\n    tag_106:\n      dup1\n      0x1f\n      add\n      0x20\n      dup1\n      swap2\n      div\n      mul\n      0x20\n      add\n      mload(0x40)\n      swap1\n      dup2\n      add\n      0x40\n      mstore\n      dup1\n      swap3\n      swap2\n      swap1\n      dup2\n      dup2\n      mstore\n      0x20\n      add\n      dup3\n      dup1\n      sload\n      tag_107\n      swap1\n      tag_95\n      jump\t// in\n    tag_107:\n      dup1\n      iszero\n      tag_108\n      jumpi\n      dup1\n      0x1f\n      lt\n      tag_109\n      jumpi\n      0x0100\n      dup1\n      dup4\n      sload\n      div\n      mul\n      dup4\n      mstore\n      swap2\n      0x20\n      add\n      swap2\n      jump(tag_108)\n    tag_109:\n      dup3\n      add\n      swap2\n      swap1\n      0x00\n      mstore\n      keccak256(0x00, 0x20)\n      swap1\n    tag_110:\n      dup2\n      sload\n      dup2\n      mstore\n      swap1\n      0x01\n      add\n      swap1\n      0x20\n      add\n      dup1\n      dup4\n      gt\n      tag_110\n      jumpi\n      dup3\n      swap1\n      sub\n      0x1f\n      and\n      dup3\n      add\n      swap2\n    tag_108:\n      pop\n      pop\n      pop\n      pop\n      pop\n      dup2\n      jump\t// out\n        /* \"#utility.yul\":88:205   */\n    tag_112:\n        /* \"#utility.yul\":197:198   */\n      0x00\n        /* \"#utility.yul\":194:195   */\n      dup1\n        /* \"#utility.yul\":187:199   */\n      revert\n        /* \"#utility.yul\":334:411   */\n    tag_114:\n        /* \"#utility.yul\":371:378   */\n      0x00\n        /* \"#utility.yul\":400:405   */\n      dup2\n        /* \"#utility.yul\":389:405   */\n      swap1\n      pop\n        /* \"#utility.yul\":334:411   */\n      swap2\n      swap1\n      pop\n      jump\t// out\n        /* \"#utility.yul\":417:539   */\n    tag_115:\n        /* \"#utility.yul\":490:514   */\n      tag_163\n        /* \"#utility.yul\":508:513   */\n      dup2\n        /* \"#utility.yul\":490:514   */\n      tag_114\n      jump\t// in\n    tag_163:\n        /* \"#utility.yul\":483:488   */\n      dup2\n        /* \"#utility.yul\":480:515   */\n      eq\n        /* \"#utility.yul\":470:533   */\n      tag_164\n      jumpi\n        /* \"#utility.yul\":529:530   */\n      0x00\n        /* \"#utility.yul\":526:527   */\n      dup1\n        /* \"#utility.yul\":519:531   */\n      revert\n        /* \"#utility.yul\":470:533   */\n    tag_164:\n        /* \"#utility.yul\":417:539   */\n      pop\n      jump\t// out\n        /* \"#utility.yul\":545:684   */\n    tag_116:\n        /* \"#utility.yul\":591:596   */\n      0x00\n        /* \"#utility.yul\":629:635   */\n      dup2\n        /* \"#utility.yul\":616:636   */\n      calldataload\n        /* \"#utility.yul\":607:636   */\n      swap1\n      pop\n        /* \"#utility.yul\":645:678   */\n      tag_166\n        /* \"#utility.yul\":672:677   */\n      dup2\n        /* \"#utility.yul\":645:678   */\n      tag_115\n      jump\t// in\n    tag_166:\n        /* \"#utility.yul\":545:684   */\n      swap3\n      swap2\n      pop\n      pop\n      jump\t// out\n        /* \"#utility.yul\":690:816   */\n    tag_117:\n        /* \"#utility.yul\":727:734   */\n      0x00\n        /* \"#utility.yul\":767:809   */\n      0xffffffffffffffffffffffffffffffffffffffff\n        /* \"#utility.yul\":760:765   */\n      dup3\n        /* \"#utility.yul\":756:810   */\n      and\n        /* \"#utility.yul\":745:810   */\n      swap1\n      pop\n        /* \"#utility.yul\":690:816   */\n      swap2\n      swap1\n      pop\n      jump\t// out\n        /* \"#utility.yul\":822:918   */\n    tag_118:\n        /* \"#utility.yul\":859:866   */\n      0x00\n        /* \"#utility.yul\":888:912   */\n      tag_169\n        /* \"#utility.yul\":906:911   */\n      dup3\n        /* \"#utility.yul\":888:912   */\n      tag_117\n      jump\t// in\n    tag_169:\n        /* \"#utility.yul\":877:912   */\n      swap1\n      pop\n        /* \"#utility.yul\":822:918   */\n      swap2\n      swap1\n      pop\n      jump\t// out\n        /* \"#utility.yul\":924:1046   */\n    tag_119:\n        /* \"#utility.yul\":997:1021   */\n      tag_171\n        /* \"#utility.yul\":1015:1020   */\n      dup2\n        /* \"#utility.yul\":997:1021   */\n      tag_118\n      jump\t// in\n    tag_171:\n        /* \"#utility.yul\":990:995   */\n      dup2\n        /* \"#utility.yul\":987:1022   */\n      eq\n        /* \"#utility.yul\":977:1040   */\n      tag_172\n      jumpi\n        /* \"#utility.yul\":1036:1037   */\n      0x00\n        /* \"#utility.yul\":1033:1034   */\n      dup1\n        /* \"#utility.yul\":1026:1038   */\n      revert\n        /* \"#utility.yul\":977:1040   */\n    tag_172:\n        /* \"#utility.yul\":924:1046   */\n      pop\n      jump\t// out\n        /* \"#utility.yul\":1052:1191   */\n    tag_120:\n        /* \"#utility.yul\":1098:1103   */\n      0x00\n        /* \"#utility.yul\":1136:1142   */\n      dup2\n        /* \"#utility.yul\":1123:1143   */\n      calldataload\n        /* \"#utility.yul\":1114:1143   */\n      swap1\n      pop\n        /* \"#utility.yul\":1152:1185   */\n      tag_174\n        /* \"#utility.yul\":1179:1184   */\n      dup2\n        /* \"#utility.yul\":1152:1185   */\n      tag_119\n      jump\t// in\n    tag_174:\n        /* \"#utility.yul\":1052:1191   */\n      swap3\n      swap2\n      pop\n      pop\n      jump\t// out\n        /* \"#utility.yul\":1197:1671   */\n    tag_22:\n        /* \"#utility.yul\":1265:1271   */\n      0x00\n        /* \"#utility.yul\":1273:1279   */\n      dup1\n        /* \"#utility.yul\":1322:1324   */\n      0x40\n        /* \"#utility.yul\":1310:1319   */\n      dup4\n        /* \"#utility.yul\":1301:1308   */\n      dup6\n        /* \"#utility.yul\":1297:1320   */\n      sub\n        /* \"#utility.yul\":1293:1325   */\n      slt\n        /* \"#utility.yul\":1290:1409   */\n      iszero\n      tag_176\n      jumpi\n        /* \"#utility.yul\":1328:1407   */\n      tag_177\n      tag_112\n      jump\t// in\n    tag_177:\n        /* \"#utility.yul\":1290:1409   */\n    tag_176:\n        /* \"#utility.yul\":1448:1449   */\n      0x00\n        /* \"#utility.yul\":1473:1526   */\n      tag_178\n        /* \"#utility.yul\":1518:1525   */\n      dup6\n        /* \"#utility.yul\":1509:1515   */\n      dup3\n        /* \"#utility.yul\":1498:1507   */\n      dup7\n        /* \"#utility.yul\":1494:1516   */\n      add\n        /* \"#utility.yul\":1473:1526   */\n      tag_116\n      jump\t// in\n    tag_178:\n        /* \"#utility.yul\":1463:1526   */\n      swap3\n      pop\n        /* \"#utility.yul\":1419:1536   */\n      pop\n        /* \"#utility.yul\":1575:1577   */\n      0x20\n        /* \"#utility.yul\":1601:1654   */\n      tag_179\n        /* \"#utility.yul\":1646:1653   */\n      dup6\n        /* \"#utility.yul\":1637:1643   */\n      dup3\n        /* \"#utility.yul\":1626:1635   */\n      dup7\n        /* \"#utility.yul\":1622:1644   */\n      add\n        /* \"#utility.yul\":1601:1654   */\n      tag_120\n      jump\t// in\n    tag_179:\n        /* \"#utility.yul\":1591:1654   */\n      swap2\n      pop\n        /* \"#utility.yul\":1546:1664   */\n      pop\n        /* \"#utility.yul\":1197:1671   */\n      swap3\n      pop\n      swap3\n      swap1\n      pop\n      jump\t// out\n        /* \"#utility.yul\":1677:1795   */\n    tag_121:\n        /* \"#utility.yul\":1764:1788   */\n      tag_181\n        /* \"#utility.yul\":1782:1787   */\n      dup2\n        /* \"#utility.yul\":1764:1788   */\n      tag_114\n      jump\t// in\n    tag_181:\n        /* \"#utility.yul\":1759:1762   */\n      dup3\n        /* \"#utility.yul\":1752:1789   */\n      mstore\n        /* \"#utility.yul\":1677:1795   */\n      pop\n      pop\n      jump\t// out\n        /* \"#utility.yul\":1801:2023   */\n    tag_27:\n        /* \"#utility.yul\":1894:1898   */\n      0x00\n        /* \"#utility.yul\":1932:1934   */\n      0x20\n        /* \"#utility.yul\":1921:1930   */\n      dup3\n        /* \"#utility.yul\":1917:1935   */\n      add\n        /* \"#utility.yul\":1909:1935   */\n      swap1\n      pop\n        /* \"#utility.yul\":1945:2016   */\n      tag_183\n        /* \"#utility.yul\":2013:2014   */\n      0x00\n        /* \"#utility.yul\":2002:2011   */\n      dup4\n        /* \"#utility.yul\":1998:2015   */\n      add\n        /* \"#utility.yul\":1989:1995   */\n      dup5\n        /* \"#utility.yul\":1945:2016   */\n      tag_121\n      jump\t// in\n    tag_183:\n        /* \"#utility.yul\":1801:2023   */\n      swap3\n      swap2\n      pop\n      pop\n      jump\t// out\n        /* \"#utility.yul\":2029:2119   */\n    tag_122:\n        /* \"#utility.yul\":2063:2070   */\n      0x00\n        /* \"#utility.yul\":2106:2111   */\n      dup2\n        /* \"#utility.yul\":2099:2112   */\n      iszero\n        /* \"#utility.yul\":2092:2113   */\n      iszero\n        /* \"#utility.yul\":2081:2113   */\n      swap1\n      pop\n        /* \"#utility.yul\":2029:2119   */\n      swap2\n      swap1\n      pop\n      jump\t// out\n        /* \"#utility.yul\":2125:2234   */\n    tag_123:\n        /* \"#utility.yul\":2206:2227   */\n      tag_186\n        /* \"#utility.yul\":2221:2226   */\n      dup2\n        /* \"#utility.yul\":2206:2227   */\n      tag_122\n      jump\t// in\n    tag_186:\n        /* \"#utility.yul\":2201:2204   */\n      dup3\n        /* \"#utility.yul\":2194:2228   */\n      mstore\n        /* \"#utility.yul\":2125:2234   */\n      pop\n      pop\n      jump\t// out\n        /* \"#utility.yul\":2240:2450   */\n    tag_34:\n        /* \"#utility.yul\":2327:2331   */\n      0x00\n        /* \"#utility.yul\":2365:2367   */\n      0x20\n        /* \"#utility.yul\":2354:2363   */\n      dup3\n        /* \"#utility.yul\":2350:2368   */\n      add\n        /* \"#utility.yul\":2342:2368   */\n      swap1\n      pop\n        /* \"#utility.yul\":2378:2443   */\n      tag_188\n        /* \"#utility.yul\":2440:2441   */\n      0x00\n        /* \"#utility.yul\":2429:2438   */\n      dup4\n        /* \"#utility.yul\":2425:2442   */\n      add\n        /* \"#utility.yul\":2416:2422   */\n      dup5\n        /* \"#utility.yul\":2378:2443   */\n      tag_123\n      jump\t// in\n    tag_188:\n        /* \"#utility.yul\":2240:2450   */\n      swap3\n      swap2\n      pop\n      pop\n      jump\t// out\n        /* \"#utility.yul\":2456:2555   */\n    tag_124:\n        /* \"#utility.yul\":2508:2514   */\n      0x00\n        /* \"#utility.yul\":2542:2547   */\n      dup2\n        /* \"#utility.yul\":2536:2548   */\n      mload\n        /* \"#utility.yul\":2526:2548   */\n      swap1\n      pop\n        /* \"#utility.yul\":2456:2555   */\n      swap2\n      swap1\n      pop\n      jump\t// out\n        /* \"#utility.yul\":2561:2730   */\n    tag_125:\n        /* \"#utility.yul\":2645:2656   */\n      0x00\n        /* \"#utility.yul\":2679:2685   */\n      dup3\n        /* \"#utility.yul\":2674:2677   */\n      dup3\n        /* \"#utility.yul\":2667:2686   */\n      mstore\n        /* \"#utility.yul\":2719:2723   */\n      0x20\n        /* \"#utility.yul\":2714:2717   */\n      dup3\n        /* \"#utility.yul\":2710:2724   */\n      add\n        /* \"#utility.yul\":2695:2724   */\n      swap1\n      pop\n        /* \"#utility.yul\":2561:2730   */\n      swap3\n      swap2\n      pop\n      pop\n      jump\t// out\n        /* \"#utility.yul\":2736:3043   */\n    tag_126:\n        /* \"#utility.yul\":2804:2805   */\n      0x00\n        /* \"#utility.yul\":2814:2927   */\n    tag_192:\n        /* \"#utility.yul\":2828:2834   */\n      dup4\n        /* \"#utility.yul\":2825:2826   */\n      dup2\n        /* \"#utility.yul\":2822:2835   */\n      lt\n        /* \"#utility.yul\":2814:2927   */\n      iszero\n      tag_194\n      jumpi\n        /* \"#utility.yul\":2913:2914   */\n      dup1\n        /* \"#utility.yul\":2908:2911   */\n      dup3\n        /* \"#utility.yul\":2904:2915   */\n      add\n        /* \"#utility.yul\":2898:2916   */\n      mload\n        /* \"#utility.yul\":2894:2895   */\n      dup2\n        /* \"#utility.yul\":2889:2892   */\n      dup5\n        /* \"#utility.yul\":2885:2896   */\n      add\n        /* \"#utility.yul\":2878:2917   */\n      mstore\n        /* \"#utility.yul\":2850:2852   */\n      0x20\n        /* \"#utility.yul\":2847:2848   */\n      dup2\n        /* \"#utility.yul\":2843:2853   */\n      add\n        /* \"#utility.yul\":2838:2853   */\n      swap1\n      pop\n        /* \"#utility.yul\":2814:2927   */\n      jump(tag_192)\n    tag_194:\n        /* \"#utility.yul\":2945:2951   */\n      dup4\n        /* \"#utility.yul\":2942:2943   */\n      dup2\n        /* \"#utility.yul\":2939:2952   */\n      gt\n        /* \"#utility.yul\":2936:3037   */\n      iszero\n      tag_195\n      jumpi\n        /* \"#utility.yul\":3025:3026   */\n      0x00\n        /* \"#utility.yul\":3016:3022   */\n      dup5\n        /* \"#utility.yul\":3011:3014   */\n      dup5\n        /* \"#utility.yul\":3007:3023   */\n      add\n        /* \"#utility.yul\":3000:3027   */\n      mstore\n        /* \"#utility.yul\":2936:3037   */\n    tag_195:\n        /* \"#utility.yul\":2785:3043   */\n      pop\n        /* \"#utility.yul\":2736:3043   */\n      pop\n      pop\n      pop\n      jump\t// out\n        /* \"#utility.yul\":3049:3151   */\n    tag_127:\n        /* \"#utility.yul\":3090:3096   */\n      0x00\n        /* \"#utility.yul\":3141:3143   */\n      0x1f\n        /* \"#utility.yul\":3137:3144   */\n      not\n        /* \"#utility.yul\":3132:3134   */\n      0x1f\n        /* \"#utility.yul\":3125:3130   */\n      dup4\n        /* \"#utility.yul\":3121:3135   */\n      add\n        /* \"#utility.yul\":3117:3145   */\n      and\n        /* \"#utility.yul\":3107:3145   */\n      swap1\n      pop\n        /* \"#utility.yul\":3049:3151   */\n      swap2\n      swap1\n      pop\n      jump\t// out\n        /* \"#utility.yul\":3157:3521   */\n    tag_128:\n        /* \"#utility.yul\":3245:3248   */\n      0x00\n        /* \"#utility.yul\":3273:3312   */\n      tag_198\n        /* \"#utility.yul\":3306:3311   */\n      dup3\n        /* \"#utility.yul\":3273:3312   */\n      tag_124\n      jump\t// in\n    tag_198:\n        /* \"#utility.yul\":3328:3399   */\n      tag_199\n        /* \"#utility.yul\":3392:3398   */\n      dup2\n        /* \"#utility.yul\":3387:3390   */\n      dup6\n        /* \"#utility.yul\":3328:3399   */\n      tag_125\n      jump\t// in\n    tag_199:\n        /* \"#utility.yul\":3321:3399   */\n      swap4\n      pop\n        /* \"#utility.yul\":3408:3460   */\n      tag_200\n        /* \"#utility.yul\":3453:3459   */\n      dup2\n        /* \"#utility.yul\":3448:3451   */\n      dup6\n        /* \"#utility.yul\":3441:3445   */\n      0x20\n        /* \"#utility.yul\":3434:3439   */\n      dup7\n        /* \"#utility.yul\":3430:3446   */\n      add\n        /* \"#utility.yul\":3408:3460   */\n      tag_126\n      jump\t// in\n    tag_200:\n        /* \"#utility.yul\":3485:3514   */\n      tag_201\n        /* \"#utility.yul\":3507:3513   */\n      dup2\n        /* \"#utility.yul\":3485:3514   */\n      tag_127\n      jump\t// in\n    tag_201:\n        /* \"#utility.yul\":3480:3483   */\n      dup5\n        /* \"#utility.yul\":3476:3515   */\n      add\n        /* \"#utility.yul\":3469:3515   */\n      swap2\n      pop\n        /* \"#utility.yul\":3249:3521   */\n      pop\n        /* \"#utility.yul\":3157:3521   */\n      swap3\n      swap2\n      pop\n      pop\n      jump\t// out\n        /* \"#utility.yul\":3527:3840   */\n    tag_38:\n        /* \"#utility.yul\":3640:3644   */\n      0x00\n        /* \"#utility.yul\":3678:3680   */\n      0x20\n        /* \"#utility.yul\":3667:3676   */\n      dup3\n        /* \"#utility.yul\":3663:3681   */\n      add\n        /* \"#utility.yul\":3655:3681   */\n      swap1\n      pop\n        /* \"#utility.yul\":3727:3736   */\n      dup2\n        /* \"#utility.yul\":3721:3725   */\n      dup2\n        /* \"#utility.yul\":3717:3737   */\n      sub\n        /* \"#utility.yul\":3713:3714   */\n      0x00\n        /* \"#utility.yul\":3702:3711   */\n      dup4\n        /* \"#utility.yul\":3698:3715   */\n      add\n        /* \"#utility.yul\":3691:3738   */\n      mstore\n        /* \"#utility.yul\":3755:3833   */\n      tag_203\n        /* \"#utility.yul\":3828:3832   */\n      dup2\n        /* \"#utility.yul\":3819:3825   */\n      dup5\n        /* \"#utility.yul\":3755:3833   */\n      tag_128\n      jump\t// in\n    tag_203:\n        /* \"#utility.yul\":3747:3833   */\n      swap1\n      pop\n        /* \"#utility.yul\":3527:3840   */\n      swap3\n      swap2\n      pop\n      pop\n      jump\t// out\n        /* \"#utility.yul\":3846:4024   */\n    tag_129:\n        /* \"#utility.yul\":3986:4016   */\n      0x2054686973206164647265737320646f65736e27742065786973747300000000\n        /* \"#utility.yul\":3982:3983   */\n      0x00\n        /* \"#utility.yul\":3974:3980   */\n      dup3\n        /* \"#utility.yul\":3970:3984   */\n      add\n        /* \"#utility.yul\":3963:4017   */\n      mstore\n        /* \"#utility.yul\":3846:4024   */\n      pop\n      jump\t// out\n        /* \"#utility.yul\":4030:4396   */\n    tag_130:\n        /* \"#utility.yul\":4172:4175   */\n      0x00\n        /* \"#utility.yul\":4193:4260   */\n      tag_206\n        /* \"#utility.yul\":4257:4259   */\n      0x1c\n        /* \"#utility.yul\":4252:4255   */\n      dup4\n        /* \"#utility.yul\":4193:4260   */\n      tag_125\n      jump\t// in\n    tag_206:\n        /* \"#utility.yul\":4186:4260   */\n      swap2\n      pop\n        /* \"#utility.yul\":4269:4362   */\n      tag_207\n        /* \"#utility.yul\":4358:4361   */\n      dup3\n        /* \"#utility.yul\":4269:4362   */\n      tag_129\n      jump\t// in\n    tag_207:\n        /* \"#utility.yul\":4387:4389   */\n      0x20\n        /* \"#utility.yul\":4382:4385   */\n      dup3\n        /* \"#utility.yul\":4378:4390   */\n      add\n        /* \"#utility.yul\":4371:4390   */\n      swap1\n      pop\n        /* \"#utility.yul\":4030:4396   */\n      swap2\n      swap1\n      pop\n      jump\t// out\n        /* \"#utility.yul\":4402:4821   */\n    tag_68:\n        /* \"#utility.yul\":4568:4572   */\n      0x00\n        /* \"#utility.yul\":4606:4608   */\n      0x20\n        /* \"#utility.yul\":4595:4604   */\n      dup3\n        /* \"#utility.yul\":4591:4609   */\n      add\n        /* \"#utility.yul\":4583:4609   */\n      swap1\n      pop\n        /* \"#utility.yul\":4655:4664   */\n      dup2\n        /* \"#utility.yul\":4649:4653   */\n      dup2\n        /* \"#utility.yul\":4645:4665   */\n      sub\n        /* \"#utility.yul\":4641:4642   */\n      0x00\n        /* \"#utility.yul\":4630:4639   */\n      dup4\n        /* \"#utility.yul\":4626:4643   */\n      add\n        /* \"#utility.yul\":4619:4666   */\n      mstore\n        /* \"#utility.yul\":4683:4814   */\n      tag_209\n        /* \"#utility.yul\":4809:4813   */\n      dup2\n        /* \"#utility.yul\":4683:4814   */\n      tag_130\n      jump\t// in\n    tag_209:\n        /* \"#utility.yul\":4675:4814   */\n      swap1\n      pop\n        /* \"#utility.yul\":4402:4821   */\n      swap2\n      swap1\n      pop\n      jump\t// out\n        /* \"#utility.yul\":4827:5000   */\n    tag_131:\n        /* \"#utility.yul\":4967:4992   */\n      0x506c6561736520696e7365727420796f75722063617264000000000000000000\n        /* \"#utility.yul\":4963:4964   */\n      0x00\n        /* \"#utility.yul\":4955:4961   */\n      dup3\n        /* \"#utility.yul\":4951:4965   */\n      add\n        /* \"#utility.yul\":4944:4993   */\n      mstore\n        /* \"#utility.yul\":4827:5000   */\n      pop\n      jump\t// out\n        /* \"#utility.yul\":5006:5372   */\n    tag_132:\n        /* \"#utility.yul\":5148:5151   */\n      0x00\n        /* \"#utility.yul\":5169:5236   */\n      tag_212\n        /* \"#utility.yul\":5233:5235   */\n      0x17\n        /* \"#utility.yul\":5228:5231   */\n      dup4\n        /* \"#utility.yul\":5169:5236   */\n      tag_125\n      jump\t// in\n    tag_212:\n        /* \"#utility.yul\":5162:5236   */\n      swap2\n      pop\n        /* \"#utility.yul\":5245:5338   */\n      tag_213\n        /* \"#utility.yul\":5334:5337   */\n      dup3\n        /* \"#utility.yul\":5245:5338   */\n      tag_131\n      jump\t// in\n    tag_213:\n        /* \"#utility.yul\":5363:5365   */\n      0x20\n        /* \"#utility.yul\":5358:5361   */\n      dup3\n        /* \"#utility.yul\":5354:5366   */\n      add\n        /* \"#utility.yul\":5347:5366   */\n      swap1\n      pop\n        /* \"#utility.yul\":5006:5372   */\n      swap2\n      swap1\n      pop\n      jump\t// out\n        /* \"#utility.yul\":5378:5797   */\n    tag_72:\n        /* \"#utility.yul\":5544:5548   */\n      0x00\n        /* \"#utility.yul\":5582:5584   */\n      0x20\n        /* \"#utility.yul\":5571:5580   */\n      dup3\n        /* \"#utility.yul\":5567:5585   */\n      add\n        /* \"#utility.yul\":5559:5585   */\n      swap1\n      pop\n        /* \"#utility.yul\":5631:5640   */\n      dup2\n        /* \"#utility.yul\":5625:5629   */\n      dup2\n        /* \"#utility.yul\":5621:5641   */\n      sub\n        /* \"#utility.yul\":5617:5618   */\n      0x00\n        /* \"#utility.yul\":5606:5615   */\n      dup4\n        /* \"#utility.yul\":5602:5619   */\n      add\n        /* \"#utility.yul\":5595:5642   */\n      mstore\n        /* \"#utility.yul\":5659:5790   */\n      tag_215\n        /* \"#utility.yul\":5785:5789   */\n      dup2\n        /* \"#utility.yul\":5659:5790   */\n      tag_132\n      jump\t// in\n    tag_215:\n        /* \"#utility.yul\":5651:5790   */\n      swap1\n      pop\n        /* \"#utility.yul\":5378:5797   */\n      swap2\n      swap1\n      pop\n      jump\t// out\n        /* \"#utility.yul\":5803:5974   */\n    tag_133:\n        /* \"#utility.yul\":5943:5966   */\n      0x596f75207265616368656420746865206c696d69740000000000000000000000\n        /* \"#utility.yul\":5939:5940   */\n      0x00\n        /* \"#utility.yul\":5931:5937   */\n      dup3\n        /* \"#utility.yul\":5927:5941   */\n      add\n        /* \"#utility.yul\":5920:5967   */\n      mstore\n        /* \"#utility.yul\":5803:5974   */\n      pop\n      jump\t// out\n        /* \"#utility.yul\":5980:6346   */\n    tag_134:\n        /* \"#utility.yul\":6122:6125   */\n      0x00\n        /* \"#utility.yul\":6143:6210   */\n      tag_218\n        /* \"#utility.yul\":6207:6209   */\n      0x15\n        /* \"#utility.yul\":6202:6205   */\n      dup4\n        /* \"#utility.yul\":6143:6210   */\n      tag_125\n      jump\t// in\n    tag_218:\n        /* \"#utility.yul\":6136:6210   */\n      swap2\n      pop\n        /* \"#utility.yul\":6219:6312   */\n      tag_219\n        /* \"#utility.yul\":6308:6311   */\n      dup3\n        /* \"#utility.yul\":6219:6312   */\n      tag_133\n      jump\t// in\n    tag_219:\n        /* \"#utility.yul\":6337:6339   */\n      0x20\n        /* \"#utility.yul\":6332:6335   */\n      dup3\n        /* \"#utility.yul\":6328:6340   */\n      add\n        /* \"#utility.yul\":6321:6340   */\n      swap1\n      pop\n        /* \"#utility.yul\":5980:6346   */\n      swap2\n      swap1\n      pop\n      jump\t// out\n        /* \"#utility.yul\":6352:6771   */\n    tag_76:\n        /* \"#utility.yul\":6518:6522   */\n      0x00\n        /* \"#utility.yul\":6556:6558   */\n      0x20\n        /* \"#utility.yul\":6545:6554   */\n      dup3\n        /* \"#utility.yul\":6541:6559   */\n      add\n        /* \"#utility.yul\":6533:6559   */\n      swap1\n      pop\n        /* \"#utility.yul\":6605:6614   */\n      dup2\n        /* \"#utility.yul\":6599:6603   */\n      dup2\n        /* \"#utility.yul\":6595:6615   */\n      sub\n        /* \"#utility.yul\":6591:6592   */\n      0x00\n        /* \"#utility.yul\":6580:6589   */\n      dup4\n        /* \"#utility.yul\":6576:6593   */\n      add\n        /* \"#utility.yul\":6569:6616   */\n      mstore\n        /* \"#utility.yul\":6633:6764   */\n      tag_221\n        /* \"#utility.yul\":6759:6763   */\n      dup2\n        /* \"#utility.yul\":6633:6764   */\n      tag_134\n      jump\t// in\n    tag_221:\n        /* \"#utility.yul\":6625:6764   */\n      swap1\n      pop\n        /* \"#utility.yul\":6352:6771   */\n      swap2\n      swap1\n      pop\n      jump\t// out\n        /* \"#utility.yul\":6777:6957   */\n    tag_135:\n        /* \"#utility.yul\":6825:6902   */\n      0x4e487b7100000000000000000000000000000000000000000000000000000000\n        /* \"#utility.yul\":6822:6823   */\n      0x00\n        /* \"#utility.yul\":6815:6903   */\n      mstore\n        /* \"#utility.yul\":6922:6926   */\n      0x11\n        /* \"#utility.yul\":6919:6920   */\n      0x04\n        /* \"#utility.yul\":6912:6927   */\n      mstore\n        /* \"#utility.yul\":6946:6950   */\n      0x24\n        /* \"#utility.yul\":6943:6944   */\n      0x00\n        /* \"#utility.yul\":6936:6951   */\n      revert\n        /* \"#utility.yul\":6963:7268   */\n    tag_78:\n        /* \"#utility.yul\":7003:7006   */\n      0x00\n        /* \"#utility.yul\":7022:7042   */\n      tag_224\n        /* \"#utility.yul\":7040:7041   */\n      dup3\n        /* \"#utility.yul\":7022:7042   */\n      tag_114\n      jump\t// in\n    tag_224:\n        /* \"#utility.yul\":7017:7042   */\n      swap2\n      pop\n        /* \"#utility.yul\":7056:7076   */\n      tag_225\n        /* \"#utility.yul\":7074:7075   */\n      dup4\n        /* \"#utility.yul\":7056:7076   */\n      tag_114\n      jump\t// in\n    tag_225:\n        /* \"#utility.yul\":7051:7076   */\n      swap3\n      pop\n        /* \"#utility.yul\":7210:7211   */\n      dup3\n        /* \"#utility.yul\":7142:7208   */\n      0xffffffffffffffffffffffffffffffffffffffffffffffffffffffffffffffff\n        /* \"#utility.yul\":7138:7212   */\n      sub\n        /* \"#utility.yul\":7135:7136   */\n      dup3\n        /* \"#utility.yul\":7132:7213   */\n      gt\n        /* \"#utility.yul\":7129:7236   */\n      iszero\n      tag_226\n      jumpi\n        /* \"#utility.yul\":7216:7234   */\n      tag_227\n      tag_135\n      jump\t// in\n    tag_227:\n        /* \"#utility.yul\":7129:7236   */\n    tag_226:\n        /* \"#utility.yul\":7260:7261   */\n      dup3\n        /* \"#utility.yul\":7257:7258   */\n      dup3\n        /* \"#utility.yul\":7253:7262   */\n      add\n        /* \"#utility.yul\":7246:7262   */\n      swap1\n      pop\n        /* \"#utility.yul\":6963:7268   */\n      swap3\n      swap2\n      pop\n      pop\n      jump\t// out\n        /* \"#utility.yul\":7274:7435   */\n    tag_136:\n        /* \"#utility.yul\":7414:7427   */\n      0x54696d6520706173736564000000000000000000000000000000000000000000\n        /* \"#utility.yul\":7410:7411   */\n      0x00\n        /* \"#utility.yul\":7402:7408   */\n      dup3\n        /* \"#utility.yul\":7398:7412   */\n      add\n        /* \"#utility.yul\":7391:7428   */\n      mstore\n        /* \"#utility.yul\":7274:7435   */\n      pop\n      jump\t// out\n        /* \"#utility.yul\":7441:7807   */\n    tag_137:\n        /* \"#utility.yul\":7583:7586   */\n      0x00\n        /* \"#utility.yul\":7604:7671   */\n      tag_230\n        /* \"#utility.yul\":7668:7670   */\n      0x0b\n        /* \"#utility.yul\":7663:7666   */\n      dup4\n        /* \"#utility.yul\":7604:7671   */\n      tag_125\n      jump\t// in\n    tag_230:\n        /* \"#utility.yul\":7597:7671   */\n      swap2\n      pop\n        /* \"#utility.yul\":7680:7773   */\n      tag_231\n        /* \"#utility.yul\":7769:7772   */\n      dup3\n        /* \"#utility.yul\":7680:7773   */\n      tag_136\n      jump\t// in\n    tag_231:\n        /* \"#utility.yul\":7798:7800   */\n      0x20\n        /* \"#utility.yul\":7793:7796   */\n      dup3\n        /* \"#utility.yul\":7789:7801   */\n      add\n        /* \"#utility.yul\":7782:7801   */\n      swap1\n      pop\n        /* \"#utility.yul\":7441:7807   */\n      swap2\n      swap1\n      pop\n      jump\t// out\n        /* \"#utility.yul\":7813:8232   */\n    tag_81:\n        /* \"#utility.yul\":7979:7983   */\n      0x00\n        /* \"#utility.yul\":8017:8019   */\n      0x20\n        /* \"#utility.yul\":8006:8015   */\n      dup3\n        /* \"#utility.yul\":8002:8020   */\n      add\n        /* \"#utility.yul\":7994:8020   */\n      swap1\n      pop\n        /* \"#utility.yul\":8066:8075   */\n      dup2\n        /* \"#utility.yul\":8060:8064   */\n      dup2\n        /* \"#utility.yul\":8056:8076   */\n      sub\n        /* \"#utility.yul\":8052:8053   */\n      0x00\n        /* \"#utility.yul\":8041:8050   */\n      dup4\n        /* \"#utility.yul\":8037:8054   */\n      add\n        /* \"#utility.yul\":8030:8077   */\n      mstore\n        /* \"#utility.yul\":8094:8225   */\n      tag_233\n        /* \"#utility.yul\":8220:8224   */\n      dup2\n        /* \"#utility.yul\":8094:8225   */\n      tag_137\n      jump\t// in\n    tag_233:\n        /* \"#utility.yul\":8086:8225   */\n      swap1\n      pop\n        /* \"#utility.yul\":7813:8232   */\n      swap2\n      swap1\n      pop\n      jump\t// out\n        /* \"#utility.yul\":8238:8429   */\n    tag_87:\n        /* \"#utility.yul\":8278:8282   */\n      0x00\n        /* \"#utility.yul\":8298:8318   */\n      tag_235\n        /* \"#utility.yul\":8316:8317   */\n      dup3\n        /* \"#utility.yul\":8298:8318   */\n      tag_114\n      jump\t// in\n    tag_235:\n        /* \"#utility.yul\":8293:8318   */\n      swap2\n      pop\n        /* \"#utility.yul\":8332:8352   */\n      tag_236\n        /* \"#utility.yul\":8350:8351   */\n      dup4\n        /* \"#utility.yul\":8332:8352   */\n      tag_114\n      jump\t// in\n    tag_236:\n        /* \"#utility.yul\":8327:8352   */\n      swap3\n      pop\n        /* \"#utility.yul\":8371:8372   */\n      dup3\n        /* \"#utility.yul\":8368:8369   */\n      dup3\n        /* \"#utility.yul\":8365:8373   */\n      lt\n        /* \"#utility.yul\":8362:8396   */\n      iszero\n      tag_237\n      jumpi\n        /* \"#utility.yul\":8376:8394   */\n      tag_238\n      tag_135\n      jump\t// in\n    tag_238:\n        /* \"#utility.yul\":8362:8396   */\n    tag_237:\n        /* \"#utility.yul\":8421:8422   */\n      dup3\n        /* \"#utility.yul\":8418:8419   */\n      dup3\n        /* \"#utility.yul\":8414:8423   */\n      sub\n        /* \"#utility.yul\":8406:8423   */\n      swap1\n      pop\n        /* \"#utility.yul\":8238:8429   */\n      swap3\n      swap2\n      pop\n      pop\n      jump\t// out\n        /* \"#utility.yul\":8435:8615   */\n    tag_138:\n        /* \"#utility.yul\":8483:8560   */\n      0x4e487b7100000000000000000000000000000000000000000000000000000000\n        /* \"#utility.yul\":8480:8481   */\n      0x00\n        /* \"#utility.yul\":8473:8561   */\n      mstore\n        /* \"#utility.yul\":8580:8584   */\n      0x41\n        /* \"#utility.yul\":8577:8578   */\n      0x04\n        /* \"#utility.yul\":8570:8585   */\n      mstore\n        /* \"#utility.yul\":8604:8608   */\n      0x24\n        /* \"#utility.yul\":8601:8602   */\n      0x00\n        /* \"#utility.yul\":8594:8609   */\n      revert\n        /* \"#utility.yul\":8621:8801   */\n    tag_139:\n        /* \"#utility.yul\":8669:8746   */\n      0x4e487b7100000000000000000000000000000000000000000000000000000000\n        /* \"#utility.yul\":8666:8667   */\n      0x00\n        /* \"#utility.yul\":8659:8747   */\n      mstore\n        /* \"#utility.yul\":8766:8770   */\n      0x22\n        /* \"#utility.yul\":8763:8764   */\n      0x04\n        /* \"#utility.yul\":8756:8771   */\n      mstore\n        /* \"#utility.yul\":8790:8794   */\n      0x24\n        /* \"#utility.yul\":8787:8788   */\n      0x00\n        /* \"#utility.yul\":8780:8795   */\n      revert\n        /* \"#utility.yul\":8807:9127   */\n    tag_95:\n        /* \"#utility.yul\":8851:8857   */\n      0x00\n        /* \"#utility.yul\":8888:8889   */\n      0x02\n        /* \"#utility.yul\":8882:8886   */\n      dup3\n        /* \"#utility.yul\":8878:8890   */\n      div\n        /* \"#utility.yul\":8868:8890   */\n      swap1\n      pop\n        /* \"#utility.yul\":8935:8936   */\n      0x01\n        /* \"#utility.yul\":8929:8933   */\n      dup3\n        /* \"#utility.yul\":8925:8937   */\n      and\n        /* \"#utility.yul\":8956:8974   */\n      dup1\n        /* \"#utility.yul\":8946:9027   */\n      tag_242\n      jumpi\n        /* \"#utility.yul\":9012:9016   */\n      0x7f\n        /* \"#utility.yul\":9004:9010   */\n      dup3\n        /* \"#utility.yul\":9000:9017   */\n      and\n        /* \"#utility.yul\":8990:9017   */\n      swap2\n      pop\n        /* \"#utility.yul\":8946:9027   */\n    tag_242:\n        /* \"#utility.yul\":9074:9076   */\n      0x20\n        /* \"#utility.yul\":9066:9072   */\n      dup3\n        /* \"#utility.yul\":9063:9077   */\n      lt\n        /* \"#utility.yul\":9043:9061   */\n      dup2\n        /* \"#utility.yul\":9040:9078   */\n      sub\n        /* \"#utility.yul\":9037:9121   */\n      tag_243\n      jumpi\n        /* \"#utility.yul\":9093:9111   */\n      tag_244\n      tag_139\n      jump\t// in\n    tag_244:\n        /* \"#utility.yul\":9037:9121   */\n    tag_243:\n        /* \"#utility.yul\":8858:9127   */\n      pop\n        /* \"#utility.yul\":8807:9127   */\n      swap2\n      swap1\n      pop\n      jump\t// out\n        /* \"#utility.yul\":9133:9274   */\n    tag_140:\n        /* \"#utility.yul\":9182:9186   */\n      0x00\n        /* \"#utility.yul\":9205:9208   */\n      dup2\n        /* \"#utility.yul\":9197:9208   */\n      swap1\n      pop\n        /* \"#utility.yul\":9228:9231   */\n      dup2\n        /* \"#utility.yul\":9225:9226   */\n      0x00\n        /* \"#utility.yul\":9218:9232   */\n      mstore\n        /* \"#utility.yul\":9262:9266   */\n      0x20\n        /* \"#utility.yul\":9259:9260   */\n      0x00\n        /* \"#utility.yul\":9249:9267   */\n      keccak256\n        /* \"#utility.yul\":9241:9267   */\n      swap1\n      pop\n        /* \"#utility.yul\":9133:9274   */\n      swap2\n      swap1\n      pop\n      jump\t// out\n        /* \"#utility.yul\":9280:9373   */\n    tag_141:\n        /* \"#utility.yul\":9317:9323   */\n      0x00\n        /* \"#utility.yul\":9364:9366   */\n      0x20\n        /* \"#utility.yul\":9359:9361   */\n      0x1f\n        /* \"#utility.yul\":9352:9357   */\n      dup4\n        /* \"#utility.yul\":9348:9362   */\n      add\n        /* \"#utility.yul\":9344:9367   */\n      div\n        /* \"#utility.yul\":9334:9367   */\n      swap1\n      pop\n        /* \"#utility.yul\":9280:9373   */\n      swap2\n      swap1\n      pop\n      jump\t// out\n        /* \"#utility.yul\":9379:9486   */\n    tag_142:\n        /* \"#utility.yul\":9423:9431   */\n      0x00\n        /* \"#utility.yul\":9473:9478   */\n      dup3\n        /* \"#utility.yul\":9467:9471   */\n      dup3\n        /* \"#utility.yul\":9463:9479   */\n      shl\n        /* \"#utility.yul\":9442:9479   */\n      swap1\n      pop\n        /* \"#utility.yul\":9379:9486   */\n      swap3\n      swap2\n      pop\n      pop\n      jump\t// out\n        /* \"#utility.yul\":9492:9885   */\n    tag_143:\n        /* \"#utility.yul\":9561:9567   */\n      0x00\n        /* \"#utility.yul\":9611:9612   */\n      0x08\n        /* \"#utility.yul\":9599:9609   */\n      dup4\n        /* \"#utility.yul\":9595:9613   */\n      mul\n        /* \"#utility.yul\":9634:9731   */\n      tag_249\n        /* \"#utility.yul\":9664:9730   */\n      0xffffffffffffffffffffffffffffffffffffffffffffffffffffffffffffffff\n        /* \"#utility.yul\":9653:9662   */\n      dup3\n        /* \"#utility.yul\":9634:9731   */\n      tag_142\n      jump\t// in\n    tag_249:\n        /* \"#utility.yul\":9752:9791   */\n      tag_250\n        /* \"#utility.yul\":9782:9790   */\n      dup7\n        /* \"#utility.yul\":9771:9780   */\n      dup4\n        /* \"#utility.yul\":9752:9791   */\n      tag_142\n      jump\t// in\n    tag_250:\n        /* \"#utility.yul\":9740:9791   */\n      swap6\n      pop\n        /* \"#utility.yul\":9824:9828   */\n      dup1\n        /* \"#utility.yul\":9820:9829   */\n      not\n        /* \"#utility.yul\":9813:9818   */\n      dup5\n        /* \"#utility.yul\":9809:9830   */\n      and\n        /* \"#utility.yul\":9800:9830   */\n      swap4\n      pop\n        /* \"#utility.yul\":9873:9877   */\n      dup1\n        /* \"#utility.yul\":9863:9871   */\n      dup7\n        /* \"#utility.yul\":9859:9878   */\n      and\n        /* \"#utility.yul\":9852:9857   */\n      dup5\n        /* \"#utility.yul\":9849:9879   */\n      or\n        /* \"#utility.yul\":9839:9879   */\n      swap3\n      pop\n        /* \"#utility.yul\":9568:9885   */\n      pop\n      pop\n        /* \"#utility.yul\":9492:9885   */\n      swap4\n      swap3\n      pop\n      pop\n      pop\n      jump\t// out\n        /* \"#utility.yul\":9891:9951   */\n    tag_144:\n        /* \"#utility.yul\":9919:9922   */\n      0x00\n        /* \"#utility.yul\":9940:9945   */\n      dup2\n        /* \"#utility.yul\":9933:9945   */\n      swap1\n      pop\n        /* \"#utility.yul\":9891:9951   */\n      swap2\n      swap1\n      pop\n      jump\t// out\n        /* \"#utility.yul\":9957:10099   */\n    tag_145:\n        /* \"#utility.yul\":10007:10016   */\n      0x00\n        /* \"#utility.yul\":10040:10093   */\n      tag_253\n        /* \"#utility.yul\":10058:10092   */\n      tag_254\n        /* \"#utility.yul\":10067:10091   */\n      tag_255\n        /* \"#utility.yul\":10085:10090   */\n      dup5\n        /* \"#utility.yul\":10067:10091   */\n      tag_114\n      jump\t// in\n    tag_255:\n        /* \"#utility.yul\":10058:10092   */\n      tag_144\n      jump\t// in\n    tag_254:\n        /* \"#utility.yul\":10040:10093   */\n      tag_114\n      jump\t// in\n    tag_253:\n        /* \"#utility.yul\":10027:10093   */\n      swap1\n      pop\n        /* \"#utility.yul\":9957:10099   */\n      swap2\n      swap1\n      pop\n      jump\t// out\n        /* \"#utility.yul\":10105:10180   */\n    tag_146:\n        /* \"#utility.yul\":10148:10151   */\n      0x00\n        /* \"#utility.yul\":10169:10174   */\n      dup2\n        /* \"#utility.yul\":10162:10174   */\n      swap1\n      pop\n        /* \"#utility.yul\":10105:10180   */\n      swap2\n      swap1\n      pop\n      jump\t// out\n        /* \"#utility.yul\":10186:10455   */\n    tag_147:\n        /* \"#utility.yul\":10296:10335   */\n      tag_258\n        /* \"#utility.yul\":10327:10334   */\n      dup4\n        /* \"#utility.yul\":10296:10335   */\n      tag_145\n      jump\t// in\n    tag_258:\n        /* \"#utility.yul\":10357:10448   */\n      tag_259\n        /* \"#utility.yul\":10406:10447   */\n      tag_260\n        /* \"#utility.yul\":10430:10446   */\n      dup3\n        /* \"#utility.yul\":10406:10447   */\n      tag_146\n      jump\t// in\n    tag_260:\n        /* \"#utility.yul\":10398:10404   */\n      dup5\n        /* \"#utility.yul\":10391:10395   */\n      dup5\n        /* \"#utility.yul\":10385:10396   */\n      sload\n        /* \"#utility.yul\":10357:10448   */\n      tag_143\n      jump\t// in\n    tag_259:\n        /* \"#utility.yul\":10351:10355   */\n      dup3\n        /* \"#utility.yul\":10344:10449   */\n      sstore\n        /* \"#utility.yul\":10262:10455   */\n      pop\n        /* \"#utility.yul\":10186:10455   */\n      pop\n      pop\n      pop\n      jump\t// out\n        /* \"#utility.yul\":10461:10534   */\n    tag_148:\n        /* \"#utility.yul\":10506:10509   */\n      0x00\n        /* \"#utility.yul\":10461:10534   */\n      swap1\n      jump\t// out\n        /* \"#utility.yul\":10540:10729   */\n    tag_149:\n        /* \"#utility.yul\":10617:10649   */\n      tag_263\n      tag_148\n      jump\t// in\n    tag_263:\n        /* \"#utility.yul\":10658:10723   */\n      tag_264\n        /* \"#utility.yul\":10716:10722   */\n      dup2\n        /* \"#utility.yul\":10708:10714   */\n      dup5\n        /* \"#utility.yul\":10702:10706   */\n      dup5\n        /* \"#utility.yul\":10658:10723   */\n      tag_147\n      jump\t// in\n    tag_264:\n        /* \"#utility.yul\":10593:10729   */\n      pop\n        /* \"#utility.yul\":10540:10729   */\n      pop\n      pop\n      jump\t// out\n        /* \"#utility.yul\":10735:10921   */\n    tag_150:\n        /* \"#utility.yul\":10795:10915   */\n    tag_266:\n        /* \"#utility.yul\":10812:10815   */\n      dup2\n        /* \"#utility.yul\":10805:10810   */\n      dup2\n        /* \"#utility.yul\":10802:10816   */\n      lt\n        /* \"#utility.yul\":10795:10915   */\n      iszero\n      tag_268\n      jumpi\n        /* \"#utility.yul\":10866:10905   */\n      tag_269\n        /* \"#utility.yul\":10903:10904   */\n      0x00\n        /* \"#utility.yul\":10896:10901   */\n      dup3\n        /* \"#utility.yul\":10866:10905   */\n      tag_149\n      jump\t// in\n    tag_269:\n        /* \"#utility.yul\":10839:10840   */\n      0x01\n        /* \"#utility.yul\":10832:10837   */\n      dup2\n        /* \"#utility.yul\":10828:10841   */\n      add\n        /* \"#utility.yul\":10819:10841   */\n      swap1\n      pop\n        /* \"#utility.yul\":10795:10915   */\n      jump(tag_266)\n    tag_268:\n        /* \"#utility.yul\":10735:10921   */\n      pop\n      pop\n      jump\t// out\n        /* \"#utility.yul\":10927:11470   */\n    tag_151:\n        /* \"#utility.yul\":11028:11030   */\n      0x1f\n        /* \"#utility.yul\":11023:11026   */\n      dup3\n        /* \"#utility.yul\":11020:11031   */\n      gt\n        /* \"#utility.yul\":11017:11463   */\n      iszero\n      tag_271\n      jumpi\n        /* \"#utility.yul\":11062:11100   */\n      tag_272\n        /* \"#utility.yul\":11094:11099   */\n      dup2\n        /* \"#utility.yul\":11062:11100   */\n      tag_140\n      jump\t// in\n    tag_272:\n        /* \"#utility.yul\":11146:11175   */\n      tag_273\n        /* \"#utility.yul\":11164:11174   */\n      dup5\n        /* \"#utility.yul\":11146:11175   */\n      tag_141\n      jump\t// in\n    tag_273:\n        /* \"#utility.yul\":11136:11144   */\n      dup2\n        /* \"#utility.yul\":11132:11176   */\n      add\n        /* \"#utility.yul\":11329:11331   */\n      0x20\n        /* \"#utility.yul\":11317:11327   */\n      dup6\n        /* \"#utility.yul\":11314:11332   */\n      lt\n        /* \"#utility.yul\":11311:11360   */\n      iszero\n      tag_274\n      jumpi\n        /* \"#utility.yul\":11350:11358   */\n      dup2\n        /* \"#utility.yul\":11335:11358   */\n      swap1\n      pop\n        /* \"#utility.yul\":11311:11360   */\n    tag_274:\n        /* \"#utility.yul\":11373:11453   */\n      tag_275\n        /* \"#utility.yul\":11429:11451   */\n      tag_276\n        /* \"#utility.yul\":11447:11450   */\n      dup6\n        /* \"#utility.yul\":11429:11451   */\n      tag_141\n      jump\t// in\n    tag_276:\n        /* \"#utility.yul\":11419:11427   */\n      dup4\n        /* \"#utility.yul\":11415:11452   */\n      add\n        /* \"#utility.yul\":11402:11413   */\n      dup3\n        /* \"#utility.yul\":11373:11453   */\n      tag_150\n      jump\t// in\n    tag_275:\n        /* \"#utility.yul\":11032:11463   */\n      pop\n      pop\n        /* \"#utility.yul\":11017:11463   */\n    tag_271:\n        /* \"#utility.yul\":10927:11470   */\n      pop\n      pop\n      pop\n      jump\t// out\n        /* \"#utility.yul\":11476:11593   */\n    tag_152:\n        /* \"#utility.yul\":11530:11538   */\n      0x00\n        /* \"#utility.yul\":11580:11585   */\n      dup3\n        /* \"#utility.yul\":11574:11578   */\n      dup3\n        /* \"#utility.yul\":11570:11586   */\n      shr\n        /* \"#utility.yul\":11549:11586   */\n      swap1\n      pop\n        /* \"#utility.yul\":11476:11593   */\n      swap3\n      swap2\n      pop\n      pop\n      jump\t// out\n        /* \"#utility.yul\":11599:11768   */\n    tag_153:\n        /* \"#utility.yul\":11643:11649   */\n      0x00\n        /* \"#utility.yul\":11676:11727   */\n      tag_279\n        /* \"#utility.yul\":11724:11725   */\n      0x00\n        /* \"#utility.yul\":11720:11726   */\n      not\n        /* \"#utility.yul\":11712:11717   */\n      dup5\n        /* \"#utility.yul\":11709:11710   */\n      0x08\n        /* \"#utility.yul\":11705:11718   */\n      mul\n        /* \"#utility.yul\":11676:11727   */\n      tag_152\n      jump\t// in\n    tag_279:\n        /* \"#utility.yul\":11672:11728   */\n      not\n        /* \"#utility.yul\":11757:11761   */\n      dup1\n        /* \"#utility.yul\":11751:11755   */\n      dup4\n        /* \"#utility.yul\":11747:11762   */\n      and\n        /* \"#utility.yul\":11737:11762   */\n      swap2\n      pop\n        /* \"#utility.yul\":11650:11768   */\n      pop\n        /* \"#utility.yul\":11599:11768   */\n      swap3\n      swap2\n      pop\n      pop\n      jump\t// out\n        /* \"#utility.yul\":11773:12068   */\n    tag_154:\n        /* \"#utility.yul\":11849:11853   */\n      0x00\n        /* \"#utility.yul\":11995:12024   */\n      tag_281\n        /* \"#utility.yul\":12020:12023   */\n      dup4\n        /* \"#utility.yul\":12014:12018   */\n      dup4\n        /* \"#utility.yul\":11995:12024   */\n      tag_153\n      jump\t// in\n    tag_281:\n        /* \"#utility.yul\":11987:12024   */\n      swap2\n      pop\n        /* \"#utility.yul\":12057:12060   */\n      dup3\n        /* \"#utility.yul\":12054:12055   */\n      0x02\n        /* \"#utility.yul\":12050:12061   */\n      mul\n        /* \"#utility.yul\":12044:12048   */\n      dup3\n        /* \"#utility.yul\":12041:12062   */\n      or\n        /* \"#utility.yul\":12033:12062   */\n      swap1\n      pop\n        /* \"#utility.yul\":11773:12068   */\n      swap3\n      swap2\n      pop\n      pop\n      jump\t// out\n        /* \"#utility.yul\":12073:13468   */\n    tag_90:\n        /* \"#utility.yul\":12190:12227   */\n      tag_283\n        /* \"#utility.yul\":12223:12226   */\n      dup3\n        /* \"#utility.yul\":12190:12227   */\n      tag_124\n      jump\t// in\n    tag_283:\n        /* \"#utility.yul\":12292:12310   */\n      0xffffffffffffffff\n        /* \"#utility.yul\":12284:12290   */\n      dup2\n        /* \"#utility.yul\":12281:12311   */\n      gt\n        /* \"#utility.yul\":12278:12334   */\n      iszero\n      tag_284\n      jumpi\n        /* \"#utility.yul\":12314:12332   */\n      tag_285\n      tag_138\n      jump\t// in\n    tag_285:\n        /* \"#utility.yul\":12278:12334   */\n    tag_284:\n        /* \"#utility.yul\":12358:12396   */\n      tag_286\n        /* \"#utility.yul\":12390:12394   */\n      dup3\n        /* \"#utility.yul\":12384:12395   */\n      sload\n        /* \"#utility.yul\":12358:12396   */\n      tag_95\n      jump\t// in\n    tag_286:\n        /* \"#utility.yul\":12443:12510   */\n      tag_287\n        /* \"#utility.yul\":12503:12509   */\n      dup3\n        /* \"#utility.yul\":12495:12501   */\n      dup3\n        /* \"#utility.yul\":12489:12493   */\n      dup6\n        /* \"#utility.yul\":12443:12510   */\n      tag_151\n      jump\t// in\n    tag_287:\n        /* \"#utility.yul\":12537:12538   */\n      0x00\n        /* \"#utility.yul\":12561:12565   */\n      0x20\n        /* \"#utility.yul\":12548:12565   */\n      swap1\n      pop\n        /* \"#utility.yul\":12593:12595   */\n      0x1f\n        /* \"#utility.yul\":12585:12591   */\n      dup4\n        /* \"#utility.yul\":12582:12596   */\n      gt\n        /* \"#utility.yul\":12610:12611   */\n      0x01\n        /* \"#utility.yul\":12605:13223   */\n      dup2\n      eq\n      tag_289\n      jumpi\n        /* \"#utility.yul\":13267:13268   */\n      0x00\n        /* \"#utility.yul\":13284:13290   */\n      dup5\n        /* \"#utility.yul\":13281:13358   */\n      iszero\n      tag_290\n      jumpi\n        /* \"#utility.yul\":13333:13342   */\n      dup3\n        /* \"#utility.yul\":13328:13331   */\n      dup8\n        /* \"#utility.yul\":13324:13343   */\n      add\n        /* \"#utility.yul\":13318:13344   */\n      mload\n        /* \"#utility.yul\":13309:13344   */\n      swap1\n      pop\n        /* \"#utility.yul\":13281:13358   */\n    tag_290:\n        /* \"#utility.yul\":13384:13451   */\n      tag_291\n        /* \"#utility.yul\":13444:13450   */\n      dup6\n        /* \"#utility.yul\":13437:13442   */\n      dup3\n        /* \"#utility.yul\":13384:13451   */\n      tag_154\n      jump\t// in\n    tag_291:\n        /* \"#utility.yul\":13378:13382   */\n      dup7\n        /* \"#utility.yul\":13371:13452   */\n      sstore\n        /* \"#utility.yul\":13240:13462   */\n      pop\n        /* \"#utility.yul\":12575:13462   */\n      jump(tag_288)\n        /* \"#utility.yul\":12605:13223   */\n    tag_289:\n        /* \"#utility.yul\":12657:12661   */\n      0x1f\n        /* \"#utility.yul\":12653:12662   */\n      not\n        /* \"#utility.yul\":12645:12651   */\n      dup5\n        /* \"#utility.yul\":12641:12663   */\n      and\n        /* \"#utility.yul\":12691:12728   */\n      tag_292\n        /* \"#utility.yul\":12723:12727   */\n      dup7\n        /* \"#utility.yul\":12691:12728   */\n      tag_140\n      jump\t// in\n    tag_292:\n        /* \"#utility.yul\":12750:12751   */\n      0x00\n        /* \"#utility.yul\":12764:12972   */\n    tag_293:\n        /* \"#utility.yul\":12778:12785   */\n      dup3\n        /* \"#utility.yul\":12775:12776   */\n      dup2\n        /* \"#utility.yul\":12772:12786   */\n      lt\n        /* \"#utility.yul\":12764:12972   */\n      iszero\n      tag_295\n      jumpi\n        /* \"#utility.yul\":12857:12866   */\n      dup5\n        /* \"#utility.yul\":12852:12855   */\n      dup10\n        /* \"#utility.yul\":12848:12867   */\n      add\n        /* \"#utility.yul\":12842:12868   */\n      mload\n        /* \"#utility.yul\":12834:12840   */\n      dup3\n        /* \"#utility.yul\":12827:12869   */\n      sstore\n        /* \"#utility.yul\":12908:12909   */\n      0x01\n        /* \"#utility.yul\":12900:12906   */\n      dup3\n        /* \"#utility.yul\":12896:12910   */\n      add\n        /* \"#utility.yul\":12886:12910   */\n      swap2\n      pop\n        /* \"#utility.yul\":12955:12957   */\n      0x20\n        /* \"#utility.yul\":12944:12953   */\n      dup6\n        /* \"#utility.yul\":12940:12958   */\n      add\n        /* \"#utility.yul\":12927:12958   */\n      swap5\n      pop\n        /* \"#utility.yul\":12801:12805   */\n      0x20\n        /* \"#utility.yul\":12798:12799   */\n      dup2\n        /* \"#utility.yul\":12794:12806   */\n      add\n        /* \"#utility.yul\":12789:12806   */\n      swap1\n      pop\n        /* \"#utility.yul\":12764:12972   */\n      jump(tag_293)\n    tag_295:\n        /* \"#utility.yul\":13000:13006   */\n      dup7\n        /* \"#utility.yul\":12991:12998   */\n      dup4\n        /* \"#utility.yul\":12988:13007   */\n      lt\n        /* \"#utility.yul\":12985:13164   */\n      iszero\n      tag_296\n      jumpi\n        /* \"#utility.yul\":13058:13067   */\n      dup5\n        /* \"#utility.yul\":13053:13056   */\n      dup10\n        /* \"#utility.yul\":13049:13068   */\n      add\n        /* \"#utility.yul\":13043:13069   */\n      mload\n        /* \"#utility.yul\":13101:13149   */\n      tag_297\n        /* \"#utility.yul\":13143:13147   */\n      0x1f\n        /* \"#utility.yul\":13135:13141   */\n      dup10\n        /* \"#utility.yul\":13131:13148   */\n      and\n        /* \"#utility.yul\":13120:13129   */\n      dup3\n        /* \"#utility.yul\":13101:13149   */\n      tag_153\n      jump\t// in\n    tag_297:\n        /* \"#utility.yul\":13093:13099   */\n      dup4\n        /* \"#utility.yul\":13086:13150   */\n      sstore\n        /* \"#utility.yul\":13008:13164   */\n      pop\n        /* \"#utility.yul\":12985:13164   */\n    tag_296:\n        /* \"#utility.yul\":13210:13211   */\n      0x01\n        /* \"#utility.yul\":13206:13207   */\n      0x02\n        /* \"#utility.yul\":13198:13204   */\n      dup9\n        /* \"#utility.yul\":13194:13208   */\n      mul\n        /* \"#utility.yul\":13190:13212   */\n      add\n        /* \"#utility.yul\":13184:13188   */\n      dup9\n        /* \"#utility.yul\":13177:13213   */\n      sstore\n        /* \"#utility.yul\":12612:13223   */\n      pop\n      pop\n      pop\n        /* \"#utility.yul\":12575:13462   */\n    tag_288:\n      pop\n        /* \"#utility.yul\":12165:13468   */\n      pop\n      pop\n      pop\n        /* \"#utility.yul\":12073:13468   */\n      pop\n      pop\n      jump\t// out\n        /* \"#utility.yul\":13474:13640   */\n    tag_155:\n        /* \"#utility.yul\":13614:13632   */\n      0x4e6f7420656e6f7567682066756e647300000000000000000000000000000000\n        /* \"#utility.yul\":13610:13611   */\n      0x00\n        /* \"#utility.yul\":13602:13608   */\n      dup3\n        /* \"#utility.yul\":13598:13612   */\n      add\n        /* \"#utility.yul\":13591:13633   */\n      mstore\n        /* \"#utility.yul\":13474:13640   */\n      pop\n      jump\t// out\n        /* \"#utility.yul\":13646:14012   */\n    tag_156:\n        /* \"#utility.yul\":13788:13791   */\n      0x00\n        /* \"#utility.yul\":13809:13876   */\n      tag_300\n        /* \"#utility.yul\":13873:13875   */\n      0x10\n        /* \"#utility.yul\":13868:13871   */\n      dup4\n        /* \"#utility.yul\":13809:13876   */\n      tag_125\n      jump\t// in\n    tag_300:\n        /* \"#utility.yul\":13802:13876   */\n      swap2\n      pop\n        /* \"#utility.yul\":13885:13978   */\n      tag_301\n        /* \"#utility.yul\":13974:13977   */\n      dup3\n        /* \"#utility.yul\":13885:13978   */\n      tag_155\n      jump\t// in\n    tag_301:\n        /* \"#utility.yul\":14003:14005   */\n      0x20\n        /* \"#utility.yul\":13998:14001   */\n      dup3\n        /* \"#utility.yul\":13994:14006   */\n      add\n        /* \"#utility.yul\":13987:14006   */\n      swap1\n      pop\n        /* \"#utility.yul\":13646:14012   */\n      swap2\n      swap1\n      pop\n      jump\t// out\n        /* \"#utility.yul\":14018:14437   */\n    tag_93:\n        /* \"#utility.yul\":14184:14188   */\n      0x00\n        /* \"#utility.yul\":14222:14224   */\n      0x20\n        /* \"#utility.yul\":14211:14220   */\n      dup3\n        /* \"#utility.yul\":14207:14225   */\n      add\n        /* \"#utility.yul\":14199:14225   */\n      swap1\n      pop\n        /* \"#utility.yul\":14271:14280   */\n      dup2\n        /* \"#utility.yul\":14265:14269   */\n      dup2\n        /* \"#utility.yul\":14261:14281   */\n      sub\n        /* \"#utility.yul\":14257:14258   */\n      0x00\n        /* \"#utility.yul\":14246:14255   */\n      dup4\n        /* \"#utility.yul\":14242:14259   */\n      add\n        /* \"#utility.yul\":14235:14282   */\n      mstore\n        /* \"#utility.yul\":14299:14430   */\n      tag_303\n        /* \"#utility.yul\":14425:14429   */\n      dup2\n        /* \"#utility.yul\":14299:14430   */\n      tag_156\n      jump\t// in\n    tag_303:\n        /* \"#utility.yul\":14291:14430   */\n      swap1\n      pop\n        /* \"#utility.yul\":14018:14437   */\n      swap2\n      swap1\n      pop\n      jump\t// out\n\n    auxdata: 0xa264697066735822122033674f498ccceb95e371d9400fb5eac62ebd3f3849c8f68ebae3e14ed603270764736f6c634300080f0033\n}\n",
				"bytecode": {
					"linkReferences": {},
					"object": "6080604052620151806003556000600f556000601060006101000a81548160ff0219169083151502179055503480156200003857600080fd5b50604051620011bd380380620011bd83398181016040528101906200005e91906200011f565b6008600a80546200006f9062000180565b90501480156200008f57506003600b80546200008b9062000180565b9050145b620000d1576040517f08c379a0000000000000000000000000000000000000000000000000000000008152600401620000c89062000216565b60405180910390fd5b806001819055505062000238565b600080fd5b6000819050919050565b620000f981620000e4565b81146200010557600080fd5b50565b6000815190506200011981620000ee565b92915050565b600060208284031215620001385762000137620000df565b5b6000620001488482850162000108565b91505092915050565b7f4e487b7100000000000000000000000000000000000000000000000000000000600052602260045260246000fd5b600060028204905060018216806200019957607f821691505b602082108103620001af57620001ae62000151565b5b50919050565b600082825260208201905092915050565b7f4e6f2076616c6964206372656469742063617264000000000000000000000000600082015250565b6000620001fe601483620001b5565b91506200020b82620001c6565b602082019050919050565b600060208201905081810360008301526200023181620001ef565b9050919050565b610f7580620002486000396000f3fe608060405234801561001057600080fd5b50600436106100ea5760003560e01c80637eb9f5711161008c57806394b5dcaa1161006657806394b5dcaa14610205578063aa8c217c14610223578063bc30949614610241578063e21f37ce1461025f576100ea565b80637eb9f571146101bf5780638e029c0b146101dd5780638fa11864146101e7576100ea565b80633c626f00116100c85780633c626f001461014757806342fb7936146101655780634b28f9a2146101835780637b9a3f4c146101a1576100ea565b8063062a7544146100ef5780630e85fa721461010b57806334f5ccde14610129575b600080fd5b61010960048036038101906101049190610802565b61027d565b005b61011361055f565b6040516101209190610851565b60405180910390f35b610131610565565b60405161013e9190610851565b60405180910390f35b61014f61056b565b60405161015c9190610887565b60405180910390f35b61016d61057e565b60405161017a919061093b565b60405180910390f35b61018b61060c565b6040516101989190610851565b60405180910390f35b6101a9610612565b6040516101b69190610851565b60405180910390f35b6101c7610618565b6040516101d49190610851565b60405180910390f35b6101e561061e565b005b6101ef61063b565b6040516101fc919061093b565b60405180910390f35b61020d6106c9565b60405161021a9190610851565b60405180910390f35b61022b6106cf565b6040516102389190610851565b60405180910390f35b6102496106d5565b6040516102569190610851565b60405180910390f35b6102676106db565b604051610274919061093b565b60405180910390f35b8080600260006101000a81548173ffffffffffffffffffffffffffffffffffffffff021916908373ffffffffffffffffffffffffffffffffffffffff160217905550600073ffffffffffffffffffffffffffffffffffffffff168173ffffffffffffffffffffffffffffffffffffffff160361032e576040517f08c379a0000000000000000000000000000000000000000000000000000000008152600401610325906109a9565b60405180910390fd5b60001515601060009054906101000a900460ff16151503610384576040517f08c379a000000000000000000000000000000000000000000000000000000000815260040161037b90610a15565b60405180910390fd5b6109c4600c5411156103cb576040517f08c379a00000000000000000000000000000000000000000000000000000000081526004016103c290610a81565b60405180910390fd5b42600d81905550601e600d546103e19190610ad0565b421115610423576040517f08c379a000000000000000000000000000000000000000000000000000000000815260040161041a90610b72565b60405180910390fd5b81600260006101000a81548173ffffffffffffffffffffffffffffffffffffffff021916908373ffffffffffffffffffffffffffffffffffffffff160217905550826000819055506001600f600082825461047e9190610ad0565b92505081905550600060015411801561049a5750600054600154115b1561051f57600054600160008282546104b39190610b92565b92505081905550600054600c60008282546104ce9190610ad0565b925050819055506040518060400160405280601281526020017f5472616e7366657220636f6d706c657465640000000000000000000000000000815250600990816105199190610e01565b5061055a565b6040517f08c379a000000000000000000000000000000000000000000000000000000000815260040161055190610f1f565b60405180910390fd5b505050565b600d5481565b600e5481565b601060009054906101000a900460ff1681565b600b805461058b90610c24565b80601f01602080910402602001604051908101604052809291908181526020018280546105b790610c24565b80156106045780601f106105d957610100808354040283529160200191610604565b820191906000526020600020905b8154815290600101906020018083116105e757829003601f168201915b505050505081565b600f5481565b60015481565b600c5481565b6000601060006101000a81548160ff021916908315150217905550565b600a805461064890610c24565b80601f016020809104026020016040519081016040528092919081815260200182805461067490610c24565b80156106c15780601f10610696576101008083540402835291602001916106c1565b820191906000526020600020905b8154815290600101906020018083116106a457829003601f168201915b505050505081565b60045481565b60005481565b60085481565b600980546106e890610c24565b80601f016020809104026020016040519081016040528092919081815260200182805461071490610c24565b80156107615780601f1061073657610100808354040283529160200191610761565b820191906000526020600020905b81548152906001019060200180831161074457829003601f168201915b505050505081565b600080fd5b6000819050919050565b6107818161076e565b811461078c57600080fd5b50565b60008135905061079e81610778565b92915050565b600073ffffffffffffffffffffffffffffffffffffffff82169050919050565b60006107cf826107a4565b9050919050565b6107df816107c4565b81146107ea57600080fd5b50565b6000813590506107fc816107d6565b92915050565b6000806040838503121561081957610818610769565b5b60006108278582860161078f565b9250506020610838858286016107ed565b9150509250929050565b61084b8161076e565b82525050565b60006020820190506108666000830184610842565b92915050565b60008115159050919050565b6108818161086c565b82525050565b600060208201905061089c6000830184610878565b92915050565b600081519050919050565b600082825260208201905092915050565b60005b838110156108dc5780820151818401526020810190506108c1565b838111156108eb576000848401525b50505050565b6000601f19601f8301169050919050565b600061090d826108a2565b61091781856108ad565b93506109278185602086016108be565b610930816108f1565b840191505092915050565b600060208201905081810360008301526109558184610902565b905092915050565b7f2054686973206164647265737320646f65736e27742065786973747300000000600082015250565b6000610993601c836108ad565b915061099e8261095d565b602082019050919050565b600060208201905081810360008301526109c281610986565b9050919050565b7f506c6561736520696e7365727420796f75722063617264000000000000000000600082015250565b60006109ff6017836108ad565b9150610a0a826109c9565b602082019050919050565b60006020820190508181036000830152610a2e816109f2565b9050919050565b7f596f75207265616368656420746865206c696d69740000000000000000000000600082015250565b6000610a6b6015836108ad565b9150610a7682610a35565b602082019050919050565b60006020820190508181036000830152610a9a81610a5e565b9050919050565b7f4e487b7100000000000000000000000000000000000000000000000000000000600052601160045260246000fd5b6000610adb8261076e565b9150610ae68361076e565b9250827fffffffffffffffffffffffffffffffffffffffffffffffffffffffffffffffff03821115610b1b57610b1a610aa1565b5b828201905092915050565b7f54696d6520706173736564000000000000000000000000000000000000000000600082015250565b6000610b5c600b836108ad565b9150610b6782610b26565b602082019050919050565b60006020820190508181036000830152610b8b81610b4f565b9050919050565b6000610b9d8261076e565b9150610ba88361076e565b925082821015610bbb57610bba610aa1565b5b828203905092915050565b7f4e487b7100000000000000000000000000000000000000000000000000000000600052604160045260246000fd5b7f4e487b7100000000000000000000000000000000000000000000000000000000600052602260045260246000fd5b60006002820490506001821680610c3c57607f821691505b602082108103610c4f57610c4e610bf5565b5b50919050565b60008190508160005260206000209050919050565b60006020601f8301049050919050565b600082821b905092915050565b600060088302610cb77fffffffffffffffffffffffffffffffffffffffffffffffffffffffffffffffff82610c7a565b610cc18683610c7a565b95508019841693508086168417925050509392505050565b6000819050919050565b6000610cfe610cf9610cf48461076e565b610cd9565b61076e565b9050919050565b6000819050919050565b610d1883610ce3565b610d2c610d2482610d05565b848454610c87565b825550505050565b600090565b610d41610d34565b610d4c818484610d0f565b505050565b5b81811015610d7057610d65600082610d39565b600181019050610d52565b5050565b601f821115610db557610d8681610c55565b610d8f84610c6a565b81016020851015610d9e578190505b610db2610daa85610c6a565b830182610d51565b50505b505050565b600082821c905092915050565b6000610dd860001984600802610dba565b1980831691505092915050565b6000610df18383610dc7565b9150826002028217905092915050565b610e0a826108a2565b67ffffffffffffffff811115610e2357610e22610bc6565b5b610e2d8254610c24565b610e38828285610d74565b600060209050601f831160018114610e6b5760008415610e59578287015190505b610e638582610de5565b865550610ecb565b601f198416610e7986610c55565b60005b82811015610ea157848901518255600182019150602085019450602081019050610e7c565b86831015610ebe5784890151610eba601f891682610dc7565b8355505b6001600288020188555050505b505050505050565b7f4e6f7420656e6f7567682066756e647300000000000000000000000000000000600082015250565b6000610f096010836108ad565b9150610f1482610ed3565b602082019050919050565b60006020820190508181036000830152610f3881610efc565b905091905056fea264697066735822122033674f498ccceb95e371d9400fb5eac62ebd3f3849c8f68ebae3e14ed603270764736f6c634300080f0033",
					"opcodes": "PUSH1 0x80 PUSH1 0x40 MSTORE PUSH3 0x15180 PUSH1 0x3 SSTORE PUSH1 0x0 PUSH1 0xF SSTORE PUSH1 0x0 PUSH1 0x10 PUSH1 0x0 PUSH2 0x100 EXP DUP2 SLOAD DUP2 PUSH1 0xFF MUL NOT AND SWAP1 DUP4 ISZERO ISZERO MUL OR SWAP1 SSTORE POP CALLVALUE DUP1 ISZERO PUSH3 0x38 JUMPI PUSH1 0x0 DUP1 REVERT JUMPDEST POP PUSH1 0x40 MLOAD PUSH3 0x11BD CODESIZE SUB DUP1 PUSH3 0x11BD DUP4 CODECOPY DUP2 DUP2 ADD PUSH1 0x40 MSTORE DUP2 ADD SWAP1 PUSH3 0x5E SWAP2 SWAP1 PUSH3 0x11F JUMP JUMPDEST PUSH1 0x8 PUSH1 0xA DUP1 SLOAD PUSH3 0x6F SWAP1 PUSH3 0x180 JUMP JUMPDEST SWAP1 POP EQ DUP1 ISZERO PUSH3 0x8F JUMPI POP PUSH1 0x3 PUSH1 0xB DUP1 SLOAD PUSH3 0x8B SWAP1 PUSH3 0x180 JUMP JUMPDEST SWAP1 POP EQ JUMPDEST PUSH3 0xD1 JUMPI PUSH1 0x40 MLOAD PUSH32 0x8C379A000000000000000000000000000000000000000000000000000000000 DUP2 MSTORE PUSH1 0x4 ADD PUSH3 0xC8 SWAP1 PUSH3 0x216 JUMP JUMPDEST PUSH1 0x40 MLOAD DUP1 SWAP2 SUB SWAP1 REVERT JUMPDEST DUP1 PUSH1 0x1 DUP2 SWAP1 SSTORE POP POP PUSH3 0x238 JUMP JUMPDEST PUSH1 0x0 DUP1 REVERT JUMPDEST PUSH1 0x0 DUP2 SWAP1 POP SWAP2 SWAP1 POP JUMP JUMPDEST PUSH3 0xF9 DUP2 PUSH3 0xE4 JUMP JUMPDEST DUP2 EQ PUSH3 0x105 JUMPI PUSH1 0x0 DUP1 REVERT JUMPDEST POP JUMP JUMPDEST PUSH1 0x0 DUP2 MLOAD SWAP1 POP PUSH3 0x119 DUP2 PUSH3 0xEE JUMP JUMPDEST SWAP3 SWAP2 POP POP JUMP JUMPDEST PUSH1 0x0 PUSH1 0x20 DUP3 DUP5 SUB SLT ISZERO PUSH3 0x138 JUMPI PUSH3 0x137 PUSH3 0xDF JUMP JUMPDEST JUMPDEST PUSH1 0x0 PUSH3 0x148 DUP5 DUP3 DUP6 ADD PUSH3 0x108 JUMP JUMPDEST SWAP2 POP POP SWAP3 SWAP2 POP POP JUMP JUMPDEST PUSH32 0x4E487B7100000000000000000000000000000000000000000000000000000000 PUSH1 0x0 MSTORE PUSH1 0x22 PUSH1 0x4 MSTORE PUSH1 0x24 PUSH1 0x0 REVERT JUMPDEST PUSH1 0x0 PUSH1 0x2 DUP3 DIV SWAP1 POP PUSH1 0x1 DUP3 AND DUP1 PUSH3 0x199 JUMPI PUSH1 0x7F DUP3 AND SWAP2 POP JUMPDEST PUSH1 0x20 DUP3 LT DUP2 SUB PUSH3 0x1AF JUMPI PUSH3 0x1AE PUSH3 0x151 JUMP JUMPDEST JUMPDEST POP SWAP2 SWAP1 POP JUMP JUMPDEST PUSH1 0x0 DUP3 DUP3 MSTORE PUSH1 0x20 DUP3 ADD SWAP1 POP SWAP3 SWAP2 POP POP JUMP JUMPDEST PUSH32 0x4E6F2076616C6964206372656469742063617264000000000000000000000000 PUSH1 0x0 DUP3 ADD MSTORE POP JUMP JUMPDEST PUSH1 0x0 PUSH3 0x1FE PUSH1 0x14 DUP4 PUSH3 0x1B5 JUMP JUMPDEST SWAP2 POP PUSH3 0x20B DUP3 PUSH3 0x1C6 JUMP JUMPDEST PUSH1 0x20 DUP3 ADD SWAP1 POP SWAP2 SWAP1 POP JUMP JUMPDEST PUSH1 0x0 PUSH1 0x20 DUP3 ADD SWAP1 POP DUP2 DUP2 SUB PUSH1 0x0 DUP4 ADD MSTORE PUSH3 0x231 DUP2 PUSH3 0x1EF JUMP JUMPDEST SWAP1 POP SWAP2 SWAP1 POP JUMP JUMPDEST PUSH2 0xF75 DUP1 PUSH3 0x248 PUSH1 0x0 CODECOPY PUSH1 0x0 RETURN INVALID PUSH1 0x80 PUSH1 0x40 MSTORE CALLVALUE DUP1 ISZERO PUSH2 0x10 JUMPI PUSH1 0x0 DUP1 REVERT JUMPDEST POP PUSH1 0x4 CALLDATASIZE LT PUSH2 0xEA JUMPI PUSH1 0x0 CALLDATALOAD PUSH1 0xE0 SHR DUP1 PUSH4 0x7EB9F571 GT PUSH2 0x8C JUMPI DUP1 PUSH4 0x94B5DCAA GT PUSH2 0x66 JUMPI DUP1 PUSH4 0x94B5DCAA EQ PUSH2 0x205 JUMPI DUP1 PUSH4 0xAA8C217C EQ PUSH2 0x223 JUMPI DUP1 PUSH4 0xBC309496 EQ PUSH2 0x241 JUMPI DUP1 PUSH4 0xE21F37CE EQ PUSH2 0x25F JUMPI PUSH2 0xEA JUMP JUMPDEST DUP1 PUSH4 0x7EB9F571 EQ PUSH2 0x1BF JUMPI DUP1 PUSH4 0x8E029C0B EQ PUSH2 0x1DD JUMPI DUP1 PUSH4 0x8FA11864 EQ PUSH2 0x1E7 JUMPI PUSH2 0xEA JUMP JUMPDEST DUP1 PUSH4 0x3C626F00 GT PUSH2 0xC8 JUMPI DUP1 PUSH4 0x3C626F00 EQ PUSH2 0x147 JUMPI DUP1 PUSH4 0x42FB7936 EQ PUSH2 0x165 JUMPI DUP1 PUSH4 0x4B28F9A2 EQ PUSH2 0x183 JUMPI DUP1 PUSH4 0x7B9A3F4C EQ PUSH2 0x1A1 JUMPI PUSH2 0xEA JUMP JUMPDEST DUP1 PUSH4 0x62A7544 EQ PUSH2 0xEF JUMPI DUP1 PUSH4 0xE85FA72 EQ PUSH2 0x10B JUMPI DUP1 PUSH4 0x34F5CCDE EQ PUSH2 0x129 JUMPI JUMPDEST PUSH1 0x0 DUP1 REVERT JUMPDEST PUSH2 0x109 PUSH1 0x4 DUP1 CALLDATASIZE SUB DUP2 ADD SWAP1 PUSH2 0x104 SWAP2 SWAP1 PUSH2 0x802 JUMP JUMPDEST PUSH2 0x27D JUMP JUMPDEST STOP JUMPDEST PUSH2 0x113 PUSH2 0x55F JUMP JUMPDEST PUSH1 0x40 MLOAD PUSH2 0x120 SWAP2 SWAP1 PUSH2 0x851 JUMP JUMPDEST PUSH1 0x40 MLOAD DUP1 SWAP2 SUB SWAP1 RETURN JUMPDEST PUSH2 0x131 PUSH2 0x565 JUMP JUMPDEST PUSH1 0x40 MLOAD PUSH2 0x13E SWAP2 SWAP1 PUSH2 0x851 JUMP JUMPDEST PUSH1 0x40 MLOAD DUP1 SWAP2 SUB SWAP1 RETURN JUMPDEST PUSH2 0x14F PUSH2 0x56B JUMP JUMPDEST PUSH1 0x40 MLOAD PUSH2 0x15C SWAP2 SWAP1 PUSH2 0x887 JUMP JUMPDEST PUSH1 0x40 MLOAD DUP1 SWAP2 SUB SWAP1 RETURN JUMPDEST PUSH2 0x16D PUSH2 0x57E JUMP JUMPDEST PUSH1 0x40 MLOAD PUSH2 0x17A SWAP2 SWAP1 PUSH2 0x93B JUMP JUMPDEST PUSH1 0x40 MLOAD DUP1 SWAP2 SUB SWAP1 RETURN JUMPDEST PUSH2 0x18B PUSH2 0x60C JUMP JUMPDEST PUSH1 0x40 MLOAD PUSH2 0x198 SWAP2 SWAP1 PUSH2 0x851 JUMP JUMPDEST PUSH1 0x40 MLOAD DUP1 SWAP2 SUB SWAP1 RETURN JUMPDEST PUSH2 0x1A9 PUSH2 0x612 JUMP JUMPDEST PUSH1 0x40 MLOAD PUSH2 0x1B6 SWAP2 SWAP1 PUSH2 0x851 JUMP JUMPDEST PUSH1 0x40 MLOAD DUP1 SWAP2 SUB SWAP1 RETURN JUMPDEST PUSH2 0x1C7 PUSH2 0x618 JUMP JUMPDEST PUSH1 0x40 MLOAD PUSH2 0x1D4 SWAP2 SWAP1 PUSH2 0x851 JUMP JUMPDEST PUSH1 0x40 MLOAD DUP1 SWAP2 SUB SWAP1 RETURN JUMPDEST PUSH2 0x1E5 PUSH2 0x61E JUMP JUMPDEST STOP JUMPDEST PUSH2 0x1EF PUSH2 0x63B JUMP JUMPDEST PUSH1 0x40 MLOAD PUSH2 0x1FC SWAP2 SWAP1 PUSH2 0x93B JUMP JUMPDEST PUSH1 0x40 MLOAD DUP1 SWAP2 SUB SWAP1 RETURN JUMPDEST PUSH2 0x20D PUSH2 0x6C9 JUMP JUMPDEST PUSH1 0x40 MLOAD PUSH2 0x21A SWAP2 SWAP1 PUSH2 0x851 JUMP JUMPDEST PUSH1 0x40 MLOAD DUP1 SWAP2 SUB SWAP1 RETURN JUMPDEST PUSH2 0x22B PUSH2 0x6CF JUMP JUMPDEST PUSH1 0x40 MLOAD PUSH2 0x238 SWAP2 SWAP1 PUSH2 0x851 JUMP JUMPDEST PUSH1 0x40 MLOAD DUP1 SWAP2 SUB SWAP1 RETURN JUMPDEST PUSH2 0x249 PUSH2 0x6D5 JUMP JUMPDEST PUSH1 0x40 MLOAD PUSH2 0x256 SWAP2 SWAP1 PUSH2 0x851 JUMP JUMPDEST PUSH1 0x40 MLOAD DUP1 SWAP2 SUB SWAP1 RETURN JUMPDEST PUSH2 0x267 PUSH2 0x6DB JUMP JUMPDEST PUSH1 0x40 MLOAD PUSH2 0x274 SWAP2 SWAP1 PUSH2 0x93B JUMP JUMPDEST PUSH1 0x40 MLOAD DUP1 SWAP2 SUB SWAP1 RETURN JUMPDEST DUP1 DUP1 PUSH1 0x2 PUSH1 0x0 PUSH2 0x100 EXP DUP2 SLOAD DUP2 PUSH20 0xFFFFFFFFFFFFFFFFFFFFFFFFFFFFFFFFFFFFFFFF MUL NOT AND SWAP1 DUP4 PUSH20 0xFFFFFFFFFFFFFFFFFFFFFFFFFFFFFFFFFFFFFFFF AND MUL OR SWAP1 SSTORE POP PUSH1 0x0 PUSH20 0xFFFFFFFFFFFFFFFFFFFFFFFFFFFFFFFFFFFFFFFF AND DUP2 PUSH20 0xFFFFFFFFFFFFFFFFFFFFFFFFFFFFFFFFFFFFFFFF AND SUB PUSH2 0x32E JUMPI PUSH1 0x40 MLOAD PUSH32 0x8C379A000000000000000000000000000000000000000000000000000000000 DUP2 MSTORE PUSH1 0x4 ADD PUSH2 0x325 SWAP1 PUSH2 0x9A9 JUMP JUMPDEST PUSH1 0x40 MLOAD DUP1 SWAP2 SUB SWAP1 REVERT JUMPDEST PUSH1 0x0 ISZERO ISZERO PUSH1 0x10 PUSH1 0x0 SWAP1 SLOAD SWAP1 PUSH2 0x100 EXP SWAP1 DIV PUSH1 0xFF AND ISZERO ISZERO SUB PUSH2 0x384 JUMPI PUSH1 0x40 MLOAD PUSH32 0x8C379A000000000000000000000000000000000000000000000000000000000 DUP2 MSTORE PUSH1 0x4 ADD PUSH2 0x37B SWAP1 PUSH2 0xA15 JUMP JUMPDEST PUSH1 0x40 MLOAD DUP1 SWAP2 SUB SWAP1 REVERT JUMPDEST PUSH2 0x9C4 PUSH1 0xC SLOAD GT ISZERO PUSH2 0x3CB JUMPI PUSH1 0x40 MLOAD PUSH32 0x8C379A000000000000000000000000000000000000000000000000000000000 DUP2 MSTORE PUSH1 0x4 ADD PUSH2 0x3C2 SWAP1 PUSH2 0xA81 JUMP JUMPDEST PUSH1 0x40 MLOAD DUP1 SWAP2 SUB SWAP1 REVERT JUMPDEST TIMESTAMP PUSH1 0xD DUP2 SWAP1 SSTORE POP PUSH1 0x1E PUSH1 0xD SLOAD PUSH2 0x3E1 SWAP2 SWAP1 PUSH2 0xAD0 JUMP JUMPDEST TIMESTAMP GT ISZERO PUSH2 0x423 JUMPI PUSH1 0x40 MLOAD PUSH32 0x8C379A000000000000000000000000000000000000000000000000000000000 DUP2 MSTORE PUSH1 0x4 ADD PUSH2 0x41A SWAP1 PUSH2 0xB72 JUMP JUMPDEST PUSH1 0x40 MLOAD DUP1 SWAP2 SUB SWAP1 REVERT JUMPDEST DUP2 PUSH1 0x2 PUSH1 0x0 PUSH2 0x100 EXP DUP2 SLOAD DUP2 PUSH20 0xFFFFFFFFFFFFFFFFFFFFFFFFFFFFFFFFFFFFFFFF MUL NOT AND SWAP1 DUP4 PUSH20 0xFFFFFFFFFFFFFFFFFFFFFFFFFFFFFFFFFFFFFFFF AND MUL OR SWAP1 SSTORE POP DUP3 PUSH1 0x0 DUP2 SWAP1 SSTORE POP PUSH1 0x1 PUSH1 0xF PUSH1 0x0 DUP3 DUP3 SLOAD PUSH2 0x47E SWAP2 SWAP1 PUSH2 0xAD0 JUMP JUMPDEST SWAP3 POP POP DUP2 SWAP1 SSTORE POP PUSH1 0x0 PUSH1 0x1 SLOAD GT DUP1 ISZERO PUSH2 0x49A JUMPI POP PUSH1 0x0 SLOAD PUSH1 0x1 SLOAD GT JUMPDEST ISZERO PUSH2 0x51F JUMPI PUSH1 0x0 SLOAD PUSH1 0x1 PUSH1 0x0 DUP3 DUP3 SLOAD PUSH2 0x4B3 SWAP2 SWAP1 PUSH2 0xB92 JUMP JUMPDEST SWAP3 POP POP DUP2 SWAP1 SSTORE POP PUSH1 0x0 SLOAD PUSH1 0xC PUSH1 0x0 DUP3 DUP3 SLOAD PUSH2 0x4CE SWAP2 SWAP1 PUSH2 0xAD0 JUMP JUMPDEST SWAP3 POP POP DUP2 SWAP1 SSTORE POP PUSH1 0x40 MLOAD DUP1 PUSH1 0x40 ADD PUSH1 0x40 MSTORE DUP1 PUSH1 0x12 DUP2 MSTORE PUSH1 0x20 ADD PUSH32 0x5472616E7366657220636F6D706C657465640000000000000000000000000000 DUP2 MSTORE POP PUSH1 0x9 SWAP1 DUP2 PUSH2 0x519 SWAP2 SWAP1 PUSH2 0xE01 JUMP JUMPDEST POP PUSH2 0x55A JUMP JUMPDEST PUSH1 0x40 MLOAD PUSH32 0x8C379A000000000000000000000000000000000000000000000000000000000 DUP2 MSTORE PUSH1 0x4 ADD PUSH2 0x551 SWAP1 PUSH2 0xF1F JUMP JUMPDEST PUSH1 0x40 MLOAD DUP1 SWAP2 SUB SWAP1 REVERT JUMPDEST POP POP POP JUMP JUMPDEST PUSH1 0xD SLOAD DUP2 JUMP JUMPDEST PUSH1 0xE SLOAD DUP2 JUMP JUMPDEST PUSH1 0x10 PUSH1 0x0 SWAP1 SLOAD SWAP1 PUSH2 0x100 EXP SWAP1 DIV PUSH1 0xFF AND DUP2 JUMP JUMPDEST PUSH1 0xB DUP1 SLOAD PUSH2 0x58B SWAP1 PUSH2 0xC24 JUMP JUMPDEST DUP1 PUSH1 0x1F ADD PUSH1 0x20 DUP1 SWAP2 DIV MUL PUSH1 0x20 ADD PUSH1 0x40 MLOAD SWAP1 DUP2 ADD PUSH1 0x40 MSTORE DUP1 SWAP3 SWAP2 SWAP1 DUP2 DUP2 MSTORE PUSH1 0x20 ADD DUP3 DUP1 SLOAD PUSH2 0x5B7 SWAP1 PUSH2 0xC24 JUMP JUMPDEST DUP1 ISZERO PUSH2 0x604 JUMPI DUP1 PUSH1 0x1F LT PUSH2 0x5D9 JUMPI PUSH2 0x100 DUP1 DUP4 SLOAD DIV MUL DUP4 MSTORE SWAP2 PUSH1 0x20 ADD SWAP2 PUSH2 0x604 JUMP JUMPDEST DUP3 ADD SWAP2 SWAP1 PUSH1 0x0 MSTORE PUSH1 0x20 PUSH1 0x0 KECCAK256 SWAP1 JUMPDEST DUP2 SLOAD DUP2 MSTORE SWAP1 PUSH1 0x1 ADD SWAP1 PUSH1 0x20 ADD DUP1 DUP4 GT PUSH2 0x5E7 JUMPI DUP3 SWAP1 SUB PUSH1 0x1F AND DUP3 ADD SWAP2 JUMPDEST POP POP POP POP POP DUP2 JUMP JUMPDEST PUSH1 0xF SLOAD DUP2 JUMP JUMPDEST PUSH1 0x1 SLOAD DUP2 JUMP JUMPDEST PUSH1 0xC SLOAD DUP2 JUMP JUMPDEST PUSH1 0x0 PUSH1 0x10 PUSH1 0x0 PUSH2 0x100 EXP DUP2 SLOAD DUP2 PUSH1 0xFF MUL NOT AND SWAP1 DUP4 ISZERO ISZERO MUL OR SWAP1 SSTORE POP JUMP JUMPDEST PUSH1 0xA DUP1 SLOAD PUSH2 0x648 SWAP1 PUSH2 0xC24 JUMP JUMPDEST DUP1 PUSH1 0x1F ADD PUSH1 0x20 DUP1 SWAP2 DIV MUL PUSH1 0x20 ADD PUSH1 0x40 MLOAD SWAP1 DUP2 ADD PUSH1 0x40 MSTORE DUP1 SWAP3 SWAP2 SWAP1 DUP2 DUP2 MSTORE PUSH1 0x20 ADD DUP3 DUP1 SLOAD PUSH2 0x674 SWAP1 PUSH2 0xC24 JUMP JUMPDEST DUP1 ISZERO PUSH2 0x6C1 JUMPI DUP1 PUSH1 0x1F LT PUSH2 0x696 JUMPI PUSH2 0x100 DUP1 DUP4 SLOAD DIV MUL DUP4 MSTORE SWAP2 PUSH1 0x20 ADD SWAP2 PUSH2 0x6C1 JUMP JUMPDEST DUP3 ADD SWAP2 SWAP1 PUSH1 0x0 MSTORE PUSH1 0x20 PUSH1 0x0 KECCAK256 SWAP1 JUMPDEST DUP2 SLOAD DUP2 MSTORE SWAP1 PUSH1 0x1 ADD SWAP1 PUSH1 0x20 ADD DUP1 DUP4 GT PUSH2 0x6A4 JUMPI DUP3 SWAP1 SUB PUSH1 0x1F AND DUP3 ADD SWAP2 JUMPDEST POP POP POP POP POP DUP2 JUMP JUMPDEST PUSH1 0x4 SLOAD DUP2 JUMP JUMPDEST PUSH1 0x0 SLOAD DUP2 JUMP JUMPDEST PUSH1 0x8 SLOAD DUP2 JUMP JUMPDEST PUSH1 0x9 DUP1 SLOAD PUSH2 0x6E8 SWAP1 PUSH2 0xC24 JUMP JUMPDEST DUP1 PUSH1 0x1F ADD PUSH1 0x20 DUP1 SWAP2 DIV MUL PUSH1 0x20 ADD PUSH1 0x40 MLOAD SWAP1 DUP2 ADD PUSH1 0x40 MSTORE DUP1 SWAP3 SWAP2 SWAP1 DUP2 DUP2 MSTORE PUSH1 0x20 ADD DUP3 DUP1 SLOAD PUSH2 0x714 SWAP1 PUSH2 0xC24 JUMP JUMPDEST DUP1 ISZERO PUSH2 0x761 JUMPI DUP1 PUSH1 0x1F LT PUSH2 0x736 JUMPI PUSH2 0x100 DUP1 DUP4 SLOAD DIV MUL DUP4 MSTORE SWAP2 PUSH1 0x20 ADD SWAP2 PUSH2 0x761 JUMP JUMPDEST DUP3 ADD SWAP2 SWAP1 PUSH1 0x0 MSTORE PUSH1 0x20 PUSH1 0x0 KECCAK256 SWAP1 JUMPDEST DUP2 SLOAD DUP2 MSTORE SWAP1 PUSH1 0x1 ADD SWAP1 PUSH1 0x20 ADD DUP1 DUP4 GT PUSH2 0x744 JUMPI DUP3 SWAP1 SUB PUSH1 0x1F AND DUP3 ADD SWAP2 JUMPDEST POP POP POP POP POP DUP2 JUMP JUMPDEST PUSH1 0x0 DUP1 REVERT JUMPDEST PUSH1 0x0 DUP2 SWAP1 POP SWAP2 SWAP1 POP JUMP JUMPDEST PUSH2 0x781 DUP2 PUSH2 0x76E JUMP JUMPDEST DUP2 EQ PUSH2 0x78C JUMPI PUSH1 0x0 DUP1 REVERT JUMPDEST POP JUMP JUMPDEST PUSH1 0x0 DUP2 CALLDATALOAD SWAP1 POP PUSH2 0x79E DUP2 PUSH2 0x778 JUMP JUMPDEST SWAP3 SWAP2 POP POP JUMP JUMPDEST PUSH1 0x0 PUSH20 0xFFFFFFFFFFFFFFFFFFFFFFFFFFFFFFFFFFFFFFFF DUP3 AND SWAP1 POP SWAP2 SWAP1 POP JUMP JUMPDEST PUSH1 0x0 PUSH2 0x7CF DUP3 PUSH2 0x7A4 JUMP JUMPDEST SWAP1 POP SWAP2 SWAP1 POP JUMP JUMPDEST PUSH2 0x7DF DUP2 PUSH2 0x7C4 JUMP JUMPDEST DUP2 EQ PUSH2 0x7EA JUMPI PUSH1 0x0 DUP1 REVERT JUMPDEST POP JUMP JUMPDEST PUSH1 0x0 DUP2 CALLDATALOAD SWAP1 POP PUSH2 0x7FC DUP2 PUSH2 0x7D6 JUMP JUMPDEST SWAP3 SWAP2 POP POP JUMP JUMPDEST PUSH1 0x0 DUP1 PUSH1 0x40 DUP4 DUP6 SUB SLT ISZERO PUSH2 0x819 JUMPI PUSH2 0x818 PUSH2 0x769 JUMP JUMPDEST JUMPDEST PUSH1 0x0 PUSH2 0x827 DUP6 DUP3 DUP7 ADD PUSH2 0x78F JUMP JUMPDEST SWAP3 POP POP PUSH1 0x20 PUSH2 0x838 DUP6 DUP3 DUP7 ADD PUSH2 0x7ED JUMP JUMPDEST SWAP2 POP POP SWAP3 POP SWAP3 SWAP1 POP JUMP JUMPDEST PUSH2 0x84B DUP2 PUSH2 0x76E JUMP JUMPDEST DUP3 MSTORE POP POP JUMP JUMPDEST PUSH1 0x0 PUSH1 0x20 DUP3 ADD SWAP1 POP PUSH2 0x866 PUSH1 0x0 DUP4 ADD DUP5 PUSH2 0x842 JUMP JUMPDEST SWAP3 SWAP2 POP POP JUMP JUMPDEST PUSH1 0x0 DUP2 ISZERO ISZERO SWAP1 POP SWAP2 SWAP1 POP JUMP JUMPDEST PUSH2 0x881 DUP2 PUSH2 0x86C JUMP JUMPDEST DUP3 MSTORE POP POP JUMP JUMPDEST PUSH1 0x0 PUSH1 0x20 DUP3 ADD SWAP1 POP PUSH2 0x89C PUSH1 0x0 DUP4 ADD DUP5 PUSH2 0x878 JUMP JUMPDEST SWAP3 SWAP2 POP POP JUMP JUMPDEST PUSH1 0x0 DUP2 MLOAD SWAP1 POP SWAP2 SWAP1 POP JUMP JUMPDEST PUSH1 0x0 DUP3 DUP3 MSTORE PUSH1 0x20 DUP3 ADD SWAP1 POP SWAP3 SWAP2 POP POP JUMP JUMPDEST PUSH1 0x0 JUMPDEST DUP4 DUP2 LT ISZERO PUSH2 0x8DC JUMPI DUP1 DUP3 ADD MLOAD DUP2 DUP5 ADD MSTORE PUSH1 0x20 DUP2 ADD SWAP1 POP PUSH2 0x8C1 JUMP JUMPDEST DUP4 DUP2 GT ISZERO PUSH2 0x8EB JUMPI PUSH1 0x0 DUP5 DUP5 ADD MSTORE JUMPDEST POP POP POP POP JUMP JUMPDEST PUSH1 0x0 PUSH1 0x1F NOT PUSH1 0x1F DUP4 ADD AND SWAP1 POP SWAP2 SWAP1 POP JUMP JUMPDEST PUSH1 0x0 PUSH2 0x90D DUP3 PUSH2 0x8A2 JUMP JUMPDEST PUSH2 0x917 DUP2 DUP6 PUSH2 0x8AD JUMP JUMPDEST SWAP4 POP PUSH2 0x927 DUP2 DUP6 PUSH1 0x20 DUP7 ADD PUSH2 0x8BE JUMP JUMPDEST PUSH2 0x930 DUP2 PUSH2 0x8F1 JUMP JUMPDEST DUP5 ADD SWAP2 POP POP SWAP3 SWAP2 POP POP JUMP JUMPDEST PUSH1 0x0 PUSH1 0x20 DUP3 ADD SWAP1 POP DUP2 DUP2 SUB PUSH1 0x0 DUP4 ADD MSTORE PUSH2 0x955 DUP2 DUP5 PUSH2 0x902 JUMP JUMPDEST SWAP1 POP SWAP3 SWAP2 POP POP JUMP JUMPDEST PUSH32 0x2054686973206164647265737320646F65736E27742065786973747300000000 PUSH1 0x0 DUP3 ADD MSTORE POP JUMP JUMPDEST PUSH1 0x0 PUSH2 0x993 PUSH1 0x1C DUP4 PUSH2 0x8AD JUMP JUMPDEST SWAP2 POP PUSH2 0x99E DUP3 PUSH2 0x95D JUMP JUMPDEST PUSH1 0x20 DUP3 ADD SWAP1 POP SWAP2 SWAP1 POP JUMP JUMPDEST PUSH1 0x0 PUSH1 0x20 DUP3 ADD SWAP1 POP DUP2 DUP2 SUB PUSH1 0x0 DUP4 ADD MSTORE PUSH2 0x9C2 DUP2 PUSH2 0x986 JUMP JUMPDEST SWAP1 POP SWAP2 SWAP1 POP JUMP JUMPDEST PUSH32 0x506C6561736520696E7365727420796F75722063617264000000000000000000 PUSH1 0x0 DUP3 ADD MSTORE POP JUMP JUMPDEST PUSH1 0x0 PUSH2 0x9FF PUSH1 0x17 DUP4 PUSH2 0x8AD JUMP JUMPDEST SWAP2 POP PUSH2 0xA0A DUP3 PUSH2 0x9C9 JUMP JUMPDEST PUSH1 0x20 DUP3 ADD SWAP1 POP SWAP2 SWAP1 POP JUMP JUMPDEST PUSH1 0x0 PUSH1 0x20 DUP3 ADD SWAP1 POP DUP2 DUP2 SUB PUSH1 0x0 DUP4 ADD MSTORE PUSH2 0xA2E DUP2 PUSH2 0x9F2 JUMP JUMPDEST SWAP1 POP SWAP2 SWAP1 POP JUMP JUMPDEST PUSH32 0x596F75207265616368656420746865206C696D69740000000000000000000000 PUSH1 0x0 DUP3 ADD MSTORE POP JUMP JUMPDEST PUSH1 0x0 PUSH2 0xA6B PUSH1 0x15 DUP4 PUSH2 0x8AD JUMP JUMPDEST SWAP2 POP PUSH2 0xA76 DUP3 PUSH2 0xA35 JUMP JUMPDEST PUSH1 0x20 DUP3 ADD SWAP1 POP SWAP2 SWAP1 POP JUMP JUMPDEST PUSH1 0x0 PUSH1 0x20 DUP3 ADD SWAP1 POP DUP2 DUP2 SUB PUSH1 0x0 DUP4 ADD MSTORE PUSH2 0xA9A DUP2 PUSH2 0xA5E JUMP JUMPDEST SWAP1 POP SWAP2 SWAP1 POP JUMP JUMPDEST PUSH32 0x4E487B7100000000000000000000000000000000000000000000000000000000 PUSH1 0x0 MSTORE PUSH1 0x11 PUSH1 0x4 MSTORE PUSH1 0x24 PUSH1 0x0 REVERT JUMPDEST PUSH1 0x0 PUSH2 0xADB DUP3 PUSH2 0x76E JUMP JUMPDEST SWAP2 POP PUSH2 0xAE6 DUP4 PUSH2 0x76E JUMP JUMPDEST SWAP3 POP DUP3 PUSH32 0xFFFFFFFFFFFFFFFFFFFFFFFFFFFFFFFFFFFFFFFFFFFFFFFFFFFFFFFFFFFFFFFF SUB DUP3 GT ISZERO PUSH2 0xB1B JUMPI PUSH2 0xB1A PUSH2 0xAA1 JUMP JUMPDEST JUMPDEST DUP3 DUP3 ADD SWAP1 POP SWAP3 SWAP2 POP POP JUMP JUMPDEST PUSH32 0x54696D6520706173736564000000000000000000000000000000000000000000 PUSH1 0x0 DUP3 ADD MSTORE POP JUMP JUMPDEST PUSH1 0x0 PUSH2 0xB5C PUSH1 0xB DUP4 PUSH2 0x8AD JUMP JUMPDEST SWAP2 POP PUSH2 0xB67 DUP3 PUSH2 0xB26 JUMP JUMPDEST PUSH1 0x20 DUP3 ADD SWAP1 POP SWAP2 SWAP1 POP JUMP JUMPDEST PUSH1 0x0 PUSH1 0x20 DUP3 ADD SWAP1 POP DUP2 DUP2 SUB PUSH1 0x0 DUP4 ADD MSTORE PUSH2 0xB8B DUP2 PUSH2 0xB4F JUMP JUMPDEST SWAP1 POP SWAP2 SWAP1 POP JUMP JUMPDEST PUSH1 0x0 PUSH2 0xB9D DUP3 PUSH2 0x76E JUMP JUMPDEST SWAP2 POP PUSH2 0xBA8 DUP4 PUSH2 0x76E JUMP JUMPDEST SWAP3 POP DUP3 DUP3 LT ISZERO PUSH2 0xBBB JUMPI PUSH2 0xBBA PUSH2 0xAA1 JUMP JUMPDEST JUMPDEST DUP3 DUP3 SUB SWAP1 POP SWAP3 SWAP2 POP POP JUMP JUMPDEST PUSH32 0x4E487B7100000000000000000000000000000000000000000000000000000000 PUSH1 0x0 MSTORE PUSH1 0x41 PUSH1 0x4 MSTORE PUSH1 0x24 PUSH1 0x0 REVERT JUMPDEST PUSH32 0x4E487B7100000000000000000000000000000000000000000000000000000000 PUSH1 0x0 MSTORE PUSH1 0x22 PUSH1 0x4 MSTORE PUSH1 0x24 PUSH1 0x0 REVERT JUMPDEST PUSH1 0x0 PUSH1 0x2 DUP3 DIV SWAP1 POP PUSH1 0x1 DUP3 AND DUP1 PUSH2 0xC3C JUMPI PUSH1 0x7F DUP3 AND SWAP2 POP JUMPDEST PUSH1 0x20 DUP3 LT DUP2 SUB PUSH2 0xC4F JUMPI PUSH2 0xC4E PUSH2 0xBF5 JUMP JUMPDEST JUMPDEST POP SWAP2 SWAP1 POP JUMP JUMPDEST PUSH1 0x0 DUP2 SWAP1 POP DUP2 PUSH1 0x0 MSTORE PUSH1 0x20 PUSH1 0x0 KECCAK256 SWAP1 POP SWAP2 SWAP1 POP JUMP JUMPDEST PUSH1 0x0 PUSH1 0x20 PUSH1 0x1F DUP4 ADD DIV SWAP1 POP SWAP2 SWAP1 POP JUMP JUMPDEST PUSH1 0x0 DUP3 DUP3 SHL SWAP1 POP SWAP3 SWAP2 POP POP JUMP JUMPDEST PUSH1 0x0 PUSH1 0x8 DUP4 MUL PUSH2 0xCB7 PUSH32 0xFFFFFFFFFFFFFFFFFFFFFFFFFFFFFFFFFFFFFFFFFFFFFFFFFFFFFFFFFFFFFFFF DUP3 PUSH2 0xC7A JUMP JUMPDEST PUSH2 0xCC1 DUP7 DUP4 PUSH2 0xC7A JUMP JUMPDEST SWAP6 POP DUP1 NOT DUP5 AND SWAP4 POP DUP1 DUP7 AND DUP5 OR SWAP3 POP POP POP SWAP4 SWAP3 POP POP POP JUMP JUMPDEST PUSH1 0x0 DUP2 SWAP1 POP SWAP2 SWAP1 POP JUMP JUMPDEST PUSH1 0x0 PUSH2 0xCFE PUSH2 0xCF9 PUSH2 0xCF4 DUP5 PUSH2 0x76E JUMP JUMPDEST PUSH2 0xCD9 JUMP JUMPDEST PUSH2 0x76E JUMP JUMPDEST SWAP1 POP SWAP2 SWAP1 POP JUMP JUMPDEST PUSH1 0x0 DUP2 SWAP1 POP SWAP2 SWAP1 POP JUMP JUMPDEST PUSH2 0xD18 DUP4 PUSH2 0xCE3 JUMP JUMPDEST PUSH2 0xD2C PUSH2 0xD24 DUP3 PUSH2 0xD05 JUMP JUMPDEST DUP5 DUP5 SLOAD PUSH2 0xC87 JUMP JUMPDEST DUP3 SSTORE POP POP POP POP JUMP JUMPDEST PUSH1 0x0 SWAP1 JUMP JUMPDEST PUSH2 0xD41 PUSH2 0xD34 JUMP JUMPDEST PUSH2 0xD4C DUP2 DUP5 DUP5 PUSH2 0xD0F JUMP JUMPDEST POP POP POP JUMP JUMPDEST JUMPDEST DUP2 DUP2 LT ISZERO PUSH2 0xD70 JUMPI PUSH2 0xD65 PUSH1 0x0 DUP3 PUSH2 0xD39 JUMP JUMPDEST PUSH1 0x1 DUP2 ADD SWAP1 POP PUSH2 0xD52 JUMP JUMPDEST POP POP JUMP JUMPDEST PUSH1 0x1F DUP3 GT ISZERO PUSH2 0xDB5 JUMPI PUSH2 0xD86 DUP2 PUSH2 0xC55 JUMP JUMPDEST PUSH2 0xD8F DUP5 PUSH2 0xC6A JUMP JUMPDEST DUP2 ADD PUSH1 0x20 DUP6 LT ISZERO PUSH2 0xD9E JUMPI DUP2 SWAP1 POP JUMPDEST PUSH2 0xDB2 PUSH2 0xDAA DUP6 PUSH2 0xC6A JUMP JUMPDEST DUP4 ADD DUP3 PUSH2 0xD51 JUMP JUMPDEST POP POP JUMPDEST POP POP POP JUMP JUMPDEST PUSH1 0x0 DUP3 DUP3 SHR SWAP1 POP SWAP3 SWAP2 POP POP JUMP JUMPDEST PUSH1 0x0 PUSH2 0xDD8 PUSH1 0x0 NOT DUP5 PUSH1 0x8 MUL PUSH2 0xDBA JUMP JUMPDEST NOT DUP1 DUP4 AND SWAP2 POP POP SWAP3 SWAP2 POP POP JUMP JUMPDEST PUSH1 0x0 PUSH2 0xDF1 DUP4 DUP4 PUSH2 0xDC7 JUMP JUMPDEST SWAP2 POP DUP3 PUSH1 0x2 MUL DUP3 OR SWAP1 POP SWAP3 SWAP2 POP POP JUMP JUMPDEST PUSH2 0xE0A DUP3 PUSH2 0x8A2 JUMP JUMPDEST PUSH8 0xFFFFFFFFFFFFFFFF DUP2 GT ISZERO PUSH2 0xE23 JUMPI PUSH2 0xE22 PUSH2 0xBC6 JUMP JUMPDEST JUMPDEST PUSH2 0xE2D DUP3 SLOAD PUSH2 0xC24 JUMP JUMPDEST PUSH2 0xE38 DUP3 DUP3 DUP6 PUSH2 0xD74 JUMP JUMPDEST PUSH1 0x0 PUSH1 0x20 SWAP1 POP PUSH1 0x1F DUP4 GT PUSH1 0x1 DUP2 EQ PUSH2 0xE6B JUMPI PUSH1 0x0 DUP5 ISZERO PUSH2 0xE59 JUMPI DUP3 DUP8 ADD MLOAD SWAP1 POP JUMPDEST PUSH2 0xE63 DUP6 DUP3 PUSH2 0xDE5 JUMP JUMPDEST DUP7 SSTORE POP PUSH2 0xECB JUMP JUMPDEST PUSH1 0x1F NOT DUP5 AND PUSH2 0xE79 DUP7 PUSH2 0xC55 JUMP JUMPDEST PUSH1 0x0 JUMPDEST DUP3 DUP2 LT ISZERO PUSH2 0xEA1 JUMPI DUP5 DUP10 ADD MLOAD DUP3 SSTORE PUSH1 0x1 DUP3 ADD SWAP2 POP PUSH1 0x20 DUP6 ADD SWAP5 POP PUSH1 0x20 DUP2 ADD SWAP1 POP PUSH2 0xE7C JUMP JUMPDEST DUP7 DUP4 LT ISZERO PUSH2 0xEBE JUMPI DUP5 DUP10 ADD MLOAD PUSH2 0xEBA PUSH1 0x1F DUP10 AND DUP3 PUSH2 0xDC7 JUMP JUMPDEST DUP4 SSTORE POP JUMPDEST PUSH1 0x1 PUSH1 0x2 DUP9 MUL ADD DUP9 SSTORE POP POP POP JUMPDEST POP POP POP POP POP POP JUMP JUMPDEST PUSH32 0x4E6F7420656E6F7567682066756E647300000000000000000000000000000000 PUSH1 0x0 DUP3 ADD MSTORE POP JUMP JUMPDEST PUSH1 0x0 PUSH2 0xF09 PUSH1 0x10 DUP4 PUSH2 0x8AD JUMP JUMPDEST SWAP2 POP PUSH2 0xF14 DUP3 PUSH2 0xED3 JUMP JUMPDEST PUSH1 0x20 DUP3 ADD SWAP1 POP SWAP2 SWAP1 POP JUMP JUMPDEST PUSH1 0x0 PUSH1 0x20 DUP3 ADD SWAP1 POP DUP2 DUP2 SUB PUSH1 0x0 DUP4 ADD MSTORE PUSH2 0xF38 DUP2 PUSH2 0xEFC JUMP JUMPDEST SWAP1 POP SWAP2 SWAP1 POP JUMP INVALID LOG2 PUSH5 0x6970667358 0x22 SLT KECCAK256 CALLER PUSH8 0x4F498CCCEB95E371 0xD9 BLOCKHASH 0xF 0xB5 0xEA 0xC6 0x2E 0xBD EXTCODEHASH CODESIZE 0x49 0xC8 0xF6 DUP15 0xBA 0xE3 0xE1 0x4E 0xD6 SUB 0x27 SMOD PUSH5 0x736F6C6343 STOP ADDMOD 0xF STOP CALLER "
				},
				"gasEstimates": {
					"creation": {
						"codeDepositCost": "791400",
						"executionCost": "infinite",
						"totalCost": "infinite"
					},
					"external": {
						"TotalAmount()": "2452",
						"TotalFunds()": "2518",
						"amount()": "2473",
						"callCount()": "2496",
						"callPutCard()": "2494",
						"cardNumber()": "infinite",
						"countTransfer()": "2497",
						"cvv()": "infinite",
						"firstTransferTime()": "2475",
						"getOutCard()": "24456",
						"message()": "infinite",
						"receiverFunds()": "2495",
						"sendMoney(uint256,address)": "infinite",
						"totalWeekTransactions()": "2451"
					}
				},
				"methodIdentifiers": {
					"TotalAmount()": "7eb9f571",
					"TotalFunds()": "7b9a3f4c",
					"amount()": "aa8c217c",
					"callCount()": "4b28f9a2",
					"callPutCard()": "3c626f00",
					"cardNumber()": "8fa11864",
					"countTransfer()": "34f5ccde",
					"cvv()": "42fb7936",
					"firstTransferTime()": "0e85fa72",
					"getOutCard()": "8e029c0b",
					"message()": "e21f37ce",
					"receiverFunds()": "bc309496",
					"sendMoney(uint256,address)": "062a7544",
					"totalWeekTransactions()": "94b5dcaa"
				}
			},
			"storageLayout": {
				"storage": [
					{
						"astId": 3,
						"contract": "Dapp/MoneyTransfer.sol:MoneyTransfer",
						"label": "amount",
						"offset": 0,
						"slot": "0",
						"type": "t_uint256"
					},
					{
						"astId": 5,
						"contract": "Dapp/MoneyTransfer.sol:MoneyTransfer",
						"label": "TotalFunds",
						"offset": 0,
						"slot": "1",
						"type": "t_uint256"
					},
					{
						"astId": 7,
						"contract": "Dapp/MoneyTransfer.sol:MoneyTransfer",
						"label": "receiver",
						"offset": 0,
						"slot": "2",
						"type": "t_address"
					},
					{
						"astId": 13,
						"contract": "Dapp/MoneyTransfer.sol:MoneyTransfer",
						"label": "day",
						"offset": 0,
						"slot": "3",
						"type": "t_uint256"
					},
					{
						"astId": 15,
						"contract": "Dapp/MoneyTransfer.sol:MoneyTransfer",
						"label": "totalWeekTransactions",
						"offset": 0,
						"slot": "4",
						"type": "t_uint256"
					},
					{
						"astId": 17,
						"contract": "Dapp/MoneyTransfer.sol:MoneyTransfer",
						"label": "maxTransaction",
						"offset": 0,
						"slot": "5",
						"type": "t_uint256"
					},
					{
						"astId": 19,
						"contract": "Dapp/MoneyTransfer.sol:MoneyTransfer",
						"label": "minTransaction",
						"offset": 0,
						"slot": "6",
						"type": "t_uint256"
					},
					{
						"astId": 22,
						"contract": "Dapp/MoneyTransfer.sol:MoneyTransfer",
						"label": "countries",
						"offset": 0,
						"slot": "7",
						"type": "t_array(t_uint256)dyn_storage"
					},
					{
						"astId": 24,
						"contract": "Dapp/MoneyTransfer.sol:MoneyTransfer",
						"label": "receiverFunds",
						"offset": 0,
						"slot": "8",
						"type": "t_uint256"
					},
					{
						"astId": 26,
						"contract": "Dapp/MoneyTransfer.sol:MoneyTransfer",
						"label": "message",
						"offset": 0,
						"slot": "9",
						"type": "t_string_storage"
					},
					{
						"astId": 28,
						"contract": "Dapp/MoneyTransfer.sol:MoneyTransfer",
						"label": "cardNumber",
						"offset": 0,
						"slot": "10",
						"type": "t_string_storage"
					},
					{
						"astId": 30,
						"contract": "Dapp/MoneyTransfer.sol:MoneyTransfer",
						"label": "cvv",
						"offset": 0,
						"slot": "11",
						"type": "t_string_storage"
					},
					{
						"astId": 32,
						"contract": "Dapp/MoneyTransfer.sol:MoneyTransfer",
						"label": "TotalAmount",
						"offset": 0,
						"slot": "12",
						"type": "t_uint256"
					},
					{
						"astId": 34,
						"contract": "Dapp/MoneyTransfer.sol:MoneyTransfer",
						"label": "firstTransferTime",
						"offset": 0,
						"slot": "13",
						"type": "t_uint256"
					},
					{
						"astId": 36,
						"contract": "Dapp/MoneyTransfer.sol:MoneyTransfer",
						"label": "countTransfer",
						"offset": 0,
						"slot": "14",
						"type": "t_uint256"
					},
					{
						"astId": 51,
						"contract": "Dapp/MoneyTransfer.sol:MoneyTransfer",
						"label": "callCount",
						"offset": 0,
						"slot": "15",
						"type": "t_uint256"
					},
					{
						"astId": 54,
						"contract": "Dapp/MoneyTransfer.sol:MoneyTransfer",
						"label": "callPutCard",
						"offset": 0,
						"slot": "16",
						"type": "t_bool"
					}
				],
				"types": {
					"t_address": {
						"encoding": "inplace",
						"label": "address",
						"numberOfBytes": "20"
					},
					"t_array(t_uint256)dyn_storage": {
						"base": "t_uint256",
						"encoding": "dynamic_array",
						"label": "uint256[]",
						"numberOfBytes": "32"
					},
					"t_bool": {
						"encoding": "inplace",
						"label": "bool",
						"numberOfBytes": "1"
					},
					"t_string_storage": {
						"encoding": "bytes",
						"label": "string",
						"numberOfBytes": "32"
					},
					"t_uint256": {
						"encoding": "inplace",
						"label": "uint256",
						"numberOfBytes": "32"
					}
				}
			},
			"userdoc": {
				"kind": "user",
				"methods": {},
				"version": 1
			}
		}
	}
}