{
	"Dapp/MoneyTransfer.sol": {
		"MoneyTransfer": {
			"abi": [
				{
					"inputs": [
						{
							"internalType": "uint256",
							"name": "_totalFunds",
							"type": "uint256"
						}
					],
					"stateMutability": "nonpayable",
					"type": "constructor"
				},
				{
					"inputs": [],
					"name": "TotalAmount",
					"outputs": [
						{
							"internalType": "uint256",
							"name": "",
							"type": "uint256"
						}
					],
					"stateMutability": "view",
					"type": "function"
				},
				{
					"inputs": [],
					"name": "TotalFunds",
					"outputs": [
						{
							"internalType": "uint256",
							"name": "",
							"type": "uint256"
						}
					],
					"stateMutability": "view",
					"type": "function"
				},
				{
					"inputs": [],
					"name": "amount",
					"outputs": [
						{
							"internalType": "uint256",
							"name": "",
							"type": "uint256"
						}
					],
					"stateMutability": "view",
					"type": "function"
				},
				{
					"inputs": [],
					"name": "callCount",
					"outputs": [
						{
							"internalType": "uint256",
							"name": "",
							"type": "uint256"
						}
					],
					"stateMutability": "view",
					"type": "function"
				},
				{
					"inputs": [],
					"name": "callPutCard",
					"outputs": [
						{
							"internalType": "bool",
							"name": "",
							"type": "bool"
						}
					],
					"stateMutability": "view",
					"type": "function"
				},
				{
					"inputs": [],
					"name": "cardNumber",
					"outputs": [
						{
							"internalType": "string",
							"name": "",
							"type": "string"
						}
					],
					"stateMutability": "view",
					"type": "function"
				},
				{
					"inputs": [],
					"name": "cvv",
					"outputs": [
						{
							"internalType": "string",
							"name": "",
							"type": "string"
						}
					],
					"stateMutability": "view",
					"type": "function"
				},
				{
					"inputs": [],
					"name": "firstTransferTime",
					"outputs": [
						{
							"internalType": "uint256",
							"name": "",
							"type": "uint256"
						}
					],
					"stateMutability": "view",
					"type": "function"
				},
				{
					"inputs": [],
					"name": "getOutCard",
					"outputs": [],
					"stateMutability": "nonpayable",
					"type": "function"
				},
				{
					"inputs": [],
					"name": "getTime",
					"outputs": [
						{
							"internalType": "uint256",
							"name": "",
							"type": "uint256"
						}
					],
					"stateMutability": "view",
					"type": "function"
				},
				{
					"inputs": [],
					"name": "getTransaction",
					"outputs": [
						{
							"components": [
								{
									"internalType": "address",
									"name": "address_from",
									"type": "address"
								},
								{
									"internalType": "address",
									"name": "address_to",
									"type": "address"
								},
								{
									"internalType": "uint256",
									"name": "amount",
									"type": "uint256"
								},
								{
									"internalType": "uint256",
									"name": "timestamp",
									"type": "uint256"
								}
							],
							"internalType": "struct Transaction.Transactions[]",
							"name": "",
							"type": "tuple[]"
						}
					],
					"stateMutability": "view",
					"type": "function"
				},
				{
					"inputs": [],
					"name": "message",
					"outputs": [
						{
							"internalType": "string",
							"name": "",
							"type": "string"
						}
					],
					"stateMutability": "view",
					"type": "function"
				},
				{
					"inputs": [
						{
							"internalType": "uint256",
							"name": "_amount",
							"type": "uint256"
						},
						{
							"internalType": "address",
							"name": "_receiver",
							"type": "address"
						}
					],
					"name": "sendMoney",
					"outputs": [],
					"stateMutability": "nonpayable",
					"type": "function"
				},
				{
					"inputs": [
						{
							"internalType": "string",
							"name": "_cardNumber",
							"type": "string"
						},
						{
							"internalType": "string",
							"name": "_cvv",
							"type": "string"
						}
					],
					"name": "setCard",
					"outputs": [],
					"stateMutability": "nonpayable",
					"type": "function"
				},
				{
					"inputs": [
						{
							"internalType": "uint256",
							"name": "",
							"type": "uint256"
						}
					],
					"name": "transactionList",
					"outputs": [
						{
							"internalType": "address",
							"name": "address_from",
							"type": "address"
						},
						{
							"internalType": "address",
							"name": "address_to",
							"type": "address"
						},
						{
							"internalType": "uint256",
							"name": "amount",
							"type": "uint256"
						},
						{
							"internalType": "uint256",
							"name": "timestamp",
							"type": "uint256"
						}
					],
					"stateMutability": "view",
					"type": "function"
				},
				{
					"inputs": [
						{
							"internalType": "uint256",
							"name": "",
							"type": "uint256"
						}
					],
					"name": "trn",
					"outputs": [
						{
							"internalType": "address",
							"name": "address_from",
							"type": "address"
						},
						{
							"internalType": "address",
							"name": "address_to",
							"type": "address"
						},
						{
							"internalType": "uint256",
							"name": "amount",
							"type": "uint256"
						},
						{
							"internalType": "uint256",
							"name": "timestamp",
							"type": "uint256"
						}
					],
					"stateMutability": "view",
					"type": "function"
				}
			],
			"devdoc": {
				"kind": "dev",
				"methods": {},
				"version": 1
			},
			"evm": {
				"assembly": "    /* \"Dapp/MoneyTransfer.sol\":98:4251  contract  MoneyTransfer is Transaction {... */\n  mstore(0x40, 0x80)\n    /* \"Dapp/Transaction.sol\":352:353  0 */\n  0x00\n    /* \"Dapp/Transaction.sol\":337:353  uint counter = 0 */\n  0x02\n  sstore\n    /* \"Dapp/MoneyTransfer.sol\":836:837  0 */\n  0x00\n    /* \"Dapp/MoneyTransfer.sol\":812:837  uint public callCount = 0 */\n  0x0b\n  sstore\n    /* \"Dapp/MoneyTransfer.sol\":871:876  false */\n  0x00\n    /* \"Dapp/MoneyTransfer.sol\":845:876  bool public callPutCard = false */\n  0x0c\n  exp(0x0100, 0x00)\n  dup2\n  sload\n  dup2\n  0xff\n  mul\n  not\n  and\n  swap1\n  dup4\n  iszero\n  iszero\n  mul\n  or\n  swap1\n  sstore\n  pop\n    /* \"Dapp/MoneyTransfer.sol\":661:800  constructor (uint256 _totalFunds) {... */\n  callvalue\n  dup1\n  iszero\n  tag_1\n  jumpi\n  0x00\n  dup1\n  revert\ntag_1:\n  pop\n  mload(0x40)\n  sub(codesize, bytecodeSize)\n  dup1\n  bytecodeSize\n  dup4\n  codecopy\n  dup2\n  dup2\n  add\n  0x40\n  mstore\n  dup2\n  add\n  swap1\n  tag_2\n  swap2\n  swap1\n  tag_3\n  jump\t// in\ntag_2:\n    /* \"Dapp/MoneyTransfer.sol\":781:792  _totalFunds */\n  dup1\n    /* \"Dapp/MoneyTransfer.sol\":768:778  TotalFunds */\n  0x04\n    /* \"Dapp/MoneyTransfer.sol\":768:792  TotalFunds = _totalFunds */\n  dup2\n  swap1\n  sstore\n  pop\n    /* \"Dapp/MoneyTransfer.sol\":661:800  constructor (uint256 _totalFunds) {... */\n  pop\n    /* \"Dapp/MoneyTransfer.sol\":98:4251  contract  MoneyTransfer is Transaction {... */\n  jump(tag_6)\n    /* \"#utility.yul\":88:205   */\ntag_8:\n    /* \"#utility.yul\":197:198   */\n  0x00\n    /* \"#utility.yul\":194:195   */\n  dup1\n    /* \"#utility.yul\":187:199   */\n  revert\n    /* \"#utility.yul\":334:411   */\ntag_10:\n    /* \"#utility.yul\":371:378   */\n  0x00\n    /* \"#utility.yul\":400:405   */\n  dup2\n    /* \"#utility.yul\":389:405   */\n  swap1\n  pop\n    /* \"#utility.yul\":334:411   */\n  swap2\n  swap1\n  pop\n  jump\t// out\n    /* \"#utility.yul\":417:539   */\ntag_11:\n    /* \"#utility.yul\":490:514   */\n  tag_19\n    /* \"#utility.yul\":508:513   */\n  dup2\n    /* \"#utility.yul\":490:514   */\n  tag_10\n  jump\t// in\ntag_19:\n    /* \"#utility.yul\":483:488   */\n  dup2\n    /* \"#utility.yul\":480:515   */\n  eq\n    /* \"#utility.yul\":470:533   */\n  tag_20\n  jumpi\n    /* \"#utility.yul\":529:530   */\n  0x00\n    /* \"#utility.yul\":526:527   */\n  dup1\n    /* \"#utility.yul\":519:531   */\n  revert\n    /* \"#utility.yul\":470:533   */\ntag_20:\n    /* \"#utility.yul\":417:539   */\n  pop\n  jump\t// out\n    /* \"#utility.yul\":545:688   */\ntag_12:\n    /* \"#utility.yul\":602:607   */\n  0x00\n    /* \"#utility.yul\":633:639   */\n  dup2\n    /* \"#utility.yul\":627:640   */\n  mload\n    /* \"#utility.yul\":618:640   */\n  swap1\n  pop\n    /* \"#utility.yul\":649:682   */\n  tag_22\n    /* \"#utility.yul\":676:681   */\n  dup2\n    /* \"#utility.yul\":649:682   */\n  tag_11\n  jump\t// in\ntag_22:\n    /* \"#utility.yul\":545:688   */\n  swap3\n  swap2\n  pop\n  pop\n  jump\t// out\n    /* \"#utility.yul\":694:1045   */\ntag_3:\n    /* \"#utility.yul\":764:770   */\n  0x00\n    /* \"#utility.yul\":813:815   */\n  0x20\n    /* \"#utility.yul\":801:810   */\n  dup3\n    /* \"#utility.yul\":792:799   */\n  dup5\n    /* \"#utility.yul\":788:811   */\n  sub\n    /* \"#utility.yul\":784:816   */\n  slt\n    /* \"#utility.yul\":781:900   */\n  iszero\n  tag_24\n  jumpi\n    /* \"#utility.yul\":819:898   */\n  tag_25\n  tag_8\n  jump\t// in\ntag_25:\n    /* \"#utility.yul\":781:900   */\ntag_24:\n    /* \"#utility.yul\":939:940   */\n  0x00\n    /* \"#utility.yul\":964:1028   */\n  tag_26\n    /* \"#utility.yul\":1020:1027   */\n  dup5\n    /* \"#utility.yul\":1011:1017   */\n  dup3\n    /* \"#utility.yul\":1000:1009   */\n  dup6\n    /* \"#utility.yul\":996:1018   */\n  add\n    /* \"#utility.yul\":964:1028   */\n  tag_12\n  jump\t// in\ntag_26:\n    /* \"#utility.yul\":954:1028   */\n  swap2\n  pop\n    /* \"#utility.yul\":910:1038   */\n  pop\n    /* \"#utility.yul\":694:1045   */\n  swap3\n  swap2\n  pop\n  pop\n  jump\t// out\n    /* \"Dapp/MoneyTransfer.sol\":98:4251  contract  MoneyTransfer is Transaction {... */\ntag_6:\n  dataSize(sub_0)\n  dup1\n  dataOffset(sub_0)\n  0x00\n  codecopy\n  0x00\n  return\nstop\n\nsub_0: assembly {\n        /* \"Dapp/MoneyTransfer.sol\":98:4251  contract  MoneyTransfer is Transaction {... */\n      mstore(0x40, 0x80)\n      callvalue\n      dup1\n      iszero\n      tag_1\n      jumpi\n      0x00\n      dup1\n      revert\n    tag_1:\n      pop\n      jumpi(tag_2, lt(calldatasize, 0x04))\n      shr(0xe0, calldataload(0x00))\n      dup1\n      0x57bf72e3\n      gt\n      tag_19\n      jumpi\n      dup1\n      0x8e029c0b\n      gt\n      tag_20\n      jumpi\n      dup1\n      0x8e029c0b\n      eq\n      tag_15\n      jumpi\n      dup1\n      0x8fa11864\n      eq\n      tag_16\n      jumpi\n      dup1\n      0xaa8c217c\n      eq\n      tag_17\n      jumpi\n      dup1\n      0xe21f37ce\n      eq\n      tag_18\n      jumpi\n      jump(tag_2)\n    tag_20:\n      dup1\n      0x57bf72e3\n      eq\n      tag_11\n      jumpi\n      dup1\n      0x59705f81\n      eq\n      tag_12\n      jumpi\n      dup1\n      0x7b9a3f4c\n      eq\n      tag_13\n      jumpi\n      dup1\n      0x7eb9f571\n      eq\n      tag_14\n      jumpi\n      jump(tag_2)\n    tag_19:\n      dup1\n      0x3c626f00\n      gt\n      tag_21\n      jumpi\n      dup1\n      0x3c626f00\n      eq\n      tag_7\n      jumpi\n      dup1\n      0x42fb7936\n      eq\n      tag_8\n      jumpi\n      dup1\n      0x4b28f9a2\n      eq\n      tag_9\n      jumpi\n      dup1\n      0x557ed1ba\n      eq\n      tag_10\n      jumpi\n      jump(tag_2)\n    tag_21:\n      dup1\n      0x04ef5b21\n      eq\n      tag_3\n      jumpi\n      dup1\n      0x062a7544\n      eq\n      tag_4\n      jumpi\n      dup1\n      0x0e85fa72\n      eq\n      tag_5\n      jumpi\n      dup1\n      0x12a029a4\n      eq\n      tag_6\n      jumpi\n    tag_2:\n      0x00\n      dup1\n      revert\n        /* \"Dapp/Transaction.sol\":243:280  Transactions[] public transactionList */\n    tag_3:\n      tag_22\n      0x04\n      dup1\n      calldatasize\n      sub\n      dup2\n      add\n      swap1\n      tag_23\n      swap2\n      swap1\n      tag_24\n      jump\t// in\n    tag_23:\n      tag_25\n      jump\t// in\n    tag_22:\n      mload(0x40)\n      tag_26\n      swap5\n      swap4\n      swap3\n      swap2\n      swap1\n      tag_27\n      jump\t// in\n    tag_26:\n      mload(0x40)\n      dup1\n      swap2\n      sub\n      swap1\n      return\n        /* \"Dapp/MoneyTransfer.sol\":886:1774  function sendMoney( uint _amount, address _receiver) public m_validAddress(_receiver) m_ifCardExists m_transferLimit{... */\n    tag_4:\n      tag_28\n      0x04\n      dup1\n      calldatasize\n      sub\n      dup2\n      add\n      swap1\n      tag_29\n      swap2\n      swap1\n      tag_30\n      jump\t// in\n    tag_29:\n      tag_31\n      jump\t// in\n    tag_28:\n      stop\n        /* \"Dapp/MoneyTransfer.sol\":584:613  uint public firstTransferTime */\n    tag_5:\n      tag_32\n      tag_33\n      jump\t// in\n    tag_32:\n      mload(0x40)\n      tag_34\n      swap2\n      swap1\n      tag_35\n      jump\t// in\n    tag_34:\n      mload(0x40)\n      dup1\n      swap2\n      sub\n      swap1\n      return\n        /* \"Dapp/MoneyTransfer.sol\":1782:2047  function setCard(string memory _cardNumber, string memory _cvv) public  m_checkCard {... */\n    tag_6:\n      tag_36\n      0x04\n      dup1\n      calldatasize\n      sub\n      dup2\n      add\n      swap1\n      tag_37\n      swap2\n      swap1\n      tag_38\n      jump\t// in\n    tag_37:\n      tag_39\n      jump\t// in\n    tag_36:\n      stop\n        /* \"Dapp/MoneyTransfer.sol\":845:876  bool public callPutCard = false */\n    tag_7:\n      tag_40\n      tag_41\n      jump\t// in\n    tag_40:\n      mload(0x40)\n      tag_42\n      swap2\n      swap1\n      tag_43\n      jump\t// in\n    tag_42:\n      mload(0x40)\n      dup1\n      swap2\n      sub\n      swap1\n      return\n        /* \"Dapp/MoneyTransfer.sol\":526:543  string public cvv */\n    tag_8:\n      tag_44\n      tag_45\n      jump\t// in\n    tag_44:\n      mload(0x40)\n      tag_46\n      swap2\n      swap1\n      tag_47\n      jump\t// in\n    tag_46:\n      mload(0x40)\n      dup1\n      swap2\n      sub\n      swap1\n      return\n        /* \"Dapp/MoneyTransfer.sol\":812:837  uint public callCount = 0 */\n    tag_9:\n      tag_48\n      tag_49\n      jump\t// in\n    tag_48:\n      mload(0x40)\n      tag_50\n      swap2\n      swap1\n      tag_35\n      jump\t// in\n    tag_50:\n      mload(0x40)\n      dup1\n      swap2\n      sub\n      swap1\n      return\n        /* \"Dapp/MoneyTransfer.sol\":4154:4240  function getTime()public view returns(uint ){... */\n    tag_10:\n      tag_51\n      tag_52\n      jump\t// in\n    tag_51:\n      mload(0x40)\n      tag_53\n      swap2\n      swap1\n      tag_35\n      jump\t// in\n    tag_53:\n      mload(0x40)\n      dup1\n      swap2\n      sub\n      swap1\n      return\n        /* \"Dapp/Transaction.sol\":289:330  mapping (uint => Transactions) public trn */\n    tag_11:\n      tag_54\n      0x04\n      dup1\n      calldatasize\n      sub\n      dup2\n      add\n      swap1\n      tag_55\n      swap2\n      swap1\n      tag_24\n      jump\t// in\n    tag_55:\n      tag_56\n      jump\t// in\n    tag_54:\n      mload(0x40)\n      tag_57\n      swap5\n      swap4\n      swap3\n      swap2\n      swap1\n      tag_27\n      jump\t// in\n    tag_57:\n      mload(0x40)\n      dup1\n      swap2\n      sub\n      swap1\n      return\n        /* \"Dapp/Transaction.sol\":693:804  function getTransaction() public view returns(Transactions[] memory){... */\n    tag_12:\n      tag_58\n      tag_59\n      jump\t// in\n    tag_58:\n      mload(0x40)\n      tag_60\n      swap2\n      swap1\n      tag_61\n      jump\t// in\n    tag_60:\n      mload(0x40)\n      dup1\n      swap2\n      sub\n      swap1\n      return\n        /* \"Dapp/MoneyTransfer.sol\":176:201  uint256 public TotalFunds */\n    tag_13:\n      tag_62\n      tag_63\n      jump\t// in\n    tag_62:\n      mload(0x40)\n      tag_64\n      swap2\n      swap1\n      tag_35\n      jump\t// in\n    tag_64:\n      mload(0x40)\n      dup1\n      swap2\n      sub\n      swap1\n      return\n        /* \"Dapp/MoneyTransfer.sol\":550:576  uint256 public TotalAmount */\n    tag_14:\n      tag_65\n      tag_66\n      jump\t// in\n    tag_65:\n      mload(0x40)\n      tag_67\n      swap2\n      swap1\n      tag_35\n      jump\t// in\n    tag_67:\n      mload(0x40)\n      dup1\n      swap2\n      sub\n      swap1\n      return\n        /* \"Dapp/MoneyTransfer.sol\":2068:2137  function getOutCard() public  {... */\n    tag_15:\n      tag_68\n      tag_69\n      jump\t// in\n    tag_68:\n      stop\n        /* \"Dapp/MoneyTransfer.sol\":494:518  string public cardNumber */\n    tag_16:\n      tag_70\n      tag_71\n      jump\t// in\n    tag_70:\n      mload(0x40)\n      tag_72\n      swap2\n      swap1\n      tag_47\n      jump\t// in\n    tag_72:\n      mload(0x40)\n      dup1\n      swap2\n      sub\n      swap1\n      return\n        /* \"Dapp/MoneyTransfer.sol\":148:169  uint256 public amount */\n    tag_17:\n      tag_73\n      tag_74\n      jump\t// in\n    tag_73:\n      mload(0x40)\n      tag_75\n      swap2\n      swap1\n      tag_35\n      jump\t// in\n    tag_75:\n      mload(0x40)\n      dup1\n      swap2\n      sub\n      swap1\n      return\n        /* \"Dapp/MoneyTransfer.sol\":466:487  string public message */\n    tag_18:\n      tag_76\n      tag_77\n      jump\t// in\n    tag_76:\n      mload(0x40)\n      tag_78\n      swap2\n      swap1\n      tag_47\n      jump\t// in\n    tag_78:\n      mload(0x40)\n      dup1\n      swap2\n      sub\n      swap1\n      return\n        /* \"Dapp/Transaction.sol\":243:280  Transactions[] public transactionList */\n    tag_25:\n      0x00\n      dup2\n      dup2\n      sload\n      dup2\n      lt\n      tag_79\n      jumpi\n      0x00\n      dup1\n      revert\n    tag_79:\n      swap1\n      0x00\n      mstore\n      keccak256(0x00, 0x20)\n      swap1\n      0x04\n      mul\n      add\n      0x00\n      swap2\n      pop\n      swap1\n      pop\n      dup1\n      0x00\n      add\n      0x00\n      swap1\n      sload\n      swap1\n      0x0100\n      exp\n      swap1\n      div\n      0xffffffffffffffffffffffffffffffffffffffff\n      and\n      swap1\n      dup1\n      0x01\n      add\n      0x00\n      swap1\n      sload\n      swap1\n      0x0100\n      exp\n      swap1\n      div\n      0xffffffffffffffffffffffffffffffffffffffff\n      and\n      swap1\n      dup1\n      0x02\n      add\n      sload\n      swap1\n      dup1\n      0x03\n      add\n      sload\n      swap1\n      pop\n      dup5\n      jump\t// out\n        /* \"Dapp/MoneyTransfer.sol\":886:1774  function sendMoney( uint _amount, address _receiver) public m_validAddress(_receiver) m_ifCardExists m_transferLimit{... */\n    tag_31:\n        /* \"Dapp/MoneyTransfer.sol\":961:970  _receiver */\n      dup1\n        /* \"Dapp/MoneyTransfer.sol\":2218:2223  _addr */\n      dup1\n        /* \"Dapp/MoneyTransfer.sol\":2207:2215  receiver */\n      0x05\n      0x00\n        /* \"Dapp/MoneyTransfer.sol\":2207:2223  receiver = _addr */\n      0x0100\n      exp\n      dup2\n      sload\n      dup2\n      0xffffffffffffffffffffffffffffffffffffffff\n      mul\n      not\n      and\n      swap1\n      dup4\n      0xffffffffffffffffffffffffffffffffffffffff\n      and\n      mul\n      or\n      swap1\n      sstore\n      pop\n        /* \"Dapp/MoneyTransfer.sol\":2259:2260  0 */\n      0x00\n        /* \"Dapp/MoneyTransfer.sol\":2242:2261  _addr != address(0) */\n      0xffffffffffffffffffffffffffffffffffffffff\n      and\n        /* \"Dapp/MoneyTransfer.sol\":2242:2247  _addr */\n      dup2\n        /* \"Dapp/MoneyTransfer.sol\":2242:2261  _addr != address(0) */\n      0xffffffffffffffffffffffffffffffffffffffff\n      and\n      sub\n        /* \"Dapp/MoneyTransfer.sol\":2234:2294  require(_addr != address(0), \" This address doesn't exists\") */\n      tag_82\n      jumpi\n      mload(0x40)\n      0x08c379a000000000000000000000000000000000000000000000000000000000\n      dup2\n      mstore\n      0x04\n      add\n      tag_83\n      swap1\n      tag_84\n      jump\t// in\n    tag_83:\n      mload(0x40)\n      dup1\n      swap2\n      sub\n      swap1\n      revert\n    tag_82:\n        /* \"Dapp/MoneyTransfer.sol\":2393:2398  false */\n      0x00\n        /* \"Dapp/MoneyTransfer.sol\":2378:2398  callPutCard != false */\n      iszero\n      iszero\n        /* \"Dapp/MoneyTransfer.sol\":2378:2389  callPutCard */\n      0x0c\n      0x00\n      swap1\n      sload\n      swap1\n      0x0100\n      exp\n      swap1\n      div\n      0xff\n      and\n        /* \"Dapp/MoneyTransfer.sol\":2378:2398  callPutCard != false */\n      iszero\n      iszero\n      sub\n        /* \"Dapp/MoneyTransfer.sol\":2370:2425  require(callPutCard != false,\"Please insert your card\") */\n      tag_86\n      jumpi\n      mload(0x40)\n      0x08c379a000000000000000000000000000000000000000000000000000000000\n      dup2\n      mstore\n      0x04\n      add\n      tag_87\n      swap1\n      tag_88\n      jump\t// in\n    tag_87:\n      mload(0x40)\n      dup1\n      swap2\n      sub\n      swap1\n      revert\n    tag_86:\n        /* \"Dapp/MoneyTransfer.sol\":3705:3706  5 */\n      0x05\n        /* \"Dapp/MoneyTransfer.sol\":3692:3701  callCount */\n      sload(0x0b)\n        /* \"Dapp/MoneyTransfer.sol\":3692:3706  callCount >= 5 */\n      lt\n      iszero\n        /* \"Dapp/MoneyTransfer.sol\":3692:3761  callCount >= 5 && block.timestamp <= (firstTransferTime + 30 seconds) */\n      dup1\n      iszero\n      tag_90\n      jumpi\n      pop\n        /* \"Dapp/MoneyTransfer.sol\":3750:3760  30 seconds */\n      0x1e\n        /* \"Dapp/MoneyTransfer.sol\":3730:3747  firstTransferTime */\n      sload(0x0a)\n        /* \"Dapp/MoneyTransfer.sol\":3730:3760  firstTransferTime + 30 seconds */\n      tag_91\n      swap2\n      swap1\n      tag_92\n      jump\t// in\n    tag_91:\n        /* \"Dapp/MoneyTransfer.sol\":3710:3725  block.timestamp */\n      timestamp\n        /* \"Dapp/MoneyTransfer.sol\":3710:3761  block.timestamp <= (firstTransferTime + 30 seconds) */\n      gt\n      iszero\n        /* \"Dapp/MoneyTransfer.sol\":3692:3761  callCount >= 5 && block.timestamp <= (firstTransferTime + 30 seconds) */\n    tag_90:\n        /* \"Dapp/MoneyTransfer.sol\":3689:3906  if(callCount >= 5 && block.timestamp <= (firstTransferTime + 30 seconds)){... */\n      iszero\n      tag_93\n      jumpi\n        /* \"Dapp/MoneyTransfer.sol\":3789:3790  0 */\n      0x00\n        /* \"Dapp/MoneyTransfer.sol\":3777:3786  callCount */\n      0x0b\n        /* \"Dapp/MoneyTransfer.sol\":3777:3790  callCount = 0 */\n      dup2\n      swap1\n      sstore\n      pop\n        /* \"Dapp/MoneyTransfer.sol\":3825:3826  0 */\n      0x00\n        /* \"Dapp/MoneyTransfer.sol\":3812:3821  callCount */\n      sload(0x0b)\n        /* \"Dapp/MoneyTransfer.sol\":3812:3826  callCount == 0 */\n      eq\n        /* \"Dapp/MoneyTransfer.sol\":3805:3827  assert(callCount == 0) */\n      tag_94\n      jumpi\n      tag_95\n      tag_96\n      jump\t// in\n    tag_95:\n    tag_94:\n        /* \"Dapp/MoneyTransfer.sol\":3842:3880  revert(\"only 5 transactions per day\" ) */\n      mload(0x40)\n      0x08c379a000000000000000000000000000000000000000000000000000000000\n      dup2\n      mstore\n      0x04\n      add\n      tag_97\n      swap1\n      tag_98\n      jump\t// in\n    tag_97:\n      mload(0x40)\n      dup1\n      swap2\n      sub\n      swap1\n      revert\n        /* \"Dapp/MoneyTransfer.sol\":3689:3906  if(callCount >= 5 && block.timestamp <= (firstTransferTime + 30 seconds)){... */\n    tag_93:\n        /* \"Dapp/MoneyTransfer.sol\":3934:3935  5 */\n      0x05\n        /* \"Dapp/MoneyTransfer.sol\":3921:3930  callCount */\n      sload(0x0b)\n        /* \"Dapp/MoneyTransfer.sol\":3921:3935  callCount <= 5 */\n      gt\n      iszero\n        /* \"Dapp/MoneyTransfer.sol\":3921:3990  callCount <= 5 && block.timestamp >= (firstTransferTime + 30 seconds) */\n      dup1\n      iszero\n      tag_99\n      jumpi\n      pop\n        /* \"Dapp/MoneyTransfer.sol\":3979:3989  30 seconds */\n      0x1e\n        /* \"Dapp/MoneyTransfer.sol\":3959:3976  firstTransferTime */\n      sload(0x0a)\n        /* \"Dapp/MoneyTransfer.sol\":3959:3989  firstTransferTime + 30 seconds */\n      tag_100\n      swap2\n      swap1\n      tag_92\n      jump\t// in\n    tag_100:\n        /* \"Dapp/MoneyTransfer.sol\":3939:3954  block.timestamp */\n      timestamp\n        /* \"Dapp/MoneyTransfer.sol\":3939:3990  block.timestamp >= (firstTransferTime + 30 seconds) */\n      lt\n      iszero\n        /* \"Dapp/MoneyTransfer.sol\":3921:3990  callCount <= 5 && block.timestamp >= (firstTransferTime + 30 seconds) */\n    tag_99:\n        /* \"Dapp/MoneyTransfer.sol\":3918:4119  if(callCount <= 5 && block.timestamp >= (firstTransferTime + 30 seconds)){... */\n      iszero\n      tag_101\n      jumpi\n        /* \"Dapp/MoneyTransfer.sol\":4018:4019  0 */\n      0x00\n        /* \"Dapp/MoneyTransfer.sol\":4006:4015  callCount */\n      0x0b\n        /* \"Dapp/MoneyTransfer.sol\":4006:4019  callCount = 0 */\n      dup2\n      swap1\n      sstore\n      pop\n        /* \"Dapp/MoneyTransfer.sol\":4055:4056  0 */\n      0x00\n        /* \"Dapp/MoneyTransfer.sol\":4042:4051  callCount */\n      sload(0x0b)\n        /* \"Dapp/MoneyTransfer.sol\":4042:4056  callCount == 0 */\n      eq\n        /* \"Dapp/MoneyTransfer.sol\":4035:4057  assert(callCount == 0) */\n      tag_102\n      jumpi\n      tag_103\n      tag_96\n      jump\t// in\n    tag_103:\n    tag_102:\n        /* \"Dapp/MoneyTransfer.sol\":4092:4107  block.timestamp */\n      timestamp\n        /* \"Dapp/MoneyTransfer.sol\":4072:4089  firstTransferTime */\n      0x0a\n        /* \"Dapp/MoneyTransfer.sol\":4072:4107  firstTransferTime = block.timestamp */\n      dup2\n      swap1\n      sstore\n      pop\n        /* \"Dapp/MoneyTransfer.sol\":3918:4119  if(callCount <= 5 && block.timestamp >= (firstTransferTime + 30 seconds)){... */\n    tag_101:\n        /* \"Dapp/MoneyTransfer.sol\":1024:1033  _receiver */\n      dup2\n        /* \"Dapp/MoneyTransfer.sol\":1013:1021  receiver */\n      0x05\n      0x00\n        /* \"Dapp/MoneyTransfer.sol\":1013:1033  receiver = _receiver */\n      0x0100\n      exp\n      dup2\n      sload\n      dup2\n      0xffffffffffffffffffffffffffffffffffffffff\n      mul\n      not\n      and\n      swap1\n      dup4\n      0xffffffffffffffffffffffffffffffffffffffff\n      and\n      mul\n      or\n      swap1\n      sstore\n      pop\n        /* \"Dapp/MoneyTransfer.sol\":1053:1060  _amount */\n      dup3\n        /* \"Dapp/MoneyTransfer.sol\":1044:1050  amount */\n      0x03\n        /* \"Dapp/MoneyTransfer.sol\":1044:1060  amount = _amount */\n      dup2\n      swap1\n      sstore\n      pop\n        /* \"Dapp/MoneyTransfer.sol\":1233:1234  1 */\n      0x01\n        /* \"Dapp/MoneyTransfer.sol\":1220:1229  callCount */\n      0x0b\n      0x00\n        /* \"Dapp/MoneyTransfer.sol\":1220:1234  callCount += 1 */\n      dup3\n      dup3\n      sload\n      tag_105\n      swap2\n      swap1\n      tag_92\n      jump\t// in\n    tag_105:\n      swap3\n      pop\n      pop\n      dup2\n      swap1\n      sstore\n      pop\n        /* \"Dapp/MoneyTransfer.sol\":1290:1291  0 */\n      0x00\n        /* \"Dapp/MoneyTransfer.sol\":1277:1287  TotalFunds */\n      sload(0x04)\n        /* \"Dapp/MoneyTransfer.sol\":1277:1291  TotalFunds > 0 */\n      gt\n        /* \"Dapp/MoneyTransfer.sol\":1277:1314  TotalFunds > 0 && TotalFunds > amount */\n      dup1\n      iszero\n      tag_106\n      jumpi\n      pop\n        /* \"Dapp/MoneyTransfer.sol\":1308:1314  amount */\n      sload(0x03)\n        /* \"Dapp/MoneyTransfer.sol\":1295:1305  TotalFunds */\n      sload(0x04)\n        /* \"Dapp/MoneyTransfer.sol\":1295:1314  TotalFunds > amount */\n      gt\n        /* \"Dapp/MoneyTransfer.sol\":1277:1314  TotalFunds > 0 && TotalFunds > amount */\n    tag_106:\n        /* \"Dapp/MoneyTransfer.sol\":1274:1757  if(TotalFunds > 0 && TotalFunds > amount){... */\n      iszero\n      tag_107\n      jumpi\n        /* \"Dapp/MoneyTransfer.sol\":1352:1358  amount */\n      sload(0x03)\n        /* \"Dapp/MoneyTransfer.sol\":1338:1348  TotalFunds */\n      0x04\n      0x00\n        /* \"Dapp/MoneyTransfer.sol\":1338:1358  TotalFunds -= amount */\n      dup3\n      dup3\n      sload\n      tag_108\n      swap2\n      swap1\n      tag_109\n      jump\t// in\n    tag_108:\n      swap3\n      pop\n      pop\n      dup2\n      swap1\n      sstore\n      pop\n        /* \"Dapp/MoneyTransfer.sol\":1396:1402  amount */\n      sload(0x03)\n        /* \"Dapp/MoneyTransfer.sol\":1381:1392  TotalAmount */\n      0x09\n      0x00\n        /* \"Dapp/MoneyTransfer.sol\":1381:1402  TotalAmount += amount */\n      dup3\n      dup3\n      sload\n      tag_110\n      swap2\n      swap1\n      tag_92\n      jump\t// in\n    tag_110:\n      swap3\n      pop\n      pop\n      dup2\n      swap1\n      sstore\n      pop\n        /* \"Dapp/MoneyTransfer.sol\":1469:1529  addTransaction(msg.sender,receiver, amount, block.timestamp) */\n      tag_111\n        /* \"Dapp/MoneyTransfer.sol\":1484:1494  msg.sender */\n      caller\n        /* \"Dapp/MoneyTransfer.sol\":1495:1503  receiver */\n      0x05\n      0x00\n      swap1\n      sload\n      swap1\n      0x0100\n      exp\n      swap1\n      div\n      0xffffffffffffffffffffffffffffffffffffffff\n      and\n        /* \"Dapp/MoneyTransfer.sol\":1505:1511  amount */\n      sload(0x03)\n        /* \"Dapp/MoneyTransfer.sol\":1513:1528  block.timestamp */\n      timestamp\n        /* \"Dapp/MoneyTransfer.sol\":1469:1483  addTransaction */\n      tag_112\n        /* \"Dapp/MoneyTransfer.sol\":1469:1529  addTransaction(msg.sender,receiver, amount, block.timestamp) */\n      jump\t// in\n    tag_111:\n        /* \"Dapp/MoneyTransfer.sol\":1552:1582  message = \"Transfer completed\" */\n      mload(0x40)\n      dup1\n      0x40\n      add\n      0x40\n      mstore\n      dup1\n      0x12\n      dup2\n      mstore\n      0x20\n      add\n      0x5472616e7366657220636f6d706c657465640000000000000000000000000000\n      dup2\n      mstore\n      pop\n        /* \"Dapp/MoneyTransfer.sol\":1552:1559  message */\n      0x06\n        /* \"Dapp/MoneyTransfer.sol\":1552:1582  message = \"Transfer completed\" */\n      swap1\n      dup2\n      tag_113\n      swap2\n      swap1\n      tag_114\n      jump\t// in\n    tag_113:\n      pop\n        /* \"Dapp/MoneyTransfer.sol\":1274:1757  if(TotalFunds > 0 && TotalFunds > amount){... */\n      jump(tag_115)\n    tag_107:\n        /* \"Dapp/MoneyTransfer.sol\":1710:1736  revert(\"Not enough funds\") */\n      mload(0x40)\n      0x08c379a000000000000000000000000000000000000000000000000000000000\n      dup2\n      mstore\n      0x04\n      add\n      tag_116\n      swap1\n      tag_117\n      jump\t// in\n    tag_116:\n      mload(0x40)\n      dup1\n      swap2\n      sub\n      swap1\n      revert\n        /* \"Dapp/MoneyTransfer.sol\":1274:1757  if(TotalFunds > 0 && TotalFunds > amount){... */\n    tag_115:\n        /* \"Dapp/MoneyTransfer.sol\":886:1774  function sendMoney( uint _amount, address _receiver) public m_validAddress(_receiver) m_ifCardExists m_transferLimit{... */\n      pop\n      pop\n      pop\n      jump\t// out\n        /* \"Dapp/MoneyTransfer.sol\":584:613  uint public firstTransferTime */\n    tag_33:\n      sload(0x0a)\n      dup2\n      jump\t// out\n        /* \"Dapp/MoneyTransfer.sol\":1782:2047  function setCard(string memory _cardNumber, string memory _cvv) public  m_checkCard {... */\n    tag_39:\n        /* \"Dapp/MoneyTransfer.sol\":1896:1907  _cardNumber */\n      dup2\n        /* \"Dapp/MoneyTransfer.sol\":1883:1893  cardNumber */\n      0x07\n        /* \"Dapp/MoneyTransfer.sol\":1883:1907  cardNumber = _cardNumber */\n      swap1\n      dup2\n      tag_120\n      swap2\n      swap1\n      tag_114\n      jump\t// in\n    tag_120:\n      pop\n        /* \"Dapp/MoneyTransfer.sol\":1928:1932  _cvv */\n      dup1\n        /* \"Dapp/MoneyTransfer.sol\":1922:1925  cvv */\n      0x08\n        /* \"Dapp/MoneyTransfer.sol\":1922:1932  cvv = _cvv */\n      swap1\n      dup2\n      tag_121\n      swap2\n      swap1\n      tag_114\n      jump\t// in\n    tag_121:\n      pop\n        /* \"Dapp/MoneyTransfer.sol\":1980:1984  true */\n      0x01\n        /* \"Dapp/MoneyTransfer.sol\":1966:1977  callPutCard */\n      0x0c\n      0x00\n        /* \"Dapp/MoneyTransfer.sol\":1966:1984  callPutCard = true */\n      0x0100\n      exp\n      dup2\n      sload\n      dup2\n      0xff\n      mul\n      not\n      and\n      swap1\n      dup4\n      iszero\n      iszero\n      mul\n      or\n      swap1\n      sstore\n      pop\n        /* \"Dapp/MoneyTransfer.sol\":2022:2037  block.timestamp */\n      timestamp\n        /* \"Dapp/MoneyTransfer.sol\":2002:2019  firstTransferTime */\n      0x0a\n        /* \"Dapp/MoneyTransfer.sol\":2002:2037  firstTransferTime = block.timestamp */\n      dup2\n      swap1\n      sstore\n      pop\n        /* \"Dapp/MoneyTransfer.sol\":2554:2555  8 */\n      0x08\n        /* \"Dapp/MoneyTransfer.sol\":2532:2542  cardNumber */\n      0x07\n        /* \"Dapp/MoneyTransfer.sol\":2526:2550  bytes(cardNumber).length */\n      dup1\n      sload\n      tag_122\n      swap1\n      tag_123\n      jump\t// in\n    tag_122:\n      swap1\n      pop\n        /* \"Dapp/MoneyTransfer.sol\":2526:2555  bytes(cardNumber).length == 8 */\n      eq\n        /* \"Dapp/MoneyTransfer.sol\":2526:2581  bytes(cardNumber).length == 8 && bytes(cvv).length == 3 */\n      dup1\n      iszero\n      tag_124\n      jumpi\n      pop\n        /* \"Dapp/MoneyTransfer.sol\":2580:2581  3 */\n      0x03\n        /* \"Dapp/MoneyTransfer.sol\":2565:2568  cvv */\n      0x08\n        /* \"Dapp/MoneyTransfer.sol\":2559:2576  bytes(cvv).length */\n      dup1\n      sload\n      tag_125\n      swap1\n      tag_123\n      jump\t// in\n    tag_125:\n      swap1\n      pop\n        /* \"Dapp/MoneyTransfer.sol\":2559:2581  bytes(cvv).length == 3 */\n      eq\n        /* \"Dapp/MoneyTransfer.sol\":2526:2581  bytes(cardNumber).length == 8 && bytes(cvv).length == 3 */\n    tag_124:\n        /* \"Dapp/MoneyTransfer.sol\":2518:2606  require(bytes(cardNumber).length == 8 && bytes(cvv).length == 3, \"No valid credit card\") */\n      tag_126\n      jumpi\n      mload(0x40)\n      0x08c379a000000000000000000000000000000000000000000000000000000000\n      dup2\n      mstore\n      0x04\n      add\n      tag_127\n      swap1\n      tag_128\n      jump\t// in\n    tag_127:\n      mload(0x40)\n      dup1\n      swap2\n      sub\n      swap1\n      revert\n    tag_126:\n        /* \"Dapp/MoneyTransfer.sol\":1782:2047  function setCard(string memory _cardNumber, string memory _cvv) public  m_checkCard {... */\n      pop\n      pop\n      jump\t// out\n        /* \"Dapp/MoneyTransfer.sol\":845:876  bool public callPutCard = false */\n    tag_41:\n      0x0c\n      0x00\n      swap1\n      sload\n      swap1\n      0x0100\n      exp\n      swap1\n      div\n      0xff\n      and\n      dup2\n      jump\t// out\n        /* \"Dapp/MoneyTransfer.sol\":526:543  string public cvv */\n    tag_45:\n      0x08\n      dup1\n      sload\n      tag_129\n      swap1\n      tag_123\n      jump\t// in\n    tag_129:\n      dup1\n      0x1f\n      add\n      0x20\n      dup1\n      swap2\n      div\n      mul\n      0x20\n      add\n      mload(0x40)\n      swap1\n      dup2\n      add\n      0x40\n      mstore\n      dup1\n      swap3\n      swap2\n      swap1\n      dup2\n      dup2\n      mstore\n      0x20\n      add\n      dup3\n      dup1\n      sload\n      tag_130\n      swap1\n      tag_123\n      jump\t// in\n    tag_130:\n      dup1\n      iszero\n      tag_131\n      jumpi\n      dup1\n      0x1f\n      lt\n      tag_132\n      jumpi\n      0x0100\n      dup1\n      dup4\n      sload\n      div\n      mul\n      dup4\n      mstore\n      swap2\n      0x20\n      add\n      swap2\n      jump(tag_131)\n    tag_132:\n      dup3\n      add\n      swap2\n      swap1\n      0x00\n      mstore\n      keccak256(0x00, 0x20)\n      swap1\n    tag_133:\n      dup2\n      sload\n      dup2\n      mstore\n      swap1\n      0x01\n      add\n      swap1\n      0x20\n      add\n      dup1\n      dup4\n      gt\n      tag_133\n      jumpi\n      dup3\n      swap1\n      sub\n      0x1f\n      and\n      dup3\n      add\n      swap2\n    tag_131:\n      pop\n      pop\n      pop\n      pop\n      pop\n      dup2\n      jump\t// out\n        /* \"Dapp/MoneyTransfer.sol\":812:837  uint public callCount = 0 */\n    tag_49:\n      sload(0x0b)\n      dup2\n      jump\t// out\n        /* \"Dapp/MoneyTransfer.sol\":4154:4240  function getTime()public view returns(uint ){... */\n    tag_52:\n        /* \"Dapp/MoneyTransfer.sol\":4192:4196  uint */\n      0x00\n        /* \"Dapp/MoneyTransfer.sol\":4217:4232  block.timestamp */\n      timestamp\n        /* \"Dapp/MoneyTransfer.sol\":4209:4232  return  block.timestamp */\n      swap1\n      pop\n        /* \"Dapp/MoneyTransfer.sol\":4154:4240  function getTime()public view returns(uint ){... */\n      swap1\n      jump\t// out\n        /* \"Dapp/Transaction.sol\":289:330  mapping (uint => Transactions) public trn */\n    tag_56:\n      mstore(0x20, 0x01)\n      dup1\n      0x00\n      mstore\n      keccak256(0x00, 0x40)\n      0x00\n      swap2\n      pop\n      swap1\n      pop\n      dup1\n      0x00\n      add\n      0x00\n      swap1\n      sload\n      swap1\n      0x0100\n      exp\n      swap1\n      div\n      0xffffffffffffffffffffffffffffffffffffffff\n      and\n      swap1\n      dup1\n      0x01\n      add\n      0x00\n      swap1\n      sload\n      swap1\n      0x0100\n      exp\n      swap1\n      div\n      0xffffffffffffffffffffffffffffffffffffffff\n      and\n      swap1\n      dup1\n      0x02\n      add\n      sload\n      swap1\n      dup1\n      0x03\n      add\n      sload\n      swap1\n      pop\n      dup5\n      jump\t// out\n        /* \"Dapp/Transaction.sol\":693:804  function getTransaction() public view returns(Transactions[] memory){... */\n    tag_59:\n        /* \"Dapp/Transaction.sol\":739:760  Transactions[] memory */\n      0x60\n        /* \"Dapp/Transaction.sol\":781:796  transactionList */\n      0x00\n        /* \"Dapp/Transaction.sol\":774:796  return transactionList */\n      dup1\n      sload\n      dup1\n      0x20\n      mul\n      0x20\n      add\n      mload(0x40)\n      swap1\n      dup2\n      add\n      0x40\n      mstore\n      dup1\n      swap3\n      swap2\n      swap1\n      dup2\n      dup2\n      mstore\n      0x20\n      add\n      0x00\n      swap1\n    tag_136:\n      dup3\n      dup3\n      lt\n      iszero\n      tag_137\n      jumpi\n      dup4\n      dup3\n      swap1\n      0x00\n      mstore\n      keccak256(0x00, 0x20)\n      swap1\n      0x04\n      mul\n      add\n      mload(0x40)\n      dup1\n      0x80\n      add\n      0x40\n      mstore\n      swap1\n      dup2\n      0x00\n      dup3\n      add\n      0x00\n      swap1\n      sload\n      swap1\n      0x0100\n      exp\n      swap1\n      div\n      0xffffffffffffffffffffffffffffffffffffffff\n      and\n      0xffffffffffffffffffffffffffffffffffffffff\n      and\n      0xffffffffffffffffffffffffffffffffffffffff\n      and\n      dup2\n      mstore\n      0x20\n      add\n      0x01\n      dup3\n      add\n      0x00\n      swap1\n      sload\n      swap1\n      0x0100\n      exp\n      swap1\n      div\n      0xffffffffffffffffffffffffffffffffffffffff\n      and\n      0xffffffffffffffffffffffffffffffffffffffff\n      and\n      0xffffffffffffffffffffffffffffffffffffffff\n      and\n      dup2\n      mstore\n      0x20\n      add\n      0x02\n      dup3\n      add\n      sload\n      dup2\n      mstore\n      0x20\n      add\n      0x03\n      dup3\n      add\n      sload\n      dup2\n      mstore\n      pop\n      pop\n      dup2\n      mstore\n      0x20\n      add\n      swap1\n      0x01\n      add\n      swap1\n      jump(tag_136)\n    tag_137:\n      pop\n      pop\n      pop\n      pop\n      swap1\n      pop\n        /* \"Dapp/Transaction.sol\":693:804  function getTransaction() public view returns(Transactions[] memory){... */\n      swap1\n      jump\t// out\n        /* \"Dapp/MoneyTransfer.sol\":176:201  uint256 public TotalFunds */\n    tag_63:\n      sload(0x04)\n      dup2\n      jump\t// out\n        /* \"Dapp/MoneyTransfer.sol\":550:576  uint256 public TotalAmount */\n    tag_66:\n      sload(0x09)\n      dup2\n      jump\t// out\n        /* \"Dapp/MoneyTransfer.sol\":2068:2137  function getOutCard() public  {... */\n    tag_69:\n        /* \"Dapp/MoneyTransfer.sol\":2122:2127  false */\n      0x00\n        /* \"Dapp/MoneyTransfer.sol\":2108:2119  callPutCard */\n      0x0c\n      0x00\n        /* \"Dapp/MoneyTransfer.sol\":2108:2127  callPutCard = false */\n      0x0100\n      exp\n      dup2\n      sload\n      dup2\n      0xff\n      mul\n      not\n      and\n      swap1\n      dup4\n      iszero\n      iszero\n      mul\n      or\n      swap1\n      sstore\n      pop\n        /* \"Dapp/MoneyTransfer.sol\":2068:2137  function getOutCard() public  {... */\n      jump\t// out\n        /* \"Dapp/MoneyTransfer.sol\":494:518  string public cardNumber */\n    tag_71:\n      0x07\n      dup1\n      sload\n      tag_140\n      swap1\n      tag_123\n      jump\t// in\n    tag_140:\n      dup1\n      0x1f\n      add\n      0x20\n      dup1\n      swap2\n      div\n      mul\n      0x20\n      add\n      mload(0x40)\n      swap1\n      dup2\n      add\n      0x40\n      mstore\n      dup1\n      swap3\n      swap2\n      swap1\n      dup2\n      dup2\n      mstore\n      0x20\n      add\n      dup3\n      dup1\n      sload\n      tag_141\n      swap1\n      tag_123\n      jump\t// in\n    tag_141:\n      dup1\n      iszero\n      tag_142\n      jumpi\n      dup1\n      0x1f\n      lt\n      tag_143\n      jumpi\n      0x0100\n      dup1\n      dup4\n      sload\n      div\n      mul\n      dup4\n      mstore\n      swap2\n      0x20\n      add\n      swap2\n      jump(tag_142)\n    tag_143:\n      dup3\n      add\n      swap2\n      swap1\n      0x00\n      mstore\n      keccak256(0x00, 0x20)\n      swap1\n    tag_144:\n      dup2\n      sload\n      dup2\n      mstore\n      swap1\n      0x01\n      add\n      swap1\n      0x20\n      add\n      dup1\n      dup4\n      gt\n      tag_144\n      jumpi\n      dup3\n      swap1\n      sub\n      0x1f\n      and\n      dup3\n      add\n      swap2\n    tag_142:\n      pop\n      pop\n      pop\n      pop\n      pop\n      dup2\n      jump\t// out\n        /* \"Dapp/MoneyTransfer.sol\":148:169  uint256 public amount */\n    tag_74:\n      sload(0x03)\n      dup2\n      jump\t// out\n        /* \"Dapp/MoneyTransfer.sol\":466:487  string public message */\n    tag_77:\n      0x06\n      dup1\n      sload\n      tag_145\n      swap1\n      tag_123\n      jump\t// in\n    tag_145:\n      dup1\n      0x1f\n      add\n      0x20\n      dup1\n      swap2\n      div\n      mul\n      0x20\n      add\n      mload(0x40)\n      swap1\n      dup2\n      add\n      0x40\n      mstore\n      dup1\n      swap3\n      swap2\n      swap1\n      dup2\n      dup2\n      mstore\n      0x20\n      add\n      dup3\n      dup1\n      sload\n      tag_146\n      swap1\n      tag_123\n      jump\t// in\n    tag_146:\n      dup1\n      iszero\n      tag_147\n      jumpi\n      dup1\n      0x1f\n      lt\n      tag_148\n      jumpi\n      0x0100\n      dup1\n      dup4\n      sload\n      div\n      mul\n      dup4\n      mstore\n      swap2\n      0x20\n      add\n      swap2\n      jump(tag_147)\n    tag_148:\n      dup3\n      add\n      swap2\n      swap1\n      0x00\n      mstore\n      keccak256(0x00, 0x20)\n      swap1\n    tag_149:\n      dup2\n      sload\n      dup2\n      mstore\n      swap1\n      0x01\n      add\n      swap1\n      0x20\n      add\n      dup1\n      dup4\n      gt\n      tag_149\n      jumpi\n      dup3\n      swap1\n      sub\n      0x1f\n      and\n      dup3\n      add\n      swap2\n    tag_147:\n      pop\n      pop\n      pop\n      pop\n      pop\n      dup2\n      jump\t// out\n        /* \"Dapp/Transaction.sol\":363:685  function addTransaction(address _address_from ,address _address_to, uint _amount, uint _timestamp)internal{... */\n    tag_112:\n        /* \"Dapp/Transaction.sol\":490:524  Transactions memory newTransaction */\n      0x00\n        /* \"Dapp/Transaction.sol\":527:588  Transactions(_address_from, _address_to, _amount, _timestamp) */\n      mload(0x40)\n      dup1\n      0x80\n      add\n      0x40\n      mstore\n      dup1\n        /* \"Dapp/Transaction.sol\":540:553  _address_from */\n      dup7\n        /* \"Dapp/Transaction.sol\":527:588  Transactions(_address_from, _address_to, _amount, _timestamp) */\n      0xffffffffffffffffffffffffffffffffffffffff\n      and\n      dup2\n      mstore\n      0x20\n      add\n        /* \"Dapp/Transaction.sol\":555:566  _address_to */\n      dup6\n        /* \"Dapp/Transaction.sol\":527:588  Transactions(_address_from, _address_to, _amount, _timestamp) */\n      0xffffffffffffffffffffffffffffffffffffffff\n      and\n      dup2\n      mstore\n      0x20\n      add\n        /* \"Dapp/Transaction.sol\":568:575  _amount */\n      dup5\n        /* \"Dapp/Transaction.sol\":527:588  Transactions(_address_from, _address_to, _amount, _timestamp) */\n      dup2\n      mstore\n      0x20\n      add\n        /* \"Dapp/Transaction.sol\":577:587  _timestamp */\n      dup4\n        /* \"Dapp/Transaction.sol\":527:588  Transactions(_address_from, _address_to, _amount, _timestamp) */\n      dup2\n      mstore\n      pop\n        /* \"Dapp/Transaction.sol\":490:588  Transactions memory newTransaction = Transactions(_address_from, _address_to, _amount, _timestamp) */\n      swap1\n      pop\n        /* \"Dapp/Transaction.sol\":599:614  transactionList */\n      0x00\n        /* \"Dapp/Transaction.sol\":620:634  newTransaction */\n      dup2\n        /* \"Dapp/Transaction.sol\":599:635  transactionList.push(newTransaction) */\n      swap1\n      dup1\n      0x01\n      dup2\n      sload\n      add\n      dup1\n      dup3\n      sstore\n      dup1\n      swap2\n      pop\n      pop\n      0x01\n      swap1\n      sub\n      swap1\n      0x00\n      mstore\n      keccak256(0x00, 0x20)\n      swap1\n      0x04\n      mul\n      add\n      0x00\n      swap1\n      swap2\n      swap1\n      swap2\n      swap1\n      swap2\n      pop\n      0x00\n      dup3\n      add\n      mload\n      dup2\n      0x00\n      add\n      exp(0x0100, 0x00)\n      dup2\n      sload\n      dup2\n      0xffffffffffffffffffffffffffffffffffffffff\n      mul\n      not\n      and\n      swap1\n      dup4\n      0xffffffffffffffffffffffffffffffffffffffff\n      and\n      mul\n      or\n      swap1\n      sstore\n      pop\n      0x20\n      dup3\n      add\n      mload\n      dup2\n      0x01\n      add\n      exp(0x0100, 0x00)\n      dup2\n      sload\n      dup2\n      0xffffffffffffffffffffffffffffffffffffffff\n      mul\n      not\n      and\n      swap1\n      dup4\n      0xffffffffffffffffffffffffffffffffffffffff\n      and\n      mul\n      or\n      swap1\n      sstore\n      pop\n      0x40\n      dup3\n      add\n      mload\n      dup2\n      0x02\n      add\n      sstore\n      0x60\n      dup3\n      add\n      mload\n      dup2\n      0x03\n      add\n      sstore\n      pop\n      pop\n        /* \"Dapp/Transaction.sol\":661:675  newTransaction */\n      dup1\n        /* \"Dapp/Transaction.sol\":646:649  trn */\n      0x01\n        /* \"Dapp/Transaction.sol\":646:658  trn[counter] */\n      0x00\n        /* \"Dapp/Transaction.sol\":650:657  counter */\n      sload(0x02)\n        /* \"Dapp/Transaction.sol\":646:658  trn[counter] */\n      dup2\n      mstore\n      0x20\n      add\n      swap1\n      dup2\n      mstore\n      0x20\n      add\n      0x00\n      keccak256\n        /* \"Dapp/Transaction.sol\":646:675  trn[counter] = newTransaction */\n      0x00\n      dup3\n      add\n      mload\n      dup2\n      0x00\n      add\n      exp(0x0100, 0x00)\n      dup2\n      sload\n      dup2\n      0xffffffffffffffffffffffffffffffffffffffff\n      mul\n      not\n      and\n      swap1\n      dup4\n      0xffffffffffffffffffffffffffffffffffffffff\n      and\n      mul\n      or\n      swap1\n      sstore\n      pop\n      0x20\n      dup3\n      add\n      mload\n      dup2\n      0x01\n      add\n      exp(0x0100, 0x00)\n      dup2\n      sload\n      dup2\n      0xffffffffffffffffffffffffffffffffffffffff\n      mul\n      not\n      and\n      swap1\n      dup4\n      0xffffffffffffffffffffffffffffffffffffffff\n      and\n      mul\n      or\n      swap1\n      sstore\n      pop\n      0x40\n      dup3\n      add\n      mload\n      dup2\n      0x02\n      add\n      sstore\n      0x60\n      dup3\n      add\n      mload\n      dup2\n      0x03\n      add\n      sstore\n      swap1\n      pop\n      pop\n        /* \"Dapp/Transaction.sol\":469:685  {... */\n      pop\n        /* \"Dapp/Transaction.sol\":363:685  function addTransaction(address _address_from ,address _address_to, uint _amount, uint _timestamp)internal{... */\n      pop\n      pop\n      pop\n      pop\n      jump\t// out\n        /* \"#utility.yul\":7:82   */\n    tag_152:\n        /* \"#utility.yul\":40:46   */\n      0x00\n        /* \"#utility.yul\":73:75   */\n      0x40\n        /* \"#utility.yul\":67:76   */\n      mload\n        /* \"#utility.yul\":57:76   */\n      swap1\n      pop\n        /* \"#utility.yul\":7:82   */\n      swap1\n      jump\t// out\n        /* \"#utility.yul\":88:205   */\n    tag_153:\n        /* \"#utility.yul\":197:198   */\n      0x00\n        /* \"#utility.yul\":194:195   */\n      dup1\n        /* \"#utility.yul\":187:199   */\n      revert\n        /* \"#utility.yul\":211:328   */\n    tag_154:\n        /* \"#utility.yul\":320:321   */\n      0x00\n        /* \"#utility.yul\":317:318   */\n      dup1\n        /* \"#utility.yul\":310:322   */\n      revert\n        /* \"#utility.yul\":334:411   */\n    tag_155:\n        /* \"#utility.yul\":371:378   */\n      0x00\n        /* \"#utility.yul\":400:405   */\n      dup2\n        /* \"#utility.yul\":389:405   */\n      swap1\n      pop\n        /* \"#utility.yul\":334:411   */\n      swap2\n      swap1\n      pop\n      jump\t// out\n        /* \"#utility.yul\":417:539   */\n    tag_156:\n        /* \"#utility.yul\":490:514   */\n      tag_222\n        /* \"#utility.yul\":508:513   */\n      dup2\n        /* \"#utility.yul\":490:514   */\n      tag_155\n      jump\t// in\n    tag_222:\n        /* \"#utility.yul\":483:488   */\n      dup2\n        /* \"#utility.yul\":480:515   */\n      eq\n        /* \"#utility.yul\":470:533   */\n      tag_223\n      jumpi\n        /* \"#utility.yul\":529:530   */\n      0x00\n        /* \"#utility.yul\":526:527   */\n      dup1\n        /* \"#utility.yul\":519:531   */\n      revert\n        /* \"#utility.yul\":470:533   */\n    tag_223:\n        /* \"#utility.yul\":417:539   */\n      pop\n      jump\t// out\n        /* \"#utility.yul\":545:684   */\n    tag_157:\n        /* \"#utility.yul\":591:596   */\n      0x00\n        /* \"#utility.yul\":629:635   */\n      dup2\n        /* \"#utility.yul\":616:636   */\n      calldataload\n        /* \"#utility.yul\":607:636   */\n      swap1\n      pop\n        /* \"#utility.yul\":645:678   */\n      tag_225\n        /* \"#utility.yul\":672:677   */\n      dup2\n        /* \"#utility.yul\":645:678   */\n      tag_156\n      jump\t// in\n    tag_225:\n        /* \"#utility.yul\":545:684   */\n      swap3\n      swap2\n      pop\n      pop\n      jump\t// out\n        /* \"#utility.yul\":690:1019   */\n    tag_24:\n        /* \"#utility.yul\":749:755   */\n      0x00\n        /* \"#utility.yul\":798:800   */\n      0x20\n        /* \"#utility.yul\":786:795   */\n      dup3\n        /* \"#utility.yul\":777:784   */\n      dup5\n        /* \"#utility.yul\":773:796   */\n      sub\n        /* \"#utility.yul\":769:801   */\n      slt\n        /* \"#utility.yul\":766:885   */\n      iszero\n      tag_227\n      jumpi\n        /* \"#utility.yul\":804:883   */\n      tag_228\n      tag_153\n      jump\t// in\n    tag_228:\n        /* \"#utility.yul\":766:885   */\n    tag_227:\n        /* \"#utility.yul\":924:925   */\n      0x00\n        /* \"#utility.yul\":949:1002   */\n      tag_229\n        /* \"#utility.yul\":994:1001   */\n      dup5\n        /* \"#utility.yul\":985:991   */\n      dup3\n        /* \"#utility.yul\":974:983   */\n      dup6\n        /* \"#utility.yul\":970:992   */\n      add\n        /* \"#utility.yul\":949:1002   */\n      tag_157\n      jump\t// in\n    tag_229:\n        /* \"#utility.yul\":939:1002   */\n      swap2\n      pop\n        /* \"#utility.yul\":895:1012   */\n      pop\n        /* \"#utility.yul\":690:1019   */\n      swap3\n      swap2\n      pop\n      pop\n      jump\t// out\n        /* \"#utility.yul\":1025:1151   */\n    tag_158:\n        /* \"#utility.yul\":1062:1069   */\n      0x00\n        /* \"#utility.yul\":1102:1144   */\n      0xffffffffffffffffffffffffffffffffffffffff\n        /* \"#utility.yul\":1095:1100   */\n      dup3\n        /* \"#utility.yul\":1091:1145   */\n      and\n        /* \"#utility.yul\":1080:1145   */\n      swap1\n      pop\n        /* \"#utility.yul\":1025:1151   */\n      swap2\n      swap1\n      pop\n      jump\t// out\n        /* \"#utility.yul\":1157:1253   */\n    tag_159:\n        /* \"#utility.yul\":1194:1201   */\n      0x00\n        /* \"#utility.yul\":1223:1247   */\n      tag_232\n        /* \"#utility.yul\":1241:1246   */\n      dup3\n        /* \"#utility.yul\":1223:1247   */\n      tag_158\n      jump\t// in\n    tag_232:\n        /* \"#utility.yul\":1212:1247   */\n      swap1\n      pop\n        /* \"#utility.yul\":1157:1253   */\n      swap2\n      swap1\n      pop\n      jump\t// out\n        /* \"#utility.yul\":1259:1377   */\n    tag_160:\n        /* \"#utility.yul\":1346:1370   */\n      tag_234\n        /* \"#utility.yul\":1364:1369   */\n      dup2\n        /* \"#utility.yul\":1346:1370   */\n      tag_159\n      jump\t// in\n    tag_234:\n        /* \"#utility.yul\":1341:1344   */\n      dup3\n        /* \"#utility.yul\":1334:1371   */\n      mstore\n        /* \"#utility.yul\":1259:1377   */\n      pop\n      pop\n      jump\t// out\n        /* \"#utility.yul\":1383:1501   */\n    tag_161:\n        /* \"#utility.yul\":1470:1494   */\n      tag_236\n        /* \"#utility.yul\":1488:1493   */\n      dup2\n        /* \"#utility.yul\":1470:1494   */\n      tag_155\n      jump\t// in\n    tag_236:\n        /* \"#utility.yul\":1465:1468   */\n      dup3\n        /* \"#utility.yul\":1458:1495   */\n      mstore\n        /* \"#utility.yul\":1383:1501   */\n      pop\n      pop\n      jump\t// out\n        /* \"#utility.yul\":1507:2060   */\n    tag_27:\n        /* \"#utility.yul\":1684:1688   */\n      0x00\n        /* \"#utility.yul\":1722:1725   */\n      0x80\n        /* \"#utility.yul\":1711:1720   */\n      dup3\n        /* \"#utility.yul\":1707:1726   */\n      add\n        /* \"#utility.yul\":1699:1726   */\n      swap1\n      pop\n        /* \"#utility.yul\":1736:1807   */\n      tag_238\n        /* \"#utility.yul\":1804:1805   */\n      0x00\n        /* \"#utility.yul\":1793:1802   */\n      dup4\n        /* \"#utility.yul\":1789:1806   */\n      add\n        /* \"#utility.yul\":1780:1786   */\n      dup8\n        /* \"#utility.yul\":1736:1807   */\n      tag_160\n      jump\t// in\n    tag_238:\n        /* \"#utility.yul\":1817:1889   */\n      tag_239\n        /* \"#utility.yul\":1885:1887   */\n      0x20\n        /* \"#utility.yul\":1874:1883   */\n      dup4\n        /* \"#utility.yul\":1870:1888   */\n      add\n        /* \"#utility.yul\":1861:1867   */\n      dup7\n        /* \"#utility.yul\":1817:1889   */\n      tag_160\n      jump\t// in\n    tag_239:\n        /* \"#utility.yul\":1899:1971   */\n      tag_240\n        /* \"#utility.yul\":1967:1969   */\n      0x40\n        /* \"#utility.yul\":1956:1965   */\n      dup4\n        /* \"#utility.yul\":1952:1970   */\n      add\n        /* \"#utility.yul\":1943:1949   */\n      dup6\n        /* \"#utility.yul\":1899:1971   */\n      tag_161\n      jump\t// in\n    tag_240:\n        /* \"#utility.yul\":1981:2053   */\n      tag_241\n        /* \"#utility.yul\":2049:2051   */\n      0x60\n        /* \"#utility.yul\":2038:2047   */\n      dup4\n        /* \"#utility.yul\":2034:2052   */\n      add\n        /* \"#utility.yul\":2025:2031   */\n      dup5\n        /* \"#utility.yul\":1981:2053   */\n      tag_161\n      jump\t// in\n    tag_241:\n        /* \"#utility.yul\":1507:2060   */\n      swap6\n      swap5\n      pop\n      pop\n      pop\n      pop\n      pop\n      jump\t// out\n        /* \"#utility.yul\":2066:2188   */\n    tag_162:\n        /* \"#utility.yul\":2139:2163   */\n      tag_243\n        /* \"#utility.yul\":2157:2162   */\n      dup2\n        /* \"#utility.yul\":2139:2163   */\n      tag_159\n      jump\t// in\n    tag_243:\n        /* \"#utility.yul\":2132:2137   */\n      dup2\n        /* \"#utility.yul\":2129:2164   */\n      eq\n        /* \"#utility.yul\":2119:2182   */\n      tag_244\n      jumpi\n        /* \"#utility.yul\":2178:2179   */\n      0x00\n        /* \"#utility.yul\":2175:2176   */\n      dup1\n        /* \"#utility.yul\":2168:2180   */\n      revert\n        /* \"#utility.yul\":2119:2182   */\n    tag_244:\n        /* \"#utility.yul\":2066:2188   */\n      pop\n      jump\t// out\n        /* \"#utility.yul\":2194:2333   */\n    tag_163:\n        /* \"#utility.yul\":2240:2245   */\n      0x00\n        /* \"#utility.yul\":2278:2284   */\n      dup2\n        /* \"#utility.yul\":2265:2285   */\n      calldataload\n        /* \"#utility.yul\":2256:2285   */\n      swap1\n      pop\n        /* \"#utility.yul\":2294:2327   */\n      tag_246\n        /* \"#utility.yul\":2321:2326   */\n      dup2\n        /* \"#utility.yul\":2294:2327   */\n      tag_162\n      jump\t// in\n    tag_246:\n        /* \"#utility.yul\":2194:2333   */\n      swap3\n      swap2\n      pop\n      pop\n      jump\t// out\n        /* \"#utility.yul\":2339:2813   */\n    tag_30:\n        /* \"#utility.yul\":2407:2413   */\n      0x00\n        /* \"#utility.yul\":2415:2421   */\n      dup1\n        /* \"#utility.yul\":2464:2466   */\n      0x40\n        /* \"#utility.yul\":2452:2461   */\n      dup4\n        /* \"#utility.yul\":2443:2450   */\n      dup6\n        /* \"#utility.yul\":2439:2462   */\n      sub\n        /* \"#utility.yul\":2435:2467   */\n      slt\n        /* \"#utility.yul\":2432:2551   */\n      iszero\n      tag_248\n      jumpi\n        /* \"#utility.yul\":2470:2549   */\n      tag_249\n      tag_153\n      jump\t// in\n    tag_249:\n        /* \"#utility.yul\":2432:2551   */\n    tag_248:\n        /* \"#utility.yul\":2590:2591   */\n      0x00\n        /* \"#utility.yul\":2615:2668   */\n      tag_250\n        /* \"#utility.yul\":2660:2667   */\n      dup6\n        /* \"#utility.yul\":2651:2657   */\n      dup3\n        /* \"#utility.yul\":2640:2649   */\n      dup7\n        /* \"#utility.yul\":2636:2658   */\n      add\n        /* \"#utility.yul\":2615:2668   */\n      tag_157\n      jump\t// in\n    tag_250:\n        /* \"#utility.yul\":2605:2668   */\n      swap3\n      pop\n        /* \"#utility.yul\":2561:2678   */\n      pop\n        /* \"#utility.yul\":2717:2719   */\n      0x20\n        /* \"#utility.yul\":2743:2796   */\n      tag_251\n        /* \"#utility.yul\":2788:2795   */\n      dup6\n        /* \"#utility.yul\":2779:2785   */\n      dup3\n        /* \"#utility.yul\":2768:2777   */\n      dup7\n        /* \"#utility.yul\":2764:2786   */\n      add\n        /* \"#utility.yul\":2743:2796   */\n      tag_163\n      jump\t// in\n    tag_251:\n        /* \"#utility.yul\":2733:2796   */\n      swap2\n      pop\n        /* \"#utility.yul\":2688:2806   */\n      pop\n        /* \"#utility.yul\":2339:2813   */\n      swap3\n      pop\n      swap3\n      swap1\n      pop\n      jump\t// out\n        /* \"#utility.yul\":2819:3041   */\n    tag_35:\n        /* \"#utility.yul\":2912:2916   */\n      0x00\n        /* \"#utility.yul\":2950:2952   */\n      0x20\n        /* \"#utility.yul\":2939:2948   */\n      dup3\n        /* \"#utility.yul\":2935:2953   */\n      add\n        /* \"#utility.yul\":2927:2953   */\n      swap1\n      pop\n        /* \"#utility.yul\":2963:3034   */\n      tag_253\n        /* \"#utility.yul\":3031:3032   */\n      0x00\n        /* \"#utility.yul\":3020:3029   */\n      dup4\n        /* \"#utility.yul\":3016:3033   */\n      add\n        /* \"#utility.yul\":3007:3013   */\n      dup5\n        /* \"#utility.yul\":2963:3034   */\n      tag_161\n      jump\t// in\n    tag_253:\n        /* \"#utility.yul\":2819:3041   */\n      swap3\n      swap2\n      pop\n      pop\n      jump\t// out\n        /* \"#utility.yul\":3047:3164   */\n    tag_164:\n        /* \"#utility.yul\":3156:3157   */\n      0x00\n        /* \"#utility.yul\":3153:3154   */\n      dup1\n        /* \"#utility.yul\":3146:3158   */\n      revert\n        /* \"#utility.yul\":3170:3287   */\n    tag_165:\n        /* \"#utility.yul\":3279:3280   */\n      0x00\n        /* \"#utility.yul\":3276:3277   */\n      dup1\n        /* \"#utility.yul\":3269:3281   */\n      revert\n        /* \"#utility.yul\":3293:3395   */\n    tag_166:\n        /* \"#utility.yul\":3334:3340   */\n      0x00\n        /* \"#utility.yul\":3385:3387   */\n      0x1f\n        /* \"#utility.yul\":3381:3388   */\n      not\n        /* \"#utility.yul\":3376:3378   */\n      0x1f\n        /* \"#utility.yul\":3369:3374   */\n      dup4\n        /* \"#utility.yul\":3365:3379   */\n      add\n        /* \"#utility.yul\":3361:3389   */\n      and\n        /* \"#utility.yul\":3351:3389   */\n      swap1\n      pop\n        /* \"#utility.yul\":3293:3395   */\n      swap2\n      swap1\n      pop\n      jump\t// out\n        /* \"#utility.yul\":3401:3581   */\n    tag_167:\n        /* \"#utility.yul\":3449:3526   */\n      0x4e487b7100000000000000000000000000000000000000000000000000000000\n        /* \"#utility.yul\":3446:3447   */\n      0x00\n        /* \"#utility.yul\":3439:3527   */\n      mstore\n        /* \"#utility.yul\":3546:3550   */\n      0x41\n        /* \"#utility.yul\":3543:3544   */\n      0x04\n        /* \"#utility.yul\":3536:3551   */\n      mstore\n        /* \"#utility.yul\":3570:3574   */\n      0x24\n        /* \"#utility.yul\":3567:3568   */\n      0x00\n        /* \"#utility.yul\":3560:3575   */\n      revert\n        /* \"#utility.yul\":3587:3868   */\n    tag_168:\n        /* \"#utility.yul\":3670:3697   */\n      tag_259\n        /* \"#utility.yul\":3692:3696   */\n      dup3\n        /* \"#utility.yul\":3670:3697   */\n      tag_166\n      jump\t// in\n    tag_259:\n        /* \"#utility.yul\":3662:3668   */\n      dup2\n        /* \"#utility.yul\":3658:3698   */\n      add\n        /* \"#utility.yul\":3800:3806   */\n      dup2\n        /* \"#utility.yul\":3788:3798   */\n      dup2\n        /* \"#utility.yul\":3785:3807   */\n      lt\n        /* \"#utility.yul\":3764:3782   */\n      0xffffffffffffffff\n        /* \"#utility.yul\":3752:3762   */\n      dup3\n        /* \"#utility.yul\":3749:3783   */\n      gt\n        /* \"#utility.yul\":3746:3808   */\n      or\n        /* \"#utility.yul\":3743:3831   */\n      iszero\n      tag_260\n      jumpi\n        /* \"#utility.yul\":3811:3829   */\n      tag_261\n      tag_167\n      jump\t// in\n    tag_261:\n        /* \"#utility.yul\":3743:3831   */\n    tag_260:\n        /* \"#utility.yul\":3851:3861   */\n      dup1\n        /* \"#utility.yul\":3847:3849   */\n      0x40\n        /* \"#utility.yul\":3840:3862   */\n      mstore\n        /* \"#utility.yul\":3630:3868   */\n      pop\n        /* \"#utility.yul\":3587:3868   */\n      pop\n      pop\n      jump\t// out\n        /* \"#utility.yul\":3874:4003   */\n    tag_169:\n        /* \"#utility.yul\":3908:3914   */\n      0x00\n        /* \"#utility.yul\":3935:3955   */\n      tag_263\n      tag_152\n      jump\t// in\n    tag_263:\n        /* \"#utility.yul\":3925:3955   */\n      swap1\n      pop\n        /* \"#utility.yul\":3964:3997   */\n      tag_264\n        /* \"#utility.yul\":3992:3996   */\n      dup3\n        /* \"#utility.yul\":3984:3990   */\n      dup3\n        /* \"#utility.yul\":3964:3997   */\n      tag_168\n      jump\t// in\n    tag_264:\n        /* \"#utility.yul\":3874:4003   */\n      swap2\n      swap1\n      pop\n      jump\t// out\n        /* \"#utility.yul\":4009:4317   */\n    tag_170:\n        /* \"#utility.yul\":4071:4075   */\n      0x00\n        /* \"#utility.yul\":4161:4179   */\n      0xffffffffffffffff\n        /* \"#utility.yul\":4153:4159   */\n      dup3\n        /* \"#utility.yul\":4150:4180   */\n      gt\n        /* \"#utility.yul\":4147:4203   */\n      iszero\n      tag_266\n      jumpi\n        /* \"#utility.yul\":4183:4201   */\n      tag_267\n      tag_167\n      jump\t// in\n    tag_267:\n        /* \"#utility.yul\":4147:4203   */\n    tag_266:\n        /* \"#utility.yul\":4221:4250   */\n      tag_268\n        /* \"#utility.yul\":4243:4249   */\n      dup3\n        /* \"#utility.yul\":4221:4250   */\n      tag_166\n      jump\t// in\n    tag_268:\n        /* \"#utility.yul\":4213:4250   */\n      swap1\n      pop\n        /* \"#utility.yul\":4305:4309   */\n      0x20\n        /* \"#utility.yul\":4299:4303   */\n      dup2\n        /* \"#utility.yul\":4295:4310   */\n      add\n        /* \"#utility.yul\":4287:4310   */\n      swap1\n      pop\n        /* \"#utility.yul\":4009:4317   */\n      swap2\n      swap1\n      pop\n      jump\t// out\n        /* \"#utility.yul\":4323:4469   */\n    tag_171:\n        /* \"#utility.yul\":4420:4426   */\n      dup3\n        /* \"#utility.yul\":4415:4418   */\n      dup2\n        /* \"#utility.yul\":4410:4413   */\n      dup4\n        /* \"#utility.yul\":4397:4427   */\n      calldatacopy\n        /* \"#utility.yul\":4461:4462   */\n      0x00\n        /* \"#utility.yul\":4452:4458   */\n      dup4\n        /* \"#utility.yul\":4447:4450   */\n      dup4\n        /* \"#utility.yul\":4443:4459   */\n      add\n        /* \"#utility.yul\":4436:4463   */\n      mstore\n        /* \"#utility.yul\":4323:4469   */\n      pop\n      pop\n      pop\n      jump\t// out\n        /* \"#utility.yul\":4475:4900   */\n    tag_172:\n        /* \"#utility.yul\":4553:4558   */\n      0x00\n        /* \"#utility.yul\":4578:4644   */\n      tag_271\n        /* \"#utility.yul\":4594:4643   */\n      tag_272\n        /* \"#utility.yul\":4636:4642   */\n      dup5\n        /* \"#utility.yul\":4594:4643   */\n      tag_170\n      jump\t// in\n    tag_272:\n        /* \"#utility.yul\":4578:4644   */\n      tag_169\n      jump\t// in\n    tag_271:\n        /* \"#utility.yul\":4569:4644   */\n      swap1\n      pop\n        /* \"#utility.yul\":4667:4673   */\n      dup3\n        /* \"#utility.yul\":4660:4665   */\n      dup2\n        /* \"#utility.yul\":4653:4674   */\n      mstore\n        /* \"#utility.yul\":4705:4709   */\n      0x20\n        /* \"#utility.yul\":4698:4703   */\n      dup2\n        /* \"#utility.yul\":4694:4710   */\n      add\n        /* \"#utility.yul\":4743:4746   */\n      dup5\n        /* \"#utility.yul\":4734:4740   */\n      dup5\n        /* \"#utility.yul\":4729:4732   */\n      dup5\n        /* \"#utility.yul\":4725:4741   */\n      add\n        /* \"#utility.yul\":4722:4747   */\n      gt\n        /* \"#utility.yul\":4719:4831   */\n      iszero\n      tag_273\n      jumpi\n        /* \"#utility.yul\":4750:4829   */\n      tag_274\n      tag_165\n      jump\t// in\n    tag_274:\n        /* \"#utility.yul\":4719:4831   */\n    tag_273:\n        /* \"#utility.yul\":4840:4894   */\n      tag_275\n        /* \"#utility.yul\":4887:4893   */\n      dup5\n        /* \"#utility.yul\":4882:4885   */\n      dup3\n        /* \"#utility.yul\":4877:4880   */\n      dup6\n        /* \"#utility.yul\":4840:4894   */\n      tag_171\n      jump\t// in\n    tag_275:\n        /* \"#utility.yul\":4559:4900   */\n      pop\n        /* \"#utility.yul\":4475:4900   */\n      swap4\n      swap3\n      pop\n      pop\n      pop\n      jump\t// out\n        /* \"#utility.yul\":4920:5260   */\n    tag_173:\n        /* \"#utility.yul\":4976:4981   */\n      0x00\n        /* \"#utility.yul\":5025:5028   */\n      dup3\n        /* \"#utility.yul\":5018:5022   */\n      0x1f\n        /* \"#utility.yul\":5010:5016   */\n      dup4\n        /* \"#utility.yul\":5006:5023   */\n      add\n        /* \"#utility.yul\":5002:5029   */\n      slt\n        /* \"#utility.yul\":4992:5114   */\n      tag_277\n      jumpi\n        /* \"#utility.yul\":5033:5112   */\n      tag_278\n      tag_164\n      jump\t// in\n    tag_278:\n        /* \"#utility.yul\":4992:5114   */\n    tag_277:\n        /* \"#utility.yul\":5150:5156   */\n      dup2\n        /* \"#utility.yul\":5137:5157   */\n      calldataload\n        /* \"#utility.yul\":5175:5254   */\n      tag_279\n        /* \"#utility.yul\":5250:5253   */\n      dup5\n        /* \"#utility.yul\":5242:5248   */\n      dup3\n        /* \"#utility.yul\":5235:5239   */\n      0x20\n        /* \"#utility.yul\":5227:5233   */\n      dup7\n        /* \"#utility.yul\":5223:5240   */\n      add\n        /* \"#utility.yul\":5175:5254   */\n      tag_172\n      jump\t// in\n    tag_279:\n        /* \"#utility.yul\":5166:5254   */\n      swap2\n      pop\n        /* \"#utility.yul\":4982:5260   */\n      pop\n        /* \"#utility.yul\":4920:5260   */\n      swap3\n      swap2\n      pop\n      pop\n      jump\t// out\n        /* \"#utility.yul\":5266:6100   */\n    tag_38:\n        /* \"#utility.yul\":5354:5360   */\n      0x00\n        /* \"#utility.yul\":5362:5368   */\n      dup1\n        /* \"#utility.yul\":5411:5413   */\n      0x40\n        /* \"#utility.yul\":5399:5408   */\n      dup4\n        /* \"#utility.yul\":5390:5397   */\n      dup6\n        /* \"#utility.yul\":5386:5409   */\n      sub\n        /* \"#utility.yul\":5382:5414   */\n      slt\n        /* \"#utility.yul\":5379:5498   */\n      iszero\n      tag_281\n      jumpi\n        /* \"#utility.yul\":5417:5496   */\n      tag_282\n      tag_153\n      jump\t// in\n    tag_282:\n        /* \"#utility.yul\":5379:5498   */\n    tag_281:\n        /* \"#utility.yul\":5565:5566   */\n      0x00\n        /* \"#utility.yul\":5554:5563   */\n      dup4\n        /* \"#utility.yul\":5550:5567   */\n      add\n        /* \"#utility.yul\":5537:5568   */\n      calldataload\n        /* \"#utility.yul\":5595:5613   */\n      0xffffffffffffffff\n        /* \"#utility.yul\":5587:5593   */\n      dup2\n        /* \"#utility.yul\":5584:5614   */\n      gt\n        /* \"#utility.yul\":5581:5698   */\n      iszero\n      tag_283\n      jumpi\n        /* \"#utility.yul\":5617:5696   */\n      tag_284\n      tag_154\n      jump\t// in\n    tag_284:\n        /* \"#utility.yul\":5581:5698   */\n    tag_283:\n        /* \"#utility.yul\":5722:5785   */\n      tag_285\n        /* \"#utility.yul\":5777:5784   */\n      dup6\n        /* \"#utility.yul\":5768:5774   */\n      dup3\n        /* \"#utility.yul\":5757:5766   */\n      dup7\n        /* \"#utility.yul\":5753:5775   */\n      add\n        /* \"#utility.yul\":5722:5785   */\n      tag_173\n      jump\t// in\n    tag_285:\n        /* \"#utility.yul\":5712:5785   */\n      swap3\n      pop\n        /* \"#utility.yul\":5508:5795   */\n      pop\n        /* \"#utility.yul\":5862:5864   */\n      0x20\n        /* \"#utility.yul\":5851:5860   */\n      dup4\n        /* \"#utility.yul\":5847:5865   */\n      add\n        /* \"#utility.yul\":5834:5866   */\n      calldataload\n        /* \"#utility.yul\":5893:5911   */\n      0xffffffffffffffff\n        /* \"#utility.yul\":5885:5891   */\n      dup2\n        /* \"#utility.yul\":5882:5912   */\n      gt\n        /* \"#utility.yul\":5879:5996   */\n      iszero\n      tag_286\n      jumpi\n        /* \"#utility.yul\":5915:5994   */\n      tag_287\n      tag_154\n      jump\t// in\n    tag_287:\n        /* \"#utility.yul\":5879:5996   */\n    tag_286:\n        /* \"#utility.yul\":6020:6083   */\n      tag_288\n        /* \"#utility.yul\":6075:6082   */\n      dup6\n        /* \"#utility.yul\":6066:6072   */\n      dup3\n        /* \"#utility.yul\":6055:6064   */\n      dup7\n        /* \"#utility.yul\":6051:6073   */\n      add\n        /* \"#utility.yul\":6020:6083   */\n      tag_173\n      jump\t// in\n    tag_288:\n        /* \"#utility.yul\":6010:6083   */\n      swap2\n      pop\n        /* \"#utility.yul\":5805:6093   */\n      pop\n        /* \"#utility.yul\":5266:6100   */\n      swap3\n      pop\n      swap3\n      swap1\n      pop\n      jump\t// out\n        /* \"#utility.yul\":6106:6196   */\n    tag_174:\n        /* \"#utility.yul\":6140:6147   */\n      0x00\n        /* \"#utility.yul\":6183:6188   */\n      dup2\n        /* \"#utility.yul\":6176:6189   */\n      iszero\n        /* \"#utility.yul\":6169:6190   */\n      iszero\n        /* \"#utility.yul\":6158:6190   */\n      swap1\n      pop\n        /* \"#utility.yul\":6106:6196   */\n      swap2\n      swap1\n      pop\n      jump\t// out\n        /* \"#utility.yul\":6202:6311   */\n    tag_175:\n        /* \"#utility.yul\":6283:6304   */\n      tag_291\n        /* \"#utility.yul\":6298:6303   */\n      dup2\n        /* \"#utility.yul\":6283:6304   */\n      tag_174\n      jump\t// in\n    tag_291:\n        /* \"#utility.yul\":6278:6281   */\n      dup3\n        /* \"#utility.yul\":6271:6305   */\n      mstore\n        /* \"#utility.yul\":6202:6311   */\n      pop\n      pop\n      jump\t// out\n        /* \"#utility.yul\":6317:6527   */\n    tag_43:\n        /* \"#utility.yul\":6404:6408   */\n      0x00\n        /* \"#utility.yul\":6442:6444   */\n      0x20\n        /* \"#utility.yul\":6431:6440   */\n      dup3\n        /* \"#utility.yul\":6427:6445   */\n      add\n        /* \"#utility.yul\":6419:6445   */\n      swap1\n      pop\n        /* \"#utility.yul\":6455:6520   */\n      tag_293\n        /* \"#utility.yul\":6517:6518   */\n      0x00\n        /* \"#utility.yul\":6506:6515   */\n      dup4\n        /* \"#utility.yul\":6502:6519   */\n      add\n        /* \"#utility.yul\":6493:6499   */\n      dup5\n        /* \"#utility.yul\":6455:6520   */\n      tag_175\n      jump\t// in\n    tag_293:\n        /* \"#utility.yul\":6317:6527   */\n      swap3\n      swap2\n      pop\n      pop\n      jump\t// out\n        /* \"#utility.yul\":6533:6632   */\n    tag_176:\n        /* \"#utility.yul\":6585:6591   */\n      0x00\n        /* \"#utility.yul\":6619:6624   */\n      dup2\n        /* \"#utility.yul\":6613:6625   */\n      mload\n        /* \"#utility.yul\":6603:6625   */\n      swap1\n      pop\n        /* \"#utility.yul\":6533:6632   */\n      swap2\n      swap1\n      pop\n      jump\t// out\n        /* \"#utility.yul\":6638:6807   */\n    tag_177:\n        /* \"#utility.yul\":6722:6733   */\n      0x00\n        /* \"#utility.yul\":6756:6762   */\n      dup3\n        /* \"#utility.yul\":6751:6754   */\n      dup3\n        /* \"#utility.yul\":6744:6763   */\n      mstore\n        /* \"#utility.yul\":6796:6800   */\n      0x20\n        /* \"#utility.yul\":6791:6794   */\n      dup3\n        /* \"#utility.yul\":6787:6801   */\n      add\n        /* \"#utility.yul\":6772:6801   */\n      swap1\n      pop\n        /* \"#utility.yul\":6638:6807   */\n      swap3\n      swap2\n      pop\n      pop\n      jump\t// out\n        /* \"#utility.yul\":6813:7059   */\n    tag_178:\n        /* \"#utility.yul\":6894:6895   */\n      0x00\n        /* \"#utility.yul\":6904:7017   */\n    tag_297:\n        /* \"#utility.yul\":6918:6924   */\n      dup4\n        /* \"#utility.yul\":6915:6916   */\n      dup2\n        /* \"#utility.yul\":6912:6925   */\n      lt\n        /* \"#utility.yul\":6904:7017   */\n      iszero\n      tag_299\n      jumpi\n        /* \"#utility.yul\":7003:7004   */\n      dup1\n        /* \"#utility.yul\":6998:7001   */\n      dup3\n        /* \"#utility.yul\":6994:7005   */\n      add\n        /* \"#utility.yul\":6988:7006   */\n      mload\n        /* \"#utility.yul\":6984:6985   */\n      dup2\n        /* \"#utility.yul\":6979:6982   */\n      dup5\n        /* \"#utility.yul\":6975:6986   */\n      add\n        /* \"#utility.yul\":6968:7007   */\n      mstore\n        /* \"#utility.yul\":6940:6942   */\n      0x20\n        /* \"#utility.yul\":6937:6938   */\n      dup2\n        /* \"#utility.yul\":6933:6943   */\n      add\n        /* \"#utility.yul\":6928:6943   */\n      swap1\n      pop\n        /* \"#utility.yul\":6904:7017   */\n      jump(tag_297)\n    tag_299:\n        /* \"#utility.yul\":7051:7052   */\n      0x00\n        /* \"#utility.yul\":7042:7048   */\n      dup5\n        /* \"#utility.yul\":7037:7040   */\n      dup5\n        /* \"#utility.yul\":7033:7049   */\n      add\n        /* \"#utility.yul\":7026:7053   */\n      mstore\n        /* \"#utility.yul\":6875:7059   */\n      pop\n        /* \"#utility.yul\":6813:7059   */\n      pop\n      pop\n      pop\n      jump\t// out\n        /* \"#utility.yul\":7065:7442   */\n    tag_179:\n        /* \"#utility.yul\":7153:7156   */\n      0x00\n        /* \"#utility.yul\":7181:7220   */\n      tag_301\n        /* \"#utility.yul\":7214:7219   */\n      dup3\n        /* \"#utility.yul\":7181:7220   */\n      tag_176\n      jump\t// in\n    tag_301:\n        /* \"#utility.yul\":7236:7307   */\n      tag_302\n        /* \"#utility.yul\":7300:7306   */\n      dup2\n        /* \"#utility.yul\":7295:7298   */\n      dup6\n        /* \"#utility.yul\":7236:7307   */\n      tag_177\n      jump\t// in\n    tag_302:\n        /* \"#utility.yul\":7229:7307   */\n      swap4\n      pop\n        /* \"#utility.yul\":7316:7381   */\n      tag_303\n        /* \"#utility.yul\":7374:7380   */\n      dup2\n        /* \"#utility.yul\":7369:7372   */\n      dup6\n        /* \"#utility.yul\":7362:7366   */\n      0x20\n        /* \"#utility.yul\":7355:7360   */\n      dup7\n        /* \"#utility.yul\":7351:7367   */\n      add\n        /* \"#utility.yul\":7316:7381   */\n      tag_178\n      jump\t// in\n    tag_303:\n        /* \"#utility.yul\":7406:7435   */\n      tag_304\n        /* \"#utility.yul\":7428:7434   */\n      dup2\n        /* \"#utility.yul\":7406:7435   */\n      tag_166\n      jump\t// in\n    tag_304:\n        /* \"#utility.yul\":7401:7404   */\n      dup5\n        /* \"#utility.yul\":7397:7436   */\n      add\n        /* \"#utility.yul\":7390:7436   */\n      swap2\n      pop\n        /* \"#utility.yul\":7157:7442   */\n      pop\n        /* \"#utility.yul\":7065:7442   */\n      swap3\n      swap2\n      pop\n      pop\n      jump\t// out\n        /* \"#utility.yul\":7448:7761   */\n    tag_47:\n        /* \"#utility.yul\":7561:7565   */\n      0x00\n        /* \"#utility.yul\":7599:7601   */\n      0x20\n        /* \"#utility.yul\":7588:7597   */\n      dup3\n        /* \"#utility.yul\":7584:7602   */\n      add\n        /* \"#utility.yul\":7576:7602   */\n      swap1\n      pop\n        /* \"#utility.yul\":7648:7657   */\n      dup2\n        /* \"#utility.yul\":7642:7646   */\n      dup2\n        /* \"#utility.yul\":7638:7658   */\n      sub\n        /* \"#utility.yul\":7634:7635   */\n      0x00\n        /* \"#utility.yul\":7623:7632   */\n      dup4\n        /* \"#utility.yul\":7619:7636   */\n      add\n        /* \"#utility.yul\":7612:7659   */\n      mstore\n        /* \"#utility.yul\":7676:7754   */\n      tag_306\n        /* \"#utility.yul\":7749:7753   */\n      dup2\n        /* \"#utility.yul\":7740:7746   */\n      dup5\n        /* \"#utility.yul\":7676:7754   */\n      tag_179\n      jump\t// in\n    tag_306:\n        /* \"#utility.yul\":7668:7754   */\n      swap1\n      pop\n        /* \"#utility.yul\":7448:7761   */\n      swap3\n      swap2\n      pop\n      pop\n      jump\t// out\n        /* \"#utility.yul\":7767:7910   */\n    tag_180:\n        /* \"#utility.yul\":7863:7869   */\n      0x00\n        /* \"#utility.yul\":7897:7902   */\n      dup2\n        /* \"#utility.yul\":7891:7903   */\n      mload\n        /* \"#utility.yul\":7881:7903   */\n      swap1\n      pop\n        /* \"#utility.yul\":7767:7910   */\n      swap2\n      swap1\n      pop\n      jump\t// out\n        /* \"#utility.yul\":7916:8129   */\n    tag_181:\n        /* \"#utility.yul\":8044:8055   */\n      0x00\n        /* \"#utility.yul\":8078:8084   */\n      dup3\n        /* \"#utility.yul\":8073:8076   */\n      dup3\n        /* \"#utility.yul\":8066:8085   */\n      mstore\n        /* \"#utility.yul\":8118:8122   */\n      0x20\n        /* \"#utility.yul\":8113:8116   */\n      dup3\n        /* \"#utility.yul\":8109:8123   */\n      add\n        /* \"#utility.yul\":8094:8123   */\n      swap1\n      pop\n        /* \"#utility.yul\":7916:8129   */\n      swap3\n      swap2\n      pop\n      pop\n      jump\t// out\n        /* \"#utility.yul\":8135:8296   */\n    tag_182:\n        /* \"#utility.yul\":8231:8235   */\n      0x00\n        /* \"#utility.yul\":8254:8257   */\n      dup2\n        /* \"#utility.yul\":8246:8257   */\n      swap1\n      pop\n        /* \"#utility.yul\":8284:8288   */\n      0x20\n        /* \"#utility.yul\":8279:8282   */\n      dup3\n        /* \"#utility.yul\":8275:8289   */\n      add\n        /* \"#utility.yul\":8267:8289   */\n      swap1\n      pop\n        /* \"#utility.yul\":8135:8296   */\n      swap2\n      swap1\n      pop\n      jump\t// out\n        /* \"#utility.yul\":8302:8410   */\n    tag_183:\n        /* \"#utility.yul\":8379:8403   */\n      tag_311\n        /* \"#utility.yul\":8397:8402   */\n      dup2\n        /* \"#utility.yul\":8379:8403   */\n      tag_159\n      jump\t// in\n    tag_311:\n        /* \"#utility.yul\":8374:8377   */\n      dup3\n        /* \"#utility.yul\":8367:8404   */\n      mstore\n        /* \"#utility.yul\":8302:8410   */\n      pop\n      pop\n      jump\t// out\n        /* \"#utility.yul\":8416:8524   */\n    tag_184:\n        /* \"#utility.yul\":8493:8517   */\n      tag_313\n        /* \"#utility.yul\":8511:8516   */\n      dup2\n        /* \"#utility.yul\":8493:8517   */\n      tag_155\n      jump\t// in\n    tag_313:\n        /* \"#utility.yul\":8488:8491   */\n      dup3\n        /* \"#utility.yul\":8481:8518   */\n      mstore\n        /* \"#utility.yul\":8416:8524   */\n      pop\n      pop\n      jump\t// out\n        /* \"#utility.yul\":8604:9478   */\n    tag_185:\n        /* \"#utility.yul\":8749:8753   */\n      0x80\n        /* \"#utility.yul\":8744:8747   */\n      dup3\n        /* \"#utility.yul\":8740:8754   */\n      add\n        /* \"#utility.yul\":8844:8848   */\n      0x00\n        /* \"#utility.yul\":8837:8842   */\n      dup3\n        /* \"#utility.yul\":8833:8849   */\n      add\n        /* \"#utility.yul\":8827:8850   */\n      mload\n        /* \"#utility.yul\":8863:8926   */\n      tag_315\n        /* \"#utility.yul\":8920:8924   */\n      0x00\n        /* \"#utility.yul\":8915:8918   */\n      dup6\n        /* \"#utility.yul\":8911:8925   */\n      add\n        /* \"#utility.yul\":8897:8909   */\n      dup3\n        /* \"#utility.yul\":8863:8926   */\n      tag_183\n      jump\t// in\n    tag_315:\n        /* \"#utility.yul\":8764:8936   */\n      pop\n        /* \"#utility.yul\":9024:9028   */\n      0x20\n        /* \"#utility.yul\":9017:9022   */\n      dup3\n        /* \"#utility.yul\":9013:9029   */\n      add\n        /* \"#utility.yul\":9007:9030   */\n      mload\n        /* \"#utility.yul\":9043:9106   */\n      tag_316\n        /* \"#utility.yul\":9100:9104   */\n      0x20\n        /* \"#utility.yul\":9095:9098   */\n      dup6\n        /* \"#utility.yul\":9091:9105   */\n      add\n        /* \"#utility.yul\":9077:9089   */\n      dup3\n        /* \"#utility.yul\":9043:9106   */\n      tag_183\n      jump\t// in\n    tag_316:\n        /* \"#utility.yul\":8946:9116   */\n      pop\n        /* \"#utility.yul\":9200:9204   */\n      0x40\n        /* \"#utility.yul\":9193:9198   */\n      dup3\n        /* \"#utility.yul\":9189:9205   */\n      add\n        /* \"#utility.yul\":9183:9206   */\n      mload\n        /* \"#utility.yul\":9219:9282   */\n      tag_317\n        /* \"#utility.yul\":9276:9280   */\n      0x40\n        /* \"#utility.yul\":9271:9274   */\n      dup6\n        /* \"#utility.yul\":9267:9281   */\n      add\n        /* \"#utility.yul\":9253:9265   */\n      dup3\n        /* \"#utility.yul\":9219:9282   */\n      tag_184\n      jump\t// in\n    tag_317:\n        /* \"#utility.yul\":9126:9292   */\n      pop\n        /* \"#utility.yul\":9379:9383   */\n      0x60\n        /* \"#utility.yul\":9372:9377   */\n      dup3\n        /* \"#utility.yul\":9368:9384   */\n      add\n        /* \"#utility.yul\":9362:9385   */\n      mload\n        /* \"#utility.yul\":9398:9461   */\n      tag_318\n        /* \"#utility.yul\":9455:9459   */\n      0x60\n        /* \"#utility.yul\":9450:9453   */\n      dup6\n        /* \"#utility.yul\":9446:9460   */\n      add\n        /* \"#utility.yul\":9432:9444   */\n      dup3\n        /* \"#utility.yul\":9398:9461   */\n      tag_184\n      jump\t// in\n    tag_318:\n        /* \"#utility.yul\":9302:9471   */\n      pop\n        /* \"#utility.yul\":8718:9478   */\n      pop\n        /* \"#utility.yul\":8604:9478   */\n      pop\n      pop\n      jump\t// out\n        /* \"#utility.yul\":9484:9779   */\n    tag_186:\n        /* \"#utility.yul\":9611:9621   */\n      0x00\n        /* \"#utility.yul\":9632:9736   */\n      tag_320\n        /* \"#utility.yul\":9732:9735   */\n      dup4\n        /* \"#utility.yul\":9724:9730   */\n      dup4\n        /* \"#utility.yul\":9632:9736   */\n      tag_185\n      jump\t// in\n    tag_320:\n        /* \"#utility.yul\":9768:9772   */\n      0x80\n        /* \"#utility.yul\":9763:9766   */\n      dup4\n        /* \"#utility.yul\":9759:9773   */\n      add\n        /* \"#utility.yul\":9745:9773   */\n      swap1\n      pop\n        /* \"#utility.yul\":9484:9779   */\n      swap3\n      swap2\n      pop\n      pop\n      jump\t// out\n        /* \"#utility.yul\":9785:9927   */\n    tag_187:\n        /* \"#utility.yul\":9884:9888   */\n      0x00\n        /* \"#utility.yul\":9916:9920   */\n      0x20\n        /* \"#utility.yul\":9911:9914   */\n      dup3\n        /* \"#utility.yul\":9907:9921   */\n      add\n        /* \"#utility.yul\":9899:9921   */\n      swap1\n      pop\n        /* \"#utility.yul\":9785:9927   */\n      swap2\n      swap1\n      pop\n      jump\t// out\n        /* \"#utility.yul\":10011:10975   */\n    tag_188:\n        /* \"#utility.yul\":10188:10191   */\n      0x00\n        /* \"#utility.yul\":10217:10300   */\n      tag_323\n        /* \"#utility.yul\":10294:10299   */\n      dup3\n        /* \"#utility.yul\":10217:10300   */\n      tag_180\n      jump\t// in\n    tag_323:\n        /* \"#utility.yul\":10316:10431   */\n      tag_324\n        /* \"#utility.yul\":10424:10430   */\n      dup2\n        /* \"#utility.yul\":10419:10422   */\n      dup6\n        /* \"#utility.yul\":10316:10431   */\n      tag_181\n      jump\t// in\n    tag_324:\n        /* \"#utility.yul\":10309:10431   */\n      swap4\n      pop\n        /* \"#utility.yul\":10455:10540   */\n      tag_325\n        /* \"#utility.yul\":10534:10539   */\n      dup4\n        /* \"#utility.yul\":10455:10540   */\n      tag_182\n      jump\t// in\n    tag_325:\n        /* \"#utility.yul\":10563:10570   */\n      dup1\n        /* \"#utility.yul\":10594:10595   */\n      0x00\n        /* \"#utility.yul\":10579:10950   */\n    tag_326:\n        /* \"#utility.yul\":10604:10610   */\n      dup4\n        /* \"#utility.yul\":10601:10602   */\n      dup2\n        /* \"#utility.yul\":10598:10611   */\n      lt\n        /* \"#utility.yul\":10579:10950   */\n      iszero\n      tag_328\n      jumpi\n        /* \"#utility.yul\":10680:10686   */\n      dup2\n        /* \"#utility.yul\":10674:10687   */\n      mload\n        /* \"#utility.yul\":10707:10828   */\n      tag_329\n        /* \"#utility.yul\":10824:10827   */\n      dup9\n        /* \"#utility.yul\":10809:10822   */\n      dup3\n        /* \"#utility.yul\":10707:10828   */\n      tag_186\n      jump\t// in\n    tag_329:\n        /* \"#utility.yul\":10700:10828   */\n      swap8\n      pop\n        /* \"#utility.yul\":10851:10940   */\n      tag_330\n        /* \"#utility.yul\":10933:10939   */\n      dup4\n        /* \"#utility.yul\":10851:10940   */\n      tag_187\n      jump\t// in\n    tag_330:\n        /* \"#utility.yul\":10841:10940   */\n      swap3\n      pop\n        /* \"#utility.yul\":10639:10950   */\n      pop\n        /* \"#utility.yul\":10626:10627   */\n      0x01\n        /* \"#utility.yul\":10623:10624   */\n      dup2\n        /* \"#utility.yul\":10619:10628   */\n      add\n        /* \"#utility.yul\":10614:10628   */\n      swap1\n      pop\n        /* \"#utility.yul\":10579:10950   */\n      jump(tag_326)\n    tag_328:\n        /* \"#utility.yul\":10583:10597   */\n      pop\n        /* \"#utility.yul\":10966:10969   */\n      dup6\n        /* \"#utility.yul\":10959:10969   */\n      swap4\n      pop\n        /* \"#utility.yul\":10193:10975   */\n      pop\n      pop\n      pop\n        /* \"#utility.yul\":10011:10975   */\n      swap3\n      swap2\n      pop\n      pop\n      jump\t// out\n        /* \"#utility.yul\":10981:11470   */\n    tag_61:\n        /* \"#utility.yul\":11182:11186   */\n      0x00\n        /* \"#utility.yul\":11220:11222   */\n      0x20\n        /* \"#utility.yul\":11209:11218   */\n      dup3\n        /* \"#utility.yul\":11205:11223   */\n      add\n        /* \"#utility.yul\":11197:11223   */\n      swap1\n      pop\n        /* \"#utility.yul\":11269:11278   */\n      dup2\n        /* \"#utility.yul\":11263:11267   */\n      dup2\n        /* \"#utility.yul\":11259:11279   */\n      sub\n        /* \"#utility.yul\":11255:11256   */\n      0x00\n        /* \"#utility.yul\":11244:11253   */\n      dup4\n        /* \"#utility.yul\":11240:11257   */\n      add\n        /* \"#utility.yul\":11233:11280   */\n      mstore\n        /* \"#utility.yul\":11297:11463   */\n      tag_332\n        /* \"#utility.yul\":11458:11462   */\n      dup2\n        /* \"#utility.yul\":11449:11455   */\n      dup5\n        /* \"#utility.yul\":11297:11463   */\n      tag_188\n      jump\t// in\n    tag_332:\n        /* \"#utility.yul\":11289:11463   */\n      swap1\n      pop\n        /* \"#utility.yul\":10981:11470   */\n      swap3\n      swap2\n      pop\n      pop\n      jump\t// out\n        /* \"#utility.yul\":11476:11654   */\n    tag_189:\n        /* \"#utility.yul\":11616:11646   */\n      0x2054686973206164647265737320646f65736e27742065786973747300000000\n        /* \"#utility.yul\":11612:11613   */\n      0x00\n        /* \"#utility.yul\":11604:11610   */\n      dup3\n        /* \"#utility.yul\":11600:11614   */\n      add\n        /* \"#utility.yul\":11593:11647   */\n      mstore\n        /* \"#utility.yul\":11476:11654   */\n      pop\n      jump\t// out\n        /* \"#utility.yul\":11660:12026   */\n    tag_190:\n        /* \"#utility.yul\":11802:11805   */\n      0x00\n        /* \"#utility.yul\":11823:11890   */\n      tag_335\n        /* \"#utility.yul\":11887:11889   */\n      0x1c\n        /* \"#utility.yul\":11882:11885   */\n      dup4\n        /* \"#utility.yul\":11823:11890   */\n      tag_177\n      jump\t// in\n    tag_335:\n        /* \"#utility.yul\":11816:11890   */\n      swap2\n      pop\n        /* \"#utility.yul\":11899:11992   */\n      tag_336\n        /* \"#utility.yul\":11988:11991   */\n      dup3\n        /* \"#utility.yul\":11899:11992   */\n      tag_189\n      jump\t// in\n    tag_336:\n        /* \"#utility.yul\":12017:12019   */\n      0x20\n        /* \"#utility.yul\":12012:12015   */\n      dup3\n        /* \"#utility.yul\":12008:12020   */\n      add\n        /* \"#utility.yul\":12001:12020   */\n      swap1\n      pop\n        /* \"#utility.yul\":11660:12026   */\n      swap2\n      swap1\n      pop\n      jump\t// out\n        /* \"#utility.yul\":12032:12451   */\n    tag_84:\n        /* \"#utility.yul\":12198:12202   */\n      0x00\n        /* \"#utility.yul\":12236:12238   */\n      0x20\n        /* \"#utility.yul\":12225:12234   */\n      dup3\n        /* \"#utility.yul\":12221:12239   */\n      add\n        /* \"#utility.yul\":12213:12239   */\n      swap1\n      pop\n        /* \"#utility.yul\":12285:12294   */\n      dup2\n        /* \"#utility.yul\":12279:12283   */\n      dup2\n        /* \"#utility.yul\":12275:12295   */\n      sub\n        /* \"#utility.yul\":12271:12272   */\n      0x00\n        /* \"#utility.yul\":12260:12269   */\n      dup4\n        /* \"#utility.yul\":12256:12273   */\n      add\n        /* \"#utility.yul\":12249:12296   */\n      mstore\n        /* \"#utility.yul\":12313:12444   */\n      tag_338\n        /* \"#utility.yul\":12439:12443   */\n      dup2\n        /* \"#utility.yul\":12313:12444   */\n      tag_190\n      jump\t// in\n    tag_338:\n        /* \"#utility.yul\":12305:12444   */\n      swap1\n      pop\n        /* \"#utility.yul\":12032:12451   */\n      swap2\n      swap1\n      pop\n      jump\t// out\n        /* \"#utility.yul\":12457:12630   */\n    tag_191:\n        /* \"#utility.yul\":12597:12622   */\n      0x506c6561736520696e7365727420796f75722063617264000000000000000000\n        /* \"#utility.yul\":12593:12594   */\n      0x00\n        /* \"#utility.yul\":12585:12591   */\n      dup3\n        /* \"#utility.yul\":12581:12595   */\n      add\n        /* \"#utility.yul\":12574:12623   */\n      mstore\n        /* \"#utility.yul\":12457:12630   */\n      pop\n      jump\t// out\n        /* \"#utility.yul\":12636:13002   */\n    tag_192:\n        /* \"#utility.yul\":12778:12781   */\n      0x00\n        /* \"#utility.yul\":12799:12866   */\n      tag_341\n        /* \"#utility.yul\":12863:12865   */\n      0x17\n        /* \"#utility.yul\":12858:12861   */\n      dup4\n        /* \"#utility.yul\":12799:12866   */\n      tag_177\n      jump\t// in\n    tag_341:\n        /* \"#utility.yul\":12792:12866   */\n      swap2\n      pop\n        /* \"#utility.yul\":12875:12968   */\n      tag_342\n        /* \"#utility.yul\":12964:12967   */\n      dup3\n        /* \"#utility.yul\":12875:12968   */\n      tag_191\n      jump\t// in\n    tag_342:\n        /* \"#utility.yul\":12993:12995   */\n      0x20\n        /* \"#utility.yul\":12988:12991   */\n      dup3\n        /* \"#utility.yul\":12984:12996   */\n      add\n        /* \"#utility.yul\":12977:12996   */\n      swap1\n      pop\n        /* \"#utility.yul\":12636:13002   */\n      swap2\n      swap1\n      pop\n      jump\t// out\n        /* \"#utility.yul\":13008:13427   */\n    tag_88:\n        /* \"#utility.yul\":13174:13178   */\n      0x00\n        /* \"#utility.yul\":13212:13214   */\n      0x20\n        /* \"#utility.yul\":13201:13210   */\n      dup3\n        /* \"#utility.yul\":13197:13215   */\n      add\n        /* \"#utility.yul\":13189:13215   */\n      swap1\n      pop\n        /* \"#utility.yul\":13261:13270   */\n      dup2\n        /* \"#utility.yul\":13255:13259   */\n      dup2\n        /* \"#utility.yul\":13251:13271   */\n      sub\n        /* \"#utility.yul\":13247:13248   */\n      0x00\n        /* \"#utility.yul\":13236:13245   */\n      dup4\n        /* \"#utility.yul\":13232:13249   */\n      add\n        /* \"#utility.yul\":13225:13272   */\n      mstore\n        /* \"#utility.yul\":13289:13420   */\n      tag_344\n        /* \"#utility.yul\":13415:13419   */\n      dup2\n        /* \"#utility.yul\":13289:13420   */\n      tag_192\n      jump\t// in\n    tag_344:\n        /* \"#utility.yul\":13281:13420   */\n      swap1\n      pop\n        /* \"#utility.yul\":13008:13427   */\n      swap2\n      swap1\n      pop\n      jump\t// out\n        /* \"#utility.yul\":13433:13613   */\n    tag_193:\n        /* \"#utility.yul\":13481:13558   */\n      0x4e487b7100000000000000000000000000000000000000000000000000000000\n        /* \"#utility.yul\":13478:13479   */\n      0x00\n        /* \"#utility.yul\":13471:13559   */\n      mstore\n        /* \"#utility.yul\":13578:13582   */\n      0x11\n        /* \"#utility.yul\":13575:13576   */\n      0x04\n        /* \"#utility.yul\":13568:13583   */\n      mstore\n        /* \"#utility.yul\":13602:13606   */\n      0x24\n        /* \"#utility.yul\":13599:13600   */\n      0x00\n        /* \"#utility.yul\":13592:13607   */\n      revert\n        /* \"#utility.yul\":13619:13810   */\n    tag_92:\n        /* \"#utility.yul\":13659:13662   */\n      0x00\n        /* \"#utility.yul\":13678:13698   */\n      tag_347\n        /* \"#utility.yul\":13696:13697   */\n      dup3\n        /* \"#utility.yul\":13678:13698   */\n      tag_155\n      jump\t// in\n    tag_347:\n        /* \"#utility.yul\":13673:13698   */\n      swap2\n      pop\n        /* \"#utility.yul\":13712:13732   */\n      tag_348\n        /* \"#utility.yul\":13730:13731   */\n      dup4\n        /* \"#utility.yul\":13712:13732   */\n      tag_155\n      jump\t// in\n    tag_348:\n        /* \"#utility.yul\":13707:13732   */\n      swap3\n      pop\n        /* \"#utility.yul\":13755:13756   */\n      dup3\n        /* \"#utility.yul\":13752:13753   */\n      dup3\n        /* \"#utility.yul\":13748:13757   */\n      add\n        /* \"#utility.yul\":13741:13757   */\n      swap1\n      pop\n        /* \"#utility.yul\":13776:13779   */\n      dup1\n        /* \"#utility.yul\":13773:13774   */\n      dup3\n        /* \"#utility.yul\":13770:13780   */\n      gt\n        /* \"#utility.yul\":13767:13803   */\n      iszero\n      tag_349\n      jumpi\n        /* \"#utility.yul\":13783:13801   */\n      tag_350\n      tag_193\n      jump\t// in\n    tag_350:\n        /* \"#utility.yul\":13767:13803   */\n    tag_349:\n        /* \"#utility.yul\":13619:13810   */\n      swap3\n      swap2\n      pop\n      pop\n      jump\t// out\n        /* \"#utility.yul\":13816:13996   */\n    tag_96:\n        /* \"#utility.yul\":13864:13941   */\n      0x4e487b7100000000000000000000000000000000000000000000000000000000\n        /* \"#utility.yul\":13861:13862   */\n      0x00\n        /* \"#utility.yul\":13854:13942   */\n      mstore\n        /* \"#utility.yul\":13961:13965   */\n      0x01\n        /* \"#utility.yul\":13958:13959   */\n      0x04\n        /* \"#utility.yul\":13951:13966   */\n      mstore\n        /* \"#utility.yul\":13985:13989   */\n      0x24\n        /* \"#utility.yul\":13982:13983   */\n      0x00\n        /* \"#utility.yul\":13975:13990   */\n      revert\n        /* \"#utility.yul\":14002:14179   */\n    tag_194:\n        /* \"#utility.yul\":14142:14171   */\n      0x6f6e6c792035207472616e73616374696f6e7320706572206461790000000000\n        /* \"#utility.yul\":14138:14139   */\n      0x00\n        /* \"#utility.yul\":14130:14136   */\n      dup3\n        /* \"#utility.yul\":14126:14140   */\n      add\n        /* \"#utility.yul\":14119:14172   */\n      mstore\n        /* \"#utility.yul\":14002:14179   */\n      pop\n      jump\t// out\n        /* \"#utility.yul\":14185:14551   */\n    tag_195:\n        /* \"#utility.yul\":14327:14330   */\n      0x00\n        /* \"#utility.yul\":14348:14415   */\n      tag_354\n        /* \"#utility.yul\":14412:14414   */\n      0x1b\n        /* \"#utility.yul\":14407:14410   */\n      dup4\n        /* \"#utility.yul\":14348:14415   */\n      tag_177\n      jump\t// in\n    tag_354:\n        /* \"#utility.yul\":14341:14415   */\n      swap2\n      pop\n        /* \"#utility.yul\":14424:14517   */\n      tag_355\n        /* \"#utility.yul\":14513:14516   */\n      dup3\n        /* \"#utility.yul\":14424:14517   */\n      tag_194\n      jump\t// in\n    tag_355:\n        /* \"#utility.yul\":14542:14544   */\n      0x20\n        /* \"#utility.yul\":14537:14540   */\n      dup3\n        /* \"#utility.yul\":14533:14545   */\n      add\n        /* \"#utility.yul\":14526:14545   */\n      swap1\n      pop\n        /* \"#utility.yul\":14185:14551   */\n      swap2\n      swap1\n      pop\n      jump\t// out\n        /* \"#utility.yul\":14557:14976   */\n    tag_98:\n        /* \"#utility.yul\":14723:14727   */\n      0x00\n        /* \"#utility.yul\":14761:14763   */\n      0x20\n        /* \"#utility.yul\":14750:14759   */\n      dup3\n        /* \"#utility.yul\":14746:14764   */\n      add\n        /* \"#utility.yul\":14738:14764   */\n      swap1\n      pop\n        /* \"#utility.yul\":14810:14819   */\n      dup2\n        /* \"#utility.yul\":14804:14808   */\n      dup2\n        /* \"#utility.yul\":14800:14820   */\n      sub\n        /* \"#utility.yul\":14796:14797   */\n      0x00\n        /* \"#utility.yul\":14785:14794   */\n      dup4\n        /* \"#utility.yul\":14781:14798   */\n      add\n        /* \"#utility.yul\":14774:14821   */\n      mstore\n        /* \"#utility.yul\":14838:14969   */\n      tag_357\n        /* \"#utility.yul\":14964:14968   */\n      dup2\n        /* \"#utility.yul\":14838:14969   */\n      tag_195\n      jump\t// in\n    tag_357:\n        /* \"#utility.yul\":14830:14969   */\n      swap1\n      pop\n        /* \"#utility.yul\":14557:14976   */\n      swap2\n      swap1\n      pop\n      jump\t// out\n        /* \"#utility.yul\":14982:15176   */\n    tag_109:\n        /* \"#utility.yul\":15022:15026   */\n      0x00\n        /* \"#utility.yul\":15042:15062   */\n      tag_359\n        /* \"#utility.yul\":15060:15061   */\n      dup3\n        /* \"#utility.yul\":15042:15062   */\n      tag_155\n      jump\t// in\n    tag_359:\n        /* \"#utility.yul\":15037:15062   */\n      swap2\n      pop\n        /* \"#utility.yul\":15076:15096   */\n      tag_360\n        /* \"#utility.yul\":15094:15095   */\n      dup4\n        /* \"#utility.yul\":15076:15096   */\n      tag_155\n      jump\t// in\n    tag_360:\n        /* \"#utility.yul\":15071:15096   */\n      swap3\n      pop\n        /* \"#utility.yul\":15120:15121   */\n      dup3\n        /* \"#utility.yul\":15117:15118   */\n      dup3\n        /* \"#utility.yul\":15113:15122   */\n      sub\n        /* \"#utility.yul\":15105:15122   */\n      swap1\n      pop\n        /* \"#utility.yul\":15144:15145   */\n      dup2\n        /* \"#utility.yul\":15138:15142   */\n      dup2\n        /* \"#utility.yul\":15135:15146   */\n      gt\n        /* \"#utility.yul\":15132:15169   */\n      iszero\n      tag_361\n      jumpi\n        /* \"#utility.yul\":15149:15167   */\n      tag_362\n      tag_193\n      jump\t// in\n    tag_362:\n        /* \"#utility.yul\":15132:15169   */\n    tag_361:\n        /* \"#utility.yul\":14982:15176   */\n      swap3\n      swap2\n      pop\n      pop\n      jump\t// out\n        /* \"#utility.yul\":15182:15362   */\n    tag_196:\n        /* \"#utility.yul\":15230:15307   */\n      0x4e487b7100000000000000000000000000000000000000000000000000000000\n        /* \"#utility.yul\":15227:15228   */\n      0x00\n        /* \"#utility.yul\":15220:15308   */\n      mstore\n        /* \"#utility.yul\":15327:15331   */\n      0x22\n        /* \"#utility.yul\":15324:15325   */\n      0x04\n        /* \"#utility.yul\":15317:15332   */\n      mstore\n        /* \"#utility.yul\":15351:15355   */\n      0x24\n        /* \"#utility.yul\":15348:15349   */\n      0x00\n        /* \"#utility.yul\":15341:15356   */\n      revert\n        /* \"#utility.yul\":15368:15688   */\n    tag_123:\n        /* \"#utility.yul\":15412:15418   */\n      0x00\n        /* \"#utility.yul\":15449:15450   */\n      0x02\n        /* \"#utility.yul\":15443:15447   */\n      dup3\n        /* \"#utility.yul\":15439:15451   */\n      div\n        /* \"#utility.yul\":15429:15451   */\n      swap1\n      pop\n        /* \"#utility.yul\":15496:15497   */\n      0x01\n        /* \"#utility.yul\":15490:15494   */\n      dup3\n        /* \"#utility.yul\":15486:15498   */\n      and\n        /* \"#utility.yul\":15517:15535   */\n      dup1\n        /* \"#utility.yul\":15507:15588   */\n      tag_365\n      jumpi\n        /* \"#utility.yul\":15573:15577   */\n      0x7f\n        /* \"#utility.yul\":15565:15571   */\n      dup3\n        /* \"#utility.yul\":15561:15578   */\n      and\n        /* \"#utility.yul\":15551:15578   */\n      swap2\n      pop\n        /* \"#utility.yul\":15507:15588   */\n    tag_365:\n        /* \"#utility.yul\":15635:15637   */\n      0x20\n        /* \"#utility.yul\":15627:15633   */\n      dup3\n        /* \"#utility.yul\":15624:15638   */\n      lt\n        /* \"#utility.yul\":15604:15622   */\n      dup2\n        /* \"#utility.yul\":15601:15639   */\n      sub\n        /* \"#utility.yul\":15598:15682   */\n      tag_366\n      jumpi\n        /* \"#utility.yul\":15654:15672   */\n      tag_367\n      tag_196\n      jump\t// in\n    tag_367:\n        /* \"#utility.yul\":15598:15682   */\n    tag_366:\n        /* \"#utility.yul\":15419:15688   */\n      pop\n        /* \"#utility.yul\":15368:15688   */\n      swap2\n      swap1\n      pop\n      jump\t// out\n        /* \"#utility.yul\":15694:15835   */\n    tag_197:\n        /* \"#utility.yul\":15743:15747   */\n      0x00\n        /* \"#utility.yul\":15766:15769   */\n      dup2\n        /* \"#utility.yul\":15758:15769   */\n      swap1\n      pop\n        /* \"#utility.yul\":15789:15792   */\n      dup2\n        /* \"#utility.yul\":15786:15787   */\n      0x00\n        /* \"#utility.yul\":15779:15793   */\n      mstore\n        /* \"#utility.yul\":15823:15827   */\n      0x20\n        /* \"#utility.yul\":15820:15821   */\n      0x00\n        /* \"#utility.yul\":15810:15828   */\n      keccak256\n        /* \"#utility.yul\":15802:15828   */\n      swap1\n      pop\n        /* \"#utility.yul\":15694:15835   */\n      swap2\n      swap1\n      pop\n      jump\t// out\n        /* \"#utility.yul\":15841:15934   */\n    tag_198:\n        /* \"#utility.yul\":15878:15884   */\n      0x00\n        /* \"#utility.yul\":15925:15927   */\n      0x20\n        /* \"#utility.yul\":15920:15922   */\n      0x1f\n        /* \"#utility.yul\":15913:15918   */\n      dup4\n        /* \"#utility.yul\":15909:15923   */\n      add\n        /* \"#utility.yul\":15905:15928   */\n      div\n        /* \"#utility.yul\":15895:15928   */\n      swap1\n      pop\n        /* \"#utility.yul\":15841:15934   */\n      swap2\n      swap1\n      pop\n      jump\t// out\n        /* \"#utility.yul\":15940:16047   */\n    tag_199:\n        /* \"#utility.yul\":15984:15992   */\n      0x00\n        /* \"#utility.yul\":16034:16039   */\n      dup3\n        /* \"#utility.yul\":16028:16032   */\n      dup3\n        /* \"#utility.yul\":16024:16040   */\n      shl\n        /* \"#utility.yul\":16003:16040   */\n      swap1\n      pop\n        /* \"#utility.yul\":15940:16047   */\n      swap3\n      swap2\n      pop\n      pop\n      jump\t// out\n        /* \"#utility.yul\":16053:16446   */\n    tag_200:\n        /* \"#utility.yul\":16122:16128   */\n      0x00\n        /* \"#utility.yul\":16172:16173   */\n      0x08\n        /* \"#utility.yul\":16160:16170   */\n      dup4\n        /* \"#utility.yul\":16156:16174   */\n      mul\n        /* \"#utility.yul\":16195:16292   */\n      tag_372\n        /* \"#utility.yul\":16225:16291   */\n      0xffffffffffffffffffffffffffffffffffffffffffffffffffffffffffffffff\n        /* \"#utility.yul\":16214:16223   */\n      dup3\n        /* \"#utility.yul\":16195:16292   */\n      tag_199\n      jump\t// in\n    tag_372:\n        /* \"#utility.yul\":16313:16352   */\n      tag_373\n        /* \"#utility.yul\":16343:16351   */\n      dup7\n        /* \"#utility.yul\":16332:16341   */\n      dup4\n        /* \"#utility.yul\":16313:16352   */\n      tag_199\n      jump\t// in\n    tag_373:\n        /* \"#utility.yul\":16301:16352   */\n      swap6\n      pop\n        /* \"#utility.yul\":16385:16389   */\n      dup1\n        /* \"#utility.yul\":16381:16390   */\n      not\n        /* \"#utility.yul\":16374:16379   */\n      dup5\n        /* \"#utility.yul\":16370:16391   */\n      and\n        /* \"#utility.yul\":16361:16391   */\n      swap4\n      pop\n        /* \"#utility.yul\":16434:16438   */\n      dup1\n        /* \"#utility.yul\":16424:16432   */\n      dup7\n        /* \"#utility.yul\":16420:16439   */\n      and\n        /* \"#utility.yul\":16413:16418   */\n      dup5\n        /* \"#utility.yul\":16410:16440   */\n      or\n        /* \"#utility.yul\":16400:16440   */\n      swap3\n      pop\n        /* \"#utility.yul\":16129:16446   */\n      pop\n      pop\n        /* \"#utility.yul\":16053:16446   */\n      swap4\n      swap3\n      pop\n      pop\n      pop\n      jump\t// out\n        /* \"#utility.yul\":16452:16512   */\n    tag_201:\n        /* \"#utility.yul\":16480:16483   */\n      0x00\n        /* \"#utility.yul\":16501:16506   */\n      dup2\n        /* \"#utility.yul\":16494:16506   */\n      swap1\n      pop\n        /* \"#utility.yul\":16452:16512   */\n      swap2\n      swap1\n      pop\n      jump\t// out\n        /* \"#utility.yul\":16518:16660   */\n    tag_202:\n        /* \"#utility.yul\":16568:16577   */\n      0x00\n        /* \"#utility.yul\":16601:16654   */\n      tag_376\n        /* \"#utility.yul\":16619:16653   */\n      tag_377\n        /* \"#utility.yul\":16628:16652   */\n      tag_378\n        /* \"#utility.yul\":16646:16651   */\n      dup5\n        /* \"#utility.yul\":16628:16652   */\n      tag_155\n      jump\t// in\n    tag_378:\n        /* \"#utility.yul\":16619:16653   */\n      tag_201\n      jump\t// in\n    tag_377:\n        /* \"#utility.yul\":16601:16654   */\n      tag_155\n      jump\t// in\n    tag_376:\n        /* \"#utility.yul\":16588:16654   */\n      swap1\n      pop\n        /* \"#utility.yul\":16518:16660   */\n      swap2\n      swap1\n      pop\n      jump\t// out\n        /* \"#utility.yul\":16666:16741   */\n    tag_203:\n        /* \"#utility.yul\":16709:16712   */\n      0x00\n        /* \"#utility.yul\":16730:16735   */\n      dup2\n        /* \"#utility.yul\":16723:16735   */\n      swap1\n      pop\n        /* \"#utility.yul\":16666:16741   */\n      swap2\n      swap1\n      pop\n      jump\t// out\n        /* \"#utility.yul\":16747:17016   */\n    tag_204:\n        /* \"#utility.yul\":16857:16896   */\n      tag_381\n        /* \"#utility.yul\":16888:16895   */\n      dup4\n        /* \"#utility.yul\":16857:16896   */\n      tag_202\n      jump\t// in\n    tag_381:\n        /* \"#utility.yul\":16918:17009   */\n      tag_382\n        /* \"#utility.yul\":16967:17008   */\n      tag_383\n        /* \"#utility.yul\":16991:17007   */\n      dup3\n        /* \"#utility.yul\":16967:17008   */\n      tag_203\n      jump\t// in\n    tag_383:\n        /* \"#utility.yul\":16959:16965   */\n      dup5\n        /* \"#utility.yul\":16952:16956   */\n      dup5\n        /* \"#utility.yul\":16946:16957   */\n      sload\n        /* \"#utility.yul\":16918:17009   */\n      tag_200\n      jump\t// in\n    tag_382:\n        /* \"#utility.yul\":16912:16916   */\n      dup3\n        /* \"#utility.yul\":16905:17010   */\n      sstore\n        /* \"#utility.yul\":16823:17016   */\n      pop\n        /* \"#utility.yul\":16747:17016   */\n      pop\n      pop\n      pop\n      jump\t// out\n        /* \"#utility.yul\":17022:17095   */\n    tag_205:\n        /* \"#utility.yul\":17067:17070   */\n      0x00\n        /* \"#utility.yul\":17022:17095   */\n      swap1\n      jump\t// out\n        /* \"#utility.yul\":17101:17290   */\n    tag_206:\n        /* \"#utility.yul\":17178:17210   */\n      tag_386\n      tag_205\n      jump\t// in\n    tag_386:\n        /* \"#utility.yul\":17219:17284   */\n      tag_387\n        /* \"#utility.yul\":17277:17283   */\n      dup2\n        /* \"#utility.yul\":17269:17275   */\n      dup5\n        /* \"#utility.yul\":17263:17267   */\n      dup5\n        /* \"#utility.yul\":17219:17284   */\n      tag_204\n      jump\t// in\n    tag_387:\n        /* \"#utility.yul\":17154:17290   */\n      pop\n        /* \"#utility.yul\":17101:17290   */\n      pop\n      pop\n      jump\t// out\n        /* \"#utility.yul\":17296:17482   */\n    tag_207:\n        /* \"#utility.yul\":17356:17476   */\n    tag_389:\n        /* \"#utility.yul\":17373:17376   */\n      dup2\n        /* \"#utility.yul\":17366:17371   */\n      dup2\n        /* \"#utility.yul\":17363:17377   */\n      lt\n        /* \"#utility.yul\":17356:17476   */\n      iszero\n      tag_391\n      jumpi\n        /* \"#utility.yul\":17427:17466   */\n      tag_392\n        /* \"#utility.yul\":17464:17465   */\n      0x00\n        /* \"#utility.yul\":17457:17462   */\n      dup3\n        /* \"#utility.yul\":17427:17466   */\n      tag_206\n      jump\t// in\n    tag_392:\n        /* \"#utility.yul\":17400:17401   */\n      0x01\n        /* \"#utility.yul\":17393:17398   */\n      dup2\n        /* \"#utility.yul\":17389:17402   */\n      add\n        /* \"#utility.yul\":17380:17402   */\n      swap1\n      pop\n        /* \"#utility.yul\":17356:17476   */\n      jump(tag_389)\n    tag_391:\n        /* \"#utility.yul\":17296:17482   */\n      pop\n      pop\n      jump\t// out\n        /* \"#utility.yul\":17488:18031   */\n    tag_208:\n        /* \"#utility.yul\":17589:17591   */\n      0x1f\n        /* \"#utility.yul\":17584:17587   */\n      dup3\n        /* \"#utility.yul\":17581:17592   */\n      gt\n        /* \"#utility.yul\":17578:18024   */\n      iszero\n      tag_394\n      jumpi\n        /* \"#utility.yul\":17623:17661   */\n      tag_395\n        /* \"#utility.yul\":17655:17660   */\n      dup2\n        /* \"#utility.yul\":17623:17661   */\n      tag_197\n      jump\t// in\n    tag_395:\n        /* \"#utility.yul\":17707:17736   */\n      tag_396\n        /* \"#utility.yul\":17725:17735   */\n      dup5\n        /* \"#utility.yul\":17707:17736   */\n      tag_198\n      jump\t// in\n    tag_396:\n        /* \"#utility.yul\":17697:17705   */\n      dup2\n        /* \"#utility.yul\":17693:17737   */\n      add\n        /* \"#utility.yul\":17890:17892   */\n      0x20\n        /* \"#utility.yul\":17878:17888   */\n      dup6\n        /* \"#utility.yul\":17875:17893   */\n      lt\n        /* \"#utility.yul\":17872:17921   */\n      iszero\n      tag_397\n      jumpi\n        /* \"#utility.yul\":17911:17919   */\n      dup2\n        /* \"#utility.yul\":17896:17919   */\n      swap1\n      pop\n        /* \"#utility.yul\":17872:17921   */\n    tag_397:\n        /* \"#utility.yul\":17934:18014   */\n      tag_398\n        /* \"#utility.yul\":17990:18012   */\n      tag_399\n        /* \"#utility.yul\":18008:18011   */\n      dup6\n        /* \"#utility.yul\":17990:18012   */\n      tag_198\n      jump\t// in\n    tag_399:\n        /* \"#utility.yul\":17980:17988   */\n      dup4\n        /* \"#utility.yul\":17976:18013   */\n      add\n        /* \"#utility.yul\":17963:17974   */\n      dup3\n        /* \"#utility.yul\":17934:18014   */\n      tag_207\n      jump\t// in\n    tag_398:\n        /* \"#utility.yul\":17593:18024   */\n      pop\n      pop\n        /* \"#utility.yul\":17578:18024   */\n    tag_394:\n        /* \"#utility.yul\":17488:18031   */\n      pop\n      pop\n      pop\n      jump\t// out\n        /* \"#utility.yul\":18037:18154   */\n    tag_209:\n        /* \"#utility.yul\":18091:18099   */\n      0x00\n        /* \"#utility.yul\":18141:18146   */\n      dup3\n        /* \"#utility.yul\":18135:18139   */\n      dup3\n        /* \"#utility.yul\":18131:18147   */\n      shr\n        /* \"#utility.yul\":18110:18147   */\n      swap1\n      pop\n        /* \"#utility.yul\":18037:18154   */\n      swap3\n      swap2\n      pop\n      pop\n      jump\t// out\n        /* \"#utility.yul\":18160:18329   */\n    tag_210:\n        /* \"#utility.yul\":18204:18210   */\n      0x00\n        /* \"#utility.yul\":18237:18288   */\n      tag_402\n        /* \"#utility.yul\":18285:18286   */\n      0x00\n        /* \"#utility.yul\":18281:18287   */\n      not\n        /* \"#utility.yul\":18273:18278   */\n      dup5\n        /* \"#utility.yul\":18270:18271   */\n      0x08\n        /* \"#utility.yul\":18266:18279   */\n      mul\n        /* \"#utility.yul\":18237:18288   */\n      tag_209\n      jump\t// in\n    tag_402:\n        /* \"#utility.yul\":18233:18289   */\n      not\n        /* \"#utility.yul\":18318:18322   */\n      dup1\n        /* \"#utility.yul\":18312:18316   */\n      dup4\n        /* \"#utility.yul\":18308:18323   */\n      and\n        /* \"#utility.yul\":18298:18323   */\n      swap2\n      pop\n        /* \"#utility.yul\":18211:18329   */\n      pop\n        /* \"#utility.yul\":18160:18329   */\n      swap3\n      swap2\n      pop\n      pop\n      jump\t// out\n        /* \"#utility.yul\":18334:18629   */\n    tag_211:\n        /* \"#utility.yul\":18410:18414   */\n      0x00\n        /* \"#utility.yul\":18556:18585   */\n      tag_404\n        /* \"#utility.yul\":18581:18584   */\n      dup4\n        /* \"#utility.yul\":18575:18579   */\n      dup4\n        /* \"#utility.yul\":18556:18585   */\n      tag_210\n      jump\t// in\n    tag_404:\n        /* \"#utility.yul\":18548:18585   */\n      swap2\n      pop\n        /* \"#utility.yul\":18618:18621   */\n      dup3\n        /* \"#utility.yul\":18615:18616   */\n      0x02\n        /* \"#utility.yul\":18611:18622   */\n      mul\n        /* \"#utility.yul\":18605:18609   */\n      dup3\n        /* \"#utility.yul\":18602:18623   */\n      or\n        /* \"#utility.yul\":18594:18623   */\n      swap1\n      pop\n        /* \"#utility.yul\":18334:18629   */\n      swap3\n      swap2\n      pop\n      pop\n      jump\t// out\n        /* \"#utility.yul\":18634:20029   */\n    tag_114:\n        /* \"#utility.yul\":18751:18788   */\n      tag_406\n        /* \"#utility.yul\":18784:18787   */\n      dup3\n        /* \"#utility.yul\":18751:18788   */\n      tag_176\n      jump\t// in\n    tag_406:\n        /* \"#utility.yul\":18853:18871   */\n      0xffffffffffffffff\n        /* \"#utility.yul\":18845:18851   */\n      dup2\n        /* \"#utility.yul\":18842:18872   */\n      gt\n        /* \"#utility.yul\":18839:18895   */\n      iszero\n      tag_407\n      jumpi\n        /* \"#utility.yul\":18875:18893   */\n      tag_408\n      tag_167\n      jump\t// in\n    tag_408:\n        /* \"#utility.yul\":18839:18895   */\n    tag_407:\n        /* \"#utility.yul\":18919:18957   */\n      tag_409\n        /* \"#utility.yul\":18951:18955   */\n      dup3\n        /* \"#utility.yul\":18945:18956   */\n      sload\n        /* \"#utility.yul\":18919:18957   */\n      tag_123\n      jump\t// in\n    tag_409:\n        /* \"#utility.yul\":19004:19071   */\n      tag_410\n        /* \"#utility.yul\":19064:19070   */\n      dup3\n        /* \"#utility.yul\":19056:19062   */\n      dup3\n        /* \"#utility.yul\":19050:19054   */\n      dup6\n        /* \"#utility.yul\":19004:19071   */\n      tag_208\n      jump\t// in\n    tag_410:\n        /* \"#utility.yul\":19098:19099   */\n      0x00\n        /* \"#utility.yul\":19122:19126   */\n      0x20\n        /* \"#utility.yul\":19109:19126   */\n      swap1\n      pop\n        /* \"#utility.yul\":19154:19156   */\n      0x1f\n        /* \"#utility.yul\":19146:19152   */\n      dup4\n        /* \"#utility.yul\":19143:19157   */\n      gt\n        /* \"#utility.yul\":19171:19172   */\n      0x01\n        /* \"#utility.yul\":19166:19784   */\n      dup2\n      eq\n      tag_412\n      jumpi\n        /* \"#utility.yul\":19828:19829   */\n      0x00\n        /* \"#utility.yul\":19845:19851   */\n      dup5\n        /* \"#utility.yul\":19842:19919   */\n      iszero\n      tag_413\n      jumpi\n        /* \"#utility.yul\":19894:19903   */\n      dup3\n        /* \"#utility.yul\":19889:19892   */\n      dup8\n        /* \"#utility.yul\":19885:19904   */\n      add\n        /* \"#utility.yul\":19879:19905   */\n      mload\n        /* \"#utility.yul\":19870:19905   */\n      swap1\n      pop\n        /* \"#utility.yul\":19842:19919   */\n    tag_413:\n        /* \"#utility.yul\":19945:20012   */\n      tag_414\n        /* \"#utility.yul\":20005:20011   */\n      dup6\n        /* \"#utility.yul\":19998:20003   */\n      dup3\n        /* \"#utility.yul\":19945:20012   */\n      tag_211\n      jump\t// in\n    tag_414:\n        /* \"#utility.yul\":19939:19943   */\n      dup7\n        /* \"#utility.yul\":19932:20013   */\n      sstore\n        /* \"#utility.yul\":19801:20023   */\n      pop\n        /* \"#utility.yul\":19136:20023   */\n      jump(tag_411)\n        /* \"#utility.yul\":19166:19784   */\n    tag_412:\n        /* \"#utility.yul\":19218:19222   */\n      0x1f\n        /* \"#utility.yul\":19214:19223   */\n      not\n        /* \"#utility.yul\":19206:19212   */\n      dup5\n        /* \"#utility.yul\":19202:19224   */\n      and\n        /* \"#utility.yul\":19252:19289   */\n      tag_415\n        /* \"#utility.yul\":19284:19288   */\n      dup7\n        /* \"#utility.yul\":19252:19289   */\n      tag_197\n      jump\t// in\n    tag_415:\n        /* \"#utility.yul\":19311:19312   */\n      0x00\n        /* \"#utility.yul\":19325:19533   */\n    tag_416:\n        /* \"#utility.yul\":19339:19346   */\n      dup3\n        /* \"#utility.yul\":19336:19337   */\n      dup2\n        /* \"#utility.yul\":19333:19347   */\n      lt\n        /* \"#utility.yul\":19325:19533   */\n      iszero\n      tag_418\n      jumpi\n        /* \"#utility.yul\":19418:19427   */\n      dup5\n        /* \"#utility.yul\":19413:19416   */\n      dup10\n        /* \"#utility.yul\":19409:19428   */\n      add\n        /* \"#utility.yul\":19403:19429   */\n      mload\n        /* \"#utility.yul\":19395:19401   */\n      dup3\n        /* \"#utility.yul\":19388:19430   */\n      sstore\n        /* \"#utility.yul\":19469:19470   */\n      0x01\n        /* \"#utility.yul\":19461:19467   */\n      dup3\n        /* \"#utility.yul\":19457:19471   */\n      add\n        /* \"#utility.yul\":19447:19471   */\n      swap2\n      pop\n        /* \"#utility.yul\":19516:19518   */\n      0x20\n        /* \"#utility.yul\":19505:19514   */\n      dup6\n        /* \"#utility.yul\":19501:19519   */\n      add\n        /* \"#utility.yul\":19488:19519   */\n      swap5\n      pop\n        /* \"#utility.yul\":19362:19366   */\n      0x20\n        /* \"#utility.yul\":19359:19360   */\n      dup2\n        /* \"#utility.yul\":19355:19367   */\n      add\n        /* \"#utility.yul\":19350:19367   */\n      swap1\n      pop\n        /* \"#utility.yul\":19325:19533   */\n      jump(tag_416)\n    tag_418:\n        /* \"#utility.yul\":19561:19567   */\n      dup7\n        /* \"#utility.yul\":19552:19559   */\n      dup4\n        /* \"#utility.yul\":19549:19568   */\n      lt\n        /* \"#utility.yul\":19546:19725   */\n      iszero\n      tag_419\n      jumpi\n        /* \"#utility.yul\":19619:19628   */\n      dup5\n        /* \"#utility.yul\":19614:19617   */\n      dup10\n        /* \"#utility.yul\":19610:19629   */\n      add\n        /* \"#utility.yul\":19604:19630   */\n      mload\n        /* \"#utility.yul\":19662:19710   */\n      tag_420\n        /* \"#utility.yul\":19704:19708   */\n      0x1f\n        /* \"#utility.yul\":19696:19702   */\n      dup10\n        /* \"#utility.yul\":19692:19709   */\n      and\n        /* \"#utility.yul\":19681:19690   */\n      dup3\n        /* \"#utility.yul\":19662:19710   */\n      tag_210\n      jump\t// in\n    tag_420:\n        /* \"#utility.yul\":19654:19660   */\n      dup4\n        /* \"#utility.yul\":19647:19711   */\n      sstore\n        /* \"#utility.yul\":19569:19725   */\n      pop\n        /* \"#utility.yul\":19546:19725   */\n    tag_419:\n        /* \"#utility.yul\":19771:19772   */\n      0x01\n        /* \"#utility.yul\":19767:19768   */\n      0x02\n        /* \"#utility.yul\":19759:19765   */\n      dup9\n        /* \"#utility.yul\":19755:19769   */\n      mul\n        /* \"#utility.yul\":19751:19773   */\n      add\n        /* \"#utility.yul\":19745:19749   */\n      dup9\n        /* \"#utility.yul\":19738:19774   */\n      sstore\n        /* \"#utility.yul\":19173:19784   */\n      pop\n      pop\n      pop\n        /* \"#utility.yul\":19136:20023   */\n    tag_411:\n      pop\n        /* \"#utility.yul\":18726:20029   */\n      pop\n      pop\n      pop\n        /* \"#utility.yul\":18634:20029   */\n      pop\n      pop\n      jump\t// out\n        /* \"#utility.yul\":20035:20201   */\n    tag_212:\n        /* \"#utility.yul\":20175:20193   */\n      0x4e6f7420656e6f7567682066756e647300000000000000000000000000000000\n        /* \"#utility.yul\":20171:20172   */\n      0x00\n        /* \"#utility.yul\":20163:20169   */\n      dup3\n        /* \"#utility.yul\":20159:20173   */\n      add\n        /* \"#utility.yul\":20152:20194   */\n      mstore\n        /* \"#utility.yul\":20035:20201   */\n      pop\n      jump\t// out\n        /* \"#utility.yul\":20207:20573   */\n    tag_213:\n        /* \"#utility.yul\":20349:20352   */\n      0x00\n        /* \"#utility.yul\":20370:20437   */\n      tag_423\n        /* \"#utility.yul\":20434:20436   */\n      0x10\n        /* \"#utility.yul\":20429:20432   */\n      dup4\n        /* \"#utility.yul\":20370:20437   */\n      tag_177\n      jump\t// in\n    tag_423:\n        /* \"#utility.yul\":20363:20437   */\n      swap2\n      pop\n        /* \"#utility.yul\":20446:20539   */\n      tag_424\n        /* \"#utility.yul\":20535:20538   */\n      dup3\n        /* \"#utility.yul\":20446:20539   */\n      tag_212\n      jump\t// in\n    tag_424:\n        /* \"#utility.yul\":20564:20566   */\n      0x20\n        /* \"#utility.yul\":20559:20562   */\n      dup3\n        /* \"#utility.yul\":20555:20567   */\n      add\n        /* \"#utility.yul\":20548:20567   */\n      swap1\n      pop\n        /* \"#utility.yul\":20207:20573   */\n      swap2\n      swap1\n      pop\n      jump\t// out\n        /* \"#utility.yul\":20579:20998   */\n    tag_117:\n        /* \"#utility.yul\":20745:20749   */\n      0x00\n        /* \"#utility.yul\":20783:20785   */\n      0x20\n        /* \"#utility.yul\":20772:20781   */\n      dup3\n        /* \"#utility.yul\":20768:20786   */\n      add\n        /* \"#utility.yul\":20760:20786   */\n      swap1\n      pop\n        /* \"#utility.yul\":20832:20841   */\n      dup2\n        /* \"#utility.yul\":20826:20830   */\n      dup2\n        /* \"#utility.yul\":20822:20842   */\n      sub\n        /* \"#utility.yul\":20818:20819   */\n      0x00\n        /* \"#utility.yul\":20807:20816   */\n      dup4\n        /* \"#utility.yul\":20803:20820   */\n      add\n        /* \"#utility.yul\":20796:20843   */\n      mstore\n        /* \"#utility.yul\":20860:20991   */\n      tag_426\n        /* \"#utility.yul\":20986:20990   */\n      dup2\n        /* \"#utility.yul\":20860:20991   */\n      tag_213\n      jump\t// in\n    tag_426:\n        /* \"#utility.yul\":20852:20991   */\n      swap1\n      pop\n        /* \"#utility.yul\":20579:20998   */\n      swap2\n      swap1\n      pop\n      jump\t// out\n        /* \"#utility.yul\":21004:21174   */\n    tag_214:\n        /* \"#utility.yul\":21144:21166   */\n      0x4e6f2076616c6964206372656469742063617264000000000000000000000000\n        /* \"#utility.yul\":21140:21141   */\n      0x00\n        /* \"#utility.yul\":21132:21138   */\n      dup3\n        /* \"#utility.yul\":21128:21142   */\n      add\n        /* \"#utility.yul\":21121:21167   */\n      mstore\n        /* \"#utility.yul\":21004:21174   */\n      pop\n      jump\t// out\n        /* \"#utility.yul\":21180:21546   */\n    tag_215:\n        /* \"#utility.yul\":21322:21325   */\n      0x00\n        /* \"#utility.yul\":21343:21410   */\n      tag_429\n        /* \"#utility.yul\":21407:21409   */\n      0x14\n        /* \"#utility.yul\":21402:21405   */\n      dup4\n        /* \"#utility.yul\":21343:21410   */\n      tag_177\n      jump\t// in\n    tag_429:\n        /* \"#utility.yul\":21336:21410   */\n      swap2\n      pop\n        /* \"#utility.yul\":21419:21512   */\n      tag_430\n        /* \"#utility.yul\":21508:21511   */\n      dup3\n        /* \"#utility.yul\":21419:21512   */\n      tag_214\n      jump\t// in\n    tag_430:\n        /* \"#utility.yul\":21537:21539   */\n      0x20\n        /* \"#utility.yul\":21532:21535   */\n      dup3\n        /* \"#utility.yul\":21528:21540   */\n      add\n        /* \"#utility.yul\":21521:21540   */\n      swap1\n      pop\n        /* \"#utility.yul\":21180:21546   */\n      swap2\n      swap1\n      pop\n      jump\t// out\n        /* \"#utility.yul\":21552:21971   */\n    tag_128:\n        /* \"#utility.yul\":21718:21722   */\n      0x00\n        /* \"#utility.yul\":21756:21758   */\n      0x20\n        /* \"#utility.yul\":21745:21754   */\n      dup3\n        /* \"#utility.yul\":21741:21759   */\n      add\n        /* \"#utility.yul\":21733:21759   */\n      swap1\n      pop\n        /* \"#utility.yul\":21805:21814   */\n      dup2\n        /* \"#utility.yul\":21799:21803   */\n      dup2\n        /* \"#utility.yul\":21795:21815   */\n      sub\n        /* \"#utility.yul\":21791:21792   */\n      0x00\n        /* \"#utility.yul\":21780:21789   */\n      dup4\n        /* \"#utility.yul\":21776:21793   */\n      add\n        /* \"#utility.yul\":21769:21816   */\n      mstore\n        /* \"#utility.yul\":21833:21964   */\n      tag_432\n        /* \"#utility.yul\":21959:21963   */\n      dup2\n        /* \"#utility.yul\":21833:21964   */\n      tag_215\n      jump\t// in\n    tag_432:\n        /* \"#utility.yul\":21825:21964   */\n      swap1\n      pop\n        /* \"#utility.yul\":21552:21971   */\n      swap2\n      swap1\n      pop\n      jump\t// out\n\n    auxdata: 0xa2646970667358221220388df857d1d23367af21bbac40d01b7e731d105940e54160d1e4db9ec841e80564736f6c63430008100033\n}\n",
				"bytecode": {
					"linkReferences": {},
					"object": "608060405260006002556000600b556000600c60006101000a81548160ff0219169083151502179055503480156200003657600080fd5b50604051620019203803806200192083398181016040528101906200005c9190620000aa565b8060048190555050620000dc565b600080fd5b6000819050919050565b62000084816200006f565b81146200009057600080fd5b50565b600081519050620000a48162000079565b92915050565b600060208284031215620000c357620000c26200006a565b5b6000620000d38482850162000093565b91505092915050565b61183480620000ec6000396000f3fe608060405234801561001057600080fd5b50600436106101005760003560e01c806357bf72e3116100975780638e029c0b116100665780638e029c0b146102935780638fa118641461029d578063aa8c217c146102bb578063e21f37ce146102d957610100565b806357bf72e31461020657806359705f81146102395780637b9a3f4c146102575780637eb9f5711461027557610100565b80633c626f00116100d35780633c626f001461018e57806342fb7936146101ac5780634b28f9a2146101ca578063557ed1ba146101e857610100565b806304ef5b2114610105578063062a7544146101385780630e85fa721461015457806312a029a414610172575b600080fd5b61011f600480360381019061011a9190610d1c565b6102f7565b60405161012f9493929190610d99565b60405180910390f35b610152600480360381019061014d9190610e0a565b610377565b005b61015c6106af565b6040516101699190610e4a565b60405180910390f35b61018c60048036038101906101879190610fab565b6106b5565b005b610196610766565b6040516101a3919061103e565b60405180910390f35b6101b4610779565b6040516101c191906110d8565b60405180910390f35b6101d2610807565b6040516101df9190610e4a565b60405180910390f35b6101f061080d565b6040516101fd9190610e4a565b60405180910390f35b610220600480360381019061021b9190610d1c565b610815565b6040516102309493929190610d99565b60405180910390f35b610241610885565b60405161024e919061121c565b60405180910390f35b61025f6109a4565b60405161026c9190610e4a565b60405180910390f35b61027d6109aa565b60405161028a9190610e4a565b60405180910390f35b61029b6109b0565b005b6102a56109cd565b6040516102b291906110d8565b60405180910390f35b6102c3610a5b565b6040516102d09190610e4a565b60405180910390f35b6102e1610a61565b6040516102ee91906110d8565b60405180910390f35b6000818154811061030757600080fd5b90600052602060002090600402016000915090508060000160009054906101000a900473ffffffffffffffffffffffffffffffffffffffff16908060010160009054906101000a900473ffffffffffffffffffffffffffffffffffffffff16908060020154908060030154905084565b8080600560006101000a81548173ffffffffffffffffffffffffffffffffffffffff021916908373ffffffffffffffffffffffffffffffffffffffff160217905550600073ffffffffffffffffffffffffffffffffffffffff168173ffffffffffffffffffffffffffffffffffffffff1603610428576040517f08c379a000000000000000000000000000000000000000000000000000000000815260040161041f9061128a565b60405180910390fd5b60001515600c60009054906101000a900460ff1615150361047e576040517f08c379a0000000000000000000000000000000000000000000000000000000008152600401610475906112f6565b60405180910390fd5b6005600b541015801561049f5750601e600a5461049b9190611345565b4211155b156104fa576000600b819055506000600b54146104bf576104be611379565b5b6040517f08c379a00000000000000000000000000000000000000000000000000000000081526004016104f1906113f4565b60405180910390fd5b6005600b541115801561051b5750601e600a546105179190611345565b4210155b15610543576000600b819055506000600b541461053b5761053a611379565b5b42600a819055505b81600560006101000a81548173ffffffffffffffffffffffffffffffffffffffff021916908373ffffffffffffffffffffffffffffffffffffffff160217905550826003819055506001600b600082825461059e9190611345565b9250508190555060006004541180156105ba5750600354600454115b1561066f57600354600460008282546105d39190611414565b92505081905550600354600960008282546105ee9190611345565b9250508190555061062533600560009054906101000a900473ffffffffffffffffffffffffffffffffffffffff1660035442610aef565b6040518060400160405280601281526020017f5472616e7366657220636f6d706c657465640000000000000000000000000000815250600690816106699190611654565b506106aa565b6040517f08c379a00000000000000000000000000000000000000000000000000000000081526004016106a190611772565b60405180910390fd5b505050565b600a5481565b81600790816106c49190611654565b5080600890816106d49190611654565b506001600c60006101000a81548160ff02191690831515021790555042600a8190555060086007805461070690611477565b9050148015610723575060036008805461071f90611477565b9050145b610762576040517f08c379a0000000000000000000000000000000000000000000000000000000008152600401610759906117de565b60405180910390fd5b5050565b600c60009054906101000a900460ff1681565b6008805461078690611477565b80601f01602080910402602001604051908101604052809291908181526020018280546107b290611477565b80156107ff5780601f106107d4576101008083540402835291602001916107ff565b820191906000526020600020905b8154815290600101906020018083116107e257829003601f168201915b505050505081565b600b5481565b600042905090565b60016020528060005260406000206000915090508060000160009054906101000a900473ffffffffffffffffffffffffffffffffffffffff16908060010160009054906101000a900473ffffffffffffffffffffffffffffffffffffffff16908060020154908060030154905084565b60606000805480602002602001604051908101604052809291908181526020016000905b8282101561099b57838290600052602060002090600402016040518060800160405290816000820160009054906101000a900473ffffffffffffffffffffffffffffffffffffffff1673ffffffffffffffffffffffffffffffffffffffff1673ffffffffffffffffffffffffffffffffffffffff1681526020016001820160009054906101000a900473ffffffffffffffffffffffffffffffffffffffff1673ffffffffffffffffffffffffffffffffffffffff1673ffffffffffffffffffffffffffffffffffffffff16815260200160028201548152602001600382015481525050815260200190600101906108a9565b50505050905090565b60045481565b60095481565b6000600c60006101000a81548160ff021916908315150217905550565b600780546109da90611477565b80601f0160208091040260200160405190810160405280929190818152602001828054610a0690611477565b8015610a535780601f10610a2857610100808354040283529160200191610a53565b820191906000526020600020905b815481529060010190602001808311610a3657829003601f168201915b505050505081565b60035481565b60068054610a6e90611477565b80601f0160208091040260200160405190810160405280929190818152602001828054610a9a90611477565b8015610ae75780601f10610abc57610100808354040283529160200191610ae7565b820191906000526020600020905b815481529060010190602001808311610aca57829003601f168201915b505050505081565b600060405180608001604052808673ffffffffffffffffffffffffffffffffffffffff1681526020018573ffffffffffffffffffffffffffffffffffffffff168152602001848152602001838152509050600081908060018154018082558091505060019003906000526020600020906004020160009091909190915060008201518160000160006101000a81548173ffffffffffffffffffffffffffffffffffffffff021916908373ffffffffffffffffffffffffffffffffffffffff16021790555060208201518160010160006101000a81548173ffffffffffffffffffffffffffffffffffffffff021916908373ffffffffffffffffffffffffffffffffffffffff160217905550604082015181600201556060820151816003015550508060016000600254815260200190815260200160002060008201518160000160006101000a81548173ffffffffffffffffffffffffffffffffffffffff021916908373ffffffffffffffffffffffffffffffffffffffff16021790555060208201518160010160006101000a81548173ffffffffffffffffffffffffffffffffffffffff021916908373ffffffffffffffffffffffffffffffffffffffff16021790555060408201518160020155606082015181600301559050505050505050565b6000604051905090565b600080fd5b600080fd5b6000819050919050565b610cf981610ce6565b8114610d0457600080fd5b50565b600081359050610d1681610cf0565b92915050565b600060208284031215610d3257610d31610cdc565b5b6000610d4084828501610d07565b91505092915050565b600073ffffffffffffffffffffffffffffffffffffffff82169050919050565b6000610d7482610d49565b9050919050565b610d8481610d69565b82525050565b610d9381610ce6565b82525050565b6000608082019050610dae6000830187610d7b565b610dbb6020830186610d7b565b610dc86040830185610d8a565b610dd56060830184610d8a565b95945050505050565b610de781610d69565b8114610df257600080fd5b50565b600081359050610e0481610dde565b92915050565b60008060408385031215610e2157610e20610cdc565b5b6000610e2f85828601610d07565b9250506020610e4085828601610df5565b9150509250929050565b6000602082019050610e5f6000830184610d8a565b92915050565b600080fd5b600080fd5b6000601f19601f8301169050919050565b7f4e487b7100000000000000000000000000000000000000000000000000000000600052604160045260246000fd5b610eb882610e6f565b810181811067ffffffffffffffff82111715610ed757610ed6610e80565b5b80604052505050565b6000610eea610cd2565b9050610ef68282610eaf565b919050565b600067ffffffffffffffff821115610f1657610f15610e80565b5b610f1f82610e6f565b9050602081019050919050565b82818337600083830152505050565b6000610f4e610f4984610efb565b610ee0565b905082815260208101848484011115610f6a57610f69610e6a565b5b610f75848285610f2c565b509392505050565b600082601f830112610f9257610f91610e65565b5b8135610fa2848260208601610f3b565b91505092915050565b60008060408385031215610fc257610fc1610cdc565b5b600083013567ffffffffffffffff811115610fe057610fdf610ce1565b5b610fec85828601610f7d565b925050602083013567ffffffffffffffff81111561100d5761100c610ce1565b5b61101985828601610f7d565b9150509250929050565b60008115159050919050565b61103881611023565b82525050565b6000602082019050611053600083018461102f565b92915050565b600081519050919050565b600082825260208201905092915050565b60005b83811015611093578082015181840152602081019050611078565b60008484015250505050565b60006110aa82611059565b6110b48185611064565b93506110c4818560208601611075565b6110cd81610e6f565b840191505092915050565b600060208201905081810360008301526110f2818461109f565b905092915050565b600081519050919050565b600082825260208201905092915050565b6000819050602082019050919050565b61112f81610d69565b82525050565b61113e81610ce6565b82525050565b60808201600082015161115a6000850182611126565b50602082015161116d6020850182611126565b5060408201516111806040850182611135565b5060608201516111936060850182611135565b50505050565b60006111a58383611144565b60808301905092915050565b6000602082019050919050565b60006111c9826110fa565b6111d38185611105565b93506111de83611116565b8060005b8381101561120f5781516111f68882611199565b9750611201836111b1565b9250506001810190506111e2565b5085935050505092915050565b6000602082019050818103600083015261123681846111be565b905092915050565b7f2054686973206164647265737320646f65736e27742065786973747300000000600082015250565b6000611274601c83611064565b915061127f8261123e565b602082019050919050565b600060208201905081810360008301526112a381611267565b9050919050565b7f506c6561736520696e7365727420796f75722063617264000000000000000000600082015250565b60006112e0601783611064565b91506112eb826112aa565b602082019050919050565b6000602082019050818103600083015261130f816112d3565b9050919050565b7f4e487b7100000000000000000000000000000000000000000000000000000000600052601160045260246000fd5b600061135082610ce6565b915061135b83610ce6565b925082820190508082111561137357611372611316565b5b92915050565b7f4e487b7100000000000000000000000000000000000000000000000000000000600052600160045260246000fd5b7f6f6e6c792035207472616e73616374696f6e7320706572206461790000000000600082015250565b60006113de601b83611064565b91506113e9826113a8565b602082019050919050565b6000602082019050818103600083015261140d816113d1565b9050919050565b600061141f82610ce6565b915061142a83610ce6565b925082820390508181111561144257611441611316565b5b92915050565b7f4e487b7100000000000000000000000000000000000000000000000000000000600052602260045260246000fd5b6000600282049050600182168061148f57607f821691505b6020821081036114a2576114a1611448565b5b50919050565b60008190508160005260206000209050919050565b60006020601f8301049050919050565b600082821b905092915050565b60006008830261150a7fffffffffffffffffffffffffffffffffffffffffffffffffffffffffffffffff826114cd565b61151486836114cd565b95508019841693508086168417925050509392505050565b6000819050919050565b600061155161154c61154784610ce6565b61152c565b610ce6565b9050919050565b6000819050919050565b61156b83611536565b61157f61157782611558565b8484546114da565b825550505050565b600090565b611594611587565b61159f818484611562565b505050565b5b818110156115c3576115b860008261158c565b6001810190506115a5565b5050565b601f821115611608576115d9816114a8565b6115e2846114bd565b810160208510156115f1578190505b6116056115fd856114bd565b8301826115a4565b50505b505050565b600082821c905092915050565b600061162b6000198460080261160d565b1980831691505092915050565b6000611644838361161a565b9150826002028217905092915050565b61165d82611059565b67ffffffffffffffff81111561167657611675610e80565b5b6116808254611477565b61168b8282856115c7565b600060209050601f8311600181146116be57600084156116ac578287015190505b6116b68582611638565b86555061171e565b601f1984166116cc866114a8565b60005b828110156116f4578489015182556001820191506020850194506020810190506116cf565b86831015611711578489015161170d601f89168261161a565b8355505b6001600288020188555050505b505050505050565b7f4e6f7420656e6f7567682066756e647300000000000000000000000000000000600082015250565b600061175c601083611064565b915061176782611726565b602082019050919050565b6000602082019050818103600083015261178b8161174f565b9050919050565b7f4e6f2076616c6964206372656469742063617264000000000000000000000000600082015250565b60006117c8601483611064565b91506117d382611792565b602082019050919050565b600060208201905081810360008301526117f7816117bb565b905091905056fea2646970667358221220388df857d1d23367af21bbac40d01b7e731d105940e54160d1e4db9ec841e80564736f6c63430008100033",
					"opcodes": "PUSH1 0x80 PUSH1 0x40 MSTORE PUSH1 0x0 PUSH1 0x2 SSTORE PUSH1 0x0 PUSH1 0xB SSTORE PUSH1 0x0 PUSH1 0xC PUSH1 0x0 PUSH2 0x100 EXP DUP2 SLOAD DUP2 PUSH1 0xFF MUL NOT AND SWAP1 DUP4 ISZERO ISZERO MUL OR SWAP1 SSTORE POP CALLVALUE DUP1 ISZERO PUSH3 0x36 JUMPI PUSH1 0x0 DUP1 REVERT JUMPDEST POP PUSH1 0x40 MLOAD PUSH3 0x1920 CODESIZE SUB DUP1 PUSH3 0x1920 DUP4 CODECOPY DUP2 DUP2 ADD PUSH1 0x40 MSTORE DUP2 ADD SWAP1 PUSH3 0x5C SWAP2 SWAP1 PUSH3 0xAA JUMP JUMPDEST DUP1 PUSH1 0x4 DUP2 SWAP1 SSTORE POP POP PUSH3 0xDC JUMP JUMPDEST PUSH1 0x0 DUP1 REVERT JUMPDEST PUSH1 0x0 DUP2 SWAP1 POP SWAP2 SWAP1 POP JUMP JUMPDEST PUSH3 0x84 DUP2 PUSH3 0x6F JUMP JUMPDEST DUP2 EQ PUSH3 0x90 JUMPI PUSH1 0x0 DUP1 REVERT JUMPDEST POP JUMP JUMPDEST PUSH1 0x0 DUP2 MLOAD SWAP1 POP PUSH3 0xA4 DUP2 PUSH3 0x79 JUMP JUMPDEST SWAP3 SWAP2 POP POP JUMP JUMPDEST PUSH1 0x0 PUSH1 0x20 DUP3 DUP5 SUB SLT ISZERO PUSH3 0xC3 JUMPI PUSH3 0xC2 PUSH3 0x6A JUMP JUMPDEST JUMPDEST PUSH1 0x0 PUSH3 0xD3 DUP5 DUP3 DUP6 ADD PUSH3 0x93 JUMP JUMPDEST SWAP2 POP POP SWAP3 SWAP2 POP POP JUMP JUMPDEST PUSH2 0x1834 DUP1 PUSH3 0xEC PUSH1 0x0 CODECOPY PUSH1 0x0 RETURN INVALID PUSH1 0x80 PUSH1 0x40 MSTORE CALLVALUE DUP1 ISZERO PUSH2 0x10 JUMPI PUSH1 0x0 DUP1 REVERT JUMPDEST POP PUSH1 0x4 CALLDATASIZE LT PUSH2 0x100 JUMPI PUSH1 0x0 CALLDATALOAD PUSH1 0xE0 SHR DUP1 PUSH4 0x57BF72E3 GT PUSH2 0x97 JUMPI DUP1 PUSH4 0x8E029C0B GT PUSH2 0x66 JUMPI DUP1 PUSH4 0x8E029C0B EQ PUSH2 0x293 JUMPI DUP1 PUSH4 0x8FA11864 EQ PUSH2 0x29D JUMPI DUP1 PUSH4 0xAA8C217C EQ PUSH2 0x2BB JUMPI DUP1 PUSH4 0xE21F37CE EQ PUSH2 0x2D9 JUMPI PUSH2 0x100 JUMP JUMPDEST DUP1 PUSH4 0x57BF72E3 EQ PUSH2 0x206 JUMPI DUP1 PUSH4 0x59705F81 EQ PUSH2 0x239 JUMPI DUP1 PUSH4 0x7B9A3F4C EQ PUSH2 0x257 JUMPI DUP1 PUSH4 0x7EB9F571 EQ PUSH2 0x275 JUMPI PUSH2 0x100 JUMP JUMPDEST DUP1 PUSH4 0x3C626F00 GT PUSH2 0xD3 JUMPI DUP1 PUSH4 0x3C626F00 EQ PUSH2 0x18E JUMPI DUP1 PUSH4 0x42FB7936 EQ PUSH2 0x1AC JUMPI DUP1 PUSH4 0x4B28F9A2 EQ PUSH2 0x1CA JUMPI DUP1 PUSH4 0x557ED1BA EQ PUSH2 0x1E8 JUMPI PUSH2 0x100 JUMP JUMPDEST DUP1 PUSH4 0x4EF5B21 EQ PUSH2 0x105 JUMPI DUP1 PUSH4 0x62A7544 EQ PUSH2 0x138 JUMPI DUP1 PUSH4 0xE85FA72 EQ PUSH2 0x154 JUMPI DUP1 PUSH4 0x12A029A4 EQ PUSH2 0x172 JUMPI JUMPDEST PUSH1 0x0 DUP1 REVERT JUMPDEST PUSH2 0x11F PUSH1 0x4 DUP1 CALLDATASIZE SUB DUP2 ADD SWAP1 PUSH2 0x11A SWAP2 SWAP1 PUSH2 0xD1C JUMP JUMPDEST PUSH2 0x2F7 JUMP JUMPDEST PUSH1 0x40 MLOAD PUSH2 0x12F SWAP5 SWAP4 SWAP3 SWAP2 SWAP1 PUSH2 0xD99 JUMP JUMPDEST PUSH1 0x40 MLOAD DUP1 SWAP2 SUB SWAP1 RETURN JUMPDEST PUSH2 0x152 PUSH1 0x4 DUP1 CALLDATASIZE SUB DUP2 ADD SWAP1 PUSH2 0x14D SWAP2 SWAP1 PUSH2 0xE0A JUMP JUMPDEST PUSH2 0x377 JUMP JUMPDEST STOP JUMPDEST PUSH2 0x15C PUSH2 0x6AF JUMP JUMPDEST PUSH1 0x40 MLOAD PUSH2 0x169 SWAP2 SWAP1 PUSH2 0xE4A JUMP JUMPDEST PUSH1 0x40 MLOAD DUP1 SWAP2 SUB SWAP1 RETURN JUMPDEST PUSH2 0x18C PUSH1 0x4 DUP1 CALLDATASIZE SUB DUP2 ADD SWAP1 PUSH2 0x187 SWAP2 SWAP1 PUSH2 0xFAB JUMP JUMPDEST PUSH2 0x6B5 JUMP JUMPDEST STOP JUMPDEST PUSH2 0x196 PUSH2 0x766 JUMP JUMPDEST PUSH1 0x40 MLOAD PUSH2 0x1A3 SWAP2 SWAP1 PUSH2 0x103E JUMP JUMPDEST PUSH1 0x40 MLOAD DUP1 SWAP2 SUB SWAP1 RETURN JUMPDEST PUSH2 0x1B4 PUSH2 0x779 JUMP JUMPDEST PUSH1 0x40 MLOAD PUSH2 0x1C1 SWAP2 SWAP1 PUSH2 0x10D8 JUMP JUMPDEST PUSH1 0x40 MLOAD DUP1 SWAP2 SUB SWAP1 RETURN JUMPDEST PUSH2 0x1D2 PUSH2 0x807 JUMP JUMPDEST PUSH1 0x40 MLOAD PUSH2 0x1DF SWAP2 SWAP1 PUSH2 0xE4A JUMP JUMPDEST PUSH1 0x40 MLOAD DUP1 SWAP2 SUB SWAP1 RETURN JUMPDEST PUSH2 0x1F0 PUSH2 0x80D JUMP JUMPDEST PUSH1 0x40 MLOAD PUSH2 0x1FD SWAP2 SWAP1 PUSH2 0xE4A JUMP JUMPDEST PUSH1 0x40 MLOAD DUP1 SWAP2 SUB SWAP1 RETURN JUMPDEST PUSH2 0x220 PUSH1 0x4 DUP1 CALLDATASIZE SUB DUP2 ADD SWAP1 PUSH2 0x21B SWAP2 SWAP1 PUSH2 0xD1C JUMP JUMPDEST PUSH2 0x815 JUMP JUMPDEST PUSH1 0x40 MLOAD PUSH2 0x230 SWAP5 SWAP4 SWAP3 SWAP2 SWAP1 PUSH2 0xD99 JUMP JUMPDEST PUSH1 0x40 MLOAD DUP1 SWAP2 SUB SWAP1 RETURN JUMPDEST PUSH2 0x241 PUSH2 0x885 JUMP JUMPDEST PUSH1 0x40 MLOAD PUSH2 0x24E SWAP2 SWAP1 PUSH2 0x121C JUMP JUMPDEST PUSH1 0x40 MLOAD DUP1 SWAP2 SUB SWAP1 RETURN JUMPDEST PUSH2 0x25F PUSH2 0x9A4 JUMP JUMPDEST PUSH1 0x40 MLOAD PUSH2 0x26C SWAP2 SWAP1 PUSH2 0xE4A JUMP JUMPDEST PUSH1 0x40 MLOAD DUP1 SWAP2 SUB SWAP1 RETURN JUMPDEST PUSH2 0x27D PUSH2 0x9AA JUMP JUMPDEST PUSH1 0x40 MLOAD PUSH2 0x28A SWAP2 SWAP1 PUSH2 0xE4A JUMP JUMPDEST PUSH1 0x40 MLOAD DUP1 SWAP2 SUB SWAP1 RETURN JUMPDEST PUSH2 0x29B PUSH2 0x9B0 JUMP JUMPDEST STOP JUMPDEST PUSH2 0x2A5 PUSH2 0x9CD JUMP JUMPDEST PUSH1 0x40 MLOAD PUSH2 0x2B2 SWAP2 SWAP1 PUSH2 0x10D8 JUMP JUMPDEST PUSH1 0x40 MLOAD DUP1 SWAP2 SUB SWAP1 RETURN JUMPDEST PUSH2 0x2C3 PUSH2 0xA5B JUMP JUMPDEST PUSH1 0x40 MLOAD PUSH2 0x2D0 SWAP2 SWAP1 PUSH2 0xE4A JUMP JUMPDEST PUSH1 0x40 MLOAD DUP1 SWAP2 SUB SWAP1 RETURN JUMPDEST PUSH2 0x2E1 PUSH2 0xA61 JUMP JUMPDEST PUSH1 0x40 MLOAD PUSH2 0x2EE SWAP2 SWAP1 PUSH2 0x10D8 JUMP JUMPDEST PUSH1 0x40 MLOAD DUP1 SWAP2 SUB SWAP1 RETURN JUMPDEST PUSH1 0x0 DUP2 DUP2 SLOAD DUP2 LT PUSH2 0x307 JUMPI PUSH1 0x0 DUP1 REVERT JUMPDEST SWAP1 PUSH1 0x0 MSTORE PUSH1 0x20 PUSH1 0x0 KECCAK256 SWAP1 PUSH1 0x4 MUL ADD PUSH1 0x0 SWAP2 POP SWAP1 POP DUP1 PUSH1 0x0 ADD PUSH1 0x0 SWAP1 SLOAD SWAP1 PUSH2 0x100 EXP SWAP1 DIV PUSH20 0xFFFFFFFFFFFFFFFFFFFFFFFFFFFFFFFFFFFFFFFF AND SWAP1 DUP1 PUSH1 0x1 ADD PUSH1 0x0 SWAP1 SLOAD SWAP1 PUSH2 0x100 EXP SWAP1 DIV PUSH20 0xFFFFFFFFFFFFFFFFFFFFFFFFFFFFFFFFFFFFFFFF AND SWAP1 DUP1 PUSH1 0x2 ADD SLOAD SWAP1 DUP1 PUSH1 0x3 ADD SLOAD SWAP1 POP DUP5 JUMP JUMPDEST DUP1 DUP1 PUSH1 0x5 PUSH1 0x0 PUSH2 0x100 EXP DUP2 SLOAD DUP2 PUSH20 0xFFFFFFFFFFFFFFFFFFFFFFFFFFFFFFFFFFFFFFFF MUL NOT AND SWAP1 DUP4 PUSH20 0xFFFFFFFFFFFFFFFFFFFFFFFFFFFFFFFFFFFFFFFF AND MUL OR SWAP1 SSTORE POP PUSH1 0x0 PUSH20 0xFFFFFFFFFFFFFFFFFFFFFFFFFFFFFFFFFFFFFFFF AND DUP2 PUSH20 0xFFFFFFFFFFFFFFFFFFFFFFFFFFFFFFFFFFFFFFFF AND SUB PUSH2 0x428 JUMPI PUSH1 0x40 MLOAD PUSH32 0x8C379A000000000000000000000000000000000000000000000000000000000 DUP2 MSTORE PUSH1 0x4 ADD PUSH2 0x41F SWAP1 PUSH2 0x128A JUMP JUMPDEST PUSH1 0x40 MLOAD DUP1 SWAP2 SUB SWAP1 REVERT JUMPDEST PUSH1 0x0 ISZERO ISZERO PUSH1 0xC PUSH1 0x0 SWAP1 SLOAD SWAP1 PUSH2 0x100 EXP SWAP1 DIV PUSH1 0xFF AND ISZERO ISZERO SUB PUSH2 0x47E JUMPI PUSH1 0x40 MLOAD PUSH32 0x8C379A000000000000000000000000000000000000000000000000000000000 DUP2 MSTORE PUSH1 0x4 ADD PUSH2 0x475 SWAP1 PUSH2 0x12F6 JUMP JUMPDEST PUSH1 0x40 MLOAD DUP1 SWAP2 SUB SWAP1 REVERT JUMPDEST PUSH1 0x5 PUSH1 0xB SLOAD LT ISZERO DUP1 ISZERO PUSH2 0x49F JUMPI POP PUSH1 0x1E PUSH1 0xA SLOAD PUSH2 0x49B SWAP2 SWAP1 PUSH2 0x1345 JUMP JUMPDEST TIMESTAMP GT ISZERO JUMPDEST ISZERO PUSH2 0x4FA JUMPI PUSH1 0x0 PUSH1 0xB DUP2 SWAP1 SSTORE POP PUSH1 0x0 PUSH1 0xB SLOAD EQ PUSH2 0x4BF JUMPI PUSH2 0x4BE PUSH2 0x1379 JUMP JUMPDEST JUMPDEST PUSH1 0x40 MLOAD PUSH32 0x8C379A000000000000000000000000000000000000000000000000000000000 DUP2 MSTORE PUSH1 0x4 ADD PUSH2 0x4F1 SWAP1 PUSH2 0x13F4 JUMP JUMPDEST PUSH1 0x40 MLOAD DUP1 SWAP2 SUB SWAP1 REVERT JUMPDEST PUSH1 0x5 PUSH1 0xB SLOAD GT ISZERO DUP1 ISZERO PUSH2 0x51B JUMPI POP PUSH1 0x1E PUSH1 0xA SLOAD PUSH2 0x517 SWAP2 SWAP1 PUSH2 0x1345 JUMP JUMPDEST TIMESTAMP LT ISZERO JUMPDEST ISZERO PUSH2 0x543 JUMPI PUSH1 0x0 PUSH1 0xB DUP2 SWAP1 SSTORE POP PUSH1 0x0 PUSH1 0xB SLOAD EQ PUSH2 0x53B JUMPI PUSH2 0x53A PUSH2 0x1379 JUMP JUMPDEST JUMPDEST TIMESTAMP PUSH1 0xA DUP2 SWAP1 SSTORE POP JUMPDEST DUP2 PUSH1 0x5 PUSH1 0x0 PUSH2 0x100 EXP DUP2 SLOAD DUP2 PUSH20 0xFFFFFFFFFFFFFFFFFFFFFFFFFFFFFFFFFFFFFFFF MUL NOT AND SWAP1 DUP4 PUSH20 0xFFFFFFFFFFFFFFFFFFFFFFFFFFFFFFFFFFFFFFFF AND MUL OR SWAP1 SSTORE POP DUP3 PUSH1 0x3 DUP2 SWAP1 SSTORE POP PUSH1 0x1 PUSH1 0xB PUSH1 0x0 DUP3 DUP3 SLOAD PUSH2 0x59E SWAP2 SWAP1 PUSH2 0x1345 JUMP JUMPDEST SWAP3 POP POP DUP2 SWAP1 SSTORE POP PUSH1 0x0 PUSH1 0x4 SLOAD GT DUP1 ISZERO PUSH2 0x5BA JUMPI POP PUSH1 0x3 SLOAD PUSH1 0x4 SLOAD GT JUMPDEST ISZERO PUSH2 0x66F JUMPI PUSH1 0x3 SLOAD PUSH1 0x4 PUSH1 0x0 DUP3 DUP3 SLOAD PUSH2 0x5D3 SWAP2 SWAP1 PUSH2 0x1414 JUMP JUMPDEST SWAP3 POP POP DUP2 SWAP1 SSTORE POP PUSH1 0x3 SLOAD PUSH1 0x9 PUSH1 0x0 DUP3 DUP3 SLOAD PUSH2 0x5EE SWAP2 SWAP1 PUSH2 0x1345 JUMP JUMPDEST SWAP3 POP POP DUP2 SWAP1 SSTORE POP PUSH2 0x625 CALLER PUSH1 0x5 PUSH1 0x0 SWAP1 SLOAD SWAP1 PUSH2 0x100 EXP SWAP1 DIV PUSH20 0xFFFFFFFFFFFFFFFFFFFFFFFFFFFFFFFFFFFFFFFF AND PUSH1 0x3 SLOAD TIMESTAMP PUSH2 0xAEF JUMP JUMPDEST PUSH1 0x40 MLOAD DUP1 PUSH1 0x40 ADD PUSH1 0x40 MSTORE DUP1 PUSH1 0x12 DUP2 MSTORE PUSH1 0x20 ADD PUSH32 0x5472616E7366657220636F6D706C657465640000000000000000000000000000 DUP2 MSTORE POP PUSH1 0x6 SWAP1 DUP2 PUSH2 0x669 SWAP2 SWAP1 PUSH2 0x1654 JUMP JUMPDEST POP PUSH2 0x6AA JUMP JUMPDEST PUSH1 0x40 MLOAD PUSH32 0x8C379A000000000000000000000000000000000000000000000000000000000 DUP2 MSTORE PUSH1 0x4 ADD PUSH2 0x6A1 SWAP1 PUSH2 0x1772 JUMP JUMPDEST PUSH1 0x40 MLOAD DUP1 SWAP2 SUB SWAP1 REVERT JUMPDEST POP POP POP JUMP JUMPDEST PUSH1 0xA SLOAD DUP2 JUMP JUMPDEST DUP2 PUSH1 0x7 SWAP1 DUP2 PUSH2 0x6C4 SWAP2 SWAP1 PUSH2 0x1654 JUMP JUMPDEST POP DUP1 PUSH1 0x8 SWAP1 DUP2 PUSH2 0x6D4 SWAP2 SWAP1 PUSH2 0x1654 JUMP JUMPDEST POP PUSH1 0x1 PUSH1 0xC PUSH1 0x0 PUSH2 0x100 EXP DUP2 SLOAD DUP2 PUSH1 0xFF MUL NOT AND SWAP1 DUP4 ISZERO ISZERO MUL OR SWAP1 SSTORE POP TIMESTAMP PUSH1 0xA DUP2 SWAP1 SSTORE POP PUSH1 0x8 PUSH1 0x7 DUP1 SLOAD PUSH2 0x706 SWAP1 PUSH2 0x1477 JUMP JUMPDEST SWAP1 POP EQ DUP1 ISZERO PUSH2 0x723 JUMPI POP PUSH1 0x3 PUSH1 0x8 DUP1 SLOAD PUSH2 0x71F SWAP1 PUSH2 0x1477 JUMP JUMPDEST SWAP1 POP EQ JUMPDEST PUSH2 0x762 JUMPI PUSH1 0x40 MLOAD PUSH32 0x8C379A000000000000000000000000000000000000000000000000000000000 DUP2 MSTORE PUSH1 0x4 ADD PUSH2 0x759 SWAP1 PUSH2 0x17DE JUMP JUMPDEST PUSH1 0x40 MLOAD DUP1 SWAP2 SUB SWAP1 REVERT JUMPDEST POP POP JUMP JUMPDEST PUSH1 0xC PUSH1 0x0 SWAP1 SLOAD SWAP1 PUSH2 0x100 EXP SWAP1 DIV PUSH1 0xFF AND DUP2 JUMP JUMPDEST PUSH1 0x8 DUP1 SLOAD PUSH2 0x786 SWAP1 PUSH2 0x1477 JUMP JUMPDEST DUP1 PUSH1 0x1F ADD PUSH1 0x20 DUP1 SWAP2 DIV MUL PUSH1 0x20 ADD PUSH1 0x40 MLOAD SWAP1 DUP2 ADD PUSH1 0x40 MSTORE DUP1 SWAP3 SWAP2 SWAP1 DUP2 DUP2 MSTORE PUSH1 0x20 ADD DUP3 DUP1 SLOAD PUSH2 0x7B2 SWAP1 PUSH2 0x1477 JUMP JUMPDEST DUP1 ISZERO PUSH2 0x7FF JUMPI DUP1 PUSH1 0x1F LT PUSH2 0x7D4 JUMPI PUSH2 0x100 DUP1 DUP4 SLOAD DIV MUL DUP4 MSTORE SWAP2 PUSH1 0x20 ADD SWAP2 PUSH2 0x7FF JUMP JUMPDEST DUP3 ADD SWAP2 SWAP1 PUSH1 0x0 MSTORE PUSH1 0x20 PUSH1 0x0 KECCAK256 SWAP1 JUMPDEST DUP2 SLOAD DUP2 MSTORE SWAP1 PUSH1 0x1 ADD SWAP1 PUSH1 0x20 ADD DUP1 DUP4 GT PUSH2 0x7E2 JUMPI DUP3 SWAP1 SUB PUSH1 0x1F AND DUP3 ADD SWAP2 JUMPDEST POP POP POP POP POP DUP2 JUMP JUMPDEST PUSH1 0xB SLOAD DUP2 JUMP JUMPDEST PUSH1 0x0 TIMESTAMP SWAP1 POP SWAP1 JUMP JUMPDEST PUSH1 0x1 PUSH1 0x20 MSTORE DUP1 PUSH1 0x0 MSTORE PUSH1 0x40 PUSH1 0x0 KECCAK256 PUSH1 0x0 SWAP2 POP SWAP1 POP DUP1 PUSH1 0x0 ADD PUSH1 0x0 SWAP1 SLOAD SWAP1 PUSH2 0x100 EXP SWAP1 DIV PUSH20 0xFFFFFFFFFFFFFFFFFFFFFFFFFFFFFFFFFFFFFFFF AND SWAP1 DUP1 PUSH1 0x1 ADD PUSH1 0x0 SWAP1 SLOAD SWAP1 PUSH2 0x100 EXP SWAP1 DIV PUSH20 0xFFFFFFFFFFFFFFFFFFFFFFFFFFFFFFFFFFFFFFFF AND SWAP1 DUP1 PUSH1 0x2 ADD SLOAD SWAP1 DUP1 PUSH1 0x3 ADD SLOAD SWAP1 POP DUP5 JUMP JUMPDEST PUSH1 0x60 PUSH1 0x0 DUP1 SLOAD DUP1 PUSH1 0x20 MUL PUSH1 0x20 ADD PUSH1 0x40 MLOAD SWAP1 DUP2 ADD PUSH1 0x40 MSTORE DUP1 SWAP3 SWAP2 SWAP1 DUP2 DUP2 MSTORE PUSH1 0x20 ADD PUSH1 0x0 SWAP1 JUMPDEST DUP3 DUP3 LT ISZERO PUSH2 0x99B JUMPI DUP4 DUP3 SWAP1 PUSH1 0x0 MSTORE PUSH1 0x20 PUSH1 0x0 KECCAK256 SWAP1 PUSH1 0x4 MUL ADD PUSH1 0x40 MLOAD DUP1 PUSH1 0x80 ADD PUSH1 0x40 MSTORE SWAP1 DUP2 PUSH1 0x0 DUP3 ADD PUSH1 0x0 SWAP1 SLOAD SWAP1 PUSH2 0x100 EXP SWAP1 DIV PUSH20 0xFFFFFFFFFFFFFFFFFFFFFFFFFFFFFFFFFFFFFFFF AND PUSH20 0xFFFFFFFFFFFFFFFFFFFFFFFFFFFFFFFFFFFFFFFF AND PUSH20 0xFFFFFFFFFFFFFFFFFFFFFFFFFFFFFFFFFFFFFFFF AND DUP2 MSTORE PUSH1 0x20 ADD PUSH1 0x1 DUP3 ADD PUSH1 0x0 SWAP1 SLOAD SWAP1 PUSH2 0x100 EXP SWAP1 DIV PUSH20 0xFFFFFFFFFFFFFFFFFFFFFFFFFFFFFFFFFFFFFFFF AND PUSH20 0xFFFFFFFFFFFFFFFFFFFFFFFFFFFFFFFFFFFFFFFF AND PUSH20 0xFFFFFFFFFFFFFFFFFFFFFFFFFFFFFFFFFFFFFFFF AND DUP2 MSTORE PUSH1 0x20 ADD PUSH1 0x2 DUP3 ADD SLOAD DUP2 MSTORE PUSH1 0x20 ADD PUSH1 0x3 DUP3 ADD SLOAD DUP2 MSTORE POP POP DUP2 MSTORE PUSH1 0x20 ADD SWAP1 PUSH1 0x1 ADD SWAP1 PUSH2 0x8A9 JUMP JUMPDEST POP POP POP POP SWAP1 POP SWAP1 JUMP JUMPDEST PUSH1 0x4 SLOAD DUP2 JUMP JUMPDEST PUSH1 0x9 SLOAD DUP2 JUMP JUMPDEST PUSH1 0x0 PUSH1 0xC PUSH1 0x0 PUSH2 0x100 EXP DUP2 SLOAD DUP2 PUSH1 0xFF MUL NOT AND SWAP1 DUP4 ISZERO ISZERO MUL OR SWAP1 SSTORE POP JUMP JUMPDEST PUSH1 0x7 DUP1 SLOAD PUSH2 0x9DA SWAP1 PUSH2 0x1477 JUMP JUMPDEST DUP1 PUSH1 0x1F ADD PUSH1 0x20 DUP1 SWAP2 DIV MUL PUSH1 0x20 ADD PUSH1 0x40 MLOAD SWAP1 DUP2 ADD PUSH1 0x40 MSTORE DUP1 SWAP3 SWAP2 SWAP1 DUP2 DUP2 MSTORE PUSH1 0x20 ADD DUP3 DUP1 SLOAD PUSH2 0xA06 SWAP1 PUSH2 0x1477 JUMP JUMPDEST DUP1 ISZERO PUSH2 0xA53 JUMPI DUP1 PUSH1 0x1F LT PUSH2 0xA28 JUMPI PUSH2 0x100 DUP1 DUP4 SLOAD DIV MUL DUP4 MSTORE SWAP2 PUSH1 0x20 ADD SWAP2 PUSH2 0xA53 JUMP JUMPDEST DUP3 ADD SWAP2 SWAP1 PUSH1 0x0 MSTORE PUSH1 0x20 PUSH1 0x0 KECCAK256 SWAP1 JUMPDEST DUP2 SLOAD DUP2 MSTORE SWAP1 PUSH1 0x1 ADD SWAP1 PUSH1 0x20 ADD DUP1 DUP4 GT PUSH2 0xA36 JUMPI DUP3 SWAP1 SUB PUSH1 0x1F AND DUP3 ADD SWAP2 JUMPDEST POP POP POP POP POP DUP2 JUMP JUMPDEST PUSH1 0x3 SLOAD DUP2 JUMP JUMPDEST PUSH1 0x6 DUP1 SLOAD PUSH2 0xA6E SWAP1 PUSH2 0x1477 JUMP JUMPDEST DUP1 PUSH1 0x1F ADD PUSH1 0x20 DUP1 SWAP2 DIV MUL PUSH1 0x20 ADD PUSH1 0x40 MLOAD SWAP1 DUP2 ADD PUSH1 0x40 MSTORE DUP1 SWAP3 SWAP2 SWAP1 DUP2 DUP2 MSTORE PUSH1 0x20 ADD DUP3 DUP1 SLOAD PUSH2 0xA9A SWAP1 PUSH2 0x1477 JUMP JUMPDEST DUP1 ISZERO PUSH2 0xAE7 JUMPI DUP1 PUSH1 0x1F LT PUSH2 0xABC JUMPI PUSH2 0x100 DUP1 DUP4 SLOAD DIV MUL DUP4 MSTORE SWAP2 PUSH1 0x20 ADD SWAP2 PUSH2 0xAE7 JUMP JUMPDEST DUP3 ADD SWAP2 SWAP1 PUSH1 0x0 MSTORE PUSH1 0x20 PUSH1 0x0 KECCAK256 SWAP1 JUMPDEST DUP2 SLOAD DUP2 MSTORE SWAP1 PUSH1 0x1 ADD SWAP1 PUSH1 0x20 ADD DUP1 DUP4 GT PUSH2 0xACA JUMPI DUP3 SWAP1 SUB PUSH1 0x1F AND DUP3 ADD SWAP2 JUMPDEST POP POP POP POP POP DUP2 JUMP JUMPDEST PUSH1 0x0 PUSH1 0x40 MLOAD DUP1 PUSH1 0x80 ADD PUSH1 0x40 MSTORE DUP1 DUP7 PUSH20 0xFFFFFFFFFFFFFFFFFFFFFFFFFFFFFFFFFFFFFFFF AND DUP2 MSTORE PUSH1 0x20 ADD DUP6 PUSH20 0xFFFFFFFFFFFFFFFFFFFFFFFFFFFFFFFFFFFFFFFF AND DUP2 MSTORE PUSH1 0x20 ADD DUP5 DUP2 MSTORE PUSH1 0x20 ADD DUP4 DUP2 MSTORE POP SWAP1 POP PUSH1 0x0 DUP2 SWAP1 DUP1 PUSH1 0x1 DUP2 SLOAD ADD DUP1 DUP3 SSTORE DUP1 SWAP2 POP POP PUSH1 0x1 SWAP1 SUB SWAP1 PUSH1 0x0 MSTORE PUSH1 0x20 PUSH1 0x0 KECCAK256 SWAP1 PUSH1 0x4 MUL ADD PUSH1 0x0 SWAP1 SWAP2 SWAP1 SWAP2 SWAP1 SWAP2 POP PUSH1 0x0 DUP3 ADD MLOAD DUP2 PUSH1 0x0 ADD PUSH1 0x0 PUSH2 0x100 EXP DUP2 SLOAD DUP2 PUSH20 0xFFFFFFFFFFFFFFFFFFFFFFFFFFFFFFFFFFFFFFFF MUL NOT AND SWAP1 DUP4 PUSH20 0xFFFFFFFFFFFFFFFFFFFFFFFFFFFFFFFFFFFFFFFF AND MUL OR SWAP1 SSTORE POP PUSH1 0x20 DUP3 ADD MLOAD DUP2 PUSH1 0x1 ADD PUSH1 0x0 PUSH2 0x100 EXP DUP2 SLOAD DUP2 PUSH20 0xFFFFFFFFFFFFFFFFFFFFFFFFFFFFFFFFFFFFFFFF MUL NOT AND SWAP1 DUP4 PUSH20 0xFFFFFFFFFFFFFFFFFFFFFFFFFFFFFFFFFFFFFFFF AND MUL OR SWAP1 SSTORE POP PUSH1 0x40 DUP3 ADD MLOAD DUP2 PUSH1 0x2 ADD SSTORE PUSH1 0x60 DUP3 ADD MLOAD DUP2 PUSH1 0x3 ADD SSTORE POP POP DUP1 PUSH1 0x1 PUSH1 0x0 PUSH1 0x2 SLOAD DUP2 MSTORE PUSH1 0x20 ADD SWAP1 DUP2 MSTORE PUSH1 0x20 ADD PUSH1 0x0 KECCAK256 PUSH1 0x0 DUP3 ADD MLOAD DUP2 PUSH1 0x0 ADD PUSH1 0x0 PUSH2 0x100 EXP DUP2 SLOAD DUP2 PUSH20 0xFFFFFFFFFFFFFFFFFFFFFFFFFFFFFFFFFFFFFFFF MUL NOT AND SWAP1 DUP4 PUSH20 0xFFFFFFFFFFFFFFFFFFFFFFFFFFFFFFFFFFFFFFFF AND MUL OR SWAP1 SSTORE POP PUSH1 0x20 DUP3 ADD MLOAD DUP2 PUSH1 0x1 ADD PUSH1 0x0 PUSH2 0x100 EXP DUP2 SLOAD DUP2 PUSH20 0xFFFFFFFFFFFFFFFFFFFFFFFFFFFFFFFFFFFFFFFF MUL NOT AND SWAP1 DUP4 PUSH20 0xFFFFFFFFFFFFFFFFFFFFFFFFFFFFFFFFFFFFFFFF AND MUL OR SWAP1 SSTORE POP PUSH1 0x40 DUP3 ADD MLOAD DUP2 PUSH1 0x2 ADD SSTORE PUSH1 0x60 DUP3 ADD MLOAD DUP2 PUSH1 0x3 ADD SSTORE SWAP1 POP POP POP POP POP POP POP JUMP JUMPDEST PUSH1 0x0 PUSH1 0x40 MLOAD SWAP1 POP SWAP1 JUMP JUMPDEST PUSH1 0x0 DUP1 REVERT JUMPDEST PUSH1 0x0 DUP1 REVERT JUMPDEST PUSH1 0x0 DUP2 SWAP1 POP SWAP2 SWAP1 POP JUMP JUMPDEST PUSH2 0xCF9 DUP2 PUSH2 0xCE6 JUMP JUMPDEST DUP2 EQ PUSH2 0xD04 JUMPI PUSH1 0x0 DUP1 REVERT JUMPDEST POP JUMP JUMPDEST PUSH1 0x0 DUP2 CALLDATALOAD SWAP1 POP PUSH2 0xD16 DUP2 PUSH2 0xCF0 JUMP JUMPDEST SWAP3 SWAP2 POP POP JUMP JUMPDEST PUSH1 0x0 PUSH1 0x20 DUP3 DUP5 SUB SLT ISZERO PUSH2 0xD32 JUMPI PUSH2 0xD31 PUSH2 0xCDC JUMP JUMPDEST JUMPDEST PUSH1 0x0 PUSH2 0xD40 DUP5 DUP3 DUP6 ADD PUSH2 0xD07 JUMP JUMPDEST SWAP2 POP POP SWAP3 SWAP2 POP POP JUMP JUMPDEST PUSH1 0x0 PUSH20 0xFFFFFFFFFFFFFFFFFFFFFFFFFFFFFFFFFFFFFFFF DUP3 AND SWAP1 POP SWAP2 SWAP1 POP JUMP JUMPDEST PUSH1 0x0 PUSH2 0xD74 DUP3 PUSH2 0xD49 JUMP JUMPDEST SWAP1 POP SWAP2 SWAP1 POP JUMP JUMPDEST PUSH2 0xD84 DUP2 PUSH2 0xD69 JUMP JUMPDEST DUP3 MSTORE POP POP JUMP JUMPDEST PUSH2 0xD93 DUP2 PUSH2 0xCE6 JUMP JUMPDEST DUP3 MSTORE POP POP JUMP JUMPDEST PUSH1 0x0 PUSH1 0x80 DUP3 ADD SWAP1 POP PUSH2 0xDAE PUSH1 0x0 DUP4 ADD DUP8 PUSH2 0xD7B JUMP JUMPDEST PUSH2 0xDBB PUSH1 0x20 DUP4 ADD DUP7 PUSH2 0xD7B JUMP JUMPDEST PUSH2 0xDC8 PUSH1 0x40 DUP4 ADD DUP6 PUSH2 0xD8A JUMP JUMPDEST PUSH2 0xDD5 PUSH1 0x60 DUP4 ADD DUP5 PUSH2 0xD8A JUMP JUMPDEST SWAP6 SWAP5 POP POP POP POP POP JUMP JUMPDEST PUSH2 0xDE7 DUP2 PUSH2 0xD69 JUMP JUMPDEST DUP2 EQ PUSH2 0xDF2 JUMPI PUSH1 0x0 DUP1 REVERT JUMPDEST POP JUMP JUMPDEST PUSH1 0x0 DUP2 CALLDATALOAD SWAP1 POP PUSH2 0xE04 DUP2 PUSH2 0xDDE JUMP JUMPDEST SWAP3 SWAP2 POP POP JUMP JUMPDEST PUSH1 0x0 DUP1 PUSH1 0x40 DUP4 DUP6 SUB SLT ISZERO PUSH2 0xE21 JUMPI PUSH2 0xE20 PUSH2 0xCDC JUMP JUMPDEST JUMPDEST PUSH1 0x0 PUSH2 0xE2F DUP6 DUP3 DUP7 ADD PUSH2 0xD07 JUMP JUMPDEST SWAP3 POP POP PUSH1 0x20 PUSH2 0xE40 DUP6 DUP3 DUP7 ADD PUSH2 0xDF5 JUMP JUMPDEST SWAP2 POP POP SWAP3 POP SWAP3 SWAP1 POP JUMP JUMPDEST PUSH1 0x0 PUSH1 0x20 DUP3 ADD SWAP1 POP PUSH2 0xE5F PUSH1 0x0 DUP4 ADD DUP5 PUSH2 0xD8A JUMP JUMPDEST SWAP3 SWAP2 POP POP JUMP JUMPDEST PUSH1 0x0 DUP1 REVERT JUMPDEST PUSH1 0x0 DUP1 REVERT JUMPDEST PUSH1 0x0 PUSH1 0x1F NOT PUSH1 0x1F DUP4 ADD AND SWAP1 POP SWAP2 SWAP1 POP JUMP JUMPDEST PUSH32 0x4E487B7100000000000000000000000000000000000000000000000000000000 PUSH1 0x0 MSTORE PUSH1 0x41 PUSH1 0x4 MSTORE PUSH1 0x24 PUSH1 0x0 REVERT JUMPDEST PUSH2 0xEB8 DUP3 PUSH2 0xE6F JUMP JUMPDEST DUP2 ADD DUP2 DUP2 LT PUSH8 0xFFFFFFFFFFFFFFFF DUP3 GT OR ISZERO PUSH2 0xED7 JUMPI PUSH2 0xED6 PUSH2 0xE80 JUMP JUMPDEST JUMPDEST DUP1 PUSH1 0x40 MSTORE POP POP POP JUMP JUMPDEST PUSH1 0x0 PUSH2 0xEEA PUSH2 0xCD2 JUMP JUMPDEST SWAP1 POP PUSH2 0xEF6 DUP3 DUP3 PUSH2 0xEAF JUMP JUMPDEST SWAP2 SWAP1 POP JUMP JUMPDEST PUSH1 0x0 PUSH8 0xFFFFFFFFFFFFFFFF DUP3 GT ISZERO PUSH2 0xF16 JUMPI PUSH2 0xF15 PUSH2 0xE80 JUMP JUMPDEST JUMPDEST PUSH2 0xF1F DUP3 PUSH2 0xE6F JUMP JUMPDEST SWAP1 POP PUSH1 0x20 DUP2 ADD SWAP1 POP SWAP2 SWAP1 POP JUMP JUMPDEST DUP3 DUP2 DUP4 CALLDATACOPY PUSH1 0x0 DUP4 DUP4 ADD MSTORE POP POP POP JUMP JUMPDEST PUSH1 0x0 PUSH2 0xF4E PUSH2 0xF49 DUP5 PUSH2 0xEFB JUMP JUMPDEST PUSH2 0xEE0 JUMP JUMPDEST SWAP1 POP DUP3 DUP2 MSTORE PUSH1 0x20 DUP2 ADD DUP5 DUP5 DUP5 ADD GT ISZERO PUSH2 0xF6A JUMPI PUSH2 0xF69 PUSH2 0xE6A JUMP JUMPDEST JUMPDEST PUSH2 0xF75 DUP5 DUP3 DUP6 PUSH2 0xF2C JUMP JUMPDEST POP SWAP4 SWAP3 POP POP POP JUMP JUMPDEST PUSH1 0x0 DUP3 PUSH1 0x1F DUP4 ADD SLT PUSH2 0xF92 JUMPI PUSH2 0xF91 PUSH2 0xE65 JUMP JUMPDEST JUMPDEST DUP2 CALLDATALOAD PUSH2 0xFA2 DUP5 DUP3 PUSH1 0x20 DUP7 ADD PUSH2 0xF3B JUMP JUMPDEST SWAP2 POP POP SWAP3 SWAP2 POP POP JUMP JUMPDEST PUSH1 0x0 DUP1 PUSH1 0x40 DUP4 DUP6 SUB SLT ISZERO PUSH2 0xFC2 JUMPI PUSH2 0xFC1 PUSH2 0xCDC JUMP JUMPDEST JUMPDEST PUSH1 0x0 DUP4 ADD CALLDATALOAD PUSH8 0xFFFFFFFFFFFFFFFF DUP2 GT ISZERO PUSH2 0xFE0 JUMPI PUSH2 0xFDF PUSH2 0xCE1 JUMP JUMPDEST JUMPDEST PUSH2 0xFEC DUP6 DUP3 DUP7 ADD PUSH2 0xF7D JUMP JUMPDEST SWAP3 POP POP PUSH1 0x20 DUP4 ADD CALLDATALOAD PUSH8 0xFFFFFFFFFFFFFFFF DUP2 GT ISZERO PUSH2 0x100D JUMPI PUSH2 0x100C PUSH2 0xCE1 JUMP JUMPDEST JUMPDEST PUSH2 0x1019 DUP6 DUP3 DUP7 ADD PUSH2 0xF7D JUMP JUMPDEST SWAP2 POP POP SWAP3 POP SWAP3 SWAP1 POP JUMP JUMPDEST PUSH1 0x0 DUP2 ISZERO ISZERO SWAP1 POP SWAP2 SWAP1 POP JUMP JUMPDEST PUSH2 0x1038 DUP2 PUSH2 0x1023 JUMP JUMPDEST DUP3 MSTORE POP POP JUMP JUMPDEST PUSH1 0x0 PUSH1 0x20 DUP3 ADD SWAP1 POP PUSH2 0x1053 PUSH1 0x0 DUP4 ADD DUP5 PUSH2 0x102F JUMP JUMPDEST SWAP3 SWAP2 POP POP JUMP JUMPDEST PUSH1 0x0 DUP2 MLOAD SWAP1 POP SWAP2 SWAP1 POP JUMP JUMPDEST PUSH1 0x0 DUP3 DUP3 MSTORE PUSH1 0x20 DUP3 ADD SWAP1 POP SWAP3 SWAP2 POP POP JUMP JUMPDEST PUSH1 0x0 JUMPDEST DUP4 DUP2 LT ISZERO PUSH2 0x1093 JUMPI DUP1 DUP3 ADD MLOAD DUP2 DUP5 ADD MSTORE PUSH1 0x20 DUP2 ADD SWAP1 POP PUSH2 0x1078 JUMP JUMPDEST PUSH1 0x0 DUP5 DUP5 ADD MSTORE POP POP POP POP JUMP JUMPDEST PUSH1 0x0 PUSH2 0x10AA DUP3 PUSH2 0x1059 JUMP JUMPDEST PUSH2 0x10B4 DUP2 DUP6 PUSH2 0x1064 JUMP JUMPDEST SWAP4 POP PUSH2 0x10C4 DUP2 DUP6 PUSH1 0x20 DUP7 ADD PUSH2 0x1075 JUMP JUMPDEST PUSH2 0x10CD DUP2 PUSH2 0xE6F JUMP JUMPDEST DUP5 ADD SWAP2 POP POP SWAP3 SWAP2 POP POP JUMP JUMPDEST PUSH1 0x0 PUSH1 0x20 DUP3 ADD SWAP1 POP DUP2 DUP2 SUB PUSH1 0x0 DUP4 ADD MSTORE PUSH2 0x10F2 DUP2 DUP5 PUSH2 0x109F JUMP JUMPDEST SWAP1 POP SWAP3 SWAP2 POP POP JUMP JUMPDEST PUSH1 0x0 DUP2 MLOAD SWAP1 POP SWAP2 SWAP1 POP JUMP JUMPDEST PUSH1 0x0 DUP3 DUP3 MSTORE PUSH1 0x20 DUP3 ADD SWAP1 POP SWAP3 SWAP2 POP POP JUMP JUMPDEST PUSH1 0x0 DUP2 SWAP1 POP PUSH1 0x20 DUP3 ADD SWAP1 POP SWAP2 SWAP1 POP JUMP JUMPDEST PUSH2 0x112F DUP2 PUSH2 0xD69 JUMP JUMPDEST DUP3 MSTORE POP POP JUMP JUMPDEST PUSH2 0x113E DUP2 PUSH2 0xCE6 JUMP JUMPDEST DUP3 MSTORE POP POP JUMP JUMPDEST PUSH1 0x80 DUP3 ADD PUSH1 0x0 DUP3 ADD MLOAD PUSH2 0x115A PUSH1 0x0 DUP6 ADD DUP3 PUSH2 0x1126 JUMP JUMPDEST POP PUSH1 0x20 DUP3 ADD MLOAD PUSH2 0x116D PUSH1 0x20 DUP6 ADD DUP3 PUSH2 0x1126 JUMP JUMPDEST POP PUSH1 0x40 DUP3 ADD MLOAD PUSH2 0x1180 PUSH1 0x40 DUP6 ADD DUP3 PUSH2 0x1135 JUMP JUMPDEST POP PUSH1 0x60 DUP3 ADD MLOAD PUSH2 0x1193 PUSH1 0x60 DUP6 ADD DUP3 PUSH2 0x1135 JUMP JUMPDEST POP POP POP POP JUMP JUMPDEST PUSH1 0x0 PUSH2 0x11A5 DUP4 DUP4 PUSH2 0x1144 JUMP JUMPDEST PUSH1 0x80 DUP4 ADD SWAP1 POP SWAP3 SWAP2 POP POP JUMP JUMPDEST PUSH1 0x0 PUSH1 0x20 DUP3 ADD SWAP1 POP SWAP2 SWAP1 POP JUMP JUMPDEST PUSH1 0x0 PUSH2 0x11C9 DUP3 PUSH2 0x10FA JUMP JUMPDEST PUSH2 0x11D3 DUP2 DUP6 PUSH2 0x1105 JUMP JUMPDEST SWAP4 POP PUSH2 0x11DE DUP4 PUSH2 0x1116 JUMP JUMPDEST DUP1 PUSH1 0x0 JUMPDEST DUP4 DUP2 LT ISZERO PUSH2 0x120F JUMPI DUP2 MLOAD PUSH2 0x11F6 DUP9 DUP3 PUSH2 0x1199 JUMP JUMPDEST SWAP8 POP PUSH2 0x1201 DUP4 PUSH2 0x11B1 JUMP JUMPDEST SWAP3 POP POP PUSH1 0x1 DUP2 ADD SWAP1 POP PUSH2 0x11E2 JUMP JUMPDEST POP DUP6 SWAP4 POP POP POP POP SWAP3 SWAP2 POP POP JUMP JUMPDEST PUSH1 0x0 PUSH1 0x20 DUP3 ADD SWAP1 POP DUP2 DUP2 SUB PUSH1 0x0 DUP4 ADD MSTORE PUSH2 0x1236 DUP2 DUP5 PUSH2 0x11BE JUMP JUMPDEST SWAP1 POP SWAP3 SWAP2 POP POP JUMP JUMPDEST PUSH32 0x2054686973206164647265737320646F65736E27742065786973747300000000 PUSH1 0x0 DUP3 ADD MSTORE POP JUMP JUMPDEST PUSH1 0x0 PUSH2 0x1274 PUSH1 0x1C DUP4 PUSH2 0x1064 JUMP JUMPDEST SWAP2 POP PUSH2 0x127F DUP3 PUSH2 0x123E JUMP JUMPDEST PUSH1 0x20 DUP3 ADD SWAP1 POP SWAP2 SWAP1 POP JUMP JUMPDEST PUSH1 0x0 PUSH1 0x20 DUP3 ADD SWAP1 POP DUP2 DUP2 SUB PUSH1 0x0 DUP4 ADD MSTORE PUSH2 0x12A3 DUP2 PUSH2 0x1267 JUMP JUMPDEST SWAP1 POP SWAP2 SWAP1 POP JUMP JUMPDEST PUSH32 0x506C6561736520696E7365727420796F75722063617264000000000000000000 PUSH1 0x0 DUP3 ADD MSTORE POP JUMP JUMPDEST PUSH1 0x0 PUSH2 0x12E0 PUSH1 0x17 DUP4 PUSH2 0x1064 JUMP JUMPDEST SWAP2 POP PUSH2 0x12EB DUP3 PUSH2 0x12AA JUMP JUMPDEST PUSH1 0x20 DUP3 ADD SWAP1 POP SWAP2 SWAP1 POP JUMP JUMPDEST PUSH1 0x0 PUSH1 0x20 DUP3 ADD SWAP1 POP DUP2 DUP2 SUB PUSH1 0x0 DUP4 ADD MSTORE PUSH2 0x130F DUP2 PUSH2 0x12D3 JUMP JUMPDEST SWAP1 POP SWAP2 SWAP1 POP JUMP JUMPDEST PUSH32 0x4E487B7100000000000000000000000000000000000000000000000000000000 PUSH1 0x0 MSTORE PUSH1 0x11 PUSH1 0x4 MSTORE PUSH1 0x24 PUSH1 0x0 REVERT JUMPDEST PUSH1 0x0 PUSH2 0x1350 DUP3 PUSH2 0xCE6 JUMP JUMPDEST SWAP2 POP PUSH2 0x135B DUP4 PUSH2 0xCE6 JUMP JUMPDEST SWAP3 POP DUP3 DUP3 ADD SWAP1 POP DUP1 DUP3 GT ISZERO PUSH2 0x1373 JUMPI PUSH2 0x1372 PUSH2 0x1316 JUMP JUMPDEST JUMPDEST SWAP3 SWAP2 POP POP JUMP JUMPDEST PUSH32 0x4E487B7100000000000000000000000000000000000000000000000000000000 PUSH1 0x0 MSTORE PUSH1 0x1 PUSH1 0x4 MSTORE PUSH1 0x24 PUSH1 0x0 REVERT JUMPDEST PUSH32 0x6F6E6C792035207472616E73616374696F6E7320706572206461790000000000 PUSH1 0x0 DUP3 ADD MSTORE POP JUMP JUMPDEST PUSH1 0x0 PUSH2 0x13DE PUSH1 0x1B DUP4 PUSH2 0x1064 JUMP JUMPDEST SWAP2 POP PUSH2 0x13E9 DUP3 PUSH2 0x13A8 JUMP JUMPDEST PUSH1 0x20 DUP3 ADD SWAP1 POP SWAP2 SWAP1 POP JUMP JUMPDEST PUSH1 0x0 PUSH1 0x20 DUP3 ADD SWAP1 POP DUP2 DUP2 SUB PUSH1 0x0 DUP4 ADD MSTORE PUSH2 0x140D DUP2 PUSH2 0x13D1 JUMP JUMPDEST SWAP1 POP SWAP2 SWAP1 POP JUMP JUMPDEST PUSH1 0x0 PUSH2 0x141F DUP3 PUSH2 0xCE6 JUMP JUMPDEST SWAP2 POP PUSH2 0x142A DUP4 PUSH2 0xCE6 JUMP JUMPDEST SWAP3 POP DUP3 DUP3 SUB SWAP1 POP DUP2 DUP2 GT ISZERO PUSH2 0x1442 JUMPI PUSH2 0x1441 PUSH2 0x1316 JUMP JUMPDEST JUMPDEST SWAP3 SWAP2 POP POP JUMP JUMPDEST PUSH32 0x4E487B7100000000000000000000000000000000000000000000000000000000 PUSH1 0x0 MSTORE PUSH1 0x22 PUSH1 0x4 MSTORE PUSH1 0x24 PUSH1 0x0 REVERT JUMPDEST PUSH1 0x0 PUSH1 0x2 DUP3 DIV SWAP1 POP PUSH1 0x1 DUP3 AND DUP1 PUSH2 0x148F JUMPI PUSH1 0x7F DUP3 AND SWAP2 POP JUMPDEST PUSH1 0x20 DUP3 LT DUP2 SUB PUSH2 0x14A2 JUMPI PUSH2 0x14A1 PUSH2 0x1448 JUMP JUMPDEST JUMPDEST POP SWAP2 SWAP1 POP JUMP JUMPDEST PUSH1 0x0 DUP2 SWAP1 POP DUP2 PUSH1 0x0 MSTORE PUSH1 0x20 PUSH1 0x0 KECCAK256 SWAP1 POP SWAP2 SWAP1 POP JUMP JUMPDEST PUSH1 0x0 PUSH1 0x20 PUSH1 0x1F DUP4 ADD DIV SWAP1 POP SWAP2 SWAP1 POP JUMP JUMPDEST PUSH1 0x0 DUP3 DUP3 SHL SWAP1 POP SWAP3 SWAP2 POP POP JUMP JUMPDEST PUSH1 0x0 PUSH1 0x8 DUP4 MUL PUSH2 0x150A PUSH32 0xFFFFFFFFFFFFFFFFFFFFFFFFFFFFFFFFFFFFFFFFFFFFFFFFFFFFFFFFFFFFFFFF DUP3 PUSH2 0x14CD JUMP JUMPDEST PUSH2 0x1514 DUP7 DUP4 PUSH2 0x14CD JUMP JUMPDEST SWAP6 POP DUP1 NOT DUP5 AND SWAP4 POP DUP1 DUP7 AND DUP5 OR SWAP3 POP POP POP SWAP4 SWAP3 POP POP POP JUMP JUMPDEST PUSH1 0x0 DUP2 SWAP1 POP SWAP2 SWAP1 POP JUMP JUMPDEST PUSH1 0x0 PUSH2 0x1551 PUSH2 0x154C PUSH2 0x1547 DUP5 PUSH2 0xCE6 JUMP JUMPDEST PUSH2 0x152C JUMP JUMPDEST PUSH2 0xCE6 JUMP JUMPDEST SWAP1 POP SWAP2 SWAP1 POP JUMP JUMPDEST PUSH1 0x0 DUP2 SWAP1 POP SWAP2 SWAP1 POP JUMP JUMPDEST PUSH2 0x156B DUP4 PUSH2 0x1536 JUMP JUMPDEST PUSH2 0x157F PUSH2 0x1577 DUP3 PUSH2 0x1558 JUMP JUMPDEST DUP5 DUP5 SLOAD PUSH2 0x14DA JUMP JUMPDEST DUP3 SSTORE POP POP POP POP JUMP JUMPDEST PUSH1 0x0 SWAP1 JUMP JUMPDEST PUSH2 0x1594 PUSH2 0x1587 JUMP JUMPDEST PUSH2 0x159F DUP2 DUP5 DUP5 PUSH2 0x1562 JUMP JUMPDEST POP POP POP JUMP JUMPDEST JUMPDEST DUP2 DUP2 LT ISZERO PUSH2 0x15C3 JUMPI PUSH2 0x15B8 PUSH1 0x0 DUP3 PUSH2 0x158C JUMP JUMPDEST PUSH1 0x1 DUP2 ADD SWAP1 POP PUSH2 0x15A5 JUMP JUMPDEST POP POP JUMP JUMPDEST PUSH1 0x1F DUP3 GT ISZERO PUSH2 0x1608 JUMPI PUSH2 0x15D9 DUP2 PUSH2 0x14A8 JUMP JUMPDEST PUSH2 0x15E2 DUP5 PUSH2 0x14BD JUMP JUMPDEST DUP2 ADD PUSH1 0x20 DUP6 LT ISZERO PUSH2 0x15F1 JUMPI DUP2 SWAP1 POP JUMPDEST PUSH2 0x1605 PUSH2 0x15FD DUP6 PUSH2 0x14BD JUMP JUMPDEST DUP4 ADD DUP3 PUSH2 0x15A4 JUMP JUMPDEST POP POP JUMPDEST POP POP POP JUMP JUMPDEST PUSH1 0x0 DUP3 DUP3 SHR SWAP1 POP SWAP3 SWAP2 POP POP JUMP JUMPDEST PUSH1 0x0 PUSH2 0x162B PUSH1 0x0 NOT DUP5 PUSH1 0x8 MUL PUSH2 0x160D JUMP JUMPDEST NOT DUP1 DUP4 AND SWAP2 POP POP SWAP3 SWAP2 POP POP JUMP JUMPDEST PUSH1 0x0 PUSH2 0x1644 DUP4 DUP4 PUSH2 0x161A JUMP JUMPDEST SWAP2 POP DUP3 PUSH1 0x2 MUL DUP3 OR SWAP1 POP SWAP3 SWAP2 POP POP JUMP JUMPDEST PUSH2 0x165D DUP3 PUSH2 0x1059 JUMP JUMPDEST PUSH8 0xFFFFFFFFFFFFFFFF DUP2 GT ISZERO PUSH2 0x1676 JUMPI PUSH2 0x1675 PUSH2 0xE80 JUMP JUMPDEST JUMPDEST PUSH2 0x1680 DUP3 SLOAD PUSH2 0x1477 JUMP JUMPDEST PUSH2 0x168B DUP3 DUP3 DUP6 PUSH2 0x15C7 JUMP JUMPDEST PUSH1 0x0 PUSH1 0x20 SWAP1 POP PUSH1 0x1F DUP4 GT PUSH1 0x1 DUP2 EQ PUSH2 0x16BE JUMPI PUSH1 0x0 DUP5 ISZERO PUSH2 0x16AC JUMPI DUP3 DUP8 ADD MLOAD SWAP1 POP JUMPDEST PUSH2 0x16B6 DUP6 DUP3 PUSH2 0x1638 JUMP JUMPDEST DUP7 SSTORE POP PUSH2 0x171E JUMP JUMPDEST PUSH1 0x1F NOT DUP5 AND PUSH2 0x16CC DUP7 PUSH2 0x14A8 JUMP JUMPDEST PUSH1 0x0 JUMPDEST DUP3 DUP2 LT ISZERO PUSH2 0x16F4 JUMPI DUP5 DUP10 ADD MLOAD DUP3 SSTORE PUSH1 0x1 DUP3 ADD SWAP2 POP PUSH1 0x20 DUP6 ADD SWAP5 POP PUSH1 0x20 DUP2 ADD SWAP1 POP PUSH2 0x16CF JUMP JUMPDEST DUP7 DUP4 LT ISZERO PUSH2 0x1711 JUMPI DUP5 DUP10 ADD MLOAD PUSH2 0x170D PUSH1 0x1F DUP10 AND DUP3 PUSH2 0x161A JUMP JUMPDEST DUP4 SSTORE POP JUMPDEST PUSH1 0x1 PUSH1 0x2 DUP9 MUL ADD DUP9 SSTORE POP POP POP JUMPDEST POP POP POP POP POP POP JUMP JUMPDEST PUSH32 0x4E6F7420656E6F7567682066756E647300000000000000000000000000000000 PUSH1 0x0 DUP3 ADD MSTORE POP JUMP JUMPDEST PUSH1 0x0 PUSH2 0x175C PUSH1 0x10 DUP4 PUSH2 0x1064 JUMP JUMPDEST SWAP2 POP PUSH2 0x1767 DUP3 PUSH2 0x1726 JUMP JUMPDEST PUSH1 0x20 DUP3 ADD SWAP1 POP SWAP2 SWAP1 POP JUMP JUMPDEST PUSH1 0x0 PUSH1 0x20 DUP3 ADD SWAP1 POP DUP2 DUP2 SUB PUSH1 0x0 DUP4 ADD MSTORE PUSH2 0x178B DUP2 PUSH2 0x174F JUMP JUMPDEST SWAP1 POP SWAP2 SWAP1 POP JUMP JUMPDEST PUSH32 0x4E6F2076616C6964206372656469742063617264000000000000000000000000 PUSH1 0x0 DUP3 ADD MSTORE POP JUMP JUMPDEST PUSH1 0x0 PUSH2 0x17C8 PUSH1 0x14 DUP4 PUSH2 0x1064 JUMP JUMPDEST SWAP2 POP PUSH2 0x17D3 DUP3 PUSH2 0x1792 JUMP JUMPDEST PUSH1 0x20 DUP3 ADD SWAP1 POP SWAP2 SWAP1 POP JUMP JUMPDEST PUSH1 0x0 PUSH1 0x20 DUP3 ADD SWAP1 POP DUP2 DUP2 SUB PUSH1 0x0 DUP4 ADD MSTORE PUSH2 0x17F7 DUP2 PUSH2 0x17BB JUMP JUMPDEST SWAP1 POP SWAP2 SWAP1 POP JUMP INVALID LOG2 PUSH5 0x6970667358 0x22 SLT KECCAK256 CODESIZE DUP14 0xF8 JUMPI 0xD1 0xD2 CALLER PUSH8 0xAF21BBAC40D01B7E PUSH20 0x1D105940E54160D1E4DB9EC841E80564736F6C63 NUMBER STOP ADDMOD LT STOP CALLER "
				},
				"gasEstimates": {
					"creation": {
						"codeDepositCost": "1239200",
						"executionCost": "infinite",
						"totalCost": "infinite"
					},
					"external": {
						"TotalAmount()": "2518",
						"TotalFunds()": "2496",
						"amount()": "2495",
						"callCount()": "2496",
						"callPutCard()": "2494",
						"cardNumber()": "infinite",
						"cvv()": "infinite",
						"firstTransferTime()": "2497",
						"getOutCard()": "24433",
						"getTime()": "425",
						"getTransaction()": "infinite",
						"message()": "infinite",
						"sendMoney(uint256,address)": "infinite",
						"setCard(string,string)": "infinite",
						"transactionList(uint256)": "infinite",
						"trn(uint256)": "infinite"
					}
				},
				"methodIdentifiers": {
					"TotalAmount()": "7eb9f571",
					"TotalFunds()": "7b9a3f4c",
					"amount()": "aa8c217c",
					"callCount()": "4b28f9a2",
					"callPutCard()": "3c626f00",
					"cardNumber()": "8fa11864",
					"cvv()": "42fb7936",
					"firstTransferTime()": "0e85fa72",
					"getOutCard()": "8e029c0b",
					"getTime()": "557ed1ba",
					"getTransaction()": "59705f81",
					"message()": "e21f37ce",
					"sendMoney(uint256,address)": "062a7544",
					"setCard(string,string)": "12a029a4",
					"transactionList(uint256)": "04ef5b21",
					"trn(uint256)": "57bf72e3"
				}
			},
			"storageLayout": {
				"storage": [
					{
						"astId": 271,
						"contract": "Dapp/MoneyTransfer.sol:MoneyTransfer",
						"label": "transactionList",
						"offset": 0,
						"slot": "0",
						"type": "t_array(t_struct(Transactions)267_storage)dyn_storage"
					},
					{
						"astId": 276,
						"contract": "Dapp/MoneyTransfer.sol:MoneyTransfer",
						"label": "trn",
						"offset": 0,
						"slot": "1",
						"type": "t_mapping(t_uint256,t_struct(Transactions)267_storage)"
					},
					{
						"astId": 279,
						"contract": "Dapp/MoneyTransfer.sol:MoneyTransfer",
						"label": "counter",
						"offset": 0,
						"slot": "2",
						"type": "t_uint256"
					},
					{
						"astId": 6,
						"contract": "Dapp/MoneyTransfer.sol:MoneyTransfer",
						"label": "amount",
						"offset": 0,
						"slot": "3",
						"type": "t_uint256"
					},
					{
						"astId": 8,
						"contract": "Dapp/MoneyTransfer.sol:MoneyTransfer",
						"label": "TotalFunds",
						"offset": 0,
						"slot": "4",
						"type": "t_uint256"
					},
					{
						"astId": 10,
						"contract": "Dapp/MoneyTransfer.sol:MoneyTransfer",
						"label": "receiver",
						"offset": 0,
						"slot": "5",
						"type": "t_address"
					},
					{
						"astId": 12,
						"contract": "Dapp/MoneyTransfer.sol:MoneyTransfer",
						"label": "message",
						"offset": 0,
						"slot": "6",
						"type": "t_string_storage"
					},
					{
						"astId": 14,
						"contract": "Dapp/MoneyTransfer.sol:MoneyTransfer",
						"label": "cardNumber",
						"offset": 0,
						"slot": "7",
						"type": "t_string_storage"
					},
					{
						"astId": 16,
						"contract": "Dapp/MoneyTransfer.sol:MoneyTransfer",
						"label": "cvv",
						"offset": 0,
						"slot": "8",
						"type": "t_string_storage"
					},
					{
						"astId": 18,
						"contract": "Dapp/MoneyTransfer.sol:MoneyTransfer",
						"label": "TotalAmount",
						"offset": 0,
						"slot": "9",
						"type": "t_uint256"
					},
					{
						"astId": 20,
						"contract": "Dapp/MoneyTransfer.sol:MoneyTransfer",
						"label": "firstTransferTime",
						"offset": 0,
						"slot": "10",
						"type": "t_uint256"
					},
					{
						"astId": 33,
						"contract": "Dapp/MoneyTransfer.sol:MoneyTransfer",
						"label": "callCount",
						"offset": 0,
						"slot": "11",
						"type": "t_uint256"
					},
					{
						"astId": 36,
						"contract": "Dapp/MoneyTransfer.sol:MoneyTransfer",
						"label": "callPutCard",
						"offset": 0,
						"slot": "12",
						"type": "t_bool"
					}
				],
				"types": {
					"t_address": {
						"encoding": "inplace",
						"label": "address",
						"numberOfBytes": "20"
					},
					"t_array(t_struct(Transactions)267_storage)dyn_storage": {
						"base": "t_struct(Transactions)267_storage",
						"encoding": "dynamic_array",
						"label": "struct Transaction.Transactions[]",
						"numberOfBytes": "32"
					},
					"t_bool": {
						"encoding": "inplace",
						"label": "bool",
						"numberOfBytes": "1"
					},
					"t_mapping(t_uint256,t_struct(Transactions)267_storage)": {
						"encoding": "mapping",
						"key": "t_uint256",
						"label": "mapping(uint256 => struct Transaction.Transactions)",
						"numberOfBytes": "32",
						"value": "t_struct(Transactions)267_storage"
					},
					"t_string_storage": {
						"encoding": "bytes",
						"label": "string",
						"numberOfBytes": "32"
					},
					"t_struct(Transactions)267_storage": {
						"encoding": "inplace",
						"label": "struct Transaction.Transactions",
						"members": [
							{
								"astId": 260,
								"contract": "Dapp/MoneyTransfer.sol:MoneyTransfer",
								"label": "address_from",
								"offset": 0,
								"slot": "0",
								"type": "t_address"
							},
							{
								"astId": 262,
								"contract": "Dapp/MoneyTransfer.sol:MoneyTransfer",
								"label": "address_to",
								"offset": 0,
								"slot": "1",
								"type": "t_address"
							},
							{
								"astId": 264,
								"contract": "Dapp/MoneyTransfer.sol:MoneyTransfer",
								"label": "amount",
								"offset": 0,
								"slot": "2",
								"type": "t_uint256"
							},
							{
								"astId": 266,
								"contract": "Dapp/MoneyTransfer.sol:MoneyTransfer",
								"label": "timestamp",
								"offset": 0,
								"slot": "3",
								"type": "t_uint256"
							}
						],
						"numberOfBytes": "128"
					},
					"t_uint256": {
						"encoding": "inplace",
						"label": "uint256",
						"numberOfBytes": "32"
					}
				}
			},
			"userdoc": {
				"kind": "user",
				"methods": {},
				"version": 1
			}
		}
	}
}