{
	"Dapp/MoneyTransfer.sol": {
		"MoneyTransfer": {
			"abi": [
				{
					"inputs": [
						{
							"internalType": "uint256",
							"name": "_totalFunds",
							"type": "uint256"
						}
					],
					"stateMutability": "nonpayable",
					"type": "constructor"
				},
				{
					"inputs": [],
					"name": "TotalAmount",
					"outputs": [
						{
							"internalType": "uint256",
							"name": "",
							"type": "uint256"
						}
					],
					"stateMutability": "view",
					"type": "function"
				},
				{
					"inputs": [],
					"name": "TotalFunds",
					"outputs": [
						{
							"internalType": "uint256",
							"name": "",
							"type": "uint256"
						}
					],
					"stateMutability": "view",
					"type": "function"
				},
				{
					"inputs": [
						{
							"internalType": "address",
							"name": "_address_from",
							"type": "address"
						},
						{
							"internalType": "address",
							"name": "_address_to",
							"type": "address"
						},
						{
							"internalType": "uint256",
							"name": "_amount",
							"type": "uint256"
						},
						{
							"internalType": "uint256",
							"name": "_timestamp",
							"type": "uint256"
						}
					],
					"name": "addTransaction",
					"outputs": [],
					"stateMutability": "nonpayable",
					"type": "function"
				},
				{
					"inputs": [],
					"name": "amount",
					"outputs": [
						{
							"internalType": "uint256",
							"name": "",
							"type": "uint256"
						}
					],
					"stateMutability": "view",
					"type": "function"
				},
				{
					"inputs": [],
					"name": "callCount",
					"outputs": [
						{
							"internalType": "uint256",
							"name": "",
							"type": "uint256"
						}
					],
					"stateMutability": "view",
					"type": "function"
				},
				{
					"inputs": [],
					"name": "callPutCard",
					"outputs": [
						{
							"internalType": "bool",
							"name": "",
							"type": "bool"
						}
					],
					"stateMutability": "view",
					"type": "function"
				},
				{
					"inputs": [],
					"name": "cardNumber",
					"outputs": [
						{
							"internalType": "string",
							"name": "",
							"type": "string"
						}
					],
					"stateMutability": "view",
					"type": "function"
				},
				{
					"inputs": [],
					"name": "cvv",
					"outputs": [
						{
							"internalType": "string",
							"name": "",
							"type": "string"
						}
					],
					"stateMutability": "view",
					"type": "function"
				},
				{
					"inputs": [],
					"name": "firstTransferTime",
					"outputs": [
						{
							"internalType": "uint256",
							"name": "",
							"type": "uint256"
						}
					],
					"stateMutability": "view",
					"type": "function"
				},
				{
					"inputs": [],
					"name": "getOutCard",
					"outputs": [],
					"stateMutability": "nonpayable",
					"type": "function"
				},
				{
					"inputs": [],
					"name": "getTime",
					"outputs": [
						{
							"internalType": "uint256",
							"name": "",
							"type": "uint256"
						}
					],
					"stateMutability": "view",
					"type": "function"
				},
				{
					"inputs": [],
					"name": "message",
					"outputs": [
						{
							"internalType": "string",
							"name": "",
							"type": "string"
						}
					],
					"stateMutability": "view",
					"type": "function"
				},
				{
					"inputs": [
						{
							"internalType": "uint256",
							"name": "_amount",
							"type": "uint256"
						},
						{
							"internalType": "address",
							"name": "_receiver",
							"type": "address"
						}
					],
					"name": "sendMoney",
					"outputs": [],
					"stateMutability": "nonpayable",
					"type": "function"
				},
				{
					"inputs": [
						{
							"internalType": "string",
							"name": "_cardNumber",
							"type": "string"
						},
						{
							"internalType": "string",
							"name": "_cvv",
							"type": "string"
						}
					],
					"name": "setCard",
					"outputs": [],
					"stateMutability": "nonpayable",
					"type": "function"
				},
				{
					"inputs": [
						{
							"internalType": "uint256",
							"name": "",
							"type": "uint256"
						}
					],
					"name": "transactionList",
					"outputs": [
						{
							"internalType": "address",
							"name": "address_from",
							"type": "address"
						},
						{
							"internalType": "address",
							"name": "address_to",
							"type": "address"
						},
						{
							"internalType": "uint256",
							"name": "amount",
							"type": "uint256"
						},
						{
							"internalType": "uint256",
							"name": "timestamp",
							"type": "uint256"
						}
					],
					"stateMutability": "view",
					"type": "function"
				}
			],
			"devdoc": {
				"kind": "dev",
				"methods": {},
				"version": 1
			},
			"evm": {
				"assembly": "    /* \"Dapp/MoneyTransfer.sol\":98:4165  contract  MoneyTransfer is Transaction{... */\n  mstore(0x40, 0x80)\n    /* \"Dapp/MoneyTransfer.sol\":831:832  0 */\n  0x00\n    /* \"Dapp/MoneyTransfer.sol\":807:832  uint public callCount = 0 */\n  0x09\n  sstore\n    /* \"Dapp/MoneyTransfer.sol\":866:871  false */\n  0x00\n    /* \"Dapp/MoneyTransfer.sol\":840:871  bool public callPutCard = false */\n  0x0a\n  exp(0x0100, 0x00)\n  dup2\n  sload\n  dup2\n  0xff\n  mul\n  not\n  and\n  swap1\n  dup4\n  iszero\n  iszero\n  mul\n  or\n  swap1\n  sstore\n  pop\n    /* \"Dapp/MoneyTransfer.sol\":656:795  constructor (uint256 _totalFunds) {... */\n  callvalue\n  dup1\n  iszero\n  tag_1\n  jumpi\n  0x00\n  dup1\n  revert\ntag_1:\n  pop\n  mload(0x40)\n  sub(codesize, bytecodeSize)\n  dup1\n  bytecodeSize\n  dup4\n  codecopy\n  dup2\n  dup2\n  add\n  0x40\n  mstore\n  dup2\n  add\n  swap1\n  tag_2\n  swap2\n  swap1\n  tag_3\n  jump\t// in\ntag_2:\n    /* \"Dapp/MoneyTransfer.sol\":776:787  _totalFunds */\n  dup1\n    /* \"Dapp/MoneyTransfer.sol\":763:773  TotalFunds */\n  0x02\n    /* \"Dapp/MoneyTransfer.sol\":763:787  TotalFunds = _totalFunds */\n  dup2\n  swap1\n  sstore\n  pop\n    /* \"Dapp/MoneyTransfer.sol\":656:795  constructor (uint256 _totalFunds) {... */\n  pop\n    /* \"Dapp/MoneyTransfer.sol\":98:4165  contract  MoneyTransfer is Transaction{... */\n  jump(tag_6)\n    /* \"#utility.yul\":88:205   */\ntag_8:\n    /* \"#utility.yul\":197:198   */\n  0x00\n    /* \"#utility.yul\":194:195   */\n  dup1\n    /* \"#utility.yul\":187:199   */\n  revert\n    /* \"#utility.yul\":334:411   */\ntag_10:\n    /* \"#utility.yul\":371:378   */\n  0x00\n    /* \"#utility.yul\":400:405   */\n  dup2\n    /* \"#utility.yul\":389:405   */\n  swap1\n  pop\n    /* \"#utility.yul\":334:411   */\n  swap2\n  swap1\n  pop\n  jump\t// out\n    /* \"#utility.yul\":417:539   */\ntag_11:\n    /* \"#utility.yul\":490:514   */\n  tag_19\n    /* \"#utility.yul\":508:513   */\n  dup2\n    /* \"#utility.yul\":490:514   */\n  tag_10\n  jump\t// in\ntag_19:\n    /* \"#utility.yul\":483:488   */\n  dup2\n    /* \"#utility.yul\":480:515   */\n  eq\n    /* \"#utility.yul\":470:533   */\n  tag_20\n  jumpi\n    /* \"#utility.yul\":529:530   */\n  0x00\n    /* \"#utility.yul\":526:527   */\n  dup1\n    /* \"#utility.yul\":519:531   */\n  revert\n    /* \"#utility.yul\":470:533   */\ntag_20:\n    /* \"#utility.yul\":417:539   */\n  pop\n  jump\t// out\n    /* \"#utility.yul\":545:688   */\ntag_12:\n    /* \"#utility.yul\":602:607   */\n  0x00\n    /* \"#utility.yul\":633:639   */\n  dup2\n    /* \"#utility.yul\":627:640   */\n  mload\n    /* \"#utility.yul\":618:640   */\n  swap1\n  pop\n    /* \"#utility.yul\":649:682   */\n  tag_22\n    /* \"#utility.yul\":676:681   */\n  dup2\n    /* \"#utility.yul\":649:682   */\n  tag_11\n  jump\t// in\ntag_22:\n    /* \"#utility.yul\":545:688   */\n  swap3\n  swap2\n  pop\n  pop\n  jump\t// out\n    /* \"#utility.yul\":694:1045   */\ntag_3:\n    /* \"#utility.yul\":764:770   */\n  0x00\n    /* \"#utility.yul\":813:815   */\n  0x20\n    /* \"#utility.yul\":801:810   */\n  dup3\n    /* \"#utility.yul\":792:799   */\n  dup5\n    /* \"#utility.yul\":788:811   */\n  sub\n    /* \"#utility.yul\":784:816   */\n  slt\n    /* \"#utility.yul\":781:900   */\n  iszero\n  tag_24\n  jumpi\n    /* \"#utility.yul\":819:898   */\n  tag_25\n  tag_8\n  jump\t// in\ntag_25:\n    /* \"#utility.yul\":781:900   */\ntag_24:\n    /* \"#utility.yul\":939:940   */\n  0x00\n    /* \"#utility.yul\":964:1028   */\n  tag_26\n    /* \"#utility.yul\":1020:1027   */\n  dup5\n    /* \"#utility.yul\":1011:1017   */\n  dup3\n    /* \"#utility.yul\":1000:1009   */\n  dup6\n    /* \"#utility.yul\":996:1018   */\n  add\n    /* \"#utility.yul\":964:1028   */\n  tag_12\n  jump\t// in\ntag_26:\n    /* \"#utility.yul\":954:1028   */\n  swap2\n  pop\n    /* \"#utility.yul\":910:1038   */\n  pop\n    /* \"#utility.yul\":694:1045   */\n  swap3\n  swap2\n  pop\n  pop\n  jump\t// out\n    /* \"Dapp/MoneyTransfer.sol\":98:4165  contract  MoneyTransfer is Transaction{... */\ntag_6:\n  dataSize(sub_0)\n  dup1\n  dataOffset(sub_0)\n  0x00\n  codecopy\n  0x00\n  return\nstop\n\nsub_0: assembly {\n        /* \"Dapp/MoneyTransfer.sol\":98:4165  contract  MoneyTransfer is Transaction{... */\n      mstore(0x40, 0x80)\n      callvalue\n      dup1\n      iszero\n      tag_1\n      jumpi\n      0x00\n      dup1\n      revert\n    tag_1:\n      pop\n      jumpi(tag_2, lt(calldatasize, 0x04))\n      shr(0xe0, calldataload(0x00))\n      dup1\n      0x557ed1ba\n      gt\n      tag_18\n      jumpi\n      dup1\n      0x8fa11864\n      gt\n      tag_19\n      jumpi\n      dup1\n      0x8fa11864\n      eq\n      tag_14\n      jumpi\n      dup1\n      0x97838c72\n      eq\n      tag_15\n      jumpi\n      dup1\n      0xaa8c217c\n      eq\n      tag_16\n      jumpi\n      dup1\n      0xe21f37ce\n      eq\n      tag_17\n      jumpi\n      jump(tag_2)\n    tag_19:\n      dup1\n      0x557ed1ba\n      eq\n      tag_10\n      jumpi\n      dup1\n      0x7b9a3f4c\n      eq\n      tag_11\n      jumpi\n      dup1\n      0x7eb9f571\n      eq\n      tag_12\n      jumpi\n      dup1\n      0x8e029c0b\n      eq\n      tag_13\n      jumpi\n      jump(tag_2)\n    tag_18:\n      dup1\n      0x12a029a4\n      gt\n      tag_20\n      jumpi\n      dup1\n      0x12a029a4\n      eq\n      tag_6\n      jumpi\n      dup1\n      0x3c626f00\n      eq\n      tag_7\n      jumpi\n      dup1\n      0x42fb7936\n      eq\n      tag_8\n      jumpi\n      dup1\n      0x4b28f9a2\n      eq\n      tag_9\n      jumpi\n      jump(tag_2)\n    tag_20:\n      dup1\n      0x04ef5b21\n      eq\n      tag_3\n      jumpi\n      dup1\n      0x062a7544\n      eq\n      tag_4\n      jumpi\n      dup1\n      0x0e85fa72\n      eq\n      tag_5\n      jumpi\n    tag_2:\n      0x00\n      dup1\n      revert\n        /* \"Dapp/Transaction.sol\":243:280  Transactions[] public transactionList */\n    tag_3:\n      tag_21\n      0x04\n      dup1\n      calldatasize\n      sub\n      dup2\n      add\n      swap1\n      tag_22\n      swap2\n      swap1\n      tag_23\n      jump\t// in\n    tag_22:\n      tag_24\n      jump\t// in\n    tag_21:\n      mload(0x40)\n      tag_25\n      swap5\n      swap4\n      swap3\n      swap2\n      swap1\n      tag_26\n      jump\t// in\n    tag_25:\n      mload(0x40)\n      dup1\n      swap2\n      sub\n      swap1\n      return\n        /* \"Dapp/MoneyTransfer.sol\":881:1688  function sendMoney( uint _amount, address _receiver) public m_validAddress(_receiver) m_ifCardExists m_transferLimit{... */\n    tag_4:\n      tag_27\n      0x04\n      dup1\n      calldatasize\n      sub\n      dup2\n      add\n      swap1\n      tag_28\n      swap2\n      swap1\n      tag_29\n      jump\t// in\n    tag_28:\n      tag_30\n      jump\t// in\n    tag_27:\n      stop\n        /* \"Dapp/MoneyTransfer.sol\":579:608  uint public firstTransferTime */\n    tag_5:\n      tag_31\n      tag_32\n      jump\t// in\n    tag_31:\n      mload(0x40)\n      tag_33\n      swap2\n      swap1\n      tag_34\n      jump\t// in\n    tag_33:\n      mload(0x40)\n      dup1\n      swap2\n      sub\n      swap1\n      return\n        /* \"Dapp/MoneyTransfer.sol\":1696:1961  function setCard(string memory _cardNumber, string memory _cvv) public  m_checkCard {... */\n    tag_6:\n      tag_35\n      0x04\n      dup1\n      calldatasize\n      sub\n      dup2\n      add\n      swap1\n      tag_36\n      swap2\n      swap1\n      tag_37\n      jump\t// in\n    tag_36:\n      tag_38\n      jump\t// in\n    tag_35:\n      stop\n        /* \"Dapp/MoneyTransfer.sol\":840:871  bool public callPutCard = false */\n    tag_7:\n      tag_39\n      tag_40\n      jump\t// in\n    tag_39:\n      mload(0x40)\n      tag_41\n      swap2\n      swap1\n      tag_42\n      jump\t// in\n    tag_41:\n      mload(0x40)\n      dup1\n      swap2\n      sub\n      swap1\n      return\n        /* \"Dapp/MoneyTransfer.sol\":525:542  string public cvv */\n    tag_8:\n      tag_43\n      tag_44\n      jump\t// in\n    tag_43:\n      mload(0x40)\n      tag_45\n      swap2\n      swap1\n      tag_46\n      jump\t// in\n    tag_45:\n      mload(0x40)\n      dup1\n      swap2\n      sub\n      swap1\n      return\n        /* \"Dapp/MoneyTransfer.sol\":807:832  uint public callCount = 0 */\n    tag_9:\n      tag_47\n      tag_48\n      jump\t// in\n    tag_47:\n      mload(0x40)\n      tag_49\n      swap2\n      swap1\n      tag_34\n      jump\t// in\n    tag_49:\n      mload(0x40)\n      dup1\n      swap2\n      sub\n      swap1\n      return\n        /* \"Dapp/MoneyTransfer.sol\":4068:4154  function getTime()public view returns(uint ){... */\n    tag_10:\n      tag_50\n      tag_51\n      jump\t// in\n    tag_50:\n      mload(0x40)\n      tag_52\n      swap2\n      swap1\n      tag_34\n      jump\t// in\n    tag_52:\n      mload(0x40)\n      dup1\n      swap2\n      sub\n      swap1\n      return\n        /* \"Dapp/MoneyTransfer.sol\":175:200  uint256 public TotalFunds */\n    tag_11:\n      tag_53\n      tag_54\n      jump\t// in\n    tag_53:\n      mload(0x40)\n      tag_55\n      swap2\n      swap1\n      tag_34\n      jump\t// in\n    tag_55:\n      mload(0x40)\n      dup1\n      swap2\n      sub\n      swap1\n      return\n        /* \"Dapp/MoneyTransfer.sol\":549:575  uint256 public TotalAmount */\n    tag_12:\n      tag_56\n      tag_57\n      jump\t// in\n    tag_56:\n      mload(0x40)\n      tag_58\n      swap2\n      swap1\n      tag_34\n      jump\t// in\n    tag_58:\n      mload(0x40)\n      dup1\n      swap2\n      sub\n      swap1\n      return\n        /* \"Dapp/MoneyTransfer.sol\":1982:2051  function getOutCard() public  {... */\n    tag_13:\n      tag_59\n      tag_60\n      jump\t// in\n    tag_59:\n      stop\n        /* \"Dapp/MoneyTransfer.sol\":493:517  string public cardNumber */\n    tag_14:\n      tag_61\n      tag_62\n      jump\t// in\n    tag_61:\n      mload(0x40)\n      tag_63\n      swap2\n      swap1\n      tag_46\n      jump\t// in\n    tag_63:\n      mload(0x40)\n      dup1\n      swap2\n      sub\n      swap1\n      return\n        /* \"Dapp/Transaction.sol\":289:567  function addTransaction(address _address_from ,address _address_to, uint _amount, uint _timestamp)public{... */\n    tag_15:\n      tag_64\n      0x04\n      dup1\n      calldatasize\n      sub\n      dup2\n      add\n      swap1\n      tag_65\n      swap2\n      swap1\n      tag_66\n      jump\t// in\n    tag_65:\n      tag_67\n      jump\t// in\n    tag_64:\n      stop\n        /* \"Dapp/MoneyTransfer.sol\":147:168  uint256 public amount */\n    tag_16:\n      tag_68\n      tag_69\n      jump\t// in\n    tag_68:\n      mload(0x40)\n      tag_70\n      swap2\n      swap1\n      tag_34\n      jump\t// in\n    tag_70:\n      mload(0x40)\n      dup1\n      swap2\n      sub\n      swap1\n      return\n        /* \"Dapp/MoneyTransfer.sol\":465:486  string public message */\n    tag_17:\n      tag_71\n      tag_72\n      jump\t// in\n    tag_71:\n      mload(0x40)\n      tag_73\n      swap2\n      swap1\n      tag_46\n      jump\t// in\n    tag_73:\n      mload(0x40)\n      dup1\n      swap2\n      sub\n      swap1\n      return\n        /* \"Dapp/Transaction.sol\":243:280  Transactions[] public transactionList */\n    tag_24:\n      0x00\n      dup2\n      dup2\n      sload\n      dup2\n      lt\n      tag_74\n      jumpi\n      0x00\n      dup1\n      revert\n    tag_74:\n      swap1\n      0x00\n      mstore\n      keccak256(0x00, 0x20)\n      swap1\n      0x04\n      mul\n      add\n      0x00\n      swap2\n      pop\n      swap1\n      pop\n      dup1\n      0x00\n      add\n      0x00\n      swap1\n      sload\n      swap1\n      0x0100\n      exp\n      swap1\n      div\n      0xffffffffffffffffffffffffffffffffffffffff\n      and\n      swap1\n      dup1\n      0x01\n      add\n      0x00\n      swap1\n      sload\n      swap1\n      0x0100\n      exp\n      swap1\n      div\n      0xffffffffffffffffffffffffffffffffffffffff\n      and\n      swap1\n      dup1\n      0x02\n      add\n      sload\n      swap1\n      dup1\n      0x03\n      add\n      sload\n      swap1\n      pop\n      dup5\n      jump\t// out\n        /* \"Dapp/MoneyTransfer.sol\":881:1688  function sendMoney( uint _amount, address _receiver) public m_validAddress(_receiver) m_ifCardExists m_transferLimit{... */\n    tag_30:\n        /* \"Dapp/MoneyTransfer.sol\":956:965  _receiver */\n      dup1\n        /* \"Dapp/MoneyTransfer.sol\":2132:2137  _addr */\n      dup1\n        /* \"Dapp/MoneyTransfer.sol\":2121:2129  receiver */\n      0x03\n      0x00\n        /* \"Dapp/MoneyTransfer.sol\":2121:2137  receiver = _addr */\n      0x0100\n      exp\n      dup2\n      sload\n      dup2\n      0xffffffffffffffffffffffffffffffffffffffff\n      mul\n      not\n      and\n      swap1\n      dup4\n      0xffffffffffffffffffffffffffffffffffffffff\n      and\n      mul\n      or\n      swap1\n      sstore\n      pop\n        /* \"Dapp/MoneyTransfer.sol\":2173:2174  0 */\n      0x00\n        /* \"Dapp/MoneyTransfer.sol\":2156:2175  _addr != address(0) */\n      0xffffffffffffffffffffffffffffffffffffffff\n      and\n        /* \"Dapp/MoneyTransfer.sol\":2156:2161  _addr */\n      dup2\n        /* \"Dapp/MoneyTransfer.sol\":2156:2175  _addr != address(0) */\n      0xffffffffffffffffffffffffffffffffffffffff\n      and\n      sub\n        /* \"Dapp/MoneyTransfer.sol\":2148:2208  require(_addr != address(0), \" This address doesn't exists\") */\n      tag_77\n      jumpi\n      mload(0x40)\n      0x08c379a000000000000000000000000000000000000000000000000000000000\n      dup2\n      mstore\n      0x04\n      add\n      tag_78\n      swap1\n      tag_79\n      jump\t// in\n    tag_78:\n      mload(0x40)\n      dup1\n      swap2\n      sub\n      swap1\n      revert\n    tag_77:\n        /* \"Dapp/MoneyTransfer.sol\":2307:2312  false */\n      0x00\n        /* \"Dapp/MoneyTransfer.sol\":2292:2312  callPutCard != false */\n      iszero\n      iszero\n        /* \"Dapp/MoneyTransfer.sol\":2292:2303  callPutCard */\n      0x0a\n      0x00\n      swap1\n      sload\n      swap1\n      0x0100\n      exp\n      swap1\n      div\n      0xff\n      and\n        /* \"Dapp/MoneyTransfer.sol\":2292:2312  callPutCard != false */\n      iszero\n      iszero\n      sub\n        /* \"Dapp/MoneyTransfer.sol\":2284:2339  require(callPutCard != false,\"Please insert your card\") */\n      tag_81\n      jumpi\n      mload(0x40)\n      0x08c379a000000000000000000000000000000000000000000000000000000000\n      dup2\n      mstore\n      0x04\n      add\n      tag_82\n      swap1\n      tag_83\n      jump\t// in\n    tag_82:\n      mload(0x40)\n      dup1\n      swap2\n      sub\n      swap1\n      revert\n    tag_81:\n        /* \"Dapp/MoneyTransfer.sol\":3619:3620  5 */\n      0x05\n        /* \"Dapp/MoneyTransfer.sol\":3606:3615  callCount */\n      sload(0x09)\n        /* \"Dapp/MoneyTransfer.sol\":3606:3620  callCount >= 5 */\n      lt\n      iszero\n        /* \"Dapp/MoneyTransfer.sol\":3606:3675  callCount >= 5 && block.timestamp <= (firstTransferTime + 30 seconds) */\n      dup1\n      iszero\n      tag_85\n      jumpi\n      pop\n        /* \"Dapp/MoneyTransfer.sol\":3664:3674  30 seconds */\n      0x1e\n        /* \"Dapp/MoneyTransfer.sol\":3644:3661  firstTransferTime */\n      sload(0x08)\n        /* \"Dapp/MoneyTransfer.sol\":3644:3674  firstTransferTime + 30 seconds */\n      tag_86\n      swap2\n      swap1\n      tag_87\n      jump\t// in\n    tag_86:\n        /* \"Dapp/MoneyTransfer.sol\":3624:3639  block.timestamp */\n      timestamp\n        /* \"Dapp/MoneyTransfer.sol\":3624:3675  block.timestamp <= (firstTransferTime + 30 seconds) */\n      gt\n      iszero\n        /* \"Dapp/MoneyTransfer.sol\":3606:3675  callCount >= 5 && block.timestamp <= (firstTransferTime + 30 seconds) */\n    tag_85:\n        /* \"Dapp/MoneyTransfer.sol\":3603:3820  if(callCount >= 5 && block.timestamp <= (firstTransferTime + 30 seconds)){... */\n      iszero\n      tag_88\n      jumpi\n        /* \"Dapp/MoneyTransfer.sol\":3703:3704  0 */\n      0x00\n        /* \"Dapp/MoneyTransfer.sol\":3691:3700  callCount */\n      0x09\n        /* \"Dapp/MoneyTransfer.sol\":3691:3704  callCount = 0 */\n      dup2\n      swap1\n      sstore\n      pop\n        /* \"Dapp/MoneyTransfer.sol\":3739:3740  0 */\n      0x00\n        /* \"Dapp/MoneyTransfer.sol\":3726:3735  callCount */\n      sload(0x09)\n        /* \"Dapp/MoneyTransfer.sol\":3726:3740  callCount == 0 */\n      eq\n        /* \"Dapp/MoneyTransfer.sol\":3719:3741  assert(callCount == 0) */\n      tag_89\n      jumpi\n      tag_90\n      tag_91\n      jump\t// in\n    tag_90:\n    tag_89:\n        /* \"Dapp/MoneyTransfer.sol\":3756:3794  revert(\"only 5 transactions per day\" ) */\n      mload(0x40)\n      0x08c379a000000000000000000000000000000000000000000000000000000000\n      dup2\n      mstore\n      0x04\n      add\n      tag_92\n      swap1\n      tag_93\n      jump\t// in\n    tag_92:\n      mload(0x40)\n      dup1\n      swap2\n      sub\n      swap1\n      revert\n        /* \"Dapp/MoneyTransfer.sol\":3603:3820  if(callCount >= 5 && block.timestamp <= (firstTransferTime + 30 seconds)){... */\n    tag_88:\n        /* \"Dapp/MoneyTransfer.sol\":3848:3849  5 */\n      0x05\n        /* \"Dapp/MoneyTransfer.sol\":3835:3844  callCount */\n      sload(0x09)\n        /* \"Dapp/MoneyTransfer.sol\":3835:3849  callCount <= 5 */\n      gt\n      iszero\n        /* \"Dapp/MoneyTransfer.sol\":3835:3904  callCount <= 5 && block.timestamp >= (firstTransferTime + 30 seconds) */\n      dup1\n      iszero\n      tag_94\n      jumpi\n      pop\n        /* \"Dapp/MoneyTransfer.sol\":3893:3903  30 seconds */\n      0x1e\n        /* \"Dapp/MoneyTransfer.sol\":3873:3890  firstTransferTime */\n      sload(0x08)\n        /* \"Dapp/MoneyTransfer.sol\":3873:3903  firstTransferTime + 30 seconds */\n      tag_95\n      swap2\n      swap1\n      tag_87\n      jump\t// in\n    tag_95:\n        /* \"Dapp/MoneyTransfer.sol\":3853:3868  block.timestamp */\n      timestamp\n        /* \"Dapp/MoneyTransfer.sol\":3853:3904  block.timestamp >= (firstTransferTime + 30 seconds) */\n      lt\n      iszero\n        /* \"Dapp/MoneyTransfer.sol\":3835:3904  callCount <= 5 && block.timestamp >= (firstTransferTime + 30 seconds) */\n    tag_94:\n        /* \"Dapp/MoneyTransfer.sol\":3832:4033  if(callCount <= 5 && block.timestamp >= (firstTransferTime + 30 seconds)){... */\n      iszero\n      tag_96\n      jumpi\n        /* \"Dapp/MoneyTransfer.sol\":3932:3933  0 */\n      0x00\n        /* \"Dapp/MoneyTransfer.sol\":3920:3929  callCount */\n      0x09\n        /* \"Dapp/MoneyTransfer.sol\":3920:3933  callCount = 0 */\n      dup2\n      swap1\n      sstore\n      pop\n        /* \"Dapp/MoneyTransfer.sol\":3969:3970  0 */\n      0x00\n        /* \"Dapp/MoneyTransfer.sol\":3956:3965  callCount */\n      sload(0x09)\n        /* \"Dapp/MoneyTransfer.sol\":3956:3970  callCount == 0 */\n      eq\n        /* \"Dapp/MoneyTransfer.sol\":3949:3971  assert(callCount == 0) */\n      tag_97\n      jumpi\n      tag_98\n      tag_91\n      jump\t// in\n    tag_98:\n    tag_97:\n        /* \"Dapp/MoneyTransfer.sol\":4006:4021  block.timestamp */\n      timestamp\n        /* \"Dapp/MoneyTransfer.sol\":3986:4003  firstTransferTime */\n      0x08\n        /* \"Dapp/MoneyTransfer.sol\":3986:4021  firstTransferTime = block.timestamp */\n      dup2\n      swap1\n      sstore\n      pop\n        /* \"Dapp/MoneyTransfer.sol\":3832:4033  if(callCount <= 5 && block.timestamp >= (firstTransferTime + 30 seconds)){... */\n    tag_96:\n        /* \"Dapp/MoneyTransfer.sol\":1019:1028  _receiver */\n      dup2\n        /* \"Dapp/MoneyTransfer.sol\":1008:1016  receiver */\n      0x03\n      0x00\n        /* \"Dapp/MoneyTransfer.sol\":1008:1028  receiver = _receiver */\n      0x0100\n      exp\n      dup2\n      sload\n      dup2\n      0xffffffffffffffffffffffffffffffffffffffff\n      mul\n      not\n      and\n      swap1\n      dup4\n      0xffffffffffffffffffffffffffffffffffffffff\n      and\n      mul\n      or\n      swap1\n      sstore\n      pop\n        /* \"Dapp/MoneyTransfer.sol\":1048:1055  _amount */\n      dup3\n        /* \"Dapp/MoneyTransfer.sol\":1039:1045  amount */\n      0x01\n        /* \"Dapp/MoneyTransfer.sol\":1039:1055  amount = _amount */\n      dup2\n      swap1\n      sstore\n      pop\n        /* \"Dapp/MoneyTransfer.sol\":1228:1229  1 */\n      0x01\n        /* \"Dapp/MoneyTransfer.sol\":1215:1224  callCount */\n      0x09\n      0x00\n        /* \"Dapp/MoneyTransfer.sol\":1215:1229  callCount += 1 */\n      dup3\n      dup3\n      sload\n      tag_100\n      swap2\n      swap1\n      tag_87\n      jump\t// in\n    tag_100:\n      swap3\n      pop\n      pop\n      dup2\n      swap1\n      sstore\n      pop\n        /* \"Dapp/MoneyTransfer.sol\":1285:1286  0 */\n      0x00\n        /* \"Dapp/MoneyTransfer.sol\":1272:1282  TotalFunds */\n      sload(0x02)\n        /* \"Dapp/MoneyTransfer.sol\":1272:1286  TotalFunds > 0 */\n      gt\n        /* \"Dapp/MoneyTransfer.sol\":1272:1309  TotalFunds > 0 && TotalFunds > amount */\n      dup1\n      iszero\n      tag_101\n      jumpi\n      pop\n        /* \"Dapp/MoneyTransfer.sol\":1303:1309  amount */\n      sload(0x01)\n        /* \"Dapp/MoneyTransfer.sol\":1290:1300  TotalFunds */\n      sload(0x02)\n        /* \"Dapp/MoneyTransfer.sol\":1290:1309  TotalFunds > amount */\n      gt\n        /* \"Dapp/MoneyTransfer.sol\":1272:1309  TotalFunds > 0 && TotalFunds > amount */\n    tag_101:\n        /* \"Dapp/MoneyTransfer.sol\":1269:1671  if(TotalFunds > 0 && TotalFunds > amount){... */\n      iszero\n      tag_102\n      jumpi\n        /* \"Dapp/MoneyTransfer.sol\":1347:1353  amount */\n      sload(0x01)\n        /* \"Dapp/MoneyTransfer.sol\":1333:1343  TotalFunds */\n      0x02\n      0x00\n        /* \"Dapp/MoneyTransfer.sol\":1333:1353  TotalFunds -= amount */\n      dup3\n      dup3\n      sload\n      tag_103\n      swap2\n      swap1\n      tag_104\n      jump\t// in\n    tag_103:\n      swap3\n      pop\n      pop\n      dup2\n      swap1\n      sstore\n      pop\n        /* \"Dapp/MoneyTransfer.sol\":1391:1397  amount */\n      sload(0x01)\n        /* \"Dapp/MoneyTransfer.sol\":1376:1387  TotalAmount */\n      0x07\n      0x00\n        /* \"Dapp/MoneyTransfer.sol\":1376:1397  TotalAmount += amount */\n      dup3\n      dup3\n      sload\n      tag_105\n      swap2\n      swap1\n      tag_87\n      jump\t// in\n    tag_105:\n      swap3\n      pop\n      pop\n      dup2\n      swap1\n      sstore\n      pop\n        /* \"Dapp/MoneyTransfer.sol\":1466:1496  message = \"Transfer completed\" */\n      mload(0x40)\n      dup1\n      0x40\n      add\n      0x40\n      mstore\n      dup1\n      0x12\n      dup2\n      mstore\n      0x20\n      add\n      0x5472616e7366657220636f6d706c657465640000000000000000000000000000\n      dup2\n      mstore\n      pop\n        /* \"Dapp/MoneyTransfer.sol\":1466:1473  message */\n      0x04\n        /* \"Dapp/MoneyTransfer.sol\":1466:1496  message = \"Transfer completed\" */\n      swap1\n      dup2\n      tag_106\n      swap2\n      swap1\n      tag_107\n      jump\t// in\n    tag_106:\n      pop\n        /* \"Dapp/MoneyTransfer.sol\":1269:1671  if(TotalFunds > 0 && TotalFunds > amount){... */\n      jump(tag_108)\n    tag_102:\n        /* \"Dapp/MoneyTransfer.sol\":1624:1650  revert(\"Not enough funds\") */\n      mload(0x40)\n      0x08c379a000000000000000000000000000000000000000000000000000000000\n      dup2\n      mstore\n      0x04\n      add\n      tag_109\n      swap1\n      tag_110\n      jump\t// in\n    tag_109:\n      mload(0x40)\n      dup1\n      swap2\n      sub\n      swap1\n      revert\n        /* \"Dapp/MoneyTransfer.sol\":1269:1671  if(TotalFunds > 0 && TotalFunds > amount){... */\n    tag_108:\n        /* \"Dapp/MoneyTransfer.sol\":881:1688  function sendMoney( uint _amount, address _receiver) public m_validAddress(_receiver) m_ifCardExists m_transferLimit{... */\n      pop\n      pop\n      pop\n      jump\t// out\n        /* \"Dapp/MoneyTransfer.sol\":579:608  uint public firstTransferTime */\n    tag_32:\n      sload(0x08)\n      dup2\n      jump\t// out\n        /* \"Dapp/MoneyTransfer.sol\":1696:1961  function setCard(string memory _cardNumber, string memory _cvv) public  m_checkCard {... */\n    tag_38:\n        /* \"Dapp/MoneyTransfer.sol\":1810:1821  _cardNumber */\n      dup2\n        /* \"Dapp/MoneyTransfer.sol\":1797:1807  cardNumber */\n      0x05\n        /* \"Dapp/MoneyTransfer.sol\":1797:1821  cardNumber = _cardNumber */\n      swap1\n      dup2\n      tag_113\n      swap2\n      swap1\n      tag_107\n      jump\t// in\n    tag_113:\n      pop\n        /* \"Dapp/MoneyTransfer.sol\":1842:1846  _cvv */\n      dup1\n        /* \"Dapp/MoneyTransfer.sol\":1836:1839  cvv */\n      0x06\n        /* \"Dapp/MoneyTransfer.sol\":1836:1846  cvv = _cvv */\n      swap1\n      dup2\n      tag_114\n      swap2\n      swap1\n      tag_107\n      jump\t// in\n    tag_114:\n      pop\n        /* \"Dapp/MoneyTransfer.sol\":1894:1898  true */\n      0x01\n        /* \"Dapp/MoneyTransfer.sol\":1880:1891  callPutCard */\n      0x0a\n      0x00\n        /* \"Dapp/MoneyTransfer.sol\":1880:1898  callPutCard = true */\n      0x0100\n      exp\n      dup2\n      sload\n      dup2\n      0xff\n      mul\n      not\n      and\n      swap1\n      dup4\n      iszero\n      iszero\n      mul\n      or\n      swap1\n      sstore\n      pop\n        /* \"Dapp/MoneyTransfer.sol\":1936:1951  block.timestamp */\n      timestamp\n        /* \"Dapp/MoneyTransfer.sol\":1916:1933  firstTransferTime */\n      0x08\n        /* \"Dapp/MoneyTransfer.sol\":1916:1951  firstTransferTime = block.timestamp */\n      dup2\n      swap1\n      sstore\n      pop\n        /* \"Dapp/MoneyTransfer.sol\":2468:2469  8 */\n      0x08\n        /* \"Dapp/MoneyTransfer.sol\":2446:2456  cardNumber */\n      0x05\n        /* \"Dapp/MoneyTransfer.sol\":2440:2464  bytes(cardNumber).length */\n      dup1\n      sload\n      tag_115\n      swap1\n      tag_116\n      jump\t// in\n    tag_115:\n      swap1\n      pop\n        /* \"Dapp/MoneyTransfer.sol\":2440:2469  bytes(cardNumber).length == 8 */\n      eq\n        /* \"Dapp/MoneyTransfer.sol\":2440:2495  bytes(cardNumber).length == 8 && bytes(cvv).length == 3 */\n      dup1\n      iszero\n      tag_117\n      jumpi\n      pop\n        /* \"Dapp/MoneyTransfer.sol\":2494:2495  3 */\n      0x03\n        /* \"Dapp/MoneyTransfer.sol\":2479:2482  cvv */\n      0x06\n        /* \"Dapp/MoneyTransfer.sol\":2473:2490  bytes(cvv).length */\n      dup1\n      sload\n      tag_118\n      swap1\n      tag_116\n      jump\t// in\n    tag_118:\n      swap1\n      pop\n        /* \"Dapp/MoneyTransfer.sol\":2473:2495  bytes(cvv).length == 3 */\n      eq\n        /* \"Dapp/MoneyTransfer.sol\":2440:2495  bytes(cardNumber).length == 8 && bytes(cvv).length == 3 */\n    tag_117:\n        /* \"Dapp/MoneyTransfer.sol\":2432:2520  require(bytes(cardNumber).length == 8 && bytes(cvv).length == 3, \"No valid credit card\") */\n      tag_119\n      jumpi\n      mload(0x40)\n      0x08c379a000000000000000000000000000000000000000000000000000000000\n      dup2\n      mstore\n      0x04\n      add\n      tag_120\n      swap1\n      tag_121\n      jump\t// in\n    tag_120:\n      mload(0x40)\n      dup1\n      swap2\n      sub\n      swap1\n      revert\n    tag_119:\n        /* \"Dapp/MoneyTransfer.sol\":1696:1961  function setCard(string memory _cardNumber, string memory _cvv) public  m_checkCard {... */\n      pop\n      pop\n      jump\t// out\n        /* \"Dapp/MoneyTransfer.sol\":840:871  bool public callPutCard = false */\n    tag_40:\n      0x0a\n      0x00\n      swap1\n      sload\n      swap1\n      0x0100\n      exp\n      swap1\n      div\n      0xff\n      and\n      dup2\n      jump\t// out\n        /* \"Dapp/MoneyTransfer.sol\":525:542  string public cvv */\n    tag_44:\n      0x06\n      dup1\n      sload\n      tag_122\n      swap1\n      tag_116\n      jump\t// in\n    tag_122:\n      dup1\n      0x1f\n      add\n      0x20\n      dup1\n      swap2\n      div\n      mul\n      0x20\n      add\n      mload(0x40)\n      swap1\n      dup2\n      add\n      0x40\n      mstore\n      dup1\n      swap3\n      swap2\n      swap1\n      dup2\n      dup2\n      mstore\n      0x20\n      add\n      dup3\n      dup1\n      sload\n      tag_123\n      swap1\n      tag_116\n      jump\t// in\n    tag_123:\n      dup1\n      iszero\n      tag_124\n      jumpi\n      dup1\n      0x1f\n      lt\n      tag_125\n      jumpi\n      0x0100\n      dup1\n      dup4\n      sload\n      div\n      mul\n      dup4\n      mstore\n      swap2\n      0x20\n      add\n      swap2\n      jump(tag_124)\n    tag_125:\n      dup3\n      add\n      swap2\n      swap1\n      0x00\n      mstore\n      keccak256(0x00, 0x20)\n      swap1\n    tag_126:\n      dup2\n      sload\n      dup2\n      mstore\n      swap1\n      0x01\n      add\n      swap1\n      0x20\n      add\n      dup1\n      dup4\n      gt\n      tag_126\n      jumpi\n      dup3\n      swap1\n      sub\n      0x1f\n      and\n      dup3\n      add\n      swap2\n    tag_124:\n      pop\n      pop\n      pop\n      pop\n      pop\n      dup2\n      jump\t// out\n        /* \"Dapp/MoneyTransfer.sol\":807:832  uint public callCount = 0 */\n    tag_48:\n      sload(0x09)\n      dup2\n      jump\t// out\n        /* \"Dapp/MoneyTransfer.sol\":4068:4154  function getTime()public view returns(uint ){... */\n    tag_51:\n        /* \"Dapp/MoneyTransfer.sol\":4106:4110  uint */\n      0x00\n        /* \"Dapp/MoneyTransfer.sol\":4131:4146  block.timestamp */\n      timestamp\n        /* \"Dapp/MoneyTransfer.sol\":4123:4146  return  block.timestamp */\n      swap1\n      pop\n        /* \"Dapp/MoneyTransfer.sol\":4068:4154  function getTime()public view returns(uint ){... */\n      swap1\n      jump\t// out\n        /* \"Dapp/MoneyTransfer.sol\":175:200  uint256 public TotalFunds */\n    tag_54:\n      sload(0x02)\n      dup2\n      jump\t// out\n        /* \"Dapp/MoneyTransfer.sol\":549:575  uint256 public TotalAmount */\n    tag_57:\n      sload(0x07)\n      dup2\n      jump\t// out\n        /* \"Dapp/MoneyTransfer.sol\":1982:2051  function getOutCard() public  {... */\n    tag_60:\n        /* \"Dapp/MoneyTransfer.sol\":2036:2041  false */\n      0x00\n        /* \"Dapp/MoneyTransfer.sol\":2022:2033  callPutCard */\n      0x0a\n      0x00\n        /* \"Dapp/MoneyTransfer.sol\":2022:2041  callPutCard = false */\n      0x0100\n      exp\n      dup2\n      sload\n      dup2\n      0xff\n      mul\n      not\n      and\n      swap1\n      dup4\n      iszero\n      iszero\n      mul\n      or\n      swap1\n      sstore\n      pop\n        /* \"Dapp/MoneyTransfer.sol\":1982:2051  function getOutCard() public  {... */\n      jump\t// out\n        /* \"Dapp/MoneyTransfer.sol\":493:517  string public cardNumber */\n    tag_62:\n      0x05\n      dup1\n      sload\n      tag_129\n      swap1\n      tag_116\n      jump\t// in\n    tag_129:\n      dup1\n      0x1f\n      add\n      0x20\n      dup1\n      swap2\n      div\n      mul\n      0x20\n      add\n      mload(0x40)\n      swap1\n      dup2\n      add\n      0x40\n      mstore\n      dup1\n      swap3\n      swap2\n      swap1\n      dup2\n      dup2\n      mstore\n      0x20\n      add\n      dup3\n      dup1\n      sload\n      tag_130\n      swap1\n      tag_116\n      jump\t// in\n    tag_130:\n      dup1\n      iszero\n      tag_131\n      jumpi\n      dup1\n      0x1f\n      lt\n      tag_132\n      jumpi\n      0x0100\n      dup1\n      dup4\n      sload\n      div\n      mul\n      dup4\n      mstore\n      swap2\n      0x20\n      add\n      swap2\n      jump(tag_131)\n    tag_132:\n      dup3\n      add\n      swap2\n      swap1\n      0x00\n      mstore\n      keccak256(0x00, 0x20)\n      swap1\n    tag_133:\n      dup2\n      sload\n      dup2\n      mstore\n      swap1\n      0x01\n      add\n      swap1\n      0x20\n      add\n      dup1\n      dup4\n      gt\n      tag_133\n      jumpi\n      dup3\n      swap1\n      sub\n      0x1f\n      and\n      dup3\n      add\n      swap2\n    tag_131:\n      pop\n      pop\n      pop\n      pop\n      pop\n      dup2\n      jump\t// out\n        /* \"Dapp/Transaction.sol\":289:567  function addTransaction(address _address_from ,address _address_to, uint _amount, uint _timestamp)public{... */\n    tag_67:\n        /* \"Dapp/Transaction.sol\":414:448  Transactions memory newTransaction */\n      0x00\n        /* \"Dapp/Transaction.sol\":451:512  Transactions(_address_from, _address_to, _amount, _timestamp) */\n      mload(0x40)\n      dup1\n      0x80\n      add\n      0x40\n      mstore\n      dup1\n        /* \"Dapp/Transaction.sol\":464:477  _address_from */\n      dup7\n        /* \"Dapp/Transaction.sol\":451:512  Transactions(_address_from, _address_to, _amount, _timestamp) */\n      0xffffffffffffffffffffffffffffffffffffffff\n      and\n      dup2\n      mstore\n      0x20\n      add\n        /* \"Dapp/Transaction.sol\":479:490  _address_to */\n      dup6\n        /* \"Dapp/Transaction.sol\":451:512  Transactions(_address_from, _address_to, _amount, _timestamp) */\n      0xffffffffffffffffffffffffffffffffffffffff\n      and\n      dup2\n      mstore\n      0x20\n      add\n        /* \"Dapp/Transaction.sol\":492:499  _amount */\n      dup5\n        /* \"Dapp/Transaction.sol\":451:512  Transactions(_address_from, _address_to, _amount, _timestamp) */\n      dup2\n      mstore\n      0x20\n      add\n        /* \"Dapp/Transaction.sol\":501:511  _timestamp */\n      dup4\n        /* \"Dapp/Transaction.sol\":451:512  Transactions(_address_from, _address_to, _amount, _timestamp) */\n      dup2\n      mstore\n      pop\n        /* \"Dapp/Transaction.sol\":414:512  Transactions memory newTransaction = Transactions(_address_from, _address_to, _amount, _timestamp) */\n      swap1\n      pop\n        /* \"Dapp/Transaction.sol\":523:538  transactionList */\n      0x00\n        /* \"Dapp/Transaction.sol\":544:558  newTransaction */\n      dup2\n        /* \"Dapp/Transaction.sol\":523:559  transactionList.push(newTransaction) */\n      swap1\n      dup1\n      0x01\n      dup2\n      sload\n      add\n      dup1\n      dup3\n      sstore\n      dup1\n      swap2\n      pop\n      pop\n      0x01\n      swap1\n      sub\n      swap1\n      0x00\n      mstore\n      keccak256(0x00, 0x20)\n      swap1\n      0x04\n      mul\n      add\n      0x00\n      swap1\n      swap2\n      swap1\n      swap2\n      swap1\n      swap2\n      pop\n      0x00\n      dup3\n      add\n      mload\n      dup2\n      0x00\n      add\n      exp(0x0100, 0x00)\n      dup2\n      sload\n      dup2\n      0xffffffffffffffffffffffffffffffffffffffff\n      mul\n      not\n      and\n      swap1\n      dup4\n      0xffffffffffffffffffffffffffffffffffffffff\n      and\n      mul\n      or\n      swap1\n      sstore\n      pop\n      0x20\n      dup3\n      add\n      mload\n      dup2\n      0x01\n      add\n      exp(0x0100, 0x00)\n      dup2\n      sload\n      dup2\n      0xffffffffffffffffffffffffffffffffffffffff\n      mul\n      not\n      and\n      swap1\n      dup4\n      0xffffffffffffffffffffffffffffffffffffffff\n      and\n      mul\n      or\n      swap1\n      sstore\n      pop\n      0x40\n      dup3\n      add\n      mload\n      dup2\n      0x02\n      add\n      sstore\n      0x60\n      dup3\n      add\n      mload\n      dup2\n      0x03\n      add\n      sstore\n      pop\n      pop\n        /* \"Dapp/Transaction.sol\":393:567  {... */\n      pop\n        /* \"Dapp/Transaction.sol\":289:567  function addTransaction(address _address_from ,address _address_to, uint _amount, uint _timestamp)public{... */\n      pop\n      pop\n      pop\n      pop\n      jump\t// out\n        /* \"Dapp/MoneyTransfer.sol\":147:168  uint256 public amount */\n    tag_69:\n      sload(0x01)\n      dup2\n      jump\t// out\n        /* \"Dapp/MoneyTransfer.sol\":465:486  string public message */\n    tag_72:\n      0x04\n      dup1\n      sload\n      tag_136\n      swap1\n      tag_116\n      jump\t// in\n    tag_136:\n      dup1\n      0x1f\n      add\n      0x20\n      dup1\n      swap2\n      div\n      mul\n      0x20\n      add\n      mload(0x40)\n      swap1\n      dup2\n      add\n      0x40\n      mstore\n      dup1\n      swap3\n      swap2\n      swap1\n      dup2\n      dup2\n      mstore\n      0x20\n      add\n      dup3\n      dup1\n      sload\n      tag_137\n      swap1\n      tag_116\n      jump\t// in\n    tag_137:\n      dup1\n      iszero\n      tag_138\n      jumpi\n      dup1\n      0x1f\n      lt\n      tag_139\n      jumpi\n      0x0100\n      dup1\n      dup4\n      sload\n      div\n      mul\n      dup4\n      mstore\n      swap2\n      0x20\n      add\n      swap2\n      jump(tag_138)\n    tag_139:\n      dup3\n      add\n      swap2\n      swap1\n      0x00\n      mstore\n      keccak256(0x00, 0x20)\n      swap1\n    tag_140:\n      dup2\n      sload\n      dup2\n      mstore\n      swap1\n      0x01\n      add\n      swap1\n      0x20\n      add\n      dup1\n      dup4\n      gt\n      tag_140\n      jumpi\n      dup3\n      swap1\n      sub\n      0x1f\n      and\n      dup3\n      add\n      swap2\n    tag_138:\n      pop\n      pop\n      pop\n      pop\n      pop\n      dup2\n      jump\t// out\n        /* \"#utility.yul\":7:82   */\n    tag_141:\n        /* \"#utility.yul\":40:46   */\n      0x00\n        /* \"#utility.yul\":73:75   */\n      0x40\n        /* \"#utility.yul\":67:76   */\n      mload\n        /* \"#utility.yul\":57:76   */\n      swap1\n      pop\n        /* \"#utility.yul\":7:82   */\n      swap1\n      jump\t// out\n        /* \"#utility.yul\":88:205   */\n    tag_142:\n        /* \"#utility.yul\":197:198   */\n      0x00\n        /* \"#utility.yul\":194:195   */\n      dup1\n        /* \"#utility.yul\":187:199   */\n      revert\n        /* \"#utility.yul\":211:328   */\n    tag_143:\n        /* \"#utility.yul\":320:321   */\n      0x00\n        /* \"#utility.yul\":317:318   */\n      dup1\n        /* \"#utility.yul\":310:322   */\n      revert\n        /* \"#utility.yul\":334:411   */\n    tag_144:\n        /* \"#utility.yul\":371:378   */\n      0x00\n        /* \"#utility.yul\":400:405   */\n      dup2\n        /* \"#utility.yul\":389:405   */\n      swap1\n      pop\n        /* \"#utility.yul\":334:411   */\n      swap2\n      swap1\n      pop\n      jump\t// out\n        /* \"#utility.yul\":417:539   */\n    tag_145:\n        /* \"#utility.yul\":490:514   */\n      tag_202\n        /* \"#utility.yul\":508:513   */\n      dup2\n        /* \"#utility.yul\":490:514   */\n      tag_144\n      jump\t// in\n    tag_202:\n        /* \"#utility.yul\":483:488   */\n      dup2\n        /* \"#utility.yul\":480:515   */\n      eq\n        /* \"#utility.yul\":470:533   */\n      tag_203\n      jumpi\n        /* \"#utility.yul\":529:530   */\n      0x00\n        /* \"#utility.yul\":526:527   */\n      dup1\n        /* \"#utility.yul\":519:531   */\n      revert\n        /* \"#utility.yul\":470:533   */\n    tag_203:\n        /* \"#utility.yul\":417:539   */\n      pop\n      jump\t// out\n        /* \"#utility.yul\":545:684   */\n    tag_146:\n        /* \"#utility.yul\":591:596   */\n      0x00\n        /* \"#utility.yul\":629:635   */\n      dup2\n        /* \"#utility.yul\":616:636   */\n      calldataload\n        /* \"#utility.yul\":607:636   */\n      swap1\n      pop\n        /* \"#utility.yul\":645:678   */\n      tag_205\n        /* \"#utility.yul\":672:677   */\n      dup2\n        /* \"#utility.yul\":645:678   */\n      tag_145\n      jump\t// in\n    tag_205:\n        /* \"#utility.yul\":545:684   */\n      swap3\n      swap2\n      pop\n      pop\n      jump\t// out\n        /* \"#utility.yul\":690:1019   */\n    tag_23:\n        /* \"#utility.yul\":749:755   */\n      0x00\n        /* \"#utility.yul\":798:800   */\n      0x20\n        /* \"#utility.yul\":786:795   */\n      dup3\n        /* \"#utility.yul\":777:784   */\n      dup5\n        /* \"#utility.yul\":773:796   */\n      sub\n        /* \"#utility.yul\":769:801   */\n      slt\n        /* \"#utility.yul\":766:885   */\n      iszero\n      tag_207\n      jumpi\n        /* \"#utility.yul\":804:883   */\n      tag_208\n      tag_142\n      jump\t// in\n    tag_208:\n        /* \"#utility.yul\":766:885   */\n    tag_207:\n        /* \"#utility.yul\":924:925   */\n      0x00\n        /* \"#utility.yul\":949:1002   */\n      tag_209\n        /* \"#utility.yul\":994:1001   */\n      dup5\n        /* \"#utility.yul\":985:991   */\n      dup3\n        /* \"#utility.yul\":974:983   */\n      dup6\n        /* \"#utility.yul\":970:992   */\n      add\n        /* \"#utility.yul\":949:1002   */\n      tag_146\n      jump\t// in\n    tag_209:\n        /* \"#utility.yul\":939:1002   */\n      swap2\n      pop\n        /* \"#utility.yul\":895:1012   */\n      pop\n        /* \"#utility.yul\":690:1019   */\n      swap3\n      swap2\n      pop\n      pop\n      jump\t// out\n        /* \"#utility.yul\":1025:1151   */\n    tag_147:\n        /* \"#utility.yul\":1062:1069   */\n      0x00\n        /* \"#utility.yul\":1102:1144   */\n      0xffffffffffffffffffffffffffffffffffffffff\n        /* \"#utility.yul\":1095:1100   */\n      dup3\n        /* \"#utility.yul\":1091:1145   */\n      and\n        /* \"#utility.yul\":1080:1145   */\n      swap1\n      pop\n        /* \"#utility.yul\":1025:1151   */\n      swap2\n      swap1\n      pop\n      jump\t// out\n        /* \"#utility.yul\":1157:1253   */\n    tag_148:\n        /* \"#utility.yul\":1194:1201   */\n      0x00\n        /* \"#utility.yul\":1223:1247   */\n      tag_212\n        /* \"#utility.yul\":1241:1246   */\n      dup3\n        /* \"#utility.yul\":1223:1247   */\n      tag_147\n      jump\t// in\n    tag_212:\n        /* \"#utility.yul\":1212:1247   */\n      swap1\n      pop\n        /* \"#utility.yul\":1157:1253   */\n      swap2\n      swap1\n      pop\n      jump\t// out\n        /* \"#utility.yul\":1259:1377   */\n    tag_149:\n        /* \"#utility.yul\":1346:1370   */\n      tag_214\n        /* \"#utility.yul\":1364:1369   */\n      dup2\n        /* \"#utility.yul\":1346:1370   */\n      tag_148\n      jump\t// in\n    tag_214:\n        /* \"#utility.yul\":1341:1344   */\n      dup3\n        /* \"#utility.yul\":1334:1371   */\n      mstore\n        /* \"#utility.yul\":1259:1377   */\n      pop\n      pop\n      jump\t// out\n        /* \"#utility.yul\":1383:1501   */\n    tag_150:\n        /* \"#utility.yul\":1470:1494   */\n      tag_216\n        /* \"#utility.yul\":1488:1493   */\n      dup2\n        /* \"#utility.yul\":1470:1494   */\n      tag_144\n      jump\t// in\n    tag_216:\n        /* \"#utility.yul\":1465:1468   */\n      dup3\n        /* \"#utility.yul\":1458:1495   */\n      mstore\n        /* \"#utility.yul\":1383:1501   */\n      pop\n      pop\n      jump\t// out\n        /* \"#utility.yul\":1507:2060   */\n    tag_26:\n        /* \"#utility.yul\":1684:1688   */\n      0x00\n        /* \"#utility.yul\":1722:1725   */\n      0x80\n        /* \"#utility.yul\":1711:1720   */\n      dup3\n        /* \"#utility.yul\":1707:1726   */\n      add\n        /* \"#utility.yul\":1699:1726   */\n      swap1\n      pop\n        /* \"#utility.yul\":1736:1807   */\n      tag_218\n        /* \"#utility.yul\":1804:1805   */\n      0x00\n        /* \"#utility.yul\":1793:1802   */\n      dup4\n        /* \"#utility.yul\":1789:1806   */\n      add\n        /* \"#utility.yul\":1780:1786   */\n      dup8\n        /* \"#utility.yul\":1736:1807   */\n      tag_149\n      jump\t// in\n    tag_218:\n        /* \"#utility.yul\":1817:1889   */\n      tag_219\n        /* \"#utility.yul\":1885:1887   */\n      0x20\n        /* \"#utility.yul\":1874:1883   */\n      dup4\n        /* \"#utility.yul\":1870:1888   */\n      add\n        /* \"#utility.yul\":1861:1867   */\n      dup7\n        /* \"#utility.yul\":1817:1889   */\n      tag_149\n      jump\t// in\n    tag_219:\n        /* \"#utility.yul\":1899:1971   */\n      tag_220\n        /* \"#utility.yul\":1967:1969   */\n      0x40\n        /* \"#utility.yul\":1956:1965   */\n      dup4\n        /* \"#utility.yul\":1952:1970   */\n      add\n        /* \"#utility.yul\":1943:1949   */\n      dup6\n        /* \"#utility.yul\":1899:1971   */\n      tag_150\n      jump\t// in\n    tag_220:\n        /* \"#utility.yul\":1981:2053   */\n      tag_221\n        /* \"#utility.yul\":2049:2051   */\n      0x60\n        /* \"#utility.yul\":2038:2047   */\n      dup4\n        /* \"#utility.yul\":2034:2052   */\n      add\n        /* \"#utility.yul\":2025:2031   */\n      dup5\n        /* \"#utility.yul\":1981:2053   */\n      tag_150\n      jump\t// in\n    tag_221:\n        /* \"#utility.yul\":1507:2060   */\n      swap6\n      swap5\n      pop\n      pop\n      pop\n      pop\n      pop\n      jump\t// out\n        /* \"#utility.yul\":2066:2188   */\n    tag_151:\n        /* \"#utility.yul\":2139:2163   */\n      tag_223\n        /* \"#utility.yul\":2157:2162   */\n      dup2\n        /* \"#utility.yul\":2139:2163   */\n      tag_148\n      jump\t// in\n    tag_223:\n        /* \"#utility.yul\":2132:2137   */\n      dup2\n        /* \"#utility.yul\":2129:2164   */\n      eq\n        /* \"#utility.yul\":2119:2182   */\n      tag_224\n      jumpi\n        /* \"#utility.yul\":2178:2179   */\n      0x00\n        /* \"#utility.yul\":2175:2176   */\n      dup1\n        /* \"#utility.yul\":2168:2180   */\n      revert\n        /* \"#utility.yul\":2119:2182   */\n    tag_224:\n        /* \"#utility.yul\":2066:2188   */\n      pop\n      jump\t// out\n        /* \"#utility.yul\":2194:2333   */\n    tag_152:\n        /* \"#utility.yul\":2240:2245   */\n      0x00\n        /* \"#utility.yul\":2278:2284   */\n      dup2\n        /* \"#utility.yul\":2265:2285   */\n      calldataload\n        /* \"#utility.yul\":2256:2285   */\n      swap1\n      pop\n        /* \"#utility.yul\":2294:2327   */\n      tag_226\n        /* \"#utility.yul\":2321:2326   */\n      dup2\n        /* \"#utility.yul\":2294:2327   */\n      tag_151\n      jump\t// in\n    tag_226:\n        /* \"#utility.yul\":2194:2333   */\n      swap3\n      swap2\n      pop\n      pop\n      jump\t// out\n        /* \"#utility.yul\":2339:2813   */\n    tag_29:\n        /* \"#utility.yul\":2407:2413   */\n      0x00\n        /* \"#utility.yul\":2415:2421   */\n      dup1\n        /* \"#utility.yul\":2464:2466   */\n      0x40\n        /* \"#utility.yul\":2452:2461   */\n      dup4\n        /* \"#utility.yul\":2443:2450   */\n      dup6\n        /* \"#utility.yul\":2439:2462   */\n      sub\n        /* \"#utility.yul\":2435:2467   */\n      slt\n        /* \"#utility.yul\":2432:2551   */\n      iszero\n      tag_228\n      jumpi\n        /* \"#utility.yul\":2470:2549   */\n      tag_229\n      tag_142\n      jump\t// in\n    tag_229:\n        /* \"#utility.yul\":2432:2551   */\n    tag_228:\n        /* \"#utility.yul\":2590:2591   */\n      0x00\n        /* \"#utility.yul\":2615:2668   */\n      tag_230\n        /* \"#utility.yul\":2660:2667   */\n      dup6\n        /* \"#utility.yul\":2651:2657   */\n      dup3\n        /* \"#utility.yul\":2640:2649   */\n      dup7\n        /* \"#utility.yul\":2636:2658   */\n      add\n        /* \"#utility.yul\":2615:2668   */\n      tag_146\n      jump\t// in\n    tag_230:\n        /* \"#utility.yul\":2605:2668   */\n      swap3\n      pop\n        /* \"#utility.yul\":2561:2678   */\n      pop\n        /* \"#utility.yul\":2717:2719   */\n      0x20\n        /* \"#utility.yul\":2743:2796   */\n      tag_231\n        /* \"#utility.yul\":2788:2795   */\n      dup6\n        /* \"#utility.yul\":2779:2785   */\n      dup3\n        /* \"#utility.yul\":2768:2777   */\n      dup7\n        /* \"#utility.yul\":2764:2786   */\n      add\n        /* \"#utility.yul\":2743:2796   */\n      tag_152\n      jump\t// in\n    tag_231:\n        /* \"#utility.yul\":2733:2796   */\n      swap2\n      pop\n        /* \"#utility.yul\":2688:2806   */\n      pop\n        /* \"#utility.yul\":2339:2813   */\n      swap3\n      pop\n      swap3\n      swap1\n      pop\n      jump\t// out\n        /* \"#utility.yul\":2819:3041   */\n    tag_34:\n        /* \"#utility.yul\":2912:2916   */\n      0x00\n        /* \"#utility.yul\":2950:2952   */\n      0x20\n        /* \"#utility.yul\":2939:2948   */\n      dup3\n        /* \"#utility.yul\":2935:2953   */\n      add\n        /* \"#utility.yul\":2927:2953   */\n      swap1\n      pop\n        /* \"#utility.yul\":2963:3034   */\n      tag_233\n        /* \"#utility.yul\":3031:3032   */\n      0x00\n        /* \"#utility.yul\":3020:3029   */\n      dup4\n        /* \"#utility.yul\":3016:3033   */\n      add\n        /* \"#utility.yul\":3007:3013   */\n      dup5\n        /* \"#utility.yul\":2963:3034   */\n      tag_150\n      jump\t// in\n    tag_233:\n        /* \"#utility.yul\":2819:3041   */\n      swap3\n      swap2\n      pop\n      pop\n      jump\t// out\n        /* \"#utility.yul\":3047:3164   */\n    tag_153:\n        /* \"#utility.yul\":3156:3157   */\n      0x00\n        /* \"#utility.yul\":3153:3154   */\n      dup1\n        /* \"#utility.yul\":3146:3158   */\n      revert\n        /* \"#utility.yul\":3170:3287   */\n    tag_154:\n        /* \"#utility.yul\":3279:3280   */\n      0x00\n        /* \"#utility.yul\":3276:3277   */\n      dup1\n        /* \"#utility.yul\":3269:3281   */\n      revert\n        /* \"#utility.yul\":3293:3395   */\n    tag_155:\n        /* \"#utility.yul\":3334:3340   */\n      0x00\n        /* \"#utility.yul\":3385:3387   */\n      0x1f\n        /* \"#utility.yul\":3381:3388   */\n      not\n        /* \"#utility.yul\":3376:3378   */\n      0x1f\n        /* \"#utility.yul\":3369:3374   */\n      dup4\n        /* \"#utility.yul\":3365:3379   */\n      add\n        /* \"#utility.yul\":3361:3389   */\n      and\n        /* \"#utility.yul\":3351:3389   */\n      swap1\n      pop\n        /* \"#utility.yul\":3293:3395   */\n      swap2\n      swap1\n      pop\n      jump\t// out\n        /* \"#utility.yul\":3401:3581   */\n    tag_156:\n        /* \"#utility.yul\":3449:3526   */\n      0x4e487b7100000000000000000000000000000000000000000000000000000000\n        /* \"#utility.yul\":3446:3447   */\n      0x00\n        /* \"#utility.yul\":3439:3527   */\n      mstore\n        /* \"#utility.yul\":3546:3550   */\n      0x41\n        /* \"#utility.yul\":3543:3544   */\n      0x04\n        /* \"#utility.yul\":3536:3551   */\n      mstore\n        /* \"#utility.yul\":3570:3574   */\n      0x24\n        /* \"#utility.yul\":3567:3568   */\n      0x00\n        /* \"#utility.yul\":3560:3575   */\n      revert\n        /* \"#utility.yul\":3587:3868   */\n    tag_157:\n        /* \"#utility.yul\":3670:3697   */\n      tag_239\n        /* \"#utility.yul\":3692:3696   */\n      dup3\n        /* \"#utility.yul\":3670:3697   */\n      tag_155\n      jump\t// in\n    tag_239:\n        /* \"#utility.yul\":3662:3668   */\n      dup2\n        /* \"#utility.yul\":3658:3698   */\n      add\n        /* \"#utility.yul\":3800:3806   */\n      dup2\n        /* \"#utility.yul\":3788:3798   */\n      dup2\n        /* \"#utility.yul\":3785:3807   */\n      lt\n        /* \"#utility.yul\":3764:3782   */\n      0xffffffffffffffff\n        /* \"#utility.yul\":3752:3762   */\n      dup3\n        /* \"#utility.yul\":3749:3783   */\n      gt\n        /* \"#utility.yul\":3746:3808   */\n      or\n        /* \"#utility.yul\":3743:3831   */\n      iszero\n      tag_240\n      jumpi\n        /* \"#utility.yul\":3811:3829   */\n      tag_241\n      tag_156\n      jump\t// in\n    tag_241:\n        /* \"#utility.yul\":3743:3831   */\n    tag_240:\n        /* \"#utility.yul\":3851:3861   */\n      dup1\n        /* \"#utility.yul\":3847:3849   */\n      0x40\n        /* \"#utility.yul\":3840:3862   */\n      mstore\n        /* \"#utility.yul\":3630:3868   */\n      pop\n        /* \"#utility.yul\":3587:3868   */\n      pop\n      pop\n      jump\t// out\n        /* \"#utility.yul\":3874:4003   */\n    tag_158:\n        /* \"#utility.yul\":3908:3914   */\n      0x00\n        /* \"#utility.yul\":3935:3955   */\n      tag_243\n      tag_141\n      jump\t// in\n    tag_243:\n        /* \"#utility.yul\":3925:3955   */\n      swap1\n      pop\n        /* \"#utility.yul\":3964:3997   */\n      tag_244\n        /* \"#utility.yul\":3992:3996   */\n      dup3\n        /* \"#utility.yul\":3984:3990   */\n      dup3\n        /* \"#utility.yul\":3964:3997   */\n      tag_157\n      jump\t// in\n    tag_244:\n        /* \"#utility.yul\":3874:4003   */\n      swap2\n      swap1\n      pop\n      jump\t// out\n        /* \"#utility.yul\":4009:4317   */\n    tag_159:\n        /* \"#utility.yul\":4071:4075   */\n      0x00\n        /* \"#utility.yul\":4161:4179   */\n      0xffffffffffffffff\n        /* \"#utility.yul\":4153:4159   */\n      dup3\n        /* \"#utility.yul\":4150:4180   */\n      gt\n        /* \"#utility.yul\":4147:4203   */\n      iszero\n      tag_246\n      jumpi\n        /* \"#utility.yul\":4183:4201   */\n      tag_247\n      tag_156\n      jump\t// in\n    tag_247:\n        /* \"#utility.yul\":4147:4203   */\n    tag_246:\n        /* \"#utility.yul\":4221:4250   */\n      tag_248\n        /* \"#utility.yul\":4243:4249   */\n      dup3\n        /* \"#utility.yul\":4221:4250   */\n      tag_155\n      jump\t// in\n    tag_248:\n        /* \"#utility.yul\":4213:4250   */\n      swap1\n      pop\n        /* \"#utility.yul\":4305:4309   */\n      0x20\n        /* \"#utility.yul\":4299:4303   */\n      dup2\n        /* \"#utility.yul\":4295:4310   */\n      add\n        /* \"#utility.yul\":4287:4310   */\n      swap1\n      pop\n        /* \"#utility.yul\":4009:4317   */\n      swap2\n      swap1\n      pop\n      jump\t// out\n        /* \"#utility.yul\":4323:4469   */\n    tag_160:\n        /* \"#utility.yul\":4420:4426   */\n      dup3\n        /* \"#utility.yul\":4415:4418   */\n      dup2\n        /* \"#utility.yul\":4410:4413   */\n      dup4\n        /* \"#utility.yul\":4397:4427   */\n      calldatacopy\n        /* \"#utility.yul\":4461:4462   */\n      0x00\n        /* \"#utility.yul\":4452:4458   */\n      dup4\n        /* \"#utility.yul\":4447:4450   */\n      dup4\n        /* \"#utility.yul\":4443:4459   */\n      add\n        /* \"#utility.yul\":4436:4463   */\n      mstore\n        /* \"#utility.yul\":4323:4469   */\n      pop\n      pop\n      pop\n      jump\t// out\n        /* \"#utility.yul\":4475:4900   */\n    tag_161:\n        /* \"#utility.yul\":4553:4558   */\n      0x00\n        /* \"#utility.yul\":4578:4644   */\n      tag_251\n        /* \"#utility.yul\":4594:4643   */\n      tag_252\n        /* \"#utility.yul\":4636:4642   */\n      dup5\n        /* \"#utility.yul\":4594:4643   */\n      tag_159\n      jump\t// in\n    tag_252:\n        /* \"#utility.yul\":4578:4644   */\n      tag_158\n      jump\t// in\n    tag_251:\n        /* \"#utility.yul\":4569:4644   */\n      swap1\n      pop\n        /* \"#utility.yul\":4667:4673   */\n      dup3\n        /* \"#utility.yul\":4660:4665   */\n      dup2\n        /* \"#utility.yul\":4653:4674   */\n      mstore\n        /* \"#utility.yul\":4705:4709   */\n      0x20\n        /* \"#utility.yul\":4698:4703   */\n      dup2\n        /* \"#utility.yul\":4694:4710   */\n      add\n        /* \"#utility.yul\":4743:4746   */\n      dup5\n        /* \"#utility.yul\":4734:4740   */\n      dup5\n        /* \"#utility.yul\":4729:4732   */\n      dup5\n        /* \"#utility.yul\":4725:4741   */\n      add\n        /* \"#utility.yul\":4722:4747   */\n      gt\n        /* \"#utility.yul\":4719:4831   */\n      iszero\n      tag_253\n      jumpi\n        /* \"#utility.yul\":4750:4829   */\n      tag_254\n      tag_154\n      jump\t// in\n    tag_254:\n        /* \"#utility.yul\":4719:4831   */\n    tag_253:\n        /* \"#utility.yul\":4840:4894   */\n      tag_255\n        /* \"#utility.yul\":4887:4893   */\n      dup5\n        /* \"#utility.yul\":4882:4885   */\n      dup3\n        /* \"#utility.yul\":4877:4880   */\n      dup6\n        /* \"#utility.yul\":4840:4894   */\n      tag_160\n      jump\t// in\n    tag_255:\n        /* \"#utility.yul\":4559:4900   */\n      pop\n        /* \"#utility.yul\":4475:4900   */\n      swap4\n      swap3\n      pop\n      pop\n      pop\n      jump\t// out\n        /* \"#utility.yul\":4920:5260   */\n    tag_162:\n        /* \"#utility.yul\":4976:4981   */\n      0x00\n        /* \"#utility.yul\":5025:5028   */\n      dup3\n        /* \"#utility.yul\":5018:5022   */\n      0x1f\n        /* \"#utility.yul\":5010:5016   */\n      dup4\n        /* \"#utility.yul\":5006:5023   */\n      add\n        /* \"#utility.yul\":5002:5029   */\n      slt\n        /* \"#utility.yul\":4992:5114   */\n      tag_257\n      jumpi\n        /* \"#utility.yul\":5033:5112   */\n      tag_258\n      tag_153\n      jump\t// in\n    tag_258:\n        /* \"#utility.yul\":4992:5114   */\n    tag_257:\n        /* \"#utility.yul\":5150:5156   */\n      dup2\n        /* \"#utility.yul\":5137:5157   */\n      calldataload\n        /* \"#utility.yul\":5175:5254   */\n      tag_259\n        /* \"#utility.yul\":5250:5253   */\n      dup5\n        /* \"#utility.yul\":5242:5248   */\n      dup3\n        /* \"#utility.yul\":5235:5239   */\n      0x20\n        /* \"#utility.yul\":5227:5233   */\n      dup7\n        /* \"#utility.yul\":5223:5240   */\n      add\n        /* \"#utility.yul\":5175:5254   */\n      tag_161\n      jump\t// in\n    tag_259:\n        /* \"#utility.yul\":5166:5254   */\n      swap2\n      pop\n        /* \"#utility.yul\":4982:5260   */\n      pop\n        /* \"#utility.yul\":4920:5260   */\n      swap3\n      swap2\n      pop\n      pop\n      jump\t// out\n        /* \"#utility.yul\":5266:6100   */\n    tag_37:\n        /* \"#utility.yul\":5354:5360   */\n      0x00\n        /* \"#utility.yul\":5362:5368   */\n      dup1\n        /* \"#utility.yul\":5411:5413   */\n      0x40\n        /* \"#utility.yul\":5399:5408   */\n      dup4\n        /* \"#utility.yul\":5390:5397   */\n      dup6\n        /* \"#utility.yul\":5386:5409   */\n      sub\n        /* \"#utility.yul\":5382:5414   */\n      slt\n        /* \"#utility.yul\":5379:5498   */\n      iszero\n      tag_261\n      jumpi\n        /* \"#utility.yul\":5417:5496   */\n      tag_262\n      tag_142\n      jump\t// in\n    tag_262:\n        /* \"#utility.yul\":5379:5498   */\n    tag_261:\n        /* \"#utility.yul\":5565:5566   */\n      0x00\n        /* \"#utility.yul\":5554:5563   */\n      dup4\n        /* \"#utility.yul\":5550:5567   */\n      add\n        /* \"#utility.yul\":5537:5568   */\n      calldataload\n        /* \"#utility.yul\":5595:5613   */\n      0xffffffffffffffff\n        /* \"#utility.yul\":5587:5593   */\n      dup2\n        /* \"#utility.yul\":5584:5614   */\n      gt\n        /* \"#utility.yul\":5581:5698   */\n      iszero\n      tag_263\n      jumpi\n        /* \"#utility.yul\":5617:5696   */\n      tag_264\n      tag_143\n      jump\t// in\n    tag_264:\n        /* \"#utility.yul\":5581:5698   */\n    tag_263:\n        /* \"#utility.yul\":5722:5785   */\n      tag_265\n        /* \"#utility.yul\":5777:5784   */\n      dup6\n        /* \"#utility.yul\":5768:5774   */\n      dup3\n        /* \"#utility.yul\":5757:5766   */\n      dup7\n        /* \"#utility.yul\":5753:5775   */\n      add\n        /* \"#utility.yul\":5722:5785   */\n      tag_162\n      jump\t// in\n    tag_265:\n        /* \"#utility.yul\":5712:5785   */\n      swap3\n      pop\n        /* \"#utility.yul\":5508:5795   */\n      pop\n        /* \"#utility.yul\":5862:5864   */\n      0x20\n        /* \"#utility.yul\":5851:5860   */\n      dup4\n        /* \"#utility.yul\":5847:5865   */\n      add\n        /* \"#utility.yul\":5834:5866   */\n      calldataload\n        /* \"#utility.yul\":5893:5911   */\n      0xffffffffffffffff\n        /* \"#utility.yul\":5885:5891   */\n      dup2\n        /* \"#utility.yul\":5882:5912   */\n      gt\n        /* \"#utility.yul\":5879:5996   */\n      iszero\n      tag_266\n      jumpi\n        /* \"#utility.yul\":5915:5994   */\n      tag_267\n      tag_143\n      jump\t// in\n    tag_267:\n        /* \"#utility.yul\":5879:5996   */\n    tag_266:\n        /* \"#utility.yul\":6020:6083   */\n      tag_268\n        /* \"#utility.yul\":6075:6082   */\n      dup6\n        /* \"#utility.yul\":6066:6072   */\n      dup3\n        /* \"#utility.yul\":6055:6064   */\n      dup7\n        /* \"#utility.yul\":6051:6073   */\n      add\n        /* \"#utility.yul\":6020:6083   */\n      tag_162\n      jump\t// in\n    tag_268:\n        /* \"#utility.yul\":6010:6083   */\n      swap2\n      pop\n        /* \"#utility.yul\":5805:6093   */\n      pop\n        /* \"#utility.yul\":5266:6100   */\n      swap3\n      pop\n      swap3\n      swap1\n      pop\n      jump\t// out\n        /* \"#utility.yul\":6106:6196   */\n    tag_163:\n        /* \"#utility.yul\":6140:6147   */\n      0x00\n        /* \"#utility.yul\":6183:6188   */\n      dup2\n        /* \"#utility.yul\":6176:6189   */\n      iszero\n        /* \"#utility.yul\":6169:6190   */\n      iszero\n        /* \"#utility.yul\":6158:6190   */\n      swap1\n      pop\n        /* \"#utility.yul\":6106:6196   */\n      swap2\n      swap1\n      pop\n      jump\t// out\n        /* \"#utility.yul\":6202:6311   */\n    tag_164:\n        /* \"#utility.yul\":6283:6304   */\n      tag_271\n        /* \"#utility.yul\":6298:6303   */\n      dup2\n        /* \"#utility.yul\":6283:6304   */\n      tag_163\n      jump\t// in\n    tag_271:\n        /* \"#utility.yul\":6278:6281   */\n      dup3\n        /* \"#utility.yul\":6271:6305   */\n      mstore\n        /* \"#utility.yul\":6202:6311   */\n      pop\n      pop\n      jump\t// out\n        /* \"#utility.yul\":6317:6527   */\n    tag_42:\n        /* \"#utility.yul\":6404:6408   */\n      0x00\n        /* \"#utility.yul\":6442:6444   */\n      0x20\n        /* \"#utility.yul\":6431:6440   */\n      dup3\n        /* \"#utility.yul\":6427:6445   */\n      add\n        /* \"#utility.yul\":6419:6445   */\n      swap1\n      pop\n        /* \"#utility.yul\":6455:6520   */\n      tag_273\n        /* \"#utility.yul\":6517:6518   */\n      0x00\n        /* \"#utility.yul\":6506:6515   */\n      dup4\n        /* \"#utility.yul\":6502:6519   */\n      add\n        /* \"#utility.yul\":6493:6499   */\n      dup5\n        /* \"#utility.yul\":6455:6520   */\n      tag_164\n      jump\t// in\n    tag_273:\n        /* \"#utility.yul\":6317:6527   */\n      swap3\n      swap2\n      pop\n      pop\n      jump\t// out\n        /* \"#utility.yul\":6533:6632   */\n    tag_165:\n        /* \"#utility.yul\":6585:6591   */\n      0x00\n        /* \"#utility.yul\":6619:6624   */\n      dup2\n        /* \"#utility.yul\":6613:6625   */\n      mload\n        /* \"#utility.yul\":6603:6625   */\n      swap1\n      pop\n        /* \"#utility.yul\":6533:6632   */\n      swap2\n      swap1\n      pop\n      jump\t// out\n        /* \"#utility.yul\":6638:6807   */\n    tag_166:\n        /* \"#utility.yul\":6722:6733   */\n      0x00\n        /* \"#utility.yul\":6756:6762   */\n      dup3\n        /* \"#utility.yul\":6751:6754   */\n      dup3\n        /* \"#utility.yul\":6744:6763   */\n      mstore\n        /* \"#utility.yul\":6796:6800   */\n      0x20\n        /* \"#utility.yul\":6791:6794   */\n      dup3\n        /* \"#utility.yul\":6787:6801   */\n      add\n        /* \"#utility.yul\":6772:6801   */\n      swap1\n      pop\n        /* \"#utility.yul\":6638:6807   */\n      swap3\n      swap2\n      pop\n      pop\n      jump\t// out\n        /* \"#utility.yul\":6813:7059   */\n    tag_167:\n        /* \"#utility.yul\":6894:6895   */\n      0x00\n        /* \"#utility.yul\":6904:7017   */\n    tag_277:\n        /* \"#utility.yul\":6918:6924   */\n      dup4\n        /* \"#utility.yul\":6915:6916   */\n      dup2\n        /* \"#utility.yul\":6912:6925   */\n      lt\n        /* \"#utility.yul\":6904:7017   */\n      iszero\n      tag_279\n      jumpi\n        /* \"#utility.yul\":7003:7004   */\n      dup1\n        /* \"#utility.yul\":6998:7001   */\n      dup3\n        /* \"#utility.yul\":6994:7005   */\n      add\n        /* \"#utility.yul\":6988:7006   */\n      mload\n        /* \"#utility.yul\":6984:6985   */\n      dup2\n        /* \"#utility.yul\":6979:6982   */\n      dup5\n        /* \"#utility.yul\":6975:6986   */\n      add\n        /* \"#utility.yul\":6968:7007   */\n      mstore\n        /* \"#utility.yul\":6940:6942   */\n      0x20\n        /* \"#utility.yul\":6937:6938   */\n      dup2\n        /* \"#utility.yul\":6933:6943   */\n      add\n        /* \"#utility.yul\":6928:6943   */\n      swap1\n      pop\n        /* \"#utility.yul\":6904:7017   */\n      jump(tag_277)\n    tag_279:\n        /* \"#utility.yul\":7051:7052   */\n      0x00\n        /* \"#utility.yul\":7042:7048   */\n      dup5\n        /* \"#utility.yul\":7037:7040   */\n      dup5\n        /* \"#utility.yul\":7033:7049   */\n      add\n        /* \"#utility.yul\":7026:7053   */\n      mstore\n        /* \"#utility.yul\":6875:7059   */\n      pop\n        /* \"#utility.yul\":6813:7059   */\n      pop\n      pop\n      pop\n      jump\t// out\n        /* \"#utility.yul\":7065:7442   */\n    tag_168:\n        /* \"#utility.yul\":7153:7156   */\n      0x00\n        /* \"#utility.yul\":7181:7220   */\n      tag_281\n        /* \"#utility.yul\":7214:7219   */\n      dup3\n        /* \"#utility.yul\":7181:7220   */\n      tag_165\n      jump\t// in\n    tag_281:\n        /* \"#utility.yul\":7236:7307   */\n      tag_282\n        /* \"#utility.yul\":7300:7306   */\n      dup2\n        /* \"#utility.yul\":7295:7298   */\n      dup6\n        /* \"#utility.yul\":7236:7307   */\n      tag_166\n      jump\t// in\n    tag_282:\n        /* \"#utility.yul\":7229:7307   */\n      swap4\n      pop\n        /* \"#utility.yul\":7316:7381   */\n      tag_283\n        /* \"#utility.yul\":7374:7380   */\n      dup2\n        /* \"#utility.yul\":7369:7372   */\n      dup6\n        /* \"#utility.yul\":7362:7366   */\n      0x20\n        /* \"#utility.yul\":7355:7360   */\n      dup7\n        /* \"#utility.yul\":7351:7367   */\n      add\n        /* \"#utility.yul\":7316:7381   */\n      tag_167\n      jump\t// in\n    tag_283:\n        /* \"#utility.yul\":7406:7435   */\n      tag_284\n        /* \"#utility.yul\":7428:7434   */\n      dup2\n        /* \"#utility.yul\":7406:7435   */\n      tag_155\n      jump\t// in\n    tag_284:\n        /* \"#utility.yul\":7401:7404   */\n      dup5\n        /* \"#utility.yul\":7397:7436   */\n      add\n        /* \"#utility.yul\":7390:7436   */\n      swap2\n      pop\n        /* \"#utility.yul\":7157:7442   */\n      pop\n        /* \"#utility.yul\":7065:7442   */\n      swap3\n      swap2\n      pop\n      pop\n      jump\t// out\n        /* \"#utility.yul\":7448:7761   */\n    tag_46:\n        /* \"#utility.yul\":7561:7565   */\n      0x00\n        /* \"#utility.yul\":7599:7601   */\n      0x20\n        /* \"#utility.yul\":7588:7597   */\n      dup3\n        /* \"#utility.yul\":7584:7602   */\n      add\n        /* \"#utility.yul\":7576:7602   */\n      swap1\n      pop\n        /* \"#utility.yul\":7648:7657   */\n      dup2\n        /* \"#utility.yul\":7642:7646   */\n      dup2\n        /* \"#utility.yul\":7638:7658   */\n      sub\n        /* \"#utility.yul\":7634:7635   */\n      0x00\n        /* \"#utility.yul\":7623:7632   */\n      dup4\n        /* \"#utility.yul\":7619:7636   */\n      add\n        /* \"#utility.yul\":7612:7659   */\n      mstore\n        /* \"#utility.yul\":7676:7754   */\n      tag_286\n        /* \"#utility.yul\":7749:7753   */\n      dup2\n        /* \"#utility.yul\":7740:7746   */\n      dup5\n        /* \"#utility.yul\":7676:7754   */\n      tag_168\n      jump\t// in\n    tag_286:\n        /* \"#utility.yul\":7668:7754   */\n      swap1\n      pop\n        /* \"#utility.yul\":7448:7761   */\n      swap3\n      swap2\n      pop\n      pop\n      jump\t// out\n        /* \"#utility.yul\":7767:8532   */\n    tag_66:\n        /* \"#utility.yul\":7853:7859   */\n      0x00\n        /* \"#utility.yul\":7861:7867   */\n      dup1\n        /* \"#utility.yul\":7869:7875   */\n      0x00\n        /* \"#utility.yul\":7877:7883   */\n      dup1\n        /* \"#utility.yul\":7926:7929   */\n      0x80\n        /* \"#utility.yul\":7914:7923   */\n      dup6\n        /* \"#utility.yul\":7905:7912   */\n      dup8\n        /* \"#utility.yul\":7901:7924   */\n      sub\n        /* \"#utility.yul\":7897:7930   */\n      slt\n        /* \"#utility.yul\":7894:8014   */\n      iszero\n      tag_288\n      jumpi\n        /* \"#utility.yul\":7933:8012   */\n      tag_289\n      tag_142\n      jump\t// in\n    tag_289:\n        /* \"#utility.yul\":7894:8014   */\n    tag_288:\n        /* \"#utility.yul\":8053:8054   */\n      0x00\n        /* \"#utility.yul\":8078:8131   */\n      tag_290\n        /* \"#utility.yul\":8123:8130   */\n      dup8\n        /* \"#utility.yul\":8114:8120   */\n      dup3\n        /* \"#utility.yul\":8103:8112   */\n      dup9\n        /* \"#utility.yul\":8099:8121   */\n      add\n        /* \"#utility.yul\":8078:8131   */\n      tag_152\n      jump\t// in\n    tag_290:\n        /* \"#utility.yul\":8068:8131   */\n      swap5\n      pop\n        /* \"#utility.yul\":8024:8141   */\n      pop\n        /* \"#utility.yul\":8180:8182   */\n      0x20\n        /* \"#utility.yul\":8206:8259   */\n      tag_291\n        /* \"#utility.yul\":8251:8258   */\n      dup8\n        /* \"#utility.yul\":8242:8248   */\n      dup3\n        /* \"#utility.yul\":8231:8240   */\n      dup9\n        /* \"#utility.yul\":8227:8249   */\n      add\n        /* \"#utility.yul\":8206:8259   */\n      tag_152\n      jump\t// in\n    tag_291:\n        /* \"#utility.yul\":8196:8259   */\n      swap4\n      pop\n        /* \"#utility.yul\":8151:8269   */\n      pop\n        /* \"#utility.yul\":8308:8310   */\n      0x40\n        /* \"#utility.yul\":8334:8387   */\n      tag_292\n        /* \"#utility.yul\":8379:8386   */\n      dup8\n        /* \"#utility.yul\":8370:8376   */\n      dup3\n        /* \"#utility.yul\":8359:8368   */\n      dup9\n        /* \"#utility.yul\":8355:8377   */\n      add\n        /* \"#utility.yul\":8334:8387   */\n      tag_146\n      jump\t// in\n    tag_292:\n        /* \"#utility.yul\":8324:8387   */\n      swap3\n      pop\n        /* \"#utility.yul\":8279:8397   */\n      pop\n        /* \"#utility.yul\":8436:8438   */\n      0x60\n        /* \"#utility.yul\":8462:8515   */\n      tag_293\n        /* \"#utility.yul\":8507:8514   */\n      dup8\n        /* \"#utility.yul\":8498:8504   */\n      dup3\n        /* \"#utility.yul\":8487:8496   */\n      dup9\n        /* \"#utility.yul\":8483:8505   */\n      add\n        /* \"#utility.yul\":8462:8515   */\n      tag_146\n      jump\t// in\n    tag_293:\n        /* \"#utility.yul\":8452:8515   */\n      swap2\n      pop\n        /* \"#utility.yul\":8407:8525   */\n      pop\n        /* \"#utility.yul\":7767:8532   */\n      swap3\n      swap6\n      swap2\n      swap5\n      pop\n      swap3\n      pop\n      jump\t// out\n        /* \"#utility.yul\":8538:8716   */\n    tag_169:\n        /* \"#utility.yul\":8678:8708   */\n      0x2054686973206164647265737320646f65736e27742065786973747300000000\n        /* \"#utility.yul\":8674:8675   */\n      0x00\n        /* \"#utility.yul\":8666:8672   */\n      dup3\n        /* \"#utility.yul\":8662:8676   */\n      add\n        /* \"#utility.yul\":8655:8709   */\n      mstore\n        /* \"#utility.yul\":8538:8716   */\n      pop\n      jump\t// out\n        /* \"#utility.yul\":8722:9088   */\n    tag_170:\n        /* \"#utility.yul\":8864:8867   */\n      0x00\n        /* \"#utility.yul\":8885:8952   */\n      tag_296\n        /* \"#utility.yul\":8949:8951   */\n      0x1c\n        /* \"#utility.yul\":8944:8947   */\n      dup4\n        /* \"#utility.yul\":8885:8952   */\n      tag_166\n      jump\t// in\n    tag_296:\n        /* \"#utility.yul\":8878:8952   */\n      swap2\n      pop\n        /* \"#utility.yul\":8961:9054   */\n      tag_297\n        /* \"#utility.yul\":9050:9053   */\n      dup3\n        /* \"#utility.yul\":8961:9054   */\n      tag_169\n      jump\t// in\n    tag_297:\n        /* \"#utility.yul\":9079:9081   */\n      0x20\n        /* \"#utility.yul\":9074:9077   */\n      dup3\n        /* \"#utility.yul\":9070:9082   */\n      add\n        /* \"#utility.yul\":9063:9082   */\n      swap1\n      pop\n        /* \"#utility.yul\":8722:9088   */\n      swap2\n      swap1\n      pop\n      jump\t// out\n        /* \"#utility.yul\":9094:9513   */\n    tag_79:\n        /* \"#utility.yul\":9260:9264   */\n      0x00\n        /* \"#utility.yul\":9298:9300   */\n      0x20\n        /* \"#utility.yul\":9287:9296   */\n      dup3\n        /* \"#utility.yul\":9283:9301   */\n      add\n        /* \"#utility.yul\":9275:9301   */\n      swap1\n      pop\n        /* \"#utility.yul\":9347:9356   */\n      dup2\n        /* \"#utility.yul\":9341:9345   */\n      dup2\n        /* \"#utility.yul\":9337:9357   */\n      sub\n        /* \"#utility.yul\":9333:9334   */\n      0x00\n        /* \"#utility.yul\":9322:9331   */\n      dup4\n        /* \"#utility.yul\":9318:9335   */\n      add\n        /* \"#utility.yul\":9311:9358   */\n      mstore\n        /* \"#utility.yul\":9375:9506   */\n      tag_299\n        /* \"#utility.yul\":9501:9505   */\n      dup2\n        /* \"#utility.yul\":9375:9506   */\n      tag_170\n      jump\t// in\n    tag_299:\n        /* \"#utility.yul\":9367:9506   */\n      swap1\n      pop\n        /* \"#utility.yul\":9094:9513   */\n      swap2\n      swap1\n      pop\n      jump\t// out\n        /* \"#utility.yul\":9519:9692   */\n    tag_171:\n        /* \"#utility.yul\":9659:9684   */\n      0x506c6561736520696e7365727420796f75722063617264000000000000000000\n        /* \"#utility.yul\":9655:9656   */\n      0x00\n        /* \"#utility.yul\":9647:9653   */\n      dup3\n        /* \"#utility.yul\":9643:9657   */\n      add\n        /* \"#utility.yul\":9636:9685   */\n      mstore\n        /* \"#utility.yul\":9519:9692   */\n      pop\n      jump\t// out\n        /* \"#utility.yul\":9698:10064   */\n    tag_172:\n        /* \"#utility.yul\":9840:9843   */\n      0x00\n        /* \"#utility.yul\":9861:9928   */\n      tag_302\n        /* \"#utility.yul\":9925:9927   */\n      0x17\n        /* \"#utility.yul\":9920:9923   */\n      dup4\n        /* \"#utility.yul\":9861:9928   */\n      tag_166\n      jump\t// in\n    tag_302:\n        /* \"#utility.yul\":9854:9928   */\n      swap2\n      pop\n        /* \"#utility.yul\":9937:10030   */\n      tag_303\n        /* \"#utility.yul\":10026:10029   */\n      dup3\n        /* \"#utility.yul\":9937:10030   */\n      tag_171\n      jump\t// in\n    tag_303:\n        /* \"#utility.yul\":10055:10057   */\n      0x20\n        /* \"#utility.yul\":10050:10053   */\n      dup3\n        /* \"#utility.yul\":10046:10058   */\n      add\n        /* \"#utility.yul\":10039:10058   */\n      swap1\n      pop\n        /* \"#utility.yul\":9698:10064   */\n      swap2\n      swap1\n      pop\n      jump\t// out\n        /* \"#utility.yul\":10070:10489   */\n    tag_83:\n        /* \"#utility.yul\":10236:10240   */\n      0x00\n        /* \"#utility.yul\":10274:10276   */\n      0x20\n        /* \"#utility.yul\":10263:10272   */\n      dup3\n        /* \"#utility.yul\":10259:10277   */\n      add\n        /* \"#utility.yul\":10251:10277   */\n      swap1\n      pop\n        /* \"#utility.yul\":10323:10332   */\n      dup2\n        /* \"#utility.yul\":10317:10321   */\n      dup2\n        /* \"#utility.yul\":10313:10333   */\n      sub\n        /* \"#utility.yul\":10309:10310   */\n      0x00\n        /* \"#utility.yul\":10298:10307   */\n      dup4\n        /* \"#utility.yul\":10294:10311   */\n      add\n        /* \"#utility.yul\":10287:10334   */\n      mstore\n        /* \"#utility.yul\":10351:10482   */\n      tag_305\n        /* \"#utility.yul\":10477:10481   */\n      dup2\n        /* \"#utility.yul\":10351:10482   */\n      tag_172\n      jump\t// in\n    tag_305:\n        /* \"#utility.yul\":10343:10482   */\n      swap1\n      pop\n        /* \"#utility.yul\":10070:10489   */\n      swap2\n      swap1\n      pop\n      jump\t// out\n        /* \"#utility.yul\":10495:10675   */\n    tag_173:\n        /* \"#utility.yul\":10543:10620   */\n      0x4e487b7100000000000000000000000000000000000000000000000000000000\n        /* \"#utility.yul\":10540:10541   */\n      0x00\n        /* \"#utility.yul\":10533:10621   */\n      mstore\n        /* \"#utility.yul\":10640:10644   */\n      0x11\n        /* \"#utility.yul\":10637:10638   */\n      0x04\n        /* \"#utility.yul\":10630:10645   */\n      mstore\n        /* \"#utility.yul\":10664:10668   */\n      0x24\n        /* \"#utility.yul\":10661:10662   */\n      0x00\n        /* \"#utility.yul\":10654:10669   */\n      revert\n        /* \"#utility.yul\":10681:10872   */\n    tag_87:\n        /* \"#utility.yul\":10721:10724   */\n      0x00\n        /* \"#utility.yul\":10740:10760   */\n      tag_308\n        /* \"#utility.yul\":10758:10759   */\n      dup3\n        /* \"#utility.yul\":10740:10760   */\n      tag_144\n      jump\t// in\n    tag_308:\n        /* \"#utility.yul\":10735:10760   */\n      swap2\n      pop\n        /* \"#utility.yul\":10774:10794   */\n      tag_309\n        /* \"#utility.yul\":10792:10793   */\n      dup4\n        /* \"#utility.yul\":10774:10794   */\n      tag_144\n      jump\t// in\n    tag_309:\n        /* \"#utility.yul\":10769:10794   */\n      swap3\n      pop\n        /* \"#utility.yul\":10817:10818   */\n      dup3\n        /* \"#utility.yul\":10814:10815   */\n      dup3\n        /* \"#utility.yul\":10810:10819   */\n      add\n        /* \"#utility.yul\":10803:10819   */\n      swap1\n      pop\n        /* \"#utility.yul\":10838:10841   */\n      dup1\n        /* \"#utility.yul\":10835:10836   */\n      dup3\n        /* \"#utility.yul\":10832:10842   */\n      gt\n        /* \"#utility.yul\":10829:10865   */\n      iszero\n      tag_310\n      jumpi\n        /* \"#utility.yul\":10845:10863   */\n      tag_311\n      tag_173\n      jump\t// in\n    tag_311:\n        /* \"#utility.yul\":10829:10865   */\n    tag_310:\n        /* \"#utility.yul\":10681:10872   */\n      swap3\n      swap2\n      pop\n      pop\n      jump\t// out\n        /* \"#utility.yul\":10878:11058   */\n    tag_91:\n        /* \"#utility.yul\":10926:11003   */\n      0x4e487b7100000000000000000000000000000000000000000000000000000000\n        /* \"#utility.yul\":10923:10924   */\n      0x00\n        /* \"#utility.yul\":10916:11004   */\n      mstore\n        /* \"#utility.yul\":11023:11027   */\n      0x01\n        /* \"#utility.yul\":11020:11021   */\n      0x04\n        /* \"#utility.yul\":11013:11028   */\n      mstore\n        /* \"#utility.yul\":11047:11051   */\n      0x24\n        /* \"#utility.yul\":11044:11045   */\n      0x00\n        /* \"#utility.yul\":11037:11052   */\n      revert\n        /* \"#utility.yul\":11064:11241   */\n    tag_174:\n        /* \"#utility.yul\":11204:11233   */\n      0x6f6e6c792035207472616e73616374696f6e7320706572206461790000000000\n        /* \"#utility.yul\":11200:11201   */\n      0x00\n        /* \"#utility.yul\":11192:11198   */\n      dup3\n        /* \"#utility.yul\":11188:11202   */\n      add\n        /* \"#utility.yul\":11181:11234   */\n      mstore\n        /* \"#utility.yul\":11064:11241   */\n      pop\n      jump\t// out\n        /* \"#utility.yul\":11247:11613   */\n    tag_175:\n        /* \"#utility.yul\":11389:11392   */\n      0x00\n        /* \"#utility.yul\":11410:11477   */\n      tag_315\n        /* \"#utility.yul\":11474:11476   */\n      0x1b\n        /* \"#utility.yul\":11469:11472   */\n      dup4\n        /* \"#utility.yul\":11410:11477   */\n      tag_166\n      jump\t// in\n    tag_315:\n        /* \"#utility.yul\":11403:11477   */\n      swap2\n      pop\n        /* \"#utility.yul\":11486:11579   */\n      tag_316\n        /* \"#utility.yul\":11575:11578   */\n      dup3\n        /* \"#utility.yul\":11486:11579   */\n      tag_174\n      jump\t// in\n    tag_316:\n        /* \"#utility.yul\":11604:11606   */\n      0x20\n        /* \"#utility.yul\":11599:11602   */\n      dup3\n        /* \"#utility.yul\":11595:11607   */\n      add\n        /* \"#utility.yul\":11588:11607   */\n      swap1\n      pop\n        /* \"#utility.yul\":11247:11613   */\n      swap2\n      swap1\n      pop\n      jump\t// out\n        /* \"#utility.yul\":11619:12038   */\n    tag_93:\n        /* \"#utility.yul\":11785:11789   */\n      0x00\n        /* \"#utility.yul\":11823:11825   */\n      0x20\n        /* \"#utility.yul\":11812:11821   */\n      dup3\n        /* \"#utility.yul\":11808:11826   */\n      add\n        /* \"#utility.yul\":11800:11826   */\n      swap1\n      pop\n        /* \"#utility.yul\":11872:11881   */\n      dup2\n        /* \"#utility.yul\":11866:11870   */\n      dup2\n        /* \"#utility.yul\":11862:11882   */\n      sub\n        /* \"#utility.yul\":11858:11859   */\n      0x00\n        /* \"#utility.yul\":11847:11856   */\n      dup4\n        /* \"#utility.yul\":11843:11860   */\n      add\n        /* \"#utility.yul\":11836:11883   */\n      mstore\n        /* \"#utility.yul\":11900:12031   */\n      tag_318\n        /* \"#utility.yul\":12026:12030   */\n      dup2\n        /* \"#utility.yul\":11900:12031   */\n      tag_175\n      jump\t// in\n    tag_318:\n        /* \"#utility.yul\":11892:12031   */\n      swap1\n      pop\n        /* \"#utility.yul\":11619:12038   */\n      swap2\n      swap1\n      pop\n      jump\t// out\n        /* \"#utility.yul\":12044:12238   */\n    tag_104:\n        /* \"#utility.yul\":12084:12088   */\n      0x00\n        /* \"#utility.yul\":12104:12124   */\n      tag_320\n        /* \"#utility.yul\":12122:12123   */\n      dup3\n        /* \"#utility.yul\":12104:12124   */\n      tag_144\n      jump\t// in\n    tag_320:\n        /* \"#utility.yul\":12099:12124   */\n      swap2\n      pop\n        /* \"#utility.yul\":12138:12158   */\n      tag_321\n        /* \"#utility.yul\":12156:12157   */\n      dup4\n        /* \"#utility.yul\":12138:12158   */\n      tag_144\n      jump\t// in\n    tag_321:\n        /* \"#utility.yul\":12133:12158   */\n      swap3\n      pop\n        /* \"#utility.yul\":12182:12183   */\n      dup3\n        /* \"#utility.yul\":12179:12180   */\n      dup3\n        /* \"#utility.yul\":12175:12184   */\n      sub\n        /* \"#utility.yul\":12167:12184   */\n      swap1\n      pop\n        /* \"#utility.yul\":12206:12207   */\n      dup2\n        /* \"#utility.yul\":12200:12204   */\n      dup2\n        /* \"#utility.yul\":12197:12208   */\n      gt\n        /* \"#utility.yul\":12194:12231   */\n      iszero\n      tag_322\n      jumpi\n        /* \"#utility.yul\":12211:12229   */\n      tag_323\n      tag_173\n      jump\t// in\n    tag_323:\n        /* \"#utility.yul\":12194:12231   */\n    tag_322:\n        /* \"#utility.yul\":12044:12238   */\n      swap3\n      swap2\n      pop\n      pop\n      jump\t// out\n        /* \"#utility.yul\":12244:12424   */\n    tag_176:\n        /* \"#utility.yul\":12292:12369   */\n      0x4e487b7100000000000000000000000000000000000000000000000000000000\n        /* \"#utility.yul\":12289:12290   */\n      0x00\n        /* \"#utility.yul\":12282:12370   */\n      mstore\n        /* \"#utility.yul\":12389:12393   */\n      0x22\n        /* \"#utility.yul\":12386:12387   */\n      0x04\n        /* \"#utility.yul\":12379:12394   */\n      mstore\n        /* \"#utility.yul\":12413:12417   */\n      0x24\n        /* \"#utility.yul\":12410:12411   */\n      0x00\n        /* \"#utility.yul\":12403:12418   */\n      revert\n        /* \"#utility.yul\":12430:12750   */\n    tag_116:\n        /* \"#utility.yul\":12474:12480   */\n      0x00\n        /* \"#utility.yul\":12511:12512   */\n      0x02\n        /* \"#utility.yul\":12505:12509   */\n      dup3\n        /* \"#utility.yul\":12501:12513   */\n      div\n        /* \"#utility.yul\":12491:12513   */\n      swap1\n      pop\n        /* \"#utility.yul\":12558:12559   */\n      0x01\n        /* \"#utility.yul\":12552:12556   */\n      dup3\n        /* \"#utility.yul\":12548:12560   */\n      and\n        /* \"#utility.yul\":12579:12597   */\n      dup1\n        /* \"#utility.yul\":12569:12650   */\n      tag_326\n      jumpi\n        /* \"#utility.yul\":12635:12639   */\n      0x7f\n        /* \"#utility.yul\":12627:12633   */\n      dup3\n        /* \"#utility.yul\":12623:12640   */\n      and\n        /* \"#utility.yul\":12613:12640   */\n      swap2\n      pop\n        /* \"#utility.yul\":12569:12650   */\n    tag_326:\n        /* \"#utility.yul\":12697:12699   */\n      0x20\n        /* \"#utility.yul\":12689:12695   */\n      dup3\n        /* \"#utility.yul\":12686:12700   */\n      lt\n        /* \"#utility.yul\":12666:12684   */\n      dup2\n        /* \"#utility.yul\":12663:12701   */\n      sub\n        /* \"#utility.yul\":12660:12744   */\n      tag_327\n      jumpi\n        /* \"#utility.yul\":12716:12734   */\n      tag_328\n      tag_176\n      jump\t// in\n    tag_328:\n        /* \"#utility.yul\":12660:12744   */\n    tag_327:\n        /* \"#utility.yul\":12481:12750   */\n      pop\n        /* \"#utility.yul\":12430:12750   */\n      swap2\n      swap1\n      pop\n      jump\t// out\n        /* \"#utility.yul\":12756:12897   */\n    tag_177:\n        /* \"#utility.yul\":12805:12809   */\n      0x00\n        /* \"#utility.yul\":12828:12831   */\n      dup2\n        /* \"#utility.yul\":12820:12831   */\n      swap1\n      pop\n        /* \"#utility.yul\":12851:12854   */\n      dup2\n        /* \"#utility.yul\":12848:12849   */\n      0x00\n        /* \"#utility.yul\":12841:12855   */\n      mstore\n        /* \"#utility.yul\":12885:12889   */\n      0x20\n        /* \"#utility.yul\":12882:12883   */\n      0x00\n        /* \"#utility.yul\":12872:12890   */\n      keccak256\n        /* \"#utility.yul\":12864:12890   */\n      swap1\n      pop\n        /* \"#utility.yul\":12756:12897   */\n      swap2\n      swap1\n      pop\n      jump\t// out\n        /* \"#utility.yul\":12903:12996   */\n    tag_178:\n        /* \"#utility.yul\":12940:12946   */\n      0x00\n        /* \"#utility.yul\":12987:12989   */\n      0x20\n        /* \"#utility.yul\":12982:12984   */\n      0x1f\n        /* \"#utility.yul\":12975:12980   */\n      dup4\n        /* \"#utility.yul\":12971:12985   */\n      add\n        /* \"#utility.yul\":12967:12990   */\n      div\n        /* \"#utility.yul\":12957:12990   */\n      swap1\n      pop\n        /* \"#utility.yul\":12903:12996   */\n      swap2\n      swap1\n      pop\n      jump\t// out\n        /* \"#utility.yul\":13002:13109   */\n    tag_179:\n        /* \"#utility.yul\":13046:13054   */\n      0x00\n        /* \"#utility.yul\":13096:13101   */\n      dup3\n        /* \"#utility.yul\":13090:13094   */\n      dup3\n        /* \"#utility.yul\":13086:13102   */\n      shl\n        /* \"#utility.yul\":13065:13102   */\n      swap1\n      pop\n        /* \"#utility.yul\":13002:13109   */\n      swap3\n      swap2\n      pop\n      pop\n      jump\t// out\n        /* \"#utility.yul\":13115:13508   */\n    tag_180:\n        /* \"#utility.yul\":13184:13190   */\n      0x00\n        /* \"#utility.yul\":13234:13235   */\n      0x08\n        /* \"#utility.yul\":13222:13232   */\n      dup4\n        /* \"#utility.yul\":13218:13236   */\n      mul\n        /* \"#utility.yul\":13257:13354   */\n      tag_333\n        /* \"#utility.yul\":13287:13353   */\n      0xffffffffffffffffffffffffffffffffffffffffffffffffffffffffffffffff\n        /* \"#utility.yul\":13276:13285   */\n      dup3\n        /* \"#utility.yul\":13257:13354   */\n      tag_179\n      jump\t// in\n    tag_333:\n        /* \"#utility.yul\":13375:13414   */\n      tag_334\n        /* \"#utility.yul\":13405:13413   */\n      dup7\n        /* \"#utility.yul\":13394:13403   */\n      dup4\n        /* \"#utility.yul\":13375:13414   */\n      tag_179\n      jump\t// in\n    tag_334:\n        /* \"#utility.yul\":13363:13414   */\n      swap6\n      pop\n        /* \"#utility.yul\":13447:13451   */\n      dup1\n        /* \"#utility.yul\":13443:13452   */\n      not\n        /* \"#utility.yul\":13436:13441   */\n      dup5\n        /* \"#utility.yul\":13432:13453   */\n      and\n        /* \"#utility.yul\":13423:13453   */\n      swap4\n      pop\n        /* \"#utility.yul\":13496:13500   */\n      dup1\n        /* \"#utility.yul\":13486:13494   */\n      dup7\n        /* \"#utility.yul\":13482:13501   */\n      and\n        /* \"#utility.yul\":13475:13480   */\n      dup5\n        /* \"#utility.yul\":13472:13502   */\n      or\n        /* \"#utility.yul\":13462:13502   */\n      swap3\n      pop\n        /* \"#utility.yul\":13191:13508   */\n      pop\n      pop\n        /* \"#utility.yul\":13115:13508   */\n      swap4\n      swap3\n      pop\n      pop\n      pop\n      jump\t// out\n        /* \"#utility.yul\":13514:13574   */\n    tag_181:\n        /* \"#utility.yul\":13542:13545   */\n      0x00\n        /* \"#utility.yul\":13563:13568   */\n      dup2\n        /* \"#utility.yul\":13556:13568   */\n      swap1\n      pop\n        /* \"#utility.yul\":13514:13574   */\n      swap2\n      swap1\n      pop\n      jump\t// out\n        /* \"#utility.yul\":13580:13722   */\n    tag_182:\n        /* \"#utility.yul\":13630:13639   */\n      0x00\n        /* \"#utility.yul\":13663:13716   */\n      tag_337\n        /* \"#utility.yul\":13681:13715   */\n      tag_338\n        /* \"#utility.yul\":13690:13714   */\n      tag_339\n        /* \"#utility.yul\":13708:13713   */\n      dup5\n        /* \"#utility.yul\":13690:13714   */\n      tag_144\n      jump\t// in\n    tag_339:\n        /* \"#utility.yul\":13681:13715   */\n      tag_181\n      jump\t// in\n    tag_338:\n        /* \"#utility.yul\":13663:13716   */\n      tag_144\n      jump\t// in\n    tag_337:\n        /* \"#utility.yul\":13650:13716   */\n      swap1\n      pop\n        /* \"#utility.yul\":13580:13722   */\n      swap2\n      swap1\n      pop\n      jump\t// out\n        /* \"#utility.yul\":13728:13803   */\n    tag_183:\n        /* \"#utility.yul\":13771:13774   */\n      0x00\n        /* \"#utility.yul\":13792:13797   */\n      dup2\n        /* \"#utility.yul\":13785:13797   */\n      swap1\n      pop\n        /* \"#utility.yul\":13728:13803   */\n      swap2\n      swap1\n      pop\n      jump\t// out\n        /* \"#utility.yul\":13809:14078   */\n    tag_184:\n        /* \"#utility.yul\":13919:13958   */\n      tag_342\n        /* \"#utility.yul\":13950:13957   */\n      dup4\n        /* \"#utility.yul\":13919:13958   */\n      tag_182\n      jump\t// in\n    tag_342:\n        /* \"#utility.yul\":13980:14071   */\n      tag_343\n        /* \"#utility.yul\":14029:14070   */\n      tag_344\n        /* \"#utility.yul\":14053:14069   */\n      dup3\n        /* \"#utility.yul\":14029:14070   */\n      tag_183\n      jump\t// in\n    tag_344:\n        /* \"#utility.yul\":14021:14027   */\n      dup5\n        /* \"#utility.yul\":14014:14018   */\n      dup5\n        /* \"#utility.yul\":14008:14019   */\n      sload\n        /* \"#utility.yul\":13980:14071   */\n      tag_180\n      jump\t// in\n    tag_343:\n        /* \"#utility.yul\":13974:13978   */\n      dup3\n        /* \"#utility.yul\":13967:14072   */\n      sstore\n        /* \"#utility.yul\":13885:14078   */\n      pop\n        /* \"#utility.yul\":13809:14078   */\n      pop\n      pop\n      pop\n      jump\t// out\n        /* \"#utility.yul\":14084:14157   */\n    tag_185:\n        /* \"#utility.yul\":14129:14132   */\n      0x00\n        /* \"#utility.yul\":14084:14157   */\n      swap1\n      jump\t// out\n        /* \"#utility.yul\":14163:14352   */\n    tag_186:\n        /* \"#utility.yul\":14240:14272   */\n      tag_347\n      tag_185\n      jump\t// in\n    tag_347:\n        /* \"#utility.yul\":14281:14346   */\n      tag_348\n        /* \"#utility.yul\":14339:14345   */\n      dup2\n        /* \"#utility.yul\":14331:14337   */\n      dup5\n        /* \"#utility.yul\":14325:14329   */\n      dup5\n        /* \"#utility.yul\":14281:14346   */\n      tag_184\n      jump\t// in\n    tag_348:\n        /* \"#utility.yul\":14216:14352   */\n      pop\n        /* \"#utility.yul\":14163:14352   */\n      pop\n      pop\n      jump\t// out\n        /* \"#utility.yul\":14358:14544   */\n    tag_187:\n        /* \"#utility.yul\":14418:14538   */\n    tag_350:\n        /* \"#utility.yul\":14435:14438   */\n      dup2\n        /* \"#utility.yul\":14428:14433   */\n      dup2\n        /* \"#utility.yul\":14425:14439   */\n      lt\n        /* \"#utility.yul\":14418:14538   */\n      iszero\n      tag_352\n      jumpi\n        /* \"#utility.yul\":14489:14528   */\n      tag_353\n        /* \"#utility.yul\":14526:14527   */\n      0x00\n        /* \"#utility.yul\":14519:14524   */\n      dup3\n        /* \"#utility.yul\":14489:14528   */\n      tag_186\n      jump\t// in\n    tag_353:\n        /* \"#utility.yul\":14462:14463   */\n      0x01\n        /* \"#utility.yul\":14455:14460   */\n      dup2\n        /* \"#utility.yul\":14451:14464   */\n      add\n        /* \"#utility.yul\":14442:14464   */\n      swap1\n      pop\n        /* \"#utility.yul\":14418:14538   */\n      jump(tag_350)\n    tag_352:\n        /* \"#utility.yul\":14358:14544   */\n      pop\n      pop\n      jump\t// out\n        /* \"#utility.yul\":14550:15093   */\n    tag_188:\n        /* \"#utility.yul\":14651:14653   */\n      0x1f\n        /* \"#utility.yul\":14646:14649   */\n      dup3\n        /* \"#utility.yul\":14643:14654   */\n      gt\n        /* \"#utility.yul\":14640:15086   */\n      iszero\n      tag_355\n      jumpi\n        /* \"#utility.yul\":14685:14723   */\n      tag_356\n        /* \"#utility.yul\":14717:14722   */\n      dup2\n        /* \"#utility.yul\":14685:14723   */\n      tag_177\n      jump\t// in\n    tag_356:\n        /* \"#utility.yul\":14769:14798   */\n      tag_357\n        /* \"#utility.yul\":14787:14797   */\n      dup5\n        /* \"#utility.yul\":14769:14798   */\n      tag_178\n      jump\t// in\n    tag_357:\n        /* \"#utility.yul\":14759:14767   */\n      dup2\n        /* \"#utility.yul\":14755:14799   */\n      add\n        /* \"#utility.yul\":14952:14954   */\n      0x20\n        /* \"#utility.yul\":14940:14950   */\n      dup6\n        /* \"#utility.yul\":14937:14955   */\n      lt\n        /* \"#utility.yul\":14934:14983   */\n      iszero\n      tag_358\n      jumpi\n        /* \"#utility.yul\":14973:14981   */\n      dup2\n        /* \"#utility.yul\":14958:14981   */\n      swap1\n      pop\n        /* \"#utility.yul\":14934:14983   */\n    tag_358:\n        /* \"#utility.yul\":14996:15076   */\n      tag_359\n        /* \"#utility.yul\":15052:15074   */\n      tag_360\n        /* \"#utility.yul\":15070:15073   */\n      dup6\n        /* \"#utility.yul\":15052:15074   */\n      tag_178\n      jump\t// in\n    tag_360:\n        /* \"#utility.yul\":15042:15050   */\n      dup4\n        /* \"#utility.yul\":15038:15075   */\n      add\n        /* \"#utility.yul\":15025:15036   */\n      dup3\n        /* \"#utility.yul\":14996:15076   */\n      tag_187\n      jump\t// in\n    tag_359:\n        /* \"#utility.yul\":14655:15086   */\n      pop\n      pop\n        /* \"#utility.yul\":14640:15086   */\n    tag_355:\n        /* \"#utility.yul\":14550:15093   */\n      pop\n      pop\n      pop\n      jump\t// out\n        /* \"#utility.yul\":15099:15216   */\n    tag_189:\n        /* \"#utility.yul\":15153:15161   */\n      0x00\n        /* \"#utility.yul\":15203:15208   */\n      dup3\n        /* \"#utility.yul\":15197:15201   */\n      dup3\n        /* \"#utility.yul\":15193:15209   */\n      shr\n        /* \"#utility.yul\":15172:15209   */\n      swap1\n      pop\n        /* \"#utility.yul\":15099:15216   */\n      swap3\n      swap2\n      pop\n      pop\n      jump\t// out\n        /* \"#utility.yul\":15222:15391   */\n    tag_190:\n        /* \"#utility.yul\":15266:15272   */\n      0x00\n        /* \"#utility.yul\":15299:15350   */\n      tag_363\n        /* \"#utility.yul\":15347:15348   */\n      0x00\n        /* \"#utility.yul\":15343:15349   */\n      not\n        /* \"#utility.yul\":15335:15340   */\n      dup5\n        /* \"#utility.yul\":15332:15333   */\n      0x08\n        /* \"#utility.yul\":15328:15341   */\n      mul\n        /* \"#utility.yul\":15299:15350   */\n      tag_189\n      jump\t// in\n    tag_363:\n        /* \"#utility.yul\":15295:15351   */\n      not\n        /* \"#utility.yul\":15380:15384   */\n      dup1\n        /* \"#utility.yul\":15374:15378   */\n      dup4\n        /* \"#utility.yul\":15370:15385   */\n      and\n        /* \"#utility.yul\":15360:15385   */\n      swap2\n      pop\n        /* \"#utility.yul\":15273:15391   */\n      pop\n        /* \"#utility.yul\":15222:15391   */\n      swap3\n      swap2\n      pop\n      pop\n      jump\t// out\n        /* \"#utility.yul\":15396:15691   */\n    tag_191:\n        /* \"#utility.yul\":15472:15476   */\n      0x00\n        /* \"#utility.yul\":15618:15647   */\n      tag_365\n        /* \"#utility.yul\":15643:15646   */\n      dup4\n        /* \"#utility.yul\":15637:15641   */\n      dup4\n        /* \"#utility.yul\":15618:15647   */\n      tag_190\n      jump\t// in\n    tag_365:\n        /* \"#utility.yul\":15610:15647   */\n      swap2\n      pop\n        /* \"#utility.yul\":15680:15683   */\n      dup3\n        /* \"#utility.yul\":15677:15678   */\n      0x02\n        /* \"#utility.yul\":15673:15684   */\n      mul\n        /* \"#utility.yul\":15667:15671   */\n      dup3\n        /* \"#utility.yul\":15664:15685   */\n      or\n        /* \"#utility.yul\":15656:15685   */\n      swap1\n      pop\n        /* \"#utility.yul\":15396:15691   */\n      swap3\n      swap2\n      pop\n      pop\n      jump\t// out\n        /* \"#utility.yul\":15696:17091   */\n    tag_107:\n        /* \"#utility.yul\":15813:15850   */\n      tag_367\n        /* \"#utility.yul\":15846:15849   */\n      dup3\n        /* \"#utility.yul\":15813:15850   */\n      tag_165\n      jump\t// in\n    tag_367:\n        /* \"#utility.yul\":15915:15933   */\n      0xffffffffffffffff\n        /* \"#utility.yul\":15907:15913   */\n      dup2\n        /* \"#utility.yul\":15904:15934   */\n      gt\n        /* \"#utility.yul\":15901:15957   */\n      iszero\n      tag_368\n      jumpi\n        /* \"#utility.yul\":15937:15955   */\n      tag_369\n      tag_156\n      jump\t// in\n    tag_369:\n        /* \"#utility.yul\":15901:15957   */\n    tag_368:\n        /* \"#utility.yul\":15981:16019   */\n      tag_370\n        /* \"#utility.yul\":16013:16017   */\n      dup3\n        /* \"#utility.yul\":16007:16018   */\n      sload\n        /* \"#utility.yul\":15981:16019   */\n      tag_116\n      jump\t// in\n    tag_370:\n        /* \"#utility.yul\":16066:16133   */\n      tag_371\n        /* \"#utility.yul\":16126:16132   */\n      dup3\n        /* \"#utility.yul\":16118:16124   */\n      dup3\n        /* \"#utility.yul\":16112:16116   */\n      dup6\n        /* \"#utility.yul\":16066:16133   */\n      tag_188\n      jump\t// in\n    tag_371:\n        /* \"#utility.yul\":16160:16161   */\n      0x00\n        /* \"#utility.yul\":16184:16188   */\n      0x20\n        /* \"#utility.yul\":16171:16188   */\n      swap1\n      pop\n        /* \"#utility.yul\":16216:16218   */\n      0x1f\n        /* \"#utility.yul\":16208:16214   */\n      dup4\n        /* \"#utility.yul\":16205:16219   */\n      gt\n        /* \"#utility.yul\":16233:16234   */\n      0x01\n        /* \"#utility.yul\":16228:16846   */\n      dup2\n      eq\n      tag_373\n      jumpi\n        /* \"#utility.yul\":16890:16891   */\n      0x00\n        /* \"#utility.yul\":16907:16913   */\n      dup5\n        /* \"#utility.yul\":16904:16981   */\n      iszero\n      tag_374\n      jumpi\n        /* \"#utility.yul\":16956:16965   */\n      dup3\n        /* \"#utility.yul\":16951:16954   */\n      dup8\n        /* \"#utility.yul\":16947:16966   */\n      add\n        /* \"#utility.yul\":16941:16967   */\n      mload\n        /* \"#utility.yul\":16932:16967   */\n      swap1\n      pop\n        /* \"#utility.yul\":16904:16981   */\n    tag_374:\n        /* \"#utility.yul\":17007:17074   */\n      tag_375\n        /* \"#utility.yul\":17067:17073   */\n      dup6\n        /* \"#utility.yul\":17060:17065   */\n      dup3\n        /* \"#utility.yul\":17007:17074   */\n      tag_191\n      jump\t// in\n    tag_375:\n        /* \"#utility.yul\":17001:17005   */\n      dup7\n        /* \"#utility.yul\":16994:17075   */\n      sstore\n        /* \"#utility.yul\":16863:17085   */\n      pop\n        /* \"#utility.yul\":16198:17085   */\n      jump(tag_372)\n        /* \"#utility.yul\":16228:16846   */\n    tag_373:\n        /* \"#utility.yul\":16280:16284   */\n      0x1f\n        /* \"#utility.yul\":16276:16285   */\n      not\n        /* \"#utility.yul\":16268:16274   */\n      dup5\n        /* \"#utility.yul\":16264:16286   */\n      and\n        /* \"#utility.yul\":16314:16351   */\n      tag_376\n        /* \"#utility.yul\":16346:16350   */\n      dup7\n        /* \"#utility.yul\":16314:16351   */\n      tag_177\n      jump\t// in\n    tag_376:\n        /* \"#utility.yul\":16373:16374   */\n      0x00\n        /* \"#utility.yul\":16387:16595   */\n    tag_377:\n        /* \"#utility.yul\":16401:16408   */\n      dup3\n        /* \"#utility.yul\":16398:16399   */\n      dup2\n        /* \"#utility.yul\":16395:16409   */\n      lt\n        /* \"#utility.yul\":16387:16595   */\n      iszero\n      tag_379\n      jumpi\n        /* \"#utility.yul\":16480:16489   */\n      dup5\n        /* \"#utility.yul\":16475:16478   */\n      dup10\n        /* \"#utility.yul\":16471:16490   */\n      add\n        /* \"#utility.yul\":16465:16491   */\n      mload\n        /* \"#utility.yul\":16457:16463   */\n      dup3\n        /* \"#utility.yul\":16450:16492   */\n      sstore\n        /* \"#utility.yul\":16531:16532   */\n      0x01\n        /* \"#utility.yul\":16523:16529   */\n      dup3\n        /* \"#utility.yul\":16519:16533   */\n      add\n        /* \"#utility.yul\":16509:16533   */\n      swap2\n      pop\n        /* \"#utility.yul\":16578:16580   */\n      0x20\n        /* \"#utility.yul\":16567:16576   */\n      dup6\n        /* \"#utility.yul\":16563:16581   */\n      add\n        /* \"#utility.yul\":16550:16581   */\n      swap5\n      pop\n        /* \"#utility.yul\":16424:16428   */\n      0x20\n        /* \"#utility.yul\":16421:16422   */\n      dup2\n        /* \"#utility.yul\":16417:16429   */\n      add\n        /* \"#utility.yul\":16412:16429   */\n      swap1\n      pop\n        /* \"#utility.yul\":16387:16595   */\n      jump(tag_377)\n    tag_379:\n        /* \"#utility.yul\":16623:16629   */\n      dup7\n        /* \"#utility.yul\":16614:16621   */\n      dup4\n        /* \"#utility.yul\":16611:16630   */\n      lt\n        /* \"#utility.yul\":16608:16787   */\n      iszero\n      tag_380\n      jumpi\n        /* \"#utility.yul\":16681:16690   */\n      dup5\n        /* \"#utility.yul\":16676:16679   */\n      dup10\n        /* \"#utility.yul\":16672:16691   */\n      add\n        /* \"#utility.yul\":16666:16692   */\n      mload\n        /* \"#utility.yul\":16724:16772   */\n      tag_381\n        /* \"#utility.yul\":16766:16770   */\n      0x1f\n        /* \"#utility.yul\":16758:16764   */\n      dup10\n        /* \"#utility.yul\":16754:16771   */\n      and\n        /* \"#utility.yul\":16743:16752   */\n      dup3\n        /* \"#utility.yul\":16724:16772   */\n      tag_190\n      jump\t// in\n    tag_381:\n        /* \"#utility.yul\":16716:16722   */\n      dup4\n        /* \"#utility.yul\":16709:16773   */\n      sstore\n        /* \"#utility.yul\":16631:16787   */\n      pop\n        /* \"#utility.yul\":16608:16787   */\n    tag_380:\n        /* \"#utility.yul\":16833:16834   */\n      0x01\n        /* \"#utility.yul\":16829:16830   */\n      0x02\n        /* \"#utility.yul\":16821:16827   */\n      dup9\n        /* \"#utility.yul\":16817:16831   */\n      mul\n        /* \"#utility.yul\":16813:16835   */\n      add\n        /* \"#utility.yul\":16807:16811   */\n      dup9\n        /* \"#utility.yul\":16800:16836   */\n      sstore\n        /* \"#utility.yul\":16235:16846   */\n      pop\n      pop\n      pop\n        /* \"#utility.yul\":16198:17085   */\n    tag_372:\n      pop\n        /* \"#utility.yul\":15788:17091   */\n      pop\n      pop\n      pop\n        /* \"#utility.yul\":15696:17091   */\n      pop\n      pop\n      jump\t// out\n        /* \"#utility.yul\":17097:17263   */\n    tag_192:\n        /* \"#utility.yul\":17237:17255   */\n      0x4e6f7420656e6f7567682066756e647300000000000000000000000000000000\n        /* \"#utility.yul\":17233:17234   */\n      0x00\n        /* \"#utility.yul\":17225:17231   */\n      dup3\n        /* \"#utility.yul\":17221:17235   */\n      add\n        /* \"#utility.yul\":17214:17256   */\n      mstore\n        /* \"#utility.yul\":17097:17263   */\n      pop\n      jump\t// out\n        /* \"#utility.yul\":17269:17635   */\n    tag_193:\n        /* \"#utility.yul\":17411:17414   */\n      0x00\n        /* \"#utility.yul\":17432:17499   */\n      tag_384\n        /* \"#utility.yul\":17496:17498   */\n      0x10\n        /* \"#utility.yul\":17491:17494   */\n      dup4\n        /* \"#utility.yul\":17432:17499   */\n      tag_166\n      jump\t// in\n    tag_384:\n        /* \"#utility.yul\":17425:17499   */\n      swap2\n      pop\n        /* \"#utility.yul\":17508:17601   */\n      tag_385\n        /* \"#utility.yul\":17597:17600   */\n      dup3\n        /* \"#utility.yul\":17508:17601   */\n      tag_192\n      jump\t// in\n    tag_385:\n        /* \"#utility.yul\":17626:17628   */\n      0x20\n        /* \"#utility.yul\":17621:17624   */\n      dup3\n        /* \"#utility.yul\":17617:17629   */\n      add\n        /* \"#utility.yul\":17610:17629   */\n      swap1\n      pop\n        /* \"#utility.yul\":17269:17635   */\n      swap2\n      swap1\n      pop\n      jump\t// out\n        /* \"#utility.yul\":17641:18060   */\n    tag_110:\n        /* \"#utility.yul\":17807:17811   */\n      0x00\n        /* \"#utility.yul\":17845:17847   */\n      0x20\n        /* \"#utility.yul\":17834:17843   */\n      dup3\n        /* \"#utility.yul\":17830:17848   */\n      add\n        /* \"#utility.yul\":17822:17848   */\n      swap1\n      pop\n        /* \"#utility.yul\":17894:17903   */\n      dup2\n        /* \"#utility.yul\":17888:17892   */\n      dup2\n        /* \"#utility.yul\":17884:17904   */\n      sub\n        /* \"#utility.yul\":17880:17881   */\n      0x00\n        /* \"#utility.yul\":17869:17878   */\n      dup4\n        /* \"#utility.yul\":17865:17882   */\n      add\n        /* \"#utility.yul\":17858:17905   */\n      mstore\n        /* \"#utility.yul\":17922:18053   */\n      tag_387\n        /* \"#utility.yul\":18048:18052   */\n      dup2\n        /* \"#utility.yul\":17922:18053   */\n      tag_193\n      jump\t// in\n    tag_387:\n        /* \"#utility.yul\":17914:18053   */\n      swap1\n      pop\n        /* \"#utility.yul\":17641:18060   */\n      swap2\n      swap1\n      pop\n      jump\t// out\n        /* \"#utility.yul\":18066:18236   */\n    tag_194:\n        /* \"#utility.yul\":18206:18228   */\n      0x4e6f2076616c6964206372656469742063617264000000000000000000000000\n        /* \"#utility.yul\":18202:18203   */\n      0x00\n        /* \"#utility.yul\":18194:18200   */\n      dup3\n        /* \"#utility.yul\":18190:18204   */\n      add\n        /* \"#utility.yul\":18183:18229   */\n      mstore\n        /* \"#utility.yul\":18066:18236   */\n      pop\n      jump\t// out\n        /* \"#utility.yul\":18242:18608   */\n    tag_195:\n        /* \"#utility.yul\":18384:18387   */\n      0x00\n        /* \"#utility.yul\":18405:18472   */\n      tag_390\n        /* \"#utility.yul\":18469:18471   */\n      0x14\n        /* \"#utility.yul\":18464:18467   */\n      dup4\n        /* \"#utility.yul\":18405:18472   */\n      tag_166\n      jump\t// in\n    tag_390:\n        /* \"#utility.yul\":18398:18472   */\n      swap2\n      pop\n        /* \"#utility.yul\":18481:18574   */\n      tag_391\n        /* \"#utility.yul\":18570:18573   */\n      dup3\n        /* \"#utility.yul\":18481:18574   */\n      tag_194\n      jump\t// in\n    tag_391:\n        /* \"#utility.yul\":18599:18601   */\n      0x20\n        /* \"#utility.yul\":18594:18597   */\n      dup3\n        /* \"#utility.yul\":18590:18602   */\n      add\n        /* \"#utility.yul\":18583:18602   */\n      swap1\n      pop\n        /* \"#utility.yul\":18242:18608   */\n      swap2\n      swap1\n      pop\n      jump\t// out\n        /* \"#utility.yul\":18614:19033   */\n    tag_121:\n        /* \"#utility.yul\":18780:18784   */\n      0x00\n        /* \"#utility.yul\":18818:18820   */\n      0x20\n        /* \"#utility.yul\":18807:18816   */\n      dup3\n        /* \"#utility.yul\":18803:18821   */\n      add\n        /* \"#utility.yul\":18795:18821   */\n      swap1\n      pop\n        /* \"#utility.yul\":18867:18876   */\n      dup2\n        /* \"#utility.yul\":18861:18865   */\n      dup2\n        /* \"#utility.yul\":18857:18877   */\n      sub\n        /* \"#utility.yul\":18853:18854   */\n      0x00\n        /* \"#utility.yul\":18842:18851   */\n      dup4\n        /* \"#utility.yul\":18838:18855   */\n      add\n        /* \"#utility.yul\":18831:18878   */\n      mstore\n        /* \"#utility.yul\":18895:19026   */\n      tag_393\n        /* \"#utility.yul\":19021:19025   */\n      dup2\n        /* \"#utility.yul\":18895:19026   */\n      tag_195\n      jump\t// in\n    tag_393:\n        /* \"#utility.yul\":18887:19026   */\n      swap1\n      pop\n        /* \"#utility.yul\":18614:19033   */\n      swap2\n      swap1\n      pop\n      jump\t// out\n\n    auxdata: 0xa2646970667358221220153eb6bf98153f763b0d01182cedea57bc81972a4c00f8bf5e88dfc0972ebebe64736f6c63430008100033\n}\n",
				"bytecode": {
					"linkReferences": {},
					"object": "608060405260006009556000600a60006101000a81548160ff0219169083151502179055503480156200003157600080fd5b5060405162001584380380620015848339818101604052810190620000579190620000a5565b8060028190555050620000d7565b600080fd5b6000819050919050565b6200007f816200006a565b81146200008b57600080fd5b50565b6000815190506200009f8162000074565b92915050565b600060208284031215620000be57620000bd62000065565b5b6000620000ce848285016200008e565b91505092915050565b61149d80620000e76000396000f3fe608060405234801561001057600080fd5b50600436106100f55760003560e01c8063557ed1ba116100975780638fa11864116100665780638fa118641461024157806397838c721461025f578063aa8c217c1461027b578063e21f37ce14610299576100f5565b8063557ed1ba146101dd5780637b9a3f4c146101fb5780637eb9f571146102195780638e029c0b14610237576100f5565b806312a029a4116100d357806312a029a4146101675780633c626f001461018357806342fb7936146101a15780634b28f9a2146101bf576100f5565b806304ef5b21146100fa578063062a75441461012d5780630e85fa7214610149575b600080fd5b610114600480360381019061010f9190610a62565b6102b7565b6040516101249493929190610adf565b60405180910390f35b61014760048036038101906101429190610b50565b610337565b005b61015161063f565b60405161015e9190610b90565b60405180910390f35b610181600480360381019061017c9190610cf1565b610645565b005b61018b6106f6565b6040516101989190610d84565b60405180910390f35b6101a9610709565b6040516101b69190610e1e565b60405180910390f35b6101c7610797565b6040516101d49190610b90565b60405180910390f35b6101e561079d565b6040516101f29190610b90565b60405180910390f35b6102036107a5565b6040516102109190610b90565b60405180910390f35b6102216107ab565b60405161022e9190610b90565b60405180910390f35b61023f6107b1565b005b6102496107ce565b6040516102569190610e1e565b60405180910390f35b61027960048036038101906102749190610e40565b61085c565b005b610283610984565b6040516102909190610b90565b60405180910390f35b6102a161098a565b6040516102ae9190610e1e565b60405180910390f35b600081815481106102c757600080fd5b90600052602060002090600402016000915090508060000160009054906101000a900473ffffffffffffffffffffffffffffffffffffffff16908060010160009054906101000a900473ffffffffffffffffffffffffffffffffffffffff16908060020154908060030154905084565b8080600360006101000a81548173ffffffffffffffffffffffffffffffffffffffff021916908373ffffffffffffffffffffffffffffffffffffffff160217905550600073ffffffffffffffffffffffffffffffffffffffff168173ffffffffffffffffffffffffffffffffffffffff16036103e8576040517f08c379a00000000000000000000000000000000000000000000000000000000081526004016103df90610ef3565b60405180910390fd5b60001515600a60009054906101000a900460ff1615150361043e576040517f08c379a000000000000000000000000000000000000000000000000000000000815260040161043590610f5f565b60405180910390fd5b60056009541015801561045f5750601e60085461045b9190610fae565b4211155b156104ba57600060098190555060006009541461047f5761047e610fe2565b5b6040517f08c379a00000000000000000000000000000000000000000000000000000000081526004016104b19061105d565b60405180910390fd5b6005600954111580156104db5750601e6008546104d79190610fae565b4210155b156105035760006009819055506000600954146104fb576104fa610fe2565b5b426008819055505b81600360006101000a81548173ffffffffffffffffffffffffffffffffffffffff021916908373ffffffffffffffffffffffffffffffffffffffff1602179055508260018190555060016009600082825461055e9190610fae565b92505081905550600060025411801561057a5750600154600254115b156105ff5760015460026000828254610593919061107d565b92505081905550600154600760008282546105ae9190610fae565b925050819055506040518060400160405280601281526020017f5472616e7366657220636f6d706c657465640000000000000000000000000000815250600490816105f991906112bd565b5061063a565b6040517f08c379a0000000000000000000000000000000000000000000000000000000008152600401610631906113db565b60405180910390fd5b505050565b60085481565b816005908161065491906112bd565b50806006908161066491906112bd565b506001600a60006101000a81548160ff02191690831515021790555042600881905550600860058054610696906110e0565b90501480156106b357506003600680546106af906110e0565b9050145b6106f2576040517f08c379a00000000000000000000000000000000000000000000000000000000081526004016106e990611447565b60405180910390fd5b5050565b600a60009054906101000a900460ff1681565b60068054610716906110e0565b80601f0160208091040260200160405190810160405280929190818152602001828054610742906110e0565b801561078f5780601f106107645761010080835404028352916020019161078f565b820191906000526020600020905b81548152906001019060200180831161077257829003601f168201915b505050505081565b60095481565b600042905090565b60025481565b60075481565b6000600a60006101000a81548160ff021916908315150217905550565b600580546107db906110e0565b80601f0160208091040260200160405190810160405280929190818152602001828054610807906110e0565b80156108545780601f1061082957610100808354040283529160200191610854565b820191906000526020600020905b81548152906001019060200180831161083757829003601f168201915b505050505081565b600060405180608001604052808673ffffffffffffffffffffffffffffffffffffffff1681526020018573ffffffffffffffffffffffffffffffffffffffff168152602001848152602001838152509050600081908060018154018082558091505060019003906000526020600020906004020160009091909190915060008201518160000160006101000a81548173ffffffffffffffffffffffffffffffffffffffff021916908373ffffffffffffffffffffffffffffffffffffffff16021790555060208201518160010160006101000a81548173ffffffffffffffffffffffffffffffffffffffff021916908373ffffffffffffffffffffffffffffffffffffffff160217905550604082015181600201556060820151816003015550505050505050565b60015481565b60048054610997906110e0565b80601f01602080910402602001604051908101604052809291908181526020018280546109c3906110e0565b8015610a105780601f106109e557610100808354040283529160200191610a10565b820191906000526020600020905b8154815290600101906020018083116109f357829003601f168201915b505050505081565b6000604051905090565b600080fd5b600080fd5b6000819050919050565b610a3f81610a2c565b8114610a4a57600080fd5b50565b600081359050610a5c81610a36565b92915050565b600060208284031215610a7857610a77610a22565b5b6000610a8684828501610a4d565b91505092915050565b600073ffffffffffffffffffffffffffffffffffffffff82169050919050565b6000610aba82610a8f565b9050919050565b610aca81610aaf565b82525050565b610ad981610a2c565b82525050565b6000608082019050610af46000830187610ac1565b610b016020830186610ac1565b610b0e6040830185610ad0565b610b1b6060830184610ad0565b95945050505050565b610b2d81610aaf565b8114610b3857600080fd5b50565b600081359050610b4a81610b24565b92915050565b60008060408385031215610b6757610b66610a22565b5b6000610b7585828601610a4d565b9250506020610b8685828601610b3b565b9150509250929050565b6000602082019050610ba56000830184610ad0565b92915050565b600080fd5b600080fd5b6000601f19601f8301169050919050565b7f4e487b7100000000000000000000000000000000000000000000000000000000600052604160045260246000fd5b610bfe82610bb5565b810181811067ffffffffffffffff82111715610c1d57610c1c610bc6565b5b80604052505050565b6000610c30610a18565b9050610c3c8282610bf5565b919050565b600067ffffffffffffffff821115610c5c57610c5b610bc6565b5b610c6582610bb5565b9050602081019050919050565b82818337600083830152505050565b6000610c94610c8f84610c41565b610c26565b905082815260208101848484011115610cb057610caf610bb0565b5b610cbb848285610c72565b509392505050565b600082601f830112610cd857610cd7610bab565b5b8135610ce8848260208601610c81565b91505092915050565b60008060408385031215610d0857610d07610a22565b5b600083013567ffffffffffffffff811115610d2657610d25610a27565b5b610d3285828601610cc3565b925050602083013567ffffffffffffffff811115610d5357610d52610a27565b5b610d5f85828601610cc3565b9150509250929050565b60008115159050919050565b610d7e81610d69565b82525050565b6000602082019050610d996000830184610d75565b92915050565b600081519050919050565b600082825260208201905092915050565b60005b83811015610dd9578082015181840152602081019050610dbe565b60008484015250505050565b6000610df082610d9f565b610dfa8185610daa565b9350610e0a818560208601610dbb565b610e1381610bb5565b840191505092915050565b60006020820190508181036000830152610e388184610de5565b905092915050565b60008060008060808587031215610e5a57610e59610a22565b5b6000610e6887828801610b3b565b9450506020610e7987828801610b3b565b9350506040610e8a87828801610a4d565b9250506060610e9b87828801610a4d565b91505092959194509250565b7f2054686973206164647265737320646f65736e27742065786973747300000000600082015250565b6000610edd601c83610daa565b9150610ee882610ea7565b602082019050919050565b60006020820190508181036000830152610f0c81610ed0565b9050919050565b7f506c6561736520696e7365727420796f75722063617264000000000000000000600082015250565b6000610f49601783610daa565b9150610f5482610f13565b602082019050919050565b60006020820190508181036000830152610f7881610f3c565b9050919050565b7f4e487b7100000000000000000000000000000000000000000000000000000000600052601160045260246000fd5b6000610fb982610a2c565b9150610fc483610a2c565b9250828201905080821115610fdc57610fdb610f7f565b5b92915050565b7f4e487b7100000000000000000000000000000000000000000000000000000000600052600160045260246000fd5b7f6f6e6c792035207472616e73616374696f6e7320706572206461790000000000600082015250565b6000611047601b83610daa565b915061105282611011565b602082019050919050565b600060208201905081810360008301526110768161103a565b9050919050565b600061108882610a2c565b915061109383610a2c565b92508282039050818111156110ab576110aa610f7f565b5b92915050565b7f4e487b7100000000000000000000000000000000000000000000000000000000600052602260045260246000fd5b600060028204905060018216806110f857607f821691505b60208210810361110b5761110a6110b1565b5b50919050565b60008190508160005260206000209050919050565b60006020601f8301049050919050565b600082821b905092915050565b6000600883026111737fffffffffffffffffffffffffffffffffffffffffffffffffffffffffffffffff82611136565b61117d8683611136565b95508019841693508086168417925050509392505050565b6000819050919050565b60006111ba6111b56111b084610a2c565b611195565b610a2c565b9050919050565b6000819050919050565b6111d48361119f565b6111e86111e0826111c1565b848454611143565b825550505050565b600090565b6111fd6111f0565b6112088184846111cb565b505050565b5b8181101561122c576112216000826111f5565b60018101905061120e565b5050565b601f8211156112715761124281611111565b61124b84611126565b8101602085101561125a578190505b61126e61126685611126565b83018261120d565b50505b505050565b600082821c905092915050565b600061129460001984600802611276565b1980831691505092915050565b60006112ad8383611283565b9150826002028217905092915050565b6112c682610d9f565b67ffffffffffffffff8111156112df576112de610bc6565b5b6112e982546110e0565b6112f4828285611230565b600060209050601f8311600181146113275760008415611315578287015190505b61131f85826112a1565b865550611387565b601f19841661133586611111565b60005b8281101561135d57848901518255600182019150602085019450602081019050611338565b8683101561137a5784890151611376601f891682611283565b8355505b6001600288020188555050505b505050505050565b7f4e6f7420656e6f7567682066756e647300000000000000000000000000000000600082015250565b60006113c5601083610daa565b91506113d08261138f565b602082019050919050565b600060208201905081810360008301526113f4816113b8565b9050919050565b7f4e6f2076616c6964206372656469742063617264000000000000000000000000600082015250565b6000611431601483610daa565b915061143c826113fb565b602082019050919050565b6000602082019050818103600083015261146081611424565b905091905056fea2646970667358221220153eb6bf98153f763b0d01182cedea57bc81972a4c00f8bf5e88dfc0972ebebe64736f6c63430008100033",
					"opcodes": "PUSH1 0x80 PUSH1 0x40 MSTORE PUSH1 0x0 PUSH1 0x9 SSTORE PUSH1 0x0 PUSH1 0xA PUSH1 0x0 PUSH2 0x100 EXP DUP2 SLOAD DUP2 PUSH1 0xFF MUL NOT AND SWAP1 DUP4 ISZERO ISZERO MUL OR SWAP1 SSTORE POP CALLVALUE DUP1 ISZERO PUSH3 0x31 JUMPI PUSH1 0x0 DUP1 REVERT JUMPDEST POP PUSH1 0x40 MLOAD PUSH3 0x1584 CODESIZE SUB DUP1 PUSH3 0x1584 DUP4 CODECOPY DUP2 DUP2 ADD PUSH1 0x40 MSTORE DUP2 ADD SWAP1 PUSH3 0x57 SWAP2 SWAP1 PUSH3 0xA5 JUMP JUMPDEST DUP1 PUSH1 0x2 DUP2 SWAP1 SSTORE POP POP PUSH3 0xD7 JUMP JUMPDEST PUSH1 0x0 DUP1 REVERT JUMPDEST PUSH1 0x0 DUP2 SWAP1 POP SWAP2 SWAP1 POP JUMP JUMPDEST PUSH3 0x7F DUP2 PUSH3 0x6A JUMP JUMPDEST DUP2 EQ PUSH3 0x8B JUMPI PUSH1 0x0 DUP1 REVERT JUMPDEST POP JUMP JUMPDEST PUSH1 0x0 DUP2 MLOAD SWAP1 POP PUSH3 0x9F DUP2 PUSH3 0x74 JUMP JUMPDEST SWAP3 SWAP2 POP POP JUMP JUMPDEST PUSH1 0x0 PUSH1 0x20 DUP3 DUP5 SUB SLT ISZERO PUSH3 0xBE JUMPI PUSH3 0xBD PUSH3 0x65 JUMP JUMPDEST JUMPDEST PUSH1 0x0 PUSH3 0xCE DUP5 DUP3 DUP6 ADD PUSH3 0x8E JUMP JUMPDEST SWAP2 POP POP SWAP3 SWAP2 POP POP JUMP JUMPDEST PUSH2 0x149D DUP1 PUSH3 0xE7 PUSH1 0x0 CODECOPY PUSH1 0x0 RETURN INVALID PUSH1 0x80 PUSH1 0x40 MSTORE CALLVALUE DUP1 ISZERO PUSH2 0x10 JUMPI PUSH1 0x0 DUP1 REVERT JUMPDEST POP PUSH1 0x4 CALLDATASIZE LT PUSH2 0xF5 JUMPI PUSH1 0x0 CALLDATALOAD PUSH1 0xE0 SHR DUP1 PUSH4 0x557ED1BA GT PUSH2 0x97 JUMPI DUP1 PUSH4 0x8FA11864 GT PUSH2 0x66 JUMPI DUP1 PUSH4 0x8FA11864 EQ PUSH2 0x241 JUMPI DUP1 PUSH4 0x97838C72 EQ PUSH2 0x25F JUMPI DUP1 PUSH4 0xAA8C217C EQ PUSH2 0x27B JUMPI DUP1 PUSH4 0xE21F37CE EQ PUSH2 0x299 JUMPI PUSH2 0xF5 JUMP JUMPDEST DUP1 PUSH4 0x557ED1BA EQ PUSH2 0x1DD JUMPI DUP1 PUSH4 0x7B9A3F4C EQ PUSH2 0x1FB JUMPI DUP1 PUSH4 0x7EB9F571 EQ PUSH2 0x219 JUMPI DUP1 PUSH4 0x8E029C0B EQ PUSH2 0x237 JUMPI PUSH2 0xF5 JUMP JUMPDEST DUP1 PUSH4 0x12A029A4 GT PUSH2 0xD3 JUMPI DUP1 PUSH4 0x12A029A4 EQ PUSH2 0x167 JUMPI DUP1 PUSH4 0x3C626F00 EQ PUSH2 0x183 JUMPI DUP1 PUSH4 0x42FB7936 EQ PUSH2 0x1A1 JUMPI DUP1 PUSH4 0x4B28F9A2 EQ PUSH2 0x1BF JUMPI PUSH2 0xF5 JUMP JUMPDEST DUP1 PUSH4 0x4EF5B21 EQ PUSH2 0xFA JUMPI DUP1 PUSH4 0x62A7544 EQ PUSH2 0x12D JUMPI DUP1 PUSH4 0xE85FA72 EQ PUSH2 0x149 JUMPI JUMPDEST PUSH1 0x0 DUP1 REVERT JUMPDEST PUSH2 0x114 PUSH1 0x4 DUP1 CALLDATASIZE SUB DUP2 ADD SWAP1 PUSH2 0x10F SWAP2 SWAP1 PUSH2 0xA62 JUMP JUMPDEST PUSH2 0x2B7 JUMP JUMPDEST PUSH1 0x40 MLOAD PUSH2 0x124 SWAP5 SWAP4 SWAP3 SWAP2 SWAP1 PUSH2 0xADF JUMP JUMPDEST PUSH1 0x40 MLOAD DUP1 SWAP2 SUB SWAP1 RETURN JUMPDEST PUSH2 0x147 PUSH1 0x4 DUP1 CALLDATASIZE SUB DUP2 ADD SWAP1 PUSH2 0x142 SWAP2 SWAP1 PUSH2 0xB50 JUMP JUMPDEST PUSH2 0x337 JUMP JUMPDEST STOP JUMPDEST PUSH2 0x151 PUSH2 0x63F JUMP JUMPDEST PUSH1 0x40 MLOAD PUSH2 0x15E SWAP2 SWAP1 PUSH2 0xB90 JUMP JUMPDEST PUSH1 0x40 MLOAD DUP1 SWAP2 SUB SWAP1 RETURN JUMPDEST PUSH2 0x181 PUSH1 0x4 DUP1 CALLDATASIZE SUB DUP2 ADD SWAP1 PUSH2 0x17C SWAP2 SWAP1 PUSH2 0xCF1 JUMP JUMPDEST PUSH2 0x645 JUMP JUMPDEST STOP JUMPDEST PUSH2 0x18B PUSH2 0x6F6 JUMP JUMPDEST PUSH1 0x40 MLOAD PUSH2 0x198 SWAP2 SWAP1 PUSH2 0xD84 JUMP JUMPDEST PUSH1 0x40 MLOAD DUP1 SWAP2 SUB SWAP1 RETURN JUMPDEST PUSH2 0x1A9 PUSH2 0x709 JUMP JUMPDEST PUSH1 0x40 MLOAD PUSH2 0x1B6 SWAP2 SWAP1 PUSH2 0xE1E JUMP JUMPDEST PUSH1 0x40 MLOAD DUP1 SWAP2 SUB SWAP1 RETURN JUMPDEST PUSH2 0x1C7 PUSH2 0x797 JUMP JUMPDEST PUSH1 0x40 MLOAD PUSH2 0x1D4 SWAP2 SWAP1 PUSH2 0xB90 JUMP JUMPDEST PUSH1 0x40 MLOAD DUP1 SWAP2 SUB SWAP1 RETURN JUMPDEST PUSH2 0x1E5 PUSH2 0x79D JUMP JUMPDEST PUSH1 0x40 MLOAD PUSH2 0x1F2 SWAP2 SWAP1 PUSH2 0xB90 JUMP JUMPDEST PUSH1 0x40 MLOAD DUP1 SWAP2 SUB SWAP1 RETURN JUMPDEST PUSH2 0x203 PUSH2 0x7A5 JUMP JUMPDEST PUSH1 0x40 MLOAD PUSH2 0x210 SWAP2 SWAP1 PUSH2 0xB90 JUMP JUMPDEST PUSH1 0x40 MLOAD DUP1 SWAP2 SUB SWAP1 RETURN JUMPDEST PUSH2 0x221 PUSH2 0x7AB JUMP JUMPDEST PUSH1 0x40 MLOAD PUSH2 0x22E SWAP2 SWAP1 PUSH2 0xB90 JUMP JUMPDEST PUSH1 0x40 MLOAD DUP1 SWAP2 SUB SWAP1 RETURN JUMPDEST PUSH2 0x23F PUSH2 0x7B1 JUMP JUMPDEST STOP JUMPDEST PUSH2 0x249 PUSH2 0x7CE JUMP JUMPDEST PUSH1 0x40 MLOAD PUSH2 0x256 SWAP2 SWAP1 PUSH2 0xE1E JUMP JUMPDEST PUSH1 0x40 MLOAD DUP1 SWAP2 SUB SWAP1 RETURN JUMPDEST PUSH2 0x279 PUSH1 0x4 DUP1 CALLDATASIZE SUB DUP2 ADD SWAP1 PUSH2 0x274 SWAP2 SWAP1 PUSH2 0xE40 JUMP JUMPDEST PUSH2 0x85C JUMP JUMPDEST STOP JUMPDEST PUSH2 0x283 PUSH2 0x984 JUMP JUMPDEST PUSH1 0x40 MLOAD PUSH2 0x290 SWAP2 SWAP1 PUSH2 0xB90 JUMP JUMPDEST PUSH1 0x40 MLOAD DUP1 SWAP2 SUB SWAP1 RETURN JUMPDEST PUSH2 0x2A1 PUSH2 0x98A JUMP JUMPDEST PUSH1 0x40 MLOAD PUSH2 0x2AE SWAP2 SWAP1 PUSH2 0xE1E JUMP JUMPDEST PUSH1 0x40 MLOAD DUP1 SWAP2 SUB SWAP1 RETURN JUMPDEST PUSH1 0x0 DUP2 DUP2 SLOAD DUP2 LT PUSH2 0x2C7 JUMPI PUSH1 0x0 DUP1 REVERT JUMPDEST SWAP1 PUSH1 0x0 MSTORE PUSH1 0x20 PUSH1 0x0 KECCAK256 SWAP1 PUSH1 0x4 MUL ADD PUSH1 0x0 SWAP2 POP SWAP1 POP DUP1 PUSH1 0x0 ADD PUSH1 0x0 SWAP1 SLOAD SWAP1 PUSH2 0x100 EXP SWAP1 DIV PUSH20 0xFFFFFFFFFFFFFFFFFFFFFFFFFFFFFFFFFFFFFFFF AND SWAP1 DUP1 PUSH1 0x1 ADD PUSH1 0x0 SWAP1 SLOAD SWAP1 PUSH2 0x100 EXP SWAP1 DIV PUSH20 0xFFFFFFFFFFFFFFFFFFFFFFFFFFFFFFFFFFFFFFFF AND SWAP1 DUP1 PUSH1 0x2 ADD SLOAD SWAP1 DUP1 PUSH1 0x3 ADD SLOAD SWAP1 POP DUP5 JUMP JUMPDEST DUP1 DUP1 PUSH1 0x3 PUSH1 0x0 PUSH2 0x100 EXP DUP2 SLOAD DUP2 PUSH20 0xFFFFFFFFFFFFFFFFFFFFFFFFFFFFFFFFFFFFFFFF MUL NOT AND SWAP1 DUP4 PUSH20 0xFFFFFFFFFFFFFFFFFFFFFFFFFFFFFFFFFFFFFFFF AND MUL OR SWAP1 SSTORE POP PUSH1 0x0 PUSH20 0xFFFFFFFFFFFFFFFFFFFFFFFFFFFFFFFFFFFFFFFF AND DUP2 PUSH20 0xFFFFFFFFFFFFFFFFFFFFFFFFFFFFFFFFFFFFFFFF AND SUB PUSH2 0x3E8 JUMPI PUSH1 0x40 MLOAD PUSH32 0x8C379A000000000000000000000000000000000000000000000000000000000 DUP2 MSTORE PUSH1 0x4 ADD PUSH2 0x3DF SWAP1 PUSH2 0xEF3 JUMP JUMPDEST PUSH1 0x40 MLOAD DUP1 SWAP2 SUB SWAP1 REVERT JUMPDEST PUSH1 0x0 ISZERO ISZERO PUSH1 0xA PUSH1 0x0 SWAP1 SLOAD SWAP1 PUSH2 0x100 EXP SWAP1 DIV PUSH1 0xFF AND ISZERO ISZERO SUB PUSH2 0x43E JUMPI PUSH1 0x40 MLOAD PUSH32 0x8C379A000000000000000000000000000000000000000000000000000000000 DUP2 MSTORE PUSH1 0x4 ADD PUSH2 0x435 SWAP1 PUSH2 0xF5F JUMP JUMPDEST PUSH1 0x40 MLOAD DUP1 SWAP2 SUB SWAP1 REVERT JUMPDEST PUSH1 0x5 PUSH1 0x9 SLOAD LT ISZERO DUP1 ISZERO PUSH2 0x45F JUMPI POP PUSH1 0x1E PUSH1 0x8 SLOAD PUSH2 0x45B SWAP2 SWAP1 PUSH2 0xFAE JUMP JUMPDEST TIMESTAMP GT ISZERO JUMPDEST ISZERO PUSH2 0x4BA JUMPI PUSH1 0x0 PUSH1 0x9 DUP2 SWAP1 SSTORE POP PUSH1 0x0 PUSH1 0x9 SLOAD EQ PUSH2 0x47F JUMPI PUSH2 0x47E PUSH2 0xFE2 JUMP JUMPDEST JUMPDEST PUSH1 0x40 MLOAD PUSH32 0x8C379A000000000000000000000000000000000000000000000000000000000 DUP2 MSTORE PUSH1 0x4 ADD PUSH2 0x4B1 SWAP1 PUSH2 0x105D JUMP JUMPDEST PUSH1 0x40 MLOAD DUP1 SWAP2 SUB SWAP1 REVERT JUMPDEST PUSH1 0x5 PUSH1 0x9 SLOAD GT ISZERO DUP1 ISZERO PUSH2 0x4DB JUMPI POP PUSH1 0x1E PUSH1 0x8 SLOAD PUSH2 0x4D7 SWAP2 SWAP1 PUSH2 0xFAE JUMP JUMPDEST TIMESTAMP LT ISZERO JUMPDEST ISZERO PUSH2 0x503 JUMPI PUSH1 0x0 PUSH1 0x9 DUP2 SWAP1 SSTORE POP PUSH1 0x0 PUSH1 0x9 SLOAD EQ PUSH2 0x4FB JUMPI PUSH2 0x4FA PUSH2 0xFE2 JUMP JUMPDEST JUMPDEST TIMESTAMP PUSH1 0x8 DUP2 SWAP1 SSTORE POP JUMPDEST DUP2 PUSH1 0x3 PUSH1 0x0 PUSH2 0x100 EXP DUP2 SLOAD DUP2 PUSH20 0xFFFFFFFFFFFFFFFFFFFFFFFFFFFFFFFFFFFFFFFF MUL NOT AND SWAP1 DUP4 PUSH20 0xFFFFFFFFFFFFFFFFFFFFFFFFFFFFFFFFFFFFFFFF AND MUL OR SWAP1 SSTORE POP DUP3 PUSH1 0x1 DUP2 SWAP1 SSTORE POP PUSH1 0x1 PUSH1 0x9 PUSH1 0x0 DUP3 DUP3 SLOAD PUSH2 0x55E SWAP2 SWAP1 PUSH2 0xFAE JUMP JUMPDEST SWAP3 POP POP DUP2 SWAP1 SSTORE POP PUSH1 0x0 PUSH1 0x2 SLOAD GT DUP1 ISZERO PUSH2 0x57A JUMPI POP PUSH1 0x1 SLOAD PUSH1 0x2 SLOAD GT JUMPDEST ISZERO PUSH2 0x5FF JUMPI PUSH1 0x1 SLOAD PUSH1 0x2 PUSH1 0x0 DUP3 DUP3 SLOAD PUSH2 0x593 SWAP2 SWAP1 PUSH2 0x107D JUMP JUMPDEST SWAP3 POP POP DUP2 SWAP1 SSTORE POP PUSH1 0x1 SLOAD PUSH1 0x7 PUSH1 0x0 DUP3 DUP3 SLOAD PUSH2 0x5AE SWAP2 SWAP1 PUSH2 0xFAE JUMP JUMPDEST SWAP3 POP POP DUP2 SWAP1 SSTORE POP PUSH1 0x40 MLOAD DUP1 PUSH1 0x40 ADD PUSH1 0x40 MSTORE DUP1 PUSH1 0x12 DUP2 MSTORE PUSH1 0x20 ADD PUSH32 0x5472616E7366657220636F6D706C657465640000000000000000000000000000 DUP2 MSTORE POP PUSH1 0x4 SWAP1 DUP2 PUSH2 0x5F9 SWAP2 SWAP1 PUSH2 0x12BD JUMP JUMPDEST POP PUSH2 0x63A JUMP JUMPDEST PUSH1 0x40 MLOAD PUSH32 0x8C379A000000000000000000000000000000000000000000000000000000000 DUP2 MSTORE PUSH1 0x4 ADD PUSH2 0x631 SWAP1 PUSH2 0x13DB JUMP JUMPDEST PUSH1 0x40 MLOAD DUP1 SWAP2 SUB SWAP1 REVERT JUMPDEST POP POP POP JUMP JUMPDEST PUSH1 0x8 SLOAD DUP2 JUMP JUMPDEST DUP2 PUSH1 0x5 SWAP1 DUP2 PUSH2 0x654 SWAP2 SWAP1 PUSH2 0x12BD JUMP JUMPDEST POP DUP1 PUSH1 0x6 SWAP1 DUP2 PUSH2 0x664 SWAP2 SWAP1 PUSH2 0x12BD JUMP JUMPDEST POP PUSH1 0x1 PUSH1 0xA PUSH1 0x0 PUSH2 0x100 EXP DUP2 SLOAD DUP2 PUSH1 0xFF MUL NOT AND SWAP1 DUP4 ISZERO ISZERO MUL OR SWAP1 SSTORE POP TIMESTAMP PUSH1 0x8 DUP2 SWAP1 SSTORE POP PUSH1 0x8 PUSH1 0x5 DUP1 SLOAD PUSH2 0x696 SWAP1 PUSH2 0x10E0 JUMP JUMPDEST SWAP1 POP EQ DUP1 ISZERO PUSH2 0x6B3 JUMPI POP PUSH1 0x3 PUSH1 0x6 DUP1 SLOAD PUSH2 0x6AF SWAP1 PUSH2 0x10E0 JUMP JUMPDEST SWAP1 POP EQ JUMPDEST PUSH2 0x6F2 JUMPI PUSH1 0x40 MLOAD PUSH32 0x8C379A000000000000000000000000000000000000000000000000000000000 DUP2 MSTORE PUSH1 0x4 ADD PUSH2 0x6E9 SWAP1 PUSH2 0x1447 JUMP JUMPDEST PUSH1 0x40 MLOAD DUP1 SWAP2 SUB SWAP1 REVERT JUMPDEST POP POP JUMP JUMPDEST PUSH1 0xA PUSH1 0x0 SWAP1 SLOAD SWAP1 PUSH2 0x100 EXP SWAP1 DIV PUSH1 0xFF AND DUP2 JUMP JUMPDEST PUSH1 0x6 DUP1 SLOAD PUSH2 0x716 SWAP1 PUSH2 0x10E0 JUMP JUMPDEST DUP1 PUSH1 0x1F ADD PUSH1 0x20 DUP1 SWAP2 DIV MUL PUSH1 0x20 ADD PUSH1 0x40 MLOAD SWAP1 DUP2 ADD PUSH1 0x40 MSTORE DUP1 SWAP3 SWAP2 SWAP1 DUP2 DUP2 MSTORE PUSH1 0x20 ADD DUP3 DUP1 SLOAD PUSH2 0x742 SWAP1 PUSH2 0x10E0 JUMP JUMPDEST DUP1 ISZERO PUSH2 0x78F JUMPI DUP1 PUSH1 0x1F LT PUSH2 0x764 JUMPI PUSH2 0x100 DUP1 DUP4 SLOAD DIV MUL DUP4 MSTORE SWAP2 PUSH1 0x20 ADD SWAP2 PUSH2 0x78F JUMP JUMPDEST DUP3 ADD SWAP2 SWAP1 PUSH1 0x0 MSTORE PUSH1 0x20 PUSH1 0x0 KECCAK256 SWAP1 JUMPDEST DUP2 SLOAD DUP2 MSTORE SWAP1 PUSH1 0x1 ADD SWAP1 PUSH1 0x20 ADD DUP1 DUP4 GT PUSH2 0x772 JUMPI DUP3 SWAP1 SUB PUSH1 0x1F AND DUP3 ADD SWAP2 JUMPDEST POP POP POP POP POP DUP2 JUMP JUMPDEST PUSH1 0x9 SLOAD DUP2 JUMP JUMPDEST PUSH1 0x0 TIMESTAMP SWAP1 POP SWAP1 JUMP JUMPDEST PUSH1 0x2 SLOAD DUP2 JUMP JUMPDEST PUSH1 0x7 SLOAD DUP2 JUMP JUMPDEST PUSH1 0x0 PUSH1 0xA PUSH1 0x0 PUSH2 0x100 EXP DUP2 SLOAD DUP2 PUSH1 0xFF MUL NOT AND SWAP1 DUP4 ISZERO ISZERO MUL OR SWAP1 SSTORE POP JUMP JUMPDEST PUSH1 0x5 DUP1 SLOAD PUSH2 0x7DB SWAP1 PUSH2 0x10E0 JUMP JUMPDEST DUP1 PUSH1 0x1F ADD PUSH1 0x20 DUP1 SWAP2 DIV MUL PUSH1 0x20 ADD PUSH1 0x40 MLOAD SWAP1 DUP2 ADD PUSH1 0x40 MSTORE DUP1 SWAP3 SWAP2 SWAP1 DUP2 DUP2 MSTORE PUSH1 0x20 ADD DUP3 DUP1 SLOAD PUSH2 0x807 SWAP1 PUSH2 0x10E0 JUMP JUMPDEST DUP1 ISZERO PUSH2 0x854 JUMPI DUP1 PUSH1 0x1F LT PUSH2 0x829 JUMPI PUSH2 0x100 DUP1 DUP4 SLOAD DIV MUL DUP4 MSTORE SWAP2 PUSH1 0x20 ADD SWAP2 PUSH2 0x854 JUMP JUMPDEST DUP3 ADD SWAP2 SWAP1 PUSH1 0x0 MSTORE PUSH1 0x20 PUSH1 0x0 KECCAK256 SWAP1 JUMPDEST DUP2 SLOAD DUP2 MSTORE SWAP1 PUSH1 0x1 ADD SWAP1 PUSH1 0x20 ADD DUP1 DUP4 GT PUSH2 0x837 JUMPI DUP3 SWAP1 SUB PUSH1 0x1F AND DUP3 ADD SWAP2 JUMPDEST POP POP POP POP POP DUP2 JUMP JUMPDEST PUSH1 0x0 PUSH1 0x40 MLOAD DUP1 PUSH1 0x80 ADD PUSH1 0x40 MSTORE DUP1 DUP7 PUSH20 0xFFFFFFFFFFFFFFFFFFFFFFFFFFFFFFFFFFFFFFFF AND DUP2 MSTORE PUSH1 0x20 ADD DUP6 PUSH20 0xFFFFFFFFFFFFFFFFFFFFFFFFFFFFFFFFFFFFFFFF AND DUP2 MSTORE PUSH1 0x20 ADD DUP5 DUP2 MSTORE PUSH1 0x20 ADD DUP4 DUP2 MSTORE POP SWAP1 POP PUSH1 0x0 DUP2 SWAP1 DUP1 PUSH1 0x1 DUP2 SLOAD ADD DUP1 DUP3 SSTORE DUP1 SWAP2 POP POP PUSH1 0x1 SWAP1 SUB SWAP1 PUSH1 0x0 MSTORE PUSH1 0x20 PUSH1 0x0 KECCAK256 SWAP1 PUSH1 0x4 MUL ADD PUSH1 0x0 SWAP1 SWAP2 SWAP1 SWAP2 SWAP1 SWAP2 POP PUSH1 0x0 DUP3 ADD MLOAD DUP2 PUSH1 0x0 ADD PUSH1 0x0 PUSH2 0x100 EXP DUP2 SLOAD DUP2 PUSH20 0xFFFFFFFFFFFFFFFFFFFFFFFFFFFFFFFFFFFFFFFF MUL NOT AND SWAP1 DUP4 PUSH20 0xFFFFFFFFFFFFFFFFFFFFFFFFFFFFFFFFFFFFFFFF AND MUL OR SWAP1 SSTORE POP PUSH1 0x20 DUP3 ADD MLOAD DUP2 PUSH1 0x1 ADD PUSH1 0x0 PUSH2 0x100 EXP DUP2 SLOAD DUP2 PUSH20 0xFFFFFFFFFFFFFFFFFFFFFFFFFFFFFFFFFFFFFFFF MUL NOT AND SWAP1 DUP4 PUSH20 0xFFFFFFFFFFFFFFFFFFFFFFFFFFFFFFFFFFFFFFFF AND MUL OR SWAP1 SSTORE POP PUSH1 0x40 DUP3 ADD MLOAD DUP2 PUSH1 0x2 ADD SSTORE PUSH1 0x60 DUP3 ADD MLOAD DUP2 PUSH1 0x3 ADD SSTORE POP POP POP POP POP POP POP JUMP JUMPDEST PUSH1 0x1 SLOAD DUP2 JUMP JUMPDEST PUSH1 0x4 DUP1 SLOAD PUSH2 0x997 SWAP1 PUSH2 0x10E0 JUMP JUMPDEST DUP1 PUSH1 0x1F ADD PUSH1 0x20 DUP1 SWAP2 DIV MUL PUSH1 0x20 ADD PUSH1 0x40 MLOAD SWAP1 DUP2 ADD PUSH1 0x40 MSTORE DUP1 SWAP3 SWAP2 SWAP1 DUP2 DUP2 MSTORE PUSH1 0x20 ADD DUP3 DUP1 SLOAD PUSH2 0x9C3 SWAP1 PUSH2 0x10E0 JUMP JUMPDEST DUP1 ISZERO PUSH2 0xA10 JUMPI DUP1 PUSH1 0x1F LT PUSH2 0x9E5 JUMPI PUSH2 0x100 DUP1 DUP4 SLOAD DIV MUL DUP4 MSTORE SWAP2 PUSH1 0x20 ADD SWAP2 PUSH2 0xA10 JUMP JUMPDEST DUP3 ADD SWAP2 SWAP1 PUSH1 0x0 MSTORE PUSH1 0x20 PUSH1 0x0 KECCAK256 SWAP1 JUMPDEST DUP2 SLOAD DUP2 MSTORE SWAP1 PUSH1 0x1 ADD SWAP1 PUSH1 0x20 ADD DUP1 DUP4 GT PUSH2 0x9F3 JUMPI DUP3 SWAP1 SUB PUSH1 0x1F AND DUP3 ADD SWAP2 JUMPDEST POP POP POP POP POP DUP2 JUMP JUMPDEST PUSH1 0x0 PUSH1 0x40 MLOAD SWAP1 POP SWAP1 JUMP JUMPDEST PUSH1 0x0 DUP1 REVERT JUMPDEST PUSH1 0x0 DUP1 REVERT JUMPDEST PUSH1 0x0 DUP2 SWAP1 POP SWAP2 SWAP1 POP JUMP JUMPDEST PUSH2 0xA3F DUP2 PUSH2 0xA2C JUMP JUMPDEST DUP2 EQ PUSH2 0xA4A JUMPI PUSH1 0x0 DUP1 REVERT JUMPDEST POP JUMP JUMPDEST PUSH1 0x0 DUP2 CALLDATALOAD SWAP1 POP PUSH2 0xA5C DUP2 PUSH2 0xA36 JUMP JUMPDEST SWAP3 SWAP2 POP POP JUMP JUMPDEST PUSH1 0x0 PUSH1 0x20 DUP3 DUP5 SUB SLT ISZERO PUSH2 0xA78 JUMPI PUSH2 0xA77 PUSH2 0xA22 JUMP JUMPDEST JUMPDEST PUSH1 0x0 PUSH2 0xA86 DUP5 DUP3 DUP6 ADD PUSH2 0xA4D JUMP JUMPDEST SWAP2 POP POP SWAP3 SWAP2 POP POP JUMP JUMPDEST PUSH1 0x0 PUSH20 0xFFFFFFFFFFFFFFFFFFFFFFFFFFFFFFFFFFFFFFFF DUP3 AND SWAP1 POP SWAP2 SWAP1 POP JUMP JUMPDEST PUSH1 0x0 PUSH2 0xABA DUP3 PUSH2 0xA8F JUMP JUMPDEST SWAP1 POP SWAP2 SWAP1 POP JUMP JUMPDEST PUSH2 0xACA DUP2 PUSH2 0xAAF JUMP JUMPDEST DUP3 MSTORE POP POP JUMP JUMPDEST PUSH2 0xAD9 DUP2 PUSH2 0xA2C JUMP JUMPDEST DUP3 MSTORE POP POP JUMP JUMPDEST PUSH1 0x0 PUSH1 0x80 DUP3 ADD SWAP1 POP PUSH2 0xAF4 PUSH1 0x0 DUP4 ADD DUP8 PUSH2 0xAC1 JUMP JUMPDEST PUSH2 0xB01 PUSH1 0x20 DUP4 ADD DUP7 PUSH2 0xAC1 JUMP JUMPDEST PUSH2 0xB0E PUSH1 0x40 DUP4 ADD DUP6 PUSH2 0xAD0 JUMP JUMPDEST PUSH2 0xB1B PUSH1 0x60 DUP4 ADD DUP5 PUSH2 0xAD0 JUMP JUMPDEST SWAP6 SWAP5 POP POP POP POP POP JUMP JUMPDEST PUSH2 0xB2D DUP2 PUSH2 0xAAF JUMP JUMPDEST DUP2 EQ PUSH2 0xB38 JUMPI PUSH1 0x0 DUP1 REVERT JUMPDEST POP JUMP JUMPDEST PUSH1 0x0 DUP2 CALLDATALOAD SWAP1 POP PUSH2 0xB4A DUP2 PUSH2 0xB24 JUMP JUMPDEST SWAP3 SWAP2 POP POP JUMP JUMPDEST PUSH1 0x0 DUP1 PUSH1 0x40 DUP4 DUP6 SUB SLT ISZERO PUSH2 0xB67 JUMPI PUSH2 0xB66 PUSH2 0xA22 JUMP JUMPDEST JUMPDEST PUSH1 0x0 PUSH2 0xB75 DUP6 DUP3 DUP7 ADD PUSH2 0xA4D JUMP JUMPDEST SWAP3 POP POP PUSH1 0x20 PUSH2 0xB86 DUP6 DUP3 DUP7 ADD PUSH2 0xB3B JUMP JUMPDEST SWAP2 POP POP SWAP3 POP SWAP3 SWAP1 POP JUMP JUMPDEST PUSH1 0x0 PUSH1 0x20 DUP3 ADD SWAP1 POP PUSH2 0xBA5 PUSH1 0x0 DUP4 ADD DUP5 PUSH2 0xAD0 JUMP JUMPDEST SWAP3 SWAP2 POP POP JUMP JUMPDEST PUSH1 0x0 DUP1 REVERT JUMPDEST PUSH1 0x0 DUP1 REVERT JUMPDEST PUSH1 0x0 PUSH1 0x1F NOT PUSH1 0x1F DUP4 ADD AND SWAP1 POP SWAP2 SWAP1 POP JUMP JUMPDEST PUSH32 0x4E487B7100000000000000000000000000000000000000000000000000000000 PUSH1 0x0 MSTORE PUSH1 0x41 PUSH1 0x4 MSTORE PUSH1 0x24 PUSH1 0x0 REVERT JUMPDEST PUSH2 0xBFE DUP3 PUSH2 0xBB5 JUMP JUMPDEST DUP2 ADD DUP2 DUP2 LT PUSH8 0xFFFFFFFFFFFFFFFF DUP3 GT OR ISZERO PUSH2 0xC1D JUMPI PUSH2 0xC1C PUSH2 0xBC6 JUMP JUMPDEST JUMPDEST DUP1 PUSH1 0x40 MSTORE POP POP POP JUMP JUMPDEST PUSH1 0x0 PUSH2 0xC30 PUSH2 0xA18 JUMP JUMPDEST SWAP1 POP PUSH2 0xC3C DUP3 DUP3 PUSH2 0xBF5 JUMP JUMPDEST SWAP2 SWAP1 POP JUMP JUMPDEST PUSH1 0x0 PUSH8 0xFFFFFFFFFFFFFFFF DUP3 GT ISZERO PUSH2 0xC5C JUMPI PUSH2 0xC5B PUSH2 0xBC6 JUMP JUMPDEST JUMPDEST PUSH2 0xC65 DUP3 PUSH2 0xBB5 JUMP JUMPDEST SWAP1 POP PUSH1 0x20 DUP2 ADD SWAP1 POP SWAP2 SWAP1 POP JUMP JUMPDEST DUP3 DUP2 DUP4 CALLDATACOPY PUSH1 0x0 DUP4 DUP4 ADD MSTORE POP POP POP JUMP JUMPDEST PUSH1 0x0 PUSH2 0xC94 PUSH2 0xC8F DUP5 PUSH2 0xC41 JUMP JUMPDEST PUSH2 0xC26 JUMP JUMPDEST SWAP1 POP DUP3 DUP2 MSTORE PUSH1 0x20 DUP2 ADD DUP5 DUP5 DUP5 ADD GT ISZERO PUSH2 0xCB0 JUMPI PUSH2 0xCAF PUSH2 0xBB0 JUMP JUMPDEST JUMPDEST PUSH2 0xCBB DUP5 DUP3 DUP6 PUSH2 0xC72 JUMP JUMPDEST POP SWAP4 SWAP3 POP POP POP JUMP JUMPDEST PUSH1 0x0 DUP3 PUSH1 0x1F DUP4 ADD SLT PUSH2 0xCD8 JUMPI PUSH2 0xCD7 PUSH2 0xBAB JUMP JUMPDEST JUMPDEST DUP2 CALLDATALOAD PUSH2 0xCE8 DUP5 DUP3 PUSH1 0x20 DUP7 ADD PUSH2 0xC81 JUMP JUMPDEST SWAP2 POP POP SWAP3 SWAP2 POP POP JUMP JUMPDEST PUSH1 0x0 DUP1 PUSH1 0x40 DUP4 DUP6 SUB SLT ISZERO PUSH2 0xD08 JUMPI PUSH2 0xD07 PUSH2 0xA22 JUMP JUMPDEST JUMPDEST PUSH1 0x0 DUP4 ADD CALLDATALOAD PUSH8 0xFFFFFFFFFFFFFFFF DUP2 GT ISZERO PUSH2 0xD26 JUMPI PUSH2 0xD25 PUSH2 0xA27 JUMP JUMPDEST JUMPDEST PUSH2 0xD32 DUP6 DUP3 DUP7 ADD PUSH2 0xCC3 JUMP JUMPDEST SWAP3 POP POP PUSH1 0x20 DUP4 ADD CALLDATALOAD PUSH8 0xFFFFFFFFFFFFFFFF DUP2 GT ISZERO PUSH2 0xD53 JUMPI PUSH2 0xD52 PUSH2 0xA27 JUMP JUMPDEST JUMPDEST PUSH2 0xD5F DUP6 DUP3 DUP7 ADD PUSH2 0xCC3 JUMP JUMPDEST SWAP2 POP POP SWAP3 POP SWAP3 SWAP1 POP JUMP JUMPDEST PUSH1 0x0 DUP2 ISZERO ISZERO SWAP1 POP SWAP2 SWAP1 POP JUMP JUMPDEST PUSH2 0xD7E DUP2 PUSH2 0xD69 JUMP JUMPDEST DUP3 MSTORE POP POP JUMP JUMPDEST PUSH1 0x0 PUSH1 0x20 DUP3 ADD SWAP1 POP PUSH2 0xD99 PUSH1 0x0 DUP4 ADD DUP5 PUSH2 0xD75 JUMP JUMPDEST SWAP3 SWAP2 POP POP JUMP JUMPDEST PUSH1 0x0 DUP2 MLOAD SWAP1 POP SWAP2 SWAP1 POP JUMP JUMPDEST PUSH1 0x0 DUP3 DUP3 MSTORE PUSH1 0x20 DUP3 ADD SWAP1 POP SWAP3 SWAP2 POP POP JUMP JUMPDEST PUSH1 0x0 JUMPDEST DUP4 DUP2 LT ISZERO PUSH2 0xDD9 JUMPI DUP1 DUP3 ADD MLOAD DUP2 DUP5 ADD MSTORE PUSH1 0x20 DUP2 ADD SWAP1 POP PUSH2 0xDBE JUMP JUMPDEST PUSH1 0x0 DUP5 DUP5 ADD MSTORE POP POP POP POP JUMP JUMPDEST PUSH1 0x0 PUSH2 0xDF0 DUP3 PUSH2 0xD9F JUMP JUMPDEST PUSH2 0xDFA DUP2 DUP6 PUSH2 0xDAA JUMP JUMPDEST SWAP4 POP PUSH2 0xE0A DUP2 DUP6 PUSH1 0x20 DUP7 ADD PUSH2 0xDBB JUMP JUMPDEST PUSH2 0xE13 DUP2 PUSH2 0xBB5 JUMP JUMPDEST DUP5 ADD SWAP2 POP POP SWAP3 SWAP2 POP POP JUMP JUMPDEST PUSH1 0x0 PUSH1 0x20 DUP3 ADD SWAP1 POP DUP2 DUP2 SUB PUSH1 0x0 DUP4 ADD MSTORE PUSH2 0xE38 DUP2 DUP5 PUSH2 0xDE5 JUMP JUMPDEST SWAP1 POP SWAP3 SWAP2 POP POP JUMP JUMPDEST PUSH1 0x0 DUP1 PUSH1 0x0 DUP1 PUSH1 0x80 DUP6 DUP8 SUB SLT ISZERO PUSH2 0xE5A JUMPI PUSH2 0xE59 PUSH2 0xA22 JUMP JUMPDEST JUMPDEST PUSH1 0x0 PUSH2 0xE68 DUP8 DUP3 DUP9 ADD PUSH2 0xB3B JUMP JUMPDEST SWAP5 POP POP PUSH1 0x20 PUSH2 0xE79 DUP8 DUP3 DUP9 ADD PUSH2 0xB3B JUMP JUMPDEST SWAP4 POP POP PUSH1 0x40 PUSH2 0xE8A DUP8 DUP3 DUP9 ADD PUSH2 0xA4D JUMP JUMPDEST SWAP3 POP POP PUSH1 0x60 PUSH2 0xE9B DUP8 DUP3 DUP9 ADD PUSH2 0xA4D JUMP JUMPDEST SWAP2 POP POP SWAP3 SWAP6 SWAP2 SWAP5 POP SWAP3 POP JUMP JUMPDEST PUSH32 0x2054686973206164647265737320646F65736E27742065786973747300000000 PUSH1 0x0 DUP3 ADD MSTORE POP JUMP JUMPDEST PUSH1 0x0 PUSH2 0xEDD PUSH1 0x1C DUP4 PUSH2 0xDAA JUMP JUMPDEST SWAP2 POP PUSH2 0xEE8 DUP3 PUSH2 0xEA7 JUMP JUMPDEST PUSH1 0x20 DUP3 ADD SWAP1 POP SWAP2 SWAP1 POP JUMP JUMPDEST PUSH1 0x0 PUSH1 0x20 DUP3 ADD SWAP1 POP DUP2 DUP2 SUB PUSH1 0x0 DUP4 ADD MSTORE PUSH2 0xF0C DUP2 PUSH2 0xED0 JUMP JUMPDEST SWAP1 POP SWAP2 SWAP1 POP JUMP JUMPDEST PUSH32 0x506C6561736520696E7365727420796F75722063617264000000000000000000 PUSH1 0x0 DUP3 ADD MSTORE POP JUMP JUMPDEST PUSH1 0x0 PUSH2 0xF49 PUSH1 0x17 DUP4 PUSH2 0xDAA JUMP JUMPDEST SWAP2 POP PUSH2 0xF54 DUP3 PUSH2 0xF13 JUMP JUMPDEST PUSH1 0x20 DUP3 ADD SWAP1 POP SWAP2 SWAP1 POP JUMP JUMPDEST PUSH1 0x0 PUSH1 0x20 DUP3 ADD SWAP1 POP DUP2 DUP2 SUB PUSH1 0x0 DUP4 ADD MSTORE PUSH2 0xF78 DUP2 PUSH2 0xF3C JUMP JUMPDEST SWAP1 POP SWAP2 SWAP1 POP JUMP JUMPDEST PUSH32 0x4E487B7100000000000000000000000000000000000000000000000000000000 PUSH1 0x0 MSTORE PUSH1 0x11 PUSH1 0x4 MSTORE PUSH1 0x24 PUSH1 0x0 REVERT JUMPDEST PUSH1 0x0 PUSH2 0xFB9 DUP3 PUSH2 0xA2C JUMP JUMPDEST SWAP2 POP PUSH2 0xFC4 DUP4 PUSH2 0xA2C JUMP JUMPDEST SWAP3 POP DUP3 DUP3 ADD SWAP1 POP DUP1 DUP3 GT ISZERO PUSH2 0xFDC JUMPI PUSH2 0xFDB PUSH2 0xF7F JUMP JUMPDEST JUMPDEST SWAP3 SWAP2 POP POP JUMP JUMPDEST PUSH32 0x4E487B7100000000000000000000000000000000000000000000000000000000 PUSH1 0x0 MSTORE PUSH1 0x1 PUSH1 0x4 MSTORE PUSH1 0x24 PUSH1 0x0 REVERT JUMPDEST PUSH32 0x6F6E6C792035207472616E73616374696F6E7320706572206461790000000000 PUSH1 0x0 DUP3 ADD MSTORE POP JUMP JUMPDEST PUSH1 0x0 PUSH2 0x1047 PUSH1 0x1B DUP4 PUSH2 0xDAA JUMP JUMPDEST SWAP2 POP PUSH2 0x1052 DUP3 PUSH2 0x1011 JUMP JUMPDEST PUSH1 0x20 DUP3 ADD SWAP1 POP SWAP2 SWAP1 POP JUMP JUMPDEST PUSH1 0x0 PUSH1 0x20 DUP3 ADD SWAP1 POP DUP2 DUP2 SUB PUSH1 0x0 DUP4 ADD MSTORE PUSH2 0x1076 DUP2 PUSH2 0x103A JUMP JUMPDEST SWAP1 POP SWAP2 SWAP1 POP JUMP JUMPDEST PUSH1 0x0 PUSH2 0x1088 DUP3 PUSH2 0xA2C JUMP JUMPDEST SWAP2 POP PUSH2 0x1093 DUP4 PUSH2 0xA2C JUMP JUMPDEST SWAP3 POP DUP3 DUP3 SUB SWAP1 POP DUP2 DUP2 GT ISZERO PUSH2 0x10AB JUMPI PUSH2 0x10AA PUSH2 0xF7F JUMP JUMPDEST JUMPDEST SWAP3 SWAP2 POP POP JUMP JUMPDEST PUSH32 0x4E487B7100000000000000000000000000000000000000000000000000000000 PUSH1 0x0 MSTORE PUSH1 0x22 PUSH1 0x4 MSTORE PUSH1 0x24 PUSH1 0x0 REVERT JUMPDEST PUSH1 0x0 PUSH1 0x2 DUP3 DIV SWAP1 POP PUSH1 0x1 DUP3 AND DUP1 PUSH2 0x10F8 JUMPI PUSH1 0x7F DUP3 AND SWAP2 POP JUMPDEST PUSH1 0x20 DUP3 LT DUP2 SUB PUSH2 0x110B JUMPI PUSH2 0x110A PUSH2 0x10B1 JUMP JUMPDEST JUMPDEST POP SWAP2 SWAP1 POP JUMP JUMPDEST PUSH1 0x0 DUP2 SWAP1 POP DUP2 PUSH1 0x0 MSTORE PUSH1 0x20 PUSH1 0x0 KECCAK256 SWAP1 POP SWAP2 SWAP1 POP JUMP JUMPDEST PUSH1 0x0 PUSH1 0x20 PUSH1 0x1F DUP4 ADD DIV SWAP1 POP SWAP2 SWAP1 POP JUMP JUMPDEST PUSH1 0x0 DUP3 DUP3 SHL SWAP1 POP SWAP3 SWAP2 POP POP JUMP JUMPDEST PUSH1 0x0 PUSH1 0x8 DUP4 MUL PUSH2 0x1173 PUSH32 0xFFFFFFFFFFFFFFFFFFFFFFFFFFFFFFFFFFFFFFFFFFFFFFFFFFFFFFFFFFFFFFFF DUP3 PUSH2 0x1136 JUMP JUMPDEST PUSH2 0x117D DUP7 DUP4 PUSH2 0x1136 JUMP JUMPDEST SWAP6 POP DUP1 NOT DUP5 AND SWAP4 POP DUP1 DUP7 AND DUP5 OR SWAP3 POP POP POP SWAP4 SWAP3 POP POP POP JUMP JUMPDEST PUSH1 0x0 DUP2 SWAP1 POP SWAP2 SWAP1 POP JUMP JUMPDEST PUSH1 0x0 PUSH2 0x11BA PUSH2 0x11B5 PUSH2 0x11B0 DUP5 PUSH2 0xA2C JUMP JUMPDEST PUSH2 0x1195 JUMP JUMPDEST PUSH2 0xA2C JUMP JUMPDEST SWAP1 POP SWAP2 SWAP1 POP JUMP JUMPDEST PUSH1 0x0 DUP2 SWAP1 POP SWAP2 SWAP1 POP JUMP JUMPDEST PUSH2 0x11D4 DUP4 PUSH2 0x119F JUMP JUMPDEST PUSH2 0x11E8 PUSH2 0x11E0 DUP3 PUSH2 0x11C1 JUMP JUMPDEST DUP5 DUP5 SLOAD PUSH2 0x1143 JUMP JUMPDEST DUP3 SSTORE POP POP POP POP JUMP JUMPDEST PUSH1 0x0 SWAP1 JUMP JUMPDEST PUSH2 0x11FD PUSH2 0x11F0 JUMP JUMPDEST PUSH2 0x1208 DUP2 DUP5 DUP5 PUSH2 0x11CB JUMP JUMPDEST POP POP POP JUMP JUMPDEST JUMPDEST DUP2 DUP2 LT ISZERO PUSH2 0x122C JUMPI PUSH2 0x1221 PUSH1 0x0 DUP3 PUSH2 0x11F5 JUMP JUMPDEST PUSH1 0x1 DUP2 ADD SWAP1 POP PUSH2 0x120E JUMP JUMPDEST POP POP JUMP JUMPDEST PUSH1 0x1F DUP3 GT ISZERO PUSH2 0x1271 JUMPI PUSH2 0x1242 DUP2 PUSH2 0x1111 JUMP JUMPDEST PUSH2 0x124B DUP5 PUSH2 0x1126 JUMP JUMPDEST DUP2 ADD PUSH1 0x20 DUP6 LT ISZERO PUSH2 0x125A JUMPI DUP2 SWAP1 POP JUMPDEST PUSH2 0x126E PUSH2 0x1266 DUP6 PUSH2 0x1126 JUMP JUMPDEST DUP4 ADD DUP3 PUSH2 0x120D JUMP JUMPDEST POP POP JUMPDEST POP POP POP JUMP JUMPDEST PUSH1 0x0 DUP3 DUP3 SHR SWAP1 POP SWAP3 SWAP2 POP POP JUMP JUMPDEST PUSH1 0x0 PUSH2 0x1294 PUSH1 0x0 NOT DUP5 PUSH1 0x8 MUL PUSH2 0x1276 JUMP JUMPDEST NOT DUP1 DUP4 AND SWAP2 POP POP SWAP3 SWAP2 POP POP JUMP JUMPDEST PUSH1 0x0 PUSH2 0x12AD DUP4 DUP4 PUSH2 0x1283 JUMP JUMPDEST SWAP2 POP DUP3 PUSH1 0x2 MUL DUP3 OR SWAP1 POP SWAP3 SWAP2 POP POP JUMP JUMPDEST PUSH2 0x12C6 DUP3 PUSH2 0xD9F JUMP JUMPDEST PUSH8 0xFFFFFFFFFFFFFFFF DUP2 GT ISZERO PUSH2 0x12DF JUMPI PUSH2 0x12DE PUSH2 0xBC6 JUMP JUMPDEST JUMPDEST PUSH2 0x12E9 DUP3 SLOAD PUSH2 0x10E0 JUMP JUMPDEST PUSH2 0x12F4 DUP3 DUP3 DUP6 PUSH2 0x1230 JUMP JUMPDEST PUSH1 0x0 PUSH1 0x20 SWAP1 POP PUSH1 0x1F DUP4 GT PUSH1 0x1 DUP2 EQ PUSH2 0x1327 JUMPI PUSH1 0x0 DUP5 ISZERO PUSH2 0x1315 JUMPI DUP3 DUP8 ADD MLOAD SWAP1 POP JUMPDEST PUSH2 0x131F DUP6 DUP3 PUSH2 0x12A1 JUMP JUMPDEST DUP7 SSTORE POP PUSH2 0x1387 JUMP JUMPDEST PUSH1 0x1F NOT DUP5 AND PUSH2 0x1335 DUP7 PUSH2 0x1111 JUMP JUMPDEST PUSH1 0x0 JUMPDEST DUP3 DUP2 LT ISZERO PUSH2 0x135D JUMPI DUP5 DUP10 ADD MLOAD DUP3 SSTORE PUSH1 0x1 DUP3 ADD SWAP2 POP PUSH1 0x20 DUP6 ADD SWAP5 POP PUSH1 0x20 DUP2 ADD SWAP1 POP PUSH2 0x1338 JUMP JUMPDEST DUP7 DUP4 LT ISZERO PUSH2 0x137A JUMPI DUP5 DUP10 ADD MLOAD PUSH2 0x1376 PUSH1 0x1F DUP10 AND DUP3 PUSH2 0x1283 JUMP JUMPDEST DUP4 SSTORE POP JUMPDEST PUSH1 0x1 PUSH1 0x2 DUP9 MUL ADD DUP9 SSTORE POP POP POP JUMPDEST POP POP POP POP POP POP JUMP JUMPDEST PUSH32 0x4E6F7420656E6F7567682066756E647300000000000000000000000000000000 PUSH1 0x0 DUP3 ADD MSTORE POP JUMP JUMPDEST PUSH1 0x0 PUSH2 0x13C5 PUSH1 0x10 DUP4 PUSH2 0xDAA JUMP JUMPDEST SWAP2 POP PUSH2 0x13D0 DUP3 PUSH2 0x138F JUMP JUMPDEST PUSH1 0x20 DUP3 ADD SWAP1 POP SWAP2 SWAP1 POP JUMP JUMPDEST PUSH1 0x0 PUSH1 0x20 DUP3 ADD SWAP1 POP DUP2 DUP2 SUB PUSH1 0x0 DUP4 ADD MSTORE PUSH2 0x13F4 DUP2 PUSH2 0x13B8 JUMP JUMPDEST SWAP1 POP SWAP2 SWAP1 POP JUMP JUMPDEST PUSH32 0x4E6F2076616C6964206372656469742063617264000000000000000000000000 PUSH1 0x0 DUP3 ADD MSTORE POP JUMP JUMPDEST PUSH1 0x0 PUSH2 0x1431 PUSH1 0x14 DUP4 PUSH2 0xDAA JUMP JUMPDEST SWAP2 POP PUSH2 0x143C DUP3 PUSH2 0x13FB JUMP JUMPDEST PUSH1 0x20 DUP3 ADD SWAP1 POP SWAP2 SWAP1 POP JUMP JUMPDEST PUSH1 0x0 PUSH1 0x20 DUP3 ADD SWAP1 POP DUP2 DUP2 SUB PUSH1 0x0 DUP4 ADD MSTORE PUSH2 0x1460 DUP2 PUSH2 0x1424 JUMP JUMPDEST SWAP1 POP SWAP2 SWAP1 POP JUMP INVALID LOG2 PUSH5 0x6970667358 0x22 SLT KECCAK256 ISZERO RETURNDATACOPY 0xB6 0xBF SWAP9 ISZERO EXTCODEHASH PUSH23 0x3B0D01182CEDEA57BC81972A4C00F8BF5E88DFC0972EBE 0xBE PUSH5 0x736F6C6343 STOP ADDMOD LT STOP CALLER "
				},
				"gasEstimates": {
					"creation": {
						"codeDepositCost": "1055400",
						"executionCost": "infinite",
						"totalCost": "infinite"
					},
					"external": {
						"TotalAmount()": "2496",
						"TotalFunds()": "2474",
						"addTransaction(address,address,uint256,uint256)": "infinite",
						"amount()": "2495",
						"callCount()": "2518",
						"callPutCard()": "2516",
						"cardNumber()": "infinite",
						"cvv()": "infinite",
						"firstTransferTime()": "2497",
						"getOutCard()": "24500",
						"getTime()": "359",
						"message()": "infinite",
						"sendMoney(uint256,address)": "infinite",
						"setCard(string,string)": "infinite",
						"transactionList(uint256)": "infinite"
					}
				},
				"methodIdentifiers": {
					"TotalAmount()": "7eb9f571",
					"TotalFunds()": "7b9a3f4c",
					"addTransaction(address,address,uint256,uint256)": "97838c72",
					"amount()": "aa8c217c",
					"callCount()": "4b28f9a2",
					"callPutCard()": "3c626f00",
					"cardNumber()": "8fa11864",
					"cvv()": "42fb7936",
					"firstTransferTime()": "0e85fa72",
					"getOutCard()": "8e029c0b",
					"getTime()": "557ed1ba",
					"message()": "e21f37ce",
					"sendMoney(uint256,address)": "062a7544",
					"setCard(string,string)": "12a029a4",
					"transactionList(uint256)": "04ef5b21"
				}
			},
			"storageLayout": {
				"storage": [
					{
						"astId": 262,
						"contract": "Dapp/MoneyTransfer.sol:MoneyTransfer",
						"label": "transactionList",
						"offset": 0,
						"slot": "0",
						"type": "t_array(t_struct(Transactions)258_storage)dyn_storage"
					},
					{
						"astId": 6,
						"contract": "Dapp/MoneyTransfer.sol:MoneyTransfer",
						"label": "amount",
						"offset": 0,
						"slot": "1",
						"type": "t_uint256"
					},
					{
						"astId": 8,
						"contract": "Dapp/MoneyTransfer.sol:MoneyTransfer",
						"label": "TotalFunds",
						"offset": 0,
						"slot": "2",
						"type": "t_uint256"
					},
					{
						"astId": 10,
						"contract": "Dapp/MoneyTransfer.sol:MoneyTransfer",
						"label": "receiver",
						"offset": 0,
						"slot": "3",
						"type": "t_address"
					},
					{
						"astId": 12,
						"contract": "Dapp/MoneyTransfer.sol:MoneyTransfer",
						"label": "message",
						"offset": 0,
						"slot": "4",
						"type": "t_string_storage"
					},
					{
						"astId": 14,
						"contract": "Dapp/MoneyTransfer.sol:MoneyTransfer",
						"label": "cardNumber",
						"offset": 0,
						"slot": "5",
						"type": "t_string_storage"
					},
					{
						"astId": 16,
						"contract": "Dapp/MoneyTransfer.sol:MoneyTransfer",
						"label": "cvv",
						"offset": 0,
						"slot": "6",
						"type": "t_string_storage"
					},
					{
						"astId": 18,
						"contract": "Dapp/MoneyTransfer.sol:MoneyTransfer",
						"label": "TotalAmount",
						"offset": 0,
						"slot": "7",
						"type": "t_uint256"
					},
					{
						"astId": 20,
						"contract": "Dapp/MoneyTransfer.sol:MoneyTransfer",
						"label": "firstTransferTime",
						"offset": 0,
						"slot": "8",
						"type": "t_uint256"
					},
					{
						"astId": 33,
						"contract": "Dapp/MoneyTransfer.sol:MoneyTransfer",
						"label": "callCount",
						"offset": 0,
						"slot": "9",
						"type": "t_uint256"
					},
					{
						"astId": 36,
						"contract": "Dapp/MoneyTransfer.sol:MoneyTransfer",
						"label": "callPutCard",
						"offset": 0,
						"slot": "10",
						"type": "t_bool"
					}
				],
				"types": {
					"t_address": {
						"encoding": "inplace",
						"label": "address",
						"numberOfBytes": "20"
					},
					"t_array(t_struct(Transactions)258_storage)dyn_storage": {
						"base": "t_struct(Transactions)258_storage",
						"encoding": "dynamic_array",
						"label": "struct Transaction.Transactions[]",
						"numberOfBytes": "32"
					},
					"t_bool": {
						"encoding": "inplace",
						"label": "bool",
						"numberOfBytes": "1"
					},
					"t_string_storage": {
						"encoding": "bytes",
						"label": "string",
						"numberOfBytes": "32"
					},
					"t_struct(Transactions)258_storage": {
						"encoding": "inplace",
						"label": "struct Transaction.Transactions",
						"members": [
							{
								"astId": 251,
								"contract": "Dapp/MoneyTransfer.sol:MoneyTransfer",
								"label": "address_from",
								"offset": 0,
								"slot": "0",
								"type": "t_address"
							},
							{
								"astId": 253,
								"contract": "Dapp/MoneyTransfer.sol:MoneyTransfer",
								"label": "address_to",
								"offset": 0,
								"slot": "1",
								"type": "t_address"
							},
							{
								"astId": 255,
								"contract": "Dapp/MoneyTransfer.sol:MoneyTransfer",
								"label": "amount",
								"offset": 0,
								"slot": "2",
								"type": "t_uint256"
							},
							{
								"astId": 257,
								"contract": "Dapp/MoneyTransfer.sol:MoneyTransfer",
								"label": "timestamp",
								"offset": 0,
								"slot": "3",
								"type": "t_uint256"
							}
						],
						"numberOfBytes": "128"
					},
					"t_uint256": {
						"encoding": "inplace",
						"label": "uint256",
						"numberOfBytes": "32"
					}
				}
			},
			"userdoc": {
				"kind": "user",
				"methods": {},
				"version": 1
			}
		}
	}
}