{
	"Dapp/MoneyTransfer.sol": {
		"MoneyTransfer": {
			"abi": [
				{
					"inputs": [
						{
							"internalType": "uint256",
							"name": "_totalFunds",
							"type": "uint256"
						}
					],
					"stateMutability": "nonpayable",
					"type": "constructor"
				},
				{
					"inputs": [],
					"name": "TotalAmount",
					"outputs": [
						{
							"internalType": "uint256",
							"name": "",
							"type": "uint256"
						}
					],
					"stateMutability": "view",
					"type": "function"
				},
				{
					"inputs": [],
					"name": "TotalFunds",
					"outputs": [
						{
							"internalType": "uint256",
							"name": "",
							"type": "uint256"
						}
					],
					"stateMutability": "view",
					"type": "function"
				},
				{
					"inputs": [],
					"name": "amount",
					"outputs": [
						{
							"internalType": "uint256",
							"name": "",
							"type": "uint256"
						}
					],
					"stateMutability": "view",
					"type": "function"
				},
				{
					"inputs": [],
					"name": "callCount",
					"outputs": [
						{
							"internalType": "uint256",
							"name": "",
							"type": "uint256"
						}
					],
					"stateMutability": "view",
					"type": "function"
				},
				{
					"inputs": [],
					"name": "callPutCard",
					"outputs": [
						{
							"internalType": "bool",
							"name": "",
							"type": "bool"
						}
					],
					"stateMutability": "view",
					"type": "function"
				},
				{
					"inputs": [],
					"name": "cardNumber",
					"outputs": [
						{
							"internalType": "string",
							"name": "",
							"type": "string"
						}
					],
					"stateMutability": "view",
					"type": "function"
				},
				{
					"inputs": [],
					"name": "cvv",
					"outputs": [
						{
							"internalType": "string",
							"name": "",
							"type": "string"
						}
					],
					"stateMutability": "view",
					"type": "function"
				},
				{
					"inputs": [],
					"name": "firstTransferTime",
					"outputs": [
						{
							"internalType": "uint256",
							"name": "",
							"type": "uint256"
						}
					],
					"stateMutability": "view",
					"type": "function"
				},
				{
					"inputs": [],
					"name": "getOutCard",
					"outputs": [],
					"stateMutability": "nonpayable",
					"type": "function"
				},
				{
					"inputs": [],
					"name": "getTime",
					"outputs": [
						{
							"internalType": "uint256",
							"name": "",
							"type": "uint256"
						}
					],
					"stateMutability": "view",
					"type": "function"
				},
				{
					"inputs": [],
					"name": "message",
					"outputs": [
						{
							"internalType": "string",
							"name": "",
							"type": "string"
						}
					],
					"stateMutability": "view",
					"type": "function"
				},
				{
					"inputs": [
						{
							"internalType": "uint256",
							"name": "_amount",
							"type": "uint256"
						},
						{
							"internalType": "address",
							"name": "_receiver",
							"type": "address"
						}
					],
					"name": "sendMoney",
					"outputs": [],
					"stateMutability": "nonpayable",
					"type": "function"
				},
				{
					"inputs": [
						{
							"internalType": "string",
							"name": "_cardNumber",
							"type": "string"
						},
						{
							"internalType": "string",
							"name": "_cvv",
							"type": "string"
						}
					],
					"name": "setCard",
					"outputs": [],
					"stateMutability": "nonpayable",
					"type": "function"
				}
			],
			"devdoc": {
				"kind": "dev",
				"methods": {},
				"version": 1
			},
			"evm": {
				"assembly": "    /* \"Dapp/MoneyTransfer.sol\":71:4125  contract  MoneyTransfer {... */\n  mstore(0x40, 0x80)\n    /* \"Dapp/MoneyTransfer.sol\":790:791  0 */\n  0x00\n    /* \"Dapp/MoneyTransfer.sol\":766:791  uint public callCount = 0 */\n  0x08\n  sstore\n    /* \"Dapp/MoneyTransfer.sol\":825:830  false */\n  0x00\n    /* \"Dapp/MoneyTransfer.sol\":799:830  bool public callPutCard = false */\n  0x09\n  exp(0x0100, 0x00)\n  dup2\n  sload\n  dup2\n  0xff\n  mul\n  not\n  and\n  swap1\n  dup4\n  iszero\n  iszero\n  mul\n  or\n  swap1\n  sstore\n  pop\n    /* \"Dapp/MoneyTransfer.sol\":615:754  constructor (uint256 _totalFunds) {... */\n  callvalue\n  dup1\n  iszero\n  tag_1\n  jumpi\n  0x00\n  dup1\n  revert\ntag_1:\n  pop\n  mload(0x40)\n  sub(codesize, bytecodeSize)\n  dup1\n  bytecodeSize\n  dup4\n  codecopy\n  dup2\n  dup2\n  add\n  0x40\n  mstore\n  dup2\n  add\n  swap1\n  tag_2\n  swap2\n  swap1\n  tag_3\n  jump\t// in\ntag_2:\n    /* \"Dapp/MoneyTransfer.sol\":735:746  _totalFunds */\n  dup1\n    /* \"Dapp/MoneyTransfer.sol\":722:732  TotalFunds */\n  0x01\n    /* \"Dapp/MoneyTransfer.sol\":722:746  TotalFunds = _totalFunds */\n  dup2\n  swap1\n  sstore\n  pop\n    /* \"Dapp/MoneyTransfer.sol\":615:754  constructor (uint256 _totalFunds) {... */\n  pop\n    /* \"Dapp/MoneyTransfer.sol\":71:4125  contract  MoneyTransfer {... */\n  jump(tag_6)\n    /* \"#utility.yul\":88:205   */\ntag_8:\n    /* \"#utility.yul\":197:198   */\n  0x00\n    /* \"#utility.yul\":194:195   */\n  dup1\n    /* \"#utility.yul\":187:199   */\n  revert\n    /* \"#utility.yul\":334:411   */\ntag_10:\n    /* \"#utility.yul\":371:378   */\n  0x00\n    /* \"#utility.yul\":400:405   */\n  dup2\n    /* \"#utility.yul\":389:405   */\n  swap1\n  pop\n    /* \"#utility.yul\":334:411   */\n  swap2\n  swap1\n  pop\n  jump\t// out\n    /* \"#utility.yul\":417:539   */\ntag_11:\n    /* \"#utility.yul\":490:514   */\n  tag_19\n    /* \"#utility.yul\":508:513   */\n  dup2\n    /* \"#utility.yul\":490:514   */\n  tag_10\n  jump\t// in\ntag_19:\n    /* \"#utility.yul\":483:488   */\n  dup2\n    /* \"#utility.yul\":480:515   */\n  eq\n    /* \"#utility.yul\":470:533   */\n  tag_20\n  jumpi\n    /* \"#utility.yul\":529:530   */\n  0x00\n    /* \"#utility.yul\":526:527   */\n  dup1\n    /* \"#utility.yul\":519:531   */\n  revert\n    /* \"#utility.yul\":470:533   */\ntag_20:\n    /* \"#utility.yul\":417:539   */\n  pop\n  jump\t// out\n    /* \"#utility.yul\":545:688   */\ntag_12:\n    /* \"#utility.yul\":602:607   */\n  0x00\n    /* \"#utility.yul\":633:639   */\n  dup2\n    /* \"#utility.yul\":627:640   */\n  mload\n    /* \"#utility.yul\":618:640   */\n  swap1\n  pop\n    /* \"#utility.yul\":649:682   */\n  tag_22\n    /* \"#utility.yul\":676:681   */\n  dup2\n    /* \"#utility.yul\":649:682   */\n  tag_11\n  jump\t// in\ntag_22:\n    /* \"#utility.yul\":545:688   */\n  swap3\n  swap2\n  pop\n  pop\n  jump\t// out\n    /* \"#utility.yul\":694:1045   */\ntag_3:\n    /* \"#utility.yul\":764:770   */\n  0x00\n    /* \"#utility.yul\":813:815   */\n  0x20\n    /* \"#utility.yul\":801:810   */\n  dup3\n    /* \"#utility.yul\":792:799   */\n  dup5\n    /* \"#utility.yul\":788:811   */\n  sub\n    /* \"#utility.yul\":784:816   */\n  slt\n    /* \"#utility.yul\":781:900   */\n  iszero\n  tag_24\n  jumpi\n    /* \"#utility.yul\":819:898   */\n  tag_25\n  tag_8\n  jump\t// in\ntag_25:\n    /* \"#utility.yul\":781:900   */\ntag_24:\n    /* \"#utility.yul\":939:940   */\n  0x00\n    /* \"#utility.yul\":964:1028   */\n  tag_26\n    /* \"#utility.yul\":1020:1027   */\n  dup5\n    /* \"#utility.yul\":1011:1017   */\n  dup3\n    /* \"#utility.yul\":1000:1009   */\n  dup6\n    /* \"#utility.yul\":996:1018   */\n  add\n    /* \"#utility.yul\":964:1028   */\n  tag_12\n  jump\t// in\ntag_26:\n    /* \"#utility.yul\":954:1028   */\n  swap2\n  pop\n    /* \"#utility.yul\":910:1038   */\n  pop\n    /* \"#utility.yul\":694:1045   */\n  swap3\n  swap2\n  pop\n  pop\n  jump\t// out\n    /* \"Dapp/MoneyTransfer.sol\":71:4125  contract  MoneyTransfer {... */\ntag_6:\n  dataSize(sub_0)\n  dup1\n  dataOffset(sub_0)\n  0x00\n  codecopy\n  0x00\n  return\nstop\n\nsub_0: assembly {\n        /* \"Dapp/MoneyTransfer.sol\":71:4125  contract  MoneyTransfer {... */\n      mstore(0x40, 0x80)\n      callvalue\n      dup1\n      iszero\n      tag_1\n      jumpi\n      0x00\n      dup1\n      revert\n    tag_1:\n      pop\n      jumpi(tag_2, lt(calldatasize, 0x04))\n      shr(0xe0, calldataload(0x00))\n      dup1\n      0x557ed1ba\n      gt\n      tag_16\n      jumpi\n      dup1\n      0x8e029c0b\n      gt\n      tag_17\n      jumpi\n      dup1\n      0x8e029c0b\n      eq\n      tag_12\n      jumpi\n      dup1\n      0x8fa11864\n      eq\n      tag_13\n      jumpi\n      dup1\n      0xaa8c217c\n      eq\n      tag_14\n      jumpi\n      dup1\n      0xe21f37ce\n      eq\n      tag_15\n      jumpi\n      jump(tag_2)\n    tag_17:\n      dup1\n      0x557ed1ba\n      eq\n      tag_9\n      jumpi\n      dup1\n      0x7b9a3f4c\n      eq\n      tag_10\n      jumpi\n      dup1\n      0x7eb9f571\n      eq\n      tag_11\n      jumpi\n      jump(tag_2)\n    tag_16:\n      dup1\n      0x062a7544\n      eq\n      tag_3\n      jumpi\n      dup1\n      0x0e85fa72\n      eq\n      tag_4\n      jumpi\n      dup1\n      0x12a029a4\n      eq\n      tag_5\n      jumpi\n      dup1\n      0x3c626f00\n      eq\n      tag_6\n      jumpi\n      dup1\n      0x42fb7936\n      eq\n      tag_7\n      jumpi\n      dup1\n      0x4b28f9a2\n      eq\n      tag_8\n      jumpi\n    tag_2:\n      0x00\n      dup1\n      revert\n        /* \"Dapp/MoneyTransfer.sol\":840:1648  function sendMoney( uint _amount, address _receiver) public m_validAddress(_receiver) m_ifCardExists m_transferLimit{... */\n    tag_3:\n      tag_18\n      0x04\n      dup1\n      calldatasize\n      sub\n      dup2\n      add\n      swap1\n      tag_19\n      swap2\n      swap1\n      tag_20\n      jump\t// in\n    tag_19:\n      tag_21\n      jump\t// in\n    tag_18:\n      stop\n        /* \"Dapp/MoneyTransfer.sol\":538:567  uint public firstTransferTime */\n    tag_4:\n      tag_22\n      tag_23\n      jump\t// in\n    tag_22:\n      mload(0x40)\n      tag_24\n      swap2\n      swap1\n      tag_25\n      jump\t// in\n    tag_24:\n      mload(0x40)\n      dup1\n      swap2\n      sub\n      swap1\n      return\n        /* \"Dapp/MoneyTransfer.sol\":1656:1921  function setCard(string memory _cardNumber, string memory _cvv) public  m_checkCard {... */\n    tag_5:\n      tag_26\n      0x04\n      dup1\n      calldatasize\n      sub\n      dup2\n      add\n      swap1\n      tag_27\n      swap2\n      swap1\n      tag_28\n      jump\t// in\n    tag_27:\n      tag_29\n      jump\t// in\n    tag_26:\n      stop\n        /* \"Dapp/MoneyTransfer.sol\":799:830  bool public callPutCard = false */\n    tag_6:\n      tag_30\n      tag_31\n      jump\t// in\n    tag_30:\n      mload(0x40)\n      tag_32\n      swap2\n      swap1\n      tag_33\n      jump\t// in\n    tag_32:\n      mload(0x40)\n      dup1\n      swap2\n      sub\n      swap1\n      return\n        /* \"Dapp/MoneyTransfer.sol\":484:501  string public cvv */\n    tag_7:\n      tag_34\n      tag_35\n      jump\t// in\n    tag_34:\n      mload(0x40)\n      tag_36\n      swap2\n      swap1\n      tag_37\n      jump\t// in\n    tag_36:\n      mload(0x40)\n      dup1\n      swap2\n      sub\n      swap1\n      return\n        /* \"Dapp/MoneyTransfer.sol\":766:791  uint public callCount = 0 */\n    tag_8:\n      tag_38\n      tag_39\n      jump\t// in\n    tag_38:\n      mload(0x40)\n      tag_40\n      swap2\n      swap1\n      tag_25\n      jump\t// in\n    tag_40:\n      mload(0x40)\n      dup1\n      swap2\n      sub\n      swap1\n      return\n        /* \"Dapp/MoneyTransfer.sol\":4028:4114  function getTime()public view returns(uint ){... */\n    tag_9:\n      tag_41\n      tag_42\n      jump\t// in\n    tag_41:\n      mload(0x40)\n      tag_43\n      swap2\n      swap1\n      tag_25\n      jump\t// in\n    tag_43:\n      mload(0x40)\n      dup1\n      swap2\n      sub\n      swap1\n      return\n        /* \"Dapp/MoneyTransfer.sol\":134:159  uint256 public TotalFunds */\n    tag_10:\n      tag_44\n      tag_45\n      jump\t// in\n    tag_44:\n      mload(0x40)\n      tag_46\n      swap2\n      swap1\n      tag_25\n      jump\t// in\n    tag_46:\n      mload(0x40)\n      dup1\n      swap2\n      sub\n      swap1\n      return\n        /* \"Dapp/MoneyTransfer.sol\":508:534  uint256 public TotalAmount */\n    tag_11:\n      tag_47\n      tag_48\n      jump\t// in\n    tag_47:\n      mload(0x40)\n      tag_49\n      swap2\n      swap1\n      tag_25\n      jump\t// in\n    tag_49:\n      mload(0x40)\n      dup1\n      swap2\n      sub\n      swap1\n      return\n        /* \"Dapp/MoneyTransfer.sol\":1942:2011  function getOutCard() public  {... */\n    tag_12:\n      tag_50\n      tag_51\n      jump\t// in\n    tag_50:\n      stop\n        /* \"Dapp/MoneyTransfer.sol\":452:476  string public cardNumber */\n    tag_13:\n      tag_52\n      tag_53\n      jump\t// in\n    tag_52:\n      mload(0x40)\n      tag_54\n      swap2\n      swap1\n      tag_37\n      jump\t// in\n    tag_54:\n      mload(0x40)\n      dup1\n      swap2\n      sub\n      swap1\n      return\n        /* \"Dapp/MoneyTransfer.sol\":106:127  uint256 public amount */\n    tag_14:\n      tag_55\n      tag_56\n      jump\t// in\n    tag_55:\n      mload(0x40)\n      tag_57\n      swap2\n      swap1\n      tag_25\n      jump\t// in\n    tag_57:\n      mload(0x40)\n      dup1\n      swap2\n      sub\n      swap1\n      return\n        /* \"Dapp/MoneyTransfer.sol\":424:445  string public message */\n    tag_15:\n      tag_58\n      tag_59\n      jump\t// in\n    tag_58:\n      mload(0x40)\n      tag_60\n      swap2\n      swap1\n      tag_37\n      jump\t// in\n    tag_60:\n      mload(0x40)\n      dup1\n      swap2\n      sub\n      swap1\n      return\n        /* \"Dapp/MoneyTransfer.sol\":840:1648  function sendMoney( uint _amount, address _receiver) public m_validAddress(_receiver) m_ifCardExists m_transferLimit{... */\n    tag_21:\n        /* \"Dapp/MoneyTransfer.sol\":915:924  _receiver */\n      dup1\n        /* \"Dapp/MoneyTransfer.sol\":2092:2097  _addr */\n      dup1\n        /* \"Dapp/MoneyTransfer.sol\":2081:2089  receiver */\n      0x02\n      0x00\n        /* \"Dapp/MoneyTransfer.sol\":2081:2097  receiver = _addr */\n      0x0100\n      exp\n      dup2\n      sload\n      dup2\n      0xffffffffffffffffffffffffffffffffffffffff\n      mul\n      not\n      and\n      swap1\n      dup4\n      0xffffffffffffffffffffffffffffffffffffffff\n      and\n      mul\n      or\n      swap1\n      sstore\n      pop\n        /* \"Dapp/MoneyTransfer.sol\":2133:2134  0 */\n      0x00\n        /* \"Dapp/MoneyTransfer.sol\":2116:2135  _addr != address(0) */\n      0xffffffffffffffffffffffffffffffffffffffff\n      and\n        /* \"Dapp/MoneyTransfer.sol\":2116:2121  _addr */\n      dup2\n        /* \"Dapp/MoneyTransfer.sol\":2116:2135  _addr != address(0) */\n      0xffffffffffffffffffffffffffffffffffffffff\n      and\n      sub\n        /* \"Dapp/MoneyTransfer.sol\":2108:2168  require(_addr != address(0), \" This address doesn't exists\") */\n      tag_62\n      jumpi\n      mload(0x40)\n      0x08c379a000000000000000000000000000000000000000000000000000000000\n      dup2\n      mstore\n      0x04\n      add\n      tag_63\n      swap1\n      tag_64\n      jump\t// in\n    tag_63:\n      mload(0x40)\n      dup1\n      swap2\n      sub\n      swap1\n      revert\n    tag_62:\n        /* \"Dapp/MoneyTransfer.sol\":2267:2272  false */\n      0x00\n        /* \"Dapp/MoneyTransfer.sol\":2252:2272  callPutCard != false */\n      iszero\n      iszero\n        /* \"Dapp/MoneyTransfer.sol\":2252:2263  callPutCard */\n      0x09\n      0x00\n      swap1\n      sload\n      swap1\n      0x0100\n      exp\n      swap1\n      div\n      0xff\n      and\n        /* \"Dapp/MoneyTransfer.sol\":2252:2272  callPutCard != false */\n      iszero\n      iszero\n      sub\n        /* \"Dapp/MoneyTransfer.sol\":2244:2299  require(callPutCard != false,\"Please insert your card\") */\n      tag_66\n      jumpi\n      mload(0x40)\n      0x08c379a000000000000000000000000000000000000000000000000000000000\n      dup2\n      mstore\n      0x04\n      add\n      tag_67\n      swap1\n      tag_68\n      jump\t// in\n    tag_67:\n      mload(0x40)\n      dup1\n      swap2\n      sub\n      swap1\n      revert\n    tag_66:\n        /* \"Dapp/MoneyTransfer.sol\":3579:3580  5 */\n      0x05\n        /* \"Dapp/MoneyTransfer.sol\":3566:3575  callCount */\n      sload(0x08)\n        /* \"Dapp/MoneyTransfer.sol\":3566:3580  callCount >= 5 */\n      lt\n      iszero\n        /* \"Dapp/MoneyTransfer.sol\":3566:3635  callCount >= 5 && block.timestamp <= (firstTransferTime + 30 seconds) */\n      dup1\n      iszero\n      tag_70\n      jumpi\n      pop\n        /* \"Dapp/MoneyTransfer.sol\":3624:3634  30 seconds */\n      0x1e\n        /* \"Dapp/MoneyTransfer.sol\":3604:3621  firstTransferTime */\n      sload(0x07)\n        /* \"Dapp/MoneyTransfer.sol\":3604:3634  firstTransferTime + 30 seconds */\n      tag_71\n      swap2\n      swap1\n      tag_72\n      jump\t// in\n    tag_71:\n        /* \"Dapp/MoneyTransfer.sol\":3584:3599  block.timestamp */\n      timestamp\n        /* \"Dapp/MoneyTransfer.sol\":3584:3635  block.timestamp <= (firstTransferTime + 30 seconds) */\n      gt\n      iszero\n        /* \"Dapp/MoneyTransfer.sol\":3566:3635  callCount >= 5 && block.timestamp <= (firstTransferTime + 30 seconds) */\n    tag_70:\n        /* \"Dapp/MoneyTransfer.sol\":3563:3780  if(callCount >= 5 && block.timestamp <= (firstTransferTime + 30 seconds)){... */\n      iszero\n      tag_73\n      jumpi\n        /* \"Dapp/MoneyTransfer.sol\":3663:3664  0 */\n      0x00\n        /* \"Dapp/MoneyTransfer.sol\":3651:3660  callCount */\n      0x08\n        /* \"Dapp/MoneyTransfer.sol\":3651:3664  callCount = 0 */\n      dup2\n      swap1\n      sstore\n      pop\n        /* \"Dapp/MoneyTransfer.sol\":3699:3700  0 */\n      0x00\n        /* \"Dapp/MoneyTransfer.sol\":3686:3695  callCount */\n      sload(0x08)\n        /* \"Dapp/MoneyTransfer.sol\":3686:3700  callCount == 0 */\n      eq\n        /* \"Dapp/MoneyTransfer.sol\":3679:3701  assert(callCount == 0) */\n      tag_74\n      jumpi\n      tag_75\n      tag_76\n      jump\t// in\n    tag_75:\n    tag_74:\n        /* \"Dapp/MoneyTransfer.sol\":3716:3754  revert(\"only 5 transactions per day\" ) */\n      mload(0x40)\n      0x08c379a000000000000000000000000000000000000000000000000000000000\n      dup2\n      mstore\n      0x04\n      add\n      tag_77\n      swap1\n      tag_78\n      jump\t// in\n    tag_77:\n      mload(0x40)\n      dup1\n      swap2\n      sub\n      swap1\n      revert\n        /* \"Dapp/MoneyTransfer.sol\":3563:3780  if(callCount >= 5 && block.timestamp <= (firstTransferTime + 30 seconds)){... */\n    tag_73:\n        /* \"Dapp/MoneyTransfer.sol\":3808:3809  5 */\n      0x05\n        /* \"Dapp/MoneyTransfer.sol\":3795:3804  callCount */\n      sload(0x08)\n        /* \"Dapp/MoneyTransfer.sol\":3795:3809  callCount <= 5 */\n      gt\n      iszero\n        /* \"Dapp/MoneyTransfer.sol\":3795:3864  callCount <= 5 && block.timestamp >= (firstTransferTime + 30 seconds) */\n      dup1\n      iszero\n      tag_79\n      jumpi\n      pop\n        /* \"Dapp/MoneyTransfer.sol\":3853:3863  30 seconds */\n      0x1e\n        /* \"Dapp/MoneyTransfer.sol\":3833:3850  firstTransferTime */\n      sload(0x07)\n        /* \"Dapp/MoneyTransfer.sol\":3833:3863  firstTransferTime + 30 seconds */\n      tag_80\n      swap2\n      swap1\n      tag_72\n      jump\t// in\n    tag_80:\n        /* \"Dapp/MoneyTransfer.sol\":3813:3828  block.timestamp */\n      timestamp\n        /* \"Dapp/MoneyTransfer.sol\":3813:3864  block.timestamp >= (firstTransferTime + 30 seconds) */\n      lt\n      iszero\n        /* \"Dapp/MoneyTransfer.sol\":3795:3864  callCount <= 5 && block.timestamp >= (firstTransferTime + 30 seconds) */\n    tag_79:\n        /* \"Dapp/MoneyTransfer.sol\":3792:3993  if(callCount <= 5 && block.timestamp >= (firstTransferTime + 30 seconds)){... */\n      iszero\n      tag_81\n      jumpi\n        /* \"Dapp/MoneyTransfer.sol\":3892:3893  0 */\n      0x00\n        /* \"Dapp/MoneyTransfer.sol\":3880:3889  callCount */\n      0x08\n        /* \"Dapp/MoneyTransfer.sol\":3880:3893  callCount = 0 */\n      dup2\n      swap1\n      sstore\n      pop\n        /* \"Dapp/MoneyTransfer.sol\":3929:3930  0 */\n      0x00\n        /* \"Dapp/MoneyTransfer.sol\":3916:3925  callCount */\n      sload(0x08)\n        /* \"Dapp/MoneyTransfer.sol\":3916:3930  callCount == 0 */\n      eq\n        /* \"Dapp/MoneyTransfer.sol\":3909:3931  assert(callCount == 0) */\n      tag_82\n      jumpi\n      tag_83\n      tag_76\n      jump\t// in\n    tag_83:\n    tag_82:\n        /* \"Dapp/MoneyTransfer.sol\":3966:3981  block.timestamp */\n      timestamp\n        /* \"Dapp/MoneyTransfer.sol\":3946:3963  firstTransferTime */\n      0x07\n        /* \"Dapp/MoneyTransfer.sol\":3946:3981  firstTransferTime = block.timestamp */\n      dup2\n      swap1\n      sstore\n      pop\n        /* \"Dapp/MoneyTransfer.sol\":3792:3993  if(callCount <= 5 && block.timestamp >= (firstTransferTime + 30 seconds)){... */\n    tag_81:\n        /* \"Dapp/MoneyTransfer.sol\":978:987  _receiver */\n      dup2\n        /* \"Dapp/MoneyTransfer.sol\":967:975  receiver */\n      0x02\n      0x00\n        /* \"Dapp/MoneyTransfer.sol\":967:987  receiver = _receiver */\n      0x0100\n      exp\n      dup2\n      sload\n      dup2\n      0xffffffffffffffffffffffffffffffffffffffff\n      mul\n      not\n      and\n      swap1\n      dup4\n      0xffffffffffffffffffffffffffffffffffffffff\n      and\n      mul\n      or\n      swap1\n      sstore\n      pop\n        /* \"Dapp/MoneyTransfer.sol\":1007:1014  _amount */\n      dup3\n        /* \"Dapp/MoneyTransfer.sol\":998:1004  amount */\n      0x00\n        /* \"Dapp/MoneyTransfer.sol\":998:1014  amount = _amount */\n      dup2\n      swap1\n      sstore\n      pop\n        /* \"Dapp/MoneyTransfer.sol\":1187:1188  1 */\n      0x01\n        /* \"Dapp/MoneyTransfer.sol\":1174:1183  callCount */\n      0x08\n      0x00\n        /* \"Dapp/MoneyTransfer.sol\":1174:1188  callCount += 1 */\n      dup3\n      dup3\n      sload\n      tag_85\n      swap2\n      swap1\n      tag_72\n      jump\t// in\n    tag_85:\n      swap3\n      pop\n      pop\n      dup2\n      swap1\n      sstore\n      pop\n        /* \"Dapp/MoneyTransfer.sol\":1244:1245  0 */\n      0x00\n        /* \"Dapp/MoneyTransfer.sol\":1231:1241  TotalFunds */\n      sload(0x01)\n        /* \"Dapp/MoneyTransfer.sol\":1231:1245  TotalFunds > 0 */\n      gt\n        /* \"Dapp/MoneyTransfer.sol\":1231:1268  TotalFunds > 0 && TotalFunds > amount */\n      dup1\n      iszero\n      tag_86\n      jumpi\n      pop\n        /* \"Dapp/MoneyTransfer.sol\":1262:1268  amount */\n      sload(0x00)\n        /* \"Dapp/MoneyTransfer.sol\":1249:1259  TotalFunds */\n      sload(0x01)\n        /* \"Dapp/MoneyTransfer.sol\":1249:1268  TotalFunds > amount */\n      gt\n        /* \"Dapp/MoneyTransfer.sol\":1231:1268  TotalFunds > 0 && TotalFunds > amount */\n    tag_86:\n        /* \"Dapp/MoneyTransfer.sol\":1228:1606  if(TotalFunds > 0 && TotalFunds > amount){... */\n      iszero\n      tag_87\n      jumpi\n        /* \"Dapp/MoneyTransfer.sol\":1306:1312  amount */\n      sload(0x00)\n        /* \"Dapp/MoneyTransfer.sol\":1292:1302  TotalFunds */\n      0x01\n      0x00\n        /* \"Dapp/MoneyTransfer.sol\":1292:1312  TotalFunds -= amount */\n      dup3\n      dup3\n      sload\n      tag_88\n      swap2\n      swap1\n      tag_89\n      jump\t// in\n    tag_88:\n      swap3\n      pop\n      pop\n      dup2\n      swap1\n      sstore\n      pop\n        /* \"Dapp/MoneyTransfer.sol\":1350:1356  amount */\n      sload(0x00)\n        /* \"Dapp/MoneyTransfer.sol\":1335:1346  TotalAmount */\n      0x06\n      0x00\n        /* \"Dapp/MoneyTransfer.sol\":1335:1356  TotalAmount += amount */\n      dup3\n      dup3\n      sload\n      tag_90\n      swap2\n      swap1\n      tag_72\n      jump\t// in\n    tag_90:\n      swap3\n      pop\n      pop\n      dup2\n      swap1\n      sstore\n      pop\n        /* \"Dapp/MoneyTransfer.sol\":1401:1431  message = \"Transfer completed\" */\n      mload(0x40)\n      dup1\n      0x40\n      add\n      0x40\n      mstore\n      dup1\n      0x12\n      dup2\n      mstore\n      0x20\n      add\n      0x5472616e7366657220636f6d706c657465640000000000000000000000000000\n      dup2\n      mstore\n      pop\n        /* \"Dapp/MoneyTransfer.sol\":1401:1408  message */\n      0x03\n        /* \"Dapp/MoneyTransfer.sol\":1401:1431  message = \"Transfer completed\" */\n      swap1\n      dup2\n      tag_91\n      swap2\n      swap1\n      tag_92\n      jump\t// in\n    tag_91:\n      pop\n        /* \"Dapp/MoneyTransfer.sol\":1228:1606  if(TotalFunds > 0 && TotalFunds > amount){... */\n      jump(tag_93)\n    tag_87:\n        /* \"Dapp/MoneyTransfer.sol\":1559:1585  revert(\"Not enough funds\") */\n      mload(0x40)\n      0x08c379a000000000000000000000000000000000000000000000000000000000\n      dup2\n      mstore\n      0x04\n      add\n      tag_94\n      swap1\n      tag_95\n      jump\t// in\n    tag_94:\n      mload(0x40)\n      dup1\n      swap2\n      sub\n      swap1\n      revert\n        /* \"Dapp/MoneyTransfer.sol\":1228:1606  if(TotalFunds > 0 && TotalFunds > amount){... */\n    tag_93:\n        /* \"Dapp/MoneyTransfer.sol\":840:1648  function sendMoney( uint _amount, address _receiver) public m_validAddress(_receiver) m_ifCardExists m_transferLimit{... */\n      pop\n      pop\n      pop\n      jump\t// out\n        /* \"Dapp/MoneyTransfer.sol\":538:567  uint public firstTransferTime */\n    tag_23:\n      sload(0x07)\n      dup2\n      jump\t// out\n        /* \"Dapp/MoneyTransfer.sol\":1656:1921  function setCard(string memory _cardNumber, string memory _cvv) public  m_checkCard {... */\n    tag_29:\n        /* \"Dapp/MoneyTransfer.sol\":1770:1781  _cardNumber */\n      dup2\n        /* \"Dapp/MoneyTransfer.sol\":1757:1767  cardNumber */\n      0x04\n        /* \"Dapp/MoneyTransfer.sol\":1757:1781  cardNumber = _cardNumber */\n      swap1\n      dup2\n      tag_98\n      swap2\n      swap1\n      tag_92\n      jump\t// in\n    tag_98:\n      pop\n        /* \"Dapp/MoneyTransfer.sol\":1802:1806  _cvv */\n      dup1\n        /* \"Dapp/MoneyTransfer.sol\":1796:1799  cvv */\n      0x05\n        /* \"Dapp/MoneyTransfer.sol\":1796:1806  cvv = _cvv */\n      swap1\n      dup2\n      tag_99\n      swap2\n      swap1\n      tag_92\n      jump\t// in\n    tag_99:\n      pop\n        /* \"Dapp/MoneyTransfer.sol\":1854:1858  true */\n      0x01\n        /* \"Dapp/MoneyTransfer.sol\":1840:1851  callPutCard */\n      0x09\n      0x00\n        /* \"Dapp/MoneyTransfer.sol\":1840:1858  callPutCard = true */\n      0x0100\n      exp\n      dup2\n      sload\n      dup2\n      0xff\n      mul\n      not\n      and\n      swap1\n      dup4\n      iszero\n      iszero\n      mul\n      or\n      swap1\n      sstore\n      pop\n        /* \"Dapp/MoneyTransfer.sol\":1896:1911  block.timestamp */\n      timestamp\n        /* \"Dapp/MoneyTransfer.sol\":1876:1893  firstTransferTime */\n      0x07\n        /* \"Dapp/MoneyTransfer.sol\":1876:1911  firstTransferTime = block.timestamp */\n      dup2\n      swap1\n      sstore\n      pop\n        /* \"Dapp/MoneyTransfer.sol\":2428:2429  8 */\n      0x08\n        /* \"Dapp/MoneyTransfer.sol\":2406:2416  cardNumber */\n      0x04\n        /* \"Dapp/MoneyTransfer.sol\":2400:2424  bytes(cardNumber).length */\n      dup1\n      sload\n      tag_100\n      swap1\n      tag_101\n      jump\t// in\n    tag_100:\n      swap1\n      pop\n        /* \"Dapp/MoneyTransfer.sol\":2400:2429  bytes(cardNumber).length == 8 */\n      eq\n        /* \"Dapp/MoneyTransfer.sol\":2400:2455  bytes(cardNumber).length == 8 && bytes(cvv).length == 3 */\n      dup1\n      iszero\n      tag_102\n      jumpi\n      pop\n        /* \"Dapp/MoneyTransfer.sol\":2454:2455  3 */\n      0x03\n        /* \"Dapp/MoneyTransfer.sol\":2439:2442  cvv */\n      0x05\n        /* \"Dapp/MoneyTransfer.sol\":2433:2450  bytes(cvv).length */\n      dup1\n      sload\n      tag_103\n      swap1\n      tag_101\n      jump\t// in\n    tag_103:\n      swap1\n      pop\n        /* \"Dapp/MoneyTransfer.sol\":2433:2455  bytes(cvv).length == 3 */\n      eq\n        /* \"Dapp/MoneyTransfer.sol\":2400:2455  bytes(cardNumber).length == 8 && bytes(cvv).length == 3 */\n    tag_102:\n        /* \"Dapp/MoneyTransfer.sol\":2392:2480  require(bytes(cardNumber).length == 8 && bytes(cvv).length == 3, \"No valid credit card\") */\n      tag_104\n      jumpi\n      mload(0x40)\n      0x08c379a000000000000000000000000000000000000000000000000000000000\n      dup2\n      mstore\n      0x04\n      add\n      tag_105\n      swap1\n      tag_106\n      jump\t// in\n    tag_105:\n      mload(0x40)\n      dup1\n      swap2\n      sub\n      swap1\n      revert\n    tag_104:\n        /* \"Dapp/MoneyTransfer.sol\":1656:1921  function setCard(string memory _cardNumber, string memory _cvv) public  m_checkCard {... */\n      pop\n      pop\n      jump\t// out\n        /* \"Dapp/MoneyTransfer.sol\":799:830  bool public callPutCard = false */\n    tag_31:\n      0x09\n      0x00\n      swap1\n      sload\n      swap1\n      0x0100\n      exp\n      swap1\n      div\n      0xff\n      and\n      dup2\n      jump\t// out\n        /* \"Dapp/MoneyTransfer.sol\":484:501  string public cvv */\n    tag_35:\n      0x05\n      dup1\n      sload\n      tag_107\n      swap1\n      tag_101\n      jump\t// in\n    tag_107:\n      dup1\n      0x1f\n      add\n      0x20\n      dup1\n      swap2\n      div\n      mul\n      0x20\n      add\n      mload(0x40)\n      swap1\n      dup2\n      add\n      0x40\n      mstore\n      dup1\n      swap3\n      swap2\n      swap1\n      dup2\n      dup2\n      mstore\n      0x20\n      add\n      dup3\n      dup1\n      sload\n      tag_108\n      swap1\n      tag_101\n      jump\t// in\n    tag_108:\n      dup1\n      iszero\n      tag_109\n      jumpi\n      dup1\n      0x1f\n      lt\n      tag_110\n      jumpi\n      0x0100\n      dup1\n      dup4\n      sload\n      div\n      mul\n      dup4\n      mstore\n      swap2\n      0x20\n      add\n      swap2\n      jump(tag_109)\n    tag_110:\n      dup3\n      add\n      swap2\n      swap1\n      0x00\n      mstore\n      keccak256(0x00, 0x20)\n      swap1\n    tag_111:\n      dup2\n      sload\n      dup2\n      mstore\n      swap1\n      0x01\n      add\n      swap1\n      0x20\n      add\n      dup1\n      dup4\n      gt\n      tag_111\n      jumpi\n      dup3\n      swap1\n      sub\n      0x1f\n      and\n      dup3\n      add\n      swap2\n    tag_109:\n      pop\n      pop\n      pop\n      pop\n      pop\n      dup2\n      jump\t// out\n        /* \"Dapp/MoneyTransfer.sol\":766:791  uint public callCount = 0 */\n    tag_39:\n      sload(0x08)\n      dup2\n      jump\t// out\n        /* \"Dapp/MoneyTransfer.sol\":4028:4114  function getTime()public view returns(uint ){... */\n    tag_42:\n        /* \"Dapp/MoneyTransfer.sol\":4066:4070  uint */\n      0x00\n        /* \"Dapp/MoneyTransfer.sol\":4091:4106  block.timestamp */\n      timestamp\n        /* \"Dapp/MoneyTransfer.sol\":4083:4106  return  block.timestamp */\n      swap1\n      pop\n        /* \"Dapp/MoneyTransfer.sol\":4028:4114  function getTime()public view returns(uint ){... */\n      swap1\n      jump\t// out\n        /* \"Dapp/MoneyTransfer.sol\":134:159  uint256 public TotalFunds */\n    tag_45:\n      sload(0x01)\n      dup2\n      jump\t// out\n        /* \"Dapp/MoneyTransfer.sol\":508:534  uint256 public TotalAmount */\n    tag_48:\n      sload(0x06)\n      dup2\n      jump\t// out\n        /* \"Dapp/MoneyTransfer.sol\":1942:2011  function getOutCard() public  {... */\n    tag_51:\n        /* \"Dapp/MoneyTransfer.sol\":1996:2001  false */\n      0x00\n        /* \"Dapp/MoneyTransfer.sol\":1982:1993  callPutCard */\n      0x09\n      0x00\n        /* \"Dapp/MoneyTransfer.sol\":1982:2001  callPutCard = false */\n      0x0100\n      exp\n      dup2\n      sload\n      dup2\n      0xff\n      mul\n      not\n      and\n      swap1\n      dup4\n      iszero\n      iszero\n      mul\n      or\n      swap1\n      sstore\n      pop\n        /* \"Dapp/MoneyTransfer.sol\":1942:2011  function getOutCard() public  {... */\n      jump\t// out\n        /* \"Dapp/MoneyTransfer.sol\":452:476  string public cardNumber */\n    tag_53:\n      0x04\n      dup1\n      sload\n      tag_114\n      swap1\n      tag_101\n      jump\t// in\n    tag_114:\n      dup1\n      0x1f\n      add\n      0x20\n      dup1\n      swap2\n      div\n      mul\n      0x20\n      add\n      mload(0x40)\n      swap1\n      dup2\n      add\n      0x40\n      mstore\n      dup1\n      swap3\n      swap2\n      swap1\n      dup2\n      dup2\n      mstore\n      0x20\n      add\n      dup3\n      dup1\n      sload\n      tag_115\n      swap1\n      tag_101\n      jump\t// in\n    tag_115:\n      dup1\n      iszero\n      tag_116\n      jumpi\n      dup1\n      0x1f\n      lt\n      tag_117\n      jumpi\n      0x0100\n      dup1\n      dup4\n      sload\n      div\n      mul\n      dup4\n      mstore\n      swap2\n      0x20\n      add\n      swap2\n      jump(tag_116)\n    tag_117:\n      dup3\n      add\n      swap2\n      swap1\n      0x00\n      mstore\n      keccak256(0x00, 0x20)\n      swap1\n    tag_118:\n      dup2\n      sload\n      dup2\n      mstore\n      swap1\n      0x01\n      add\n      swap1\n      0x20\n      add\n      dup1\n      dup4\n      gt\n      tag_118\n      jumpi\n      dup3\n      swap1\n      sub\n      0x1f\n      and\n      dup3\n      add\n      swap2\n    tag_116:\n      pop\n      pop\n      pop\n      pop\n      pop\n      dup2\n      jump\t// out\n        /* \"Dapp/MoneyTransfer.sol\":106:127  uint256 public amount */\n    tag_56:\n      sload(0x00)\n      dup2\n      jump\t// out\n        /* \"Dapp/MoneyTransfer.sol\":424:445  string public message */\n    tag_59:\n      0x03\n      dup1\n      sload\n      tag_119\n      swap1\n      tag_101\n      jump\t// in\n    tag_119:\n      dup1\n      0x1f\n      add\n      0x20\n      dup1\n      swap2\n      div\n      mul\n      0x20\n      add\n      mload(0x40)\n      swap1\n      dup2\n      add\n      0x40\n      mstore\n      dup1\n      swap3\n      swap2\n      swap1\n      dup2\n      dup2\n      mstore\n      0x20\n      add\n      dup3\n      dup1\n      sload\n      tag_120\n      swap1\n      tag_101\n      jump\t// in\n    tag_120:\n      dup1\n      iszero\n      tag_121\n      jumpi\n      dup1\n      0x1f\n      lt\n      tag_122\n      jumpi\n      0x0100\n      dup1\n      dup4\n      sload\n      div\n      mul\n      dup4\n      mstore\n      swap2\n      0x20\n      add\n      swap2\n      jump(tag_121)\n    tag_122:\n      dup3\n      add\n      swap2\n      swap1\n      0x00\n      mstore\n      keccak256(0x00, 0x20)\n      swap1\n    tag_123:\n      dup2\n      sload\n      dup2\n      mstore\n      swap1\n      0x01\n      add\n      swap1\n      0x20\n      add\n      dup1\n      dup4\n      gt\n      tag_123\n      jumpi\n      dup3\n      swap1\n      sub\n      0x1f\n      and\n      dup3\n      add\n      swap2\n    tag_121:\n      pop\n      pop\n      pop\n      pop\n      pop\n      dup2\n      jump\t// out\n        /* \"#utility.yul\":7:82   */\n    tag_124:\n        /* \"#utility.yul\":40:46   */\n      0x00\n        /* \"#utility.yul\":73:75   */\n      0x40\n        /* \"#utility.yul\":67:76   */\n      mload\n        /* \"#utility.yul\":57:76   */\n      swap1\n      pop\n        /* \"#utility.yul\":7:82   */\n      swap1\n      jump\t// out\n        /* \"#utility.yul\":88:205   */\n    tag_125:\n        /* \"#utility.yul\":197:198   */\n      0x00\n        /* \"#utility.yul\":194:195   */\n      dup1\n        /* \"#utility.yul\":187:199   */\n      revert\n        /* \"#utility.yul\":211:328   */\n    tag_126:\n        /* \"#utility.yul\":320:321   */\n      0x00\n        /* \"#utility.yul\":317:318   */\n      dup1\n        /* \"#utility.yul\":310:322   */\n      revert\n        /* \"#utility.yul\":334:411   */\n    tag_127:\n        /* \"#utility.yul\":371:378   */\n      0x00\n        /* \"#utility.yul\":400:405   */\n      dup2\n        /* \"#utility.yul\":389:405   */\n      swap1\n      pop\n        /* \"#utility.yul\":334:411   */\n      swap2\n      swap1\n      pop\n      jump\t// out\n        /* \"#utility.yul\":417:539   */\n    tag_128:\n        /* \"#utility.yul\":490:514   */\n      tag_184\n        /* \"#utility.yul\":508:513   */\n      dup2\n        /* \"#utility.yul\":490:514   */\n      tag_127\n      jump\t// in\n    tag_184:\n        /* \"#utility.yul\":483:488   */\n      dup2\n        /* \"#utility.yul\":480:515   */\n      eq\n        /* \"#utility.yul\":470:533   */\n      tag_185\n      jumpi\n        /* \"#utility.yul\":529:530   */\n      0x00\n        /* \"#utility.yul\":526:527   */\n      dup1\n        /* \"#utility.yul\":519:531   */\n      revert\n        /* \"#utility.yul\":470:533   */\n    tag_185:\n        /* \"#utility.yul\":417:539   */\n      pop\n      jump\t// out\n        /* \"#utility.yul\":545:684   */\n    tag_129:\n        /* \"#utility.yul\":591:596   */\n      0x00\n        /* \"#utility.yul\":629:635   */\n      dup2\n        /* \"#utility.yul\":616:636   */\n      calldataload\n        /* \"#utility.yul\":607:636   */\n      swap1\n      pop\n        /* \"#utility.yul\":645:678   */\n      tag_187\n        /* \"#utility.yul\":672:677   */\n      dup2\n        /* \"#utility.yul\":645:678   */\n      tag_128\n      jump\t// in\n    tag_187:\n        /* \"#utility.yul\":545:684   */\n      swap3\n      swap2\n      pop\n      pop\n      jump\t// out\n        /* \"#utility.yul\":690:816   */\n    tag_130:\n        /* \"#utility.yul\":727:734   */\n      0x00\n        /* \"#utility.yul\":767:809   */\n      0xffffffffffffffffffffffffffffffffffffffff\n        /* \"#utility.yul\":760:765   */\n      dup3\n        /* \"#utility.yul\":756:810   */\n      and\n        /* \"#utility.yul\":745:810   */\n      swap1\n      pop\n        /* \"#utility.yul\":690:816   */\n      swap2\n      swap1\n      pop\n      jump\t// out\n        /* \"#utility.yul\":822:918   */\n    tag_131:\n        /* \"#utility.yul\":859:866   */\n      0x00\n        /* \"#utility.yul\":888:912   */\n      tag_190\n        /* \"#utility.yul\":906:911   */\n      dup3\n        /* \"#utility.yul\":888:912   */\n      tag_130\n      jump\t// in\n    tag_190:\n        /* \"#utility.yul\":877:912   */\n      swap1\n      pop\n        /* \"#utility.yul\":822:918   */\n      swap2\n      swap1\n      pop\n      jump\t// out\n        /* \"#utility.yul\":924:1046   */\n    tag_132:\n        /* \"#utility.yul\":997:1021   */\n      tag_192\n        /* \"#utility.yul\":1015:1020   */\n      dup2\n        /* \"#utility.yul\":997:1021   */\n      tag_131\n      jump\t// in\n    tag_192:\n        /* \"#utility.yul\":990:995   */\n      dup2\n        /* \"#utility.yul\":987:1022   */\n      eq\n        /* \"#utility.yul\":977:1040   */\n      tag_193\n      jumpi\n        /* \"#utility.yul\":1036:1037   */\n      0x00\n        /* \"#utility.yul\":1033:1034   */\n      dup1\n        /* \"#utility.yul\":1026:1038   */\n      revert\n        /* \"#utility.yul\":977:1040   */\n    tag_193:\n        /* \"#utility.yul\":924:1046   */\n      pop\n      jump\t// out\n        /* \"#utility.yul\":1052:1191   */\n    tag_133:\n        /* \"#utility.yul\":1098:1103   */\n      0x00\n        /* \"#utility.yul\":1136:1142   */\n      dup2\n        /* \"#utility.yul\":1123:1143   */\n      calldataload\n        /* \"#utility.yul\":1114:1143   */\n      swap1\n      pop\n        /* \"#utility.yul\":1152:1185   */\n      tag_195\n        /* \"#utility.yul\":1179:1184   */\n      dup2\n        /* \"#utility.yul\":1152:1185   */\n      tag_132\n      jump\t// in\n    tag_195:\n        /* \"#utility.yul\":1052:1191   */\n      swap3\n      swap2\n      pop\n      pop\n      jump\t// out\n        /* \"#utility.yul\":1197:1671   */\n    tag_20:\n        /* \"#utility.yul\":1265:1271   */\n      0x00\n        /* \"#utility.yul\":1273:1279   */\n      dup1\n        /* \"#utility.yul\":1322:1324   */\n      0x40\n        /* \"#utility.yul\":1310:1319   */\n      dup4\n        /* \"#utility.yul\":1301:1308   */\n      dup6\n        /* \"#utility.yul\":1297:1320   */\n      sub\n        /* \"#utility.yul\":1293:1325   */\n      slt\n        /* \"#utility.yul\":1290:1409   */\n      iszero\n      tag_197\n      jumpi\n        /* \"#utility.yul\":1328:1407   */\n      tag_198\n      tag_125\n      jump\t// in\n    tag_198:\n        /* \"#utility.yul\":1290:1409   */\n    tag_197:\n        /* \"#utility.yul\":1448:1449   */\n      0x00\n        /* \"#utility.yul\":1473:1526   */\n      tag_199\n        /* \"#utility.yul\":1518:1525   */\n      dup6\n        /* \"#utility.yul\":1509:1515   */\n      dup3\n        /* \"#utility.yul\":1498:1507   */\n      dup7\n        /* \"#utility.yul\":1494:1516   */\n      add\n        /* \"#utility.yul\":1473:1526   */\n      tag_129\n      jump\t// in\n    tag_199:\n        /* \"#utility.yul\":1463:1526   */\n      swap3\n      pop\n        /* \"#utility.yul\":1419:1536   */\n      pop\n        /* \"#utility.yul\":1575:1577   */\n      0x20\n        /* \"#utility.yul\":1601:1654   */\n      tag_200\n        /* \"#utility.yul\":1646:1653   */\n      dup6\n        /* \"#utility.yul\":1637:1643   */\n      dup3\n        /* \"#utility.yul\":1626:1635   */\n      dup7\n        /* \"#utility.yul\":1622:1644   */\n      add\n        /* \"#utility.yul\":1601:1654   */\n      tag_133\n      jump\t// in\n    tag_200:\n        /* \"#utility.yul\":1591:1654   */\n      swap2\n      pop\n        /* \"#utility.yul\":1546:1664   */\n      pop\n        /* \"#utility.yul\":1197:1671   */\n      swap3\n      pop\n      swap3\n      swap1\n      pop\n      jump\t// out\n        /* \"#utility.yul\":1677:1795   */\n    tag_134:\n        /* \"#utility.yul\":1764:1788   */\n      tag_202\n        /* \"#utility.yul\":1782:1787   */\n      dup2\n        /* \"#utility.yul\":1764:1788   */\n      tag_127\n      jump\t// in\n    tag_202:\n        /* \"#utility.yul\":1759:1762   */\n      dup3\n        /* \"#utility.yul\":1752:1789   */\n      mstore\n        /* \"#utility.yul\":1677:1795   */\n      pop\n      pop\n      jump\t// out\n        /* \"#utility.yul\":1801:2023   */\n    tag_25:\n        /* \"#utility.yul\":1894:1898   */\n      0x00\n        /* \"#utility.yul\":1932:1934   */\n      0x20\n        /* \"#utility.yul\":1921:1930   */\n      dup3\n        /* \"#utility.yul\":1917:1935   */\n      add\n        /* \"#utility.yul\":1909:1935   */\n      swap1\n      pop\n        /* \"#utility.yul\":1945:2016   */\n      tag_204\n        /* \"#utility.yul\":2013:2014   */\n      0x00\n        /* \"#utility.yul\":2002:2011   */\n      dup4\n        /* \"#utility.yul\":1998:2015   */\n      add\n        /* \"#utility.yul\":1989:1995   */\n      dup5\n        /* \"#utility.yul\":1945:2016   */\n      tag_134\n      jump\t// in\n    tag_204:\n        /* \"#utility.yul\":1801:2023   */\n      swap3\n      swap2\n      pop\n      pop\n      jump\t// out\n        /* \"#utility.yul\":2029:2146   */\n    tag_135:\n        /* \"#utility.yul\":2138:2139   */\n      0x00\n        /* \"#utility.yul\":2135:2136   */\n      dup1\n        /* \"#utility.yul\":2128:2140   */\n      revert\n        /* \"#utility.yul\":2152:2269   */\n    tag_136:\n        /* \"#utility.yul\":2261:2262   */\n      0x00\n        /* \"#utility.yul\":2258:2259   */\n      dup1\n        /* \"#utility.yul\":2251:2263   */\n      revert\n        /* \"#utility.yul\":2275:2377   */\n    tag_137:\n        /* \"#utility.yul\":2316:2322   */\n      0x00\n        /* \"#utility.yul\":2367:2369   */\n      0x1f\n        /* \"#utility.yul\":2363:2370   */\n      not\n        /* \"#utility.yul\":2358:2360   */\n      0x1f\n        /* \"#utility.yul\":2351:2356   */\n      dup4\n        /* \"#utility.yul\":2347:2361   */\n      add\n        /* \"#utility.yul\":2343:2371   */\n      and\n        /* \"#utility.yul\":2333:2371   */\n      swap1\n      pop\n        /* \"#utility.yul\":2275:2377   */\n      swap2\n      swap1\n      pop\n      jump\t// out\n        /* \"#utility.yul\":2383:2563   */\n    tag_138:\n        /* \"#utility.yul\":2431:2508   */\n      0x4e487b7100000000000000000000000000000000000000000000000000000000\n        /* \"#utility.yul\":2428:2429   */\n      0x00\n        /* \"#utility.yul\":2421:2509   */\n      mstore\n        /* \"#utility.yul\":2528:2532   */\n      0x41\n        /* \"#utility.yul\":2525:2526   */\n      0x04\n        /* \"#utility.yul\":2518:2533   */\n      mstore\n        /* \"#utility.yul\":2552:2556   */\n      0x24\n        /* \"#utility.yul\":2549:2550   */\n      0x00\n        /* \"#utility.yul\":2542:2557   */\n      revert\n        /* \"#utility.yul\":2569:2850   */\n    tag_139:\n        /* \"#utility.yul\":2652:2679   */\n      tag_210\n        /* \"#utility.yul\":2674:2678   */\n      dup3\n        /* \"#utility.yul\":2652:2679   */\n      tag_137\n      jump\t// in\n    tag_210:\n        /* \"#utility.yul\":2644:2650   */\n      dup2\n        /* \"#utility.yul\":2640:2680   */\n      add\n        /* \"#utility.yul\":2782:2788   */\n      dup2\n        /* \"#utility.yul\":2770:2780   */\n      dup2\n        /* \"#utility.yul\":2767:2789   */\n      lt\n        /* \"#utility.yul\":2746:2764   */\n      0xffffffffffffffff\n        /* \"#utility.yul\":2734:2744   */\n      dup3\n        /* \"#utility.yul\":2731:2765   */\n      gt\n        /* \"#utility.yul\":2728:2790   */\n      or\n        /* \"#utility.yul\":2725:2813   */\n      iszero\n      tag_211\n      jumpi\n        /* \"#utility.yul\":2793:2811   */\n      tag_212\n      tag_138\n      jump\t// in\n    tag_212:\n        /* \"#utility.yul\":2725:2813   */\n    tag_211:\n        /* \"#utility.yul\":2833:2843   */\n      dup1\n        /* \"#utility.yul\":2829:2831   */\n      0x40\n        /* \"#utility.yul\":2822:2844   */\n      mstore\n        /* \"#utility.yul\":2612:2850   */\n      pop\n        /* \"#utility.yul\":2569:2850   */\n      pop\n      pop\n      jump\t// out\n        /* \"#utility.yul\":2856:2985   */\n    tag_140:\n        /* \"#utility.yul\":2890:2896   */\n      0x00\n        /* \"#utility.yul\":2917:2937   */\n      tag_214\n      tag_124\n      jump\t// in\n    tag_214:\n        /* \"#utility.yul\":2907:2937   */\n      swap1\n      pop\n        /* \"#utility.yul\":2946:2979   */\n      tag_215\n        /* \"#utility.yul\":2974:2978   */\n      dup3\n        /* \"#utility.yul\":2966:2972   */\n      dup3\n        /* \"#utility.yul\":2946:2979   */\n      tag_139\n      jump\t// in\n    tag_215:\n        /* \"#utility.yul\":2856:2985   */\n      swap2\n      swap1\n      pop\n      jump\t// out\n        /* \"#utility.yul\":2991:3299   */\n    tag_141:\n        /* \"#utility.yul\":3053:3057   */\n      0x00\n        /* \"#utility.yul\":3143:3161   */\n      0xffffffffffffffff\n        /* \"#utility.yul\":3135:3141   */\n      dup3\n        /* \"#utility.yul\":3132:3162   */\n      gt\n        /* \"#utility.yul\":3129:3185   */\n      iszero\n      tag_217\n      jumpi\n        /* \"#utility.yul\":3165:3183   */\n      tag_218\n      tag_138\n      jump\t// in\n    tag_218:\n        /* \"#utility.yul\":3129:3185   */\n    tag_217:\n        /* \"#utility.yul\":3203:3232   */\n      tag_219\n        /* \"#utility.yul\":3225:3231   */\n      dup3\n        /* \"#utility.yul\":3203:3232   */\n      tag_137\n      jump\t// in\n    tag_219:\n        /* \"#utility.yul\":3195:3232   */\n      swap1\n      pop\n        /* \"#utility.yul\":3287:3291   */\n      0x20\n        /* \"#utility.yul\":3281:3285   */\n      dup2\n        /* \"#utility.yul\":3277:3292   */\n      add\n        /* \"#utility.yul\":3269:3292   */\n      swap1\n      pop\n        /* \"#utility.yul\":2991:3299   */\n      swap2\n      swap1\n      pop\n      jump\t// out\n        /* \"#utility.yul\":3305:3451   */\n    tag_142:\n        /* \"#utility.yul\":3402:3408   */\n      dup3\n        /* \"#utility.yul\":3397:3400   */\n      dup2\n        /* \"#utility.yul\":3392:3395   */\n      dup4\n        /* \"#utility.yul\":3379:3409   */\n      calldatacopy\n        /* \"#utility.yul\":3443:3444   */\n      0x00\n        /* \"#utility.yul\":3434:3440   */\n      dup4\n        /* \"#utility.yul\":3429:3432   */\n      dup4\n        /* \"#utility.yul\":3425:3441   */\n      add\n        /* \"#utility.yul\":3418:3445   */\n      mstore\n        /* \"#utility.yul\":3305:3451   */\n      pop\n      pop\n      pop\n      jump\t// out\n        /* \"#utility.yul\":3457:3882   */\n    tag_143:\n        /* \"#utility.yul\":3535:3540   */\n      0x00\n        /* \"#utility.yul\":3560:3626   */\n      tag_222\n        /* \"#utility.yul\":3576:3625   */\n      tag_223\n        /* \"#utility.yul\":3618:3624   */\n      dup5\n        /* \"#utility.yul\":3576:3625   */\n      tag_141\n      jump\t// in\n    tag_223:\n        /* \"#utility.yul\":3560:3626   */\n      tag_140\n      jump\t// in\n    tag_222:\n        /* \"#utility.yul\":3551:3626   */\n      swap1\n      pop\n        /* \"#utility.yul\":3649:3655   */\n      dup3\n        /* \"#utility.yul\":3642:3647   */\n      dup2\n        /* \"#utility.yul\":3635:3656   */\n      mstore\n        /* \"#utility.yul\":3687:3691   */\n      0x20\n        /* \"#utility.yul\":3680:3685   */\n      dup2\n        /* \"#utility.yul\":3676:3692   */\n      add\n        /* \"#utility.yul\":3725:3728   */\n      dup5\n        /* \"#utility.yul\":3716:3722   */\n      dup5\n        /* \"#utility.yul\":3711:3714   */\n      dup5\n        /* \"#utility.yul\":3707:3723   */\n      add\n        /* \"#utility.yul\":3704:3729   */\n      gt\n        /* \"#utility.yul\":3701:3813   */\n      iszero\n      tag_224\n      jumpi\n        /* \"#utility.yul\":3732:3811   */\n      tag_225\n      tag_136\n      jump\t// in\n    tag_225:\n        /* \"#utility.yul\":3701:3813   */\n    tag_224:\n        /* \"#utility.yul\":3822:3876   */\n      tag_226\n        /* \"#utility.yul\":3869:3875   */\n      dup5\n        /* \"#utility.yul\":3864:3867   */\n      dup3\n        /* \"#utility.yul\":3859:3862   */\n      dup6\n        /* \"#utility.yul\":3822:3876   */\n      tag_142\n      jump\t// in\n    tag_226:\n        /* \"#utility.yul\":3541:3882   */\n      pop\n        /* \"#utility.yul\":3457:3882   */\n      swap4\n      swap3\n      pop\n      pop\n      pop\n      jump\t// out\n        /* \"#utility.yul\":3902:4242   */\n    tag_144:\n        /* \"#utility.yul\":3958:3963   */\n      0x00\n        /* \"#utility.yul\":4007:4010   */\n      dup3\n        /* \"#utility.yul\":4000:4004   */\n      0x1f\n        /* \"#utility.yul\":3992:3998   */\n      dup4\n        /* \"#utility.yul\":3988:4005   */\n      add\n        /* \"#utility.yul\":3984:4011   */\n      slt\n        /* \"#utility.yul\":3974:4096   */\n      tag_228\n      jumpi\n        /* \"#utility.yul\":4015:4094   */\n      tag_229\n      tag_135\n      jump\t// in\n    tag_229:\n        /* \"#utility.yul\":3974:4096   */\n    tag_228:\n        /* \"#utility.yul\":4132:4138   */\n      dup2\n        /* \"#utility.yul\":4119:4139   */\n      calldataload\n        /* \"#utility.yul\":4157:4236   */\n      tag_230\n        /* \"#utility.yul\":4232:4235   */\n      dup5\n        /* \"#utility.yul\":4224:4230   */\n      dup3\n        /* \"#utility.yul\":4217:4221   */\n      0x20\n        /* \"#utility.yul\":4209:4215   */\n      dup7\n        /* \"#utility.yul\":4205:4222   */\n      add\n        /* \"#utility.yul\":4157:4236   */\n      tag_143\n      jump\t// in\n    tag_230:\n        /* \"#utility.yul\":4148:4236   */\n      swap2\n      pop\n        /* \"#utility.yul\":3964:4242   */\n      pop\n        /* \"#utility.yul\":3902:4242   */\n      swap3\n      swap2\n      pop\n      pop\n      jump\t// out\n        /* \"#utility.yul\":4248:5082   */\n    tag_28:\n        /* \"#utility.yul\":4336:4342   */\n      0x00\n        /* \"#utility.yul\":4344:4350   */\n      dup1\n        /* \"#utility.yul\":4393:4395   */\n      0x40\n        /* \"#utility.yul\":4381:4390   */\n      dup4\n        /* \"#utility.yul\":4372:4379   */\n      dup6\n        /* \"#utility.yul\":4368:4391   */\n      sub\n        /* \"#utility.yul\":4364:4396   */\n      slt\n        /* \"#utility.yul\":4361:4480   */\n      iszero\n      tag_232\n      jumpi\n        /* \"#utility.yul\":4399:4478   */\n      tag_233\n      tag_125\n      jump\t// in\n    tag_233:\n        /* \"#utility.yul\":4361:4480   */\n    tag_232:\n        /* \"#utility.yul\":4547:4548   */\n      0x00\n        /* \"#utility.yul\":4536:4545   */\n      dup4\n        /* \"#utility.yul\":4532:4549   */\n      add\n        /* \"#utility.yul\":4519:4550   */\n      calldataload\n        /* \"#utility.yul\":4577:4595   */\n      0xffffffffffffffff\n        /* \"#utility.yul\":4569:4575   */\n      dup2\n        /* \"#utility.yul\":4566:4596   */\n      gt\n        /* \"#utility.yul\":4563:4680   */\n      iszero\n      tag_234\n      jumpi\n        /* \"#utility.yul\":4599:4678   */\n      tag_235\n      tag_126\n      jump\t// in\n    tag_235:\n        /* \"#utility.yul\":4563:4680   */\n    tag_234:\n        /* \"#utility.yul\":4704:4767   */\n      tag_236\n        /* \"#utility.yul\":4759:4766   */\n      dup6\n        /* \"#utility.yul\":4750:4756   */\n      dup3\n        /* \"#utility.yul\":4739:4748   */\n      dup7\n        /* \"#utility.yul\":4735:4757   */\n      add\n        /* \"#utility.yul\":4704:4767   */\n      tag_144\n      jump\t// in\n    tag_236:\n        /* \"#utility.yul\":4694:4767   */\n      swap3\n      pop\n        /* \"#utility.yul\":4490:4777   */\n      pop\n        /* \"#utility.yul\":4844:4846   */\n      0x20\n        /* \"#utility.yul\":4833:4842   */\n      dup4\n        /* \"#utility.yul\":4829:4847   */\n      add\n        /* \"#utility.yul\":4816:4848   */\n      calldataload\n        /* \"#utility.yul\":4875:4893   */\n      0xffffffffffffffff\n        /* \"#utility.yul\":4867:4873   */\n      dup2\n        /* \"#utility.yul\":4864:4894   */\n      gt\n        /* \"#utility.yul\":4861:4978   */\n      iszero\n      tag_237\n      jumpi\n        /* \"#utility.yul\":4897:4976   */\n      tag_238\n      tag_126\n      jump\t// in\n    tag_238:\n        /* \"#utility.yul\":4861:4978   */\n    tag_237:\n        /* \"#utility.yul\":5002:5065   */\n      tag_239\n        /* \"#utility.yul\":5057:5064   */\n      dup6\n        /* \"#utility.yul\":5048:5054   */\n      dup3\n        /* \"#utility.yul\":5037:5046   */\n      dup7\n        /* \"#utility.yul\":5033:5055   */\n      add\n        /* \"#utility.yul\":5002:5065   */\n      tag_144\n      jump\t// in\n    tag_239:\n        /* \"#utility.yul\":4992:5065   */\n      swap2\n      pop\n        /* \"#utility.yul\":4787:5075   */\n      pop\n        /* \"#utility.yul\":4248:5082   */\n      swap3\n      pop\n      swap3\n      swap1\n      pop\n      jump\t// out\n        /* \"#utility.yul\":5088:5178   */\n    tag_145:\n        /* \"#utility.yul\":5122:5129   */\n      0x00\n        /* \"#utility.yul\":5165:5170   */\n      dup2\n        /* \"#utility.yul\":5158:5171   */\n      iszero\n        /* \"#utility.yul\":5151:5172   */\n      iszero\n        /* \"#utility.yul\":5140:5172   */\n      swap1\n      pop\n        /* \"#utility.yul\":5088:5178   */\n      swap2\n      swap1\n      pop\n      jump\t// out\n        /* \"#utility.yul\":5184:5293   */\n    tag_146:\n        /* \"#utility.yul\":5265:5286   */\n      tag_242\n        /* \"#utility.yul\":5280:5285   */\n      dup2\n        /* \"#utility.yul\":5265:5286   */\n      tag_145\n      jump\t// in\n    tag_242:\n        /* \"#utility.yul\":5260:5263   */\n      dup3\n        /* \"#utility.yul\":5253:5287   */\n      mstore\n        /* \"#utility.yul\":5184:5293   */\n      pop\n      pop\n      jump\t// out\n        /* \"#utility.yul\":5299:5509   */\n    tag_33:\n        /* \"#utility.yul\":5386:5390   */\n      0x00\n        /* \"#utility.yul\":5424:5426   */\n      0x20\n        /* \"#utility.yul\":5413:5422   */\n      dup3\n        /* \"#utility.yul\":5409:5427   */\n      add\n        /* \"#utility.yul\":5401:5427   */\n      swap1\n      pop\n        /* \"#utility.yul\":5437:5502   */\n      tag_244\n        /* \"#utility.yul\":5499:5500   */\n      0x00\n        /* \"#utility.yul\":5488:5497   */\n      dup4\n        /* \"#utility.yul\":5484:5501   */\n      add\n        /* \"#utility.yul\":5475:5481   */\n      dup5\n        /* \"#utility.yul\":5437:5502   */\n      tag_146\n      jump\t// in\n    tag_244:\n        /* \"#utility.yul\":5299:5509   */\n      swap3\n      swap2\n      pop\n      pop\n      jump\t// out\n        /* \"#utility.yul\":5515:5614   */\n    tag_147:\n        /* \"#utility.yul\":5567:5573   */\n      0x00\n        /* \"#utility.yul\":5601:5606   */\n      dup2\n        /* \"#utility.yul\":5595:5607   */\n      mload\n        /* \"#utility.yul\":5585:5607   */\n      swap1\n      pop\n        /* \"#utility.yul\":5515:5614   */\n      swap2\n      swap1\n      pop\n      jump\t// out\n        /* \"#utility.yul\":5620:5789   */\n    tag_148:\n        /* \"#utility.yul\":5704:5715   */\n      0x00\n        /* \"#utility.yul\":5738:5744   */\n      dup3\n        /* \"#utility.yul\":5733:5736   */\n      dup3\n        /* \"#utility.yul\":5726:5745   */\n      mstore\n        /* \"#utility.yul\":5778:5782   */\n      0x20\n        /* \"#utility.yul\":5773:5776   */\n      dup3\n        /* \"#utility.yul\":5769:5783   */\n      add\n        /* \"#utility.yul\":5754:5783   */\n      swap1\n      pop\n        /* \"#utility.yul\":5620:5789   */\n      swap3\n      swap2\n      pop\n      pop\n      jump\t// out\n        /* \"#utility.yul\":5795:6041   */\n    tag_149:\n        /* \"#utility.yul\":5876:5877   */\n      0x00\n        /* \"#utility.yul\":5886:5999   */\n    tag_248:\n        /* \"#utility.yul\":5900:5906   */\n      dup4\n        /* \"#utility.yul\":5897:5898   */\n      dup2\n        /* \"#utility.yul\":5894:5907   */\n      lt\n        /* \"#utility.yul\":5886:5999   */\n      iszero\n      tag_250\n      jumpi\n        /* \"#utility.yul\":5985:5986   */\n      dup1\n        /* \"#utility.yul\":5980:5983   */\n      dup3\n        /* \"#utility.yul\":5976:5987   */\n      add\n        /* \"#utility.yul\":5970:5988   */\n      mload\n        /* \"#utility.yul\":5966:5967   */\n      dup2\n        /* \"#utility.yul\":5961:5964   */\n      dup5\n        /* \"#utility.yul\":5957:5968   */\n      add\n        /* \"#utility.yul\":5950:5989   */\n      mstore\n        /* \"#utility.yul\":5922:5924   */\n      0x20\n        /* \"#utility.yul\":5919:5920   */\n      dup2\n        /* \"#utility.yul\":5915:5925   */\n      add\n        /* \"#utility.yul\":5910:5925   */\n      swap1\n      pop\n        /* \"#utility.yul\":5886:5999   */\n      jump(tag_248)\n    tag_250:\n        /* \"#utility.yul\":6033:6034   */\n      0x00\n        /* \"#utility.yul\":6024:6030   */\n      dup5\n        /* \"#utility.yul\":6019:6022   */\n      dup5\n        /* \"#utility.yul\":6015:6031   */\n      add\n        /* \"#utility.yul\":6008:6035   */\n      mstore\n        /* \"#utility.yul\":5857:6041   */\n      pop\n        /* \"#utility.yul\":5795:6041   */\n      pop\n      pop\n      pop\n      jump\t// out\n        /* \"#utility.yul\":6047:6424   */\n    tag_150:\n        /* \"#utility.yul\":6135:6138   */\n      0x00\n        /* \"#utility.yul\":6163:6202   */\n      tag_252\n        /* \"#utility.yul\":6196:6201   */\n      dup3\n        /* \"#utility.yul\":6163:6202   */\n      tag_147\n      jump\t// in\n    tag_252:\n        /* \"#utility.yul\":6218:6289   */\n      tag_253\n        /* \"#utility.yul\":6282:6288   */\n      dup2\n        /* \"#utility.yul\":6277:6280   */\n      dup6\n        /* \"#utility.yul\":6218:6289   */\n      tag_148\n      jump\t// in\n    tag_253:\n        /* \"#utility.yul\":6211:6289   */\n      swap4\n      pop\n        /* \"#utility.yul\":6298:6363   */\n      tag_254\n        /* \"#utility.yul\":6356:6362   */\n      dup2\n        /* \"#utility.yul\":6351:6354   */\n      dup6\n        /* \"#utility.yul\":6344:6348   */\n      0x20\n        /* \"#utility.yul\":6337:6342   */\n      dup7\n        /* \"#utility.yul\":6333:6349   */\n      add\n        /* \"#utility.yul\":6298:6363   */\n      tag_149\n      jump\t// in\n    tag_254:\n        /* \"#utility.yul\":6388:6417   */\n      tag_255\n        /* \"#utility.yul\":6410:6416   */\n      dup2\n        /* \"#utility.yul\":6388:6417   */\n      tag_137\n      jump\t// in\n    tag_255:\n        /* \"#utility.yul\":6383:6386   */\n      dup5\n        /* \"#utility.yul\":6379:6418   */\n      add\n        /* \"#utility.yul\":6372:6418   */\n      swap2\n      pop\n        /* \"#utility.yul\":6139:6424   */\n      pop\n        /* \"#utility.yul\":6047:6424   */\n      swap3\n      swap2\n      pop\n      pop\n      jump\t// out\n        /* \"#utility.yul\":6430:6743   */\n    tag_37:\n        /* \"#utility.yul\":6543:6547   */\n      0x00\n        /* \"#utility.yul\":6581:6583   */\n      0x20\n        /* \"#utility.yul\":6570:6579   */\n      dup3\n        /* \"#utility.yul\":6566:6584   */\n      add\n        /* \"#utility.yul\":6558:6584   */\n      swap1\n      pop\n        /* \"#utility.yul\":6630:6639   */\n      dup2\n        /* \"#utility.yul\":6624:6628   */\n      dup2\n        /* \"#utility.yul\":6620:6640   */\n      sub\n        /* \"#utility.yul\":6616:6617   */\n      0x00\n        /* \"#utility.yul\":6605:6614   */\n      dup4\n        /* \"#utility.yul\":6601:6618   */\n      add\n        /* \"#utility.yul\":6594:6641   */\n      mstore\n        /* \"#utility.yul\":6658:6736   */\n      tag_257\n        /* \"#utility.yul\":6731:6735   */\n      dup2\n        /* \"#utility.yul\":6722:6728   */\n      dup5\n        /* \"#utility.yul\":6658:6736   */\n      tag_150\n      jump\t// in\n    tag_257:\n        /* \"#utility.yul\":6650:6736   */\n      swap1\n      pop\n        /* \"#utility.yul\":6430:6743   */\n      swap3\n      swap2\n      pop\n      pop\n      jump\t// out\n        /* \"#utility.yul\":6749:6927   */\n    tag_151:\n        /* \"#utility.yul\":6889:6919   */\n      0x2054686973206164647265737320646f65736e27742065786973747300000000\n        /* \"#utility.yul\":6885:6886   */\n      0x00\n        /* \"#utility.yul\":6877:6883   */\n      dup3\n        /* \"#utility.yul\":6873:6887   */\n      add\n        /* \"#utility.yul\":6866:6920   */\n      mstore\n        /* \"#utility.yul\":6749:6927   */\n      pop\n      jump\t// out\n        /* \"#utility.yul\":6933:7299   */\n    tag_152:\n        /* \"#utility.yul\":7075:7078   */\n      0x00\n        /* \"#utility.yul\":7096:7163   */\n      tag_260\n        /* \"#utility.yul\":7160:7162   */\n      0x1c\n        /* \"#utility.yul\":7155:7158   */\n      dup4\n        /* \"#utility.yul\":7096:7163   */\n      tag_148\n      jump\t// in\n    tag_260:\n        /* \"#utility.yul\":7089:7163   */\n      swap2\n      pop\n        /* \"#utility.yul\":7172:7265   */\n      tag_261\n        /* \"#utility.yul\":7261:7264   */\n      dup3\n        /* \"#utility.yul\":7172:7265   */\n      tag_151\n      jump\t// in\n    tag_261:\n        /* \"#utility.yul\":7290:7292   */\n      0x20\n        /* \"#utility.yul\":7285:7288   */\n      dup3\n        /* \"#utility.yul\":7281:7293   */\n      add\n        /* \"#utility.yul\":7274:7293   */\n      swap1\n      pop\n        /* \"#utility.yul\":6933:7299   */\n      swap2\n      swap1\n      pop\n      jump\t// out\n        /* \"#utility.yul\":7305:7724   */\n    tag_64:\n        /* \"#utility.yul\":7471:7475   */\n      0x00\n        /* \"#utility.yul\":7509:7511   */\n      0x20\n        /* \"#utility.yul\":7498:7507   */\n      dup3\n        /* \"#utility.yul\":7494:7512   */\n      add\n        /* \"#utility.yul\":7486:7512   */\n      swap1\n      pop\n        /* \"#utility.yul\":7558:7567   */\n      dup2\n        /* \"#utility.yul\":7552:7556   */\n      dup2\n        /* \"#utility.yul\":7548:7568   */\n      sub\n        /* \"#utility.yul\":7544:7545   */\n      0x00\n        /* \"#utility.yul\":7533:7542   */\n      dup4\n        /* \"#utility.yul\":7529:7546   */\n      add\n        /* \"#utility.yul\":7522:7569   */\n      mstore\n        /* \"#utility.yul\":7586:7717   */\n      tag_263\n        /* \"#utility.yul\":7712:7716   */\n      dup2\n        /* \"#utility.yul\":7586:7717   */\n      tag_152\n      jump\t// in\n    tag_263:\n        /* \"#utility.yul\":7578:7717   */\n      swap1\n      pop\n        /* \"#utility.yul\":7305:7724   */\n      swap2\n      swap1\n      pop\n      jump\t// out\n        /* \"#utility.yul\":7730:7903   */\n    tag_153:\n        /* \"#utility.yul\":7870:7895   */\n      0x506c6561736520696e7365727420796f75722063617264000000000000000000\n        /* \"#utility.yul\":7866:7867   */\n      0x00\n        /* \"#utility.yul\":7858:7864   */\n      dup3\n        /* \"#utility.yul\":7854:7868   */\n      add\n        /* \"#utility.yul\":7847:7896   */\n      mstore\n        /* \"#utility.yul\":7730:7903   */\n      pop\n      jump\t// out\n        /* \"#utility.yul\":7909:8275   */\n    tag_154:\n        /* \"#utility.yul\":8051:8054   */\n      0x00\n        /* \"#utility.yul\":8072:8139   */\n      tag_266\n        /* \"#utility.yul\":8136:8138   */\n      0x17\n        /* \"#utility.yul\":8131:8134   */\n      dup4\n        /* \"#utility.yul\":8072:8139   */\n      tag_148\n      jump\t// in\n    tag_266:\n        /* \"#utility.yul\":8065:8139   */\n      swap2\n      pop\n        /* \"#utility.yul\":8148:8241   */\n      tag_267\n        /* \"#utility.yul\":8237:8240   */\n      dup3\n        /* \"#utility.yul\":8148:8241   */\n      tag_153\n      jump\t// in\n    tag_267:\n        /* \"#utility.yul\":8266:8268   */\n      0x20\n        /* \"#utility.yul\":8261:8264   */\n      dup3\n        /* \"#utility.yul\":8257:8269   */\n      add\n        /* \"#utility.yul\":8250:8269   */\n      swap1\n      pop\n        /* \"#utility.yul\":7909:8275   */\n      swap2\n      swap1\n      pop\n      jump\t// out\n        /* \"#utility.yul\":8281:8700   */\n    tag_68:\n        /* \"#utility.yul\":8447:8451   */\n      0x00\n        /* \"#utility.yul\":8485:8487   */\n      0x20\n        /* \"#utility.yul\":8474:8483   */\n      dup3\n        /* \"#utility.yul\":8470:8488   */\n      add\n        /* \"#utility.yul\":8462:8488   */\n      swap1\n      pop\n        /* \"#utility.yul\":8534:8543   */\n      dup2\n        /* \"#utility.yul\":8528:8532   */\n      dup2\n        /* \"#utility.yul\":8524:8544   */\n      sub\n        /* \"#utility.yul\":8520:8521   */\n      0x00\n        /* \"#utility.yul\":8509:8518   */\n      dup4\n        /* \"#utility.yul\":8505:8522   */\n      add\n        /* \"#utility.yul\":8498:8545   */\n      mstore\n        /* \"#utility.yul\":8562:8693   */\n      tag_269\n        /* \"#utility.yul\":8688:8692   */\n      dup2\n        /* \"#utility.yul\":8562:8693   */\n      tag_154\n      jump\t// in\n    tag_269:\n        /* \"#utility.yul\":8554:8693   */\n      swap1\n      pop\n        /* \"#utility.yul\":8281:8700   */\n      swap2\n      swap1\n      pop\n      jump\t// out\n        /* \"#utility.yul\":8706:8886   */\n    tag_155:\n        /* \"#utility.yul\":8754:8831   */\n      0x4e487b7100000000000000000000000000000000000000000000000000000000\n        /* \"#utility.yul\":8751:8752   */\n      0x00\n        /* \"#utility.yul\":8744:8832   */\n      mstore\n        /* \"#utility.yul\":8851:8855   */\n      0x11\n        /* \"#utility.yul\":8848:8849   */\n      0x04\n        /* \"#utility.yul\":8841:8856   */\n      mstore\n        /* \"#utility.yul\":8875:8879   */\n      0x24\n        /* \"#utility.yul\":8872:8873   */\n      0x00\n        /* \"#utility.yul\":8865:8880   */\n      revert\n        /* \"#utility.yul\":8892:9083   */\n    tag_72:\n        /* \"#utility.yul\":8932:8935   */\n      0x00\n        /* \"#utility.yul\":8951:8971   */\n      tag_272\n        /* \"#utility.yul\":8969:8970   */\n      dup3\n        /* \"#utility.yul\":8951:8971   */\n      tag_127\n      jump\t// in\n    tag_272:\n        /* \"#utility.yul\":8946:8971   */\n      swap2\n      pop\n        /* \"#utility.yul\":8985:9005   */\n      tag_273\n        /* \"#utility.yul\":9003:9004   */\n      dup4\n        /* \"#utility.yul\":8985:9005   */\n      tag_127\n      jump\t// in\n    tag_273:\n        /* \"#utility.yul\":8980:9005   */\n      swap3\n      pop\n        /* \"#utility.yul\":9028:9029   */\n      dup3\n        /* \"#utility.yul\":9025:9026   */\n      dup3\n        /* \"#utility.yul\":9021:9030   */\n      add\n        /* \"#utility.yul\":9014:9030   */\n      swap1\n      pop\n        /* \"#utility.yul\":9049:9052   */\n      dup1\n        /* \"#utility.yul\":9046:9047   */\n      dup3\n        /* \"#utility.yul\":9043:9053   */\n      gt\n        /* \"#utility.yul\":9040:9076   */\n      iszero\n      tag_274\n      jumpi\n        /* \"#utility.yul\":9056:9074   */\n      tag_275\n      tag_155\n      jump\t// in\n    tag_275:\n        /* \"#utility.yul\":9040:9076   */\n    tag_274:\n        /* \"#utility.yul\":8892:9083   */\n      swap3\n      swap2\n      pop\n      pop\n      jump\t// out\n        /* \"#utility.yul\":9089:9269   */\n    tag_76:\n        /* \"#utility.yul\":9137:9214   */\n      0x4e487b7100000000000000000000000000000000000000000000000000000000\n        /* \"#utility.yul\":9134:9135   */\n      0x00\n        /* \"#utility.yul\":9127:9215   */\n      mstore\n        /* \"#utility.yul\":9234:9238   */\n      0x01\n        /* \"#utility.yul\":9231:9232   */\n      0x04\n        /* \"#utility.yul\":9224:9239   */\n      mstore\n        /* \"#utility.yul\":9258:9262   */\n      0x24\n        /* \"#utility.yul\":9255:9256   */\n      0x00\n        /* \"#utility.yul\":9248:9263   */\n      revert\n        /* \"#utility.yul\":9275:9452   */\n    tag_156:\n        /* \"#utility.yul\":9415:9444   */\n      0x6f6e6c792035207472616e73616374696f6e7320706572206461790000000000\n        /* \"#utility.yul\":9411:9412   */\n      0x00\n        /* \"#utility.yul\":9403:9409   */\n      dup3\n        /* \"#utility.yul\":9399:9413   */\n      add\n        /* \"#utility.yul\":9392:9445   */\n      mstore\n        /* \"#utility.yul\":9275:9452   */\n      pop\n      jump\t// out\n        /* \"#utility.yul\":9458:9824   */\n    tag_157:\n        /* \"#utility.yul\":9600:9603   */\n      0x00\n        /* \"#utility.yul\":9621:9688   */\n      tag_279\n        /* \"#utility.yul\":9685:9687   */\n      0x1b\n        /* \"#utility.yul\":9680:9683   */\n      dup4\n        /* \"#utility.yul\":9621:9688   */\n      tag_148\n      jump\t// in\n    tag_279:\n        /* \"#utility.yul\":9614:9688   */\n      swap2\n      pop\n        /* \"#utility.yul\":9697:9790   */\n      tag_280\n        /* \"#utility.yul\":9786:9789   */\n      dup3\n        /* \"#utility.yul\":9697:9790   */\n      tag_156\n      jump\t// in\n    tag_280:\n        /* \"#utility.yul\":9815:9817   */\n      0x20\n        /* \"#utility.yul\":9810:9813   */\n      dup3\n        /* \"#utility.yul\":9806:9818   */\n      add\n        /* \"#utility.yul\":9799:9818   */\n      swap1\n      pop\n        /* \"#utility.yul\":9458:9824   */\n      swap2\n      swap1\n      pop\n      jump\t// out\n        /* \"#utility.yul\":9830:10249   */\n    tag_78:\n        /* \"#utility.yul\":9996:10000   */\n      0x00\n        /* \"#utility.yul\":10034:10036   */\n      0x20\n        /* \"#utility.yul\":10023:10032   */\n      dup3\n        /* \"#utility.yul\":10019:10037   */\n      add\n        /* \"#utility.yul\":10011:10037   */\n      swap1\n      pop\n        /* \"#utility.yul\":10083:10092   */\n      dup2\n        /* \"#utility.yul\":10077:10081   */\n      dup2\n        /* \"#utility.yul\":10073:10093   */\n      sub\n        /* \"#utility.yul\":10069:10070   */\n      0x00\n        /* \"#utility.yul\":10058:10067   */\n      dup4\n        /* \"#utility.yul\":10054:10071   */\n      add\n        /* \"#utility.yul\":10047:10094   */\n      mstore\n        /* \"#utility.yul\":10111:10242   */\n      tag_282\n        /* \"#utility.yul\":10237:10241   */\n      dup2\n        /* \"#utility.yul\":10111:10242   */\n      tag_157\n      jump\t// in\n    tag_282:\n        /* \"#utility.yul\":10103:10242   */\n      swap1\n      pop\n        /* \"#utility.yul\":9830:10249   */\n      swap2\n      swap1\n      pop\n      jump\t// out\n        /* \"#utility.yul\":10255:10449   */\n    tag_89:\n        /* \"#utility.yul\":10295:10299   */\n      0x00\n        /* \"#utility.yul\":10315:10335   */\n      tag_284\n        /* \"#utility.yul\":10333:10334   */\n      dup3\n        /* \"#utility.yul\":10315:10335   */\n      tag_127\n      jump\t// in\n    tag_284:\n        /* \"#utility.yul\":10310:10335   */\n      swap2\n      pop\n        /* \"#utility.yul\":10349:10369   */\n      tag_285\n        /* \"#utility.yul\":10367:10368   */\n      dup4\n        /* \"#utility.yul\":10349:10369   */\n      tag_127\n      jump\t// in\n    tag_285:\n        /* \"#utility.yul\":10344:10369   */\n      swap3\n      pop\n        /* \"#utility.yul\":10393:10394   */\n      dup3\n        /* \"#utility.yul\":10390:10391   */\n      dup3\n        /* \"#utility.yul\":10386:10395   */\n      sub\n        /* \"#utility.yul\":10378:10395   */\n      swap1\n      pop\n        /* \"#utility.yul\":10417:10418   */\n      dup2\n        /* \"#utility.yul\":10411:10415   */\n      dup2\n        /* \"#utility.yul\":10408:10419   */\n      gt\n        /* \"#utility.yul\":10405:10442   */\n      iszero\n      tag_286\n      jumpi\n        /* \"#utility.yul\":10422:10440   */\n      tag_287\n      tag_155\n      jump\t// in\n    tag_287:\n        /* \"#utility.yul\":10405:10442   */\n    tag_286:\n        /* \"#utility.yul\":10255:10449   */\n      swap3\n      swap2\n      pop\n      pop\n      jump\t// out\n        /* \"#utility.yul\":10455:10635   */\n    tag_158:\n        /* \"#utility.yul\":10503:10580   */\n      0x4e487b7100000000000000000000000000000000000000000000000000000000\n        /* \"#utility.yul\":10500:10501   */\n      0x00\n        /* \"#utility.yul\":10493:10581   */\n      mstore\n        /* \"#utility.yul\":10600:10604   */\n      0x22\n        /* \"#utility.yul\":10597:10598   */\n      0x04\n        /* \"#utility.yul\":10590:10605   */\n      mstore\n        /* \"#utility.yul\":10624:10628   */\n      0x24\n        /* \"#utility.yul\":10621:10622   */\n      0x00\n        /* \"#utility.yul\":10614:10629   */\n      revert\n        /* \"#utility.yul\":10641:10961   */\n    tag_101:\n        /* \"#utility.yul\":10685:10691   */\n      0x00\n        /* \"#utility.yul\":10722:10723   */\n      0x02\n        /* \"#utility.yul\":10716:10720   */\n      dup3\n        /* \"#utility.yul\":10712:10724   */\n      div\n        /* \"#utility.yul\":10702:10724   */\n      swap1\n      pop\n        /* \"#utility.yul\":10769:10770   */\n      0x01\n        /* \"#utility.yul\":10763:10767   */\n      dup3\n        /* \"#utility.yul\":10759:10771   */\n      and\n        /* \"#utility.yul\":10790:10808   */\n      dup1\n        /* \"#utility.yul\":10780:10861   */\n      tag_290\n      jumpi\n        /* \"#utility.yul\":10846:10850   */\n      0x7f\n        /* \"#utility.yul\":10838:10844   */\n      dup3\n        /* \"#utility.yul\":10834:10851   */\n      and\n        /* \"#utility.yul\":10824:10851   */\n      swap2\n      pop\n        /* \"#utility.yul\":10780:10861   */\n    tag_290:\n        /* \"#utility.yul\":10908:10910   */\n      0x20\n        /* \"#utility.yul\":10900:10906   */\n      dup3\n        /* \"#utility.yul\":10897:10911   */\n      lt\n        /* \"#utility.yul\":10877:10895   */\n      dup2\n        /* \"#utility.yul\":10874:10912   */\n      sub\n        /* \"#utility.yul\":10871:10955   */\n      tag_291\n      jumpi\n        /* \"#utility.yul\":10927:10945   */\n      tag_292\n      tag_158\n      jump\t// in\n    tag_292:\n        /* \"#utility.yul\":10871:10955   */\n    tag_291:\n        /* \"#utility.yul\":10692:10961   */\n      pop\n        /* \"#utility.yul\":10641:10961   */\n      swap2\n      swap1\n      pop\n      jump\t// out\n        /* \"#utility.yul\":10967:11108   */\n    tag_159:\n        /* \"#utility.yul\":11016:11020   */\n      0x00\n        /* \"#utility.yul\":11039:11042   */\n      dup2\n        /* \"#utility.yul\":11031:11042   */\n      swap1\n      pop\n        /* \"#utility.yul\":11062:11065   */\n      dup2\n        /* \"#utility.yul\":11059:11060   */\n      0x00\n        /* \"#utility.yul\":11052:11066   */\n      mstore\n        /* \"#utility.yul\":11096:11100   */\n      0x20\n        /* \"#utility.yul\":11093:11094   */\n      0x00\n        /* \"#utility.yul\":11083:11101   */\n      keccak256\n        /* \"#utility.yul\":11075:11101   */\n      swap1\n      pop\n        /* \"#utility.yul\":10967:11108   */\n      swap2\n      swap1\n      pop\n      jump\t// out\n        /* \"#utility.yul\":11114:11207   */\n    tag_160:\n        /* \"#utility.yul\":11151:11157   */\n      0x00\n        /* \"#utility.yul\":11198:11200   */\n      0x20\n        /* \"#utility.yul\":11193:11195   */\n      0x1f\n        /* \"#utility.yul\":11186:11191   */\n      dup4\n        /* \"#utility.yul\":11182:11196   */\n      add\n        /* \"#utility.yul\":11178:11201   */\n      div\n        /* \"#utility.yul\":11168:11201   */\n      swap1\n      pop\n        /* \"#utility.yul\":11114:11207   */\n      swap2\n      swap1\n      pop\n      jump\t// out\n        /* \"#utility.yul\":11213:11320   */\n    tag_161:\n        /* \"#utility.yul\":11257:11265   */\n      0x00\n        /* \"#utility.yul\":11307:11312   */\n      dup3\n        /* \"#utility.yul\":11301:11305   */\n      dup3\n        /* \"#utility.yul\":11297:11313   */\n      shl\n        /* \"#utility.yul\":11276:11313   */\n      swap1\n      pop\n        /* \"#utility.yul\":11213:11320   */\n      swap3\n      swap2\n      pop\n      pop\n      jump\t// out\n        /* \"#utility.yul\":11326:11719   */\n    tag_162:\n        /* \"#utility.yul\":11395:11401   */\n      0x00\n        /* \"#utility.yul\":11445:11446   */\n      0x08\n        /* \"#utility.yul\":11433:11443   */\n      dup4\n        /* \"#utility.yul\":11429:11447   */\n      mul\n        /* \"#utility.yul\":11468:11565   */\n      tag_297\n        /* \"#utility.yul\":11498:11564   */\n      0xffffffffffffffffffffffffffffffffffffffffffffffffffffffffffffffff\n        /* \"#utility.yul\":11487:11496   */\n      dup3\n        /* \"#utility.yul\":11468:11565   */\n      tag_161\n      jump\t// in\n    tag_297:\n        /* \"#utility.yul\":11586:11625   */\n      tag_298\n        /* \"#utility.yul\":11616:11624   */\n      dup7\n        /* \"#utility.yul\":11605:11614   */\n      dup4\n        /* \"#utility.yul\":11586:11625   */\n      tag_161\n      jump\t// in\n    tag_298:\n        /* \"#utility.yul\":11574:11625   */\n      swap6\n      pop\n        /* \"#utility.yul\":11658:11662   */\n      dup1\n        /* \"#utility.yul\":11654:11663   */\n      not\n        /* \"#utility.yul\":11647:11652   */\n      dup5\n        /* \"#utility.yul\":11643:11664   */\n      and\n        /* \"#utility.yul\":11634:11664   */\n      swap4\n      pop\n        /* \"#utility.yul\":11707:11711   */\n      dup1\n        /* \"#utility.yul\":11697:11705   */\n      dup7\n        /* \"#utility.yul\":11693:11712   */\n      and\n        /* \"#utility.yul\":11686:11691   */\n      dup5\n        /* \"#utility.yul\":11683:11713   */\n      or\n        /* \"#utility.yul\":11673:11713   */\n      swap3\n      pop\n        /* \"#utility.yul\":11402:11719   */\n      pop\n      pop\n        /* \"#utility.yul\":11326:11719   */\n      swap4\n      swap3\n      pop\n      pop\n      pop\n      jump\t// out\n        /* \"#utility.yul\":11725:11785   */\n    tag_163:\n        /* \"#utility.yul\":11753:11756   */\n      0x00\n        /* \"#utility.yul\":11774:11779   */\n      dup2\n        /* \"#utility.yul\":11767:11779   */\n      swap1\n      pop\n        /* \"#utility.yul\":11725:11785   */\n      swap2\n      swap1\n      pop\n      jump\t// out\n        /* \"#utility.yul\":11791:11933   */\n    tag_164:\n        /* \"#utility.yul\":11841:11850   */\n      0x00\n        /* \"#utility.yul\":11874:11927   */\n      tag_301\n        /* \"#utility.yul\":11892:11926   */\n      tag_302\n        /* \"#utility.yul\":11901:11925   */\n      tag_303\n        /* \"#utility.yul\":11919:11924   */\n      dup5\n        /* \"#utility.yul\":11901:11925   */\n      tag_127\n      jump\t// in\n    tag_303:\n        /* \"#utility.yul\":11892:11926   */\n      tag_163\n      jump\t// in\n    tag_302:\n        /* \"#utility.yul\":11874:11927   */\n      tag_127\n      jump\t// in\n    tag_301:\n        /* \"#utility.yul\":11861:11927   */\n      swap1\n      pop\n        /* \"#utility.yul\":11791:11933   */\n      swap2\n      swap1\n      pop\n      jump\t// out\n        /* \"#utility.yul\":11939:12014   */\n    tag_165:\n        /* \"#utility.yul\":11982:11985   */\n      0x00\n        /* \"#utility.yul\":12003:12008   */\n      dup2\n        /* \"#utility.yul\":11996:12008   */\n      swap1\n      pop\n        /* \"#utility.yul\":11939:12014   */\n      swap2\n      swap1\n      pop\n      jump\t// out\n        /* \"#utility.yul\":12020:12289   */\n    tag_166:\n        /* \"#utility.yul\":12130:12169   */\n      tag_306\n        /* \"#utility.yul\":12161:12168   */\n      dup4\n        /* \"#utility.yul\":12130:12169   */\n      tag_164\n      jump\t// in\n    tag_306:\n        /* \"#utility.yul\":12191:12282   */\n      tag_307\n        /* \"#utility.yul\":12240:12281   */\n      tag_308\n        /* \"#utility.yul\":12264:12280   */\n      dup3\n        /* \"#utility.yul\":12240:12281   */\n      tag_165\n      jump\t// in\n    tag_308:\n        /* \"#utility.yul\":12232:12238   */\n      dup5\n        /* \"#utility.yul\":12225:12229   */\n      dup5\n        /* \"#utility.yul\":12219:12230   */\n      sload\n        /* \"#utility.yul\":12191:12282   */\n      tag_162\n      jump\t// in\n    tag_307:\n        /* \"#utility.yul\":12185:12189   */\n      dup3\n        /* \"#utility.yul\":12178:12283   */\n      sstore\n        /* \"#utility.yul\":12096:12289   */\n      pop\n        /* \"#utility.yul\":12020:12289   */\n      pop\n      pop\n      pop\n      jump\t// out\n        /* \"#utility.yul\":12295:12368   */\n    tag_167:\n        /* \"#utility.yul\":12340:12343   */\n      0x00\n        /* \"#utility.yul\":12295:12368   */\n      swap1\n      jump\t// out\n        /* \"#utility.yul\":12374:12563   */\n    tag_168:\n        /* \"#utility.yul\":12451:12483   */\n      tag_311\n      tag_167\n      jump\t// in\n    tag_311:\n        /* \"#utility.yul\":12492:12557   */\n      tag_312\n        /* \"#utility.yul\":12550:12556   */\n      dup2\n        /* \"#utility.yul\":12542:12548   */\n      dup5\n        /* \"#utility.yul\":12536:12540   */\n      dup5\n        /* \"#utility.yul\":12492:12557   */\n      tag_166\n      jump\t// in\n    tag_312:\n        /* \"#utility.yul\":12427:12563   */\n      pop\n        /* \"#utility.yul\":12374:12563   */\n      pop\n      pop\n      jump\t// out\n        /* \"#utility.yul\":12569:12755   */\n    tag_169:\n        /* \"#utility.yul\":12629:12749   */\n    tag_314:\n        /* \"#utility.yul\":12646:12649   */\n      dup2\n        /* \"#utility.yul\":12639:12644   */\n      dup2\n        /* \"#utility.yul\":12636:12650   */\n      lt\n        /* \"#utility.yul\":12629:12749   */\n      iszero\n      tag_316\n      jumpi\n        /* \"#utility.yul\":12700:12739   */\n      tag_317\n        /* \"#utility.yul\":12737:12738   */\n      0x00\n        /* \"#utility.yul\":12730:12735   */\n      dup3\n        /* \"#utility.yul\":12700:12739   */\n      tag_168\n      jump\t// in\n    tag_317:\n        /* \"#utility.yul\":12673:12674   */\n      0x01\n        /* \"#utility.yul\":12666:12671   */\n      dup2\n        /* \"#utility.yul\":12662:12675   */\n      add\n        /* \"#utility.yul\":12653:12675   */\n      swap1\n      pop\n        /* \"#utility.yul\":12629:12749   */\n      jump(tag_314)\n    tag_316:\n        /* \"#utility.yul\":12569:12755   */\n      pop\n      pop\n      jump\t// out\n        /* \"#utility.yul\":12761:13304   */\n    tag_170:\n        /* \"#utility.yul\":12862:12864   */\n      0x1f\n        /* \"#utility.yul\":12857:12860   */\n      dup3\n        /* \"#utility.yul\":12854:12865   */\n      gt\n        /* \"#utility.yul\":12851:13297   */\n      iszero\n      tag_319\n      jumpi\n        /* \"#utility.yul\":12896:12934   */\n      tag_320\n        /* \"#utility.yul\":12928:12933   */\n      dup2\n        /* \"#utility.yul\":12896:12934   */\n      tag_159\n      jump\t// in\n    tag_320:\n        /* \"#utility.yul\":12980:13009   */\n      tag_321\n        /* \"#utility.yul\":12998:13008   */\n      dup5\n        /* \"#utility.yul\":12980:13009   */\n      tag_160\n      jump\t// in\n    tag_321:\n        /* \"#utility.yul\":12970:12978   */\n      dup2\n        /* \"#utility.yul\":12966:13010   */\n      add\n        /* \"#utility.yul\":13163:13165   */\n      0x20\n        /* \"#utility.yul\":13151:13161   */\n      dup6\n        /* \"#utility.yul\":13148:13166   */\n      lt\n        /* \"#utility.yul\":13145:13194   */\n      iszero\n      tag_322\n      jumpi\n        /* \"#utility.yul\":13184:13192   */\n      dup2\n        /* \"#utility.yul\":13169:13192   */\n      swap1\n      pop\n        /* \"#utility.yul\":13145:13194   */\n    tag_322:\n        /* \"#utility.yul\":13207:13287   */\n      tag_323\n        /* \"#utility.yul\":13263:13285   */\n      tag_324\n        /* \"#utility.yul\":13281:13284   */\n      dup6\n        /* \"#utility.yul\":13263:13285   */\n      tag_160\n      jump\t// in\n    tag_324:\n        /* \"#utility.yul\":13253:13261   */\n      dup4\n        /* \"#utility.yul\":13249:13286   */\n      add\n        /* \"#utility.yul\":13236:13247   */\n      dup3\n        /* \"#utility.yul\":13207:13287   */\n      tag_169\n      jump\t// in\n    tag_323:\n        /* \"#utility.yul\":12866:13297   */\n      pop\n      pop\n        /* \"#utility.yul\":12851:13297   */\n    tag_319:\n        /* \"#utility.yul\":12761:13304   */\n      pop\n      pop\n      pop\n      jump\t// out\n        /* \"#utility.yul\":13310:13427   */\n    tag_171:\n        /* \"#utility.yul\":13364:13372   */\n      0x00\n        /* \"#utility.yul\":13414:13419   */\n      dup3\n        /* \"#utility.yul\":13408:13412   */\n      dup3\n        /* \"#utility.yul\":13404:13420   */\n      shr\n        /* \"#utility.yul\":13383:13420   */\n      swap1\n      pop\n        /* \"#utility.yul\":13310:13427   */\n      swap3\n      swap2\n      pop\n      pop\n      jump\t// out\n        /* \"#utility.yul\":13433:13602   */\n    tag_172:\n        /* \"#utility.yul\":13477:13483   */\n      0x00\n        /* \"#utility.yul\":13510:13561   */\n      tag_327\n        /* \"#utility.yul\":13558:13559   */\n      0x00\n        /* \"#utility.yul\":13554:13560   */\n      not\n        /* \"#utility.yul\":13546:13551   */\n      dup5\n        /* \"#utility.yul\":13543:13544   */\n      0x08\n        /* \"#utility.yul\":13539:13552   */\n      mul\n        /* \"#utility.yul\":13510:13561   */\n      tag_171\n      jump\t// in\n    tag_327:\n        /* \"#utility.yul\":13506:13562   */\n      not\n        /* \"#utility.yul\":13591:13595   */\n      dup1\n        /* \"#utility.yul\":13585:13589   */\n      dup4\n        /* \"#utility.yul\":13581:13596   */\n      and\n        /* \"#utility.yul\":13571:13596   */\n      swap2\n      pop\n        /* \"#utility.yul\":13484:13602   */\n      pop\n        /* \"#utility.yul\":13433:13602   */\n      swap3\n      swap2\n      pop\n      pop\n      jump\t// out\n        /* \"#utility.yul\":13607:13902   */\n    tag_173:\n        /* \"#utility.yul\":13683:13687   */\n      0x00\n        /* \"#utility.yul\":13829:13858   */\n      tag_329\n        /* \"#utility.yul\":13854:13857   */\n      dup4\n        /* \"#utility.yul\":13848:13852   */\n      dup4\n        /* \"#utility.yul\":13829:13858   */\n      tag_172\n      jump\t// in\n    tag_329:\n        /* \"#utility.yul\":13821:13858   */\n      swap2\n      pop\n        /* \"#utility.yul\":13891:13894   */\n      dup3\n        /* \"#utility.yul\":13888:13889   */\n      0x02\n        /* \"#utility.yul\":13884:13895   */\n      mul\n        /* \"#utility.yul\":13878:13882   */\n      dup3\n        /* \"#utility.yul\":13875:13896   */\n      or\n        /* \"#utility.yul\":13867:13896   */\n      swap1\n      pop\n        /* \"#utility.yul\":13607:13902   */\n      swap3\n      swap2\n      pop\n      pop\n      jump\t// out\n        /* \"#utility.yul\":13907:15302   */\n    tag_92:\n        /* \"#utility.yul\":14024:14061   */\n      tag_331\n        /* \"#utility.yul\":14057:14060   */\n      dup3\n        /* \"#utility.yul\":14024:14061   */\n      tag_147\n      jump\t// in\n    tag_331:\n        /* \"#utility.yul\":14126:14144   */\n      0xffffffffffffffff\n        /* \"#utility.yul\":14118:14124   */\n      dup2\n        /* \"#utility.yul\":14115:14145   */\n      gt\n        /* \"#utility.yul\":14112:14168   */\n      iszero\n      tag_332\n      jumpi\n        /* \"#utility.yul\":14148:14166   */\n      tag_333\n      tag_138\n      jump\t// in\n    tag_333:\n        /* \"#utility.yul\":14112:14168   */\n    tag_332:\n        /* \"#utility.yul\":14192:14230   */\n      tag_334\n        /* \"#utility.yul\":14224:14228   */\n      dup3\n        /* \"#utility.yul\":14218:14229   */\n      sload\n        /* \"#utility.yul\":14192:14230   */\n      tag_101\n      jump\t// in\n    tag_334:\n        /* \"#utility.yul\":14277:14344   */\n      tag_335\n        /* \"#utility.yul\":14337:14343   */\n      dup3\n        /* \"#utility.yul\":14329:14335   */\n      dup3\n        /* \"#utility.yul\":14323:14327   */\n      dup6\n        /* \"#utility.yul\":14277:14344   */\n      tag_170\n      jump\t// in\n    tag_335:\n        /* \"#utility.yul\":14371:14372   */\n      0x00\n        /* \"#utility.yul\":14395:14399   */\n      0x20\n        /* \"#utility.yul\":14382:14399   */\n      swap1\n      pop\n        /* \"#utility.yul\":14427:14429   */\n      0x1f\n        /* \"#utility.yul\":14419:14425   */\n      dup4\n        /* \"#utility.yul\":14416:14430   */\n      gt\n        /* \"#utility.yul\":14444:14445   */\n      0x01\n        /* \"#utility.yul\":14439:15057   */\n      dup2\n      eq\n      tag_337\n      jumpi\n        /* \"#utility.yul\":15101:15102   */\n      0x00\n        /* \"#utility.yul\":15118:15124   */\n      dup5\n        /* \"#utility.yul\":15115:15192   */\n      iszero\n      tag_338\n      jumpi\n        /* \"#utility.yul\":15167:15176   */\n      dup3\n        /* \"#utility.yul\":15162:15165   */\n      dup8\n        /* \"#utility.yul\":15158:15177   */\n      add\n        /* \"#utility.yul\":15152:15178   */\n      mload\n        /* \"#utility.yul\":15143:15178   */\n      swap1\n      pop\n        /* \"#utility.yul\":15115:15192   */\n    tag_338:\n        /* \"#utility.yul\":15218:15285   */\n      tag_339\n        /* \"#utility.yul\":15278:15284   */\n      dup6\n        /* \"#utility.yul\":15271:15276   */\n      dup3\n        /* \"#utility.yul\":15218:15285   */\n      tag_173\n      jump\t// in\n    tag_339:\n        /* \"#utility.yul\":15212:15216   */\n      dup7\n        /* \"#utility.yul\":15205:15286   */\n      sstore\n        /* \"#utility.yul\":15074:15296   */\n      pop\n        /* \"#utility.yul\":14409:15296   */\n      jump(tag_336)\n        /* \"#utility.yul\":14439:15057   */\n    tag_337:\n        /* \"#utility.yul\":14491:14495   */\n      0x1f\n        /* \"#utility.yul\":14487:14496   */\n      not\n        /* \"#utility.yul\":14479:14485   */\n      dup5\n        /* \"#utility.yul\":14475:14497   */\n      and\n        /* \"#utility.yul\":14525:14562   */\n      tag_340\n        /* \"#utility.yul\":14557:14561   */\n      dup7\n        /* \"#utility.yul\":14525:14562   */\n      tag_159\n      jump\t// in\n    tag_340:\n        /* \"#utility.yul\":14584:14585   */\n      0x00\n        /* \"#utility.yul\":14598:14806   */\n    tag_341:\n        /* \"#utility.yul\":14612:14619   */\n      dup3\n        /* \"#utility.yul\":14609:14610   */\n      dup2\n        /* \"#utility.yul\":14606:14620   */\n      lt\n        /* \"#utility.yul\":14598:14806   */\n      iszero\n      tag_343\n      jumpi\n        /* \"#utility.yul\":14691:14700   */\n      dup5\n        /* \"#utility.yul\":14686:14689   */\n      dup10\n        /* \"#utility.yul\":14682:14701   */\n      add\n        /* \"#utility.yul\":14676:14702   */\n      mload\n        /* \"#utility.yul\":14668:14674   */\n      dup3\n        /* \"#utility.yul\":14661:14703   */\n      sstore\n        /* \"#utility.yul\":14742:14743   */\n      0x01\n        /* \"#utility.yul\":14734:14740   */\n      dup3\n        /* \"#utility.yul\":14730:14744   */\n      add\n        /* \"#utility.yul\":14720:14744   */\n      swap2\n      pop\n        /* \"#utility.yul\":14789:14791   */\n      0x20\n        /* \"#utility.yul\":14778:14787   */\n      dup6\n        /* \"#utility.yul\":14774:14792   */\n      add\n        /* \"#utility.yul\":14761:14792   */\n      swap5\n      pop\n        /* \"#utility.yul\":14635:14639   */\n      0x20\n        /* \"#utility.yul\":14632:14633   */\n      dup2\n        /* \"#utility.yul\":14628:14640   */\n      add\n        /* \"#utility.yul\":14623:14640   */\n      swap1\n      pop\n        /* \"#utility.yul\":14598:14806   */\n      jump(tag_341)\n    tag_343:\n        /* \"#utility.yul\":14834:14840   */\n      dup7\n        /* \"#utility.yul\":14825:14832   */\n      dup4\n        /* \"#utility.yul\":14822:14841   */\n      lt\n        /* \"#utility.yul\":14819:14998   */\n      iszero\n      tag_344\n      jumpi\n        /* \"#utility.yul\":14892:14901   */\n      dup5\n        /* \"#utility.yul\":14887:14890   */\n      dup10\n        /* \"#utility.yul\":14883:14902   */\n      add\n        /* \"#utility.yul\":14877:14903   */\n      mload\n        /* \"#utility.yul\":14935:14983   */\n      tag_345\n        /* \"#utility.yul\":14977:14981   */\n      0x1f\n        /* \"#utility.yul\":14969:14975   */\n      dup10\n        /* \"#utility.yul\":14965:14982   */\n      and\n        /* \"#utility.yul\":14954:14963   */\n      dup3\n        /* \"#utility.yul\":14935:14983   */\n      tag_172\n      jump\t// in\n    tag_345:\n        /* \"#utility.yul\":14927:14933   */\n      dup4\n        /* \"#utility.yul\":14920:14984   */\n      sstore\n        /* \"#utility.yul\":14842:14998   */\n      pop\n        /* \"#utility.yul\":14819:14998   */\n    tag_344:\n        /* \"#utility.yul\":15044:15045   */\n      0x01\n        /* \"#utility.yul\":15040:15041   */\n      0x02\n        /* \"#utility.yul\":15032:15038   */\n      dup9\n        /* \"#utility.yul\":15028:15042   */\n      mul\n        /* \"#utility.yul\":15024:15046   */\n      add\n        /* \"#utility.yul\":15018:15022   */\n      dup9\n        /* \"#utility.yul\":15011:15047   */\n      sstore\n        /* \"#utility.yul\":14446:15057   */\n      pop\n      pop\n      pop\n        /* \"#utility.yul\":14409:15296   */\n    tag_336:\n      pop\n        /* \"#utility.yul\":13999:15302   */\n      pop\n      pop\n      pop\n        /* \"#utility.yul\":13907:15302   */\n      pop\n      pop\n      jump\t// out\n        /* \"#utility.yul\":15308:15474   */\n    tag_174:\n        /* \"#utility.yul\":15448:15466   */\n      0x4e6f7420656e6f7567682066756e647300000000000000000000000000000000\n        /* \"#utility.yul\":15444:15445   */\n      0x00\n        /* \"#utility.yul\":15436:15442   */\n      dup3\n        /* \"#utility.yul\":15432:15446   */\n      add\n        /* \"#utility.yul\":15425:15467   */\n      mstore\n        /* \"#utility.yul\":15308:15474   */\n      pop\n      jump\t// out\n        /* \"#utility.yul\":15480:15846   */\n    tag_175:\n        /* \"#utility.yul\":15622:15625   */\n      0x00\n        /* \"#utility.yul\":15643:15710   */\n      tag_348\n        /* \"#utility.yul\":15707:15709   */\n      0x10\n        /* \"#utility.yul\":15702:15705   */\n      dup4\n        /* \"#utility.yul\":15643:15710   */\n      tag_148\n      jump\t// in\n    tag_348:\n        /* \"#utility.yul\":15636:15710   */\n      swap2\n      pop\n        /* \"#utility.yul\":15719:15812   */\n      tag_349\n        /* \"#utility.yul\":15808:15811   */\n      dup3\n        /* \"#utility.yul\":15719:15812   */\n      tag_174\n      jump\t// in\n    tag_349:\n        /* \"#utility.yul\":15837:15839   */\n      0x20\n        /* \"#utility.yul\":15832:15835   */\n      dup3\n        /* \"#utility.yul\":15828:15840   */\n      add\n        /* \"#utility.yul\":15821:15840   */\n      swap1\n      pop\n        /* \"#utility.yul\":15480:15846   */\n      swap2\n      swap1\n      pop\n      jump\t// out\n        /* \"#utility.yul\":15852:16271   */\n    tag_95:\n        /* \"#utility.yul\":16018:16022   */\n      0x00\n        /* \"#utility.yul\":16056:16058   */\n      0x20\n        /* \"#utility.yul\":16045:16054   */\n      dup3\n        /* \"#utility.yul\":16041:16059   */\n      add\n        /* \"#utility.yul\":16033:16059   */\n      swap1\n      pop\n        /* \"#utility.yul\":16105:16114   */\n      dup2\n        /* \"#utility.yul\":16099:16103   */\n      dup2\n        /* \"#utility.yul\":16095:16115   */\n      sub\n        /* \"#utility.yul\":16091:16092   */\n      0x00\n        /* \"#utility.yul\":16080:16089   */\n      dup4\n        /* \"#utility.yul\":16076:16093   */\n      add\n        /* \"#utility.yul\":16069:16116   */\n      mstore\n        /* \"#utility.yul\":16133:16264   */\n      tag_351\n        /* \"#utility.yul\":16259:16263   */\n      dup2\n        /* \"#utility.yul\":16133:16264   */\n      tag_175\n      jump\t// in\n    tag_351:\n        /* \"#utility.yul\":16125:16264   */\n      swap1\n      pop\n        /* \"#utility.yul\":15852:16271   */\n      swap2\n      swap1\n      pop\n      jump\t// out\n        /* \"#utility.yul\":16277:16447   */\n    tag_176:\n        /* \"#utility.yul\":16417:16439   */\n      0x4e6f2076616c6964206372656469742063617264000000000000000000000000\n        /* \"#utility.yul\":16413:16414   */\n      0x00\n        /* \"#utility.yul\":16405:16411   */\n      dup3\n        /* \"#utility.yul\":16401:16415   */\n      add\n        /* \"#utility.yul\":16394:16440   */\n      mstore\n        /* \"#utility.yul\":16277:16447   */\n      pop\n      jump\t// out\n        /* \"#utility.yul\":16453:16819   */\n    tag_177:\n        /* \"#utility.yul\":16595:16598   */\n      0x00\n        /* \"#utility.yul\":16616:16683   */\n      tag_354\n        /* \"#utility.yul\":16680:16682   */\n      0x14\n        /* \"#utility.yul\":16675:16678   */\n      dup4\n        /* \"#utility.yul\":16616:16683   */\n      tag_148\n      jump\t// in\n    tag_354:\n        /* \"#utility.yul\":16609:16683   */\n      swap2\n      pop\n        /* \"#utility.yul\":16692:16785   */\n      tag_355\n        /* \"#utility.yul\":16781:16784   */\n      dup3\n        /* \"#utility.yul\":16692:16785   */\n      tag_176\n      jump\t// in\n    tag_355:\n        /* \"#utility.yul\":16810:16812   */\n      0x20\n        /* \"#utility.yul\":16805:16808   */\n      dup3\n        /* \"#utility.yul\":16801:16813   */\n      add\n        /* \"#utility.yul\":16794:16813   */\n      swap1\n      pop\n        /* \"#utility.yul\":16453:16819   */\n      swap2\n      swap1\n      pop\n      jump\t// out\n        /* \"#utility.yul\":16825:17244   */\n    tag_106:\n        /* \"#utility.yul\":16991:16995   */\n      0x00\n        /* \"#utility.yul\":17029:17031   */\n      0x20\n        /* \"#utility.yul\":17018:17027   */\n      dup3\n        /* \"#utility.yul\":17014:17032   */\n      add\n        /* \"#utility.yul\":17006:17032   */\n      swap1\n      pop\n        /* \"#utility.yul\":17078:17087   */\n      dup2\n        /* \"#utility.yul\":17072:17076   */\n      dup2\n        /* \"#utility.yul\":17068:17088   */\n      sub\n        /* \"#utility.yul\":17064:17065   */\n      0x00\n        /* \"#utility.yul\":17053:17062   */\n      dup4\n        /* \"#utility.yul\":17049:17066   */\n      add\n        /* \"#utility.yul\":17042:17089   */\n      mstore\n        /* \"#utility.yul\":17106:17237   */\n      tag_357\n        /* \"#utility.yul\":17232:17236   */\n      dup2\n        /* \"#utility.yul\":17106:17237   */\n      tag_177\n      jump\t// in\n    tag_357:\n        /* \"#utility.yul\":17098:17237   */\n      swap1\n      pop\n        /* \"#utility.yul\":16825:17244   */\n      swap2\n      swap1\n      pop\n      jump\t// out\n\n    auxdata: 0xa26469706673582212200447bb0a8431ce15554866270ef2e2213ae1b79acc65ce89604da09c3a7ff89d64736f6c63430008100033\n}\n",
				"bytecode": {
					"linkReferences": {},
					"object": "608060405260006008556000600960006101000a81548160ff0219169083151502179055503480156200003157600080fd5b506040516200127f3803806200127f8339818101604052810190620000579190620000a5565b8060018190555050620000d7565b600080fd5b6000819050919050565b6200007f816200006a565b81146200008b57600080fd5b50565b6000815190506200009f8162000074565b92915050565b600060208284031215620000be57620000bd62000065565b5b6000620000ce848285016200008e565b91505092915050565b61119880620000e76000396000f3fe608060405234801561001057600080fd5b50600436106100cf5760003560e01c8063557ed1ba1161008c5780638e029c0b116100665780638e029c0b146101de5780638fa11864146101e8578063aa8c217c14610206578063e21f37ce14610224576100cf565b8063557ed1ba146101845780637b9a3f4c146101a25780637eb9f571146101c0576100cf565b8063062a7544146100d45780630e85fa72146100f057806312a029a41461010e5780633c626f001461012a57806342fb7936146101485780634b28f9a214610166575b600080fd5b6100ee60048036038101906100e991906108a3565b610242565b005b6100f861054a565b60405161010591906108f2565b60405180910390f35b61012860048036038101906101239190610a53565b610550565b005b610132610601565b60405161013f9190610ae6565b60405180910390f35b610150610614565b60405161015d9190610b80565b60405180910390f35b61016e6106a2565b60405161017b91906108f2565b60405180910390f35b61018c6106a8565b60405161019991906108f2565b60405180910390f35b6101aa6106b0565b6040516101b791906108f2565b60405180910390f35b6101c86106b6565b6040516101d591906108f2565b60405180910390f35b6101e66106bc565b005b6101f06106d9565b6040516101fd9190610b80565b60405180910390f35b61020e610767565b60405161021b91906108f2565b60405180910390f35b61022c61076d565b6040516102399190610b80565b60405180910390f35b8080600260006101000a81548173ffffffffffffffffffffffffffffffffffffffff021916908373ffffffffffffffffffffffffffffffffffffffff160217905550600073ffffffffffffffffffffffffffffffffffffffff168173ffffffffffffffffffffffffffffffffffffffff16036102f3576040517f08c379a00000000000000000000000000000000000000000000000000000000081526004016102ea90610bee565b60405180910390fd5b60001515600960009054906101000a900460ff16151503610349576040517f08c379a000000000000000000000000000000000000000000000000000000000815260040161034090610c5a565b60405180910390fd5b60056008541015801561036a5750601e6007546103669190610ca9565b4211155b156103c557600060088190555060006008541461038a57610389610cdd565b5b6040517f08c379a00000000000000000000000000000000000000000000000000000000081526004016103bc90610d58565b60405180910390fd5b6005600854111580156103e65750601e6007546103e29190610ca9565b4210155b1561040e57600060088190555060006008541461040657610405610cdd565b5b426007819055505b81600260006101000a81548173ffffffffffffffffffffffffffffffffffffffff021916908373ffffffffffffffffffffffffffffffffffffffff160217905550826000819055506001600860008282546104699190610ca9565b9250508190555060006001541180156104855750600054600154115b1561050a576000546001600082825461049e9190610d78565b92505081905550600054600660008282546104b99190610ca9565b925050819055506040518060400160405280601281526020017f5472616e7366657220636f6d706c657465640000000000000000000000000000815250600390816105049190610fb8565b50610545565b6040517f08c379a000000000000000000000000000000000000000000000000000000000815260040161053c906110d6565b60405180910390fd5b505050565b60075481565b816004908161055f9190610fb8565b50806005908161056f9190610fb8565b506001600960006101000a81548160ff021916908315150217905550426007819055506008600480546105a190610ddb565b90501480156105be57506003600580546105ba90610ddb565b9050145b6105fd576040517f08c379a00000000000000000000000000000000000000000000000000000000081526004016105f490611142565b60405180910390fd5b5050565b600960009054906101000a900460ff1681565b6005805461062190610ddb565b80601f016020809104026020016040519081016040528092919081815260200182805461064d90610ddb565b801561069a5780601f1061066f5761010080835404028352916020019161069a565b820191906000526020600020905b81548152906001019060200180831161067d57829003601f168201915b505050505081565b60085481565b600042905090565b60015481565b60065481565b6000600960006101000a81548160ff021916908315150217905550565b600480546106e690610ddb565b80601f016020809104026020016040519081016040528092919081815260200182805461071290610ddb565b801561075f5780601f106107345761010080835404028352916020019161075f565b820191906000526020600020905b81548152906001019060200180831161074257829003601f168201915b505050505081565b60005481565b6003805461077a90610ddb565b80601f01602080910402602001604051908101604052809291908181526020018280546107a690610ddb565b80156107f35780601f106107c8576101008083540402835291602001916107f3565b820191906000526020600020905b8154815290600101906020018083116107d657829003601f168201915b505050505081565b6000604051905090565b600080fd5b600080fd5b6000819050919050565b6108228161080f565b811461082d57600080fd5b50565b60008135905061083f81610819565b92915050565b600073ffffffffffffffffffffffffffffffffffffffff82169050919050565b600061087082610845565b9050919050565b61088081610865565b811461088b57600080fd5b50565b60008135905061089d81610877565b92915050565b600080604083850312156108ba576108b9610805565b5b60006108c885828601610830565b92505060206108d98582860161088e565b9150509250929050565b6108ec8161080f565b82525050565b600060208201905061090760008301846108e3565b92915050565b600080fd5b600080fd5b6000601f19601f8301169050919050565b7f4e487b7100000000000000000000000000000000000000000000000000000000600052604160045260246000fd5b61096082610917565b810181811067ffffffffffffffff8211171561097f5761097e610928565b5b80604052505050565b60006109926107fb565b905061099e8282610957565b919050565b600067ffffffffffffffff8211156109be576109bd610928565b5b6109c782610917565b9050602081019050919050565b82818337600083830152505050565b60006109f66109f1846109a3565b610988565b905082815260208101848484011115610a1257610a11610912565b5b610a1d8482856109d4565b509392505050565b600082601f830112610a3a57610a3961090d565b5b8135610a4a8482602086016109e3565b91505092915050565b60008060408385031215610a6a57610a69610805565b5b600083013567ffffffffffffffff811115610a8857610a8761080a565b5b610a9485828601610a25565b925050602083013567ffffffffffffffff811115610ab557610ab461080a565b5b610ac185828601610a25565b9150509250929050565b60008115159050919050565b610ae081610acb565b82525050565b6000602082019050610afb6000830184610ad7565b92915050565b600081519050919050565b600082825260208201905092915050565b60005b83811015610b3b578082015181840152602081019050610b20565b60008484015250505050565b6000610b5282610b01565b610b5c8185610b0c565b9350610b6c818560208601610b1d565b610b7581610917565b840191505092915050565b60006020820190508181036000830152610b9a8184610b47565b905092915050565b7f2054686973206164647265737320646f65736e27742065786973747300000000600082015250565b6000610bd8601c83610b0c565b9150610be382610ba2565b602082019050919050565b60006020820190508181036000830152610c0781610bcb565b9050919050565b7f506c6561736520696e7365727420796f75722063617264000000000000000000600082015250565b6000610c44601783610b0c565b9150610c4f82610c0e565b602082019050919050565b60006020820190508181036000830152610c7381610c37565b9050919050565b7f4e487b7100000000000000000000000000000000000000000000000000000000600052601160045260246000fd5b6000610cb48261080f565b9150610cbf8361080f565b9250828201905080821115610cd757610cd6610c7a565b5b92915050565b7f4e487b7100000000000000000000000000000000000000000000000000000000600052600160045260246000fd5b7f6f6e6c792035207472616e73616374696f6e7320706572206461790000000000600082015250565b6000610d42601b83610b0c565b9150610d4d82610d0c565b602082019050919050565b60006020820190508181036000830152610d7181610d35565b9050919050565b6000610d838261080f565b9150610d8e8361080f565b9250828203905081811115610da657610da5610c7a565b5b92915050565b7f4e487b7100000000000000000000000000000000000000000000000000000000600052602260045260246000fd5b60006002820490506001821680610df357607f821691505b602082108103610e0657610e05610dac565b5b50919050565b60008190508160005260206000209050919050565b60006020601f8301049050919050565b600082821b905092915050565b600060088302610e6e7fffffffffffffffffffffffffffffffffffffffffffffffffffffffffffffffff82610e31565b610e788683610e31565b95508019841693508086168417925050509392505050565b6000819050919050565b6000610eb5610eb0610eab8461080f565b610e90565b61080f565b9050919050565b6000819050919050565b610ecf83610e9a565b610ee3610edb82610ebc565b848454610e3e565b825550505050565b600090565b610ef8610eeb565b610f03818484610ec6565b505050565b5b81811015610f2757610f1c600082610ef0565b600181019050610f09565b5050565b601f821115610f6c57610f3d81610e0c565b610f4684610e21565b81016020851015610f55578190505b610f69610f6185610e21565b830182610f08565b50505b505050565b600082821c905092915050565b6000610f8f60001984600802610f71565b1980831691505092915050565b6000610fa88383610f7e565b9150826002028217905092915050565b610fc182610b01565b67ffffffffffffffff811115610fda57610fd9610928565b5b610fe48254610ddb565b610fef828285610f2b565b600060209050601f8311600181146110225760008415611010578287015190505b61101a8582610f9c565b865550611082565b601f19841661103086610e0c565b60005b8281101561105857848901518255600182019150602085019450602081019050611033565b868310156110755784890151611071601f891682610f7e565b8355505b6001600288020188555050505b505050505050565b7f4e6f7420656e6f7567682066756e647300000000000000000000000000000000600082015250565b60006110c0601083610b0c565b91506110cb8261108a565b602082019050919050565b600060208201905081810360008301526110ef816110b3565b9050919050565b7f4e6f2076616c6964206372656469742063617264000000000000000000000000600082015250565b600061112c601483610b0c565b9150611137826110f6565b602082019050919050565b6000602082019050818103600083015261115b8161111f565b905091905056fea26469706673582212200447bb0a8431ce15554866270ef2e2213ae1b79acc65ce89604da09c3a7ff89d64736f6c63430008100033",
					"opcodes": "PUSH1 0x80 PUSH1 0x40 MSTORE PUSH1 0x0 PUSH1 0x8 SSTORE PUSH1 0x0 PUSH1 0x9 PUSH1 0x0 PUSH2 0x100 EXP DUP2 SLOAD DUP2 PUSH1 0xFF MUL NOT AND SWAP1 DUP4 ISZERO ISZERO MUL OR SWAP1 SSTORE POP CALLVALUE DUP1 ISZERO PUSH3 0x31 JUMPI PUSH1 0x0 DUP1 REVERT JUMPDEST POP PUSH1 0x40 MLOAD PUSH3 0x127F CODESIZE SUB DUP1 PUSH3 0x127F DUP4 CODECOPY DUP2 DUP2 ADD PUSH1 0x40 MSTORE DUP2 ADD SWAP1 PUSH3 0x57 SWAP2 SWAP1 PUSH3 0xA5 JUMP JUMPDEST DUP1 PUSH1 0x1 DUP2 SWAP1 SSTORE POP POP PUSH3 0xD7 JUMP JUMPDEST PUSH1 0x0 DUP1 REVERT JUMPDEST PUSH1 0x0 DUP2 SWAP1 POP SWAP2 SWAP1 POP JUMP JUMPDEST PUSH3 0x7F DUP2 PUSH3 0x6A JUMP JUMPDEST DUP2 EQ PUSH3 0x8B JUMPI PUSH1 0x0 DUP1 REVERT JUMPDEST POP JUMP JUMPDEST PUSH1 0x0 DUP2 MLOAD SWAP1 POP PUSH3 0x9F DUP2 PUSH3 0x74 JUMP JUMPDEST SWAP3 SWAP2 POP POP JUMP JUMPDEST PUSH1 0x0 PUSH1 0x20 DUP3 DUP5 SUB SLT ISZERO PUSH3 0xBE JUMPI PUSH3 0xBD PUSH3 0x65 JUMP JUMPDEST JUMPDEST PUSH1 0x0 PUSH3 0xCE DUP5 DUP3 DUP6 ADD PUSH3 0x8E JUMP JUMPDEST SWAP2 POP POP SWAP3 SWAP2 POP POP JUMP JUMPDEST PUSH2 0x1198 DUP1 PUSH3 0xE7 PUSH1 0x0 CODECOPY PUSH1 0x0 RETURN INVALID PUSH1 0x80 PUSH1 0x40 MSTORE CALLVALUE DUP1 ISZERO PUSH2 0x10 JUMPI PUSH1 0x0 DUP1 REVERT JUMPDEST POP PUSH1 0x4 CALLDATASIZE LT PUSH2 0xCF JUMPI PUSH1 0x0 CALLDATALOAD PUSH1 0xE0 SHR DUP1 PUSH4 0x557ED1BA GT PUSH2 0x8C JUMPI DUP1 PUSH4 0x8E029C0B GT PUSH2 0x66 JUMPI DUP1 PUSH4 0x8E029C0B EQ PUSH2 0x1DE JUMPI DUP1 PUSH4 0x8FA11864 EQ PUSH2 0x1E8 JUMPI DUP1 PUSH4 0xAA8C217C EQ PUSH2 0x206 JUMPI DUP1 PUSH4 0xE21F37CE EQ PUSH2 0x224 JUMPI PUSH2 0xCF JUMP JUMPDEST DUP1 PUSH4 0x557ED1BA EQ PUSH2 0x184 JUMPI DUP1 PUSH4 0x7B9A3F4C EQ PUSH2 0x1A2 JUMPI DUP1 PUSH4 0x7EB9F571 EQ PUSH2 0x1C0 JUMPI PUSH2 0xCF JUMP JUMPDEST DUP1 PUSH4 0x62A7544 EQ PUSH2 0xD4 JUMPI DUP1 PUSH4 0xE85FA72 EQ PUSH2 0xF0 JUMPI DUP1 PUSH4 0x12A029A4 EQ PUSH2 0x10E JUMPI DUP1 PUSH4 0x3C626F00 EQ PUSH2 0x12A JUMPI DUP1 PUSH4 0x42FB7936 EQ PUSH2 0x148 JUMPI DUP1 PUSH4 0x4B28F9A2 EQ PUSH2 0x166 JUMPI JUMPDEST PUSH1 0x0 DUP1 REVERT JUMPDEST PUSH2 0xEE PUSH1 0x4 DUP1 CALLDATASIZE SUB DUP2 ADD SWAP1 PUSH2 0xE9 SWAP2 SWAP1 PUSH2 0x8A3 JUMP JUMPDEST PUSH2 0x242 JUMP JUMPDEST STOP JUMPDEST PUSH2 0xF8 PUSH2 0x54A JUMP JUMPDEST PUSH1 0x40 MLOAD PUSH2 0x105 SWAP2 SWAP1 PUSH2 0x8F2 JUMP JUMPDEST PUSH1 0x40 MLOAD DUP1 SWAP2 SUB SWAP1 RETURN JUMPDEST PUSH2 0x128 PUSH1 0x4 DUP1 CALLDATASIZE SUB DUP2 ADD SWAP1 PUSH2 0x123 SWAP2 SWAP1 PUSH2 0xA53 JUMP JUMPDEST PUSH2 0x550 JUMP JUMPDEST STOP JUMPDEST PUSH2 0x132 PUSH2 0x601 JUMP JUMPDEST PUSH1 0x40 MLOAD PUSH2 0x13F SWAP2 SWAP1 PUSH2 0xAE6 JUMP JUMPDEST PUSH1 0x40 MLOAD DUP1 SWAP2 SUB SWAP1 RETURN JUMPDEST PUSH2 0x150 PUSH2 0x614 JUMP JUMPDEST PUSH1 0x40 MLOAD PUSH2 0x15D SWAP2 SWAP1 PUSH2 0xB80 JUMP JUMPDEST PUSH1 0x40 MLOAD DUP1 SWAP2 SUB SWAP1 RETURN JUMPDEST PUSH2 0x16E PUSH2 0x6A2 JUMP JUMPDEST PUSH1 0x40 MLOAD PUSH2 0x17B SWAP2 SWAP1 PUSH2 0x8F2 JUMP JUMPDEST PUSH1 0x40 MLOAD DUP1 SWAP2 SUB SWAP1 RETURN JUMPDEST PUSH2 0x18C PUSH2 0x6A8 JUMP JUMPDEST PUSH1 0x40 MLOAD PUSH2 0x199 SWAP2 SWAP1 PUSH2 0x8F2 JUMP JUMPDEST PUSH1 0x40 MLOAD DUP1 SWAP2 SUB SWAP1 RETURN JUMPDEST PUSH2 0x1AA PUSH2 0x6B0 JUMP JUMPDEST PUSH1 0x40 MLOAD PUSH2 0x1B7 SWAP2 SWAP1 PUSH2 0x8F2 JUMP JUMPDEST PUSH1 0x40 MLOAD DUP1 SWAP2 SUB SWAP1 RETURN JUMPDEST PUSH2 0x1C8 PUSH2 0x6B6 JUMP JUMPDEST PUSH1 0x40 MLOAD PUSH2 0x1D5 SWAP2 SWAP1 PUSH2 0x8F2 JUMP JUMPDEST PUSH1 0x40 MLOAD DUP1 SWAP2 SUB SWAP1 RETURN JUMPDEST PUSH2 0x1E6 PUSH2 0x6BC JUMP JUMPDEST STOP JUMPDEST PUSH2 0x1F0 PUSH2 0x6D9 JUMP JUMPDEST PUSH1 0x40 MLOAD PUSH2 0x1FD SWAP2 SWAP1 PUSH2 0xB80 JUMP JUMPDEST PUSH1 0x40 MLOAD DUP1 SWAP2 SUB SWAP1 RETURN JUMPDEST PUSH2 0x20E PUSH2 0x767 JUMP JUMPDEST PUSH1 0x40 MLOAD PUSH2 0x21B SWAP2 SWAP1 PUSH2 0x8F2 JUMP JUMPDEST PUSH1 0x40 MLOAD DUP1 SWAP2 SUB SWAP1 RETURN JUMPDEST PUSH2 0x22C PUSH2 0x76D JUMP JUMPDEST PUSH1 0x40 MLOAD PUSH2 0x239 SWAP2 SWAP1 PUSH2 0xB80 JUMP JUMPDEST PUSH1 0x40 MLOAD DUP1 SWAP2 SUB SWAP1 RETURN JUMPDEST DUP1 DUP1 PUSH1 0x2 PUSH1 0x0 PUSH2 0x100 EXP DUP2 SLOAD DUP2 PUSH20 0xFFFFFFFFFFFFFFFFFFFFFFFFFFFFFFFFFFFFFFFF MUL NOT AND SWAP1 DUP4 PUSH20 0xFFFFFFFFFFFFFFFFFFFFFFFFFFFFFFFFFFFFFFFF AND MUL OR SWAP1 SSTORE POP PUSH1 0x0 PUSH20 0xFFFFFFFFFFFFFFFFFFFFFFFFFFFFFFFFFFFFFFFF AND DUP2 PUSH20 0xFFFFFFFFFFFFFFFFFFFFFFFFFFFFFFFFFFFFFFFF AND SUB PUSH2 0x2F3 JUMPI PUSH1 0x40 MLOAD PUSH32 0x8C379A000000000000000000000000000000000000000000000000000000000 DUP2 MSTORE PUSH1 0x4 ADD PUSH2 0x2EA SWAP1 PUSH2 0xBEE JUMP JUMPDEST PUSH1 0x40 MLOAD DUP1 SWAP2 SUB SWAP1 REVERT JUMPDEST PUSH1 0x0 ISZERO ISZERO PUSH1 0x9 PUSH1 0x0 SWAP1 SLOAD SWAP1 PUSH2 0x100 EXP SWAP1 DIV PUSH1 0xFF AND ISZERO ISZERO SUB PUSH2 0x349 JUMPI PUSH1 0x40 MLOAD PUSH32 0x8C379A000000000000000000000000000000000000000000000000000000000 DUP2 MSTORE PUSH1 0x4 ADD PUSH2 0x340 SWAP1 PUSH2 0xC5A JUMP JUMPDEST PUSH1 0x40 MLOAD DUP1 SWAP2 SUB SWAP1 REVERT JUMPDEST PUSH1 0x5 PUSH1 0x8 SLOAD LT ISZERO DUP1 ISZERO PUSH2 0x36A JUMPI POP PUSH1 0x1E PUSH1 0x7 SLOAD PUSH2 0x366 SWAP2 SWAP1 PUSH2 0xCA9 JUMP JUMPDEST TIMESTAMP GT ISZERO JUMPDEST ISZERO PUSH2 0x3C5 JUMPI PUSH1 0x0 PUSH1 0x8 DUP2 SWAP1 SSTORE POP PUSH1 0x0 PUSH1 0x8 SLOAD EQ PUSH2 0x38A JUMPI PUSH2 0x389 PUSH2 0xCDD JUMP JUMPDEST JUMPDEST PUSH1 0x40 MLOAD PUSH32 0x8C379A000000000000000000000000000000000000000000000000000000000 DUP2 MSTORE PUSH1 0x4 ADD PUSH2 0x3BC SWAP1 PUSH2 0xD58 JUMP JUMPDEST PUSH1 0x40 MLOAD DUP1 SWAP2 SUB SWAP1 REVERT JUMPDEST PUSH1 0x5 PUSH1 0x8 SLOAD GT ISZERO DUP1 ISZERO PUSH2 0x3E6 JUMPI POP PUSH1 0x1E PUSH1 0x7 SLOAD PUSH2 0x3E2 SWAP2 SWAP1 PUSH2 0xCA9 JUMP JUMPDEST TIMESTAMP LT ISZERO JUMPDEST ISZERO PUSH2 0x40E JUMPI PUSH1 0x0 PUSH1 0x8 DUP2 SWAP1 SSTORE POP PUSH1 0x0 PUSH1 0x8 SLOAD EQ PUSH2 0x406 JUMPI PUSH2 0x405 PUSH2 0xCDD JUMP JUMPDEST JUMPDEST TIMESTAMP PUSH1 0x7 DUP2 SWAP1 SSTORE POP JUMPDEST DUP2 PUSH1 0x2 PUSH1 0x0 PUSH2 0x100 EXP DUP2 SLOAD DUP2 PUSH20 0xFFFFFFFFFFFFFFFFFFFFFFFFFFFFFFFFFFFFFFFF MUL NOT AND SWAP1 DUP4 PUSH20 0xFFFFFFFFFFFFFFFFFFFFFFFFFFFFFFFFFFFFFFFF AND MUL OR SWAP1 SSTORE POP DUP3 PUSH1 0x0 DUP2 SWAP1 SSTORE POP PUSH1 0x1 PUSH1 0x8 PUSH1 0x0 DUP3 DUP3 SLOAD PUSH2 0x469 SWAP2 SWAP1 PUSH2 0xCA9 JUMP JUMPDEST SWAP3 POP POP DUP2 SWAP1 SSTORE POP PUSH1 0x0 PUSH1 0x1 SLOAD GT DUP1 ISZERO PUSH2 0x485 JUMPI POP PUSH1 0x0 SLOAD PUSH1 0x1 SLOAD GT JUMPDEST ISZERO PUSH2 0x50A JUMPI PUSH1 0x0 SLOAD PUSH1 0x1 PUSH1 0x0 DUP3 DUP3 SLOAD PUSH2 0x49E SWAP2 SWAP1 PUSH2 0xD78 JUMP JUMPDEST SWAP3 POP POP DUP2 SWAP1 SSTORE POP PUSH1 0x0 SLOAD PUSH1 0x6 PUSH1 0x0 DUP3 DUP3 SLOAD PUSH2 0x4B9 SWAP2 SWAP1 PUSH2 0xCA9 JUMP JUMPDEST SWAP3 POP POP DUP2 SWAP1 SSTORE POP PUSH1 0x40 MLOAD DUP1 PUSH1 0x40 ADD PUSH1 0x40 MSTORE DUP1 PUSH1 0x12 DUP2 MSTORE PUSH1 0x20 ADD PUSH32 0x5472616E7366657220636F6D706C657465640000000000000000000000000000 DUP2 MSTORE POP PUSH1 0x3 SWAP1 DUP2 PUSH2 0x504 SWAP2 SWAP1 PUSH2 0xFB8 JUMP JUMPDEST POP PUSH2 0x545 JUMP JUMPDEST PUSH1 0x40 MLOAD PUSH32 0x8C379A000000000000000000000000000000000000000000000000000000000 DUP2 MSTORE PUSH1 0x4 ADD PUSH2 0x53C SWAP1 PUSH2 0x10D6 JUMP JUMPDEST PUSH1 0x40 MLOAD DUP1 SWAP2 SUB SWAP1 REVERT JUMPDEST POP POP POP JUMP JUMPDEST PUSH1 0x7 SLOAD DUP2 JUMP JUMPDEST DUP2 PUSH1 0x4 SWAP1 DUP2 PUSH2 0x55F SWAP2 SWAP1 PUSH2 0xFB8 JUMP JUMPDEST POP DUP1 PUSH1 0x5 SWAP1 DUP2 PUSH2 0x56F SWAP2 SWAP1 PUSH2 0xFB8 JUMP JUMPDEST POP PUSH1 0x1 PUSH1 0x9 PUSH1 0x0 PUSH2 0x100 EXP DUP2 SLOAD DUP2 PUSH1 0xFF MUL NOT AND SWAP1 DUP4 ISZERO ISZERO MUL OR SWAP1 SSTORE POP TIMESTAMP PUSH1 0x7 DUP2 SWAP1 SSTORE POP PUSH1 0x8 PUSH1 0x4 DUP1 SLOAD PUSH2 0x5A1 SWAP1 PUSH2 0xDDB JUMP JUMPDEST SWAP1 POP EQ DUP1 ISZERO PUSH2 0x5BE JUMPI POP PUSH1 0x3 PUSH1 0x5 DUP1 SLOAD PUSH2 0x5BA SWAP1 PUSH2 0xDDB JUMP JUMPDEST SWAP1 POP EQ JUMPDEST PUSH2 0x5FD JUMPI PUSH1 0x40 MLOAD PUSH32 0x8C379A000000000000000000000000000000000000000000000000000000000 DUP2 MSTORE PUSH1 0x4 ADD PUSH2 0x5F4 SWAP1 PUSH2 0x1142 JUMP JUMPDEST PUSH1 0x40 MLOAD DUP1 SWAP2 SUB SWAP1 REVERT JUMPDEST POP POP JUMP JUMPDEST PUSH1 0x9 PUSH1 0x0 SWAP1 SLOAD SWAP1 PUSH2 0x100 EXP SWAP1 DIV PUSH1 0xFF AND DUP2 JUMP JUMPDEST PUSH1 0x5 DUP1 SLOAD PUSH2 0x621 SWAP1 PUSH2 0xDDB JUMP JUMPDEST DUP1 PUSH1 0x1F ADD PUSH1 0x20 DUP1 SWAP2 DIV MUL PUSH1 0x20 ADD PUSH1 0x40 MLOAD SWAP1 DUP2 ADD PUSH1 0x40 MSTORE DUP1 SWAP3 SWAP2 SWAP1 DUP2 DUP2 MSTORE PUSH1 0x20 ADD DUP3 DUP1 SLOAD PUSH2 0x64D SWAP1 PUSH2 0xDDB JUMP JUMPDEST DUP1 ISZERO PUSH2 0x69A JUMPI DUP1 PUSH1 0x1F LT PUSH2 0x66F JUMPI PUSH2 0x100 DUP1 DUP4 SLOAD DIV MUL DUP4 MSTORE SWAP2 PUSH1 0x20 ADD SWAP2 PUSH2 0x69A JUMP JUMPDEST DUP3 ADD SWAP2 SWAP1 PUSH1 0x0 MSTORE PUSH1 0x20 PUSH1 0x0 KECCAK256 SWAP1 JUMPDEST DUP2 SLOAD DUP2 MSTORE SWAP1 PUSH1 0x1 ADD SWAP1 PUSH1 0x20 ADD DUP1 DUP4 GT PUSH2 0x67D JUMPI DUP3 SWAP1 SUB PUSH1 0x1F AND DUP3 ADD SWAP2 JUMPDEST POP POP POP POP POP DUP2 JUMP JUMPDEST PUSH1 0x8 SLOAD DUP2 JUMP JUMPDEST PUSH1 0x0 TIMESTAMP SWAP1 POP SWAP1 JUMP JUMPDEST PUSH1 0x1 SLOAD DUP2 JUMP JUMPDEST PUSH1 0x6 SLOAD DUP2 JUMP JUMPDEST PUSH1 0x0 PUSH1 0x9 PUSH1 0x0 PUSH2 0x100 EXP DUP2 SLOAD DUP2 PUSH1 0xFF MUL NOT AND SWAP1 DUP4 ISZERO ISZERO MUL OR SWAP1 SSTORE POP JUMP JUMPDEST PUSH1 0x4 DUP1 SLOAD PUSH2 0x6E6 SWAP1 PUSH2 0xDDB JUMP JUMPDEST DUP1 PUSH1 0x1F ADD PUSH1 0x20 DUP1 SWAP2 DIV MUL PUSH1 0x20 ADD PUSH1 0x40 MLOAD SWAP1 DUP2 ADD PUSH1 0x40 MSTORE DUP1 SWAP3 SWAP2 SWAP1 DUP2 DUP2 MSTORE PUSH1 0x20 ADD DUP3 DUP1 SLOAD PUSH2 0x712 SWAP1 PUSH2 0xDDB JUMP JUMPDEST DUP1 ISZERO PUSH2 0x75F JUMPI DUP1 PUSH1 0x1F LT PUSH2 0x734 JUMPI PUSH2 0x100 DUP1 DUP4 SLOAD DIV MUL DUP4 MSTORE SWAP2 PUSH1 0x20 ADD SWAP2 PUSH2 0x75F JUMP JUMPDEST DUP3 ADD SWAP2 SWAP1 PUSH1 0x0 MSTORE PUSH1 0x20 PUSH1 0x0 KECCAK256 SWAP1 JUMPDEST DUP2 SLOAD DUP2 MSTORE SWAP1 PUSH1 0x1 ADD SWAP1 PUSH1 0x20 ADD DUP1 DUP4 GT PUSH2 0x742 JUMPI DUP3 SWAP1 SUB PUSH1 0x1F AND DUP3 ADD SWAP2 JUMPDEST POP POP POP POP POP DUP2 JUMP JUMPDEST PUSH1 0x0 SLOAD DUP2 JUMP JUMPDEST PUSH1 0x3 DUP1 SLOAD PUSH2 0x77A SWAP1 PUSH2 0xDDB JUMP JUMPDEST DUP1 PUSH1 0x1F ADD PUSH1 0x20 DUP1 SWAP2 DIV MUL PUSH1 0x20 ADD PUSH1 0x40 MLOAD SWAP1 DUP2 ADD PUSH1 0x40 MSTORE DUP1 SWAP3 SWAP2 SWAP1 DUP2 DUP2 MSTORE PUSH1 0x20 ADD DUP3 DUP1 SLOAD PUSH2 0x7A6 SWAP1 PUSH2 0xDDB JUMP JUMPDEST DUP1 ISZERO PUSH2 0x7F3 JUMPI DUP1 PUSH1 0x1F LT PUSH2 0x7C8 JUMPI PUSH2 0x100 DUP1 DUP4 SLOAD DIV MUL DUP4 MSTORE SWAP2 PUSH1 0x20 ADD SWAP2 PUSH2 0x7F3 JUMP JUMPDEST DUP3 ADD SWAP2 SWAP1 PUSH1 0x0 MSTORE PUSH1 0x20 PUSH1 0x0 KECCAK256 SWAP1 JUMPDEST DUP2 SLOAD DUP2 MSTORE SWAP1 PUSH1 0x1 ADD SWAP1 PUSH1 0x20 ADD DUP1 DUP4 GT PUSH2 0x7D6 JUMPI DUP3 SWAP1 SUB PUSH1 0x1F AND DUP3 ADD SWAP2 JUMPDEST POP POP POP POP POP DUP2 JUMP JUMPDEST PUSH1 0x0 PUSH1 0x40 MLOAD SWAP1 POP SWAP1 JUMP JUMPDEST PUSH1 0x0 DUP1 REVERT JUMPDEST PUSH1 0x0 DUP1 REVERT JUMPDEST PUSH1 0x0 DUP2 SWAP1 POP SWAP2 SWAP1 POP JUMP JUMPDEST PUSH2 0x822 DUP2 PUSH2 0x80F JUMP JUMPDEST DUP2 EQ PUSH2 0x82D JUMPI PUSH1 0x0 DUP1 REVERT JUMPDEST POP JUMP JUMPDEST PUSH1 0x0 DUP2 CALLDATALOAD SWAP1 POP PUSH2 0x83F DUP2 PUSH2 0x819 JUMP JUMPDEST SWAP3 SWAP2 POP POP JUMP JUMPDEST PUSH1 0x0 PUSH20 0xFFFFFFFFFFFFFFFFFFFFFFFFFFFFFFFFFFFFFFFF DUP3 AND SWAP1 POP SWAP2 SWAP1 POP JUMP JUMPDEST PUSH1 0x0 PUSH2 0x870 DUP3 PUSH2 0x845 JUMP JUMPDEST SWAP1 POP SWAP2 SWAP1 POP JUMP JUMPDEST PUSH2 0x880 DUP2 PUSH2 0x865 JUMP JUMPDEST DUP2 EQ PUSH2 0x88B JUMPI PUSH1 0x0 DUP1 REVERT JUMPDEST POP JUMP JUMPDEST PUSH1 0x0 DUP2 CALLDATALOAD SWAP1 POP PUSH2 0x89D DUP2 PUSH2 0x877 JUMP JUMPDEST SWAP3 SWAP2 POP POP JUMP JUMPDEST PUSH1 0x0 DUP1 PUSH1 0x40 DUP4 DUP6 SUB SLT ISZERO PUSH2 0x8BA JUMPI PUSH2 0x8B9 PUSH2 0x805 JUMP JUMPDEST JUMPDEST PUSH1 0x0 PUSH2 0x8C8 DUP6 DUP3 DUP7 ADD PUSH2 0x830 JUMP JUMPDEST SWAP3 POP POP PUSH1 0x20 PUSH2 0x8D9 DUP6 DUP3 DUP7 ADD PUSH2 0x88E JUMP JUMPDEST SWAP2 POP POP SWAP3 POP SWAP3 SWAP1 POP JUMP JUMPDEST PUSH2 0x8EC DUP2 PUSH2 0x80F JUMP JUMPDEST DUP3 MSTORE POP POP JUMP JUMPDEST PUSH1 0x0 PUSH1 0x20 DUP3 ADD SWAP1 POP PUSH2 0x907 PUSH1 0x0 DUP4 ADD DUP5 PUSH2 0x8E3 JUMP JUMPDEST SWAP3 SWAP2 POP POP JUMP JUMPDEST PUSH1 0x0 DUP1 REVERT JUMPDEST PUSH1 0x0 DUP1 REVERT JUMPDEST PUSH1 0x0 PUSH1 0x1F NOT PUSH1 0x1F DUP4 ADD AND SWAP1 POP SWAP2 SWAP1 POP JUMP JUMPDEST PUSH32 0x4E487B7100000000000000000000000000000000000000000000000000000000 PUSH1 0x0 MSTORE PUSH1 0x41 PUSH1 0x4 MSTORE PUSH1 0x24 PUSH1 0x0 REVERT JUMPDEST PUSH2 0x960 DUP3 PUSH2 0x917 JUMP JUMPDEST DUP2 ADD DUP2 DUP2 LT PUSH8 0xFFFFFFFFFFFFFFFF DUP3 GT OR ISZERO PUSH2 0x97F JUMPI PUSH2 0x97E PUSH2 0x928 JUMP JUMPDEST JUMPDEST DUP1 PUSH1 0x40 MSTORE POP POP POP JUMP JUMPDEST PUSH1 0x0 PUSH2 0x992 PUSH2 0x7FB JUMP JUMPDEST SWAP1 POP PUSH2 0x99E DUP3 DUP3 PUSH2 0x957 JUMP JUMPDEST SWAP2 SWAP1 POP JUMP JUMPDEST PUSH1 0x0 PUSH8 0xFFFFFFFFFFFFFFFF DUP3 GT ISZERO PUSH2 0x9BE JUMPI PUSH2 0x9BD PUSH2 0x928 JUMP JUMPDEST JUMPDEST PUSH2 0x9C7 DUP3 PUSH2 0x917 JUMP JUMPDEST SWAP1 POP PUSH1 0x20 DUP2 ADD SWAP1 POP SWAP2 SWAP1 POP JUMP JUMPDEST DUP3 DUP2 DUP4 CALLDATACOPY PUSH1 0x0 DUP4 DUP4 ADD MSTORE POP POP POP JUMP JUMPDEST PUSH1 0x0 PUSH2 0x9F6 PUSH2 0x9F1 DUP5 PUSH2 0x9A3 JUMP JUMPDEST PUSH2 0x988 JUMP JUMPDEST SWAP1 POP DUP3 DUP2 MSTORE PUSH1 0x20 DUP2 ADD DUP5 DUP5 DUP5 ADD GT ISZERO PUSH2 0xA12 JUMPI PUSH2 0xA11 PUSH2 0x912 JUMP JUMPDEST JUMPDEST PUSH2 0xA1D DUP5 DUP3 DUP6 PUSH2 0x9D4 JUMP JUMPDEST POP SWAP4 SWAP3 POP POP POP JUMP JUMPDEST PUSH1 0x0 DUP3 PUSH1 0x1F DUP4 ADD SLT PUSH2 0xA3A JUMPI PUSH2 0xA39 PUSH2 0x90D JUMP JUMPDEST JUMPDEST DUP2 CALLDATALOAD PUSH2 0xA4A DUP5 DUP3 PUSH1 0x20 DUP7 ADD PUSH2 0x9E3 JUMP JUMPDEST SWAP2 POP POP SWAP3 SWAP2 POP POP JUMP JUMPDEST PUSH1 0x0 DUP1 PUSH1 0x40 DUP4 DUP6 SUB SLT ISZERO PUSH2 0xA6A JUMPI PUSH2 0xA69 PUSH2 0x805 JUMP JUMPDEST JUMPDEST PUSH1 0x0 DUP4 ADD CALLDATALOAD PUSH8 0xFFFFFFFFFFFFFFFF DUP2 GT ISZERO PUSH2 0xA88 JUMPI PUSH2 0xA87 PUSH2 0x80A JUMP JUMPDEST JUMPDEST PUSH2 0xA94 DUP6 DUP3 DUP7 ADD PUSH2 0xA25 JUMP JUMPDEST SWAP3 POP POP PUSH1 0x20 DUP4 ADD CALLDATALOAD PUSH8 0xFFFFFFFFFFFFFFFF DUP2 GT ISZERO PUSH2 0xAB5 JUMPI PUSH2 0xAB4 PUSH2 0x80A JUMP JUMPDEST JUMPDEST PUSH2 0xAC1 DUP6 DUP3 DUP7 ADD PUSH2 0xA25 JUMP JUMPDEST SWAP2 POP POP SWAP3 POP SWAP3 SWAP1 POP JUMP JUMPDEST PUSH1 0x0 DUP2 ISZERO ISZERO SWAP1 POP SWAP2 SWAP1 POP JUMP JUMPDEST PUSH2 0xAE0 DUP2 PUSH2 0xACB JUMP JUMPDEST DUP3 MSTORE POP POP JUMP JUMPDEST PUSH1 0x0 PUSH1 0x20 DUP3 ADD SWAP1 POP PUSH2 0xAFB PUSH1 0x0 DUP4 ADD DUP5 PUSH2 0xAD7 JUMP JUMPDEST SWAP3 SWAP2 POP POP JUMP JUMPDEST PUSH1 0x0 DUP2 MLOAD SWAP1 POP SWAP2 SWAP1 POP JUMP JUMPDEST PUSH1 0x0 DUP3 DUP3 MSTORE PUSH1 0x20 DUP3 ADD SWAP1 POP SWAP3 SWAP2 POP POP JUMP JUMPDEST PUSH1 0x0 JUMPDEST DUP4 DUP2 LT ISZERO PUSH2 0xB3B JUMPI DUP1 DUP3 ADD MLOAD DUP2 DUP5 ADD MSTORE PUSH1 0x20 DUP2 ADD SWAP1 POP PUSH2 0xB20 JUMP JUMPDEST PUSH1 0x0 DUP5 DUP5 ADD MSTORE POP POP POP POP JUMP JUMPDEST PUSH1 0x0 PUSH2 0xB52 DUP3 PUSH2 0xB01 JUMP JUMPDEST PUSH2 0xB5C DUP2 DUP6 PUSH2 0xB0C JUMP JUMPDEST SWAP4 POP PUSH2 0xB6C DUP2 DUP6 PUSH1 0x20 DUP7 ADD PUSH2 0xB1D JUMP JUMPDEST PUSH2 0xB75 DUP2 PUSH2 0x917 JUMP JUMPDEST DUP5 ADD SWAP2 POP POP SWAP3 SWAP2 POP POP JUMP JUMPDEST PUSH1 0x0 PUSH1 0x20 DUP3 ADD SWAP1 POP DUP2 DUP2 SUB PUSH1 0x0 DUP4 ADD MSTORE PUSH2 0xB9A DUP2 DUP5 PUSH2 0xB47 JUMP JUMPDEST SWAP1 POP SWAP3 SWAP2 POP POP JUMP JUMPDEST PUSH32 0x2054686973206164647265737320646F65736E27742065786973747300000000 PUSH1 0x0 DUP3 ADD MSTORE POP JUMP JUMPDEST PUSH1 0x0 PUSH2 0xBD8 PUSH1 0x1C DUP4 PUSH2 0xB0C JUMP JUMPDEST SWAP2 POP PUSH2 0xBE3 DUP3 PUSH2 0xBA2 JUMP JUMPDEST PUSH1 0x20 DUP3 ADD SWAP1 POP SWAP2 SWAP1 POP JUMP JUMPDEST PUSH1 0x0 PUSH1 0x20 DUP3 ADD SWAP1 POP DUP2 DUP2 SUB PUSH1 0x0 DUP4 ADD MSTORE PUSH2 0xC07 DUP2 PUSH2 0xBCB JUMP JUMPDEST SWAP1 POP SWAP2 SWAP1 POP JUMP JUMPDEST PUSH32 0x506C6561736520696E7365727420796F75722063617264000000000000000000 PUSH1 0x0 DUP3 ADD MSTORE POP JUMP JUMPDEST PUSH1 0x0 PUSH2 0xC44 PUSH1 0x17 DUP4 PUSH2 0xB0C JUMP JUMPDEST SWAP2 POP PUSH2 0xC4F DUP3 PUSH2 0xC0E JUMP JUMPDEST PUSH1 0x20 DUP3 ADD SWAP1 POP SWAP2 SWAP1 POP JUMP JUMPDEST PUSH1 0x0 PUSH1 0x20 DUP3 ADD SWAP1 POP DUP2 DUP2 SUB PUSH1 0x0 DUP4 ADD MSTORE PUSH2 0xC73 DUP2 PUSH2 0xC37 JUMP JUMPDEST SWAP1 POP SWAP2 SWAP1 POP JUMP JUMPDEST PUSH32 0x4E487B7100000000000000000000000000000000000000000000000000000000 PUSH1 0x0 MSTORE PUSH1 0x11 PUSH1 0x4 MSTORE PUSH1 0x24 PUSH1 0x0 REVERT JUMPDEST PUSH1 0x0 PUSH2 0xCB4 DUP3 PUSH2 0x80F JUMP JUMPDEST SWAP2 POP PUSH2 0xCBF DUP4 PUSH2 0x80F JUMP JUMPDEST SWAP3 POP DUP3 DUP3 ADD SWAP1 POP DUP1 DUP3 GT ISZERO PUSH2 0xCD7 JUMPI PUSH2 0xCD6 PUSH2 0xC7A JUMP JUMPDEST JUMPDEST SWAP3 SWAP2 POP POP JUMP JUMPDEST PUSH32 0x4E487B7100000000000000000000000000000000000000000000000000000000 PUSH1 0x0 MSTORE PUSH1 0x1 PUSH1 0x4 MSTORE PUSH1 0x24 PUSH1 0x0 REVERT JUMPDEST PUSH32 0x6F6E6C792035207472616E73616374696F6E7320706572206461790000000000 PUSH1 0x0 DUP3 ADD MSTORE POP JUMP JUMPDEST PUSH1 0x0 PUSH2 0xD42 PUSH1 0x1B DUP4 PUSH2 0xB0C JUMP JUMPDEST SWAP2 POP PUSH2 0xD4D DUP3 PUSH2 0xD0C JUMP JUMPDEST PUSH1 0x20 DUP3 ADD SWAP1 POP SWAP2 SWAP1 POP JUMP JUMPDEST PUSH1 0x0 PUSH1 0x20 DUP3 ADD SWAP1 POP DUP2 DUP2 SUB PUSH1 0x0 DUP4 ADD MSTORE PUSH2 0xD71 DUP2 PUSH2 0xD35 JUMP JUMPDEST SWAP1 POP SWAP2 SWAP1 POP JUMP JUMPDEST PUSH1 0x0 PUSH2 0xD83 DUP3 PUSH2 0x80F JUMP JUMPDEST SWAP2 POP PUSH2 0xD8E DUP4 PUSH2 0x80F JUMP JUMPDEST SWAP3 POP DUP3 DUP3 SUB SWAP1 POP DUP2 DUP2 GT ISZERO PUSH2 0xDA6 JUMPI PUSH2 0xDA5 PUSH2 0xC7A JUMP JUMPDEST JUMPDEST SWAP3 SWAP2 POP POP JUMP JUMPDEST PUSH32 0x4E487B7100000000000000000000000000000000000000000000000000000000 PUSH1 0x0 MSTORE PUSH1 0x22 PUSH1 0x4 MSTORE PUSH1 0x24 PUSH1 0x0 REVERT JUMPDEST PUSH1 0x0 PUSH1 0x2 DUP3 DIV SWAP1 POP PUSH1 0x1 DUP3 AND DUP1 PUSH2 0xDF3 JUMPI PUSH1 0x7F DUP3 AND SWAP2 POP JUMPDEST PUSH1 0x20 DUP3 LT DUP2 SUB PUSH2 0xE06 JUMPI PUSH2 0xE05 PUSH2 0xDAC JUMP JUMPDEST JUMPDEST POP SWAP2 SWAP1 POP JUMP JUMPDEST PUSH1 0x0 DUP2 SWAP1 POP DUP2 PUSH1 0x0 MSTORE PUSH1 0x20 PUSH1 0x0 KECCAK256 SWAP1 POP SWAP2 SWAP1 POP JUMP JUMPDEST PUSH1 0x0 PUSH1 0x20 PUSH1 0x1F DUP4 ADD DIV SWAP1 POP SWAP2 SWAP1 POP JUMP JUMPDEST PUSH1 0x0 DUP3 DUP3 SHL SWAP1 POP SWAP3 SWAP2 POP POP JUMP JUMPDEST PUSH1 0x0 PUSH1 0x8 DUP4 MUL PUSH2 0xE6E PUSH32 0xFFFFFFFFFFFFFFFFFFFFFFFFFFFFFFFFFFFFFFFFFFFFFFFFFFFFFFFFFFFFFFFF DUP3 PUSH2 0xE31 JUMP JUMPDEST PUSH2 0xE78 DUP7 DUP4 PUSH2 0xE31 JUMP JUMPDEST SWAP6 POP DUP1 NOT DUP5 AND SWAP4 POP DUP1 DUP7 AND DUP5 OR SWAP3 POP POP POP SWAP4 SWAP3 POP POP POP JUMP JUMPDEST PUSH1 0x0 DUP2 SWAP1 POP SWAP2 SWAP1 POP JUMP JUMPDEST PUSH1 0x0 PUSH2 0xEB5 PUSH2 0xEB0 PUSH2 0xEAB DUP5 PUSH2 0x80F JUMP JUMPDEST PUSH2 0xE90 JUMP JUMPDEST PUSH2 0x80F JUMP JUMPDEST SWAP1 POP SWAP2 SWAP1 POP JUMP JUMPDEST PUSH1 0x0 DUP2 SWAP1 POP SWAP2 SWAP1 POP JUMP JUMPDEST PUSH2 0xECF DUP4 PUSH2 0xE9A JUMP JUMPDEST PUSH2 0xEE3 PUSH2 0xEDB DUP3 PUSH2 0xEBC JUMP JUMPDEST DUP5 DUP5 SLOAD PUSH2 0xE3E JUMP JUMPDEST DUP3 SSTORE POP POP POP POP JUMP JUMPDEST PUSH1 0x0 SWAP1 JUMP JUMPDEST PUSH2 0xEF8 PUSH2 0xEEB JUMP JUMPDEST PUSH2 0xF03 DUP2 DUP5 DUP5 PUSH2 0xEC6 JUMP JUMPDEST POP POP POP JUMP JUMPDEST JUMPDEST DUP2 DUP2 LT ISZERO PUSH2 0xF27 JUMPI PUSH2 0xF1C PUSH1 0x0 DUP3 PUSH2 0xEF0 JUMP JUMPDEST PUSH1 0x1 DUP2 ADD SWAP1 POP PUSH2 0xF09 JUMP JUMPDEST POP POP JUMP JUMPDEST PUSH1 0x1F DUP3 GT ISZERO PUSH2 0xF6C JUMPI PUSH2 0xF3D DUP2 PUSH2 0xE0C JUMP JUMPDEST PUSH2 0xF46 DUP5 PUSH2 0xE21 JUMP JUMPDEST DUP2 ADD PUSH1 0x20 DUP6 LT ISZERO PUSH2 0xF55 JUMPI DUP2 SWAP1 POP JUMPDEST PUSH2 0xF69 PUSH2 0xF61 DUP6 PUSH2 0xE21 JUMP JUMPDEST DUP4 ADD DUP3 PUSH2 0xF08 JUMP JUMPDEST POP POP JUMPDEST POP POP POP JUMP JUMPDEST PUSH1 0x0 DUP3 DUP3 SHR SWAP1 POP SWAP3 SWAP2 POP POP JUMP JUMPDEST PUSH1 0x0 PUSH2 0xF8F PUSH1 0x0 NOT DUP5 PUSH1 0x8 MUL PUSH2 0xF71 JUMP JUMPDEST NOT DUP1 DUP4 AND SWAP2 POP POP SWAP3 SWAP2 POP POP JUMP JUMPDEST PUSH1 0x0 PUSH2 0xFA8 DUP4 DUP4 PUSH2 0xF7E JUMP JUMPDEST SWAP2 POP DUP3 PUSH1 0x2 MUL DUP3 OR SWAP1 POP SWAP3 SWAP2 POP POP JUMP JUMPDEST PUSH2 0xFC1 DUP3 PUSH2 0xB01 JUMP JUMPDEST PUSH8 0xFFFFFFFFFFFFFFFF DUP2 GT ISZERO PUSH2 0xFDA JUMPI PUSH2 0xFD9 PUSH2 0x928 JUMP JUMPDEST JUMPDEST PUSH2 0xFE4 DUP3 SLOAD PUSH2 0xDDB JUMP JUMPDEST PUSH2 0xFEF DUP3 DUP3 DUP6 PUSH2 0xF2B JUMP JUMPDEST PUSH1 0x0 PUSH1 0x20 SWAP1 POP PUSH1 0x1F DUP4 GT PUSH1 0x1 DUP2 EQ PUSH2 0x1022 JUMPI PUSH1 0x0 DUP5 ISZERO PUSH2 0x1010 JUMPI DUP3 DUP8 ADD MLOAD SWAP1 POP JUMPDEST PUSH2 0x101A DUP6 DUP3 PUSH2 0xF9C JUMP JUMPDEST DUP7 SSTORE POP PUSH2 0x1082 JUMP JUMPDEST PUSH1 0x1F NOT DUP5 AND PUSH2 0x1030 DUP7 PUSH2 0xE0C JUMP JUMPDEST PUSH1 0x0 JUMPDEST DUP3 DUP2 LT ISZERO PUSH2 0x1058 JUMPI DUP5 DUP10 ADD MLOAD DUP3 SSTORE PUSH1 0x1 DUP3 ADD SWAP2 POP PUSH1 0x20 DUP6 ADD SWAP5 POP PUSH1 0x20 DUP2 ADD SWAP1 POP PUSH2 0x1033 JUMP JUMPDEST DUP7 DUP4 LT ISZERO PUSH2 0x1075 JUMPI DUP5 DUP10 ADD MLOAD PUSH2 0x1071 PUSH1 0x1F DUP10 AND DUP3 PUSH2 0xF7E JUMP JUMPDEST DUP4 SSTORE POP JUMPDEST PUSH1 0x1 PUSH1 0x2 DUP9 MUL ADD DUP9 SSTORE POP POP POP JUMPDEST POP POP POP POP POP POP JUMP JUMPDEST PUSH32 0x4E6F7420656E6F7567682066756E647300000000000000000000000000000000 PUSH1 0x0 DUP3 ADD MSTORE POP JUMP JUMPDEST PUSH1 0x0 PUSH2 0x10C0 PUSH1 0x10 DUP4 PUSH2 0xB0C JUMP JUMPDEST SWAP2 POP PUSH2 0x10CB DUP3 PUSH2 0x108A JUMP JUMPDEST PUSH1 0x20 DUP3 ADD SWAP1 POP SWAP2 SWAP1 POP JUMP JUMPDEST PUSH1 0x0 PUSH1 0x20 DUP3 ADD SWAP1 POP DUP2 DUP2 SUB PUSH1 0x0 DUP4 ADD MSTORE PUSH2 0x10EF DUP2 PUSH2 0x10B3 JUMP JUMPDEST SWAP1 POP SWAP2 SWAP1 POP JUMP JUMPDEST PUSH32 0x4E6F2076616C6964206372656469742063617264000000000000000000000000 PUSH1 0x0 DUP3 ADD MSTORE POP JUMP JUMPDEST PUSH1 0x0 PUSH2 0x112C PUSH1 0x14 DUP4 PUSH2 0xB0C JUMP JUMPDEST SWAP2 POP PUSH2 0x1137 DUP3 PUSH2 0x10F6 JUMP JUMPDEST PUSH1 0x20 DUP3 ADD SWAP1 POP SWAP2 SWAP1 POP JUMP JUMPDEST PUSH1 0x0 PUSH1 0x20 DUP3 ADD SWAP1 POP DUP2 DUP2 SUB PUSH1 0x0 DUP4 ADD MSTORE PUSH2 0x115B DUP2 PUSH2 0x111F JUMP JUMPDEST SWAP1 POP SWAP2 SWAP1 POP JUMP INVALID LOG2 PUSH5 0x6970667358 0x22 SLT KECCAK256 DIV SELFBALANCE 0xBB EXP DUP5 BALANCE 0xCE ISZERO SSTORE BASEFEE PUSH7 0x270EF2E2213AE1 0xB7 SWAP11 0xCC PUSH6 0xCE89604DA09C GASPRICE PUSH32 0xF89D64736F6C6343000810003300000000000000000000000000000000000000 "
				},
				"gasEstimates": {
					"creation": {
						"codeDepositCost": "900800",
						"executionCost": "infinite",
						"totalCost": "infinite"
					},
					"external": {
						"TotalAmount()": "2496",
						"TotalFunds()": "2474",
						"amount()": "2495",
						"callCount()": "2540",
						"callPutCard()": "2538",
						"cardNumber()": "infinite",
						"cvv()": "infinite",
						"firstTransferTime()": "2452",
						"getOutCard()": "24433",
						"getTime()": "359",
						"message()": "infinite",
						"sendMoney(uint256,address)": "infinite",
						"setCard(string,string)": "infinite"
					}
				},
				"methodIdentifiers": {
					"TotalAmount()": "7eb9f571",
					"TotalFunds()": "7b9a3f4c",
					"amount()": "aa8c217c",
					"callCount()": "4b28f9a2",
					"callPutCard()": "3c626f00",
					"cardNumber()": "8fa11864",
					"cvv()": "42fb7936",
					"firstTransferTime()": "0e85fa72",
					"getOutCard()": "8e029c0b",
					"getTime()": "557ed1ba",
					"message()": "e21f37ce",
					"sendMoney(uint256,address)": "062a7544",
					"setCard(string,string)": "12a029a4"
				}
			},
			"storageLayout": {
				"storage": [
					{
						"astId": 3,
						"contract": "Dapp/MoneyTransfer.sol:MoneyTransfer",
						"label": "amount",
						"offset": 0,
						"slot": "0",
						"type": "t_uint256"
					},
					{
						"astId": 5,
						"contract": "Dapp/MoneyTransfer.sol:MoneyTransfer",
						"label": "TotalFunds",
						"offset": 0,
						"slot": "1",
						"type": "t_uint256"
					},
					{
						"astId": 7,
						"contract": "Dapp/MoneyTransfer.sol:MoneyTransfer",
						"label": "receiver",
						"offset": 0,
						"slot": "2",
						"type": "t_address"
					},
					{
						"astId": 9,
						"contract": "Dapp/MoneyTransfer.sol:MoneyTransfer",
						"label": "message",
						"offset": 0,
						"slot": "3",
						"type": "t_string_storage"
					},
					{
						"astId": 11,
						"contract": "Dapp/MoneyTransfer.sol:MoneyTransfer",
						"label": "cardNumber",
						"offset": 0,
						"slot": "4",
						"type": "t_string_storage"
					},
					{
						"astId": 13,
						"contract": "Dapp/MoneyTransfer.sol:MoneyTransfer",
						"label": "cvv",
						"offset": 0,
						"slot": "5",
						"type": "t_string_storage"
					},
					{
						"astId": 15,
						"contract": "Dapp/MoneyTransfer.sol:MoneyTransfer",
						"label": "TotalAmount",
						"offset": 0,
						"slot": "6",
						"type": "t_uint256"
					},
					{
						"astId": 17,
						"contract": "Dapp/MoneyTransfer.sol:MoneyTransfer",
						"label": "firstTransferTime",
						"offset": 0,
						"slot": "7",
						"type": "t_uint256"
					},
					{
						"astId": 30,
						"contract": "Dapp/MoneyTransfer.sol:MoneyTransfer",
						"label": "callCount",
						"offset": 0,
						"slot": "8",
						"type": "t_uint256"
					},
					{
						"astId": 33,
						"contract": "Dapp/MoneyTransfer.sol:MoneyTransfer",
						"label": "callPutCard",
						"offset": 0,
						"slot": "9",
						"type": "t_bool"
					}
				],
				"types": {
					"t_address": {
						"encoding": "inplace",
						"label": "address",
						"numberOfBytes": "20"
					},
					"t_bool": {
						"encoding": "inplace",
						"label": "bool",
						"numberOfBytes": "1"
					},
					"t_string_storage": {
						"encoding": "bytes",
						"label": "string",
						"numberOfBytes": "32"
					},
					"t_uint256": {
						"encoding": "inplace",
						"label": "uint256",
						"numberOfBytes": "32"
					}
				}
			},
			"userdoc": {
				"kind": "user",
				"methods": {},
				"version": 1
			}
		}
	}
}