{
	"Dapp/Transaction.sol": {
		"Transaction": {
			"abi": [
				{
					"inputs": [],
					"name": "getLastTransaction",
					"outputs": [
						{
							"components": [
								{
									"internalType": "address",
									"name": "address_from",
									"type": "address"
								},
								{
									"internalType": "address",
									"name": "address_to",
									"type": "address"
								},
								{
									"internalType": "uint256",
									"name": "amount",
									"type": "uint256"
								},
								{
									"internalType": "uint256",
									"name": "timestamp",
									"type": "uint256"
								}
							],
							"internalType": "struct Transaction.Transactions",
							"name": "",
							"type": "tuple"
						}
					],
					"stateMutability": "view",
					"type": "function"
				},
				{
					"inputs": [],
					"name": "getNumberOfTransactions",
					"outputs": [
						{
							"internalType": "uint256",
							"name": "",
							"type": "uint256"
						}
					],
					"stateMutability": "view",
					"type": "function"
				},
				{
					"inputs": [
						{
							"internalType": "uint256",
							"name": "_index",
							"type": "uint256"
						}
					],
					"name": "getTransactionById",
					"outputs": [
						{
							"components": [
								{
									"internalType": "address",
									"name": "address_from",
									"type": "address"
								},
								{
									"internalType": "address",
									"name": "address_to",
									"type": "address"
								},
								{
									"internalType": "uint256",
									"name": "amount",
									"type": "uint256"
								},
								{
									"internalType": "uint256",
									"name": "timestamp",
									"type": "uint256"
								}
							],
							"internalType": "struct Transaction.Transactions",
							"name": "",
							"type": "tuple"
						}
					],
					"stateMutability": "view",
					"type": "function"
				},
				{
					"inputs": [],
					"name": "getTransactions",
					"outputs": [
						{
							"components": [
								{
									"internalType": "address",
									"name": "address_from",
									"type": "address"
								},
								{
									"internalType": "address",
									"name": "address_to",
									"type": "address"
								},
								{
									"internalType": "uint256",
									"name": "amount",
									"type": "uint256"
								},
								{
									"internalType": "uint256",
									"name": "timestamp",
									"type": "uint256"
								}
							],
							"internalType": "struct Transaction.Transactions[]",
							"name": "",
							"type": "tuple[]"
						}
					],
					"stateMutability": "view",
					"type": "function"
				},
				{
					"inputs": [
						{
							"internalType": "uint256",
							"name": "",
							"type": "uint256"
						}
					],
					"name": "transactionList",
					"outputs": [
						{
							"internalType": "address",
							"name": "address_from",
							"type": "address"
						},
						{
							"internalType": "address",
							"name": "address_to",
							"type": "address"
						},
						{
							"internalType": "uint256",
							"name": "amount",
							"type": "uint256"
						},
						{
							"internalType": "uint256",
							"name": "timestamp",
							"type": "uint256"
						}
					],
					"stateMutability": "view",
					"type": "function"
				},
				{
					"inputs": [
						{
							"internalType": "uint256",
							"name": "",
							"type": "uint256"
						}
					],
					"name": "trn",
					"outputs": [
						{
							"internalType": "address",
							"name": "address_from",
							"type": "address"
						},
						{
							"internalType": "address",
							"name": "address_to",
							"type": "address"
						},
						{
							"internalType": "uint256",
							"name": "amount",
							"type": "uint256"
						},
						{
							"internalType": "uint256",
							"name": "timestamp",
							"type": "uint256"
						}
					],
					"stateMutability": "view",
					"type": "function"
				}
			],
			"devdoc": {
				"kind": "dev",
				"methods": {},
				"version": 1
			},
			"evm": {
				"assembly": "    /* \"Dapp/Transaction.sol\":65:1217  contract Transaction{... */\n  mstore(0x40, 0x80)\n    /* \"Dapp/Transaction.sol\":346:347  0 */\n  0x00\n    /* \"Dapp/Transaction.sol\":331:347  uint counter = 0 */\n  0x02\n  sstore\n    /* \"Dapp/Transaction.sol\":65:1217  contract Transaction{... */\n  callvalue\n  dup1\n  iszero\n  tag_1\n  jumpi\n  0x00\n  dup1\n  revert\ntag_1:\n  pop\n  dataSize(sub_0)\n  dup1\n  dataOffset(sub_0)\n  0x00\n  codecopy\n  0x00\n  return\nstop\n\nsub_0: assembly {\n        /* \"Dapp/Transaction.sol\":65:1217  contract Transaction{... */\n      mstore(0x40, 0x80)\n      callvalue\n      dup1\n      iszero\n      tag_1\n      jumpi\n      0x00\n      dup1\n      revert\n    tag_1:\n      pop\n      jumpi(tag_2, lt(calldatasize, 0x04))\n      shr(0xe0, calldataload(0x00))\n      dup1\n      0x04ef5b21\n      eq\n      tag_3\n      jumpi\n      dup1\n      0x24ba506d\n      eq\n      tag_4\n      jumpi\n      dup1\n      0x57bf72e3\n      eq\n      tag_5\n      jumpi\n      dup1\n      0x83920e90\n      eq\n      tag_6\n      jumpi\n      dup1\n      0xf4b30eaf\n      eq\n      tag_7\n      jumpi\n      dup1\n      0xf7e03fd8\n      eq\n      tag_8\n      jumpi\n    tag_2:\n      0x00\n      dup1\n      revert\n        /* \"Dapp/Transaction.sol\":237:274  Transactions[] public transactionList */\n    tag_3:\n      tag_9\n      0x04\n      dup1\n      calldatasize\n      sub\n      dup2\n      add\n      swap1\n      tag_10\n      swap2\n      swap1\n      tag_11\n      jump\t// in\n    tag_10:\n      tag_12\n      jump\t// in\n    tag_9:\n      mload(0x40)\n      tag_13\n      swap5\n      swap4\n      swap3\n      swap2\n      swap1\n      tag_14\n      jump\t// in\n    tag_13:\n      mload(0x40)\n      dup1\n      swap2\n      sub\n      swap1\n      return\n        /* \"Dapp/Transaction.sol\":961:1054  function getNumberOfTransactions() public view returns(uint){... */\n    tag_4:\n      tag_15\n      tag_16\n      jump\t// in\n    tag_15:\n      mload(0x40)\n      tag_17\n      swap2\n      swap1\n      tag_18\n      jump\t// in\n    tag_17:\n      mload(0x40)\n      dup1\n      swap2\n      sub\n      swap1\n      return\n        /* \"Dapp/Transaction.sol\":283:324  mapping (uint => Transactions) public trn */\n    tag_5:\n      tag_19\n      0x04\n      dup1\n      calldatasize\n      sub\n      dup2\n      add\n      swap1\n      tag_20\n      swap2\n      swap1\n      tag_11\n      jump\t// in\n    tag_20:\n      tag_21\n      jump\t// in\n    tag_19:\n      mload(0x40)\n      tag_22\n      swap5\n      swap4\n      swap3\n      swap2\n      swap1\n      tag_14\n      jump\t// in\n    tag_22:\n      mload(0x40)\n      dup1\n      swap2\n      sub\n      swap1\n      return\n        /* \"Dapp/Transaction.sol\":715:827  function getTransactions() public view returns(Transactions[] memory){... */\n    tag_6:\n      tag_23\n      tag_24\n      jump\t// in\n    tag_23:\n      mload(0x40)\n      tag_25\n      swap2\n      swap1\n      tag_26\n      jump\t// in\n    tag_25:\n      mload(0x40)\n      dup1\n      swap2\n      sub\n      swap1\n      return\n        /* \"Dapp/Transaction.sol\":835:953  function getTransactionById(uint _index)public view returns(Transactions memory){... */\n    tag_7:\n      tag_27\n      0x04\n      dup1\n      calldatasize\n      sub\n      dup2\n      add\n      swap1\n      tag_28\n      swap2\n      swap1\n      tag_11\n      jump\t// in\n    tag_28:\n      tag_29\n      jump\t// in\n    tag_27:\n      mload(0x40)\n      tag_30\n      swap2\n      swap1\n      tag_31\n      jump\t// in\n    tag_30:\n      mload(0x40)\n      dup1\n      swap2\n      sub\n      swap1\n      return\n        /* \"Dapp/Transaction.sol\":1062:1210  function getLastTransaction() public view returns(Transactions memory){... */\n    tag_8:\n      tag_32\n      tag_33\n      jump\t// in\n    tag_32:\n      mload(0x40)\n      tag_34\n      swap2\n      swap1\n      tag_31\n      jump\t// in\n    tag_34:\n      mload(0x40)\n      dup1\n      swap2\n      sub\n      swap1\n      return\n        /* \"Dapp/Transaction.sol\":237:274  Transactions[] public transactionList */\n    tag_12:\n      0x00\n      dup2\n      dup2\n      sload\n      dup2\n      lt\n      tag_35\n      jumpi\n      0x00\n      dup1\n      revert\n    tag_35:\n      swap1\n      0x00\n      mstore\n      keccak256(0x00, 0x20)\n      swap1\n      0x04\n      mul\n      add\n      0x00\n      swap2\n      pop\n      swap1\n      pop\n      dup1\n      0x00\n      add\n      0x00\n      swap1\n      sload\n      swap1\n      0x0100\n      exp\n      swap1\n      div\n      0xffffffffffffffffffffffffffffffffffffffff\n      and\n      swap1\n      dup1\n      0x01\n      add\n      0x00\n      swap1\n      sload\n      swap1\n      0x0100\n      exp\n      swap1\n      div\n      0xffffffffffffffffffffffffffffffffffffffff\n      and\n      swap1\n      dup1\n      0x02\n      add\n      sload\n      swap1\n      dup1\n      0x03\n      add\n      sload\n      swap1\n      pop\n      dup5\n      jump\t// out\n        /* \"Dapp/Transaction.sol\":961:1054  function getNumberOfTransactions() public view returns(uint){... */\n    tag_16:\n        /* \"Dapp/Transaction.sol\":1016:1020  uint */\n      0x00\n        /* \"Dapp/Transaction.sol\":1039:1046  counter */\n      sload(0x02)\n        /* \"Dapp/Transaction.sol\":1032:1046  return counter */\n      swap1\n      pop\n        /* \"Dapp/Transaction.sol\":961:1054  function getNumberOfTransactions() public view returns(uint){... */\n      swap1\n      jump\t// out\n        /* \"Dapp/Transaction.sol\":283:324  mapping (uint => Transactions) public trn */\n    tag_21:\n      mstore(0x20, 0x01)\n      dup1\n      0x00\n      mstore\n      keccak256(0x00, 0x40)\n      0x00\n      swap2\n      pop\n      swap1\n      pop\n      dup1\n      0x00\n      add\n      0x00\n      swap1\n      sload\n      swap1\n      0x0100\n      exp\n      swap1\n      div\n      0xffffffffffffffffffffffffffffffffffffffff\n      and\n      swap1\n      dup1\n      0x01\n      add\n      0x00\n      swap1\n      sload\n      swap1\n      0x0100\n      exp\n      swap1\n      div\n      0xffffffffffffffffffffffffffffffffffffffff\n      and\n      swap1\n      dup1\n      0x02\n      add\n      sload\n      swap1\n      dup1\n      0x03\n      add\n      sload\n      swap1\n      pop\n      dup5\n      jump\t// out\n        /* \"Dapp/Transaction.sol\":715:827  function getTransactions() public view returns(Transactions[] memory){... */\n    tag_24:\n        /* \"Dapp/Transaction.sol\":762:783  Transactions[] memory */\n      0x60\n        /* \"Dapp/Transaction.sol\":804:819  transactionList */\n      0x00\n        /* \"Dapp/Transaction.sol\":797:819  return transactionList */\n      dup1\n      sload\n      dup1\n      0x20\n      mul\n      0x20\n      add\n      mload(0x40)\n      swap1\n      dup2\n      add\n      0x40\n      mstore\n      dup1\n      swap3\n      swap2\n      swap1\n      dup2\n      dup2\n      mstore\n      0x20\n      add\n      0x00\n      swap1\n    tag_39:\n      dup3\n      dup3\n      lt\n      iszero\n      tag_40\n      jumpi\n      dup4\n      dup3\n      swap1\n      0x00\n      mstore\n      keccak256(0x00, 0x20)\n      swap1\n      0x04\n      mul\n      add\n      mload(0x40)\n      dup1\n      0x80\n      add\n      0x40\n      mstore\n      swap1\n      dup2\n      0x00\n      dup3\n      add\n      0x00\n      swap1\n      sload\n      swap1\n      0x0100\n      exp\n      swap1\n      div\n      0xffffffffffffffffffffffffffffffffffffffff\n      and\n      0xffffffffffffffffffffffffffffffffffffffff\n      and\n      0xffffffffffffffffffffffffffffffffffffffff\n      and\n      dup2\n      mstore\n      0x20\n      add\n      0x01\n      dup3\n      add\n      0x00\n      swap1\n      sload\n      swap1\n      0x0100\n      exp\n      swap1\n      div\n      0xffffffffffffffffffffffffffffffffffffffff\n      and\n      0xffffffffffffffffffffffffffffffffffffffff\n      and\n      0xffffffffffffffffffffffffffffffffffffffff\n      and\n      dup2\n      mstore\n      0x20\n      add\n      0x02\n      dup3\n      add\n      sload\n      dup2\n      mstore\n      0x20\n      add\n      0x03\n      dup3\n      add\n      sload\n      dup2\n      mstore\n      pop\n      pop\n      dup2\n      mstore\n      0x20\n      add\n      swap1\n      0x01\n      add\n      swap1\n      jump(tag_39)\n    tag_40:\n      pop\n      pop\n      pop\n      pop\n      swap1\n      pop\n        /* \"Dapp/Transaction.sol\":715:827  function getTransactions() public view returns(Transactions[] memory){... */\n      swap1\n      jump\t// out\n        /* \"Dapp/Transaction.sol\":835:953  function getTransactionById(uint _index)public view returns(Transactions memory){... */\n    tag_29:\n        /* \"Dapp/Transaction.sol\":895:914  Transactions memory */\n      tag_42\n      tag_43\n      jump\t// in\n    tag_42:\n        /* \"Dapp/Transaction.sol\":933:936  trn */\n      0x01\n        /* \"Dapp/Transaction.sol\":933:944  trn[_index] */\n      0x00\n        /* \"Dapp/Transaction.sol\":937:943  _index */\n      dup4\n        /* \"Dapp/Transaction.sol\":933:944  trn[_index] */\n      dup2\n      mstore\n      0x20\n      add\n      swap1\n      dup2\n      mstore\n      0x20\n      add\n      0x00\n      keccak256\n        /* \"Dapp/Transaction.sol\":926:944  return trn[_index] */\n      mload(0x40)\n      dup1\n      0x80\n      add\n      0x40\n      mstore\n      swap1\n      dup2\n      0x00\n      dup3\n      add\n      0x00\n      swap1\n      sload\n      swap1\n      0x0100\n      exp\n      swap1\n      div\n      0xffffffffffffffffffffffffffffffffffffffff\n      and\n      0xffffffffffffffffffffffffffffffffffffffff\n      and\n      0xffffffffffffffffffffffffffffffffffffffff\n      and\n      dup2\n      mstore\n      0x20\n      add\n      0x01\n      dup3\n      add\n      0x00\n      swap1\n      sload\n      swap1\n      0x0100\n      exp\n      swap1\n      div\n      0xffffffffffffffffffffffffffffffffffffffff\n      and\n      0xffffffffffffffffffffffffffffffffffffffff\n      and\n      0xffffffffffffffffffffffffffffffffffffffff\n      and\n      dup2\n      mstore\n      0x20\n      add\n      0x02\n      dup3\n      add\n      sload\n      dup2\n      mstore\n      0x20\n      add\n      0x03\n      dup3\n      add\n      sload\n      dup2\n      mstore\n      pop\n      pop\n      swap1\n      pop\n        /* \"Dapp/Transaction.sol\":835:953  function getTransactionById(uint _index)public view returns(Transactions memory){... */\n      swap2\n      swap1\n      pop\n      jump\t// out\n        /* \"Dapp/Transaction.sol\":1062:1210  function getLastTransaction() public view returns(Transactions memory){... */\n    tag_33:\n        /* \"Dapp/Transaction.sol\":1112:1131  Transactions memory */\n      tag_45\n      tag_43\n      jump\t// in\n    tag_45:\n        /* \"Dapp/Transaction.sol\":1143:1149  uint x */\n      0x00\n        /* \"Dapp/Transaction.sol\":1177:1178  1 */\n      0x01\n        /* \"Dapp/Transaction.sol\":1152:1167  transactionList */\n      0x00\n        /* \"Dapp/Transaction.sol\":1152:1174  transactionList.length */\n      dup1\n      sload\n      swap1\n      pop\n        /* \"Dapp/Transaction.sol\":1152:1178  transactionList.length - 1 */\n      tag_47\n      swap2\n      swap1\n      tag_48\n      jump\t// in\n    tag_47:\n        /* \"Dapp/Transaction.sol\":1143:1178  uint x = transactionList.length - 1 */\n      swap1\n      pop\n        /* \"Dapp/Transaction.sol\":1196:1199  trn */\n      0x01\n        /* \"Dapp/Transaction.sol\":1196:1202  trn[x] */\n      0x00\n        /* \"Dapp/Transaction.sol\":1200:1201  x */\n      dup3\n        /* \"Dapp/Transaction.sol\":1196:1202  trn[x] */\n      dup2\n      mstore\n      0x20\n      add\n      swap1\n      dup2\n      mstore\n      0x20\n      add\n      0x00\n      keccak256\n        /* \"Dapp/Transaction.sol\":1189:1202  return trn[x] */\n      mload(0x40)\n      dup1\n      0x80\n      add\n      0x40\n      mstore\n      swap1\n      dup2\n      0x00\n      dup3\n      add\n      0x00\n      swap1\n      sload\n      swap1\n      0x0100\n      exp\n      swap1\n      div\n      0xffffffffffffffffffffffffffffffffffffffff\n      and\n      0xffffffffffffffffffffffffffffffffffffffff\n      and\n      0xffffffffffffffffffffffffffffffffffffffff\n      and\n      dup2\n      mstore\n      0x20\n      add\n      0x01\n      dup3\n      add\n      0x00\n      swap1\n      sload\n      swap1\n      0x0100\n      exp\n      swap1\n      div\n      0xffffffffffffffffffffffffffffffffffffffff\n      and\n      0xffffffffffffffffffffffffffffffffffffffff\n      and\n      0xffffffffffffffffffffffffffffffffffffffff\n      and\n      dup2\n      mstore\n      0x20\n      add\n      0x02\n      dup3\n      add\n      sload\n      dup2\n      mstore\n      0x20\n      add\n      0x03\n      dup3\n      add\n      sload\n      dup2\n      mstore\n      pop\n      pop\n      swap2\n      pop\n      pop\n        /* \"Dapp/Transaction.sol\":1062:1210  function getLastTransaction() public view returns(Transactions memory){... */\n      swap1\n      jump\t// out\n    tag_43:\n      mload(0x40)\n      dup1\n      0x80\n      add\n      0x40\n      mstore\n      dup1\n      and(0xffffffffffffffffffffffffffffffffffffffff, 0x00)\n      dup2\n      mstore\n      0x20\n      add\n      and(0xffffffffffffffffffffffffffffffffffffffff, 0x00)\n      dup2\n      mstore\n      0x20\n      add\n      0x00\n      dup2\n      mstore\n      0x20\n      add\n      0x00\n      dup2\n      mstore\n      pop\n      swap1\n      jump\t// out\n        /* \"#utility.yul\":88:205   */\n    tag_50:\n        /* \"#utility.yul\":197:198   */\n      0x00\n        /* \"#utility.yul\":194:195   */\n      dup1\n        /* \"#utility.yul\":187:199   */\n      revert\n        /* \"#utility.yul\":334:411   */\n    tag_52:\n        /* \"#utility.yul\":371:378   */\n      0x00\n        /* \"#utility.yul\":400:405   */\n      dup2\n        /* \"#utility.yul\":389:405   */\n      swap1\n      pop\n        /* \"#utility.yul\":334:411   */\n      swap2\n      swap1\n      pop\n      jump\t// out\n        /* \"#utility.yul\":417:539   */\n    tag_53:\n        /* \"#utility.yul\":490:514   */\n      tag_76\n        /* \"#utility.yul\":508:513   */\n      dup2\n        /* \"#utility.yul\":490:514   */\n      tag_52\n      jump\t// in\n    tag_76:\n        /* \"#utility.yul\":483:488   */\n      dup2\n        /* \"#utility.yul\":480:515   */\n      eq\n        /* \"#utility.yul\":470:533   */\n      tag_77\n      jumpi\n        /* \"#utility.yul\":529:530   */\n      0x00\n        /* \"#utility.yul\":526:527   */\n      dup1\n        /* \"#utility.yul\":519:531   */\n      revert\n        /* \"#utility.yul\":470:533   */\n    tag_77:\n        /* \"#utility.yul\":417:539   */\n      pop\n      jump\t// out\n        /* \"#utility.yul\":545:684   */\n    tag_54:\n        /* \"#utility.yul\":591:596   */\n      0x00\n        /* \"#utility.yul\":629:635   */\n      dup2\n        /* \"#utility.yul\":616:636   */\n      calldataload\n        /* \"#utility.yul\":607:636   */\n      swap1\n      pop\n        /* \"#utility.yul\":645:678   */\n      tag_79\n        /* \"#utility.yul\":672:677   */\n      dup2\n        /* \"#utility.yul\":645:678   */\n      tag_53\n      jump\t// in\n    tag_79:\n        /* \"#utility.yul\":545:684   */\n      swap3\n      swap2\n      pop\n      pop\n      jump\t// out\n        /* \"#utility.yul\":690:1019   */\n    tag_11:\n        /* \"#utility.yul\":749:755   */\n      0x00\n        /* \"#utility.yul\":798:800   */\n      0x20\n        /* \"#utility.yul\":786:795   */\n      dup3\n        /* \"#utility.yul\":777:784   */\n      dup5\n        /* \"#utility.yul\":773:796   */\n      sub\n        /* \"#utility.yul\":769:801   */\n      slt\n        /* \"#utility.yul\":766:885   */\n      iszero\n      tag_81\n      jumpi\n        /* \"#utility.yul\":804:883   */\n      tag_82\n      tag_50\n      jump\t// in\n    tag_82:\n        /* \"#utility.yul\":766:885   */\n    tag_81:\n        /* \"#utility.yul\":924:925   */\n      0x00\n        /* \"#utility.yul\":949:1002   */\n      tag_83\n        /* \"#utility.yul\":994:1001   */\n      dup5\n        /* \"#utility.yul\":985:991   */\n      dup3\n        /* \"#utility.yul\":974:983   */\n      dup6\n        /* \"#utility.yul\":970:992   */\n      add\n        /* \"#utility.yul\":949:1002   */\n      tag_54\n      jump\t// in\n    tag_83:\n        /* \"#utility.yul\":939:1002   */\n      swap2\n      pop\n        /* \"#utility.yul\":895:1012   */\n      pop\n        /* \"#utility.yul\":690:1019   */\n      swap3\n      swap2\n      pop\n      pop\n      jump\t// out\n        /* \"#utility.yul\":1025:1151   */\n    tag_55:\n        /* \"#utility.yul\":1062:1069   */\n      0x00\n        /* \"#utility.yul\":1102:1144   */\n      0xffffffffffffffffffffffffffffffffffffffff\n        /* \"#utility.yul\":1095:1100   */\n      dup3\n        /* \"#utility.yul\":1091:1145   */\n      and\n        /* \"#utility.yul\":1080:1145   */\n      swap1\n      pop\n        /* \"#utility.yul\":1025:1151   */\n      swap2\n      swap1\n      pop\n      jump\t// out\n        /* \"#utility.yul\":1157:1253   */\n    tag_56:\n        /* \"#utility.yul\":1194:1201   */\n      0x00\n        /* \"#utility.yul\":1223:1247   */\n      tag_86\n        /* \"#utility.yul\":1241:1246   */\n      dup3\n        /* \"#utility.yul\":1223:1247   */\n      tag_55\n      jump\t// in\n    tag_86:\n        /* \"#utility.yul\":1212:1247   */\n      swap1\n      pop\n        /* \"#utility.yul\":1157:1253   */\n      swap2\n      swap1\n      pop\n      jump\t// out\n        /* \"#utility.yul\":1259:1377   */\n    tag_57:\n        /* \"#utility.yul\":1346:1370   */\n      tag_88\n        /* \"#utility.yul\":1364:1369   */\n      dup2\n        /* \"#utility.yul\":1346:1370   */\n      tag_56\n      jump\t// in\n    tag_88:\n        /* \"#utility.yul\":1341:1344   */\n      dup3\n        /* \"#utility.yul\":1334:1371   */\n      mstore\n        /* \"#utility.yul\":1259:1377   */\n      pop\n      pop\n      jump\t// out\n        /* \"#utility.yul\":1383:1501   */\n    tag_58:\n        /* \"#utility.yul\":1470:1494   */\n      tag_90\n        /* \"#utility.yul\":1488:1493   */\n      dup2\n        /* \"#utility.yul\":1470:1494   */\n      tag_52\n      jump\t// in\n    tag_90:\n        /* \"#utility.yul\":1465:1468   */\n      dup3\n        /* \"#utility.yul\":1458:1495   */\n      mstore\n        /* \"#utility.yul\":1383:1501   */\n      pop\n      pop\n      jump\t// out\n        /* \"#utility.yul\":1507:2060   */\n    tag_14:\n        /* \"#utility.yul\":1684:1688   */\n      0x00\n        /* \"#utility.yul\":1722:1725   */\n      0x80\n        /* \"#utility.yul\":1711:1720   */\n      dup3\n        /* \"#utility.yul\":1707:1726   */\n      add\n        /* \"#utility.yul\":1699:1726   */\n      swap1\n      pop\n        /* \"#utility.yul\":1736:1807   */\n      tag_92\n        /* \"#utility.yul\":1804:1805   */\n      0x00\n        /* \"#utility.yul\":1793:1802   */\n      dup4\n        /* \"#utility.yul\":1789:1806   */\n      add\n        /* \"#utility.yul\":1780:1786   */\n      dup8\n        /* \"#utility.yul\":1736:1807   */\n      tag_57\n      jump\t// in\n    tag_92:\n        /* \"#utility.yul\":1817:1889   */\n      tag_93\n        /* \"#utility.yul\":1885:1887   */\n      0x20\n        /* \"#utility.yul\":1874:1883   */\n      dup4\n        /* \"#utility.yul\":1870:1888   */\n      add\n        /* \"#utility.yul\":1861:1867   */\n      dup7\n        /* \"#utility.yul\":1817:1889   */\n      tag_57\n      jump\t// in\n    tag_93:\n        /* \"#utility.yul\":1899:1971   */\n      tag_94\n        /* \"#utility.yul\":1967:1969   */\n      0x40\n        /* \"#utility.yul\":1956:1965   */\n      dup4\n        /* \"#utility.yul\":1952:1970   */\n      add\n        /* \"#utility.yul\":1943:1949   */\n      dup6\n        /* \"#utility.yul\":1899:1971   */\n      tag_58\n      jump\t// in\n    tag_94:\n        /* \"#utility.yul\":1981:2053   */\n      tag_95\n        /* \"#utility.yul\":2049:2051   */\n      0x60\n        /* \"#utility.yul\":2038:2047   */\n      dup4\n        /* \"#utility.yul\":2034:2052   */\n      add\n        /* \"#utility.yul\":2025:2031   */\n      dup5\n        /* \"#utility.yul\":1981:2053   */\n      tag_58\n      jump\t// in\n    tag_95:\n        /* \"#utility.yul\":1507:2060   */\n      swap6\n      swap5\n      pop\n      pop\n      pop\n      pop\n      pop\n      jump\t// out\n        /* \"#utility.yul\":2066:2288   */\n    tag_18:\n        /* \"#utility.yul\":2159:2163   */\n      0x00\n        /* \"#utility.yul\":2197:2199   */\n      0x20\n        /* \"#utility.yul\":2186:2195   */\n      dup3\n        /* \"#utility.yul\":2182:2200   */\n      add\n        /* \"#utility.yul\":2174:2200   */\n      swap1\n      pop\n        /* \"#utility.yul\":2210:2281   */\n      tag_97\n        /* \"#utility.yul\":2278:2279   */\n      0x00\n        /* \"#utility.yul\":2267:2276   */\n      dup4\n        /* \"#utility.yul\":2263:2280   */\n      add\n        /* \"#utility.yul\":2254:2260   */\n      dup5\n        /* \"#utility.yul\":2210:2281   */\n      tag_58\n      jump\t// in\n    tag_97:\n        /* \"#utility.yul\":2066:2288   */\n      swap3\n      swap2\n      pop\n      pop\n      jump\t// out\n        /* \"#utility.yul\":2294:2437   */\n    tag_59:\n        /* \"#utility.yul\":2390:2396   */\n      0x00\n        /* \"#utility.yul\":2424:2429   */\n      dup2\n        /* \"#utility.yul\":2418:2430   */\n      mload\n        /* \"#utility.yul\":2408:2430   */\n      swap1\n      pop\n        /* \"#utility.yul\":2294:2437   */\n      swap2\n      swap1\n      pop\n      jump\t// out\n        /* \"#utility.yul\":2443:2656   */\n    tag_60:\n        /* \"#utility.yul\":2571:2582   */\n      0x00\n        /* \"#utility.yul\":2605:2611   */\n      dup3\n        /* \"#utility.yul\":2600:2603   */\n      dup3\n        /* \"#utility.yul\":2593:2612   */\n      mstore\n        /* \"#utility.yul\":2645:2649   */\n      0x20\n        /* \"#utility.yul\":2640:2643   */\n      dup3\n        /* \"#utility.yul\":2636:2650   */\n      add\n        /* \"#utility.yul\":2621:2650   */\n      swap1\n      pop\n        /* \"#utility.yul\":2443:2656   */\n      swap3\n      swap2\n      pop\n      pop\n      jump\t// out\n        /* \"#utility.yul\":2662:2823   */\n    tag_61:\n        /* \"#utility.yul\":2758:2762   */\n      0x00\n        /* \"#utility.yul\":2781:2784   */\n      dup2\n        /* \"#utility.yul\":2773:2784   */\n      swap1\n      pop\n        /* \"#utility.yul\":2811:2815   */\n      0x20\n        /* \"#utility.yul\":2806:2809   */\n      dup3\n        /* \"#utility.yul\":2802:2816   */\n      add\n        /* \"#utility.yul\":2794:2816   */\n      swap1\n      pop\n        /* \"#utility.yul\":2662:2823   */\n      swap2\n      swap1\n      pop\n      jump\t// out\n        /* \"#utility.yul\":2829:2937   */\n    tag_62:\n        /* \"#utility.yul\":2906:2930   */\n      tag_102\n        /* \"#utility.yul\":2924:2929   */\n      dup2\n        /* \"#utility.yul\":2906:2930   */\n      tag_56\n      jump\t// in\n    tag_102:\n        /* \"#utility.yul\":2901:2904   */\n      dup3\n        /* \"#utility.yul\":2894:2931   */\n      mstore\n        /* \"#utility.yul\":2829:2937   */\n      pop\n      pop\n      jump\t// out\n        /* \"#utility.yul\":2943:3051   */\n    tag_63:\n        /* \"#utility.yul\":3020:3044   */\n      tag_104\n        /* \"#utility.yul\":3038:3043   */\n      dup2\n        /* \"#utility.yul\":3020:3044   */\n      tag_52\n      jump\t// in\n    tag_104:\n        /* \"#utility.yul\":3015:3018   */\n      dup3\n        /* \"#utility.yul\":3008:3045   */\n      mstore\n        /* \"#utility.yul\":2943:3051   */\n      pop\n      pop\n      jump\t// out\n        /* \"#utility.yul\":3131:4005   */\n    tag_64:\n        /* \"#utility.yul\":3276:3280   */\n      0x80\n        /* \"#utility.yul\":3271:3274   */\n      dup3\n        /* \"#utility.yul\":3267:3281   */\n      add\n        /* \"#utility.yul\":3371:3375   */\n      0x00\n        /* \"#utility.yul\":3364:3369   */\n      dup3\n        /* \"#utility.yul\":3360:3376   */\n      add\n        /* \"#utility.yul\":3354:3377   */\n      mload\n        /* \"#utility.yul\":3390:3453   */\n      tag_106\n        /* \"#utility.yul\":3447:3451   */\n      0x00\n        /* \"#utility.yul\":3442:3445   */\n      dup6\n        /* \"#utility.yul\":3438:3452   */\n      add\n        /* \"#utility.yul\":3424:3436   */\n      dup3\n        /* \"#utility.yul\":3390:3453   */\n      tag_62\n      jump\t// in\n    tag_106:\n        /* \"#utility.yul\":3291:3463   */\n      pop\n        /* \"#utility.yul\":3551:3555   */\n      0x20\n        /* \"#utility.yul\":3544:3549   */\n      dup3\n        /* \"#utility.yul\":3540:3556   */\n      add\n        /* \"#utility.yul\":3534:3557   */\n      mload\n        /* \"#utility.yul\":3570:3633   */\n      tag_107\n        /* \"#utility.yul\":3627:3631   */\n      0x20\n        /* \"#utility.yul\":3622:3625   */\n      dup6\n        /* \"#utility.yul\":3618:3632   */\n      add\n        /* \"#utility.yul\":3604:3616   */\n      dup3\n        /* \"#utility.yul\":3570:3633   */\n      tag_62\n      jump\t// in\n    tag_107:\n        /* \"#utility.yul\":3473:3643   */\n      pop\n        /* \"#utility.yul\":3727:3731   */\n      0x40\n        /* \"#utility.yul\":3720:3725   */\n      dup3\n        /* \"#utility.yul\":3716:3732   */\n      add\n        /* \"#utility.yul\":3710:3733   */\n      mload\n        /* \"#utility.yul\":3746:3809   */\n      tag_108\n        /* \"#utility.yul\":3803:3807   */\n      0x40\n        /* \"#utility.yul\":3798:3801   */\n      dup6\n        /* \"#utility.yul\":3794:3808   */\n      add\n        /* \"#utility.yul\":3780:3792   */\n      dup3\n        /* \"#utility.yul\":3746:3809   */\n      tag_63\n      jump\t// in\n    tag_108:\n        /* \"#utility.yul\":3653:3819   */\n      pop\n        /* \"#utility.yul\":3906:3910   */\n      0x60\n        /* \"#utility.yul\":3899:3904   */\n      dup3\n        /* \"#utility.yul\":3895:3911   */\n      add\n        /* \"#utility.yul\":3889:3912   */\n      mload\n        /* \"#utility.yul\":3925:3988   */\n      tag_109\n        /* \"#utility.yul\":3982:3986   */\n      0x60\n        /* \"#utility.yul\":3977:3980   */\n      dup6\n        /* \"#utility.yul\":3973:3987   */\n      add\n        /* \"#utility.yul\":3959:3971   */\n      dup3\n        /* \"#utility.yul\":3925:3988   */\n      tag_63\n      jump\t// in\n    tag_109:\n        /* \"#utility.yul\":3829:3998   */\n      pop\n        /* \"#utility.yul\":3245:4005   */\n      pop\n        /* \"#utility.yul\":3131:4005   */\n      pop\n      pop\n      jump\t// out\n        /* \"#utility.yul\":4011:4306   */\n    tag_65:\n        /* \"#utility.yul\":4138:4148   */\n      0x00\n        /* \"#utility.yul\":4159:4263   */\n      tag_111\n        /* \"#utility.yul\":4259:4262   */\n      dup4\n        /* \"#utility.yul\":4251:4257   */\n      dup4\n        /* \"#utility.yul\":4159:4263   */\n      tag_64\n      jump\t// in\n    tag_111:\n        /* \"#utility.yul\":4295:4299   */\n      0x80\n        /* \"#utility.yul\":4290:4293   */\n      dup4\n        /* \"#utility.yul\":4286:4300   */\n      add\n        /* \"#utility.yul\":4272:4300   */\n      swap1\n      pop\n        /* \"#utility.yul\":4011:4306   */\n      swap3\n      swap2\n      pop\n      pop\n      jump\t// out\n        /* \"#utility.yul\":4312:4454   */\n    tag_66:\n        /* \"#utility.yul\":4411:4415   */\n      0x00\n        /* \"#utility.yul\":4443:4447   */\n      0x20\n        /* \"#utility.yul\":4438:4441   */\n      dup3\n        /* \"#utility.yul\":4434:4448   */\n      add\n        /* \"#utility.yul\":4426:4448   */\n      swap1\n      pop\n        /* \"#utility.yul\":4312:4454   */\n      swap2\n      swap1\n      pop\n      jump\t// out\n        /* \"#utility.yul\":4538:5502   */\n    tag_67:\n        /* \"#utility.yul\":4715:4718   */\n      0x00\n        /* \"#utility.yul\":4744:4827   */\n      tag_114\n        /* \"#utility.yul\":4821:4826   */\n      dup3\n        /* \"#utility.yul\":4744:4827   */\n      tag_59\n      jump\t// in\n    tag_114:\n        /* \"#utility.yul\":4843:4958   */\n      tag_115\n        /* \"#utility.yul\":4951:4957   */\n      dup2\n        /* \"#utility.yul\":4946:4949   */\n      dup6\n        /* \"#utility.yul\":4843:4958   */\n      tag_60\n      jump\t// in\n    tag_115:\n        /* \"#utility.yul\":4836:4958   */\n      swap4\n      pop\n        /* \"#utility.yul\":4982:5067   */\n      tag_116\n        /* \"#utility.yul\":5061:5066   */\n      dup4\n        /* \"#utility.yul\":4982:5067   */\n      tag_61\n      jump\t// in\n    tag_116:\n        /* \"#utility.yul\":5090:5097   */\n      dup1\n        /* \"#utility.yul\":5121:5122   */\n      0x00\n        /* \"#utility.yul\":5106:5477   */\n    tag_117:\n        /* \"#utility.yul\":5131:5137   */\n      dup4\n        /* \"#utility.yul\":5128:5129   */\n      dup2\n        /* \"#utility.yul\":5125:5138   */\n      lt\n        /* \"#utility.yul\":5106:5477   */\n      iszero\n      tag_119\n      jumpi\n        /* \"#utility.yul\":5207:5213   */\n      dup2\n        /* \"#utility.yul\":5201:5214   */\n      mload\n        /* \"#utility.yul\":5234:5355   */\n      tag_120\n        /* \"#utility.yul\":5351:5354   */\n      dup9\n        /* \"#utility.yul\":5336:5349   */\n      dup3\n        /* \"#utility.yul\":5234:5355   */\n      tag_65\n      jump\t// in\n    tag_120:\n        /* \"#utility.yul\":5227:5355   */\n      swap8\n      pop\n        /* \"#utility.yul\":5378:5467   */\n      tag_121\n        /* \"#utility.yul\":5460:5466   */\n      dup4\n        /* \"#utility.yul\":5378:5467   */\n      tag_66\n      jump\t// in\n    tag_121:\n        /* \"#utility.yul\":5368:5467   */\n      swap3\n      pop\n        /* \"#utility.yul\":5166:5477   */\n      pop\n        /* \"#utility.yul\":5153:5154   */\n      0x01\n        /* \"#utility.yul\":5150:5151   */\n      dup2\n        /* \"#utility.yul\":5146:5155   */\n      add\n        /* \"#utility.yul\":5141:5155   */\n      swap1\n      pop\n        /* \"#utility.yul\":5106:5477   */\n      jump(tag_117)\n    tag_119:\n        /* \"#utility.yul\":5110:5124   */\n      pop\n        /* \"#utility.yul\":5493:5496   */\n      dup6\n        /* \"#utility.yul\":5486:5496   */\n      swap4\n      pop\n        /* \"#utility.yul\":4720:5502   */\n      pop\n      pop\n      pop\n        /* \"#utility.yul\":4538:5502   */\n      swap3\n      swap2\n      pop\n      pop\n      jump\t// out\n        /* \"#utility.yul\":5508:5997   */\n    tag_26:\n        /* \"#utility.yul\":5709:5713   */\n      0x00\n        /* \"#utility.yul\":5747:5749   */\n      0x20\n        /* \"#utility.yul\":5736:5745   */\n      dup3\n        /* \"#utility.yul\":5732:5750   */\n      add\n        /* \"#utility.yul\":5724:5750   */\n      swap1\n      pop\n        /* \"#utility.yul\":5796:5805   */\n      dup2\n        /* \"#utility.yul\":5790:5794   */\n      dup2\n        /* \"#utility.yul\":5786:5806   */\n      sub\n        /* \"#utility.yul\":5782:5783   */\n      0x00\n        /* \"#utility.yul\":5771:5780   */\n      dup4\n        /* \"#utility.yul\":5767:5784   */\n      add\n        /* \"#utility.yul\":5760:5807   */\n      mstore\n        /* \"#utility.yul\":5824:5990   */\n      tag_123\n        /* \"#utility.yul\":5985:5989   */\n      dup2\n        /* \"#utility.yul\":5976:5982   */\n      dup5\n        /* \"#utility.yul\":5824:5990   */\n      tag_67\n      jump\t// in\n    tag_123:\n        /* \"#utility.yul\":5816:5990   */\n      swap1\n      pop\n        /* \"#utility.yul\":5508:5997   */\n      swap3\n      swap2\n      pop\n      pop\n      jump\t// out\n        /* \"#utility.yul\":6077:6961   */\n    tag_68:\n        /* \"#utility.yul\":6232:6236   */\n      0x80\n        /* \"#utility.yul\":6227:6230   */\n      dup3\n        /* \"#utility.yul\":6223:6237   */\n      add\n        /* \"#utility.yul\":6327:6331   */\n      0x00\n        /* \"#utility.yul\":6320:6325   */\n      dup3\n        /* \"#utility.yul\":6316:6332   */\n      add\n        /* \"#utility.yul\":6310:6333   */\n      mload\n        /* \"#utility.yul\":6346:6409   */\n      tag_125\n        /* \"#utility.yul\":6403:6407   */\n      0x00\n        /* \"#utility.yul\":6398:6401   */\n      dup6\n        /* \"#utility.yul\":6394:6408   */\n      add\n        /* \"#utility.yul\":6380:6392   */\n      dup3\n        /* \"#utility.yul\":6346:6409   */\n      tag_62\n      jump\t// in\n    tag_125:\n        /* \"#utility.yul\":6247:6419   */\n      pop\n        /* \"#utility.yul\":6507:6511   */\n      0x20\n        /* \"#utility.yul\":6500:6505   */\n      dup3\n        /* \"#utility.yul\":6496:6512   */\n      add\n        /* \"#utility.yul\":6490:6513   */\n      mload\n        /* \"#utility.yul\":6526:6589   */\n      tag_126\n        /* \"#utility.yul\":6583:6587   */\n      0x20\n        /* \"#utility.yul\":6578:6581   */\n      dup6\n        /* \"#utility.yul\":6574:6588   */\n      add\n        /* \"#utility.yul\":6560:6572   */\n      dup3\n        /* \"#utility.yul\":6526:6589   */\n      tag_62\n      jump\t// in\n    tag_126:\n        /* \"#utility.yul\":6429:6599   */\n      pop\n        /* \"#utility.yul\":6683:6687   */\n      0x40\n        /* \"#utility.yul\":6676:6681   */\n      dup3\n        /* \"#utility.yul\":6672:6688   */\n      add\n        /* \"#utility.yul\":6666:6689   */\n      mload\n        /* \"#utility.yul\":6702:6765   */\n      tag_127\n        /* \"#utility.yul\":6759:6763   */\n      0x40\n        /* \"#utility.yul\":6754:6757   */\n      dup6\n        /* \"#utility.yul\":6750:6764   */\n      add\n        /* \"#utility.yul\":6736:6748   */\n      dup3\n        /* \"#utility.yul\":6702:6765   */\n      tag_63\n      jump\t// in\n    tag_127:\n        /* \"#utility.yul\":6609:6775   */\n      pop\n        /* \"#utility.yul\":6862:6866   */\n      0x60\n        /* \"#utility.yul\":6855:6860   */\n      dup3\n        /* \"#utility.yul\":6851:6867   */\n      add\n        /* \"#utility.yul\":6845:6868   */\n      mload\n        /* \"#utility.yul\":6881:6944   */\n      tag_128\n        /* \"#utility.yul\":6938:6942   */\n      0x60\n        /* \"#utility.yul\":6933:6936   */\n      dup6\n        /* \"#utility.yul\":6929:6943   */\n      add\n        /* \"#utility.yul\":6915:6927   */\n      dup3\n        /* \"#utility.yul\":6881:6944   */\n      tag_63\n      jump\t// in\n    tag_128:\n        /* \"#utility.yul\":6785:6954   */\n      pop\n        /* \"#utility.yul\":6201:6961   */\n      pop\n        /* \"#utility.yul\":6077:6961   */\n      pop\n      pop\n      jump\t// out\n        /* \"#utility.yul\":6967:7306   */\n    tag_31:\n        /* \"#utility.yul\":7118:7122   */\n      0x00\n        /* \"#utility.yul\":7156:7159   */\n      0x80\n        /* \"#utility.yul\":7145:7154   */\n      dup3\n        /* \"#utility.yul\":7141:7160   */\n      add\n        /* \"#utility.yul\":7133:7160   */\n      swap1\n      pop\n        /* \"#utility.yul\":7170:7299   */\n      tag_130\n        /* \"#utility.yul\":7296:7297   */\n      0x00\n        /* \"#utility.yul\":7285:7294   */\n      dup4\n        /* \"#utility.yul\":7281:7298   */\n      add\n        /* \"#utility.yul\":7272:7278   */\n      dup5\n        /* \"#utility.yul\":7170:7299   */\n      tag_68\n      jump\t// in\n    tag_130:\n        /* \"#utility.yul\":6967:7306   */\n      swap3\n      swap2\n      pop\n      pop\n      jump\t// out\n        /* \"#utility.yul\":7312:7492   */\n    tag_69:\n        /* \"#utility.yul\":7360:7437   */\n      0x4e487b7100000000000000000000000000000000000000000000000000000000\n        /* \"#utility.yul\":7357:7358   */\n      0x00\n        /* \"#utility.yul\":7350:7438   */\n      mstore\n        /* \"#utility.yul\":7457:7461   */\n      0x11\n        /* \"#utility.yul\":7454:7455   */\n      0x04\n        /* \"#utility.yul\":7447:7462   */\n      mstore\n        /* \"#utility.yul\":7481:7485   */\n      0x24\n        /* \"#utility.yul\":7478:7479   */\n      0x00\n        /* \"#utility.yul\":7471:7486   */\n      revert\n        /* \"#utility.yul\":7498:7692   */\n    tag_48:\n        /* \"#utility.yul\":7538:7542   */\n      0x00\n        /* \"#utility.yul\":7558:7578   */\n      tag_133\n        /* \"#utility.yul\":7576:7577   */\n      dup3\n        /* \"#utility.yul\":7558:7578   */\n      tag_52\n      jump\t// in\n    tag_133:\n        /* \"#utility.yul\":7553:7578   */\n      swap2\n      pop\n        /* \"#utility.yul\":7592:7612   */\n      tag_134\n        /* \"#utility.yul\":7610:7611   */\n      dup4\n        /* \"#utility.yul\":7592:7612   */\n      tag_52\n      jump\t// in\n    tag_134:\n        /* \"#utility.yul\":7587:7612   */\n      swap3\n      pop\n        /* \"#utility.yul\":7636:7637   */\n      dup3\n        /* \"#utility.yul\":7633:7634   */\n      dup3\n        /* \"#utility.yul\":7629:7638   */\n      sub\n        /* \"#utility.yul\":7621:7638   */\n      swap1\n      pop\n        /* \"#utility.yul\":7660:7661   */\n      dup2\n        /* \"#utility.yul\":7654:7658   */\n      dup2\n        /* \"#utility.yul\":7651:7662   */\n      gt\n        /* \"#utility.yul\":7648:7685   */\n      iszero\n      tag_135\n      jumpi\n        /* \"#utility.yul\":7665:7683   */\n      tag_136\n      tag_69\n      jump\t// in\n    tag_136:\n        /* \"#utility.yul\":7648:7685   */\n    tag_135:\n        /* \"#utility.yul\":7498:7692   */\n      swap3\n      swap2\n      pop\n      pop\n      jump\t// out\n\n    auxdata: 0xa2646970667358221220796c5ff9bad760f97f635361471f9ac8fc6969dae6007680afd73e2861b1200164736f6c63430008100033\n}\n",
				"bytecode": {
					"linkReferences": {},
					"object": "6080604052600060025534801561001557600080fd5b50610918806100256000396000f3fe608060405234801561001057600080fd5b50600436106100625760003560e01c806304ef5b211461006757806324ba506d1461009a57806357bf72e3146100b857806383920e90146100eb578063f4b30eaf14610109578063f7e03fd814610139575b600080fd5b610081600480360381019061007c91906105ee565b610157565b604051610091949392919061066b565b60405180910390f35b6100a26101d7565b6040516100af91906106b0565b60405180910390f35b6100d260048036038101906100cd91906105ee565b6101e1565b6040516100e2949392919061066b565b60405180910390f35b6100f3610251565b60405161010091906107ed565b60405180910390f35b610123600480360381019061011e91906105ee565b610370565b6040516101309190610864565b60405180910390f35b61014161045d565b60405161014e9190610864565b60405180910390f35b6000818154811061016757600080fd5b90600052602060002090600402016000915090508060000160009054906101000a900473ffffffffffffffffffffffffffffffffffffffff16908060010160009054906101000a900473ffffffffffffffffffffffffffffffffffffffff16908060020154908060030154905084565b6000600254905090565b60016020528060005260406000206000915090508060000160009054906101000a900473ffffffffffffffffffffffffffffffffffffffff16908060010160009054906101000a900473ffffffffffffffffffffffffffffffffffffffff16908060020154908060030154905084565b60606000805480602002602001604051908101604052809291908181526020016000905b8282101561036757838290600052602060002090600402016040518060800160405290816000820160009054906101000a900473ffffffffffffffffffffffffffffffffffffffff1673ffffffffffffffffffffffffffffffffffffffff1673ffffffffffffffffffffffffffffffffffffffff1681526020016001820160009054906101000a900473ffffffffffffffffffffffffffffffffffffffff1673ffffffffffffffffffffffffffffffffffffffff1673ffffffffffffffffffffffffffffffffffffffff1681526020016002820154815260200160038201548152505081526020019060010190610275565b50505050905090565b61037861055f565b600160008381526020019081526020016000206040518060800160405290816000820160009054906101000a900473ffffffffffffffffffffffffffffffffffffffff1673ffffffffffffffffffffffffffffffffffffffff1673ffffffffffffffffffffffffffffffffffffffff1681526020016001820160009054906101000a900473ffffffffffffffffffffffffffffffffffffffff1673ffffffffffffffffffffffffffffffffffffffff1673ffffffffffffffffffffffffffffffffffffffff168152602001600282015481526020016003820154815250509050919050565b61046561055f565b6000600160008054905061047991906108ae565b9050600160008281526020019081526020016000206040518060800160405290816000820160009054906101000a900473ffffffffffffffffffffffffffffffffffffffff1673ffffffffffffffffffffffffffffffffffffffff1673ffffffffffffffffffffffffffffffffffffffff1681526020016001820160009054906101000a900473ffffffffffffffffffffffffffffffffffffffff1673ffffffffffffffffffffffffffffffffffffffff1673ffffffffffffffffffffffffffffffffffffffff1681526020016002820154815260200160038201548152505091505090565b6040518060800160405280600073ffffffffffffffffffffffffffffffffffffffff168152602001600073ffffffffffffffffffffffffffffffffffffffff16815260200160008152602001600081525090565b600080fd5b6000819050919050565b6105cb816105b8565b81146105d657600080fd5b50565b6000813590506105e8816105c2565b92915050565b600060208284031215610604576106036105b3565b5b6000610612848285016105d9565b91505092915050565b600073ffffffffffffffffffffffffffffffffffffffff82169050919050565b60006106468261061b565b9050919050565b6106568161063b565b82525050565b610665816105b8565b82525050565b6000608082019050610680600083018761064d565b61068d602083018661064d565b61069a604083018561065c565b6106a7606083018461065c565b95945050505050565b60006020820190506106c5600083018461065c565b92915050565b600081519050919050565b600082825260208201905092915050565b6000819050602082019050919050565b6107008161063b565b82525050565b61070f816105b8565b82525050565b60808201600082015161072b60008501826106f7565b50602082015161073e60208501826106f7565b5060408201516107516040850182610706565b5060608201516107646060850182610706565b50505050565b60006107768383610715565b60808301905092915050565b6000602082019050919050565b600061079a826106cb565b6107a481856106d6565b93506107af836106e7565b8060005b838110156107e05781516107c7888261076a565b97506107d283610782565b9250506001810190506107b3565b5085935050505092915050565b60006020820190508181036000830152610807818461078f565b905092915050565b60808201600082015161082560008501826106f7565b50602082015161083860208501826106f7565b50604082015161084b6040850182610706565b50606082015161085e6060850182610706565b50505050565b6000608082019050610879600083018461080f565b92915050565b7f4e487b7100000000000000000000000000000000000000000000000000000000600052601160045260246000fd5b60006108b9826105b8565b91506108c4836105b8565b92508282039050818111156108dc576108db61087f565b5b9291505056fea2646970667358221220796c5ff9bad760f97f635361471f9ac8fc6969dae6007680afd73e2861b1200164736f6c63430008100033",
					"opcodes": "PUSH1 0x80 PUSH1 0x40 MSTORE PUSH1 0x0 PUSH1 0x2 SSTORE CALLVALUE DUP1 ISZERO PUSH2 0x15 JUMPI PUSH1 0x0 DUP1 REVERT JUMPDEST POP PUSH2 0x918 DUP1 PUSH2 0x25 PUSH1 0x0 CODECOPY PUSH1 0x0 RETURN INVALID PUSH1 0x80 PUSH1 0x40 MSTORE CALLVALUE DUP1 ISZERO PUSH2 0x10 JUMPI PUSH1 0x0 DUP1 REVERT JUMPDEST POP PUSH1 0x4 CALLDATASIZE LT PUSH2 0x62 JUMPI PUSH1 0x0 CALLDATALOAD PUSH1 0xE0 SHR DUP1 PUSH4 0x4EF5B21 EQ PUSH2 0x67 JUMPI DUP1 PUSH4 0x24BA506D EQ PUSH2 0x9A JUMPI DUP1 PUSH4 0x57BF72E3 EQ PUSH2 0xB8 JUMPI DUP1 PUSH4 0x83920E90 EQ PUSH2 0xEB JUMPI DUP1 PUSH4 0xF4B30EAF EQ PUSH2 0x109 JUMPI DUP1 PUSH4 0xF7E03FD8 EQ PUSH2 0x139 JUMPI JUMPDEST PUSH1 0x0 DUP1 REVERT JUMPDEST PUSH2 0x81 PUSH1 0x4 DUP1 CALLDATASIZE SUB DUP2 ADD SWAP1 PUSH2 0x7C SWAP2 SWAP1 PUSH2 0x5EE JUMP JUMPDEST PUSH2 0x157 JUMP JUMPDEST PUSH1 0x40 MLOAD PUSH2 0x91 SWAP5 SWAP4 SWAP3 SWAP2 SWAP1 PUSH2 0x66B JUMP JUMPDEST PUSH1 0x40 MLOAD DUP1 SWAP2 SUB SWAP1 RETURN JUMPDEST PUSH2 0xA2 PUSH2 0x1D7 JUMP JUMPDEST PUSH1 0x40 MLOAD PUSH2 0xAF SWAP2 SWAP1 PUSH2 0x6B0 JUMP JUMPDEST PUSH1 0x40 MLOAD DUP1 SWAP2 SUB SWAP1 RETURN JUMPDEST PUSH2 0xD2 PUSH1 0x4 DUP1 CALLDATASIZE SUB DUP2 ADD SWAP1 PUSH2 0xCD SWAP2 SWAP1 PUSH2 0x5EE JUMP JUMPDEST PUSH2 0x1E1 JUMP JUMPDEST PUSH1 0x40 MLOAD PUSH2 0xE2 SWAP5 SWAP4 SWAP3 SWAP2 SWAP1 PUSH2 0x66B JUMP JUMPDEST PUSH1 0x40 MLOAD DUP1 SWAP2 SUB SWAP1 RETURN JUMPDEST PUSH2 0xF3 PUSH2 0x251 JUMP JUMPDEST PUSH1 0x40 MLOAD PUSH2 0x100 SWAP2 SWAP1 PUSH2 0x7ED JUMP JUMPDEST PUSH1 0x40 MLOAD DUP1 SWAP2 SUB SWAP1 RETURN JUMPDEST PUSH2 0x123 PUSH1 0x4 DUP1 CALLDATASIZE SUB DUP2 ADD SWAP1 PUSH2 0x11E SWAP2 SWAP1 PUSH2 0x5EE JUMP JUMPDEST PUSH2 0x370 JUMP JUMPDEST PUSH1 0x40 MLOAD PUSH2 0x130 SWAP2 SWAP1 PUSH2 0x864 JUMP JUMPDEST PUSH1 0x40 MLOAD DUP1 SWAP2 SUB SWAP1 RETURN JUMPDEST PUSH2 0x141 PUSH2 0x45D JUMP JUMPDEST PUSH1 0x40 MLOAD PUSH2 0x14E SWAP2 SWAP1 PUSH2 0x864 JUMP JUMPDEST PUSH1 0x40 MLOAD DUP1 SWAP2 SUB SWAP1 RETURN JUMPDEST PUSH1 0x0 DUP2 DUP2 SLOAD DUP2 LT PUSH2 0x167 JUMPI PUSH1 0x0 DUP1 REVERT JUMPDEST SWAP1 PUSH1 0x0 MSTORE PUSH1 0x20 PUSH1 0x0 KECCAK256 SWAP1 PUSH1 0x4 MUL ADD PUSH1 0x0 SWAP2 POP SWAP1 POP DUP1 PUSH1 0x0 ADD PUSH1 0x0 SWAP1 SLOAD SWAP1 PUSH2 0x100 EXP SWAP1 DIV PUSH20 0xFFFFFFFFFFFFFFFFFFFFFFFFFFFFFFFFFFFFFFFF AND SWAP1 DUP1 PUSH1 0x1 ADD PUSH1 0x0 SWAP1 SLOAD SWAP1 PUSH2 0x100 EXP SWAP1 DIV PUSH20 0xFFFFFFFFFFFFFFFFFFFFFFFFFFFFFFFFFFFFFFFF AND SWAP1 DUP1 PUSH1 0x2 ADD SLOAD SWAP1 DUP1 PUSH1 0x3 ADD SLOAD SWAP1 POP DUP5 JUMP JUMPDEST PUSH1 0x0 PUSH1 0x2 SLOAD SWAP1 POP SWAP1 JUMP JUMPDEST PUSH1 0x1 PUSH1 0x20 MSTORE DUP1 PUSH1 0x0 MSTORE PUSH1 0x40 PUSH1 0x0 KECCAK256 PUSH1 0x0 SWAP2 POP SWAP1 POP DUP1 PUSH1 0x0 ADD PUSH1 0x0 SWAP1 SLOAD SWAP1 PUSH2 0x100 EXP SWAP1 DIV PUSH20 0xFFFFFFFFFFFFFFFFFFFFFFFFFFFFFFFFFFFFFFFF AND SWAP1 DUP1 PUSH1 0x1 ADD PUSH1 0x0 SWAP1 SLOAD SWAP1 PUSH2 0x100 EXP SWAP1 DIV PUSH20 0xFFFFFFFFFFFFFFFFFFFFFFFFFFFFFFFFFFFFFFFF AND SWAP1 DUP1 PUSH1 0x2 ADD SLOAD SWAP1 DUP1 PUSH1 0x3 ADD SLOAD SWAP1 POP DUP5 JUMP JUMPDEST PUSH1 0x60 PUSH1 0x0 DUP1 SLOAD DUP1 PUSH1 0x20 MUL PUSH1 0x20 ADD PUSH1 0x40 MLOAD SWAP1 DUP2 ADD PUSH1 0x40 MSTORE DUP1 SWAP3 SWAP2 SWAP1 DUP2 DUP2 MSTORE PUSH1 0x20 ADD PUSH1 0x0 SWAP1 JUMPDEST DUP3 DUP3 LT ISZERO PUSH2 0x367 JUMPI DUP4 DUP3 SWAP1 PUSH1 0x0 MSTORE PUSH1 0x20 PUSH1 0x0 KECCAK256 SWAP1 PUSH1 0x4 MUL ADD PUSH1 0x40 MLOAD DUP1 PUSH1 0x80 ADD PUSH1 0x40 MSTORE SWAP1 DUP2 PUSH1 0x0 DUP3 ADD PUSH1 0x0 SWAP1 SLOAD SWAP1 PUSH2 0x100 EXP SWAP1 DIV PUSH20 0xFFFFFFFFFFFFFFFFFFFFFFFFFFFFFFFFFFFFFFFF AND PUSH20 0xFFFFFFFFFFFFFFFFFFFFFFFFFFFFFFFFFFFFFFFF AND PUSH20 0xFFFFFFFFFFFFFFFFFFFFFFFFFFFFFFFFFFFFFFFF AND DUP2 MSTORE PUSH1 0x20 ADD PUSH1 0x1 DUP3 ADD PUSH1 0x0 SWAP1 SLOAD SWAP1 PUSH2 0x100 EXP SWAP1 DIV PUSH20 0xFFFFFFFFFFFFFFFFFFFFFFFFFFFFFFFFFFFFFFFF AND PUSH20 0xFFFFFFFFFFFFFFFFFFFFFFFFFFFFFFFFFFFFFFFF AND PUSH20 0xFFFFFFFFFFFFFFFFFFFFFFFFFFFFFFFFFFFFFFFF AND DUP2 MSTORE PUSH1 0x20 ADD PUSH1 0x2 DUP3 ADD SLOAD DUP2 MSTORE PUSH1 0x20 ADD PUSH1 0x3 DUP3 ADD SLOAD DUP2 MSTORE POP POP DUP2 MSTORE PUSH1 0x20 ADD SWAP1 PUSH1 0x1 ADD SWAP1 PUSH2 0x275 JUMP JUMPDEST POP POP POP POP SWAP1 POP SWAP1 JUMP JUMPDEST PUSH2 0x378 PUSH2 0x55F JUMP JUMPDEST PUSH1 0x1 PUSH1 0x0 DUP4 DUP2 MSTORE PUSH1 0x20 ADD SWAP1 DUP2 MSTORE PUSH1 0x20 ADD PUSH1 0x0 KECCAK256 PUSH1 0x40 MLOAD DUP1 PUSH1 0x80 ADD PUSH1 0x40 MSTORE SWAP1 DUP2 PUSH1 0x0 DUP3 ADD PUSH1 0x0 SWAP1 SLOAD SWAP1 PUSH2 0x100 EXP SWAP1 DIV PUSH20 0xFFFFFFFFFFFFFFFFFFFFFFFFFFFFFFFFFFFFFFFF AND PUSH20 0xFFFFFFFFFFFFFFFFFFFFFFFFFFFFFFFFFFFFFFFF AND PUSH20 0xFFFFFFFFFFFFFFFFFFFFFFFFFFFFFFFFFFFFFFFF AND DUP2 MSTORE PUSH1 0x20 ADD PUSH1 0x1 DUP3 ADD PUSH1 0x0 SWAP1 SLOAD SWAP1 PUSH2 0x100 EXP SWAP1 DIV PUSH20 0xFFFFFFFFFFFFFFFFFFFFFFFFFFFFFFFFFFFFFFFF AND PUSH20 0xFFFFFFFFFFFFFFFFFFFFFFFFFFFFFFFFFFFFFFFF AND PUSH20 0xFFFFFFFFFFFFFFFFFFFFFFFFFFFFFFFFFFFFFFFF AND DUP2 MSTORE PUSH1 0x20 ADD PUSH1 0x2 DUP3 ADD SLOAD DUP2 MSTORE PUSH1 0x20 ADD PUSH1 0x3 DUP3 ADD SLOAD DUP2 MSTORE POP POP SWAP1 POP SWAP2 SWAP1 POP JUMP JUMPDEST PUSH2 0x465 PUSH2 0x55F JUMP JUMPDEST PUSH1 0x0 PUSH1 0x1 PUSH1 0x0 DUP1 SLOAD SWAP1 POP PUSH2 0x479 SWAP2 SWAP1 PUSH2 0x8AE JUMP JUMPDEST SWAP1 POP PUSH1 0x1 PUSH1 0x0 DUP3 DUP2 MSTORE PUSH1 0x20 ADD SWAP1 DUP2 MSTORE PUSH1 0x20 ADD PUSH1 0x0 KECCAK256 PUSH1 0x40 MLOAD DUP1 PUSH1 0x80 ADD PUSH1 0x40 MSTORE SWAP1 DUP2 PUSH1 0x0 DUP3 ADD PUSH1 0x0 SWAP1 SLOAD SWAP1 PUSH2 0x100 EXP SWAP1 DIV PUSH20 0xFFFFFFFFFFFFFFFFFFFFFFFFFFFFFFFFFFFFFFFF AND PUSH20 0xFFFFFFFFFFFFFFFFFFFFFFFFFFFFFFFFFFFFFFFF AND PUSH20 0xFFFFFFFFFFFFFFFFFFFFFFFFFFFFFFFFFFFFFFFF AND DUP2 MSTORE PUSH1 0x20 ADD PUSH1 0x1 DUP3 ADD PUSH1 0x0 SWAP1 SLOAD SWAP1 PUSH2 0x100 EXP SWAP1 DIV PUSH20 0xFFFFFFFFFFFFFFFFFFFFFFFFFFFFFFFFFFFFFFFF AND PUSH20 0xFFFFFFFFFFFFFFFFFFFFFFFFFFFFFFFFFFFFFFFF AND PUSH20 0xFFFFFFFFFFFFFFFFFFFFFFFFFFFFFFFFFFFFFFFF AND DUP2 MSTORE PUSH1 0x20 ADD PUSH1 0x2 DUP3 ADD SLOAD DUP2 MSTORE PUSH1 0x20 ADD PUSH1 0x3 DUP3 ADD SLOAD DUP2 MSTORE POP POP SWAP2 POP POP SWAP1 JUMP JUMPDEST PUSH1 0x40 MLOAD DUP1 PUSH1 0x80 ADD PUSH1 0x40 MSTORE DUP1 PUSH1 0x0 PUSH20 0xFFFFFFFFFFFFFFFFFFFFFFFFFFFFFFFFFFFFFFFF AND DUP2 MSTORE PUSH1 0x20 ADD PUSH1 0x0 PUSH20 0xFFFFFFFFFFFFFFFFFFFFFFFFFFFFFFFFFFFFFFFF AND DUP2 MSTORE PUSH1 0x20 ADD PUSH1 0x0 DUP2 MSTORE PUSH1 0x20 ADD PUSH1 0x0 DUP2 MSTORE POP SWAP1 JUMP JUMPDEST PUSH1 0x0 DUP1 REVERT JUMPDEST PUSH1 0x0 DUP2 SWAP1 POP SWAP2 SWAP1 POP JUMP JUMPDEST PUSH2 0x5CB DUP2 PUSH2 0x5B8 JUMP JUMPDEST DUP2 EQ PUSH2 0x5D6 JUMPI PUSH1 0x0 DUP1 REVERT JUMPDEST POP JUMP JUMPDEST PUSH1 0x0 DUP2 CALLDATALOAD SWAP1 POP PUSH2 0x5E8 DUP2 PUSH2 0x5C2 JUMP JUMPDEST SWAP3 SWAP2 POP POP JUMP JUMPDEST PUSH1 0x0 PUSH1 0x20 DUP3 DUP5 SUB SLT ISZERO PUSH2 0x604 JUMPI PUSH2 0x603 PUSH2 0x5B3 JUMP JUMPDEST JUMPDEST PUSH1 0x0 PUSH2 0x612 DUP5 DUP3 DUP6 ADD PUSH2 0x5D9 JUMP JUMPDEST SWAP2 POP POP SWAP3 SWAP2 POP POP JUMP JUMPDEST PUSH1 0x0 PUSH20 0xFFFFFFFFFFFFFFFFFFFFFFFFFFFFFFFFFFFFFFFF DUP3 AND SWAP1 POP SWAP2 SWAP1 POP JUMP JUMPDEST PUSH1 0x0 PUSH2 0x646 DUP3 PUSH2 0x61B JUMP JUMPDEST SWAP1 POP SWAP2 SWAP1 POP JUMP JUMPDEST PUSH2 0x656 DUP2 PUSH2 0x63B JUMP JUMPDEST DUP3 MSTORE POP POP JUMP JUMPDEST PUSH2 0x665 DUP2 PUSH2 0x5B8 JUMP JUMPDEST DUP3 MSTORE POP POP JUMP JUMPDEST PUSH1 0x0 PUSH1 0x80 DUP3 ADD SWAP1 POP PUSH2 0x680 PUSH1 0x0 DUP4 ADD DUP8 PUSH2 0x64D JUMP JUMPDEST PUSH2 0x68D PUSH1 0x20 DUP4 ADD DUP7 PUSH2 0x64D JUMP JUMPDEST PUSH2 0x69A PUSH1 0x40 DUP4 ADD DUP6 PUSH2 0x65C JUMP JUMPDEST PUSH2 0x6A7 PUSH1 0x60 DUP4 ADD DUP5 PUSH2 0x65C JUMP JUMPDEST SWAP6 SWAP5 POP POP POP POP POP JUMP JUMPDEST PUSH1 0x0 PUSH1 0x20 DUP3 ADD SWAP1 POP PUSH2 0x6C5 PUSH1 0x0 DUP4 ADD DUP5 PUSH2 0x65C JUMP JUMPDEST SWAP3 SWAP2 POP POP JUMP JUMPDEST PUSH1 0x0 DUP2 MLOAD SWAP1 POP SWAP2 SWAP1 POP JUMP JUMPDEST PUSH1 0x0 DUP3 DUP3 MSTORE PUSH1 0x20 DUP3 ADD SWAP1 POP SWAP3 SWAP2 POP POP JUMP JUMPDEST PUSH1 0x0 DUP2 SWAP1 POP PUSH1 0x20 DUP3 ADD SWAP1 POP SWAP2 SWAP1 POP JUMP JUMPDEST PUSH2 0x700 DUP2 PUSH2 0x63B JUMP JUMPDEST DUP3 MSTORE POP POP JUMP JUMPDEST PUSH2 0x70F DUP2 PUSH2 0x5B8 JUMP JUMPDEST DUP3 MSTORE POP POP JUMP JUMPDEST PUSH1 0x80 DUP3 ADD PUSH1 0x0 DUP3 ADD MLOAD PUSH2 0x72B PUSH1 0x0 DUP6 ADD DUP3 PUSH2 0x6F7 JUMP JUMPDEST POP PUSH1 0x20 DUP3 ADD MLOAD PUSH2 0x73E PUSH1 0x20 DUP6 ADD DUP3 PUSH2 0x6F7 JUMP JUMPDEST POP PUSH1 0x40 DUP3 ADD MLOAD PUSH2 0x751 PUSH1 0x40 DUP6 ADD DUP3 PUSH2 0x706 JUMP JUMPDEST POP PUSH1 0x60 DUP3 ADD MLOAD PUSH2 0x764 PUSH1 0x60 DUP6 ADD DUP3 PUSH2 0x706 JUMP JUMPDEST POP POP POP POP JUMP JUMPDEST PUSH1 0x0 PUSH2 0x776 DUP4 DUP4 PUSH2 0x715 JUMP JUMPDEST PUSH1 0x80 DUP4 ADD SWAP1 POP SWAP3 SWAP2 POP POP JUMP JUMPDEST PUSH1 0x0 PUSH1 0x20 DUP3 ADD SWAP1 POP SWAP2 SWAP1 POP JUMP JUMPDEST PUSH1 0x0 PUSH2 0x79A DUP3 PUSH2 0x6CB JUMP JUMPDEST PUSH2 0x7A4 DUP2 DUP6 PUSH2 0x6D6 JUMP JUMPDEST SWAP4 POP PUSH2 0x7AF DUP4 PUSH2 0x6E7 JUMP JUMPDEST DUP1 PUSH1 0x0 JUMPDEST DUP4 DUP2 LT ISZERO PUSH2 0x7E0 JUMPI DUP2 MLOAD PUSH2 0x7C7 DUP9 DUP3 PUSH2 0x76A JUMP JUMPDEST SWAP8 POP PUSH2 0x7D2 DUP4 PUSH2 0x782 JUMP JUMPDEST SWAP3 POP POP PUSH1 0x1 DUP2 ADD SWAP1 POP PUSH2 0x7B3 JUMP JUMPDEST POP DUP6 SWAP4 POP POP POP POP SWAP3 SWAP2 POP POP JUMP JUMPDEST PUSH1 0x0 PUSH1 0x20 DUP3 ADD SWAP1 POP DUP2 DUP2 SUB PUSH1 0x0 DUP4 ADD MSTORE PUSH2 0x807 DUP2 DUP5 PUSH2 0x78F JUMP JUMPDEST SWAP1 POP SWAP3 SWAP2 POP POP JUMP JUMPDEST PUSH1 0x80 DUP3 ADD PUSH1 0x0 DUP3 ADD MLOAD PUSH2 0x825 PUSH1 0x0 DUP6 ADD DUP3 PUSH2 0x6F7 JUMP JUMPDEST POP PUSH1 0x20 DUP3 ADD MLOAD PUSH2 0x838 PUSH1 0x20 DUP6 ADD DUP3 PUSH2 0x6F7 JUMP JUMPDEST POP PUSH1 0x40 DUP3 ADD MLOAD PUSH2 0x84B PUSH1 0x40 DUP6 ADD DUP3 PUSH2 0x706 JUMP JUMPDEST POP PUSH1 0x60 DUP3 ADD MLOAD PUSH2 0x85E PUSH1 0x60 DUP6 ADD DUP3 PUSH2 0x706 JUMP JUMPDEST POP POP POP POP JUMP JUMPDEST PUSH1 0x0 PUSH1 0x80 DUP3 ADD SWAP1 POP PUSH2 0x879 PUSH1 0x0 DUP4 ADD DUP5 PUSH2 0x80F JUMP JUMPDEST SWAP3 SWAP2 POP POP JUMP JUMPDEST PUSH32 0x4E487B7100000000000000000000000000000000000000000000000000000000 PUSH1 0x0 MSTORE PUSH1 0x11 PUSH1 0x4 MSTORE PUSH1 0x24 PUSH1 0x0 REVERT JUMPDEST PUSH1 0x0 PUSH2 0x8B9 DUP3 PUSH2 0x5B8 JUMP JUMPDEST SWAP2 POP PUSH2 0x8C4 DUP4 PUSH2 0x5B8 JUMP JUMPDEST SWAP3 POP DUP3 DUP3 SUB SWAP1 POP DUP2 DUP2 GT ISZERO PUSH2 0x8DC JUMPI PUSH2 0x8DB PUSH2 0x87F JUMP JUMPDEST JUMPDEST SWAP3 SWAP2 POP POP JUMP INVALID LOG2 PUSH5 0x6970667358 0x22 SLT KECCAK256 PUSH26 0x6C5FF9BAD760F97F635361471F9AC8FC6969DAE6007680AFD73E 0x28 PUSH2 0xB120 ADD PUSH5 0x736F6C6343 STOP ADDMOD LT STOP CALLER "
				},
				"gasEstimates": {
					"creation": {
						"codeDepositCost": "465600",
						"executionCost": "5505",
						"totalCost": "471105"
					},
					"external": {
						"getLastTransaction()": "infinite",
						"getNumberOfTransactions()": "2437",
						"getTransactionById(uint256)": "infinite",
						"getTransactions()": "infinite",
						"transactionList(uint256)": "infinite",
						"trn(uint256)": "infinite"
					},
					"internal": {
						"addTransaction(address,address,uint256,uint256)": "infinite"
					}
				},
				"methodIdentifiers": {
					"getLastTransaction()": "f7e03fd8",
					"getNumberOfTransactions()": "24ba506d",
					"getTransactionById(uint256)": "f4b30eaf",
					"getTransactions()": "83920e90",
					"transactionList(uint256)": "04ef5b21",
					"trn(uint256)": "57bf72e3"
				}
			},
			"storageLayout": {
				"storage": [
					{
						"astId": 321,
						"contract": "Dapp/Transaction.sol:Transaction",
						"label": "transactionList",
						"offset": 0,
						"slot": "0",
						"type": "t_array(t_struct(Transactions)317_storage)dyn_storage"
					},
					{
						"astId": 326,
						"contract": "Dapp/Transaction.sol:Transaction",
						"label": "trn",
						"offset": 0,
						"slot": "1",
						"type": "t_mapping(t_uint256,t_struct(Transactions)317_storage)"
					},
					{
						"astId": 329,
						"contract": "Dapp/Transaction.sol:Transaction",
						"label": "counter",
						"offset": 0,
						"slot": "2",
						"type": "t_uint256"
					}
				],
				"types": {
					"t_address": {
						"encoding": "inplace",
						"label": "address",
						"numberOfBytes": "20"
					},
					"t_array(t_struct(Transactions)317_storage)dyn_storage": {
						"base": "t_struct(Transactions)317_storage",
						"encoding": "dynamic_array",
						"label": "struct Transaction.Transactions[]",
						"numberOfBytes": "32"
					},
					"t_mapping(t_uint256,t_struct(Transactions)317_storage)": {
						"encoding": "mapping",
						"key": "t_uint256",
						"label": "mapping(uint256 => struct Transaction.Transactions)",
						"numberOfBytes": "32",
						"value": "t_struct(Transactions)317_storage"
					},
					"t_struct(Transactions)317_storage": {
						"encoding": "inplace",
						"label": "struct Transaction.Transactions",
						"members": [
							{
								"astId": 310,
								"contract": "Dapp/Transaction.sol:Transaction",
								"label": "address_from",
								"offset": 0,
								"slot": "0",
								"type": "t_address"
							},
							{
								"astId": 312,
								"contract": "Dapp/Transaction.sol:Transaction",
								"label": "address_to",
								"offset": 0,
								"slot": "1",
								"type": "t_address"
							},
							{
								"astId": 314,
								"contract": "Dapp/Transaction.sol:Transaction",
								"label": "amount",
								"offset": 0,
								"slot": "2",
								"type": "t_uint256"
							},
							{
								"astId": 316,
								"contract": "Dapp/Transaction.sol:Transaction",
								"label": "timestamp",
								"offset": 0,
								"slot": "3",
								"type": "t_uint256"
							}
						],
						"numberOfBytes": "128"
					},
					"t_uint256": {
						"encoding": "inplace",
						"label": "uint256",
						"numberOfBytes": "32"
					}
				}
			},
			"userdoc": {
				"kind": "user",
				"methods": {},
				"version": 1
			}
		}
	}
}