{
	"Dapp/MoneyTransfer.sol": {
		"MoneyTransfer": {
			"abi": [
				{
					"inputs": [
						{
							"internalType": "uint256",
							"name": "_totalFunds",
							"type": "uint256"
						}
					],
					"stateMutability": "nonpayable",
					"type": "constructor"
				},
				{
					"inputs": [],
					"name": "TotalAmount",
					"outputs": [
						{
							"internalType": "uint256",
							"name": "",
							"type": "uint256"
						}
					],
					"stateMutability": "view",
					"type": "function"
				},
				{
					"inputs": [],
					"name": "TotalFunds",
					"outputs": [
						{
							"internalType": "uint256",
							"name": "",
							"type": "uint256"
						}
					],
					"stateMutability": "view",
					"type": "function"
				},
				{
					"inputs": [],
					"name": "amount",
					"outputs": [
						{
							"internalType": "uint256",
							"name": "",
							"type": "uint256"
						}
					],
					"stateMutability": "view",
					"type": "function"
				},
				{
					"inputs": [],
					"name": "callCount",
					"outputs": [
						{
							"internalType": "uint256",
							"name": "",
							"type": "uint256"
						}
					],
					"stateMutability": "view",
					"type": "function"
				},
				{
					"inputs": [],
					"name": "callPutCard",
					"outputs": [
						{
							"internalType": "bool",
							"name": "",
							"type": "bool"
						}
					],
					"stateMutability": "view",
					"type": "function"
				},
				{
					"inputs": [],
					"name": "cardNumber",
					"outputs": [
						{
							"internalType": "string",
							"name": "",
							"type": "string"
						}
					],
					"stateMutability": "view",
					"type": "function"
				},
				{
					"inputs": [],
					"name": "cvv",
					"outputs": [
						{
							"internalType": "string",
							"name": "",
							"type": "string"
						}
					],
					"stateMutability": "view",
					"type": "function"
				},
				{
					"inputs": [
						{
							"internalType": "uint256",
							"name": "_amount",
							"type": "uint256"
						}
					],
					"name": "deposit",
					"outputs": [
						{
							"internalType": "uint256",
							"name": "",
							"type": "uint256"
						}
					],
					"stateMutability": "pure",
					"type": "function"
				},
				{
					"inputs": [],
					"name": "firstTransferTime",
					"outputs": [
						{
							"internalType": "uint256",
							"name": "",
							"type": "uint256"
						}
					],
					"stateMutability": "view",
					"type": "function"
				},
				{
					"inputs": [],
					"name": "getLastTransaction",
					"outputs": [
						{
							"components": [
								{
									"internalType": "address",
									"name": "address_from",
									"type": "address"
								},
								{
									"internalType": "address",
									"name": "address_to",
									"type": "address"
								},
								{
									"internalType": "uint256",
									"name": "amount",
									"type": "uint256"
								},
								{
									"internalType": "uint256",
									"name": "timestamp",
									"type": "uint256"
								}
							],
							"internalType": "struct Transaction.Transactions",
							"name": "",
							"type": "tuple"
						}
					],
					"stateMutability": "view",
					"type": "function"
				},
				{
					"inputs": [],
					"name": "getNumberOfTransactions",
					"outputs": [
						{
							"internalType": "uint256",
							"name": "",
							"type": "uint256"
						}
					],
					"stateMutability": "view",
					"type": "function"
				},
				{
					"inputs": [],
					"name": "getOutCard",
					"outputs": [],
					"stateMutability": "nonpayable",
					"type": "function"
				},
				{
					"inputs": [],
					"name": "getTime",
					"outputs": [
						{
							"internalType": "uint256",
							"name": "",
							"type": "uint256"
						}
					],
					"stateMutability": "view",
					"type": "function"
				},
				{
					"inputs": [
						{
							"internalType": "uint256",
							"name": "_index",
							"type": "uint256"
						}
					],
					"name": "getTransactionById",
					"outputs": [
						{
							"components": [
								{
									"internalType": "address",
									"name": "address_from",
									"type": "address"
								},
								{
									"internalType": "address",
									"name": "address_to",
									"type": "address"
								},
								{
									"internalType": "uint256",
									"name": "amount",
									"type": "uint256"
								},
								{
									"internalType": "uint256",
									"name": "timestamp",
									"type": "uint256"
								}
							],
							"internalType": "struct Transaction.Transactions",
							"name": "",
							"type": "tuple"
						}
					],
					"stateMutability": "view",
					"type": "function"
				},
				{
					"inputs": [],
					"name": "getTransactions",
					"outputs": [
						{
							"components": [
								{
									"internalType": "address",
									"name": "address_from",
									"type": "address"
								},
								{
									"internalType": "address",
									"name": "address_to",
									"type": "address"
								},
								{
									"internalType": "uint256",
									"name": "amount",
									"type": "uint256"
								},
								{
									"internalType": "uint256",
									"name": "timestamp",
									"type": "uint256"
								}
							],
							"internalType": "struct Transaction.Transactions[]",
							"name": "",
							"type": "tuple[]"
						}
					],
					"stateMutability": "view",
					"type": "function"
				},
				{
					"inputs": [],
					"name": "message",
					"outputs": [
						{
							"internalType": "string",
							"name": "",
							"type": "string"
						}
					],
					"stateMutability": "view",
					"type": "function"
				},
				{
					"inputs": [
						{
							"internalType": "uint256",
							"name": "_amount",
							"type": "uint256"
						},
						{
							"internalType": "address",
							"name": "_receiver",
							"type": "address"
						}
					],
					"name": "sendMoney",
					"outputs": [],
					"stateMutability": "nonpayable",
					"type": "function"
				},
				{
					"inputs": [
						{
							"internalType": "string",
							"name": "_cardNumber",
							"type": "string"
						},
						{
							"internalType": "string",
							"name": "_cvv",
							"type": "string"
						}
					],
					"name": "setCard",
					"outputs": [],
					"stateMutability": "nonpayable",
					"type": "function"
				},
				{
					"inputs": [
						{
							"internalType": "uint256",
							"name": "",
							"type": "uint256"
						}
					],
					"name": "transactionList",
					"outputs": [
						{
							"internalType": "address",
							"name": "address_from",
							"type": "address"
						},
						{
							"internalType": "address",
							"name": "address_to",
							"type": "address"
						},
						{
							"internalType": "uint256",
							"name": "amount",
							"type": "uint256"
						},
						{
							"internalType": "uint256",
							"name": "timestamp",
							"type": "uint256"
						}
					],
					"stateMutability": "view",
					"type": "function"
				},
				{
					"inputs": [
						{
							"internalType": "uint256",
							"name": "",
							"type": "uint256"
						}
					],
					"name": "trn",
					"outputs": [
						{
							"internalType": "address",
							"name": "address_from",
							"type": "address"
						},
						{
							"internalType": "address",
							"name": "address_to",
							"type": "address"
						},
						{
							"internalType": "uint256",
							"name": "amount",
							"type": "uint256"
						},
						{
							"internalType": "uint256",
							"name": "timestamp",
							"type": "uint256"
						}
					],
					"stateMutability": "view",
					"type": "function"
				},
				{
					"inputs": [
						{
							"internalType": "uint256",
							"name": "money",
							"type": "uint256"
						}
					],
					"name": "withdrawMoney",
					"outputs": [
						{
							"internalType": "uint256",
							"name": "",
							"type": "uint256"
						}
					],
					"stateMutability": "view",
					"type": "function"
				}
			],
			"devdoc": {
				"kind": "dev",
				"methods": {},
				"version": 1
			},
			"evm": {
				"assembly": "    /* \"Dapp/MoneyTransfer.sol\":124:4036  contract MoneyTransfer is Transaction, Receiver {... */\n  mstore(0x40, 0x80)\n    /* \"Dapp/Transaction.sol\":346:347  0 */\n  0x00\n    /* \"Dapp/Transaction.sol\":331:347  uint counter = 0 */\n  0x02\n  sstore\n    /* \"Dapp/MoneyTransfer.sol\":602:603  0 */\n  0x00\n    /* \"Dapp/MoneyTransfer.sol\":578:603  uint public callCount = 0 */\n  0x0c\n  sstore\n    /* \"Dapp/MoneyTransfer.sol\":637:642  false */\n  0x00\n    /* \"Dapp/MoneyTransfer.sol\":611:642  bool public callPutCard = false */\n  0x0d\n  exp(0x0100, 0x00)\n  dup2\n  sload\n  dup2\n  0xff\n  mul\n  not\n  and\n  swap1\n  dup4\n  iszero\n  iszero\n  mul\n  or\n  swap1\n  sstore\n  pop\n    /* \"Dapp/MoneyTransfer.sol\":427:566  constructor (uint256 _totalFunds) {... */\n  callvalue\n  dup1\n  iszero\n  tag_1\n  jumpi\n  0x00\n  dup1\n  revert\ntag_1:\n  pop\n  mload(0x40)\n  sub(codesize, bytecodeSize)\n  dup1\n  bytecodeSize\n  dup4\n  codecopy\n  dup2\n  dup2\n  add\n  0x40\n  mstore\n  dup2\n  add\n  swap1\n  tag_2\n  swap2\n  swap1\n  tag_3\n  jump\t// in\ntag_2:\n    /* \"Dapp/MoneyTransfer.sol\":547:558  _totalFunds */\n  dup1\n    /* \"Dapp/MoneyTransfer.sol\":534:544  TotalFunds */\n  0x05\n    /* \"Dapp/MoneyTransfer.sol\":534:558  TotalFunds = _totalFunds */\n  dup2\n  swap1\n  sstore\n  pop\n    /* \"Dapp/MoneyTransfer.sol\":427:566  constructor (uint256 _totalFunds) {... */\n  pop\n    /* \"Dapp/MoneyTransfer.sol\":124:4036  contract MoneyTransfer is Transaction, Receiver {... */\n  jump(tag_6)\n    /* \"#utility.yul\":88:205   */\ntag_8:\n    /* \"#utility.yul\":197:198   */\n  0x00\n    /* \"#utility.yul\":194:195   */\n  dup1\n    /* \"#utility.yul\":187:199   */\n  revert\n    /* \"#utility.yul\":334:411   */\ntag_10:\n    /* \"#utility.yul\":371:378   */\n  0x00\n    /* \"#utility.yul\":400:405   */\n  dup2\n    /* \"#utility.yul\":389:405   */\n  swap1\n  pop\n    /* \"#utility.yul\":334:411   */\n  swap2\n  swap1\n  pop\n  jump\t// out\n    /* \"#utility.yul\":417:539   */\ntag_11:\n    /* \"#utility.yul\":490:514   */\n  tag_19\n    /* \"#utility.yul\":508:513   */\n  dup2\n    /* \"#utility.yul\":490:514   */\n  tag_10\n  jump\t// in\ntag_19:\n    /* \"#utility.yul\":483:488   */\n  dup2\n    /* \"#utility.yul\":480:515   */\n  eq\n    /* \"#utility.yul\":470:533   */\n  tag_20\n  jumpi\n    /* \"#utility.yul\":529:530   */\n  0x00\n    /* \"#utility.yul\":526:527   */\n  dup1\n    /* \"#utility.yul\":519:531   */\n  revert\n    /* \"#utility.yul\":470:533   */\ntag_20:\n    /* \"#utility.yul\":417:539   */\n  pop\n  jump\t// out\n    /* \"#utility.yul\":545:688   */\ntag_12:\n    /* \"#utility.yul\":602:607   */\n  0x00\n    /* \"#utility.yul\":633:639   */\n  dup2\n    /* \"#utility.yul\":627:640   */\n  mload\n    /* \"#utility.yul\":618:640   */\n  swap1\n  pop\n    /* \"#utility.yul\":649:682   */\n  tag_22\n    /* \"#utility.yul\":676:681   */\n  dup2\n    /* \"#utility.yul\":649:682   */\n  tag_11\n  jump\t// in\ntag_22:\n    /* \"#utility.yul\":545:688   */\n  swap3\n  swap2\n  pop\n  pop\n  jump\t// out\n    /* \"#utility.yul\":694:1045   */\ntag_3:\n    /* \"#utility.yul\":764:770   */\n  0x00\n    /* \"#utility.yul\":813:815   */\n  0x20\n    /* \"#utility.yul\":801:810   */\n  dup3\n    /* \"#utility.yul\":792:799   */\n  dup5\n    /* \"#utility.yul\":788:811   */\n  sub\n    /* \"#utility.yul\":784:816   */\n  slt\n    /* \"#utility.yul\":781:900   */\n  iszero\n  tag_24\n  jumpi\n    /* \"#utility.yul\":819:898   */\n  tag_25\n  tag_8\n  jump\t// in\ntag_25:\n    /* \"#utility.yul\":781:900   */\ntag_24:\n    /* \"#utility.yul\":939:940   */\n  0x00\n    /* \"#utility.yul\":964:1028   */\n  tag_26\n    /* \"#utility.yul\":1020:1027   */\n  dup5\n    /* \"#utility.yul\":1011:1017   */\n  dup3\n    /* \"#utility.yul\":1000:1009   */\n  dup6\n    /* \"#utility.yul\":996:1018   */\n  add\n    /* \"#utility.yul\":964:1028   */\n  tag_12\n  jump\t// in\ntag_26:\n    /* \"#utility.yul\":954:1028   */\n  swap2\n  pop\n    /* \"#utility.yul\":910:1038   */\n  pop\n    /* \"#utility.yul\":694:1045   */\n  swap3\n  swap2\n  pop\n  pop\n  jump\t// out\n    /* \"Dapp/MoneyTransfer.sol\":124:4036  contract MoneyTransfer is Transaction, Receiver {... */\ntag_6:\n  dataSize(sub_0)\n  dup1\n  dataOffset(sub_0)\n  0x00\n  codecopy\n  0x00\n  return\nstop\n\nsub_0: assembly {\n        /* \"Dapp/MoneyTransfer.sol\":124:4036  contract MoneyTransfer is Transaction, Receiver {... */\n      mstore(0x40, 0x80)\n      callvalue\n      dup1\n      iszero\n      tag_1\n      jumpi\n      0x00\n      dup1\n      revert\n    tag_1:\n      pop\n      jumpi(tag_2, lt(calldatasize, 0x04))\n      shr(0xe0, calldataload(0x00))\n      dup1\n      0x57bf72e3\n      gt\n      tag_24\n      jumpi\n      dup1\n      0x8fa11864\n      gt\n      tag_25\n      jumpi\n      dup1\n      0x8fa11864\n      eq\n      tag_18\n      jumpi\n      dup1\n      0xaa8c217c\n      eq\n      tag_19\n      jumpi\n      dup1\n      0xb6b55f25\n      eq\n      tag_20\n      jumpi\n      dup1\n      0xe21f37ce\n      eq\n      tag_21\n      jumpi\n      dup1\n      0xf4b30eaf\n      eq\n      tag_22\n      jumpi\n      dup1\n      0xf7e03fd8\n      eq\n      tag_23\n      jumpi\n      jump(tag_2)\n    tag_25:\n      dup1\n      0x57bf72e3\n      eq\n      tag_13\n      jumpi\n      dup1\n      0x7b9a3f4c\n      eq\n      tag_14\n      jumpi\n      dup1\n      0x7eb9f571\n      eq\n      tag_15\n      jumpi\n      dup1\n      0x83920e90\n      eq\n      tag_16\n      jumpi\n      dup1\n      0x8e029c0b\n      eq\n      tag_17\n      jumpi\n      jump(tag_2)\n    tag_24:\n      dup1\n      0x3c626f00\n      gt\n      tag_26\n      jumpi\n      dup1\n      0x3c626f00\n      eq\n      tag_8\n      jumpi\n      dup1\n      0x42fb7936\n      eq\n      tag_9\n      jumpi\n      dup1\n      0x4b28f9a2\n      eq\n      tag_10\n      jumpi\n      dup1\n      0x54876921\n      eq\n      tag_11\n      jumpi\n      dup1\n      0x557ed1ba\n      eq\n      tag_12\n      jumpi\n      jump(tag_2)\n    tag_26:\n      dup1\n      0x04ef5b21\n      eq\n      tag_3\n      jumpi\n      dup1\n      0x062a7544\n      eq\n      tag_4\n      jumpi\n      dup1\n      0x0e85fa72\n      eq\n      tag_5\n      jumpi\n      dup1\n      0x12a029a4\n      eq\n      tag_6\n      jumpi\n      dup1\n      0x24ba506d\n      eq\n      tag_7\n      jumpi\n    tag_2:\n      0x00\n      dup1\n      revert\n        /* \"Dapp/Transaction.sol\":237:274  Transactions[] public transactionList */\n    tag_3:\n      tag_27\n      0x04\n      dup1\n      calldatasize\n      sub\n      dup2\n      add\n      swap1\n      tag_28\n      swap2\n      swap1\n      tag_29\n      jump\t// in\n    tag_28:\n      tag_30\n      jump\t// in\n    tag_27:\n      mload(0x40)\n      tag_31\n      swap5\n      swap4\n      swap3\n      swap2\n      swap1\n      tag_32\n      jump\t// in\n    tag_31:\n      mload(0x40)\n      dup1\n      swap2\n      sub\n      swap1\n      return\n        /* \"Dapp/MoneyTransfer.sol\":652:1576  function sendMoney( uint _amount, address _receiver) public m_validAddress(_receiver) m_ifCardExists m_transferLimit{... */\n    tag_4:\n      tag_33\n      0x04\n      dup1\n      calldatasize\n      sub\n      dup2\n      add\n      swap1\n      tag_34\n      swap2\n      swap1\n      tag_35\n      jump\t// in\n    tag_34:\n      tag_36\n      jump\t// in\n    tag_33:\n      stop\n        /* \"Dapp/MoneyTransfer.sol\":385:414  uint public firstTransferTime */\n    tag_5:\n      tag_37\n      tag_38\n      jump\t// in\n    tag_37:\n      mload(0x40)\n      tag_39\n      swap2\n      swap1\n      tag_40\n      jump\t// in\n    tag_39:\n      mload(0x40)\n      dup1\n      swap2\n      sub\n      swap1\n      return\n        /* \"Dapp/MoneyTransfer.sol\":1584:1849  function setCard(string memory _cardNumber, string memory _cvv) public  m_checkCard {... */\n    tag_6:\n      tag_41\n      0x04\n      dup1\n      calldatasize\n      sub\n      dup2\n      add\n      swap1\n      tag_42\n      swap2\n      swap1\n      tag_43\n      jump\t// in\n    tag_42:\n      tag_44\n      jump\t// in\n    tag_41:\n      stop\n        /* \"Dapp/Transaction.sol\":961:1054  function getNumberOfTransactions() public view returns(uint){... */\n    tag_7:\n      tag_45\n      tag_46\n      jump\t// in\n    tag_45:\n      mload(0x40)\n      tag_47\n      swap2\n      swap1\n      tag_40\n      jump\t// in\n    tag_47:\n      mload(0x40)\n      dup1\n      swap2\n      sub\n      swap1\n      return\n        /* \"Dapp/MoneyTransfer.sol\":611:642  bool public callPutCard = false */\n    tag_8:\n      tag_48\n      tag_49\n      jump\t// in\n    tag_48:\n      mload(0x40)\n      tag_50\n      swap2\n      swap1\n      tag_51\n      jump\t// in\n    tag_50:\n      mload(0x40)\n      dup1\n      swap2\n      sub\n      swap1\n      return\n        /* \"Dapp/MoneyTransfer.sol\":327:344  string public cvv */\n    tag_9:\n      tag_52\n      tag_53\n      jump\t// in\n    tag_52:\n      mload(0x40)\n      tag_54\n      swap2\n      swap1\n      tag_55\n      jump\t// in\n    tag_54:\n      mload(0x40)\n      dup1\n      swap2\n      sub\n      swap1\n      return\n        /* \"Dapp/MoneyTransfer.sol\":578:603  uint public callCount = 0 */\n    tag_10:\n      tag_56\n      tag_57\n      jump\t// in\n    tag_56:\n      mload(0x40)\n      tag_58\n      swap2\n      swap1\n      tag_40\n      jump\t// in\n    tag_58:\n      mload(0x40)\n      dup1\n      swap2\n      sub\n      swap1\n      return\n        /* \"Dapp/Receiver.sol\":269:341  function withdrawMoney(uint money) public view returns(uint){... */\n    tag_11:\n      tag_59\n      0x04\n      dup1\n      calldatasize\n      sub\n      dup2\n      add\n      swap1\n      tag_60\n      swap2\n      swap1\n      tag_29\n      jump\t// in\n    tag_60:\n      tag_61\n      jump\t// in\n    tag_59:\n      mload(0x40)\n      tag_62\n      swap2\n      swap1\n      tag_40\n      jump\t// in\n    tag_62:\n      mload(0x40)\n      dup1\n      swap2\n      sub\n      swap1\n      return\n        /* \"Dapp/MoneyTransfer.sol\":3938:4025  function getTime() public view returns(uint ){... */\n    tag_12:\n      tag_63\n      tag_64\n      jump\t// in\n    tag_63:\n      mload(0x40)\n      tag_65\n      swap2\n      swap1\n      tag_40\n      jump\t// in\n    tag_65:\n      mload(0x40)\n      dup1\n      swap2\n      sub\n      swap1\n      return\n        /* \"Dapp/Transaction.sol\":283:324  mapping (uint => Transactions) public trn */\n    tag_13:\n      tag_66\n      0x04\n      dup1\n      calldatasize\n      sub\n      dup2\n      add\n      swap1\n      tag_67\n      swap2\n      swap1\n      tag_29\n      jump\t// in\n    tag_67:\n      tag_68\n      jump\t// in\n    tag_66:\n      mload(0x40)\n      tag_69\n      swap5\n      swap4\n      swap3\n      swap2\n      swap1\n      tag_32\n      jump\t// in\n    tag_69:\n      mload(0x40)\n      dup1\n      swap2\n      sub\n      swap1\n      return\n        /* \"Dapp/MoneyTransfer.sol\":211:236  uint256 public TotalFunds */\n    tag_14:\n      tag_70\n      tag_71\n      jump\t// in\n    tag_70:\n      mload(0x40)\n      tag_72\n      swap2\n      swap1\n      tag_40\n      jump\t// in\n    tag_72:\n      mload(0x40)\n      dup1\n      swap2\n      sub\n      swap1\n      return\n        /* \"Dapp/MoneyTransfer.sol\":351:377  uint256 public TotalAmount */\n    tag_15:\n      tag_73\n      tag_74\n      jump\t// in\n    tag_73:\n      mload(0x40)\n      tag_75\n      swap2\n      swap1\n      tag_40\n      jump\t// in\n    tag_75:\n      mload(0x40)\n      dup1\n      swap2\n      sub\n      swap1\n      return\n        /* \"Dapp/Transaction.sol\":715:827  function getTransactions() public view returns(Transactions[] memory){... */\n    tag_16:\n      tag_76\n      tag_77\n      jump\t// in\n    tag_76:\n      mload(0x40)\n      tag_78\n      swap2\n      swap1\n      tag_79\n      jump\t// in\n    tag_78:\n      mload(0x40)\n      dup1\n      swap2\n      sub\n      swap1\n      return\n        /* \"Dapp/MoneyTransfer.sol\":1864:1933  function getOutCard() public  {... */\n    tag_17:\n      tag_80\n      tag_81\n      jump\t// in\n    tag_80:\n      stop\n        /* \"Dapp/MoneyTransfer.sol\":295:319  string public cardNumber */\n    tag_18:\n      tag_82\n      tag_83\n      jump\t// in\n    tag_82:\n      mload(0x40)\n      tag_84\n      swap2\n      swap1\n      tag_55\n      jump\t// in\n    tag_84:\n      mload(0x40)\n      dup1\n      swap2\n      sub\n      swap1\n      return\n        /* \"Dapp/MoneyTransfer.sol\":183:204  uint256 public amount */\n    tag_19:\n      tag_85\n      tag_86\n      jump\t// in\n    tag_85:\n      mload(0x40)\n      tag_87\n      swap2\n      swap1\n      tag_40\n      jump\t// in\n    tag_87:\n      mload(0x40)\n      dup1\n      swap2\n      sub\n      swap1\n      return\n        /* \"Dapp/Receiver.sol\":351:515  function deposit(uint _amount) public pure returns(uint){... */\n    tag_20:\n      tag_88\n      0x04\n      dup1\n      calldatasize\n      sub\n      dup2\n      add\n      swap1\n      tag_89\n      swap2\n      swap1\n      tag_29\n      jump\t// in\n    tag_89:\n      tag_90\n      jump\t// in\n    tag_88:\n      mload(0x40)\n      tag_91\n      swap2\n      swap1\n      tag_40\n      jump\t// in\n    tag_91:\n      mload(0x40)\n      dup1\n      swap2\n      sub\n      swap1\n      return\n        /* \"Dapp/MoneyTransfer.sol\":267:288  string public message */\n    tag_21:\n      tag_92\n      tag_93\n      jump\t// in\n    tag_92:\n      mload(0x40)\n      tag_94\n      swap2\n      swap1\n      tag_55\n      jump\t// in\n    tag_94:\n      mload(0x40)\n      dup1\n      swap2\n      sub\n      swap1\n      return\n        /* \"Dapp/Transaction.sol\":835:953  function getTransactionById(uint _index)public view returns(Transactions memory){... */\n    tag_22:\n      tag_95\n      0x04\n      dup1\n      calldatasize\n      sub\n      dup2\n      add\n      swap1\n      tag_96\n      swap2\n      swap1\n      tag_29\n      jump\t// in\n    tag_96:\n      tag_97\n      jump\t// in\n    tag_95:\n      mload(0x40)\n      tag_98\n      swap2\n      swap1\n      tag_99\n      jump\t// in\n    tag_98:\n      mload(0x40)\n      dup1\n      swap2\n      sub\n      swap1\n      return\n        /* \"Dapp/Transaction.sol\":1062:1210  function getLastTransaction() public view returns(Transactions memory){... */\n    tag_23:\n      tag_100\n      tag_101\n      jump\t// in\n    tag_100:\n      mload(0x40)\n      tag_102\n      swap2\n      swap1\n      tag_99\n      jump\t// in\n    tag_102:\n      mload(0x40)\n      dup1\n      swap2\n      sub\n      swap1\n      return\n        /* \"Dapp/Transaction.sol\":237:274  Transactions[] public transactionList */\n    tag_30:\n      0x00\n      dup2\n      dup2\n      sload\n      dup2\n      lt\n      tag_103\n      jumpi\n      0x00\n      dup1\n      revert\n    tag_103:\n      swap1\n      0x00\n      mstore\n      keccak256(0x00, 0x20)\n      swap1\n      0x04\n      mul\n      add\n      0x00\n      swap2\n      pop\n      swap1\n      pop\n      dup1\n      0x00\n      add\n      0x00\n      swap1\n      sload\n      swap1\n      0x0100\n      exp\n      swap1\n      div\n      0xffffffffffffffffffffffffffffffffffffffff\n      and\n      swap1\n      dup1\n      0x01\n      add\n      0x00\n      swap1\n      sload\n      swap1\n      0x0100\n      exp\n      swap1\n      div\n      0xffffffffffffffffffffffffffffffffffffffff\n      and\n      swap1\n      dup1\n      0x02\n      add\n      sload\n      swap1\n      dup1\n      0x03\n      add\n      sload\n      swap1\n      pop\n      dup5\n      jump\t// out\n        /* \"Dapp/MoneyTransfer.sol\":652:1576  function sendMoney( uint _amount, address _receiver) public m_validAddress(_receiver) m_ifCardExists m_transferLimit{... */\n    tag_36:\n        /* \"Dapp/MoneyTransfer.sol\":727:736  _receiver */\n      dup1\n        /* \"Dapp/MoneyTransfer.sol\":2006:2011  _addr */\n      dup1\n        /* \"Dapp/MoneyTransfer.sol\":1995:2003  receiver */\n      0x06\n      0x00\n        /* \"Dapp/MoneyTransfer.sol\":1995:2011  receiver = _addr */\n      0x0100\n      exp\n      dup2\n      sload\n      dup2\n      0xffffffffffffffffffffffffffffffffffffffff\n      mul\n      not\n      and\n      swap1\n      dup4\n      0xffffffffffffffffffffffffffffffffffffffff\n      and\n      mul\n      or\n      swap1\n      sstore\n      pop\n        /* \"Dapp/MoneyTransfer.sol\":2047:2048  0 */\n      0x00\n        /* \"Dapp/MoneyTransfer.sol\":2030:2049  _addr != address(0) */\n      0xffffffffffffffffffffffffffffffffffffffff\n      and\n        /* \"Dapp/MoneyTransfer.sol\":2030:2035  _addr */\n      dup2\n        /* \"Dapp/MoneyTransfer.sol\":2030:2049  _addr != address(0) */\n      0xffffffffffffffffffffffffffffffffffffffff\n      and\n      sub\n        /* \"Dapp/MoneyTransfer.sol\":2022:2082  require(_addr != address(0), \" This address doesn't exists\") */\n      tag_106\n      jumpi\n      mload(0x40)\n      0x08c379a000000000000000000000000000000000000000000000000000000000\n      dup2\n      mstore\n      0x04\n      add\n      tag_107\n      swap1\n      tag_108\n      jump\t// in\n    tag_107:\n      mload(0x40)\n      dup1\n      swap2\n      sub\n      swap1\n      revert\n    tag_106:\n        /* \"Dapp/MoneyTransfer.sol\":2181:2186  false */\n      0x00\n        /* \"Dapp/MoneyTransfer.sol\":2166:2186  callPutCard != false */\n      iszero\n      iszero\n        /* \"Dapp/MoneyTransfer.sol\":2166:2177  callPutCard */\n      0x0d\n      0x00\n      swap1\n      sload\n      swap1\n      0x0100\n      exp\n      swap1\n      div\n      0xff\n      and\n        /* \"Dapp/MoneyTransfer.sol\":2166:2186  callPutCard != false */\n      iszero\n      iszero\n      sub\n        /* \"Dapp/MoneyTransfer.sol\":2158:2213  require(callPutCard != false,\"Please insert your card\") */\n      tag_110\n      jumpi\n      mload(0x40)\n      0x08c379a000000000000000000000000000000000000000000000000000000000\n      dup2\n      mstore\n      0x04\n      add\n      tag_111\n      swap1\n      tag_112\n      jump\t// in\n    tag_111:\n      mload(0x40)\n      dup1\n      swap2\n      sub\n      swap1\n      revert\n    tag_110:\n        /* \"Dapp/MoneyTransfer.sol\":3489:3490  5 */\n      0x05\n        /* \"Dapp/MoneyTransfer.sol\":3476:3485  callCount */\n      sload(0x0c)\n        /* \"Dapp/MoneyTransfer.sol\":3476:3490  callCount >= 5 */\n      lt\n      iszero\n        /* \"Dapp/MoneyTransfer.sol\":3476:3545  callCount >= 5 && block.timestamp <= (firstTransferTime + 30 seconds) */\n      dup1\n      iszero\n      tag_114\n      jumpi\n      pop\n        /* \"Dapp/MoneyTransfer.sol\":3534:3544  30 seconds */\n      0x1e\n        /* \"Dapp/MoneyTransfer.sol\":3514:3531  firstTransferTime */\n      sload(0x0b)\n        /* \"Dapp/MoneyTransfer.sol\":3514:3544  firstTransferTime + 30 seconds */\n      tag_115\n      swap2\n      swap1\n      tag_116\n      jump\t// in\n    tag_115:\n        /* \"Dapp/MoneyTransfer.sol\":3494:3509  block.timestamp */\n      timestamp\n        /* \"Dapp/MoneyTransfer.sol\":3494:3545  block.timestamp <= (firstTransferTime + 30 seconds) */\n      gt\n      iszero\n        /* \"Dapp/MoneyTransfer.sol\":3476:3545  callCount >= 5 && block.timestamp <= (firstTransferTime + 30 seconds) */\n    tag_114:\n        /* \"Dapp/MoneyTransfer.sol\":3473:3690  if(callCount >= 5 && block.timestamp <= (firstTransferTime + 30 seconds)){... */\n      iszero\n      tag_117\n      jumpi\n        /* \"Dapp/MoneyTransfer.sol\":3573:3574  0 */\n      0x00\n        /* \"Dapp/MoneyTransfer.sol\":3561:3570  callCount */\n      0x0c\n        /* \"Dapp/MoneyTransfer.sol\":3561:3574  callCount = 0 */\n      dup2\n      swap1\n      sstore\n      pop\n        /* \"Dapp/MoneyTransfer.sol\":3609:3610  0 */\n      0x00\n        /* \"Dapp/MoneyTransfer.sol\":3596:3605  callCount */\n      sload(0x0c)\n        /* \"Dapp/MoneyTransfer.sol\":3596:3610  callCount == 0 */\n      eq\n        /* \"Dapp/MoneyTransfer.sol\":3589:3611  assert(callCount == 0) */\n      tag_118\n      jumpi\n      tag_119\n      tag_120\n      jump\t// in\n    tag_119:\n    tag_118:\n        /* \"Dapp/MoneyTransfer.sol\":3626:3664  revert(\"only 5 transactions per day\" ) */\n      mload(0x40)\n      0x08c379a000000000000000000000000000000000000000000000000000000000\n      dup2\n      mstore\n      0x04\n      add\n      tag_121\n      swap1\n      tag_122\n      jump\t// in\n    tag_121:\n      mload(0x40)\n      dup1\n      swap2\n      sub\n      swap1\n      revert\n        /* \"Dapp/MoneyTransfer.sol\":3473:3690  if(callCount >= 5 && block.timestamp <= (firstTransferTime + 30 seconds)){... */\n    tag_117:\n        /* \"Dapp/MoneyTransfer.sol\":3718:3719  5 */\n      0x05\n        /* \"Dapp/MoneyTransfer.sol\":3705:3714  callCount */\n      sload(0x0c)\n        /* \"Dapp/MoneyTransfer.sol\":3705:3719  callCount <= 5 */\n      gt\n      iszero\n        /* \"Dapp/MoneyTransfer.sol\":3705:3774  callCount <= 5 && block.timestamp >= (firstTransferTime + 30 seconds) */\n      dup1\n      iszero\n      tag_123\n      jumpi\n      pop\n        /* \"Dapp/MoneyTransfer.sol\":3763:3773  30 seconds */\n      0x1e\n        /* \"Dapp/MoneyTransfer.sol\":3743:3760  firstTransferTime */\n      sload(0x0b)\n        /* \"Dapp/MoneyTransfer.sol\":3743:3773  firstTransferTime + 30 seconds */\n      tag_124\n      swap2\n      swap1\n      tag_116\n      jump\t// in\n    tag_124:\n        /* \"Dapp/MoneyTransfer.sol\":3723:3738  block.timestamp */\n      timestamp\n        /* \"Dapp/MoneyTransfer.sol\":3723:3774  block.timestamp >= (firstTransferTime + 30 seconds) */\n      lt\n      iszero\n        /* \"Dapp/MoneyTransfer.sol\":3705:3774  callCount <= 5 && block.timestamp >= (firstTransferTime + 30 seconds) */\n    tag_123:\n        /* \"Dapp/MoneyTransfer.sol\":3702:3903  if(callCount <= 5 && block.timestamp >= (firstTransferTime + 30 seconds)){... */\n      iszero\n      tag_125\n      jumpi\n        /* \"Dapp/MoneyTransfer.sol\":3802:3803  0 */\n      0x00\n        /* \"Dapp/MoneyTransfer.sol\":3790:3799  callCount */\n      0x0c\n        /* \"Dapp/MoneyTransfer.sol\":3790:3803  callCount = 0 */\n      dup2\n      swap1\n      sstore\n      pop\n        /* \"Dapp/MoneyTransfer.sol\":3839:3840  0 */\n      0x00\n        /* \"Dapp/MoneyTransfer.sol\":3826:3835  callCount */\n      sload(0x0c)\n        /* \"Dapp/MoneyTransfer.sol\":3826:3840  callCount == 0 */\n      eq\n        /* \"Dapp/MoneyTransfer.sol\":3819:3841  assert(callCount == 0) */\n      tag_126\n      jumpi\n      tag_127\n      tag_120\n      jump\t// in\n    tag_127:\n    tag_126:\n        /* \"Dapp/MoneyTransfer.sol\":3876:3891  block.timestamp */\n      timestamp\n        /* \"Dapp/MoneyTransfer.sol\":3856:3873  firstTransferTime */\n      0x0b\n        /* \"Dapp/MoneyTransfer.sol\":3856:3891  firstTransferTime = block.timestamp */\n      dup2\n      swap1\n      sstore\n      pop\n        /* \"Dapp/MoneyTransfer.sol\":3702:3903  if(callCount <= 5 && block.timestamp >= (firstTransferTime + 30 seconds)){... */\n    tag_125:\n        /* \"Dapp/MoneyTransfer.sol\":790:799  _receiver */\n      dup2\n        /* \"Dapp/MoneyTransfer.sol\":779:787  receiver */\n      0x06\n      0x00\n        /* \"Dapp/MoneyTransfer.sol\":779:799  receiver = _receiver */\n      0x0100\n      exp\n      dup2\n      sload\n      dup2\n      0xffffffffffffffffffffffffffffffffffffffff\n      mul\n      not\n      and\n      swap1\n      dup4\n      0xffffffffffffffffffffffffffffffffffffffff\n      and\n      mul\n      or\n      swap1\n      sstore\n      pop\n        /* \"Dapp/MoneyTransfer.sol\":819:826  _amount */\n      dup3\n        /* \"Dapp/MoneyTransfer.sol\":810:816  amount */\n      0x04\n        /* \"Dapp/MoneyTransfer.sol\":810:826  amount = _amount */\n      dup2\n      swap1\n      sstore\n      pop\n        /* \"Dapp/MoneyTransfer.sol\":997:998  1 */\n      0x01\n        /* \"Dapp/MoneyTransfer.sol\":984:993  callCount */\n      0x0c\n      0x00\n        /* \"Dapp/MoneyTransfer.sol\":984:998  callCount += 1 */\n      dup3\n      dup3\n      sload\n      tag_129\n      swap2\n      swap1\n      tag_116\n      jump\t// in\n    tag_129:\n      swap3\n      pop\n      pop\n      dup2\n      swap1\n      sstore\n      pop\n        /* \"Dapp/MoneyTransfer.sol\":1054:1055  0 */\n      0x00\n        /* \"Dapp/MoneyTransfer.sol\":1041:1051  TotalFunds */\n      sload(0x05)\n        /* \"Dapp/MoneyTransfer.sol\":1041:1055  TotalFunds > 0 */\n      gt\n        /* \"Dapp/MoneyTransfer.sol\":1041:1078  TotalFunds > 0 && TotalFunds > amount */\n      dup1\n      iszero\n      tag_130\n      jumpi\n      pop\n        /* \"Dapp/MoneyTransfer.sol\":1072:1078  amount */\n      sload(0x04)\n        /* \"Dapp/MoneyTransfer.sol\":1059:1069  TotalFunds */\n      sload(0x05)\n        /* \"Dapp/MoneyTransfer.sol\":1059:1078  TotalFunds > amount */\n      gt\n        /* \"Dapp/MoneyTransfer.sol\":1041:1078  TotalFunds > 0 && TotalFunds > amount */\n    tag_130:\n        /* \"Dapp/MoneyTransfer.sol\":1038:1559  if(TotalFunds > 0 && TotalFunds > amount){... */\n      iszero\n      tag_131\n      jumpi\n        /* \"Dapp/MoneyTransfer.sol\":1116:1122  amount */\n      sload(0x04)\n        /* \"Dapp/MoneyTransfer.sol\":1102:1112  TotalFunds */\n      0x05\n      0x00\n        /* \"Dapp/MoneyTransfer.sol\":1102:1122  TotalFunds -= amount */\n      dup3\n      dup3\n      sload\n      tag_132\n      swap2\n      swap1\n      tag_133\n      jump\t// in\n    tag_132:\n      swap3\n      pop\n      pop\n      dup2\n      swap1\n      sstore\n      pop\n        /* \"Dapp/MoneyTransfer.sol\":1160:1166  amount */\n      sload(0x04)\n        /* \"Dapp/MoneyTransfer.sol\":1145:1156  TotalAmount */\n      0x0a\n      0x00\n        /* \"Dapp/MoneyTransfer.sol\":1145:1166  TotalAmount += amount */\n      dup3\n      dup3\n      sload\n      tag_134\n      swap2\n      swap1\n      tag_116\n      jump\t// in\n    tag_134:\n      swap3\n      pop\n      pop\n      dup2\n      swap1\n      sstore\n      pop\n        /* \"Dapp/MoneyTransfer.sol\":1233:1293  addTransaction(msg.sender,receiver, amount, block.timestamp) */\n      tag_135\n        /* \"Dapp/MoneyTransfer.sol\":1248:1258  msg.sender */\n      caller\n        /* \"Dapp/MoneyTransfer.sol\":1259:1267  receiver */\n      0x06\n      0x00\n      swap1\n      sload\n      swap1\n      0x0100\n      exp\n      swap1\n      div\n      0xffffffffffffffffffffffffffffffffffffffff\n      and\n        /* \"Dapp/MoneyTransfer.sol\":1269:1275  amount */\n      sload(0x04)\n        /* \"Dapp/MoneyTransfer.sol\":1277:1292  block.timestamp */\n      timestamp\n        /* \"Dapp/MoneyTransfer.sol\":1233:1247  addTransaction */\n      tag_136\n        /* \"Dapp/MoneyTransfer.sol\":1233:1293  addTransaction(msg.sender,receiver, amount, block.timestamp) */\n      jump\t// in\n    tag_135:\n        /* \"Dapp/MoneyTransfer.sol\":1316:1331  deposit(amount) */\n      tag_137\n        /* \"Dapp/MoneyTransfer.sol\":1324:1330  amount */\n      sload(0x04)\n        /* \"Dapp/MoneyTransfer.sol\":1316:1323  deposit */\n      tag_90\n        /* \"Dapp/MoneyTransfer.sol\":1316:1331  deposit(amount) */\n      jump\t// in\n    tag_137:\n      pop\n        /* \"Dapp/MoneyTransfer.sol\":1354:1384  message = \"Transfer completed\" */\n      mload(0x40)\n      dup1\n      0x40\n      add\n      0x40\n      mstore\n      dup1\n      0x12\n      dup2\n      mstore\n      0x20\n      add\n      0x5472616e7366657220636f6d706c657465640000000000000000000000000000\n      dup2\n      mstore\n      pop\n        /* \"Dapp/MoneyTransfer.sol\":1354:1361  message */\n      0x07\n        /* \"Dapp/MoneyTransfer.sol\":1354:1384  message = \"Transfer completed\" */\n      swap1\n      dup2\n      tag_138\n      swap2\n      swap1\n      tag_139\n      jump\t// in\n    tag_138:\n      pop\n        /* \"Dapp/MoneyTransfer.sol\":1038:1559  if(TotalFunds > 0 && TotalFunds > amount){... */\n      jump(tag_140)\n    tag_131:\n        /* \"Dapp/MoneyTransfer.sol\":1512:1538  revert(\"Not enough funds\") */\n      mload(0x40)\n      0x08c379a000000000000000000000000000000000000000000000000000000000\n      dup2\n      mstore\n      0x04\n      add\n      tag_141\n      swap1\n      tag_142\n      jump\t// in\n    tag_141:\n      mload(0x40)\n      dup1\n      swap2\n      sub\n      swap1\n      revert\n        /* \"Dapp/MoneyTransfer.sol\":1038:1559  if(TotalFunds > 0 && TotalFunds > amount){... */\n    tag_140:\n        /* \"Dapp/MoneyTransfer.sol\":652:1576  function sendMoney( uint _amount, address _receiver) public m_validAddress(_receiver) m_ifCardExists m_transferLimit{... */\n      pop\n      pop\n      pop\n      jump\t// out\n        /* \"Dapp/MoneyTransfer.sol\":385:414  uint public firstTransferTime */\n    tag_38:\n      sload(0x0b)\n      dup2\n      jump\t// out\n        /* \"Dapp/MoneyTransfer.sol\":1584:1849  function setCard(string memory _cardNumber, string memory _cvv) public  m_checkCard {... */\n    tag_44:\n        /* \"Dapp/MoneyTransfer.sol\":1698:1709  _cardNumber */\n      dup2\n        /* \"Dapp/MoneyTransfer.sol\":1685:1695  cardNumber */\n      0x08\n        /* \"Dapp/MoneyTransfer.sol\":1685:1709  cardNumber = _cardNumber */\n      swap1\n      dup2\n      tag_145\n      swap2\n      swap1\n      tag_139\n      jump\t// in\n    tag_145:\n      pop\n        /* \"Dapp/MoneyTransfer.sol\":1730:1734  _cvv */\n      dup1\n        /* \"Dapp/MoneyTransfer.sol\":1724:1727  cvv */\n      0x09\n        /* \"Dapp/MoneyTransfer.sol\":1724:1734  cvv = _cvv */\n      swap1\n      dup2\n      tag_146\n      swap2\n      swap1\n      tag_139\n      jump\t// in\n    tag_146:\n      pop\n        /* \"Dapp/MoneyTransfer.sol\":1782:1786  true */\n      0x01\n        /* \"Dapp/MoneyTransfer.sol\":1768:1779  callPutCard */\n      0x0d\n      0x00\n        /* \"Dapp/MoneyTransfer.sol\":1768:1786  callPutCard = true */\n      0x0100\n      exp\n      dup2\n      sload\n      dup2\n      0xff\n      mul\n      not\n      and\n      swap1\n      dup4\n      iszero\n      iszero\n      mul\n      or\n      swap1\n      sstore\n      pop\n        /* \"Dapp/MoneyTransfer.sol\":1824:1839  block.timestamp */\n      timestamp\n        /* \"Dapp/MoneyTransfer.sol\":1804:1821  firstTransferTime */\n      0x0b\n        /* \"Dapp/MoneyTransfer.sol\":1804:1839  firstTransferTime = block.timestamp */\n      dup2\n      swap1\n      sstore\n      pop\n        /* \"Dapp/MoneyTransfer.sol\":2338:2339  8 */\n      0x08\n        /* \"Dapp/MoneyTransfer.sol\":2316:2326  cardNumber */\n      dup1\n        /* \"Dapp/MoneyTransfer.sol\":2310:2334  bytes(cardNumber).length */\n      dup1\n      sload\n      tag_147\n      swap1\n      tag_148\n      jump\t// in\n    tag_147:\n      swap1\n      pop\n        /* \"Dapp/MoneyTransfer.sol\":2310:2339  bytes(cardNumber).length == 8 */\n      eq\n        /* \"Dapp/MoneyTransfer.sol\":2310:2365  bytes(cardNumber).length == 8 && bytes(cvv).length == 3 */\n      dup1\n      iszero\n      tag_149\n      jumpi\n      pop\n        /* \"Dapp/MoneyTransfer.sol\":2364:2365  3 */\n      0x03\n        /* \"Dapp/MoneyTransfer.sol\":2349:2352  cvv */\n      0x09\n        /* \"Dapp/MoneyTransfer.sol\":2343:2360  bytes(cvv).length */\n      dup1\n      sload\n      tag_150\n      swap1\n      tag_148\n      jump\t// in\n    tag_150:\n      swap1\n      pop\n        /* \"Dapp/MoneyTransfer.sol\":2343:2365  bytes(cvv).length == 3 */\n      eq\n        /* \"Dapp/MoneyTransfer.sol\":2310:2365  bytes(cardNumber).length == 8 && bytes(cvv).length == 3 */\n    tag_149:\n        /* \"Dapp/MoneyTransfer.sol\":2302:2390  require(bytes(cardNumber).length == 8 && bytes(cvv).length == 3, \"No valid credit card\") */\n      tag_151\n      jumpi\n      mload(0x40)\n      0x08c379a000000000000000000000000000000000000000000000000000000000\n      dup2\n      mstore\n      0x04\n      add\n      tag_152\n      swap1\n      tag_153\n      jump\t// in\n    tag_152:\n      mload(0x40)\n      dup1\n      swap2\n      sub\n      swap1\n      revert\n    tag_151:\n        /* \"Dapp/MoneyTransfer.sol\":1584:1849  function setCard(string memory _cardNumber, string memory _cvv) public  m_checkCard {... */\n      pop\n      pop\n      jump\t// out\n        /* \"Dapp/Transaction.sol\":961:1054  function getNumberOfTransactions() public view returns(uint){... */\n    tag_46:\n        /* \"Dapp/Transaction.sol\":1016:1020  uint */\n      0x00\n        /* \"Dapp/Transaction.sol\":1039:1046  counter */\n      sload(0x02)\n        /* \"Dapp/Transaction.sol\":1032:1046  return counter */\n      swap1\n      pop\n        /* \"Dapp/Transaction.sol\":961:1054  function getNumberOfTransactions() public view returns(uint){... */\n      swap1\n      jump\t// out\n        /* \"Dapp/MoneyTransfer.sol\":611:642  bool public callPutCard = false */\n    tag_49:\n      0x0d\n      0x00\n      swap1\n      sload\n      swap1\n      0x0100\n      exp\n      swap1\n      div\n      0xff\n      and\n      dup2\n      jump\t// out\n        /* \"Dapp/MoneyTransfer.sol\":327:344  string public cvv */\n    tag_53:\n      0x09\n      dup1\n      sload\n      tag_155\n      swap1\n      tag_148\n      jump\t// in\n    tag_155:\n      dup1\n      0x1f\n      add\n      0x20\n      dup1\n      swap2\n      div\n      mul\n      0x20\n      add\n      mload(0x40)\n      swap1\n      dup2\n      add\n      0x40\n      mstore\n      dup1\n      swap3\n      swap2\n      swap1\n      dup2\n      dup2\n      mstore\n      0x20\n      add\n      dup3\n      dup1\n      sload\n      tag_156\n      swap1\n      tag_148\n      jump\t// in\n    tag_156:\n      dup1\n      iszero\n      tag_157\n      jumpi\n      dup1\n      0x1f\n      lt\n      tag_158\n      jumpi\n      0x0100\n      dup1\n      dup4\n      sload\n      div\n      mul\n      dup4\n      mstore\n      swap2\n      0x20\n      add\n      swap2\n      jump(tag_157)\n    tag_158:\n      dup3\n      add\n      swap2\n      swap1\n      0x00\n      mstore\n      keccak256(0x00, 0x20)\n      swap1\n    tag_159:\n      dup2\n      sload\n      dup2\n      mstore\n      swap1\n      0x01\n      add\n      swap1\n      0x20\n      add\n      dup1\n      dup4\n      gt\n      tag_159\n      jumpi\n      dup3\n      swap1\n      sub\n      0x1f\n      and\n      dup3\n      add\n      swap2\n    tag_157:\n      pop\n      pop\n      pop\n      pop\n      pop\n      dup2\n      jump\t// out\n        /* \"Dapp/MoneyTransfer.sol\":578:603  uint public callCount = 0 */\n    tag_57:\n      sload(0x0c)\n      dup2\n      jump\t// out\n        /* \"Dapp/Receiver.sol\":269:341  function withdrawMoney(uint money) public view returns(uint){... */\n    tag_61:\n        /* \"Dapp/Receiver.sol\":324:328  uint */\n      0x00\n        /* \"Dapp/Receiver.sol\":269:341  function withdrawMoney(uint money) public view returns(uint){... */\n      swap2\n      swap1\n      pop\n      jump\t// out\n        /* \"Dapp/MoneyTransfer.sol\":3938:4025  function getTime() public view returns(uint ){... */\n    tag_64:\n        /* \"Dapp/MoneyTransfer.sol\":3977:3981  uint */\n      0x00\n        /* \"Dapp/MoneyTransfer.sol\":4002:4017  block.timestamp */\n      timestamp\n        /* \"Dapp/MoneyTransfer.sol\":3994:4017  return  block.timestamp */\n      swap1\n      pop\n        /* \"Dapp/MoneyTransfer.sol\":3938:4025  function getTime() public view returns(uint ){... */\n      swap1\n      jump\t// out\n        /* \"Dapp/Transaction.sol\":283:324  mapping (uint => Transactions) public trn */\n    tag_68:\n      mstore(0x20, 0x01)\n      dup1\n      0x00\n      mstore\n      keccak256(0x00, 0x40)\n      0x00\n      swap2\n      pop\n      swap1\n      pop\n      dup1\n      0x00\n      add\n      0x00\n      swap1\n      sload\n      swap1\n      0x0100\n      exp\n      swap1\n      div\n      0xffffffffffffffffffffffffffffffffffffffff\n      and\n      swap1\n      dup1\n      0x01\n      add\n      0x00\n      swap1\n      sload\n      swap1\n      0x0100\n      exp\n      swap1\n      div\n      0xffffffffffffffffffffffffffffffffffffffff\n      and\n      swap1\n      dup1\n      0x02\n      add\n      sload\n      swap1\n      dup1\n      0x03\n      add\n      sload\n      swap1\n      pop\n      dup5\n      jump\t// out\n        /* \"Dapp/MoneyTransfer.sol\":211:236  uint256 public TotalFunds */\n    tag_71:\n      sload(0x05)\n      dup2\n      jump\t// out\n        /* \"Dapp/MoneyTransfer.sol\":351:377  uint256 public TotalAmount */\n    tag_74:\n      sload(0x0a)\n      dup2\n      jump\t// out\n        /* \"Dapp/Transaction.sol\":715:827  function getTransactions() public view returns(Transactions[] memory){... */\n    tag_77:\n        /* \"Dapp/Transaction.sol\":762:783  Transactions[] memory */\n      0x60\n        /* \"Dapp/Transaction.sol\":804:819  transactionList */\n      0x00\n        /* \"Dapp/Transaction.sol\":797:819  return transactionList */\n      dup1\n      sload\n      dup1\n      0x20\n      mul\n      0x20\n      add\n      mload(0x40)\n      swap1\n      dup2\n      add\n      0x40\n      mstore\n      dup1\n      swap3\n      swap2\n      swap1\n      dup2\n      dup2\n      mstore\n      0x20\n      add\n      0x00\n      swap1\n    tag_163:\n      dup3\n      dup3\n      lt\n      iszero\n      tag_164\n      jumpi\n      dup4\n      dup3\n      swap1\n      0x00\n      mstore\n      keccak256(0x00, 0x20)\n      swap1\n      0x04\n      mul\n      add\n      mload(0x40)\n      dup1\n      0x80\n      add\n      0x40\n      mstore\n      swap1\n      dup2\n      0x00\n      dup3\n      add\n      0x00\n      swap1\n      sload\n      swap1\n      0x0100\n      exp\n      swap1\n      div\n      0xffffffffffffffffffffffffffffffffffffffff\n      and\n      0xffffffffffffffffffffffffffffffffffffffff\n      and\n      0xffffffffffffffffffffffffffffffffffffffff\n      and\n      dup2\n      mstore\n      0x20\n      add\n      0x01\n      dup3\n      add\n      0x00\n      swap1\n      sload\n      swap1\n      0x0100\n      exp\n      swap1\n      div\n      0xffffffffffffffffffffffffffffffffffffffff\n      and\n      0xffffffffffffffffffffffffffffffffffffffff\n      and\n      0xffffffffffffffffffffffffffffffffffffffff\n      and\n      dup2\n      mstore\n      0x20\n      add\n      0x02\n      dup3\n      add\n      sload\n      dup2\n      mstore\n      0x20\n      add\n      0x03\n      dup3\n      add\n      sload\n      dup2\n      mstore\n      pop\n      pop\n      dup2\n      mstore\n      0x20\n      add\n      swap1\n      0x01\n      add\n      swap1\n      jump(tag_163)\n    tag_164:\n      pop\n      pop\n      pop\n      pop\n      swap1\n      pop\n        /* \"Dapp/Transaction.sol\":715:827  function getTransactions() public view returns(Transactions[] memory){... */\n      swap1\n      jump\t// out\n        /* \"Dapp/MoneyTransfer.sol\":1864:1933  function getOutCard() public  {... */\n    tag_81:\n        /* \"Dapp/MoneyTransfer.sol\":1918:1923  false */\n      0x00\n        /* \"Dapp/MoneyTransfer.sol\":1904:1915  callPutCard */\n      0x0d\n      0x00\n        /* \"Dapp/MoneyTransfer.sol\":1904:1923  callPutCard = false */\n      0x0100\n      exp\n      dup2\n      sload\n      dup2\n      0xff\n      mul\n      not\n      and\n      swap1\n      dup4\n      iszero\n      iszero\n      mul\n      or\n      swap1\n      sstore\n      pop\n        /* \"Dapp/MoneyTransfer.sol\":1864:1933  function getOutCard() public  {... */\n      jump\t// out\n        /* \"Dapp/MoneyTransfer.sol\":295:319  string public cardNumber */\n    tag_83:\n      0x08\n      dup1\n      sload\n      tag_167\n      swap1\n      tag_148\n      jump\t// in\n    tag_167:\n      dup1\n      0x1f\n      add\n      0x20\n      dup1\n      swap2\n      div\n      mul\n      0x20\n      add\n      mload(0x40)\n      swap1\n      dup2\n      add\n      0x40\n      mstore\n      dup1\n      swap3\n      swap2\n      swap1\n      dup2\n      dup2\n      mstore\n      0x20\n      add\n      dup3\n      dup1\n      sload\n      tag_168\n      swap1\n      tag_148\n      jump\t// in\n    tag_168:\n      dup1\n      iszero\n      tag_169\n      jumpi\n      dup1\n      0x1f\n      lt\n      tag_170\n      jumpi\n      0x0100\n      dup1\n      dup4\n      sload\n      div\n      mul\n      dup4\n      mstore\n      swap2\n      0x20\n      add\n      swap2\n      jump(tag_169)\n    tag_170:\n      dup3\n      add\n      swap2\n      swap1\n      0x00\n      mstore\n      keccak256(0x00, 0x20)\n      swap1\n    tag_171:\n      dup2\n      sload\n      dup2\n      mstore\n      swap1\n      0x01\n      add\n      swap1\n      0x20\n      add\n      dup1\n      dup4\n      gt\n      tag_171\n      jumpi\n      dup3\n      swap1\n      sub\n      0x1f\n      and\n      dup3\n      add\n      swap2\n    tag_169:\n      pop\n      pop\n      pop\n      pop\n      pop\n      dup2\n      jump\t// out\n        /* \"Dapp/MoneyTransfer.sol\":183:204  uint256 public amount */\n    tag_86:\n      sload(0x04)\n      dup2\n      jump\t// out\n        /* \"Dapp/Receiver.sol\":351:515  function deposit(uint _amount) public pure returns(uint){... */\n    tag_90:\n        /* \"Dapp/Receiver.sol\":402:406  uint */\n      0x00\n        /* \"Dapp/Receiver.sol\":420:445  ReceiverDetails memory rd */\n      tag_173\n      tag_174\n      jump\t// in\n    tag_173:\n        /* \"Dapp/Receiver.sol\":469:476  _amount */\n      dup3\n        /* \"Dapp/Receiver.sol\":457:459  rd */\n      dup2\n        /* \"Dapp/Receiver.sol\":457:466  rd.amount */\n      0x20\n      add\n        /* \"Dapp/Receiver.sol\":457:476  rd.amount = _amount */\n      dup2\n      dup2\n      mstore\n      pop\n      pop\n        /* \"Dapp/Receiver.sol\":496:498  rd */\n      dup1\n        /* \"Dapp/Receiver.sol\":496:505  rd.amount */\n      0x20\n      add\n      mload\n        /* \"Dapp/Receiver.sol\":489:505  return rd.amount */\n      swap2\n      pop\n      pop\n        /* \"Dapp/Receiver.sol\":351:515  function deposit(uint _amount) public pure returns(uint){... */\n      swap2\n      swap1\n      pop\n      jump\t// out\n        /* \"Dapp/MoneyTransfer.sol\":267:288  string public message */\n    tag_93:\n      0x07\n      dup1\n      sload\n      tag_175\n      swap1\n      tag_148\n      jump\t// in\n    tag_175:\n      dup1\n      0x1f\n      add\n      0x20\n      dup1\n      swap2\n      div\n      mul\n      0x20\n      add\n      mload(0x40)\n      swap1\n      dup2\n      add\n      0x40\n      mstore\n      dup1\n      swap3\n      swap2\n      swap1\n      dup2\n      dup2\n      mstore\n      0x20\n      add\n      dup3\n      dup1\n      sload\n      tag_176\n      swap1\n      tag_148\n      jump\t// in\n    tag_176:\n      dup1\n      iszero\n      tag_177\n      jumpi\n      dup1\n      0x1f\n      lt\n      tag_178\n      jumpi\n      0x0100\n      dup1\n      dup4\n      sload\n      div\n      mul\n      dup4\n      mstore\n      swap2\n      0x20\n      add\n      swap2\n      jump(tag_177)\n    tag_178:\n      dup3\n      add\n      swap2\n      swap1\n      0x00\n      mstore\n      keccak256(0x00, 0x20)\n      swap1\n    tag_179:\n      dup2\n      sload\n      dup2\n      mstore\n      swap1\n      0x01\n      add\n      swap1\n      0x20\n      add\n      dup1\n      dup4\n      gt\n      tag_179\n      jumpi\n      dup3\n      swap1\n      sub\n      0x1f\n      and\n      dup3\n      add\n      swap2\n    tag_177:\n      pop\n      pop\n      pop\n      pop\n      pop\n      dup2\n      jump\t// out\n        /* \"Dapp/Transaction.sol\":835:953  function getTransactionById(uint _index)public view returns(Transactions memory){... */\n    tag_97:\n        /* \"Dapp/Transaction.sol\":895:914  Transactions memory */\n      tag_180\n      tag_181\n      jump\t// in\n    tag_180:\n        /* \"Dapp/Transaction.sol\":933:936  trn */\n      0x01\n        /* \"Dapp/Transaction.sol\":933:944  trn[_index] */\n      0x00\n        /* \"Dapp/Transaction.sol\":937:943  _index */\n      dup4\n        /* \"Dapp/Transaction.sol\":933:944  trn[_index] */\n      dup2\n      mstore\n      0x20\n      add\n      swap1\n      dup2\n      mstore\n      0x20\n      add\n      0x00\n      keccak256\n        /* \"Dapp/Transaction.sol\":926:944  return trn[_index] */\n      mload(0x40)\n      dup1\n      0x80\n      add\n      0x40\n      mstore\n      swap1\n      dup2\n      0x00\n      dup3\n      add\n      0x00\n      swap1\n      sload\n      swap1\n      0x0100\n      exp\n      swap1\n      div\n      0xffffffffffffffffffffffffffffffffffffffff\n      and\n      0xffffffffffffffffffffffffffffffffffffffff\n      and\n      0xffffffffffffffffffffffffffffffffffffffff\n      and\n      dup2\n      mstore\n      0x20\n      add\n      0x01\n      dup3\n      add\n      0x00\n      swap1\n      sload\n      swap1\n      0x0100\n      exp\n      swap1\n      div\n      0xffffffffffffffffffffffffffffffffffffffff\n      and\n      0xffffffffffffffffffffffffffffffffffffffff\n      and\n      0xffffffffffffffffffffffffffffffffffffffff\n      and\n      dup2\n      mstore\n      0x20\n      add\n      0x02\n      dup3\n      add\n      sload\n      dup2\n      mstore\n      0x20\n      add\n      0x03\n      dup3\n      add\n      sload\n      dup2\n      mstore\n      pop\n      pop\n      swap1\n      pop\n        /* \"Dapp/Transaction.sol\":835:953  function getTransactionById(uint _index)public view returns(Transactions memory){... */\n      swap2\n      swap1\n      pop\n      jump\t// out\n        /* \"Dapp/Transaction.sol\":1062:1210  function getLastTransaction() public view returns(Transactions memory){... */\n    tag_101:\n        /* \"Dapp/Transaction.sol\":1112:1131  Transactions memory */\n      tag_183\n      tag_181\n      jump\t// in\n    tag_183:\n        /* \"Dapp/Transaction.sol\":1143:1149  uint x */\n      0x00\n        /* \"Dapp/Transaction.sol\":1177:1178  1 */\n      0x01\n        /* \"Dapp/Transaction.sol\":1152:1167  transactionList */\n      0x00\n        /* \"Dapp/Transaction.sol\":1152:1174  transactionList.length */\n      dup1\n      sload\n      swap1\n      pop\n        /* \"Dapp/Transaction.sol\":1152:1178  transactionList.length - 1 */\n      tag_185\n      swap2\n      swap1\n      tag_133\n      jump\t// in\n    tag_185:\n        /* \"Dapp/Transaction.sol\":1143:1178  uint x = transactionList.length - 1 */\n      swap1\n      pop\n        /* \"Dapp/Transaction.sol\":1196:1199  trn */\n      0x01\n        /* \"Dapp/Transaction.sol\":1196:1202  trn[x] */\n      0x00\n        /* \"Dapp/Transaction.sol\":1200:1201  x */\n      dup3\n        /* \"Dapp/Transaction.sol\":1196:1202  trn[x] */\n      dup2\n      mstore\n      0x20\n      add\n      swap1\n      dup2\n      mstore\n      0x20\n      add\n      0x00\n      keccak256\n        /* \"Dapp/Transaction.sol\":1189:1202  return trn[x] */\n      mload(0x40)\n      dup1\n      0x80\n      add\n      0x40\n      mstore\n      swap1\n      dup2\n      0x00\n      dup3\n      add\n      0x00\n      swap1\n      sload\n      swap1\n      0x0100\n      exp\n      swap1\n      div\n      0xffffffffffffffffffffffffffffffffffffffff\n      and\n      0xffffffffffffffffffffffffffffffffffffffff\n      and\n      0xffffffffffffffffffffffffffffffffffffffff\n      and\n      dup2\n      mstore\n      0x20\n      add\n      0x01\n      dup3\n      add\n      0x00\n      swap1\n      sload\n      swap1\n      0x0100\n      exp\n      swap1\n      div\n      0xffffffffffffffffffffffffffffffffffffffff\n      and\n      0xffffffffffffffffffffffffffffffffffffffff\n      and\n      0xffffffffffffffffffffffffffffffffffffffff\n      and\n      dup2\n      mstore\n      0x20\n      add\n      0x02\n      dup3\n      add\n      sload\n      dup2\n      mstore\n      0x20\n      add\n      0x03\n      dup3\n      add\n      sload\n      dup2\n      mstore\n      pop\n      pop\n      swap2\n      pop\n      pop\n        /* \"Dapp/Transaction.sol\":1062:1210  function getLastTransaction() public view returns(Transactions memory){... */\n      swap1\n      jump\t// out\n        /* \"Dapp/Transaction.sol\":357:707  function addTransaction(address _address_from ,address _address_to, uint _amount, uint _timestamp)internal{... */\n    tag_136:\n        /* \"Dapp/Transaction.sol\":492:526  Transactions memory newTransaction */\n      0x00\n        /* \"Dapp/Transaction.sol\":529:590  Transactions(_address_from, _address_to, _amount, _timestamp) */\n      mload(0x40)\n      dup1\n      0x80\n      add\n      0x40\n      mstore\n      dup1\n        /* \"Dapp/Transaction.sol\":542:555  _address_from */\n      dup7\n        /* \"Dapp/Transaction.sol\":529:590  Transactions(_address_from, _address_to, _amount, _timestamp) */\n      0xffffffffffffffffffffffffffffffffffffffff\n      and\n      dup2\n      mstore\n      0x20\n      add\n        /* \"Dapp/Transaction.sol\":557:568  _address_to */\n      dup6\n        /* \"Dapp/Transaction.sol\":529:590  Transactions(_address_from, _address_to, _amount, _timestamp) */\n      0xffffffffffffffffffffffffffffffffffffffff\n      and\n      dup2\n      mstore\n      0x20\n      add\n        /* \"Dapp/Transaction.sol\":570:577  _amount */\n      dup5\n        /* \"Dapp/Transaction.sol\":529:590  Transactions(_address_from, _address_to, _amount, _timestamp) */\n      dup2\n      mstore\n      0x20\n      add\n        /* \"Dapp/Transaction.sol\":579:589  _timestamp */\n      dup4\n        /* \"Dapp/Transaction.sol\":529:590  Transactions(_address_from, _address_to, _amount, _timestamp) */\n      dup2\n      mstore\n      pop\n        /* \"Dapp/Transaction.sol\":492:590  Transactions memory newTransaction = Transactions(_address_from, _address_to, _amount, _timestamp) */\n      swap1\n      pop\n        /* \"Dapp/Transaction.sol\":601:616  transactionList */\n      0x00\n        /* \"Dapp/Transaction.sol\":622:636  newTransaction */\n      dup2\n        /* \"Dapp/Transaction.sol\":601:637  transactionList.push(newTransaction) */\n      swap1\n      dup1\n      0x01\n      dup2\n      sload\n      add\n      dup1\n      dup3\n      sstore\n      dup1\n      swap2\n      pop\n      pop\n      0x01\n      swap1\n      sub\n      swap1\n      0x00\n      mstore\n      keccak256(0x00, 0x20)\n      swap1\n      0x04\n      mul\n      add\n      0x00\n      swap1\n      swap2\n      swap1\n      swap2\n      swap1\n      swap2\n      pop\n      0x00\n      dup3\n      add\n      mload\n      dup2\n      0x00\n      add\n      exp(0x0100, 0x00)\n      dup2\n      sload\n      dup2\n      0xffffffffffffffffffffffffffffffffffffffff\n      mul\n      not\n      and\n      swap1\n      dup4\n      0xffffffffffffffffffffffffffffffffffffffff\n      and\n      mul\n      or\n      swap1\n      sstore\n      pop\n      0x20\n      dup3\n      add\n      mload\n      dup2\n      0x01\n      add\n      exp(0x0100, 0x00)\n      dup2\n      sload\n      dup2\n      0xffffffffffffffffffffffffffffffffffffffff\n      mul\n      not\n      and\n      swap1\n      dup4\n      0xffffffffffffffffffffffffffffffffffffffff\n      and\n      mul\n      or\n      swap1\n      sstore\n      pop\n      0x40\n      dup3\n      add\n      mload\n      dup2\n      0x02\n      add\n      sstore\n      0x60\n      dup3\n      add\n      mload\n      dup2\n      0x03\n      add\n      sstore\n      pop\n      pop\n        /* \"Dapp/Transaction.sol\":663:677  newTransaction */\n      dup1\n        /* \"Dapp/Transaction.sol\":648:651  trn */\n      0x01\n        /* \"Dapp/Transaction.sol\":648:660  trn[counter] */\n      0x00\n        /* \"Dapp/Transaction.sol\":652:659  counter */\n      sload(0x02)\n        /* \"Dapp/Transaction.sol\":648:660  trn[counter] */\n      dup2\n      mstore\n      0x20\n      add\n      swap1\n      dup2\n      mstore\n      0x20\n      add\n      0x00\n      keccak256\n        /* \"Dapp/Transaction.sol\":648:677  trn[counter] = newTransaction */\n      0x00\n      dup3\n      add\n      mload\n      dup2\n      0x00\n      add\n      exp(0x0100, 0x00)\n      dup2\n      sload\n      dup2\n      0xffffffffffffffffffffffffffffffffffffffff\n      mul\n      not\n      and\n      swap1\n      dup4\n      0xffffffffffffffffffffffffffffffffffffffff\n      and\n      mul\n      or\n      swap1\n      sstore\n      pop\n      0x20\n      dup3\n      add\n      mload\n      dup2\n      0x01\n      add\n      exp(0x0100, 0x00)\n      dup2\n      sload\n      dup2\n      0xffffffffffffffffffffffffffffffffffffffff\n      mul\n      not\n      and\n      swap1\n      dup4\n      0xffffffffffffffffffffffffffffffffffffffff\n      and\n      mul\n      or\n      swap1\n      sstore\n      pop\n      0x40\n      dup3\n      add\n      mload\n      dup2\n      0x02\n      add\n      sstore\n      0x60\n      dup3\n      add\n      mload\n      dup2\n      0x03\n      add\n      sstore\n      swap1\n      pop\n      pop\n        /* \"Dapp/Transaction.sol\":688:695  counter */\n      0x02\n      0x00\n        /* \"Dapp/Transaction.sol\":688:697  counter++ */\n      dup2\n      sload\n      dup1\n      swap3\n      swap2\n      swap1\n      tag_188\n      swap1\n      tag_189\n      jump\t// in\n    tag_188:\n      swap2\n      swap1\n      pop\n      sstore\n      pop\n        /* \"Dapp/Transaction.sol\":463:707  {... */\n      pop\n        /* \"Dapp/Transaction.sol\":357:707  function addTransaction(address _address_from ,address _address_to, uint _amount, uint _timestamp)internal{... */\n      pop\n      pop\n      pop\n      pop\n      jump\t// out\n    tag_174:\n      mload(0x40)\n      dup1\n      0x60\n      add\n      0x40\n      mstore\n      dup1\n      0x00\n      dup2\n      mstore\n      0x20\n      add\n      0x00\n      dup2\n      mstore\n      0x20\n      add\n      and(0xffffffffffffffffffffffffffffffffffffffff, 0x00)\n      dup2\n      mstore\n      pop\n      swap1\n      jump\t// out\n    tag_181:\n      mload(0x40)\n      dup1\n      0x80\n      add\n      0x40\n      mstore\n      dup1\n      and(0xffffffffffffffffffffffffffffffffffffffff, 0x00)\n      dup2\n      mstore\n      0x20\n      add\n      and(0xffffffffffffffffffffffffffffffffffffffff, 0x00)\n      dup2\n      mstore\n      0x20\n      add\n      0x00\n      dup2\n      mstore\n      0x20\n      add\n      0x00\n      dup2\n      mstore\n      pop\n      swap1\n      jump\t// out\n        /* \"#utility.yul\":7:82   */\n    tag_190:\n        /* \"#utility.yul\":40:46   */\n      0x00\n        /* \"#utility.yul\":73:75   */\n      0x40\n        /* \"#utility.yul\":67:76   */\n      mload\n        /* \"#utility.yul\":57:76   */\n      swap1\n      pop\n        /* \"#utility.yul\":7:82   */\n      swap1\n      jump\t// out\n        /* \"#utility.yul\":88:205   */\n    tag_191:\n        /* \"#utility.yul\":197:198   */\n      0x00\n        /* \"#utility.yul\":194:195   */\n      dup1\n        /* \"#utility.yul\":187:199   */\n      revert\n        /* \"#utility.yul\":211:328   */\n    tag_192:\n        /* \"#utility.yul\":320:321   */\n      0x00\n        /* \"#utility.yul\":317:318   */\n      dup1\n        /* \"#utility.yul\":310:322   */\n      revert\n        /* \"#utility.yul\":334:411   */\n    tag_193:\n        /* \"#utility.yul\":371:378   */\n      0x00\n        /* \"#utility.yul\":400:405   */\n      dup2\n        /* \"#utility.yul\":389:405   */\n      swap1\n      pop\n        /* \"#utility.yul\":334:411   */\n      swap2\n      swap1\n      pop\n      jump\t// out\n        /* \"#utility.yul\":417:539   */\n    tag_194:\n        /* \"#utility.yul\":490:514   */\n      tag_261\n        /* \"#utility.yul\":508:513   */\n      dup2\n        /* \"#utility.yul\":490:514   */\n      tag_193\n      jump\t// in\n    tag_261:\n        /* \"#utility.yul\":483:488   */\n      dup2\n        /* \"#utility.yul\":480:515   */\n      eq\n        /* \"#utility.yul\":470:533   */\n      tag_262\n      jumpi\n        /* \"#utility.yul\":529:530   */\n      0x00\n        /* \"#utility.yul\":526:527   */\n      dup1\n        /* \"#utility.yul\":519:531   */\n      revert\n        /* \"#utility.yul\":470:533   */\n    tag_262:\n        /* \"#utility.yul\":417:539   */\n      pop\n      jump\t// out\n        /* \"#utility.yul\":545:684   */\n    tag_195:\n        /* \"#utility.yul\":591:596   */\n      0x00\n        /* \"#utility.yul\":629:635   */\n      dup2\n        /* \"#utility.yul\":616:636   */\n      calldataload\n        /* \"#utility.yul\":607:636   */\n      swap1\n      pop\n        /* \"#utility.yul\":645:678   */\n      tag_264\n        /* \"#utility.yul\":672:677   */\n      dup2\n        /* \"#utility.yul\":645:678   */\n      tag_194\n      jump\t// in\n    tag_264:\n        /* \"#utility.yul\":545:684   */\n      swap3\n      swap2\n      pop\n      pop\n      jump\t// out\n        /* \"#utility.yul\":690:1019   */\n    tag_29:\n        /* \"#utility.yul\":749:755   */\n      0x00\n        /* \"#utility.yul\":798:800   */\n      0x20\n        /* \"#utility.yul\":786:795   */\n      dup3\n        /* \"#utility.yul\":777:784   */\n      dup5\n        /* \"#utility.yul\":773:796   */\n      sub\n        /* \"#utility.yul\":769:801   */\n      slt\n        /* \"#utility.yul\":766:885   */\n      iszero\n      tag_266\n      jumpi\n        /* \"#utility.yul\":804:883   */\n      tag_267\n      tag_191\n      jump\t// in\n    tag_267:\n        /* \"#utility.yul\":766:885   */\n    tag_266:\n        /* \"#utility.yul\":924:925   */\n      0x00\n        /* \"#utility.yul\":949:1002   */\n      tag_268\n        /* \"#utility.yul\":994:1001   */\n      dup5\n        /* \"#utility.yul\":985:991   */\n      dup3\n        /* \"#utility.yul\":974:983   */\n      dup6\n        /* \"#utility.yul\":970:992   */\n      add\n        /* \"#utility.yul\":949:1002   */\n      tag_195\n      jump\t// in\n    tag_268:\n        /* \"#utility.yul\":939:1002   */\n      swap2\n      pop\n        /* \"#utility.yul\":895:1012   */\n      pop\n        /* \"#utility.yul\":690:1019   */\n      swap3\n      swap2\n      pop\n      pop\n      jump\t// out\n        /* \"#utility.yul\":1025:1151   */\n    tag_196:\n        /* \"#utility.yul\":1062:1069   */\n      0x00\n        /* \"#utility.yul\":1102:1144   */\n      0xffffffffffffffffffffffffffffffffffffffff\n        /* \"#utility.yul\":1095:1100   */\n      dup3\n        /* \"#utility.yul\":1091:1145   */\n      and\n        /* \"#utility.yul\":1080:1145   */\n      swap1\n      pop\n        /* \"#utility.yul\":1025:1151   */\n      swap2\n      swap1\n      pop\n      jump\t// out\n        /* \"#utility.yul\":1157:1253   */\n    tag_197:\n        /* \"#utility.yul\":1194:1201   */\n      0x00\n        /* \"#utility.yul\":1223:1247   */\n      tag_271\n        /* \"#utility.yul\":1241:1246   */\n      dup3\n        /* \"#utility.yul\":1223:1247   */\n      tag_196\n      jump\t// in\n    tag_271:\n        /* \"#utility.yul\":1212:1247   */\n      swap1\n      pop\n        /* \"#utility.yul\":1157:1253   */\n      swap2\n      swap1\n      pop\n      jump\t// out\n        /* \"#utility.yul\":1259:1377   */\n    tag_198:\n        /* \"#utility.yul\":1346:1370   */\n      tag_273\n        /* \"#utility.yul\":1364:1369   */\n      dup2\n        /* \"#utility.yul\":1346:1370   */\n      tag_197\n      jump\t// in\n    tag_273:\n        /* \"#utility.yul\":1341:1344   */\n      dup3\n        /* \"#utility.yul\":1334:1371   */\n      mstore\n        /* \"#utility.yul\":1259:1377   */\n      pop\n      pop\n      jump\t// out\n        /* \"#utility.yul\":1383:1501   */\n    tag_199:\n        /* \"#utility.yul\":1470:1494   */\n      tag_275\n        /* \"#utility.yul\":1488:1493   */\n      dup2\n        /* \"#utility.yul\":1470:1494   */\n      tag_193\n      jump\t// in\n    tag_275:\n        /* \"#utility.yul\":1465:1468   */\n      dup3\n        /* \"#utility.yul\":1458:1495   */\n      mstore\n        /* \"#utility.yul\":1383:1501   */\n      pop\n      pop\n      jump\t// out\n        /* \"#utility.yul\":1507:2060   */\n    tag_32:\n        /* \"#utility.yul\":1684:1688   */\n      0x00\n        /* \"#utility.yul\":1722:1725   */\n      0x80\n        /* \"#utility.yul\":1711:1720   */\n      dup3\n        /* \"#utility.yul\":1707:1726   */\n      add\n        /* \"#utility.yul\":1699:1726   */\n      swap1\n      pop\n        /* \"#utility.yul\":1736:1807   */\n      tag_277\n        /* \"#utility.yul\":1804:1805   */\n      0x00\n        /* \"#utility.yul\":1793:1802   */\n      dup4\n        /* \"#utility.yul\":1789:1806   */\n      add\n        /* \"#utility.yul\":1780:1786   */\n      dup8\n        /* \"#utility.yul\":1736:1807   */\n      tag_198\n      jump\t// in\n    tag_277:\n        /* \"#utility.yul\":1817:1889   */\n      tag_278\n        /* \"#utility.yul\":1885:1887   */\n      0x20\n        /* \"#utility.yul\":1874:1883   */\n      dup4\n        /* \"#utility.yul\":1870:1888   */\n      add\n        /* \"#utility.yul\":1861:1867   */\n      dup7\n        /* \"#utility.yul\":1817:1889   */\n      tag_198\n      jump\t// in\n    tag_278:\n        /* \"#utility.yul\":1899:1971   */\n      tag_279\n        /* \"#utility.yul\":1967:1969   */\n      0x40\n        /* \"#utility.yul\":1956:1965   */\n      dup4\n        /* \"#utility.yul\":1952:1970   */\n      add\n        /* \"#utility.yul\":1943:1949   */\n      dup6\n        /* \"#utility.yul\":1899:1971   */\n      tag_199\n      jump\t// in\n    tag_279:\n        /* \"#utility.yul\":1981:2053   */\n      tag_280\n        /* \"#utility.yul\":2049:2051   */\n      0x60\n        /* \"#utility.yul\":2038:2047   */\n      dup4\n        /* \"#utility.yul\":2034:2052   */\n      add\n        /* \"#utility.yul\":2025:2031   */\n      dup5\n        /* \"#utility.yul\":1981:2053   */\n      tag_199\n      jump\t// in\n    tag_280:\n        /* \"#utility.yul\":1507:2060   */\n      swap6\n      swap5\n      pop\n      pop\n      pop\n      pop\n      pop\n      jump\t// out\n        /* \"#utility.yul\":2066:2188   */\n    tag_200:\n        /* \"#utility.yul\":2139:2163   */\n      tag_282\n        /* \"#utility.yul\":2157:2162   */\n      dup2\n        /* \"#utility.yul\":2139:2163   */\n      tag_197\n      jump\t// in\n    tag_282:\n        /* \"#utility.yul\":2132:2137   */\n      dup2\n        /* \"#utility.yul\":2129:2164   */\n      eq\n        /* \"#utility.yul\":2119:2182   */\n      tag_283\n      jumpi\n        /* \"#utility.yul\":2178:2179   */\n      0x00\n        /* \"#utility.yul\":2175:2176   */\n      dup1\n        /* \"#utility.yul\":2168:2180   */\n      revert\n        /* \"#utility.yul\":2119:2182   */\n    tag_283:\n        /* \"#utility.yul\":2066:2188   */\n      pop\n      jump\t// out\n        /* \"#utility.yul\":2194:2333   */\n    tag_201:\n        /* \"#utility.yul\":2240:2245   */\n      0x00\n        /* \"#utility.yul\":2278:2284   */\n      dup2\n        /* \"#utility.yul\":2265:2285   */\n      calldataload\n        /* \"#utility.yul\":2256:2285   */\n      swap1\n      pop\n        /* \"#utility.yul\":2294:2327   */\n      tag_285\n        /* \"#utility.yul\":2321:2326   */\n      dup2\n        /* \"#utility.yul\":2294:2327   */\n      tag_200\n      jump\t// in\n    tag_285:\n        /* \"#utility.yul\":2194:2333   */\n      swap3\n      swap2\n      pop\n      pop\n      jump\t// out\n        /* \"#utility.yul\":2339:2813   */\n    tag_35:\n        /* \"#utility.yul\":2407:2413   */\n      0x00\n        /* \"#utility.yul\":2415:2421   */\n      dup1\n        /* \"#utility.yul\":2464:2466   */\n      0x40\n        /* \"#utility.yul\":2452:2461   */\n      dup4\n        /* \"#utility.yul\":2443:2450   */\n      dup6\n        /* \"#utility.yul\":2439:2462   */\n      sub\n        /* \"#utility.yul\":2435:2467   */\n      slt\n        /* \"#utility.yul\":2432:2551   */\n      iszero\n      tag_287\n      jumpi\n        /* \"#utility.yul\":2470:2549   */\n      tag_288\n      tag_191\n      jump\t// in\n    tag_288:\n        /* \"#utility.yul\":2432:2551   */\n    tag_287:\n        /* \"#utility.yul\":2590:2591   */\n      0x00\n        /* \"#utility.yul\":2615:2668   */\n      tag_289\n        /* \"#utility.yul\":2660:2667   */\n      dup6\n        /* \"#utility.yul\":2651:2657   */\n      dup3\n        /* \"#utility.yul\":2640:2649   */\n      dup7\n        /* \"#utility.yul\":2636:2658   */\n      add\n        /* \"#utility.yul\":2615:2668   */\n      tag_195\n      jump\t// in\n    tag_289:\n        /* \"#utility.yul\":2605:2668   */\n      swap3\n      pop\n        /* \"#utility.yul\":2561:2678   */\n      pop\n        /* \"#utility.yul\":2717:2719   */\n      0x20\n        /* \"#utility.yul\":2743:2796   */\n      tag_290\n        /* \"#utility.yul\":2788:2795   */\n      dup6\n        /* \"#utility.yul\":2779:2785   */\n      dup3\n        /* \"#utility.yul\":2768:2777   */\n      dup7\n        /* \"#utility.yul\":2764:2786   */\n      add\n        /* \"#utility.yul\":2743:2796   */\n      tag_201\n      jump\t// in\n    tag_290:\n        /* \"#utility.yul\":2733:2796   */\n      swap2\n      pop\n        /* \"#utility.yul\":2688:2806   */\n      pop\n        /* \"#utility.yul\":2339:2813   */\n      swap3\n      pop\n      swap3\n      swap1\n      pop\n      jump\t// out\n        /* \"#utility.yul\":2819:3041   */\n    tag_40:\n        /* \"#utility.yul\":2912:2916   */\n      0x00\n        /* \"#utility.yul\":2950:2952   */\n      0x20\n        /* \"#utility.yul\":2939:2948   */\n      dup3\n        /* \"#utility.yul\":2935:2953   */\n      add\n        /* \"#utility.yul\":2927:2953   */\n      swap1\n      pop\n        /* \"#utility.yul\":2963:3034   */\n      tag_292\n        /* \"#utility.yul\":3031:3032   */\n      0x00\n        /* \"#utility.yul\":3020:3029   */\n      dup4\n        /* \"#utility.yul\":3016:3033   */\n      add\n        /* \"#utility.yul\":3007:3013   */\n      dup5\n        /* \"#utility.yul\":2963:3034   */\n      tag_199\n      jump\t// in\n    tag_292:\n        /* \"#utility.yul\":2819:3041   */\n      swap3\n      swap2\n      pop\n      pop\n      jump\t// out\n        /* \"#utility.yul\":3047:3164   */\n    tag_202:\n        /* \"#utility.yul\":3156:3157   */\n      0x00\n        /* \"#utility.yul\":3153:3154   */\n      dup1\n        /* \"#utility.yul\":3146:3158   */\n      revert\n        /* \"#utility.yul\":3170:3287   */\n    tag_203:\n        /* \"#utility.yul\":3279:3280   */\n      0x00\n        /* \"#utility.yul\":3276:3277   */\n      dup1\n        /* \"#utility.yul\":3269:3281   */\n      revert\n        /* \"#utility.yul\":3293:3395   */\n    tag_204:\n        /* \"#utility.yul\":3334:3340   */\n      0x00\n        /* \"#utility.yul\":3385:3387   */\n      0x1f\n        /* \"#utility.yul\":3381:3388   */\n      not\n        /* \"#utility.yul\":3376:3378   */\n      0x1f\n        /* \"#utility.yul\":3369:3374   */\n      dup4\n        /* \"#utility.yul\":3365:3379   */\n      add\n        /* \"#utility.yul\":3361:3389   */\n      and\n        /* \"#utility.yul\":3351:3389   */\n      swap1\n      pop\n        /* \"#utility.yul\":3293:3395   */\n      swap2\n      swap1\n      pop\n      jump\t// out\n        /* \"#utility.yul\":3401:3581   */\n    tag_205:\n        /* \"#utility.yul\":3449:3526   */\n      0x4e487b7100000000000000000000000000000000000000000000000000000000\n        /* \"#utility.yul\":3446:3447   */\n      0x00\n        /* \"#utility.yul\":3439:3527   */\n      mstore\n        /* \"#utility.yul\":3546:3550   */\n      0x41\n        /* \"#utility.yul\":3543:3544   */\n      0x04\n        /* \"#utility.yul\":3536:3551   */\n      mstore\n        /* \"#utility.yul\":3570:3574   */\n      0x24\n        /* \"#utility.yul\":3567:3568   */\n      0x00\n        /* \"#utility.yul\":3560:3575   */\n      revert\n        /* \"#utility.yul\":3587:3868   */\n    tag_206:\n        /* \"#utility.yul\":3670:3697   */\n      tag_298\n        /* \"#utility.yul\":3692:3696   */\n      dup3\n        /* \"#utility.yul\":3670:3697   */\n      tag_204\n      jump\t// in\n    tag_298:\n        /* \"#utility.yul\":3662:3668   */\n      dup2\n        /* \"#utility.yul\":3658:3698   */\n      add\n        /* \"#utility.yul\":3800:3806   */\n      dup2\n        /* \"#utility.yul\":3788:3798   */\n      dup2\n        /* \"#utility.yul\":3785:3807   */\n      lt\n        /* \"#utility.yul\":3764:3782   */\n      0xffffffffffffffff\n        /* \"#utility.yul\":3752:3762   */\n      dup3\n        /* \"#utility.yul\":3749:3783   */\n      gt\n        /* \"#utility.yul\":3746:3808   */\n      or\n        /* \"#utility.yul\":3743:3831   */\n      iszero\n      tag_299\n      jumpi\n        /* \"#utility.yul\":3811:3829   */\n      tag_300\n      tag_205\n      jump\t// in\n    tag_300:\n        /* \"#utility.yul\":3743:3831   */\n    tag_299:\n        /* \"#utility.yul\":3851:3861   */\n      dup1\n        /* \"#utility.yul\":3847:3849   */\n      0x40\n        /* \"#utility.yul\":3840:3862   */\n      mstore\n        /* \"#utility.yul\":3630:3868   */\n      pop\n        /* \"#utility.yul\":3587:3868   */\n      pop\n      pop\n      jump\t// out\n        /* \"#utility.yul\":3874:4003   */\n    tag_207:\n        /* \"#utility.yul\":3908:3914   */\n      0x00\n        /* \"#utility.yul\":3935:3955   */\n      tag_302\n      tag_190\n      jump\t// in\n    tag_302:\n        /* \"#utility.yul\":3925:3955   */\n      swap1\n      pop\n        /* \"#utility.yul\":3964:3997   */\n      tag_303\n        /* \"#utility.yul\":3992:3996   */\n      dup3\n        /* \"#utility.yul\":3984:3990   */\n      dup3\n        /* \"#utility.yul\":3964:3997   */\n      tag_206\n      jump\t// in\n    tag_303:\n        /* \"#utility.yul\":3874:4003   */\n      swap2\n      swap1\n      pop\n      jump\t// out\n        /* \"#utility.yul\":4009:4317   */\n    tag_208:\n        /* \"#utility.yul\":4071:4075   */\n      0x00\n        /* \"#utility.yul\":4161:4179   */\n      0xffffffffffffffff\n        /* \"#utility.yul\":4153:4159   */\n      dup3\n        /* \"#utility.yul\":4150:4180   */\n      gt\n        /* \"#utility.yul\":4147:4203   */\n      iszero\n      tag_305\n      jumpi\n        /* \"#utility.yul\":4183:4201   */\n      tag_306\n      tag_205\n      jump\t// in\n    tag_306:\n        /* \"#utility.yul\":4147:4203   */\n    tag_305:\n        /* \"#utility.yul\":4221:4250   */\n      tag_307\n        /* \"#utility.yul\":4243:4249   */\n      dup3\n        /* \"#utility.yul\":4221:4250   */\n      tag_204\n      jump\t// in\n    tag_307:\n        /* \"#utility.yul\":4213:4250   */\n      swap1\n      pop\n        /* \"#utility.yul\":4305:4309   */\n      0x20\n        /* \"#utility.yul\":4299:4303   */\n      dup2\n        /* \"#utility.yul\":4295:4310   */\n      add\n        /* \"#utility.yul\":4287:4310   */\n      swap1\n      pop\n        /* \"#utility.yul\":4009:4317   */\n      swap2\n      swap1\n      pop\n      jump\t// out\n        /* \"#utility.yul\":4323:4469   */\n    tag_209:\n        /* \"#utility.yul\":4420:4426   */\n      dup3\n        /* \"#utility.yul\":4415:4418   */\n      dup2\n        /* \"#utility.yul\":4410:4413   */\n      dup4\n        /* \"#utility.yul\":4397:4427   */\n      calldatacopy\n        /* \"#utility.yul\":4461:4462   */\n      0x00\n        /* \"#utility.yul\":4452:4458   */\n      dup4\n        /* \"#utility.yul\":4447:4450   */\n      dup4\n        /* \"#utility.yul\":4443:4459   */\n      add\n        /* \"#utility.yul\":4436:4463   */\n      mstore\n        /* \"#utility.yul\":4323:4469   */\n      pop\n      pop\n      pop\n      jump\t// out\n        /* \"#utility.yul\":4475:4900   */\n    tag_210:\n        /* \"#utility.yul\":4553:4558   */\n      0x00\n        /* \"#utility.yul\":4578:4644   */\n      tag_310\n        /* \"#utility.yul\":4594:4643   */\n      tag_311\n        /* \"#utility.yul\":4636:4642   */\n      dup5\n        /* \"#utility.yul\":4594:4643   */\n      tag_208\n      jump\t// in\n    tag_311:\n        /* \"#utility.yul\":4578:4644   */\n      tag_207\n      jump\t// in\n    tag_310:\n        /* \"#utility.yul\":4569:4644   */\n      swap1\n      pop\n        /* \"#utility.yul\":4667:4673   */\n      dup3\n        /* \"#utility.yul\":4660:4665   */\n      dup2\n        /* \"#utility.yul\":4653:4674   */\n      mstore\n        /* \"#utility.yul\":4705:4709   */\n      0x20\n        /* \"#utility.yul\":4698:4703   */\n      dup2\n        /* \"#utility.yul\":4694:4710   */\n      add\n        /* \"#utility.yul\":4743:4746   */\n      dup5\n        /* \"#utility.yul\":4734:4740   */\n      dup5\n        /* \"#utility.yul\":4729:4732   */\n      dup5\n        /* \"#utility.yul\":4725:4741   */\n      add\n        /* \"#utility.yul\":4722:4747   */\n      gt\n        /* \"#utility.yul\":4719:4831   */\n      iszero\n      tag_312\n      jumpi\n        /* \"#utility.yul\":4750:4829   */\n      tag_313\n      tag_203\n      jump\t// in\n    tag_313:\n        /* \"#utility.yul\":4719:4831   */\n    tag_312:\n        /* \"#utility.yul\":4840:4894   */\n      tag_314\n        /* \"#utility.yul\":4887:4893   */\n      dup5\n        /* \"#utility.yul\":4882:4885   */\n      dup3\n        /* \"#utility.yul\":4877:4880   */\n      dup6\n        /* \"#utility.yul\":4840:4894   */\n      tag_209\n      jump\t// in\n    tag_314:\n        /* \"#utility.yul\":4559:4900   */\n      pop\n        /* \"#utility.yul\":4475:4900   */\n      swap4\n      swap3\n      pop\n      pop\n      pop\n      jump\t// out\n        /* \"#utility.yul\":4920:5260   */\n    tag_211:\n        /* \"#utility.yul\":4976:4981   */\n      0x00\n        /* \"#utility.yul\":5025:5028   */\n      dup3\n        /* \"#utility.yul\":5018:5022   */\n      0x1f\n        /* \"#utility.yul\":5010:5016   */\n      dup4\n        /* \"#utility.yul\":5006:5023   */\n      add\n        /* \"#utility.yul\":5002:5029   */\n      slt\n        /* \"#utility.yul\":4992:5114   */\n      tag_316\n      jumpi\n        /* \"#utility.yul\":5033:5112   */\n      tag_317\n      tag_202\n      jump\t// in\n    tag_317:\n        /* \"#utility.yul\":4992:5114   */\n    tag_316:\n        /* \"#utility.yul\":5150:5156   */\n      dup2\n        /* \"#utility.yul\":5137:5157   */\n      calldataload\n        /* \"#utility.yul\":5175:5254   */\n      tag_318\n        /* \"#utility.yul\":5250:5253   */\n      dup5\n        /* \"#utility.yul\":5242:5248   */\n      dup3\n        /* \"#utility.yul\":5235:5239   */\n      0x20\n        /* \"#utility.yul\":5227:5233   */\n      dup7\n        /* \"#utility.yul\":5223:5240   */\n      add\n        /* \"#utility.yul\":5175:5254   */\n      tag_210\n      jump\t// in\n    tag_318:\n        /* \"#utility.yul\":5166:5254   */\n      swap2\n      pop\n        /* \"#utility.yul\":4982:5260   */\n      pop\n        /* \"#utility.yul\":4920:5260   */\n      swap3\n      swap2\n      pop\n      pop\n      jump\t// out\n        /* \"#utility.yul\":5266:6100   */\n    tag_43:\n        /* \"#utility.yul\":5354:5360   */\n      0x00\n        /* \"#utility.yul\":5362:5368   */\n      dup1\n        /* \"#utility.yul\":5411:5413   */\n      0x40\n        /* \"#utility.yul\":5399:5408   */\n      dup4\n        /* \"#utility.yul\":5390:5397   */\n      dup6\n        /* \"#utility.yul\":5386:5409   */\n      sub\n        /* \"#utility.yul\":5382:5414   */\n      slt\n        /* \"#utility.yul\":5379:5498   */\n      iszero\n      tag_320\n      jumpi\n        /* \"#utility.yul\":5417:5496   */\n      tag_321\n      tag_191\n      jump\t// in\n    tag_321:\n        /* \"#utility.yul\":5379:5498   */\n    tag_320:\n        /* \"#utility.yul\":5565:5566   */\n      0x00\n        /* \"#utility.yul\":5554:5563   */\n      dup4\n        /* \"#utility.yul\":5550:5567   */\n      add\n        /* \"#utility.yul\":5537:5568   */\n      calldataload\n        /* \"#utility.yul\":5595:5613   */\n      0xffffffffffffffff\n        /* \"#utility.yul\":5587:5593   */\n      dup2\n        /* \"#utility.yul\":5584:5614   */\n      gt\n        /* \"#utility.yul\":5581:5698   */\n      iszero\n      tag_322\n      jumpi\n        /* \"#utility.yul\":5617:5696   */\n      tag_323\n      tag_192\n      jump\t// in\n    tag_323:\n        /* \"#utility.yul\":5581:5698   */\n    tag_322:\n        /* \"#utility.yul\":5722:5785   */\n      tag_324\n        /* \"#utility.yul\":5777:5784   */\n      dup6\n        /* \"#utility.yul\":5768:5774   */\n      dup3\n        /* \"#utility.yul\":5757:5766   */\n      dup7\n        /* \"#utility.yul\":5753:5775   */\n      add\n        /* \"#utility.yul\":5722:5785   */\n      tag_211\n      jump\t// in\n    tag_324:\n        /* \"#utility.yul\":5712:5785   */\n      swap3\n      pop\n        /* \"#utility.yul\":5508:5795   */\n      pop\n        /* \"#utility.yul\":5862:5864   */\n      0x20\n        /* \"#utility.yul\":5851:5860   */\n      dup4\n        /* \"#utility.yul\":5847:5865   */\n      add\n        /* \"#utility.yul\":5834:5866   */\n      calldataload\n        /* \"#utility.yul\":5893:5911   */\n      0xffffffffffffffff\n        /* \"#utility.yul\":5885:5891   */\n      dup2\n        /* \"#utility.yul\":5882:5912   */\n      gt\n        /* \"#utility.yul\":5879:5996   */\n      iszero\n      tag_325\n      jumpi\n        /* \"#utility.yul\":5915:5994   */\n      tag_326\n      tag_192\n      jump\t// in\n    tag_326:\n        /* \"#utility.yul\":5879:5996   */\n    tag_325:\n        /* \"#utility.yul\":6020:6083   */\n      tag_327\n        /* \"#utility.yul\":6075:6082   */\n      dup6\n        /* \"#utility.yul\":6066:6072   */\n      dup3\n        /* \"#utility.yul\":6055:6064   */\n      dup7\n        /* \"#utility.yul\":6051:6073   */\n      add\n        /* \"#utility.yul\":6020:6083   */\n      tag_211\n      jump\t// in\n    tag_327:\n        /* \"#utility.yul\":6010:6083   */\n      swap2\n      pop\n        /* \"#utility.yul\":5805:6093   */\n      pop\n        /* \"#utility.yul\":5266:6100   */\n      swap3\n      pop\n      swap3\n      swap1\n      pop\n      jump\t// out\n        /* \"#utility.yul\":6106:6196   */\n    tag_212:\n        /* \"#utility.yul\":6140:6147   */\n      0x00\n        /* \"#utility.yul\":6183:6188   */\n      dup2\n        /* \"#utility.yul\":6176:6189   */\n      iszero\n        /* \"#utility.yul\":6169:6190   */\n      iszero\n        /* \"#utility.yul\":6158:6190   */\n      swap1\n      pop\n        /* \"#utility.yul\":6106:6196   */\n      swap2\n      swap1\n      pop\n      jump\t// out\n        /* \"#utility.yul\":6202:6311   */\n    tag_213:\n        /* \"#utility.yul\":6283:6304   */\n      tag_330\n        /* \"#utility.yul\":6298:6303   */\n      dup2\n        /* \"#utility.yul\":6283:6304   */\n      tag_212\n      jump\t// in\n    tag_330:\n        /* \"#utility.yul\":6278:6281   */\n      dup3\n        /* \"#utility.yul\":6271:6305   */\n      mstore\n        /* \"#utility.yul\":6202:6311   */\n      pop\n      pop\n      jump\t// out\n        /* \"#utility.yul\":6317:6527   */\n    tag_51:\n        /* \"#utility.yul\":6404:6408   */\n      0x00\n        /* \"#utility.yul\":6442:6444   */\n      0x20\n        /* \"#utility.yul\":6431:6440   */\n      dup3\n        /* \"#utility.yul\":6427:6445   */\n      add\n        /* \"#utility.yul\":6419:6445   */\n      swap1\n      pop\n        /* \"#utility.yul\":6455:6520   */\n      tag_332\n        /* \"#utility.yul\":6517:6518   */\n      0x00\n        /* \"#utility.yul\":6506:6515   */\n      dup4\n        /* \"#utility.yul\":6502:6519   */\n      add\n        /* \"#utility.yul\":6493:6499   */\n      dup5\n        /* \"#utility.yul\":6455:6520   */\n      tag_213\n      jump\t// in\n    tag_332:\n        /* \"#utility.yul\":6317:6527   */\n      swap3\n      swap2\n      pop\n      pop\n      jump\t// out\n        /* \"#utility.yul\":6533:6632   */\n    tag_214:\n        /* \"#utility.yul\":6585:6591   */\n      0x00\n        /* \"#utility.yul\":6619:6624   */\n      dup2\n        /* \"#utility.yul\":6613:6625   */\n      mload\n        /* \"#utility.yul\":6603:6625   */\n      swap1\n      pop\n        /* \"#utility.yul\":6533:6632   */\n      swap2\n      swap1\n      pop\n      jump\t// out\n        /* \"#utility.yul\":6638:6807   */\n    tag_215:\n        /* \"#utility.yul\":6722:6733   */\n      0x00\n        /* \"#utility.yul\":6756:6762   */\n      dup3\n        /* \"#utility.yul\":6751:6754   */\n      dup3\n        /* \"#utility.yul\":6744:6763   */\n      mstore\n        /* \"#utility.yul\":6796:6800   */\n      0x20\n        /* \"#utility.yul\":6791:6794   */\n      dup3\n        /* \"#utility.yul\":6787:6801   */\n      add\n        /* \"#utility.yul\":6772:6801   */\n      swap1\n      pop\n        /* \"#utility.yul\":6638:6807   */\n      swap3\n      swap2\n      pop\n      pop\n      jump\t// out\n        /* \"#utility.yul\":6813:7059   */\n    tag_216:\n        /* \"#utility.yul\":6894:6895   */\n      0x00\n        /* \"#utility.yul\":6904:7017   */\n    tag_336:\n        /* \"#utility.yul\":6918:6924   */\n      dup4\n        /* \"#utility.yul\":6915:6916   */\n      dup2\n        /* \"#utility.yul\":6912:6925   */\n      lt\n        /* \"#utility.yul\":6904:7017   */\n      iszero\n      tag_338\n      jumpi\n        /* \"#utility.yul\":7003:7004   */\n      dup1\n        /* \"#utility.yul\":6998:7001   */\n      dup3\n        /* \"#utility.yul\":6994:7005   */\n      add\n        /* \"#utility.yul\":6988:7006   */\n      mload\n        /* \"#utility.yul\":6984:6985   */\n      dup2\n        /* \"#utility.yul\":6979:6982   */\n      dup5\n        /* \"#utility.yul\":6975:6986   */\n      add\n        /* \"#utility.yul\":6968:7007   */\n      mstore\n        /* \"#utility.yul\":6940:6942   */\n      0x20\n        /* \"#utility.yul\":6937:6938   */\n      dup2\n        /* \"#utility.yul\":6933:6943   */\n      add\n        /* \"#utility.yul\":6928:6943   */\n      swap1\n      pop\n        /* \"#utility.yul\":6904:7017   */\n      jump(tag_336)\n    tag_338:\n        /* \"#utility.yul\":7051:7052   */\n      0x00\n        /* \"#utility.yul\":7042:7048   */\n      dup5\n        /* \"#utility.yul\":7037:7040   */\n      dup5\n        /* \"#utility.yul\":7033:7049   */\n      add\n        /* \"#utility.yul\":7026:7053   */\n      mstore\n        /* \"#utility.yul\":6875:7059   */\n      pop\n        /* \"#utility.yul\":6813:7059   */\n      pop\n      pop\n      pop\n      jump\t// out\n        /* \"#utility.yul\":7065:7442   */\n    tag_217:\n        /* \"#utility.yul\":7153:7156   */\n      0x00\n        /* \"#utility.yul\":7181:7220   */\n      tag_340\n        /* \"#utility.yul\":7214:7219   */\n      dup3\n        /* \"#utility.yul\":7181:7220   */\n      tag_214\n      jump\t// in\n    tag_340:\n        /* \"#utility.yul\":7236:7307   */\n      tag_341\n        /* \"#utility.yul\":7300:7306   */\n      dup2\n        /* \"#utility.yul\":7295:7298   */\n      dup6\n        /* \"#utility.yul\":7236:7307   */\n      tag_215\n      jump\t// in\n    tag_341:\n        /* \"#utility.yul\":7229:7307   */\n      swap4\n      pop\n        /* \"#utility.yul\":7316:7381   */\n      tag_342\n        /* \"#utility.yul\":7374:7380   */\n      dup2\n        /* \"#utility.yul\":7369:7372   */\n      dup6\n        /* \"#utility.yul\":7362:7366   */\n      0x20\n        /* \"#utility.yul\":7355:7360   */\n      dup7\n        /* \"#utility.yul\":7351:7367   */\n      add\n        /* \"#utility.yul\":7316:7381   */\n      tag_216\n      jump\t// in\n    tag_342:\n        /* \"#utility.yul\":7406:7435   */\n      tag_343\n        /* \"#utility.yul\":7428:7434   */\n      dup2\n        /* \"#utility.yul\":7406:7435   */\n      tag_204\n      jump\t// in\n    tag_343:\n        /* \"#utility.yul\":7401:7404   */\n      dup5\n        /* \"#utility.yul\":7397:7436   */\n      add\n        /* \"#utility.yul\":7390:7436   */\n      swap2\n      pop\n        /* \"#utility.yul\":7157:7442   */\n      pop\n        /* \"#utility.yul\":7065:7442   */\n      swap3\n      swap2\n      pop\n      pop\n      jump\t// out\n        /* \"#utility.yul\":7448:7761   */\n    tag_55:\n        /* \"#utility.yul\":7561:7565   */\n      0x00\n        /* \"#utility.yul\":7599:7601   */\n      0x20\n        /* \"#utility.yul\":7588:7597   */\n      dup3\n        /* \"#utility.yul\":7584:7602   */\n      add\n        /* \"#utility.yul\":7576:7602   */\n      swap1\n      pop\n        /* \"#utility.yul\":7648:7657   */\n      dup2\n        /* \"#utility.yul\":7642:7646   */\n      dup2\n        /* \"#utility.yul\":7638:7658   */\n      sub\n        /* \"#utility.yul\":7634:7635   */\n      0x00\n        /* \"#utility.yul\":7623:7632   */\n      dup4\n        /* \"#utility.yul\":7619:7636   */\n      add\n        /* \"#utility.yul\":7612:7659   */\n      mstore\n        /* \"#utility.yul\":7676:7754   */\n      tag_345\n        /* \"#utility.yul\":7749:7753   */\n      dup2\n        /* \"#utility.yul\":7740:7746   */\n      dup5\n        /* \"#utility.yul\":7676:7754   */\n      tag_217\n      jump\t// in\n    tag_345:\n        /* \"#utility.yul\":7668:7754   */\n      swap1\n      pop\n        /* \"#utility.yul\":7448:7761   */\n      swap3\n      swap2\n      pop\n      pop\n      jump\t// out\n        /* \"#utility.yul\":7767:7910   */\n    tag_218:\n        /* \"#utility.yul\":7863:7869   */\n      0x00\n        /* \"#utility.yul\":7897:7902   */\n      dup2\n        /* \"#utility.yul\":7891:7903   */\n      mload\n        /* \"#utility.yul\":7881:7903   */\n      swap1\n      pop\n        /* \"#utility.yul\":7767:7910   */\n      swap2\n      swap1\n      pop\n      jump\t// out\n        /* \"#utility.yul\":7916:8129   */\n    tag_219:\n        /* \"#utility.yul\":8044:8055   */\n      0x00\n        /* \"#utility.yul\":8078:8084   */\n      dup3\n        /* \"#utility.yul\":8073:8076   */\n      dup3\n        /* \"#utility.yul\":8066:8085   */\n      mstore\n        /* \"#utility.yul\":8118:8122   */\n      0x20\n        /* \"#utility.yul\":8113:8116   */\n      dup3\n        /* \"#utility.yul\":8109:8123   */\n      add\n        /* \"#utility.yul\":8094:8123   */\n      swap1\n      pop\n        /* \"#utility.yul\":7916:8129   */\n      swap3\n      swap2\n      pop\n      pop\n      jump\t// out\n        /* \"#utility.yul\":8135:8296   */\n    tag_220:\n        /* \"#utility.yul\":8231:8235   */\n      0x00\n        /* \"#utility.yul\":8254:8257   */\n      dup2\n        /* \"#utility.yul\":8246:8257   */\n      swap1\n      pop\n        /* \"#utility.yul\":8284:8288   */\n      0x20\n        /* \"#utility.yul\":8279:8282   */\n      dup3\n        /* \"#utility.yul\":8275:8289   */\n      add\n        /* \"#utility.yul\":8267:8289   */\n      swap1\n      pop\n        /* \"#utility.yul\":8135:8296   */\n      swap2\n      swap1\n      pop\n      jump\t// out\n        /* \"#utility.yul\":8302:8410   */\n    tag_221:\n        /* \"#utility.yul\":8379:8403   */\n      tag_350\n        /* \"#utility.yul\":8397:8402   */\n      dup2\n        /* \"#utility.yul\":8379:8403   */\n      tag_197\n      jump\t// in\n    tag_350:\n        /* \"#utility.yul\":8374:8377   */\n      dup3\n        /* \"#utility.yul\":8367:8404   */\n      mstore\n        /* \"#utility.yul\":8302:8410   */\n      pop\n      pop\n      jump\t// out\n        /* \"#utility.yul\":8416:8524   */\n    tag_222:\n        /* \"#utility.yul\":8493:8517   */\n      tag_352\n        /* \"#utility.yul\":8511:8516   */\n      dup2\n        /* \"#utility.yul\":8493:8517   */\n      tag_193\n      jump\t// in\n    tag_352:\n        /* \"#utility.yul\":8488:8491   */\n      dup3\n        /* \"#utility.yul\":8481:8518   */\n      mstore\n        /* \"#utility.yul\":8416:8524   */\n      pop\n      pop\n      jump\t// out\n        /* \"#utility.yul\":8604:9478   */\n    tag_223:\n        /* \"#utility.yul\":8749:8753   */\n      0x80\n        /* \"#utility.yul\":8744:8747   */\n      dup3\n        /* \"#utility.yul\":8740:8754   */\n      add\n        /* \"#utility.yul\":8844:8848   */\n      0x00\n        /* \"#utility.yul\":8837:8842   */\n      dup3\n        /* \"#utility.yul\":8833:8849   */\n      add\n        /* \"#utility.yul\":8827:8850   */\n      mload\n        /* \"#utility.yul\":8863:8926   */\n      tag_354\n        /* \"#utility.yul\":8920:8924   */\n      0x00\n        /* \"#utility.yul\":8915:8918   */\n      dup6\n        /* \"#utility.yul\":8911:8925   */\n      add\n        /* \"#utility.yul\":8897:8909   */\n      dup3\n        /* \"#utility.yul\":8863:8926   */\n      tag_221\n      jump\t// in\n    tag_354:\n        /* \"#utility.yul\":8764:8936   */\n      pop\n        /* \"#utility.yul\":9024:9028   */\n      0x20\n        /* \"#utility.yul\":9017:9022   */\n      dup3\n        /* \"#utility.yul\":9013:9029   */\n      add\n        /* \"#utility.yul\":9007:9030   */\n      mload\n        /* \"#utility.yul\":9043:9106   */\n      tag_355\n        /* \"#utility.yul\":9100:9104   */\n      0x20\n        /* \"#utility.yul\":9095:9098   */\n      dup6\n        /* \"#utility.yul\":9091:9105   */\n      add\n        /* \"#utility.yul\":9077:9089   */\n      dup3\n        /* \"#utility.yul\":9043:9106   */\n      tag_221\n      jump\t// in\n    tag_355:\n        /* \"#utility.yul\":8946:9116   */\n      pop\n        /* \"#utility.yul\":9200:9204   */\n      0x40\n        /* \"#utility.yul\":9193:9198   */\n      dup3\n        /* \"#utility.yul\":9189:9205   */\n      add\n        /* \"#utility.yul\":9183:9206   */\n      mload\n        /* \"#utility.yul\":9219:9282   */\n      tag_356\n        /* \"#utility.yul\":9276:9280   */\n      0x40\n        /* \"#utility.yul\":9271:9274   */\n      dup6\n        /* \"#utility.yul\":9267:9281   */\n      add\n        /* \"#utility.yul\":9253:9265   */\n      dup3\n        /* \"#utility.yul\":9219:9282   */\n      tag_222\n      jump\t// in\n    tag_356:\n        /* \"#utility.yul\":9126:9292   */\n      pop\n        /* \"#utility.yul\":9379:9383   */\n      0x60\n        /* \"#utility.yul\":9372:9377   */\n      dup3\n        /* \"#utility.yul\":9368:9384   */\n      add\n        /* \"#utility.yul\":9362:9385   */\n      mload\n        /* \"#utility.yul\":9398:9461   */\n      tag_357\n        /* \"#utility.yul\":9455:9459   */\n      0x60\n        /* \"#utility.yul\":9450:9453   */\n      dup6\n        /* \"#utility.yul\":9446:9460   */\n      add\n        /* \"#utility.yul\":9432:9444   */\n      dup3\n        /* \"#utility.yul\":9398:9461   */\n      tag_222\n      jump\t// in\n    tag_357:\n        /* \"#utility.yul\":9302:9471   */\n      pop\n        /* \"#utility.yul\":8718:9478   */\n      pop\n        /* \"#utility.yul\":8604:9478   */\n      pop\n      pop\n      jump\t// out\n        /* \"#utility.yul\":9484:9779   */\n    tag_224:\n        /* \"#utility.yul\":9611:9621   */\n      0x00\n        /* \"#utility.yul\":9632:9736   */\n      tag_359\n        /* \"#utility.yul\":9732:9735   */\n      dup4\n        /* \"#utility.yul\":9724:9730   */\n      dup4\n        /* \"#utility.yul\":9632:9736   */\n      tag_223\n      jump\t// in\n    tag_359:\n        /* \"#utility.yul\":9768:9772   */\n      0x80\n        /* \"#utility.yul\":9763:9766   */\n      dup4\n        /* \"#utility.yul\":9759:9773   */\n      add\n        /* \"#utility.yul\":9745:9773   */\n      swap1\n      pop\n        /* \"#utility.yul\":9484:9779   */\n      swap3\n      swap2\n      pop\n      pop\n      jump\t// out\n        /* \"#utility.yul\":9785:9927   */\n    tag_225:\n        /* \"#utility.yul\":9884:9888   */\n      0x00\n        /* \"#utility.yul\":9916:9920   */\n      0x20\n        /* \"#utility.yul\":9911:9914   */\n      dup3\n        /* \"#utility.yul\":9907:9921   */\n      add\n        /* \"#utility.yul\":9899:9921   */\n      swap1\n      pop\n        /* \"#utility.yul\":9785:9927   */\n      swap2\n      swap1\n      pop\n      jump\t// out\n        /* \"#utility.yul\":10011:10975   */\n    tag_226:\n        /* \"#utility.yul\":10188:10191   */\n      0x00\n        /* \"#utility.yul\":10217:10300   */\n      tag_362\n        /* \"#utility.yul\":10294:10299   */\n      dup3\n        /* \"#utility.yul\":10217:10300   */\n      tag_218\n      jump\t// in\n    tag_362:\n        /* \"#utility.yul\":10316:10431   */\n      tag_363\n        /* \"#utility.yul\":10424:10430   */\n      dup2\n        /* \"#utility.yul\":10419:10422   */\n      dup6\n        /* \"#utility.yul\":10316:10431   */\n      tag_219\n      jump\t// in\n    tag_363:\n        /* \"#utility.yul\":10309:10431   */\n      swap4\n      pop\n        /* \"#utility.yul\":10455:10540   */\n      tag_364\n        /* \"#utility.yul\":10534:10539   */\n      dup4\n        /* \"#utility.yul\":10455:10540   */\n      tag_220\n      jump\t// in\n    tag_364:\n        /* \"#utility.yul\":10563:10570   */\n      dup1\n        /* \"#utility.yul\":10594:10595   */\n      0x00\n        /* \"#utility.yul\":10579:10950   */\n    tag_365:\n        /* \"#utility.yul\":10604:10610   */\n      dup4\n        /* \"#utility.yul\":10601:10602   */\n      dup2\n        /* \"#utility.yul\":10598:10611   */\n      lt\n        /* \"#utility.yul\":10579:10950   */\n      iszero\n      tag_367\n      jumpi\n        /* \"#utility.yul\":10680:10686   */\n      dup2\n        /* \"#utility.yul\":10674:10687   */\n      mload\n        /* \"#utility.yul\":10707:10828   */\n      tag_368\n        /* \"#utility.yul\":10824:10827   */\n      dup9\n        /* \"#utility.yul\":10809:10822   */\n      dup3\n        /* \"#utility.yul\":10707:10828   */\n      tag_224\n      jump\t// in\n    tag_368:\n        /* \"#utility.yul\":10700:10828   */\n      swap8\n      pop\n        /* \"#utility.yul\":10851:10940   */\n      tag_369\n        /* \"#utility.yul\":10933:10939   */\n      dup4\n        /* \"#utility.yul\":10851:10940   */\n      tag_225\n      jump\t// in\n    tag_369:\n        /* \"#utility.yul\":10841:10940   */\n      swap3\n      pop\n        /* \"#utility.yul\":10639:10950   */\n      pop\n        /* \"#utility.yul\":10626:10627   */\n      0x01\n        /* \"#utility.yul\":10623:10624   */\n      dup2\n        /* \"#utility.yul\":10619:10628   */\n      add\n        /* \"#utility.yul\":10614:10628   */\n      swap1\n      pop\n        /* \"#utility.yul\":10579:10950   */\n      jump(tag_365)\n    tag_367:\n        /* \"#utility.yul\":10583:10597   */\n      pop\n        /* \"#utility.yul\":10966:10969   */\n      dup6\n        /* \"#utility.yul\":10959:10969   */\n      swap4\n      pop\n        /* \"#utility.yul\":10193:10975   */\n      pop\n      pop\n      pop\n        /* \"#utility.yul\":10011:10975   */\n      swap3\n      swap2\n      pop\n      pop\n      jump\t// out\n        /* \"#utility.yul\":10981:11470   */\n    tag_79:\n        /* \"#utility.yul\":11182:11186   */\n      0x00\n        /* \"#utility.yul\":11220:11222   */\n      0x20\n        /* \"#utility.yul\":11209:11218   */\n      dup3\n        /* \"#utility.yul\":11205:11223   */\n      add\n        /* \"#utility.yul\":11197:11223   */\n      swap1\n      pop\n        /* \"#utility.yul\":11269:11278   */\n      dup2\n        /* \"#utility.yul\":11263:11267   */\n      dup2\n        /* \"#utility.yul\":11259:11279   */\n      sub\n        /* \"#utility.yul\":11255:11256   */\n      0x00\n        /* \"#utility.yul\":11244:11253   */\n      dup4\n        /* \"#utility.yul\":11240:11257   */\n      add\n        /* \"#utility.yul\":11233:11280   */\n      mstore\n        /* \"#utility.yul\":11297:11463   */\n      tag_371\n        /* \"#utility.yul\":11458:11462   */\n      dup2\n        /* \"#utility.yul\":11449:11455   */\n      dup5\n        /* \"#utility.yul\":11297:11463   */\n      tag_226\n      jump\t// in\n    tag_371:\n        /* \"#utility.yul\":11289:11463   */\n      swap1\n      pop\n        /* \"#utility.yul\":10981:11470   */\n      swap3\n      swap2\n      pop\n      pop\n      jump\t// out\n        /* \"#utility.yul\":11550:12434   */\n    tag_227:\n        /* \"#utility.yul\":11705:11709   */\n      0x80\n        /* \"#utility.yul\":11700:11703   */\n      dup3\n        /* \"#utility.yul\":11696:11710   */\n      add\n        /* \"#utility.yul\":11800:11804   */\n      0x00\n        /* \"#utility.yul\":11793:11798   */\n      dup3\n        /* \"#utility.yul\":11789:11805   */\n      add\n        /* \"#utility.yul\":11783:11806   */\n      mload\n        /* \"#utility.yul\":11819:11882   */\n      tag_373\n        /* \"#utility.yul\":11876:11880   */\n      0x00\n        /* \"#utility.yul\":11871:11874   */\n      dup6\n        /* \"#utility.yul\":11867:11881   */\n      add\n        /* \"#utility.yul\":11853:11865   */\n      dup3\n        /* \"#utility.yul\":11819:11882   */\n      tag_221\n      jump\t// in\n    tag_373:\n        /* \"#utility.yul\":11720:11892   */\n      pop\n        /* \"#utility.yul\":11980:11984   */\n      0x20\n        /* \"#utility.yul\":11973:11978   */\n      dup3\n        /* \"#utility.yul\":11969:11985   */\n      add\n        /* \"#utility.yul\":11963:11986   */\n      mload\n        /* \"#utility.yul\":11999:12062   */\n      tag_374\n        /* \"#utility.yul\":12056:12060   */\n      0x20\n        /* \"#utility.yul\":12051:12054   */\n      dup6\n        /* \"#utility.yul\":12047:12061   */\n      add\n        /* \"#utility.yul\":12033:12045   */\n      dup3\n        /* \"#utility.yul\":11999:12062   */\n      tag_221\n      jump\t// in\n    tag_374:\n        /* \"#utility.yul\":11902:12072   */\n      pop\n        /* \"#utility.yul\":12156:12160   */\n      0x40\n        /* \"#utility.yul\":12149:12154   */\n      dup3\n        /* \"#utility.yul\":12145:12161   */\n      add\n        /* \"#utility.yul\":12139:12162   */\n      mload\n        /* \"#utility.yul\":12175:12238   */\n      tag_375\n        /* \"#utility.yul\":12232:12236   */\n      0x40\n        /* \"#utility.yul\":12227:12230   */\n      dup6\n        /* \"#utility.yul\":12223:12237   */\n      add\n        /* \"#utility.yul\":12209:12221   */\n      dup3\n        /* \"#utility.yul\":12175:12238   */\n      tag_222\n      jump\t// in\n    tag_375:\n        /* \"#utility.yul\":12082:12248   */\n      pop\n        /* \"#utility.yul\":12335:12339   */\n      0x60\n        /* \"#utility.yul\":12328:12333   */\n      dup3\n        /* \"#utility.yul\":12324:12340   */\n      add\n        /* \"#utility.yul\":12318:12341   */\n      mload\n        /* \"#utility.yul\":12354:12417   */\n      tag_376\n        /* \"#utility.yul\":12411:12415   */\n      0x60\n        /* \"#utility.yul\":12406:12409   */\n      dup6\n        /* \"#utility.yul\":12402:12416   */\n      add\n        /* \"#utility.yul\":12388:12400   */\n      dup3\n        /* \"#utility.yul\":12354:12417   */\n      tag_222\n      jump\t// in\n    tag_376:\n        /* \"#utility.yul\":12258:12427   */\n      pop\n        /* \"#utility.yul\":11674:12434   */\n      pop\n        /* \"#utility.yul\":11550:12434   */\n      pop\n      pop\n      jump\t// out\n        /* \"#utility.yul\":12440:12779   */\n    tag_99:\n        /* \"#utility.yul\":12591:12595   */\n      0x00\n        /* \"#utility.yul\":12629:12632   */\n      0x80\n        /* \"#utility.yul\":12618:12627   */\n      dup3\n        /* \"#utility.yul\":12614:12633   */\n      add\n        /* \"#utility.yul\":12606:12633   */\n      swap1\n      pop\n        /* \"#utility.yul\":12643:12772   */\n      tag_378\n        /* \"#utility.yul\":12769:12770   */\n      0x00\n        /* \"#utility.yul\":12758:12767   */\n      dup4\n        /* \"#utility.yul\":12754:12771   */\n      add\n        /* \"#utility.yul\":12745:12751   */\n      dup5\n        /* \"#utility.yul\":12643:12772   */\n      tag_227\n      jump\t// in\n    tag_378:\n        /* \"#utility.yul\":12440:12779   */\n      swap3\n      swap2\n      pop\n      pop\n      jump\t// out\n        /* \"#utility.yul\":12785:12963   */\n    tag_228:\n        /* \"#utility.yul\":12925:12955   */\n      0x2054686973206164647265737320646f65736e27742065786973747300000000\n        /* \"#utility.yul\":12921:12922   */\n      0x00\n        /* \"#utility.yul\":12913:12919   */\n      dup3\n        /* \"#utility.yul\":12909:12923   */\n      add\n        /* \"#utility.yul\":12902:12956   */\n      mstore\n        /* \"#utility.yul\":12785:12963   */\n      pop\n      jump\t// out\n        /* \"#utility.yul\":12969:13335   */\n    tag_229:\n        /* \"#utility.yul\":13111:13114   */\n      0x00\n        /* \"#utility.yul\":13132:13199   */\n      tag_381\n        /* \"#utility.yul\":13196:13198   */\n      0x1c\n        /* \"#utility.yul\":13191:13194   */\n      dup4\n        /* \"#utility.yul\":13132:13199   */\n      tag_215\n      jump\t// in\n    tag_381:\n        /* \"#utility.yul\":13125:13199   */\n      swap2\n      pop\n        /* \"#utility.yul\":13208:13301   */\n      tag_382\n        /* \"#utility.yul\":13297:13300   */\n      dup3\n        /* \"#utility.yul\":13208:13301   */\n      tag_228\n      jump\t// in\n    tag_382:\n        /* \"#utility.yul\":13326:13328   */\n      0x20\n        /* \"#utility.yul\":13321:13324   */\n      dup3\n        /* \"#utility.yul\":13317:13329   */\n      add\n        /* \"#utility.yul\":13310:13329   */\n      swap1\n      pop\n        /* \"#utility.yul\":12969:13335   */\n      swap2\n      swap1\n      pop\n      jump\t// out\n        /* \"#utility.yul\":13341:13760   */\n    tag_108:\n        /* \"#utility.yul\":13507:13511   */\n      0x00\n        /* \"#utility.yul\":13545:13547   */\n      0x20\n        /* \"#utility.yul\":13534:13543   */\n      dup3\n        /* \"#utility.yul\":13530:13548   */\n      add\n        /* \"#utility.yul\":13522:13548   */\n      swap1\n      pop\n        /* \"#utility.yul\":13594:13603   */\n      dup2\n        /* \"#utility.yul\":13588:13592   */\n      dup2\n        /* \"#utility.yul\":13584:13604   */\n      sub\n        /* \"#utility.yul\":13580:13581   */\n      0x00\n        /* \"#utility.yul\":13569:13578   */\n      dup4\n        /* \"#utility.yul\":13565:13582   */\n      add\n        /* \"#utility.yul\":13558:13605   */\n      mstore\n        /* \"#utility.yul\":13622:13753   */\n      tag_384\n        /* \"#utility.yul\":13748:13752   */\n      dup2\n        /* \"#utility.yul\":13622:13753   */\n      tag_229\n      jump\t// in\n    tag_384:\n        /* \"#utility.yul\":13614:13753   */\n      swap1\n      pop\n        /* \"#utility.yul\":13341:13760   */\n      swap2\n      swap1\n      pop\n      jump\t// out\n        /* \"#utility.yul\":13766:13939   */\n    tag_230:\n        /* \"#utility.yul\":13906:13931   */\n      0x506c6561736520696e7365727420796f75722063617264000000000000000000\n        /* \"#utility.yul\":13902:13903   */\n      0x00\n        /* \"#utility.yul\":13894:13900   */\n      dup3\n        /* \"#utility.yul\":13890:13904   */\n      add\n        /* \"#utility.yul\":13883:13932   */\n      mstore\n        /* \"#utility.yul\":13766:13939   */\n      pop\n      jump\t// out\n        /* \"#utility.yul\":13945:14311   */\n    tag_231:\n        /* \"#utility.yul\":14087:14090   */\n      0x00\n        /* \"#utility.yul\":14108:14175   */\n      tag_387\n        /* \"#utility.yul\":14172:14174   */\n      0x17\n        /* \"#utility.yul\":14167:14170   */\n      dup4\n        /* \"#utility.yul\":14108:14175   */\n      tag_215\n      jump\t// in\n    tag_387:\n        /* \"#utility.yul\":14101:14175   */\n      swap2\n      pop\n        /* \"#utility.yul\":14184:14277   */\n      tag_388\n        /* \"#utility.yul\":14273:14276   */\n      dup3\n        /* \"#utility.yul\":14184:14277   */\n      tag_230\n      jump\t// in\n    tag_388:\n        /* \"#utility.yul\":14302:14304   */\n      0x20\n        /* \"#utility.yul\":14297:14300   */\n      dup3\n        /* \"#utility.yul\":14293:14305   */\n      add\n        /* \"#utility.yul\":14286:14305   */\n      swap1\n      pop\n        /* \"#utility.yul\":13945:14311   */\n      swap2\n      swap1\n      pop\n      jump\t// out\n        /* \"#utility.yul\":14317:14736   */\n    tag_112:\n        /* \"#utility.yul\":14483:14487   */\n      0x00\n        /* \"#utility.yul\":14521:14523   */\n      0x20\n        /* \"#utility.yul\":14510:14519   */\n      dup3\n        /* \"#utility.yul\":14506:14524   */\n      add\n        /* \"#utility.yul\":14498:14524   */\n      swap1\n      pop\n        /* \"#utility.yul\":14570:14579   */\n      dup2\n        /* \"#utility.yul\":14564:14568   */\n      dup2\n        /* \"#utility.yul\":14560:14580   */\n      sub\n        /* \"#utility.yul\":14556:14557   */\n      0x00\n        /* \"#utility.yul\":14545:14554   */\n      dup4\n        /* \"#utility.yul\":14541:14558   */\n      add\n        /* \"#utility.yul\":14534:14581   */\n      mstore\n        /* \"#utility.yul\":14598:14729   */\n      tag_390\n        /* \"#utility.yul\":14724:14728   */\n      dup2\n        /* \"#utility.yul\":14598:14729   */\n      tag_231\n      jump\t// in\n    tag_390:\n        /* \"#utility.yul\":14590:14729   */\n      swap1\n      pop\n        /* \"#utility.yul\":14317:14736   */\n      swap2\n      swap1\n      pop\n      jump\t// out\n        /* \"#utility.yul\":14742:14922   */\n    tag_232:\n        /* \"#utility.yul\":14790:14867   */\n      0x4e487b7100000000000000000000000000000000000000000000000000000000\n        /* \"#utility.yul\":14787:14788   */\n      0x00\n        /* \"#utility.yul\":14780:14868   */\n      mstore\n        /* \"#utility.yul\":14887:14891   */\n      0x11\n        /* \"#utility.yul\":14884:14885   */\n      0x04\n        /* \"#utility.yul\":14877:14892   */\n      mstore\n        /* \"#utility.yul\":14911:14915   */\n      0x24\n        /* \"#utility.yul\":14908:14909   */\n      0x00\n        /* \"#utility.yul\":14901:14916   */\n      revert\n        /* \"#utility.yul\":14928:15119   */\n    tag_116:\n        /* \"#utility.yul\":14968:14971   */\n      0x00\n        /* \"#utility.yul\":14987:15007   */\n      tag_393\n        /* \"#utility.yul\":15005:15006   */\n      dup3\n        /* \"#utility.yul\":14987:15007   */\n      tag_193\n      jump\t// in\n    tag_393:\n        /* \"#utility.yul\":14982:15007   */\n      swap2\n      pop\n        /* \"#utility.yul\":15021:15041   */\n      tag_394\n        /* \"#utility.yul\":15039:15040   */\n      dup4\n        /* \"#utility.yul\":15021:15041   */\n      tag_193\n      jump\t// in\n    tag_394:\n        /* \"#utility.yul\":15016:15041   */\n      swap3\n      pop\n        /* \"#utility.yul\":15064:15065   */\n      dup3\n        /* \"#utility.yul\":15061:15062   */\n      dup3\n        /* \"#utility.yul\":15057:15066   */\n      add\n        /* \"#utility.yul\":15050:15066   */\n      swap1\n      pop\n        /* \"#utility.yul\":15085:15088   */\n      dup1\n        /* \"#utility.yul\":15082:15083   */\n      dup3\n        /* \"#utility.yul\":15079:15089   */\n      gt\n        /* \"#utility.yul\":15076:15112   */\n      iszero\n      tag_395\n      jumpi\n        /* \"#utility.yul\":15092:15110   */\n      tag_396\n      tag_232\n      jump\t// in\n    tag_396:\n        /* \"#utility.yul\":15076:15112   */\n    tag_395:\n        /* \"#utility.yul\":14928:15119   */\n      swap3\n      swap2\n      pop\n      pop\n      jump\t// out\n        /* \"#utility.yul\":15125:15305   */\n    tag_120:\n        /* \"#utility.yul\":15173:15250   */\n      0x4e487b7100000000000000000000000000000000000000000000000000000000\n        /* \"#utility.yul\":15170:15171   */\n      0x00\n        /* \"#utility.yul\":15163:15251   */\n      mstore\n        /* \"#utility.yul\":15270:15274   */\n      0x01\n        /* \"#utility.yul\":15267:15268   */\n      0x04\n        /* \"#utility.yul\":15260:15275   */\n      mstore\n        /* \"#utility.yul\":15294:15298   */\n      0x24\n        /* \"#utility.yul\":15291:15292   */\n      0x00\n        /* \"#utility.yul\":15284:15299   */\n      revert\n        /* \"#utility.yul\":15311:15488   */\n    tag_233:\n        /* \"#utility.yul\":15451:15480   */\n      0x6f6e6c792035207472616e73616374696f6e7320706572206461790000000000\n        /* \"#utility.yul\":15447:15448   */\n      0x00\n        /* \"#utility.yul\":15439:15445   */\n      dup3\n        /* \"#utility.yul\":15435:15449   */\n      add\n        /* \"#utility.yul\":15428:15481   */\n      mstore\n        /* \"#utility.yul\":15311:15488   */\n      pop\n      jump\t// out\n        /* \"#utility.yul\":15494:15860   */\n    tag_234:\n        /* \"#utility.yul\":15636:15639   */\n      0x00\n        /* \"#utility.yul\":15657:15724   */\n      tag_400\n        /* \"#utility.yul\":15721:15723   */\n      0x1b\n        /* \"#utility.yul\":15716:15719   */\n      dup4\n        /* \"#utility.yul\":15657:15724   */\n      tag_215\n      jump\t// in\n    tag_400:\n        /* \"#utility.yul\":15650:15724   */\n      swap2\n      pop\n        /* \"#utility.yul\":15733:15826   */\n      tag_401\n        /* \"#utility.yul\":15822:15825   */\n      dup3\n        /* \"#utility.yul\":15733:15826   */\n      tag_233\n      jump\t// in\n    tag_401:\n        /* \"#utility.yul\":15851:15853   */\n      0x20\n        /* \"#utility.yul\":15846:15849   */\n      dup3\n        /* \"#utility.yul\":15842:15854   */\n      add\n        /* \"#utility.yul\":15835:15854   */\n      swap1\n      pop\n        /* \"#utility.yul\":15494:15860   */\n      swap2\n      swap1\n      pop\n      jump\t// out\n        /* \"#utility.yul\":15866:16285   */\n    tag_122:\n        /* \"#utility.yul\":16032:16036   */\n      0x00\n        /* \"#utility.yul\":16070:16072   */\n      0x20\n        /* \"#utility.yul\":16059:16068   */\n      dup3\n        /* \"#utility.yul\":16055:16073   */\n      add\n        /* \"#utility.yul\":16047:16073   */\n      swap1\n      pop\n        /* \"#utility.yul\":16119:16128   */\n      dup2\n        /* \"#utility.yul\":16113:16117   */\n      dup2\n        /* \"#utility.yul\":16109:16129   */\n      sub\n        /* \"#utility.yul\":16105:16106   */\n      0x00\n        /* \"#utility.yul\":16094:16103   */\n      dup4\n        /* \"#utility.yul\":16090:16107   */\n      add\n        /* \"#utility.yul\":16083:16130   */\n      mstore\n        /* \"#utility.yul\":16147:16278   */\n      tag_403\n        /* \"#utility.yul\":16273:16277   */\n      dup2\n        /* \"#utility.yul\":16147:16278   */\n      tag_234\n      jump\t// in\n    tag_403:\n        /* \"#utility.yul\":16139:16278   */\n      swap1\n      pop\n        /* \"#utility.yul\":15866:16285   */\n      swap2\n      swap1\n      pop\n      jump\t// out\n        /* \"#utility.yul\":16291:16485   */\n    tag_133:\n        /* \"#utility.yul\":16331:16335   */\n      0x00\n        /* \"#utility.yul\":16351:16371   */\n      tag_405\n        /* \"#utility.yul\":16369:16370   */\n      dup3\n        /* \"#utility.yul\":16351:16371   */\n      tag_193\n      jump\t// in\n    tag_405:\n        /* \"#utility.yul\":16346:16371   */\n      swap2\n      pop\n        /* \"#utility.yul\":16385:16405   */\n      tag_406\n        /* \"#utility.yul\":16403:16404   */\n      dup4\n        /* \"#utility.yul\":16385:16405   */\n      tag_193\n      jump\t// in\n    tag_406:\n        /* \"#utility.yul\":16380:16405   */\n      swap3\n      pop\n        /* \"#utility.yul\":16429:16430   */\n      dup3\n        /* \"#utility.yul\":16426:16427   */\n      dup3\n        /* \"#utility.yul\":16422:16431   */\n      sub\n        /* \"#utility.yul\":16414:16431   */\n      swap1\n      pop\n        /* \"#utility.yul\":16453:16454   */\n      dup2\n        /* \"#utility.yul\":16447:16451   */\n      dup2\n        /* \"#utility.yul\":16444:16455   */\n      gt\n        /* \"#utility.yul\":16441:16478   */\n      iszero\n      tag_407\n      jumpi\n        /* \"#utility.yul\":16458:16476   */\n      tag_408\n      tag_232\n      jump\t// in\n    tag_408:\n        /* \"#utility.yul\":16441:16478   */\n    tag_407:\n        /* \"#utility.yul\":16291:16485   */\n      swap3\n      swap2\n      pop\n      pop\n      jump\t// out\n        /* \"#utility.yul\":16491:16671   */\n    tag_235:\n        /* \"#utility.yul\":16539:16616   */\n      0x4e487b7100000000000000000000000000000000000000000000000000000000\n        /* \"#utility.yul\":16536:16537   */\n      0x00\n        /* \"#utility.yul\":16529:16617   */\n      mstore\n        /* \"#utility.yul\":16636:16640   */\n      0x22\n        /* \"#utility.yul\":16633:16634   */\n      0x04\n        /* \"#utility.yul\":16626:16641   */\n      mstore\n        /* \"#utility.yul\":16660:16664   */\n      0x24\n        /* \"#utility.yul\":16657:16658   */\n      0x00\n        /* \"#utility.yul\":16650:16665   */\n      revert\n        /* \"#utility.yul\":16677:16997   */\n    tag_148:\n        /* \"#utility.yul\":16721:16727   */\n      0x00\n        /* \"#utility.yul\":16758:16759   */\n      0x02\n        /* \"#utility.yul\":16752:16756   */\n      dup3\n        /* \"#utility.yul\":16748:16760   */\n      div\n        /* \"#utility.yul\":16738:16760   */\n      swap1\n      pop\n        /* \"#utility.yul\":16805:16806   */\n      0x01\n        /* \"#utility.yul\":16799:16803   */\n      dup3\n        /* \"#utility.yul\":16795:16807   */\n      and\n        /* \"#utility.yul\":16826:16844   */\n      dup1\n        /* \"#utility.yul\":16816:16897   */\n      tag_411\n      jumpi\n        /* \"#utility.yul\":16882:16886   */\n      0x7f\n        /* \"#utility.yul\":16874:16880   */\n      dup3\n        /* \"#utility.yul\":16870:16887   */\n      and\n        /* \"#utility.yul\":16860:16887   */\n      swap2\n      pop\n        /* \"#utility.yul\":16816:16897   */\n    tag_411:\n        /* \"#utility.yul\":16944:16946   */\n      0x20\n        /* \"#utility.yul\":16936:16942   */\n      dup3\n        /* \"#utility.yul\":16933:16947   */\n      lt\n        /* \"#utility.yul\":16913:16931   */\n      dup2\n        /* \"#utility.yul\":16910:16948   */\n      sub\n        /* \"#utility.yul\":16907:16991   */\n      tag_412\n      jumpi\n        /* \"#utility.yul\":16963:16981   */\n      tag_413\n      tag_235\n      jump\t// in\n    tag_413:\n        /* \"#utility.yul\":16907:16991   */\n    tag_412:\n        /* \"#utility.yul\":16728:16997   */\n      pop\n        /* \"#utility.yul\":16677:16997   */\n      swap2\n      swap1\n      pop\n      jump\t// out\n        /* \"#utility.yul\":17003:17144   */\n    tag_236:\n        /* \"#utility.yul\":17052:17056   */\n      0x00\n        /* \"#utility.yul\":17075:17078   */\n      dup2\n        /* \"#utility.yul\":17067:17078   */\n      swap1\n      pop\n        /* \"#utility.yul\":17098:17101   */\n      dup2\n        /* \"#utility.yul\":17095:17096   */\n      0x00\n        /* \"#utility.yul\":17088:17102   */\n      mstore\n        /* \"#utility.yul\":17132:17136   */\n      0x20\n        /* \"#utility.yul\":17129:17130   */\n      0x00\n        /* \"#utility.yul\":17119:17137   */\n      keccak256\n        /* \"#utility.yul\":17111:17137   */\n      swap1\n      pop\n        /* \"#utility.yul\":17003:17144   */\n      swap2\n      swap1\n      pop\n      jump\t// out\n        /* \"#utility.yul\":17150:17243   */\n    tag_237:\n        /* \"#utility.yul\":17187:17193   */\n      0x00\n        /* \"#utility.yul\":17234:17236   */\n      0x20\n        /* \"#utility.yul\":17229:17231   */\n      0x1f\n        /* \"#utility.yul\":17222:17227   */\n      dup4\n        /* \"#utility.yul\":17218:17232   */\n      add\n        /* \"#utility.yul\":17214:17237   */\n      div\n        /* \"#utility.yul\":17204:17237   */\n      swap1\n      pop\n        /* \"#utility.yul\":17150:17243   */\n      swap2\n      swap1\n      pop\n      jump\t// out\n        /* \"#utility.yul\":17249:17356   */\n    tag_238:\n        /* \"#utility.yul\":17293:17301   */\n      0x00\n        /* \"#utility.yul\":17343:17348   */\n      dup3\n        /* \"#utility.yul\":17337:17341   */\n      dup3\n        /* \"#utility.yul\":17333:17349   */\n      shl\n        /* \"#utility.yul\":17312:17349   */\n      swap1\n      pop\n        /* \"#utility.yul\":17249:17356   */\n      swap3\n      swap2\n      pop\n      pop\n      jump\t// out\n        /* \"#utility.yul\":17362:17755   */\n    tag_239:\n        /* \"#utility.yul\":17431:17437   */\n      0x00\n        /* \"#utility.yul\":17481:17482   */\n      0x08\n        /* \"#utility.yul\":17469:17479   */\n      dup4\n        /* \"#utility.yul\":17465:17483   */\n      mul\n        /* \"#utility.yul\":17504:17601   */\n      tag_418\n        /* \"#utility.yul\":17534:17600   */\n      0xffffffffffffffffffffffffffffffffffffffffffffffffffffffffffffffff\n        /* \"#utility.yul\":17523:17532   */\n      dup3\n        /* \"#utility.yul\":17504:17601   */\n      tag_238\n      jump\t// in\n    tag_418:\n        /* \"#utility.yul\":17622:17661   */\n      tag_419\n        /* \"#utility.yul\":17652:17660   */\n      dup7\n        /* \"#utility.yul\":17641:17650   */\n      dup4\n        /* \"#utility.yul\":17622:17661   */\n      tag_238\n      jump\t// in\n    tag_419:\n        /* \"#utility.yul\":17610:17661   */\n      swap6\n      pop\n        /* \"#utility.yul\":17694:17698   */\n      dup1\n        /* \"#utility.yul\":17690:17699   */\n      not\n        /* \"#utility.yul\":17683:17688   */\n      dup5\n        /* \"#utility.yul\":17679:17700   */\n      and\n        /* \"#utility.yul\":17670:17700   */\n      swap4\n      pop\n        /* \"#utility.yul\":17743:17747   */\n      dup1\n        /* \"#utility.yul\":17733:17741   */\n      dup7\n        /* \"#utility.yul\":17729:17748   */\n      and\n        /* \"#utility.yul\":17722:17727   */\n      dup5\n        /* \"#utility.yul\":17719:17749   */\n      or\n        /* \"#utility.yul\":17709:17749   */\n      swap3\n      pop\n        /* \"#utility.yul\":17438:17755   */\n      pop\n      pop\n        /* \"#utility.yul\":17362:17755   */\n      swap4\n      swap3\n      pop\n      pop\n      pop\n      jump\t// out\n        /* \"#utility.yul\":17761:17821   */\n    tag_240:\n        /* \"#utility.yul\":17789:17792   */\n      0x00\n        /* \"#utility.yul\":17810:17815   */\n      dup2\n        /* \"#utility.yul\":17803:17815   */\n      swap1\n      pop\n        /* \"#utility.yul\":17761:17821   */\n      swap2\n      swap1\n      pop\n      jump\t// out\n        /* \"#utility.yul\":17827:17969   */\n    tag_241:\n        /* \"#utility.yul\":17877:17886   */\n      0x00\n        /* \"#utility.yul\":17910:17963   */\n      tag_422\n        /* \"#utility.yul\":17928:17962   */\n      tag_423\n        /* \"#utility.yul\":17937:17961   */\n      tag_424\n        /* \"#utility.yul\":17955:17960   */\n      dup5\n        /* \"#utility.yul\":17937:17961   */\n      tag_193\n      jump\t// in\n    tag_424:\n        /* \"#utility.yul\":17928:17962   */\n      tag_240\n      jump\t// in\n    tag_423:\n        /* \"#utility.yul\":17910:17963   */\n      tag_193\n      jump\t// in\n    tag_422:\n        /* \"#utility.yul\":17897:17963   */\n      swap1\n      pop\n        /* \"#utility.yul\":17827:17969   */\n      swap2\n      swap1\n      pop\n      jump\t// out\n        /* \"#utility.yul\":17975:18050   */\n    tag_242:\n        /* \"#utility.yul\":18018:18021   */\n      0x00\n        /* \"#utility.yul\":18039:18044   */\n      dup2\n        /* \"#utility.yul\":18032:18044   */\n      swap1\n      pop\n        /* \"#utility.yul\":17975:18050   */\n      swap2\n      swap1\n      pop\n      jump\t// out\n        /* \"#utility.yul\":18056:18325   */\n    tag_243:\n        /* \"#utility.yul\":18166:18205   */\n      tag_427\n        /* \"#utility.yul\":18197:18204   */\n      dup4\n        /* \"#utility.yul\":18166:18205   */\n      tag_241\n      jump\t// in\n    tag_427:\n        /* \"#utility.yul\":18227:18318   */\n      tag_428\n        /* \"#utility.yul\":18276:18317   */\n      tag_429\n        /* \"#utility.yul\":18300:18316   */\n      dup3\n        /* \"#utility.yul\":18276:18317   */\n      tag_242\n      jump\t// in\n    tag_429:\n        /* \"#utility.yul\":18268:18274   */\n      dup5\n        /* \"#utility.yul\":18261:18265   */\n      dup5\n        /* \"#utility.yul\":18255:18266   */\n      sload\n        /* \"#utility.yul\":18227:18318   */\n      tag_239\n      jump\t// in\n    tag_428:\n        /* \"#utility.yul\":18221:18225   */\n      dup3\n        /* \"#utility.yul\":18214:18319   */\n      sstore\n        /* \"#utility.yul\":18132:18325   */\n      pop\n        /* \"#utility.yul\":18056:18325   */\n      pop\n      pop\n      pop\n      jump\t// out\n        /* \"#utility.yul\":18331:18404   */\n    tag_244:\n        /* \"#utility.yul\":18376:18379   */\n      0x00\n        /* \"#utility.yul\":18331:18404   */\n      swap1\n      jump\t// out\n        /* \"#utility.yul\":18410:18599   */\n    tag_245:\n        /* \"#utility.yul\":18487:18519   */\n      tag_432\n      tag_244\n      jump\t// in\n    tag_432:\n        /* \"#utility.yul\":18528:18593   */\n      tag_433\n        /* \"#utility.yul\":18586:18592   */\n      dup2\n        /* \"#utility.yul\":18578:18584   */\n      dup5\n        /* \"#utility.yul\":18572:18576   */\n      dup5\n        /* \"#utility.yul\":18528:18593   */\n      tag_243\n      jump\t// in\n    tag_433:\n        /* \"#utility.yul\":18463:18599   */\n      pop\n        /* \"#utility.yul\":18410:18599   */\n      pop\n      pop\n      jump\t// out\n        /* \"#utility.yul\":18605:18791   */\n    tag_246:\n        /* \"#utility.yul\":18665:18785   */\n    tag_435:\n        /* \"#utility.yul\":18682:18685   */\n      dup2\n        /* \"#utility.yul\":18675:18680   */\n      dup2\n        /* \"#utility.yul\":18672:18686   */\n      lt\n        /* \"#utility.yul\":18665:18785   */\n      iszero\n      tag_437\n      jumpi\n        /* \"#utility.yul\":18736:18775   */\n      tag_438\n        /* \"#utility.yul\":18773:18774   */\n      0x00\n        /* \"#utility.yul\":18766:18771   */\n      dup3\n        /* \"#utility.yul\":18736:18775   */\n      tag_245\n      jump\t// in\n    tag_438:\n        /* \"#utility.yul\":18709:18710   */\n      0x01\n        /* \"#utility.yul\":18702:18707   */\n      dup2\n        /* \"#utility.yul\":18698:18711   */\n      add\n        /* \"#utility.yul\":18689:18711   */\n      swap1\n      pop\n        /* \"#utility.yul\":18665:18785   */\n      jump(tag_435)\n    tag_437:\n        /* \"#utility.yul\":18605:18791   */\n      pop\n      pop\n      jump\t// out\n        /* \"#utility.yul\":18797:19340   */\n    tag_247:\n        /* \"#utility.yul\":18898:18900   */\n      0x1f\n        /* \"#utility.yul\":18893:18896   */\n      dup3\n        /* \"#utility.yul\":18890:18901   */\n      gt\n        /* \"#utility.yul\":18887:19333   */\n      iszero\n      tag_440\n      jumpi\n        /* \"#utility.yul\":18932:18970   */\n      tag_441\n        /* \"#utility.yul\":18964:18969   */\n      dup2\n        /* \"#utility.yul\":18932:18970   */\n      tag_236\n      jump\t// in\n    tag_441:\n        /* \"#utility.yul\":19016:19045   */\n      tag_442\n        /* \"#utility.yul\":19034:19044   */\n      dup5\n        /* \"#utility.yul\":19016:19045   */\n      tag_237\n      jump\t// in\n    tag_442:\n        /* \"#utility.yul\":19006:19014   */\n      dup2\n        /* \"#utility.yul\":19002:19046   */\n      add\n        /* \"#utility.yul\":19199:19201   */\n      0x20\n        /* \"#utility.yul\":19187:19197   */\n      dup6\n        /* \"#utility.yul\":19184:19202   */\n      lt\n        /* \"#utility.yul\":19181:19230   */\n      iszero\n      tag_443\n      jumpi\n        /* \"#utility.yul\":19220:19228   */\n      dup2\n        /* \"#utility.yul\":19205:19228   */\n      swap1\n      pop\n        /* \"#utility.yul\":19181:19230   */\n    tag_443:\n        /* \"#utility.yul\":19243:19323   */\n      tag_444\n        /* \"#utility.yul\":19299:19321   */\n      tag_445\n        /* \"#utility.yul\":19317:19320   */\n      dup6\n        /* \"#utility.yul\":19299:19321   */\n      tag_237\n      jump\t// in\n    tag_445:\n        /* \"#utility.yul\":19289:19297   */\n      dup4\n        /* \"#utility.yul\":19285:19322   */\n      add\n        /* \"#utility.yul\":19272:19283   */\n      dup3\n        /* \"#utility.yul\":19243:19323   */\n      tag_246\n      jump\t// in\n    tag_444:\n        /* \"#utility.yul\":18902:19333   */\n      pop\n      pop\n        /* \"#utility.yul\":18887:19333   */\n    tag_440:\n        /* \"#utility.yul\":18797:19340   */\n      pop\n      pop\n      pop\n      jump\t// out\n        /* \"#utility.yul\":19346:19463   */\n    tag_248:\n        /* \"#utility.yul\":19400:19408   */\n      0x00\n        /* \"#utility.yul\":19450:19455   */\n      dup3\n        /* \"#utility.yul\":19444:19448   */\n      dup3\n        /* \"#utility.yul\":19440:19456   */\n      shr\n        /* \"#utility.yul\":19419:19456   */\n      swap1\n      pop\n        /* \"#utility.yul\":19346:19463   */\n      swap3\n      swap2\n      pop\n      pop\n      jump\t// out\n        /* \"#utility.yul\":19469:19638   */\n    tag_249:\n        /* \"#utility.yul\":19513:19519   */\n      0x00\n        /* \"#utility.yul\":19546:19597   */\n      tag_448\n        /* \"#utility.yul\":19594:19595   */\n      0x00\n        /* \"#utility.yul\":19590:19596   */\n      not\n        /* \"#utility.yul\":19582:19587   */\n      dup5\n        /* \"#utility.yul\":19579:19580   */\n      0x08\n        /* \"#utility.yul\":19575:19588   */\n      mul\n        /* \"#utility.yul\":19546:19597   */\n      tag_248\n      jump\t// in\n    tag_448:\n        /* \"#utility.yul\":19542:19598   */\n      not\n        /* \"#utility.yul\":19627:19631   */\n      dup1\n        /* \"#utility.yul\":19621:19625   */\n      dup4\n        /* \"#utility.yul\":19617:19632   */\n      and\n        /* \"#utility.yul\":19607:19632   */\n      swap2\n      pop\n        /* \"#utility.yul\":19520:19638   */\n      pop\n        /* \"#utility.yul\":19469:19638   */\n      swap3\n      swap2\n      pop\n      pop\n      jump\t// out\n        /* \"#utility.yul\":19643:19938   */\n    tag_250:\n        /* \"#utility.yul\":19719:19723   */\n      0x00\n        /* \"#utility.yul\":19865:19894   */\n      tag_450\n        /* \"#utility.yul\":19890:19893   */\n      dup4\n        /* \"#utility.yul\":19884:19888   */\n      dup4\n        /* \"#utility.yul\":19865:19894   */\n      tag_249\n      jump\t// in\n    tag_450:\n        /* \"#utility.yul\":19857:19894   */\n      swap2\n      pop\n        /* \"#utility.yul\":19927:19930   */\n      dup3\n        /* \"#utility.yul\":19924:19925   */\n      0x02\n        /* \"#utility.yul\":19920:19931   */\n      mul\n        /* \"#utility.yul\":19914:19918   */\n      dup3\n        /* \"#utility.yul\":19911:19932   */\n      or\n        /* \"#utility.yul\":19903:19932   */\n      swap1\n      pop\n        /* \"#utility.yul\":19643:19938   */\n      swap3\n      swap2\n      pop\n      pop\n      jump\t// out\n        /* \"#utility.yul\":19943:21338   */\n    tag_139:\n        /* \"#utility.yul\":20060:20097   */\n      tag_452\n        /* \"#utility.yul\":20093:20096   */\n      dup3\n        /* \"#utility.yul\":20060:20097   */\n      tag_214\n      jump\t// in\n    tag_452:\n        /* \"#utility.yul\":20162:20180   */\n      0xffffffffffffffff\n        /* \"#utility.yul\":20154:20160   */\n      dup2\n        /* \"#utility.yul\":20151:20181   */\n      gt\n        /* \"#utility.yul\":20148:20204   */\n      iszero\n      tag_453\n      jumpi\n        /* \"#utility.yul\":20184:20202   */\n      tag_454\n      tag_205\n      jump\t// in\n    tag_454:\n        /* \"#utility.yul\":20148:20204   */\n    tag_453:\n        /* \"#utility.yul\":20228:20266   */\n      tag_455\n        /* \"#utility.yul\":20260:20264   */\n      dup3\n        /* \"#utility.yul\":20254:20265   */\n      sload\n        /* \"#utility.yul\":20228:20266   */\n      tag_148\n      jump\t// in\n    tag_455:\n        /* \"#utility.yul\":20313:20380   */\n      tag_456\n        /* \"#utility.yul\":20373:20379   */\n      dup3\n        /* \"#utility.yul\":20365:20371   */\n      dup3\n        /* \"#utility.yul\":20359:20363   */\n      dup6\n        /* \"#utility.yul\":20313:20380   */\n      tag_247\n      jump\t// in\n    tag_456:\n        /* \"#utility.yul\":20407:20408   */\n      0x00\n        /* \"#utility.yul\":20431:20435   */\n      0x20\n        /* \"#utility.yul\":20418:20435   */\n      swap1\n      pop\n        /* \"#utility.yul\":20463:20465   */\n      0x1f\n        /* \"#utility.yul\":20455:20461   */\n      dup4\n        /* \"#utility.yul\":20452:20466   */\n      gt\n        /* \"#utility.yul\":20480:20481   */\n      0x01\n        /* \"#utility.yul\":20475:21093   */\n      dup2\n      eq\n      tag_458\n      jumpi\n        /* \"#utility.yul\":21137:21138   */\n      0x00\n        /* \"#utility.yul\":21154:21160   */\n      dup5\n        /* \"#utility.yul\":21151:21228   */\n      iszero\n      tag_459\n      jumpi\n        /* \"#utility.yul\":21203:21212   */\n      dup3\n        /* \"#utility.yul\":21198:21201   */\n      dup8\n        /* \"#utility.yul\":21194:21213   */\n      add\n        /* \"#utility.yul\":21188:21214   */\n      mload\n        /* \"#utility.yul\":21179:21214   */\n      swap1\n      pop\n        /* \"#utility.yul\":21151:21228   */\n    tag_459:\n        /* \"#utility.yul\":21254:21321   */\n      tag_460\n        /* \"#utility.yul\":21314:21320   */\n      dup6\n        /* \"#utility.yul\":21307:21312   */\n      dup3\n        /* \"#utility.yul\":21254:21321   */\n      tag_250\n      jump\t// in\n    tag_460:\n        /* \"#utility.yul\":21248:21252   */\n      dup7\n        /* \"#utility.yul\":21241:21322   */\n      sstore\n        /* \"#utility.yul\":21110:21332   */\n      pop\n        /* \"#utility.yul\":20445:21332   */\n      jump(tag_457)\n        /* \"#utility.yul\":20475:21093   */\n    tag_458:\n        /* \"#utility.yul\":20527:20531   */\n      0x1f\n        /* \"#utility.yul\":20523:20532   */\n      not\n        /* \"#utility.yul\":20515:20521   */\n      dup5\n        /* \"#utility.yul\":20511:20533   */\n      and\n        /* \"#utility.yul\":20561:20598   */\n      tag_461\n        /* \"#utility.yul\":20593:20597   */\n      dup7\n        /* \"#utility.yul\":20561:20598   */\n      tag_236\n      jump\t// in\n    tag_461:\n        /* \"#utility.yul\":20620:20621   */\n      0x00\n        /* \"#utility.yul\":20634:20842   */\n    tag_462:\n        /* \"#utility.yul\":20648:20655   */\n      dup3\n        /* \"#utility.yul\":20645:20646   */\n      dup2\n        /* \"#utility.yul\":20642:20656   */\n      lt\n        /* \"#utility.yul\":20634:20842   */\n      iszero\n      tag_464\n      jumpi\n        /* \"#utility.yul\":20727:20736   */\n      dup5\n        /* \"#utility.yul\":20722:20725   */\n      dup10\n        /* \"#utility.yul\":20718:20737   */\n      add\n        /* \"#utility.yul\":20712:20738   */\n      mload\n        /* \"#utility.yul\":20704:20710   */\n      dup3\n        /* \"#utility.yul\":20697:20739   */\n      sstore\n        /* \"#utility.yul\":20778:20779   */\n      0x01\n        /* \"#utility.yul\":20770:20776   */\n      dup3\n        /* \"#utility.yul\":20766:20780   */\n      add\n        /* \"#utility.yul\":20756:20780   */\n      swap2\n      pop\n        /* \"#utility.yul\":20825:20827   */\n      0x20\n        /* \"#utility.yul\":20814:20823   */\n      dup6\n        /* \"#utility.yul\":20810:20828   */\n      add\n        /* \"#utility.yul\":20797:20828   */\n      swap5\n      pop\n        /* \"#utility.yul\":20671:20675   */\n      0x20\n        /* \"#utility.yul\":20668:20669   */\n      dup2\n        /* \"#utility.yul\":20664:20676   */\n      add\n        /* \"#utility.yul\":20659:20676   */\n      swap1\n      pop\n        /* \"#utility.yul\":20634:20842   */\n      jump(tag_462)\n    tag_464:\n        /* \"#utility.yul\":20870:20876   */\n      dup7\n        /* \"#utility.yul\":20861:20868   */\n      dup4\n        /* \"#utility.yul\":20858:20877   */\n      lt\n        /* \"#utility.yul\":20855:21034   */\n      iszero\n      tag_465\n      jumpi\n        /* \"#utility.yul\":20928:20937   */\n      dup5\n        /* \"#utility.yul\":20923:20926   */\n      dup10\n        /* \"#utility.yul\":20919:20938   */\n      add\n        /* \"#utility.yul\":20913:20939   */\n      mload\n        /* \"#utility.yul\":20971:21019   */\n      tag_466\n        /* \"#utility.yul\":21013:21017   */\n      0x1f\n        /* \"#utility.yul\":21005:21011   */\n      dup10\n        /* \"#utility.yul\":21001:21018   */\n      and\n        /* \"#utility.yul\":20990:20999   */\n      dup3\n        /* \"#utility.yul\":20971:21019   */\n      tag_249\n      jump\t// in\n    tag_466:\n        /* \"#utility.yul\":20963:20969   */\n      dup4\n        /* \"#utility.yul\":20956:21020   */\n      sstore\n        /* \"#utility.yul\":20878:21034   */\n      pop\n        /* \"#utility.yul\":20855:21034   */\n    tag_465:\n        /* \"#utility.yul\":21080:21081   */\n      0x01\n        /* \"#utility.yul\":21076:21077   */\n      0x02\n        /* \"#utility.yul\":21068:21074   */\n      dup9\n        /* \"#utility.yul\":21064:21078   */\n      mul\n        /* \"#utility.yul\":21060:21082   */\n      add\n        /* \"#utility.yul\":21054:21058   */\n      dup9\n        /* \"#utility.yul\":21047:21083   */\n      sstore\n        /* \"#utility.yul\":20482:21093   */\n      pop\n      pop\n      pop\n        /* \"#utility.yul\":20445:21332   */\n    tag_457:\n      pop\n        /* \"#utility.yul\":20035:21338   */\n      pop\n      pop\n      pop\n        /* \"#utility.yul\":19943:21338   */\n      pop\n      pop\n      jump\t// out\n        /* \"#utility.yul\":21344:21510   */\n    tag_251:\n        /* \"#utility.yul\":21484:21502   */\n      0x4e6f7420656e6f7567682066756e647300000000000000000000000000000000\n        /* \"#utility.yul\":21480:21481   */\n      0x00\n        /* \"#utility.yul\":21472:21478   */\n      dup3\n        /* \"#utility.yul\":21468:21482   */\n      add\n        /* \"#utility.yul\":21461:21503   */\n      mstore\n        /* \"#utility.yul\":21344:21510   */\n      pop\n      jump\t// out\n        /* \"#utility.yul\":21516:21882   */\n    tag_252:\n        /* \"#utility.yul\":21658:21661   */\n      0x00\n        /* \"#utility.yul\":21679:21746   */\n      tag_469\n        /* \"#utility.yul\":21743:21745   */\n      0x10\n        /* \"#utility.yul\":21738:21741   */\n      dup4\n        /* \"#utility.yul\":21679:21746   */\n      tag_215\n      jump\t// in\n    tag_469:\n        /* \"#utility.yul\":21672:21746   */\n      swap2\n      pop\n        /* \"#utility.yul\":21755:21848   */\n      tag_470\n        /* \"#utility.yul\":21844:21847   */\n      dup3\n        /* \"#utility.yul\":21755:21848   */\n      tag_251\n      jump\t// in\n    tag_470:\n        /* \"#utility.yul\":21873:21875   */\n      0x20\n        /* \"#utility.yul\":21868:21871   */\n      dup3\n        /* \"#utility.yul\":21864:21876   */\n      add\n        /* \"#utility.yul\":21857:21876   */\n      swap1\n      pop\n        /* \"#utility.yul\":21516:21882   */\n      swap2\n      swap1\n      pop\n      jump\t// out\n        /* \"#utility.yul\":21888:22307   */\n    tag_142:\n        /* \"#utility.yul\":22054:22058   */\n      0x00\n        /* \"#utility.yul\":22092:22094   */\n      0x20\n        /* \"#utility.yul\":22081:22090   */\n      dup3\n        /* \"#utility.yul\":22077:22095   */\n      add\n        /* \"#utility.yul\":22069:22095   */\n      swap1\n      pop\n        /* \"#utility.yul\":22141:22150   */\n      dup2\n        /* \"#utility.yul\":22135:22139   */\n      dup2\n        /* \"#utility.yul\":22131:22151   */\n      sub\n        /* \"#utility.yul\":22127:22128   */\n      0x00\n        /* \"#utility.yul\":22116:22125   */\n      dup4\n        /* \"#utility.yul\":22112:22129   */\n      add\n        /* \"#utility.yul\":22105:22152   */\n      mstore\n        /* \"#utility.yul\":22169:22300   */\n      tag_472\n        /* \"#utility.yul\":22295:22299   */\n      dup2\n        /* \"#utility.yul\":22169:22300   */\n      tag_252\n      jump\t// in\n    tag_472:\n        /* \"#utility.yul\":22161:22300   */\n      swap1\n      pop\n        /* \"#utility.yul\":21888:22307   */\n      swap2\n      swap1\n      pop\n      jump\t// out\n        /* \"#utility.yul\":22313:22483   */\n    tag_253:\n        /* \"#utility.yul\":22453:22475   */\n      0x4e6f2076616c6964206372656469742063617264000000000000000000000000\n        /* \"#utility.yul\":22449:22450   */\n      0x00\n        /* \"#utility.yul\":22441:22447   */\n      dup3\n        /* \"#utility.yul\":22437:22451   */\n      add\n        /* \"#utility.yul\":22430:22476   */\n      mstore\n        /* \"#utility.yul\":22313:22483   */\n      pop\n      jump\t// out\n        /* \"#utility.yul\":22489:22855   */\n    tag_254:\n        /* \"#utility.yul\":22631:22634   */\n      0x00\n        /* \"#utility.yul\":22652:22719   */\n      tag_475\n        /* \"#utility.yul\":22716:22718   */\n      0x14\n        /* \"#utility.yul\":22711:22714   */\n      dup4\n        /* \"#utility.yul\":22652:22719   */\n      tag_215\n      jump\t// in\n    tag_475:\n        /* \"#utility.yul\":22645:22719   */\n      swap2\n      pop\n        /* \"#utility.yul\":22728:22821   */\n      tag_476\n        /* \"#utility.yul\":22817:22820   */\n      dup3\n        /* \"#utility.yul\":22728:22821   */\n      tag_253\n      jump\t// in\n    tag_476:\n        /* \"#utility.yul\":22846:22848   */\n      0x20\n        /* \"#utility.yul\":22841:22844   */\n      dup3\n        /* \"#utility.yul\":22837:22849   */\n      add\n        /* \"#utility.yul\":22830:22849   */\n      swap1\n      pop\n        /* \"#utility.yul\":22489:22855   */\n      swap2\n      swap1\n      pop\n      jump\t// out\n        /* \"#utility.yul\":22861:23280   */\n    tag_153:\n        /* \"#utility.yul\":23027:23031   */\n      0x00\n        /* \"#utility.yul\":23065:23067   */\n      0x20\n        /* \"#utility.yul\":23054:23063   */\n      dup3\n        /* \"#utility.yul\":23050:23068   */\n      add\n        /* \"#utility.yul\":23042:23068   */\n      swap1\n      pop\n        /* \"#utility.yul\":23114:23123   */\n      dup2\n        /* \"#utility.yul\":23108:23112   */\n      dup2\n        /* \"#utility.yul\":23104:23124   */\n      sub\n        /* \"#utility.yul\":23100:23101   */\n      0x00\n        /* \"#utility.yul\":23089:23098   */\n      dup4\n        /* \"#utility.yul\":23085:23102   */\n      add\n        /* \"#utility.yul\":23078:23125   */\n      mstore\n        /* \"#utility.yul\":23142:23273   */\n      tag_478\n        /* \"#utility.yul\":23268:23272   */\n      dup2\n        /* \"#utility.yul\":23142:23273   */\n      tag_254\n      jump\t// in\n    tag_478:\n        /* \"#utility.yul\":23134:23273   */\n      swap1\n      pop\n        /* \"#utility.yul\":22861:23280   */\n      swap2\n      swap1\n      pop\n      jump\t// out\n        /* \"#utility.yul\":23286:23519   */\n    tag_189:\n        /* \"#utility.yul\":23325:23328   */\n      0x00\n        /* \"#utility.yul\":23348:23372   */\n      tag_480\n        /* \"#utility.yul\":23366:23371   */\n      dup3\n        /* \"#utility.yul\":23348:23372   */\n      tag_193\n      jump\t// in\n    tag_480:\n        /* \"#utility.yul\":23339:23372   */\n      swap2\n      pop\n        /* \"#utility.yul\":23394:23460   */\n      0xffffffffffffffffffffffffffffffffffffffffffffffffffffffffffffffff\n        /* \"#utility.yul\":23387:23392   */\n      dup3\n        /* \"#utility.yul\":23384:23461   */\n      sub\n        /* \"#utility.yul\":23381:23484   */\n      tag_481\n      jumpi\n        /* \"#utility.yul\":23464:23482   */\n      tag_482\n      tag_232\n      jump\t// in\n    tag_482:\n        /* \"#utility.yul\":23381:23484   */\n    tag_481:\n        /* \"#utility.yul\":23511:23512   */\n      0x01\n        /* \"#utility.yul\":23504:23509   */\n      dup3\n        /* \"#utility.yul\":23500:23513   */\n      add\n        /* \"#utility.yul\":23493:23513   */\n      swap1\n      pop\n        /* \"#utility.yul\":23286:23519   */\n      swap2\n      swap1\n      pop\n      jump\t// out\n\n    auxdata: 0xa26469706673582212206e429d3b1cca3f5d90debba6b86f9a274ddf4b036d2cb7ca539ef8522719631564736f6c63430008100033\n}\n",
				"bytecode": {
					"linkReferences": {},
					"object": "608060405260006002556000600c556000600d60006101000a81548160ff0219169083151502179055503480156200003657600080fd5b5060405162001daa38038062001daa83398181016040528101906200005c9190620000aa565b8060058190555050620000dc565b600080fd5b6000819050919050565b62000084816200006f565b81146200009057600080fd5b50565b600081519050620000a48162000079565b92915050565b600060208284031215620000c357620000c26200006a565b5b6000620000d38482850162000093565b91505092915050565b611cbe80620000ec6000396000f3fe608060405234801561001057600080fd5b50600436106101375760003560e01c806357bf72e3116100b85780638fa118641161007c5780638fa1186414610322578063aa8c217c14610340578063b6b55f251461035e578063e21f37ce1461038e578063f4b30eaf146103ac578063f7e03fd8146103dc57610137565b806357bf72e31461028b5780637b9a3f4c146102be5780637eb9f571146102dc57806383920e90146102fa5780638e029c0b1461031857610137565b80633c626f00116100ff5780633c626f00146101e357806342fb7936146102015780634b28f9a21461021f578063548769211461023d578063557ed1ba1461026d57610137565b806304ef5b211461013c578063062a75441461016f5780630e85fa721461018b57806312a029a4146101a957806324ba506d146101c5575b600080fd5b610156600480360381019061015191906110ee565b6103fa565b604051610166949392919061116b565b60405180910390f35b610189600480360381019061018491906111dc565b61047a565b005b6101936107be565b6040516101a0919061121c565b60405180910390f35b6101c360048036038101906101be919061137d565b6107c4565b005b6101cd610874565b6040516101da919061121c565b60405180910390f35b6101eb61087e565b6040516101f89190611410565b60405180910390f35b610209610891565b60405161021691906114aa565b60405180910390f35b61022761091f565b604051610234919061121c565b60405180910390f35b610257600480360381019061025291906110ee565b610925565b604051610264919061121c565b60405180910390f35b61027561092c565b604051610282919061121c565b60405180910390f35b6102a560048036038101906102a091906110ee565b610934565b6040516102b5949392919061116b565b60405180910390f35b6102c66109a4565b6040516102d3919061121c565b60405180910390f35b6102e46109aa565b6040516102f1919061121c565b60405180910390f35b6103026109b0565b60405161030f91906115ee565b60405180910390f35b610320610acf565b005b61032a610aec565b60405161033791906114aa565b60405180910390f35b610348610b7a565b604051610355919061121c565b60405180910390f35b610378600480360381019061037391906110ee565b610b80565b604051610385919061121c565b60405180910390f35b610396610ba1565b6040516103a391906114aa565b60405180910390f35b6103c660048036038101906103c191906110ee565b610c2f565b6040516103d39190611665565b60405180910390f35b6103e4610d1c565b6040516103f19190611665565b60405180910390f35b6000818154811061040a57600080fd5b90600052602060002090600402016000915090508060000160009054906101000a900473ffffffffffffffffffffffffffffffffffffffff16908060010160009054906101000a900473ffffffffffffffffffffffffffffffffffffffff16908060020154908060030154905084565b8080600660006101000a81548173ffffffffffffffffffffffffffffffffffffffff021916908373ffffffffffffffffffffffffffffffffffffffff160217905550600073ffffffffffffffffffffffffffffffffffffffff168173ffffffffffffffffffffffffffffffffffffffff160361052b576040517f08c379a0000000000000000000000000000000000000000000000000000000008152600401610522906116cc565b60405180910390fd5b60001515600d60009054906101000a900460ff16151503610581576040517f08c379a000000000000000000000000000000000000000000000000000000000815260040161057890611738565b60405180910390fd5b6005600c54101580156105a25750601e600b5461059e9190611787565b4211155b156105fd576000600c819055506000600c54146105c2576105c16117bb565b5b6040517f08c379a00000000000000000000000000000000000000000000000000000000081526004016105f490611836565b60405180910390fd5b6005600c541115801561061e5750601e600b5461061a9190611787565b4210155b15610646576000600c819055506000600c541461063e5761063d6117bb565b5b42600b819055505b81600660006101000a81548173ffffffffffffffffffffffffffffffffffffffff021916908373ffffffffffffffffffffffffffffffffffffffff160217905550826004819055506001600c60008282546106a19190611787565b9250508190555060006005541180156106bd5750600454600554115b1561077e57600454600560008282546106d69190611856565b92505081905550600454600a60008282546106f19190611787565b9250508190555061072833600660009054906101000a900473ffffffffffffffffffffffffffffffffffffffff1660045442610e1e565b610733600454610b80565b506040518060400160405280601281526020017f5472616e7366657220636f6d706c657465640000000000000000000000000000815250600790816107789190611a96565b506107b9565b6040517f08c379a00000000000000000000000000000000000000000000000000000000081526004016107b090611bb4565b60405180910390fd5b505050565b600b5481565b81600890816107d39190611a96565b5080600990816107e39190611a96565b506001600d60006101000a81548160ff02191690831515021790555042600b819055506008808054610814906118b9565b9050148015610831575060036009805461082d906118b9565b9050145b610870576040517f08c379a000000000000000000000000000000000000000000000000000000000815260040161086790611c20565b60405180910390fd5b5050565b6000600254905090565b600d60009054906101000a900460ff1681565b6009805461089e906118b9565b80601f01602080910402602001604051908101604052809291908181526020018280546108ca906118b9565b80156109175780601f106108ec57610100808354040283529160200191610917565b820191906000526020600020905b8154815290600101906020018083116108fa57829003601f168201915b505050505081565b600c5481565b6000919050565b600042905090565b60016020528060005260406000206000915090508060000160009054906101000a900473ffffffffffffffffffffffffffffffffffffffff16908060010160009054906101000a900473ffffffffffffffffffffffffffffffffffffffff16908060020154908060030154905084565b60055481565b600a5481565b60606000805480602002602001604051908101604052809291908181526020016000905b82821015610ac657838290600052602060002090600402016040518060800160405290816000820160009054906101000a900473ffffffffffffffffffffffffffffffffffffffff1673ffffffffffffffffffffffffffffffffffffffff1673ffffffffffffffffffffffffffffffffffffffff1681526020016001820160009054906101000a900473ffffffffffffffffffffffffffffffffffffffff1673ffffffffffffffffffffffffffffffffffffffff1673ffffffffffffffffffffffffffffffffffffffff16815260200160028201548152602001600382015481525050815260200190600101906109d4565b50505050905090565b6000600d60006101000a81548160ff021916908315150217905550565b60088054610af9906118b9565b80601f0160208091040260200160405190810160405280929190818152602001828054610b25906118b9565b8015610b725780601f10610b4757610100808354040283529160200191610b72565b820191906000526020600020905b815481529060010190602001808311610b5557829003601f168201915b505050505081565b60045481565b6000610b8a611019565b828160200181815250508060200151915050919050565b60078054610bae906118b9565b80601f0160208091040260200160405190810160405280929190818152602001828054610bda906118b9565b8015610c275780601f10610bfc57610100808354040283529160200191610c27565b820191906000526020600020905b815481529060010190602001808311610c0a57829003601f168201915b505050505081565b610c37611050565b600160008381526020019081526020016000206040518060800160405290816000820160009054906101000a900473ffffffffffffffffffffffffffffffffffffffff1673ffffffffffffffffffffffffffffffffffffffff1673ffffffffffffffffffffffffffffffffffffffff1681526020016001820160009054906101000a900473ffffffffffffffffffffffffffffffffffffffff1673ffffffffffffffffffffffffffffffffffffffff1673ffffffffffffffffffffffffffffffffffffffff168152602001600282015481526020016003820154815250509050919050565b610d24611050565b60006001600080549050610d389190611856565b9050600160008281526020019081526020016000206040518060800160405290816000820160009054906101000a900473ffffffffffffffffffffffffffffffffffffffff1673ffffffffffffffffffffffffffffffffffffffff1673ffffffffffffffffffffffffffffffffffffffff1681526020016001820160009054906101000a900473ffffffffffffffffffffffffffffffffffffffff1673ffffffffffffffffffffffffffffffffffffffff1673ffffffffffffffffffffffffffffffffffffffff1681526020016002820154815260200160038201548152505091505090565b600060405180608001604052808673ffffffffffffffffffffffffffffffffffffffff1681526020018573ffffffffffffffffffffffffffffffffffffffff168152602001848152602001838152509050600081908060018154018082558091505060019003906000526020600020906004020160009091909190915060008201518160000160006101000a81548173ffffffffffffffffffffffffffffffffffffffff021916908373ffffffffffffffffffffffffffffffffffffffff16021790555060208201518160010160006101000a81548173ffffffffffffffffffffffffffffffffffffffff021916908373ffffffffffffffffffffffffffffffffffffffff160217905550604082015181600201556060820151816003015550508060016000600254815260200190815260200160002060008201518160000160006101000a81548173ffffffffffffffffffffffffffffffffffffffff021916908373ffffffffffffffffffffffffffffffffffffffff16021790555060208201518160010160006101000a81548173ffffffffffffffffffffffffffffffffffffffff021916908373ffffffffffffffffffffffffffffffffffffffff16021790555060408201518160020155606082015181600301559050506002600081548092919061100d90611c40565b91905055505050505050565b60405180606001604052806000815260200160008152602001600073ffffffffffffffffffffffffffffffffffffffff1681525090565b6040518060800160405280600073ffffffffffffffffffffffffffffffffffffffff168152602001600073ffffffffffffffffffffffffffffffffffffffff16815260200160008152602001600081525090565b6000604051905090565b600080fd5b600080fd5b6000819050919050565b6110cb816110b8565b81146110d657600080fd5b50565b6000813590506110e8816110c2565b92915050565b600060208284031215611104576111036110ae565b5b6000611112848285016110d9565b91505092915050565b600073ffffffffffffffffffffffffffffffffffffffff82169050919050565b60006111468261111b565b9050919050565b6111568161113b565b82525050565b611165816110b8565b82525050565b6000608082019050611180600083018761114d565b61118d602083018661114d565b61119a604083018561115c565b6111a7606083018461115c565b95945050505050565b6111b98161113b565b81146111c457600080fd5b50565b6000813590506111d6816111b0565b92915050565b600080604083850312156111f3576111f26110ae565b5b6000611201858286016110d9565b9250506020611212858286016111c7565b9150509250929050565b6000602082019050611231600083018461115c565b92915050565b600080fd5b600080fd5b6000601f19601f8301169050919050565b7f4e487b7100000000000000000000000000000000000000000000000000000000600052604160045260246000fd5b61128a82611241565b810181811067ffffffffffffffff821117156112a9576112a8611252565b5b80604052505050565b60006112bc6110a4565b90506112c88282611281565b919050565b600067ffffffffffffffff8211156112e8576112e7611252565b5b6112f182611241565b9050602081019050919050565b82818337600083830152505050565b600061132061131b846112cd565b6112b2565b90508281526020810184848401111561133c5761133b61123c565b5b6113478482856112fe565b509392505050565b600082601f83011261136457611363611237565b5b813561137484826020860161130d565b91505092915050565b60008060408385031215611394576113936110ae565b5b600083013567ffffffffffffffff8111156113b2576113b16110b3565b5b6113be8582860161134f565b925050602083013567ffffffffffffffff8111156113df576113de6110b3565b5b6113eb8582860161134f565b9150509250929050565b60008115159050919050565b61140a816113f5565b82525050565b60006020820190506114256000830184611401565b92915050565b600081519050919050565b600082825260208201905092915050565b60005b8381101561146557808201518184015260208101905061144a565b60008484015250505050565b600061147c8261142b565b6114868185611436565b9350611496818560208601611447565b61149f81611241565b840191505092915050565b600060208201905081810360008301526114c48184611471565b905092915050565b600081519050919050565b600082825260208201905092915050565b6000819050602082019050919050565b6115018161113b565b82525050565b611510816110b8565b82525050565b60808201600082015161152c60008501826114f8565b50602082015161153f60208501826114f8565b5060408201516115526040850182611507565b5060608201516115656060850182611507565b50505050565b60006115778383611516565b60808301905092915050565b6000602082019050919050565b600061159b826114cc565b6115a581856114d7565b93506115b0836114e8565b8060005b838110156115e15781516115c8888261156b565b97506115d383611583565b9250506001810190506115b4565b5085935050505092915050565b600060208201905081810360008301526116088184611590565b905092915050565b60808201600082015161162660008501826114f8565b50602082015161163960208501826114f8565b50604082015161164c6040850182611507565b50606082015161165f6060850182611507565b50505050565b600060808201905061167a6000830184611610565b92915050565b7f2054686973206164647265737320646f65736e27742065786973747300000000600082015250565b60006116b6601c83611436565b91506116c182611680565b602082019050919050565b600060208201905081810360008301526116e5816116a9565b9050919050565b7f506c6561736520696e7365727420796f75722063617264000000000000000000600082015250565b6000611722601783611436565b915061172d826116ec565b602082019050919050565b6000602082019050818103600083015261175181611715565b9050919050565b7f4e487b7100000000000000000000000000000000000000000000000000000000600052601160045260246000fd5b6000611792826110b8565b915061179d836110b8565b92508282019050808211156117b5576117b4611758565b5b92915050565b7f4e487b7100000000000000000000000000000000000000000000000000000000600052600160045260246000fd5b7f6f6e6c792035207472616e73616374696f6e7320706572206461790000000000600082015250565b6000611820601b83611436565b915061182b826117ea565b602082019050919050565b6000602082019050818103600083015261184f81611813565b9050919050565b6000611861826110b8565b915061186c836110b8565b925082820390508181111561188457611883611758565b5b92915050565b7f4e487b7100000000000000000000000000000000000000000000000000000000600052602260045260246000fd5b600060028204905060018216806118d157607f821691505b6020821081036118e4576118e361188a565b5b50919050565b60008190508160005260206000209050919050565b60006020601f8301049050919050565b600082821b905092915050565b60006008830261194c7fffffffffffffffffffffffffffffffffffffffffffffffffffffffffffffffff8261190f565b611956868361190f565b95508019841693508086168417925050509392505050565b6000819050919050565b600061199361198e611989846110b8565b61196e565b6110b8565b9050919050565b6000819050919050565b6119ad83611978565b6119c16119b98261199a565b84845461191c565b825550505050565b600090565b6119d66119c9565b6119e18184846119a4565b505050565b5b81811015611a05576119fa6000826119ce565b6001810190506119e7565b5050565b601f821115611a4a57611a1b816118ea565b611a24846118ff565b81016020851015611a33578190505b611a47611a3f856118ff565b8301826119e6565b50505b505050565b600082821c905092915050565b6000611a6d60001984600802611a4f565b1980831691505092915050565b6000611a868383611a5c565b9150826002028217905092915050565b611a9f8261142b565b67ffffffffffffffff811115611ab857611ab7611252565b5b611ac282546118b9565b611acd828285611a09565b600060209050601f831160018114611b005760008415611aee578287015190505b611af88582611a7a565b865550611b60565b601f198416611b0e866118ea565b60005b82811015611b3657848901518255600182019150602085019450602081019050611b11565b86831015611b535784890151611b4f601f891682611a5c565b8355505b6001600288020188555050505b505050505050565b7f4e6f7420656e6f7567682066756e647300000000000000000000000000000000600082015250565b6000611b9e601083611436565b9150611ba982611b68565b602082019050919050565b60006020820190508181036000830152611bcd81611b91565b9050919050565b7f4e6f2076616c6964206372656469742063617264000000000000000000000000600082015250565b6000611c0a601483611436565b9150611c1582611bd4565b602082019050919050565b60006020820190508181036000830152611c3981611bfd565b9050919050565b6000611c4b826110b8565b91507fffffffffffffffffffffffffffffffffffffffffffffffffffffffffffffffff8203611c7d57611c7c611758565b5b60018201905091905056fea26469706673582212206e429d3b1cca3f5d90debba6b86f9a274ddf4b036d2cb7ca539ef8522719631564736f6c63430008100033",
					"opcodes": "PUSH1 0x80 PUSH1 0x40 MSTORE PUSH1 0x0 PUSH1 0x2 SSTORE PUSH1 0x0 PUSH1 0xC SSTORE PUSH1 0x0 PUSH1 0xD PUSH1 0x0 PUSH2 0x100 EXP DUP2 SLOAD DUP2 PUSH1 0xFF MUL NOT AND SWAP1 DUP4 ISZERO ISZERO MUL OR SWAP1 SSTORE POP CALLVALUE DUP1 ISZERO PUSH3 0x36 JUMPI PUSH1 0x0 DUP1 REVERT JUMPDEST POP PUSH1 0x40 MLOAD PUSH3 0x1DAA CODESIZE SUB DUP1 PUSH3 0x1DAA DUP4 CODECOPY DUP2 DUP2 ADD PUSH1 0x40 MSTORE DUP2 ADD SWAP1 PUSH3 0x5C SWAP2 SWAP1 PUSH3 0xAA JUMP JUMPDEST DUP1 PUSH1 0x5 DUP2 SWAP1 SSTORE POP POP PUSH3 0xDC JUMP JUMPDEST PUSH1 0x0 DUP1 REVERT JUMPDEST PUSH1 0x0 DUP2 SWAP1 POP SWAP2 SWAP1 POP JUMP JUMPDEST PUSH3 0x84 DUP2 PUSH3 0x6F JUMP JUMPDEST DUP2 EQ PUSH3 0x90 JUMPI PUSH1 0x0 DUP1 REVERT JUMPDEST POP JUMP JUMPDEST PUSH1 0x0 DUP2 MLOAD SWAP1 POP PUSH3 0xA4 DUP2 PUSH3 0x79 JUMP JUMPDEST SWAP3 SWAP2 POP POP JUMP JUMPDEST PUSH1 0x0 PUSH1 0x20 DUP3 DUP5 SUB SLT ISZERO PUSH3 0xC3 JUMPI PUSH3 0xC2 PUSH3 0x6A JUMP JUMPDEST JUMPDEST PUSH1 0x0 PUSH3 0xD3 DUP5 DUP3 DUP6 ADD PUSH3 0x93 JUMP JUMPDEST SWAP2 POP POP SWAP3 SWAP2 POP POP JUMP JUMPDEST PUSH2 0x1CBE DUP1 PUSH3 0xEC PUSH1 0x0 CODECOPY PUSH1 0x0 RETURN INVALID PUSH1 0x80 PUSH1 0x40 MSTORE CALLVALUE DUP1 ISZERO PUSH2 0x10 JUMPI PUSH1 0x0 DUP1 REVERT JUMPDEST POP PUSH1 0x4 CALLDATASIZE LT PUSH2 0x137 JUMPI PUSH1 0x0 CALLDATALOAD PUSH1 0xE0 SHR DUP1 PUSH4 0x57BF72E3 GT PUSH2 0xB8 JUMPI DUP1 PUSH4 0x8FA11864 GT PUSH2 0x7C JUMPI DUP1 PUSH4 0x8FA11864 EQ PUSH2 0x322 JUMPI DUP1 PUSH4 0xAA8C217C EQ PUSH2 0x340 JUMPI DUP1 PUSH4 0xB6B55F25 EQ PUSH2 0x35E JUMPI DUP1 PUSH4 0xE21F37CE EQ PUSH2 0x38E JUMPI DUP1 PUSH4 0xF4B30EAF EQ PUSH2 0x3AC JUMPI DUP1 PUSH4 0xF7E03FD8 EQ PUSH2 0x3DC JUMPI PUSH2 0x137 JUMP JUMPDEST DUP1 PUSH4 0x57BF72E3 EQ PUSH2 0x28B JUMPI DUP1 PUSH4 0x7B9A3F4C EQ PUSH2 0x2BE JUMPI DUP1 PUSH4 0x7EB9F571 EQ PUSH2 0x2DC JUMPI DUP1 PUSH4 0x83920E90 EQ PUSH2 0x2FA JUMPI DUP1 PUSH4 0x8E029C0B EQ PUSH2 0x318 JUMPI PUSH2 0x137 JUMP JUMPDEST DUP1 PUSH4 0x3C626F00 GT PUSH2 0xFF JUMPI DUP1 PUSH4 0x3C626F00 EQ PUSH2 0x1E3 JUMPI DUP1 PUSH4 0x42FB7936 EQ PUSH2 0x201 JUMPI DUP1 PUSH4 0x4B28F9A2 EQ PUSH2 0x21F JUMPI DUP1 PUSH4 0x54876921 EQ PUSH2 0x23D JUMPI DUP1 PUSH4 0x557ED1BA EQ PUSH2 0x26D JUMPI PUSH2 0x137 JUMP JUMPDEST DUP1 PUSH4 0x4EF5B21 EQ PUSH2 0x13C JUMPI DUP1 PUSH4 0x62A7544 EQ PUSH2 0x16F JUMPI DUP1 PUSH4 0xE85FA72 EQ PUSH2 0x18B JUMPI DUP1 PUSH4 0x12A029A4 EQ PUSH2 0x1A9 JUMPI DUP1 PUSH4 0x24BA506D EQ PUSH2 0x1C5 JUMPI JUMPDEST PUSH1 0x0 DUP1 REVERT JUMPDEST PUSH2 0x156 PUSH1 0x4 DUP1 CALLDATASIZE SUB DUP2 ADD SWAP1 PUSH2 0x151 SWAP2 SWAP1 PUSH2 0x10EE JUMP JUMPDEST PUSH2 0x3FA JUMP JUMPDEST PUSH1 0x40 MLOAD PUSH2 0x166 SWAP5 SWAP4 SWAP3 SWAP2 SWAP1 PUSH2 0x116B JUMP JUMPDEST PUSH1 0x40 MLOAD DUP1 SWAP2 SUB SWAP1 RETURN JUMPDEST PUSH2 0x189 PUSH1 0x4 DUP1 CALLDATASIZE SUB DUP2 ADD SWAP1 PUSH2 0x184 SWAP2 SWAP1 PUSH2 0x11DC JUMP JUMPDEST PUSH2 0x47A JUMP JUMPDEST STOP JUMPDEST PUSH2 0x193 PUSH2 0x7BE JUMP JUMPDEST PUSH1 0x40 MLOAD PUSH2 0x1A0 SWAP2 SWAP1 PUSH2 0x121C JUMP JUMPDEST PUSH1 0x40 MLOAD DUP1 SWAP2 SUB SWAP1 RETURN JUMPDEST PUSH2 0x1C3 PUSH1 0x4 DUP1 CALLDATASIZE SUB DUP2 ADD SWAP1 PUSH2 0x1BE SWAP2 SWAP1 PUSH2 0x137D JUMP JUMPDEST PUSH2 0x7C4 JUMP JUMPDEST STOP JUMPDEST PUSH2 0x1CD PUSH2 0x874 JUMP JUMPDEST PUSH1 0x40 MLOAD PUSH2 0x1DA SWAP2 SWAP1 PUSH2 0x121C JUMP JUMPDEST PUSH1 0x40 MLOAD DUP1 SWAP2 SUB SWAP1 RETURN JUMPDEST PUSH2 0x1EB PUSH2 0x87E JUMP JUMPDEST PUSH1 0x40 MLOAD PUSH2 0x1F8 SWAP2 SWAP1 PUSH2 0x1410 JUMP JUMPDEST PUSH1 0x40 MLOAD DUP1 SWAP2 SUB SWAP1 RETURN JUMPDEST PUSH2 0x209 PUSH2 0x891 JUMP JUMPDEST PUSH1 0x40 MLOAD PUSH2 0x216 SWAP2 SWAP1 PUSH2 0x14AA JUMP JUMPDEST PUSH1 0x40 MLOAD DUP1 SWAP2 SUB SWAP1 RETURN JUMPDEST PUSH2 0x227 PUSH2 0x91F JUMP JUMPDEST PUSH1 0x40 MLOAD PUSH2 0x234 SWAP2 SWAP1 PUSH2 0x121C JUMP JUMPDEST PUSH1 0x40 MLOAD DUP1 SWAP2 SUB SWAP1 RETURN JUMPDEST PUSH2 0x257 PUSH1 0x4 DUP1 CALLDATASIZE SUB DUP2 ADD SWAP1 PUSH2 0x252 SWAP2 SWAP1 PUSH2 0x10EE JUMP JUMPDEST PUSH2 0x925 JUMP JUMPDEST PUSH1 0x40 MLOAD PUSH2 0x264 SWAP2 SWAP1 PUSH2 0x121C JUMP JUMPDEST PUSH1 0x40 MLOAD DUP1 SWAP2 SUB SWAP1 RETURN JUMPDEST PUSH2 0x275 PUSH2 0x92C JUMP JUMPDEST PUSH1 0x40 MLOAD PUSH2 0x282 SWAP2 SWAP1 PUSH2 0x121C JUMP JUMPDEST PUSH1 0x40 MLOAD DUP1 SWAP2 SUB SWAP1 RETURN JUMPDEST PUSH2 0x2A5 PUSH1 0x4 DUP1 CALLDATASIZE SUB DUP2 ADD SWAP1 PUSH2 0x2A0 SWAP2 SWAP1 PUSH2 0x10EE JUMP JUMPDEST PUSH2 0x934 JUMP JUMPDEST PUSH1 0x40 MLOAD PUSH2 0x2B5 SWAP5 SWAP4 SWAP3 SWAP2 SWAP1 PUSH2 0x116B JUMP JUMPDEST PUSH1 0x40 MLOAD DUP1 SWAP2 SUB SWAP1 RETURN JUMPDEST PUSH2 0x2C6 PUSH2 0x9A4 JUMP JUMPDEST PUSH1 0x40 MLOAD PUSH2 0x2D3 SWAP2 SWAP1 PUSH2 0x121C JUMP JUMPDEST PUSH1 0x40 MLOAD DUP1 SWAP2 SUB SWAP1 RETURN JUMPDEST PUSH2 0x2E4 PUSH2 0x9AA JUMP JUMPDEST PUSH1 0x40 MLOAD PUSH2 0x2F1 SWAP2 SWAP1 PUSH2 0x121C JUMP JUMPDEST PUSH1 0x40 MLOAD DUP1 SWAP2 SUB SWAP1 RETURN JUMPDEST PUSH2 0x302 PUSH2 0x9B0 JUMP JUMPDEST PUSH1 0x40 MLOAD PUSH2 0x30F SWAP2 SWAP1 PUSH2 0x15EE JUMP JUMPDEST PUSH1 0x40 MLOAD DUP1 SWAP2 SUB SWAP1 RETURN JUMPDEST PUSH2 0x320 PUSH2 0xACF JUMP JUMPDEST STOP JUMPDEST PUSH2 0x32A PUSH2 0xAEC JUMP JUMPDEST PUSH1 0x40 MLOAD PUSH2 0x337 SWAP2 SWAP1 PUSH2 0x14AA JUMP JUMPDEST PUSH1 0x40 MLOAD DUP1 SWAP2 SUB SWAP1 RETURN JUMPDEST PUSH2 0x348 PUSH2 0xB7A JUMP JUMPDEST PUSH1 0x40 MLOAD PUSH2 0x355 SWAP2 SWAP1 PUSH2 0x121C JUMP JUMPDEST PUSH1 0x40 MLOAD DUP1 SWAP2 SUB SWAP1 RETURN JUMPDEST PUSH2 0x378 PUSH1 0x4 DUP1 CALLDATASIZE SUB DUP2 ADD SWAP1 PUSH2 0x373 SWAP2 SWAP1 PUSH2 0x10EE JUMP JUMPDEST PUSH2 0xB80 JUMP JUMPDEST PUSH1 0x40 MLOAD PUSH2 0x385 SWAP2 SWAP1 PUSH2 0x121C JUMP JUMPDEST PUSH1 0x40 MLOAD DUP1 SWAP2 SUB SWAP1 RETURN JUMPDEST PUSH2 0x396 PUSH2 0xBA1 JUMP JUMPDEST PUSH1 0x40 MLOAD PUSH2 0x3A3 SWAP2 SWAP1 PUSH2 0x14AA JUMP JUMPDEST PUSH1 0x40 MLOAD DUP1 SWAP2 SUB SWAP1 RETURN JUMPDEST PUSH2 0x3C6 PUSH1 0x4 DUP1 CALLDATASIZE SUB DUP2 ADD SWAP1 PUSH2 0x3C1 SWAP2 SWAP1 PUSH2 0x10EE JUMP JUMPDEST PUSH2 0xC2F JUMP JUMPDEST PUSH1 0x40 MLOAD PUSH2 0x3D3 SWAP2 SWAP1 PUSH2 0x1665 JUMP JUMPDEST PUSH1 0x40 MLOAD DUP1 SWAP2 SUB SWAP1 RETURN JUMPDEST PUSH2 0x3E4 PUSH2 0xD1C JUMP JUMPDEST PUSH1 0x40 MLOAD PUSH2 0x3F1 SWAP2 SWAP1 PUSH2 0x1665 JUMP JUMPDEST PUSH1 0x40 MLOAD DUP1 SWAP2 SUB SWAP1 RETURN JUMPDEST PUSH1 0x0 DUP2 DUP2 SLOAD DUP2 LT PUSH2 0x40A JUMPI PUSH1 0x0 DUP1 REVERT JUMPDEST SWAP1 PUSH1 0x0 MSTORE PUSH1 0x20 PUSH1 0x0 KECCAK256 SWAP1 PUSH1 0x4 MUL ADD PUSH1 0x0 SWAP2 POP SWAP1 POP DUP1 PUSH1 0x0 ADD PUSH1 0x0 SWAP1 SLOAD SWAP1 PUSH2 0x100 EXP SWAP1 DIV PUSH20 0xFFFFFFFFFFFFFFFFFFFFFFFFFFFFFFFFFFFFFFFF AND SWAP1 DUP1 PUSH1 0x1 ADD PUSH1 0x0 SWAP1 SLOAD SWAP1 PUSH2 0x100 EXP SWAP1 DIV PUSH20 0xFFFFFFFFFFFFFFFFFFFFFFFFFFFFFFFFFFFFFFFF AND SWAP1 DUP1 PUSH1 0x2 ADD SLOAD SWAP1 DUP1 PUSH1 0x3 ADD SLOAD SWAP1 POP DUP5 JUMP JUMPDEST DUP1 DUP1 PUSH1 0x6 PUSH1 0x0 PUSH2 0x100 EXP DUP2 SLOAD DUP2 PUSH20 0xFFFFFFFFFFFFFFFFFFFFFFFFFFFFFFFFFFFFFFFF MUL NOT AND SWAP1 DUP4 PUSH20 0xFFFFFFFFFFFFFFFFFFFFFFFFFFFFFFFFFFFFFFFF AND MUL OR SWAP1 SSTORE POP PUSH1 0x0 PUSH20 0xFFFFFFFFFFFFFFFFFFFFFFFFFFFFFFFFFFFFFFFF AND DUP2 PUSH20 0xFFFFFFFFFFFFFFFFFFFFFFFFFFFFFFFFFFFFFFFF AND SUB PUSH2 0x52B JUMPI PUSH1 0x40 MLOAD PUSH32 0x8C379A000000000000000000000000000000000000000000000000000000000 DUP2 MSTORE PUSH1 0x4 ADD PUSH2 0x522 SWAP1 PUSH2 0x16CC JUMP JUMPDEST PUSH1 0x40 MLOAD DUP1 SWAP2 SUB SWAP1 REVERT JUMPDEST PUSH1 0x0 ISZERO ISZERO PUSH1 0xD PUSH1 0x0 SWAP1 SLOAD SWAP1 PUSH2 0x100 EXP SWAP1 DIV PUSH1 0xFF AND ISZERO ISZERO SUB PUSH2 0x581 JUMPI PUSH1 0x40 MLOAD PUSH32 0x8C379A000000000000000000000000000000000000000000000000000000000 DUP2 MSTORE PUSH1 0x4 ADD PUSH2 0x578 SWAP1 PUSH2 0x1738 JUMP JUMPDEST PUSH1 0x40 MLOAD DUP1 SWAP2 SUB SWAP1 REVERT JUMPDEST PUSH1 0x5 PUSH1 0xC SLOAD LT ISZERO DUP1 ISZERO PUSH2 0x5A2 JUMPI POP PUSH1 0x1E PUSH1 0xB SLOAD PUSH2 0x59E SWAP2 SWAP1 PUSH2 0x1787 JUMP JUMPDEST TIMESTAMP GT ISZERO JUMPDEST ISZERO PUSH2 0x5FD JUMPI PUSH1 0x0 PUSH1 0xC DUP2 SWAP1 SSTORE POP PUSH1 0x0 PUSH1 0xC SLOAD EQ PUSH2 0x5C2 JUMPI PUSH2 0x5C1 PUSH2 0x17BB JUMP JUMPDEST JUMPDEST PUSH1 0x40 MLOAD PUSH32 0x8C379A000000000000000000000000000000000000000000000000000000000 DUP2 MSTORE PUSH1 0x4 ADD PUSH2 0x5F4 SWAP1 PUSH2 0x1836 JUMP JUMPDEST PUSH1 0x40 MLOAD DUP1 SWAP2 SUB SWAP1 REVERT JUMPDEST PUSH1 0x5 PUSH1 0xC SLOAD GT ISZERO DUP1 ISZERO PUSH2 0x61E JUMPI POP PUSH1 0x1E PUSH1 0xB SLOAD PUSH2 0x61A SWAP2 SWAP1 PUSH2 0x1787 JUMP JUMPDEST TIMESTAMP LT ISZERO JUMPDEST ISZERO PUSH2 0x646 JUMPI PUSH1 0x0 PUSH1 0xC DUP2 SWAP1 SSTORE POP PUSH1 0x0 PUSH1 0xC SLOAD EQ PUSH2 0x63E JUMPI PUSH2 0x63D PUSH2 0x17BB JUMP JUMPDEST JUMPDEST TIMESTAMP PUSH1 0xB DUP2 SWAP1 SSTORE POP JUMPDEST DUP2 PUSH1 0x6 PUSH1 0x0 PUSH2 0x100 EXP DUP2 SLOAD DUP2 PUSH20 0xFFFFFFFFFFFFFFFFFFFFFFFFFFFFFFFFFFFFFFFF MUL NOT AND SWAP1 DUP4 PUSH20 0xFFFFFFFFFFFFFFFFFFFFFFFFFFFFFFFFFFFFFFFF AND MUL OR SWAP1 SSTORE POP DUP3 PUSH1 0x4 DUP2 SWAP1 SSTORE POP PUSH1 0x1 PUSH1 0xC PUSH1 0x0 DUP3 DUP3 SLOAD PUSH2 0x6A1 SWAP2 SWAP1 PUSH2 0x1787 JUMP JUMPDEST SWAP3 POP POP DUP2 SWAP1 SSTORE POP PUSH1 0x0 PUSH1 0x5 SLOAD GT DUP1 ISZERO PUSH2 0x6BD JUMPI POP PUSH1 0x4 SLOAD PUSH1 0x5 SLOAD GT JUMPDEST ISZERO PUSH2 0x77E JUMPI PUSH1 0x4 SLOAD PUSH1 0x5 PUSH1 0x0 DUP3 DUP3 SLOAD PUSH2 0x6D6 SWAP2 SWAP1 PUSH2 0x1856 JUMP JUMPDEST SWAP3 POP POP DUP2 SWAP1 SSTORE POP PUSH1 0x4 SLOAD PUSH1 0xA PUSH1 0x0 DUP3 DUP3 SLOAD PUSH2 0x6F1 SWAP2 SWAP1 PUSH2 0x1787 JUMP JUMPDEST SWAP3 POP POP DUP2 SWAP1 SSTORE POP PUSH2 0x728 CALLER PUSH1 0x6 PUSH1 0x0 SWAP1 SLOAD SWAP1 PUSH2 0x100 EXP SWAP1 DIV PUSH20 0xFFFFFFFFFFFFFFFFFFFFFFFFFFFFFFFFFFFFFFFF AND PUSH1 0x4 SLOAD TIMESTAMP PUSH2 0xE1E JUMP JUMPDEST PUSH2 0x733 PUSH1 0x4 SLOAD PUSH2 0xB80 JUMP JUMPDEST POP PUSH1 0x40 MLOAD DUP1 PUSH1 0x40 ADD PUSH1 0x40 MSTORE DUP1 PUSH1 0x12 DUP2 MSTORE PUSH1 0x20 ADD PUSH32 0x5472616E7366657220636F6D706C657465640000000000000000000000000000 DUP2 MSTORE POP PUSH1 0x7 SWAP1 DUP2 PUSH2 0x778 SWAP2 SWAP1 PUSH2 0x1A96 JUMP JUMPDEST POP PUSH2 0x7B9 JUMP JUMPDEST PUSH1 0x40 MLOAD PUSH32 0x8C379A000000000000000000000000000000000000000000000000000000000 DUP2 MSTORE PUSH1 0x4 ADD PUSH2 0x7B0 SWAP1 PUSH2 0x1BB4 JUMP JUMPDEST PUSH1 0x40 MLOAD DUP1 SWAP2 SUB SWAP1 REVERT JUMPDEST POP POP POP JUMP JUMPDEST PUSH1 0xB SLOAD DUP2 JUMP JUMPDEST DUP2 PUSH1 0x8 SWAP1 DUP2 PUSH2 0x7D3 SWAP2 SWAP1 PUSH2 0x1A96 JUMP JUMPDEST POP DUP1 PUSH1 0x9 SWAP1 DUP2 PUSH2 0x7E3 SWAP2 SWAP1 PUSH2 0x1A96 JUMP JUMPDEST POP PUSH1 0x1 PUSH1 0xD PUSH1 0x0 PUSH2 0x100 EXP DUP2 SLOAD DUP2 PUSH1 0xFF MUL NOT AND SWAP1 DUP4 ISZERO ISZERO MUL OR SWAP1 SSTORE POP TIMESTAMP PUSH1 0xB DUP2 SWAP1 SSTORE POP PUSH1 0x8 DUP1 DUP1 SLOAD PUSH2 0x814 SWAP1 PUSH2 0x18B9 JUMP JUMPDEST SWAP1 POP EQ DUP1 ISZERO PUSH2 0x831 JUMPI POP PUSH1 0x3 PUSH1 0x9 DUP1 SLOAD PUSH2 0x82D SWAP1 PUSH2 0x18B9 JUMP JUMPDEST SWAP1 POP EQ JUMPDEST PUSH2 0x870 JUMPI PUSH1 0x40 MLOAD PUSH32 0x8C379A000000000000000000000000000000000000000000000000000000000 DUP2 MSTORE PUSH1 0x4 ADD PUSH2 0x867 SWAP1 PUSH2 0x1C20 JUMP JUMPDEST PUSH1 0x40 MLOAD DUP1 SWAP2 SUB SWAP1 REVERT JUMPDEST POP POP JUMP JUMPDEST PUSH1 0x0 PUSH1 0x2 SLOAD SWAP1 POP SWAP1 JUMP JUMPDEST PUSH1 0xD PUSH1 0x0 SWAP1 SLOAD SWAP1 PUSH2 0x100 EXP SWAP1 DIV PUSH1 0xFF AND DUP2 JUMP JUMPDEST PUSH1 0x9 DUP1 SLOAD PUSH2 0x89E SWAP1 PUSH2 0x18B9 JUMP JUMPDEST DUP1 PUSH1 0x1F ADD PUSH1 0x20 DUP1 SWAP2 DIV MUL PUSH1 0x20 ADD PUSH1 0x40 MLOAD SWAP1 DUP2 ADD PUSH1 0x40 MSTORE DUP1 SWAP3 SWAP2 SWAP1 DUP2 DUP2 MSTORE PUSH1 0x20 ADD DUP3 DUP1 SLOAD PUSH2 0x8CA SWAP1 PUSH2 0x18B9 JUMP JUMPDEST DUP1 ISZERO PUSH2 0x917 JUMPI DUP1 PUSH1 0x1F LT PUSH2 0x8EC JUMPI PUSH2 0x100 DUP1 DUP4 SLOAD DIV MUL DUP4 MSTORE SWAP2 PUSH1 0x20 ADD SWAP2 PUSH2 0x917 JUMP JUMPDEST DUP3 ADD SWAP2 SWAP1 PUSH1 0x0 MSTORE PUSH1 0x20 PUSH1 0x0 KECCAK256 SWAP1 JUMPDEST DUP2 SLOAD DUP2 MSTORE SWAP1 PUSH1 0x1 ADD SWAP1 PUSH1 0x20 ADD DUP1 DUP4 GT PUSH2 0x8FA JUMPI DUP3 SWAP1 SUB PUSH1 0x1F AND DUP3 ADD SWAP2 JUMPDEST POP POP POP POP POP DUP2 JUMP JUMPDEST PUSH1 0xC SLOAD DUP2 JUMP JUMPDEST PUSH1 0x0 SWAP2 SWAP1 POP JUMP JUMPDEST PUSH1 0x0 TIMESTAMP SWAP1 POP SWAP1 JUMP JUMPDEST PUSH1 0x1 PUSH1 0x20 MSTORE DUP1 PUSH1 0x0 MSTORE PUSH1 0x40 PUSH1 0x0 KECCAK256 PUSH1 0x0 SWAP2 POP SWAP1 POP DUP1 PUSH1 0x0 ADD PUSH1 0x0 SWAP1 SLOAD SWAP1 PUSH2 0x100 EXP SWAP1 DIV PUSH20 0xFFFFFFFFFFFFFFFFFFFFFFFFFFFFFFFFFFFFFFFF AND SWAP1 DUP1 PUSH1 0x1 ADD PUSH1 0x0 SWAP1 SLOAD SWAP1 PUSH2 0x100 EXP SWAP1 DIV PUSH20 0xFFFFFFFFFFFFFFFFFFFFFFFFFFFFFFFFFFFFFFFF AND SWAP1 DUP1 PUSH1 0x2 ADD SLOAD SWAP1 DUP1 PUSH1 0x3 ADD SLOAD SWAP1 POP DUP5 JUMP JUMPDEST PUSH1 0x5 SLOAD DUP2 JUMP JUMPDEST PUSH1 0xA SLOAD DUP2 JUMP JUMPDEST PUSH1 0x60 PUSH1 0x0 DUP1 SLOAD DUP1 PUSH1 0x20 MUL PUSH1 0x20 ADD PUSH1 0x40 MLOAD SWAP1 DUP2 ADD PUSH1 0x40 MSTORE DUP1 SWAP3 SWAP2 SWAP1 DUP2 DUP2 MSTORE PUSH1 0x20 ADD PUSH1 0x0 SWAP1 JUMPDEST DUP3 DUP3 LT ISZERO PUSH2 0xAC6 JUMPI DUP4 DUP3 SWAP1 PUSH1 0x0 MSTORE PUSH1 0x20 PUSH1 0x0 KECCAK256 SWAP1 PUSH1 0x4 MUL ADD PUSH1 0x40 MLOAD DUP1 PUSH1 0x80 ADD PUSH1 0x40 MSTORE SWAP1 DUP2 PUSH1 0x0 DUP3 ADD PUSH1 0x0 SWAP1 SLOAD SWAP1 PUSH2 0x100 EXP SWAP1 DIV PUSH20 0xFFFFFFFFFFFFFFFFFFFFFFFFFFFFFFFFFFFFFFFF AND PUSH20 0xFFFFFFFFFFFFFFFFFFFFFFFFFFFFFFFFFFFFFFFF AND PUSH20 0xFFFFFFFFFFFFFFFFFFFFFFFFFFFFFFFFFFFFFFFF AND DUP2 MSTORE PUSH1 0x20 ADD PUSH1 0x1 DUP3 ADD PUSH1 0x0 SWAP1 SLOAD SWAP1 PUSH2 0x100 EXP SWAP1 DIV PUSH20 0xFFFFFFFFFFFFFFFFFFFFFFFFFFFFFFFFFFFFFFFF AND PUSH20 0xFFFFFFFFFFFFFFFFFFFFFFFFFFFFFFFFFFFFFFFF AND PUSH20 0xFFFFFFFFFFFFFFFFFFFFFFFFFFFFFFFFFFFFFFFF AND DUP2 MSTORE PUSH1 0x20 ADD PUSH1 0x2 DUP3 ADD SLOAD DUP2 MSTORE PUSH1 0x20 ADD PUSH1 0x3 DUP3 ADD SLOAD DUP2 MSTORE POP POP DUP2 MSTORE PUSH1 0x20 ADD SWAP1 PUSH1 0x1 ADD SWAP1 PUSH2 0x9D4 JUMP JUMPDEST POP POP POP POP SWAP1 POP SWAP1 JUMP JUMPDEST PUSH1 0x0 PUSH1 0xD PUSH1 0x0 PUSH2 0x100 EXP DUP2 SLOAD DUP2 PUSH1 0xFF MUL NOT AND SWAP1 DUP4 ISZERO ISZERO MUL OR SWAP1 SSTORE POP JUMP JUMPDEST PUSH1 0x8 DUP1 SLOAD PUSH2 0xAF9 SWAP1 PUSH2 0x18B9 JUMP JUMPDEST DUP1 PUSH1 0x1F ADD PUSH1 0x20 DUP1 SWAP2 DIV MUL PUSH1 0x20 ADD PUSH1 0x40 MLOAD SWAP1 DUP2 ADD PUSH1 0x40 MSTORE DUP1 SWAP3 SWAP2 SWAP1 DUP2 DUP2 MSTORE PUSH1 0x20 ADD DUP3 DUP1 SLOAD PUSH2 0xB25 SWAP1 PUSH2 0x18B9 JUMP JUMPDEST DUP1 ISZERO PUSH2 0xB72 JUMPI DUP1 PUSH1 0x1F LT PUSH2 0xB47 JUMPI PUSH2 0x100 DUP1 DUP4 SLOAD DIV MUL DUP4 MSTORE SWAP2 PUSH1 0x20 ADD SWAP2 PUSH2 0xB72 JUMP JUMPDEST DUP3 ADD SWAP2 SWAP1 PUSH1 0x0 MSTORE PUSH1 0x20 PUSH1 0x0 KECCAK256 SWAP1 JUMPDEST DUP2 SLOAD DUP2 MSTORE SWAP1 PUSH1 0x1 ADD SWAP1 PUSH1 0x20 ADD DUP1 DUP4 GT PUSH2 0xB55 JUMPI DUP3 SWAP1 SUB PUSH1 0x1F AND DUP3 ADD SWAP2 JUMPDEST POP POP POP POP POP DUP2 JUMP JUMPDEST PUSH1 0x4 SLOAD DUP2 JUMP JUMPDEST PUSH1 0x0 PUSH2 0xB8A PUSH2 0x1019 JUMP JUMPDEST DUP3 DUP2 PUSH1 0x20 ADD DUP2 DUP2 MSTORE POP POP DUP1 PUSH1 0x20 ADD MLOAD SWAP2 POP POP SWAP2 SWAP1 POP JUMP JUMPDEST PUSH1 0x7 DUP1 SLOAD PUSH2 0xBAE SWAP1 PUSH2 0x18B9 JUMP JUMPDEST DUP1 PUSH1 0x1F ADD PUSH1 0x20 DUP1 SWAP2 DIV MUL PUSH1 0x20 ADD PUSH1 0x40 MLOAD SWAP1 DUP2 ADD PUSH1 0x40 MSTORE DUP1 SWAP3 SWAP2 SWAP1 DUP2 DUP2 MSTORE PUSH1 0x20 ADD DUP3 DUP1 SLOAD PUSH2 0xBDA SWAP1 PUSH2 0x18B9 JUMP JUMPDEST DUP1 ISZERO PUSH2 0xC27 JUMPI DUP1 PUSH1 0x1F LT PUSH2 0xBFC JUMPI PUSH2 0x100 DUP1 DUP4 SLOAD DIV MUL DUP4 MSTORE SWAP2 PUSH1 0x20 ADD SWAP2 PUSH2 0xC27 JUMP JUMPDEST DUP3 ADD SWAP2 SWAP1 PUSH1 0x0 MSTORE PUSH1 0x20 PUSH1 0x0 KECCAK256 SWAP1 JUMPDEST DUP2 SLOAD DUP2 MSTORE SWAP1 PUSH1 0x1 ADD SWAP1 PUSH1 0x20 ADD DUP1 DUP4 GT PUSH2 0xC0A JUMPI DUP3 SWAP1 SUB PUSH1 0x1F AND DUP3 ADD SWAP2 JUMPDEST POP POP POP POP POP DUP2 JUMP JUMPDEST PUSH2 0xC37 PUSH2 0x1050 JUMP JUMPDEST PUSH1 0x1 PUSH1 0x0 DUP4 DUP2 MSTORE PUSH1 0x20 ADD SWAP1 DUP2 MSTORE PUSH1 0x20 ADD PUSH1 0x0 KECCAK256 PUSH1 0x40 MLOAD DUP1 PUSH1 0x80 ADD PUSH1 0x40 MSTORE SWAP1 DUP2 PUSH1 0x0 DUP3 ADD PUSH1 0x0 SWAP1 SLOAD SWAP1 PUSH2 0x100 EXP SWAP1 DIV PUSH20 0xFFFFFFFFFFFFFFFFFFFFFFFFFFFFFFFFFFFFFFFF AND PUSH20 0xFFFFFFFFFFFFFFFFFFFFFFFFFFFFFFFFFFFFFFFF AND PUSH20 0xFFFFFFFFFFFFFFFFFFFFFFFFFFFFFFFFFFFFFFFF AND DUP2 MSTORE PUSH1 0x20 ADD PUSH1 0x1 DUP3 ADD PUSH1 0x0 SWAP1 SLOAD SWAP1 PUSH2 0x100 EXP SWAP1 DIV PUSH20 0xFFFFFFFFFFFFFFFFFFFFFFFFFFFFFFFFFFFFFFFF AND PUSH20 0xFFFFFFFFFFFFFFFFFFFFFFFFFFFFFFFFFFFFFFFF AND PUSH20 0xFFFFFFFFFFFFFFFFFFFFFFFFFFFFFFFFFFFFFFFF AND DUP2 MSTORE PUSH1 0x20 ADD PUSH1 0x2 DUP3 ADD SLOAD DUP2 MSTORE PUSH1 0x20 ADD PUSH1 0x3 DUP3 ADD SLOAD DUP2 MSTORE POP POP SWAP1 POP SWAP2 SWAP1 POP JUMP JUMPDEST PUSH2 0xD24 PUSH2 0x1050 JUMP JUMPDEST PUSH1 0x0 PUSH1 0x1 PUSH1 0x0 DUP1 SLOAD SWAP1 POP PUSH2 0xD38 SWAP2 SWAP1 PUSH2 0x1856 JUMP JUMPDEST SWAP1 POP PUSH1 0x1 PUSH1 0x0 DUP3 DUP2 MSTORE PUSH1 0x20 ADD SWAP1 DUP2 MSTORE PUSH1 0x20 ADD PUSH1 0x0 KECCAK256 PUSH1 0x40 MLOAD DUP1 PUSH1 0x80 ADD PUSH1 0x40 MSTORE SWAP1 DUP2 PUSH1 0x0 DUP3 ADD PUSH1 0x0 SWAP1 SLOAD SWAP1 PUSH2 0x100 EXP SWAP1 DIV PUSH20 0xFFFFFFFFFFFFFFFFFFFFFFFFFFFFFFFFFFFFFFFF AND PUSH20 0xFFFFFFFFFFFFFFFFFFFFFFFFFFFFFFFFFFFFFFFF AND PUSH20 0xFFFFFFFFFFFFFFFFFFFFFFFFFFFFFFFFFFFFFFFF AND DUP2 MSTORE PUSH1 0x20 ADD PUSH1 0x1 DUP3 ADD PUSH1 0x0 SWAP1 SLOAD SWAP1 PUSH2 0x100 EXP SWAP1 DIV PUSH20 0xFFFFFFFFFFFFFFFFFFFFFFFFFFFFFFFFFFFFFFFF AND PUSH20 0xFFFFFFFFFFFFFFFFFFFFFFFFFFFFFFFFFFFFFFFF AND PUSH20 0xFFFFFFFFFFFFFFFFFFFFFFFFFFFFFFFFFFFFFFFF AND DUP2 MSTORE PUSH1 0x20 ADD PUSH1 0x2 DUP3 ADD SLOAD DUP2 MSTORE PUSH1 0x20 ADD PUSH1 0x3 DUP3 ADD SLOAD DUP2 MSTORE POP POP SWAP2 POP POP SWAP1 JUMP JUMPDEST PUSH1 0x0 PUSH1 0x40 MLOAD DUP1 PUSH1 0x80 ADD PUSH1 0x40 MSTORE DUP1 DUP7 PUSH20 0xFFFFFFFFFFFFFFFFFFFFFFFFFFFFFFFFFFFFFFFF AND DUP2 MSTORE PUSH1 0x20 ADD DUP6 PUSH20 0xFFFFFFFFFFFFFFFFFFFFFFFFFFFFFFFFFFFFFFFF AND DUP2 MSTORE PUSH1 0x20 ADD DUP5 DUP2 MSTORE PUSH1 0x20 ADD DUP4 DUP2 MSTORE POP SWAP1 POP PUSH1 0x0 DUP2 SWAP1 DUP1 PUSH1 0x1 DUP2 SLOAD ADD DUP1 DUP3 SSTORE DUP1 SWAP2 POP POP PUSH1 0x1 SWAP1 SUB SWAP1 PUSH1 0x0 MSTORE PUSH1 0x20 PUSH1 0x0 KECCAK256 SWAP1 PUSH1 0x4 MUL ADD PUSH1 0x0 SWAP1 SWAP2 SWAP1 SWAP2 SWAP1 SWAP2 POP PUSH1 0x0 DUP3 ADD MLOAD DUP2 PUSH1 0x0 ADD PUSH1 0x0 PUSH2 0x100 EXP DUP2 SLOAD DUP2 PUSH20 0xFFFFFFFFFFFFFFFFFFFFFFFFFFFFFFFFFFFFFFFF MUL NOT AND SWAP1 DUP4 PUSH20 0xFFFFFFFFFFFFFFFFFFFFFFFFFFFFFFFFFFFFFFFF AND MUL OR SWAP1 SSTORE POP PUSH1 0x20 DUP3 ADD MLOAD DUP2 PUSH1 0x1 ADD PUSH1 0x0 PUSH2 0x100 EXP DUP2 SLOAD DUP2 PUSH20 0xFFFFFFFFFFFFFFFFFFFFFFFFFFFFFFFFFFFFFFFF MUL NOT AND SWAP1 DUP4 PUSH20 0xFFFFFFFFFFFFFFFFFFFFFFFFFFFFFFFFFFFFFFFF AND MUL OR SWAP1 SSTORE POP PUSH1 0x40 DUP3 ADD MLOAD DUP2 PUSH1 0x2 ADD SSTORE PUSH1 0x60 DUP3 ADD MLOAD DUP2 PUSH1 0x3 ADD SSTORE POP POP DUP1 PUSH1 0x1 PUSH1 0x0 PUSH1 0x2 SLOAD DUP2 MSTORE PUSH1 0x20 ADD SWAP1 DUP2 MSTORE PUSH1 0x20 ADD PUSH1 0x0 KECCAK256 PUSH1 0x0 DUP3 ADD MLOAD DUP2 PUSH1 0x0 ADD PUSH1 0x0 PUSH2 0x100 EXP DUP2 SLOAD DUP2 PUSH20 0xFFFFFFFFFFFFFFFFFFFFFFFFFFFFFFFFFFFFFFFF MUL NOT AND SWAP1 DUP4 PUSH20 0xFFFFFFFFFFFFFFFFFFFFFFFFFFFFFFFFFFFFFFFF AND MUL OR SWAP1 SSTORE POP PUSH1 0x20 DUP3 ADD MLOAD DUP2 PUSH1 0x1 ADD PUSH1 0x0 PUSH2 0x100 EXP DUP2 SLOAD DUP2 PUSH20 0xFFFFFFFFFFFFFFFFFFFFFFFFFFFFFFFFFFFFFFFF MUL NOT AND SWAP1 DUP4 PUSH20 0xFFFFFFFFFFFFFFFFFFFFFFFFFFFFFFFFFFFFFFFF AND MUL OR SWAP1 SSTORE POP PUSH1 0x40 DUP3 ADD MLOAD DUP2 PUSH1 0x2 ADD SSTORE PUSH1 0x60 DUP3 ADD MLOAD DUP2 PUSH1 0x3 ADD SSTORE SWAP1 POP POP PUSH1 0x2 PUSH1 0x0 DUP2 SLOAD DUP1 SWAP3 SWAP2 SWAP1 PUSH2 0x100D SWAP1 PUSH2 0x1C40 JUMP JUMPDEST SWAP2 SWAP1 POP SSTORE POP POP POP POP POP POP JUMP JUMPDEST PUSH1 0x40 MLOAD DUP1 PUSH1 0x60 ADD PUSH1 0x40 MSTORE DUP1 PUSH1 0x0 DUP2 MSTORE PUSH1 0x20 ADD PUSH1 0x0 DUP2 MSTORE PUSH1 0x20 ADD PUSH1 0x0 PUSH20 0xFFFFFFFFFFFFFFFFFFFFFFFFFFFFFFFFFFFFFFFF AND DUP2 MSTORE POP SWAP1 JUMP JUMPDEST PUSH1 0x40 MLOAD DUP1 PUSH1 0x80 ADD PUSH1 0x40 MSTORE DUP1 PUSH1 0x0 PUSH20 0xFFFFFFFFFFFFFFFFFFFFFFFFFFFFFFFFFFFFFFFF AND DUP2 MSTORE PUSH1 0x20 ADD PUSH1 0x0 PUSH20 0xFFFFFFFFFFFFFFFFFFFFFFFFFFFFFFFFFFFFFFFF AND DUP2 MSTORE PUSH1 0x20 ADD PUSH1 0x0 DUP2 MSTORE PUSH1 0x20 ADD PUSH1 0x0 DUP2 MSTORE POP SWAP1 JUMP JUMPDEST PUSH1 0x0 PUSH1 0x40 MLOAD SWAP1 POP SWAP1 JUMP JUMPDEST PUSH1 0x0 DUP1 REVERT JUMPDEST PUSH1 0x0 DUP1 REVERT JUMPDEST PUSH1 0x0 DUP2 SWAP1 POP SWAP2 SWAP1 POP JUMP JUMPDEST PUSH2 0x10CB DUP2 PUSH2 0x10B8 JUMP JUMPDEST DUP2 EQ PUSH2 0x10D6 JUMPI PUSH1 0x0 DUP1 REVERT JUMPDEST POP JUMP JUMPDEST PUSH1 0x0 DUP2 CALLDATALOAD SWAP1 POP PUSH2 0x10E8 DUP2 PUSH2 0x10C2 JUMP JUMPDEST SWAP3 SWAP2 POP POP JUMP JUMPDEST PUSH1 0x0 PUSH1 0x20 DUP3 DUP5 SUB SLT ISZERO PUSH2 0x1104 JUMPI PUSH2 0x1103 PUSH2 0x10AE JUMP JUMPDEST JUMPDEST PUSH1 0x0 PUSH2 0x1112 DUP5 DUP3 DUP6 ADD PUSH2 0x10D9 JUMP JUMPDEST SWAP2 POP POP SWAP3 SWAP2 POP POP JUMP JUMPDEST PUSH1 0x0 PUSH20 0xFFFFFFFFFFFFFFFFFFFFFFFFFFFFFFFFFFFFFFFF DUP3 AND SWAP1 POP SWAP2 SWAP1 POP JUMP JUMPDEST PUSH1 0x0 PUSH2 0x1146 DUP3 PUSH2 0x111B JUMP JUMPDEST SWAP1 POP SWAP2 SWAP1 POP JUMP JUMPDEST PUSH2 0x1156 DUP2 PUSH2 0x113B JUMP JUMPDEST DUP3 MSTORE POP POP JUMP JUMPDEST PUSH2 0x1165 DUP2 PUSH2 0x10B8 JUMP JUMPDEST DUP3 MSTORE POP POP JUMP JUMPDEST PUSH1 0x0 PUSH1 0x80 DUP3 ADD SWAP1 POP PUSH2 0x1180 PUSH1 0x0 DUP4 ADD DUP8 PUSH2 0x114D JUMP JUMPDEST PUSH2 0x118D PUSH1 0x20 DUP4 ADD DUP7 PUSH2 0x114D JUMP JUMPDEST PUSH2 0x119A PUSH1 0x40 DUP4 ADD DUP6 PUSH2 0x115C JUMP JUMPDEST PUSH2 0x11A7 PUSH1 0x60 DUP4 ADD DUP5 PUSH2 0x115C JUMP JUMPDEST SWAP6 SWAP5 POP POP POP POP POP JUMP JUMPDEST PUSH2 0x11B9 DUP2 PUSH2 0x113B JUMP JUMPDEST DUP2 EQ PUSH2 0x11C4 JUMPI PUSH1 0x0 DUP1 REVERT JUMPDEST POP JUMP JUMPDEST PUSH1 0x0 DUP2 CALLDATALOAD SWAP1 POP PUSH2 0x11D6 DUP2 PUSH2 0x11B0 JUMP JUMPDEST SWAP3 SWAP2 POP POP JUMP JUMPDEST PUSH1 0x0 DUP1 PUSH1 0x40 DUP4 DUP6 SUB SLT ISZERO PUSH2 0x11F3 JUMPI PUSH2 0x11F2 PUSH2 0x10AE JUMP JUMPDEST JUMPDEST PUSH1 0x0 PUSH2 0x1201 DUP6 DUP3 DUP7 ADD PUSH2 0x10D9 JUMP JUMPDEST SWAP3 POP POP PUSH1 0x20 PUSH2 0x1212 DUP6 DUP3 DUP7 ADD PUSH2 0x11C7 JUMP JUMPDEST SWAP2 POP POP SWAP3 POP SWAP3 SWAP1 POP JUMP JUMPDEST PUSH1 0x0 PUSH1 0x20 DUP3 ADD SWAP1 POP PUSH2 0x1231 PUSH1 0x0 DUP4 ADD DUP5 PUSH2 0x115C JUMP JUMPDEST SWAP3 SWAP2 POP POP JUMP JUMPDEST PUSH1 0x0 DUP1 REVERT JUMPDEST PUSH1 0x0 DUP1 REVERT JUMPDEST PUSH1 0x0 PUSH1 0x1F NOT PUSH1 0x1F DUP4 ADD AND SWAP1 POP SWAP2 SWAP1 POP JUMP JUMPDEST PUSH32 0x4E487B7100000000000000000000000000000000000000000000000000000000 PUSH1 0x0 MSTORE PUSH1 0x41 PUSH1 0x4 MSTORE PUSH1 0x24 PUSH1 0x0 REVERT JUMPDEST PUSH2 0x128A DUP3 PUSH2 0x1241 JUMP JUMPDEST DUP2 ADD DUP2 DUP2 LT PUSH8 0xFFFFFFFFFFFFFFFF DUP3 GT OR ISZERO PUSH2 0x12A9 JUMPI PUSH2 0x12A8 PUSH2 0x1252 JUMP JUMPDEST JUMPDEST DUP1 PUSH1 0x40 MSTORE POP POP POP JUMP JUMPDEST PUSH1 0x0 PUSH2 0x12BC PUSH2 0x10A4 JUMP JUMPDEST SWAP1 POP PUSH2 0x12C8 DUP3 DUP3 PUSH2 0x1281 JUMP JUMPDEST SWAP2 SWAP1 POP JUMP JUMPDEST PUSH1 0x0 PUSH8 0xFFFFFFFFFFFFFFFF DUP3 GT ISZERO PUSH2 0x12E8 JUMPI PUSH2 0x12E7 PUSH2 0x1252 JUMP JUMPDEST JUMPDEST PUSH2 0x12F1 DUP3 PUSH2 0x1241 JUMP JUMPDEST SWAP1 POP PUSH1 0x20 DUP2 ADD SWAP1 POP SWAP2 SWAP1 POP JUMP JUMPDEST DUP3 DUP2 DUP4 CALLDATACOPY PUSH1 0x0 DUP4 DUP4 ADD MSTORE POP POP POP JUMP JUMPDEST PUSH1 0x0 PUSH2 0x1320 PUSH2 0x131B DUP5 PUSH2 0x12CD JUMP JUMPDEST PUSH2 0x12B2 JUMP JUMPDEST SWAP1 POP DUP3 DUP2 MSTORE PUSH1 0x20 DUP2 ADD DUP5 DUP5 DUP5 ADD GT ISZERO PUSH2 0x133C JUMPI PUSH2 0x133B PUSH2 0x123C JUMP JUMPDEST JUMPDEST PUSH2 0x1347 DUP5 DUP3 DUP6 PUSH2 0x12FE JUMP JUMPDEST POP SWAP4 SWAP3 POP POP POP JUMP JUMPDEST PUSH1 0x0 DUP3 PUSH1 0x1F DUP4 ADD SLT PUSH2 0x1364 JUMPI PUSH2 0x1363 PUSH2 0x1237 JUMP JUMPDEST JUMPDEST DUP2 CALLDATALOAD PUSH2 0x1374 DUP5 DUP3 PUSH1 0x20 DUP7 ADD PUSH2 0x130D JUMP JUMPDEST SWAP2 POP POP SWAP3 SWAP2 POP POP JUMP JUMPDEST PUSH1 0x0 DUP1 PUSH1 0x40 DUP4 DUP6 SUB SLT ISZERO PUSH2 0x1394 JUMPI PUSH2 0x1393 PUSH2 0x10AE JUMP JUMPDEST JUMPDEST PUSH1 0x0 DUP4 ADD CALLDATALOAD PUSH8 0xFFFFFFFFFFFFFFFF DUP2 GT ISZERO PUSH2 0x13B2 JUMPI PUSH2 0x13B1 PUSH2 0x10B3 JUMP JUMPDEST JUMPDEST PUSH2 0x13BE DUP6 DUP3 DUP7 ADD PUSH2 0x134F JUMP JUMPDEST SWAP3 POP POP PUSH1 0x20 DUP4 ADD CALLDATALOAD PUSH8 0xFFFFFFFFFFFFFFFF DUP2 GT ISZERO PUSH2 0x13DF JUMPI PUSH2 0x13DE PUSH2 0x10B3 JUMP JUMPDEST JUMPDEST PUSH2 0x13EB DUP6 DUP3 DUP7 ADD PUSH2 0x134F JUMP JUMPDEST SWAP2 POP POP SWAP3 POP SWAP3 SWAP1 POP JUMP JUMPDEST PUSH1 0x0 DUP2 ISZERO ISZERO SWAP1 POP SWAP2 SWAP1 POP JUMP JUMPDEST PUSH2 0x140A DUP2 PUSH2 0x13F5 JUMP JUMPDEST DUP3 MSTORE POP POP JUMP JUMPDEST PUSH1 0x0 PUSH1 0x20 DUP3 ADD SWAP1 POP PUSH2 0x1425 PUSH1 0x0 DUP4 ADD DUP5 PUSH2 0x1401 JUMP JUMPDEST SWAP3 SWAP2 POP POP JUMP JUMPDEST PUSH1 0x0 DUP2 MLOAD SWAP1 POP SWAP2 SWAP1 POP JUMP JUMPDEST PUSH1 0x0 DUP3 DUP3 MSTORE PUSH1 0x20 DUP3 ADD SWAP1 POP SWAP3 SWAP2 POP POP JUMP JUMPDEST PUSH1 0x0 JUMPDEST DUP4 DUP2 LT ISZERO PUSH2 0x1465 JUMPI DUP1 DUP3 ADD MLOAD DUP2 DUP5 ADD MSTORE PUSH1 0x20 DUP2 ADD SWAP1 POP PUSH2 0x144A JUMP JUMPDEST PUSH1 0x0 DUP5 DUP5 ADD MSTORE POP POP POP POP JUMP JUMPDEST PUSH1 0x0 PUSH2 0x147C DUP3 PUSH2 0x142B JUMP JUMPDEST PUSH2 0x1486 DUP2 DUP6 PUSH2 0x1436 JUMP JUMPDEST SWAP4 POP PUSH2 0x1496 DUP2 DUP6 PUSH1 0x20 DUP7 ADD PUSH2 0x1447 JUMP JUMPDEST PUSH2 0x149F DUP2 PUSH2 0x1241 JUMP JUMPDEST DUP5 ADD SWAP2 POP POP SWAP3 SWAP2 POP POP JUMP JUMPDEST PUSH1 0x0 PUSH1 0x20 DUP3 ADD SWAP1 POP DUP2 DUP2 SUB PUSH1 0x0 DUP4 ADD MSTORE PUSH2 0x14C4 DUP2 DUP5 PUSH2 0x1471 JUMP JUMPDEST SWAP1 POP SWAP3 SWAP2 POP POP JUMP JUMPDEST PUSH1 0x0 DUP2 MLOAD SWAP1 POP SWAP2 SWAP1 POP JUMP JUMPDEST PUSH1 0x0 DUP3 DUP3 MSTORE PUSH1 0x20 DUP3 ADD SWAP1 POP SWAP3 SWAP2 POP POP JUMP JUMPDEST PUSH1 0x0 DUP2 SWAP1 POP PUSH1 0x20 DUP3 ADD SWAP1 POP SWAP2 SWAP1 POP JUMP JUMPDEST PUSH2 0x1501 DUP2 PUSH2 0x113B JUMP JUMPDEST DUP3 MSTORE POP POP JUMP JUMPDEST PUSH2 0x1510 DUP2 PUSH2 0x10B8 JUMP JUMPDEST DUP3 MSTORE POP POP JUMP JUMPDEST PUSH1 0x80 DUP3 ADD PUSH1 0x0 DUP3 ADD MLOAD PUSH2 0x152C PUSH1 0x0 DUP6 ADD DUP3 PUSH2 0x14F8 JUMP JUMPDEST POP PUSH1 0x20 DUP3 ADD MLOAD PUSH2 0x153F PUSH1 0x20 DUP6 ADD DUP3 PUSH2 0x14F8 JUMP JUMPDEST POP PUSH1 0x40 DUP3 ADD MLOAD PUSH2 0x1552 PUSH1 0x40 DUP6 ADD DUP3 PUSH2 0x1507 JUMP JUMPDEST POP PUSH1 0x60 DUP3 ADD MLOAD PUSH2 0x1565 PUSH1 0x60 DUP6 ADD DUP3 PUSH2 0x1507 JUMP JUMPDEST POP POP POP POP JUMP JUMPDEST PUSH1 0x0 PUSH2 0x1577 DUP4 DUP4 PUSH2 0x1516 JUMP JUMPDEST PUSH1 0x80 DUP4 ADD SWAP1 POP SWAP3 SWAP2 POP POP JUMP JUMPDEST PUSH1 0x0 PUSH1 0x20 DUP3 ADD SWAP1 POP SWAP2 SWAP1 POP JUMP JUMPDEST PUSH1 0x0 PUSH2 0x159B DUP3 PUSH2 0x14CC JUMP JUMPDEST PUSH2 0x15A5 DUP2 DUP6 PUSH2 0x14D7 JUMP JUMPDEST SWAP4 POP PUSH2 0x15B0 DUP4 PUSH2 0x14E8 JUMP JUMPDEST DUP1 PUSH1 0x0 JUMPDEST DUP4 DUP2 LT ISZERO PUSH2 0x15E1 JUMPI DUP2 MLOAD PUSH2 0x15C8 DUP9 DUP3 PUSH2 0x156B JUMP JUMPDEST SWAP8 POP PUSH2 0x15D3 DUP4 PUSH2 0x1583 JUMP JUMPDEST SWAP3 POP POP PUSH1 0x1 DUP2 ADD SWAP1 POP PUSH2 0x15B4 JUMP JUMPDEST POP DUP6 SWAP4 POP POP POP POP SWAP3 SWAP2 POP POP JUMP JUMPDEST PUSH1 0x0 PUSH1 0x20 DUP3 ADD SWAP1 POP DUP2 DUP2 SUB PUSH1 0x0 DUP4 ADD MSTORE PUSH2 0x1608 DUP2 DUP5 PUSH2 0x1590 JUMP JUMPDEST SWAP1 POP SWAP3 SWAP2 POP POP JUMP JUMPDEST PUSH1 0x80 DUP3 ADD PUSH1 0x0 DUP3 ADD MLOAD PUSH2 0x1626 PUSH1 0x0 DUP6 ADD DUP3 PUSH2 0x14F8 JUMP JUMPDEST POP PUSH1 0x20 DUP3 ADD MLOAD PUSH2 0x1639 PUSH1 0x20 DUP6 ADD DUP3 PUSH2 0x14F8 JUMP JUMPDEST POP PUSH1 0x40 DUP3 ADD MLOAD PUSH2 0x164C PUSH1 0x40 DUP6 ADD DUP3 PUSH2 0x1507 JUMP JUMPDEST POP PUSH1 0x60 DUP3 ADD MLOAD PUSH2 0x165F PUSH1 0x60 DUP6 ADD DUP3 PUSH2 0x1507 JUMP JUMPDEST POP POP POP POP JUMP JUMPDEST PUSH1 0x0 PUSH1 0x80 DUP3 ADD SWAP1 POP PUSH2 0x167A PUSH1 0x0 DUP4 ADD DUP5 PUSH2 0x1610 JUMP JUMPDEST SWAP3 SWAP2 POP POP JUMP JUMPDEST PUSH32 0x2054686973206164647265737320646F65736E27742065786973747300000000 PUSH1 0x0 DUP3 ADD MSTORE POP JUMP JUMPDEST PUSH1 0x0 PUSH2 0x16B6 PUSH1 0x1C DUP4 PUSH2 0x1436 JUMP JUMPDEST SWAP2 POP PUSH2 0x16C1 DUP3 PUSH2 0x1680 JUMP JUMPDEST PUSH1 0x20 DUP3 ADD SWAP1 POP SWAP2 SWAP1 POP JUMP JUMPDEST PUSH1 0x0 PUSH1 0x20 DUP3 ADD SWAP1 POP DUP2 DUP2 SUB PUSH1 0x0 DUP4 ADD MSTORE PUSH2 0x16E5 DUP2 PUSH2 0x16A9 JUMP JUMPDEST SWAP1 POP SWAP2 SWAP1 POP JUMP JUMPDEST PUSH32 0x506C6561736520696E7365727420796F75722063617264000000000000000000 PUSH1 0x0 DUP3 ADD MSTORE POP JUMP JUMPDEST PUSH1 0x0 PUSH2 0x1722 PUSH1 0x17 DUP4 PUSH2 0x1436 JUMP JUMPDEST SWAP2 POP PUSH2 0x172D DUP3 PUSH2 0x16EC JUMP JUMPDEST PUSH1 0x20 DUP3 ADD SWAP1 POP SWAP2 SWAP1 POP JUMP JUMPDEST PUSH1 0x0 PUSH1 0x20 DUP3 ADD SWAP1 POP DUP2 DUP2 SUB PUSH1 0x0 DUP4 ADD MSTORE PUSH2 0x1751 DUP2 PUSH2 0x1715 JUMP JUMPDEST SWAP1 POP SWAP2 SWAP1 POP JUMP JUMPDEST PUSH32 0x4E487B7100000000000000000000000000000000000000000000000000000000 PUSH1 0x0 MSTORE PUSH1 0x11 PUSH1 0x4 MSTORE PUSH1 0x24 PUSH1 0x0 REVERT JUMPDEST PUSH1 0x0 PUSH2 0x1792 DUP3 PUSH2 0x10B8 JUMP JUMPDEST SWAP2 POP PUSH2 0x179D DUP4 PUSH2 0x10B8 JUMP JUMPDEST SWAP3 POP DUP3 DUP3 ADD SWAP1 POP DUP1 DUP3 GT ISZERO PUSH2 0x17B5 JUMPI PUSH2 0x17B4 PUSH2 0x1758 JUMP JUMPDEST JUMPDEST SWAP3 SWAP2 POP POP JUMP JUMPDEST PUSH32 0x4E487B7100000000000000000000000000000000000000000000000000000000 PUSH1 0x0 MSTORE PUSH1 0x1 PUSH1 0x4 MSTORE PUSH1 0x24 PUSH1 0x0 REVERT JUMPDEST PUSH32 0x6F6E6C792035207472616E73616374696F6E7320706572206461790000000000 PUSH1 0x0 DUP3 ADD MSTORE POP JUMP JUMPDEST PUSH1 0x0 PUSH2 0x1820 PUSH1 0x1B DUP4 PUSH2 0x1436 JUMP JUMPDEST SWAP2 POP PUSH2 0x182B DUP3 PUSH2 0x17EA JUMP JUMPDEST PUSH1 0x20 DUP3 ADD SWAP1 POP SWAP2 SWAP1 POP JUMP JUMPDEST PUSH1 0x0 PUSH1 0x20 DUP3 ADD SWAP1 POP DUP2 DUP2 SUB PUSH1 0x0 DUP4 ADD MSTORE PUSH2 0x184F DUP2 PUSH2 0x1813 JUMP JUMPDEST SWAP1 POP SWAP2 SWAP1 POP JUMP JUMPDEST PUSH1 0x0 PUSH2 0x1861 DUP3 PUSH2 0x10B8 JUMP JUMPDEST SWAP2 POP PUSH2 0x186C DUP4 PUSH2 0x10B8 JUMP JUMPDEST SWAP3 POP DUP3 DUP3 SUB SWAP1 POP DUP2 DUP2 GT ISZERO PUSH2 0x1884 JUMPI PUSH2 0x1883 PUSH2 0x1758 JUMP JUMPDEST JUMPDEST SWAP3 SWAP2 POP POP JUMP JUMPDEST PUSH32 0x4E487B7100000000000000000000000000000000000000000000000000000000 PUSH1 0x0 MSTORE PUSH1 0x22 PUSH1 0x4 MSTORE PUSH1 0x24 PUSH1 0x0 REVERT JUMPDEST PUSH1 0x0 PUSH1 0x2 DUP3 DIV SWAP1 POP PUSH1 0x1 DUP3 AND DUP1 PUSH2 0x18D1 JUMPI PUSH1 0x7F DUP3 AND SWAP2 POP JUMPDEST PUSH1 0x20 DUP3 LT DUP2 SUB PUSH2 0x18E4 JUMPI PUSH2 0x18E3 PUSH2 0x188A JUMP JUMPDEST JUMPDEST POP SWAP2 SWAP1 POP JUMP JUMPDEST PUSH1 0x0 DUP2 SWAP1 POP DUP2 PUSH1 0x0 MSTORE PUSH1 0x20 PUSH1 0x0 KECCAK256 SWAP1 POP SWAP2 SWAP1 POP JUMP JUMPDEST PUSH1 0x0 PUSH1 0x20 PUSH1 0x1F DUP4 ADD DIV SWAP1 POP SWAP2 SWAP1 POP JUMP JUMPDEST PUSH1 0x0 DUP3 DUP3 SHL SWAP1 POP SWAP3 SWAP2 POP POP JUMP JUMPDEST PUSH1 0x0 PUSH1 0x8 DUP4 MUL PUSH2 0x194C PUSH32 0xFFFFFFFFFFFFFFFFFFFFFFFFFFFFFFFFFFFFFFFFFFFFFFFFFFFFFFFFFFFFFFFF DUP3 PUSH2 0x190F JUMP JUMPDEST PUSH2 0x1956 DUP7 DUP4 PUSH2 0x190F JUMP JUMPDEST SWAP6 POP DUP1 NOT DUP5 AND SWAP4 POP DUP1 DUP7 AND DUP5 OR SWAP3 POP POP POP SWAP4 SWAP3 POP POP POP JUMP JUMPDEST PUSH1 0x0 DUP2 SWAP1 POP SWAP2 SWAP1 POP JUMP JUMPDEST PUSH1 0x0 PUSH2 0x1993 PUSH2 0x198E PUSH2 0x1989 DUP5 PUSH2 0x10B8 JUMP JUMPDEST PUSH2 0x196E JUMP JUMPDEST PUSH2 0x10B8 JUMP JUMPDEST SWAP1 POP SWAP2 SWAP1 POP JUMP JUMPDEST PUSH1 0x0 DUP2 SWAP1 POP SWAP2 SWAP1 POP JUMP JUMPDEST PUSH2 0x19AD DUP4 PUSH2 0x1978 JUMP JUMPDEST PUSH2 0x19C1 PUSH2 0x19B9 DUP3 PUSH2 0x199A JUMP JUMPDEST DUP5 DUP5 SLOAD PUSH2 0x191C JUMP JUMPDEST DUP3 SSTORE POP POP POP POP JUMP JUMPDEST PUSH1 0x0 SWAP1 JUMP JUMPDEST PUSH2 0x19D6 PUSH2 0x19C9 JUMP JUMPDEST PUSH2 0x19E1 DUP2 DUP5 DUP5 PUSH2 0x19A4 JUMP JUMPDEST POP POP POP JUMP JUMPDEST JUMPDEST DUP2 DUP2 LT ISZERO PUSH2 0x1A05 JUMPI PUSH2 0x19FA PUSH1 0x0 DUP3 PUSH2 0x19CE JUMP JUMPDEST PUSH1 0x1 DUP2 ADD SWAP1 POP PUSH2 0x19E7 JUMP JUMPDEST POP POP JUMP JUMPDEST PUSH1 0x1F DUP3 GT ISZERO PUSH2 0x1A4A JUMPI PUSH2 0x1A1B DUP2 PUSH2 0x18EA JUMP JUMPDEST PUSH2 0x1A24 DUP5 PUSH2 0x18FF JUMP JUMPDEST DUP2 ADD PUSH1 0x20 DUP6 LT ISZERO PUSH2 0x1A33 JUMPI DUP2 SWAP1 POP JUMPDEST PUSH2 0x1A47 PUSH2 0x1A3F DUP6 PUSH2 0x18FF JUMP JUMPDEST DUP4 ADD DUP3 PUSH2 0x19E6 JUMP JUMPDEST POP POP JUMPDEST POP POP POP JUMP JUMPDEST PUSH1 0x0 DUP3 DUP3 SHR SWAP1 POP SWAP3 SWAP2 POP POP JUMP JUMPDEST PUSH1 0x0 PUSH2 0x1A6D PUSH1 0x0 NOT DUP5 PUSH1 0x8 MUL PUSH2 0x1A4F JUMP JUMPDEST NOT DUP1 DUP4 AND SWAP2 POP POP SWAP3 SWAP2 POP POP JUMP JUMPDEST PUSH1 0x0 PUSH2 0x1A86 DUP4 DUP4 PUSH2 0x1A5C JUMP JUMPDEST SWAP2 POP DUP3 PUSH1 0x2 MUL DUP3 OR SWAP1 POP SWAP3 SWAP2 POP POP JUMP JUMPDEST PUSH2 0x1A9F DUP3 PUSH2 0x142B JUMP JUMPDEST PUSH8 0xFFFFFFFFFFFFFFFF DUP2 GT ISZERO PUSH2 0x1AB8 JUMPI PUSH2 0x1AB7 PUSH2 0x1252 JUMP JUMPDEST JUMPDEST PUSH2 0x1AC2 DUP3 SLOAD PUSH2 0x18B9 JUMP JUMPDEST PUSH2 0x1ACD DUP3 DUP3 DUP6 PUSH2 0x1A09 JUMP JUMPDEST PUSH1 0x0 PUSH1 0x20 SWAP1 POP PUSH1 0x1F DUP4 GT PUSH1 0x1 DUP2 EQ PUSH2 0x1B00 JUMPI PUSH1 0x0 DUP5 ISZERO PUSH2 0x1AEE JUMPI DUP3 DUP8 ADD MLOAD SWAP1 POP JUMPDEST PUSH2 0x1AF8 DUP6 DUP3 PUSH2 0x1A7A JUMP JUMPDEST DUP7 SSTORE POP PUSH2 0x1B60 JUMP JUMPDEST PUSH1 0x1F NOT DUP5 AND PUSH2 0x1B0E DUP7 PUSH2 0x18EA JUMP JUMPDEST PUSH1 0x0 JUMPDEST DUP3 DUP2 LT ISZERO PUSH2 0x1B36 JUMPI DUP5 DUP10 ADD MLOAD DUP3 SSTORE PUSH1 0x1 DUP3 ADD SWAP2 POP PUSH1 0x20 DUP6 ADD SWAP5 POP PUSH1 0x20 DUP2 ADD SWAP1 POP PUSH2 0x1B11 JUMP JUMPDEST DUP7 DUP4 LT ISZERO PUSH2 0x1B53 JUMPI DUP5 DUP10 ADD MLOAD PUSH2 0x1B4F PUSH1 0x1F DUP10 AND DUP3 PUSH2 0x1A5C JUMP JUMPDEST DUP4 SSTORE POP JUMPDEST PUSH1 0x1 PUSH1 0x2 DUP9 MUL ADD DUP9 SSTORE POP POP POP JUMPDEST POP POP POP POP POP POP JUMP JUMPDEST PUSH32 0x4E6F7420656E6F7567682066756E647300000000000000000000000000000000 PUSH1 0x0 DUP3 ADD MSTORE POP JUMP JUMPDEST PUSH1 0x0 PUSH2 0x1B9E PUSH1 0x10 DUP4 PUSH2 0x1436 JUMP JUMPDEST SWAP2 POP PUSH2 0x1BA9 DUP3 PUSH2 0x1B68 JUMP JUMPDEST PUSH1 0x20 DUP3 ADD SWAP1 POP SWAP2 SWAP1 POP JUMP JUMPDEST PUSH1 0x0 PUSH1 0x20 DUP3 ADD SWAP1 POP DUP2 DUP2 SUB PUSH1 0x0 DUP4 ADD MSTORE PUSH2 0x1BCD DUP2 PUSH2 0x1B91 JUMP JUMPDEST SWAP1 POP SWAP2 SWAP1 POP JUMP JUMPDEST PUSH32 0x4E6F2076616C6964206372656469742063617264000000000000000000000000 PUSH1 0x0 DUP3 ADD MSTORE POP JUMP JUMPDEST PUSH1 0x0 PUSH2 0x1C0A PUSH1 0x14 DUP4 PUSH2 0x1436 JUMP JUMPDEST SWAP2 POP PUSH2 0x1C15 DUP3 PUSH2 0x1BD4 JUMP JUMPDEST PUSH1 0x20 DUP3 ADD SWAP1 POP SWAP2 SWAP1 POP JUMP JUMPDEST PUSH1 0x0 PUSH1 0x20 DUP3 ADD SWAP1 POP DUP2 DUP2 SUB PUSH1 0x0 DUP4 ADD MSTORE PUSH2 0x1C39 DUP2 PUSH2 0x1BFD JUMP JUMPDEST SWAP1 POP SWAP2 SWAP1 POP JUMP JUMPDEST PUSH1 0x0 PUSH2 0x1C4B DUP3 PUSH2 0x10B8 JUMP JUMPDEST SWAP2 POP PUSH32 0xFFFFFFFFFFFFFFFFFFFFFFFFFFFFFFFFFFFFFFFFFFFFFFFFFFFFFFFFFFFFFFFF DUP3 SUB PUSH2 0x1C7D JUMPI PUSH2 0x1C7C PUSH2 0x1758 JUMP JUMPDEST JUMPDEST PUSH1 0x1 DUP3 ADD SWAP1 POP SWAP2 SWAP1 POP JUMP INVALID LOG2 PUSH5 0x6970667358 0x22 SLT KECCAK256 PUSH15 0x429D3B1CCA3F5D90DEBBA6B86F9A27 0x4D 0xDF 0x4B SUB PUSH14 0x2CB7CA539EF8522719631564736F PUSH13 0x63430008100033000000000000 "
				},
				"gasEstimates": {
					"creation": {
						"codeDepositCost": "1471600",
						"executionCost": "infinite",
						"totalCost": "infinite"
					},
					"external": {
						"TotalAmount()": "2496",
						"TotalFunds()": "2474",
						"amount()": "2473",
						"callCount()": "2496",
						"callPutCard()": "2494",
						"cardNumber()": "infinite",
						"cvv()": "infinite",
						"deposit(uint256)": "infinite",
						"firstTransferTime()": "2497",
						"getLastTransaction()": "infinite",
						"getNumberOfTransactions()": "2549",
						"getOutCard()": "24522",
						"getTime()": "447",
						"getTransactionById(uint256)": "infinite",
						"getTransactions()": "infinite",
						"message()": "infinite",
						"sendMoney(uint256,address)": "infinite",
						"setCard(string,string)": "infinite",
						"transactionList(uint256)": "infinite",
						"trn(uint256)": "infinite",
						"withdrawMoney(uint256)": "infinite"
					}
				},
				"methodIdentifiers": {
					"TotalAmount()": "7eb9f571",
					"TotalFunds()": "7b9a3f4c",
					"amount()": "aa8c217c",
					"callCount()": "4b28f9a2",
					"callPutCard()": "3c626f00",
					"cardNumber()": "8fa11864",
					"cvv()": "42fb7936",
					"deposit(uint256)": "b6b55f25",
					"firstTransferTime()": "0e85fa72",
					"getLastTransaction()": "f7e03fd8",
					"getNumberOfTransactions()": "24ba506d",
					"getOutCard()": "8e029c0b",
					"getTime()": "557ed1ba",
					"getTransactionById(uint256)": "f4b30eaf",
					"getTransactions()": "83920e90",
					"message()": "e21f37ce",
					"sendMoney(uint256,address)": "062a7544",
					"setCard(string,string)": "12a029a4",
					"transactionList(uint256)": "04ef5b21",
					"trn(uint256)": "57bf72e3",
					"withdrawMoney(uint256)": "54876921"
				}
			},
			"storageLayout": {
				"storage": [
					{
						"astId": 321,
						"contract": "Dapp/MoneyTransfer.sol:MoneyTransfer",
						"label": "transactionList",
						"offset": 0,
						"slot": "0",
						"type": "t_array(t_struct(Transactions)317_storage)dyn_storage"
					},
					{
						"astId": 326,
						"contract": "Dapp/MoneyTransfer.sol:MoneyTransfer",
						"label": "trn",
						"offset": 0,
						"slot": "1",
						"type": "t_mapping(t_uint256,t_struct(Transactions)317_storage)"
					},
					{
						"astId": 329,
						"contract": "Dapp/MoneyTransfer.sol:MoneyTransfer",
						"label": "counter",
						"offset": 0,
						"slot": "2",
						"type": "t_uint256"
					},
					{
						"astId": 276,
						"contract": "Dapp/MoneyTransfer.sol:MoneyTransfer",
						"label": "deposited",
						"offset": 0,
						"slot": "3",
						"type": "t_mapping(t_address,t_uint256)"
					},
					{
						"astId": 9,
						"contract": "Dapp/MoneyTransfer.sol:MoneyTransfer",
						"label": "amount",
						"offset": 0,
						"slot": "4",
						"type": "t_uint256"
					},
					{
						"astId": 11,
						"contract": "Dapp/MoneyTransfer.sol:MoneyTransfer",
						"label": "TotalFunds",
						"offset": 0,
						"slot": "5",
						"type": "t_uint256"
					},
					{
						"astId": 13,
						"contract": "Dapp/MoneyTransfer.sol:MoneyTransfer",
						"label": "receiver",
						"offset": 0,
						"slot": "6",
						"type": "t_address"
					},
					{
						"astId": 15,
						"contract": "Dapp/MoneyTransfer.sol:MoneyTransfer",
						"label": "message",
						"offset": 0,
						"slot": "7",
						"type": "t_string_storage"
					},
					{
						"astId": 17,
						"contract": "Dapp/MoneyTransfer.sol:MoneyTransfer",
						"label": "cardNumber",
						"offset": 0,
						"slot": "8",
						"type": "t_string_storage"
					},
					{
						"astId": 19,
						"contract": "Dapp/MoneyTransfer.sol:MoneyTransfer",
						"label": "cvv",
						"offset": 0,
						"slot": "9",
						"type": "t_string_storage"
					},
					{
						"astId": 21,
						"contract": "Dapp/MoneyTransfer.sol:MoneyTransfer",
						"label": "TotalAmount",
						"offset": 0,
						"slot": "10",
						"type": "t_uint256"
					},
					{
						"astId": 23,
						"contract": "Dapp/MoneyTransfer.sol:MoneyTransfer",
						"label": "firstTransferTime",
						"offset": 0,
						"slot": "11",
						"type": "t_uint256"
					},
					{
						"astId": 36,
						"contract": "Dapp/MoneyTransfer.sol:MoneyTransfer",
						"label": "callCount",
						"offset": 0,
						"slot": "12",
						"type": "t_uint256"
					},
					{
						"astId": 39,
						"contract": "Dapp/MoneyTransfer.sol:MoneyTransfer",
						"label": "callPutCard",
						"offset": 0,
						"slot": "13",
						"type": "t_bool"
					}
				],
				"types": {
					"t_address": {
						"encoding": "inplace",
						"label": "address",
						"numberOfBytes": "20"
					},
					"t_array(t_struct(Transactions)317_storage)dyn_storage": {
						"base": "t_struct(Transactions)317_storage",
						"encoding": "dynamic_array",
						"label": "struct Transaction.Transactions[]",
						"numberOfBytes": "32"
					},
					"t_bool": {
						"encoding": "inplace",
						"label": "bool",
						"numberOfBytes": "1"
					},
					"t_mapping(t_address,t_uint256)": {
						"encoding": "mapping",
						"key": "t_address",
						"label": "mapping(address => uint256)",
						"numberOfBytes": "32",
						"value": "t_uint256"
					},
					"t_mapping(t_uint256,t_struct(Transactions)317_storage)": {
						"encoding": "mapping",
						"key": "t_uint256",
						"label": "mapping(uint256 => struct Transaction.Transactions)",
						"numberOfBytes": "32",
						"value": "t_struct(Transactions)317_storage"
					},
					"t_string_storage": {
						"encoding": "bytes",
						"label": "string",
						"numberOfBytes": "32"
					},
					"t_struct(Transactions)317_storage": {
						"encoding": "inplace",
						"label": "struct Transaction.Transactions",
						"members": [
							{
								"astId": 310,
								"contract": "Dapp/MoneyTransfer.sol:MoneyTransfer",
								"label": "address_from",
								"offset": 0,
								"slot": "0",
								"type": "t_address"
							},
							{
								"astId": 312,
								"contract": "Dapp/MoneyTransfer.sol:MoneyTransfer",
								"label": "address_to",
								"offset": 0,
								"slot": "1",
								"type": "t_address"
							},
							{
								"astId": 314,
								"contract": "Dapp/MoneyTransfer.sol:MoneyTransfer",
								"label": "amount",
								"offset": 0,
								"slot": "2",
								"type": "t_uint256"
							},
							{
								"astId": 316,
								"contract": "Dapp/MoneyTransfer.sol:MoneyTransfer",
								"label": "timestamp",
								"offset": 0,
								"slot": "3",
								"type": "t_uint256"
							}
						],
						"numberOfBytes": "128"
					},
					"t_uint256": {
						"encoding": "inplace",
						"label": "uint256",
						"numberOfBytes": "32"
					}
				}
			},
			"userdoc": {
				"kind": "user",
				"methods": {},
				"version": 1
			}
		}
	}
}